1XCALL    (XCAL2025) (13:01) (15MAR04) Using Map                                                                            Page  265
  34739  00005E12  00000001 USING  ORDINARY    00005E12 00001000 00000001   7 5FB   34885  $$$893B,7
  34753  00005E12  00000001 USING  ORDINARY    FFFFFFD8 00001000 FFFFFFB7   8 028   34882  BSPWA-(4+36),R8
  34893  00005E7C  00000001 USING  ORDINARY    00000000 00001000 FFFFFFF6   8 000          @R8,8
  34898  00005E7C  00000001 USING  ORDINARY    00000000 00001000 FFFFFFF7   7 000          @R7,7
  34961  00005EA4  00000001 USING  ORDINARY    00005EA4 00001000 00000001   7 5B2   35063  $$$898B,7
  35000  00005EB0  00000001 USING  ORDINARY    00000000 00001000 FFFFFFE8   6 218   35070  FFINFO,R6
  35010  00005EB2  00000001 USING  ORDINARY    00000000 00001000 FFFFFFE7   5 000   35070  XDSNAME,R5
  35093  00005EE0  00000001 USING  ORDINARY    00000000 00001000 FFFFFFF7   7 000          @R7,7
  35112  00005EEE  00000001 USING  ORDINARY    00000000 00001000 FFFFFFF8   6 000          @R6,6
  35119  00005EEE  00000001 USING  ORDINARY    00000000 00001000 FFFFFFF9   5 000          @R5,5
  35173  00005F08  00000001 USING  ORDINARY    00005F08 00001000 00000001   7 000          $$$906B,7
  35189  00005F08  00000001 USING  ORDINARY    00000000 00001000 FFFFFFE6   6 044   35204  XFENTRY,R6
  35198  00005F08  00000001 USING  ORDINARY    00000000 00001000 FFFFFFE7   5 03C   35205  XDSNAME,R5
  35217  00005F18  00000001 USING  ORDINARY    00000000 00001000 FFFFFFF7   7 000          @R7,7
  35236  00005F26  00000001 USING  ORDINARY    00000000 00001000 FFFFFFF8   6 000          @R6,6
  35243  00005F26  00000001 USING  ORDINARY    00000000 00001000 FFFFFFF9   5 000          @R5,5
  35289  00005F40  00000001 USING  ORDINARY    00005F40 00001000 00000001   7 000          $$$909B,7
  35305  00005F40  00000001 USING  ORDINARY    00000000 00001000 FFFFFFE6   6 000   35317  XFENTRY,R6
  35314  00005F40  00000001 USING  ORDINARY    00000000 00001000 FFFFFFE7   5 03C   35320  XDSNAME,R5
  35332  00005F4E  00000001 USING  ORDINARY    00000000 00001000 FFFFFFF7   7 000          @R7,7
  35351  00005F5C  00000001 USING  ORDINARY    00000000 00001000 FFFFFFF8   6 000          @R6,6
  35358  00005F5C  00000001 USING  ORDINARY    00000000 00001000 FFFFFFF9   5 000          @R5,5
  35426  00005F76  00000001 USING  ORDINARY    00005F76 00001000 00000001   7 4B3   35605  $$$912B,7
  35440  00005F76  00000001 USING  ORDINARY    FFFFFFD8 00001000 FFFFFFB6   8 02C   35582  SGLNWA-(4+36),R8
  35620  00005FFA  00000001 USING  ORDINARY    00000000 00001000 FFFFFFF6   8 000          @R8,8
  35625  00005FFA  00000001 USING  ORDINARY    00000000 00001000 FFFFFFF7   7 000          @R7,7
  35709  00006022  00000001 USING  ORDINARY    00006022 00001000 00000001   7 408   35975  $$$917B,7
  35723  00006022  00000001 USING  ORDINARY    FFFFFFD8 00001000 FFFFFFB5   8 030   35972  SGXLWA-(4+36),R8
  35992  000060CA  00000001 USING  ORDINARY    00000000 00001000 FFFFFFF6   8 000          @R8,8
  35997  000060CA  00000001 USING  ORDINARY    00000000 00001000 FFFFFFF7   7 000          @R7,7
  36076  000060F2  00000001 USING  ORDINARY    000060F2 00001000 00000001   7 35C   36398  $$$929B,7
  36090  000060F2  00000001 USING  ORDINARY    FFFFFFD8 00001000 FFFFFFB4   8 088   36164  SXNWA-(4+36),R8
  36101  000060F2  00000001 USING  ORDINARY    00000000 00001000 FFFFFFE6   6 000   36395  XFENTRY,R6
  36415  000061B2  00000001 USING  ORDINARY    00000000 00001000 FFFFFFF6   8 000          @R8,8
  36420  000061B2  00000001 USING  ORDINARY    00000000 00001000 FFFFFFF7   7 000          @R7,7
  36439  000061C0  00000001 USING  ORDINARY    00000000 00001000 FFFFFFF8   6 000          @R6,6
  36483  000061DA  00000001 USING  ORDINARY    000061DA 00001000 00000001   7 27B   36726  $$$945B,7
  36499  000061DA  00000001 USING  ORDINARY    00000000 00001000 FFFFFFE7   2 000   36652  XDSNAME,R2
  36743  00006280  00000001 USING  ORDINARY    00000000 00001000 FFFFFFF7   7 000          @R7,7
  36762  0000628E  00000001 USING  ORDINARY    00000000 00001000 FFFFFFFC   2 000          @R2,2
  36806  000062A8  00000001 USING  ORDINARY    000062A8 00001000 00000001   7 1AD   36957  $$$955B,7
  36822  000062A8  00000001 USING  ORDINARY    00000000 00001000 FFFFFFE7   2 000   36883  XDSNAME,R2
  36974  00006310  00000001 USING  ORDINARY    00000000 00001000 FFFFFFF7   7 000          @R7,7
  36993  0000631E  00000001 USING  ORDINARY    00000000 00001000 FFFFFFFC   2 000          @R2,2

1         (XCAL2025) (13:01) (15MAR04) General Purpose Register Cross Reference                                             Page  266
- Register  References (M=modified, B=branch, U=USING, D=DROP, N=index)                      HLASM R4.0  2004/03/15 13.01
0    0(0)      982U   983D  2099   2167M  2167   2168M  7537   7585M  7710   7858   8005M  8005   8072M  8106M  8106
              8193   8195M  8201M  8223M  8246M  8253   8275M  8288M  8297M  8307M  8316M  8325M  8335M  8340M  8354M
              8364M  8389M  8433M  8479   8522M  8527   8568M  8585   8619M  8739   8813M  8836M  8855M  8887M  8887
              8908   8921M  8921   8951M  8958   8961M  8970M  8997M  9034M  9038M  9039M  9051M  9051   9126M  9140M
              9155M  9160M  9167M  9194M  9246M  9280   9319M  9319   9328   9329   9364M  9364   9442M  9511   9552M
              9572   9613M  9692   9752M  9752   9761   9762   9763   9796M  9796   9821M  9822   9823   9878M  9878
              9887   9888   9930M  9935M  9942M  9977M  9987M  9987  10071M 10080M 10085M 10092M 10181M 10330  10403M
             10425  10592M 10614  10713M 10719  10720  10777M 10800  10873M 10895  11062M 11108  11215M 11215  11240M
             11253M 11287M 11312M 11312  11354M 11416  11461M 11461  11470  11471  11472  11492M 11492  11501  11502
             11503  11530M 11530  11541M 11607M 11614  11626M 11631  11651  11657M 11662M 11669M 11732M 11893  11951M
             11969M 11997M 12015M 12100M 12118M 12124  12178  12224  12226M 12248M 12255  12277M 12298M 12308M 12317M
             12326M 12343M 12376M 12420M 12492  12566M 12597M 12620M 12636  12666M 12666  12683M 12690  12693M 12702M
             12729M 12766M 12770M 12771M 12783M 12783  12858M 12872M 12887M 12914M 12966M 13045  13108  13125M 13125
             13134  13135  13136  13169M 13169  13194M 13195  13196  13251M 13251  13260  13261  13304M 13314M 13314
             13350M 13432M 13441M 13530M 13679  13752M 13774  13941M 13963  14062M 14068  14069  14126M 14149  14218M
             14240  14403M 14575  14640M 14677M 14695M 14754M 14760  14817M 14824  14846M 14859M 14871M 14909M 14964
             15002M 15089M 15144  15193M 15219M 15280M 15335  15445M 15445  15463M 15485M 15491M 15537  15546  15549M
             15571M 15609M 15663M 15739  15835M 15836M 15848  15854M 15859  15866  15875  15924M 15924  16019M 16067
             16102M 16109M 16176M 16212  16247M 16254M 16321M 16411  16497M 16497  16501  16519M 16569M 16634  16714M
             16714  16718  16736M 16786M 16835  16897  16898  16961  16963  16966  17000M 17013M 17047M 17206M 17207M
             17208  17276M 17282M 17305M 17354M 17423  17474M 17488  17502  17513M 17533M 17539M 17546M 17579M 17604M
             17666M 17805  17861M 17873M 17889M 17911M 17919M 17955M 17985M 17985  18002M 18041M 18078  18144M 18156M
             18172M 18211M 18219M 18255M 18285M 18285  18306M 18345M 18416  18464M 18482M 18510M 18528M 18564M 18582M
             18599M 18632  18699M 18776  18840M 18840  18849  18850  18904M 18947M 18992M 19015M 19058M 19144  19190M
             19211  19257M 19278  19304  19319M 19350  19381M 19397M 19467  19515  19543  19552M 19597M 19662M 19745
             19771  19815M 19821M 19828M 19853M 19893  19919  19932  19947M 19953M 19960M 19985M 20025  20088M 20155
             20225  20231M 20237M 20244M 20254M 20254  20273M 20273  20279  20281M 20297M 20334M 20391  20461  20467M
             20473M 20480M 20490M 20490  20509M 20509  20515  20517M 20533M 20570M 20637  20702M 20704  20709M 20715M
             20721M 20727M 20750M 20771  20797M 20818  20874M 20895  20921M 20942  21014M 21087  21166M 21172M 21192M
             21194  21230M 21287  21366M 21372M 21392M 21394  21430M 21508  21568M 21574M 21591M 21612  21647M 21649
             21654M 21675  21710M 21712  21717M 21738  21767M 21788  21837M 21899  21934M 21934  21972  21986  22024
             22062  22077M 22136  22194  22205M 22205  22214M 22214  22242  22248M 22303  22341  22366M 22469M 22557
             22623  22638M 22708  22756M 22783M 22820  22856  22870  22884  22898M 22926  22943M 22972  23021  23036
             23039M 23070M 23105  23143M 23171  23287M 23298  23318M 23353  23391M 23419  23433M 23442M 23442  23474
             23494M 23530  23566  23580  23594  23608M 23636  23651M 23668  23702  23719M 23720M 23722  23724  23727
             23729  23742M 23773M 23834  23880M 23911M 23979  24015  24046M 24158M 24195M 24263  24299  24330M 24461M
             24594  24677M 24677  24686  24687  24688  24721M 24721  24732M 24746M 24746  24755  24756  24782M 24856
             24876M 24980  25018M 25018  25027  25028  25059M 25082  25135  25161M 25161  25170  25171  25214M 25236
             25284  25397M 25402  25440M 25451  25505M 25505  25509  25560M 25581M 25670  25740M 25740  25749  25750
             25772M 25803  25823M 25865  25913  26047M 26059  26136M 26147  26233M 26253M 26297  26326  26340M 26340
             26349  26350  26351  26384M 26384  26395M 26403M 26414M 26414  26426M 26426  26435  26436  26480M 26480
             26489  26490  26528M 26646  26693M 26716  26763  26812M 26835  26873M 26873  26882  26883  26884  26917M
             26917  26928M 26968M 27040  27083M 27083  27092  27093  27094  27121M 27121  27129  27171M 27171  27180
             27181  27182  27211M 27211  27218  27225M 27225  27234  27235  27236  27270M 27271M 27281  27296M 27343
             27395M 27395  27441M 27469M 27469  27477M 27506M 27506  27582  27590  27593M 27619M 27675M 27675  27683M
             27723M 27741M 27759M 27804M 27822M 27840M 27878M 27878  27889M 27932M 27995M 28039M 28057M 28065M 28067
             28082M 28128  28180M 28180  28222M 28250M 28250  28258M 28287M 28287  28407M 28437M 28437  28448M 28491M
             28554M 28598M 28615M 28621  28636M 28715  28778M 28778  28820M 28848M 28848  28856M 28885M 28885  28957
             28966  28969M 28995M 29033M 29033  29054M 29086M 29116M 29116  29137M 29214M 29244M 29244  29255M 29298M
             29361M 29405M 29422M 29428  29448M 29536  29600M 29653M 29731M 29731  29741M 29772M 29772  29781  29812M
             29812  29881M 29918  29933M 29976  30018  30026  30029M 30055M 30098  30103M 30103  30112M 30136M 30193M
             30241M 30241  30251M 30270M 30279  30294M 30402  30438  30447  30448M 30449  30465M 30470M 30495M 30508M
             30517M 30522M 30547M 30577M 30645  30681  30695M 30695  30886M 30897M 31023M 31053M 31097M 31172  31208
             31235M 31235  31258M 31258  31468M 31535  31571  31591M 31591  31605M 31605  31859M 31925  32367M 32416
             32853M 32884M 32926  33290M 33367  33413  33418M 33424  33430  33455M 33470  33695M 33758  33811  33817
1         (XCAL2025) (13:01) (15MAR04) General Purpose Register Cross Reference                                             Page  267
             34009M 34048  34165M 34220  34251M 34279M 34308  34379M 34379  34401M 34423M 34423  34441M 34469M 34520
             34556M 34560M 34561M 34565M 34611M 34611  34633M 34670M 34721  34757M 34761M 34807M 34807  34829M 34851M
             34851  34869M 34906M 34944  35036M 35101M 35156  35225M 35272  35340M 35408  35447  35494M 35494  35513M
             35525  35528M 35550M 35568M 35581M 35633M 35691  35727  35732M 35743M 35743  35757  35815M 35836M 35852
             35875M 35916  35958M 35971M 36005M 36058  36122  36140M 36186M 36252  36275M 36316  36339M 36428M 36466
             36517M 36539  36613M 36657M 36674M 36674  36681  36688M 36703M 36751M 36789  36840M 36888M 36905M 36905
             36912  36919M 36934M 36982M
     1(1)      978U  2099   2162M  2163M  2169M  7537   7585M  7710   7997M  8006M  8071M  8107M  8202M  8222M  8247M
              8276M  8289M  8298M  8308M  8317M  8326M  8347M  8355M  8365M  8390M  8401M  8433M  8479   8521M  8569M
              8584   8619M  8739   8812M  8837M  8854M  8909   8952M  8962M  8971M  8998M  9032U  9035M  9038M  9040M
              9116   9125M  9135   9138M  9138N  9151U  9168M  9195M  9206M  9213M  9246M  9280   9315M  9328N  9329N
              9331N  9442M  9511   9552M  9572   9613M  9692   9748M  9761N  9762N  9763N  9820M  9874M  9887N  9888N
              9890N  9943M  9969M  9978M 10035M 10072M 10093M 10119M 10149M 10181M 10330  10403M 10425  10482M 10483M
             10483N 10592M 10614  10712M 10777M 10800  10873M 10895  10952M 10953M 10953N 11062M 11108  11143  11239M
             11286M 11354M 11416  11457M 11470N 11471N 11472N 11488M 11501N 11502N 11503N 11540M 11606M 11652M 11670M
             11696M 11704M 11732M 11893  11950M 11968M 11996M 12014M 12067M 12093M 12117M 12125  12249M 12278M 12290M
             12299M 12309M 12318M 12327M 12336M 12344M 12353M 12377M 12388M 12420M 12492  12565M 12596M 12621M 12637
             12684M 12694M 12703M 12730M 12764U 12767M 12770M 12772M 12848  12857M 12867  12870M 12870N 12883U 12888M
             12915M 12926M 12933M 12966M 13045  13107  13121M 13134N 13135N 13136N 13193M 13247M 13260N 13261N 13263N
             13305M 13351M 13377M 13396M 13433M 13442M 13468M 13498M 13530M 13679  13752M 13774  13831M 13832M 13832N
             13941M 13963  14061M 14126M 14149  14218M 14240  14297M 14298M 14298N 14403M 14575  14614M 14616  14630
             14641M 14670M 14694M 14753M 14818M 14847M 14860M 14872M 14909M 14964  15089M 15144  15218M 15280M 15335
             15393M 15446M 15464M 15484M 15492M 15546  15550M 15570M 15663M 15739  15804M 15875  15925M 15942M 16019M
             16067  16103M 16110M 16176M 16212  16248M 16255M 16321M 16411  16493M 16500  16520M 16569M 16634  16710M
             16717  16737M 16786M 16835  16962  16965M 16966M 16968M 16969  16999M 17046M 17071M 17100  17106M 17106N
             17126  17182  17283M 17304M 17354M 17423  17512M 17547M 17580M 17605M 17666M 17805  17872M 17890M 17911M
             17918M 17948M 17968M 18003M 18041M 18078  18155M 18173M 18211M 18218M 18248M 18268M 18307M 18345M 18416
             18463M 18481M 18509M 18527M 18563M 18581M 18599M 18632  18699M 18776  18836M 18849N 18850N 18852N 19014M
             19022M 19058M 19144  19190M 19211  19257M 19278  19319M 19350  19380M 19397M 19467  19553M 19598M 19630M
             19662M 19745  19772  19829M 19853M 19893  19920  19961M 19985M 20025  20088M 20155  20226  20245M 20279
             20282M 20298M 20334M 20391  20462  20481M 20515  20518M 20534M 20570M 20637  20703M 20704  20751M 20771
             20798M 20818  20875M 20895  20922M 20942  21014M 21087  21193M 21194  21230M 21287  21393M 21394  21430M
             21508  21562  21592M 21612  21648M 21649  21655M 21675  21711M 21712  21718M 21738  21768M 21788  21837M
             21899  21943M 21943  21992M 22030M 22054M 22054  22062  22077M 22136  22191  22249M 22469M 22557  22608M
             22638M 22708  22757M 22783M 22820  22899M 22944M 22960M 22960  22972  22990  22992M 23009M 23009  23021
             23040M 23070M 23105  23144M 23249M 23250N 23258M 23278M 23278N 23284M 23287  23318M 23353  23392M 23494M
             23530  23609M 23652M 23668  23687M 23702  23720  23723N 23728  23743M 23773M 23834  23881M 23911M 23979
             24029  24047M 24073M 24074N 24108M 24108N 24109N 24126  24157N 24159M 24195M 24263  24313  24331M 24357M
             24358N 24392M 24392N 24393N 24461M 24594  24673M 24686N 24687N 24688N 24731M 24742M 24755N 24756N 24758N
             24783M 24856  24876M 24980  25014M 25027N 25028N 25030N 25059M 25082  25134  25157M 25170N 25171N 25173N
             25214M 25236  25390M 25439M 25501M 25508  25559M 25581M 25670  25736M 25749N 25750N 25752N 25773M 25803
             25823M 25865  26046M 26135M 26232M 26253M 26297  26336M 26349N 26350N 26351N 26394M 26422M 26435N 26436N
             26438N 26476M 26489N 26490N 26492N 26528M 26646  26693M 26716  26762  26812M 26835  26869M 26882N 26883N
             26884N 26927M 26968M 27040  27079M 27092N 27093N 27094N 27127  27128  27167M 27180N 27181N 27182N 27217
             27221M 27234N 27235N 27236N 27269M 27271  27281  27296M 27343  27440M 27440N 27475M 27475N 27512M 27512N
             27581  27590  27592M 27619M 27681M 27681N 27722M 27740M 27758M 27803M 27821M 27839M 27888M 27931M 27994M
             28037M 28037N 28055M 28055N 28082M 28128  28221M 28221N 28256M 28256N 28293M 28293N 28406M 28447M 28490M
             28553M 28596M 28596N 28636M 28715  28819M 28819N 28854M 28854N 28891M 28891N 28956  28966  28968M 28995M
             29052M 29052N 29078M 29078  29083  29087M 29135M 29135N 29155  29213M 29254M 29297M 29360M 29403M 29403N
             29448M 29536  29599M 29652M 29739M 29780  29880M 29918  29933M 29976  30017  30026  30028M 30055M 30098
             30104M 30112M 30135M 30192M 30249M 30269M 30279  30294M 30402  30439  30457M 30464M 30471M 30494M 30509M
             30516M 30523M 30546M 30577M 30645  30682  30712U 30714M 30734  30755M 30755N 30768U 30779U 30781M 30801
             30822M 30822N 30835U 30885M 30898M 30934U 30962U 31022M 31052M 31061M 31061N 31097M 31172  31209  31259M
             31402M 31402N 31468M 31535  31572  31606M 31638U 31663U 31800M 31800N 31859M 31925  31960  32367M 32416
             32451  32849M 32884M 32926  32961  33290M 33367  33414  33419M 33425  33456M 33695M 33758  33804  33812
             34009M 34048  34081U 34165M 34176U 34220  34250M 34279M 34308  34400M 34419M 34440M 34469M 34520  34557
             34558M 34559  34560M 34562M 34564  34565M 34632M 34670M 34721  34758  34759M 34760  34761M 34828M 34847M
             34868M 34906M 34944  35002  35035M 35101M 35156  35204M 35205  35225M 35272  35340M 35408  35447  35513M
             35518M 35543M 35567M 35582M 35633M 35691  35728  35814M 35837M 35864  35874M 35928  35957M 35972M 36005M
1         (XCAL2025) (13:01) (15MAR04) General Purpose Register Cross Reference                                             Page  268
             36058  36134  36141M 36164M 36185M 36264  36274M 36328  36338M 36395M 36428M 36466  36501  36512M 36612M
             36652M 36681  36687M 36703M 36751M 36789  36824  36835M 36883M 36912  36918M 36934M 36982M
     2(2)      974U  2099   7537   7585M  7710   7748M  7754M  7820M  7820   8007M  8108M  8130   8131   8132   8248M
              8277M  8290M  8299M  8309M  8318M  8327M  8356M  8366M  8433M  8479   8619M  8739   8953M  8963M  8972M
              8999M  9036M  9038M  9059M  9075   9095M  9095N  9110   9116M  9133M  9134M  9134N  9135   9169M  9196M
              9246M  9280   9442M  9511   9552M  9572   9613M  9692   9944M 10073M 10094M 10126M 10134U 10147U 10181M
             10330  10403M 10425  10592M 10614  10777M 10800  10873M 10895  11062M 11108  11188M 11197M 11197  11354M
             11416  11631M 11634M 11636  11671M 11732M 11893  12050M 12056M 12059M 12140M 12140  12250M 12279M 12291M
             12300M 12310M 12319M 12328M 12345M 12420M 12492  12685M 12695M 12704M 12731M 12768M 12770M 12791M 12807
             12827M 12827N 12842  12848M 12865M 12866M 12866N 12867  12889M 12916M 12966M 13045  13352M 13434M 13443M
             13475M 13483U 13496U 13530M 13679  13752M 13774  13941M 13963  14126M 14149  14218M 14240  14403M 14575
             14618M 14620  14631  14634M 14715M 14715  14819M 14848M 14873M 14909M 14964  15089M 15144  15280M 15335
             15447M 15596M 15663M 15739  15895M 15900M 15913M 15926M 15943M 15963M 16019M 16067  16176M 16212  16321M
             16411  16569M 16634  16786M 16835  16957M 16958M 16960M 16964M 17072M 17073M 17100  17113M 17126  17172M
             17182  17284M 17354M 17423  17548M 17666M 17805  17891M 18004M 18041M 18078  18174M 18308M 18345M 18416
             18599M 18632  18699M 18776  19058M 19144  19190M 19211  19257M 19278  19319M 19350  19397M 19467  19554M
             19599M 19662M 19745  19853M 19893  19985M 20025  20088M 20155  20227  20283M 20299M 20307M 20311M 20334M
             20391  20463  20519M 20535M 20543M 20547M 20570M 20637  20691  20752M 20771  20799M 20818  20876M 20895
             20923M 20942  21014M 21087  21145M 21180M 21196M 21230M 21287  21345M 21380M 21396M 21430M 21508  21563
             21582M 21593M 21612  21656M 21675  21719M 21738  21769M 21788  21837M 21899  22077M 22136  22250M 22384M
             22469M 22557  22638M 22708  22758M 22783M 22820  22900M 22945M 22984  22991M 22991N 22992N 22993N 23041M
             23070M 23105  23145M 23223M 23229M 23230M 23243  23249N 23252M 23252N 23318M 23353  23393M 23494M 23530
             23610M 23653M 23680  23686M 23686N 23687N 23721M 23723M 23725M 23726M 23730M 23744M 23773M 23834  23882M
             23911M 23979  24019M 24029  24048M 24074M 24090M 24090  24102  24109M 24151  24160M 24195M 24263  24303M
             24313  24332M 24358M 24374M 24374  24386  24393M 24409M 24409  24461M 24594  24787M 24787  24803M 24856
             24876M 24980  25059M 25082  25214M 25236  25581M 25670  25777M 25777  25793M 25803  25823M 25865  26253M
             26297  26528M 26646  26693M 26716  26812M 26835  26968M 27040  27296M 27343  27370  27698U 27867U 28045M
             28045N 28082M 28128  28155  28604M 28604N 28636M 28715  28752  28753  28958M 29088M 29448M 29536  29862U
             29875U 29933M 29976  30014  30105M 30294M 30402  30440  30452M 30472M 30503M 30524M 30577M 30645  30683
             30715M 30716M 30734  30782M 30783M 30801  30899M 30971U 30999U 31062M 31062N 31097M 31172  31210  31253U
             31260M 31403M 31403N 31416U 31468M 31535  31573  31607M 31672U 31793U 31801M 31801N 31859M 31925  32367M
             32416  32884M 32926  33290M 33367  33415  33695M 33758  34009M 34048  34165M 34220  34279M 34308  34469M
             34520  34646M 34670M 34721  34882M 34906M 34944  35101M 35156  35200  35225M 35272  35316  35340M 35408
             35528N 35633M 35691  35729  35732N 35838M 35864  35928  36005M 36058  36106M 36134  36142M 36264  36328
             36373M 36428M 36466  36499U 36501M 36751M 36762U 36789  36822U 36824M 36982M 36993U
     3(3)      970U  2099   7537   7585M  7710   7749M  7754M  7775M  7775   7859M  7863M  7872M  7872   7879   8162M
              8163   8164M  8165   8300M  8319M  8328M  8357M  8367M  8433M  8479   8619M  8739   8973M  9000M  9037M
              9038M  9170M  9197M  9246M  9280   9442M  9511   9552M  9572   9613M  9692   9823M  9827M  9836M  9836
              9843   9945M 10095M 10181M 10330  10403M 10425  10527D 10529M 10529  10530M 10531U 10545  10559  10592M
             10614  10720M 10724M 10733M 10733  10740  10777M 10800  10873M 10895  10997D 10999M 10999  11000M 11001U
             11015  11029  11062M 11108  11354M 11416  11672M 11732M 11893  12051M 12056M 12179M 12183M 12192M 12192
             12199  12301M 12320M 12329M 12346M 12354M 12420M 12492  12705M 12732M 12769M 12770M 12890M 12917M 12966M
             13045  13196M 13200M 13209M 13209  13216  13353M 13444M 13530M 13679  13752M 13774  13876D 13878M 13878
             13879M 13880U 13894  13908  13941M 13963  14069M 14073M 14082M 14082  14089  14126M 14149  14218M 14240
             14342D 14344M 14344  14345M 14346U 14360  14374  14403M 14575  14761M 14765M 14774M 14774  14781  14909M
             14964  15089M 15144  15280M 15335  15538M 15539  15540M 15541  15663M 15739  15867M 15868  15869M 15870
             16019M 16067  16118M 16119  16120M 16121  16176M 16212  16263M 16264  16265M 16266  16321M 16411  16569M
             16634  16786M 16835  16898M 16902M 16911M 16911  16918  16961M 16964M 17354M 17423  17666M 17805  18041M
             18078  18345M 18416  18599M 18632  18699M 18776  19058M 19144  19190M 19211  19257M 19278  19319M 19350
             19397M 19467  19555M 19600M 19662M 19745  19853M 19893  19985M 20025  20088M 20155  20308M 20310  20311M
             20334M 20391  20544M 20546  20547M 20570M 20637  20771  20818  20895  20942  21014M 21087  21230M 21287
             21430M 21508  21612  21675  21738  21788  21837M 21899  22077M 22136  22469M 22557  22638M 22708  22783M
             22820  22946M 22984  23070M 23105  23224M 23229M 23231M 23243  23318M 23353  23494M 23530  23654M 23680
             23722M 23725M 23727M 23730M 23773M 23834  23911M 23979  24015M 24102  24157  24195M 24263  24299M 24386
             24461M 24594  24826M 24826  24846M 24856  24876M 24980  25059M 25082  25214M 25236  25285M 25289M 25298M
             25298  25305  25452M 25456M 25465M 25465  25472  25581M 25670  25803  25823M 25865  25914M 25918M 25927M
             25927  25934  26060M 26064M 26073M 26073  26080  26148M 26152M 26161M 26161  26168  26253M 26297  26528M
             26646  26693M 26716  26812M 26835  26968M 27040  27296M 27343  27380M 27380  27404M 27404  27516M 27516
             27533M 27533  27552M 27552N 27564  28065  28082M 28128  28165M 28165  28189M 28189  28297M 28297  28310M
1         (XCAL2025) (13:01) (15MAR04) General Purpose Register Cross Reference                                             Page  269
             28310  28329M 28329N 28341  28615  28636M 28715  28763M 28763  28787M 28787  28895M 28895  28908M 28908
             28927M 28927N 28939  29422  29448M 29536  29849M 29849  29933M 29976  30294M 30402  30577M 30645  30684
             30701M 30702  30720M 30720  30756M 30756N 30762  30787M 30787  30823M 30823N 30829  30900M 30913  31063M
             31063N 31097M 31172  31211  31261M 31404M 31404N 31468M 31535  31608M 31802M 31802N 31859M 31925  32367M
             32416  32884M 32926  33290M 33367  33412  33695M 33758  33803  34009M 34048  34165M 34220  34279M 34308
             34419  34469M 34520  34563  34670M 34721  34847  34906M 34944  35043M 35047M 35056M 35056  35063  35101M
             35156  35225M 35272  35340M 35408  35633M 35691  36005M 36058  36428M 36466  36751M 36789  36982M
     4(4)      966U  2099   7537   7585M  7710   7754M  8433M  8479   8619M  8739   9060M  9061M  9061N  9075   9110
              9132M  9133   9198M  9246M  9280   9442M  9511   9552M  9572   9613M  9692  10181M 10330  10403M 10425
             10592M 10614  10777M 10800  10873M 10895  11062M 11108  11354M 11416  11732M 11893  12056M 12420M 12492
             12792M 12793M 12793N 12807  12842  12864M 12865  12918M 12966M 13045  13530M 13679  13752M 13774  13941M
             13963  14126M 14149  14218M 14240  14403M 14575  14623M 14629M 14909M 14964  15089M 15144  15280M 15335
             15663M 15739  16019M 16067  16176M 16212  16321M 16411  16569M 16634  16786M 16835  16962M 16964M 17354M
             17423  17666M 17805  18041M 18078  18345M 18416  18599M 18632  18699M 18776  19058M 19144  19190M 19211
             19257M 19278  19319M 19350  19397M 19467  19662M 19745  19853M 19893  19985M 20025  20088M 20155  20309M
             20311M 20334M 20391  20545M 20547M 20570M 20637  20771  20818  20895  20942  21014M 21087  21230M 21287
             21430M 21508  21612  21675  21738  21788  21837M 21899  22077M 22136  22469M 22557  22638M 22708  22783M
             22820  22990M 22993  23070M 23105  23229M 23250M 23251  23318M 23353  23494M 23530  23725M 23728M 23730M
             23773M 23834  23911M 23979  24077M 24126  24195M 24263  24361M 24461M 24594  24876M 24980  25059M 25082
             25214M 25236  25581M 25670  25823M 25865  26253M 26297  26528M 26646  26693M 26716  26812M 26835  26968M
             27040  27070M 27070  27127M 27269  27296M 27343  27370M 27376M 27581M 28082M 28128  28155M 28161M 28636M
             28715  28753M 28759M 29083M 29155  29448M 29536  29780M 29784M 29818M 29818N 29877M 29877N 29880  29933M
             29976  30017M 30269  30294M 30402  30577M 30645  30901M 30913  31097M 31172  31212  31213M 31214  31262M
             31275  31405M 31405N 31468M 31535  31609M 31623  31803M 31803N 31859M 31925  32367M 32416  32884M 32926
             33290M 33367  33695M 33758  34009M 34048  34165M 34220  34279M 34308  34469M 34520  34557M 34560M 34563M
             34565M 34670M 34721  34758M 34761M 34906M 34944  35101M 35156  35225M 35272  35340M 35408  35633M 35691
             36005M 36058  36428M 36466  36751M 36789  36982M
     5(5)      962U  2099   7537   7585M  7710   7753M  7753   7754M  8433M  8479   8619M  8739   9199M  9246M  9280
              9442M  9511   9552M  9572   9613M  9692  10181M 10330  10403M 10425  10592M 10614  10777M 10800  10873M
             10895  11062M 11108  11354M 11416  11732M 11893  12055M 12055  12056M 12420M 12492  12919M 12966M 13045
             13530M 13679  13752M 13774  13941M 13963  14126M 14149  14218M 14240  14403M 14575  14624M 14629M 14909M
             14964  15089M 15144  15280M 15335  15387U 15390M 15663M 15681U 15739  15791U 15794M 16019M 16037U 16067
             16176M 16212  16321M 16411  16569M 16634  16786M 16835  16963M 16964M 17354M 17423  17666M 17805  18041M
             18078  18130U 18133M 18345M 18363U 18416  18599M 18632  18699M 18776  19058M 19144  19190M 19211  19257M
             19278  19319M 19350  19397M 19467  19662M 19745  19772M 19829  19853M 19893  19920M 19961  19985M 20025
             20088M 20155  20207U 20210M 20310M 20311M 20334M 20352U 20391  20443U 20446M 20546M 20547M 20570M 20588U
             20637  20689U 20692M 20771  20818  20895  20942  21014M 21032U 21087  21139U 21142M 21230M 21248U 21287
             21339U 21342M 21430M 21448U 21508  21560U 21564M 21612  21675  21738  21788  21837M 21855U 21899  22077M
             22136  22188U 22191M 22469M 22487U 22557  22638M 22708  22783M 22820  23070M 23105  23228M 23228  23229M
             23318M 23353  23494M 23530  23724M 23725M 23729M 23730M 23773M 23834  23911M 23979  24195M 24263  24461M
             24594  24876M 24980  25059M 25082  25214M 25236  25581M 25670  25823M 25865  26253M 26297  26513  26528M
             26646  26675M 26675  26677  26693M 26716  26794M 26796  26812M 26835  26950M 26952  26968M 27040  27074M
             27074  27128M 27129M 27217M 27218M 27270  27296M 27343  27371M 27376M 27582M 28082M 28128  28156M 28161M
             28636M 28715  28754M 28759M 29448M 29536  29781M 29786M 29820M 29879M 29881  29933M 29976  30018M 30270
             30294M 30402  30577M 30645  30926M 30926  30952M 30952N 30989M 30989N 31012  31097M 31172  31215  31216M
             31217  31263M 31275  31468M 31535  31610M 31623  31859M 31925  32367M 32416  32884M 32926  33290M 33367
             33433M 33442M 33442  33455N 33456N 33695M 33758  33804M 33847  34009M 34048  34165M 34220  34279M 34308
             34469M 34520  34559M 34560M 34564M 34565M 34670M 34721  34760M 34761M 34906M 34944  35002M 35010U 35101M
             35119U 35156  35198U 35201M 35225M 35243U 35272  35314U 35317M 35340M 35358U 35408  35633M 35691  36005M
             36058  36428M 36466  36751M 36789  36982M
     6(6)      958U  2099   7537   7585M  7710   8433M  8479   8619M  8739   9246M  9280   9442M  9511   9552M  9572
              9613M  9692   9728M  9736U 10181M 10330  10403M 10425  10592M 10614  10777M 10800  10873M 10895  11062M
             11073U 11108  11141U 11143M 11354M 11365U 11416  11732M 11893  12420M 12492  12966M 13045  13081M 13089U
             13530M 13679  13752M 13774  13941M 13963  14126M 14149  14218M 14240  14403M 14414U 14575  14861M 14862
             14909M 14964  15089M 15144  15280M 15335  15378U 15389M 15663M 15674U 15739  15782U 15793M 16019M 16030U
             16067  16176M 16212  16321M 16411  16454U 16456M 16457  16569M 16580U 16634  16677U 16679M 16680  16786M
             16797U 16835  16868U 16870M 17354M 17365U 17423  17466U 17468M 17666M 17677U 17805  17848U 17850M 18041M
             18052U 18078  18121U 18132M 18345M 18356U 18416  18599M 18632  18699M 18776  18812M 18820U 19058M 19144
             19190M 19211  19257M 19278  19319M 19333U 19350  19397M 19467  19510U 19512M 19662M 19673U 19745  19771M
1         (XCAL2025) (13:01) (15MAR04) General Purpose Register Cross Reference                                             Page  270
             19786  19800  19815  19821  19828  19853M 19893  19919M 19947  19953  19960  19985M 20025  20088M 20155
             20198U 20209M 20334M 20345U 20391  20434U 20445M 20570M 20581U 20637  20680U 20691M 20771  20818  20895
             20942  21014M 21025U 21087  21130U 21141M 21230M 21241U 21287  21330U 21341M 21430M 21441U 21508  21551U
             21581M 21589M 21612  21639M 21675  21702M 21738  21765M 21788  21837M 21848U 21899  22077M 22136  22179U
             22190M 22469M 22480U 22557  22638M 22708  22783M 22820  23070M 23105  23221M 23223  23250  23258N 23284
             23318M 23353  23494M 23530  23717M 23721  23726  23773M 23834  23911M 23979  24195M 24263  24461M 24594
             24630M 24638U 24876M 24980  25059M 25082  25214M 25236  25581M 25592U 25670  25706M 25714U 25823M 25865
             26253M 26297  26528M 26646  26693M 26716  26812M 26835  26968M 27040  27296M 27343  28082M 28128  28636M
             28715  28752M 28958  29161  29161  29411M 29411N 29448M 29536  29933M 29976  30009U 30012U 30014M 30104
             30105  30294M 30305U 30402  30577M 30645  31097M 31172  31468M 31535  31859M 31925  31958U 31960M 32367M
             32378U 32416  32449U 32451M 32884M 32895U 32926  32959U 32961M 33290M 33301U 33367  33410U 33412M 33695M
             33706U 33758  33801U 33803M 34009M 34020U 34048  34165M 34220  34279M 34308  34469M 34520  34670M 34721
             34906M 34944  34971M 34980M 34980  35000U 35101M 35112U 35156  35189U 35200M 35225M 35236U 35272  35305U
             35316M 35340M 35351U 35408  35633M 35691  36005M 36058  36101U 36103M 36428M 36439U 36466  36751M 36789
             36982M
     7(7)      954U  2092M  2092   2093B  2099   2105B  7537   7542M  7554U  7577U  7585M  7710   7716M  7728U  8425U
              8433M  8479   8485M  8497U  8611U  8619M  8739   8745M  8757U  9238U  9246M  9280   9285M  9297U  9434U
              9442M  9511   9516M  9528U  9544U  9552M  9572   9577M  9589U  9605U  9613M  9692   9698M  9710U 10173U
             10181M 10330  10335M 10347U 10395U 10403M 10425  10430M 10442U 10584U 10592M 10614  10619M 10631U 10769U
             10777M 10800  10805M 10817U 10865U 10873M 10895  10900M 10912U 11054U 11062M 11108  11113M 11125U 11346U
             11354M 11416  11422M 11434U 11724U 11732M 11893  11899M 11911U 12412U 12420M 12492  12498M 12510U 12958U
             12966M 13045  13051M 13063U 13522U 13530M 13679  13684M 13696U 13744U 13752M 13774  13779M 13791U 13933U
             13941M 13963  13968M 13980U 14118U 14126M 14149  14154M 14166U 14210U 14218M 14240  14245M 14257U 14395U
             14403M 14575  14581M 14593U 14901U 14909M 14964  14970M 14982U 15081U 15089M 15144  15150M 15162U 15272U
             15280M 15335  15341M 15353U 15655U 15663M 15739  15745M 15757U 16011U 16019M 16067  16072M 16084U 16168U
             16176M 16212  16217M 16229U 16313U 16321M 16411  16417M 16429U 16561U 16569M 16634  16640M 16652U 16778U
             16786M 16835  16840M 16852U 17346U 17354M 17423  17429M 17441U 17658U 17666M 17805  17811M 17823U 18033U
             18041M 18078  18084M 18096U 18337U 18345M 18416  18421M 18433U 18591U 18599M 18632  18637M 18649U 18691U
             18699M 18776  18782M 18794U 19050U 19058M 19144  19149M 19161U 19182U 19190M 19211  19216M 19228U 19249U
             19257M 19278  19283M 19295U 19311U 19319M 19350  19355M 19367U 19389U 19397M 19467  19473M 19485U 19654U
             19662M 19745  19750M 19762U 19845U 19853M 19893  19898M 19910U 19977U 19985M 20025  20030M 20042U 20080U
             20088M 20155  20161M 20173U 20326U 20334M 20391  20397M 20409U 20562U 20570M 20637  20643M 20655U 20771
             20818  20895  20942  21006U 21014M 21087  21093M 21105U 21222U 21230M 21287  21293M 21305U 21422U 21430M
             21508  21514M 21526U 21612  21675  21738  21788  21829U 21837M 21899  21904M 21916U 22069U 22077M 22136
             22142M 22154U 22461U 22469M 22557  22562M 22574U 22630U 22638M 22708  22714M 22726U 22775U 22783M 22820
             22826M 22838U 23062U 23070M 23105  23111M 23123U 23310U 23318M 23353  23359M 23371U 23486U 23494M 23530
             23536M 23548U 23765U 23773M 23834  23840M 23852U 23903U 23911M 23979  23985M 23997U 24187U 24195M 24263
             24269M 24281U 24453U 24461M 24594  24600M 24612U 24868U 24876M 24980  24985M 24997U 25051U 25059M 25082
             25087M 25099U 25206U 25214M 25236  25241M 25253U 25573U 25581M 25670  25676M 25688U 25815U 25823M 25865
             25870M 25882U 26245U 26253M 26297  26302M 26314U 26520U 26528M 26646  26651M 26663U 26685U 26693M 26716
             26721M 26733U 26804U 26812M 26835  26840M 26852U 26960U 26968M 27040  27045M 27057U 27288U 27296M 27343
             27348M 27360U 28074U 28082M 28128  28133M 28145U 28628U 28636M 28715  28721M 28733U 29440U 29448M 29536
             29541M 29553U 29925U 29933M 29976  29981M 29993U 30286U 30294M 30402  30408M 30420U 30569U 30577M 30645
             30651M 30663U 31089U 31097M 31172  31178M 31190U 31460U 31468M 31535  31541M 31553U 31851U 31859M 31925
             31930M 31942U 32359U 32367M 32416  32421M 32433U 32876U 32884M 32926  32931M 32943U 33282U 33290M 33367
             33373M 33385U 33687U 33695M 33758  33764M 33776U 34001U 34009M 34048  34053M 34065U 34157U 34165M 34220
             34225M 34237U 34271U 34279M 34308  34313M 34325U 34461U 34469M 34520  34526M 34538U 34662U 34670M 34721
             34727M 34739U 34898U 34906M 34944  34949M 34961U 35093U 35101M 35156  35161M 35173U 35217U 35225M 35272
             35277M 35289U 35332U 35340M 35408  35414M 35426U 35625U 35633M 35691  35697M 35709U 35997U 36005M 36058
             36064M 36076U 36420U 36428M 36466  36471M 36483U 36743U 36751M 36789  36794M 36806U 36974U 36982M
     8(8)      950U  2099   7537   7538M  7581   7585M  7710   7712M  7742U  8420U  8429   8433M  8479   8481M  8511U
              8606U  8615   8619M  8739   8741M  8771U  9233U  9242   9246M  9280   9281M  9438   9442M  9511   9512M
              9548   9552M  9572   9573M  9609   9613M  9692   9694M  9724U 10168U 10177  10181M 10330  10331M 10399
             10403M 10425  10426M 10588  10592M 10614  10615M 10773  10777M 10800  10801M 10869  10873M 10895  10896M
             11058  11062M 11108  11109M 11350  11354M 11416  11418M 11448U 11719U 11728  11732M 11893  11895M 11925U
             12407U 12416  12420M 12492  12494M 12524U 12953U 12962  12966M 13045  13047M 13077U 13517U 13526  13530M
             13679  13680M 13748  13752M 13774  13775M 13937  13941M 13963  13964M 14122  14126M 14149  14150M 14214
             14218M 14240  14241M 14399  14403M 14575  14577M 14607U 14896U 14905  14909M 14964  14966M 14996U 15076U
             15085  15089M 15144  15146M 15176U 15267U 15276  15280M 15335  15337M 15367U 15650U 15659  15663M 15739
1         (XCAL2025) (13:01) (15MAR04) General Purpose Register Cross Reference                                             Page  271
             15741M 15771U 16006U 16015  16019M 16067  16068M 16172  16176M 16212  16213M 16317  16321M 16411  16413M
             16443U 16556U 16565  16569M 16634  16636M 16666U 16773U 16782  16786M 16835  16836M 17350  17354M 17423
             17425M 17455U 17653U 17662  17666M 17805  17807M 17837U 18028U 18037  18041M 18078  18080M 18110U 18332U
             18341  18345M 18416  18417M 18595  18599M 18632  18633M 18695  18699M 18776  18778M 18808U 19045U 19054
             19058M 19144  19145M 19186  19190M 19211  19212M 19253  19257M 19278  19279M 19315  19319M 19350  19351M
             19393  19397M 19467  19469M 19499U 19649U 19658  19662M 19745  19746M 19849  19853M 19893  19894M 19981
             19985M 20025  20026M 20084  20088M 20155  20157M 20187U 20321U 20330  20334M 20391  20393M 20423U 20557U
             20566  20570M 20637  20639M 20669U 20771  20818  20895  20942  21001U 21010  21014M 21087  21089M 21119U
             21217U 21226  21230M 21287  21289M 21319U 21417U 21426  21430M 21508  21510M 21540U 21612  21675  21738
             21788  21824U 21833  21837M 21899  21900M 22062  22073  22077M 22136  22138M 22168U 22456U 22465  22469M
             22557  22558M 22623N 22634  22638M 22708  22710M 22740U 22770U 22779  22783M 22820  22822M 22852U 23057U
             23066  23070M 23105  23107M 23137U 23298N 23305U 23314  23318M 23353  23355M 23385U 23474N 23481U 23490
             23494M 23530  23532M 23562U 23760U 23769  23773M 23834  23836M 23866U 23898U 23907  23911M 23979  23981M
             24011U 24182U 24191  24195M 24263  24265M 24295U 24448U 24457  24461M 24594  24596M 24626U 24856  24863U
             24872  24876M 24980  24981M 25055  25059M 25082  25083M 25210  25214M 25236  25237M 25577  25581M 25670
             25672M 25702U 25803  25810U 25819  25823M 25865  25866M 26249  26253M 26297  26298M 26524  26528M 26646
             26647M 26677N 26689  26693M 26716  26717M 26796N 26808  26812M 26835  26836M 26952N 26964  26968M 27040
             27041M 27281  27292  27296M 27343  27344M 28067N 28078  28082M 28128  28129M 28621N 28632  28636M 28715
             28717M 28747U 29428N 29435U 29444  29448M 29536  29537M 29918  29929  29933M 29976  29977M 30279  30290
             30294M 30402  30404M 30434U 30564U 30573  30577M 30645  30647M 30677U 31084U 31093  31097M 31172  31174M
             31204U 31455U 31464  31468M 31535  31537M 31567U 31846U 31855  31859M 31925  31926M 32363  32367M 32416
             32417M 32880  32884M 32926  32927M 33286  33290M 33367  33369M 33399U 33682U 33691  33695M 33758  33760M
             33790U 33996U 34005  34009M 34048  34049M 34161  34165M 34220  34221M 34275  34279M 34308  34309M 34465
             34469M 34520  34522M 34552U 34657U 34666  34670M 34721  34723M 34753U 34893U 34902  34906M 34944  34945M
             35097  35101M 35156  35157M 35221  35225M 35272  35273M 35336  35340M 35408  35410M 35440U 35620U 35629
             35633M 35691  35693M 35723U 35992U 36001  36005M 36058  36060M 36090U 36415U 36424  36428M 36466  36467M
             36747  36751M 36789  36790M 36978  36982M
     9(9)      946U  2099  20771  20818  20895  20942  21612  21675  21738  21788
    10(A)      942U  2099  20771  20818  20895  20942  21612  21675  21738  21788
    11(B)      938U  1163U  2099  20771  20818  20895  20942  21612  21675  21738  21788
    12(C)      934U  1172U  2099  20771  20818  20895  20942  21612  21675  21738  21788
    13(D)      930U  2099   7534   7537   7538   7539M  7539   7581M  7585   7587   7707   7710   7712   7713M  7713
              8429M  8433   8435   8476   8479   8481   8482M  8482   8615M  8619   8621   8736   8739   8741   8742M
              8742   9242M  9246   9248   9277   9280   9281   9282M  9282   9310   9312M  9312   9323   9324   9325
              9327M  9327   9340M  9341   9342   9343   9354M  9438M  9442   9444   9508   9511   9512   9513M  9513
              9548M  9552   9554   9569   9572   9573   9574M  9574   9609M  9613   9615   9689   9692   9694   9695M
              9695   9743   9745M  9745   9756   9757   9758   9760M  9760   9772M  9773   9774   9775   9786M  9882
              9883   9884   9886M  9886   9899M  9900   9901   9902  10177M 10181  10183  10327  10330  10331  10332M
             10332  10399M 10403  10405  10422  10425  10426  10427M 10427  10588M 10592  10594  10611  10614  10615
             10616M 10616  10773M 10777  10779  10797  10800  10801  10802M 10802  10869M 10873  10875  10892  10895
             10896  10897M 10897  11058M 11062  11064  11105  11108  11109  11110M 11110  11350M 11354  11356  11413
             11416  11418  11419M 11419  11465  11466  11467  11469M 11469  11481M 11482  11483  11484  11496  11497
             11498  11500M 11500  11512M 11513  11514  11515  11728M 11732  11734  11890  11893  11895  11896M 11896
             12416M 12420  12422  12489  12492  12494  12495M 12495  12962M 12966  12968  13042  13045  13047  13048M
             13048  13116  13118M 13118  13129  13130  13131  13133M 13133  13145M 13146  13147  13148  13159M 13255
             13256  13257  13259M 13259  13272M 13273  13274  13275  13526M 13530  13532  13676  13679  13680  13681M
             13681  13748M 13752  13754  13771  13774  13775  13776M 13776  13937M 13941  13943  13960  13963  13964
             13965M 13965  14122M 14126  14128  14146  14149  14150  14151M 14151  14214M 14218  14220  14237  14240
             14241  14242M 14242  14399M 14403  14405  14572  14575  14577  14578M 14578  14614  14615M 14615  14618
             14619M 14619  14883M 14885M 14905M 14909  14911  14961  14964  14966  14967M 14967  15085M 15089  15091
             15141  15144  15146  15147M 15147  15276M 15280  15282  15332  15335  15337  15338M 15338  15659M 15663
             15665  15736  15739  15741  15742M 15742  16015M 16019  16021  16064  16067  16068  16069M 16069  16172M
             16176  16178  16209  16212  16213  16214M 16214  16317M 16321  16323  16408  16411  16413  16414M 16414
             16565M 16569  16571  16631  16634  16636  16637M 16637  16782M 16786  16788  16832  16835  16836  16837M
             16837  17350M 17354  17356  17420  17423  17425  17426M 17426  17662M 17666  17668  17802  17805  17807
             17808M 17808  18037M 18041  18043  18075  18078  18080  18081M 18081  18341M 18345  18347  18413  18416
             18417  18418M 18418  18595M 18599  18601  18629  18632  18633  18634M 18634  18695M 18699  18701  18773
             18776  18778  18779M 18779  18844  18845  18846  18848M 18848  18861M 18862  18863  18864  19054M 19058
             19060  19141  19144  19145  19146M 19146  19186M 19190  19192  19208  19211  19212  19213M 19213  19253M
1         (XCAL2025) (13:01) (15MAR04) General Purpose Register Cross Reference                                             Page  272
             19257  19259  19275  19278  19279  19280M 19280  19315M 19319  19321  19347  19350  19351  19352M 19352
             19393M 19397  19399  19464  19467  19469  19470M 19470  19658M 19662  19664  19742  19745  19746  19747M
             19747  19849M 19853  19855  19890  19893  19894  19895M 19895  19981M 19985  19987  20022  20025  20026
             20027M 20027  20084M 20088  20090  20152  20155  20157  20158M 20158  20330M 20334  20336  20388  20391
             20393  20394M 20394  20566M 20570  20572  20634  20637  20639  20640M 20640  20771  20818  20895  20942
             21010M 21014  21016  21084  21087  21089  21090M 21090  21226M 21230  21232  21284  21287  21289  21290M
             21290  21426M 21430  21432  21505  21508  21510  21511M 21511  21612  21675  21738  21788  21833M 21837
             21839  21896  21899  21900  21901M 21901  22073M 22077  22079  22133  22136  22138  22139M 22139  22465M
             22469  22471  22554  22557  22558  22559M 22559  22634M 22638  22640  22705  22708  22710  22711M 22711
             22779M 22783  22785  22817  22820  22822  22823M 22823  23066M 23070  23072  23102  23105  23107  23108M
             23108  23221  23222M 23222  23286M 23314M 23318  23320  23350  23353  23355  23356M 23356  23490M 23494
             23496  23527  23530  23532  23533M 23533  23717  23718M 23718  23732M 23769M 23773  23775  23831  23834
             23836  23837M 23837  23907M 23911  23913  23976  23979  23981  23982M 23982  24191M 24195  24197  24260
             24263  24265  24266M 24266  24457M 24461  24463  24591  24594  24596  24597M 24597  24668  24670M 24670
             24681  24682  24683  24685M 24685  24697M 24698  24699  24700  24711M 24750  24751  24752  24754M 24754
             24767M 24768  24769  24770  24872M 24876  24878  24977  24980  24981  24982M 24982  25022  25023  25024
             25026M 25026  25039M 25040  25041  25042  25055M 25059  25061  25079  25082  25083  25084M 25084  25117
             25119M 25119  25153M 25165  25166  25167  25169M 25169  25182M 25183  25184  25185  25210M 25214  25216
             25233  25236  25237  25238M 25238  25577M 25581  25583  25667  25670  25672  25673M 25673  25744  25745
             25746  25748M 25748  25761M 25762  25763  25764  25819M 25823  25825  25862  25865  25866  25867M 25867
             26249M 26253  26255  26294  26297  26298  26299M 26299  26326  26327M 26327  26331  26333M 26333  26344
             26345  26346  26348M 26348  26360M 26361  26362  26363  26374M 26402M 26403  26430  26431  26432  26434M
             26434  26447M 26448  26449  26450  26484  26485  26486  26488M 26488  26501M 26502  26503  26504  26524M
             26528  26530  26643  26646  26647  26648M 26648  26689M 26693  26695  26713  26716  26717  26718M 26718
             26745  26747M 26747  26780M 26808M 26812  26814  26832  26835  26836  26837M 26837  26864  26866M 26866
             26877  26878  26879  26881M 26881  26893M 26894  26895  26896  26907M 26964M 26968  26970  27037  27040
             27041  27042M 27042  27087  27088  27089  27091M 27091  27103M 27104  27105  27106  27175  27176  27177
             27179M 27179  27191M 27192  27193  27194  27229  27230  27231  27233M 27233  27245M 27246  27247  27248
             27292M 27296  27298  27340  27343  27344  27345M 27345  27586  27587M 27587  27590  27591M 27591  27618M
             27619  27628M 28078M 28082  28084  28125  28128  28129  28130M 28130  28632M 28636  28638  28712  28715
             28717  28718M 28718  28962  28963M 28963  28966  28967M 28967  28994M 28995  29004M 29444M 29448  29450
             29533  29536  29537  29538M 29538  29929M 29933  29935  29973  29976  29977  29978M 29978  30022  30023M
             30023  30026  30027M 30027  30054M 30055  30064M 30098  30099M 30099  30111M 30112  30290M 30294  30296
             30399  30402  30404  30405M 30405  30573M 30577  30579  30642  30645  30647  30648M 30648  31093M 31097
             31099  31169  31172  31174  31175M 31175  31464M 31468  31470  31532  31535  31537  31538M 31538  31855M
             31859  31861  31922  31925  31926  31927M 31927  32363M 32367  32369  32413  32416  32417  32418M 32418
             32880M 32884  32886  32923  32926  32927  32928M 32928  33286M 33290  33292  33364  33367  33369  33370M
             33370  33691M 33695  33697  33755  33758  33760  33761M 33761  34005M 34009  34011  34045  34048  34049
             34050M 34050  34161M 34165  34167  34217  34220  34221  34222M 34222  34275M 34279  34281  34305  34308
             34309  34310M 34310  34465M 34469  34471  34517  34520  34522  34523M 34523  34666M 34670  34672  34718
             34721  34723  34724M 34724  34902M 34906  34908  34941  34944  34945  34946M 34946  35097M 35101  35103
             35153  35156  35157  35158M 35158  35221M 35225  35227  35269  35272  35273  35274M 35274  35336M 35340
             35342  35405  35408  35410  35411M 35411  35447  35448M 35448  35512M 35513  35629M 35633  35635  35688
             35691  35693  35694M 35694  36001M 36005  36007  36055  36058  36060  36061M 36061  36424M 36428  36430
             36463  36466  36467  36468M 36468  36681  36682M 36682  36702M 36703  36747M 36751  36753  36786  36789
             36790  36791M 36791  36912  36913M 36913  36933M 36934  36978M 36982  36984
    14(E)      926U  2099   2100M  2114   2115M  2116B  2118M  2119B  2139M  2140B  2144M  2145B  2147M  2148B  2150M
              2151B  2153M  2154B  2156M  2157M  2157B  2163   7534   7565M  7566M  7566B  7569M  7570M  7570B  7587M
              7590B  7707   7759M  7760M  7760B  7765M  7766M  7766B  7917M  7918M  7918B  7921M  7922M  7922B  7925M
              7926M  7926B  7974M  7975M  7975B  8000M  8001M  8001B  8010M  8011M  8011B  8025M  8026M  8026B  8080M
              8081M  8081B  8111M  8112M  8112B  8191M  8192M  8192B  8198M  8199M  8199B  8205M  8206M  8206B  8251M
              8252M  8252B  8280M  8281M  8281B  8293M  8294M  8294B  8303M  8304M  8304B  8312M  8313M  8313B  8322M
              8323M  8323B  8331M  8332M  8332B  8338M  8339M  8339B  8343M  8344M  8344B  8350M  8351M  8351B  8360M
              8361M  8361B  8370M  8371M  8371B  8393M  8394M  8394B  8404M  8405M  8405B  8435M  8438B  8476   8520M
              8521N  8522N  8526M  8526   8583M  8584N  8585N  8589M  8589   8592M  8593M  8593B  8621M  8624B  8736
              8840M  8841M  8841B  8853M  8854N  8855N  8859M  8859   8862M  8863M  8863B  8896M  8897M  8897B  8906M
              8907M  8907B  8956M  8957M  8957B  8966M  8967M  8967B  8976M  8977M  8977B  9003M  9004M  9004B  9119M
              9120M  9120B  9158M  9159M  9159B  9163M  9164M  9164B  9173M  9174M  9174B  9202M  9203M  9203B  9209M
              9210M  9210B  9216M  9217M  9217B  9248M  9251B  9277   9309M  9310   9322M  9323   9324   9325   9330M
1         (XCAL2025) (13:01) (15MAR04) General Purpose Register Cross Reference                                             Page  273
              9331   9334M  9335M  9335B  9338M  9341   9342   9343   9348M  9349M  9349B  9352M  9355   9402M  9403M
              9403B  9421M  9422M  9422B  9444M  9447B  9508   9554M  9557B  9569   9615M  9618B  9689   9742M  9743
              9755M  9756   9757   9758   9766M  9767M  9767B  9770M  9773   9774   9775   9780M  9781M  9781B  9784M
              9787   9881M  9882   9883   9884   9889M  9890   9893M  9894M  9894B  9897M  9900   9901   9902   9907M
              9908M  9908B  9933M  9934M  9934B  9938M  9939M  9939B  9948M  9949M  9949B  9972M  9973M  9973B 10015M
             10016M 10016B 10038M 10039M 10039B 10076M 10077M 10077B 10083M 10084M 10084B 10088M 10089M 10089B 10098M
             10099M 10099B 10122M 10123M 10123B 10152M 10153M 10153B 10183M 10186B 10327  10379M 10380M 10380B 10405M
             10408B 10422  10474M 10475M 10475B 10518M 10519M 10519B 10568M 10569M 10569B 10594M 10597B 10611  10663M
             10664M 10664B 10671M 10672M 10672B 10706M 10707M 10707B 10779M 10782B 10797  10849M 10850M 10850B 10875M
             10878B 10892  10944M 10945M 10945B 10988M 10989M 10989B 11038M 11039M 11039B 11064M 11067B 11105  11226M
             11227M 11227B 11251M 11252M 11252B 11256M 11257M 11257B 11280M 11281M 11281B 11298M 11299M 11299B 11323M
             11324M 11324B 11356M 11359B 11413  11464M 11465  11466  11467  11475M 11476M 11476B 11479M 11482  11483
             11484  11495M 11496  11497  11498  11506M 11507M 11507B 11510M 11513  11514  11515  11520M 11521M 11521B
             11550M 11551N 11566N 11581N 11582N 11583  11583  11584N 11585N 11598N 11602M 11602  11605M 11606N 11607N
             11611M 11611  11660M 11661M 11661B 11665M 11666M 11666B 11675M 11676M 11676B 11699M 11700M 11700B 11707M
             11708M 11708B 11734M 11737B 11890  11962M 11963M 11963B 12008M 12009M 12009B 12062M 12063M 12063B 12070M
             12071M 12071B 12111M 12112M 12112B 12130M 12131M 12131B 12222M 12223M 12223B 12229M 12230M 12230B 12253M
             12254M 12254B 12282M 12283M 12283B 12294M 12295M 12295B 12304M 12305M 12305B 12313M 12314M 12314B 12323M
             12324M 12324B 12332M 12333M 12333B 12339M 12340M 12340B 12349M 12350M 12350B 12357M 12358M 12358B 12380M
             12381M 12381B 12391M 12392M 12392B 12422M 12425B 12489  12624M 12625M 12625B 12634M 12635M 12635B 12675M
             12676M 12676B 12688M 12689M 12689B 12698M 12699M 12699B 12708M 12709M 12709B 12735M 12736M 12736B 12851M
             12852M 12852B 12893M 12894M 12894B 12922M 12923M 12923B 12929M 12930M 12930B 12936M 12937M 12937B 12968M
             12971B 13042  13106M 13107N 13108N 13112M 13112  13115M 13116  13128M 13129  13130  13131  13139M 13140M
             13140B 13143M 13146  13147  13148  13153M 13154M 13154B 13157M 13160  13254M 13255  13256  13257  13262M
             13263  13266M 13267M 13267B 13270M 13273  13274  13275  13280M 13281M 13281B 13342M 13343M 13343B 13356M
             13357M 13357B 13380M 13381M 13381B 13399M 13400M 13400B 13437M 13438M 13438B 13447M 13448M 13448B 13471M
             13472M 13472B 13501M 13502M 13502B 13532M 13535B 13676  13728M 13729M 13729B 13754M 13757B 13771  13823M
             13824M 13824B 13867M 13868M 13868B 13917M 13918M 13918B 13943M 13946B 13960  14012M 14013M 14013B 14020M
             14021M 14021B 14055M 14056M 14056B 14128M 14131B 14146  14198M 14199M 14199B 14220M 14223B 14237  14289M
             14290M 14290B 14333M 14334M 14334B 14383M 14384M 14384B 14405M 14408B 14572  14629M 14637M 14638M 14638B
             14644M 14645M 14645B 14688M 14689M 14689B 14705M 14706M 14706B 14822M 14823M 14823B 14851M 14852M 14852B
             14863M 14866M 14867M 14867B 14876M 14877M 14877B 14911M 14914B 14961  15005M 15006M 15006B 15025M 15026M
             15026B 15029M 15030M 15030B 15062M 15063M 15063B 15091M 15094B 15141  15196M 15197M 15197B 15252M 15253M
             15253B 15282M 15285B 15332  15396M 15397M 15397B 15434M 15435M 15435B 15450M 15451M 15451B 15467M 15468M
             15468B 15495M 15496M 15496B 15505M 15506M 15506B 15529M 15530M 15530B 15544M 15545M 15545B 15553M 15554M
             15554B 15586M 15587M 15587B 15592M 15593M 15593B 15599M 15600M 15600B 15605M 15606M 15606B 15612M 15613M
             15613B 15665M 15668B 15736  15807M 15808M 15808B 15813M 15814M 15814B 15873M 15874M 15874B 15885M 15886M
             15886B 15891M 15892M 15892B 15898M 15899M 15899B 15903M 15904M 15904B 15909M 15910M 15910B 15916M 15917M
             15917B 15929M 15930M 15930B 15946M 15947M 15947B 15966M 15967M 15967B 16021M 16024B 16064  16097M 16098M
             16098B 16106M 16107M 16107B 16113M 16114M 16114B 16126M 16127M 16127B 16132M 16133M 16133B 16178M 16181B
             16209  16242M 16243M 16243B 16251M 16252M 16252B 16258M 16259M 16259B 16271M 16272M 16272B 16277M 16278M
             16278B 16323M 16326B 16408  16499M 16500N 16501N 16505M 16505  16508M 16509M 16509B 16523M 16524M 16524B
             16539M 16540M 16540B 16571M 16574B 16631  16716M 16717N 16718N 16722M 16722  16725M 16726M 16726B 16740M
             16741M 16741B 16756M 16757M 16757B 16788M 16791B 16832  16893M 16894M 16894B 16955M 16956M 16956B 17011M
             17012M 17012B 17016M 17017M 17017B 17040M 17041M 17041B 17058M 17059M 17059B 17062M 17063M 17063B 17279M
             17280M 17280B 17287M 17288M 17288B 17356M 17359B 17420  17524M 17525M 17525B 17536M 17537M 17537B 17542M
             17543M 17543B 17551M 17552M 17552B 17583M 17584M 17584B 17608M 17609M 17609B 17668M 17671B 17802  17864M
             17865M 17865B 17884M 17885M 17885B 17894M 17895M 17895B 17915M 17916M 17916B 17935M 17936M 17936B 17966M
             17967M 17967B 17971M 17972M 17972B 17996M 17997M 17997B 18007M 18008M 18008B 18043M 18046B 18075  18147M
             18148M 18148B 18167M 18168M 18168B 18177M 18178M 18178B 18215M 18216M 18216B 18235M 18236M 18236B 18266M
             18267M 18267B 18271M 18272M 18272B 18296M 18297M 18297B 18311M 18312M 18312B 18347M 18350B 18413  18475M
             18476M 18476B 18521M 18522M 18522B 18575M 18576M 18576B 18601M 18604B 18629  18662M 18663M 18663B 18668M
             18669M 18669B 18674M 18675M 18675B 18701M 18704B 18773  18843M 18844  18845  18846  18851M 18852  18855M
             18856M 18856B 18859M 18862  18863  18864  18869M 18870M 18870B 18875M 18876M 18876B 18882M 18883M 18883B
             19025M 19026M 19026B 19060M 19063B 19141  19192M 19195B 19208  19259M 19262B 19275  19321M 19324B 19347
             19399M 19402B 19464  19558M 19559M 19559B 19603M 19604M 19604B 19633M 19634M 19634B 19664M 19667B 19742
             19818M 19819M 19819B 19824M 19825M 19825B 19832M 19833M 19833B 19855M 19858B 19890  19950M 19951M 19951B
             19956M 19957M 19957B 19964M 19965M 19965B 19987M 19990B 20022  20053M 20054M 20054B 20068M 20069M 20069B
             20090M 20093B 20152  20234M 20235M 20235B 20240M 20241M 20241B 20286M 20287M 20287B 20302M 20303M 20303B
1         (XCAL2025) (13:01) (15MAR04) General Purpose Register Cross Reference                                             Page  274
             20336M 20339B 20388  20470M 20471M 20471B 20476M 20477M 20477B 20522M 20523M 20523B 20538M 20539M 20539B
             20572M 20575B 20634  20712M 20713M 20713B 20718M 20719M 20719B 20724M 20725M 20725B 20730M 20731M 20731B
             20755M 20756M 20756B 20771  20772M 20802M 20803M 20803B 20818  20819M 20879M 20880M 20880B 20895  20896M
             20926M 20927M 20927B 20942  20943M 21016M 21019B 21084  21148M 21149M 21149B 21169M 21170M 21170B 21175M
             21176M 21176B 21183M 21184M 21184B 21199M 21200M 21200B 21232M 21235B 21284  21348M 21349M 21349B 21369M
             21370M 21370B 21375M 21376M 21376B 21383M 21384M 21384B 21399M 21400M 21400B 21432M 21435B 21505  21571M
             21572M 21572B 21577M 21578M 21578B 21585M 21586M 21586B 21596M 21597M 21597B 21612  21613M 21659M 21660M
             21660B 21675  21676M 21722M 21723M 21723B 21738  21739M 21772M 21773M 21773B 21788  21789M 21839M 21842B
             21896  22079M 22082B 22133  22253M 22254M 22254B 22369M 22370M 22370B 22387M 22388M 22388B 22471M 22474B
             22554  22590M 22591M 22591B 22605M 22606M 22606B 22611M 22612M 22612B 22640M 22643B 22705  22761M 22762M
             22762B 22785M 22788B 22817  22903M 22904M 22904B 23044M 23045M 23045B 23072M 23075B 23102  23148M 23149M
             23149B 23320M 23323B 23350  23396M 23397M 23397B 23496M 23499B 23527  23613M 23614M 23614B 23747M 23748M
             23748B 23775M 23778B 23831  23885M 23886M 23886B 23913M 23916B 23976  24051M 24052M 24052B 24163M 24164M
             24164B 24197M 24200B 24260  24335M 24336M 24336B 24463M 24466B 24591  24667M 24668  24680M 24681  24682
             24683  24691M 24692M 24692B 24695M 24698  24699  24700  24705M 24706M 24706B 24709M 24712  24749M 24750
             24751  24752  24757M 24758  24761M 24762M 24762B 24765M 24768  24769  24770  24775M 24776M 24776B 24878M
             24881B 24977  25021M 25022  25023  25024  25029M 25030  25033M 25034M 25034B 25037M 25040  25041  25042
             25061M 25064B 25079  25116M 25117  25133M 25134N 25135N 25139M 25139  25142M 25143M 25143B 25146M 25147M
             25147B 25151M 25154  25164M 25165  25166  25167  25172M 25173  25176M 25177M 25177B 25180M 25183  25184
             25185  25190M 25191M 25191B 25194M 25195M 25195B 25198M 25199M 25199B 25216M 25219B 25233  25400M 25401M
             25401B 25438M 25439N 25440N 25444M 25444  25507M 25508N 25509N 25513M 25513  25552M 25553M 25553B 25583M
             25586B 25667  25743M 25744  25745  25746  25751M 25752  25755M 25756M 25756B 25759M 25762  25763  25764
             25769M 25770M 25770B 25825M 25828B 25862  26004M 26005M 26005B 26039M 26040M 26040B 26134M 26135N 26136N
             26140M 26140  26225M 26226M 26226B 26255M 26258B 26294  26330M 26331  26343M 26344  26345  26346  26354M
             26355M 26355B 26358M 26361  26362  26363  26368M 26369M 26369B 26372M 26375  26429M 26430  26431  26432
             26437M 26438  26441M 26442M 26442B 26445M 26448  26449  26450  26455M 26456M 26456B 26483M 26484  26485
             26486  26491M 26492  26495M 26496M 26496B 26499M 26502  26503  26504  26530M 26533B 26643  26695M 26698B
             26713  26744M 26745  26761M 26762N 26763N 26767M 26767  26770M 26771M 26771B 26774M 26775M 26775B 26778M
             26781  26784M 26785M 26785B 26788M 26789M 26789B 26792M 26793M 26793B 26814M 26817B 26832  26863M 26864
             26876M 26877  26878  26879  26887M 26888M 26888B 26891M 26894  26895  26896  26901M 26902M 26902B 26905M
             26908  26936M 26937M 26937B 26940M 26941M 26941B 26944M 26945M 26945B 26948M 26949M 26949B 26970M 26973B
             27037  27086M 27087  27088  27089  27097M 27098M 27098B 27101M 27104  27105  27106  27111M 27112M 27112B
             27148M 27149M 27149B 27174M 27175  27176  27177  27185M 27186M 27186B 27189M 27192  27193  27194  27199M
             27200M 27200B 27228M 27229  27230  27231  27239M 27240M 27240B 27243M 27246  27247  27248  27253M 27254M
             27254B 27274M 27275M 27275B 27298M 27301B 27340  27376M 27383M 27384M 27384B 27572M 27573M 27573B 27586M
             27590  27592N 27615M 27616M 27616B 27619M 27623M 27624M 27624B 27734M 27735M 27735B 27752M 27753M 27753B
             27770M 27771M 27771B 27774M 27775M 27775B 27815M 27816M 27816B 27833M 27834M 27834B 27851M 27852M 27852B
             27855M 27856M 27856B 27900M 27901M 27901B 27904M 27905M 27905B 27943M 27944M 27944B 27947M 27948M 27948B
             27988M 27989M 27989B 28006M 28007M 28007B 28010M 28011M 28011B 28084M 28087B 28125  28161M 28168M 28169M
             28169B 28349M 28350M 28350B 28360M 28361M 28361B 28381M 28382M 28382B 28418M 28419M 28419B 28422M 28423M
             28423B 28459M 28460M 28460B 28463M 28464M 28464B 28502M 28503M 28503B 28506M 28507M 28507B 28547M 28548M
             28548B 28565M 28566M 28566B 28569M 28570M 28570B 28638M 28641B 28712  28759M 28766M 28767M 28767B 28947M
             28948M 28948B 28962M 28966  28968N 28991M 28992M 28992B 28995M 28999M 29000M 29000B 29091M 29092M 29092B
             29188M 29189M 29189B 29225M 29226M 29226B 29229M 29230M 29230B 29266M 29267M 29267B 29270M 29271M 29271B
             29309M 29310M 29310B 29313M 29314M 29314B 29354M 29355M 29355B 29372M 29373M 29373B 29376M 29377M 29377B
             29450M 29453B 29533  29566M 29567M 29567B 29611M 29612M 29612B 29646M 29647M 29647B 29664M 29665M 29665B
             29902M 29903M 29903B 29935M 29938B 29973  30022M 30026  30028N 30051M 30052M 30052B 30055M 30059M 30060M
             30060B 30108M 30109M 30109B 30129M 30130M 30130B 30147M 30148M 30148B 30186M 30187M 30187B 30204M 30205M
             30205B 30273M 30274M 30274B 30296M 30299B 30399  30445M 30446M 30446B 30455M 30456M 30456B 30460M 30461M
             30461B 30468M 30469M 30469B 30476M 30477M 30477B 30506M 30507M 30507B 30512M 30513M 30513B 30520M 30521M
             30521B 30528M 30529M 30529B 30579M 30582B 30642  31034M 31035M 31035B 31099M 31102B 31169  31307M 31308M
             31308B 31345M 31346M 31346B 31369M 31370M 31370B 31392M 31393M 31393B 31470M 31473B 31532  31700M 31701M
             31701B 31738M 31739M 31739B 31757M 31758M 31758B 31778M 31779M 31779B 31861M 31864B 31922  32369M 32372B
             32413  32856M 32857M 32857B 32886M 32889B 32923  33292M 33295B 33364  33422M 33423M 33423B 33428M 33429M
             33429B 33697M 33700B 33755  33809M 33810M 33810B 33815M 33816M 33816B 34011M 34014B 34045  34167M 34170B
             34217  34262M 34263M 34263B 34281M 34284B 34305  34390M 34391M 34391B 34412M 34413M 34413B 34434M 34435M
             34435B 34452M 34453M 34453B 34471M 34474B 34517  34622M 34623M 34623B 34644M 34645M 34645B 34649M 34650M
             34650B 34672M 34675B 34718  34818M 34819M 34819B 34840M 34841M 34841B 34862M 34863M 34863B 34880M 34881M
             34881B 34885M 34886M 34886B 34908M 34911B 34941  35103M 35106B 35153  35227M 35230B 35269  35342M 35345B
1         (XCAL2025) (13:01) (15MAR04) General Purpose Register Cross Reference                                             Page  275
             35405  35505M 35506M 35506B 35522M 35523M 35523B 35531M 35532M 35532B 35561M 35562M 35562B 35579M 35580M
             35580B 35605M 35606M 35606B 35635M 35638B 35688  35765M 35766M 35766B 35789M 35790M 35790B 35826M 35827M
             35827B 35886M 35887M 35887B 35969M 35970M 35970B 35975M 35976M 35976B 36007M 36010B 36055  36145M 36146M
             36146B 36197M 36198M 36198B 36216M 36217M 36217B 36286M 36287M 36287B 36350M 36351M 36351B 36376M 36377M
             36377B 36398M 36399M 36399B 36430M 36433B 36463  36520M 36521M 36521B 36524M 36525M 36525B 36640M 36641M
             36641B 36660M 36661M 36661B 36664M 36665M 36665B 36699M 36700M 36700B 36726M 36727M 36727B 36753M 36756B
             36786  36843M 36844M 36844B 36847M 36848M 36848B 36871M 36872M 36872B 36891M 36892M 36892B 36895M 36896M
             36896B 36930M 36931M 36931B 36957M 36958M 36958B 36984M 36987B
    15(F)      922U  2099   7589M  7589   8413M  8413   8437M  8437   8527M  8531M  8540M  8540   8547   8623M  8623
              9226M  9226   9250M  9250   9344M  9344   9394   9446M  9446   9537M  9556M  9556   9598M  9617M  9617
              9776M  9776   9903M  9903  10012M 10185M 10185  10388M 10388  10407M 10407  10577M 10577  10596M 10596
             10703M 10762M 10762  10781M 10781  10858M 10858  10877M 10877  11047M 11047  11066M 11066  11223M 11248M
             11277M 11295M 11320M 11358M 11358  11485M 11485  11516M 11516  11551M 11560M 11560  11566M 11575M 11575
             11581M 11582M 11584M 11585  11597M 11597  11598  11736M 11736  11959M 12005M 12108M 12400M 12400  12424M
             12424  12946M 12946  12970M 12970  13149M 13149  13276M 13276  13339M 13534M 13534  13737M 13737  13756M
             13756  13926M 13926  13945M 13945  14052M 14111M 14111  14130M 14130  14222M 14222  14407M 14407  14628M
             14628  14629M 14654M 14654  14685M 14889M 14889  14913M 14913  15017M 15017  15054M 15054  15093M 15093
             15208M 15208  15244M 15244  15284M 15284  15515M 15515  15643M 15643  15667M 15667  15823M 15823  15999M
             15999  16023M 16023  16101M 16108M 16161M 16161  16180M 16180  16246M 16253M 16306M 16306  16325M 16325
             16549M 16549  16573M 16573  16766M 16766  16790M 16790  16895M 16896  17008M 17037M 17055M 17275M 17281M
             17358M 17358  17521M 17532M 17538M 17670M 17670  17860M 17881M 17888M 17912M 17920M 17963M 17993M 18001M
             18021M 18021  18045M 18045  18143M 18164M 18171M 18212M 18220M 18263M 18293M 18305M 18325M 18325  18349M
             18349  18472M 18518M 18572M 18603M 18603  18703M 18703  18865M 18865  19032M 19033M 19034  19062M 19062
             19194M 19194  19261M 19261  19323M 19323  19401M 19401  19642M 19642  19666M 19666  19814M 19820M 19838M
             19838  19857M 19857  19946M 19952M 19970M 19970  19989M 19989  20092M 20092  20230M 20236M 20280M 20296M
             20338M 20338  20466M 20472M 20516M 20532M 20574M 20574  20708M 20714M 20720M 20726M 20749M 20771  20796M
             20818  20873M 20895  20920M 20942  20994M 20994  21018M 21018  21165M 21171M 21179M 21195M 21210M 21210
             21234M 21234  21365M 21371M 21379M 21395M 21410M 21410  21434M 21434  21567M 21573M 21590M 21612  21653M
             21675  21716M 21738  21766M 21788  21817M 21817  21841M 21841  21944M 21996M 21996  22034M 22034  22055M
             22081M 22081  22215M 22276M 22276  22314M 22314  22404M 22404  22420M 22440M 22473M 22473  22621M 22621
             22642M 22642  22787M 22787  23050M 23050  23074M 23074  23202M 23291M 23291  23322M 23322  23451M 23451
             23467M 23498M 23498  23753M 23753  23777M 23777  23891M 23891  23915M 23915  24038M 24038  24132M 24172M
             24172  24199M 24199  24322M 24322  24415M 24434M 24434  24465M 24465  24701M 24701  24771M 24771  24780M
             24780  24854M 24854  24880M 24880  25043M 25043  25044M 25063M 25063  25186M 25186  25218M 25218  25327M
             25327  25381M 25406M 25406  25514M 25549M 25585M 25585  25765M 25765  25801M 25801  25827M 25827  25956M
             25956  26036M 26102M 26102  26187M 26222M 26257M 26257  26364M 26364  26451M 26451  26505M 26505  26513M
             26532M 26532  26678M 26697M 26697  26797M 26816M 26816  26897M 26897  26953M 26972M 26972  27107M 27107
             27195M 27195  27249M 27249  27279M 27279  27300M 27300  27375M 27375  27376M 27408M 27408  27520M 27520
             27590  27612M 27619M 27638M 27638  27731M 27749M 27767M 27812M 27830M 27848M 27897M 27940M 28003M 28061M
             28061  28086M 28086  28160M 28160  28161M 28373M 28373  28396M 28396  28415M 28456M 28499M 28562M 28619M
             28619  28640M 28640  28758M 28758  28759M 28966  28988M 28995M 29015M 29015  29180M 29180  29203M 29203
             29222M 29263M 29306M 29369M 29426M 29426  29452M 29452  29589  29608M 29613M 29638  29661M 29666M 29937M
             29937  30026  30048M 30055M 30079  30121M 30121  30144M 30149M 30163M 30163  30201M 30206M 30260M 30260
             30298M 30298  30557M 30557  30581M 30581  31077M 31077  31101M 31101  31448M 31448  31472M 31472  31839M
             31839  31863M 31863  32352M 32352  32371M 32371  32869M 32869  32888M 32888  33275M 33275  33294M 33294
             33675M 33675  33699M 33699  33989M 33989  34013M 34013  34169M 34169  34259M 34264M 34283M 34283  34387M
             34409M 34431M 34449M 34454M 34473M 34473  34619M 34641M 34674M 34674  34815M 34837M 34859M 34877M 34910M
             34910  35086M 35086  35105M 35105  35210M 35210  35229M 35229  35325M 35325  35344M 35344  35502M 35558M
             35576M 35602M 35610M 35610  35637M 35637  35786M 35823M 35883M 35966M 35985M 35985  36009M 36009  36194M
             36283M 36347M 36408M 36408  36432M 36432  36637M 36696M 36723M 36736M 36736  36755M 36755  36868M 36927M
             36954M 36967M 36967  36986M 36986

1XCALL    (XCAL2025) (13:01) (15MAR04) Diagnostic Cross Reference and Assembler Summary                                     Page  276
-                                                                                            HLASM R4.0  2004/03/15 13.01
0     No Statements Flagged in this Assembly
 HIGH LEVEL ASSEMBLER, 5696-234, RELEASE 4.0, PTF P72483
0SYSTEM: OS/390 02.10.00            JOBNAME: WYL#XCAL    STEPNAME: ASM        PROCSTEP: (NOPROC)
0Datasets Allocated for this Assembly
  Con DDname   Dataset Name                                 Volume  Member
   P1 SYSIN    WYL.GS.WYL.WYLBUR.SOURCE                     SYSB05  XCALL
   L1 SYSLIB   WYL.GS.WYL.WYLBUR.MACLIB                     SYSB05
   L2          WYL.GG.SYS.MACLIB                            SYSB05
   L3          SYS3.IS.MACLIB                               SYSB05
   L4          SYS3.MACLIB                                  SYSB02
   L5          SYS1.MACLIB                                  MVSBR9
   L6          SYS1.MODGEN                                  MVSBR9
      SYSPRINT SYS04075.T130126.RA000.WYL#XCAL.PRINT.H01    SCR101
      SYSTERM  GG$SLP.WYL#XCAL.JOB03591.D0000101.?

    3668K allocated to Buffer Pool,         4385K would be required for this to be an In-Storage Assembly
    6261 Primary Input Records Read         7418 Library Records Read                109 Work File Reads
       0 ASMAOPT Records Read              22009 Primary Print Records Written       182 Work File Writes
       0 Punch Records Written                 0 ADATA Records Written
0Assembly Start Time: 13.01.27 Stop Time: 13.01.42 Processor Time: 00.00.06.9170
 Return Code 000
