1                        J E S 2  J O B  L O G  --  S Y S T E M  S Y S B  --  N O D E  R L G
0
 12.44.39 JOB03524 ---- MONDAY,    15 MAR 2004 ----
 12.44.39 JOB03524  ICH70001I GG$SLP   LAST ACCESS AT 12:44:29 ON MONDAY, MARCH 15, 2004
 12.44.39 JOB03524  $HASP373 WYL#FAIL STARTED - INIT 6    - CLASS B - SYS SYSB
 12.44.39 JOB03524  ***  HCMD      STEP $$QUIET
 12.44.39 JOB03524  PUR * Q OUT MUL
 12.44.39 JOB03524  JOB 5389 WYL#FAIL WILL BE PURGED
 12.44.41 JOB03524  WYL#FAIL.$$QUIET .         RC=Zero TapeIO=0000 DiskIO=0000 CPU=  .01s Elapsed=79.86s
 12.45.03 JOB03524  WYL#FAIL.ASM     .         RC=Zero TapeIO=0000 DiskIO=1108 CPU= 6.94s Elapsed=81.35s
 12.45.06 JOB03524  WYL#FAIL.EDIT    .         RC=Zero TapeIO=0000 DiskIO=0270 CPU=  .78s Elapsed=03.79s
 12.45.06 JOB03524  WYL#FAIL Ended.  Name=Assemble FAIL                  Total CPU= 7.73s Elapsed=79.86s
 12.45.06 JOB03524
 12.45.06 JOB03524  Execution charges   Priority=Standard   Block=Day
 12.45.06 JOB03524
 12.45.06 JOB03524  CPU Usage         142.50          $88.35   Standard Processing Unit Equivalent
 12.45.06 JOB03524                                   =======
 12.45.06 JOB03524                                    $88.35   Total Job execution charge
 12.45.06 JOB03524
 12.45.06 JOB03524  See back separator page for print charges
 12.45.06 JOB03524
 12.45.06 JOB03524  $HASP395 WYL#FAIL ENDED  ASM=0, EDIT=0
1        1 //WYL#FAIL JOB SLP$GG,'Assemble FAIL',TIME=4,REGION=4M                  JOB03524
           //*
           /*JOBPARM LINES=99,COPIES=1
           /*JOBPARM FORMS=3HOL,PFORMAT=LAND,CHARS=BD13,DUPLEX=YES,FLASH=BAR4
           //*
           /*JOBPARM NOTIFY=GG.SLP,HOLD=OUTPUT                                     WYLGEN
         2 //$$QUIET EXEC PGM=HCMDX,PARM='PUR * Q OUT MUL'
           //*
         3 //ASM    EXEC PGM=ASMA90,REGION=8M,
           //            PARM=('NORENT,TERM,FLAG(NOCONT),US(MAP,WARN(10)),NODECK',
           //            'LC(32767),XREF(SHORT),ESD,DXREF,NOOBJECT')
         4 //STEPLIB DD DSN=SYS3.IS.TESTASM,DISP=SHR
         5 //SYSLIB   DD  DSN=WYL.GS.WYL.WYLBUR.MACLIB,DISP=SHR
         6 //         DD  DSN=WYL.GG.SYS.MACLIB,DISP=SHR
         7 //         DD  DSN=SYS3.IS.MACLIB,DISP=SHR
         8 //         DD  DSN=SYS3.MACLIB,DISP=SHR
         9 //         DD  DSN=SYS1.MACLIB,DISP=SHR
        10 //         DD  DSN=SYS1.MODGEN,DISP=SHR
        11 //SYSUT1   DD DSN=&&SYSUT1,UNIT=VIO,DISP=(,DELETE),
           //            SPACE=(4088,(500,250),,CONTIG,ROUND)
        12 //SYSTERM  DD SYSOUT=T
        13 //SYSPRINT DD DSN=&&PRINT,UNIT=SYSDA,DISP=(,PASS),
           //            SPACE=(6650,(250,250),RLSE),
           //            DCB=(BLKSIZE=6650,LRECL=133,RECFM=FB)
        14 //SYSUDUMP DD SYSOUT=A
        15 //SYSIN    DD  DSN=WYL.GS.WYL.WYLBUR.SOURCE(FAIL),DISP=SHR
           //*
        16 //EDIT    EXEC PGM=ASMEDIT,TIME=2,REGION=4000K,
           //             PARM='STMT'
        17 //STEPLIB  DD  DSN=WYL.GG.SYS.LINKLIB,DISP=SHR
        18 //ASMOUT   DD  DSN=&PRINT,DISP=(OLD,DELETE)
        19 //SYSPRINT DD  SYSOUT=A
1 STMT NO. MESSAGE
 -
        11 IGD01010I STORCLAS= TEMP STORGROUP =
        11 IGD01010I STORGRP=VIO ASSIGNED.
        13 IGD01010I STORCLAS= TEMP STORGROUP =
        13 IGD01010I STORGRP=VIO ASSIGNED.
 ICH70001I GG$SLP   LAST ACCESS AT 12:44:29 ON MONDAY, MARCH 15, 2004
 IEF142I WYL#FAIL $$QUIET - STEP WAS EXECUTED - COND CODE 0000
 *********************************************************************************
 *   WYL#FAIL/$$QUIET /                    Return Code      Zero                 *
 *   Region used      260K (16K user + 244K system)                              *
 *   Extended region  9692K (4K user + 9688K system)                             *
 *                                                                               *
 *   Paging              In      Out                                             *
 *   Private <-> Aux      0        0       CPU time (TCB)   00:00:00.01          *
 *   Private <-> Exp      0        0       CPU time (SRB)   00:00:00.00          *
 *   VIO                  0        0       Elapsed time    917:43:13.10          *
 *   Common               0      ---                                             *
 *                                                                               *
 *                                                                               *
 *   CPU Usage          0.18         $0.11  Standard Processing Unit Equivalent  *
 *                                   $0.11  Total Step execution charge          *
 *                                                                               *
 *    I/O count  DDname   Type Addr           I/O count  DDname   Type Addr      *
 *                         *** No I/O for this step ***                          *
 *********************************************************************************
 IEF373I STEP/$$QUIET /START 2004075.1244
 IEF374I STEP/$$QUIET /STOP  2004075.1244 CPU    0MIN 00.01SEC SRB    0MIN 00.00SEC VIRT    16K SYS   244K EXT       4K SYS    9688K
 IEF236I ALLOC. FOR WYL#FAIL ASM
 IEF237I 04DC ALLOCATED TO STEPLIB
 IEF237I 04DC ALLOCATED TO SYSLIB
 IEF237I 04DC ALLOCATED TO
 IEF237I 04DC ALLOCATED TO
 IEF237I 0402 ALLOCATED TO
 IEF237I 04A0 ALLOCATED TO
 IEF237I 04A0 ALLOCATED TO
 IGD101I SMS ALLOCATED TO DDNAME (SYSUT1  )
         DSN (SYS04075.T124439.RA000.WYL#FAIL.SYSUT1.H01  )
         STORCLAS (TEMP) MGMTCLAS (        ) DATACLAS (        )
         VOL SER NOS= VIO
 IEF237I JES2 ALLOCATED TO SYSTERM
 IGD101I SMS ALLOCATED TO DDNAME (SYSPRINT)
         DSN (SYS04075.T124439.RA000.WYL#FAIL.PRINT.H01   )
         STORCLAS (TEMP) MGMTCLAS (        ) DATACLAS (        )
         VOL SER NOS= SCR101
 IEF237I JES2 ALLOCATED TO SYSUDUMP
 IEF237I 04DC ALLOCATED TO SYSIN
 IEF142I WYL#FAIL ASM - STEP WAS EXECUTED - COND CODE 0000
 IEF285I   SYS3.IS.TESTASM                              KEPT
 IEF285I   VOL SER NOS= SYSB05.
 IEF285I   WYL.GS.WYL.WYLBUR.MACLIB                     KEPT
 IEF285I   VOL SER NOS= SYSB05.
 IEF285I   WYL.GG.SYS.MACLIB                            KEPT
 IEF285I   VOL SER NOS= SYSB05.
 IEF285I   SYS3.IS.MACLIB                               KEPT
 IEF285I   VOL SER NOS= SYSB05.
 IEF285I   SYS3.MACLIB                                  KEPT
 IEF285I   VOL SER NOS= SYSB02.
 IEF285I   SYS1.MACLIB                                  KEPT
 IEF285I   VOL SER NOS= MVSBR9.
 IEF285I   SYS1.MODGEN                                  KEPT
 IEF285I   VOL SER NOS= MVSBR9.
 IGD105I SYS04075.T124439.RA000.WYL#FAIL.SYSUT1.H01   DELETED,   DDNAME=SYSUT1
 IEF285I   GG$SLP.WYL#FAIL.JOB03524.D0000101.?          SYSOUT
 IGD106I SYS04075.T124439.RA000.WYL#FAIL.PRINT.H01    PASSED,    DDNAME=SYSPRINT
 IEF285I   GG$SLP.WYL#FAIL.JOB03524.D0000102.?          SYSOUT
 IEF285I   WYL.GS.WYL.WYLBUR.SOURCE                     KEPT
 IEF285I   VOL SER NOS= SYSB05.
 *********************************************************************************
 *   WYL#FAIL/ASM     /                    Return Code      Zero                 *
 *   Region used      4376K (4096K user + 280K system)                           *
 *   Extended region  10312K (412K user + 9900K system)                          *
 *                                                                               *
 *   Paging              In      Out                                             *
 *   Private <-> Aux      0        0       CPU time (TCB)   00:00:06.83          *
 *   Private <-> Exp      0        0       CPU time (SRB)   00:00:00.11          *
 *   VIO                  0        0       Elapsed time    917:43:11.61          *
 *   Common               0      ---                                             *
 *                                                                               *
 *                                                                               *
 *   CPU Usage        128.06        $79.39  Standard Processing Unit Equivalent  *
 *                                  $79.39  Total Step execution charge          *
 *                                                                               *
 *    I/O count  DDname   Type Addr           I/O count  DDname   Type Addr      *
 *           83  STEPLIB  Disk 04DC                 395  SYSLIB   Disk 04DC      *
 *            0  SYSLIB   Disk 04DC                   0  SYSLIB   Disk 04DC      *
 *            7  SYSLIB   Disk 0402                 347  SYSLIB   Disk 04A0      *
 *            0  SYSLIB   Disk 04A0               1,458  SYSUT1   VIO  ----      *
 *            0  SYSTERM       ----                 267  SYSPRINT Disk 04E3      *
 *            0  SYSUDUMP      ----                   9  SYSIN    Disk 04DC      *
 *********************************************************************************
 IEF373I STEP/ASM     /START 2004075.1244
 IEF374I STEP/ASM     /STOP  2004075.1245 CPU    0MIN 06.83SEC SRB    0MIN 00.11SEC VIRT  4096K SYS   280K EXT     412K SYS    9900K
 IEF236I ALLOC. FOR WYL#FAIL EDIT
 IEF237I 0402 ALLOCATED TO STEPLIB
 IGD103I SMS ALLOCATED TO DDNAME ASMOUT
 IEF237I JES2 ALLOCATED TO SYSPRINT
 IEF142I WYL#FAIL EDIT - STEP WAS EXECUTED - COND CODE 0000
 IEF285I   WYL.GG.SYS.LINKLIB                           KEPT
 IEF285I   VOL SER NOS= SYSB02.
 IGD105I SYS04075.T124439.RA000.WYL#FAIL.PRINT.H01    DELETED,   DDNAME=ASMOUT
 IEF285I   GG$SLP.WYL#FAIL.JOB03524.D0000103.?          SYSOUT
 *********************************************************************************
 *   WYL#FAIL/EDIT    /                    Return Code      Zero                 *
 *   Region used      380K (116K user + 264K system)                             *
 *   Extended region  9816K (4K user + 9812K system)                             *
 *                                                                               *
 *   Paging              In      Out                                             *
 *   Private <-> Aux      0        0       CPU time (TCB)   00:00:00.76          *
 *   Private <-> Exp      0        0       CPU time (SRB)   00:00:00.02          *
 *   VIO                  0        0       Elapsed time    917:42:49.17          *
 *   Common               0      ---                                             *
 *                                                                               *
 *                                                                               *
 *   CPU Usage         14.25         $8.83  Standard Processing Unit Equivalent  *
 *                                   $8.83  Total Step execution charge          *
 *                                                                               *
 *    I/O count  DDname   Type Addr           I/O count  DDname   Type Addr      *
 *            2  STEPLIB  Disk 0402                 268  ASMOUT   Disk 04E3      *
 *            0  SYSPRINT      ----                                              *
 *********************************************************************************
 IEF373I STEP/EDIT    /START 2004075.1245
 IEF374I STEP/EDIT    /STOP  2004075.1245 CPU    0MIN 00.76SEC SRB    0MIN 00.02SEC VIRT   116K SYS   264K EXT       4K SYS    9812K
 *********************************************************************************
 *                                                                               *
 *                      S t a n f o r d   U n i v e r s i t y                    *
 *                                                                               *
 *                              *** Job Summary ***                              *
 *                                                                               *
 *   System Id      SYSB                   Input time     12:39:18  Mar 15, 2004 *
 *                                                                               *
 *   System Release SP6.1.0                Start time     12:44:39  Mar 15, 2004 *
 *                                                                               *
 *   Job name       WYL#FAIL               Stop  time     00:00:00  Mar 15, 2004 *
 *                                                                               *
 *   Account        SLP$GG                 Elapsed time  917:43:13.10            *
 *                                                                               *
 *   User Name      Assemble FAIL          CPU time       00:00:07.60            *
 *                                                                               *
 *   Job class      B                      SRB Time       00:00:00.13            *
 *                                                                               *
 *********************************************************************************
 IEF375I  JOB/WYL#FAIL/START 2004075.1244
 IEF376I  JOB/WYL#FAIL/STOP  2004075.1245 CPU    0MIN 07.60SEC SRB    0MIN 00.13SEC
1Assembler Done FAIL No Statements Flagged
1         High Level Assembler Option Summary                   (PTF P72483 )                                               Page    1
-                                                                                            HLASM R4.0  2004/03/15 12.44
0  No Overriding ASMAOPT Parameters
   Overriding Parameters-  NORENT,TERM,FLAG(NOCONT),US(MAP,WARN(10)),NODECK,LC(32767),XREF(SHORT),ESD,DXREF,NOOBJECT
   No Process Statements


   Options for this Assembly
0  NOADATA
     ALIGN
   NOASA
     BATCH
     CODEPAGE(047C)
   NOCOMPAT
   NODBCS
 3 NODECK
 3   DXREF
 3   ESD
   NOEXIT
 3   FLAG(0,ALIGN,NOCONT,NOIMPLEN,NOPAGE0,PUSH,RECORD,NOSUBSTR,USING0)
   NOFOLD
   NOGOFF
   NOINFO
     LANGUAGE(EN)
   NOLIBMAC
 3   LINECOUNT(32767)
     LIST(121)
     MXREF(SOURCE)
 3 NOOBJECT
     OPTABLE(UNI,NOLIST)
   NOPCONTROL
   NOPESTOP
   NOPROFILE
   NORA2
 3 NORENT
     RLD
     RXREF
     SIZE(MAX)
     SYSPARM()
 3   TERM(WIDE)
   NOTEST
     THREAD
   NOTRANSLATE
 3   USING(NOLIMIT,MAP,WARN(10))
 3   XREF(SHORT)

   No Overriding DD Names

1FAIL     External Symbol Dictionary                                                                                        Page    2
-Symbol   Type   Id     Address  Length     LD ID  Flags Alias-of                            HLASM R4.0  2004/03/15 12.44
0WYLFAIL   SD 00000001 00000000 00004E40             00
 FAIL2025  LD          00000000           00000001
 FAILINIT  LD          00000018           00000001
 SYMINIT   LD          000001B0           00000001
 SEG       ER 00000002
 SEGWR     ER 00000003
 WTOSG     LD          000002A0           00000001
 TRC       LD          00000540           00000001
 SEGINIT   ER 00000004
 SEGDC     ER 00000005
 SEGTB     ER 00000006
 SEGT      ER 00000007
 SEGCLR    ER 00000008
 TRAPTRC   ER 00000009
 SHOWWLIN  LD          0000080C           00000001
 SHOWWLNS  LD          00000810           00000001
 MINT      ER 0000000A
 COLLPSH   ER 0000000B
 MALL      ER 0000000C
 NOTVALID  ER 0000000D
 NSCAN     ER 0000000E
 SCANCHK   ER 0000000F
 TSTAT     ER 00000010
 BTR       ER 00000011
 CVEXNO    ER 00000012
 SHOWJCB   LD          00000E46           00000001
 WSTOP     LD          0000100C           00000001
 WSTART    LD          0000102A           00000001
 WSC       LD          0000126A           00000001
 WPC       LD          0000132A           00000001
 MPARM     ER 00000013
 MTOKEN    ER 00000014
 QUIETPSH  ER 00000015
 SHOWVERS  LD          00001882           00000001
 SHOWSYM   LD          000018B6           00000001
 GETRSC    ER 00000016
 XTB       ER 00000017
 COLLOPTS  ER 00000018
 DEQSTR    ER 00000019
 HEXSTR    ER 0000001A
 HEXFMT    ER 0000001B
 YESREQ    ER 0000001C
 SEGCR     ER 0000001D
 SEGHX     ER 0000001E
 VERSION   ER 0000001F
 SHUTDOWN  LD          000025B8           00000001
 CLEANUP   LD          00002612           00000001
 CV        ER 00000020
 AMODE31   ER 00000021
 GETCP     ER 00000022
 INITSTK   ER 00000023
 FORCEOUT  ER 00000024
 LOCALTOD  ER 00000025
 SEGB      ER 00000026
 PATHCLS   ER 00000027
1FAIL     External Symbol Dictionary                                                                                        Page    3
 FREECP    ER 00000028
 DISPCONT  ER 00000029
 PFREEA    ER 0000002A
 PFREEB    ER 0000002B
 GETCPU    ER 0000002C
 PAGERES   ER 0000002D
 TREAD     ER 0000002E
 COMMAND   ER 0000002F
 DISPATCH  ER 00000030
 AMODE24   ER 00000031
 STATSTOP  ER 00000032
 TIMRSTOP  ER 00000033
 JESSTOP   ER 00000034
 DISKSTOP  ER 00000035
 VTAMSTOP  ER 00000036
 DOWNBILL  ER 00000037
 DISPSTOP  ER 00000038
 FMTCLCK   ER 00000039
 DISKCLCK  ER 0000003A
 DISKSCB   ER 0000003B
 FMTPGQ    ER 0000003C
 SEGCOL    ER 0000003D
 NETFMT    ER 0000003E
 IOWASIZE  ER 0000003F
 BTX       ER 00000040
 BTD       ER 00000041
 TLOC      LD          00004186           00000001
 FINDSYM   LD          000042AC           00000001
 SEGMARK   ER 00000042
 SYMBOLS   LD          00004968           00000001
 RUNRSG    ER 00000043
 SETRSG    ER 00000044
 PAGRSG    ER 00000045
 IOWRSG    ER 00000046
 KWRRSG    ER 00000047
 SUBRSG    ER 00000048
 HCMRSG    ER 00000049
 WYLORV    ER 0000004A
 WYLCR     ER 0000004B
 WYLKWWR   ER 0000004C
 WYLGLOB   ER 0000004D
 WYLDISP   ER 0000004E
 WYLSTAT   ER 0000004F
 WYLQUERY  ER 00000050
 WYLSIGN   ER 00000051
 WYLDISK   ER 00000052
 WYLACT    ER 00000053
 WYLUTIL   ER 00000054
 WYLJES    ER 00000055
 WYLRJE    ER 00000056
 WYLOPT    ER 00000057
 WYLDOPT   ER 00000058
 WYLEXEC   ER 00000059
 WYLEVAL   ER 0000005A
 WYLVARS   ER 0000005B
 WYLFLOW   ER 0000005C
 WYLRECS   ER 0000005D
 WYLSCAN   ER 0000005E
 WYLOSCN   ER 0000005F
1FAIL     External Symbol Dictionary                                                                                        Page    4
 WYLEDIT   ER 00000060
 WYLACCT   ER 00000061
 WYLACMD   ER 00000062
 WYLSPELL  ER 00000063
 WYLLINE   ER 00000064
 WYLMODE   ER 00000065
 WYLPAGE   ER 00000066
 WYLVIEW   ER 00000067
 WYLPROT   ER 00000068
 WYLTAPE   ER 00000069
 WYLTEST   ER 0000006A
 WYLFAIL   ER 0000006B
 WYLCHAZ   ER 0000006C
 WYLITEST  ER 0000006D
 WYLCRYPT  ER 0000006E
 WYLDBUG   ER 0000006F
 WYLWBUG   ER 00000070
 WYLFUNC   ER 00000071
 WYLSYSV   ER 00000072
 WYLPROC   ER 00000073
 WYLPATH   ER 00000074
 WYLWGS    ER 00000075
 WYLUFS    ER 00000076
 WYLNFILE  ER 00000077
 WYLCOMM   ER 00000078
 WYLXCALL  ER 00000079
 WYLNET    ER 0000007A
 WYLNPAT   ER 0000007B
 WYLHELP   ER 0000007C
 WYLFILE   ER 0000007D
 WYLDIR    ER 0000007E
 WYLVETS   ER 0000007F
 WYLVPO    ER 00000080
 WYLKEYS   ER 00000081
 WYLMICRO  ER 00000082
 WYLEXT    ER 00000083
 WYLSAM    ER 00000084
 WYLNEWS   ER 00000085
 WYLMAIL   ER 00000086
 WYLTEXT   ER 00000087
 WYLINIT   ER 00000088
 WYLTERM   ER 00000089
 WYLTINT   ER 0000008A
 WYLTOPS   ER 0000008B
 WYLDYNA   ER 0000008C
 WYLLOCL   ER 0000008D

1FAIL     WYLBUR's Dump Formatter and Internal Commands                                                                     Page    5
0Loc    Object Code    Addr1 Addr2  Stmt Lv Lineno    Source Statement                    (Asmedit 3.3)  HLASM R4.0  2004/03/15 12.44
+___    ______ ____    _____ _____  ____ __ ______    ______ _________
0                                      2              *******************************************************************
                                       3              *                                                                 *
                                       4              *     WYLBUR/370 - Release VI - Class I - Stanford Proprietary    *
                                       5              *                                                                 *
                                       6              *******************************************************************
                                       7                       HIBAL
                                     988
                                     989                       SYSDEFN
                                     990                       GBLC  &DMPCLAS,&DMPFORM   (See SYSDEFN)
 000000                00000 04E40   991              WYLFAIL  CSECT
                                     995                       REGS  FSR,,,,,,,BR,(WAR,LSR),PAR,PBR,CPR,CVR,SPR,RAR
                                    1131
                                    1132              FAIL     IDENT 2025                11:49:23 01/25/02  (SLP)
                                    1135             +
                                    1136    01-IDENT +         ENTRY FAIL2025
                                    1137             +
 000000 16C6C1C9D3F2F0F2            1138    01-IDENT +FAIL2025 DC    AL1(22),C'FAIL2025,15MAR04,12:44'
                                    1139             +*
1FAIL     (FAIL2025) (12:44) (15MAR04) DSECTS                                                                               Page    6
0Loc    Object Code    Addr1 Addr2  Stmt Lv Lineno    Source Statement           (Hibal 5, Asmedit 3.3)  HLASM R4.0  2004/03/15 12.44
+___    ______ ____    _____ _____  ____ __ ______    ______ _________
0                                   1143                       PUSH  OFF
                                    1225
                                    1226                       PUSH  DSECTS
 USING  CP,R11                      1237             =         USING (CP),(CV)
 USING  CV,R12
 000017                00000 04E40  1256             =         POP   PRINT
1FAIL     (FAIL2025) (12:44) (15MAR04) DSECTS                                                                               Page    7
0Current Usings:  (CP,R11) (CV,R12)
0Loc    Object Code    Addr1 Addr2  Stmt Lv Lineno    Source Statement           (Hibal 5, Asmedit 3.3)  HLASM R4.0  2004/03/15 12.44
+___    ______ ____    _____ _____  ____ __ ______    ______ _________
0000000                00000 00054 13416              EPIE     RECORD BEGIN
 000000                            13424  1           EPIEID     DS    F                   'EPIE' ID
 000004                            13425  1           EPIEUSER   DS    F                   USER SUPPLIED PARM LIST
 000008                            13426  1           EPIEREGS   DS    16F                 USER REGESTERS AT INTERRUPTION
 000048                            13427  1           EPIEPSW    DS    2F                  USER PSW AT INTERRUPTION
                                   13428  1           EPIECC     EQU   EPIEPSW+1,1         PSW CC
                                   13429  1           EPIEIA     EQU   EPIEPSW+4,4         PSW INSTRUCTION ADDRESS
 000050                            13430  1           EPIEILC    DS    H                   INSTRUCTION LENGTH CODE
 000052                            13431  1           EPIEIC     DS    H                   INTERRUPTION CODE
                                   13432  1           * FOLLOWED BY RESERVED FIELDS.
 000054                00054 00054 13433                       END
1FAIL     (FAIL2025) (12:44) (15MAR04) DSECTS                                                                               Page    8
0Current Usings:  (CP,R11) (CV,R12)
0Loc    Object Code    Addr1 Addr2  Stmt Lv Lineno    Source Statement           (Hibal 5, Asmedit 3.3)  HLASM R4.0  2004/03/15 12.44
+___    ______ ____    _____ _____  ____ __ ______    ______ _________
0                                  13443                       COPY  TP
 000000                00000 00010 13444             =TP       RECORD BEGIN              Trace paramater area
 000000 00                         13452  1          =TPFLGS     FLAG  ,                   Flags
 TPFLGS.TPFDATA    80 ONES         13456  1          =           FLAG  TPFDATA             - trace data in cvtrcdat
 TPFLGS.TPFKAPUT   40 ONES         13461  1          =           FLAG  TPFKAPUT            - kaput request
 TPFLGS.TPFDUMP    20 ONES         13466  1          =           FLAG  TPFDUMP             - kaput with dump
 TPFLGS.TPFMSG     10 ONES         13471  1          =           FLAG  TPFMSG              - kaput with msg
 TPFLGS.TPFNREST   08 ONES         13476  1          =           FLAG  TPFNREST            - kaput without restart
                                   13481  1          =
 000001                            13482  1          =           DS    X                   Reserved
                                   13483  1          =
 000002                            13484  1          =TPRGMSK    DS    H                   Register print mask
                                   13485  1          =
 000004                            13486  1          =TPNAME     DS    CL8                 Name
                                   13487  1          =TPEND      EQU   *                   End of inline data
                                   13488  1          =*
                                   13489  1          =*  The following data is present if TPFKAPUT and TPFMSG flags are on...
                                   13490  1          =TPMSGLEN   EQU   *,1                 Length of msg in high byte
 00000C                            13491  1          =TPMSGADR   DS    A                   Addr of msg
                                   13492  1          =TPENDK     EQU   *                   End of inline data with kaput msg
 000010                00010 00010 13493             =         END
-
0000000                00000 00058 13503              TRE      RECORD BEGIN              Trace table entry
 000000                            13511  1           TRENAME    DS    CL8                 Name
 000008 00                         13512  1           TREFLGS    FLAG  ,                   Flags
 TREFLGS.TREFDEF   80 ONES         13516  1                      FLAG  TREFDEF             - trace entry contains data
 TREFLGS.TREFENTR  40 ONES         13521  1                      FLAG  TREFENTR            - "enter" type trace entry
 TREFLGS.TREFDATA  20 ONES         13526  1                      FLAG  TREFDATA            - data present in 'tredata'
                                   13531  1
 000009                            13532  1                      DS    X                   Reserved
                                   13533  1
 00000A                            13534  1           TRERGMSK   DS    H                   Register print masks
 00000C                            13535  1           TREREGS    DS    16F                 All registers
                                   13536  1           TREADDR    EQU   TREREGS+(R12*4),4   Addr of trace call, not R12
                                   13537  1           TREENTR    EQU   TREREGS+(R7*4),4    Entry addr (for "entry" calls)
                                   13538  1           TRELAT     EQU   TREENTR,1,C'X'      Entry flag- if zero, trace name
                                   13539  1           *                                  is at treaddr-8
                                   13540  1           *
 00004C                            13541  1                      DS    F                   Reserved
                                   13542  1
 000050                            13543  1           TREDATA    DS    D                   Trace data (if trefdata is set)
                                   13544  1
                                   13545  1           TRENEXT    EQU   *                   Addr of next trace entry
 000058                00058 00058 13546                       END
1FAIL     (FAIL2025) (12:44) (15MAR04) DSECTS                                                                               Page    9
0Current Usings:  (CP,R11) (CV,R12)
0Loc    Object Code    Addr1 Addr2  Stmt Lv Lineno    Source Statement           (Hibal 5, Asmedit 3.3)  HLASM R4.0  2004/03/15 12.44
+___    ______ ____    _____ _____  ____ __ ______    ______ _________
0                                  13556                       COPY  SYMBOL
 000000                00000 00010 13557             =SYMBOL   RECORD BEGIN              Map of symbol entry
 000000 00                         13565  1          =SYMFLGS    FLAG
 SYMFLGS.SYMFEND   FF EQ           13569  1          =           FLAG  (SYMFEND,X'FF',EQ)  - end of table
 SYMFLGS.SYMFCSCT  80 ONES         13579  1          =           FLAG  SYMFCSCT            - symbol is csect
 000001                            13584  1          =SYMADDR    DS    AL3                 Symbol addr
                                   13585  1          =SYMLOC     EQU   SYMFLGS,4,C'F'
 000004                            13586  1          =SYMLEN     DS    Y                   Length of section
 000006                            13587  1          =           DS    Y                   Reserved
 000008                            13588  1          =SYMNAME    DS    CL8                 Symbol name
                                   13589  1          =
                                   13590  1          =SYMNEXT    EQU   *
 000010                00010 00010 13591             =         END
-000000                00000 00018 13601              LOC      RECORD BEGIN
 000000                            13609  1           LOCADDR    DS    F                   Address
 000004                            13610  1           LOCCSECT   DS    CL8                 Name of closest csect (or blanks)
 00000C                            13611  1           LOCSYM     DS    CL8                 Name of closest non-csect
 000014                            13612  1           LOCCSOFS   DS    H                   Offset from csect
 000016                            13613  1           LOCSYOFS   DS    H                   Offset from symbol
 000018                00018 00018 13614                       END
1FAIL     (FAIL2025) (12:44) (15MAR04) WYLBUR's Dump Formatter                                                              Page   10
0Current Usings:  (CP,R11) (CV,R12)
0Loc    Object Code    Addr1 Addr2  Stmt Lv Lineno    Source Statement           (Hibal 5, Asmedit 3.3)  HLASM R4.0  2004/03/15 12.44
+___    ______ ____    _____ _____  ____ __ ______    ______ _________
0000017                00000 04E40 13624              WYLFAIL  CSECT
 00029E                0029E 04E40 13626                       DATA  BEGIN
 00029E 00                         13631  1           INITFLGS   FLAG  SORTED              Local flag
 INITFLGS.SORTED   80 ONES
 000017                00000 04E40 13637                       END
-                                  13644              ¿þþþþþþþþþþþþþþþþþþþþþþþþþþþþþþþþþþþþþþþþþþþþþþþþþþþþþþþþþþþþþþþþþþþþþÜ
                                   13645              Ÿ                                                                     Ÿ
                                   13646              Ÿ  FAILINIT -- Called at initialization (by INIT) to set up the       Ÿ
                                   13647              Ÿ    trace table and dump formatter.                                  Ÿ
                                   13648              Ÿ                                                                     Ÿ
                                   13649              Ÿ    On entry:                                                        Ÿ
                                   13650              Ÿ      R0 - no. of trace entries to generate (0=disable)              Ÿ
                                   13651              Ÿ                                                                     Ÿ
                                                      ¾þþþþþþþþþþþþþþþþþþþþþþþþþþþþþþþþþþþþþþþþþþþþþþþþþþþþþþþþþþþþþþþþþþþþþ»
0000017 00/50E0 D000/902_          13652              FAILINIT XENTER
 USING  *,R7
                                   13671                       ¿þþþþþþþþþþþþþþþþþþþþþþþþþþÜ
                                   13672                       Ÿ  Build the trace table.  Ÿ
                                   13673                       ¾þþþþþþþþþþþþþþþþþþþþþþþþþþ»
 000032 1200/47D0 702A             13674                       IF    (R0,P),BEGIN        Build trace table...
 000038 4C00 726A            0029C 13688  1                      MH    R0,=AL2(L'TRE)      Times entry size for no. of bytes
 00003C 4510 700E/0A0A       00040 13689  1                      GETMAIN R,LV=(0)          Get enough core
 000042 5010 7776            007A8 13693  1                      ST    R1,TRCSTRT          Save starting addr
 000046 5010 7772            007A4 13694  1                      ST    R1,TRCNEXT          Init next entry ptr
 00004A 1821                       13695  1                      LR    R2,R1               Starting addr
 00004C 1830                       13696  1                      LR    R3,R0               No. of bytes
 00004E 1A01                       13697  1                      AR    R0,R1               Calc ending addr
 000050 5000 777A            007AC 13698  1                      ST    R0,TRCEND           Save trace table ending addr
                                   13699  1
 000054 1B11                       13700  1                      CLEAR R1                  Pad char of zero
 000056 0E20                       13704  1                      MVCL  R2,R0               Init trace table to zeros
 000058 9680 C4C5      004C5       13705  1                      SET   CVFTRC              Trace table in use
 00005C                            13711                       END
                                   13715                       ¿þþþþþþþþþþþþþþþþþþþþþþþþþþþþþþþþþþþÜ
                                   13716                       Ÿ  Set the CSA cleanup ESTAE exit.  Ÿ
                                   13717                       ¾þþþþþþþþþþþþþþþþþþþþþþþþþþþþþþþþþþþ»
 00005C 4510 7046/16/0_      00078 13718                       ESTAE CLEANFIN,PURGE=NONE,ASYNCH=YES,TERM=YES
 000082 12FF/4780 707C             13737                       IF    (R15,NZ),BEGIN      Can't setup ESTAE...
 000088 4510 707A/001F_      000AC 13751  1                      WTO   'ESTAE cleanup exit not set.'
 0000AE                            13759                       END
                                   13763                     ¿þþþþþþþþþþþþþþþþþþþþþþþþþþþþþþþþþþþþþþþþþþþþþþþþþþþþþþþþþþþþþþþþþÜ
                                   13764                     Ÿ   Set the dump formatter ESTAE exit.  The ESTAE exits will get  Ÿ
                                   13765                     Ÿ  entered from the most recently set to the least recently set.  Ÿ
                                   13766                     ¾þþþþþþþþþþþþþþþþþþþþþþþþþþþþþþþþþþþþþþþþþþþþþþþþþþþþþþþþþþþþþþþþþ»
 0000AE 9108 C4C7/4710_004C7       13767                       IF    ~CVFNSTAE,BEGIN     Set stae exits...
 0000B6 0700/4510 70A2_            13782  1                      ESTAE CLOSEFIN,PURGE=NONE,ASYNCH=YES,TERM=YES
 0000DE 12FF/4780 70D6             13801  1                      IF    (R15,NZ),BEGIN      Can't setup ESTAE...
 0000E4 4510 70D4/001D_      00106 13815  2                        WTO   'ESTAE close exit not set.'
 000108                            13823  1                      END
                                   13827  1
 000108 4510 70F2/16/0_      00124 13828  1                      ESTAE ESTAE,PURGE=NONE,ASYNCH=YES,TERM=YES
1FAIL     (FAIL2025) (12:44) (15MAR04) WYLBUR's Dump Formatter                                                              Page   11
0Current Usings:  (*,R7) (CP,R11) (CV,R12)
0Loc    Object Code    Addr1 Addr2  Stmt Lv Lineno    Source Statement           (Hibal 5, Asmedit 3.3)  HLASM R4.0  2004/03/15 12.44
+___    ______ ____    _____ _____  ____ __ ______    ______ _________
000012E 12FF/4780 712E             13847  1                      IF    (R15,NZ),BEGIN      Do if error from stae
 000134 4510 712C/0026_      0015E 13861  2                        WTO   'ESTAE dump formatter exit not set.'
 000160                            13869  1                      END
 000160                            13873                       END
                                   13877                       ¿þþþþþþþþþþþþþþþþþþþþþþþþþþþþþþþþþþþþþþþþþþþþþþþþþþþþþþþþþþþÜ
                                   13878                       Ÿ  Set up the symbol table so we have ascending addresses.  Ÿ
                                   13879                       ¾þþþþþþþþþþþþþþþþþþþþþþþþþþþþþþþþþþþþþþþþþþþþþþþþþþþþþþþþþþþ»
 000160 5850 7256/1255       00288 13880                       LT    R5,=A(SYMBOLS)      Addr of symbol table
 000166 4780 7172            001A4 13884                       BZ    INITNOTB
 00016A                            13885                       LOOP  BEGIN
 00016A 9680 726C      0029E       13891  1                      SET   SORTED              Assume data is sorted
 00016E 1845                       13897  1                      LR    R4,R5               Copy symbol table ptr
 USING  SYMBOL,R4                  13898  1                      USING SYMBOL,R4
 000170                            13907  1                      LOOP  BEGIN
 000170 D502 4001 4011_00001 00011 13913  2                        IF    (SYMADDR,GT,.SYMNEXT+(SYMADDR-SYMBOL)),BEGIN
 00017A D70F 4000 4010_00000 00010 13930  3                          FLIP  (SYMBOL,SYMNEXT)    Interchange table entries
 00018C 947F 726C      0029E       13937  3                          CLEAR SORTED              Set data not yet sorted
 000190                            13944  2                        END
 000190 4140 4010            00010 13948  2                        LA    R4,SYMNEXT          Next entry
 000194 95FF 4000/4770_00000       13949  1                      UNTIL SYMFEND,END
 00019C 9180 726C/47E0_0029E       13972                       UNTIL SORTED,END
 DROP   SYMBOL,R4                  13995                       DROP  SYMBOL
 0001A4 18D8/58E0 D000_            14003              INITNOTB XEXIT
 DROP   *,R7                       14008                       DROP  BR
1FAIL     (FAIL2025) (12:44) (15MAR04) WYLBUR's Dump Formatter                                                              Page   12
0Current Usings:  (CP,R11) (CV,R12)
0Loc    Object Code    Addr1 Addr2  Stmt Lv Lineno    Source Statement           (Hibal 5, Asmedit 3.3)  HLASM R4.0  2004/03/15 12.44
+___    ______ ____    _____ _____  ____ __ ______    ______ _________
0                                  14016              ¿þþþþþþþþþþþþþþþþþþþþþþþþþþþþþþþþþþþþþþþþþþþþþþþþþþþþþþþþþþþþþþþþþþþþþÜ
                                   14017              Ÿ                                                                     Ÿ
                                   14018              Ÿ  SYMINIT is called at initialization to fill in symbol table        Ÿ
                                   14019              Ÿ  Entries whose addresses were not available earlier.  An example    Ÿ
                                   14020              Ÿ  of this would be WVOL (which is LOADed).                           Ÿ
                                   14021              Ÿ                                                                     Ÿ
                                                      ¾þþþþþþþþþþþþþþþþþþþþþþþþþþþþþþþþþþþþþþþþþþþþþþþþþþþþþþþþþþþþþþþþþþþþþ»
00001B0 50E0 D000/9028_      00000 14022              SYMINIT  XENTER
 USING  *,R7
 0001CA 4110 70C2/4100_      0028C 14041                       SYMINIT WVOL,CVVOLIST     Initialize WVOL entry
                                   14053              *
                                   14054              *  The symbol table must now be re-sorted.  Earlier sorting still
                                   14055              *  necessary in case of fail in init.
 0001DA 5860 70BE/1266_      00288 14056                       IF    ('LT R6,=A(SYMBOLS)',NZ),BEGIN
 0001E4                            14072  1                      LOOP  BEGIN
 0001E4 9680 70D4      0029E       14078  2                        SET   SORTED              Assume sorted data
 0001E8 1856                       14084  2                        LR    R5,R6               R5-->Symbols
 USING  SYMBOL,R5                  14085  2                        USING SYMBOL,R5
 0001EA                            14094  2                        LOOP  BEGIN
 0001EA D502 5001 5011_00001 00011 14100  3                          IF    (SYMADDR,GT,.SYMNEXT+(SYMADDR-SYMBOL)),BEGIN
 0001F4 D70F 5000 5010_00000 00010 14117  4                            FLIP  (SYMBOL,SYMNEXT)    Fire burn and cauldron bubble
 000206 947F 70D4      0029E       14124  4                            CLEAR SORTED              Not done yet
 00020A                            14131  3                          END
 00020A 4150 5010            00010 14135  3                          LA    R5,SYMNEXT          R5-->Next entry
 00020E 95FF 5000/4770_00000       14136  2                        UNTIL SYMFEND,END         Do whole table...
 000216 9180 70D4/47E0_0029E       14159  1                      UNTIL SORTED,END          ...until a pass where no changes
 DROP   SYMBOL,R5                  14182  1                      DROP  SYMBOL
                                   14190  1           *
                                   14191  1           *  If now any entries have no addresses, complain
 USING  SYMBOL,R6                  14192  1                      WITH  (SYMBOL,R6),BEGIN   R6 still points to symbol
 00021E D602 6001 6001_00001 00001 14206  2                        WHILE (SYMADDR,Z),BEGIN
 000228 D207 70A8 6008 00272 00008 14224  3                          MVC   NOSYM(8),SYMNAME
 00022E 4110 70A8/4100_      00272 14225  3                          TSEG  NOSYM               Log it
 000240 1B00/58F0 C748_            14253  3                          XWTO
 00024C 4160 6010            00010 14276  3                          LA    R6,SYMNEXT          R6-->Next entry
 000250 47F0 7054            0021E 14277  2                        END
 DROP   SYMBOL,R6                  14282  1                      END
 000254                            14290                       END
 000254 18D8/58E0 D000_            14294                       XEXIT
 000260                            14299              SYMINITA LABEL ,
 000260 183E                       14301                       LR    R3,RAR              Save return
 000262 58E0 70CE/0DEE_      00298 14302                       IF    ('ACALL FINDSYM',NZ),'ST3 R2,@R15+1'
 000270 07F3                       14325                       BR    R3
                                   14326
 000272 6F40404040404040           14327              NOSYMM   DC    CL8'?',C' was not found'
                                   14328              NOSYM    EQU   NOSYMM,*-NOSYMM
                                   14329
                                   14330                       QLTORG
 DROP   *,R7                       14348                       DROP  BR
1FAIL     (FAIL2025) (12:44) (15MAR04) WYLBUR's Dump Formatter                                                              Page   13
0Current Usings:  (CP,R11) (CV,R12)
0Loc    Object Code    Addr1 Addr2  Stmt Lv Lineno    Source Statement           (Hibal 5, Asmedit 3.3)  HLASM R4.0  2004/03/15 12.44
+___    ______ ____    _____ _____  ____ __ ______    ______ _________
0                                  14356              ***
                                   14357              ***  WTO Seg Control Block.
                                   14358              ***    (Pointed to by CVWTOSEG.  See XWTO macro.)
                                   14359              ***
                                   14360                       ENTRY WTOSG
 0002A0 00/00/0000/00000_          14361              WTOSG    SEGCB WTOSGBUF,,RTN=XWTORTN
 WTOSGCOD.WTOSGSEG 01 EQ
 WTOSGCOD.WTOSGWR  02 EQ
 WTOSGCOD.WTOSGCLR 03 EQ
 WTOSGCOD.WTOSGSPP 04 EQ
 WTOSGCOD.WTOSGOVF 05 EQ
 WTOSGCOD.WTOSGCR  06 EQ
 WTOSGCOD.WTOSGMAR 07 EQ
                                   14449
 0002DC                            14450              WTOSGBUF DS    CL80                WTO seg buffer
1FAIL     (FAIL2025) (12:44) (15MAR04) WYLBUR's Dump Formatter                                                              Page   14
0Current Usings:  (CP,R11) (CV,R12)
0Loc    Object Code    Addr1 Addr2  Stmt Lv Lineno    Source Statement           (Hibal 5, Asmedit 3.3)  HLASM R4.0  2004/03/15 12.44
+___    ______ ____    _____ _____  ____ __ ______    ______ _________
0                                  14452              ¿þþþþþþþþþþþþþþþþþþþþþþþþþþþþþþþþþþþþþþþþþþþþþþþþþþþþþþþþþþþþþþþþþþþþþÜ
                                   14453              Ÿ                                                                     Ÿ
                                   14454              Ÿ  XWTORTN -- Routine to do WTOs.  This routine is entered as a       Ÿ
                                   14455              Ÿ    SEG exit routine, with the SEGCB containing a flag indicating    Ÿ
                                   14456              Ÿ    what kind of action is desired.                                  Ÿ
                                   14457              Ÿ                                                                     Ÿ
                                   14458              Ÿ    On entry:                                                        Ÿ
                                   14459              Ÿ      R15 - SEGCB ptr                                                Ÿ
                                   14460              Ÿ                                                                     Ÿ
                                                      ¾þþþþþþþþþþþþþþþþþþþþþþþþþþþþþþþþþþþþþþþþþþþþþþþþþþþþþþþþþþþþþþþþþþþþþ»
0000000                00000 000C0 14461              XWTOWA   RECORD BEGIN
                                   14469  1           XWTOS      SEGCB
 000000 00                         14470  1 01-SEGCB +$$$SEGCB84   DS  0F
 XWTOSCOD.XWTOSSEG 01 EQ
 XWTOSCOD.XWTOSWR  02 EQ
 XWTOSCOD.XWTOSCLR 03 EQ
 XWTOSCOD.XWTOSSPP 04 EQ
 XWTOSCOD.XWTOSOVF 05 EQ
 XWTOSCOD.XWTOSCR  06 EQ
 XWTOSCOD.XWTOSMAR 07 EQ
 000001 00                         14545  1 01-SEGCB +           DC    X'00'               Reserved
 000002 0000                              1          +
 000004 00000000                   14546  1 01-SEGCB +XWTOSMAXF   DC   A(0)                Maximum buffer length
 000008 00000000                   14547  1 01-SEGCB +XWTOSMRKF   DC   A(0)                Length at last mark
 00000C 00000000                   14548  1 01-SEGCB +XWTOSLENF   DC   A(0)                Current length
 000010 00000000                   14549  1 01-SEGCB +XWTOSINDF   DC   A(0)                Overflow/indent count
 000014 00000000                   14550  1 01-SEGCB +XWTOSERR   DC    A(0)                Address of error recovery routine
 000018 0000000000000000           14551  1 01-SEGCB +           DC    2F'0'               Reserved
 000020 00000000                   14552  1 01-SEGCB +XWTOSLOC   DC    A(0)                Location of buffer
 000024 00000000                   14553  1 01-SEGCB +XWTOSRTN   DC    A(0)                Processing routine
 000028 0000000000000000           14554  1 01-SEGCB +           DC    4F'0'               Reserved
 000038 00000000                   14555  1 01-SEGCB +XWTOSUSR   DC    A(0)                USER field
                                   14556  1 01-SEGCB +XWTOS      EQU   $$$SEGCB84,*-$$$SEGCB84,C'X'
                                   14557  1
 00003C                            14558  1           XWTOWORK   DS    F                   Working fullword
                                   14559  1
 000040                            14560  1                      DS    0F
 000040                            14561  1           XWTOPAD    DS    F                   Padder
 000044                            14562  1           XWTOHDR    DS    H                   MCS header (length)
 000046                            14563  1           XWTOMCS    DS    H                   MCS flags
 000048                00048 00040 14564  1                      ORG   XWTOPAD
 000040                            14565  1                      DS    H                   Padder
 000042                            14566  1           XWTOPARM   DS    X                   MILSERV: Must be zero
 000043                            14567  1           XWTOACCT   DS    CL5                 MILSERV: Account (uuugg)
                                   14568  1           XWTOPFX    EQU   XWTOPARM,*-XWTOPARM,C'X'
 000048                00048 00048 14569  1                      ORG
 000048                            14570  1           XWTOSBUF   DS    CL120               Work buffer
 0000C0                000C0 000C0 14571                       END
                                   14580              þþþþ
 00032C 50E0 D000/9008_      00000 14581              XWTORTN  PROC  XWTOWA
 USING  *,R7
 USING  XWTOWA-(4+36),R8
                                   14631
1FAIL     (FAIL2025) (12:44) (15MAR04) WYLBUR's Dump Formatter                                                              Page   15
0Current Usings:  (*,R7) (XWTOWA-(4+36),R8) (CP,R11) (CV,R12)
0Loc    Object Code    Addr1 Addr2  Stmt Lv Lineno    Source Statement           (Hibal 5, Asmedit 3.3)  HLASM R4.0  2004/03/15 12.44
+___    ______ ____    _____ _____  ____ __ ______    ______ _________
0000346 186F                       14632                       LR    R6,R15
 USING  SEGCB,R6                   14633                       WITH  (SEGCB,R6)
                                   14646                       ¿þþþþþþþþþþþþþþþþÜ
                                   14647                       Ÿ  SEGCR/SEGWR.  Ÿ
                                   14648                       ¾þþþþþþþþþþþþþþþþ»
 000348 9506 6000/4780_00000       14649                       IF    (SEGCBCR,OR,SEGCBWR),BEGIN  Write...
                                   14678  1                      ¿þþþþþþþþþþþÜ
                                   14679  1                      Ÿ  Do WTO.  Ÿ
                                   14680  1                      ¾þþþþþþþþþþþ»
 000358 D703 C730 C730 00730 00730 14681  1                      CLEAR CVWTOLID            Reset WTO id
                                   14688  1
 00035E 4110 8070/4100_      00048 14689  1                      SEGINIT XWTOSBUF,,XWTOS
 000370 9140 C4CB/4710_004CB       14716  1                      IF    ~CVWTOFNOPFX,BEGIN  Prefix is OK...
 000378 9120 C4CB/47E0_004CB       14731  2                        IF    CVWTOFUPFX,BEGIN    User prefix...
 000380 4110 744C/4100_      00792 14746  3                          SEG   'Line '
 000392 5820 C1C8            001C8 14763  3                          L     R2,CVCURJCB
 000396 4810 2048/1B00_      00048 14764  3                          WITH  (JCB,R2),'SEGDC LH:JCBSEQ; SEG " "'
 USING  JCB,R2
 DROP   JCB,R2
 0003B8 4110 B3B7/4100_      003B7 14824  3                          SEG   CPSGRP
 0003CA 4110 7452/4100_      00798 14851  3                          SEG   '.'
 0003DC 4110 B3B4/4100_      003B4 14868  3                          SEG   CPSUSER
 0003EE 4110 742E/4100_      00774 14895  3                          SEG   ': '
 000400                            14912  2                        END
                                   14916  2
 000400 70BE/47F0 70F4 00400 0037E 14917  2                        ELSE  BEGIN               Wylbur prefix...
 000404 4110 73FE/4100_      00744 14928  3                          SEG   '*** '
 000416 4110 C028/4100_      00028 14945  3                          SEGTB CVWYLSSN            (WYLBUR)
 000428 4110 73FE/4100_      00744 14973  3                          SEG   '*** '
 00043A                            14990  2                        END
 00043A                            14994  1                      END
                                   14998  1
 00043A 5810 6020/5800_      00020 14999  1                      SEGT  L:SEGCBLOC,L:SEGCBLENF  Message text
                                   15025  1
 00044C D203 8064 740A 0003C 00750 15026  1                      MVC   XWTOWORK,=X'00004000'  Routcde=2
                                   15027  1           **       IF    CVFTEST,'MVC XWTOWORK,=X"00000020"'      Rout=11
 000452 9180 C4CB/47E0_004CB       15028  1                      IF    CVWTOFWTL,'MVC XWTOWORK,=X"00000020"'    WTL
 000460 9110 C4CB/47E0_004CB       15049  1                      IF    CVWTOFACTION,'MVC XWTOWORK,=X"80004000"' Desc=1
 00046E D501 7430 8066_00776 0003E 15070  1                      IF    (XWTOWORK+2,EQ,=X'4000'),BEGIN  Change routes...
 000478 9108 C4CB/47E0_004CB       15087  2                        IF    CVWTOFTAPE,'MVC XWTOWORK+2(2),=X"2000"'  Rout=3
 000486                            15108  1                      END
 000486 4110 8064/4100_      0003C 15112  1                      SEG   XWTOWORK            Add MCS suffix
                                   15139  1
 000498 58F0 8034            0000C 15140  1                      L     R15,XWTOSLENF       Total text length
 00049C 40F0 806C            00044 15141  1                      STH   R15,XWTOHDR         Save length in MCS header
 0004A0 D201 806E 7434 00046 0077A 15142  1                      MVC   XWTOMCS,=X'8000'    MCS flags (rout suffix present)
                                   15143  1
 0004A6 4110 806C            00044 15144  1                      LA    R1,XWTOHDR
 0004AA 0A23                       15145  1                      WTO   MF=(E,(1))          Do WTO
 0004AC 5010 C730            00730 15148  1                      ST    R1,CVWTOLID         Save WTO id
1FAIL     (FAIL2025) (12:44) (15MAR04) WYLBUR's Dump Formatter                                                              Page   16
0Current Usings:  (SEGCB,R6) (*,R7) (XWTOWA-(4+36),R8) (CP,R11) (CV,R12)
0Loc    Object Code    Addr1 Addr2  Stmt Lv Lineno    Source Statement           (Hibal 5, Asmedit 3.3)  HLASM R4.0  2004/03/15 12.44
+___    ______ ____    _____ _____  ____ __ ______    ______ _________
0                                  15149  1                      ¿þþþþþþþþþþþþþþþþþþþþþþþþþþþþþþþþþþþþþþþþþÜ
                                   15150  1                      Ÿ  Do MILSERV NOTIFY (for test systems).  Ÿ
                                   15151  1                      ¾þþþþþþþþþþþþþþþþþþþþþþþþþþþþþþþþþþþþþþþþþ»
 0004B0 D604 C061 C061_00061 00061 15152  1                      IF    (CVNOTIFY,NZ),BEGIN  We have an account to notify...
 0004BA 9180 C4CB/4710_004CB       15168  2                        IF    CVWTOFWTL,EXIT      Just a WTL, forget it
                                   15186  2
 0004C2 41F0 8028/58E0_      00000 15187  2                        SEGCLR
 0004CC 4110 7453/4100_      00799 15200  2                        SEG   'From '
 0004DE 4110 C028/4100_      00028 15217  2                        SEGT  CVWYLSSN            (WYLBUR)
 0004F0 4110 742E/4100_      00774 15245  2                        SEG   ': '
 000502 5810 6020/5800_      00020 15262  2                        SEGT  L:SEGCBLOC,L:SEGCBLENF  Message text
                                   15288  2
 000514 9200 806A      00042       15289  2                        CLEAR XWTOPARM            Clear MILSERV parm
 000518 D204 806B C061 00043 00061 15296  2                        MVC   XWTOACCT,CVNOTIFY   Set notification account
 00051E 4100 0006            00006 15297  2                        LA    R0,L'XWTOPFX        MILSERV prefix
 000522 5A00 8034            0000C 15298  2                        A     R0,XWTOSLENF        Total MILSERV parm length
                                   15299  2
 000526 4110 806A/41F0_      00042 15300  2                        MILSERV XWTOPARM,(R0),LA:2  Send message to the owner
 000532                            15321  1                      END
 000532                            15325                       END
                                   15329
 000532 18D8/9808 D004_            15330                       PEND
 DROP   SEGCB,R6
 DROP   XWTOWA-(4+36),R8
 DROP   *,R7
1FAIL     (FAIL2025) (12:44) (15MAR04) WYLBUR's Dump Formatter                                                              Page   17
0Current Usings:  (CP,R11) (CV,R12)
0Loc    Object Code    Addr1 Addr2  Stmt Lv Lineno    Source Statement           (Hibal 5, Asmedit 3.3)  HLASM R4.0  2004/03/15 12.44
+___    ______ ____    _____ _____  ____ __ ______    ______ _________
0                                  15361              ¿þþþþþþþþþþþþþþþþþþþþþþþþþþþþþþþþþþþþþþþþþþþþþþþþþþþþþþþþþþþþþþþþþþþþþÜ
                                   15362              Ÿ                                                                     Ÿ
                                   15363              Ÿ  TRC -- Trace routine.  Normally invoked by XTRACE macro.           Ÿ
                                   15364              Ÿ    non-standard linkage conventions allow us to do the trace        Ÿ
                                   15365              Ÿ    without altering the contents of any registers.  (See CV         Ÿ
                                   15366              Ÿ    brancher CVTRC).                                                 Ÿ
                                   15367              Ÿ                                                                     Ÿ
                                                      ¾þþþþþþþþþþþþþþþþþþþþþþþþþþþþþþþþþþþþþþþþþþþþþþþþþþþþþþþþþþþþþþþþþþþþþ»
-                                  15369                       ENTRY TRC
 000540 0D70                       15370              TRC      BASE
 USING  *,R7
                                   15384                       ¿þþþþþþþþþþþþþþþþþþþþþþþþþþþþþþþþþþþþþþþþþþþþþþþþþþþþþþþþþÜ
                                   15385                       Ÿ  Call DEBUG trace routine before FAIL processes trace.  Ÿ
                                   15386                       ¾þþþþþþþþþþþþþþþþþþþþþþþþþþþþþþþþþþþþþþþþþþþþþþþþþþþþþþþþþ»
 000542 58E0 721E/0DEE       00760 15387                       VCALL TRAPTRC             Call DEBUG trace routine
                                   15391
 000548 5850 C7B0            007B0 15392                       L     R5,CVLNKRTN         Return address
 00054C 1835                       15393                       LR    R3,R5               Save for later
 USING  TP,R5                      15394                       USING TP,R5
 00054E 4110 500C            0000C 15403                       LA    R1,TPEND            Return addr (past inline data)
 000552 9150 5000/47E0_00000       15404                       IF    TPFKAPUT*TPFMSG,'LA R1,TPENDK'  adjust if kaput msg
 00055E 5010 C7B0            007B0 15428                       ST    R1,CVLNKRTN         Save real return addr
 000562 9180 C4C5/47E0_004C5       15429                       IF    CVFTRC,BEGIN        Do if trace table enabled...
                                   15444  1                      ¿þþþþþþþþþþþþþþþþþþþþþþþþþþþþþþþþþþþþþþþþþþþþþþþþþþþþþþþþÜ
                                   15445  1                      Ÿ  Make sure it's the mother task that is being traced.  Ÿ
                                   15446  1                      ¾þþþþþþþþþþþþþþþþþþþþþþþþþþþþþþþþþþþþþþþþþþþþþþþþþþþþþþþþ»
 00056A 58F0 0010            00010 15447  1                      L     R15,CVTPTR
 00056E 58F0 F000            00000 15448  1                      WITH  (CVT,R15),'L R15,CVTTCBP'  TCB words
 USING  CVT,R15
 DROP   CVT,R15
 000572 58F0 F004            00004 15472  1                      L     R15,@R15+4          Our TCB ptr
 000576 59F0 C73C/4780_      0073C 15473  1                      IF    (R15,NE,CVTCBP),BEGIN
 00057E 58F0 C79C            0079C 15490  2                        L     R15,CVLNKRGS+(R7*4)
 000582                            15491  1                      END
                                   15495  1
 000582 5840 7262/1244_      007A4 15496  1                      IF    ('LT R4,TRCNEXT',Z),EXIT  exit if no entries
 USING  TRE,R4                     15515  1                      WITH  (TRE,R4)
 00058C D757 4000 4000 00000 00000 15528  1                      CLEAR TRE                 Init to zero
 000592 9680 4008      00008       15535  1                      SET   TREFDEF             Trace entry defined
 000596 D207 4000 5004 00000 00004 15541  1                      MVC   TRENAME,TPNAME      Id
 00059C D201 400A 5002 0000A 00002 15542  1                      MVC   TRERGMSK,TPRGMSK    Save register print mask
 0005A2 D23F 400C C780 0000C 00780 15543  1                      MVC   TREREGS(16*4),CVLNKRGS  save registers
 0005A8 D507 71AE 5004_006F0 00004 15544  1                      IF    (TPNAME,EQ,'ENTRY   '),BEGIN
 0005B2 9640 4008      00008       15561  2                        SET   TREFENTR            Enter type entry
 0005B6 5830 4028            00028 15567  2                        L     R3,TREENTR          Use this as callers addr
 0005BA 9500 4028/4770_00028       15568  2                        IF    (TRELAT,NZ),EXIT    don't have routine name
 0005C2 58F0 4028            00028 15587  2                        L     R15,TREENTR         Entry addr
 0005C6 4BF0 723A            0077C 15588  2                        SH    R15,=H'8'           minus eight for caller's name
 0005CA D207 4000 F000 00000 00000 15589  2                        MVC   TRENAME,@R15        Save that as trace name
 0005D0                            15590  1                      END
 0005D0 7092/47F0 70FA_005D0 005B0 15594  1                      ELSEIF (TPNAME,EQ,'PGMCHK'),BEGIN  ESPIE program check...
 0005DE 5820 4010            00010 15620  2                        L     R2,TREREGS+(R1*4)   R1 on entry to XTRACE is EPIE
1FAIL     (FAIL2025) (12:44) (15MAR04) WYLBUR's Dump Formatter                                                              Page   18
0Current Usings:  (EPIE,R2) (TRE,R4) (TP,R5) (*,R7) (CP,R11) (CV,R12)
0Loc    Object Code    Addr1 Addr2  Stmt Lv Lineno    Source Statement           (Hibal 5, Asmedit 3.3)  HLASM R4.0  2004/03/15 12.44
+___    ______ ____    _____ _____  ____ __ ______    ______ _________
0USING  EPIE,R2                    15621  2                        WITH  (EPIE,R2)
 0005E2 5830 204C            0004C 15634  2                        L     R3,EPIEIA           Right half of PSW
 0005E6 D23F 400C 2008 0000C 00008 15635  2                        MVC   TREREGS(16*4),EPIEREGS  Restore all regs
 0005EC D207 4000 71B6 00000 006F8 15636  2                        MVC   TRENAME,=CL8'S0C?'  OS style
 0005F2 48F0 2052            00052 15637  2                        LH    R15,EPIEIC          Int code
 0005F6 54F0 7222            00764 15638  2                        N     R15,=XL4'F'         Isolate
 0005FA 42F0 4003            00003 15639  2                        STC   R15,TRENAME+3
 0005FE 96F0 4003      00003       15640  2                        OI    TRENAME+3,C'0'      Make it printable
                                   15641  2
 000602 0700/0ADE/010E_            15642  2                        QSNAP 'Program check.'
 00060C 0ADE/0104/4100_            15647  2                        QSNAP 'S0Cx'
 000614 0ADE/081000004_            15652  2                        QSNAP TRENAME             S0Cx
 00061C 0ADE/0120/4100_            15656  2                        QSNAP 'PSW instruction address xxxxxxxx'
 000624 0ADE/020100/30_            15661  2                        QSNAP (R3)                PSW ia
 00062C 0ADE/0110/4100_            15666  2                        QSNAP 'Registers R0-R15'
 000634 0ADE/084000004_            15671  2                        QSNAP TREREGS,64
 DROP   EPIE,R2                    15675  1                      END
                                   15684  1
 00063C 5030 403C            0003C 15685  1                      ST    R3,TREADDR          Adjust
 000640 9180 5000/47E0_00000       15686  1                      IF    TPFDATA,BEGIN       Do if trace data...
 000648 9620 4008      00008       15701  2                        SET   TREFDATA            Indicate data present
 00064C D207 4050 C7C0 00050 007C0 15707  2                        MVC   TREDATA,CVTRCDAT    Move in data
 000652                            15708  1                      END
 000652 9140 5000/47E0_00000       15712  1                      IF    TPFKAPUT,BEGIN      Save off stuff if kaput call
 00065A D207 7274 4000 007B6 00000 15727  2                        MVC   KAPCODE,TRENAME     Kaput id
 000660 5030 7286            007C8 15728  2                        ST    R3,KAPRTN           Calling addr
 000664 D23F 728A 400C 007CC 0000C 15729  2                        MVC   KAPREGS(16*4),TREREGS  Save a copy of gprs
 00066A D701 400A 400A 0000A 0000A 15730  2                        CLEAR TRERGMSK
 000670                            15737  1                      END
                                   15741  1
 000670 41F0 4058            00058 15742  1                      LA    R15,TRENEXT         Addr of next entry
 000674 59F0 726A/4750_      007AC 15743  1                      IF    (R15,GE,TRCEND),'L R15,TRCSTRT'  Reset to top
 000680 50F0 7262            007A4 15766  1                      ST    R15,TRCNEXT         Update ptr
 DROP   TRE,R4                     15767                       END
                                   15776                       ¿þþþþþþþþþþþþþþþþþþþÜ
                                   15777                       Ÿ  Standard return  Ÿ
                                   15778                       ¾þþþþþþþþþþþþþþþþþþþ»
 000684 9140 5000/47E0_00000       15779                       IF    ~TPFKAPUT,CVEXIT    Return if not a kaput call
                                   15797                       ¿þþþþþþþþþþþþþþþþþþþþÜ
                                   15798                       Ÿ  KAPUT abend exit  Ÿ
                                   15799                       ¾þþþþþþþþþþþþþþþþþþþþ»
 00068C 96F0 C751      00751       15800                       SET   CVENTOFF
 000690 D204 726F 725C 007B1 0079E 15806                       MVC   KAPTEXT,=C'Kaput'
 000696 D703 727E 727E 007C0 007C0 15807                       CLEAR KAPMSG              No kaput msg
 00069C 9110 5000/47E0_00000       15814                       IF    TPFMSG,BEGIN        Do if msg text given...
 0006A4 1F11/BF17 500D_            15829  1                      SETMSG L3:TPMSGADR+1,LC:TPMSGLEN
 0006B0 9001 727E            007C0 15850  1                      STM   R0,R1,KAPMSG        Save msg ptrs
 0006B4                            15851                       END
 0006B4 9680 726E      007B0       15855                       SET   FKAPUT              Set kaput abend for later
 0006B8 4110 0001            00001 15861                       LA    R1,1                Abend code
 0006BC 9120 5000/47E0_00000       15862                       IF    TPFDUMP,'O R1,=A(X"80000000")'  Set for dump
 0006C8 9108 5000/47E0_00000       15883                       IF    TPFNREST,'O R1,=A(X"40000000")' Step abend--no restart
 0006D4 0ADE/0108/4100_            15904              ABEND    QSNAP 'Kaput...'
 0006DC 0ADE/081000005_            15909                       QSNAP TPNAME
1FAIL     (FAIL2025) (12:44) (15MAR04) WYLBUR's Dump Formatter                                                              Page   19
0Current Usings:  (TP,R5) (*,R7) (CP,R11) (CV,R12)
0Loc    Object Code    Addr1 Addr2  Stmt Lv Lineno    Source Statement           (Hibal 5, Asmedit 3.3)  HLASM R4.0  2004/03/15 12.44
+___    ______ ____    _____ _____  ____ __ ______    ______ _________
00006E4 0A0D                       15913                       ABEND (1)
 0006E6 47F0 7192            006D4 15918                       B     ABEND
 DROP   TP,R5                      15919                       DROP  TP,BR
 DROP   *,R7
                                   15933
                                   15934                       QLTORG
1FAIL     (FAIL2025) (12:44) (15MAR04) WYLBUR's Dump Formatter                                                              Page   20
0Current Usings:  (CP,R11) (CV,R12)
0Loc    Object Code    Addr1 Addr2  Stmt Lv Lineno    Source Statement           (Hibal 5, Asmedit 3.3)  HLASM R4.0  2004/03/15 12.44
+___    ______ ____    _____ _____  ____ __ ______    ______ _________
00007A4                            15979              TRCAREA  DS    0F
 0007A4 00000000                   15980              TRCNEXT  DC    A(*-*)              Next trace entry ptr
 0007A8 00000000                   15981              TRCSTRT  DC    A(*-*)              Trace table start ptr
 0007AC 00000000                   15982              TRCEND   DC    A(*-*)              Trace table end ptr
                                   15983
 0007B0 00                         15984              FLAGS    DC    X'00'
                                   15985              FKAPUT   EQU   FLAGS,X'80',1       - Kaput type abend
                                   15986
 0007B1                            15987              KAPTEXT  DS    CL5                 Kaput/Abend
 0007B6                            15988              KAPCODE  DS    CL8                 Kaput id
 0007C0                            15989              KAPMSG   DS    2F                  Kaput msg loc, len
 0007C8                            15990              KAPRTN   DS    A                   Addr of kaput call
 0007CC                            15991              KAPREGS  DS    16F                 Gprs at kaput call
1FAIL     (FAIL2025) (12:44) (15MAR04) WYLBUR's Dump Formatter                                                              Page   21
0Current Usings:  (CP,R11) (CV,R12)
0Loc    Object Code    Addr1 Addr2  Stmt Lv Lineno    Source Statement           (Hibal 5, Asmedit 3.3)  HLASM R4.0  2004/03/15 12.44
+___    ______ ____    _____ _____  ____ __ ______    ______ _________
0                                  15993              ¿þþþþþþþþþþþþþþþþþþþþþþþþþþþþþþþþþþþþþþþþþþþþþþþþþþþþþþþþþþþþþþþþþþþþþÜ
                                   15994              Ÿ                                                                     Ÿ
                                   15995              Ÿ  SHOWWLNS -- SHOW WLINE/WLINES command.                             Ÿ
                                   15996              Ÿ      (A non-priv'd version of SHOW WJCB).                           Ÿ
                                   15997              Ÿ                                                                     Ÿ
                                                      ¾þþþþþþþþþþþþþþþþþþþþþþþþþþþþþþþþþþþþþþþþþþþþþþþþþþþþþþþþþþþþþþþþþþþþþ»
0                                  15998                       ENTRY SHOWWLIN
 00080C 92E7 BD24      00D24       15999              SHOWWLIN MVI   CPCMNM,C'X'         Flag
                                   16000
 000810 50E0 D000/9008_      00000 16001              SHOWWLNS XPROC
 USING  *,R7
 00082A 1B55                       16041                       CLEAR R5                  Default is to show all lines
 00082C 5810 B08C/1B00_      0008C 16045                       SCAN  SHWLINP
 00087E 58E0 7526/0DEE       00D50 16077                       SCANCHK
                                   16082
 000884 95E7 BD24/4770_00D24       16083                       IF    ((CPCMNM,EQ,'X'),AND,(R5,Z)),BEGIN  Show my line...
 000892 5850 C1C8            001C8 16113  1                      L     R5,CVCURJCB
 000896                            16114                       END
                                   16118                       ¿þþþþþþþþþþþþþþþþþþþþþþþþÜ
                                   16119                       Ÿ  Show a specifc line.  Ÿ
                                   16120                       ¾þþþþþþþþþþþþþþþþþþþþþþþþ»
 000896 1255/4780 70B4             16121                       IF    (R5,NZ),BEGIN       Show JCB of specific line...
 USING  JCB,R5                     16135  1                      WITH  (JCB,R5)
 00089C 9180 5060/47E0_00060       16148  1                      IF    JCBWFSO,BEGIN
 0008A4 4110 75BE/4100_      00DE8 16163  2                        TSEG  'Line '
 0008B6 4810 5048/1B00_      00048 16181  2                        TNUM  LH:JCBSEQ
 0008C6 4110 7574/4100_      00D9E 16202  2                        SETMSG ' is not logged on.'
 0008CE 47F0 C7D0            007D0 16206  2                        B     CVNXTMSG
 0008D2                            16207  1                      END
 0008D2 1815                       16211  1                      LR    R1,R5               JCB addr
 0008D4 58E0 7532/0DEE       00D5C 16212  1                      ACALL WLINDISP
 0008DA 47F0 C7DE            007DE 16216  1                      B     CVNEXT
 DROP   JCB,R5                     16217                       END
                                   16226                       ¿þþþþþþþþþþþþþþþþþþþÜ
                                   16227                       Ÿ  Show all lines.  Ÿ
                                   16228                       ¾þþþþþþþþþþþþþþþþþþþ»
 0008DE 5820 C1C0            001C0 16229                       L     R2,CVFJCB
 0008E2                            16230                       LOOP  BEGIN
 USING  JCB,R2                     16236  1                      WITH  (JCB,R2)
 0008E2 D604 204A 204A_0004A 0004A 16249  1                      IF    (JCBACCT,NZ),BEGIN
 0008EC 1812                       16265  2                        LR    R1,R2
 0008EE 58E0 7532/0DEE       00D5C 16266  2                        ACALL WLINDISP            Display WLINE info
 0008F4 58E0 7536/0DEE_      00D60 16270  2                        IF    ('TSTAT',NZ),CVABORT
 0008FE                            16290  1                      END
 0008FE 4120 20D0            000D0 16294  1                      LA    R2,JCBNEXT
 000902 5920 C1C4/4750_      001C4 16295                       UNTIL (R2,GE,CVLJCB),END
 DROP   JCB,R2
 00090A 47F0 C7DE            007DE 16325                       B     CVNEXT
 00090E 18D8/9808 D004_            16326                       PEND
 DROP   *,R7
                                   16346
 00091C 4040404040404040_          16347              SHWLINP  SCKW  ,SHWLLNO,I,5000
 000944 4040404040404040_          16362                       SCKW  ,V(COLLPSH),PUSH
1FAIL     (FAIL2025) (12:44) (15MAR04) WYLBUR's Dump Formatter                                                              Page   22
0Current Usings:  (CP,R11) (CV,R12)
0Loc    Object Code    Addr1 Addr2  Stmt Lv Lineno    Source Statement           (Hibal 5, Asmedit 3.3)  HLASM R4.0  2004/03/15 12.44
+___    ______ ____    _____ _____  ____ __ ______    ______ _________
000096C 4040404040404040_          16377                       SCKW  ,V(NOTVALID)
                                   16392
 000994 50E0 D000/9008_      00000 16393              SHWLLNO  PROC
 USING  *,R7
 0009AE 4C00 7402            00DB0 16432                       MH    R0,=AL2(L'JCB)
 0009B2 5850 C1C0            001C0 16433                       L     R5,CVFJCB
 0009B6 1A50                       16434                       AR    R5,R0
 0009B8 5950 C1C4/4750_      001C4 16435                       IF    (R5,GE,CVLJCB),'VCALL NOTVALID'
 0009C6 5058 0018            00018 16461                       PRETURN (R5)
 0009CA 18D8/9808 D004_            16463                       PEND
 DROP   *,R7
1FAIL     (FAIL2025) (12:44) (15MAR04) WYLBUR's Dump Formatter                                                              Page   23
0Current Usings:  (CP,R11) (CV,R12)
0Loc    Object Code    Addr1 Addr2  Stmt Lv Lineno    Source Statement           (Hibal 5, Asmedit 3.3)  HLASM R4.0  2004/03/15 12.44
+___    ______ ____    _____ _____  ____ __ ______    ______ _________
0                                  16484              ¿þþþþþþþþþþþþþþþþþþþþþþþþþþþþþþþþþþþþþþþþþþþþþþþþþþþþþþþþþþþþþþþþþþþþþÜ
                                   16485              Ÿ                                                                     Ÿ
                                   16486              Ÿ  WLINDISP -- Routine to format Wylbur line info.                    Ÿ
                                   16487              Ÿ                                                                     Ÿ
                                   16488              Ÿ    On entry:                                                        Ÿ
                                   16489              Ÿ      R1 - JCB addr                                                  Ÿ
                                   16490              Ÿ                                                                     Ÿ
                                                      ¾þþþþþþþþþþþþþþþþþþþþþþþþþþþþþþþþþþþþþþþþþþþþþþþþþþþþþþþþþþþþþþþþþþþþþ»
00009D8 50E0 D000/9008_      00000 16491              WLINDISP PROC
 USING  *,R7
                                   16530                       SEGDEF CPSEG-CP(CPR)
                                   16531
 0009F2 1851                       16532                       LR    R5,R1
 USING  JCB,R5                     16533                       WITH  (JCB,R5)
 0009F4 9180 5060/4710_00060       16546                       IF    JCBWFSO,WLINEXIT    Skip logged off user
 0009FC 4110 7376/4100_      00D68 16564                       SEG   'Line'
 000A0E 4810 5048/4100_      00048 16581                       SEGDC LH:JCBSEQ,5
 000A20 D604 504A 504A_0004A 0004A 16604                       IF    (JCBACCT,NZ),BEGIN
 000A2A 4110 C4D8/4100_      004D8 16620  1                      SEG   CVBLANKS,1
 000A3C 4110 504D/4100_      0004D 16649  1                      SEG   JCBGRP
 000A4E 4110 73FB/4100_      00DED 16676  1                      SEG   '.'
 000A60 4110 504A/4100_      0004A 16693  1                      SEG   JCBUSER
 000A72                            16720                       END
                                   16724                       ¿þþþþþþþþþþþþþþþþþþþþþþþþþþþþþþþþþÜ
                                   16725                       Ÿ  Display CPU time used so far.  Ÿ
                                   16726                       ¾þþþþþþþþþþþþþþþþþþþþþþþþþþþþþþþþþ»
 000A72 5840 5014/1244_      00014 16727                       IF    ('LT R4,JCBCPX',POS),BEGIN  CP in core...
 DROP   CP,R11                     16743  1                      WITH  (CP,R4)
 USING  CP,R4
                                   16764  1
                                   16765  1                      SEGDEF CPSEG-CP(CPR)
 000A7C 4110 73C0/4100_      00DB2 16766  1                      SEG   '  CPU='
 000A8E 58F0 507C            0007C 16783  1                      L     R15,JCBWCPU         CPU time in tu's
                                   16784  1           *        IF    (R15,LGT,X'FFFFFFF'),BEGIN  Dangerously large...
                                   16785  1           *        SEG   '999999!!'
                                   16786  1           *        END
                                   16787  1           *
                                   16788  1           *        ELSE  BEGIN               Format CPU time...
 000A92 1BEE                       16789  1                      CLEAR R14
 000A94 5DE0 737A            00D6C 16793  1                      D     R14,=F'384'         Convert to .01 sec
 000A98 59E0 737E/4750_      00D70 16794  1                      IF    (R14,GE,384/2),'INCR R15'  Round
 000AA4 182D/41D0 D008             16819  1                      XPUSH ,,8,PTR=R2
 000AAA 4100 0802/1812_      00802 16822  1                      BTR   (R2),(8,2),(R15)
 000AB6 41FB 0050/58E0_      00050 16842  1                      SEG   (R1),(R0)
 000AC0 4BD0 73C6            00DB8 16865  1                      XPOP  ,,8
 000AC4 4110 73FC/4100_      00DEE 16867  1                      SEG   ' (unadjusted)'
                                   16884  1           *        END
                                   16885  1           *
 000AD6 4110 7409/4100_      00DFB 16886  1                      SEG   ', Commands='
 000AE8 5810 41E0/4100_      001E0 16903  1                      SEGDC L:CPNCOM,7
                                   16927  1
 000AFA 9180 4758/47E0_00758       16928  1                      IF    CPFEXEC,BEGIN  From exec file...
 000B02 4110 7414/4100_      00E06 16943  2                        SEG   ' (Running exec at line '
1FAIL     (FAIL2025) (12:44) (15MAR04) WYLBUR's Dump Formatter                                                              Page   24
0Current Usings:  (CP,R4) (JCB,R5) (*,R7) (CV,R12)
0Loc    Object Code    Addr1 Addr2  Stmt Lv Lineno    Source Statement           (Hibal 5, Asmedit 3.3)  HLASM R4.0  2004/03/15 12.44
+___    ______ ____    _____ _____  ____ __ ______    ______ _________
0000B14 5800 475C            0075C 16960  2                        L     R0,CPEXLINE         Current exec lineno
 000B18 58E0 738A/0DEE       00D7C 16961  2                        VCALL CVEXNO
 000B1E 41FB 0050/58E0_      00050 16965  2                        SEG   (R1),(R0)
 000B28 4110 742B/4100_      00E1D 16988  2                        SEG   ')'
 000B3A                            17005  1                      END
 USING  CP,R11                     17009                       END
 DROP   CP,R4
                                   17027
 000B3A 9102 5062/47E0_00062       17028                       IF    JCBFATTN,'SEG " (Attn)"'
 000B54 9140 5062/47E0_00062       17065                       IF    JCBFNATN,'SEG " (Attn disabled)"'
 000B6E 9108 5062/47E0_00062       17102                       IF    JCBFPATN,'SEG " (Pending Attn)"'
 000B88 9180 5062/47E0_00062       17139                       IF    JCBAFALO,'SEG " (Logging off)"'
 000BA2 9101 5060/47E0_00060       17176                       IF    JCBWFERR,'SEG " (Stopped)"'
                                   17213
 000BBC 5840 5008/1244_      00008 17214                       IF    ('LT R4,JCBDSPP',NZ),BEGIN
 000BC6 4110 738E/4100_      00D80 17230  1                      SEG   ' (Will release line '
 000BD8 48F0 4048            00048 17247  1                      WITH  (JCB,R4),'LH R15,JCBSEQ'
 DROP   JCB,R5
 USING  JCB,R4
 USING  JCB,R5
 DROP   JCB,R4
 000BDC 181F/1B00/41FB_            17288  1                      SEGDC (R15)
 000BEA 4110 742B/4100_      00E1D 17309  1                      SEG   ')'
 000BFC                            17326                       END
                                   17330
 000BFC 5840 C6D4            006D4 17331                       L     R4,CVFRSG           First rscgroup
 000C00 5940 C6E0/4730_      006E0 17332                       WHILE (R4,LE,CVRSG+8),BEGIN
 USING  RSCGROUP,R4                17351  1                      WITH  (RSCGROUP,R4)
 000C08 4130 4014            00014 17364  1                      LA    R3,RSGQACFW-(RSC@NEXT-RESOURCE)
 USING  RESOURCE,R3                17365  1                      WITH  (RESOURCE,R3),BEGIN
 000C0C 5930 4018/4780_      00018 17379  2           WLRSC        WHILE ('C R3,RSGQACBK',NE),BEGIN
 000C14 5830 3000            00000 17395  3                          L     R3,RSC@NEXT
 000C18 5950 3008/4770_      00008 17396  3                          IF    (R5,NE,RSC@JCB),NEXT
 000C20 4110 73E0/4100_      00DD2 17416  3                          SEG   ' ('
 000C32 4110 4000/4100_      00000 17433  3                          SEGT  RSGNAME
 000C44 4110 7442/4100_      00E34 17461  3                          SEG   ' owned)'
 000C56 47F0 726C            00C5E 17478  3                          EXIT  WLRSC
 000C5A 47F0 721A            00C0C 17481  2                        END
 DROP   RESOURCE,R3                17486  1                      END
 000C5E 4130 4030            00030 17494  1                      LA    R3,RSGQJCFW-(JCBQF-JCB)
 000C62 1B22                       17495  1                      CLEAR R2                  Position in queue
 DROP   JCB,R5                     17499  1                      WITH  (JCB,R3),BEGIN
 USING  JCB,R3
 000C64 5930 4034/4780_      00034 17521  2           WLTRSC       WHILE ('C R3,RSGQJCBK',NE),BEGIN
 000C6C 5830 3000            00000 17537  3                          L     R3,JCBQF
 000C70 4120 2001            00001 17538  3                          LA    R2,@R2+1
 000C74 1953/4770 7272             17539  3                          IF    (R5,NE,R3),NEXT
 000C7A 4110 73E2/4100_      00DD4 17557  3                          SEG   ' (Waiting for '
 000C8C 4110 4000/4100_      00000 17574  3                          SEGT  RSGNAME
 000C9E 4110 73F0/4100_      00DE2 17602  3                          SEG   ', pos '
 000CB0 1812/1B00/41FB_            17619  3                          SEGDC (R2)
 000CBE 4110 742B/4100_      00E1D 17640  3                          SEG   ')'
 000CD0 47F0 72E6            00CD8 17657  3                          EXIT  WLTRSC
 000CD4 47F0 7272            00C64 17660  2                        END
1FAIL     (FAIL2025) (12:44) (15MAR04) WYLBUR's Dump Formatter                                                              Page   25
0Current Usings:  (RSCGROUP,R4) (JCB,R5) (*,R7) (CP,R11) (CV,R12)
0Loc    Object Code    Addr1 Addr2  Stmt Lv Lineno    Source Statement           (Hibal 5, Asmedit 3.3)  HLASM R4.0  2004/03/15 12.44
+___    ______ ____    _____ _____  ____ __ ______    ______ _________
0USING  JCB,R5                     17665  1                      END
 DROP   JCB,R3
 000CD8 5A40 C6DC            006DC 17682  1                      A     R4,CVRSG+4          Next rscgroup
 000CDC 47F0 720E            00C00 17683                       END
 DROP   RSCGROUP,R4
                                   17693
 000CE0 D601 5034 5034_00034 00034 17694                       IF    (JCBFCNT,NZ),BEGIN
 000CEA 4110 73E0/4100_      00DD2 17710  1                      SEG   ' ('
 000CFC 4810 5034/1B00_      00034 17727  1                      SEGDC LH:JCBFCNT
 000D0C 4110 7449/4100_      00E3B 17747  1                      SEG   ' failsofts)'
 000D1E                            17764                       END
                                   17768
 000D1E 1B00/41F0 B050_            17769                       TWRITE
                                   17794
 000D2A 18D8/9808 D004_            17795              WLINEXIT PEND
 DROP   JCB,R5
 DROP   *,R7
                                   17821
                                   17822                       SEGDEF DUMMY              (Neatness)
                                   17823
                                   17824                       QLTORG
1FAIL     (FAIL2025) (12:44) (15MAR04) WYLBUR's Dump Formatter                                                              Page   26
0Current Usings:  (CP,R11) (CV,R12)
0Loc    Object Code    Addr1 Addr2  Stmt Lv Lineno    Source Statement           (Hibal 5, Asmedit 3.3)  HLASM R4.0  2004/03/15 12.44
+___    ______ ____    _____ _____  ____ __ ______    ______ _________
0                                  17875              ¿þþþþþþþþþþþþþþþþþþþþþþþþþþþþþþþþþþþþþþþþþþþþþþþþþþþþþþþþþþþþþþþþþþþþþÜ
                                   17876              Ÿ                                                                     Ÿ
                                   17877              Ÿ  SHOWJCB -- SHOW WJCBS command  (priv'd).                           Ÿ
                                   17878              Ÿ                                                                     Ÿ
                                                      ¾þþþþþþþþþþþþþþþþþþþþþþþþþþþþþþþþþþþþþþþþþþþþþþþþþþþþþþþþþþþþþþþþþþþþþ»
0000E46 50E0 D000/9008_      00000 17879              SHOWJCB  XPROC
 USING  *,R7
 000E60 9120 B3BE/4710_003BE       17919                       IF    ~CPSFSPR,'VCALL NOTVALID'
 000E6E 1B55                       17943                       CLEAR R5                  Default is to show all JCBs
 000E70 5810 B08C/1B00_      0008C 17947                       SCAN  SHJCBPRT
 000EC2 58E0 7C54/0DEE       01AB4 17979                       SCANCHK
 000EC8 1255/4780 70B0             17984                       IF    (R5,NZ),BEGIN       Show JCB of specific line...
 USING  JCB,R5                     17998  1                      WITH  (JCB,R5)
 000ECE 9180 5060/47E0_00060       18011  1                      IF    JCBWFSO,BEGIN
 000ED6 4110 7D58/4100_      01BB8 18026  2                        TSEG  'Line '
 000EE8 4810 5048/1B00_      00048 18044  2                        TNUM  LH:JCBSEQ
 000EF8 4110 7CF2/4100_      01B52 18065  2                        SETMSG ' is not logged on.'
 000F00 47F0 C7D0            007D0 18069  2                        B     CVNXTMSG
 000F04                            18070  1                      END
 000F04 1815                       18074  1                      LR    R1,R5               JCB addr
 000F06 58E0 7C60/0DEE       01AC0 18075  1                      ACALL JCBDISP
 000F0C 47F0 C7DE            007DE 18079  1                      B     CVNEXT
 DROP   JCB,R5                     18080                       END
                                   18089
 000F10 5820 C1C0            001C0 18090                       L     R2,CVFJCB
 000F14                            18091                       LOOP  BEGIN
 USING  JCB,R2                     18097  1                      WITH  (JCB,R2)
 000F14 D604 204A 204A_0004A 0004A 18110  1                      IF    (JCBACCT,NZ),BEGIN
 000F1E 1812                       18126  2                        LR    R1,R2
 000F20 58E0 7C60/0DEE       01AC0 18127  2                        ACALL JCBDISP             Display JCB
 000F26 58E0 7C64/0DEE_      01AC4 18131  2                        IF    ('TSTAT',NZ),CVABORT
 000F30                            18151  1                      END
 000F30 4120 20D0            000D0 18155  1                      LA    R2,JCBNEXT
 000F34 5920 C1C4/4750_      001C4 18156                       UNTIL (R2,GE,CVLJCB),END
 DROP   JCB,R2
 000F3C 47F0 C7DE            007DE 18186                       B     CVNEXT
 000F40 18D8/9808 D004_            18187                       PEND
 DROP   *,R7
                                   18207
 000F50 4040404040404040_          18208              SHJCBPRT SCKW  ,SHJCBLNO,I,5000
 000F78 4040404040404040_          18223                       SCKW  ,V(COLLPSH),PUSH
 000FA0 4040404040404040_          18238                       SCKW  ,V(NOTVALID)
                                   18253
 000FC8 50E0 D000/9008_      00000 18254              SHJCBLNO PROC
 USING  *,R7
 000FE2 4C00 7B82            01B64 18293                       MH    R0,=AL2(L'JCB)
 000FE6 5850 C1C0            001C0 18294                       L     R5,CVFJCB
 000FEA 1A50                       18295                       AR    R5,R0
 000FEC 5950 C1C4/4750_      001C4 18296                       IF    (R5,GE,CVLJCB),'VCALL NOTVALID'
 000FFA 5058 0018            00018 18322                       PRETURN (R5)
 000FFE 18D8/9808 D004_            18324                       PEND
 DROP   *,R7
1FAIL     (FAIL2025) (12:44) (15MAR04) WYLBUR's Dump Formatter                                                              Page   27
0Current Usings:  (CP,R11) (CV,R12)
0Loc    Object Code    Addr1 Addr2  Stmt Lv Lineno    Source Statement           (Hibal 5, Asmedit 3.3)  HLASM R4.0  2004/03/15 12.44
+___    ______ ____    _____ _____  ____ __ ______    ______ _________
0                                  18345              ¿þþþþþþþþþþþþþþþþþþþþþþþþþþþþþþþþþþþþþþþþþþþþþþþþþþþþþþþþþþþþþþþþþþþþþÜ
                                   18346              Ÿ                                                                     Ÿ
                                   18347              Ÿ  WSTOP/WSTART -- WSTOP and WSTART Commands.                         Ÿ
                                   18348              Ÿ                                                                     Ÿ
                                                      ¾þþþþþþþþþþþþþþþþþþþþþþþþþþþþþþþþþþþþþþþþþþþþþþþþþþþþþþþþþþþþþþþþþþþþþ»
000100C 50E0 D000/9008_      00000 18349              WSTOP    XPROC
 USING  *,R7
 001026 92E7 BD24      00D24       18389                       MVI   CPCMNM,C'X'         X = Stop
 00102A 50E0 D000/9008_      00000 18390              WSTART   XPROC
 DROP   *,R7
 USING  *,R7
 001044 9120 B3BE/4710_003BE       18433                       IF    ~CPSFSPR,'VCALL NOTVALID'   Sorry
                                   18457
 001052 1B55                       18458                       CLEAR R5
 001054 5810 B08C/1B00_      0008C 18462                       SCAN  WSTPRT
 0010A6 58E0 7A70/0DEE       01AB4 18494                       SCANCHK
 0010AC 1255/4770 707A_            18499                       IF    (R5,Z),'ABORT "Missing session number."'
                                   18525
 USING  JCB,R4                     18526                       WITH  (JCB,R4),BEGIN
 0010BE 4110 7B74/4100_      01BB8 18540  1                      TSEG  'Line '
 0010D0 4810 4048/1B00_      00048 18558  1                      TNUM  LH:JCBSEQ
                                   18579  1
 0010E0 9180 4060/47E0_00060       18580  1                      IF    JCBWFSO,BEGIN       Not logged on...
 0010E8 4110 7B0E/4100_      01B52 18595  2                        ABORT ' is not logged on.'
 0010F4                            18602  1                      END
                                   18606  1
 0010F4 95E7 BD24/4770_00D24       18607  1                      IF    ((CPCMNM,EQ,'X'),AND,JCBWFERR),BEGIN
 001104 4110 7A88/4100_      01ACC 18638  2                        ABORT ' is already stopped.'
 001110                            18645  1                      END
                                   18649  1
 001110 95E7 BD24/4780_00D24       18650  1                      IF    ((CPCMNM,NE,'X'),AND,~JCBWFERR),BEGIN
 001120 4110 7B22/4100_      01B66 18681  2                        ABORT ' is not currently stopped.'
 00112C                            18688  1                      END
                                   18692  1
 00112C 4110 7B90/4100_      01BD4 18693  1                      TSEG  ' will be '
 00113E 4110 7A54/4100_      01A98 18711  1                      SETMSG 'stopped.'
 001146 95E7 BD24/4780_00D24       18715  1                      IF    (CPCMNM,NE,'X'),'SETMSG "started."'
 001156 41F0 B050/58E0_      00050 18741  1                      TSEG  (R1),(R0)
                                   18765  1                      ¿þþþþþþþþþþþþþþþþþþþþþþþþþþþþþþþþþþþþþÜ
                                   18766  1                      Ÿ  Stop user (at his next dispatch).  Ÿ
                                   18767  1                      ¾þþþþþþþþþþþþþþþþþþþþþþþþþþþþþþþþþþþþþ»
 001160 95E7 BD24/4770_00D24       18768  1                      IF    (CPCMNM,EQ,'X'),BEGIN  WSTOP...
 001168 9601 4060      00060       18785  2                        SET   JCBWFERR            Stop
 00116C                            18791  1                      END
                                   18795  1                      ¿þþþþþþþþþþþþþþþþþþþþþþþþþþþþþþþþþþÜ
                                   18796  1                      Ÿ  Start previously stopped user.  Ÿ
                                   18797  1                      ¾þþþþþþþþþþþþþþþþþþþþþþþþþþþþþþþþþþ»
 00116C 712C/47F0 7158 0116C 01166 18798  1                      ELSE  BEGIN
 001170 94FE 4060      00060       18809  2                        CLEAR JCBWFERR            Go go go
                                   18816  2
 001174 D601 4060 4060 00060 00060 18817  2                        OC    JCBWFL(JCBWFSIZ),JCBWFL  Dispatchable?
 00117A 4770 7158            0119C 18818  2                        IF    Z,BEGIN             Yes...
 00117E 9110 4062/4710_00062       18829  3                          IF    ~JCBAPDSP,'SETUP (R4)'  Queue for dispatching
1FAIL     (FAIL2025) (12:44) (15MAR04) WYLBUR's Dump Formatter                                                              Page   28
0Current Usings:  (JCB,R4) (*,R7) (CP,R11) (CV,R12)
0Loc    Object Code    Addr1 Addr2  Stmt Lv Lineno    Source Statement           (Hibal 5, Asmedit 3.3)  HLASM R4.0  2004/03/15 12.44
+___    ______ ____    _____ _____  ____ __ ______    ______ _________
000119C                            18875  2                        END
 00119C                            18879  1                      END
 DROP   JCB,R4                     18883                       END
                                   18891
 00119C 47F0 C7DE            007DE 18892                       B     CVNEXT
                                   18893              ***
                                   18894              ***  WSTOP/WSTART Options.
                                   18895              ***
 0011A0 4040404040404040_          18896              WSTPRT   SCKW  ,WSTJCBN,I,5000
 0011C8 4040404040404040_          18911                       SCKW  ,V(COLLPSH),PUSH
 0011F0 4040404040404040_          18926                       SCKW  ,V(NOTVALID)
                                   18941              *
                                   18942              *
 001218 50E0 D000/9008_      00000 18943              WSTJCBN  PROC
 DROP   *,R7
 USING  *,R7
 001232 1255/4780 700C_            18985                       IF    (R5,NZ),'VCALL NOTVALID'    Lineno already given
 00123E 1850                       19008                       LR    R5,R0
 001240 1840                       19009                       LR    R4,R0
 001242 4C40 7932            01B64 19010                       MH    R4,=AL2(L'JCB)
 001246 5A40 C1C0            001C0 19011                       A     R4,CVFJCB
 00124A 5940 C1C4/4750_      001C4 19012                       IF    (R4,GE,CVLJCB),'VCALL NOTVALID'  Scram
 001258 9045 8014            00014 19038                       PRETURN (R4,R5)
 00125C 18D8/9808 D004_            19040                       PEND
 DROP   *,R7
 USING  *,R7
                                   19067
1FAIL     (FAIL2025) (12:44) (15MAR04) WYLBUR's Dump Formatter                                                              Page   29
0Current Usings:  (*,R7) (CP,R11) (CV,R12)
0Loc    Object Code    Addr1 Addr2  Stmt Lv Lineno    Source Statement           (Hibal 5, Asmedit 3.3)  HLASM R4.0  2004/03/15 12.44
+___    ______ ____    _____ _____  ____ __ ______    ______ _________
0                                  19069              ¿þþþþþþþþþþþþþþþþþþþþþþþþþþþþþþþþþþþþþþþþþþþþþþþþþþþþþþþþþþþþþþþþþþþþþÜ
                                   19070              Ÿ                                                                     Ÿ
                                   19071              Ÿ  WSC -- WSC (Show Core) Command.  (Priv'd)                          Ÿ
                                   19072              Ÿ                                                                     Ÿ
                                                      ¾þþþþþþþþþþþþþþþþþþþþþþþþþþþþþþþþþþþþþþþþþþþþþþþþþþþþþþþþþþþþþþþþþþþþþ»
000126A 50E0 D000/9008_      00000 19073              WSC      XPROC
 DROP   *,R7
 USING  *,R7
 001284 9120 B3BE/4710_003BE       19116                       IF    ~CPSFSPR,'VCALL NOTVALID'
                                   19140
 001292 58E0 7860/0DEE       01AE4 19141                       ACALL WEXPR               Starting addr
 001298 182F                       19145                       LR    R2,R15
                                   19146
 00129A 4130 0040            00040 19147                       LA    R3,64               Default length
 00129E 5810 B08C/1B00_      0008C 19148                       SCAN
 0012EC 58E0 7830/0DEE       01AB4 19179                       SCANCHK
 0012F2 5810 B08C/4111_      0008C 19184                       SCUPTOK (R1)
 0012FA 1200/4780 708E             19188                       IF    (R0,NZ),BEGIN
 001300 58E0 7864/0DEE       01AE8 19202  1                      XTB   (R1),(R0)           Length
 001306 4780 708C/58E0_      01310 19217  1                      IF    NZ,'VCALL NOTVALID'
 001310 183F                       19237  1                      LR    R3,R15
 001312                            19238                       END
                                   19242
 001312 58E0 7868/0DEE       01AEC 19243                       VCALL COLLOPTS
                                   19247
 001318 1812/1803/1BFF_            19248                       TCORE (R2),(R3),NOADDR    Display memory
                                   19270
 001326 47F0 C7DE            007DE 19271                       B     CVNEXT
 DROP   *,R7                       19272                       DROP  BR
1FAIL     (FAIL2025) (12:44) (15MAR04) WYLBUR's Dump Formatter                                                              Page   30
0Current Usings:  (CP,R11) (CV,R12)
0Loc    Object Code    Addr1 Addr2  Stmt Lv Lineno    Source Statement           (Hibal 5, Asmedit 3.3)  HLASM R4.0  2004/03/15 12.44
+___    ______ ____    _____ _____  ____ __ ______    ______ _________
0000000                00000 001DD 19280              PATWA    RECORD BEGIN
 000000 00                         19288  1           PATFLAG    FLAG
 PATFLAG.PATFSYS   80 ONES         19292  1                      FLAG  PATFSYS             - SYSTEM option
                                   19297  1
 000002                            19298  1           PATTLEN    DS    H                   Length of replacement text
                                   19299  1           PATTEXT    DS    CL(&LINESZ)         Replacement text
 000004                                   1          +PATTEXT    DS    CL(235)             Replacement text
                                   19300  1
 0000F0                            19301  1           PATVLEN    DS    H                   Verification text length
                                   19302  1           PATVTXT    DS    CL(&LINESZ)         Verification text
 0000F2                                   1          +PATVTXT    DS    CL(235)             Verification text
 0001DD                001DD 001DD 19303                       END
-                                  19313              ¿þþþþþþþþþþþþþþþþþþþþþþþþþþþþþþþþþþþþþþþþþþþþþþþþþþþþþþþþþþþþþþþþþþþþþÜ
                                   19314              Ÿ                                                                     Ÿ
                                   19315              Ÿ  WPC -- WPC (Patch Core) Command.  (Priv'd)                         Ÿ
                                   19316              Ÿ                                                                     Ÿ
                                                      ¾þþþþþþþþþþþþþþþþþþþþþþþþþþþþþþþþþþþþþþþþþþþþþþþþþþþþþþþþþþþþþþþþþþþþþ»
000132A 50E0 D000/9008_      00000 19317              WPC      XPROC PATWA
 USING  *,R7
 USING  PATWA-(4+36),R8
 001344 4160 8028            00000 19368                       LA    R6,PATWA
 USING  PATWA,R6                   19369                       USING PATWA,R6
 001348 D7FF 6000 6000_00000 00000 19378                       CLEAR PATWA
 001354 9120 B3BE/4710_003BE       19386                       IF    ~CPSFSPR,'VCALL NOTVALID'
                                   19410
 001362 58E0 77A0/0DEE       01AE4 19411                       ACALL WEXPR               Patch addr
 001368 182F                       19415                       LR    R2,R15
                                   19416
 00136A 5810 B08C/1B00_      0008C 19417                       SCAN
 0013B8 58E0 7770/0DEE       01AB4 19448                       SCANCHK
 0013BE 5810 B08C/4111_      0008C 19453                       SCUPTOK (R1)
 0013C6 1200/4780 C7F0             19457                       IF    (R0,Z),CVABSENT
 0013CC 41F0 6004            00004 19474                       LA    R15,PATTEXT
 0013D0 58E0 77B0/0DEE       01AF4 19475                       VCALL DEQSTR              Deqoute text
 0013D6 47B0 70BA            013FE 19479                       IF    NEG,BEGIN           Not a string...
 0013DA 41F0 6004            00004 19490  1                      LA    R15,PATTEXT
 0013DE 58E0 77B4/0DEE       01AF8 19491  1                      VCALL HEXSTR              Check for hex
 0013E4 47B0 70BA            013FE 19495  1                      IF    NEG,BEGIN
 0013E8 41F0 B050/58E0_      00050 19506  2                        TSEG  (R1),(R0)
 0013F2 4110 77B8/4100_      01AFC 19530  2                        ERROR ': invalid hex digits'
 0013FE                            19537  1                      END
 0013FE                            19541                       END
 0013FE 5900 77CC/47D0_      01B10 19545                       CEIL  R0,L'PATTEXT
 00140A 4000 6002            00002 19564                       STH   R0,PATTLEN
                                   19565
 00140E 5810 B08C/1B00_      0008C 19566                       SCAN PATPRT
 001460 58E0 7770/0DEE       01AB4 19598                       SCANCHK
                                   19603
 001466 D203 C710 77D4 00710 01B18 19604                       MVC   CVSPIEAD,=A(PATBAD)
 00146C 48F0 6002            00002 19605                       LH    R15,PATTLEN         Original data
 001470 06F0/12FF/4740_            19606                       MOVE  R15,@R2,@R2         Force any program check
1FAIL     (FAIL2025) (12:44) (15MAR04) WYLBUR's Dump Formatter                                                              Page   31
0Current Usings:  (PATWA,R6) (*,R7) (PATWA-(4+36),R8) (CP,R11) (CV,R12)
0Loc    Object Code    Addr1 Addr2  Stmt Lv Lineno    Source Statement           (Hibal 5, Asmedit 3.3)  HLASM R4.0  2004/03/15 12.44
+___    ______ ____    _____ _____  ____ __ ______    ______ _________
0                                  19644
 00147C 4110 7899/4100_      01BDD 19645                       TSEG  'Old data was '
 00148E 1812/4800 6002             19663                       SETMSG (R2),LH:PATTLEN     Original data
 001494 4900 60F0/47B0_      000F0 19674                       FLOOR R0,PATVLEN
 0014A0 5900 77D8/47B0_      01B1C 19680                       FLOOR R0,4
 0014AC 41F0 0004            00004 19699                       LA    R15,4
 0014B0 58E0 77DC/0DEE       01B20 19700                       VCALL HEXFMT
                                   19704
 0014B6 48F0 60F0/12FF_      000F0 19705                       IF    ('LTH R15,PATVLEN',NZ),BEGIN
 0014C0 06F0/12FF/4740_            19721  1                      CMPR  R15,@R2,PATVTXT     Compare text
 0014CC 4780 7198/4110_      014DC 19759  1                      IF    NE,'ABORT "Verify failed."'
 0014DC                            19782                       END
                                   19786
 0014DC 9180 6000/4710_00000       19787                       IF    ~PATFSYS,BEGIN
 0014E4 4110 78A6/4100_      01BEA 19802  1                      SETMSG 'Patch'
 0014EC 58E0 77E0/0DEE       01B24 19806  1                      VCALL YESREQ
 0014F2                            19810                       END
                                   19814
 0014F2 48F0 6002/12FF_      00002 19815                       IF    ('LTH R15,PATTLEN',NZ),BEGIN
 0014FC 06F0/12FF/4740_            19831  1                      MOVE  R15,@R2,PATTEXT     Replace text
 001508                            19869                       END
                                   19873
 001508 D703 C710 C710 00710 00710 19874                       CLEAR CVSPIEAD
 00150E 4110 78AB/4100_      01BEF 19881                       SETMSG 'Done.'
 001516 47F0 C7D0            007D0 19885                       B     CVNXTMSG
 00151A 18D8/9808 D004_            19886                       PEND
 DROP   PATWA-(4+36),R8
 DROP   *,R7
                                   19911              *
                                   19912              *
                                   19913              *
 001528 E5C5D9C9C6E84040_          19914              PATPRT   SCKW  VERIFY,PATVER,(A,P)
 001550 E2E8E2E3C5D44040_          19929                       SCKW  SYSTEM,PATSYS,A
 001578 4040404040404040_          19944                       SCKW  ,V(COLLPSH),PUSH
 0015A0 4040404040404040_          19959                       SCKW  ,V(QUIETPSH),PUSH
 0015C8 4040404040404040_          19974                       SCKW  ,V(NOTVALID)
                                   19989              *
                                   19990              *
 0015F0 50E0 D000/9008_      00000 19991              PATSYS   PROC  ,
 USING  *,R7
 00160A 9680 6000      00000       20030                       SET   PATFSYS
 00160E 18D8/9808 D004_            20036                       PEND
 DROP   *,R7
                                   20056              *
                                   20057              *
 00161C 50E0 D000/9008_      00000 20058              PATVER   PROC
 USING  *,R7
 001636 41F0 60F2            000F2 20097                       LA    R15,PATVTXT
 00163A 58E0 74BE/0DEE       01AF4 20098                       VCALL DEQSTR              Dequote text
 001640 47B0 7032            01668 20102                       IF    NEG,BEGIN           Not a string...
 001644 41F0 60F2            000F2 20113  1                      LA    R15,PATVTXT
 001648 58E0 74C2/0DEE       01AF8 20114  1                      VCALL HEXSTR              Check for hex
 00164E 47B0 7032            01668 20118  1                      IF    NEG,BEGIN
 001652 41F0 B050/58E0_      00050 20129  2                        TSEG  (R1),(R0)
1FAIL     (FAIL2025) (12:44) (15MAR04) WYLBUR's Dump Formatter                                                              Page   32
0Current Usings:  (PATWA,R6) (*,R7) (CP,R11) (CV,R12)
0Loc    Object Code    Addr1 Addr2  Stmt Lv Lineno    Source Statement           (Hibal 5, Asmedit 3.3)  HLASM R4.0  2004/03/15 12.44
+___    ______ ____    _____ _____  ____ __ ______    ______ _________
000165C 4110 74C6/4100_      01AFC 20153  2                        ERROR ': invalid hex digits'
 001668                            20160  1                      END
 001668                            20164                       END
 001668 5900 74F2/47D0_      01B28 20168                       CEIL  R0,L'PATVTXT
 001674 4000 60F0            000F0 20187                       STH   R0,PATVLEN
 001678 18D8/9808 D004_            20188                       PEND
 DROP   *,R7
 DROP   PATWA,R6                   20208                       DROP  R6
                                   20215              *
                                   20216              *
 001686 0D70                       20217              PATBAD   BASE
 USING  *,R7
 001688 D603 B05C B05C_0005C 0005C 20231                       TCCR
 0016A8 1812/4100 0008_            20293                       THEX  (R2),8
 0016B8 4110 7506/4100_      01B8E 20318                       SETMSG ' is a bad address.'
 0016C0 47F0 C7D0            007D0 20322                       B     CVNXTMSG
1FAIL     (FAIL2025) (12:44) (15MAR04) WYLBUR's Dump Formatter                                                              Page   33
0Current Usings:  (*,R7) (CP,R11) (CV,R12)
0Loc    Object Code    Addr1 Addr2  Stmt Lv Lineno    Source Statement           (Hibal 5, Asmedit 3.3)  HLASM R4.0  2004/03/15 12.44
+___    ______ ____    _____ _____  ____ __ ______    ______ _________
0                                  20324              ¿þþþþþþþþþþþþþþþþþþþþþþþþþþþþþþþþþþþþþþþþþþþþþþþþþþþþþþþþþþþþþþþþþþþþþÜ
                                   20325              Ÿ                                                                     Ÿ
                                   20326              Ÿ  WEXPR -- Routine to scan an address expression.                    Ÿ
                                   20327              Ÿ                                                                     Ÿ
                                   20328              Ÿ    On exit:                                                         Ÿ
                                   20329              Ÿ      R15 - resulting address                                        Ÿ
                                   20330              Ÿ                                                                     Ÿ
                                                      ¾þþþþþþþþþþþþþþþþþþþþþþþþþþþþþþþþþþþþþþþþþþþþþþþþþþþþþþþþþþþþþþþþþþþþþ»
00016C4 50E0 D000/9008_      00000 20331              WEXPR    PROC
 DROP   *,R7
 USING  *,R7
 0016DE 5810 B08C/1B00_      0008C 20373                       SCAN
 00172C 58E0 73D6/0DEE       01AB4 20404                       SCANCHK
 001732 5810 B08C/4111_      0008C 20409                       SCUPTOK (R1)
 00173A 1200/4780 C7F0             20413                       IF    (R0,Z),CVABSENT
                                   20430
 001740 1831                       20431                       LR    R3,R1
 001742 1820                       20432                       LR    R2,R0
                                   20433
 001744 1B66                       20434                       CLEAR R6                  Assume +0
 001746 58E0 7456/0DEE_      01B34 20438                       IF    ('ACALL FINDSYM',NZ),BEGIN
 001750 1F66/BF67 F001             20454  1                      WITH  (SYMBOL,R15),'L3 R6,SYMADDR'  symbol's addr
 USING  SYMBOL,R15
 DROP   SYMBOL,R15
 001756 5810 B08C/1B00_      0008C 20485  1                      SCAN
 0017A4 58E0 73D6/0DEE       01AB4 20516  1                      SCANCHK
 0017AA 5900 745A/4770_      01B38 20521  1                      IF    ((R0,NE,1),OR,(@R1,NE,'+')),BEGIN  back up...
 0017BA 58E0 B08C/58FE_      0008C 20553  2                        SCBKUP
 0017F0 1BFF                       20609  2                        CLEAR R15
 0017F2 47F0 7192            01870 20613  2                        B     WEXEXIT
 0017F6                            20614  1                      END
 0017F6 5810 B08C/1B00_      0008C 20618  1                      SCAN
 001844 58E0 73D6/0DEE       01AB4 20649  1                      SCANCHK
 00184A 5810 B08C/4111_      0008C 20654  1                      SCUPTOK (R1)
 001852 1200/4780 C7F0             20658  1                      IF    (R0,Z),CVABSENT
 001858 1831                       20675  1                      LR    R3,R1
 00185A 1820                       20676  1                      LR    R2,R0
 00185C                            20677                       END
                                   20681
 00185C 1813/1802/58E0_            20682                       XTB   (R3),(R2)           Hex part
 001866 4780 7192/58E0_      01870 20699                       IF    NZ,'VCALL NOTVALID'
                                   20719
 001870 41FF 6000            00000 20720              WEXEXIT  LA    R15,@R6(R15)        Resulting addr
 001874 18D8/9808 D004_            20721                       PEND
 DROP   *,R7
 USING  *,R7
                                   20748
1FAIL     (FAIL2025) (12:44) (15MAR04) WYLBUR's Dump Formatter                                                              Page   34
0Current Usings:  (*,R7) (CP,R11) (CV,R12)
0Loc    Object Code    Addr1 Addr2  Stmt Lv Lineno    Source Statement           (Hibal 5, Asmedit 3.3)  HLASM R4.0  2004/03/15 12.44
+___    ______ ____    _____ _____  ____ __ ______    ______ _________
0                                  20750              ¿þþþþþþþþþþþþþþþþþþþþþþþþþþþþþþþþþþþþþþþþþþþþþþþþþþþþþþþþþþþþþþþþþþþþþÜ
                                   20751              Ÿ                                                                     Ÿ
                                   20752              Ÿ  SHOWVERS -- SHOW WVERSION command.                                 Ÿ
                                   20753              Ÿ                                                                     Ÿ
                                                      ¾þþþþþþþþþþþþþþþþþþþþþþþþþþþþþþþþþþþþþþþþþþþþþþþþþþþþþþþþþþþþþþþþþþþþþ»
0001882 50E0 D000/9008_      00000 20754              SHOWVERS XPROC
 DROP   *,R7
 USING  *,R7
 00189C 5810 72A0/4100_      01B3C 20797                       SETMSG L:=V(VERSION),&LINESZ
 0018A4 47F0 C7D0            007D0 20811                       B     CVNXTMSG
 0018A8 18D8/9808 D004_            20812                       PEND
 DROP   *,R7
 USING  *,R7
1FAIL     (FAIL2025) (12:44) (15MAR04) WYLBUR's Dump Formatter                                                              Page   35
0Current Usings:  (*,R7) (CP,R11) (CV,R12)
0Loc    Object Code    Addr1 Addr2  Stmt Lv Lineno    Source Statement           (Hibal 5, Asmedit 3.3)  HLASM R4.0  2004/03/15 12.44
+___    ______ ____    _____ _____  ____ __ ______    ______ _________
0                                  20840              ¿þþþþþþþþþþþþþþþþþþþþþþþþþþþþþþþþþþþþþþþþþþþþþþþþþþþþþþþþþþþþþþþþþþþþþÜ
                                   20841              Ÿ                                                                     Ÿ
                                   20842              Ÿ  SHOWSYM -- SHOW WSYMBOLS command  (priv'd).                        Ÿ
                                   20843              Ÿ                                                                     Ÿ
                                                      ¾þþþþþþþþþþþþþþþþþþþþþþþþþþþþþþþþþþþþþþþþþþþþþþþþþþþþþþþþþþþþþþþþþþþþþ»
00018B6 50E0 D000/9008_      00000 20844              SHOWSYM  XPROC
 DROP   *,R7
 USING  *,R7
 0018D0 9120 B3BE/4710_003BE       20887                       IF    ~CPSFSPR,'VCALL NOTVALID'
 0018DE 5810 B08C/1B00_      0008C 20911                       SCAN
 00192C 58E0 71E4/0DEE       01AB4 20942                       SCANCHK
 001932 5810 B08C/4111_      0008C 20947                       SCUPTOK (R1)
 00193A 1200/4770 707A_            20951                       IF    (R0,Z),'ACALL SYMDISP; B CVNEXT' display symbol table
 00194A 9001 D000/41D0_      00000 20975                       XPUSH R0,R1               Save loc & len
 001952 58E0 7264/0DEE_      01B34 20978                       IF    ('ACALL FINDSYM',NZ),BEGIN  IT'S a symbol
 00195C 185F                       20994  1                      LR    R5,R15              Symbol entry
 USING  SYMBOL,R5                  20995  1                      WITH  (SYMBOL,R5)
 00195E 9180 5000/47E0_00000       21008  1                      IF    SYMFCSCT,'TSEG "Csect "'
 001978 4110 5008/4100_      00008 21046  1                      TSEG  SYMNAME,,T
 00198A 9180 5000/47E0_00000       21074  1                      IF    SYMFCSCT,BEGIN      Csects have idents...
 001992 1FFF/BFF7 5001_            21089  2                        IF    ('L3 R15,SYMADDR',Z),EXIT
 00199C 9513 F000/4740_00000       21112  2                        IF    ((@R15,LT,X'13'),OR,(@R15,GT,X'18')),EXIT  bad len byte
 0019AC 91C0 F001/47E0_00001       21146  2                        IF    (@R15+1.X'C0',~ONES),EXIT  not alpha
 0019B4 50F0 D000/41D0_      00000 21167  2                        XPUSH R15
 0019BC 4110 72D6/4100_      01BA6 21170  2                        TSEG  ' ('
 0019CE 4BD0 72D8/58F0_      01BA8 21188  2                        XPOP  R15
 0019D6 4110 F001/1F00_      00001 21191  2                        TSEG  @R15+1,LC:@R15,T
 0019EA 4110 7324/4100_      01BF4 21222  2                        TSEG  ')'
 0019FC                            21240  1                      END
 0019FC 4110 7278/4100_      01B48 21244  1                      TSEG  ' at '
 001A0E 1F11/BF17 5001_            21262  1                      THEX  L3:SYMADDR,8
 001A22 4840 5004            00004 21293  1                      LH    R4,SYMLEN
 001A26 D501 72DA 5004_01BAA 00004 21294  1                      IF    (SYMLEN,NE,=AL2(30*1024)),BEGIN
 001A30 4110 72DC/4100_      01BAC 21311  2                        TSEG  ', length 0'
 001A42 1814/1B00/41F0_            21329  2                        THEX  (R4)
 001A50                            21351  1                      END
 DROP   SYMBOL,R5                  21355                       END
 001A50 7184/47F0 71A6 01A50 0195A 21364                       ELSE  BEGIN
 001A54 4BD0 72E6/9801_      01BB6 21375  1                      XPOP  R0,R1
 001A5C 58E0 7218/0DEE       01AE8 21378  1                      VCALL XTB                 See if it's good hex
 001A62 1200/47D0 719E_            21382  1                      IF    (R0,POS),'VCALL NOTVALID'
 001A6E 1B00/58E0 727C_            21405  1                      TLOC  (R15)               Give addr
 001A76                            21417                       END
 001A76 1B00/41F0 B050_            21421                       TCR
 001A82 47F0 C7DE            007DE 21446                       B     CVNEXT
 001A86 18D8/9808 D004_            21447                       PEND
 DROP   *,R7
 USING  *,R7
                                   21474                       QLTORG
1FAIL     (FAIL2025) (12:44) (15MAR04) WYLBUR's Dump Formatter                                                              Page   36
0Current Usings:  (*,R7) (CP,R11) (CV,R12)
0Loc    Object Code    Addr1 Addr2  Stmt Lv Lineno    Source Statement           (Hibal 5, Asmedit 3.3)  HLASM R4.0  2004/03/15 12.44
+___    ______ ____    _____ _____  ____ __ ______    ______ _________
00028BE                028BE 04E40 21542                       DATA  BEGIN
 0028BE 00                         21547  1           STAEFLAG   FLAG
 STAEFLAG.STAEFTRC 80 ONES         21551  1                      FLAG  STAEFTRC            - Tracing was enabled
                                   21556  1
 0028BF FF                         21557  1           STAEKEY    DC    X'FF'               PSW key on entry
                                   21558  1
 0028C0 00000000                   21559  1           STAEPTR    DC    A(0)                SDWA ptr
 0028C4 00000000                   21560  1           STAECPX    DC    A(0)                Our temporary CP ptr
 0028C8 00000000                   21561  1           STAESTKP   DC    A(0)                Saved stack ptr
 0028CC 00000000                   21562  1           STAERTN    DC    A(0)                ESTAE return addr
 001C08                01C08 04E40 21563                       END
-                                  21570              ¿þþþþþþþþþþþþþþþþþþþþþþþþþþþþþþþþþþþþþþþþþþþþþþþþþþþþþþþþþþþþþþþþþþþþþÜ
                                   21571              Ÿ                                                                     Ÿ
                                   21572              Ÿ  ESTAE exit                                                         Ÿ
                                   21573              Ÿ                                                                     Ÿ
                                                      ¾þþþþþþþþþþþþþþþþþþþþþþþþþþþþþþþþþþþþþþþþþþþþþþþþþþþþþþþþþþþþþþþþþþþþþ»
0USING  ESTAE,R15                  21574              ESTAE    WITH  (ESTAE,R15),BEGIN
 001C08 5900 FAD8/4770_      026E0 21589  1                      IF    (R0,EQ,12),BEGIN    No SDWA
 001C10 1BFF                       21606  2                        CLEAR R15                 Abend, no retries
 001C12 07FE                       21610  2                        BR    R14
 001C14                            21611  1                      END
 DROP   ESTAE,R15                  21615                       END
                                   21623
 001C14 0D70                       21624                       BASE
 DROP   *,R7
 USING  *,R7
                                   21641
 001C16 58C0 7ACE            026E4 21642                       L     CVR,=V(CV)          CV ptr
 001C1A 1BBB                       21643                       CLEAR CPR                 No CP ptr
                                   21647
 001C1C 1861                       21648                       LR    R6,R1
 USING  SDWA,R6                    21649                       USING SDWA,R6
                                   21658
 001C1E 5010 7CAA            028C0 21659                       ST    R1,STAEPTR          Save SDWA ptr
 001C22 50E0 7CB6            028CC 21660                       ST    R14,STAERTN         Save return addr
                                   21661
 001C26 9640 C4C5      004C5       21662                       SET   CVFABEND            Set abending
                                   21668
 001C2A 947F 7CA8      028BE       21669                       CLEAR STAEFTRC
 001C2E 9180 C4C5/47E0_004C5       21676                       IF    CVFTRC,'SET STAEFTRC'  Remember, we are tracing
 001C3A 947F C4C5      004C5       21702                       CLEAR CVFTRC              Disable tracing, temporarily
                                   21709                       ¿þþþþþþþþþþþþþþþþþþþþþþþÜ
                                   21710                       Ÿ  Save current stack.  Ÿ
                                   21711                       ¾þþþþþþþþþþþþþþþþþþþþþþþ»
 001C3E 5810 7CB2/1211_      028C8 21712                       IF    ('LT R1,STAESTKP',Z),BEGIN  Save current stack...
 001C48 5800 C26C            0026C 21728  1                      L     R0,CVSTACKL
 001C4C 4510 703A/0A0A       01C50 21729  1                      GETMAIN R,LV=(0)
 001C52 5010 7CB2            028C8 21733  1                      ST    R1,STAESTKP
 001C56                            21734                       END
 001C56 18E1/58F0 C26C_            21738                       MOVEL (R1),L:CVSTACK,L:CVSTACKL  Save cur stack
                                   21756
1FAIL     (FAIL2025) (12:44) (15MAR04) WYLBUR's Dump Formatter                                                              Page   37
0Current Usings:  (SDWA,R6) (*,R7) (CP,R11) (CV,R12)
0Loc    Object Code    Addr1 Addr2  Stmt Lv Lineno    Source Statement           (Hibal 5, Asmedit 3.3)  HLASM R4.0  2004/03/15 12.44
+___    ______ ____    _____ _____  ____ __ ______    ______ _________
0001C64 58E0 7AD2/0DEE       026E8 21757                       VCALL AMODE31             Make sure we are in 31-bit mode
                                   21761                       ¿þþþþþþþþþþþþþþþþþþþþþþþþþÜ
                                   21762                       Ÿ  Build a temporary CP.  Ÿ
                                   21763                       ¾þþþþþþþþþþþþþþþþþþþþþþþþþ»
 001C6A 58E0 7AD6/0DEE       026EC 21764                       VCALL GETCP               Get a CP
 001C70 58E0 7ADA/0DEE       026F0 21768                       VCALL INITSTK             Initialize CP stack
 001C76 50B0 7CAE            028C4 21772                       ST    CPR,STAECPX         Save our CP ptr
                                   21773                       ¿þþþþþþþþþþþþþþþþþþþþþþþþþþþþþþþþþþþþþþþþþþþþþþþþþþþÜ
                                   21774                       Ÿ  Switch back into our TCB key and problem state.  Ÿ
                                   21775                       ¾þþþþþþþþþþþþþþþþþþþþþþþþþþþþþþþþþþþþþþþþþþþþþþþþþþþ»
 001C7A 0700/4510 706E_            21776                       MODESET MODE=SUP          Play the game....
 001C8A 5830 C73C            0073C 21783                       L     R3,CVTCBP           Our TCB
 USING  TCB,R3                     21784                       WITH  (TCB,R3),BEGIN
 001C8E 1812/B20B 0000_            21798  1                      MODESET EXTKEY=TCB,SAVEKEY=STAEKEY,WORKREG=1  TCB key(safe)
 DROP   TCB,R3                     21806                       END
 001CA2 0700/4510 7096_            21814                       MODESET MODE=PROB         Always return to problem state
                                   21821
 001CB2 58E0 7ADE/0DEE       026F4 21822                       VCALL FORCEOUT            Force recovery pages out
                                   21826
 001CB8 D73F C0F0 C0F0 000F0 000F0 21827                       CLEAR CVFINFO             Reset any previous failure msg
 001CBE 9180 6004/4710_00004       21834                       IF    ~SDWACMPF.SDWAREQ,BEGIN  No dump requested...
 001CC6 58F0 6004            00004 21850  1                      L     R15,SDWAABCC        Abend completion code
 001CCA 54F0 7AE2            026F8 21851  1                      N     R15,=A(X'FFF000')   Only keep sys comp code
 001CCE 59F0 7AE6/4780_      026FC 21852  1                      IF    (R15,EQ,=A(X'122000')),EXIT  abend with dump anyway
 001CD6 47F0 7296            01EAC 21871  1                      B     STAETERM            No dump needed -- terminate
 001CDA                            21872                       END
                                   21876
 001CDA 41F0 0001/4AF0_      00001 21877                       INCR  R15,CVNFAIL         Count no. of failsofts
 001CE6 58E0 7AEA/0DEE       02700 21883                       VCALL LOCALTOD
 001CEC 5000 C0EC            000EC 21887                       ST    R0,CVFCLCK          Save time/date
                                   21888
 001CF0 5840 7AEE            02704 21889                       L     R4,=A(TRCAREA)
 USING  TRCAREA,R4                 21890                       WITH  (TRCAREA,R4),BEGIN
 001CF4 9180 400C/4710_007B0       21904  1                      IF    ~FKAPUT,BEGIN       Fill in kaput info...
 001CFC D204 400D 7C06 007B1 0281C 21919  2                        MVC   KAPTEXT,=C'Abend'
 001D02 58F0 6004            00004 21920  2                        L     R15,SDWAABCC
 001D06 4110 4012            007B6 21921  2                        LA    R1,KAPCODE
 001D0A 58E0 7AF2/0DEE       02708 21922  2                        ACALL ABENDCD             Save Shhh/Udddd code
 001D10 D703 401C 401C 007C0 007C0 21926  2                        CLEAR KAPMSG              No message
 001D16 D203 4024 607C 007C8 0007C 21933  2                        MVC   KAPRTN,SDWANXT2     Failing PSW ia
 001D1C D23F 4028 6088 007CC 00088 21934  2                        MVC   KAPREGS(16*4),SDWASRSV  Regs at abend
 001D22                            21935  1                      END
                                   21939  1
 001D22 41F0 B050/58E0_      00050 21940  1                      TCLEAR
 001D2C 4110 400D/4100_      007B1 21954  1                      TSEG  KAPTEXT,,B
 001D3E 4110 4012/4100_      007B6 21982  1                      TSEG  KAPCODE,,TB
 001D50 4110 7C0B/4100_      02821 22010  1                      TSEG  'at '
 001D62 58F0 4024/1B00_      007C8 22028  1                      TPSW  KAPRTN              PSW ia
 001D6E D603 401C 401C_007C0 007C0 22042  1                      IF    (KAPMSG,NZ),BEGIN
 001D78 4110 7B0A/4100_      02720 22058  2                        TSEG  ' -- '
 001D8A 9801 401C            007C0 22076  2                        LM    R0,R1,KAPMSG
 001D8E 41F0 B050/58E0_      00050 22077  2                        TSEG  (R1),(R0)
 001D98                            22101  1                      END
                                   22105  1
1FAIL     (FAIL2025) (12:44) (15MAR04) WYLBUR's Dump Formatter                                                              Page   38
0Current Usings:  (TRCAREA,R4) (SDWA,R6) (*,R7) (CP,R11) (CV,R12)
0Loc    Object Code    Addr1 Addr2  Stmt Lv Lineno    Source Statement           (Hibal 5, Asmedit 3.3)  HLASM R4.0  2004/03/15 12.44
+___    ______ ____    _____ _____  ____ __ ______    ______ _________
0001D98 58F0 B05C            0005C 22106  1                      L     R15,CPSEGLENF
 001D9C 59F0 7B0E/47D0_      02724 22107  1                      CEIL  R15,L'CVFINFO
 001DA8 D23F C0F0 C4D8 000F0 004D8 22126  1                      MVC   CVFINFO,CVBLANKS
 001DAE 5810 B070            00070 22127  1                      L     R1,CPSEGLOC
 001DB2 06F0/12FF/4740_            22128  1                      MOVE  R15,CVFINFO,@R1     Save abend info
 001DBE 41F0 B050/58E0_      00050 22166  1                      TCLEAR
 DROP   TRCAREA,R4                 22180                       END
                                   22188
 001DC8 4110 6000            00000 22189                       LA    R1,SDWA
 001DCC 58E0 7B12/0DEE       02728 22190                       ACALL FMTDUMP             Format a dump
                                   22194
 001DD2 5820 7AEE            02704 22195                       L     R2,=A(TRCAREA)
 001DD6 947F 200C      007B0       22196                       WITH  (TRCAREA,R2),'CLEAR FKAPUT'  Reset flag
 USING  TRCAREA,R2
 DROP   TRCAREA,R2
                                   22226
 001DDA 9180 60EB/4710_000EB       22227                       IF    SDWAERRD.SDWACLUP,STAETERM  Can't retry
 001DE2 9104 C4C7/4710_004C7       22246                       IF    CVFNORET,STAETERM   No retries
 001DEA 9108 C4C5/4710_004C5       22264                       IF    CVFINIT,STAETERM    In initialization, no retry
                                   22282                       ¿þþþþþþþþþþþþþþþþþþþþþþþþþþþþÜ
                                   22283                       Ÿ  Dispatcher mode failure.  Ÿ
                                   22284                       ¾þþþþþþþþþþþþþþþþþþþþþþþþþþþþ»
 001DF2 5840 C1C8/1244       001C8 22285                       LT    R4,CVCURJCB
 001DF8 4770 7226            01E3C 22289                       IF    Z,BEGIN             Dispatcher mode failure...
 001DFC 41F0 0001/4AF0_      00001 22300  1                      INCR  R15,CVNDISPF        Count no. of dispatcher failures
 001E08 59F0 7B16/4720_      0272C 22306  1                      IF    (R15,GT,CVDFMAX#),STAETERM  Failsoft loop, curtains
                                   22326  1
 001E10 D603 C180 C180_00180 00180 22327  1                      IF    (CVCURPATH,NZ),BEGIN  Close current path...
 001E1A 4110 7A8A/4100_      026A0 22343  2                        XWTO  'Path closed by failsoft recovery'
 001E2C 58F0 C180            00180 22360  2                        L     R15,CVCURPATH       Current path ptr
 001E30 D703 C180 C180 00180 00180 22361  2                        CLEAR CVCURPATH           Not current now
 001E36 58E0 7B1E/0DEE       02734 22368  2                        VCALL PATHCLS             Close path
 001E3C                            22372  1                      END
 001E3C                            22376                       END
                                   22380                       ¿þþþþþþþþþþþþþþþþþþþþþþÜ
                                   22381                       Ÿ  User mode failure.  Ÿ
                                   22382                       ¾þþþþþþþþþþþþþþþþþþþþþþ»
 001E3C 722A/47F0 725A 01E3C 01DFA 22383                       ELSE  BEGIN               User mode failure...
 USING  JCB,R4                     22394  1                      WITH  (JCB,R4),BEGIN
 001E40 41F0 0001/4AF0_      00001 22408  2                        INCR  R15,JCBFCNT
 001E4C 59F0 7B22/47D0_      02738 22414  2                        IF    (R15,GT,JCBFMAX#),BEGIN  Too many errors...
 001E54 9102 C4C5/47E0_004C5       22431  3                          IF    (CVFTEST,AND,(R15,LT,6)),EXIT
 001E64 9101 4060/4710_00060       22465  3                          IF    JCBWFERR,STAETERM   User was suspended, punt
 001E6C 9601 4060      00060       22483  3                          SET   JCBWFERR            Suspend failing user
 001E70                            22489  2                        END
 DROP   JCB,R4                     22493  1                      END
 001E70                            22501                       END
                                   22505                       ¿þþþþþþþþþþþþþþþþþþþþÜ
                                   22506                       Ÿ  Attempt a retry.  Ÿ
                                   22507                       ¾þþþþþþþþþþþþþþþþþþþþ»
 001E70 4510 7262/0000_      01E78 22508                       MODESET KEY=ZERO          ********
 001E7E 4110 6000            00000 22515                       LA    R1,SDWA             Needed for SETRP
 001E82 0700/9204 10FC_            22516                       SETRP RC=4,RETADDR=STAERTRY,FRESDWA=YES,DUMP=NO
 001E96 0700/4510 728A_            22527                       MODESET KEY=NZERO         *********
1FAIL     (FAIL2025) (12:44) (15MAR04) WYLBUR's Dump Formatter                                                              Page   39
0Current Usings:  (SDWA,R6) (*,R7) (CP,R11) (CV,R12)
0Loc    Object Code    Addr1 Addr2  Stmt Lv Lineno    Source Statement           (Hibal 5, Asmedit 3.3)  HLASM R4.0  2004/03/15 12.44
+___    ______ ____    _____ _____  ____ __ ______    ______ _________
0001EA6 58E0 7CB6            028CC 22534                       L     R14,STAERTN
 001EAA 07FE                       22535                       BR    R14
                                   22536                       ¿þþþþþþþþþþþþþþþþþþþþþÜ
                                   22537                       Ÿ  Terminate WYLBUR.  Ÿ
                                   22538                       ¾þþþþþþþþþþþþþþþþþþþþþ»
 001EAC 4110 0001/0A2E       00001 22539              STAETERM TTIMER CANCEL             Cancel any timer
 001EB2 1B11                       22543                       CLEAR R1
 001EB4 4100 0008/41F0_      00008 22547                       ESPIE RESET,(1)           Clear any spie
 001EBE 4100 0084/0A3C       00084 22552                       ESTAE 0                   Clear stae
                                   22559                       ¿þþþþþþþþþþþþþþþþþþþþþþþþþþþþþþþþþþþþþþþþþþþþþþþþþþþþþþþþþþþþþþþÜ
                                   22560                       Ÿ  We need to re-initialize the CP so the seg buffer is set up  Ÿ
                                   22561                       Ÿ  for the TWTO.                                                Ÿ
                                   22562                       ¾þþþþþþþþþþþþþþþþþþþþþþþþþþþþþþþþþþþþþþþþþþþþþþþþþþþþþþþþþþþþþþþ»
 001EC4 58C0 7ACE            026E4 22563                       L     CVR,=V(CV)
                                   22564
 001EC8 58D0 C270            00270 22565                       L     R13,CVDSTK
 001ECC 188D                       22566                       LR    R8,R13              Dispatcher stack
                                   22567
 001ECE 58E0 7AD2/0DEE       026E8 22568                       VCALL AMODE31             Make sure we are in 31-bit mode
                                   22572
 001ED4 D63F C0F0 C0F0_000F0 000F0 22573                       IF    (CVFINFO,NZ),BEGIN  We have a failure message...
 001EDE 4110 C0F0/4100_      000F0 22589  1                      XWTO  CVFINFO             Tell operator of failure
 001EF0                            22616                       END
                                   22620
 001EF0 1BFF                       22621                       CLEAR R15
 001EF2 58E0 7B2A/0DEE       02740 22625                       ACALL SHUTDOWN            Normal termination, sort of
 001EF8 0000                       22629                       DC    H'0'                (No return)
                                   22630
 DROP   SDWA,R6                    22631                       DROP  SDWA,BR
 DROP   *,R7
1FAIL     (FAIL2025) (12:44) (15MAR04) WYLBUR's Dump Formatter                                                              Page   40
0Current Usings:  (CP,R11) (CV,R12)
0Loc    Object Code    Addr1 Addr2  Stmt Lv Lineno    Source Statement           (Hibal 5, Asmedit 3.3)  HLASM R4.0  2004/03/15 12.44
+___    ______ ____    _____ _____  ____ __ ______    ______ _________
0                                  22646              ¿þþþþþþþþþþþþþþþþþþþþþþþþþþþþþþþþþþþþþþþþþþþþþþþþþþþþþþþþþþþþþþþþþþþþþÜ
                                   22647              Ÿ                                                                     Ÿ
                                   22648              Ÿ  STAERTRY -- ESTAE retry routine.  Entered after the ESTAE          Ÿ
                                   22649              Ÿ    exit routine has taken a dump and has decided to recover.        Ÿ
                                   22650              Ÿ                                                                     Ÿ
                                                      ¾þþþþþþþþþþþþþþþþþþþþþþþþþþþþþþþþþþþþþþþþþþþþþþþþþþþþþþþþþþþþþþþþþþþþþ»
0001EFA 0D70                       22651              STAERTRY BASE
 USING  *,R7
 001EFC 58C0 77E8            026E4 22665                       L     CVR,=V(CV)          CV ptr
                                   22666
 001F00 58D0 C270            00270 22667                       L     R13,CVDSTK          Dispatcher stack
 001F04 188D                       22668                       LR    R8,R13
                                   22669
 001F06 58E0 77EC/0DEE       026E8 22670                       VCALL AMODE31             Make sure we are in 31-bit mode
                                   22674
 001F0C 94BF C4C5      004C5       22675                       CLEAR CVFABEND            Not abending any more
 001F10 94FE C4C5      004C5       22682                       CLEAR CVFFORCE            Clear forced pages written
                                   22689
 001F14 9180 79C2/47E0_028BE       22690                       IF    STAEFTRC,'SET CVFTRC'  Re-enable tracing
                                   22716                       ¿þþþþþþþþþþþþþþþþþþþþþþþþþþþþþþþþþþþþþþþþþþþþþþþþþþþþþþþþþþþÜ
                                   22717                       Ÿ  Free the temporary CP and restore the saved stack.       Ÿ
                                   22718                       Ÿ                                                           Ÿ
                                   22719                       Ÿ  Note: For a dispatcher failsoft we must either restore   Ÿ
                                   22720                       Ÿ        the "CP" stack or clear CVOLDJCB in case the same  Ÿ
                                   22721                       Ÿ        user gets run twice.  Just for safety we do both.  Ÿ
                                   22722                       ¾þþþþþþþþþþþþþþþþþþþþþþþþþþþþþþþþþþþþþþþþþþþþþþþþþþþþþþþþþþþ»
 001F20 58B0 79C8            028C4 22723                       L     CPR,STAECPX         Get our temporary CP ptr
 001F24 58E0 7848/0DEE       02744 22724                       VCALL FREECP              Release temporary CP
                                   22728
 001F2A D603 79CC 79CC_028C8 028C8 22729                       IF    (STAESTKP,NZ),BEGIN  Restore saved stack...
 001F34 58E0 C274/58F0_      00274 22745  1                      MOVEL L:CVSTACK,L:STAESTKP,L:CVSTACKL  Restore stack
                                   22763  1
 001F44 5810 79CC            028C8 22764  1                      L     R1,STAESTKP
 001F48 5800 C26C            0026C 22765  1                      L     R0,CVSTACKL
 001F4C 4110 1000/0A0A       00000 22766  1                      FREEMAIN R,A=(1),LV=(0)   Now free the save stack area
 001F52 D703 79CC 79CC 028C8 028C8 22770  1                      CLEAR STAESTKP
                                   22777  1
 001F58 D703 C1CC C1CC 001CC 001CC 22778  1                      CLEAR CVOLDJCB            No "previous" user
 001F5E                            22785                       END
                                   22789                       ¿þþþþþþþþþþþþþþþþþþþþþþþþþþþþþþþþþþþþþþþþþþþþþþþþþþþþþþþþþþþþþþþÜ
                                   22790                       Ÿ  If the failure occurred in the dispatcher then all we can    Ÿ
                                   22791                       Ÿ    do is return to the dispatcher.  No warning message        Ÿ
                                   22792                       Ÿ    can be written because we don't know who was responsible.  Ÿ
                                   22793                       ¾þþþþþþþþþþþþþþþþþþþþþþþþþþþþþþþþþþþþþþþþþþþþþþþþþþþþþþþþþþþþþþþ»
 001F5E 58F0 C1C8/12FF       001C8 22794                       LT    R15,CVCURJCB        Current user
 001F64 4770 7076            01F72 22798                       IF    Z,BEGIN             None, in dispatcher mode...
 001F68 1BBB                       22809  1                      CLEAR CPR                 No current CP
 001F6A 58E0 784C/0DEE       02748 22813  1                      VCALL DISPCONT            Re-start dispatcher
 001F70 0000                       22817  1                      DC    H'0'                (No return)
 001F72                            22818                       END
1FAIL     (FAIL2025) (12:44) (15MAR04) WYLBUR's Dump Formatter                                                              Page   41
0Current Usings:  (*,R7) (CP,R11) (CV,R12)
0Loc    Object Code    Addr1 Addr2  Stmt Lv Lineno    Source Statement           (Hibal 5, Asmedit 3.3)  HLASM R4.0  2004/03/15 12.44
+___    ______ ____    _____ _____  ____ __ ______    ______ _________
0                                  22822                       ¿þþþþþþþþþþþþþþþþþþþþþþþþþþþþþþþþþþþþþþþþþþþþþþþþþþþþþþþþþþþÜ
                                   22823                       Ÿ  Failure occurred while running a user; set things up so  Ÿ
                                   22824                       Ÿ    we can run them again.                                 Ÿ
                                   22825                       ¾þþþþþþþþþþþþþþþþþþþþþþþþþþþþþþþþþþþþþþþþþþþþþþþþþþþþþþþþþþþ»
 001F72 58B0 F014            00014 22826                       WITH  (JCB,R15),'L CPR,JCBCPX'  CP ptr
 USING  JCB,R15
 DROP   JCB,R15
                                   22850
 001F76 58E0 77F4/0DEE       026F0 22851                       VCALL INITSTK             Reset user stack
 001F7C 58E0 7850/0DEE       0274C 22855                       PFREE PAR                 Reset user page ptrs
 001F82 58E0 7854/0DEE       02750 22861                       PFREE PBR                 (Ditto)
                                   22867
 001F88 58E0 7858/0DEE       02754 22868                       VCALL GETCPU              Get current CPU total
 001F8E 5010 C6FC            006FC 22872                       ST    R1,CVRCPUTM         Don't charge user for failsoft
                                   22873
 001F92 94BF BD55/947F_00D55       22874                       CLEAR CPFQUIET,CPFDUMP    Reset QUIET/DUMP
                                   22886
 001F9A 94EF BC7B      00C7B       22887                       CLEAR CPFDISP             Reset display mode
 001F9E 58E0 785C/0DEE       02758 22894                       VCALL PAGERES             Reset page mode
                                   22898
 001FA4 5850 C1C8            001C8 22899                       L     R5,CVCURJCB
 USING  JCB,R5                     22900                       WITH  (JCB,R5),BEGIN
 001FA8 41F0 B050/58E0_      00050 22914  1                      TCLEAR
 001FB2 1B00/41F0 B050_            22928  1                      TCR
 001FBE 4110 7928/4100_      02824 22953  1                      TSEG  X'2F'               (bell)
 001FD0 4110 7929/4100_      02825 22971  1                      TSEG  'An error occurred in WYLBUR while processing '
 001FE2 4110 77C4/4100_      026C0 22989  1                      TSEG  'this command; diagnostic',,CR
 001FF4 4110 7956/4100_      02852 23007  1                      TSEG  'information describing it has been logged.  This '
 002006 4110 7987/4100_      02883 23025  1                      TSEG  'was a programming error; it',,CR
 002018 4110 79A2/4100_      0289E 23043  1                      TSEG  'was not your fault.  '
                                   23061  1
 00202A D501 78E4 5034_027E0 00034 23062  1                      IF    (JCBFCNT,LT,JCBFMAX#),BEGIN
 002034 4110 78E6/4100_      027E2 23080  2                        TSEG  'WYLBUR will end your current session if it occurs '
 002046 4110 7918/4100_      02814 23098  2                        TSEG  'again.',,CR
 002058                            23116  1                      END
                                   23120  1
 002058 7160/47F0 7186 02058 02032 23121  1                      ELSE  BEGIN
 00205C 1B00/41F0 B050_            23132  2                        TCR
 002068 4110 7864/4100_      02760 23157  2                        TSEG  'This session has been ended.',,CR
 00207A 58F0 C1C8            001C8 23175  2                        L     R15,CVCURJCB
 00207E 9680 F062      00062       23176  2                        WITH  (JCB,R15),'SET JCBAFALO'  Try to logoff
 USING  JCB,R15
 DROP   JCB,R15
 002082                            23205  1                      END
                                   23209  1
 002082 1B00/41F0 B050_            23210  1                      TCR
                                   23235  1
 00208E 9120 B3BE/47E0_003BE       23236  1                      IF    CPSFSPR,BEGIN       Priv'd...
 002096 5840 7808            02704 23251  2                        L     R4,=A(TRCAREA)
 USING  TRCAREA,R4                 23252  2                        WITH  (TRCAREA,R4)
 00209A 1B00/41F0 B050_            23265  2                        TCR
 0020A6 4110 C0F0/4100_      000F0 23290  2                        TSEG  CVFINFO,,T
 0020B8 1B00/41F0 B050_            23318  2                        TCR
 0020C4 4110 79B7/4100_      028B3 23343  2                        TSEG  'Registers: '
1FAIL     (FAIL2025) (12:44) (15MAR04) WYLBUR's Dump Formatter                                                              Page   42
0Current Usings:  (TRCAREA,R4) (JCB,R5) (*,R7) (CP,R11) (CV,R12)
0Loc    Object Code    Addr1 Addr2  Stmt Lv Lineno    Source Statement           (Hibal 5, Asmedit 3.3)  HLASM R4.0  2004/03/15 12.44
+___    ______ ____    _____ _____  ____ __ ______    ______ _________
00020D6 4800 791E            0281A 23361  2                        LH    R0,=H'-1'
 0020DA 4110 4028            007CC 23362  2                        LA    R1,KAPREGS
 0020DE 58E0 7884/0DEE       02780 23363  2                        ACALL DUMPREGS            Display the registers
                                   23367  2
 0020E4 9102 C4C5/47E0_004C5       23368  2                        IF    CVFTEST,BEGIN
 0020EC 1B00/41F0 B050_            23383  3                          TCR
 0020F8 4110 7888/4100_      02784 23408  3                          TREAD 'Press RETURN to continue... '
 002108                            23422  2                        END
 DROP   TRCAREA,R4                 23426  1                      END
                                   23435  1
 002108 9101 5060/4710_00060       23436  1                      IF    ~JCBWFERR,BEGIN
 002110 18F5/9610 F062_            23451  2                        SETUP JCB                 Put user on SETUP queue
 002126                            23479  1                      END
 DROP   JCB,R5                     23483                       END
                                   23491
 002126 96C0 BD5A      00D5A       23492                       SET   CPFERROR+CPFABORT
 00212A D207 B886 77DC 00886 026D8 23501                       MVC   CPERRID,=CL8'FAILSOFT'
                                   23502
 002130 D203 B03C 78AC 0003C 027A8 23503                       MVC   CPREGS+R14*4(4),=V(COMMAND)  Another day
 002136 58F0 78B0            027AC 23504                       L     R15,=V(DISPATCH)
 00213A 07FF                       23505                       BR    R15
                                   23506
 DROP   *,R7                       23507                       DROP  BR
1FAIL     (FAIL2025) (12:44) (15MAR04) WYLBUR's Dump Formatter                                                              Page   43
0Current Usings:  (CP,R11) (CV,R12)
0Loc    Object Code    Addr1 Addr2  Stmt Lv Lineno    Source Statement           (Hibal 5, Asmedit 3.3)  HLASM R4.0  2004/03/15 12.44
+___    ______ ____    _____ _____  ____ __ ______    ______ _________
0                                  23515              ¿þþþþþþþþþþþþþþþþþþþþþþþþþþþþþþþþþþþþþþþþþþþþþþþþþþþþþþþþþþþþþþþþþþþþþÜ
                                   23516              Ÿ                                                                     Ÿ
                                   23517              Ÿ  CLOSEFIN -- This ESTAE exit routine gets called after the dump     Ÿ
                                   23518              Ÿ    formatter ESTAE routine to CLOSE the dump formatter's            Ÿ
                                   23519              Ÿ    SYSPRINT file.                                                   Ÿ
                                   23520              Ÿ                                                                     Ÿ
                                                      ¾þþþþþþþþþþþþþþþþþþþþþþþþþþþþþþþþþþþþþþþþþþþþþþþþþþþþþþþþþþþþþþþþþþþþþ»
0USING  CLOSEFIN,R15               23521              CLOSEFIN  WITH  (CLOSEFIN,R15),BEGIN
 00213C 5900 F5A4/4770_      026E0 23536  1                      IF    (R0,EQ,12),BEGIN    No SDWA...
 002144 1BFF                       23553  2                        CLEAR R15                 Abend, no retries
 002146 07FE                       23557  2                        BR    R14
 002148                            23558  1                      END
 DROP   CLOSEFIN,R15               23562                       END
                                   23570
 002148 1861                       23571                       LR    R6,R1               SDWA ptr
 USING  SDWA,R6                    23572                       USING SDWA,R6
                                   23581
 00214A 185E                       23582                       LR    R5,RAR              Save return addr
                                   23583
 00214C 0D70                       23584                       BASE
 USING  *,R7
                                   23598
 00214E 58C0 7596            026E4 23599                       L     CVR,=V(CV)          CV ptr
 002152 1BBB                       23600                       CLEAR CPR                 No CP here
                                   23604
 002154 41D0 714A            02298 23605                       LA    R13,TBLSTACK
 002158 188D                       23606                       LR    R8,R13
                                   23607                       ¿þþþþþþþþþþþþþþþþþþþþþþþþþþþþþþþþþþþþþþþþþþþþþþþþþþþÜ
                                   23608                       Ÿ  Switch back into our TCB key and problem state.  Ÿ
                                   23609                       ¾þþþþþþþþþþþþþþþþþþþþþþþþþþþþþþþþþþþþþþþþþþþþþþþþþþþ»
 00215A 0700/4510 7016_            23610                       MODESET MODE=SUP          Play the game....
 00216A 5830 C73C            0073C 23617                       L     R3,CVTCBP           Our TCB
 USING  TCB,R3                     23618                       WITH  (TCB,R3),BEGIN
 00216E 1812/B20B 0000_            23632  1                      MODESET EXTKEY=TCB,SAVEKEY=STAEKEY,WORKREG=1  TCB key(safe)
 DROP   TCB,R3                     23640                       END
 002182 0700/4510 703E_            23648                       MODESET MODE=PROB         Always return to problem state
                                   23655
 002192 58E0 7662/0DEE       027B0 23656                       VCALL AMODE24             ********
 002198 5820 7666            027B4 23660                       L     R2,=A(SYSPRINT)
 00219C 9110 2030/47E0_00030       23661                       IF    @R2+(DCBOFLGS-DCB).DCBOFOPN,BEGIN  SYSPRINT open...
 0021A4 4510 707E/0023_      021CC 23677  1                      WTO   'Closing SYSPRINT in ESTAE exit!'
 0021CE 0700/4510 708A_            23685  1                      CLOSE (SYSPRINT)
 0021DA                            23691                       END
 0021DA 58E0 759A/0DEE       026E8 23695                       VCALL AMODE31             ********
                                   23699
 0021E0 4510 709A/0000_      021E8 23700                       MODESET KEY=ZERO          ********
 0021EE 4110 6000            00000 23707                       LA    R1,SDWA             Needed for SETRP
 0021F2 0700/9200 10FC             23708                       SETRP RC=0                Continue abending
 0021F6 0700/4510 70B2_            23715                       MODESET KEY=NZERO         ********
 002206 1BFF                       23722                       CLEAR R15                 No retries
 002208 07F5                       23726                       BR    R5
                                   23727
 DROP   SDWA,R6                    23728                       DROP  SDWA,BR
1FAIL     (FAIL2025) (12:44) (15MAR04) WYLBUR's Dump Formatter                                                              Page   44
0Current Usings:  (CP,R11) (CV,R12)
0Loc    Object Code    Addr1 Addr2  Stmt Lv Lineno    Source Statement           (Hibal 5, Asmedit 3.3)  HLASM R4.0  2004/03/15 12.44
+___    ______ ____    _____ _____  ____ __ ______    ______ _________
0DROP   *,R7
1FAIL     (FAIL2025) (12:44) (15MAR04) WYLBUR's Dump Formatter                                                              Page   45
0Current Usings:  (CP,R11) (CV,R12)
0Loc    Object Code    Addr1 Addr2  Stmt Lv Lineno    Source Statement           (Hibal 5, Asmedit 3.3)  HLASM R4.0  2004/03/15 12.44
+___    ______ ____    _____ _____  ____ __ ______    ______ _________
0                                  23743              ¿þþþþþþþþþþþþþþþþþþþþþþþþþþþþþþþþþþþþþþþþþþþþþþþþþþþþþþþþþþþþþþþþþþþþþÜ
                                   23744              Ÿ                                                                     Ÿ
                                   23745              Ÿ  CLEANFIN -- This ESTAE exit routine gets called after the dump     Ÿ
                                   23746              Ÿ    formatter ESTAE routine, to handle last minute cleanup.          Ÿ
                                   23747              Ÿ                                                                     Ÿ
                                                      ¾þþþþþþþþþþþþþþþþþþþþþþþþþþþþþþþþþþþþþþþþþþþþþþþþþþþþþþþþþþþþþþþþþþþþþ»
0USING  CLEANFIN,R15               23748              CLEANFIN WITH  (CLEANFIN,R15),BEGIN
 00220A 5900 F4D6/4770_      026E0 23763  1                      IF    (R0,EQ,12),BEGIN    No SDWA...
 002212 1BFF                       23780  2                        CLEAR R15                 Abend, no retries
 002214 07FE                       23784  2                        BR    R14
 002216                            23785  1                      END
 DROP   CLEANFIN,R15               23789                       END
                                   23797
 002216 1861                       23798                       LR    R6,R1               SDWA ptr
 USING  SDWA,R6                    23799                       USING SDWA,R6
                                   23808
 002218 185E                       23809                       LR    R5,RAR              Save return addr
                                   23810
 00221A 0D70                       23811                       BASE
 USING  *,R7
                                   23825
 00221C 58C0 74C8            026E4 23826                       L     CVR,=V(CV)          CV ptr
 002220 1BBB                       23827                       CLEAR CPR                 No CP here
                                   23831
 002222 41D0 707C            02298 23832                       LA    R13,TBLSTACK
 002226 188D                       23833                       LR    R8,R13
                                   23834                       ¿þþþþþþþþþþþþþþþþþþþþþþþþþþþþþþþþþþþþþþþþþþþþþþþþþþþÜ
                                   23835                       Ÿ  Switch back into our TCB key and problem state.  Ÿ
                                   23836                       ¾þþþþþþþþþþþþþþþþþþþþþþþþþþþþþþþþþþþþþþþþþþþþþþþþþþþ»
 002228 4510 7014/0000_      02230 23837                       MODESET MODE=SUP          Play the game....
 002236 5830 C73C            0073C 23844                       L     R3,CVTCBP           Our TCB
 USING  TCB,R3                     23845                       WITH  (TCB,R3),BEGIN
 00223A 1812/B20B 0000_            23859  1                      MODESET EXTKEY=TCB,SAVEKEY=STAEKEY,WORKREG=1  TCB key(safe)
 DROP   TCB,R3                     23867                       END
 00224E 0700/4510 703C_            23875                       MODESET MODE=PROB         Always return to problem state
                                   23882
 00225E 58E0 74CC/0DEE       026E8 23883                       VCALL AMODE31             ********
                                   23887
 002264 58E0 759C/0DEE       027B8 23888                       ACALL CLEANUP             Do final cleanup
                                   23892
 00226A 0700/4510 7058_            23893                       MODESET KEY=ZERO          ********
 00227A 4110 6000            00000 23900                       LA    R1,SDWA             Needed for SETRP
 00227E 0700/9200 10FC             23901                       SETRP RC=0                Continue abending
 002282 0700/4510 7070_            23908                       MODESET KEY=NZERO         ********
 002292 1BFF                       23915                       CLEAR R15                 No retries
 002294 07F5                       23919                       BR    R5
                                   23920
 DROP   SDWA,R6                    23921                       DROP  SDWA,BR
 DROP   *,R7
                                   23935
 002298                            23936              TBLSTACK DS    200F                Trouble stack
1FAIL     (FAIL2025) (12:44) (15MAR04) WYLBUR's Dump Formatter                                                              Page   46
0Current Usings:  (CP,R11) (CV,R12)
0Loc    Object Code    Addr1 Addr2  Stmt Lv Lineno    Source Statement           (Hibal 5, Asmedit 3.3)  HLASM R4.0  2004/03/15 12.44
+___    ______ ____    _____ _____  ____ __ ______    ______ _________
0                                  23938              ¿þþþþþþþþþþþþþþþþþþþþþþþþþþþþþþþþþþþþþþþþþþþþþþþþþþþþþþþþþþþþþþþþþþþþþÜ
                                   23939              Ÿ                                                                     Ÿ
                                   23940              Ÿ  SHUTDOWN -- Routine to terminate WYLBUR normally.                  Ÿ
                                   23941              Ÿ                                                                     Ÿ
                                   23942              Ÿ    On entry:                                                        Ÿ
                                   23943              Ÿ      R15 - return code                                              Ÿ
                                   23944              Ÿ                                                                     Ÿ
                                                      ¾þþþþþþþþþþþþþþþþþþþþþþþþþþþþþþþþþþþþþþþþþþþþþþþþþþþþþþþþþþþþþþþþþþþþþ»
00025B8 50E0 D000/9008_      00000 23945              SHUTDOWN XPROC
 USING  *,R7
 0025D2 186F                       23985                       LR    R6,R15              Save return code
                                   23986
 0025D4 4DE0 7040            02612 23987                       LCALL CLEANUP             Do final cleanup
                                   23989
 0025D8 9140 C4C5/47E0_004C5       23990                       IF    CVFABEND,BEGIN      Abending...
 0025E0 1BFF                       24005  1                      CLEAR R15                 Stae rc (continue abending)
 0025E2 58E0 71EA            027BC 24009  1                      L     R14,=A(STAERTN)
 0025E6 58E0 E000            00000 24010  1                      L     R14,@R14
 0025EA 07FE                       24011  1                      BR    R14
 0025EC                            24012                       END
                                   24016
 0025EC 58E0 71EE/0DEE       027C0 24017                       VCALL STATSTOP            Terminate statistics subtask
 0025F2 58E0 71F2/0DEE       027C4 24021                       VCALL TIMRSTOP            Terminate timer subtask
 0025F8 58E0 71F6/0DEE       027C8 24025                       VCALL JESSTOP             Terminate JES interface
 0025FE 58E0 71FA/0DEE       027CC 24029                       VCALL DISKSTOP            Terminate I/O subtasks
 002604 58E0 71FE/0DEE       027D0 24033                       VCALL VTAMSTOP            Terminate VTAM operator stuff
 00260A 18F6                       24037                       LR    R15,R6              Rc
 00260C 58E0 C08C            0008C 24038                       L     R14,CVOSRA
 002610 07FE                       24039                       BR    R14
                                   24040
 DROP   *,R7                       24041                       DROP  BR
1FAIL     (FAIL2025) (12:44) (15MAR04) WYLBUR's Dump Formatter                                                              Page   47
0Current Usings:  (CP,R11) (CV,R12)
0Loc    Object Code    Addr1 Addr2  Stmt Lv Lineno    Source Statement           (Hibal 5, Asmedit 3.3)  HLASM R4.0  2004/03/15 12.44
+___    ______ ____    _____ _____  ____ __ ______    ______ _________
0                                  24049              ¿þþþþþþþþþþþþþþþþþþþþþþþþþþþþþþþþþþþþþþþþþþþþþþþþþþþþþþþþþþþþþþþþþþþþþÜ
                                   24050              Ÿ                                                                     Ÿ
                                   24051              Ÿ  CLEANUP -- Routine to do final termination cleanup.                Ÿ
                                   24052              Ÿ                                                                     Ÿ
                                                      ¾þþþþþþþþþþþþþþþþþþþþþþþþþþþþþþþþþþþþþþþþþþþþþþþþþþþþþþþþþþþþþþþþþþþþþ»
0002612 50E0 D000/9008_      00000 24053              CLEANUP  XPROC
 USING  *,R7
 00262C 9500 7070/4770_0269C       24093                       IF    (CLEANFLG,Z),BEGIN  Only once...
 002634 92FF 7070      0269C       24109  1                      MVI   CLEANFLG,X'FF'      Set first time flag
                                   24110  1
 002638 58E0 70C8/0DEE       026F4 24111  1                      VCALL FORCEOUT            Force recovery pages out
                                   24115  1
 00263E 58E0 71A8/0DEE       027D4 24116  1                      VCALL DOWNBILL            Force billing records out
                                   24120  1
 002644 58E0 71AC/0DEE       027D8 24121  1                      VCALL DISPSTOP            Free CSA for page I/O
 00264A 9102 C4C5/4710_004C5       24125  1                      IF    ~CVFTEST,BEGIN      Production version...
 002652 5850 0010            00010 24140  2                        L     R5,CVTPTR
 USING  CVT,R5                     24141  2                        WITH  (CVT,R5)
 002656 5840 50CC/1244       000CC 24154  2                        LT    R4,CVTUSER          Scip CVT ptr
 00265C 4780 7062            0268E 24158  2                        IF    Z,EXIT              None, scram
 USING  USERCVT,R4                 24172  2                        WITH  (USERCVT,R4)
 002660 D503 71B0 4000_027DC 00000 24185  2                        IF    (USERCVT,NE,'SCIP'),EXIT  Not ours, scram
 00266A 0700/4510 7048_            24205  2                        MODESET KEY=ZERO          ********
 00267A 94BF 4004      00004       24212  2                        CLEAR USEHSPFL.HSPFWYL    Wylbur is down
 00267E 0700/4510 705C_            24220  2                        MODESET KEY=NZERO         ********
 DROP   USERCVT,R4                 24227  1                      END
 DROP   CVT,R5
 00268E                            24241                       END
 00268E 18D8/9808 D004_            24245                       PEND
 DROP   *,R7
                                   24265
 00269C 00                         24266              CLEANFLG DC    X'00'               Set to FF after first time
                                   24267
                                   24268                       QLTORG
1FAIL     (FAIL2025) (12:44) (15MAR04) WYLBUR's Dump Formatter                                                              Page   48
0Current Usings:  (CP,R11) (CV,R12)
0Loc    Object Code    Addr1 Addr2  Stmt Lv Lineno    Source Statement           (Hibal 5, Asmedit 3.3)  HLASM R4.0  2004/03/15 12.44
+___    ______ ____    _____ _____  ____ __ ______    ______ _________
0                                  24348              ¿þþþþþþþþþþþþþþþþþþþþþþþþþþþþþþþþþþþþþþþþþþþþþþþþþþþþþþþþþþþþþþþþþþþþþÜ
                                   24349              Ÿ                                                                     Ÿ
                                   24350              Ÿ  FMTDUMP -- Routine to format a failsoft dump.                      Ÿ
                                   24351              Ÿ                                                                     Ÿ
                                   24352              Ÿ    On entry:                                                        Ÿ
                                   24353              Ÿ      R1 - SDWA ptr                                                  Ÿ
                                   24354              Ÿ                                                                     Ÿ
                                                      ¾þþþþþþþþþþþþþþþþþþþþþþþþþþþþþþþþþþþþþþþþþþþþþþþþþþþþþþþþþþþþþþþþþþþþþ»
00028D6 50E0 D000/9028_      00000 24355              FMTDUMP  XENTER R2,R8,,LOCAL
 USING  *,R7
 0028F0 1861                       24373                       LR    R6,R1
 USING  SDWA,R6                    24374                       USING SDWA,R6
                                   24383
 0028F2 58E0 7BD0/0DEE       034C0 24384                       ACALL FREESYSP            Free any previous SYSPRINT
 0028F8 58E0 7BD4/0DEE       034C4 24388                       ACALL ALLOSYSP            Allocate a new SYSPRINT
                                   24392
 0028FE 58F0 7BD8            034C8 24393                       L     R15,=A(PRTSEG)
 002902 50F0 B074            00074 24394                       ST    R15,CPSEGRTN        Set our SEG routine
                                   24395
 002906 41F0 B050/58E0_      00050 24396                       TCLEAR
 002910 D203 B054 7BE0 00054 034D0 24410                       MVC   CPSEGMAXF,=F'79'    Set maximum length
                                   24411
 002916 5820 7BE4            034D4 24412                       L     R2,=A(SYSPRINT)
 USING  DCB,R2                     24413                       WITH  (DCB,R2),BEGIN
 00291A D201 2052 7CCC 00052 035BC 24427  1                      MVC   DCBLRECL,=H'137'    Set for max
 002920 58E0 7BE8/0DEE       034D8 24428  1                      VCALL AMODE24             ********
 002926 0700/4510 7040_            24432  1                      OPEN  (SYSPRINT,(OUTPUT))
 002932 58E0 7BEC/0DEE       034DC 24438  1                      VCALL AMODE31             ********
 002938 9110 2030/47E0_00030       24442  1                      IF    ~DCBOFLGS.DCBOFOPN,FMTEXIT
 DROP   DCB,R2                     24461                       END
                                   24469
 002940 58F0 7BF0/92F1_      034E0 24470                       SETCC 1
 002948 4110 7BF4/4100_      034E4 24473                       TSEG  'Dump of job '
 00295A D503 C05D C4D8_0005D 004D8 24491                       IF    (CVWYLJBN,NE,CVBLANKS),'TSEG CVWYLJBN,,TB'
 002976 4110 C018/4100_      00018 24542                       TSEG  CVNAME,,T           Wylbur
 002988 D507 C018 C028_00018 00028 24570                       IF    (CVNAME,NE,CVWYLSSN),BEGIN
 002992 4110 7CCE/4100_      035BE 24588  1                      TSEG  ' ('
 0029A4 4110 C028/4100_      00028 24606  1                      TSEG  CVWYLSSN,,T
 0029B6 4110 7D6E/4100_      0365E 24634  1                      TSEG  ')'
 0029C8                            24652                       END
 0029C8 4110 7C0C/4100_      034FC 24656                       TSEG  ' on '
 0029DA 58E0 7C10/0DEE       03500 24674                       VCALL LOCALTOD            Current time/date
 0029E0 18FD/41D0 D020             24678                       XPUSH ,,32,PTR=R15
 0029E6 58E0 7C14/0DEE       03504 24681                       VCALL FMTCLCK
 0029EC 41F0 B050/58E0_      00050 24685                       TSEG  (R1),(R0)
 0029F6 4BD0 7CD0            035C0 24709                       XPOP  ,,32
 0029FA 1B00/41F0 B050_            24711                       TCR
 002A06 1B00/41F0 B050_            24736                       TCR
 002A12 5810 7C1C/4100_      0350C 24761                       TSEG  L:=V(VERSION),&LINESZ,T     version text
 002A24 1B00/41F0 B050_            24789                       TCR
 002A30 1B00/41F0 B050_            24814                       TCR
                                   24839
 002A3C 4110 C0F0/4100_      000F0 24840                       TSEG  CVFINFO,,CR         Abend information
1FAIL     (FAIL2025) (12:44) (15MAR04) WYLBUR's Dump Formatter                                                              Page   49
0Current Usings:  (SDWA,R6) (*,R7) (CP,R11) (CV,R12)
0Loc    Object Code    Addr1 Addr2  Stmt Lv Lineno    Source Statement           (Hibal 5, Asmedit 3.3)  HLASM R4.0  2004/03/15 12.44
+___    ______ ____    _____ _____  ____ __ ______    ______ _________
0                                  24868
 002A4E D503 606C 607C_0006C 0007C 24869                       IF    (SDWANXT1,NE,SDWANXT2),BEGIN
 002A58 4110 7D6F/4100_      0365F 24887  1                      TSEG  'Abend in SVC, at '
 002A6A 58F0 606C/1B00_      0006C 24905  1                      TPSW  SDWANXT1            Svc PSW ia
 002A76 1B00/41F0 B050_            24919  1                      TCR
 002A82 1B00/41F0 B050_            24944  1                      TCR
                                   24969  1
 002A8E 4110 7C24/4100_      03514 24970  1                      TSEG  'Active RB''s:',,CR
 002AA0 5850 0010            00010 24988  1                      L     R5,CVTPTR
 002AA4 5850 5000/5850_      00000 24989  1                      WITH  (CVT,R5),'L R5,CVTTCBP; L R5,4(,R5)'
 USING  CVT,R5
 DROP   CVT,R5
 USING  TCB,R5                     25014  1                      USING TCB,R5              Our TCB
 002AAC 58F0 5000            00020 25023  1                      L     R15,TCBRBP           First RB
 002AB0 1F44/BF47 F01D             25024  1                      WITH  (RB,R15),'L3 R4,RBLINKB'  Skip over stae RB
 USING  RB,R15
 DROP   RB,R15
 002AB6 1945/4780 7330             25055  1                      WHILE (R4,NE,R5),BEGIN
 USING  RB,R4                      25072  2                        WITH  (RB,R4)
 002ABC 1814/4100 0008_            25085  2                        THEX  (R4),8
 002ACC 4110 C4D8/4100_      004D8 25110  2                        TSEG  CVBLANKS,1
 002ADE 4110 7C34/4100_      03524 25140  2                        SETMSG 'PRB '
 002AE6 9140 400A/47E0_0004A       25144  2                        IF    RBSTAB1.RBFTIRB,'SETMSG "IRB "'
 002AF6 91C0 400A/47E0_0004A       25169  2                        IF    RBSTAB1.RBFTSVRB,'SETMSG "SVRB"'
 002B06 41F0 B050/58E0_      00050 25194  2                        TSEG  (R1),(R0)
 002B10 4110 7C40/4100_      03530 25218  2                        TSEG  ' at '
 002B22 58F0 4014/1B00_      00054 25236  2                        TPSW  RBOPSW+4
 002B2E 4110 7CD2/4100_      035C2 25250  2                        TSEG  ', '
 002B40 91C0 400A/47E0_0004A       25268  2                        IF    RBSTAB1.RBFTSVRB,BEGIN  get svc no...
 002B48 4110 7C44/4100_      03534 25284  3                          TSEG  'SVC '
 002B5A 1FFF/BFF7 401D             25302  3                          L3    R15,RBLINKB         Previous RB
 002B60 4BF0 7CD4            035C4 25310  3                          SH    R15,=H'2'           RB prefix
 002B64 4810 F000/1B00_      00000 25311  3                          TNUM  LH:@R15             RBINTCOD is the svc no
 002B74 4110 7CD2/4100_      035C2 25332  3                          TSEG  ', '
 002B86                            25350  2                        END
 002B86 91C0 400A/4710_0004A       25354  2                        IF    (RBSTAB1.RBFTSVRB,OR,~RBSTAB1.RBFTIRB),BEGIN
 002B96 1F22/BF27 400D_            25385  3                          IF    ('L3 R2,RBCDE1',Z),EXIT
 USING  CDE,R2                     25408  3                          WITH  (CDE,R2)
 002BA0 D507 7BB0 2008_034A0 00008 25421  3                          IF    (CDNAME,EQ,=XL8'00'),EXIT  no cdename
 002BAA 4110 2008/4100_      00008 25441  3                          TSEG  CDNAME,,T
 002BBC 4110 7D80/4100_      03670 25469  3                          TSEG  ', entry at '
 002BCE 1FFF/BFF7 2011_            25487  3                          TLOC  L3:CDENTPT+1        Entry point
 DROP   CDE,R2                     25506  2                        END
 002BDC 1B00/41F0 B050_            25515  2                        TCR
 002BE8 4110 7CD6/4100_      035C6 25540  2                        TSEG  '       Regs:  '
 002BFA 4800 7CE4            035D4 25558  2                        LH    R0,=H'-1'           Register print mask--all regs
 002BFE 4110 4020            00060 25559  2                        LA    R1,RBGRS0           R0-R15
 002C02 58E0 7C4C/0DEE       0353C 25560  2                        ACALL DUMPREGS
 002C08 1B00/41F0 B050_            25564  2                        TCR
 002C14 1FFF/BFF7 401D             25589  2                        L3    R15,RBLINKB         Next RB down (24-bit address)
 002C1A 184F                       25597  2                        LR    R4,R15              Set for loop
 002C1C 47F0 71C6            02AB6 25598  1                      END
 DROP   RB,R4
 DROP   TCB,R5                     25608  1                      DROP  TCB
1FAIL     (FAIL2025) (12:44) (15MAR04) WYLBUR's Dump Formatter                                                              Page   50
0Current Usings:  (SDWA,R6) (*,R7) (CP,R11) (CV,R12)
0Loc    Object Code    Addr1 Addr2  Stmt Lv Lineno    Source Statement           (Hibal 5, Asmedit 3.3)  HLASM R4.0  2004/03/15 12.44
+___    ______ ____    _____ _____  ____ __ ______    ______ _________
0002C20                            25616                       END
                                   25620
 002C20 1B00/41F0 B050_            25621                       TCR
 002C2C 4110 7C50/4100_      03540 25646                       TSEG  'Registers:  '
 002C3E 4800 7CE4            035D4 25664                       LH    R0,=H'-1'           Print all regs
 002C42 5810 7C5C            0354C 25665                       L     R1,=A(KAPREGS)      R0-R15 regs
 002C46 58E0 7C4C/0DEE       0353C 25666                       ACALL DUMPREGS
                                   25670
 002C4C 5820 7C60            03550 25671                       L     R2,=V(DISKCLCK)
 002C50 58F0 2000/12FF_      00000 25672                       IF    ('LT R15,@R2',NZ),BEGIN  there was a subtask abend...
 002C5A 5850 7C64            03554 25688  1                      L     R5,=V(DISKSCB)      Subtask's SCB info
 DROP   SDWA,R6                    25689  1                      WITH  (SDWA,R5)
 USING  SDWA,R5
 002C5E 1B00/41F0 B050_            25710  1                      TCR
 002C6A 1B00/41F0 B050_            25735  1                      TCR
 002C76 4110 7D8B/4100_      0367B 25760  1                      TSEG  'I/O Subtask Abend at '
 002C88 9801 2000            00000 25778  1                      LM    R0,R1,@R2
 002C8C 18FD/41D0 D020             25779  1                      XPUSH ,,32,PTR=R15
 002C92 58E0 7C14/0DEE       03504 25782  1                      VCALL FMTCLCK             hh:mm:ss mm/dd/yy
 002C98 41F0 B050/58E0_      00050 25786  1                      TSEG  (R1),(R0),WR
 002CA2 4BD0 7CD0            035C0 25810  1                      XPOP  ,,32
 002CA6 1B00/41F0 B050_            25812  1                      TCR
 002CB2 4110 7CE6/4100_      035D6 25837  1                      TSEG  'Abend '
 002CC4 58F0 5004            00004 25855  1                      L     R15,SDWAABCC
 002CC8 4110 BC88            00C88 25856  1                      LA    R1,CPDOUB
 002CCC 58E0 7C6C/0DEE       0355C 25857  1                      ACALL ABENDCD
 002CD2 41F0 B050/58E0_      00050 25861  1                      TSEG  (R1),(R0)
 002CDC 4110 7C40/4100_      03530 25885  1                      TSEG  ' at '
 002CEE 58F0 506C/1B00_      0006C 25903  1                      TPSW  SDWANXT1            PSW ia
 002CFA 1B00/41F0 B050_            25917  1                      TCR
                                   25942  1
 002D06 4110 7CEC/4100_      035DC 25943  1                      TSEG  'Problem program registers:',,CR
 002D18 4110 7C70/4100_      03560 25961  1                      TSEG  '    '
 002D2A 4800 7CE4            035D4 25979  1                      LH    R0,=H'-1'           Print all regs
 002D2E 4110 5088            00088 25980  1                      LA    R1,SDWASRSV
 002D32 58E0 7C4C/0DEE       0353C 25981  1                      ACALL DUMPREGS
                                   25985  1
 002D38 1B00/41F0 B050_            25986  1                      TCR
 002D44 4110 7D6F/4100_      0365F 26011  1                      TSEG  'Abend in SVC, at '
 002D56 58F0 507C/1B00_      0007C 26029  1                      TPSW  SDWANXT2            Svc PSW ia
 002D62 1B00/41F0 B050_            26043  1                      TCR
                                   26068  1
 002D6E 4110 7D06/4100_      035F6 26069  1                      TSEG  'Registers when abend occurred:',,CR
 002D80 4110 7C70/4100_      03560 26087  1                      TSEG  '    '
 002D92 4800 7CE4            035D4 26105  1                      LH    R0,=H'-1'           Print all regs
 002D96 4110 5018            00018 26106  1                      LA    R1,SDWAGRSV
 002D9A 58E0 7C4C/0DEE       0353C 26107  1                      ACALL DUMPREGS
 USING  SDWA,R6                    26111                       END
 DROP   SDWA,R5
 002DA0 1B00/41F0 B050_            26129                       TCR
                                   26154
 002DAC 4810 C0D4/1B00_      000D4 26155                       TNUM  LH:CVNUSERS         No. of logged on users
 002DBC 4110 7BB8/4100_      034A8 26176                       TSEG  ' users logged on'
 002DCE 9108 C4C5/47E0_004C5       26194                       IF    CVFINIT,'TSEG " -- in init"'
1FAIL     (FAIL2025) (12:44) (15MAR04) WYLBUR's Dump Formatter                                                              Page   51
0Current Usings:  (SDWA,R6) (*,R7) (CP,R11) (CV,R12)
0Loc    Object Code    Addr1 Addr2  Stmt Lv Lineno    Source Statement           (Hibal 5, Asmedit 3.3)  HLASM R4.0  2004/03/15 12.44
+___    ______ ____    _____ _____  ____ __ ______    ______ _________
0002DE8 9110 C4C5/47E0_004C5       26232                       IF    CVFRCVY,'TSEG " -- running recovery"'
 002E02 9120 C4C6/47E0_004C6       26270                       IF    CVFPUSR,'TSEG " -- pseudo user"'
 002E1C 1B00/41F0 B050_            26308                       TCR
                                   26333
 002E28 58F0 C1C8/12FF       001C8 26334                       LT    R15,CVCURJCB        Current user's JCB
 002E2E 4780 7666            02F56 26338                       IF    NZ,BEGIN
 002E32 5850 F014            00014 26349  1                      WITH  (JCB,R15),'L R5,JCBCPX'  Current user's CP ptr
 USING  JCB,R15
 DROP   JCB,R15
 DROP   CP,R11                     26373  1                      WITH  (CP,R5)
 USING  CP,R5
                                   26394  1
 002E36 D501 7D24 5000_03614 00000 26395  1                      IF    (CP,NE,'CP'),EXIT   Screwy CP, scram
 002E40 9500 53B4/4780_003B4       26415  1                      IF    (CPSUSER,EQ,X'00'),EXIT  Not logged on, scram
                                   26435  1                      SEGDEF CPSEG-CP(CPR)      Use our CPSEG buffer
 002E48 4110 7DBA/4100_      036AA 26436  1                      SEGCR 'Current user:'
 002E5A 1B00/41FB 0050_            26454  1                      SEGCR
 002E66 4110 7DC7/4100_      036B7 26478  1                      SEG   'User '
 002E78 4110 53B7/4100_      003B7 26495  1                      SEG   CPSGRP
 002E8A 4110 7DCC/4100_      036BC 26522  1                      SEG   '.'
 002E9C 4110 53B4/4100_      003B4 26539  1                      SEG   CPSUSER
 002EAE 4110 7DCD/4100_      036BD 26566  1                      SEG   ', line '
 002EC0 5840 C1C8            001C8 26583  1                      L     R4,CVCURJCB
 002EC4 4810 4048/1B00_      00048 26584  1                      WITH  (JCB,R4),'SEGDC LH:JCBSEQ'
 USING  JCB,R4
 DROP   JCB,R4
 002ED4 1B00/41FB 0050_            26627  1                      SEGCR
 002EE0 9180 5758/47E0_00758       26651  1                      IF    CPFEXEC,'SEG "EXEC FILE "'
 002EFA 4110 7DD4/4100_      036C4 26688  1                      SEG   'Command: '
 002F0C 4110 5242/4100_      00242 26705  1                      SEGCR CPCMD
                                   26733  1
 002F1E 5820 505C/1222_      0005C 26734  1                      IF    ('LT R2,CPSEGLENF',NZ),BEGIN
 002F28 4110 7BC8/4100_      034B8 26750  2                        SEG   'Write:  '
 002F3A 5810 5070/1802_      00070 26767  2                        SEGCR L:CPSEGLOC,(R2)
 002F4A                            26793  1                      END
                                   26797  1
 002F4A 1B00/41FB 0050_            26798  1                      SEGCR
 USING  CP,R11                     26822                       END
 DROP   CP,R5
                                   26840                       ¿þþþþþþþþþþþþþþþþþþþþþþþþþþþþþþþþþþþþÜ
                                   26841                       Ÿ  Display page buffer information.  Ÿ
                                   26842                       ¾þþþþþþþþþþþþþþþþþþþþþþþþþþþþþþþþþþþþ»
 002F56 9140 C4C8/4710_004C8       26843                       IF    ~CVFMEMPAGE,BEGIN   Display paging information...
 002F5E 1B00/41F0 B050_            26858  1                      TCR
 002F6A 1B00/41F0 B050_            26883  1                      TCR
 002F76 4110 7C88/4100_      03578 26908  1                      TSEG  'Page Queues:',,CR
 002F88 1B00/41F0 B050_            26926  1                      TCR
                                   26951  1
 002F94 4110 7D30/4100_      03620 26952  1                      SETMSG '  BUFFER Queue'
 002F9C 41F0 C1F0            001F0 26956  1                      LA    R15,CVBUFQ          Buffer queue
 002FA0 58E0 7C94/0DEE       03584 26957  1                      VCALL FMTPGQ
                                   26961  1
 002FA6 4110 7D3E/4100_      0362E 26962  1                      SETMSG '   EMPTY Queue'
 002FAE 41F0 C1E8            001E8 26966  1                      LA    R15,CVEMBUFQ        Empty buffer queue
1FAIL     (FAIL2025) (12:44) (15MAR04) WYLBUR's Dump Formatter                                                              Page   52
0Current Usings:  (SDWA,R6) (*,R7) (CP,R11) (CV,R12)
0Loc    Object Code    Addr1 Addr2  Stmt Lv Lineno    Source Statement           (Hibal 5, Asmedit 3.3)  HLASM R4.0  2004/03/15 12.44
+___    ______ ____    _____ _____  ____ __ ______    ______ _________
0002FB2 58E0 7C94/0DEE       03584 26967  1                      VCALL FMTPGQ
 002FB8                            26971                       END
                                   26975                       ¿þþþþþþþþþþþþþþþþþÜ
                                   26976                       Ÿ  Display JCBS.  Ÿ
                                   26977                       ¾þþþþþþþþþþþþþþþþþ»
 002FB8 D203 B054 7C98 00054 03588 26978                       MVC   CPSEGMAXF,=F'132'   Set new width
 002FBE 58F0 7BF0/92F1_      034E0 26979                       SETCC 1
 002FC6 4110 7DDD/4100_      036CD 26982                       TSEG  'Active Users:',,CR
 002FD8 1B00/41F0 B050_            27000                       TCR
 002FE4 5810 C1C0            001C0 27025                       L     R1,CVFJCB
 002FE8 58E0 7C9C/0DEE_      0358C 27026                       LOOP  'ACALL JCBDISP; UNTIL Z'  Display all JCBs
                                   27057
 002FF6 1B00/41F0 B050_            27058                       TCR
 003002 58F0 7BF0/92F1_      034E0 27083                       SETCC 1
 00300A 4110 7DEA/4100_      036DA 27086                       TSEG  'Trace Table',,CR
 00301C 1B00/41F0 B050_            27104                       TCR
 003028 4110 7B4E/4100_      0343E 27129                       TSEG  TRCTITLE,,CR
 00303A 4110 7B7C/4100_      0346C 27157                       TSEG  TRCTDASH,,CR
                                   27185              **  Display the trace table in FILO (LIFO?) order.  i.e. backwards.
 00304C 5850 7CA0            03590 27186                       L     R5,=A(TRCAREA)
 USING  TRCAREA,R5                 27187                       WITH  (TRCAREA,R5),BEGIN
 003050 5840 5000            007A4 27201  1                      L     R4,TRCNEXT
 003054                            27202  1                      LOOP  BEGIN
 USING  TRE,R4                     27208  2                        WITH  (TRE,R4)
 003054 4B40 7D4C            0363C 27221  2                        SH    R4,=AL2(L'TRE)      Backup
 003058 5940 5004/47B0_      007A8 27222  2                        IF    (R4,LT,TRCSTRT),'L R4,TRCEND; SH R4,=AL2(L"TRE)'  wrp
 003068 9180 4008/47E0_00008       27246  2                        IF    ~TREFDEF,EXIT
 003070 4110 4000/4100_      00000 27264  2                        THEX  LA:TRE,8            Trace entry addr
 003082 4110 C4D8/4100_      004D8 27289  2                        TSEG  CVBLANKS,1
 003094 4110 4000/4100_      00000 27319  2                        TSEG  TRENAME
 0030A6 4110 7C40/4100_      03530 27347  2                        TSEG  ' at '
 0030B8 58F0 403C/1B00_      0003C 27365  2                        TPSW  TREADDR
 0030C4 4100 0028/41F0_      00028 27379  2                        TCOL  40                  Try and keep some alignment
 0030D2 9140 4008/47E0_00008       27400  2                        IF    TREFENTR,BEGIN      Give caller if entry trace
 0030DA 58F0 4044/1B00_      00044 27415  3                          TPSW  TREREGS+(RAR*4)     Caller's addr
 0030E6 4110 7CD2/4100_      035C2 27429  3                          TSEG  ', '
 0030F8                            27447  2                        END
                                   27451  2
 0030F8 9120 4008/47E0_00008       27452  2                        IF    TREFDATA,BEGIN      User data...
 003100 4110 7DF5/4100_      036E5 27467  3                          TSEG  'Data='
 003112 5810 4050/4100_      00050 27485  3                          THEX  TREDATA,8
 003124 4110 C4D8/4100_      004D8 27510  3                          TSEG  CVBLANKS,1
 003136 5810 4054/4100_      00054 27540  3                          THEX  TREDATA+4,8
 003148 4110 7CD2/4100_      035C2 27565  3                          TSEG  ', '
 00315A                            27583  2                        END
 00315A 4800 400A            0000A 27587  2                        LH    R0,TRERGMSK         Register print mask
 00315E 5400 7CA8            03598 27588  2                        N     R0,=A(B'1111111111110111')  Pointless to display R12
 003162 4110 400C            0000C 27589  2                        LA    R1,TREREGS
 003166 58E0 7C4C/0DEE       0353C 27590  2                        ACALL DUMPREGS
 00316C 5940 5000/4780_      007A4 27594  2                        UNTIL (R4,EQ,TRCNEXT)
 003174 47F0 7764            03054 27615  1                      END
 DROP   TRE,R4
 DROP   TRCAREA,R5                 27625                       END
                                   27633
1FAIL     (FAIL2025) (12:44) (15MAR04) WYLBUR's Dump Formatter                                                              Page   53
0Current Usings:  (SDWA,R6) (*,R7) (CP,R11) (CV,R12)
0Loc    Object Code    Addr1 Addr2  Stmt Lv Lineno    Source Statement           (Hibal 5, Asmedit 3.3)  HLASM R4.0  2004/03/15 12.44
+___    ______ ____    _____ _____  ____ __ ______    ______ _________
0003178 58F0 7BF0/92F1_      034E0 27634              FMTTRCDN SETCC 1
 003180 4110 7DFA/4100_      036EA 27637                       TSEG  'Symbol Table:',,CR
 003192 1B00/41F0 B050_            27655                       TCR
 00319E 58E0 7CAC/0DEE       0359C 27680                       ACALL SYMDISP
                                   27684                       ¿þþþþþþþþþþþþþþþþþþþþþþþþþþþþþþþþþþþþþþþþþþþþþþþþþþþþþþþþþþþþþÜ
                                   27685                       Ÿ  Display NPATHs.                                            Ÿ
                                   27686                       Ÿ    Show this after the current user to keep Charley happy.  Ÿ
                                   27687                       ¾þþþþþþþþþþþþþþþþþþþþþþþþþþþþþþþþþþþþþþþþþþþþþþþþþþþþþþþþþþþþþ»
 0031A4 58F0 7BF0/92F1_      034E0 27688                       SETCC 1
 0031AC 58E0 7CB0/0DEE       035A0 27691                       VCALL NETFMT              Format network information
                                   27695
 0031B2 58F0 7BF0/92F1_      034E0 27696                       SETCC 1
 0031BA 4110 7E07/4100_      036F7 27699                       TSEG  'CV:'
 0031CC 181C/4100 0FB0_            27717                       TCORE CV                  Fixed part of CV
 0031DA 58F0 7BF0/92F1_      034E0 27740                       SETCC 1
 0031E2 4110 7E0A/4100_      036FA 27743                       TSEG  'CV Stack:'
 0031F4 5810 C270/5800_      00270 27761                       TCORE L:CVDSTK,L:=A(64*1024)  First 64k of disp. stack
                                   27782
 003204 58F0 7BF0/92F1_      034E0 27783                       SETCC 1
 00320C 58F0 C1C8/12FF       001C8 27786                       LT    R15,CVCURJCB
 003212 4780 7A2A            0331A 27790                       IF    NZ,BEGIN
 003216 5820 F014            00014 27801  1                      WITH  (JCB,R15),'L R2,JCBCPX'  User's CP ptr
 USING  JCB,R15
 DROP   JCB,R15
 00321A 4110 7E13/4100_      03703 27825  1                      TSEG  'CP:'
 00322C 1812/4800 7D4E_            27843  1                      TCORE (R2),LH:=AL2(CPXSIZE)  Display user's CP
 00323A 1B00/41F0 B050_            27863  1                      TCR
 003246 1B00/41F0 B050_            27888  1                      TCR
                                   27913  1
 003252 58F0 7BF0/92F1_      034E0 27914  1                      SETCC 1
 00325A 4110 7E16/4100_      03706 27917  1                      TSEG  'CP Stack:'
 00326C 5810 7CBC            035AC 27935  1                      L     R1,=A(STAESTKP)
 003270 5810 1000            00000 27936  1                      L     R1,@R1
 003274 58F0 C274            00274 27937  1                      L     R15,CVSTACK
 003278 1BF1                       27938  1                      SR    R15,R1              Compute address adjustment
 00327A 5820 7C5C            0354C 27939  1                      L     R2,=A(KAPREGS)
 00327E 5822 0034            00034 27940  1                      L     R2,13*4(R2)         Now attempt to compute stack len
 003282 1802                       27941  1                      LR    R0,R2               Saved R13  (assumed end of stack)
 003284 5820 C274            00274 27942  1                      L     R2,CVSTACK
 003288 1B02                       27943  1                      SR    R0,R2
 00328A 1200/47D0 79A4_            27944  1                      IF    (R0,POS),' A R0,=F"4096" '  plus a bit
 003294 1200/4740 79B2_            27964  1                      IF    ((R0,NEG),OR,(R0,GT,CVSTACKL)),BEGIN if r13 was junk
 0032A2 5800 C26C            0026C 27994  2                        L     R0,CVSTACKL                          use whole stack
 0032A6                            27995  1                      END
 0032A6 58E0 7CB4/0DEE       035A4 27999  1                      TCORE (R1),(R0),ADJUST=(R15)  Disp saved stack
                                   28018  1
 0032AC 58F0 C1C8            001C8 28019  1                      L     R15,CVCURJCB        check for IOWA area
 0032B0 5820 F014            00014 28020  1                      WITH  (JCB,R15),'L R2,JCBCPX'  User's CP ptr
 USING  JCB,R15
 DROP   JCB,R15
 0032B4 5A20 7CC4            035B4 28044  1                      A     R2,=A(CPIOWAP-CP)
 0032B8 5822 0000            00000 28045  1                      L     R2,0(R2)
 0032BC 1222/4780 7A00             28046  1                      IF    (R2,NZ),BEGIN
 0032C2 58F0 7BF0/92F1_      034E0 28060  2                        SETCC 1
1FAIL     (FAIL2025) (12:44) (15MAR04) WYLBUR's Dump Formatter                                                              Page   54
0Current Usings:  (SDWA,R6) (*,R7) (CP,R11) (CV,R12)
0Loc    Object Code    Addr1 Addr2  Stmt Lv Lineno    Source Statement           (Hibal 5, Asmedit 3.3)  HLASM R4.0  2004/03/15 12.44
+___    ______ ____    _____ _____  ____ __ ______    ______ _________
00032CA 4110 7E1F/4100_      0370F 28063  2                        TSEG  'Iowa:'
 0032DC 5810 7CC8            035B8 28081  2                        L     R1,=V(IOWASIZE)
 0032E0 5801 0000            00000 28082  2                        L     R0,0(R1)
 0032E4 1812/1BFF/1300_            28083  2                        TCORE (R2),(R0),NOADDR
 0032F0                            28104  1                      END
                                   28108  1
 0032F0 58F0 7BF0/92F1_      034E0 28109  1                      SETCC 1
 0032F8 4110 7E24/4100_      03714 28112  1                      TSEG  'Heap space:'
 00330A 5810 C280/5800_      00280 28130  1                      TCORE L:CVHEAP,L:CVHEAPL  Display heap
 00331A                            28151                       END
                                   28155
 00331A 5830 7CA0            03590 28156                       L     R3,=A(TRCAREA)
 USING  TRCAREA,R3                 28157                       WITH  (TRCAREA,R3),BEGIN
 00331E 5820 304C/1222_      007F0 28171  1                      IF    ('LT R2,KAPREGS+PAR*4',NZ),BEGIN  Got a page A...
 003328 58F0 7BF0/92F1_      034E0 28187  2                        SETCC 1
 003330 4110 7D50/4100_      03640 28190  2                        TSEG  'Page A Buffer:'
 003342 1812/4800 7D5E_            28208  2                        TCORE (R2),LH:=AL2(CVPSZ),NOADDR
 003352                            28229  1                      END
 003352 5820 3050/1222_      007F4 28233  1                      IF    ('LT R2,KAPREGS+PBR*4',NZ),BEGIN  Got a page B...
 00335C 58F0 7BF0/92F1_      034E0 28249  2                        SETCC 1
 003364 4110 7D60/4100_      03650 28252  2                        TSEG  'Page B Buffer:'
 003376 1812/4800 7D5E_            28270  2                        TCORE (R2),LH:=AL2(CVPSZ),NOADDR
 003386                            28291  1                      END
 DROP   TRCAREA,R3                 28295                       END
                                   28303
 003386 1B00/41F0 B050_            28304                       TCR
 003392 1B00/41F0 B050_            28329                       TCR
 00339E 4110 7E2F/4100_      0371F 28354                       TSEG  'Ciao!'
 0033B0 1B00/41F0 B050_            28372                       TWRITE
                                   28397
 0033BC 5820 7BE4            034D4 28398                       L     R2,=A(SYSPRINT)
 0033C0 9110 2030/47E0_00030       28399                       IF    @R2+(DCBOFLGS-DCB).DCBOFOPN,BEGIN  If open...
 0033C8 58E0 7BE8/0DEE       034D8 28415  1                      VCALL AMODE24             ********
 0033CE 0700/4510 7AE8_            28419  1                      CLOSE (SYSPRINT)
 0033DA 1812/9101 1017_            28425  1                      FREEPOOL (R2)
 003426 58E0 7BEC/0DEE       034DC 28451  1                      VCALL AMODE31             ********
 00342C                            28455                       END
 00342C 58E0 7BD0/0DEE       034C0 28459                       ACALL FREESYSP            Free SYSPRINT now
 003432 18D8/58E0 D000_            28463              FMTEXIT  XEXIT
 DROP   SDWA,R6                    28468                       DROP  SDWA,BR
 DROP   *,R7
                                   28482
 00343E 404040C184849940           28483              TRCTITLE DC C'   Addr    Id        Trace address        Data'
 00346C 6060606060606060           28484              TRCTIDS  DC    (L'TRCTITLE)C'-'
                                   28485              TRCTDASH EQU   TRCTIDS,*-TRCTIDS
                                   28486
                                   28487                       QLTORG
1FAIL     (FAIL2025) (12:44) (15MAR04) WYLBUR's Dump Formatter                                                              Page   55
0Current Usings:  (CP,R11) (CV,R12)
0Loc    Object Code    Addr1 Addr2  Stmt Lv Lineno    Source Statement           (Hibal 5, Asmedit 3.3)  HLASM R4.0  2004/03/15 12.44
+___    ______ ____    _____ _____  ____ __ ______    ______ _________
0                                  28595              ¿þþþþþþþþþþþþþþþþþþþþþþþþþþþþþþþþþþþþþþþþþþþþþþþþþþþþþþþþþþþþþþþþþþþþþÜ
                                   28596              Ÿ                                                                     Ÿ
                                   28597              Ÿ  ABENDCD -- Routine to format an abend code.                        Ÿ
                                   28598              Ÿ                                                                     Ÿ
                                   28599              Ÿ    On entry:                                                        Ÿ
                                   28600              Ÿ      R15 - abend code (in xxsssuuu format)                          Ÿ
                                   28601              Ÿ      R1 - address of an 8 byte result area                          Ÿ
                                   28602              Ÿ                                                                     Ÿ
                                   28603              Ÿ    On exit:                                                         Ÿ
                                   28604              Ÿ      R1,R0 - result loc, len                                        Ÿ
                                   28605              Ÿ                                                                     Ÿ
                                                      ¾þþþþþþþþþþþþþþþþþþþþþþþþþþþþþþþþþþþþþþþþþþþþþþþþþþþþþþþþþþþþþþþþþþþþþ»
0003724 50E0 D000/9028_      00000 28606              ABENDCD  XENTER R2,R8,,LOCAL
 USING  *,R7
 00373E 1861                       28624                       LR    R6,R1
 003740 D207 6000 C4D8 00000 004D8 28625                       MVC   @R6(8),CVBLANKS
                                   28626
 003746 182F                       28627                       LR    R2,R15
 003748 183F                       28628                       LR    R3,R15
 00374A 5430 706A            037A8 28629                       N     R3,=A(X'FFF000')    Isolate system code
 00374E 4780 7032            03770 28630                       IF    NZ,BEGIN            Do if system abend code
 003752 92E2 6000      00000       28641  1                      MVI   @R6,C'S'
 003756 8830 000C            0000C 28642  1                      SRL   R3,12               Move over
 00375A 18F3/4100 0003_            28643  1                      BTX   @R6+1,3,(R3)        Abend code--Shhh
 00376A 1816/4100 0004             28666  1                      SETMSG (R6),4
 003770                            28680                       END
 003770 7036/47F0 7058 03770 03750 28684                       ELSE  BEGIN               Otherwise, it's a user abend
 003774 92E4 6000      00000       28695  1                      MVI   @R6,C'U'
 003778 5420 7072            037B0 28696  1                      N     R2,=A(X'FFF')       Only keep user code
 00377C 5A20 7076            037B4 28697  1                      A     R2,=A(10000)        Ensures four leading zeros
 003780 18F2/4100 0004_            28698  1                      BTD   @R6+1,4,(R2)        Abend code--Udddd
 003790 1816/4100 0005             28721  1                      SETMSG (R6),5
 003796                            28735                       END
 003796 18D8/58E0 D000_            28739                       XEXIT
 DROP   *,R7                       28744                       DROP  BR
                                   28751                       DROP  BR
                                   28755
                                   28756                       QLTORG
1FAIL     (FAIL2025) (12:44) (15MAR04) WYLBUR's Dump Formatter                                                              Page   56
0Current Usings:  (CP,R11) (CV,R12)
0Loc    Object Code    Addr1 Addr2  Stmt Lv Lineno    Source Statement           (Hibal 5, Asmedit 3.3)  HLASM R4.0  2004/03/15 12.44
+___    ______ ____    _____ _____  ____ __ ______    ______ _________
0                                  28774              ¿þþþþþþþþþþþþþþþþþþþþþþþþþþþþþþþþþþþþþþþþþþþþþþþþþþþþþþþþþþþþþþþþþþþþþÜ
                                   28775              Ÿ                                                                     Ÿ
                                   28776              Ÿ  SYMDISP -- Routine to display the symbol table.                    Ÿ
                                   28777              Ÿ                                                                     Ÿ
                                                      ¾þþþþþþþþþþþþþþþþþþþþþþþþþþþþþþþþþþþþþþþþþþþþþþþþþþþþþþþþþþþþþþþþþþþþþ»
00037BC 50E0 D000/9058_      00000 28778              SYMDISP  XENTER R5,R8,,LOCAL
 USING  *,R7
 0037D6 5850 7F1A            046F0 28796                       L     R5,=A(SYMBOLS)      Start of symbol table
 USING  SYMBOL,R5                  28797                       USING SYMBOL,R5
 0037DA 95FF 5000/4780_00000       28806                       UNTIL SYMFEND,BEGIN
 0037E2 1F11/BF17 5001_            28826  1                      THEX  L3:SYMADDR,8
 0037F6 4110 C4D8/4100_      004D8 28857  1                      TSEG  CVBLANKS,1
 003808 4110 5008/4100_      00008 28887  1                      TSEG  SYMNAME,,T
 00381A 9180 5000/47E0_00000       28915  1                      IF    SYMFCSCT,BEGIN      Csect's have idents...
 003822 4100 000E/41F0_      0000E 28930  2                        TCOL  14
 003830 1FFF/BFF7 5001_            28951  2                        IF    ('L3 R15,SYMADDR',Z),EXIT
 00383A 9513 F000/4740_00000       28974  2                        IF    ((@R15,LT,X'13'),OR,(@R15,GT,X'18')),EXIT  Bad len byte
 00384A 91C0 F001/47E0_00001       29008  2                        IF    (@R15+1.X'C0',~ONES),EXIT  Not alpha
 003852 4110 F001/1F00_      00001 29029  2                        TSEG  @R15+1,LC:@R15,T
 003866                            29060  1                      END
 003866 1B00/41F0 B050_            29064  1                      TCR
 003872 4150 5010            00010 29089  1                      LA    R5,SYMNEXT
 003876 47F0 7004            037DA 29090                       END
 00387A 18D8/58E0 D000_            29095                       XEXIT R5,R8
 DROP   SYMBOL,R5                  29100                       DROP  SYMBOL,BR
 DROP   *,R7
1FAIL     (FAIL2025) (12:44) (15MAR04) WYLBUR's Dump Formatter                                                              Page   57
0Current Usings:  (CP,R11) (CV,R12)
0Loc    Object Code    Addr1 Addr2  Stmt Lv Lineno    Source Statement           (Hibal 5, Asmedit 3.3)  HLASM R4.0  2004/03/15 12.44
+___    ______ ____    _____ _____  ____ __ ______    ______ _________
0                                  29115              ¿þþþþþþþþþþþþþþþþþþþþþþþþþþþþþþþþþþþþþþþþþþþþþþþþþþþþþþþþþþþþþþþþþþþþþÜ
                                   29116              Ÿ                                                                     Ÿ
                                   29117              Ÿ  JCBDISP -- Routine to format a JCB.                                Ÿ
                                   29118              Ÿ                                                                     Ÿ
                                   29119              Ÿ    On entry:                                                        Ÿ
                                   29120              Ÿ      R1 - JCB addr                                                  Ÿ
                                   29121              Ÿ                                                                     Ÿ
                                   29122              Ÿ    On exit:                                                         Ÿ
                                   29123              Ÿ      R1 - next JCB addr (or zero)                                   Ÿ
                                   29124              Ÿ                                                                     Ÿ
                                                      ¾þþþþþþþþþþþþþþþþþþþþþþþþþþþþþþþþþþþþþþþþþþþþþþþþþþþþþþþþþþþþþþþþþþþþþ»
0003886 50E0 D000/9028_      00000 29125              JCBDISP  XENTER R2,R8,,LOCAL
 USING  *,R7
 0038A0 1851                       29143                       LR    R5,R1
 USING  JCB,R5                     29144                       USING JCB,R5
 0038A2 9180 5060/4710_00060       29153                       IF    JCBWFSO,DJCBNEXT    Skip logged off user
 0038AA 4110 5000/4100_      00000 29171                       THEX  LA:JCB,8
 0038BC 4110 7EF0/4100_      04790 29196                       TSEG  ' Line '
 0038CE 4810 5048/1B00_      00048 29214                       TNUM  LH:JCBSEQ
 0038DE D604 504A 504A_0004A 0004A 29235                       IF    (JCBACCT,NZ),BEGIN
 0038E8 4110 C4D8/4100_      004D8 29251  1                      TSEG  CVBLANKS,1
 0038FA 4110 504D/4100_      0004D 29281  1                      TSEG  JCBGRP
 00390C 4110 7F62/4100_      04802 29309  1                      TSEG  '.'
 00391E 4110 504A/4100_      0004A 29327  1                      TSEG  JCBUSER
 003930 D501 7EF6 504F_04796 0004F 29355  1                      IF    (JCBANO,GT,1),BEGIN
 00393A 4110 7F63/4100_      04803 29373  2                        TSEG  '#'
 00394C 1F11/BF13 504F_            29391  2                        TNUM  L2:JCBANO
 00395E                            29419  1                      END
 00395E                            29423                       END
                                   29427
 00395E 4110 7D88/4100_      04628 29428                       TSEG  ' (Pages='
 003970 4810 5030/1B00_      00030 29446                       TNUM  LH:JCBNPG
 003980 4110 7F64/4100_      04804 29467                       TSEG  ')'
                                   29485
 003992 5840 5014/1244_      00014 29486                       IF    ('LT R4,JCBCPX',POS),BEGIN
 00399C 58F4 0B60/12FF       00B60 29502  1                      LT    R15,CPLINTP-CP(R4)  Does user have View stuff?
 0039A2 4780 7118/4110_      039B8 29506  1                      IF    NZ,'TSEG " (View)"'
 0039B8                            29540                       END
                                   29544
 0039B8 D601 5034 5034_00034 00034 29545                       IF    (JCBFCNT,NZ),BEGIN
 0039C2 4110 7EF8/4100_      04798 29561  1                      TSEG  ' ('
 0039D4 4810 5034/1B00_      00034 29579  1                      TNUM  LH:JCBFCNT
 0039E4 4110 7F6C/4100_      0480C 29600  1                      TSEG  ' failsofts)'
 0039F6                            29618                       END
                                   29622
 0039F6 5950 C1C8/4770_      001C8 29623                       IF    (R5,EQ,CVCURJCB),'TSEG " (Current)"'
 003A10 9102 5062/47E0_00062       29663                       IF    JCBFATTN,'TSEG " (Attn)"'
 003A2A 9140 5062/47E0_00062       29701                       IF    JCBFNATN,'TSEG " (Attn disabled)"'
 003A44 9108 5062/47E0_00062       29739                       IF    JCBFPATN,'TSEG " (Pending Attn)"'
 003A5E 9180 5062/47E0_00062       29777                       IF    JCBAFALO,'TSEG " (Logging off)"'
 003A78 9101 5060/47E0_00060       29815                       IF    JCBWFERR,'TSEG " (Stopped)"'
                                   29853
 003A92 9500 5060/4780_00060       29854                       IF    (JCBWFL,NZ),BEGIN
1FAIL     (FAIL2025) (12:44) (15MAR04) WYLBUR's Dump Formatter                                                              Page   58
0Current Usings:  (JCB,R5) (*,R7) (CP,R11) (CV,R12)
0Loc    Object Code    Addr1 Addr2  Stmt Lv Lineno    Source Statement           (Hibal 5, Asmedit 3.3)  HLASM R4.0  2004/03/15 12.44
+___    ______ ____    _____ _____  ____ __ ______    ______ _________
0003A9A 4110 7F1C/4100_      047BC 29870  1                      TSEG  ' (Wait flags: '
 003AAC 4810 5060/4100_      00060 29888  1                      THEX  LH:JCBWFL,4
 003ABE 4110 7F64/4100_      04804 29912  1                      TSEG  ')'
 003AD0                            29930                       END
                                   29934
 003AD0 5840 5008/1244_      00008 29935                       IF    ('LT R4,JCBDSPP',NZ),BEGIN
 003ADA 4110 7E6C/4100_      0470C 29951  1                      TSEG  ' (Will release line '
 003AEC 48F0 4048            00048 29969  1                      WITH  (JCB,R4),'LH R15,JCBSEQ'
 DROP   JCB,R5
 USING  JCB,R4
 USING  JCB,R5
 DROP   JCB,R4
 003AF0 181F/1B00/41F0_            30010  1                      TNUM  (R15)
 003AFE 4110 7F64/4100_      04804 30032  1                      TSEG  ')'
 003B10                            30050                       END
                                   30054
 003B10 5840 C6D4            006D4 30055                       L     R4,CVFRSG           First rscgroup
 003B14 5940 C6E0/4730_      006E0 30056                       WHILE (R4,LE,CVRSG+8),BEGIN
 USING  RSCGROUP,R4                30075  1                      WITH  (RSCGROUP,R4)
 003B1C 4130 4014            00014 30088  1                      LA    R3,RSGQACFW-(RSC@NEXT-RESOURCE)
 USING  RESOURCE,R3                30089  1                      WITH  (RESOURCE,R3),BEGIN
 003B20 5930 4018/4780_      00018 30103  2           HVRSC        WHILE ('C R3,RSGQACBK',NE),BEGIN
 003B28 5830 3000            00000 30119  3                          L     R3,RSC@NEXT
 003B2C 5950 3008/4770_      00008 30120  3                          IF    (R5,NE,RSC@JCB),NEXT
 003B34 4110 7EF8/4100_      04798 30140  3                          TSEG  ' ('
 003B46 4110 4000/4100_      00000 30158  3                          TSEG  RSGNAME,,T
 003B58 4110 7F8D/4100_      0482D 30186  3                          TSEG  ' owned)'
 003B6A 47F0 72D2            03B72 30204  3                          EXIT  HVRSC
 003B6E 47F0 7280            03B20 30207  2                        END
 DROP   RESOURCE,R3                30212  1                      END
 003B72 4130 4030            00030 30220  1                      LA    R3,RSGQJCFW-(JCBQF-JCB)
 003B76 1B22                       30221  1                      CLEAR R2                  Position in queue
 DROP   JCB,R5                     30225  1                      WITH  (JCB,R3),BEGIN
 USING  JCB,R3
 003B78 5930 4034/4780_      00034 30247  2           WTRSC        WHILE ('C R3,RSGQJCBK',NE),BEGIN
 003B80 5830 3000            00000 30263  3                          L     R3,JCBQF
 003B84 4120 2001            00001 30264  3                          LA    R2,@R2+1
 003B88 1953/4770 72D8             30265  3                          IF    (R5,NE,R3),NEXT
 003B8E 4110 7F2A/4100_      047CA 30283  3                          TSEG  ' (Waiting for '
 003BA0 4110 4000/4100_      00000 30301  3                          TSEG  RSGNAME,,T
 003BB2 4110 7F38/4100_      047D8 30329  3                          TSEG  ', pos '
 003BC4 1812/1B00/41F0_            30347  3                          TNUM  (R2)
 003BD2 4110 7F64/4100_      04804 30369  3                          TSEG  ')'
 003BE4 47F0 734C            03BEC 30387  3                          EXIT  WTRSC
 003BE8 47F0 72D8            03B78 30390  2                        END
 USING  JCB,R5                     30395  1                      END
 DROP   JCB,R3
 003BEC 5A40 C6DC            006DC 30412  1                      A     R4,CVRSG+4          Next rscgroup
 003BF0 47F0 7274            03B14 30413                       END
 DROP   RSCGROUP,R4
 003BF4 1B00/41F0 B050_            30423                       TCR
                                   30448
 003C00 5840 5014/1244_      00014 30449                       IF    ('LT R4,JCBCPX',POS),BEGIN  CP in core...
 DROP   CP,R11                     30465  1                      WITH  (CP,R4)
1FAIL     (FAIL2025) (12:44) (15MAR04) WYLBUR's Dump Formatter                                                              Page   59
0Current Usings:  (CP,R4) (JCB,R5) (*,R7) (CV,R12)
0Loc    Object Code    Addr1 Addr2  Stmt Lv Lineno    Source Statement           (Hibal 5, Asmedit 3.3)  HLASM R4.0  2004/03/15 12.44
+___    ______ ____    _____ _____  ____ __ ______    ______ _________
0USING  CP,R4
                                   30486  1
                                   30487  1                      SEGDEF CPSEG-CP(CPR)
 003C0A 4110 7DA0/4100_      04640 30488  1                      SEG   '  CP at '
 003C1C 4110 4000/4100_      00000 30505  1                      SEGHX LA:CP,8
 003C2E 1B00/41FB 0050_            30529  1                      SEGCR
 003C3A 4110 7F94/4100_      04834 30553  1                      SEG   '  Account: '
 003C4C 4110 43B7/4100_      003B7 30570  1                      SEG   CPSGRP
 003C5E 4110 7F62/4100_      04802 30597  1                      SEG   '.'
 003C70 4110 43B4/4100_      003B4 30614  1                      SEG   CPSUSER
 003C82 4110 7F9F/4100_      0483F 30641  1                      SEG   ','
 003C94 9180 4758/47E0_00758       30658  1                      IF    CPFEXEC,BEGIN  From exec file...
 003C9C 4110 7E80/4100_      04720 30673  2                        SEG   ' EXEC (line '
 003CAE 5800 475C            0075C 30690  2                        L     R0,CPEXLINE         Current exec lineno
 003CB2 58E0 7E8C/0DEE       0472C 30691  2                        VCALL CVEXNO
 003CB8 41FB 0050/58E0_      00050 30695  2                        SEG   (R1),(R0)
 003CC2 4110 7F64/4100_      04804 30718  2                        SEG   ')'
 003CD4                            30735  1                      END
 003CD4 4110 7F3E/4100_      047DE 30739  1                      SEG   ' Command: '
 003CE6 4110 4242/4800_      00242 30756  1                      SETMSG CPCMD,LH:CPCMDLEN
 003CEE 9140 C4C5/4710_004C5       30769  1                      IF    ~CVFABEND,BEGIN
 003CF6 D502 7FA0 43B4_04840 003B4 30784  2                        IF    (CPSUSER,EQ,X'D1C4D5'),'CLEAR R0,R1'
 003D04                            30812  1                      END
 003D04 41FB 0050/58E0_      00050 30816  1                      SEGCR (R1),(R0)
                                   30840  1
 003D0E 4110 7F48/4100_      047E8 30841  1                      SEG   '  CPU='
 003D20 58F0 507C            0007C 30858  1                      L     R15,JCBWCPU         CPU time in tu's
                                   30859  1           *        IF    (R15,LGT,X'FFFFFFF'),BEGIN  Dangerously large...
                                   30860  1           *        SEG   'large!'
                                   30861  1           *        END
                                   30862  1           *
                                   30863  1           *        ELSE  BEGIN               Format CPU time...
                                   30864  1                      ¿þþþþþþþþþþþþþþþþþþþþþþþþþþþþþþþþþþþþþþþþþþþþþþþþþþþþþþþþþÜ
                                   30865  1                      Ÿ  Un-comment out the following line if you want the CPU  Ÿ
                                   30866  1                      Ÿ    seconds to be displayed in "adjusted" CPU seconds.   Ÿ
                                   30867  1                      ¾þþþþþþþþþþþþþþþþþþþþþþþþþþþþþþþþþþþþþþþþþþþþþþþþþþþþþþþþþ»
                                   30868  1           ******   VCALL CPUFIX              Convert to virtual cpu seconds
 003D24 1BEE                       30869  1                      CLEAR R14
 003D26 5DE0 7E90            04730 30873  1                      D     R14,=F'384'         Convert to .01 sec
 003D2A 59E0 7E94/4750_      04734 30874  1                      IF    (R14,GE,384/2),'INCR R15'  Round
 003D36 182D/41D0 D008             30899  1                      XPUSH ,,8,PTR=R2
 003D3C 4100 0802/1812_      00802 30902  1                      BTR   (R2),(8,2),(R15)
 003D48 41FB 0050/58E0_      00050 30922  1                      SEG   (R1),(R0)
 003D52 4BD0 7F4E            047EE 30945  1                      XPOP  ,,8
 003D56 4110 7FA3/4100_      04843 30947  1                      SEG   ' (unadjusted)'
                                   30964  1           *        END
                                   30965  1           *
 003D68 4110 7FB0/4100_      04850 30966  1                      SEG   ', typed commands='
 003D7A 58F0 41E0            001E0 30983  1                      L     R15,CPNCOM
 003D7E 5FF0 41E4            001E4 30984  1                      SL    R15,CPNCOME
 003D82 181F/1B00/41FB_            30985  1                      SEGDC (R15)
 003D90 4110 7EF8/4100_      04798 31006  1                      SEG   ' ('
 003DA2 5810 41E4/1B00_      001E4 31023  1                      SEGDC L:CPNCOME
 003DB2 4110 7F50/4100_      047F0 31044  1                      SEG   ' exec)'
1FAIL     (FAIL2025) (12:44) (15MAR04) WYLBUR's Dump Formatter                                                              Page   60
0Current Usings:  (CP,R4) (JCB,R5) (*,R7) (CV,R12)
0Loc    Object Code    Addr1 Addr2  Stmt Lv Lineno    Source Statement           (Hibal 5, Asmedit 3.3)  HLASM R4.0  2004/03/15 12.44
+___    ______ ____    _____ _____  ____ __ ______    ______ _________
0003DC4 1B00/41FB 0050_            31061  1                      SEGWR
                                   31085  1                      ¿þþþþþþþþþþþþþþþþþþþþþþþþþþþþþÜ
                                   31086  1                      Ÿ  Display user's registers.  Ÿ
                                   31087  1                      ¾þþþþþþþþþþþþþþþþþþþþþþþþþþþþþ»
 003DD0 9140 C4C5/47E0_004C5       31088  1                      IF    CVFABEND,BEGIN
 003DD8 4110 7DA8/4100_      04648 31103  2                        SEG   '  Regs: '
                                   31120  2
 003DEA 4110 4004            00004 31121  2                        LA    R1,CPREGS
 003DEE 5800 7EA4            04744 31122  2                        L     R0,=A(B'1111111111111111')
 003DF2 58E0 7EA8/0DEE       04748 31123  2                        ACALL DUMPREGS            Show CP regs
 003DF8                            31127  1                      END
 USING  CP,R11                     31131                       END
 DROP   CP,R4
                                   31149              *
                                   31150              *  Display current pages.
                                   31151              *
                                   31152              *NIZ*    IF    CVFABEND,BEGIN      Only for dump formatter...
                                   31153              *NIZ*    LT    R2,JCBPCBA          PCB address for page A
                                   31154              *NIZ*    IF    NZ,BEGIN
                                   31155              *NIZ*    TSEG  '  Page A:  '
                                   31156              *NIZ*    THEX  (R2),8              PCB address
                                   31157              *NIZ*    IF    (R2,POS),BEGIN
                                   31158              *NIZ*    TSEG  '/'
                                   31159              *NIZ*    L     R2,CVPINDEX(R2)     Data buffer ptr
                                   31160              *NIZ*    THEX  (R2),8              Data buffer address
                                   31161              *NIZ*    TSEG  ': '
                                   31162              *NIZ*
                                   31163              *NIZ*    SETMSG (R2),16             First piece of buffer
                                   31164              *NIZ*    L     R15,CPSEGLENF
                                   31165              *NIZ*    S     R15,CPSEGMRKF       Calculate indentation
                                   31166              *NIZ*    VCALL HEXFMT
                                   31167              *NIZ*    END
                                   31168              *NIZ*    ELSE  'TCR'
                                   31169              *NIZ*    END
                                   31170              *NIZ*
                                   31171              *NIZ*    LT    R2,JCBPCBB          PCB address for page B
                                   31172              *NIZ*    IF    NZ,BEGIN
                                   31173              *NIZ*    TSEG  '  Page B:  '
                                   31174              *NIZ*    THEX  (R2),8              PCB address
                                   31175              *NIZ*    IF    (R2,POS),BEGIN
                                   31176              *NIZ*    TSEG  '/'
                                   31177              *NIZ*    L     R2,CVPINDEX(R2)     Data buffer ptr
                                   31178              *NIZ*    THEX  (R2),8              Data buffer address
                                   31179              *NIZ*    TSEG  ': '
                                   31180              *NIZ*
                                   31181              *NIZ*    SETMSG (R2),16             First piece of buffer
                                   31182              *NIZ*    L     R15,CPSEGLENF
                                   31183              *NIZ*    S     R15,CPSEGMRKF       Calculate indentation
                                   31184              *NIZ*    VCALL HEXFMT
                                   31185              *NIZ*    END
                                   31186              *NIZ*    ELSE  'TCR'
                                   31187              *NIZ*    END
                                   31188              *NIZ*    END
                                   31189              *
1FAIL     (FAIL2025) (12:44) (15MAR04) WYLBUR's Dump Formatter                                                              Page   61
0Current Usings:  (JCB,R5) (*,R7) (CP,R11) (CV,R12)
0Loc    Object Code    Addr1 Addr2  Stmt Lv Lineno    Source Statement           (Hibal 5, Asmedit 3.3)  HLASM R4.0  2004/03/15 12.44
+___    ______ ____    _____ _____  ____ __ ______    ______ _________
0003DF8 1B00/41F0 B050_            31190                       TCR
                                   31215
 003E04 4110 50D0            000D0 31216              DJCBNEXT LA    R1,JCBNEXT
 003E08 5910 C1C4/4750_      001C4 31217                       IF    (R1,GE,CVLJCB),'CLEAR R1'  All done
 003E12 1211                       31243                       LTR   R1,R1               Set cc for caller
 003E14 18D8/58E0 D000_            31244                       XEXIT
 DROP   JCB,R5                     31249                       DROP  JCB,BR
 DROP   *,R7
1FAIL     (FAIL2025) (12:44) (15MAR04) WYLBUR's Dump Formatter                                                              Page   62
0Current Usings:  (CP,R11) (CV,R12)
0Loc    Object Code    Addr1 Addr2  Stmt Lv Lineno    Source Statement           (Hibal 5, Asmedit 3.3)  HLASM R4.0  2004/03/15 12.44
+___    ______ ____    _____ _____  ____ __ ______    ______ _________
0                                  31264              ¿þþþþþþþþþþþþþþþþþþþþþþþþþþþþþþþþþþþþþþþþþþþþþþþþþþþþþþþþþþþþþþþþþþþþþÜ
                                   31265              Ÿ                                                                     Ÿ
                                   31266              Ÿ  DUMPREGS -- Routine to seg saved registers.                        Ÿ
                                   31267              Ÿ                                                                     Ÿ
                                   31268              Ÿ    On entry:                                                        Ÿ
                                   31269              Ÿ      R0 - register print mask (low 16 bits)                         Ÿ
                                   31270              Ÿ      R1 - addr of R0-R15 save area                                  Ÿ
                                   31271              Ÿ                                                                     Ÿ
                                                      ¾þþþþþþþþþþþþþþþþþþþþþþþþþþþþþþþþþþþþþþþþþþþþþþþþþþþþþþþþþþþþþþþþþþþþþ»
0003E20 50E0 D000/9028_      00000 31272              DUMPREGS XENTER R2,R8,,LOCAL
 USING  *,R7
 003E3A D203 B060 B05C 00060 0005C 31290                       MVC   CPSEGINDF,CPSEGLENF  Set indentation for cont lines
 003E40 1830                       31291                       LR    R3,R0               Print mask
 003E42 8930 0010            00010 31292                       SLL   R3,16               Move it to upper 16 bits
 003E46 1841                       31293                       LR    R4,R1               Regs addr
 003E48 1B55                       31294                       CLEAR R5                  Reg no
 003E4A 1B00                       31298                       CLEAR R0                  (for first seg in loop)
 003E4C 1233/4780 708A             31302                       WHILE (R3,NZ),BEGIN       Do while still regs to print
 003E52 1B22                       31318  1                      CLEAR R2
 003E54 8D20 0001            00001 31322  1                      SLDL  R2,1                Move a bit into R2
 003E58 1222/4780 707E             31323  1                      IF    (R2,NZ),BEGIN       Print this reg...
 003E5E 41F0 B050/58E0_      00050 31337  2                        TSEG  (R1),(R0)
 003E68 41F0 B050/58E0_      00050 31361  2                        TMARK
 003E72 4110 7A27/4100_      04861 31375  2                        TSEG  'R'
 003E84 1815/1B00/41F0_            31393  2                        TNUM  (R5)
 003E92 4110 7A28/4100_      04862 31415  2                        TSEG  '='
 003EA4 58F0 4000/1B00_      00000 31433  2                        TLOC  @R4
 003EB0 4110 79BC/4100_      047F6 31446  2                        SETMSG ', '
 003EB8                            31450  1                      END
 003EB8 4150 5001            00001 31454  1                      LA    R5,@R5+1
 003EBC 4140 4004            00004 31455  1                      LA    R4,@R4+4
 003EC0 47F0 7012            03E4C 31456                       END
 003EC4 1B00/41F0 B050_            31461                       TCR
 003ED0 D703 B060 B060 00060 00060 31486                       CLEAR CPSEGINDF
 003ED6 18D8/58E0 D000_            31493                       XEXIT
 DROP   *,R7                       31498                       DROP  BR
1FAIL     (FAIL2025) (12:44) (15MAR04) WYLBUR's Dump Formatter                                                              Page   63
0Current Usings:  (CP,R11) (CV,R12)
0Loc    Object Code    Addr1 Addr2  Stmt Lv Lineno    Source Statement           (Hibal 5, Asmedit 3.3)  HLASM R4.0  2004/03/15 12.44
+___    ______ ____    _____ _____  ____ __ ______    ______ _________
0                                  31506              ¿þþþþþþþþþþþþþþþþþþþþþþþþþþþþþþþþþþþþþþþþþþþþþþþþþþþþþþþþþþþþþþþþþþþþþÜ
                                   31507              Ÿ                                                                     Ÿ
                                   31508              Ÿ  TCORE -- Routine to seg memory contents in dump format.            Ÿ
                                   31509              Ÿ                                                                     Ÿ
                                   31510              Ÿ    On entry:                                                        Ÿ
                                   31511              Ÿ      R1 - starting memory address                                   Ÿ
                                   31512              Ÿ      R0 - len (complimented if "address" form not wanted)           Ÿ
                                   31513              Ÿ      R15- signed offset for address (for moved memory)              Ÿ
                                   31514              Ÿ                                                                     Ÿ
                                                      ¾þþþþþþþþþþþþþþþþþþþþþþþþþþþþþþþþþþþþþþþþþþþþþþþþþþþþþþþþþþþþþþþþþþþþþ»
0000000                00000 00024 31515              TCOREWA  RECORD BEGIN
                                   31523  1                      XSA   R2,R8
 000000 0000000000000000           31524  1 01-XSA   +           DC    (R8+2-(R2))A(0)
                                   31525  1
 000020                            31526  1           TCOROFFS   DS    F                   Signed adjustment offset for addr
 000024                00024 00024 31527                       END
                                   31536              þþþþ
 003EE2 50E0 D000/9028_      00000 31537              TCORE    XENTER R2,R8,L'TCOREWA,LOCAL
 USING  *,R7
 USING  TCOREWA,R8                 31555                       USING TCOREWA,WAR
                                   31564
 003EFC 1861                       31565                       LR    R6,R1               Starting addr
 003EFE 1850                       31566                       LR    R5,R0               Len
 003F00 50F0 8020            00020 31567                       ST    R15,TCOROFFS        Save address offset
                                   31568
 003F04 4D10 701C/0000_      03F18 31569                       ESPIE SET,BADCORE,(4,5)   Addressing exceptions
 003F22 5010 D000/41D0_      00000 31582                       XPUSH R1                  Save old pica addr
 003F2A 1045                       31585                       LPR   R4,R5
                                   31586
                                   31587                       COMMENT                   LOOP DUMPING LINES
 003F2C 1244/47D0 7236             31588                       WHILE (R4,POS),BEGIN
 003F32 D603 B05C B05C_0005C 0005C 31604  1                      TCCR
 003F52 41F0 6000            00000 31666  1                      LA    R15,@R6             Get core addr
 003F56 5AF0 8020            00020 31667  1                      A     R15,TCOROFFS        Apply any adjustment
 003F5A 181F/4100 0008_            31668  1                      THEX  (R15),8             Starting addr
 003F6A 5460 7858            04754 31693  1                      N     R6,=F'-4'           Align to word
                                   31694  1
                                   31695  1                      COMMENT                   IF MULTIPLE LINES OF ZEROS,
                                   31696  1                      COMMENT                   COMPRESS THEM
                                   31697  1                      COMMENT
 003F6E 1824                       31698  1                      LR    R2,R4               MUST BE AT LEAST 128 ZEROS
 003F70 5B20 785C            04758 31699  1                      S     R2,=F'192'          AND NOT TOO NEAR THE END
 003F74 D57F 6000 7754_00000 04650 31700  1                      IF    ((' CLC @R6(128),=XL128"00" ',EQ),AND,(R2,POS)),BEGIN
 003F84 1824                       31726  2                        LR    R2,R4
 003F86 5B20 7860            0475C 31727  2                        S     R2,=F'128'
 003F8A 1B33                       31728  2                        CLEAR R3                  R3 - TOTAL ZERO COUNT
                                   31732  2                        COMMENT                   COUNT 32 AT A TIME
 003F8C D51F 6000 77D4_00000 046D0 31733  2                        WHILE ((' CLC @R6(32),=XL32"00" ',EQ),AND,(R2,POS)),BEGIN
 003F9C 5B20 7864            04760 31761  3                          S     R2,=F'32'
 003FA0 5B40 7864            04760 31762  3                          S     R4,=F'32'
 003FA4 4133 0020            00020 31763  3                          LA    R3,32(R3)
 003FA8 4166 0020            00020 31764  3                          LA    R6,32(R6)
 003FAC 47F0 7090            03F8C 31765  2                        END
1FAIL     (FAIL2025) (12:44) (15MAR04) WYLBUR's Dump Formatter                                                              Page   64
0Current Usings:  (*,R7) (TCOREWA,R8) (CP,R11) (CV,R12)
0Loc    Object Code    Addr1 Addr2  Stmt Lv Lineno    Source Statement           (Hibal 5, Asmedit 3.3)  HLASM R4.0  2004/03/15 12.44
+___    ______ ____    _____ _____  ____ __ ______    ______ _________
0003FB0 4100 0010/41F0_      00010 31770  2                        TCOL  16
 003FBE 1813/4100 0006_            31791  2                        THEX  (R3),6
 003FCE 4110 7967/4100_      04863 31816  2                        TSEG  ' BYTES OF 00000000 0000s ... ',,CR
 003FE0                            31834  1                      END
                                   31838  1
                                   31839  1                      COMMENT                   OUTPUT A HEX LINE (NO ADDRESSES)
 003FE0 70E8/70E8/47F0_03FE0 03F7C 31840  1                      ELSEIF (R5,NEG),BEGIN
 003FEA 1836                       31865  2                        LR    R3,R6               Save ptr for later
 003FEC 4110 C4D8/4100_      004D8 31866  2                        TSEG  CVBLANKS,2
 003FFE 4120 0008            00008 31896  2                        LA    R2,8                8 words
 004002                            31897  2                        LOOP  BEGIN
 004002 5810 6000/4100_      00000 31903  3                          THEX  L:@R6,8
 004014 4110 C4D8/4100_      004D8 31928  3                          TSEG  CVBLANKS,1
 004026 4160 6004            00004 31958  3                          LA    R6,@R6+4
 00402A 4B40 78FC/47D0_      047F8 31959  3                          IF    ('SH R4,=H"4"',~POS),EXIT
 004032 0620                       31975  3                          DECR  R2
 004034 1222/4770 7106             31977  2                        UNTIL (R2,Z),END
 00403A 4100 0051/41F0_      00051 31999  2                        TCOL   81
 004048 4110 7984/4100_      04880 32020  2                        TSEG  '*'
 00405A D51F 3000 3000 00000 00000 32038  2                        CLC   @R3(32),@R3         Force any interrupt
 004060 181D/41D0 D020             32039  2                        XPUSH ,,32,PTR=R1
 004066 D21F 1000 3000 00000 00000 32042  2                        MVC   @R1(32),@R3         Text
 00406C DC1F 1000 75D3 00000 044CF 32043  2                        TR    @R1(32),SEGTRTBL    Translate out funny chars
 004072 4100 0020/41F0_      00020 32044  2                        TSEG  (R1),32
 004080 4BD0 78FE            047FA 32071  2                        XPOP  ,,32
 004084 4110 7984/4100_      04880 32073  2                        TSEG  '*'
 004096                            32091  1                      END
                                   32095  1
                                   32096  1                      COMMENT                   OUTPUT A LINE (WITH ADDRESSES)
 004096 719E/47F0 7232 04096 03FE8 32097  1                      ELSE  BEGIN
 00409A 1836                       32108  2                        LR    R3,R6               Save ptr for later
 00409C 4120 0008            00008 32109  2                        LA    R2,8                Column
 0040A0                            32110  2                        LOOP  BEGIN
 0040A0 1802/41F0 B050_            32116  3                          TCOL  (R2)
 0040AC 58F0 6000/4100_      00000 32135  3                          TLOC  L:@R6,8             Display hex & addr
 0040BA 4120 2016            00016 32151  3                          LA    R2,@R2+22           Next column
 0040BE 4160 6004            00004 32152  3                          LA    R6,@R6+4            Next word
 0040C2 4B40 78FC/47D0_      047F8 32153  3                          IF    ('SH R4,=H"4"',~POS),EXIT  All done
 0040CA 5920 7868/4750_      04764 32169  2                        UNTIL (R2,GE,8+22*4),END
 0040D2 4100 0062/41F0_      00062 32194  2                        TCOL  8+22*4+2
 0040E0 4110 7984/4100_      04880 32215  2                        TSEG  '*'
 0040F2 D50F 3000 3000 00000 00000 32233  2                        CLC   @R3(16),@R3         Force any interrupt
 0040F8 181D/41D0 D010             32234  2                        XPUSH ,,16,PTR=R1
 0040FE D20F 1000 3000 00000 00000 32237  2                        MVC   @R1(16),@R3
 004104 DC0F 1000 75D3 00000 044CF 32238  2                        TR    @R1(16),SEGTRTBL    Translate out funny chars
 00410A 4100 0010/41F0_      00010 32239  2                        TSEG  (R1),16             Ebcdic part
 004118 4BD0 7900            047FC 32266  2                        XPOP  ,,16
 00411C 4110 7984/4100_      04880 32268  2                        TSEG  '*'
 00412E                            32286  1                      END
 00412E 47F0 7030            03F2C 32290                       END
 004132 47F0 7258            04154 32295                       B     SEGCDONE
 004136 1B00/41F0 B050_            32296              BADCRS   TCR   ,                   Spie recovery reentry
 004142 4110 786C/4100_      04768 32322                       TSEG  'Bad address.'
 004154 1B00/41F0 B050_            32340              SEGCDONE TCR
1FAIL     (FAIL2025) (12:44) (15MAR04) WYLBUR's Dump Formatter                                                              Page   65
0Current Usings:  (*,R7) (TCOREWA,R8) (CP,R11) (CV,R12)
0Loc    Object Code    Addr1 Addr2  Stmt Lv Lineno    Source Statement           (Hibal 5, Asmedit 3.3)  HLASM R4.0  2004/03/15 12.44
+___    ______ ____    _____ _____  ____ __ ______    ______ _________
0004160 4BD0 7902/5810_      047FE 32366                       XPOP  R1                  Previous ESPIE token
 004168 4100 0008/41F0_      00008 32369                       ESPIE RESET,(1)           Restore old ESPIE
 004172 18D8/58E0 D000_            32374                       XEXIT
                                   32379
 USING  *,R15                      32380              BADCORE  WITH  (*,R15),BEGIN       ESPIE exit...
 USING  EPIE,R1                    32396  1                      WITH  (EPIE,R1)
 00417E D203 104C F5F6 0004C 04774 32409  1                      MVC   EPIEIA,=A(X'80000000'+BADCRS)  Retry routine
 004184 07FE                       32410  1                      BR    R14
 DROP   EPIE,R1                    32411                       END
 DROP   *,R15
1FAIL     (FAIL2025) (12:44) (15MAR04) WYLBUR's Dump Formatter                                                              Page   66
0Current Usings:  (*,R7) (TCOREWA,R8) (CP,R11) (CV,R12)
0Loc    Object Code    Addr1 Addr2  Stmt Lv Lineno    Source Statement           (Hibal 5, Asmedit 3.3)  HLASM R4.0  2004/03/15 12.44
+___    ______ ____    _____ _____  ____ __ ______    ______ _________
0                                  32425              ¿þþþþþþþþþþþþþþþþþþþþþþþþþþþþþþþþþþþþþþþþþþþþþþþþþþþþþþþþþþþþþþþþþþþþþÜ
                                   32426              Ÿ                                                                     Ÿ
                                   32427              Ÿ  TLOC -- Internal routine to seg hex address in R15 and             Ÿ
                                   32428              Ÿ    csect+offset if the address is in WYLBUR.                        Ÿ
                                   32429              Ÿ                                                                     Ÿ
                                                      ¾þþþþþþþþþþþþþþþþþþþþþþþþþþþþþþþþþþþþþþþþþþþþþþþþþþþþþþþþþþþþþþþþþþþþþ»
0004186 50E0 D000/9028_      00000 32430              TLOC     XENTER R2,R8
 DROP   *,R7
 USING  *,R7
 0041A0 1850                       32452                       LR    R5,R0               Addr len (for seghx)
 0041A2 186D/41D0 D018             32453                       XPUSH ,,L'LOC,PTR=R6
 USING  LOC,R6                     32456                       USING LOC,R6
 0041A8 50F0 6000            00000 32465                       ST    R15,LOCADDR         Save addr for findloc
 0041AC 1816                       32466                       LR    R1,R6               Set param reg
 0041AE 58E0 75D8/0DEE       04778 32467                       ACALL FINDLOC
 0041B4 5810 6000/1805_      00000 32471                       THEX  LOCADDR,(R5)
 0041C4 D507 600C C4D8_0000C 004D8 32494                       IF    (LOCSYM,NE,CVBLANKS),BEGIN
 0041CE 4110 75F8/4100_      04798 32512  1                      TSEG  ' ('
 0041E0 4110 600C/4100_      0000C 32530  1                      TSEG  LOCSYM,,T
 0041F2 D601 6016 6016_00016 00016 32558  1                      IF    (LOCSYOFS,NZ),'TSEG "+0"; THEX LH:LOCSYOFS'
 00421E 4110 7664/4100_      04804 32618  1                      TSEG  ')'
 004230                            32636                       END
 004230 7094/47F0 7100_04230 041CC 32640                       ELSEIF (LOCCSECT,NE,CVBLANKS),BEGIN
 00423E 4110 75F8/4100_      04798 32667  1                      TSEG  ' ('
 004250 4110 6004/4100_      00004 32685  1                      TSEG  LOCCSECT,,T
 004262 D601 6014 6014_00014 00014 32713  1                      IF    (LOCCSOFS,NZ),'TSEG "+0"; THEX LH:LOCCSOFS'
 00428E 4110 7664/4100_      04804 32773  1                      TSEG  ')'
 0042A0                            32791                       END
 0042A0 18D8/58E0 D000_            32795                       XEXIT R2,R8
 DROP   LOC,R6                     32800                       DROP  LOC
1FAIL     (FAIL2025) (12:44) (15MAR04) WYLBUR's Dump Formatter                                                              Page   67
0Current Usings:  (*,R7) (TCOREWA,R8) (CP,R11) (CV,R12)
0Loc    Object Code    Addr1 Addr2  Stmt Lv Lineno    Source Statement           (Hibal 5, Asmedit 3.3)  HLASM R4.0  2004/03/15 12.44
+___    ______ ____    _____ _____  ____ __ ______    ______ _________
0                                  32809              ¿þþþþþþþþþþþþþþþþþþþþþþþþþþþþþþþþþþþþþþþþþþþþþþþþþþþþþþþþþþþþþþþþþþþþþÜ
                                   32810              Ÿ                                                                     Ÿ
                                   32811              Ÿ  FINDSYM -- Routine to find symbol table entry, given it's name.    Ÿ
                                   32812              Ÿ                                                                     Ÿ
                                   32813              Ÿ    On entry:                                                        Ÿ
                                   32814              Ÿ      R1,R0 - symbol loc, len                                        Ÿ
                                   32815              Ÿ                                                                     Ÿ
                                                      ¾þþþþþþþþþþþþþþþþþþþþþþþþþþþþþþþþþþþþþþþþþþþþþþþþþþþþþþþþþþþþþþþþþþþþþ»
00042AC 50E0 D000/9028_      00000 32816              FINDSYM  XENTER R2,R8
 DROP   *,R7
 USING  *,R7
 0042C6 1BFF                       32838                       CLEAR R15                 Assume no match
 0042C8 1200/47D0 704C_            32842                       IF    ((R0,~POS),OR,(R0,GT,8)),FSYMEXIT
 0042D6 186D/41D0 D008             32875                       XPUSH ,,8,PTR=R6
 0042DC D207 6000 C4D8 00000 004D8 32878                       MVC   @R6(8),CVBLANKS
 0042E2 18F0                       32879                       LR    R15,R0
 0042E4 06F0/44F0 75BC_            32880                       DEX   R15,'MVC @R6(0),@R1'
 0042EA 58F0 742A            046F0 32899                       L     R15,=A(SYMBOLS)     Start of symbol table
 USING  SYMBOL,R15                 32900                       USING SYMBOL,R15
 0042EE 95FF F000/4780_00000       32909                       UNTIL SYMFEND,BEGIN
 0042F6 D507 F008 6000_00008 00000 32929  1                      IF    (SYMNAME,EQ,@R6),EXIT  found it
 004300 41F0 F010            00010 32949  1                      LA    R15,SYMNEXT
 004304 47F0 7028            042EE 32950                       END
 004308 95FF F000/4770_00000       32955                       IF    SYMFEND,'CLEAR R15'  no match
 004312 18D8/58E0 D000_            32979              FSYMEXIT XEXIT R2,R8,LTR
 DROP   SYMBOL,R15                 32985                       DROP  SYMBOL,BR
 DROP   *,R7
1FAIL     (FAIL2025) (12:44) (15MAR04) WYLBUR's Dump Formatter                                                              Page   68
0Current Usings:  (TCOREWA,R8) (CP,R11) (CV,R12)
0Loc    Object Code    Addr1 Addr2  Stmt Lv Lineno    Source Statement           (Hibal 5, Asmedit 3.3)  HLASM R4.0  2004/03/15 12.44
+___    ______ ____    _____ _____  ____ __ ______    ______ _________
0                                  33000              ¿þþþþþþþþþþþþþþþþþþþþþþþþþþþþþþþþþþþþþþþþþþþþþþþþþþþþþþþþþþþþþþþþþþþþþÜ
                                   33001              Ÿ                                                                     Ÿ
                                   33002              Ÿ  FINDLOC -- Routine to find the closest symbol table offsets        Ÿ
                                   33003              Ÿ    for a given address.                                             Ÿ
                                   33004              Ÿ                                                                     Ÿ
                                   33005              Ÿ    On entry:                                                        Ÿ
                                   33006              Ÿ      R1 - points to a parameter area with LOCADDR filled in         Ÿ
                                   33007              Ÿ           (see LOC dsect).                                          Ÿ
                                   33008              Ÿ                                                                     Ÿ
                                                      ¾þþþþþþþþþþþþþþþþþþþþþþþþþþþþþþþþþþþþþþþþþþþþþþþþþþþþþþþþþþþþþþþþþþþþþ»
0004320 50E0 D000/9028_      00000 33009              FINDLOC  XENTER R2,R8,,LOCAL
 USING  *,R7
 00433A 1861                       33027                       LR    R6,R1               Copy param reg
 USING  LOC,R6                     33028                       USING LOC,R6
 00433C D207 6004 C4D8 00004 004D8 33037                       MVC   LOCCSECT,CVBLANKS   Init fields
 004342 D207 600C C4D8 0000C 004D8 33038                       MVC   LOCSYM,CVBLANKS
 004348 1B00/4000 6016_            33039                       CLEAR R0,LOCSYOFS,LOCCSOFS
 004352 5850 73B6/1255       046F0 33053                       LT    R5,=A(SYMBOLS)      Addr of symbol table
 004358 4780 70AC            043E6 33057                       BZ    FINDEXIT            Br if no table
                                   33058              *  The symbol table has been sorted by symbol addr (see FAILINIT).
 USING  SYMBOL,R5                  33059                       USING SYMBOL,R5
 00435C 5840 6000            00000 33068                       L     R4,LOCADDR          Get comparison addr
 004360 8940 0008/8840_      00008 33069                       CLRHI R4                  Drop high byte
                                   33072
 004368 1B22/1B33                  33073                       CLEAR R2,R3               Old symbol ptr, old csect ptr
 00436C 95FF 5000/4780_00000       33079                       WHILE (~SYMFEND,AND,(R4,GE,SYMADDR)),BEGIN
 00437C 9180 5000/47E0_00000       33112  1                      IF    SYMFCSCT,'LR R3,R5'
 004386 7050/47F0 7052_04386 04382 33133  1                      ELSE  'LR R2,R5'
 00438C 4150 5010            00010 33150  1                      LA    R5,SYMNEXT
 004390 47F0 7032            0436C 33151                       END
 004394 1252/4780 70AC             33156                       IF    ('LTR R5,R2',NZ),BEGIN
 00439A 1233/4780 706C_            33169  1                      IF    ((R3,Z),OR,(R2,LE,R3)),BEGIN  only give symbol if it's
                                   33197  2           *                                  closer than the csect
 0043A6 18F4                       33198  2                        LR    R15,R4
 0043A8 5FF0 5000            00000 33199  2                        SL    R15,SYMLOC          Offset from symbol
 0043AC 89F0 0008/88F0_      00008 33200  2                        CLRHI R15                 Drop high byte
 0043B4 49F0 5004/4730_      00004 33203  2                        IF    (R15,LE,SYMLEN),BEGIN
 0043BC 40F0 6016            00016 33220  3                          STH   R15,LOCSYOFS
 0043C0 D207 600C 5008 0000C 00008 33221  3                          MVC   LOCSYM,SYMNAME
 0043C6                            33222  2                        END
 0043C6                            33226  1                      END
 0043C6 1253/4780 70AC             33230  1                      IF    ('LTR R5,R3',NZ),BEGIN
 0043CC 5F40 5000            00000 33243  2                        SL    R4,SYMLOC           Offset from CSECT
 0043D0 4140 4000            00000 33244  2                        LA    R4,@R4
 0043D4 4940 5004/4730_      00004 33245  2                        IF    (R4,LE,SYMLEN),BEGIN
 0043DC 4040 6014            00014 33262  3                          STH   R4,LOCCSOFS
 0043E0 D207 6004 5008 00004 00008 33263  3                          MVC   LOCCSECT,SYMNAME
 0043E6                            33264  2                        END
 0043E6                            33268  1                      END
 0043E6                            33272                       END
 0043E6 18D8/58E0 D000_            33276              FINDEXIT XEXIT
 DROP   SYMBOL,R5                  33281                       DROP  SYMBOL,LOC,BR
 DROP   LOC,R6
1FAIL     (FAIL2025) (12:44) (15MAR04) WYLBUR's Dump Formatter                                                              Page   69
0Current Usings:  (TCOREWA,R8) (CP,R11) (CV,R12)
0Loc    Object Code    Addr1 Addr2  Stmt Lv Lineno    Source Statement           (Hibal 5, Asmedit 3.3)  HLASM R4.0  2004/03/15 12.44
+___    ______ ____    _____ _____  ____ __ ______    ______ _________
0DROP   *,R7
1FAIL     (FAIL2025) (12:44) (15MAR04) WYLBUR's Dump Formatter                                                              Page   70
0Current Usings:  (TCOREWA,R8) (CP,R11) (CV,R12)
0Loc    Object Code    Addr1 Addr2  Stmt Lv Lineno    Source Statement           (Hibal 5, Asmedit 3.3)  HLASM R4.0  2004/03/15 12.44
+___    ______ ____    _____ _____  ____ __ ______    ______ _________
0                                  33303              ¿þþþþþþþþþþþþþþþþþþþþþþþþþþþþþþþþþþþþþþþþþþþþþþþþþþþþþþþþþþþþþþþþþþþþþÜ
                                   33304              Ÿ                                                                     Ÿ
                                   33305              Ÿ  PRTSEG -- SEG routine to write line to SYSPRINT.                   Ÿ
                                   33306              Ÿ                                                                     Ÿ
                                   33307              Ÿ    On entry:                                                        Ÿ
                                   33308              Ÿ                                                                     Ÿ
                                   33309              Ÿ      R15 - SEGCB ptr                                                Ÿ
                                   33310              Ÿ                                                                     Ÿ
                                                      ¾þþþþþþþþþþþþþþþþþþþþþþþþþþþþþþþþþþþþþþþþþþþþþþþþþþþþþþþþþþþþþþþþþþþþþ»
00043F2 50E0 D000/9028_      00000 33311              PRTSEG   XENTER R2,R8,,LOCAL
 USING  *,R7
 00440C 186F                       33329                       LR    R6,R15
 USING  SEGCB,R6                   33330                       USING SEGCB,R6
                                   33339
 00440E 9506 6000/4780_00000       33340                       IF    (SEGCBCR,OR,SEGCBWR,OR,SEGCBOVF),BEGIN  segwr...
 004426 5900 7374/47D0_      04780 33381  1                      CEIL  R0,132              Not too long
 004432 1851                       33400  1                      LR    R5,R1
 004434 1840                       33401  1                      LR    R4,R0
                                   33402  1
 004436 5830 7378            04784 33403  1                      L     R3,=A(SYSPRINT)     SYSPRINT DCB
 00443A 9110 3030/47E0_00030       33404  1                      IF    @R3+(DCBOFLGS-DCB).DCBOFOPN,BEGIN  it's open...
 004442 1824                       33420  2                        LR    R2,R4
 004444 4120 2005            00005 33421  2                        LA    R2,4+1+@R2          l'rdw + cc char + text
 004448 4020 3052            00052 33422  2                        STH   R2,@R3+(DCBLRECL-DCB)
 00444C 58E0 737C/0DEE       04788 33423  2                        VCALL AMODE24             ********
 004452 1813/1FFF/BFF7_            33427  2                        PUT   (R3)                Get buffer space
 00445C 58E0 7380/0DEE       0478C 33433  2                        VCALL AMODE31             ********
 004462 9110 3030/47E0_00030       33437  2                        IF    ~@R3+(DCBOFLGS-DCB).DCBOFOPN,EXIT  DCB abend, scram
 00446A 4020 1000            00000 33456  2                        STH   R2,@R1              Rdw len
 00446E D701 1002 1002 00002 00002 33457  2                        CLEAR (@R1+2,2)           Rdw flags
 004474 9240 1004      00004       33464  2                        MVI   @R1+4,C' '          Cc char
 004478 9500 70C2/4780_044CE       33465  2                        IF    (PRTCC,NZ),'MVC @R1+4(1),PRTCC'
 004486 1244/47D0 7092             33487  2                        IF    (R4,POS),BEGIN
 00448C 18F4                       33501  3                          LR    R15,R4
 00448E 06F0/12FF/4740_            33502  3                          MOVE  R15,@R1+5,@R5
 00449A 44F0 7482/DC00_      0488E 33540  3                          EX    R15,'TR @R1+5(0),SEGTRTBL'
 00449E                            33556  2                        END
 00449E                            33560  1                      END
                                   33564  1
 00449E D700 70C2 70C2 044CE 044CE 33565  1                      CLEAR PRTCC               Reset
 0044A4 1304                       33572  1                      LCR   R0,R4               Amnt we reduced bfr--for segcbovf
 0044A6 9506 6000/4770_00000       33573  1                      IF    SEGCBCR,'CLEAR R0,SEGCBMRKF,SEGCBLENF'  no cr char
 0044B8                            33607                       END
                                   33611
 0044B8 9504 6000/4770_00000       33612                       IF    SEGCBSPP,'CLEAR R0'  always set good return code
 0044C2 18D8/58E0 D000_            33636                       XEXIT
 DROP   SEGCB,R6                   33641                       DROP  SEGCB,BR
 DROP   *,R7
                                   33655
 0044CE 40                         33656              PRTCC    DC    C' '                Next CC char to use
1FAIL     (FAIL2025) (12:44) (15MAR04) WYLBUR's Dump Formatter                                                              Page   71
0Current Usings:  (TCOREWA,R8) (CP,R11) (CV,R12)
0Loc    Object Code    Addr1 Addr2  Stmt Lv Lineno    Source Statement           (Hibal 5, Asmedit 3.3)  HLASM R4.0  2004/03/15 12.44
+___    ______ ____    _____ _____  ____ __ ______    ______ _________
0                                  33657                       ¿þþþþþþþþþþþþþþþþþþþþþþþþþþþþþþþþþþþþþþþþþþþþþþþþþþþÜ
                                   33658                       Ÿ  Translate table to convert funny chars to dots.  Ÿ
                                   33659                       ¾þþþþþþþþþþþþþþþþþþþþþþþþþþþþþþþþþþþþþþþþþþþþþþþþþþþ»
 0044CF 4B4B4B4B4B4B4B4B           33660              SEGTRTBL DC    X'4B4B4B4B4B4B4B4B4B4B4B4B4B4B4B4B'
 0044DF 4B4B4B4B4B4B4B4B           33661                       DC    X'4B4B4B4B4B4B4B4B4B4B4B4B4B4B4B4B'
 0044EF 4B4B4B4B4B4B4B4B           33662                       DC    X'4B4B4B4B4B4B4B4B4B4B4B4B4B4B4B4B'
 0044FF 4B4B4B4B4B4B4B4B           33663                       DC    X'4B4B4B4B4B4B4B4B4B4B4B4B4B4B4B4B'
 00450F 404B4B4B4B4B4B4B           33664                       DC    X'404B4B4B4B4B4B4B4B4B4A4B4C4D4E4F'
 00451F 504B4B4B4B4B4B4B           33665                       DC    X'504B4B4B4B4B4B4B4B4B5A5B5C5D5E4B'
 00452F 60614B4B4B4B4B4B           33666                       DC    X'60614B4B4B4B4B4B4B4B4B6B6C6D6E6F'
 00453F 4B4B4B4B4B4B4B4B           33667                       DC    X'4B4B4B4B4B4B4B4B4B4B7A7B7C7D7E7F'
 00454F 4B81828384858687           33668                       DC    X'4B8182838485868788894B4B4B4B4B4B'
 00455F 4B91929394959697           33669                       DC    X'4B9192939495969798994B4B4B4B4B4B'
 00456F 4B4BA2A3A4A5A6A7           33670                       DC    X'4B4BA2A3A4A5A6A7A8A94B4B4B4B4B4B'
 00457F 4B4B4B4B4B4B4B4B           33671                       DC    X'4B4B4B4B4B4B4B4B4B4B4B4B4B4B4B4B'
 00458F 4BC1C2C3C4C5C6C7           33672                       DC    X'4BC1C2C3C4C5C6C7C8C94B4B4B4B4B4B'
 00459F 4BD1D2D3D4D5D6D7           33673                       DC    X'4BD1D2D3D4D5D6D7D8D94B4B4B4B4B4B'
 0045AF 4B4BE2E3E4E5E6E7           33674                       DC    X'4B4BE2E3E4E5E6E7E8E94B4B4B4B4B4B'
 0045BF F0F1F2F3F4F5F6F7           33675                       DC    X'F0F1F2F3F4F5F6F7F8F94B4B4B4B4B4B'
1FAIL     (FAIL2025) (12:44) (15MAR04) WYLBUR's Dump Formatter                                                              Page   72
0Current Usings:  (TCOREWA,R8) (CP,R11) (CV,R12)
0Loc    Object Code    Addr1 Addr2  Stmt Lv Lineno    Source Statement           (Hibal 5, Asmedit 3.3)  HLASM R4.0  2004/03/15 12.44
+___    ______ ____    _____ _____  ____ __ ______    ______ _________
0                                  33677              ¿þþþþþþþþþþþþþþþþþþþþþþþþþþþþþþþþþþþþþþþþþþþþþþþþþþþþþþþþþþþþþþþþþþþþþÜ
                                   33678              Ÿ                                                                     Ÿ
                                   33679              Ÿ  ALLOSYSP -- Allocate a SYSPRINT ddcard.                            Ÿ
                                   33680              Ÿ                                                                     Ÿ
                                                      ¾þþþþþþþþþþþþþþþþþþþþþþþþþþþþþþþþþþþþþþþþþþþþþþþþþþþþþþþþþþþþþþþþþþþþþ»
00045CF 00/50E0 D000/902_          33681              ALLOSYSP XENTER R2,R8,,LOCAL
 USING  *,R7
 0045EA 4110 72AA            04894 33699                       LA    R1,BALLOC
 0045EE 0A63                       33700                       DYNALLOC ,                Allocate SYSPRINT
 0045F0 18D8/58E0 D000_            33703                       XEXIT
 DROP   *,R7                       33708                       DROP  BR
-                                  33716              ¿þþþþþþþþþþþþþþþþþþþþþþþþþþþþþþþþþþþþþþþþþþþþþþþþþþþþþþþþþþþþþþþþþþþþþÜ
                                   33717              Ÿ                                                                     Ÿ
                                   33718              Ÿ  FREESYSP -- De-allocate SYSPRINT ddcard (so it can be fetched      Ÿ
                                   33719              Ÿ    or printed).                                                     Ÿ
                                   33720              Ÿ                                                                     Ÿ
                                                      ¾þþþþþþþþþþþþþþþþþþþþþþþþþþþþþþþþþþþþþþþþþþþþþþþþþþþþþþþþþþþþþþþþþþþþþ»
00045FC 50E0 D000/9028_      00000 33721              FREESYSP XENTER R2,R8,,LOCAL
 USING  *,R7
 004616 4110 72B2            048C8 33739                       LA    R1,BDEALLOC
 00461A 0A63                       33740                       DYNALLOC ,                De-allocate SYSPRINT
 00461C 18D8/58E0 D000_            33743                       XEXIT
 DROP   *,R7                       33748                       DROP  BR
                                   33755
                                   33756                       QLTORG
1FAIL     (FAIL2025) (12:44) (15MAR04) WYLBUR's Dump Formatter                                                              Page   73
0Current Usings:  (TCOREWA,R8) (CP,R11) (CV,R12)
0Loc    Object Code    Addr1 Addr2  Stmt Lv Lineno    Source Statement           (Hibal 5, Asmedit 3.3)  HLASM R4.0  2004/03/15 12.44
+___    ______ ____    _____ _____  ____ __ ______    ______ _________
0                                  33843              *  Dynamic allocation/de-allocation parameter list...
 004894                            33844              BALLOC   DS    0F
 004894 80004898                   33845                       DC    X'80',AL3(BALRB)    Alloc request block ptr
 004898 14                         33846              BALRB    DC    AL1(20)
 004899 01                         33847              BALVERB  DC    AL1(S99VRBAL)       Allocation
 00489A 20                         33848                       DC    AL1(S99NOMNT)
 00489B 00                         33849                       DC    AL1(0)
 00489C                            33850                       DS    0F
 00489C 0000                       33851              BALERROR DC    H'0'
 00489E 0000                       33852              BALINFO  DC    H'0'
 0048A0 000048AC                   33853                       DC    A(BALTXTP)
 0048A4 00000000                   33854                       DC    A(0)
 0048A8 00000000                   33855                       DC    A(0)
 0048AC 000048EC                   33856              BALTXTP  DC    A(BDLTXTDD)
 0048B0 000048BC                   33857                       DC    A(BALTXTF)
 0048B4 800048B8                   33858                       DC    X'80',AL3(BALTXTS)
                                   33859                       AIF   ('&DMPCLAS' EQ '$').DMPCLSA
                                   33860              .DMPCLSA ANOP
 0048B8 00180000                   33861              BALTXTS  DC    AL2(DALSYSOU,0)     SYSOUT=$
                                   33862              .DMPCLSB ANOP
 0048BC 001A00010004C4E4           33863              BALTXTF  DC    AL2(DALSFMNO,1,4),C'&DMPFORM'  Dump forms
                                   33864
 0048C8                            33865              BDEALLOC DS    0F
 0048C8 800048CC                   33866                       DC    X'80',AL3(BDLRB)    De-alloc request block ptr
 0048CC 14                         33867              BDLRB    DC    AL1(20)
 0048CD 02                         33868                       DC    AL1(S99VRBUN)       SYSPRINT de-allocation
 0048CE 20                         33869                       DC    AL1(S99NOMNT)
 0048CF 00                         33870                       DC    AL1(0)
 0048D0                            33871                       DS    0F
 0048D0 0000                       33872              BDLERROR DC    H'0'
 0048D2 0000                       33873              BDLINFO  DC    H'0'
 0048D4 000048E0                   33874                       DC    A(BDLTXTP)
 0048D8 00000000                   33875                       DC    A(0)
 0048DC 00000000                   33876                       DC    A(0)
 0048E0 000048E8                   33877              BDLTXTP  DC    A(BDLTXTUN)
 0048E4 800048EC                   33878                       DC    X'80',AL3(BDLTXTDD)
 0048E8 00070000                   33879              BDLTXTUN DC    AL2(DUNUNALC,0)
 0048EC 000100010008E2E8           33880              BDLTXTDD DC    AL2(DALDDNAM,1,8),CL8'SYSPRINT'
                                   33881
                                   33882            C SYSPRINT DCB   DDNAME=SYSPRINT,DSORG=PS,MACRF=PL,
 0048FA 0000/000000000_                                              RECFM=VBA,LRECL=137,BLKSIZE=6233,EXLST=PRTEXLST
                                   33924
 00495C 91004960                   33925              PRTEXLST DC    0A(0),X'91',AL3(PRTABEND)  DCB abend exit
                                   33926
 USING  *,R15                      33927              PRTABEND WITH  (*,R15),BEGIN
 004960 9204 1003      00003       33943  1                      MVI   @R1+3,4             Tell os to ignore the abend
 004964 07FE                       33944  1                      BR    R14                 Return
 DROP   *,R15                      33945                       END
1FAIL     (FAIL2025) (12:44) (15MAR04) WYLBUR's Dump Formatter                                                              Page   74
0Current Usings:  (TCOREWA,R8) (CP,R11) (CV,R12)
0Loc    Object Code    Addr1 Addr2  Stmt Lv Lineno    Source Statement           (Hibal 5, Asmedit 3.3)  HLASM R4.0  2004/03/15 12.44
+___    ______ ____    _____ _____  ____ __ ______    ______ _________
0                                  33954                       ¿þþþþþþþþþþþþþþþþþþþþþþþþþþþþþþþþþþþþþþþþþþþþþþþþþþþþþþþþþþþþÜ
                                   33955                       Ÿ  WYLBUR SYMBOL TABLE (for debugging)                       Ÿ
                                   33956                       Ÿ                                                            Ÿ
                                   33957                       Ÿ  Symbol entry order isn't important any more because the   Ÿ
                                   33958                       Ÿ  table is now sorted (by addr) in FAILINIT.                Ÿ
                                   33959                       Ÿ                                                            Ÿ
                                   33960                       Ÿ  If symbols are added for loaded modules, a corresponding  Ÿ
                                   33961                       Ÿ  entry should be made in syminit routine                   Ÿ
                                   33962                       ¾þþþþþþþþþþþþþþþþþþþþþþþþþþþþþþþþþþþþþþþþþþþþþþþþþþþþþþþþþþþþ»
                                   33963                       ENTRY   SYMBOLS
 004968 000000000FB00000           33964              SYMBOLS  SYMBOLS (CV,,CVSIZE),CSECT=NO
 004978 00000000003C0000_          33967                       SYMBOLS (RUNRSG,,L'RSCGROUP),(SETRSG,,L'RSCGROUP),CSECT=NO
 004998 00000000003C0000           33970                       SYMBOLS (PAGRSG,,L'RSCGROUP),CSECT=NO
 0049A8 00000000003C0000_          33972                       SYMBOLS (IOWRSG,,L'RSCGROUP),(KWRRSG,,L'RSCGROUP),CSECT=NO
 0049C8 00000000003C0000_          33975                       SYMBOLS (SUBRSG,,L'RSCGROUP),(HCMRSG,,L'RSCGROUP),CSECT=NO
 0049E8 8000000078000000_          33978                       SYMBOLS (WYLORV,ORV),(WYLCR,CR),(WYLKWWR,KWWR)
 004A18 8000000078000000_          33982                       SYMBOLS (WYLGLOB,GLOB),(WYLDISP,DISP),(WYLSTAT,STAT)
 004A48 8000000078000000           33986                       SYMBOLS (WYLQUERY,QUERY)
 004A58 8000000078000000           33988                       SYMBOLS (WYLSIGN,SIGN)
 004A68 8000000078000000_          33990                       SYMBOLS (WYLDISK,DISK),(WYLACT,ACT)
 004A88 8000000078000000_          33993                       SYMBOLS (WYLUTIL,UTIL),(WYLJES,JES)
 004AA8 8000000078000000_          33996                       SYMBOLS (WYLRJE,RJE),(WYLOPT,OPT),(WYLDOPT,DOPT)
 004AD8 8000000078000000_          34000                       SYMBOLS (WYLEXEC,EXEC),(WYLEVAL,EVAL),(WYLVARS,VARS)
 004B08 8000000078000000_          34004                       SYMBOLS (WYLFLOW,FLOW),(WYLRECS,RECS)
 004B28 8000000078000000_          34007                       SYMBOLS (WYLSCAN,SCAN),(WYLOSCN,OSCN),(WYLEDIT,EDIT)
 004B58 8000000078000000_          34011                       SYMBOLS (WYLACCT,ACCT),(WYLACMD,ACMD)
 004B78 8000000078000000           34014                       SYMBOLS (WYLSPELL,SPELL)
 004B88 8000000078000000_          34016                       SYMBOLS (WYLLINE,LINE),(WYLMODE,MODE)
 004BA8 8000000078000000_          34019                       SYMBOLS (WYLPAGE,PAGE),(WYLVIEW,VIEW)
 004BC8 8000000078000000_          34022                       SYMBOLS (WYLPROT,PROT),(WYLTAPE,TAPE)
 004BE8 8000000078000000_          34025                       SYMBOLS (WYLTEST,TEST),(WYLFAIL,FAIL)
 004C08 8000000078000000           34028                       SYMBOLS (WYLCHAZ,CHAZ)
 004C18 8000000078000000_          34030                       SYMBOLS (WYLITEST,ITEST),(WYLCRYPT,CRYPT)
 004C38 8000000078000000_          34033                       SYMBOLS (WYLDBUG,DBUG),(WYLWBUG,WBUG)
 004C58 8000000078000000_          34036                       SYMBOLS (WYLFUNC,FUNC),(WYLSYSV,SYSV),(WYLPROC,PROC)
 004C88 8000000078000000           34040                       SYMBOLS (WYLPATH,PATH)
 004C98 8000000078000000_          34042                       SYMBOLS (WYLWGS,WGS),(WYLUFS,UFS)
 004CB8 8000000078000000           34045                       SYMBOLS (WYLNFILE,NFILE)
 004CC8 8000000078000000_          34047                       SYMBOLS (WYLCOMM,COMM),(WYLXCALL,XCALL)
 004CE8 8000000078000000           34050                       SYMBOLS (WYLNET,NET)
 004CF8 8000000078000000           34052                       SYMBOLS (WYLNPAT,NPAT)
 004D08 8000000078000000           34054                       SYMBOLS (WYLHELP,HELP)
 004D18 8000000078000000_          34056                       SYMBOLS (WYLFILE,FILE),(WYLDIR,DIR)
 004D38 8000000078000000           34059                       SYMBOLS (WYLVETS,VETS)
 004D48 8000000078000000           34061                       SYMBOLS (WYLVPO,VPO)
 004D58 8000000078000000           34063                       SYMBOLS (WYLKEYS,KEYS)
 004D68 8000000078000000           34065                       SYMBOLS (WYLMICRO,MICRO)
 004D78 8000000078000000_          34067                       SYMBOLS (WYLEXT,EXT),(WYLSAM,SAM)
 004D98 8000000078000000_          34070                       SYMBOLS (WYLNEWS,NEWS),(WYLMAIL,MAIL)
 004DB8 8000000078000000_          34073                       SYMBOLS (WYLTEXT,TEXT),(WYLINIT,INIT)
 004DD8 8000000078000000_          34076                       SYMBOLS (WYLTERM,TERM),(WYLTINT,TINT),(WYLTOPS,TOPS)
 004E08 8000000078000000_          34080                       SYMBOLS (WYLDYNA,DYNA),(WYLLOCL,LOCAL)
 004E28 0000000078000000           34083                       SYMBOLS (0,WVOL),CSECT=NO
 004E38 FFFFFFFF                   34085                       DC    F'-1'               End of symbol table
1FAIL     (FAIL2025) (12:44) (15MAR04) WYLBUR's Dump Formatter                                                              Page   75
0Current Usings:  (TCOREWA,R8) (CP,R11) (CV,R12)
0Loc    Object Code    Addr1 Addr2  Stmt Lv Lineno    Source Statement           (Hibal 5, Asmedit 3.3)  HLASM R4.0  2004/03/15 12.44
+___    ______ ____    _____ _____  ____ __ ______    ______ _________
0004E40                04E40 04E40 34086                       END   .

1FAIL     (FAIL2025) (12:44) (15MAR04) Relocation Dictionary                                                                Page   76
-   Pos.Id   Rel.Id   Flags    Address                                                       HLASM R4.0  2004/03/15 12.44
0  00000001 00000001    0C    00000074
   00000001 00000001    0C    000000D0
   00000001 00000001    0C    00000120
   00000001 00000001    0C    00000288
   00000001 00000001    0C    00000298
   00000001 00000001    0C    000002C0
   00000001 00000001    0C    000002C4
   00000001 00000001    0C    00000940
   00000001 00000001    0C    00000D48
   00000001 00000001    0C    00000D5C
   00000001 00000001    0C    00000F74
   00000001 00000001    0C    000011C4
   00000001 00000001    0C    0000154C
   00000001 00000001    0C    00001574
   00000001 00000001    0C    00001AAC
   00000001 00000001    0C    00001AC0
   00000001 00000001    0C    00001AC8
   00000001 00000001    0C    00001AE4
   00000001 00000001    0C    00001AF0
   00000001 00000001    0C    00001B14
   00000001 00000001    0C    00001B18
   00000001 00000001    0C    00001B34
   00000001 00000001    0C    00001B40
   00000001 00000001    0C    00001B4C
   00000001 00000001    08    000021D5
   00000001 00000001    0C    00002704
   00000001 00000001    0C    00002708
   00000001 00000001    0C    0000271C
   00000001 00000001    0C    00002728
   00000001 00000001    0C    00002740
   00000001 00000001    0C    00002780
   00000001 00000001    0C    000027B4
   00000001 00000001    0C    000027B8
   00000001 00000001    0C    000027BC
   00000001 00000001    08    0000292D
   00000001 00000001    08    000033D5
   00000001 00000001    0C    000034C0
   00000001 00000001    0C    000034C4
   00000001 00000001    0C    000034C8
   00000001 00000001    0C    000034D4
   00000001 00000001    0C    000034E0
   00000001 00000001    0C    00003510
   00000001 00000001    0C    0000353C
   00000001 00000001    0C    0000354C
   00000001 00000001    0C    0000355C
   00000001 00000001    0C    0000358C
   00000001 00000001    0C    00003590
   00000001 00000001    0C    0000359C
   00000001 00000001    0C    000035A4
   00000001 00000001    0C    000035AC
   00000001 00000001    0C    00003F08
   00000001 00000001    0C    000046F0
   00000001 00000001    0C    00004748
   00000001 00000001    0C    00004750
   00000001 00000001    0C    00004774
1FAIL     (FAIL2025) (12:44) (15MAR04) Relocation Dictionary                                                                Page   77
   00000001 00000001    0C    00004778
   00000001 00000001    0C    00004784
   00000001 00000001    08    00004895
   00000001 00000001    0C    000048A0
   00000001 00000001    0C    000048AC
   00000001 00000001    0C    000048B0
   00000001 00000001    08    000048B5
   00000001 00000001    08    000048C9
   00000001 00000001    0C    000048D4
   00000001 00000001    0C    000048E0
   00000001 00000001    08    000048E5
   00000001 00000001    08    00004921
   00000001 00000001    08    0000495D
   00000001 00000002    1C    00000290
   00000001 00000002    1C    0000073C
   00000001 00000002    1C    00000D54
   00000001 00000002    1C    00001AB8
   00000001 00000002    1C    00002718
   00000001 00000002    1C    000034F0
   00000001 00000002    1C    000046F8
   00000001 00000003    1C    00000294
   00000001 00000003    1C    00000D98
   00000001 00000003    1C    00002730
   00000001 00000003    1C    00003558
   00000001 00000003    1C    00004740
   00000001 00000004    1C    00000738
   00000001 00000005    1C    00000740
   00000001 00000005    1C    00000D58
   00000001 00000005    1C    00001ABC
   00000001 00000005    1C    00003538
   00000001 00000005    1C    00004708
   00000001 00000006    1C    00000748
   00000001 00000006    1C    00002714
   00000001 00000006    1C    000034F4
   00000001 00000007    1C    0000074C
   00000001 00000007    1C    00000D94
   00000001 00000007    1C    00001B44
   00000001 00000007    1C    0000277C
   00000001 00000007    1C    000034F8
   00000001 00000007    1C    000046FC
   00000001 00000008    1C    0000075C
   00000001 00000008    1C    0000270C
   00000001 00000008    1C    000034CC
   00000001 00000009    1C    00000760
   00000001 0000000A    1C    0000093C
   00000001 0000000A    1C    00000F70
   00000001 0000000A    1C    000011C0
   00000001 0000000B    1C    00000968
   00000001 0000000B    1C    00000F9C
   00000001 0000000B    1C    000011EC
   00000001 0000000B    1C    0000159C
   00000001 0000000C    1C    0000098C
   00000001 0000000C    1C    00000FC0
   00000001 0000000C    1C    00001210
   00000001 0000000C    1C    000015E8
   00000001 0000000D    1C    00000990
   00000001 0000000D    1C    00000D64
   00000001 0000000D    1C    00000FC4
   00000001 0000000D    1C    00001214
1FAIL     (FAIL2025) (12:44) (15MAR04) Relocation Dictionary                                                                Page   78
   00000001 0000000D    1C    000015EC
   00000001 0000000D    1C    00001AA8
   00000001 0000000E    1C    00000D4C
   00000001 0000000E    1C    00001AB0
   00000001 0000000F    1C    00000D50
   00000001 0000000F    1C    00001AB4
   00000001 00000010    1C    00000D60
   00000001 00000010    1C    00001AC4
   00000001 00000011    1C    00000D78
   00000001 00000011    1C    0000473C
   00000001 00000012    1C    00000D7C
   00000001 00000012    1C    0000472C
   00000001 00000013    1C    00001548
   00000001 00000014    1C    00001570
   00000001 00000015    1C    000015C4
   00000001 00000016    1C    00001AE0
   00000001 00000016    1C    000027A4
   00000001 00000017    1C    00001AE8
   00000001 00000018    1C    00001AEC
   00000001 00000019    1C    00001AF4
   00000001 0000001A    1C    00001AF8
   00000001 0000001B    1C    00001B20
   00000001 0000001C    1C    00001B24
   00000001 0000001D    1C    00001B2C
   00000001 0000001D    1C    0000275C
   00000001 0000001D    1C    00003508
   00000001 0000001D    1C    00004704
   00000001 0000001E    1C    00001B30
   00000001 0000001E    1C    00003520
   00000001 0000001E    1C    000046F4
   00000001 0000001F    1C    00001B3C
   00000001 0000001F    1C    0000350C
   00000001 00000020    1C    000026E4
   00000001 00000020    18    00004969
   00000001 00000021    1C    000026E8
   00000001 00000021    1C    000034DC
   00000001 00000021    1C    0000478C
   00000001 00000022    1C    000026EC
   00000001 00000023    1C    000026F0
   00000001 00000024    1C    000026F4
   00000001 00000025    1C    00002700
   00000001 00000025    1C    00003500
   00000001 00000026    1C    00002710
   00000001 00000027    1C    00002734
   00000001 00000028    1C    00002744
   00000001 00000029    1C    00002748
   00000001 0000002A    1C    0000274C
   00000001 0000002B    1C    00002750
   00000001 0000002C    1C    00002754
   00000001 0000002D    1C    00002758
   00000001 0000002E    1C    000027A0
   00000001 0000002F    1C    000027A8
   00000001 00000030    1C    000027AC
   00000001 00000031    1C    000027B0
   00000001 00000031    1C    000034D8
   00000001 00000031    1C    00004788
   00000001 00000032    1C    000027C0
   00000001 00000033    1C    000027C4
   00000001 00000034    1C    000027C8
1FAIL     (FAIL2025) (12:44) (15MAR04) Relocation Dictionary                                                                Page   79
   00000001 00000035    1C    000027CC
   00000001 00000036    1C    000027D0
   00000001 00000037    1C    000027D4
   00000001 00000038    1C    000027D8
   00000001 00000039    1C    00003504
   00000001 0000003A    1C    00003550
   00000001 0000003B    1C    00003554
   00000001 0000003C    1C    00003584
   00000001 0000003D    1C    00003594
   00000001 0000003D    1C    00004700
   00000001 0000003E    1C    000035A0
   00000001 0000003F    1C    000035B8
   00000001 00000040    1C    000037AC
   00000001 00000041    1C    000037B8
   00000001 00000042    1C    0000474C
   00000001 00000043    18    00004979
   00000001 00000044    18    00004989
   00000001 00000045    18    00004999
   00000001 00000046    18    000049A9
   00000001 00000047    18    000049B9
   00000001 00000048    18    000049C9
   00000001 00000049    18    000049D9
   00000001 0000004A    18    000049E9
   00000001 0000004B    18    000049F9
   00000001 0000004C    18    00004A09
   00000001 0000004D    18    00004A19
   00000001 0000004E    18    00004A29
   00000001 0000004F    18    00004A39
   00000001 00000050    18    00004A49
   00000001 00000051    18    00004A59
   00000001 00000052    18    00004A69
   00000001 00000053    18    00004A79
   00000001 00000054    18    00004A89
   00000001 00000055    18    00004A99
   00000001 00000056    18    00004AA9
   00000001 00000057    18    00004AB9
   00000001 00000058    18    00004AC9
   00000001 00000059    18    00004AD9
   00000001 0000005A    18    00004AE9
   00000001 0000005B    18    00004AF9
   00000001 0000005C    18    00004B09
   00000001 0000005D    18    00004B19
   00000001 0000005E    18    00004B29
   00000001 0000005F    18    00004B39
   00000001 00000060    18    00004B49
   00000001 00000061    18    00004B59
   00000001 00000062    18    00004B69
   00000001 00000063    18    00004B79
   00000001 00000064    18    00004B89
   00000001 00000065    18    00004B99
   00000001 00000066    18    00004BA9
   00000001 00000067    18    00004BB9
   00000001 00000068    18    00004BC9
   00000001 00000069    18    00004BD9
   00000001 0000006A    18    00004BE9
   00000001 0000006B    18    00004BF9
   00000001 0000006C    18    00004C09
   00000001 0000006D    18    00004C19
   00000001 0000006E    18    00004C29
1FAIL     (FAIL2025) (12:44) (15MAR04) Relocation Dictionary                                                                Page   80
   00000001 0000006F    18    00004C39
   00000001 00000070    18    00004C49
   00000001 00000071    18    00004C59
   00000001 00000072    18    00004C69
   00000001 00000073    18    00004C79
   00000001 00000074    18    00004C89
   00000001 00000075    18    00004C99
   00000001 00000076    18    00004CA9
   00000001 00000077    18    00004CB9
   00000001 00000078    18    00004CC9
   00000001 00000079    18    00004CD9
   00000001 0000007A    18    00004CE9
   00000001 0000007B    18    00004CF9
   00000001 0000007C    18    00004D09
   00000001 0000007D    18    00004D19
   00000001 0000007E    18    00004D29
   00000001 0000007F    18    00004D39
   00000001 00000080    18    00004D49
   00000001 00000081    18    00004D59
   00000001 00000082    18    00004D69
   00000001 00000083    18    00004D79
   00000001 00000084    18    00004D89
   00000001 00000085    18    00004D99
   00000001 00000086    18    00004DA9
   00000001 00000087    18    00004DB9
   00000001 00000088    18    00004DC9
   00000001 00000089    18    00004DD9
   00000001 0000008A    18    00004DE9
   00000001 0000008B    18    00004DF9
   00000001 0000008C    18    00004E09
   00000001 0000008D    18    00004E19

1FAIL     (FAIL2025) (12:44) (15MAR04) Ordinary Symbol and Literal Cross Reference                                          Page   81
-Symbol   Length   Value     Id    R Type   Defn References                                  HLASM R4.0  2004/03/15 12.44
0$$$@R0        1 00000000 FFFFFFFE     J     705  1008
 $$$@R10       1 00000000 FFFFFFF4     J     835  1072
 $$$@R11       1 00000000 FFFFFFF3     J     848  1085
 $$$@R12       1 00000000 FFFFFFF2     J     861  1098
 $$$@R13       1 00000000 FFFFFFF1     J     874  1111
 $$$@R14       1 00000000 FFFFFFF0     J     887  1124
 $$$@R7        1 00000000 FFFFFFF7     J     796  1021
 $$$@R8        1 00000000 FFFFFFF6     J     809  1034   1046
 $$$@R9        1 00000000 FFFFFFF5     J     822  1059
 $$$C1WYLFAIL
               1 0000029F 00000001     J   14343 14345  14578
 $$$C2WYLFAIL
               1 000007A3 00000001     J   15973 15975
 $$$C3WYLFAIL
               1 00000E46 00000001     J   17869 17871  19310  19638  19753  19863
 $$$C4WYLFAIL
               1 00001C08 00000001     J   21536 21538  21567  22160
 $$$C5WYLFAIL
               1 000028D6 00000001     J   24342 24344
 $$$C6WYLFAIL
               1 00003724 00000001     J   28589 28591
 $$$C7WYLFAIL
               1 000037BC 00000001     J   28768 28770  31534  32897  33534  33554
 $$$C8WYLFAIL
               1 00004894 00000001     J   33837 33839
 $$$C9WYLFAIL
               1 00004E40 00000001     J   34089 34091
 $$$D0WYLFAIL
               1 0000029E 00000001     J     993 13627
 $$$D3WYLFAIL
               1 00001BF5 00000001     J   17870 19627  19742  19852
 $$$D4WYLFAIL
               1 000028BE 00000001     J   21537 21543  22149
 $$$D7WYLFAIL
               1 00004881 00000001     J   28769 32886  33523  33543
 $$$RCP        1 00000000 FFFFFFEC     J    2536  4796   6270   6270
 $$$RCV        1 00000000 FFFFFFEE     J    1261  2446   2446
 $$$RDEV       1 00000000 FFFFFFEB     J    4750  4795   4795
 $$$REPIE      1 00000000 FFFFFFCA     J   13418 13439  13439
 $$$RJCB       1 00000000 FFFFFFE7     J    6497  6771   6771
 $$$RLOC       1 00000000 FFFFFFC6     J   13603 13620  13620
 $$$RNSCNCB
               1 00000000 FFFFFFED     J    2457  2530   2530
 $$$RPATWA
               1 00000000 FFFFFFC4     J   19282 19309  19309
 $$$RRESOURCE
               1 00000000 FFFFFFE8     J    6450  6491   6491
 $$$RRSCGROUP
               1 00000000 FFFFFFE9     J    6389  6444   6444
 $$$RSEGCB
               1 00000000 FFFFFFE6     J    6777  6877   6877
 $$$RSYMBOL
               1 00000000 FFFFFFC7     J   13559 13597  13597
 $$$RTCOREWA
               1 00000000 FFFFFFC3     J   31517 31533  31533
1FAIL     (FAIL2025) (12:44) (15MAR04) Ordinary Symbol and Literal Cross Reference                                          Page   82
 $$$RTP        1 00000000 FFFFFFC9     J   13446 13499  13499
 $$$RTRE       1 00000000 FFFFFFC8     J   13505 13552  13552
 $$$RTTYPE
               1 00000000 FFFFFFEA     J    6281  6382   6382
 $$$RUSERCVT
               1 00000000 FFFFFFCF     J   11610 11693  11693
 $$$RXWTOWA
               1 00000000 FFFFFFC5     J   14463 14577  14577
 $$$SEGCB0
               4 00000050 FFFFFFEC     F    2567  2653   2653
 $$$SEGCB76
               4 000002A0 00000001     F   14362 14448  14448
 $$$SEGCB84
               4 00000000 FFFFFFC5     F   14470 14556  14556
 $$$100F       2 0000046E 00000001     H   15069 15059B
 $$$101F       2 00000486 00000001     H   15111 15082B
 $$$102F       2 00000486 00000001     H   15107 15097B
 $$$103F       2 00000532 00000001     H   15324 15163B 15180B
 $$$105        1 00000110 00000001 A   U   15357 15354  15356
 $$$106B       1 00000542 00000001     X   15375 15382U
 $$$107F       2 0000055E 00000001     H   15427 15417B
 $$$108F       2 00000684 00000001     H   15775 15439B 15509B
 $$$109F       2 00000582 00000001     H   15494 15485B
 $$$111B       4 000005AE 00000001     I   15556 15597
 $$$111F       2 000005D0 00000001     H   15593 15556B 15581B 15596
 $$$113E       2 000005D4 00000001     H   15604 15598
 $$$113F       2 0000063C 00000001     H   15683 15600B 15615B
 $$$115F       2 00000652 00000001     H   15711 15696B
 $$$116F       2 00000670 00000001     H   15740 15722B
 $$$117F       2 00000680 00000001     H   15765 15755B
 $$$119F       2 000006B4 00000001     H   15854 15824B
 $$$120F       2 000006C8 00000001     H   15882 15872B
 $$$121F       2 000006D4 00000001     H   15903 15893B
 $$$123B       1 0000082A 00000001     X   16025 16032U
 $$$124F       2 00000896 00000001     H   16117 16097B 16108B
 $$$126F       2 000008DE 00000001     H   16225 16130B
 $$$127F       2 000008D2 00000001     H   16210 16158B
 $$$128S       2 000008E2 00000001     H   16234 16314B
 $$$129F       2 000008FE 00000001     H   16293 16260B
 $$$133        1 00000050 00000001 A   U   16343 16340  16342
 $$$135B       1 000009AE 00000001     X   16416 16423U
 $$$136F       2 000009C6 00000001     H   16460 16447B
 $$$137        1 00000050 00000001 A   U   16480 16477  16479
 $$$139B       1 000009F2 00000001     X   16514 16521U
 $$$141F       2 00000A72 00000001     H   16723 16615B
 $$$142F       2 00000B3A 00000001     H   17026 16738B
 $$$143F       2 00000AA4 00000001     H   16818 16806B
 $$$144F       2 00000B3A 00000001     H   17008 16938B
 $$$145F       2 00000B54 00000001     H   17064 17038B
 $$$146F       2 00000B6E 00000001     H   17101 17075B
 $$$147F       2 00000B88 00000001     H   17138 17112B
 $$$148F       2 00000BA2 00000001     H   17175 17149B
 $$$149F       2 00000BBC 00000001     H   17212 17186B
 $$$150F       2 00000BFC 00000001     H   17329 17225B
 $$$151F       2 00000CE0 00000001     H   17692 17346B
 $$$151S       2 00000C00 00000001     H   17337 17691B
 $$$153F       2 00000C5E 00000001     H   17485 17390B 17480B
 $$$153S       2 00000C0C 00000001     H   17385 17410B 17484B
 $$$156F       2 00000CD8 00000001     H   17664 17532B 17659B
1FAIL     (FAIL2025) (12:44) (15MAR04) Ordinary Symbol and Literal Cross Reference                                          Page   83
 $$$156S       2 00000C64 00000001     H   17527 17551B 17663B
 $$$159F       2 00000D1E 00000001     H   17767 17705B
 $$$160        1 00000050 00000001 A   U   17818 17815  17817
 $$$162B       1 00000E60 00000001     X   17903 17910U
 $$$163F       2 00000E6E 00000001     H   17942 17929B
 $$$164F       2 00000F10 00000001     H   18088 17993B
 $$$165F       2 00000F04 00000001     H   18073 18021B
 $$$166S       2 00000F14 00000001     H   18095 18175B
 $$$167F       2 00000F30 00000001     H   18154 18121B
 $$$171        1 00000050 00000001 A   U   18204 18201  18203
 $$$173B       1 00000FE2 00000001     X   18277 18284U
 $$$174F       2 00000FFA 00000001     H   18321 18308B
 $$$175        1 00000050 00000001 A   U   18341 18338  18340
 $$$177B       1 00001026 00000001     X   18373 18380U
 $$$179B       1 00001044 00000001     X   18414 18424U 19053U
 $$$180F       2 00001052 00000001     H   18456 18443B
 $$$181F       2 000010BE 00000001     H   18524 18508B
 $$$182F       2 000010F4 00000001     H   18605 18590B
 $$$183F       2 00001110 00000001     H   18648 18621B 18633B
 $$$185F       2 0000112C 00000001     H   18691 18664B 18676B
 $$$187F       2 00001156 00000001     H   18740 18727B
 $$$188B       4 00001164 00000001     I   18780 18800
 $$$188F       2 0000116C 00000001     H   18794 18780B 18799
 $$$189E       2 00001170 00000001     H   18807 18801
 $$$189F       2 0000119C 00000001     H   18882 18803B
 $$$190F       2 0000119C 00000001     H   18878 18824B
 $$$191F       2 0000119C 00000001     H   18874 18839B
 $$$193B       1 00001232 00000001     X   18966 18976U
 $$$194F       2 0000123E 00000001     H   19007 18994B
 $$$195F       2 00001258 00000001     H   19037 19024B
 $$$196        1 00000050 00000001 A   U   19064 19061  19063
 $$$198B       1 00001284 00000001     X   19097 19107U
 $$$199F       2 00001292 00000001     H   19139 19126B
 $$$200F       2 00001312 00000001     H   19241 19197B
 $$$201F       2 00001310 00000001     H   19236 19223B
 $$$203B       1 00001344 00000001     X   19343 19350U
 $$$204F       2 00001362 00000001     H   19409 19396B
 $$$206F       2 000013FE 00000001     H   19544 19485B
 $$$207F       2 000013FE 00000001     H   19540 19501B
 $$$208F       2 0000140A 00000001     H   19563 19554B
 $$$209F       2 0000147C 00000001     H   19643 19619B
 $$$210        6 00001BF6 00000001     I   19633 19625X
 $$$211        6 00001BF6 00000001     I   19632 19633  19633
 $$$212F       2 000014AC 00000001     H   19698 19689B
 $$$213F       2 000014DC 00000001     H   19785 19716B
 $$$214F       2 000014CC 00000001     H   19758 19734B
 $$$215        6 00001BFC 00000001     I   19748 19740X
 $$$216        6 00001BFC 00000001     I   19747 19748  19748
 $$$217F       2 000014DC 00000001     H   19781 19765B
 $$$218F       2 000014F2 00000001     H   19813 19797B
 $$$219F       2 00001508 00000001     H   19872 19826B
 $$$220F       2 00001508 00000001     H   19868 19844B
 $$$221        6 00001C02 00000001     I   19858 19850X
 $$$222        6 00001C02 00000001     I   19857 19858  19858
 $$$223        1 00000230 00000001 A   U   19908 19905  19907
 $$$225B       1 0000160A 00000001     X   20014 20021U
 $$$226        1 00000050 00000001 A   U   20053 20050  20052
 $$$228B       1 00001636 00000001     X   20081 20088U
 $$$229F       2 00001668 00000001     H   20167 20108B
1FAIL     (FAIL2025) (12:44) (15MAR04) Ordinary Symbol and Literal Cross Reference                                          Page   84
 $$$230F       2 00001668 00000001     H   20163 20124B
 $$$231F       2 00001674 00000001     H   20186 20177B
 $$$232        1 00000050 00000001 A   U   20205 20202  20204
 $$$233B       1 00001688 00000001     X   20222 20229U 20734U 20825U 21460U
 $$$234F       2 000016A8 00000001     H   20292 20245B 20260B
 $$$237B       1 000016DE 00000001     X   20354 20364U
 $$$239F       2 0000185C 00000001     H   20680 20449B
 $$$240F       2 000017F6 00000001     H   20617 20548B
 $$$240T       2 000017BA 00000001     H   20551 20537B
 $$$242F       2 000017E8 00000001     H   20599 20567B
 $$$243F       2 000017E8 00000001     H   20595 20582B
 $$$245F       2 00001870 00000001     H   20718 20705B
 $$$246        1 00000050 00000001 A   U   20745 20742  20744
 $$$248B       1 0000189C 00000001     X   20778 20788U
 $$$249        1 00000050 00000001 A   U   20836 20833  20835
 $$$251B       1 000018D0 00000001     X   20868 20878U
 $$$252F       2 000018DE 00000001     H   20910 20897B
 $$$253F       2 0000194A 00000001     H   20974 20960B
 $$$254B       4 00001958 00000001     I   20989 21366
 $$$254F       2 00001A50 00000001     H   21363 20989B 21365
 $$$255F       2 00001978 00000001     H   21045 21018B
 $$$256F       2 000019FC 00000001     H   21243 21084B 21106B 21127B 21140B 21161B
 $$$262F       2 00001A50 00000001     H   21354 21306B
 $$$263E       2 00001A54 00000001     H   21373 21367
 $$$263F       2 00001A76 00000001     H   21420 21369B
 $$$264F       2 00001A6E 00000001     H   21404 21391B
 $$$265        1 00000050 00000001 A   U   21471 21468  21470
 $$$266F       2 00001C14 00000001     H   21614 21601B
 $$$267B       1 00001C16 00000001     X   21629 21639U
 $$$268F       2 00001C3A 00000001     H   21701 21686B
 $$$269F       2 00001C56 00000001     H   21737 21723B
 $$$270F       2 00001CDA 00000001     H   21875 21845B 21865B
 $$$273F       2 00001D22 00000001     H   21938 21914B
 $$$274F       2 00001D98 00000001     H   22104 22053B
 $$$275F       2 00001DA8 00000001     H   22125 22116B
 $$$276F       2 00001DBE 00000001     H   22165 22141B
 $$$277        6 000028D0 00000001     I   22155 22147X
 $$$278        6 000028D0 00000001     I   22154 22155  22155
 $$$283B       4 00001DF8 00000001     I   22295 22385
 $$$283F       2 00001E3C 00000001     H   22379 22295B 22384
 $$$285F       2 00001E3C 00000001     H   22375 22338B
 $$$286E       2 00001E40 00000001     H   22392 22386
 $$$286F       2 00001E70 00000001     H   22504 22388B
 $$$287F       2 00001E70 00000001     H   22492 22426B 22459B
 $$$288F       2 00001E64 00000001     H   22462 22443B
 $$$291F       2 00001EF0 00000001     H   22619 22584B
 $$$292B       1 00001EFC 00000001     X   22656 22663U
 $$$293F       2 00001F20 00000001     H   22715 22700B
 $$$294F       2 00001F5E 00000001     H   22788 22740B
 $$$295F       2 00001F72 00000001     H   22821 22804B
 $$$296B       4 00002030 00000001     I   23075 23123
 $$$296F       2 00002058 00000001     H   23119 23075B 23122
 $$$297E       2 0000205C 00000001     H   23130 23124
 $$$297F       2 00002082 00000001     H   23208 23126B
 $$$298F       2 00002108 00000001     H   23434 23246B
 $$$299F       2 00002108 00000001     H   23425 23378B
 $$$300F       2 00002126 00000001     H   23482 23446B
 $$$301F       2 00002148 00000001     H   23561 23548B
 $$$302B       1 0000214E 00000001     X   23589 23596U
1FAIL     (FAIL2025) (12:44) (15MAR04) Ordinary Symbol and Literal Cross Reference                                          Page   85
 $$$303F       2 000021DA 00000001     H   23694 23672B
 $$$305F       2 00002216 00000001     H   23788 23775B
 $$$306B       1 0000221C 00000001     X   23816 23823U
 $$$308B       1 000025D2 00000001     X   23969 23976U
 $$$309F       2 000025EC 00000001     H   24015 24000B
 $$$311B       1 0000262C 00000001     X   24077 24084U
 $$$312F       2 0000268E 00000001     H   24244 24104B
 $$$313F       2 0000268E 00000001     H   24240 24135B 24166B 24199B
 $$$317        1 00000050 00000001 A   U   24262 24259  24261
 $$$318B       1 000028F0 00000001     X   24364 24371U
 $$$321F       2 00002976 00000001     H   24541 24504B
 $$$322F       2 000029C8 00000001     H   24655 24583B
 $$$323F       2 00002C20 00000001     H   25619 24882B
 $$$324F       2 00002C20 00000001     H   25607 25067B
 $$$324S       2 00002AB6 00000001     H   25060 25606B
 $$$326F       2 00002AF6 00000001     H   25168 25155B
 $$$328F       2 00002B06 00000001     H   25193 25180B
 $$$330F       2 00002B86 00000001     H   25353 25279B
 $$$332F       2 00002BDC 00000001     H   25514 25380B 25402B 25435B
 $$$332T       2 00002B96 00000001     H   25383 25369B
 $$$338F       2 00002DA0 00000001     H   26128 25683B
 $$$339F       2 00002DE8 00000001     H   26231 26204B
 $$$340F       2 00002E02 00000001     H   26269 26242B
 $$$341F       2 00002E1C 00000001     H   26307 26280B
 $$$342F       2 00002F56 00000001     H   26839 26344B 26409B 26429B
 $$$345F       2 00002EFA 00000001     H   26687 26661B
 $$$346F       2 00002F4A 00000001     H   26796 26745B
 $$$347F       2 00002FB8 00000001     H   26974 26853B
 $$$348F       2 00002FF6 00000001     H   27056 27047B
 $$$348S       2 00002FE8 00000001     H   27030 27055B
 $$$351F       2 00003178 00000001     H   27624 27258B 27610B
 $$$351S       2 00003054 00000001     H   27206 27623B
 $$$352F       2 00003068 00000001     H   27245 27234B
 $$$354F       2 000030F8 00000001     H   27450 27410B
 $$$355F       2 0000315A 00000001     H   27586 27462B
 $$$358F       2 0000331A 00000001     H   28154 27796B
 $$$359F       2 00003294 00000001     H   27963 27953B
 $$$360F       2 000032A6 00000001     H   27998 27989B
 $$$360T       2 000032A2 00000001     H   27992 27977B
 $$$362F       2 000032F0 00000001     H   28107 28055B
 $$$363F       2 00003352 00000001     H   28232 28182B
 $$$364F       2 00003386 00000001     H   28294 28244B
 $$$365F       2 0000342C 00000001     H   28458 28410B
 $$$367B       1 0000373E 00000001     X   28615 28622U
 $$$368B       4 0000374E 00000001     I   28636 28686
 $$$368F       2 00003770 00000001     H   28683 28636B 28685
 $$$369E       2 00003774 00000001     H   28693 28687
 $$$369F       2 00003796 00000001     H   28738 28689B
 $$$370B       1 000037D6 00000001     X   28787 28794U
 $$$371F       2 0000387A 00000001     H   29094 28821B
 $$$371S       2 000037DA 00000001     H   28812 29093B
 $$$373F       2 00003866 00000001     H   29063 28925B 28968B 28989B 29002B 29023B
 $$$379B       1 000038A0 00000001     X   29134 29141U
 $$$381F       2 0000395E 00000001     H   29426 29246B
 $$$382F       2 0000395E 00000001     H   29422 29368B
 $$$383F       2 000039B8 00000001     H   29543 29497B
 $$$384F       2 000039B8 00000001     H   29539 29512B
 $$$385F       2 000039F6 00000001     H   29621 29556B
 $$$386F       2 00003A10 00000001     H   29662 29635B
1FAIL     (FAIL2025) (12:44) (15MAR04) Ordinary Symbol and Literal Cross Reference                                          Page   86
 $$$387F       2 00003A2A 00000001     H   29700 29673B
 $$$388F       2 00003A44 00000001     H   29738 29711B
 $$$389F       2 00003A5E 00000001     H   29776 29749B
 $$$390F       2 00003A78 00000001     H   29814 29787B
 $$$391F       2 00003A92 00000001     H   29852 29825B
 $$$392F       2 00003AD0 00000001     H   29933 29865B
 $$$393F       2 00003B10 00000001     H   30053 29946B
 $$$394F       2 00003BF4 00000001     H   30422 30070B
 $$$394S       2 00003B14 00000001     H   30061 30421B
 $$$396F       2 00003B72 00000001     H   30211 30114B 30206B
 $$$396S       2 00003B20 00000001     H   30109 30134B 30210B
 $$$399F       2 00003BEC 00000001     H   30394 30258B 30389B
 $$$399S       2 00003B78 00000001     H   30253 30277B 30393B
 $$$402F       2 00003DF8 00000001     H   31148 30460B
 $$$403F       2 00003CD4 00000001     H   30738 30668B
 $$$404F       2 00003D04 00000001     H   30815 30779B
 $$$405F       2 00003D04 00000001     H   30811 30796B
 $$$406F       2 00003D36 00000001     H   30898 30886B
 $$$407F       2 00003DF8 00000001     H   31130 31098B
 $$$408F       2 00003E12 00000001     H   31242 31229B
 $$$409B       1 00003E3A 00000001     X   31281 31288U
 $$$410F       2 00003EC4 00000001     H   31460 31313B
 $$$410S       2 00003E4C 00000001     H   31307 31459B
 $$$412F       2 00003EB8 00000001     H   31453 31332B
 $$$413B       1 00003EFC 00000001     X   31546 31553U
 $$$414F       2 00004132 00000001     H   32294 31599B
 $$$414S       2 00003F2C 00000001     H   31593 32293B
 $$$416F       2 00003F52 00000001     H   31665 31618B 31633B
 $$$418B       4 00003F80 00000001     I   31721 31845
 $$$418F       2 00003FE0 00000001     H   31837 31710B 31721B 31842
 $$$419B       4 00003F7A 00000001     I   31710 31843
 $$$420F       2 00003FB0 00000001     H   31769 31745B 31756B
 $$$420S       2 00003F8C 00000001     H   31738 31768B
 $$$423B       4 00003FE6 00000001     I   31860 32099
 $$$423E       2 00003FE4 00000001     H   31852 31844  31846
 $$$423F       2 00004096 00000001     H   32094 31848B 31860B 32098
 $$$425F       2 0000403A 00000001     H   31996 31969B
 $$$425S       2 00004002 00000001     H   31901 31993B
 $$$429E       2 0000409A 00000001     H   32106 32100
 $$$429F       2 0000412E 00000001     H   32289 32102B
 $$$430F       2 000040D2 00000001     H   32191 32163B
 $$$430S       2 000040A0 00000001     H   32114 32188B
 $$$434B       1 0000417E 00000001     X   32383 32390U
 $$$435B       1 000041A0 00000001     X   32440 32450U
 $$$436B       4 000041CA 00000001     I   32507 32643
 $$$436F       2 00004230 00000001     H   32639 32507B 32642
 $$$437F       2 0000421E 00000001     H   32617 32569B
 $$$438E       2 00004234 00000001     H   32650 32644
 $$$438F       2 000042A0 00000001     H   32794 32646B 32662B
 $$$440F       2 0000428E 00000001     H   32772 32724B
 $$$441B       1 000042C6 00000001     X   32826 32836U
 $$$444        6 00004882 00000001     I   32892 32884X
 $$$445        6 00004882 00000001     I   32891 32892  32892
 $$$446F       2 00004308 00000001     H   32954 32924B 32943B
 $$$446S       2 000042EE 00000001     H   32915 32953B
 $$$449F       2 00004312 00000001     H   32978 32965B
 $$$450B       1 0000433A 00000001     X   33018 33025U
 $$$451F       2 00004394 00000001     H   33155 33093B 33107B
 $$$451S       2 0000436C 00000001     H   33084 33154B
1FAIL     (FAIL2025) (12:44) (15MAR04) Ordinary Symbol and Literal Cross Reference                                          Page   87
 $$$454B       4 00004380 00000001     I   33122 33135
 $$$454F       2 00004386 00000001     H   33132 33122B 33134
 $$$455E       2 0000438A 00000001     H   33142 33136
 $$$455F       2 0000438C 00000001     H   33149 33138B
 $$$456F       2 000043E6 00000001     H   33275 33164B
 $$$457F       2 000043C6 00000001     H   33229 33192B
 $$$457T       2 000043A6 00000001     H   33195 33182B
 $$$459F       2 000043C6 00000001     H   33225 33215B
 $$$460F       2 000043E6 00000001     H   33271 33238B
 $$$461F       2 000043E6 00000001     H   33267 33257B
 $$$462B       1 0000440C 00000001     X   33320 33327U
 $$$463F       2 000044B8 00000001     H   33610 33376B
 $$$463T       2 00004426 00000001     H   33379 33354B 33366B
 $$$466F       2 00004432 00000001     H   33399 33390B
 $$$467F       2 0000449E 00000001     H   33563 33415B 33450B
 $$$472F       2 00004486 00000001     H   33486 33476B
 $$$473F       2 0000449E 00000001     H   33559 33496B
 $$$474F       2 0000449A 00000001     H   33539 33515B
 $$$475        6 00004888 00000001     I   33529 33521X
 $$$476        6 00004888 00000001     I   33528 33529  33529
 $$$477        6 0000488E 00000001     I   33549 33541X
 $$$478        6 0000488E 00000001     I   33548 33549  33549
 $$$479F       2 000044B8 00000001     H   33606 33583B
 $$$480F       2 000044C2 00000001     H   33635 33622B
 $$$481B       1 000045EA 00000001     X   33690 33697U
 $$$482B       1 00004616 00000001     X   33730 33737U
 $$$483B       1 00004960 00000001     X   33930 33937U
 $$$51B        1 00000032 00000001     X   13662 13669U
 $$$52F        2 0000005C 00000001     H   13714 13683B
 $$$53F        2 000000AE 00000001     H   13762 13746B
 $$$54F        2 00000160 00000001     H   13876 13777B
 $$$55F        2 00000108 00000001     H   13826 13810B
 $$$56F        2 00000160 00000001     H   13872 13856B
 $$$57S        2 0000016A 00000001     H   13889 13989B
 $$$58S        2 00000170 00000001     H   13911 13966B
 $$$59F        2 00000190 00000001     H   13947 13925B
 $$$64B        1 000001CA 00000001     X   14032 14039U
 $$$65F        2 00000254 00000001     H   14293 14067B
 $$$66S        2 000001E4 00000001     H   14076 14176B
 $$$67S        2 000001EA 00000001     H   14098 14153B
 $$$68F        2 0000020A 00000001     H   14134 14112B
 $$$73F        2 00000254 00000001     H   14281 14219B
 $$$73S        2 0000021E 00000001     H   14211 14280B
 $$$75F        2 00000270 00000001     H   14324 14313B
 $$$93B        1 00000346 00000001     X   14606 14613U
 $$$94F        2 00000532 00000001     H   15328 14673B
 $$$94T        2 00000358 00000001     H   14676 14663B
 $$$96F        2 0000043A 00000001     H   14997 14726B
 $$$97B        4 0000037C 00000001     I   14741 14919
 $$$97F        2 00000400 00000001     H   14915 14741B 14918
 $$$98E        2 00000404 00000001     H   14926 14920
 $$$98F        2 0000043A 00000001     H   14993 14922B
 $$$99F        2 00000460 00000001     H   15048 15038B
 @RAR          0 00000000 FFFFFFF0     @    1125  2244   2252B
 @R0           0 00000000 FFFFFFFE     @     706   982U
 @R1           0 00000000 FFFFFFFD     @     719   978U  2250   2251  15841U 20547  21273U 22154  27936  28837U 29402U
                                                 32042M 32043M 32237M 32238M 32416U 32891  33456M 33463M 33463  33464M
                                                 33482M 33528M 33548M 33943M
 @R10          0 00000000 FFFFFFF4     @     836   942U
1FAIL     (FAIL2025) (12:44) (15MAR04) Ordinary Symbol and Literal Cross Reference                                          Page   88
 @R11          0 00000000 FFFFFFF3     @     849   938U 16757U 26387U 30479U
 @R12          0 00000000 FFFFFFF2     @     862   934U
 @R13          0 00000000 FFFFFFF1     @     875   930U 13654M 14024M 24356M 28607M 28779M 29126M 31273M 31538M 32432M
                                                 32818M 33010M 33312M 33682M 33722M
 @R14          0 00000000 FFFFFFF0     @     888   926U 24010
 @R15          0 00000000 FFFFFFEF     @     901   922U 14320M 15470U 15472  15589  20483U 21103U 21124  21137  21158
                                                 21201  21209  21621U 22848U 23203U 23568U 23795U 24472M 25053U 25309U
                                                 25315  25497U 25596U 26371U 26981M 27085M 27636M 27690M 27698M 27742M
                                                 27785M 27823U 27916M 28042U 28062M 28111M 28189M 28251M 28965U 28986
                                                 28999  29020  29039  29047  32422U 32991U 33951U
 @R2           0 00000000 FFFFFFFC     @     732   974U 14822U 15680U 16323U 17538  18184U 19632M 19632  19747  19857M
                                                 22224U 23671  24467U 25399U 25511U 25681  25778  28409  30264  32151
                                                 33421
 @R3           0 00000000 FFFFFFFB     @     745   970U 17492U 17680U 21812U 23646U 23873U 28301U 30218U 30410U 32038
                                                 32038  32042  32233  32233  32237  33414  33422M 33447
 @R4           0 00000000 FFFFFFFA     @     758   966U 14001U 15772U 17023U 17286U 17688U 18889U 22186U 22499U 23431U
                                                 24232U 25046U 25603U 26625U 27620U 30008U 30418U 31145U 31437  31455
                                                 33244
 @R5           0 00000000 FFFFFFF9     @     771   962U 14188U 15925U 16222U 17261U 17513U 17802U 18085U 21360U 23489U
                                                 24237U 25012U 25614U 26125U 26836U 27631U 29106U 29983U 30239U 31255U
                                                 31454  33287U 33528
 @R6           0 00000000 FFFFFFF8     @     784   958U 14288U 15336U 20213U 20476U 20720  22637U 23734U 23927U 25703U
                                                 28474U 28625M 28641M 28661  28695M 28716  31666  31709  31744  31908
                                                 31958  32139  32152  32806U 32878M 32891M 32940  33294U 33647U
 @R7           0 00000000 FFFFFFF7     @     797   954U 14013U 14353U 15346U 15931U 16332U 16469U 17807U 18193U 18330U
                                                 18421U 18973U 19050U 19104U 19277U 19897U 20042U 20194U 20361U 20731U
                                                 20785U 20822U 20875U 21457U 21636U 22643U 23512U 23740U 23933U 24046U
                                                 24251U 28480U 28749U 29112U 31261U 31503U 32447U 32833U 32997U 33300U
                                                 33653U 33713U 33753U
 @R8           0 00000000 FFFFFFF6     @     810   950U 15341U 19892U
 @R9           0 00000000 FFFFFFF5     @     823   946U
 ABEND         2 000006D4 00000001     I   15906 15918B
 ABENDCD       4 00003724 00000001     I   28607 24288  28530
 ABSCENT       1 00000000 00000000 A   T    2260  2260
 AHLHEAD       1 00000000 00000000 A   T   10683 10683
 AHLVCCR8      1 00000000 00000000 A   T   11174 11174
 ALLOSYSP      4 000045D0 00000001     I   33682 28498
 AMODE24       1 00000000 00000031     T   24318 24318  28503  33799
 AMODE31       1 00000000 00000021     T   24280 24280  28504  33800
 ASCTBL        1 00000000 00000000 A   T    2268  2268
 ASMVT         1 00000000 00000000 A   T   11063 11063
 BADCORE       2 0000417E 00000001     H   32394 31574
 BADCRS        2 00004136 00000001     H   32305 33794
 BALLOC        4 00004894 00000001     F   33844 33699
 BALRB         1 00004898 00000001     R   33846 33845
 BALTXTF       2 000048BC 00000001     R   33863 33857
 BALTXTP       4 000048AC 00000001     A   33856 33853
 BALTXTS       2 000048B8 00000001     R   33861 33858
 BDEALLOC      4 000048C8 00000001     F   33865 33739
 BDLRB         1 000048CC 00000001     R   33867 33866
 BDLTXTDD      2 000048EC 00000001     R   33880 33856  33878
 BDLTXTP       4 000048E0 00000001     A   33877 33874
 BDLTXTUN      2 000048E8 00000001     R   33879 33877
 BIT0          1 00000080 FFFFFFCD A   U   12747 12764  12787  12788  13041  13068  13116  13120  13121  13203  13223
                                                 13237  13268
 BIT1          1 00000040 FFFFFFCD A   U   12748 12765  12789  12791  13071  13116  13118  13119  13121  13204  13225
                                                 13238  13270
 BIT2          1 00000020 FFFFFFCD A   U   12749 12766  13074  13116  13118  13144  13207  13227  13240  13271
 BIT3          1 00000010 FFFFFFCD A   U   12750 12767  13075  13122  13133  13146  13147  13209  13228  13242  13273
1FAIL     (FAIL2025) (12:44) (15MAR04) Ordinary Symbol and Literal Cross Reference                                          Page   89
 BIT4          1 00000008 FFFFFFCD A   U   12751 12768  13077  13134  13148  13153  13154  13210  13229  13244  13276
 BIT5          1 00000004 FFFFFFCD A   U   12752 12769  12781  12783  13078  13148  13151  13154  13211  13230  13246
                                                 13277
 BIT6          1 00000002 FFFFFFCD A   U   12753 12770  12773  12794  12795  13079  13137  13213  13216  13231  13247
                                                 13278
 BIT7          1 00000001 FFFFFFCD A   U   12754 12770  12772  12773  12796  12801  13081  13138  13213  13217  13232
                                                 13248  13279
 BLTBL         1 00000000 00000000 A   T    2270  2270
 BR            7 00000007 00000001 A   #    1015 13659M 13669U 14029M 14039U 14601M 16020M 16411M 16509M 17898M 18272M
                                                 18368M 18409M 18961M 19092M 19338M 20009M 20076M 20349M 20773M 20863M
                                                 23964M 24072M 24361M 24371U 28612M 28622U 28784M 28794U 29131M 29141U
                                                 31278M 31288U 31543M 31553U 32437M 32450U 32823M 32836U 33015M 33025U
                                                 33317M 33327U 33687M 33697U 33727M 33737U
 BTD           1 00000000 00000041     T   28767 28767
 BTR           1 00000000 00000011     T   17844 17844  33782
 BTX           1 00000000 00000040     T   28764 28764
 CBBRANCH      1 00000000 00000000 A   T   11219 11219
 CDE           1 00000000 FFFFFFCB C   U   13326 25417U
 CDENTPT       4 00000010 FFFFFFCB     F   13341 25496
 CDENTRY       1 00000000 FFFFFFCB     J   13328 13326
 CDNAME        8 00000008 FFFFFFCB     C   13340 25432  25451  25456
 CHECKIOB      1 00000000 00000000 A   T    2316  2316
 CLEANFIN      2 0000220A 00000001     H   23761 13733  23757U
 CLEANFLG      1 0000269C 00000001     X   24266 24103  24109M
 CLEANUP       2 00002612 00000001     H   24058 23988B 24054  24320
 CLOSEFIN      2 0000213C 00000001     H   23534 13797  23530U
 COLLOPTS      1 00000000 00000018     T   21496 21496
 COLLPSH       1 00000000 0000000B     T   16376 16376  18237  18925  19958
 COMMAND       1 00000000 0000002F     T    2256  2256  24316
 COMMSEG       1 00000000 00000000 A   T    2257  2257
 CP         4096 00000000 FFFFFFEC     J    6270  1245U 16576  16599  16644  16671  16688  16715  16760U 16778  16860
                                                 16879  16898  16922  16955  16983  17000  17018U 17056  17093  17130
                                                 17167  17204  17242  17304  17321  17428  17456  17473  17569  17597
                                                 17614  17635  17652  17722  17742  17759  26390U 26406  26449  26473
                                                 26490  26517  26534  26561  26578  26614  26646  26679  26700  26728
                                                 26762  26788  26817  26831U 28546  29504  30482U 30500  30509  30524
                                                 30548  30565  30592  30609  30636  30653  30685  30713  30730  30751
                                                 30835  30853  30940  30959  30978  31001  31018  31039  31056  31080
                                                 31115  31140U
 CP#XSTK       1 00000010 FFFFFFEC A   U    4002  4003
 CPACFLG       1 000005D5 FFFFFFEC     R    4105  4109   4114   4119   4124   4129
 CPACFLN       4 000005C4 FFFFFFEC     F    4097  4132   4132
 CPAFLAG       1 000005C3 FFFFFFEC     R    4069  4073   4078   4083   4088
 CPANAME       8 00000588 FFFFFFEC     C    4051  4147   4147
 CPAUTFLG      1 000008A9 FFFFFFEC     R    4415  4419   4424   4429   4434
 CPCHFLAG      1 00000B68 FFFFFFEC     R    5042  5046
 CPCMD       235 00000242 FFFFFFEC     C    2895 26715  26720  30764
 CPCMDLEN      2 00000240 FFFFFFEC     H    2894 30768
 CPCMNM        3 00000D24 FFFFFFEC     C    5368 15999M 16096  18389M 18620  18663  18726  18779
 CPDFLG        1 0000084C FFFFFFEC     R    4302  4306   4311   4316   4321   4326
 CPDFLG2       1 0000084D FFFFFFEC     R    4331  4335   4340   4345   4350   4355   4360
 CPDOUB        8 00000C88 FFFFFFEC     D    5288 25856
 CPERRID       8 00000886 FFFFFFEC     C    4401 23501M
 CPEXFLG       1 00000758 FFFFFFEC     R    4171  4175
 CPEXFLG2      1 00000759 FFFFFFEC     R    4181  4190   4200
 CPEXFLG3      1 0000075A FFFFFFEC     R    4207  4211   4216
 CPEXLINE      4 0000075C FFFFFFEC     F    4224 16960  30690
 CPEXTFLG      1 00000E28 FFFFFFEC     R    5853  5857   5862   5867   5872   5877   5882
 CPFABORT    128 00000D5A FFFFFFEC         5619  2220M  2220   2225M  2225  23499  23499
1FAIL     (FAIL2025) (12:44) (15MAR04) Ordinary Symbol and Literal Cross Reference                                          Page   90
 CPFDISP      16 00000C7B FFFFFFEC         5187 22893M
 CPFDUMP     128 00000D55 FFFFFFEC         5484 22885M
 CPFERROR     64 00000D5A FFFFFFEC         5624  2219M  2219   2224M  2224  23499  23499  23500M
 CPFEXEC     128 00000758 FFFFFFEC         4175 16937  26660  30667
 CPFNTEX       1 00000040 FFFFFFEC A   U    5471  5472
 CPFQUIET     64 00000D55 FFFFFFEC         5489 22880M
 CPFRDRNG      1 00000D88 FFFFFFEC     R    5739  5743   5748   5753   5758   5763   5768   5773
 CPFRDSRC      1 00000D89 FFFFFFEC     R    5778  5787   5797   5807
 CPFUNUM       1 00000080 FFFFFFEC A   U    5470  5472
 CPFXDFLG      1 000007E4 FFFFFFEC     R    4249  4253   4258
 CPGFLG1       1 00000474 FFFFFFEC     R    3612  3616   3621   3626   3631   3636   3966   3966
 CPGFLG10      1 0000047D FFFFFFEC     R    3849  3853   3858   3863   3868   3873   3878
 CPGFLG11      1 0000047E FFFFFFEC     R    3884  3888   3893
 CPGFLG12      1 0000047F FFFFFFEC     R    3899  3903   3908   3913
 CPGFLG13      1 00000480 FFFFFFEC     R    3919  3923
 CPGFLG14      1 00000481 FFFFFFEC     R    3929  3933   3938   3943   3948   3953
 CPGFLG4       1 00000477 FFFFFFEC     R    3665  3676   3685   3694   3703   3712
 CPGFLG5       1 00000478 FFFFFFEC     R    3718  3722   3727   3732   3737   3742   3747   3752   3757
 CPGFLG6       1 00000479 FFFFFFEC     R    3763  3767   3772   3777
 CPGFLG7       1 0000047A FFFFFFEC     R    3783  3787   3792   3797   3802
 CPGFLG8       1 0000047B FFFFFFEC     R    3808  3812   3817   3822   3827
 CPGFLG9       1 0000047C FFFFFFEC     R    3833  3837   3843
 CPINIT        1 00000174 FFFFFFEC     U    2782  6239
 CPIOWAP       4 00000DDC FFFFFFEC     F    5831 28546
 CPJESFLG      1 000009E1 FFFFFFEC     R    4514  4518   4523   4528   4533   4538   4543   4548   4553
 CPJESFLY      1 000009FD FFFFFFEC     R    4564  4568   4573   4578
 CPJESHFL      1 000009E0 FFFFFFEC     R    4499  4503   4508   4587   4587
 CPLFLG10      1 00000D59 FFFFFFEC     R    5605  5609
 CPLFLG11      1 00000D5A FFFFFFEC     R    5615  5619   5624   5629   5634
 CPLFLG12      1 00000D5B FFFFFFEC     R    5640  5644
 CPLFLG14      1 00000D5C FFFFFFEC     R    5650  5654   5659   5664   5669   5674
 CPLFLG6       1 00000D55 FFFFFFEC     R    5480  5484   5489   5494   5499   5504   5509
 CPLFLG7       1 00000D56 FFFFFFEC     R    5515  5519   5524   5529   5534   5539
 CPLFLG8       1 00000D57 FFFFFFEC     R    5545  5549   5554   5559   5564
 CPLFLG9       1 00000D58 FFFFFFEC     R    5570  5574   5579   5584   5589   5594   5599
 CPLINTP       4 00000B60 FFFFFFEC     A    5034 29504
 CPLOCALZ      1 00000C48 FFFFFFEC     U    5072  6233   6233
 CPMFLG        1 0000084F FFFFFFEC     R    4369  4373
 CPMODFLG      1 00000C78 FFFFFFEC     R    5100  5104   5109   5114   5119   5124
 CPNAMELN      1 00000010 FFFFFFEC A   U    3995  4242
 CPNCOM        4 000001E0 FFFFFFEC     F    2794 16907  30983
 CPNCOME       4 000001E4 FFFFFFEC     F    2795 30984  31027
 CPNEDPFX     10 00000E29 FFFFFFEC     X    5886  5887   5888
 CPNSCANP      4 0000008C FFFFFFEC     A    2655 16047  16054  16070  17949  17956  17972  18464  18471  18487  19150
                                                 19157  19172  19186  19419  19426  19441  19455  19568  19575  19591
                                                 20375  20382  20397  20411  20487  20494  20509  20556  20620  20627
                                                 20642  20656  20913  20920  20935  20949
 CPNUMFLG      1 00000C79 FFFFFFEC     R    5130  5142
 CPORVCMD      1 00000140 FFFFFFEC     R    2664  2668   2673   2678   2683   2688   2693   2698   2703   2708   2708
                                                  2759   2759
 CPORVFLG      1 00000149 FFFFFFEC     R    2715  2719   2724   2729   2734   2739   2744   2749   2754
 CPORVWF       1 00000150 FFFFFFEC     R    2767  2771
 CPOSCANX      4 00000CA8 FFFFFFEC     F    5299  5366   5366
 CPR          11 0000000B 00000001 A   #    1079  1245U 16576  16599  16644  16671  16688  16715  16778  16860  16879
                                                 16898  16922  16955  16983  17000  17056  17093  17130  17167  17204
                                                 17242  17304  17321  17428  17456  17473  17569  17597  17614  17635
                                                 17652  17722  17742  17759  21646M 21646  21772  22723M 22812M 22812
                                                 22841M 23603M 23603  23830M 23830  26449  26473  26490  26517  26534
                                                 26561  26578  26614  26646  26679  26700  26728  26762  26788  26817
1FAIL     (FAIL2025) (12:44) (15MAR04) Ordinary Symbol and Literal Cross Reference                                          Page   91
                                                 30500  30524  30548  30565  30592  30609  30636  30653  30685  30713
                                                 30730  30751  30835  30853  30940  30959  30978  31001  31018  31039
                                                 31056  31080  31115
 CPRACBAD     16 000001FC FFFFFFEC         2833  2867   2867   2868   2868
 CPRACF1       1 000001FC FFFFFFEC     R    2814  2818   2823   2828   2833   2838   2843   2848   2853   2869
 CPRACPSW     32 000001FC FFFFFFEC         2828  2866   2866   2868   2868
 CPRACUND     64 000001FC FFFFFFEC         2823  2866   2866   2867   2867
 CPRCVCUR      4 00000730 FFFFFFEC     A    4150  4152   4152
 CPREGS        4 00000004 FFFFFFEC     A    2545 23503M 31121
 CPRFLG        1 000008AA FFFFFFEC     R    4440  4444   4449   4454   4459   4464   4469
 CPS         254 00000344 FFFFFFEC     X    3584  3587   3588   3590   3590
 CPSACCT       5 000003B4 FFFFFFEC     C    3183  3346   3346
 CPSAMCOD      1 00000A22 FFFFFFEC     R    4636  4644   4654   4664   4673   4682   4691   4701   4710   4719
 CPSAMFLG      1 00000A21 FFFFFFEC     R    4596  4600   4605   4610   4615   4620   4625   4630   4741   4741
 CPSCNFLG      1 00000CD0 FFFFFFEC     R    5312  5323   5332   5343
 CPSCNF2       1 00000CD1 FFFFFFEC     R    5348  5352
 CPSCNMAX      1 00000014 FFFFFFEC A   U    5364  5365
 CPSCRI        2 00000434 FFFFFFEC     H    3573  3578   3578
 CPSEG        60 00000050 FFFFFFEC     X    2653 14248  16176  16197  16576  16599  16644  16671  16688  16715  16778
                                                 16860  16879  16898  16922  16955  16983  17000  17056  17093  17130
                                                 17167  17204  17242  17304  17321  17428  17456  17473  17569  17597
                                                 17614  17635  17652  17722  17742  17759  17789  18039  18060  18553
                                                 18574  18706  18760  19525  19658  20148  20284  20313  21037  21069
                                                 21183  21217  21235  21257  21288  21324  21346  21441  21949  21977
                                                 22005  22023  22071  22096  22175  22923  22948  22966  22984  23002
                                                 23020  23038  23056  23093  23111  23152  23170  23230  23285  23313
                                                 23338  23356  23403  24405  24486  24533  24565  24601  24629  24647
                                                 24669  24704  24731  24756  24784  24809  24834  24863  24900  24939
                                                 24964  24983  25105  25135  25213  25231  25263  25297  25327  25345
                                                 25464  25482  25535  25553  25584  25641  25659  25730  25755  25773
                                                 25805  25832  25850  25880  25898  25937  25956  25974  26006  26024
                                                 26063  26082  26100  26149  26171  26189  26223  26261  26299  26328
                                                 26449  26473  26490  26517  26534  26561  26578  26614  26646  26679
                                                 26700  26728  26762  26788  26817  26878  26903  26921  26946  26995
                                                 27020  27078  27099  27124  27152  27180  27284  27314  27342  27360
                                                 27395  27442  27480  27505  27535  27560  27578  27650  27675  27712
                                                 27756  27838  27883  27908  27930  28076  28125  28203  28265  28324
                                                 28349  28367  28392  28852  28882  28910  28946  29055  29084  29191
                                                 29209  29230  29276  29304  29322  29350  29386  29414  29441  29462
                                                 29480  29531  29574  29595  29613  29654  29692  29730  29768  29806
                                                 29844  29883  29907  29925  29964  30027  30045  30153  30181  30199
                                                 30296  30324  30342  30364  30382  30443  30500  30524  30548  30565
                                                 30592  30609  30636  30653  30685  30713  30730  30751  30835  30853
                                                 30940  30959  30978  31001  31018  31039  31056  31080  31115  31210
                                                 31356  31370  31388  31410  31428  31481  31657  31688  31786  31811
                                                 31829  31891  31923  31953  32015  32033  32066  32086  32130  32210
                                                 32228  32261  32281  32317  32335  32361  32489  32525  32553  32588
                                                 32609  32631  32680  32708  32743  32764  32786
 CPSEGCOD      1 00000050 FFFFFFEC     R    2570  2579   2589   2599   2609   2619   2629   2639
 CPSEGINDF
               4 00000060 FFFFFFEC     A    2646 31290M 31492M 31492
 CPSEGLENF
               4 0000005C FFFFFFEC     A    2645 20244M 20244  20259  22106  26743  31290  31617M 31617  31632
 CPSEGLOC      4 00000070 FFFFFFEC     A    2649 22127  26775
 CPSEGMAXF
               4 00000054 FFFFFFEC     A    2643 24410M 26978M
 CPSEGMRKF
               4 00000058 FFFFFFEC     A    2644 20259  31632
 CPSEGRTN      4 00000074 FFFFFFEC     A    2650 24394M
1FAIL     (FAIL2025) (12:44) (15MAR04) Ordinary Symbol and Literal Cross Reference                                          Page   92
 CPSFL         1 00000384 FFFFFFEC     R    2921  2925   2930   2935   2940   2945
 CPSFLG        1 000003F8 FFFFFFEC     R    3461  3465   3470   3475   3480   3485   3490   3495   3500
 CPSFLG2       1 000003F9 FFFFFFEC     R    3506  3510   3515   3520
 CPSFL2        1 00000385 FFFFFFEC     R    2951  2955   2960   2965   2970
 CPSFL3        1 00000386 FFFFFFEC     R    2976  2980   2985   2990
 CPSFL4        1 00000387 FFFFFFEC     R    2996  3000   3005   3010
 CPSFL5        1 00000388 FFFFFFEC     R    3016  3020   3025   3030
 CPSFSPR      32 000003BE FFFFFFEC         3286 17928  18442  19125  19395  20896  23245
 CPSGRP        2 000003B7 FFFFFFEC     C    3185 14833  14838  26504  26509  30579  30584
 CPSKAFL       1 000003BF FFFFFFEC     R    3317  3321   3326   3331   3336   3341
 CPSKIFL       1 000003BE FFFFFFEC     R    3272  3276   3281   3286   3291   3296   3301   3306   3311
 CPSOF         1 000001F8 FFFFFFEC     X    2804  2806   2806
 CPSOFLAG      1 00000416 FFFFFFEC     R    3531  3535   3540   3545   3550   3555
 CPSOPST       4 000003C4 FFFFFFEC     F    3351  3580   3580
 CPSPORT       8 00000354 FFFFFFEC     C    2915  3035   3035
 CPSQFLG       1 000003EC FFFFFFEC     R    3380  3384
 CPSSFLG       1 000003BB FFFFFFEC     R    3190  3194   3199   3204   3209   3214   3219
 CPSSTART      4 00000344 FFFFFFEC     F    2907  2911   2911   3347   3347   3452   3452   3584   3584
 CPSSTAT       1 0000038F FFFFFFEC     R    3127  3131   3136   3141   3146   3151   3156   3161
 CPSTACF       1 000003BC FFFFFFEC     R    3225  3229   3234   3239   3244   3249   3254   3259   3264
 CPSTART       4 00000000 FFFFFFEC     C    2543  6237   6241
 CPSTFLAG      1 000003EA FFFFFFEC     R    3358  3362   3367   3372
 CPSTYPE       1 0000038C FFFFFFEC     R    3040  3049   3059   3069   3079   3089   3099   3109   3119
 CPSUFLG       1 000003EE FFFFFFEC     R    3395  3399   3404   3409   3414   3419   3424   3429   3434
 CPSUFLG2      1 000003EF FFFFFFEC     R    3440  3444   3449
 CPSUSER       3 000003B4 FFFFFFEC     C    3184 14877  14882  26426  26548  26553  30623  30628  30795
 CPSVPGM       8 0000039C FFFFFFEC     C    3173  3179   3179
 CPS1ST        4 0000038C FFFFFFEC     F    3037  3582   3582
 CPTEMPP#      1 0000005F FFFFFFEC A   U    4490  4492
 CPTRMFL1      1 00000C7A FFFFFFEC     R    5148  5152   5157   5162   5286   5286
 CPTRMFL2      1 00000C7B FFFFFFEC     R    5168  5172   5177   5182   5187   5192   5197
 CPTRMFL3      1 00000C7C FFFFFFEC     R    5203  5207   5212   5217   5222   5227   5232   5237
 CPTRMFL4      1 00000C7D FFFFFFEC     R    5243  5247   5252   5257   5262   5267   5272   5277
 CPUSED        1 00000FBC FFFFFFEC A   U    6237  6238
 CPVACURS      8 00000AF0 FFFFFFEC     D    5015  5016   5017
 CPVCURS       8 00000AE0 FFFFFFEC     D    5009  5010   5011
 CPVFLAG       1 00000AC8 FFFFFFEC     R    4810  4814   4819   4824   4829   4834
 CPVFLAG2      1 00000AC9 FFFFFFEC     R    4840  4844   4849   4854   4859   4864   4869
 CPVFLAG3      1 00000ACA FFFFFFEC     R    4875  4879   4884   4889   4894   4899   4904
 CPVFLAG4      1 00000ACB FFFFFFEC     R    4910  4914   4919   4924
 CPVLFLAG      1 00000ACE FFFFFFEC     R    4979  4983   4988   4993
 CPVMODE       1 00000ACC FFFFFFEC     R    4932  4936   4941   4946   4951   4956   4961   4966   4971
 CPVTWID       2 00000AD0 FFFFFFEC     H    4999  5002   5002
 CPWK1         4 00000D60 FFFFFFEC     F    5683  5698   5721
 CPWK2         4 00000D64 FFFFFFEC     F    5684  5699   5713
 CPWK3         4 00000D68 FFFFFFEC     F    5685  5700   5714
 CPWK4         4 00000D6C FFFFFFEC     F    5686  5701   5715
 CPWK5         4 00000D70 FFFFFFEC     F    5687  5703   5708   5716
 CPWK6         4 00000D74 FFFFFFEC     F    5688  5704   5709   5717   5724   5726
 CPWK7         4 00000D78 FFFFFFEC     F    5689  5702   5718
 CPXFLAG       1 000007FD FFFFFFEC     R    4277  4281
 CPXSIZE       1 00001000 FFFFFFEC A   U    6241 28563
 CPXSTATE      4 000007F8 FFFFFFEC     F    4271  4284   4284
 CRBRANCH      1 00000000 00000000 A   T   10960 10960
 CSRTABLE      1 00000000 00000000 A   T   10980 10980
 CSVARMGR      1 00000000 00000000 A   T   11028 11028
 CSVEXIT       1 00000000 00000000 A   T   10901 10901
 CSVLLCB       1 00000000 00000000 A   T   10501 10501
 CSVLLTRM      1 00000000 00000000 A   T   10502 10502
1FAIL     (FAIL2025) (12:44) (15MAR04) Ordinary Symbol and Literal Cross Reference                                          Page   93
 CSVMEM        1 00000000 00000000 A   T   10729 10729
 CSVVFGET      1 00000000 00000000 A   T   11293 11293
 CSVVFIND      1 00000000 00000000 A   T   11291 11291
 CV         4016 00000000 FFFFFFEE     J    2446  1254U 27731
 CV            1 00000000 00000020     T   24279 24279  33966
 CVABORT       4 000007DA FFFFFFEE     I    2225 16284B 18145B
 CVABSENT      4 000007F0 FFFFFFEE     I    2235 19468B 20424B 20669B
 CVABSRTN      4 0000088C FFFFFFEE     V    2260  2235
 CVABTMSG      4 000007CC FFFFFFEE     I    2220 18520B 18601B 18644B 18687B 19777B
 CVBLANKS    235 000004D8 FFFFFFEE     C    2040 16629  22126  24503  25120  27299  27520  28625  28867  29261  31876
                                                 31938  32506  32661  32878  33037  33038
 CVBRMSK       1 00000751 FFFFFFEE     X    2176  2177   2178
 CVBUFQ        4 000001F0 FFFFFFEE     A    1539 26956
 CVCFLAG       1 00000A00 FFFFFFEE     R    2341  2345   2350   2355   2360   2365
 CVCHKST       8 000009F0 FFFFFFEE     D    2331  2421   2421
 CVCHKST2      8 00000E28 FFFFFFEE     D    2424  2427   2427
 CVCOMRTN      4 0000087C FFFFFFEE     V    2256  2226
 CVCURJCB      4 000001C8 FFFFFFEE     A    1525 14763  16113  22287  22796  22899  23175  26336  26583  27788  28019
                                                 29634
 CVCURPATH
               4 00000180 FFFFFFEE     F    1502 22337M 22337  22360  22367M 22367
 CVDBGFLG      1 000004CC FFFFFFEE     R    2030  2034
 CVDFMAX#      1 00000005 FFFFFFEE A   N    1452 24297
 CVDSTK        4 00000270 FFFFFFEE     A    1597 22565  22667  27768
 CVEMBUFQ      4 000001E8 FFFFFFEE     A    1538 26966
 CVENT         4 0000074C FFFFFFEE     I    2174 13659B 14029B 14601B 16020B 16411B 16509B 17898B 18272B 18368B 18409B
                                                 18961B 19092B 19338B 20009B 20076B 20349B 20773B 20863B 23964B 24072B
                                                 24361B 28612B 28784B 29131B 31278B 31543B 32437B 32823B 33015B 33317B
                                                 33687B 33727B
 CVENTBR       2 00000750 FFFFFFEE     I    2175  2176
 CVENTOFF    240 00000751 FFFFFFEE         2178 15805M
 CVERRMSG      4 000007C8 FFFFFFEE     I    2219 19536B 20159B
 CVERROR       4 000007D6 FFFFFFEE     I    2224  2240B
 CVEXIRTN      4 0000077C FFFFFFEE     V    2204  2200
 CVEXIT        4 00000772 FFFFFFEE     I    2200 15791B
 CVEXNO        1 00000000 00000012     T   17845 17845  33778
 CVFABEND     64 000004C5 FFFFFFEE         1751 21667M 22681M 23999  30778  31097
 CVFCHRKBPR
               8 000004C9 FFFFFFEE         1945  1961   1961
 CVFCHRKBSE
               4 000004C9 FFFFFFEE         1950  1961   1961
 CVFCHRKCPR
               2 000004C9 FFFFFFEE         1967  1983   1983
 CVFCHRKCSE
               1 000004C9 FFFFFFEE         1972  1983   1983
 CVFCHRUBPR
             128 000004C9 FFFFFFEE         1901  1917   1917
 CVFCHRUBSE
              64 000004C9 FFFFFFEE         1906  1917   1917
 CVFCHRUCPR
              32 000004C9 FFFFFFEE         1923  1939   1939
 CVFCHRUCSE
              16 000004C9 FFFFFFEE         1928  1939   1939
 CVFCLCK       4 000000EC FFFFFFEE     F    1455 21887M
 CVFFORCE      1 000004C5 FFFFFFEE         1781 22688M
 CVFINFO      64 000000F0 FFFFFFEE     X    1456 21833M 21833  22126M 22154M 22583M 22583  22600  22605  23300  23305
                                                 24295  24850  24855
 CVFINIT       8 000004C5 FFFFFFEE         1766 22273  26203
 CVFJCB        4 000001C0 FFFFFFEE     A    1523 16229  16433  18090  18294  19011  27025
1FAIL     (FAIL2025) (12:44) (15MAR04) Ordinary Symbol and Literal Cross Reference                                          Page   94
 CVFL          1 000004C4 FFFFFFEE     R    1697  1701   1706   1711   1716   1721   1726   1731   1736
 CVFL2         1 000004C5 FFFFFFEE     R    1742  1746   1751   1756   1761   1766   1771   1776   1781
 CVFL3         1 000004C6 FFFFFFEE     R    1787  1791   1796   1801   1806   1811   1816   1821   1826
 CVFL4         1 000004C7 FFFFFFEE     R    1832  1836   1841   1846   1851   1856   1861   1866
 CVFL5         1 000004C8 FFFFFFEE     R    1872  1876   1881   1886   1891
 CVFL6         1 000004C9 FFFFFFEE     R    1897  1901   1906   1918   1923   1928   1940   1945   1950   1962   1967
                                                  1972   1984
 CVFMEMPAGE
              64 000004C8 FFFFFFEE         1881 26852
 CVFNORET      4 000004C7 FFFFFFEE         1861 22255
 CVFNSTAE      8 000004C7 FFFFFFEE         1856 13776
 CVFPUSR      32 000004C6 FFFFFFEE         1801 26279
 CVFRCVY      16 000004C5 FFFFFFEE         1761 26241
 CVFRSG        4 000006D4 FFFFFFEE     A    2115 17331  30055
 CVFTEST       2 000004C5 FFFFFFEE         1776 22442  23377  24134
 CVFTRC      128 000004C5 FFFFFFEE         1746 13710M 15438  21685  21708M 22711M
 CVHEAP        4 00000280 FFFFFFEE     A    1605 28137
 CVHEAP#       1 00000200 FFFFFFEE A   U    1603  1604
 CVHEAPL       4 0000027C FFFFFFEE     A    1604 28142
 CVINVRTN      4 00000888 FFFFFFEE     V    2259  2229
 CVJESFLG      1 000004CA FFFFFFEE     R    1990  1994
 CVLJCB        4 000001C4 FFFFFFEE     A    1524 16311  16446  18172  18307  19023  31228
 CVLNKRGS      4 00000780 FFFFFFEE     F    2206  2181M  2207  15490  15543
 CVLNKRTN      4 000007B0 FFFFFFEE     U    2207  2196M 15392  15428M
 CVLOCK1       1 00000088 FFFFFFEE     R    1348  1352   1357
 CVLOCK2       1 00000089 FFFFFFEE     R    1362  1366
 CVLOCK3       1 0000008A FFFFFFEE     R    1371  1375
 CVLOCK4       1 0000008B FFFFFFEE     R    1380  1384
 CVLOGMOD      1 00000068 FFFFFFEE     R    1335  1339
 CVMACH        1 00000067 FFFFFFEE     R    1295  1299   1304   1309   1314   1319   1324   1329
 CVMILRTN      4 00000884 FFFFFFEE     V    2258  2238
 CVNAME        8 00000018 FFFFFFEE     C    1278 24552  24557  24582
 CVNDISPF      2 000000E6 FFFFFFEE     H    1453 22304  22305M
 CVNEXT        4 000007DE FFFFFFEE     I    2226 16216B 16325B 18079B 18186B 18892B 19271B 20970B 21446B
 CVNFAIL       2 000000E4 FFFFFFEE     H    1451 21881  21882M
 CVNOARTN      4 00000890 FFFFFFEE     V    2261  2232
 CVNOTIFY      5 00000061 FFFFFFEE     X    1289 15162M 15162  15296
 CVNUSERS      2 000000D4 FFFFFFEE     H    1443 26159
 CVNWDATE      4 00000608 FFFFFFEE     F    2063  2067   2067
 CVNWMPG#      1 00000008 FFFFFFEE A   U    2065  2066
 CVNXTMSG      4 000007D0 FFFFFFEE     I    2221 16206B 18069B 19885B 20322B 20811B
 CVOLDJCB      4 000001CC FFFFFFEE     A    1526 22784M 22784
 CVOSRA        4 0000008C FFFFFFEE     A    1388 24038
 CVPFXRTN      1 00000000 00000000 A   T    2204  2204
 CVPGFLAG      1 00000A01 FFFFFFEE     R    2371  2375   2380   2385
 CVPIOSZ       1 00004F80 FFFFFFEE A   U    1434  1436
 CVPPDBQH      4 0000009C FFFFFFEE     A    1392  1393
 CVPSFNO       1 000003E9 FFFFFFEE A   N    1556  1558
 CVPSLNO       1 000007CF FFFFFFEE A   N    1557  1558
 CVPSZ         1 00004F78 FFFFFFEE A   U    1436 28565
 CVPXSZ        1 00000008 FFFFFFEE A   U    1435  1436
 CVR          12 0000000C 00000001 A   #    1092  1254U 21642M 22563M 22665M 23599M 23826M
 CVRCPUTM      4 000006FC FFFFFFEE     A    2139 22872M
 CVRKEY        1 00000008 FFFFFFEE A   U    2129  2130
 CVRSET        1 00000002 FFFFFFEE A   U    2123 18859  23467
 CVRSG         4 000006D8 FFFFFFEE     A    2117 17345  17682  30069  30412
 CVSEGRTN      4 00000880 FFFFFFEE     V    2257  2221
 CVSIZE        1 00000FB0 FFFFFFEE A   U    2439 33966
 CVSPIEAD      4 00000710 FFFFFFEE     A    2143 19604M 19880M 19880
1FAIL     (FAIL2025) (12:44) (15MAR04) Ordinary Symbol and Literal Cross Reference                                          Page   95
 CVSTACK       4 00000274 FFFFFFEE     A    1598 21753  22750  27937  27942
 CVSTACK#      1 00000080 FFFFFFEE A   U    1595  1596
 CVSTACKL      4 0000026C FFFFFFEE     A    1596 21728  21748  22755  22765  27988  27994
 CVSTART       4 00000000 FFFFFFEE     C    1268  2439
 CVT           1 00000000 FFFFFFD3     J   10471 15457U 24150U 24998U
 CVTBRET       2 00000052 FFFFFFD3     H   10526 11039  11118
 CVTCBP        4 0000073C FFFFFFEE     A    2159 15484  21783  23617  23844
 CVTPTR        1 00000010 FFFFFFD4 A   U   10467 15447  24140  24988
 CVTRC         4 00000768 FFFFFFEE     I    2196  2182B
 CVTRCDAT      8 000007C0 FFFFFFEE     D    2208 15707
 CVTRCRTN      4 00000778 FFFFFFEE     V    2203  2197
 CVTTCBP       4 00000000 FFFFFFD3     V   10478 15463  25004
 CVTUSER       4 000000CC FFFFFFD3     A   10651 24156
 CVTVSTGX      1 00000000 FFFFFFD2     J   11491 11355
 CVTXTNT1      1 00000000 FFFFFFD1     J   11530 10698
 CVTXTNT2      1 00000000 FFFFFFD0     J   11538 10768  11694
 CVT4MS1       1 00000010 FFFFFFD3 A   U   10551 10559
 CVT6DAT       1 00000002 FFFFFFD3 A   U   10555 10559
 CVUSFNO       1 00000001 FFFFFFEE A   N    1563  1565
 CVUSLNO       1 000003E7 FFFFFFEE A   N    1564  1565
 CVVOL#        1 00000005 FFFFFFEE A   U    2414  2415
 CVVOLIST      4 00000740 FFFFFFEE     A    2160 14050
 CVWTOFACTION
              16 000004CB FFFFFFEE         2019 15058
 CVWTOFLG      1 000004CB FFFFFFEE     R    2000  2004   2009   2014   2019   2024
 CVWTOFNOPFX
              64 000004CB FFFFFFEE         2009 14725
 CVWTOFTAPE
               8 000004CB FFFFFFEE         2024 15096
 CVWTOFUPFX
              32 000004CB FFFFFFEE         2014 14740
 CVWTOFWTL
             128 000004CB FFFFFFEE         2004 15037  15177
 CVWTOLID      4 00000730 FFFFFFEE     F    2156 14687M 14687  15148M
 CVWTOSGP      4 00000748 FFFFFFEE     V    2163 14271  22355  22611
 CVWYLJBN      4 0000005D FFFFFFEE     C    1288 24503  24520  24525
 CVWYLSSN      8 00000028 FFFFFFEE     C    1280 14955  14960  15227  15232  24582  24616  24621
 DALDDNAM      1 00000001 FFFFFFD5 A   U    9464 33880
 DALSFMNO      1 0000001A FFFFFFD5 A   U    9489 33863
 DALSYSOU      1 00000018 FFFFFFD5 A   U    9487 33861
 DCB           1 00000000 FFFFFFD4     X   10275 23671  24422U 28409  33414  33422M 33447
 DCBBIT0       1 00000080 FFFFFFD4 A   U    9724  9812   9820   9834   9856   9898   9900   9901   9903   9923   9926
                                                  9948   9952   9967  10004  10060  10086  10124  10128  10147  10253
 DCBBIT1       1 00000040 FFFFFFD4 A   U    9725  9813   9821   9836   9865   9866   9875   9881   9898   9900   9902
                                                  9903   9928   9948   9950   9952   9970   9971   9972  10007  10008
                                                 10060  10088  10130  10132  10150  10195  10254
 DCBBIT2       1 00000020 FFFFFFD4 A   U    9726  9814   9822   9837   9838   9839   9865   9866   9870   9876   9881
                                                  9898   9899   9904   9930   9953   9954   9975   9976   9977  10011
                                                 10012  10061  10093  10133  10155  10198  10201  10255
 DCBBIT3       1 00000010 FFFFFFD4 A   U    9727  9815   9837   9839   9840   9865   9878   9905   9933   9953   9956
                                                  9979   9980   9981  10015  10016  10061  10095  10097  10099  10135
                                                 10156  10198  10202
 DCBBIT4       1 00000008 FFFFFFD4 A   U    9728  9823   9879   9880   9881   9906   9934   9958   9963   9964   9984
                                                  9985  10019  10020  10022  10023  10062  10102  10137  10157  10198
                                                 10203
 DCBBIT5       1 00000004 FFFFFFD4 A   U    9729  9824   9886   9909   9910   9936   9958   9960   9961   9964   9988
                                                  9990   9991   9992  10026  10027  10028  10029  10062  10104  10107
                                                 10140  10159  10193
 DCBBIT6       1 00000002 FFFFFFD4 A   U    9730  9816   9888   9889   9892   9909   9911   9937   9995   9996   9997
1FAIL     (FAIL2025) (12:44) (15MAR04) Ordinary Symbol and Literal Cross Reference                                          Page   96
                                                  9998  10032  10033  10034  10035  10063  10110  10142  10161  10204
 DCBBIT7       1 00000001 FFFFFFD4 A   U    9731  9817   9888   9890   9892   9913   9942  10000  10001  10038  10039
                                                 10041  10042  10113  10143  10144  10162  10206  10256
 DCBDCBE       4 00000000 FFFFFFD4     A    9739  9743
 DCBFDAD       8 00000005 FFFFFFD4     C    9755  9757
 DCBLRECL      2 00000052 FFFFFFD4     H   10228 24427M 33422M
 DCBOFIOF      1 00000001 FFFFFFD4 A   U    9942  9944
 DCBOFLGS      1 00000030 FFFFFFD4     B    9922 23671  24452  28409  33414  33447
 DCBOFOPN      1 00000010 FFFFFFD4 A   U    9933 23669  24450  28407  33412  33445
 DCBOFUEX      1 00000002 FFFFFFD4 A   U    9937  9941
 DEBUGSG       1 00000000 00000000 A   T    2157  2157
 DEQSTR        1 00000000 00000019     T   21498 21498
 DEV          12 00000000 FFFFFFEB     J    4795  4803
 DEVMAX#       1 00000002 FFFFFFEC A   U    4746  4803
 DEVTYPE       1 00000001 FFFFFFEB     R    4763  4772   4782
 DFAIDTAB      1 00000000 00000000 A   T   11368 11368
 DISKCLCK      1 00000000 0000003A     T   28527 28527
 DISKSCB       1 00000000 0000003B     T   28528 28528
 DISKSTOP      1 00000000 00000035     T   24325 24325
 DISPATCH      1 00000000 00000030     T   24317 24317
 DISPCONT      1 00000000 00000029     T   24304 24304
 DISPSTOP      1 00000000 00000038     T   24328 24328
 DJCBNEXT      4 00003E04 00000001     I   31216 29165B
 DOTTBL        1 00000000 00000000 A   T    2273  2273
 DOWNBILL      1 00000000 00000037     T   24327 24327
 DRENCFLG      1 00000F9F FFFFFFEC     R    6201  6205   6210   6215   6220   6225
 DRENPROT      1 00000F9E FFFFFFEC     R    6188  6196
 DSNON        40 00000E90 FFFFFFEC     C    5921  5922
 DSNWADSN     44 00000E5C FFFFFFEC     C    5908  5909   5910   5911   5920   5928   6159   6165   6167   6173   6176
                                                  6178   6181   6230
 DSNWAF4       1 00000F37 FFFFFFEC     R    5976  5980   5985   5990   5995   6000   6005   6010   6015
 DSNWAF5       1 00000F38 FFFFFFEC     R    6021  6025   6030   6035   6040   6045   6050   6055   6060
 DSNWAF6       1 00000F39 FFFFFFEC     R    6066  6070   6075   6080   6085   6090   6095   6100   6105
 DSNWAF7       1 00000F3A FFFFFFEC     R    6111  6115   6120   6125   6130
 DSNXG         1 00000004 FFFFFFEC A   U    5913  5915
 DSNXGL        1 00000003 FFFFFFEC A   U    5914  5915
 DSNXU         1 00000007 FFFFFFEC A   U    5915  5917
 DSNXUL        1 00000004 FFFFFFEC A   U    5916  5917
 DSSIZ         1 00000108 FFFFFFEC A   U    6159  6167   6176   6181
 DUMPREGS      4 00003E20 00000001     I   31273 24312  28524  33785
 DUNUNALC      1 00000007 FFFFFFD5 A   U    9695 33879
 EBCTBL        1 00000000 00000000 A   T    2269  2269
 EBCTBL7       1 00000000 00000000 A   T    2272  2272
 ECBLIST       1 00000000 00000000 A   T    2132  2132
 EPARTBL       1 00000000 00000000 A   T    2264  2264
 EPIE         84 00000000 FFFFFFCA     J   13439 15630U 32405U
 EPIEIA        4 0000004C FFFFFFCA     U   13429 15634  32409M
 EPIEIC        2 00000052 FFFFFFCA     H   13431 15637
 EPIEPSW       4 00000048 FFFFFFCA     F   13427 13428  13429
 EPIEREGS      4 00000008 FFFFFFCA     F   13426 15635
 ESTAE         2 00001C08 00000001     H   21587 13843  21583U
 FAILINIT      4 00000018 00000001     I   13654 13653
 FAIL2025      1 00000000 00000001     R    1138  1136
 FINDEXIT      2 000043E6 00000001     I   33277 33057B
 FINDLOC       4 00004320 00000001     I   33010 33795
 FINDSYM       4 000042AC 00000001     I   32818 14341  21510  32817
 FKAPUT      128 000007B0 00000001        15985 15860M 21913  22217M
 FLAGS         1 000007B0 00000001     X   15984 15985
 FMBRANCH      1 00000000 00000000 A   T   11144 11144
1FAIL     (FAIL2025) (12:44) (15MAR04) Ordinary Symbol and Literal Cross Reference                                          Page   97
 FMTCLCK       1 00000000 00000039     T   28512 28512
 FMTDUMP       4 000028D6 00000001     I   24356 24296
 FMTEXIT       2 00003432 00000001     I   28464 24455B
 FMTPGQ        1 00000000 0000003C     T   28534 28534
 FORCEOUT      1 00000000 00000024     T   24283 24283
 FREECP        1 00000000 00000028     T   24303 24303
 FREESYSP      4 000045FC 00000001     I   33722 28497
 FSR           0 00000000 00000001 A   #    1002 14595  15354M 16015  16340M 16406  16462M 16477M 16504  17815M 17893
                                                 18201M 18267  18323M 18338M 18363  18404  18956  19039M 19061M 19087
                                                 19332  19905M 20004  20050M 20071  20202M 20344  20742M 20768  20833M
                                                 20858  21468M 23959  24067  24259M
 FSYMEXIT      2 00004312 00000001     I   32980 32855B 32869B
 GETCP         1 00000000 00000022     T   24281 24281
 GETCPU        1 00000000 0000002C     T   24307 24307
 GETRSC        1 00000000 00000016     T   21493 21493  24315
 GLBRANCH      1 00000000 00000000 A   T   11050 11050
 GMBRANCH      1 00000000 00000000 A   T   11146 11146
 GVT           1 00000000 00000000 A   T   10912 10912
 HCMRSG        1 00000000 00000049     T   33977 33977
 HEXFMT        1 00000000 0000001B     T   21505 21505
 HEXSTR        1 00000000 0000001A     T   21499 21499
 HIBAL         1 00000000 FFFFFFFF     J     691   707    720    733    746    759    772    785    798    811    824
                                                   837    850    863    876    889    902
 HSPFMIL       1 00000080 FFFFFFCF A   U   11622 11626  11627
 HSPFORV       1 00000020 FFFFFFCF A   U   11624 11626
 HSPFORVR      1 00000010 FFFFFFCF A   U   11625 11627
 HSPFWYL       1 00000040 FFFFFFCF A   U   11623 11626  11627  24217
 IARMPVT       1 00000000 00000000 A   T   10787 10787
 IARMRRCE      1 00000000 00000000 A   T   11332 11332
 IARPIBR       1 00000000 00000000 A   T   11302 11302
 IARPSIV       1 00000000 00000000 A   T   11126 11126
 IARPSXM       1 00000000 00000000 A   T   11275 11275
 IARXKEY       1 00000000 00000000 A   T   11233 11233
 IARXVIO       1 00000000 00000000 A   T   11127 11127
 ICYMMVTC      1 00000000 00000000 A   T   11558 11558
 IDA121CV      1 00000000 00000000 A   T   11065 11065
 IEABEND       1 00000000 00000000 A   T   10649 10649
 IEADQIQE      1 00000000 00000000 A   T   11045 11045
 IEAECVT       1 00000000 00000000 A   T   10574 10574
 IEAGSMQ       1 00000000 00000000 A   T   11022 11022
 IEAIHASU      1 00000000 00000000 A   T   11262 11262
 IEALSMQ       1 00000000 00000000 A   T   11024 11024
 IEAMASCB      1 00000000 00000000 A   T   10992 10992  10996
 IEAPATCH      1 00000000 00000000 A   T   10657 10657
 IEAPDSRT      1 00000000 00000000 A   T   10920 10920
 IEAPTRV       1 00000000 00000000 A   T   10736 10736
 IEAQCDSR      1 00000000 00000000 A   T   10640 10640
 IEAQCS01      1 00000000 00000000 A   T   11032 11032
 IEAQLPAQ      1 00000000 00000000 A   T   10641 10641
 IEAQTD00      1 00000000 00000000 A   T   10537 10537
 IEAQTE00      1 00000000 00000000 A   T   10535 10535
 IEARPOST      1 00000000 00000000 A   T   11047 11047
 IEASMFEX      1 00000000 00000000 A   T   10924 10924
 IEASMFSP      1 00000000 00000000 A   T   11270 11270
 IEASPOST      1 00000000 00000000 A   T   11067 11067
 IEASVDCB      1 00000000 00000000 A   T   10528 10528
 IEATCBP       1 00000000 00000000 A   T   10478 10478
 IEATPC        1 00000000 00000000 A   T   10530 10530
 IEATRSCN      1 00000000 00000000 A   T   10888 10888
1FAIL     (FAIL2025) (12:44) (15MAR04) Ordinary Symbol and Literal Cross Reference                                          Page   98
 IEAVAR02      1 00000000 00000000 A   T   10972 10972
 IEAVBLDP      1 00000000 00000000 A   T   10956 10956
 IEAVDELP      1 00000000 00000000 A   T   10959 10959
 IEAVEAC0      1 00000000 00000000 A   T   11049 11049
 IEAVEADV      1 00000000 00000000 A   T   11207 11207
 IEAVEDR1      1 00000000 00000000 A   T   11092 11092
 IEAVELRM      1 00000000 00000000 A   T   11041 11041
 IEAVENLU      1 00000000 00000000 A   T   11388 11388
 IEAVENQ2      1 00000000 00000000 A   T   11038 11038
 IEAVEQV1      1 00000000 00000000 A   T   11195 11195
 IEAVEQV2      1 00000000 00000000 A   T   11198 11198
 IEAVEQV3      1 00000000 00000000 A   T   11201 11201
 IEAVERI1      1 00000000 00000000 A   T   11094 11094
 IEAVERP1      1 00000000 00000000 A   T   11096 11096
 IEAVERX1      1 00000000 00000000 A   T   11284 11284
 IEAVESC1      1 00000000 00000000 A   T   11223 11223
 IEAVESPR      1 00000000 00000000 A   T   11152 11152
 IEAVESTU      1 00000000 00000000 A   T   11386 11386
 IEAVESVT      1 00000000 00000000 A   T   11158 11158
 IEAVET6E      1 00000000 00000000 A   T   11258 11258
 IEAVEVT2      1 00000000 00000000 A   T   11212 11212
 IEAVEXPR      1 00000000 00000000 A   T   11020 11020
 IEAVEXP1      1 00000000 00000000 A   T   11189 11189
 IEAVFRCL      1 00000000 00000000 A   T   10958 10958
 IEAVGSDA      1 00000000 00000000 A   T   11203 11203
 IEAVGTCL      1 00000000 00000000 A   T   10957 10957
 IEAVGWSA      1 00000000 00000000 A   T   11052 11052
 IEAVLKRM      1 00000000 00000000 A   T   10759 10759
 IEAVMFRM      1 00000000 00000000 A   T   11137 11137
 IEAVMSGS      1 00000000 00000000 A   T   10706 10706
 IEAVNVT0      1 00000000 00000000 A   T   11371 11371
 IEAVRSUH      1 00000000 00000000 A   T   11250 11250
 IEAVRT03      1 00000000 00000000 A   T   10864 10864
 IEAVSPND      1 00000000 00000000 A   T   11260 11260
 IEAVSTAG      1 00000000 00000000 A   T   11000 11000
 IEAVTCTL      1 00000000 00000000 A   T   11252 11252
 IEAVTEST      1 00000000 00000000 A   T   10763 10763
 IEAVTRGR      1 00000000 00000000 A   T   11060 11060
 IEAVTRG1      1 00000000 00000000 A   T   10509 10509
 IEAVTRV3      1 00000000 00000000 A   T   10756 10756
 IEAVTSBP      1 00000000 00000000 A   T   11006 11006
 IEAVTSFR      1 00000000 00000000 A   T   10727 10727
 IEAVTSGL      1 00000000 00000000 A   T   11004 11004
 IEAVVMSR      1 00000000 00000000 A   T   10785 10785
 IEAVWAIT      1 00000000 00000000 A   T   11027 11027
 IEAVWSAC      1 00000000 00000000 A   T   11058 11058
 IEAVWSAG      1 00000000 00000000 A   T   11056 11056
 IEAVWSAL      1 00000000 00000000 A   T   11054 11054
 IEAVXEXT      1 00000000 00000000 A   T   11135 11135
 IEAVXSFT      1 00000000 00000000 A   T   11102 11102
 IEAVXSTN      1 00000000 00000000 A   T   11108 11108
 IEAVXSTS      1 00000000 00000000 A   T   11106 11106
 IEAVXUNN      1 00000000 00000000 A   T   11131 11131
 IEAVXUNS      1 00000000 00000000 A   T   11110 11110
 IEAWTCB       1 00000000 00000000 A   T   11167 11167
 IEA0DS        1 00000000 00000000 A   T   10573 10573
 IEA0EF00      1 00000000 00000000 A   T   10479 10479
 IEA0EF01      1 00000000 00000000 A   T   10519 10519
 IEA0PT0E      1 00000000 00000000 A   T   11239 11239
1FAIL     (FAIL2025) (12:44) (15MAR04) Ordinary Symbol and Literal Cross Reference                                          Page   99
 IEA0PT01      1 00000000 00000000 A   T   10580 10580
 IEA0PT02      1 00000000 00000000 A   T   11164 11164
 IEA0PT03      1 00000000 00000000 A   T   11241 11241
 IEA0VL00      1 00000000 00000000 A   T   10490 10490
 IEA0VL01      1 00000000 00000000 A   T   10897 10897
 IECIXAVL      1 00000000 00000000 A   T   10565 10565
 IECPCNVT      1 00000000 00000000 A   T   10493 10493
 IECPRLTV      1 00000000 00000000 A   T   10497 10497
 IECVEXCL      1 00000000 00000000 A   T   11129 11129
 IECXAPG       1 00000000 00000000 A   T   10488 10488
 IECXITP       1 00000000 00000000 A   T   10518 10518
 IECXTLER      1 00000000 00000000 A   T   10504 10504
 IEC0SCR1      1 00000000 00000000 A   T   10663 10663
 IEECUCB       1 00000000 00000000 A   T   10534 10534
 IEEMSER       1 00000000 00000000 A   T   10512 10512  10578
 IEEVEXSN      1 00000000 00000000 A   T   10867 10867
 IEEVSTOP      1 00000000 00000000 A   T   11177 11177
 IEFAQTOP      1 00000000 00000000 A   T   10984 10984
 IEFAUSDM      1 00000000 00000000 A   T   10484 10484
 IEFENFDM      1 00000000 00000000 A   T   10643 10643
 IEFJESCT      1 00000000 00000000 A   T   10743 10743
 IEFLINK       1 00000000 00000000 A   T   10481 10481
 IEFQMWR       1 00000000 00000000 A   T   10594 10594
 IEWFBOSV      1 00000000 00000000 A   T   10571 10571
 IEWMSEPT      1 00000000 00000000 A   T   11076 11076
 IFBDCB        1 00000000 00000000 A   T   10560 10560
 IFDOLT0A      1 00000000 00000000 A   T   10922 10922
 IFGDEBVR      1 00000000 00000000 A   T   11553 11553
 IGC043BR      1 00000000 00000000 A   T   10968 10968
 IGC044R2      1 00000000 00000000 A   T   11078 11078
 IGC062R1      1 00000000 00000000 A   T   11048 11048
 IGC07903      1 00000000 00000000 A   T   11193 11193
 IGC124        1 00000000 00000000 A   T   11209 11209
 IGFRVT        1 00000000 00000000 A   T   10658 10658
 IGVCPBDB      1 00000000 00000000 A   T   11324 11324
 IGVCPDLB      1 00000000 00000000 A   T   11326 11326
 IGVCPFRE      1 00000000 00000000 A   T   11316 11316
 IGVCPGTC      1 00000000 00000000 A   T   11314 11314
 IGVCPGUB      1 00000000 00000000 A   T   11308 11308
 IGVCPGUP      1 00000000 00000000 A   T   11311 11311
 IGVCPGUS      1 00000000 00000000 A   T   11334 11334
 IGVGCAS       1 00000000 00000000 A   T   10962 10962
 IGVGFAS       1 00000000 00000000 A   T   10966 10966
 IGVGRRGN      1 00000000 00000000 A   T   11338 11338
 IGVGVRGN      1 00000000 00000000 A   T   11340 11340
 IGVQSPET      1 00000000 00000000 A   T   10964 10964
 IGVSLIST      1 00000000 00000000 A   T   11318 11318
 IGVSLOC       1 00000000 00000000 A   T   11322 11322
 IGVSREGN      1 00000000 00000000 A   T   11320 11320
 IGVSTSKI      1 00000000 00000000 A   T   11305 11305
 IHADCB        1 00000000 FFFFFFD4     J    9714  9794   9844   9919  10046  10051  10066  10072  10081  10181  10184
                                                 10189  10214  10232  10233  10237  10273  10274  10275
 IHB10400      2 00003426 00000001     H   28450 28429B 28436B
 IHB1323A      2 000000AC 00000001     H   13757 13753B
 IHB1349A      2 00000106 00000001     H   13821 13817B
 IHB1364A      2 0000015E 00000001     H   13867 13863B
 IHB7270A      2 000021CC 00000001     H   23683 23679B
 ILRJTERM      1 00000000 00000000 A   T   11247 11247
 INITFLGS      1 0000029E 00000001     R   13633 13634
1FAIL     (FAIL2025) (12:44) (15MAR04) Ordinary Symbol and Literal Cross Reference                                          Page  100
 INITNOTB      2 000001A4 00000001     I   14004 13884B
 INITSTK       1 00000000 00000023     T   24282 24282
 INVALID       1 00000000 00000000 A   T    2259  2259
 IOSVDEVN      1 00000000 00000000 A   T   11264 11264
 IOSVHID       1 00000000 00000000 A   T   11274 11274
 IOSVSUCB      1 00000000 00000000 A   T   11277 11277
 IOWASIZE      1 00000000 0000003F     T   28547 28547
 IOWRSG        1 00000000 00000046     T   33973 33973
 IRARMCNS      1 00000000 00000000 A   T   11018 11018
 IRARMEPS      1 00000000 00000000 A   T   11236 11236
 IRARMI00      1 00000000 00000000 A   T   10975 10975
 IRBEND        4 000000A0 FFFFFFCC     F   13176 13302  13307  13318
 ISNBRNCH      1 00000000 00000000 A   T   11133 11133
 JCB         208 00000000 FFFFFFE7     J    6771 14773U 16144U 16245U 16542U 17264U 17281U 17494  17516U 17675U 17851
                                                 18007U 18106U 18535U 18851M 21519  22403U 22835U 22909U 23185U 23459M
                                                 26358U 26593U 27810U 28029U 29151U 29176  29986U 30003U 30220  30242U
                                                 30405U
 JCBACCT       5 0000004A FFFFFFE7     C    6533 16259M 16259  16614M 16614  18120M 18120  29245M 29245
 JCBAFALO    128 00000062 FFFFFFE7         6620 17148  23196M 29786
 JCBAFL        1 00000062 FFFFFFE7     R    6616  6620   6625   6630   6635   6640   6645   6650   6655
 JCBANO        2 0000004F FFFFFFE7     X    6536 29367  29401
 JCBAPDSP     16 00000062 FFFFFFE7         6635 18838  18851M 18851  23459M 23459
 JCBBFL        1 00000063 FFFFFFE7     R    6661  6665   6670   6675   6680   6685   6690   6695
 JCBBILLX      8 00000088 FFFFFFE7     D    6746  6754   6754
 JCBCPX        4 00000014 FFFFFFE7     A    6513 16736  22841  26364  27816  28035  29495  30458
 JCBDISP       4 00003886 00000001     I   29126 21489  28536
 JCBDSPP       4 00000008 FFFFFFE7     A    6508 17223  29944
 JCBFATTN      2 00000062 FFFFFFE7         6650 17037  29672
 JCBFCNT       2 00000034 FFFFFFE7     H    6523 17704M 17704  17730  22412  22413M 23074  29555M 29555  29583
 JCBFMAX#      1 00000005 FFFFFFE7 A   N    6522 24300  24330
 JCBFNATN     64 00000062 FFFFFFE7         6625 17074  29710
 JCBFPATN      8 00000062 FFFFFFE7         6640 17111  29748
 JCBGRP        2 0000004D FFFFFFE7     C    6535 16658  16663  29291  29296
 JCBNEXT       4 000000D0 FFFFFFE7     F    6764 16294  18155  31216
 JCBNPG        2 00000030 FFFFFFE7     H    6519 29450
 JCBQF         4 00000000 FFFFFFE7     A    6505 17494  17537  30220  30263
 JCBRSCF1      1 00000064 FFFFFFE7     R    6701  6705   6710   6715
 JCBSEQ        2 00000048 FFFFFFE7     H    6532 14782  16185  16584  17270  18048  18562  26602  29218  29992
 JCBSFLG1      1 00000065 FFFFFFE7     R    6721  6725   6730
 JCBUSER       3 0000004A FFFFFFE7     C    6534 16702  16707  29337  29342
 JCBWCPU       4 0000007C FFFFFFE7     F    6742 16783  30858
 JCBWFERR      1 00000060 FFFFFFE7         6584 17185  18632  18675  18790M 18815M 22474  22488M 23445  29824
 JCBWFL        1 00000060 FFFFFFE7     R    6545  6549   6554   6559   6564   6569   6574   6579   6584   6612  18817M
                                                 18817  29864  29892
 JCBWFSIZ      1 00000002 FFFFFFE7 A   U    6612 18817
 JCBWFSO     128 00000060 FFFFFFE7         6549 16157  16555  18020  18589  29162
 JCBWWFL       1 00000061 FFFFFFE7     R    6590  6594   6599   6604   6609
 JESSTOP       1 00000000 00000034     T   24324 24324
 KAPCODE       8 000007B6 00000001     C   15988 15727M 21921  21992  21997
 KAPMSG        4 000007C0 00000001     F   15989 15813M 15813  15850M 21932M 21932  22052M 22052  22076
 KAPREGS       4 000007CC 00000001     F   15991 15729M 21934M 23362  28180  28242  28526
 KAPRTN        4 000007C8 00000001     A   15990 15728M 21933M 22033
 KAPTEXT       5 000007B1 00000001     C   15987 15806M 21919M 21964  21969
 KWRRSG        1 00000000 00000047     T   33974 33974
 LOC          24 00000000 FFFFFFC6     J   13620 32455  32463U 33035U
 LOCADDR       4 00000000 FFFFFFC6     F   13609 32465M 32476  33068
 LOCALTOD      1 00000000 00000025     T   24286 24286  28511
 LOCCSECT      8 00000004 FFFFFFC6     C   13610 32661  32695  32700  33037M 33263M
 LOCCSOFS      2 00000014 FFFFFFC6     H   13612 32723M 32723  32752  33052M 33262M
1FAIL     (FAIL2025) (12:44) (15MAR04) Ordinary Symbol and Literal Cross Reference                                          Page  101
 LOCSYM        8 0000000C FFFFFFC6     C   13611 32506  32540  32545  33038M 33221M
 LOCSYOFS      2 00000016 FFFFFFC6     H   13613 32568M 32568  32597  33047M 33220M
 LOWTBL        1 00000000 00000000 A   T    2267  2267
 LSR           8 00000008 00000001 A   #    1040 14595  15354M 16015  16340M 16406  16477M 16504  17815M 17893  18201M
                                                 18267  18338M 18363  18404  18956  19061M 19087  19332  19905M 20004
                                                 20050M 20071  20202M 20344  20742M 20768  20833M 20858  21468M 23959
                                                 24067  24259M
 MALL          1 00000000 0000000C     T   16390 16390  18251  18939  19987
 MILERR        1 00000000 00000000 A   T    2258  2258
 MINT          1 00000000 0000000A     T   16360 16360  18221  18909
 MPARM         1 00000000 00000013     T   19927 19927
 MTOKEN        1 00000000 00000014     T   19942 19942
 NBLTBL        1 00000000 00000000 A   T    2271  2271
 NETFMT        1 00000000 0000003E     T   28541 28541
 NOACTION      1 00000000 00000000 A   T    2261  2261
 NOSYM        22 00000272 00000001     U   14328 14224M 14235  14240
 NOSYMM        8 00000272 00000001     C   14327 14328  14328
 NOTVALID      1 00000000 0000000D     T   16391 16391  17839  18252  18940  19988  21483
 NPARTBL       1 00000000 00000000 A   T    2265  2265
 NSCAN         1 00000000 0000000E     T   17833 17833  21485
 NSCNCB      176 00000000 FFFFFFED     J    2530  2656  16055  16056  16057  16060M 16061M 16063M 16073M 16074M 16075M
                                                 17957  17958  17959  17962M 17963M 17965M 17975M 17976M 17977M 18472
                                                 18473  18474  18477M 18478M 18480M 18490M 18491M 18492M 19158  19159
                                                 19160  19163M 19164M 19165M 19175M 19176M 19177M 19187  19427  19428
                                                 19429  19432M 19433M 19434M 19444M 19445M 19446M 19456  19576  19577
                                                 19578  19581M 19582M 19584M 19594M 19595M 19596M 20383  20384  20385
                                                 20388M 20389M 20390M 20400M 20401M 20402M 20412  20495  20496  20497
                                                 20500M 20501M 20502M 20512M 20513M 20514M 20557  20572  20587  20588
                                                 20589M 20589  20590  20591M 20604M 20628  20629  20630  20633M 20634M
                                                 20635M 20645M 20646M 20647M 20657  20921  20922  20923  20926M 20927M
                                                 20928M 20938M 20939M 20940M 20950
 NSCNFLGS      1 00000008 FFFFFFED     R    2467  2471   2476
 NSCNKWS       4 00000028 FFFFFFED     A    2516 16055  16063M 16073M 17957  17965M 17975M 18472  18480M 18490M 19158
                                                 19165M 19175M 19427  19434M 19444M 19576  19584M 19594M 20383  20390M
                                                 20400M 20495  20502M 20512M 20628  20635M 20645M 20921  20928M 20938M
 NSCNLEN       4 00000004 FFFFFFED     F    2464 20590  20591M
 NSCNLOC       4 00000000 FFFFFFED     A    2463 20587  20589M
 NSCNSKIP      4 00000024 FFFFFFED     A    2515 16056  16060M 16074M 17958  17962M 17976M 18473  18477M 18491M 19159
                                                 19163M 19176M 19428  19432M 19445M 19577  19581M 19595M 20384  20388M
                                                 20401M 20496  20500M 20513M 20629  20633M 20646M 20922  20926M 20939M
 NSCNSTOP      4 00000020 FFFFFFED     A    2514 16057  16061M 16075M 17959  17963M 17977M 18474  18478M 18492M 19160
                                                 19164M 19177M 19429  19433M 19446M 19578  19582M 19596M 20385  20389M
                                                 20402M 20497  20501M 20514M 20630  20634M 20647M 20923  20927M 20940M
 NSCNTLEN      4 00000014 FFFFFFED     F    2482 20557  20604M
 NSCNTLOC      4 00000010 FFFFFFED     A    2481 20572  20588  20589
 NSCNTOK      16 00000030 FFFFFFED     C    2518 19187  19456  20412  20657  20950
 NSCNTYPE      1 00000018 FFFFFFED     R    2485  2489   2494   2499   2504   2509
 PAGERES       1 00000000 0000002D     T   24308 24308
 PAGRSG        1 00000000 00000045     T   33971 33971
 PAR           9 00000009 00000001 A   #    1053 28180
 PATBAD        2 00001686 00000001     I   20219 21503
 PATFLAG       1 00000000 FFFFFFC4     R   19290 19294
 PATFSYS     128 00000000 FFFFFFC4        19294 19796  20035M
 PATHCLS       1 00000000 00000027     T   24299 24299
 PATPRT        4 00001528 00000001     F   19916 21502
 PATSYS        2 000015F0 00000001     H   19995 19943
 PATTEXT     235 00000004 FFFFFFC4     C   19299 19474  19490  19857  21501
 PATTLEN       2 00000002 FFFFFFC4     H   19298 19564M 19605  19673  19824
 PATVER        2 0000161C 00000001     H   20062 19928
1FAIL     (FAIL2025) (12:44) (15MAR04) Ordinary Symbol and Literal Cross Reference                                          Page  102
 PATVLEN       2 000000F0 FFFFFFC4     H   19301 19677  19679  19714  20187M
 PATVTXT     235 000000F2 FFFFFFC4     C   19302 19747  20097  20113  21507
 PATWA       477 00000000 FFFFFFC4     J   19309 19335  19364U 19368  19376U 19384M 19384  19385M 19385  19905  19907
                                                 19908
 PBR          10 0000000A 00000001 A   #    1066 28242
 PFREEA        1 00000000 0000002A     T   24305 24305
 PFREEB        1 00000000 0000002B     T   24306 24306
 PRBEND        4 000000A8 FFFFFFCC     F   13191 13315
 PRTABEND      2 00004960 00000001     H   33941 33925
 PRTCC         1 000044CE 00000001     C   33656 28505  33475  33482  33571M 33571
 PRTEXLST      4 0000495C 00000001     A   33925 33901
 PRTSEG        4 000043F2 00000001     I   33312 28499
 QUIETPSH      1 00000000 00000015     T   19973 19973
 RAR          14 0000000E 00000001 A   #    1118  2196   2197M  2198B  2200M  2201B  2221M  2222B  2226M  2227B  2229M
                                                  2230B  2232M  2233B  2235M  2236B  2238M  2239M  2239B  2245  14052M
                                                 14251M 14252M 14252B 14274M 14275M 14275B 14301  14311M 14312M 14312B
                                                 14592  14714M 14715M 14715B 14761M 14762M 14762B 14797M 14798M 14798B
                                                 14814M 14815M 14815B 14849M 14850M 14850B 14866M 14867M 14867B 14893M
                                                 14894M 14894B 14910M 14911M 14911B 14943M 14944M 14944B 14971M 14972M
                                                 14972B 14988M 14989M 14989B 15023M 15024M 15024B 15137M 15138M 15138B
                                                 15198M 15199M 15199B 15215M 15216M 15216B 15243M 15244M 15244B 15260M
                                                 15261M 15261B 15286M 15287M 15287B 15356M 15359B 15389M 15390M 15390B
                                                 16012  16066M 16067M 16067B 16080M 16081M 16081B 16179M 16180M 16180B
                                                 16200M 16201M 16201B 16214M 16215M 16215B 16268M 16269M 16269B 16280M
                                                 16281M 16281B 16342M 16345B 16403  16455M 16456M 16456B 16479M 16482B
                                                 16501  16579M 16580M 16580B 16602M 16603M 16603B 16647M 16648M 16648B
                                                 16674M 16675M 16675B 16691M 16692M 16692B 16718M 16719M 16719B 16781M
                                                 16782M 16782B 16840M 16841M 16841B 16863M 16864M 16864B 16882M 16883M
                                                 16883B 16901M 16902M 16902B 16925M 16926M 16926B 16958M 16959M 16959B
                                                 16963M 16964M 16964B 16986M 16987M 16987B 17003M 17004M 17004B 17059M
                                                 17060M 17060B 17096M 17097M 17097B 17133M 17134M 17134B 17170M 17171M
                                                 17171B 17207M 17208M 17208B 17245M 17246M 17246B 17307M 17308M 17308B
                                                 17324M 17325M 17325B 17431M 17432M 17432B 17459M 17460M 17460B 17476M
                                                 17477M 17477B 17572M 17573M 17573B 17600M 17601M 17601B 17617M 17618M
                                                 17618B 17638M 17639M 17639B 17655M 17656M 17656B 17725M 17726M 17726B
                                                 17745M 17746M 17746B 17762M 17763M 17763B 17792M 17793M 17793B 17817M
                                                 17820B 17890  17937M 17938M 17938B 17968M 17969M 17969B 17982M 17983M
                                                 17983B 18042M 18043M 18043B 18063M 18064M 18064B 18077M 18078M 18078B
                                                 18129M 18130M 18130B 18141M 18142M 18142B 18203M 18206B 18264  18316M
                                                 18317M 18317B 18340M 18343B 18360  18401  18451M 18452M 18452B 18483M
                                                 18484M 18484B 18497M 18498M 18498B 18556M 18557M 18557B 18577M 18578M
                                                 18578B 18709M 18710M 18710B 18763M 18764M 18764B 18869M 18870M 18870B
                                                 18953  19002M 19003M 19003B 19032M 19033M 19033B 19063M 19066B 19084
                                                 19134M 19135M 19135B 19143M 19144M 19144B 19168M 19169M 19169B 19182M
                                                 19183M 19183B 19215M 19216M 19216B 19231M 19232M 19232B 19245M 19246M
                                                 19246B 19268M 19269M 19269B 19329  19404M 19405M 19405B 19413M 19414M
                                                 19414B 19437M 19438M 19438B 19451M 19452M 19452B 19477M 19478M 19478B
                                                 19493M 19494M 19494B 19528M 19529M 19529B 19587M 19588M 19588B 19601M
                                                 19602M 19602B 19661M 19662M 19662B 19702M 19703M 19703B 19808M 19809M
                                                 19809B 19907M 19910B 20001  20052M 20055B 20068  20100M 20101M 20101B
                                                 20116M 20117M 20117B 20151M 20152M 20152B 20204M 20207B 20287M 20288M
                                                 20288B 20316M 20317M 20317B 20341  20393M 20394M 20394B 20407M 20408M
                                                 20408B 20447M 20448M 20448B 20505M 20506M 20506B 20519M 20520M 20520B
                                                 20638M 20639M 20639B 20652M 20653M 20653B 20697M 20698M 20698B 20713M
                                                 20714M 20714B 20744M 20747B 20765  20835M 20838B 20855  20905M 20906M
                                                 20906B 20931M 20932M 20932B 20945M 20946M 20946B 20968M 20969M 20969B
                                                 20987M 20988M 20988B 21040M 21041M 21041B 21072M 21073M 21073B 21186M
                                                 21187M 21187B 21220M 21221M 21221B 21238M 21239M 21239B 21260M 21261M
                                                 21261B 21291M 21292M 21292B 21327M 21328M 21328B 21349M 21350M 21350B
1FAIL     (FAIL2025) (12:44) (15MAR04) Ordinary Symbol and Literal Cross Reference                                          Page  103
                                                 21380M 21381M 21381B 21399M 21400M 21400B 21415M 21416M 21416B 21444M
                                                 21445M 21445B 21470M 21473B 21759M 21760M 21760B 21766M 21767M 21767B
                                                 21770M 21771M 21771B 21824M 21825M 21825B 21885M 21886M 21886B 21924M
                                                 21925M 21925B 21952M 21953M 21953B 21980M 21981M 21981B 22008M 22009M
                                                 22009B 22026M 22027M 22027B 22040M 22041M 22041B 22074M 22075M 22075B
                                                 22099M 22100M 22100B 22178M 22179M 22179B 22192M 22193M 22193B 22358M
                                                 22359M 22359B 22370M 22371M 22371B 22570M 22571M 22571B 22614M 22615M
                                                 22615B 22627M 22628M 22628B 22672M 22673M 22673B 22726M 22727M 22727B
                                                 22815M 22816M 22816B 22853M 22854M 22854B 22859M 22860M 22860B 22865M
                                                 22866M 22866B 22870M 22871M 22871B 22896M 22897M 22897B 22926M 22927M
                                                 22927B 22951M 22952M 22952B 22969M 22970M 22970B 22987M 22988M 22988B
                                                 23005M 23006M 23006B 23023M 23024M 23024B 23041M 23042M 23042B 23059M
                                                 23060M 23060B 23096M 23097M 23097B 23114M 23115M 23115B 23155M 23156M
                                                 23156B 23173M 23174M 23174B 23233M 23234M 23234B 23288M 23289M 23289B
                                                 23316M 23317M 23317B 23341M 23342M 23342B 23359M 23360M 23360B 23365M
                                                 23366M 23366B 23406M 23407M 23407B 23420M 23421M 23421B 23477M 23478M
                                                 23478B 23582  23658M 23659M 23659B 23697M 23698M 23698B 23809  23885M
                                                 23886M 23886B 23890M 23891M 23891B 23956  23988M 24019M 24020M 24020B
                                                 24023M 24024M 24024B 24027M 24028M 24028B 24031M 24032M 24032B 24035M
                                                 24036M 24036B 24064  24113M 24114M 24114B 24118M 24119M 24119B 24123M
                                                 24124M 24124B 24261M 24264B 24386M 24387M 24387B 24390M 24391M 24391B
                                                 24408M 24409M 24409B 24430M 24431M 24431B 24440M 24441M 24441B 24489M
                                                 24490M 24490B 24536M 24537M 24537B 24568M 24569M 24569B 24604M 24605M
                                                 24605B 24632M 24633M 24633B 24650M 24651M 24651B 24672M 24673M 24673B
                                                 24676M 24677M 24677B 24683M 24684M 24684B 24707M 24708M 24708B 24734M
                                                 24735M 24735B 24759M 24760M 24760B 24787M 24788M 24788B 24812M 24813M
                                                 24813B 24837M 24838M 24838B 24866M 24867M 24867B 24903M 24904M 24904B
                                                 24917M 24918M 24918B 24942M 24943M 24943B 24967M 24968M 24968B 24986M
                                                 24987M 24987B 25108M 25109M 25109B 25138M 25139M 25139B 25216M 25217M
                                                 25217B 25234M 25235M 25235B 25248M 25249M 25249B 25266M 25267M 25267B
                                                 25300M 25301M 25301B 25330M 25331M 25331B 25348M 25349M 25349B 25467M
                                                 25468M 25468B 25485M 25486M 25486B 25504M 25505M 25505B 25538M 25539M
                                                 25539B 25556M 25557M 25557B 25562M 25563M 25563B 25587M 25588M 25588B
                                                 25644M 25645M 25645B 25662M 25663M 25663B 25668M 25669M 25669B 25733M
                                                 25734M 25734B 25758M 25759M 25759B 25776M 25777M 25777B 25784M 25785M
                                                 25785B 25808M 25809M 25809B 25835M 25836M 25836B 25853M 25854M 25854B
                                                 25859M 25860M 25860B 25883M 25884M 25884B 25901M 25902M 25902B 25915M
                                                 25916M 25916B 25940M 25941M 25941B 25959M 25960M 25960B 25977M 25978M
                                                 25978B 25983M 25984M 25984B 26009M 26010M 26010B 26027M 26028M 26028B
                                                 26041M 26042M 26042B 26066M 26067M 26067B 26085M 26086M 26086B 26103M
                                                 26104M 26104B 26109M 26110M 26110B 26152M 26153M 26153B 26174M 26175M
                                                 26175B 26192M 26193M 26193B 26226M 26227M 26227B 26264M 26265M 26265B
                                                 26302M 26303M 26303B 26331M 26332M 26332B 26452M 26453M 26453B 26476M
                                                 26477M 26477B 26493M 26494M 26494B 26520M 26521M 26521B 26537M 26538M
                                                 26538B 26564M 26565M 26565B 26581M 26582M 26582B 26617M 26618M 26618B
                                                 26649M 26650M 26650B 26682M 26683M 26683B 26703M 26704M 26704B 26731M
                                                 26732M 26732B 26765M 26766M 26766B 26791M 26792M 26792B 26820M 26821M
                                                 26821B 26881M 26882M 26882B 26906M 26907M 26907B 26924M 26925M 26925B
                                                 26949M 26950M 26950B 26959M 26960M 26960B 26969M 26970M 26970B 26998M
                                                 26999M 26999B 27023M 27024M 27024B 27035M 27036M 27036B 27081M 27082M
                                                 27082B 27102M 27103M 27103B 27127M 27128M 27128B 27155M 27156M 27156B
                                                 27183M 27184M 27184B 27287M 27288M 27288B 27317M 27318M 27318B 27345M
                                                 27346M 27346B 27363M 27364M 27364B 27377M 27378M 27378B 27398M 27399M
                                                 27399B 27420  27427M 27428M 27428B 27445M 27446M 27446B 27483M 27484M
                                                 27484B 27508M 27509M 27509B 27538M 27539M 27539B 27563M 27564M 27564B
                                                 27581M 27582M 27582B 27592M 27593M 27593B 27653M 27654M 27654B 27678M
                                                 27679M 27679B 27682M 27683M 27683B 27693M 27694M 27694B 27715M 27716M
                                                 27716B 27738M 27739M 27739B 27759M 27760M 27760B 27780M 27781M 27781B
                                                 27841M 27842M 27842B 27861M 27862M 27862B 27886M 27887M 27887B 27911M
1FAIL     (FAIL2025) (12:44) (15MAR04) Ordinary Symbol and Literal Cross Reference                                          Page  104
                                                 27912M 27912B 27933M 27934M 27934B 28016M 28017M 28017B 28079M 28080M
                                                 28080B 28102M 28103M 28103B 28128M 28129M 28129B 28149M 28150M 28150B
                                                 28206M 28207M 28207B 28227M 28228M 28228B 28268M 28269M 28269B 28289M
                                                 28290M 28290B 28327M 28328M 28328B 28352M 28353M 28353B 28370M 28371M
                                                 28371B 28395M 28396M 28396B 28417M 28418M 28418B 28453M 28454M 28454B
                                                 28461M 28462M 28462B 28664M 28665M 28665B 28719M 28720M 28720B 28855M
                                                 28856M 28856B 28885M 28886M 28886B 28913M 28914M 28914B 28949M 28950M
                                                 28950B 29058M 29059M 29059B 29087M 29088M 29088B 29194M 29195M 29195B
                                                 29212M 29213M 29213B 29233M 29234M 29234B 29279M 29280M 29280B 29307M
                                                 29308M 29308B 29325M 29326M 29326B 29353M 29354M 29354B 29389M 29390M
                                                 29390B 29417M 29418M 29418B 29444M 29445M 29445B 29465M 29466M 29466B
                                                 29483M 29484M 29484B 29534M 29535M 29535B 29577M 29578M 29578B 29598M
                                                 29599M 29599B 29616M 29617M 29617B 29657M 29658M 29658B 29695M 29696M
                                                 29696B 29733M 29734M 29734B 29771M 29772M 29772B 29809M 29810M 29810B
                                                 29847M 29848M 29848B 29886M 29887M 29887B 29910M 29911M 29911B 29928M
                                                 29929M 29929B 29967M 29968M 29968B 30030M 30031M 30031B 30048M 30049M
                                                 30049B 30156M 30157M 30157B 30184M 30185M 30185B 30202M 30203M 30203B
                                                 30299M 30300M 30300B 30327M 30328M 30328B 30345M 30346M 30346B 30367M
                                                 30368M 30368B 30385M 30386M 30386B 30446M 30447M 30447B 30503M 30504M
                                                 30504B 30527M 30528M 30528B 30551M 30552M 30552B 30568M 30569M 30569B
                                                 30595M 30596M 30596B 30612M 30613M 30613B 30639M 30640M 30640B 30656M
                                                 30657M 30657B 30688M 30689M 30689B 30693M 30694M 30694B 30716M 30717M
                                                 30717B 30733M 30734M 30734B 30754M 30755M 30755B 30838M 30839M 30839B
                                                 30856M 30857M 30857B 30920M 30921M 30921B 30943M 30944M 30944B 30962M
                                                 30963M 30963B 30981M 30982M 30982B 31004M 31005M 31005B 31021M 31022M
                                                 31022B 31042M 31043M 31043B 31059M 31060M 31060B 31083M 31084M 31084B
                                                 31118M 31119M 31119B 31125M 31126M 31126B 31213M 31214M 31214B 31359M
                                                 31360M 31360B 31373M 31374M 31374B 31391M 31392M 31392B 31413M 31414M
                                                 31414B 31431M 31432M 31432B 31444M 31445M 31445B 31484M 31485M 31485B
                                                 31660M 31661M 31661B 31691M 31692M 31692B 31789M 31790M 31790B 31814M
                                                 31815M 31815B 31832M 31833M 31833B 31894M 31895M 31895B 31926M 31927M
                                                 31927B 31956M 31957M 31957B 32018M 32019M 32019B 32036M 32037M 32037B
                                                 32069M 32070M 32070B 32089M 32090M 32090B 32133M 32134M 32134B 32149M
                                                 32150M 32150B 32213M 32214M 32214B 32231M 32232M 32232B 32264M 32265M
                                                 32265B 32284M 32285M 32285B 32320M 32321M 32321B 32338M 32339M 32339B
                                                 32364M 32365M 32365B 32469M 32470M 32470B 32492M 32493M 32493B 32528M
                                                 32529M 32529B 32556M 32557M 32557B 32591M 32592M 32592B 32612M 32613M
                                                 32613B 32634M 32635M 32635B 32683M 32684M 32684B 32711M 32712M 32712B
                                                 32746M 32747M 32747B 32767M 32768M 32768B 32789M 32790M 32790B 33425M
                                                 33426M 33426B 33435M 33436M 33436B
 RB            1 00000040 FFFFFFCC C   U   12611 25033U 25081U
 RBCDE1        3 0000004D FFFFFFCC     R   13280 25398
 RBEP          4 0000004C FFFFFFCC     A   13158 13265
 RBFTIRB       1 00000040 FFFFFFCC A   U   13119 25152  25377
 RBFTSVRB      1 000000C0 FFFFFFCC A   U   13121 25177  25276  25364
 RBGRS0        4 00000060 FFFFFFCC     F   12836 25559
 RBLINKB       3 0000005D FFFFFFCC     R   12826 25045  25308  25595
 RBOPSW        8 00000050 FFFFFFCC     C   12803 25241
 RBPGMQ        4 00000058 FFFFFFCC     A   13166 13283  13292  13297
 RBPREFIX      1 00000000 FFFFFFCC     U   12989 13312
 RBPRFX        1 00000000 FFFFFFCC     J   12756 12987
 RBPRFXND      1 00000040 FFFFFFCC     C   13100 13312  13314
 RBPRFXST      8 00000020 FFFFFFCC     D   13029 13314  13315  13316  13317  13318  13320
 RBSECT        1 00000040 FFFFFFCC     U   13103 12611
 RBSTAB1       1 0000004A FFFFFFCC     B   12778 25154  25179  25278  25366  25379
 RESOURCE     24 00000000 FFFFFFE8     J    6491 17364  17374U 30088  30098U
 RMBRANCH      1 00000000 00000000 A   T   11143 11143
 RSC@JCB       4 00000008 FFFFFFE8     A    6461 17407  30131
 RSC@NEXT      4 00000000 FFFFFFE8     A    6459 17364  17395  30088  30119
1FAIL     (FAIL2025) (12:44) (15MAR04) Ordinary Symbol and Literal Cross Reference                                          Page  105
 RSCFLAGS      1 00000014 FFFFFFE8     R    6467  6471   6476   6481
 RSCGROUP     60 00000000 FFFFFFE9     J    6444 17360U 30084U 33968  33969  33971  33973  33974  33976  33977
 RSGFLG1       1 0000003B FFFFFFE9     R    6419  6423   6428   6433   6436
 RSGNAME       8 00000000 FFFFFFE9     C    6395 17443  17448  17584  17589  30168  30173  30311  30316
 RSGQACBK      4 00000018 FFFFFFE9     A    6401 17389  30113
 RSGQACFW      4 00000014 FFFFFFE9     A    6400 17364  30088
 RSGQJCBK      4 00000034 FFFFFFE9     A    6408 17531  30257
 RSGQJCFW      4 00000030 FFFFFFE9     A    6407 17494  30220
 RUNRSG        1 00000000 00000043     T   33968 33968
 R0            0 00000000 FFFFFFFF A   #     699  2181   2250M 13682M 13682  13688M 13696  13697M 13698  13704M 14045M
                                                 14240M 14265M 14265  14703M 14750M 14786M 14786  14803M 14838M 14855M
                                                 14882M 14899M 14932M 14960M 14977M 15012M 15126M 15204M 15232M 15249M
                                                 15275M 15297M 15298M 15849M 15850  16051M 16051  16060  16061  16168M
                                                 16189M 16189  16205M 16432M 16434  16568M 16591M 16636M 16663M 16680M
                                                 16707M 16770M 16832M 16871M 16890M 16914M 16947M 16960M 16992M 17048M
                                                 17085M 17122M 17159M 17196M 17234M 17296M 17296  17313M 17420M 17448M
                                                 17465M 17561M 17589M 17606M 17627M 17627  17644M 17714M 17734M 17734
                                                 17751M 17781M 17781  17953M 17953  17962  17963  18031M 18052M 18052
                                                 18068M 18293M 18295  18468M 18468  18477  18478  18519M 18545M 18566M
                                                 18566  18600M 18643M 18686M 18698M 18714M 18736M 18865M 19008  19009
                                                 19154M 19154  19163  19164  19165  19196M 19196  19260M 19265M 19265
                                                 19423M 19423  19432  19433  19434  19465M 19465  19535M 19547  19559M
                                                 19564  19572M 19572  19581  19582  19650M 19673M 19677  19679M 19682
                                                 19694M 19776M 19805M 19884M 20158M 20170  20182M 20187  20276M 20276
                                                 20305M 20321M 20379M 20379  20388  20389  20390  20421M 20421  20432
                                                 20491M 20491  20500  20501  20502  20534  20624M 20624  20633  20634
                                                 20635  20666M 20666  20676  20694M 20810M 20917M 20917  20926  20927
                                                 20928  20959M 20959  20976  20977  20977  20977  21029M 21061M 21175M
                                                 21209M 21227M 21249M 21280M 21316M 21338M 21338  21377M 21390M 21390
                                                 21412M 21412  21433M 21433  21528  21528  21528  21600  21728M 21753M
                                                 21754M 21755M 21887  21969M 21997M 22015M 22037M 22037  22063M 22076M
                                                 22349M 22605M 22760M 22761M 22762M 22765M 22940M 22940  22958M 22976M
                                                 22994M 23012M 23030M 23048M 23085M 23103M 23144M 23144  23162M 23222M
                                                 23222  23277M 23277  23305M 23330M 23330  23348M 23361M 23395M 23395
                                                 23413M 23473M 23547  23774  24478M 24525M 24557M 24593M 24621M 24639M
                                                 24661M 24723M 24723  24748M 24748  24776M 24801M 24801  24826M 24826
                                                 24855M 24892M 24914M 24914  24931M 24931  24956M 24956  24975M 25097M
                                                 25127M 25143M 25164M 25189M 25223M 25245M 25245  25255M 25289M 25319M
                                                 25319  25337M 25456M 25474M 25501M 25501  25527M 25527  25545M 25558M
                                                 25576M 25576  25633M 25633  25651M 25664M 25722M 25722  25747M 25747
                                                 25765M 25778M 25824M 25824  25842M 25890M 25912M 25912  25929M 25929
                                                 25948M 25966M 25979M 25998M 25998  26016M 26038M 26038  26055M 26055
                                                 26074M 26092M 26105M 26141M 26141  26163M 26163  26181M 26215M 26253M
                                                 26291M 26320M 26320  26441M 26465M 26465  26482M 26509M 26526M 26553M
                                                 26570M 26606M 26606  26638M 26638  26671M 26692M 26720M 26754M 26780M
                                                 26809M 26809  26870M 26870  26895M 26895  26913M 26938M 26938  26955M
                                                 26965M 26987M 27012M 27012  27070M 27070  27091M 27116M 27116  27144M
                                                 27172M 27276M 27306M 27334M 27352M 27374M 27374  27387M 27424M 27424
                                                 27434M 27472M 27497M 27527M 27552M 27570M 27587M 27588M 27642M 27667M
                                                 27667  27704M 27731M 27748M 27773M 27830M 27854M 27875M 27875  27900M
                                                 27900  27922M 27941M 27943M 27952M 27952  27959M 27974M 27974  27988
                                                 27994M 28068M 28082M 28099M 28099  28117M 28142M 28195M 28219M 28224M
                                                 28224  28257M 28281M 28286M 28286  28316M 28316  28341M 28341  28359M
                                                 28384M 28384  28654M 28679M 28709M 28734M 28844M 28874M 28902M 28938M
                                                 29047M 29076M 29076  29183M 29201M 29222M 29222  29268M 29296M 29314M
                                                 29342M 29378M 29406M 29406  29433M 29454M 29454  29472M 29523M 29566M
                                                 29587M 29587  29605M 29646M 29684M 29722M 29760M 29798M 29836M 29875M
                                                 29899M 29917M 29956M 30019M 30019  30037M 30145M 30173M 30191M 30288M
                                                 30316M 30334M 30356M 30356  30374M 30435M 30435  30492M 30516M 30540M
1FAIL     (FAIL2025) (12:44) (15MAR04) Ordinary Symbol and Literal Cross Reference                                          Page  106
                                                 30540  30557M 30584M 30601M 30628M 30645M 30677M 30690M 30722M 30743M
                                                 30768M 30805M 30805  30845M 30912M 30951M 30970M 30993M 30993  31010M
                                                 31031M 31031  31048M 31072M 31072  31107M 31122M 31202M 31202  31291
                                                 31301M 31301  31380M 31402M 31402  31420M 31441M 31441  31449M 31473M
                                                 31473  31566  31649M 31649  31680M 31778M 31803M 31821M 31883M 31915M
                                                 31945M 32007M 32025M 32058M 32078M 32122M 32146M 32202M 32220M 32253M
                                                 32273M 32309M 32309  32327M 32353M 32353  32452  32481M 32517M 32545M
                                                 32580M 32601M 32601  32623M 32672M 32700M 32735M 32756M 32756  32778M
                                                 32852M 32852  32866  32879  33042M 33042  33383  33395M 33401  33572M
                                                 33592M 33592  33631M 33631
 R1            1 00000001 FFFFFFFF A   #     712  2244M  2245M  2251M 13693  13694  13695  13697  13703M 13703  14044M
                                                 14235M 14698M 14749M 14782M 14802M 14833M 14854M 14877M 14898M 14931M
                                                 14955M 14976M 15007M 15121M 15144M 15148  15203M 15227M 15248M 15270M
                                                 15309M 15403M 15423M 15428  15620  15840M 15850  15861M 15878M 15899M
                                                 16047M 16060  16061  16063  16167M 16185M 16204M 16211M 16265M 16532
                                                 16567M 16584M 16629M 16658M 16679M 16702M 16769M 16837M 16870M 16889M
                                                 16907M 16946M 16991M 17047M 17084M 17121M 17158M 17195M 17233M 17292M
                                                 17312M 17419M 17443M 17464M 17560M 17584M 17605M 17623M 17643M 17713M
                                                 17730M 17750M 17949M 17962  17963  17965  18030M 18048M 18067M 18074M
                                                 18126M 18464M 18477  18478  18480  18518M 18544M 18562M 18599M 18642M
                                                 18685M 18697M 18713M 18735M 18859M 19150M 19163  19164  19165  19186M
                                                 19187M 19187  19255M 19419M 19432  19433  19434  19455M 19456M 19456
                                                 19534M 19568M 19581  19582  19584  19649M 19669M 19775M 19804M 19883M
                                                 20157M 20298M 20320M 20375M 20388  20389  20390  20411M 20412M 20412
                                                 20431  20487M 20500  20501  20502  20620M 20633  20634  20635  20656M
                                                 20657M 20657  20675  20689M 20803M 20913M 20926  20927  20928  20949M
                                                 20950M 20950  20976  20977  20977  20977  21028M 21056M 21174M 21201M
                                                 21226M 21248M 21272M 21315M 21334M 21377M 21528  21528  21528  21648
                                                 21659  21721M 21722M 21722  21733  21743  21921M 21964M 21992M 22014M
                                                 22062M 22076M 22127M 22189M 22348M 22515M 22546M 22546  22600M 22764M
                                                 22872  22957M 22975M 22993M 23011M 23029M 23047M 23084M 23102M 23161M
                                                 23300M 23347M 23362M 23412M 23467M 23571  23707M 23798  23900M 24373
                                                 24477M 24520M 24552M 24592M 24616M 24638M 24660M 24769M 24850M 24891M
                                                 24974M 25090M 25120M 25142M 25163M 25188M 25222M 25254M 25288M 25315M
                                                 25336M 25451M 25473M 25544M 25559M 25650M 25665M 25764M 25778M 25841M
                                                 25856M 25889M 25947M 25965M 25980M 26015M 26073M 26091M 26106M 26159M
                                                 26180M 26214M 26252M 26290M 26440M 26481M 26504M 26525M 26548M 26569M
                                                 26602M 26670M 26691M 26715M 26753M 26775M 26912M 26954M 26964M 26986M
                                                 27025M 27090M 27139M 27167M 27269M 27299M 27329M 27351M 27433M 27471M
                                                 27490M 27520M 27545M 27569M 27589M 27641M 27703M 27726M 27747M 27768M
                                                 27829M 27850M 27921M 27935M 27936M 27938  28067M 28081M 28082  28090M
                                                 28116M 28137M 28194M 28215M 28256M 28277M 28358M 28624  28661M 28672M
                                                 28716M 28727M 28836M 28867M 28897M 29039M 29143  29176M 29200M 29218M
                                                 29261M 29291M 29313M 29337M 29377M 29401M 29432M 29450M 29471M 29522M
                                                 29565M 29583M 29604M 29645M 29683M 29721M 29759M 29797M 29835M 29874M
                                                 29892M 29916M 29955M 30015M 30036M 30144M 30168M 30190M 30287M 30311M
                                                 30333M 30352M 30373M 30491M 30509M 30556M 30579M 30600M 30623M 30644M
                                                 30676M 30721M 30742M 30764M 30807M 30807  30844M 30917M 30950M 30969M
                                                 30989M 31009M 31027M 31047M 31106M 31121M 31216M 31228  31238M 31238
                                                 31243M 31243  31293  31379M 31398M 31419M 31448M 31565  31583  31673M
                                                 31796M 31820M 31876M 31908M 31938M 32024M 32040M 32077M 32219M 32235M
                                                 32272M 32326M 32368M 32405U 32466M 32476M 32516M 32540M 32579M 32597M
                                                 32622M 32671M 32695M 32734M 32752M 32777M 33027  33400  33699M 33739M
 R12          12 0000000C FFFFFFFF A   #     855  2207  13536
 R13          13 0000000D FFFFFFFF A   #     868 16055  16056  16057  16073  16074  16075  17957  17958  17959  17975
                                                 17976  17977  18472  18473  18474  18490  18491  18492  19158  19159
                                                 19160  19175  19176  19177  19427  19428  19429  19444  19445  19446
                                                 19576  19577  19578  19594  19595  19596  20383  20384  20385  20400
                                                 20401  20402  20495  20496  20497  20512  20513  20514  20628  20629
1FAIL     (FAIL2025) (12:44) (15MAR04) Ordinary Symbol and Literal Cross Reference                                          Page  107
                                                 20630  20645  20646  20647  20921  20922  20923  20938  20939  20940
                                                 22565M 22566  22667M 22668  23605M 23606  23832M 23833
 R14          14 0000000E FFFFFFFF A   #     881  2182M 13654  14024  16054M 16055  16056  16057  16062M 16063  16070M
                                                 16073  16074  16075  16792M 16792  16793M 16805  17956M 17957  17958
                                                 17959  17964M 17965  17972M 17975  17976  17977  18471M 18472  18473
                                                 18474  18479M 18480  18487M 18490  18491  18492  19157M 19158  19159
                                                 19160  19172M 19175  19176  19177  19426M 19427  19428  19429  19441M
                                                 19444  19445  19446  19575M 19576  19577  19578  19583M 19584  19591M
                                                 19594  19595  19596  20382M 20383  20384  20385  20397M 20400  20401
                                                 20402  20494M 20495  20496  20497  20509M 20512  20513  20514  20556M
                                                 20557  20572  20587  20588  20589  20589  20590  20591  20604  20608M
                                                 20608  20627M 20628  20629  20630  20642M 20645  20646  20647  20920M
                                                 20921  20922  20923  20935M 20938  20939  20940  21610B 21660  21743M
                                                 21748M 21754  21755M 22534M 22535B 22750M 22755M 22761  22762M 23503M
                                                 23557B 23784B 24009M 24010M 24011B 24038M 24039B 24356  28607  28779
                                                 29126  30872M 30872  30873M 30885  31273  31538  32410B 32432  32818
                                                 33010  33312  33682  33722  33944B
 R15          15 0000000F FFFFFFFF A   #     894  2181  13745M 13745  13809M 13809  13855M 13855  14248M 14271M 14632
                                                 14711M 14758M 14794M 14811M 14846M 14863M 14890M 14907M 14940M 14968M
                                                 14985M 15020M 15134M 15140M 15141  15195M 15212M 15240M 15257M 15283M
                                                 15318M 15320M 15320  15358M 15358  15447M 15457U 15463M 15472M 15484
                                                 15490M 15587M 15588M 15637M 15638M 15639  15742M 15754  15761M 15766
                                                 16076M 16076  16176M 16197M 16344M 16344  16481M 16481  16576M 16599M
                                                 16644M 16671M 16688M 16715M 16778M 16783M 16814M 16860M 16879M 16898M
                                                 16922M 16955M 16983M 17000M 17056M 17093M 17130M 17167M 17204M 17242M
                                                 17270M 17292  17304M 17321M 17428M 17456M 17473M 17569M 17597M 17614M
                                                 17635M 17652M 17722M 17742M 17759M 17789M 17819M 17819  17978M 17978
                                                 18039M 18060M 18205M 18205  18342M 18342  18493M 18493  18553M 18574M
                                                 18706M 18760M 18850M 18851  18866M 19065M 19065  19145  19178M 19178
                                                 19237  19264M 19264  19415  19447M 19447  19474M 19490M 19525M 19597M
                                                 19597  19605M 19609M 19618M 19618  19625  19658M 19699M 19714M 19715M
                                                 19715  19724M 19733M 19733  19740  19824M 19825M 19825  19834M 19843M
                                                 19843  19850  19909M 19909  20054M 20054  20097M 20113M 20148M 20206M
                                                 20206  20284M 20313M 20403M 20403  20463U 20515M 20515  20557M 20566M
                                                 20566  20572M 20581M 20581  20587M 20588M 20590M 20591  20603M 20603
                                                 20604  20612M 20612  20648M 20648  20720M 20720  20746M 20746  20837M
                                                 20837  20941M 20941  20994  21037M 21069M 21102M 21168  21183M 21190M
                                                 21217M 21235M 21257M 21288M 21324M 21346M 21441M 21472M 21472  21583U
                                                 21609M 21609  21850M 21851M 21862  21880M 21881M 21882  21920M 21949M
                                                 21977M 22005M 22023M 22033M 22071M 22096M 22106M 22109  22121M 22131M
                                                 22140M 22140  22147  22175M 22303M 22304M 22305  22317  22355M 22360M
                                                 22411M 22412M 22413  22425  22456  22611M 22624M 22624  22796M 22797M
                                                 22797  22835U 22923M 22948M 22966M 22984M 23002M 23020M 23038M 23056M
                                                 23093M 23111M 23152M 23170M 23175M 23185U 23230M 23285M 23313M 23338M
                                                 23356M 23403M 23417M 23417  23458M 23459  23474M 23504M 23505B 23530U
                                                 23556M 23556  23725M 23725  23757U 23783M 23783  23918M 23918  23985
                                                 24008M 24008  24037M 24263M 24263  24393M 24394  24405M 24471M 24486M
                                                 24533M 24565M 24601M 24629M 24647M 24669M 24679M 24704M 24731M 24756M
                                                 24784M 24809M 24834M 24863M 24900M 24910M 24939M 24964M 24983M 25023M
                                                 25033U 25105M 25135M 25213M 25231M 25241M 25263M 25297M 25308M 25310M
                                                 25327M 25345M 25464M 25482M 25496M 25535M 25553M 25584M 25595M 25597
                                                 25641M 25659M 25681M 25682M 25682  25730M 25755M 25773M 25780M 25805M
                                                 25832M 25850M 25855M 25880M 25898M 25908M 25937M 25956M 25974M 26006M
                                                 26024M 26034M 26063M 26082M 26100M 26149M 26171M 26189M 26223M 26261M
                                                 26299M 26328M 26336M 26337M 26337  26358U 26449M 26473M 26490M 26517M
                                                 26534M 26561M 26578M 26614M 26646M 26679M 26700M 26728M 26762M 26788M
                                                 26817M 26878M 26903M 26921M 26946M 26956M 26966M 26980M 26995M 27020M
                                                 27078M 27084M 27099M 27124M 27152M 27180M 27284M 27314M 27342M 27360M
                                                 27370M 27395M 27420M 27442M 27480M 27505M 27535M 27560M 27578M 27635M
1FAIL     (FAIL2025) (12:44) (15MAR04) Ordinary Symbol and Literal Cross Reference                                          Page  108
                                                 27650M 27675M 27689M 27697M 27712M 27735M 27735  27741M 27756M 27777M
                                                 27777  27784M 27788M 27789M 27789  27810U 27838M 27858M 27858  27883M
                                                 27908M 27915M 27930M 27937M 27938M 28019M 28029U 28061M 28076M 28098M
                                                 28098  28110M 28125M 28146M 28146  28188M 28203M 28223M 28223  28250M
                                                 28265M 28285M 28285  28324M 28349M 28367M 28392M 28627  28628  28647M
                                                 28702M 28852M 28882M 28910M 28946M 28964M 29055M 29084M 29191M 29209M
                                                 29230M 29276M 29304M 29322M 29350M 29386M 29414M 29441M 29462M 29480M
                                                 29504M 29505M 29505  29531M 29574M 29595M 29613M 29654M 29692M 29730M
                                                 29768M 29806M 29844M 29883M 29907M 29925M 29964M 29992M 30015  30027M
                                                 30045M 30153M 30181M 30199M 30296M 30324M 30342M 30364M 30382M 30443M
                                                 30500M 30524M 30548M 30565M 30592M 30609M 30636M 30653M 30685M 30713M
                                                 30730M 30751M 30835M 30853M 30858M 30894M 30940M 30959M 30978M 30983M
                                                 30984M 30989  31001M 31018M 31039M 31056M 31080M 31115M 31210M 31356M
                                                 31370M 31388M 31410M 31428M 31437M 31481M 31567  31657M 31666M 31667M
                                                 31673  31688M 31786M 31811M 31829M 31891M 31923M 31953M 32015M 32033M
                                                 32066M 32086M 32130M 32139M 32210M 32228M 32261M 32281M 32317M 32335M
                                                 32361M 32390U 32465  32489M 32525M 32553M 32588M 32609M 32631M 32680M
                                                 32708M 32743M 32764M 32786M 32841M 32841  32879M 32882M 32884  32899M
                                                 32907U 32949M 32974M 32974  33198M 33199M 33201M 33202M 33214  33220
                                                 33329  33501M 33505M 33514M 33514  33521  33541  33937U
 R2            2 00000002 FFFFFFFF A   #     725 13656  13658  13658  13658  13695M 13704M 14026  14028  14028  14028
                                                 14050M 14320  14763M 14773U 15620M 15630U 16229M 16245U 16265  16294M
                                                 16311  16820M 16837  17498M 17498  17538M 17623  18090M 18106U 18126
                                                 18155M 18172  19145M 19255  19415M 19669  20298  20432M 20676M 20694
                                                 22195M 22205U 23660M 24358  24360  24360  24360  24412M 24422U 25398M
                                                 25417U 25671M 26743M 26744M 26744  26780  27816M 27850  27939M 27940M
                                                 27940  27941  27942M 27943  28035M 28044M 28045M 28045  28054M 28054
                                                 28090  28180M 28181M 28181  28215  28242M 28243M 28243  28277  28398M
                                                 28427  28609  28611  28611  28611  28627M 28696M 28697M 28702  29128
                                                 29130  29130  29130  30224M 30224  30264M 30352  30900M 30917  31275
                                                 31277  31277  31277  31321M 31321  31322M 31331M 31331  31524  31540
                                                 31698M 31699M 31720M 31720  31726M 31727M 31755M 31755  31761M 31896M
                                                 31976M 31990M 31990  32109M 32122  32151M 32185  32434  32436  32436
                                                 32436  32798M 32820  32822  32822  32822  32982M 33012  33014  33014
                                                 33014  33076M 33076  33145M 33163  33191  33314  33316  33316  33316
                                                 33420M 33421M 33422  33456  33684  33686  33686  33686  33724  33726
                                                 33726  33726
 R3            3 00000003 FFFFFFFF A   #     738 13696M 14301M 14325B 15393M 15567M 15634M 15665  15685  15728  17364M
                                                 17374U 17389  17395M 17494M 17516U 17531  17537M 17548  19147M 19237M
                                                 19260  20431M 20675M 20689  21783M 21793U 23617M 23627U 23844M 23854U
                                                 28156M 28166U 28628M 28629M 28642M 28647  30088M 30098U 30113  30119M
                                                 30220M 30242U 30257  30263M 30274  31291M 31292M 31312M 31312  31731M
                                                 31731  31763M 31763  31796  31865M 32108M 33078M 33078  33128M 33179M
                                                 33179  33191  33237  33403M 33429
 R4            4 00000004 FFFFFFFF A   #     751 13897M 13905U 13948M 15505M 15506M 15506  15524U 16736M 16737M 16737
                                                 16760U 17223M 17224M 17224  17264U 17331M 17345  17360U 17682M 18535U
                                                 18850  19009M 19010M 19011M 19023  19039  19039M 21293M 21334  21889M
                                                 21899U 22287M 22288M 22288  22403U 23251M 23261U 24156M 24157M 24157
                                                 24181U 25045M 25066  25081U 25090  25597M 26583M 26593U 27201M 27217U
                                                 27221M 27233  27240M 27241M 27609  29495M 29496M 29496  29504  29944M
                                                 29945M 29945  29986U 30055M 30069  30084U 30412M 30458M 30459M 30459
                                                 30482U 31293M 31455M 31585M 31598M 31598  31698  31726  31762M 31966M
                                                 32160M 33068M 33070M 33071M 33106  33198  33243M 33244M 33256  33262
                                                 33401M 33420  33495M 33495  33501  33572
 R5            5 00000005 FFFFFFFF A   #     764 13882M 13883M 13883  13897  14084M 14092U 14135M 15392M 15393  15401U
                                                 16044M 16044  16107M 16107  16113M 16129M 16129  16144U 16211  16433M
                                                 16434M 16446  16462  16462M 16532M 16542U 17407  17548  17946M 17946
                                                 17992M 17992  18007U 18074  18294M 18295M 18307  18323  18323M 18461M
                                                 18461  18507M 18507  18993M 18993  19008M 19039  20994M 21004U 22899M
1FAIL     (FAIL2025) (12:44) (15MAR04) Ordinary Symbol and Literal Cross Reference                                          Page  109
                                                 22909U 23582M 23726B 23809M 23919B 24140M 24150U 24988M 24998U 25004M
                                                 25005M 25005  25021U 25066  25688M 25706U 26364M 26390U 27186M 27196U
                                                 28781  28783  28783  28783  28796M 28804U 29089M 29098M 29143M 29151U
                                                 29634  30131  30274  31297M 31297  31398  31454M 31566M 31585  31859M
                                                 31859  32452M 32481  33055M 33056M 33056  33066U 33128  33145  33150M
                                                 33163M 33237M 33400M
 R6            6 00000006 FFFFFFFF A   #     777 14065M 14066M 14066  14084  14201U 14276M 14632M 14642U 19368M 19376U
                                                 20437M 20437  20475M 21648M 21656U 23571M 23579U 23798M 23806U 23985M
                                                 24037  24373M 24381U 28624M 28672  28727  31565M 31693M 31764M 31764
                                                 31865  31958M 32108  32152M 32454M 32463U 32466  32876M 33027M 33035U
                                                 33329M 33337U
 R7            7 00000007 FFFFFFFF A   #     790  2174M  2174   2175B  2187B 13537  15490
 R8            8 00000008 FFFFFFFF A   #     803 13656  13657M 13658  13658  13658  14026  14027M 14028  14028  14028
                                                 14627U 19364U 22566M 22668M 23606M 23833M 24358  24359M 24360  24360
                                                 24360  28609  28610M 28611  28611  28611  28781  28782M 28783  28783
                                                 28783  29098M 29128  29129M 29130  29130  29130  31275  31276M 31277
                                                 31277  31277  31524  31540  31541M 32434  32435M 32436  32436  32436
                                                 32798M 32820  32821M 32822  32822  32822  32982M 33012  33013M 33014
                                                 33014  33014  33314  33315M 33316  33316  33316  33684  33685M 33686
                                                 33686  33686  33724  33725M 33726  33726  33726
 SCANCHK       1 00000000 0000000F     T   17834 17834  21486
 SDSNQSZ       1 0000002C FFFFFFEC A   U    6162  6163   6164
 SDWA          1 00000000 FFFFFFE5     J    7129  8125   8868  21656U 22189  22515  22522M 22524M 22525M 22526M 23579U
                                                 23707  23714M 23806U 23900  23907M 24381U 25706U 26120U
 SDWAABCC      4 00000004 FFFFFFE5     B    7144 21850  21920  25855
 SDWAACF2      1 000000FD FFFFFFE5     B    7568 22525M
 SDWACLEN      8 000001C8 FFFFFFDD A   U    8128  8135   8136
 SDWACLUP      1 00000080 FFFFFFE5 A   U    7499 22235
 SDWACMPF      1 00000004 FFFFFFE5     B    7145 21844  22526M
 SDWADEND      8 000000F0 FFFFFFDD     D    8122  8132
 SDWADLEN      8 000000F0 FFFFFFDD A   U    8132  8133
 SDWAEEND      8 00000150 FFFFFFE1     D    8073  8134
 SDWAELEN      8 00000150 FFFFFFDD A   U    8134  8135   8136   8143
 SDWAEND       8 00000298 FFFFFFE5     D    7768  8125
 SDWAERRD      1 000000EB FFFFFFE5     B    7498 22237
 SDWAFREE      1 00000004 FFFFFFE5 A   U    7584 22525
 SDWAGRSV     64 00000018 FFFFFFE5     C    7201 26106
 SDWAIEND      8 00000010 FFFFFFE3     D    7995  8129
 SDWAILEN      8 00000010 FFFFFFDD A   U    8129  8135   8136
 SDWALEN       8 00000298 FFFFFFDD A   U    8125  8136
 SDWALEND      8 00000020 FFFFFFE2     D    8043  8130
 SDWALLEN      8 00000020 FFFFFFDD A   U    8130  8135   8136
 SDWAMLEN      8 00000600 FFFFFFDD A   U    8137  8140   8146
 SDWAMLNP      8 000005E0 FFFFFFDD A   U    8136  8137
 SDWANLNS      8 000001F0 FFFFFFDD A   U    8133  8140   8148
 SDWANOPR      1 00000000 FFFFFFDD A   U    8151 22518B 23710B 23903B
 SDWANRC1      1 00000000 FFFFFFDF     J    8097  8127
 SDWANRC2      1 00000000 FFFFFFDE     J    8106  8131
 SDWANRC3      1 00000000 FFFFFFDD     J    8119  8132
 SDWANXT1      4 0000006C FFFFFFE5     F    7271 24881  24910  25908
 SDWANXT2      4 0000007C FFFFFFE5     F    7332 21933  24881  26034
 SDWAPEND      8 00000020 FFFFFFE0     D    8091  8126
 SDWAPLEN      8 00000020 FFFFFFDD A   U    8126  8137
 SDWAPTRS      1 00000000 FFFFFFE0     J    8082  8126
 SDWARCDE      1 000000FC FFFFFFE5     B    7562 22522M 23714M 23907M
 SDWARC1       1 00000000 FFFFFFE4     J    7770  8128
 SDWARC2       1 00000000 FFFFFFE3     J    7989  8129
 SDWARC3       1 00000000 FFFFFFE2     J    8001  8130
 SDWARC4       1 00000000 FFFFFFE1     J    8051  8134
1FAIL     (FAIL2025) (12:44) (15MAR04) Ordinary Symbol and Literal Cross Reference                                          Page  110
 SDWAREND      8 000000F0 FFFFFFDF     D    8099  8127
 SDWAREQ       1 00000080 FFFFFFE5 A   U    7146 21842  22526
 SDWARLEN      8 000000F0 FFFFFFDD A   U    8127  8133
 SDWARTYA      4 000000F0 FFFFFFE5     A    7547 22524M
 SDWASEN       8 00000010 FFFFFFDE     D    8112  8131
 SDWASEND      8 000001C8 FFFFFFE4     D    7983  8128
 SDWASLEN      8 00000710 FFFFFFDD A   U    8146  8148
 SDWASPL       8 00000010 FFFFFFDD A   U    8131  8133
 SDWASRSV     64 00000088 FFFFFFE5     C    7355 21934  25980
 SDWATLEN      8 000007F0 FFFFFFDD A   U    8140  8143
 SDWATRAN      4 00000074 FFFFFFE5     A    7291  7293
 SEG           1 00000000 00000002     T   14339 14339  15947  17835  21487  24292  28507  33771
 SEGB          1 00000000 00000026     T   24290 24290
 SEGCB        60 00000000 FFFFFFE6     J    6877 14642U 33337U
 SEGCBCOD      1 00000000 FFFFFFE6     R    6788  6797   6807   6817   6827   6837   6847   6857
 SEGCBCR       6 00000000 FFFFFFE6         6847 14660  33351  33582
 SEGCBLENF
               4 0000000C FFFFFFE6     A    6863 15012  15275  33602M
 SEGCBLOC      4 00000020 FFFFFFE6     A    6867 15007  15270
 SEGCBMRKF
               4 00000008 FFFFFFE6     A    6862 33597M
 SEGCBOVF      5 00000000 FFFFFFE6         6837 33375
 SEGCBSPP      4 00000000 FFFFFFE6         6827 33621
 SEGCBWR       2 00000000 FFFFFFE6         6807 14672  33363
 SEGCDONE      2 00004154 00000001     H   32349 32295B
 SEGCLR        1 00000000 00000008     T   15955 15955  24289  28500
 SEGCOL        1 00000000 0000003D     T   28538 28538  33773
 SEGCR         1 00000000 0000001D     T   21508 21508  24309  28513  33774
 SEGDC         1 00000000 00000005     T   15948 15948  17836  21488  28523  33775
 SEGHX         1 00000000 0000001E     T   21509 21509  28517  33770
 SEGINIT       1 00000000 00000004     T   15946 15946
 SEGMARK       1 00000000 00000042     T   33786 33786
 SEGT          1 00000000 00000007     T   15951 15951  17847  21514  24311  28509  33772
 SEGTB         1 00000000 00000006     T   15950 15950  24291  28508
 SEGTRTBL     16 000044CF 00000001     X   33660 32043  32238  33548
 SEGWR         1 00000000 00000003     T   14340 14340  17848  24298  28529  33783
 SETRSG        1 00000000 00000044     T   33969 33969
 SHJCBLNO      2 00000FC8 00000001     H   18258 18222
 SHJCBPRT      4 00000F50 00000001     F   18210 21484
 SHOWJCB       2 00000E46 00000001     H   17884 17880
 SHOWSYM       2 000018B6 00000001     H   20849 20845
 SHOWVERS      2 00001882 00000001     H   20759 20755
 SHOWWLIN      4 0000080C 00000001     I   15999 15998
 SHOWWLNS      2 00000810 00000001     H   16006 16002
 SHUTDOWN      2 000025B8 00000001     H   23950 23946  24302
 SHWLINP       4 0000091C 00000001     F   16349 17832
 SHWLLNO       2 00000994 00000001     H   16397 16361
 SIRBEND       4 000000E8 FFFFFFCC     F   13254 13316
 SORTED      128 0000029E 00000001        13634 13896M 13943M 13986  14083M 14130M 14173
 SPR          13 0000000D 00000001 A   #    1105 14592  14595  14597  14598M 14598  15350M 15354  15356  16012  16015
                                                 16016  16017M 16017  16336M 16340  16342  16403  16406  16407  16408M
                                                 16408  16473M 16477  16479  16501  16504  16505  16506M 16506  17811M
                                                 17815  17817  17890  17893  17894  17895M 17895  18197M 18201  18203
                                                 18264  18267  18268  18269M 18269  18334M 18338  18340  18360  18363
                                                 18364  18365M 18365  18401  18404  18405  18406M 18406  18953  18956
                                                 18957  18958M 18958  19057M 19061  19063  19084  19087  19088  19089M
                                                 19089  19329  19332  19334  19335M 19335  19901M 19905  19907  20001
                                                 20004  20005  20006M 20006  20046M 20050  20052  20068  20071  20072
                                                 20073M 20073  20198M 20202  20204  20341  20344  20345  20346M 20346
1FAIL     (FAIL2025) (12:44) (15MAR04) Ordinary Symbol and Literal Cross Reference                                          Page  111
                                                 20738M 20742  20744  20765  20768  20769  20770M 20770  20829M 20833
                                                 20835  20855  20858  20859  20860M 20860  21464M 21468  21470  23956
                                                 23959  23960  23961M 23961  24064  24067  24068  24069M 24069  24255M
                                                 24259  24261
 STAECPX       4 000028C4 00000001     A   21560 21772M 22723
 STAEFLAG      1 000028BE 00000001     R   21549 21553
 STAEFTRC    128 000028BE 00000001        21553 21675M 21697M 22699
 STAEKEY       1 000028BF 00000001     X   21557 21802M 23636M 23863M
 STAEPTR       4 000028C0 00000001     A   21559 21659M
 STAERTN       4 000028CC 00000001     A   21562 21660M 22534  24321
 STAERTRY      2 00001EFA 00000001     I   22653 22523
 STAESTKP      4 000028C8 00000001     A   21561 21721  21733M 22739M 22739  22760  22764  22776M 22776  28544
 STAETERM      4 00001EAC 00000001     I   22541 21871B 22240B 22258B 22276B 22320B 22477B
 STATSTOP      1 00000000 00000032     T   24322 24322
 SUBRSG        1 00000000 00000048     T   33976 33976
 SVRBEND       4 00000110 FFFFFFCC     F   13263 13320
 SYMADDR       3 00000001 FFFFFFC7     R   13584 13924  13924  14111  14111  14218M 14218  20475  21102  21272  28836
                                                 28964  33106
 SYMBOL       16 00000000 FFFFFFC7     J   13597 13905U 13924  13934  13934M 13935  13935  13936  13936M 14092U 14111
                                                 14121  14121M 14122  14122  14123  14123M 14201U 20463U 21004U 28804U
                                                 32907U 33066U
 SYMBOLS       4 00004968 00000001     F   33965 14337  33769  33963
 SYMDISP       4 000037BC 00000001     I   28779 21513  28540
 SYMFCSCT    128 00000000 FFFFFFC7        13581 21017  21083  28924  33121
 SYMFEND     255 00000000 FFFFFFC7        13576 13963  14150  28820  32923  32964  33092
 SYMFLGS       1 00000000 FFFFFFC7     R   13567 13576  13581  13585
 SYMINIT       4 000001B0 00000001     I   14024 14023
 SYMINITA      2 00000260 00000001     H   14300 14052B
 SYMLEN        2 00000004 FFFFFFC7     Y   13586 21293  21305  33214  33256
 SYMLOC        4 00000000 FFFFFFC7     F   13585 33199  33243
 SYMNAME       8 00000008 FFFFFFC7     C   13588 14224  21056  21061  28897  28902  32940  33221  33263
 SYMNEXT       1 00000010 FFFFFFC7     U   13590 13924  13934  13935M 13936  13948  14111  14121  14122M 14123  14135
                                                 14276  29089  32949  33150
 SYSPRINT      4 000048FC 00000001     F   33887 23689  24319  24436  28423  28502  33798
 S99NOMNT      1 00000020 FFFFFFDA A   U    9114 33848  33869
 S99VRBAL      1 00000001 FFFFFFDA A   U    9098 33847
 S99VRBUN      1 00000002 FFFFFFDA A   U    9099 33868
 TBLSTACK      4 00002298 00000001     F   23936 23605  23832
 TCB           1 00000020 FFFFFFCE     U   11860 12559  21793U 23627U 23854U 25021U
 TCBAE         4 000000BC FFFFFFCE     A   12104 12107
 TCBDARPN      1 00000040 FFFFFFCE A   U   12150 12152
 TCBDARTN      1 00000080 FFFFFFCE A   U   12147 12149
 TCBFIX        1 00000000 FFFFFFCE     J   11848 11855
 TCBMNLEN      1 00000158 FFFFFFCE A   U   12559 12604
 TCBPKF        1 0000003C FFFFFFCE     B   11910 21804  23638  23865
 TCBPXLEN      1 00000020 FFFFFFCE A   U   11855 12604
 TCBRBP        4 00000020 FFFFFFCE     A   11862 25023
 TCBRD         4 000000B8 FFFFFFCE     A   12099 12103
 TCBXTNT2      1 00000000 FFFFFFCD     J   12564 12602
 TCBX2LEN      1 00000020 FFFFFFCD A   U   12602 12604
 TCORE         4 00003EE2 00000001     I   31538 21497  28542
 TCOREWA      36 00000000 FFFFFFC3     J   31533 31542  31562U
 TCOROFFS      4 00000020 FFFFFFC3     F   31526 31567M 31667
 TIMRSTOP      1 00000000 00000033     T   24323 24323
 TIRBEND       4 000000A8 FFFFFFCC     F   13192 13317
 TLOC          4 00004186 00000001     I   32432 21516  24293  28515  32431  33787
 TP           16 00000000 FFFFFFC9     J   13499 15401U
 TPEND         1 0000000C FFFFFFC9     U   13487 15403
 TPENDK        1 00000010 FFFFFFC9     U   13492 15423
1FAIL     (FAIL2025) (12:44) (15MAR04) Ordinary Symbol and Literal Cross Reference                                          Page  112
 TPFDATA     128 00000000 FFFFFFC9        13458 15695
 TPFDUMP      32 00000000 FFFFFFC9        13468 15871
 TPFKAPUT     64 00000000 FFFFFFC9        13463 15415  15415  15416  15721  15788
 TPFLGS        1 00000000 FFFFFFC9     R   13454 13458  13463  13468  13473  13478
 TPFMSG       16 00000000 FFFFFFC9        13473 15415  15415  15823
 TPFNREST      8 00000000 FFFFFFC9        13478 15892
 TPMSGADR      4 0000000C FFFFFFC9     A   13491 15840
 TPMSGLEN      1 0000000C FFFFFFC9     U   13490 15849
 TPNAME        8 00000004 FFFFFFC9     C   13486 15541  15555  15614  15912
 TPRGMSK       2 00000002 FFFFFFC9     H   13484 15542
 TRAPTRC       1 00000000 00000009     T   15956 15956
 TRC           2 00000540 00000001     I   15372 15369
 TRC           1 00000000 00000000 A   T    2203  2203
 TRCAREA       4 000007A4 00000001     F   15979 21899U 22205U 23261U 24287  27196U 28166U 28537
 TRCEND        4 000007AC 00000001     A   15982 13698M 15754  27240
 TRCNEXT       4 000007A4 00000001     A   15980 13694M 15505  15766M 27201  27609
 TRCSTRT       4 000007A8 00000001     A   15981 13693M 15761  27233
 TRCTDASH     46 0000346C 00000001     U   28485 27167  27172
 TRCTIDS       1 0000346C 00000001     C   28484 28485  28485
 TRCTITLE     46 0000343E 00000001     C   28483 27139  27144  28484
 TRE          88 00000000 FFFFFFC8     J   13552 14342  15524U 15534M 15534  27217U 27269  28562
 TREAD         1 00000000 0000002E     T   24314 24314
 TREADDR       4 0000003C FFFFFFC8     U   13536 15685M 27370
 TREDATA       8 00000050 FFFFFFC8     D   13543 15707M 27490  27545
 TREENTR       4 00000028 FFFFFFC8     U   13537 13538  15567  15587
 TREFDATA     32 00000008 FFFFFFC8        13528 15706M 27461
 TREFDEF     128 00000008 FFFFFFC8        13518 15540M 27255
 TREFENTR     64 00000008 FFFFFFC8        13523 15566M 27409
 TREFLGS       1 00000008 FFFFFFC8     R   13514 13518  13523  13528
 TRELAT        1 00000028 FFFFFFC8     X   13538 15578
 TRENAME       8 00000000 FFFFFFC8     C   13511 15541M 15589M 15636M 15639M 15640M 15655  15727  27329  27334
 TRENEXT       1 00000058 FFFFFFC8     U   13545 15742
 TREREGS       4 0000000C FFFFFFC8     F   13535 13536  13537  15543M 15620  15635M 15674  15729  27420  27589
 TRERGMSK      2 0000000A FFFFFFC8     H   13534 15542M 15736M 15736  27587
 TSTAT         1 00000000 00000010     T   17838 17838  21490
 TTYFLAG       1 00000004 FFFFFFEA     R    6291  6295
 TTYMAX#       1 00000006 FFFFFFEA A   U    6347  6348
 TTYTFLAG      1 00000005 FFFFFFEA     R    6301  6305   6310   6315   6320   6325   6330   6335
 UPPTBL        1 00000000 00000000 A   T    2266  2266
 USEHSPFL      1 00000004 FFFFFFCF     X   11621 24219M
 USERCVT     863 00000000 FFFFFFCF     J   11693 24181U 24196
 VERSION       1 00000000 0000001F     T   21512 21512  28514
 VRADAT        1 00000002 FFFFFFDC     G    8281  8285
 VRAKL         2 00000000 FFFFFFDC     G    8273  8285
 VTAMSTOP      1 00000000 00000036     T   24326 24326
 WAR           8 00000008 00000001 A   #    1028 14597M 15350  16016M 16336  16407M 16462  16473  16505M 17811  17894M
                                                 18197  18268M 18323  18334  18364M 18405M 18957M 19039  19057  19088M
                                                 19334M 19901  20005M 20046  20072M 20198  20345M 20738  20769M 20829
                                                 20859M 21464  23960M 24068M 24255  31562U
 WEXEXIT       4 00001870 00000001     I   20720 20613B
 WEXPR         2 000016C4 00000001     H   20335 21494
 WLINDISP      2 000009D8 00000001     H   16495 17837
 WLINEXIT      2 00000D2A 00000001     H   17798 16558B
 WPC           2 0000132A 00000001     H   19322 19318
 WSC           2 0000126A 00000001     H   19078 19074
 WSTART        2 0000102A 00000001     H   18395 18391
 WSTJCBN       2 00001218 00000001     H   18947 18910
 WSTOP         2 0000100C 00000001     H   18354 18350
 WSTPRT        4 000011A0 00000001     F   18898 21491
1FAIL     (FAIL2025) (12:44) (15MAR04) Ordinary Symbol and Literal Cross Reference                                          Page  113
 WTOSG        60 000002A0 00000001     X   14448 14360
 WTOSG         1 00000000 00000000 A   T    2163  2163
 WTOSGBUF     80 000002DC 00000001     C   14450 14438  14444
 WTOSGCOD      1 000002A0 00000001     R   14365 14374  14384  14394  14404  14414  14424  14434
 WYLACCT       1 00000000 00000061     T   34012 34012
 WYLACMD       1 00000000 00000062     T   34013 34013
 WYLACT        1 00000000 00000053     T   33992 33992
 WYLCHAZ       1 00000000 0000006C     T   34029 34029
 WYLCOMM       1 00000000 00000078     T   34048 34048
 WYLCR         1 00000000 0000004B     T   33980 33980
 WYLCRYPT      1 00000000 0000006E     T   34032 34032
 WYLDBUG       1 00000000 0000006F     T   34034 34034
 WYLDIR        1 00000000 0000007E     T   34058 34058
 WYLDISK       1 00000000 00000052     T   33991 33991
 WYLDISP       1 00000000 0000004E     T   33984 33984
 WYLDOPT       1 00000000 00000058     T   33999 33999
 WYLDYNA       1 00000000 0000008C     T   34081 34081
 WYLEDIT       1 00000000 00000060     T   34010 34010
 WYLEVAL       1 00000000 0000005A     T   34002 34002
 WYLEXEC       1 00000000 00000059     T   34001 34001
 WYLEXT        1 00000000 00000083     T   34068 34068
 WYLFAIL       1 00000000 00000001     J     992   994   1010   1023   1036   1048   1061   1074   1087   1100   1113
                                                  1126   2447   2531   6271   6383   6445   6492   6772   6878  13413
                                                 13440  13500  13553  13598  13621  13625  13641
 WYLFAIL       1 00000000 0000006B     T   34027 34027
 WYLFILE       1 00000000 0000007D     T   34057 34057
 WYLFLOW       1 00000000 0000005C     T   34005 34005
 WYLFUNC       1 00000000 00000071     T   34037 34037
 WYLGLOB       1 00000000 0000004D     T   33983 33983
 WYLHELP       1 00000000 0000007C     T   34055 34055
 WYLINIT       1 00000000 00000088     T   34075 34075
 WYLITEST      1 00000000 0000006D     T   34031 34031
 WYLJES        1 00000000 00000055     T   33995 33995
 WYLKEYS       1 00000000 00000081     T   34064 34064
 WYLKWWR       1 00000000 0000004C     T   33981 33981
 WYLLINE       1 00000000 00000064     T   34017 34017
 WYLLOCL       1 00000000 0000008D     T   34082 34082
 WYLMAIL       1 00000000 00000086     T   34072 34072
 WYLMICRO      1 00000000 00000082     T   34066 34066
 WYLMODE       1 00000000 00000065     T   34018 34018
 WYLNET        1 00000000 0000007A     T   34051 34051
 WYLNEWS       1 00000000 00000085     T   34071 34071
 WYLNFILE      1 00000000 00000077     T   34046 34046
 WYLNPAT       1 00000000 0000007B     T   34053 34053
 WYLOPT        1 00000000 00000057     T   33998 33998
 WYLORV        1 00000000 0000004A     T   33979 33979
 WYLOSCN       1 00000000 0000005F     T   34009 34009
 WYLPAGE       1 00000000 00000066     T   34020 34020
 WYLPATH       1 00000000 00000074     T   34041 34041
 WYLPROC       1 00000000 00000073     T   34039 34039
 WYLPROT       1 00000000 00000068     T   34023 34023
 WYLQUERY      1 00000000 00000050     T   33987 33987
 WYLRECS       1 00000000 0000005D     T   34006 34006
 WYLRJE        1 00000000 00000056     T   33997 33997
 WYLSAM        1 00000000 00000084     T   34069 34069
 WYLSCAN       1 00000000 0000005E     T   34008 34008
 WYLSIGN       1 00000000 00000051     T   33989 33989
 WYLSPELL      1 00000000 00000063     T   34015 34015
 WYLSTAT       1 00000000 0000004F     T   33985 33985
1FAIL     (FAIL2025) (12:44) (15MAR04) Ordinary Symbol and Literal Cross Reference                                          Page  114
 WYLSYSV       1 00000000 00000072     T   34038 34038
 WYLTAPE       1 00000000 00000069     T   34024 34024
 WYLTERM       1 00000000 00000089     T   34077 34077
 WYLTEST       1 00000000 0000006A     T   34026 34026
 WYLTEXT       1 00000000 00000087     T   34074 34074
 WYLTINT       1 00000000 0000008A     T   34078 34078
 WYLTOPS       1 00000000 0000008B     T   34079 34079
 WYLUFS        1 00000000 00000076     T   34044 34044
 WYLUTIL       1 00000000 00000054     T   33994 33994
 WYLVARS       1 00000000 0000005B     T   34003 34003
 WYLVETS       1 00000000 0000007F     T   34060 34060
 WYLVIEW       1 00000000 00000067     T   34021 34021
 WYLVPO        1 00000000 00000080     T   34062 34062
 WYLWBUG       1 00000000 00000070     T   34035 34035
 WYLWGS        1 00000000 00000075     T   34043 34043
 WYLXCALL      1 00000000 00000079     T   34049 34049
 XTB           1 00000000 00000017     T   21495 21495
 XWTOACCT      5 00000043 FFFFFFC5     C   14567 15296M
 XWTOHDR       2 00000044 FFFFFFC5     H   14562 15141M 15144
 XWTOMCS       2 00000046 FFFFFFC5     H   14563 15142M
 XWTOPAD       4 00000040 FFFFFFC5     F   14561 14564
 XWTOPARM      1 00000042 FFFFFFC5     X   14566 14568  14568  15295M 15309
 XWTOPFX       6 00000042 FFFFFFC5     X   14568 15297
 XWTORTN       2 0000032C 00000001     H   14585 14445
 XWTOS        60 00000000 FFFFFFC5     X   14556 14711  14758  14794  14811  14846  14863  14890  14907  14940  14968
                                                 14985  15020  15134  15195  15212  15240  15257  15283
 XWTOSBUF    120 00000048 FFFFFFC5     C   14570 14698  14703
 XWTOSCOD      1 00000000 FFFFFFC5     R   14473 14482  14492  14502  14512  14522  14532  14542
 XWTOSLENF
               4 0000000C FFFFFFC5     A   14548 15140  15298
 XWTOWA      192 00000000 FFFFFFC5     J   14577 14598  14627U 15354  15356  15357
 XWTOWORK      4 0000003C FFFFFFC5     F   14558 15026M 15044M 15065M 15081  15103M 15121  15126
 YESREQ        1 00000000 0000001C     T   21506 21506
 =A(ABENDCD)
               4 00002708 00000001     A   24288 21924
 =A(ABENDCD)
               4 0000355C 00000001     A   28530 25859
 =A(ALLOSYSP)
               4 000034C4 00000001     A   28498 24390
 =A(B'1111111111110111')
               4 00003598 00000001     A   28539 27588
 =A(B'1111111111111111')
               4 00004744 00000001     A   33784 31122
 =A(CLEANUP)
               4 000027B8 00000001     A   24320 23890
 =A(CPIOWAP-CP)
               4 000035B4 00000001     A   28546 28044
 =A(CVDFMAX#)
               4 0000272C 00000001     A   24297 22317
 =A(DUMPREGS)
               4 00002780 00000001     A   24312 23365
 =A(DUMPREGS)
               4 0000353C 00000001     A   28524 25562  25668  25983  26109  27592
 =A(DUMPREGS)
               4 00004748 00000001     A   33785 31125
 =A(FINDLOC)
               4 00004778 00000001     A   33795 32469
 =A(FINDSYM)
               4 00000298 00000001     A   14341 14311
1FAIL     (FAIL2025) (12:44) (15MAR04) Ordinary Symbol and Literal Cross Reference                                          Page  115
 =A(FINDSYM)
               4 00001B34 00000001     A   21510 20447  20987
 =A(FMTDUMP)
               4 00002728 00000001     A   24296 22192
 =A(FREESYSP)
               4 000034C0 00000001     A   28497 24386  28461
 =A(JCBDISP)
               4 00001AC0 00000001     A   21489 18077  18129
 =A(JCBDISP)
               4 0000358C 00000001     A   28536 27035
 =A(JCBFMAX#)
               4 00002738 00000001     A   24300 22425
 =A(KAPREGS)
               4 0000354C 00000001     A   28526 25665  27939
 =A(L'CVFINFO)
               4 00002724 00000001     A   24295 22109  22121
 =A(L'PATTEXT)
               4 00001B10 00000001     A   21501 19547  19559
 =A(L'PATVTXT)
               4 00001B28 00000001     A   21507 20170  20182
 =A(PATBAD)
               4 00001B18 00000001     A   21503 19604
 =A(PATPRT)
               4 00001B14 00000001     A   21502 19583
 =A(PRTCC)
               4 000034E0 00000001     A   28505 24471  26980  27084  27635  27689  27697  27741  27784  27915  28061
                                                 28110  28188  28250
 =A(PRTSEG)
               4 000034C8 00000001     A   28499 24393
 =A(SHJCBPRT)
               4 00001AAC 00000001     A   21484 17964
 =A(SHUTDOWN)
               4 00002740 00000001     A   24302 22627
 =A(SHWLINP)
               4 00000D48 00000001     A   17832 16062
 =A(STAERTN)
               4 000027BC 00000001     A   24321 24009
 =A(STAESTKP)
               4 000035AC 00000001     A   28544 27935
 =A(SYMBOLS)
               4 00000288 00000001     A   14337 13882  14065
 =A(SYMBOLS)
               4 000046F0 00000001     A   33769 28796  32899  33055
 =A(SYMDISP)
               4 00001B40 00000001     A   21513 20968
 =A(SYMDISP)
               4 0000359C 00000001     A   28540 27682
 =A(SYSPRINT)
               4 000027B4 00000001     A   24319 23660
 =A(SYSPRINT)
               4 000034D4 00000001     A   28502 24412  28398
 =A(SYSPRINT)
               4 00004784 00000001     A   33798 33403
 =A(TCORE)
               4 00001AF0 00000001     A   21497 19268
 =A(TCORE)
               4 000035A4 00000001     A   28542 27738  27780  27861  28016  28102  28149  28227  28289
 =A(TLOC)      4 00001B4C 00000001     A   21516 21415
 =A(TLOC)      4 0000271C 00000001     A   24293 22040
1FAIL     (FAIL2025) (12:44) (15MAR04) Ordinary Symbol and Literal Cross Reference                                          Page  116
 =A(TLOC)      4 00003510 00000001     A   28515 24917  25248  25504  25915  26041  27377  27427
 =A(TLOC)      4 00004750 00000001     A   33787 31444  32149
 =A(TRCAREA)
               4 00002704 00000001     A   24287 21889  22195  23251
 =A(TRCAREA)
               4 00003590 00000001     A   28537 27186  28156
 =A(WEXPR)
               4 00001AE4 00000001     A   21494 19143  19413
 =A(WLINDISP)
               4 00000D5C 00000001     A   17837 16214  16268
 =A(WSTPRT)
               4 00001AC8 00000001     A   21491 18479
 =A(X'FFF')
               4 000037B0 00000001     A   28765 28696
 =A(X'FFF000')
               4 000026F8 00000001     A   24284 21851
 =A(X'FFF000')
               4 000037A8 00000001     A   28763 28629
 =A(X'122000')
               4 000026FC 00000001     A   24285 21862
 =A(X'40000000')
               4 00000770 00000001     A   15960 15899
 =A(X'80000000'+BADCRS)
               4 00004774 00000001     A   33794 32409
 =A(X'80000000')
               4 0000076C 00000001     A   15959 15878
 =A(1)         4 00000D74 00000001     A   17843 16814
 =A(1)         4 00001B38 00000001     A   21511 20534
 =A(1)         4 00004738 00000001     A   33781 30894
 =A(10000)
               4 000037B4 00000001     A   28766 28697
 =A(12)        4 000026E0 00000001     A   24278 21600  23547  23774
 =A(132)       4 00004780 00000001     A   33797 33383  33395
 =A(384/2)
               4 00000D70 00000001     A   17842 16805
 =A(384/2)
               4 00004734 00000001     A   33780 30885
 =A(4)         4 00001B1C 00000001     A   21504 19682  19694
 =A(6)         4 0000273C 00000001     A   24301 22456
 =A(64*1024)
               4 000035A8 00000001     A   28543 27773
 =A(8+22*4)
               4 00004764 00000001     A   33792 32185
 =A(8)         4 0000477C 00000001     A   33796 32866
 =AL2(CPXSIZE)
               2 0000363E 00000001     R   28563 27854
 =AL2(CVPSZ)
               2 0000364E 00000001     R   28565 28219  28281
 =AL2(JCBFMAX#)
               2 000027E0 00000001     R   24330 23074
 =AL2(L'JCB)
               2 00000DB0 00000001     R   17851 16432
 =AL2(L'JCB)
               2 00001B64 00000001     R   21519 18293  19010
 =AL2(L'TRE)
               2 0000029C 00000001     R   14342 13688
 =AL2(L'TRE)
               2 0000363C 00000001     R   28562 27221  27241
 =AL2(1)       2 00004796 00000001     R   33802 29367
1FAIL     (FAIL2025) (12:44) (15MAR04) Ordinary Symbol and Literal Cross Reference                                          Page  117
 =AL2(30*1024)
               2 00001BAA 00000001     R   21526 21305
 =C'       Regs:  '
              14 000035C6 00000001     C   28553 25544
 =C'    '      4 00003560 00000001     C   28531 25965  26091
 =C'   EMPTY Queue'
              14 0000362E 00000001     C   28561 26964
 =C'  Account: '
              11 00004834 00000001     C   33828 30556
 =C'  BUFFER Queue'
              14 00003620 00000001     C   28560 26954
 =C'  CP at '
               8 00004640 00000001     C   33765 30491
 =C'  CPU='
               6 00000DB2 00000001     C   17852 16769
 =C'  CPU='
               6 000047E8 00000001     C   33811 30844
 =C'  Regs: '
               8 00004648 00000001     C   33766 31106
 =C' ('        2 00000DD2 00000001     C   17856 17419  17713
 =C' ('        2 00001BA6 00000001     C   21524 21174
 =C' ('        2 000035BE 00000001     C   28549 24592
 =C' ('        2 00004798 00000001     C   33803 29565  30144  31009  32516  32671
 =C' (unadjusted)'
              13 00000DEE 00000001     C   17861 16870
 =C' (unadjusted)'
              13 00004843 00000001     C   33831 30950
 =C' (Attn disabled)'
              16 00000D38 00000001     C   17831 17084
 =C' (Attn disabled)'
              16 00004630 00000001     C   33764 29721
 =C' (Attn)'
               7 00000E1E 00000001     C   17865 17047
 =C' (Attn)'
               7 00004817 00000001     C   33825 29683
 =C' (Current)'
              10 0000479A 00000001     C   33804 29645
 =C' (Logging off)'
              14 00000DBA 00000001     C   17854 17158
 =C' (Logging off)'
              14 000047A4 00000001     C   33805 29797
 =C' (Pages='
               8 00004628 00000001     C   33763 29432
 =C' (Pending Attn)'
              15 00000E25 00000001     C   17866 17121
 =C' (Pending Attn)'
              15 0000481E 00000001     C   33826 29759
 =C' (Running exec at line '
              23 00000E06 00000001     C   17863 16946
 =C' (Stopped)'
              10 00000DC8 00000001     C   17855 17195
 =C' (Stopped)'
              10 000047B2 00000001     C   33806 29835
 =C' (View)'
               7 00004805 00000001     C   33823 29522
 =C' (Wait flags: '
              14 000047BC 00000001     C   33807 29874
 =C' (Waiting for '
              14 00000DD4 00000001     C   17857 17560
1FAIL     (FAIL2025) (12:44) (15MAR04) Ordinary Symbol and Literal Cross Reference                                          Page  118
 =C' (Waiting for '
              14 000047CA 00000001     C   33808 30287
 =C' (Will release line '
              20 00000D80 00000001     C   17846 17233
 =C' (Will release line '
              20 0000470C 00000001     C   33776 29955
 =C' -- '      4 00002720 00000001     C   24294 22062
 =C' -- in init'
              11 00003690 00000001     C   28571 26214
 =C' -- pseudo user'
              15 0000369B 00000001     C   28572 26290
 =C' -- running recovery'
              20 00003564 00000001     C   28532 26252
 =C' '         1 00000797 00000001     C   15969 14802
 =C' at '      4 00001B48 00000001     C   21515 21248
 =C' at '      4 00003530 00000001     C   28521 25222  25889  27351
 =C' exec)'
               6 000047F0 00000001     C   33813 31047
 =C' failsofts)'
              11 00000E3B 00000001     C   17868 17750
 =C' failsofts)'
              11 0000480C 00000001     C   33824 29604
 =C' is a bad address.'
              18 00001B8E 00000001     C   21522 20320
 =C' is already stopped.'
              20 00001ACC 00000001     C   21492 18642
 =C' is not currently stopped.'
              26 00001B66 00000001     C   21520 18685
 =C' is not logged on.'
              18 00000D9E 00000001     C   17850 16204
 =C' is not logged on.'
              18 00001B52 00000001     C   21518 18067  18599
 =C' on '      4 000034FC 00000001     C   28510 24660
 =C' owned)'
               7 00000E34 00000001     C   17867 17464
 =C' owned)'
               7 0000482D 00000001     C   33827 30190
 =C' users logged on'
              16 000034A8 00000001     C   28495 26180
 =C' will be '
               9 00001BD4 00000001     C   21531 18697
 =C' BYTES OF 00000000 0000s ... '
              29 00004863 00000001     C   33835 31820
 =C' Command: '
              10 000047DE 00000001     C   33810 30742
 =C' EXEC (line '
              12 00004720 00000001     C   33777 30676
 =C' Line '
               6 00004790 00000001     C   33801 29200
 =C'.'         1 00000798 00000001     C   15970 14854
 =C'.'         1 00000DED 00000001     C   17860 16679
 =C'.'         1 000036BC 00000001     C   28575 26525
 =C'.'         1 00004802 00000001     C   33820 29313  30600
 =C'+0'        2 00004800 00000001     C   33819 32579  32734
 =C'*** '      4 00000744 00000001     C   15949 14931  14976
 =C'*'         1 00004880 00000001     C   33836 32024  32077  32219  32272
 =C')'         1 00000E1D 00000001     C   17864 16991  17312  17643
 =C')'         1 00001BF4 00000001     C   21535 21226
 =C')'         1 0000365E 00000001     C   28567 24638
1FAIL     (FAIL2025) (12:44) (15MAR04) Ordinary Symbol and Literal Cross Reference                                          Page  119
 =C')'         1 00004804 00000001     C   33822 29471  29916  30036  30373  30721  32622  32777
 =C', '        2 000035C2 00000001     C   28551 25254  25336  27433  27569
 =C', '        2 000047F6 00000001     C   33814 31448
 =C', entry at '
              11 00003670 00000001     C   28569 25473
 =C', length 0'
              10 00001BAC 00000001     C   21527 21315
 =C', line '
               7 000036BD 00000001     C   28576 26569
 =C', pos '
               6 00000DE2 00000001     C   17858 17605
 =C', pos '
               6 000047D8 00000001     C   33809 30333
 =C', typed commands='
              17 00004850 00000001     C   33832 30969
 =C', Commands='
              11 00000DFB 00000001     C   17862 16889
 =C','         1 0000483F 00000001     C   33829 30644
 =C': '        2 00000774 00000001     C   15961 14898  15248
 =C': invalid hex digits'
              20 00001AFC 00000001     C   21500 19534  20157
 =C'#'         1 00004803 00000001     C   33821 29377
 =C'='         1 00004862 00000001     C   33834 31419
 =C'again.'
               6 00002814 00000001     C   24332 23102
 =C'at '       3 00002821 00000001     C   24335 22014
 =C'information describing it has been logged.  This '
              49 00002852 00000001     C   24338 23011
 =C'started.'
               8 00001AA0 00000001     C   21482 18735
 =C'stopped.'
               8 00001A98 00000001     C   21481 18713
 =C'this command; diagnostic'
              24 000026C0 00000001     C   24276 22993
 =C'was a programming error; it'
              27 00002883 00000001     C   24339 23029
 =C'was not your fault.  '
              21 0000289E 00000001     C   24340 23047
 =C'Abend '
               6 000035D6 00000001     C   28555 25841
 =C'Abend in SVC, at '
              17 0000365F 00000001     C   28568 24891  26015
 =C'Abend'
               5 0000281C 00000001     C   24334 21919
 =C'Active RB''s:'
              12 00003514 00000001     C   28516 24974
 =C'Active Users:'
              13 000036CD 00000001     C   28578 26986
 =C'An error occurred in WYLBUR while processing '
              45 00002825 00000001     C   24337 22975
 =C'Bad address.'
              12 00004768 00000001     C   33793 32326
 =C'Ciao!'
               5 0000371F 00000001     C   28588 28358
 =C'Command: '
               9 000036C4 00000001     C   28577 26691
 =C'Csect '
               6 00001BA0 00000001     C   21523 21028
 =C'Current user:'
1FAIL     (FAIL2025) (12:44) (15MAR04) Ordinary Symbol and Literal Cross Reference                                          Page  120
              13 000036AA 00000001     C   28573 26440
 =C'CP Stack:'
               9 00003706 00000001     C   28585 27921
 =C'CP:'       3 00003703 00000001     C   28584 27829
 =C'CP'        2 00003614 00000001     C   28558 26406
 =C'CV Stack:'
               9 000036FA 00000001     C   28583 27747
 =C'CV:'       3 000036F7 00000001     C   28582 27703
 =C'Data='
               5 000036E5 00000001     C   28580 27471
 =C'Done.'
               5 00001BEF 00000001     C   21534 19883
 =C'Dump of job '
              12 000034E4 00000001     C   28506 24477
 =C'ENTRY   '
               8 000006F0 00000001     C   15941 15555
 =C'EXEC FILE '
              10 00003616 00000001     C   28559 26670
 =C'From '
               5 00000799 00000001     C   15971 15203
 =C'Heap space:'
              11 00003714 00000001     C   28587 28116
 =C'I/O Subtask Abend at '
              21 0000367B 00000001     C   28570 25764
 =C'Iowa:'
               5 0000370F 00000001     C   28586 28067
 =C'IRB '      4 00003528 00000001     C   28519 25163
 =C'Kaput...'
               8 00000730 00000001     C   15945 15908
 =C'Kaput'
               5 0000079E 00000001     C   15972 15806
 =C'Line '
               5 00000792 00000001     C   15968 14749
 =C'Line '
               5 00000DE8 00000001     C   17859 16167
 =C'Line '
               5 00001BB8 00000001     C   21529 18030  18544
 =C'Line'      4 00000D68 00000001     C   17840 16567
 =C'Missing session number.'
              23 00001BBD 00000001     C   21530 18518
 =C'Old data was '
              13 00001BDD 00000001     C   21532 19649
 =C'Page A Buffer:'
              14 00003640 00000001     C   28564 28194
 =C'Page B Buffer:'
              14 00003650 00000001     C   28566 28256
 =C'Page Queues:'
              12 00003578 00000001     C   28533 26912
 =C'Patch'
               5 00001BEA 00000001     C   21533 19804
 =C'Path closed by failsoft recovery'
              32 000026A0 00000001     C   24275 22348
 =C'Press RETURN to continue... '
              28 00002784 00000001     C   24313 23412
 =C'Problem program registers:'
              26 000035DC 00000001     C   28556 25947
 =C'Program check.'
              14 00000784 00000001     C   15967 15646
 =C'PGMCHK'
1FAIL     (FAIL2025) (12:44) (15MAR04) Ordinary Symbol and Literal Cross Reference                                          Page  121
               6 0000077E 00000001     C   15966 15614
 =C'PRB '      4 00003524 00000001     C   28518 25142
 =C'PSW instruction address xxxxxxxx'
              32 00000700 00000001     C   15943 15660
 =C'R'         1 00004861 00000001     C   33833 31379
 =C'Registers when abend occurred:'
              30 000035F6 00000001     C   28557 26073
 =C'Registers R0-R15'
              16 00000720 00000001     C   15944 15670
 =C'Registers:  '
              12 00003540 00000001     C   28525 25650
 =C'Registers: '
              11 000028B3 00000001     C   24341 23347
 =C'Symbol Table:'
              13 000036EA 00000001     C   28581 27641
 =C'SCIP'      4 000027DC 00000001     C   24329 24196
 =C'SVC '      4 00003534 00000001     C   28522 25288
 =C'SVRB'      4 0000352C 00000001     C   28520 25188
 =C'S0Cx'      4 00000768 00000001     C   15958 15651
 =C'This session has been ended.'
              28 00002760 00000001     C   24310 23161
 =C'Trace Table'
              11 000036DA 00000001     C   28579 27090
 =C'User '
               5 000036B7 00000001     C   28574 26481
 =C'Verify failed.'
              14 00001B80 00000001     C   21521 19775
 =C'Write:  '
               8 000034B8 00000001     C   28496 26753
 =C'WVOL'      4 0000028C 00000001     C   14338 14044
 =C'WYLBUR will end your current session if it occurs '
              50 000027E2 00000001     C   24331 23084
 =CL8'FAILSOFT'
               8 000026D8 00000001     C   24277 23501
 =CL8'S0C?'
               8 000006F8 00000001     C   15942 15636
 =F'-4'        4 00004754 00000001     F   33788 31693
 =F'128'       4 0000475C 00000001     F   33790 31727
 =F'132'       4 00003588 00000001     F   28535 26978
 =F'192'       4 00004758 00000001     F   33789 31699
 =F'32'        4 00004760 00000001     F   33791 31761  31762
 =F'384'       4 00000D6C 00000001     F   17841 16793
 =F'384'       4 00004730 00000001     F   33779 30873
 =F'4096'      4 000035B0 00000001     F   28545 27959
 =F'79'        4 000034D0 00000001     F   28501 24410
 =H'-1'        2 0000281A 00000001     H   24333 23361
 =H'-1'        2 000035D4 00000001     H   28554 25558  25664  25979  26105
 =H'137'       2 000035BC 00000001     H   28548 24427
 =H'2'         2 000035C4 00000001     H   28552 25310
 =H'4'         2 000047F8 00000001     H   33815 31966  32160
 =H'8'         2 0000077C 00000001     H   15965 15588
 =V(AMODE24)
               4 000027B0 00000001     V   24318 23658
 =V(AMODE24)
               4 000034D8 00000001     V   28503 24430  28417
 =V(AMODE24)
               4 00004788 00000001     V   33799 33425
 =V(AMODE31)
               4 000026E8 00000001     V   24280 21759  22570  22672  23697  23885
1FAIL     (FAIL2025) (12:44) (15MAR04) Ordinary Symbol and Literal Cross Reference                                          Page  122
 =V(AMODE31)
               4 000034DC 00000001     V   28504 24440  28453
 =V(AMODE31)
               4 0000478C 00000001     V   33800 33435
 =V(BTD)       4 000037B8 00000001     V   28767 28719
 =V(BTR)       4 00000D78 00000001     V   17844 16840
 =V(BTR)       4 0000473C 00000001     V   33782 30920
 =V(BTX)       4 000037AC 00000001     V   28764 28664
 =V(COLLOPTS)
               4 00001AEC 00000001     V   21496 19245
 =V(COMMAND)
               4 000027A8 00000001     V   24316 23503
 =V(CV)        4 000026E4 00000001     V   24279 21642  22563  22665  23599  23826
 =V(CVEXNO)
               4 00000D7C 00000001     V   17845 16963
 =V(CVEXNO)
               4 0000472C 00000001     V   33778 30693
 =V(DEQSTR)
               4 00001AF4 00000001     V   21498 19477  20100
 =V(DISKCLCK)
               4 00003550 00000001     V   28527 25671
 =V(DISKSCB)
               4 00003554 00000001     V   28528 25688
 =V(DISKSTOP)
               4 000027CC 00000001     V   24325 24031
 =V(DISPATCH)
               4 000027AC 00000001     V   24317 23504
 =V(DISPCONT)
               4 00002748 00000001     V   24304 22815
 =V(DISPSTOP)
               4 000027D8 00000001     V   24328 24123
 =V(DOWNBILL)
               4 000027D4 00000001     V   24327 24118
 =V(FMTCLCK)
               4 00003504 00000001     V   28512 24683  25784
 =V(FMTPGQ)
               4 00003584 00000001     V   28534 26959  26969
 =V(FORCEOUT)
               4 000026F4 00000001     V   24283 21824  24113
 =V(FREECP)
               4 00002744 00000001     V   24303 22726
 =V(GETCP)
               4 000026EC 00000001     V   24281 21766
 =V(GETCPU)
               4 00002754 00000001     V   24307 22870
 =V(GETRSC)
               4 00001AE0 00000001     V   21493 18869
 =V(GETRSC)
               4 000027A4 00000001     V   24315 23477
 =V(HEXFMT)
               4 00001B20 00000001     V   21505 19702
 =V(HEXSTR)
               4 00001AF8 00000001     V   21499 19493  20116
 =V(INITSTK)
               4 000026F0 00000001     V   24282 21770  22853
 =V(IOWASIZE)
               4 000035B8 00000001     V   28547 28081
 =V(JESSTOP)
               4 000027C8 00000001     V   24324 24027
1FAIL     (FAIL2025) (12:44) (15MAR04) Ordinary Symbol and Literal Cross Reference                                          Page  123
 =V(LOCALTOD)
               4 00002700 00000001     V   24286 21885
 =V(LOCALTOD)
               4 00003500 00000001     V   28511 24676
 =V(NETFMT)
               4 000035A0 00000001     V   28541 27693
 =V(NOTVALID)
               4 00000D64 00000001     V   17839 16455
 =V(NOTVALID)
               4 00001AA8 00000001     V   21483 17937  18316  18451  19002  19032  19134  19231  19404  20713  20905
                                                 21399
 =V(NSCAN)
               4 00000D4C 00000001     V   17833 16066
 =V(NSCAN)
               4 00001AB0 00000001     V   21485 17968  18483  19168  19437  19587  20393  20505  20638  20931
 =V(PAGERES)
               4 00002758 00000001     V   24308 22896
 =V(PATHCLS)
               4 00002734 00000001     V   24299 22370
 =V(PFREEA)
               4 0000274C 00000001     V   24305 22859
 =V(PFREEB)
               4 00002750 00000001     V   24306 22865
 =V(SCANCHK)
               4 00000D50 00000001     V   17834 16080
 =V(SCANCHK)
               4 00001AB4 00000001     V   21486 17982  18497  19182  19451  19601  20407  20519  20652  20945
 =V(SEG)       4 00000290 00000001     V   14339 14251
 =V(SEG)       4 0000073C 00000001     V   15947 14761  14814  14849  14866  14893  14910  14943  14988  15137  15215
                                                 15260
 =V(SEG)       4 00000D54 00000001     V   17835 16179  16579  16647  16674  16691  16718  16781  16863  16882  16901
                                                 16958  16986  17003  17059  17096  17133  17170  17207  17245  17324
                                                 17431  17476  17572  17617  17655  17725  17762
 =V(SEG)       4 00001AB8 00000001     V   21487 18042  18556  18709  18763  19528  19661  20151  21040  21186  21238
                                                 21260  21327
 =V(SEG)       4 00002718 00000001     V   24292 22026  22074  22099  22969  22987  23023  23059  23096  23359
 =V(SEG)       4 000034F0 00000001     V   28507 24489  24604  24650  24672  24707  24903  25138  25216  25234  25266
                                                 25300  25348  25485  25556  25662  25776  25853  25883  25901  25977
                                                 26027  26103  26192  26226  26264  26302  26493  26520  26537  26564
                                                 26581  26682  26703  26765  27317  27345  27363  27445  27483  27538
                                                 27581  27715  27759  27841  27933  28079  28128  28206  28268  28370
 =V(SEG)       4 000046F8 00000001     V   33771 28885  29212  29279  29307  29325  29353  29389  29444  29483  29534
                                                 29577  29616  29657  29695  29733  29771  29809  29847  29886  29928
                                                 29967  30048  30156  30202  30299  30345  30385  30503  30568  30595
                                                 30612  30639  30656  30688  30716  30733  30754  30856  30943  30962
                                                 30981  31021  31059  31118  31359  31391  31431  31894  31956  32036
                                                 32069  32089  32231  32264  32284  32338  32528  32591  32634  32683
                                                 32746  32789
 =V(SEGB)      4 00002710 00000001     V   24290 21980
 =V(SEGCLR)
               4 0000075C 00000001     V   15955 15198
 =V(SEGCLR)
               4 0000270C 00000001     V   24289 21952  22178  22926
 =V(SEGCLR)
               4 000034CC 00000001     V   28500 24408
 =V(SEGCOL)
               4 00003594 00000001     V   28538 27398
 =V(SEGCOL)
               4 00004700 00000001     V   33773 28949  31789  32018  32133  32213
1FAIL     (FAIL2025) (12:44) (15MAR04) Ordinary Symbol and Literal Cross Reference                                          Page  124
 =V(SEGCR)
               4 00001B2C 00000001     V   21508 20287  21444
 =V(SEGCR)
               4 0000275C 00000001     V   24309 22951  23005  23041  23114  23155  23173  23233  23288  23341  23406
 =V(SEGCR)
               4 00003508 00000001     V   28513 24734  24759  24812  24837  24866  24942  24967  24986  25538  25587
                                                 25644  25733  25758  25835  25940  25959  26009  26066  26085  26152
                                                 26331  26452  26476  26649  26731  26791  26820  26881  26906  26924
                                                 26949  26998  27023  27081  27102  27127  27155  27183  27653  27678
                                                 27886  27911  28327  28352
 =V(SEGCR)
               4 00004704 00000001     V   33774 29087  30446  30551  30838  31213  31484  31660  31832  32320  32364
 =V(SEGDC)
               4 00000740 00000001     V   15948 14797
 =V(SEGDC)
               4 00000D58 00000001     V   17836 16200  16602  16925  17307  17638  17745
 =V(SEGDC)
               4 00001ABC 00000001     V   21488 18063  18577
 =V(SEGDC)
               4 00003538 00000001     V   28523 25330  26174  26617
 =V(SEGDC)
               4 00004708 00000001     V   33775 29233  29417  29465  29598  30030  30367  31004  31042  31413
 =V(SEGHX)
               4 00001B30 00000001     V   21509 20316  21291  21349
 =V(SEGHX)
               4 00003520 00000001     V   28517 25108  27287  27508  27563
 =V(SEGHX)
               4 000046F4 00000001     V   33770 28855  29194  29910  30527  31691  31814  31926  32492  32612  32767
 =V(SEGINIT)
               4 00000738 00000001     V   15946 14714
 =V(SEGMARK)
               4 0000474C 00000001     V   33786 31373
 =V(SEGT)      4 0000074C 00000001     V   15951 15023  15243  15286
 =V(SEGT)      4 00000D94 00000001     V   17847 17459  17600
 =V(SEGT)      4 00001B44 00000001     V   21514 21072  21220
 =V(SEGT)      4 0000277C 00000001     V   24311 23316
 =V(SEGT)      4 000034F8 00000001     V   28509 24568  24632  24787  25467
 =V(SEGT)      4 000046FC 00000001     V   33772 28913  29058  30184  30327  32556  32711
 =V(SEGTB)
               4 00000748 00000001     V   15950 14971
 =V(SEGTB)
               4 00002714 00000001     V   24291 22008
 =V(SEGTB)
               4 000034F4 00000001     V   28508 24536
 =V(SEGWR)
               4 00000294 00000001     V   14340 14274
 =V(SEGWR)
               4 00000D98 00000001     V   17848 17792
 =V(SEGWR)
               4 00002730 00000001     V   24298 22358  22614
 =V(SEGWR)
               4 00003558 00000001     V   28529 25808  28395
 =V(SEGWR)
               4 00004740 00000001     V   33783 31083
 =V(STATSTOP)
               4 000027C0 00000001     V   24322 24019
 =V(TIMRSTOP)
               4 000027C4 00000001     V   24323 24023
 =V(TRAPTRC)
1FAIL     (FAIL2025) (12:44) (15MAR04) Ordinary Symbol and Literal Cross Reference                                          Page  125
               4 00000760 00000001     V   15956 15389
 =V(TREAD)
               4 000027A0 00000001     V   24314 23420
 =V(TSTAT)
               4 00000D60 00000001     V   17838 16280
 =V(TSTAT)
               4 00001AC4 00000001     V   21490 18141
 =V(VERSION)
               4 00001B3C 00000001     V   21512 20803
 =V(VERSION)
               4 0000350C 00000001     V   28514 24769
 =V(VTAMSTOP)
               4 000027D0 00000001     V   24326 24035
 =V(XTB)       4 00001AE8 00000001     V   21495 19215  20697  21380
 =V(YESREQ)
               4 00001B24 00000001     V   21506 19808
 =X'D1C4D5'
               3 00004840 00000001     X   33830 30795
 =X'00000020'
               4 00000754 00000001     X   15953 15044
 =X'00004000'
               4 00000750 00000001     X   15952 15026
 =X'2F'        1 00002824 00000001     X   24336 22957
 =X'2000'      2 00000778 00000001     X   15963 15103
 =X'4000'      2 00000776 00000001     X   15962 15081
 =X'8000'      2 0000077A 00000001     X   15964 15142
 =X'80004000'
               4 00000758 00000001     X   15954 15065
 =XL128'00'
             128 00004650 00000001     X   33767 31709
 =XL32'00'
              32 000046D0 00000001     X   33768 31744
 =XL4'F'       4 00000764 00000001     X   15957 15638
 =XL8'00'      8 000034A0 00000001     X   28494 25432
 =Y((R1+1-(R0)+16*((R0)/(R1+1))/((R0)/(R1+1)))*4)
               2 00001BB6 00000001     Y   21528 21376
 =Y((12+3)/4*4)
               2 00000D9C 00000001     Y   17849 16072
 =Y((12+3)/4*4)
               2 00001B50 00000001     Y   21517 17974  18489  19174  19443  19593  20399  20511  20644  20937
 =Y((16+3)/4*4)
               2 000047FC 00000001     Y   33817 32267
 =Y((32+3)/4*4)
               2 000035C0 00000001     Y   28550 24710  25811
 =Y((32+3)/4*4)
               2 000047FA 00000001     Y   33816 32072
 =Y((8+3)/4*4)
               2 00000DB8 00000001     Y   17853 16866
 =Y((8+3)/4*4)
               2 000047EE 00000001     Y   33812 30946
 =Y(4)         2 00001BA8 00000001     Y   21525 21189
 =Y(4)         2 000047FE 00000001     Y   33818 32367

1FAIL     (FAIL2025) (12:44) (15MAR04) Macro and Copy Code Source Summary                                                   Page  126
- Con Source                                        Volume    Members                        HLASM R4.0  2004/03/15 12.44
0     PRIMARY INPUT                                           CSECT    DROP     END      EX       LTORG    POP
                                                              PRINT    PUSH     SETCC    START    SYMBOLS  SYMINIT
                                                              TCORE    TLOC     TPSW     USING
   L1 WYL.GS.WYL.WYLBUR.MACLIB                      SYSB05    ABORT    AINFO    BASE     BTD      BTR      BTX
                                                              COLINFO  COMMENT  CONTROL  CP       CPLOCAL  CV
                                                              CVLOCAL  ERROR    GETRSC   JCB      PFREE    RG
                                                              RSCGROUP RSCHDR   SCAN     SCANCB   SCANCHK  SCBKUP
                                                              SCCBADR  SCKW     SCPOP    SCPUSH   SCUPTOK  SEGINIT
                                                              SETUP    SYMBOL   TCCR     TCLEAR   TCOL     TCR      THEX
                                                              TMARK    TNUM     TP       TREAD    TSEG     TSTAT
                                                              TTYPE    TWRITE   XENTER   XEXIT    XSA      XTB
                                                              XTRACE   XWTO
   L2 WYL.GG.SYS.MACLIB                             SYSB05    $BC      $BFLKUP  $BV      $CCLKUP  $CRS     $CSS     $L
                                                              $LA      $LBLAD   $LEXP    $LOR     $REL     $RGLKUP
                                                              $USLKUP  ACALL    BEGIN    CEIL     CLEAR    CMPR
                                                              COMPROC  CSECT    DATA     DECR     DEFCC    DEX      DROP
                                                              DTEX     ELSE     ELSEIF   END      EX       EXIT     FLAG
                                                              FLIP     FLOOR    GEN      HIBAL    IDENT    IF       INCR
                                                              LABEL    LC       LCALL    LCM      LOOP     LS       LT
                                                              LTH      LTORG    L2       L3       MOVE     MOVEL    PEND
                                                              POP      PRETURN  PRINT    PROC     PUSH     QLTORG
                                                              RECORD   REG      REGS     SET      SETMSG   START    ST3
                                                              SYSLR    SYSQS    UNTIL    USING    VCALL    WHILE    WITH
                                                              XPROC
   L3 SYS3.IS.MACLIB                                SYSB05    CLRHI    MILSERV  SEG      SEGCB    SEGCLR   SEGCOL
                                                              SEGCR    SEGDC    SEGDEF   SEGHX    SEGLD    SEGMARK  SEGT
                                                              SEGTB    SEGWR    SIB      SYSDEFN  XPOP     XPUSH
   L4 SYS3.MACLIB                                   SYSB02    QSNAP    SCIPCVT  USERCVT
   L5 SYS1.MACLIB                                   MVSBR9    ABEND    CLOSE    CVT      DCB      DCBD     DYNALLOC
                                                              ESPIE    ESTAE    FREEMAIN FREEPOOL GETMAIN  IEFSJDKY
                                                              IEFZB4D0 IEFZB4D2 IHARB    IHASDWA  IHAVRA   IHBINNRA
                                                              IHBINNRR IHB01    IKJTCB   MODESET  OPEN     PUT
                                                              SETRP    SPLEVEL  SYSSTATE TTIMER   WTO
   L6 SYS1.MODGEN                                   MVSBR9    IEZBITS  IHACDE   IKJRB

1FAIL     (FAIL2025) (12:44) (15MAR04) Dsect Cross Reference                                                                Page  127
-Dsect     Length      Id       Defn                                                         HLASM R4.0  2004/03/15 12.44
0$$$@R0   00000000  FFFFFFFE     705
 $$$@R1   00000000  FFFFFFFD     718
 $$$@R10  00000000  FFFFFFF4     835
 $$$@R11  00000000  FFFFFFF3     848
 $$$@R12  00000000  FFFFFFF2     861
 $$$@R13  00000000  FFFFFFF1     874
 $$$@R14  00000000  FFFFFFF0     887
 $$$@R15  00000000  FFFFFFEF     900
 $$$@R2   00000000  FFFFFFFC     731
 $$$@R3   00000000  FFFFFFFB     744
 $$$@R4   00000000  FFFFFFFA     757
 $$$@R5   00000000  FFFFFFF9     770
 $$$@R6   00000000  FFFFFFF8     783
 $$$@R7   00000000  FFFFFFF7     796
 $$$@R8   00000000  FFFFFFF6     809
 $$$@R9   00000000  FFFFFFF5     822
 $$$RCP   00001000  FFFFFFEC    2536
 $$$RCV   00000FB0  FFFFFFEE    1261
 $$$RDEV  0000000C  FFFFFFEB    4750
 $$$REPIE 00000054  FFFFFFCA   13418
 $$$RJCB  000000D0  FFFFFFE7    6497
 $$$RLOC  00000018  FFFFFFC6   13603
 $$$RNSCNCB
          000000B0  FFFFFFED    2457
 $$$RPATWA
          000001DD  FFFFFFC4   19282
 $$$RRESOURCE
          00000018  FFFFFFE8    6450
 $$$RRSCGROUP
          0000003C  FFFFFFE9    6389
 $$$RSEGCB
          0000003C  FFFFFFE6    6777
 $$$RSYMBOL
          00000010  FFFFFFC7   13559
 $$$RTCOREWA
          00000024  FFFFFFC3   31517
 $$$RTP   00000010  FFFFFFC9   13446
 $$$RTRE  00000058  FFFFFFC8   13505
 $$$RTTYPE
          0000010C  FFFFFFEA    6281
 $$$RUSERCVT
          0000035F  FFFFFFCF   11610
 $$$RXWTOWA
          000000C0  FFFFFFC5   14463
 CDENTRY  00000020  FFFFFFCB   13328
 CVT      00000500  FFFFFFD3   10471
 CVTVSTGX 00000050  FFFFFFD2   11491
 CVTXTNT1 0000000C  FFFFFFD1   11530
 CVTXTNT2 00000084  FFFFFFD0   11538
 HIBAL    00000000  FFFFFFFF     691
 IHADCB   00000060  FFFFFFD4    9714
 RBPRFX   00000110  FFFFFFCC   12756
 SDWA     00000298  FFFFFFE5    7129
 SDWANRC1 000000F0  FFFFFFDF    8097
 SDWANRC2 00000010  FFFFFFDE    8106
1FAIL     (FAIL2025) (12:44) (15MAR04) Dsect Cross Reference                                                                Page  128
 SDWANRC3 000000F0  FFFFFFDD    8119
 SDWAPTRS 00000020  FFFFFFE0    8082
 SDWARC1  000001C8  FFFFFFE4    7770
 SDWARC2  00000010  FFFFFFE3    7989
 SDWARC3  00000020  FFFFFFE2    8001
 SDWARC4  00000150  FFFFFFE1    8051
 SVC99KYS 00000000  FFFFFFD5    9458
 S99RB    00000014  FFFFFFDA    9094
 S99RBP   00000004  FFFFFFDB    9091
 S99RBX   00000024  FFFFFFD6    9227
 S99TUFLD 00000003  FFFFFFD7    9221
 S99TUNIT 00000007  FFFFFFD8    9212
 S99TUPL  00000004  FFFFFFD9    9206
 TCBFIX   00000178  FFFFFFCE   11848
 TCBXTNT2 00000020  FFFFFFCD   12564
 VRAMAP   00000002  FFFFFFDC    8272

1FAIL     (FAIL2025) (12:44) (15MAR04) Using Map                                                                            Page  129
-                                                                                            HLASM R4.0  2004/03/15 12.44
   Stmt  -----Location----- Action ----------------Using----------------- Reg Max    Last  Label and Using Text
           Count      Id           Type          Value    Range     Id        Disp   Stmt
0   922  00000000  FFFFFFFF USING  ORDINARY    00000000 00001000 FFFFFFEF  15 001   14320  @R15,15
    926  00000000  FFFFFFFF USING  ORDINARY    00000000 00001000 FFFFFFF0  14 002   24010  @R14,14
    930  00000000  FFFFFFFF USING  ORDINARY    00000000 00001000 FFFFFFF1  13 000   33722  @R13,13
    934  00000000  FFFFFFFF USING  ORDINARY    00000000 00001000 FFFFFFF2  12 000          @R12,12
    938  00000000  FFFFFFFF USING  ORDINARY    00000000 00001000 FFFFFFF3  11 000          @R11,11
    942  00000000  FFFFFFFF USING  ORDINARY    00000000 00001000 FFFFFFF4  10 000          @R10,10
    946  00000000  FFFFFFFF USING  ORDINARY    00000000 00001000 FFFFFFF5   9 000          @R9,9
    950  00000000  FFFFFFFF USING  ORDINARY    00000000 00001000 FFFFFFF6   8 000          @R8,8
    954  00000000  FFFFFFFF USING  ORDINARY    00000000 00001000 FFFFFFF7   7 000          @R7,7
    958  00000000  FFFFFFFF USING  ORDINARY    00000000 00001000 FFFFFFF8   6 000          @R6,6
    962  00000000  FFFFFFFF USING  ORDINARY    00000000 00001000 FFFFFFF9   5 000          @R5,5
    966  00000000  FFFFFFFF USING  ORDINARY    00000000 00001000 FFFFFFFA   4 000          @R4,4
    970  00000000  FFFFFFFF USING  ORDINARY    00000000 00001000 FFFFFFFB   3 000          @R3,3
    974  00000000  FFFFFFFF USING  ORDINARY    00000000 00001000 FFFFFFFC   2 000          @R2,2
    978  00000000  FFFFFFFF USING  ORDINARY    00000000 00001000 FFFFFFFD   1 001    2251  @R1,1
    982  00000000  FFFFFFFF USING  ORDINARY    00000000 00001000 FFFFFFFE   0 000          @R0,0
    983  00000000  FFFFFFFF DROP                                            0              0
   1245  00000017  00000001 USING  ORDINARY    00000000 00001000 FFFFFFEC  11 D5A   16197  CP,CPR
   1254  00000017  00000001 USING  ORDINARY    00000000 00001000 FFFFFFEE  12 890   33727  CV,CVR
  13669  00000032  00000001 USING  ORDINARY    00000032 00001000 00000001   7 77A   13989  $$$51B,BR
  13905  00000170  00000001 USING  ORDINARY    00000000 00001000 FFFFFFC7   4 011   13963  SYMBOL,R4
  14001  000001A4  00000001 USING  ORDINARY    00000000 00001000 FFFFFFFA   4 000          @R4,4
  14013  000001B0  00000001 USING  ORDINARY    00000000 00001000 FFFFFFF7   7 000          @R7,7
  14039  000001CA  00000001 USING  ORDINARY    000001CA 00001000 00000001   7 0D4   14313  $$$64B,BR
  14092  000001EA  00000001 USING  ORDINARY    00000000 00001000 FFFFFFC7   5 011   14150  SYMBOL,R5
  14188  0000021E  00000001 USING  ORDINARY    00000000 00001000 FFFFFFF9   5 000          @R5,5
  14201  0000021E  00000001 USING  ORDINARY    00000000 00001000 FFFFFFC7   6 010   14276  SYMBOL,R6
  14288  00000254  00000001 USING  ORDINARY    00000000 00001000 FFFFFFF8   6 000          @R6,6
  14353  0000029F  00000001 USING  ORDINARY    00000000 00001000 FFFFFFF7   7 000          @R7,7
  14613  00000346  00000001 USING  ORDINARY    00000346 00001000 00000001   7 453   15286  $$$93B,7
  14627  00000346  00000001 USING  ORDINARY    FFFFFFD8 00001000 FFFFFFC5   8 070   15309  XWTOWA-(4+36),R8
  14642  00000348  00000001 USING  ORDINARY    00000000 00001000 FFFFFFE6   6 020   15275  SEGCB,R6
  14773  00000396  00000001 USING  ORDINARY    00000000 00001000 FFFFFFE7   2 048   14782  JCB,R2
  14822  000003B8  00000001 USING  ORDINARY    00000000 00001000 FFFFFFFC   2 000          @R2,2
  15336  00000532  00000001 USING  ORDINARY    00000000 00001000 FFFFFFF8   6 000          @R6,6
  15341  00000532  00000001 USING  ORDINARY    00000000 00001000 FFFFFFF6   8 000          @R8,8
  15346  00000532  00000001 USING  ORDINARY    00000000 00001000 FFFFFFF7   7 000          @R7,7
  15382  00000542  00000001 USING  ORDINARY    00000542 00001000 00000001   7 28A   15918  $$$106B,7
  15401  0000054E  00000001 USING  ORDINARY    00000000 00001000 FFFFFFC9   5 010   15892  TP,R5
  15457  0000056E  00000001 USING  ORDINARY    00000000 00001000 FFFFFFD3  15 000   15463  CVT,R15
  15470  00000572  00000001 USING  ORDINARY    00000000 00001000 FFFFFFEF  15 004   15589  @R15,15
  15524  0000058C  00000001 USING  ORDINARY    00000000 00001000 FFFFFFC8   4 058   15742  TRE,R4
  15630  000005E2  00000001 USING  ORDINARY    00000000 00001000 FFFFFFCA   2 052   15637  EPIE,R2
  15680  0000063C  00000001 USING  ORDINARY    00000000 00001000 FFFFFFFC   2 000          @R2,2
  15772  00000684  00000001 USING  ORDINARY    00000000 00001000 FFFFFFFA   4 000          @R4,4
  15837  000006A4  00000001 DROP                                            1              1
  15841  000006AA  00000001 USING  ORDINARY    00000000 00001000 FFFFFFFD   1 000   20547  @R1,1
  15925  000006EA  00000001 USING  ORDINARY    00000000 00001000 FFFFFFF9   5 000          @R5,5
  15931  000006EA  00000001 USING  ORDINARY    00000000 00001000 FFFFFFF7   7 000          @R7,7
  16032  0000082A  00000001 USING  ORDINARY    0000082A 00001000 00000001   7 5BE   16314  $$$123B,7
  16144  0000089C  00000001 USING  ORDINARY    00000000 00001000 FFFFFFE7   5 060   16185  JCB,R5
  16222  000008DE  00000001 USING  ORDINARY    00000000 00001000 FFFFFFF9   5 000          @R5,5
  16245  000008E2  00000001 USING  ORDINARY    00000000 00001000 FFFFFFE7   2 0D0   16294  JCB,R2
1FAIL     (FAIL2025) (12:44) (15MAR04) Using Map                                                                            Page  130
  16323  0000090A  00000001 USING  ORDINARY    00000000 00001000 FFFFFFFC   2 001   17538  @R2,2
  16332  0000090E  00000001 USING  ORDINARY    00000000 00001000 FFFFFFF7   7 000          @R7,7
  16423  000009AE  00000001 USING  ORDINARY    000009AE 00001000 00000001   7 402   16455  $$$135B,7
  16469  000009CA  00000001 USING  ORDINARY    00000000 00001000 FFFFFFF7   7 000          @R7,7
  16521  000009F2  00000001 USING  ORDINARY    000009F2 00001000 00000001   7 449   17792  $$$139B,7
  16542  000009F4  00000001 USING  ORDINARY    00000000 00001000 FFFFFFE7   5 07C   17223  JCB,R5
  16757  00000A7C  00000001 USING  ORDINARY    00000000 00001000 FFFFFFF3  11 000          @R11,11
  16760  00000A7C  00000001 USING  ORDINARY    00000000 00001000 FFFFFFEC   4 75C   16960  CP,R4
  17018  00000B3A  00000001 USING  ORDINARY    00000000 00001000 FFFFFFEC  11 D5A   26328  CP,11
  17023  00000B3A  00000001 USING  ORDINARY    00000000 00001000 FFFFFFFA   4 000          @R4,4
  17261  00000BD8  00000001 USING  ORDINARY    00000000 00001000 FFFFFFF9   5 000          @R5,5
  17264  00000BD8  00000001 USING  ORDINARY    00000000 00001000 FFFFFFE7   4 048   17270  JCB,R4
  17281  00000BDC  00000001 USING  ORDINARY    00000000 00001000 FFFFFFE7   5 000          JCB,5
  17286  00000BDC  00000001 USING  ORDINARY    00000000 00001000 FFFFFFFA   4 000          @R4,4
  17360  00000C08  00000001 USING  ORDINARY    00000000 00001000 FFFFFFE9   4 034   17584  RSCGROUP,R4
  17374  00000C0C  00000001 USING  ORDINARY    00000000 00001000 FFFFFFE8   3 008   17407  RESOURCE,R3
  17492  00000C5E  00000001 USING  ORDINARY    00000000 00001000 FFFFFFFB   3 000          @R3,3
  17513  00000C64  00000001 USING  ORDINARY    00000000 00001000 FFFFFFF9   5 000          @R5,5
  17516  00000C64  00000001 USING  ORDINARY    00000000 00001000 FFFFFFE7   3 000   17537  JCB,R3
  17675  00000CD8  00000001 USING  ORDINARY    00000000 00001000 FFFFFFE7   5 034   17730  JCB,5
  17680  00000CD8  00000001 USING  ORDINARY    00000000 00001000 FFFFFFFB   3 000          @R3,3
  17688  00000CDC  00000001 USING  ORDINARY    00000000 00001000 FFFFFFFA   4 000          @R4,4
  17802  00000D2A  00000001 USING  ORDINARY    00000000 00001000 FFFFFFF9   5 000          @R5,5
  17807  00000D2A  00000001 USING  ORDINARY    00000000 00001000 FFFFFFF7   7 000          @R7,7
  17910  00000E60  00000001 USING  ORDINARY    00000E60 00001000 00000001   7 D58   18175  $$$162B,7
  18007  00000ECE  00000001 USING  ORDINARY    00000000 00001000 FFFFFFE7   5 060   18048  JCB,R5
  18085  00000F10  00000001 USING  ORDINARY    00000000 00001000 FFFFFFF9   5 000          @R5,5
  18106  00000F14  00000001 USING  ORDINARY    00000000 00001000 FFFFFFE7   2 0D0   18155  JCB,R2
  18184  00000F3C  00000001 USING  ORDINARY    00000000 00001000 FFFFFFFC   2 000   19857  @R2,2
  18193  00000F40  00000001 USING  ORDINARY    00000000 00001000 FFFFFFF7   7 000          @R7,7
  18284  00000FE2  00000001 USING  ORDINARY    00000FE2 00001000 00000001   7 B82   18316  $$$173B,7
  18330  00000FFE  00000001 USING  ORDINARY    00000000 00001000 FFFFFFF7   7 000          @R7,7
  18380  00001026  00000001 USING  ORDINARY    00001026 00001000 00000001   7 000          $$$177B,7
  18421  00001044  00000001 USING  ORDINARY    00000000 00001000 FFFFFFF7   7 000          @R7,7
  18424  00001044  00000001 USING  ORDINARY    00001044 00001000 00000001   7 B90   18869  $$$179B,7
  18535  000010BE  00000001 USING  ORDINARY    00000000 00001000 FFFFFFE7   4 062   18838  JCB,R4
  18889  0000119C  00000001 USING  ORDINARY    00000000 00001000 FFFFFFFA   4 000          @R4,4
  18973  00001232  00000001 USING  ORDINARY    00000000 00001000 FFFFFFF7   7 000          @R7,7
  18976  00001232  00000001 USING  ORDINARY    00001232 00001000 00000001   7 932   19032  $$$193B,7
  19050  0000125C  00000001 USING  ORDINARY    00000000 00001000 FFFFFFF7   7 000          @R7,7
  19053  0000125C  00000001 USING  ORDINARY    00001044 00001000 00000001   7 000          $$$179B,7
  19104  00001284  00000001 USING  ORDINARY    00000000 00001000 FFFFFFF7   7 000          @R7,7
  19107  00001284  00000001 USING  ORDINARY    00001284 00001000 00000001   7 8CC   19268  $$$198B,7
  19277  0000132A  00000001 USING  ORDINARY    00000000 00001000 FFFFFFF7   7 000          @R7,7
  19350  00001344  00000001 USING  ORDINARY    00001344 00001000 00000001   7 8BE   19883  $$$203B,7
  19364  00001344  00000001 USING  ORDINARY    FFFFFFD8 00001000 FFFFFFC4   8 028   19368  PATWA-(4+36),R8
  19376  00001348  00000001 USING  ORDINARY    00000000 00001000 FFFFFFC4   6 100   20187  PATWA,R6
  19892  0000151A  00000001 USING  ORDINARY    00000000 00001000 FFFFFFF6   8 000          @R8,8
  19897  0000151A  00000001 USING  ORDINARY    00000000 00001000 FFFFFFF7   7 000          @R7,7
  20021  0000160A  00000001 USING  ORDINARY    0000160A 00001000 00000001   7 000          $$$225B,7
  20042  0000160E  00000001 USING  ORDINARY    00000000 00001000 FFFFFFF7   7 000          @R7,7
  20088  00001636  00000001 USING  ORDINARY    00001636 00001000 00000001   7 4F2   20182  $$$228B,7
  20194  00001678  00000001 USING  ORDINARY    00000000 00001000 FFFFFFF7   7 000          @R7,7
  20213  00001686  00000001 USING  ORDINARY    00000000 00001000 FFFFFFF8   6 000          @R6,6
  20229  00001688  00000001 USING  ORDINARY    00001688 00001000 00000001   7 506   20320  $$$233B,7
  20361  000016DE  00000001 USING  ORDINARY    00000000 00001000 FFFFFFF7   7 000          @R7,7
  20364  000016DE  00000001 USING  ORDINARY    000016DE 00001000 00000001   7 472   20713  $$$237B,7
  20463  00001750  00000001 USING  ORDINARY    00000000 00001000 FFFFFFC7  15 001   20475  SYMBOL,R15
  20472  00001750  00000001 DROP                                            6              6
1FAIL     (FAIL2025) (12:44) (15MAR04) Using Map                                                                            Page  131
  20476  00001756  00000001 USING  ORDINARY    00000000 00001000 FFFFFFF8   6 000   20720  @R6,6
  20483  00001756  00000001 USING  ORDINARY    00000000 00001000 FFFFFFEF  15 000          @R15,15
  20731  00001874  00000001 USING  ORDINARY    00000000 00001000 FFFFFFF7   7 000          @R7,7
  20734  00001874  00000001 USING  ORDINARY    00001688 00001000 00000001   7 000          $$$233B,7
  20785  0000189C  00000001 USING  ORDINARY    00000000 00001000 FFFFFFF7   7 000          @R7,7
  20788  0000189C  00000001 USING  ORDINARY    0000189C 00001000 00000001   7 2A0   20803  $$$248B,7
  20822  000018A8  00000001 USING  ORDINARY    00000000 00001000 FFFFFFF7   7 000          @R7,7
  20825  000018A8  00000001 USING  ORDINARY    00001688 00001000 00000001   7 000          $$$233B,7
  20875  000018D0  00000001 USING  ORDINARY    00000000 00001000 FFFFFFF7   7 000          @R7,7
  20878  000018D0  00000001 USING  ORDINARY    000018D0 00001000 00000001   7 324   21444  $$$251B,7
  21004  0000195E  00000001 USING  ORDINARY    00000000 00001000 FFFFFFC7   5 008   21305  SYMBOL,R5
  21099  00001992  00000001 DROP                                           15              15
  21103  00001998  00000001 USING  ORDINARY    00000000 00001000 FFFFFFEF  15 001   21209  @R15,15
  21269  00001A0E  00000001 DROP                                            1              1
  21273  00001A14  00000001 USING  ORDINARY    00000000 00001000 FFFFFFFD   1 000   27936  @R1,1
  21360  00001A50  00000001 USING  ORDINARY    00000000 00001000 FFFFFFF9   5 000          @R5,5
  21457  00001A86  00000001 USING  ORDINARY    00000000 00001000 FFFFFFF7   7 000          @R7,7
  21460  00001A86  00000001 USING  ORDINARY    00001688 00001000 00000001   7 000          $$$233B,7
  21583  00001C08  00000001 USING  ORDINARY    00001C08 00001000 00000001  15 AD8   21601  ESTAE,R15
  21621  00001C14  00000001 USING  ORDINARY    00000000 00001000 FFFFFFEF  15 000          @R15,15
  21636  00001C16  00000001 USING  ORDINARY    00000000 00001000 FFFFFFF7   7 000          @R7,7
  21639  00001C16  00000001 USING  ORDINARY    00001C16 00001000 00000001   7 CBA   22627  $$$267B,7
  21656  00001C1E  00000001 USING  ORDINARY    00000000 00001000 FFFFFFE5   6 0EB   22515  SDWA,R6
  21793  00001C8E  00000001 USING  ORDINARY    00000020 00001000 FFFFFFCE   3 01C   21804  TCB,R3
  21812  00001CA2  00000001 USING  ORDINARY    00000000 00001000 FFFFFFFB   3 000          @R3,3
  21899  00001CF4  00000001 USING  ORDINARY    000007A4 00001000 00000001   4 028   22076  TRCAREA,R4
  22186  00001DC8  00000001 USING  ORDINARY    00000000 00001000 FFFFFFFA   4 000          @R4,4
  22205  00001DD6  00000001 USING  ORDINARY    000007A4 00001000 00000001   2 00C   22217  TRCAREA,R2
  22224  00001DDA  00000001 USING  ORDINARY    00000000 00001000 FFFFFFFC   2 030   23671  @R2,2
  22403  00001E40  00000001 USING  ORDINARY    00000000 00001000 FFFFFFE7   4 060   22488  JCB,R4
  22499  00001E70  00000001 USING  ORDINARY    00000000 00001000 FFFFFFFA   4 000          @R4,4
  22637  00001EFA  00000001 USING  ORDINARY    00000000 00001000 FFFFFFF8   6 000          @R6,6
  22643  00001EFA  00000001 USING  ORDINARY    00000000 00001000 FFFFFFF7   7 000          @R7,7
  22663  00001EFC  00000001 USING  ORDINARY    00001EFC 00001000 00000001   7 9CC   23504  $$$292B,7
  22835  00001F72  00000001 USING  ORDINARY    00000000 00001000 FFFFFFE7  15 014   22841  JCB,R15
  22848  00001F76  00000001 USING  ORDINARY    00000000 00001000 FFFFFFEF  15 000          @R15,15
  22909  00001FA8  00000001 USING  ORDINARY    00000000 00001000 FFFFFFE7   5 060   23445  JCB,R5
  23185  0000207E  00000001 USING  ORDINARY    00000000 00001000 FFFFFFE7  15 062   23196  JCB,R15
  23203  00002082  00000001 USING  ORDINARY    00000000 00001000 FFFFFFEF  15 000          @R15,15
  23261  0000209A  00000001 USING  ORDINARY    000007A4 00001000 00000001   4 028   23362  TRCAREA,R4
  23431  00002108  00000001 USING  ORDINARY    00000000 00001000 FFFFFFFA   4 000          @R4,4
  23489  00002126  00000001 USING  ORDINARY    00000000 00001000 FFFFFFF9   5 000          @R5,5
  23512  0000213C  00000001 USING  ORDINARY    00000000 00001000 FFFFFFF7   7 000          @R7,7
  23530  0000213C  00000001 USING  ORDINARY    0000213C 00001000 00000001  15 5A4   23548  CLOSEFIN,R15
  23568  00002148  00000001 USING  ORDINARY    00000000 00001000 FFFFFFEF  15 000          @R15,15
  23579  0000214A  00000001 USING  ORDINARY    00000000 00001000 FFFFFFE5   6 000   23707  SDWA,R6
  23596  0000214E  00000001 USING  ORDINARY    0000214E 00001000 00000001   7 771   23718  $$$302B,7
  23627  0000216E  00000001 USING  ORDINARY    00000020 00001000 FFFFFFCE   3 01C   23638  TCB,R3
  23646  00002182  00000001 USING  ORDINARY    00000000 00001000 FFFFFFFB   3 000          @R3,3
  23734  0000220A  00000001 USING  ORDINARY    00000000 00001000 FFFFFFF8   6 000          @R6,6
  23740  0000220A  00000001 USING  ORDINARY    00000000 00001000 FFFFFFF7   7 000          @R7,7
  23757  0000220A  00000001 USING  ORDINARY    0000220A 00001000 00000001  15 4D6   23775  CLEANFIN,R15
  23795  00002216  00000001 USING  ORDINARY    00000000 00001000 FFFFFFEF  15 000   24472  @R15,15
  23806  00002218  00000001 USING  ORDINARY    00000000 00001000 FFFFFFE5   6 000   23900  SDWA,R6
  23823  0000221C  00000001 USING  ORDINARY    0000221C 00001000 00000001   7 6A3   23911  $$$306B,7
  23854  0000223A  00000001 USING  ORDINARY    00000020 00001000 FFFFFFCE   3 01C   23865  TCB,R3
  23873  0000224E  00000001 USING  ORDINARY    00000000 00001000 FFFFFFFB   3 000          @R3,3
  23927  00002296  00000001 USING  ORDINARY    00000000 00001000 FFFFFFF8   6 000          @R6,6
  23933  00002296  00000001 USING  ORDINARY    00000000 00001000 FFFFFFF7   7 000          @R7,7
1FAIL     (FAIL2025) (12:44) (15MAR04) Using Map                                                                            Page  132
  23976  000025D2  00000001 USING  ORDINARY    000025D2 00001000 00000001   7 1FE   24035  $$$308B,7
  24046  00002612  00000001 USING  ORDINARY    00000000 00001000 FFFFFFF7   7 000          @R7,7
  24084  0000262C  00000001 USING  ORDINARY    0000262C 00001000 00000001   7 1B0   24223  $$$311B,7
  24150  00002656  00000001 USING  ORDINARY    00000000 00001000 FFFFFFD3   5 0CC   24156  CVT,R5
  24181  00002660  00000001 USING  ORDINARY    00000000 00001000 FFFFFFCF   4 004   24219  USERCVT,R4
  24232  0000268E  00000001 USING  ORDINARY    00000000 00001000 FFFFFFFA   4 000          @R4,4
  24237  0000268E  00000001 USING  ORDINARY    00000000 00001000 FFFFFFF9   5 000          @R5,5
  24251  0000268E  00000001 USING  ORDINARY    00000000 00001000 FFFFFFF7   7 000          @R7,7
  24371  000028F0  00000001 USING  ORDINARY    000028F0 00001000 00000001   7 E2F   28461  $$$318B,BR
  24381  000028F2  00000001 USING  ORDINARY    00000000 00001000 FFFFFFE5   6 07C   24910  SDWA,R6
  24422  0000291A  00000001 USING  ORDINARY    00000000 00001000 FFFFFFD4   2 052   24452  DCB,R2
  24467  00002940  00000001 USING  ORDINARY    00000000 00001000 FFFFFFFC   2 000          @R2,2
  24998  00002AA4  00000001 USING  ORDINARY    00000000 00001000 FFFFFFD3   5 000   25004  CVT,R5
  25012  00002AAC  00000001 USING  ORDINARY    00000000 00001000 FFFFFFF9   5 000          @R5,5
  25021  00002AAC  00000001 USING  ORDINARY    00000020 00001000 FFFFFFCE   5 000   25023  TCB,R5
  25033  00002AB0  00000001 USING  ORDINARY    00000040 00001000 FFFFFFCC  15 01D   25045  RB,R15
  25042  00002AB0  00000001 DROP                                            4              4
  25046  00002AB6  00000001 USING  ORDINARY    00000000 00001000 FFFFFFFA   4 000          @R4,4
  25053  00002AB6  00000001 USING  ORDINARY    00000000 00001000 FFFFFFEF  15 000          @R15,15
  25081  00002ABC  00000001 USING  ORDINARY    00000040 00001000 FFFFFFCC   4 020   25595  RB,R4
  25305  00002B5A  00000001 DROP                                           15              15
  25309  00002B60  00000001 USING  ORDINARY    00000000 00001000 FFFFFFEF  15 000   25315  @R15,15
  25395  00002B96  00000001 DROP                                            2              2
  25399  00002B9C  00000001 USING  ORDINARY    00000000 00001000 FFFFFFFC   2 000          @R2,2
  25417  00002BA0  00000001 USING  ORDINARY    00000000 00001000 FFFFFFCB   2 011   25496  CDE,R2
  25493  00002BCE  00000001 DROP                                           15              15
  25497  00002BD4  00000001 USING  ORDINARY    00000000 00001000 FFFFFFEF  15 000          @R15,15
  25511  00002BDC  00000001 USING  ORDINARY    00000000 00001000 FFFFFFFC   2 030   33421  @R2,2
  25592  00002C14  00000001 DROP                                           15              15
  25596  00002C1A  00000001 USING  ORDINARY    00000000 00001000 FFFFFFEF  15 000          @R15,15
  25603  00002C1C  00000001 USING  ORDINARY    00000000 00001000 FFFFFFFA   4 000          @R4,4
  25614  00002C20  00000001 USING  ORDINARY    00000000 00001000 FFFFFFF9   5 000          @R5,5
  25703  00002C5E  00000001 USING  ORDINARY    00000000 00001000 FFFFFFF8   6 000          @R6,6
  25706  00002C5E  00000001 USING  ORDINARY    00000000 00001000 FFFFFFE5   5 088   26106  SDWA,R5
  26120  00002DA0  00000001 USING  ORDINARY    00000000 00001000 FFFFFFE5   6 000          SDWA,6
  26125  00002DA0  00000001 USING  ORDINARY    00000000 00001000 FFFFFFF9   5 000          @R5,5
  26358  00002E32  00000001 USING  ORDINARY    00000000 00001000 FFFFFFE7  15 014   26364  JCB,R15
  26371  00002E36  00000001 USING  ORDINARY    00000000 00001000 FFFFFFEF  15 000   27785  @R15,15
  26387  00002E36  00000001 USING  ORDINARY    00000000 00001000 FFFFFFF3  11 000          @R11,11
  26390  00002E36  00000001 USING  ORDINARY    00000000 00001000 FFFFFFEC   5 758   26775  CP,R5
  26593  00002EC4  00000001 USING  ORDINARY    00000000 00001000 FFFFFFE7   4 048   26602  JCB,R4
  26625  00002ED4  00000001 USING  ORDINARY    00000000 00001000 FFFFFFFA   4 000          @R4,4
  26831  00002F56  00000001 USING  ORDINARY    00000000 00001000 FFFFFFEC  11 054   30443  CP,11
  26836  00002F56  00000001 USING  ORDINARY    00000000 00001000 FFFFFFF9   5 000          @R5,5
  27196  00003050  00000001 USING  ORDINARY    000007A4 00001000 00000001   5 008   27609  TRCAREA,R5
  27217  00003054  00000001 USING  ORDINARY    00000000 00001000 FFFFFFC8   4 054   27589  TRE,R4
  27620  00003174  00000001 USING  ORDINARY    00000000 00001000 FFFFFFFA   4 000          @R4,4
  27631  00003178  00000001 USING  ORDINARY    00000000 00001000 FFFFFFF9   5 000          @R5,5
  27810  00003216  00000001 USING  ORDINARY    00000000 00001000 FFFFFFE7  15 014   27816  JCB,R15
  27823  0000321A  00000001 USING  ORDINARY    00000000 00001000 FFFFFFEF  15 000   27916  @R15,15
  28029  000032B0  00000001 USING  ORDINARY    00000000 00001000 FFFFFFE7  15 014   28035  JCB,R15
  28042  000032B4  00000001 USING  ORDINARY    00000000 00001000 FFFFFFEF  15 000   28251  @R15,15
  28166  0000331E  00000001 USING  ORDINARY    000007A4 00001000 00000001   3 050   28242  TRCAREA,R3
  28301  00003386  00000001 USING  ORDINARY    00000000 00001000 FFFFFFFB   3 000          @R3,3
  28474  0000343E  00000001 USING  ORDINARY    00000000 00001000 FFFFFFF8   6 004   32152  @R6,6
  28480  0000343E  00000001 USING  ORDINARY    00000000 00001000 FFFFFFF7   7 000          @R7,7
  28622  0000373E  00000001 USING  ORDINARY    0000373E 00001000 00000001   7 07A   28719  $$$367B,BR
  28749  000037A2  00000001 USING  ORDINARY    00000000 00001000 FFFFFFF7   7 000          @R7,7
  28794  000037D6  00000001 USING  ORDINARY    000037D6 00001000 00000001   7 F2E   29093  $$$370B,BR
1FAIL     (FAIL2025) (12:44) (15MAR04) Using Map                                                                            Page  133
  28804  000037DA  00000001 USING  ORDINARY    00000000 00001000 FFFFFFC7   5 010   29089  SYMBOL,R5
  28833  000037E2  00000001 DROP                                            1              1
  28837  000037E8  00000001 USING  ORDINARY    00000000 00001000 FFFFFFFD   1 000          @R1,1
  28961  00003830  00000001 DROP                                           15              15
  28965  00003836  00000001 USING  ORDINARY    00000000 00001000 FFFFFFEF  15 001   29047  @R15,15
  29106  00003886  00000001 USING  ORDINARY    00000000 00001000 FFFFFFF9   5 000          @R5,5
  29112  00003886  00000001 USING  ORDINARY    00000000 00001000 FFFFFFF7   7 000          @R7,7
  29141  000038A0  00000001 USING  ORDINARY    000038A0 00001000 00000001   7 FB0   31229  $$$379B,BR
  29151  000038A2  00000001 USING  ORDINARY    00000000 00001000 FFFFFFE7   5 062   29944  JCB,R5
  29398  0000394C  00000001 DROP                                            1              1
  29402  00003952  00000001 USING  ORDINARY    00000000 00001000 FFFFFFFD   1 000   32238  @R1,1
  29983  00003AEC  00000001 USING  ORDINARY    00000000 00001000 FFFFFFF9   5 000          @R5,5
  29986  00003AEC  00000001 USING  ORDINARY    00000000 00001000 FFFFFFE7   4 048   29992  JCB,R4
  30003  00003AF0  00000001 USING  ORDINARY    00000000 00001000 FFFFFFE7   5 000          JCB,5
  30008  00003AF0  00000001 USING  ORDINARY    00000000 00001000 FFFFFFFA   4 000          @R4,4
  30084  00003B1C  00000001 USING  ORDINARY    00000000 00001000 FFFFFFE9   4 034   30311  RSCGROUP,R4
  30098  00003B20  00000001 USING  ORDINARY    00000000 00001000 FFFFFFE8   3 008   30131  RESOURCE,R3
  30218  00003B72  00000001 USING  ORDINARY    00000000 00001000 FFFFFFFB   3 000          @R3,3
  30239  00003B78  00000001 USING  ORDINARY    00000000 00001000 FFFFFFF9   5 000          @R5,5
  30242  00003B78  00000001 USING  ORDINARY    00000000 00001000 FFFFFFE7   3 000   30263  JCB,R3
  30405  00003BEC  00000001 USING  ORDINARY    00000000 00001000 FFFFFFE7   5 0D0   31216  JCB,5
  30410  00003BEC  00000001 USING  ORDINARY    00000000 00001000 FFFFFFFB   3 052   33447  @R3,3
  30418  00003BF0  00000001 USING  ORDINARY    00000000 00001000 FFFFFFFA   4 000          @R4,4
  30479  00003C0A  00000001 USING  ORDINARY    00000000 00001000 FFFFFFF3  11 000          @R11,11
  30482  00003C0A  00000001 USING  ORDINARY    00000000 00001000 FFFFFFEC   4 75C   31121  CP,R4
  31140  00003DF8  00000001 USING  ORDINARY    00000000 00001000 FFFFFFEC  11 060   32786  CP,11
  31145  00003DF8  00000001 USING  ORDINARY    00000000 00001000 FFFFFFFA   4 004   33244  @R4,4
  31255  00003E20  00000001 USING  ORDINARY    00000000 00001000 FFFFFFF9   5 001   31454  @R5,5
  31261  00003E20  00000001 USING  ORDINARY    00000000 00001000 FFFFFFF7   7 000          @R7,7
  31288  00003E3A  00000001 USING  ORDINARY    00003E3A 00001000 00000001   7 A28   31484  $$$409B,BR
  31503  00003EE2  00000001 USING  ORDINARY    00000000 00001000 FFFFFFF7   7 000          @R7,7
  31553  00003EFC  00000001 USING  ORDINARY    00003EFC 00001000 00000001   7 984   32367  $$$413B,BR
  31562  00003EFC  00000001 USING  ORDINARY    00000000 00001000 FFFFFFC3   8 020   31667  TCOREWA,WAR
  32390  0000417E  00000001 USING  ORDINARY    0000417E 00001000 00000001  15 5F6   32409  $$$434B,R15
  32405  0000417E  00000001 USING  ORDINARY    00000000 00001000 FFFFFFCA   1 04C   32409  EPIE,R1
  32416  00004186  00000001 USING  ORDINARY    00000000 00001000 FFFFFFFD   1 005   33943  @R1,1
  32422  00004186  00000001 USING  ORDINARY    00000000 00001000 FFFFFFEF  15 000          @R15,15
  32447  000041A0  00000001 USING  ORDINARY    00000000 00001000 FFFFFFF7   7 000          @R7,7
  32450  000041A0  00000001 USING  ORDINARY    000041A0 00001000 00000001   7 664   32789  $$$435B,BR
  32463  000041A8  00000001 USING  ORDINARY    00000000 00001000 FFFFFFC6   6 016   32752  LOC,R6
  32806  000042AC  00000001 USING  ORDINARY    00000000 00001000 FFFFFFF8   6 000   32940  @R6,6
  32833  000042C6  00000001 USING  ORDINARY    00000000 00001000 FFFFFFF7   7 000          @R7,7
  32836  000042C6  00000001 USING  ORDINARY    000042C6 00001000 00000001   7 5BC   32965  $$$441B,BR
  32907  000042EE  00000001 USING  ORDINARY    00000000 00001000 FFFFFFC7  15 010   32964  SYMBOL,R15
  32991  00004320  00000001 USING  ORDINARY    00000000 00001000 FFFFFFEF  15 000          @R15,15
  32997  00004320  00000001 USING  ORDINARY    00000000 00001000 FFFFFFF7   7 000          @R7,7
  33025  0000433A  00000001 USING  ORDINARY    0000433A 00001000 00000001   7 3B6   33257  $$$450B,BR
  33035  0000433C  00000001 USING  ORDINARY    00000000 00001000 FFFFFFC6   6 016   33263  LOC,R6
  33066  0000435C  00000001 USING  ORDINARY    00000000 00001000 FFFFFFC7   5 010   33263  SYMBOL,R5
  33287  000043F2  00000001 USING  ORDINARY    00000000 00001000 FFFFFFF9   5 000   33528  @R5,5
  33294  000043F2  00000001 USING  ORDINARY    00000000 00001000 FFFFFFF8   6 000          @R6,6
  33300  000043F2  00000001 USING  ORDINARY    00000000 00001000 FFFFFFF7   7 000          @R7,7
  33327  0000440C  00000001 USING  ORDINARY    0000440C 00001000 00000001   7 482   33622  $$$462B,BR
  33337  0000440E  00000001 USING  ORDINARY    00000000 00001000 FFFFFFE6   6 00C   33621  SEGCB,R6
  33647  000044CE  00000001 USING  ORDINARY    00000000 00001000 FFFFFFF8   6 000          @R6,6
  33653  000044CE  00000001 USING  ORDINARY    00000000 00001000 FFFFFFF7   7 000          @R7,7
  33697  000045EA  00000001 USING  ORDINARY    000045EA 00001000 00000001   7 2AA   33699  $$$481B,BR
  33713  000045FC  00000001 USING  ORDINARY    00000000 00001000 FFFFFFF7   7 000          @R7,7
  33737  00004616  00000001 USING  ORDINARY    00004616 00001000 00000001   7 2B2   33739  $$$482B,BR
1FAIL     (FAIL2025) (12:44) (15MAR04) Using Map                                                                            Page  134
  33753  00004628  00000001 USING  ORDINARY    00000000 00001000 FFFFFFF7   7 000          @R7,7
  33937  00004960  00000001 USING  ORDINARY    00004960 00001000 00000001  15 000          $$$483B,R15
  33951  00004966  00000001 USING  ORDINARY    00000000 00001000 FFFFFFEF  15 000          @R15,15

1         (FAIL2025) (12:44) (15MAR04) General Purpose Register Cross Reference                                             Page  135
- Register  References (M=modified, B=branch, U=USING, D=DROP, N=index)                      HLASM R4.0  2004/03/15 12.44
0    0(0)      982U   983D  2181   2249M  2249   2250M 13682M 13682  13688M 13696  13697M 13698  13704M 13734M 13798M
             13844M 14045M 14240M 14265M 14265  14595  14703M 14750M 14786M 14786  14803M 14838M 14855M 14882M 14899M
             14932M 14960M 14977M 15012M 15126M 15204M 15232M 15249M 15275M 15297M 15298M 15354M 15646M 15651M 15660M
             15670M 15848M 15848  15849M 15850  15908M 16015  16051M 16051  16060  16061  16168M 16189M 16189  16205M
             16340M 16406  16432M 16434  16477M 16504  16568M 16591M 16636M 16663M 16680M 16707M 16770M 16832M 16871M
             16890M 16914M 16947M 16960M 16992M 17048M 17085M 17122M 17159M 17196M 17234M 17296M 17296  17313M 17420M
             17448M 17465M 17561M 17589M 17606M 17627M 17627  17644M 17714M 17734M 17734  17751M 17781M 17781  17815M
             17893  17953M 17953  17962  17963  18031M 18052M 18052  18068M 18201M 18267  18293M 18295  18338M 18363
             18404  18468M 18468  18477  18478  18519M 18545M 18566M 18566  18600M 18643M 18686M 18698M 18714M 18736M
             18865M 18956  19008  19009  19061M 19087  19154M 19154  19163  19164  19165  19196M 19196  19260M 19265M
             19265  19332  19423M 19423  19432  19433  19434  19465M 19465  19535M 19547  19559M 19564  19572M 19572
             19581  19582  19650M 19673M 19677  19679M 19682  19694M 19776M 19805M 19884M 19905M 20004  20050M 20071
             20158M 20170  20182M 20187  20202M 20276M 20276  20305M 20321M 20344  20379M 20379  20388  20389  20390
             20421M 20421  20432  20491M 20491  20500  20501  20502  20534  20624M 20624  20633  20634  20635  20666M
             20666  20676  20694M 20742M 20768  20810M 20833M 20858  20917M 20917  20926  20927  20928  20959M 20959
             20976  21029M 21061M 21175M 21208M 21208  21209M 21227M 21249M 21280M 21316M 21338M 21338  21377M 21390M
             21390  21412M 21412  21433M 21433  21468M 21600  21728M 21753M 21755M 21887  21969M 21997M 22015M 22037M
             22037  22063M 22076M 22349M 22549M 22557M 22605M 22760M 22762M 22765M 22940M 22940  22958M 22976M 22994M
             23012M 23030M 23048M 23085M 23103M 23144M 23144  23162M 23222M 23222  23277M 23277  23305M 23330M 23330
             23348M 23361M 23395M 23395  23413M 23473M 23547  23774  23959  24067  24259M 24478M 24525M 24557M 24593M
             24621M 24639M 24661M 24723M 24723  24748M 24748  24776M 24801M 24801  24826M 24826  24855M 24892M 24914M
             24914  24931M 24931  24956M 24956  24975M 25097M 25127M 25143M 25164M 25189M 25223M 25245M 25245  25255M
             25289M 25319M 25319  25337M 25456M 25474M 25501M 25501  25527M 25527  25545M 25558M 25576M 25576  25633M
             25633  25651M 25664M 25722M 25722  25747M 25747  25765M 25778M 25824M 25824  25842M 25890M 25912M 25912
             25929M 25929  25948M 25966M 25979M 25998M 25998  26016M 26038M 26038  26055M 26055  26074M 26092M 26105M
             26141M 26141  26163M 26163  26181M 26215M 26253M 26291M 26320M 26320  26441M 26465M 26465  26482M 26509M
             26526M 26553M 26570M 26606M 26606  26638M 26638  26671M 26692M 26720M 26754M 26780M 26809M 26809  26870M
             26870  26895M 26895  26913M 26938M 26938  26955M 26965M 26987M 27012M 27012  27070M 27070  27091M 27116M
             27116  27144M 27172M 27276M 27306M 27334M 27352M 27374M 27374  27387M 27424M 27424  27434M 27472M 27497M
             27527M 27552M 27570M 27587M 27588M 27642M 27667M 27667  27704M 27731M 27748M 27773M 27830M 27854M 27875M
             27875  27900M 27900  27922M 27941M 27943M 27952M 27952  27959M 27974M 27974  27988  27994M 28068M 28082M
             28099M 28099  28117M 28142M 28195M 28219M 28224M 28224  28257M 28281M 28286M 28286  28316M 28316  28341M
             28341  28359M 28384M 28384  28442M 28447M 28654M 28679M 28709M 28734M 28844M 28874M 28902M 28938M 29046M
             29046  29047M 29076M 29076  29183M 29201M 29222M 29222  29268M 29296M 29314M 29342M 29378M 29406M 29406
             29433M 29454M 29454  29472M 29523M 29566M 29587M 29587  29605M 29646M 29684M 29722M 29760M 29798M 29836M
             29875M 29899M 29917M 29956M 30019M 30019  30037M 30145M 30173M 30191M 30288M 30316M 30334M 30356M 30356
             30374M 30435M 30435  30492M 30516M 30540M 30540  30557M 30584M 30601M 30628M 30645M 30677M 30690M 30722M
             30743M 30768M 30805M 30805  30845M 30912M 30951M 30970M 30993M 30993  31010M 31031M 31031  31048M 31072M
             31072  31107M 31122M 31202M 31202  31291  31301M 31301  31380M 31402M 31402  31420M 31441M 31441  31449M
             31473M 31473  31566  31579M 31649M 31649  31680M 31778M 31803M 31821M 31883M 31915M 31945M 32007M 32025M
             32058M 32078M 32122M 32146M 32202M 32220M 32253M 32273M 32309M 32309  32327M 32353M 32353  32371M 32452
             32481M 32517M 32545M 32580M 32601M 32601  32623M 32672M 32700M 32735M 32756M 32756  32778M 32852M 32852
             32866  32879  33042M 33042  33047  33052  33383  33395M 33401  33572M 33592M 33592  33597  33602  33631M
             33631
     1(1)      978U  2181   2244M  2245M  2251M 13691M 13693  13694  13695  13697  13703M 13703  13704M 13723M 13735M
             13735  13753M 13787M 13799M 13799  13817M 13833M 13845M 13845  13863M 14044M 14235M 14595  14698M 14749M
             14782M 14802M 14833M 14854M 14877M 14898M 14931M 14955M 14976M 15007M 15121M 15144M 15148  15203M 15227M
             15248M 15270M 15309M 15354M 15403M 15423M 15428  15837D 15839M 15839  15840M 15841U 15850  15861M 15878M
             15899M 16015  16047M 16060N 16061N 16063N 16167M 16185M 16204M 16211M 16265M 16340M 16406  16477M 16504
             16532  16567M 16584M 16629M 16658M 16679M 16702M 16769M 16837M 16870M 16889M 16907M 16946M 16991M 17047M
             17084M 17121M 17158M 17195M 17233M 17292M 17312M 17419M 17443M 17464M 17560M 17584M 17605M 17623M 17643M
             17713M 17730M 17750M 17815M 17893  17949M 17962N 17963N 17965N 18030M 18048M 18067M 18074M 18126M 18201M
             18267  18338M 18363  18404  18464M 18477N 18478N 18480N 18518M 18544M 18562M 18599M 18642M 18685M 18697M
             18713M 18735M 18859M 18956  19061M 19087  19150M 19163N 19164N 19165N 19186M 19187M 19187N 19255M 19332
             19419M 19432N 19433N 19434N 19455M 19456M 19456N 19534M 19568M 19581N 19582N 19584N 19649M 19669M 19775M
1         (FAIL2025) (12:44) (15MAR04) General Purpose Register Cross Reference                                             Page  136
             19804M 19883M 19905M 20004  20050M 20071  20157M 20202M 20298M 20320M 20344  20375M 20388N 20389N 20390N
             20411M 20412M 20412N 20431  20487M 20500N 20501N 20502N 20620M 20633N 20634N 20635N 20656M 20657M 20657N
             20675  20689M 20742M 20768  20803M 20833M 20858  20913M 20926N 20927N 20928N 20949M 20950M 20950N 20976
             21028M 21056M 21174M 21201M 21226M 21248M 21269D 21271M 21271  21272M 21273U 21315M 21334M 21377M 21468M
             21648  21659  21721M 21722M 21722  21731M 21733  21743  21754M 21755M 21779M 21781M 21781  21800M 21803
             21804M 21805  21817M 21819M 21819  21921M 21964M 21992M 22014M 22062M 22076M 22127M 22189M 22348M 22511M
             22513M 22513  22515M 22522  22524  22525  22526  22530M 22532M 22532  22541M 22546M 22546  22600M 22761M
             22762M 22764M 22768M 22768  22872  22957M 22975M 22993M 23011M 23029M 23047M 23084M 23102M 23161M 23300M
             23347M 23362M 23412M 23467M 23571  23613M 23615M 23615  23634M 23637  23638M 23639  23651M 23653M 23653
             23679M 23687M 23703M 23705M 23705  23707M 23714  23718M 23720M 23720  23798  23840M 23842M 23842  23861M
             23864  23865M 23866  23878M 23880M 23880  23896M 23898M 23898  23900M 23907  23911M 23913M 23913  23959
             24067  24208M 24210M 24210  24223M 24225M 24225  24259M 24373  24434M 24477M 24520M 24552M 24592M 24616M
             24638M 24660M 24769M 24850M 24891M 24974M 25090M 25120M 25142M 25163M 25188M 25222M 25254M 25288M 25315M
             25336M 25451M 25473M 25544M 25559M 25650M 25665M 25764M 25778M 25841M 25856M 25889M 25947M 25965M 25980M
             26015M 26073M 26091M 26106M 26159M 26180M 26214M 26252M 26290M 26440M 26481M 26504M 26525M 26548M 26569M
             26602M 26670M 26691M 26715M 26753M 26775M 26912M 26954M 26964M 26986M 27025M 27090M 27139M 27167M 27269M
             27299M 27329M 27351M 27433M 27471M 27490M 27520M 27545M 27569M 27589M 27641M 27703M 27726M 27747M 27768M
             27829M 27850M 27921M 27935M 27936M 27938  28067M 28081M 28082N 28090M 28116M 28137M 28194M 28215M 28256M
             28277M 28358M 28421M 28427M 28428  28431  28437  28439M 28439  28440M 28442M 28443M 28443  28446M 28446
             28447  28448M 28624  28661M 28672M 28716M 28727M 28833D 28835M 28835  28836M 28837U 28867M 28897M 29039M
             29143  29176M 29200M 29218M 29261M 29291M 29313M 29337M 29377M 29398D 29400M 29400  29401M 29402U 29432M
             29450M 29471M 29522M 29565M 29583M 29604M 29645M 29683M 29721M 29759M 29797M 29835M 29874M 29892M 29916M
             29955M 30015M 30036M 30144M 30168M 30190M 30287M 30311M 30333M 30352M 30373M 30491M 30509M 30556M 30579M
             30600M 30623M 30644M 30676M 30721M 30742M 30764M 30807M 30807  30844M 30917M 30950M 30969M 30989M 31009M
             31027M 31047M 31106M 31121M 31216M 31228  31238M 31238  31243M 31243  31293  31379M 31398M 31419M 31448M
             31565  31572M 31583  31673M 31796M 31820M 31876M 31908M 31938M 32024M 32040M 32077M 32219M 32235M 32272M
             32326M 32368M 32405U 32416U 32466M 32476M 32516M 32540M 32579M 32597M 32622M 32671M 32695M 32734M 32752M
             32777M 33027  33400  33429M 33431  33699M 33739M
     2(2)      974U  2181  13656  13695M 13704M 14006M 14026  14050M 14297M 14320  14595  14763M 14773U 14822U 15354M
             15620M 15630U 15680U 16015  16229M 16245U 16265  16294M 16311  16323U 16340M 16406  16477M 16504  16820M
             16837  17498M 17498  17538M 17623  17815M 17893  18090M 18106U 18126  18155M 18172  18184U 18201M 18267
             18338M 18363  18404  18956  19061M 19087  19145M 19255  19332  19415M 19669  19905M 20004  20050M 20071
             20202M 20298  20344  20432M 20676M 20694  20742M 20768  20833M 20858  21468M 21800  21801M 21802  21803M
             22195M 22205U 22224U 23634  23635M 23636  23637M 23660M 23861  23862M 23863  23864M 23959  24067  24259M
             24358  24412M 25395D 25397M 25397  25398M 25671M 26743M 26744M 26744  26780  27816M 27850  27939M 27940M
             27940N 27941  27942M 27943  28035M 28044M 28045M 28045N 28054M 28054  28090  28180M 28181M 28181  28215
             28242M 28243M 28243  28277  28398M 28427  28466M 28609  28627M 28696M 28697M 28702  28742M 29128  30224M
             30224  30264M 30352  30900M 30917  31247M 31275  31321M 31321  31322M 31331M 31331  31496M 31540  31698M
             31699M 31720M 31720  31726M 31727M 31755M 31755  31761M 31896M 31976M 31990M 31990  32109M 32122  32151M
             32185  32377M 32434  32798M 32820  32982M 33012  33076M 33076  33145M 33163  33191  33279M 33314  33420M
             33421M 33422  33456  33639M 33684  33706M 33724  33746M
     3(3)      970U  2181  13656  13696M 13704M 14006M 14026  14297M 14301M 14325B 14595  15354M 15393M 15567M 15634M
             15685  15728  16015  16340M 16406  16477M 16504  17364M 17374U 17389  17395M 17492U 17494M 17516U 17531
             17537M 17548  17680U 17815M 17893  18201M 18267  18338M 18363  18404  18956  19061M 19087  19147M 19237M
             19260  19332  19905M 20004  20050M 20071  20202M 20344  20431M 20675M 20689  20742M 20768  20833M 20858
             21468M 21783M 21793U 21812U 23617M 23627U 23646U 23844M 23854U 23873U 23959  24067  24259M 24358  28156M
             28166U 28301U 28466M 28609  28628M 28629M 28642M 28647  28742M 29128  30088M 30098U 30113  30119M 30218U
             30220M 30242U 30257  30263M 30274  30410U 31247M 31275  31291M 31292M 31312M 31312  31322M 31496M 31540
             31731M 31731  31763M 31763N 31796  31865M 32108M 32377M 32434  32798M 32820  32982M 33012  33078M 33078
             33128M 33179M 33179  33191  33237  33279M 33314  33403M 33429  33639M 33684  33706M 33724  33746M
     4(4)      966U  2181  13656  13897M 13905U 13948M 14001U 14006M 14026  14297M 14595  15354M 15505M 15506M 15506
             15524U 15772U 16015  16340M 16406  16477M 16504  16736M 16737M 16737  16760U 17023U 17223M 17224M 17224
             17264U 17286U 17331M 17345  17360U 17682M 17688U 17815M 17893  18201M 18267  18338M 18363  18404  18535U
             18850  18889U 18956  19009M 19010M 19011M 19023  19039  19061M 19087  19332  19905M 20004  20050M 20071
             20202M 20344  20742M 20768  20833M 20858  21293M 21334  21468M 21889M 21899U 22186U 22287M 22288M 22288
             22403U 22499U 23251M 23261U 23431U 23959  24067  24156M 24157M 24157  24181U 24232U 24259M 24358  25042D
             25044M 25044  25045M 25046U 25066  25081U 25090  25597M 25603U 26583M 26593U 26625U 27201M 27217U 27221M
             27233  27240M 27241M 27609  27620U 28466M 28609  28742M 29128  29495M 29496M 29496  29504N 29944M 29945M
             29945  29986U 30008U 30055M 30069  30084U 30412M 30418U 30458M 30459M 30459  30482U 31145U 31247M 31275
1         (FAIL2025) (12:44) (15MAR04) General Purpose Register Cross Reference                                             Page  137
             31293M 31455M 31496M 31540  31585M 31598M 31598  31698  31726  31762M 31966M 32160M 32377M 32434  32798M
             32820  32982M 33012  33068M 33070M 33071M 33106  33198  33243M 33244M 33256  33262  33279M 33314  33401M
             33420  33495M 33495  33501  33572  33639M 33684  33706M 33724  33746M
     5(5)      962U  2181  13656  13882M 13883M 13883  13897  14006M 14026  14084M 14092U 14135M 14188U 14297M 14595
             15354M 15392M 15393  15401U 15925U 16015  16044M 16044  16107M 16107  16113M 16129M 16129  16144U 16211
             16222U 16340M 16406  16433M 16434M 16446  16462  16477M 16504  16532M 16542U 17261U 17281U 17407  17513U
             17548  17675U 17802U 17815M 17893  17946M 17946  17992M 17992  18007U 18074  18085U 18201M 18267  18294M
             18295M 18307  18323  18338M 18363  18404  18461M 18461  18507M 18507  18956  18993M 18993  19008M 19039
             19061M 19087  19332  19905M 20004  20050M 20071  20202M 20344  20742M 20768  20833M 20858  20994M 21004U
             21360U 21468M 22899M 22909U 23458  23489U 23582M 23726B 23809M 23919B 23959  24067  24140M 24150U 24237U
             24259M 24358  24988M 24998U 25004M 25005M 25005  25012U 25021U 25066  25614U 25688M 25706U 26125U 26364M
             26390U 26836U 27186M 27196U 27631U 28466M 28609  28742M 28781  28796M 29089M 29098M 29106U 29128  29143M
             29151U 29634  29983U 30003U 30131  30239U 30274  30405U 31247M 31255U 31275  31297M 31297  31398  31454M
             31496M 31540  31566M 31585  31859M 31859  32377M 32434  32452M 32481  32798M 32820  32982M 33012  33055M
             33056M 33056  33066U 33128  33145  33150M 33163M 33237M 33279M 33287U 33314  33400M 33639M 33684  33706M
             33724  33746M
     6(6)      958U  2181  13656  14006M 14026  14065M 14066M 14066  14084  14201U 14276M 14288U 14297M 14595  14632M
             14642U 15336U 15354M 16015  16340M 16406  16477M 16504  17815M 17893  18201M 18267  18338M 18363  18404
             18956  19061M 19087  19332  19368M 19376U 19905M 20004  20050M 20071  20202M 20213U 20344  20437M 20437
             20472D 20474M 20474  20475M 20476U 20742M 20768  20833M 20858  21468M 21648M 21656U 22637U 23571M 23579U
             23734U 23798M 23806U 23927U 23959  23985M 24037  24067  24259M 24358  24373M 24381U 25703U 26120U 28466M
             28474U 28609  28624M 28672  28727  28742M 28781  29098M 29128  31247M 31275  31496M 31540  31565M 31693M
             31764M 31764N 31865  31958M 32108  32152M 32377M 32434  32454M 32463U 32466  32798M 32806U 32820  32876M
             32982M 33012  33027M 33035U 33279M 33294U 33314  33329M 33337U 33639M 33647U 33684  33706M 33724  33746M
     7(7)      954U  2174M  2174   2175B  2181   2187B 13656  13659M 13669U 14006M 14013U 14026  14029M 14039U 14297M
             14353U 14595  14601M 14613U 15346U 15354M 15372M 15382U 15931U 16015  16020M 16032U 16332U 16340M 16406
             16411M 16423U 16469U 16477M 16504  16509M 16521U 17807U 17815M 17893  17898M 17910U 18193U 18201M 18267
             18272M 18284U 18330U 18338M 18363  18368M 18380U 18404  18409M 18421U 18424U 18956  18961M 18973U 18976U
             19050U 19053U 19061M 19087  19092M 19104U 19107U 19277U 19332  19338M 19350U 19897U 19905M 20004  20009M
             20021U 20042U 20050M 20071  20076M 20088U 20194U 20202M 20219M 20229U 20344  20349M 20361U 20364U 20731U
             20734U 20742M 20768  20773M 20785U 20788U 20822U 20825U 20833M 20858  20863M 20875U 20878U 21457U 21460U
             21468M 21626M 21636U 21639U 22643U 22653M 22663U 23512U 23586M 23596U 23740U 23813M 23823U 23933U 23959
             23964M 23976U 24046U 24067  24072M 24084U 24251U 24259M 24358  24361M 24371U 28466M 28480U 28609  28612M
             28622U 28742M 28749U 28781  28784M 28794U 29098M 29112U 29128  29131M 29141U 31247M 31261U 31275  31278M
             31288U 31496M 31503U 31540  31543M 31553U 32377M 32434  32437M 32447U 32450U 32798M 32820  32823M 32833U
             32836U 32982M 32997U 33012  33015M 33025U 33279M 33300U 33314  33317M 33327U 33639M 33653U 33684  33687M
             33697U 33706M 33713U 33724  33727M 33737U 33746M 33753U
     8(8)      950U  2181  13656  13657M 14004  14006M 14026  14027M 14295  14297M 14595  14597M 14627U 15341U 15350
             15354M 16015  16016M 16336  16340M 16406  16407M 16462N 16473  16477M 16504  16505M 17811  17815M 17893
             17894M 18197  18201M 18267  18268M 18323N 18334  18338M 18363  18364M 18404  18405M 18956  18957M 19039
             19057  19061M 19087  19088M 19332  19334M 19364U 19892U 19901  19905M 20004  20005M 20046  20050M 20071
             20072M 20198  20202M 20344  20345M 20738  20742M 20768  20769M 20829  20833M 20858  20859M 21464  21468M
             22566M 22668M 23606M 23833M 23959  23960M 24067  24068M 24255  24259M 24358  24359M 28464  28466M 28609
             28610M 28740  28742M 28781  28782M 29096  29098M 29128  29129M 31245  31247M 31275  31276M 31494  31496M
             31540  31541M 31562U 32375  32377M 32434  32435M 32796  32798M 32820  32821M 32980  32982M 33012  33013M
             33277  33279M 33314  33315M 33637  33639M 33684  33685M 33704  33706M 33724  33725M 33744  33746M
     9(9)      946U  2181
    10(A)      942U  2181
    11(B)      938U  1245U  2181  10886B 10887B 16576N 16599N 16644N 16671N 16688N 16715N 16757U 16778N 16860N 16879N
             16898N 16922N 16955N 16983N 17000N 17018U 17056N 17093N 17130N 17167N 17204N 17242N 17304N 17321N 17428N
             17456N 17473N 17569N 17597N 17614N 17635N 17652N 17722N 17742N 17759N 21646M 21646  21772  22723M 22812M
             22812  22841M 23603M 23603  23830M 23830  26387U 26449N 26473N 26490N 26517N 26534N 26561N 26578N 26614N
             26646N 26679N 26700N 26728N 26762N 26788N 26817N 26831U 30479U 30500N 30524N 30548N 30565N 30592N 30609N
             30636N 30653N 30685N 30713N 30730N 30751N 30835N 30853N 30940N 30959N 30978N 31001N 31018N 31039N 31056N
             31080N 31115N 31140U
    12(C)      934U  1254U  2181  21642M 22563M 22665M 23599M 23826M 27726
    13(D)      930U  2181  13656  13657  13658M 13658  14004M 14005  14006  14026  14027  14028M 14028  14295M 14296
             14297  14592  14595  14597  14598M 14598  15350M 15354  15356  16012  16015  16016  16017M 16017  16055
             16056  16057  16059M 16059  16072M 16073  16074  16075  16336M 16340  16342  16403  16406  16407  16408M
1         (FAIL2025) (12:44) (15MAR04) General Purpose Register Cross Reference                                             Page  138
             16408  16473M 16477  16479  16501  16504  16505  16506M 16506  16820  16821M 16821  16866M 17811M 17815
             17817  17890  17893  17894  17895M 17895  17957  17958  17959  17961M 17961  17974M 17975  17976  17977
             18197M 18201  18203  18264  18267  18268  18269M 18269  18334M 18338  18340  18360  18363  18364  18365M
             18365  18401  18404  18405  18406M 18406  18472  18473  18474  18476M 18476  18489M 18490  18491  18492
             18953  18956  18957  18958M 18958  19057M 19061  19063  19084  19087  19088  19089M 19089  19158  19159
             19160  19162M 19162  19174M 19175  19176  19177  19329  19332  19334  19335M 19335  19427  19428  19429
             19431M 19431  19443M 19444  19445  19446  19576  19577  19578  19580M 19580  19593M 19594  19595  19596
             19901M 19905  19907  20001  20004  20005  20006M 20006  20046M 20050  20052  20068  20071  20072  20073M
             20073  20198M 20202  20204  20341  20344  20345  20346M 20346  20383  20384  20385  20387M 20387  20399M
             20400  20401  20402  20495  20496  20497  20499M 20499  20511M 20512  20513  20514  20628  20629  20630
             20632M 20632  20644M 20645  20646  20647  20738M 20742  20744  20765  20768  20769  20770M 20770  20829M
             20833  20835  20855  20858  20859  20860M 20860  20921  20922  20923  20925M 20925  20937M 20938  20939
             20940  20976  20977M 20977  21168  21169M 21169  21189M 21190  21376M 21377  21464M 21468  21470  22565M
             22566  22667M 22668  23605M 23606  23832M 23833  23956  23959  23960  23961M 23961  24064  24067  24068
             24069M 24069  24255M 24259  24261  24358  24359  24360M 24360  24679  24680M 24680  24710M 25780  25781M
             25781  25811M 28464M 28465  28466  28609  28610  28611M 28611  28740M 28741  28742  28781  28782  28783M
             28783  29096M 29097  29098  29128  29129  29130M 29130  30900  30901M 30901  30946M 31245M 31246  31247
             31275  31276  31277M 31277  31494M 31495  31496  31540  31541  31542M 31542  31583  31584M 31584  32040
             32041M 32041  32072M 32235  32236M 32236  32267M 32367M 32368  32375M 32376  32377  32434  32435  32436M
             32436  32454  32455M 32455  32796M 32797  32798  32820  32821  32822M 32822  32876  32877M 32877  32980M
             32981  32982  33012  33013  33014M 33014  33277M 33278  33279  33314  33315  33316M 33316  33637M 33638
             33639  33684  33685  33686M 33686  33704M 33705  33706  33724  33725  33726M 33726  33744M 33745  33746
    14(E)      926U  2181   2182M  2196   2197M  2198B  2200M  2201B  2221M  2222B  2226M  2227B  2229M  2230B  2232M
              2233B  2235M  2236B  2238M  2239M  2239B  2245  13654  14005M 14007B 14024  14052M 14251M 14252M 14252B
             14274M 14275M 14275B 14296M 14298B 14301  14311M 14312M 14312B 14592  14714M 14715M 14715B 14761M 14762M
             14762B 14797M 14798M 14798B 14814M 14815M 14815B 14849M 14850M 14850B 14866M 14867M 14867B 14893M 14894M
             14894B 14910M 14911M 14911B 14943M 14944M 14944B 14971M 14972M 14972B 14988M 14989M 14989B 15023M 15024M
             15024B 15137M 15138M 15138B 15198M 15199M 15199B 15215M 15216M 15216B 15243M 15244M 15244B 15260M 15261M
             15261B 15286M 15287M 15287B 15356M 15359B 15389M 15390M 15390B 16012  16054M 16055  16056  16057  16062M
             16063  16066M 16067M 16067B 16070M 16073  16074  16075  16080M 16081M 16081B 16179M 16180M 16180B 16200M
             16201M 16201B 16214M 16215M 16215B 16268M 16269M 16269B 16280M 16281M 16281B 16342M 16345B 16403  16455M
             16456M 16456B 16479M 16482B 16501  16579M 16580M 16580B 16602M 16603M 16603B 16647M 16648M 16648B 16674M
             16675M 16675B 16691M 16692M 16692B 16718M 16719M 16719B 16781M 16782M 16782B 16792M 16792  16793M 16805
             16840M 16841M 16841B 16863M 16864M 16864B 16882M 16883M 16883B 16901M 16902M 16902B 16925M 16926M 16926B
             16958M 16959M 16959B 16963M 16964M 16964B 16986M 16987M 16987B 17003M 17004M 17004B 17059M 17060M 17060B
             17096M 17097M 17097B 17133M 17134M 17134B 17170M 17171M 17171B 17207M 17208M 17208B 17245M 17246M 17246B
             17307M 17308M 17308B 17324M 17325M 17325B 17431M 17432M 17432B 17459M 17460M 17460B 17476M 17477M 17477B
             17572M 17573M 17573B 17600M 17601M 17601B 17617M 17618M 17618B 17638M 17639M 17639B 17655M 17656M 17656B
             17725M 17726M 17726B 17745M 17746M 17746B 17762M 17763M 17763B 17792M 17793M 17793B 17817M 17820B 17890
             17937M 17938M 17938B 17956M 17957  17958  17959  17964M 17965  17968M 17969M 17969B 17972M 17975  17976
             17977  17982M 17983M 17983B 18042M 18043M 18043B 18063M 18064M 18064B 18077M 18078M 18078B 18129M 18130M
             18130B 18141M 18142M 18142B 18203M 18206B 18264  18316M 18317M 18317B 18340M 18343B 18360  18401  18451M
             18452M 18452B 18471M 18472  18473  18474  18479M 18480  18483M 18484M 18484B 18487M 18490  18491  18492
             18497M 18498M 18498B 18556M 18557M 18557B 18577M 18578M 18578B 18709M 18710M 18710B 18763M 18764M 18764B
             18869M 18870M 18870B 18953  19002M 19003M 19003B 19032M 19033M 19033B 19063M 19066B 19084  19134M 19135M
             19135B 19143M 19144M 19144B 19157M 19158  19159  19160  19168M 19169M 19169B 19172M 19175  19176  19177
             19182M 19183M 19183B 19215M 19216M 19216B 19231M 19232M 19232B 19245M 19246M 19246B 19268M 19269M 19269B
             19329  19404M 19405M 19405B 19413M 19414M 19414B 19426M 19427  19428  19429  19437M 19438M 19438B 19441M
             19444  19445  19446  19451M 19452M 19452B 19477M 19478M 19478B 19493M 19494M 19494B 19528M 19529M 19529B
             19575M 19576  19577  19578  19583M 19584  19587M 19588M 19588B 19591M 19594  19595  19596  19601M 19602M
             19602B 19661M 19662M 19662B 19702M 19703M 19703B 19808M 19809M 19809B 19907M 19910B 20001  20052M 20055B
             20068  20100M 20101M 20101B 20116M 20117M 20117B 20151M 20152M 20152B 20204M 20207B 20287M 20288M 20288B
             20316M 20317M 20317B 20341  20382M 20383  20384  20385  20393M 20394M 20394B 20397M 20400  20401  20402
             20407M 20408M 20408B 20447M 20448M 20448B 20494M 20495  20496  20497  20505M 20506M 20506B 20509M 20512
             20513  20514  20519M 20520M 20520B 20556M 20557N 20572N 20587N 20588N 20589  20589  20590N 20591N 20604N
             20608M 20608  20627M 20628  20629  20630  20638M 20639M 20639B 20642M 20645  20646  20647  20652M 20653M
             20653B 20697M 20698M 20698B 20713M 20714M 20714B 20744M 20747B 20765  20835M 20838B 20855  20905M 20906M
             20906B 20920M 20921  20922  20923  20931M 20932M 20932B 20935M 20938  20939  20940  20945M 20946M 20946B
             20968M 20969M 20969B 20987M 20988M 20988B 21040M 21041M 21041B 21072M 21073M 21073B 21186M 21187M 21187B
1         (FAIL2025) (12:44) (15MAR04) General Purpose Register Cross Reference                                             Page  139
             21220M 21221M 21221B 21238M 21239M 21239B 21260M 21261M 21261B 21291M 21292M 21292B 21327M 21328M 21328B
             21349M 21350M 21350B 21380M 21381M 21381B 21399M 21400M 21400B 21415M 21416M 21416B 21444M 21445M 21445B
             21470M 21473B 21610B 21660  21743M 21755M 21759M 21760M 21760B 21766M 21767M 21767B 21770M 21771M 21771B
             21824M 21825M 21825B 21885M 21886M 21886B 21924M 21925M 21925B 21952M 21953M 21953B 21980M 21981M 21981B
             22008M 22009M 22009B 22026M 22027M 22027B 22040M 22041M 22041B 22074M 22075M 22075B 22099M 22100M 22100B
             22178M 22179M 22179B 22192M 22193M 22193B 22358M 22359M 22359B 22370M 22371M 22371B 22534M 22535B 22570M
             22571M 22571B 22614M 22615M 22615B 22627M 22628M 22628B 22672M 22673M 22673B 22726M 22727M 22727B 22750M
             22762M 22815M 22816M 22816B 22853M 22854M 22854B 22859M 22860M 22860B 22865M 22866M 22866B 22870M 22871M
             22871B 22896M 22897M 22897B 22926M 22927M 22927B 22951M 22952M 22952B 22969M 22970M 22970B 22987M 22988M
             22988B 23005M 23006M 23006B 23023M 23024M 23024B 23041M 23042M 23042B 23059M 23060M 23060B 23096M 23097M
             23097B 23114M 23115M 23115B 23155M 23156M 23156B 23173M 23174M 23174B 23233M 23234M 23234B 23288M 23289M
             23289B 23316M 23317M 23317B 23341M 23342M 23342B 23359M 23360M 23360B 23365M 23366M 23366B 23406M 23407M
             23407B 23420M 23421M 23421B 23477M 23478M 23478B 23557B 23582  23658M 23659M 23659B 23697M 23698M 23698B
             23784B 23809  23885M 23886M 23886B 23890M 23891M 23891B 23956  23988M 24009M 24010M 24011B 24019M 24020M
             24020B 24023M 24024M 24024B 24027M 24028M 24028B 24031M 24032M 24032B 24035M 24036M 24036B 24038M 24039B
             24064  24113M 24114M 24114B 24118M 24119M 24119B 24123M 24124M 24124B 24261M 24264B 24356  24386M 24387M
             24387B 24390M 24391M 24391B 24408M 24409M 24409B 24430M 24431M 24431B 24440M 24441M 24441B 24489M 24490M
             24490B 24536M 24537M 24537B 24568M 24569M 24569B 24604M 24605M 24605B 24632M 24633M 24633B 24650M 24651M
             24651B 24672M 24673M 24673B 24676M 24677M 24677B 24683M 24684M 24684B 24707M 24708M 24708B 24734M 24735M
             24735B 24759M 24760M 24760B 24787M 24788M 24788B 24812M 24813M 24813B 24837M 24838M 24838B 24866M 24867M
             24867B 24903M 24904M 24904B 24917M 24918M 24918B 24942M 24943M 24943B 24967M 24968M 24968B 24986M 24987M
             24987B 25108M 25109M 25109B 25138M 25139M 25139B 25216M 25217M 25217B 25234M 25235M 25235B 25248M 25249M
             25249B 25266M 25267M 25267B 25300M 25301M 25301B 25330M 25331M 25331B 25348M 25349M 25349B 25467M 25468M
             25468B 25485M 25486M 25486B 25504M 25505M 25505B 25538M 25539M 25539B 25556M 25557M 25557B 25562M 25563M
             25563B 25587M 25588M 25588B 25644M 25645M 25645B 25662M 25663M 25663B 25668M 25669M 25669B 25733M 25734M
             25734B 25758M 25759M 25759B 25776M 25777M 25777B 25784M 25785M 25785B 25808M 25809M 25809B 25835M 25836M
             25836B 25853M 25854M 25854B 25859M 25860M 25860B 25883M 25884M 25884B 25901M 25902M 25902B 25915M 25916M
             25916B 25940M 25941M 25941B 25959M 25960M 25960B 25977M 25978M 25978B 25983M 25984M 25984B 26009M 26010M
             26010B 26027M 26028M 26028B 26041M 26042M 26042B 26066M 26067M 26067B 26085M 26086M 26086B 26103M 26104M
             26104B 26109M 26110M 26110B 26152M 26153M 26153B 26174M 26175M 26175B 26192M 26193M 26193B 26226M 26227M
             26227B 26264M 26265M 26265B 26302M 26303M 26303B 26331M 26332M 26332B 26452M 26453M 26453B 26476M 26477M
             26477B 26493M 26494M 26494B 26520M 26521M 26521B 26537M 26538M 26538B 26564M 26565M 26565B 26581M 26582M
             26582B 26617M 26618M 26618B 26649M 26650M 26650B 26682M 26683M 26683B 26703M 26704M 26704B 26731M 26732M
             26732B 26765M 26766M 26766B 26791M 26792M 26792B 26820M 26821M 26821B 26881M 26882M 26882B 26906M 26907M
             26907B 26924M 26925M 26925B 26949M 26950M 26950B 26959M 26960M 26960B 26969M 26970M 26970B 26998M 26999M
             26999B 27023M 27024M 27024B 27035M 27036M 27036B 27081M 27082M 27082B 27102M 27103M 27103B 27127M 27128M
             27128B 27155M 27156M 27156B 27183M 27184M 27184B 27287M 27288M 27288B 27317M 27318M 27318B 27345M 27346M
             27346B 27363M 27364M 27364B 27377M 27378M 27378B 27398M 27399M 27399B 27427M 27428M 27428B 27445M 27446M
             27446B 27483M 27484M 27484B 27508M 27509M 27509B 27538M 27539M 27539B 27563M 27564M 27564B 27581M 27582M
             27582B 27592M 27593M 27593B 27653M 27654M 27654B 27678M 27679M 27679B 27682M 27683M 27683B 27693M 27694M
             27694B 27715M 27716M 27716B 27738M 27739M 27739B 27759M 27760M 27760B 27780M 27781M 27781B 27841M 27842M
             27842B 27861M 27862M 27862B 27886M 27887M 27887B 27911M 27912M 27912B 27933M 27934M 27934B 28016M 28017M
             28017B 28079M 28080M 28080B 28102M 28103M 28103B 28128M 28129M 28129B 28149M 28150M 28150B 28206M 28207M
             28207B 28227M 28228M 28228B 28268M 28269M 28269B 28289M 28290M 28290B 28327M 28328M 28328B 28352M 28353M
             28353B 28370M 28371M 28371B 28395M 28396M 28396B 28417M 28418M 28418B 28432M 28433M 28433  28438M 28438
             28441M 28442  28453M 28454M 28454B 28461M 28462M 28462B 28465M 28467B 28607  28664M 28665M 28665B 28719M
             28720M 28720B 28741M 28743B 28779  28855M 28856M 28856B 28885M 28886M 28886B 28913M 28914M 28914B 28949M
             28950M 28950B 29058M 29059M 29059B 29087M 29088M 29088B 29097M 29099B 29126  29194M 29195M 29195B 29212M
             29213M 29213B 29233M 29234M 29234B 29279M 29280M 29280B 29307M 29308M 29308B 29325M 29326M 29326B 29353M
             29354M 29354B 29389M 29390M 29390B 29417M 29418M 29418B 29444M 29445M 29445B 29465M 29466M 29466B 29483M
             29484M 29484B 29534M 29535M 29535B 29577M 29578M 29578B 29598M 29599M 29599B 29616M 29617M 29617B 29657M
             29658M 29658B 29695M 29696M 29696B 29733M 29734M 29734B 29771M 29772M 29772B 29809M 29810M 29810B 29847M
             29848M 29848B 29886M 29887M 29887B 29910M 29911M 29911B 29928M 29929M 29929B 29967M 29968M 29968B 30030M
             30031M 30031B 30048M 30049M 30049B 30156M 30157M 30157B 30184M 30185M 30185B 30202M 30203M 30203B 30299M
             30300M 30300B 30327M 30328M 30328B 30345M 30346M 30346B 30367M 30368M 30368B 30385M 30386M 30386B 30446M
             30447M 30447B 30503M 30504M 30504B 30527M 30528M 30528B 30551M 30552M 30552B 30568M 30569M 30569B 30595M
             30596M 30596B 30612M 30613M 30613B 30639M 30640M 30640B 30656M 30657M 30657B 30688M 30689M 30689B 30693M
             30694M 30694B 30716M 30717M 30717B 30733M 30734M 30734B 30754M 30755M 30755B 30838M 30839M 30839B 30856M
             30857M 30857B 30872M 30872  30873M 30885  30920M 30921M 30921B 30943M 30944M 30944B 30962M 30963M 30963B
1         (FAIL2025) (12:44) (15MAR04) General Purpose Register Cross Reference                                             Page  140
             30981M 30982M 30982B 31004M 31005M 31005B 31021M 31022M 31022B 31042M 31043M 31043B 31059M 31060M 31060B
             31083M 31084M 31084B 31118M 31119M 31119B 31125M 31126M 31126B 31213M 31214M 31214B 31246M 31248B 31273
             31359M 31360M 31360B 31373M 31374M 31374B 31391M 31392M 31392B 31413M 31414M 31414B 31431M 31432M 31432B
             31444M 31445M 31445B 31484M 31485M 31485B 31495M 31497B 31538  31660M 31661M 31661B 31691M 31692M 31692B
             31789M 31790M 31790B 31814M 31815M 31815B 31832M 31833M 31833B 31894M 31895M 31895B 31926M 31927M 31927B
             31956M 31957M 31957B 32018M 32019M 32019B 32036M 32037M 32037B 32069M 32070M 32070B 32089M 32090M 32090B
             32133M 32134M 32134B 32149M 32150M 32150B 32213M 32214M 32214B 32231M 32232M 32232B 32264M 32265M 32265B
             32284M 32285M 32285B 32320M 32321M 32321B 32338M 32339M 32339B 32364M 32365M 32365B 32376M 32378B 32410B
             32432  32469M 32470M 32470B 32492M 32493M 32493B 32528M 32529M 32529B 32556M 32557M 32557B 32591M 32592M
             32592B 32612M 32613M 32613B 32634M 32635M 32635B 32683M 32684M 32684B 32711M 32712M 32712B 32746M 32747M
             32747B 32767M 32768M 32768B 32789M 32790M 32790B 32797M 32799B 32818  32981M 32984B 33010  33278M 33280B
             33312  33425M 33426M 33426B 33432M 33435M 33436M 33436B 33638M 33640B 33682  33705M 33707B 33722  33745M
             33747B 33944B
    15(F)      922U  2181  11348M 11348  13745M 13745  13809M 13809  13855M 13855  14248M 14271M 14632  14711M 14758M
             14794M 14811M 14846M 14863M 14890M 14907M 14940M 14968M 14985M 15020M 15134M 15140M 15141  15195M 15212M
             15240M 15257M 15283M 15318M 15320M 15320  15358M 15358  15447M 15457U 15463M 15470U 15472M 15484  15490M
             15587M 15588M 15637M 15638M 15639  15742M 15754  15761M 15766  16076M 16076  16176M 16197M 16344M 16344
             16481M 16481  16576M 16599M 16644M 16671M 16688M 16715M 16778M 16783M 16793M 16814M 16860M 16879M 16898M
             16922M 16955M 16983M 17000M 17056M 17093M 17130M 17167M 17204M 17242M 17270M 17292  17304M 17321M 17428M
             17456M 17473M 17569M 17597M 17614M 17635M 17652M 17722M 17742M 17759M 17789M 17819M 17819  17978M 17978
             18039M 18060M 18205M 18205  18342M 18342  18493M 18493  18553M 18574M 18706M 18760M 18850M 18851  18865
             18866M 19065M 19065  19145  19178M 19178  19237  19264M 19264  19415  19447M 19447  19474M 19490M 19525M
             19597M 19597  19605M 19609M 19618M 19618  19625  19658M 19699M 19714M 19715M 19715  19724M 19733M 19733
             19740  19824M 19825M 19825  19834M 19843M 19843  19850  19909M 19909  20054M 20054  20097M 20113M 20148M
             20206M 20206  20284M 20313M 20403M 20403  20463U 20483U 20515M 20515  20557M 20566M 20566  20572M 20581M
             20581  20587M 20588M 20590M 20591  20603M 20603  20604  20612M 20612  20648M 20648  20720M 20720N 20746M
             20746  20837M 20837  20941M 20941  20994  21037M 21069M 21099D 21101M 21101  21102M 21103U 21168  21183M
             21190M 21217M 21235M 21257M 21288M 21324M 21346M 21441M 21472M 21472  21583U 21609M 21609  21621U 21748M
             21754  21755M 21850M 21851M 21862  21880M 21881M 21882  21920M 21949M 21977M 22005M 22023M 22033M 22071M
             22096M 22106M 22109  22121M 22131M 22140M 22140  22147  22175M 22303M 22304M 22305  22317  22355M 22360M
             22411M 22412M 22413  22425  22456  22523M 22524  22550M 22611M 22624M 22624  22755M 22761  22762M 22796M
             22797M 22797  22835U 22848U 22923M 22948M 22966M 22984M 23002M 23020M 23038M 23056M 23093M 23111M 23152M
             23170M 23175M 23185U 23203U 23230M 23285M 23313M 23338M 23356M 23403M 23417M 23417  23458M 23459  23473
             23474M 23504M 23505B 23530U 23556M 23556  23568U 23725M 23725  23757U 23783M 23783  23795U 23918M 23918
             23985  24008M 24008  24037M 24263M 24263  24393M 24394  24405M 24471M 24486M 24533M 24565M 24601M 24629M
             24647M 24669M 24679M 24704M 24731M 24756M 24784M 24809M 24834M 24863M 24900M 24910M 24939M 24964M 24983M
             25023M 25033U 25053U 25105M 25135M 25213M 25231M 25241M 25263M 25297M 25305D 25307M 25307  25308M 25309U
             25310M 25327M 25345M 25464M 25482M 25493D 25495M 25495  25496M 25497U 25535M 25553M 25584M 25592D 25594M
             25594  25595M 25596U 25597  25641M 25659M 25681M 25682M 25682  25730M 25755M 25773M 25780M 25805M 25832M
             25850M 25855M 25880M 25898M 25908M 25937M 25956M 25974M 26006M 26024M 26034M 26063M 26082M 26100M 26149M
             26171M 26189M 26223M 26261M 26299M 26328M 26336M 26337M 26337  26358U 26371U 26449M 26473M 26490M 26517M
             26534M 26561M 26578M 26614M 26646M 26679M 26700M 26728M 26762M 26788M 26817M 26878M 26903M 26921M 26946M
             26956M 26966M 26980M 26995M 27020M 27078M 27084M 27099M 27124M 27152M 27180M 27284M 27314M 27342M 27360M
             27370M 27395M 27420M 27442M 27480M 27505M 27535M 27560M 27578M 27635M 27650M 27675M 27689M 27697M 27712M
             27735M 27735  27741M 27756M 27777M 27777  27784M 27788M 27789M 27789  27810U 27823U 27838M 27858M 27858
             27883M 27908M 27915M 27930M 27937M 27938M 28019M 28029U 28042U 28061M 28076M 28098M 28098  28110M 28125M
             28146M 28146  28188M 28203M 28223M 28223  28250M 28265M 28285M 28285  28324M 28349M 28367M 28392M 28430M
             28430  28431M 28432  28435  28440  28441  28444  28448  28627  28628  28647M 28702M 28852M 28882M 28910M
             28946M 28961D 28963M 28963  28964M 28965U 29055M 29084M 29191M 29209M 29230M 29276M 29304M 29322M 29350M
             29386M 29414M 29441M 29462M 29480M 29504M 29505M 29505  29531M 29574M 29595M 29613M 29654M 29692M 29730M
             29768M 29806M 29844M 29883M 29907M 29925M 29964M 29992M 30015  30027M 30045M 30153M 30181M 30199M 30296M
             30324M 30342M 30364M 30382M 30443M 30500M 30524M 30548M 30565M 30592M 30609M 30636M 30653M 30685M 30713M
             30730M 30751M 30835M 30853M 30858M 30873M 30894M 30940M 30959M 30978M 30983M 30984M 30989  31001M 31018M
             31039M 31056M 31080M 31115M 31210M 31356M 31370M 31388M 31410M 31428M 31437M 31481M 31567  31580M 31657M
             31666M 31667M 31673  31688M 31786M 31811M 31829M 31891M 31923M 31953M 32015M 32033M 32066M 32086M 32130M
             32139M 32210M 32228M 32261M 32281M 32317M 32335M 32361M 32372M 32390U 32422U 32465  32489M 32525M 32553M
             32588M 32609M 32631M 32680M 32708M 32743M 32764M 32786M 32841M 32841  32879M 32882M 32884  32899M 32907U
             32949M 32974M 32974  32983M 32983  32991U 33198M 33199M 33201M 33202M 33214  33220  33329  33430M 33430
             33431M 33432B 33501M 33505M 33514M 33514  33521  33541  33937U 33951U
1         (FAIL2025) (12:44) (15MAR04) General Purpose Register Cross Reference                                             Page  141

1FAIL     (FAIL2025) (12:44) (15MAR04) Diagnostic Cross Reference and Assembler Summary                                     Page  142
-                                                                                            HLASM R4.0  2004/03/15 12.44
0     No Statements Flagged in this Assembly
 HIGH LEVEL ASSEMBLER, 5696-234, RELEASE 4.0, PTF P72483
0SYSTEM: OS/390 02.10.00            JOBNAME: WYL#FAIL    STEPNAME: ASM        PROCSTEP: (NOPROC)
0Datasets Allocated for this Assembly
  Con DDname   Dataset Name                                 Volume  Member
   P1 SYSIN    WYL.GS.WYL.WYLBUR.SOURCE                     SYSB05  FAIL
   L1 SYSLIB   WYL.GS.WYL.WYLBUR.MACLIB                     SYSB05
   L2          WYL.GG.SYS.MACLIB                            SYSB05
   L3          SYS3.IS.MACLIB                               SYSB05
   L4          SYS3.MACLIB                                  SYSB02
   L5          SYS1.MACLIB                                  MVSBR9
   L6          SYS1.MODGEN                                  MVSBR9
      SYSPRINT SYS04075.T124439.RA000.WYL#FAIL.PRINT.H01    SCR101
      SYSTERM  GG$SLP.WYL#FAIL.JOB03524.D0000101.?

    3668K allocated to Buffer Pool,         6609K would be required for this to be an In-Storage Assembly
    2597 Primary Input Records Read        30744 Library Records Read                718 Work File Reads
       0 ASMAOPT Records Read              13302 Primary Print Records Written       740 Work File Writes
       0 Punch Records Written                 0 ADATA Records Written
0Assembly Start Time: 12.44.42 Stop Time: 12.45.03 Processor Time: 00.00.06.7227
 Return Code 000
