1                        J E S 2  J O B  L O G  --  S Y S T E M  S Y S B  --  N O D E  R L G
0
 13.00.39 JOB03588 ---- MONDAY,    15 MAR 2004 ----
 13.00.39 JOB03588  ICH70001I GG$SLP   LAST ACCESS AT 13:00:23 ON MONDAY, MARCH 15, 2004
 13.00.39 JOB03588  $HASP373 WYL#VPO  STARTED - INIT 7    - CLASS B - SYS SYSB
 13.00.39 JOB03588  ***  HCMD      STEP $$QUIET
 13.00.39 JOB03588  PUR * Q OUT MUL
 13.00.39 JOB03588  JOB 5451 WYL#VPO  WILL BE PURGED
 13.00.40 JOB03588  WYL#VPO .$$QUIET .         RC=Zero TapeIO=0000 DiskIO=0000 CPU=  .01s Elapsed=39.07s
 13.00.48 JOB03588  WYL#VPO .ASM     .         RC=Zero TapeIO=0000 DiskIO=0839 CPU= 4.13s Elapsed=40.12s
 13.00.49 JOB03588  WYL#VPO .EDIT    .         RC=Zero TapeIO=0000 DiskIO=0131 CPU=  .40s Elapsed=48.30s
 13.00.49 JOB03588  WYL#VPO  Ended.  Name=Assemble VPO                   Total CPU= 4.54s Elapsed=39.07s
 13.00.49 JOB03588
 13.00.49 JOB03588  Execution charges   Priority=Standard   Block=Day
 13.00.49 JOB03588
 13.00.49 JOB03588  CPU Usage          83.25          $51.61   Standard Processing Unit Equivalent
 13.00.49 JOB03588                                   =======
 13.00.49 JOB03588                                    $51.61   Total Job execution charge
 13.00.49 JOB03588
 13.00.49 JOB03588  See back separator page for print charges
 13.00.49 JOB03588
 13.00.49 JOB03588  $HASP395 WYL#VPO  ENDED  ASM=0, EDIT=0
1        1 //WYL#VPO JOB SLP$GG,'Assemble VPO',TIME=4,REGION=4M                    JOB03588
           //*
           /*JOBPARM LINES=99,COPIES=1
           /*JOBPARM FORMS=3HOL,PFORMAT=LAND,CHARS=BD13,DUPLEX=YES,FLASH=BAR4
           //*
           /*JOBPARM NOTIFY=GG.SLP,HOLD=OUTPUT                                     WYLGEN
         2 //$$QUIET EXEC PGM=HCMDX,PARM='PUR * Q OUT MUL'
           //*
         3 //ASM    EXEC PGM=ASMA90,REGION=8M,
           //            PARM=('NORENT,TERM,FLAG(NOCONT),US(MAP,WARN(10)),NODECK',
           //            'LC(32767),XREF(SHORT),ESD,DXREF,NOOBJECT')
         4 //STEPLIB DD DSN=SYS3.IS.TESTASM,DISP=SHR
         5 //SYSLIB   DD  DSN=WYL.GS.WYL.WYLBUR.MACLIB,DISP=SHR
         6 //         DD  DSN=WYL.GG.SYS.MACLIB,DISP=SHR
         7 //         DD  DSN=SYS3.IS.MACLIB,DISP=SHR
         8 //         DD  DSN=SYS3.MACLIB,DISP=SHR
         9 //         DD  DSN=SYS1.MACLIB,DISP=SHR
        10 //         DD  DSN=SYS1.MODGEN,DISP=SHR
        11 //SYSUT1   DD DSN=&&SYSUT1,UNIT=VIO,DISP=(,DELETE),
           //            SPACE=(4088,(500,250),,CONTIG,ROUND)
        12 //SYSTERM  DD SYSOUT=T
        13 //SYSPRINT DD DSN=&&PRINT,UNIT=SYSDA,DISP=(,PASS),
           //            SPACE=(6650,(250,250),RLSE),
           //            DCB=(BLKSIZE=6650,LRECL=133,RECFM=FB)
        14 //SYSUDUMP DD SYSOUT=A
        15 //SYSIN    DD  DSN=WYL.GS.WYL.WYLBUR.SOURCE(VPO),DISP=SHR
           //*
        16 //EDIT    EXEC PGM=ASMEDIT,TIME=2,REGION=4000K,
           //             PARM='STMT'
        17 //STEPLIB  DD  DSN=WYL.GG.SYS.LINKLIB,DISP=SHR
        18 //ASMOUT   DD  DSN=&PRINT,DISP=(OLD,DELETE)
        19 //SYSPRINT DD  SYSOUT=A
1 STMT NO. MESSAGE
 -
        11 IGD01010I STORCLAS= TEMP STORGROUP =
        11 IGD01010I STORGRP=VIO ASSIGNED.
        13 IGD01010I STORCLAS= TEMP STORGROUP =
        13 IGD01010I STORGRP=VIO ASSIGNED.
 ICH70001I GG$SLP   LAST ACCESS AT 13:00:23 ON MONDAY, MARCH 15, 2004
 IEF142I WYL#VPO $$QUIET - STEP WAS EXECUTED - COND CODE 0000
 *********************************************************************************
 *   WYL#VPO /$$QUIET /                    Return Code      Zero                 *
 *   Region used      260K (16K user + 244K system)                              *
 *   Extended region  9580K (4K user + 9576K system)                             *
 *                                                                               *
 *   Paging              In      Out                                             *
 *   Private <-> Aux      0        0       CPU time (TCB)   00:00:00.01          *
 *   Private <-> Exp      0        0       CPU time (SRB)   00:00:00.00          *
 *   VIO                  0        0       Elapsed time    917:27:13.89          *
 *   Common               0      ---                                             *
 *                                                                               *
 *                                                                               *
 *   CPU Usage          0.18         $0.11  Standard Processing Unit Equivalent  *
 *                                   $0.11  Total Step execution charge          *
 *                                                                               *
 *    I/O count  DDname   Type Addr           I/O count  DDname   Type Addr      *
 *                         *** No I/O for this step ***                          *
 *********************************************************************************
 IEF373I STEP/$$QUIET /START 2004075.1300
 IEF374I STEP/$$QUIET /STOP  2004075.1300 CPU    0MIN 00.01SEC SRB    0MIN 00.00SEC VIRT    16K SYS   244K EXT       4K SYS    9576K
 IEF236I ALLOC. FOR WYL#VPO ASM
 IEF237I 04DC ALLOCATED TO STEPLIB
 IEF237I 04DC ALLOCATED TO SYSLIB
 IEF237I 04DC ALLOCATED TO
 IEF237I 04DC ALLOCATED TO
 IEF237I 0402 ALLOCATED TO
 IEF237I 04A0 ALLOCATED TO
 IEF237I 04A0 ALLOCATED TO
 IGD101I SMS ALLOCATED TO DDNAME (SYSUT1  )
         DSN (SYS04075.T130039.RA000.WYL#VPO.SYSUT1.H01   )
         STORCLAS (TEMP) MGMTCLAS (        ) DATACLAS (        )
         VOL SER NOS= VIO
 IEF237I JES2 ALLOCATED TO SYSTERM
 IGD101I SMS ALLOCATED TO DDNAME (SYSPRINT)
         DSN (SYS04075.T130039.RA000.WYL#VPO.PRINT.H01    )
         STORCLAS (TEMP) MGMTCLAS (        ) DATACLAS (        )
         VOL SER NOS= SCR101
 IEF237I JES2 ALLOCATED TO SYSUDUMP
 IEF237I 04DC ALLOCATED TO SYSIN
 IEF142I WYL#VPO ASM - STEP WAS EXECUTED - COND CODE 0000
 IEF285I   SYS3.IS.TESTASM                              KEPT
 IEF285I   VOL SER NOS= SYSB05.
 IEF285I   WYL.GS.WYL.WYLBUR.MACLIB                     KEPT
 IEF285I   VOL SER NOS= SYSB05.
 IEF285I   WYL.GG.SYS.MACLIB                            KEPT
 IEF285I   VOL SER NOS= SYSB05.
 IEF285I   SYS3.IS.MACLIB                               KEPT
 IEF285I   VOL SER NOS= SYSB05.
 IEF285I   SYS3.MACLIB                                  KEPT
 IEF285I   VOL SER NOS= SYSB02.
 IEF285I   SYS1.MACLIB                                  KEPT
 IEF285I   VOL SER NOS= MVSBR9.
 IEF285I   SYS1.MODGEN                                  KEPT
 IEF285I   VOL SER NOS= MVSBR9.
 IGD105I SYS04075.T130039.RA000.WYL#VPO.SYSUT1.H01    DELETED,   DDNAME=SYSUT1
 IEF285I   GG$SLP.WYL#VPO.JOB03588.D0000101.?           SYSOUT
 IGD106I SYS04075.T130039.RA000.WYL#VPO.PRINT.H01     PASSED,    DDNAME=SYSPRINT
 IEF285I   GG$SLP.WYL#VPO.JOB03588.D0000102.?           SYSOUT
 IEF285I   WYL.GS.WYL.WYLBUR.SOURCE                     KEPT
 IEF285I   VOL SER NOS= SYSB05.
 *********************************************************************************
 *   WYL#VPO /ASM     /                    Return Code      Zero                 *
 *   Region used      4376K (4096K user + 280K system)                           *
 *   Extended region  10180K (412K user + 9768K system)                          *
 *                                                                               *
 *   Paging              In      Out                                             *
 *   Private <-> Aux      0        0       CPU time (TCB)   00:00:04.04          *
 *   Private <-> Exp      0        0       CPU time (SRB)   00:00:00.09          *
 *   VIO                  0        0       Elapsed time    917:27:12.84          *
 *   Common               0      ---                                             *
 *                                                                               *
 *                                                                               *
 *   CPU Usage         75.75        $46.96  Standard Processing Unit Equivalent  *
 *                                  $46.96  Total Step execution charge          *
 *                                                                               *
 *    I/O count  DDname   Type Addr           I/O count  DDname   Type Addr      *
 *           89  STEPLIB  Disk 04DC                 269  SYSLIB   Disk 04DC      *
 *            0  SYSLIB   Disk 04DC                   0  SYSLIB   Disk 04DC      *
 *            0  SYSLIB   Disk 0402                 348  SYSLIB   Disk 04A0      *
 *            0  SYSLIB   Disk 04A0                 358  SYSUT1   VIO  ----      *
 *            0  SYSTERM       ----                 128  SYSPRINT Disk 04E3      *
 *            0  SYSUDUMP      ----                   5  SYSIN    Disk 04DC      *
 *********************************************************************************
 IEF373I STEP/ASM     /START 2004075.1300
 IEF374I STEP/ASM     /STOP  2004075.1300 CPU    0MIN 04.04SEC SRB    0MIN 00.09SEC VIRT  4096K SYS   280K EXT     412K SYS    9768K
 IEF236I ALLOC. FOR WYL#VPO EDIT
 IEF237I 0402 ALLOCATED TO STEPLIB
 IGD103I SMS ALLOCATED TO DDNAME ASMOUT
 IEF237I JES2 ALLOCATED TO SYSPRINT
 IEF142I WYL#VPO EDIT - STEP WAS EXECUTED - COND CODE 0000
 IEF285I   WYL.GG.SYS.LINKLIB                           KEPT
 IEF285I   VOL SER NOS= SYSB02.
 IGD105I SYS04075.T130039.RA000.WYL#VPO.PRINT.H01     DELETED,   DDNAME=ASMOUT
 IEF285I   GG$SLP.WYL#VPO.JOB03588.D0000103.?           SYSOUT
 *********************************************************************************
 *   WYL#VPO /EDIT    /                    Return Code      Zero                 *
 *   Region used      380K (116K user + 264K system)                             *
 *   Extended region  9740K (4K user + 9736K system)                             *
 *                                                                               *
 *   Paging              In      Out                                             *
 *   Private <-> Aux      0        0       CPU time (TCB)   00:00:00.39          *
 *   Private <-> Exp      0        0       CPU time (SRB)   00:00:00.01          *
 *   VIO                  0        0       Elapsed time    917:27:04.66          *
 *   Common               0      ---                                             *
 *                                                                               *
 *                                                                               *
 *   CPU Usage          7.31         $4.53  Standard Processing Unit Equivalent  *
 *                                   $4.53  Total Step execution charge          *
 *                                                                               *
 *    I/O count  DDname   Type Addr           I/O count  DDname   Type Addr      *
 *            2  STEPLIB  Disk 0402                 129  ASMOUT   Disk 04E3      *
 *            0  SYSPRINT      ----                                              *
 *********************************************************************************
 IEF373I STEP/EDIT    /START 2004075.1300
 IEF374I STEP/EDIT    /STOP  2004075.1300 CPU    0MIN 00.39SEC SRB    0MIN 00.01SEC VIRT   116K SYS   264K EXT       4K SYS    9736K
 *********************************************************************************
 *                                                                               *
 *                      S t a n f o r d   U n i v e r s i t y                    *
 *                                                                               *
 *                              *** Job Summary ***                              *
 *                                                                               *
 *   System Id      SYSB                   Input time     12:39:39  Mar 15, 2004 *
 *                                                                               *
 *   System Release SP6.1.0                Start time     13:00:39  Mar 15, 2004 *
 *                                                                               *
 *   Job name       WYL#VPO                Stop  time     00:00:00  Mar 15, 2004 *
 *                                                                               *
 *   Account        SLP$GG                 Elapsed time  917:27:13.89            *
 *                                                                               *
 *   User Name      Assemble VPO           CPU time       00:00:04.44            *
 *                                                                               *
 *   Job class      B                      SRB Time       00:00:00.10            *
 *                                                                               *
 *********************************************************************************
 IEF375I  JOB/WYL#VPO /START 2004075.1300
 IEF376I  JOB/WYL#VPO /STOP  2004075.1300 CPU    0MIN 04.44SEC SRB    0MIN 00.10SEC
1Assembler Done VPO No Statements Flagged
1         High Level Assembler Option Summary                   (PTF P72483 )                                               Page    1
-                                                                                            HLASM R4.0  2004/03/15 13.00
0  No Overriding ASMAOPT Parameters
   Overriding Parameters-  NORENT,TERM,FLAG(NOCONT),US(MAP,WARN(10)),NODECK,LC(32767),XREF(SHORT),ESD,DXREF,NOOBJECT
   No Process Statements


   Options for this Assembly
0  NOADATA
     ALIGN
   NOASA
     BATCH
     CODEPAGE(047C)
   NOCOMPAT
   NODBCS
 3 NODECK
 3   DXREF
 3   ESD
   NOEXIT
 3   FLAG(0,ALIGN,NOCONT,NOIMPLEN,NOPAGE0,PUSH,RECORD,NOSUBSTR,USING0)
   NOFOLD
   NOGOFF
   NOINFO
     LANGUAGE(EN)
   NOLIBMAC
 3   LINECOUNT(32767)
     LIST(121)
     MXREF(SOURCE)
 3 NOOBJECT
     OPTABLE(UNI,NOLIST)
   NOPCONTROL
   NOPESTOP
   NOPROFILE
   NORA2
 3 NORENT
     RLD
     RXREF
     SIZE(MAX)
     SYSPARM()
 3   TERM(WIDE)
   NOTEST
     THREAD
   NOTRANSLATE
 3   USING(NOLIMIT,MAP,WARN(10))
 3   XREF(SHORT)

   No Overriding DD Names

1VPO      External Symbol Dictionary                                                                                        Page    2
-Symbol   Type   Id     Address  Length     LD ID  Flags Alias-of                            HLASM R4.0  2004/03/15 13.00
0WYLVPO    SD 00000001 00000000 00000DA8             00
 VPO2193   LD          00000000           00000001
 VTAM      LD          000001D0           00000001
 SEG       ER 00000002
 WAITER    ER 00000003
 WAITECB   ER 00000004
 SEGCR     ER 00000005
 VTAMSTOP  LD          00000A2C           00000001
 ETXR      SD 00000006 00000DA8 0000007C             00
 CV        ER 00000007
 VTAMSTSK  SD 00000008 00000E28 00001130             00

1VPO      WYLBUR'S VTAM PROGRAM OPERATOR                                                                                    Page    3
0Loc    Object Code    Addr1 Addr2  Stmt Lv Lineno    Source Statement                    (Asmedit 3.3)  HLASM R4.0  2004/03/15 13.00
+___    ______ ____    _____ _____  ____ __ ______    ______ _________
0                                      3              *********************************************************************
                                       4              *         THIS IS WYLBUR MODULE VPO                                 *
                                       5              *         WYLBUR'S VTAM PROGRAM OPERATOR                            *
                                       6              *********************************************************************
                                       7              *                                                                   *
                                       8              * WYLBUR/370 RELEASE VI - CLASS 1 - STANFORD UNIVERSITY PROPRIETARY *
                                       9              *                                                                   *
                                      10              *********************************************************************
                                      11                       HIBAL
                                     992                       REGS  FSR,,,,,,,BR,(WAR,LSR),PAR,PBR,CPR,CVR,SPR,RAR
                                    1128              RPLR     REG   3      VTAM RPL
                                    1140              VTMR     REG   4      MESSAGE
                                    1152              VTUR     REG   5      USER
                                    1164              VTCR     REG   6      CVT FOR THIS MODULE
-                                   1177                       SYSDEFN
 USING  CP,R11                      1178                       USING (CP),(CV)
 USING  CV,R12
0                                   1198              *                                  ASSEMBLY PARAMETERS
                                    1199              &USERS   SETA  10                  NUMBER OF CONCURRENT USERS
-
-
 000000                00000 00DA8  1201              WYLVPO   CSECT
0                                   1206              VPO      IDENT 2193                15:11:57 07/12/02  (SLP)
                                    1209             +
                                    1210    01-IDENT +         ENTRY VPO2193
                                    1211             +
 000000 15E5D7D6F2F1F9F3            1212    01-IDENT +VPO2193  DC    AL1(21),C'VPO2193,15MAR04,13:00'
                                    1213             +*
1VPO      (VPO2193) (13:00) (15MAR04) WYLBUR'S VTAM PROGRAM OPERATOR                                                        Page    4
0Current Usings:  (CP,R11) (CV,R12)
0Loc    Object Code    Addr1 Addr2  Stmt Lv Lineno    Source Statement           (Hibal 5, Asmedit 3.3)  HLASM R4.0  2004/03/15 13.00
+___    ______ ____    _____ _____  ____ __ ______    ______ _________
0                                   1216              * THIS MODULE ALLOWS A WYLBUR USER TO ISSUE VTAM COMMANDS, AND
                                    1217              * TO RECEIVE THE REPLIES.
                                    1218              *
                                    1219              * THE CORRESPONDENCE BETWEEN THE WYLBUR COMMAND AND THE VTAM
                                    1220              * COMMAND IS AS FOLLOWS:
                                    1221              *
                                    1222              *            WYLBUR                          VTAM
                                    1223              *
                                    1224              *      [DUMP] VTAM D [NET] anything       D NET,anything
                                    1225              *      [DUMP] VTAM V [NET] anything       V NET,anything
                                    1226              *      [DUMP] VTAM F [NET] anything       F NET,anything
                                    1227              *
                                    1228              * Where "anything" is passed to VTAM unchanged, except that BLANKs
                                    1229              * and COMMAs as a WYLBUR separator are changed to a single COMMA,
                                    1230              * and the WYLBUR terminator (SEMI-COLON) ends the message.
                                    1231              *
                                    1232              * If a user includes the ",TEST=YES" parameter, it must be at
                                    1233              * the end of his command.
                                    1234              *
                                    1235              * The VTAM Application Name is taken from CVWYLSSN.  It must be
                                    1236              * authorized as a "Secondary Program Operator" in the VTAMLST dataset.
                                    1237              *
                                    1238              * A representative APPL definition statement is:
                                    1239              *
                                    1240              *        WYLBUR   APPL  AUTH=SPO,EAS=1
                                    1241              *
-                                   1243              * ORGANIZATION:
0                                   1245              * The MAIN TASK (WYLBUR) receives a command from a user, and
                                    1246              * validates that the user is authorized to make the command.
                                    1247              * A free slot in the fixed length User List is obtained,
                                    1248              * and the command to VTAM is placed in the Outbound Message Q.
0                                   1250              * Messages on the User Inbound Q are typed to the user.
0                                   1252              * The SUB-TASK (higher priority) handles all communication with VTAM.
                                    1253              * The ACB is opened if necessary.  Two RPLs are used, one outbound,
                                    1254              * and one inbound.  Requests are sent to VTAM, when found on the
                                    1255              * Outbound Message Q. Inbound messages are placed on the appropriate
                                    1256              * User's Inbound Message Q.
                                    1257              *
                                    1258              * When detecting the "VTCFWCLS" flag, the sub-task will close the
                                    1259              * ACB and terminate.
1VPO      (VPO2193) (13:00) (15MAR04) MACRO DEFINITIONS                                                                     Page    5
0Current Usings:  (CP,R11) (CV,R12)
0Loc    Object Code    Addr1 Addr2  Stmt Lv Lineno    Source Statement           (Hibal 5, Asmedit 3.3)  HLASM R4.0  2004/03/15 13.00
+___    ______ ____    _____ _____  ____ __ ______    ______ _________
0                                   1261              *
                                    1262                       MACRO
                                    1263              &L       NAME
                                    1265              ##&L     EQU   *
                                    1266                       DS    0AL4(##&L)
                                    1268                       MEND
                                    1269
0                                   1271                       MACRO
                                    1272                       GETMSG ,                            GET A MESSAGE ELEMENT
                                    1273                       GETMAIN RC,LV=L'VTM,LOC=ANY
                                    1274                       IF    (R15,NZ),'CLEAR R1'
                                    1275                       ELSE  BEGIN
                                    1276                       WITH  (VTM,R1)
                                    1277                       CLEAR VTM
                                    1278                       MVC   VTMID,=CL4'VTM'
                                    1279                       END
                                    1280                       LTR   VTMR,R1
                                    1281                       MEND
0                                   1283                       MACRO
                                    1284              &LABEL   FREEMSG ,                           FREE A MESSAGE ELEMENT
                                    1285              &LABEL   FREEMAIN RC,LV=L'VTM,A=(VTMR)
                                    1286                       MEND
0                                   1288                       MACRO
                                    1289                       GENU  &USERS                        GENERATE USER LIST
                                    1290              &COUNT   SETA  1
                                    1291                       CNOP  0,4                           MUST MATCH VTU DSECT
                                    1292              .LOOP    DC    CL4'VTU'                      ID
                                    1293                       DC    H'&COUNT'                     USER #
                                    1294                       DC    F'0'                          ECB
                                    1295                       DC    H'0'                          POHID FOR VTAM MESSAGES
                                    1296                       DC    AL1(L'VTUFFREE)               FLAGS
                                    1297                       DC    A(0)                          PTR TO USER CONTROL PAGE
                                    1298                       DC    D'0'                          PTR TO USER INBOUND MSG Q
                                    1299                       DS    0D                            END OF USER ELEMENT
                                    1300              &COUNT   SETA  &COUNT+1
                                    1301                       AIF   (&COUNT LE &USERS).LOOP
                                    1302                       DC    CL4'VTU'
                                    1303                       DC    F'0'                          ID = 0 = NO MORE
                                    1304                       MEND
0                                   1306                       MACRO
                                    1307              &L       STFAIL ,                            SUB-TASK FAIL
                                    1308              .*       FROM MILTEN OF 3/81
                                    1309                       GBLA  &$COUNT
                                    1310                       LCLB  &END
                                    1311              &MSG     SETC  '&SYSLIST(1)'
                                    1312              &C       SETA  &$COUNT
                                    1313              &$COUNT  SETA  &$COUNT+1
                                    1314              &L       LABEL
                                    1315                       AIF   ('&MSG' EQ '' OR '&MSG '(1,1) EQ '''').MSG
                                    1316                       IF    &SYSLIST(1),BEGIN
1VPO      (VPO2193) (13:00) (15MAR04) MACRO DEFINITIONS                                                                     Page    6
0Current Usings:  (CP,R11) (CV,R12)
0Loc    Object Code    Addr1 Addr2  Stmt Lv Lineno    Source Statement           (Hibal 5, Asmedit 3.3)  HLASM R4.0  2004/03/15 13.00
+___    ______ ____    _____ _____  ____ __ ______    ______ _________
0                                   1317              &END     SETB  1
                                    1318              &MSG     SETC  '&SYSLIST(2)'
                                    1319              .MSG     DC    0H'0',X'FEDC',AL1($$$FAIL&C-(*+1))
                                    1320                       AIF   ('&MSG' EQ '').ENDCHK
                                    1321                       AIF   ('&MSG'(1,1) EQ '''').QMSG
                                    1322                       DC    C'&MSG'
                                    1323                       AGO   .ENDCHK
                                    1324              .QMSG    DC    C&MSG
                                    1325              .ENDCHK  ANOP
                                    1326              $$$FAIL&C  EQU  *
                                    1327                       AIF   (NOT &END).EXIT
                                    1328                       END
                                    1329              .EXIT    MEND
1VPO      (VPO2193) (13:00) (15MAR04) DSECTS                                                                                Page    7
0Current Usings:  (CP,R11) (CV,R12)
0Loc    Object Code    Addr1 Addr2  Stmt Lv Lineno    Source Statement           (Hibal 5, Asmedit 3.3)  HLASM R4.0  2004/03/15 13.00
+___    ______ ____    _____ _____  ____ __ ______    ______ _________
0000000                00000 00020  1331              VTU      RECORD BEGIN              USER LIST ELEMENT
                                    1339  1           VTUSTART   EQU   *
 000000                             1340  1           VTUID      DS    CL4'VTU'            ID
 000004                             1341  1           VTU#       DS    H                   USER # (OR 0=NO MORE)
 000008                             1342  1           VTUECB     DS    F                   ECB
 00000C                             1343  1           VTUPOHID   DS    H                   POHID FOR VTAM MESSAGES
 00000E 00                          1344  1           VTUF       FLAG  ,                   FLAGS
 VTUF.VTUFFREE     80 ONES          1348  1                      FLAG  VTUFFREE            -FREE ELEMENT (MAY BE RE-ASSIGNED)
 VTUF.VTUFATTN     40 ONES          1353  1                      FLAG  VTUFATTN            -ATTN RECEIVED - DISCARD MESSAGES
 VTUF.VTUFSND      20 ONES          1358  1                      FLAG  VTUFSND             -WAITING TO SEND COMMAND TO VTAM
 VTUF.VTUFRCV      10 ONES          1363  1                      FLAG  VTUFRCV             -WAITING FOR REPLIES FROM VTAM
 VTUF.VTUFDIS      08 ONES          1368  1                      FLAG  VTUFDIS             -D NET REQUEST BEING PROCESSED
 VTUF.VTUFEND      04 ONES          1373  1                      FLAG  VTUFEND             -ENDING MESSAGE RECEIVED
 VTUF.VTUFTEST     02 ONES          1378  1                      FLAG  VTUFTEST            -TEST=YES PARAMETER USED
 000010                             1383  1           VTUCP      DS    A                   PTR TO USER CONTROL PAGE
 000018                             1384  1           VTUMSGH    DS    D                   PTR TO HEAD OF USER INBOUND MSG Q
 000020                             1385  1           VTUEND     DS    0D
 000020                00020 00020  1386                       END
1VPO      (VPO2193) (13:00) (15MAR04) DSECTS                                                                                Page    8
0Current Usings:  (CP,R11) (CV,R12)
0Loc    Object Code    Addr1 Addr2  Stmt Lv Lineno    Source Statement           (Hibal 5, Asmedit 3.3)  HLASM R4.0  2004/03/15 13.00
+___    ______ ____    _____ _____  ____ __ ______    ______ _________
0000000                00000 00000  1396                       RECORD BEGIN             MESSAGE Q ELEMENT
                                    1404  1           *VTM
 000000                00000 00068  1405  1           ISTDPOHD   DSECT
                                    1406  1           VTMSTART   EQU   *                  START OF RECORD
 000000                             1407  1           VTMID      DS    CL4'VTM'           ID
 000004                             1408  1           VTMNEXT    DS    F                  POINTER TO NEXT OR ZERO
 000008                             1409  1           VTMU#      DS    H                  USER #
 00000A                             1410  1           VTMCNT     DS    H                  COUNT OF DATA IN TEXT FIELD
0                                   1412  1                      ISTDPOHD ,               IBM MESSAGE DEFINITION
                                    1413  1          +*        COPYRIGHT = LICENSED MATERIALS - PROPERTY OF IBM
                                    1414  1          +*
                                    1415  1          +*                    "RESTRICTED MATERIALS OF IBM"
                                    1416  1          +*
                                    1417  1          +*                    5695-117
                                    1418  1          +*
                                    1419  1          +*                    (C) COPYRIGHT IBM CORP. 1979
                                    1420  1          +*
                                    1421  1          +*   PROGRAM OPERATOR MESSAGE HEADER
                                    1422  1          +*
 00000C                00000 00068  1423  1 01-ISTDP +ISTDPOHD   DSECT
 00000C                             1424  1 01-ISTDP +POHRSVD    DS    CL1                 RESERVED
 00000D                             1425  1 01-ISTDP +POHSTAT    DS    CL1                 HEADER STATUS BITS
                                    1426  1 01-ISTDP +POHEND     EQU   X'80'               END LINE 1=YES
                                    1427  1 01-ISTDP +POHDATA    EQU   X'40'               DATA LINE 1=YES
                                    1428  1 01-ISTDP +POHLBL     EQU   X'20'               LABEL LINE 1=YES
                                    1429  1 01-ISTDP +POHCNTRL   EQU   X'10'               CONTROL LINE 1=YES
                                    1430  1 01-ISTDP +POHPPSOL   EQU   X'08'               MESSAGE CONTAINS COPY OF VTAM
                                    1431  1          +*                                  SOLICITED, UNSUPPRESSED MESSAGE
                                    1432  1          +*                                  THAT HAD BEEN SENT TO THE SYSTEM
                                    1433  1          +*                                  CONSOLE
                                    1434  1 01-ISTDP +POHPPCMD   EQU   X'04'               MESSAGE CONTAINS COPY OF VTAM
                                    1435  1          +*                                  OPERATOR COMMAND THAT HAD BEEN
                                    1436  1          +*                                  ENTERED FROM THE SYSTEM CONSOLE
                                    1437  1 01-ISTDP +POHPPSUP   EQU   X'0C'               MESSAGE CONTAINS COPY OF VTAM
                                    1438  1          +*                                  SOLICITED, SUPPRESSED MESSAGE
                                    1439  1          +*                                  THAT HAD BEEN SENT TO THE SYSTEM
                                    1440  1          +*                                  CONSOLE
                                    1441  1 01-ISTDP +POHRREQ    EQU   X'02'               REPLY REQUESTED 1=YES
                                    1442  1 01-ISTDP +POHGEN     EQU   X'01'               ID ORIGIN  0=GENERATED BY VTAM
                                    1443  1          +*                                             1=GENERATED BY POA
 00000E                             1444  1 01-ISTDP +POHID      DS    CL2                 MESSAGE IDENTIFIER
0000010                             1446  1           VTMTEXT    DS    CL86               MESSAGE TEXT
 000068                             1447  1           VTMEND     DS    0F
0                                   1449  1           VTMIHDR    EQU   POHRSVD,VTMTEXT-POHRSVD,C'X'  IBM HEADER
                                    1450  1           VTMVMSG    EQU   VTMIHDR,VTMEND-VTMIHDR,C'X'   MESSAGE TO-FROM VTAM
                                    1451  1           VTM        EQU   VTMSTART,VTMEND-VTMSTART,C'X' MESSAGE Q ELEMENT
 000068                00068 00068  1452                       END
1VPO      (VPO2193) (13:00) (15MAR04) DSECTS                                                                                Page    9
0Current Usings:  (CP,R11) (CV,R12)
0Loc    Object Code    Addr1 Addr2  Stmt Lv Lineno    Source Statement           (Hibal 5, Asmedit 3.3)  HLASM R4.0  2004/03/15 13.00
+___    ______ ____    _____ _____  ____ __ ______    ______ _________
0000016                00000 00DA8  1461                       PUSH  DSECTS              DSECTS FROM MACRO LIBRARIES
000006C                00000 00098  2302              IFGACB   DSECT ,                   ACB - WYLBUR EXTENSION
                                    2303
                                    2304              ACBWOFFS EQU   *+16-IFGACB
 00006C                0006C 00080  2305                       ORG   IFGACB+(ACBWOFFS+31)/32*32
 000080                             2306              ACBWSTRT DS    0F                  START OF WYLBUR EXTENSION
 000080                             2307              ACBWAPLT DS    X                   LENGTH OF APPLICATION NAME
 000081                             2308              ACBWAPPL DS    CL8                 APPLICATION NAME
 000089                             2309              ACBWPSLT DS    X                   LENGTH OF PASSWORD
 00008A                             2310              ACBWPSWD DS    CL8                 PASSWORD
 000092 0000/80/000000              2311              ACBOLIST OPEN  (ACB),MF=L          LIST FOR OPEN MACRO
 000098                             2315              ACBWEND  DS    0F                  END OF WYLBUR EXTENSION
0                                   2317              ACB      EQU   IFGACB,ACBWSTRT-IFGACB,C'X'
                                    2318              ACBWYL   EQU   IFGACB,ACBWEND-IFGACB,C'X'
0000098                00000 00098  2320                       PUSH DSECTS
0000070                00000 00070  4063              IFGRPL   DSECT ,                   RPL - WYLBUR EXTENSION
                                    4064
                                    4065              RPLEND   EQU   *
                                    4066              RPL      EQU   IFGRPL,RPLEND-IFGRPL,C'X'
                                    4067              *                                  END OF WYLBUR EXTENSION
0                                   4069                       PUSH  DSECTS
                                    4080             =         USING (CP),(CV)
 000070                00000 00070  4085             =         POP   PRINT
-
                                    9500              *NOGEN,DATA
 000016                00000 00DA8  9501              WYLVPO   CSECT
1VPO      (VPO2193) (13:00) (15MAR04) CSECTS -- COMMON TO MAIN TASK AND SUB-TASK                                            Page   10
0Current Usings:  (CP,R11) (CV,R12)
0Loc    Object Code    Addr1 Addr2  Stmt Lv Lineno    Source Statement           (Hibal 5, Asmedit 3.3)  HLASM R4.0  2004/03/15 13.00
+___    ______ ____    _____ _____  ____ __ ______    ______ _________
0000018                             9504              VTC      DS    0F                 CONTROL VECTOR FOR THIS MODULE
0000018 E5E3C340                    9506                       DC    CL4'VTC'
 00001C 00                          9507              VTCF     FLAG  ,                   FLAGS
 VTCF.VTCFPDN      80 ONES          9511                       FLAG  VTCFPDN             -VTAM IS PERMANENTLY DOWN
 VTCF.VTCFTDN      40 ONES          9516                       FLAG  VTCFTDN             -VTAM IS TEMPORARILY DOWN
 VTCF.VTCFWCLS     20 ONES          9521                       FLAG  VTCFWCLS            -CLOSE OUT - WYLBUR IS ENDING
 VTCF.VTCFVCLS     10 ONES          9526                       FLAG  VTCFVCLS            -CLOSE ACB - VTAM IS ENDING
 VTCF.VTCFACTV     08 ONES          9531                       FLAG  VTCFACTV            -ACTIVITY IN THE SUB-TASK WAIT LOOP
 VTCF.VTCFE10A     04 ONES          9536                       FLAG  VTCFE10A            -ERROR 10 A RECEIVED - FREEZE
                                    9541
 00001D 00
 00001E 0000                        9542              VTCLPOH  DC    H'0'                LAST POHID ASSIGNED
                                    9543
 000020 0000002C                    9544              VTCELST  DC    A(VTCSECB)          SUB-TASK WAIT ECB LIST
 000024 00000030                    9545                       DC    A(VTCRCECB)
 000028 80000034                    9546                       DC    X'80',AL3(VTCSWORK)
 00002C 00000000                    9547              VTCSECB  DC    F'0'                ECB FOR SEND RPL COMPLETED
 000030 00000000                    9548              VTCRCECB DC    F'0'                ECB FOR RECEIVE COMMAND RPL COMPLET
 000034 00000000                    9549              VTCSWORK DC    F'0'                ECB FOR WORK FOR SUB-TASK
0000038 00000001                    9551              VTCATECB DC    A(VTCSTNEV)         SUB-TASK ATTACH ECB (DO NOT WAIT)
                                    9552              VTCSTRUN EQU   0                    -RUNNING
                                    9553              VTCSTEND EQU   1                    -STATES >= SUB-TASK NOT RUNNING
                                    9554              VTCSTNEV EQU   1                    -NEVER STARTED
                                    9555              VTCSTDET EQU   2                    -DETACHED
                                    9556              VTCSWCLS EQU   3                    -CLOSED NORMALLY BY WYLBUR
                                    9557              VTCSVCLS EQU   4                    -CLOSED NORMALLY BY VTAM
                                    9558              *                                   -ELSE CLOSED ABNORMALLY
000003C 0000000000000000            9560              MSGSAV   DC    2F'0'               MESSAGE POINTER SAVE
0                                   9562              C        EQU   X'40'               ECB POSTED COMPLETE
                                    9563              ACTIV    EQU   X'FF'               RPL ACTIVE
0                                   9565              *                                  Q POINTERS
 000044 00000000
 000048 0000000000000000            9566              VTCOUTH  DC    D'0'                 OUTBOUND MESSAGES HEAD
0000050 00000000                    9568              VTCECNT  DC    F'0'                ERROR COUNT
 000054 00000000                    9569              VTCRCNT  DC    F'0'                RETRY COUNT
 000058 000000000C                  9570              VTCSTRTN DC    F'0',X'0C'          SAVE SUB-TASK RETURN CODE
                                    9571
 00005D 000000
 000060 00000000                    9572              VTCSTTCB DC    A(0)                PTR TO SUB-TASK TCB
 000064 00000000                    9573              VTCACB   DC    A(0)                PTR TO ACB
 000068 E2E4C2E3C1E2D240            9574              ABNDMSG  DC    C'SUBTASK ABENDED XXXXXXXX+'
0                                   9576                       PUSH  PRINT
                                    9578                       PRINT NOGEN
 000088                             9580              USERLIST DS    0D
 000088 E5E3E440                    9581                       GENU  &USERS              USER LIST
0                                   9666                       POP PRINT
1VPO      (VPO2193) (13:00) (15MAR04) MAIN TASK -- COMMAND PROCESSING                                                       Page   11
0Current Usings:  (CP,R11) (CV,R12)
0Loc    Object Code    Addr1 Addr2  Stmt Lv Lineno    Source Statement           (Hibal 5, Asmedit 3.3)  HLASM R4.0  2004/03/15 13.00
+___    ______ ____    _____ _____  ____ __ ______    ______ _________
00001D0 188D/4570 C74C_             9669              VTAM     GENTER ,               ---COMMAND ENTRY---
 USING  *,R7
 0001DE 9102 C4C5/4710_004C5        9686                       IF    ~CVFTEST,BEGIN      Production Wylbur...
 0001E6 4110 76D0/4100_      008AE  9701  1                      TSEG  'VTAM commands not yet available in '
 0001F8 4110 7696/4100_      00874  9719  1                      ABORT 'production Wylbur.'
 000204                             9726                       END
                                    9730
 000204 5860 764E            0082C  9731                       L     VTCR,=A(VTC)
 USING  VTC,R6                      9732                       USING (VTC)
0000208 9104 6004/47E0_0001C        9743                       IF    (VTCFE10A),'ABORT "CATASTROPHIC VTAM ERROR"'
 00021C 9180 6004/47E0_0001C        9770                       IF    (VTCFPDN),'ABORT "PATH CLOSED PERMANENTLY"'
 000230 9120 6004/47E0_0001C        9797                       IF    (VTCFWCLS),'ABORT "WYLBUR IS ENDING"'
0USING  VTM,R4                      9825                       USING (VTM)
 USING  VTU,R5                      9835                       USING (VTU)
 000244 4150 6070            00088  9845                       LA    VTUR,USERLIST       GET A USER SLOT
 000248 9180 500E/4710_0000E        9846              GETSLOT  WHILE (~VTUFFREE),BEGIN
 000250 4150 5020            00020  9864  1                      LA    VTUR,VTU+L'VTU
 000254 D601 5004 5004_00004 00004  9865  1                      IF    (VTU#,NZ),NEXT
 00025E 0700/47F0 708E_             9884  1                      FREEMSG                   IF NONE FOUND
 000278 4110 76A8/4100_      00886  9898  1                      ABORT 'PATH NOT AVAILABLE'
 000284 47F0 706A            00248  9905                       END   ,                   END GET A USER SLOT
0000288 D502 7721 5000_008FF 00000  9911                       FAIL  (VTUID,NE,=C'VTU'),VPO,'VTAM - VTUID INVALID'
 0002AA D501 76BA 5004_00898 00004  9940                       FAIL  (VTU#,GT,=Y(&USERS)),VPO,'VTAM - VTU# INVALID'
 0002CC 9200 500E      0000E        9969                       CLEAR VTUF                FOUND VALID USER SLOT
 0002D0 50B0 5010            00010  9976                       ST    CPR,VTUCP
 0002D4 4810 6006            0001E  9977                       LH    R1,VTCLPOH
 0002D8 5E10 7652            00830  9978                       INCR  R1
 0002DC 4910 76BC/47D0_      0089A  9981                       IF    (R1,GT,=Y(X'7FF0')),'LA R1,1'
 0002E8 4010 6006            0001E 10003                       STH   R1,VTCLPOH
 0002EC 4010 500C            0000C 10004                       STH   R1,VTUPOHID
00002F0 5840 5018/1244       00018 10006                       LT    VTMR,VTUMSGH        RELEASE ANY MESSAGES
 0002F6 4780 7140            0031E 10010                       WHILE (NZ),BEGIN
 0002FA 5820 4004            00004 10023  1                      L     R2,VTMNEXT
 0002FE 0700/47F0 712E_            10024  1                      FREEMSG
 000318 1242                       10038  1                      LTR   VTMR,R2
 00031A 47F0 7118            002F6 10039                       END
 00031E D707 5018 5018 00018 00018 10044                       CLEAR VTUMSGH
0000324 47F0 7152/0000_      00330 10052                       GETMSG                    GET A MESSAGE ELEMENT
 DROP   VTM,R4
 USING  VTM,R1
 USING  VTM,R4
 DROP   VTM,R1
 000356 4770 718C/9680_      0036A 10149                       IF    (Z),'SET VTUFFREE; ABORT "PATH NOT AVAILABLE"'
 00036A D502 7724 4000_00902 00000 10178                       FAIL  (VTMID,NE,=C'VTM'),VPO,'VTAM - VTMID INVALID'
 00038C 9203 400D      0000D       10207                       MVI   POHSTAT,POHGEN+POHRREQ
 000390 D201 4008 5004 00008 00004 10208                       MVC   VTMU#,VTU#
 000396 D201 400E 500C 0000E 0000C 10209                       MVC   POHID,VTUPOHID
0                                  10211              *                                  SCAN MESSAGE
1VPO      (VPO2193) (13:00) (15MAR04) MAIN TASK -- COMMAND PROCESSING                                                       Page   12
0Current Usings:  (VTM,R4) (VTU,R5) (VTC,R6) (*,R7) (CP,R11) (CV,R12)
0Loc    Object Code    Addr1 Addr2  Stmt Lv Lineno    Source Statement           (Hibal 5, Asmedit 3.3)  HLASM R4.0  2004/03/15 13.00
+___    ______ ____    _____ _____  ____ __ ______    ______ _________
000039C 4800 BCAC            00CAC 10212                       LH    R0,CPSCNLEN         R0 := INPUT COUNT
 0003A0 5810 BCA8            00CA8 10213                       L     R1,CPSCNLOC         R1 := INPUT LOCATION
 0003A4 4130 0050            00050 10214                       LA    R3,L'VTMTEXT-6      R3 := OUTPUT COUNT
 0003A8 41F0 4016            00016 10215                       LA    R15,VTMTEXT+6       R15 := OUTPUT LOCATION
                                   10216                       COMMENT                   R2  = WORK REGISTER
00003AC 5900 765A/47D0_      00838 10218                       CEIL  R0,75
 0003B8 1820                       10237                       LR    R2,R0               FORCE UPPER CASE
 0003BA 0620/4420 7734_            10238                       DEX   R2,'TR @R1(0),UPCASE'
 0003C0 1B22                       10257                       CLEAR R2
                                   10261                       COMMENT                   SEARCH FOR D[ISPLAY]
                                   10262            C          WHILE ((R0,POS),AND,((@R1,EQ,C' '),OR,(@R1,EQ,C','))),
 0003C2 1200/47D0 7204_                                              'DECR R0; INCR R1'
 0003E2 1200/47D0 7310_            10319                       IF    ((R0,NPOS),OR,(@R1,EQ,C';')),INVALID
 0003F0 95C4 1000/4770_00000       10351                       IF     (@R1,EQ,C'D'),'SET VTUFDIS; MVC VTMTEXT(6),=C"D NET,"'
 000402 7228/47F0 7236_00402 003F6 10379                       ELSEIF (@R1,EQ,C'V'),'MVC VTMTEXT(6),=C"V NET,"'
                                   10410            C          ELSEIF ((@R1,EQ,C'M'),OR,(@R1,EQ,C'F')),
 000414 723A/47F0 7250_00414 0040C                                   'MVC VTMTEXT(6),=C"F NET,"'
 00042E 7254/47F0 7258_0042E 00426 10456                       ELSE  'B INVALID'
                                   10473                       COMMENT                   SKIP OVER ISPLAY
 000436 1200/47D0 7270_            10474                       WHILE ((R0,POS),AND,(@R1,GE,X'C1')),'DECR R0; INCR R1'
 00044E 1200/47D0 73AE             10516                       IF    (R0,NPOS),SCANL4
 000454 955E 1000/4780_00000       10533                       IF    (@R1,EQ,';'),SCANL4
                                   10552                       COMMENT                   SEARCH FOR NET
                                   10553            C          WHILE ((R0,POS),AND,((@R1,EQ,C' '),OR,(@R1,EQ,C','))),
 00045C 1200/47D0 729E_                                              'DECR R0; INCR R1'
 00047C 1200/47D0 7310_            10610                       IF    ((R0,NPOS),OR,(@R1,EQ,C';')),INVALID
 00048A 95D5 1000/4770_00000       10642                       IF    (@R1,EQ,C'N'),BEGIN IF USER INCLUDED "NET"
                                   10658  1                      COMMENT                   SKIP OVER "NET'
 000492 1200/47D0 72CC_            10659  1                      WHILE ((R0,POS),AND,(@R1,GE,X'C1')),'DECR R0; INCR R1'
                                   10701  1         C            WHILE ((R0,POS),AND,((@R1,EQ,C' '),OR,(@R1,EQ,C','))),
 0004AA 1200/47D0 72EC_                   1                            'DECR R0; INCR R1'
 0004CA 1200/47D0 7310_            10758  1                      IF    ((R0,NPOS),OR,(@R1,EQ,C';')),INVALID
 0004D8                            10790                       END   ,                  END USER INCLUDED "NET"
00004D8 1200/47D0 73AE             10795                       IF    (R0,NPOS),SCANL4
 0004DE 9108 500E/4710_0000E       10812                       IF    (~VTUFDIS,AND,~CPSFOPR),BEGIN IF NOT AUTHORIZED
 0004EE D717 5008 5008 00008 00008 10841  1           INVALID    CLEAR (VTUECB,VTUEND-VTUECB)         FREE THE USER SLOT
 0004F4 9680 500E      0000E       10849  1                      SET   VTUFFREE
 0004F8 47F0 7326/0000_      00504 10855  1                      FREEMSG                   FREE THE MESSAGE
 000510 4110 765E/4100_      0083C 10869  1                      ABORT 'Invalid VTAM command'
 00051C                            10876                       END   ,                            END NOT AUTHORIZED
000051C                            10881              SCANLOOP BEGIN ,                             MOVE MESSAGE
 00051C 4320 1000            00000 10886  1                      IC    R2,@R1
 000520 4420 773A/9500_      00918 10887  1                      EX    R2,'CLI =C" ",0'
 000524 4780 737A            00558 10903  1                      IF    (NE),BEGIN          IF NOT BLANK
 000528 4420 773E/9500_      0091C 10914  2                        EX    R2,'CLI =C",",0'
 00052C 4780 737A            00558 10930  2                        IF    (NE),BEGIN          IF NOT SEPARATOR
 000530 4220 F000            00000 10941  3           SCANL1         STC   R2,@R15              STORE CHARACTER
 000534 41F0 F001            00001 10942  3                          LA    R15,@R15+1           STEP OUTPUT
 000538 4630 7362            00540 10943  3                          BCT   R3,*+8
 00053C 47F0 73AE            0058C 10944  3                          B     SCANL4
 000540 4110 1001            00001 10945  3                          LA    R1,@R1+1            STEP INPUT
1VPO      (VPO2193) (13:00) (15MAR04) MAIN TASK -- COMMAND PROCESSING                                                       Page   13
0Current Usings:  (VTM,R4) (VTU,R5) (VTC,R6) (*,R7) (CP,R11) (CV,R12)
0Loc    Object Code    Addr1 Addr2  Stmt Lv Lineno    Source Statement           (Hibal 5, Asmedit 3.3)  HLASM R4.0  2004/03/15 13.00
+___    ______ ____    _____ _____  ____ __ ______    ______ _________
0000544 4600 736E            0054C 10946  3                          BCT   R0,*+8
 000548 47F0 73AE            0058C 10947  3                          B     SCANL4
 00054C 4420 7742/9500_      00920 10948  3                          EX    R2,'CLI =C";",0'
 000550 4780 73AE            0058C 10964  3                          IF    (EQ),SCANL4                    EXIT IF TERMINATOR
 000554 47F0 733E            0051C 10978  3                          B     SCANLOOP
 000558                            10979  2                        END   ,                   END NOT SEPARATOR
 000558                            10983  1                      END    ,                  END NOT BLANK
0000558 926B F000      00000       10988  1                      MVI   @R15,C','            ELSE SEPARATOR
 00055C 41F0 F001            00001 10989  1                      LA    R15,@R15+1           STEP OUTPUT
 000560 4630 738A            00568 10990  1                      BCT   R3,*+8
 000564 47F0 73AE            0058C 10991  1                      B     SCANL4
 000568 4110 1001            00001 10992  1           SCANL2     LA    R1,@R1+1            STEP INPUT
 00056C 4600 7396            00574 10993  1                      BCT   R0,*+8
 000570 47F0 73AE            0058C 10994  1                      B     SCANL4
 000574 4320 1000            00000 10995  1           SCANL3     IC    R2,@R1              GET NEXT AFTER SEPARATOR
 000578 4420 7746/9500_      00924 10996  1                      EX    R2,'CLI =C" ",0'
 00057C 4780 73AA            00588 11012  1                      IF    (NE),BEGIN
 000580 4420 774A/9500_      00928 11023  2                        EX    R2,'CLI =C",",0'
 000584 4770 7352            00530 11039  2                        IF    (NE),SCANL1         B ~SEPARATOR
 000588                            11053  1                      END
 000588 47F0 738A            00568 11057  1                      B     SCANL2
 00058C                            11058                       END   ,                             END SCANLOOP
000058C 06F0                       11063              SCANL4   DECR  R15                           FINISH MESSAGE
 00058E 956B F000/4780_00000       11065                       IF    ((@R15,EQ,C','),OR,(@R15,EQ,C';')),'LA R1,L"VTMTEXT-1'
 0005A2 73C8/47F0 73CC_005A2 0059C 11102                       ELSE  'LA R1,L"VTMTEXT'
 0005AA 1B13                       11119                       SR    R1,R3               CALCULATE TEXT COUNT
 0005AC 4720 73D4/1B11       005B2 11120                       IF    (NP),'CLEAR R1'
 0005B2 4010 400A            0000A 11140                       STH   R1,VTMCNT
00005B6 5B10 7672            00850 11142                       S     R1,=F'9'            CHECK FOR "TEST=YES"
 0005BA 47D0 73F2            005D0 11143                       IF    (POS),BEGIN
 0005BE 4121 4010            00010 11154  1                      LA    R2,VTMTEXT(R1)
 0005C2 D508 772A 2000_00908 00000 11155  1                      IF    (@R2,EQ,C',TEST=YES'),'SET VTUFTEST'
 0005D0                            11182                       END
00005D0                            11187                       LOOP  BEGIN               PLACE MESSAGE ON OUTBOUND Q
 0005D0 D703 4004 4004 00004 00004 11193  1                      CLEAR VTMNEXT
 0005D6 9823 6030            00048 11200  1                      LM    R2,R3,VTCOUTH
 0005DA 18F4                       11201  1                      LR    R15,VTMR
 0005DC 12E2                       11202  1                      LTR   R14,R2
 0005DE 4770 7406/18E4       005E4 11203  1                      IF    (Z),'LR R14,VTMR'
 0005E4 740A/47F0 740E 005E4 005E0 11220  1                      ELSE  BEGIN
 0005E8 5040 3004            00004 11231  2                        WITH  (VTM,R3),'ST VTMR,VTMNEXT'
 DROP   VTM,R4
 USING  VTM,R3
 USING  VTM,R4
 DROP   VTM,R3
 0005EC                            11272  1                      END
 0005EC BB2E 6030            00048 11276  1                      CDS   R2,R14,VTCOUTH
 0005F0 4780 741A            005F8 11277  1                      IF    (EQ),EXIT
 0005F4 47F0 73F2            005D0 11291                       END   ,                   END PLACE MESSAGE ON OUTBOUND Q
1VPO      (VPO2193) (13:00) (15MAR04) MAIN TASK -- COMMAND PROCESSING                                                       Page   14
0Current Usings:  (VTM,R4) (VTU,R5) (VTC,R6) (*,R7) (CP,R11) (CV,R12)
0Loc    Object Code    Addr1 Addr2  Stmt Lv Lineno    Source Statement           (Hibal 5, Asmedit 3.3)  HLASM R4.0  2004/03/15 13.00
+___    ______ ____    _____ _____  ____ __ ______    ______ _________
00005F8 9620 500E      0000E       11297                       SET   VTUFSND
00005FC 1B00/4110 601C_            11304                       POST  VTCSWORK            POST WORK FOR SUB-TASK
1VPO      (VPO2193) (13:00) (15MAR04) MAIN TASK -- COMMAND PROCESSING                                                       Page   15
0Current Usings:  (VTM,R4) (VTU,R5) (VTC,R6) (*,R7) (CP,R11) (CV,R12)
0Loc    Object Code    Addr1 Addr2  Stmt Lv Lineno    Source Statement           (Hibal 5, Asmedit 3.3)  HLASM R4.0  2004/03/15 13.00
+___    ______ ____    _____ _____  ____ __ ______    ______ _________
0000604                            11312              GIM      LABEL                     GET INBOUND MESSAGE
0000604 5820 6020            00038 11315                       L     R2,VTCATECB         FIRST MAKE SURE SUB-TASK IS RUNNING
 000608 5420 7676            00854 11316                       N     R2,=A(X'3FFFFFFF')
 00060C 5920 767A/47D0_      00858 11317                       IF    (R2,GT,VTCSTDET),BEGIN        IF SUB-TASK ABENDED
 000614 58F0 767E            0085C 11334  1                      L     R15,=F'400'                   WAIT FOR EXTR TO COMPLETE
 000618 58E0 7682/0DEE       00860 11335  1                      VCALL WAITER
 00061E 47F0 7426            00604 11339  1                      B     GIM
 000622                            11340                       END   ,                             END SUB-TASK ABENDED
0000622 5920 7686/4750_      00864 11345                       IF    (R2,GE,VTCSTEND),BEGIN        IF SUB-TASK NOT RUNNING
 00062A 91A4 6004/4770_0001C       11362  1                      IF    (~VTCFE10A*~VTCFPDN*~VTCFWCLS),BEGIN
 000632 1B00/4110 601C_            11384  2                        POST  VTCSWORK            POST WORK FOR SUB-TASK
 00063A 5810 768A            00868 11390  2                        L     R1,=A(VTAMSTSK)
 00063E 4500 746C/E5E3_      0064A 11391  2                        IDENTIFY EP=VTAMSTSK,ENTRY=(1)
 00064C D703 6020 6020 00038 00038 11396  2                        CLEAR  VTCATECB
 000652 41F0 747E/47F0_      0065C 11403  2                       ATTACH EP=VTAMSTSK,ECB=VTCATECB,ETXR=ETXR,DPMOD=+10
 0006A6 12FF/4780 74F0             11433  2                        IF    (R15,NZ),BEGIN      IF BAD RETURN
 0006AC D717 5008 5008 00008 00008 11447  3                          CLEAR (VTUECB,VTUEND-VTUECB)         FREE USER SLOT
 0006B2 9680 500E      0000E       11454  3                          SET   VTUFFREE
 0006B6 900F C780/4DE0_      00780 11460  3                          KAPUT GIM,'SYSTEM ERROR - ATTACH SUBTASK REFUSED'
 0006CE                            11467  2                        END   ,                   END BAD RETURN
00006CE 5010 6048            00060 11472  2                        ST    R1,VTCSTTCB
 0006D2                            11473  1                      END
 0006D2                            11477                       END   ,                              END SUB-TASK NOT RUNNING
-
 0006D2                            11482              GMLOOP   LABEL                     REMOVE MESSAGE FROM Q
 0006D2 D703 5008 5008 00008 00008 11484                       CLEAR VTUECB
 DROP   VTM,R4                     11491                       WITH  (VTM,R2),BEGIN      R2 = VTM BASE
 USING  VTM,R2
 0006D8 9823 5018            00018 11513  1                      LM    R2,R3,VTUMSGH
 0006DC 1222/4770 7546             11514  1                      IF    (R2,ZERO),BEGIN     IF NO MESSAGE
 0006E2 9104 500E/47E0_0000E       11528  2                        IF    (VTUFEND),BEGIN     IF END FLAG SET
 0006EA 9102 500E/47E0_0000E       11543  3                          IF    (VTUFTEST),BEGIN    IF TEST=YES
 0006F2 94FD 500E      0000E       11558  4                            CLEAR VTUFTEST
 0006F6 58F0 767E            0085C 11565  4                            L     R15,=F'400'         WAIT FOR TEST RESULTS
 0006FA 11FF                       11566  4                            LNR   R15,R15
 0006FC 58E0 7682/0DEE       00860 11567  4                            VCALL WAITER
 000702 4770 75CC            007AA 11571  4                            IF    (NZ),GMATTN         IF ATTN
 000706 47F0 74F4            006D2 11585  4                            B     GMLOOP
 00070A                            11586  3                          END   ,                   END TEST=YES
000070A 47F0 75D8            007B6 11591  3                          B     MFREEU              RETURN TO WYLBUR
 00070E                            11592  2                        END   ,                   END END FLAG SET
000070E 4100 0001            00001 11597  2                        LA    R0,1                -> WAIT <-
 000712 4110 5008            00008 11598  2                        LA    R1,VTUECB
 000716 58E0 768E/0DEE       0086C 11599  2                        VCALL WAITECB
 00071C 4770 75CC            007AA 11603  2                        IF    (NZ),GMATTN
 000720 47F0 74F4            006D2 11617  2                        B     GMLOOP
 000724                            11618  1                      END   ,                   END NO MESSAGE
1VPO      (VPO2193) (13:00) (15MAR04) MAIN TASK -- COMMAND PROCESSING                                                       Page   16
0Current Usings:  (VTM,R2) (VTU,R5) (VTC,R6) (*,R7) (CP,R11) (CV,R12)
0Loc    Object Code    Addr1 Addr2  Stmt Lv Lineno    Source Statement           (Hibal 5, Asmedit 3.3)  HLASM R4.0  2004/03/15 13.00
+___    ______ ____    _____ _____  ____ __ ______    ______ _________
0000724                            11623  1                      LOOP  BEGIN               REMOVE MESSAGE
 000724 58E0 2004/12EE       00004 11629  2                        LT    R14,VTMNEXT
 00072A 4770 7552/1BFF       00730 11633  2                        IF    (Z),'CLEAR R15'
 000730 7556/47F0 7558_00730 0072C 11653  2                        ELSE  'LR R15,R3'
 000736 BB2E 5018            00018 11670  2                        CDS   R2,R14,VTUMSGH
 00073A 4780 7564            00742 11671  2                        IF    (EQ),EXIT
 00073E 47F0 7546            00724 11685  1                      END   ,                   END REMOVE MESSAGE
 USING  VTM,R4                     11690                       END   ,                   END R2 = VTM BASE
 DROP   VTM,R2
0000742 1842                       11708                       LR    VTMR,R2
 000744 1244/4780 74F4             11709                       IF    (VTMR,Z),GMLOOP     BR NO MESSAGE AVAILABLE
 00074A D502 7724 4000_00902 00000 11726                       FAIL  (VTMID,NE,=C'VTM'),VPO,'GIM - VTMID INVALID'
000076C 4820 400A            0000A 11756                       LH    R2,VTMCNT
 000770 4110 4010/1802_      00010 11757                       TSEG  VTMTEXT,(R2)        WRITE TO TERMINAL
 000780 47F0 75AE/0000_      0078C 11785                       FREEMSG
 000798 1B00/41F0 B050_            11799                       TCR
 0007A4 12FF/47D0 75D4             11824                       IF    (R15,POS),BEGIN     IF ATTN
 0007AA 9640 500E      0000E       11838  1           GMATTN     SET   VTUFATTN
 0007AE 47F0 75D8            007B6 11845  1                      B     MFREEU
 0007B2                            11846                       END   ,                   END ATTN
 0007B2 47F0 74F4            006D2 11850                       B     GMLOOP                        END GMLOOP
00007B6 D701 500C 500C 0000C 0000C 11852              MFREEU   CLEAR VTUPOHID            REMOVE MESSAGES & FREE USER SLOT
 DROP   VTM,R4                     11860                       WITH  (VTM,R2),BEGIN      R2 = VTM BASE
 USING  VTM,R2
 0007BC 9823 5018            00018 11882  1                      LM    R2,R3,VTUMSGH
 0007C0 1222/4780 7626             11883  1                      IF    (R2,NZ),BEGIN       IF MESSAGE
00007C6                            11898  2                        LOOP  BEGIN               REMOVE MESSAGE
 0007C6 58E0 2004/12EE       00004 11904  3                          LT    R14,VTMNEXT
 0007CC 4770 75F4/1BFF       007D2 11908  3                          IF    (Z),'CLEAR R15'
 0007D2 75F8/47F0 75FA_007D2 007CE 11928  3                          ELSE  'LR R15,R3'
 0007D8 BB2E 5018            00018 11945  3                          CDS   R2,R14,VTUMSGH
 0007DC 4780 7606            007E4 11946  3                          IF    (EQ),EXIT
 0007E0 47F0 75E8            007C6 11960  2                        END   ,                   END REMOVE MESSAGE
 0007E4 1842                       11965  2                        LR    VTMR,R2
 0007E6 0700/47F0 7616_            11966  2                        FREEMSG
 000800 47F0 75D8            007B6 11980  2                        B     MFREEU
 000804                            11981  1                      END   ,                   END MESSAGE
 USING  VTM,R4                     11985                       END   ,                   END R2 = VTM BASE
 DROP   VTM,R2
0000804 D717 5008 5008 00008 00008 12003                       CLEAR (VTUECB,VTUEND-VTUECB)        FREE USER SLOT
 00080A 9680 500E      0000E       12010                       SET   VTUFFREE
 00080E 1B00/1B11/1BFF             12016                       CLEAR R0,R1,R15           RETURN
0000814 47F0 C7DE            007DE 12025                       B     CVNEXT              MAIN-TASK RETURN
-
 000818                            12027                       LTORG
 000818 E6E8D3C2E4D940C9           12029                             =C'WYLBUR IS ENDING'
1VPO      (VPO2193) (13:00) (15MAR04) MAIN TASK -- COMMAND PROCESSING                                                       Page   17
0Current Usings:  (VTM,R4) (VTU,R5) (VTC,R6) (*,R7) (CP,R11) (CV,R12)
0Loc    Object Code    Addr1 Addr2  Stmt Lv Lineno    Source Statement           (Hibal 5, Asmedit 3.3)  HLASM R4.0  2004/03/15 13.00
+___    ______ ____    _____ _____  ____ __ ______    ______ _________
0000828 00000000                   12030                             =V(SEG)
 00082C 00000018                   12031                             =A(VTC)
 000830 00000001                   12032                             =A(1)
 000834 E5E3D440                   12033                             =CL4'VTM'
 000838 0000004B                   12034                             =A(75)
 00083C C995A58193898440           12035                             =C'Invalid VTAM command'
 000850 00000009                   12036                             =F'9'
 000854 3FFFFFFF                   12037                             =A(X'3FFFFFFF')
 000858 00000002                   12038                             =A(VTCSTDET)
 00085C 00000190                   12039                             =F'400'
 000860 00000000                   12040                             =V(WAITER)
 000864 00000001                   12041                             =A(VTCSTEND)
 000868 00000E28                   12042                             =A(VTAMSTSK)
 00086C 00000000                   12043                             =V(WAITECB)
 000870 00000000                   12044                             =V(SEGCR)
 000874 97999684A483A389           12045                             =C'production Wylbur.'
 000886 D7C1E3C840D5D6E3           12046                             =C'PATH NOT AVAILABLE'
 000898 000A                       12047                             =Y(10)
 00089A 7FF0                       12048                             =Y(X'7FF0')
 00089C C440D5C5E36B               12049                             =C'D NET,'
 0008A2 E540D5C5E36B               12050                             =C'V NET,'
 0008A8 C640D5C5E36B               12051                             =C'F NET,'
 0008AE E5E3C1D440839694           12052                             =C'VTAM commands not yet available in '
 0008D1 C3C1E3C1E2E3D9D6           12053                             =C'CATASTROPHIC VTAM ERROR'
 0008E8 D7C1E3C840C3D3D6           12054                             =C'PATH CLOSED PERMANENTLY'
 0008FF E5E3E4                     12055                             =C'VTU'
 000902 E5E3D4                     12056                             =C'VTM'
 000905 40                         12057                             =C' '
 000906 6B                         12058                             =C','
 000907 5E                         12059                             =C';'
 000908 6BE3C5E2E37EE8C5           12060                             =C',TEST=YES'
000092C 0001020304050607           12065              UPCASE   DC    256AL1(*-UPCASE)
 000A2C                00A2C 009AD 12066                       ORG   UPCASE+C'a'         LOWER CASE
 0009AD C1C2C3C4C5C6C7C8           12067                       DC    C'ABCDEFGHI'
 0009B6                009B6 009BD 12068                       ORG   UPCASE+C'j'         LOWER CASE
 0009BD D1D2D3D4D5D6D7D8           12069                       DC    C'JKLMNOPQR'
 0009C6                009C6 009CE 12070                       ORG   UPCASE+C's'         LOWER CASE
 0009CE E2E3E4E5E6E7E8E9           12071                       DC    C'STUVWXYZ'
 0009D6                009D6 00A2C 12072                       ORG
 DROP   CV,R12                     12073                       DROP
 DROP   CP,R11
 DROP   *,R7
 DROP   VTC,R6
 DROP   VTU,R5
 DROP   VTM,R4
 USING  CP,R11                     12124                       USING (CP),(CV)                     ASSUMED
 USING  CV,R12
1VPO      (VPO2193) (13:00) (15MAR04) MAIN TASK -- CLOSE SUB-TASK                                                           Page   18
0Current Usings:  (CP,R11) (CV,R12)
0Loc    Object Code    Addr1 Addr2  Stmt Lv Lineno    Source Statement           (Hibal 5, Asmedit 3.3)  HLASM R4.0  2004/03/15 13.00
+___    ______ ____    _____ _____  ____ __ ______    ______ _________
0                                  12144              *                                            ENTRY TO CLOSE SUB-TASK
                                   12145              *                                            ASSUME WYLBUR ENDING
0000A2C 50E0 D000/9008_      00000 12147              VTAMSTOP XPROC
 USING  *,R7
 000A46 5860 7052            00A98 12187                       L      VTCR,=A(VTC)
 USING  VTC,R6                     12188                       USING (VTC)
0                                  12199            C          IF    ((VTCATECB,EQ,VTCSTNEV),OR,(VTCATECB,EQ,VTCSTDET)),
 000A4A D503 7056 6020_00A9C 00038                                   VTAMCLSX                     EXIT TASK NOT ATTACHED
 000A5E D503 705E 6020_00AA4 00038 12237                       IF    (VTCATECB,EQ,VTCSTRUN),BEGIN IF RUNNING
 000A68 9620 6004      0001C       12255  1                      SET   VTCFWCLS
 000A6C 1B00/4110 601C_            12261  1                      POST  VTCSWORK
 000A74 4110 7062/1BFF_      00AA8 12267  1                      STIMER WAIT,BINTVL==A(5*100)        WAIT FOR 5 SECONDS
 000A84                            12275                       END   ,                             END RUNNING
0000A84 1BFF                       12280              VTAMCLSX CLEAR R15                           RETURN
 000A86 18D8/9808 D004_            12285                       PEND
 DROP   *,R7
 DROP   CV,R12                     12305                       DROP
 DROP   CP,R11
 DROP   VTC,R6
 USING  CP,R11                     12347                       USING (CP),(CV)                     ASSUMED
 USING  CV,R12
 000A98                            12366                       LTORG
 000A98 00000018                   12368                             =A(VTC)
 000A9C 00000001                   12369                             =AL4(VTCSTNEV)
 000AA0 00000002                   12370                             =AL4(VTCSTDET)
 000AA4 00000000                   12371                             =AL4(VTCSTRUN)
 000AA8 000001F4                   12372                             =A(5*100)
1VPO      (VPO2193) (13:00) (15MAR04) MAIN TASK -- CLEANUP SUB-TASK                                                         Page   19
0Current Usings:  (CP,R11) (CV,R12)
0Loc    Object Code    Addr1 Addr2  Stmt Lv Lineno    Source Statement           (Hibal 5, Asmedit 3.3)  HLASM R4.0  2004/03/15 13.00
+___    ______ ____    _____ _____  ____ __ ______    ______ _________
0USING  VTC,R6                     12377                       USING (VTC)                         ASSUMED
 DROP   CP,R11                     12387                       DROP  CPR                           NOT AVAILABLE
-
 000AAC 50E0 D000/9008_      00000 12395              CLEANST  PROC  ,                   CLEANUP AFTER ABEND OF SUB-TASK
 USING  *,R7
                                   12434              *                                  CALLED FRO IRB ROUTINE
 000AC6 D203 6040 6020 00058 00038 12435                       MVC   VTCSTRTN,VTCATECB    SAVE RETURN CODE
 000ACC D203 6020 72AA 00038 00D70 12436                       MVC   VTCATECB,=A(VTCSTDET)
 000AD2 D603 6048 6048_00060 00060 12437                       IF    (VTCSTTCB,NZ),BEGIN
 000ADC 4110 6048/0A3E       00060 12453  1                      DETACH VTCSTTCB             DETACH THE TASK
 000AE2 D703 6048 6048 00060 00060 12458  1                      CLEAR VTCSTTCB
 000AE8                            12465                       END
0000AE8 5820 604C/1222       00064 12470                       LT    R2,VTCACB
 000AEE 4780 7092            00B58 12474                       IF    (NZ),BEGIN                    IF ACB
 USING  ACB,R2                     12485  1                      WITH  (ACB,R2)                      RE-FORMAT THE ACB
 000AF2 4130 2080            00080 12498  1                      LA    R3,ACBWAPLT
                                   12499  1         C            GENCB AM=VTAM,BLK=ACB,WAREA=(R2),LENGTH=L'ACB,
 000AF6 5020 7056/5030_      00B1C        1                            EXLST=AXLIST,APPLID=(R3),MACRF=NLOGON
 DROP   ACB,R2                     12552                       END   ,                             END ACB
0USING  VTM,R4                     12562                       WITH  VTM
 000B58 5830 72AE            00D74 12574                       L     RPLR,=A(SRPL)                 IDLE RPLS
 USING  RPL,R3                     12575                       WITH  RPL
 000B5C 9400 3045/D703_00045       12587                       CLEAR RPLACTIV.ACTIV,VTCSECB
 000B66 5840 3020            00020 12600                       L     VTMR,RPLAREA
 000B6A D703 3020 3020 00020 00020 12601                       CLEAR RPLAREA
 000B70 1244/4780 70D6             12608                       IF    (VTMR,NZ),BEGIN
 000B76 5F40 72B2            00D78 12622  1                      SL    VTMR,=A(VTMVMSG-VTM)
 000B7A D502 72D8 4000_00D9E 00000 12623  1                      IF    (VTMID,EQ,C'VTM'),'FREEMSG'
 000B9C                            12659                       END
0000B9C 5830 72B6            00D7C 12664                       L     RPLR,=A(RCRPL)
 000BA0 9400 3045/D703_00045       12665                       CLEAR RPLACTIV.ACTIV,VTCRCECB
 000BAA 5840 3020            00020 12678                       L     VTMR,RPLAREA
 000BAE D703 3020 3020 00020 00020 12679                       CLEAR RPLAREA
 000BB4 1244/4780 711A             12686                       IF    (VTMR,NZ),BEGIN
 000BBA 5F40 72B2            00D78 12700  1                      SL    VTMR,=A(VTMVMSG-VTM)
 000BBE D502 72D8 4000_00D9E 00000 12701  1                      IF    (VTMID,EQ,C'VTM'),'FREEMSG'
 000BE0                            12737                       END
0000BE0 5840 6030/1244       00048 12742                       LT   VTMR,VTCOUTH                   FREE OUTBOUND MESSAGES
 000BE6 4780 7148            00C0E 12746                       WHILE (NZ),BEGIN
 000BEA 5820 4004            00004 12759  1                      L     R2,VTMNEXT
 000BEE 0700/47F0 7136_            12760  1                      FREEMSG
 000C08 1242                       12774  1                      LTR   VTMR,R2
 000C0A 47F0 7120            00BE6 12775                       END
 000C0E D707 6030 6030 00048 00048 12780                       CLEAR VTCOUTH
0000C14 9130 6004/4780_0001C       12788                       IF    (VTCFWCLS+VTCFVCLS),'SETMSG "COMMAND TERMINATED"'
 000C24 7162/47F0 7178 00C24 00C1A 12815                       ELSE  BEGIN
 000C28 F384 6060 6040 00078 00058 12826  1                      UNPK  ABNDMSG+16(9),VTCSTRTN(5)
1VPO      (VPO2193) (13:00) (15MAR04) MAIN TASK -- CLEANUP SUB-TASK                                                         Page   20
0Current Usings:  (RPL,R3) (VTM,R4) (VTC,R6) (*,R7) (CV,R12)
0Loc    Object Code    Addr1 Addr2  Stmt Lv Lineno    Source Statement           (Hibal 5, Asmedit 3.3)  HLASM R4.0  2004/03/15 13.00
+___    ______ ____    _____ _____  ____ __ ______    ______ _________
0000C2E DC07 6060 71AA 00078 00C70 12827  1                      TR    ABNDMSG+16(8),=C'0123456789ABCDEF'-C'0'
 000C34 4110 6050/4100_      00068 12828  1                      SETMSG ABNDMSG
 000C3C 0600                       12842  1                      DECR  R0
 000C3E                            12844                       END
 000C3E 9001 6024            0003C 12848                       STM   R0,R1,MSGSAV
0000C42 5850 72BA            00D80 12850                       L     VTUR,=A(USERLIST)
 USING  VTU,R5                     12851                       WITH  VTU
 000C46 D601 5004 5004_00004 00004 12863                       WHILE (VTU#,NZ),BEGIN               SCAN USERS
 000C50 9180 500E/4710_0000E       12881  1                      IF    (~VTUFFREE),BEGIN             IF ACTIVE USER
 000C58 9823 5018            00018 12896  2                        LM    R2,R3,VTUMSGH       R2 := SAVED Q HEAD
 000C5C                            12897  2                        BEGIN                               BEGIN GET NEW MSG ELEMENT
 000C5C 1243                       12901  3                          LTR   VTMR,R3             GET NEWEST MESSAGE ON USER Q
0000C5E 4780 71F2            00CB8 12903  3                          IF    (NZ),BEGIN          IF MESSAGE ON Q
 000C62 9104 500E/4710_0000E       12914  4                            IF    (VTUFEND),COMMANDP
 000C6A 0700/47F0 71B2_            12932  4                            GETMSG                    GET BLANK MSG ELEMENT
 DROP   VTM,R4
 USING  VTM,R1
 USING  VTM,R4
 DROP   VTM,R1
 000C9E 4770 7234            00CFA 13029  4                            IF    (NZ),COMMAND3
0000CA2 9604 500E      0000E       13044  4                            SET   VTUFEND             IF NOT AVAILABLE
 000CA6 1243                       13050  4                            LTR   VTMR,R3
 000CA8 4780 727A            00D40 13051  4                            IF    (ZERO),COMMANDP
 000CAC 92C0 400D      0000D       13065  4                            MVI   POHSTAT,POHEND+POHDATA
 000CB0 94EF 500E      0000E       13066  4                            CLEAR VTUFRCV
 000CB4 47F0 727A            00D40 13073  4                            B     COMMANDP
 000CB8                            13074  3                          END   ,                   END MESSAGE ON Q
0                                  13079  3                          LABEL                     ELSE NO MESSAGE ON Q
 000CB8 47F0 71FE/0000_      00CC4 13080  3                          GETMSG                    GET BLANK MESSAGE ELEMENT
 DROP   VTM,R4
 USING  VTM,R1
 USING  VTM,R4
 DROP   VTM,R1
 000CEA 4770 7234            00CFA 13177  3                          IF    (Z),BEGIN           IF NOT AVAILABLE
 000CEE 9604 500E      0000E       13188  4                            SET   VTUFEND
 000CF2 94EF 500E      0000E       13194  4                            CLEAR VTUFRCV
 000CF6 47F0 727A            00D40 13201  4                            B     COMMANDP
 000CFA                            13202  3                          END   ,                   END NOT AVAILABLE
 000CFA                            13206  2                        END   ,                             END GET NEW MSG ELEMENT
0000CFA D767 4000 4000 00000 00000 13211  2           COMMAND3     CLEAR VTM                 GOT BLANK MSG ELEMENT
 000D00 D203 4000 72BE 00000 00D84 13219  2                        MVC   VTMID,=CL4'VTM'     SIMULATE RECEIVED MESSAGE
 000D06 D201 4008 5004 00008 00004 13220  2                        MVC   VTMU#,VTU#
 000D0C 98EF 6024            0003C 13221  2                        LM    R14,R15,MSGSAV
 000D10 06E0/44E0 72DC_            13222  2                        DEX   R14,'MVC VTMTEXT(0),@R15'
 000D16 5EE0 72C2            00D88 13241  2                        INCR  R14
 000D1A 40E0 400A            0000A 13244  2                        STH   R14,VTMCNT
 000D1E 92C0 400D      0000D       13245  2                        MVI   POHSTAT,POHEND+POHDATA
 000D22 94CF 500E      0000E       13246  2                        CLEAR VTUFRCV+VTUFSND
1VPO      (VPO2193) (13:00) (15MAR04) MAIN TASK -- CLEANUP SUB-TASK                                                         Page   21
0Current Usings:  (RPL,R3) (VTM,R4) (VTU,R5) (VTC,R6) (*,R7) (CV,R12)
0Loc    Object Code    Addr1 Addr2  Stmt Lv Lineno    Source Statement           (Hibal 5, Asmedit 3.3)  HLASM R4.0  2004/03/15 13.00
+___    ______ ____    _____ _____  ____ __ ______    ______ _________
0000D26 1222/4770 7268_            13257  2                        IF    (R2,Z),'LR R2,VTMR'
 000D2E 726C/47F0 7270 00D2E 00D2A 13277  2                        ELSE  BEGIN
 DROP   RPL,R3                     13288  3                          WITH  (VTM,R3)
 DROP   VTM,R4
 USING  VTM,R3
 000D32 5040 3004            00004 13312  3                          ST    VTMR,VTMNEXT
 USING  VTM,R4                     13313  2                        END
 DROP   VTM,R3
 USING  RPL,R3
 000D36 1834                       13338  2                        LR    R3,VTMR
0000D38 9023 5018            00018 13340  2           COMMANDR     STM   R2,R3,VTUMSGH                 REPLACE Q HEAD
0000D3C 9604 500E      0000E       13342  2                        SET   VTUFEND
 000D40 1B00/4110 5008_            13348  2           COMMANDP     POST  VTUECB
 000D48                            13354  1                      END   ,                             END ACTIVE USER
 000D48 4150 5020            00020 13358  1                      LA    VTUR,VTU+L'VTU
 000D4C 47F0 7180            00C46 13359                       END   ,                             END SCAN USERS
0000D50 18D8/9808 D004_            13365                       PEND
 DROP   VTU,R5
 DROP   RPL,R3
 DROP   VTM,R4
 DROP   *,R7
 DROP   CV,R12                     13400                       DROP
 DROP   VTC,R6
 000D60                            13439                       LTORG
 000D60 F0F1F2F3F4F5F6F7           13441                             =C'0123456789ABCDEF'
 000D70 00000002                   13442                             =A(VTCSTDET)
 000D74 00000FF0                   13443                             =A(SRPL)
 000D78 0000000C                   13444                             =A(VTMVMSG-VTM)
 000D7C 00001060                   13445                             =A(RCRPL)
 000D80 00000088                   13446                             =A(USERLIST)
 000D84 E5E3D440                   13447                             =CL4'VTM'
 000D88 00000001                   13448                             =A(1)
 000D8C C3D6D4D4C1D5C440           13449                             =C'COMMAND TERMINATED'
 000D9E E5E3D4                     13450                             =C'VTM'
1VPO      (VPO2193) (13:00) (15MAR04) MAIN-TASK -- SUBTASK COMPLETION IRB ROUTINE                                           Page   22
0Loc    Object Code    Addr1 Addr2  Stmt Lv Lineno    Source Statement           (Hibal 5, Asmedit 3.3)  HLASM R4.0  2004/03/15 13.00
+___    ______ ____    _____ _____  ____ __ ______    ______ _________
0000DA8                00DA8 0007C 13455              ETXR     CSECT              END OF TASK ROUTINE
 000DA8 47F0 F00A/04/C_      0000A 13459                       SAVE  (14,12),T,*         OS ENTRY
 000DB6 185D                       13464                       LR    R5,R13              SAVE R13
 000DB8 187F                       13465                       LR    BR,R15
 USING  ETXR,R7                    13466                       USING ETXR,BR
0000DBA 0700/47F0 7020_            13476                       GETMAIN RC,LV=250*4,LOC=ANY
 000DD4 12FF/4770 705E             13490                       IF    (R15,ZERO),BEGIN
 000DDA 18D1                       13504  1                      LR    R13,R1              SETUP WYLBUR ENVIRONMENT
 000DDC 188D                       13505  1                      LR    R8,R13
 000DDE 1BBB                       13506  1                      CLEAR CPR
 000DE0 58C0 7070            00E18 13510  1                      L     CVR,=V(CV)
 USING  CV,R12                     13511  1                      USING (CV)
-                                         1
 000DE4 5860 7074            00E1C 13522  1                      L     VTCR,=A(VTC)
0000DE8 58E0 7078/0DEE       00E20 13524  1                      ACALL CLEANST             CLEANUP SUBTASK
0000DEE 181D                       13529  1                      LR    R1,R13
 000DF0 47F0 7054/0000_      00DFC 13530  1                      FREEMAIN RC,LV=250*4,A=(1)
 000E06                            13542                       END
0000E06 18D5                       13547                       LR    R13,R5
 000E08 98EC D00C/41F0_      0000C 13548                       RETURN (14,12),RC=0
 DROP   CV,R12                     13552                       DROP
 DROP   ETXR,R7
 000E18                            13591                       LTORG
 000E18 00000000                   13593                             =V(CV)
 000E1C 00000018                   13594                             =A(VTC)
 000E20 00000AAC                   13595                             =A(CLEANST)
1VPO      (VPO2193) (13:00) (15MAR04) SUB-TASK -- CSECTS AND ENTRY                                                          Page   23
0Loc    Object Code    Addr1 Addr2  Stmt Lv Lineno    Source Statement           (Hibal 5, Asmedit 3.3)  HLASM R4.0  2004/03/15 13.00
+___    ______ ____    _____ _____  ____ __ ______    ______ _________
0000E28                00E28 01130 13600              VTAMSTSK CSECT              SUB-TASK TO INTERFACE WITH VTAM
0000F64                00F64 01130 13605                       DATA  BEGIN               SUB-TASK CSECTS
                                   13610  1                      PUSH  PRINT
                                   13612  1                      PRINT NOGEN
0000F64 0000000000000000           13615  1           STRSAVE    DC    18F'0'            OS REGISTER SAVE AREA
0                                  13617  1           *                                  ACB EXIT LIST
 000FAC 81                         13618  1           AXLIST     EXLST AM=VTAM,TPEND=TEEXIT
0                                  13650  1           *                                  SEND RPL
 000FF0 00                         13651  1           SRPL       RPL   AM=VTAM,ECB=VTCSECB,OPTCD=ASY
0                                  13740  1           *                                   RECEIVE COMMAND RPL
                                   13741  1         C RCRPL      RPL   AM=VTAM,ECB=VTCRCECB,OPTCD=(TRUNC,ASY,Q),
 001060 00                                1                            AREALEN=L'VTMVMSG
0                                  13830  1                      POP   PRINT
 000E28                00E28 01130 13832                       END
-
 000E28 47F0 F00E/08/E_      0000E 13839                       SAVE  (14,12),T,*                   OS ENTRY
 000E3A 187F                       13844                       LR    BR,R15
 USING  VTAMSTSK,R7                13845                       USING VTAMSTSK,BR
 000E3C 4120 713C            00F64 13854                       LA    R2,STRSAVE
 000E40 5020 D008            00008 13855                       ST    R2,@R13+8
 000E44 50D0 2004            00004 13856                       ST    R13,@R2+4
 000E48 18D2                       13857                       LR    R13,R2
0000E4A 58C0 7130            00F58 13859                       L     CVR,=V(CV)
 USING  CV,R12                     13860                       USING (CV)
                                   13870
                                   13871                         Switch to same AMODE as the mother task.
                                   13872
 000E4E 9110 C4C6/47E0_004C6       13873                       IF    CVFXA,BEGIN         XA mode...
 000E56 4120 7040            00E68 13888  1                      LA    R2,A31GO
 000E5A 9102 C4C6/47E0_004C6       13889  1                      IF    CVFXA31,BEGIN       We want 31-bit mode...
 000E62 5620 7134            00F5C 13904  2                        O     R2,=A(X'80000000')  31 BIT MODE WANTED
 000E66                            13905  1                      END
 000E66 0B02                       13909  1                      BSM   0,R2
                                   13910  1
 000E68                            13911  1           A31GO      LABEL
 000E68                            13913                       END
                                   13917
 000E68 5860 7138            00F60 13918                       L     VTCR,=A(VTC)
 USING  VTC,R6                     13919                       USING (VTC)
 000E6C 1BBB                       13929                       CLEAR CPR                 NOT RELATED TO A SINGLE USER
0000E6E 9608 6004      0001C       13934                       SET   VTCFACTV
 000E72 D703 6024 6024 0003C 0003C 13940                       CLEAR MSGSAV
0000E78 D603 604C 604C_00064 00064 13948                       IF    (VTCACB,ZERO),BEGIN           GENERATE ACB
 000E82 4100 0098            00098 13964  1                      LA    R0,L'ACBWYL
 000E86 4510 7062/0A0A       00E8A 13965  1                      GETMAIN R,LV=(0)                    ACB MUST BE BELOW 16M
1VPO      (VPO2193) (13:00) (15MAR04) SUB-TASK -- CSECTS AND ENTRY                                                          Page   24
0Current Usings:  (VTC,R6) (VTAMSTSK,R7) (CV,R12)
0Loc    Object Code    Addr1 Addr2  Stmt Lv Lineno    Source Statement           (Hibal 5, Asmedit 3.3)  HLASM R4.0  2004/03/15 13.00
+___    ______ ____    _____ _____  ____ __ ______    ______ _________
0000E8C 1821                       13969  1                      LR    R2,R1
 USING  ACB,R2                     13970  1                      WITH  (ACB,R2)
 000E8E 5020 604C            00064 13983  1                      ST    R2,VTCACB
 000E92 D717 2080 2080 00080 00080 13984  1                      CLEAR (ACBWSTRT,ACBWEND-ACBWSTRT)
 000E98 9280 2094      00094       13991  1                      MVI   ACBOLIST,X'80'
 000E9C D207 2081 C028 00081 00028 13992  1                      MVC   ACBWAPPL,CVWYLSSN
 000EA2 4130 0008            00008 13993  1                      LA    R3,8
 000EA6 1233/47D0 709E             13994  1                      WHILE (R3,POS),BEGIN
 000EAC 4143 2080            00080 14010  2                        LA    R4,ACBWAPPL-1(R3)
 000EB0 9500 4000/4780_00000       14011  2                        IF    (('CLI @R4,0',NE),AND,('CLI @R4,X"40"',NE)),EXIT
 000EC0 0630                       14039  2                        BCTR  R3,0
 000EC2 47F0 707E            00EA6 14040  1                      END
 000EC6 4230 2080            00080 14045  1                      STC   R3,ACBWAPLT
 000ECA 4130 2080            00080 14046  1                      LA    R3,ACBWAPLT
0                                  14048  1         C            GENCB AM=VTAM,BLK=ACB,WAREA=(R2),LENGTH=L'ACB,
 000ECE 5020 70CC/5030_      00EF4        1                            EXLST=AXLIST,APPLID=(R3),MACRF=NLOGON
 000F30 12FF/4780 7114_            14101  1                      STFAIL  (R15,NZ),VPO,'GENACB REFUSED'
0000F3C 4110 71C8            00FF0 14125  1                      LA    R1,SRPL
 USING  IFGRPL,R1                  14126  1                      WITH  (IFGRPL,R1)
 000F40 5020 1018            00018 14139  1                      ST    R2,RPLDACB
 000F44 4110 7238            01060 14140  1                      LA    R1,RCRPL
 000F48 5020 1018            00018 14141  1                      ST    R2,RPLDACB
 DROP   IFGRPL,R1                  14142                       END   ,                             END GENERATE ACB
 DROP   ACB,R2
0000F4C 4170 72A8            010D0 14157                       LA    BR,WAIT
 000F50 07F7                       14158                       BR    BR
 DROP   VTAMSTSK,R7                14159                       USING WAIT,BR
 USING  WAIT,R7
 000F58                            14171                       LTORG
 000F58 00000000                   14173                             =V(CV)
 000F5C 80000000                   14174                             =A(X'80000000')
 000F60 00000018                   14175                             =A(VTC)
1VPO      (VPO2193) (13:00) (15MAR04) SUB-TASK -- WAIT LOOP -- CLOSE OR OPEN ACB                                            Page   25
0Current Usings:  (VTC,R6) (WAIT,R7) (CV,R12)
0Loc    Object Code    Addr1 Addr2  Stmt Lv Lineno    Source Statement           (Hibal 5, Asmedit 3.3)  HLASM R4.0  2004/03/15 13.00
+___    ______ ____    _____ _____  ____ __ ______    ______ _________
00010D0                            14180              WAIT     LABEL                               ---WAIT LOOP---
 0010D0 9108 6004/4710_0001C       14182                       IF    (~VTCFACTV),BEGIN
 0010D8 4100 0001/4110_      00001 14197  1                      WAIT  1,ECBLIST=VTCELST
 0010E4                            14205                       END
 0010E4 94F7 6004      0001C       14209                       CLEAR VTCFACTV
00010E8 9140 601C/47E0_00034       14217                       IF    (VTCSWORK.C),BEGIN            IF WORK FROM MAIN
 0010F0 D703 601C 601C 00034 00034 14233  1                      CLEAR VTCSWORK
 0010F6 5820 604C            00064 14240  1                      L     R2,VTCACB
 USING  ACB,R2                     14241  1                      WITH  (ACB,R2)
 0010FA 9134 6004/4780_0001C       14254  1           CLOSEACB   IF    (VTCFWCLS+VTCFVCLS+VTCFE10A),BEGIN     CLOSE ACB
 001102 9120 6004/47E0_0001C       14277  2                        IF    (VTCFWCLS),'SETMSG "PATH CLOSED"'
 001112 7046/47F0 7056_01112 01108 14301  2                        ELSEIF (VTCFE10A),'SETMSG "CATASTROPHIC VTAM ERROR"'
 001126 705A/47F0 7062_01126 0111C 14334  2                        ELSE  'SETMSG "VTAM IS HALTING"'
 001132 9001 6024            0003C 14354  2                        STM   R0,R1,MSGSAV
0001136 9104 6004/4710_0001C       14356  2                        IF    (~VTCFE10A),BEGIN
 00113E 4110 2094/43E1_      00094 14371  3                          CLOSE ((R2)),MF=(E,ACBOLIST)
 001150 954C 2031/4770_00031       14378  3                          IF    (ACBERFLG,EQ,ACBRNOCF),BEGIN
 001158 4110 2094/43E1_      00094 14396  4                            CLOSE ((R2)),MF=(E,ACBOLIST)
 00116A                            14403  3                          END
 00116A                            14407  2                        END
000116A 9120 6004/47E0_0001C       14412  2                        IF    (VTCFWCLS),BEGIN              IF WYLBUR CLOSING
 001172 58D0 D004            00004 14427  3                          L     R13,@R13+4
 001176 58E0 D00C/41F0_      0000C 14428  3                          RETURN 14,RC=VTCSWCLS               CLOSE TASK NORMALLY
 001180                            14432  2                        END   ,                             END WYLBUR CLOSING
0001180 70B4/47F0 70BC_01180 01170 14437  2                        ELSE  'SET VTCFTDN; CLEAR VTCFWCLS+VTCFVCLS'
 00118C                            14469  1                      END   ,                             END CLOSE ACB
-                                         1
 00118C 70C0/47F0 71E0 0118C 01100 14475  1                      ELSE  BEGIN                         ELSE ~ CLOSE ACB
 001190 9110 2030/4710_00030       14486  2           OPENACB      IF    (~ACBOFLGS.ACBOPEN,AND,~VTCFPDN),BEGIN  OPEN ACB
 0011A0 4110 2094/43E1_      00094 14517  3                          OPEN  ((R2)),MF=(E,ACBOLIST)        OPEN THE ACB
 0011B2 1B00                       14524  3                          CLEAR R0
 0011B4 9110 2030/47E0_00030       14528  3                          IF    (ACBOFLGS.ACBOPEN),BEGIN      IF GOOD
 0011BC 943F 6004      0001C       14544  4                            CLEAR VTCFPDN+VTCFTDN
 0011C0                            14554  3                          END   ,                             END GOOD
00011C0 70F4/47F0 71E0 011C0 011BA 14559  3                          ELSE  BEGIN                         ELSE OPEN FAILED
 0011C4 9514 2031/4770_00031       14570  4                            IF    (ACBERFLG,EQ,ACBONVRT),BEGIN
 0011CC 4110 7B90/4100_      01C60 14588  5                              SETMSG 'COMMAND FAILED - NOT ENOUGH VTAM STORAGE'
 0011D4 47F0 71DC            012AC 14592  5                              B     OPENFAIL
 0011D8                            14593  4                            END
00011D8 9524 2031/4770_00031       14598  4                            IF    (ACBERFLG,EQ,X'24'),BEGIN
 0011E0 4110 7CBF/4100_      01D8F 14615  5                              SETMSG 'VTAM NOT AVAILABLE - INCORRECT PASSWORD'
 0011E8 9680 6004      0001C       14619  5                              SET   VTCFPDN
 0011EC 47F0 71DC            012AC 14625  5                              B     OPENFAIL
 0011F0                            14626  4                            END
00011F0 9550 2031/4770_00031       14631  4                            IF    (ACBERFLG,EQ,ACBOANAT),BEGIN
1VPO      (VPO2193) (13:00) (15MAR04) SUB-TASK -- WAIT LOOP -- CLOSE OR OPEN ACB                                            Page   26
0Current Usings:  (ACB,R2) (VTC,R6) (WAIT,R7) (CV,R12)
0Loc    Object Code    Addr1 Addr2  Stmt Lv Lineno    Source Statement           (Hibal 5, Asmedit 3.3)  HLASM R4.0  2004/03/15 13.00
+___    ______ ____    _____ _____  ____ __ ______    ______ _________
00011F8 4110 7CE6/4100_      01DB6 14649  5                              SETMSG 'VTAM NOT AVAILABLE - NOT INCLUDED IN OPERATING SYSTEM'
 001200 9680 6004      0001C       14653  5                              SET   VTCFPDN
 001204 47F0 71DC            012AC 14659  5                              B     OPENFAIL
 001208                            14660  4                            END
0001208 9552 2031/4770_00031       14665  4                            IF    (ACBERFLG,EQ,ACBOAHLT),BEGIN
 001210 4110 7CB0/4100_      01D80 14683  5                              SETMSG 'VTAM IS HALTING'
 001218 47F0 71DC            012AC 14687  5                              B     OPENFAIL
 00121C                            14688  4                            END
000121C 955C 2031/4770_00031       14693  4                            IF    (ACBERFLG,EQ,ACBOVINA),BEGIN
 001224 4110 7C3C/4100_      01D0C 14711  5                              SETMSG 'VTAM IS NOT ACTIVE'
 00122C 47F0 71DC            012AC 14715  5                              B     OPENFAIL
 001230                            14716  4                            END
0                                  14721  4         C                  IF    ((ACBERFLG,EQ,ACBOAVFY),OR,(ACBERFLG,EQ,ACBOANSN),OR,
 001230 9554 2031/4780_00031              4                                  (ACBERFLG,EQ,ACBOAPLE)),BEGIN
 001248 4110 7D1B/4100_      01DEB 14771  5                              SETMSG 'VTAM NOT AVAILABLE - INVALID APPLICATION NAME'
 001250 9680 6004      0001C       14775  5                              SET   VTCFPDN
 001254 47F0 71DC            012AC 14781  5                              B     OPENFAIL
 001258                            14782  4                            END
0001258 955A 2031/4770_00031       14787  4                            IF    (ACBERFLG,EQ,ACBOAPNM),BEGIN
 001260 4110 7BC8/4100_      01C98 14805  5                              SETMSG 'VTAM TEMPORARILY NOT AVAILABLE - NO APPLICATION NAME'
 001268 47F0 71DC            012AC 14809  5                              B     OPENFAIL
 00126C                            14810  4                            END
000126C 9558 2031/4770_00031       14815  4                            IF    (ACBERFLG,EQ,ACBOAPAA),BEGIN
 001274 4110 7D48/4100_      01E18 14833  5                        SETMSG 'VTAM TEMPORARILY NOT AVAILABLE - APPLICATION ALREADY ACTIVE'
 00127C 47F0 71DC            012AC 14837  5                              B     OPENFAIL
 001280                            14838  4                            END
0001280 9560 2031/4770_00031       14843  4                            IF    (ACBERFLG,EQ,ACBOUNDF),BEGIN
 001288 4110 7C4E/4100_      01D1E 14861  5                              SETMSG 'COMMAND FAILED - VTAM SYSTEM ERROR'
 001290 9680 6004      0001C       14865  5                              SET   VTCFPDN
 001294 47F0 71DC            012AC 14871  5                              B     OPENFAIL
 001298                            14872  4                            END
0001298 95BC 2031/4780_00031       14877  4                            IF    ((ACBERFLG,EQ,ACBOACT),OR,(ACBERFLG,EQ,ACBCBUSY)),BEGIN
 0012A8 47F0 71E0            012B0 14912  5                              EXIT   OPENACB             ALREADY OPEN
 0012AC                            14915  4                            END
-0012AC 9001 6024            0003C 14920  4           OPENFAIL         STM   R0,R1,MSGSAV
 0012B0                            14921  3                          END   ,                             END OPEN FAILED
 0012B0                            14925  2                        END   ,                             END OPEN ACB
 0012B0                            14929  1                      END   ,                             END ~ CLOSE ACB
 DROP   ACB,R2                     14933                       END   ,                             END WORK FROM MAIN
                                   14942                       DROP  R2
1VPO      (VPO2193) (13:00) (15MAR04) SUB-TASK -- WAIT LOOP -- PROCESS RECEIVE COMMAND COMPLETE                             Page   27
0Current Usings:  (VTC,R6) (WAIT,R7) (CV,R12)
0Loc    Object Code    Addr1 Addr2  Stmt Lv Lineno    Source Statement           (Hibal 5, Asmedit 3.3)  HLASM R4.0  2004/03/15 13.00
+___    ______ ____    _____ _____  ____ __ ______    ______ _________
00012B0 9140 6018/47E0_00030       14947              RCVCMD   IF    (VTCRCECB.C),BEGIN            IF RCVCMD POSTED
 0012B8 9608 6004      0001C       14964  1                      SET   VTCFACTV
 0012BC 5830 7BFC            01CCC 14970  1                      L     RPLR,=A(RCRPL)
 USING  RPL,R3                     14971  1                      WITH  RPL
00012C0 1813/4100 0002_            14984  1                      CHECK RPL=(RPLR)
 0012D0 D703 6018 6018 00030 00030 14991  1                      CLEAR VTCRCECB
 0012D6 1B22                       14998  1                      CLEAR R2
 0012D8 49F0 7C70/47D0_      01D40 15002  1                      IF    (R15,GT,=H'4'),'LH R1,=H"28"'
 0012E4 7218/47F0 7230 012E4 012DE 15024  1                      ELSE  BEGIN
 0012E8 4900 7C74/4770_      01D44 15035  2                        IF    (R0,EQ,=H'24'),'LR R1,R0'
 0012F2 7226/47F0 7230 012F2 012EE 15057  2                        ELSE  BEGIN
 0012F6 1F11/4310 300D             15068  3                          LC    R1,RPLRTNCD         R1 := RTNCD
 0012FC 4320 300E            0000E 15075  3                          IC    R2,RPLFDB2          R2 := FDBK2
 001300                            15076  2                        END
 001300                            15080  1                      END
 001300 5910 7C00/47D0_      01CD0 15084  1                      CEIL  R1,28
000130C 58F1 7244            01314 15104  1                      L     R15,RCVCTABL(R1)
 001310 07FF                       15105  1                      BR    R15                 BRANCH TO PROCESS
 001312 0000                              1
 001314 00001380                   15106  1           RCVCTABL   DC    A(RCVCNORM)         NORMAL
 001318 00001774                   15107  1                      DC    A(ERRORRET)         ERROR SYNAD
 00131C 00001558                   15108  1                      DC    A(SEND)             RETRY
 001320 00001774                   15109  1                      DC    A(ERRORRET)         ERROR INTEGRETY
 001324 0000133C                   15110  1                      DC    A(RCVCENV)          ERROR ENVIRONMENT
 001328 0000135C                   15111  1                      DC    A(RCVCLOGC)         ERROR LOGIC
 00132C 00001378                   15112  1                      DC    A(RCVCERR)          ERROR BAD RPL
 001330 00001334                   15113  1                      DC    A(RCVCACB)          ERROR ACB NOT OPEN
-                                         1
 001334                            15115  1           RCVCACB    LABEL                     ACB NOT OPEN
 001334 9400 3045      00045       15117  1                      CLEAR RPLACTIV.ACTIV
 001338 47F0 7488            01558 15125  1                      EXIT  RCVCMD
000133C                            15129  1           RCVCENV    LABEL                     ENVIRONMENT ERROR
 00133C 5920 7C04/4770_      01CD4 15131  1                      IF    (R2,EQ,=A(X'000A')),'SET VTCFE10A; B ERRORRET'
 00134C 5920 7C08/4770_      01CD8 15159  1                      IF    (R2,EQ,=A(X'000D')),'EXIT RCVCMD'
 001358 47F0 76A4            01774 15183  1                      B     ERRORRET
000135C                            15185  1           RCVCLOGC   LABEL                     LOGIC ERROR
 00135C 5920 7C0C/4770_      01CDC 15187  1                      IF    (R2,EQ,=A(X'006F')),'B ERRORRET'   PROCESSOR INACTIVE
 001368 5920 7C10/4770_      01CE0 15209  1                      IF    (R2,EQ,=A(X'0070')),'B ERRORRET'   CLOSE W OUTSTANDING
 001374 47F0 76A4            01774 15231  1                      B     ERRORRET
0001378                            15233  1           RCVCERR    LABEL                     BAD RPL
 001378 5830 3058            00058 15235  1                      L     R3,RPLFDBK2
 00137C FEDC00                     15236  1                      STFAIL ,'UNEXPECTED VTAM RETURN CODE'
-001380                            15241  1           RCVCNORM   LABEL                     NORMAL COMPLETION
 001380 5920 7C14/4770_      01CE4 15243  1                      IF    (R2,EQ,=F'6'),'EXIT RCVCMD'
 00138C 5840 3020/1244       00020 15267  1                      LT    VTMR,RPLAREA
1VPO      (VPO2193) (13:00) (15MAR04) SUB-TASK -- WAIT LOOP -- PROCESS RECEIVE COMMAND COMPLETE                             Page   28
0Current Usings:  (RPL,R3) (VTC,R6) (WAIT,R7) (CV,R12)
0Loc    Object Code    Addr1 Addr2  Stmt Lv Lineno    Source Statement           (Hibal 5, Asmedit 3.3)  HLASM R4.0  2004/03/15 13.00
+___    ______ ____    _____ _____  ____ __ ______    ______ _________
0001392 4770 72CA/47F0_      0139A 15271  1                      IF    (Z),'EXIT RCVCMD'
 00139A 5F40 7C18            01CE8 15290  1                      SL    VTMR,=A(VTMVMSG-VTM)
 USING  VTM,R4                     15291  1                      WITH  VTM
000139E D502 7D83 4000_01E53 00000 15304  1                      STFAIL (VTMID,NE,=C'VTM'),'RCVCMD - VTMID INVALID'
0                                  15331  1           *                                            PROCESS MESSAGE
 0013C2 9101 400D/4710_0000D       15332  1                      IF    (~POHSTAT.POHGEN),'EXIT RCVCMD' IGNORE UNSOLICITED MSG
 0013CE 4810 400E/1211       0000E 15356  1                      LTH   R1,POHID
 0013D4 4770 730C/47F0_      013DC 15360  1                      IF    (Z),'EXIT RCVCMD'
 0013DC 4150 6070            00088 15379  1                      LA    VTUR,USERLIST
 USING  VTU,R5                     15380  1                      WITH  VTU
 0013E0 4910 500C/4780_      0000C 15392  1                      WHILE (R1,NE,VTUPOHID),BEGIN        FIND USER
 0013E8 4150 5020            00020 15411  2                        LA    VTUR,VTU+L'VTU
 0013EC D601 5004 5004_00004 00004 15412  2                        IF    (VTU#,Z),'EXIT RCVCMD'
 0013FA 47F0 7310            013E0 15436  1                      END   ,                             END FIND USER
00013FE 91C0 500E/4780_0000E       15442  1                      IF    (VTUFFREE+VTUFATTN),'EXIT RCVCMD'
 00140A D201 4008 5004 00008 00004 15468  1                      MVC   VTMU#,VTU#
 001410 5810 3030            00030 15469  1                      L     R1,RPLRLEN
 001414 5F10 7C1C            01CEC 15470  1                      SL    R1,=A(L'VTMIHDR)
 001418 4010 400A            0000A 15471  1                      STH   R1,VTMCNT
 00141C D703 3020 3020 00020 00020 15472  1                      CLEAR RPLAREA
 DROP   RPL,R3                     15479  1                      DROP  RPLR
0001422 1B11                       15487  1                      CLEAR R1                  R1 REMEMBERS TO SET END
0001424 D505 7C76 4010_01D46 00010 15492  1                      IF     (VTMTEXT,EQ,C'IST097'),'B RCVCMD1'       "ACCEPTED"
 001432 7366/47F0 7374_01432 0142C 15515  1                      ELSEIF (VTMTEXT,EQ,C'IST039I'),'LA R1,1'        "FAILED"
 001444 7378/47F0 7386_01444 0143E 15547  1                      ELSEIF (VTMTEXT,EQ,C'IST411I'),'LA R1,1'        "VTAMTERM"
 001456 738A/47F0 7398_01456 01450 15579  1                      ELSEIF (VTMTEXT,EQ,C'IST412I'),'LA R1,1'        "VTAMTERM"
 001468 739C/47F0 73AA_01468 01462 15611  1                      ELSEIF (VTMTEXT,EQ,C'IST450I'),'LA R1,1'        "INVALID"
 00147A 73AE/47F0 73BC_0147A 01474 15643  1                      ELSEIF (VTMTEXT,EQ,C'IST452I'),'LA R1,1'        "EXTRANEOUS"
 00148C 73C0/47F0 73CE_0148C 01486 15675  1                      ELSEIF (VTMTEXT,EQ,C'IST453I'),'LA R1,1'        "INVALID"
 00149E 73D2/47F0 73E0_0149E 01498 15707  1                      ELSEIF (VTMTEXT,EQ,C'IST454I'),'LA R1,1'        "STORAGE"
 0014B0 73E4/47F0 73F2_014B0 014AA 15739  1                      ELSEIF (VTMTEXT,EQ,C'IST456I'),'LA R1,1'        "OMITTED"
 0014C2 73F6/47F0 7404_014C2 014BC 15771  1                      ELSEIF (VTMTEXT,EQ,C'IST539I'),'LA R1,1'        "COS FAILED"
 0014D4 7408/47F0 7416_014D4 014CE 15803  1                      ELSEIF (VTMTEXT,EQ,C'IST540I'),'LA R1,1'        "ROUTE FAILED"
 0014E6 741A/47F0 7428_014E6 014E0 15835  1                      ELSEIF (VTMTEXT,EQ,C'IST835I'),'LA R1,1'        "NO USERVARS"
 0014F8 742C/47F0 7440_014F8 014F2 15867  1                      ELSEIF (VTUFDIS),BEGIN              IF DISPLAY COMMAND
 001504 9180 400D/47E0_0000D       15891  2                        IF    (POHSTAT.POHEND),'LA R1,1'    IF POHEND
 001510                            15913  1                      END   ,                             END DISPLAY COMMAND
0001510 7444/47F0 7448_01510 01502 15918  1                      ELSE  'LA R1,1'
0001518                            15936  1           RCVCMD1    LABEL
 001518 1244/4780 7480             15938  1                      IF    (VTMR,NZ),BEGIN
 00151E                            15952  2                        LOOP  BEGIN               QUEUE THE MESSAGE
 00151E D703 4004 4004 00004 00004 15958  3                          CLEAR VTMNEXT
 001524 18F4                       15965  3                          LR    R15,VTMR
 001526 9823 5018            00018 15966  3                          LM    R2,R3,VTUMSGH
 00152A 12E2                       15967  3                          LTR   R14,R2
 00152C 4770 7462/18E4       01532 15968  3                          IF    (Z),'LR R14,VTMR'
 001532 7466/47F0 746A 01532 0152E 15985  3                          ELSE  BEGIN
1VPO      (VPO2193) (13:00) (15MAR04) SUB-TASK -- WAIT LOOP -- PROCESS RECEIVE COMMAND COMPLETE                             Page   29
0Current Usings:  (VTM,R4) (VTU,R5) (VTC,R6) (WAIT,R7) (CV,R12)
0Loc    Object Code    Addr1 Addr2  Stmt Lv Lineno    Source Statement           (Hibal 5, Asmedit 3.3)  HLASM R4.0  2004/03/15 13.00
+___    ______ ____    _____ _____  ____ __ ______    ______ _________
0001536 5040 3004            00004 15996  4                            WITH  (VTM,R3),'ST VTMR,VTMNEXT'
 DROP   VTM,R4
 USING  VTM,R3
 USING  VTM,R4
 DROP   VTM,R3
 00153A                            16037  3                          END
 00153A BB2E 5018            00018 16041  3                          CDS   R2,R14,VTUMSGH
 00153E 4780 7476            01546 16042  3                          IF    (EQ),EXIT
 001542 47F0 744E            0151E 16056  2                        END   ,                   END QUEUE THE MESSAGE
0001546 1211/4780 7480_            16062  2                        IF    (R1,NZ),'SET VTUFEND'  SET END
 001550                            16087  1                      END
0001550 1B00/4110 5008_            16092  1                      POST  VTUECB
 DROP   VTU,R5                     16098                       END   ,                            END RCVCMD POSTED
 DROP   VTM,R4
1VPO      (VPO2193) (13:00) (15MAR04) SUB-TASK -- WAIT LOOP --  PROCESS SEND COMPLETE                                       Page   30
0Current Usings:  (VTC,R6) (WAIT,R7) (CV,R12)
0Loc    Object Code    Addr1 Addr2  Stmt Lv Lineno    Source Statement           (Hibal 5, Asmedit 3.3)  HLASM R4.0  2004/03/15 13.00
+___    ______ ____    _____ _____  ____ __ ______    ______ _________
0001558 9140 6014/47E0_0002C       16115              SEND     IF    (VTCSECB.C),BEGIN            IF SEND POSTED
 001560 9608 6004      0001C       16132  1                      SET   VTCFACTV
 001564 5830 7C20            01CF0 16138  1                      L     RPLR,=A(SRPL)
 USING  RPL,R3                     16139  1                      WITH  RPL
0001568 1813/4100 0002_            16152  1                      CHECK RPL=(RPLR)
 001578 D703 6014 6014 0002C 0002C 16159  1                      CLEAR VTCSECB
 00157E 1B22                       16166  1                      CLEAR R2
 001580 49F0 7C70/47D0_      01D40 16170  1                      IF    (R15,GT,=H'4'),'LH R1,=H"28"'
 00158C 74C0/47F0 74D8 0158C 01586 16192  1                      ELSE  BEGIN
 001590 4900 7C74/4770_      01D44 16203  2                        IF    (R0,EQ,=H'24'),'LR R1,R0'
 00159A 74CE/47F0 74D8 0159A 01596 16225  2                        ELSE  BEGIN
 00159E 1F11/4310 300D             16236  3                          LC    R1,RPLRTNCD         R1 := RTNCD
 0015A4 4320 300E            0000E 16243  3                          IC    R2,RPLFDB2          R2 := FDBK2
 0015A8                            16244  2                        END
 0015A8                            16248  1                      END
 0015A8 5910 7C00/47D0_      01CD0 16252  1                      CEIL  R1,28
 0015B4 5840 3020/1244       00020 16271  1                      LT    VTMR,RPLAREA
 0015BA 4770 7502/FEDC_      015D2 16275  1                      STFAIL  (Z),'SEND - NO BUFFER'
 0015D2 5F40 7C18            01CE8 16295  1                      SL    VTMR,=A(VTMVMSG-VTM)
 USING  VTM,R4                     16296  1                      WITH  VTM
 0015D6 D703 3020 3020 00020 00020 16308  1                      CLEAR RPLAREA
00015DC 58F1 7514            015E4 16316  1                      L     R15,SNDCTABL(R1)
 0015E0 07FF                       16317  1                      BR    R15                 BRANCH TO PROCESS
 0015E2 0000                              1
 0015E4 00001670                   16318  1           SNDCTABL   DC    A(SNDCNORM)         NORMAL
 0015E8 00001774                   16319  1                      DC    A(ERRORRET)         ERROR SYNAD
 0015EC 00001728                   16320  1                      DC    A(SNDRETRY)         RETRY
 0015F0 00001774                   16321  1                      DC    A(ERRORRET)         ERROR INTEGRETY
 0015F4 0000160C                   16322  1                      DC    A(SNDCENV)          ERROR ENVIRONMENT
 0015F8 00001634                   16323  1                      DC    A(SNDCLGIC)         ERROR LOGIC
 0015FC 00001668                   16324  1                      DC    A(SNDCERR)          ERROR BAD RPL
 001600 00001604                   16325  1                      DC    A(SNDCACB)          ERROR ACB NOT OPEN
-                                         1
 001604                            16327  1           SNDCACB    LABEL                     ACB NOT OPEN
 001604 9400 3045      00045       16329  1                      CLEAR RPLACTIV.ACTIV
 001608 47F0 775E            0182E 16337  1                      EXIT  SEND
000160C                            16341  1           SNDCENV    LABEL                     ENVIRONMENT ERROR
 00160C 5920 7C04/4770_      01CD4 16343  1                      IF    (R2,EQ,=A(X'000A')),'SET VTCFE10A; B ERRORRET'
 00161C 5920 7C08/4770_      01CD8 16371  1                      IF    (R2,EQ,=A(X'000D')),'EXIT SEND'    ACB CLOSED
 001628 5920 7C24/4770_      01CF4 16395  1                      IF    (R2,EQ,=A(X'000E')),'B ERRORRET'   VTAM ERROR
0001634                            16418  1           SNDCLGIC   LABEL                     LOGIC ERROR
 001634 5920 7C0C/4770_      01CDC 16420  1                      IF    (R2,EQ,=A(X'006F')),'B ERRORRET'   PROCESSOR INACTIVE
 001640 5920 7C10/4770_      01CE0 16442  1                      IF    (R2,EQ,=A(X'0070')),'B ERRORRET'   CLOSE W OUTSTANDING
 00164C 5920 7C28/4770_      01CF8 16464  1                      IF    (R2,EQ,=A(X'0071')),'B ERRORRET'   INVALID COMMAND
 001658 5920 7C2C/4770_      01CFC 16486  1                      IF    (R2,EQ,=A(X'0073')),'B ERRORRET'   INVALID PARAMETER
 001664 47F0 7598            01668 16508  1                      B     SNDCERR
0001668                            16510  1           SNDCERR    LABEL                     BAD RPL
1VPO      (VPO2193) (13:00) (15MAR04) SUB-TASK -- WAIT LOOP --  PROCESS SEND COMPLETE                                       Page   31
0Current Usings:  (RPL,R3) (VTM,R4) (VTC,R6) (WAIT,R7) (CV,R12)
0Loc    Object Code    Addr1 Addr2  Stmt Lv Lineno    Source Statement           (Hibal 5, Asmedit 3.3)  HLASM R4.0  2004/03/15 13.00
+___    ______ ____    _____ _____  ____ __ ______    ______ _________
0001668 5830 3058            00058 16512  1                      L     R3,RPLFDBK2
 00166C FEDC00                     16513  1                      STFAIL ,'UNEXPECTED VTAM RETURN CODE'
-001670                            16518  1           SNDCNORM   LABEL                     NORMAL COMPLETION
 001670 D502 7D83 4000_01E53 00000 16520  1                      STFAIL  (VTMID,NE,=C'VTM'),'SEND - VTMID INVALID'
 001692 4850 4008/1255       00008 16546  1                      LTH   VTUR,VTMU#
 001698 4770 75D0/47F0_      016A0 16550  1                      IF    (Z),'EXIT SEND'
 0016A0 5950 7C30/47D0_      01D00 16569  1                      STFAIL  (VTUR,GT,=A(&USERS)),'SEND - BAD USER#'
 0016BC 0650                       16594  1                      DECR  VTUR
 0016BE 4C50 7C7C            01D4C 16596  1                      MH    VTUR,=Y(L'VTU)
 0016C2 4155 6070            00088 16597  1                      LA    VTUR,USERLIST(VTUR)
 USING  VTU,R5                     16598  1                      WITH  VTU
 0016C6 D502 7DD3 5000_01EA3 00000 16610  1                      STFAIL  (VTUID,NE,C'VTU'),'SEND - VTUID INVALID'
 0016E8 D501 500C 400E_0000C 0000E 16636  1                      IF    (VTUPOHID,NE,POHID),'EXIT SEND' IGNORE BAD POHID
 0016F6 9180 500E/47E0_0000E       16662  1                      IF    (VTUFFREE),'EXIT SEND'
0                                  16686  1                      COMMENT                             GOOD
 001702 1222/4770 7694             16687  1                      IF    (R2,NZ),SERROR
 001708 9610 500E      0000E       16704  1                      SET   VTUFRCV
 00170C 47F0 7648/0000_      01718 16710  1                      FREEMSG                             RELEASE MESSAGE ELEMENT
 001724 47F0 775E            0182E 16724  1                      EXIT  SEND
0001728 9620 500E      0000E       16728  1           SNDRETRY   SET   VTUFSND                       RETRY
 00172C 4110 0001/5E10_      00001 16735  1                      INCR  R1,VTCRCNT
 001738                            16741  1                      LOOP  BEGIN                         QUEUE BACK ON TAIL
 001738 D703 4004 4004 00004 00004 16747  2                        CLEAR VTMNEXT
 00173E 9823 6030            00048 16754  2                        LM    R2,R3,VTCOUTH
 001742 18F4                       16755  2                        LR    R15,VTMR
 001744 12E2                       16756  2                        LTR   R14,R2
 001746 4770 767C/18E4       0174C 16757  2                        IF    (Z),'LR R14,VTMR'
 00174C 7680/47F0 7684 0174C 01748 16774  2                        ELSE  BEGIN
 001750 5040 3004            00004 16785  3                          WITH  (VTM,R3),'ST VTMR,VTMNEXT'
 DROP   RPL,R3
 DROP   VTM,R4
 USING  VTM,R3
 USING  VTM,R4
 DROP   VTM,R3
 USING  RPL,R3
 001754                            16836  2                        END
 001754 BB2E 6030            00048 16840  2                        CDS   R2,R14,VTCOUTH
 001758 4780 7690            01760 16841  2                        IF    (EQ),EXIT
 00175C 47F0 7668            01738 16855  1                      END   ,                   END QUEUE THE MESSAGE
0001760 47F0 775E            0182E 16861  1                      EXIT  SEND
0001764                            16865  1           SERROR     LABEL                               SEND ERROR
 001764 58F0 604C            00064 16867  1                      L     R15,VTCACB
 USING  ACB,R15                    16868  1                      WITH  (ACB,R15)
 001768 9110 F030/4710_00030       16881  1                      IF    (~ACBOFLGS.ACBOPEN),'EXIT SEND'
                                   16905  1           *                                            SIMULATE RECEIVED MESSAGE
 001774                            16906  1           ERRORRET   LABEL                     SET UP ERROR RETURN MESSAGE
 001774 41E0 0001/5EE0_      00001 16908  1                      INCR  R14,VTCECNT
 001780 9140 500E/47E0_0000E       16914  1                      IF    (VTUFATTN),BEGIN              IF ATTENTION SET
1VPO      (VPO2193) (13:00) (15MAR04) SUB-TASK -- WAIT LOOP --  PROCESS SEND COMPLETE                                       Page   32
0Current Usings:  (RPL,R3) (VTM,R4) (VTU,R5) (VTC,R6) (WAIT,R7) (CV,R12) (ACB,R15)
0Loc    Object Code    Addr1 Addr2  Stmt Lv Lineno    Source Statement           (Hibal 5, Asmedit 3.3)  HLASM R4.0  2004/03/15 13.00
+___    ______ ____    _____ _____  ____ __ ______    ______ _________
0001788 1244/4780 76D8_            16929  2                        IF    (VTMR,NZ),'FREEMSG'
 0017A8 47F0 775E            0182E 16962  2                        B     ACBCLS
 0017AC                            16963  1                      END   ,                              END ATTENTION SET
00017AC 1244/4770 7716_            16968  1                      IF    (VTMR,Z),'GETMSG'
 DROP   VTM,R4
 USING  VTM,R1
 USING  VTM,R4
 DROP   VTM,R1
 0017E6 1244/4780 7756             17084  1                      IF    (VTMR,NZ),BEGIN
 0017EC 9200 400D      0000D       17098  2                        CLEAR POHSTAT             SIMULATE A RECEIVED MESSAGE
 0017F0 9680 400D      0000D       17105  2                        SET   POHSTAT.POHEND
 0017F4 D20C 4010 7DD6 00010 01EA6 17112  2                        MVC   VTMTEXT(13),=CL13'ERROR RETURN '
 0017FA BE1F 4032            00032 17113  2                        ST4   R1,VTMTEXT+34       WORK AREA
 0017FE 920C 4036      00036       17115  2                        MVI   VTMTEXT+38,X'0C'
 001802 BE2F 4037            00037 17116  2                        ST4   R2,VTMTEXT+39
 001806 920C 403B      0003B       17118  2                        MVI   VTMTEXT+43,X'0C'
 00180A F384 401D 4032 0001D 00032 17119  2                        UNPK  VTMTEXT+13(9),VTMTEXT+34(5)
 001810 9240 4025      00025       17120  2                        MVI   VTMTEXT+21,X'40'
 001814 F384 4026 4037 00026 00037 17121  2                        UNPK  VTMTEXT+22(9),VTMTEXT+39(5)
 00181A DC07 4026 7AC8 00026 01B98 17122  2                        TR    VTMTEXT+22(8),=C'0123456789ABCDEF'-C'0'
 001820 D201 400A 7C7E 0000A 01D4E 17123  2                        MVC   VTMCNT,=H'30'
 001826                            17124  1                      END
 001826 4110 0001            00001 17128  1                      LA    R1,1                SET END
 00182A 47F0 7448            01518 17129  1                      B     RCVCMD1             QUEUE THE SIMULATED MESSAGE
 DROP   ACB,R15                    17130                       END   ,                             END SEND POSTED
 DROP   VTU,R5
 DROP   VTM,R4
 DROP   RPL,R3
1VPO      (VPO2193) (13:00) (15MAR04) SUB-TASK -- WAIT LOOP --  PROCESS ACB CLOSED                                          Page   33
0Current Usings:  (VTC,R6) (WAIT,R7) (CV,R12)
0Loc    Object Code    Addr1 Addr2  Stmt Lv Lineno    Source Statement           (Hibal 5, Asmedit 3.3)  HLASM R4.0  2004/03/15 13.00
+___    ______ ____    _____ _____  ____ __ ______    ______ _________
000182E                            17155              ACBCLS   BEGIN                               PROCESS ACB CLOSED
 00182E 5820 604C            00064 17160  1                      L     R2,VTCACB
 USING  ACB,R2                     17161  1                      WITH  (ACB,R2)
 001832 9110 2030/47E0_00030       17174  1                      IF    (ACBOFLGS.ACBOPEN,AND,~VTCFE10A),EXIT
 DROP   ACB,R2                     17207  1                      DROP  R2
 USING  VTM,R4                     17214  1                      WITH  VTM
 001842 94F7 6004      0001C       17226  1                      CLEAR VTCFACTV
0001846 5840 6030/1244       00048 17234  1           FREEOUTB   LT   VTMR,VTCOUTH                   FREE OUTBOUND MESSAGES
 00184C 4780 77A8            01878 17238  1                      IF   (NZ),BEGIN
 001850 5820 4004            00004 17249  2                        L     R2,VTMNEXT
 001854 BA42 6030            00048 17250  2                        CS    VTMR,R2,VTCOUTH
 001858 4770 7776            01846 17251  2                        IF    (NE),FREEOUTB
 00185C 47F0 7798/0000_      01868 17265  2                        FREEMSG
 001874 47F0 7776            01846 17279  2                        B     FREEOUTB
 001878                            17280  1                      END
0001878 D603 6024 6024_0003C 0003C 17285  1                      IF    (MSGSAV,ZERO),BEGIN
 001882 4110 7C80/4100_      01D50 17301  2                        SETMSG 'ACB CLOSED'
 00188A 9001 6024            0003C 17305  2                        STM   R0,R1,MSGSAV
 00188E                            17306  1                      END
000188E 4150 6070            00088 17311  1                      LA    VTUR,USERLIST
 USING  VTU,R5                     17312  1                      WITH  VTU
 001892 D601 5004 5004_00004 00004 17324  1                      WHILE (VTU#,NZ),BEGIN               SCAN USERS
 00189C 91C0 500E/4780_0000E       17342  2                        IF    (VTUFFREE+VTUFATTN),BEGIN     IF USER NOT WAITING
 0018A4                            17360  3           ACBCLS1        LABEL                               DEQUE RAMAINING MESSAGES
 0018A4 98EF 5018            00018 17362  3                          LM    R14,R15,VTUMSGH
 0018A8 1B00/1B11                  17363  3                          CLEAR R0,R1
 0018AC BBE0 5018            00018 17369  3                          CDS   R14,R0,VTUMSGH
 0018B0 4770 77D4            018A4 17370  3                          BNE   ACBCLS1
 0018B4 124E                       17371  3                          LTR   VTMR,R14
 0018B6 4780 7832            01902 17372  3                          WHILE (NZ),BEGIN
 0018BA D502 7D83 4000_01E53 00000 17385  4                            STFAIL  (VTMID,NE,=C'VTM'),'ACBCLS1 - VTMID INVALID'
 0018DE 5820 4004            00004 17411  4                            L     R2,VTMNEXT
 0018E2 0700/47F0 7820_            17412  4                            FREEMSG
 0018FC 1242                       17426  4                            LTR   VTMR,R2
 0018FE 47F0 77E6            018B6 17427  3                          END
 001902 D717 5008 5008 00008 00008 17432  3                          CLEAR (VTUECB,VTUEND-VTUECB)         FREE USER SLOT
 001908 9680 500E      0000E       17439  3                          SET   VTUFFREE
 00190C 47F0 7928            019F8 17445  3                          B     ACBCLSN
 001910                            17446  2                        END   ,                             END USER NOT WAITING
0001910                            17451  2           ACBCLS2      LABEL                               ELSE ACTIVE USER
 001910 1BEE/1BFF                  17453  2                        CLEAR R14,R15
 001914 9823 5018            00018 17459  2                        LM    R2,R3,VTUMSGH       R2 := SAVED Q HEAD
 001918 BB2E 5018            00018 17460  2                        CDS   R2,R14,VTUMSGH      CLEAR Q HEAD TO STOP MAIN
 00191C 4770 7840            01910 17461  2                        BNE   ACBCLS2
0                                  17463  2                        WITH  VTM
 001920                            17466  2                        BEGIN                               BEGIN GET NEW MSG ELEMENT
 001920 1243                       17470  3                          LTR   VTMR,R3             GET NEWEST MESSAGE ON USER Q
0001922 4780 789A            0196A 17472  3                          IF    (NZ),BEGIN          IF MESSAGE ON Q
1VPO      (VPO2193) (13:00) (15MAR04) SUB-TASK -- WAIT LOOP --  PROCESS ACB CLOSED                                          Page   34
0Current Usings:  (VTM,R4) (VTU,R5) (VTC,R6) (WAIT,R7) (CV,R12)
0Loc    Object Code    Addr1 Addr2  Stmt Lv Lineno    Source Statement           (Hibal 5, Asmedit 3.3)  HLASM R4.0  2004/03/15 13.00
+___    ______ ____    _____ _____  ____ __ ______    ______ _________
0001926 9104 500E/4710_0000E       17483  4                            IF    (VTUFEND),ACBCLSR
 00192E 0700/47F0 786C_            17501  4                            GETMSG                    GET BLANK MSG ELEMENT
 DROP   VTM,R4
 USING  VTM,R1
 USING  VTM,R4
 DROP   VTM,R1
 001962 4770 78D2            019A2 17598  4                            IF    (NZ),ACBCLS3
0001966 47F0 7910            019E0 17613  4                            B     ACBCLSR             IF NOT AVAILABLE
 00196A                            17614  3                          END   ,                   END MESSAGE ON Q
0                                  17619  3                          LABEL                     ELSE NO MESSAGE ON Q
 00196A 0700/47F0 78A8_            17620  3                          GETMSG                    GET BLANK MESSAGE ELEMENT
 DROP   VTM,R4
 USING  VTM,R1
 USING  VTM,R4
 DROP   VTM,R1
 00199E 4780 7910            019E0 17717  3                          IF    (Z),ACBCLSR         IF NOT AVAILABLE
 0019A2                            17731  2                        END   ,                             END GET NEW MSG ELEMENT
00019A2 D767 4000 4000 00000 00000 17736  2           ACBCLS3      CLEAR VTM                 GOT BLANK MSG ELEMENT
 0019A8 D203 4000 7C34 00000 01D04 17744  2                        MVC   VTMID,=CL4'VTM'     SIMULATE RECEIVED MESSAGE
 0019AE D201 4008 5004 00008 00004 17745  2                        MVC   VTMU#,VTU#
 0019B4 98EF 6024            0003C 17746  2                        LM    R14,R15,MSGSAV
 0019B8 06E0/44E0 7DE4_            17747  2                        DEX   R14,'MVC VTMTEXT(0),@R15'
 0019BE 5EE0 7C38            01D08 17766  2                        INCR  R14
 0019C2 40E0 400A            0000A 17769  2                        STH   R14,VTMCNT
 0019C6 92C0 400D      0000D       17770  2                        MVI   POHSTAT,POHEND+POHDATA
 0019CA 94CF 500E      0000E       17771  2                        CLEAR VTUFRCV+VTUFSND
00019CE 1222/4770 7906_            17782  2                        IF    (R2,Z),'LR R2,VTMR'
 0019D6 790A/47F0 790E 019D6 019D2 17802  2                        ELSE  BEGIN
 DROP   VTM,R4                     17813  3                          WITH  (VTM,R3)
 USING  VTM,R3
 0019DA 5040 3004            00004 17834  3                          ST    VTMR,VTMNEXT
 USING  VTM,R4                     17835  2                        END
 DROP   VTM,R3
 0019DE 1834                       17853  2                        LR    R3,VTMR
00019E0 98EF 5018            00018 17855  2           ACBCLSR      LM    R14,R15,VTUMSGH               REPLACE Q HEAD
 0019E4 BBE2 5018            00018 17856  2                        CDS   R14,R2,VTUMSGH
 0019E8 4770 7910            019E0 17857  2                        BNE   ACBCLSR
00019EC 9604 500E      0000E       17859  2                        SET   VTUFEND
 0019F0 1B00/4110 5008_            17865  2                        POST  VTUECB
 0019F8                            17871  2           ACBCLSN      LABEL                               NEXT USER
 0019F8 4150 5020            00020 17873  2                        LA    VTUR,VTU+L'VTU
 0019FC 47F0 77C2            01892 17874  1                      END   ,                             END SCAN USERS
0001A00 94C7 6004      0001C       17880  1                      CLEAR VTCFVCLS+VTCFWCLS+VTCFACTV
0001A04 9184 6004/4780_0001C       17895  1                      IF    (VTCFPDN+VTCFE10A),BEGIN      IF PERMANENTLY DOWN
 001A0C 58D0 D004            00004 17913  2                        L     R13,@R13+4
 001A10 58E0 D00C/41F0_      0000C 17914  2                        RETURN 14,RC=VTCSVCLS     CLOSE TASK NORMALLY
1VPO      (VPO2193) (13:00) (15MAR04) SUB-TASK -- WAIT LOOP --  PROCESS ACB CLOSED                                          Page   35
0Current Usings:  (VTM,R4) (VTU,R5) (VTC,R6) (WAIT,R7) (CV,R12)
0Loc    Object Code    Addr1 Addr2  Stmt Lv Lineno    Source Statement           (Hibal 5, Asmedit 3.3)  HLASM R4.0  2004/03/15 13.00
+___    ______ ____    _____ _____  ____ __ ______    ______ _________
0001A1A                            17918  1                      END   ,                            END PERMANENTLY DOWN
0001A1A 47F0 7000            010D0 17923  1                      B     WAIT                         ELSE GOTO WAIT
0DROP   VTU,R5                     17925                       END   ,                             END PROCESS ACB CLOSED
 DROP   VTM,R4
1VPO      (VPO2193) (13:00) (15MAR04) SUB-TASK -- WAIT LOOP --  START RPLS                                                  Page   36
0Current Usings:  (VTC,R6) (WAIT,R7) (CV,R12)
0Loc    Object Code    Addr1 Addr2  Stmt Lv Lineno    Source Statement           (Hibal 5, Asmedit 3.3)  HLASM R4.0  2004/03/15 13.00
+___    ______ ____    _____ _____  ____ __ ______    ______ _________
0001A1E                            17942              STARTRPL BEGIN                               START RPLS
 USING  RPL,R3                     17947  1                      WITH  RPL,VTM
 USING  VTM,R4
 001A1E 5830 7BFC            01CCC 17968  1                      L     RPLR,=A(RCRPL)             ---START RCVCMD---
 001A22 91FF 3045/4710_00045       17969  1                      IF    (~RPLACTIV.ACTIV),BEGIN       IF RCVCMD RPL ~ ACTIVE
 001A2A 5840 3020/1244       00020 17985  2                        LT     VTMR,RPLAREA
 001A30 4780 7994            01A64 17989  2                        IF     (NZ),BEGIN                   IF BUFFER
 001A34 5F40 7C18            01CE8 18000  3                          SL     VTMR,=A(VTMVMSG-VTM)
 001A38 D502 7D83 4000_01E53 00000 18001  3                          STFAIL   (VTMID,NE,C'VTM'),'STARTRPL - VTMID INVALID'
 001A5E D763 4004 4004 00004 00004 18027  3                          CLEAR  (VTMNEXT,VTMEND-VTMNEXT)
 001A64 7998/47F0 79CE 01A64 01A32 18034  2                        END     ELSE,BEGIN                  END BUFFER
 001A68 47F0 79A4/0000_      01A74 18049  3                          GETMSG                              ELSE GET BUFFER
 DROP   VTM,R4
 USING  VTM,R1
 USING  VTM,R4
 DROP   VTM,R1
 001A9A 4780 7A3C            01B0C 18146  3                          IF    (Z),STARTRP2
 001A9E                            18160  2                        END   ,                             END GET BUFFER
0001A9E D201 400E 7C8A 0000E 01D5A 18165  2                        MVC   POHID,=Y(X'7FFF') LARGE NUMBER
0001AA4 1813/0700/91FF_            18167  2                        RCVCMD RPL=(RPLR),AREA=VTMVMSG,AREALEN=L'VTMVMSG
 001AD6 1810                       18190  2                        LR    R1,R0
 001AD8 1F22/4320 300E             18191  2                        LC    R2,RPLFDB2
 001ADE 4910 7C74/4770_      01D44 18198  2                        STFAIL  (R1,EQ,=H'24'),'STARTRPL - RCVCMD-BADRPL'
 001B02 12FF/4770 7A3C_            18223  2                        IF    (R15,ZERO),'SET VTCFACTV'
 001B0C                            18248  1                      END    ,                            END RCVCMD ~ ACTIVE
1VPO      (VPO2193) (13:00) (15MAR04) SUB-TASK -- WAIT LOOP --  START RPLS                                                  Page   37
0Current Usings:  (RPL,R3) (VTM,R4) (VTC,R6) (WAIT,R7) (CV,R12)
0Loc    Object Code    Addr1 Addr2  Stmt Lv Lineno    Source Statement           (Hibal 5, Asmedit 3.3)  HLASM R4.0  2004/03/15 13.00
+___    ______ ____    _____ _____  ____ __ ______    ______ _________
0001B0C                            18253  1           STARTRP2   LABEL                            ---START SEND---
 001B0C 5830 7C20            01CF0 18255  1                      L     RPLR,=A(SRPL)
 001B10 91FF 3045/4710_00045       18256  1                      IF     (~RPLACTIV.ACTIV),BEGIN      IF SEND RPL ~ ACTIVE
 001B18                            18272  2                        LOOP  BEGIN                         REMOVE MESSAGE FROM Q
 DROP   VTM,R4                     18278  3                          WITH  (VTM,R2)
 USING  VTM,R2
 001B18 9823 6030            00048 18299  3                          LM    R2,R3,VTCOUTH
 001B1C 1222/4770 7A56_            18300  3                          IF    (R2,ZERO),'EXIT STARTRPL'  EXIT NO MESSAGE
 001B26 58E0 2004/12EE       00004 18322  3                          LT    R14,VTMNEXT
 001B2C 4770 7A62/1B55       01B32 18326  3                          IF    (Z),'CLEAR R5'
 001B32 7A66/47F0 7A68_01B32 01B2E 18346  3                          ELSE  'LR R15,R3'
 001B38 BB2E 6030            00048 18363  3                          CDS   R2,R14,VTCOUTH
 001B3C 4780 7A74            01B44 18364  3                          IF    (EQ),EXIT
 001B40 47F0 7A48            01B18 18378  2                        END   ,                             END REMOVE MESSAGE FROM Q
 USING  VTM,R4
 DROP   VTM,R2
 001B44 1842                       18397  2                        LR    VTMR,R2
0001B46 D502 7D83 4000_01E53 00000 18399  2                        STFAIL  (VTMID,NE,=C'VTM'),'STARTRP2 - VTMID INVALID'
 001B6C 4850 4008/1255       00008 18425  2                        LTH   VTUR,VTMU#
 001B72 4780 7AC0            01B90 18429  2                        IF    (Z),STARTRP3        BR BAD USER #
 001B76 5950 7C30/4720_      01D00 18443  2                        IF    (VTUR,GT,=A(&USERS)),STARTRP3
 001B7E 0650                       18462  2                        DECR  VTUR
 001B80 4C50 7C7C            01D4C 18464  2                        MH    VTUR,=Y(L'VTU)
 001B84 4155 6070            00088 18465  2                        LA    VTUR,USERLIST(VTUR)
 USING  VTU,R5                     18466  2                        WITH  VTU
 001B88 91C0 500E/4780_0000E       18478  2                        IF    (VTUFFREE+VTUFATTN),BEGIN     IF FREE
 001B90 47F0 7ACC/0000_      01B9C 18496  3           STARTRP3       FREEMSG
 001BA8 47F0 7A3C            01B0C 18510  3                          B     STARTRP2
 001BAC                            18511  2                        END    ,                             END FREE
0001BAC 94DF 500E      0000E       18516  2                        CLEAR VTUFSND
 001BB0 4820 400A            0000A 18523  2                        LH    R2,VTMCNT
 001BB4 4120 2004            00004 18524  2                        LA    R2,@R2+L'VTMIHDR
0001BB8 5830 7C20            01CF0 18526  2                        L     RPLR,=A(SRPL)
                                   18527  2                        WITH  RPL
 001BBC 1813/0700/91FF_            18530  2                        SENDCMD RPL=(RPLR),AREA=VTMVMSG,RECLEN=(R2)
 001BE2 1810                       18550  2                        LR    R1,R0
 001BE4 1F22/4320 300E             18551  2                        LC    R2,RPLFDB2
 001BEA 12FF/4770 7B24_            18558  2                        IF    (R15,ZERO),'SET VTCFACTV'
 001BF4 7B28/47F0 7B88 01BF4 01BEE 18583  2                        ELSE  BEGIN                         IF BAD
 001BF8 4910 7C74/4770_      01D44 18594  3                          STFAIL  (R1,EQ,=H'24'),'STARTRPL2 - INVALID RPL'
 001C1A D703 3020 3020 00020 00020 18619  3                          CLEAR RPLAREA
 001C20 4910 7C8C/4780_      01D5C 18626  3                          IF    (R1,NE,=H'8'),BEGIN
 001C28 47F0 7694            01764 18642  4                            B     SERROR
 001C2C                            18643  3                          END
0001C2C 9620 500E      0000E       18648  3                          SET   VTUFSND                       RETRY
 001C30                            18654  3                          LOOP  BEGIN                         REPLACE MESSAGE ON Q
 001C30 D703 4004 4004 00004 00004 18660  4                            CLEAR VTMNEXT
 001C36 9823 6030            00048 18667  4                            LM    R2,R3,VTCOUTH
 001C3A 18F4                       18668  4                            LR    R15,VTMR
 001C3C 12E2                       18669  4                            LTR   R14,R2
1VPO      (VPO2193) (13:00) (15MAR04) SUB-TASK -- WAIT LOOP --  START RPLS                                                  Page   38
0Current Usings:  (RPL,R3) (VTM,R4) (VTU,R5) (VTC,R6) (WAIT,R7) (CV,R12)
0Loc    Object Code    Addr1 Addr2  Stmt Lv Lineno    Source Statement           (Hibal 5, Asmedit 3.3)  HLASM R4.0  2004/03/15 13.00
+___    ______ ____    _____ _____  ____ __ ______    ______ _________
0001C3E 4770 7B74/18E4       01C44 18670  4                            IF    (Z),'LR R14,VTMR'
 001C44 7B78/47F0 7B7C 01C44 01C40 18687  4                            ELSE  BEGIN
 001C48 5040 3004            00004 18698  5                              WITH  (VTM,R3),'ST VTMR,VTMNEXT'
 DROP   RPL,R3
 DROP   VTM,R4
 USING  VTM,R3
 USING  VTM,R4
 DROP   VTM,R3
 USING  RPL,R3
 001C4C                            18749  4                            END
 001C4C BB2E 6030            00048 18753  4                            CDS   R2,R14,VTCOUTH
 001C50 4780 7B88            01C58 18754  4                            IF    (EQ),EXIT
 001C54 47F0 7B60            01C30 18768  3                          END   ,                             END REPLACE MESSAGE ON Q
0001C58                            18774  2                        END   ,                             END BAD
 DROP   VTU,R5                     18778  1                      END   ,                             END SEND ~ ACTIVE
 DROP   VTM,R4                     18787                       END   ,                             END START RPLS
 DROP   RPL,R3
0001C58 47F0 7000            010D0 18802                       B     WAIT                       ---END OF WAIT LOOP---
-001C60                            18804                       LTORG
 001C60 C3D6D4D4C1D5C440           18806                             =C'COMMAND FAILED - NOT ENOUGH VTAM STORAGE'
 001C88 F0F1F2F3F4F5F6F7           18807                             =C'0123456789ABCDEF'
 001C98 E5E3C1D440E3C5D4           18808                             =C'VTAM TEMPORARILY NOT AVAILABLE - NO APPLICATION NAME'
 001CCC 00001060                   18809                             =A(RCRPL)
 001CD0 0000001C                   18810                             =A(28)
 001CD4 0000000A                   18811                             =A(X'000A')
 001CD8 0000000D                   18812                             =A(X'000D')
 001CDC 0000006F                   18813                             =A(X'006F')
 001CE0 00000070                   18814                             =A(X'0070')
 001CE4 00000006                   18815                             =F'6'
 001CE8 0000000C                   18816                             =A(VTMVMSG-VTM)
 001CEC 00000004                   18817                             =A(L'VTMIHDR)
 001CF0 00000FF0                   18818                             =A(SRPL)
 001CF4 0000000E                   18819                             =A(X'000E')
 001CF8 00000071                   18820                             =A(X'0071')
 001CFC 00000073                   18821                             =A(X'0073')
 001D00 0000000A                   18822                             =A(10)
 001D04 E5E3D440                   18823                             =CL4'VTM'
 001D08 00000001                   18824                             =A(1)
 001D0C E5E3C1D440C9E240           18825                             =C'VTAM IS NOT ACTIVE'
 001D1E C3D6D4D4C1D5C440           18826                             =C'COMMAND FAILED - VTAM SYSTEM ERROR'
 001D40 0004                       18827                             =H'4'
 001D42 001C                       18828                             =H'28'
 001D44 0018                       18829                             =H'24'
 001D46 C9E2E3F0F9F7               18830                             =C'IST097'
 001D4C 0020                       18831                             =Y(L'VTU)
 001D4E 001E                       18832                             =H'30'
 001D50 C1C3C240C3D3D6E2           18833                             =C'ACB CLOSED'
 001D5A 7FFF                       18834                             =Y(X'7FFF')
 001D5C 0008                       18835                             =H'8'
 001D5E D7C1E3C840C3D3D6           18836                             =C'PATH CLOSED'
1VPO      (VPO2193) (13:00) (15MAR04) SUB-TASK -- WAIT LOOP --  START RPLS                                                  Page   39
0Current Usings:  (VTC,R6) (WAIT,R7) (CV,R12)
0Loc    Object Code    Addr1 Addr2  Stmt Lv Lineno    Source Statement           (Hibal 5, Asmedit 3.3)  HLASM R4.0  2004/03/15 13.00
+___    ______ ____    _____ _____  ____ __ ______    ______ _________
0001D69 C3C1E3C1E2E3D9D6           18837                             =C'CATASTROPHIC VTAM ERROR'
 001D80 E5E3C1D440C9E240           18838                             =C'VTAM IS HALTING'
 001D8F E5E3C1D440D5D6E3           18839                             =C'VTAM NOT AVAILABLE - INCORRECT PASSWORD'
 001DB6 E5E3C1D440D5D6E3           18840                             =C'VTAM NOT AVAILABLE - NOT INCLUDED IN OPERATING SYSTEM
 001DBE 40C1E5C1C9D3C1C2                                             '
 001DEB E5E3C1D440D5D6E3           18841                             =C'VTAM NOT AVAILABLE - INVALID APPLICATION NAME'
 001E18 E5E3C1D440E3C5D4           18842                             =C'VTAM TEMPORARILY NOT AVAILABLE - APPLICATION ALREADY
 001E20 D7D6D9C1D9C9D3E8                                             ACTIVE'
 001E53 E5E3D4                     18843                             =C'VTM'
 001E56 C9E2E3F0F3F9C9             18844                             =C'IST039I'
 001E5D C9E2E3F4F1F1C9             18845                             =C'IST411I'
 001E64 C9E2E3F4F1F2C9             18846                             =C'IST412I'
 001E6B C9E2E3F4F5F0C9             18847                             =C'IST450I'
 001E72 C9E2E3F4F5F2C9             18848                             =C'IST452I'
 001E79 C9E2E3F4F5F3C9             18849                             =C'IST453I'
 001E80 C9E2E3F4F5F4C9             18850                             =C'IST454I'
 001E87 C9E2E3F4F5F6C9             18851                             =C'IST456I'
 001E8E C9E2E3F5F3F9C9             18852                             =C'IST539I'
 001E95 C9E2E3F5F4F0C9             18853                             =C'IST540I'
 001E9C C9E2E3F8F3F5C9             18854                             =C'IST835I'
 001EA3 E5E3E4                     18855                             =C'VTU'
 001EA6 C5D9D9D6D940D9C5           18856                             =CL13'ERROR RETURN '
                                   18860                       VLTORG
 DROP   CV,R12                     18873                       DROP
 DROP   WAIT,R7
 DROP   VTC,R6
1VPO      (VPO2193) (13:00) (15MAR04) SUB-TASK -- TPEND EXIT ROUTINE                                                        Page   40
0Loc    Object Code    Addr1 Addr2  Stmt Lv Lineno    Source Statement           (Hibal 5, Asmedit 3.3)  HLASM R4.0  2004/03/15 13.00
+___    ______ ____    _____ _____  ____ __ ______    ______ _________
0001F2E                            18916              TEEXIT   LABEL                     TELEPROCESSING END EXIT
 001F2E 187F                       18918                       LR    BR,R15
 USING  TEEXIT,R7                  18919                       USING TEEXIT,BR
 001F30 188E                       18928                       LR    R8,R14              R8 := SAVE RETURN ADDRESS
 001F32 9823 1000            00000 18929                       LM    R2,R3,0(R1)
 USING  ACB,R2                     18930                       USING ACB,R2
 001F36 5860 7022            01F50 18939                       L     VTCR,=A(VTC)
 USING  VTC,R6                     18940                       USING (VTC)
 001F3A 9610 6004      0001C       18950                       SET   VTCFVCLS            SET CLOSE ACB FOR VTAM
 001F3E 1B00/4110 601C_            18956                       POST  VTCSWORK
 001F46 18E8                       18962                       LR    R14,R8
 001F48 07FE                       18963                       BR    R14                 RETURN
0001F50                            18965                       LTORG
 001F50 00000018                   18967                             =A(VTC)
 DROP   TEEXIT,R7                  18971                       DROP
 DROP   VTC,R6
 DROP   ACB,R2
 001F58                01F58 01130 19013                       END   .

1VPO      (VPO2193) (13:00) (15MAR04) Relocation Dictionary                                                                 Page   41
-   Pos.Id   Rel.Id   Flags    Address                                                       HLASM R4.0  2004/03/15 13.00
0  00000001 00000001    0C    00000020
   00000001 00000001    0C    00000024
   00000001 00000001    08    00000029
   00000001 00000001    0C    0000065C
   00000001 00000001    0C    00000664
   00000001 00000001    0C    0000082C
   00000001 00000001    0C    00000A98
   00000001 00000001    0C    00000B04
   00000001 00000001    0C    00000B08
   00000001 00000001    0C    00000B0C
   00000001 00000001    0C    00000B10
   00000001 00000001    0C    00000B14
   00000001 00000001    0C    00000D80
   00000001 00000002    1C    00000828
   00000001 00000003    1C    00000860
   00000001 00000004    1C    0000086C
   00000001 00000005    1C    00000870
   00000001 00000006    0C    00000670
   00000001 00000008    08    000002A7
   00000001 00000008    08    000002C9
   00000001 00000008    08    00000389
   00000001 00000008    08    000006CB
   00000001 00000008    08    00000769
   00000001 00000008    0C    00000868
   00000001 00000008    0C    00000B28
   00000001 00000008    0C    00000D74
   00000001 00000008    0C    00000D7C
   00000006 00000001    0C    00000E1C
   00000006 00000001    0C    00000E20
   00000006 00000007    1C    00000E18
   00000008 00000001    0C    00000F60
   00000008 00000001    0C    00000FF8
   00000008 00000001    0C    00001068
   00000008 00000001    0C    00001F50
   00000008 00000007    1C    00000F58
   00000008 00000008    0C    00000EDC
   00000008 00000008    0C    00000EE0
   00000008 00000008    0C    00000EE4
   00000008 00000008    0C    00000EE8
   00000008 00000008    0C    00000EEC
   00000008 00000008    0C    00000F00
   00000008 00000008    0C    00000FE9
   00000008 00000008    0C    00001314
   00000008 00000008    0C    00001318
   00000008 00000008    0C    0000131C
   00000008 00000008    0C    00001320
   00000008 00000008    0C    00001324
   00000008 00000008    0C    00001328
   00000008 00000008    0C    0000132C
   00000008 00000008    0C    00001330
   00000008 00000008    0C    000015E4
   00000008 00000008    0C    000015E8
   00000008 00000008    0C    000015EC
   00000008 00000008    0C    000015F0
   00000008 00000008    0C    000015F4
1VPO      (VPO2193) (13:00) (15MAR04) Relocation Dictionary                                                                 Page   42
   00000008 00000008    0C    000015F8
   00000008 00000008    0C    000015FC
   00000008 00000008    0C    00001600
   00000008 00000008    0C    00001CCC
   00000008 00000008    0C    00001CF0

1VPO      (VPO2193) (13:00) (15MAR04) Ordinary Symbol and Literal Cross Reference                                           Page   43
-Symbol   Length   Value     Id    R Type   Defn References                                  HLASM R4.0  2004/03/15 13.00
0$$$@R0        1 00000000 FFFFFFFE     J     709  1005
 $$$@R10       1 00000000 FFFFFFF4     J     839  1069
 $$$@R11       1 00000000 FFFFFFF3     J     852  1082
 $$$@R12       1 00000000 FFFFFFF2     J     865  1095
 $$$@R13       1 00000000 FFFFFFF1     J     878  1108
 $$$@R14       1 00000000 FFFFFFF0     J     891  1121
 $$$@R3        1 00000000 FFFFFFFB     J     748  1135
 $$$@R4        1 00000000 FFFFFFFA     J     761  1147
 $$$@R5        1 00000000 FFFFFFF9     J     774  1159
 $$$@R6        1 00000000 FFFFFFF8     J     787  1171
 $$$@R7        1 00000000 FFFFFFF7     J     800  1018
 $$$@R8        1 00000000 FFFFFFF6     J     813  1031   1043
 $$$@R9        1 00000000 FFFFFFF5     J     826  1056
 $$$C1WYLVPO
               1 0000092C 00000001     J   12061 12063
 $$$C2WYLVPO
               1 00000AAC 00000001     J   12373 12375  13239
 $$$C3WYLVPO
               1 00000DA8 00000001     J   13451 13453
 $$$C4ETXR
               1 00000E24 00000006     J   13596 13598
 $$$C5VTAMSTSK
               1 000010D0 00000008     J   14176 14178  17764
 $$$C6VTAMSTSK
               1 00001EBA 00000008     J   18857 18859
 $$$C7VTAMSTSK
               1 00001F54 00000008     J   18968 18970
 $$$C8VTAMSTSK
               1 00001F58 00000008     J   19016 19018
 $$$D0WYLVPO
               1 00000911 00000001     J    1203 10244  10890  10917  10951  10999  11026
 $$$D2WYLVPO
               1 00000DA1 00000001     J   12374 13228
 $$$D5VTAMSTSK
               1 00001EB3 00000008     J   14177 17753
 $$$FAIL197
               1 00000F3C 00000008     U   14119 14117
 $$$FAIL243
               1 0000137F 00000008     U   15239 15238
 $$$FAIL246
               1 000013C1 00000008     U   15325 15323
 $$$FAIL296
               1 000015D1 00000008     U   16290 16288
 $$$FAIL306
               1 0000166F 00000008     U   16516 16515
 $$$FAIL307
               1 00001691 00000008     U   16541 16539
 $$$FAIL310
               1 000016BB 00000008     U   16589 16587
 $$$FAIL312
               1 000016E7 00000008     U   16631 16629
 $$$FAIL342
               1 000018DE 00000008     U   17406 17404
 $$$FAIL363
               1 00001A5D 00000008     U   18022 18020
1VPO      (VPO2193) (13:00) (15MAR04) Ordinary Symbol and Literal Cross Reference                                           Page   44
 $$$FAIL370
               1 00001B01 00000008     U   18218 18216
 $$$FAIL380
               1 00001B6B 00000008     U   18420 18418
 $$$FAIL387
               1 00001C1A 00000008     U   18614 18612
 $$$RCP        1 00000000 FFFFFFE6     J    5365  7625   9099   9099
 $$$RCV        1 00000000 FFFFFFE8     J    4090  5275   5275
 $$$RDEV       1 00000000 FFFFFFE5     J    7579  7624   7624
 $$$RJCB       1 00000000 FFFFFFE3     J    9217  9491   9491
 $$$RNSCNCB
               1 00000000 FFFFFFE7     J    5286  5359   5359
 $$$RTTYPE
               1 00000000 FFFFFFE4     J    9110  9211   9211
 $$$RVTU       1 00000000 FFFFFFEE     J    1333  1392   1392
 $$$SEGCB1
               4 00000050 FFFFFFE6     F    5396  5482   5482
 $$$V01       20 00001EBA 00000008     C   18866  9935
 $$$V02       19 00001ECE 00000008     C   18867  9964
 $$$V03       20 00001EE1 00000008     C   18868 10202
 $$$V04       37 00001EF5 00000008     C   18869 11466
 $$$V05       19 00001F1A 00000008     C   18870 11750
 $$$102        4 00000918 00000001     I   10896 10888X
 $$$103        4 00000918 00000001     I   10895 10896  10896
 $$$104F       2 00000558 00000001     H   10986 10909B
 $$$105        4 0000091C 00000001     I   10923 10915X
 $$$106        4 0000091C 00000001     I   10922 10923  10923
 $$$107F       2 00000558 00000001     H   10982 10936B
 $$$108        4 00000920 00000001     I   10957 10949X
 $$$109        4 00000920 00000001     I   10956 10957  10957
 $$$111        4 00000924 00000001     I   11005 10997X
 $$$112        4 00000924 00000001     I   11004 11005  11005
 $$$113F       2 00000588 00000001     H   11056 11018B
 $$$114        4 00000928 00000001     I   11032 11024X
 $$$115        4 00000928 00000001     I   11031 11032  11032
 $$$117B       4 0000059A 00000001     I   11091 11104
 $$$117F       2 000005A2 00000001     H   11101 11091B 11103
 $$$117T       2 0000059E 00000001     H   11094 11080B
 $$$119E       2 000005A6 00000001     H   11111 11105
 $$$119F       2 000005AA 00000001     H   11118 11107B
 $$$120F       2 000005B2 00000001     H   11139 11126B
 $$$121F       2 000005D0 00000001     H   11185 11149B
 $$$122F       2 000005D0 00000001     H   11181 11166B
 $$$123F       2 000005F8 00000001     H   11295 11285B
 $$$123S       2 000005D0 00000001     H   11191 11294B
 $$$124B       4 000005DE 00000001     I   11209 11222
 $$$124F       2 000005E4 00000001     H   11219 11209B 11221
 $$$125E       2 000005E8 00000001     H   11229 11223
 $$$125F       2 000005EC 00000001     H   11275 11225B
 $$$127F       2 00000622 00000001     H   11343 11329B
 $$$128F       2 000006D2 00000001     H   11480 11357B
 $$$129F       2 000006D2 00000001     H   11476 11379B
 $$$130F       2 000006CE 00000001     H   11470 11442B
 $$$132F       2 00000724 00000001     H   11621 11523B
 $$$133F       2 0000070E 00000001     H   11595 11538B
 $$$134F       2 0000070A 00000001     H   11589 11553B
 $$$137F       2 00000742 00000001     H   11689 11679B
 $$$137S       2 00000724 00000001     H   11627 11688B
 $$$138B       4 0000072A 00000001     I   11639 11655
1VPO      (VPO2193) (13:00) (15MAR04) Ordinary Symbol and Literal Cross Reference                                           Page   45
 $$$138F       2 00000730 00000001     H   11652 11639B 11654
 $$$139E       2 00000734 00000001     H   11662 11656
 $$$139F       2 00000736 00000001     H   11669 11658B
 $$$142F       2 0000076C 00000001     H   11754 11739B
 $$$143F       2 000007B2 00000001     H   11849 11833B
 $$$144F       2 00000804 00000001     H   11984 11892B
 $$$145F       2 000007E4 00000001     H   11964 11954B
 $$$145S       2 000007C6 00000001     H   11902 11963B
 $$$146B       4 000007CC 00000001     I   11914 11930
 $$$146F       2 000007D2 00000001     H   11927 11914B 11929
 $$$147E       2 000007D6 00000001     H   11937 11931
 $$$147F       2 000007D8 00000001     H   11944 11933B
 $$$151B       1 00000A46 00000001     X   12171 12178U
 $$$154F       2 00000A84 00000001     H   12278 12250B
 $$$155        1 00000050 00000001 A   U   12302 12299  12301
 $$$157B       1 00000AC6 00000001     X   12418 12425U
 $$$158F       2 00000AE8 00000001     H   12468 12448B
 $$$159F       2 00000B58 00000001     H   12560 12480B
 $$$161F       2 00000B9C 00000001     H   12662 12617B
 $$$162F       2 00000B9C 00000001     H   12658 12635B
 $$$164F       2 00000BE0 00000001     H   12740 12695B
 $$$165F       2 00000BE0 00000001     H   12736 12713B
 $$$166F       2 00000C0E 00000001     H   12779 12754B
 $$$166S       2 00000BE6 00000001     H   12751 12778B
 $$$168B       4 00000C18 00000001     I   12801 12817
 $$$168F       2 00000C24 00000001     H   12814 12801B 12816
 $$$169E       2 00000C28 00000001     H   12824 12818
 $$$169F       2 00000C3E 00000001     H   12847 12820B
 $$$170F       2 00000D50 00000001     H   13363 12876B
 $$$170S       2 00000C46 00000001     H   12868 13362B
 $$$172F       2 00000D48 00000001     H   13357 12891B
 $$$174F       2 00000CB8 00000001     H   13077 12909B
 $$$176B       4 00000C86 00000001     I   12956 12972
 $$$176F       2 00000C8C 00000001     H   12969 12956B 12971
 $$$177E       2 00000C90 00000001     H   12979 12973
 $$$177F       2 00000C9C 00000001     H   13027 12975B
 $$$180B       4 00000CD2 00000001     I   13104 13120
 $$$180F       2 00000CD8 00000001     H   13117 13104B 13119
 $$$181E       2 00000CDC 00000001     H   13127 13121
 $$$181F       2 00000CE8 00000001     H   13175 13123B
 $$$182F       2 00000CFA 00000001     H   13205 13183B
 $$$183        6 00000DA2 00000001     I   13234 13226X
 $$$184        6 00000DA2 00000001     I   13233 13234  13234
 $$$185B       4 00000D28 00000001     I   13266 13279
 $$$185F       2 00000D2E 00000001     H   13276 13266B 13278
 $$$186E       2 00000D32 00000001     H   13286 13280
 $$$186F       2 00000D36 00000001     H   13337 13282B
 $$$187        1 00000050 00000001 A   U   13397 13394  13396
 $$$188F       2 00000E06 00000006     H   13545 13499B
 $$$189F       2 00000E68 00000008     H   13916 13883B
 $$$190F       2 00000E66 00000008     H   13908 13899B
 $$$191F       2 00000F4C 00000008     H   14155 13959B
 $$$193F       2 00000EC6 00000008     H   14044 14005B 14033B
 $$$193S       2 00000EA6 00000008     H   13999 14043B
 $$$195F       2 00000EC0 00000008     H   14036 14021B
 $$$198F       2 00000F3C 00000008     H   14123 14112B
 $$$199F       2 000010E4 00000008     H   14208 14192B
 $$$200F       2 000012B0 00000008     H   14941 14228B
 $$$202B       4 000010FE 00000008     I   14272 14477
1VPO      (VPO2193) (13:00) (15MAR04) Ordinary Symbol and Literal Cross Reference                                           Page   46
 $$$202F       2 0000118C 00000008     H   14472 14272B 14476
 $$$203B       4 00001106 00000008     I   14287 14304
 $$$203F       2 00001112 00000008     H   14300 14287B 14303
 $$$204B       4 0000111A 00000008     I   14320 14336
 $$$204E       2 00001116 00000008     H   14311 14305
 $$$204F       2 00001126 00000008     H   14333 14307B 14320B 14335
 $$$206E       2 0000112A 00000008     H   14343 14337
 $$$206F       2 00001132 00000008     H   14353 14339B
 $$$207F       2 0000116A 00000008     H   14410 14366B
 $$$208F       2 0000116A 00000008     H   14406 14391B
 $$$209B       4 0000116E 00000008     I   14422 14439
 $$$209F       2 00001180 00000008     H   14435 14422B 14438
 $$$210E       2 00001184 00000008     H   14446 14440
 $$$210F       2 0000118C 00000008     H   14468 14442B
 $$$211E       2 00001190 00000008     H   14484 14478
 $$$211F       2 000012B0 00000008     H   14932 14480B
 $$$212F       2 000012B0 00000008     H   14928 14500B 14512B 14914B
 $$$215B       4 000011B8 00000008     I   14539 14561
 $$$215F       2 000011C0 00000008     H   14557 14539B 14560
 $$$217E       2 000011C4 00000008     H   14568 14562
 $$$217F       2 000012B0 00000008     H   14924 14564B
 $$$218F       2 000011D8 00000008     H   14596 14583B
 $$$219F       2 000011F0 00000008     H   14629 14610B
 $$$220F       2 00001208 00000008     H   14663 14644B
 $$$221F       2 0000121C 00000008     H   14691 14678B
 $$$222F       2 00001230 00000008     H   14719 14706B
 $$$223F       2 00001258 00000008     H   14785 14766B
 $$$223T       2 00001248 00000008     H   14769 14738B 14753B
 $$$226F       2 0000126C 00000008     H   14813 14800B
 $$$227F       2 00001280 00000008     H   14841 14828B
 $$$228F       2 00001298 00000008     H   14875 14856B
 $$$229F       2 000012AC 00000008     H   14918 14907B
 $$$229T       2 000012A8 00000008     H   14910 14894B
 $$$231F       2 00001558 00000008     H   16113 14959B 15127B 15178B 15262B 15285B 15351B 15374B 15431B 15463B
 $$$233B       4 000012DC 00000008     I   15013 15026
 $$$233F       2 000012E4 00000008     H   15023 15013B 15025
 $$$234E       2 000012E8 00000008     H   15033 15027
 $$$234F       2 00001300 00000008     H   15083 15029B
 $$$235B       4 000012EC 00000008     I   15046 15059
 $$$235F       2 000012F2 00000008     H   15056 15046B 15058
 $$$236E       2 000012F6 00000008     H   15066 15060
 $$$236F       2 00001300 00000008     H   15079 15062B
 $$$237F       2 0000130C 00000008     H   15102 15093B
 $$$239F       2 0000134C 00000008     H   15158 15142B
 $$$240F       2 00001358 00000008     H   15182 15170B
 $$$241F       2 00001368 00000008     H   15208 15198B
 $$$242F       2 00001374 00000008     H   15230 15220B
 $$$244F       2 0000138C 00000008     H   15266 15254B
 $$$245F       2 0000139A 00000008     H   15289 15277B
 $$$247F       2 000013C2 00000008     H   15329 15318B
 $$$248F       2 000013CE 00000008     H   15355 15343B
 $$$250F       2 000013DC 00000008     H   15378 15366B
 $$$251F       2 000013FE 00000008     H   15440 15406B
 $$$251S       2 000013E0 00000008     H   15397 15439B
 $$$253F       2 000013FA 00000008     H   15435 15423B
 $$$254F       2 0000140A 00000008     H   15467 15455B
 $$$255B       4 0000142A 00000008     I   15504 15518
 $$$255F       2 00001432 00000008     H   15514 15504B 15517
 $$$256B       4 0000143C 00000008     I   15536 15550
1VPO      (VPO2193) (13:00) (15MAR04) Ordinary Symbol and Literal Cross Reference                                           Page   47
 $$$256E       2 00001436 00000008     H   15525 15519
 $$$256F       2 00001444 00000008     H   15546 15521B 15536B 15549
 $$$258B       4 0000144E 00000008     I   15568 15582
 $$$258E       2 00001448 00000008     H   15557 15551
 $$$258F       2 00001456 00000008     H   15578 15553B 15568B 15581
 $$$260B       4 00001460 00000008     I   15600 15614
 $$$260E       2 0000145A 00000008     H   15589 15583
 $$$260F       2 00001468 00000008     H   15610 15585B 15600B 15613
 $$$262B       4 00001472 00000008     I   15632 15646
 $$$262E       2 0000146C 00000008     H   15621 15615
 $$$262F       2 0000147A 00000008     H   15642 15617B 15632B 15645
 $$$264B       4 00001484 00000008     I   15664 15678
 $$$264E       2 0000147E 00000008     H   15653 15647
 $$$264F       2 0000148C 00000008     H   15674 15649B 15664B 15677
 $$$266B       4 00001496 00000008     I   15696 15710
 $$$266E       2 00001490 00000008     H   15685 15679
 $$$266F       2 0000149E 00000008     H   15706 15681B 15696B 15709
 $$$268B       4 000014A8 00000008     I   15728 15742
 $$$268E       2 000014A2 00000008     H   15717 15711
 $$$268F       2 000014B0 00000008     H   15738 15713B 15728B 15741
 $$$270B       4 000014BA 00000008     I   15760 15774
 $$$270E       2 000014B4 00000008     H   15749 15743
 $$$270F       2 000014C2 00000008     H   15770 15745B 15760B 15773
 $$$272B       4 000014CC 00000008     I   15792 15806
 $$$272E       2 000014C6 00000008     H   15781 15775
 $$$272F       2 000014D4 00000008     H   15802 15777B 15792B 15805
 $$$274B       4 000014DE 00000008     I   15824 15838
 $$$274E       2 000014D8 00000008     H   15813 15807
 $$$274F       2 000014E6 00000008     H   15834 15809B 15824B 15837
 $$$276B       4 000014F0 00000008     I   15856 15870
 $$$276E       2 000014EA 00000008     H   15845 15839
 $$$276F       2 000014F8 00000008     H   15866 15841B 15856B 15869
 $$$278B       4 00001500 00000008     I   15886 15920
 $$$278E       2 000014FC 00000008     H   15877 15871
 $$$278F       2 00001510 00000008     H   15916 15873B 15886B 15919
 $$$280F       2 00001510 00000008     H   15912 15902B
 $$$282E       2 00001514 00000008     H   15927 15921
 $$$282F       2 00001518 00000008     H   15934 15923B
 $$$283F       2 00001550 00000008     H   16090 15947B
 $$$284F       2 00001546 00000008     H   16060 16050B
 $$$284S       2 0000151E 00000008     H   15956 16059B
 $$$285B       4 0000152C 00000008     I   15974 15987
 $$$285F       2 00001532 00000008     H   15984 15974B 15986
 $$$286E       2 00001536 00000008     H   15994 15988
 $$$286F       2 0000153A 00000008     H   16040 15990B
 $$$288F       2 00001550 00000008     H   16086 16071B
 $$$289F       2 0000182E 00000008     H   17153 16127B 16339B 16390B 16564B 16657B 16680B 16726B 16863B 16900B
 $$$291B       4 00001584 00000008     I   16181 16194
 $$$291F       2 0000158C 00000008     H   16191 16181B 16193
 $$$292E       2 00001590 00000008     H   16201 16195
 $$$292F       2 000015A8 00000008     H   16251 16197B
 $$$293B       4 00001594 00000008     I   16214 16227
 $$$293F       2 0000159A 00000008     H   16224 16214B 16226
 $$$294E       2 0000159E 00000008     H   16234 16228
 $$$294F       2 000015A8 00000008     H   16247 16230B
 $$$295F       2 000015B4 00000008     H   16270 16261B
 $$$297F       2 000015D2 00000008     H   16294 16283B
 $$$299F       2 0000161C 00000008     H   16370 16354B
 $$$300F       2 00001628 00000008     H   16394 16382B
1VPO      (VPO2193) (13:00) (15MAR04) Ordinary Symbol and Literal Cross Reference                                           Page   48
 $$$301F       2 00001634 00000008     H   16416 16406B
 $$$302F       2 00001640 00000008     H   16441 16431B
 $$$303F       2 0000164C 00000008     H   16463 16453B
 $$$304F       2 00001658 00000008     H   16485 16475B
 $$$305F       2 00001664 00000008     H   16507 16497B
 $$$308F       2 00001692 00000008     H   16545 16534B
 $$$309F       2 000016A0 00000008     H   16568 16556B
 $$$311F       2 000016BC 00000008     H   16593 16582B
 $$$313F       2 000016E8 00000008     H   16635 16624B
 $$$314F       2 000016F6 00000008     H   16661 16649B
 $$$315F       2 00001702 00000008     H   16684 16672B
 $$$317F       2 00001760 00000008     H   16859 16849B
 $$$317S       2 00001738 00000008     H   16745 16858B
 $$$318B       4 00001746 00000008     I   16763 16776
 $$$318F       2 0000174C 00000008     H   16773 16763B 16775
 $$$319E       2 00001750 00000008     H   16783 16777
 $$$319F       2 00001754 00000008     H   16839 16779B
 $$$321F       2 00001774 00000008     H   16904 16892B
 $$$323F       2 000017AC 00000008     H   16966 16924B
 $$$324F       2 000017A8 00000008     H   16961 16938B
 $$$325F       2 000017E6 00000008     H   17083 16977B
 $$$326B       4 000017CE 00000008     I   17007 17023
 $$$326F       2 000017D4 00000008     H   17020 17007B 17022
 $$$327E       2 000017D8 00000008     H   17030 17024
 $$$327F       2 000017E4 00000008     H   17078 17026B
 $$$328F       2 00001826 00000008     H   17127 17093B
 $$$330F       2 00001A1E 00000008     H   17940 17201B
 $$$331F       2 00001842 00000008     H   17204 17187B
 $$$334F       2 00001878 00000008     H   17283 17244B
 $$$336F       2 0000188E 00000008     H   17309 17296B
 $$$337F       2 00001A00 00000008     H   17878 17337B
 $$$337S       2 00001892 00000008     H   17329 17877B
 $$$339F       2 00001910 00000008     H   17449 17355B
 $$$340F       2 00001902 00000008     H   17431 17380B
 $$$340S       2 000018B6 00000008     H   17377 17430B
 $$$343F       2 000018DE 00000008     H   17410 17399B
 $$$346F       2 0000196A 00000008     H   17617 17478B
 $$$348B       4 0000194A 00000008     I   17525 17541
 $$$348F       2 00001950 00000008     H   17538 17525B 17540
 $$$349E       2 00001954 00000008     H   17548 17542
 $$$349F       2 00001960 00000008     H   17596 17544B
 $$$351B       4 00001986 00000008     I   17644 17660
 $$$351F       2 0000198C 00000008     H   17657 17644B 17659
 $$$352E       2 00001990 00000008     H   17667 17661
 $$$352F       2 0000199C 00000008     H   17715 17663B
 $$$354        6 00001EB4 00000008     I   17759 17751X
 $$$355        6 00001EB4 00000008     I   17758 17759  17759
 $$$356B       4 000019D0 00000008     I   17791 17804
 $$$356F       2 000019D6 00000008     H   17801 17791B 17803
 $$$357E       2 000019DA 00000008     H   17811 17805
 $$$357F       2 000019DE 00000008     H   17852 17807B
 $$$358F       2 00001A1A 00000008     H   17921 17908B
 $$$359F       2 00001C58 00000008     H   18800 18317B
 $$$360F       2 00001B0C 00000008     H   18251 17980B
 $$$362B       4 00001A30 00000008     I   17995 18040
 $$$362F       2 00001A64 00000008     H   18037 17995B 18039
 $$$364F       2 00001A5E 00000008     H   18026 18015B
 $$$366E       2 00001A68 00000008     H   18047 18041
 $$$366F       2 00001A9E 00000008     H   18163 18043B
1VPO      (VPO2193) (13:00) (15MAR04) Ordinary Symbol and Literal Cross Reference                                           Page   49
 $$$367B       4 00001A82 00000008     I   18073 18089
 $$$367F       2 00001A88 00000008     H   18086 18073B 18088
 $$$368E       2 00001A8C 00000008     H   18096 18090
 $$$368F       2 00001A98 00000008     H   18144 18092B
 $$$371F       2 00001B02 00000008     H   18222 18211B
 $$$372F       2 00001B0C 00000008     H   18247 18232B
 $$$373F       2 00001C58 00000008     H   18786 18267B
 $$$375F       2 00001B44 00000008     H   18396 18372B
 $$$375S       2 00001B18 00000008     H   18276 18395B
 $$$376F       2 00001B26 00000008     H   18321 18309B
 $$$377B       4 00001B2C 00000008     I   18332 18348
 $$$377F       2 00001B32 00000008     H   18345 18332B 18347
 $$$378E       2 00001B36 00000008     H   18355 18349
 $$$378F       2 00001B38 00000008     H   18362 18351B
 $$$381F       2 00001B6C 00000008     H   18424 18413B
 $$$384F       2 00001BAC 00000008     H   18514 18491B
 $$$385B       4 00001BEC 00000008     I   18567 18585
 $$$385F       2 00001BF4 00000008     H   18582 18567B 18584
 $$$386E       2 00001BF8 00000008     H   18592 18586
 $$$386F       2 00001C58 00000008     H   18777 18588B
 $$$388F       2 00001C1A 00000008     H   18618 18607B
 $$$389F       2 00001C2C 00000008     H   18646 18637B
 $$$390F       2 00001C58 00000008     H   18772 18762B
 $$$390S       2 00001C30 00000008     H   18658 18771B
 $$$391B       4 00001C3E 00000008     I   18676 18689
 $$$391F       2 00001C44 00000008     H   18686 18676B 18688
 $$$392E       2 00001C48 00000008     H   18696 18690
 $$$392F       2 00001C4C 00000008     H   18752 18692B
 $$$43B        1 000001DE 00000001     X    9677  9684U
 $$$44F        2 00000204 00000001     H    9729  9696B
 $$$45F        2 0000021C 00000001     H    9769  9753B
 $$$46F        2 00000230 00000001     H    9796  9780B
 $$$47F        2 00000244 00000001     H    9823  9807B
 $$$48F        2 00000288 00000001     H    9909  9859B
 $$$48S        2 00000248 00000001     H    9852  9878B  9908B
 $$$51F        2 000002AA 00000001     H    9939  9924B
 $$$52F        2 000002CC 00000001     H    9968  9953B
 $$$53F        2 000002E8 00000001     H   10002  9992B
 $$$54F        2 0000031E 00000001     H   10043 10018B
 $$$54S        2 000002F6 00000001     H   10015 10042B
 $$$56B        4 0000033E 00000001     I   10076 10092
 $$$56F        2 00000344 00000001     H   10089 10076B 10091
 $$$57E        2 00000348 00000001     H   10099 10093
 $$$57F        2 00000354 00000001     H   10147 10095B
 $$$58F        2 0000036A 00000001     H   10177 10155B
 $$$59F        2 0000038C 00000001     H   10206 10191B
 $$$60F        2 000003B8 00000001     H   10236 10227B
 $$$61         6 00000912 00000001     I   10250 10242X
 $$$62         6 00000912 00000001     I   10249 10250  10250
 $$$63F        2 000003E2 00000001     H   10318 10275B 10303B
 $$$63S        2 000003C2 00000001     H   10267 10317B
 $$$63T        2 000003D8 00000001     H   10306 10292B
 $$$69B        4 000003F4 00000001     I   10362 10382
 $$$69F        2 00000402 00000001     H   10378 10362B 10381
 $$$70B        4 0000040A 00000001     I   10399 10413
 $$$70E        2 00000406 00000001     H   10389 10383
 $$$70F        2 00000414 00000001     H   10409 10385B 10399B 10412
 $$$72B        4 00000424 00000001     I   10445 10458
 $$$72E        2 00000418 00000001     H   10420 10414
1VPO      (VPO2193) (13:00) (15MAR04) Ordinary Symbol and Literal Cross Reference                                           Page   50
 $$$72F        2 0000042E 00000001     H   10455 10416B 10445B 10457
 $$$72T        2 00000428 00000001     H   10448 10434B
 $$$75E        2 00000432 00000001     H   10465 10459
 $$$75F        2 00000436 00000001     H   10472 10461B
 $$$76F        2 0000044E 00000001     H   10515 10487B 10500B
 $$$76S        2 00000436 00000001     H   10479 10514B
 $$$81F        2 0000047C 00000001     H   10609 10566B 10594B
 $$$81S        2 0000045C 00000001     H   10558 10608B
 $$$81T        2 00000472 00000001     H   10597 10583B
 $$$87F        2 000004D8 00000001     H   10793 10653B
 $$$88F        2 000004AA 00000001     H   10700 10672B 10685B
 $$$88S        2 00000492 00000001     H   10664 10699B
 $$$91F        2 000004CA 00000001     H   10757 10714B 10742B
 $$$91S        2 000004AA 00000001     H   10706 10756B
 $$$91T        2 000004C0 00000001     H   10745 10731B
 $$$98F        2 0000051C 00000001     H   10879 10824B 10836B
 @RAR          0 00000000 FFFFFFF0     @    1122  5073   5081B
 @R0           0 00000000 FFFFFFFE     @     710   986U
 @R1           0 00000000 FFFFFFFD     @     723   982U  5079   5080  10144U 10249M 10289  10302  10342  10361  10398
                                                 10431  10444  10499  10543  10580  10593  10633  10652  10684  10728
                                                 10741  10781  10886  10945  10992  10995  13024U 13172U 14147U 15074U
                                                 16242U 17075U 17593U 17712U 18141U
 @R10          0 00000000 FFFFFFF4     @     840   946U
 @R11          0 00000000 FFFFFFF3     @     853   942U 12088U 12320U 12392U
 @R12          0 00000000 FFFFFFF2     @     866   938U 12083U 12315U 13410U 13562U 18883U
 @R13          0 00000000 FFFFFFF1     @     879   934U 13855M 14427  17913
 @R14          0 00000000 FFFFFFF0     @     892   930U
 @R15          0 00000000 FFFFFFEF     @     905   926U 10941M 10942  10988M 10989  11077  11090  13233  17135U 17758
 @R2           0 00000000 FFFFFFFC     @     736   978U 11165  11705U 12000U 12557U 13856M 14152U 14938U 17212U 18197U
                                                 18392U 18524  18557U 19007U
 @R3           0 00000000 FFFFFFFB     @     749   974U 11270U 13297U 13331U 13376U 15484U 16035U 16794U 16831U 17150U
                                                 17849U 18707U 18744U 18797U
 @R4           0 00000000 FFFFFFFA     @     762   970U 10115U 11245U 11505U 11874U 12114U 12995U 13143U 13305U 13381U
                                                 14020  14030  16010U 16108U 16802U 17046U 17145U 17564U 17683U 17827U
                                                 17935U 18112U 18292U 18715U 18792U
 @R5           0 00000000 FFFFFFF9     @     775   966U 12109U 13371U 16103U 17140U 17930U 18783U
 @R6           0 00000000 FFFFFFF8     @     788   962U 12104U 12333U 13425U 18901U 18996U
 @R7           0 00000000 FFFFFFF7     @     801   958U 12099U 12291U 13386U 13575U 14166U 18896U 18991U
 @R8           0 00000000 FFFFFFF6     @     814   954U
 @R9           0 00000000 FFFFFFF5     @     827   950U
 ABNDMSG      25 00000068 00000001     C    9574 12826M 12827M 12836  12841
 ABSCENT       1 00000000 00000000 A   T    5089  5089
 ACB         128 00000000 FFFFFFEB     X    2317  2314  12494U 12532  13979U 14081  14250U 16877U 17170U 18937U
 ACBCBUSY      1 000000BC FFFFFFEB A   U    2059 14906
 ACBCCTYP      1 00000019 FFFFFFEB     B    1766  1775
 ACBCLS        2 0000182E 00000008     H   17157 16962B
 ACBCLSN       2 000019F8 00000008     H   17872 17445B
 ACBCLSR       4 000019E0 00000008     I   17855 17495B 17613B 17725B 17857B
 ACBCLS1       2 000018A4 00000008     H   17361 17370B
 ACBCLS2       2 00001910 00000008     H   17452 17461B
 ACBCLS3       2 000019A2 00000008     H   17738 17606B
 ACBDDNM       8 00000028 FFFFFFEB     C    1807  1813
 ACBDEB        3 0000002D FFFFFFEB     R    1837  1980
 ACBERFLG      1 00000031 FFFFFFEB     B    1863 14390  14582  14609  14643  14677  14705  14735  14750  14765  14799
                                                 14827  14855  14891  14906
 ACBJBUF       2 00000016 FFFFFFEB     H    1757  1759   1760
 ACBOACT       1 000000BC FFFFFFEB A   U    2058 14891
 ACBOAHLT      1 00000052 FFFFFFEB A   U    1996 14677
 ACBOANAT      1 00000050 FFFFFFEB A   U    1995 14643
1VPO      (VPO2193) (13:00) (15MAR04) Ordinary Symbol and Literal Cross Reference                                           Page   51
 ACBOANSN      1 00000056 FFFFFFEB A   U    2000 14750
 ACBOAPAA      1 00000058 FFFFFFEB A   U    2003 14827
 ACBOAPLE      1 00000062 FFFFFFEB A   U    2016 14765
 ACBOAPNM      1 0000005A FFFFFFEB A   U    2006 14799
 ACBOAVFY      1 00000054 FFFFFFEB A   U    1998 14735
 ACBOFLGS      1 00000030 FFFFFFEB     B    1839 14499  14538  16891  17186
 ACBOLIST      4 00000094 FFFFFFEB     F    2312 13991M 14373  14398  14519
 ACBONVRT      1 00000014 FFFFFFEB A   U    1985 14582
 ACBOPEN       1 00000010 FFFFFFEB A   U    1843 14497  14536  16889  17184
 ACBOUNDF      1 00000060 FFFFFFEB A   U    2014 14855
 ACBOVINA      1 0000005C FFFFFFEB A   U    2009 14705
 ACBRNOCF      1 0000004C FFFFFFEB A   U    1992 14390
 ACBWAPLT      1 00000080 FFFFFFEB     X    2307 12498  14045M 14046
 ACBWAPPL      8 00000081 FFFFFFEB     C    2308 13992M 14010
 ACBWEND       4 00000098 FFFFFFEB     F    2315  2318  13989
 ACBWOFFS      1 0000007C FFFFFFEB A   U    2304  2305
 ACBWSTRT      4 00000080 FFFFFFEB     F    2306  2317  13989  13990M 13990
 ACBWYL      152 00000000 FFFFFFEB     X    2318 13964
 ACTIV         1 000000FF 00000001 A   U    9563 12592  12670  15122  16334  17977  18264
 ASCTBL        1 00000000 00000000 A   T    5097  5097
 AXLIST        4 00000FAC 00000008     F   13620 12537  14086
 A31GO         2 00000E68 00000008     H   13912 13888
 BLTBL         1 00000000 00000000 A   T    5099  5099
 BR            7 00000007 FFFFFFFF A   #    1012 12166M 12413M 13465M 13473U 13844M 13852U 14157M 14158B 14169U 18918M
                                                 18926U
 C             1 00000040 00000001 A   U    9562 14225  14956  16124
 CHECKIOB      1 00000000 00000000 A   T    5145  5145
 CLEANST       2 00000AAC 00000001     H   12399 13595
 COMMAND       1 00000000 00000000 A   T    5085  5085
 COMMANDP      2 00000D40 00000001     I   13351 12926B 13059B 13073B 13201B
 COMMAND3      2 00000CFA 00000001     H   13213 13037B
 COMMSEG       1 00000000 00000000 A   T    5086  5086
 CP         4096 00000000 FFFFFFE6     J    9099  1186U 12132U 12355U
 CP#XSTK       1 00000010 FFFFFFE6 A   U    6831  6832
 CPACFLG       1 000005D5 FFFFFFE6     R    6934  6938   6943   6948   6953   6958
 CPACFLN       4 000005C4 FFFFFFE6     F    6926  6961   6961
 CPAFLAG       1 000005C3 FFFFFFE6     R    6898  6902   6907   6912   6917
 CPANAME       8 00000588 FFFFFFE6     C    6880  6976   6976
 CPAUTFLG      1 000008A9 FFFFFFE6     R    7244  7248   7253   7258   7263
 CPCHFLAG      1 00000B68 FFFFFFE6     R    7871  7875
 CPDFLG        1 0000084C FFFFFFE6     R    7131  7135   7140   7145   7150   7155
 CPDFLG2       1 0000084D FFFFFFE6     R    7160  7164   7169   7174   7179   7184   7189
 CPEXFLG       1 00000758 FFFFFFE6     R    7000  7004
 CPEXFLG2      1 00000759 FFFFFFE6     R    7010  7019   7029
 CPEXFLG3      1 0000075A FFFFFFE6     R    7036  7040   7045
 CPEXTFLG      1 00000E28 FFFFFFE6     R    8682  8686   8691   8696   8701   8706   8711
 CPFABORT    128 00000D5A FFFFFFE6         8448  5049M  5049   5054M  5054
 CPFERROR     64 00000D5A FFFFFFE6         8453  5048M  5048   5053M  5053
 CPFNTEX       1 00000040 FFFFFFE6 A   U    8300  8301
 CPFRDRNG      1 00000D88 FFFFFFE6     R    8568  8572   8577   8582   8587   8592   8597   8602
 CPFRDSRC      1 00000D89 FFFFFFE6     R    8607  8616   8626   8636
 CPFUNUM       1 00000080 FFFFFFE6 A   U    8299  8301
 CPFXDFLG      1 000007E4 FFFFFFE6     R    7078  7082   7087
 CPGFLG1       1 00000474 FFFFFFE6     R    6441  6445   6450   6455   6460   6465   6795   6795
 CPGFLG10      1 0000047D FFFFFFE6     R    6678  6682   6687   6692   6697   6702   6707
 CPGFLG11      1 0000047E FFFFFFE6     R    6713  6717   6722
 CPGFLG12      1 0000047F FFFFFFE6     R    6728  6732   6737   6742
 CPGFLG13      1 00000480 FFFFFFE6     R    6748  6752
 CPGFLG14      1 00000481 FFFFFFE6     R    6758  6762   6767   6772   6777   6782
1VPO      (VPO2193) (13:00) (15MAR04) Ordinary Symbol and Literal Cross Reference                                           Page   52
 CPGFLG4       1 00000477 FFFFFFE6     R    6494  6505   6514   6523   6532   6541
 CPGFLG5       1 00000478 FFFFFFE6     R    6547  6551   6556   6561   6566   6571   6576   6581   6586
 CPGFLG6       1 00000479 FFFFFFE6     R    6592  6596   6601   6606
 CPGFLG7       1 0000047A FFFFFFE6     R    6612  6616   6621   6626   6631
 CPGFLG8       1 0000047B FFFFFFE6     R    6637  6641   6646   6651   6656
 CPGFLG9       1 0000047C FFFFFFE6     R    6662  6666   6672
 CPINIT        1 00000174 FFFFFFE6     U    5611  9068
 CPJESFLG      1 000009E1 FFFFFFE6     R    7343  7347   7352   7357   7362   7367   7372   7377   7382
 CPJESFLY      1 000009FD FFFFFFE6     R    7393  7397   7402   7407
 CPJESHFL      1 000009E0 FFFFFFE6     R    7328  7332   7337   7416   7416
 CPLFLG10      1 00000D59 FFFFFFE6     R    8434  8438
 CPLFLG11      1 00000D5A FFFFFFE6     R    8444  8448   8453   8458   8463
 CPLFLG12      1 00000D5B FFFFFFE6     R    8469  8473
 CPLFLG14      1 00000D5C FFFFFFE6     R    8479  8483   8488   8493   8498   8503
 CPLFLG6       1 00000D55 FFFFFFE6     R    8309  8313   8318   8323   8328   8333   8338
 CPLFLG7       1 00000D56 FFFFFFE6     R    8344  8348   8353   8358   8363   8368
 CPLFLG8       1 00000D57 FFFFFFE6     R    8374  8378   8383   8388   8393
 CPLFLG9       1 00000D58 FFFFFFE6     R    8399  8403   8408   8413   8418   8423   8428
 CPLOCALZ      1 00000C48 FFFFFFE6     U    7901  9062   9062
 CPMFLG        1 0000084F FFFFFFE6     R    7198  7202
 CPMODFLG      1 00000C78 FFFFFFE6     R    7929  7933   7938   7943   7948   7953
 CPNAMELN      1 00000010 FFFFFFE6 A   U    6824  7071
 CPNEDPFX     10 00000E29 FFFFFFE6     X    8715  8716   8717
 CPNUMFLG      1 00000C79 FFFFFFE6     R    7959  7971
 CPORVCMD      1 00000140 FFFFFFE6     R    5493  5497   5502   5507   5512   5517   5522   5527   5532   5537   5537
                                                  5588   5588
 CPORVFLG      1 00000149 FFFFFFE6     R    5544  5548   5553   5558   5563   5568   5573   5578   5583
 CPORVWF       1 00000150 FFFFFFE6     R    5596  5600
 CPOSCANX      4 00000CA8 FFFFFFE6     F    8128  8195   8195
 CPR          11 0000000B FFFFFFFF A   #    1076  1186U  9976  12132U 12355U 13509M 13509  13932M 13932
 CPRACBAD     16 000001FC FFFFFFE6         5662  5696   5696   5697   5697
 CPRACF1       1 000001FC FFFFFFE6     R    5643  5647   5652   5657   5662   5667   5672   5677   5682   5698
 CPRACPSW     32 000001FC FFFFFFE6         5657  5695   5695   5697   5697
 CPRACUND     64 000001FC FFFFFFE6         5652  5695   5695   5696   5696
 CPRCVCUR      4 00000730 FFFFFFE6     A    6979  6981   6981
 CPRFLG        1 000008AA FFFFFFE6     R    7269  7273   7278   7283   7288   7293   7298
 CPS         254 00000344 FFFFFFE6     X    6413  6416   6417   6419   6419
 CPSACCT       5 000003B4 FFFFFFE6     C    6012  6175   6175
 CPSAMCOD      1 00000A22 FFFFFFE6     R    7465  7473   7483   7493   7502   7511   7520   7530   7539   7548
 CPSAMFLG      1 00000A21 FFFFFFE6     R    7425  7429   7434   7439   7444   7449   7454   7459   7570   7570
 CPSCNFLG      1 00000CD0 FFFFFFE6     R    8141  8152   8161   8172
 CPSCNF2       1 00000CD1 FFFFFFE6     R    8177  8181
 CPSCNLEN      2 00000CAC FFFFFFE6     H    8130 10212
 CPSCNLOC      4 00000CA8 FFFFFFE6     F    8129 10213
 CPSCNMAX      1 00000014 FFFFFFE6 A   U    8193  8194
 CPSCRI        2 00000434 FFFFFFE6     H    6402  6407   6407
 CPSEG        60 00000050 FFFFFFE6     X    5482  9714  11780  11819
 CPSEGCOD      1 00000050 FFFFFFE6     R    5399  5408   5418   5428   5438   5448   5458   5468
 CPSFL         1 00000384 FFFFFFE6     R    5750  5754   5759   5764   5769   5774
 CPSFLG        1 000003F8 FFFFFFE6     R    6290  6294   6299   6304   6309   6314   6319   6324   6329
 CPSFLG2       1 000003F9 FFFFFFE6     R    6335  6339   6344   6349
 CPSFL2        1 00000385 FFFFFFE6     R    5780  5784   5789   5794   5799
 CPSFL3        1 00000386 FFFFFFE6     R    5805  5809   5814   5819
 CPSFL4        1 00000387 FFFFFFE6     R    5825  5829   5834   5839
 CPSFL5        1 00000388 FFFFFFE6     R    5845  5849   5854   5859
 CPSFOPR      16 000003BE FFFFFFE6         6120 10835
 CPSKAFL       1 000003BF FFFFFFE6     R    6146  6150   6155   6160   6165   6170
 CPSKIFL       1 000003BE FFFFFFE6     R    6101  6105   6110   6115   6120   6125   6130   6135   6140
 CPSOF         1 000001F8 FFFFFFE6     X    5633  5635   5635
1VPO      (VPO2193) (13:00) (15MAR04) Ordinary Symbol and Literal Cross Reference                                           Page   53
 CPSOFLAG      1 00000416 FFFFFFE6     R    6360  6364   6369   6374   6379   6384
 CPSOPST       4 000003C4 FFFFFFE6     F    6180  6409   6409
 CPSPORT       8 00000354 FFFFFFE6     C    5744  5864   5864
 CPSQFLG       1 000003EC FFFFFFE6     R    6209  6213
 CPSSFLG       1 000003BB FFFFFFE6     R    6019  6023   6028   6033   6038   6043   6048
 CPSSTART      4 00000344 FFFFFFE6     F    5736  5740   5740   6176   6176   6281   6281   6413   6413
 CPSSTAT       1 0000038F FFFFFFE6     R    5956  5960   5965   5970   5975   5980   5985   5990
 CPSTACF       1 000003BC FFFFFFE6     R    6054  6058   6063   6068   6073   6078   6083   6088   6093
 CPSTART       4 00000000 FFFFFFE6     C    5372  9066   9070
 CPSTFLAG      1 000003EA FFFFFFE6     R    6187  6191   6196   6201
 CPSTYPE       1 0000038C FFFFFFE6     R    5869  5878   5888   5898   5908   5918   5928   5938   5948
 CPSUFLG       1 000003EE FFFFFFE6     R    6224  6228   6233   6238   6243   6248   6253   6258   6263
 CPSUFLG2      1 000003EF FFFFFFE6     R    6269  6273   6278
 CPSVPGM       8 0000039C FFFFFFE6     C    6002  6008   6008
 CPS1ST        4 0000038C FFFFFFE6     F    5866  6411   6411
 CPTEMPP#      1 0000005F FFFFFFE6 A   U    7319  7321
 CPTRMFL1      1 00000C7A FFFFFFE6     R    7977  7981   7986   7991   8115   8115
 CPTRMFL2      1 00000C7B FFFFFFE6     R    7997  8001   8006   8011   8016   8021   8026
 CPTRMFL3      1 00000C7C FFFFFFE6     R    8032  8036   8041   8046   8051   8056   8061   8066
 CPTRMFL4      1 00000C7D FFFFFFE6     R    8072  8076   8081   8086   8091   8096   8101   8106
 CPUSED        1 00000FBC FFFFFFE6 A   U    9066  9067
 CPVACURS      8 00000AF0 FFFFFFE6     D    7844  7845   7846
 CPVCURS       8 00000AE0 FFFFFFE6     D    7838  7839   7840
 CPVFLAG       1 00000AC8 FFFFFFE6     R    7639  7643   7648   7653   7658   7663
 CPVFLAG2      1 00000AC9 FFFFFFE6     R    7669  7673   7678   7683   7688   7693   7698
 CPVFLAG3      1 00000ACA FFFFFFE6     R    7704  7708   7713   7718   7723   7728   7733
 CPVFLAG4      1 00000ACB FFFFFFE6     R    7739  7743   7748   7753
 CPVLFLAG      1 00000ACE FFFFFFE6     R    7808  7812   7817   7822
 CPVMODE       1 00000ACC FFFFFFE6     R    7761  7765   7770   7775   7780   7785   7790   7795   7800
 CPVTWID       2 00000AD0 FFFFFFE6     H    7828  7831   7831
 CPWK1         4 00000D60 FFFFFFE6     F    8512  8527   8550
 CPWK2         4 00000D64 FFFFFFE6     F    8513  8528   8542
 CPWK3         4 00000D68 FFFFFFE6     F    8514  8529   8543
 CPWK4         4 00000D6C FFFFFFE6     F    8515  8530   8544
 CPWK5         4 00000D70 FFFFFFE6     F    8516  8532   8537   8545
 CPWK6         4 00000D74 FFFFFFE6     F    8517  8533   8538   8546   8553   8555
 CPWK7         4 00000D78 FFFFFFE6     F    8518  8531   8547
 CPXFLAG       1 000007FD FFFFFFE6     R    7106  7110
 CPXSTATE      4 000007F8 FFFFFFE6     F    7100  7113   7113
 CV         4016 00000000 FFFFFFE8     J    5275  1195U 12141U 12364U 13519U 13868U
 CV            1 00000000 00000007     T   13593 13593  14173
 CVABSRTN      4 0000088C FFFFFFE8     V    5089  5064
 CVABTMSG      4 000007CC FFFFFFE8     I    5049  9725B  9765B  9792B  9819B  9904B 10173B 10875B
 CVBRMSK       1 00000751 FFFFFFE8     X    5005  5006   5007
 CVCFLAG       1 00000A00 FFFFFFE8     R    5170  5174   5179   5184   5189   5194
 CVCHKST       8 000009F0 FFFFFFE8     D    5160  5250   5250
 CVCHKST2      8 00000E28 FFFFFFE8     D    5253  5256   5256
 CVCOMRTN      4 0000087C FFFFFFE8     V    5085  5055
 CVDBGFLG      1 000004CC FFFFFFE8     R    4859  4863
 CVENT         4 0000074C FFFFFFE8     I    5003  9674B 12166B 12413B
 CVENTBR       2 00000750 FFFFFFE8     I    5004  5005
 CVERROR       4 000007D6 FFFFFFE8     I    5053  5069B
 CVEXIRTN      4 0000077C FFFFFFE8     V    5033  5029
 CVFCHRKBPR
               8 000004C9 FFFFFFE8         4774  4790   4790
 CVFCHRKBSE
               4 000004C9 FFFFFFE8         4779  4790   4790
 CVFCHRKCPR
               2 000004C9 FFFFFFE8         4796  4812   4812
1VPO      (VPO2193) (13:00) (15MAR04) Ordinary Symbol and Literal Cross Reference                                           Page   54
 CVFCHRKCSE
               1 000004C9 FFFFFFE8         4801  4812   4812
 CVFCHRUBPR
             128 000004C9 FFFFFFE8         4730  4746   4746
 CVFCHRUBSE
              64 000004C9 FFFFFFE8         4735  4746   4746
 CVFCHRUCPR
              32 000004C9 FFFFFFE8         4752  4768   4768
 CVFCHRUCSE
              16 000004C9 FFFFFFE8         4757  4768   4768
 CVFL          1 000004C4 FFFFFFE8     R    4526  4530   4535   4540   4545   4550   4555   4560   4565
 CVFL2         1 000004C5 FFFFFFE8     R    4571  4575   4580   4585   4590   4595   4600   4605   4610
 CVFL3         1 000004C6 FFFFFFE8     R    4616  4620   4625   4630   4635   4640   4645   4650   4655
 CVFL4         1 000004C7 FFFFFFE8     R    4661  4665   4670   4675   4680   4685   4690   4695
 CVFL5         1 000004C8 FFFFFFE8     R    4701  4705   4710   4715   4720
 CVFL6         1 000004C9 FFFFFFE8     R    4726  4730   4735   4747   4752   4757   4769   4774   4779   4791   4796
                                                  4801   4813
 CVFTEST       2 000004C5 FFFFFFE8         4605  9695
 CVFXA        16 000004C6 FFFFFFE8         4635 13882
 CVFXA31       2 000004C6 FFFFFFE8         4650 13898
 CVHEAP#       1 00000200 FFFFFFE8 A   U    4432  4433
 CVINVRTN      4 00000888 FFFFFFE8     V    5088  5058
 CVJESFLG      1 000004CA FFFFFFE8     R    4819  4823
 CVLNKRGS      4 00000780 FFFFFFE8     F    5035  5010M  5036   9932M  9961M 10199M 11463M 11747M
 CVLNKRTN      4 000007B0 FFFFFFE8     U    5036  5025M
 CVLOCK1       1 00000088 FFFFFFE8     R    4177  4181   4186
 CVLOCK2       1 00000089 FFFFFFE8     R    4191  4195
 CVLOCK3       1 0000008A FFFFFFE8     R    4200  4204
 CVLOCK4       1 0000008B FFFFFFE8     R    4209  4213
 CVLOGMOD      1 00000068 FFFFFFE8     R    4164  4168
 CVMACH        1 00000067 FFFFFFE8     R    4124  4128   4133   4138   4143   4148   4153   4158
 CVMILRTN      4 00000884 FFFFFFE8     V    5087  5067
 CVNEXT        4 000007DE FFFFFFE8     I    5055 12025B
 CVNOARTN      4 00000890 FFFFFFE8     V    5090  5061
 CVNWDATE      4 00000608 FFFFFFE8     F    4892  4896   4896
 CVNWMPG#      1 00000008 FFFFFFE8 A   U    4894  4895
 CVPFXRTN      1 00000000 00000000 A   T    5033  5033
 CVPGFLAG      1 00000A01 FFFFFFE8     R    5200  5204   5209   5214
 CVPIOSZ       1 00004F80 FFFFFFE8 A   U    4263  4265
 CVPPDBQH      4 0000009C FFFFFFE8     A    4221  4222
 CVPSFNO       1 000003E9 FFFFFFE8 A   N    4385  4387
 CVPSLNO       1 000007CF FFFFFFE8 A   N    4386  4387
 CVPXSZ        1 00000008 FFFFFFE8 A   U    4264  4265
 CVR          12 0000000C FFFFFFFF A   #    1089  1195U 12141U 12364U 13510M 13519U 13859M 13868U
 CVRKEY        1 00000008 FFFFFFE8 A   U    4958  4959
 CVSEGRTN      4 00000880 FFFFFFE8     V    5086  5050
 CVSTACK#      1 00000080 FFFFFFE8 A   U    4424  4425
 CVSTART       4 00000000 FFFFFFE8     C    4097  5268
 CVTRC         4 00000768 FFFFFFE8     I    5025  5011B  9933B  9962B 10200B 11464B 11748B
 CVTRCRTN      4 00000778 FFFFFFE8     V    5032  5026
 CVUSFNO       1 00000001 FFFFFFE8 A   N    4392  4394
 CVUSLNO       1 000003E7 FFFFFFE8 A   N    4393  4394
 CVVOL#        1 00000005 FFFFFFE8 A   U    5243  5244
 CVWTOFLG      1 000004CB FFFFFFE8     R    4829  4833   4838   4843   4848   4853
 CVWYLSSN      8 00000028 FFFFFFE8     C    4109 13992
 DEBUGSG       1 00000000 00000000 A   T    4986  4986
 DEV          12 00000000 FFFFFFE5     J    7624  7632
 DEVMAX#       1 00000002 FFFFFFE6 A   U    7575  7632
 DEVTYPE       1 00000001 FFFFFFE5     R    7592  7601   7611
1VPO      (VPO2193) (13:00) (15MAR04) Ordinary Symbol and Literal Cross Reference                                           Page   55
 DOTTBL        1 00000000 00000000 A   T    5102  5102
 DRENCFLG      1 00000F9F FFFFFFE6     R    9030  9034   9039   9044   9049   9054
 DRENPROT      1 00000F9E FFFFFFE6     R    9017  9025
 DSNON        40 00000E90 FFFFFFE6     C    8750  8751
 DSNWADSN     44 00000E5C FFFFFFE6     C    8737  8738   8739   8740   8749   8757   8988   8994   8996   9002   9005
                                                  9007   9010   9059
 DSNWAF4       1 00000F37 FFFFFFE6     R    8805  8809   8814   8819   8824   8829   8834   8839   8844
 DSNWAF5       1 00000F38 FFFFFFE6     R    8850  8854   8859   8864   8869   8874   8879   8884   8889
 DSNWAF6       1 00000F39 FFFFFFE6     R    8895  8899   8904   8909   8914   8919   8924   8929   8934
 DSNWAF7       1 00000F3A FFFFFFE6     R    8940  8944   8949   8954   8959
 DSNXG         1 00000004 FFFFFFE6 A   U    8742  8744
 DSNXGL        1 00000003 FFFFFFE6 A   U    8743  8744
 DSNXU         1 00000007 FFFFFFE6 A   U    8744  8746
 DSNXUL        1 00000004 FFFFFFE6 A   U    8745  8746
 DSSIZ         1 00000108 FFFFFFE6 A   U    8988  8996   9005   9010
 EBCTBL        1 00000000 00000000 A   T    5098  5098
 EBCTBL7       1 00000000 00000000 A   T    5101  5101
 ECBLIST       1 00000000 00000000 A   T    4961  4961
 EPARTBL       1 00000000 00000000 A   T    5093  5093
 ERRORRET      2 00001774 00000008     H   16907 15107  15109  15154B 15183B 15204B 15226B 15231B 16319  16321  16366B
                                                 16412B 16437B 16459B 16481B 16503B
 ETXR          1 00000DA8 00000006     J   13456 11416  13458  13473U
 FREEOUTB      4 00001846 00000008     I   17236 17259B 17279B
 FSR           0 00000000 FFFFFFFF A   #     999 12161  12299M 12408  13394M
 GIM           2 00000604 00000001     H   11313 11339B
 GMATTN        2 000007AA 00000001     H   11840 11579B 11611B
 GMLOOP        2 000006D2 00000001     H   11483 11585B 11617B 11720B 11850B
 HIBAL         1 00000000 FFFFFFFF     J     695   711    724    737    750    763    776    789    802    815    828
                                                   841    854    867    880    893    906   1007   1020   1033   1045
                                                  1058   1071   1084   1097   1110   1123   1137   1149   1161   1173
 IDA2960A      4 00000B04 00000001     A   12523 12519M 12520M 12522B 12524  12525  12526  12527
 IDA3798A      4 00000EDC 00000008     A   14072 14068M 14069M 14071B 14073  14074  14075  14076
 IFGACB        1 00000000 FFFFFFEB     J    1649  2302   2304   2305   2317   2317   2318   2318   4060
 IFGRPL        1 00000000 FFFFFFEA     J    2374  4028   4063   4066   4066   5276   5360   9100   9212   9492   9497
                                                 14135U
 IHB1345F      1 00000268 00000001     B    9890  9896
 IHB1425F      1 00000308 00000001     B   10030 10036
 IHB1436C      2 00000330 00000001     H   10062 10056B
 IHB1436F      1 0000032C 00000001     B   10058 10064
 IHB1436L      4 00000328 00000001     A   10057 10063
 IHB1974F      1 00000500 00000001     B   10861 10867
 IHB2287       4 0000065C 00000001     F   11410 11408
 IHB2518F      1 00000788 00000001     B   11791 11797
 IHB2629F      1 000007F0 00000001     B   11972 11978
 IHB3042F      1 00000B8C 00000001     B   12647 12653
 IHB3088F      1 00000BD0 00000001     B   12725 12731
 IHB3105F      1 00000BF8 00000001     B   12766 12772
 IHB3212C      2 00000C78 00000001     H   12942 12936B
 IHB3212F      1 00000C74 00000001     B   12938 12944
 IHB3212L      4 00000C70 00000001     A   12937 12943
 IHB3307C      2 00000CC4 00000001     H   13090 13084B
 IHB3307F      1 00000CC0 00000001     B   13086 13092
 IHB3307L      4 00000CBC 00000001     A   13085 13091
 IHB3537C      2 00000DC8 00000006     H   13485 13479B
 IHB3537F      1 00000DC4 00000006     B   13481 13487
 IHB3537L      4 00000DC0 00000006     A   13480 13486
 IHB3560F      1 00000DF8 00000006     B   13535 13540
 IHB5434F      1 00001714 00000008     B   16716 16722
 IHB5579F      1 00001798 00000008     B   16950 16956
1VPO      (VPO2193) (13:00) (15MAR04) Ordinary Symbol and Literal Cross Reference                                           Page   56
 IHB5596C      2 000017C0 00000008     H   16993 16987B
 IHB5596F      1 000017BC 00000008     B   16989 16995
 IHB5596L      4 000017B8 00000008     A   16988 16994
 IHB5774F      1 00001864 00000008     B   17271 17277
 IHB5862F      1 000018EC 00000008     B   17418 17424
 IHB5912C      2 0000193C 00000008     H   17511 17505B
 IHB5912F      1 00001938 00000008     B   17507 17513
 IHB5912L      4 00001934 00000008     A   17506 17512
 IHB5984C      2 00001978 00000008     H   17630 17624B
 IHB5984F      1 00001974 00000008     B   17626 17632
 IHB5984L      4 00001970 00000008     A   17625 17631
 IHB6237C      2 00001A74 00000008     H   18059 18053B
 IHB6237F      1 00001A70 00000008     B   18055 18061
 IHB6237L      4 00001A6C 00000008     A   18054 18060
 IHB6308       1 00001AC8 00000008     U   18185 18178B
 IHB6510F      1 00001B98 00000008     B   18502 18508
 IHB6524       1 00001BD4 00000008     U   18545 18541B
 INVALID       2 000004EE 00000001     H   10843 10332B 10345B 10468B 10623B 10636B 10771B 10784B
 INVALID       1 00000000 00000000 A   T    5088  5088
 ISTDPOHD      1 00000000 FFFFFFEC     J    1405  1423
 JCBAFL        1 00000062 FFFFFFE3     R    9336  9340   9345   9350   9355   9360   9365   9370   9375
 JCBBFL        1 00000063 FFFFFFE3     R    9381  9385   9390   9395   9400   9405   9410   9415
 JCBBILLX      8 00000088 FFFFFFE3     D    9466  9474   9474
 JCBRSCF1      1 00000064 FFFFFFE3     R    9421  9425   9430   9435
 JCBSFLG1      1 00000065 FFFFFFE3     R    9441  9445   9450
 JCBWFL        1 00000060 FFFFFFE3     R    9265  9269   9274   9279   9284   9289   9294   9299   9304   9332
 JCBWWFL       1 00000061 FFFFFFE3     R    9310  9314   9319   9324   9329
 LOWTBL        1 00000000 00000000 A   T    5096  5096
 LSR           8 00000008 FFFFFFFF A   #    1037 12161  12299M 12408  13394M
 MFREEU        2 000007B6 00000001     H   11854 11591B 11845B 11980B
 MILERR        1 00000000 00000000 A   T    5087  5087
 MSGSAV        4 0000003C 00000001     F    9560 12848M 13221  13946M 13946  14354M 14920M 17295M 17295  17305M 17746
 NBLTBL        1 00000000 00000000 A   T    5100  5100
 NOACTION      1 00000000 00000000 A   T    5090  5090
 NPARTBL       1 00000000 00000000 A   T    5094  5094
 NSCNCB      176 00000000 FFFFFFE7     J    5359  5485
 NSCNFLGS      1 00000008 FFFFFFE7     R    5296  5300   5305
 NSCNTYPE      1 00000018 FFFFFFE7     R    5314  5318   5323   5328   5333   5338
 OPENFAIL      4 000012AC 00000008     I   14920 14592B 14625B 14659B 14687B 14715B 14781B 14809B 14837B 14871B
 POHDATA       1 00000040 FFFFFFEC A   U    1427 13065  13245  17770
 POHEND        1 00000080 FFFFFFEC A   U    1426 13065  13245  15899  17109  17770
 POHGEN        1 00000001 FFFFFFEC A   U    1442 10207  15340
 POHID         2 0000000E FFFFFFEC     C    1444 10209M 15358  16648  18165M
 POHRREQ       1 00000002 FFFFFFEC A   U    1441 10207
 POHRSVD       1 0000000C FFFFFFEC     C    1424  1449   1449
 POHSTAT       1 0000000D FFFFFFEC     C    1425 10207M 13065M 13245M 15342  15901  17104M 17111M 17770M
 RAR          14 0000000E FFFFFFFF A   #    1115  5025   5026M  5027B  5029M  5030B  5050M  5051B  5055M  5056B  5058M
                                                  5059B  5061M  5062B  5064M  5065B  5067M  5068M  5068B  5074   9717M
                                                  9718M  9718B 11337M 11338M 11338B 11569M 11570M 11570B 11601M 11602M
                                                 11602B 11783M 11784M 11784B 11822M 11823M 11823B 12158  12301M 12304B
                                                 12405  13396M 13399B 13526M 13527M 13527B
 RCRPL         4 00001060 00000008     F   13743 13445  14140  18809
 RCVCACB       2 00001334 00000008     H   15116 15113
 RCVCENV       2 0000133C 00000008     H   15130 15110
 RCVCERR       2 00001378 00000008     H   15234 15112
 RCVCLOGC      2 0000135C 00000008     H   15186 15111
 RCVCMD1       2 00001518 00000008     H   15937 15510B 17129B
 RCVCNORM      2 00001380 00000008     H   15242 15106
 RCVCTABL      4 00001314 00000008     A   15106 15104
1VPO      (VPO2193) (13:00) (15MAR04) Ordinary Symbol and Literal Cross Reference                                           Page   57
 RPL         112 00000000 FFFFFFEA     X    4066 12583U 13334U 14979U 16147U 16834U 17955U 18747U
 RPLACTIV      1 00000045 FFFFFFEA     X    2765 12594M 12672M 15124M 16336M 17979  18266
 RPLAREA       4 00000020 FFFFFFEA     A    2543 12600  12607M 12607  12678  12685M 12685  15269  15478M 15478  16273
                                                 16314M 16314  17987  18625M 18625
 RPLCCHAR      4 00000014 FFFFFFEA     A    2536  2539
 RPLDACB       4 00000018 FFFFFFEA     A    2541 14139M 14141M
 RPLECB        4 00000008 FFFFFFEA     A    2446  2922
 RPLEND        1 00000070 FFFFFFEA     U    4065  4066
 RPLEXTDS      1 00000044 FFFFFFEA     X    2750  3179
 RPLFDBK2      4 00000058 FFFFFFEA     X    2784 15235  16512
 RPLFDB2       1 0000000E FFFFFFEA     X    2504 15075  16243  18196  18556
 RPLKEYLE      2 00000010 FFFFFFEA     H    2530  2927
 RPLOPTC2      4 00000038 FFFFFFEA     X    2636  2740
 RPLOPT3       1 0000002A FFFFFFEA     B    2578  2591
 RPLOPT4       1 0000002B FFFFFFEA     B    2604  3047
 RPLOPT5       1 00000038 FFFFFFEA     X    2637  3099
 RPLOPT6       1 00000039 FFFFFFEA     X    2665  3110
 RPLOPT7       1 0000003A FFFFFFEA     X    2683  3119
 RPLOPT8       1 0000003B FFFFFFEA     X    2713  3125
 RPLR          3 00000003 FFFFFFFF A   #    1129 12574M 12583U 12664M 14970M 14979U 14986  16138M 16147U 16154  17955U
                                                 17968M 18175  18255M 18526M 18538
 RPLRBAR       8 0000003C FFFFFFEA     C    2745  3133
 RPLRLEN       4 00000030 FFFFFFEA     A    2634 15469
 RPLRTNCD      1 0000000D FFFFFFEA     X    2457 15073  16241
 RPLSTAT       1 0000000C FFFFFFEA     X    2454  2455
 RPLSTRID      2 00000012 FFFFFFEA     H    2533  2534
 RPLTCBPT      4 0000001C FFFFFFEA     A    2542  3043
 R0            0 00000000 FFFFFFFF A   #     703  5010   5079M  9706M  9724M  9764M  9791M  9818M  9903M  9932   9961
                                                 10172M 10199  10212M 10220  10232M 10237  10274M 10274  10310M 10329M
                                                 10329  10486M 10486  10507M 10524M 10524  10565M 10565  10601M 10620M
                                                 10620  10671M 10671  10692M 10713M 10713  10749M 10768M 10768  10803M
                                                 10803  10874M 10946M 10993M 11463  11597M 11747  11772M 11811M 11811
                                                 12019M 12019  12810M 12841M 12843M 12848  13964M 14296M 14329M 14349M
                                                 14354  14527M 14527  14591M 14618M 14652M 14686M 14714M 14774M 14808M
                                                 14836M 14864M 14920  15045  15052  16213  16220  17304M 17305  17366M
                                                 17366  17369  18190  18550
 R1            1 00000001 FFFFFFFF A   #     716  5073M  5074M  5080M  9705M  9723M  9763M  9790M  9817M  9902M  9977M
                                                  9980M  9991   9998M 10003  10004  10085M 10085  10118U 10148  10171M
                                                 10213M 10313M 10510M 10604M 10695M 10752M 10873M 10945M 10992M 11097M
                                                 11114M 11119M 11135M 11135  11140  11142M 11154  11390M 11472  11598M
                                                 11767M 12021M 12021  12809M 12836M 12848  12965M 12965  12998U 13028
                                                 13113M 13113  13146U 13176  13504  13529M 13969  14125M 14135U 14140M
                                                 14295M 14328M 14348M 14354  14590M 14617M 14651M 14685M 14713M 14773M
                                                 14807M 14835M 14863M 14920  15019M 15052M 15073M 15086  15098M 15104
                                                 15358M 15359M 15359  15405  15469M 15470M 15471  15490M 15490  15542M
                                                 15574M 15606M 15638M 15670M 15702M 15734M 15766M 15798M 15830M 15862M
                                                 15908M 15930M 16070M 16070  16187M 16220M 16241M 16254  16266M 16316
                                                 16738M 16739M 16740  17016M 17016  17049U 17079  17114  17128M 17303M
                                                 17305  17368M 17368  17534M 17534  17567U 17597  17653M 17653  17686U
                                                 17716  18082M 18082  18115U 18145  18190M 18210  18550M 18606  18636
                                                 18929
 R12          12 0000000C FFFFFFFF A   #     859  5036
 R13          13 0000000D FFFFFFFF A   #     872  9673  13464  13504M 13505  13529  13547M 13856  13857M 14427M 17913M
 R14          14 0000000E FFFFFFFF A   #     885  5011M  9933M  9962M 10200M 11202M 11215M 11276  11464M 11631M 11632M
                                                 11632  11670  11748M 11906M 11907M 11907  11945  13221M 13224M 13226
                                                 13243M 13244  15967M 15980M 16041  16756M 16769M 16840  16911M 16912M
                                                 16913  17362M 17369M 17371  17456M 17456  17460  17746M 17749M 17751
                                                 17768M 17769  17855M 17856M 18324M 18325M 18325  18363  18669M 18682M
                                                 18753  18928  18962M 18963B
1VPO      (VPO2193) (13:00) (15MAR04) Ordinary Symbol and Literal Cross Reference                                           Page   58
 R15          15 0000000F FFFFFFFF A   #     898  5010   9714M  9932   9961  10075M 10075  10199  10215M 10942M 10989M
                                                 11064M 11201M 11334M 11441M 11441  11463  11565M 11566M 11566  11648M
                                                 11648  11665M 11747  11780M 11819M 11832M 11832  11923M 11923  11940M
                                                 12023M 12023  12284M 12284  12303M 12303  12955M 12955  13103M 13103
                                                 13221M 13398M 13398  13465  13498M 13498  13844  14111M 14111  15012
                                                 15104M 15105B 15965M 16180  16316M 16317B 16755M 16867M 16877U 17006M
                                                 17006  17362M 17458M 17458  17524M 17524  17643M 17643  17746M 17855M
                                                 18072M 18072  18231M 18231  18358M 18566M 18566  18668M 18918
 R2            2 00000002 FFFFFFFF A   #     729 10023M 10038  10237M 10240M 10242  10260M 10260  10886M 10888  10915
                                                 10941  10949  10995M 10997  11024  11154M 11200M 11202  11276M 11315M
                                                 11316M 11328  11356  11508U 11513M 11522M 11522  11670M 11708  11756M
                                                 11772  11877U 11882M 11891M 11891  11945M 11965  12472M 12473M 12473
                                                 12494U 12519  12759M 12774  12896M 13265M 13265  13272M 13340  13854M
                                                 13855  13857  13888M 13904M 13909B 13969M 13979U 13983  14068  14139
                                                 14141  14240M 14250U 14375  14400  14521  15001M 15001  15075M 15141
                                                 15169  15197  15219  15253  15966M 15967  16041M 16169M 16169  16243M
                                                 16353  16381  16405  16430  16452  16474  16496  16695M 16695  16754M
                                                 16756  16840M 17117  17160M 17170U 17249M 17250  17411M 17426  17459M
                                                 17460M 17790M 17790  17797M 17856  18196M 18295U 18299M 18308M 18308
                                                 18363M 18397  18523M 18524M 18544  18556M 18667M 18669  18753M 18929M
                                                 18937U
 R3            3 00000003 FFFFFFFF A   #     742 10214M 10943M 10990M 11119  11200M 11248U 11513M 11665  11882M 11940
                                                 12498M 12520  12896M 12901  13050  13308U 13338M 13340  13993M 14004M
                                                 14004  14010  14039M 14045  14046M 14069  15235M 15966M 16013U 16512M
                                                 16754M 16805U 17459M 17470  17830U 17853M 18299M 18358  18667M 18718U
                                                 18929M
 R4            4 00000004 FFFFFFFF A   #     755 14010M
 R5            5 00000005 FFFFFFFF A   #     768 13464M 13547  18341M 18341
 R7            7 00000007 FFFFFFFF A   #     794  5003M  5003   5004B  5016B  9674M  9684U
 R8            8 00000008 FFFFFFFF A   #     807  9673M 13505M 18928M 18962
 SCANLOOP      2 0000051C 00000001     H   10883 10978B
 SCANL1        4 00000530 00000001     I   10941 11047B
 SCANL2        4 00000568 00000001     I   10992 11057B
 SCANL4        2 0000058C 00000001     I   11064 10527B 10546B 10806B 10944B 10947B 10972B 10991B 10994B
 SDSNQSZ       1 0000002C FFFFFFE6 A   U    8991  8992   8993
 SEG           1 00000000 00000002     T   12030 12030
 SEGCR         1 00000000 00000005     T   12044 12044
 SEND          2 00001558 00000008     H   16117 15108
 SERROR        2 00001764 00000008     H   16866 16698B 18642B
 SNDCACB       2 00001604 00000008     H   16328 16325
 SNDCENV       2 0000160C 00000008     H   16342 16322
 SNDCERR       2 00001668 00000008     H   16511 16324  16508B
 SNDCLGIC      2 00001634 00000008     H   16419 16323
 SNDCNORM      2 00001670 00000008     H   16519 16318
 SNDCTABL      4 000015E4 00000008     A   16318 16316
 SNDRETRY      2 00001728 00000008     H   16730 16320
 SPR          13 0000000D FFFFFFFF A   #    1102 12158  12161  12162  12163M 12163  12295M 12299  12301  12405  12408
                                                 12409  12410M 12410  13390M 13394  13396
 SRPL          4 00000FF0 00000008     F   13653 13443  14125  18818
 STARTRP2      2 00001B0C 00000008     H   18254 18154B 18510B
 STARTRP3      4 00001B90 00000008     I   18500 18437B 18456B
 STRSAVE       4 00000F64 00000008     F   13615 13854
 TEEXIT        2 00001F2E 00000008     H   18917 13648  18926U
 TRC           1 00000000 00000000 A   T    5032  5032
 TTYFLAG       1 00000004 FFFFFFE4     R    9120  9124
 TTYMAX#       1 00000006 FFFFFFE4 A   U    9176  9177
 TTYTFLAG      1 00000005 FFFFFFE4     R    9130  9134   9139   9144   9149   9154   9159   9164
 UPCASE        1 0000092C 00000001     R   12065 10249  12065  12066  12068  12070
 UPPTBL        1 00000000 00000000 A   T    5095  5095
1VPO      (VPO2193) (13:00) (15MAR04) Ordinary Symbol and Literal Cross Reference                                           Page   59
 USERLIST      8 00000088 00000001     D    9580  9845  13446  15379  16597  17311  18465
 VPO2193       1 00000000 00000001     R    1212  1210
 VTAM          2 000001D0 00000001     H    9672  9670
 VTAMCLSX      2 00000A84 00000001     H   12282 12216B 12231B
 VTAMSTOP      2 00000A2C 00000001     H   12152 12148
 VTAMSTSK      1 00000E28 00000008     J   13601 12042  13603  13836  13852U
 VTC           4 00000018 00000001     F    9504  9740U 12031  12196U 12368  12385U 13594  13927U 14175  18948U 18967
 VTCACB        4 00000064 00000001     A    9573 12472  13958M 13958  13983M 14240  16867  17160
 VTCATECB      4 00000038 00000001     A    9551 11315  11402M 11402  11413  12213  12228  12249  12435  12436M
 VTCECNT       4 00000050 00000001     F    9568 16912  16913M
 VTCELST       4 00000020 00000001     A    9544 14202
 VTCF          1 0000001C 00000001     R    9509  9513   9518   9523   9528   9533   9538
 VTCFACTV      8 0000001C 00000001         9533 13939M 14191  14215M 14969M 16137M 17232M 17891  17891  17892  17892
                                                 18243M 18578M
 VTCFE10A      4 0000001C 00000001         9538  9752  11375  11375  11376  11376  11378  14269  14269  14270  14270
                                                 14319  14365  15153M 16365M 17198  17906  17906
 VTCFPDN     128 0000001C 00000001         9513  9779  11375  11375  11377  11377  14511  14552  14552  14553M 14624M
                                                 14658M 14780M 14870M 17906  17906  17907
 VTCFTDN      64 0000001C 00000001         9518 14454M 14552  14552
 VTCFVCLS     16 0000001C 00000001         9528 12799  12799  14268  14268  14270  14270  14463  14463  17890  17890
                                                 17891  17891  17893M 18955M
 VTCFWCLS     32 0000001C 00000001         9523  9806  11376  11376  11377  11377  12260M 12799  12799  12800  14268
                                                 14268  14269  14269  14271  14286  14421  14463  14463  14464M 17890
                                                 17890  17892  17892
 VTCLPOH       2 0000001E 00000001     H    9542  9977  10003M
 VTCOUTH       8 00000048 00000001     D    9566 11200  11276M 12744  12786M 12786  16754  16840M 17236  17250M 18299
                                                 18363M 18667  18753M
 VTCR          6 00000006 FFFFFFFF A   #    1165  9731M  9740U 12187M 12196U 12385U 13522M 13918M 13927U 18939M 18948U
 VTCRCECB      4 00000030 00000001     F    9548  9545  12677M 12677  13774  14958  14997M 14997
 VTCRCNT       4 00000054 00000001     F    9569 16739  16740M
 VTCSECB       4 0000002C 00000001     F    9547  9544  12599M 12599  13684  16126  16165M 16165
 VTCSTDET      1 00000002 00000001 A   U    9555 12038  12370  13442
 VTCSTEND      1 00000001 00000001 A   U    9553 12041
 VTCSTNEV      1 00000001 00000001 A   U    9554  9551  12369
 VTCSTRTN      4 00000058 00000001     F    9570 12435M 12826
 VTCSTRUN      1 00000000 00000001 A   U    9552 12371
 VTCSTTCB      4 00000060 00000001     A    9572 11472M 12447M 12447  12456  12464M 12464
 VTCSVCLS      1 00000004 00000001 A   U    9557 17916
 VTCSWCLS      1 00000003 00000001 A   U    9556 14430
 VTCSWORK      4 00000034 00000001     F    9549  9546  11308  11388  12265  14227  14239M 14239  18960
 VTM         104 00000000 FFFFFFEC     X    1451  9833U  9889  10029  10057  10118U 10128M 10128  10139U 10860  11248U
                                                 11265U 11508U 11700U 11790  11877U 11971  11995U 12570U 12646  12724
                                                 12765  12937  12998U 13008M 13008  13019U 13085  13146U 13156M 13156
                                                 13167U 13218M 13218  13308U 13322U 13444  15299U 16013U 16030U 16304U
                                                 16715  16805U 16822U 16949  16988  17049U 17059M 17059  17070U 17222U
                                                 17270  17417  17506  17567U 17577M 17577  17588U 17625  17686U 17696M
                                                 17696  17707U 17743M 17743  17830U 17844U 17964U 18054  18115U 18125M
                                                 18125  18136U 18295U 18387U 18501  18718U 18735U 18816
 VTMCNT        2 0000000A FFFFFFEC     H    1410 11140M 11756  13244M 15471M 17123M 17769M 18523
 VTMEND        4 00000068 FFFFFFEC     F    1447  1450   1451  18032
 VTMID         4 00000000 FFFFFFEC     C    1407 10129M 10190  11738  12634  12712  13009M 13157M 13219M 15317  16533
                                                 17060M 17398  17578M 17697M 17744M 18014  18126M 18412
 VTMIHDR       4 0000000C FFFFFFEC     X    1449  1450   1450  18524  18817
 VTMNEXT       4 00000004 FFFFFFEC     F    1408 10023  11199M 11199  11254M 11631  11906  12759  13312M 15964M 15964
                                                 16019M 16753M 16753  16811M 17249  17411  17834M 18032  18033M 18033
                                                 18324  18666M 18666  18724M
 VTMR          4 00000004 FFFFFFFF A   #    1141  9833U  9895  10008M 10009M 10009  10035  10038M 10148M 10866  11201
                                                 11215  11254  11708M 11717M 11717  11796  11965M 11977  12570U 12600M
                                                 12616M 12616  12622M 12652  12678M 12694M 12694  12700M 12730  12744M
1VPO      (VPO2193) (13:00) (15MAR04) Ordinary Symbol and Literal Cross Reference                                           Page   60
                                                 12745M 12745  12771  12774M 12901M 13028M 13050M 13176M 13272  13312
                                                 13338  15269M 15270M 15270  15290M 15299U 15946M 15946  15965  15980
                                                 16019  16273M 16274M 16274  16295M 16304U 16721  16755  16769  16811
                                                 16937M 16937  16955  16976M 16976  17079M 17092M 17092  17222U 17236M
                                                 17237M 17237  17250M 17276  17371M 17423  17426M 17470M 17597M 17716M
                                                 17797  17834  17853  17964U 17987M 17988M 17988  18000M 18145M 18397M
                                                 18507  18668  18682  18724
 VTMSTART      1 00000000 FFFFFFEC     U    1406  1451   1451
 VTMTEXT      86 00000010 FFFFFFEC     C    1446  1449  10214  10215  10374M 10405M 10451M 11097  11114  11154  11767
                                                 13233M 15503  15535  15567  15599  15631  15663  15695  15727  15759
                                                 15791  15823  15855  17112M 17114M 17115M 17117M 17118M 17119M 17119
                                                 17120M 17121M 17121  17122M 17758M
 VTMU#         2 00000008 FFFFFFEC     H    1409 10208M 13220M 15468M 16548  17745M 18427
 VTMVMSG      92 0000000C FFFFFFEC     X    1450 13444  13797  18179  18182  18542  18816
 VTU          32 00000000 FFFFFFEE     J    1392  9843U  9864   9864  12859U 13358  13358  15388U 15411  15411  16606U
                                                 17320U 17873  17873  18474U 18831
 VTU#          2 00000004 FFFFFFEE     H    1341  9875M  9875   9952  10208  12875M 12875  13220  15422M 15422  15468
                                                 17336M 17336  17745
 VTUCP         4 00000010 FFFFFFEE     A    1383  9976M
 VTUECB        4 00000008 FFFFFFEE     F    1342 10847  10848M 10848  11452  11453M 11453  11490M 11490  11598  12008
                                                 12009M 12009  13352  16096  17437  17438M 17438  17869
 VTUEND        8 00000020 FFFFFFEE     D    1385 10847  11452  12008  17437
 VTUF          1 0000000E FFFFFFEE     R    1346  1350   1355   1360   1365   1370   1375   1380   9975M
 VTUFATTN     64 0000000E FFFFFFEE         1355 11844M 15453  15453  16923  17353  17353  18489  18489
 VTUFDIS       8 0000000E FFFFFFEE         1370 10373M 10823  15885
 VTUFEND       4 0000000E FFFFFFEE         1375 11537  12923  13049M 13193M 13347M 16082M 17492  17864M
 VTUFFREE    128 0000000E FFFFFFEE         1350  9587   9595   9603   9611   9619   9627   9635   9643   9651   9659
                                                  9858  10166M 10854M 11459M 12015M 12890  15453  15453  15454  16671
                                                 17353  17353  17354  17444M 18489  18489  18490
 VTUFRCV      16 0000000E FFFFFFEE         1365 13072M 13200M 13254  13254  13255M 16709M 17779  17779  17780M
 VTUFSND      32 0000000E FFFFFFEE         1360 11302M 13254  13254  16734M 17779  17779  18522M 18653M
 VTUFTEST      2 0000000E FFFFFFEE         1380 11177M 11552  11564M
 VTUID         4 00000000 FFFFFFEE     C    1340  9923  16623
 VTUMSGH       8 00000018 FFFFFFEE     D    1384 10008  10050M 10050  11513  11670M 11882  11945M 12896  13340M 15966
                                                 16041M 17362  17369M 17459  17460M 17855  17856M
 VTUPOHID      2 0000000C FFFFFFEE     H    1343 10004M 10209  11859M 11859  15405  16648
 VTUR          5 00000005 FFFFFFFF A   #    1153  9843U  9845M  9864M 12850M 12859U 13358M 15379M 15388U 15411M 16548M
                                                 16549M 16549  16581  16595M 16596M 16597M 16597  16606U 17311M 17320U
                                                 17873M 18427M 18428M 18428  18453  18463M 18464M 18465M 18465  18474U
 WAIT          2 000010D0 00000008     H   14181 14157  14169U 17923B 18802B
 WAITECB       1 00000000 00000004     T   12043 12043
 WAITER        1 00000000 00000003     T   12040 12040
 WAR           8 00000008 FFFFFFFF A   #    1025 12162M 12295  12409M 13390
 WTOSG         1 00000000 00000000 A   T    4992  4992
 WYLVPO        1 00000000 00000001     J    1202  1204   1393   1458   2299   9502  10255  10901  10928  10962  11010
                                                 11037
 =A(CLEANST)
               4 00000E20 00000006     A   13595 13526
 =A(L'VTMIHDR)
               4 00001CEC 00000008     A   18817 15470
 =A(RCRPL)
               4 00000D7C 00000001     A   13445 12664
 =A(RCRPL)
               4 00001CCC 00000008     A   18809 14970  17968
 =A(SRPL)      4 00000D74 00000001     A   13443 12574
 =A(SRPL)      4 00001CF0 00000008     A   18818 16138  18255  18526
 =A(USERLIST)
               4 00000D80 00000001     A   13446 12850
 =A(VTAMSTSK)
1VPO      (VPO2193) (13:00) (15MAR04) Ordinary Symbol and Literal Cross Reference                                           Page   61
               4 00000868 00000001     A   12042 11390
 =A(VTC)       4 0000082C 00000001     A   12031  9731
 =A(VTC)       4 00000A98 00000001     A   12368 12187
 =A(VTC)       4 00000E1C 00000006     A   13594 13522
 =A(VTC)       4 00000F60 00000008     A   14175 13918
 =A(VTC)       4 00001F50 00000008     A   18967 18939
 =A(VTCSTDET)
               4 00000858 00000001     A   12038 11328
 =A(VTCSTDET)
               4 00000D70 00000001     A   13442 12436
 =A(VTCSTEND)
               4 00000864 00000001     A   12041 11356
 =A(VTMVMSG-VTM)
               4 00000D78 00000001     A   13444 12622  12700
 =A(VTMVMSG-VTM)
               4 00001CE8 00000008     A   18816 15290  16295  18000
 =A(X'000A')
               4 00001CD4 00000008     A   18811 15141  16353
 =A(X'000D')
               4 00001CD8 00000008     A   18812 15169  16381
 =A(X'000E')
               4 00001CF4 00000008     A   18819 16405
 =A(X'006F')
               4 00001CDC 00000008     A   18813 15197  16430
 =A(X'0070')
               4 00001CE0 00000008     A   18814 15219  16452
 =A(X'0071')
               4 00001CF8 00000008     A   18820 16474
 =A(X'0073')
               4 00001CFC 00000008     A   18821 16496
 =A(X'3FFFFFFF')
               4 00000854 00000001     A   12037 11316
 =A(X'80000000')
               4 00000F5C 00000008     A   14174 13904
 =A(1)         4 00000830 00000001     A   12032  9980  10313  10510  10604  10695  10752
 =A(1)         4 00000D88 00000001     A   13448 13243
 =A(1)         4 00001D08 00000008     A   18824 17768
 =A(10)        4 00001D00 00000008     A   18822 16581  18453
 =A(28)        4 00001CD0 00000008     A   18810 15086  15098  16254  16266
 =A(5*100)
               4 00000AA8 00000001     A   12372 12270
 =A(75)        4 00000838 00000001     A   12034 10220  10232
 =AL4(VTCSTDET)
               4 00000AA0 00000001     R   12370 12228
 =AL4(VTCSTNEV)
               4 00000A9C 00000001     R   12369 12213
 =AL4(VTCSTRUN)
               4 00000AA4 00000001     R   12371 12249
 =C' '         1 00000905 00000001     C   12057 10895  11004
 =C';'         1 00000907 00000001     C   12059 10956
 =C','         1 00000906 00000001     C   12058 10922  11031
 =C',TEST=YES'
               9 00000908 00000001     C   12060 11165
 =C'production Wylbur.'
              18 00000874 00000001     C   12045  9723
 =C'ACB CLOSED'
              10 00001D50 00000008     C   18833 17303
 =C'CATASTROPHIC VTAM ERROR'
              23 000008D1 00000001     C   12053  9763
1VPO      (VPO2193) (13:00) (15MAR04) Ordinary Symbol and Literal Cross Reference                                           Page   62
 =C'CATASTROPHIC VTAM ERROR'
              23 00001D69 00000008     C   18837 14328
 =C'COMMAND FAILED - NOT ENOUGH VTAM STORAGE'
              40 00001C60 00000008     C   18806 14590
 =C'COMMAND FAILED - VTAM SYSTEM ERROR'
              34 00001D1E 00000008     C   18826 14863
 =C'COMMAND TERMINATED'
              18 00000D8C 00000001     C   13449 12809
 =C'D NET,'
               6 0000089C 00000001     C   12049 10374
 =C'F NET,'
               6 000008A8 00000001     C   12051 10451
 =C'Invalid VTAM command'
              20 0000083C 00000001     C   12035 10873
 =C'IST039I'
               7 00001E56 00000008     C   18844 15535
 =C'IST097'
               6 00001D46 00000008     C   18830 15503
 =C'IST411I'
               7 00001E5D 00000008     C   18845 15567
 =C'IST412I'
               7 00001E64 00000008     C   18846 15599
 =C'IST450I'
               7 00001E6B 00000008     C   18847 15631
 =C'IST452I'
               7 00001E72 00000008     C   18848 15663
 =C'IST453I'
               7 00001E79 00000008     C   18849 15695
 =C'IST454I'
               7 00001E80 00000008     C   18850 15727
 =C'IST456I'
               7 00001E87 00000008     C   18851 15759
 =C'IST539I'
               7 00001E8E 00000008     C   18852 15791
 =C'IST540I'
               7 00001E95 00000008     C   18853 15823
 =C'IST835I'
               7 00001E9C 00000008     C   18854 15855
 =C'PATH CLOSED PERMANENTLY'
              23 000008E8 00000001     C   12054  9790
 =C'PATH CLOSED'
              11 00001D5E 00000008     C   18836 14295
 =C'PATH NOT AVAILABLE'
              18 00000886 00000001     C   12046  9902  10171
 =C'V NET,'
               6 000008A2 00000001     C   12050 10405
 =C'VTAM commands not yet available in '
              35 000008AE 00000001     C   12052  9705
 =C'VTAM IS HALTING'
              15 00001D80 00000008     C   18838 14348  14685
 =C'VTAM IS NOT ACTIVE'
              18 00001D0C 00000008     C   18825 14713
 =C'VTAM NOT AVAILABLE - INCORRECT PASSWORD'
              39 00001D8F 00000008     C   18839 14617
 =C'VTAM NOT AVAILABLE - INVALID APPLICATION NAME'
              45 00001DEB 00000008     C   18841 14773
 =C'VTAM NOT AVAILABLE - NOT INCLUDED IN OPERATING SYSTEM'
              53 00001DB6 00000008     C   18840 14651
 =C'VTAM TEMPORARILY NOT AVAILABLE - APPLICATION ALREADY ACTIVE'
1VPO      (VPO2193) (13:00) (15MAR04) Ordinary Symbol and Literal Cross Reference                                           Page   63
              59 00001E18 00000008     C   18842 14835
 =C'VTAM TEMPORARILY NOT AVAILABLE - NO APPLICATION NAME'
              52 00001C98 00000008     C   18808 14807
 =C'VTM'       3 00000902 00000001     C   12056 10190  11738
 =C'VTM'       3 00000D9E 00000001     C   13450 12634  12712
 =C'VTM'       3 00001E53 00000008     C   18843 15317  16533  17398  18014  18412
 =C'VTU'       3 000008FF 00000001     C   12055  9923
 =C'VTU'       3 00001EA3 00000008     C   18855 16623
 =C'WYLBUR IS ENDING'
              16 00000818 00000001     C   12029  9817
 =C'0123456789ABCDEF'
              16 00000D60 00000001     C   13441 12827
 =C'0123456789ABCDEF'
              16 00001C88 00000008     C   18807 17122
 =CL13'ERROR RETURN '
              13 00001EA6 00000008     C   18856 17112
 =CL4'VTM'
               4 00000834 00000001     C   12033 10129
 =CL4'VTM'
               4 00000D84 00000001     C   13447 13009  13157  13219
 =CL4'VTM'
               4 00001D04 00000008     C   18823 17060  17578  17697  17744  18126
 =F'400'       4 0000085C 00000001     F   12039 11334  11565
 =F'6'         4 00001CE4 00000008     F   18815 15253
 =F'9'         4 00000850 00000001     F   12036 11142
 =H'24'        2 00001D44 00000008     H   18829 15045  16213  18210  18606
 =H'28'        2 00001D42 00000008     H   18828 15019  16187
 =H'30'        2 00001D4E 00000008     H   18832 17123
 =H'4'         2 00001D40 00000008     H   18827 15012  16180
 =H'8'         2 00001D5C 00000008     H   18835 18636
 =V(CV)        4 00000E18 00000006     V   13593 13510
 =V(CV)        4 00000F58 00000008     V   14173 13859
 =V(SEG)       4 00000828 00000001     V   12030  9717  11783
 =V(SEGCR)
               4 00000870 00000001     V   12044 11822
 =V(WAITECB)
               4 0000086C 00000001     V   12043 11601
 =V(WAITER)
               4 00000860 00000001     V   12040 11337  11569
 =Y(L'VTU)
               2 00001D4C 00000008     Y   18831 16596  18464
 =Y(X'7FFF')
               2 00001D5A 00000008     Y   18834 18165
 =Y(X'7FF0')
               2 0000089A 00000001     Y   12048  9991
 =Y(10)        2 00000898 00000001     Y   12047  9952

1VPO      (VPO2193) (13:00) (15MAR04) Macro and Copy Code Source Summary                                                    Page   64
- Con Source                                        Volume    Members                        HLASM R4.0  2004/03/15 13.00
0     PRIMARY INPUT                                           CSECT    DROP     END      EX       FREEMSG  GENU
                                                              GETMSG   LTORG    NAME     POP      PRINT    PUSH
                                                              START    STFAIL   USING
   L1 WYL.GS.WYL.WYLBUR.MACLIB                      SYSB05    ABORT    AINFO    BASE     COLINFO  COMMENT  CONTROL  CP
                                                              CPLOCAL  CV       CVLOCAL  FAIL     GENTER   JCB
                                                              KAPUT    RG       SCANCB   TCR      TSEG     TTYPE
                                                              VLTORG   XTRACE
   L2 WYL.GG.SYS.MACLIB                             SYSB05    $BC      $BFLKUP  $BV      $CCLKUP  $CRS     $CSS     $L
                                                              $LA      $LBLAD   $LEXP    $LOR     $REL     $RGLKUP
                                                              $USLKUP  ACALL    BEGIN    CEIL     CLEAR    COMPROC
                                                              CSECT    DATA     DECR     DEFCC    DEX      DROP     ELSE
                                                              ELSEIF   END      EX       EXIT     FLAG     GEN
                                                              HIBAL    IDENT    IF       INCR     LABEL    LC       LOOP
                                                              LS       LT       LTH      LTORG    PEND     POP
                                                              PRINT    PROC     PUSH     RECORD   REG      REGS     SET
                                                              SETMSG   START    ST4      USING    VCALL    WHILE    WITH
                                                              XPROC
   L3 SYS3.IS.MACLIB                                SYSB05    SEG      SEGCB    SEGCR    SEGLD    SIB      SYSDEFN
   L5 SYS1.MACLIB                                   MVSBR9    ATTACH   CHECK    CLOSE    DETACH   EXLST    FREEMAIN
                                                              GENCB    GETMAIN  IDACBACB IDACB1   IDACB2   IDACB3
                                                              IDENTIFY IHBINNRA IHBRDWRA ISTACBEX ISTCBOPT ISTCBRPL
                                                              ISTCB3   ISTDPOHD ISTEXL1  ISTGAPPC ISTGLBAL ISTRPLEX
                                                              ISTRPLFB ISTRPL1  ISTRPL6X OPEN     POST     RCVCMD
                                                              RETURN   RPL      SAVE     SENDCMD  SPLEVEL  STIMER
                                                              SYSSTATE WAIT
   L6 SYS1.MODGEN                                   MVSBR9    IFGACB   IFGACBVS IFGRPL   IFGRPLVS

1VPO      (VPO2193) (13:00) (15MAR04) Dsect Cross Reference                                                                 Page   65
-Dsect     Length      Id       Defn                                                         HLASM R4.0  2004/03/15 13.00
0$$$@R0   00000000  FFFFFFFE     709
 $$$@R1   00000000  FFFFFFFD     722
 $$$@R10  00000000  FFFFFFF4     839
 $$$@R11  00000000  FFFFFFF3     852
 $$$@R12  00000000  FFFFFFF2     865
 $$$@R13  00000000  FFFFFFF1     878
 $$$@R14  00000000  FFFFFFF0     891
 $$$@R15  00000000  FFFFFFEF     904
 $$$@R2   00000000  FFFFFFFC     735
 $$$@R3   00000000  FFFFFFFB     748
 $$$@R4   00000000  FFFFFFFA     761
 $$$@R5   00000000  FFFFFFF9     774
 $$$@R6   00000000  FFFFFFF8     787
 $$$@R7   00000000  FFFFFFF7     800
 $$$@R8   00000000  FFFFFFF6     813
 $$$@R9   00000000  FFFFFFF5     826
 $$$RCP   00001000  FFFFFFE6    5365
 $$$RCV   00000FB0  FFFFFFE8    4090
 $$$RDEV  0000000C  FFFFFFE5    7579
 $$$RJCB  000000D0  FFFFFFE3    9217
 $$$RNSCNCB
          000000B0  FFFFFFE7    5286
 $$$RTTYPE
          0000010C  FFFFFFE4    9110
 $$$RVTU  00000020  FFFFFFEE    1333
 $$$R0    00000000  FFFFFFED    1398
 HIBAL    00000000  FFFFFFFF     695
 IFGACB   00000098  FFFFFFEB    1649
 IFGRPL   00000070  FFFFFFEA    2374
 ISTDPOHD 00000068  FFFFFFEC    1405
 ISTRPL6X 00000070  FFFFFFE9    3697

1VPO      (VPO2193) (13:00) (15MAR04) Using Map                                                                             Page   66
-                                                                                            HLASM R4.0  2004/03/15 13.00
   Stmt  -----Location----- Action ----------------Using----------------- Reg Max    Last  Label and Using Text
           Count      Id           Type          Value    Range     Id        Disp   Stmt
0   926  00000000  FFFFFFFF USING  ORDINARY    00000000 00001000 FFFFFFEF  15 001   13233  @R15,15
    930  00000000  FFFFFFFF USING  ORDINARY    00000000 00001000 FFFFFFF0  14 002    5081  @R14,14
    934  00000000  FFFFFFFF USING  ORDINARY    00000000 00001000 FFFFFFF1  13 008   17913  @R13,13
    938  00000000  FFFFFFFF USING  ORDINARY    00000000 00001000 FFFFFFF2  12 000          @R12,12
    942  00000000  FFFFFFFF USING  ORDINARY    00000000 00001000 FFFFFFF3  11 000          @R11,11
    946  00000000  FFFFFFFF USING  ORDINARY    00000000 00001000 FFFFFFF4  10 000          @R10,10
    950  00000000  FFFFFFFF USING  ORDINARY    00000000 00001000 FFFFFFF5   9 000          @R9,9
    954  00000000  FFFFFFFF USING  ORDINARY    00000000 00001000 FFFFFFF6   8 000          @R8,8
    958  00000000  FFFFFFFF USING  ORDINARY    00000000 00001000 FFFFFFF7   7 000          @R7,7
    962  00000000  FFFFFFFF USING  ORDINARY    00000000 00001000 FFFFFFF8   6 000          @R6,6
    966  00000000  FFFFFFFF USING  ORDINARY    00000000 00001000 FFFFFFF9   5 000          @R5,5
    970  00000000  FFFFFFFF USING  ORDINARY    00000000 00001000 FFFFFFFA   4 000          @R4,4
    974  00000000  FFFFFFFF USING  ORDINARY    00000000 00001000 FFFFFFFB   3 000          @R3,3
    978  00000000  FFFFFFFF USING  ORDINARY    00000000 00001000 FFFFFFFC   2 000   11165  @R2,2
    982  00000000  FFFFFFFF USING  ORDINARY    00000000 00001000 FFFFFFFD   1 001    5080  @R1,1
    986  00000000  FFFFFFFF USING  ORDINARY    00000000 00001000 FFFFFFFE   0 000          @R0,0
    987  00000000  FFFFFFFF DROP                                            0              0
   1186  00000000  FFFFFFFF USING  ORDINARY    00000000 00001000 FFFFFFE6  11 D5A   11819  CP,CPR
   1195  00000000  FFFFFFFF USING  ORDINARY    00000000 00001000 FFFFFFE8  12 890   12025  CV,CVR
   9684  000001DE  00000001 USING  ORDINARY    000001DE 00001000 00000001   7 74E   11980  $$$43B,R7
   9740  00000208  00000001 USING  ORDINARY    00000018 00001000 00000001   6 070   11472  VTC,VTCR
   9833  00000244  00000001 USING  ORDINARY    00000000 00001000 FFFFFFEC   4 004   10023  VTM,VTMR
   9843  00000244  00000001 USING  ORDINARY    00000000 00001000 FFFFFFEE   5 020   12015  VTU,VTUR
  10115  00000348  00000001 USING  ORDINARY    00000000 00001000 FFFFFFFA   4 000          @R4,4
  10118  00000348  00000001 USING  ORDINARY    00000000 00001000 FFFFFFEC   1 000   10129  VTM,R1
  10139  00000354  00000001 USING  ORDINARY    00000000 00001000 FFFFFFEC   4 016   11199  VTM,4
  10144  00000354  00000001 USING  ORDINARY    00000000 00001000 FFFFFFFD   1 001   10995  @R1,1
  11245  000005E8  00000001 USING  ORDINARY    00000000 00001000 FFFFFFFA   4 000          @R4,4
  11248  000005E8  00000001 USING  ORDINARY    00000000 00001000 FFFFFFEC   3 004   11254  VTM,R3
  11265  000005EC  00000001 USING  ORDINARY    00000000 00001000 FFFFFFEC   4 000          VTM,4
  11270  000005EC  00000001 USING  ORDINARY    00000000 00001000 FFFFFFFB   3 000          @R3,3
  11505  000006D8  00000001 USING  ORDINARY    00000000 00001000 FFFFFFFA   4 000          @R4,4
  11508  000006D8  00000001 USING  ORDINARY    00000000 00001000 FFFFFFEC   2 004   11631  VTM,R2
  11700  00000742  00000001 USING  ORDINARY    00000000 00001000 FFFFFFEC   4 010   11767  VTM,4
  11705  00000742  00000001 USING  ORDINARY    00000000 00001000 FFFFFFFC   2 000          @R2,2
  11874  000007BC  00000001 USING  ORDINARY    00000000 00001000 FFFFFFFA   4 000          @R4,4
  11877  000007BC  00000001 USING  ORDINARY    00000000 00001000 FFFFFFEC   2 004   11906  VTM,R2
  11995  00000804  00000001 USING  ORDINARY    00000000 00001000 FFFFFFEC   4 000          VTM,4
  12000  00000804  00000001 USING  ORDINARY    00000000 00001000 FFFFFFFC   2 000          @R2,2
  12083  00000A2C  00000001 USING  ORDINARY    00000000 00001000 FFFFFFF2  12 000          @R12,12
  12088  00000A2C  00000001 USING  ORDINARY    00000000 00001000 FFFFFFF3  11 000          @R11,11
  12099  00000A2C  00000001 USING  ORDINARY    00000000 00001000 FFFFFFF7   7 000          @R7,7
  12104  00000A2C  00000001 USING  ORDINARY    00000000 00001000 FFFFFFF8   6 000          @R6,6
  12109  00000A2C  00000001 USING  ORDINARY    00000000 00001000 FFFFFFF9   5 000          @R5,5
  12114  00000A2C  00000001 USING  ORDINARY    00000000 00001000 FFFFFFFA   4 000          @R4,4
  12132  00000A2C  00000001 USING  ORDINARY    00000000 00001000 FFFFFFE6  11 000          CP,CPR
  12141  00000A2C  00000001 USING  ORDINARY    00000000 00001000 FFFFFFE8  12 74C   12166  CV,CVR
  12178  00000A46  00000001 USING  ORDINARY    00000A46 00001000 00000001   7 062   12270  $$$151B,7
  12196  00000A4A  00000001 USING  ORDINARY    00000018 00001000 00000001   6 020   12265  VTC,VTCR
  12291  00000A86  00000001 USING  ORDINARY    00000000 00001000 FFFFFFF7   7 000          @R7,7
  12315  00000A94  00000001 USING  ORDINARY    00000000 00001000 FFFFFFF2  12 000          @R12,12
  12320  00000A94  00000001 USING  ORDINARY    00000000 00001000 FFFFFFF3  11 000          @R11,11
  12333  00000A94  00000001 USING  ORDINARY    00000000 00001000 FFFFFFF8   6 000          @R6,6
1VPO      (VPO2193) (13:00) (15MAR04) Using Map                                                                             Page   67
  12355  00000A94  00000001 USING  ORDINARY    00000000 00001000 FFFFFFE6  11 000          CP,CPR
  12364  00000A94  00000001 USING  ORDINARY    00000000 00001000 FFFFFFE8  12 74C   12413  CV,CVR
  12385  00000AAC  00000001 USING  ORDINARY    00000018 00001000 00000001   6 060   13221  VTC,VTCR
  12392  00000AAC  00000001 USING  ORDINARY    00000000 00001000 FFFFFFF3  11 000          @R11,11
  12425  00000AC6  00000001 USING  ORDINARY    00000AC6 00001000 00000001   7 2DC   13362  $$$157B,7
  12494  00000AF2  00000001 USING  ORDINARY    00000000 00001000 FFFFFFEB   2 080   12498  ACB,R2
  12557  00000B58  00000001 USING  ORDINARY    00000000 00001000 FFFFFFFC   2 004   13856  @R2,2
  12570  00000B58  00000001 USING  ORDINARY    00000000 00001000 FFFFFFEC   4 004   12759  VTM,VTMR
  12583  00000B5C  00000001 USING  ORDINARY    00000000 00001000 FFFFFFEA   3 045   12685  RPL,RPLR
  12859  00000C46  00000001 USING  ORDINARY    00000000 00001000 FFFFFFEE   5 020   13358  VTU,VTUR
  12995  00000C90  00000001 USING  ORDINARY    00000000 00001000 FFFFFFFA   4 000          @R4,4
  12998  00000C90  00000001 USING  ORDINARY    00000000 00001000 FFFFFFEC   1 000   13009  VTM,R1
  13019  00000C9C  00000001 USING  ORDINARY    00000000 00001000 FFFFFFEC   4 00D   13065  VTM,4
  13024  00000C9C  00000001 USING  ORDINARY    00000000 00001000 FFFFFFFD   1 000          @R1,1
  13143  00000CDC  00000001 USING  ORDINARY    00000000 00001000 FFFFFFFA   4 000          @R4,4
  13146  00000CDC  00000001 USING  ORDINARY    00000000 00001000 FFFFFFEC   1 000   13157  VTM,R1
  13167  00000CE8  00000001 USING  ORDINARY    00000000 00001000 FFFFFFEC   4 010   13245  VTM,4
  13172  00000CE8  00000001 USING  ORDINARY    00000000 00001000 FFFFFFFD   1 000          @R1,1
  13297  00000D32  00000001 USING  ORDINARY    00000000 00001000 FFFFFFFB   3 000          @R3,3
  13305  00000D32  00000001 USING  ORDINARY    00000000 00001000 FFFFFFFA   4 000          @R4,4
  13308  00000D32  00000001 USING  ORDINARY    00000000 00001000 FFFFFFEC   3 004   13312  VTM,R3
  13322  00000D36  00000001 USING  ORDINARY    00000000 00001000 FFFFFFEC   4 000          VTM,4
  13331  00000D36  00000001 USING  ORDINARY    00000000 00001000 FFFFFFFB   3 000          @R3,3
  13334  00000D36  00000001 USING  ORDINARY    00000000 00001000 FFFFFFEA   3 000          RPL,3
  13371  00000D50  00000001 USING  ORDINARY    00000000 00001000 FFFFFFF9   5 000          @R5,5
  13376  00000D50  00000001 USING  ORDINARY    00000000 00001000 FFFFFFFB   3 000          @R3,3
  13381  00000D50  00000001 USING  ORDINARY    00000000 00001000 FFFFFFFA   4 000   14030  @R4,4
  13386  00000D50  00000001 USING  ORDINARY    00000000 00001000 FFFFFFF7   7 000          @R7,7
  13410  00000D5E  00000001 USING  ORDINARY    00000000 00001000 FFFFFFF2  12 000          @R12,12
  13425  00000D5E  00000001 USING  ORDINARY    00000000 00001000 FFFFFFF8   6 000          @R6,6
  13473  00000DBA  00000006 USING  ORDINARY    00000DA8 00001000 00000006   7 078   13540  ETXR,BR
  13519  00000DE4  00000006 USING  ORDINARY    00000000 00001000 FFFFFFE8  12 000          CV,CVR
  13562  00000E12  00000006 USING  ORDINARY    00000000 00001000 FFFFFFF2  12 000          @R12,12
  13575  00000E12  00000006 USING  ORDINARY    00000000 00001000 FFFFFFF7   7 000          @R7,7
  13852  00000E3C  00000008 USING  ORDINARY    00000E28 00001000 00000008   7 2A8   14157  VTAMSTSK,BR
  13868  00000E4E  00000008 USING  ORDINARY    00000000 00001000 FFFFFFE8  12 4C6   13992  CV,CVR
  13927  00000E6C  00000008 USING  ORDINARY    00000018 00001000 00000001   6 070   18753  VTC,VTCR
  13979  00000E8E  00000008 USING  ORDINARY    00000000 00001000 FFFFFFEB   2 094   14046  ACB,R2
  14135  00000F40  00000008 USING  ORDINARY    00000000 00001000 FFFFFFEA   1 018   14141  IFGRPL,R1
  14147  00000F4C  00000008 USING  ORDINARY    00000000 00001000 FFFFFFFD   1 000          @R1,1
  14152  00000F4C  00000008 USING  ORDINARY    00000000 00001000 FFFFFFFC   2 000          @R2,2
  14166  00000F52  00000008 USING  ORDINARY    00000000 00001000 FFFFFFF7   7 000          @R7,7
  14169  00000F52  00000008 USING  ORDINARY    000010D0 00001000 00000008   7 DE4   18802  WAIT,BR
  14250  000010FA  00000008 USING  ORDINARY    00000000 00001000 FFFFFFEB   2 094   14906  ACB,R2
  14938  000012B0  00000008 USING  ORDINARY    00000000 00001000 FFFFFFFC   2 000          @R2,2
  14979  000012C0  00000008 USING  ORDINARY    00000000 00001000 FFFFFFEA   3 058   15478  RPL,RPLR
  15070  000012F6  00000008 DROP                                            1              1
  15074  000012FC  00000008 USING  ORDINARY    00000000 00001000 FFFFFFFD   1 000          @R1,1
  15299  0000139E  00000008 USING  ORDINARY    00000000 00001000 FFFFFFEC   4 010   15964  VTM,VTMR
  15388  000013E0  00000008 USING  ORDINARY    00000000 00001000 FFFFFFEE   5 020   16096  VTU,VTUR
  15484  00001422  00000008 USING  ORDINARY    00000000 00001000 FFFFFFFB   3 000          @R3,3
  16010  00001536  00000008 USING  ORDINARY    00000000 00001000 FFFFFFFA   4 000          @R4,4
  16013  00001536  00000008 USING  ORDINARY    00000000 00001000 FFFFFFEC   3 004   16019  VTM,R3
  16030  0000153A  00000008 USING  ORDINARY    00000000 00001000 FFFFFFEC   4 000          VTM,4
  16035  0000153A  00000008 USING  ORDINARY    00000000 00001000 FFFFFFFB   3 000          @R3,3
  16103  00001558  00000008 USING  ORDINARY    00000000 00001000 FFFFFFF9   5 000          @R5,5
  16108  00001558  00000008 USING  ORDINARY    00000000 00001000 FFFFFFFA   4 000          @R4,4
  16147  00001568  00000008 USING  ORDINARY    00000000 00001000 FFFFFFEA   3 058   16512  RPL,RPLR
  16238  0000159E  00000008 DROP                                            1              1
1VPO      (VPO2193) (13:00) (15MAR04) Using Map                                                                             Page   68
  16242  000015A4  00000008 USING  ORDINARY    00000000 00001000 FFFFFFFD   1 000          @R1,1
  16304  000015D6  00000008 USING  ORDINARY    00000000 00001000 FFFFFFEC   4 00E   16753  VTM,VTMR
  16606  000016C6  00000008 USING  ORDINARY    00000000 00001000 FFFFFFEE   5 00E   16923  VTU,VTUR
  16794  00001750  00000008 USING  ORDINARY    00000000 00001000 FFFFFFFB   3 000          @R3,3
  16802  00001750  00000008 USING  ORDINARY    00000000 00001000 FFFFFFFA   4 000          @R4,4
  16805  00001750  00000008 USING  ORDINARY    00000000 00001000 FFFFFFEC   3 004   16811  VTM,R3
  16822  00001754  00000008 USING  ORDINARY    00000000 00001000 FFFFFFEC   4 000          VTM,4
  16831  00001754  00000008 USING  ORDINARY    00000000 00001000 FFFFFFFB   3 000          @R3,3
  16834  00001754  00000008 USING  ORDINARY    00000000 00001000 FFFFFFEA   3 000          RPL,3
  16877  00001768  00000008 USING  ORDINARY    00000000 00001000 FFFFFFEB  15 030   16891  ACB,R15
  17046  000017D8  00000008 USING  ORDINARY    00000000 00001000 FFFFFFFA   4 000          @R4,4
  17049  000017D8  00000008 USING  ORDINARY    00000000 00001000 FFFFFFEC   1 000   17060  VTM,R1
  17070  000017E4  00000008 USING  ORDINARY    00000000 00001000 FFFFFFEC   4 03B   17123  VTM,4
  17075  000017E4  00000008 USING  ORDINARY    00000000 00001000 FFFFFFFD   1 000          @R1,1
  17135  0000182E  00000008 USING  ORDINARY    00000000 00001000 FFFFFFEF  15 000   17758  @R15,15
  17140  0000182E  00000008 USING  ORDINARY    00000000 00001000 FFFFFFF9   5 000          @R5,5
  17145  0000182E  00000008 USING  ORDINARY    00000000 00001000 FFFFFFFA   4 000          @R4,4
  17150  0000182E  00000008 USING  ORDINARY    00000000 00001000 FFFFFFFB   3 000          @R3,3
  17170  00001832  00000008 USING  ORDINARY    00000000 00001000 FFFFFFEB   2 030   17186  ACB,R2
  17212  00001842  00000008 USING  ORDINARY    00000000 00001000 FFFFFFFC   2 000          @R2,2
  17222  00001842  00000008 USING  ORDINARY    00000000 00001000 FFFFFFEC   4 004   17411  VTM,VTMR
  17320  00001892  00000008 USING  ORDINARY    00000000 00001000 FFFFFFEE   5 020   17873  VTU,VTUR
  17564  00001954  00000008 USING  ORDINARY    00000000 00001000 FFFFFFFA   4 000          @R4,4
  17567  00001954  00000008 USING  ORDINARY    00000000 00001000 FFFFFFEC   1 000   17578  VTM,R1
  17588  00001960  00000008 USING  ORDINARY    00000000 00001000 FFFFFFEC   4 000          VTM,4
  17593  00001960  00000008 USING  ORDINARY    00000000 00001000 FFFFFFFD   1 000          @R1,1
  17683  00001990  00000008 USING  ORDINARY    00000000 00001000 FFFFFFFA   4 000          @R4,4
  17686  00001990  00000008 USING  ORDINARY    00000000 00001000 FFFFFFEC   1 000   17697  VTM,R1
  17707  0000199C  00000008 USING  ORDINARY    00000000 00001000 FFFFFFEC   4 010   17770  VTM,4
  17712  0000199C  00000008 USING  ORDINARY    00000000 00001000 FFFFFFFD   1 000          @R1,1
  17827  000019DA  00000008 USING  ORDINARY    00000000 00001000 FFFFFFFA   4 000          @R4,4
  17830  000019DA  00000008 USING  ORDINARY    00000000 00001000 FFFFFFEC   3 004   17834  VTM,R3
  17844  000019DE  00000008 USING  ORDINARY    00000000 00001000 FFFFFFEC   4 000          VTM,4
  17849  000019DE  00000008 USING  ORDINARY    00000000 00001000 FFFFFFFB   3 000          @R3,3
  17930  00001A1E  00000008 USING  ORDINARY    00000000 00001000 FFFFFFF9   5 000          @R5,5
  17935  00001A1E  00000008 USING  ORDINARY    00000000 00001000 FFFFFFFA   4 000          @R4,4
  17955  00001A1E  00000008 USING  ORDINARY    00000000 00001000 FFFFFFEA   3 045   18625  RPL,RPLR
  17964  00001A1E  00000008 USING  ORDINARY    00000000 00001000 FFFFFFEC   4 004   18033  VTM,VTMR
  18112  00001A8C  00000008 USING  ORDINARY    00000000 00001000 FFFFFFFA   4 000          @R4,4
  18115  00001A8C  00000008 USING  ORDINARY    00000000 00001000 FFFFFFEC   1 000   18126  VTM,R1
  18136  00001A98  00000008 USING  ORDINARY    00000000 00001000 FFFFFFEC   4 00E   18179  VTM,4
  18141  00001A98  00000008 USING  ORDINARY    00000000 00001000 FFFFFFFD   1 000          @R1,1
  18193  00001AD8  00000008 DROP                                            2              2
  18197  00001ADE  00000008 USING  ORDINARY    00000000 00001000 FFFFFFFC   2 000          @R2,2
  18292  00001B18  00000008 USING  ORDINARY    00000000 00001000 FFFFFFFA   4 000          @R4,4
  18295  00001B18  00000008 USING  ORDINARY    00000000 00001000 FFFFFFEC   2 004   18324  VTM,R2
  18387  00001B40  00000008 USING  ORDINARY    00000000 00001000 FFFFFFEC   4 00C   18666  VTM,4
  18392  00001B40  00000008 USING  ORDINARY    00000000 00001000 FFFFFFFC   2 004   18524  @R2,2
  18474  00001B88  00000008 USING  ORDINARY    00000000 00001000 FFFFFFEE   5 00E   18653  VTU,VTUR
  18553  00001BE4  00000008 DROP                                            2              2
  18557  00001BEA  00000008 USING  ORDINARY    00000000 00001000 FFFFFFFC   2 000          @R2,2
  18707  00001C48  00000008 USING  ORDINARY    00000000 00001000 FFFFFFFB   3 000          @R3,3
  18715  00001C48  00000008 USING  ORDINARY    00000000 00001000 FFFFFFFA   4 000          @R4,4
  18718  00001C48  00000008 USING  ORDINARY    00000000 00001000 FFFFFFEC   3 004   18724  VTM,R3
  18735  00001C4C  00000008 USING  ORDINARY    00000000 00001000 FFFFFFEC   4 000          VTM,4
  18744  00001C4C  00000008 USING  ORDINARY    00000000 00001000 FFFFFFFB   3 000          @R3,3
  18747  00001C4C  00000008 USING  ORDINARY    00000000 00001000 FFFFFFEA   3 000          RPL,3
  18783  00001C58  00000008 USING  ORDINARY    00000000 00001000 FFFFFFF9   5 000          @R5,5
  18792  00001C58  00000008 USING  ORDINARY    00000000 00001000 FFFFFFFA   4 000          @R4,4
1VPO      (VPO2193) (13:00) (15MAR04) Using Map                                                                             Page   69
  18797  00001C58  00000008 USING  ORDINARY    00000000 00001000 FFFFFFFB   3 000          @R3,3
  18883  00001F2D  00000008 USING  ORDINARY    00000000 00001000 FFFFFFF2  12 000          @R12,12
  18896  00001F2D  00000008 USING  ORDINARY    00000000 00001000 FFFFFFF7   7 000          @R7,7
  18901  00001F2D  00000008 USING  ORDINARY    00000000 00001000 FFFFFFF8   6 000          @R6,6
  18926  00001F30  00000008 USING  ORDINARY    00001F2E 00001000 00000008   7 022   18939  TEEXIT,BR
  18937  00001F36  00000008 USING  ORDINARY    00000000 00001000 FFFFFFEB   2 000          ACB,R2
  18948  00001F3A  00000008 USING  ORDINARY    00000018 00001000 00000001   6 01C   18960  VTC,VTCR
  18991  00001F54  00000008 USING  ORDINARY    00000000 00001000 FFFFFFF7   7 000          @R7,7
  18996  00001F54  00000008 USING  ORDINARY    00000000 00001000 FFFFFFF8   6 000          @R6,6
  19007  00001F54  00000008 USING  ORDINARY    00000000 00001000 FFFFFFFC   2 000          @R2,2

1         (VPO2193) (13:00) (15MAR04) General Purpose Register Cross Reference                                              Page   70
- Register  References (M=modified, B=branch, U=USING, D=DROP, N=index)                      HLASM R4.0  2004/03/15 13.00
0    0(0)      986U   987D  5010   5078M  5078   5079M  9706M  9724M  9764M  9791M  9818M  9894M  9903M  9932   9961
             10034M 10063M 10172M 10199  10212M 10220  10232M 10237  10274M 10274  10310M 10329M 10329  10486M 10486
             10507M 10524M 10524  10565M 10565  10601M 10620M 10620  10671M 10671  10692M 10713M 10713  10749M 10768M
             10768  10803M 10803  10865M 10874M 10946M 10993M 11307M 11307  11387M 11387  11392M 11463  11597M 11747
             11772M 11795M 11811M 11811  11976M 12019M 12019  12161  12264M 12264  12272M 12273M 12299M 12408  12651M
             12729M 12770M 12810M 12841M 12843M 12848  12943M 13091M 13351M 13351  13394M 13463  13486M 13539M 13549M
             13843  13964M 14200M 14296M 14329M 14349M 14354  14527M 14527  14591M 14618M 14652M 14686M 14714M 14774M
             14808M 14836M 14864M 14920  14987M 15045  15052  16095M 16095  16155M 16213  16220  16720M 16954M 16994M
             17275M 17304M 17305  17366M 17366  17369  17422M 17512M 17631M 17868M 17868  18060M 18186M 18190  18506M
             18546M 18550  18959M 18959
     1(1)      982U  5010   5073M  5074M  5080M  9705M  9723M  9763M  9790M  9817M  9895M  9902M  9932   9961   9977M
              9980M  9991   9998M 10003  10004  10035M 10065M 10065  10085M 10085  10118U 10144U 10148  10171M 10199
             10213M 10313M 10510M 10604M 10695M 10752M 10866M 10873M 10945M 10992M 11097M 11114M 11119M 11135M 11135
             11140  11142M 11154N 11308M 11388M 11390M 11463  11472  11598M 11747  11767M 11796M 11977M 12021M 12021
             12161  12265M 12270M 12299M 12408  12456M 12522M 12652M 12730M 12771M 12809M 12836M 12848  12945M 12945
             12965M 12965  12998U 13024U 13028  13093M 13093  13113M 13113  13146U 13172U 13176  13352M 13394M 13463
             13488M 13488  13504  13529M 13549M 13843  13967M 13969  14071M 14125M 14135U 14140M 14147U 14202M 14203M
             14203  14295M 14328M 14348M 14354  14373M 14374N 14375N 14376N 14398M 14399N 14400N 14401N 14519M 14520N
             14521N 14522N 14590M 14617M 14651M 14685M 14713M 14773M 14807M 14835M 14863M 14920  14986M 14988N 15019M
             15052M 15070D 15072M 15072  15073M 15074U 15086  15098M 15104N 15358M 15359M 15359  15405  15469M 15470M
             15471  15490M 15490  15542M 15574M 15606M 15638M 15670M 15702M 15734M 15766M 15798M 15830M 15862M 15908M
             15930M 16070M 16070  16096M 16154M 16156N 16187M 16220M 16238D 16240M 16240  16241M 16242U 16254  16266M
             16316N 16721M 16738M 16739M 16740  16955M 16996M 16996  17016M 17016  17049U 17075U 17079  17114  17128M
             17276M 17303M 17305  17368M 17368  17369  17423M 17514M 17514  17534M 17534  17567U 17593U 17597  17633M
             17633  17653M 17653  17686U 17712U 17716  17869M 18062M 18062  18082M 18082  18115U 18141U 18145  18175M
             18177  18180N 18184N 18187N 18190M 18210  18507M 18538M 18540  18543N 18544N 18547N 18550M 18606  18636
             18929  18960M
     2(2)      978U  5010   9932   9961  10023M 10038  10199  10237M 10240M 10242  10260M 10260  10886M 10888  10915
             10941  10949  10995M 10997  11024  11154M 11200M 11202  11276M 11315M 11316M 11328  11356  11463  11508U
             11513M 11522M 11522  11670M 11705U 11708  11747  11756M 11772  11877U 11882M 11891M 11891  11945M 11965
             12000U 12161  12299M 12408  12472M 12473M 12473  12494U 12519  12557U 12759M 12774  12896M 13265M 13265
             13272M 13340  13394M 13463  13549M 13843  13854M 13855  13857  13888M 13904M 13909B 13969M 13979U 13983
             14068  14139  14141  14152U 14240M 14250U 14375  14400  14521  14938U 15001M 15001  15075M 15141  15169
             15197  15219  15253  15966M 15967  16041M 16169M 16169  16243M 16353  16381  16405  16430  16452  16474
             16496  16695M 16695  16754M 16756  16840M 17117  17160M 17249M 17250  17411M 17426  17459M 17460M 17790M
             17790  17797M 17856  18193D 18195M 18195  18196M 18197U 18295U 18299M 18308M 18308  18363M 18397  18523M
             18524M 18544  18553D 18555M 18555  18556M 18667M 18669  18753M 18929M 19007U
     3(3)      974U  5010   9932   9961  10199  10214M 10943M 10990M 11119  11200M 11248U 11270U 11276M 11463  11513M
             11665  11670M 11747  11882M 11940  11945M 12161  12299M 12408  12498M 12520  12574M 12583U 12664M 12896M
             12901  13050  13297U 13308U 13331U 13334U 13338M 13340  13376U 13394M 13463  13549M 13843  13993M 14004M
             14004  14010N 14039M 14045  14046M 14069  14970M 14979U 14986  15235M 15484U 15966M 16013U 16035U 16041M
             16138M 16147U 16154  16512M 16754M 16794U 16805U 16831U 16834U 16840M 17150U 17459M 17460M 17470  17830U
             17849U 17853M 17856  17955U 17968M 18175  18255M 18299M 18358  18363M 18526M 18538  18667M 18707U 18718U
             18744U 18747U 18753M 18797U 18929M
     4(4)      970U  5010   9833U  9895   9932   9961  10008M 10009M 10009  10035  10038M 10115U 10139U 10148M 10199
             10866  11201  11215  11245U 11254  11265U 11463  11505U 11700U 11708M 11717M 11717  11747  11796  11874U
             11965M 11977  11995U 12114U 12161  12299M 12408  12570U 12600M 12616M 12616  12622M 12652  12678M 12694M
             12694  12700M 12730  12744M 12745M 12745  12771  12774M 12901M 12995U 13019U 13028M 13050M 13143U 13167U
             13176M 13272  13305U 13312  13322U 13338  13381U 13394M 13463  13549M 13843  14010M 15269M 15270M 15270
             15290M 15299U 15946M 15946  15965  15980  16010U 16019  16030U 16108U 16273M 16274M 16274  16295M 16304U
             16721  16755  16769  16802U 16811  16822U 16937M 16937  16955  16976M 16976  17046U 17070U 17079M 17092M
             17092  17145U 17222U 17236M 17237M 17237  17250M 17276  17371M 17423  17426M 17470M 17564U 17588U 17597M
             17683U 17707U 17716M 17797  17827U 17834  17844U 17853  17935U 17964U 17987M 17988M 17988  18000M 18112U
             18136U 18145M 18292U 18387U 18397M 18507  18668  18682  18715U 18724  18735U 18792U
     5(5)      966U  5010   9843U  9845M  9864M  9932   9961  10199  11463  11747  12109U 12161  12299M 12408  12850M
1         (VPO2193) (13:00) (15MAR04) General Purpose Register Cross Reference                                              Page   71
             12859U 13358M 13371U 13394M 13463  13464M 13547  13549M 13843  15379M 15388U 15411M 16103U 16548M 16549M
             16549  16581  16595M 16596M 16597M 16597N 16606U 17140U 17311M 17320U 17873M 17930U 18341M 18341  18427M
             18428M 18428  18453  18463M 18464M 18465M 18465N 18474U 18783U
     6(6)      962U  5010   9731M  9740U  9932   9961  10199  11463  11747  12104U 12161  12187M 12196U 12299M 12333U
             12385U 12408  13394M 13425U 13463  13522M 13549M 13843  13918M 13927U 18901U 18939M 18948U 18996U
     7(7)      958U  5003M  5003   5004B  5010   5016B  9674M  9684U  9932   9961  10199  11463  11747  12099U 12161
             12166M 12178U 12291U 12299M 12408  12413M 12425U 13386U 13394M 13463  13465M 13473U 13549M 13575U 13843
             13844M 13852U 14157M 14158B 14166U 14169U 18896U 18918M 18926U 18991U
     8(8)      954U  5010   9673M  9932   9961  10199  11463  11747  12161  12162M 12295  12299M 12408  12409M 13390
             13394M 13463  13505M 13549M 13843  18928M 18962
     9(9)      950U  5010   9932   9961  10199  11463  11747  13463  13549M 13843
    10(A)      946U  5010   9932   9961  10199  11463  11747  13463  13549M 13843
    11(B)      942U  1186U  5010   9932   9961   9976  10199  11463  11747  12088U 12132U 12320U 12355U 12392U 13463
             13509M 13509  13549M 13843  13932M 13932
    12(C)      938U  1195U  5010   9932   9961  10199  11463  11747  12083U 12141U 12315U 12364U 13410U 13463  13510M
             13519U 13549M 13562U 13843  13859M 13868U 18883U
    13(D)      934U  5010   9673   9932   9961  10199  11463  11747  12158  12161  12162  12163M 12163  12295M 12299
             12301  12405  12408  12409  12410M 12410  13390M 13394  13396  13463  13464  13504M 13505  13529  13547M
             13549  13843  13856  13857M 14427M 14429  17913M 17915
    14(E)      930U  5010   5011M  5025   5026M  5027B  5029M  5030B  5050M  5051B  5055M  5056B  5058M  5059B  5061M
              5062B  5064M  5065B  5067M  5068M  5068B  5074   9717M  9718M  9718B  9932   9933M  9961   9962M 10199
             10200M 11202M 11215M 11276  11337M 11338M 11338B 11463  11464M 11569M 11570M 11570B 11601M 11602M 11602B
             11631M 11632M 11632  11670  11747  11748M 11783M 11784M 11784B 11822M 11823M 11823B 11906M 11907M 11907
             11945  12158  12301M 12304B 12405  12551M 13221M 13224M 13226  13243M 13244  13396M 13399B 13463  13526M
             13527M 13527B 13549M 13551B 13843  14100M 14374M 14376  14399M 14401  14429M 14431B 14520M 14522  14990M
             15967M 15980M 16041  16158M 16756M 16769M 16840  16911M 16912M 16913  17362M 17369M 17371  17456M 17456
             17460  17746M 17749M 17751  17768M 17769  17855M 17856M 17915M 17917B 18189M 18324M 18325M 18325  18363
             18549M 18669M 18682M 18753  18928  18962M 18963B
    15(F)      926U  5010   9714M  9896M  9932   9961  10036M 10064M 10075M 10075  10199  10215M 10867M 10942M 10989M
             11064M 11201M 11276  11334M 11408M 11409  11441M 11441  11463  11565M 11566M 11566  11648M 11648  11665M
             11670  11747  11780M 11797M 11819M 11832M 11832  11923M 11923  11940M 11945  11978M 12023M 12023  12271M
             12271  12284M 12284  12303M 12303  12548M 12549M 12549  12550M 12550  12551  12653M 12731M 12772M 12944M
             12955M 12955  13092M 13103M 13103  13221M 13398M 13398  13460  13463  13465  13487M 13498M 13498  13540M
             13549M 13550M 13840  13843  13844  14097M 14098M 14098  14099M 14099  14100  14111M 14111  14430M 14988M
             14989M 14989N 14990B 15012  15104M 15105B 15965M 16041  16156M 16157M 16157N 16158B 16180  16316M 16317B
             16722M 16755M 16840  16867M 16877U 16956M 16995M 17006M 17006  17135U 17277M 17362M 17369M 17424M 17458M
             17458  17460  17513M 17524M 17524  17632M 17643M 17643  17746M 17855M 17856M 17916M 18061M 18072M 18072
             18179M 18180  18183M 18184  18187M 18188M 18188N 18189B 18231M 18231  18358M 18363  18508M 18542M 18543
             18547M 18548M 18548N 18549B 18566M 18566  18668M 18753  18918

1VPO      (VPO2193) (13:00) (15MAR04) Diagnostic Cross Reference and Assembler Summary                                      Page   72
-                                                                                            HLASM R4.0  2004/03/15 13.00
0     No Statements Flagged in this Assembly
 HIGH LEVEL ASSEMBLER, 5696-234, RELEASE 4.0, PTF P72483
0SYSTEM: OS/390 02.10.00            JOBNAME: WYL#VPO     STEPNAME: ASM        PROCSTEP: (NOPROC)
0Datasets Allocated for this Assembly
  Con DDname   Dataset Name                                 Volume  Member
   P1 SYSIN    WYL.GS.WYL.WYLBUR.SOURCE                     SYSB05  VPO
   L1 SYSLIB   WYL.GS.WYL.WYLBUR.MACLIB                     SYSB05
   L2          WYL.GG.SYS.MACLIB                            SYSB05
   L3          SYS3.IS.MACLIB                               SYSB05
   L4          SYS3.MACLIB                                  SYSB02
   L5          SYS1.MACLIB                                  MVSBR9
   L6          SYS1.MODGEN                                  MVSBR9
      SYSPRINT SYS04075.T130039.RA000.WYL#VPO.PRINT.H01     SCR101
      SYSTERM  GG$SLP.WYL#VPO.JOB03588.D0000101.?

    3668K allocated to Buffer Pool,         4425K would be required for this to be an In-Storage Assembly
    1345 Primary Input Records Read        28218 Library Records Read                165 Work File Reads
       0 ASMAOPT Records Read               6387 Primary Print Records Written       193 Work File Writes
       0 Punch Records Written                 0 ADATA Records Written
0Assembly Start Time: 13.00.40 Stop Time: 13.00.48 Processor Time: 00.00.03.9359
 Return Code 000
