1                        J E S 2  J O B  L O G  --  S Y S T E M  S Y S B  --  N O D E  R L G
0
 12.51.33 JOB03555 ---- MONDAY,    15 MAR 2004 ----
 12.51.33 JOB03555  ICH70001I GG$SLP   LAST ACCESS AT 12:51:19 ON MONDAY, MARCH 15, 2004
 12.51.33 JOB03555  $HASP373 WYL#PROC STARTED - INIT 9    - CLASS B - SYS SYSB
 12.51.33 JOB03555  ***  HCMD      STEP $$QUIET
 12.51.33 JOB03555  PUR * Q OUT MUL
 12.51.33 JOB03555  JOB 5418 WYL#PROC WILL BE PURGED
 12.51.34 JOB03555  WYL#PROC.$$QUIET .         RC=Zero TapeIO=0000 DiskIO=0000 CPU=  .01s Elapsed=93.48s
 12.52.13 JOB03555  WYL#PROC.ASM     .         RC=Zero TapeIO=0000 DiskIO=1252 CPU=14.55s Elapsed=94.57s
 12.52.18 JOB03555  WYL#PROC.EDIT    .         RC=Zero TapeIO=0000 DiskIO=0743 CPU= 2.25s Elapsed=33.96s
 12.52.18 JOB03555  WYL#PROC Ended.  Name=Assemble PROC                  Total CPU=16.81s Elapsed=93.48s
 12.52.18 JOB03555
 12.52.18 JOB03555  Execution charges   Priority=Standard   Block=Day
 12.52.18 JOB03555
 12.52.18 JOB03555  CPU Usage         312.56         $193.78   Standard Processing Unit Equivalent
 12.52.18 JOB03555                                   =======
 12.52.18 JOB03555                                   $193.78   Total Job execution charge
 12.52.18 JOB03555
 12.52.18 JOB03555  See back separator page for print charges
 12.52.18 JOB03555
 12.52.18 JOB03555  $HASP395 WYL#PROC ENDED  ASM=0, EDIT=0
1        1 //WYL#PROC JOB SLP$GG,'Assemble PROC',TIME=4,REGION=4M                  JOB03555
           //*
           /*JOBPARM LINES=99,COPIES=1
           /*JOBPARM FORMS=3HOL,PFORMAT=LAND,CHARS=BD13,DUPLEX=YES,FLASH=BAR4
           //*
           /*JOBPARM NOTIFY=GG.SLP,HOLD=OUTPUT                                     WYLGEN
         2 //$$QUIET EXEC PGM=HCMDX,PARM='PUR * Q OUT MUL'
           //*
         3 //ASM    EXEC PGM=ASMA90,REGION=8M,
           //            PARM=('NORENT,TERM,FLAG(NOCONT),US(MAP,WARN(10)),NODECK',
           //            'LC(32767),XREF(SHORT),ESD,DXREF,NOOBJECT')
         4 //STEPLIB DD DSN=SYS3.IS.TESTASM,DISP=SHR
         5 //SYSLIB   DD  DSN=WYL.GS.WYL.WYLBUR.MACLIB,DISP=SHR
         6 //         DD  DSN=WYL.GG.SYS.MACLIB,DISP=SHR
         7 //         DD  DSN=SYS3.IS.MACLIB,DISP=SHR
         8 //         DD  DSN=SYS3.MACLIB,DISP=SHR
         9 //         DD  DSN=SYS1.MACLIB,DISP=SHR
        10 //         DD  DSN=SYS1.MODGEN,DISP=SHR
        11 //SYSUT1   DD DSN=&&SYSUT1,UNIT=VIO,DISP=(,DELETE),
           //            SPACE=(4088,(500,250),,CONTIG,ROUND)
        12 //SYSTERM  DD SYSOUT=T
        13 //SYSPRINT DD DSN=&&PRINT,UNIT=SYSDA,DISP=(,PASS),
           //            SPACE=(6650,(250,250),RLSE),
           //            DCB=(BLKSIZE=6650,LRECL=133,RECFM=FB)
        14 //SYSUDUMP DD SYSOUT=A
        15 //SYSIN    DD  DSN=WYL.GS.WYL.WYLBUR.SOURCE(PROC),DISP=SHR
           //*
        16 //EDIT    EXEC PGM=ASMEDIT,TIME=2,REGION=4000K,
           //             PARM='STMT'
        17 //STEPLIB  DD  DSN=WYL.GG.SYS.LINKLIB,DISP=SHR
        18 //ASMOUT   DD  DSN=&PRINT,DISP=(OLD,DELETE)
        19 //SYSPRINT DD  SYSOUT=A
1 STMT NO. MESSAGE
 -
        11 IGD01010I STORCLAS= TEMP STORGROUP =
        11 IGD01010I STORGRP=VIO ASSIGNED.
        13 IGD01010I STORCLAS= TEMP STORGROUP =
        13 IGD01010I STORGRP=VIO ASSIGNED.
 ICH70001I GG$SLP   LAST ACCESS AT 12:51:19 ON MONDAY, MARCH 15, 2004
 IEF142I WYL#PROC $$QUIET - STEP WAS EXECUTED - COND CODE 0000
 *********************************************************************************
 *   WYL#PROC/$$QUIET /                    Return Code      Zero                 *
 *   Region used      260K (16K user + 244K system)                              *
 *   Extended region  9464K (4K user + 9460K system)                             *
 *                                                                               *
 *   Paging              In      Out                                             *
 *   Private <-> Aux      0        0       CPU time (TCB)   00:00:00.01          *
 *   Private <-> Exp      0        0       CPU time (SRB)   00:00:00.00          *
 *   VIO                  0        0       Elapsed time    917:36:19.48          *
 *   Common               0      ---                                             *
 *                                                                               *
 *                                                                               *
 *   CPU Usage          0.18         $0.11  Standard Processing Unit Equivalent  *
 *                                   $0.11  Total Step execution charge          *
 *                                                                               *
 *    I/O count  DDname   Type Addr           I/O count  DDname   Type Addr      *
 *                         *** No I/O for this step ***                          *
 *********************************************************************************
 IEF373I STEP/$$QUIET /START 2004075.1251
 IEF374I STEP/$$QUIET /STOP  2004075.1251 CPU    0MIN 00.01SEC SRB    0MIN 00.00SEC VIRT    16K SYS   244K EXT       4K SYS    9460K
 IEF236I ALLOC. FOR WYL#PROC ASM
 IEF237I 04DC ALLOCATED TO STEPLIB
 IEF237I 04DC ALLOCATED TO SYSLIB
 IEF237I 04DC ALLOCATED TO
 IEF237I 04DC ALLOCATED TO
 IEF237I 0402 ALLOCATED TO
 IEF237I 04A0 ALLOCATED TO
 IEF237I 04A0 ALLOCATED TO
 IGD101I SMS ALLOCATED TO DDNAME (SYSUT1  )
         DSN (SYS04075.T125133.RA000.WYL#PROC.SYSUT1.H01  )
         STORCLAS (TEMP) MGMTCLAS (        ) DATACLAS (        )
         VOL SER NOS= VIO
 IEF237I JES2 ALLOCATED TO SYSTERM
 IGD101I SMS ALLOCATED TO DDNAME (SYSPRINT)
         DSN (SYS04075.T125133.RA000.WYL#PROC.PRINT.H01   )
         STORCLAS (TEMP) MGMTCLAS (        ) DATACLAS (        )
         VOL SER NOS= SCR101
 IEF237I JES2 ALLOCATED TO SYSUDUMP
 IEF237I 04DC ALLOCATED TO SYSIN
 IEF142I WYL#PROC ASM - STEP WAS EXECUTED - COND CODE 0000
 IEF285I   SYS3.IS.TESTASM                              KEPT
 IEF285I   VOL SER NOS= SYSB05.
 IEF285I   WYL.GS.WYL.WYLBUR.MACLIB                     KEPT
 IEF285I   VOL SER NOS= SYSB05.
 IEF285I   WYL.GG.SYS.MACLIB                            KEPT
 IEF285I   VOL SER NOS= SYSB05.
 IEF285I   SYS3.IS.MACLIB                               KEPT
 IEF285I   VOL SER NOS= SYSB05.
 IEF285I   SYS3.MACLIB                                  KEPT
 IEF285I   VOL SER NOS= SYSB02.
 IEF285I   SYS1.MACLIB                                  KEPT
 IEF285I   VOL SER NOS= MVSBR9.
 IEF285I   SYS1.MODGEN                                  KEPT
 IEF285I   VOL SER NOS= MVSBR9.
 IGD105I SYS04075.T125133.RA000.WYL#PROC.SYSUT1.H01   DELETED,   DDNAME=SYSUT1
 IEF285I   GG$SLP.WYL#PROC.JOB03555.D0000101.?          SYSOUT
 IGD106I SYS04075.T125133.RA000.WYL#PROC.PRINT.H01    PASSED,    DDNAME=SYSPRINT
 IEF285I   GG$SLP.WYL#PROC.JOB03555.D0000102.?          SYSOUT
 IEF285I   WYL.GS.WYL.WYLBUR.SOURCE                     KEPT
 IEF285I   VOL SER NOS= SYSB05.
 *********************************************************************************
 *   WYL#PROC/ASM     /                    Return Code      Zero                 *
 *   Region used      4376K (4096K user + 280K system)                           *
 *   Extended region  10088K (412K user + 9676K system)                          *
 *                                                                               *
 *   Paging              In      Out                                             *
 *   Private <-> Aux      0        0       CPU time (TCB)   00:00:14.47          *
 *   Private <-> Exp      0        0       CPU time (SRB)   00:00:00.08          *
 *   VIO                  0        0       Elapsed time    917:36:18.39          *
 *   Common               0      ---                                             *
 *                                                                               *
 *                                                                               *
 *   CPU Usage        271.31       $168.21  Standard Processing Unit Equivalent  *
 *                                 $168.21  Total Step execution charge          *
 *                                                                               *
 *    I/O count  DDname   Type Addr           I/O count  DDname   Type Addr      *
 *           89  STEPLIB  Disk 04DC                 381  SYSLIB   Disk 04DC      *
 *            0  SYSLIB   Disk 04DC                   0  SYSLIB   Disk 04DC      *
 *            4  SYSLIB   Disk 0402                  13  SYSLIB   Disk 04A0      *
 *            0  SYSLIB   Disk 04A0               1,958  SYSUT1   VIO  ----      *
 *            0  SYSTERM       ----                 740  SYSPRINT Disk 04E3      *
 *            0  SYSUDUMP      ----                  25  SYSIN    Disk 04DC      *
 *********************************************************************************
 IEF373I STEP/ASM     /START 2004075.1251
 IEF374I STEP/ASM     /STOP  2004075.1252 CPU    0MIN 14.47SEC SRB    0MIN 00.08SEC VIRT  4096K SYS   280K EXT     412K SYS    9676K
 IEF236I ALLOC. FOR WYL#PROC EDIT
 IEF237I 0402 ALLOCATED TO STEPLIB
 IGD103I SMS ALLOCATED TO DDNAME ASMOUT
 IEF237I JES2 ALLOCATED TO SYSPRINT
 IEF142I WYL#PROC EDIT - STEP WAS EXECUTED - COND CODE 0000
 IEF285I   WYL.GG.SYS.LINKLIB                           KEPT
 IEF285I   VOL SER NOS= SYSB02.
 IGD105I SYS04075.T125133.RA000.WYL#PROC.PRINT.H01    DELETED,   DDNAME=ASMOUT
 IEF285I   GG$SLP.WYL#PROC.JOB03555.D0000103.?          SYSOUT
 *********************************************************************************
 *   WYL#PROC/EDIT    /                    Return Code      Zero                 *
 *   Region used      380K (116K user + 264K system)                             *
 *   Extended region  9592K (4K user + 9588K system)                             *
 *                                                                               *
 *   Paging              In      Out                                             *
 *   Private <-> Aux      0        0       CPU time (TCB)   00:00:02.19          *
 *   Private <-> Exp      0        0       CPU time (SRB)   00:00:00.06          *
 *   VIO                  0        0       Elapsed time    917:35:39.00          *
 *   Common               0      ---                                             *
 *                                                                               *
 *                                                                               *
 *   CPU Usage         41.06        $25.45  Standard Processing Unit Equivalent  *
 *                                  $25.45  Total Step execution charge          *
 *                                                                               *
 *    I/O count  DDname   Type Addr           I/O count  DDname   Type Addr      *
 *            2  STEPLIB  Disk 0402                 741  ASMOUT   Disk 04E3      *
 *            0  SYSPRINT      ----                                              *
 *********************************************************************************
 IEF373I STEP/EDIT    /START 2004075.1252
 IEF374I STEP/EDIT    /STOP  2004075.1252 CPU    0MIN 02.19SEC SRB    0MIN 00.06SEC VIRT   116K SYS   264K EXT       4K SYS    9588K
 *********************************************************************************
 *                                                                               *
 *                      S t a n f o r d   U n i v e r s i t y                    *
 *                                                                               *
 *                              *** Job Summary ***                              *
 *                                                                               *
 *   System Id      SYSB                   Input time     12:39:24  Mar 15, 2004 *
 *                                                                               *
 *   System Release SP6.1.0                Start time     12:51:33  Mar 15, 2004 *
 *                                                                               *
 *   Job name       WYL#PROC               Stop  time     00:00:00  Mar 15, 2004 *
 *                                                                               *
 *   Account        SLP$GG                 Elapsed time  917:36:19.48            *
 *                                                                               *
 *   User Name      Assemble PROC          CPU time       00:00:16.67            *
 *                                                                               *
 *   Job class      B                      SRB Time       00:00:00.14            *
 *                                                                               *
 *********************************************************************************
 IEF375I  JOB/WYL#PROC/START 2004075.1251
 IEF376I  JOB/WYL#PROC/STOP  2004075.1252 CPU    0MIN 16.67SEC SRB    0MIN 00.14SEC
1Assembler Done PROC No Statements Flagged
1         High Level Assembler Option Summary                   (PTF P72483 )                                               Page    1
-                                                                                            HLASM R4.0  2004/03/15 12.51
0  No Overriding ASMAOPT Parameters
   Overriding Parameters-  NORENT,TERM,FLAG(NOCONT),US(MAP,WARN(10)),NODECK,LC(32767),XREF(SHORT),ESD,DXREF,NOOBJECT
   No Process Statements


   Options for this Assembly
0  NOADATA
     ALIGN
   NOASA
     BATCH
     CODEPAGE(047C)
   NOCOMPAT
   NODBCS
 3 NODECK
 3   DXREF
 3   ESD
   NOEXIT
 3   FLAG(0,ALIGN,NOCONT,NOIMPLEN,NOPAGE0,PUSH,RECORD,NOSUBSTR,USING0)
   NOFOLD
   NOGOFF
   NOINFO
     LANGUAGE(EN)
   NOLIBMAC
 3   LINECOUNT(32767)
     LIST(121)
     MXREF(SOURCE)
 3 NOOBJECT
     OPTABLE(UNI,NOLIST)
   NOPCONTROL
   NOPESTOP
   NOPROFILE
   NORA2
 3 NORENT
     RLD
     RXREF
     SIZE(MAX)
     SYSPARM()
 3   TERM(WIDE)
   NOTEST
     THREAD
   NOTRANSLATE
 3   USING(NOLIMIT,MAP,WARN(10))
 3   XREF(SHORT)

   No Overriding DD Names

1PROC     External Symbol Dictionary                                                                                        Page    2
-Symbol   Type   Id     Address  Length     LD ID  Flags Alias-of                            HLASM R4.0  2004/03/15 12.51
0WYLPROC   SD 00000001 00000000 0000B6D0             00
 PROC2193  LD          00000000           00000001
 SYSPINFO  LD          00000018           00000001
 INITPROC  LD          00000038           00000001
 GETPROCP  LD          0000008C           00000001
 GETCORE   ER 00000002
 BSINIT    ER 00000003
 BSEARCH   ER 00000004
 MALL      ER 00000005
 COLLPSH   ER 00000006
 SETARGS   ER 00000007
 MAKELTOD  ER 00000008
 MAKEITOD  ER 00000009
 NSCAN     ER 0000000A
 SCANCHK   ER 0000000B
 SEGINIT   ER 0000000C
 CVEXNO    ER 0000000D
 SEG       ER 0000000E
 SEGDC     ER 0000000F
 ENDLNO    ER 00000010
 SEGCR     ER 00000011
 BADARG    ER 00000012
 GTFRST    ER 00000013
 SAMDIALG  ER 00000014
 LRTRIM    ER 00000015
 KEYDEL    ER 00000016
 KEYGET    ER 00000017
 LOCALTOD  ER 00000018
 KEYADD    ER 00000019
 KEYPUT    ER 0000001A
 VSTRING   ER 0000001B
 SAVEVAR   ER 0000001C
 MARKHEAP  ER 0000001D
 GETHEAP   ER 0000001E
 RELHEAP   ER 0000001F
 GETARRAY  ER 00000020
 PTAPPEND  ER 00000021
 GTLINE    ER 00000022
 GTLAST    ER 00000023
 GTNEXT    ER 00000024
 GTPREV    ER 00000025
 PTLINE    ER 00000026
 PCLFROMC  LD          0000309E           00000001
 PCLTOC    LD          000031C4           00000001
 LTSEG     LD          00003324           00000001
 PATHGET   ER 00000027
 PATHREAD  ER 00000028
 GTINTVAL  ER 00000029
 PUTLINE   ER 0000002A
 SEGINITR  ER 0000002B
 NDETRNG   ER 0000002C
 RDRNG     ER 0000002D
 SEGWR     ER 0000002E
 BTDZEROS  ER 0000002F
 SEGMARK   ER 00000030
1PROC     External Symbol Dictionary                                                                                        Page    3
 PATHWRIT  ER 00000031
 XSETSET   ER 00000032
 XDELSET   ER 00000033
 XGETFRST  ER 00000034
 XGETNEXT  ER 00000035
 SEGTB     ER 00000036
 XGETLAST  ER 00000037
 DTB       ER 00000038
 BTD       ER 00000039
 XPUT      ER 0000003A
 GETLINE   ER 0000003B
 SEGCOL    ER 0000003C
 SQSHRTN   ER 0000003D
 SEGT      ER 0000003E
 MTOKEN    ER 0000003F
 MPINT     ER 00000040
 MPLNO     ER 00000041
 NPATGET   ER 00000042
 NPATCTRL  ER 00000043
 NPATCLS   ER 00000044
 NSCANSTR  ER 00000045
 MPARM     ER 00000046
 NPATALLO  ER 00000047
 NPATOPEN  ER 00000048
 NPATREAD  ER 00000049
 SCDQUOTE  ER 0000004A
 NPATTALK  ER 0000004B
 XTB       ER 0000004C
 NPATVIEW  ER 0000004D
 RTRIM     ER 0000004E
 SEGCLR    ER 0000004F
 MNULL     ER 00000050
 PATHCLS   ER 00000051
 PATHINFO  ER 00000052
 PATHALLO  ER 00000053
 PATHOPEN  ER 00000054
 PATHRDCK  ER 00000055
 PATHSEG   ER 00000056
 QFETLINE  ER 00000057
 SCANSTR   ER 00000058
 SCANPARM  ER 00000059
 BTR       ER 0000005A
 GETUID    ER 0000005B
 VIEWXCMD  ER 0000005C
 ROWGET    ER 0000005D
 ROWPUT    ER 0000005E
 WINDGET   ER 0000005F
 WINDPUT   ER 00000060
 QSERVSEG  ER 00000061
 XSCANSTR  ER 00000062

1PROC     WYLBUR System Procedures                                                                                          Page    4
0Loc    Object Code    Addr1 Addr2  Stmt Lv Lineno    Source Statement                    (Asmedit 3.3)  HLASM R4.0  2004/03/15 12.51
+___    ______ ____    _____ _____  ____ __ ______    ______ _________
0                                      2              *******************************************************************
                                       3              *                                                                 *
                                       4              *     WYLBUR/370 - Release VI - Class I - Stanford Proprietary    *
                                       5              *                                                                 *
                                       6              *******************************************************************
                                       7                       HIBAL
                                     988
-
-
-
0                                    990              *******************************************************************
                                     991              *                                                                 *
                                     992              *                **** ATTENTION !!!! ****                         *
                                     993              *                **** ATTENTION !!!! ****                         *
                                     994              *                **** ATTENTION !!!! ****                         *
                                     995              *                                                                 *
                                     996              *       SEE COMMENTS ON NEXT PAGE BEFORE ADDING SYSTEM            *
                                     997              *       PROCEDURES !!!!                                           *
                                     998              *                                                                 *
                                     999              *******************************************************************
1PROC     WYLBUR System Procedures                                                                                          Page    5
0D-Loc  Object Code    Addr1 Addr2  Stmt Lv Lineno    Source Statement           (Hibal 5, Asmedit 3.3)  HLASM R4.0  2004/03/15 12.51
+_____  ______ ____    _____ _____  ____ __ ______    ______ _________
0                                   1001              * LAST UPDATE 7/86
                                    1002              *******************************************************************
                                    1003              **                                                             ****
                                    1004              **                                                              ***
                                    1005              **      HOW TO ADD A SYSTEM PROCEDURE !                          **
                                    1006              ***     ---------------------------------                        **
                                    1007              *****                                                            **
                                    1008              *******************************************************************
                                    1009              *
                                    1010              *  PROCEDURE TO ADD PROCEDURE:
                                    1011              *
                                    1012              *  1. ADD A ENTRY INTO THE SYSTEM PROCEDURE TABLE.
                                    1013              *
                                    1014              *       THIS TABLE (SYSPROCS) IS SEARCHED TO FIND THE ADDRESS
                                    1015              *       OF THE ROUTINE FOR THE SPECIFIED PROCEDURE.
                                    1016              *       PROC.  THE ENTRIES MUST APPEAR IN ALPHABETICAL ORDER.
                                    1017              *       USE THE 'SYSPROC' MACRO TO CREATE A PROPERLY FORMATED
                                    1018              *       ENTRY.
                                    1019              *
                                    1020              *  2. ADD A SYSTEM VARIABLE/PROCEDURE ROUTINE.
                                    1021              *
                                    1022              *       SYSTEM PROCEDURE ROUTINES ARE FOUND AFTER THE
                                    1023              *       SYSTEM PROCEDURE TABLE. THE ROUTINES SHOULD BE
                                    1024              *       PLACED IN ALPHABETICAL ORDER BASED ON THE PROCEDURE
                                    1025              *       KEYWORD.  WORK AND COMMON ROUTINES SHOULD BE PLACED
                                    1026              *       IN ALPHABETICAL ORDER IN THE COMMON/WORK ROUTINES
                                    1027              *       AREA.  THE BASIC ENTRY AND EXIT CONVENTIONS FOR THE
                                    1028              *       SYSTEM PROCEDURE ROUTINES ARE:
                                    1029              *
                                    1030              *       ON ENTRY:
                                    1031              *            R0 - VARIABLE COUNT
                                    1032              *            R1 - ARGUMENT LIST
                                    1033              *            R6 - PROCEDURE VARIABLE RETURN AREA
                                    1034              *                 (AREA WILL INITIALY CONTAINS PROCEDURE NAME)
                                    1035              *
                                    1036              *       ON EXIT:
                                    1037              *            R6 - RETURNED VALUES AREA (SAME AS ON ENTRY)
                                    1038              *           R15 - CC=ZERO, ALL OK
                                    1039              *                 CC=NZ, IF ERROR,,, ERROR MSG TSEG 'D
                                    1040              *
                                    1041              *       THE FORMAT OF THE ARGUMENTS PASSED AND RETURNED IS
                                    1042              *       DESCRIBED BY THE VNENTRY DSECT.  EACH ARGUMENT OCCUPIES
                                    1043              *       A FIXED LENGTH (L'VPARM) ENTRY. THUS EACH INPUT
                                    1044              *       ARGUMENT (IF ANY) CAN BE EASILY FOUND AT A FIXED OFFSET
                                    1045              *       BASED OFF OF R1.   RETURN VALUES ARE BASED OFF OF R6.
                                    1046              *
                                    1047              *       SEVERAL MACROS EXIST TO MAKE THE ADDITION OF ROUTINES
                                    1048              *       EASIER.  TO USE THESE MACROS CERTAIN ADDITIONAL
                                    1049              *       CONVENTIONS MUST BE ADHERED TO.  THESE CONVENTIONS AND
                                    1050              *       THE MACROS ARE DESCRIBED NOW:
                                    1051              *
                                    1052              *   *** AN 'XENTER R0,R8,...' AND AN 'XEXIT R0,R8,LTR ' MUST
                                    1053              *       BE USED TO ENTER AND EXIT THE ROUTINE.
                                    1054              *
                                    1055              *   *** IF THE ROUTINE IS SUCCESSFUL R15 MUST BE RETURNED
                                    1056              *       EQUAL TO ZERO.  IF NOT R15 MUST BE RETURNED AS NON-ZERO
1PROC     WYLBUR System Procedures                                                                                          Page    6
0D-Loc  Object Code    Addr1 Addr2  Stmt Lv Lineno    Source Statement           (Hibal 5, Asmedit 3.3)  HLASM R4.0  2004/03/15 12.51
+_____  ______ ____    _____ _____  ____ __ ______    ______ _________
0                                   1057              *       (4).  ALSO AN APPROPRIATE ERROR MESSAGE MUST BE TSEG'D.
                                    1058              *       DO NOT EXIT VIA CVNEXT OR CVERROR.
                                    1059              *
                                    1060              *   *** THE 'SETARGS' MACRO.
                                    1061              *
                                    1062              *       TO CHECK ENTRY ARGUMENTS, THE 'SETARGS' MACRO IS
                                    1063              *       PROVIDED.  IT TAKES A SINGLE STRING AS A PARAMETER.
                                    1064              *       THE FIRST TWO CHARACTERS OF THIS STRING DEFINE THE
                                    1065              *       MAXIMUM AND MINIMUM NUMBER OF ARGUMENTS THAT THE
                                    1066              *       ROUTINE WILL TAKE.  THE REMAINING CHARACTERS DESCRIBE
                                    1067              *       THE FORMAT THAT THESE ARGUMENTS SHOULD BE CONVERTED TO:
                                    1068              *       S=STRING, I=INTEGER, W=LINE NUMBER, X=DON'T CARE.  FOR
                                    1069              *       AN EXAMPLE SEE THE 'EXAMPLE' ROUTINE.  NOTE THAT THE
                                    1070              *       'SETARGS' MACRO CALLS A SETARGS ROUTINE.  THIS ROUTINE
                                    1071              *       ASSUMES THAT R0,R1 AND R6 ARE THE SAME AS WHEN THE
                                    1072              *       SYSTEM PROCEDURE ROUTINE WAS CALLED.  'SETARGS' ALSO
                                    1073              *       WILL GIVE A NON-ZERO RETURN CODE AND TSEG A ERROR
                                    1074              *       MESSAGE IF THE ARGUMENTS CANNOT BE CONVERTED TO THE
                                    1075              *       REQUIRED FORMAT. THE 'SETARGS' MACRO DOES NOT HANDLE
                                    1076              *       'ARRAYS' OR 'PACKED' NUMBERS.
                                    1077              *
                                    1078              *   *** THE 'BADARG' MACRO
                                    1079              *
                                    1080              *       AN 'INVALID ARGUMENT' MESSAGE IS GENERATED BY THE
                                    1081              *       'BADARG' MACRO.  THE MACRO TAKES A SINGLE
                                    1082              *       NUMBER AS A PARAMETER.  THIS NUMBER IS THE NUMBER OF
                                    1083              *       THE INVALID ARGUMENT.  THIS MACRO REQUIRES THAT R6 AND
                                    1084              *       THE AREA POINTED TO BY R6 BE THE SAME AS WHEN THE
                                    1085              *       SYSTEM PROCEDURE ROUTINE WAS ENTERED.
                                    1086              *
                                    1087              *   *** THE 'PRETVAL' MACRO
                                    1088              *
                                    1089              *       THE 'PRETVAL' MACRO IS USED TO RETURN VALUES TO A
                                    1090              *       PROCEDURE. IT TAKES 3-4 PARAMETERS.  THE FIRST PARM IS
                                    1091              *       THE NUMBER OF THE PARAMETER TO RETURN.  THE SECOND IS
                                    1092              *       THE TYPE OF VALUE TO RETURN.  THIS MAY BE STRING,
                                    1093              *       INTEGER, LINENO, OR BOOLEAN.  ARRAYS AND PACKED NUMBERS
                                    1094              *       MAY NOT BE RETURNED WITH THIS MACRO.  ARGUMENTS 3-4 ARE
                                    1095              *       THE VALUE OF THE PARAMETER. IF THE TYPE IS A STRING:
                                    1096              *       ARGS 3-4 ARE THE STRING LOC, LENGTH; A QUOTED STRING
                                    1097              *       MAY BE RETURNED, THE CONVENTIONS FOR RETURNING A STRING
                                    1098              *       ARE THE SAME AS FOR THE 'MSG' MACRO.  IF THE TYPE IS
                                    1099              *       INTEGER OR LINENO: THE THIRD PARAMETER IS A FULLWORD
                                    1100              *       VALUE.  IF THE TYPE IS BOOLEAN: THE THIRD PARAMTER IS
                                    1101              *       THE WORD 'TRUE' OR THE WORD 'FALSE'.  THIS MACRO
                                    1102              *       REQUIRES THAT R6 BE THE SAME AS WHEN THE SYSTEM
                                    1103              *       VAR/PROC. ROUTINE WAS ENTERED.  FOR EXAMPLES, SEE THE
                                    1104              *       'EXAMPLE' ROUTINE.  OTHER EXAMPLES ARE:
                                    1105              *              PRETVAL 1,STRING,'THIS IS IT'
                                    1106              *              PRETVAL 3,BOOLEAN,TRUE
                                    1107              *              PRETVAL 4,LINENO,L:RETLNO
                                    1108              *       HEY DUDE !! THE PRETVAL MACRO CLOBBERS R15,R0,R1,R2 SO
                                    1109              *       BE CAREFULL.  R15 IS SET TO ZERO AT THE END OF THE
                                    1110              *       PRETVAL MACRO.
                                    1111              *
                                    1112              *   *** THE 'PTRIM' MACRO
1PROC     WYLBUR System Procedures                                                                                          Page    7
0D-Loc  Object Code    Addr1 Addr2  Stmt Lv Lineno    Source Statement           (Hibal 5, Asmedit 3.3)  HLASM R4.0  2004/03/15 12.51
+_____  ______ ____    _____ _____  ____ __ ______    ______ _________
0                                   1113              *
                                    1114              *       THE 'PTRIM' MACRO IS USED TO TRIM TRAILING BLANKS OFF
                                    1115              *       THE END OF RETURNED STINGS.  IT WILL ALSO SET BLANK OR
                                    1116              *       ZEROED STRINGS TO NULL STRINGS.  IT REQUIRES THAT R6 BE
                                    1117              *       THE SAME AS WHEN THE SYSTEM PROCEDURE ROUTINE WAS
                                    1118              *       ENTERED.  IT IS GENERALLY CODED DIRECTLY FOLLOWING THE
                                    1119              *       'PRETVAL STRING,..' MACRO.  THIS MACRO DESTROYS R15-R2.
                                    1120              *       THERE IS NO EXAMPLE,,, SEE 'VTRIM' IN FUNC.
                                    1121              *
                                    1122              *   *** GENERAL ARGUMENT LOADING/CHECKING PROCEDURES
                                    1123              *
                                    1124              *       ARGUMENTS PASSED TO A ROUTINE ARE GENERALLY CHECKED FOR
                                    1125              *       VALIDITY AT THE VERY BEGINING OF THE ROUTINE WITH THE
                                    1126              *       'SETARGS' MACRO.  THE ARGUMENTS ARE THEN LOADED AND
                                    1127              *       CHECKED (WHILE THE ENTRY REGS ARE STILL SET UP)
                                    1128              *       GENERALLY AS FOLLOWS:  (THIS IS AN EXAMPLE ONLY, OH
                                    1129              *       YEAH:)
                                    1130              *
                                    1131              *       PROCXXX  XENTER R0,R8,L'XXWA,LOCAL ENTER ROUTINE
                                    1132              *                ST     R0,XXPRMCNT        SAVE PARM COUNT
                                    1133              *                ST     R6,XXRETPTR        SAVE RETURN AREA POINTER
                                    1134              *        *
                                    1135              *                COMMENT                   GET INPUT PARMS
                                    1136              *                SETARGS '22SI'            2 ARGS: STRING, INTEGER
                                    1137              *                IF    Z,BEGIN             IF ARGS OK,...
                                    1138              *                USING VNENTRY,R5
                                    1139              *                LA    R5,ARG1(R1)         R5 - 1ST ARG POINTER
                                    1140              *                LA    R2,VNSTRLOC         R2 - LOC OF STRING
                                    1141              *                LH    R3,VNSTRLEN         R3 - LEN OF STRING
                                    1142              *                IF    (R3,GT,120),BEGIN
                                    1143              *                BADARG 1                  PRETEND CHECK FOR STR LEN
                                    1144              *                EXIT  PROCXXX
                                    1145              *                END
                                    1146              *                LA    R5,ARG2(R1)         R5 - 2ND ARG POINTER
                                    1147              *                L     R4,VNVALUE          R4 - INTEGER VALUE
                                    1148              *                IF    ((R4,NEG),OR,(R4,GT,120)),BEGIN
                                    1149              *                BADARG 2                  PRETEND CHECK FOR ARG 2
                                    1150              *                EXIT  PROCXXX
                                    1151              *                END
                                    1152              *                ..... AND SO ON
                                    1153              *
                                    1154              *
                                    1155              *                ... END OF ROUTNE, XEXIT ...
                                    1156              *
                                    1157              *
                                    1158              *   *** RETURNING PROCEDURE VALUES,,,
                                    1159              *
                                    1160              *       THE EASY WAY IS WITH THE 'PRETVAL MACRO', BUT THERE ARE
                                    1161              *       OTHER WAYS.  YOU MAY SET UP YOUR OWN RETURN VALUE @R6.
                                    1162              *       SEE VNENTRY DSECT. THE AREA MUST BE CLEARED.  FLAGS
                                    1163              *       MUST BE SET FOR THE VARIABLE TYPE:  STRING, BOOLEAN,
                                    1164              *       NUMBER.  THE VARIABLE VALUE MUST BE SET.  THERE ARE NO
                                    1165              *       EXAMPLES IN PROC, SEE 'FNPI' IN FUNC.  IF YOU WANT TO
                                    1166              *       DEAL WITH ARRAYS (IF THEY EXIST),,, GOOD LUCK HASBRO !!
                                    1167              *       A SAMPLE EXAMPLE, OR AN EXAMPLE OF A SAMPLE:
                                    1168              *
1PROC     WYLBUR System Procedures                                                                                          Page    8
0D-Loc  Object Code    Addr1 Addr2  Stmt Lv Lineno    Source Statement           (Hibal 5, Asmedit 3.3)  HLASM R4.0  2004/03/15 12.51
+_____  ______ ____    _____ _____  ____ __ ______    ______ _________
0                                   1169              *        ...   COMMENT                   RETURN PARMS
                                    1170              *              L     R6,XXRETPTR         LOAD RETURN AREA PTR
                                    1171              *              ST    R2,XXLINENO
                                    1172              *              PRETVAL 1,STRING,(R1),(R0)   RETURN A STRING
                                    1173              *              PRETVAL 2,LINENO,L:XXLINENO  RETURN A LINENO
                                    1174              *              PRETVAL 3,STRING,'OK'        ALL OK
                                    1175              *              CLEAR   R15               ALL OK
                                    1176              *              XEXIT   R0,R8,LTR         RETURN
                                    1177              *         ...
                                    1178              *        NOTE IN THIS EXAMPLE, XXRETPTR AND XXLINENO ARE ASSUMED
                                    1179              *        TO BE STORAGE IN THE PROCEDURES LOCAL WORK AREA.
                                    1180              *
                                    1181              *   *** FINAL ADVICE
                                    1182              *
                                    1183              *       THIS MODULE ADHERES TO SEVERAL CONVENTIONS.  IF YOU
                                    1184              *       ADHERE TO THESE CONVENTIONS, IT WILL MAKE IT EASIER FOR
                                    1185              *       YOU AND ANY OTHERS WHO MAY WANT TO ADD SYSTEM PROCEDURES
                                    1186              *       TO ADD THEM. IT IS WORTH IT TO TAKE A BIT OF TIME AND
                                    1187              *       LOOK AT HOW SEVERAL EXITING SYSTEM PROCEDURE ROUTINES
                                    1188              *       CODED.
                                    1189              *
                                    1190              *   *** SOME DOCUMENTATION
                                    1191              *
                                    1192              *        ON ENTRY:
                                    1193              *             R0 - VARIABLE COUNT
                                    1194              *             R1 - ARGUMENT LIST
                                    1195              *             R6 - PROCEDURE RETURN AREA
                                    1196              *                  (AREA WILL INITIALY CONTAIN PROCEDURE NAME)
                                    1197              *
                                    1198              *
                                    1199              *        ON EXIT:
                                    1200              *             R6 - RETURNED VALUES (SAME AS ON ENTRY)
                                    1201              *            R15 - CC=ZERO, ALL OK
                                    1202              *                  CC=NZ, IF ERROR,,, ERROR MSG TSEG 'D
                                    1203              *
                                    1204              *        ARG1     EQU   0*L'VPARM           USUALLY @R1
                                    1205              *        ARG2     EQU   1*L'VPARM
                                    1206              *        ARG3     EQU   2*L'VPARM
                                    1207              *        ARG4     EQU   3*L'VPARM
                                    1208              *        ARG5     EQU   4*L'VPARM
                                    1209              *        ARG6     EQU   5*L'VPARM
                                    1210              *
                                    1211              *        FNRET    EQU   0*L'VPARM           USUALLY @R6
                                    1212              *
                                    1213              *
                                    1214              *        FNWA     RECORD BEGIN ,            GENERALIZED WORK AREA !
                                    1215              *                 XSA   R0,R8
                                    1216              *        FNWORK   DS    XL(L'VPARM)         256+ BYTE WORK AREA
                                    1217              *                 END
                                    1218              *        ******************** OH YEAH !!
1PROC     WYLBUR System Procedures                                                                                          Page    9
0D-Loc  Object Code    Addr1 Addr2  Stmt Lv Lineno    Source Statement           (Hibal 5, Asmedit 3.3)  HLASM R4.0  2004/03/15 12.51
+_____  ______ ____    _____ _____  ____ __ ______    ______ _________
0000000                00000 0B6D0  1220              WYLPROC  CSECT
                                    1224                       REGS  FSR,,,,,,,BR,(WAR,LSR),PAR,PBR,CPR,CVR,SPR,RAR
                                    1360
                                    1361              PROC     IDENT 2193                15:11:48 07/12/02  (SLP)
                                    1364             +
                                    1365    01-IDENT +         ENTRY PROC2193
                                    1366             +
 000000 16D7D9D6C3F2F1F9            1367    01-IDENT +PROC2193 DC    AL1(22),C'PROC2193,15MAR04,12:51'
                                    1368             +*
                                    1370              *
                                    1371                       SYSDEFN ,                 Define installation values
                                    1372
                                    1373                       PUSH  DSECTS
 USING  CP,R11                      1385             =         USING (CP),(CV)
 USING  CV,R12
 000017                00000 0B6D0  1404             =         POP   PRINT
 000017                00000 0B6D0  7208              WYLPROC  CSECT
1PROC     (PROC2193) (12:51) (15MAR04) DSECTS                                                                               Page   10
0Current Usings:  (CP,R11) (CV,R12)
0Loc    Object Code    Addr1 Addr2  Stmt Lv Lineno    Source Statement           (Hibal 5, Asmedit 3.3)  HLASM R4.0  2004/03/15 12.51
+___    ______ ____    _____ _____  ____ __ ______    ______ _________
0000000                00000 000B0  7211              UPATH    RECORD BEGIN
                                    7219  1           UPAT       UPATH
                                    7220+ 1          +¿þþþþþþþþþþþþþþþþþþþþþþþþþþþþþþþþþþþþþþþþþþþþþþþþþþþþþþþþþþþþþþþþþþþþþÜ
                                    7221+ 1          +Ÿ                                                                     Ÿ
                                    7222+ 1          +Ÿ    User Path control block.                                         Ÿ
                                    7223+ 1          +Ÿ                                                                     Ÿ
                                          1           ¾þþþþþþþþþþþþþþþþþþþþþþþþþþþþþþþþþþþþþþþþþþþþþþþþþþþþþþþþþþþþþþþþþþþþþ»
0000000                             7224  1 01-UPATH +           DS    0F
 000000 D7C1E3C8                    7225  1 01-UPATH +           DC    CL4'PATH'
 000004 00000000                    7226  1 01-UPATH +UPATPNO    DC    F'0'                Path number
 000008 00000000                    7227  1 01-UPATH +UPATJCBP   DC    A(0)                Owner's JCB ptr
 00000C 00000000                    7228  1 01-UPATH +UPATLINK   DC    A(0)                Next UPATH on waiting queue
                                    7229  1          +
 000010 00000000                    7230  1 01-UPATH +UPATWRQH   DC    A(0)                Pending write queue head
 000014 00000000                    7231  1 01-UPATH +UPATWRQT   DC    A(0)                Pending write queue tail
 000018 00                          7232  1          +*
 UPATFLG1.UPATFGLO 80 ONES
 UPATFLG1.UPATFNOW 40 ONES
 UPATFLG1.UPATFOPE 20 ONES
 UPATFLG1.UPATFINT 10 ONES
 UPATFLG1.UPATFHDR 08 ONES
 UPATFLG1.UPATFNOF 04 ONES
                                    7267  1          +*
 00001C                             7268  1 01-UPATH +UPATRC     DS    F                   Return code
 000020                             7269  1 01-UPATH +UPATRCMP   DS    2A                  Return code message ptrs
                                    7270  1          +
 000028 00000000                    7271  1 01-UPATH +UPATWAIT   DC    F'0'                Max no of secs to wait (0=nolim)
                                    7272  1          +
 00002C 00000000                    7273  1 01-UPATH +UPATDLOC   DC    A(0)                Remaining data location
 000030 00000000                    7274  1 01-UPATH +UPATDLEN   DC    A(0)                Remaining data length
                                    7275  1          +
 000034 00000000                    7276  1 01-UPATH +UPATXCLK   DC    F'0'                TOD Clock at timeout
                                    7277  1          +
 000038 00000000                    7278  1 01-UPATH +UPATPASC   DC    F'0'                Partner's ASCB ptr
 00003C 0000                        7279  1 01-UPATH +UPATPLNO   DC    H'0'                Partner's line number
 00003E 0000000000000000            7280  1 01-UPATH +UPATPJOB   DC    XL8'00'             Partner's jobname
 000046 0000000000000000            7281  1 01-UPATH +UPATPACT   DC    XL8'00'             Partner's account
 00004E 0000000000000000            7282  1 01-UPATH +UPATPNAM   DC    XL20'00'            Partner's user name
 000062 0000000000000000            7283  1 01-UPATH +UPATPTAG   DC    XL16'00'            Partner's session tag
                                    7284  1          +
 000072 0000                              1          +
 000074                             7286  1 02-PATH  +UPAT       DC    0F'0'
 000074 00000000                    7288  1 03-DEFIN +UPATMGC    DC    AL4(0)
 000078 00000000                    7290  1 03-DEFIN +UPATDJNM   DC    AL4(0)
 00007C D4E8E3C1C7404040            7292  1 03-DEFIN +UPATMY     DC    CL8'MYTAG'
 000084 FFFFFFFFFFFFFFFF            7294  1 03-DEFIN +UPATYOU    DC    XL8'FFFFFFFFFFFFFFFF'
 00008C 80                          7296  1 03-DEFIN +UPATMFL    DC    AL1(1*X'80'+0*X'40'+0*X'20')
                                    7297  1          +
                                    7298  1 02-PATH  +UPATVER2    EQU  X'80'         CALLER IS USING VERSION 2
                                    7299  1 02-PATH  +UPATMCTL    EQU  X'40'         CALLER ASKS TERMINATION CONTROL
                                    7300  1 02-PATH  +UPATMNAM    EQU  X'20'         CALLER PROVIDES CALLEE NAME
                                    7301  1 02-PATH  +UPATMDP1    EQU  X'10'         DUPLICATE TAGS FOUND: MY=PCBO, YOU=PCBA
                                    7302  1 02-PATH  +UPATMDP2    EQU  X'08'         DUPLICATE TAGS FOUND: MY=PCBA, YOU=PCBO
1PROC     (PROC2193) (12:51) (15MAR04) DSECTS                                                                               Page   11
0Current Usings:  (CP,R11) (CV,R12)
0Loc    Object Code    Addr1 Addr2  Stmt Lv Lineno    Source Statement           (Hibal 5, Asmedit 3.3)  HLASM R4.0  2004/03/15 12.51
+___    ______ ____    _____ _____  ____ __ ______    ______ _________
0                                   7303  1          +
 00008D 000000                      7305  1 03-DEFIN +UPATOECB   DC    AL3(0)
 000090 00004000                    7307  1 03-DEFIN +UPATBUF    DC    AL4(16384)
 000094 000000AC                    7309  1 03-DEFIN +UPATECBF   DC    AL4(UPATSFLG)
                                    7310  1          +
                                    7311  1 02-PATH  +UPATFCLS    EQU   X'80'         I AM POSTED BECAUSE HE CLOSED
                                    7312  1 02-PATH  +UPATFFQE    EQU   X'40'         I AM POSTED BECAUSE HIS FULL Q EMPTIED
                                    7313  1 02-PATH  +UPATFNI     EQU   X'20'         I AM POSTED BECAUSE NEW INFO IN MY Q
                                    7314  1 02-PATH  +UPATFDP     EQU   X'10'         I AM POSTED AT HIS DISCRETION
                                    7315  1 02-PATH  +UPATFOPN    EQU   X'08'         I AM POSTED BECAUSE HE OPENED
                                    7316  1 02-PATH  +UPATFCLC    EQU   X'04'         I AM POSTED BECAUSE MY CLOSE IS COMPLETE
                                    7317  1          +
 000098 D7D9D6C4                    7319  1 03-DEFIN +UPATPASS   DC    CL4'PROD'
 00009C 00000000                    7321  1 03-DEFIN +UPATECB    DC    AL4(*-*)
 0000A0 00000000                    7323  1 03-DEFIN +UPATEXIT   DC    AL4(0)
 0000A4 00000000                    7325  1 03-DEFIN +UPATPINP   DC    XL4'0'
 0000A8 00000000                    7327  1 03-DEFIN +UPATRESV   DC    XL4'0'
                                    7328  1          +*
                                    7329  1          +*  VERSION 2 RETURN CODES
                                    7330  1          +*
                                    7331  1 02-PATH  +UPATROK     EQU  0                       COMPLETE OK
                                    7332  1 02-PATH  +UPATRIFC    EQU  4                       INVALID FUNCTION CODE
                                    7333  1 02-PATH  +UPATRPMW    EQU  8                       INVALID PATH MAGIC WORD
                                    7334  1 02-PATH  +UPATRBAF    EQU  12                      PARTNER'S BUFFER AREA FULL
                                    7335  1 02-PATH  +UPATRNOP    EQU  16                      PARTNER NOT THERE
                                    7336  1 02-PATH  +UPATRBOM    EQU  20                      BUFFER OVER PARTNER'S MAXIMUM
                                    7337  1 02-PATH  +UPATRIBS    EQU  24                      RECEIVE BUFFER TOO SMALL
                                    7338  1 02-PATH  +UPATRBPI    EQU  28                      INVALID BUFFER POINTER
                                    7339  1 02-PATH  +UPATRIAD    EQU  32                      INVALID ADDRESS
                                    7340  1 02-PATH  +UPATRES1    EQU  36                      RESERVED
                                    7341  1 02-PATH  +UPATRES2    EQU  40                      RESERVED
                                    7342  1 02-PATH  +UPATRES3    EQU  44                      RESERVED
                                    7343  1 02-PATH  +UPATRES4    EQU  48                      RESERVED
                                    7344  1          +
                                    7345  1 02-PATH  +UPATSIZE    EQU  *-UPAT        LENGTH OF PATH BLOCK
                                    7346  1          +
 0000AC 00                          7347  1 01-UPATH +UPATSFLG   DC    X'00'               Suzan post flag
 0000AD 00                          7348  1 01-UPATH +UPATPMSK   DC    X'00'               PATHWAIT post mask
 0000AE 0000                        7349  1 01-UPATH +           DC    XL2'00'             Reserved
 0000B0                000B0 000B0  7350                       END
1PROC     (PROC2193) (12:51) (15MAR04) DSECTS                                                                               Page   12
0Current Usings:  (CP,R11) (CV,R12)
0Loc    Object Code    Addr1 Addr2  Stmt Lv Lineno    Source Statement           (Hibal 5, Asmedit 3.3)  HLASM R4.0  2004/03/15 12.51
+___    ______ ____    _____ _____  ____ __ ______    ______ _________
0000000                00000 00278  7360              UNET     RECORD BEGIN
                                    7368  1           UNET       UNET
                                    7369+ 1          +¿þþþþþþþþþþþþþþþþþþþþþþþþþþþþþþþþþþþþþþþþþþþþþþþþþþþþþþþþþþþþþþþþþþþþþÜ
                                    7370+ 1          +Ÿ                                                                     Ÿ
                                    7371+ 1          +Ÿ    User Network communications control block.                       Ÿ
                                    7372+ 1          +Ÿ                                                                     Ÿ
                                          1           ¾þþþþþþþþþþþþþþþþþþþþþþþþþþþþþþþþþþþþþþþþþþþþþþþþþþþþþþþþþþþþþþþþþþþþþ»
0000000                             7373  1 01-UNET  +           DS    0F
 000000 E4D5C5E3                    7374  1 01-UNET  +           DC    CL4'UNET'
 000004 6F6F6F6F6F                  7375  1 01-UNET  +UNETACCT   DC    CL5'?????'          Owner's account ("uuugg" form)
                                    7376  1 01-UNET  +UNETUSER   EQU   UNETACCT,3,C'C'     .uuu
                                    7377  1 01-UNET  +UNETGRP    EQU   UNETACCT+3,2,C'C'   .gg
 000009 00                                1          +
 00000A 0000                        7378  1 01-UNET  +UNETSNO    DC    H'0'                Milten session number
                                    7379  1          +
 00000C 00000000                    7380  1 01-UNET  +UNETPNO    DC    F'0'                UNET number
 000010 00000000                    7381  1 01-UNET  +UNETJCBP   DC    A(0)                Owner's JCB ptr
 000014 00000000                    7382  1 01-UNET  +UNETLINK   DC    A(0)                Next UNET on waiting queue
                                    7383  1          +
 000018 C1D4C5D3C9C14040            7384  1 01-UNET  +UNETAMY    DC    CL8'AMELIA'         Amelia path name (AMELIA/TESTAMY)
 000020 00000000                    7385  1 01-UNET  +UNETPATP   DC    A(0)                Amelia UPATH ptr
 000024 00000000                    7386  1 01-UNET  +UNETSVIB   DC    A(0)                SVIB ptr (if server connection)
                                    7387  1          +
 000028 00000000                    7388  1 01-UNET  +UNETCTR1   DC    F'0'                (Temp) count of full queue stops
 00002C 00                          7389  1          +*
 UNETFLG1.UNETFGLO 80 ONES
 UNETFLG1.UNETFNOW 40 ONES
 UNETFLG1.UNETFNOP 20 ONES
 UNETFLG1.UNETFINT 10 ONES
 UNETFLG1.UNETFOPE 08 ONES
 UNETFLG1.UNETFHDR 04 ONES
 UNETFLG1.UNETFPRI 02 ONES
 00002D 00                          7429  1          +*
 UNETFLG2.UNETFCRY 80 ONES
 UNETFLG2.UNETFSAM 40 ONES
 UNETFLG2.UNETFASC 20 ONES
 UNETFLG2.UNETFBSI 10 ONES
                                    7454  1          +*
 00002E                             7455  1 01-UNET  +UNETEMSG   DS    CL64                Saved error message text
                                    7456  1          +
 00006E 0000                              1          +
 000070 00000000                    7457  1 01-UNET  +UNETWAIT   DC    F'0'                Max no of secs to wait (0=nolim)
                                    7458  1          +
 000074 00000000                    7459  1 01-UNET  +UNETDLOC   DC    A(0)                Remaining data location
 000078 00000000                    7460  1 01-UNET  +UNETDLEN   DC    A(0)                Remaining data length
                                    7461  1          +
 00007C 0000000000000000            7462  1 01-UNET  +UNETINCRYPT   DC XL64'00'            Input stream crypt work area
 0000BC 0000000000000000            7463  1 01-UNET  +UNETOUTCRYPT   DC XL64'00'           Output stream crypt work area
                                    7464  1          +
 0000FC 00000000                    7465  1 01-UNET  +UNETXCLK   DC    F'0'                TOD Clock at timeout
                                    7466  1          +
                                    7467  1 01-UNET  +UNETBUF#   EQU   4000,,C'N'          Working buffer size
 000100                             7468  1 01-UNET  +UNETBUFP   DS    A                   Working buffer ptr
1PROC     (PROC2193) (12:51) (15MAR04) DSECTS                                                                               Page   13
0Current Usings:  (CP,R11) (CV,R12)
0Loc    Object Code    Addr1 Addr2  Stmt Lv Lineno    Source Statement           (Hibal 5, Asmedit 3.3)  HLASM R4.0  2004/03/15 12.51
+___    ______ ____    _____ _____  ____ __ ______    ______ _________
0                                   7469  1          +*
 000104 00                          7470  1          +*
 UNETSGFLG.UNETFCT 80 ONES
 UNETSGFLG.UNETFNO 40 ONES
 UNETSGFLG.UNETFNP 20 ONES
 UNETSGFLG.UNETFWR 10 ONES
                                    7495  1 01-UNET  +UNETSINIT   EQU  UNETSGFLG,*-UNETSGFLG,C'X'
                                    7496  1          +
 000108                             7497  1 01-UNET  +UNETOBUFP   DS   A                   Output seg buffer (@ prefix)
                                    7498  1 01-UNET  +UNETPFXL#   EQU  20,,C'N'            Length of "prefix" before segbuf
 00010C 00                          7500  1 02-SEGCB +$$$SEGCB50   DS  0F
 UNETOUTSGCOD.UNET 01 EQ
 UNETOUTSGCOD.UNET 02 EQ
 UNETOUTSGCOD.UNET 03 EQ
 UNETOUTSGCOD.UNET 04 EQ
 UNETOUTSGCOD.UNET 05 EQ
 UNETOUTSGCOD.UNET 06 EQ
 UNETOUTSGCOD.UNET 07 EQ
 00010D 00                          7575  1 02-SEGCB +           DC    X'00'               Reserved
 00010E 0000                              1          +
 000110 00000000                    7576  1 02-SEGCB +UNETOUTSGMAXF   DC A(0)              Maximum buffer length
 000114 00000000                    7577  1 02-SEGCB +UNETOUTSGMRKF   DC A(0)              Length at last mark
 000118 00000000                    7578  1 02-SEGCB +UNETOUTSGLENF   DC A(0)              Current length
 00011C 00000000                    7579  1 02-SEGCB +UNETOUTSGINDF   DC A(0)              Overflow/indent count
 000120 00000000                    7580  1 02-SEGCB +UNETOUTSGERR   DC A(0)               Address of error recovery routine
 000124 0000000000000000            7581  1 02-SEGCB +           DC    2F'0'               Reserved
 00012C 00000000                    7582  1 02-SEGCB +UNETOUTSGLOC   DC A(0)               Location of buffer
 000130 00000000                    7583  1 02-SEGCB +UNETOUTSGRTN   DC A(0)               Processing routine
 000134 0000000000000000            7584  1 02-SEGCB +           DC    4F'0'               Reserved
 000144 00000000                    7585  1 02-SEGCB +UNETOUTSGUSR   DC A(0)               USER field
                                    7586  1 02-SEGCB +UNETOUTSG   EQU  $$$SEGCB50,*-$$$SEGCB50,C'X'
                                    7587  1          +
                                    7588  1 01-UNET  +UNETINMX#   EQU  128*1024,,C'N'      Can't handle more than this
                                    7589  1 01-UNET  +UNETINHI#   EQU  30*1024,,C'N'       Stop buffering any more data
                                    7590  1 01-UNET  +UNETINLO#   EQU  2*1024,,C'N'        Start buffering data again
                                    7591  1          +
 000148                             7592  1 01-UNET  +UNETINQH   DS    A                   Input buffer queue head ptr
 00014C                             7593  1 01-UNET  +UNETINQT   DS    A                   Input buffer queue tail ptr
 000150                             7594  1 01-UNET  +UNETINOLD   DS   A                   Old input buf (pending delete)
 000154                             7595  1 01-UNET  +UNETINL    DS    A                   Total length of input buffers
                                    7596  1          +
 000158                             7597  1 01-UNET  +UNETINCUR   DS   2A                  Current buf loc, len (READLINE)
                                    7598  1          +
 000160 00                          7599  1 01-UNET  +UNETSTATE   DC   X'00'               Current connection state
                                    7600  1 01-UNET  +UNETSFINITIAL    EQU    1            - Initial state
                                    7601  1 01-UNET  +UNETSFOPENING    EQU    2            - Opening TCP connection
                                    7602  1 01-UNET  +UNETSFOPENSTOP   EQU    3            - Open but can't send anything
                                    7603  1 01-UNET  +UNETSFOPEN       EQU    4            - Connection established
                                    7604  1 01-UNET  +UNETSFDATASTOP   EQU    5            - New data; but we can't send
                                    7605  1 01-UNET  +UNETSFDATA       EQU    6            - New data waiting
                                    7606  1 01-UNET  +UNETSFABORT      EQU    7            - Connection aborted by Amelia
                                    7607  1 01-UNET  +UNETSFCLOSING    EQU    8            - Closing TCP connection
                                    7608  1 01-UNET  +UNETSFPATHCLS    EQU    9            - Amelia path connection closed
                                    7609  1 01-UNET  +UNETSFCLOSE      EQU    10           - Connection closed
1PROC     (PROC2193) (12:51) (15MAR04) DSECTS                                                                               Page   14
0Current Usings:  (CP,R11) (CV,R12)
0Loc    Object Code    Addr1 Addr2  Stmt Lv Lineno    Source Statement           (Hibal 5, Asmedit 3.3)  HLASM R4.0  2004/03/15 12.51
+___    ______ ____    _____ _____  ____ __ ______    ______ _________
0                                   7610  1          +
 000161 00                          7611  1 01-UNET  +UNETPOST   DC    X'00'               GE state will post completion
                                    7612  1          +
 000162 00                          7613  1 01-UNET  +UNETTALK   DC    X'00'               NET_TALK mode
                                    7614  1 01-UNET  +UNETTALKCHAR     EQU    1            - Character mode talking
                                    7615  1 01-UNET  +UNETTALKLINE     EQU    2            - Line mode talking
                                    7616  1 01-UNET  +UNETTALKVTAM     EQU    3            - Vtam "half duplex" mode talking
 000163 00                          7617  1          +*
 UNETAFLG1.UNETFIA 80 ONES
 UNETAFLG1.UNETFIA 40 ONES
 UNETAFLG1.UNETFCR 20 ONES
 000164 00                          7637  1          +*
 UNETAFLG2.UNETFOU 80 ONES
 UNETAFLG2.UNETFOU 40 ONES
 UNETAFLG2.UNETFOU 20 ONES
 UNETAFLG2.UNETFOU 10 ONES
 UNETAFLG2.UNETFIN 08 ONES
 UNETAFLG2.UNETFIN 04 ONES
 UNETAFLG2.UNETFIN 02 ONES
 UNETAFLG2.UNETFIN 01 ONES
 000165 00                          7682  1          +*
 UNETAFLG3.UNETFNO 80 ONES
 UNETAFLG3.UNETFWR 40 ONES
 UNETAFLG3.UNETFKE 20 ONES
 000166 00                          7702  1          +*
 UNETINMODE.UNETIN 00 EQ
 UNETINMODE.UNETIN 01 EQ
 000167 00                          7727  1          +*
 UNETOUTMODE.UNETO 00 EQ
 UNETOUTMODE.UNETO 01 EQ
                                    7752  1          +*
 000168 0000                        7753  1 01-UNET  +UNETMAXL   DC    H'0'                Maximum length line
                                    7754  1          +
 00016A 0000                              1          +
 00016C 00000000                    7755  1 01-UNET  +UNETLNO    DC    F'0'                Working line-number
                                    7756  1          +
 000170 00000000                    7757  1 01-UNET  +UNETAID    DC    F'0'                Amelia connection ID
                                    7758  1          +
 000174 00000000                    7759  1 01-UNET  +UNETLIP    DC    F'0'                Our host IP address
 000178 00000000                    7760  1 01-UNET  +UNETLPORT   DC   F'0'                Our TCP port number
                                    7761  1          +
 00017C 4040404040404040            7762  1 01-UNET  +UNETRNAME   DC   CL80' '             Remote host name
 0001CC 00000000                    7763  1 01-UNET  +UNETRIP    DC    F'0'                Remote host IP address
 0001D0 00000000                    7764  1 01-UNET  +UNETRPORT   DC   F'0'                Remote TCP port number
                                    7765  1          +
 0001D4 00000000                    7766  1 01-UNET  +UNETFLOWL   DC   F'0'                Flow control: low water mark
 0001D8 00000000                    7767  1 01-UNET  +UNETFLOWH   DC   F'0'                Flow control: high water mark
                                    7768  1          +
 0001DC                             7769  1 01-UNET  +UNETTERM   DS    CL32                Terminal type (for TELNET)
                                    7770  1          +
 0001FC 00000000                    7771  1 01-UNET  +UNETTTBL   DC    A(0)                Connection trace table
 000200 00000000                    7772  1 01-UNET  +UNETTTNX   DC    F'0'                Index of next entry to be used
                                    7773  1          +
 000204                             7774  1 01-UNET  +           DS    XL24                Reserved
1PROC     (PROC2193) (12:51) (15MAR04) DSECTS                                                                               Page   15
0Current Usings:  (CP,R11) (CV,R12)
0Loc    Object Code    Addr1 Addr2  Stmt Lv Lineno    Source Statement           (Hibal 5, Asmedit 3.3)  HLASM R4.0  2004/03/15 12.51
+___    ______ ____    _____ _____  ____ __ ______    ______ _________
000021C 00/00                       7775  1          +*
 UNETVFLG1.UNETFPF 80 ONES
 00021E 0000                        7789  1 01-UNET  +UNETVHEI   DC    H'0'                NET_VIEW:  Screen height
 000220 0000                        7790  1 01-UNET  +UNETVWID   DC    H'0'                NET_VIEW:  Screen width
 000222 0000                        7791  1 01-UNET  +UNETNTXT   DC    H'0'                NET_VIEW:  No. of text lines
 000224 000000000000                7792  1 01-UNET  +           DC    3H'0'               NET_VIEW:  Reserved
 00022A 0000                        7793  1 01-UNET  +UNETPFKR   DC    H'0'                NET_VIEW:  Row of PFK line
 00022C 0000000000000000            7794  1 01-UNET  +UNETPFKC   DC    XL(2*9)'00'         NET_VIEW:  Start col for each PF
 00023E 0000                        7795  1 01-UNET  +UNETPRPF   DC    H'0'                NET_VIEW:  PF key for "prev"
 000240 0000                        7796  1 01-UNET  +UNETNXPF   DC    H'0'                NET_VIEW:  PF key for "next"
 000242 0000                        7797  1 01-UNET  +UNETMKPF   DC    H'0'                NET_VIEW:  PF key for "mark"
 000244 0000                        7798  1 01-UNET  +UNETXXPF   DC    H'0'                NET_VIEW:  PF key for "secure"
 000246 0000                        7799  1 01-UNET  +UNETSNPF   DC    H'0'                NET_VIEW:  PF key for "send"
 000248 00000000                    7800  1 01-UNET  +           DC    2H'0'               NET_VIEW:  Reserved
                                    7801  1          +
                                    7802  1 01-UNET  +UNETLMX#   EQU   500,,C'N'           NET_VIEW:  No lines meaning lots
 00024C 00000000                    7803  1 01-UNET  +UNETTOPL   DC    F'0'                NET_VIEW:  Current top lineno
 000250 00000000                    7804  1 01-UNET  +UNETBOTC   DC    F'0'                NET_VIEW:  No lines that follow
 000254 00000000                    7805  1 01-UNET  +UNETFIXL   DC    F'0'                NET_VIEW:  Fixed top lineno
 000258 00000000                    7806  1 01-UNET  +UNETBYCT   DC    F'0'                NET_VIEW:  Cur act byte count
 00025C 00000000                    7807  1 01-UNET  +UNETLLNO   DC    F'0'                NET_VIEW:  Cur last lineno
 000260 00000000                    7808  1 01-UNET  +UNETMRKL   DC    F'0'                NET_VIEW:  Marked lineno
 000264 00000000                    7809  1 01-UNET  +UNETINPL   DC    F'0'                NET_VIEW:  Last lineno @ input
 000268 00000000                    7810  1 01-UNET  +UNETCURL   DC    F'0'                NET_VIEW:  Current cursor lineno
 00026C 0000000000000000            7811  1 01-UNET  +           DC    XL12'00'            Reserved
 000278                00278 00278  7812                       END
1PROC     (PROC2193) (12:51) (15MAR04) DSECTS                                                                               Page   16
0Current Usings:  (CP,R11) (CV,R12)
0Loc    Object Code    Addr1 Addr2  Stmt Lv Lineno    Source Statement           (Hibal 5, Asmedit 3.3)  HLASM R4.0  2004/03/15 12.51
+___    ______ ____    _____ _____  ____ __ ______    ______ _________
0                                   7822                       COPY  BSINFO
                                    7823=            =    ¿þþþþþþþþþþþþþþþþþþþþþþþþþþþþþþþþþþþÜ
                                    7824=            =    Ÿ  BINARY SEARCH INFORMATION DSECT  Ÿ
                                    7825=            =    Ÿ                                   Ÿ
                                    7826=            =    ¾þþþþþþþþþþþþþþþþþþþþþþþþþþþþþþþþþþþ»
 000000                00000 00020  7827             =BSINFO   RECORD BEGIN ,            BINARY SEARCH INFO
 000000                             7835  1          =BSTLEN     DS    F                   TOTAL LENGTH FOR ENTRIES
 000004                             7836  1          =BSELEN     DS    F                   ENTRY LENGTH
 000008                             7837  1          =BSSLEN     DS    F                   SEARCH FIELD LENGTH
 00000C                             7838  1          =BSSOFF     DS    F                   SEARCH FIELD OFFSET
 000010                             7839  1          =BSEND      DS    F                   END OF LAST VALID ENTRY
 000014                             7840  1          =BSCNT      DS    F                   COUNT OF BINARY SEARCH ITERATIONS
 000018                             7841  1          =BSSTART    DS    F                   START BINARY SEARCH AT MIDDLE
 00001C                             7842  1          =BSRSVD     DS    F                   NOT USED
 000020                00020 00020  7843             =         END
1PROC     (PROC2193) (12:51) (15MAR04) DSECTS                                                                               Page   17
0Current Usings:  (CP,R11) (CV,R12)
0Loc    Object Code    Addr1 Addr2  Stmt Lv Lineno    Source Statement           (Hibal 5, Asmedit 3.3)  HLASM R4.0  2004/03/15 12.51
+___    ______ ____    _____ _____  ____ __ ______    ______ _________
0                                   7853                       COPY  VNENTRY
                                    7854=            =¿þþþþþþþþþþþþþþþþþþþþþþþþþþþþþþþþþþþþþþþþþþþþþþþþþþþþþþþþþþþþþþþþþþþþþÜ
                                    7855=            =Ÿ                                                                     Ÿ
                                    7856=            =Ÿ                                                                     Ÿ
                                    7857=            =Ÿ  VARIABLE ENTRY (COMMON)                                            Ÿ
                                    7858=            =Ÿ                                                                     Ÿ
                                    7859=            =Ÿ                                                                     Ÿ
                                    7860=            =Ÿ                                                                     Ÿ
                                                      ¾þþþþþþþþþþþþþþþþþþþþþþþþþþþþþþþþþþþþþþþþþþþþþþþþþþþþþþþþþþþþþþþþþþþþþ»
0000000                00000 00050  7861             =VNENTRY  RECORD BEGIN ,            VARIABLE ENTRY
                                    7869= 1          =     ¿þþþþþþþþþþþþþþþþþþþþþþþþþþþþþþþþþþþþþþþþþþþþþþþþþþþþþþþþþþþþþþÜ
                                    7870= 1          =     Ÿ  VARIABLE NAME, DESCRIPTION      (ONLY NAME SAVED WITH VAR)  Ÿ
                                    7871= 1          =     ¾þþþþþþþþþþþþþþþþþþþþþþþþþþþþþþþþþþþþþþþþþþþþþþþþþþþþþþþþþþþþþþ»
 000000                             7872  1          =VNDESC     DS    XL32                VARIABLE DESCRIPTOR,
 000020                00020 00000  7873  1          =           ORG   VNDESC
 000000                             7874  1          =VNNAME     DS    CL16                VARIABLE NAME
 000010 00                          7875  1          =VNPREFIX   FLAG  ,                   NAME PREFIX FLAGS
 VNPREFIX.VNPFX    01 EQ            7879  1          =           FLAG  (VNPFX,1,EQ)        X.
 VNPREFIX.VNPFGBL  02 EQ            7889  1          =           FLAG  (VNPFGBL,2,EQ)      GBL.
 VNPREFIX.VNPFSYS  03 EQ            7899  1          =           FLAG  (VNPFSYS,3,EQ)      SYS.
 VNPREFIX.VNPFSES  04 EQ            7909  1          =           FLAG  (VNPFSES,4,EQ)      SES.
 VNPREFIX.VNPFPUB  05 EQ            7919  1          =           FLAG  (VNPFPUB,5,EQ)      PUB.
 000011 00                          7929  1          =VNAFLAGS   FLAG  ,                   ARRAY FLAGS
 VNAFLAGS.VNADESC  80 ONES          7933  1          =           FLAG  VNADESC             GENERIC ARRAY DESCRIPTOR
 000012                             7938  1          =VNASUB1    DS    H                   ARRAY SUBSCRIPTS
 000014                             7939  1          =VNASUB2    DS    H
 000016                             7940  1          =VNASUB3    DS    H
 000018                             7941  1          =           DS    0S(VNDESC+L'VNDESC-*)
 000018                00018 00020  7942  1          =           ORG
                                    7943= 1          =     ¿þþþþþþþþþþþþþþþþþþþþþþþþÜ
                                    7944= 1          =     Ÿ  VARIABLE TYPE, VALUE  Ÿ
                                    7945= 1          =     ¾þþþþþþþþþþþþþþþþþþþþþþþþ»
 000020                             7946  1          =VNDATA     DS    XL16                VARIABLE TYPE/VALUE
 000030                00030 00020  7947  1          =           ORG   VNDATA
 000020                             7948  1          =VNSDATA    DS    XL6                 VARIABLE TYPE/VALUE (STRING)
 000026                00026 00020  7949  1          =           ORG   VNDATA
 000020                             7950  1          =VNADATA    DS    XL48                VARIABLE TYPE/VALUE (ARRAY)
 000050                00050 00020  7951  1          =           ORG   VNDATA
                                    7952  1          =
 000020 00                          7953  1          =VNTYPE     FLAG  ,                   VARIABLE TYPE
 VNTYPE.VNSTRING   01 EQ            7957  1          =           FLAG  (VNSTRING,1,EQ)     STRING
 VNTYPE.VNNUMB     02 EQ            7967  1          =           FLAG  (VNNUMB,2,EQ)       NUMBER
 VNTYPE.VNBOOL     03 EQ            7977  1          =           FLAG  (VNBOOL,3,EQ)       BOOLEAN
 VNTYPE.VNARRAY    04 EQ            7987  1          =           FLAG  (VNARRAY,4,EQ)      ARRAY
 VNTYPE.VNFN       05 EQ            7997  1          =           FLAG  (VNFN,5,EQ)         FUNCTION
 VNTYPE.VNPROC     06 EQ            8007  1          =           FLAG  (VNPROC,6,EQ)       PROCEDURE
 VNTYPE.VNLABEL    07 EQ            8017  1          =           FLAG  (VNLABEL,7,EQ)      LABEL
 000021 00                          8027  1          =VNDEBUG    FLAG  ,                   DEBUG FLAGS
 VNDEBUG.VNDBGET   80 ONES          8031  1          =           FLAG  VNDBGET             DEBUG VARIABLE FETCH
 VNDEBUG.VNDBSAVE  40 ONES          8036  1          =           FLAG  VNDBSAVE            DEBUG VARIABLE STORE
 VNDEBUG.VNDBTRAC  20 ONES          8041  1          =           FLAG  VNDBTRAC            DEBUG TRACE THIS PROC/LABEL
 VNDEBUG.VNDBSTOP  10 ONES          8046  1          =           FLAG  VNDBSTOP            DEBUG STOP AT PROC/LABEL
 000022 00                          8051  1          =VNFLAGS1   FLAG  ,
1PROC     (PROC2193) (12:51) (15MAR04) DSECTS                                                                               Page   18
0Current Usings:  (CP,R11) (CV,R12)
0Loc    Object Code    Addr1 Addr2  Stmt Lv Lineno    Source Statement           (Hibal 5, Asmedit 3.3)  HLASM R4.0  2004/03/15 12.51
+___    ______ ____    _____ _____  ____ __ ______    ______ _________
0VNFLAGS1.VNINT    80 ONES          8055  1          =           FLAG  VNINT               ** INTEGER, OLD EXEC MODE !
 000023 00                          8060  1          =VNFLAGS2   FLAG  ,                   UNUSED
                                    8064= 1          =     ¿þþþþþþþþþþþþþþþÜ
                                    8065= 1          =     Ÿ  COMMON AREA  Ÿ
                                    8066= 1          =     ¾þþþþþþþþþþþþþþþ»
 000024                             8067  1          =           DS    0F
                                    8068  1          =VNAREA     EQU   *                   MULTI-USE AREA (COMMON)
                                    8069  1          =
 000024                00024 00024  8070  1          =           ORG   VNAREA
 000024                             8071  1          =           DS    0H                  (NUMBER), (BOOLEAN)
 000024                             8072  1          =VNVALUE    DS    XL12                ALL NUMBERS STORED AS PCKD DECIMAL
                                    8073  1          =
 000030                00030 00024  8074  1          =           ORG   VNAREA
 000024                             8075  1          =           DS    0H                  (STRING)
 000024                             8076  1          =VNSTRLEN   DS    H                   STRING LENGTH
                                    8077  1          =VNSTRLOC   EQU   *,1,C'C'            START OF STRING (IF ANY)
 000026                             8078  1          =           DS    0S(VNSDATA+L'VNSDATA-*)
                                    8079  1          =
 000026                00026 00024  8080  1          =           ORG   VNAREA
 000024                             8081  1          =           DS    0H                  (ARRAY)
 000024                             8082  1          =VNARG      DS    F                   ARRAY RECORD GROUP INFO POINTER
 000028                             8083  1          =VNASET     DS    F                   ARRAY SET NUMBER
 00002C                             8084  1          =VNAIDENT   DS    F                   ARRAY ID NUMBER
 000030 00                          8085  1          =VNATYPE    FLAG  ,                   ARRAY TYPE
 VNATYPE.VNASTR    01 EQ            8089  1          =           FLAG  (VNASTR,1,EQ)       STRINGS
 VNATYPE.VNANUMB   02 EQ            8099  1          =           FLAG  (VNANUMB,2,EQ)      NUMBERS
 VNATYPE.VNABOOL   03 EQ            8109  1          =           FLAG  (VNABOOL,3,EQ)      BOOLEANS
 000031 00                          8119  1          =VNAFLAG    FLAG  ,                   NOT USED
 000032                             8123  1          =VNADIM1    DS    H                   DIMENSION 1
 000034                             8124  1          =VNADIM2    DS    H                   DIMENSION 2
 000036                             8125  1          =VNADIM3    DS    H                   DIMENSION 3
 000038                             8126  1          =VNANAME    DS    CL(L'VNNAME)        ORIGINAL ARRAY NAME
 000048                             8127  1          =           DS    0S(VNADATA+L'VNADATA-*)
                                    8128  1          =
 000048                00048 00024  8129  1          =           ORG   VNAREA
 000024                             8130  1          =           DS    0H                  (PROCEDURE)
 000024                             8131  1          =VNPSTART   DS    F                   STARTING LINE NUMBER
 000028                             8132  1          =VNPEND     DS    F                   ENDING LINE NUMBER
 00002C                             8133  1          =           DS    0S(VNDATA+L'VNDATA-*)
                                    8134  1          =
 00002C                0002C 00024  8135  1          =           ORG   VNAREA
 000024                             8136  1          =           DS    0H                  (LABEL)
 000024                             8137  1          =VNLLINE    DS    F                   LABEL LINE NUMBER
 000028                             8138  1          =           DS    0S(VNDATA+L'VNDATA-*)
                                    8139  1          =
 000028                00028 00024  8140  1          =           ORG   VNAREA
 000024                             8141  1          =           DS    0H                  (FUNCTION)
 000024                             8142  1          =VNFSTART   DS    F                   STARTING LINE NUMBER
 000028                             8143  1          =VNFEND     DS    F                   ENDING LINE NUMBER
 00002C                             8144  1          =           DS    0S(VNDATA+L'VNDATA-*)
                                    8145  1          =
 00002C                0002C 00024  8146  1          =           ORG   VNAREA
 000024                             8147  1          =           DS    0H                  (SYSTEM VAR/FN/PROC)
 000024                             8148  1          =VNSYSRTN   DS    A                   ADDRESS OF SYSTEM ROUTINE
1PROC     (PROC2193) (12:51) (15MAR04) DSECTS                                                                               Page   19
0Current Usings:  (CP,R11) (CV,R12)
0Loc    Object Code    Addr1 Addr2  Stmt Lv Lineno    Source Statement           (Hibal 5, Asmedit 3.3)  HLASM R4.0  2004/03/15 12.51
+___    ______ ____    _____ _____  ____ __ ______    ______ _________
0000028                             8149  1          =           DS    0S(VNDATA+L'VNDATA-*)
 000028                00028 00050  8150  1          =           ORG
                                    8151  1          =*
                                    8152  1          =*
                                    8153  1          =NL         EQU   L'VNVALUE,,C'N'     NUMBER LENGTH
                                    8154  1          =MAXSTRLN   EQU   256,,C'N'           MAXIMUM STRING VAR LENGTH
                                    8155  1          =           DS    0S(MAXSTRLN-&LINESZ)
 000050                                   1          +           DS    0S(MAXSTRLN-235)
 000050                00050 00050  8156             =         END
                                    8165                       COPY  VPARM
                                    8166=            =¿þþþþþþþþþþþþþþþþþþþþþþþþþþþþþþþþþþþþþþþþþþþþþþþþþþþþþþþþþþþþþþþþþþþþþÜ
                                    8167=            =Ÿ                                                                     Ÿ
                                    8168=            =Ÿ                                                                     Ÿ
                                    8169=            =Ÿ  VARIABLE PARM AREA                                                 Ÿ
                                    8170=            =Ÿ                                                                     Ÿ
                                    8171=            =Ÿ                                                                     Ÿ
                                    8172=            =Ÿ                                                                     Ÿ
                                                      ¾þþþþþþþþþþþþþþþþþþþþþþþþþþþþþþþþþþþþþþþþþþþþþþþþþþþþþþþþþþþþþþþþþþþþþ»
0000000                00000 00150  8173             =VPARM    RECORD BEGIN ,            PARM AREA FOR VARIABLES
 000000                             8181  1          =           DS    (L'VNENTRY)X        IS A VARIABLE ENTRY
 000050                             8182  1          =           DS    (((MAXSTRLN-1)/16)*16+16)X  AND A STRING AREA
 000150                00150 00150  8183             =         END
1PROC     (PROC2193) (12:51) (15MAR04) DSECTS                                                                               Page   20
0Current Usings:  (CP,R11) (CV,R12)
0Loc    Object Code    Addr1 Addr2  Stmt Lv Lineno    Source Statement           (Hibal 5, Asmedit 3.3)  HLASM R4.0  2004/03/15 12.51
+___    ______ ____    _____ _____  ____ __ ______    ______ _________
0                                   8193                       COPY  XSENTRY
                                    8194=            =   ¿þþþþþþþþþþþþþþþþþþþþþþþþþþþþþþþþþþþþÜ
                                    8195=            =   Ÿ  GENERATE EQUIVALENT SYMBOL ENTRY  Ÿ
                                    8196=            =   ¾þþþþþþþþþþþþþþþþþþþþþþþþþþþþþþþþþþþþ»
                                    8197             =         MACRO
                                    8198             =&L       SAMEAS &SYMBOL,&DSECT=,&BASE=
                                    8199             =         LCLC  &TYPE
                                    8200             =&TYPE    SETC  T'&SYMBOL
                                    8201             =&L       EQU   &BASE+(&SYMBOL-&DSECT),L'&SYMBOL,C'&TYPE'
                                    8202             =         MEND
0                                   8204=            =¿þþþþþþþþþþþþþþþþþþþþþþþþþþþþþþþþþþþþþþþþþþþþþþþþþþþþþþþþþþþþþþþþþþþþþÜ
                                    8205=            =Ÿ                                                                     Ÿ
                                    8206=            =Ÿ                                                                     Ÿ
                                    8207=            =Ÿ  EXPRESSION STACK ENTRY                                             Ÿ
                                    8208=            =Ÿ                                                                     Ÿ
                                    8209=            =Ÿ  *** NOTE ***                                                       Ÿ
                                    8210=            =Ÿ  THIS DSECT IS THE SAME AS A VARIABLE ENTRY DSECT, WITH THE         Ÿ
                                    8211=            =Ÿ  EXCEPTION THAT THE VARIABLE NAME (DESCRIPTOR) FIELD IS REPLACE     Ÿ
                                    8212=            =Ÿ  WITH SPECIAL TYPE FLAGS AND OPERATOR STACK ENTRIES.                Ÿ
                                    8213=            =Ÿ                                                                     Ÿ
                                    8214=            =Ÿ  THE POINT OF THE COMPATIBILITY BETWEEN THIS DSECT AND THE          Ÿ
                                    8215=            =Ÿ  VARIABLE ENTRY DSECT, IS SO THAT THE RESULT OF THE EXPRESSION      Ÿ
                                    8216=            =Ÿ  EVALUATION (TYPE AND VALUE) IS COMPATIBLE.                         Ÿ
                                    8217=            =Ÿ                                                                     Ÿ
                                    8218=            =Ÿ                                                                     Ÿ
                                                      ¾þþþþþþþþþþþþþþþþþþþþþþþþþþþþþþþþþþþþþþþþþþþþþþþþþþþþþþþþþþþþþþþþþþþþþ»
0000000                00000 00050  8219             =XSENTRY  RECORD BEGIN ,            EXPRESSION STACK ENTRY
 000000                             8227  1          =XXSSTART   DS    0D
 000000                             8228  1          =           DS    (L'VNENTRY)X
                                    8229  1          =XSLENGTH   EQU   8192                STANDARD EXPRESSION STACK LEN
                                    8230  1          =XSLENTRY   EQU   XXSSTART,L'VPARM    ACTUAL LEN OF ENTRY (INCL. STR)
                                    8231  1          =*
                                    8232  1          =* EXPRESSION STACK ENTRIES,,,
                                    8233  1          =*
                                    8234  1          =*  ** CAUTION **
                                    8235  1          =* EXPRESSION STACK ENTRIES SHOULD ONLY OVERLAY VNDESC FIELD !
 000050                00050 00000  8236  1          =           ORG   XXSSTART+(VNDESC-VNENTRY)
 000000 00                          8237  1          =XSTYPE     FLAG  ,                   STACK ENTRY TYPE
 XSTYPE.XSSTART    01 EQ            8241  1          =           FLAG  (XSSTART,1,EQ)      START OF EXPRESSION
 XSTYPE.XSVAL      02 EQ            8251  1          =           FLAG  (XSVAL,2,EQ)        TERM, EVALUATED
 XSTYPE.XSOPER     03 EQ            8261  1          =           FLAG  (XSOPER,3,EQ)       OPERATOR
 XSTYPE.XSEND      04 EQ            8271  1          =           FLAG  (XSEND,4,EQ)        END OF EXPRESSION
 XSTYPE.XSNULL     05 EQ            8281  1          =           FLAG  (XSNULL,5,EQ)       NULL EXPRESSION
                                    8291  1          =
 000001                             8292  1          =XSUOPLVL   DS    X                   UNARY OPERATOR PRIORITY LEVEL
 000002                             8293  1          =XSBOPLVL   DS    X                   BINARY OPERATOR PRIORITY LEVEL
 000004                             8294  1          =XSUOPRTN   DS    A                   UNARY OPERATOR ROUTINE
 000008                             8295  1          =XSBOPRTN   DS    A                   BINARY OPERATOR ROUTINE
 00000C                             8296  1          =XSOPCHAR   DS    CL4                 OPERATOR
 000010                             8297  1          =           DS    0S(L'VNDESC-(*-(XXSSTART+(VNDESC-VNENTRY))))
1PROC     (PROC2193) (12:51) (15MAR04) DSECTS                                                                               Page   21
0Current Usings:  (CP,R11) (CV,R12)
0Loc    Object Code    Addr1 Addr2  Stmt Lv Lineno    Source Statement           (Hibal 5, Asmedit 3.3)  HLASM R4.0  2004/03/15 12.51
+___    ______ ____    _____ _____  ____ __ ______    ______ _________
0                                   8298= 1          =     ¿þþþþþþþþþþþþþþþþþþþþþþþþþþþþþþþþÜ
                                    8299= 1          =     Ÿ  STANDARD VARIABLE ENTRIES !!  Ÿ
                                    8300= 1          =     ¾þþþþþþþþþþþþþþþþþþþþþþþþþþþþþþþþ»
                                    8301  1          =XSNAME     SAMEAS VNNAME,DSECT=VNENTRY,BASE=XSENTRY     NAME AREA
                                    8302  1 01-08201 +XSNAME     EQU   XSENTRY+(VNNAME-VNENTRY),L'VNNAME,C'C'
                                    8303  1          =
                                    8304  1          =XSNUMB     SAMEAS VNNUMB,DSECT=VNENTRY,BASE=XSENTRY     TYPE: NUMBER
                                    8305  1 01-08201 +XSNUMB     EQU   XSENTRY+(VNNUMB-VNENTRY),L'VNNUMB,C''
                                    8306  1          =XSBOOL     SAMEAS VNBOOL,DSECT=VNENTRY,BASE=XSENTRY           BOOLEAN
                                    8307  1 01-08201 +XSBOOL     EQU   XSENTRY+(VNBOOL-VNENTRY),L'VNBOOL,C''
                                    8308  1          =XSSTRING   SAMEAS VNSTRING,DSECT=VNENTRY,BASE=XSENTRY         STRING
                                    8309  1 01-08201 +XSSTRING   EQU   XSENTRY+(VNSTRING-VNENTRY),L'VNSTRING,C''
                                    8310  1          =XSARRAY    SAMEAS VNARRAY,DSECT=VNENTRY,BASE,XSENTRY          ARRAY
                                    8311  1 01-08201 +XSARRAY    EQU   +(VNARRAY-VNENTRY),L'VNARRAY,C''
                                    8312  1          =
                                    8313  1          =XSVALUE    SAMEAS VNVALUE,DSECT=VNENTRY,BASE=XSENTRY     VALUE
                                    8314  1 01-08201 +XSVALUE    EQU   XSENTRY+(VNVALUE-VNENTRY),L'VNVALUE,C'X'
                                    8315  1          =XSSTRLOC   SAMEAS VNSTRLOC,DSECT=VNENTRY,BASE=XSENTRY    STRING LOC
                                    8316  1 01-08201 +XSSTRLOC   EQU   XSENTRY+(VNSTRLOC-VNENTRY),L'VNSTRLOC,C'C'
                                    8317  1          =XSSTRLEN   SAMEAS VNSTRLEN,DSECT=VNENTRY,BASE=XSENTRY    STRING LEN
                                    8318  1 01-08201 +XSSTRLEN   EQU   XSENTRY+(VNSTRLEN-VNENTRY),L'VNSTRLEN,C'H'
                                    8319  1          =
 000010                             8320  1          =           DS    0S(L'VPARM-L'XSLENTRY)
 000010                             8321  1          =           DS    0S(L'XSLENTRY-L'VPARM)
 000010                00010 00050  8322             =         END
1PROC     (PROC2193) (12:51) (15MAR04) Local Macros                                                                         Page   22
0Current Usings:  (CP,R11) (CV,R12)
0Loc    Object Code    Addr1 Addr2  Stmt Lv Lineno    Source Statement           (Hibal 5, Asmedit 3.3)  HLASM R4.0  2004/03/15 12.51
+___    ______ ____    _____ _____  ____ __ ______    ______ _________
0                                   8332              *
                                    8333              *
                                    8334              *   SYSTEM ROUTINE TABLE ENTRY MACRO
                                    8335              *
                                    8336              *
 000000                00000 00014  8337              RTNENTRY RECORD BEGIN
 000000                             8345  1           RTNNAME    DS    CL16
                                    8346  1           RTNPTR     DEFRTNP
 000010                             8347  1 01-DEFRT +RTNPTR     DS    A
 000014                00014 00014  8348                       END
                                    8357              *
                                    8358              *C-DATA  struct sysrtn {
                                    8359              *C-DATA    unsigned char name[16];
                                    8360              *C-DATA    void (* routine)();
                                    8361              *C-DATA  };
                                    8362              *
                                    8363              *
 000018                             8364                       DS    0S(16-L'VNNAME)     VNNAME MUST BE 16 OR FIXED ABOVE
 000018                             8365                       DS    0S(L'VNNAME-16)       AND FIXED IN SYSRTN MACRO
 000018                             8366                       DS    0S(16-L'RTNNAME)    RTNNAME MUST BE 16 OR FIXED ABOVE
 000018                             8367                       DS    0S(L'RTNNAME-16)      AND FIXED IN SYSRTN MACRO
                                    8368
                                    8369                       MACRO
                                    8370              &L       SYSPROC   &NAME,&ROUTINE
                                    8371              &L       SYSRTN    &NAME,&ROUTINE
                                    8372                       MEND
                                    8373
                                    8374                       MACRO
                                    8375              &L       LA$TABLE &RX,&LOC
                                    8376                       GBLB  &$PCODE
                                    8377                       AIF   (&$PCODE).CGENLA
                                    8378                       L     &RX,=A(&LOC)
                                    8379                       MEXIT
                                    8380              .CGENLA  ANOP
                                    8381                       MNOTE *,'C-CODE &RX = (long int)((char *)( && &LOC));'
                                    8382                       MEND
                                    8383
1PROC     (PROC2193) (12:51) (15MAR04) Local Macros                                                                         Page   23
0Current Usings:  (CP,R11) (CV,R12)
0Loc    Object Code    Addr1 Addr2  Stmt Lv Lineno    Source Statement           (Hibal 5, Asmedit 3.3)  HLASM R4.0  2004/03/15 12.51
+___    ______ ____    _____ _____  ____ __ ______    ______ _________
0                                   8385              *
                                    8386              *
                                    8387              *   LOCAL MACROS
                                    8388              *
                                    8389              *        SETARGS - SET ARG TYPES
                                    8390              *        RETARGS - RETURN PROCEDURE ARGS
                                    8391              *        PRETVAL - RETURN VARIABLE VALUE, TYPE
                                    8392              *        BADARG - CREATE BAD ARGUMENT MESSAGE
                                    8393              *
                                    8394              *.... ..   -... ..- -..
-                                   8396              *
                                    8397              *                               SET ARGUMENT TYPES
                                    8398                       MACRO
                                    8399              &L       SETARGS  &LIST
                                    8400              &L       LA    R2,=C&LIST          LIST OF ARGUMENT TYPES TO SET
                                    8401                       COMMENT                   R1 - ARG LIST, R0 - ARG COUNT
                                    8402                       VCALL SETARGS             THIS ROUTINE IS IN FUNC
                                    8403                       MEND
-                                   8405              *
                                    8406              *                             RETURN VARIABLE @R6
                                    8407                       MACRO
                                    8408              &L       PRETVAL &ARGNUM,&TYPE,&VALUE,&LEN
                                    8409              &L       DS    0H
                                    8410                       AIF   ('&TYPE' EQ 'STRING').TYPESTR
                                    8411                       AIF   ('&TYPE' EQ 'INTEGER').TYPEINT
                                    8412                       AIF   ('&TYPE' EQ 'LINENO').TYPELNO
                                    8413                       AIF   ('&TYPE' EQ 'BOOLEAN').TYPEBOOL
                                    8414                       MNOTE 8,'INVALID TYPE SPECIFIED'
                                    8415              .*
                                    8416              .*                                 RETURN STRING VALUE
                                    8417              .TYPESTR ANOP
                                    8418                       WITH  (VNENTRY,R2),BEGIN
                                    8419                       LA    R2,ARG&ARGNUM.(R6)
                                    8420                       CLEAR VNENTRY                 CLEAR ENTRY
                                    8421                       SET   VNSTRING                SET STRING TYPE
                                    8422                       SETMSG &VALUE,&LEN
                                    8423                       STH   R0,VNSTRLEN             SAVE STRING LEN
                                    8424                       LTR   R15,R0                  SAVE STRING VALUE
                                    8425                       IF    POS,BEGIN
                                    8426                       DEX   R15,' MVC VNSTRLOC(0),@R1 '
                                    8427                       END
                                    8428                       SR    R15,R15
                                    8429                       END   , WITH (VNENTRY,R2)
                                    8430                       MEXIT
                                    8431              .*                                 RETURN INTEGER VALUE
                                    8432              .TYPEINT ANOP
                                    8433                       WITH  (VNENTRY,R2),BEGIN
                                    8434                       LA    R2,ARG&ARGNUM.(R6)
                                    8435                       CLEAR VNENTRY                 CLEAR ENTRY
                                    8436                       SET   VNNUMB                  SET NUMBER TYPE
1PROC     (PROC2193) (12:51) (15MAR04) Local Macros                                                                         Page   24
0Current Usings:  (CP,R11) (CV,R12)
0Loc    Object Code    Addr1 Addr2  Stmt Lv Lineno    Source Statement           (Hibal 5, Asmedit 3.3)  HLASM R4.0  2004/03/15 12.51
+___    ______ ____    _____ _____  ____ __ ______    ______ _________
0                                   8437                       $L    R1,&VALUE,OP=LA         SET VALUE
                                    8438                       ST    R1,VNVALUE
                                    8439                       COMMENT R2 - VNENTRY
                                    8440                       VCALL MAKEITOD                ALL #'S RETURNED AS PKD DEC
                                    8441                       END   , WITH (VNENTRY,R2)
                                    8442                       MEXIT
                                    8443              .*                                 RETURN LINE NUMBER VALUE
                                    8444              .TYPELNO ANOP
                                    8445                       WITH  (VNENTRY,R2),BEGIN
                                    8446                       LA    R2,ARG&ARGNUM.(R6)
                                    8447                       CLEAR VNENTRY                 CLEAR ENTRY
                                    8448                       SET   VNNUMB                  SET NUMBER TYPE
                                    8449                       $L    R1,&VALUE,OP=LA         SET VALUE
                                    8450                       ST    R1,VNVALUE
                                    8451                       LA    R2,VNENTRY
                                    8452                       VCALL MAKELTOD                ALL #'S RETURNED AS PKD DEC
                                    8453                       END   , WITH (VNENTRY,R2)
                                    8454                       MEXIT
                                    8455              .*                                 RETURN BOOLEAN
                                    8456              .TYPEBOOL ANOP
                                    8457                       AIF   ('&VALUE' EQ 'TRUE').TRUEVAL
                                    8458                       AIF   ('&VALUE' EQ 'FALSE').FALSEVAL
                                    8459                       MNOTE 8,'INVALID BOOLEAN VALUE'
                                    8460              .TRUEVAL ANOP
                                    8461                       WITH  (VNENTRY,R2),BEGIN
                                    8462                       LA    R2,ARG&ARGNUM.(R6)
                                    8463                       CLEAR VNENTRY                 CLEAR ENTRY
                                    8464                       SET   VNBOOL                  SET BOOLEAN TYPE
                                    8465                       MVC   VNVALUE(12),=X'00000000000001000000000C'   TRUE
                                    8466                       SR    R15,R15
                                    8467                       END   , WITH (VNENTRY,R2)
                                    8468                       MEXIT
                                    8469              .FALSEVAL ANOP
                                    8470                       WITH  (VNENTRY,R2),BEGIN
                                    8471                       LA    R2,ARG&ARGNUM.(R6)
                                    8472                       CLEAR VNENTRY                 CLEAR ENTRY
                                    8473                       SET   VNBOOL                  SET BOOLEAN TYPE
                                    8474                       MVC   VNVALUE(12),=X'00000000000000000000000C'   FALSE
                                    8475                       SR    R15,R15
                                    8476                       END   , WITH (VNENTRY,R2)
                                    8477                       MEXIT
                                    8478              .*                                 DECIMAL/ARRAY RETURNS MUST
                                    8479              .*                                 BE CODED BY HAND !!!!
                                    8480                       MEND
-                                   8482              *
                                    8483              *                               TRIM BLANKS FROM END OF STRING
                                    8484                       MACRO
                                    8485              &L       PTRIM &ARGNO
                                    8486                       LA    R2,ARG&ARGNO.(R6)
                                    8487              &L       ACALL PTRIM               TRIM BLANKS, R6 - VAR ENTRY
                                    8488                       MEND
1PROC     (PROC2193) (12:51) (15MAR04) Local Macros                                                                         Page   25
0Current Usings:  (CP,R11) (CV,R12)
0Loc    Object Code    Addr1 Addr2  Stmt Lv Lineno    Source Statement           (Hibal 5, Asmedit 3.3)  HLASM R4.0  2004/03/15 12.51
+___    ______ ____    _____ _____  ____ __ ______    ______ _________
0                                   8490              *
                                    8491              *                               BAD ARGUMENT
                                    8492                       MACRO
                                    8493              &L       BADARG &ARGNO
                                    8494              &L       $L    R2,&ARGNO,OP=LA     NUMBER OF BAD ARGUMENT
                                    8495                       VCALL BADARG              THIS ROUTINE IS IN FUNC
                                    8496                       MEND
                                    8497
                                    8498              $TAB     EQU   X'05',,C'N'         EBCDIC tab character
1PROC     (PROC2193) (12:51) (15MAR04) Local Macros                                                                         Page   26
0Current Usings:  (CP,R11) (CV,R12)
0Loc    Object Code    Addr1 Addr2  Stmt Lv Lineno    Source Statement           (Hibal 5, Asmedit 3.3)  HLASM R4.0  2004/03/15 12.51
+___    ______ ____    _____ _____  ____ __ ______    ______ _________
0                                   8500              *
                                    8501              **
                                    8502              **  BINARY SEARCH INFO FOR TABLE OF SYSTEM PROCEDURES.
                                    8503              **
                                    8504              **  INITIALIZED BY INITPROC ROUTINE IN THIS MODULE.
                                    8505              *$  SHOULD GETMAIN THIS AREA TO MAKE REENTRANT !
                                    8506              **
                                    8507              *
 000018                             8508              SYSPINFO LABEL ,
                                    8510                       ENTRY SYSPINFO
 000018 0000000000000000            8511                       DC    XL(L'BSINFO)'0'
1PROC     (PROC2193) (12:51) (15MAR04) Initialize System Procedures                                                         Page   27
0Current Usings:  (CP,R11) (CV,R12)
0Loc    Object Code    Addr1 Addr2  Stmt Lv Lineno    Source Statement           (Hibal 5, Asmedit 3.3)  HLASM R4.0  2004/03/15 12.51
+___    ______ ____    _____ _____  ____ __ ______    ______ _________
0                                   8513              ¿þþþþþþþþþþþþþþþþþþþþþþþþþþþþþþþþþþþþþþþþþþþþþþþþþþþþþþþþþþþþþþþþþþþþþÜ
                                    8514              Ÿ                                                                     Ÿ
                                    8515              Ÿ                                                                     Ÿ
                                    8516              Ÿ  INITPROC - PROC MODULE INITIALIZATION                              Ÿ
                                    8517              Ÿ                                                                     Ÿ
                                    8518              Ÿ  SET UP BINARY SEARCH INFO FOR SYSTEM PROCEDURES.                   Ÿ
                                    8519              Ÿ                                                                     Ÿ
                                    8520              Ÿ                                                                     Ÿ
                                    8521              Ÿ                                                                     Ÿ
                                                      ¾þþþþþþþþþþþþþþþþþþþþþþþþþþþþþþþþþþþþþþþþþþþþþþþþþþþþþþþþþþþþþþþþþþþþþ»
0000038 50E0 D000/9008_      00000  8522              INITPROC XPROC  ,
 USING  *,R7
                                    8562
                                    8563                       COMMENT                   GET MEM FOR SYSPROC BSEARCH INFO
 000052 4100 0020            00020  8564                       LA    R0,L'BSINFO
 000056 58E0 75DE/0DEE       00630  8565                       VCALL GETCORE
 00005C 5010 C268            00268  8569                       ST    R1,CVPBINFO
                                    8570
                                    8571                       COMMENT                   PROC BSEARCH INFO
 000060 5800 C268            00268  8572                       L     R0,CVPBINFO         R0 - BSEARCH INFO
 000064 5810 75E2            00634  8573                       LA$TABLE R1,SYSEND        R1 - TOTAL POSSIBLE TABLE LEN
 000068 5820 75E6            00638  8575                       LA$TABLE R2,SYSPROCS
 00006C 1B12                        8577                       SR    R1,R2
 00006E 4120 0014            00014  8578                       LA    R2,L'RTNENTRY       R2 - ENTRY LENGTH
 000072 4130 0010            00010  8579                       LA    R3,L'RTNNAME        R3 - SEARCH LENGTH (NAME LEN)
 000076 1841                        8580                       LR    R4,R1               R4 - END OF LAST ENTRY = TAB LEN
 000078 58E0 75EA/0DEE       0063C  8581                       VCALL BSINIT
                                    8585
 00007E 18D8/9808 D004_             8586                       PEND
 DROP   *,R7
1PROC     (PROC2193) (12:51) (15MAR04) Initialize System Procedures                                                         Page   28
0Current Usings:  (CP,R11) (CV,R12)
0Loc    Object Code    Addr1 Addr2  Stmt Lv Lineno    Source Statement           (Hibal 5, Asmedit 3.3)  HLASM R4.0  2004/03/15 12.51
+___    ______ ____    _____ _____  ____ __ ______    ______ _________
0                                   8607              *
                                    8608              *
                                    8609              *  GETPROCP - GET SYSTEM PROCEDURE ROUTINE ADDRESS
                                    8610              *
                                    8611              *  ON ENTRY:
                                    8612              *    @R0 - PLACE TO RETURN ROUTINE ADDRESS
                                    8613              *    @R1 - VARIABLE NAME, LEFT JUSTIFIED BLANK PADDED
                                    8614              *
                                    8615              *  ON EXIT:
                                    8616              *    R15=Z, ROUTINE FOUND;  R15=NZ, ROUTINE NOT FOUND
                                    8617              *    R1 - POINTS TO FULL NAME OF VARIABLE (NOT SAME AS ENTRY VALUE)
                                    8618              *
                                    8619              *
                                    8620              *  NOTE:
                                    8621              *  IF ROUTINE POINTER IS ZERO, ROUTINE IS NOT DEFINED. THIS IS
                                    8622              *  SO THAT WE CAN CONTROL WHICH ABBREVAIATIONS FIND MATCHES.
                                    8623              *
                                    8624              *
 00008C 50E0 D000/9008_      00000  8625              GETPROCP XPROC ,
 USING  *,R7
                                    8665
 0000A6 1840                        8666                       LR    R4,R0
 0000A8 1851                        8667                       LR    R5,R1
                                    8668
                                    8669                       COMMENT                   SEARCH FOR SYSTEM ROUTINE
 0000AA 5800 C268            00268  8670                       L     R0,CVPBINFO
 0000AE 5810 7592            00638  8671                       LA$TABLE R1,SYSPROCS
 0000B2 1825                        8673                       LR    R2,R5 IE. NAME
 0000B4 58E0 759A/0DEE       00640  8674                       VCALL BSEARCH
                                    8678
                                    8679                       COMMENT                   IF FOUND RETURN VALUES
 0000BA 12FF/4770 7038              8680                       IF    (R15,Z),BEGIN
 0000C0 1861                        8694  1                      LR    R6,R1
 USING  RTNENTRY,R6                 8695  1                      USING RTNENTRY,R6
 0000C2 D603 6010 6010_00010 00010  8704  1                      IF    (RTNPTR,NZ),BEGIN
 0000CC D203 4000 6010 00000 00010  8720  2                        MVC   @R4(L'RTNPTR),RTNPTR
 0000D2 4110 6000            00000  8721  2                        LA    R1,RTNNAME
 DROP   RTNENTRY,R6                 8722  2                        DROP  R6
 0000D6                             8729  1                      END
 0000D6 7034/47F0 7038 000D6 000CA  8733  1                      ELSE  BEGIN               IF NO RTNPTR, RETURN R15=NZ
 0000DA 41F0 0004            00004  8744  2                        LA    R15,4
 0000DE                             8745  1                      END
 0000DE                             8749                       END
                                    8753
 0000DE 5018 0008            00008  8754                       PRETURN (R1)
 0000E2 18D8/9808 D004_             8756                       PEND
 DROP   *,R7
1PROC     (PROC2193) (12:51) (15MAR04) ENTRY/EXIT Routines for System Procedures                                            Page   29
0Current Usings:  (CP,R11) (CV,R12)
0Loc    Object Code    Addr1 Addr2  Stmt Lv Lineno    Source Statement           (Hibal 5, Asmedit 3.3)  HLASM R4.0  2004/03/15 12.51
+___    ______ ____    _____ _____  ____ __ ______    ______ _________
0                                   8777              ¿þþþþþþþþþþþþþþþþþþþþþþþþþþþþþþþþþþþþþþþþþþþþþþþþþþþþþþþþþþþþþþþþþþþþþÜ
                                    8778              Ÿ                                                                     Ÿ
                                    8779              Ÿ                                                                     Ÿ
                                    8780              Ÿ  SETARGS - CHECK PROCEDURE ARGUMENTS                                Ÿ
                                    8781              Ÿ                                                                     Ÿ
                                    8782              Ÿ  ON ENTRY:                                                          Ÿ
                                    8783              Ÿ       R0 - NUMBER OF ARGUMENTS                                      Ÿ
                                    8784              Ÿ       R1 - ADDRESS OF ARGUMENTS                                     Ÿ
                                    8785              Ÿ       R2 - TYPE LIST, AS FOLLOWS                                    Ÿ
                                    8786              Ÿ            1 BYTE: MINIMUM NUMBER OF ARGS, 0-9                      Ÿ
                                    8787              Ÿ            1 BYTE: MAXIMUM NUMBER OF ARGS, 0-9                      Ÿ
                                    8788              Ÿ            N BYTES: ARG TYPES                                       Ÿ
                                    8789              Ÿ               S - STRING                                            Ÿ
                                    8790              Ÿ               N - DECIMAL NUMBER                                    Ÿ
                                    8791              Ÿ               I - INTEGER FULLWORD (INTERNAL ONLY)                  Ÿ
                                    8792              Ÿ               W - LINE NUMBER FULLWORD (INTERNAL ONLY)              Ÿ
                                    8793              Ÿ               B - BOOLEAN                                           Ÿ
                                    8794              Ÿ               X - DON'T CARE                                        Ÿ
                                    8795              Ÿ       R6 - VARIABLE ENTRY (CONTAINS PROCEDURE/PROC NAME)            Ÿ
                                    8796              Ÿ                                                                     Ÿ
                                    8797              Ÿ  ON EXIT:                                                           Ÿ
                                    8798              Ÿ       R15 - CC=ZERO, IF ALL ARG TYPES SET OK                        Ÿ
                                    8799              Ÿ             CC=NZ, IF ERROR... ERROR MSG IS TSEG'D                  Ÿ
                                    8800              Ÿ                                                                     Ÿ
                                    8801              Ÿ                                                                     Ÿ
                                    8802              Ÿ                                                                     Ÿ
                                    8803              ŸSETARGS LABEL ,                                                      Ÿ
                                                      ¾þþþþþþþþþþþþþþþþþþþþþþþþþþþþþþþþþþþþþþþþþþþþþþþþþþþþþþþþþþþþþþþþþþþþþ»
0                                   8804                       COMMENT                   SETARGS ROUTINE IN IN FUNC
                                    8805                       COMMENT                   MODULE  !!   DIG IT !
1PROC     (PROC2193) (12:51) (15MAR04) ENTRY/EXIT Routines for System Procedures                                            Page   30
0Current Usings:  (CP,R11) (CV,R12)
0Loc    Object Code    Addr1 Addr2  Stmt Lv Lineno    Source Statement           (Hibal 5, Asmedit 3.3)  HLASM R4.0  2004/03/15 12.51
+___    ______ ____    _____ _____  ____ __ ______    ______ _________
0                                   8807              ¿þþþþþþþþþþþþþþþþþþþþþþþþþþþþþþþþþþþþþþþþþþþþþþþþþþþþþþþþþþþþþþþþþþþþþÜ
                                    8808              Ÿ                                                                     Ÿ
                                    8809              Ÿ                                                                     Ÿ
                                    8810              Ÿ  PTRIM - TRIM TRAILING BLANKS FROM A VAR ENTRY                      Ÿ
                                    8811              Ÿ                                                                     Ÿ
                                    8812              Ÿ  ON ENTRY - R2 VARIABLE ENTRY                                       Ÿ
                                    8813              Ÿ                                                                     Ÿ
                                    8814              Ÿ  ROUTINE CALLED VIA PTRIM MACRO, TO TRIM SYSTEM VARIABLES           Ÿ
                                    8815              Ÿ  THAT ARE LEFT JUSTIFIED AND PADDED WITH BLANKS, OR ALL             Ÿ
                                    8816              Ÿ  ZEROS.                                                             Ÿ
                                    8817              Ÿ                                                                     Ÿ
                                    8818              Ÿ                                                                     Ÿ
                                                      ¾þþþþþþþþþþþþþþþþþþþþþþþþþþþþþþþþþþþþþþþþþþþþþþþþþþþþþþþþþþþþþþþþþþþþþ»
00000F0 50E0 D000/9008_      00000  8819              PTRIM    PROC
 USING  *,R7
 00010A 1862                        8858                       LR    R6,R2
 USING  VNENTRY,R6                  8859                       USING VNENTRY,R6
 00010C 4120 6026            00026  8868                       LA    R2,VNSTRLOC         R2 - STRING LOCATION
 000110 4830 6024            00024  8869                       LH    R3,VNSTRLEN         R3 - STRING LEN
 000114 1B55                        8870                       SR    R5,R5
 000116 0F24                        8871                       CLCL  R2,R4
 000118 4770 701C            00126  8872                       IF    E,BEGIN             IF FIELD IS ALL ZERO,
 00011C 1B00                        8883  1                      SR    R0,R0                  RETURN NULL STRING
 00011E 4000 6024            00024  8884  1                      STH   R0,VNSTRLEN
 000122 47F0 7066            00170  8885  1                      B     TRIMDONE
 000126                             8886                       END
 000126 4120 6026            00026  8890                       LA    R2,VNSTRLOC
 00012A 4830 6024            00024  8891                       LH    R3,VNSTRLEN
 00012E 5850 753A            00644  8892                       L     R5,=X'40000000'
 000132 0F24                        8893                       CLCL  R2,R4
 000134 4770 7038            00142  8894                       IF    E,BEGIN             IF FIELD IS ALL BLANKS,
 000138 1B00                        8905  1                      SR    R0,R0                  RETURN NULL STRING
 00013A 4000 6024            00024  8906  1                      STH   R0,VNSTRLEN
 00013E 47F0 7066            00170  8907  1                      B     TRIMDONE
 000142                             8908                       END
 000142 4120 6026            00026  8912                       LA    R2,VNSTRLOC
 000146 4830 6024            00024  8913                       LH    R3,VNSTRLEN
 00014A 1A32                        8914                       AR    R3,R2               R2 - START, R3 - END OF STRING
 00014C 0630                        8915                       BCTR  R3,0
                                    8916                       COMMENT                   TRIM TRAILING BLANKS
 00014E 1932/4750 7058_             8917                       WHILE ((R3,GE,R2),AND,(@R3,EQ,' ')),' BCTR R3,0 '
 000162 4133 0001            00001  8956                       LA    R3,1(R3)
 000166 1B32                        8957                       SR    R3,R2               R3 - LENGTH AFTER TRIMMING
 000168 4030 6024            00024  8958                       STH   R3,VNSTRLEN
 00016C 47F0 7066            00170  8959                       B     TRIMDONE
 DROP   VNENTRY,R6                  8960                       DROP  R6
                                    8967
 000170                             8968              TRIMDONE LABEL ,
 000170 1BFF                        8970                       SR    R15,R15
 000172 18D8/9808 D004_             8971                       PEND
 DROP   *,R7
1PROC     (PROC2193) (12:51) (15MAR04) ENTRY/EXIT Routines for System Procedures                                            Page   31
0Current Usings:  (CP,R11) (CV,R12)
0Loc    Object Code    Addr1 Addr2  Stmt Lv Lineno    Source Statement           (Hibal 5, Asmedit 3.3)  HLASM R4.0  2004/03/15 12.51
+___    ______ ____    _____ _____  ____ __ ______    ______ _________
0                                   8992              ¿þþþþþþþþþþþþþþþþþþþþþþþþþþþþþþþþþþþþþþþþþþþþþþþþþþþþþþþþþþþþþþþþþþþþþÜ
                                    8993              Ÿ                                                                     Ÿ
                                    8994              Ÿ                                                                     Ÿ
                                    8995              Ÿ  BADARG - BAD ARGUMENT                                              Ÿ
                                    8996              Ÿ                                                                     Ÿ
                                    8997              Ÿ  ON ENTRY:                                                          Ÿ
                                    8998              Ÿ       R2 - ARGUMENT NUMBER                                          Ÿ
                                    8999              Ÿ       R6 - VAR ENTRY, CONTAINS PROCEDURE/PROCEDURE NAME             Ÿ
                                    9000              Ÿ                                                                     Ÿ
                                    9001              Ÿ  ON EXIT:                                                           Ÿ
                                    9002              Ÿ       ERROR MESSAGE IS TSEG'D                                       Ÿ
                                    9003              Ÿ                                                                     Ÿ
                                    9004              Ÿ                                                                     Ÿ
                                    9005              ŸBADARG  LABEL ,                                                      Ÿ
                                                      ¾þþþþþþþþþþþþþþþþþþþþþþþþþþþþþþþþþþþþþþþþþþþþþþþþþþþþþþþþþþþþþþþþþþþþþ»
0                                   9006                       COMMENT                   SETARGS ROUTINE IN IN FUNC
                                    9007                       COMMENT                   MODULE  !!   DIG IT !
1PROC     (PROC2193) (12:51) (15MAR04) Table of System Procedures                                                           Page   32
0Current Usings:  (CP,R11) (CV,R12)
0Loc    Object Code    Addr1 Addr2  Stmt Lv Lineno    Source Statement           (Hibal 5, Asmedit 3.3)  HLASM R4.0  2004/03/15 12.51
+___    ______ ____    _____ _____  ____ __ ______    ______ _________
0000180                             9009                       DS    0D
                                    9010              ¿þþþþþþþþþþþþþþþþþþþþþþþþþþþþþþþþþþþþþþþþþþþþþþþþþþþþþþþþþþþþþþþþþþþþþÜ
                                    9011              Ÿ                                                                     Ÿ
                                    9012              Ÿ                                                                     Ÿ
                                    9013              Ÿ  SORTED TABLE OF SYSTEM PROCEDURES,                                 Ÿ
                                    9014              Ÿ                                                                     Ÿ
                                    9015              Ÿ  FOR TABLE ENTRIES USE THE FOLLOWING MACRO:                         Ÿ
                                    9016              Ÿ       SYSPROC <PROCEDURE NAME>,<ROUTINE>                            Ÿ
                                    9017              Ÿ                                                                     Ÿ
                                    9018              Ÿ                                                                     Ÿ
                                    9019              Ÿ       **** CAUTION !!! ****                                         Ÿ
                                    9020              Ÿ  ENTRIES MUST BE SORTED ALPHABETICALLY BY NAME                      Ÿ
                                    9021              Ÿ                                                                     Ÿ
                                    9022              Ÿ                                                                     Ÿ
                                    9023              Ÿ                                                                     Ÿ
                                    9024              Ÿ                                                                     Ÿ
                                                      ¾þþþþþþþþþþþþþþþþþþþþþþþþþþþþþþþþþþþþþþþþþþþþþþþþþþþþþþþþþþþþþþþþþþþþþ»
0                                   9025                       COMMENT                   SYSTEM PROCEDURES
 000180 C3D6D3D3C5C3E36D_           9026              SYSPROCS SYSPROC COLLECT_GET_INFO,PCCOLGET
 000194 C3D6D3D3C5C3E36D_           9031                       SYSPROC COLLECT_SCAN,PCCOLSCN
 0001A8 C3D6D3D3C5C3E36D_           9036                       SYSPROC COLLECT_SET_INFO,PCCOLSET
 0001BC C3D6D4D7C1D9C56D_           9041                       SYSPROC COMPARE_LINES,PCCOMPL  ALPHABETIZE !
 0001D0 C4C9C1D3D6C74040_           9046                       SYSPROC DIALOG,PCDIALOG
 0001E4 C4D6D44040404040_           9051                       SYSPROC DOM,PCDOM
 0001F8 D2C5E86DC4C5D3C5_           9056                       SYSPROC KEY_DELETE,PCKEYDEL
 00020C D2C5E86DC7C5E340_           9061                       SYSPROC KEY_GET,PCKEYGET
 000220 D2C5E86DD7E4E340_           9066                       SYSPROC KEY_PUT,PCKEYPUT
 000234 D2C5E86DD9C5C6D9_           9071                       SYSPROC KEY_REFRESH,PCKEYREF
 000248 D2D3D6C7C9D56DC4_           9076                       SYSPROC KLOGIN_DELETE,PCKLGDEL
 00025C D2D3D6C7C9D56DC7_           9081                       SYSPROC KLOGIN_GET,PCKLGGET
 000270 D2D3D6C7C9D56DD7_           9086                       SYSPROC KLOGIN_PUT,PCKLGPUT
 000284 D3C9D5C56DC1D7D7_           9091                       SYSPROC LINE_APPEND,PCLNAPND
 000298 D3C9D5C56DC6C9D9_           9096                       SYSPROC LINE_FIRST,PCLNFRST
 0002AC D3C9D5C56DC7C5E3_           9101                       SYSPROC LINE_GET,PCLNGET       ALPHABETIZE
 0002C0 D3C9D5C56DD3C1E2_           9106                       SYSPROC LINE_LAST,PCLNLAST
 0002D4 D3C9D5C56DD5C5E7_           9111                       SYSPROC LINE_NEXT,PCLNNEXT
 0002E8 D3C9D5C56DD7D9C5_           9116                       SYSPROC LINE_PREV,PCLNPREV     ALPHABETIZE
 0002FC D3C9D5C56DD7E4E3_           9121                       SYSPROC LINE_PUT,PCLNPUT
 000310 D3C9D5E26DC6D9D6_           9126                       SYSPROC LINS_FROM_CLIENT,PCLFROMC TEST WINGS STUFF
 000324 D3C9D5E26DE3D66D_           9131                       SYSPROC LINS_TO_CLIENT,PCLTOC TEST WINGS STUFF
 000338 D4C1C9D36DC9D5C6_           9136                       SYSPROC MAIL_INFO,PCMINFO
 00034C D4C1E3C3C86DD3C9_           9141                       SYSPROC MATCH_LINES,PCMATCHL
 000360 D4E26DC2E4C9D3C4_           9146                       SYSPROC MS_BUILDHDR,PCMSHDR
 000374 D5C5E36DC3D3D6E2_           9151                       SYSPROC NET_CLOSE,PCNETCLS     ALPHABETIZE
 000388 D5C5E36DC3D6D5E3_           9156                       SYSPROC NET_CONTROL,PCNETCTL
 00039C D5C5E36DD6D7C5D5_           9161                       SYSPROC NET_OPEN,PCNETOPN
 0003B0 D5C5E36DD9C5C1C4_           9166                       SYSPROC NET_READ,PCNETRD
 0003C4 D5C5E36DD9C5C1C4_           9171                       SYSPROC NET_READFILE,PCNETRDF
 0003D8 D5C5E36DE2E3C1E3_           9176                       SYSPROC NET_STATUS,PCNETST
 0003EC D5C5E36DE3C1D3D2_           9181                       SYSPROC NET_TALK,PCNETTK
 000400 D5C5E36DE5C9C5E6_           9186                       SYSPROC NET_VIEW,PCNETVW
 000414 D5C5E36DE6D9C9E3_           9191                       SYSPROC NET_WRITE,PCNETWR
 000428 D5C5E36DE6D9C9E3_           9196                       SYSPROC NET_WRITEFILE,PCNETWRF
1PROC     (PROC2193) (12:51) (15MAR04) Table of System Procedures                                                           Page   33
0Current Usings:  (CP,R11) (CV,R12)
0Loc    Object Code    Addr1 Addr2  Stmt Lv Lineno    Source Statement           (Hibal 5, Asmedit 3.3)  HLASM R4.0  2004/03/15 12.51
+___    ______ ____    _____ _____  ____ __ ______    ______ _________
000043C D7C1E3C86DC3D3D6_           9201                       SYSPROC PATH_CLOSE,PCPATCLS    ALPHABETIZE
 000450 D7C1E3C86DC3D6D5_           9206                       SYSPROC PATH_CONTROL,PCPATCTL
 000464 D7C1E3C86DD6D7C5_           9211                       SYSPROC PATH_OPEN,PCPATOPN
 000478 D7C1E3C86DD9C5C1_           9216                       SYSPROC PATH_READ,PCPATRD
 00048C D7C1E3C86DD9C5C1_           9221                       SYSPROC PATH_READFILE,PCPATRDF
 0004A0 D7C1E3C86DE2E3C1_           9226                       SYSPROC PATH_STATUS,PCPATST
 0004B4 D7C1E3C86DE6D9C9_           9231                       SYSPROC PATH_WRITE,PCPATWR
 0004C8 D7C1E3C86DE6D9C9_           9236                       SYSPROC PATH_WRITEFILE,PCPATWRF
 0004DC D8E4C5D9E86DC6C5_           9241                       SYSPROC QUERY_FETCH,PCQFETCH
 0004F0 D9D7C36DC4C9E2D7_           9246                       SYSPROC RPC_DISPLAY_ROWS,PCDISROW
 000504 E2C3C1D540404040_           9251                       SYSPROC SCAN,PCSCAN            ALPHABETIZE
 000518 E2C3C1D56DD4C1C9_           9256                       SYSPROC SCAN_MAILHDR,RFCSCANH
 00052C E2C3C1D56DD7C1D9_           9261                       SYSPROC SCAN_PARM,PCSCANP
 000540 E3C5E2E340404040_           9266                       SYSPROC TEST,PCTEST            ALPHABETIZE
 000554 E4E2C5D9C9C46DD9_           9271                       SYSPROC USERID_REFRESH,PCUIDREF
 000568 E5C9C5E66DC3D4C4_           9276                       SYSPROC VIEW_CMD,PCVCMD
 00057C E5C9C5E66DD9D6E6_           9281                       SYSPROC VIEW_ROWGET,PCVRGET
 000590 E5C9C5E66DD9D6E6_           9286                       SYSPROC VIEW_ROWPUT,PCVRPUT    ALPHABETIZE
 0005A4 E5C9C5E66DE6C9D5_           9291                       SYSPROC VIEW_WINDGET,PCVWGET
 0005B8 E5C9C5E66DE6C9D5_           9296                       SYSPROC VIEW_WINDPUT,PCVWPUT
 0005CC E6D3D6C740404040_           9301                       SYSPROC WLOG,PCWLOG
 0005E0 E6E3D64040404040_           9306                       SYSPROC WTO,PCWTO
 0005F4 E6E3D6D940404040_           9311                       SYSPROC WTOR,PCWTOR
 000608 E7E2C3C1D5404040_           9316                       SYSPROC XSCAN,PCXSCAN     ALPHABETIZE
 00061C E9E9E9C4E4D4D4E8_           9321              SYSEND   SYSPROC ZZZDUMMY,NULL     END OF SYSTEM TABLE
                                    9326
                                    9327                       QLTORG
1PROC     (PROC2193) (12:51) (15MAR04) Routines for System Procedures                                                       Page   34
0Current Usings:  (CP,R11) (CV,R12)
0Loc    Object Code    Addr1 Addr2  Stmt Lv Lineno    Source Statement           (Hibal 5, Asmedit 3.3)  HLASM R4.0  2004/03/15 12.51
+___    ______ ____    _____ _____  ____ __ ______    ______ _________
0                                   9346              ¿þþþþþþþþþþþþþþþþþþþþþþþþþþþþþþþþþþþþþþþþþþþþþþþþþþþþþþþþþþþþþþþþþþþþþÜ
                                    9347              Ÿ                                                                     Ÿ
                                    9348              Ÿ                                                                     Ÿ
                                    9349              Ÿ  SYSTEM PROCEDURE, PROCEDURE, AND VARIABLE ROUTINES                 Ÿ
                                    9350              Ÿ                                                                     Ÿ
                                    9351              Ÿ  ****NOTE !!                                                        Ÿ
                                    9352              Ÿ  SEE COMMENTS AT START OF THIS MODULE.                              Ÿ
                                    9353              Ÿ                                                                     Ÿ
                                    9354              Ÿ                                                                     Ÿ
                                    9355              Ÿ  ON ENTRY:                                                          Ÿ
                                    9356              Ÿ       R0 - VARIABLE COUNT                                           Ÿ
                                    9357              Ÿ       R1 - ARGUMENT LIST                                            Ÿ
                                    9358              Ÿ       R6 - PROCEDURE/VARIABLE RETURN AREA                           Ÿ
                                    9359              Ÿ            (AREA WILL INITIALY CONTAIN PROCEDURE/PROC/VAR NAME)     Ÿ
                                    9360              Ÿ                                                                     Ÿ
                                    9361              Ÿ                                                                     Ÿ
                                    9362              Ÿ  ON EXIT:                                                           Ÿ
                                    9363              Ÿ       R6 - RETURNED VALUE (IF PROCEDURE, VARIABLE)                  Ÿ
                                    9364              Ÿ      R15 - CC=ZERO, ALL OK                                          Ÿ
                                    9365              Ÿ            CC=NZ, IF ERROR,,, ERROR MSG TSEG 'D                     Ÿ
                                    9366              Ÿ                                                                     Ÿ
                                    9367              Ÿ                                                                     Ÿ
                                    9368              Ÿ                                                                     Ÿ
                                                      ¾þþþþþþþþþþþþþþþþþþþþþþþþþþþþþþþþþþþþþþþþþþþþþþþþþþþþþþþþþþþþþþþþþþþþþ»
0                                   9369              ARG1     EQU   0*L'VPARM           USUALLY @R1
                                    9370              ARG2     EQU   1*L'VPARM
                                    9371              ARG3     EQU   2*L'VPARM
                                    9372              ARG4     EQU   3*L'VPARM
                                    9373              ARG5     EQU   4*L'VPARM
                                    9374              ARG6     EQU   5*L'VPARM
                                    9375              ARG7     EQU   6*L'VPARM
                                    9376              ARG8     EQU   7*L'VPARM
                                    9377
                                    9378              FNRET    EQU   0*L'VPARM           USUALLY @R6
                                    9379              *
                                    9380              *
 000000                00000 00178  9381              FNWA     RECORD BEGIN ,            GENERALIZED WORK AREA !
                                    9389  1                      XSA   R0,R8
 000000 0000000000000000            9390  1 01-XSA   +           DC    (R8+2-(R0))A(0)
 000028                             9391  1           FNWORK     DS    XL(L'VPARM)         256+ BYTE WORK AREA
 000178                00178 00178  9392                       END
                                    9401              *
                                    9402              *
                                    9403              **************** ROUTINES FOLLOW BELOW !!
                                    9404              *
                                    9405                       QLTORG
1PROC     (PROC2193) (12:51) (15MAR04) Routines for System Procedures                                                       Page   35
0Current Usings:  (CP,R11) (CV,R12)
0Loc    Object Code    Addr1 Addr2  Stmt Lv Lineno    Source Statement           (Hibal 5, Asmedit 3.3)  HLASM R4.0  2004/03/15 12.51
+___    ______ ____    _____ _____  ____ __ ______    ______ _________
0                                   9418              ¿þþþþþþþþþþþþþþþþþþþþþþþþþþþþþþþþþþþþþþþþþþþþþþþþþþþþþþþþþþþþþþþþþþþþþÜ
                                    9419              Ÿ                                                                     Ÿ
                                    9420              Ÿ  COLLECT_GET_INFO - GET COLLECT INFO                                Ÿ
                                    9421              Ÿ                                                                     Ÿ
                                    9422              Ÿ  GET EXEC COLLECT INFO,,,  THIS INFO IS VALID ONLY WHEN             Ÿ
                                    9423              Ÿ  XDUMP FLAG IS SET.                                                 Ÿ
                                    9424              Ÿ                                                                     Ÿ
                                    9425              Ÿ                                                                     Ÿ
                                                      ¾þþþþþþþþþþþþþþþþþþþþþþþþþþþþþþþþþþþþþþþþþþþþþþþþþþþþþþþþþþþþþþþþþþþþþ»
0000648 50E0 D000/9008_      00000  9426              PCCOLGET PROC
 USING  *,R7
                                    9465
                                    9466                       COMMENT                   CHECK ARGS
 000662 4120 75B6/58E0_      00C18  9467                       SETARGS '44WWWI'
 00066C 4770 708A            006EC  9474                       IF    Z,BEGIN
                                    9485  1
                                    9486  1                      COMMENT                   RETURN ARGS
 000670 4126 0000/D74F_      00000  9487  1                      PRETVAL 1,LINENO,L:CPXDPLN
 USING  VNENTRY,R2
 DROP   VNENTRY,R2
 000690 4126 0150/D74F_      00150  9535  1                      PRETVAL 2,LINENO,L:CPXDPNLN
 USING  VNENTRY,R2
 DROP   VNENTRY,R2
 0006B0 4126 02A0/D74F_      002A0  9583  1                      PRETVAL 3,LINENO,L:CPXDPDLT
 USING  VNENTRY,R2
 DROP   VNENTRY,R2
 0006D0 4126 03F0/D74F_      003F0  9631  1                      PRETVAL 4,INTEGER,L:CPXDPACT
 USING  VNENTRY,R2
 DROP   VNENTRY,R2
                                    9679  1
 0006EC                             9680                       END
 0006EC 18D8/9808 D004_             9684                       PEND
 DROP   *,R7
1PROC     (PROC2193) (12:51) (15MAR04) Routines for System Procedures                                                       Page   36
0Current Usings:  (CP,R11) (CV,R12)
0Loc    Object Code    Addr1 Addr2  Stmt Lv Lineno    Source Statement           (Hibal 5, Asmedit 3.3)  HLASM R4.0  2004/03/15 12.51
+___    ______ ____    _____ _____  ____ __ ______    ______ _________
0                                   9705              ¿þþþþþþþþþþþþþþþþþþþþþþþþþþþþþþþþþþþþþþþþþþþþþþþþþþþþþþþþþþþþþþþþþþþþþÜ
                                    9706              Ÿ                                                                     Ÿ
                                    9707              Ÿ  COLLECT_SCAN -- SCAN AND PROCESS COLLECT OPTIONS                   Ÿ
                                    9708              Ÿ                                                                     Ÿ
                                    9709              Ÿ  READ INPUT STRING, STRIPING AND PROCESSING COLLECT                 Ÿ
                                    9710              Ÿ  OPTIONS.  HOW IS THIS DONE? IT IS DONE BY SCANNING                 Ÿ
                                    9711              Ÿ  THE INPUT STRING USING THE COLPRT (COLLECT OPTIONS)                Ÿ
                                    9712              Ÿ  SCAN TABLE, ALL COLLECT OPTIONS ARE SCANED OFF.                    Ÿ
                                    9713              Ÿ  OPTIONS THAT REMAIN ARE CONCATENATED TOGETHER TO                   Ÿ
                                    9714              Ÿ  FORM A NEW STRING.  AT THE CONCLUSION OF THE SCANNING              Ÿ
                                    9715              Ÿ  WE INSPECT THE DUMP PARMS THAT HAVE BEEN SET UP                    Ÿ
                                    9716              Ÿ  AND COPY THEM TO EXEC DUMP PARMS.                                  Ÿ
                                    9717              Ÿ                                                                     Ÿ
                                    9718              Ÿ  TO PROPERLY REMOVE THE SCANNED ITEMS WE MARK ALL                   Ÿ
                                    9719              Ÿ  SCANNED ITEMS WITH 'X', WE THEN MARK ALL ITEMS                     Ÿ
                                    9720              Ÿ  SCANNED EXCLUDING THE COLLECT ITEMS WITH A 'Y'.                    Ÿ
                                    9721              Ÿ  BY REMOVING ALL THE 'X' ITEMS WE COMPLETE OUR                      Ÿ
                                    9722              Ÿ  TASK.  BUF1 IS THE 'X' 'Y' SHADOW BUFFER.                          Ÿ
                                    9723              Ÿ  RET1 WILL BE THE STRING TO RETURN.  SSTR IS THE                    Ÿ
                                    9724              Ÿ  COPY OF THE STRING WE USE FOR THE SCAN.                            Ÿ
                                    9725              Ÿ                                                                     Ÿ
                                    9726              Ÿ  FOR EXAMPLE:                                                       Ÿ
                                    9727              Ÿ  STRING:  OPT1 OPT2 COLLECT END+12 OPT3 CLEAR OPT4                  Ÿ
                                    9728              Ÿ  BUF1:    YYYY YYYY XXXXXXX XXXXXX YYYY XXXXX YYYY                  Ÿ
                                    9729              Ÿ  RET1:    OPT1 OPT2 OPT3 OPT4                                       Ÿ
                                    9730              Ÿ  RET2:    COLLECT END+12 CLEAR                                      Ÿ
                                    9731              Ÿ                                                                     Ÿ
                                    9732              Ÿ                                                                     Ÿ
                                                      ¾þþþþþþþþþþþþþþþþþþþþþþþþþþþþþþþþþþþþþþþþþþþþþþþþþþþþþþþþþþþþþþþþþþþþþ»
0000000                00000 00598  9733              PCOLWA   RECORD BEGIN
 000000                             9741  1           PCOLR0     DS    F
 000004                             9742  1           PCOLR6     DS    F
 000008                             9743  1           PCOLSTR    DS    CL(MAXSTRLN)
 000108                             9744  1           PCOLSTRL   DS    F
 00010C                             9745  1           PCOLSSTR   DS    CL(MAXSTRLN)
 00020C                             9746  1           PCOLBUF1   DS    CL(MAXSTRLN)
 00030C                             9747  1           PCOLRET1   DS    CL(MAXSTRLN)
 00040C                             9748  1           PCOLRET2   DS    CL(MAXSTRLN)
 00050C                             9749  1           PCOLRET3   DS    CL80
                                    9750  1           PCOLSG     SEGCB
 00055C 00                          9751  1 01-SEGCB +$$$SEGCB103   DS 0F
 PCOLSGCOD.PCOLSGS 01 EQ
 PCOLSGCOD.PCOLSGW 02 EQ
 PCOLSGCOD.PCOLSGC 03 EQ
 PCOLSGCOD.PCOLSGS 04 EQ
 PCOLSGCOD.PCOLSGO 05 EQ
 PCOLSGCOD.PCOLSGC 06 EQ
 PCOLSGCOD.PCOLSGM 07 EQ
 00055D 00                          9826  1 01-SEGCB +           DC    X'00'               Reserved
 00055E 0000                              1          +
 000560 00000000                    9827  1 01-SEGCB +PCOLSGMAXF   DC  A(0)                Maximum buffer length
 000564 00000000                    9828  1 01-SEGCB +PCOLSGMRKF   DC  A(0)                Length at last mark
 000568 00000000                    9829  1 01-SEGCB +PCOLSGLENF   DC  A(0)                Current length
1PROC     (PROC2193) (12:51) (15MAR04) Routines for System Procedures                                                       Page   37
0Current Usings:  (CP,R11) (CV,R12)
0Loc    Object Code    Addr1 Addr2  Stmt Lv Lineno    Source Statement           (Hibal 5, Asmedit 3.3)  HLASM R4.0  2004/03/15 12.51
+___    ______ ____    _____ _____  ____ __ ______    ______ _________
000056C 00000000                    9830  1 01-SEGCB +PCOLSGINDF   DC  A(0)                Overflow/indent count
 000570 00000000                    9831  1 01-SEGCB +PCOLSGERR   DC   A(0)                Address of error recovery routine
 000574 0000000000000000            9832  1 01-SEGCB +           DC    2F'0'               Reserved
 00057C 00000000                    9833  1 01-SEGCB +PCOLSGLOC   DC   A(0)                Location of buffer
 000580 00000000                    9834  1 01-SEGCB +PCOLSGRTN   DC   A(0)                Processing routine
 000584 0000000000000000            9835  1 01-SEGCB +           DC    4F'0'               Reserved
 000594 00000000                    9836  1 01-SEGCB +PCOLSGUSR   DC   A(0)                USER field
                                    9837  1 01-SEGCB +PCOLSG     EQU   $$$SEGCB103,*-$$$SEGCB103,C'X'
 000598                00598 00598  9838                       END
                                    9847              þþþþ
 0006FA 50E0 D000/9008_      00000  9848              PCCOLSCN PROC  PCOLWA
 USING  *,R7
 USING  PCOLWA-(4+36),R8
                                    9898
                                    9899                       COMMENT                   CHECK ARGS
 000714 4120 750C/58E0_      00C20  9900                       SETARGS '13SSS'
 00071E 4770 734C            00A60  9907                       IF    Z,BEGIN
 000722 5000 8028            00000  9918  1                      ST    R0,PCOLR0
 000726 5060 802C            00004  9919  1                      ST    R6,PCOLR6
                                    9920  1
                                    9921  1                      COMMENT                   INIT WORK AREA
 USING  VNENTRY,R5                  9922  1                      WITH  (VNENTRY,R5),BEGIN
 00072A 4151 0000            00000  9936  2                        LA    R5,ARG1(R1)
 00072E 4120 5026            00026  9937  2                        LA    R2,VNSTRLOC
 000732 4830 5024            00024  9938  2                        LH    R3,VNSTRLEN
 000736 41E0 8030            00008  9939  2                        LA    R14,PCOLSTR
 00073A 18F3                        9940  2                        LR    R15,R3
 00073C 0EE2                        9941  2                        MVCL  R14,R2
 00073E 4120 5026            00026  9942  2                        LA    R2,VNSTRLOC
 000742 4830 5024            00024  9943  2                        LH    R3,VNSTRLEN
 000746 41E0 8134            0010C  9944  2                        LA    R14,PCOLSSTR
 00074A 18F3                        9945  2                        LR    R15,R3
 00074C 0EE2                        9946  2                        MVCL  R14,R2
 00074E 4830 5024            00024  9947  2                        LH    R3,VNSTRLEN
 000752 5030 8130            00108  9948  2                        ST    R3,PCOLSTRL
 DROP   VNENTRY,R5                  9949  1                      END
                                    9957  1
                                    9958  1                      COMMENT                   SET UP SCAN
 000756 4110 8134/5800_      0010C  9959  1                      SCINIT PCOLSSTR,L:PCOLSTRL
 00076C 5810 B08C/1B00_      0008C  9983  1                      SCAN  PCOLXPRT            SCAN ALL TOKENS, MARK WITH 'X'
 0007BE 58E0 74D8/0DEE       00BEC 10015  1                      SCANCHK
                                   10020  1
                                   10021  1                      COMMENT                   SET UP SCAN
 0007C4 4110 8134/5800_      0010C 10022  1                      SCINIT PCOLSSTR,L:PCOLSTRL
 0007DA 5810 B08C/1B00_      0008C 10046  1                      SCAN  PCOLYPRT            SCAN ALL TOKENS, MARK WITH 'X'
 00082C 58E0 74D8/0DEE       00BEC 10078  1                      SCANCHK
                                   10083  1
                                   10084  1                      COMMENT                   GET STRING W/OUT COL OPTS
 000832 4120 8234            0020C 10085  1                      LA    R2,PCOLBUF1         R2,R3 - START END OF SHADOW BUF
 000836 5830 8130            00108 10086  1                      L     R3,PCOLSTRL
 00083A 1A32                       10087  1                      AR    R3,R2
 00083C 4140 8334            0030C 10088  1                      LA    R4,PCOLRET1         R4 - RESULT BUFFER
 000840 4150 8030            00008 10089  1                      LA    R5,PCOLSTR          R5 - ORIGNAL STRING
                                   10090  1                      COMMENT
1PROC     (PROC2193) (12:51) (15MAR04) Routines for System Procedures                                                       Page   38
0Current Usings:  (*,R7) (PCOLWA-(4+36),R8) (CP,R11) (CV,R12)
0Loc    Object Code    Addr1 Addr2  Stmt Lv Lineno    Source Statement           (Hibal 5, Asmedit 3.3)  HLASM R4.0  2004/03/15 12.51
+___    ______ ____    _____ _____  ____ __ ______    ______ _________
0000844 1923/47B0 7178             10091  1                      WHILE (R2,LT,R3),BEGIN    LOOP MOVING ALL BUT COL OPTS
 00084A 95E7 2000/4780_00000       10108  2                        WHILE ((@R2,NE,'X'),AND,(R2,LT,R3)),BEGIN
 000858 D200 4000 5000 00000 00000 10140  3                          MVC   0(1,R4),0(R5)
 00085E 5E20 74E0            00BF4 10141  3                          INCR  R2
 000862 5E40 74E0            00BF4 10144  3                          INCR  R4
 000866 5E50 74E0            00BF4 10147  3                          INCR  R5
 00086A 47F0 7136            0084A 10150  2                        END
 00086E 95E8 2000/4780_00000       10155  2                        WHILE ((@R2,NE,'Y'),AND,(R2,LT,R3)),BEGIN
 00087C 5E20 74E0            00BF4 10187  3                          INCR  R2
 000880 5E50 74E0            00BF4 10190  3                          INCR  R5
 000884 47F0 715A            0086E 10193  2                        END
 000888 47F0 7130            00844 10198  1                      END
                                   10203  1
                                   10204  1                      COMMENT                   RETURN STRING W/OUT COL OPTS
 00088C 5860 802C            00004 10205  1                      L     R6,PCOLR6
 000890 4110 8334            0030C 10206  1                      LA    R1,PCOLRET1
 000894 1B41                       10207  1                      SR    R4,R1
 000896 4126 0000/D74F_      00000 10208  1                      PRETVAL 1,STRING,(R1),(R4)
 USING  VNENTRY,R2
 DROP   VNENTRY,R2
                                   10294  1
                                   10295  1                      COMMENT                   IF 2ND ARG RETURN REQUESTED
 0008B8 D503 74E4 8028_00BF8 00000 10296  1                      IF    (PCOLR0,GE,2),BEGIN GET STRING WITH ONLY COL OPTS
 0008C2 4120 8234            0020C 10314  2                        LA    R2,PCOLBUF1         R2,R3 - START END OF SHADOW BUF
 0008C6 5830 8130            00108 10315  2                        L     R3,PCOLSTRL
 0008CA 1A32                       10316  2                        AR    R3,R2
 0008CC 4140 8434            0040C 10317  2                        LA    R4,PCOLRET2         R4 - RESULT BUFFER
 0008D0 4150 8030            00008 10318  2                        LA    R5,PCOLSTR          R5 - ORIGNAL STRING
                                   10319  2                        COMMENT
 0008D4 1923/47B0 7208             10320  2                        WHILE (R2,LT,R3),BEGIN    LOOP MOVING ALL BUT COL OPTS
 0008DA 95E7 2000/4780_00000       10337  3                          WHILE ((@R2,NE,'X'),AND,(R2,LT,R3)),BEGIN
 0008E8 5E20 74E0            00BF4 10369  4                            INCR  R2
 0008EC 5E50 74E0            00BF4 10372  4                            INCR  R5
 0008F0 47F0 71C6            008DA 10375  3                          END
 0008F4 95E8 2000/4780_00000       10380  3                          WHILE ((@R2,NE,'Y'),AND,(R2,LT,R3)),BEGIN
 000902 D200 4000 5000 00000 00000 10412  4                            MVC   0(1,R4),0(R5)
 000908 5E20 74E0            00BF4 10413  4                            INCR  R2
 00090C 5E40 74E0            00BF4 10416  4                            INCR  R4
 000910 5E50 74E0            00BF4 10419  4                            INCR  R5
 000914 47F0 71E0            008F4 10422  3                          END
 000918 47F0 71C0            008D4 10427  2                        END
                                   10432  2
                                   10433  2                        COMMENT                   RETURN STRING WITH COL OPTS
 00091C 5860 802C            00004 10434  2                        L     R6,PCOLR6
 000920 4110 8434            0040C 10435  2                        LA    R1,PCOLRET2
 000924 1B41                       10436  2                        SR    R4,R1
 000926 4126 0150/D74F_      00150 10437  2                        PRETVAL 2,STRING,(R1),(R4)
 USING  VNENTRY,R2
 DROP   VNENTRY,R2
 000948                            10523  1                      END   , RETURN ARG 2
1PROC     (PROC2193) (12:51) (15MAR04) Routines for System Procedures                                                       Page   39
0Current Usings:  (*,R7) (PCOLWA-(4+36),R8) (CP,R11) (CV,R12)
0Loc    Object Code    Addr1 Addr2  Stmt Lv Lineno    Source Statement           (Hibal 5, Asmedit 3.3)  HLASM R4.0  2004/03/15 12.51
+___    ______ ____    _____ _____  ____ __ ______    ______ _________
0                                  10527  1                      ¿þþþþþþþþþþþþþþþþþþþþþþþþþþþþþþþþþþþþþþþþþþþþþþþþþþþþþþþþþþþÜ
                                   10528  1                      Ÿ  Arg 3:  This is the old collect information.  If we are  Ÿ
                                   10529  1                      Ÿ     going to set new options then it is a string with     Ÿ
                                   10530  1                      Ÿ     four numbers in it; if we didn't find anything then   Ÿ
                                   10531  1                      Ÿ     it's the null string.                                 Ÿ
                                   10532  1                      ¾þþþþþþþþþþþþþþþþþþþþþþþþþþþþþþþþþþþþþþþþþþþþþþþþþþþþþþþþþþþ»
 000948 D503 74E8 8028_00BFC 00000 10533  1                      IF    (PCOLR0,GE,3),BEGIN  Return save status string...
 000952 1B00/1B11                  10551  2                        CLEAR R0,R1               Assume null string
                                   10557  2
 000956 9180 BD55/47E0_00D55       10558  2                        IF    CPFDUMP,BEGIN       We are going to set new options...
 00095E 4110 8534/4100_      0050C 10573  3                          SEGINIT PCOLRET3,,PCOLSG
                                   10600  3
 000970 5800 B7E8            007E8 10601  3                          L     R0,CPXDPLN          Dump lineno
 000974 58E0 74F0/0DEE       00C04 10602  3                          VCALL CVEXNO
 00097A 41F0 8584/58E0_      0055C 10606  3                          SEG   (R1),(R0)
 000984 4110 7511/4100_      00C25 10629  3                          SEG   ','
                                   10646  3
 000996 5800 B7EC            007EC 10647  3                          L     R0,CPXDPNLN         Next dump lineno
 00099A 58E0 74F0/0DEE       00C04 10648  3                          VCALL CVEXNO
 0009A0 41F0 8584/58E0_      0055C 10652  3                          SEG   (R1),(R0)
 0009AA 4110 7511/4100_      00C25 10675  3                          SEG   ','
                                   10692  3
 0009BC 5800 B7F4            007F4 10693  3                          L     R0,CPXDPDLT         Dump delta
 0009C0 58E0 74F0/0DEE       00C04 10694  3                          VCALL CVEXNO
 0009C6 41F0 8584/58E0_      0055C 10698  3                          SEG   (R1),(R0)
 0009D0 4110 7511/4100_      00C25 10721  3                          SEG   ','
                                   10738  3
 0009E2 5810 B7F0/1B00_      007F0 10739  3                          SEGDC L:CPXDPACT          Dump ACTNO
                                   10760  3
 0009F2 4110 8534/5800_      0050C 10761  3                          SETMSG PCOLRET3,L:PCOLSGLENF  String area
 0009FA                            10775  2                        END
                                   10779  2
 0009FA 5860 802C            00004 10780  2                        L     R6,PCOLR6
 0009FE 4126 02A0/D74F_      002A0 10781  2                        PRETVAL 3,STRING,(R1),(R0)  Return previous options
 USING  VNENTRY,R2
 DROP   VNENTRY,R2
 000A1E                            10866  1                      END
                                   10870  1                      ¿þþþþþþþþþþþþþþþþþþþþþþþþþþþþþþþþÜ
                                   10871  1                      Ÿ  Now set new collect options.  Ÿ
                                   10872  1                      ¾þþþþþþþþþþþþþþþþþþþþþþþþþþþþþþþþ»
                                   10873  1                      COMMENT                   COPY COLLECT INFO TO PERM AREA
 000A1E 9180 BD55/47E0_00D55       10874  1                      IF    CPFDUMP,BEGIN
 000A26 9680 B7E4      007E4       10889  2                        SET   CPFXDUMP
 000A2A D203 B7E8 74FC 007E8 00C10 10895  2                        MVC   CPXDPLN,=F'-1000'
 000A30 D203 B7EC BC68 007EC 00C68 10896  2                        MVC   CPXDPNLN,CPDMPLST
 000A36 D203 B7F4 BC6C 007F4 00C6C 10897  2                        MVC   CPXDPDLT,CPDMPDLT
 000A3C D203 B7F0 B57C 007F0 0057C 10898  2                        MVC   CPXDPACT,CPACTNO
 000A42 9180 BC68/47E0_00C68       10899  2                        IF    CPDMPLST.X'80',BEGIN  IF COLLECT INFO INVALID,,
 000A4A 58E0 7500/0DEE       00C14 10915  3                          VCALL ENDLNO                WE CALCULATE OUR OWN
 000A50 4740 734A            00A5E 10919  3                          IF    NL,BEGIN
 000A54 5000 B7EC            007EC 10930  4                            ST    R0,CPXDPNLN
 000A58 D203 B7F4 B738 007F4 00738 10931  4                            MVC   CPXDPDLT,CPDELTA
 000A5E                            10932  3                          END
 000A5E                            10936  2                        END
1PROC     (PROC2193) (12:51) (15MAR04) Routines for System Procedures                                                       Page   40
0Current Usings:  (*,R7) (PCOLWA-(4+36),R8) (CP,R11) (CV,R12)
0Loc    Object Code    Addr1 Addr2  Stmt Lv Lineno    Source Statement           (Hibal 5, Asmedit 3.3)  HLASM R4.0  2004/03/15 12.51
+___    ______ ____    _____ _____  ____ __ ______    ______ _________
0000A5E                            10940  1                      END
                                   10944  1
                                   10945  1                      COMMENT                   ALL OK
 000A5E 1BFF                       10946  1                      CLEAR R15
 000A60                            10950                       END   ,                   END OF VALID ARGS
                                   10954
                                   10955                       COMMENT                   EXIT
 000A60 18D8/9808 D004_            10956                       PEND
 DROP   PCOLWA-(4+36),R8
 DROP   *,R7
                                   10981
                                   10982                       SEGDEF DUMMY              (Neatness)
                                   10983              *
                                   10984              *  DUMP SCAN STUFF
                                   10985              *
 000A70 4040404040404040_          10986              PCOLXPRT SCKW  ,PCOLSCNX
                                   11001
 000A98 4040404040404040_          11002              PCOLYPRT SCKW  ,V(COLLPSH),PUSH
 000AC0 4040404040404040_          11017                       SCKW  ,PCOLSCNY
                                   11032
 USING  PCOLWA,R4                  11033                       USING PCOLWA,R4
 000AE8 50E0 D000/9008_      00000 11042              PCOLSCNX PROC  ,                   MARK SHADOW BUFFER WITH 'X'
 USING  *,R7
 000B02 4120 410C            0010C 11081                       LA    R2,PCOLSSTR          CALCULATE SHADOW BUFFER ADDR
 000B06 1B12                       11082                       SR    R1,R2
 000B08 4120 420C            0020C 11083                       LA    R2,PCOLBUF1
 000B0C 1A12                       11084                       AR    R1,R2
 000B0E 1A01                       11085                       AR    R0,R1
 000B10 1910/47B0 7020             11086                       WHILE (R1,LT,R0),BEGIN
 000B16 92E7 1000      00000       11103  1                      MVI   @R1,C'X'            MARK TOKEN WITH 'X'S
 000B1A 5E10 70F2            00BF4 11104  1                      INCR  R1
 000B1E 47F0 700E            00B10 11107                       END
 000B22 18D8/9808 D004_            11112                       PEND
 DROP   *,R7
                                   11132
 000B30 50E0 D000/9008_      00000 11133              PCOLSCNY PROC  ,                    MARK SHADOW BUFFER WITH 'Y'
 USING  *,R7
 000B4A 4120 410C            0010C 11172                       LA    R2,PCOLSSTR          CALCULATE SHADOW BUFFER ADDR
 000B4E 1B12                       11173                       SR    R1,R2
 000B50 4120 420C            0020C 11174                       LA    R2,PCOLBUF1
 000B54 1A12                       11175                       AR    R1,R2
 000B56 1A01                       11176                       AR    R0,R1
 000B58 1910/47B0 7020             11177                       WHILE (R1,LT,R0),BEGIN
 000B5E 92E8 1000      00000       11194  1                      MVI   @R1,C'Y'            MARK TOKEN WITH 'Y'S
 000B62 5E10 70AA            00BF4 11195  1                      INCR  R1
 000B66 47F0 700E            00B58 11198                       END
 000B6A 18D8/9808 D004_            11203                       PEND
 DROP   *,R7
 DROP   PCOLWA,R4                  11223                       DROP  R4
1PROC     (PROC2193) (12:51) (15MAR04) Routines for System Procedures                                                       Page   41
0Current Usings:  (CP,R11) (CV,R12)
0Loc    Object Code    Addr1 Addr2  Stmt Lv Lineno    Source Statement           (Hibal 5, Asmedit 3.3)  HLASM R4.0  2004/03/15 12.51
+___    ______ ____    _____ _____  ____ __ ______    ______ _________
0                                  11231              ¿þþþþþþþþþþþþþþþþþþþþþþþþþþþþþþþþþþþþþþþþþþþþþþþþþþþþþþþþþþþþþþþþþþþþþÜ
                                   11232              Ÿ                                                                     Ÿ
                                   11233              Ÿ  COLLECT SET INFO                                                   Ÿ
                                   11234              Ÿ                                                                     Ÿ
                                   11235              Ÿ  THIS INFORMATION WILL BE USED ONLY IF XDUMP FLAG IS SET.           Ÿ
                                   11236              Ÿ                                                                     Ÿ
                                   11237              Ÿ                                                                     Ÿ
                                   11238              Ÿ                                                                     Ÿ
                                                      ¾þþþþþþþþþþþþþþþþþþþþþþþþþþþþþþþþþþþþþþþþþþþþþþþþþþþþþþþþþþþþþþþþþþþþþ»
0000B78 50E0 D000/9008_      00000 11239              PCCOLSET PROC
 USING  *,R7
                                   11278
                                   11279                       COMMENT                   CHECK ARGS
 000B92 4120 7086/58E0_      00C18 11280                       SETARGS '44WWWI'
 000B9C 4770 7038            00BCA 11287                       IF    Z,BEGIN
                                   11298  1
                                   11299  1                      COMMENT                   GET, THEN SET INFO
 USING  VNENTRY,R5                 11300  1                      WITH  (VNENTRY,R5),BEGIN
                                   11314  2                        COMMENT                   LAST LINE DUMPED, ALWAYS SET TO
 000BA0 D203 B7E8 707E 007E8 00C10 11315  2                        MVC   CPXDPLN,=F'-1000'   NONE (-1.000)
 000BA6 4151 0150            00150 11316  2                        LA    R5,ARG2(R1)         NEXT LINENO FOR DUMP
 000BAA 5820 5024            00024 11317  2                        L     R2,VNVALUE
 000BAE 5020 B7EC            007EC 11318  2                        ST    R2,CPXDPNLN
 000BB2 4151 02A0            002A0 11319  2                        LA    R5,ARG3(R1)
 000BB6 5820 5024            00024 11320  2                        L     R2,VNVALUE
 000BBA 5020 B7F4            007F4 11321  2                        ST    R2,CPXDPDLT         DELTA
 000BBE 4151 03F0            003F0 11322  2                        LA    R5,ARG4(R1)
 000BC2 5820 5024            00024 11323  2                        L     R2,VNVALUE
 000BC6 5020 B7F0            007F0 11324  2                        ST    R2,CPXDPACT         ACTIVE FILE NUMBER
 DROP   VNENTRY,R5                 11325  1                      END
                                   11333  1
 000BCA                            11334                       END   , OF VALID ARGS
 000BCA 18D8/9808 D004_            11338                       PEND
 DROP   *,R7
                                   11358
                                   11359                       QLTORG
1PROC     (PROC2193) (12:51) (15MAR04) Routines for System Procedures                                                       Page   42
0Current Usings:  (CP,R11) (CV,R12)
0Loc    Object Code    Addr1 Addr2  Stmt Lv Lineno    Source Statement           (Hibal 5, Asmedit 3.3)  HLASM R4.0  2004/03/15 12.51
+___    ______ ____    _____ _____  ____ __ ______    ______ _________
0                                  11392              ¿þþþþþþþþþþþþþþþþþþþþþþþþþþþþþþþþþþþþþþþþþþþþþþþþþþþþþþþþþþþþþþþþþþþþþÜ
                                   11393              Ÿ                                                                     Ÿ
                                   11394              Ÿ                                                                     Ÿ
                                   11395              Ÿ  COMPARE_LINES ( LINENO1 , LINENO2 [,ACTNO1 , ACTNO2] )             Ÿ
                                   11396              Ÿ                                                                     Ÿ
                                   11397              Ÿ                                                                     Ÿ
                                   11398              Ÿ  SEE COMMENTS AT START OF MODULE                                    Ÿ
                                   11399              Ÿ                                                                     Ÿ
                                                      ¾þþþþþþþþþþþþþþþþþþþþþþþþþþþþþþþþþþþþþþþþþþþþþþþþþþþþþþþþþþþþþþþþþþþþþ»
0000000                00000 0015C 11400              CLWA     RECORD BEGIN
                                   11408  1                      XSA   R0,R8
 000000 0000000000000000           11409  1 01-XSA   +           DC    (R8+2-(R0))A(0)
 000028                            11410  1           CLLNO1     DS    F                   START OF 1ST RANGE
 00002C                            11411  1           CLLNO2     DS    F                   START OF 2ND RANGE
 000030                            11412  1           CLACTNO1   DS    F                   ACTIVE FILE NUMBER 1
 000034                            11413  1           CLACTNO2   DS    F                   ACTIVE FILE NUMBER 2
 000038                            11414  1           CLNDX1     DS    F                   INDEX INTO 1ST RANGE
 00003C                            11415  1           CLCNT1     DS    F                   COUNT OF LINES IN 1ST BUFFER
 000040                            11416  1           CLLEN1     DS    F                   LENGTH OF DATA IN 1ST BUFFER
 000044                            11417  1           CLBUF1     DS    F                   ADDRESS OF 1ST BUFFER
 000048                            11418  1           CLBUF1A    DS    F                   ADDRESS OF 1ST BUFFER LINE NOS
 00004C                            11419  1           CLNDX2     DS    F                   INDEX INTO 2ND RANGE
 000050                            11420  1           CLCNT2     DS    F                   COUNT OF LINES IN 2ND BUFFER
 000054                            11421  1           CLLEN2     DS    F                   LENGTH OF DATA IN 2ND BUFFER
 000058                            11422  1           CLBUF2     DS    F                   ADDRESS OF 2ND BUFFER
 00005C                            11423  1           CLBUF2A    DS    F                   ADDRESS OF 2ND BUFFER LINE NOS
 000060                            11424  1           CLRETPTR   DS    F                   RETURN PARAMETER AREA POINTER
 000064                            11425  1           CLTEMPLN   DS    F                   TEMP LINENO
                                   11426  1           CLTEMPBF   DS    CL(&LINESZ)         TEMP BUFFER
 000068                                   1          +CLTEMPBF   DS    CL(235)             TEMP BUFFER
 000154                            11427  1           CLNOMAT1   DS    F                   NON MATCHING LINENO #1
 000158                            11428  1           CLNOMAT2   DS    F                   NON MATCHING LINENO #2
                                   11429  1           CLMAXCNT   EQU   100                 BUFFER 100 LINES AT A TIME
                                   11430  1           CLBUFSZ    EQU   8192                TEXT BUFFER SIZE
                                   11431  1           CLLBUFSZ   EQU   512                 LINE BUFFER SIZE
 00015C                            11432  1                      DS    0S(CLLBUFSZ-((CLMAXCNT*4)+16))
 00015C                0015C 0015C 11433                       END
                                   11442              *
                                   11443              *
 000C38 50E0 D000/9008_      00000 11444              PCCOMPL  PROC  CLWA
 USING  *,R7
 USING  CLWA-(4+36),R8
                                   11494
                                   11495                       COMMENT                   CHECK PARMS
 000C52 4120 72F6/58E0_      00F48 11496                       SETARGS '24WWII'          2 ARGS: BOTH LINE NUMBERS
 000C5C 4770 729A            00EEC 11503                       BNZ   CLDONE              2 OPTIONAL ARGS: BOTH INTEGERS
 000C60 5060 8088            00060 11504                       ST    R6,CLRETPTR
                                   11505
                                   11506                       COMMENT                   GET LINE NUMBERS
 USING  VNENTRY,R5                 11507                       USING VNENTRY,R5
 000C64 4151 0000            00000 11516                       LA    R5,ARG1(R1)
 000C68 5820 5024            00024 11517                       L     R2,VNVALUE
 000C6C 5020 8050            00028 11518                       ST    R2,CLLNO1
1PROC     (PROC2193) (12:51) (15MAR04) Routines for System Procedures                                                       Page   43
0Current Usings:  (VNENTRY,R5) (*,R7) (CLWA-(4+36),R8) (CP,R11) (CV,R12)
0Loc    Object Code    Addr1 Addr2  Stmt Lv Lineno    Source Statement           (Hibal 5, Asmedit 3.3)  HLASM R4.0  2004/03/15 12.51
+___    ______ ____    _____ _____  ____ __ ______    ______ _________
0000C70 4151 0150            00150 11519                       LA    R5,ARG2(R1)
 000C74 5820 5024            00024 11520                       L     R2,VNVALUE
 000C78 5020 8054            0002C 11521                       ST    R2,CLLNO2
                                   11522
                                   11523                       COMMENT                   GET ACTIVE FILE NUMBERS, IF ANY
 000C7C D703 8058 8058 00030 00030 11524                       CLEAR CLACTNO1            ASSUME NONE
 000C82 D703 805C 805C 00034 00034 11531                       CLEAR CLACTNO2
 000C88 5900 72B2/4770_      00F04 11538                       IF    (R0,EQ,3),BEGIN
 000C90 4110 730E/4100_      00F60 11555  1                      TSEG  'Both (if any) active file numbers must be used.',,CR
 000CA2 4120 0003/58E0_      00003 11573  1                      BADARG 3
 000CAC 47F0 729A            00EEC 11584  1                      EXIT   PCCOMPL
 000CB0                            11587                       END
 000CB0 5900 72BE/4770_      00F10 11591                       IF    (R0,EQ,4),BEGIN
 000CB8 4151 02A0            002A0 11608  1                      LA    R5,ARG3(R1)
 000CBC 5820 5024            00024 11609  1                      L     R2,VNVALUE
 000CC0 5020 8058            00030 11610  1                      ST    R2,CLACTNO1
 000CC4 1222/4720 7086             11611  1                      IF    (R2,NP),BEGIN
 000CCA 4120 0003/58E0_      00003 11625  2                        BADARG 3
 000CD4 47F0 729A            00EEC 11636  2                        EXIT   PCCOMPL
 000CD8                            11639  1                      END
 000CD8 4151 03F0            003F0 11643  1                      LA    R5,ARG4(R1)
 000CDC 5820 5024            00024 11644  1                      L     R2,VNVALUE
 000CE0 5020 805C            00034 11645  1                      ST    R2,CLACTNO2
 000CE4 1222/4720 70A6             11646  1                      IF    (R2,NP),BEGIN
 000CEA 4120 0004/58E0_      00004 11660  2                        BADARG 4
 000CF4 47F0 729A            00EEC 11671  2                        EXIT   PCCOMPL
 000CF8                            11674  1                      END
 000CF8                            11678                       END
 DROP   VNENTRY,R5                 11682                       DROP  R5
                                   11689
                                   11690                       COMMENT                   CHECK FOR VOID/EQUIVALENT RANGES
 000CF8 D203 808C 8050 00064 00028 11691                       MVC   CLTEMPLN,CLLNO1
 000CFE 4110 8090            00068 11692                       LA    R1,CLTEMPBF
 000D02 4120 808C            00064 11693                       LA    R2,CLTEMPLN
 000D06 5830 8058            00030 11694                       L     R3,CLACTNO1
 000D0A 58E0 72C2/0DEE       00F14 11695                       VCALL GTFRST
 000D10 4780 70DC            00D2E 11699                       IF    NZ,BEGIN
 000D14 4110 72FC/4100_      00F4E 11710  1                      TSEG  'No lines in range.'
 000D26 41F0 0004            00004 11728  1                      LA    R15,4
 000D2A 47F0 729A            00EEC 11729  1                      B     CLDONE
 000D2E                            11730                       END
 000D2E D203 808C 8054 00064 0002C 11734                       MVC   CLTEMPLN,CLLNO2
 000D34 4110 8090            00068 11735                       LA    R1,CLTEMPBF
 000D38 4120 808C            00064 11736                       LA    R2,CLTEMPLN
 000D3C 5830 805C            00034 11737                       L     R3,CLACTNO2
 000D40 58E0 72C2/0DEE       00F14 11738                       VCALL GTFRST
 000D46 4780 7112            00D64 11742                       IF    NZ,BEGIN
 000D4A 4110 72FC/4100_      00F4E 11753  1                      TSEG  'No lines in range.'
 000D5C 41F0 0004            00004 11771  1                      LA    R15,4
 000D60 47F0 729A            00EEC 11772  1                      B     CLDONE
 000D64                            11773                       END
                                   11777
                                   11778                       COMMENT                   GET COMPARE BUFFERS
 000D64 5810 72CA            00F1C 11779                       L     R1,=AL4(CLBUFSZ)
1PROC     (PROC2193) (12:51) (15MAR04) Routines for System Procedures                                                       Page   44
0Current Usings:  (*,R7) (CLWA-(4+36),R8) (CP,R11) (CV,R12)
0Loc    Object Code    Addr1 Addr2  Stmt Lv Lineno    Source Statement           (Hibal 5, Asmedit 3.3)  HLASM R4.0  2004/03/15 12.51
+___    ______ ____    _____ _____  ____ __ ______    ______ _________
0000D68 182D/1AD1/41D0_            11780                       XPUSH ,,(R1),PTR=R2
 000D74 5020 806C            00044 11785                       ST    R2,CLBUF1
 000D78 5810 72D2            00F24 11786                       L     R1,=AL4(CLLBUFSZ)
 000D7C 182D/1AD1/41D0_            11787                       XPUSH ,,(R1),PTR=R2
 000D88 5020 8070            00048 11792                       ST    R2,CLBUF1A
 000D8C 5810 72CA            00F1C 11793                       L     R1,=AL4(CLBUFSZ)
 000D90 182D/1AD1/41D0_            11794                       XPUSH ,,(R1),PTR=R2
 000D9C 5020 8080            00058 11799                       ST    R2,CLBUF2
 000DA0 5810 72D2            00F24 11800                       L     R1,=AL4(CLLBUFSZ)
 000DA4 182D/1AD1/41D0_            11801                       XPUSH ,,(R1),PTR=R2
 000DB0 5020 8084            0005C 11806                       ST    R2,CLBUF2A
                                   11807                       ¿þþþþþþþþþþþþþþþþþþþþþþþþþþþþþþþþþþþþþÜ
                                   11808                       Ÿ  COMPARE LOOP  (BUFFERED COMPARES)  Ÿ
                                   11809                       ¾þþþþþþþþþþþþþþþþþþþþþþþþþþþþþþþþþþþþþ»
                                   11810                       COMMENT                   LOOP COMPARING RANGES
                                   11811                       COMMENT
 000DB4 D203 8060 8050 00038 00028 11812                       MVC   CLNDX1,CLLNO1       SET UP LOOP LINE INDEXES
 000DBA D203 8074 8054 0004C 0002C 11813                       MVC   CLNDX2,CLLNO2
 000DC0 1BFF                       11814                       CLEAR R15
 000DC2 12FF/4770 7224             11818                       WHILE (R15,Z),BEGIN       WHILE RANGES COMPARE, CONTINUE
                                   11834  1
                                   11835  1                      COMMENT                   READ IN BUFFER #1
 000DC8 5800 8060            00038 11836  1                      L     R0,CLNDX1           SEE READBUF ROUTINE COMMENTS
 000DCC 5810 806C            00044 11837  1                      L     R1,CLBUF1
 000DD0 5820 8070            00048 11838  1                      L     R2,CLBUF1A
 000DD4 5830 72D6            00F28 11839  1                      L     R3,=A(CLBUFSZ)
 000DD8 4140 0064            00064 11840  1                      LA    R4,CLMAXCNT
 000DDC 1B55                       11841  1                      CLEAR R5
 000DDE 5860 8058            00030 11845  1                      L     R6,CLACTNO1
 000DE2 58F0 72DA            00F2C 11846  1                      L     R15,=X'FD000000'
 000DE6 58E0 72DE/0DEE       00F30 11847  1                      ACALL READBUF
 000DEC 5000 8068            00040 11851  1                      ST    R0,CLLEN1
 000DF0 5010 8064            0003C 11852  1                      ST    R1,CLCNT1
 000DF4 5A20 72E2            00F34 11853  1                      A     R2,=F'1'
                                   11854  1           *        VCALL ADDER               LINENO BUMPED ABOVE
 000DF8 5020 8060            00038 11855  1                      ST    R2,CLNDX1
                                   11856  1
                                   11857  1                      COMMENT                   READ IN BUFFER #2
 000DFC 5800 8074            0004C 11858  1                      L     R0,CLNDX2           SEE READBUF ROUTINES COMMENTS
 000E00 5810 8080            00058 11859  1                      L     R1,CLBUF2
 000E04 5820 8084            0005C 11860  1                      L     R2,CLBUF2A
 000E08 5830 72D6            00F28 11861  1                      L     R3,=A(CLBUFSZ)
 000E0C 4140 0064            00064 11862  1                      LA    R4,CLMAXCNT
 000E10 1B55                       11863  1                      CLEAR R5
 000E12 5860 805C            00034 11867  1                      L     R6,CLACTNO2
 000E16 58F0 72E6            00F38 11868  1                      L     R15,=X'FE000000'
 000E1A 58E0 72DE/0DEE       00F30 11869  1                      ACALL READBUF
 000E20 5000 807C            00054 11873  1                      ST    R0,CLLEN2
 000E24 5010 8078            00050 11874  1                      ST    R1,CLCNT2
 000E28 5A20 72E2            00F34 11875  1                      A     R2,=F'1'
                                   11876  1           *        VCALL ADDER               LINENO BUMPED ABOVE
 000E2C 5020 8074            0004C 11877  1                      ST    R2,CLNDX2
                                   11878  1
                                   11879  1                      COMMENT                   CHECK FOR NULL RANGES
1PROC     (PROC2193) (12:51) (15MAR04) Routines for System Procedures                                                       Page   45
0Current Usings:  (*,R7) (CLWA-(4+36),R8) (CP,R11) (CV,R12)
0Loc    Object Code    Addr1 Addr2  Stmt Lv Lineno    Source Statement           (Hibal 5, Asmedit 3.3)  HLASM R4.0  2004/03/15 12.51
+___    ______ ____    _____ _____  ____ __ ______    ______ _________
0                                  11880  1                      COMMENT ,                 (NULL RANGES TREATED AS FAILED
                                   11881  1                      COMMENT ,                  COMPARE.)
 000E30 D503 72AA 8068_00EFC 00040 11882  1                      IF    ((CLLEN1,EQ,0),AND,(CLLEN2,EQ,0)),BEGIN
 000E44 5800 72EA            00F3C 11917  2                        L     R0,=F'-1000'
 000E48 5810 72EA            00F3C 11918  2                        L     R1,=F'-1000'
 000E4C 41F0 0004            00004 11919  2                        LA    R15,4
 000E50                            11920  1                      END
                                   11924  1
                                   11925  1                      COMMENT                   COMPARE RANGE
 000E50 7202/7202/47F0_00E50 00E38 11926  1                      ELSE  BEGIN               (IF RANGES NOT NULL)
 000E54 5800 806C            00044 11939  2                        L     R0,CLBUF1
 000E58 5810 8068            00040 11940  2                        L     R1,CLLEN1
 000E5C 5820 8080            00058 11941  2                        L     R2,CLBUF2
 000E60 5830 807C            00054 11942  2                        L     R3,CLLEN2
 000E64 5840 8070            00048 11943  2                        L     R4,CLBUF1A
 000E68 5850 8084            0005C 11944  2                        L     R5,CLBUF2A
 000E6C 58E0 72EE/0DEE       00F40 11945  2                        ACALL COMPRBUF
 000E72                            11949  1                      END   , OF NON-NULL RANGES
 000E72 47F0 7170            00DC2 11953                       END   , OF LOOP COMPARING LINES
                                   11958
                                   11959                       COMMENT                   RETURN COMPARE VALUES
 000E76 5860 8088            00060 11960                       L     R6,CLRETPTR
 000E7A 5000 817C            00154 11961                       ST    R0,CLNOMAT1
 000E7E 5010 8180            00158 11962                       ST    R1,CLNOMAT2
 000E82 4126 0000/D74F_      00000 11963                       PRETVAL 1,LINENO,L:CLNOMAT1
 USING  VNENTRY,R2
 DROP   VNENTRY,R2
 000EA2 4126 0150/D74F_      00150 12011                       PRETVAL 2,LINENO,L:CLNOMAT2
 USING  VNENTRY,R2
 DROP   VNENTRY,R2
 000EC2 1BFF                       12059                       CLEAR R15
                                   12063
                                   12064                       COMMENT                   RETURN BUFFERS TO STACK
 000EC4 5810 72CA            00F1C 12065                       L     R1,=AL4(CLBUFSZ)
 000EC8 1BD1/54D0 72CE             12066                       XPOP  ,,(R1)
 000ECE 5810 72D2            00F24 12069                       L     R1,=AL4(CLLBUFSZ)
 000ED2 1BD1/54D0 72CE             12070                       XPOP  ,,(R1)
 000ED8 5810 72CA            00F1C 12073                       L     R1,=AL4(CLBUFSZ)
 000EDC 1BD1/54D0 72CE             12074                       XPOP  ,,(R1)
 000EE2 5810 72D2            00F24 12077                       L     R1,=AL4(CLLBUFSZ)
 000EE6 1BD1/54D0 72CE             12078                       XPOP  ,,(R1)
                                   12081              *
                                   12082              *
 000EEC                            12083              CLDONE   LABEL ,
 000EEC 18D8/9808 D004_            12085                       PEND
 DROP   CLWA-(4+36),R8
 DROP   *,R7
                                   12110
                                   12111                       QLTORG
1PROC     (PROC2193) (12:51) (15MAR04) Routines for System Procedures                                                       Page   46
0Current Usings:  (CP,R11) (CV,R12)
0Loc    Object Code    Addr1 Addr2  Stmt Lv Lineno    Source Statement           (Hibal 5, Asmedit 3.3)  HLASM R4.0  2004/03/15 12.51
+___    ______ ____    _____ _____  ____ __ ______    ______ _________
0                                  12146              ¿þþþþþþþþþþþþþþþþþþþþþþþþþþþþþþþþþþþþþþþþþþþþþþþþþþþþþþþþþþþþþþþþþþþþþÜ
                                   12147              Ÿ                                                                     Ÿ
                                   12148              Ÿ  DIALOG(type, message-string, prompt-string, option-string,         Ÿ
                                   12149              Ÿ               returned-text, rc)                                    Ÿ
                                   12150              Ÿ                                                                     Ÿ
                                   12151              Ÿ    Do terminal input dialog.                                        Ÿ
                                   12152              Ÿ                                                                     Ÿ
                                                      ¾þþþþþþþþþþþþþþþþþþþþþþþþþþþþþþþþþþþþþþþþþþþþþþþþþþþþþþþþþþþþþþþþþþþþþ»
0000000                00000 001BC 12153              DWA      RECORD BEGIN
 000000                            12161  1           DWAID      DS    C'DWA'              Self identification
                                   12162  1
 000003 00                         12163  1           DWAFLAG    FLAG
                                   12167  1
 000004                            12168  1           DWAARGP    DS    A                   Argument list ptr
 000008                            12169  1           DWANARGS   DS    F                   Number of args passed
                                   12170  1                      ¿þþþþþþþþþþþþþþþþþþþþþþþþþþþþÜ
                                   12171  1                      Ÿ  SAMDIALG parameter list.  Ÿ
                                   12172  1                      ¾þþþþþþþþþþþþþþþþþþþþþþþþþþþþ»
 00000C                            12173  1           DWAPARMS   DS    0F                  SAMDIALG parameter list...
 00000C                            12174  1           DWADPTYP   DS    2A                  [Order]  Type text len, loc
 000014                            12175  1           DWADPMSG   DS    2A                  [Order]  Message text len, loc
 00001C                            12176  1           DWADPPRM   DS    2A                  [Order]  Prompt text len, loc
 000024                            12177  1           DWADPOPT   DS    2A                  [Order]  Option text len, loc
 00002C                            12178  1           DWADPRC    DS    2A                  [Order]  Return code text ptrs
 000034                            12179  1           DWADPRT    DS    2A                  [Order]  Return text ptrs
                                   12180  1
 00003C                            12181  1           DWARC      DS    CL128               Return code area
 0000BC                            12182  1           DWATEXT    DS    CL256               Return text area
 0001BC                001BC 001BC 12183                       END
                                   12192              þþþþ
 000F90 50E0 D000/9008_      00000 12193              PCDIALOG PROC  DWA
 USING  *,R7
 USING  DWA-(4+36),R8
 000FAA D7FF 8028 8028_00000 00000 12243                       CLEAR DWA
 000FB6 D202 8028 7B1C 00000 01AC6 12251                       MVC   DWA(3),=C'DWA'
                                   12252
 000FBC 5000 8030            00008 12253                       ST    R0,DWANARGS         Number of arguments
 000FC0 5010 802C            00004 12254                       ST    R1,DWAARGP          Arglist ptr
 000FC4 4120 8028            00000 12255                       LA    R2,DWA
 000FC8 5020 BCA4            00CA4 12256                       ST    R2,CPCWA
                                   12257
 000FCC 4120 7A46/58E0_      019F0 12258                       SETARGS '46SSSSSS'        4-6 args: all strings
 000FD6 4770 711C            010C6 12265                       BNZ   DLGEXIT
                                   12266
 USING  VNENTRY,R5                 12267                       WITH  (VNENTRY,R5)
                                   12280
 000FDA D503 7A72 8030_01A1C 00008 12281                       IF    (DWANARGS,GE,6),BEGIN
 000FE4 4126 0540/D74F_      00540 12299  1                      PRETVAL 5,STRING,0,0      Pre-set null string (neatness)
 DROP   VNENTRY,R5
 USING  VNENTRY,R2
 USING  VNENTRY,R5
 DROP   VNENTRY,R2
 001008                            12401                       END
1PROC     (PROC2193) (12:51) (15MAR04) Routines for System Procedures                                                       Page   47
0Current Usings:  (VNENTRY,R5) (*,R7) (DWA-(4+36),R8) (CP,R11) (CV,R12)
0Loc    Object Code    Addr1 Addr2  Stmt Lv Lineno    Source Statement           (Hibal 5, Asmedit 3.3)  HLASM R4.0  2004/03/15 12.51
+___    ______ ____    _____ _____  ____ __ ______    ______ _________
0                                  12405                       ¿þþþþþþþþþþþþþþþþþþþþþþþþþþþþþþþþÜ
                                   12406                       Ÿ  Build Dialog parameter list.  Ÿ
                                   12407                       ¾þþþþþþþþþþþþþþþþþþþþþþþþþþþþþþþþ»
 001008 4150 0000            00000 12408                       LA    R5,ARG1
 00100C 5A50 802C            00004 12409                       A     R5,DWAARGP          1st argument: dialog type
 001010 4110 5026/4800_      00026 12410                       SETMSG VNSTRLOC,LH:VNSTRLEN
 001018 9001 8034            0000C 12423                       STM   R0,R1,DWADPTYP
                                   12424
 00101C 4150 0150            00150 12425                       LA    R5,ARG2
 001020 5A50 802C            00004 12426                       A     R5,DWAARGP          2st argument: message text
 001024 4110 5026/4800_      00026 12427                       SETMSG VNSTRLOC,LH:VNSTRLEN
 00102C 9001 803C            00014 12440                       STM   R0,R1,DWADPMSG
                                   12441
 001030 4150 02A0            002A0 12442                       LA    R5,ARG3
 001034 5A50 802C            00004 12443                       A     R5,DWAARGP          3st argument: prompt text
 001038 4110 5026/4800_      00026 12444                       SETMSG VNSTRLOC,LH:VNSTRLEN
 001040 9001 8044            0001C 12457                       STM   R0,R1,DWADPPRM
                                   12458
 001044 4150 03F0            003F0 12459                       LA    R5,ARG4
 001048 5A50 802C            00004 12460                       A     R5,DWAARGP          4st argument: option text
 00104C 4110 5026/4800_      00026 12461                       SETMSG VNSTRLOC,LH:VNSTRLEN
 001054 9001 804C            00024 12474                       STM   R0,R1,DWADPOPT
                                   12475
 001058 4110 8064/4100_      0003C 12476                       SETMSG DWARC
 001060 9001 8054            0002C 12490                       STM   R0,R1,DWADPRC       Save return code ptrs
                                   12491
 001064 4110 80E4/4100_      000BC 12492                       SETMSG DWATEXT
 00106C 9001 805C            00034 12506                       STM   R0,R1,DWADPRT       Save return text ptrs
                                   12507
 001070 4110 8034            0000C 12508                       LA    R1,DWAPARMS         Parameter list
 001074 58E0 7A76/0DEE       01A20 12509                       VCALL SAMDIALG            Do Samson dialog
 00107A 4770 70FC            010A6 12513                       IF    Z,BEGIN             Normal completion...
 00107E 4126 0540/D74F_      00540 12524  1                      PRETVAL 5,STRING,(R1),(R0)  Return text
 DROP   VNENTRY,R5
 USING  VNENTRY,R2
 USING  VNENTRY,R5
 DROP   VNENTRY,R2
 00109E 4110 7AE2/4100_      01A8C 12626  1                      SETMSG 'OK'
 0010A6                            12630                       END
                                   12634
 0010A6 4126 0690/D74F_      00690 12635                       PRETVAL 6,STRING,(R1),(R0)  Return code
 DROP   VNENTRY,R5
 USING  VNENTRY,R2
 USING  VNENTRY,R5
 DROP   VNENTRY,R2
                                   12737
 0010C6 18D8/9808 D004_            12738              DLGEXIT  PEND
 DROP   VNENTRY,R5
 DROP   DWA-(4+36),R8
 DROP   *,R7
1PROC     (PROC2193) (12:51) (15MAR04) Routines for System Procedures                                                       Page   48
0Current Usings:  (CP,R11) (CV,R12)
0Loc    Object Code    Addr1 Addr2  Stmt Lv Lineno    Source Statement           (Hibal 5, Asmedit 3.3)  HLASM R4.0  2004/03/15 12.51
+___    ______ ____    _____ _____  ____ __ ______    ______ _________
0                                  12770              ¿þþþþþþþþþþþþþþþþþþþþþþþþþþþþþþþþþþþþþþþþþþþþþþþþþþþþþþþþþþþþþþþþþþþþþÜ
                                   12771              Ÿ                                                                     Ÿ
                                   12772              Ÿ  DOM(wto-id)                                                        Ÿ
                                   12773              Ÿ                                                                     Ÿ
                                   12774              Ÿ    Delete a previously written WTO (see SYSCALL WTO).               Ÿ
                                   12775              Ÿ                                                                     Ÿ
                                                      ¾þþþþþþþþþþþþþþþþþþþþþþþþþþþþþþþþþþþþþþþþþþþþþþþþþþþþþþþþþþþþþþþþþþþþþ»
00010D4 50E0 D000/9008_      00000 12776              PCDOM    PROC
 USING  *,R7
                                   12815
 0010EE 4120 79DB/58E0_      01AC9 12816                       SETARGS '11I'             1 arg: num
 0010F8 4770 701E            0110C 12823                       BNZ   DOMEXIT
                                   12824
 USING  VNENTRY,R5                 12825                       WITH  (VNENTRY,R5)
 0010FC 4151 0000            00000 12838                       LA    R5,ARG1(R1)
                                   12839                       ¿þþþþþþþþþþþÜ
                                   12840                       Ÿ  Do DOM.  Ÿ
                                   12841                       ¾þþþþþþþþþþþ»
 001100 5810 5024            00024 12842                       L     R1,VNVALUE          Get WTO id
 001104 4100 0000/0A57       00000 12843                       DOM   MSG=(1)             Delete it
                                   12846
 00110A 1BFF                       12847                       CLEAR R15                 A-ok
 00110C 18D8/9808 D004_            12851              DOMEXIT  PEND
 DROP   VNENTRY,R5
 DROP   *,R7
1PROC     (PROC2193) (12:51) (15MAR04) Routines for System Procedures                                                       Page   49
0Current Usings:  (CP,R11) (CV,R12)
0Loc    Object Code    Addr1 Addr2  Stmt Lv Lineno    Source Statement           (Hibal 5, Asmedit 3.3)  HLASM R4.0  2004/03/15 12.51
+___    ______ ____    _____ _____  ____ __ ______    ______ _________
0000000                00000 00194 12878              KWA      RECORD BEGIN
 000000                            12886  1           KWAARGP    DS    A                   Argument list ptr
 000004                            12887  1           KWANARGS   DS    F                   Number of args passed
                                   12888  1
 000008                            12889  1           KWAKEY     DS    CL64                Key
 000048                            12890  1           KWAUREQ    DS    XL(L'UIDREC)        Userid record
 000194                00194 00194 12891                       END
-                                  12901              ¿þþþþþþþþþþþþþþþþþþþþþþþþþþþþþþþþþþþþþþþþþþþþþþþþþþþþþþþþþþþþþþþþþþþþþÜ
                                   12902              Ÿ                                                                     Ÿ
                                   12903              Ÿ  KEY_DELETE(key, option-string, rc)                                 Ÿ
                                   12904              Ÿ                                                                     Ÿ
                                   12905              Ÿ    Delete a keyed record from the keys master file.                 Ÿ
                                   12906              Ÿ                                                                     Ÿ
                                                      ¾þþþþþþþþþþþþþþþþþþþþþþþþþþþþþþþþþþþþþþþþþþþþþþþþþþþþþþþþþþþþþþþþþþþþþ»
000111A 50E0 D000/9008_      00000 12907              PCKEYDEL PROC  KWA
 USING  *,R7
 USING  KWA-(4+36),R8
 001134 4140 8028            00000 12957                       LA    R4,KWA
 USING  KWA,R4                     12958                       USING KWA,R4
 001138 58E0 B08C/D2AF_      0008C 12967                       SCPUSH ,
 001146 5000 4004            00004 12973                       ST    R0,KWANARGS         Number of arguments
 00114A 5010 4000            00000 12974                       ST    R1,KWAARGP          Arglist ptr
                                   12975
 00114E 4120 7998/58E0_      01ACC 12976                       SETARGS '13SSS'           1-3 args: str, str, str
 001158 4770 74C8            015FC 12983                       BNZ   PKGEXIT
                                   12984
 USING  VNENTRY,R5                 12985                       WITH  (VNENTRY,R5)
                                   12998
 00115C 4151 0000            00000 12999                       LA    R5,ARG1(R1)
                                   13000                       ¿þþþþþþþþþþþþþþþþþþþþþþþþþþþþÜ
                                   13001                       Ÿ  Pre-set returned values.  Ÿ
                                   13002                       ¾þþþþþþþþþþþþþþþþþþþþþþþþþþþþ»
 001160 D503 78F0 4004_01A24 00004 13003                       IF    (KWANARGS,GE,3),BEGIN  Optional returned values...
 00116A 4126 02A0/D74F_      002A0 13021  1                      PRETVAL 3,STRING,0,0      Pre-set null string
 DROP   VNENTRY,R5
 USING  VNENTRY,R2
 USING  VNENTRY,R5
 DROP   VNENTRY,R2
 00118E                            13123                       END
                                   13127                       ¿þþþþþþþþþþþþþþþþþþþþþþþþþþþþÜ
                                   13128                       Ÿ  Scan KEY_DELETE options.  Ÿ
                                   13129                       ¾þþþþþþþþþþþþþþþþþþþþþþþþþþþþ»
 00118E 4150 0150            00150 13130                       LA    R5,ARG2
 001192 5A50 4000            00000 13131                       A     R5,KWAARGP
 001196 4110 5026/4800_      00026 13132                       SCINIT VNSTRLOC,LH:VNSTRLEN
 0011AC 5810 B08C/1B00_      0008C 13155                       SCAN  PKDPRT              Scan KEY_DELETE options
 0011FE 12FF/4770 7198             13187                       IF    (R15,NZ),PKDERR
1PROC     (PROC2193) (12:51) (15MAR04) Routines for System Procedures                                                       Page   50
0Current Usings:  (KWA,R4) (VNENTRY,R5) (*,R7) (KWA-(4+36),R8) (CP,R11) (CV,R12)
0Loc    Object Code    Addr1 Addr2  Stmt Lv Lineno    Source Statement           (Hibal 5, Asmedit 3.3)  HLASM R4.0  2004/03/15 12.51
+___    ______ ____    _____ _____  ____ __ ______    ______ _________
0                                  13204                       ¿þþþþþþþþþþþþþþþþþþþþþþþþþþþþþþþþþÜ
                                   13205                       Ÿ  This is a privileged SYSCALL.  Ÿ
                                   13206                       ¾þþþþþþþþþþþþþþþþþþþþþþþþþþþþþþþþþ»
 001204 9140 B75A/4710_0075A       13207                       IF    ~CPFXAUTH,BEGIN     Caller isn't authorized...
 00120C 4110 795C/4100_      01A90 13222  1                      SETMSG 'PRIVILEGED'
 001214 47F0 71A4            012D8 13226  1                      B     PKDRET
 001218                            13227                       END
                                   13231                       ¿þþþþþþþþþþþþÜ
                                   13232                       Ÿ  Get KEY.  Ÿ
                                   13233                       ¾þþþþþþþþþþþþ»
 001218 4150 0000            00000 13234                       LA    R5,ARG1
 00121C 5A50 4000            00000 13235                       A     R5,KWAARGP
 001220 4110 5026/4800_      00026 13236                       SETMSG VNSTRLOC,LH:VNSTRLEN
 001228 58E0 78FC/0DEE       01A30 13249                       VCALL LRTRIM
 00122E 5900 7900/47D0_      01A34 13253                       IF    (R0,GT,L'KWAKEY),BEGIN
 001236 4110 799D/4100_      01AD1 13270  1                      SETMSG 'KEY IS TOO LONG'
 00123E 47F0 71A4            012D8 13274  1                      B     PKDRET
 001242                            13275                       END
                                   13279
 001242 D23F 4008 C4D8 00008 004D8 13280                       MVC   KWAKEY,CVBLANKS     Pre-blank
 001248 1820                       13281                       LR    R2,R0
 00124A 0620/1222/4740_            13282                       MOVE  R2,KWAKEY,@R1       Save KEY data
                                   13320                       ¿þþþþþþþþþþþþþþþþþþþþþþþþþþÜ
                                   13321                       Ÿ  Now delete the record.  Ÿ
                                   13322                       ¾þþþþþþþþþþþþþþþþþþþþþþþþþþ»
 001256 4120 4048            00048 13323                       LA    R2,KWAUREQ
 USING  UIDREC,R2                  13324                       WITH  (UIDREC,R2),BEGIN
 00125A D23F 2000 4008 00000 00008 13338  1                      MVC   UIDKEY,KWAKEY
 001260 1812/4100 014C             13339  1                      SETMSG UIDREC              Here's the transaction address
 DROP   UIDREC,R2                  13353                       END
 001266 4320 79AC            01AE0 13361                       IC    R2,=C'U'            Select USERID record file
 00126A 58E0 7904/0DEE       01A38 13362                       VCALL KEYDEL              Delete the record
 001270 4770 7148/4110_      0127C 13366                       IF    Z,'SETMSG "OK"'
 00127C 714C/47F0 7194 0127C 01272 13386                       ELSE  BEGIN               Trouble...
 001280 4110 79AD/4100_      01AE1 13397  1                      SETMSG 'ERROR'
 001288 59F0 7908/4770_      01A3C 13401  1                      IF    (R15,EQ,-3),'SETMSG "KEYS FILE IS NOT AVAILABLE"'
 001298 59F0 790C/4770_      01A40 13426  1                      IF    (R15,EQ,-2),'SETMSG "RECORD FORMAT ERROR"'
 0012A8 59F0 7910/4770_      01A44 13451  1                      IF    (R15,EQ,-1),'SETMSG "I/O ERROR"'
 0012B8 59F0 7914/4770_      01A48 13476  1                      IF    (R15,EQ,1),'SETMSG "RECORD NOT FOUND"'
 0012C8                            13502                       END
                                   13506
 0012C8 47F0 71A4            012D8 13507                       B     PKDRET
                                   13508
 0012CC 4110 7980/4100_      01AB4 13509              PKDERR   SETMSG 'INVALID OPTION'
 0012D4 47F0 71A4            012D8 13513                       B     PKDRET
                                   13514                       ¿þþþþþþþþþþþþþþþþþþþþþþþþþþþþÜ
                                   13515                       Ÿ  Pass back a return code.  Ÿ
                                   13516                       ¾þþþþþþþþþþþþþþþþþþþþþþþþþþþþ»
 0012D8 D503 78F0 4004_01A24 00004 13517              PKDRET   IF    (KWANARGS,GE,3),BEGIN  Return the return code...
 0012E2 4126 02A0/D74F_      002A0 13536  1                      PRETVAL 3,STRING,(R1),(R0)
 DROP   VNENTRY,R5
 USING  VNENTRY,R2
 USING  VNENTRY,R5
 DROP   VNENTRY,R2
1PROC     (PROC2193) (12:51) (15MAR04) Routines for System Procedures                                                       Page   51
0Current Usings:  (KWA,R4) (VNENTRY,R5) (*,R7) (KWA-(4+36),R8) (CP,R11) (CV,R12)
0Loc    Object Code    Addr1 Addr2  Stmt Lv Lineno    Source Statement           (Hibal 5, Asmedit 3.3)  HLASM R4.0  2004/03/15 12.51
+___    ______ ____    _____ _____  ____ __ ______    ______ _________
0001302                            13638                       END
                                   13642
 001302 1BFF                       13643                       CLEAR R15                 A-ok
                                   13647
 001304 58E0 B08C/4BD0_      0008C 13648              PKDEXIT  SCPOP ,
 001312 18D8/9808 D004_            13654                       PEND
 DROP   VNENTRY,R5
 DROP   KWA-(4+36),R8
 DROP   *,R7
                                   13684              *
                                   13685              *  SCAN STUFF
                                   13686              *
 001320 4040404040404040_          13687              PKDPRT   SCKW  ,PKDBAD
                                   13702
 001348 50E0 D000/9008_      00000 13703              PKDBAD   DPROC ,
 USING  *,R7
 001362 41F0 0004            00004 13743                       LA    R15,4
 001366 18D8/9808 D004_            13744                       PEND
 DROP   *,R7
 DROP   KWA,R4                     13764                       DROP  R4
1PROC     (PROC2193) (12:51) (15MAR04) Routines for System Procedures                                                       Page   52
0Current Usings:  (CP,R11) (CV,R12)
0Loc    Object Code    Addr1 Addr2  Stmt Lv Lineno    Source Statement           (Hibal 5, Asmedit 3.3)  HLASM R4.0  2004/03/15 12.51
+___    ______ ____    _____ _____  ____ __ ______    ______ _________
0                                  13772              ¿þþþþþþþþþþþþþþþþþþþþþþþþþþþþþþþþþþþþþþþþþþþþþþþþþþþþþþþþþþþþþþþþþþþþþÜ
                                   13773              Ÿ                                                                     Ÿ
                                   13774              Ÿ  KEY_GET(key, data, option-string, update-count, rc)                Ÿ
                                   13775              Ÿ                                                                     Ÿ
                                   13776              Ÿ    Get a keyed record from the keys master file.                    Ÿ
                                   13777              Ÿ                                                                     Ÿ
                                                      ¾þþþþþþþþþþþþþþþþþþþþþþþþþþþþþþþþþþþþþþþþþþþþþþþþþþþþþþþþþþþþþþþþþþþþþ»
0001374 50E0 D000/9008_      00000 13778              PCKEYGET PROC  KWA
 USING  *,R7
 USING  KWA-(4+36),R8
 00138E 58E0 B08C/D2AF_      0008C 13828                       SCPUSH ,
 00139C 5000 802C            00004 13834                       ST    R0,KWANARGS         Number of arguments
 0013A0 5010 8028            00000 13835                       ST    R1,KWAARGP          Arglist ptr
                                   13836
 0013A4 4120 7774/58E0_      01B02 13837                       SETARGS '25SSSIS'         2-5 args: str, str, str, num, str
 0013AE 4770 726E            015FC 13844                       BNZ   PKGEXIT
                                   13845
 USING  VNENTRY,R5                 13846                       WITH  (VNENTRY,R5)
                                   13859
 0013B2 4151 0000            00000 13860                       LA    R5,ARG1(R1)
                                   13861                       ¿þþþþþþþþþþþþþþþþþþþþþþþþþþþþÜ
                                   13862                       Ÿ  Pre-set returned values.  Ÿ
                                   13863                       ¾þþþþþþþþþþþþþþþþþþþþþþþþþþþþ»
 0013B6 4126 0150/D74F_      00150 13864                       PRETVAL 2,STRING,0,0      Pre-set null string
 DROP   VNENTRY,R5
 USING  VNENTRY,R2
 USING  VNENTRY,R5
 DROP   VNENTRY,R2
                                   13966
 0013DA D503 76BE 802C_01A4C 00004 13967                       IF    (KWANARGS,GE,4),BEGIN  Optional returned values...
 0013E4 4126 03F0/D74F_      003F0 13985  1                      PRETVAL 4,INTEGER,L:=F'-1'  Pre-set -1
 DROP   VNENTRY,R5
 USING  VNENTRY,R2
 USING  VNENTRY,R5
 DROP   VNENTRY,R2
 001400 D503 76CA 802C_01A58 00004 14050  1                      IF    (KWANARGS,LT,5),EXIT
 00140A 4126 0540/D74F_      00540 14071  1                      PRETVAL 5,STRING,0,0      Pre-set null string
 DROP   VNENTRY,R5
 USING  VNENTRY,R2
 USING  VNENTRY,R5
 DROP   VNENTRY,R2
 00142E                            14173                       END
                                   14177                       ¿þþþþþþþþþþþþþþþþþþþþþþþþþÜ
                                   14178                       Ÿ  Scan KEY_GET options.  Ÿ
                                   14179                       ¾þþþþþþþþþþþþþþþþþþþþþþþþþ»
 00142E 4150 02A0            002A0 14180                       LA    R5,ARG3
 001432 5A50 8028            00000 14181                       A     R5,KWAARGP
 001436 4110 5026/4800_      00026 14182                       SCINIT VNSTRLOC,LH:VNSTRLEN
 00144C 5810 B08C/1B00_      0008C 14205                       SCAN  PKGPRT              Scan KEY_GET options
 00149E 12FF/4770 7236             14237                       IF    (R15,NZ),PKGERR
1PROC     (PROC2193) (12:51) (15MAR04) Routines for System Procedures                                                       Page   53
0Current Usings:  (VNENTRY,R5) (*,R7) (KWA-(4+36),R8) (CP,R11) (CV,R12)
0Loc    Object Code    Addr1 Addr2  Stmt Lv Lineno    Source Statement           (Hibal 5, Asmedit 3.3)  HLASM R4.0  2004/03/15 12.51
+___    ______ ____    _____ _____  ____ __ ______    ______ _________
0                                  14254                       ¿þþþþþþþþþþþþþþþþþþþþþþþþþþþþþþþþþÜ
                                   14255                       Ÿ  This is a privileged SYSCALL.  Ÿ
                                   14256                       ¾þþþþþþþþþþþþþþþþþþþþþþþþþþþþþþþþþ»
 0014A4 9140 B75A/4710_0075A       14257                       IF    ~CPFXAUTH,BEGIN     Caller isn't authorized...
 0014AC 4110 7702/4100_      01A90 14272  1                      SETMSG 'PRIVILEGED'
 0014B4 47F0 7242            015D0 14276  1                      B     PKGRET
 0014B8                            14277                       END
                                   14281                       ¿þþþþþþþþþþþþÜ
                                   14282                       Ÿ  Get KEY.  Ÿ
                                   14283                       ¾þþþþþþþþþþþþ»
 0014B8 4150 0000            00000 14284                       LA    R5,ARG1
 0014BC 5A50 8028            00000 14285                       A     R5,KWAARGP
 0014C0 4110 5026/4800_      00026 14286                       SETMSG VNSTRLOC,LH:VNSTRLEN
 0014C8 58E0 76A2/0DEE       01A30 14299                       VCALL LRTRIM
 0014CE 5900 76A6/47D0_      01A34 14303                       IF    (R0,GT,L'KWAKEY),BEGIN
 0014D6 4110 7743/4100_      01AD1 14320  1                      SETMSG 'KEY IS TOO LONG'
 0014DE 47F0 7242            015D0 14324  1                      B     PKGRET
 0014E2                            14325                       END
                                   14329
 0014E2 D23F 8030 C4D8 00008 004D8 14330                       MVC   KWAKEY,CVBLANKS     Pre-blank
 0014E8 1820                       14331                       LR    R2,R0
 0014EA 0620/1222/4740_            14332                       MOVE  R2,KWAKEY,@R1       Save KEY data
                                   14370                       ¿þþþþþþþþþþþþþþþþþþþþþþþþþþþþþþþÜ
                                   14371                       Ÿ  Now read the data (if any).  Ÿ
                                   14372                       ¾þþþþþþþþþþþþþþþþþþþþþþþþþþþþþþþ»
 0014F6 4120 8070            00048 14373                       LA    R2,KWAUREQ
 USING  UIDREC,R2                  14374                       WITH  (UIDREC,R2),BEGIN
 0014FA D23F 2000 8030 00000 00008 14388  1                      MVC   UIDKEY,KWAKEY
 001500 1812/4100 014C             14389  1                      SETMSG UIDREC              Here's the transaction address
 001506 1820                       14403  1                      LR    R2,R0
 001508 1831                       14404  1                      LR    R3,R1
 00150A 4340 7752            01AE0 14405  1                      IC    R4,=C'U'
 00150E 58E0 76D2/0DEE       01A60 14406  1                      VCALL KEYGET              Get record
 001514 4780 71D6            01564 14410  1                      IF    NZ,BEGIN            Trouble...
 001518 4110 7753/4100_      01AE1 14421  2                        SETMSG 'ERROR'
 001520 59F0 76AE/4770_      01A3C 14425  2                        IF    (R15,EQ,-3),'SETMSG "KEYS FILE IS NOT AVAILABLE"'
 001530 59F0 76B2/4770_      01A40 14450  2                        IF    (R15,EQ,-2),'SETMSG "RECORD FORMAT ERROR"'
 001540 59F0 76B6/4770_      01A44 14475  2                        IF    (R15,EQ,-1),'SETMSG "I/O ERROR"'
 001550 59F0 76BA/4770_      01A48 14500  2                        IF    (R15,EQ,1),'SETMSG "RECORD NOT FOUND"'
 001560 47F0 7242            015D0 14526  2                        B     PKGRET
 001564                            14527  1                      END
                                   14531  1
 001564 4120 8070            00048 14532  1                      LA    R2,KWAUREQ          Point at returned record
 001568 4800 2046            00046 14533  1                      LH    R0,UIDULEN          Get data length
 00156C 4110 2048            00048 14534  1                      LA    R1,UIDUDATA         Point to data
 001570 4830 2044            00044 14535  1                      LH    R3,UIDUC            Also, get update count if needed
 DROP   UIDREC,R2                  14536                       END   ,                   We're through with this data area...
                                   14544
 001574 4126 0150/D74F_      00150 14545                       PRETVAL 2,STRING,(R1),(R0)  Record data
 DROP   VNENTRY,R5
 USING  VNENTRY,R2
 USING  VNENTRY,R5
 DROP   VNENTRY,R2
 001594 D503 76BE 802C_01A4C 00004 14647                       IF    (KWANARGS,GE,4),BEGIN  Return the update count...
1PROC     (PROC2193) (12:51) (15MAR04) Routines for System Procedures                                                       Page   54
0Current Usings:  (VNENTRY,R5) (*,R7) (KWA-(4+36),R8) (CP,R11) (CV,R12)
0Loc    Object Code    Addr1 Addr2  Stmt Lv Lineno    Source Statement           (Hibal 5, Asmedit 3.3)  HLASM R4.0  2004/03/15 12.51
+___    ______ ____    _____ _____  ____ __ ______    ______ _________
000159E 4126 03F0/D74F_      003F0 14665  1                      PRETVAL 4,INTEGER,(R3)      Update count
 DROP   VNENTRY,R5
 USING  VNENTRY,R2
 USING  VNENTRY,R5
 DROP   VNENTRY,R2
 0015B8                            14730                       END
                                   14734
 0015B8 4110 76FE/4100_      01A8C 14735                       SETMSG 'OK'                  Return code
 0015C0 47F0 7242            015D0 14739                       B     PKGRET
                                   14740
 0015C4 4110 7726/4100_      01AB4 14741              PKGERR   SETMSG 'INVALID OPTION'
 0015CC 47F0 7242            015D0 14745                       B     PKGRET
                                   14746                       ¿þþþþþþþþþþþþþþþþþþþþþþþþþþþþÜ
                                   14747                       Ÿ  Pass back a return code.  Ÿ
                                   14748                       ¾þþþþþþþþþþþþþþþþþþþþþþþþþþþþ»
 0015D0 D503 76CA 802C_01A58 00004 14749              PKGRET   IF    (KWANARGS,GE,5),BEGIN  Return the return code...
 0015DA 4126 0540/D74F_      00540 14768  1                      PRETVAL 5,STRING,(R1),(R0)
 DROP   VNENTRY,R5
 USING  VNENTRY,R2
 USING  VNENTRY,R5
 DROP   VNENTRY,R2
 0015FA                            14870                       END
                                   14874
 0015FA 1BFF                       14875                       CLEAR R15                 A-ok
                                   14879
 0015FC 58E0 B08C/4BD0_      0008C 14880              PKGEXIT  SCPOP ,
 00160A 18D8/9808 D004_            14886                       PEND
 DROP   VNENTRY,R5
 DROP   KWA-(4+36),R8
 DROP   *,R7
                                   14916              *
                                   14917              *  SCAN STUFF
                                   14918              *
 001618 4040404040404040_          14919              PKGPRT   SCKW  ,PKGBAD
                                   14934
 001640 50E0 D000/9008_      00000 14935              PKGBAD   DPROC ,
 USING  *,R7
 00165A 41F0 0004            00004 14975                       LA    R15,4
 00165E 18D8/9808 D004_            14976                       PEND
 DROP   *,R7
1PROC     (PROC2193) (12:51) (15MAR04) Routines for System Procedures                                                       Page   55
0Current Usings:  (CP,R11) (CV,R12)
0Loc    Object Code    Addr1 Addr2  Stmt Lv Lineno    Source Statement           (Hibal 5, Asmedit 3.3)  HLASM R4.0  2004/03/15 12.51
+___    ______ ____    _____ _____  ____ __ ______    ______ _________
0                                  14997              ¿þþþþþþþþþþþþþþþþþþþþþþþþþþþþþþþþþþþþþþþþþþþþþþþþþþþþþþþþþþþþþþþþþþþþþÜ
                                   14998              Ÿ                                                                     Ÿ
                                   14999              Ÿ  KEY_PUT(key, data, option-string, update-count, rc)                Ÿ
                                   15000              Ÿ                                                                     Ÿ
                                   15001              Ÿ    Add/Update a keyed record in the keys master file.               Ÿ
                                   15002              Ÿ                                                                     Ÿ
                                                      ¾þþþþþþþþþþþþþþþþþþþþþþþþþþþþþþþþþþþþþþþþþþþþþþþþþþþþþþþþþþþþþþþþþþþþþ»
000166C 50E0 D000/9008_      00000 15003              PCKEYPUT PROC  KWA
 USING  *,R7
 USING  KWA-(4+36),R8
 001686 58E0 B08C/D2AF_      0008C 15053                       SCPUSH ,
 001694 5000 802C            00004 15059                       ST    R0,KWANARGS         Number of arguments
 001698 5010 8028            00000 15060                       ST    R1,KWAARGP          Arglist ptr
                                   15061
 00169C 4120 747C/58E0_      01B02 15062                       SETARGS '25SSSIS'         2-5 args: str, str, str, num, str
 0016A6 4770 7294            0191A 15069                       BNZ   PKPEXIT
                                   15070
 USING  VNENTRY,R5                 15071                       WITH  (VNENTRY,R5)
                                   15084
 0016AA 4151 0000            00000 15085                       LA    R5,ARG1(R1)
                                   15086                       ¿þþþþþþþþþþþþþþþþþþþþþþþþþþþþÜ
                                   15087                       Ÿ  Pre-set returned values.  Ÿ
                                   15088                       ¾þþþþþþþþþþþþþþþþþþþþþþþþþþþþ»
 0016AE D503 73D2 802C_01A58 00004 15089                       IF    (KWANARGS,GE,5),BEGIN  Optional returned values...
 0016B8 4126 0540/D74F_      00540 15107  1                      PRETVAL 5,STRING,0,0      Pre-set null string
 DROP   VNENTRY,R5
 USING  VNENTRY,R2
 USING  VNENTRY,R5
 DROP   VNENTRY,R2
 0016DC                            15209                       END
                                   15213                       ¿þþþþþþþþþþþþþþþþþþþþþþþþþÜ
                                   15214                       Ÿ  Scan KEY_PUT options.  Ÿ
                                   15215                       ¾þþþþþþþþþþþþþþþþþþþþþþþþþ»
 0016DC 4150 02A0            002A0 15216                       LA    R5,ARG3
 0016E0 5A50 8028            00000 15217                       A     R5,KWAARGP
 0016E4 4110 5026/4800_      00026 15218                       SCINIT VNSTRLOC,LH:VNSTRLEN
 0016FA 5810 B08C/1B00_      0008C 15241                       SCAN  PKPPRT              Scan KEY_PUT options
 00174C 12FF/4770 725C             15273                       IF    (R15,NZ),PKPERR
                                   15290                       ¿þþþþþþþþþþþþþþþþþþþþþþþþþþþþþþþþþÜ
                                   15291                       Ÿ  This is a privileged SYSCALL.  Ÿ
                                   15292                       ¾þþþþþþþþþþþþþþþþþþþþþþþþþþþþþþþþþ»
 001752 9140 B75A/4710_0075A       15293                       IF    ~CPFXAUTH,BEGIN     Caller isn't authorized...
 00175A 4110 740A/4100_      01A90 15308  1                      SETMSG 'PRIVILEGED'
 001762 47F0 7268            018EE 15312  1                      B     PKPRET
 001766                            15313                       END
                                   15317                       ¿þþþþþþþþþþþþÜ
                                   15318                       Ÿ  Get KEY.  Ÿ
                                   15319                       ¾þþþþþþþþþþþþ»
 001766 4150 0000            00000 15320                       LA    R5,ARG1
 00176A 5A50 8028            00000 15321                       A     R5,KWAARGP
 00176E 4110 5026/4800_      00026 15322                       SETMSG VNSTRLOC,LH:VNSTRLEN
 001776 58E0 73AA/0DEE       01A30 15335                       VCALL LRTRIM
 00177C 5900 73AE/47D0_      01A34 15339                       IF    (R0,GT,L'KWAKEY),BEGIN
1PROC     (PROC2193) (12:51) (15MAR04) Routines for System Procedures                                                       Page   56
0Current Usings:  (VNENTRY,R5) (*,R7) (KWA-(4+36),R8) (CP,R11) (CV,R12)
0Loc    Object Code    Addr1 Addr2  Stmt Lv Lineno    Source Statement           (Hibal 5, Asmedit 3.3)  HLASM R4.0  2004/03/15 12.51
+___    ______ ____    _____ _____  ____ __ ______    ______ _________
0001784 4110 744B/4100_      01AD1 15356  1                      SETMSG 'KEY IS TOO LONG'
 00178C 47F0 7268            018EE 15360  1                      B     PKPRET
 001790                            15361                       END
                                   15365
 001790 D23F 8030 C4D8 00008 004D8 15366                       MVC   KWAKEY,CVBLANKS     Pre-blank
 001796 1820                       15367                       LR    R2,R0
 001798 0620/1222/4740_            15368                       MOVE  R2,KWAKEY,@R1       Save KEY data
                                   15406                       ¿þþþþþþþþþþþþþþþþþþþþþþþþþþþþþþþþþþþþþþþþþþþþþþþþþþþþþþþþþÜ
                                   15407                       Ÿ  If the update count passed to us is zero, then we are  Ÿ
                                   15408                       Ÿ    to add a new record.                                 Ÿ
                                   15409                       ¾þþþþþþþþþþþþþþþþþþþþþþþþþþþþþþþþþþþþþþþþþþþþþþþþþþþþþþþþþ»
 0017A4 4150 03F0            003F0 15410                       LA    R5,ARG4
 0017A8 5A50 8028            00000 15411                       A     R5,KWAARGP
 0017AC 5830 5024/1233       00024 15412                       LT    R3,VNVALUE          Get update count
 0017B2 47B0 713C            017C2 15416                       IF    NEG,BEGIN           Error...
 0017B6 4110 7382/4100_      01A08 15427  1                      SETMSG 'BAD UPDATE COUNT'
 0017BE 47F0 7268            018EE 15431  1                      B     PKPRET
 0017C2                            15432                       END
                                   15436
 0017C2 4120 8030            00008 15437                       LA    R2,KWAKEY           Key
                                   15438              *
                                   15439              * Get record data and store it in transaction buffer
                                   15440              *
 0017C6 4150 0150            00150 15441                       LA    R5,ARG2
 0017CA 5A50 8028            00000 15442                       A     R5,KWAARGP
 0017CE 4110 5026/4800_      00026 15443                       SETMSG VNSTRLOC,LH:VNSTRLEN  Record data
 0017D6 4120 8070            00048 15456                       LA    R2,KWAUREQ
 USING  UIDREC,R2                  15457                       USING UIDREC,R2
 0017DA D7FF 2048 2048 00048 00048 15466                       CLEAR UIDUDATA            Pre-initialize data area
 0017E0 D203 2148 73E2 00148 01A68 15473                       MVC   UIDEND,=C':END'     Set ending record id
 0017E6 18F0                       15474                       LR    R15,R0              Move data from caller's buffer
 0017E8 59F0 73E6/47D0_      01A6C 15475                       CEIL  R15,L'UIDUDATA
 0017F4 40F0 2046            00046 15494                       STH   R15,UIDULEN
 0017F8 18E1                       15495                       LR    R14,R1
 0017FA 4100 2048            00048 15496                       LA    R0,UIDUDATA
 0017FE 4110 0100            00100 15497                       LA    R1,L'UIDUDATA
 001802 0E0E                       15498                       MVCL  R0,R14
 001804 D23F 2000 8030 00000 00008 15499                       MVC   UIDKEY,KWAKEY
 00180A 58E0 73EA/0DEE       01A70 15500                       VCALL LOCALTOD            Set the time stamp
 001810 5000 2040            00040 15504                       ST    R0,UIDCLOCK
                                   15505                       ¿þþþþþþþþþþþþþþþþþþþþþþþþþþþÜ
                                   15506                       Ÿ  Add/replace the record.  Ÿ
                                   15507                       ¾þþþþþþþþþþþþþþþþþþþþþþþþþþþ»
 001814 1233/4770 71AA             15508                       IF    (R3,Z),BEGIN
 00181A D201 2044 743E 00044 01AC4 15522  1                      MVC   UIDUC,=H'1'         Set initial update count
 001820 1812/4100 014C             15523  1                      SETMSG UIDREC              Here's the transaction address
 001826 4320 745A            01AE0 15537  1                      IC    R2,=C'U'
 00182A 58E0 73EE/0DEE       01A74 15538  1                      VCALL KEYADD
 001830                            15542                       END
 001830 71AE/47F0 71D2 01830 01818 15546                       ELSE  BEGIN
 001834 4110 3001            00001 15557  1                      LA    R1,@R3+1            Kick update count
 001838 5410 73F2            01A78 15558  1                      N     R1,=A(X'7FFF')      Force non-negative number
 00183C 4770 71BE/4110_      01844 15559  1                      IF    Z,'LA R1,1'         Zero becomes one
 001844 4010 2044            00044 15576  1                      STH   R1,UIDUC
1PROC     (PROC2193) (12:51) (15MAR04) Routines for System Procedures                                                       Page   57
0Current Usings:  (UIDREC,R2) (VNENTRY,R5) (*,R7) (KWA-(4+36),R8) (CP,R11) (CV,R12)
0Loc    Object Code    Addr1 Addr2  Stmt Lv Lineno    Source Statement           (Hibal 5, Asmedit 3.3)  HLASM R4.0  2004/03/15 12.51
+___    ______ ____    _____ _____  ____ __ ______    ______ _________
0001848 1812/4100 014C             15577  1                      SETMSG UIDREC              Here's the transaction address
 00184E 4320 745A            01AE0 15591  1                      IC    R2,=C'U'
 001852 58E0 73F6/0DEE       01A7C 15592  1                      VCALL KEYPUT
 001858                            15596                       END
 DROP   UIDREC,R2                  15600                       DROP  R2
                                   15607
 001858 4110 7406/4100_      01A8C 15608                       SETMSG 'OK'                Assume OK
 001860 12FF/4780 7258             15612                       IF    (R15,NZ),BEGIN      Trouble...
 001866 4110 745B/4100_      01AE1 15626  1                      SETMSG 'ERROR'
 00186E 59F0 73B6/4770_      01A3C 15630  1                      IF    (R15,EQ,-3),'SETMSG "KEYS FILE IS NOT AVAILABLE"'
 00187E 59F0 73BA/4770_      01A40 15655  1                      IF    (R15,EQ,-2),'SETMSG "RECORD FORMAT ERROR"'
 00188E 59F0 73BE/4770_      01A44 15680  1                      IF    (R15,EQ,-1),'SETMSG "I/O ERROR"'
 00189E 59F0 73C2/4770_      01A48 15705  1                      IF    (R15,EQ,1),'SETMSG "RECORD NOT FOUND"'
 0018AE 59F0 73FA/4770_      01A80 15731  1                      IF    (R15,EQ,2),'SETMSG "UPDATE COUNT MISMATCH"'
 0018BE 59F0 73FE/4770_      01A84 15757  1                      IF    (R15,EQ,3),'SETMSG "RECORD ALREADY EXISTS"'
 0018CE 59F0 7402/4770_      01A88 15783  1                      IF    (R15,EQ,4),'SETMSG "KEYS FILE IS FULL"'
 0018DE                            15809                       END
                                   15813
 0018DE 47F0 7268            018EE 15814                       B     PKPRET
                                   15815
 0018E2 4110 742E/4100_      01AB4 15816              PKPERR   SETMSG 'INVALID OPTION'
 0018EA 47F0 7268            018EE 15820                       B     PKPRET
                                   15821                       ¿þþþþþþþþþþþþþþþþþþþþþþþþþþþþÜ
                                   15822                       Ÿ  Pass back a return code.  Ÿ
                                   15823                       ¾þþþþþþþþþþþþþþþþþþþþþþþþþþþþ»
 0018EE D503 73D2 802C_01A58 00004 15824              PKPRET   IF    (KWANARGS,GE,5),BEGIN  Return the return code...
 0018F8 4126 0540/D74F_      00540 15843  1                      PRETVAL 5,STRING,(R1),(R0)
 DROP   VNENTRY,R5
 USING  VNENTRY,R2
 USING  VNENTRY,R5
 DROP   VNENTRY,R2
 001918                            15945                       END
                                   15949
 001918 1BFF                       15950                       CLEAR R15                 A-ok
                                   15954
 00191A 58E0 B08C/4BD0_      0008C 15955              PKPEXIT  SCPOP ,
 001928 18D8/9808 D004_            15961                       PEND
 DROP   VNENTRY,R5
 DROP   KWA-(4+36),R8
 DROP   *,R7
                                   15991              *
                                   15992              *  SCAN STUFF
                                   15993              *
 001938 4040404040404040_          15994              PKPPRT   SCKW  ,PKPBAD
                                   16009
 001960 50E0 D000/9008_      00000 16010              PKPBAD   DPROC ,
 USING  *,R7
 00197A 41F0 0004            00004 16050                       LA    R15,4
 00197E 18D8/9808 D004_            16051                       PEND
 DROP   *,R7
1PROC     (PROC2193) (12:51) (15MAR04) Routines for System Procedures                                                       Page   58
0Current Usings:  (CP,R11) (CV,R12)
0Loc    Object Code    Addr1 Addr2  Stmt Lv Lineno    Source Statement           (Hibal 5, Asmedit 3.3)  HLASM R4.0  2004/03/15 12.51
+___    ______ ____    _____ _____  ____ __ ______    ______ _________
0                                  16072              ¿þþþþþþþþþþþþþþþþþþþþþþþþþþþþþþþþþþþþþþþþþþþþþþþþþþþþþþþþþþþþþþþþþþþþþÜ
                                   16073              Ÿ                                                                     Ÿ
                                   16074              Ÿ  KEY_REFRESH(key, option-string, rc)                                Ÿ
                                   16075              Ÿ                                                                     Ÿ
                                   16076              Ÿ   Removed 9/17/98 by MPD. Since BDAM portion of KEYS                Ÿ
                                   16077              Ÿ   has been eliminated, this routine is no longer                    Ÿ
                                   16078              Ÿ   necessary and will be totally eliminated when                     Ÿ
                                   16079              Ÿ   we change the corresponding EXEC files which                      Ÿ
                                   16080              Ÿ   call it.                                                          Ÿ
                                   16081              Ÿ                                                                     Ÿ
                                                      ¾þþþþþþþþþþþþþþþþþþþþþþþþþþþþþþþþþþþþþþþþþþþþþþþþþþþþþþþþþþþþþþþþþþþþþ»
000198C 50E0 D000/9008_      00000 16082              PCKEYREF PROC  KWA
 USING  *,R7
 USING  KWA-(4+36),R8
 0019A6 4140 8028            00000 16132                       LA    R4,KWA
 USING  KWA,R4                     16133                       USING KWA,R4
 0019AA 5000 4004            00004 16142                       ST    R0,KWANARGS         Number of arguments
 0019AE 4110 70E6/4100_      01A8C 16143                       SETMSG 'OK'
 0019B6 D503 707E 4004_01A24 00004 16147              PKRRET   IF    (KWANARGS,GE,3),BEGIN  Return the return code...
 0019C0 4126 02A0/D74F_      002A0 16166  1                      PRETVAL 3,STRING,(R1),(R0)
 USING  VNENTRY,R2
 DROP   VNENTRY,R2
 0019E0                            16251                       END
 0019E0 1BFF                       16255                       CLEAR R15                 A-ok
 0019E2 18D8/9808 D004_            16259                       PEND
 DROP   KWA-(4+36),R8
 DROP   *,R7
 DROP   KWA,R4                     16284                       DROP  R4
                                   16291                       QLTORG
1PROC     (PROC2193) (12:51) (15MAR04) Routines for System Procedures                                                       Page   59
0Current Usings:  (CP,R11) (CV,R12)
0Loc    Object Code    Addr1 Addr2  Stmt Lv Lineno    Source Statement           (Hibal 5, Asmedit 3.3)  HLASM R4.0  2004/03/15 12.51
+___    ______ ____    _____ _____  ____ __ ______    ______ _________
0000000                00000 0001E 16355              KLOGINWA RECORD BEGIN
 000000                            16363  1           KLGARGP    DS    A                   Argument list ptr
 000004                            16364  1           KLGNARGS   DS    F                   Number of args passed
                                   16365  1
 000008                            16366  1           KLGHEAP    DS    A                   Heap mark
 00000C                            16367  1           KLGCOUNT   DS    F                   Returned list count (for GET)
 000010                            16368  1           KLGUPDCT   DS    F                   Update count
 000014                            16369  1           KLGLEN     DS    F                   Total transaction length
 000018                            16370  1           KLGKEY     DS    CL6                 Key
 00001E                0001E 0001E 16371                       END
-                                  16381              ¿þþþþþþþþþþþþþþþþþþþþþþþþþþþþþþþþþþþþþþþþþþþþþþþþþþþþþþþþþþþþþþþþþþþþþÜ
                                   16382              Ÿ                                                                     Ÿ
                                   16383              Ÿ  KLOGIN_DELETE(key, rc)                                             Ÿ
                                   16384              Ÿ                                                                     Ÿ
                                   16385              Ÿ    Delete a keyed record from the KLOGIN file.                      Ÿ
                                   16386              Ÿ                                                                     Ÿ
                                                      ¾þþþþþþþþþþþþþþþþþþþþþþþþþþþþþþþþþþþþþþþþþþþþþþþþþþþþþþþþþþþþþþþþþþþþþ»
0001B9E 50E0 D000/9008_      00000 16387              PCKLGDEL PROC  KLOGINWA
 USING  *,R7
 USING  KLOGINWA-(4+36),R8
 001BB8 4140 8028            00000 16437                       LA    R4,KLOGINWA
 USING  KLOGINWA,R4                16438                       USING KLOGINWA,R4
 001BBC 58E0 B08C/D2AF_      0008C 16447                       SCPUSH ,
 001BCA 5000 4004            00004 16453                       ST    R0,KLGNARGS         Number of arguments
 001BCE 5010 4000            00000 16454                       ST    R1,KLGARGP          Arglist ptr
                                   16455
 001BD2 4120 7170/58E0_      01D28 16456                       SETARGS '12SS'            1-2 args: str, str
 001BDC 4770 7142            01CFA 16463                       BNZ   PKLGDXIT
                                   16464
 USING  VNENTRY,R5                 16465                       WITH  (VNENTRY,R5)
                                   16478
 001BE0 4151 0000            00000 16479                       LA    R5,ARG1(R1)
                                   16480                       ¿þþþþþþþþþþþþþþþþþþþþþþþþþþþþÜ
                                   16481                       Ÿ  Pre-set returned values.  Ÿ
                                   16482                       ¾þþþþþþþþþþþþþþþþþþþþþþþþþþþþ»
 001BE4 D503 7178 4004_01D30 00004 16483                       IF    (KLGNARGS,EQ,2),BEGIN  Optional returned values...
 001BEE 4126 0150/D74F_      00150 16501  1                      PRETVAL 2,STRING,0,0      Pre-set null string
 DROP   VNENTRY,R5
 USING  VNENTRY,R2
 USING  VNENTRY,R5
 DROP   VNENTRY,R2
 001C12                            16603                       END
                                   16607                       ¿þþþþþþþþþþþþþþþþþþþþþþþþþþþþþþþþþÜ
                                   16608                       Ÿ  This is a privileged SYSCALL.  Ÿ
                                   16609                       ¾þþþþþþþþþþþþþþþþþþþþþþþþþþþþþþþþþ»
 001C12 9140 B75A/4710_0075A       16610                       IF    ~CPFXAUTH,BEGIN     Caller isn't authorized...
 001C1A 4110 71B4/4100_      01D6C 16625  1                      SETMSG 'PRIVILEGED'
 001C22 47F0 7116            01CCE 16629  1                      B     PKLGDRET
 001C26                            16630                       END
1PROC     (PROC2193) (12:51) (15MAR04) Routines for System Procedures                                                       Page   60
0Current Usings:  (KLOGINWA,R4) (VNENTRY,R5) (*,R7) (KLOGINWA-(4+36),R8) (CP,R11) (CV,R12)
0Loc    Object Code    Addr1 Addr2  Stmt Lv Lineno    Source Statement           (Hibal 5, Asmedit 3.3)  HLASM R4.0  2004/03/15 12.51
+___    ______ ____    _____ _____  ____ __ ______    ______ _________
0                                  16634                       ¿þþþþþþþþþþþþÜ
                                   16635                       Ÿ  Get KEY.  Ÿ
                                   16636                       ¾þþþþþþþþþþþþ»
 001C26 4150 0000            00000 16637                       LA    R5,ARG1
 001C2A 5A50 4000            00000 16638                       A     R5,KLGARGP
 001C2E 4110 5026/4800_      00026 16639                       SETMSG VNSTRLOC,LH:VNSTRLEN
 001C36 58E0 717C/0DEE       01D34 16652                       VCALL LRTRIM
 001C3C 5900 7180/4780_      01D38 16656                       IF    (R0,NE,L'KLGKEY),BEGIN
 001C44 4110 71C2/4100_      01D7A 16673  1                      SETMSG 'KEY IS WRONG LENGTH'
 001C4C 47F0 7116            01CCE 16677  1                      B     PKLGDRET
 001C50                            16678                       END
                                   16682
 001C50 1820                       16683                       LR    R2,R0
 001C52 0620/1222/4740_            16684                       MOVE  R2,KLGKEY,@R1       Save KEY data
                                   16722                       ¿þþþþþþþþþþþþþþþþþþþþþþþþþþþþþþþþÜ
                                   16723                       Ÿ  Now delete the KLOGIN record  Ÿ
                                   16724                       ¾þþþþþþþþþþþþþþþþþþþþþþþþþþþþþþþþ»
 001C5E 4120 000A            0000A 16725                       LA    R2,L'KLGKEY+L'KLGLEN
 001C62 5020 4014            00014 16726                       ST    R2,KLGLEN
 001C66 1802                       16727                       LR    R0,R2
 001C68 4110 4014            00014 16728                       LA    R1,KLGLEN
 001C6C 4320 71D5            01D8D 16729                       IC    R2,=C'K'            Select KLOGIN record file
 001C70 58E0 7184/0DEE       01D3C 16730                       VCALL KEYDEL              Delete the record
 001C76 4770 70CA/4110_      01C82 16734                       IF    Z,'SETMSG "OK"'
 001C82 70CE/47F0 7116 01C82 01C78 16754                       ELSE  BEGIN               Trouble...
 001C86 4110 71D6/4100_      01D8E 16765  1                      SETMSG 'ERROR'
 001C8E 59F0 7188/4770_      01D40 16769  1                      IF    (R15,EQ,-3),'SETMSG "KLOGIN FILE IS NOT AVAILABLE"'
 001C9E 59F0 71A8/4770_      01D60 16794  1                      IF    (R15,EQ,-2),'SETMSG "RECORD FORMAT ERROR"'
 001CAE 59F0 71AC/4770_      01D64 16819  1                      IF    (R15,EQ,-1),'SETMSG "I/O ERROR"'
 001CBE 59F0 71B0/4770_      01D68 16844  1                      IF    (R15,EQ,1),'SETMSG "RECORD NOT FOUND"'
 001CCE                            16870                       END
                                   16874                       ¿þþþþþþþþþþþþþþþþþþþþþþþþþþþþÜ
                                   16875                       Ÿ  Pass back a return code.  Ÿ
                                   16876                       ¾þþþþþþþþþþþþþþþþþþþþþþþþþþþþ»
 001CCE D503 7178 4004_01D30 00004 16877              PKLGDRET IF    (KLGNARGS,EQ,2),BEGIN  Return the return code...
 001CD8 4126 0150/D74F_      00150 16896  1                      PRETVAL 2,STRING,(R1),(R0)
 DROP   VNENTRY,R5
 USING  VNENTRY,R2
 USING  VNENTRY,R5
 DROP   VNENTRY,R2
 001CF8                            16998                       END
                                   17002
 001CF8 1BFF                       17003                       CLEAR R15                 A-ok
                                   17007
 001CFA 58E0 B08C/4BD0_      0008C 17008              PKLGDXIT SCPOP ,
 001D08 18D8/9808 D004_            17014                       PEND
 DROP   VNENTRY,R5
 DROP   KLOGINWA-(4+36),R8
 DROP   *,R7
 DROP   KLOGINWA,R4                17044                       DROP  R4
                                   17051                       QLTORG
1PROC     (PROC2193) (12:51) (15MAR04) Routines for System Procedures                                                       Page   61
0Current Usings:  (CP,R11) (CV,R12)
0Loc    Object Code    Addr1 Addr2  Stmt Lv Lineno    Source Statement           (Hibal 5, Asmedit 3.3)  HLASM R4.0  2004/03/15 12.51
+___    ______ ____    _____ _____  ____ __ ______    ______ _________
0                                  17084              ¿þþþþþþþþþþþþþþþþþþþþþþþþþþþþþþþþþþþþþþþþþþþþþþþþþþþþþþþþþþþþþþþþþþþþþÜ
                                   17085              Ÿ                                                                     Ÿ
                                   17086              Ÿ   Convert KLOGIN list to array elements for KLOGIN_GET.             Ÿ
                                   17087              Ÿ                                                                     Ÿ
                                   17088              Ÿ   This function converts the collapsed array obtained from          Ÿ
                                   17089              Ÿ   KLOGIN_GET into the elements of an array.                         Ÿ
                                   17090              Ÿ                                                                     Ÿ
                                   17091              Ÿ   Inputs:                                                           Ÿ
                                   17092              Ÿ                                                                     Ÿ
                                   17093              Ÿ     R0 - The length of the collapsed list                           Ÿ
                                   17094              Ÿ     R1 - The list                                                   Ÿ
                                   17095              Ÿ     R2 - The array name descriptor.                                 Ÿ
                                   17096              Ÿ                                                                     Ÿ
                                   17097              Ÿ   Outputs:                                                          Ÿ
                                   17098              Ÿ                                                                     Ÿ
                                   17099              Ÿ     R15 = 0 if the function was successful, non-zero if not.        Ÿ
                                   17100              Ÿ                                                                     Ÿ
                                   17101              Ÿ     If successful:                                                  Ÿ
                                   17102              Ÿ        R0 - Contains the number of elements created.                Ÿ
                                   17103              Ÿ                                                                     Ÿ
                                                      ¾þþþþþþþþþþþþþþþþþþþþþþþþþþþþþþþþþþþþþþþþþþþþþþþþþþþþþþþþþþþþþþþþþþþþþ»
0000000                00000 00164 17104              MKLOGWA  RECORD BEGIN
 000000                            17112  1           MKLOGLEN   DS    F                   Length
 000004                            17113  1           MKLOGLPT   DS    A                   List location
 000008                            17114  1           MKLOGARY   DS    A                   Array name pointer
 00000C                            17115  1           MKLOGDIM   DS    F                   Array dimension
 000010                            17116  1           MKLOGCNT   DS    F                   List element count
 000014                            17117  1           MKLOGTMP   DS    XL(L'VPARM)         Work space
 000164                00164 00164 17118                       END  ,
 001DC2 50E0 D000/9008_      00000 17127              MKLOGLST PROC  MKLOGWA
 USING  *,R7
 USING  MKLOGWA-(4+36),R8
 001DDC 9002 8028            00000 17177                       STM   R0,R2,MKLOGLEN
 001DE0 1852                       17178                       LR    R5,R2
 USING  VNENTRY,R5                 17179                       WITH  (VNENTRY,R5)
                                   17192
 001DE2 D703 8038 8038 00010 00010 17193                       CLEAR MKLOGCNT
 001DE8 1B33                       17200                       CLEAR R3
 001DEA 1841                       17204                       LR    R4,R1
                                   17205
 001DEC 5930 8028/47B0_      00000 17206                       WHILE (R3,LT,MKLOGLEN),BEGIN
 001DF4 1F00/4300 4000             17225  1                      LC    R0,@R4              Get length of next item
 001DFA 4140 4001            00001 17230  1                      LA    R4,1(,R4)            and location of element
 001DFE 1814                       17231  1                      LR    R1,R4
 001E00 1A30                       17232  1                      AR    R3,R0               Update total length processed
 001E02 4130 3001            00001 17233  1                      LA    R3,1(,R3)
 001E06 1A40                       17234  1                      AR    R4,R0               Now point to next element
 001E08 4120 803C            00014 17235  1                      LA    R2,MKLOGTMP
 001E0C 58E0 7074/0DEE       01E50 17236  1                      VCALL VSTRING             Make a string variable
 001E12 4110 803C            00014 17240  1                      LA    R1,MKLOGTMP
 001E16 1825                       17241  1                      LR    R2,R5
 001E18 41F0 0001/5EF0_      00001 17242  1                      INCR  R15,MKLOGCNT        Element subscript
 001E24 40F0 5012            00012 17248  1                      STH   R15,VNASUB1
1PROC     (PROC2193) (12:51) (15MAR04) Routines for System Procedures                                                       Page   62
0Current Usings:  (VNENTRY,R5) (*,R7) (MKLOGWA-(4+36),R8) (CP,R11) (CV,R12)
0Loc    Object Code    Addr1 Addr2  Stmt Lv Lineno    Source Statement           (Hibal 5, Asmedit 3.3)  HLASM R4.0  2004/03/15 12.51
+___    ______ ____    _____ _____  ____ __ ______    ______ _________
0001E28 1B00                       17249  1                      CLEAR R0
 001E2A 58E0 7078/0DEE       01E54 17253  1                      VCALL SAVEVAR
 001E30 4770 705C            01E38 17257  1                      IF    NZ,EXIT
 001E34 47F0 7010            01DEC 17271                       END
                                   17276
 001E38 5800 8038            00010 17277                       L     R0,MKLOGCNT
                                   17278
 001E3C 5008 0004            00004 17279                       PRETURN (R0)             Return element count
 001E40 18D8/9808 D004_            17281                       PEND
 DROP   VNENTRY,R5
 DROP   MKLOGWA-(4+36),R8
 DROP   *,R7
                                   17311                       QLTORG
1PROC     (PROC2193) (12:51) (15MAR04) Routines for System Procedures                                                       Page   63
0Current Usings:  (CP,R11) (CV,R12)
0Loc    Object Code    Addr1 Addr2  Stmt Lv Lineno    Source Statement           (Hibal 5, Asmedit 3.3)  HLASM R4.0  2004/03/15 12.51
+___    ______ ____    _____ _____  ____ __ ______    ______ _________
0                                  17326              ¿þþþþþþþþþþþþþþþþþþþþþþþþþþþþþþþþþþþþþþþþþþþþþþþþþþþþþþþþþþþþþþþþþþþþþÜ
                                   17327              Ÿ                                                                     Ÿ
                                   17328              Ÿ  KLOGIN_GET(key, data_array, list_count, update-count, rc)          Ÿ
                                   17329              Ÿ                                                                     Ÿ
                                   17330              Ÿ    Get a KLOGIN record from the keys master file.                   Ÿ
                                   17331              Ÿ                                                                     Ÿ
                                                      ¾þþþþþþþþþþþþþþþþþþþþþþþþþþþþþþþþþþþþþþþþþþþþþþþþþþþþþþþþþþþþþþþþþþþþþ»
0001E58 50E0 D000/9008_      00000 17332              PCKLGGET PROC  KLOGINWA
 USING  *,R7
 USING  KLOGINWA-(4+36),R8
 001E72 58E0 B08C/D2AF_      0008C 17382                       SCPUSH ,
 001E80 5000 802C            00004 17388                       ST    R0,KLGNARGS         Number of arguments
 001E84 5010 8028            00000 17389                       ST    R1,KLGARGP          Arglist ptr
                                   17390
 001E88 4120 734E/58E0_      021C0 17391                       SETARGS '35SXIIS'         3-5 args: str, array, num, num, str
 001E92 4770 7286            020F8 17398                       BNZ   PKLGGXT
                                   17399
 001E96 4150 0150            00150 17400                       LA    R5,ARG2
 001E9A 5A50 8028            00000 17401                       A     R5,KLGARGP
                                   17402
 USING  VNENTRY,R5                 17403                       WITH  (VNENTRY,R5)
                                   17416
 001E9E 9504 5020/4770_00020       17417                       IF    VNARRAY,BEGIN
 001EA6 9501 5030/4770_00030       17432  1                      IF    VNASTR,BEGIN
 001EAE                            17447  1                      END
 001EAE 7040/47F0 704E 01EAE 01EAC 17451  1                      ELSE  BEGIN              arg 2 array base type not string
 001EB2 4120 0002/58E0_      00002 17462  2                        BADARG  2
 001EBC 47F0 7294            02106 17473  2                        EXIT  PCKLGGET
 001EC0                            17476  1                      END
 001EC0                            17480                       END
 001EC0 7052/47F0 7060 01EC0 01EA4 17484                       ELSE  BEGIN              arg 2 not an array
 001EC4 4120 0002/58E0_      00002 17495  1                      BADARG  2
 001ECE 47F0 7294            02106 17506  1                      EXIT  PCKLGGET
 001ED2                            17509                       END
                                   17513              *
                                   17514                       ¿þþþþþþþþþþþþþþþþþþþþþþþþþþþþÜ
                                   17515                       Ÿ  Pre-set returned values.  Ÿ
                                   17516                       ¾þþþþþþþþþþþþþþþþþþþþþþþþþþþþ»
 001ED2 4126 02A0/D74F_      002A0 17517                       PRETVAL 3,INTEGER,L:=F'0' List is initially empty
 DROP   VNENTRY,R5
 USING  VNENTRY,R2
 USING  VNENTRY,R5
 DROP   VNENTRY,R2
                                   17582
 001EEE D503 72C6 802C_02138 00004 17583                       IF    (KLGNARGS,GE,4),BEGIN  Optional returned values...
 001EF8 4126 03F0/D74F_      003F0 17601  1                      PRETVAL 4,INTEGER,L:=F'-1'  Pre-set -1
 DROP   VNENTRY,R5
 USING  VNENTRY,R2
 USING  VNENTRY,R5
 DROP   VNENTRY,R2
 001F14 D503 72CE 802C_02140 00004 17666  1                      IF    (KLGNARGS,LT,5),EXIT
 001F1E 4126 0540/D74F_      00540 17687  1                      PRETVAL 5,STRING,0,0      Pre-set null string
 DROP   VNENTRY,R5
1PROC     (PROC2193) (12:51) (15MAR04) Routines for System Procedures                                                       Page   64
0Current Usings:  (VNENTRY,R5) (*,R7) (KLOGINWA-(4+36),R8) (CP,R11) (CV,R12)
0Loc    Object Code    Addr1 Addr2  Stmt Lv Lineno    Source Statement           (Hibal 5, Asmedit 3.3)  HLASM R4.0  2004/03/15 12.51
+___    ______ ____    _____ _____  ____ __ ______    ______ _________
0USING  VNENTRY,R2
 USING  VNENTRY,R5
 DROP   VNENTRY,R2
 001F42                            17789                       END
                                   17793                       ¿þþþþþþþþþþþþþþþþþþþþþþþþþþþþþþþþþÜ
                                   17794                       Ÿ  This is a privileged SYSCALL.  Ÿ
                                   17795                       ¾þþþþþþþþþþþþþþþþþþþþþþþþþþþþþþþþþ»
 001F42 9140 B75A/4710_0075A       17796                       IF    ~CPFXAUTH,BEGIN     Caller isn't authorized...
 001F4A 4110 7322/4100_      02194 17811  1                      SETMSG 'PRIVILEGED'
 001F52 47F0 725A            020CC 17815  1                      B     PKLGGRET
 001F56                            17816                       END
                                   17820                       ¿þþþþþþþþþþþþÜ
                                   17821                       Ÿ  Get KEY.  Ÿ
                                   17822                       ¾þþþþþþþþþþþþ»
 001F56 4150 0000            00000 17823                       LA    R5,ARG1
 001F5A 5A50 8028            00000 17824                       A     R5,KLGARGP
 001F5E 4110 5026/4800_      00026 17825                       SETMSG VNSTRLOC,LH:VNSTRLEN
 001F66 58E0 72D2/0DEE       02144 17838                       VCALL LRTRIM
 001F6C 5900 72D6/4780_      02148 17842                       IF    (R0,NE,L'KLGKEY),BEGIN
 001F74 4110 7355/4100_      021C7 17859  1                      SETMSG 'KEY IS WRONG LENGTH'
 001F7C 47F0 725A            020CC 17863  1                      B     PKLGGRET
 001F80                            17864                       END
                                   17868
 001F80 1820                       17869                       LR    R2,R0
 001F82 0620/1222/4740_            17870                       MOVE  R2,KLGKEY,@R1       Save KEY data
                                   17908                       ¿þþþþþþþþþþþþþþþþþþþþþþþþþþþþþþþÜ
                                   17909                       Ÿ  Now read the data (if any).  Ÿ
                                   17910                       ¾þþþþþþþþþþþþþþþþþþþþþþþþþþþþþþþ»
 001F8E 58E0 72DA/0DEE       0214C 17911                       VCALL MARKHEAP
 001F94 50F0 8030            00008 17915                       ST    R15,KLGHEAP
 001F98 4100 0C92            00C92 17916                       LA    R0,L'KRBREC+KRBMXDL#
 001F9C 58E0 72DE/0DEE       02150 17917                       VCALL GETHEAP
 001FA2 1820                       17921                       LR    R2,R0
 001FA4 1831                       17922                       LR    R3,R1
 USING  KRBREC,R3                  17923                       USING KRBREC,R3
 001FA6 4100 000A            0000A 17932                       LA    R0,L'KRBKEY+L'KRBLEN
 001FAA 5000 3000            00000 17933                       ST    R0,KRBLEN
 001FAE D205 3004 8040 00004 00018 17934                       MVC   KRBKEY,KLGKEY
 DROP   KRBREC,R3                  17935                       DROP  R3
 001FB4 4100 0C92            00C92 17942                       LA    R0,L'KRBREC+KRBMXDL#
 001FB8 1820                       17943                       LR    R2,R0
 001FBA 4340 7368            021DA 17944                       IC    R4,=C'K'
 001FBE 58E0 72E2/0DEE       02154 17945                       VCALL KEYGET              Get record
 001FC4 4780 71A2            02014 17949                       IF    NZ,BEGIN            Trouble...
 001FC8 4110 7369/4100_      021DB 17960  1                      SETMSG 'ERROR'
 001FD0 59F0 72E6/4770_      02158 17964  1                      IF    (R15,EQ,-3),'SETMSG "KLOGIN FILE IS NOT AVAILABLE"'
 001FE0 59F0 7306/4770_      02178 17989  1                      IF    (R15,EQ,-2),'SETMSG "RECORD FORMAT ERROR"'
 001FF0 59F0 730A/4770_      0217C 18014  1                      IF    (R15,EQ,-1),'SETMSG "I/O ERROR"'
 002000 59F0 730E/4770_      02180 18039  1                      IF    (R15,EQ,1),'SETMSG "RECORD NOT FOUND"'
 002010 47F0 725A            020CC 18065  1                      B     PKLGGRET
 002014                            18066                       END
                                   18070
 002014 5900 7312/47D0_      02184 18071                       IF    (R0,GT,L'KRBREC+KRBMXDL#),BEGIN
 00201C 58F0 8030            00008 18088  1                      L     R15,KLGHEAP
1PROC     (PROC2193) (12:51) (15MAR04) Routines for System Procedures                                                       Page   65
0Current Usings:  (VNENTRY,R5) (*,R7) (KLOGINWA-(4+36),R8) (CP,R11) (CV,R12)
0Loc    Object Code    Addr1 Addr2  Stmt Lv Lineno    Source Statement           (Hibal 5, Asmedit 3.3)  HLASM R4.0  2004/03/15 12.51
+___    ______ ____    _____ _____  ____ __ ______    ______ _________
0002020 58E0 7316/0DEE       02188 18089  1                      VCALL RELHEAP
 002026 4110 738A/4100_      021FC 18093  1                      SETMSG 'KLOGIN RECORD TOO LARGE'
 00202E 47F0 725A            020CC 18097  1                      B     PKLGGRET
 002032                            18098                       END
                                   18102
 002032 1821                       18103                       LR    R2,R1               Point at returned record
 USING  KRBREC,R2                  18104                       USING KRBREC,R2
 002034 4830 2010            00010 18113                       LH    R3,KRBUC
 002038 5030 8038            00010 18114                       ST    R3,KLGUPDCT
 00203C 5800 2000            00000 18115                       L     R0,KRBLEN
 002040 5B00 731A            0218C 18116                       S     R0,=A(L'KRBREC)
 002044 4110 2012            00012 18117                       LA    R1,KRBLIST
 DROP   KRBREC,R2                  18118                       DROP  R2
 002048 4120 0150            00150 18125                       LA    R2,ARG2
 00204C 5A20 8028            00000 18126                       A     R2,KLGARGP
 002050 58E0 731E/0DEE       02190 18127                       ACALL MKLOGLST            Expand list to array
 002056 5000 8034            0000C 18131                       ST    R0,KLGCOUNT         Save list count
 00205A 4780 7202            02074 18132                       IF    NZ,BEGIN
 00205E 58F0 8030            00008 18143  1                      L     R15,KLGHEAP
 002062 58E0 7316/0DEE       02188 18144  1                      VCALL RELHEAP
 002068 4110 732C/4100_      0219E 18148  1                      SETMSG 'ERROR CONVERTING LIST TO ARRAY'
 002070 47F0 725A            020CC 18152  1                      B     PKLGGRET
 002074                            18153                       END
                                   18157
 002074 58F0 8030            00008 18158                       L     R15,KLGHEAP
 002078 58E0 7316/0DEE       02188 18159                       VCALL RELHEAP
                                   18163
 00207E 5830 8034            0000C 18164                       L     R3,KLGCOUNT
 002082 4126 02A0/D74F_      002A0 18165                       PRETVAL 3,INTEGER,(R3)    Return the list count
 DROP   VNENTRY,R5
 USING  VNENTRY,R2
 USING  VNENTRY,R5
 DROP   VNENTRY,R2
                                   18230
 00209C D503 72C6 802C_02138 00004 18231                       IF    (KLGNARGS,GE,4),BEGIN  Return the update count...
 0020A6 5830 8038            00010 18249  1                      L     R3,KLGUPDCT
 0020AA 4126 03F0/D74F_      003F0 18250  1                      PRETVAL 4,INTEGER,(R3)    Update count
 DROP   VNENTRY,R5
 USING  VNENTRY,R2
 USING  VNENTRY,R5
 DROP   VNENTRY,R2
 0020C4                            18315                       END
                                   18319
 0020C4 4110 734A/4100_      021BC 18320                       SETMSG 'OK'                Return code
                                   18324                       ¿þþþþþþþþþþþþþþþþþþþþþþþþþþþþÜ
                                   18325                       Ÿ  Pass back a return code.  Ÿ
                                   18326                       ¾þþþþþþþþþþþþþþþþþþþþþþþþþþþþ»
 0020CC D503 72C6 802C_02138 00004 18327              PKLGGRET IF    (KLGNARGS,GE,4),BEGIN  Return the return code...
 0020D6 4126 0540/D74F_      00540 18346  1                      PRETVAL 5,STRING,(R1),(R0)
 DROP   VNENTRY,R5
 USING  VNENTRY,R2
 USING  VNENTRY,R5
 DROP   VNENTRY,R2
 0020F6                            18448                       END
1PROC     (PROC2193) (12:51) (15MAR04) Routines for System Procedures                                                       Page   66
0Current Usings:  (VNENTRY,R5) (*,R7) (KLOGINWA-(4+36),R8) (CP,R11) (CV,R12)
0Loc    Object Code    Addr1 Addr2  Stmt Lv Lineno    Source Statement           (Hibal 5, Asmedit 3.3)  HLASM R4.0  2004/03/15 12.51
+___    ______ ____    _____ _____  ____ __ ______    ______ _________
0                                  18452
 0020F6 1BFF                       18453                       CLEAR R15                 A-ok
                                   18457
 0020F8 58E0 B08C/4BD0_      0008C 18458              PKLGGXT  SCPOP ,
 002106 18D8/9808 D004_            18464                       PEND
 DROP   VNENTRY,R5
 DROP   KLOGINWA-(4+36),R8
 DROP   *,R7
                                   18494                       QLTORG ,
1PROC     (PROC2193) (12:51) (15MAR04) Routines for System Procedures                                                       Page   67
0Current Usings:  (CP,R11) (CV,R12)
0Loc    Object Code    Addr1 Addr2  Stmt Lv Lineno    Source Statement           (Hibal 5, Asmedit 3.3)  HLASM R4.0  2004/03/15 12.51
+___    ______ ____    _____ _____  ____ __ ______    ______ _________
0                                  18540              ¿þþþþþþþþþþþþþþþþþþþþþþþþþþþþþþþþþþþþþþþþþþþþþþþþþþþþþþþþþþþþþþþþþþþþþÜ
                                   18541              Ÿ                                                                     Ÿ
                                   18542              Ÿ   Collapse string array for KLOGIN_PUT                              Ÿ
                                   18543              Ÿ                                                                     Ÿ
                                   18544              Ÿ   This function collapses a string array in the format required     Ÿ
                                   18545              Ÿ   for KLOGIN_PUT onto the heap.                                     Ÿ
                                   18546              Ÿ                                                                     Ÿ
                                   18547              Ÿ   Inputs:                                                           Ÿ
                                   18548              Ÿ                                                                     Ÿ
                                   18549              Ÿ     R1 - Points to the array variable descriptor                    Ÿ
                                   18550              Ÿ                                                                     Ÿ
                                   18551              Ÿ   Outputs:                                                          Ÿ
                                   18552              Ÿ                                                                     Ÿ
                                   18553              Ÿ     R15 = 0 if the function was successful, non-zero if not.        Ÿ
                                   18554              Ÿ                                                                     Ÿ
                                   18555              Ÿ     If successful:                                                  Ÿ
                                   18556              Ÿ        R0 - Contains the total length of the collapsed array        Ÿ
                                   18557              Ÿ             (note: the list could be empty - this will not          Ÿ
                                   18558              Ÿ                    be considered an error).                         Ÿ
                                   18559              Ÿ        R1 - Points to the collapsed array on the heap               Ÿ
                                   18560              Ÿ                                                                     Ÿ
                                                      ¾þþþþþþþþþþþþþþþþþþþþþþþþþþþþþþþþþþþþþþþþþþþþþþþþþþþþþþþþþþþþþþþþþþþþþ»
0000000                00000 0015C 18561              CLPSWA   RECORD BEGIN
 000000                            18569  1           CLPSDIM    DS    F                   # items in list
 000004                            18570  1           CLPSHEAP   DS    A                   Pointer to collapsed list
 000008                            18571  1           CLPSHPSZ   DS    F                   Size needed
 00000C                            18572  1           CLPSTEMP   DS    XL(L'VPARM)         Work space
 00015C                0015C 0015C 18573                       END  ,
 002226 50E0 D000/9008_      00000 18582              COLLAPSE PROC  CLPSWA
 USING  *,R7
 USING  CLPSWA-(4+36),R8
 002240 1851                       18632                       LR    R5,R1
 USING  VNENTRY,R5                 18633                       WITH  (VNENTRY,R5),BEGIN
 002242 4800 5032            00032 18647  1                      LH    R0,VNADIM1
 002246 5000 8028            00000 18648  1                      ST    R0,CLPSDIM
 DROP   VNENTRY,R5                 18649                       END
                                   18657              *
                                   18658              *  Determine the size.
                                   18659              *
 00224A 1B44                       18660                       CLEAR R4                  Total size of list
 00224C 1B33                       18664                       CLEAR R3                  List count
 00224E 5930 8028/47B0_      00000 18668                       WHILE (R3,LT,CLPSDIM),BEGIN
 002256 4110 3001            00001 18687  1                      LA    R1,1(,R3)           Subscript of element to get
 00225A 4010 5012            00012 18688  1                      WITH  (VNENTRY,R5),'STH R1,VNASUB1'  Want this element
 USING  VNENTRY,R5
 DROP   VNENTRY,R5
 00225E 4110 8034            0000C 18712  1                      LA    R1,CLPSTEMP         Element will go here
 002262 1825                       18713  1                      LR    R2,R5               Array name
 002264 1B00                       18714  1                      CLEAR R0                  Don't have array descriptor
 002266 58E0 70F8/0DEE       02338 18718  1                      VCALL GETARRAY
 00226C 4780 7034/47F0_      02274 18722  1                      IF    NZ,'EXIT COLLAPSE'
 002274 4120 8034            0000C 18741  1                      LA    R2,CLPSTEMP
 USING  VNENTRY,R2                 18742  1                      USING VNENTRY,R2
1PROC     (PROC2193) (12:51) (15MAR04) Routines for System Procedures                                                       Page   68
0Current Usings:  (VNENTRY,R2) (*,R7) (CLPSWA-(4+36),R8) (CP,R11) (CV,R12)
0Loc    Object Code    Addr1 Addr2  Stmt Lv Lineno    Source Statement           (Hibal 5, Asmedit 3.3)  HLASM R4.0  2004/03/15 12.51
+___    ______ ____    _____ _____  ____ __ ______    ______ _________
0002278 D501 7100 2024_02340 00024 18751  1                      IF    (VNSTRLEN,EQ,=H'0'),EXIT
 002282 4A40 2024            00024 18771  1                      AH    R4,VNSTRLEN
 DROP   VNENTRY,R2                 18772  1                      DROP  R2
 002286 4130 3001            00001 18779  1                      LA    R3,1(,R3)
 00228A 47F0 700E            0224E 18780                       END
                                   18785
 00228E 1244/4780 70C6             18786                       IF    (R4,NZ),BEGIN
 002294 1A43                       18800  1                      AR    R4,R3               Add space for length bytes
 002296 4140 4012            00012 18801  1                      LA    R4,L'KRBREC(,R4)    Add space for KLOGIN record
 00229A 5030 8028            00000 18802  1                      ST    R3,CLPSDIM          Save actual list count
 00229E 5040 8030            00008 18803  1                      ST    R4,CLPSHPSZ           and size needed
 0022A2 1804                       18804  1                      LR    R0,R4
 0022A4 58E0 70FC/0DEE       0233C 18805  1                      VCALL GETHEAP
 0022AA 5010 802C            00004 18809  1                      ST    R1,CLPSHEAP         Save address
                                   18810  1
 0022AE 1B33                       18811  1                      CLEAR R3                  List count
 0022B0 4140 1012            00012 18815  1                      LA    R4,L'KRBREC(,R1)    First location for element storage
 0022B4 5930 8028/47B0_      00000 18816  1                      WHILE (R3,LT,CLPSDIM),BEGIN
 0022BC 4110 3001            00001 18835  2                        LA    R1,1(,R3)           Subscript of element to get
 0022C0 4010 5012            00012 18836  2                        WITH  (VNENTRY,R5),'STH R1,VNASUB1'  Want this element
 USING  VNENTRY,R5
 DROP   VNENTRY,R5
 0022C4 4110 8034            0000C 18860  2                        LA    R1,CLPSTEMP         Element will go here
 0022C8 1825                       18861  2                        LR    R2,R5               Array descriptor
 0022CA 1B00                       18862  2                        CLEAR R0
 0022CC 58E0 70F8/0DEE       02338 18866  2                        VCALL GETARRAY
 0022D2 4780 709A/47F0_      022DA 18870  2                        IF    NZ,'EXIT COLLAPSE'
 0022DA 4120 8034            0000C 18889  2                        LA    R2,CLPSTEMP
 0022DE 4110 2026/4800_      00026 18890  2                        WITH  (VNENTRY,R2),'SETMSG VNSTRLOC,LH:VNSTRLEN'
 USING  VNENTRY,R2
 DROP   VNENTRY,R2
 0022E6 4200 4000            00000 18926  2                        STC   R0,@R4
 0022EA 4140 4001            00001 18927  2                        LA    R4,1(,R4)
 0022EE 1820                       18928  2                        LR    R2,R0
 0022F0 0620/1222/4740_            18929  2                        MOVE  R2,@R4,@R1          Move in the element
 0022FC 1A40                       18967  2                        AR    R4,R0                 and point to the next slot
 0022FE 4130 3001            00001 18968  2                        LA    R3,1(,R3)
 002302 47F0 7074            022B4 18969  1                      END
 002306                            18974                       END
 002306 70CA/47F0 70D6 02306 02292 18978                       ELSE  BEGIN               Empty list
 00230A D703 8030 8030 00008 00008 18989  1                      CLEAR CLPSHPSZ
 002310 D703 802C 802C 00004 00004 18996  1                      CLEAR CLPSHEAP
 002316                            19003                       END
                                   19007
 002316 1BFF                       19008                       CLEAR R15
 002318 5800 8030            00008 19012                       L     R0,CLPSHPSZ
 00231C 5810 802C            00004 19013                       L     R1,CLPSHEAP
                                   19014
 002320 9001 8004            00004 19015                       PRETURN (R0,R1)           Return list length and location
 002324 18D8/9808 D004_            19017                       PEND
 DROP   CLPSWA-(4+36),R8
 DROP   *,R7
                                   19042                       QLTORG
1PROC     (PROC2193) (12:51) (15MAR04) Routines for System Procedures                                                       Page   69
0Current Usings:  (CP,R11) (CV,R12)
0Loc    Object Code    Addr1 Addr2  Stmt Lv Lineno    Source Statement           (Hibal 5, Asmedit 3.3)  HLASM R4.0  2004/03/15 12.51
+___    ______ ____    _____ _____  ____ __ ______    ______ _________
0                                  19058              ¿þþþþþþþþþþþþþþþþþþþþþþþþþþþþþþþþþþþþþþþþþþþþþþþþþþþþþþþþþþþþþþþþþþþþþÜ
                                   19059              Ÿ                                                                     Ÿ
                                   19060              Ÿ  KLOGIN_PUT(key, data_array, update-count, rc)                      Ÿ
                                   19061              Ÿ                                                                     Ÿ
                                   19062              Ÿ    Add/Update a keyed record in the KLOGIN master file.             Ÿ
                                   19063              Ÿ                                                                     Ÿ
                                                      ¾þþþþþþþþþþþþþþþþþþþþþþþþþþþþþþþþþþþþþþþþþþþþþþþþþþþþþþþþþþþþþþþþþþþþþ»
0002348 50E0 D000/9008_      00000 19064              PCKLGPUT PROC  KLOGINWA
 USING  *,R7
 USING  KLOGINWA-(4+36),R8
 002362 4140 8028            00000 19114                       LA    R4,KLOGINWA
 USING  KWA,R4                     19115                       USING KWA,R4
 002366 58E0 B08C/D2AF_      0008C 19124                       SCPUSH ,
 002374 5000 802C            00004 19130                       ST    R0,KLGNARGS         Number of arguments
 002378 5010 8028            00000 19131                       ST    R1,KLGARGP          Arglist ptr
                                   19132
 00237C 4120 7306/58E0_      02668 19133                       SETARGS '24SXIS'          2-4 args: str, str, num, str
 002386 4770 725E            025C0 19140                       BNZ   PKLGPXIT
                                   19141
 USING  VNENTRY,R5                 19142                       WITH  (VNENTRY,R5)
                                   19155
 00238A 4151 0000            00000 19156                       LA    R5,ARG1(R1)
                                   19157                       ¿þþþþþþþþþþþþþþþþþþþþþþþþþþþþÜ
                                   19158                       Ÿ  Pre-set returned values.  Ÿ
                                   19159                       ¾þþþþþþþþþþþþþþþþþþþþþþþþþþþþ»
 00238E D503 72A2 4004_02604 00004 19160                       IF    (KWANARGS,EQ,4),BEGIN  Optional returned values...
 002398 4126 03F0/D74F_      003F0 19178  1                      PRETVAL 4,STRING,0,0      Pre-set null string
 DROP   VNENTRY,R5
 USING  VNENTRY,R2
 USING  VNENTRY,R5
 DROP   VNENTRY,R2
 0023BC                            19280                       END
                                   19284                       ¿þþþþþþþþþþþþþþþþþþþþþþþþþþþþþþþþþÜ
                                   19285                       Ÿ  This is a privileged SYSCALL.  Ÿ
                                   19286                       ¾þþþþþþþþþþþþþþþþþþþþþþþþþþþþþþþþþ»
 0023BC 9140 B75A/4710_0075A       19287                       IF    ~CPFXAUTH,BEGIN     Caller isn't authorized...
 0023C4 4110 730C/4100_      0266E 19302  1                      SETMSG 'PRIVILEGED'
 0023CC 47F0 7232            02594 19306  1                      B     PKLGPRET
 0023D0                            19307                       END
                                   19311                       ¿þþþþþþþþþþþþÜ
                                   19312                       Ÿ  Get KEY.  Ÿ
                                   19313                       ¾þþþþþþþþþþþþ»
 0023D0 4150 0000            00000 19314                       LA    R5,ARG1
 0023D4 5A50 8028            00000 19315                       A     R5,KLGARGP
 0023D8 4110 5026/4800_      00026 19316                       SETMSG VNSTRLOC,LH:VNSTRLEN
 0023E0 58E0 72A6/0DEE       02608 19329                       VCALL LRTRIM
 0023E6 5900 72AA/4780_      0260C 19333                       IF    (R0,NE,L'KLGKEY),BEGIN
 0023EE 4110 731C/4100_      0267E 19350  1                      SETMSG 'KEY IS WRONG LENGTH'
 0023F6 47F0 7232            02594 19354  1                      B     PKLGPRET
 0023FA                            19355                       END
                                   19359
 0023FA 1820                       19360                       LR    R2,R0
 0023FC 0620/1222/4740_            19361                       MOVE  R2,KLGKEY,@R1       Save KEY data
1PROC     (PROC2193) (12:51) (15MAR04) Routines for System Procedures                                                       Page   70
0Current Usings:  (KWA,R4) (VNENTRY,R5) (*,R7) (KLOGINWA-(4+36),R8) (CP,R11) (CV,R12)
0Loc    Object Code    Addr1 Addr2  Stmt Lv Lineno    Source Statement           (Hibal 5, Asmedit 3.3)  HLASM R4.0  2004/03/15 12.51
+___    ______ ____    _____ _____  ____ __ ______    ______ _________
0                                  19399                       ¿þþþþþþþþþþþþþþþþþþþþþþþþþþþþþþþþþþþþþþþþÜ
                                   19400                       Ÿ  Make sure the update count is valid.  Ÿ
                                   19401                       ¾þþþþþþþþþþþþþþþþþþþþþþþþþþþþþþþþþþþþþþþþ»
 002408 4150 02A0            002A0 19402                       LA    R5,ARG3
 00240C 5A50 8028            00000 19403                       A     R5,KLGARGP
 002410 5830 5024/1233       00024 19404                       LT    R3,VNVALUE          Get update count
 002416 47B0 70C4            02426 19408                       IF    NEG,BEGIN           Error...
 00241A 4110 727E/4100_      025E0 19419  1                      SETMSG 'BAD UPDATE COUNT'
 002422 47F0 7232            02594 19423  1                      B     PKLGPRET
 002426                            19424                       END
 002426 5030 8038            00010 19428                       ST    R3,KLGUPDCT         Save it here
                                   19429
 00242A 4120 8040            00018 19430                       LA    R2,KLGKEY           Key
                                   19431              *
                                   19432              * The KLOGIN list is passed as a string array.
                                   19433              *
 00242E 4150 0150            00150 19434                       LA    R5,ARG2
 002432 5A50 8028            00000 19435                       A     R5,KLGARGP
                                   19436
 002436 9504 5020/4770_00020       19437                       IF    VNARRAY,BEGIN
 00243E 9501 5030/4770_00030       19452  1                      IF    VNASTR,BEGIN
 002446                            19467  1                      END
 002446 70E8/47F0 70F6 02446 02444 19471  1                      ELSE  BEGIN             arg 2 array base type not string
 00244A 4120 0002/58E0_      00002 19482  2                        BADARG  2
 002454 47F0 726C            025CE 19493  2                        EXIT  PCKLGPUT
 002458                            19496  1                      END
 002458                            19500                       END
 002458 70FA/47F0 7108 02458 0243C 19504                       ELSE  BEGIN             arg 2 not an array
 00245C 4120 0002/58E0_      00002 19515  1                      BADARG  2
 002466 47F0 726C            025CE 19526  1                      EXIT  PCKLGPUT
 00246A                            19529                       END
                                   19533
 00246A 58E0 72B2/0DEE       02614 19534                       VCALL MARKHEAP
 002470 50F0 8030            00008 19538                       ST    R15,KLGHEAP
 002474 1815                       19539                       LR    R1,R5               Collapse the array
 002476 58E0 72B6/0DEE       02618 19540                       ACALL COLLAPSE
 00247C 12FF/4780 712C             19544                       IF    (R15,NZ),BEGIN
 002482 4110 732F/4100_      02691 19558  1                      SETMSG 'ERROR ACCESSING ARRAY'
 00248A 47F0 7232            02594 19562  1                      B     PKLGPRET
 00248E                            19563                       END
 00248E 1200/4770 713E             19567                       IF    (R0,Z),BEGIN
 002494 4110 7344/4100_      026A6 19581  1                      SETMSG 'LIST IS EMPTY'
 00249C 47F0 7232            02594 19585  1                      B     PKLGPRET
 0024A0                            19586                       END
                                   19590
 0024A0 1821                       19591                       LR    R2,R1
 0024A2 1830                       19592                       LR    R3,R0
 USING  KRBREC,R2                  19593                       USING KRBREC,R2
 0024A4 5030 2000            00000 19602                       ST    R3,KRBLEN           Save overall length
 0024A8 D205 2004 8040 00004 00018 19603                       MVC   KRBKEY,KLGKEY
 0024AE 58E0 72BA/0DEE       0261C 19604                       VCALL LOCALTOD            Set the time stamp
 0024B4 5000 200C            0000C 19608                       ST    R0,KRBCLOCK
1PROC     (PROC2193) (12:51) (15MAR04) Routines for System Procedures                                                       Page   71
0Current Usings:  (KRBREC,R2) (KWA,R4) (VNENTRY,R5) (*,R7) (KLOGINWA-(4+36),R8) (CP,R11) (CV,R12)
0Loc    Object Code    Addr1 Addr2  Stmt Lv Lineno    Source Statement           (Hibal 5, Asmedit 3.3)  HLASM R4.0  2004/03/15 12.51
+___    ______ ____    _____ _____  ____ __ ______    ______ _________
0                                  19609                       ¿þþþþþþþþþþþþþþþþþþþþþþþþþþþÜ
                                   19610                       Ÿ  Add/replace the record.  Ÿ
                                   19611                       ¾þþþþþþþþþþþþþþþþþþþþþþþþþþþ»
 0024B8 D603 8038 8038_00010 00010 19612                       IF    (KLGUPDCT,Z),BEGIN
 0024C2 D201 2010 7316 00010 02678 19628  1                      MVC   KRBUC,=H'1'         Set initial update count
 0024C8 1812                       19629  1                      LR    R1,R2               Get transaction location and length
 0024CA 1803                       19630  1                      LR    R0,R3
 0024CC 4320 7351            026B3 19631  1                      IC    R2,=C'K'
 0024D0 58E0 72BE/0DEE       02620 19632  1                      VCALL KEYADD
 0024D6                            19636                       END
 0024D6 7178/47F0 719E 024D6 024C0 19640                       ELSE  BEGIN
 0024DA 5810 8038            00010 19651  1                      L     R1,KLGUPDCT
 0024DE 4110 1001            00001 19652  1                      LA    R1,@R1+1            Kick update count
 0024E2 5410 72C2            02624 19653  1                      N     R1,=A(X'7FFF')      Force non-negative number
 0024E6 4770 718C/4110_      024EE 19654  1                      IF    Z,'LA R1,1'         Zero becomes one
 0024EE 4010 2010            00010 19671  1                      STH   R1,KRBUC
 0024F2 1812                       19672  1                      LR    R1,R2               Get transaction location and length
 0024F4 1803                       19673  1                      LR    R0,R3
 0024F6 4320 7351            026B3 19674  1                      IC    R2,=C'K'
 0024FA 58E0 72C6/0DEE       02628 19675  1                      VCALL KEYPUT
 002500                            19679                       END
 DROP   KRBREC,R2                  19683                       DROP  R2
                                   19690
 002500 182F                       19691                       LR    R2,R15              Save this
 002502 58F0 8030            00008 19692                       L     R15,KLGHEAP
 002506 58E0 72CA/0DEE       0262C 19693                       VCALL RELHEAP             Free the transaction buffer
 00250C 18F2                       19697                       LR    R15,R2
                                   19698
 00250E 4110 7318/4100_      0267A 19699                       SETMSG 'OK'                Assume OK
 002516 12FF/4780 7232             19703                       IF    (R15,NZ),BEGIN      Trouble...
 00251C 4110 7352/4100_      026B4 19717  1                      SETMSG 'ERROR'
 002524 59F0 72CE/4770_      02630 19721  1                      IF    (R15,EQ,-3),'SETMSG "KLOGIN FILE IS NOT AVAILABLE"'
 002534 59F0 72EE/4770_      02650 19746  1                      IF    (R15,EQ,-2),'SETMSG "RECORD FORMAT ERROR"'
 002544 59F0 72F2/4770_      02654 19771  1                      IF    (R15,EQ,-1),'SETMSG "I/O ERROR"'
 002554 59F0 72F6/4770_      02658 19796  1                      IF    (R15,EQ,1),'SETMSG "RECORD NOT FOUND"'
 002564 59F0 72FA/4770_      0265C 19822  1                      IF    (R15,EQ,2),'SETMSG "UPDATE COUNT MISMATCH"'
 002574 59F0 72FE/4770_      02660 19848  1                      IF    (R15,EQ,3),'SETMSG "RECORD ALREADY EXISTS"'
 002584 59F0 7302/4770_      02664 19874  1                      IF    (R15,EQ,4),'SETMSG "KLOGIN FILE IS FULL"'
 002594                            19900                       END
                                   19904                       ¿þþþþþþþþþþþþþþþþþþþþþþþþþþþþÜ
                                   19905                       Ÿ  Pass back a return code.  Ÿ
                                   19906                       ¾þþþþþþþþþþþþþþþþþþþþþþþþþþþþ»
 002594 D503 72A2 802C_02604 00004 19907              PKLGPRET IF    (KLGNARGS,EQ,4),BEGIN  Return the return code...
 00259E 4126 03F0/D74F_      003F0 19926  1                      PRETVAL 4,STRING,(R1),(R0)
 DROP   VNENTRY,R5
 USING  VNENTRY,R2
 USING  VNENTRY,R5
 DROP   VNENTRY,R2
 0025BE                            20028                       END
                                   20032
 0025BE 1BFF                       20033                       CLEAR R15                 A-ok
                                   20037
 0025C0 58E0 B08C/4BD0_      0008C 20038              PKLGPXIT SCPOP ,
 0025CE 18D8/9808 D004_            20044                       PEND
1PROC     (PROC2193) (12:51) (15MAR04) Routines for System Procedures                                                       Page   72
0Current Usings:  (KWA,R4) (CP,R11) (CV,R12)
0Loc    Object Code    Addr1 Addr2  Stmt Lv Lineno    Source Statement           (Hibal 5, Asmedit 3.3)  HLASM R4.0  2004/03/15 12.51
+___    ______ ____    _____ _____  ____ __ ______    ______ _________
0DROP   VNENTRY,R5
 DROP   KLOGINWA-(4+36),R8
 DROP   *,R7
 DROP   KWA,R4                     20074                       DROP  R4
                                   20081                       QLTORG
1PROC     (PROC2193) (12:51) (15MAR04) Routines for System Procedures                                                       Page   73
0Current Usings:  (CP,R11) (CV,R12)
0Loc    Object Code    Addr1 Addr2  Stmt Lv Lineno    Source Statement           (Hibal 5, Asmedit 3.3)  HLASM R4.0  2004/03/15 12.51
+___    ______ ____    _____ _____  ____ __ ______    ______ _________
0                                  20131              ¿þþþþþþþþþþþþþþþþþþþþþþþþþþþþþþþþþþþþþþþþþþþþþþþþþþþþþþþþþþþþþþþþþþþþþÜ
                                   20132              Ÿ                                                                     Ÿ
                                   20133              Ÿ  LINE_APPEND Procedure                                              Ÿ
                                   20134              Ÿ                                                                     Ÿ
                                   20135              Ÿ  LINE_APPEND (text-string [, cc [, activeno]])                      Ÿ
                                   20136              Ÿ                                                                     Ÿ
                                   20137              Ÿ                                                                     Ÿ
                                   20138              Ÿ  SEE COMMENTS AT START OF THIS MODULE                               Ÿ
                                   20139              Ÿ                                                                     Ÿ
                                                      ¾þþþþþþþþþþþþþþþþþþþþþþþþþþþþþþþþþþþþþþþþþþþþþþþþþþþþþþþþþþþþþþþþþþþþþ»
0002724 50E0 D000/9008_      00000 20140              PCLNAPND PROC
 USING  *,R7
                                   20179
 00273E 1840                       20180                       LR    R4,R0               R4 - arg count
                                   20181                       COMMENT                   R6 - return area pointer
                                   20182
 002740 4120 78CE/58E0_      0300C 20183                       SETARGS '13SSI'           1-3 args: str, str, int
 00274A 4770 7068            027A6 20190                       IF    Z,BEGIN             OK...
 USING  VNENTRY,R5                 20201  1                      USING VNENTRY,R5
                                   20210  1
                                   20211  1                      COMMENT                   GET ARG3: ACTIVE FILE NUMBER
                                   20212  1                      COMMENT ,                       (DEFAULT IS ZERO)
 00274E 1B33                       20213  1                      CLEAR R3
 002750 5900 788E/4750_      02FCC 20217  1                      IF    (R0,GE,3),BEGIN
 002758 4151 02A0            002A0 20234  2                        LA    R5,ARG3(R1)
 00275C 5830 5024            00024 20235  2                        L     R3,VNVALUE
 002760                            20236  1                      END
                                   20240  1
                                   20241  1                      COMMENT                   GET ARG1: TEXT
 002760 4151 0000            00000 20242  1                      LA    R5,ARG1(R1)
 002764 4110 5026/4800_      00026 20243  1                      SETMSG VNSTRLOC,LH:VNSTRLEN
 DROP   VNENTRY,R5                 20256  1                      DROP  R5
                                   20263  1
                                   20264  1                      COMMENT                   ADD THE LINE
                                   20265  1                      COMMENT
                                   20266  1                      COMMENT                   R0,R1 - TEXT LOC, LENGTH
                                   20267  1                      COMMENT                   R3 - ACTIVE FILE NUMBER
 00276C 58E0 7892/0DEE       02FD0 20268  1                      VCALL PTAPPEND  ,
 002772 4770 7068            027A6 20272  1                      IF    Z,BEGIN
 002776 5940 7896/4750_      02FD4 20283  2                        IF    (R4,GE,2),BEGIN     IF CC SPECIFIED, RETURN IT
 00277E 4126 0150/D74F_      00150 20300  3                          PRETVAL 2,STRING,'OK'
 USING  VNENTRY,R2
 DROP   VNENTRY,R2
 0027A6                            20379  2                        END
 0027A6                            20383  1                      END
 0027A6                            20387                       END
                                   20391
 0027A6 18D8/9808 D004_            20392                       PEND
 DROP   *,R7
1PROC     (PROC2193) (12:51) (15MAR04) Routines for System Procedures                                                       Page   74
0Current Usings:  (CP,R11) (CV,R12)
0Loc    Object Code    Addr1 Addr2  Stmt Lv Lineno    Source Statement           (Hibal 5, Asmedit 3.3)  HLASM R4.0  2004/03/15 12.51
+___    ______ ____    _____ _____  ____ __ ______    ______ _________
0                                  20413              ¿þþþþþþþþþþþþþþþþþþþþþþþþþþþþþþþþþþþþþþþþþþþþþþþþþþþþþþþþþþþþþþþþþþþþþÜ
                                   20414              Ÿ                                                                     Ÿ
                                   20415              Ÿ                                                                     Ÿ
                                   20416              Ÿ  LINE_FIRST(LINENO, STRING [,CC] [,ACTNO])                          Ÿ
                                   20417              Ÿ                                                                     Ÿ
                                   20418              Ÿ                                                                     Ÿ
                                   20419              Ÿ  SEE COMMENTS AT START OF MODULE                                    Ÿ
                                   20420              Ÿ                                                                     Ÿ
                                   20421              Ÿ                                                                     Ÿ
                                                      ¾þþþþþþþþþþþþþþþþþþþþþþþþþþþþþþþþþþþþþþþþþþþþþþþþþþþþþþþþþþþþþþþþþþþþþ»
0000000                00000 000FB 20422              GTWA     RECORD BEGIN
 000000                            20430  1           GTPRMCNT   DS    F                   PARM COUNT
 000004                            20431  1           GTRETPTR   DS    F                   RETURN PARM AREA
 000008                            20432  1           GTACTNO    DS    F                   ACTIVE FILE NUMBER
 00000C                            20433  1           GTLNO      DS    F                   LINE NUMBER
                                   20434  1           GTTEXT     DS    CL(&LINESZ)         LINE TEXT
 000010                                   1          +GTTEXT     DS    CL(235)             LINE TEXT
 0000FB                000FB 000FB 20435                       END
                                   20444              *
                                   20445              *
 0027B4 50E0 D000/9008_      00000 20446              PCLNFRST PROC  GTWA
 USING  *,R7
 USING  GTWA-(4+36),R8
                                   20496
                                   20497                       COMMENT                   SAVE ENTRY INFO
 0027CE 5000 8028            00000 20498                       ST    R0,GTPRMCNT         PARM COUNT
 0027D2 5060 802C            00004 20499                       ST    R6,GTRETPTR         RETURN AREA POINTER
                                   20500
                                   20501                       COMMENT                   CHECK PARMS
 0027D6 4120 7838/58E0_      03006 20502                       SETARGS '24WSSI'          2 TO 4 PARMS EXCEPTED
 0027E0 4770 7156            02924 20509                       IF    Z,BEGIN
                                   20520  1
                                   20521  1                      COMMENT                   GET PARAMETERS
 USING  VNENTRY,R5                 20522  1                      USING VNENTRY,R5
 0027E4 4151 0000            00000 20531  1                      LA    R5,ARG1(R1)
 0027E8 5820 5024            00024 20532  1                      L     R2,VNVALUE          PARM1 = LINE NUMBER
 0027EC 5020 8034            0000C 20533  1                      ST    R2,GTLNO
 0027F0 5900 780A/4770_      02FD8 20534  1                      IF    (R0,EQ,4),BEGIN
 0027F8 4151 03F0            003F0 20551  2                        LA    R5,ARG4(R1)
 0027FC 5820 5024            00024 20552  2                        L     R2,VNVALUE
 002800 5020 8030            00008 20553  2                        ST    R2,GTACTNO          PARM4 = ACTIVE FILE NUMBER
 002804 1222/4720 704A             20554  2                        IF    (R2,NP),BEGIN
 00280A 4120 0004/58E0_      00004 20568  3                          BADARG 4
 002814 47F0 7156            02924 20579  3                          EXIT  PCLNFRST
 002818                            20582  2                        END
 002818                            20586  1                      END
 002818 704E/47F0 7054 02818 027F6 20590  1                      ELSE  BEGIN
 00281C D703 8030 8030 00008 00008 20601  2                        CLEAR GTACTNO
 002822                            20608  1                      END
 DROP   VNENTRY,R5                 20612  1                      DROP  R5
                                   20619  1
                                   20620  1                      COMMENT                   GET LINE
 002822 4110 8038            00010 20621  1                      LA    R1,GTTEXT
1PROC     (PROC2193) (12:51) (15MAR04) Routines for System Procedures                                                       Page   75
0Current Usings:  (*,R7) (GTWA-(4+36),R8) (CP,R11) (CV,R12)
0Loc    Object Code    Addr1 Addr2  Stmt Lv Lineno    Source Statement           (Hibal 5, Asmedit 3.3)  HLASM R4.0  2004/03/15 12.51
+___    ______ ____    _____ _____  ____ __ ______    ______ _________
0002826 4120 8034            0000C 20622  1                      LA    R2,GTLNO
 00282A 5830 8030            00008 20623  1                      L     R3,GTACTNO
 00282E 58E0 7812/0DEE       02FE0 20624  1                      VCALL GTFRST
 002834 4770 70DC            028AA 20628  1                      IF    Z,BEGIN             GOT LINE OK, RETURN PARMS
 002838 4126 0150/D74F_      00150 20639  2                        PRETVAL 2,STRING,(R1),(R0)
 USING  VNENTRY,R2
 DROP   VNENTRY,R2
 002858 4126 0000/D74F_      00000 20724  2                        PRETVAL 1,LINENO,L:GTLNO
 USING  VNENTRY,R2
 DROP   VNENTRY,R2
 002878 D503 781A 8028_02FE8 00000 20772  2                        IF    (GTPRMCNT,GE,3),BEGIN
 002882 4126 02A0/D74F_      002A0 20790  3                          PRETVAL 3,STRING,'OK'
 USING  VNENTRY,R2
 DROP   VNENTRY,R2
 0028AA                            20869  2                        END
 0028AA                            20873  1                      END
 0028AA 70E0/47F0 7156 028AA 02836 20877  1                      ELSE  BEGIN
 0028AE 4126 0000/D74F_      00000 20888  2                        PRETVAL 1,LINENO,L:=F'-1000'
 USING  VNENTRY,R2
 DROP   VNENTRY,R2
 0028CE 1B11                       20936  2                        CLEAR R1
 0028D0 1B00                       20940  2                        CLEAR R0
 0028D2 4126 0150/D74F_      00150 20944  2                        PRETVAL 2,STRING,(R1),(R0)
 USING  VNENTRY,R2
 DROP   VNENTRY,R2
 0028F2 D503 781A 8028_02FE8 00000 21029  2                        IF    (GTPRMCNT,GE,3),BEGIN
 0028FC 4126 02A0/D74F_      002A0 21047  3                          PRETVAL 3,STRING,'NOT FOUND'
 USING  VNENTRY,R2
 DROP   VNENTRY,R2
 002924                            21126  2                        END
 002924                            21130  1                      END
                                   21134  1
 002924                            21135                       END
 002924 18D8/9808 D004_            21139                       PEND
 DROP   GTWA-(4+36),R8
 DROP   *,R7
1PROC     (PROC2193) (12:51) (15MAR04) Routines for System Procedures                                                       Page   76
0Current Usings:  (CP,R11) (CV,R12)
0Loc    Object Code    Addr1 Addr2  Stmt Lv Lineno    Source Statement           (Hibal 5, Asmedit 3.3)  HLASM R4.0  2004/03/15 12.51
+___    ______ ____    _____ _____  ____ __ ______    ______ _________
0                                  21165              ¿þþþþþþþþþþþþþþþþþþþþþþþþþþþþþþþþþþþþþþþþþþþþþþþþþþþþþþþþþþþþþþþþþþþþþÜ
                                   21166              Ÿ                                                                     Ÿ
                                   21167              Ÿ  LINE_GET ( LINENO, STRING [,CC] [,ACTNO] )                         Ÿ
                                   21168              Ÿ                                                                     Ÿ
                                   21169              Ÿ                                                                     Ÿ
                                   21170              Ÿ  SEE COMMENTS AT START OF MODULE                                    Ÿ
                                   21171              Ÿ                                                                     Ÿ
                                                      ¾þþþþþþþþþþþþþþþþþþþþþþþþþþþþþþþþþþþþþþþþþþþþþþþþþþþþþþþþþþþþþþþþþþþþþ»
0002932 50E0 D000/9008_      00000 21172              PCLNGET  PROC  GTWA
 USING  *,R7
 USING  GTWA-(4+36),R8
                                   21222
                                   21223                       COMMENT                   SAVE ENTRY INFO
 00294C 5000 8028            00000 21224                       ST    R0,GTPRMCNT         PARM COUNT
 002950 5060 802C            00004 21225                       ST    R6,GTRETPTR         RETURN AREA POINTER
                                   21226
                                   21227                       COMMENT                   CHECK PARMS
 002954 4120 76BA/58E0_      03006 21228                       SETARGS '24WSSI'          2 TO 4 PARMS EXCEPTED
 00295E 4770 7156            02AA2 21235                       IF    Z,BEGIN
                                   21246  1
                                   21247  1                      COMMENT                   GET PARAMETERS
 USING  VNENTRY,R5                 21248  1                      USING VNENTRY,R5
 002962 4151 0000            00000 21257  1                      LA    R5,ARG1(R1)
 002966 5820 5024            00024 21258  1                      L     R2,VNVALUE          PARM1 = LINE NUMBER
 00296A 5020 8034            0000C 21259  1                      ST    R2,GTLNO
 00296E 5900 768C/4770_      02FD8 21260  1                      IF    (R0,EQ,4),BEGIN
 002976 4151 03F0            003F0 21277  2                        LA    R5,ARG4(R1)
 00297A 5820 5024            00024 21278  2                        L     R2,VNVALUE
 00297E 5020 8030            00008 21279  2                        ST    R2,GTACTNO          PARM4 = ACTIVE FILE NUMBER
 002982 1222/4720 704A             21280  2                        IF    (R2,NP),BEGIN
 002988 4120 0004/58E0_      00004 21294  3                          BADARG 4
 002992 47F0 7156            02AA2 21305  3                          EXIT  PCLNGET
 002996                            21308  2                        END
 002996                            21312  1                      END
 002996 704E/47F0 7054 02996 02974 21316  1                      ELSE  BEGIN
 00299A D703 8030 8030 00008 00008 21327  2                        CLEAR GTACTNO
 0029A0                            21334  1                      END
 DROP   VNENTRY,R5                 21338  1                      DROP  R5
                                   21345  1
                                   21346  1                      COMMENT                   GET LINE
 0029A0 4110 8038            00010 21347  1                      LA    R1,GTTEXT
 0029A4 4120 8034            0000C 21348  1                      LA    R2,GTLNO
 0029A8 5830 8030            00008 21349  1                      L     R3,GTACTNO
 0029AC 58E0 76A4/0DEE       02FF0 21350  1                      VCALL GTLINE
 0029B2 4770 70DC            02A28 21354  1                      IF    Z,BEGIN             GOT LINE OK, RETURN PARMS
 0029B6 4126 0150/D74F_      00150 21365  2                        PRETVAL 2,STRING,(R1),(R0)
 USING  VNENTRY,R2
 DROP   VNENTRY,R2
 0029D6 4126 0000/D74F_      00000 21450  2                        PRETVAL 1,LINENO,L:GTLNO
 USING  VNENTRY,R2
 DROP   VNENTRY,R2
 0029F6 D503 769C 8028_02FE8 00000 21498  2                        IF    (GTPRMCNT,GE,3),BEGIN
 002A00 4126 02A0/D74F_      002A0 21516  3                          PRETVAL 3,STRING,'OK'
1PROC     (PROC2193) (12:51) (15MAR04) Routines for System Procedures                                                       Page   77
0Current Usings:  (*,R7) (GTWA-(4+36),R8) (CP,R11) (CV,R12)
0Loc    Object Code    Addr1 Addr2  Stmt Lv Lineno    Source Statement           (Hibal 5, Asmedit 3.3)  HLASM R4.0  2004/03/15 12.51
+___    ______ ____    _____ _____  ____ __ ______    ______ _________
0USING  VNENTRY,R2
 DROP   VNENTRY,R2
 002A28                            21595  2                        END
 002A28                            21599  1                      END
 002A28 70E0/47F0 7156 02A28 029B4 21603  1                      ELSE  BEGIN
 002A2C 4126 0000/D74F_      00000 21614  2                        PRETVAL 1,LINENO,L:=F'-1000'
 USING  VNENTRY,R2
 DROP   VNENTRY,R2
 002A4C 1B11                       21662  2                        CLEAR R1
 002A4E 1B00                       21666  2                        CLEAR R0
 002A50 4126 0150/D74F_      00150 21670  2                        PRETVAL 2,STRING,(R1),(R0)
 USING  VNENTRY,R2
 DROP   VNENTRY,R2
 002A70 D503 769C 8028_02FE8 00000 21755  2                        IF    (GTPRMCNT,GE,3),BEGIN
 002A7A 4126 02A0/D74F_      002A0 21773  3                          PRETVAL 3,STRING,'NOT FOUND'
 USING  VNENTRY,R2
 DROP   VNENTRY,R2
 002AA2                            21852  2                        END
 002AA2                            21856  1                      END
                                   21860  1
 002AA2                            21861                       END
 002AA2 18D8/9808 D004_            21865                       PEND
 DROP   GTWA-(4+36),R8
 DROP   *,R7
1PROC     (PROC2193) (12:51) (15MAR04) Routines for System Procedures                                                       Page   78
0Current Usings:  (CP,R11) (CV,R12)
0Loc    Object Code    Addr1 Addr2  Stmt Lv Lineno    Source Statement           (Hibal 5, Asmedit 3.3)  HLASM R4.0  2004/03/15 12.51
+___    ______ ____    _____ _____  ____ __ ______    ______ _________
0                                  21891              ¿þþþþþþþþþþþþþþþþþþþþþþþþþþþþþþþþþþþþþþþþþþþþþþþþþþþþþþþþþþþþþþþþþþþþþÜ
                                   21892              Ÿ                                                                     Ÿ
                                   21893              Ÿ                                                                     Ÿ
                                   21894              Ÿ  LINE_LAST ( LINENO, STRING [,CC] [,ACTNO] )                        Ÿ
                                   21895              Ÿ                                                                     Ÿ
                                   21896              Ÿ                                                                     Ÿ
                                   21897              Ÿ  SEE COMMENTS AT START OF MODULE                                    Ÿ
                                   21898              Ÿ                                                                     Ÿ
                                   21899              Ÿ                                                                     Ÿ
                                                      ¾þþþþþþþþþþþþþþþþþþþþþþþþþþþþþþþþþþþþþþþþþþþþþþþþþþþþþþþþþþþþþþþþþþþþþ»
0002AB0 50E0 D000/9008_      00000 21900              PCLNLAST PROC  GTWA
 USING  *,R7
 USING  GTWA-(4+36),R8
                                   21950
                                   21951                       COMMENT                   SAVE ENTRY INFO
 002ACA 5000 8028            00000 21952                       ST    R0,GTPRMCNT         PARM COUNT
 002ACE 5060 802C            00004 21953                       ST    R6,GTRETPTR         RETURN AREA POINTER
                                   21954
                                   21955                       COMMENT                   CHECK PARMS
 002AD2 4120 753C/58E0_      03006 21956                       SETARGS '24WSSI'          2 TO 4 PARMS EXCEPTED
 002ADC 4770 7156            02C20 21963                       IF    Z,BEGIN
                                   21974  1
                                   21975  1                      COMMENT                   GET PARAMETERS
 USING  VNENTRY,R5                 21976  1                      USING VNENTRY,R5
 002AE0 4151 0000            00000 21985  1                      LA    R5,ARG1(R1)
 002AE4 5820 5024            00024 21986  1                      L     R2,VNVALUE          PARM1 = LINE NUMBER
 002AE8 5020 8034            0000C 21987  1                      ST    R2,GTLNO
 002AEC 5900 750E/4770_      02FD8 21988  1                      IF    (R0,EQ,4),BEGIN
 002AF4 4151 03F0            003F0 22005  2                        LA    R5,ARG4(R1)
 002AF8 5820 5024            00024 22006  2                        L     R2,VNVALUE
 002AFC 5020 8030            00008 22007  2                        ST    R2,GTACTNO          PARM4 = ACTIVE FILE NUMBER
 002B00 1222/4720 704A             22008  2                        IF    (R2,NP),BEGIN
 002B06 4120 0004/58E0_      00004 22022  3                          BADARG 4
 002B10 47F0 7156            02C20 22033  3                          EXIT  PCLNLAST
 002B14                            22036  2                        END
 002B14                            22040  1                      END
 002B14 704E/47F0 7054 02B14 02AF2 22044  1                      ELSE  BEGIN
 002B18 D703 8030 8030 00008 00008 22055  2                        CLEAR GTACTNO
 002B1E                            22062  1                      END
 DROP   VNENTRY,R5                 22066  1                      DROP  R5
                                   22073  1
                                   22074  1                      COMMENT                   GET LINE
 002B1E 4110 8038            00010 22075  1                      LA    R1,GTTEXT
 002B22 4120 8034            0000C 22076  1                      LA    R2,GTLNO
 002B26 5830 8030            00008 22077  1                      L     R3,GTACTNO
 002B2A 58E0 752A/0DEE       02FF4 22078  1                      VCALL GTLAST
 002B30 4770 70DC            02BA6 22082  1                      IF    Z,BEGIN             GOT LINE OK, RETURN PARMS
 002B34 4126 0150/D74F_      00150 22093  2                        PRETVAL 2,STRING,(R1),(R0)
 USING  VNENTRY,R2
 DROP   VNENTRY,R2
 002B54 4126 0000/D74F_      00000 22178  2                        PRETVAL 1,LINENO,L:GTLNO
 USING  VNENTRY,R2
 DROP   VNENTRY,R2
1PROC     (PROC2193) (12:51) (15MAR04) Routines for System Procedures                                                       Page   79
0Current Usings:  (*,R7) (GTWA-(4+36),R8) (CP,R11) (CV,R12)
0Loc    Object Code    Addr1 Addr2  Stmt Lv Lineno    Source Statement           (Hibal 5, Asmedit 3.3)  HLASM R4.0  2004/03/15 12.51
+___    ______ ____    _____ _____  ____ __ ______    ______ _________
0002B74 D503 751E 8028_02FE8 00000 22226  2                        IF    (GTPRMCNT,GE,3),BEGIN
 002B7E 4126 02A0/D74F_      002A0 22244  3                          PRETVAL 3,STRING,'OK'
 USING  VNENTRY,R2
 DROP   VNENTRY,R2
 002BA6                            22323  2                        END
 002BA6                            22327  1                      END
 002BA6 70E0/47F0 7156 02BA6 02B32 22331  1                      ELSE  BEGIN
 002BAA 4126 0000/D74F_      00000 22342  2                        PRETVAL 1,LINENO,L:=F'-1000'
 USING  VNENTRY,R2
 DROP   VNENTRY,R2
 002BCA 1B11                       22390  2                        CLEAR R1
 002BCC 1B00                       22394  2                        CLEAR R0
 002BCE 4126 0150/D74F_      00150 22398  2                        PRETVAL 2,STRING,(R1),(R0)
 USING  VNENTRY,R2
 DROP   VNENTRY,R2
 002BEE D503 751E 8028_02FE8 00000 22483  2                        IF    (GTPRMCNT,GE,3),BEGIN
 002BF8 4126 02A0/D74F_      002A0 22501  3                          PRETVAL 3,STRING,'NOT FOUND'
 USING  VNENTRY,R2
 DROP   VNENTRY,R2
 002C20                            22580  2                        END
 002C20                            22584  1                      END
                                   22588  1
 002C20                            22589                       END
 002C20 18D8/9808 D004_            22593                       PEND
 DROP   GTWA-(4+36),R8
 DROP   *,R7
1PROC     (PROC2193) (12:51) (15MAR04) Routines for System Procedures                                                       Page   80
0Current Usings:  (CP,R11) (CV,R12)
0Loc    Object Code    Addr1 Addr2  Stmt Lv Lineno    Source Statement           (Hibal 5, Asmedit 3.3)  HLASM R4.0  2004/03/15 12.51
+___    ______ ____    _____ _____  ____ __ ______    ______ _________
0                                  22619              ¿þþþþþþþþþþþþþþþþþþþþþþþþþþþþþþþþþþþþþþþþþþþþþþþþþþþþþþþþþþþþþþþþþþþþþÜ
                                   22620              Ÿ                                                                     Ÿ
                                   22621              Ÿ                                                                     Ÿ
                                   22622              Ÿ  LINE_NEXT ( LINENO, STRING [,CC] [,ACTNO] )                        Ÿ
                                   22623              Ÿ                                                                     Ÿ
                                   22624              Ÿ                                                                     Ÿ
                                   22625              Ÿ  SEE COMMENTS AT START OF MODULE                                    Ÿ
                                   22626              Ÿ                                                                     Ÿ
                                   22627              Ÿ                                                                     Ÿ
                                                      ¾þþþþþþþþþþþþþþþþþþþþþþþþþþþþþþþþþþþþþþþþþþþþþþþþþþþþþþþþþþþþþþþþþþþþþ»
0002C2E 50E0 D000/9008_      00000 22628              PCLNNEXT PROC  GTWA
 USING  *,R7
 USING  GTWA-(4+36),R8
                                   22678
                                   22679                       COMMENT                   SAVE ENTRY INFO
 002C48 5000 8028            00000 22680                       ST    R0,GTPRMCNT         PARM COUNT
 002C4C 5060 802C            00004 22681                       ST    R6,GTRETPTR         RETURN AREA POINTER
                                   22682
                                   22683                       COMMENT                   CHECK PARMS
 002C50 4120 73BE/58E0_      03006 22684                       SETARGS '24WSSI'          2 TO 4 PARMS EXCEPTED
 002C5A 4770 7156            02D9E 22691                       IF    Z,BEGIN
                                   22702  1
                                   22703  1                      COMMENT                   GET PARAMETERS
 USING  VNENTRY,R5                 22704  1                      USING VNENTRY,R5
 002C5E 4151 0000            00000 22713  1                      LA    R5,ARG1(R1)
 002C62 5820 5024            00024 22714  1                      L     R2,VNVALUE          PARM1 = LINE NUMBER
 002C66 5020 8034            0000C 22715  1                      ST    R2,GTLNO
 002C6A 5900 7390/4770_      02FD8 22716  1                      IF    (R0,EQ,4),BEGIN
 002C72 4151 03F0            003F0 22733  2                        LA    R5,ARG4(R1)
 002C76 5820 5024            00024 22734  2                        L     R2,VNVALUE
 002C7A 5020 8030            00008 22735  2                        ST    R2,GTACTNO          PARM4 = ACTIVE FILE NUMBER
 002C7E 1222/4720 704A             22736  2                        IF    (R2,NP),BEGIN
 002C84 4120 0004/58E0_      00004 22750  3                          BADARG 4
 002C8E 47F0 7156            02D9E 22761  3                          EXIT  PCLNNEXT
 002C92                            22764  2                        END
 002C92                            22768  1                      END
 002C92 704E/47F0 7054 02C92 02C70 22772  1                      ELSE  BEGIN
 002C96 D703 8030 8030 00008 00008 22783  2                        CLEAR GTACTNO
 002C9C                            22790  1                      END
 DROP   VNENTRY,R5                 22794  1                      DROP  R5
                                   22801  1
                                   22802  1                      COMMENT                   GET LINE
 002C9C 4110 8038            00010 22803  1                      LA    R1,GTTEXT
 002CA0 4120 8034            0000C 22804  1                      LA    R2,GTLNO
 002CA4 5830 8030            00008 22805  1                      L     R3,GTACTNO
 002CA8 58E0 73B0/0DEE       02FF8 22806  1                      VCALL GTNEXT
 002CAE 4770 70DC            02D24 22810  1                      IF    Z,BEGIN             GOT LINE OK, RETURN PARMS
 002CB2 4126 0150/D74F_      00150 22821  2                        PRETVAL 2,STRING,(R1),(R0)
 USING  VNENTRY,R2
 DROP   VNENTRY,R2
 002CD2 4126 0000/D74F_      00000 22906  2                        PRETVAL 1,LINENO,L:GTLNO
 USING  VNENTRY,R2
 DROP   VNENTRY,R2
1PROC     (PROC2193) (12:51) (15MAR04) Routines for System Procedures                                                       Page   81
0Current Usings:  (*,R7) (GTWA-(4+36),R8) (CP,R11) (CV,R12)
0Loc    Object Code    Addr1 Addr2  Stmt Lv Lineno    Source Statement           (Hibal 5, Asmedit 3.3)  HLASM R4.0  2004/03/15 12.51
+___    ______ ____    _____ _____  ____ __ ______    ______ _________
0002CF2 D503 73A0 8028_02FE8 00000 22954  2                        IF    (GTPRMCNT,GE,3),BEGIN
 002CFC 4126 02A0/D74F_      002A0 22972  3                          PRETVAL 3,STRING,'OK'
 USING  VNENTRY,R2
 DROP   VNENTRY,R2
 002D24                            23051  2                        END
 002D24                            23055  1                      END
 002D24 70E0/47F0 7156 02D24 02CB0 23059  1                      ELSE  BEGIN
 002D28 4126 0000/D74F_      00000 23070  2                        PRETVAL 1,LINENO,L:=F'-1000'
 USING  VNENTRY,R2
 DROP   VNENTRY,R2
 002D48 1B11                       23118  2                        CLEAR R1
 002D4A 1B00                       23122  2                        CLEAR R0
 002D4C 4126 0150/D74F_      00150 23126  2                        PRETVAL 2,STRING,(R1),(R0)
 USING  VNENTRY,R2
 DROP   VNENTRY,R2
 002D6C D503 73A0 8028_02FE8 00000 23211  2                        IF    (GTPRMCNT,GE,3),BEGIN
 002D76 4126 02A0/D74F_      002A0 23229  3                          PRETVAL 3,STRING,'NOT FOUND'
 USING  VNENTRY,R2
 DROP   VNENTRY,R2
 002D9E                            23308  2                        END
 002D9E                            23312  1                      END
                                   23316  1
 002D9E                            23317                       END
 002D9E 18D8/9808 D004_            23321                       PEND
 DROP   GTWA-(4+36),R8
 DROP   *,R7
1PROC     (PROC2193) (12:51) (15MAR04) Routines for System Procedures                                                       Page   82
0Current Usings:  (CP,R11) (CV,R12)
0Loc    Object Code    Addr1 Addr2  Stmt Lv Lineno    Source Statement           (Hibal 5, Asmedit 3.3)  HLASM R4.0  2004/03/15 12.51
+___    ______ ____    _____ _____  ____ __ ______    ______ _________
0                                  23347              ¿þþþþþþþþþþþþþþþþþþþþþþþþþþþþþþþþþþþþþþþþþþþþþþþþþþþþþþþþþþþþþþþþþþþþþÜ
                                   23348              Ÿ                                                                     Ÿ
                                   23349              Ÿ                                                                     Ÿ
                                   23350              Ÿ  LINE_PREV ( LINENO, STRING [,CC] [,ACTNO] )                        Ÿ
                                   23351              Ÿ                                                                     Ÿ
                                   23352              Ÿ                                                                     Ÿ
                                   23353              Ÿ  SEE COMMENTS AT START OF MODULE                                    Ÿ
                                   23354              Ÿ                                                                     Ÿ
                                   23355              Ÿ                                                                     Ÿ
                                                      ¾þþþþþþþþþþþþþþþþþþþþþþþþþþþþþþþþþþþþþþþþþþþþþþþþþþþþþþþþþþþþþþþþþþþþþ»
0002DAC 50E0 D000/9008_      00000 23356              PCLNPREV PROC  GTWA
 USING  *,R7
 USING  GTWA-(4+36),R8
                                   23406
                                   23407                       COMMENT                   SAVE ENTRY INFO
 002DC6 5000 8028            00000 23408                       ST    R0,GTPRMCNT         PARM COUNT
 002DCA 5060 802C            00004 23409                       ST    R6,GTRETPTR         RETURN AREA POINTER
                                   23410
                                   23411                       COMMENT                   CHECK PARMS
 002DCE 4120 7240/58E0_      03006 23412                       SETARGS '24WSSI'          2 TO 4 PARMS EXCEPTED
 002DD8 4770 7156            02F1C 23419                       IF    Z,BEGIN
                                   23430  1
                                   23431  1                      COMMENT                   GET PARAMETERS
 USING  VNENTRY,R5                 23432  1                      USING VNENTRY,R5
 002DDC 4151 0000            00000 23441  1                      LA    R5,ARG1(R1)
 002DE0 5820 5024            00024 23442  1                      L     R2,VNVALUE          PARM1 = LINE NUMBER
 002DE4 5020 8034            0000C 23443  1                      ST    R2,GTLNO
 002DE8 5900 7212/4770_      02FD8 23444  1                      IF    (R0,EQ,4),BEGIN
 002DF0 4151 03F0            003F0 23461  2                        LA    R5,ARG4(R1)
 002DF4 5820 5024            00024 23462  2                        L     R2,VNVALUE
 002DF8 5020 8030            00008 23463  2                        ST    R2,GTACTNO          PARM4 = ACTIVE FILE NUMBER
 002DFC 1222/4720 704A             23464  2                        IF    (R2,NP),BEGIN
 002E02 4120 0004/58E0_      00004 23478  3                          BADARG 4
 002E0C 47F0 7156            02F1C 23489  3                          EXIT  PCLNPREV
 002E10                            23492  2                        END
 002E10                            23496  1                      END
 002E10 704E/47F0 7054 02E10 02DEE 23500  1                      ELSE  BEGIN
 002E14 D703 8030 8030 00008 00008 23511  2                        CLEAR GTACTNO
 002E1A                            23518  1                      END
 DROP   VNENTRY,R5                 23522  1                      DROP  R5
                                   23529  1
                                   23530  1                      COMMENT                   GET LINE
 002E1A 4110 8038            00010 23531  1                      LA    R1,GTTEXT
 002E1E 4120 8034            0000C 23532  1                      LA    R2,GTLNO
 002E22 5830 8030            00008 23533  1                      L     R3,GTACTNO
 002E26 58E0 7236/0DEE       02FFC 23534  1                      VCALL GTPREV
 002E2C 4770 70DC            02EA2 23538  1                      IF    Z,BEGIN             GOT LINE OK, RETURN PARMS
 002E30 4126 0150/D74F_      00150 23549  2                        PRETVAL 2,STRING,(R1),(R0)
 USING  VNENTRY,R2
 DROP   VNENTRY,R2
 002E50 4126 0000/D74F_      00000 23634  2                        PRETVAL 1,LINENO,L:GTLNO
 USING  VNENTRY,R2
 DROP   VNENTRY,R2
1PROC     (PROC2193) (12:51) (15MAR04) Routines for System Procedures                                                       Page   83
0Current Usings:  (*,R7) (GTWA-(4+36),R8) (CP,R11) (CV,R12)
0Loc    Object Code    Addr1 Addr2  Stmt Lv Lineno    Source Statement           (Hibal 5, Asmedit 3.3)  HLASM R4.0  2004/03/15 12.51
+___    ______ ____    _____ _____  ____ __ ______    ______ _________
0002E70 D503 7222 8028_02FE8 00000 23682  2                        IF    (GTPRMCNT,GE,3),BEGIN
 002E7A 4126 02A0/D74F_      002A0 23700  3                          PRETVAL 3,STRING,'OK'
 USING  VNENTRY,R2
 DROP   VNENTRY,R2
 002EA2                            23779  2                        END
 002EA2                            23783  1                      END
 002EA2 70E0/47F0 7156 02EA2 02E2E 23787  1                      ELSE  BEGIN
 002EA6 4126 0000/D74F_      00000 23798  2                        PRETVAL 1,LINENO,L:=F'-1000'
 USING  VNENTRY,R2
 DROP   VNENTRY,R2
 002EC6 1B11                       23846  2                        CLEAR R1
 002EC8 1B00                       23850  2                        CLEAR R0
 002ECA 4126 0150/D74F_      00150 23854  2                        PRETVAL 2,STRING,(R1),(R0)
 USING  VNENTRY,R2
 DROP   VNENTRY,R2
 002EEA D503 7222 8028_02FE8 00000 23939  2                        IF    (GTPRMCNT,GE,3),BEGIN
 002EF4 4126 02A0/D74F_      002A0 23957  3                          PRETVAL 3,STRING,'NOT FOUND'
 USING  VNENTRY,R2
 DROP   VNENTRY,R2
 002F1C                            24036  2                        END
 002F1C                            24040  1                      END
                                   24044  1
 002F1C                            24045                       END
 002F1C 18D8/9808 D004_            24049                       PEND
 DROP   GTWA-(4+36),R8
 DROP   *,R7
1PROC     (PROC2193) (12:51) (15MAR04) Routines for System Procedures                                                       Page   84
0Current Usings:  (CP,R11) (CV,R12)
0Loc    Object Code    Addr1 Addr2  Stmt Lv Lineno    Source Statement           (Hibal 5, Asmedit 3.3)  HLASM R4.0  2004/03/15 12.51
+___    ______ ____    _____ _____  ____ __ ______    ______ _________
0                                  24075              ¿þþþþþþþþþþþþþþþþþþþþþþþþþþþþþþþþþþþþþþþþþþþþþþþþþþþþþþþþþþþþþþþþþþþþþÜ
                                   24076              Ÿ                                                                     Ÿ
                                   24077              Ÿ  LINE_PUT Procedure.                                                Ÿ
                                   24078              Ÿ                                                                     Ÿ
                                   24079              Ÿ  LINE_PUT(lineno, text-string [, cc [, activeno]])                  Ÿ
                                   24080              Ÿ                                                                     Ÿ
                                   24081              Ÿ                                                                     Ÿ
                                   24082              Ÿ  SEE COMMENTS AT START OF THIS MODULE                               Ÿ
                                   24083              Ÿ                                                                     Ÿ
                                                      ¾þþþþþþþþþþþþþþþþþþþþþþþþþþþþþþþþþþþþþþþþþþþþþþþþþþþþþþþþþþþþþþþþþþþþþ»
0002F2A 50E0 D000/9008_      00000 24084              PCLNPUT  PROC
 USING  *,R7
                                   24123
 002F44 1840                       24124                       LR    R4,R0               R4 - arg count
                                   24125                       COMMENT                   R6 - return area pointer
                                   24126
 002F46 4120 70C2/58E0_      03006 24127                       SETARGS '24WSSI'          2-4 args: lineno, str, str, int
 002F50 4770 7070            02FB4 24134                       IF    Z,BEGIN             OK...
 USING  VNENTRY,R5                 24145  1                      USING VNENTRY,R5
                                   24154  1
                                   24155  1                      COMMENT                   GET ARG1: LINE NUMBER
 002F54 4151 0000            00000 24156  1                      LA    R5,ARG1(R1)
 002F58 4120 5024            00024 24157  1                      LA    R2,VNVALUE
                                   24158  1
                                   24159  1                      COMMENT                   GET ARG4: ACTIVE FILE NUMBER
                                   24160  1                      COMMENT ,                       (DEFAULT IS ZERO)
 002F5C 1B33                       24161  1                      CLEAR R3
 002F5E 5900 7094/4750_      02FD8 24165  1                      IF    (R0,GE,4),BEGIN
 002F66 4151 03F0            003F0 24182  2                        LA    R5,ARG4(R1)
 002F6A 5830 5024            00024 24183  2                        L     R3,VNVALUE
 002F6E                            24184  1                      END
                                   24188  1
                                   24189  1                      COMMENT                   GET ARG2: TEXT
 002F6E 4151 0150            00150 24190  1                      LA    R5,ARG2(R1)
 002F72 4110 5026/4800_      00026 24191  1                      SETMSG VNSTRLOC,LH:VNSTRLEN
 DROP   VNENTRY,R5                 24204  1                      DROP  R5
                                   24211  1
                                   24212  1                      COMMENT                   ADD THE LINE
                                   24213  1                      COMMENT
                                   24214  1                      COMMENT                   R0,R1 - TEXT LOC, LENGTH
                                   24215  1                      COMMENT                   @R2 - LINE NUMBER
                                   24216  1                      COMMENT                   R3 - ACTIVE FILE NUMBER
 002F7A 58E0 70BC/0DEE       03000 24217  1                      VCALL PTLINE
 002F80 4770 7070            02FB4 24221  1                      IF    Z,BEGIN
 002F84 5940 7088/4750_      02FCC 24232  2                        IF    (R4,GE,3),BEGIN     IF CC SPECIFIED, RETURN IT
 002F8C 4126 02A0/D74F_      002A0 24249  3                          PRETVAL 3,STRING,'OK'
 USING  VNENTRY,R2
 DROP   VNENTRY,R2
 002FB4                            24328  2                        END
 002FB4                            24332  1                      END
 002FB4                            24336                       END
                                   24340
 002FB4 18D8/9808 D004_            24341                       PEND
1PROC     (PROC2193) (12:51) (15MAR04) Routines for System Procedures                                                       Page   85
0Current Usings:  (CP,R11) (CV,R12)
0Loc    Object Code    Addr1 Addr2  Stmt Lv Lineno    Source Statement           (Hibal 5, Asmedit 3.3)  HLASM R4.0  2004/03/15 12.51
+___    ______ ____    _____ _____  ____ __ ______    ______ _________
0DROP   *,R7
                                   24361
                                   24362                       QLTORG
1PROC     (PROC2193) (12:51) (15MAR04) Routines for System Procedures                                                       Page   86
0Current Usings:  (CP,R11) (CV,R12)
0Loc    Object Code    Addr1 Addr2  Stmt Lv Lineno    Source Statement           (Hibal 5, Asmedit 3.3)  HLASM R4.0  2004/03/15 12.51
+___    ______ ____    _____ _____  ____ __ ______    ______ _________
0                                  24394              *
                                   24395              *  WINGS LINE OFFSETS
                                   24396              *
                                   24397              WGSLNHDR EQU   0,12
                                   24398              WGSLNLEN EQU   0,4
                                   24399              WGSLNLNO EQU   4,8
                                   24400              WGSLNTXT EQU   12
                                   24401
                                   24402              WGSBKHDR EQU   0,16
                                   24403              WGSBKLEN EQU   4096                MAKE BIGGER !! (after testing)
                                   24404              *
                                   24405              *
                                   24406              *  LINS_FROM_CLIENT
                                   24407              *
                                   24408              *  GET LINES FROM CLIENT AND PUT THEM IN ACTIVE FILE
                                   24409              *  (USED FOR WINGS SAVE)
                                   24410              *
                                   24411              *
 000000                00000 00014 24412              LFWA     RECORD BEGIN
 000000                            24420  1           LFPATHNO   DS    F
 000004                            24421  1           LFPATHCB   DS    F
 000008                            24422  1           LFBLK      DS    F
 00000C                            24423  1           LFNDX      DS    F
 000010                            24424  1           LFLIM      DS    F
 000014                00014 00014 24425                       END
                                   24434              *
                                   24435              *
 00309E 50E0 D000/9008_      00000 24436              PCLFROMC XPROC LFWA
 USING  *,R7
 USING  LFWA-(4+36),R8
                                   24487
 0030B8 4120 73A2/58E0_      0345A 24488                       SETARGS '1II'
 0030C2 4770 70A4            0315C 24495                       IF    Z,BEGIN
 USING  VNENTRY,R5                 24506  1                      USING VNENTRY,R5
 0030C6 4151 0000            00000 24515  1                      LA    R5,ARG1(R1)
 0030CA 5820 5024            00024 24516  1                      L     R2,VNVALUE
 0030CE 5020 8028            00000 24517  1                      ST    R2,LFPATHNO
                                   24518  1
                                   24519  1                      COMMENT                   GET PATH CB
 0030D2 5800 8028            00000 24520  1                      L     R0,LFPATHNO
 0030D6 58E0 734C/0DEE       03404 24521  1                      VCALL PATHGET
 0030DC 5010 802C            00004 24525  1                      ST    R1,LFPATHCB
                                   24526  1
                                   24527  1                      COMMENT                   DO FIRST BLOCK READ
 0030E0 58F0 802C            00004 24528  1                      L     R15,LFPATHCB
 0030E4 58E0 7350/0DEE       03408 24529  1                      VCALL PATHREAD
 0030EA 4780 703A            030F2 24533  1                      IF    NZ,BEGIN
 0030EE 47F0 C7C8            007C8 24544  2                        ERROR (R1),(R0)
 0030F2                            24557  1                      END
                                   24561  1
                                   24562  1                      COMMENT                   LOOP THRU BLOCKS
 0030F2 D50F 7300 1000_033B8 00000 24563  1                      WHILE (@R1,EQ,'FILE_WRITE:     '),BEGIN
 0030FC 5010 8030            00008 24581  2                        ST    R1,LFBLK
 003100 5010 8034            0000C 24582  2                        ST    R1,LFNDX
1PROC     (PROC2193) (12:51) (15MAR04) Routines for System Procedures                                                       Page   87
0Current Usings:  (VNENTRY,R5) (*,R7) (LFWA-(4+36),R8) (CP,R11) (CV,R12)
0Loc    Object Code    Addr1 Addr2  Stmt Lv Lineno    Source Statement           (Hibal 5, Asmedit 3.3)  HLASM R4.0  2004/03/15 12.51
+___    ______ ____    _____ _____  ____ __ ______    ______ _________
0003104 1A01                       24583  2                        AR    R0,R1
 003106 5000 8038            00010 24584  2                        ST    R0,LFLIM
 00310A 4111 0010            00010 24585  2                        LA    R1,L'WGSBKHDR(R1)
 00310E 5010 8034            0000C 24586  2                        ST    R1,LFNDX
 003112 5840 8034            0000C 24587  2                        L     R4,LFNDX
 003116 5850 8038            00010 24588  2                        L     R5,LFLIM
                                   24589  2                        COMMENT                   LOOP THRU LINES IN BLOCK
 00311A 1945/47B0 7078             24590  2                        WHILE (R4,LT,R5),BEGIN
 003120 1814                       24607  3                          LR    R1,R4
 003122 58E0 7354/0DEE       0340C 24608  3                          ACALL WRTLINE             WRITE LINE @R1 TO ACTIVE FILE
 003128 5A44 0000            00000 24612  3                          A     R4,WGSLNLEN(R4)
 00312C 47F0 7062            0311A 24613  2                        END
                                   24618  2                        COMMENT                   READ NEXT BLOCK AND LOOP
 003130 58F0 802C            00004 24619  2                        L     R15,LFPATHCB
 003134 58E0 7350/0DEE       03408 24620  2                        VCALL PATHREAD
 00313A 4780 708A            03142 24624  2                        IF    NZ,BEGIN
 00313E 47F0 C7C8            007C8 24635  3                          ERROR (R1),(R0)
 003142                            24648  2                        END
 003142 47F0 703A            030F2 24652  1                      END
                                   24657  1
                                   24658  1                      COMMENT                   WE SHOULD BE AT EOF
 003146 D50F 7310 1000_033C8 00000 24659  1                      IF    (@R1,NE,'FILE_EOF:       '),BEGIN
 003150 4110 73A5/4100_      0345D 24675  2                        ERROR 'WINGS protocol error.'
 00315C                            24682  1                      END
                                   24686  1
 00315C                            24687                       END
 00315C 18D8/9808 D004_            24691                       PEND
 DROP   LFWA-(4+36),R8
 DROP   *,R7
 DROP   VNENTRY,R5                 24716                       DROP  R5
1PROC     (PROC2193) (12:51) (15MAR04) Routines for System Procedures                                                       Page   88
0Current Usings:  (CP,R11) (CV,R12)
0Loc    Object Code    Addr1 Addr2  Stmt Lv Lineno    Source Statement           (Hibal 5, Asmedit 3.3)  HLASM R4.0  2004/03/15 12.51
+___    ______ ____    _____ _____  ____ __ ______    ______ _________
0                                  24724              *
                                   24725              *   WRTLINE - WRITE LINE TO ACTIVE
                                   24726              *
                                   24727              *   R1 - WINGS FORMAT LINE
                                   24728              *        4 BYTES TOTAL LEN, 8 BYTES CHAR INTEGER LINE NUMBER,
                                   24729              *        N BYTES TEXT
                                   24730              *
 00316A 50E0 D000/9008_      00000 24731              WRTLINE  PROC
 USING  *,R7
 003184 1841                       24770                       LR    R4,R1               R4 - LINE POINTER
 003186 4114 0004            00004 24771                       LA    R1,WGSLNLNO(R4)
 00318A 4100 0008            00008 24772                       LA    R0,L'WGSLNLNO
 00318E 58E0 728C/0DEE       03410 24773                       VCALL GTINTVAL - RETURNS VAL IN R15
 003194 47B0 7020            031A4 24777                       IF    NEG,BEGIN
 003198 4110 7254/4100_      033D8 24788  1                      ERROR 'WINGS file format error.'
 0031A4                            24795                       END
 0031A4 4114 000C            0000C 24799                       LA    R1,WGSLNTXT(R4)
 0031A8 5804 0000            00000 24800                       L     R0,WGSLNLEN(R4)
 0031AC 5B00 7290            03414 24801                       S     R0,=AL4(L'WGSLNHDR)
 0031B0 58E0 7294/0DEE       03418 24802                       VCALL PUTLINE
 0031B6 18D8/9808 D004_            24806                       PEND
 DROP   *,R7
1PROC     (PROC2193) (12:51) (15MAR04) Routines for System Procedures                                                       Page   89
0Current Usings:  (CP,R11) (CV,R12)
0Loc    Object Code    Addr1 Addr2  Stmt Lv Lineno    Source Statement           (Hibal 5, Asmedit 3.3)  HLASM R4.0  2004/03/15 12.51
+___    ______ ____    _____ _____  ____ __ ______    ______ _________
0                                  24827              *
                                   24828              *  LINS_TO_CLIENT
                                   24829              *
                                   24830              *  SEND LINES FROM ACTIVE FILE TO CLIENT
                                   24831              *  (USED FOR WINGS USE)
                                   24832              *
                                   24833              *
 000000                00000 0004C 24834              LTWA     RECORD BEGIN
 000000                            24842  1           LTPATHNO   DS    F
 000004                            24843  1           LTPATHCB   DS    A
 000008                            24844  1           LTBKLOC    DS    A
 00000C                            24845  1           LTBKLEN    DS    A
                                   24846  1           LTCSG      SEGCB
 000010 00                         24847  1 01-SEGCB +$$$SEGCB547   DS 0F
 LTCSGCOD.LTCSGSEG 01 EQ
 LTCSGCOD.LTCSGWR  02 EQ
 LTCSGCOD.LTCSGCLR 03 EQ
 LTCSGCOD.LTCSGSPP 04 EQ
 LTCSGCOD.LTCSGOVF 05 EQ
 LTCSGCOD.LTCSGCR  06 EQ
 LTCSGCOD.LTCSGMAR 07 EQ
 000011 00                         24922  1 01-SEGCB +           DC    X'00'               Reserved
 000012 0000                              1          +
 000014 00000000                   24923  1 01-SEGCB +LTCSGMAXF   DC   A(0)                Maximum buffer length
 000018 00000000                   24924  1 01-SEGCB +LTCSGMRKF   DC   A(0)                Length at last mark
 00001C 00000000                   24925  1 01-SEGCB +LTCSGLENF   DC   A(0)                Current length
 000020 00000000                   24926  1 01-SEGCB +LTCSGINDF   DC   A(0)                Overflow/indent count
 000024 00000000                   24927  1 01-SEGCB +LTCSGERR   DC    A(0)                Address of error recovery routine
 000028 0000000000000000           24928  1 01-SEGCB +           DC    2F'0'               Reserved
 000030 00000000                   24929  1 01-SEGCB +LTCSGLOC   DC    A(0)                Location of buffer
 000034 00000000                   24930  1 01-SEGCB +LTCSGRTN   DC    A(0)                Processing routine
 000038 0000000000000000           24931  1 01-SEGCB +           DC    4F'0'               Reserved
 000048 00000000                   24932  1 01-SEGCB +LTCSGUSR   DC    A(0)                USER field
                                   24933  1 01-SEGCB +LTCSG      EQU   $$$SEGCB547,*-$$$SEGCB547,C'X'
 00004C                0004C 0004C 24934                       END
                                   24943
 0031C4 50E0 D000/9008_      00000 24944              PCLTOC   XPROC LTWA
 USING  *,R7
 USING  LTWA-(4+36),R8
 0031DE 4160 8028            00000 24995                       LA    R6,LTWA
 USING  LTWA,R6                    24996                       USING LTWA,R6
 0031E2 D74B 6000 6000 00000 00000 25005                       CLEAR LTWA
 0031E8 5060 B8D0            008D0 25012                       ST    R6,CPCHAZ
                                   25013
 0031EC 4120 727C/58E0_      0345A 25014                       SETARGS '1II'
 0031F6 4770 70BE            0329C 25021                       IF    Z,BEGIN
 USING  VNENTRY,R5                 25032  1                      USING VNENTRY,R5
 0031FA 4151 0000            00000 25041  1                      LA    R5,ARG1(R1)
 0031FE 5820 5024            00024 25042  1                      L     R2,VNVALUE
 003202 5020 6000            00000 25043  1                      ST    R2,LTPATHNO
                                   25044  1
                                   25045  1                      COMMENT                   GET PATH CB
 003206 5800 6000            00000 25046  1                      L     R0,LTPATHNO
 00320A 58E0 7226/0DEE       03404 25047  1                      VCALL PATHGET
1PROC     (PROC2193) (12:51) (15MAR04) Routines for System Procedures                                                       Page   90
0Current Usings:  (VNENTRY,R5) (LTWA,R6) (*,R7) (LTWA-(4+36),R8) (CP,R11) (CV,R12)
0Loc    Object Code    Addr1 Addr2  Stmt Lv Lineno    Source Statement           (Hibal 5, Asmedit 3.3)  HLASM R4.0  2004/03/15 12.51
+___    ______ ____    _____ _____  ____ __ ______    ______ _________
0003210 5010 6004            00004 25051  1                      ST    R1,LTPATHCB
                                   25052  1
                                   25053  1                      COMMENT                   SET UP SEG CB
 003214 5800 723E            0341C 25054  1                      L     R0,=AL4(WGSBKLEN)
 003218 58E0 7242/0DEE       03420 25055  1                      VCALL GETHEAP
 00321E 5000 600C            0000C 25059  1                      ST    R0,LTBKLEN
 003222 5010 6008            00008 25060  1                      ST    R1,LTBKLOC
 003226 4111 0010            00010 25061  1                      LA    R1,L'WGSBKHDR(R1)
 00322A 5B00 7246            03424 25062  1                      S     R0,=AL4(L'WGSBKHDR)
 00322E 41F0 6010/58E0_      00010 25063  1                      SEGINIT (R1),(R0),LTCSG,RTNTYPE=A,RTN=LTSEG
                                   25101  1
                                   25102  1                      COMMENT                   SET 'FILE_READ:    ' HEADER
 003246 5810 6008            00008 25103  1                      L     R1,LTBKLOC
 00324A D20F 1000 7212 00000 033F0 25104  1                      MVC   @R1(L'WGSBKHDR),=CL16'FILE_READ:      '
                                   25105  1
                                   25106  1                      COMMENT                   READ ALL ACTIVE FILE
 003250 58E0 B08C/D2AF_      0008C 25107  1                      SCPUSH
 00325E 58E0 B08C/D7AF_      0008C 25113  1                      SCCLR
 00326A 9610 BD50      00D50       25122  1                      SET   CPLFLG1.CPFALL
 00326E 58E0 7256/0DEE       03434 25129  1                      VCALL NDETRNG
 003274 58E0 B08C/4BD0_      0008C 25133  1                      SCPOP
                                   25139  1
                                   25140  1                      COMMENT                   PROCESS RANGE
 003282 5800 725A/5810_      03438 25141  1                      RDRNG LTOCRTN,(LOCATRTN+UNPRST+DESRTRN)
                                   25148  1
                                   25149  1                      COMMENT                   FORCE OUT ANY LAST BIT
 003290 1B00/41F0 6010_            25150  1                      SEGWR ,,LTCSG
                                   25174  1
 00329C                            25175                       END
 00329C 18D8/9808 D004_            25179                       PEND
 DROP   LTWA-(4+36),R8
 DROP   *,R7
 DROP   VNENTRY,R5                 25204                       DROP  R5
 DROP   LTWA,R6                    25211                       DROP  R6
1PROC     (PROC2193) (12:51) (15MAR04) Routines for System Procedures                                                       Page   91
0Current Usings:  (CP,R11) (CV,R12)
0Loc    Object Code    Addr1 Addr2  Stmt Lv Lineno    Source Statement           (Hibal 5, Asmedit 3.3)  HLASM R4.0  2004/03/15 12.51
+___    ______ ____    _____ _____  ____ __ ______    ______ _________
0                                  25219              *
                                   25220              *   CO ROUTINE --
                                   25221              *
                                   25222              *   ON ENTRY:
                                   25223              *        R1,R0 - TEXT LENGTH
                                   25224              *        CPLCNO - LINE NUMBER
                                   25225              *
                                   25226              *
 000000                00000 001D6 25227              LTOCWA   RECORD BEGIN
                                   25235  1           LTOCLINE   DS    CL(&LINESZ*2)
 000000                                   1          +LTOCLINE   DS    CL(235*2)
 0001D6                001D6 001D6 25236                       END
                                   25245              *
                                   25246              *
 0032AA 50E0 D000/9008_      00000 25247              LTOCRTN  PROC  LTOCWA
 USING  *,R7
 USING  LTOCWA-(4+36),R8
 0032C4 5860 B8D0            008D0 25297                       L     R6,CPCHAZ
 USING  LTWA,R6                    25298                       USING LTWA,R6
                                   25307
                                   25308                       COMMENT                   R4 - PLACE TO BUILD NEW LINE
 0032C8 4140 8028            00000 25309                       LA    R4,LTOCLINE
                                   25310
                                   25311                       COMMENT                   MOVE IN TEXT
 0032CC 1830                       25312                       LR    R3,R0
 0032CE 4154 000C            0000C 25313                       LA    R5,WGSLNTXT(R4)
 0032D2 0630/1233/4740_            25314                       MOVE  R3,@R5,@R1
                                   25352
                                   25353                       COMMENT                   GET TOTAL LENGTH
 0032DE 1830                       25354                       LR    R3,R0
 0032E0 5A30 7150            03414 25355                       A     R3,=AL4(L'WGSLNHDR)
 0032E4 5034 0000            00000 25356                       ST    R3,WGSLNLEN(R4)
                                   25357
                                   25358                       COMMENT                   STICK IN CHAR FORMAT LINE NO
 0032E8 4114 0004            00004 25359                       LA    R1,WGSLNLNO(R4)
 0032EC 4100 0008            00008 25360                       LA    R0,8
 0032F0 58F0 B73C            0073C 25361                       L     R15,CPLCNO
 0032F4 58E0 7184/0DEE       03448 25362                       VCALL BTDZEROS
                                   25366
                                   25367                       COMMENT                   SEG RESULTS
 0032FA 4114 0000            00000 25368                       LA    R1,WGSLNLEN(R4)
 0032FE 5804 0000            00000 25369                       L     R0,WGSLNLEN(R4)
 003302 41F0 6010/58E0_      00010 25370                       SEG   (R1),(R0),LTCSG
 00330C 41F0 6010/58E0_      00010 25393                       SEGMARK ,,LTCSG
                                   25406
 003316 18D8/9808 D004_            25407                       PEND
 DROP   LTOCWA-(4+36),R8
 DROP   *,R7
 DROP   LTWA,R6                    25432                       DROP  R6
1PROC     (PROC2193) (12:51) (15MAR04) Routines for System Procedures                                                       Page   92
0Current Usings:  (CP,R11) (CV,R12)
0Loc    Object Code    Addr1 Addr2  Stmt Lv Lineno    Source Statement           (Hibal 5, Asmedit 3.3)  HLASM R4.0  2004/03/15 12.51
+___    ______ ____    _____ _____  ____ __ ______    ______ _________
0                                  25440              *
                                   25441              *
                                   25442              *  LTSEG -- SEG PROCESSING ROUTINE TO HANDLE WRITING
                                   25443              *    DATE ACROSS A SUZAN PATH.
                                   25444              *
                                   25445              *    ON ENTRY:
                                   25446              *      R15 - SEGCB PTR
                                   25447              *
                                   25448              *    ON EXIT:
                                   25449              *      ERRORS EXIT VIA CVERROR.
                                   25450              *
                                   25451              *
 003324 50E0 D000/9008_      00000 25452              LTSEG    XPROC
 USING  *,R7
                                   25492
 00333E 5860 B8D0            008D0 25493                       L     R6,CPCHAZ
 USING  LTWA,R6                    25494                       USING LTWA,R6
                                   25503
 003342 185F                       25504                       LR    R5,R15
 USING  SEGCB,R5                   25505                       WITH  (SEGCB,R5)
                                   25518              *
                                   25519              *
                                   25520                       COMMENT                   DO SEG WRITE OR OVERFLOW ...
 003344 9502 5000/4780_00000       25521                       IF    (SEGCBWR,OR,SEGCBOVF),BEGIN
 003354 1220                       25550  1                      LTR   R2,R0               CURRENT BUFFER LENGTH
 003356 47D0 7056            03394 25551  1                      IF    NP,EXIT             NOTHING TO WRITE, SCRAM
                                   25565  1
                                   25566  1                      COMMENT                   GET PATH POINTER
 00335A 58F0 6004            00004 25567  1                      L     R15,LTPATHCB
 00335E 12FF/4770 7032             25568  1                      IF    (R15,Z),BEGIN
 003364 4110 7134/4100_      03472 25582  2                        ERROR 'WINGS path error.  Unable to send file.'
 003370                            25589  1                      END
                                   25593  1
                                   25594  1                      COMMENT                   WRITE TO PATH
 003370 5B10 70E6            03424 25595  1                      S     R1,=AL4(L'WGSBKHDR)
 003374 5A00 70E6            03424 25596  1                      A     R0,=AL4(L'WGSBKHDR)
 003378 58E0 7116/0DEE       03454 25597  1                      VCALL PATHWRIT
 00337E 4780 7050            0338E 25601  1                      IF    NZ,BEGIN
 003382 4110 7134/4100_      03472 25612  2                        ERROR 'WINGS path error.  Unable to send file.'
 00338E                            25619  1                      END
                                   25623  1
 00338E 1302                       25624  1                      LCR   R0,R2               FOR OVERFLOW: NBYTES PROCESSED
 003390 5008 0004            00004 25625  1                      PRETURN (R0)
 003394                            25627                       END
                                   25631              *
                                   25632              *
                                   25633                       COMMENT                   DO SEG POST PROCESSING ...
 003394 9504 5000/4770_00000       25634                       IF    SEGCBSPP,BEGIN
 00339C 1B00                       25649  1                      CLEAR R0                  ASSUME A-OK
                                   25653  1           *        IF    (UPATRCMP,NZ),'LA R0,4'  TROUBLE
 00339E 5008 0004            00004 25654  1                      PRETURN (R0)              RETURN THE RC
                                   25656  1           *        END
 0033A2                            25657                       END
                                   25661
1PROC     (PROC2193) (12:51) (15MAR04) Routines for System Procedures                                                       Page   93
0Current Usings:  (SEGCB,R5) (LTWA,R6) (*,R7) (CP,R11) (CV,R12)
0Loc    Object Code    Addr1 Addr2  Stmt Lv Lineno    Source Statement           (Hibal 5, Asmedit 3.3)  HLASM R4.0  2004/03/15 12.51
+___    ______ ____    _____ _____  ____ __ ______    ______ _________
00033A2 1BFF                       25662                       CLEAR R15
 0033A4 18D8/9808 D004_            25666                       PEND
 DROP   SEGCB,R5
 DROP   *,R7
 DROP   LTWA,R6                    25691                       DROP  R6
                                   25698
                                   25699                       QLTORG
1PROC     (PROC2193) (12:51) (15MAR04) Routines for System Procedures                                                       Page   94
0Current Usings:  (CP,R11) (CV,R12)
0Loc    Object Code    Addr1 Addr2  Stmt Lv Lineno    Source Statement           (Hibal 5, Asmedit 3.3)  HLASM R4.0  2004/03/15 12.51
+___    ______ ____    _____ _____  ____ __ ______    ______ _________
0                                  25742              ¿þþþþþþþþþþþþþþþþþþþþþþþþþþþþþþþþþþþþþþþþþþþþþþþþþþþþþþþþþþþþþþþþþþþþþÜ
                                   25743              Ÿ                                                                     Ÿ
                                   25744              Ÿ  SYSCALL MAIL_INFO (type-string, value-string, rc-string)           Ÿ
                                   25745              Ÿ                                                                     Ÿ
                                   25746              Ÿ  Update record group used to pass recipient list to MAIL            Ÿ
                                   25747              Ÿ   command.  Used by EMS and the SMTP server exec.                   Ÿ
                                   25748              Ÿ                                                                     Ÿ
                                   25749              Ÿ  Record group keys are of the form xxxxxxxxnnnn, where              Ÿ
                                   25750              Ÿ   'nnnn' is a 4-digit number that is unique for each record.        Ÿ
                                   25751              Ÿ                                                                     Ÿ
                                   25752              Ÿ  Arguments:                                                         Ÿ
                                   25753              Ÿ     type  - on entry, type of call.  Values are                     Ÿ
                                   25754              Ÿ               INIT - initialize record group                        Ÿ
                                   25755              Ÿ               LIST - list record group contents                     Ÿ
                                   25756              Ÿ               xxxx - add new record                                 Ÿ
                                   25757              Ÿ     value - on entry, value to add to record group                  Ÿ
                                   25758              Ÿ     rc    - on exit,  return code ('OK' or 'err text')              Ÿ
                                   25759              Ÿ                                                                     Ÿ
                                                      ¾þþþþþþþþþþþþþþþþþþþþþþþþþþþþþþþþþþþþþþþþþþþþþþþþþþþþþþþþþþþþþþþþþþþþþ»
0000000                00000 00120 25760              MINFOWA  RECORD BEGIN
 000000                            25768  1           MINFARGC   DS    F                   Argument count
 000004                            25769  1           MINFARGP   DS    A                   Argument pointer
 000008                            25770  1           MINFARG1   DS    CL8                 Arg 1 value
 000010                            25771  1           MINFKEY    DS    CL16                Record group key
 000020                            25772  1           MINFDATA   DS    CL256               Data work area
 000120                00120 00120 25773                       END
                                   25782
 0034A0 50E0 D000/9008_      00000 25783              PCMINFO  PROC  MINFOWA
 USING  *,R7
 USING  MINFOWA-(4+36),R8
 0034BA D7FF 8028 8028_00000 00000 25833                       CLEAR MINFOWA
 0034C6 5000 8028            00000 25841                       ST    R0,MINFARGC         Save arg count
 0034CA 5010 802C            00004 25842                       ST    R1,MINFARGP         Save arg pointer
                                   25843
 0034CE 4120 7274/58E0_      0372E 25844                       SETARGS '13SSS'
 0034D8 4770 71B6            03670 25851                       IF    NZ,PMINVARG
                                   25865
 0034DC 4151 0000            00000 25866                       LA    R5,ARG1(R1)         Set up arg pointer
 USING  VNENTRY,R5                 25867                       WITH  (VNENTRY,R5),BEGIN
 0034E0 4110 5026/4800_      00026 25881  1                      SETMSG VNSTRLOC,LH:VNSTRLEN  Get arg 1 len and loc
 DROP   VNENTRY,R5                 25894                       END
 0034E8 1200/4780 71B6_            25902                       IF    ((R0,Z),OR,(R0,GT,L'MINFARG1)),PMINVARG
 0034F6 18F0                       25935                       LR    R15,R0
 0034F8 06F0/44F0 7286_            25936                       DEX   R15,'MVC MINFARG1,@R1'   Copy arg 1 text
 0034FE D607 8030 C4D8 00008 004D8 25955                       OC    MINFARG1,CVBLANKS        Upper case
                                   25956                       ¿þþþþþþþþþþþþþþþþþþþþþþþþþþþþþþþþþþþþþþþþþþÜ
                                   25957                       Ÿ  Process INIT call - reset record group  Ÿ
                                   25958                       ¾þþþþþþþþþþþþþþþþþþþþþþþþþþþþþþþþþþþþþþþþþþ»
 003504 D504 7279 8030_03733 00008 25959                       IF    (MINFARG1,EQ,'INIT '),BEGIN
 00350E 41F0 B524            00524 25976  1                      LA    R15,CPRG16
 003512 4100 0014            00014 25977  1                      LA    R0,CP#MAIL          Our RG number
 003516 58E0 721E/0DEE       036D8 25978  1                      VCALL XSETSET
 00351C 41F0 B524            00524 25982  1                      LA    R15,CPRG16
1PROC     (PROC2193) (12:51) (15MAR04) Routines for System Procedures                                                       Page   95
0Current Usings:  (*,R7) (MINFOWA-(4+36),R8) (CP,R11) (CV,R12)
0Loc    Object Code    Addr1 Addr2  Stmt Lv Lineno    Source Statement           (Hibal 5, Asmedit 3.3)  HLASM R4.0  2004/03/15 12.51
+___    ______ ____    _____ _____  ____ __ ______    ______ _________
0003520 58E0 7222/0DEE       036DC 25983  1                      VCALL XDELSET
 003526 47F0 71C2            0367C 25987  1                      B     PMIRETOK
 00352A                            25988                       END
                                   25992                       ¿þþþþþþþþþþþþþþþþþþþþþþþþþþþþþþþþþþþþþþþþþþþþþþþþþþþþþÜ
                                   25993                       Ÿ  Process LIST call - display record group contents  Ÿ
                                   25994                       ¾þþþþþþþþþþþþþþþþþþþþþþþþþþþþþþþþþþþþþþþþþþþþþþþþþþþþþ»
 00352A D504 727E 8030_03738 00008 25995                       IF    (MINFARG1,EQ,'LIST '),BEGIN
 003534 1B55                       26012  1                      CLEAR R5                  Init loop counter
 003536                            26016  1                      LOOP  BEGIN
 003536 41F0 B524            00524 26022  2                        LA    R15,CPRG16
 00353A 4100 0014            00014 26023  2                        LA    R0,CP#MAIL          Our RG number
 00353E 58E0 721E/0DEE       036D8 26024  2                        VCALL XSETSET
                                   26028  2
 003544 4110 8048/4100_      00020 26029  2                        SETMSG MINFDATA
 00354C 4120 8038            00010 26043  2                        LA    R2,MINFKEY
 003550 41F0 B524            00524 26044  2                        LA    R15,CPRG16
 003554 1255/4770 70AC             26045  2                        IF    (R5,Z),BEGIN        If first iteration,
 00355A D70F 8038 8038 00010 00010 26059  3                          CLEAR MINFKEY             Initialize key
 003560 58E0 7226/0DEE       036E0 26066  3                          VCALL XGETFRST            Call for first record
 003566                            26070  2                        END
 003566 70B0/47F0 70B6 03566 03558 26074  2                        ELSE  BEGIN               Else not first iteration
 00356A 58E0 722A/0DEE       036E4 26085  3                          VCALL XGETNEXT            Get next record
 003570                            26089  2                        END
 003570 12FF/4770 70E8             26093  2                        IF    (R15,NZ),EXIT       Exit if no more
 003576 1820                       26110  2                        LR    R2,R0               Save returned length
 003578 4110 8038/4100_      00010 26111  2                        TSEG  MINFKEY,,TB         Write key
 00358A 4110 8048/1802_      00020 26139  2                        TSEG  MINFDATA,(R2),CR    Write value
                                   26167  2
 00359A 5E50 7236            036F0 26168  2                        INCR  R5                  Incr loop count
 00359E 47F0 707C            03536 26171  1                      END
                                   26176  1
 0035A2 1255/4770 7100             26177  1                      IF    (R5,Z),BEGIN        If nothing found,
 0035A8 4110 7256/4100_      03710 26191  2                        TSEG  'Record group empty',,CR
 0035BA                            26209  1                      END
                                   26213  1
 0035BA 47F0 71C2            0367C 26214  1                      B     PMIRETOK
 0035BE                            26215                       END
                                   26219                       ¿þþþþþþþþþþþþþþþþþþþþþþþþþþþþþþþþþþþþþþÜ
                                   26220                       Ÿ  Assume ARG1 is key, add new record  Ÿ
                                   26221                       ¾þþþþþþþþþþþþþþþþþþþþþþþþþþþþþþþþþþþþþþ»
 0035BE D503 723A 8028_036F4 00000 26222                       IF    (MINFARGC,LT,2),PMINVARG   Check arg count
                                   26243
 0035C8 41F0 B524            00524 26244                       LA    R15,CPRG16
 0035CC 4100 0014            00014 26245                       LA    R0,CP#MAIL          Our RG number
 0035D0 58E0 721E/0DEE       036D8 26246                       VCALL XSETSET
                                   26250
 0035D6 92FF 8038      00010       26251                       MVI   MINFKEY,X'FF'       Set dummy key
 0035DA 4120 8038            00010 26252                       LA    R2,MINFKEY          Key area addr
 0035DE 4110 8048/4100_      00020 26253                       SETMSG MINFDATA            Data area addr
 0035E6 41F0 B524            00524 26267                       LA    R15,CPRG16
 0035EA 58E0 723E/0DEE       036F8 26268                       VCALL XGETLAST            Get last record
 0035F0 12FF/4780 7148             26272                       IF    (R15,NZ),BEGIN         If none,
 0035F6 D20F 8038 C4D8 00010 004D8 26286  1                      MVC   MINFKEY,CVBLANKS
 0035FC D203 8040 7242 00018 036FC 26287  1                      MVC   MINFKEY+L'MINFARG1(4),=C'0000'  Set dummy numeric value
1PROC     (PROC2193) (12:51) (15MAR04) Routines for System Procedures                                                       Page   96
0Current Usings:  (*,R7) (MINFOWA-(4+36),R8) (CP,R11) (CV,R12)
0Loc    Object Code    Addr1 Addr2  Stmt Lv Lineno    Source Statement           (Hibal 5, Asmedit 3.3)  HLASM R4.0  2004/03/15 12.51
+___    ______ ____    _____ _____  ____ __ ______    ______ _________
0003602                            26288                       END
 003602 4110 8040/4100_      00018 26292                       DTB   MINFKEY+L'MINFARG1,4         Convert numeric part of key
 003610 5EF0 7236            036F0 26313                       INCR  R15                 Increment
 003614 4100 0004/4110_      00004 26316                       BTD   MINFKEY+L'MINFARG1,4,(R15)   Build new numeric part
 003622 D602 8040 7283 00018 0373D 26338                       OC    MINFKEY+L'MINFARG1(3),=C'000'   Insure leading zeros
 003628 D207 8038 8030 00010 00008 26339                       MVC   MINFKEY(L'MINFARG1),MINFARG1    Build XXXXXXXXnnnn key
                                   26340
 00362E 4100 0014            00014 26341                       LA    R0,CP#MAIL          Our RG number
 003632 41F0 B524            00524 26342                       LA    R15,CPRG16
 003636 58E0 721E/0DEE       036D8 26343                       VCALL XSETSET
 00363C 5850 802C            00004 26347                       L     R5,MINFARGP         Get argument pointer
 003640 4155 0150            00150 26348                       LA    R5,ARG2(R5)
 USING  VNENTRY,R5                 26349                       WITH  (VNENTRY,R5),BEGIN
 003644 4110 5026/4800_      00026 26363  1                      SETMSG VNSTRLOC,LH:VNSTRLEN  Get arg 1 len and loc
 DROP   VNENTRY,R5                 26376                       END
 00364C 4120 8038            00010 26384                       LA    R2,MINFKEY          Set key pointer
 003650 41F0 B524            00524 26385                       LA    R15,CPRG16
 003654 58E0 724E/0DEE       03708 26386                       VCALL XPUT                Add record
 00365A 12FF/4780 71B2             26390                       IF    (R15,NZ),BEGIN      Check return
 003660 4110 7268/4100_      03722 26404  1                      SETMSG 'XPUT ERROR'
 003668 47F0 71CA            03684 26408  1                      B     PMIRETRN
 00366C                            26409                       END
 00366C 47F0 71C2            0367C 26413                       B     PMIRETOK
0                                  26415                       ¿þþþþþþþþþþþþþþþþþÜ
                                   26416                       Ÿ  Return points  Ÿ
                                   26417                       ¾þþþþþþþþþþþþþþþþþ»
 003670 4110 7206/4100_      036C0 26418              PMINVARG SETMSG 'INVALID ARGUMENT'
 003678 47F0 71CA            03684 26422                       B     PMIRETRN
                                   26423
 00367C 4110 7272/4100_      0372C 26424              PMIRETOK SETMSG 'OK'
                                   26428
 003684 D503 7252 8028_0370C 00000 26429              PMIRETRN IF    (MINFARGC,GE,3),BEGIN   If have RC arg,
 00368E 4126 02A0/D74F_      002A0 26448  1                      PRETVAL 3,STRING,(R1),(R0)
 USING  VNENTRY,R2
 DROP   VNENTRY,R2
 0036AE                            26533                       END
                                   26537
 0036AE 1BFF                       26538                       CLEAR R15
 0036B0 18D8/9808 D004_            26542                       PEND
 DROP   MINFOWA-(4+36),R8
 DROP   *,R7
                                   26567                       QLTORG
1PROC     (PROC2193) (12:51) (15MAR04) Routines for System Procedures                                                       Page   97
0Current Usings:  (CP,R11) (CV,R12)
0Loc    Object Code    Addr1 Addr2  Stmt Lv Lineno    Source Statement           (Hibal 5, Asmedit 3.3)  HLASM R4.0  2004/03/15 12.51
+___    ______ ____    _____ _____  ____ __ ______    ______ _________
0000000                00000 0022F 26604              MSHDRWA  RECORD BEGIN
 000000                            26612  1           MSHINO     DS    F                   Item number
 000004                            26613  1           MSHLNO     DS    F                   Line-number
                                   26614  1           MSHLINE    DS    CL(&LINESZ)         Working line text
 000008                                   1          +MSHLINE    DS    CL(235)             Working line text
 0000F4                            26615  1           MSHNAMEP   DS    2F                  Account loc, len
 0000FC                            26616  1           MSHSEP     DS    CL2                 Line separator characters
 000100                            26617  1           MSHSUBJP   DS    2F                  Subject loc, len
                                   26618  1
                                   26619  1           MSHSG      SEGCB
 000108 00                         26620  1 01-SEGCB +$$$SEGCB597   DS 0F
 MSHSGCOD.MSHSGSEG 01 EQ
 MSHSGCOD.MSHSGWR  02 EQ
 MSHSGCOD.MSHSGCLR 03 EQ
 MSHSGCOD.MSHSGSPP 04 EQ
 MSHSGCOD.MSHSGOVF 05 EQ
 MSHSGCOD.MSHSGCR  06 EQ
 MSHSGCOD.MSHSGMAR 07 EQ
 000109 00                         26695  1 01-SEGCB +           DC    X'00'               Reserved
 00010A 0000                              1          +
 00010C 00000000                   26696  1 01-SEGCB +MSHSGMAXF   DC   A(0)                Maximum buffer length
 000110 00000000                   26697  1 01-SEGCB +MSHSGMRKF   DC   A(0)                Length at last mark
 000114 00000000                   26698  1 01-SEGCB +MSHSGLENF   DC   A(0)                Current length
 000118 00000000                   26699  1 01-SEGCB +MSHSGINDF   DC   A(0)                Overflow/indent count
 00011C 00000000                   26700  1 01-SEGCB +MSHSGERR   DC    A(0)                Address of error recovery routine
 000120 0000000000000000           26701  1 01-SEGCB +           DC    2F'0'               Reserved
 000128 00000000                   26702  1 01-SEGCB +MSHSGLOC   DC    A(0)                Location of buffer
 00012C 00000000                   26703  1 01-SEGCB +MSHSGRTN   DC    A(0)                Processing routine
 000130 0000000000000000           26704  1 01-SEGCB +           DC    4F'0'               Reserved
 000140 00000000                   26705  1 01-SEGCB +MSHSGUSR   DC    A(0)                USER field
                                   26706  1 01-SEGCB +MSHSG      EQU   $$$SEGCB597,*-$$$SEGCB597,C'X'
                                   26707  1           MSHBUF     DS    CL(&LINESZ)         Working seg buffer
 000144                                   1          +MSHBUF     DS    CL(235)             Working seg buffer
 00022F                0022F 0022F 26708                       END
-                                  26718              ¿þþþþþþþþþþþþþþþþþþþþþþþþþþþþþþþþþþþþþþþþþþþþþþþþþþþþþþþþþþþþþþþþþþþþþÜ
                                   26719              Ÿ                                                                     Ÿ
                                   26720              Ÿ  SYSCALL MS_BUILDHDR(lineno,return-string)                          Ÿ
                                   26721              Ÿ                                                                     Ÿ
                                   26722              Ÿ    Special purpose SYSPROC to build an MS-style header from         Ÿ
                                   26723              Ÿ      a WYLBUR MAIL internal format header.                          Ÿ
                                   26724              Ÿ                                                                     Ÿ
                                                      ¾þþþþþþþþþþþþþþþþþþþþþþþþþþþþþþþþþþþþþþþþþþþþþþþþþþþþþþþþþþþþþþþþþþþþþ»
000374C 50E0 D000/9008_      00000 26725              PCMSHDR  PROC  MSHDRWA
 USING  *,R7
 USING  MSHDRWA-(4+36),R8
 003766 D7FF 8028 8028_00000 00000 26775                       CLEAR MSHDRWA
                                   26784
 003778 4120 726A/58E0_      039D0 26785                       SETARGS '22WS'            2 args: lineno, string
 003782 4770 725C            039C2 26792                       IF    Z,BEGIN
 USING  VNENTRY,R5                 26803  1                      WITH  (VNENTRY,R5)
 003786 4151 0000            00000 26816  1                      LA    R5,ARG1(R1)
1PROC     (PROC2193) (12:51) (15MAR04) Routines for System Procedures                                                       Page   98
0Current Usings:  (VNENTRY,R5) (*,R7) (MSHDRWA-(4+36),R8) (CP,R11) (CV,R12)
0Loc    Object Code    Addr1 Addr2  Stmt Lv Lineno    Source Statement           (Hibal 5, Asmedit 3.3)  HLASM R4.0  2004/03/15 12.51
+___    ______ ____    _____ _____  ____ __ ______    ______ _________
000378A D203 802C 5024 00004 00024 26817  1                      MVC   MSHLNO,VNVALUE      Save lineno
                                   26818  1
 003790 4110 816C/4100_      00144 26819  1                      SEGINIT MSHBUF,,MSHSG
                                   26846  1
 0037A2 58F0 802C            00004 26847  1                      L     R15,MSHLNO
 0037A6 4110 8030/4100_      00008 26848  1                      SETMSG MSHLINE
 0037AE 58E0 7276/0DEE       039DC 26862  1                      VCALL GETLINE             Get first line
 0037B4 4770 7228            0398E 26866  1                      BNZ   PCMHDONE            Trouble, forget it
 0037B8 5900 727A/4740_      039E0 26867  1                      IF    ((R0,LT,10),OR,(@R1,NE,'*')),PCMHDONE
                                   26902  1
 0037C8 95F0 8044/4770_0001C       26903  1                      IF    (MSHLINE+20,EQ,'0'),'MVI MSHLINE+20,C" "'
 0037D4 4110 8044/4100_      0001C 26926  1                      SEG   MSHLINE+20,5        mm/dd
 0037E6 4110 C4D8/4100_      004D8 26955  1                      SEG   CVBLANKS,2
                                   26984  1                      ¿þþþþþþþþþþþþþþþþþþþþþþþþþþþþþÜ
                                   26985  1                      Ÿ  Isolate sender's account.  Ÿ
                                   26986  1                      ¾þþþþþþþþþþþþþþþþþþþþþþþþþþþþþ»
 0037F8 4110 8052/4100_      0002A 26987  1                      SETMSG MSHLINE+34,L'MSHLINE-34
 003800 1200/47D0 70BA_            27003  1                      WHILE ((R0,POS),AND,(@R1,NE,' ')),BEGIN
 00380E 957A 1000/4780_00000       27034  2                        IF    (@R1,EQ,':'),EXIT
 003816 4110 1001            00001 27053  2                        LA    R1,@R1+1
 00381A 0600                       27054  2                        DECR  R0
 00381C 47F0 709A            03800 27056  1                      END
 003820 9001 D000/41D0_      00000 27061  1                      XPUSH R0,R1
 003828 1801                       27064  1                      LR    R0,R1
 00382A 4110 8052            0002A 27065  1                      LA    R1,MSHLINE+34
 00382E 1B01                       27066  1                      SR    R0,R1
 003830 9001 811C            000F4 27067  1                      STM   R0,R1,MSHNAMEP      Save account loc, len
 003834 4BD0 729E/9801_      03A04 27068  1                      XPOP  R0,R1
                                   27071  1                      ¿þþþþþþþþþþþþþþþþþþþþþþþþþþþþþþþþþþþÜ
                                   27072  1                      Ÿ  Isolate sender's name (if any).  Ÿ
                                   27073  1                      ¾þþþþþþþþþþþþþþþþþþþþþþþþþþþþþþþþþþþ»
 00383C 1200/47D0 714C             27074  1                      IF    (R0,POS),BEGIN
 003842 957A 1000/4770_00000       27088  2                        IF    (@R1,EQ,':'),BEGIN  No name is present...
 00384A 4110 1001            00001 27104  3                          LA    R1,@R1+1            Skip past colon
 00384E 0600                       27105  3                          DECR  R0
 003850                            27107  2                        END
                                   27111  2
 003850 70EE/47F0 714C 03850 03848 27112  2                        ELSE  BEGIN               Name may be present...
 003854 58E0 7282/0DEE       039E8 27123  3                          VCALL LRTRIM
 00385A 957F 1000/4770_00000       27127  3                          IF    (@R1,EQ,'"'),BEGIN  Name is present...
 003862 4110 1001            00001 27143  4                            LA    R1,@R1+1            Skip past "
 003866 0600                       27144  4                            DECR  R0
 003868 1821                       27146  4                            LR    R2,R1
 00386A 1200/47D0 711E_            27147  4                            WHILE ((R0,POS),AND,(@R1,NE,'":')),'LA R1,@R1+1; DECR R0'
 003884 9001 D000/41D0_      00000 27187  4                            XPUSH R0,R1
 00388C 1801                       27190  4                            LR    R0,R1
 00388E 1812                       27191  4                            LR    R1,R2
 003890 1B01                       27192  4                            SR    R0,R1
 003892 58E0 7282/0DEE       039E8 27193  4                            VCALL LRTRIM
 003898 1200/47D0 713C             27197  4                            IF    (R0,POS),BEGIN
 00389E 9001 811C            000F4 27211  5                              STM   R0,R1,MSHNAMEP      Save name ptrs
 0038A2                            27212  4                            END
 0038A2 4BD0 729E/9801_      03A04 27216  4                            XPOP  R0,R1
                                   27219  4
1PROC     (PROC2193) (12:51) (15MAR04) Routines for System Procedures                                                       Page   99
0Current Usings:  (VNENTRY,R5) (*,R7) (MSHDRWA-(4+36),R8) (CP,R11) (CV,R12)
0Loc    Object Code    Addr1 Addr2  Stmt Lv Lineno    Source Statement           (Hibal 5, Asmedit 3.3)  HLASM R4.0  2004/03/15 12.51
+___    ______ ____    _____ _____  ____ __ ______    ______ _________
00038AA 4110 1002            00002 27220  4                            LA    R1,@R1+2
 0038AE 4B00 72A2            03A08 27221  4                            SH    R0,=H'2'
 0038B2                            27222  3                          END
 0038B2                            27226  2                        END
 0038B2                            27230  1                      END
                                   27234  1
 0038B2 9001 8128            00100 27235  1                      STM   R0,R1,MSHSUBJP      Save subject loc, len
                                   27236  1                      ¿þþþþþþþþþþþþþþþþþþþþþþþþþþþþþþþþþþþÜ
                                   27237  1                      Ÿ  Add sender's name (or account).  Ÿ
                                   27238  1                      ¾þþþþþþþþþþþþþþþþþþþþþþþþþþþþþþþþþþþ»
 0038B6 9801 811C            000F4 27239  1                      LM    R0,R1,MSHNAMEP
 0038BA 5900 7286/47D0_      039EC 27240  1                      CEIL  R0,20
 0038C6 41F0 8130/58E0_      00108 27259  1                      SEG   (R1),(R0)           Seg sender's name (or account)
                                   27282  1                      ¿þþþþþþþþþþþþþþþþþþþþþþþþþþþþþÜ
                                   27283  1                      Ÿ  Now build a subject line.  Ÿ
                                   27284  1                      ¾þþþþþþþþþþþþþþþþþþþþþþþþþþþþþ»
 0038D0 4100 001E/41F0_      0001E 27285  1                      SEGCOL 30                 Enforce alignment
 0038DE 9801 8128            00100 27305  1                      LM    R0,R1,MSHSUBJP
 0038E2 58E0 7282/0DEE       039E8 27306  1                      VCALL LRTRIM
 0038E8 58E0 728E/0DEE       039F4 27310  1                      VCALL SQSHRTN
 0038EE 41F0 8130/58E0_      00108 27314  1                      SEG   (R1),(R0)
                                   27337  1                      ¿þþþþþþþþþþþþþþþþþþþþþþþþþþþþþþþþþþþþþþþþþþþþþþþþþþþþþþþþþþÜ
                                   27338  1                      Ÿ  Add the contents of message text lines to the subject.  Ÿ
                                   27339  1                      ¾þþþþþþþþþþþþþþþþþþþþþþþþþþþþþþþþþþþþþþþþþþþþþþþþþþþþþþþþþþ»
 0038F8 D201 8124 72A4 000FC 03A0A 27340  1                      MVC   MSHSEP,=C'<<'       Start of text lines
                                   27341  1
 0038FE D503 7292 813C_039F8 00114 27342  1                      WHILE (MSHSGLENF,LE,140),BEGIN  Keep adding stuff...
 003908 41F0 0001/5EF0_      00001 27362  2                        INCR  R15,MSHLNO          Next lineno
 003914 4110 8030/4100_      00008 27368  2                        SETMSG MSHLINE             Put line here
 00391C 58E0 7276/0DEE       039DC 27382  2                        VCALL GETLINE             Get line contents
 003922 4740 7228            0398E 27386  2                        IF    NEG,EXIT            End of file, scram
 003926 D203 802C B73C 00004 0073C 27400  2                        MVC   MSHLNO,CPLCNO       Update lineno
 00392C 955C 1000/4770_00000       27401  2                        IF    ((@R1,EQ,'*'),AND,(@R1+1,NE,'*')),EXIT  Next msg
 00393C D501 72A6 1000_03A0C 00000 27435  2                        IF    (@R1,EQ,'**'),'LA R1,@R1+1; DECR R0'
 00394C 58E0 7282/0DEE       039E8 27459  2                        VCALL LRTRIM
 003952 58E0 728E/0DEE       039F4 27463  2                        VCALL SQSHRTN             Compress multiple blanks
 003958 9001 D000/41D0_      00000 27467  2                        XPUSH R0,R1
 003960 4110 8124/4100_      000FC 27470  2                        SEGT  MSHSEP              Add separator first
 003972 D201 8124 72A8 000FC 03A0E 27498  2                        MVC   MSHSEP,=C'\ '
 003978 4BD0 729E/9801_      03A04 27499  2                        XPOP  R0,R1
 003980 41F0 8130/58E0_      00108 27502  2                        SEG   (R1),(R0)           Text line
 00398A 47F0 7198            038FE 27525  1                      END
                                   27530  1                    ¿þþþþþþþþþþþþþþþþþþþþþþþþþþþþþþþþþþþþþþþþþþþþþþþþþþþþþþþþþþþþþþþþþÜ
                                   27531  1                    Ÿ  Return the formatted header line (or null if invalid format).  Ÿ
                                   27532  1                    ¾þþþþþþþþþþþþþþþþþþþþþþþþþþþþþþþþþþþþþþþþþþþþþþþþþþþþþþþþþþþþþþþþþ»
 00398E 5810 8150/5800_      00128 27533  1           PCMHDONE   SETMSG L:MSHSGLOC,L:MSHSGLENF  Return string
 003996 5900 729A/47D0_      03A00 27545  1                      CEIL  R0,140              Not too long
 0039A2 4126 0150/D74F_      00150 27564  1                      PRETVAL 2,STRING,(R1),(R0)
 DROP   VNENTRY,R5
 USING  VNENTRY,R2
 USING  VNENTRY,R5
 DROP   VNENTRY,R2
 DROP   VNENTRY,R5                 27666                       END
                                   27675
1PROC     (PROC2193) (12:51) (15MAR04) Routines for System Procedures                                                       Page  100
0Current Usings:  (CP,R11) (CV,R12)
0Loc    Object Code    Addr1 Addr2  Stmt Lv Lineno    Source Statement           (Hibal 5, Asmedit 3.3)  HLASM R4.0  2004/03/15 12.51
+___    ______ ____    _____ _____  ____ __ ______    ______ _________
00039C2 18D8/9808 D004_            27676                       PEND
 DROP   MSHDRWA-(4+36),R8
 DROP   *,R7
                                   27701
                                   27702                       QLTORG
1PROC     (PROC2193) (12:51) (15MAR04) Routines for System Procedures                                                       Page  101
0Current Usings:  (CP,R11) (CV,R12)
0Loc    Object Code    Addr1 Addr2  Stmt Lv Lineno    Source Statement           (Hibal 5, Asmedit 3.3)  HLASM R4.0  2004/03/15 12.51
+___    ______ ____    _____ _____  ____ __ ______    ______ _________
0                                  27734              ¿þþþþþþþþþþþþþþþþþþþþþþþþþþþþþþþþþþþþþþþþþþþþþþþþþþþþþþþþþþþþþþþþþþþþþÜ
                                   27735              Ÿ                                                                     Ÿ
                                   27736              Ÿ                                                                     Ÿ
                                   27737              Ÿ  MATCH_LINES ( LINENO1 , LINENO2 [,ACTNO1 , ACTNO2] )               Ÿ
                                   27738              Ÿ                                                                     Ÿ
                                   27739              Ÿ                                                                     Ÿ
                                   27740              Ÿ  SEE COMMENTS AT START OF MODULE                                    Ÿ
                                   27741              Ÿ                                                                     Ÿ
                                                      ¾þþþþþþþþþþþþþþþþþþþþþþþþþþþþþþþþþþþþþþþþþþþþþþþþþþþþþþþþþþþþþþþþþþþþþ»
0000000                00000 00154 27742              MLWA     RECORD BEGIN
                                   27750  1                      XSA   R0,R8
 000000 0000000000000000           27751  1 01-XSA   +           DC    (R8+2-(R0))A(0)
 000028                            27752  1           MLLNO1     DS    F                   START OF 1ST RANGE
 00002C                            27753  1           MLLNO2     DS    F                   START OF 2ND RANGE
 000030                            27754  1           MLACTNO1   DS    F                   ACTIVE FILE NUMBER 1
 000034                            27755  1           MLACTNO2   DS    F                   ACTIVE FILE NUMBER 2
 000038                            27756  1           MLCNT1     DS    F                   COUNT OF LINES IN 1ST BUFFER
 00003C                            27757  1           MLLEN1     DS    F                   LENGTH OF DATA IN 1ST BUFFER
 000040                            27758  1           MLBUF1     DS    F                   ADDRESS OF 1ST BUFFER
 000044                            27759  1           MLBUF1A    DS    F                   ADDRESS OF 1ST BUFFER LINE NOS
 000048                            27760  1           MLCNT2     DS    F                   COUNT OF LINES IN 2ND BUFFER
 00004C                            27761  1           MLLEN2     DS    F                   LENGTH OF DATA IN 2ND BUFFER
 000050                            27762  1           MLBUF2     DS    F                   ADDRESS OF 2ND BUFFER
 000054                            27763  1           MLBUF2A    DS    F                   ADDRESS OF 2ND BUFFER LINE NOS
 000058                            27764  1           MLRETPTR   DS    F                   RETURN PARAMETER AREA POINTER
 00005C                            27765  1           MLTEMPLN   DS    F                   TEMP LINENO
                                   27766  1           MLTEMPBF   DS    CL(&LINESZ)         TEMP BUFFER
 000060                                   1          +MLTEMPBF   DS    CL(235)             TEMP BUFFER
 00014C                            27767  1           MLNOMAT1   DS    F                   NON MATCHING LINENO #1
 000150                            27768  1           MLNOMAT2   DS    F                   NON MATCHING LINENO #2
                                   27769  1           MLMAXCNT   EQU   1000                BUFFER 100 LINES AT A TIME
                                   27770  1           MLBUFSZ    EQU   24576               TEXT BUFFER SIZE
                                   27771  1           MLLBUFSZ   EQU   4096                LINE BUFFER SIZE
 000154                            27772  1                      DS    0S(MLLBUFSZ-((MLMAXCNT*4)+16))
 000154                00154 00154 27773                       END
                                   27782              *
                                   27783              *
 003A16 50E0 D000/9008_      00000 27784              PCMATCHL PROC  MLWA
 USING  *,R7
 USING  MLWA-(4+36),R8
                                   27834
                                   27835                       COMMENT                   CHECK PARMS
 003A30 4120 737C/58E0_      03DAC 27836                       SETARGS '24WWII'          2 ARGS: BOTH LINE NUMBERS
 003A3A 4770 732A            03D5A 27843                       BNZ   MLDONE              2 OPTIONAL ARGS: BOTH INTEGERS
 003A3E 5060 8080            00058 27844                       ST    R6,MLRETPTR
                                   27845
                                   27846                       COMMENT                   GET LINE NUMBERS
 USING  VNENTRY,R5                 27847                       USING VNENTRY,R5
 003A42 4151 0000            00000 27856                       LA    R5,ARG1(R1)
 003A46 5820 5024            00024 27857                       L     R2,VNVALUE
 003A4A 5020 8050            00028 27858                       ST    R2,MLLNO1
 003A4E 4151 0150            00150 27859                       LA    R5,ARG2(R1)
 003A52 5820 5024            00024 27860                       L     R2,VNVALUE
1PROC     (PROC2193) (12:51) (15MAR04) Routines for System Procedures                                                       Page  102
0Current Usings:  (VNENTRY,R5) (*,R7) (MLWA-(4+36),R8) (CP,R11) (CV,R12)
0Loc    Object Code    Addr1 Addr2  Stmt Lv Lineno    Source Statement           (Hibal 5, Asmedit 3.3)  HLASM R4.0  2004/03/15 12.51
+___    ______ ____    _____ _____  ____ __ ______    ______ _________
0003A56 5020 8054            0002C 27861                       ST    R2,MLLNO2
                                   27862
                                   27863                       COMMENT                   GET ACTIVE FILE NUMBERS, IF ANY
 003A5A D703 8058 8058 00030 00030 27864                       CLEAR MLACTNO1            ASSUME NONE
 003A60 D703 805C 805C 00034 00034 27871                       CLEAR MLACTNO2
 003A66 5900 733C/4770_      03D6C 27878                       IF    (R0,EQ,3),BEGIN
 003A6E 4110 7394/4100_      03DC4 27895  1                      TSEG  'Both (if any) active file numbers must be used.',,CR
 003A80 4120 0003/58E0_      00003 27913  1                      BADARG 3
 003A8A 47F0 732A            03D5A 27924  1                      EXIT   PCMATCHL
 003A8E                            27927                       END
 003A8E 5900 7348/4770_      03D78 27931                       IF    (R0,EQ,4),BEGIN
 003A96 4151 02A0            002A0 27948  1                      LA    R5,ARG3(R1)
 003A9A 5820 5024            00024 27949  1                      L     R2,VNVALUE
 003A9E 5020 8058            00030 27950  1                      ST    R2,MLACTNO1
 003AA2 1222/4720 7086             27951  1                      IF    (R2,NP),BEGIN
 003AA8 4120 0003/58E0_      00003 27965  2                        BADARG 3
 003AB2 47F0 732A            03D5A 27976  2                        EXIT   PCMATCHL
 003AB6                            27979  1                      END
 003AB6 4151 03F0            003F0 27983  1                      LA    R5,ARG4(R1)
 003ABA 5820 5024            00024 27984  1                      L     R2,VNVALUE
 003ABE 5020 805C            00034 27985  1                      ST    R2,MLACTNO2
 003AC2 1222/4720 70A6             27986  1                      IF    (R2,NP),BEGIN
 003AC8 4120 0004/58E0_      00004 28000  2                        BADARG 4
 003AD2 47F0 732A            03D5A 28011  2                        EXIT   PCMATCHL
 003AD6                            28014  1                      END
 003AD6                            28018                       END
 DROP   VNENTRY,R5                 28022                       DROP  R5
                                   28029
                                   28030                       COMMENT                   CHECK FOR VOID/EQUIVALENT RANGES
 003AD6 D203 8084 8050 0005C 00028 28031                       MVC   MLTEMPLN,MLLNO1
 003ADC 4110 8088            00060 28032                       LA    R1,MLTEMPBF
 003AE0 4120 8084            0005C 28033                       LA    R2,MLTEMPLN
 003AE4 5830 8058            00030 28034                       L     R3,MLACTNO1
 003AE8 58E0 734C/0DEE       03D7C 28035                       VCALL GTFRST
 003AEE 4780 70DC            03B0C 28039                       IF    NZ,BEGIN
 003AF2 4110 7382/4100_      03DB2 28050  1                      TSEG  'No lines in range.'
 003B04 41F0 0004            00004 28068  1                      LA    R15,4
 003B08 47F0 732A            03D5A 28069  1                      B     MLDONE
 003B0C                            28070                       END
 003B0C D203 8084 8054 0005C 0002C 28074                       MVC   MLTEMPLN,MLLNO2
 003B12 4110 8088            00060 28075                       LA    R1,MLTEMPBF
 003B16 4120 8084            0005C 28076                       LA    R2,MLTEMPLN
 003B1A 5830 805C            00034 28077                       L     R3,MLACTNO2
 003B1E 58E0 734C/0DEE       03D7C 28078                       VCALL GTFRST
 003B24 4780 7112            03B42 28082                       IF    NZ,BEGIN
 003B28 4110 7382/4100_      03DB2 28093  1                      TSEG  'No lines in range.'
 003B3A 41F0 0004            00004 28111  1                      LA    R15,4
 003B3E 47F0 732A            03D5A 28112  1                      B     MLDONE
 003B42                            28113                       END
                                   28117
                                   28118                       COMMENT                   GET COMPARE BUFFERS
 003B42 5810 7354            03D84 28119                       L     R1,=AL4(MLBUFSZ)
 003B46 182D/1AD1/41D0_            28120                       XPUSH ,,(R1),PTR=R2
 003B52 5020 8068            00040 28125                       ST    R2,MLBUF1
1PROC     (PROC2193) (12:51) (15MAR04) Routines for System Procedures                                                       Page  103
0Current Usings:  (*,R7) (MLWA-(4+36),R8) (CP,R11) (CV,R12)
0Loc    Object Code    Addr1 Addr2  Stmt Lv Lineno    Source Statement           (Hibal 5, Asmedit 3.3)  HLASM R4.0  2004/03/15 12.51
+___    ______ ____    _____ _____  ____ __ ______    ______ _________
0003B56 5810 735C            03D8C 28126                       L     R1,=AL4(MLLBUFSZ)
 003B5A 182D/1AD1/41D0_            28127                       XPUSH ,,(R1),PTR=R2
 003B66 5020 806C            00044 28132                       ST    R2,MLBUF1A
 003B6A 5810 7354            03D84 28133                       L     R1,=AL4(MLBUFSZ)
 003B6E 182D/1AD1/41D0_            28134                       XPUSH ,,(R1),PTR=R2
 003B7A 5020 8078            00050 28139                       ST    R2,MLBUF2
 003B7E 5810 735C            03D8C 28140                       L     R1,=AL4(MLLBUFSZ)
 003B82 182D/1AD1/41D0_            28141                       XPUSH ,,(R1),PTR=R2
 003B8E 5020 807C            00054 28146                       ST    R2,MLBUF2A
                                   28147                       ¿þþþþþþþþþþþþþþþþþþþþþþþþþþþþþþþþþþþþþþþþþþþþþþþþþÜ
                                   28148                       Ÿ  LOOK FOR MATCHES IN NEXT 10, 30 AND 120 LINES  Ÿ
                                   28149                       ¾þþþþþþþþþþþþþþþþþþþþþþþþþþþþþþþþþþþþþþþþþþþþþþþþþ»
                                   28150                       COMMENT                   READ IN BUFFER #1
 003B92 5800 8050            00028 28151                       L     R0,MLLNO1           SEE READBUF ROUTINE COMMENTS
 003B96 5810 8068            00040 28152                       L     R1,MLBUF1
 003B9A 5820 806C            00044 28153                       L     R2,MLBUF1A
 003B9E 5830 7360            03D90 28154                       L     R3,=A(MLBUFSZ)
 003BA2 4140 0096            00096 28155                       LA    R4,150              WE READ 150 LINES
 003BA6 1B55                       28156                       CLEAR R5
 003BA8 5860 8058            00030 28160                       L     R6,MLACTNO1
 003BAC 58F0 7364            03D94 28161                       L     R15,=X'FD000000'
 003BB0 58E0 7368/0DEE       03D98 28162                       ACALL READBUF
 003BB6 5000 8064            0003C 28166                       ST    R0,MLLEN1
 003BBA 5010 8060            00038 28167                       ST    R1,MLCNT1
                                   28168
                                   28169                       COMMENT                   READ IN BUFFER #2
 003BBE 5800 8054            0002C 28170                       L     R0,MLLNO2           SEE READBUF ROUTINES COMMENTS
 003BC2 5810 8078            00050 28171                       L     R1,MLBUF2
 003BC6 5820 807C            00054 28172                       L     R2,MLBUF2A
 003BCA 5830 7360            03D90 28173                       L     R3,=A(MLBUFSZ)
 003BCE 4140 0096            00096 28174                       LA    R4,150
 003BD2 1B55                       28175                       CLEAR R5
 003BD4 5860 805C            00034 28179                       L     R6,MLACTNO2
 003BD8 58F0 736C            03D9C 28180                       L     R15,=X'FE000000'
 003BDC 58E0 7368/0DEE       03D98 28181                       ACALL READBUF
 003BE2 5000 8074            0004C 28185                       ST    R0,MLLEN2
 003BE6 5010 8070            00048 28186                       ST    R1,MLCNT2
                                   28187
                                   28188                       COMMENT                   CHECK IN FIRST 10 LINES
 003BEA 5800 8068            00040 28189                       L     R0,MLBUF1
 003BEE 5810 8064            0003C 28190                       L     R1,MLLEN1
 003BF2 5820 8078            00050 28191                       L     R2,MLBUF2
 003BF6 5830 8074            0004C 28192                       L     R3,MLLEN2
 003BFA 5840 806C            00044 28193                       L     R4,MLBUF1A
 003BFE 5850 807C            00054 28194                       L     R5,MLBUF2A
 003C02 4160 000A            0000A 28195                       LA    R6,10
 003C06 58E0 7370/0DEE       03DA0 28196                       ACALL MATCHBUF
                                   28200
                                   28201                       COMMENT                   IF NO MATCH, CHECK IN FIRST 30
 003C0C 4780 72A6            03CD6 28202                       IF    NZ,BEGIN               LINES
 003C10 5800 8068            00040 28213  1                      L     R0,MLBUF1
 003C14 5810 8064            0003C 28214  1                      L     R1,MLLEN1
 003C18 5820 8078            00050 28215  1                      L     R2,MLBUF2
 003C1C 5830 8074            0004C 28216  1                      L     R3,MLLEN2
1PROC     (PROC2193) (12:51) (15MAR04) Routines for System Procedures                                                       Page  104
0Current Usings:  (*,R7) (MLWA-(4+36),R8) (CP,R11) (CV,R12)
0Loc    Object Code    Addr1 Addr2  Stmt Lv Lineno    Source Statement           (Hibal 5, Asmedit 3.3)  HLASM R4.0  2004/03/15 12.51
+___    ______ ____    _____ _____  ____ __ ______    ______ _________
0003C20 5840 806C            00044 28217  1                      L     R4,MLBUF1A
 003C24 5850 807C            00054 28218  1                      L     R5,MLBUF2A
 003C28 4160 001E            0001E 28219  1                      LA    R6,30
 003C2C 58E0 7370/0DEE       03DA0 28220  1                      ACALL MATCHBUF
                                   28224  1
                                   28225  1                      COMMENT                   IF NO MATCH, CHECK IN FIRST 120
 003C32 4780 72A6            03CD6 28226  1                      IF    NZ,BEGIN               LINES
 003C36 5800 8068            00040 28237  2                        L     R0,MLBUF1
 003C3A 5810 8064            0003C 28238  2                        L     R1,MLLEN1
 003C3E 5820 8078            00050 28239  2                        L     R2,MLBUF2
 003C42 5830 8074            0004C 28240  2                        L     R3,MLLEN2
 003C46 5840 806C            00044 28241  2                        L     R4,MLBUF1A
 003C4A 5850 807C            00054 28242  2                        L     R5,MLBUF2A
 003C4E 4160 001E            0001E 28243  2                        LA    R6,30
 003C52 58E0 7370/0DEE       03DA0 28244  2                        ACALL MATCHBUF
                                   28248  2                        ¿þþþþþþþþþþþþþþþþþþþþþþþþþþþþþþþþþþþþþþþþþþþþþþþþþþþþþþþÜ
                                   28249  2                        Ÿ  IF STILL NO MATCH LOOK FOR MATCH IN NEXT 1000 LINES  Ÿ
                                   28250  2                        ¾þþþþþþþþþþþþþþþþþþþþþþþþþþþþþþþþþþþþþþþþþþþþþþþþþþþþþþþ»
                                   28251  2                        COMMENT                   READ IN BUFFER #1
 003C58 4780 72A6            03CD6 28252  2                        IF    NZ,BEGIN
 003C5C 5800 8050            00028 28263  3                          L     R0,MLLNO1           SEE READBUF ROUTINE COMMENTS
 003C60 5810 8068            00040 28264  3                          L     R1,MLBUF1
 003C64 5820 806C            00044 28265  3                          L     R2,MLBUF1A
 003C68 5830 7360            03D90 28266  3                          L     R3,=A(MLBUFSZ)
 003C6C 4140 03E8            003E8 28267  3                          LA    R4,MLMAXCNT         WE READ 1000 LINES
 003C70 1B55                       28268  3                          CLEAR R5
 003C72 5860 8058            00030 28272  3                          L     R6,MLACTNO1
 003C76 58F0 7364            03D94 28273  3                          L     R15,=X'FD000000'
 003C7A 58E0 7368/0DEE       03D98 28274  3                          ACALL READBUF
 003C80 5000 8064            0003C 28278  3                          ST    R0,MLLEN1
 003C84 5010 8060            00038 28279  3                          ST    R1,MLCNT1
                                   28280  3
                                   28281  3                          COMMENT                   READ IN BUFFER #2
 003C88 5800 8054            0002C 28282  3                          L     R0,MLLNO2           SEE READBUF ROUTINES COMMENTS
 003C8C 5810 8078            00050 28283  3                          L     R1,MLBUF2
 003C90 5820 807C            00054 28284  3                          L     R2,MLBUF2A
 003C94 5830 7360            03D90 28285  3                          L     R3,=A(MLBUFSZ)
 003C98 4140 03E8            003E8 28286  3                          LA    R4,MLMAXCNT
 003C9C 1B55                       28287  3                          CLEAR R5
 003C9E 5860 805C            00034 28291  3                          L     R6,MLACTNO2
 003CA2 58F0 736C            03D9C 28292  3                          L     R15,=X'FE000000'
 003CA6 58E0 7368/0DEE       03D98 28293  3                          ACALL READBUF
 003CAC 5000 8074            0004C 28297  3                          ST    R0,MLLEN2
 003CB0 5010 8070            00048 28298  3                          ST    R1,MLCNT2
                                   28299  3
                                   28300  3                          COMMENT                   CHECK UP TO 1000 LINES
 003CB4 5800 8068            00040 28301  3                          L     R0,MLBUF1
 003CB8 5810 8064            0003C 28302  3                          L     R1,MLLEN1
 003CBC 5820 8078            00050 28303  3                          L     R2,MLBUF2
 003CC0 5830 8074            0004C 28304  3                          L     R3,MLLEN2
 003CC4 5840 806C            00044 28305  3                          L     R4,MLBUF1A
 003CC8 5850 807C            00054 28306  3                          L     R5,MLBUF2A
 003CCC 4160 03E8            003E8 28307  3                          LA    R6,MLMAXCNT
 003CD0 58E0 7370/0DEE       03DA0 28308  3                          ACALL MATCHBUF
1PROC     (PROC2193) (12:51) (15MAR04) Routines for System Procedures                                                       Page  105
0Current Usings:  (*,R7) (MLWA-(4+36),R8) (CP,R11) (CV,R12)
0Loc    Object Code    Addr1 Addr2  Stmt Lv Lineno    Source Statement           (Hibal 5, Asmedit 3.3)  HLASM R4.0  2004/03/15 12.51
+___    ______ ____    _____ _____  ____ __ ______    ______ _________
0                                  28312  3
 003CD6                            28313  2                        END ,
 003CD6                            28317  1                      END ,
 003CD6                            28321                       END , OF LOOKING FOR LINE MATCHES
                                   28325
                                   28326                       COMMENT                   IF NO MATCHES, RETURN -1'S
 003CD6 12FF/4780 72B4             28327                       IF    (R15,NZ),BEGIN
 003CDC 5800 7374            03DA4 28341  1                      L     R0,=F'-1000'
 003CE0 5810 7374            03DA4 28342  1                      L     R1,=F'-1000'
 003CE4                            28343                       END
                                   28347
                                   28348                       COMMENT                   RETURN COMPARE VALUES
 003CE4 5860 8080            00058 28349                       L     R6,MLRETPTR
 003CE8 5000 8174            0014C 28350                       ST    R0,MLNOMAT1
 003CEC 5010 8178            00150 28351                       ST    R1,MLNOMAT2
 003CF0 4126 0000/D74F_      00000 28352                       PRETVAL 1,LINENO,L:MLNOMAT1
 USING  VNENTRY,R2
 DROP   VNENTRY,R2
 003D10 4126 0150/D74F_      00150 28400                       PRETVAL 2,LINENO,L:MLNOMAT2
 USING  VNENTRY,R2
 DROP   VNENTRY,R2
 003D30 1BFF                       28448                       CLEAR R15
                                   28452
                                   28453                       COMMENT                   RETURN BUFFERS TO STACK
 003D32 5810 7354            03D84 28454                       L     R1,=AL4(MLBUFSZ)
 003D36 1BD1/54D0 7358             28455                       XPOP  ,,(R1)
 003D3C 5810 735C            03D8C 28458                       L     R1,=AL4(MLLBUFSZ)
 003D40 1BD1/54D0 7358             28459                       XPOP  ,,(R1)
 003D46 5810 7354            03D84 28462                       L     R1,=AL4(MLBUFSZ)
 003D4A 1BD1/54D0 7358             28463                       XPOP  ,,(R1)
 003D50 5810 735C            03D8C 28466                       L     R1,=AL4(MLLBUFSZ)
 003D54 1BD1/54D0 7358             28467                       XPOP  ,,(R1)
                                   28470
 003D5A                            28471              MLDONE   LABEL ,
 003D5A 18D8/9808 D004_            28473                       PEND
 DROP   MLWA-(4+36),R8
 DROP   *,R7
                                   28498
                                   28499                       QLTORG
1PROC     (PROC2193) (12:51) (15MAR04) Routines for System Procedures                                                       Page  106
0Current Usings:  (CP,R11) (CV,R12)
0Loc    Object Code    Addr1 Addr2  Stmt Lv Lineno    Source Statement           (Hibal 5, Asmedit 3.3)  HLASM R4.0  2004/03/15 12.51
+___    ______ ____    _____ _____  ____ __ ______    ______ _________
0                                  28532              *box*
                                   28533              *
                                   28534              *        Common NET SYSCALL work area.
                                   28535              *
 000000                00000 001EF 28536              NWA      RECORD BEGIN
 000000                            28544  1           NWAID      DS    C'NWA'              Self identification
                                   28545  1
 000003 00                         28546  1           NWAFLAG    FLAG
 NWAFLAG.NWAFOPT   80 ONES         28550  1                      FLAG  NWAFOPT             - Explicit option specified
 NWAFLAG.NWAFEOF   40 ONES         28555  1                      FLAG  NWAFEOF             - EOF string specified
 NWAFLAG.NWAFLINS  20 ONES         28560  1                      FLAG  NWAFLINS            - LINES option specified
 NWAFLAG.NWAFNONL  10 ONES         28565  1                      FLAG  NWAFNONL            - NONL option specified
 NWAFLAG.NWAFNPR   08 ONES         28570  1                      FLAG  NWAFNPR             - NOREPROMPT option specified
                                   28575  1
 000004                            28576  1           NWAATCHR   DS    C                   ATTENTION char
                                   28577  1
 000008                            28578  1           NWAARGP    DS    A                   Argument list ptr
 00000C                            28579  1           NWANARGS   DS    F                   Number of args passed
                                   28580  1
 000010                            28581  1           NWAWORD    DS    F                   Working fullword area
 000014                            28582  1           NWAOPNO    DS    F                   Open path number
                                   28583  1
 000018                            28584  1           NWAUNETP   DS    F                   UNET ptr
 00001C                            28585  1           NWAR0R1    DS   2F                   Working R0,R1 for scan routines
                                   28586  1
 000024                            28587  1           NWACTRL    DS    CL8                 Control function id
 00002C                            28588  1           NWAOPT     DS    CL4                 Working option string
 000030                            28589  1           NWALNO     DS    F                   Working lineno
 000034                            28590  1           NWAREMCT   DS    F                   Working remaining line count
 000038                            28591  1           NWACOUNT   DS    F                   Working line count so far
 00003C                            28592  1           NWAEOFL    DS    H                   Length of EOF string
 00003E                            28593  1           NWAEOF     DS    CL128               Working EOF line
                                   28594  1
                                   28595  1           NWASG      SEGCB
 0000C0 00                         28596  1 01-SEGCB +$$$SEGCB648   DS 0F
 NWASGCOD.NWASGSEG 01 EQ
 NWASGCOD.NWASGWR  02 EQ
 NWASGCOD.NWASGCLR 03 EQ
 NWASGCOD.NWASGSPP 04 EQ
 NWASGCOD.NWASGOVF 05 EQ
 NWASGCOD.NWASGCR  06 EQ
 NWASGCOD.NWASGMAR 07 EQ
 0000C1 00                         28671  1 01-SEGCB +           DC    X'00'               Reserved
 0000C2 0000                              1          +
 0000C4 00000000                   28672  1 01-SEGCB +NWASGMAXF   DC   A(0)                Maximum buffer length
 0000C8 00000000                   28673  1 01-SEGCB +NWASGMRKF   DC   A(0)                Length at last mark
 0000CC 00000000                   28674  1 01-SEGCB +NWASGLENF   DC   A(0)                Current length
 0000D0 00000000                   28675  1 01-SEGCB +NWASGINDF   DC   A(0)                Overflow/indent count
 0000D4 00000000                   28676  1 01-SEGCB +NWASGERR   DC    A(0)                Address of error recovery routine
 0000D8 0000000000000000           28677  1 01-SEGCB +           DC    2F'0'               Reserved
 0000E0 00000000                   28678  1 01-SEGCB +NWASGLOC   DC    A(0)                Location of buffer
 0000E4 00000000                   28679  1 01-SEGCB +NWASGRTN   DC    A(0)                Processing routine
 0000E8 0000000000000000           28680  1 01-SEGCB +           DC    4F'0'               Reserved
 0000F8 00000000                   28681  1 01-SEGCB +NWASGUSR   DC    A(0)                USER field
1PROC     (PROC2193) (12:51) (15MAR04) Routines for System Procedures                                                       Page  107
0Current Usings:  (CP,R11) (CV,R12)
0Loc    Object Code    Addr1 Addr2  Stmt Lv Lineno    Source Statement           (Hibal 5, Asmedit 3.3)  HLASM R4.0  2004/03/15 12.51
+___    ______ ____    _____ _____  ____ __ ______    ______ _________
0                                  28682  1 01-SEGCB +NWASG      EQU   $$$SEGCB648,*-$$$SEGCB648,C'X'
 0000FC                            28683  1           NWASGRCP   DS    2A                  Return code string loc, len
                                   28684  1           NWALINE    DS    CL(&LINESZ)         Line seg buffer
 000104                                   1          +NWALINE    DS    CL(235)             Line seg buffer
 0001EF                001EF 001EF 28685                       END
1PROC     (PROC2193) (12:51) (15MAR04) Routines for System Procedures                                                       Page  108
0Current Usings:  (CP,R11) (CV,R12)
0Loc    Object Code    Addr1 Addr2  Stmt Lv Lineno    Source Statement           (Hibal 5, Asmedit 3.3)  HLASM R4.0  2004/03/15 12.51
+___    ______ ____    _____ _____  ____ __ ______    ______ _________
0                                  28695              ¿þþþþþþþþþþþþþþþþþþþþþþþþþþþþþþþþþþþþþþþþþþþþþþþþþþþþþþþþþþþþþþþþþþþþþÜ
                                   28696              Ÿ                                                                     Ÿ
                                   28697              Ÿ  NET_CLOSE(netpno [,option-string] [,rc])                           Ÿ
                                   28698              Ÿ                                                                     Ÿ
                                   28699              Ÿ    Close a network path.                                            Ÿ
                                   28700              Ÿ                                                                     Ÿ
                                                      ¾þþþþþþþþþþþþþþþþþþþþþþþþþþþþþþþþþþþþþþþþþþþþþþþþþþþþþþþþþþþþþþþþþþþþþ»
0003DF4 50E0 D000/9008_      00000 28701              PCNETCLS PROC  NWA
 USING  *,R7
 USING  NWA-(4+36),R8
 003E0E D7FF 8028 8028_00000 00000 28751                       CLEAR NWA
 003E1A D202 8028 7C8A 00000 04A98 28759                       MVC   NWA(3),=C'NWA'
 003E20 58E0 B08C/D2AF_      0008C 28760                       SCPUSH ,
 003E2E 5000 8034            0000C 28766                       ST    R0,NWANARGS         Number of arguments
 003E32 5010 8030            00008 28767                       ST    R1,NWAARGP          Arglist ptr
 003E36 4120 8028            00000 28768                       LA    R2,NWA
 003E3A 5020 BCA4            00CA4 28769                       ST    R2,CPCWA            Save NWA ptr
                                   28770
 003E3E 4120 7C8D/58E0_      04A9B 28771                       SETARGS '13ISS'           1-3 args: num, str, str
 003E48 4770 7154            03F62 28778                       BNZ   NCLSEXIT
                                   28779
 USING  VNENTRY,R5                 28780                       WITH  (VNENTRY,R5)
 003E4C 4151 0000            00000 28793                       LA    R5,ARG1(R1)
 003E50 5800 5024            00024 28794                       L     R0,VNVALUE          Path number specified
 003E54 58E0 7C16/0DEE       04A24 28795                       VCALL NPATGET             Get network path address
 003E5A 4770 7128            03F36 28799                       BNZ   NCLSRET             Trouble, scram
 003E5E 1841                       28800                       LR    R4,R1
 USING  UNET,R4                    28801                       USING UNET,R4
 003E60 94BF 402C/D703_0002C       28810                       CLEAR UNETFNOWAIT,UNETWAIT  Reset wait options
                                   28822                       ¿þþþþþþþþþþþþþþþþþþþþþþþþþþþÜ
                                   28823                       Ÿ  Scan NET_CLOSE options.  Ÿ
                                   28824                       ¾þþþþþþþþþþþþþþþþþþþþþþþþþþþ»
 003E6A D503 7C1A 8034_04A28 0000C 28825                       IF    (NWANARGS,GE,2),BEGIN  Scan options...
 003E74 4150 0150            00150 28843  1                      LA    R5,ARG2
 003E78 5A50 8030            00008 28844  1                      A     R5,NWAARGP
 003E7C 4110 5026/4800_      00026 28845  1                      SCINIT VNSTRLOC,LH:VNSTRLEN
 003E92 5060 D000/41D0_      00000 28868  1                      XPUSH R6
 003E9A 4160 8028            00000 28871  1                      LA    R6,NWA
 003E9E 5810 B08C/1B00_      0008C 28872  1                      SCAN  NCLSPRT             Scan NET_CLOSE options
 003EF0 4BD0 7C60/5860_      04A6E 28904  1                      XPOP  R6
 003EF8 12FF/4770 711C             28907  1                      IF    (R15,NZ),NCLSERR
 003EFE                            28924                       END
                                   28928                       ¿þþþþþþþþþþþþþþþþþþþþþþþþþþþþþþþþþþþþÜ
                                   28929                       Ÿ  Close and free the network path.  Ÿ
                                   28930                       ¾þþþþþþþþþþþþþþþþþþþþþþþþþþþþþþþþþþþþ»
 003EFE 9160 4164/4770_00164       28931                       IF    (UNETFOUTEOF+UNETFOUTABORT,Z),BEGIN  Still active...
 003F06 4110 7C92            04AA0 28951  1                      LA    R1,=C'EOF'          Normal end of file
 003F0A 41F0 4000            00000 28952  1                      LA    R15,UNET
 003F0E 58E0 7C26/0DEE       04A34 28953  1                      VCALL NPATCTRL            Send end of file
 003F14                            28957                       END
                                   28961
 003F14 41F0 4000            00000 28962                       LA    R15,UNET
 003F18 58E0 7C2A/0DEE       04A38 28963                       VCALL NPATCLS             Close/Free network connection
1PROC     (PROC2193) (12:51) (15MAR04) Routines for System Procedures                                                       Page  109
0Current Usings:  (UNET,R4) (VNENTRY,R5) (*,R7) (NWA-(4+36),R8) (CP,R11) (CV,R12)
0Loc    Object Code    Addr1 Addr2  Stmt Lv Lineno    Source Statement           (Hibal 5, Asmedit 3.3)  HLASM R4.0  2004/03/15 12.51
+___    ______ ____    _____ _____  ____ __ ______    ______ _________
0003F1E 4110 7C62/4100_      04A70 28967                       SETMSG 'OK'
 003F26 47F0 7128            03F36 28971                       B     NCLSRET
                                   28972
 003F2A 4110 7C64/4100_      04A72 28973              NCLSERR  SETMSG 'INVALID OPTION'
 003F32 47F0 7128            03F36 28977                       B     NCLSRET
                                   28978                       ¿þþþþþþþþþþþþþþþþþþþþþþþþþþþþÜ
                                   28979                       Ÿ  Pass back a return code.  Ÿ
                                   28980                       ¾þþþþþþþþþþþþþþþþþþþþþþþþþþþþ»
 003F36 D503 7C2E 8034_04A3C 0000C 28981              NCLSRET  IF    (NWANARGS,GE,3),BEGIN  Return info...
 003F40 4126 02A0/D74F_      002A0 29000  1                      PRETVAL 3,STRING,(R1),(R0)
 DROP   VNENTRY,R5
 USING  VNENTRY,R2
 USING  VNENTRY,R5
 DROP   VNENTRY,R2
 003F60                            29102                       END
                                   29106
 003F60 1BFF                       29107                       CLEAR R15                 A-ok
                                   29111
 003F62 58E0 B08C/4BD0_      0008C 29112              NCLSEXIT SCPOP ,
 003F70 18D8/9808 D004_            29118                       PEND
 DROP   VNENTRY,R5
 DROP   NWA-(4+36),R8
 DROP   *,R7
                                   29148              *
                                   29149              *  SCAN STUFF
                                   29150              *
 USING  NWA,R6                     29151                       USING NWA,R6
 003F80 4040404040404040_          29160              NCLSPRT  SCKW  ,NCLSBAD
                                   29175
 003FA8 50E0 D000/9008_      00000 29176              NCLSBAD  PROC
 USING  *,R7
 003FC2 41F0 0004            00004 29215                       LA    R15,4
 003FC6 18D8/9808 D004_            29216                       PEND
 DROP   *,R7
 DROP   NWA,R6                     29236                       DROP  R6
 DROP   UNET,R4                    29243                       DROP  R4
1PROC     (PROC2193) (12:51) (15MAR04) Routines for System Procedures                                                       Page  110
0Current Usings:  (CP,R11) (CV,R12)
0Loc    Object Code    Addr1 Addr2  Stmt Lv Lineno    Source Statement           (Hibal 5, Asmedit 3.3)  HLASM R4.0  2004/03/15 12.51
+___    ______ ____    _____ _____  ____ __ ______    ______ _________
0                                  29251              ¿þþþþþþþþþþþþþþþþþþþþþþþþþþþþþþþþþþþþþþþþþþþþþþþþþþþþþþþþþþþþþþþþþþþþþÜ
                                   29252              Ÿ                                                                     Ÿ
                                   29253              Ÿ  NET_CONTROL(netpno, option-string [,return-string] [,rc])          Ÿ
                                   29254              Ÿ                                                                     Ÿ
                                   29255              Ÿ    Do something special to the network path.                        Ÿ
                                   29256              Ÿ                                                                     Ÿ
                                                      ¾þþþþþþþþþþþþþþþþþþþþþþþþþþþþþþþþþþþþþþþþþþþþþþþþþþþþþþþþþþþþþþþþþþþþþ»
0003FD4 50E0 D000/9008_      00000 29257              PCNETCTL PROC  NWA
 USING  *,R7
 USING  NWA-(4+36),R8
 003FEE D7FF 8028 8028_00000 00000 29307                       CLEAR NWA
 003FFA D202 8028 7AAA 00000 04A98 29315                       MVC   NWA(3),=C'NWA'
 004000 58E0 B08C/D2AF_      0008C 29316                       SCPUSH
 00400E 5000 8034            0000C 29322                       ST    R0,NWANARGS         Number of arguments
 004012 5010 8030            00008 29323                       ST    R1,NWAARGP          Arglist ptr
 004016 4120 8028            00000 29324                       LA    R2,NWA
 00401A 5020 BCA4            00CA4 29325                       ST    R2,CPCWA            Save NWA ptr
                                   29326
 00401E 4120 7A94/58E0_      04A82 29327                       SETARGS '24ISSS'          2-4 args: num, str, str, str
 004028 4770 725A            04248 29334                       BNZ   NCTLEXIT
                                   29335
 00402C 5000 8034            0000C 29336                       ST    R0,NWANARGS         Save number of args specified
 USING  VNENTRY,R5                 29337                       WITH  (VNENTRY,R5)
 004030 4151 0000            00000 29350                       LA    R5,ARG1(R1)
 004034 5800 5024            00024 29351                       L     R0,VNVALUE          Path number specified
 004038 58E0 7A36/0DEE       04A24 29352                       VCALL NPATGET             Get network path address
 00403E 4770 7152            04140 29356                       BNZ   NCTLERR             Trouble, scram
 004042 1841                       29357                       LR    R4,R1
 USING  UNET,R4                    29358                       USING UNET,R4
 004044 94BF 402C/D703_0002C       29367                       CLEAR UNETFNOWAIT,UNETWAIT  Reset wait options
                                   29379
 00404E 4150 0150            00150 29380                       LA    R5,ARG2
 004052 5A50 8030            00008 29381                       A     R5,NWAARGP
 004056 4110 5026/4800_      00026 29382                       SCINIT VNSTRLOC,LH:VNSTRLEN
                                   29405
 00406C D707 804C 804C 00024 00024 29406                       CLEAR NWACTRL             Initialize
 004072 5060 D000/41D0_      00000 29413                       XPUSH R6
 00407A 4160 8028            00000 29416                       LA    R6,NWA
 00407E 5810 B08C/1B00_      0008C 29417                       SCAN  NCTLPRT             Scan NET_CONTROL options
 0040D0 4BD0 7A80/5860_      04A6E 29449                       XPOP  R6
 0040D8 9801 8044            0001C 29452                       LM    R0,R1,NWAR0R1       Pick up any R0,R1 values
 0040DC 12FF/4740 714A             29453                       IF    (R15,M),NCTLINV
 0040E2 59F0 7A56/4780_      04A44 29470                       IF    (R15,EQ,4),NCTLINV
 0040EA 59F0 7A5A/4780_      04A48 29490                       IF    (R15,EQ,8),NCTLLNOK
 0040F2 59F0 7A5E/4780_      04A4C 29510                       IF    (R15,EQ,12),NCTLMSG
 0040FA 1BFF                       29530                       CLEAR R15
                                   29534                       ¿þþþþþþþþþþþþþþþþþþþþþþþþþþþþþþÜ
                                   29535                       Ÿ  Error if nothing explicit.  Ÿ
                                   29536                       ¾þþþþþþþþþþþþþþþþþþþþþþþþþþþþþþ»
 0040FC 9180 802B/4710_00003       29537                       IF    ~NWAFOPT,BEGIN      Nothing explicit...
 004104 4110 7A9A/4100_      04A88 29552  1                      SETMSG 'MISSING OPTION'
 00410C 47F0 7152            04140 29556  1                      B     NCTLERR
 004110                            29557                       END
1PROC     (PROC2193) (12:51) (15MAR04) Routines for System Procedures                                                       Page  111
0Current Usings:  (UNET,R4) (VNENTRY,R5) (*,R7) (NWA-(4+36),R8) (CP,R11) (CV,R12)
0Loc    Object Code    Addr1 Addr2  Stmt Lv Lineno    Source Statement           (Hibal 5, Asmedit 3.3)  HLASM R4.0  2004/03/15 12.51
+___    ______ ____    _____ _____  ____ __ ______    ______ _________
0                                  29561
 004110 4110 7A82/4100_      04A70 29562                       SETMSG 'OK'                Assume OK
                                   29566
 004118 D607 804C 804C_00024 00024 29567                       IF    (NWACTRL,NZ),BEGIN  We need to do a NPAT control...
 004122 4110 804C            00024 29583  1                      LA    R1,NWACTRL          Control function ID ("EOF", etc.)
 004126 41F0 4000            00000 29584  1                      LA    R15,UNET
 00412A 58E0 7A46/0DEE       04A34 29585  1                      VCALL NPATCTRL            Do control function
 004130                            29589                       END
                                   29593
 004130 1B22/1B33                  29594                       CLEAR R2,R3               Don't return any "info" string
                                   29600
 004134 47F0 7152            04140 29601                       B     NCTLERR
                                   29602
 004138 4110 7A84/4100_      04A72 29603              NCTLINV  SETMSG 'INVALID OPTION'
                                   29607
 004140 1831/1820                  29608              NCTLERR  LS    R3,R2,(R1),(R0)     Error message in R1,R0
 004144 1B11/1B00                  29619                       CLEAR R1,R0
 004148 47F0 71EA            041D8 29625                       B     NCTLRET
                                   29626
 00414C 4130 7A82/4120_      04A70 29627              NCTLMSG  LS    R3,R2,'OK'          Info message in R1,R0
 004154 47F0 71EA            041D8 29630                       B     NCTLRET
                                   29631                       ¿þþþþþþþþþþþþþþþþþþþþþÜ
                                   29632                       Ÿ  Pass back number.  Ÿ
                                   29633                       ¾þþþþþþþþþþþþþþþþþþþþþ»
 004158 4130 7A82/4120_      04A70 29634              NCTLNOK  LS    R3,R2,'OK'
                                   29637
 004160 9023 D000/41D0_      00000 29638              NCTLNUM  XPUSH R2,R3
 004168 D503 7A4E 8034_04A3C 0000C 29641                       IF    (NWANARGS,GE,3),BEGIN
 004172 4126 02A0/D74F_      002A0 29659  1                      PRETVAL 3,INTEGER,(R1)
 DROP   VNENTRY,R5
 USING  VNENTRY,R2
 USING  VNENTRY,R5
 DROP   VNENTRY,R2
 00418A                            29723                       END
 00418A 4BD0 7AA8/9823_      04A96 29727                       XPOP  R2,R3
                                   29730
 004192 47F0 722A            04218 29731                       B     NCTLCOM
                                   29732                       ¿þþþþþþþþþþþþþþþþþþþþþþþþþþÜ
                                   29733                       Ÿ  Pass back line-number.  Ÿ
                                   29734                       ¾þþþþþþþþþþþþþþþþþþþþþþþþþþ»
 004196 4130 7A82/4120_      04A70 29735              NCTLLNOK LS    R3,R2,'OK'
                                   29738
 00419E 9023 D000/41D0_      00000 29739              NCTLLNO  XPUSH R2,R3
 0041A6 D503 7A4E 8034_04A3C 0000C 29742                       IF    (NWANARGS,GE,3),BEGIN
 0041B0 4126 02A0/D74F_      002A0 29760  1                      PRETVAL 3,LINENO,(R1)
 DROP   VNENTRY,R5
 USING  VNENTRY,R2
 USING  VNENTRY,R5
 DROP   VNENTRY,R2
 0041CC                            29824                       END
 0041CC 4BD0 7AA8/9823_      04A96 29828                       XPOP  R2,R3
                                   29831
 0041D4 47F0 722A            04218 29832                       B     NCTLCOM
1PROC     (PROC2193) (12:51) (15MAR04) Routines for System Procedures                                                       Page  112
0Current Usings:  (UNET,R4) (VNENTRY,R5) (*,R7) (NWA-(4+36),R8) (CP,R11) (CV,R12)
0Loc    Object Code    Addr1 Addr2  Stmt Lv Lineno    Source Statement           (Hibal 5, Asmedit 3.3)  HLASM R4.0  2004/03/15 12.51
+___    ______ ____    _____ _____  ____ __ ______    ______ _________
0                                  29833                       ¿þþþþþþþþþþþþþþþþþþþþþþþþþþþþþþþþþþþþþþþþþþþþÜ
                                   29834                       Ÿ  Pass back return string and return code.  Ÿ
                                   29835                       ¾þþþþþþþþþþþþþþþþþþþþþþþþþþþþþþþþþþþþþþþþþþþþ»
 0041D8 9023 D000/41D0_      00000 29836              NCTLRET  XPUSH R2,R3
 0041E0 D503 7A4E 8034_04A3C 0000C 29839                       IF    (NWANARGS,GE,3),BEGIN
 0041EA 58E0 7A6A/0DEE       04A58 29857  1                      VCALL LRTRIM
 0041F0 4126 02A0/D74F_      002A0 29861  1                      PRETVAL 3,STRING,(R1),(R0)
 DROP   VNENTRY,R5
 USING  VNENTRY,R2
 USING  VNENTRY,R5
 DROP   VNENTRY,R2
 004210                            29963                       END
 004210 4BD0 7AA8/9823_      04A96 29967                       XPOP  R2,R3
                                   29970                       ¿þþþþþþþþþþþþþþþþþþþþþþþþþþþþþþþþþþþþÜ
                                   29971                       Ÿ  Finally, set return code string.  Ÿ
                                   29972                       ¾þþþþþþþþþþþþþþþþþþþþþþþþþþþþþþþþþþþþ»
 004218 D503 7A6E 8034_04A5C 0000C 29973              NCTLCOM  IF    (NWANARGS,GE,4),BEGIN
 004222 1813/1802                  29992  1                      SETMSG (R3),(R2)
 004226 4126 03F0/D74F_      003F0 30004  1                      PRETVAL 4,STRING,(R1),(R0)
 DROP   VNENTRY,R5
 USING  VNENTRY,R2
 USING  VNENTRY,R5
 DROP   VNENTRY,R2
 004246                            30106                       END
                                   30110
 004246 1BFF                       30111                       CLEAR R15                 A-ok
                                   30115
 004248 58E0 B08C/4BD0_      0008C 30116              NCTLEXIT SCPOP
 004256 18D8/9808 D004_            30122                       PEND
 DROP   VNENTRY,R5
 DROP   NWA-(4+36),R8
 DROP   *,R7
                                   30152                       ¿þþþþþþþþþþþþþþþþþþþþþþþþÜ
                                   30153                       Ÿ  NET_CONTROL Options.  Ÿ
                                   30154                       ¾þþþþþþþþþþþþþþþþþþþþþþþþ»
 USING  NWA,R6                     30155                       USING NWA,R6
 004264 C5D6C64040404040_          30164              NCTLPRT  SCKW  EOF,NCTLEOF
 00428C C1C2D6D9E3404040_          30179                       SCKW  ABORT,NCTLABRT
 0042B4 E6C1C9E340404040_          30194                       SCKW  WAIT,NCTLWAIT,(P,I)
 0042DC D5D6E6C1C9E34040_          30209                       SCKW  NOWAIT,NCTLNWT
 004304 C9C1C34040404040_          30224                       SCKW  IAC,NCTLIAC
 00432C D5D6C9C1C3404040_          30239                       SCKW  NOIAC,NCTLNIAC
 004354 C2E26DC9E26DC4C5_          30254                       SCKW  BS_IS_DEL,NCTLBSD
 00437C C2E26DC9E26DC2E2_          30269                       SCKW  BS_IS_BS,NCTLBSBS
 0043A4 E2C5E36DE3C5D9D4_          30284                       SCKW  SET_TERMINAL,NCTLSETT,A
 0043CC C7C5E36DE3C5D9D4_          30299                       SCKW  GET_TERMINAL,NCTLGETT,A
 0043F4 D7C66DD7D9C5E5C9_          30314                       SCKW  PF_PREVIOUS,NCTLPRPF,(A,P,I),99  VTAM NET_VIEW option
 00441C D7C66DD5C5E7E340_          30329                       SCKW  PF_NEXT,NCTLNXPF,(A,P,I),99      VTAM NET_VIEW option
 004444 D7C66DD4C1D9D240_          30344                       SCKW  PF_MARK,NCTLMKPF,(A,P,I),99      VTAM NET_VIEW option
 00446C D7C66DE2C5D5C440_          30359                       SCKW  PF_SEND,NCTLSNPF,(A,P,I),99      VTAM NET_VIEW option
 004494 D7C66DE2C5C3E4D9_          30374                       SCKW  PF_SECURE,NCTLXXPF,(A,P,I),99    VTAM NET_VIEW option
 0044BC C7C5E3E5D4C1D9D2_          30389                       SCKW  GETVMARK,NCTLGETM                VTAM NET_VIEW option
 0044E4 E2C5E3E5D4C1D9D2_          30404                       SCKW  SETVMARK,NCTLSETM,(P,LN)         VTAM NET_VIEW option
 00450C C7C5E3E5E3D6D740_          30419                       SCKW  GETVTOP,NCTLGETVT                VTAM NET_VIEW option
1PROC     (PROC2193) (12:51) (15MAR04) Routines for System Procedures                                                       Page  113
0Current Usings:  (UNET,R4) (NWA,R6) (CP,R11) (CV,R12)
0Loc    Object Code    Addr1 Addr2  Stmt Lv Lineno    Source Statement           (Hibal 5, Asmedit 3.3)  HLASM R4.0  2004/03/15 12.51
+___    ______ ____    _____ _____  ____ __ ______    ______ _________
0004534 E2C5E3E5E3D6D740_          30434                       SCKW  SETVTOP,NCTLSETVT,(P,LN)         VTAM NET_VIEW option
 00455C C3D3D9E5E3D6D740_          30449                       SCKW  CLRVTOP,NCTLCLRVT                VTAM NET_VIEW option
 004584 4040404040404040_          30464                       SCKW  ,NCTLBAD
                                   30479              þþþþ
 0045AC 50E0 D000/9008_      00000 30480              NCTLEOF  PROC
 USING  *,R7
 0045C6 9680 6003      00003       30519                       SET   NWAFOPT
 0045CA D207 6024 744A 00024 04A10 30525                       MVC   NWACTRL,=CL8'EOF'
 0045D0 18D8/9808 D004_            30526                       PEND
 DROP   *,R7
                                   30546
 0045DE 50E0 D000/9008_      00000 30547              NCTLABRT PROC
 USING  *,R7
 0045F8 9680 6003      00003       30586                       SET   NWAFOPT
 0045FC D207 6024 7420 00024 04A18 30592                       MVC   NWACTRL,=CL8'ABORT'
 004602 18D8/9808 D004_            30593                       PEND
 DROP   *,R7
                                   30613              þþþþ
 004610 50E0 D000/9008_      00000 30614              NCTLNWT  PROC
 USING  *,R7
 00462A 9640 402C      0002C       30653                       SET   UNETFNOWAIT
 00462E 18D8/9808 D004_            30659                       PEND
 DROP   *,R7
                                   30679
 00463C 50E0 D000/9008_      00000 30680              NCTLWAIT PROC
 USING  *,R7
 004656 9640 402C      0002C       30719                       SET   UNETFNOWAIT
 00465A 1200/4780 7012             30725                       IF    (R0,Z),EXIT
 004660 94BF 402C      0002C       30742                       CLEAR UNETFNOWAIT
 004664 5000 4070            00070 30749                       ST    R0,UNETWAIT
 004668 18D8/9808 D004_            30750                       PEND
 DROP   *,R7
                                   30770
 004676 50E0 D000/9008_      00000 30771              NCTLIAC  PROC
 USING  *,R7
 004690 9680 4163      00163       30810                       SET   UNETFIAC
 004694 18D8/9808 D004_            30816                       PEND
 DROP   *,R7
                                   30836
 0046A2 50E0 D000/9008_      00000 30837              NCTLNIAC PROC
 USING  *,R7
 0046BC 947F 4163      00163       30876                       CLEAR UNETFIAC
 0046C0 18D8/9808 D004_            30883                       PEND
 DROP   *,R7
                                   30903
 0046CE 50E0 D000/9008_      00000 30904              NCTLBSD  PROC
 USING  *,R7
 0046E8 9610 402D      0002D       30943                       SET   UNETFBSISDEL
 0046EC 18D8/9808 D004_            30949                       PEND
 DROP   *,R7
                                   30969
 0046FA 50E0 D000/9008_      00000 30970              NCTLBSBS PROC
 USING  *,R7
 004714 94EF 402D      0002D       31009                       CLEAR UNETFBSISDEL
1PROC     (PROC2193) (12:51) (15MAR04) Routines for System Procedures                                                       Page  114
0Current Usings:  (UNET,R4) (NWA,R6) (CP,R11) (CV,R12)
0Loc    Object Code    Addr1 Addr2  Stmt Lv Lineno    Source Statement           (Hibal 5, Asmedit 3.3)  HLASM R4.0  2004/03/15 12.51
+___    ______ ____    _____ _____  ____ __ ______    ______ _________
0004718 18D8/9808 D004_            31016                       PEND
 DROP   *,R7
                                   31036
 004726 50E0 D000/9008_      00000 31037              NCTLSETT PROC
 USING  *,R7
 004740 9680 6003      00003       31076                       SET   NWAFOPT
 004744 5810 B08C/1B00_      0008C 31082                       SCANSTR ,                 Scan terminal type (odd chars OK)
 00478A D21F 41DC C4D8 001DC 004D8 31111                       MVC   UNETTERM,CVBLANKS
 004790 18F0                       31112                       LR    R15,R0
 004792 59F0 7324/47D0_      04A64 31113                       CEIL  R15,L'UNETTERM
 00479E 06F0/12FF/4740_            31132                       MOVE  R15,UNETTERM,@R1    Save terminal type
 0047AA 1BFF                       31170                       CLEAR R15
 0047AC 18D8/9808 D004_            31174                       PEND
 DROP   *,R7
                                   31194
 0047BA 50E0 D000/9008_      00000 31195              NCTLGETT PROC
 USING  *,R7
 0047D4 4110 41DC/4100_      001DC 31234                       SETMSG UNETTERM
 0047DC D61F 41DC 41DC_001DC 001DC 31248                       IF    (UNETTERM,Z),'CLEAR R0'
 0047E8 9001 601C            0001C 31273                       STM   R0,R1,NWAR0R1       Save R0,R1 for caller
 0047EC 41F0 000C            0000C 31274                       LA    R15,12
 0047F0 18D8/9808 D004_            31275                       PEND
 DROP   *,R7
                                   31295
 0047FE 50E0 D000/9008_      00000 31296              NCTLPRPF PROC
 USING  *,R7
 004818 9680 6003      00003       31335                       SET   NWAFOPT
 00481C 4000 423E            0023E 31341                       STH   R0,UNETPRPF
 004820 18D8/9808 D004_            31342                       PEND
 DROP   *,R7
                                   31362
 00482E 50E0 D000/9008_      00000 31363              NCTLNXPF PROC
 USING  *,R7
 004848 9680 6003      00003       31402                       SET   NWAFOPT
 00484C 4000 4240            00240 31408                       STH   R0,UNETNXPF
 004850 18D8/9808 D004_            31409                       PEND
 DROP   *,R7
                                   31429
 00485E 50E0 D000/9008_      00000 31430              NCTLMKPF PROC
 USING  *,R7
 004878 9680 6003      00003       31469                       SET   NWAFOPT
 00487C 4000 4242            00242 31475                       STH   R0,UNETMKPF
 004880 18D8/9808 D004_            31476                       PEND
 DROP   *,R7
                                   31496
 00488E 50E0 D000/9008_      00000 31497              NCTLSNPF PROC
 USING  *,R7
 0048A8 9680 6003      00003       31536                       SET   NWAFOPT
 0048AC 4000 4246            00246 31542                       STH   R0,UNETSNPF
 0048B0 18D8/9808 D004_            31543                       PEND
 DROP   *,R7
                                   31563
 0048BE 50E0 D000/9008_      00000 31564              NCTLXXPF PROC
 USING  *,R7
1PROC     (PROC2193) (12:51) (15MAR04) Routines for System Procedures                                                       Page  115
0Current Usings:  (UNET,R4) (NWA,R6) (*,R7) (CP,R11) (CV,R12)
0Loc    Object Code    Addr1 Addr2  Stmt Lv Lineno    Source Statement           (Hibal 5, Asmedit 3.3)  HLASM R4.0  2004/03/15 12.51
+___    ______ ____    _____ _____  ____ __ ______    ______ _________
00048D8 9680 6003      00003       31603                       SET   NWAFOPT
 0048DC 4000 4244            00244 31609                       STH   R0,UNETXXPF
 0048E0 18D8/9808 D004_            31610                       PEND
 DROP   *,R7
                                   31630
 0048EE 50E0 D000/9008_      00000 31631              NCTLGETM PROC
 USING  *,R7
 004908 5810 4260            00260 31670                       L     R1,UNETMRKL         Return top lineno
 00490C 9001 601C            0001C 31671                       STM   R0,R1,NWAR0R1       Save R0,R1 for caller
 004910 41F0 0008            00008 31672                       LA    R15,8
 004914 18D8/9808 D004_            31673                       PEND
 DROP   *,R7
                                   31693
 004922 50E0 D000/9008_      00000 31694              NCTLSETM PROC
 USING  *,R7
 00493C 5000 4260            00260 31733                       ST    R0,UNETMRKL
 004940 18D8/9808 D004_            31734                       PEND
 DROP   *,R7
                                   31754
 00494E 50E0 D000/9008_      00000 31755              NCTLGETVT PROC
 USING  *,R7
 004968 5810 424C            0024C 31794                       L     R1,UNETTOPL         Return top lineno
 00496C 9001 601C            0001C 31795                       STM   R0,R1,NWAR0R1       Save R0,R1 for caller
 004970 41F0 0008            00008 31796                       LA    R15,8
 004974 18D8/9808 D004_            31797                       PEND
 DROP   *,R7
                                   31817
 004982 50E0 D000/9008_      00000 31818              NCTLCLRVT PROC
 USING  *,R7
 00499C 5800 70CC            04A68 31857                       L     R0,=F'-1000'
 0049A0 5000 4254            00254 31858                       ST    R0,UNETFIXL
 0049A4 18D8/9808 D004_            31859                       PEND
 DROP   *,R7
                                   31879
 0049B2 50E0 D000/9008_      00000 31880              NCTLSETVT PROC
 USING  *,R7
 0049CC 5000 4254            00254 31919                       ST    R0,UNETFIXL
 0049D0 18D8/9808 D004_            31920                       PEND
 DROP   *,R7
                                   31940
 0049DE 50E0 D000/9008_      00000 31941              NCTLBAD  PROC
 USING  *,R7
 0049F8 41F0 0004            00004 31980                       LA    R15,4
 0049FC 18D8/9808 D004_            31981                       PEND
 DROP   *,R7
 DROP   NWA,R6                     32001                       DROP  R6
 DROP   UNET,R4                    32008                       DROP  R4
                                   32015
                                   32016                       QLTORG
1PROC     (PROC2193) (12:51) (15MAR04) Routines for System Procedures                                                       Page  116
0Current Usings:  (CP,R11) (CV,R12)
0Loc    Object Code    Addr1 Addr2  Stmt Lv Lineno    Source Statement           (Hibal 5, Asmedit 3.3)  HLASM R4.0  2004/03/15 12.51
+___    ______ ____    _____ _____  ____ __ ______    ______ _________
0                                  32061              ¿þþþþþþþþþþþþþþþþþþþþþþþþþþþþþþþþþþþþþþþþþþþþþþþþþþþþþþþþþþþþþþþþþþþþþÜ
                                   32062              Ÿ                                                                     Ÿ
                                   32063              Ÿ  NET_OPEN(netpno, option-string [,rc])                              Ÿ
                                   32064              Ÿ                                                                     Ÿ
                                   32065              Ÿ    Open a new network path.                                         Ÿ
                                   32066              Ÿ                                                                     Ÿ
                                                      ¾þþþþþþþþþþþþþþþþþþþþþþþþþþþþþþþþþþþþþþþþþþþþþþþþþþþþþþþþþþþþþþþþþþþþþ»
0004ABC 50E0 D000/9008_      00000 32067              PCNETOPN PROC  NWA
 USING  *,R7
 USING  NWA-(4+36),R8
 004AD6 D7FF 8028 8028_00000 00000 32117                       CLEAR NWA
 004AE2 D202 8028 79B0 00000 05486 32125                       MVC   NWA(3),=C'NWA'
 004AE8 58E0 B08C/D2AF_      0008C 32126                       SCPUSH
 004AF6 5000 8034            0000C 32132                       ST    R0,NWANARGS         Number of arguments
 004AFA 5010 8030            00008 32133                       ST    R1,NWAARGP          Arglist ptr
 004AFE 4120 8028            00000 32134                       LA    R2,NWA
 004B02 5020 BCA4            00CA4 32135                       ST    R2,CPCWA            Save NWA ptr
                                   32136
 004B06 4120 79B3/58E0_      05489 32137                       SETARGS '23ISS'           2-3 args: num, str, str
 004B10 4770 718E            04C64 32144                       BNZ   NOPNEXIT
                                   32145
 USING  VNENTRY,R5                 32146                       WITH  (VNENTRY,R5)
                                   32159                       ¿þþþþþþþþþþþþþþþþþþÜ
                                   32160                       Ÿ  Allocate path.  Ÿ
                                   32161                       ¾þþþþþþþþþþþþþþþþþþ»
 004B14 1B44                       32162                       CLEAR R4                  No UNET yet
                                   32166
 004B16 1B00                       32167                       CLEAR R0                  User UNET
 004B18 58E0 794E/0DEE       05424 32171                       VCALL NPATALLO            Allocate a net path
 004B1E 4770 712C            04C02 32175                       BNZ   NOPNRET             Trouble, scram
                                   32176
 004B22 1841                       32177                       LR    R4,R1
 USING  UNET,R4                    32178                       USING UNET,R4
 004B24 94BF 402C/D703_0002C       32187                       CLEAR UNETFNOWAIT,UNETWAIT  Reset wait options
 004B2E D203 41D0 7952 001D0 05428 32199                       MVC   UNETRPORT,=F'23'    Default is TELNET port
 004B34 9680 4163      00163       32200                       SET   UNETFIAC            Assume sending/receiving IACs
                                   32206                       ¿þþþþþþþþþþþþþþþþþþþþþþþþþþÜ
                                   32207                       Ÿ  Scan NET_OPEN options.  Ÿ
                                   32208                       ¾þþþþþþþþþþþþþþþþþþþþþþþþþþ»
 004B38 4150 0150            00150 32209                       LA    R5,ARG2
 004B3C 5A50 8030            00008 32210                       A     R5,NWAARGP
 004B40 4110 5026/4800_      00026 32211                       SCINIT VNSTRLOC,LH:VNSTRLEN
                                   32234
 004B56 5060 D000/41D0_      00000 32235                       XPUSH R6
 004B5E 4160 8028            00000 32238                       LA    R6,NWA
 004B62 5810 B08C/1B00_      0008C 32239                       SCAN  NOPNPRT             Scan NET_OPEN options
 004BB4 4BD0 7988/5860_      0545E 32271                       XPOP  R6
 004BBC 12FF/4740 7120             32274                       IF    (R15,M),NOPNERR
 004BC2 59F0 795E/4780_      05434 32291                       IF    (R15,EQ,4),NOPNERR
 004BCA 59F0 7962/4780_      05438 32311                       IF    (R15,EQ,8),NOPNRET
1PROC     (PROC2193) (12:51) (15MAR04) Routines for System Procedures                                                       Page  117
0Current Usings:  (UNET,R4) (VNENTRY,R5) (*,R7) (NWA-(4+36),R8) (CP,R11) (CV,R12)
0Loc    Object Code    Addr1 Addr2  Stmt Lv Lineno    Source Statement           (Hibal 5, Asmedit 3.3)  HLASM R4.0  2004/03/15 12.51
+___    ______ ____    _____ _____  ____ __ ______    ______ _________
0                                  32331                       ¿þþþþþþþþþþþþþþþþþþÜ
                                   32332                       Ÿ  Open the path.  Ÿ
                                   32333                       ¾þþþþþþþþþþþþþþþþþþ»
 004BD2 41F0 0001/5EF0_      00001 32334                       INCR  R15,CVENCMD         Count the network command
                                   32340
 004BDE 41F0 4000            00000 32341                       LA    R15,UNET
 004BE2 58E0 7966/0DEE       0543C 32342                       VCALL NPATOPEN            Open the net path
 004BE8 4770 711C/D203_      04BF2 32346                       IF    Z,'MVC NWAOPNO,UNETPNO'  Save net path number
 004BF2 47F0 712C            04C02 32363                       B     NOPNRET
                                   32364
 004BF6 4110 798A/4100_      05460 32365              NOPNERR  SETMSG 'INVALID OPTION'
 004BFE 47F0 712C            04C02 32369                       B     NOPNRET
                                   32370                       ¿þþþþþþþþþþþþþþþþþþþþþþþþþþþþþþþþþþþÜ
                                   32371                       Ÿ  Pass back a return code string.  Ÿ
                                   32372                       ¾þþþþþþþþþþþþþþþþþþþþþþþþþþþþþþþþþþþ»
 004C02 D503 796A 8034_05440 0000C 32373              NOPNRET  IF    (NWANARGS,GE,3),BEGIN
 004C0C 4126 02A0/D74F_      002A0 32392  1                      PRETVAL 3,STRING,(R1),(R0)
 DROP   VNENTRY,R5
 USING  VNENTRY,R2
 USING  VNENTRY,R5
 DROP   VNENTRY,R2
 004C2C                            32494                       END
                                   32498                       ¿þþþþþþþþþþþþþþþþþþþþþþþþþþþþþþþþþþþþþþþþþþþþþþþþþþþþÜ
                                   32499                       Ÿ  Return the path number or zero if not allocated.  Ÿ
                                   32500                       ¾þþþþþþþþþþþþþþþþþþþþþþþþþþþþþþþþþþþþþþþþþþþþþþþþþþþþ»
 004C2C 1244/4780 7170             32501                       IF    (R4,NZ),BEGIN       We have a UNET...
 004C32 D603 803C 803C_00014 00014 32515  1                      IF    (NWAOPNO,NZ),EXIT   Connection established, scram
 004C3C 41F0 4000            00000 32534  1                      LA    R15,UNET
 004C40 58E0 796E/0DEE       05444 32535  1                      VCALL NPATCLS             De-allocate the net path number
 004C46                            32539                       END
                                   32543
 004C46 4126 0000/D74F_      00000 32544                       PRETVAL 1,INTEGER,L:NWAOPNO  Return the path number
 DROP   VNENTRY,R5
 USING  VNENTRY,R2
 USING  VNENTRY,R5
 DROP   VNENTRY,R2
                                   32609
 004C62 1BFF                       32610                       CLEAR R15                 A-ok
                                   32614
 004C64 58E0 B08C/4BD0_      0008C 32615              NOPNEXIT SCPOP
 004C72 18D8/9808 D004_            32621                       PEND
 DROP   VNENTRY,R5
 DROP   NWA-(4+36),R8
 DROP   *,R7
                                   32651                       ¿þþþþþþþþþþþþþþþþþþþþþÜ
                                   32652                       Ÿ  NET_OPEN Options.  Ÿ
                                   32653                       ¾þþþþþþþþþþþþþþþþþþþþþ»
 USING  NWA,R6                     32654                       USING NWA,R6
 004C80 C8D6E2E340404040_          32663              NOPNPRT  SCKW  HOST,NOPNHOST,A
 004CA8 D7D6D9E340404040_          32678                       SCKW  PORT,NOPNPORT,(A,P,PI)
 004CD0 C3C8C1D940404040_          32693                       SCKW  CHAR,NOPNCHAR,A
 004CF8 D3C9D5C540404040_          32708                       SCKW  LINE,NOPNLINE,A
 004D20 E5E3C1D440404040_          32723                       SCKW  VTAM,NOPNVTAM,A
 004D48 C9C1C34040404040_          32738                       SCKW  IAC,NOPNIAC
1PROC     (PROC2193) (12:51) (15MAR04) Routines for System Procedures                                                       Page  118
0Current Usings:  (UNET,R4) (NWA,R6) (CP,R11) (CV,R12)
0Loc    Object Code    Addr1 Addr2  Stmt Lv Lineno    Source Statement           (Hibal 5, Asmedit 3.3)  HLASM R4.0  2004/03/15 12.51
+___    ______ ____    _____ _____  ____ __ ______    ______ _________
0004D70 D5D6C9C1C3404040_          32753                       SCKW  NOIAC,NOPNNIAC,A
 004D98 C2E26DC9E26DC4C5_          32768                       SCKW  BS_IS_DEL,NOPNBSD
 004DC0 C2E26DC9E26DC2E2_          32783                       SCKW  BS_IS_BS,NOPNBSBS
 004DE8 E3C5D9D4C9D5C1D3_          32798                       SCKW  TERMINAL,NOPNTERM,A
 004E10 D7D9C9E5C9D3C5C7_          32813                       SCKW  PRIVILEGED,NOPNPRIV,A
 004E38 D7C1E2E2C9E5C540_          32828                       SCKW  PASSIVE,NOPNPASS,A
 004E60 C9D5C4C1E3C14040_          32843                       SCKW  INDATA,NOPNIN,(A,P)
 004E88 D6E4E3C4C1E3C140_          32858                       SCKW  OUTDATA,NOPNOUT,(A,P)
 004EB0 E6C1C9E340404040_          32873                       SCKW  WAIT,NOPNWAIT,(P,I)
 004ED8 D5D6E6C1C9E34040_          32888                       SCKW  NOWAIT,NOPNNWT
 004F00 C1E2C3C9C9F84040_          32903                       SCKW  ASCII8,NOPNASC8
 004F28 D2C5C5D7E3C1C2E2_          32918                       SCKW  KEEPTABS,NOPKEEPT
 004F50 4040404040404040_          32933                       SCKW  ,NOPNBAD
                                   32948              þþþþ
 004F78 50E0 D000/9008_      00000 32949              NOPNNWT  PROC
 USING  *,R7
 004F92 9640 402C      0002C       32988                       SET   UNETFNOWAIT
 004F96 18D8/9808 D004_            32994                       PEND
 DROP   *,R7
                                   33014
 004FA4 50E0 D000/9008_      00000 33015              NOPNWAIT PROC
 USING  *,R7
 004FBE 9640 402C      0002C       33054                       SET   UNETFNOWAIT
 004FC2 1200/4780 7012             33060                       IF    (R0,Z),EXIT
 004FC8 94BF 402C      0002C       33077                       CLEAR UNETFNOWAIT
 004FCC 5000 4070            00070 33084                       ST    R0,UNETWAIT
 004FD0 18D8/9808 D004_            33085                       PEND
 DROP   *,R7
                                   33105
 000000                00000 00200 33106              NOPHOSWA RECORD BEGIN
 000000                            33114  1           NOPHSKIP   DS    CL256
 000100                            33115  1           NOPHSTOP   DS    CL256
 000200                00200 00200 33116                       END
                                   33125
 004FDE 50E0 D000/9008_      00000 33126              NOPNHOST PROC  NOPHOSWA
 USING  *,R7
 USING  NOPHOSWA-(4+36),R8
 004FF8 5810 B08C/1B00_      0008C 33176                       SCANSTR ,                 Scan string including odd chars
 00503E D24F 417C C4D8 0017C 004D8 33205                       MVC   UNETRNAME,CVBLANKS
 005044 18F0                       33206                       LR    R15,R0
 005046 59F0 7458/47D0_      05450 33207                       CEIL  R15,L'UNETRNAME
 005052 06F0/12FF/4740_            33226                       MOVE  R15,UNETRNAME,@R1   Save host name
 00505E 1BFF                       33264                       CLEAR R15
 005060 18D8/9808 D004_            33268                       PEND
 DROP   NOPHOSWA-(4+36),R8
 DROP   *,R7
                                   33293
 00506E 50E0 D000/9008_      00000 33294              NOPNPASS PROC
 USING  *,R7
 005088 1B00                       33333                       CLEAR R0
 00508A 5000 41D0            001D0 33337                       ST    R0,UNETRPORT
 00508E 18D8/9808 D004_            33338                       PEND
 DROP   *,R7
                                   33358
1PROC     (PROC2193) (12:51) (15MAR04) Routines for System Procedures                                                       Page  119
0Current Usings:  (UNET,R4) (NWA,R6) (*,R7) (CP,R11) (CV,R12)
0Loc    Object Code    Addr1 Addr2  Stmt Lv Lineno    Source Statement           (Hibal 5, Asmedit 3.3)  HLASM R4.0  2004/03/15 12.51
+___    ______ ____    _____ _____  ____ __ ______    ______ _________
000509C 50E0 D000/9008_      00000 33359              NOPNPORT PROC
 USING  *,R7
 0050B6 5000 41D0            001D0 33398                       ST    R0,UNETRPORT
 0050BA 5900 739E/4770_      05454 33399                       IF    (R0,EQ,23),'SET UNETFIAC'
 0050C6 7014/47F0 7018_050C6 050C0 33427                       ELSE  'CLEAR UNETFIAC'
 0050CE 18D8/9808 D004_            33450                       PEND
 DROP   *,R7
                                   33470
 0050DC 50E0 D000/9008_      00000 33471              NOPNCHAR PROC
 USING  *,R7
 0050F6 9201 4162      00162       33510                       MVI   UNETTALK,UNETTALKCHAR
 0050FA 18D8/9808 D004_            33511                       PEND
 DROP   *,R7
                                   33531
 005108 50E0 D000/9008_      00000 33532              NOPNLINE PROC
 USING  *,R7
 005122 9202 4162      00162       33571                       MVI   UNETTALK,UNETTALKLINE
 005126 18D8/9808 D004_            33572                       PEND
 DROP   *,R7
                                   33592
 005134 50E0 D000/9008_      00000 33593              NOPNVTAM PROC
 USING  *,R7
 00514E 9203 4162      00162       33632                       MVI   UNETTALK,UNETTALKVTAM
 005152 18D8/9808 D004_            33633                       PEND
 DROP   *,R7
                                   33653
 005160 50E0 D000/9008_      00000 33654              NOPNIAC  PROC
 USING  *,R7
 00517A 9680 4163      00163       33693                       SET   UNETFIAC
 00517E 18D8/9808 D004_            33699                       PEND
 DROP   *,R7
                                   33719
 00518C 50E0 D000/9008_      00000 33720              NOPNNIAC PROC
 USING  *,R7
 0051A6 947F 4163      00163       33759                       CLEAR UNETFIAC
 0051AA 18D8/9808 D004_            33766                       PEND
 DROP   *,R7
                                   33786
 0051B8 50E0 D000/9008_      00000 33787              NOPNBSD  PROC
 USING  *,R7
 0051D2 9610 402D      0002D       33826                       SET   UNETFBSISDEL
 0051D6 18D8/9808 D004_            33832                       PEND
 DROP   *,R7
                                   33852
 0051E4 50E0 D000/9008_      00000 33853              NOPNBSBS PROC
 USING  *,R7
 0051FE 94EF 402D      0002D       33892                       CLEAR UNETFBSISDEL
 005202 18D8/9808 D004_            33899                       PEND
 DROP   *,R7
                                   33919
 005210 50E0 D000/9008_      00000 33920              NOPNTERM PROC
 USING  *,R7
 00522A 5810 B08C/1B00_      0008C 33959                       SCANSTR ,                 Scan terminal type (odd chars OK)
 005270 D21F 41DC C4D8 001DC 004D8 33988                       MVC   UNETTERM,CVBLANKS
1PROC     (PROC2193) (12:51) (15MAR04) Routines for System Procedures                                                       Page  120
0Current Usings:  (UNET,R4) (NWA,R6) (*,R7) (CP,R11) (CV,R12)
0Loc    Object Code    Addr1 Addr2  Stmt Lv Lineno    Source Statement           (Hibal 5, Asmedit 3.3)  HLASM R4.0  2004/03/15 12.51
+___    ______ ____    _____ _____  ____ __ ______    ______ _________
0005276 18F0                       33989                       LR    R15,R0
 005278 59F0 722E/47D0_      05458 33990                       CEIL  R15,L'UNETTERM
 005284 06F0/12FF/4740_            34009                       MOVE  R15,UNETTERM,@R1    Save terminal type
 005290 1BFF                       34047                       CLEAR R15
 005292 18D8/9808 D004_            34051                       PEND
 DROP   *,R7
                                   34071
 0052A0 50E0 D000/9008_      00000 34072              NOPNPRIV PROC
 USING  *,R7
 0052BA 9140 B75A/4710_0075A       34111                       IF    (CPFXAUTH,OR,CPSFSPR),'SET UNETFPRIV'  Priv'd path
 0052CE 18D8/9808 D004_            34151                       PEND
 DROP   *,R7
                                   34171
 0052DC 50E0 D000/9008_      00000 34172              NOPNASC8 PROC
 USING  *,R7
 0052F6 9620 402D      0002D       34211                       SET   UNETFASCII8         Use 8-bit ASCII translation
 0052FA 18D8/9808 D004_            34217                       PEND
 DROP   *,R7
                                   34237
 005308 50E0 D000/9008_      00000 34238              NOPKEEPT PROC
 USING  *,R7
 005322 9620 4165      00165       34277                       SET   UNETFKEEPTABS
 005326 18D8/9808 D004_            34283                       PEND
 DROP   *,R7
                                   34303
 005334 50E0 D000/9008_      00000 34304              NOPNIN   PROC
 USING  *,R7
 00534E 5810 B08C/4111_      0008C 34343                       SCUPTOK R1
 005356 D504 7140 1000_0548E 00000 34347                       IF    (@R1,EQ,'CRLF '),'SET UNETINFCRLF'
 005364 701A/47F0 7028_05364 0535E 34374                       ELSEIF (@R1,EQ,'LF '),'SET UNETINFLF'
 005376 702C/47F0 7038_05376 05370 34410                       ELSE  'SETMSG "INVALID INDATA OPTION"; LA R15,8 '
 005386 18D8/9808 D004_            34431                       PEND
 DROP   *,R7
                                   34451
 005394 50E0 D000/9008_      00000 34452              NOPNOUT  PROC
 USING  *,R7
 0053AE 5810 B08C/4111_      0008C 34491                       SCUPTOK R1
 0053B6 D504 70E0 1000_0548E 00000 34495                       IF    (@R1,EQ,'CRLF '),'SET UNETOUTFCRLF'
 0053C4 701A/47F0 7028_053C4 053BE 34522                       ELSEIF (@R1,EQ,'LF '),'SET UNETOUTFLF'
 0053D6 702C/47F0 7038_053D6 053D0 34558                       ELSE  'SETMSG "INVALID OUTDATA OPTION"; LA R15,8 '
 0053E6 18D8/9808 D004_            34579                       PEND
 DROP   *,R7
                                   34599
 0053F4 50E0 D000/9008_      00000 34600              NOPNBAD  PROC
 USING  *,R7
 00540E 41F0 0004            00004 34639                       LA    R15,4
 005412 18D8/9808 D004_            34640                       PEND
 DROP   *,R7
 DROP   NWA,R6                     34660                       DROP  R6
 DROP   UNET,R4                    34667                       DROP  R4
                                   34674
                                   34675                       QLTORG
1PROC     (PROC2193) (12:51) (15MAR04) Routines for System Procedures                                                       Page  121
0Current Usings:  (CP,R11) (CV,R12)
0Loc    Object Code    Addr1 Addr2  Stmt Lv Lineno    Source Statement           (Hibal 5, Asmedit 3.3)  HLASM R4.0  2004/03/15 12.51
+___    ______ ____    _____ _____  ____ __ ______    ______ _________
0                                  34713              ¿þþþþþþþþþþþþþþþþþþþþþþþþþþþþþþþþþþþþþþþþþþþþþþþþþþþþþþþþþþþþþþþþþþþþþÜ
                                   34714              Ÿ                                                                     Ÿ
                                   34715              Ÿ  NET_READ(netpno, option-string, read-string [,rc])                 Ÿ
                                   34716              Ÿ                                                                     Ÿ
                                   34717              Ÿ    Read data from the network path.                                 Ÿ
                                   34718              Ÿ                                                                     Ÿ
                                                      ¾þþþþþþþþþþþþþþþþþþþþþþþþþþþþþþþþþþþþþþþþþþþþþþþþþþþþþþþþþþþþþþþþþþþþþ»
00054BE 50E0 D000/9008_      00000 34719              PCNETRD  PROC  NWA
 USING  *,R7
 USING  NWA-(4+36),R8
 0054D8 D7FF 8028 8028_00000 00000 34769                       CLEAR NWA
 0054E4 D202 8028 7796 00000 05C6E 34777                       MVC   NWA(3),=C'NWA'
 0054EA 58E0 B08C/D2AF_      0008C 34778                       SCPUSH ,
 0054F8 5000 8034            0000C 34784                       ST    R0,NWANARGS         Number of arguments
 0054FC 5010 8030            00008 34785                       ST    R1,NWAARGP          Arglist ptr
 005500 4120 8028            00000 34786                       LA    R2,NWA
 005504 5020 BCA4            00CA4 34787                       ST    R2,CPCWA
                                   34788
 005508 4120 7774/58E0_      05C4C 34789                       SETARGS '34ISSS'          3-4 args: num, str, str, str
 005512 4770 71A6            0567E 34796                       BNZ   NRDEXIT
                                   34797
 USING  VNENTRY,R5                 34798                       WITH  (VNENTRY,R5)
                                   34811
 005516 4151 0000            00000 34812                       LA    R5,ARG1(R1)
                                   34813
 00551A D503 772C 8034_05C04 0000C 34814                       IF    (NWANARGS,GE,3),BEGIN
 005524 4126 02A0/D74F_      002A0 34832  1                      PRETVAL 3,STRING,0,0      Pre-set null string (neatness)
 DROP   VNENTRY,R5
 USING  VNENTRY,R2
 USING  VNENTRY,R5
 DROP   VNENTRY,R2
 005548                            34934                       END
                                   34938
 005548 5800 5024            00024 34939                       L     R0,VNVALUE          Path number specified
 00554C 58E0 7730/0DEE       05C08 34940                       VCALL NPATGET             Get network path address
 005552 4770 717A            05652 34944                       BNZ   NRDRET              Trouble, scram
 005556 1841                       34945                       LR    R4,R1
 USING  UNET,R4                    34946                       USING UNET,R4
 005558 94BF 402C/D703_0002C       34955                       CLEAR UNETFNOWAIT,UNETWAIT  Reset wait options
                                   34967                       ¿þþþþþþþþþþþþþþþþþþþþþþþþþþÜ
                                   34968                       Ÿ  Scan NET_READ options.  Ÿ
                                   34969                       ¾þþþþþþþþþþþþþþþþþþþþþþþþþþ»
 005562 4150 0150            00150 34970                       LA    R5,ARG2
 005566 5A50 8030            00008 34971                       A     R5,NWAARGP
 00556A 4110 5026/4800_      00026 34972                       SCINIT VNSTRLOC,LH:VNSTRLEN
 005580 5060 D000/41D0_      00000 34995                       XPUSH R6
 005588 4160 8028            00000 34998                       LA    R6,NWA
 00558C 5810 B08C/1B00_      0008C 34999                       SCAN  NRDPRT              Scan NET_READ options
 0055DE 4BD0 777C/5860_      05C54 35031                       XPOP  R6
 0055E6 12FF/4770 716E             35034                       IF    (R15,NZ),NRDERR
1PROC     (PROC2193) (12:51) (15MAR04) Routines for System Procedures                                                       Page  122
0Current Usings:  (UNET,R4) (VNENTRY,R5) (*,R7) (NWA-(4+36),R8) (CP,R11) (CV,R12)
0Loc    Object Code    Addr1 Addr2  Stmt Lv Lineno    Source Statement           (Hibal 5, Asmedit 3.3)  HLASM R4.0  2004/03/15 12.51
+___    ______ ____    _____ _____  ____ __ ______    ______ _________
0                                  35051                       ¿þþþþþþþþþþþþþþþþþþþþþþþþþþþþþþþÜ
                                   35052                       Ÿ  Now read the data (if any).  Ÿ
                                   35053                       ¾þþþþþþþþþþþþþþþþþþþþþþþþþþþþþþþ»
 0055EC 41F0 4000            00000 35054                       LA    R15,UNET
 0055F0 58E0 773C/0DEE       05C14 35055                       VCALL NPATREAD            Get any new data
 0055F6 4770 717A            05652 35059                       BNZ   NRDRET              Trouble, scram
                                   35060                       ¿þþþþþþþþþþþþþþþþþþþþþþþþþþþþÜ
                                   35061                       Ÿ  Return the line of data.  Ÿ
                                   35062                       ¾þþþþþþþþþþþþþþþþþþþþþþþþþþþþ»
 0055FA 50F0 D000/41D0_      00000 35063                       XPUSH R15
 005602 4126 02A0/D74F_      002A0 35066                       PRETVAL 3,STRING,(R1),(R0)  Return the line
 DROP   VNENTRY,R5
 USING  VNENTRY,R2
 USING  VNENTRY,R5
 DROP   VNENTRY,R2
 005622 4BD0 777C/58F0_      05C54 35168                       XPOP  R15
                                   35171
 00562A 4110 777E/4100_      05C56 35172                       SETMSG 'OK'
 005632 59F0 7740/4770_      05C18 35176                       IF    (R15,EQ,4),'SETMSG "OK NONL"'
 005642 47F0 717A            05652 35202                       B     NRDRET
                                   35203
 005646 4110 7780/4100_      05C58 35204              NRDERR   SETMSG 'INVALID OPTION'
 00564E 47F0 717A            05652 35208                       B     NRDRET
                                   35209                       ¿þþþþþþþþþþþþþþþþþþþþþþþþþþþþÜ
                                   35210                       Ÿ  Pass back a return code.  Ÿ
                                   35211                       ¾þþþþþþþþþþþþþþþþþþþþþþþþþþþþ»
 005652 D503 7744 8034_05C1C 0000C 35212              NRDRET   IF    (NWANARGS,GE,4),BEGIN
 00565C 4126 03F0/D74F_      003F0 35231  1                      PRETVAL 4,STRING,(R1),(R0)
 DROP   VNENTRY,R5
 USING  VNENTRY,R2
 USING  VNENTRY,R5
 DROP   VNENTRY,R2
 00567C                            35333                       END
                                   35337
 00567C 1BFF                       35338                       CLEAR R15                 A-ok
                                   35342
 00567E 58E0 B08C/4BD0_      0008C 35343              NRDEXIT  SCPOP ,
 00568C 18D8/9808 D004_            35349                       PEND
 DROP   VNENTRY,R5
 DROP   NWA-(4+36),R8
 DROP   *,R7
                                   35379              *
                                   35380              *  SCAN STUFF
                                   35381              *
 USING  NWA,R6                     35382                       USING NWA,R6
 00569C D5D6E6C1C9E34040_          35391              NRDPRT   SCKW  NOWAIT,NRDNWT
 0056C4 E6C1C9E340404040_          35406                       SCKW  WAIT,NRDWAIT,(P,I)
 0056EC 4040404040404040_          35421                       SCKW  ,NRDBAD
                                   35436
 005714 50E0 D000/9008_      00000 35437              NRDNWT   PROC
 USING  *,R7
 00572E 9640 402C      0002C       35476                       SET   UNETFNOWAIT
 005732 18D8/9808 D004_            35482                       PEND
 DROP   *,R7
1PROC     (PROC2193) (12:51) (15MAR04) Routines for System Procedures                                                       Page  123
0Current Usings:  (UNET,R4) (NWA,R6) (CP,R11) (CV,R12)
0Loc    Object Code    Addr1 Addr2  Stmt Lv Lineno    Source Statement           (Hibal 5, Asmedit 3.3)  HLASM R4.0  2004/03/15 12.51
+___    ______ ____    _____ _____  ____ __ ______    ______ _________
0                                  35502
 005740 50E0 D000/9008_      00000 35503              NRDWAIT  PROC
 USING  *,R7
 00575A 9640 402C      0002C       35542                       SET   UNETFNOWAIT
 00575E 1200/4780 7012             35548                       IF    (R0,Z),EXIT
 005764 94BF 402C      0002C       35565                       CLEAR UNETFNOWAIT
 005768 5000 4070            00070 35572                       ST    R0,UNETWAIT
 00576C 18D8/9808 D004_            35573                       PEND
 DROP   *,R7
                                   35593
 00577A 50E0 D000/9008_      00000 35594              NRDBAD   PROC
 USING  *,R7
 005794 41F0 0004            00004 35633                       LA    R15,4
 005798 18D8/9808 D004_            35634                       PEND
 DROP   *,R7
 DROP   NWA,R6                     35654                       DROP  R6
 DROP   UNET,R4                    35661                       DROP  R4
1PROC     (PROC2193) (12:51) (15MAR04) Routines for System Procedures                                                       Page  124
0Current Usings:  (CP,R11) (CV,R12)
0Loc    Object Code    Addr1 Addr2  Stmt Lv Lineno    Source Statement           (Hibal 5, Asmedit 3.3)  HLASM R4.0  2004/03/15 12.51
+___    ______ ____    _____ _____  ____ __ ______    ______ _________
0                                  35669              ¿þþþþþþþþþþþþþþþþþþþþþþþþþþþþþþþþþþþþþþþþþþþþþþþþþþþþþþþþþþþþþþþþþþþþþÜ
                                   35670              Ÿ                                                                     Ÿ
                                   35671              Ÿ  NET_READFILE(netpno [,option-string] [,count] [,rc])               Ÿ
                                   35672              Ÿ                                                                     Ÿ
                                   35673              Ÿ    Read data from the user path.                                    Ÿ
                                   35674              Ÿ                                                                     Ÿ
                                                      ¾þþþþþþþþþþþþþþþþþþþþþþþþþþþþþþþþþþþþþþþþþþþþþþþþþþþþþþþþþþþþþþþþþþþþþ»
00057A6 50E0 D000/9008_      00000 35675              PCNETRDF PROC  NWA
 USING  *,R7
 USING  NWA-(4+36),R8
 0057C0 D7FF 8028 8028_00000 00000 35725                       CLEAR NWA
 0057CC D202 8028 74AE 00000 05C6E 35733                       MVC   NWA(3),=C'NWA'
 0057D2 58E0 B08C/D2AF_      0008C 35734                       SCPUSH ,
 0057E0 5000 8034            0000C 35740                       ST    R0,NWANARGS         Number of arguments
 0057E4 5010 8030            00008 35741                       ST    R1,NWAARGP          Arglist ptr
 0057E8 4120 8028            00000 35742                       LA    R2,NWA
 0057EC 5020 BCA4            00CA4 35743                       ST    R2,CPCWA
                                   35744
 0057F0 4120 74A8/58E0_      05C68 35745                       SETARGS '14ISIS'          1-4 args: num, str, num, str
 0057FA 4770 71F2            059B2 35752                       BNZ   NRFEXIT             Arglist error, scram
                                   35753
 0057FE 5000 8034            0000C 35754                       ST    R0,NWANARGS         Save number of args specified
 USING  VNENTRY,R5                 35755                       WITH  (VNENTRY,R5)
                                   35768
 005802 4151 0000            00000 35769                       LA    R5,ARG1(R1)
                                   35770
 005806 5800 5024            00024 35771                       L     R0,VNVALUE          Path number specified
 00580A 58E0 7448/0DEE       05C08 35772                       VCALL NPATGET             Get netpath ptr
 005810 4770 71A0            05960 35776                       BNZ   NRFRET              Trouble, scram
 005814 1841                       35777                       LR    R4,R1
 USING  UNET,R4                    35778                       USING UNET,R4
 005816 94BF 402C/D703_0002C       35787                       CLEAR UNETFNOWAIT,UNETWAIT  Reset wait options
                                   35799                       ¿þþþþþþþþþþþþþþþþþþþþþþþþþþþþþþÜ
                                   35800                       Ÿ  Scan NET_READFILE options.  Ÿ
                                   35801                       ¾þþþþþþþþþþþþþþþþþþþþþþþþþþþþþþ»
 005820 58E0 7460/0DEE       05C20 35802                       VCALL ENDLNO              Get END lineno
 005826 5000 8058            00030 35806                       ST    R0,NWALNO           Set default starting point
                                   35807
 00582A 1B00/1B11                  35808                       CLEAR R0,R1
 00582E D503 7464 8034_05C24 0000C 35814                       IF    (NWANARGS,GE,2),BEGIN  We have an option string...
 005838 4150 0150            00150 35832  1                      LA    R5,ARG2
 00583C 5A50 8030            00008 35833  1                      A     R5,NWAARGP
 005840 4110 5026/4800_      00026 35834  1                      SETMSG VNSTRLOC,LH:VNSTRLEN
 005848                            35847                       END
                                   35851
 005848 58E0 B08C/501E_      0008C 35852                       SCINIT (R1),(R0)
 005856 5060 D000/41D0_      00000 35872                       XPUSH R6
 00585E 4160 8028            00000 35875                       LA    R6,NWA
 005862 5810 B08C/1B00_      0008C 35876                       SCAN  NRFPRT              Scan NET_READFILE options
 0058B4 4BD0 7494/5860_      05C54 35908                       XPOP  R6
 0058BC 12FF/4770 7194             35911                       IF    (R15,NZ),NRFERR
1PROC     (PROC2193) (12:51) (15MAR04) Routines for System Procedures                                                       Page  125
0Current Usings:  (UNET,R4) (VNENTRY,R5) (*,R7) (NWA-(4+36),R8) (CP,R11) (CV,R12)
0Loc    Object Code    Addr1 Addr2  Stmt Lv Lineno    Source Statement           (Hibal 5, Asmedit 3.3)  HLASM R4.0  2004/03/15 12.51
+___    ______ ____    _____ _____  ____ __ ______    ______ _________
0                                  35928                     ¿þþþþþþþþþþþþþþþþþþþþþþþþþþþþþþþþþþþþþþþþþþþþþþþþþþþþþþþþþþþþþþþþþÜ
                                   35929                     Ÿ  Set up seg buffer so that anything written to this seg         Ÿ
                                   35930                     Ÿ    buffer will get added to the appropriate spot in the Active  Ÿ
                                   35931                     Ÿ    file.                                                        Ÿ
                                   35932                     ¾þþþþþþþþþþþþþþþþþþþþþþþþþþþþþþþþþþþþþþþþþþþþþþþþþþþþþþþþþþþþþþþþþ»
 0058C2 4110 812C/4100_      00104 35933                       SEGINIT NWALINE,,NWASG,RTN=NRFSEG
 0058E2 41F0 8028            00000 35975                       LA    R15,NWA
 0058E6 50F0 8120            000F8 35976                       ST    R15,NWASGUSR        Set SEGCBUSR for SEG co-routine
                                   35977                       ¿þþþþþþþþþþþþþþþþþþþþþþþþþþþþþþþÜ
                                   35978                       Ÿ  Now read the data (if any).  Ÿ
                                   35979                       ¾þþþþþþþþþþþþþþþþþþþþþþþþþþþþþþþ»
 0058EA                            35980                       LOOP  BEGIN
 0058EA 41F0 4000            00000 35986  1                      LA    R15,UNET
 0058EE 58E0 7454/0DEE       05C14 35987  1                      VCALL NPATREAD            Get any new data
 0058F4 4770 71A0            05960 35991  1                      BNZ   NRFRET              Error of some sort, scram
                                   35992  1                      ¿þþþþþþþþþþþþþþþþþþþþþþþþþþþÜ
                                   35993  1                      Ÿ  Add line to seg buffer.  Ÿ
                                   35994  1                      ¾þþþþþþþþþþþþþþþþþþþþþþþþþþþ»
 0058F8 41F0 80E8/58E0_      000C0 35995  1                      SEGT  (R1),(R0)
                                   36019  1                      ¿þþþþþþþþþþþþþþþþþþþþþþþþþþþþþþþþþþþþþþþþþþþþþþþÜ
                                   36020  1                      Ÿ  Now see if it is an "end-of-file" sequence.  Ÿ
                                   36021  1                      ¾þþþþþþþþþþþþþþþþþþþþþþþþþþþþþþþþþþþþþþþþþþþþþþþ»
 005902 9140 802B/47E0_00003       36022  1                      IF    NWAFEOF,BEGIN       Check for end of file line...
 00590A 48F0 8064            0003C 36037  2                        LH    R15,NWAEOFL         Length of eof chars
 00590E 59F0 80F4/4770_      000CC 36038  2                        IF    (NWASGLENF,NE,R15),EXIT  No match possible, forget it
                                   36058  2
 005916 12FF/4780 716C             36059  2                        IF    (R15,Z),NRFEOFMA    Eof on null line
                                   36076  2
 00591C 06F0/12FF/4740_            36077  2                        CMPR  R15,NWAEOF,NWALINE  End of file?
 005928 4770 7178            05938 36115  2                        IF    EQ,BEGIN            Yes...
 00592C 4110 74B8/4100_      05C78 36126  3           NRFEOFMA       SETMSG 'EOF'
 005934 47F0 71A0            05960 36130  3                          B     NRFRET
 005938                            36131  2                        END
 005938                            36135  1                      END
                                   36139  1                      ¿þþþþþþþþþþþþþþþþþþþþþþþþþþþþþþÜ
                                   36140  1                      Ÿ  Write line to Active file.  Ÿ
                                   36141  1                      ¾þþþþþþþþþþþþþþþþþþþþþþþþþþþþþþ»
 005938 1B00/41F0 80E8_            36142  1                      SEGWR ,                   Write the line
 005944 4780 7190            05950 36166  1                      IF    NZ,BEGIN            Trouble...
 005948 9801 8124            000FC 36177  2                        LM    R0,R1,NWASGRCP      Get return code string ptrs
 00594C 47F0 71A0            05960 36178  2                        B     NRFRET              Scram
 005950                            36179  1                      END
 005950 47F0 712A            058EA 36183                       END
                                   36188
 005954 4110 7498/4100_      05C58 36189              NRFERR   SETMSG 'INVALID OPTION'
 00595C 47F0 71A0            05960 36193                       B     NRFRET
                                   36194                       ¿þþþþþþþþþþþþþþþþþþþþþþþþþþþþÜ
                                   36195                       Ÿ  Pass back a return code.  Ÿ
                                   36196                       ¾þþþþþþþþþþþþþþþþþþþþþþþþþþþþ»
 005960 D503 745C 8034_05C1C 0000C 36197              NRFRET   IF    (NWANARGS,GE,4),BEGIN
 00596A 4126 03F0/D74F_      003F0 36216  1                      PRETVAL 4,STRING,(R1),(R0)
 DROP   VNENTRY,R5
 USING  VNENTRY,R2
 USING  VNENTRY,R5
1PROC     (PROC2193) (12:51) (15MAR04) Routines for System Procedures                                                       Page  126
0Current Usings:  (UNET,R4) (VNENTRY,R5) (*,R7) (NWA-(4+36),R8) (CP,R11) (CV,R12)
0Loc    Object Code    Addr1 Addr2  Stmt Lv Lineno    Source Statement           (Hibal 5, Asmedit 3.3)  HLASM R4.0  2004/03/15 12.51
+___    ______ ____    _____ _____  ____ __ ______    ______ _________
0DROP   VNENTRY,R2
 00598A                            36318                       END
                                   36322                       ¿þþþþþþþþþþþþþþþþþþþþþþþþþþþþþþþþþþþþþþþþþþþþÜ
                                   36323                       Ÿ  Also pass back the number of lines read.  Ÿ
                                   36324                       ¾þþþþþþþþþþþþþþþþþþþþþþþþþþþþþþþþþþþþþþþþþþþþ»
 00598A D503 7444 8034_05C04 0000C 36325                       IF    (NWANARGS,GE,3),BEGIN
 005994 4126 02A0/D74F_      002A0 36343  1                      PRETVAL 3,INTEGER,L:NWACOUNT
 DROP   VNENTRY,R5
 USING  VNENTRY,R2
 USING  VNENTRY,R5
 DROP   VNENTRY,R2
 0059B0                            36408                       END
                                   36412
 0059B0 1BFF                       36413                       CLEAR R15                 A-ok
                                   36417
 0059B2 58E0 B08C/4BD0_      0008C 36418              NRFEXIT  SCPOP ,
 0059C0 18D8/9808 D004_            36424                       PEND
 DROP   VNENTRY,R5
 DROP   NWA-(4+36),R8
 DROP   *,R7
                                   36454                       ¿þþþþþþþþþþþþþþþþþþþþþþþþþÜ
                                   36455                       Ÿ  NET_READFILE Options.  Ÿ
                                   36456                       ¾þþþþþþþþþþþþþþþþþþþþþþþþþ»
 USING  NWA,R6                     36457                       USING NWA,R6
 0059D0 D5D6E6C1C9E34040_          36466              NRFPRT   SCKW  NOWAIT,NRFNWT
 0059F8 E6C1C9E340404040_          36481                       SCKW  WAIT,NRFWAIT,(P,I)
 005A20 C3D6E4D5E3404040_          36496                       SCKW  COUNT,NRFREMCT,(P,PI)
 005A48 E2E3C1D9E3404040_          36511                       SCKW  START,NRFSTART,(P,LN)
 005A70 C5D6C64040404040_          36526                       SCKW  EOF,NRFEOF,P
 005A98 4040404040404040_          36541                       SCKW  ,NRFBAD
                                   36556
 005AC0 50E0 D000/9008_      00000 36557              NRFNWT   PROC
 USING  *,R7
 005ADA 9640 402C      0002C       36596                       SET   UNETFNOWAIT
 005ADE 18D8/9808 D004_            36602                       PEND
 DROP   *,R7
                                   36622
 005AEC 50E0 D000/9008_      00000 36623              NRFWAIT  PROC
 USING  *,R7
 005B06 9640 402C      0002C       36662                       SET   UNETFNOWAIT
 005B0A 1200/4780 7012             36668                       IF    (R0,Z),EXIT
 005B10 94BF 402C      0002C       36685                       CLEAR UNETFNOWAIT
 005B14 5000 4070            00070 36692                       ST    R0,UNETWAIT
 005B18 18D8/9808 D004_            36693                       PEND
 DROP   *,R7
                                   36713
 005B26 50E0 D000/9008_      00000 36714              NRFREMCT PROC
 USING  *,R7
 005B40 5000 6034            00034 36753                       ST    R0,NWAREMCT
 005B44 18D8/9808 D004_            36754                       PEND
 DROP   *,R7
                                   36774
 005B52 50E0 D000/9008_      00000 36775              NRFSTART PROC
 USING  *,R7
1PROC     (PROC2193) (12:51) (15MAR04) Routines for System Procedures                                                       Page  127
0Current Usings:  (UNET,R4) (NWA,R6) (*,R7) (CP,R11) (CV,R12)
0Loc    Object Code    Addr1 Addr2  Stmt Lv Lineno    Source Statement           (Hibal 5, Asmedit 3.3)  HLASM R4.0  2004/03/15 12.51
+___    ______ ____    _____ _____  ____ __ ______    ______ _________
0005B6C 5000 6030            00030 36814                       ST    R0,NWALNO
 005B70 18D8/9808 D004_            36815                       PEND
 DROP   *,R7
                                   36835
 005B7E 50E0 D000/9008_      00000 36836              NRFEOF   PROC
 USING  *,R7
 005B98 9640 6003      00003       36875                       SET   NWAFEOF
 005B9C 58F0 B08C/4110_      0008C 36881                       SCDQUOTE NWAEOF,L'NWAEOF
 005BAE 5900 70B0/47D0_      05C48 36904                       CEIL  R0,L'NWAEOF
 005BBA 4000 603C            0003C 36923                       STH   R0,NWAEOFL
 005BBE 1BFF                       36924                       CLEAR R15
 005BC0 18D8/9808 D004_            36928                       PEND
 DROP   *,R7
                                   36948
 005BCE 50E0 D000/9008_      00000 36949              NRFBAD   PROC
 USING  *,R7
 005BE8 41F0 0004            00004 36988                       LA    R15,4
 005BEC 18D8/9808 D004_            36989                       PEND
 DROP   *,R7
 DROP   NWA,R6                     37009                       DROP  R6
 DROP   UNET,R4                    37016                       DROP  R4
                                   37023
                                   37024                       QLTORG
1PROC     (PROC2193) (12:51) (15MAR04) Routines for System Procedures                                                       Page  128
0Current Usings:  (CP,R11) (CV,R12)
0Loc    Object Code    Addr1 Addr2  Stmt Lv Lineno    Source Statement           (Hibal 5, Asmedit 3.3)  HLASM R4.0  2004/03/15 12.51
+___    ______ ____    _____ _____  ____ __ ______    ______ _________
0                                  37066              ¿þþþþþþþþþþþþþþþþþþþþþþþþþþþþþþþþþþþþþþþþþþþþþþþþþþþþþþþþþþþþþþþþþþþþþÜ
                                   37067              Ÿ                                                                     Ÿ
                                   37068              Ÿ  NRFSEG -- Local seg routine to add a line to the end of the        Ÿ
                                   37069              Ÿ    Active file.  This routine is called as a co-routine by          Ÿ
                                   37070              Ÿ    the SEG routines.                                                Ÿ
                                   37071              Ÿ                                                                     Ÿ
                                   37072              Ÿ    On entry:                                                        Ÿ
                                   37073              Ÿ      R15 - SEGCB ptr                                                Ÿ
                                   37074              Ÿ                                                                     Ÿ
                                                      ¾þþþþþþþþþþþþþþþþþþþþþþþþþþþþþþþþþþþþþþþþþþþþþþþþþþþþþþþþþþþþþþþþþþþþþ»
0005C9A 50E0 D000/9008_      00000 37075              NRFSEG   PROC
 USING  *,R7
 005CB4 185F                       37114                       LR    R5,R15
 USING  SEGCB,R5                   37115                       WITH  (SEGCB,R5)
 005CB6 5860 5038            00038 37128                       L     R6,SEGCBUSR
 USING  NWA,R6                     37129                       WITH  (NWA,R6)
                                   37142                       ¿þþþþþþþþþþþþþþþþþþþþþþþþþþþþþþþþþþþþþþþþþÜ
                                   37143                       Ÿ  Add the data line to the Active file.  Ÿ
                                   37144                       ¾þþþþþþþþþþþþþþþþþþþþþþþþþþþþþþþþþþþþþþþþþ»
 005CBA 9502 5000/4780_00000       37145                       IF    (SEGCBWR,OR,SEGCBOVF),BEGIN  Segwr or overflow...
 005CCA 58F0 6030            00030 37174  1                      L     R15,NWALNO
 005CCE 55F0 C15C/47D0_      0015C 37175  1                      IF    (R15,LGT,CVMAXLNO),BEGIN  Invalid lineno...
 005CD6 4110 7F60/4100_      06C14 37192  2                        SETMSG 'INVALID LINE-NUMBER'
 005CDE 9001 60FC            000FC 37196  2                        STM   R0,R1,NWASGRCP      Save return code string ptrs
 005CE2 41F0 0004            00004 37197  2                        LA    R15,4               Bad rc
 005CE6                            37198  1                      END
                                   37202  1
 005CE6 7036/47F0 7086 05CE6 05CD4 37203  1                      ELSE  BEGIN               Valid lineno...
 005CEA 58E0 7EBC/0DEE       06B70 37214  2                        VCALL PUTLINE             Add response line
 005CF0 41F0 0001/5EF0_      00001 37218  2                        INCR  R15,NWACOUNT        Number of lines written so far
 005CFC 1BFF                       37224  2                        CLEAR R15
                                   37228  2                        ¿þþþþþþþþþþþþþþþþþþþþþþþþþþþþþþþþþþþþþþþþþþþþþþþþþþþþþþþþþÜ
                                   37229  2                        Ÿ  If a COUNT was specified see if we have exhausted it.  Ÿ
                                   37230  2                        ¾þþþþþþþþþþþþþþþþþþþþþþþþþþþþþþþþþþþþþþþþþþþþþþþþþþþþþþþþþ»
 005CFE D603 6034 6034_00034 00034 37231  2                        IF    (NWAREMCT,NZ),BEGIN
 005D08 58F0 6034/06F0_      00034 37247  3                          DECR  R15,NWAREMCT        One less line now
 005D12 12FF/47B0 7074             37252  3                          IF    (R15,NEG),BEGIN
 005D18 4110 7F73/4100_      06C27 37266  4                            SETMSG 'COUNT EXHAUSTED'
 005D20 9001 60FC            000FC 37270  4                            STM   R0,R1,NWASGRCP      Save return code string ptrs
 005D24 41F0 0004            00004 37271  4                            LA    R15,4               Bad rc
 005D28                            37272  3                          END
 005D28                            37276  2                        END
                                   37280  2
 005D28 7078/47F0 7086 05D28 05D06 37281  2                        ELSE  BEGIN
 005D2C 58F0 6030            00030 37292  3                          L     R15,NWALNO
 005D30 5AF0 B738            00738 37293  3                          A     R15,CPDELTA
 005D34 50F0 6030            00030 37294  3                          ST    R15,NWALNO          Update working lineno
 005D38 1BFF                       37295  3                          CLEAR R15                 Good rc
 005D3A                            37299  2                        END
 005D3A                            37303  1                      END
 005D3A                            37307                       END
                                   37311
 005D3A 18D8/9808 D004_            37312                       PEND
1PROC     (PROC2193) (12:51) (15MAR04) Routines for System Procedures                                                       Page  129
0Current Usings:  (CP,R11) (CV,R12)
0Loc    Object Code    Addr1 Addr2  Stmt Lv Lineno    Source Statement           (Hibal 5, Asmedit 3.3)  HLASM R4.0  2004/03/15 12.51
+___    ______ ____    _____ _____  ____ __ ______    ______ _________
0DROP   NWA,R6
 DROP   SEGCB,R5
 DROP   *,R7
1PROC     (PROC2193) (12:51) (15MAR04) Routines for System Procedures                                                       Page  130
0Current Usings:  (CP,R11) (CV,R12)
0Loc    Object Code    Addr1 Addr2  Stmt Lv Lineno    Source Statement           (Hibal 5, Asmedit 3.3)  HLASM R4.0  2004/03/15 12.51
+___    ______ ____    _____ _____  ____ __ ______    ______ _________
0                                  37343              ¿þþþþþþþþþþþþþþþþþþþþþþþþþþþþþþþþþþþþþþþþþþþþþþþþþþþþþþþþþþþþþþþþþþþþþÜ
                                   37344              Ÿ                                                                     Ÿ
                                   37345              Ÿ  NET_STATUS(netpno, option-string [,rc])                            Ÿ
                                   37346              Ÿ                                                                     Ÿ
                                   37347              Ÿ    Get current status of network path.                              Ÿ
                                   37348              Ÿ                                                                     Ÿ
                                                      ¾þþþþþþþþþþþþþþþþþþþþþþþþþþþþþþþþþþþþþþþþþþþþþþþþþþþþþþþþþþþþþþþþþþþþþ»
0005D48 50E0 D000/9008_      00000 37349              PCNETST  PROC  NWA
 USING  *,R7
 USING  NWA-(4+36),R8
 005D62 D7FF 8028 8028_00000 00000 37399                       CLEAR NWA
 005D6E D202 8028 7ED4 00000 06C36 37407                       MVC   NWA(3),=C'NWA'
 005D74 58E0 B08C/D2AF_      0008C 37408                       SCPUSH ,
 005D82 5000 8034            0000C 37414                       ST    R0,NWANARGS         Number of arguments
 005D86 5010 8030            00008 37415                       ST    R1,NWAARGP          Arglist ptr
 005D8A 4120 8028            00000 37416                       LA    R2,NWA
 005D8E 5020 BCA4            00CA4 37417                       ST    R2,CPCWA
                                   37418
 005D92 4120 7E82/58E0_      06BE4 37419                       SETARGS '23ISSS'          2-3 args: num, str, str
 005D9C 4770 712A            05E8C 37426                       BNZ   NSTEXIT
                                   37427
 USING  VNENTRY,R5                 37428                       WITH  (VNENTRY,R5)
                                   37441
 005DA0 4151 0000            00000 37442                       LA    R5,ARG1(R1)
 005DA4 5800 5024            00024 37443                       L     R0,VNVALUE          Path number specified
 005DA8 58E0 7E16/0DEE       06B78 37444                       VCALL NPATGET             Get netpath ptr
 005DAE 4770 70FE            05E60 37448                       BNZ   NSTRET              Trouble, scram
                                   37449
 005DB2 1841                       37450                       LR    R4,R1
 USING  UNET,R4                    37451                       USING UNET,R4
 005DB4 94BF 402C/D703_0002C       37460                       CLEAR UNETFNOWAIT,UNETWAIT  Reset wait options
                                   37472
 005DBE 4150 0150            00150 37473                       LA    R5,ARG2
 005DC2 5A50 8030            00008 37474                       A     R5,NWAARGP
 005DC6 4110 5026/4800_      00026 37475                       SCINIT VNSTRLOC,LH:VNSTRLEN
 005DDC 5060 D000/41D0_      00000 37498                       XPUSH R6
 005DE4 4160 8028            00000 37501                       LA    R6,NWA
 005DE8 5810 B08C/1B00_      0008C 37502                       SCAN  NSTPRT              Scan NET_STATUS options
 005E3A 4BD0 7E8A/5860_      06BEC 37534                       XPOP  R6
 005E42 12FF/4770 70F2             37537                       IF    (R15,NZ),NSTERR
                                   37554                       ¿þþþþþþþþþþþþþþþþþþþþþþþþþþþþþþþþþþþþþÜ
                                   37555                       Ÿ  Do we have buffered text waiting.  Ÿ
                                   37556                       ¾þþþþþþþþþþþþþþþþþþþþþþþþþþþþþþþþþþþþþ»
 005E48 4110 7ED7/4100_      06C39 37557                       SETMSG 'NOT YET'           !!!!!!!!!!
 005E50 47F0 70FE            05E60 37561                       B     NSTRET
                                   37562
 005E54 4110 7E8C/4100_      06BEE 37563              NSTERR   SETMSG 'INVALID OPTION'
 005E5C 47F0 70FE            05E60 37567                       B     NSTRET
1PROC     (PROC2193) (12:51) (15MAR04) Routines for System Procedures                                                       Page  131
0Current Usings:  (UNET,R4) (VNENTRY,R5) (*,R7) (NWA-(4+36),R8) (CP,R11) (CV,R12)
0Loc    Object Code    Addr1 Addr2  Stmt Lv Lineno    Source Statement           (Hibal 5, Asmedit 3.3)  HLASM R4.0  2004/03/15 12.51
+___    ______ ____    _____ _____  ____ __ ______    ______ _________
0                                  37568                       ¿þþþþþþþþþþþþþþþþþþþþþþþþþþþþÜ
                                   37569                       Ÿ  Pass back a return code.  Ÿ
                                   37570                       ¾þþþþþþþþþþþþþþþþþþþþþþþþþþþþ»
 005E60 D503 7E22 8034_06B84 0000C 37571              NSTRET   IF    (NWANARGS,GE,3),BEGIN
 005E6A 4126 02A0/D74F_      002A0 37590  1                      PRETVAL 3,STRING,(R1),(R0)
 DROP   VNENTRY,R5
 USING  VNENTRY,R2
 USING  VNENTRY,R5
 DROP   VNENTRY,R2
 005E8A                            37692                       END
                                   37696
 005E8A 1BFF                       37697                       CLEAR R15                 A-ok
                                   37701
 005E8C 58E0 B08C/4BD0_      0008C 37702              NSTEXIT  SCPOP ,
 005E9A 18D8/9808 D004_            37708                       PEND
 DROP   VNENTRY,R5
 DROP   NWA-(4+36),R8
 DROP   *,R7
                                   37738              *
                                   37739              *  SCAN STUFF
                                   37740              *
 USING  NWA,R6                     37741                       USING NWA,R6
 005EA8 4040404040404040_          37750              NSTPRT   SCKW  ,NSTBAD
                                   37765
 005ED0 50E0 D000/9008_      00000 37766              NSTBAD   PROC
 USING  *,R7
 005EEA 41F0 0004            00004 37805                       LA    R15,4
 005EEE 18D8/9808 D004_            37806                       PEND
 DROP   *,R7
 DROP   NWA,R6                     37826                       DROP  R6
 DROP   UNET,R4                    37833                       DROP  R4
1PROC     (PROC2193) (12:51) (15MAR04) Routines for System Procedures                                                       Page  132
0Current Usings:  (CP,R11) (CV,R12)
0Loc    Object Code    Addr1 Addr2  Stmt Lv Lineno    Source Statement           (Hibal 5, Asmedit 3.3)  HLASM R4.0  2004/03/15 12.51
+___    ______ ____    _____ _____  ____ __ ______    ______ _________
0                                  37841              ¿þþþþþþþþþþþþþþþþþþþþþþþþþþþþþþþþþþþþþþþþþþþþþþþþþþþþþþþþþþþþþþþþþþþþþÜ
                                   37842              Ÿ                                                                     Ÿ
                                   37843              Ÿ  NET_TALK(netpno, option-string [,actno] [,rc])                     Ÿ
                                   37844              Ÿ                                                                     Ÿ
                                   37845              Ÿ    Connect user terminal to network path.                           Ÿ
                                   37846              Ÿ                                                                     Ÿ
                                                      ¾þþþþþþþþþþþþþþþþþþþþþþþþþþþþþþþþþþþþþþþþþþþþþþþþþþþþþþþþþþþþþþþþþþþþþ»
0005EFC 50E0 D000/9008_      00000 37847              PCNETTK  PROC  NWA
 USING  *,R7
 USING  NWA-(4+36),R8
 005F16 D7FF 8028 8028_00000 00000 37897                       CLEAR NWA
 005F22 D202 8028 7D20 00000 06C36 37905                       MVC   NWA(3),=C'NWA'
 005F28 58E0 B08C/D2AF_      0008C 37906                       SCPUSH ,
 005F36 5000 8034            0000C 37912                       ST    R0,NWANARGS         Number of arguments
 005F3A 5010 8030            00008 37913                       ST    R1,NWAARGP          Arglist ptr
 005F3E 4120 8028            00000 37914                       LA    R2,NWA
 005F42 5020 BCA4            00CA4 37915                       ST    R2,CPCWA
                                   37916
 005F46 4120 7CE8/58E0_      06BFE 37917                       SETARGS '14ISIS'          1-4 args: num, str, num, str
 005F50 4770 7186            0609C 37924                       BNZ   NTKEXIT
                                   37925
 USING  VNENTRY,R5                 37926                       WITH  (VNENTRY,R5)
                                   37939
 005F54 4151 0000            00000 37940                       LA    R5,ARG1(R1)
 005F58 5800 5024            00024 37941                       L     R0,VNVALUE          Path number specified
 005F5C 58E0 7C62/0DEE       06B78 37942                       VCALL NPATGET             Get netpath ptr
 005F62 4770 715A            06070 37946                       BNZ   NTKRET              Trouble, scram
 005F66 1841                       37947                       LR    R4,R1
 USING  UNET,R4                    37948                       USING UNET,R4
 005F68 94BF 402C/D703_0002C       37957                       CLEAR UNETFNOWAIT,UNETWAIT  Reset wait options
                                   37969                       ¿þþþþþþþþþþþþþþþþþþþþþþþþþþÜ
                                   37970                       Ÿ  Scan NET_TALK options.  Ÿ
                                   37971                       ¾þþþþþþþþþþþþþþþþþþþþþþþþþþ»
 005F72 D503 7C72 8034_06B88 0000C 37972                       IF    (NWANARGS,GE,2),BEGIN  Scan options...
 005F7C 4150 0150            00150 37990  1                      LA    R5,ARG2
 005F80 5A50 8030            00008 37991  1                      A     R5,NWAARGP
 005F84 4110 5026/4800_      00026 37992  1                      SCINIT VNSTRLOC,LH:VNSTRLEN
 005F9A 5060 D000/41D0_      00000 38015  1                      XPUSH R6
 005FA2 4160 8028            00000 38018  1                      LA    R6,NWA
 005FA6 5810 B08C/1B00_      0008C 38019  1                      SCAN  NTKPRT              Scan NET_TALK options
 005FF8 4BD0 7CD6/5860_      06BEC 38051  1                      XPOP  R6
 006000 59F0 7C7A/4780_      06B90 38054  1                      IF    (R15,EQ,8),NTKERR2
 006008 12FF/4770 7142             38074  1                      IF    (R15,NZ),NTKERR
 00600E                            38091                       END
                                   38095                       ¿þþþþþþþþþþþþþþþþþþþþþþþþþþþþþþþþþþþþþþþþþÜ
                                   38096                       Ÿ  Do combined terminal and network I/O.  Ÿ
                                   38097                       ¾þþþþþþþþþþþþþþþþþþþþþþþþþþþþþþþþþþþþþþþþþ»
 00600E 1B00                       38098                       CLEAR R0                  Assume no working active file
 006010 D503 7C6E 8034_06B84 0000C 38102                       IF    (NWANARGS,GE,3),BEGIN  We have an actno...
 00601A 4150 02A0            002A0 38120  1                      LA    R5,ARG3
 00601E 5A50 8030            00008 38121  1                      A     R5,NWAARGP
 006022 5800 5024            00024 38122  1                      L     R0,VNVALUE          Working active file number
 006026                            38123                       END
1PROC     (PROC2193) (12:51) (15MAR04) Routines for System Procedures                                                       Page  133
0Current Usings:  (UNET,R4) (VNENTRY,R5) (*,R7) (NWA-(4+36),R8) (CP,R11) (CV,R12)
0Loc    Object Code    Addr1 Addr2  Stmt Lv Lineno    Source Statement           (Hibal 5, Asmedit 3.3)  HLASM R4.0  2004/03/15 12.51
+___    ______ ____    _____ _____  ____ __ ______    ______ _________
0                                  38127
 006026 D203 8054 7C7E 0002C 06B94 38128                       MVC   NWAOPT,=C'....'     Standard NET_TALK options
 00602C 9108 802B/47E0_00003       38129                       IF    NWAFNPR,'MVI NWAOPT,C"N"'  Don't re-prompt
 006038 9500 802C/4780_00004       38150                       IF    (NWAATCHR,NZ),'MVC NWAOPT+3(1),NWAATCHR'  Attn char
 006046 4110 8054            0002C 38172                       LA    R1,NWAOPT           Options
 00604A 41F0 4000            00000 38173                       LA    R15,UNET
 00604E 58E0 7C82/0DEE       06B98 38174                       VCALL NPATTALK            Do the talking
 006054 47F0 715A            06070 38178                       B     NTKRET
                                   38179
 006058 4110 7CD8/4100_      06BEE 38180              NTKERR   SETMSG 'INVALID OPTION'
 006060 47F0 715A            06070 38184                       B     NTKRET
                                   38185
 006064 4110 7D2A/4100_      06C40 38186              NTKERR2  SETMSG 'BAD HEX DIGITS FOR ATTNCHAR'
 00606C 47F0 715A            06070 38190                       B     NTKRET
                                   38191                       ¿þþþþþþþþþþþþþþþþþþþþþþþþþþþþÜ
                                   38192                       Ÿ  Pass back a return code.  Ÿ
                                   38193                       ¾þþþþþþþþþþþþþþþþþþþþþþþþþþþþ»
 006070 D503 7C86 8034_06B9C 0000C 38194              NTKRET   IF    (NWANARGS,GE,4),BEGIN  Return code...
 00607A 4126 03F0/D74F_      003F0 38213  1                      PRETVAL 4,STRING,(R1),(R0)
 DROP   VNENTRY,R5
 USING  VNENTRY,R2
 USING  VNENTRY,R5
 DROP   VNENTRY,R2
 00609A                            38315                       END
                                   38319
 00609A 1BFF                       38320                       CLEAR R15                 A-ok
                                   38324
 00609C 58E0 B08C/4BD0_      0008C 38325              NTKEXIT  SCPOP ,
 0060AA 18D8/9808 D004_            38331                       PEND
 DROP   VNENTRY,R5
 DROP   NWA-(4+36),R8
 DROP   *,R7
                                   38361                       ¿þþþþþþþþþþþþþþþþþþþþþÜ
                                   38362                       Ÿ  NET_TALK Options.  Ÿ
                                   38363                       ¾þþþþþþþþþþþþþþþþþþþþþ»
 USING  NWA,R6                     38364                       USING NWA,R6
 0060B8 D9C5D7D9D6D4D7E3_          38373              NTKPRT   SCKW  REPROMPT,NTKPR
 0060E0 D5D6D9C5D7D9D6D4_          38388                       SCKW  NOREPROMPT,NTKNPR
 006108 C1E3E3D5C3C8C1D9_          38403                       SCKW  ATTNCHAR,NTKATCH,P
 006130 4040404040404040_          38418                       SCKW  ,NTKBAD
                                   38433              þþþþ
 006158 50E0 D000/9008_      00000 38434              NTKPR    PROC
 USING  *,R7
 006172 94F7 6003      00003       38473                       CLEAR NWAFNPR
 006176 18D8/9808 D004_            38480                       PEND
 DROP   *,R7
                                   38500
 006184 50E0 D000/9008_      00000 38501              NTKNPR   PROC
 USING  *,R7
 00619E 9608 6003      00003       38540                       SET   NWAFNPR
 0061A2 18D8/9808 D004_            38546                       PEND
 DROP   *,R7
                                   38566
 0061B0 50E0 D000/9008_      00000 38567              NTKATCH  PROC
1PROC     (PROC2193) (12:51) (15MAR04) Routines for System Procedures                                                       Page  134
0Current Usings:  (UNET,R4) (NWA,R6) (*,R7) (CP,R11) (CV,R12)
0Loc    Object Code    Addr1 Addr2  Stmt Lv Lineno    Source Statement           (Hibal 5, Asmedit 3.3)  HLASM R4.0  2004/03/15 12.51
+___    ______ ____    _____ _____  ____ __ ______    ______ _________
0USING  *,R7
 0061CA 5810 B08C/4111_      0008C 38606                       SCUPTOK R1
 0061D2 58E0 79D6/0DEE       06BA0 38610                       XTB   (R1),(R0)           Expecting "ATTNCHAR=03"
 0061D8 4770 701A/59F0_      061E4 38625                       IF    (NZ,OR,(R15,GE,128)),BEGIN
 0061E4 41F0 0008            00008 38652  1                      LA    R15,8
 0061E8                            38653                       END
 0061E8 7022/47F0 7028 061E8 061E2 38657                       ELSE  BEGIN
 0061EC 42F0 6004            00004 38668  1                      STC   R15,NWAATCHR
 0061F0 1BFF                       38669  1                      CLEAR R15
 0061F2                            38673                       END
 0061F2 18D8/9808 D004_            38677                       PEND
 DROP   *,R7
                                   38697
 006200 50E0 D000/9008_      00000 38698              NTKBAD   PROC
 USING  *,R7
 00621A 41F0 0004            00004 38737                       LA    R15,4
 00621E 18D8/9808 D004_            38738                       PEND
 DROP   *,R7
 DROP   NWA,R6                     38758                       DROP  R6
 DROP   UNET,R4                    38765                       DROP  R4
                                   38772
1PROC     (PROC2193) (12:51) (15MAR04) Routines for System Procedures                                                       Page  135
0Current Usings:  (CP,R11) (CV,R12)
0Loc    Object Code    Addr1 Addr2  Stmt Lv Lineno    Source Statement           (Hibal 5, Asmedit 3.3)  HLASM R4.0  2004/03/15 12.51
+___    ______ ____    _____ _____  ____ __ ______    ______ _________
0                                  38774              ¿þþþþþþþþþþþþþþþþþþþþþþþþþþþþþþþþþþþþþþþþþþþþþþþþþþþþþþþþþþþþþþþþþþþþþÜ
                                   38775              Ÿ                                                                     Ÿ
                                   38776              Ÿ  NET_VIEW(netpno, option-string, actno [,rc])                       Ÿ
                                   38777              Ÿ                                                                     Ÿ
                                   38778              Ÿ    Connect user terminal to network path.                           Ÿ
                                   38779              Ÿ                                                                     Ÿ
                                                      ¾þþþþþþþþþþþþþþþþþþþþþþþþþþþþþþþþþþþþþþþþþþþþþþþþþþþþþþþþþþþþþþþþþþþþþ»
000622C 50E0 D000/9008_      00000 38780              PCNETVW  PROC  NWA
 USING  *,R7
 USING  NWA-(4+36),R8
 006246 D7FF 8028 8028_00000 00000 38830                       CLEAR NWA
 006252 D202 8028 79F0 00000 06C36 38838                       MVC   NWA(3),=C'NWA'
 006258 58E0 B08C/D2AF_      0008C 38839                       SCPUSH ,
 006266 5000 8034            0000C 38845                       ST    R0,NWANARGS         Number of arguments
 00626A 5010 8030            00008 38846                       ST    R1,NWAARGP          Arglist ptr
 00626E 4120 8028            00000 38847                       LA    R2,NWA
 006272 5020 BCA4            00CA4 38848                       ST    R2,CPCWA
                                   38849
 006276 4120 79BE/58E0_      06C04 38850                       SETARGS '34ISIS'          1-4 args: num, str, num, str
 006280 4770 7146            0638C 38857                       BNZ   NVWEXIT
                                   38858
 USING  VNENTRY,R5                 38859                       WITH  (VNENTRY,R5)
                                   38872
 006284 4151 0000            00000 38873                       LA    R5,ARG1(R1)
 006288 5800 5024            00024 38874                       L     R0,VNVALUE          Path number specified
 00628C 58E0 7932/0DEE       06B78 38875                       VCALL NPATGET             Get netpath ptr
 006292 4770 711A            06360 38879                       BNZ   NVWRET              Trouble, scram
 006296 1841                       38880                       LR    R4,R1
 USING  UNET,R4                    38881                       USING UNET,R4
 006298 94BF 402C/D703_0002C       38890                       CLEAR UNETFNOWAIT,UNETWAIT  Reset wait options
                                   38902                       ¿þþþþþþþþþþþþþþþþþþþþþþþþþþÜ
                                   38903                       Ÿ  Scan NET_VIEW options.  Ÿ
                                   38904                       ¾þþþþþþþþþþþþþþþþþþþþþþþþþþ»
 0062A2 D503 7942 8034_06B88 0000C 38905                       IF    (NWANARGS,GE,2),BEGIN  Scan options...
 0062AC 4150 0150            00150 38923  1                      LA    R5,ARG2
 0062B0 5A50 8030            00008 38924  1                      A     R5,NWAARGP
 0062B4 4110 5026/4800_      00026 38925  1                      SCINIT VNSTRLOC,LH:VNSTRLEN
 0062CA 5060 D000/41D0_      00000 38948  1                      XPUSH R6
 0062D2 4160 8028            00000 38951  1                      LA    R6,NWA
 0062D6 5810 B08C/1B00_      0008C 38952  1                      SCAN  NVWPRT              Scan NET_VIEW options
 006328 4BD0 79A6/5860_      06BEC 38984  1                      XPOP  R6
 006330 12FF/4770 710E             38987  1                      IF    (R15,NZ),NVWERR
 006336                            39004                       END
                                   39008                       ¿þþþþþþþþþþþþþþþþþþþþþþþþþþþþþþþþþþþþþþþþþþþþþþþþþþþþþÜ
                                   39009                       Ÿ  Do combined full screen terminal and network I/O.  Ÿ
                                   39010                       ¾þþþþþþþþþþþþþþþþþþþþþþþþþþþþþþþþþþþþþþþþþþþþþþþþþþþþþ»
 006336 4150 02A0            002A0 39011                       LA    R5,ARG3
 00633A 5A50 8030            00008 39012                       A     R5,NWAARGP
 00633E 5800 5024            00024 39013                       L     R0,VNVALUE          Working active file number
                                   39014
 006342 4110 794E            06B94 39015                       LA    R1,=C'....'         Standard NET_VIEW options
 006346 41F0 4000            00000 39016                       LA    R15,UNET
 00634A 58E0 7966/0DEE       06BAC 39017                       VCALL NPATVIEW            Do full-screen talking
1PROC     (PROC2193) (12:51) (15MAR04) Routines for System Procedures                                                       Page  136
0Current Usings:  (UNET,R4) (VNENTRY,R5) (*,R7) (NWA-(4+36),R8) (CP,R11) (CV,R12)
0Loc    Object Code    Addr1 Addr2  Stmt Lv Lineno    Source Statement           (Hibal 5, Asmedit 3.3)  HLASM R4.0  2004/03/15 12.51
+___    ______ ____    _____ _____  ____ __ ______    ______ _________
0006350 47F0 711A            06360 39021                       B     NVWRET
                                   39022
 006354 4110 79A8/4100_      06BEE 39023              NVWERR   SETMSG 'INVALID OPTION'
 00635C 47F0 711A            06360 39027                       B     NVWRET
                                   39028                       ¿þþþþþþþþþþþþþþþþþþþþþþþþþþþþÜ
                                   39029                       Ÿ  Pass back a return code.  Ÿ
                                   39030                       ¾þþþþþþþþþþþþþþþþþþþþþþþþþþþþ»
 006360 D503 7956 8034_06B9C 0000C 39031              NVWRET   IF    (NWANARGS,GE,4),BEGIN  Return code...
 00636A 4126 03F0/D74F_      003F0 39050  1                      PRETVAL 4,STRING,(R1),(R0)
 DROP   VNENTRY,R5
 USING  VNENTRY,R2
 USING  VNENTRY,R5
 DROP   VNENTRY,R2
 00638A                            39152                       END
                                   39156
 00638A 1BFF                       39157                       CLEAR R15                 A-ok
                                   39161
 00638C 58E0 B08C/4BD0_      0008C 39162              NVWEXIT  SCPOP ,
 00639A 18D8/9808 D004_            39168                       PEND
 DROP   VNENTRY,R5
 DROP   NWA-(4+36),R8
 DROP   *,R7
                                   39198              *
                                   39199              *  SCAN STUFF
                                   39200              *
 USING  NWA,R6                     39201                       USING  NWA,R6
 0063A8 4040404040404040_          39210              NVWPRT   SCKW  ,NVWBAD
                                   39225
 0063D0 50E0 D000/9008_      00000 39226              NVWBAD   PROC
 USING  *,R7
 0063EA 41F0 0004            00004 39265                       LA    R15,4
 0063EE 18D8/9808 D004_            39266                       PEND
 DROP   *,R7
 DROP   NWA,R6                     39286                       DROP  R6
 DROP   UNET,R4                    39293                       DROP  R4
1PROC     (PROC2193) (12:51) (15MAR04) Routines for System Procedures                                                       Page  137
0Current Usings:  (CP,R11) (CV,R12)
0Loc    Object Code    Addr1 Addr2  Stmt Lv Lineno    Source Statement           (Hibal 5, Asmedit 3.3)  HLASM R4.0  2004/03/15 12.51
+___    ______ ____    _____ _____  ____ __ ______    ______ _________
0                                  39301              ¿þþþþþþþþþþþþþþþþþþþþþþþþþþþþþþþþþþþþþþþþþþþþþþþþþþþþþþþþþþþþþþþþþþþþþÜ
                                   39302              Ÿ                                                                     Ÿ
                                   39303              Ÿ  NET_WRITE(netpno, option-string, write-string [,rc])               Ÿ
                                   39304              Ÿ                                                                     Ÿ
                                   39305              Ÿ    Write data to the user path.                                     Ÿ
                                   39306              Ÿ                                                                     Ÿ
                                                      ¾þþþþþþþþþþþþþþþþþþþþþþþþþþþþþþþþþþþþþþþþþþþþþþþþþþþþþþþþþþþþþþþþþþþþþ»
00063FC 50E0 D000/9008_      00000 39307              PCNETWR  PROC  NWA
 USING  *,R7
 USING  NWA-(4+36),R8
 006416 D7FF 8028 8028_00000 00000 39357                       CLEAR NWA
 006422 D202 8028 7820 00000 06C36 39365                       MVC   NWA(3),=C'NWA'
 006428 58E0 B08C/D2AF_      0008C 39366                       SCPUSH ,
 006436 5000 8034            0000C 39372                       ST    R0,NWANARGS         Number of arguments
 00643A 5010 8030            00008 39373                       ST    R1,NWAARGP          Arglist ptr
 00643E 4120 8028            00000 39374                       LA    R2,NWA
 006442 5020 BCA4            00CA4 39375                       ST    R2,CPCWA
                                   39376
 006446 4120 77F4/58E0_      06C0A 39377                       SETARGS '34ISSS'          3-4 args: num, str, str, str
 006450 4770 7172            06588 39384                       BNZ   NWREXIT
                                   39385
 USING  VNENTRY,R5                 39386                       WITH  (VNENTRY,R5)
                                   39399
 006454 4151 0000            00000 39400                       LA    R5,ARG1(R1)
 006458 5800 5024            00024 39401                       L     R0,VNVALUE          Path number specified
 00645C 58E0 7762/0DEE       06B78 39402                       VCALL NPATGET             Get netpath ptr
 006462 4770 7146            0655C 39406                       BNZ   NWRRET              Trouble, scram
 006466 1841                       39407                       LR    R4,R1
 USING  UNET,R4                    39408                       USING UNET,R4
 006468 94BF 402C/D703_0002C       39417                       CLEAR UNETFNOWAIT,UNETWAIT  Reset wait options
                                   39429                       ¿þþþþþþþþþþþþþþþþþþþþþþþþþþþÜ
                                   39430                       Ÿ  Scan NET_WRITE options.  Ÿ
                                   39431                       ¾þþþþþþþþþþþþþþþþþþþþþþþþþþþ»
 006472 4150 0150            00150 39432                       LA    R5,ARG2
 006476 5A50 8030            00008 39433                       A     R5,NWAARGP
 00647A 4110 5026/4800_      00026 39434                       SCINIT VNSTRLOC,LH:VNSTRLEN
 006490 5060 D000/41D0_      00000 39457                       XPUSH R6
 006498 4160 8028            00000 39460                       LA    R6,NWA
 00649C 5810 B08C/1B00_      0008C 39461                       SCAN  NWRPRT              Scan NET_WRITE options
 0064EE 4BD0 77D6/5860_      06BEC 39493                       XPOP  R6
 0064F6 12FF/4770 713A             39496                       IF    (R15,NZ),NWRERR
                                   39513                       ¿þþþþþþþþþþþþþþþþþþþþþþþþþþþþþÜ
                                   39514                       Ÿ  Now send the transaction.  Ÿ
                                   39515                       ¾þþþþþþþþþþþþþþþþþþþþþþþþþþþþþ»
 0064FC 4150 02A0            002A0 39516                       LA    R5,ARG3
 006500 5A50 8030            00008 39517                       A     R5,NWAARGP
                                   39518
                                   39519                       SEGDEF UNETOUTSG
 006504 4110 5026/4800_      00026 39520                       SEG   VNSTRLOC,LH:VNSTRLEN  Line data
 006516 1B00/41F0 410C_            39546                       SEGWR
 006522 94BF 4104      00104       39570                       CLEAR UNETFNOXL           Reset TRANSPARENT
                                   39577
 006526 4110 402E/4100_      0002E 39578                       SETMSG UNETEMSG            Error message text
1PROC     (PROC2193) (12:51) (15MAR04) Routines for System Procedures                                                       Page  138
0Current Usings:  (UNET,R4) (VNENTRY,R5) (*,R7) (NWA-(4+36),R8) (CP,R11) (CV,R12)
0Loc    Object Code    Addr1 Addr2  Stmt Lv Lineno    Source Statement           (Hibal 5, Asmedit 3.3)  HLASM R4.0  2004/03/15 12.51
+___    ______ ____    _____ _____  ____ __ ______    ______ _________
000652E 58E0 77A6/0DEE       06BBC 39592                       VCALL RTRIM
 006534 1200/4780 712E_            39596                       IF    ((R0,Z),OR,(UNETEMSG,Z)),'SETMSG "OK"'
 00654C 47F0 7146            0655C 39634                       B     NWRRET
 006550 4110 77D8/4100_      06BEE 39635              NWRERR   SETMSG 'INVALID OPTION'
 006558 47F0 7146            0655C 39639                       B     NWRRET
                                   39640                       ¿þþþþþþþþþþþþþþþþþþþþþþþþþþþþÜ
                                   39641                       Ÿ  Pass back a return code.  Ÿ
                                   39642                       ¾þþþþþþþþþþþþþþþþþþþþþþþþþþþþ»
 00655C D503 7786 8034_06B9C 0000C 39643              NWRRET   IF    (NWANARGS,GE,4),BEGIN  Pass back ret code string...
 006566 4126 03F0/D74F_      003F0 39662  1                      PRETVAL 4,STRING,(R1),(R0)
 DROP   VNENTRY,R5
 USING  VNENTRY,R2
 USING  VNENTRY,R5
 DROP   VNENTRY,R2
 006586                            39764                       END
                                   39768
 006586 1BFF                       39769                       CLEAR R15                 A-ok
                                   39773
 006588 58E0 B08C/4BD0_      0008C 39774              NWREXIT  SCPOP ,
 006596 18D8/9808 D004_            39780                       PEND
 DROP   VNENTRY,R5
 DROP   NWA-(4+36),R8
 DROP   *,R7
                                   39810              *
                                   39811              *  SCAN STUFF
                                   39812              *
 0065A4 D5D6E6C1C9E34040_          39813              NWRPRT   SCKW  NOWAIT,NWRNWT
 0065CC E6C1C9E340404040_          39828                       SCKW  WAIT,NWRWAIT,(P,I)
 0065F4 E3D9C1D5E2D7C1D9_          39843                       SCKW  TRANSPARENT,NWRTRAN,A
 00661C 4040404040404040_          39858                       SCKW  ,NWRBAD
                                   39873
 006644 50E0 D000/9008_      00000 39874              NWRNWT   PROC
 USING  *,R7
 00665E 9640 402C      0002C       39913                       SET   UNETFNOWAIT
 006662 18D8/9808 D004_            39919                       PEND
 DROP   *,R7
                                   39939
 006670 50E0 D000/9008_      00000 39940              NWRWAIT  PROC
 USING  *,R7
 00668A 9640 402C      0002C       39979                       SET   UNETFNOWAIT
 00668E 1200/4780 7012             39985                       IF    (R0,Z),EXIT
 006694 94BF 402C      0002C       40002                       CLEAR UNETFNOWAIT
 006698 5000 4070            00070 40009                       ST    R0,UNETWAIT
 00669C 18D8/9808 D004_            40010                       PEND
 DROP   *,R7
                                   40030
 0066AA 50E0 D000/9008_      00000 40031              NWRTRAN  PROC
 USING  *,R7
 0066C4 9640 4104      00104       40070                       SET   UNETFNOXL
 0066C8 18D8/9808 D004_            40076                       PEND
 DROP   *,R7
                                   40096
 0066D6 50E0 D000/9008_      00000 40097              NWRBAD   PROC
 USING  *,R7
1PROC     (PROC2193) (12:51) (15MAR04) Routines for System Procedures                                                       Page  139
0Current Usings:  (UNET,R4) (*,R7) (CP,R11) (CV,R12)
0Loc    Object Code    Addr1 Addr2  Stmt Lv Lineno    Source Statement           (Hibal 5, Asmedit 3.3)  HLASM R4.0  2004/03/15 12.51
+___    ______ ____    _____ _____  ____ __ ______    ______ _________
00066F0 41F0 0004            00004 40136                       LA    R15,4
 0066F4 18D8/9808 D004_            40137                       PEND
 DROP   *,R7
                                   40157                       DROP  R6
 DROP   UNET,R4                    40161                       DROP  R4
                                   40168
1PROC     (PROC2193) (12:51) (15MAR04) Routines for System Procedures                                                       Page  140
0Current Usings:  (CP,R11) (CV,R12)
0Loc    Object Code    Addr1 Addr2  Stmt Lv Lineno    Source Statement           (Hibal 5, Asmedit 3.3)  HLASM R4.0  2004/03/15 12.51
+___    ______ ____    _____ _____  ____ __ ______    ______ _________
0                                  40170              ¿þþþþþþþþþþþþþþþþþþþþþþþþþþþþþþþþþþþþþþþþþþþþþþþþþþþþþþþþþþþþþþþþþþþþþÜ
                                   40171              Ÿ                                                                     Ÿ
                                   40172              Ÿ  NET_WRITEFILE(netpno [,option-string] [,line-count] [,rc])         Ÿ
                                   40173              Ÿ                                                                     Ÿ
                                   40174              Ÿ    Write data to the user path.                                     Ÿ
                                   40175              Ÿ                                                                     Ÿ
                                                      ¾þþþþþþþþþþþþþþþþþþþþþþþþþþþþþþþþþþþþþþþþþþþþþþþþþþþþþþþþþþþþþþþþþþþþþ»
0006702 50E0 D000/9008_      00000 40176              PCNETWRF PROC  NWA
 USING  *,R7
 USING  NWA-(4+36),R8
 00671C D7FF 8028 8028_00000 00000 40226                       CLEAR NWA
 006728 D202 8028 751A 00000 06C36 40234                       MVC   NWA(3),=C'NWA'
 00672E 58E0 B08C/D2AF_      0008C 40235                       SCPUSH ,
 00673C 5000 8034            0000C 40241                       ST    R0,NWANARGS         Number of arguments
 006740 5010 8030            00008 40242                       ST    R1,NWAARGP          Arglist ptr
 006744 4120 8028            00000 40243                       LA    R2,NWA
 006748 5020 BCA4            00CA4 40244                       ST    R2,CPCWA
                                   40245
 00674C 4120 74E2/58E0_      06BFE 40246                       SETARGS '14ISIS'          1-4 args: num, str, str, str
 006756 4770 71B6            068D2 40253                       BNZ   NWFEXIT             Arglist error, scram
                                   40254
 USING  VNENTRY,R5                 40255                       WITH  (VNENTRY,R5)
                                   40268
 00675A 4151 0000            00000 40269                       LA    R5,ARG1(R1)
 00675E 5800 5024            00024 40270                       L     R0,VNVALUE          Path number specified
 006762 58E0 745C/0DEE       06B78 40271                       VCALL NPATGET             Get netpath ptr
 006768 4770 7164            06880 40275                       BNZ   NWFRET              Trouble, scram
 00676C 1841                       40276                       LR    R4,R1
 00676E 5040 8040            00018 40277                       ST    R4,NWAUNETP         Save net path ptr
                                   40278
 USING  UNET,R4                    40279                       USING UNET,R4
 006772 94BF 402C/D703_0002C       40288                       CLEAR UNETFNOWAIT,UNETWAIT  Reset wait options
                                   40300                       ¿þþþþþþþþþþþþþþþþþþþþþþþþþþþþþþþÜ
                                   40301                       Ÿ  Scan NET_WRITEFILE options.  Ÿ
                                   40302                       ¾þþþþþþþþþþþþþþþþþþþþþþþþþþþþþþþ»
 00677C 1B11/1B00                  40303                       CLEAR R1,R0
 006780 D503 746C 8034_06B88 0000C 40309                       IF    (NWANARGS,GE,2),BEGIN  We have an option string...
 00678A 4150 0150            00150 40327  1                      LA    R5,ARG2
 00678E 5A50 8030            00008 40328  1                      A     R5,NWAARGP
 006792 4110 5026/4800_      00026 40329  1                      SETMSG VNSTRLOC,LH:VNSTRLEN
 00679A                            40342                       END
 00679A 58E0 B08C/501E_      0008C 40346                       SCINIT (R1),(R0)
                                   40366
 0067A8 9610 BD50      00D50       40367                       SET   CPLFLG1.CPFALL      Default range is ALL
                                   40374
 0067AC 5060 D000/41D0_      00000 40375                       XPUSH R6
 0067B4 4160 8028            00000 40378                       LA    R6,NWA
 0067B8 5810 B08C/1B00_      0008C 40379                       SCAN  NWFPRT              Scan NET_WRITEFILE options
 00680A 4BD0 74D0/5860_      06BEC 40411                       XPOP  R6
 006812 12FF/4770 7158             40414                       IF    (R15,NZ),NWFERR
                                   40431
 006818 9120 802B/4710_00003       40432                       IF    ~NWAFLINS,'VCALL NDETRNG'  Make default range
1PROC     (PROC2193) (12:51) (15MAR04) Routines for System Procedures                                                       Page  141
0Current Usings:  (UNET,R4) (VNENTRY,R5) (*,R7) (NWA-(4+36),R8) (CP,R11) (CV,R12)
0Loc    Object Code    Addr1 Addr2  Stmt Lv Lineno    Source Statement           (Hibal 5, Asmedit 3.3)  HLASM R4.0  2004/03/15 12.51
+___    ______ ____    _____ _____  ____ __ ______    ______ _________
0                                  40456                       ¿þþþþþþþþþþþþþþþþþþþþþþþþþþþþþþþþþÜ
                                   40457                       Ÿ  Now write the range of lines.  Ÿ
                                   40458                       ¾þþþþþþþþþþþþþþþþþþþþþþþþþþþþþþþþþ»
                                   40459                       SEGDEF UNETOUTSG
 006826 5800 74AC/5810_      06BC8 40460                       RDRNG NWFRTN,(DESRTRN+LOCATRTN+UNPRST)
 006834 41F0 B050/58E0_      00050 40467                       TCLEAR ,                  (Zot any pending msgs)
                                   40481
 00683E 1B00/41F0 410C_            40482                       SEGWR
 00684A 4110 402E/4100_      0002E 40506                       SETMSG UNETEMSG            Error message text
 006852 58E0 74A0/0DEE       06BBC 40520                       VCALL RTRIM
 006858 1200/4780 714C_            40524                       IF    ((R0,Z),OR,(UNETEMSG,Z)),'SETMSG "OK"'
 006870 47F0 7164            06880 40562                       B     NWFRET
                                   40563              *
                                   40564              *
 006874 4110 74D2/4100_      06BEE 40565              NWFERR   SETMSG 'INVALID OPTION'
 00687C 47F0 7164            06880 40569                       B     NWFRET
                                   40570                       ¿þþþþþþþþþþþþþþþþþþþþþþþþþþþþÜ
                                   40571                       Ÿ  Pass back a return code.  Ÿ
                                   40572                       ¾þþþþþþþþþþþþþþþþþþþþþþþþþþþþ»
 006880 D503 7480 8034_06B9C 0000C 40573              NWFRET   IF    (NWANARGS,GE,4),BEGIN
 00688A 4126 03F0/D74F_      003F0 40592  1                      PRETVAL 4,STRING,(R1),(R0)
 DROP   VNENTRY,R5
 USING  VNENTRY,R2
 USING  VNENTRY,R5
 DROP   VNENTRY,R2
 0068AA                            40694                       END
                                   40698                       ¿þþþþþþþþþþþþþþþþþþþþþþþþþþþþþþþþþþþþþþþþþþþþþþþÜ
                                   40699                       Ÿ  Also pass back the number of lines written.  Ÿ
                                   40700                       ¾þþþþþþþþþþþþþþþþþþþþþþþþþþþþþþþþþþþþþþþþþþþþþþþ»
 0068AA D503 7468 8034_06B84 0000C 40701                       IF    (NWANARGS,GE,3),BEGIN
 0068B4 4126 02A0/D74F_      002A0 40719  1                      PRETVAL 3,INTEGER,L:NWACOUNT  Number of lines written
 DROP   VNENTRY,R5
 USING  VNENTRY,R2
 USING  VNENTRY,R5
 DROP   VNENTRY,R2
 0068D0                            40784                       END
                                   40788
 0068D0 1BFF                       40789                       CLEAR R15                 A-ok
                                   40793
 0068D2 58E0 B08C/4BD0_      0008C 40794              NWFEXIT  SCPOP ,
 0068E0 18D8/9808 D004_            40800                       PEND
 DROP   VNENTRY,R5
 DROP   NWA-(4+36),R8
 DROP   *,R7
                                   40830              *
                                   40831              *  SCAN STUFF
                                   40832              *
 USING  NWA,R6                     40833                       USING NWA,R6
 0068F0 D5D6E6C1C9E34040_          40842              NWFPRT   SCKW  NOWAIT,NWFNWT
 006918 E6C1C9E340404040_          40857                       SCKW  WAIT,NWFWAIT,(P,I)
 006940 D3C9D5C5E2404040_          40872                       SCKW  LINES,NWFLINES
 006968 D5D6D5D340404040_          40887                       SCKW  NONL,NWFNONL,A
 006990 4040404040404040_          40902                       SCKW  ,NWFBAD
                                   40917
1PROC     (PROC2193) (12:51) (15MAR04) Routines for System Procedures                                                       Page  142
0Current Usings:  (UNET,R4) (NWA,R6) (*,R7) (CP,R11) (CV,R12)
0Loc    Object Code    Addr1 Addr2  Stmt Lv Lineno    Source Statement           (Hibal 5, Asmedit 3.3)  HLASM R4.0  2004/03/15 12.51
+___    ______ ____    _____ _____  ____ __ ______    ______ _________
00069B8 50E0 D000/9008_      00000 40918              NWFNWT   PROC
 USING  *,R7
 0069D2 9640 402C      0002C       40957                       SET   UNETFNOWAIT
 0069D6 18D8/9808 D004_            40963                       PEND
 DROP   *,R7
                                   40983
 0069E4 50E0 D000/9008_      00000 40984              NWFWAIT  PROC
 USING  *,R7
 0069FE 9640 402C      0002C       41023                       SET   UNETFNOWAIT
 006A02 1200/4780 7012             41029                       IF    (R0,Z),EXIT
 006A08 94BF 402C      0002C       41046                       CLEAR UNETFNOWAIT
 006A0C 5000 4070            00070 41053                       ST    R0,UNETWAIT
 006A10 18D8/9808 D004_            41054                       PEND
 DROP   *,R7
                                   41074
 006A1E 50E0 D000/9008_      00000 41075              NWFLINES PROC
 USING  *,R7
 006A38 9620 6003      00003       41114                       SET   NWAFLINS
 006A3C 58E0 718C/0DEE       06BC4 41120                       VCALL NDETRNG              Scan range
 006A42 18D8/9808 D004_            41124                       PEND
 DROP   *,R7
                                   41144
 006A50 50E0 D000/9008_      00000 41145              NWFNONL  PROC
 USING  *,R7
 006A6A 9610 6003      00003       41184                       SET   NWAFNONL
 006A6E 18D8/9808 D004_            41190                       PEND
 DROP   *,R7
                                   41210
 006A7C 50E0 D000/9008_      00000 41211              NWFBAD   PROC
 USING  *,R7
 006A96 41F0 0004            00004 41250                       LA    R15,4
 006A9A 18D8/9808 D004_            41251                       PEND
 DROP   *,R7
 DROP   NWA,R6                     41271                       DROP  R6
 DROP   UNET,R4                    41278                       DROP  R4
1PROC     (PROC2193) (12:51) (15MAR04) Routines for System Procedures                                                       Page  143
0Current Usings:  (CP,R11) (CV,R12)
0Loc    Object Code    Addr1 Addr2  Stmt Lv Lineno    Source Statement           (Hibal 5, Asmedit 3.3)  HLASM R4.0  2004/03/15 12.51
+___    ______ ____    _____ _____  ____ __ ______    ______ _________
0                                  41286              ¿þþþþþþþþþþþþþþþþþþþþþþþþþþþþþþþþþþþþþþþþþþþþþþþþþþþþþþþþþþþþþþþþþþþþþÜ
                                   41287              Ÿ                                                                     Ÿ
                                   41288              Ÿ  NWFRTN -- Range processor co-routine to send any lines found       Ÿ
                                   41289              Ÿ    across the network path.                                         Ÿ
                                   41290              Ÿ                                                                     Ÿ
                                   41291              Ÿ    On entry:                                                        Ÿ
                                   41292              Ÿ      R1,R0 - line loc, len                                          Ÿ
                                   41293              Ÿ                                                                     Ÿ
                                                      ¾þþþþþþþþþþþþþþþþþþþþþþþþþþþþþþþþþþþþþþþþþþþþþþþþþþþþþþþþþþþþþþþþþþþþþ»
0006AA8 50E0 D000/9008_      00000 41294              NWFRTN   PROC
 USING  *,R7
 006AC2 5860 BCA4            00CA4 41333                       L     R6,CPCWA
 USING  NWA,R6                     41334                       WITH  (NWA,R6)
 006AC6 D502 7174 6000_06C36 00000 41347                       FAIL  (NWA,NE,'NWA'),NETERR1,'Net path logic problem.'
 006AE8 5850 6018            00018 41376                       L     R5,NWAUNETP
 USING  UNET,R5                    41377                       WITH  (UNET,R5)
 006AEC D503 711A 5000_06BDC 00000 41390                       FAIL  (UNET,NE,'UNET'),NETERRF,'Net path logic problem.'
                                   41419
                                   41420                       SEGDEF UNETOUTSG
                                   41421
 006B0E 1831                       41422                       LR    R3,R1
 006B10 1820                       41423                       LR    R2,R0
 006B12 1813/1802/41F0_            41424                       SEG   (R3),(R2)           Text (if any)
 006B20 9110 6003/4710_00003       41449                       IF    ~NWAFNONL,BEGIN     Add NL...
 006B28 4110 7150/4100_      06C12 41464  1                      SETMSG X'0D25'             Assume CR LF
 006B30 9501 5167/4770_00167       41468  1                      IF    UNETOUTFLF,'SETMSG X"25"'  Just LF
 006B40 41F0 510C/58E0_      0010C 41492  1                      SEG   (R1),(R0)
 006B4A                            41515                       END
 006B4A 41F0 510C/58E0_      0010C 41519                       SEGMARK
                                   41532
 006B54 41F0 0001/5EF0_      00001 41533                       INCR  R15,NWACOUNT        Count number of lines
 006B60 18D8/9808 D004_            41539                       PEND
 DROP   UNET,R5
 DROP   NWA,R6
 DROP   *,R7
                                   41569
                                   41570                       QLTORG
1PROC     (PROC2193) (12:51) (15MAR04) Routines for System Procedures                                                       Page  144
0Current Usings:  (CP,R11) (CV,R12)
0Loc    Object Code    Addr1 Addr2  Stmt Lv Lineno    Source Statement           (Hibal 5, Asmedit 3.3)  HLASM R4.0  2004/03/15 12.51
+___    ______ ____    _____ _____  ____ __ ______    ______ _________
0000000                00000 000E8 41628              PWA      RECORD BEGIN
 000000                            41636  1           PWAID      DS    C'PWA'              Self identification
                                   41637  1
 000003 00                         41638  1           PWAFLAG    FLAG
 PWAFLAG.PWAFTAG   80 ONES         41642  1                      FLAG  PWAFTAG             - MYTAG/YOURTAG option specified
 PWAFLAG.PWAFEOF   40 ONES         41647  1                      FLAG  PWAFEOF             - EOF string specified
 PWAFLAG.PWAFLINS  20 ONES         41652  1                      FLAG  PWAFLINS            - LINES option specified
                                   41657  1
 000004                            41658  1           PWAARGP    DS    A                   Argument list ptr
 000008                            41659  1           PWANARGS   DS    F                   Number of args passed
                                   41660  1
 00000C                            41661  1           PWAWORD    DS    F                   Working fullword area
 000010                            41662  1           PWAOPNO    DS    F                   Open path number
                                   41663  1
 000014                            41664  1           PWAR0R1    DS   2F                   Working R0,R1 for scan routines
                                   41665  1
 00001C                            41666  1           PWALNO     DS    F                   Working lineno
 000020                            41667  1           PWAREMCT   DS    F                   Working remaining line count
 000024                            41668  1           PWACOUNT   DS    F                   Working line count so far
 000028                            41669  1           PWAEOFL    DS    H                   Length of EOF string
 00002A                            41670  1           PWAEOF     DS    CL128               Working EOF line
                                   41671  1
                                   41672  1           PWASG      SEGCB ,                   Working seg control block
 0000AC 00                         41673  1 01-SEGCB +$$$SEGCB1034   DS 0F
 PWASGCOD.PWASGSEG 01 EQ
 PWASGCOD.PWASGWR  02 EQ
 PWASGCOD.PWASGCLR 03 EQ
 PWASGCOD.PWASGSPP 04 EQ
 PWASGCOD.PWASGOVF 05 EQ
 PWASGCOD.PWASGCR  06 EQ
 PWASGCOD.PWASGMAR 07 EQ
 0000AD 00                         41748  1 01-SEGCB +           DC    X'00'               Reserved
 0000AE 0000                              1          +
 0000B0 00000000                   41749  1 01-SEGCB +PWASGMAXF   DC   A(0)                Maximum buffer length
 0000B4 00000000                   41750  1 01-SEGCB +PWASGMRKF   DC   A(0)                Length at last mark
 0000B8 00000000                   41751  1 01-SEGCB +PWASGLENF   DC   A(0)                Current length
 0000BC 00000000                   41752  1 01-SEGCB +PWASGINDF   DC   A(0)                Overflow/indent count
 0000C0 00000000                   41753  1 01-SEGCB +PWASGERR   DC    A(0)                Address of error recovery routine
 0000C4 0000000000000000           41754  1 01-SEGCB +           DC    2F'0'               Reserved
 0000CC 00000000                   41755  1 01-SEGCB +PWASGLOC   DC    A(0)                Location of buffer
 0000D0 00000000                   41756  1 01-SEGCB +PWASGRTN   DC    A(0)                Processing routine
 0000D4 0000000000000000           41757  1 01-SEGCB +           DC    4F'0'               Reserved
 0000E4 00000000                   41758  1 01-SEGCB +PWASGUSR   DC    A(0)                USER field
                                   41759  1 01-SEGCB +PWASG      EQU   $$$SEGCB1034,*-$$$SEGCB1034,C'X'
                                   41760  1           PWABUFLN   EQU   4000                Our buffer size
 0000E8                000E8 000E8 41761                       END
1PROC     (PROC2193) (12:51) (15MAR04) Routines for System Procedures                                                       Page  145
0Current Usings:  (CP,R11) (CV,R12)
0Loc    Object Code    Addr1 Addr2  Stmt Lv Lineno    Source Statement           (Hibal 5, Asmedit 3.3)  HLASM R4.0  2004/03/15 12.51
+___    ______ ____    _____ _____  ____ __ ______    ______ _________
0                                  41771              ¿þþþþþþþþþþþþþþþþþþþþþþþþþþþþþþþþþþþþþþþþþþþþþþþþþþþþþþþþþþþþþþþþþþþþþÜ
                                   41772              Ÿ                                                                     Ÿ
                                   41773              Ÿ  PATH_CLOSE(pathno [,option-string] [,rc])                          Ÿ
                                   41774              Ÿ                                                                     Ÿ
                                   41775              Ÿ    Close a user path.                                               Ÿ
                                   41776              Ÿ                                                                     Ÿ
                                                      ¾þþþþþþþþþþþþþþþþþþþþþþþþþþþþþþþþþþþþþþþþþþþþþþþþþþþþþþþþþþþþþþþþþþþþþ»
0006C7A 50E0 D000/9008_      00000 41777              PCPATCLS PROC  PWA
 USING  *,R7
 USING  PWA-(4+36),R8
 006C94 D7E7 8028 8028 00000 00000 41827                       CLEAR PWA
 006C9A D202 8028 7F3C 00000 07BD0 41834                       MVC   PWA(3),=C'PWA'
 006CA0 58E0 B08C/D2AF_      0008C 41835                       SCPUSH ,
 006CAE 5000 8030            00008 41841                       ST    R0,PWANARGS         Number of arguments
 006CB2 5010 802C            00004 41842                       ST    R1,PWAARGP          Arglist ptr
 006CB6 4120 8028            00000 41843                       LA    R2,PWA
 006CBA 5020 BCA4            00CA4 41844                       ST    R2,CPCWA            Save PWA ptr
                                   41845
 006CBE 4120 7F3F/58E0_      07BD3 41846                       SETARGS '13ISS'           1-3 args: num, str, str
 006CC8 4770 7154            06DE8 41853                       BNZ   PCLSEXIT
                                   41854
 USING  VNENTRY,R5                 41855                       WITH  (VNENTRY,R5)
 006CCC 4151 0000            00000 41868                       LA    R5,ARG1(R1)
 006CD0 5800 5024            00024 41869                       L     R0,VNVALUE          Path number specified
 006CD4 58E0 7EB8/0DEE       07B4C 41870                       VCALL PATHGET             Get PATH address
 006CDA 4770 7128            06DBC 41874                       BNZ   PCLSRET             Trouble, scram
 006CDE 1841                       41875                       LR    R4,R1
 USING  UPATH,R4                   41876                       USING UPATH,R4
 006CE0 D503 7EBC 4000_07B50 00000 41885                       FAIL  (UPATH,NE,'PATH'),PCLSERR,'Path logic error.'
                                   41914                       ¿þþþþþþþþþþþþþþþþþþþþþþþþþþþþÜ
                                   41915                       Ÿ  Scan PATH_CLOSE options.  Ÿ
                                   41916                       ¾þþþþþþþþþþþþþþþþþþþþþþþþþþþþ»
 006D02 D503 7EC0 8030_07B54 00008 41917                       IF    (PWANARGS,GE,2),BEGIN  Scan options...
 006D0C 4150 0150            00150 41935  1                      LA    R5,ARG2
 006D10 5A50 802C            00004 41936  1                      A     R5,PWAARGP
 006D14 4110 5026/4800_      00026 41937  1                      SCINIT VNSTRLOC,LH:VNSTRLEN
 006D2A 5060 D000/41D0_      00000 41960  1                      XPUSH R6
 006D32 4160 8028            00000 41963  1                      LA    R6,PWA
 006D36 5810 B08C/1B00_      0008C 41964  1                      SCAN  PCLSPRT             Scan PATH_CLOSE options
 006D88 4BD0 7F12/5860_      07BA6 41996  1                      XPOP  R6
 006D90 12FF/4770 711C             41999  1                      IF    (R15,NZ),PCLSERR
 006D96                            42016                       END
                                   42020                       ¿þþþþþþþþþþþþþþþþþþþþþþþþþþþþÜ
                                   42021                       Ÿ  Close and free the path.  Ÿ
                                   42022                       ¾þþþþþþþþþþþþþþþþþþþþþþþþþþþþ»
 006D96 41F0 4000            00000 42023                       LA    R15,UPATH
 006D9A 58E0 7ECC/0DEE       07B60 42024                       VCALL PATHCLS             Close/Free PATH control block
 006DA0 4770 7118/4110_      06DAC 42028                       IF    Z,'SETMSG "OK"'
 006DAC 47F0 7128            06DBC 42048                       B     PCLSRET
                                   42049              *
                                   42050              *
 006DB0 4110 7F16/4100_      07BAA 42051              PCLSERR  SETMSG 'INVALID OPTION'
 006DB8 47F0 7128            06DBC 42055                       B     PCLSRET
1PROC     (PROC2193) (12:51) (15MAR04) Routines for System Procedures                                                       Page  146
0Current Usings:  (UPATH,R4) (VNENTRY,R5) (*,R7) (PWA-(4+36),R8) (CP,R11) (CV,R12)
0Loc    Object Code    Addr1 Addr2  Stmt Lv Lineno    Source Statement           (Hibal 5, Asmedit 3.3)  HLASM R4.0  2004/03/15 12.51
+___    ______ ____    _____ _____  ____ __ ______    ______ _________
0                                  42056                       ¿þþþþþþþþþþþþþþþþþþþþþþþþþþþþÜ
                                   42057                       Ÿ  Pass back a return code.  Ÿ
                                   42058                       ¾þþþþþþþþþþþþþþþþþþþþþþþþþþþþ»
 006DBC D503 7ED0 8030_07B64 00008 42059              PCLSRET  IF    (PWANARGS,GE,3),BEGIN  Return info...
 006DC6 4126 02A0/D74F_      002A0 42078  1                      PRETVAL 3,STRING,(R1),(R0)
 DROP   VNENTRY,R5
 USING  VNENTRY,R2
 USING  VNENTRY,R5
 DROP   VNENTRY,R2
 006DE6                            42180                       END
                                   42184
 006DE6 1BFF                       42185                       CLEAR R15                 A-ok
                                   42189
 006DE8 58E0 B08C/4BD0_      0008C 42190              PCLSEXIT SCPOP ,
 006DF6 18D8/9808 D004_            42196                       PEND
 DROP   VNENTRY,R5
 DROP   PWA-(4+36),R8
 DROP   *,R7
                                   42226              *
                                   42227              *  SCAN STUFF
                                   42228              *
 USING  PWA,R6                     42229                       USING PWA,R6
 006E04 4040404040404040_          42238              PCLSPRT  SCKW  ,PCLSBAD
                                   42253
 006E2C 50E0 D000/9008_      00000 42254              PCLSBAD  PROC
 USING  *,R7
 006E46 41F0 0004            00004 42293                       LA    R15,4
 006E4A 18D8/9808 D004_            42294                       PEND
 DROP   *,R7
 DROP   PWA,R6                     42314                       DROP  R6
 DROP   UPATH,R4                   42321                       DROP  R4
1PROC     (PROC2193) (12:51) (15MAR04) Routines for System Procedures                                                       Page  147
0Current Usings:  (CP,R11) (CV,R12)
0Loc    Object Code    Addr1 Addr2  Stmt Lv Lineno    Source Statement           (Hibal 5, Asmedit 3.3)  HLASM R4.0  2004/03/15 12.51
+___    ______ ____    _____ _____  ____ __ ______    ______ _________
0                                  42329              ¿þþþþþþþþþþþþþþþþþþþþþþþþþþþþþþþþþþþþþþþþþþþþþþþþþþþþþþþþþþþþþþþþþþþþþÜ
                                   42330              Ÿ                                                                     Ÿ
                                   42331              Ÿ  PATH_CONTROL(pathno, option-string [,return-string] [,rc])         Ÿ
                                   42332              Ÿ                                                                     Ÿ
                                   42333              Ÿ    Do something special to the user path.                           Ÿ
                                   42334              Ÿ                                                                     Ÿ
                                                      ¾þþþþþþþþþþþþþþþþþþþþþþþþþþþþþþþþþþþþþþþþþþþþþþþþþþþþþþþþþþþþþþþþþþþþþ»
0006E58 50E0 D000/9008_      00000 42335              PCPATCTL PROC  PWA
 USING  *,R7
 USING  PWA-(4+36),R8
 006E72 D7E7 8028 8028 00000 00000 42385                       CLEAR PWA
 006E78 D202 8028 7D5E 00000 07BD0 42392                       MVC   PWA(3),=C'PWA'
 006E7E 58E0 B08C/D2AF_      0008C 42393                       SCPUSH ,
 006E8C 5000 8030            00008 42399                       ST    R0,PWANARGS         Number of arguments
 006E90 5010 802C            00004 42400                       ST    R1,PWAARGP          Arglist ptr
 006E94 4120 8028            00000 42401                       LA    R2,PWA
 006E98 5020 BCA4            00CA4 42402                       ST    R2,CPCWA            Save PWA ptr
                                   42403
 006E9C 4120 7D48/58E0_      07BBA 42404                       SETARGS '24ISSS'          2-4 args: num, str, str, str
 006EA6 4770 71EC            0705E 42411                       BNZ   PCTLEXIT
                                   42412
 006EAA 5000 8030            00008 42413                       ST    R0,PWANARGS         Save number of args specified
 USING  VNENTRY,R5                 42414                       WITH  (VNENTRY,R5)
 006EAE 4151 0000            00000 42427                       LA    R5,ARG1(R1)
 006EB2 5800 5024            00024 42428                       L     R0,VNVALUE          Path number specified
 006EB6 58E0 7CDA/0DEE       07B4C 42429                       VCALL PATHGET             Get PATH address
 006EBC 4770 712A            06F9C 42433                       BNZ   PCTLMSG             Trouble, scram
 006EC0 1841                       42434                       LR    R4,R1
 USING  UPATH,R4                   42435                       USING UPATH,R4
                                   42444
 006EC2 41F0 4000            00000 42445                       LA    R15,UPATH
 006EC6 58E0 7CF6/0DEE       07B68 42446                       VCALL PATHINFO            Update path information
                                   42450
 006ECC 4150 0150            00150 42451                       LA    R5,ARG2
 006ED0 5A50 802C            00004 42452                       A     R5,PWAARGP
 006ED4 4110 5026/4800_      00026 42453                       SCINIT VNSTRLOC,LH:VNSTRLEN
 006EEA D203 BCC8 7CFA 00CC8 07B6C 42476                       MVC   CPSCNERT,=A(PCTLINV)
 006EF0 9640 BCD0      00CD0       42477                       SET   CPSCNFLG.CPFRTNER
 006EF4 5060 D000/41D0_      00000 42484                       XPUSH R6
 006EFC 4160 8028            00000 42487                       LA    R6,PWA
 006F00 5810 B08C/1B00_      0008C 42488                       SCAN  PCTLPRT             Scan PATH_CONTROL options
 006F52 4BD0 7D34/5860_      07BA6 42520                       XPOP  R6
 006F5A 9801 803C            00014 42523                       LM    R0,R1,PWAR0R1       Pick up any R0,R1 values
 006F5E 12FF/4740 7122             42524                       IF    (R15,M),PCTLINV
 006F64 59F0 7D02/4780_      07B74 42541                       IF    (R15,EQ,4),PCTLINV
 006F6C 59F0 7D06/4780_      07B78 42561                       IF    (R15,EQ,8),PCTLNOK
 006F74 59F0 7D0A/4780_      07B7C 42581                       IF    (R15,EQ,12),PCTLMISS
 006F7C 59F0 7D0E/4780_      07B80 42601                       IF    (R15,EQ,16),PCTLOK
 006F84 47F0 7174            06FE6 42621                       B     PCTLOK
                                   42622
 006F88                            42623              PCTLMISS LABEL ,
 006F88 4110 7D4E/4100_      07BC0 42625                       SETMSG 'MISSING OPTION'
 006F90 47F0 712A            06F9C 42629                       B     PCTLMSG
1PROC     (PROC2193) (12:51) (15MAR04) Routines for System Procedures                                                       Page  148
0Current Usings:  (UPATH,R4) (VNENTRY,R5) (*,R7) (PWA-(4+36),R8) (CP,R11) (CV,R12)
0Loc    Object Code    Addr1 Addr2  Stmt Lv Lineno    Source Statement           (Hibal 5, Asmedit 3.3)  HLASM R4.0  2004/03/15 12.51
+___    ______ ____    _____ _____  ____ __ ______    ______ _________
0                                  42630
 006F94 4110 7D38/4100_      07BAA 42631              PCTLINV  SETMSG 'INVALID OPTION'
                                   42635
 006F9C 1831/1820                  42636              PCTLMSG  LS    R3,R2,(R1),(R0)
 006FA0 1B11/1B00                  42647                       CLEAR R1,R0
 006FA4 47F0 717C            06FEE 42653                       B     PCTLRET
                                   42654                       ¿þþþþþþþþþþþþþþþþþþþþþÜ
                                   42655                       Ÿ  Pass back number.  Ÿ
                                   42656                       ¾þþþþþþþþþþþþþþþþþþþþþ»
 006FA8 4130 7D36/4120_      07BA8 42657              PCTLNOK  LS    R3,R2,'OK'
                                   42660
 006FB0 9023 D000/41D0_      00000 42661              PCTLNUM  XPUSH R2,R3
 006FB8 D503 7CF2 8030_07B64 00008 42664                       IF    (PWANARGS,GE,3),BEGIN
 006FC2 4126 02A0/D74F_      002A0 42682  1                      PRETVAL 3,INTEGER,(R1)
 DROP   VNENTRY,R5
 USING  VNENTRY,R2
 USING  VNENTRY,R5
 DROP   VNENTRY,R2
 006FDA                            42746                       END
 006FDA 4BD0 7D5C/9823_      07BCE 42750                       XPOP  R2,R3
                                   42753
 006FE2 47F0 71BC            0702E 42754                       B     PCTLCOM
                                   42755                       ¿þþþþþþþþþþþþþþþþþþþþþÜ
                                   42756                       Ÿ  Pass back string.  Ÿ
                                   42757                       ¾þþþþþþþþþþþþþþþþþþþþþ»
 006FE6 4130 7D36/4120_      07BA8 42758              PCTLOK   LS    R3,R2,'OK'
                                   42761
 006FEE 9023 D000/41D0_      00000 42762              PCTLRET  XPUSH R2,R3
 006FF6 D503 7CF2 8030_07B64 00008 42765                       IF    (PWANARGS,GE,3),BEGIN
 007000 58E0 7D16/0DEE       07B88 42783  1                      VCALL LRTRIM
 007006 4126 02A0/D74F_      002A0 42787  1                      PRETVAL 3,STRING,(R1),(R0)
 DROP   VNENTRY,R5
 USING  VNENTRY,R2
 USING  VNENTRY,R5
 DROP   VNENTRY,R2
 007026                            42889                       END
 007026 4BD0 7D5C/9823_      07BCE 42893                       XPOP  R2,R3
                                   42896                       ¿þþþþþþþþþþþþþþþþþþþþþþþþþþþþþþþþþþþþÜ
                                   42897                       Ÿ  Finally, set return code string.  Ÿ
                                   42898                       ¾þþþþþþþþþþþþþþþþþþþþþþþþþþþþþþþþþþþþ»
 00702E D503 7D1A 8030_07B8C 00008 42899              PCTLCOM  IF    (PWANARGS,GE,4),BEGIN
 007038 1813/1802                  42918  1                      SETMSG (R3),(R2)
 00703C 4126 03F0/D74F_      003F0 42930  1                      PRETVAL 4,STRING,(R1),(R0)
 DROP   VNENTRY,R5
 USING  VNENTRY,R2
 USING  VNENTRY,R5
 DROP   VNENTRY,R2
 00705C                            43032                       END
                                   43036
 00705C 1BFF                       43037                       CLEAR R15                 A-ok
                                   43041
 00705E 58E0 B08C/4BD0_      0008C 43042              PCTLEXIT SCPOP ,
 00706C 18D8/9808 D004_            43048                       PEND
 DROP   VNENTRY,R5
1PROC     (PROC2193) (12:51) (15MAR04) Routines for System Procedures                                                       Page  149
0Current Usings:  (UPATH,R4) (CP,R11) (CV,R12)
0Loc    Object Code    Addr1 Addr2  Stmt Lv Lineno    Source Statement           (Hibal 5, Asmedit 3.3)  HLASM R4.0  2004/03/15 12.51
+___    ______ ____    _____ _____  ____ __ ______    ______ _________
0DROP   PWA-(4+36),R8
 DROP   *,R7
                                   43078              *
                                   43079              *
                                   43080              *
 USING  PWA,R6                     43081                       USING PWA,R6
 00707C 4040404040404040_          43090              PCTLPRT  SCKW  ,PCTLMSSN,NULL
 0070A4 C7C5E3E3C1C74040_          43105                       SCKW  GETTAG,PCTLTAG
 0070CC C7C5E3E3C1C74040_          43120                       SCKW  GETTAG,PCTLTAG
 0070F4 C7C5E3C1C3C3D6E4_          43135                       SCKW  GETACCOUNT,PCTLPACT
 00711C C7C5E3C1C3C3E340_          43150                       SCKW  GETACCT,PCTLPACT
 007144 C7C5E3D5C1D4C540_          43165                       SCKW  GETNAME,PCTLPNAM
 00716C C7C5E3D1D6C24040_          43180                       SCKW  GETJOB,PCTLPJOB
 007194 C7C5E3D3C9D5C540_          43195                       SCKW  GETLINE,PCTLPLNO
 0071BC C7C5E3C1E2C3C240_          43210                       SCKW  GETASCB,PCTLPASC
 0071E4 C9D5E3C5D9D9E4D7_          43225                       SCKW  INTERRUPT,PCTLINT,A
 00720C D5D6C9D5E3C5D9D9_          43240                       SCKW  NOINTERRUPT,PCTLNINT,A
 007234 D5D6E6C1C9E34040_          43255                       SCKW  NOWAIT,PCTLNWT
 00725C E6C1C9E340404040_          43270                       SCKW  WAIT,PCTLWAIT,(P,I)
 007284 4040404040404040_          43285                       SCKW  ,PCTLBAD
                                   43300
 0072AC 4040404040404040_          43301              PCTLPRTB SCKW  ,PCTLBAD
                                   43316
 0072D4 50E0 D000/9008_      00000 43317              PCTLMSSN PROC
 USING  *,R7
 0072EE 1B11/1B00                  43356                       CLEAR R1,R0
 0072F2 9001 6014            00014 43362                       STM   R0,R1,PWAR0R1
 0072F6 41F0 000C            0000C 43363                       LA    R15,12
 0072FA 18D8/9808 D004_            43364                       PEND
 DROP   *,R7
                                   43384
 007308 50E0 D000/9008_      00000 43385              PCTLTAG  PROC
 USING  *,R7
 007322 4110 4062/4100_      00062 43424                       SETMSG UPATPTAG            Partner's session tag (if any)
 00732A D60F 4062 4062_00062 00062 43438                       IF    (UPATPTAG,Z),'CLEAR R0'
 007336 58E0 B08C/D203_      0008C 43463                       SETSCKWS PCTLPRTB
 007344 9001 6014            00014 43476                       STM   R0,R1,PWAR0R1
 007348 41F0 0010            00010 43477                       LA    R15,16
 00734C 18D8/9808 D004_            43478                       PEND
 DROP   *,R7
                                   43498
 00735A 50E0 D000/9008_      00000 43499              PCTLPACT PROC
 USING  *,R7
 007374 4110 4046/4100_      00046 43538                       SETMSG UPATPACT            Partner's account (if any)
 00737C D607 4046 4046_00046 00046 43552                       IF    (UPATPACT,Z),'CLEAR R0'
 007388 58E0 B08C/D203_      0008C 43577                       SETSCKWS PCTLPRTB
 007396 9001 6014            00014 43590                       STM   R0,R1,PWAR0R1
 00739A 41F0 0010            00010 43591                       LA    R15,16
 00739E 18D8/9808 D004_            43592                       PEND
 DROP   *,R7
                                   43612
 0073AC 50E0 D000/9008_      00000 43613              PCTLPNAM PROC
 USING  *,R7
 0073C6 4110 404E/4100_      0004E 43652                       SETMSG UPATPNAM            Partner's user name (if any)
1PROC     (PROC2193) (12:51) (15MAR04) Routines for System Procedures                                                       Page  150
0Current Usings:  (UPATH,R4) (PWA,R6) (*,R7) (CP,R11) (CV,R12)
0Loc    Object Code    Addr1 Addr2  Stmt Lv Lineno    Source Statement           (Hibal 5, Asmedit 3.3)  HLASM R4.0  2004/03/15 12.51
+___    ______ ____    _____ _____  ____ __ ______    ______ _________
00073CE D613 404E 404E_0004E 0004E 43666                       IF    (UPATPNAM,Z),'CLEAR R0'
 0073DA 58E0 B08C/D203_      0008C 43691                       SETSCKWS PCTLPRTB
 0073E8 9001 6014            00014 43704                       STM   R0,R1,PWAR0R1
 0073EC 41F0 0010            00010 43705                       LA    R15,16
 0073F0 18D8/9808 D004_            43706                       PEND
 DROP   *,R7
                                   43726
 0073FE 50E0 D000/9008_      00000 43727              PCTLPJOB PROC
 USING  *,R7
 007418 4110 403E/4100_      0003E 43766                       SETMSG UPATPJOB            Partner's jobname (if any)
 007420 D607 403E 403E_0003E 0003E 43780                       IF    (UPATPJOB,Z),'CLEAR R0'
 00742C 58E0 B08C/D203_      0008C 43805                       SETSCKWS PCTLPRTB
 00743A 9001 6014            00014 43818                       STM   R0,R1,PWAR0R1
 00743E 41F0 0010            00010 43819                       LA    R15,16
 007442 18D8/9808 D004_            43820                       PEND
 DROP   *,R7
                                   43840
 007450 50E0 D000/9008_      00000 43841              PCTLPLNO PROC
 USING  *,R7
 00746A 4810 403C            0003C 43880                       LH    R1,UPATPLNO         Partner's line-number (if any)
 00746E 58E0 B08C/D203_      0008C 43881                       SETSCKWS PCTLPRTB
 00747C 9001 6014            00014 43894                       STM   R0,R1,PWAR0R1
 007480 41F0 0008            00008 43895                       LA    R15,8
 007484 18D8/9808 D004_            43896                       PEND
 DROP   *,R7
                                   43916
 007492 50E0 D000/9008_      00000 43917              PCTLPASC PROC
 USING  *,R7
 0074AC 5810 4038            00038 43956                       L     R1,UPATPASC         Partner's ASCB ptr
 0074B0 58E0 B08C/D203_      0008C 43957                       SETSCKWS PCTLPRTB
 0074BE 9001 6014            00014 43970                       STM   R0,R1,PWAR0R1
 0074C2 41F0 0008            00008 43971                       LA    R15,8
 0074C6 18D8/9808 D004_            43972                       PEND
 DROP   *,R7
                                   43992
 0074D4 50E0 D000/9008_      00000 43993              PCTLINT  PROC
 USING  *,R7
 0074EE 9610 4018      00018       44032                       SET   UPATFINT
 0074F2 18D8/9808 D004_            44038                       PEND
 DROP   *,R7
                                   44058
 007500 50E0 D000/9008_      00000 44059              PCTLNINT PROC
 USING  *,R7
 00751A 94EF 4018      00018       44098                       CLEAR UPATFINT
 00751E 18D8/9808 D004_            44105                       PEND
 DROP   *,R7
                                   44125
 00752C 50E0 D000/9008_      00000 44126              PCTLNWT  PROC
 USING  *,R7
 007546 9640 4018      00018       44165                       SET   UPATFNOWAIT
 00754A 18D8/9808 D004_            44171                       PEND
 DROP   *,R7
                                   44191
 007558 50E0 D000/9008_      00000 44192              PCTLWAIT PROC
1PROC     (PROC2193) (12:51) (15MAR04) Routines for System Procedures                                                       Page  151
0Current Usings:  (UPATH,R4) (PWA,R6) (*,R7) (CP,R11) (CV,R12)
0Loc    Object Code    Addr1 Addr2  Stmt Lv Lineno    Source Statement           (Hibal 5, Asmedit 3.3)  HLASM R4.0  2004/03/15 12.51
+___    ______ ____    _____ _____  ____ __ ______    ______ _________
0USING  *,R7
 007572 9640 4018      00018       44231                       SET   UPATFNOWAIT
 007576 1200/4780 7012             44237                       IF    (R0,Z),EXIT
 00757C 94BF 4018      00018       44254                       CLEAR UPATFNOWAIT
 007580 5000 4028            00028 44261                       ST    R0,UPATWAIT
 007584 18D8/9808 D004_            44262                       PEND
 DROP   *,R7
                                   44282
 007592 50E0 D000/9008_      00000 44283              PCTLBAD  PROC
 USING  *,R7
 0075AC 1B11/1B00                  44322                       CLEAR R1,R0
 0075B0 9001 8004            00004 44328                       PRETURN (R0,R1)
 0075B4 41F0 0004            00004 44330                       LA    R15,4
 0075B8 18D8/9808 D004_            44331                       PEND
 DROP   *,R7
 DROP   PWA,R6                     44351                       DROP  R6
 DROP   UPATH,R4                   44358                       DROP  R4
1PROC     (PROC2193) (12:51) (15MAR04) Routines for System Procedures                                                       Page  152
0Current Usings:  (CP,R11) (CV,R12)
0Loc    Object Code    Addr1 Addr2  Stmt Lv Lineno    Source Statement           (Hibal 5, Asmedit 3.3)  HLASM R4.0  2004/03/15 12.51
+___    ______ ____    _____ _____  ____ __ ______    ______ _________
0                                  44366              ¿þþþþþþþþþþþþþþþþþþþþþþþþþþþþþþþþþþþþþþþþþþþþþþþþþþþþþþþþþþþþþþþþþþþþþÜ
                                   44367              Ÿ                                                                     Ÿ
                                   44368              Ÿ  PATH_OPEN(pathno, option-string [,rc])                             Ÿ
                                   44369              Ÿ                                                                     Ÿ
                                   44370              Ÿ    Open a new user path.                                            Ÿ
                                   44371              Ÿ                                                                     Ÿ
                                                      ¾þþþþþþþþþþþþþþþþþþþþþþþþþþþþþþþþþþþþþþþþþþþþþþþþþþþþþþþþþþþþþþþþþþþþþ»
00075C6 50E0 D000/9008_      00000 44372              PCPATOPN PROC  PWA
 USING  *,R7
 USING  PWA-(4+36),R8
 0075E0 D7E7 8028 8028 00000 00000 44422                       CLEAR PWA
 0075E6 D202 8028 75F0 00000 07BD0 44429                       MVC   PWA(3),=C'PWA'
 0075EC 58E0 B08C/D2AF_      0008C 44430                       SCPUSH ,
 0075FA 5000 8030            00008 44436                       ST    R0,PWANARGS         Number of arguments
 0075FE 5010 802C            00004 44437                       ST    R1,PWAARGP          Arglist ptr
 007602 4120 8028            00000 44438                       LA    R2,PWA
 007606 5020 BCA4            00CA4 44439                       ST    R2,CPCWA            Save PWA ptr
                                   44440
 00760A 4120 75F8/58E0_      07BD8 44441                       SETARGS '23ISS'           2-3 args: num, str, str
 007614 4770 7172            07752 44448                       BNZ   POPNEXIT
                                   44449
 USING  VNENTRY,R5                 44450                       WITH  (VNENTRY,R5)
                                   44463                       ¿þþþþþþþþþþþþþþþþþþÜ
                                   44464                       Ÿ  Allocate path.  Ÿ
                                   44465                       ¾þþþþþþþþþþþþþþþþþþ»
 007618 1B00                       44466                       CLEAR R0                  Normal user path
 00761A 58E0 75B4/0DEE       07B94 44470                       VCALL PATHALLO            Allocate a new PATH
 007620 4770 7116            076F6 44474                       BNZ   POPNRET             Trouble, scram
                                   44475
 007624 1841                       44476                       LR    R4,R1
 USING  UPATH,R4                   44477                       USING UPATH,R4
                                   44486                       ¿þþþþþþþþþþþþþþþþþþþþþþþþþþþÜ
                                   44487                       Ÿ  Scan PATH_OPEN options.  Ÿ
                                   44488                       ¾þþþþþþþþþþþþþþþþþþþþþþþþþþþ»
 007626 4150 0150            00150 44489                       LA    R5,ARG2
 00762A 5A50 802C            00004 44490                       A     R5,PWAARGP
 00762E 4110 5026/4800_      00026 44491                       SCINIT VNSTRLOC,LH:VNSTRLEN
 007644 5060 D000/41D0_      00000 44514                       XPUSH R6
 00764C 4160 8028            00000 44517                       LA    R6,PWA
 007650 5810 B08C/1B00_      0008C 44518                       SCAN  POPNPRT             Scan PATH_OPEN options
 0076A2 4BD0 75C6/5860_      07BA6 44550                       XPOP  R6
 0076AA 12FF/4770 710A             44553                       IF    (R15,NZ),POPNERR
                                   44570
 0076B0 9180 802B/4710_00003       44571                       IF    ~PWAFTAG,BEGIN      No tags specified...
 0076B8 4110 75FD/4100_      07BDD 44586  1                      SETMSG 'MYTAG/YOURTAG OPTION REQUIRED'
 0076C0 47F0 7116            076F6 44590  1                      B     POPNRET
 0076C4                            44591                       END
                                   44595                       ¿þþþþþþþþþþþþþþþþþþÜ
                                   44596                       Ÿ  Open the path.  Ÿ
                                   44597                       ¾þþþþþþþþþþþþþþþþþþ»
 0076C4 1B11                       44598                       CLEAR R1                  No caller ID
 0076C6 9140 B75A/47E0_0075A       44602                       IF    CPFXAUTH,'LA R1,=C"AUTH"'  Authorized exec
 0076D2 41F0 4000            00000 44623                       LA    R15,UPATH
1PROC     (PROC2193) (12:51) (15MAR04) Routines for System Procedures                                                       Page  153
0Current Usings:  (UPATH,R4) (VNENTRY,R5) (*,R7) (PWA-(4+36),R8) (CP,R11) (CV,R12)
0Loc    Object Code    Addr1 Addr2  Stmt Lv Lineno    Source Statement           (Hibal 5, Asmedit 3.3)  HLASM R4.0  2004/03/15 12.51
+___    ______ ____    _____ _____  ____ __ ______    ______ _________
00076D6 58E0 75C0/0DEE       07BA0 44624                       VCALL PATHOPEN            Open the path
 0076DC 4770 7106/D203_      076E6 44628                       IF    Z,'MVC PWAOPNO,UPATPNO'  Save path number
 0076E6 47F0 7116            076F6 44645                       B     POPNRET
                                   44646
 0076EA 4110 75CA/4100_      07BAA 44647              POPNERR  SETMSG 'INVALID OPTION'
 0076F2 47F0 7116            076F6 44651                       B     POPNRET
                                   44652                       ¿þþþþþþþþþþþþþþþþþþþþþþþþþþþþÜ
                                   44653                       Ÿ  Pass back a return code.  Ÿ
                                   44654                       ¾þþþþþþþþþþþþþþþþþþþþþþþþþþþþ»
 0076F6 D503 7584 8030_07B64 00008 44655              POPNRET  IF    (PWANARGS,GE,3),BEGIN
 007700 4126 02A0/D74F_      002A0 44674  1                      PRETVAL 3,STRING,(R1),(R0)
 DROP   VNENTRY,R5
 USING  VNENTRY,R2
 USING  VNENTRY,R5
 DROP   VNENTRY,R2
 007720                            44776                       END
                                   44780                       ¿þþþþþþþþþþþþþþþþþþþþþþþþþþþþþþþþþþþþþþþþþþþþþþþþþþþþÜ
                                   44781                       Ÿ  Return the path number or zero if not allocated.  Ÿ
                                   44782                       ¾þþþþþþþþþþþþþþþþþþþþþþþþþþþþþþþþþþþþþþþþþþþþþþþþþþþþ»
 007720 D603 8038 8038_00010 00010 44783                       IF    (PWAOPNO,Z),BEGIN   Path wasn't opened...
 00772A 41F0 4000            00000 44799  1                      LA    R15,UPATH
 00772E 58E0 7580/0DEE       07B60 44800  1                      VCALL PATHCLS             De-allocate the path number
 007734                            44804                       END
                                   44808
 007734 4126 0000/D74F_      00000 44809                       PRETVAL 1,INTEGER,L:PWAOPNO  Return the path number
 DROP   VNENTRY,R5
 USING  VNENTRY,R2
 USING  VNENTRY,R5
 DROP   VNENTRY,R2
                                   44874
 007750 1BFF                       44875                       CLEAR R15                 A-ok
                                   44879
 007752 58E0 B08C/4BD0_      0008C 44880              POPNEXIT SCPOP ,
 007760 18D8/9808 D004_            44886                       PEND
 DROP   VNENTRY,R5
 DROP   PWA-(4+36),R8
 DROP   *,R7
                                   44916              *
                                   44917              *  SCAN STUFF
                                   44918              *
 USING  PWA,R6                     44919                       USING PWA,R6
 007770 D4E8E3C1C7404040_          44928              POPNPRT  SCKW  MYTAG,POPNMY,P
 007798 E8D6E4D9E3C1C740_          44943                       SCKW  YOURTAG,POPNYOU,P
 0077C0 D7C1E2E240404040_          44958                       SCKW  PASS,POPNPASS,P
 0077E8 C2E4C6E2C9E9C540_          44973                       SCKW  BUFSIZE,POPNBUF,(P,I)
 007810 D5D6E6C1C9E34040_          44988                       SCKW  NOWAIT,POPNNWT
 007838 E6C1C9E340404040_          45003                       SCKW  WAIT,POPNWAIT,(P,I)
 007860 C8C5C1C4C5D9E240_          45018                       SCKW  HEADERS,POPNHDR,A
 007888 D5D6C8C5C1C4C5D9_          45033                       SCKW  NOHEADERS,POPNNHDR,A
 0078B0 C9D5E3C5D9D9E4D7_          45048                       SCKW  INTERRUPT,POPNINT,A
 0078D8 D5D6C9D5E3C5D9D9_          45063                       SCKW  NOINTERRUPT,POPNNINT,A
 007900 4040404040404040_          45078                       SCKW  ,POPNBAD
                                   45093              *
                                   45094              *
1PROC     (PROC2193) (12:51) (15MAR04) Routines for System Procedures                                                       Page  154
0Current Usings:  (UPATH,R4) (PWA,R6) (*,R7) (CP,R11) (CV,R12)
0Loc    Object Code    Addr1 Addr2  Stmt Lv Lineno    Source Statement           (Hibal 5, Asmedit 3.3)  HLASM R4.0  2004/03/15 12.51
+___    ______ ____    _____ _____  ____ __ ______    ______ _________
0007928 50E0 D000/9008_      00000 45095              POPNMY   PROC
 USING  *,R7
 007942 5810 B08C/4111_      0008C 45134                       SCUPTOK R1
 00794A 9680 6003      00003       45138                       SET   PWAFTAG
 00794E D207 407C 1000 0007C 00000 45144                       MVC   UPATMY,@R1
 007954 18D8/9808 D004_            45145                       PEND
 DROP   *,R7
                                   45165
 007962 50E0 D000/9008_      00000 45166              POPNYOU  PROC
 USING  *,R7
 00797C 5810 B08C/4111_      0008C 45205                       SCUPTOK R1
 007984 9680 6003      00003       45209                       SET   PWAFTAG
 007988 9620 408C      0008C       45215                       SET   UPATMFL.UPATMNAM    Specific YOURTAG specified
 00798C D207 4084 1000 00084 00000 45222                       MVC   UPATYOU,@R1
 007992 18D8/9808 D004_            45223                       PEND
 DROP   *,R7
                                   45243
 0079A0 50E0 D000/9008_      00000 45244              POPNPASS PROC
 USING  *,R7
 0079BA 5810 B08C/4111_      0008C 45283                       SCUPTOK R1
 0079C2 D203 4098 1000 00098 00000 45287                       MVC   UPATPASS,@R1
 0079C8 18D8/9808 D004_            45288                       PEND
 DROP   *,R7
                                   45308
 0079D6 50E0 D000/9008_      00000 45309              POPNBUF  PROC
 USING  *,R7
 0079F0 5000 4090            00090 45348                       ST    R0,UPATBUF
 0079F4 18D8/9808 D004_            45349                       PEND
 DROP   *,R7
                                   45369
 007A02 50E0 D000/9008_      00000 45370              POPNNWT  PROC
 USING  *,R7
 007A1C 9640 4018      00018       45409                       SET   UPATFNOWAIT
 007A20 18D8/9808 D004_            45415                       PEND
 DROP   *,R7
                                   45435
 007A2E 50E0 D000/9008_      00000 45436              POPNWAIT PROC
 USING  *,R7
 007A48 9640 4018      00018       45475                       SET   UPATFNOWAIT
 007A4C 1200/4780 7012             45481                       IF    (R0,Z),EXIT
 007A52 94BF 4018      00018       45498                       CLEAR UPATFNOWAIT
 007A56 5000 4028            00028 45505                       ST    R0,UPATWAIT
 007A5A 18D8/9808 D004_            45506                       PEND
 DROP   *,R7
                                   45526
 007A68 50E0 D000/9008_      00000 45527              POPNHDR  PROC
 USING  *,R7
 007A82 9608 4018      00018       45566                       SET   UPATFHDR
 007A86 18D8/9808 D004_            45572                       PEND
 DROP   *,R7
                                   45592
 007A94 50E0 D000/9008_      00000 45593              POPNNHDR PROC
 USING  *,R7
 007AAE 94F7 4018      00018       45632                       CLEAR UPATFHDR
1PROC     (PROC2193) (12:51) (15MAR04) Routines for System Procedures                                                       Page  155
0Current Usings:  (UPATH,R4) (PWA,R6) (CP,R11) (CV,R12)
0Loc    Object Code    Addr1 Addr2  Stmt Lv Lineno    Source Statement           (Hibal 5, Asmedit 3.3)  HLASM R4.0  2004/03/15 12.51
+___    ______ ____    _____ _____  ____ __ ______    ______ _________
0007AB2 18D8/9808 D004_            45639                       PEND
 DROP   *,R7
                                   45659
 007AC0 50E0 D000/9008_      00000 45660              POPNINT  PROC
 USING  *,R7
 007ADA 9610 4018      00018       45699                       SET   UPATFINT
 007ADE 18D8/9808 D004_            45705                       PEND
 DROP   *,R7
                                   45725
 007AEC 50E0 D000/9008_      00000 45726              POPNNINT PROC
 USING  *,R7
 007B06 94EF 4018      00018       45765                       CLEAR UPATFINT
 007B0A 18D8/9808 D004_            45772                       PEND
 DROP   *,R7
                                   45792
 007B18 50E0 D000/9008_      00000 45793              POPNBAD  PROC
 USING  *,R7
 007B32 41F0 0004            00004 45832                       LA    R15,4
 007B36 18D8/9808 D004_            45833                       PEND
 DROP   *,R7
 DROP   PWA,R6                     45853                       DROP  R6
 DROP   UPATH,R4                   45860                       DROP  R4
                                   45867
                                   45868                       QLTORG
1PROC     (PROC2193) (12:51) (15MAR04) Routines for System Procedures                                                       Page  156
0Current Usings:  (CP,R11) (CV,R12)
0Loc    Object Code    Addr1 Addr2  Stmt Lv Lineno    Source Statement           (Hibal 5, Asmedit 3.3)  HLASM R4.0  2004/03/15 12.51
+___    ______ ____    _____ _____  ____ __ ______    ______ _________
0                                  45916              ¿þþþþþþþþþþþþþþþþþþþþþþþþþþþþþþþþþþþþþþþþþþþþþþþþþþþþþþþþþþþþþþþþþþþþþÜ
                                   45917              Ÿ                                                                     Ÿ
                                   45918              Ÿ  PATH_READ(pathno, option-string, read-string [,rc])                Ÿ
                                   45919              Ÿ                                                                     Ÿ
                                   45920              Ÿ    Read data from the user path.                                    Ÿ
                                   45921              Ÿ                                                                     Ÿ
                                                      ¾þþþþþþþþþþþþþþþþþþþþþþþþþþþþþþþþþþþþþþþþþþþþþþþþþþþþþþþþþþþþþþþþþþþþþ»
0007C12 50E0 D000/9008_      00000 45922              PCPATRD  PROC  PWA
 USING  *,R7
 USING  PWA-(4+36),R8
 007C2C D7E7 8028 8028 00000 00000 45972                       CLEAR PWA
 007C32 D202 8028 777E 00000 083AA 45979                       MVC   PWA(3),=C'PWA'
 007C38 58E0 B08C/D2AF_      0008C 45980                       SCPUSH ,
 007C46 5000 8030            00008 45986                       ST    R0,PWANARGS         Number of arguments
 007C4A 5010 802C            00004 45987                       ST    R1,PWAARGP          Arglist ptr
 007C4E 4120 8028            00000 45988                       LA    R2,PWA
 007C52 5020 BCA4            00CA4 45989                       ST    R2,CPCWA
                                   45990
 007C56 4120 775C/58E0_      08388 45991                       SETARGS '34ISSS'          3-4 args: num, str, str, str
 007C60 4770 718C            07DB8 45998                       BNZ   PRDEXIT
                                   45999
 USING  VNENTRY,R5                 46000                       WITH  (VNENTRY,R5)
                                   46013
 007C64 4151 0000            00000 46014                       LA    R5,ARG1(R1)
                                   46015
 007C68 D503 7720 8030_0834C 00008 46016                       IF    (PWANARGS,GE,3),BEGIN
 007C72 4126 02A0/D74F_      002A0 46034  1                      PRETVAL 3,STRING,0,0      Pre-set null string (neatness)
 DROP   VNENTRY,R5
 USING  VNENTRY,R2
 USING  VNENTRY,R5
 DROP   VNENTRY,R2
 007C96                            46136                       END
                                   46140
 007C96 5800 5024            00024 46141                       L     R0,VNVALUE          Path number specified
 007C9A 58E0 7724/0DEE       08350 46142                       VCALL PATHGET             Get PATH address
 007CA0 4770 7160            07D8C 46146                       BNZ   PRDRET              Trouble, scram
 007CA4 1841                       46147                       LR    R4,R1
 USING  UPATH,R4                   46148                       USING UPATH,R4
                                   46157                       ¿þþþþþþþþþþþþþþþþþþþþþþþþþþþÜ
                                   46158                       Ÿ  Scan PATH_READ options.  Ÿ
                                   46159                       ¾þþþþþþþþþþþþþþþþþþþþþþþþþþþ»
 007CA6 4150 0150            00150 46160                       LA    R5,ARG2
 007CAA 5A50 802C            00004 46161                       A     R5,PWAARGP
 007CAE 4110 5026/4800_      00026 46162                       SCINIT VNSTRLOC,LH:VNSTRLEN
 007CC4 5060 D000/41D0_      00000 46185                       XPUSH R6
 007CCC 4160 8028            00000 46188                       LA    R6,PWA
 007CD0 5810 B08C/1B00_      0008C 46189                       SCAN  PRDPRT              Scan PATH_READ options
 007D22 4BD0 7764/5860_      08390 46221                       XPOP  R6
 007D2A 12FF/4770 7154             46224                       IF    (R15,NZ),PRDERR
1PROC     (PROC2193) (12:51) (15MAR04) Routines for System Procedures                                                       Page  157
0Current Usings:  (UPATH,R4) (VNENTRY,R5) (*,R7) (PWA-(4+36),R8) (CP,R11) (CV,R12)
0Loc    Object Code    Addr1 Addr2  Stmt Lv Lineno    Source Statement           (Hibal 5, Asmedit 3.3)  HLASM R4.0  2004/03/15 12.51
+___    ______ ____    _____ _____  ____ __ ______    ______ _________
0                                  46241                       ¿þþþþþþþþþþþþþþþþþþþþþþþþþþþþþþþÜ
                                   46242                       Ÿ  Now read the data (if any).  Ÿ
                                   46243                       ¾þþþþþþþþþþþþþþþþþþþþþþþþþþþþþþþ»
 007D30 41F0 4000            00000 46244                       LA    R15,UPATH
 007D34 58E0 7730/0DEE       0835C 46245                       VCALL PATHREAD            Get the next line of data
 007D3A 4770 7160            07D8C 46249                       BNZ   PRDRET              Trouble, scram
                                   46250
 007D3E 5900 7734/47D0_      08360 46251                       CEIL  R0,MAXSTRLN         Not too long now
                                   46270
 007D4A D503 7720 8030_0834C 00008 46271                       IF    (PWANARGS,GE,3),BEGIN
 007D54 4126 02A0/D74F_      002A0 46289  1                      PRETVAL 3,STRING,(R1),(R0)  Return the line
 DROP   VNENTRY,R5
 USING  VNENTRY,R2
 USING  VNENTRY,R5
 DROP   VNENTRY,R2
 007D74                            46391                       END
                                   46395
 007D74 4110 7766/4100_      08392 46396                       SETMSG 'OK'
 007D7C 47F0 7160            07D8C 46400                       B     PRDRET
                                   46401
 007D80 4110 7768/4100_      08394 46402              PRDERR   SETMSG 'INVALID OPTION'
 007D88 47F0 7160            07D8C 46406                       B     PRDRET
                                   46407                       ¿þþþþþþþþþþþþþþþþþþþþþþþþþþþþÜ
                                   46408                       Ÿ  Pass back a return code.  Ÿ
                                   46409                       ¾þþþþþþþþþþþþþþþþþþþþþþþþþþþþ»
 007D8C D503 7738 8030_08364 00008 46410              PRDRET   IF    (PWANARGS,GE,4),BEGIN
 007D96 4126 03F0/D74F_      003F0 46429  1                      PRETVAL 4,STRING,(R1),(R0)
 DROP   VNENTRY,R5
 USING  VNENTRY,R2
 USING  VNENTRY,R5
 DROP   VNENTRY,R2
 007DB6                            46531                       END
                                   46535
 007DB6 1BFF                       46536                       CLEAR R15                 A-ok
                                   46540
 007DB8 58E0 B08C/4BD0_      0008C 46541              PRDEXIT  SCPOP ,
 007DC6 18D8/9808 D004_            46547                       PEND
 DROP   VNENTRY,R5
 DROP   PWA-(4+36),R8
 DROP   *,R7
                                   46577                       ¿þþþþþþþþþþþþþþþþþþþþþþÜ
                                   46578                       Ÿ  PATH_READ Options.  Ÿ
                                   46579                       ¾þþþþþþþþþþþþþþþþþþþþþþ»
 USING  PWA,R6                     46580                       USING PWA,R6
 007DD4 D5D6E6C1C9E34040_          46589              PRDPRT   SCKW  NOWAIT,PRDNWT
 007DFC E6C1C9E340404040_          46604                       SCKW  WAIT,PRDWAIT,(P,I)
 007E24 4040404040404040_          46619                       SCKW  ,PRDBAD
                                   46634
 007E4C 50E0 D000/9008_      00000 46635              PRDNWT   PROC
 USING  *,R7
 007E66 9640 4018      00018       46674                       SET   UPATFNOWAIT
 007E6A 18D8/9808 D004_            46680                       PEND
 DROP   *,R7
                                   46700
1PROC     (PROC2193) (12:51) (15MAR04) Routines for System Procedures                                                       Page  158
0Current Usings:  (UPATH,R4) (PWA,R6) (*,R7) (CP,R11) (CV,R12)
0Loc    Object Code    Addr1 Addr2  Stmt Lv Lineno    Source Statement           (Hibal 5, Asmedit 3.3)  HLASM R4.0  2004/03/15 12.51
+___    ______ ____    _____ _____  ____ __ ______    ______ _________
0007E78 50E0 D000/9008_      00000 46701              PRDWAIT  PROC
 USING  *,R7
 007E92 9640 4018      00018       46740                       SET   UPATFNOWAIT
 007E96 1200/4780 7012             46746                       IF    (R0,Z),EXIT
 007E9C 94BF 4018      00018       46763                       CLEAR UPATFNOWAIT
 007EA0 5000 4028            00028 46770                       ST    R0,UPATWAIT
 007EA4 18D8/9808 D004_            46771                       PEND
 DROP   *,R7
                                   46791
 007EB2 50E0 D000/9008_      00000 46792              PRDBAD   PROC
 USING  *,R7
 007ECC 41F0 0004            00004 46831                       LA    R15,4
 007ED0 18D8/9808 D004_            46832                       PEND
 DROP   *,R7
 DROP   PWA,R6                     46852                       DROP  R6
 DROP   UPATH,R4                   46859                       DROP  R4
1PROC     (PROC2193) (12:51) (15MAR04) Routines for System Procedures                                                       Page  159
0Current Usings:  (CP,R11) (CV,R12)
0Loc    Object Code    Addr1 Addr2  Stmt Lv Lineno    Source Statement           (Hibal 5, Asmedit 3.3)  HLASM R4.0  2004/03/15 12.51
+___    ______ ____    _____ _____  ____ __ ______    ______ _________
0                                  46867              ¿þþþþþþþþþþþþþþþþþþþþþþþþþþþþþþþþþþþþþþþþþþþþþþþþþþþþþþþþþþþþþþþþþþþþþÜ
                                   46868              Ÿ                                                                     Ÿ
                                   46869              Ÿ  PATH_READFILE(pathno [,option-string] [,count] [,rc])              Ÿ
                                   46870              Ÿ                                                                     Ÿ
                                   46871              Ÿ    Read data from the user path.                                    Ÿ
                                   46872              Ÿ                                                                     Ÿ
                                                      ¾þþþþþþþþþþþþþþþþþþþþþþþþþþþþþþþþþþþþþþþþþþþþþþþþþþþþþþþþþþþþþþþþþþþþþ»
0007EDE 50E0 D000/9008_      00000 46873              PCPATRDF PROC  PWA
 USING  *,R7
 USING  PWA-(4+36),R8
 007EF8 D7E7 8028 8028 00000 00000 46923                       CLEAR PWA
 007EFE D202 8028 74B2 00000 083AA 46930                       MVC   PWA(3),=C'PWA'
 007F04 58E0 B08C/D2AF_      0008C 46931                       SCPUSH ,
 007F12 5000 8030            00008 46937                       ST    R0,PWANARGS         Number of arguments
 007F16 5010 802C            00004 46938                       ST    R1,PWAARGP          Arglist ptr
 007F1A 4120 8028            00000 46939                       LA    R2,PWA
 007F1E 5020 BCA4            00CA4 46940                       ST    R2,CPCWA
                                   46941
 007F22 4120 74AC/58E0_      083A4 46942                       SETARGS '14ISIS'          1-4 args: num, str, num, str
 007F2C 4770 7204            080FC 46949                       BNZ   PRFEXIT             Arglist error, scram
                                   46950
 007F30 5000 8030            00008 46951                       ST    R0,PWANARGS         Save number of args specified
 USING  VNENTRY,R5                 46952                       WITH  (VNENTRY,R5)
                                   46965
 007F34 4151 0000            00000 46966                       LA    R5,ARG1(R1)
                                   46967
 007F38 5800 5024            00024 46968                       L     R0,VNVALUE          Path number specified
 007F3C 58E0 7458/0DEE       08350 46969                       VCALL PATHGET             Get PATH address
 007F42 4770 71B2            080AA 46973                       BNZ   PRFRET              Trouble, scram
 007F46 1841                       46974                       LR    R4,R1
 USING  UPATH,R4                   46975                       USING UPATH,R4
                                   46984                       ¿þþþþþþþþþþþþþþþþþþþþþþþþþþþþþþþÜ
                                   46985                       Ÿ  Scan PATH_READFILE options.  Ÿ
                                   46986                       ¾þþþþþþþþþþþþþþþþþþþþþþþþþþþþþþþ»
 007F48 58E0 7470/0DEE       08368 46987                       VCALL ENDLNO              Get END lineno
 007F4E 5000 8044            0001C 46991                       ST    R0,PWALNO           Set default starting point
                                   46992
 007F52 1B00/1B11                  46993                       CLEAR R0,R1
 007F56 D503 7474 8030_0836C 00008 46999                       IF    (PWANARGS,GE,2),BEGIN  We have an option string...
 007F60 4150 0150            00150 47017  1                      LA    R5,ARG2
 007F64 5A50 802C            00004 47018  1                      A     R5,PWAARGP
 007F68 4110 5026/4800_      00026 47019  1                      SETMSG VNSTRLOC,LH:VNSTRLEN
 007F70                            47032                       END
 007F70 58E0 B08C/501E_      0008C 47036                       SCINIT (R1),(R0)
 007F7E 5060 D000/41D0_      00000 47056                       XPUSH R6
 007F86 4160 8028            00000 47059                       LA    R6,PWA
 007F8A 5810 B08C/1B00_      0008C 47060                       SCAN  PRFPRT              Scan PATH_READFILE options
 007FDC 4BD0 7498/5860_      08390 47092                       XPOP  R6
 007FE4 12FF/4770 71A6             47095                       IF    (R15,NZ),PRFERR
1PROC     (PROC2193) (12:51) (15MAR04) Routines for System Procedures                                                       Page  160
0Current Usings:  (UPATH,R4) (VNENTRY,R5) (*,R7) (PWA-(4+36),R8) (CP,R11) (CV,R12)
0Loc    Object Code    Addr1 Addr2  Stmt Lv Lineno    Source Statement           (Hibal 5, Asmedit 3.3)  HLASM R4.0  2004/03/15 12.51
+___    ______ ____    _____ _____  ____ __ ______    ______ _________
0                                  47112                       ¿þþþþþþþþþþþþþþþþþþþþþþþþþþþþþþþÜ
                                   47113                       Ÿ  Now read the data (if any).  Ÿ
                                   47114                       ¾þþþþþþþþþþþþþþþþþþþþþþþþþþþþþþþ»
 007FEA 41F0 4000            00000 47115              PRFMORE  LA    R15,UPATH
 007FEE 58E0 7464/0DEE       0835C 47116                       VCALL PATHREAD            Get the next line
 007FF4 4770 71B2            080AA 47120                       BNZ   PRFRET              Trouble, scram
                                   47121                       ¿þþþþþþþþþþþþþþþþþþþþþþþþþþþþþþþþþþþþþþþþþþþÜ
                                   47122                       Ÿ  See if it is an "end-of-file" sequence.  Ÿ
                                   47123                       ¾þþþþþþþþþþþþþþþþþþþþþþþþþþþþþþþþþþþþþþþþþþþ»
 007FF8 5900 7468/47D0_      08360 47124                       CEIL  R0,MAXSTRLN         Not too long
 008004 58E0 747C/0DEE       08374 47143                       VCALL RTRIM               Throw away trailing blanks
                                   47147
 00800A 9140 802B/47E0_00003       47148                       IF    PWAFEOF,BEGIN       Check for end of file line...
 008012 48F0 8050            00028 47163  1                      LH    R15,PWAEOFL         Length of eof chars
 008016 19F0/4770 7146             47164  1                      IF    (R15,NE,R0),EXIT    No match possible, forget it
                                   47182  1
 00801C 12FF/4780 713A             47183  1                      IF    (R15,Z),PRFEOFMA    Eof on null line
                                   47200  1
 008022 06F0/12FF/4740_            47201  1                      CMPR  R15,PWAEOF,@R1      End of file?
 00802E 4770 7146            0803E 47239  1                      IF    EQ,BEGIN            Yes...
 008032 4110 74B5/4100_      083AD 47250  2           PRFEOFMA     SETMSG 'EOF'
 00803A 47F0 71B2            080AA 47254  2                        B     PRFRET
 00803E                            47255  1                      END
 00803E                            47259                       END
                                   47263                       ¿þþþþþþþþþþþþþþþþþþþþþþþþþþþþþþþþþþþþþþþþþÜ
                                   47264                       Ÿ  Add the data line to the Active file.  Ÿ
                                   47265                       ¾þþþþþþþþþþþþþþþþþþþþþþþþþþþþþþþþþþþþþþþþþ»
 00803E 58F0 8044            0001C 47266                       L     R15,PWALNO
 008042 55F0 C15C/47D0_      0015C 47267                       IF    (R15,LGT,CVMAXLNO),BEGIN  Invalid lineno...
 00804A 4110 74B8/4100_      083B0 47284  1                      SETMSG 'INVALID LINE-NUMBER'
 008052 47F0 71B2            080AA 47288  1                      B     PRFRET
 008056                            47289                       END
                                   47293
 008056 58E0 7480/0DEE       08378 47294                       VCALL PUTLINE             Add response line
 00805C 41F0 0001/5EF0_      00001 47298                       INCR  R15,PWACOUNT        Number of lines written so far
                                   47304                       ¿þþþþþþþþþþþþþþþþþþþþþþþþþþþþþþþþþþþþþþþþþþþþþþþþþþþþþþþþþÜ
                                   47305                       Ÿ  If a COUNT was specified see if we have exhausted it.  Ÿ
                                   47306                       ¾þþþþþþþþþþþþþþþþþþþþþþþþþþþþþþþþþþþþþþþþþþþþþþþþþþþþþþþþþ»
 008068 D603 8048 8048_00020 00020 47307                       IF    (PWAREMCT,NZ),BEGIN
 008072 58F0 8048/06F0_      00020 47323  1                      DECR  R15,PWAREMCT        One less line now
 00807C 12FF/47B0 7196_            47328  1                      IF    (R15,NEG),'SETMSG "COUNT EXHAUSTED"; B PRFRET'
 00808E                            47352                       END
                                   47356
 00808E 58F0 8044            0001C 47357                       L     R15,PWALNO
 008092 5AF0 B738            00738 47358                       A     R15,CPDELTA
 008096 50F0 8044            0001C 47359                       ST    R15,PWALNO          Update working lineno
 00809A 47F0 70F2            07FEA 47360                       B     PRFMORE
                                   47361
 00809E 4110 749C/4100_      08394 47362              PRFERR   SETMSG 'INVALID OPTION'
 0080A6 47F0 71B2            080AA 47366                       B     PRFRET
1PROC     (PROC2193) (12:51) (15MAR04) Routines for System Procedures                                                       Page  161
0Current Usings:  (UPATH,R4) (VNENTRY,R5) (*,R7) (PWA-(4+36),R8) (CP,R11) (CV,R12)
0Loc    Object Code    Addr1 Addr2  Stmt Lv Lineno    Source Statement           (Hibal 5, Asmedit 3.3)  HLASM R4.0  2004/03/15 12.51
+___    ______ ____    _____ _____  ____ __ ______    ______ _________
0                                  47367                       ¿þþþþþþþþþþþþþþþþþþþþþþþþþþþþÜ
                                   47368                       Ÿ  Pass back a return code.  Ÿ
                                   47369                       ¾þþþþþþþþþþþþþþþþþþþþþþþþþþþþ»
 0080AA D503 746C 8030_08364 00008 47370              PRFRET   IF    (PWANARGS,GE,4),BEGIN
 0080B4 4126 03F0/D74F_      003F0 47389  1                      PRETVAL 4,STRING,(R1),(R0)
 DROP   VNENTRY,R5
 USING  VNENTRY,R2
 USING  VNENTRY,R5
 DROP   VNENTRY,R2
 0080D4                            47491                       END
                                   47495                       ¿þþþþþþþþþþþþþþþþþþþþþþþþþþþþþþþþþþþþþþþþþþþþÜ
                                   47496                       Ÿ  Also pass back the number of lines read.  Ÿ
                                   47497                       ¾þþþþþþþþþþþþþþþþþþþþþþþþþþþþþþþþþþþþþþþþþþþþ»
 0080D4 D503 7454 8030_0834C 00008 47498                       IF    (PWANARGS,GE,3),BEGIN
 0080DE 4126 02A0/D74F_      002A0 47516  1                      PRETVAL 3,INTEGER,L:PWACOUNT
 DROP   VNENTRY,R5
 USING  VNENTRY,R2
 USING  VNENTRY,R5
 DROP   VNENTRY,R2
 0080FA                            47581                       END
                                   47585
 0080FA 1BFF                       47586                       CLEAR R15                 A-ok
                                   47590
 0080FC 58E0 B08C/4BD0_      0008C 47591              PRFEXIT  SCPOP ,
 00810A 18D8/9808 D004_            47597                       PEND
 DROP   VNENTRY,R5
 DROP   PWA-(4+36),R8
 DROP   *,R7
                                   47627                       ¿þþþþþþþþþþþþþþþþþþþþþþþþþþÜ
                                   47628                       Ÿ  PATH_READFILE Options.  Ÿ
                                   47629                       ¾þþþþþþþþþþþþþþþþþþþþþþþþþþ»
 USING  PWA,R6                     47630                       USING PWA,R6
 008118 D5D6E6C1C9E34040_          47639              PRFPRT   SCKW  NOWAIT,PRFNWT
 008140 E6C1C9E340404040_          47654                       SCKW  WAIT,PRFWAIT,(P,I)
 008168 C3D6E4D5E3404040_          47669                       SCKW  COUNT,PRFREMCT,(P,PI)
 008190 E2E3C1D9E3404040_          47684                       SCKW  START,PRFSTART,(P,LN)
 0081B8 C5D6C64040404040_          47699                       SCKW  EOF,PRFEOF,P
 0081E0 4040404040404040_          47714                       SCKW  ,PRFBAD
                                   47729              *
                                   47730              *
 008208 50E0 D000/9008_      00000 47731              PRFNWT   PROC
 USING  *,R7
 008222 9640 4018      00018       47770                       SET   UPATFNOWAIT
 008226 18D8/9808 D004_            47776                       PEND
 DROP   *,R7
                                   47796
 008234 50E0 D000/9008_      00000 47797              PRFWAIT  PROC
 USING  *,R7
 00824E 9640 4018      00018       47836                       SET   UPATFNOWAIT
 008252 1200/4780 7012             47842                       IF    (R0,Z),EXIT
 008258 94BF 4018      00018       47859                       CLEAR UPATFNOWAIT
 00825C 5000 4028            00028 47866                       ST    R0,UPATWAIT
 008260 18D8/9808 D004_            47867                       PEND
 DROP   *,R7
1PROC     (PROC2193) (12:51) (15MAR04) Routines for System Procedures                                                       Page  162
0Current Usings:  (UPATH,R4) (PWA,R6) (CP,R11) (CV,R12)
0Loc    Object Code    Addr1 Addr2  Stmt Lv Lineno    Source Statement           (Hibal 5, Asmedit 3.3)  HLASM R4.0  2004/03/15 12.51
+___    ______ ____    _____ _____  ____ __ ______    ______ _________
0                                  47887
 00826E 50E0 D000/9008_      00000 47888              PRFREMCT PROC
 USING  *,R7
 008288 5000 6020            00020 47927                       ST    R0,PWAREMCT
 00828C 18D8/9808 D004_            47928                       PEND
 DROP   *,R7
                                   47948
 00829A 50E0 D000/9008_      00000 47949              PRFSTART PROC
 USING  *,R7
 0082B4 5000 601C            0001C 47988                       ST    R0,PWALNO
 0082B8 18D8/9808 D004_            47989                       PEND
 DROP   *,R7
                                   48009
 0082C6 50E0 D000/9008_      00000 48010              PRFEOF   PROC
 USING  *,R7
 0082E0 9640 6003      00003       48049                       SET   PWAFEOF
 0082E4 58F0 B08C/4110_      0008C 48055                       SCDQUOTE PWAEOF,L'PWAEOF
 0082F6 5900 70A4/47D0_      08384 48078                       CEIL  R0,L'PWAEOF
 008302 4000 6028            00028 48097                       STH   R0,PWAEOFL
 008306 1BFF                       48098                       CLEAR R15
 008308 18D8/9808 D004_            48102                       PEND
 DROP   *,R7
                                   48122
 008316 50E0 D000/9008_      00000 48123              PRFBAD   PROC
 USING  *,R7
 008330 41F0 0004            00004 48162                       LA    R15,4
 008334 18D8/9808 D004_            48163                       PEND
 DROP   *,R7
 DROP   PWA,R6                     48183                       DROP  R6
 DROP   UPATH,R4                   48190                       DROP  R4
                                   48197
                                   48198                       QLTORG
1PROC     (PROC2193) (12:51) (15MAR04) Routines for System Procedures                                                       Page  163
0Current Usings:  (CP,R11) (CV,R12)
0Loc    Object Code    Addr1 Addr2  Stmt Lv Lineno    Source Statement           (Hibal 5, Asmedit 3.3)  HLASM R4.0  2004/03/15 12.51
+___    ______ ____    _____ _____  ____ __ ______    ______ _________
0                                  48238              ¿þþþþþþþþþþþþþþþþþþþþþþþþþþþþþþþþþþþþþþþþþþþþþþþþþþþþþþþþþþþþþþþþþþþþþÜ
                                   48239              Ÿ                                                                     Ÿ
                                   48240              Ÿ  PATH_STATUS(pathno, option-string [,rc])                           Ÿ
                                   48241              Ÿ                                                                     Ÿ
                                   48242              Ÿ    Get current status of user path.                                 Ÿ
                                   48243              Ÿ                                                                     Ÿ
                                                      ¾þþþþþþþþþþþþþþþþþþþþþþþþþþþþþþþþþþþþþþþþþþþþþþþþþþþþþþþþþþþþþþþþþþþþþ»
00083F0 50E0 D000/9008_      00000 48244              PCPATST  PROC  PWA
 USING  *,R7
 USING  PWA-(4+36),R8
 00840A D7E7 8028 8028 00000 00000 48294                       CLEAR PWA
 008410 D202 8028 794C 00000 08D56 48301                       MVC   PWA(3),=C'PWA'
 008416 58E0 B08C/D2AF_      0008C 48302                       SCPUSH ,
 008424 5000 8030            00008 48308                       ST    R0,PWANARGS         Number of arguments
 008428 5010 802C            00004 48309                       ST    R1,PWAARGP          Arglist ptr
 00842C 4120 8028            00000 48310                       LA    R2,PWA
 008430 5020 BCA4            00CA4 48311                       ST    R2,CPCWA
                                   48312
 008434 4120 790A/58E0_      08D14 48313                       SETARGS '23ISSS'          2-3 args: num, str, str
 00843E 4770 7160            0856A 48320                       BNZ   PSTEXIT
                                   48321
 USING  VNENTRY,R5                 48322                       WITH  (VNENTRY,R5)
                                   48335
 008442 4151 0000            00000 48336                       LA    R5,ARG1(R1)
 008446 5800 5024            00024 48337                       L     R0,VNVALUE          Path number specified
 00844A 58E0 789A/0DEE       08CA4 48338                       VCALL PATHGET             Get PATH address
 008450 4770 7134            0853E 48342                       BNZ   PSTRET              Trouble, scram
                                   48343
 008454 1841                       48344                       LR    R4,R1
 USING  UPATH,R4                   48345                       USING UPATH,R4
                                   48354
 008456 4150 0150            00150 48355                       LA    R5,ARG2
 00845A 5A50 802C            00004 48356                       A     R5,PWAARGP
 00845E 4110 5026/4800_      00026 48357                       SCINIT VNSTRLOC,LH:VNSTRLEN
 008474 D203 BCC8 789E 00CC8 08CA8 48380                       MVC   CPSCNERT,=A(PSTERR)
 00847A 9640 BCD0      00CD0       48381                       SET   CPSCNFLG.CPFRTNER
 00847E 5060 D000/41D0_      00000 48388                       XPUSH R6
 008486 4160 8028            00000 48391                       LA    R6,PWA
 00848A 5810 B08C/1B00_      0008C 48392                       SCAN  PSTPRT              Scan PATH_STATUS options
 0084DC 4BD0 7912/5860_      08D1C 48424                       XPOP  R6
 0084E4 12FF/4770 7128             48427                       IF    (R15,NZ),PSTERR
                                   48444                       ¿þþþþþþþþþþþþþþþþþþþþþþþþþþþþþÜ
                                   48445                       Ÿ  See if we have read data.  Ÿ
                                   48446                       ¾þþþþþþþþþþþþþþþþþþþþþþþþþþþþþ»
 0084EA 41F0 4000            00000 48447                       LA    R15,UPATH
 0084EE 58E0 78AA/0DEE       08CB4 48448                       VCALL PATHRDCK            Get any read ptrs
                                   48452                       ¿þþþþþþþþþþþþþþþþþþþþþþþþþþþþþþþþþþÜ
                                   48453                       Ÿ  Return the status of the path.  Ÿ
                                   48454                       ¾þþþþþþþþþþþþþþþþþþþþþþþþþþþþþþþþþþ»
 0084F4 4110 794F/4100_      08D59 48455                       SETMSG 'READY'
 0084FC 9120 4018/47E0_00018       48459                       IF    UPATFOPENING,'SETMSG "NO PARTNER"'
 00850C 9180 40AC/47E0_000AC       48483                       IF    UPATSFLG.UPATFCLS,'SETMSG "PARTNER CLOSED"'
 00851C D603 4030 4030_00030 00030 48508                       IF    (UPATDLEN,NZ),'SETMSG "DATA WAITING"'
1PROC     (PROC2193) (12:51) (15MAR04) Routines for System Procedures                                                       Page  164
0Current Usings:  (UPATH,R4) (VNENTRY,R5) (*,R7) (PWA-(4+36),R8) (CP,R11) (CV,R12)
0Loc    Object Code    Addr1 Addr2  Stmt Lv Lineno    Source Statement           (Hibal 5, Asmedit 3.3)  HLASM R4.0  2004/03/15 12.51
+___    ______ ____    _____ _____  ____ __ ______    ______ _________
0                                  48533
 00852E 47F0 7134            0853E 48534                       B     PSTRET
                                   48535
 008532 4110 792C/4100_      08D36 48536              PSTERR   SETMSG 'INVALID OPTION'
 00853A 47F0 7134            0853E 48540                       B     PSTRET
                                   48541                       ¿þþþþþþþþþþþþþþþþþþþþþþþþþþþþÜ
                                   48542                       Ÿ  Pass back a return code.  Ÿ
                                   48543                       ¾þþþþþþþþþþþþþþþþþþþþþþþþþþþþ»
 00853E D503 78BA 8030_08CC4 00008 48544              PSTRET   IF    (PWANARGS,GE,3),BEGIN
 008548 4126 02A0/D74F_      002A0 48563  1                      PRETVAL 3,STRING,(R1),(R0)
 DROP   VNENTRY,R5
 USING  VNENTRY,R2
 USING  VNENTRY,R5
 DROP   VNENTRY,R2
 008568                            48665                       END
                                   48669
 008568 1BFF                       48670                       CLEAR R15                 A-ok
                                   48674
 00856A 58E0 B08C/4BD0_      0008C 48675              PSTEXIT  SCPOP ,
 008578 18D8/9808 D004_            48681                       PEND
 DROP   VNENTRY,R5
 DROP   PWA-(4+36),R8
 DROP   *,R7
                                   48711                       ¿þþþþþþþþþþþþþþþþþþþþþþþþÜ
                                   48712                       Ÿ  PATH_STATUS Options.  Ÿ
                                   48713                       ¾þþþþþþþþþþþþþþþþþþþþþþþþ»
 USING  PWA,R6                     48714                       USING PWA,R6
 008588 4040404040404040_          48723              PSTPRT   SCKW  ,PSTBAD
                                   48738
 0085B0 50E0 D000/9008_      00000 48739              PSTBAD   PROC
 USING  *,R7
 0085CA 41F0 0004            00004 48778                       LA    R15,4
 0085CE 18D8/9808 D004_            48779                       PEND
 DROP   *,R7
 DROP   PWA,R6                     48799                       DROP  R6
 DROP   UPATH,R4                   48806                       DROP  R4
1PROC     (PROC2193) (12:51) (15MAR04) Routines for System Procedures                                                       Page  165
0Current Usings:  (CP,R11) (CV,R12)
0Loc    Object Code    Addr1 Addr2  Stmt Lv Lineno    Source Statement           (Hibal 5, Asmedit 3.3)  HLASM R4.0  2004/03/15 12.51
+___    ______ ____    _____ _____  ____ __ ______    ______ _________
0                                  48814              ¿þþþþþþþþþþþþþþþþþþþþþþþþþþþþþþþþþþþþþþþþþþþþþþþþþþþþþþþþþþþþþþþþþþþþþÜ
                                   48815              Ÿ                                                                     Ÿ
                                   48816              Ÿ  PATH_WRITE(pathno, option-string, write-string [,rc])              Ÿ
                                   48817              Ÿ                                                                     Ÿ
                                   48818              Ÿ    Write data to the user path.                                     Ÿ
                                   48819              Ÿ                                                                     Ÿ
                                                      ¾þþþþþþþþþþþþþþþþþþþþþþþþþþþþþþþþþþþþþþþþþþþþþþþþþþþþþþþþþþþþþþþþþþþþþ»
00085DC 50E0 D000/9008_      00000 48820              PCPATWR  PROC  PWA
 USING  *,R7
 USING  PWA-(4+36),R8
 0085F6 D7E7 8028 8028 00000 00000 48870                       CLEAR PWA
 0085FC D202 8028 7760 00000 08D56 48877                       MVC   PWA(3),=C'PWA'
 008602 58E0 B08C/D2AF_      0008C 48878                       SCPUSH ,
 008610 5000 8030            00008 48884                       ST    R0,PWANARGS         Number of arguments
 008614 5010 802C            00004 48885                       ST    R1,PWAARGP          Arglist ptr
 008618 4120 8028            00000 48886                       LA    R2,PWA
 00861C 5020 BCA4            00CA4 48887                       ST    R2,CPCWA
                                   48888
 008620 4120 7750/58E0_      08D46 48889                       SETARGS '34ISSS'          3-4 args: num, str, str, str
 00862A 4770 719A            08790 48896                       BNZ   PWREXIT
                                   48897
 USING  VNENTRY,R5                 48898                       WITH  (VNENTRY,R5)
                                   48911
 00862E 4151 0000            00000 48912                       LA    R5,ARG1(R1)
 008632 5800 5024            00024 48913                       L     R0,VNVALUE          Path number specified
 008636 58E0 76AE/0DEE       08CA4 48914                       VCALL PATHGET             Get PATH address
 00863C 4770 716E            08764 48918                       BNZ   PWRRET              Trouble, scram
 008640 1841                       48919                       LR    R4,R1
 USING  UPATH,R4                   48920                       USING UPATH,R4
                                   48929                       ¿þþþþþþþþþþþþþþþþþþþþþþþþþþþþÜ
                                   48930                       Ÿ  Scan PATH_WRITE options.  Ÿ
                                   48931                       ¾þþþþþþþþþþþþþþþþþþþþþþþþþþþþ»
 008642 4150 0150            00150 48932                       LA    R5,ARG2
 008646 5A50 802C            00004 48933                       A     R5,PWAARGP
 00864A 4110 5026/4800_      00026 48934                       SCINIT VNSTRLOC,LH:VNSTRLEN
 008660 D203 BCC8 76D2 00CC8 08CC8 48957                       MVC   CPSCNERT,=A(PWRERR)
 008666 9640 BCD0      00CD0       48958                       SET   CPSCNFLG.CPFRTNER
 00866A 5060 D000/41D0_      00000 48965                       XPUSH R6
 008672 4160 8028            00000 48968                       LA    R6,PWA
 008676 5810 B08C/1B00_      0008C 48969                       SCAN  PWRPRT              Scan PATH_WRITE options
 0086C8 4BD0 7726/5860_      08D1C 49001                       XPOP  R6
 0086D0 12FF/4770 7162             49004                       IF    (R15,NZ),PWRERR
                                   49021                       ¿þþþþþþþþþþþþþþþþþþþþþþþþþþþþþÜ
                                   49022                       Ÿ  Now send the transaction.  Ÿ
                                   49023                       ¾þþþþþþþþþþþþþþþþþþþþþþþþþþþþþ»
 0086D6 4150 02A0            002A0 49024                       LA    R5,ARG3
 0086DA 5A50 802C            00004 49025                       A     R5,PWAARGP
                                   49026
 0086DE 4100 0FA0            00FA0 49027                       LA    R0,PWABUFLN
 0086E2 58E0 76DA/0DEE       08CD0 49028                       VCALL GETHEAP             Get work buffer
 0086E8 41F0 80D4/58E0_      000AC 49032                       SEGINIT (R1),(R0),PWASG,RTNTYPE=V,RTN=PATHSEG
 008700 5040 810C            000E4 49070                       ST    R4,PWASGUSR         Save UPATH ptr in SEGCB
                                   49071
1PROC     (PROC2193) (12:51) (15MAR04) Routines for System Procedures                                                       Page  166
0Current Usings:  (UPATH,R4) (VNENTRY,R5) (*,R7) (PWA-(4+36),R8) (CP,R11) (CV,R12)
0Loc    Object Code    Addr1 Addr2  Stmt Lv Lineno    Source Statement           (Hibal 5, Asmedit 3.3)  HLASM R4.0  2004/03/15 12.51
+___    ______ ____    _____ _____  ____ __ ______    ______ _________
0008704 9108 4018/47E0_00018       49072                       IF    UPATFHDR,BEGIN      Use headers...
 00870C 4110 7756/4100_      08D4C 49087  1                      SEG   =X'0000',2          (High order part of len word)
 00871E 4110 5024/4100_      00024 49116  1                      SEG   VNSTRLEN            Length
 008730                            49143                       END
                                   49147
 008730 4110 5026/4800_      00026 49148                       SEGWR VNSTRLOC,LH:VNSTRLEN  Line data
 008742 9801 4020            00020 49175                       LM    R0,R1,UPATRCMP      Get return code string (if any)
 008746 1200/4770 715E_            49176                       IF    (R0,Z),'SETMSG "OK"'
 008754 47F0 716E            08764 49199                       B     PWRRET
                                   49200
 008758 4110 7740/4100_      08D36 49201              PWRERR   SETMSG 'INVALID OPTION'
 008760 47F0 716E            08764 49205                       B     PWRRET
                                   49206                       ¿þþþþþþþþþþþþþþþþþþþþþþþþþþþþÜ
                                   49207                       Ÿ  Pass back a return code.  Ÿ
                                   49208                       ¾þþþþþþþþþþþþþþþþþþþþþþþþþþþþ»
 008764 D503 76F2 8030_08CE8 00008 49209              PWRRET   IF    (PWANARGS,GE,4),BEGIN
 00876E 4126 03F0/D74F_      003F0 49228  1                      PRETVAL 4,STRING,(R1),(R0)
 DROP   VNENTRY,R5
 USING  VNENTRY,R2
 USING  VNENTRY,R5
 DROP   VNENTRY,R2
 00878E                            49330                       END
                                   49334
 00878E 1BFF                       49335                       CLEAR R15                 A-ok
                                   49339
 008790 58E0 B08C/4BD0_      0008C 49340              PWREXIT  SCPOP ,
 00879E 18D8/9808 D004_            49346                       PEND
 DROP   VNENTRY,R5
 DROP   PWA-(4+36),R8
 DROP   *,R7
                                   49376                       ¿þþþþþþþþþþþþþþþþþþþþþþþÜ
                                   49377                       Ÿ  PATH_WRITE Options.  Ÿ
                                   49378                       ¾þþþþþþþþþþþþþþþþþþþþþþþ»
 USING  PWA,R6                     49379                       USING PWA,R6
 0087AC D5D6E6C1C9E34040_          49388              PWRPRT   SCKW  NOWAIT,PWRNWT
 0087D4 E6C1C9E340404040_          49403                       SCKW  WAIT,PWRWAIT,(P,I)
 0087FC 4040404040404040_          49418                       SCKW  ,PWRBAD
                                   49433
 008824 50E0 D000/9008_      00000 49434              PWRNWT   PROC
 USING  *,R7
 00883E 9640 4018      00018       49473                       SET   UPATFNOWAIT
 008842 18D8/9808 D004_            49479                       PEND
 DROP   *,R7
                                   49499
 008850 50E0 D000/9008_      00000 49500              PWRWAIT  PROC
 USING  *,R7
 00886A 9640 4018      00018       49539                       SET   UPATFNOWAIT
 00886E 1200/4780 7012             49545                       IF    (R0,Z),EXIT
 008874 94BF 4018      00018       49562                       CLEAR UPATFNOWAIT
 008878 5000 4028            00028 49569                       ST    R0,UPATWAIT
 00887C 18D8/9808 D004_            49570                       PEND
 DROP   *,R7
                                   49590
 00888A 50E0 D000/9008_      00000 49591              PWRBAD   PROC
1PROC     (PROC2193) (12:51) (15MAR04) Routines for System Procedures                                                       Page  167
0Current Usings:  (UPATH,R4) (PWA,R6) (*,R7) (CP,R11) (CV,R12)
0Loc    Object Code    Addr1 Addr2  Stmt Lv Lineno    Source Statement           (Hibal 5, Asmedit 3.3)  HLASM R4.0  2004/03/15 12.51
+___    ______ ____    _____ _____  ____ __ ______    ______ _________
0USING  *,R7
 0088A4 41F0 0004            00004 49630                       LA    R15,4
 0088A8 18D8/9808 D004_            49631                       PEND
 DROP   *,R7
 DROP   PWA,R6                     49651                       DROP  R6
 DROP   UPATH,R4                   49658                       DROP  R4
1PROC     (PROC2193) (12:51) (15MAR04) Routines for System Procedures                                                       Page  168
0Current Usings:  (CP,R11) (CV,R12)
0Loc    Object Code    Addr1 Addr2  Stmt Lv Lineno    Source Statement           (Hibal 5, Asmedit 3.3)  HLASM R4.0  2004/03/15 12.51
+___    ______ ____    _____ _____  ____ __ ______    ______ _________
0                                  49666              ¿þþþþþþþþþþþþþþþþþþþþþþþþþþþþþþþþþþþþþþþþþþþþþþþþþþþþþþþþþþþþþþþþþþþþþÜ
                                   49667              Ÿ                                                                     Ÿ
                                   49668              Ÿ  PATH_WRITEFILE(pathno [,option-string] [,line-count] [,rc])        Ÿ
                                   49669              Ÿ                                                                     Ÿ
                                   49670              Ÿ    Write data to the user path.                                     Ÿ
                                   49671              Ÿ                                                                     Ÿ
                                                      ¾þþþþþþþþþþþþþþþþþþþþþþþþþþþþþþþþþþþþþþþþþþþþþþþþþþþþþþþþþþþþþþþþþþþþþ»
00088B6 50E0 D000/9008_      00000 49672              PCPATWRF PROC  PWA
 USING  *,R7
 USING  PWA-(4+36),R8
 0088D0 D7E7 8028 8028 00000 00000 49722                       CLEAR PWA
 0088D6 D202 8028 7486 00000 08D56 49729                       MVC   PWA(3),=C'PWA'
 0088DC 58E0 B08C/D2AF_      0008C 49730                       SCPUSH ,
 0088EA 5000 8030            00008 49736                       ST    R0,PWANARGS         Number of arguments
 0088EE 5010 802C            00004 49737                       ST    R1,PWAARGP          Arglist ptr
 0088F2 4120 8028            00000 49738                       LA    R2,PWA
 0088F6 5020 BCA4            00CA4 49739                       ST    R2,CPCWA
                                   49740
 0088FA 4120 7480/58E0_      08D50 49741                       SETARGS '14ISIS'          1-4 args: num, str, str, str
 008904 4770 71BE            08A8E 49748                       BNZ   PWFEXIT             Arglist error, scram
                                   49749
 USING  VNENTRY,R5                 49750                       WITH  (VNENTRY,R5)
                                   49763
 008908 4151 0000            00000 49764                       LA    R5,ARG1(R1)
 00890C 5800 5024            00024 49765                       L     R0,VNVALUE          Path number specified
 008910 58E0 73D4/0DEE       08CA4 49766                       VCALL PATHGET             Get PATH address
 008916 4770 716C            08A3C 49770                       BNZ   PWFRET              Trouble, scram
 00891A 1841                       49771                       LR    R4,R1
 USING  UPATH,R4                   49772                       USING UPATH,R4
                                   49781                       ¿þþþþþþþþþþþþþþþþþþþþþþþþþþþþþþþþÜ
                                   49782                       Ÿ  Scan PATH_WRITEFILE options.  Ÿ
                                   49783                       ¾þþþþþþþþþþþþþþþþþþþþþþþþþþþþþþþþ»
 00891C 1B11/1B00                  49784                       CLEAR R1,R0
 008920 D503 741C 8030_08CEC 00008 49790                       IF    (PWANARGS,GE,2),BEGIN  We have an option string...
 00892A 4150 0150            00150 49808  1                      LA    R5,ARG2
 00892E 5A50 802C            00004 49809  1                      A     R5,PWAARGP
 008932 4110 5026/4800_      00026 49810  1                      SETMSG VNSTRLOC,LH:VNSTRLEN
 00893A                            49823                       END
 00893A 58E0 B08C/501E_      0008C 49827                       SCINIT (R1),(R0)
 008948 D203 BCC8 7420 00CC8 08CF0 49847                       MVC   CPSCNERT,=A(PWFERR)
 00894E 9640 BCD0      00CD0       49848                       SET   CPSCNFLG.CPFRTNER
                                   49855
 008952 9610 BD50      00D50       49856                       SET   CPLFLG1.CPFALL      Default range is ALL
                                   49863
 008956 5060 D000/41D0_      00000 49864                       XPUSH R6
 00895E 4160 8028            00000 49867                       LA    R6,PWA
 008962 5810 B08C/1B00_      0008C 49868                       SCAN  PWFPRT              Scan PATH_WRITEFILE options
 0089B4 4BD0 744C/5860_      08D1C 49900                       XPOP  R6
 0089BC 12FF/4770 7160             49903                       IF    (R15,NZ),PWFERR
                                   49920
 0089C2 9120 802B/4710_00003       49921                       IF    ~PWAFLINS,'VCALL NDETRNG'  Make default range
1PROC     (PROC2193) (12:51) (15MAR04) Routines for System Procedures                                                       Page  169
0Current Usings:  (UPATH,R4) (VNENTRY,R5) (*,R7) (PWA-(4+36),R8) (CP,R11) (CV,R12)
0Loc    Object Code    Addr1 Addr2  Stmt Lv Lineno    Source Statement           (Hibal 5, Asmedit 3.3)  HLASM R4.0  2004/03/15 12.51
+___    ______ ____    _____ _____  ____ __ ______    ______ _________
0                                  49945                       ¿þþþþþþþþþþþþþþþþþþþþþþþþþþþþþþþþþÜ
                                   49946                       Ÿ  Now write the range of lines.  Ÿ
                                   49947                       ¾þþþþþþþþþþþþþþþþþþþþþþþþþþþþþþþþþ»
 0089D0 4100 0FA0            00FA0 49948                       LA    R0,PWABUFLN
 0089D4 58E0 7400/0DEE       08CD0 49949                       VCALL GETHEAP             Get work buffer
 0089DA 41F0 80D4/58E0_      000AC 49953                       SEGINIT (R1),(R0),PWASG,RTNTYPE=V,RTN=PATHSEG  Init seg
 0089F2 5040 810C            000E4 49991                       ST    R4,PWASGUSR         Save UPATH ptr in SEGCB
                                   49992
 0089F6 5800 742C/5810_      08CFC 49993                       RDRNG PWFRTN,(DESRTRN+LOCATRTN+UNPRST)
 008A04 41F0 B050/58E0_      00050 50000                       TCLEAR ,                  (Zot any pending msgs)
                                   50014
 008A0E 1B00/41F0 80D4_            50015                       SEGWR
 008A1A 9801 4020            00020 50039                       LM    R0,R1,UPATRCMP      Get return code string (if any)
 008A1E 1200/4770 715C_            50040                       IF    (R0,Z),'SETMSG "OK"'
 008A2C 47F0 716C            08A3C 50063                       B     PWFRET
                                   50064
 008A30 4110 7466/4100_      08D36 50065              PWFERR   SETMSG 'INVALID OPTION'
 008A38 47F0 716C            08A3C 50069                       B     PWFRET
                                   50070                       ¿þþþþþþþþþþþþþþþþþþþþþþþþþþþþÜ
                                   50071                       Ÿ  Pass back a return code.  Ÿ
                                   50072                       ¾þþþþþþþþþþþþþþþþþþþþþþþþþþþþ»
 008A3C D503 7418 8030_08CE8 00008 50073              PWFRET   IF    (PWANARGS,GE,4),BEGIN
 008A46 4126 03F0/D74F_      003F0 50092  1                      PRETVAL 4,STRING,(R1),(R0)
 DROP   VNENTRY,R5
 USING  VNENTRY,R2
 USING  VNENTRY,R5
 DROP   VNENTRY,R2
 008A66                            50194                       END
                                   50198                       ¿þþþþþþþþþþþþþþþþþþþþþþþþþþþþþþþþþþþþþþþþþþþþþþþÜ
                                   50199                       Ÿ  Also pass back the number of lines written.  Ÿ
                                   50200                       ¾þþþþþþþþþþþþþþþþþþþþþþþþþþþþþþþþþþþþþþþþþþþþþþþ»
 008A66 D503 73F4 8030_08CC4 00008 50201                       IF    (PWANARGS,GE,3),BEGIN
 008A70 4126 02A0/D74F_      002A0 50219  1                      PRETVAL 3,INTEGER,L:PWACOUNT  Number of lines written
 DROP   VNENTRY,R5
 USING  VNENTRY,R2
 USING  VNENTRY,R5
 DROP   VNENTRY,R2
 008A8C                            50284                       END
                                   50288
 008A8C 1BFF                       50289                       CLEAR R15                 A-ok
                                   50293
 008A8E 58E0 B08C/4BD0_      0008C 50294              PWFEXIT  SCPOP ,
 008A9C 18D8/9808 D004_            50300                       PEND
 DROP   VNENTRY,R5
 DROP   PWA-(4+36),R8
 DROP   *,R7
                                   50330                       ¿þþþþþþþþþþþþþþþþþþþþþþþþþþþÜ
                                   50331                       Ÿ  PATH_WRITEFILE Options.  Ÿ
                                   50332                       ¾þþþþþþþþþþþþþþþþþþþþþþþþþþþ»
 USING  PWA,R6                     50333                       USING PWA,R6
 008AAC D5D6E6C1C9E34040_          50342              PWFPRT   SCKW  NOWAIT,PWFNWT
 008AD4 E6C1C9E340404040_          50357                       SCKW  WAIT,PWFWAIT,(P,I)
 008AFC D3C9D5C5E2404040_          50372                       SCKW  LINES,PWFLINES
 008B24 4040404040404040_          50387                       SCKW  ,PWFBAD
1PROC     (PROC2193) (12:51) (15MAR04) Routines for System Procedures                                                       Page  170
0Current Usings:  (UPATH,R4) (PWA,R6) (CP,R11) (CV,R12)
0Loc    Object Code    Addr1 Addr2  Stmt Lv Lineno    Source Statement           (Hibal 5, Asmedit 3.3)  HLASM R4.0  2004/03/15 12.51
+___    ______ ____    _____ _____  ____ __ ______    ______ _________
0                                  50402
 008B4C 50E0 D000/9008_      00000 50403              PWFNWT   PROC
 USING  *,R7
 008B66 9640 4018      00018       50442                       SET   UPATFNOWAIT
 008B6A 18D8/9808 D004_            50448                       PEND
 DROP   *,R7
                                   50468
 008B78 50E0 D000/9008_      00000 50469              PWFWAIT  PROC
 USING  *,R7
 008B92 9640 4018      00018       50508                       SET   UPATFNOWAIT
 008B96 1200/4780 7012             50514                       IF    (R0,Z),EXIT
 008B9C 94BF 4018      00018       50531                       CLEAR UPATFNOWAIT
 008BA0 5000 4028            00028 50538                       ST    R0,UPATWAIT
 008BA4 18D8/9808 D004_            50539                       PEND
 DROP   *,R7
                                   50559
 008BB2 50E0 D000/9008_      00000 50560              PWFLINES PROC
 USING  *,R7
 008BCC 9620 6003      00003       50599                       SET   PWAFLINS
 008BD0 58E0 712C/0DEE       08CF8 50605                       VCALL NDETRNG
 008BD6 1BFF                       50609                       CLEAR R15
 008BD8 18D8/9808 D004_            50613                       PEND
 DROP   *,R7
                                   50633
 008BE6 50E0 D000/9008_      00000 50634              PWFBAD   PROC
 USING  *,R7
 008C00 41F0 0004            00004 50673                       LA    R15,4
 008C04 18D8/9808 D004_            50674                       PEND
 DROP   *,R7
 DROP   PWA,R6                     50694                       DROP  R6
 DROP   UPATH,R4                   50701                       DROP  R4
1PROC     (PROC2193) (12:51) (15MAR04) Routines for System Procedures                                                       Page  171
0Current Usings:  (CP,R11) (CV,R12)
0Loc    Object Code    Addr1 Addr2  Stmt Lv Lineno    Source Statement           (Hibal 5, Asmedit 3.3)  HLASM R4.0  2004/03/15 12.51
+___    ______ ____    _____ _____  ____ __ ______    ______ _________
0                                  50709              ¿þþþþþþþþþþþþþþþþþþþþþþþþþþþþþþþþþþþþþþþþþþþþþþþþþþþþþþþþþþþþþþþþþþþþþÜ
                                   50710              Ÿ                                                                     Ÿ
                                   50711              Ÿ  PWFRTN -- Range processor co-routine to send any lines found       Ÿ
                                   50712              Ÿ    across the Suzan path.                                           Ÿ
                                   50713              Ÿ                                                                     Ÿ
                                   50714              Ÿ    On entry:                                                        Ÿ
                                   50715              Ÿ      R1,R0 - line loc, len                                          Ÿ
                                   50716              Ÿ                                                                     Ÿ
                                                      ¾þþþþþþþþþþþþþþþþþþþþþþþþþþþþþþþþþþþþþþþþþþþþþþþþþþþþþþþþþþþþþþþþþþþþþ»
0000000                00000 00004 50717              PWFXWA   RECORD BEGIN
 000000                            50725  1           PWFXWORD   DS    F                   Temporary word
 000004                00004 00004 50726                       END
                                   50735              þþþþ
 008C12 50E0 D000/9008_      00000 50736              PWFRTN   PROC  PWFXWA
 USING  *,R7
 USING  PWFXWA-(4+36),R8
 008C2C 5860 BCA4            00CA4 50786                       L     R6,CPCWA
 USING  PWA,R6                     50787                       WITH  (PWA,R6)
 008C30 D502 712A 6000_08D56 00000 50800                       FAIL  (PWA,NE,'PWA'),PATHERR1,'User path logic problem.'
                                   50829
 008C52 1831                       50830                       LR    R3,R1
 008C54 1820                       50831                       LR    R2,R0
 008C56 5000 8028            00000 50832                       ST    R0,PWFXWORD
 008C5A 4110 8028/4100_      00000 50833                       SEG   PWFXWORD            Length
 008C6C 1813/1802/41F0_            50860                       SEG   (R3),(R2)           Text (if any)
 008C7A 41F0 60AC/58E0_      000AC 50885                       SEGMARK
                                   50898
 008C84 41F0 0001/5EF0_      00001 50899                       INCR  R15,PWACOUNT        Count number of lines
 008C90 18D8/9808 D004_            50905                       PEND
 DROP   PWA,R6
 DROP   PWFXWA-(4+36),R8
 DROP   *,R7
                                   50935
                                   50936                       QLTORG
1PROC     (PROC2193) (12:51) (15MAR04) Routines for System Procedures                                                       Page  172
0Current Usings:  (CP,R11) (CV,R12)
0Loc    Object Code    Addr1 Addr2  Stmt Lv Lineno    Source Statement           (Hibal 5, Asmedit 3.3)  HLASM R4.0  2004/03/15 12.51
+___    ______ ____    _____ _____  ____ __ ______    ______ _________
0                                  50989              ¿þþþþþþþþþþþþþþþþþþþþþþþþþþþþþþþþþþþþþþþþþþþþþþþþþþþþþþþþþþþþþþþþþþþþþÜ
                                   50990              Ÿ                                                                     Ÿ
                                   50991              Ÿ  QUERY_FETCH(sno, rc, var1, var2, ...)                              Ÿ
                                   50992              Ÿ                                                                     Ÿ
                                   50993              Ÿ    Fetch the next row of a table from the server.                   Ÿ
                                   50994              Ÿ                                                                     Ÿ
                                                      ¾þþþþþþþþþþþþþþþþþþþþþþþþþþþþþþþþþþþþþþþþþþþþþþþþþþþþþþþþþþþþþþþþþþþþþ»
0000000                00000 00018 50995              QFWA     RECORD BEGIN
 000000                            51003  1           QFARGP     DS    A                   Argument list ptr
 000004                            51004  1           QFNARGS    DS    F                   Number of args passed
 000008                            51005  1           QFPARMP    DS    A                   Return parameter area ptr
 00000C                            51006  1           QFCURARG   DS    F                   Current argument number
                                   51007  1
 000010                            51008  1           QFPTRS     DS    2F                  Data buffer ptrs
 000018                00018 00018 51009                       END
                                   51018              þþþþ
 008D70 50E0 D000/9008_      00000 51019              PCQFETCH PROC  QFWA
 USING  *,R7
 USING  QFWA-(4+36),R8
 008D8A 5000 802C            00004 51069                       ST    R0,QFNARGS          Number of arguments
 008D8E 5010 8028            00000 51070                       ST    R1,QFARGP           Arglist ptr
 008D92 5060 8030            00008 51071                       ST    R6,QFPARMP          Return param area ptr
 008D96 D203 8034 774E 0000C 094D8 51072                       MVC   QFCURARG,=F'2'      Set current arg (for QFETSAVE)
 008D9C 4120 8028            00000 51073                       LA    R2,QFWA
 008DA0 5020 BCA4            00CA4 51074                       ST    R2,CPCWA            Save QFWA ptr
                                   51075
 008DA4 4120 77B0/58E0_      0953A 51076                       SETARGS '28ISSSSSSSS'     2-8 args
 008DAE 4770 70A0            08E2A 51083                       BNZ   QFEXIT
                                   51084
 USING  VNENTRY,R5                 51085                       WITH  (VNENTRY,R5)
 008DB2 4151 0000            00000 51098                       LA    R5,ARG1(R1)
 008DB6 58F0 5024            00024 51099                       L     R15,VNVALUE         Server number specified
 008DBA 58E0 7756/0DEE       094E0 51100                       VCALL QFETLINE            Get next line
 008DC0 9001 8038            00010 51104                       STM   R0,R1,QFPTRS        Save data buffer ptrs
                                   51105                       ¿þþþþþþþþþþþþþþþþþþþþþþþþþþþþþþþþþþþþþþþþþþþþþþþþþþþþþþþþþþÜ
                                   51106                       Ÿ  The data is returned as tab separated fields.  We save  Ÿ
                                   51107                       Ÿ    the fields in the the variables, one at a time.       Ÿ
                                   51108                       ¾þþþþþþþþþþþþþþþþþþþþþþþþþþþþþþþþþþþþþþþþþþþþþþþþþþþþþþþþþþ»
 008DC4 1200/47D0 708E             51109                       WHILE (R0,POS),BEGIN      Still more...
 008DCA D503 8034 802C_0000C 00004 51125  1                      IF    (QFCURARG,GE,QFNARGS),BEGIN  Remainder in last arg...
 008DD4 58E0 775A/0DEE       094E4 51143  2                        ACALL QFETSAVE            Save everything in last arg
 008DDA 1BFF                       51147  2                        CLEAR R15                 A-ok
 008DDC 47F0 70A0            08E2A 51151  2                        B     QFEXIT              All done
 008DE0                            51152  1                      END
                                   51156  1
 008DE0 1821                       51157  1                      LR    R2,R1               Save start of field ptr
 008DE2 1200/47D0 7070_            51158  1                      WHILE ((R0,POS),AND,(@R1,NE,$TAB)),'LA R1,@R1+1; DECR R0'
 008DFA 9001 8038            00010 51199  1                      STM   R0,R1,QFPTRS        Save updated ptrs
 008DFE 1801                       51200  1                      LR    R0,R1
 008E00 1B02                       51201  1                      SR    R0,R2
 008E02 1812                       51202  1                      LR    R1,R2               R1,R0 = field loc, len
 008E04 58E0 775A/0DEE       094E4 51203  1                      ACALL QFETSAVE            Save this field
                                   51207  1
1PROC     (PROC2193) (12:51) (15MAR04) Routines for System Procedures                                                       Page  173
0Current Usings:  (VNENTRY,R5) (*,R7) (QFWA-(4+36),R8) (CP,R11) (CV,R12)
0Loc    Object Code    Addr1 Addr2  Stmt Lv Lineno    Source Statement           (Hibal 5, Asmedit 3.3)  HLASM R4.0  2004/03/15 12.51
+___    ______ ____    _____ _____  ____ __ ______    ______ _________
0008E0A 9801 8038            00010 51208  1                      LM    R0,R1,QFPTRS        Get data buffer ptrs
 008E0E 4110 1001            00001 51209  1                      LA    R1,@R1+1
 008E12 0600                       51210  1                      DECR  R0                  Skip first/next tab
 008E14 47F0 703A            08DC4 51212                       END
                                   51217                       ¿þþþþþþþþþþþþþþþþþþþþþþþþþþþþþþþþþþþþþþþþþþþþþþþþþþþþþþþÜ
                                   51218                       Ÿ  Set null values for variables which are not needed.  Ÿ
                                   51219                       ¾þþþþþþþþþþþþþþþþþþþþþþþþþþþþþþþþþþþþþþþþþþþþþþþþþþþþþþþ»
 008E18 1B00/58E0 775A_            51220                       WHILE ('CLEAR R0; ACALL QFETSAVE',Z),''
                                   51248
 008E28 1BFF                       51249                       CLEAR R15                 A-ok
                                   51253
 008E2A 18D8/9808 D004_            51254              QFEXIT   PEND
 DROP   VNENTRY,R5
 DROP   QFWA-(4+36),R8
 DROP   *,R7
1PROC     (PROC2193) (12:51) (15MAR04) Routines for System Procedures                                                       Page  174
0Current Usings:  (CP,R11) (CV,R12)
0Loc    Object Code    Addr1 Addr2  Stmt Lv Lineno    Source Statement           (Hibal 5, Asmedit 3.3)  HLASM R4.0  2004/03/15 12.51
+___    ______ ____    _____ _____  ____ __ ______    ______ _________
0                                  51286              ¿þþþþþþþþþþþþþþþþþþþþþþþþþþþþþþþþþþþþþþþþþþþþþþþþþþþþþþþþþþþþþþþþþþþþþÜ
                                   51287              Ÿ                                                                     Ÿ
                                   51288              Ÿ  QFETSAVE -- Local routine to save the string passed into           Ÿ
                                   51289              Ÿ    the next variable in the list.                                   Ÿ
                                   51290              Ÿ                                                                     Ÿ
                                   51291              Ÿ    On entry:                                                        Ÿ
                                   51292              Ÿ       R1,R0 - variable value (loc, len)                             Ÿ
                                   51293              Ÿ       QFCURARG - current argument number                            Ÿ
                                   51294              Ÿ                                                                     Ÿ
                                   51295              Ÿ    On exit, R15 (and cc):                                           Ÿ
                                   51296              Ÿ       0 - ok                                                        Ÿ
                                   51297              Ÿ       4 - no more variables in the list                             Ÿ
                                   51298              Ÿ                                                                     Ÿ
                                                      ¾þþþþþþþþþþþþþþþþþþþþþþþþþþþþþþþþþþþþþþþþþþþþþþþþþþþþþþþþþþþþþþþþþþþþþ»
0008E38 50E0 D000/9008_      00000 51299              QFETSAVE PROC
 USING  *,R7
 008E52 5860 BCA4            00CA4 51338                       L     R6,CPCWA
 USING  QFWA,R6                    51339                       WITH  (QFWA,R6)
                                   51352
 008E56 5900 7696/47D0_      094E8 51353                       CEIL  R0,MAXSTRLN         Truncate string to max
                                   51372                       ¿þþþþþþþþþþþþþþþþþþþþþþþþþþþþþþþþþþþþþþþþþþþþþþþþÜ
                                   51373                       Ÿ  Save the next variable in our argument list.  Ÿ
                                   51374                       ¾þþþþþþþþþþþþþþþþþþþþþþþþþþþþþþþþþþþþþþþþþþþþþþþþ»
 008E62 5850 600C            0000C 51375                       L     R5,QFCURARG         Current argument number
 008E66 5950 6004/4730_      00004 51376                       IF    (R5,LE,QFNARGS),BEGIN  We have a variable...
 008E6E 0650                       51393  1                      DECR  R5
 008E70 4C50 76DA            0952C 51395  1                      MH    R5,=AL2(L'VPARM)
 008E74 5A50 6008            00008 51396  1                      A     R5,QFPARMP          Form current VNENTRY ptr
 USING  VNENTRY,R5                 51397  1                      WITH  (VNENTRY,R5)
 008E78 D74F 5000 5000 00000 00000 51410  1                      CLEAR VNENTRY
 008E7E 9201 5020      00020       51417  1                      SET   VNSTRING            Set string type
                                   51423  1                      SETMSG (R1),(R0)           String
 008E82 4000 5024            00024 51433  1                      STH   R0,VNSTRLEN         Save string length
 008E86 18F0                       51434  1                      LR    R15,R0
 008E88 06F0/12FF/4740_            51435  1                      MOVE  R15,VNSTRLOC,@R1    Save string value
                                   51473  1
 008E94 4150 0001/5E50_      00001 51474  1                      INCR  R5,QFCURARG         Kick argument number
                                   51480  1
 008EA0 1BFF                       51481  1                      CLEAR R15                 A-ok
 DROP   VNENTRY,R5                 51485                       END
                                   51494                       ¿þþþþþþþþþþþþþþþþþþþþþþþþþþþþþþþþþþþÜ
                                   51495                       Ÿ  No more variables, we are done.  Ÿ
                                   51496                       ¾þþþþþþþþþþþþþþþþþþþþþþþþþþþþþþþþþþþ»
 008EA2 7054/47F0 7058 08EA2 08E6C 51497                       ELSE  BEGIN               All done...
 008EA6 41F0 0004            00004 51508  1                      LA    R15,4               No more variables
 008EAA                            51509                       END
                                   51513
 008EAA 18D8/9808 D004_            51514                       PEND
 DROP   QFWA,R6
 DROP   *,R7
1PROC     (PROC2193) (12:51) (15MAR04) Routines for System Procedures                                                       Page  175
0Current Usings:  (CP,R11) (CV,R12)
0Loc    Object Code    Addr1 Addr2  Stmt Lv Lineno    Source Statement           (Hibal 5, Asmedit 3.3)  HLASM R4.0  2004/03/15 12.51
+___    ______ ____    _____ _____  ____ __ ______    ______ _________
0                                  51540              ¿þþþþþþþþþþþþþþþþþþþþþþþþþþþþþþþþþþþþþþþþþþþþþþþþþþþþþþþþþþþþþþþþþþþþþÜ
                                   51541              Ÿ                                                                     Ÿ
                                   51542              Ÿ  RPC_DISPLAY_ROWS(first-lineno, last-lineno)                        Ÿ
                                   51543              Ÿ                                                                     Ÿ
                                   51544              Ÿ    This is a special SYSCALL for the Wylbur RPC server.             Ÿ
                                   51545              Ÿ                                                5/91, Niz            Ÿ
                                   51546              Ÿ                                                                     Ÿ
                                   51547              Ÿ  SEE COMMENTS AT START OF MODULE                                    Ÿ
                                   51548              Ÿ                                                                     Ÿ
                                                      ¾þþþþþþþþþþþþþþþþþþþþþþþþþþþþþþþþþþþþþþþþþþþþþþþþþþþþþþþþþþþþþþþþþþþþþ»
0000000                00000 00130 51549              DRWA     RECORD BEGIN
 000000                            51557  1           DRLNO1     DS    F                   First lineno of range
 000004                            51558  1           DRLNO2     DS    F                   Last lineno of range
                                   51559  1           DRTEXT     DS    CL(&LINESZ)         Working line area
 000008                                   1          +DRTEXT     DS    CL(235)             Working line area
                                   51560  1           DRSG       SEGCB
 0000F4 00                         51561  1 01-SEGCB +$$$SEGCB1318   DS 0F
 DRSGCOD.DRSGSEG   01 EQ
 DRSGCOD.DRSGWR    02 EQ
 DRSGCOD.DRSGCLR   03 EQ
 DRSGCOD.DRSGSPP   04 EQ
 DRSGCOD.DRSGOVF   05 EQ
 DRSGCOD.DRSGCR    06 EQ
 DRSGCOD.DRSGMAR   07 EQ
 0000F5 00                         51636  1 01-SEGCB +           DC    X'00'               Reserved
 0000F6 0000                              1          +
 0000F8 00000000                   51637  1 01-SEGCB +DRSGMAXF   DC    A(0)                Maximum buffer length
 0000FC 00000000                   51638  1 01-SEGCB +DRSGMRKF   DC    A(0)                Length at last mark
 000100 00000000                   51639  1 01-SEGCB +DRSGLENF   DC    A(0)                Current length
 000104 00000000                   51640  1 01-SEGCB +DRSGINDF   DC    A(0)                Overflow/indent count
 000108 00000000                   51641  1 01-SEGCB +DRSGERR    DC    A(0)                Address of error recovery routine
 00010C 0000000000000000           51642  1 01-SEGCB +           DC    2F'0'               Reserved
 000114 00000000                   51643  1 01-SEGCB +DRSGLOC    DC    A(0)                Location of buffer
 000118 00000000                   51644  1 01-SEGCB +DRSGRTN    DC    A(0)                Processing routine
 00011C 0000000000000000           51645  1 01-SEGCB +           DC    4F'0'               Reserved
 00012C 00000000                   51646  1 01-SEGCB +DRSGUSR    DC    A(0)                USER field
                                   51647  1 01-SEGCB +DRSG       EQU   $$$SEGCB1318,*-$$$SEGCB1318,C'X'
                                   51648  1           DRBUFL#    EQU   4000,,C'N'          Seg buffer length
 000130                00130 00130 51649                       END
                                   51658              þþþþ
 008EB8 50E0 D000/9008_      00000 51659              PCDISROW PROC  DRWA
 USING  *,R7
 USING  DRWA-(4+36),R8
                                   51709                       ¿þþþþþþþþþþþþþþþþÜ
                                   51710                       Ÿ  Check parms.  Ÿ
                                   51711                       ¾þþþþþþþþþþþþþþþþ»
 008ED2 4120 761A/58E0_      094EC 51712                       SETARGS '22WW'            2 ARGS: BOTH LINE NUMBERS
 008EDC 4770 71DC            090AE 51719                       BNZ   DISREXIT
1PROC     (PROC2193) (12:51) (15MAR04) Routines for System Procedures                                                       Page  176
0Current Usings:  (*,R7) (DRWA-(4+36),R8) (CP,R11) (CV,R12)
0Loc    Object Code    Addr1 Addr2  Stmt Lv Lineno    Source Statement           (Hibal 5, Asmedit 3.3)  HLASM R4.0  2004/03/15 12.51
+___    ______ ____    _____ _____  ____ __ ______    ______ _________
0                                  51720                       ¿þþþþþþþþþþþþþþþþþþþþþÜ
                                   51721                       Ÿ  Get line-numbers.  Ÿ
                                   51722                       ¾þþþþþþþþþþþþþþþþþþþþþ»
 USING  VNENTRY,R5                 51723                       WITH  (VNENTRY,R5),BEGIN
 008EE0 4151 0000            00000 51737  1                      LA    R5,ARG1(R1)
 008EE4 5820 5024            00024 51738  1                      L     R2,VNVALUE
 008EE8 5020 8028            00000 51739  1                      ST    R2,DRLNO1           First lineno in range
 008EEC 4151 0150            00150 51740  1                      LA    R5,ARG2(R1)
 008EF0 5820 5024            00024 51741  1                      L     R2,VNVALUE
 008EF4 5020 802C            00004 51742  1                      ST    R2,DRLNO2           Last lineno in range
 DROP   VNENTRY,R5                 51743                       END
                                   51751
 008EF8 182D/41D0 DFA0             51752                       XPUSH ,,DRBUFL#,PTR=R2
 008EFE 1812/4100 0FA0_            51755                       SEGINIT @R2,DRBUFL#,DRSG,RTN=DRSEG  Initialize seg buffer
                                   51799
 008F1C 9604 BC7C      00C7C       51800                       SET   CPFFORCE            Force I/O (override quiet)
 008F20 9604 BC7B      00C7B       51806                       SET   CPFNOUTTRIM         Don't trim trailing blanks
                                   51812                       ¿þþþþþþþþþþþþþþþþþþþþþþþþþþþþþþþþþþþþþþþþþþþþþþÜ
                                   51813                       Ÿ  Display lines as per "display_rows" rules.  Ÿ
                                   51814                       ¾þþþþþþþþþþþþþþþþþþþþþþþþþþþþþþþþþþþþþþþþþþþþþþ»
 008F24 5840 8028            00000 51815                       L     R4,DRLNO1           First lineno
 008F28 5940 802C/4730_      00004 51816                       WHILE (R4,LE,DRLNO2),BEGIN  Go through range...
 008F30 18F4                       51835  1                      LR    R15,R4              Lineno to get
 008F32 4110 8030/4100_      00008 51836  1                      SETMSG DRTEXT              Line area
 008F3A 58E0 762A/0DEE       094FC 51850  1                      VCALL GETLINE             Get next line
 008F40 4740 71DA            090AC 51854  1                      IF    NEG,EXIT            No more lines, scram
 008F44 D503 B73C 802C_0073C 00004 51868  1                      IF    (CPLCNO,GT,DRLNO2),EXIT  All done
                                   51889  1
 008F4E 1200/4720 70E4             51890  1                      IF    (R0,NP),BEGIN       Null line is wrong...
 008F54 1B00/41F0 811C_            51904  2                        SEGWR ,                   Unbuffer any partial line
 008F60 D603 B05C B05C_0005C 0005C 51928  2                        TCCR
 008F80 4110 7673/4100_      09545 51990  2                        TSEG  '152'
 008F92 4110 7676/4100_      09548 52008  2                        TSEG  X'05'
 008FA4 4110 7677/4100_      09549 52026  2                        TSEG  'Unexpected null line (expecting ";" or "\")',,CR
 008FB6                            52044  1                      END
                                   52048  1
 008FB6 70E8/47F0 71CE 08FB6 08F52 52049  1                      ELSE  BEGIN               We have something...
 008FBA 0600                       52060  2                        DECR  R0
 008FBC 1821                       52062  2                        LR    R2,R1
 008FBE 1A20                       52063  2                        AR    R2,R0               Last character in line
 008FC0 955E 2000/4770_00000       52064  2                        IF    (@R2,EQ,';'),'SEGWR (R1),(R0)'
 008FD2 7104/47F0 7116_08FD2 08FC6 52109  2                        ELSEIF (@R2,EQ,'\'),'SEG (R1),(R0)'
 008FE8 711A/47F0 71CE 08FE8 08FDC 52162  2                        ELSE  BEGIN               Error...
 008FEC 9001 D000/41D0_      00000 52173  3                          XPUSH R0,R1
 008FF4 1B00/41F0 811C_            52176  3                          SEGWR ,                   Unbuffer any partial line
 009000 1B00/41F0 B050_            52200  3                          TCR
 00900C 4110 7673/4100_      09545 52225  3                          TSEG  '152'               Error number
 00901E 4110 7676/4100_      09548 52243  3                          TSEG  X'05'
 009030 4110 76A2/4100_      09574 52261  3                          TSEG  'Remote procedure did not end response line '
 009042 4110 75F6/4100_      094C8 52279  3                          TSEG  'with ";" or "\".',,CR
                                   52297  3
 009054 4110 7673/4100_      09545 52298  3                          TSEG  '152'               Error number
 009066 4110 7676/4100_      09548 52316  3                          TSEG  X'05'
 009078 4110 765C/4100_      0952E 52334  3                          TSEG  'Line: '
1PROC     (PROC2193) (12:51) (15MAR04) Routines for System Procedures                                                       Page  177
0Current Usings:  (*,R7) (DRWA-(4+36),R8) (CP,R11) (CV,R12)
0Loc    Object Code    Addr1 Addr2  Stmt Lv Lineno    Source Statement           (Hibal 5, Asmedit 3.3)  HLASM R4.0  2004/03/15 12.51
+___    ______ ____    _____ _____  ____ __ ______    ______ _________
000908A 4BD0 7662/9801_      09534 52352  3                          XPOP  R0,R1
 009092 5A00 C4D0            004D0 52355  3                          A     R0,CVONE
 009096 41F0 B050/58E0_      00050 52356  3                          TSEG  (R1),(R0),CR        Add line text
 0090A0                            52380  2                        END
 0090A0                            52384  1                      END
                                   52388  1
 0090A0 5840 B73C            0073C 52389  1                      L     R4,CPLCNO           Current lineno
 0090A4 5A40 C4D0            004D0 52390  1                      A     R4,CVONE            Get next lineno
 0090A8 47F0 7056            08F28 52391                       END
                                   52396
 0090AC 1BFF                       52397                       CLEAR R15                 A-ok
 0090AE 18D8/9808 D004_            52401              DISREXIT PEND
 DROP   DRWA-(4+36),R8
 DROP   *,R7
                                   52427
                                   52428                       SEGDEF DUMMY              (Neatness)
1PROC     (PROC2193) (12:51) (15MAR04) Routines for System Procedures                                                       Page  178
0Current Usings:  (CP,R11) (CV,R12)
0Loc    Object Code    Addr1 Addr2  Stmt Lv Lineno    Source Statement           (Hibal 5, Asmedit 3.3)  HLASM R4.0  2004/03/15 12.51
+___    ______ ____    _____ _____  ____ __ ______    ______ _________
0                                  52430              ¿þþþþþþþþþþþþþþþþþþþþþþþþþþþþþþþþþþþþþþþþþþþþþþþþþþþþþþþþþþþþþþþþþþþþþÜ
                                   52431              Ÿ                                                                     Ÿ
                                   52432              Ÿ  DRSEG -- Routine to write the seg buffer (which is a single BTF    Ÿ
                                   52433              Ÿ    line).                                                           Ÿ
                                   52434              Ÿ                                                                     Ÿ
                                   52435              Ÿ     On entry:                                                       Ÿ
                                   52436              Ÿ       R15 - SEGCB addr                                              Ÿ
                                   52437              Ÿ                                                                     Ÿ
                                                      ¾þþþþþþþþþþþþþþþþþþþþþþþþþþþþþþþþþþþþþþþþþþþþþþþþþþþþþþþþþþþþþþþþþþþþþ»
00090BC 50E0 D000/9008_      00000 52438              DRSEG    PROC
 USING  *,R7
 0090D6 185F                       52477                       LR    R5,R15              Segcb ptr
 USING  SEGCB,R5                   52478                       WITH  (SEGCB,R5)
                                   52491                       ¿þþþþþþþþþÜ
                                   52492                       Ÿ  SEGWR  Ÿ
                                   52493                       ¾þþþþþþþþþ»
 0090D8 9502 5000/4770_00000       52494                       IF    SEGCBWR,BEGIN       SEGWR...
                                   52509  1                      ¿þþþþþþþþþþþþþþþþþþþþþþþþþþþþþþþþþþþþþþþþþþþþþþþþþþþþþÜ
                                   52510  1                      Ÿ  Time to change vertical bar separated data to tab  Ÿ
                                   52511  1                      Ÿ    separated data.                                  Ÿ
                                   52512  1                      ¾þþþþþþþþþþþþþþþþþþþþþþþþþþþþþþþþþþþþþþþþþþþþþþþþþþþþþ»
 0090E0 954F 1000/4780_00000       52513  1                      IF    ((@R1,EQ,'|'),OR,(@R1+3,EQ,'|')),BEGIN  bar format...
 0090F0 1831                       52544  2                        LR    R3,R1               Copy data loc...
 0090F2 1820                       52545  2                        LR    R2,R0               ...and length
                                   52546  2
 0090F4 1222/47D0 708E             52547  2                        WHILE (R2,POS),BEGIN      Go through line...
 0090FA 5920 7436/4750_      0950C 52563  3                          IF    ((R2,GE,2),AND,(@R3,EQ,'\|')),BEGIN
 00910C 1862                       52595  4                            LR    R6,R2
 00910E 9001 D000/41D0_      00000 52596  4                            XPUSH R0,R1
 009116 184D/1AD6/41D0_            52599  4                            XPUSH ,,(R6),PTR=R4       Get room for a duplicate
 009122 18E4/18F2/1803_            52604  4                            MOVEL @R4,@R3,(R2)        Save the data
 00912C 0620                       52626  4                            DECR  R2
 00912E 18E3/18F2/4100_            52628  4                            MOVEL @R3,@R4+1,(R2)      Copy it back
 00913A 1BD6/54D0 743A             52650  4                            XPOP  ,,(R6)
 009140 4BD0 745E/9801_      09534 52653  4                            XPOP  R0,R1
 009148 0600                       52656  4                            DECR  R0                  Also adjust real length
 00914A                            52658  3                          END
                                   52662  3
 00914A 7078/7078/47F0_0914A 09100 52663  3                          ELSEIF (@R3,EQ,'|'),BEGIN  Lone bar...
 009156 9205 3000      00000       52690  4                            MVI   @R3,X'05'           Replace bar with tab character
 00915A                            52691  3                          END
                                   52695  3
 00915A 4130 3001            00001 52696  3                          LA    R3,@R3+1            Next position
 00915E 0620                       52697  3                          DECR  R2                  Reduce length
 009160 47F0 701E            090F4 52699  2                        END
 009164                            52704  1                      END
                                   52708  1
 009164 41F0 B050/58E0_      00050 52709  1                      TSEG  (R1),(R0)           Output the buffer
 00916E D603 B05C B05C_0005C 0005C 52733  1                      TCCR
 00918E                            52795                       END
                                   52799
 00918E 18D8/9808 D004_            52800                       PEND
 DROP   SEGCB,R5
1PROC     (PROC2193) (12:51) (15MAR04) Routines for System Procedures                                                       Page  179
0Current Usings:  (CP,R11) (CV,R12)
0Loc    Object Code    Addr1 Addr2  Stmt Lv Lineno    Source Statement           (Hibal 5, Asmedit 3.3)  HLASM R4.0  2004/03/15 12.51
+___    ______ ____    _____ _____  ____ __ ______    ______ _________
0DROP   *,R7
1PROC     (PROC2193) (12:51) (15MAR04) Routines for System Procedures                                                       Page  180
0Current Usings:  (CP,R11) (CV,R12)
0Loc    Object Code    Addr1 Addr2  Stmt Lv Lineno    Source Statement           (Hibal 5, Asmedit 3.3)  HLASM R4.0  2004/03/15 12.51
+___    ______ ____    _____ _____  ____ __ ______    ______ _________
0                                  52826              ¿þþþþþþþþþþþþþþþþþþþþþþþþþþþþþþþþþþþþþþþþþþþþþþþþþþþþþþþþþþþþþþþþþþþþþÜ
                                   52827              Ÿ                                                                     Ÿ
                                   52828              Ÿ  SCAN ( TOKEN, STRING [,TYPE] [,SKIPLIST ,STOPLIST] )               Ÿ
                                   52829              Ÿ                                                                     Ÿ
                                   52830              Ÿ  SEE COMMENTS AT START OF MODULE.                                   Ÿ
                                   52831              Ÿ                                                                     Ÿ
                                                      ¾þþþþþþþþþþþþþþþþþþþþþþþþþþþþþþþþþþþþþþþþþþþþþþþþþþþþþþþþþþþþþþþþþþþþþ»
0000000                00000 00060 52832              PCSCANWA RECORD BEGIN
                                   52840  1                      XSA   R0,R8
 000000 0000000000000000           52841  1 01-XSA   +           DC    (R8+2-(R0))A(0)
 000028                            52842  1           PCSCCNT    DS    F                   ARG COUNT
 00002C                            52843  1           PCSCRETP   DS    F                   ARG RETURN POINTER
 000030                            52844  1           PCSCSTR    DS    F                   INPUT STRING LOCATION
 000034                            52845  1           PCSCSTRL   DS    F                   INPUT STRING LENGTH
 000038                            52846  1           PCSCSKIP   DS    F                   SKIP STRING LOCATION
 00003C                            52847  1           PCSCSKPL   DS    F                   SKIP STRING LENGTH
 000040                            52848  1           PCSCSTOP   DS    F                   STOP STRING LOCATION
 000044                            52849  1           PCSCSTPL   DS    F                   STOP STRING LENGTH
 000048                            52850  1           PCSCTOK    DS    F                   TOKEN LOCATION
 00004C                            52851  1           PCSCTOKL   DS    F                   TOKEN LENGTH
 000050                            52852  1           PCSCREM    DS    F                   REMAINDER LOCATION
 000054                            52853  1           PCSCREML   DS    F                   REMAINDER LENGTH
 000058                            52854  1           PCSCTYP    DS    F                   TYPE LOCATION
 00005C                            52855  1           PCSCTYPL   DS    F                   TYPE LENGTH
 000060                00060 00060 52856                       END
                                   52865              þþþþ
 00919C 50E0 D000/9008_      00000 52866              PCSCAN   PROC  PCSCANWA
 USING  *,R7
 USING  PCSCANWA-(4+36),R8
                                   52916
                                   52917                       COMMENT                   INITIALIZE WORK AREA
 0091B6 5000 8050            00028 52918                       ST    R0,PCSCCNT          SAVE ARG COUNT
 0091BA 5060 8054            0002C 52919                       ST    R6,PCSCRETP         SAVE PARM RETURN AREA POINTER
 0091BE D703 8060 8060 00038 00038 52920                       CLEAR PCSCSKIP            CLEAR SKIP/STOP STRINGS
 0091C4 D703 8064 8064 0003C 0003C 52927                       CLEAR PCSCSKPL
 0091CA D703 8068 8068 00040 00040 52934                       CLEAR PCSCSTOP
 0091D0 D703 806C 806C 00044 00044 52941                       CLEAR PCSCSTPL
                                   52948
                                   52949                       COMMENT                   CHECK PARMS
 0091D6 4120 73E9/58E0_      0959F 52950                       SETARGS '25SSSSS'         2-5 ARGS, ALL STRINGS
 0091E0 4770 716C            09322 52957                       IF    Z,BEGIN
                                   52968  1
                                   52969  1                      COMMENT                   GET INPUT PARMS
 USING  VNENTRY,R5                 52970  1                      USING VNENTRY,R5
 0091E4 4151 0150            00150 52979  1                      LA    R5,ARG2(R1)         GET/SAVE STRING LOC,LEN
 0091E8 4120 5026            00026 52980  1                      LA    R2,VNSTRLOC
 0091EC 5020 8058            00030 52981  1                      ST    R2,PCSCSTR
 0091F0 4820 5024            00024 52982  1                      LH    R2,VNSTRLEN
 0091F4 5020 805C            00034 52983  1                      ST    R2,PCSCSTRL
 0091F8 5900 735E/4750_      09514 52984  1                      IF    (R0,GE,4),BEGIN     IF SKIP STRING
 009200 4151 03F0            003F0 53001  2                        LA    R5,ARG4(R1)         GET/SAVE SKIP STRING
 009204 4120 5026            00026 53002  2                        LA    R2,VNSTRLOC
 009208 5020 8060            00038 53003  2                        ST    R2,PCSCSKIP
1PROC     (PROC2193) (12:51) (15MAR04) Routines for System Procedures                                                       Page  181
0Current Usings:  (VNENTRY,R5) (*,R7) (PCSCANWA-(4+36),R8) (CP,R11) (CV,R12)
0Loc    Object Code    Addr1 Addr2  Stmt Lv Lineno    Source Statement           (Hibal 5, Asmedit 3.3)  HLASM R4.0  2004/03/15 12.51
+___    ______ ____    _____ _____  ____ __ ______    ______ _________
000920C 4820 5024            00024 53004  2                        LH    R2,VNSTRLEN
 009210 5020 8064            0003C 53005  2                        ST    R2,PCSCSKPL
 009214                            53006  1                      END
 009214 5900 7362/4750_      09518 53010  1                      IF    (R0,GE,5),BEGIN     IF STOP STRING
 00921C 4151 0540            00540 53027  2                        LA    R5,ARG5(R1)         GET/SAVE STOP STRING
 009220 4120 5026            00026 53028  2                        LA    R2,VNSTRLOC
 009224 5020 8068            00040 53029  2                        ST    R2,PCSCSTOP
 009228 4820 5024            00024 53030  2                        LH    R2,VNSTRLEN
 00922C 5020 806C            00044 53031  2                        ST    R2,PCSCSTPL
 009230                            53032  1                      END
 DROP   VNENTRY,R5                 53036  1                      DROP  R5
                                   53043  1
                                   53044  1                      COMMENT                   SET DEFAULT SKIP/STOP STRINGS
                                   53045  1                      COMMENT                   IF NEEDED
 009230 D503 730E 8064_094C4 0003C 53046  1                      IF    (PCSCSKPL,EQ,0),BEGIN     DEFAULT SKIP = ' ,'
 00923A 4110 7382/4100_      09538 53064  2                        SETMSG ' ,'
 009242 5010 8060            00038 53068  2                        ST    R1,PCSCSKIP
 009246 5000 8064            0003C 53069  2                        ST    R0,PCSCSKPL
 00924A                            53070  1                      END
 00924A D503 730E 806C_094C4 00044 53074  1                      IF    (PCSCSTPL,EQ,0),BEGIN     DEFAULT STOP = ' ,=;'
 009254 4110 7366/4100_      0951C 53092  2                        SETMSG ' ,=;'
 00925C 5010 8068            00040 53096  2                        ST    R1,PCSCSTOP
 009260 5000 806C            00044 53097  2                        ST    R0,PCSCSTPL
 009264                            53098  1                      END
                                   53102  1
                                   53103  1                      COMMENT                   CALL SCAN ROUTINE
 009264 5800 805C            00034 53104  1                      L     R0,PCSCSTRL         R1,R0 - STRING LOC, LEN
 009268 5810 8058            00030 53105  1                      L     R1,PCSCSTR
 00926C 5820 8060            00038 53106  1                      L     R2,PCSCSKIP         R2,R3 - SKIP STR LOC, LEN
 009270 5830 8064            0003C 53107  1                      L     R3,PCSCSKPL
 009274 5840 8068            00040 53108  1                      L     R4,PCSCSTOP         R4,R5 - STOP STR LOC, LEN
 009278 5850 806C            00044 53109  1                      L     R5,PCSCSTPL
 00927C 58E0 736A/0DEE       09520 53110  1                      VCALL SCANSTR             SCAN STRING
                                   53114  1                      COMMENT                   RETURNS:
 009282 5000 8074            0004C 53115  1                      ST    R0,PCSCTOKL         R1,R0 - TOKEN LOC,LEN
 009286 5010 8070            00048 53116  1                      ST    R1,PCSCTOK
 00928A 5020 8078            00050 53117  1                      ST    R2,PCSCREM          R2,R3 - REMAINDER LOC, LEN
 00928E 5030 807C            00054 53118  1                      ST    R3,PCSCREML
 009292 5040 8080            00058 53119  1                      ST    R4,PCSCTYP          R4,R5 - TYPE LOC, LEN
 009296 5050 8084            0005C 53120  1                      ST    R5,PCSCTYPL
                                   53121  1
                                   53122  1                      COMMENT                   RETURN PARMS
 00929A 5860 8054            0002C 53123  1                      L     R6,PCSCRETP         RETURN AREA ADDRESSING
 00929E 4126 0000/D74F_      00000 53124  1                      PRETVAL 1,STRING,L:PCSCTOK,L:PCSCTOKL
 USING  VNENTRY,R2
 DROP   VNENTRY,R2
 0092C6 4126 0150/D74F_      00150 53211  1                      PRETVAL 2,STRING,L:PCSCREM,L:PCSCREML
 USING  VNENTRY,R2
 DROP   VNENTRY,R2
 0092EE D503 736E 8050_09524 00028 53298  1                      IF    (PCSCCNT,GE,3),BEGIN
 0092F8 4126 02A0/D74F_      002A0 53316  2                        PRETVAL 3,STRING,L:PCSCTYP,L:PCSCTYPL
 USING  VNENTRY,R2
 DROP   VNENTRY,R2
 009320                            53403  1                      END
1PROC     (PROC2193) (12:51) (15MAR04) Routines for System Procedures                                                       Page  182
0Current Usings:  (*,R7) (PCSCANWA-(4+36),R8) (CP,R11) (CV,R12)
0Loc    Object Code    Addr1 Addr2  Stmt Lv Lineno    Source Statement           (Hibal 5, Asmedit 3.3)  HLASM R4.0  2004/03/15 12.51
+___    ______ ____    _____ _____  ____ __ ______    ______ _________
0                                  53407  1
 009320 1BFF                       53408  1                      CLEAR R15
 009322                            53412                       END , OF ARGS ARE OK
                                   53416
 009322 18D8/9808 D004_            53417                       PEND
 DROP   PCSCANWA-(4+36),R8
 DROP   *,R7
1PROC     (PROC2193) (12:51) (15MAR04) Routines for System Procedures                                                       Page  183
0Current Usings:  (CP,R11) (CV,R12)
0Loc    Object Code    Addr1 Addr2  Stmt Lv Lineno    Source Statement           (Hibal 5, Asmedit 3.3)  HLASM R4.0  2004/03/15 12.51
+___    ______ ____    _____ _____  ____ __ ______    ______ _________
0                                  53443              ¿þþþþþþþþþþþþþþþþþþþþþþþþþþþþþþþþþþþþþþþþþþþþþþþþþþþþþþþþþþþþþþþþþþþþþÜ
                                   53444              Ÿ                                                                     Ÿ
                                   53445              Ÿ                                                                     Ÿ
                                   53446              Ÿ  SCAN_PARM ( TOKEN, STRING [,TYPE] [,SKIPLIST ,STOPLIST] )          Ÿ
                                   53447              Ÿ                                                                     Ÿ
                                   53448              Ÿ                                                                     Ÿ
                                   53449              Ÿ  SEE COMMENTS AT START OF MODULE.                                   Ÿ
                                   53450              Ÿ                                                                     Ÿ
                                   53451              Ÿ                                                                     Ÿ
                                   53452              Ÿ                                                                     Ÿ
                                                      ¾þþþþþþþþþþþþþþþþþþþþþþþþþþþþþþþþþþþþþþþþþþþþþþþþþþþþþþþþþþþþþþþþþþþþþ»
0009330 50E0 D000/9008_      00000 53453              PCSCANP  PROC  PCSCANWA
 USING  *,R7
 USING  PCSCANWA-(4+36),R8
                                   53503
                                   53504                       COMMENT                   INITIALIZE WORK AREA
 00934A 5000 8050            00028 53505                       ST    R0,PCSCCNT          SAVE ARG COUNT
 00934E 5060 8054            0002C 53506                       ST    R6,PCSCRETP         SAVE PARM RETURN AREA POINTER
 009352 D703 8060 8060 00038 00038 53507                       CLEAR PCSCSKIP            CLEAR SKIP/STOP STRINGS
 009358 D703 8064 8064 0003C 0003C 53514                       CLEAR PCSCSKPL
 00935E D703 8068 8068 00040 00040 53521                       CLEAR PCSCSTOP
 009364 D703 806C 806C 00044 00044 53528                       CLEAR PCSCSTPL
                                   53535
                                   53536                       COMMENT                   CHECK PARMS
 00936A 4120 7255/58E0_      0959F 53537                       SETARGS '25SSSSS'         2-5 ARGS, ALL STRINGS
 009374 4770 716C            094B6 53544                       IF    Z,BEGIN
                                   53555  1
                                   53556  1                      COMMENT                   GET INPUT PARMS
 USING  VNENTRY,R5                 53557  1                      USING VNENTRY,R5
 009378 4151 0150            00150 53566  1                      LA    R5,ARG2(R1)         GET/SAVE STRING LOC,LEN
 00937C 4120 5026            00026 53567  1                      LA    R2,VNSTRLOC
 009380 5020 8058            00030 53568  1                      ST    R2,PCSCSTR
 009384 4820 5024            00024 53569  1                      LH    R2,VNSTRLEN
 009388 5020 805C            00034 53570  1                      ST    R2,PCSCSTRL
 00938C 5900 71CA/4750_      09514 53571  1                      IF    (R0,GE,4),BEGIN     IF SKIP STRING
 009394 4151 03F0            003F0 53588  2                        LA    R5,ARG4(R1)         GET/SAVE SKIP STRING
 009398 4120 5026            00026 53589  2                        LA    R2,VNSTRLOC
 00939C 5020 8060            00038 53590  2                        ST    R2,PCSCSKIP
 0093A0 4820 5024            00024 53591  2                        LH    R2,VNSTRLEN
 0093A4 5020 8064            0003C 53592  2                        ST    R2,PCSCSKPL
 0093A8                            53593  1                      END
 0093A8 5900 71CE/4750_      09518 53597  1                      IF    (R0,GE,5),BEGIN     IF STOP STRING
 0093B0 4151 0540            00540 53614  2                        LA    R5,ARG5(R1)         GET/SAVE STOP STRING
 0093B4 4120 5026            00026 53615  2                        LA    R2,VNSTRLOC
 0093B8 5020 8068            00040 53616  2                        ST    R2,PCSCSTOP
 0093BC 4820 5024            00024 53617  2                        LH    R2,VNSTRLEN
 0093C0 5020 806C            00044 53618  2                        ST    R2,PCSCSTPL
 0093C4                            53619  1                      END
 DROP   VNENTRY,R5                 53623  1                      DROP  R5
                                   53630  1
                                   53631  1                      COMMENT                   SET DEFAULT SKIP/STOP STRINGS
                                   53632  1                      COMMENT                   IF NEEDED
 0093C4 D503 717A 8064_094C4 0003C 53633  1                      IF    (PCSCSKPL,EQ,0),BEGIN     DEFAULT SKIP = ' ,'
1PROC     (PROC2193) (12:51) (15MAR04) Routines for System Procedures                                                       Page  184
0Current Usings:  (*,R7) (PCSCANWA-(4+36),R8) (CP,R11) (CV,R12)
0Loc    Object Code    Addr1 Addr2  Stmt Lv Lineno    Source Statement           (Hibal 5, Asmedit 3.3)  HLASM R4.0  2004/03/15 12.51
+___    ______ ____    _____ _____  ____ __ ______    ______ _________
00093CE 4110 71EE/4100_      09538 53651  2                        SETMSG ' ,'
 0093D6 5010 8060            00038 53655  2                        ST    R1,PCSCSKIP
 0093DA 5000 8064            0003C 53656  2                        ST    R0,PCSCSKPL
 0093DE                            53657  1                      END
 0093DE D503 717A 806C_094C4 00044 53661  1                      IF    (PCSCSTPL,EQ,0),BEGIN     DEFAULT STOP = ' ,=;'
 0093E8 4110 71D2/4100_      0951C 53679  2                        SETMSG ' ,=;'
 0093F0 5010 8068            00040 53683  2                        ST    R1,PCSCSTOP
 0093F4 5000 806C            00044 53684  2                        ST    R0,PCSCSTPL
 0093F8                            53685  1                      END
                                   53689  1
                                   53690  1                      COMMENT                   CALL SCAN ROUTINE
 0093F8 5800 805C            00034 53691  1                      L     R0,PCSCSTRL         R1,R0 - STRING LOC, LEN
 0093FC 5810 8058            00030 53692  1                      L     R1,PCSCSTR
 009400 5820 8060            00038 53693  1                      L     R2,PCSCSKIP         R2,R3 - SKIP STR LOC, LEN
 009404 5830 8064            0003C 53694  1                      L     R3,PCSCSKPL
 009408 5840 8068            00040 53695  1                      L     R4,PCSCSTOP         R4,R5 - STOP STR LOC, LEN
 00940C 5850 806C            00044 53696  1                      L     R5,PCSCSTPL
 009410 58E0 71DE/0DEE       09528 53697  1                      VCALL SCANPARM            SCAN STRING OR PARM
                                   53701  1                      COMMENT                   RETURNS:
 009416 5000 8074            0004C 53702  1                      ST    R0,PCSCTOKL         R1,R0 - TOKEN LOC,LEN
 00941A 5010 8070            00048 53703  1                      ST    R1,PCSCTOK
 00941E 5020 8078            00050 53704  1                      ST    R2,PCSCREM          R2,R3 - REMAINDER LOC, LEN
 009422 5030 807C            00054 53705  1                      ST    R3,PCSCREML
 009426 5040 8080            00058 53706  1                      ST    R4,PCSCTYP          R4,R5 - TYPE LOC, LEN
 00942A 5050 8084            0005C 53707  1                      ST    R5,PCSCTYPL
                                   53708  1
                                   53709  1                      COMMENT                   RETURN PARMS
 00942E 5860 8054            0002C 53710  1                      L     R6,PCSCRETP         RETURN AREA ADDRESSING
 009432 4126 0000/D74F_      00000 53711  1                      PRETVAL 1,STRING,L:PCSCTOK,L:PCSCTOKL
 USING  VNENTRY,R2
 DROP   VNENTRY,R2
 00945A 4126 0150/D74F_      00150 53798  1                      PRETVAL 2,STRING,L:PCSCREM,L:PCSCREML
 USING  VNENTRY,R2
 DROP   VNENTRY,R2
 009482 D503 71DA 8050_09524 00028 53885  1                      IF    (PCSCCNT,GE,3),BEGIN
 00948C 4126 02A0/D74F_      002A0 53903  2                        PRETVAL 3,STRING,L:PCSCTYP,L:PCSCTYPL
 USING  VNENTRY,R2
 DROP   VNENTRY,R2
 0094B4                            53990  1                      END
                                   53994  1
 0094B4 1BFF                       53995  1                      CLEAR R15
 0094B6                            53999                       END , OF ARGS ARE OK
                                   54003
 0094B6 18D8/9808 D004_            54004                       PEND
 DROP   PCSCANWA-(4+36),R8
 DROP   *,R7
                                   54029
                                   54030                       QLTORG
1PROC     (PROC2193) (12:51) (15MAR04) Routines for System Procedures                                                       Page  185
0Current Usings:  (CP,R11) (CV,R12)
0Loc    Object Code    Addr1 Addr2  Stmt Lv Lineno    Source Statement           (Hibal 5, Asmedit 3.3)  HLASM R4.0  2004/03/15 12.51
+___    ______ ____    _____ _____  ____ __ ______    ______ _________
0                                  54077              ¿þþþþþþþþþþþþþþþþþþþþþþþþþþþþþþþþþþþþþþþþþþþþþþþþþþþþþþþþþþþþþþþþþþþþþÜ
                                   54078              Ÿ                                                                     Ÿ
                                   54079              Ÿ   SCAN_MAILHDR -- Scan RFC-822 mail header                          Ÿ
                                   54080              Ÿ                                                                     Ÿ
                                   54081              Ÿ     On entry, current active file contains mail item                Ÿ
                                   54082              Ÿ                                                                     Ÿ
                                   54083              Ÿ     On exit, scanned mail header fields are returned in an active   Ÿ
                                   54084              Ÿ     file containing lines with the following format:                Ÿ
                                   54085              Ÿ                                                                     Ÿ
                                   54086              Ÿ       col 1-16 - field name from header                             Ÿ
                                   54087              Ÿ       col 18   - address type indicator                             Ÿ
                                   54088              Ÿ                  'f' if from, sender, reply-to, or errors-to        Ÿ
                                   54089              Ÿ                  't' if to, cc, or bcc                              Ÿ
                                   54090              Ÿ       col 20+  - field contents                                     Ÿ
                                   54091              Ÿ                                                                     Ÿ
                                   54092              Ÿ     Arguments:                                                      Ÿ
                                   54093              Ÿ       1 - on entry, output active file number (or zero)             Ÿ
                                   54094              Ÿ       2 - on entry, options string                                  Ÿ
                                   54095              Ÿ       3 - on exit, last line of header                              Ÿ
                                   54096              Ÿ       4 - on exit, return code ('OK' or 'ERROR')                    Ÿ
                                   54097              Ÿ                                                                     Ÿ
                                   54098              Ÿ     Options:                                                        Ÿ
                                   54099              Ÿ       debug  - turn on debugging option                             Ÿ
                                   54100              Ÿ       nolist - suppress listing header lines as they are read       Ÿ
                                   54101              Ÿ       noptr  - suppress 'pointers' lines in output file             Ÿ
                                   54102              Ÿ                                                                     Ÿ
                                                      ¾þþþþþþþþþþþþþþþþþþþþþþþþþþþþþþþþþþþþþþþþþþþþþþþþþþþþþþþþþþþþþþþþþþþþþ»
0000000                00000 00520 54103              RFCWA    RECORD BEGIN
 000000                            54111  1           RFCOUTNO   DS    F                   Output active file number
 000004                            54112  1           RFCENDLN   DS    F                   End line of header
 000008                            54113  1           RFCRETPT   DS    F                   Return area pointer
 00000C                            54114  1           RFCALIN1   DS    F                   Address start line number
 000010                            54115  1           RFCACOL1   DS    F                   Address start column
 000014                            54116  1           RFCALIN2   DS    F                   Address end line number
 000018                            54117  1           RFCACOL2   DS    F                   Address end column number
 00001C                            54118  1           RFCTLIN1   DS    F                   Token start line number
 000020                            54119  1           RFCTCOL1   DS    F                   Token start column
 000024                            54120  1           RFCTLIN2   DS    F                   Token end line number
 000028                            54121  1           RFCTCOL2   DS    F                   Token end column
 00002C                            54122  1           RFCLINE    DS    F                   Current active file line number
 000030                            54123  1           RFCLINCT   DS    F                   Header line count
 000034                            54124  1           RFCIPTR    DS    F                   Input buffer text pointer
 000038                            54125  1           RFCILEN    DS    F                   Input buffer text length
 00003C                            54126  1           RFCIEND    DS    F                   Input buffer end pointer
 000040                            54127  1           RFCFIELD   DS    CL20                Current header field name
 000054                            54128  1           RFCTTYPE   DS    CL4                 Current token type
                                   54129  1
 000058                            54130  1           RFCNEXTC   DS    X                   First character of next token
                                   54131  1
 000059 00                         54132  1           RFCFLAGS   FLAG
 RFCFLAGS.RFCFLEOD 80 ONES         54136  1                      FLAG  RFCFLEOD            End of mail header
 RFCFLAGS.RFCFLDEB 40 ONES         54141  1                      FLAG  RFCFLDEB            Debug option - write debug info
 RFCFLAGS.RFCFLNOL 20 ONES         54146  1                      FLAG  RFCFLNOL            Nolist option - no header listing
1PROC     (PROC2193) (12:51) (15MAR04) Routines for System Procedures                                                       Page  186
0Current Usings:  (CP,R11) (CV,R12)
0Loc    Object Code    Addr1 Addr2  Stmt Lv Lineno    Source Statement           (Hibal 5, Asmedit 3.3)  HLASM R4.0  2004/03/15 12.51
+___    ______ ____    _____ _____  ____ __ ______    ______ _________
0RFCFLAGS.RFCFLNPT 10 ONES         54151  1                      FLAG  RFCFLNPT            Noptr option - no 'pointers' lines
 RFCFLAGS.RFCFLBAD 08 ONES         54156  1                      FLAG  RFCFLBAD            Scan error in header
                                   54161  1
 00005A 00                         54162  1           RFCFFLAG   FLAG  ,                   Cleared before scanning new field
 RFCFFLAG.RFCFLRCP 80 ONES         54166  1                      FLAG  RFCFLRCP            Recipient address
 RFCFFLAG.RFCFLFRM 40 ONES         54171  1                      FLAG  RFCFLFRM            From address
 RFCFFLAG.RFCFLERR 20 ONES         54176  1                      FLAG  RFCFLERR            Scan error in current field
 RFCFFLAG.RFCFLGRP 10 ONES         54181  1                      FLAG  RFCFLGRP            Scanning RFC-822 address group
 RFCFFLAG.RFCFLEOF 08 ONES         54186  1                      FLAG  RFCFLEOF            End of field
 RFCFFLAG.RFCFLDOM 04 ONES         54191  1                      FLAG  RFCFLDOM            Current address has domain
                                   54196  1
                                   54197  1           RFCZLEN    EQU   *-RFCWA             End of area cleared at entry
                                   54198  1
 00005B                            54199  1           RFCIBUF    DS    CL236               Input line buffer
 000147                            54200  1           RFCTEMP    DS    CL232               Work area
 00022F                            54201  1           RFCTRT     DS    XL256               Translate table work area
                                   54202  1
                                   54203  1           RFCMAXLN   EQU   120                 Max string length
 000330                            54204  1           RFCTOKLN   DS    F                   Current token length
 000334                            54205  1           RFCTOKEN   DS    CL(RFCMAXLN)        Current token text
 0003AC                            54206  1           RFCADDLN   DS    F                   Address text length
 0003B0                            54207  1           RFCADDBF   DS    CL(RFCMAXLN)        Address text buffer
 000428                            54208  1           RFCNAMLN   DS    F                   Name text length
 00042C                            54209  1           RFCNAME    DS    CL(RFCMAXLN)        Name text
 0004A4                            54210  1           RFCCOMLN   DS    F                   Comment text length
 0004A8                            54211  1           RFCCOMM    DS    CL(RFCMAXLN)        Comment text buffer
 000520                00520 00520 54212                       END
1PROC     (PROC2193) (12:51) (15MAR04) Routines for System Procedures                                                       Page  187
0Current Usings:  (CP,R11) (CV,R12)
0Loc    Object Code    Addr1 Addr2  Stmt Lv Lineno    Source Statement           (Hibal 5, Asmedit 3.3)  HLASM R4.0  2004/03/15 12.51
+___    ______ ____    _____ _____  ____ __ ______    ______ _________
00095D0 50E0 D000/9008_      00000 54222              RFCSCANH PROC  RFCWA
 USING  *,R7
 USING  RFCWA-(4+36),R8
 0095EA D75A 8028 8028 00000 00000 54272                       XC    RFCWA(RFCZLEN),RFCWA Clear work area
 0095F0 4120 7766/58E0_      09D50 54273                       SETARGS '44ISWS'          Check parms
 0095FA 4770 7186            09770 54280                       IF    NZ,EXIT             Return if error
                                   54294
 0095FE 5060 8030            00008 54295                       ST    R6,RFCRETPT         Save return area pointer
 009602 4160 8028            00000 54296                       LA    R6,RFCWA            R6 IS RFCWA IN ALL CALLED RTNS
 009606 D203 8028 1024 00000 00024 54297                       MVC   RFCOUTNO,ARG1+VNVALUE-VNENTRY(R1)  Output active file
 00960C 4801 0174            00174 54298                       LH    R0,ARG2+VNSTRLEN-VNENTRY(R1)   Option string length
 009610 4111 0176            00176 54299                       LA    R1,ARG2+VNSTRLOC-VNENTRY(R1)   Option string address
 009614 58E0 770A/0DEE       09CF4 54300                       ACALL RFCSCNOP                       Scan options string
 00961A 12FF/4780 703A_            54304                       IF    (R15,NZ),' EXIT RFCSCANH '
                                   54326
 009624 58E0 770E/0DEE       09CF8 54327                       ACALL RFCGETLN            Read first active file line
 00962A 9540 8083/4730_0005B       54331                       IF    (RFCIBUF,LE,' '),BEGIN   Check first line
 009632 58E0 7712/0DEE       09CFC 54348  1                      ACALL RFCERROR
 009638 47F0 712A            09714 54352  1                      B     RFCEXIT
 00963C                            54353                       END
                                   54357                       ¿þþþþþþþþþþþþþþþþþþþþþþþþþþþþþþþþþþþþþþþþþþþþþþþþþþþþþþþþþþÜ
                                   54358                       Ÿ  Main loop - scan field name from current line and call  Ÿ
                                   54359                       Ÿ  processing routine                                      Ÿ
                                   54360                       ¾þþþþþþþþþþþþþþþþþþþþþþþþþþþþþþþþþþþþþþþþþþþþþþþþþþþþþþþþþþ»
 00963C                            54361                       LOOP  BEGIN
 00963C 9200 8082      0005A       54367  1                      CLEAR RFCFFLAG            Clear flags
 009640 58E0 7716/0DEE       09D00 54374  1                      ACALL RFCSCAN             Scan next token
                                   54378  1         C            IF    ((RFCTTYPE,NE,'word'),OR,  If not valid
 009646 D503 771A 807C_09D04 00054        1                            (RFCNEXTC,NE,':')),BEGIN     header line,
 009658 58E0 7712/0DEE       09CFC 54411  2                        ACALL RFCERROR                       signal error
 00965E 47F0 712A            09714 54415  2                        B     RFCEXIT                          and exit
 009662                            54416  1                      END
 009662 D213 8068 835C 00040 00334 54420  1                      MVC   RFCFIELD,RFCTOKEN   Save field name
 009668 58F0 C8AC            008AC 54421  1                      L     R15,CVLOWTBL        Convert field name
 00966C DC13 8068 F000 00040 00000 54422  1                      TR    RFCFIELD,@R15         to lower case
 009672 4120 8068            00040 54423  1                      LA    R2,RFCFIELD
 009676 D506 777A 8068_09D64 00040 54424  1                      IF    (RFCFIELD,EQ,'resent-'),'LA R2,7(R2)'
                                   54447  1         C            IF    ((@R2,EQ,'sender '),OR,
                                          1         C                  (@R2,EQ,'errors-to '),OR,
                                          1         C                  (@R2,EQ,'from '),OR,
 009684 D506 7781 2000_09D6B 00000        1                            (@R2,EQ,'reply-to ')),BEGIN
 0096AC 9640 8082      0005A       54504  2                        SET   RFCFLFRM            Flag 'from' address
 0096B0 58E0 771E/0DEE       09D08 54510  2                        ACALL RFCALIST            Go scan address list
 0096B6                            54514  1                      END
                                   54518  1         C            ELSEIF ((@R2,EQ,'to '),OR,
                                          1         C                  (@R2,EQ,'cc '),OR,
 0096B6 70D0/47F0 70F8_096B6 096AA        1                            (@R2,EQ,'bcc ')),BEGIN
 0096D8 9680 8082      0005A       54571  2                        SET   RFCFLRCP            Flag recipient address
 0096DC 58E0 771E/0DEE       09D08 54577  2                        ACALL RFCALIST            Go scan address list
 0096E2                            54581  1                      END
 0096E2 70FC/47F0 710C_096E2 096D6 54585  1                      ELSEIF (@R2,EQ,'subject '),BEGIN
 0096F0 58E0 7726/0DEE       09D10 54610  2                        ACALL RFCSUBJ             Go get subject text
 0096F6                            54614  1                      END
1PROC     (PROC2193) (12:51) (15MAR04) Routines for System Procedures                                                       Page  188
0Current Usings:  (*,R7) (RFCWA-(4+36),R8) (CP,R11) (CV,R12)
0Loc    Object Code    Addr1 Addr2  Stmt Lv Lineno    Source Statement           (Hibal 5, Asmedit 3.3)  HLASM R4.0  2004/03/15 12.51
+___    ______ ____    _____ _____  ____ __ ______    ______ _________
0                                  54618  1                      ¿þþþþþþþþþþþþþþþþþþþþþþþþþþþþþþþþþþþþþþþþþþþþþþþþþþþþþþþþþþÜ
                                   54619  1                      Ÿ  Skip to the next field.  When the EOF flag is set then  Ÿ
                                   54620  1                      Ÿ  either we are at the first line of the next field or    Ÿ
                                   54621  1                      Ÿ  at the end of the header.                               Ÿ
                                   54622  1                      ¾þþþþþþþþþþþþþþþþþþþþþþþþþþþþþþþþþþþþþþþþþþþþþþþþþþþþþþþþþþ»
 0096F6 9108 8082/4710_0005A       54623  1                      WHILE ~RFCFLEOF,BEGIN     While not at end of field,
 0096FE 58E0 770E/0DEE       09CF8 54640  2                        ACALL RFCGETLN            Get next header line
 009704 47F0 710C            096F6 54644  1                      END
 009708 9180 8081/4710_00059       54649  1                      IF    RFCFLEOD,EXIT       Exit if end of header
 009710 47F0 7052            0963C 54667                       END
                                   54672                       ¿þþþþþþþþþþþþþþþþþþþþÜ
                                   54673                       Ÿ  Return to caller  Ÿ
                                   54674                       ¾þþþþþþþþþþþþþþþþþþþþ»
 009714 5860 8030            00008 54675              RFCEXIT  L     R6,RFCRETPT         Return area pointer
 009718 4126 02A0/D74F_      002A0 54676                       PRETVAL 3,LINENO,L:RFCENDLN  Return end line number
 USING  VNENTRY,R2
 DROP   VNENTRY,R2
 009738 4110 7776/4100_      09D60 54724                       SETMSG 'OK'                   Set return code
 009740 9108 8081/47E0_00059       54728                       IF    RFCFLBAD,'SETMSG "ERROR"'
 009750 4126 03F0/D74F_      003F0 54752                       PRETVAL 4,STRING,(R1),(R0)   Return rc string
 USING  VNENTRY,R2
 DROP   VNENTRY,R2
 009770 18D8/9808 D004_            54837                       PEND
 DROP   RFCWA-(4+36),R8
 DROP   *,R7
 USING  RFCWA,R6                   54862                       USING RFCWA,R6
1PROC     (PROC2193) (12:51) (15MAR04) Routines for System Procedures                                                       Page  189
0Current Usings:  (RFCWA,R6) (CP,R11) (CV,R12)
0Loc    Object Code    Addr1 Addr2  Stmt Lv Lineno    Source Statement           (Hibal 5, Asmedit 3.3)  HLASM R4.0  2004/03/15 12.51
+___    ______ ____    _____ _____  ____ __ ______    ______ _________
0                                  54872              ¿þþþþþþþþþþþþþþþþþþþþþþþþþþþþþþþþþþþþþþþþþþþþþþþþþþþþþþþþþþþþþþþþþþþþþÜ
                                   54873              Ÿ                                                                     Ÿ
                                   54874              Ÿ   RFCALIST -- Scan address list                                     Ÿ
                                   54875              Ÿ                                                                     Ÿ
                                   54876              Ÿ     On entry, current scan token is field name                      Ÿ
                                   54877              Ÿ                                                                     Ÿ
                                                      ¾þþþþþþþþþþþþþþþþþþþþþþþþþþþþþþþþþþþþþþþþþþþþþþþþþþþþþþþþþþþþþþþþþþþþþ»
000977E 50E0 D000/9008_      00000 54878              RFCALIST PROC
 USING  *,R7
 009798 58E0 7568/0DEE       09D00 54917                       ACALL RFCSCAN             Scan ':' following field name
 00979E D501 75CA 6334_09D62 00334 54921                       IF    (RFCTOKEN,NE,': '),BEGIN
 0097A8 58E0 7564/0DEE       09CFC 54938  1                      ACALL RFCERROR
 0097AE 47F0 7032            097CA 54942  1                      EXIT  RFCALIST
 0097B2                            54945                       END
                                   54949
 0097B2                            54950                       LOOP  BEGIN
 0097B2 58E0 7568/0DEE       09D00 54956  1                      ACALL RFCSCAN             Scan first token of address
 0097B8 9128 605A/4770_0005A       54960  1                      IF    (RFCFLEOF+RFCFLERR,NZ),EXIT  Exit if err or EOF
 0097C0 58E0 7580/0DEE       09D18 54983  1                      ACALL RFCADDR             Go parse address
 0097C6 47F0 701A            097B2 54987                       END
 0097CA 18D8/9808 D004_            54992                       PEND
 DROP   *,R7
-                                  55013              ¿þþþþþþþþþþþþþþþþþþþþþþþþþþþþþþþþþþþþþþþþþþþþþþþþþþþþþþþþþþþþþþþþþþþþþÜ
                                   55014              Ÿ                                                                     Ÿ
                                   55015              Ÿ   RFCADDR - Scan RFC-822 address                                    Ÿ
                                   55016              Ÿ                                                                     Ÿ
                                   55017              Ÿ     On entry, current token is first token of address               Ÿ
                                   55018              Ÿ                                                                     Ÿ
                                   55019              Ÿ     Scanned addresses are added to output active file, followed     Ÿ
                                   55020              Ÿ     by 'name' and 'range' lines                                     Ÿ
                                   55021              Ÿ                                                                     Ÿ
                                   55022              Ÿ     On exit, current token is delimiter after address, and          Ÿ
                                   55023              Ÿ     scanned address has been added to output file                   Ÿ
                                   55024              Ÿ                                                                     Ÿ
                                                      ¾þþþþþþþþþþþþþþþþþþþþþþþþþþþþþþþþþþþþþþþþþþþþþþþþþþþþþþþþþþþþþþþþþþþþþ»
00097D8 50E0 D000/9008_      00000 55025              RFCADDR  PROC
 USING  *,R7
 0097F2 D203 600C 601C 0000C 0001C 55064                       MVC   RFCALIN1,RFCTLIN1   Save start line number
 0097F8 D203 6010 6020 00010 00020 55065                       MVC   RFCACOL1,RFCTCOL1   Save start column position
 0097FE D703 63AC 63AC 003AC 003AC 55066                       CLEAR RFCADDLN            Clear address area length
 009804 D703 6428 6428 00428 00428 55073                       CLEAR RFCNAMLN            Clear name area length
 00980A 94FB 605A      0005A       55080                       CLEAR RFCFLDOM            Clear domain flag
                                   55087                       ¿þþþþþþþþþþþþþþþþþþþþþþþþþþþþþþþþþþþþþþþþþþþþþþþþþÜ
                                   55088                       Ÿ  Process route-addr without enclosing brackets  Ÿ
                                   55089                       ¾þþþþþþþþþþþþþþþþþþþþþþþþþþþþþþþþþþþþþþþþþþþþþþþþþ»
 00980E 957C 6334/4770_00334       55090                       IF    (RFCTOKEN,EQ,'@'),BEGIN
 009816 58E0 752A/0DEE       09D1C 55107  1                      ACALL RFCRTADD
 00981C 47F0 718A            0997C 55111  1                      B     RFCADDRX
 009820                            55112                       END
1PROC     (PROC2193) (12:51) (15MAR04) Routines for System Procedures                                                       Page  190
0Current Usings:  (RFCWA,R6) (*,R7) (CP,R11) (CV,R12)
0Loc    Object Code    Addr1 Addr2  Stmt Lv Lineno    Source Statement           (Hibal 5, Asmedit 3.3)  HLASM R4.0  2004/03/15 12.51
+___    ______ ____    _____ _____  ____ __ ______    ______ _________
0                                  55116                       ¿þþþþþþþþþþþþþþþþþþþþþþþþþþþþþþþþþþþþþþþþþþþþþþþþþþþþþþþþÜ
                                   55117                       Ÿ  If first token is a 'word', then the address must be  Ÿ
                                   55118                       Ÿ  one of the following forms:                           Ÿ
                                   55119                       Ÿ                                                        Ÿ
                                   55120                       Ÿ     userid                                             Ÿ
                                   55121                       Ÿ     userid at domain                                   Ÿ
                                   55122                       Ÿ     userid@domain                                      Ÿ
                                   55123                       Ÿ     name <route-addr>                                  Ÿ
                                   55124                       Ÿ     group:...;                                         Ÿ
                                   55125                       Ÿ                                                        Ÿ
                                   55126                       Ÿ  If the address is one or more words without a domain  Ÿ
                                   55127                       Ÿ  then it is scanned and ignored                        Ÿ
                                   55128                       ¾þþþþþþþþþþþþþþþþþþþþþþþþþþþþþþþþþþþþþþþþþþþþþþþþþþþþþþþþ»
 009820 D503 7512 6054_09D04 00054 55129                       IF    (RFCTTYPE,EQ,'word'),BEGIN
                                   55146  1
 00982A 957C 6058/4770_00058       55147  1                      IF    (RFCNEXTC,EQ,'@'),BEGIN    If user@domain,
 009832 58E0 752E/0DEE       09D20 55164  2                        ACALL RFCADDRS                   Go scan it
 009838 47F0 718A            0997C 55168  2                        B     RFCADDRX                     and finish up
 00983C                            55169  1                      END
                                   55173  1
 00983C 1B22                       55174  1                      CLEAR R2                  Clear word counter
 00983E 1B33                       55178  1                      CLEAR R3                  Clear 'at' flag
                                   55182  1
 009840 D503 7512 6054_09D04 00054 55183  1                      WHILE (RFCTTYPE,EQ,'word'),BEGIN  Scan word list
                                   55202  2                        ¿þþþþþþþþþþþþþþþþþþþþþþþþþþþþþþþþþþþþþþþþþþþþÜ
                                   55203  2                        Ÿ  Following logic handles 'user at domain'  Ÿ
                                   55204  2                        ¾þþþþþþþþþþþþþþþþþþþþþþþþþþþþþþþþþþþþþþþþþþþþ»
 00984A 5E20 7532            09D24 55205  2                        INCR  R2                  Incr word counter
 00984E D202 6147 6334 00147 00334 55208  2                        MVC   RFCTEMP(3),RFCTOKEN  Copy token
 009854 58F0 C8AC            008AC 55209  2                        L     R15,CVLOWTBL         Convert to
 009858 DC01 6147 F000 00147 00000 55210  2                        TR    RFCTEMP(2),@R15        Lower case
                                   55211  2         C              IF    ((RFCTEMP,EQ,'at '),AND,   If 'at',
 00985E D502 7599 6147_09D8B 00147        2                              (R2,EQ,2)),BEGIN            and 2nd word in address,
 009870 4110 759C/4100_      09D8E 55244  3                          SETMSG '@'                         Add '@' to address buffer
 009878 41F0 63B0            003B0 55248  3                          LA    R15,RFCADDBF
 00987C 58E0 753A/0DEE       09D2C 55249  3                          ACALL RFCPUTS
 009882 1832                       55253  3                          LR    R3,R2                      Flag 'at' scanned
 009884                            55254  2                        END
 009884 7096/7096/47F0_09884 09866 55258  2                        ELSE  BEGIN               Else not 'at',
 009888 58E0 753E/0DEE       09D30 55271  3                          ACALL RFCADDTK            Add token to address buffer
 00988E                            55275  2                        END
                                   55279  2
                                   55280  2         C              IF    ((RFCNEXTC,EQ,' '),OR,    If at end of field,
                                          2         C                    (RFCNEXTC,EQ,';'),OR,       or at ';'
 00988E 9540 6058/4780_00058              2                              (RFCNEXTC,EQ,',')),BEGIN     or at ',',
                                   55327  3         C                IF    ((R2,EQ,3),AND,               and 3 words scanned,
 0098A6 5920 7542/4770_      09D34        3                                (R3,EQ,2)),BEGIN               and word 2 was 'at',
 0098B6 D703 6428 6428 00428 00428 55360  4                            CLEAR RFCNAMLN                   Clear name buffer
 0098BC 9604 605A      0005A       55367  4                            SET   RFCFLDOM                   Have address with domain
 0098C0 D203 6014 6024 00014 00024 55373  4                            MVC   RFCALIN2,RFCTLIN2          Save address end line
 0098C6 D203 6018 6028 00018 00028 55374  4                            MVC   RFCACOL2,RFCTCOL2          Save address end column
 0098CC 58E0 750E/0DEE       09D00 55375  4                            ACALL RFCSCAN                    Scan next token
 0098D2                            55379  3                          END
 0098D2 70E4/70E4/47F0_098D2 098AC 55383  3                          ELSEIF (R2,GT,1),BEGIN           Else if multiple words,
1PROC     (PROC2193) (12:51) (15MAR04) Routines for System Procedures                                                       Page  191
0Current Usings:  (RFCWA,R6) (*,R7) (CP,R11) (CV,R12)
0Loc    Object Code    Addr1 Addr2  Stmt Lv Lineno    Source Statement           (Hibal 5, Asmedit 3.3)  HLASM R4.0  2004/03/15 12.51
+___    ______ ____    _____ _____  ____ __ ______    ______ _________
00098DE 58E0 750A/0DEE       09CFC 55411  4                            ACALL RFCERROR                   Flag syntax error
 0098E4                            55415  3                          END
 0098E4 47F0 718A            0997C 55419  3                          B     RFCADDRX                   Go finish up
 0098E8                            55420  2                        END
                                   55424  2
 0098E8 D603 6428 6428_00428 00428 55425  2                        IF (RFCNAMLN,NZ),BEGIN           If already have name data,
 0098F2 4100 0001            00001 55441  3                          LA    R0,1                       Add blank space
 0098F6 4110 C4D8            004D8 55442  3                          LA    R1,CVBLANKS                 to name area
 0098FA 41F0 642C            0042C 55443  3                          LA    R15,RFCNAME
 0098FE 58E0 753A/0DEE       09D2C 55444  3                          ACALL RFCPUTS
 009904                            55448  2                        END
 009904 5800 6330            00330 55452  2                        L     R0,RFCTOKLN                Add token
 009908 4110 6334            00334 55453  2                        LA    R1,RFCTOKEN                 to name area
 00990C 41F0 642C            0042C 55454  2                        LA    R15,RFCNAME
 009910 58E0 753A/0DEE       09D2C 55455  2                        ACALL RFCPUTS
                                   55459  2
 009916 58E0 750E/0DEE       09D00 55460  2                        ACALL RFCSCAN                    Scan next token
 00991C 47F0 704E            09840 55464  1                      END
                                   55469  1
 009920 D703 63AC 63AC 003AC 003AC 55470  1                      CLEAR RFCADDLN                   Reset address buffer
                                   55477  1
 009926 D501 7570 6334_09D62 00334 55478  1                      IF    (RFCTOKEN,EQ,': '),BEGIN   If have 'group',
 009930 58E0 7546/0DEE       09D38 55495  2                        ACALL RFCGROUP                  Go scan group
 009936 47F0 728A            09A7C 55499  2                        EXIT  RFCADDR                   Return
 00993A                            55502  1                      END
 00993A                            55506                       END
                                   55510                       ¿þþþþþþþþþþþþþþþþþþþþþÜ
                                   55511                       Ÿ  Scan <route-addr>  Ÿ
                                   55512                       ¾þþþþþþþþþþþþþþþþþþþþþ»
 00993A 954C 6334/4770_00334       55513                       IF    (RFCTOKEN,EQ,'<'),BEGIN
 009942 58E0 750E/0DEE       09D00 55530  1                      ACALL RFCSCAN             Scan next token
 009948 58E0 752A/0DEE       09D1C 55534  1                      ACALL RFCRTADD            Scan address
 00994E 956E 6334/4780_00334       55538  1                      IF    (RFCTOKEN,NE,'>'),'ACALL RFCERROR; EXIT RFCADDR'
 009960 D603 6428 6428_00428 00428 55567  1                      IF    (RFCNAMLN,Z),BEGIN  If no name,
 00996A D203 6428 64A4 00428 004A4 55583  2                        MVC   RFCNAMLN,RFCCOMLN   Set name from
 009970 D277 642C 64A8 0042C 004A8 55584  2                        MVC   RFCNAME,RFCCOMM      any comment text
 009976                            55585  1                      END
 009976 58E0 750E/0DEE       09D00 55589  1                      ACALL RFCSCAN             Scan past '>'
 00997C                            55593                       END
                                   55597                       ¿þþþþþþþþþþþþþþþþþþþþþþþþþþþþþþþþþþþþþþþþþþþþþþþþþþþÜ
                                   55598                       Ÿ  Check that we have ended at a correct delimiter  Ÿ
                                   55599                       ¾þþþþþþþþþþþþþþþþþþþþþþþþþþþþþþþþþþþþþþþþþþþþþþþþþþþ»
                                   55600            C RFCADDRX IF    (((RFCTOKEN,NE,' '),OR,RFCFLGRP),AND,
                                                    C                (RFCTOKEN,NE,','),AND,
                                                    C                ((RFCTOKEN,NE,';'),OR,~RFCFLGRP)),
 00997C 9540 6334/4770_00334                                         'ACALL RFCERROR'
 0099AA 9120 605A/4710_0005A       55685                       IF    RFCFLERR,EXIT       Exit if error encountered
 0099B2 9104 605A/47E0_0005A       55703                       IF    ~RFCFLDOM,EXIT      Ignore if no domain
                                   55721                       ¿þþþþþþþþþþþþþþþþþþþþþþþþþþþþþþÜ
                                   55722                       Ÿ  Add address to output file  Ÿ
                                   55723                       ¾þþþþþþþþþþþþþþþþþþþþþþþþþþþþþþ»
 0099BA D212 6147 6040 00147 00040 55724                       MVC   RFCTEMP(19),RFCFIELD           Move in field name
 0099C0 9286 6158      00158       55725                       MVI   RFCTEMP+17,C'f'                Flag address as
 0099C4 9180 605A/47E0_0005A       55726                       IF    RFCFLRCP,'MVI RFCTEMP+17,C"t"'  'from' or 'to'
1PROC     (PROC2193) (12:51) (15MAR04) Routines for System Procedures                                                       Page  192
0Current Usings:  (RFCWA,R6) (*,R7) (CP,R11) (CV,R12)
0Loc    Object Code    Addr1 Addr2  Stmt Lv Lineno    Source Statement           (Hibal 5, Asmedit 3.3)  HLASM R4.0  2004/03/15 12.51
+___    ______ ____    _____ _____  ____ __ ______    ______ _________
00099D0 D277 615A 63B0 0015A 003B0 55747                       MVC   RFCTEMP+19(L'RFCADDBF),RFCADDBF  Move in address
 0099D6 4100 0013            00013 55748                       LA    R0,19                          Compute total
 0099DA 5A00 63AC            003AC 55749                       A     R0,RFCADDLN                      length
 0099DE 4110 6147            00147 55750                       LA    R1,RFCTEMP                     Point to buffer
 0099E2 58E0 754A/0DEE       09D3C 55751                       ACALL RFCPUTLN                       Go add to output file
                                   55755                       ¿þþþþþþþþþþþþþþþþþþþþþþþþþþþþÜ
                                   55756                       Ÿ  Add name to output file.  Ÿ
                                   55757                       ¾þþþþþþþþþþþþþþþþþþþþþþþþþþþþ»
 0099E8 D603 6428 6428_00428 00428 55758                       IF    (RFCNAMLN,NZ),BEGIN            If have name,
 0099F2 D212 6147 759D 00147 09D8F 55774  1                      MVC   RFCTEMP(19),=CL19'name'        Flag as name
 0099F8 D277 615A 642C 0015A 0042C 55775  1                      MVC   RFCTEMP+19(L'RFCNAME),RFCNAME  Move in name
 0099FE 4100 0013            00013 55776  1                      LA    R0,19                          Compute
 009A02 5A00 6428            00428 55777  1                      A     R0,RFCNAMLN                      total length
 009A06 4110 6147            00147 55778  1                      LA    R1,RFCTEMP                     Point to buffer
 009A0A 58E0 754A/0DEE       09D3C 55779  1                      ACALL RFCPUTLN                       Go add to output file
 009A10                            55783                       END
                                   55787                       ¿þþþþþþþþþþþþþþþþþþþþþþþþþþþþþþþþþþþþþþþþþþþþþþþþþþþþþþþÜ
                                   55788                       Ÿ  Add active file pointers for address to output file  Ÿ
                                   55789                       ¾þþþþþþþþþþþþþþþþþþþþþþþþþþþþþþþþþþþþþþþþþþþþþþþþþþþþþþþ»
 009A10 9110 6059/4710_00059       55790                       IF    ~RFCFLNPT,BEGIN     If 'noptr' not specified,
 009A18 D2E7 6147 C4D8 00147 004D8 55805  1                      MVC   RFCTEMP,CVBLANKS
 009A1E D207 6147 74F6 00147 09CE8 55806  1                      MVC   RFCTEMP(8),=C'pointers'
 009A24 4110 615A            0015A 55807  1                      LA    R1,RFCTEMP+19
 009A28 58F0 600C/4100_      0000C 55808  1                      BTR   (R1),(0,3),RFCALIN1   Start line no
 009A36 1A10                       55828  1                      AR    R1,R0
 009A38 58F0 6010/1B00_      00010 55829  1                      BTD   @R1+1,0,RFCACOL1      Start column
 009A48 1A10                       55849  1                      AR    R1,R0
 009A4A 58F0 6014/4100_      00014 55850  1                      BTR   @R1+1,(0,3),RFCALIN2  End line no
 009A5C 1A10                       55873  1                      AR    R1,R0
 009A5E 58F0 6018/1B00_      00018 55874  1                      BTD   @R1+1,0,RFCACOL2      End column
 009A6E 1A01                       55894  1                      AR    R0,R1
 009A70 4110 6147            00147 55895  1                      LA    R1,RFCTEMP
 009A74 1B01                       55896  1                      SR    R0,R1
 009A76 58E0 754A/0DEE       09D3C 55897  1                      ACALL RFCPUTLN
 009A7C                            55901                       END
                                   55905
 009A7C 18D8/9808 D004_            55906                       PEND
 DROP   *,R7
1PROC     (PROC2193) (12:51) (15MAR04) Routines for System Procedures                                                       Page  193
0Current Usings:  (RFCWA,R6) (CP,R11) (CV,R12)
0Loc    Object Code    Addr1 Addr2  Stmt Lv Lineno    Source Statement           (Hibal 5, Asmedit 3.3)  HLASM R4.0  2004/03/15 12.51
+___    ______ ____    _____ _____  ____ __ ______    ______ _________
0                                  55927              ¿þþþþþþþþþþþþþþþþþþþþþþþþþþþþþþþþþþþþþþþþþþþþþþþþþþþþþþþþþþþþþþþþþþþþþÜ
                                   55928              Ÿ  RFCRTADD -- Scan route-address                                     Ÿ
                                   55929              Ÿ                                                                     Ÿ
                                   55930              Ÿ    On entry, current token is start of address                      Ÿ
                                   55931              Ÿ                                                                     Ÿ
                                                      ¾þþþþþþþþþþþþþþþþþþþþþþþþþþþþþþþþþþþþþþþþþþþþþþþþþþþþþþþþþþþþþþþþþþþþþ»
0009A8A 50E0 D000/9008_      00000 55932              RFCRTADD PROC
 USING  *,R7
 009AA4 D203 600C 601C 0000C 0001C 55971                       MVC   RFCALIN1,RFCTLIN1   Save start line number
 009AAA D203 6010 6020 00010 00020 55972                       MVC   RFCACOL1,RFCTCOL1   Save start column position
                                   55973
 009AB0 957C 6334/4770_00334       55974                       IF    (RFCTOKEN,EQ,'@'),BEGIN
 009AB8                            55991  1                      LOOP  BEGIN
 009AB8 58E0 728C/0DEE       09D30 55997  2                        ACALL RFCADDTK                 Add '@' to address
 009ABE 58E0 725C/0DEE       09D00 56001  2                        ACALL RFCSCAN                  Scan domain
 009AC4 D503 7260 6054_09D04 00054 56005  2                        IF    (RFCTTYPE,NE,'word'),'ACALL RFCERROR; EXIT RFCRTADD'
 009AD8 58E0 728C/0DEE       09D30 56034  2                        ACALL RFCADDTK                 Add domain to address
 009ADE 58E0 725C/0DEE       09D00 56038  2                        ACALL RFCSCAN             Scan next token
 009AE4 58E0 728C/0DEE       09D30 56042  2                        ACALL RFCADDTK            Add to address
 009AEA 956B 6334/4770_00334       56046  2                        IF    (RFCTOKEN,NE,','),EXIT   Done if not ','
 009AF2 58E0 725C/0DEE       09D00 56066  2                        ACALL RFCSCAN                  Scan next token
 009AF8 957C 6334/4780_00334       56070  2                        IF    (RFCTOKEN,NE,'@'),'ACALL RFCERROR; EXIT RFCRTADD'
 009B0A 47F0 7014            09AB8 56099  1                      END
 009B0E D501 72BE 6334_09D62 00334 56104  1                      IF    (RFCTOKEN,NE,': '),'ACALL RFCERROR; EXIT RFCRTADD'
 009B22 58E0 725C/0DEE       09D00 56133  1                      ACALL RFCSCAN                  Scan next token
 009B28                            56137                       END
                                   56141
 009B28 58E0 727C/0DEE       09D20 56142                       ACALL RFCADDRS            Scan addr-spec
 009B2E 18D8/9808 D004_            56146                       PEND
 DROP   *,R7
-
                                   56167              ¿þþþþþþþþþþþþþþþþþþþþþþþþþþþþþþþþþþþþþþþþþþþþþþþþþþþþþþþþþþþþþþþþþþþþþÜ
                                   56168              Ÿ  RFCADDRS -- Scan simple address (RFC-822 'addr-spec')              Ÿ
                                   56169              Ÿ                                                                     Ÿ
                                   56170              Ÿ    On entry, current token is start of address                      Ÿ
                                   56171              Ÿ                                                                     Ÿ
                                   56172              Ÿ    On exit, current token is delimiter after address                Ÿ
                                   56173              Ÿ                                                                     Ÿ
                                                      ¾þþþþþþþþþþþþþþþþþþþþþþþþþþþþþþþþþþþþþþþþþþþþþþþþþþþþþþþþþþþþþþþþþþþþþ»
0009B3C 50E0 D000/9008_      00000 56174              RFCADDRS PROC
 USING  *,R7
 009B56 D503 71AE 6054_09D04 00054 56213                       IF    (RFCTTYPE,NE,'word'),BEGIN
 009B60 58E0 71A6/0DEE       09CFC 56230  1                      ACALL RFCERROR
 009B66 47F0 709E            09BF4 56234  1                      EXIT  RFCADDRS
 009B6A                            56237                       END
                                   56241
 009B6A 58E0 71DA/0DEE       09D30 56242                       ACALL RFCADDTK            Move local-part to output buffer
                                   56246
 009B70                            56247                       LOOP  BEGIN
 009B70 D203 6014 6024 00014 00024 56253  1                      MVC   RFCALIN2,RFCTLIN2   Save address end line
1PROC     (PROC2193) (12:51) (15MAR04) Routines for System Procedures                                                       Page  194
0Current Usings:  (RFCWA,R6) (*,R7) (CP,R11) (CV,R12)
0Loc    Object Code    Addr1 Addr2  Stmt Lv Lineno    Source Statement           (Hibal 5, Asmedit 3.3)  HLASM R4.0  2004/03/15 12.51
+___    ______ ____    _____ _____  ____ __ ______    ______ _________
0009B76 D203 6018 6028 00018 00028 56254  1                      MVC   RFCACOL2,RFCTCOL2   Save address end column
 009B7C 58E0 71AA/0DEE       09D00 56255  1                      ACALL RFCSCAN             Scan next token
 009B82 D202 6147 6334 00147 00334 56259  1                      MVC   RFCTEMP(3),RFCTOKEN   Copy first 3 chars
 009B88 58F0 C8AC            008AC 56260  1                      L     R15,CVLOWTBL          Convert to
 009B8C DC01 6147 F000 00147 00000 56261  1                      TR    RFCTEMP(2),@R15         Lower case
                                   56262  1         C            IF    ((RFCTEMP,NE,'@'),AND,  If not '@'
 009B92 957C 6147/4780_00147              1                            (RFCTEMP,NE,'at ')),EXIT  and not 'at', exit loop
 009BA4 4110 7238/4100_      09D8E 56298  1                      SETMSG '@'                       Add '@' to address buffer
 009BAC 41F0 63B0            003B0 56302  1                      LA    R15,RFCADDBF
 009BB0 58E0 71D6/0DEE       09D2C 56303  1                      ACALL RFCPUTS
 009BB6 58E0 71AA/0DEE       09D00 56307  1                      ACALL RFCSCAN             Scan domain
 009BBC D503 71AE 6054_09D04 00054 56311  1                      IF    (RFCTTYPE,NE,'word'),'ACALL RFCERROR; EXIT RFCADDRS'
 009BD0 58E0 71DA/0DEE       09D30 56340  1                      ACALL RFCADDTK            Move domain to address buffer
 009BD6 9604 605A      0005A       56344  1                      SET   RFCFLDOM            Flag domain scanned
 009BDA D603 6428 6428_00428 00428 56350  1                      IF    (RFCNAMLN,Z),BEGIN  If no name yet,
 009BE4 D203 6428 64A4 00428 004A4 56366  2                        MVC   RFCNAMLN,RFCCOMLN   Set name from any
 009BEA D277 642C 64A8 0042C 004A8 56367  2                        MVC   RFCNAME,RFCCOMM       trailing comment text
 009BF0                            56368  1                      END
 009BF0 47F0 701A            09B70 56372                       END
 009BF4 18D8/9808 D004_            56377                       PEND
 DROP   *,R7
-
                                   56398              ¿þþþþþþþþþþþþþþþþþþþþþþþþþþþþþþþþþþþþþþþþþþþþþþþþþþþþþþþþþþþþþþþþþþþþþÜ
                                   56399              Ÿ  RFCGROUP -- Scan RFC-822 group specification                       Ÿ
                                   56400              Ÿ                                                                     Ÿ
                                   56401              Ÿ    On entry, current token is ':'                                   Ÿ
                                   56402              Ÿ                                                                     Ÿ
                                                      ¾þþþþþþþþþþþþþþþþþþþþþþþþþþþþþþþþþþþþþþþþþþþþþþþþþþþþþþþþþþþþþþþþþþþþþ»
0009C02 50E0 D000/9008_      00000 56403              RFCGROUP PROC
 USING  *,R7
                                   56442            C          IF    (~RFCFLRCP,OR,      If not recipient address
 009C1C 9180 605A/47E0_0005A                                         RFCFLGRP),BEGIN       or already in group,
 009C2C 58E0 70E0/0DEE       09CFC 56471  1                      ACALL RFCERROR            Signal error
 009C32 47F0 7056            09C72 56475  1                      EXIT  RFCGROUP            Return
 009C36                            56478                       END
                                   56482
 009C36 58E0 70E4/0DEE       09D00 56483                       ACALL RFCSCAN             Scan past ':'
 009C3C 9610 605A      0005A       56487                       SET   RFCFLGRP            Flag in group
                                   56493
 009C40 955E 6334/4780_00334       56494                       WHILE (RFCTOKEN,NE,';'),BEGIN Loop to final ';'
 009C48 58E0 70FC/0DEE       09D18 56513  1                      ACALL RFCADDR             Scan address
 009C4E 9120 605A/4710_0005A       56517  1                      IF    RFCFLERR,EXIT       Exit if error
 009C56 956B 6334/4770_00334       56535  1                      IF    (RFCTOKEN,EQ,','),'ACALL RFCSCAN'
 009C64 47F0 7024            09C40 56561                       END
                                   56566
 009C68 94EF 605A      0005A       56567                       CLEAR RFCFLGRP            Clear group flag
 009C6C 58E0 70E4/0DEE       09D00 56574                       ACALL RFCSCAN             Scan past ';'
 009C72 18D8/9808 D004_            56578                       PEND
 DROP   *,R7
1PROC     (PROC2193) (12:51) (15MAR04) Routines for System Procedures                                                       Page  195
0Current Usings:  (RFCWA,R6) (CP,R11) (CV,R12)
0Loc    Object Code    Addr1 Addr2  Stmt Lv Lineno    Source Statement           (Hibal 5, Asmedit 3.3)  HLASM R4.0  2004/03/15 12.51
+___    ______ ____    _____ _____  ____ __ ______    ______ _________
0                                  56599              ¿þþþþþþþþþþþþþþþþþþþþþþþþþþþþþþþþþþþþþþþþþþþþþþþþþþþþþþþþþþþþþþþþþþþþþÜ
                                   56600              Ÿ                                                                     Ÿ
                                   56601              Ÿ  RFCSUBJ -- Scan subject line and put in output file                Ÿ
                                   56602              Ÿ                                                                     Ÿ
                                   56603              Ÿ    On entry, current token is field name ('subject')                Ÿ
                                   56604              Ÿ    Current scan pointer points to ':' following                     Ÿ
                                   56605              Ÿ    the field name.                                                  Ÿ
                                   56606              Ÿ                                                                     Ÿ
                                                      ¾þþþþþþþþþþþþþþþþþþþþþþþþþþþþþþþþþþþþþþþþþþþþþþþþþþþþþþþþþþþþþþþþþþþþþ»
0009C80 50E0 D000/9008_      00000 56607              RFCSUBJ  PROC
 USING  *,R7
 009C9A 5810 6034            00034 56646                       L     R1,RFCIPTR          Get input pointer
 009C9E 5E10 708A            09D24 56647                       INCR  R1                  Step past ':'
 009CA2 5800 603C            0003C 56650                       L     R0,RFCIEND          End of current line
 009CA6 1B01                       56651                       SR    R0,R1               Get remaining length
 009CA8 58E0 70AE/0DEE       09D48 56652                       VCALL LRTRIM              Trim blanks
 009CAE 1200/47D0 7036             56656                       IF    (R0,NP),EXIT        Ignore null subject
 009CB4 D212 6147 6040 00147 00040 56673                       MVC   RFCTEMP(19),RFCFIELD   Move field name to work area
 009CBA 18F0                       56674                       LR    R15,R0                 Copy length
 009CBC 06F0/44F0 710E_            56675                       DEX   R15,'MVC RFCTEMP+19(0),@R1'  Move text to work area
 009CC2 5A00 70B2            09D4C 56694                       A     R0,=A(19)              Compute total length
 009CC6 4110 6147            00147 56695                       LA    R1,RFCTEMP             Work area pointer
 009CCA 58E0 70A2/0DEE       09D3C 56696                       ACALL RFCPUTLN               Write line to output file
 009CD0 18D8/9808 D004_            56700                       PEND
 DROP   *,R7
                                   56720
                                   56721                       QLTORG
1PROC     (PROC2193) (12:51) (15MAR04) Routines for System Procedures                                                       Page  196
0Current Usings:  (RFCWA,R6) (CP,R11) (CV,R12)
0Loc    Object Code    Addr1 Addr2  Stmt Lv Lineno    Source Statement           (Hibal 5, Asmedit 3.3)  HLASM R4.0  2004/03/15 12.51
+___    ______ ____    _____ _____  ____ __ ______    ______ _________
0                                  56774              ¿þþþþþþþþþþþþþþþþþþþþþþþþþþþþþþþþþþþþþþþþþþþþþþþþþþþþþþþþþþþþþþþþþþþþþÜ
                                   56775              Ÿ                                                                     Ÿ
                                   56776              Ÿ   RFCSCAN - Scan next token from input file                         Ÿ
                                   56777              Ÿ                                                                     Ÿ
                                   56778              Ÿ     On entry,                                                       Ÿ
                                   56779              Ÿ       - RFCIPTR points to start of next token                       Ÿ
                                   56780              Ÿ                                                                     Ÿ
                                   56781              Ÿ     On exit,                                                        Ÿ
                                   56782              Ÿ       - RFCTOKEN contains token                                     Ÿ
                                   56783              Ÿ       - RFCTTYPE contains RFC-822 token type (word, eof, or spec)   Ÿ
                                   56784              Ÿ       - RFCNEXTC contains first character of next token             Ÿ
                                   56785              Ÿ       - RFCIPTR  points to start of next token                      Ÿ
                                   56786              Ÿ                                                                     Ÿ
                                                      ¾þþþþþþþþþþþþþþþþþþþþþþþþþþþþþþþþþþþþþþþþþþþþþþþþþþþþþþþþþþþþþþþþþþþþþ»
0009DAE 50E0 D000/9008_      00000 56787              RFCSCAN  PROC
 USING  *,R7
 009DC8 D703 64A4 64A4 004A4 004A4 56826                       CLEAR RFCCOMLN            Clear comment text length
 009DCE D703 6330 6330 00330 00330 56833                       CLEAR RFCTOKLN            Clear token length
 009DD4 D277 6334 C4D8 00334 004D8 56840                       MVC   RFCTOKEN,CVBLANKS   Clear token area
 009DDA D203 6054 7900 00054 0A6C8 56841                       MVC   RFCTTYPE,=C'eof '   Set token type
                                   56842
 009DE0 9128 605A/4780_0005A       56843                       IF    (RFCFLEOF+RFCFLERR,NZ),'EXIT RFCSCAN'
                                   56871
 009DEC D203 601C 602C 0001C 0002C 56872                       MVC   RFCTLIN1,RFCLINE    Save token start line
 009DF2 5810 6034            00034 56873                       L     R1,RFCIPTR          Compute
 009DF6 4100 605A            0005A 56874                       LA    R0,RFCIBUF-1         current
 009DFA 1B10                       56875                       SR    R1,R0                 scan column
 009DFC 5010 6020            00020 56876                       ST    R1,RFCTCOL1         Save token start column
                                   56877                       ¿þþþþþþþþþþþþþþþþþþþÜ
                                   56878                       Ÿ  Scan next token  Ÿ
                                   56879                       ¾þþþþþþþþþþþþþþþþþþþ»
 009E00 5810 6034            00034 56880                       L     R1,RFCIPTR          Get current scan pointer
 009E04 1B22                       56881                       CLEAR R2                  Clear TRT return reg
                                   56885
 009E06                            56886                       LOOP  BEGIN
 009E06 DDFF 1000 72A6 00000 0A06E 56892  1                      TRT   @R1(256),RFCCTAB    Scan for delimiter
 009E0C D501 7968 1000_0A730 00000 56893  1                      IF    (@R1,EQ,'::'),BEGIN  Patch for Decnet addresses
 009E16 DDFF 1002 72A6 00002 0A06E 56909  2                        TRT   @R1+2(256),RFCCTAB   Scan past '::'
 009E1C                            56910  1                      END
 009E1C 5920 7904/4780_      0A6CC 56914  1                      IF    (R2,EQ,RFC#DLIM),EXIT  Exit if delimiter
 009E24 41F0 6334            00334 56934  1                      LA    R15,RFCTOKEN        Point to output area
 009E28 58E0 7908/0DEE       0A6D0 56935  1                      ACALL RFCSCNQS            Scan quoted string
 009E2E 9120 605A/4710_0005A       56939  1                      IF    RFCFLERR,RFCSCERR   Check for error
 009E36 47F0 703E            09E06 56957                       END
                                   56962                       ¿þþþþþþþþþþþþþþþþþþþþþþþÜ
                                   56963                       Ÿ  Update token fields  Ÿ
                                   56964                       ¾þþþþþþþþþþþþþþþþþþþþþþþ»
 009E3A D203 6054 790C 00054 0A6D4 56965                       MVC   RFCTTYPE,=C'word'   Assume standard token type
                                   56966            C          IF    ((RFCTOKLN,Z),AND,  If no data in token buffer,
 009E40 D603 6330 6330_00330 00330                                   (R1,EQ,RFCIPTR)),BEGIN  and scan pointer unchanged,
 009E52 D203 6054 7910 00054 0A6D8 56998  1                      MVC   RFCTTYPE,=C'spec'       Token is single special char
 009E58 5E10 7914            0A6DC 56999  1                      INCR  R1                      Increment scan pointer
 009E5C                            57002                       END
1PROC     (PROC2193) (12:51) (15MAR04) Routines for System Procedures                                                       Page  197
0Current Usings:  (RFCWA,R6) (*,R7) (CP,R11) (CV,R12)
0Loc    Object Code    Addr1 Addr2  Stmt Lv Lineno    Source Statement           (Hibal 5, Asmedit 3.3)  HLASM R4.0  2004/03/15 12.51
+___    ______ ____    _____ _____  ____ __ ______    ______ _________
0                                  57006
 009E5C 41F0 6334            00334 57007                       LA    R15,RFCTOKEN        Point to output area
 009E60 58E0 7918/0DEE       0A6E0 57008                       ACALL RFCSCSEG            Move text segment to output area
                                   57012
 009E66 5810 6034            00034 57013                       L     R1,RFCIPTR          Get current pointer
 009E6A 4100 605B            0005B 57014                       LA    R0,RFCIBUF          Compute
 009E6E 1B10                       57015                       SR    R1,R0                token end column
 009E70 5010 6028            00028 57016                       ST    R1,RFCTCOL2         Save value
 009E74 D203 6024 602C 00024 0002C 57017                       MVC   RFCTLIN2,RFCLINE    Save token end line
                                   57018
 009E7A 9140 6059/47E0_00059       57019                       IF    RFCFLDEB,BEGIN      If debug set,
 009E82 4110 79AA/4100_      0A772 57034  1                      TSEG  'Token scanned: '     write message
 009E94 4110 6334/5800_      00334 57052  1                      TSEG  RFCTOKEN,L:RFCTOKLN,CR
 009EA6                            57080                       END
                                   57084                       ¿þþþþþþþþþþþþþþþþþþþþþþþþþþþþþþþþþþþþþþþþþþþþþþþþþþþÜ
                                   57085                       Ÿ  Scan past blanks and comments to start of next   Ÿ
                                   57086                       Ÿ  token and put first character in RFCNEXTC. Save  Ÿ
                                   57087                       Ÿ  any comment text encountered.                    Ÿ
                                   57088                       ¾þþþþþþþþþþþþþþþþþþþþþþþþþþþþþþþþþþþþþþþþþþþþþþþþþþþ»
 009EA6 5810 6034            00034 57089                       L     R1,RFCIPTR          Get input pointer
 009EAA                            57090                       LOOP  BEGIN
 009EAA 58F0 603C            0003C 57096  1                      L     R15,RFCIEND         Compute
 009EAE 1BF1                       57097  1                      SR    R15,R1               remaining length
 009EB0 1B22                       57098  1                      CLEAR R2                  Clear TRT result reg
 009EB2 06F0/12FF/4740_            57102  1                      DTEX  R15,'TRT @R1(0),RFCBLKTR'  Scan past blanks
 009EBE 5920 7924/4780_      0A6EC 57139  1                      IF    (R2,EQ,255),EXIT        Exit if have character
 009EC6 1222/4770 711E             57159  1                      IF    (R2,Z),BEGIN            If end of line,
 009ECC 58E0 7928/0DEE       0A6F0 57173  2                        ACALL RFCGETLN            Get next line
 009ED2 9108 605A/47E0_0005A       57177  2                        IF    RFCFLEOF,BEGIN      If end of field,
 009EDA 9240 6058      00058       57192  3                          MVI   RFCNEXTC,C' '       Set blank next char
 009EDE 47F0 7162            09F2A 57193  3                          EXIT  RFCSCAN             Return
 009EE2                            57196  2                        END
 009EE2 5810 6034            00034 57200  2                        L     R1,RFCIPTR          Get new scan pointer
 009EE6                            57201  1                      END
 009EE6 7122/47F0 713E 09EE6 09ECA 57205  1                      ELSE  BEGIN               Else hit '(' at start of comment
 009EEA 5010 6034            00034 57216  2                        ST    R1,RFCIPTR          Update start pointer
 009EEE D703 64A4 64A4 004A4 004A4 57217  2                        CLEAR RFCCOMLN            Reset comment length
 009EF4 41F0 64A8            004A8 57224  2                        LA    R15,RFCCOMM         Point to output area
 009EF8 58E0 7908/0DEE       0A6D0 57225  2                        ACALL RFCSCNQS            Scan past comment
 009EFE 9120 605A/4710_0005A       57229  2                        IF    RFCFLERR,RFCSCERR   Check for error
 009F06                            57247  1                      END
 009F06 47F0 70E2            09EAA 57251                       END
                                   57256
 009F0A 5010 6034            00034 57257                       ST    R1,RFCIPTR          Save new scan pointer
 009F0E D200 6058 1000 00058 00000 57258                       MVC   RFCNEXTC,@R1        Set next character
 009F14 47F0 7162            09F2A 57259                       EXIT  RFCSCAN             Return
                                   57262                       ¿þþþþþþþþþþþþþþþþþþþþþþþþþþþþþþþþþþþþþþþþþþþÜ
                                   57263                       Ÿ  Error scanning quoted string or comment  Ÿ
                                   57264                       ¾þþþþþþþþþþþþþþþþþþþþþþþþþþþþþþþþþþþþþþþþþþþ»
 009F18 D703 6330 6330 00330 00330 57265              RFCSCERR CLEAR RFCTOKLN            Set null token
 009F1E D277 6334 C4D8 00334 004D8 57273                       MVC   RFCTOKEN,CVBLANKS
 009F24 D203 6054 792C 00054 0A6F4 57274                       MVC   RFCTTYPE,=C'err '
                                   57275
 009F2A 18D8/9808 D004_            57276                       PEND
1PROC     (PROC2193) (12:51) (15MAR04) Routines for System Procedures                                                       Page  198
0Current Usings:  (RFCWA,R6) (CP,R11) (CV,R12)
0Loc    Object Code    Addr1 Addr2  Stmt Lv Lineno    Source Statement           (Hibal 5, Asmedit 3.3)  HLASM R4.0  2004/03/15 12.51
+___    ______ ____    _____ _____  ____ __ ______    ______ _________
0DROP   *,R7
1PROC     (PROC2193) (12:51) (15MAR04) Routines for System Procedures                                                       Page  199
0Current Usings:  (RFCWA,R6) (CP,R11) (CV,R12)
0Loc    Object Code    Addr1 Addr2  Stmt Lv Lineno    Source Statement           (Hibal 5, Asmedit 3.3)  HLASM R4.0  2004/03/15 12.51
+___    ______ ____    _____ _____  ____ __ ______    ______ _________
0                                  57297              ¿þþþþþþþþþþþþþþþþþþþþþþþþþþþþþþþþþþþþþþþþþþþþþþþþþþþþþþþþþþþþþþþþþþþþþÜ
                                   57298              Ÿ   RFCSCNQS -- Scan quoted string or comment                         Ÿ
                                   57299              Ÿ                                                                     Ÿ
                                   57300              Ÿ     On entry:                                                       Ÿ
                                   57301              Ÿ       R1  - current scan pointer                                    Ÿ
                                   57302              Ÿ       R15 - output area                                             Ÿ
                                   57303              Ÿ     On exit:                                                        Ÿ
                                   57304              Ÿ       R1  - updated scan pointer                                    Ÿ
                                   57305              Ÿ                                                                     Ÿ
                                                      ¾þþþþþþþþþþþþþþþþþþþþþþþþþþþþþþþþþþþþþþþþþþþþþþþþþþþþþþþþþþþþþþþþþþþþþ»
0009F38 50E0 D000/9008_      00000 57306              RFCSCNQS PROC
 USING  *,R7
 009F52 D7FF 622F 622F 0022F 0022F 57345                       CLEAR RFCTRT              Clear TRT area
 009F58 9201 630F      0030F       57352                       MVI   RFCTRT+C'\',1       Stop on '\'
 009F5C 957F 1000/4770_00000       57353                       IF    (@R1,EQ,'"'),BEGIN  If quoted string,
 009F64 9201 62AE      002AE       57369  1                      MVI   RFCTRT+C'"',1       Stop on quote
 009F68                            57370                       END
 009F68 701A/47F0 7026 09F68 09F62 57374                       ELSE  BEGIN               Else scanning comment,
 009F6C 9201 627C      0027C       57385  1                      MVI   RFCTRT+C'(',1       Stop on '('
 009F70 9201 628C      0028C       57386  1                      MVI   RFCTRT+C')',1       Stop on ')'
 009F74 4130 0001            00001 57387  1                      LA    R3,1                Init nesting level
 009F78                            57388                       END
                                   57392
 009F78 185F                       57393                       LR    R5,R15              Save output pointer
 009F7A 5E10 778A            0A6DC 57394                       INCR  R1                  Step past leading char
                                   57397
 009F7E                            57398              RFCSCNQL LOOP  BEGIN
 009F7E 1B22                       57405  1                      CLEAR R2                  Clear TRT result reg
 009F80 58F0 603C            0003C 57409  1                      L     R15,RFCIEND         Compute
 009F84 1BF1                       57410  1                      SR    R15,R1               remaining text length
 009F86 06F0/12FF/4740_            57411  1                      DTEX  R15,'TRT @R1(0),RFCTRT'  Scan for delimiter
                                   57448  1
 009F92 1222/4770 706E             57449  1                      IF    (R2,Z),BEGIN        If off end of line,
 009F98 5810 603C            0003C 57463  2                        L     R1,RFCIEND          Set end pointer
 009F9C 18F5                       57464  2                        LR    R15,R5              Output area pointer
 009F9E 58E0 778E/0DEE       0A6E0 57465  2                        ACALL RFCSCSEG            Move text segment to output area
 009FA4 58E0 779E/0DEE       0A6F0 57469  2                        ACALL RFCGETLN            Get next line
 009FAA 9108 605A/47E0_0005A       57473  2                        IF    RFCFLEOF,BEGIN      If end of field,
 009FB2 58E0 77A6/0DEE       0A6F8 57488  3                          ACALL RFCERROR            Signal scan error
 009FB8 47F0 70CE            0A020 57492  3                          EXIT  RFCSCNQS            Return
 009FBC                            57495  2                        END
 009FBC 5810 6034            00034 57499  2                        L     R1,RFCIPTR          Get new input pointer
 009FC0                            57500  1                      END
                                   57504  1
 009FC0 7072/47F0 707E_09FC0 09F96 57505  1                      ELSEIF (@R1,EQ,'"'),'EXIT RFCSCNQL'  If quote, exit loop
                                   57538  1
 009FD0 7082/47F0 708E_09FD0 09FCA 57539  1                      ELSEIF (@R1,EQ,'\'),BEGIN  If escape char,
 009FDC 5E10 778A            0A6DC 57564  2                        INCR  R1                   Step past it
 009FE0                            57567  1                      END
                                   57571  1
 009FE0 7092/47F0 709E_09FE0 09FDA 57572  1                      ELSEIF (@R1,EQ,'('),BEGIN  If open paren,
 009FEC 5E30 778A            0A6DC 57597  2                        INCR  R3                   Incr nesting level
 009FF0                            57600  1                      END
1PROC     (PROC2193) (12:51) (15MAR04) Routines for System Procedures                                                       Page  200
0Current Usings:  (RFCWA,R6) (*,R7) (CP,R11) (CV,R12)
0Loc    Object Code    Addr1 Addr2  Stmt Lv Lineno    Source Statement           (Hibal 5, Asmedit 3.3)  HLASM R4.0  2004/03/15 12.51
+___    ______ ____    _____ _____  ____ __ ______    ______ _________
0                                  57604  1
 009FF0 70A2/47F0 70B6_09FF0 09FEA 57605  1                      ELSEIF (@R1,EQ,')'),BEGIN  If close paren,
 009FFC 0630                       57630  2                        DECR  R3                   Decr nesting level
 009FFE 1233/4770 70B6_            57632  2                        IF    (R3,Z),'EXIT RFCSCNQL'  If final paren, exit loop
 00A008                            57654  1                      END
                                   57658  1
 00A008 5E10 778A            0A6DC 57659  1                      INCR  R1                  Step past current character
 00A00C 47F0 702C            09F7E 57662                       END
                                   57667
 00A010 5E10 778A            0A6DC 57668                       INCR  R1                  Step past final character
 00A014 18F5                       57671                       LR    R15,R5              Output area pointer
 00A016 58E0 778E/0DEE       0A6E0 57672                       ACALL RFCSCSEG            Move text segment to output area
 00A01C 5018 0008            00008 57676                       PRETURN (R1)
 00A020 18D8/9808 D004_            57678                       PEND
 DROP   *,R7
-                                  57699              ¿þþþþþþþþþþþþþþþþþþþþþþþþþþþþþþþþþþþþþþþþþþþþþþþþþþþþþþþþþþþþþþþþþþþþþÜ
                                   57700              Ÿ  RFCSCSEG -- Add scanned segment to output area                     Ÿ
                                   57701              Ÿ                                                                     Ÿ
                                   57702              Ÿ    On entry:  R1  - end of segment (RFCIPTR -> start)               Ÿ
                                   57703              Ÿ               R15 - output buffer pointer                           Ÿ
                                   57704              Ÿ                                                                     Ÿ
                                                      ¾þþþþþþþþþþþþþþþþþþþþþþþþþþþþþþþþþþþþþþþþþþþþþþþþþþþþþþþþþþþþþþþþþþþþþ»
000A02E 50E0 D000/9008_      00000 57705              RFCSCSEG PROC
 USING  *,R7
 00A048 1821                       57744                       LR    R2,R1               Save scan pointer
 00A04A 1801                       57745                       LR    R0,R1               Copy current pointer
 00A04C 5B00 6034            00034 57746                       S     R0,RFCIPTR          Compute segment length
 00A050 5810 6034            00034 57747                       L     R1,RFCIPTR          Get start of string
 00A054 58E0 76B4/0DEE       0A6FC 57748                       ACALL RFCPUTS             Put string in output area
 00A05A 1812                       57752                       LR    R1,R2               Restore scan pointer
 00A05C 5010 6034            00034 57753                       ST    R1,RFCIPTR          Update saved pointer
 00A060 18D8/9808 D004_            57754                       PEND
 DROP   *,R7
1PROC     (PROC2193) (12:51) (15MAR04) Routines for System Procedures                                                       Page  201
0Current Usings:  (RFCWA,R6) (CP,R11) (CV,R12)
0Loc    Object Code    Addr1 Addr2  Stmt Lv Lineno    Source Statement           (Hibal 5, Asmedit 3.3)  HLASM R4.0  2004/03/15 12.51
+___    ______ ____    _____ _____  ____ __ ______    ______ _________
0                                  57775                       ¿þþþþþþþþþþþþþþþþþþþþþþþþþþþþþþþþþþÜ
                                   57776                       Ÿ  Character scan translate table  Ÿ
                                   57777                       ¾þþþþþþþþþþþþþþþþþþþþþþþþþþþþþþþþþþ»
                                   57778              RFC#CHAR EQU   0                   Non-special character
                                   57779              RFC#DLIM EQU   1                   Delimiter character
                                   57780              RFC#QUOT EQU   2                   String quote
                                   57781
 00A06E 0000000000000000           57782              RFCCTAB  DC    256AL1(RFC#CHAR)
 00A16E                0A16E 0A073 57783                       ORG   RFCCTAB+X'05'
 00A073 01                         57784                       DC    AL1(RFC#DLIM)
 00A074                0A074 0A0AE 57785                       ORG   RFCCTAB+C' '
 00A0AE 01                         57786                       DC    AL1(RFC#DLIM)
 00A0AF                0A0AF 0A0BB 57787                       ORG   RFCCTAB+C'('
 00A0BB 01                         57788                       DC    AL1(RFC#DLIM)
 00A0BC                0A0BC 0A0CB 57789                       ORG   RFCCTAB+C')'
 00A0CB 01                         57790                       DC    AL1(RFC#DLIM)
 00A0CC                0A0CC 0A0BA 57791                       ORG   RFCCTAB+C'<'
 00A0BA 01                         57792                       DC    AL1(RFC#DLIM)
 00A0BB                0A0BB 0A0DC 57793                       ORG   RFCCTAB+C'>'
 00A0DC 01                         57794                       DC    AL1(RFC#DLIM)
 00A0DD                0A0DD 0A0EA 57795                       ORG   RFCCTAB+C'@'
 00A0EA 01                         57796                       DC    AL1(RFC#DLIM)
 00A0EB                0A0EB 0A0D9 57797                       ORG   RFCCTAB+C','
 00A0D9 01                         57798                       DC    AL1(RFC#DLIM)
 00A0DA                0A0DA 0A0CC 57799                       ORG   RFCCTAB+C';'
 00A0CC 01                         57800                       DC    AL1(RFC#DLIM)
 00A0CD                0A0CD 0A0E8 57801                       ORG   RFCCTAB+C':'
 00A0E8 01                         57802                       DC    AL1(RFC#DLIM)
 00A0E9                0A0E9 0A0ED 57803                       ORG   RFCCTAB+C'"'
 00A0ED 02                         57804                       DC    AL1(RFC#QUOT)
 00A0EE                0A0EE 0A16E 57805                       ORG   RFCCTAB+256
-                                  57807                       ¿þþþþþþþþþþþþþþþþþþþþþþþþþþþþþþÜ
                                   57808                       Ÿ  Blank scan translate table  Ÿ
                                   57809                       ¾þþþþþþþþþþþþþþþþþþþþþþþþþþþþþþ»
 00A16E FFFFFFFFFFFFFFFF           57810              RFCBLKTR DC    256X'FF'
 00A26E                0A26E 0A173 57811                       ORG   RFCBLKTR+X'05'
 00A173 00                         57812                       DC    X'00'
 00A174                0A174 0A1AE 57813                       ORG   RFCBLKTR+C' '
 00A1AE 00                         57814                       DC    X'00'
 00A1AF                0A1AF 0A1BB 57815                       ORG   RFCBLKTR+C'('
 00A1BB 01                         57816                       DC    X'01'
 00A1BC                0A1BC 0A26E 57817                       ORG   RFCBLKTR+256
1PROC     (PROC2193) (12:51) (15MAR04) Routines for System Procedures                                                       Page  202
0Current Usings:  (RFCWA,R6) (CP,R11) (CV,R12)
0Loc    Object Code    Addr1 Addr2  Stmt Lv Lineno    Source Statement           (Hibal 5, Asmedit 3.3)  HLASM R4.0  2004/03/15 12.51
+___    ______ ____    _____ _____  ____ __ ______    ______ _________
0                                  57819              ¿þþþþþþþþþþþþþþþþþþþþþþþþþþþþþþþþþþþþþþþþþþþþþþþþþþþþþþþþþþþþþþþþþþþþþÜ
                                   57820              Ÿ   RFCGETLN -- Get next line from active file                        Ÿ
                                   57821              Ÿ                                                                     Ÿ
                                                      ¾þþþþþþþþþþþþþþþþþþþþþþþþþþþþþþþþþþþþþþþþþþþþþþþþþþþþþþþþþþþþþþþþþþþþþ»
000A26E 50E0 D000/9008_      00000 57822              RFCGETLN PROC
 USING  *,R7
 00A288 4100 0001/5E00_      00001 57861                       INCR  R0,RFCLINCT         Incr line counter
 00A294 D2EB 605B C4D8 0005B 004D8 57867                       MVC   RFCIBUF,CVBLANKS    Blank input buffer
 00A29A 4110 605B            0005B 57868                       LA    R1,RFCIBUF          Input buffer
 00A29E 4120 602C            0002C 57869                       LA    R2,RFCLINE          Line number
 00A2A2 1B33                       57870                       CLEAR R3                  Active file number
 00A2A4 58E0 7478/0DEE       0A700 57874                       VCALL GTNEXT              Get next line
                                   57878            C          IF    ((R15,NZ),OR,       If no more lines,
 00A2AA 12FF/4770 702E_                                              (R0,Z)),BEGIN         or null line,
 00A2B6 1B00                       57905  1                      CLEAR R0                  Force null line
 00A2B8 9608 605A      0005A       57909  1                      SET   RFCFLEOF            Flag end of field
 00A2BC 9680 6059      00059       57915  1                      SET   RFCFLEOD            Flag end of header
 00A2C0                            57921                       END
                                   57925
 00A2C0 1200/4780 7044             57926                       IF    (R0,NZ),BEGIN       If not null line,
 00A2C6 D203 6004 602C 00004 0002C 57940  1                      MVC   RFCENDLN,RFCLINE    Update last line
 00A2CC                            57941                       END
                                   57945
 00A2CC 5000 6038            00038 57946                       ST    R0,RFCILEN          Save input length
 00A2D0 4110 605B            0005B 57947                       LA    R1,RFCIBUF          Start of buffer
 00A2D4 5010 6034            00034 57948                       ST    R1,RFCIPTR          Set new input pointer
 00A2D8 1A10                       57949                       AR    R1,R0               End of buffer
 00A2DA 5010 603C            0003C 57950                       ST    R1,RFCIEND          Set new end pointer
                                   57951
                                   57952            C          IF    ((RFCIBUF,NE,' '),AND,  If not
 00A2DE 9540 605B/4780_0005B                                         (RFCIBUF,NE,X'05')),BEGIN   continuation,
 00A2EE 9608 605A      0005A       57985  1                      SET   RFCFLEOF                Set end of field flag
 00A2F2                            57991                       END
                                   57995
 00A2F2 9120 6059/4710_00059       57996                       IF    (~RFCFLNOL,AND,(RFCILEN,NZ)),BEGIN  Log line
 00A304 4110 605B/5800_      0005B 58026  1                      TSEG  RFCIBUF,L:RFCILEN,CR  Write line
 00A316                            58054                       END
 00A316 18D8/9808 D004_            58058                       PEND
 DROP   *,R7
-                                  58079              ¿þþþþþþþþþþþþþþþþþþþþþþþþþþþþþþþþþþþþþþþþþþþþþþþþþþþþþþþþþþþþþþþþþþþþþÜ
                                   58080              Ÿ  RFCADDTK -- Add current token to address buffer                    Ÿ
                                   58081              Ÿ                                                                     Ÿ
                                                      ¾þþþþþþþþþþþþþþþþþþþþþþþþþþþþþþþþþþþþþþþþþþþþþþþþþþþþþþþþþþþþþþþþþþþþþ»
000A324 50E0 D000/9008_      00000 58082              RFCADDTK PROC
 USING  *,R7
 00A33E 5800 6330            00330 58121                       L     R0,RFCTOKLN         Token length
 00A342 4110 6334            00334 58122                       LA    R1,RFCTOKEN         Token address
 00A346 41F0 63B0            003B0 58123                       LA    R15,RFCADDBF        Output area
 00A34A 58E0 73BE/0DEE       0A6FC 58124                       ACALL RFCPUTS             Put string in output area
 00A350 18D8/9808 D004_            58128                       PEND
1PROC     (PROC2193) (12:51) (15MAR04) Routines for System Procedures                                                       Page  203
0Current Usings:  (RFCWA,R6) (CP,R11) (CV,R12)
0Loc    Object Code    Addr1 Addr2  Stmt Lv Lineno    Source Statement           (Hibal 5, Asmedit 3.3)  HLASM R4.0  2004/03/15 12.51
+___    ______ ____    _____ _____  ____ __ ______    ______ _________
0DROP   *,R7
1PROC     (PROC2193) (12:51) (15MAR04) Routines for System Procedures                                                       Page  204
0Current Usings:  (RFCWA,R6) (CP,R11) (CV,R12)
0Loc    Object Code    Addr1 Addr2  Stmt Lv Lineno    Source Statement           (Hibal 5, Asmedit 3.3)  HLASM R4.0  2004/03/15 12.51
+___    ______ ____    _____ _____  ____ __ ______    ______ _________
0                                  58149              ¿þþþþþþþþþþþþþþþþþþþþþþþþþþþþþþþþþþþþþþþþþþþþþþþþþþþþþþþþþþþþþþþþþþþþþÜ
                                   58150              Ÿ  RFCPUTS -- Put string in output area                               Ÿ
                                   58151              Ÿ                                                                     Ÿ
                                   58152              Ÿ    On entry:                                                        Ÿ
                                   58153              Ÿ      R0,R1 - string len and addr                                    Ÿ
                                   58154              Ÿ      R15   - output area (length word precedes @R15)                Ÿ
                                   58155              Ÿ                                                                     Ÿ
                                                      ¾þþþþþþþþþþþþþþþþþþþþþþþþþþþþþþþþþþþþþþþþþþþþþþþþþþþþþþþþþþþþþþþþþþþþþ»
000A35E 50E0 D000/9008_      00000 58156              RFCPUTS  PROC
 USING  *,R7
 00A378 4BF0 73BA            0A732 58195                       SH    R15,=Y(4)           Back up to length word
 00A37C 5820 F000            00000 58196                       L     R2,@R15             Get current length
 00A380 1832                       58197                       LR    R3,R2               Compute new
 00A382 1A30                       58198                       AR    R3,R0                 total length
 00A384 5930 738C/47D0_      0A704 58199                       IF    (R3,GT,RFCMAXLN),BEGIN  If overflow,
 00A38C 58E0 7380/0DEE       0A6F8 58216  1                      ACALL RFCERROR                Flag scan error
 00A392 47F0 7034            0A3AC 58220  1                      EXIT  RFCPUTS                 Return
 00A396                            58223                       END
 00A396 5030 F000            00000 58227                       ST    R3,@R15             Save new total length
 00A39A 41F2 F004            00004 58228                       LA    R15,4(R2,R15)       Set target for string move
 00A39E 18E0                       58229                       LR    R14,R0              Copy input string length
 00A3A0 06E0/12EE/4740_            58230                       DTEX  R14,'MVC @R15(0),@R1'  Move string to output area
 00A3AC 18D8/9808 D004_            58267                       PEND
 DROP   *,R7
-                                  58288              ¿þþþþþþþþþþþþþþþþþþþþþþþþþþþþþþþþþþþþþþþþþþþþþþþþþþþþþþþþþþþþþþþþþþþþþÜ
                                   58289              Ÿ                                                                     Ÿ
                                   58290              Ÿ  RFCPUTLN -- Write line to output file                              Ÿ
                                   58291              Ÿ                                                                     Ÿ
                                   58292              Ÿ    On entry, text len and addr in R0 and R1                         Ÿ
                                   58293              Ÿ                                                                     Ÿ
                                                      ¾þþþþþþþþþþþþþþþþþþþþþþþþþþþþþþþþþþþþþþþþþþþþþþþþþþþþþþþþþþþþþþþþþþþþþ»
000A3BA 50E0 D000/9008_      00000 58294              RFCPUTLN PROC
 USING  *,R7
 00A3D4 5830 6000            00000 58333                       L     R3,RFCOUTNO         Get active file number
 00A3D8 1233/4780 7010             58334                       IF    (R3,Z),EXIT         Exit if none
 00A3DE 58E0 7334/0DEE       0A708 58351                       VCALL PTAPPEND  ,
                                   58355              * BELOW IS HARD TO DO AND NEVER OCCURES,, UNLESS FULL ACTIVE
                                   58356              * SO WE JUST SKIP IT !
                                   58357              *        IF    (R15,NZ),'EXIT RFCSCANH'  Exit if error
 00A3E4 18D8/9808 D004_            58358                       PEND
 DROP   *,R7
0                                  58379              ¿þþþþþþþþþþþþþþþþþþþþþþþþþþþþþþþþþþþþþþþþþþþþþþþþþþþþþþþþþþþþþþþþþþþþþÜ
                                   58380              Ÿ                                                                     Ÿ
                                   58381              Ÿ  RFCERROR -- Syntax error found in header                           Ÿ
                                   58382              Ÿ                                                                     Ÿ
                                                      ¾þþþþþþþþþþþþþþþþþþþþþþþþþþþþþþþþþþþþþþþþþþþþþþþþþþþþþþþþþþþþþþþþþþþþþ»
000A3F2 50E0 D000/9008_      00000 58383              RFCERROR PROC
 USING  *,R7
1PROC     (PROC2193) (12:51) (15MAR04) Routines for System Procedures                                                       Page  205
0Current Usings:  (RFCWA,R6) (*,R7) (CP,R11) (CV,R12)
0Loc    Object Code    Addr1 Addr2  Stmt Lv Lineno    Source Statement           (Hibal 5, Asmedit 3.3)  HLASM R4.0  2004/03/15 12.51
+___    ______ ____    _____ _____  ____ __ ______    ______ _________
000A40C 9120 605A/4710_0005A       58422                       IF    RFCFLERR,EXIT       Exit if prev error in this field
 00A414 9620 605A      0005A       58440                       SET   RFCFLERR            Flag syntax error
 00A418 9608 6059      00059       58446                       SET   RFCFLBAD            Flag invalid header
 00A41C D613 6040 6040_00040 00040 58452                       IF    (RFCFIELD,Z),BEGIN  If no field scanned yet,
 00A426 4110 7328/4100_      0A734 58468  1                      TSEG  'No mail header',,CR    Assume no mail header
 00A438                            58486                       END
 00A438 7030/47F0 709C 0A438 0A424 58490                       ELSE  BEGIN               Else log scan error
 00A43C 4110 7336/4100_      0A742 58501  1                      TSEG  'Header scan error - Scan pointer is at column '
 00A44E 58F0 6034            00034 58519  1                      L     R15,RFCIPTR
 00A452 4100 605A            0005A 58520  1                      LA    R0,RFCIBUF-1
 00A456 1BF0                       58521  1                      SR    R15,R0
 00A458 1B00/4110 6147_            58522  1                      BTD   RFCTEMP,0,(R15)
 00A464 41F0 B050/58E0_      00050 58541  1                      TSEG  (R1),(R0)
 00A46E D603 6330 6330_00330 00330 58565  1                      IF    (RFCTOKLN,NZ),BEGIN
 00A478 4110 7304/4100_      0A710 58581  2                        TSEG  '  Current token is: '
 00A48A 4110 6334/5800_      00334 58599  2                        TSEG  RFCTOKEN,L:RFCTOKLN
 00A49C                            58627  1                      END
 00A49C 1B00/41F0 B050_            58631  1                      TCR
 00A4A8                            58656                       END
 00A4A8 18D8/9808 D004_            58660                       PEND
 DROP   *,R7
0                                  58681              ¿þþþþþþþþþþþþþþþþþþþþþþþþþþþþþþþþþþþþþþþþþþþþþþþþþþþþþþþþþþþþþþþþþþþþþÜ
                                   58682              Ÿ                                                                     Ÿ
                                   58683              Ÿ  RFCSCNOP -- Scan initial option string                             Ÿ
                                   58684              Ÿ                                                                     Ÿ
                                   58685              Ÿ    On entry:  R0,R1 = options string length and address             Ÿ
                                   58686              Ÿ                                                                     Ÿ
                                   58687              Ÿ    On exit: r15 = 0 if all ok,  r15 = 4 if bad options              Ÿ
                                                      ¾þþþþþþþþþþþþþþþþþþþþþþþþþþþþþþþþþþþþþþþþþþþþþþþþþþþþþþþþþþþþþþþþþþþþþ»
000A4B6 50E0 D000/9008_      00000 58688              RFCSCNOP PROC
 USING  *,R7
 00A4D0 1200/4780 7080             58727                       IF    (R0,Z),EXIT
 00A4D6 58E0 B08C/D2AF_      0008C 58744                       SCPUSH ,
 00A4E4 58E0 B08C/501E_      0008C 58750                       SCINIT (R1),(R0)                    Init scanner
 00A4F2 5810 B08C/1B00_      0008C 58770                       SCAN  RFCOPPRT
 00A544 12FF/47B0 7080_            58802                       IF    (R15,M),' ACALL RFCOPERR'
 00A550 18D8/9808 D004_            58825                       PEND
 DROP   *,R7
                                   58845
 00A560 C4C5C2E4C7404040_          58846              RFCOPPRT SCKW  DEBUG,RFCOPDEB
 00A588 D5D6D3C9E2E34040_          58861                       SCKW  NOLIST,RFCOPNOL
 00A5B0 D5D6D7E3D9404040_          58876                       SCKW  NOPTR,RFCOPNPT
 00A5D8 4040404040404040_          58891                       SCKW  ,RFCOPERR
                                   58906
 00A600 50E0 D000/9008_      00000 58907              RFCOPDEB PROC
 USING  *,R7
 00A61A 9640 6059      00059       58946                       SET   RFCFLDEB            'debug' option
 00A61E 18D8/9808 D004_            58952                       PEND
 DROP   *,R7
                                   58972
 00A62C 50E0 D000/9008_      00000 58973              RFCOPNOL PROC
 USING  *,R7
1PROC     (PROC2193) (12:51) (15MAR04) Routines for System Procedures                                                       Page  206
0Current Usings:  (RFCWA,R6) (*,R7) (CP,R11) (CV,R12)
0Loc    Object Code    Addr1 Addr2  Stmt Lv Lineno    Source Statement           (Hibal 5, Asmedit 3.3)  HLASM R4.0  2004/03/15 12.51
+___    ______ ____    _____ _____  ____ __ ______    ______ _________
000A646 9620 6059      00059       59012                       SET   RFCFLNOL            'nolist' option
 00A64A 18D8/9808 D004_            59018                       PEND
 DROP   *,R7
                                   59038
 00A658 50E0 D000/9008_      00000 59039              RFCOPNPT PROC
 USING  *,R7
 00A672 9610 6059      00059       59078                       SET   RFCFLNPT            'noptr' option
 00A676 18D8/9808 D004_            59084                       PEND
 DROP   *,R7
                                   59104
 00A684 50E0 D000/9008_      00000 59105              RFCOPERR PROC
 USING  *,R7
 00A69E 4110 70E3/4100_      0A781 59144                       TSEG  'Invalid SCAN_MAILHDR option',,CR
 00A6B0 41F0 0004            00004 59162                       LA    R15,4               Set RC=4
 00A6B4 18D8/9808 D004_            59163                       PEND
 DROP   *,R7
 DROP   RFCWA,R6                   59183                       DROP  R6  (RFCWA)
                                   59190
                                   59191                       QLTORG
1PROC     (PROC2193) (12:51) (15MAR04) Routines for System Procedures                                                       Page  207
0Current Usings:  (CP,R11) (CV,R12)
0Loc    Object Code    Addr1 Addr2  Stmt Lv Lineno    Source Statement           (Hibal 5, Asmedit 3.3)  HLASM R4.0  2004/03/15 12.51
+___    ______ ____    _____ _____  ____ __ ______    ______ _________
0                                  59233              ¿þþþþþþþþþþþþþþþþþþþþþþþþþþþþþþþþþþþþþþþþþþþþþþþþþþþþþþþþþþþþþþþþþþþþþÜ
                                   59234              Ÿ                                                                     Ÿ
                                   59235              Ÿ                                                                     Ÿ
                                   59236              Ÿ  TEST(STR,NUM,BOOL)                                                 Ÿ
                                   59237              Ÿ                                                                     Ÿ
                                   59238              Ÿ    OH YEAH !!                                                       Ÿ
                                   59239              Ÿ    PURPLE HAZE (tm for CH's special formula foot deodorant)         Ÿ
                                   59240              Ÿ                                                                     Ÿ
                                   59241              Ÿ                                                                     Ÿ
                                   59242              Ÿ                                                                     Ÿ
                                                      ¾þþþþþþþþþþþþþþþþþþþþþþþþþþþþþþþþþþþþþþþþþþþþþþþþþþþþþþþþþþþþþþþþþþþþþ»
000A7AE 50E0 D000/9008_      00000 59243              PCTEST   PROC
 USING  *,R7
 00A7C8 4120 77DE/58E0_      0AFA6 59282                       SETARGS '33SNB'
 00A7D2 4770 7068            0A830 59289                       IF    Z,BEGIN
 00A7D6 4126 0000/D74F_      00000 59300  1                      PRETVAL 1,STRING,'THIS IS A STRING'
 USING  VNENTRY,R2
 DROP   VNENTRY,R2
 00A7FE 4126 0150/D74F_      00150 59379  1                      PRETVAL 2,INTEGER,L:=F'123'
 USING  VNENTRY,R2
 DROP   VNENTRY,R2
 00A81A 4126 02A0/D74F_      002A0 59427  1                      PRETVAL 3,BOOLEAN,FALSE
 USING  VNENTRY,R2
 DROP   VNENTRY,R2
 00A830                            59467                       END
 00A830 18D8/9808 D004_            59471                       PEND
 DROP   *,R7
1PROC     (PROC2193) (12:51) (15MAR04) Routines for System Procedures                                                       Page  208
0Current Usings:  (CP,R11) (CV,R12)
0Loc    Object Code    Addr1 Addr2  Stmt Lv Lineno    Source Statement           (Hibal 5, Asmedit 3.3)  HLASM R4.0  2004/03/15 12.51
+___    ______ ____    _____ _____  ____ __ ______    ______ _________
0                                  59492              ¿þþþþþþþþþþþþþþþþþþþþþþþþþþþþþþþþþþþþþþþþþþþþþþþþþþþþþþþþþþþþþþþþþþþþþÜ
                                   59493              Ÿ                                                                     Ÿ
                                   59494              Ÿ  USERID_REFRESH                                                     Ÿ
                                   59495              Ÿ                                                                     Ÿ
                                   59496              Ÿ    Update our USERID.                                               Ÿ
                                   59497              Ÿ                                                                     Ÿ
                                                      ¾þþþþþþþþþþþþþþþþþþþþþþþþþþþþþþþþþþþþþþþþþþþþþþþþþþþþþþþþþþþþþþþþþþþþþ»
000A83E 50E0 D000/9008_      00000 59498              PCUIDREF PROC
 USING  *,R7
 00A858 1840                       59537                       LR    R4,R0               Number of arguments
                                   59538
 00A85A 4120 7753/58E0_      0AFAB 59539                       SETARGS '01S'             0-1 args: str
 00A864 4770 705E            0A8B6 59546                       IF    Z,BEGIN             Do it...
 00A868 41F0 B3B4            003B4 59557  1                      LA    R15,CPSACCT         Logged on account
 00A86C 4110 B198/4100_      00198 59558  1                      SETMSG CPUID               Put updated USERID here
 00A874 58E0 76F0/0DEE       0AF48 59572  1                      VCALL GETUID              Update USERID
 00A87A 4780 702C/D71F_      0A884 59576  1                      IF    NZ,'CLEAR CPUID'    No ID
 00A884 5940 76F4/4750_      0AF4C 59599  1                      IF    (R4,GE,1),'PRETVAL 1,STRING,"OK"'  A-ok
 USING  VNENTRY,R2
 DROP   VNENTRY,R2
 00A8B4 1BFF                       59700  1                      CLEAR R15                 A-ok
 00A8B6                            59704                       END
 00A8B6 18D8/9808 D004_            59708                       PEND
 DROP   *,R7
1PROC     (PROC2193) (12:51) (15MAR04) Routines for System Procedures                                                       Page  209
0Current Usings:  (CP,R11) (CV,R12)
0Loc    Object Code    Addr1 Addr2  Stmt Lv Lineno    Source Statement           (Hibal 5, Asmedit 3.3)  HLASM R4.0  2004/03/15 12.51
+___    ______ ____    _____ _____  ____ __ ______    ______ _________
0000000                00000 000F3 59729              PCVWA    RECORD BEGIN
 000000                            59737  1           PCVARGP    DS    A                   Argument list ptr
 000004                            59738  1           PCVNARGS   DS    F                   Number of args passed
                                   59739  1           PCVBUF     DS    CL(&LINESZ)         Return string area
 000008                                   1          +PCVBUF     DS    CL(235)             Return string area
 0000F3                000F3 000F3 59740                       END
-                                  59750              ¿þþþþþþþþþþþþþþþþþþþþþþþþþþþþþþþþþþþþþþþþþþþþþþþþþþþþþþþþþþþþþþþþþþþþþÜ
                                   59751              Ÿ                                                                     Ÿ
                                   59752              Ÿ  VIEW_CMD(string, return string)                                    Ÿ
                                   59753              Ÿ                                                                     Ÿ
                                                      ¾þþþþþþþþþþþþþþþþþþþþþþþþþþþþþþþþþþþþþþþþþþþþþþþþþþþþþþþþþþþþþþþþþþþþþ»
000A8C4 50E0 D000/9008_      00000 59754              PCVCMD   PROC  PCVWA
 USING  *,R7
 USING  PCVWA-(4+36),R8
 00A8DE 5000 802C            00004 59804                       ST    R0,PCVNARGS         Save number of args
 00A8E2 5010 8028            00000 59805                       ST    R1,PCVARGP          Arglist ptr
                                   59806
 00A8E6 4120 7672/58E0_      0AF50 59807                       SETARGS '12SS'            1-2 args: string, string
 00A8F0 4770 705A            0A938 59814                       IF    Z,BEGIN
 USING  VNENTRY,R5                 59825  1                      WITH  (VNENTRY,R5)
 00A8F4 4151 0000            00000 59838  1                      LA    R5,ARG1(R1)
 00A8F8 4130 5026            00026 59839  1                      LA    R3,VNSTRLOC
 00A8FC 4820 5024            00024 59840  1                      LH    R2,VNSTRLEN
                                   59841  1
 00A900 4110 8030/4100_      00008 59842  1                      SETMSG PCVBUF              Put return string here
 00A908 58E0 7676/0DEE       0AF54 59856  1                      VCALL VIEWXCMD            Execute VIEW_CMD
                                   59860  1
 00A90E D503 767A 8028_0AF58 00000 59861  1                      IF    (PCVARGP,GE,2),BEGIN  Return string...
 00A918 4126 0150/D74F_      00150 59879  2                        PRETVAL 2,STRING,(R1),(R0)
 DROP   VNENTRY,R5
 USING  VNENTRY,R2
 USING  VNENTRY,R5
 DROP   VNENTRY,R2
 00A938                            59981  1                      END
 DROP   VNENTRY,R5                 59985                       END
                                   59994
 00A938 18D8/9808 D004_            59995                       PEND
 DROP   PCVWA-(4+36),R8
 DROP   *,R7
1PROC     (PROC2193) (12:51) (15MAR04) Routines for System Procedures                                                       Page  210
0Current Usings:  (CP,R11) (CV,R12)
0Loc    Object Code    Addr1 Addr2  Stmt Lv Lineno    Source Statement           (Hibal 5, Asmedit 3.3)  HLASM R4.0  2004/03/15 12.51
+___    ______ ____    _____ _____  ____ __ ______    ______ _________
0                                  60021              ¿þþþþþþþþþþþþþþþþþþþþþþþþþþþþþþþþþþþþþþþþþþþþþþþþþþþþþþþþþþþþþþþþþþþþþÜ
                                   60022              Ÿ                                                                     Ÿ
                                   60023              Ÿ  VIEW_ROWGET(rowno,return-string)                                   Ÿ
                                   60024              Ÿ                                                                     Ÿ
                                   60025              Ÿ    VIEW_ROWGET returns information about the specific row.          Ÿ
                                   60026              Ÿ                                                                     Ÿ
                                                      ¾þþþþþþþþþþþþþþþþþþþþþþþþþþþþþþþþþþþþþþþþþþþþþþþþþþþþþþþþþþþþþþþþþþþþþ»
000A946 50E0 D000/9008_      00000 60027              PCVRGET  PROC  PCVWA
 USING  *,R7
 USING  PCVWA-(4+36),R8
 00A960 4120 75FC/58E0_      0AF5C 60077                       SETARGS '22IS'            2 args: integer, string
 00A96A 4770 7044            0A9A4 60084                       IF    Z,BEGIN
 00A96E 4151 0000            00000 60095  1                      LA    R5,ARG1(R1)
 USING  VNENTRY,R5                 60096  1                      WITH  (VNENTRY,R5)
 00A972 58F0 5024            00024 60109  1                      L     R15,VNVALUE         Row number
                                   60110  1
 00A976 4110 8030/4100_      00008 60111  1                      SETMSG PCVBUF              Put return string here
 00A97E 58E0 7600/0DEE       0AF60 60125  1                      VCALL ROWGET
 00A984 4126 0150/D74F_      00150 60129  1                      PRETVAL 2,STRING,(R1),(R0)
 DROP   VNENTRY,R5
 USING  VNENTRY,R2
 USING  VNENTRY,R5
 DROP   VNENTRY,R2
 DROP   VNENTRY,R5                 60231                       END
                                   60240
 00A9A4 18D8/9808 D004_            60241                       PEND
 DROP   PCVWA-(4+36),R8
 DROP   *,R7
1PROC     (PROC2193) (12:51) (15MAR04) Routines for System Procedures                                                       Page  211
0Current Usings:  (CP,R11) (CV,R12)
0Loc    Object Code    Addr1 Addr2  Stmt Lv Lineno    Source Statement           (Hibal 5, Asmedit 3.3)  HLASM R4.0  2004/03/15 12.51
+___    ______ ____    _____ _____  ____ __ ______    ______ _________
0                                  60267              ¿þþþþþþþþþþþþþþþþþþþþþþþþþþþþþþþþþþþþþþþþþþþþþþþþþþþþþþþþþþþþþþþþþþþþþÜ
                                   60268              Ÿ                                                                     Ÿ
                                   60269              Ÿ  VIEW_ROWPUT(rowno,string,return-string)                            Ÿ
                                   60270              Ÿ                                                                     Ÿ
                                   60271              Ÿ    VIEW_ROWPUT sets information about the specific row.             Ÿ
                                   60272              Ÿ                                                                     Ÿ
                                                      ¾þþþþþþþþþþþþþþþþþþþþþþþþþþþþþþþþþþþþþþþþþþþþþþþþþþþþþþþþþþþþþþþþþþþþþ»
000A9B2 50E0 D000/9008_      00000 60273              PCVRPUT  PROC  PCVWA
 USING  *,R7
 USING  PCVWA-(4+36),R8
 00A9CC 5000 802C            00004 60323                       ST    R0,PCVNARGS         Save number of args
 00A9D0 5010 8028            00000 60324                       ST    R1,PCVARGP          Arglist ptr
                                   60325
 00A9D4 4120 75E2/58E0_      0AFAE 60326                       SETARGS '23ISS'           2-3 args: int, string, string
 00A9DE 4770 7062            0AA2E 60333                       IF    Z,BEGIN
 USING  VNENTRY,R5                 60344  1                      WITH  (VNENTRY,R5)
 00A9E2 4151 0000            00000 60357  1                      LA    R5,ARG1(R1)
 00A9E6 58F0 5024            00024 60358  1                      L     R15,VNVALUE         Row number
 00A9EA 4151 0150            00150 60359  1                      LA    R5,ARG2(R1)
 00A9EE 4130 5026            00026 60360  1                      LA    R3,VNSTRLOC
 00A9F2 4820 5024            00024 60361  1                      LH    R2,VNSTRLEN
                                   60362  1
 00A9F6 4110 8030/4100_      00008 60363  1                      SETMSG PCVBUF              Put return string here
 00A9FE 58E0 7598/0DEE       0AF64 60377  1                      VCALL ROWPUT              Set row information
                                   60381  1
 00AA04 D503 759C 802C_0AF68 00004 60382  1                      IF    (PCVNARGS,GE,3),BEGIN  Return string...
 00AA0E 4126 02A0/D74F_      002A0 60400  2                        PRETVAL 3,STRING,(R1),(R0)
 DROP   VNENTRY,R5
 USING  VNENTRY,R2
 USING  VNENTRY,R5
 DROP   VNENTRY,R2
 00AA2E                            60502  1                      END
 DROP   VNENTRY,R5                 60506                       END
                                   60515
 00AA2E 18D8/9808 D004_            60516                       PEND
 DROP   PCVWA-(4+36),R8
 DROP   *,R7
1PROC     (PROC2193) (12:51) (15MAR04) Routines for System Procedures                                                       Page  212
0Current Usings:  (CP,R11) (CV,R12)
0Loc    Object Code    Addr1 Addr2  Stmt Lv Lineno    Source Statement           (Hibal 5, Asmedit 3.3)  HLASM R4.0  2004/03/15 12.51
+___    ______ ____    _____ _____  ____ __ ______    ______ _________
0                                  60542              ¿þþþþþþþþþþþþþþþþþþþþþþþþþþþþþþþþþþþþþþþþþþþþþþþþþþþþþþþþþþþþþþþþþþþþþÜ
                                   60543              Ÿ                                                                     Ÿ
                                   60544              Ÿ  VIEW_WINDGET(windno,return-string)                                 Ÿ
                                   60545              Ÿ                                                                     Ÿ
                                   60546              Ÿ    VIEW_WINDGET returns information about the specific window.      Ÿ
                                   60547              Ÿ                                                                     Ÿ
                                                      ¾þþþþþþþþþþþþþþþþþþþþþþþþþþþþþþþþþþþþþþþþþþþþþþþþþþþþþþþþþþþþþþþþþþþþþ»
000AA3C 50E0 D000/9008_      00000 60548              PCVWGET  PROC  PCVWA
 USING  *,R7
 USING  PCVWA-(4+36),R8
 00AA56 4120 7506/58E0_      0AF5C 60598                       SETARGS '22IS'            2 args: integer, string
 00AA60 4770 7044            0AA9A 60605                       IF    Z,BEGIN
 00AA64 4151 0000            00000 60616  1                      LA    R5,ARG1(R1)
 USING  VNENTRY,R5                 60617  1                      WITH  (VNENTRY,R5)
 00AA68 58F0 5024            00024 60630  1                      L     R15,VNVALUE         Window number
                                   60631  1
 00AA6C 4110 8030/4100_      00008 60632  1                      SETMSG PCVBUF              Put return string here
 00AA74 58E0 7516/0DEE       0AF6C 60646  1                      VCALL WINDGET
 00AA7A 4126 0150/D74F_      00150 60650  1                      PRETVAL 2,STRING,(R1),(R0)
 DROP   VNENTRY,R5
 USING  VNENTRY,R2
 USING  VNENTRY,R5
 DROP   VNENTRY,R2
 DROP   VNENTRY,R5                 60752                       END
                                   60761
 00AA9A 18D8/9808 D004_            60762                       PEND
 DROP   PCVWA-(4+36),R8
 DROP   *,R7
1PROC     (PROC2193) (12:51) (15MAR04) Routines for System Procedures                                                       Page  213
0Current Usings:  (CP,R11) (CV,R12)
0Loc    Object Code    Addr1 Addr2  Stmt Lv Lineno    Source Statement           (Hibal 5, Asmedit 3.3)  HLASM R4.0  2004/03/15 12.51
+___    ______ ____    _____ _____  ____ __ ______    ______ _________
0                                  60788              ¿þþþþþþþþþþþþþþþþþþþþþþþþþþþþþþþþþþþþþþþþþþþþþþþþþþþþþþþþþþþþþþþþþþþþþÜ
                                   60789              Ÿ                                                                     Ÿ
                                   60790              Ÿ  VIEW_WINDPUT(rowno,string,return-string)                           Ÿ
                                   60791              Ÿ                                                                     Ÿ
                                   60792              Ÿ    VIEW_WINDPUT sets information about the specific window.         Ÿ
                                   60793              Ÿ                                                                     Ÿ
                                                      ¾þþþþþþþþþþþþþþþþþþþþþþþþþþþþþþþþþþþþþþþþþþþþþþþþþþþþþþþþþþþþþþþþþþþþþ»
000AAA8 50E0 D000/9008_      00000 60794              PCVWPUT  PROC  PCVWA
 USING  *,R7
 USING  PCVWA-(4+36),R8
 00AAC2 5000 802C            00004 60844                       ST    R0,PCVNARGS         Save number of args
 00AAC6 5010 8028            00000 60845                       ST    R1,PCVARGP          Arglist ptr
                                   60846
 00AACA 4120 74EC/58E0_      0AFAE 60847                       SETARGS '23ISS'           2-3 args: int, string, string
 00AAD4 4770 7062            0AB24 60854                       IF    Z,BEGIN
 USING  VNENTRY,R5                 60865  1                      WITH  (VNENTRY,R5)
 00AAD8 4151 0000            00000 60878  1                      LA    R5,ARG1(R1)
 00AADC 58F0 5024            00024 60879  1                      L     R15,VNVALUE         Window number
 00AAE0 4151 0150            00150 60880  1                      LA    R5,ARG2(R1)
 00AAE4 4130 5026            00026 60881  1                      LA    R3,VNSTRLOC
 00AAE8 4820 5024            00024 60882  1                      LH    R2,VNSTRLEN
                                   60883  1
 00AAEC 4110 8030/4100_      00008 60884  1                      SETMSG PCVBUF              Put return string here
 00AAF4 58E0 74AE/0DEE       0AF70 60898  1                      VCALL WINDPUT             Set window information
                                   60902  1
 00AAFA D503 74A6 802C_0AF68 00004 60903  1                      IF    (PCVNARGS,GE,3),BEGIN  Return string...
 00AB04 4126 02A0/D74F_      002A0 60921  2                        PRETVAL 3,STRING,(R1),(R0)
 DROP   VNENTRY,R5
 USING  VNENTRY,R2
 USING  VNENTRY,R5
 DROP   VNENTRY,R2
 00AB24                            61023  1                      END
 DROP   VNENTRY,R5                 61027                       END
                                   61036
 00AB24 18D8/9808 D004_            61037                       PEND
 DROP   PCVWA-(4+36),R8
 DROP   *,R7
1PROC     (PROC2193) (12:51) (15MAR04) Routines for System Procedures                                                       Page  214
0Current Usings:  (CP,R11) (CV,R12)
0Loc    Object Code    Addr1 Addr2  Stmt Lv Lineno    Source Statement           (Hibal 5, Asmedit 3.3)  HLASM R4.0  2004/03/15 12.51
+___    ______ ____    _____ _____  ____ __ ______    ______ _________
0                                  61063              ¿þþþþþþþþþþþþþþþþþþþþþþþþþþþþþþþþþþþþþþþþþþþþþþþþþþþþþþþþþþþþþþþþþþþþþÜ
                                   61064              Ÿ                                                                     Ÿ
                                   61065              Ÿ  WLOG(log_id, string [,string2, string3, ...])                      Ÿ
                                   61066              Ÿ                                                                     Ÿ
                                   61067              Ÿ  (Multiple strings are allowed so that more than one "string        Ÿ
                                   61068              Ÿ  worth" of data can be logged.)                                     Ÿ
                                   61069              Ÿ                                                                     Ÿ
                                   61070              Ÿ  WLOG now simply queues the request via the QSERV SVC.              Ÿ
                                   61071              Ÿ                                                                     Ÿ
                                   61072              Ÿ  SEE COMMENTS AT START OF MODULE                                    Ÿ
                                   61073              Ÿ                                                                     Ÿ
                                                      ¾þþþþþþþþþþþþþþþþþþþþþþþþþþþþþþþþþþþþþþþþþþþþþþþþþþþþþþþþþþþþþþþþþþþþþ»
0000000                00000 00438 61074              WLGWTWA  RECORD BEGIN
 000000                            61082  1           WLGWTNUM   DS    F                   Number of args
                                   61083  1
                                   61084  1           WLGSG      SEGCB
 000004 00                         61085  1 01-SEGCB +$$$SEGCB1635   DS 0F
 WLGSGCOD.WLGSGSEG 01 EQ
 WLGSGCOD.WLGSGWR  02 EQ
 WLGSGCOD.WLGSGCLR 03 EQ
 WLGSGCOD.WLGSGSPP 04 EQ
 WLGSGCOD.WLGSGOVF 05 EQ
 WLGSGCOD.WLGSGCR  06 EQ
 WLGSGCOD.WLGSGMAR 07 EQ
 000005 00                         61160  1 01-SEGCB +           DC    X'00'               Reserved
 000006 0000                              1          +
 000008 00000000                   61161  1 01-SEGCB +WLGSGMAXF   DC   A(0)                Maximum buffer length
 00000C 00000000                   61162  1 01-SEGCB +WLGSGMRKF   DC   A(0)                Length at last mark
 000010 00000000                   61163  1 01-SEGCB +WLGSGLENF   DC   A(0)                Current length
 000014 00000000                   61164  1 01-SEGCB +WLGSGINDF   DC   A(0)                Overflow/indent count
 000018 00000000                   61165  1 01-SEGCB +WLGSGERR   DC    A(0)                Address of error recovery routine
 00001C 0000000000000000           61166  1 01-SEGCB +           DC    2F'0'               Reserved
 000024 00000000                   61167  1 01-SEGCB +WLGSGLOC   DC    A(0)                Location of buffer
 000028 00000000                   61168  1 01-SEGCB +WLGSGRTN   DC    A(0)                Processing routine
 00002C 0000000000000000           61169  1 01-SEGCB +           DC    4F'0'               Reserved
 00003C 00000000                   61170  1 01-SEGCB +WLGSGUSR   DC    A(0)                USER field
                                   61171  1 01-SEGCB +WLGSG      EQU   $$$SEGCB1635,*-$$$SEGCB1635,C'X'
 000040                            61172  1           WLGSGID    DS    CL16                QSERV entry type id
 000050                            61173  1           WLGSGBUF   DS    XL1000              QSERV data
 000438                00438 00438 61174                       END
                                   61183              þþþþ
 00AB32 50E0 D000/9008_      00000 61184              PCWLOG   PROC  WLGWTWA
 USING  *,R7
 USING  WLGWTWA-(4+36),R8
 00AB4C D7FF 8028 8028_00000 00000 61234                       CLEAR WLGWTWA
 00AB6A 5000 8028            00000 61245                       ST    R0,WLGWTNUM         Number of arguments
                                   61246                       ¿þþþþþþþþþþþþþþþþÜ
                                   61247                       Ÿ  Check parms.  Ÿ
                                   61248                       ¾þþþþþþþþþþþþþþþþ»
 00AB6E 4120 7467/58E0_      0AFB3 61249                       SETARGS '29SSSSSSSSS'
 00AB78 4770 70CE            0AC1A 61256                       IF    Z,BEGIN             Parms are OK...
                                   61267  1
 USING  VNENTRY,R5                 61268  1                      WITH  (VNENTRY,R5)
1PROC     (PROC2193) (12:51) (15MAR04) Routines for System Procedures                                                       Page  215
0Current Usings:  (VNENTRY,R5) (*,R7) (WLGWTWA-(4+36),R8) (CP,R11) (CV,R12)
0Loc    Object Code    Addr1 Addr2  Stmt Lv Lineno    Source Statement           (Hibal 5, Asmedit 3.3)  HLASM R4.0  2004/03/15 12.51
+___    ______ ____    _____ _____  ____ __ ______    ______ _________
000AB7C 4151 0000            00000 61281  1                      LA    R5,ARG1(R1)         PARM 1: QSERV id
 00AB80 4120 5026            00026 61282  1                      LA    R2,VNSTRLOC
 00AB84 4830 5024            00024 61283  1                      LH    R3,VNSTRLEN
 00AB88 5930 7428/47D0_      0AF74 61284  1                      IF    (R3,GT,L'WLGSGID),BEGIN     QSERV ID too long
 00AB90 4120 0001/58E0_      00001 61301  2                        BADARG 1
 00AB9A 47F0 70CE            0AC1A 61312  2                        EXIT  PCWLOG
 00AB9E                            61315  1                      END
 00AB9E D20F 8068 C4D8 00040 004D8 61319  1                      MVC   WLGSGID,CVBLANKS
 00ABA4 0630/1233/4740_            61320  1                      MOVE  R3,WLGSGID,@R2      Save QSERV id
 00ABB0 58F0 8028/06F0_      00000 61358  1                      DECR  R15,WLGWTNUM        One less arg now
                                   61363  1                      ¿þþþþþþþþþþþþþþþþþþþþþþþþþþþþÜ
                                   61364  1                      Ÿ  Set up QSERV seg buffer.  Ÿ
                                   61365  1                      ¾þþþþþþþþþþþþþþþþþþþþþþþþþþþþ»
 00ABBA 4110 8078/4100_      00050 61366  1                      SEGINIT WLGSGBUF,,WLGSG,RTNTYPE=V,RTN=QSERVSEG
 00ABDA 41F0 8068            00040 61408  1                      LA    R15,WLGSGID
 00ABDE 50F0 8064            0003C 61409  1                      ST    R15,WLGSGUSR        Set QSERV type
                                   61410  1                      ¿þþþþþþþþþþþþþþþþþþþþþþþþþþþþþþþþþÜ
                                   61411  1                      Ÿ  Process args 2-n: QSERV text.  Ÿ
                                   61412  1                      ¾þþþþþþþþþþþþþþþþþþþþþþþþþþþþþþþþþ»
 00ABE2 5840 8028            00000 61413  1                      L     R4,WLGWTNUM         Number of args
 00ABE6 1244/47D0 70BC             61414  1                      WHILE (R4,POS),BEGIN      Process args...
 00ABEC 4155 0150            00150 61430  2                        LA    R5,L'VPARM(R5)      Next arg
 00ABF0 4110 5026/4800_      00026 61431  2                        SEG   VNSTRLOC,LH:VNSTRLEN  Add string info
                                   61457  2
 00AC02 0640                       61458  2                        DECR  R4                  One less arg now
 00AC04 47F0 709A            0ABE6 61460  1                      END
                                   61465  1                      ¿þþþþþþþþþþþþþþþþþþþþþþþþþÜ
                                   61466  1                      Ÿ  QSERV the seg buffer.  Ÿ
                                   61467  1                      ¾þþþþþþþþþþþþþþþþþþþþþþþþþ»
 00AC08 47F0 70CC            0AC18 61468  1                      B     NOWLOG              !!! No logging
 00AC0C 1B00/41F0 802C_            61469  1                      SEGWR
 00AC18                            61493  1           NOWLOG     LABEL ,                   !!! No logging
                                   61495  1
 00AC18 1BFF                       61496  1                      CLEAR R15
 DROP   VNENTRY,R5                 61500                       END
                                   61509
 00AC1A 18D8/9808 D004_            61510                       PEND
 DROP   WLGWTWA-(4+36),R8
 DROP   *,R7
                                   61535
                                   61536                       SEGDEF DUMMY              (Neatness)
1PROC     (PROC2193) (12:51) (15MAR04) Routines for System Procedures                                                       Page  216
0Current Usings:  (CP,R11) (CV,R12)
0Loc    Object Code    Addr1 Addr2  Stmt Lv Lineno    Source Statement           (Hibal 5, Asmedit 3.3)  HLASM R4.0  2004/03/15 12.51
+___    ______ ____    _____ _____  ____ __ ______    ______ _________
0                                  61538              ¿þþþþþþþþþþþþþþþþþþþþþþþþþþþþþþþþþþþþþþþþþþþþþþþþþþþþþþþþþþþþþþþþþþþþþÜ
                                   61539              Ÿ                                                                     Ÿ
                                   61540              Ÿ  WTO(message [,option-string] [,returned:wto-id])                   Ÿ
                                   61541              Ÿ                                                                     Ÿ
                                   61542              Ÿ    Write a message to the operator.                                 Ÿ
                                   61543              Ÿ                                                                     Ÿ
                                                      ¾þþþþþþþþþþþþþþþþþþþþþþþþþþþþþþþþþþþþþþþþþþþþþþþþþþþþþþþþþþþþþþþþþþþþþ»
0000000                00000 0000C 61544              WTOWA    RECORD BEGIN
 000000 00                         61552  1           WTOFLAG    FLAG
 WTOFLAG.WTOFACTIO 80 ONES         61556  1                      FLAG  WTOFACTION          - Action (non-deletable) msg
 WTOFLAG.WTOFWTL   40 ONES         61561  1                      FLAG  WTOFWTL             - Write to log
 WTOFLAG.WTOFTAPE  20 ONES         61566  1                      FLAG  WTOFTAPE            - Write to tape routecdes
                                   61571  1
 000004                            61572  1           WTOARGP    DS    A                   Argument list ptr
 000008                            61573  1           WTONARGS   DS    F                   Number of args passed
 00000C                0000C 0000C 61574                       END
                                   61583              þþþþ
 00AC28 50E0 D000/9008_      00000 61584              PCWTO    PROC  WTOWA
 USING  *,R7
 USING  WTOWA-(4+36),R8
 00AC42 4150 8028            00000 61634                       LA    R5,WTOWA
 USING  WTOWA,R5                   61635                       WITH  (WTOWA,R5)
 00AC46 D70B 5000 5000 00000 00000 61648                       CLEAR WTOWA
                                   61655
 00AC4C 58E0 B08C/D2AF_      0008C 61656                       SCPUSH
                                   61662
 00AC5A 5000 5008            00008 61663                       ST    R0,WTONARGS         Number of arguments
 00AC5E 5010 5004            00004 61664                       ST    R1,WTOARGP          Arglist ptr
                                   61665
 00AC62 4120 737C/58E0_      0AFBE 61666                       SETARGS '13SSI'           1-3 args: str, str, num
 00AC6C 4770 7138            0AD7A 61673                       BNZ   WTOEXIT
                                   61674
 USING  VNENTRY,R4                 61675                       WITH  (VNENTRY,R4)
                                   61688                       ¿þþþþþþþþþþþþþþþþþþþþþÜ
                                   61689                       Ÿ  Scan WTO options.  Ÿ
                                   61690                       ¾þþþþþþþþþþþþþþþþþþþþþ»
 00AC70 D503 7316 5008_0AF58 00008 61691                       IF    (WTONARGS,GE,2),BEGIN  Scan options...
 00AC7A 4140 0150            00150 61709  1                      LA    R4,ARG2
 00AC7E 5A40 5004            00004 61710  1                      A     R4,WTOARGP
 00AC82 4110 4026/4800_      00026 61711  1                      SCINIT VNSTRLOC,LH:VNSTRLEN
 00AC98 5810 B08C/1B00_      0008C 61734  1                      SCAN  WTOPRT              Scan WTO options
 00ACEA 4770 7110            0AD52 61766  1                      BNZ   WTOERR
 00ACEE                            61767                       END
                                   61771                       ¿þþþþþþþþþþþþþþþþþþþþÜ
                                   61772                       Ÿ  Set WTO options.  Ÿ
                                   61773                       ¾þþþþþþþþþþþþþþþþþþþþ»
 00ACEE 9200 C4CB      004CB       61774                       CLEAR CVWTOFLG            Initialize options
 00ACF2 9640 C4CB      004CB       61781                       SET   CVWTOFNOPFX         Assume no prefix
 00ACF6 9180 5000/47E0_00000       61787                       IF    WTOFACTION,'SET CVWTOFACTION'  Non-deletable
 00AD02 9140 5000/47E0_00000       61813                       IF    WTOFWTL,'SET CVWTOFWTL'  Write to log
 00AD0E 9120 5000/47E0_00000       61839                       IF    WTOFTAPE,'SET CVWTOFTAPE'  Write to tape
1PROC     (PROC2193) (12:51) (15MAR04) Routines for System Procedures                                                       Page  217
0Current Usings:  (VNENTRY,R4) (WTOWA,R5) (*,R7) (WTOWA-(4+36),R8) (CP,R11) (CV,R12)
0Loc    Object Code    Addr1 Addr2  Stmt Lv Lineno    Source Statement           (Hibal 5, Asmedit 3.3)  HLASM R4.0  2004/03/15 12.51
+___    ______ ____    _____ _____  ____ __ ______    ______ _________
0                                  61865                       ¿þþþþþþþþþþþÜ
                                   61866                       Ÿ  Do WTO.  Ÿ
                                   61867                       ¾þþþþþþþþþþþ»
 00AD1A 4140 0000            00000 61868                       LA    R4,ARG1
 00AD1E 5A40 5004            00004 61869                       A     R4,WTOARGP
 00AD22 4110 4026/4800_      00026 61870                       SETMSG VNSTRLOC,LH:VNSTRLEN  WTO text
 00AD2A 58E0 7356/0DEE       0AF98 61883                       VCALL RTRIM
 00AD30 5900 735A/47D0_      0AF9C 61887                       CEIL  R0,120              Not too long now
 00AD3C 58F0 C748/58E0_      00748 61906                       XWTO  (R1),(R0)
 00AD46 5830 C730            00730 61929                       L     R3,CVWTOLID         Get WTO id
 00AD4A 9200 C4CB      004CB       61930                       CLEAR CVWTOFLG            Reset options
 00AD4E 47F0 7112            0AD54 61937                       B     WTORET
                                   61938                       ¿þþþþþþþþþþþþþþþþþþþþþþþþþþþþþþþþþþþþþþþþþþþþþþþþþþÜ
                                   61939                       Ÿ  Pass back the WTO id (or zero if bad options).  Ÿ
                                   61940                       ¾þþþþþþþþþþþþþþþþþþþþþþþþþþþþþþþþþþþþþþþþþþþþþþþþþþ»
 00AD52 1B33                       61941              WTOERR   CLEAR R3                  No WTO was done
                                   61946
 00AD54 D503 7326 5008_0AF68 00008 61947              WTORET   IF    (WTONARGS,GE,3),BEGIN  Return info...
 00AD5E 4126 02A0/D74F_      002A0 61966  1                      PRETVAL 3,INTEGER,(R3)    WTO id
 DROP   VNENTRY,R4
 USING  VNENTRY,R2
 USING  VNENTRY,R4
 DROP   VNENTRY,R2
 00AD78                            62031                       END
                                   62035
 00AD78 1BFF                       62036                       CLEAR R15                 A-ok
                                   62040
 00AD7A 58E0 B08C/4BD0_      0008C 62041              WTOEXIT  SCPOP
 00AD88 18D8/9808 D004_            62047                       PEND
 DROP   VNENTRY,R4
 DROP   WTOWA,R5
 DROP   WTOWA-(4+36),R8
 DROP   *,R7
                                   62082                       ¿þþþþþþþþþþþþþþþþþþþþþÜ
                                   62083                       Ÿ  Scan WTO options.  Ÿ
                                   62084                       ¾þþþþþþþþþþþþþþþþþþþþþ»
 USING  WTOWA,R5                   62085                       USING WTOWA,R5
 00AD98 C1C3E3C9D6D54040_          62094              WTOPRT   SCKW  ACTION,WTOACTN,A
 00ADC0 E6E3D34040404040_          62109                       SCKW  WTL,WTOWTL
 00ADE8 E3C1D7C540404040_          62124                       SCKW  TAPE,WTORTAPE,A
 00AE10 4040404040404040_          62139                       SCKW  ,WTOBAD
                                   62154              þþþþ
 00AE38 50E0 D000/9008_      00000 62155              WTOACTN  PROC
 USING  *,R7
 00AE52 9680 5000      00000       62194                       SET   WTOFACTION
 00AE56 18D8/9808 D004_            62200                       PEND
 DROP   *,R7
                                   62220              þþþþ
 00AE64 50E0 D000/9008_      00000 62221              WTOWTL   PROC
 USING  *,R7
 00AE7E 9640 5000      00000       62260                       SET   WTOFWTL
 00AE82 18D8/9808 D004_            62266                       PEND
 DROP   *,R7
                                   62286              þþþþ
1PROC     (PROC2193) (12:51) (15MAR04) Routines for System Procedures                                                       Page  218
0Current Usings:  (WTOWA,R5) (*,R7) (CP,R11) (CV,R12)
0Loc    Object Code    Addr1 Addr2  Stmt Lv Lineno    Source Statement           (Hibal 5, Asmedit 3.3)  HLASM R4.0  2004/03/15 12.51
+___    ______ ____    _____ _____  ____ __ ______    ______ _________
000AE90 50E0 D000/9008_      00000 62287              WTORTAPE PROC
 USING  *,R7
 00AEAA 9620 5000      00000       62326                       SET   WTOFTAPE
 00AEAE 18D8/9808 D004_            62332                       PEND
 DROP   *,R7
                                   62352
 00AEBC 50E0 D000/9008_      00000 62353              WTOBAD   PROC
 USING  *,R7
 00AED6 41F0 0004            00004 62392                       LA    R15,4               Error
 00AEDA 18D8/9808 D004_            62393                       PEND
 DROP   *,R7
                                   62413
 DROP   WTOWA,R5                   62414                       DROP  WTOWA
1PROC     (PROC2193) (12:51) (15MAR04) Routines for System Procedures                                                       Page  219
0Current Usings:  (CP,R11) (CV,R12)
0Loc    Object Code    Addr1 Addr2  Stmt Lv Lineno    Source Statement           (Hibal 5, Asmedit 3.3)  HLASM R4.0  2004/03/15 12.51
+___    ______ ____    _____ _____  ____ __ ______    ______ _________
0                                  62423              ¿þþþþþþþþþþþþþþþþþþþþþþþþþþþþþþþþþþþþþþþþþþþþþþþþþþþþþþþþþþþþþþþþþþþþþÜ
                                   62424              Ÿ                                                                     Ÿ
                                   62425              Ÿ  WTOR(message [,option-string] [,returned:reply-string])            Ÿ
                                   62426              Ÿ                                                                     Ÿ
                                   62427              Ÿ    Write a message to the operator.                                 Ÿ
                                   62428              Ÿ                                                                     Ÿ
                                                      ¾þþþþþþþþþþþþþþþþþþþþþþþþþþþþþþþþþþþþþþþþþþþþþþþþþþþþþþþþþþþþþþþþþþþþþ»
000AEE8 50E0 D000/9008_      00000 62429              PCWTOR   PROC
 USING  *,R7
 00AF02 4110 70C1/4100_      0AFC3 62468                       ABORT 'Not yet'
 00AF0E 18D8/9808 D004_            62475                       PEND
 DROP   *,R7
                                   62495
                                   62496                       QLTORG
                                   62544              ¿þþþþþþþþþþþþþþþþþþþþþþþþþþþþþþþþþþþþþþþþþþþþþþþþþþþþþþþþþþþþþþþþþþþþþÜ
                                   62545              Ÿ                                                                     Ÿ
                                   62546              Ÿ  XSCAN ( TOKEN, STRING [,TYPE] [,SKIPLIST ,STOPLIST] )              Ÿ
                                   62547              Ÿ                                                                     Ÿ
                                   62548              Ÿ  SEE COMMENTS AT START OF MODULE.                                   Ÿ
                                   62549              Ÿ                                                                     Ÿ
                                                      ¾þþþþþþþþþþþþþþþþþþþþþþþþþþþþþþþþþþþþþþþþþþþþþþþþþþþþþþþþþþþþþþþþþþþþþ»
000AFFA 50E0 D000/9008_      00000 62550              PCXSCAN  PROC  PCSCANWA
 USING  *,R7
 USING  PCSCANWA-(4+36),R8
                                   62600
                                   62601                       COMMENT                   INITIALIZE WORK AREA
 00B014 5000 8050            00028 62602                       ST    R0,PCSCCNT          SAVE ARG COUNT
 00B018 5060 8054            0002C 62603                       ST    R6,PCSCRETP         SAVE PARM RETURN AREA POINTER
 00B01C D703 8060 8060 00038 00038 62604                       CLEAR PCSCSKIP            CLEAR SKIP/STOP STRINGS
 00B022 D703 8064 8064 0003C 0003C 62611                       CLEAR PCSCSKPL
 00B028 D703 8068 8068 00040 00040 62618                       CLEAR PCSCSTOP
 00B02E D703 806C 806C 00044 00044 62625                       CLEAR PCSCSTPL
                                   62632
                                   62633                       COMMENT                   CHECK PARMS
 00B034 4120 719E/58E0_      0B1B2 62634                       SETARGS '25SSSSS'         2-5 ARGS, ALL STRINGS
 00B03E 4770 716C            0B180 62641                       IF    Z,BEGIN
                                   62652  1
                                   62653  1                      COMMENT                   GET INPUT PARMS
 USING  VNENTRY,R5                 62654  1                      USING VNENTRY,R5
 00B042 4151 0150            00150 62663  1                      LA    R5,ARG2(R1)         GET/SAVE STRING LOC,LEN
 00B046 4120 5026            00026 62664  1                      LA    R2,VNSTRLOC
 00B04A 5020 8058            00030 62665  1                      ST    R2,PCSCSTR
 00B04E 4820 5024            00024 62666  1                      LH    R2,VNSTRLEN
 00B052 5020 805C            00034 62667  1                      ST    R2,PCSCSTRL
 00B056 5900 7188/4750_      0B19C 62668  1                      IF    (R0,GE,4),BEGIN     IF SKIP STRING
 00B05E 4151 03F0            003F0 62685  2                        LA    R5,ARG4(R1)         GET/SAVE SKIP STRING
 00B062 4120 5026            00026 62686  2                        LA    R2,VNSTRLOC
 00B066 5020 8060            00038 62687  2                        ST    R2,PCSCSKIP
 00B06A 4820 5024            00024 62688  2                        LH    R2,VNSTRLEN
 00B06E 5020 8064            0003C 62689  2                        ST    R2,PCSCSKPL
 00B072                            62690  1                      END
 00B072 5900 718C/4750_      0B1A0 62694  1                      IF    (R0,GE,5),BEGIN     IF STOP STRING
1PROC     (PROC2193) (12:51) (15MAR04) Routines for System Procedures                                                       Page  220
0Current Usings:  (VNENTRY,R5) (*,R7) (PCSCANWA-(4+36),R8) (CP,R11) (CV,R12)
0Loc    Object Code    Addr1 Addr2  Stmt Lv Lineno    Source Statement           (Hibal 5, Asmedit 3.3)  HLASM R4.0  2004/03/15 12.51
+___    ______ ____    _____ _____  ____ __ ______    ______ _________
000B07A 4151 0540            00540 62711  2                        LA    R5,ARG5(R1)         GET/SAVE STOP STRING
 00B07E 4120 5026            00026 62712  2                        LA    R2,VNSTRLOC
 00B082 5020 8068            00040 62713  2                        ST    R2,PCSCSTOP
 00B086 4820 5024            00024 62714  2                        LH    R2,VNSTRLEN
 00B08A 5020 806C            00044 62715  2                        ST    R2,PCSCSTPL
 00B08E                            62716  1                      END
 DROP   VNENTRY,R5                 62720  1                      DROP  R5
                                   62727  1
                                   62728  1                      COMMENT                   SET DEFAULT SKIP/STOP STRINGS
                                   62729  1                      COMMENT                   IF NEEDED
 00B08E D503 717C 8064_0B190 0003C 62730  1                      IF    (PCSCSKPL,EQ,0),BEGIN     DEFAULT SKIP = ' ,'
 00B098 4110 719C/4100_      0B1B0 62748  2                        SETMSG ' ,'
 00B0A0 5010 8060            00038 62752  2                        ST    R1,PCSCSKIP
 00B0A4 5000 8064            0003C 62753  2                        ST    R0,PCSCSKPL
 00B0A8                            62754  1                      END
 00B0A8 D503 717C 806C_0B190 00044 62758  1                      IF    (PCSCSTPL,EQ,0),BEGIN     DEFAULT STOP = ' ,=;'
 00B0B2 4110 7190/4100_      0B1A4 62776  2                        SETMSG ' ,=;'
 00B0BA 5010 8068            00040 62780  2                        ST    R1,PCSCSTOP
 00B0BE 5000 806C            00044 62781  2                        ST    R0,PCSCSTPL
 00B0C2                            62782  1                      END
                                   62786  1
                                   62787  1                      COMMENT                   CALL SCAN ROUTINE
 00B0C2 5800 805C            00034 62788  1                      L     R0,PCSCSTRL         R1,R0 - STRING LOC, LEN
 00B0C6 5810 8058            00030 62789  1                      L     R1,PCSCSTR
 00B0CA 5820 8060            00038 62790  1                      L     R2,PCSCSKIP         R2,R3 - SKIP STR LOC, LEN
 00B0CE 5830 8064            0003C 62791  1                      L     R3,PCSCSKPL
 00B0D2 5840 8068            00040 62792  1                      L     R4,PCSCSTOP         R4,R5 - STOP STR LOC, LEN
 00B0D6 5850 806C            00044 62793  1                      L     R5,PCSCSTPL
 00B0DA 58E0 7194/0DEE       0B1A8 62794  1                      VCALL XSCANSTR            SCAN STRING
                                   62798  1                      COMMENT                   RETURNS:
 00B0E0 5000 8074            0004C 62799  1                      ST    R0,PCSCTOKL         R1,R0 - TOKEN LOC,LEN
 00B0E4 5010 8070            00048 62800  1                      ST    R1,PCSCTOK
 00B0E8 5020 8078            00050 62801  1                      ST    R2,PCSCREM          R2,R3 - REMAINDER LOC, LEN
 00B0EC 5030 807C            00054 62802  1                      ST    R3,PCSCREML
 00B0F0 5040 8080            00058 62803  1                      ST    R4,PCSCTYP          R4,R5 - TYPE LOC, LEN
 00B0F4 5050 8084            0005C 62804  1                      ST    R5,PCSCTYPL
                                   62805  1
                                   62806  1                      COMMENT                   RETURN PARMS
 00B0F8 5860 8054            0002C 62807  1                      L     R6,PCSCRETP         RETURN AREA ADDRESSING
 00B0FC 4126 0000/D74F_      00000 62808  1                      PRETVAL 1,STRING,L:PCSCTOK,L:PCSCTOKL
 USING  VNENTRY,R2
 DROP   VNENTRY,R2
 00B124 4126 0150/D74F_      00150 62895  1                      PRETVAL 2,STRING,L:PCSCREM,L:PCSCREML
 USING  VNENTRY,R2
 DROP   VNENTRY,R2
 00B14C D503 7198 8050_0B1AC 00028 62982  1                      IF    (PCSCCNT,GE,3),BEGIN
 00B156 4126 02A0/D74F_      002A0 63000  2                        PRETVAL 3,STRING,L:PCSCTYP,L:PCSCTYPL
 USING  VNENTRY,R2
 DROP   VNENTRY,R2
 00B17E                            63087  1                      END
                                   63091  1
 00B17E 1BFF                       63092  1                      CLEAR R15
 00B180                            63096                       END , OF ARGS ARE OK
                                   63100
1PROC     (PROC2193) (12:51) (15MAR04) Routines for System Procedures                                                       Page  221
0Current Usings:  (CP,R11) (CV,R12)
0Loc    Object Code    Addr1 Addr2  Stmt Lv Lineno    Source Statement           (Hibal 5, Asmedit 3.3)  HLASM R4.0  2004/03/15 12.51
+___    ______ ____    _____ _____  ____ __ ______    ______ _________
000B180 18D8/9808 D004_            63101                       PEND
 DROP   PCSCANWA-(4+36),R8
 DROP   *,R7
                                   63126                       QLTORG
1PROC     (PROC2193) (12:51) (15MAR04) Common Routines for System Procedures                                                Page  222
0Current Usings:  (CP,R11) (CV,R12)
0Loc    Object Code    Addr1 Addr2  Stmt Lv Lineno    Source Statement           (Hibal 5, Asmedit 3.3)  HLASM R4.0  2004/03/15 12.51
+___    ______ ____    _____ _____  ____ __ ______    ______ _________
0                                  63149              ¿þþþþþþþþþþþþþþþþþþþþþþþþþþþþþþþþþþþþþþþþþþþþþþþþþþþþþþþþþþþþþþþþþþþþþÜ
                                   63150              Ÿ                                                                     Ÿ
                                   63151              Ÿ                                                                     Ÿ
                                   63152              Ÿ  COMPRBUF - COMPARE BUFFERS                                         Ÿ
                                   63153              Ÿ                                                                     Ÿ
                                   63154              Ÿ  ON ENTRY                                                           Ÿ
                                   63155              Ÿ       R0 - BUFFER #1 ADDRESS                                        Ÿ
                                   63156              Ÿ       R1 - BUFFER #1 LENGTH                                         Ÿ
                                   63157              Ÿ       R2 - BUFFER #2 ADDRESS                                        Ÿ
                                   63158              Ÿ       R3 - BUFFER #2 LENGTH                                         Ÿ
                                   63159              Ÿ       R4 - LINENO BUFFER #1 ADDRESS                                 Ÿ
                                   63160              Ÿ       R5 - LINENO BUFFER #2 ADDRESS                                 Ÿ
                                   63161              Ÿ                                                                     Ÿ
                                   63162              Ÿ                                                                     Ÿ
                                   63163              Ÿ  ON EXIT:                                                           Ÿ
                                   63164              Ÿ       R0 - 1ST LINE NUMBER THAT DOES NOT COMPARE (R15=NZ)           Ÿ
                                   63165              Ÿ       R1 - 2ND LINE NUMBER THAT DOES NOT COMPARE (R15=NZ)           Ÿ
                                   63166              Ÿ      R15 - CC=ZERO, BUFFERS COMPARE COMPLETELY                      Ÿ
                                   63167              Ÿ            CC=NZ, BUFFERS DO NOT COMPARE                            Ÿ
                                   63168              Ÿ                                                                     Ÿ
                                   63169              Ÿ                                                                     Ÿ
                                   63170              Ÿ  BUFFER FORMAT:                                                     Ÿ
                                   63171              Ÿ       FILLED WITH TEXT LINES, EACH LINE CONSISTS OF:                Ÿ
                                   63172              Ÿ          4 BYTES TEXT LENGTH = N                                    Ÿ
                                   63173              Ÿ          N BYTES TEXT                                               Ÿ
                                   63174              Ÿ  LINE NUMBER BUFFER FORMAT:                                         Ÿ
                                   63175              Ÿ       FILLED WITH 4 BYTE LINE NUMBERS,  EOF IS =F'-1000'            Ÿ
                                   63176              Ÿ                                                                     Ÿ
                                   63177              Ÿ                                                                     Ÿ
                                   63178              Ÿ  NOTES:  LINE NUMBER BUFFER MUST BE 4*MAX NO OF LINES, LONG.        Ÿ
                                   63179              Ÿ                                                                     Ÿ
                                   63180              Ÿ                                                                     Ÿ
                                                      ¾þþþþþþþþþþþþþþþþþþþþþþþþþþþþþþþþþþþþþþþþþþþþþþþþþþþþþþþþþþþþþþþþþþþþþ»
0000000                00000 00040 63181              CPBWA    RECORD BEGIN
                                   63189  1                      XSA   R0,R8
 000000 0000000000000000           63190  1 01-XSA   +           DC    (R8+2-(R0))A(0)
 000028                            63191  1           CPBBUF1    DS    F                   BUFFER #1 ADDRESS
 00002C                            63192  1           CPBLEN1    DS    F                   BUFFER #1 LENGTH
 000030                            63193  1           CPBBUF2    DS    F                   BUFFER #2 ADDRESS
 000034                            63194  1           CPBLEN2    DS    F                   BUFFER #2 LENGTH
 000038                            63195  1           CPBBUF1A   DS    F                   LINENO BUFFER #1 ADDRESS
 00003C                            63196  1           CPBBUF2A   DS    F                   LINENO BUFFER #2 ADDRESS
 000040                00040 00040 63197                       END
                                   63206              *
                                   63207              *
 00B1CC 50E0 D000/9008_      00000 63208              COMPRBUF PROC  CPBWA
 USING  *,R7
 USING  CPBWA-(4+36),R8
                                   63258
                                   63259                       COMMENT                   INITIALIZE WORK AREA
 00B1E6 5000 8050            00028 63260                       ST    R0,CPBBUF1
 00B1EA 5010 8054            0002C 63261                       ST    R1,CPBLEN1
 00B1EE 5020 8058            00030 63262                       ST    R2,CPBBUF2
1PROC     (PROC2193) (12:51) (15MAR04) Common Routines for System Procedures                                                Page  223
0Current Usings:  (*,R7) (CPBWA-(4+36),R8) (CP,R11) (CV,R12)
0Loc    Object Code    Addr1 Addr2  Stmt Lv Lineno    Source Statement           (Hibal 5, Asmedit 3.3)  HLASM R4.0  2004/03/15 12.51
+___    ______ ____    _____ _____  ____ __ ______    ______ _________
000B1F2 5030 805C            00034 63263                       ST    R3,CPBLEN2
 00B1F6 5040 8060            00038 63264                       ST    R4,CPBBUF1A
 00B1FA 5050 8064            0003C 63265                       ST    R5,CPBBUF2A
                                   63266
                                   63267                       COMMENT                   COMPARE BUFFERS
 00B1FE 5820 8050            00028 63268                       L     R2,CPBBUF1
 00B202 5830 8054            0002C 63269                       L     R3,CPBLEN1
 00B206 5840 8058            00030 63270                       L     R4,CPBBUF2
 00B20A 5850 805C            00034 63271                       L     R5,CPBLEN2
 00B20E 1935/47D0 7030_            63272                       IF    (R3,GT,R5),'LR R3,R5'
 00B216 7034/47F0 7036_0B216 0B212 63293                       ELSE  'LR R5,R3'
 00B21C 0F24                       63310                       CLCL  R2,R4
                                   63311
                                   63312                       COMMENT                   IF EQUAL,
 00B21E 4770 7048/D503_      0B22E 63313                       IF    (EQ,AND,(CPBLEN1,EQ,CPBLEN2)),BEGIN
 00B22C 1BFF                       63341  1                      CLEAR R15
 00B22E                            63345                       END
                                   63349
                                   63350                       COMMENT                   IF NOT EQUAL, CALCULATE NON-
                                   63351                       COMMENT                   MATCHING LINE NUMBERS
 00B22E 704C/704C/47F0_0B22E 0B220 63352                       ELSE  BEGIN
 00B232 D503 8054 805C_0002C 00034 63365  1                      IF    (CPBLEN1,GE,CPBLEN2),BEGIN
 00B23C 5800 8050            00028 63383  2                        L     R0,CPBBUF1          R0 - END OF TEXT BUFFER
 00B240 5A00 8054            0002C 63384  2                        A     R0,CPBLEN1
 00B244 5810 8050            00028 63385  2                        L     R1,CPBBUF1          R1 - START/INDEX INTO TEXT BUFFER
                                   63386  2                        COMMENT                   R2 - POINT OF NO COMPARE
 00B248                            63387  1                      END
 00B248 7066/47F0 7074 0B248 0B23A 63391  1                      ELSE BEGIN                IF 2ND BUFFER LONGER, USE IT
 00B24C 5800 8058            00030 63402  2                        L     R0,CPBBUF2          TO FIND LINE NUMBERS
 00B250 5A00 805C            00034 63403  2                        A     R0,CPBLEN2
 00B254 5810 8058            00030 63404  2                        L     R1,CPBBUF2
 00B258 1824                       63405  2                        LR    R2,R4
 00B25A                            63406  1                      END
 00B25A 5850 8060            00038 63410  1                      L     R5,CPBBUF1A         R5 - NON-MATCHING LINENO #1 INDEX
 00B25E 5860 8064            0003C 63411  1                      L     R6,CPBBUF2A         R6 - NON-MATCHING LINENO #2 INDEX
                                   63412  1
                                   63413  1                      COMMENT                   IF NO BYTES MATCHED
 00B262 1921/4770 708E             63414  1                      IF    (R2,EQ,R1),BEGIN
 00B268 5805 0000            00000 63429  2                        L     R0,0(R5)            GET 1ST LINENOS AS NON-MATCHING
 00B26C 5816 0000            00000 63430  2                        L     R1,0(R6)
 00B270 41F0 0004            00004 63431  2                        LA    R15,4
 00B274                            63432  1                      END
                                   63436  1
                                   63437  1                      COMMENT                   SOME BYTES MATCHED, INDEX TO LNO
 00B274 7092/47F0 70C6_0B274 0B266 63438  1                      ELSEIF (R2,LT,R0),BEGIN
 00B27E 5A11 0000            00000 63462  2                        A     R1,0(R1)            R1 - END OF LINE INDEX
 00B282 4111 0004            00004 63463  2                        LA    R1,4(R1)
 00B286 1912/4730 70BA             63464  2                        WHILE (R1,LE,R2),BEGIN    LOOP LOOKINF FOR NON-MATCH LNOS
 00B28C 5A11 0000            00000 63481  3                          A     R1,0(R1)            BUMP TEXT, LINENO INDEXES
 00B290 4111 0004            00004 63482  3                          LA    R1,4(R1)
 00B294 4155 0004            00004 63483  3                          LA    R5,4(R5)
 00B298 4166 0004            00004 63484  3                          LA    R6,4(R6)
 00B29C 47F0 70A0            0B286 63485  2                        END
 00B2A0 5805 0000            00000 63490  2                        L     R0,0(R5)            RETURN NON-MATCHING LINENOS
1PROC     (PROC2193) (12:51) (15MAR04) Common Routines for System Procedures                                                Page  224
0Current Usings:  (*,R7) (CPBWA-(4+36),R8) (CP,R11) (CV,R12)
0Loc    Object Code    Addr1 Addr2  Stmt Lv Lineno    Source Statement           (Hibal 5, Asmedit 3.3)  HLASM R4.0  2004/03/15 12.51
+___    ______ ____    _____ _____  ____ __ ______    ______ _________
000B2A4 5816 0000            00000 63491  2                        L     R1,0(R6)
 00B2A8 41F0 0004            00004 63492  2                        LA    R15,4
 00B2AC                            63493  1                      END
                                   63497  1
 00B2AC 70CA/47F0 70D6 0B2AC 0B27C 63498  1                      ELSE  BEGIN               TOO MANY BYTES MATCHED !!
 00B2B0 4110 7476/4100_      0B65C 63509  2                        ERROR 'Internal logic error in COMPARE_LINES.  Oh no !'
 00B2BC                            63516  1                      END
 00B2BC                            63520                       END   , OF BUFFERS DON'T MATCH
                                   63524
 00B2BC 9001 8004            00004 63525                       PRETURN (R0,R1)
 00B2C0 18D8/9808 D004_            63527                       PEND
 DROP   CPBWA-(4+36),R8
 DROP   *,R7
1PROC     (PROC2193) (12:51) (15MAR04) Common Routines for System Procedures                                                Page  225
0Current Usings:  (CP,R11) (CV,R12)
0Loc    Object Code    Addr1 Addr2  Stmt Lv Lineno    Source Statement           (Hibal 5, Asmedit 3.3)  HLASM R4.0  2004/03/15 12.51
+___    ______ ____    _____ _____  ____ __ ______    ______ _________
0                                  63553              ¿þþþþþþþþþþþþþþþþþþþþþþþþþþþþþþþþþþþþþþþþþþþþþþþþþþþþþþþþþþþþþþþþþþþþþÜ
                                   63554              Ÿ                                                                     Ÿ
                                   63555              Ÿ                                                                     Ÿ
                                   63556              Ÿ  MATCHBUF - MATCH LINES IN BUFFER                                   Ÿ
                                   63557              Ÿ                                                                     Ÿ
                                   63558              Ÿ  THE MAIN IDEA OF THIS ROUTINE IS TO FIND A SPOT WHERE THE          Ÿ
                                   63559              Ÿ  TWO BUFFERS HAVE LINES THAT MATCH.  THIS IS DONE ESSENTIALLY       Ÿ
                                   63560              Ÿ  BY RUBBING THE TWO BUFFERS TOGETHER AND CHECKING FOR A             Ÿ
                                   63561              Ÿ  MATCH.  MORE SPECIFICALLY, WE COMPARE ALL THE LINES IN             Ÿ
                                   63562              Ÿ  BUFFER 2 WITH THE FIRST LINE IN BUFFER 1.  THEN WE COMPARE         Ÿ
                                   63563              Ÿ  ALL THE LINES IN BUFFER 2 WITH THE SECOND LINE IN BUFFER 1.        Ÿ
                                   63564              Ÿ   .... AND SO ON ... AND SO ON.  WHEN WE FIND LINES THAT            Ÿ
                                   63565              Ÿ  MATCH WE DO A MORE THOROUGH MATCH CHECK AND EXIT IF THE            Ÿ
                                   63566              Ÿ  LINES MATCH.  A COUNT OPTION IS SPECIFIED, AND WE ONLY             Ÿ
                                   63567              Ÿ  COMPARE TO THAT DEPTH.                                             Ÿ
                                   63568              Ÿ                                                                     Ÿ
                                   63569              Ÿ  ON ENTRY:                                                          Ÿ
                                   63570              Ÿ       R0 - BUFFER #1 ADDRESS                                        Ÿ
                                   63571              Ÿ       R1 - BUFFER #1 LENGTH                                         Ÿ
                                   63572              Ÿ       R2 - BUFFER #2 ADDRESS                                        Ÿ
                                   63573              Ÿ       R3 - BUFFER #2 LENGTH                                         Ÿ
                                   63574              Ÿ       R4 - BUFFER #1 LINE NUMBERS                                   Ÿ
                                   63575              Ÿ       R5 - BUFFER #2 LINE NUMBERS                                   Ÿ
                                   63576              Ÿ       R6 - COMPARE DEPTH COUNT                                      Ÿ
                                   63577              Ÿ                                                                     Ÿ
                                   63578              Ÿ  ON EXIT:                                                           Ÿ
                                   63579              Ÿ       R0 - LINENO THAT MATCHES IN BUFFER #1 (R15=0)                 Ÿ
                                   63580              Ÿ       R1 - LINENO THAT MATCHES IN BUFFER #2 (R15=0)                 Ÿ
                                   63581              Ÿ      R15 - CC=ZERO, MATCH FOUND                                     Ÿ
                                   63582              Ÿ            CC=NZ, NO MATCH FOUND                                    Ÿ
                                   63583              Ÿ                                                                     Ÿ
                                   63584              Ÿ                                                                     Ÿ
                                   63585              Ÿ  BUFFER FORMAT:                                                     Ÿ
                                   63586              Ÿ       FILLED WITH TEXT LINES, EACH LINE CONSISTS OF:                Ÿ
                                   63587              Ÿ          4 BYTES TEXT LENGTH = N                                    Ÿ
                                   63588              Ÿ          N BYTES TEXT                                               Ÿ
                                   63589              Ÿ  LINE NUMBER BUFFER FORMAT:                                         Ÿ
                                   63590              Ÿ       FILLED WITH 4 BYTE LINE NUMBERS,  EOF IS =F'-1'               Ÿ
                                   63591              Ÿ                                                                     Ÿ
                                   63592              Ÿ                                                                     Ÿ
                                   63593              Ÿ  NOTES:  LINE NUMBER BUFFER MUST BE 4*MAX NO OF LINES, LONG.        Ÿ
                                   63594              Ÿ                                                                     Ÿ
                                   63595              Ÿ                                                                     Ÿ
                                   63596              Ÿ                                                                     Ÿ
                                                      ¾þþþþþþþþþþþþþþþþþþþþþþþþþþþþþþþþþþþþþþþþþþþþþþþþþþþþþþþþþþþþþþþþþþþþþ»
0000000                00000 0005C 63597              MBWA     RECORD BEGIN
 000000                            63605  1           MBBUF1     DS    F
 000004                            63606  1           MBLEN1     DS    F
 000008                            63607  1           MBBUF2     DS    F
 00000C                            63608  1           MBLEN2     DS    F
 000010                            63609  1           MBBUF1A    DS    F
 000014                            63610  1           MBBUF2A    DS    F
 000018                            63611  1           MBCOUNT    DS    F
1PROC     (PROC2193) (12:51) (15MAR04) Common Routines for System Procedures                                                Page  226
0Current Usings:  (CP,R11) (CV,R12)
0Loc    Object Code    Addr1 Addr2  Stmt Lv Lineno    Source Statement           (Hibal 5, Asmedit 3.3)  HLASM R4.0  2004/03/15 12.51
+___    ______ ____    _____ _____  ____ __ ______    ______ _________
000001C                            63612  1           MBCNT1     DS    F
 000020                            63613  1           MBCNT2     DS    F
 000024                            63614  1           MBNDX1     DS    F
 000028                            63615  1           MBNDX2     DS    F
 00002C                            63616  1           MBSAVE     DS    12F
 00005C                0005C 0005C 63617                       END
                                   63626              *
                                   63627              *
 00B2CE 50E0 D000/9008_      00000 63628              MATCHBUF PROC  MBWA
 USING  *,R7
 USING  MBWA-(4+36),R8
                                   63678
                                   63679                       COMMENT                   INIT WORKAREA
 00B2E8 D75B 8028 8028 00000 00000 63680                       CLEAR MBWA
 00B2EE 5000 8028            00000 63687                       ST    R0,MBBUF1
 00B2F2 5010 802C            00004 63688                       ST    R1,MBLEN1
 00B2F6 5020 8030            00008 63689                       ST    R2,MBBUF2
 00B2FA 5030 8034            0000C 63690                       ST    R3,MBLEN2
 00B2FE 5040 8038            00010 63691                       ST    R4,MBBUF1A
 00B302 5050 803C            00014 63692                       ST    R5,MBBUF2A
 00B306 5060 8040            00018 63693                       ST    R6,MBCOUNT
                                   63694
                                   63695                       COMMENT                   CHECK COUNT FOR BUFFER #1
 00B30A 5810 8028            00000 63696                       L     R1,MBBUF1           R1,R0 - START,END OF BUFFER 1
 00B30E 5800 802C            00004 63697                       L     R0,MBLEN1
 00B312 1A01                       63698                       AR    R0,R1
 00B314 1B44                       63699                       CLEAR R4                  R4 - COUNT OF LINES IN BUFFER
 00B316 1910/47B0 7044             63703                       WHILE (R1,LT,R0),BEGIN    LOOP COUNTING
 00B31C 5A11 0000            00000 63720  1                      A     R1,0(R1)
 00B320 4111 0004            00004 63721  1                      LA    R1,4(R1)
 00B324 4144 0001            00001 63722  1                      LA    R4,1(R4)
 00B328 47F0 702E            0B316 63723                       END
 00B32C 5940 8040/47B0_      00018 63728                       IF    (R4,LT,MBCOUNT),BEGIN    ADJUST DEPTH COUNT IF
 00B334 5040 8044            0001C 63745  1                      ST    R4,MBCNT1                MORE THAN ACTUAL LINE COUNT
 00B338                            63746                       END
 00B338 7054/47F0 705A 0B338 0B332 63750                       ELSE  BEGIN
 00B33C D203 8044 8040 0001C 00018 63761  1                      MVC   MBCNT1,MBCOUNT
 00B342                            63762                       END
                                   63766
                                   63767                       COMMENT                   CHECK OUT COUNT FOR BUFFER #2
 00B342 5810 8030            00008 63768                       L     R1,MBBUF2           R1,R0 - START,END OF BUFFER 2
 00B346 5800 8034            0000C 63769                       L     R0,MBLEN2
 00B34A 1A01                       63770                       AR    R0,R1
 00B34C 1B44                       63771                       CLEAR R4                  R4 - COUNT OF LINES IN BUFFER
 00B34E 1910/47B0 707C             63775                       WHILE (R1,LT,R0),BEGIN    LOOP COUNTING
 00B354 5A11 0000            00000 63792  1                      A     R1,0(R1)
 00B358 4111 0004            00004 63793  1                      LA    R1,4(R1)
 00B35C 4144 0001            00001 63794  1                      LA    R4,1(R4)
 00B360 47F0 7066            0B34E 63795                       END
 00B364 5940 8040/47B0_      00018 63800                       IF    (R4,LT,MBCOUNT),BEGIN    ADJUST DEPTH COUNT IF
 00B36C 5040 8048            00020 63817  1                      ST    R4,MBCNT2                MORE THAN ACTUAL LINE COUNT
 00B370                            63818                       END
 00B370 708C/47F0 7092 0B370 0B36A 63822                       ELSE  BEGIN
 00B374 D203 8048 8040 00020 00018 63833  1                      MVC   MBCNT2,MBCOUNT
1PROC     (PROC2193) (12:51) (15MAR04) Common Routines for System Procedures                                                Page  227
0Current Usings:  (*,R7) (MBWA-(4+36),R8) (CP,R11) (CV,R12)
0Loc    Object Code    Addr1 Addr2  Stmt Lv Lineno    Source Statement           (Hibal 5, Asmedit 3.3)  HLASM R4.0  2004/03/15 12.51
+___    ______ ____    _____ _____  ____ __ ______    ______ _________
000B37A                            63834                       END
                                   63838                       ¿þþþþþþþþþþþþþþþþþþþþþþþþþþþþþþÜ
                                   63839                       Ÿ  LOOP TRYING TO MATCH LINES  Ÿ
                                   63840                       ¾þþþþþþþþþþþþþþþþþþþþþþþþþþþþþþ»
 00B37A 5810 8028            00000 63841                       L     R1,MBBUF1           R1 - BUFFER 1 INDEX
 00B37E 5820 8030            00008 63842                       L     R2,MBBUF2           R2 - BUFFER 2 INDEX
 00B382 D703 804C 804C 00024 00024 63843                       CLEAR MBNDX1              OUTER LOOP INDEX (CNT1)
 00B388 D703 8050 8050 00028 00028 63850                       CLEAR MBNDX2              INNER LOOP INDEX (CNT2)
                                   63857
                                   63858                       COMMENT                   LOOP
 00B38E D503 804C 8044_00024 0001C 63859                       WHILE (MBNDX1,LT,MBCNT1),BEGIN
 00B398 D503 8050 8048_00028 00020 63879  1                      WHILE (MBNDX2,LT,MBCNT2),BEGIN
 00B3A2 D503 1000 2000 00000 00000 63899  2                        CLC   0(4,R1),0(R2)
 00B3A8 4770 70F4            0B3DC 63900  2                        IF    E,BEGIN             IF LINE LENGTHS MATCH
 00B3AC 18E1                       63911  3                          LR    R14,R1              COMPARE LINE TEXT
 00B3AE 58F1 0000            00000 63912  3                          L     R15,0(R1)
 00B3B2 1842                       63913  3                          LR    R4,R2
 00B3B4 185F                       63914  3                          LR    R5,R15
 00B3B6 0FE4                       63915  3                          CLCL  R14,R4
 00B3B8 4770 70F4            0B3DC 63916  3                          IF    E,BEGIN             IF LINE TEXT MATCH
 00B3BC 4160 8028            00000 63927  4                            LA    R6,MBWA
 00B3C0 58E0 7350/0DEE       0B638 63928  4                            ACALL MATCHCHK            DO MORE MATCH TESTING
 00B3C6 12FF/4770 70F4             63932  4                            IF    (R15,Z),BEGIN       IF LINES MATCH !!  ****** !!!
 00B3CC 4160 8028            00000 63946  5                              LA    R6,MBWA
 00B3D0 58E0 7354/0DEE       0B63C 63947  5                              ACALL MATCHLNO            GET MATCHING LINENOS
                                   63951  5                              COMMENT                   RETURNS R0 - 1ST LINE
                                   63952  5                              COMMENT                           R1 - 2ND LINE
 00B3D6 1BFF                       63953  5                              CLEAR R15                 CLEAR CC
 00B3D8 47F0 713A            0B422 63957  5                              B     MBDONE              EXIT
 00B3DC                            63958  4                            END
 00B3DC                            63962  3                          END
 00B3DC                            63966  2                        END
 00B3DC 5A22 0000            00000 63970  2                        A     R2,0(R2)            BUMB BUFFER 2 INDEX, COUNT
 00B3E0 4122 0004            00004 63971  2                        LA    R2,4(R2)
 00B3E4 58E0 8050            00028 63972  2                        L     R14,MBNDX2
 00B3E8 5EE0 7358            0B640 63973  2                        INCR  R14
 00B3EC 50E0 8050            00028 63976  2                        ST    R14,MBNDX2
 00B3F0 47F0 70B0            0B398 63977  1                      END   , BUFFER 2 INDEXING
 00B3F4 5A11 0000            00000 63982  1                      A     R1,0(R1)            BUMP BUFFER 1 INDEX, COUNT
 00B3F8 4111 0004            00004 63983  1                      LA    R1,4(R1)
 00B3FC 58E0 804C            00024 63984  1                      L     R14,MBNDX1
 00B400 5EE0 7358            0B640 63985  1                      INCR  R14
 00B404 50E0 804C            00024 63988  1                      ST    R14,MBNDX1
 00B408 5820 8030            00008 63989  1                      L     R2,MBBUF2           RESET BUFFER 2 INDEX, COUNT
 00B40C D703 8050 8050 00028 00028 63990  1                      CLEAR MBNDX2
 00B412 47F0 70A6            0B38E 63997                       END   , BUFFER 1 INDEXING
                                   64002
                                   64003                       COMMENT                   IF WE FALL THROUGH,,,
                                   64004                       COMMENT                   NO MATCH WAS FOUND
 00B416 5800 735C            0B644 64005                       L     R0,=F'-1000'
 00B41A 5810 735C            0B644 64006                       L     R1,=F'-1000'
 00B41E 41F0 0004            00004 64007                       LA    R15,4
                                   64008
 00B422                            64009              MBDONE   LABEL ,
1PROC     (PROC2193) (12:51) (15MAR04) Common Routines for System Procedures                                                Page  228
0Current Usings:  (*,R7) (MBWA-(4+36),R8) (CP,R11) (CV,R12)
0Loc    Object Code    Addr1 Addr2  Stmt Lv Lineno    Source Statement           (Hibal 5, Asmedit 3.3)  HLASM R4.0  2004/03/15 12.51
+___    ______ ____    _____ _____  ____ __ ______    ______ _________
000B422 9001 8004            00004 64011                       PRETURN (R0,R1)
 00B426 18D8/9808 D004_            64013                       PEND
 DROP   MBWA-(4+36),R8
 DROP   *,R7
1PROC     (PROC2193) (12:51) (15MAR04) Common Routines for System Procedures                                                Page  229
0Current Usings:  (CP,R11) (CV,R12)
0Loc    Object Code    Addr1 Addr2  Stmt Lv Lineno    Source Statement           (Hibal 5, Asmedit 3.3)  HLASM R4.0  2004/03/15 12.51
+___    ______ ____    _____ _____  ____ __ ______    ______ _________
0                                  64039              ¿þþþþþþþþþþþþþþþþþþþþþþþþþþþþþþþþþþþþþþþþþþþþþþþþþþþþþþþþþþþþþþþþþþþþþÜ
                                   64040              Ÿ                                                                     Ÿ
                                   64041              Ÿ  ON ENTRY: R1 - LINE IN BLOCK 1,     R2 - LINE IN BLOCK 2           Ÿ
                                   64042              Ÿ            R6 - MBWA                                                Ÿ
                                   64043              Ÿ  ON EXIT:  R15 - CC=ZERO, IF COMPARES                               Ÿ
                                   64044              Ÿ                  CC=NZ, IF NO COMPARE                               Ÿ
                                   64045              Ÿ                                                                     Ÿ
                                   64046              Ÿ  COMPARE MUST BE SUCCEED FOR CERTAIN LENGTH TO ESTABLISH MATCH.     Ÿ
                                   64047              Ÿ  LENGTH IS CALCULATED AS FOLLOWS:                                   Ÿ
                                   64048              Ÿ     LEN = 3*(CURRENT LINE LENGTH)                                   Ÿ
                                   64049              Ÿ     LEN = MIN(LEN,400)                                              Ÿ
                                   64050              Ÿ     LEN = MAX(LEN,80)                                               Ÿ
                                   64051              Ÿ     LEN1= MIN(LEN,REMAINDER IN TEXT BUFFER #1)                      Ÿ
                                   64052              Ÿ     LEN2= MIN(LEN,REMAINDER IN TEXT BUFFER #2)                      Ÿ
                                   64053              Ÿ     LEN = MAX(LEN1,LEN2)                                            Ÿ
                                   64054              Ÿ                                                                     Ÿ
                                                      ¾þþþþþþþþþþþþþþþþþþþþþþþþþþþþþþþþþþþþþþþþþþþþþþþþþþþþþþþþþþþþþþþþþþþþþ»
000B434 50E0 D000/9008_      00000 64055              MATCHCHK PROC
 USING  *,R7
 USING  MBWA,R6                    64094                       USING MBWA,R6
 00B44E 5831 0000            00000 64103                       L     R3,0(R1)            R3 - LENGTH
 00B452 1843                       64104                       LR    R4,R3
 00B454 1A34                       64105                       AR    R3,R4
 00B456 1A34                       64106                       AR    R3,R4               LEN = 3*(CURRENT LINE LEN)
 00B458 5930 71FA/47D0_      0B648 64107                       IF    (R3,GT,400),' LA R3,400'
 00B464 5930 71FE/47B0_      0B64C 64130                       IF    (R3,LT,80),' LA R3,80'
 00B470 5840 6000            00000 64153                       L     R4,MBBUF1           R4 - REMAINING TEXT IN #1
 00B474 5A40 6004            00004 64154                       A     R4,MBLEN1
 00B478 1B41                       64155                       SR    R4,R1
 00B47A 5850 6008            00008 64156                       L     R5,MBBUF2           R4 - REMAINING TEXT IN #2
 00B47E 5A50 600C            0000C 64157                       A     R5,MBLEN2
 00B482 1B52                       64158                       SR    R5,R2
 00B484 1945/47B0 703E_            64159                       IF    (R4,LT,R5),' LR R4,R5 '   MAX( REMAINING LENGTHS)
 00B48C 1934/47D0 7046_            64180                       IF    (R3,GT,R4),' LR R3,R4 '   MIN( LEN, REMAINING LENS)
                                   64201                       COMMENT                   R3 - LENGTH FOR COMPARE
 00B494 18E1                       64202                       LR    R14,R1
 00B496 18F3                       64203                       LR    R15,R3
 00B498 1842                       64204                       LR    R4,R2
 00B49A 1853                       64205                       LR    R5,R3
 00B49C 0FE4                       64206                       CLCL  R14,R4              COMPARE TEXT FOR FINAL MATCH
 00B49E 4770 7056            0B4A4 64207                       IF    E,BEGIN             AND SET RETURN CODE
 00B4A2 1BFF                       64218  1                      CLEAR R15
 00B4A4                            64222                       END
 00B4A4 705A/47F0 705E 0B4A4 0B4A0 64226                       ELSE  BEGIN
 00B4A8 41F0 0004            00004 64237  1                      LA    R15,4
 00B4AC                            64238                       END
                                   64242
 00B4AC 18D8/9808 D004_            64243                       PEND
 DROP   *,R7
 DROP   MBWA,R6                    64263                       DROP  R6
1PROC     (PROC2193) (12:51) (15MAR04) Common Routines for System Procedures                                                Page  230
0Current Usings:  (CP,R11) (CV,R12)
0Loc    Object Code    Addr1 Addr2  Stmt Lv Lineno    Source Statement           (Hibal 5, Asmedit 3.3)  HLASM R4.0  2004/03/15 12.51
+___    ______ ____    _____ _____  ____ __ ______    ______ _________
0                                  64271              ¿þþþþþþþþþþþþþþþþþþþþþþþþþþþþþþþþþþþþþþþþþþþþþþþþþþþþþþþþþþþþþþþþþþþþþÜ
                                   64272              Ÿ                                                                     Ÿ
                                   64273              Ÿ  ON ENTRY: R1 - MATCHING LINE IN BLOCK #1                           Ÿ
                                   64274              Ÿ            R2 - MATCHING LINE IN BLOCK #2                           Ÿ
                                   64275              Ÿ            R6 - MBWA                                                Ÿ
                                   64276              Ÿ  ON EXIT:  R0 -- 1ST MATCHING LINENO                                Ÿ
                                   64277              Ÿ            R1 -- 2ND MATCHING LINENO                                Ÿ
                                   64278              Ÿ                                                                     Ÿ
                                                      ¾þþþþþþþþþþþþþþþþþþþþþþþþþþþþþþþþþþþþþþþþþþþþþþþþþþþþþþþþþþþþþþþþþþþþþ»
000B4BA 50E0 D000/9008_      00000 64279              MATCHLNO PROC
 USING  *,R7
 USING  MBWA,R6                    64318                       USING MBWA,R6
                                   64327
                                   64328                       COMMENT                   GET LINENO #1
 00B4D4 5840 6000            00000 64329                       L     R4,MBBUF1
 00B4D8 5850 6010            00010 64330                       L     R5,MBBUF1A
 00B4DC 1941/47B0 701E             64331                       WHILE (R4,LT,R1),BEGIN
 00B4E2 5A44 0000            00000 64348  1                      A     R4,0(R4)
 00B4E6 4144 0004            00004 64349  1                      LA    R4,4(R4)
 00B4EA 4155 0004            00004 64350  1                      LA    R5,4(R5)
 00B4EE 47F0 7008            0B4DC 64351                       END
 00B4F2 5805 0000            00000 64356                       L     R0,0(R5)
                                   64357
                                   64358                       COMMENT                   GET LINENO #2
 00B4F6 5840 6008            00008 64359                       L     R4,MBBUF2
 00B4FA 5850 6014            00014 64360                       L     R5,MBBUF2A
 00B4FE 1942/47B0 7040             64361                       WHILE (R4,LT,R2),BEGIN
 00B504 5A44 0000            00000 64378  1                      A     R4,0(R4)
 00B508 4144 0004            00004 64379  1                      LA    R4,4(R4)
 00B50C 4155 0004            00004 64380  1                      LA    R5,4(R5)
 00B510 47F0 702A            0B4FE 64381                       END
 00B514 5815 0000            00000 64386                       L     R1,0(R5)
                                   64387
 00B518 9001 8004            00004 64388                       PRETURN (R0,R1)
 00B51C 18D8/9808 D004_            64390                       PEND
 DROP   *,R7
 DROP   MBWA,R6                    64410                       DROP  R6
1PROC     (PROC2193) (12:51) (15MAR04) Common Routines for System Procedures                                                Page  231
0Current Usings:  (CP,R11) (CV,R12)
0Loc    Object Code    Addr1 Addr2  Stmt Lv Lineno    Source Statement           (Hibal 5, Asmedit 3.3)  HLASM R4.0  2004/03/15 12.51
+___    ______ ____    _____ _____  ____ __ ______    ______ _________
0                                  64418              ¿þþþþþþþþþþþþþþþþþþþþþþþþþþþþþþþþþþþþþþþþþþþþþþþþþþþþþþþþþþþþþþþþþþþþþÜ
                                   64419              Ÿ                                                                     Ÿ
                                   64420              Ÿ                                                                     Ÿ
                                   64421              Ÿ  READBUF - READ IN BUFFER OF ACTIVE FILE LINES                      Ÿ
                                   64422              Ÿ                                                                     Ÿ
                                   64423              Ÿ  ON ENTRY:                                                          Ÿ
                                   64424              Ÿ       R0 - FIRST LINE NUMBER                                        Ÿ
                                   64425              Ÿ       R1 - BUFFER FOR TEXT                                          Ÿ
                                   64426              Ÿ       R2 - BUFFER FOR LINE NUMBERS                                  Ÿ
                                   64427              Ÿ       R3 - TEXT BUFFER LENGTH                                       Ÿ
                                   64428              Ÿ       R4 - MAXIMUM NUMBER OF LINES TO PUT IN BUFFER                 Ÿ
                                   64429              Ÿ       R5 - DO NOT READ PAST THIS LINE NUMBER (R5=0 IF NONE)         Ÿ
                                   64430              Ÿ       R6 - ACTIVE FILE NUMBER (ZERO=CURRENT)                        Ÿ
                                   64431              Ÿ      R15 - FILL CHARACTER (IN X'XX000000') FORMAT                   Ÿ
                                   64432              Ÿ                                                                     Ÿ
                                   64433              Ÿ  ON EXIT:                                                           Ÿ
                                   64434              Ÿ       R0 - LENGTH OF TEXT IN BUFFER (VALID FOR CC=Z AND CC=NZ)      Ÿ
                                   64435              Ÿ       R1 - COUNT OF TEXT LINES IN BUFFER                            Ÿ
                                   64436              Ÿ       R2 - LAST LINE NUMBER READ                                    Ÿ
                                   64437              Ÿ      R15 - CC=Z, BUFFER FILLED                                      Ÿ
                                   64438              Ÿ            CC=NZ, BUFFER EMPTY, BYTE COUNT ZERO                     Ÿ
                                   64439              Ÿ                                                                     Ÿ
                                   64440              Ÿ  BUFFER FORMAT:                                                     Ÿ
                                   64441              Ÿ       FILLED WITH TEXT LINES, EACH LINE CONSISTS OF:                Ÿ
                                   64442              Ÿ          4 BYTES TEXT LENGTH = N                                    Ÿ
                                   64443              Ÿ          N BYTES TEXT                                               Ÿ
                                   64444              Ÿ  LINE NUMBER BUFFER FORMAT:                                         Ÿ
                                   64445              Ÿ       FILLED WITH 4 BYTE LINE NUMBERS,  EOF IS =F'-1'               Ÿ
                                   64446              Ÿ                                                                     Ÿ
                                   64447              Ÿ                                                                     Ÿ
                                   64448              Ÿ  NOTES:  LINE NUMBER BUFFER MUST BE 4*MAX NO OF LINES, LONG.        Ÿ
                                   64449              Ÿ                                                                     Ÿ
                                   64450              Ÿ                                                                     Ÿ
                                                      ¾þþþþþþþþþþþþþþþþþþþþþþþþþþþþþþþþþþþþþþþþþþþþþþþþþþþþþþþþþþþþþþþþþþþþþ»
0000000                00000 00048 64451              RDBWA    RECORD BEGIN
                                   64459  1                      XSA   R0,R8
 000000 0000000000000000           64460  1 01-XSA   +           DC    (R8+2-(R0))A(0)
 000028                            64461  1           RDBLNO     DS    F                   START LINE NUMBER
 00002C                            64462  1           RDBBUF     DS    F                   BUFFER ADDRESS
 000030                            64463  1           RDBLNBUF   DS    F                   LINENO BUFFER ADDRESS
 000034                            64464  1           RDBBUFLN   DS    F                   BUFFER LENGTH
 000038                            64465  1           RDBMAXCT   DS    F                   MAX LINES TO READ
 00003C                            64466  1           RDBMAXLN   DS    F                   MAX LINENO TO READ
 000040                            64467  1           RDBACTNO   DS    F                   ACTIVE FILE NUMBER
 000044                            64468  1           RDBFILL    DS    F                   FILL CHARACTER FOR BUFFER
 000048                00048 00048 64469                       END
                                   64478              *
                                   64479              *
 00B52A 50E0 D000/9008_      00000 64480              READBUF  PROC  RDBWA
 USING  *,R7
 USING  RDBWA-(4+36),R8
                                   64530
                                   64531                       COMMENT                   INITIALIZE WORK AREA
1PROC     (PROC2193) (12:51) (15MAR04) Common Routines for System Procedures                                                Page  232
0Current Usings:  (*,R7) (RDBWA-(4+36),R8) (CP,R11) (CV,R12)
0Loc    Object Code    Addr1 Addr2  Stmt Lv Lineno    Source Statement           (Hibal 5, Asmedit 3.3)  HLASM R4.0  2004/03/15 12.51
+___    ______ ____    _____ _____  ____ __ ______    ______ _________
000B544 5000 8050            00028 64532                       ST    R0,RDBLNO
 00B548 5010 8054            0002C 64533                       ST    R1,RDBBUF
 00B54C 5020 8058            00030 64534                       ST    R2,RDBLNBUF
 00B550 5030 805C            00034 64535                       ST    R3,RDBBUFLN
 00B554 5040 8060            00038 64536                       ST    R4,RDBMAXCT
 00B558 5050 8064            0003C 64537                       ST    R5,RDBMAXLN
 00B55C 5060 8068            00040 64538                       ST    R6,RDBACTNO
 00B560 50F0 806C            00044 64539                       ST    R15,RDBFILL
                                   64540
                                   64541                       COMMENT                   SET UP FOR READ LOOP
 00B564 5820 8058            00030 64542                       L     R2,RDBLNBUF         R2 - LINENO INDEX POINTER
 00B568 D203 2000 8050 00000 00028 64543                       MVC   0(4,R2),RDBLNO
 00B56E 5840 8054            0002C 64544                       L     R4,RDBBUF           R4 - TEXT INDEX POINTER
 00B572 1854                       64545                       LR    R5,R4               R5 - END OF TEXT AREA
 00B574 5A50 805C            00034 64546                       A     R5,RDBBUFLN
 00B578 5B50 710C            0B650 64547                       S     R5,=AL4(&LINESZ+4+32)    FUDGE FACTOR, NO OVERRUNS
 00B57C 1B66                       64548                       CLEAR R6                  R6 - LINE COUNT
                                   64552
                                   64553                       COMMENT                   DO FIRST READ
 00B57E 4114 0004            00004 64554                       LA    R1,4(R4)            @R1 TEXT AREA
                                   64555                       COMMENT                   @R2 LINE NUMBER AREA
 00B582 5830 8068            00040 64556                       L     R3,RDBACTNO         USE PICKED ACTIVE FILE
 00B586 58E0 7110/0DEE       0B654 64557                       VCALL GTFRST
                                   64561
                                   64562                       COMMENT                   LOOP READING LINES
 00B58C                            64563                       LOOP  BEGIN
                                   64569  1
                                   64570  1                      COMMENT                   IF GOT LINE, AND IN CORRECT RANGE
                                   64571  1         C            IF    ((R15,Z),AND,
 00B58C 12FF/4770 707C_                   1                            ((@R2,LT,RDBMAXLN),OR,(RDBMAXLN,EQ,0))),BEGIN
 00B5A6 5004 0000            00000 64618  2                        ST    R0,0(R4)            SAVE LENGTH
                                   64619  2           *        MVC   0(2,R4),=X'0FEF'    SAVE SIMI-UNIQUE LINE START
 00B5AA 1A40                       64620  2                        AR    R4,R0               UPDATE TEXT INDEX
 00B5AC 4144 0004            00004 64621  2                        LA    R4,4(R4)
 00B5B0 5832 0000            00000 64622  2                        L     R3,0(R2)            R3 - LINENO READ
 00B5B4 4122 0004            00004 64623  2                        LA    R2,4(R2)            UPDATE LINENO INDEX
 00B5B8 5032 0000            00000 64624  2                        ST    R3,0(R2)            UPDATE LINENO FOR NEXT GET
 00B5BC 4166 0001            00001 64625  2                        LA    R6,1(R6)            BUMP LINE COUNT
 00B5C0                            64626  1                      END
                                   64630  1
                                   64631  1                      COMMENT                   IF END OF FILE, OR PAST RANGE
 00B5C0 7080/7080/47F0_0B5C0 0B590 64632  1                      ELSE  BEGIN
 00B5C4 5830 7100            0B644 64645  2                        L     R3,=F'-1000'        MARK END OF FILE, R3 - LINE NO
 00B5C8 5032 0000            00000 64646  2                        ST    R3,0(R2)
 00B5CC                            64647  1                      END
                                   64651  1
                                   64652  1                      COMMENT ,                 EXIT LOOP IF
                                   64653  1                      COMMENT ,                 A) END OF FILE
                                   64654  1                      COMMENT ,                 B) MAX LINE COUNT READ
                                   64655  1                      COMMENT ,                 C) BUFFER FULL
 00B5CC 12FF/4770 70AE             64656  1                      IF    (R15,NZ),RDBDONE
 00B5D2 5960 8060/47A0_      00038 64673  1                      IF    (R6,GE,RDBMAXCT),RDBDONE
 00B5DA 1945/47A0 70AE             64693  1                      IF    (R4,GE,R5),RDBDONE
                                   64711  1
1PROC     (PROC2193) (12:51) (15MAR04) Common Routines for System Procedures                                                Page  233
0Current Usings:  (*,R7) (RDBWA-(4+36),R8) (CP,R11) (CV,R12)
0Loc    Object Code    Addr1 Addr2  Stmt Lv Lineno    Source Statement           (Hibal 5, Asmedit 3.3)  HLASM R4.0  2004/03/15 12.51
+___    ______ ____    _____ _____  ____ __ ______    ______ _________
0                                  64712  1                      COMMENT                   READ NEXT LINE AND CONTINUE
 00B5E0 4114 0004            00004 64713  1                      LA    R1,4(R4)            @R1 - TEXT AREA
                                   64714  1                      COMMENT                   @R2 - LINE NUMBER
 00B5E4 5830 8068            00040 64715  1                      L     R3,RDBACTNO         USE CURRENT ACTIVE FILE
 00B5E8 58E0 7114/0DEE       0B658 64716  1                      VCALL GTNEXT              GET NEXT LINE
                                   64720  1
 00B5EE 47F0 7048            0B58C 64721                       END   , OF READ LINES LOOP
                                   64726              *
                                   64727              *
 00B5F2                            64728              RDBDONE  LABEL ,
                                   64730                       COMMENT                   BUFFER FULL, SET RETURNS
                                   64731                       COMMENT                   R4 - END OF DATA,
                                   64732                       COMMENT                   R3 - LAST LINENO READ
                                   64733                       COMMENT                   R6 - LINE COUNT
                                   64734                       COMMENT
 00B5F2 1804                       64735                       LR    R0,R4               FILL END OF BUFFER WITH FILL CHAR
 00B5F4 5810 8054            0002C 64736                       L     R1,RDBBUF
 00B5F8 5A10 805C            00034 64737                       A     R1,RDBBUFLN
 00B5FC 1B10                       64738                       SR    R1,R0
 00B5FE 58F0 806C            00044 64739                       L     R15,RDBFILL
 00B602 0E0E                       64740                       MVCL  R0,R14
                                   64741                       COMMENT                   SET RETURNS
 00B604 1804                       64742                       LR    R0,R4
 00B606 5B00 8054            0002C 64743                       S     R0,RDBBUF           R0 - LENGTH
 00B60A 1816                       64744                       LR    R1,R6               R1 - LINE COUNT
 00B60C 5822 0000            00000 64745                       L     R2,0(R2)            R2 - LAST LINE READ
 00B610 1200/4770 70D6             64746                       IF    (R0,Z),BEGIN        R15 - CC=NZ, IF NO LINES READ
 00B616 41F0 0004            00004 64760  1                      LA    R15,4
 00B61A                            64761                       END
 00B61A 70DA/47F0 70DC 0B61A 0B614 64765                       ELSE  BEGIN
 00B61E 1BFF                       64776  1                      CLEAR R15
 00B620                            64780                       END
                                   64784
 00B620 9002 8004            00004 64785                       PRETURN (R0,R2)
 00B624 18D8/9808 D004_            64787                       PEND
 DROP   RDBWA-(4+36),R8
 DROP   *,R7
                                   64812
                                   64813                       QLTORG
                                   64836                       VLTORG
 00B6D0                0B6D0 0B6D0 64847                       END   .

1PROC     (PROC2193) (12:51) (15MAR04) Relocation Dictionary                                                                Page  234
-   Pos.Id   Rel.Id   Flags    Address                                                       HLASM R4.0  2004/03/15 12.51
0  00000001 00000001    0C    00000190
   00000001 00000001    0C    000001A4
   00000001 00000001    0C    000001B8
   00000001 00000001    0C    000001CC
   00000001 00000001    0C    000001E0
   00000001 00000001    0C    000001F4
   00000001 00000001    0C    00000208
   00000001 00000001    0C    0000021C
   00000001 00000001    0C    00000230
   00000001 00000001    0C    00000244
   00000001 00000001    0C    00000258
   00000001 00000001    0C    0000026C
   00000001 00000001    0C    00000280
   00000001 00000001    0C    00000294
   00000001 00000001    0C    000002A8
   00000001 00000001    0C    000002BC
   00000001 00000001    0C    000002D0
   00000001 00000001    0C    000002E4
   00000001 00000001    0C    000002F8
   00000001 00000001    0C    0000030C
   00000001 00000001    0C    00000320
   00000001 00000001    0C    00000334
   00000001 00000001    0C    00000348
   00000001 00000001    0C    0000035C
   00000001 00000001    0C    00000370
   00000001 00000001    0C    00000384
   00000001 00000001    0C    00000398
   00000001 00000001    0C    000003AC
   00000001 00000001    0C    000003C0
   00000001 00000001    0C    000003D4
   00000001 00000001    0C    000003E8
   00000001 00000001    0C    000003FC
   00000001 00000001    0C    00000410
   00000001 00000001    0C    00000424
   00000001 00000001    0C    00000438
   00000001 00000001    0C    0000044C
   00000001 00000001    0C    00000460
   00000001 00000001    0C    00000474
   00000001 00000001    0C    00000488
   00000001 00000001    0C    0000049C
   00000001 00000001    0C    000004B0
   00000001 00000001    0C    000004C4
   00000001 00000001    0C    000004D8
   00000001 00000001    0C    000004EC
   00000001 00000001    0C    00000500
   00000001 00000001    0C    00000514
   00000001 00000001    0C    00000528
   00000001 00000001    0C    0000053C
   00000001 00000001    0C    00000550
   00000001 00000001    0C    00000564
   00000001 00000001    0C    00000578
   00000001 00000001    0C    0000058C
   00000001 00000001    0C    000005A0
   00000001 00000001    0C    000005B4
   00000001 00000001    0C    000005C8
1PROC     (PROC2193) (12:51) (15MAR04) Relocation Dictionary                                                                Page  235
   00000001 00000001    0C    000005DC
   00000001 00000001    0C    000005F0
   00000001 00000001    0C    00000604
   00000001 00000001    0C    00000618
   00000001 00000001    0C    00000634
   00000001 00000001    0C    00000638
   00000001 00000001    0C    00000A94
   00000001 00000001    0C    00000AE4
   00000001 00000001    0C    00000BE4
   00000001 00000001    0C    00000BF0
   00000001 00000001    0C    00000F30
   00000001 00000001    0C    00000F40
   00000001 00000001    0C    00001344
   00000001 00000001    0C    0000163C
   00000001 00000001    0C    0000195C
   00000001 00000001    0C    00001A28
   00000001 00000001    0C    00001A5C
   00000001 00000001    0C    00001A64
   00000001 00000001    0C    00002190
   00000001 00000001    0C    00002618
   00000001 00000001    0C    0000340C
   00000001 00000001    0C    0000342C
   00000001 00000001    0C    0000343C
   00000001 00000001    0C    00003D98
   00000001 00000001    0C    00003DA0
   00000001 00000001    0C    00003FA4
   00000001 00000001    0C    00004288
   00000001 00000001    0C    000042B0
   00000001 00000001    0C    000042D8
   00000001 00000001    0C    00004300
   00000001 00000001    0C    00004328
   00000001 00000001    0C    00004350
   00000001 00000001    0C    00004378
   00000001 00000001    0C    000043A0
   00000001 00000001    0C    000043C8
   00000001 00000001    0C    000043F0
   00000001 00000001    0C    00004418
   00000001 00000001    0C    00004440
   00000001 00000001    0C    00004468
   00000001 00000001    0C    00004490
   00000001 00000001    0C    000044B8
   00000001 00000001    0C    000044E0
   00000001 00000001    0C    00004508
   00000001 00000001    0C    00004530
   00000001 00000001    0C    00004558
   00000001 00000001    0C    00004580
   00000001 00000001    0C    000045A8
   00000001 00000001    0C    00004A2C
   00000001 00000001    0C    00004A40
   00000001 00000001    0C    00004CA4
   00000001 00000001    0C    00004CCC
   00000001 00000001    0C    00004CF4
   00000001 00000001    0C    00004D1C
   00000001 00000001    0C    00004D44
   00000001 00000001    0C    00004D6C
   00000001 00000001    0C    00004D94
   00000001 00000001    0C    00004DBC
   00000001 00000001    0C    00004DE4
   00000001 00000001    0C    00004E0C
1PROC     (PROC2193) (12:51) (15MAR04) Relocation Dictionary                                                                Page  236
   00000001 00000001    0C    00004E34
   00000001 00000001    0C    00004E5C
   00000001 00000001    0C    00004E84
   00000001 00000001    0C    00004EAC
   00000001 00000001    0C    00004ED4
   00000001 00000001    0C    00004EFC
   00000001 00000001    0C    00004F24
   00000001 00000001    0C    00004F4C
   00000001 00000001    0C    00004F74
   00000001 00000001    0C    0000542C
   00000001 00000001    0C    000056C0
   00000001 00000001    0C    000056E8
   00000001 00000001    0C    00005710
   00000001 00000001    0C    000059F4
   00000001 00000001    0C    00005A1C
   00000001 00000001    0C    00005A44
   00000001 00000001    0C    00005A6C
   00000001 00000001    0C    00005A94
   00000001 00000001    0C    00005ABC
   00000001 00000001    0C    00005C0C
   00000001 00000001    0C    00005C28
   00000001 00000001    0C    00005C30
   00000001 00000001    0C    00005ECC
   00000001 00000001    0C    000060DC
   00000001 00000001    0C    00006104
   00000001 00000001    0C    0000612C
   00000001 00000001    0C    00006154
   00000001 00000001    0C    000063CC
   00000001 00000001    0C    000065C8
   00000001 00000001    0C    000065F0
   00000001 00000001    0C    00006618
   00000001 00000001    0C    00006640
   00000001 00000001    0C    00006914
   00000001 00000001    0C    0000693C
   00000001 00000001    0C    00006964
   00000001 00000001    0C    0000698C
   00000001 00000001    0C    000069B4
   00000001 00000001    08    00006AE5
   00000001 00000001    08    00006B0B
   00000001 00000001    0C    00006B7C
   00000001 00000001    0C    00006B8C
   00000001 00000001    0C    00006BA8
   00000001 00000001    0C    00006BB0
   00000001 00000001    0C    00006BC0
   00000001 00000001    0C    00006BCC
   00000001 00000001    08    00006CFF
   00000001 00000001    0C    00006E28
   00000001 00000001    0C    000070A0
   00000001 00000001    0C    000070C8
   00000001 00000001    0C    000070F0
   00000001 00000001    0C    00007118
   00000001 00000001    0C    00007140
   00000001 00000001    0C    00007168
   00000001 00000001    0C    00007190
   00000001 00000001    0C    000071B8
   00000001 00000001    0C    000071E0
   00000001 00000001    0C    00007208
   00000001 00000001    0C    00007230
   00000001 00000001    0C    00007258
1PROC     (PROC2193) (12:51) (15MAR04) Relocation Dictionary                                                                Page  237
   00000001 00000001    0C    00007280
   00000001 00000001    0C    000072A8
   00000001 00000001    0C    000072D0
   00000001 00000001    0C    00007794
   00000001 00000001    0C    000077BC
   00000001 00000001    0C    000077E4
   00000001 00000001    0C    0000780C
   00000001 00000001    0C    00007834
   00000001 00000001    0C    0000785C
   00000001 00000001    0C    00007884
   00000001 00000001    0C    000078AC
   00000001 00000001    0C    000078D4
   00000001 00000001    0C    000078FC
   00000001 00000001    0C    00007924
   00000001 00000001    0C    00007B58
   00000001 00000001    0C    00007B6C
   00000001 00000001    0C    00007B70
   00000001 00000001    0C    00007B90
   00000001 00000001    0C    00007B98
   00000001 00000001    0C    00007DF8
   00000001 00000001    0C    00007E20
   00000001 00000001    0C    00007E48
   00000001 00000001    0C    0000813C
   00000001 00000001    0C    00008164
   00000001 00000001    0C    0000818C
   00000001 00000001    0C    000081B4
   00000001 00000001    0C    000081DC
   00000001 00000001    0C    00008204
   00000001 00000001    0C    00008354
   00000001 00000001    0C    00008370
   00000001 00000001    0C    000085AC
   00000001 00000001    0C    000087D0
   00000001 00000001    0C    000087F8
   00000001 00000001    0C    00008820
   00000001 00000001    0C    00008AD0
   00000001 00000001    0C    00008AF8
   00000001 00000001    0C    00008B20
   00000001 00000001    0C    00008B48
   00000001 00000001    08    00008C4F
   00000001 00000001    0C    00008CA8
   00000001 00000001    0C    00008CAC
   00000001 00000001    0C    00008CC8
   00000001 00000001    0C    00008CCC
   00000001 00000001    0C    00008CF0
   00000001 00000001    0C    00008CF4
   00000001 00000001    0C    00008D00
   00000001 00000001    0C    000094E4
   00000001 00000001    0C    000094F4
   00000001 00000001    0C    00009CF4
   00000001 00000001    0C    00009CF8
   00000001 00000001    0C    00009CFC
   00000001 00000001    0C    00009D00
   00000001 00000001    0C    00009D08
   00000001 00000001    0C    00009D10
   00000001 00000001    0C    00009D18
   00000001 00000001    0C    00009D1C
   00000001 00000001    0C    00009D20
   00000001 00000001    0C    00009D2C
   00000001 00000001    0C    00009D30
1PROC     (PROC2193) (12:51) (15MAR04) Relocation Dictionary                                                                Page  238
   00000001 00000001    0C    00009D38
   00000001 00000001    0C    00009D3C
   00000001 00000001    0C    0000A584
   00000001 00000001    0C    0000A5AC
   00000001 00000001    0C    0000A5D4
   00000001 00000001    0C    0000A5FC
   00000001 00000001    0C    0000A6D0
   00000001 00000001    0C    0000A6E0
   00000001 00000001    0C    0000A6F0
   00000001 00000001    0C    0000A6F8
   00000001 00000001    0C    0000A6FC
   00000001 00000001    0C    0000A724
   00000001 00000001    0C    0000A72C
   00000001 00000001    0C    0000ADBC
   00000001 00000001    0C    0000ADE4
   00000001 00000001    0C    0000AE0C
   00000001 00000001    0C    0000AE34
   00000001 00000001    0C    0000AF90
   00000001 00000001    0C    0000B638
   00000001 00000001    0C    0000B63C
   00000001 00000002    1C    00000630
   00000001 00000003    1C    0000063C
   00000001 00000004    1C    00000640
   00000001 00000005    1C    00000A90
   00000001 00000005    1C    00000AE0
   00000001 00000005    1C    00001340
   00000001 00000005    1C    00001638
   00000001 00000005    1C    00001958
   00000001 00000005    1C    00003FA0
   00000001 00000005    1C    000045A4
   00000001 00000005    1C    00004F70
   00000001 00000005    1C    0000570C
   00000001 00000005    1C    00005AB8
   00000001 00000005    1C    00005EC8
   00000001 00000005    1C    00006150
   00000001 00000005    1C    000063C8
   00000001 00000005    1C    0000663C
   00000001 00000005    1C    000069B0
   00000001 00000005    1C    00006E24
   00000001 00000005    1C    000072A4
   00000001 00000005    1C    000072CC
   00000001 00000005    1C    00007920
   00000001 00000005    1C    00007E44
   00000001 00000005    1C    00008200
   00000001 00000005    1C    000085A8
   00000001 00000005    1C    0000881C
   00000001 00000005    1C    00008B44
   00000001 00000005    1C    0000A5F8
   00000001 00000005    1C    0000AE30
   00000001 00000006    1C    00000ABC
   00000001 00000007    1C    00000BD8
   00000001 00000007    1C    00000F00
   00000001 00000007    1C    00001A18
   00000001 00000007    1C    00001D2C
   00000001 00000007    1C    00002128
   00000001 00000007    1C    00002600
   00000001 00000007    1C    00002FC8
   00000001 00000007    1C    00003400
   00000001 00000007    1C    000036D0
1PROC     (PROC2193) (12:51) (15MAR04) Relocation Dictionary                                                                Page  239
   00000001 00000007    1C    000039D4
   00000001 00000007    1C    00003D68
   00000001 00000007    1C    00004A20
   00000001 00000007    1C    00005420
   00000001 00000007    1C    00005C00
   00000001 00000007    1C    00006B74
   00000001 00000007    1C    00007B48
   00000001 00000007    1C    00008348
   00000001 00000007    1C    00008CA0
   00000001 00000007    1C    000094DC
   00000001 00000007    1C    00009CF0
   00000001 00000007    1C    0000AF30
   00000001 00000007    1C    0000B198
   00000001 00000008    1C    00000BDC
   00000001 00000008    1C    00000F44
   00000001 00000008    1C    00002FE4
   00000001 00000008    1C    00003DA8
   00000001 00000008    1C    00004A54
   00000001 00000008    1C    00009D14
   00000001 00000009    1C    00000BE0
   00000001 00000009    1C    00001A54
   00000001 00000009    1C    00002134
   00000001 00000009    1C    00004A50
   00000001 00000009    1C    00005448
   00000001 00000009    1C    00005C40
   00000001 00000009    1C    00006BD8
   00000001 00000009    1C    00007B84
   00000001 00000009    1C    0000837C
   00000001 00000009    1C    00008D0C
   00000001 00000009    1C    0000AF38
   00000001 0000000A    1C    00000BE8
   00000001 0000000A    1C    00001A2C
   00000001 0000000A    1C    00004A30
   00000001 0000000A    1C    00005430
   00000001 0000000A    1C    00005C10
   00000001 0000000A    1C    00006B80
   00000001 0000000A    1C    00007B5C
   00000001 0000000A    1C    00008358
   00000001 0000000A    1C    00008CB0
   00000001 0000000A    1C    0000A728
   00000001 0000000A    1C    0000AF94
   00000001 0000000B    1C    00000BEC
   00000001 0000000C    1C    00000C00
   00000001 0000000C    1C    00003428
   00000001 0000000C    1C    000039D8
   00000001 0000000C    1C    00005C2C
   00000001 0000000C    1C    00008CD4
   00000001 0000000C    1C    000094F0
   00000001 0000000C    1C    0000AF7C
   00000001 0000000D    1C    00000C04
   00000001 0000000E    1C    00000C08
   00000001 0000000E    1C    00000F18
   00000001 0000000E    1C    0000344C
   00000001 0000000E    1C    000039E4
   00000001 0000000E    1C    00003D80
   00000001 0000000E    1C    00006BB4
   00000001 0000000E    1C    00008CE0
   00000001 0000000E    1C    00009508
   00000001 0000000E    1C    0000A6E4
1PROC     (PROC2193) (12:51) (15MAR04) Relocation Dictionary                                                                Page  240
   00000001 0000000E    1C    0000AF88
   00000001 0000000F    1C    00000C0C
   00000001 00000010    1C    00000C14
   00000001 00000010    1C    00005C20
   00000001 00000010    1C    00008368
   00000001 00000011    1C    00000F08
   00000001 00000011    1C    000036EC
   00000001 00000011    1C    00003D70
   00000001 00000011    1C    00009504
   00000001 00000011    1C    0000A6E8
   00000001 00000012    1C    00000F0C
   00000001 00000012    1C    0000212C
   00000001 00000012    1C    00002610
   00000001 00000012    1C    00002FDC
   00000001 00000012    1C    00003D74
   00000001 00000012    1C    0000AF78
   00000001 00000013    1C    00000F14
   00000001 00000013    1C    00002FE0
   00000001 00000013    1C    00003D7C
   00000001 00000013    1C    0000B654
   00000001 00000014    1C    00001A20
   00000001 00000015    1C    00001A30
   00000001 00000015    1C    00001D34
   00000001 00000015    1C    00002144
   00000001 00000015    1C    00002608
   00000001 00000015    1C    000039E8
   00000001 00000015    1C    00004A58
   00000001 00000015    1C    00007B88
   00000001 00000015    1C    00009D48
   00000001 00000016    1C    00001A38
   00000001 00000016    1C    00001D3C
   00000001 00000017    1C    00001A60
   00000001 00000017    1C    00002154
   00000001 00000018    1C    00001A70
   00000001 00000018    1C    0000261C
   00000001 00000019    1C    00001A74
   00000001 00000019    1C    00002620
   00000001 0000001A    1C    00001A7C
   00000001 0000001A    1C    00002628
   00000001 0000001B    1C    00001E50
   00000001 0000001C    1C    00001E54
   00000001 0000001D    1C    0000214C
   00000001 0000001D    1C    00002614
   00000001 0000001E    1C    00002150
   00000001 0000001E    1C    0000233C
   00000001 0000001E    1C    00003420
   00000001 0000001E    1C    00008CD0
   00000001 0000001F    1C    00002188
   00000001 0000001F    1C    0000262C
   00000001 00000020    1C    00002338
   00000001 00000021    1C    00002FD0
   00000001 00000021    1C    0000A708
   00000001 00000022    1C    00002FF0
   00000001 00000023    1C    00002FF4
   00000001 00000024    1C    00002FF8
   00000001 00000024    1C    0000A700
   00000001 00000024    1C    0000B658
   00000001 00000025    1C    00002FFC
   00000001 00000026    1C    00003000
1PROC     (PROC2193) (12:51) (15MAR04) Relocation Dictionary                                                                Page  241
   00000001 00000027    1C    00003404
   00000001 00000027    1C    00007B4C
   00000001 00000027    1C    00008350
   00000001 00000027    1C    00008CA4
   00000001 00000028    1C    00003408
   00000001 00000028    1C    0000835C
   00000001 00000029    1C    00003410
   00000001 0000002A    1C    00003418
   00000001 0000002A    1C    00006B70
   00000001 0000002A    1C    00008378
   00000001 0000002B    1C    00003430
   00000001 0000002B    1C    00005C34
   00000001 0000002B    1C    00008CDC
   00000001 0000002B    1C    000094F8
   00000001 0000002B    1C    0000AF84
   00000001 0000002C    1C    00003434
   00000001 0000002C    1C    00006BC4
   00000001 0000002C    1C    00008CF8
   00000001 0000002D    1C    00003440
   00000001 0000002D    1C    00006BD0
   00000001 0000002D    1C    00008D04
   00000001 0000002E    1C    00003444
   00000001 0000002E    1C    00005C3C
   00000001 0000002E    1C    00006BB8
   00000001 0000002E    1C    00008CE4
   00000001 0000002E    1C    00009500
   00000001 0000002E    1C    0000AF8C
   00000001 0000002F    1C    00003448
   00000001 00000030    1C    00003450
   00000001 00000030    1C    00006BE0
   00000001 00000030    1C    00008D10
   00000001 00000031    1C    00003454
   00000001 00000032    1C    000036D8
   00000001 00000033    1C    000036DC
   00000001 00000034    1C    000036E0
   00000001 00000035    1C    000036E4
   00000001 00000036    1C    000036E8
   00000001 00000037    1C    000036F8
   00000001 00000038    1C    00003700
   00000001 00000039    1C    00003704
   00000001 00000039    1C    00009D44
   00000001 00000039    1C    0000A70C
   00000001 0000003A    1C    00003708
   00000001 0000003B    1C    000039DC
   00000001 0000003B    1C    000094FC
   00000001 0000003C    1C    000039F0
   00000001 0000003D    1C    000039F4
   00000001 0000003E    1C    000039FC
   00000001 0000003E    1C    00005C38
   00000001 0000003F    1C    00004284
   00000001 0000003F    1C    000042AC
   00000001 0000003F    1C    000042FC
   00000001 0000003F    1C    00004324
   00000001 0000003F    1C    0000434C
   00000001 0000003F    1C    00004374
   00000001 0000003F    1C    0000439C
   00000001 0000003F    1C    000043C4
   00000001 0000003F    1C    000043EC
   00000001 0000003F    1C    000044DC
1PROC     (PROC2193) (12:51) (15MAR04) Relocation Dictionary                                                                Page  242
   00000001 0000003F    1C    0000452C
   00000001 0000003F    1C    0000457C
   00000001 0000003F    1C    00004CA0
   00000001 0000003F    1C    00004CF0
   00000001 0000003F    1C    00004D18
   00000001 0000003F    1C    00004D40
   00000001 0000003F    1C    00004D68
   00000001 0000003F    1C    00004D90
   00000001 0000003F    1C    00004DB8
   00000001 0000003F    1C    00004DE0
   00000001 0000003F    1C    00004E08
   00000001 0000003F    1C    00004E30
   00000001 0000003F    1C    00004E58
   00000001 0000003F    1C    00004EF8
   00000001 0000003F    1C    00004F20
   00000001 0000003F    1C    00004F48
   00000001 0000003F    1C    000056BC
   00000001 0000003F    1C    000059F0
   00000001 0000003F    1C    000060D8
   00000001 0000003F    1C    00006100
   00000001 0000003F    1C    000065C4
   00000001 0000003F    1C    00006614
   00000001 0000003F    1C    00006910
   00000001 0000003F    1C    00006960
   00000001 0000003F    1C    00006988
   00000001 0000003F    1C    000070C4
   00000001 0000003F    1C    000070EC
   00000001 0000003F    1C    00007114
   00000001 0000003F    1C    0000713C
   00000001 0000003F    1C    00007164
   00000001 0000003F    1C    0000718C
   00000001 0000003F    1C    000071B4
   00000001 0000003F    1C    000071DC
   00000001 0000003F    1C    00007204
   00000001 0000003F    1C    0000722C
   00000001 0000003F    1C    00007254
   00000001 0000003F    1C    00007830
   00000001 0000003F    1C    00007880
   00000001 0000003F    1C    000078A8
   00000001 0000003F    1C    000078D0
   00000001 0000003F    1C    000078F8
   00000001 0000003F    1C    00007DF4
   00000001 0000003F    1C    00008138
   00000001 0000003F    1C    000087CC
   00000001 0000003F    1C    00008ACC
   00000001 0000003F    1C    00008B1C
   00000001 0000003F    1C    0000A580
   00000001 0000003F    1C    0000A5A8
   00000001 0000003F    1C    0000A5D0
   00000001 0000003F    1C    0000ADB8
   00000001 0000003F    1C    0000ADE0
   00000001 0000003F    1C    0000AE08
   00000001 00000040    1C    000042D4
   00000001 00000040    1C    00004414
   00000001 00000040    1C    0000443C
   00000001 00000040    1C    00004464
   00000001 00000040    1C    0000448C
   00000001 00000040    1C    000044B4
   00000001 00000040    1C    00004CC8
1PROC     (PROC2193) (12:51) (15MAR04) Relocation Dictionary                                                                Page  243
   00000001 00000040    1C    00004ED0
   00000001 00000040    1C    000056E4
   00000001 00000040    1C    00005A18
   00000001 00000040    1C    00005A40
   00000001 00000040    1C    000065EC
   00000001 00000040    1C    00006938
   00000001 00000040    1C    0000727C
   00000001 00000040    1C    00007808
   00000001 00000040    1C    00007858
   00000001 00000040    1C    00007E1C
   00000001 00000040    1C    00008160
   00000001 00000040    1C    00008188
   00000001 00000040    1C    000087F4
   00000001 00000040    1C    00008AF4
   00000001 00000041    1C    00004504
   00000001 00000041    1C    00004554
   00000001 00000041    1C    00005A68
   00000001 00000041    1C    000081B0
   00000001 00000042    1C    00004A24
   00000001 00000042    1C    00005C08
   00000001 00000042    1C    00006B78
   00000001 00000043    1C    00004A34
   00000001 00000044    1C    00004A38
   00000001 00000044    1C    00005444
   00000001 00000045    1C    00004A60
   00000001 00000045    1C    0000544C
   00000001 00000046    1C    00004E80
   00000001 00000046    1C    00004EA8
   00000001 00000046    1C    00005A90
   00000001 00000046    1C    00006128
   00000001 00000046    1C    00007790
   00000001 00000046    1C    000077B8
   00000001 00000046    1C    000077E0
   00000001 00000046    1C    000081D8
   00000001 00000047    1C    00005424
   00000001 00000048    1C    0000543C
   00000001 00000049    1C    00005C14
   00000001 0000004A    1C    00005C44
   00000001 0000004A    1C    00008380
   00000001 0000004B    1C    00006B98
   00000001 0000004C    1C    00006BA0
   00000001 0000004D    1C    00006BAC
   00000001 0000004E    1C    00006BBC
   00000001 0000004E    1C    00008374
   00000001 0000004E    1C    0000AF98
   00000001 0000004F    1C    00006BD4
   00000001 0000004F    1C    00008D08
   00000001 00000050    1C    0000709C
   00000001 00000051    1C    00007B60
   00000001 00000052    1C    00007B68
   00000001 00000053    1C    00007B94
   00000001 00000054    1C    00007BA0
   00000001 00000055    1C    00008CB4
   00000001 00000056    1C    00008CD8
   00000001 00000057    1C    000094E0
   00000001 00000058    1C    00009520
   00000001 00000059    1C    00009528
   00000001 0000005A    1C    00009D40
   00000001 0000005B    1C    0000AF48
1PROC     (PROC2193) (12:51) (15MAR04) Relocation Dictionary                                                                Page  244
   00000001 0000005C    1C    0000AF54
   00000001 0000005D    1C    0000AF60
   00000001 0000005E    1C    0000AF64
   00000001 0000005F    1C    0000AF6C
   00000001 00000060    1C    0000AF70
   00000001 00000061    1C    0000AF80
   00000001 00000062    1C    0000B1A8

1PROC     (PROC2193) (12:51) (15MAR04) Ordinary Symbol and Literal Cross Reference                                          Page  245
-Symbol   Length   Value     Id    R Type   Defn References                                  HLASM R4.0  2004/03/15 12.51
0$$$@R0        1 00000000 FFFFFFFE     J     705  1237
 $$$@R10       1 00000000 FFFFFFF4     J     835  1301
 $$$@R11       1 00000000 FFFFFFF3     J     848  1314
 $$$@R12       1 00000000 FFFFFFF2     J     861  1327
 $$$@R13       1 00000000 FFFFFFF1     J     874  1340
 $$$@R14       1 00000000 FFFFFFF0     J     887  1353
 $$$@R7        1 00000000 FFFFFFF7     J     796  1250
 $$$@R8        1 00000000 FFFFFFF6     J     809  1263   1275
 $$$@R9        1 00000000 FFFFFFF5     J     822  1288
 $$$C1WYLPROC
               1 00000648 00000001     J    9340  9342   9399
 $$$C10WYLPROC
               1 00002724 00000001     J   20125 20127  20364  20442  20709  20854  21014  21111  21435  21580  21740
                                                 21837  22163  22308  22468  22565  22891  23036  23196  23293  23619
                                                 23764  23924  24021  24313
 $$$C11WYLPROC
               1 0000309E 00000001     J   24388 24390  24432  24941  25243  25346
 $$$C12WYLPROC
               1 000034A0 00000001     J   25736 25738  25780  25953  26518
 $$$C13WYLPROC
               1 0000374C 00000001     J   26598 26600  26715  27642
 $$$C14WYLPROC
               1 00003A16 00000001     J   27728 27730  27780
 $$$C15WYLPROC
               1 00003DF3 00000001     J   28526 28528  28692  29078  29939  30082  31164
 $$$C16WYLPROC
               1 00004ABC 00000001     J   32055 32057  32470  33123  33258  34041
 $$$C17WYLPROC
               1 000054BE 00000001     J   34707 34709  34910  35144  35309  36109  36294
 $$$C18WYLPROC
               1 00005C9A 00000001     J   37060 37062  37668  38291  39128  39740  40670
 $$$C19WYLPROC
               1 00006C7A 00000001     J   41622 41624  41768  42156  42865  43008  44752
 $$$C2WYLPROC
               1 00000648 00000001     J    9412  9414   9845  10279  10508  10851
 $$$C20WYLPROC
               1 00007C12 00000001     J   45910 45912  46112  46367  46507  47233  47467
 $$$C21WYLPROC
               1 000083F0 00000001     J   48232 48234  48641  49306  50170  50733
 $$$C22WYLPROC
               1 00008D70 00000001     J   50983 50985  51016  51467  51656  52863  53196  53283  53388  53783  53870
                                                 53975
 $$$C23WYLPROC
               1 000095D0 00000001     J   54071 54073  54219  54822  56692
 $$$C24WYLPROC
               1 00009DAE 00000001     J   56768 56770  57133  57442  58261
 $$$C25WYLPROC
               1 0000A7AE 00000001     J   59227 59229  59364  59681  59747  59957  60207  60478  60728  60999  61181
                                                 61352  61581
 $$$C26WYLPROC
               1 0000AFFA 00000001     J   62539 62541  62880  62967  63072
 $$$C27WYLPROC
               1 0000B1CC 00000001     J   63142 63144  63204  63624  64476
 $$$C28WYLPROC
               1 0000B68B 00000001     J   64831 64833
1PROC     (PROC2193) (12:51) (15MAR04) Ordinary Symbol and Literal Cross Reference                                          Page  246
 $$$C29WYLPROC
               1 0000B6D0 00000001     J   64850 64852
 $$$C3WYLPROC
               1 00000C38 00000001     J   11386 11388  11440
 $$$C4WYLPROC
               1 00000F8F 00000001     J   12140 12142  12190  12377  12602  12713  12898  13099  13314  13614  13942
                                                 14149  14364  14623  14846  15185  15400  15921  16236
 $$$C5WYLPROC
               1 00001B9E 00000001     J   16349 16351  16378  16579  16716  16974
 $$$C6WYLPROC
               1 00001DC2 00000001     J   17078 17080  17125
 $$$C7WYLPROC
               1 00001E58 00000001     J   17320 17322  17765  17902  18424
 $$$C8WYLPROC
               1 00002226 00000001     J   18534 18536  18580  18961
 $$$C9WYLPROC
               1 00002348 00000001     J   19052 19054  19256  19393  20004
 $$$D10WYLPROC
               1 0000301A 00000001     J   20126 20353  20698  20843  21003  21100  21424  21569  21729  21826  22152
                                                 22297  22457  22554  22880  23025  23185  23282  23608  23753  23913
                                                 24010  24302
 $$$D11WYLPROC
               1 00003499 00000001     J   24389 25335
 $$$D12WYLPROC
               1 00003740 00000001     J   25737 25942  26507
 $$$D13WYLPROC
               1 00003A10 00000001     J   26599 27631
 $$$D15WYLPROC
               1 00004AA3 00000001     J   28527 29067  29928  30071  31153
 $$$D16WYLPROC
               1 000054AB 00000001     J   32056 32459  33247  34030
 $$$D17WYLPROC
               1 00005C7B 00000001     J   34708 34899  35133  35298  36098  36283
 $$$D18WYLPROC
               1 00006C5C 00000001     J   37061 37657  38280  39117  39729  40659
 $$$D19WYLPROC
               1 00007BFA 00000001     J   41623 42145  42854  42997  44741
 $$$D2WYLPROC
               1 00000C26 00000001     J    9413 10268  10497  10840
 $$$D20WYLPROC
               1 000083D2 00000001     J   45911 46101  46356  46496  47222  47456
 $$$D21WYLPROC
               1 00008D5E 00000001     J   48233 48630  49295  50159
 $$$D22WYLPROC
               1 000095A6 00000001     J   50984 51456  53185  53272  53377  53772  53859  53964
 $$$D23WYLPROC
               1 00009DA2 00000001     J   54072 54811  56681
 $$$D24WYLPROC
               1 0000A79C 00000001     J   56769 57122  57431  58250
 $$$D25WYLPROC
               1 0000AFCA 00000001     J   59228 59353  59670  59946  60196  60467  60717  60988  61341
 $$$D26WYLPROC
               1 0000B1B9 00000001     J   62540 62869  62956  63061
 $$$D4WYLPROC
               1 00001B44 00000001     J   12141 12366  12591  12702  13088  13303  13603  13931  14138  14353  14612
                                                 14835  15174  15389  15910  16225
 $$$D5WYLPROC
               1 00001DAF 00000001     J   16350 16568  16705  16963
 $$$D7WYLPROC
1PROC     (PROC2193) (12:51) (15MAR04) Ordinary Symbol and Literal Cross Reference                                          Page  247
               1 00002213 00000001     J   17321 17754  17891  18413
 $$$D8WYLPROC
               1 00002342 00000001     J   18535 18950
 $$$D9WYLPROC
               1 00002712 00000001     J   19053 19245  19382  19993
 $$$RBSINFO
               1 00000000 FFFFFFE2     J    7829  7849   7849
 $$$RCLPSWA
               1 00000000 FFFFFFD6     J   18563 18579  18579
 $$$RCLWA      1 00000000 FFFFFFDB     J   11402 11439  11439
 $$$RCP        1 00000000 FFFFFFEC     J    2684  4944   6418   6418
 $$$RCPBWA
               1 00000000 FFFFFFC3     J   63183 63203  63203
 $$$RCV        1 00000000 FFFFFFEE     J    1409  2594   2594
 $$$RDEV       1 00000000 FFFFFFEB     J    4898  4943   4943
 $$$RDRWA      1 00000000 FFFFFFC9     J   51551 51655  51655
 $$$RDWA       1 00000000 FFFFFFDA     J   12155 12189  12189
 $$$RFNWA      1 00000000 FFFFFFDD     J    9383  9398   9398
 $$$RGTWA      1 00000000 FFFFFFD5     J   20424 20441  20441
 $$$RJCB       1 00000000 FFFFFFE9     J    6536  6810   6810
 $$$RKLOGINWA
               1 00000000 FFFFFFD8     J   16357 16377  16377
 $$$RKRBREC
               1 00000000 FFFFFFE6     J    7075  7095   7095
 $$$RKWA       1 00000000 FFFFFFD9     J   12880 12897  12897
 $$$RKWR       1 00000000 FFFFFFE8     J    6816  7020   7020
 $$$RLFWA      1 00000000 FFFFFFD4     J   24414 24431  24431
 $$$RLTOCWA
               1 00000000 FFFFFFD2     J   25229 25242  25242
 $$$RLTWA      1 00000000 FFFFFFD3     J   24836 24940  24940
 $$$RMBWA      1 00000000 FFFFFFC2     J   63599 63623  63623
 $$$RMINFOWA
               1 00000000 FFFFFFD1     J   25762 25779  25779
 $$$RMKLOGWA
               1 00000000 FFFFFFD7     J   17106 17124  17124
 $$$RMLWA      1 00000000 FFFFFFCF     J   27744 27779  27779
 $$$RMSHDRWA
               1 00000000 FFFFFFD0     J   26606 26714  26714
 $$$RNOPHOSWA
               1 00000000 FFFFFFCD     J   33108 33122  33122
 $$$RNSCNCB
               1 00000000 FFFFFFED     J    2605  2678   2678
 $$$RNWA       1 00000000 FFFFFFCE     J   28538 28691  28691
 $$$RPCOLWA
               1 00000000 FFFFFFDC     J    9735  9844   9844
 $$$RPCSCANWA
               1 00000000 FFFFFFC8     J   52834 52862  52862
 $$$RPCVWA
               1 00000000 FFFFFFC6     J   59731 59746  59746
 $$$RPWA       1 00000000 FFFFFFCC     J   41630 41767  41767
 $$$RPWFXWA
               1 00000000 FFFFFFCB     J   50719 50732  50732
 $$$RQFWA      1 00000000 FFFFFFCA     J   50997 51015  51015
 $$$RRDBWA
               1 00000000 FFFFFFC1     J   64453 64475  64475
 $$$RRFCWA
               1 00000000 FFFFFFC7     J   54105 54218  54218
 $$$RRTNENTRY
               1 00000000 FFFFFFDE     J    8339  8354   8354
1PROC     (PROC2193) (12:51) (15MAR04) Ordinary Symbol and Literal Cross Reference                                          Page  248
 $$$RSEGCB
               1 00000000 FFFFFFE5     J    7101  7201   7201
 $$$RTTYPE
               1 00000000 FFFFFFEA     J    6429  6530   6530
 $$$RUIDREC
               1 00000000 FFFFFFE7     J    7032  7063   7063
 $$$RUNET      1 00000000 FFFFFFE3     J    7362  7818   7818
 $$$RUPATH
               1 00000000 FFFFFFE4     J    7213  7356   7356
 $$$RVNENTRY
               1 00000000 FFFFFFE1     J    7863  8162   8162
 $$$RVPARM
               1 00000000 FFFFFFE0     J    8175  8189   8189
 $$$RWLGWTWA
               1 00000000 FFFFFFC5     J   61076 61180  61180
 $$$RWTOWA
               1 00000000 FFFFFFC4     J   61546 61580  61580
 $$$RXSENTRY
               1 00000000 FFFFFFDF     J    8221  8328   8328
 $$$SEGCB0
               4 00000050 FFFFFFEC     F    2715  2801   2801
 $$$SEGCB103
               4 0000055C FFFFFFDC     F    9751  9837   9837
 $$$SEGCB1034
               4 000000AC FFFFFFCC     F   41673 41759  41759
 $$$SEGCB1318
               4 000000F4 FFFFFFC9     F   51561 51647  51647
 $$$SEGCB1635
               4 00000004 FFFFFFC5     F   61085 61171  61171
 $$$SEGCB50
               4 0000010C FFFFFFE3     F    7500  7586   7586
 $$$SEGCB547
               4 00000010 FFFFFFD3     F   24847 24933  24933
 $$$SEGCB597
               4 00000108 FFFFFFD0     F   26620 26706  26706
 $$$SEGCB648
               4 000000C0 FFFFFFCE     F   28596 28682  28682
 $$$V01       23 0000B68B 00000001     C   64842 41371  41414
 $$$V02       17 0000B6A2 00000001     C   64843 41909
 $$$V03       24 0000B6B3 00000001     C   64844 50824
 $$$Z22        4 000094C4 00000001     F   54036 53058  53086  53645  53673
 $$$Z26        4 0000B190 00000001     F   63132 62742  62770
 $$$Z27        4 0000B634 00000001     F   64819 64612
 $$$Z3         4 00000EFC 00000001     F   12117 11896  11911
 $$$100B       1 00000662 00000001     X    9449  9456U
 $$$1002F      2 00006826 00000001     H   40455 40442B
 $$$1003F      2 00006870 00000001     H   40561 40548B
 $$$1003T      2 00006868 00000001     H   40551 40537B
 $$$1005F      2 000068AA 00000001     H   40697 40587B
 $$$1006F      2 000068A8 00000001     H   40675 40648B
 $$$1007       6 00006C74 00000001     I   40665 40657X
 $$$1008       6 00006C74 00000001     I   40664 40665  40665
 $$$1009F      2 000068D0 00000001     H   40787 40714B
 $$$101F       2 000006EC 00000001     H    9683  9480B
 $$$1010       1 00000240 00000001 A   U   40827 40824  40826
 $$$1012B      1 000069D2 00000001     X   40941 40948U
 $$$1013       1 00000050 00000001 A   U   40980 40977  40979
 $$$1014F      2 00006A10 00000001     H   41062 41040B
 $$$1015B      1 000069FE 00000001     X   41007 41014U
1PROC     (PROC2193) (12:51) (15MAR04) Ordinary Symbol and Literal Cross Reference                                          Page  249
 $$$1017       1 00000050 00000001 A   U   41071 41068  41070
 $$$1019B      1 00006A38 00000001     X   41098 41105U
 $$$102        1 00000050 00000001 A   U    9701  9698   9700
 $$$1020       1 00000050 00000001 A   U   41141 41138  41140
 $$$1022B      1 00006A6A 00000001     X   41168 41175U
 $$$1023       1 00000050 00000001 A   U   41207 41204  41206
 $$$1025B      1 00006A96 00000001     X   41234 41241U
 $$$1026       1 00000050 00000001 A   U   41268 41265  41267
 $$$1028B      1 00006AC2 00000001     X   41317 41324U
 $$$1029F      2 00006AE8 00000001     H   41375 41360B
 $$$1030F      2 00006B0E 00000001     H   41418 41403B
 $$$1031F      2 00006B4A 00000001     H   41518 41459B
 $$$1032F      2 00006B40 00000001     H   41491 41478B
 $$$1033       1 00000050 00000001 A   U   41566 41563  41565
 $$$1043B      1 00006C94 00000001     X   41802 41809U
 $$$1044F      2 00006D02 00000001     H   41913 41898B
 $$$1045F      2 00006D96 00000001     H   42019 41930B
 $$$1047F      2 00006DAC 00000001     H   42047 42034B
 $$$1048F      2 00006DE6 00000001     H   42183 42073B
 $$$1049F      2 00006DE4 00000001     H   42161 42134B
 $$$1050       6 00007BFA 00000001     I   42151 42143X
 $$$1051       6 00007BFA 00000001     I   42150 42151  42151
 $$$1052       1 00000138 00000001 A   U   42223 42220  42222
 $$$1054B      1 00006E46 00000001     X   42277 42284U
 $$$1055       1 00000050 00000001 A   U   42311 42308  42310
 $$$1057B      1 00006E72 00000001     X   42360 42367U
 $$$1064F      2 00006FDA 00000001     H   42749 42677B
 $$$1065F      2 00007026 00000001     H   42892 42778B
 $$$1066F      2 00007024 00000001     H   42870 42843B
 $$$1067       6 00007C00 00000001     I   42860 42852X
 $$$1068       6 00007C00 00000001     I   42859 42860  42860
 $$$1069F      2 0000705C 00000001     H   43035 42913B
 $$$1070F      2 0000705A 00000001     H   43013 42986B
 $$$1071       6 00007C06 00000001     I   43003 42995X
 $$$1072       6 00007C06 00000001     I   43002 43003  43003
 $$$1073       1 00000138 00000001 A   U   43075 43072  43074
 $$$1075B      1 000072EE 00000001     X   43340 43347U
 $$$1076       1 00000050 00000001 A   U   43381 43378  43380
 $$$1078B      1 00007322 00000001     X   43408 43415U
 $$$1079F      2 00007336 00000001     H   43462 43449B
 $$$1080       1 00000050 00000001 A   U   43495 43492  43494
 $$$1082B      1 00007374 00000001     X   43522 43529U
 $$$1083F      2 00007388 00000001     H   43576 43563B
 $$$1084       1 00000050 00000001 A   U   43609 43606  43608
 $$$1086B      1 000073C6 00000001     X   43636 43643U
 $$$1087F      2 000073DA 00000001     H   43690 43677B
 $$$1088       1 00000050 00000001 A   U   43723 43720  43722
 $$$1090B      1 00007418 00000001     X   43750 43757U
 $$$1091F      2 0000742C 00000001     H   43804 43791B
 $$$1092       1 00000050 00000001 A   U   43837 43834  43836
 $$$1094B      1 0000746A 00000001     X   43864 43871U
 $$$1095       1 00000050 00000001 A   U   43913 43910  43912
 $$$1097B      1 000074AC 00000001     X   43940 43947U
 $$$1098       1 00000050 00000001 A   U   43989 43986  43988
 $$$1100B      1 000074EE 00000001     X   44016 44023U
 $$$1101       1 00000050 00000001 A   U   44055 44052  44054
 $$$1103B      1 0000751A 00000001     X   44082 44089U
 $$$1104       1 00000050 00000001 A   U   44122 44119  44121
 $$$1106B      1 00007546 00000001     X   44149 44156U
1PROC     (PROC2193) (12:51) (15MAR04) Ordinary Symbol and Literal Cross Reference                                          Page  250
 $$$1107       1 00000050 00000001 A   U   44188 44185  44187
 $$$1108F      2 00007584 00000001     H   44270 44248B
 $$$1109B      1 00007572 00000001     X   44215 44222U
 $$$1111       1 00000050 00000001 A   U   44279 44276  44278
 $$$1113B      1 000075AC 00000001     X   44306 44313U
 $$$1114       1 00000050 00000001 A   U   44348 44345  44347
 $$$1116B      1 000075E0 00000001     X   44397 44404U
 $$$1118F      2 000076C4 00000001     H   44594 44581B
 $$$1119F      2 000076D2 00000001     H   44622 44612B
 $$$112B       1 00000714 00000001     X    9873  9880U
 $$$1120F      2 000076E6 00000001     H   44644 44634B
 $$$1121F      2 00007720 00000001     H   44779 44669B
 $$$1122F      2 0000771E 00000001     H   44757 44730B
 $$$1123       6 00007C0C 00000001     I   44747 44739X
 $$$1124       6 00007C0C 00000001     I   44746 44747  44747
 $$$1125F      2 00007734 00000001     H   44807 44794B
 $$$1126       1 00000138 00000001 A   U   44913 44910  44912
 $$$1128B      1 00007942 00000001     X   45118 45125U
 $$$1129       1 00000050 00000001 A   U   45162 45159  45161
 $$$113F       2 00000A60 00000001     H   10953  9913B
 $$$1131B      1 0000797C 00000001     X   45189 45196U
 $$$1133       1 00000050 00000001 A   U   45240 45237  45239
 $$$1135B      1 000079BA 00000001     X   45267 45274U
 $$$1136       1 00000050 00000001 A   U   45305 45302  45304
 $$$1138B      1 000079F0 00000001     X   45332 45339U
 $$$1139       1 00000050 00000001 A   U   45366 45363  45365
 $$$114F       2 0000088C 00000001     H   10202 10103B
 $$$114S       2 00000844 00000001     H   10096 10201B
 $$$1141B      1 00007A1C 00000001     X   45393 45400U
 $$$1142       1 00000050 00000001 A   U   45432 45429  45431
 $$$1143F      2 00007A5A 00000001     H   45514 45492B
 $$$1144B      1 00007A48 00000001     X   45459 45466U
 $$$1146       1 00000050 00000001 A   U   45523 45520  45522
 $$$1148B      1 00007A82 00000001     X   45550 45557U
 $$$1149       1 00000050 00000001 A   U   45589 45586  45588
 $$$1151B      1 00007AAE 00000001     X   45616 45623U
 $$$1152       1 00000050 00000001 A   U   45656 45653  45655
 $$$1154B      1 00007ADA 00000001     X   45683 45690U
 $$$1155       1 00000050 00000001 A   U   45722 45719  45721
 $$$1157B      1 00007B06 00000001     X   45749 45756U
 $$$1158       1 00000050 00000001 A   U   45789 45786  45788
 $$$116F       2 0000086E 00000001     H   10154 10123B 10135B
 $$$116S       2 0000084A 00000001     H   10113 10153B
 $$$1160B      1 00007B32 00000001     X   45816 45823U
 $$$1161       1 00000050 00000001 A   U   45850 45847  45849
 $$$1163B      1 00007C2C 00000001     X   45947 45954U
 $$$1164F      2 00007C96 00000001     H   46139 46029B
 $$$1165F      2 00007C94 00000001     H   46117 46090B
 $$$1166       6 000083D2 00000001     I   46107 46099X
 $$$1167       6 000083D2 00000001     I   46106 46107  46107
 $$$1169F      2 00007D4A 00000001     H   46269 46260B
 $$$1170F      2 00007D74 00000001     H   46394 46284B
 $$$1171F      2 00007D72 00000001     H   46372 46345B
 $$$1172       6 000083D8 00000001     I   46362 46354X
 $$$1173       6 000083D8 00000001     I   46361 46362  46362
 $$$1174F      2 00007DB6 00000001     H   46534 46424B
 $$$1175F      2 00007DB4 00000001     H   46512 46485B
 $$$1176       6 000083DE 00000001     I   46502 46494X
 $$$1177       6 000083DE 00000001     I   46501 46502  46502
1PROC     (PROC2193) (12:51) (15MAR04) Ordinary Symbol and Literal Cross Reference                                          Page  251
 $$$1178       1 00000138 00000001 A   U   46574 46571  46573
 $$$1180B      1 00007E66 00000001     X   46658 46665U
 $$$1181       1 00000050 00000001 A   U   46697 46694  46696
 $$$1182F      2 00007EA4 00000001     H   46779 46757B
 $$$1183B      1 00007E92 00000001     X   46724 46731U
 $$$1185       1 00000050 00000001 A   U   46788 46785  46787
 $$$1187B      1 00007ECC 00000001     X   46815 46822U
 $$$1188       1 00000050 00000001 A   U   46849 46846  46848
 $$$119F       2 00000888 00000001     H   10197 10170B 10182B
 $$$119S       2 0000086E 00000001     H   10160 10196B
 $$$1190B      1 00007EF8 00000001     X   46898 46905U
 $$$1191F      2 00007F70 00000001     H   47035 47012B
 $$$1193F      2 00008004 00000001     H   47142 47133B
 $$$1194F      2 0000803E 00000001     H   47262 47158B 47176B
 $$$1197F      2 0000802E 00000001     H   47238 47214B
 $$$1198       6 000083E4 00000001     I   47228 47220X
 $$$1199       6 000083E4 00000001     I   47227 47228  47228
 $$$1200F      2 0000803E 00000001     H   47258 47245B
 $$$1201F      2 00008056 00000001     H   47292 47279B
 $$$1202F      2 0000808E 00000001     H   47355 47318B
 $$$1203F      2 0000808E 00000001     H   47351 47337B
 $$$1204F      2 000080D4 00000001     H   47494 47384B
 $$$1205F      2 000080D2 00000001     H   47472 47445B
 $$$1206       6 000083EA 00000001     I   47462 47454X
 $$$1207       6 000083EA 00000001     I   47461 47462  47462
 $$$1208F      2 000080FA 00000001     H   47584 47511B
 $$$1209       1 00000138 00000001 A   U   47624 47621  47623
 $$$1211B      1 00008222 00000001     X   47754 47761U
 $$$1212       1 00000050 00000001 A   U   47793 47790  47792
 $$$1213F      2 00008260 00000001     H   47875 47853B
 $$$1214B      1 0000824E 00000001     X   47820 47827U
 $$$1216       1 00000050 00000001 A   U   47884 47881  47883
 $$$1218B      1 00008288 00000001     X   47911 47918U
 $$$1219       1 00000050 00000001 A   U   47945 47942  47944
 $$$122F       2 000008B6 00000001     H   10284 10257B
 $$$1221B      1 000082B4 00000001     X   47972 47979U
 $$$1222       1 00000050 00000001 A   U   48006 48003  48005
 $$$1224B      1 000082E0 00000001     X   48033 48040U
 $$$1225F      2 00008302 00000001     H   48096 48087B
 $$$1226       1 00000050 00000001 A   U   48119 48116  48118
 $$$1228B      1 00008330 00000001     X   48146 48153U
 $$$1229       1 00000050 00000001 A   U   48180 48177  48179
 $$$123        6 00000C26 00000001     I   10274 10266X
 $$$1231B      1 0000840A 00000001     X   48269 48276U
 $$$1234F      2 0000850C 00000001     H   48482 48469B
 $$$1235F      2 0000851C 00000001     H   48507 48494B
 $$$1237F      2 0000852E 00000001     H   48532 48519B
 $$$1238F      2 00008568 00000001     H   48668 48558B
 $$$1239F      2 00008566 00000001     H   48646 48619B
 $$$124        6 00000C26 00000001     I   10273 10274  10274
 $$$1240       6 00008D5E 00000001     I   48636 48628X
 $$$1241       6 00008D5E 00000001     I   48635 48636  48636
 $$$1242       1 00000138 00000001 A   U   48708 48705  48707
 $$$1244B      1 000085CA 00000001     X   48762 48769U
 $$$1245       1 00000050 00000001 A   U   48796 48793  48795
 $$$1247B      1 000085F6 00000001     X   48845 48852U
 $$$125F       2 00000948 00000001     H   10526 10309B
 $$$1250F      2 00008730 00000001     H   49146 49082B
 $$$1251F      2 00008754 00000001     H   49198 49185B
1PROC     (PROC2193) (12:51) (15MAR04) Ordinary Symbol and Literal Cross Reference                                          Page  252
 $$$1252F      2 0000878E 00000001     H   49333 49223B
 $$$1253F      2 0000878C 00000001     H   49311 49284B
 $$$1254       6 00008D64 00000001     I   49301 49293X
 $$$1255       6 00008D64 00000001     I   49300 49301  49301
 $$$1256       1 00000138 00000001 A   U   49373 49370  49372
 $$$1258B      1 0000883E 00000001     X   49457 49464U
 $$$1259       1 00000050 00000001 A   U   49496 49493  49495
 $$$126F       2 0000091C 00000001     H   10431 10332B
 $$$126S       2 000008D4 00000001     H   10325 10430B
 $$$1260F      2 0000887C 00000001     H   49578 49556B
 $$$1261B      1 0000886A 00000001     X   49523 49530U
 $$$1263       1 00000050 00000001 A   U   49587 49584  49586
 $$$1265B      1 000088A4 00000001     X   49614 49621U
 $$$1266       1 00000050 00000001 A   U   49648 49645  49647
 $$$1268B      1 000088D0 00000001     X   49697 49704U
 $$$1269F      2 0000893A 00000001     H   49826 49803B
 $$$1273F      2 000089D0 00000001     H   49944 49931B
 $$$1274F      2 00008A2C 00000001     H   50062 50049B
 $$$1275F      2 00008A66 00000001     H   50197 50087B
 $$$1276F      2 00008A64 00000001     H   50175 50148B
 $$$1277       6 00008D6A 00000001     I   50165 50157X
 $$$1278       6 00008D6A 00000001     I   50164 50165  50165
 $$$1279F      2 00008A8C 00000001     H   50287 50214B
 $$$128F       2 000008F4 00000001     H   10379 10352B 10364B
 $$$128S       2 000008DA 00000001     H   10342 10378B
 $$$1280       1 00000138 00000001 A   U   50327 50324  50326
 $$$1282B      1 00008B66 00000001     X   50426 50433U
 $$$1283       1 00000050 00000001 A   U   50465 50462  50464
 $$$1284F      2 00008BA4 00000001     H   50547 50525B
 $$$1285B      1 00008B92 00000001     X   50492 50499U
 $$$1287       1 00000050 00000001 A   U   50556 50553  50555
 $$$1289B      1 00008BCC 00000001     X   50583 50590U
 $$$1290       1 00000050 00000001 A   U   50630 50627  50629
 $$$1292B      1 00008C00 00000001     X   50657 50664U
 $$$1293       1 00000050 00000001 A   U   50691 50688  50690
 $$$1295B      1 00008C2C 00000001     X   50761 50768U
 $$$1296F      2 00008C52 00000001     H   50828 50813B
 $$$1297       1 00000054 00000001 A   U   50932 50929  50931
 $$$1299B      1 00008D8A 00000001     X   51044 51051U
 $$$1300F      2 00008E18 00000001     H   51216 51120B
 $$$1300S      2 00008DC4 00000001     H   51114 51215B
 $$$1302F      2 00008DE0 00000001     H   51155 51138B
 $$$1303F      2 00008DFA 00000001     H   51198 51171B 51185B
 $$$1303S      2 00008DE2 00000001     H   51163 51197B
 $$$1306F      2 00008E28 00000001     H   51247 51237B
 $$$1306S      2 00008E18 00000001     H   51225 51246B
 $$$1308       1 00000068 00000001 A   U   51282 51279  51281
 $$$131F       2 00000918 00000001     H   10426 10395B 10407B
 $$$131S       2 000008F4 00000001     H   10385 10425B
 $$$1310B      1 00008E52 00000001     X   51322 51329U
 $$$1311F      2 00008E62 00000001     H   51371 51362B
 $$$1312B      4 00008E6A 00000001     I   51388 51499
 $$$1312F      2 00008EA2 00000001     H   51493 51388B 51498
 $$$1313F      2 00008E94 00000001     H   51472 51448B
 $$$1314       6 000095A6 00000001     I   51462 51454X
 $$$1315       6 000095A6 00000001     I   51461 51462  51462
 $$$1316E      2 00008EA6 00000001     H   51506 51500
 $$$1316F      2 00008EAA 00000001     H   51512 51502B
 $$$1317       1 00000050 00000001 A   U   51536 51533  51535
1PROC     (PROC2193) (12:51) (15MAR04) Ordinary Symbol and Literal Cross Reference                                          Page  253
 $$$1327B      1 00008ED2 00000001     X   51684 51691U
 $$$1328F      2 000090AC 00000001     H   52395 51830B 51862B 51883B
 $$$1328S      2 00008F28 00000001     H   51821 52394B
 $$$1332B      4 00008F50 00000001     I   51899 52051
 $$$1332F      2 00008FB6 00000001     H   52047 51899B 52050
 $$$1333F      2 00008F80 00000001     H   51989 51942B 51957B
 $$$1335E      2 00008FBA 00000001     H   52058 52052
 $$$1335F      2 000090A0 00000001     H   52387 52054B
 $$$1336B      4 00008FC4 00000001     I   52075 52112
 $$$1336F      2 00008FD2 00000001     H   52108 52075B 52111
 $$$1337B      4 00008FDA 00000001     I   52129 52164
 $$$1337E      2 00008FD6 00000001     H   52119 52113
 $$$1337F      2 00008FE8 00000001     H   52161 52115B 52129B 52163
 $$$1339E      2 00008FEC 00000001     H   52171 52165
 $$$1339F      2 000090A0 00000001     H   52383 52167B
 $$$134F       2 00000946 00000001     H   10513 10486B
 $$$1340       1 00000180 00000001 A   U   52424 52421  52423
 $$$1342B      1 000090D6 00000001     X   52461 52468U
 $$$1343F      2 0000918E 00000001     H   52798 52504B
 $$$1344F      2 00009164 00000001     H   52707 52539B
 $$$1344T      2 000090F0 00000001     H   52542 52528B
 $$$1346F      2 00009164 00000001     H   52703 52558B
 $$$1346S      2 000090F4 00000001     H   52552 52702B
 $$$1348B      4 00009108 00000001     I   52590 52668
 $$$1348F      2 0000914A 00000001     H   52661 52577B 52590B 52665
 $$$1349B      4 000090FE 00000001     I   52577 52666
 $$$135        6 00000C2C 00000001     I   10503 10495X
 $$$1350E      2 0000914E 00000001     H   52675 52667  52669
 $$$1350F      2 0000915A 00000001     H   52694 52671B 52685B
 $$$1352F      2 0000918E 00000001     H   52794 52747B 52762B
 $$$1354       1 00000050 00000001 A   U   52822 52819  52821
 $$$1356B      1 000091B6 00000001     X   52891 52898U
 $$$1357F      2 00009322 00000001     H   53415 52963B
 $$$1358F      2 00009214 00000001     H   53009 52996B
 $$$1359F      2 00009230 00000001     H   53035 53022B
 $$$136        6 00000C2C 00000001     I   10502 10503  10503
 $$$1360F      2 0000924A 00000001     H   53073 53059B
 $$$1361F      2 00009264 00000001     H   53101 53087B
 $$$1362F      2 000092C4 00000001     H   53201 53174B
 $$$1363       6 000095AC 00000001     I   53191 53183X
 $$$1364       6 000095AC 00000001     I   53190 53191  53191
 $$$1365F      2 000092EC 00000001     H   53288 53261B
 $$$1366       6 000095B2 00000001     I   53278 53270X
 $$$1367       6 000095B2 00000001     I   53277 53278  53278
 $$$1368F      2 00009320 00000001     H   53406 53311B
 $$$1369F      2 0000931E 00000001     H   53393 53366B
 $$$137F       2 00000A1E 00000001     H   10869 10546B
 $$$1370       6 000095B8 00000001     I   53383 53375X
 $$$1371       6 000095B8 00000001     I   53382 53383  53383
 $$$1372       1 000000B0 00000001 A   U   53439 53436  53438
 $$$1374B      1 0000934A 00000001     X   53478 53485U
 $$$1375F      2 000094B6 00000001     H   54002 53550B
 $$$1376F      2 000093A8 00000001     H   53596 53583B
 $$$1377F      2 000093C4 00000001     H   53622 53609B
 $$$1378F      2 000093DE 00000001     H   53660 53646B
 $$$1379F      2 000093F8 00000001     H   53688 53674B
 $$$138F       2 000009FA 00000001     H   10778 10568B
 $$$1380F      2 00009458 00000001     H   53788 53761B
 $$$1381       6 000095BE 00000001     I   53778 53770X
1PROC     (PROC2193) (12:51) (15MAR04) Ordinary Symbol and Literal Cross Reference                                          Page  254
 $$$1382       6 000095BE 00000001     I   53777 53778  53778
 $$$1383F      2 00009480 00000001     H   53875 53848B
 $$$1384       6 000095C4 00000001     I   53865 53857X
 $$$1385       6 000095C4 00000001     I   53864 53865  53865
 $$$1386F      2 000094B4 00000001     H   53993 53898B
 $$$1387F      2 000094B2 00000001     H   53980 53953B
 $$$1388       6 000095CA 00000001     I   53970 53962X
 $$$1389       6 000095CA 00000001     I   53969 53970  53970
 $$$139F       2 00000A1C 00000001     H   10856 10829B
 $$$1390       1 000000B0 00000001 A   U   54026 54023  54025
 $$$1391F      2 00009770 00000001     H   54850 54288B 54321B
 $$$1392B      1 000095EA 00000001     X   54247 54254U
 $$$1394F      2 00009624 00000001     H   54325 54313B
 $$$1395F      2 0000963C 00000001     H   54356 54343B
 $$$1396F      2 00009714 00000001     H   54671 54661B
 $$$1396S      2 0000963C 00000001     H   54365 54670B
 $$$1397F      2 00009662 00000001     H   54419 54406B
 $$$1397T      2 00009658 00000001     H   54409 54394B
 $$$1399F      2 00009684 00000001     H   54446 54436B
 $$$140        6 00000C32 00000001     I   10846 10838X
 $$$1400B      4 000096A8 00000001     I   54499 54521
 $$$1400F      2 000096B6 00000001     H   54517 54499B 54520
 $$$1400T      2 000096AC 00000001     H   54502 54462B 54475B 54488B
 $$$1404B      4 000096D4 00000001     I   54566 54588
 $$$1404E      2 000096BA 00000001     H   54528 54522
 $$$1404F      2 000096E2 00000001     H   54584 54524B 54566B 54587
 $$$1404T      2 000096D8 00000001     H   54569 54542B 54555B
 $$$1408E      2 000096E6 00000001     H   54595 54589
 $$$1408F      2 000096F6 00000001     H   54617 54591B 54605B
 $$$141        6 00000C32 00000001     I   10845 10846  10846
 $$$1410F      2 00009708 00000001     H   54648 54635B
 $$$1410S      2 000096F6 00000001     H   54628 54647B
 $$$1413F      2 00009750 00000001     H   54751 54738B
 $$$1414F      2 0000976E 00000001     H   54827 54800B
 $$$1415       6 00009DA2 00000001     I   54817 54809X
 $$$1416       6 00009DA2 00000001     I   54816 54817  54817
 $$$1417       1 00000570 00000001 A   U   54859 54856  54858
 $$$1418F      2 000097CA 00000001     H   55000 54944B
 $$$1419B      1 00009798 00000001     X   54901 54908U
 $$$142F       2 00000A5E 00000001     H   10943 10884B
 $$$1420F      2 000097B2 00000001     H   54948 54933B
 $$$1421F      2 000097CA 00000001     H   54991 54977B
 $$$1421S      2 000097B2 00000001     H   54954 54990B
 $$$1423       1 00000050 00000001 A   U   55009 55006  55008
 $$$1424F      2 00009A7C 00000001     H   55914 55501B 55562B 55697B 55715B
 $$$1425B      1 000097F2 00000001     X   55048 55055U
 $$$1426F      2 00009820 00000001     H   55115 55102B
 $$$1427F      2 0000993A 00000001     H   55509 55141B
 $$$1428F      2 0000983C 00000001     H   55172 55159B
 $$$1429F      2 00009920 00000001     H   55468 55197B
 $$$1429S      2 00009840 00000001     H   55188 55467B
 $$$143F       2 00000A5E 00000001     H   10939 10910B
 $$$1431B      4 0000986C 00000001     I   55239 55262
 $$$1431F      2 00009884 00000001     H   55257 55225B 55239B 55259
 $$$1432B      4 00009864 00000001     I   55225 55260
 $$$1433E      2 00009888 00000001     H   55269 55261  55263
 $$$1433F      2 0000988E 00000001     H   55278 55265B
 $$$1434F      2 000098E8 00000001     H   55423 55322B
 $$$1434T      2 000098A6 00000001     H   55325 55296B 55310B
1PROC     (PROC2193) (12:51) (15MAR04) Ordinary Symbol and Literal Cross Reference                                          Page  255
 $$$1437B      4 000098B2 00000001     I   55355 55388
 $$$1437F      2 000098D2 00000001     H   55382 55341B 55355B 55385
 $$$1438B      4 000098AA 00000001     I   55341 55386
 $$$1439E      2 000098D6 00000001     H   55395 55387  55389
 $$$1439F      2 000098E4 00000001     H   55418 55391B 55406B
 $$$1441F      2 00009904 00000001     H   55451 55436B
 $$$1442F      2 0000993A 00000001     H   55505 55490B
 $$$1443F      2 0000997C 00000001     H   55596 55525B
 $$$1444F      2 00009960 00000001     H   55566 55550B
 $$$1445F      2 00009976 00000001     H   55588 55578B
 $$$1446F      2 000099AA 00000001     H   55684 55629B 55643B 55671B
 $$$1446T      2 000099A4 00000001     H   55674 55661B
 $$$1447T      2 0000998C 00000001     H   55634 55619B
 $$$145F       2 00000A5E 00000001     H   10935 10925B
 $$$1453F      2 000099D0 00000001     H   55746 55736B
 $$$1454F      2 00009A10 00000001     H   55786 55769B
 $$$1455F      2 00009A7C 00000001     H   55904 55800B
 $$$1456       1 00000050 00000001 A   U   55923 55920  55922
 $$$1457F      2 00009B2E 00000001     H   56154 56029B 56094B 56128B
 $$$1458B      1 00009AA4 00000001     X   55955 55962U
 $$$1459F      2 00009B28 00000001     H   56140 55986B
 $$$146        1 000005E8 00000001 A   U   10978 10975  10977
 $$$1460F      2 00009B0E 00000001     H   56103 56060B
 $$$1460S      2 00009AB8 00000001     H   55995 56102B
 $$$1461F      2 00009AD8 00000001     H   56033 56017B
 $$$1463F      2 00009B0A 00000001     H   56098 56082B
 $$$1464F      2 00009B22 00000001     H   56132 56116B
 $$$1465       1 00000050 00000001 A   U   56163 56160  56162
 $$$1466F      2 00009BF4 00000001     H   56385 56236B 56335B
 $$$1467B      1 00009B56 00000001     X   56197 56204U
 $$$1468F      2 00009B6A 00000001     H   56240 56225B
 $$$1469F      2 00009BF4 00000001     H   56376 56292B
 $$$1469S      2 00009B70 00000001     H   56251 56375B
 $$$1470F      2 00009BA4 00000001     H   56295 56276B
 $$$1472F      2 00009BD0 00000001     H   56339 56323B
 $$$1473F      2 00009BF0 00000001     H   56371 56361B
 $$$1474       1 00000050 00000001 A   U   56394 56391  56393
 $$$1475F      2 00009C72 00000001     H   56586 56477B
 $$$1476B      1 00009C1C 00000001     X   56426 56433U
 $$$1477F      2 00009C36 00000001     H   56481 56466B
 $$$1477T      2 00009C2C 00000001     H   56469 56456B
 $$$1479F      2 00009C68 00000001     H   56565 56508B 56529B
 $$$1479S      2 00009C40 00000001     H   56499 56564B
 $$$148B       1 00000B02 00000001     X   11065 11072U
 $$$1482F      2 00009C64 00000001     H   56560 56547B
 $$$1483       1 00000050 00000001 A   U   56595 56592  56594
 $$$1484F      2 00009CD0 00000001     H   56708 56667B
 $$$1485B      1 00009C9A 00000001     X   56630 56637U
 $$$1487       6 00009DA8 00000001     I   56687 56679X
 $$$1488       6 00009DA8 00000001     I   56686 56687  56687
 $$$1489       1 00000050 00000001 A   U   56717 56714  56716
 $$$149F       2 00000B22 00000001     H   11111 11098B
 $$$149S       2 00000B10 00000001     H   11091 11110B
 $$$1490F      2 00009F2A 00000001     H   57284 56866B 57195B 57261B
 $$$1491B      1 00009DC8 00000001     X   56810 56817U
 $$$1492F      2 00009DEC 00000001     H   56870 56858B
 $$$1493F      2 00009E3A 00000001     H   56961 56928B
 $$$1493S      2 00009E06 00000001     H   56890 56960B
 $$$1494F      2 00009E1C 00000001     H   56913 56904B
1PROC     (PROC2193) (12:51) (15MAR04) Ordinary Symbol and Literal Cross Reference                                          Page  256
 $$$1497F      2 00009E5C 00000001     H   57005 56979B 56993B
 $$$1499F      2 00009EA6 00000001     H   57083 57029B
 $$$1500F      2 00009F0A 00000001     H   57255 57153B
 $$$1500S      2 00009EAA 00000001     H   57094 57254B
 $$$1501F      2 00009EBE 00000001     H   57138 57114B
 $$$1502       6 0000A79C 00000001     I   57128 57120X
 $$$1503       6 0000A79C 00000001     I   57127 57128  57128
 $$$1505B      4 00009EC8 00000001     I   57168 57207
 $$$1505F      2 00009EE6 00000001     H   57204 57168B 57206
 $$$1506F      2 00009EE2 00000001     H   57199 57187B
 $$$1507E      2 00009EEA 00000001     H   57214 57208
 $$$1507F      2 00009F06 00000001     H   57250 57210B
 $$$1509       1 00000050 00000001 A   U   57293 57290  57292
 $$$151        1 00000050 00000001 A   U   11129 11126  11128
 $$$1510F      2 0000A020 00000001     H   57686 57494B
 $$$1511B      1 00009F52 00000001     X   57329 57336U
 $$$1512B      4 00009F60 00000001     I   57364 57376
 $$$1512F      2 00009F68 00000001     H   57373 57364B 57375
 $$$1513E      2 00009F6C 00000001     H   57383 57377
 $$$1513F      2 00009F78 00000001     H   57391 57379B
 $$$1514F      2 0000A010 00000001     H   57666 57533B 57649B
 $$$1514S      2 00009F7E 00000001     H   57403 57665B
 $$$1515F      2 00009F92 00000001     H   57447 57423B
 $$$1516       6 0000A7A2 00000001     I   57437 57429X
 $$$1517       6 0000A7A2 00000001     I   57436 57437  57437
 $$$1518B      4 00009F94 00000001     I   57458 57508
 $$$1518F      2 00009FC0 00000001     H   57503 57458B 57507
 $$$1519F      2 00009FBC 00000001     H   57498 57483B
 $$$1520B      4 00009FC8 00000001     I   57525 57542
 $$$1520E      2 00009FC4 00000001     H   57515 57509
 $$$1520F      2 00009FD0 00000001     H   57537 57511B 57525B 57541
 $$$1522B      4 00009FD8 00000001     I   57559 57575
 $$$1522E      2 00009FD4 00000001     H   57549 57543
 $$$1522F      2 00009FE0 00000001     H   57570 57545B 57559B 57574
 $$$1524B      4 00009FE8 00000001     I   57592 57608
 $$$1524E      2 00009FE4 00000001     H   57582 57576
 $$$1524F      2 00009FF0 00000001     H   57603 57578B 57592B 57607
 $$$1526E      2 00009FF4 00000001     H   57615 57609
 $$$1526F      2 0000A008 00000001     H   57657 57611B 57625B
 $$$1528F      2 0000A008 00000001     H   57653 57641B
 $$$1529       1 00000050 00000001 A   U   57695 57692  57694
 $$$153B       1 00000B4A 00000001     X   11156 11163U
 $$$1531B      1 0000A048 00000001     X   57728 57735U
 $$$1532       1 00000050 00000001 A   U   57771 57768  57770
 $$$1534B      1 0000A288 00000001     X   57845 57852U
 $$$1535F      2 0000A2C0 00000001     H   57924 57900B
 $$$1535T      2 0000A2B6 00000001     H   57903 57891B
 $$$1537F      2 0000A2CC 00000001     H   57944 57935B
 $$$1538F      2 0000A2F2 00000001     H   57994 57966B 57980B
 $$$154F       2 00000B6A 00000001     H   11202 11189B
 $$$154S       2 00000B58 00000001     H   11182 11201B
 $$$1540F      2 0000A316 00000001     H   58057 58008B 58021B
 $$$1542       1 00000050 00000001 A   U   58075 58072  58074
 $$$1544B      1 0000A33E 00000001     X   58105 58112U
 $$$1545       1 00000050 00000001 A   U   58145 58142  58144
 $$$1546F      2 0000A3AC 00000001     H   58275 58222B
 $$$1547B      1 0000A378 00000001     X   58179 58186U
 $$$1548F      2 0000A396 00000001     H   58226 58211B
 $$$1549F      2 0000A3AC 00000001     H   58266 58242B
1PROC     (PROC2193) (12:51) (15MAR04) Ordinary Symbol and Literal Cross Reference                                          Page  257
 $$$1550       6 0000A7A8 00000001     I   58256 58248X
 $$$1551       6 0000A7A8 00000001     I   58255 58256  58256
 $$$1552       1 00000050 00000001 A   U   58284 58281  58283
 $$$1553F      2 0000A3E4 00000001     H   58366 58345B
 $$$1554B      1 0000A3D4 00000001     X   58317 58324U
 $$$1556       1 00000050 00000001 A   U   58375 58372  58374
 $$$1557F      2 0000A4A8 00000001     H   58668 58434B
 $$$1558B      1 0000A40C 00000001     X   58406 58413U
 $$$156        1 00000050 00000001 A   U   11220 11217  11219
 $$$1560B      4 0000A422 00000001     I   58463 58492
 $$$1560F      2 0000A438 00000001     H   58489 58463B 58491
 $$$1561E      2 0000A43C 00000001     H   58499 58493
 $$$1561F      2 0000A4A8 00000001     H   58659 58495B
 $$$1562F      2 0000A49C 00000001     H   58630 58576B
 $$$1563       1 00000050 00000001 A   U   58677 58674  58676
 $$$1564F      2 0000A550 00000001     H   58833 58738B
 $$$1565B      1 0000A4D0 00000001     X   58711 58718U
 $$$1567F      2 0000A550 00000001     H   58824 58811B
 $$$1568       1 00000050 00000001 A   U   58842 58839  58841
 $$$1570B      1 0000A61A 00000001     X   58930 58937U
 $$$1571       1 00000050 00000001 A   U   58969 58966  58968
 $$$1573B      1 0000A646 00000001     X   58996 59003U
 $$$1574       1 00000050 00000001 A   U   59035 59032  59034
 $$$1576B      1 0000A672 00000001     X   59062 59069U
 $$$1577       1 00000050 00000001 A   U   59101 59098  59100
 $$$1579B      1 0000A69E 00000001     X   59128 59135U
 $$$158B       1 00000B92 00000001     X   11262 11269U
 $$$1580       1 00000050 00000001 A   U   59180 59177  59179
 $$$1582B      1 0000A7C8 00000001     X   59266 59273U
 $$$1583F      2 0000A830 00000001     H   59470 59295B
 $$$1584F      2 0000A7FC 00000001     H   59369 59342B
 $$$1585       6 0000AFCA 00000001     I   59359 59351X
 $$$1586       6 0000AFCA 00000001     I   59358 59359  59359
 $$$1587       1 00000050 00000001 A   U   59488 59485  59487
 $$$1589B      1 0000A858 00000001     X   59521 59528U
 $$$159F       2 00000BCA 00000001     H   11337 11293B
 $$$1590F      2 0000A8B6 00000001     H   59707 59552B
 $$$1591F      2 0000A884 00000001     H   59598 59582B
 $$$1592F      2 0000A8B4 00000001     H   59699 59611B
 $$$1593F      2 0000A8B2 00000001     H   59686 59659B
 $$$1594       6 0000AFD0 00000001     I   59676 59668X
 $$$1595       6 0000AFD0 00000001     I   59675 59676  59676
 $$$1596       1 00000050 00000001 A   U   59725 59722  59724
 $$$1598B      1 0000A8DE 00000001     X   59779 59786U
 $$$1599F      2 0000A938 00000001     H   59993 59820B
 $$$160        1 00000050 00000001 A   U   11355 11352  11354
 $$$1600F      2 0000A938 00000001     H   59984 59874B
 $$$1601F      2 0000A936 00000001     H   59962 59935B
 $$$1602       6 0000AFD6 00000001     I   59952 59944X
 $$$1603       6 0000AFD6 00000001     I   59951 59952  59952
 $$$1604       1 00000144 00000001 A   U   60017 60014  60016
 $$$1606B      1 0000A960 00000001     X   60052 60059U
 $$$1607F      2 0000A9A4 00000001     H   60239 60090B
 $$$1608F      2 0000A9A2 00000001     H   60212 60185B
 $$$1609       6 0000AFDC 00000001     I   60202 60194X
 $$$161F       2 00000EEC 00000001     H   12098 11586B 11638B 11673B
 $$$1610       6 0000AFDC 00000001     I   60201 60202  60202
 $$$1611       1 00000144 00000001 A   U   60263 60260  60262
 $$$1613B      1 0000A9CC 00000001     X   60298 60305U
1PROC     (PROC2193) (12:51) (15MAR04) Ordinary Symbol and Literal Cross Reference                                          Page  258
 $$$1614F      2 0000AA2E 00000001     H   60514 60339B
 $$$1615F      2 0000AA2E 00000001     H   60505 60395B
 $$$1616F      2 0000AA2C 00000001     H   60483 60456B
 $$$1617       6 0000AFE2 00000001     I   60473 60465X
 $$$1618       6 0000AFE2 00000001     I   60472 60473  60473
 $$$1619       1 00000144 00000001 A   U   60538 60535  60537
 $$$162B       1 00000C52 00000001     X   11469 11476U
 $$$1621B      1 0000AA56 00000001     X   60573 60580U
 $$$1622F      2 0000AA9A 00000001     H   60760 60611B
 $$$1623F      2 0000AA98 00000001     H   60733 60706B
 $$$1624       6 0000AFE8 00000001     I   60723 60715X
 $$$1625       6 0000AFE8 00000001     I   60722 60723  60723
 $$$1626       1 00000144 00000001 A   U   60784 60781  60783
 $$$1628B      1 0000AAC2 00000001     X   60819 60826U
 $$$1629F      2 0000AB24 00000001     H   61035 60860B
 $$$163F       2 00000CB0 00000001     H   11590 11550B
 $$$1630F      2 0000AB24 00000001     H   61026 60916B
 $$$1631F      2 0000AB22 00000001     H   61004 60977B
 $$$1632       6 0000AFEE 00000001     I   60994 60986X
 $$$1633       6 0000AFEE 00000001     I   60993 60994  60994
 $$$1634       1 00000144 00000001 A   U   61059 61056  61058
 $$$164F       2 00000CF8 00000001     H   11681 11603B
 $$$1643F      2 0000AC1A 00000001     H   61523 61314B
 $$$1644B      1 0000AB4C 00000001     X   61209 61216U
 $$$1645F      2 0000AC1A 00000001     H   61508 61262B
 $$$1646F      2 0000AB9E 00000001     H   61318 61296B
 $$$1647F      2 0000ABB0 00000001     H   61357 61333B
 $$$1648       6 0000AFF4 00000001     I   61347 61339X
 $$$1649       6 0000AFF4 00000001     I   61346 61347  61347
 $$$165F       2 00000CD8 00000001     H   11642 11620B
 $$$1650F      2 0000AC08 00000001     H   61464 61425B
 $$$1650S      2 0000ABE6 00000001     H   61419 61463B
 $$$1652       1 00000488 00000001 A   U   61532 61529  61531
 $$$1654B      1 0000AC42 00000001     X   61609 61616U
 $$$1655F      2 0000ACEE 00000001     H   61770 61704B
 $$$1656F      2 0000AD02 00000001     H   61812 61797B
 $$$1657F      2 0000AD0E 00000001     H   61838 61823B
 $$$1658F      2 0000AD1A 00000001     H   61864 61849B
 $$$1659F      2 0000AD3C 00000001     H   61905 61896B
 $$$166F       2 00000CF8 00000001     H   11677 11655B
 $$$1660F      2 0000AD78 00000001     H   62034 61961B
 $$$1661       1 0000005C 00000001 A   U   62079 62076  62078
 $$$1663B      1 0000AE52 00000001     X   62178 62185U
 $$$1664       1 00000050 00000001 A   U   62217 62214  62216
 $$$1666B      1 0000AE7E 00000001     X   62244 62251U
 $$$1667       1 00000050 00000001 A   U   62283 62280  62282
 $$$1669B      1 0000AEAA 00000001     X   62310 62317U
 $$$167F       2 00000D2E 00000001     H   11733 11705B
 $$$1670       1 00000050 00000001 A   U   62349 62346  62348
 $$$1672B      1 0000AED6 00000001     X   62376 62383U
 $$$1673       1 00000050 00000001 A   U   62410 62407  62409
 $$$1675B      1 0000AF02 00000001     X   62452 62459U
 $$$1676       1 00000050 00000001 A   U   62492 62489  62491
 $$$1678B      1 0000B014 00000001     X   62575 62582U
 $$$1679F      2 0000B180 00000001     H   63099 62647B
 $$$168F       2 00000D64 00000001     H   11776 11748B
 $$$1680F      2 0000B072 00000001     H   62693 62680B
 $$$1681F      2 0000B08E 00000001     H   62719 62706B
 $$$1682F      2 0000B0A8 00000001     H   62757 62743B
1PROC     (PROC2193) (12:51) (15MAR04) Ordinary Symbol and Literal Cross Reference                                          Page  259
 $$$1683F      2 0000B0C2 00000001     H   62785 62771B
 $$$1684F      2 0000B122 00000001     H   62885 62858B
 $$$1685       6 0000B1BA 00000001     I   62875 62867X
 $$$1686       6 0000B1BA 00000001     I   62874 62875  62875
 $$$1687F      2 0000B14A 00000001     H   62972 62945B
 $$$1688       6 0000B1C0 00000001     I   62962 62954X
 $$$1689       6 0000B1C0 00000001     I   62961 62962  62962
 $$$169F       2 00000E76 00000001     H   11957 11829B
 $$$169S       2 00000DC2 00000001     H   11823 11956B
 $$$1690F      2 0000B17E 00000001     H   63090 62995B
 $$$1691F      2 0000B17C 00000001     H   63077 63050B
 $$$1692       6 0000B1C6 00000001     I   63067 63059X
 $$$1693       6 0000B1C6 00000001     I   63066 63067  63067
 $$$1694       1 000000B0 00000001 A   U   63123 63120  63122
 $$$1696B      1 0000B1E6 00000001     X   63233 63240U
 $$$1697B      4 0000B210 00000001     I   63282 63295
 $$$1697F      2 0000B216 00000001     H   63292 63282B 63294
 $$$1698E      2 0000B21A 00000001     H   63302 63296
 $$$1698F      2 0000B21C 00000001     H   63309 63298B
 $$$1699B      4 0000B228 00000001     I   63336 63356
 $$$1699F      2 0000B22E 00000001     H   63348 63321B 63336B 63353
 $$$1700B      4 0000B21E 00000001     I   63321 63354
 $$$1701E      2 0000B232 00000001     H   63363 63355  63357
 $$$1701F      2 0000B2BC 00000001     H   63523 63359B
 $$$1702B      4 0000B238 00000001     I   63378 63393
 $$$1702F      2 0000B248 00000001     H   63390 63378B 63392
 $$$1703E      2 0000B24C 00000001     H   63400 63394
 $$$1703F      2 0000B25A 00000001     H   63409 63396B
 $$$1704B      4 0000B264 00000001     I   63424 63441
 $$$1704F      2 0000B274 00000001     H   63435 63424B 63440
 $$$1705B      4 0000B27A 00000001     I   63457 63500
 $$$1705E      2 0000B278 00000001     H   63448 63442
 $$$1705F      2 0000B2AC 00000001     H   63496 63444B 63457B 63499
 $$$1707F      2 0000B2A0 00000001     H   63489 63476B
 $$$1707S      2 0000B286 00000001     H   63469 63488B
 $$$1709E      2 0000B2B0 00000001     H   63507 63501
 $$$1709F      2 0000B2BC 00000001     H   63519 63503B
 $$$171B       4 00000E40 00000001     I   11912 11930
 $$$171F       2 00000E50 00000001     H   11923 11897B 11912B 11927
 $$$1710       1 00000090 00000001 A   U   63549 63546  63548
 $$$1712B      1 0000B2E8 00000001     X   63653 63660U
 $$$1713F      2 0000B32C 00000001     H   63727 63715B
 $$$1713S      2 0000B316 00000001     H   63708 63726B
 $$$1715B      4 0000B330 00000001     I   63740 63752
 $$$1715F      2 0000B338 00000001     H   63749 63740B 63751
 $$$1716E      2 0000B33C 00000001     H   63759 63753
 $$$1716F      2 0000B342 00000001     H   63765 63755B
 $$$1717F      2 0000B364 00000001     H   63799 63787B
 $$$1717S      2 0000B34E 00000001     H   63780 63798B
 $$$1719B      4 0000B368 00000001     I   63812 63824
 $$$1719F      2 0000B370 00000001     H   63821 63812B 63823
 $$$172B       4 00000E36 00000001     I   11897 11928
 $$$1720E      2 0000B374 00000001     H   63831 63825
 $$$1720F      2 0000B37A 00000001     H   63837 63827B
 $$$1721F      2 0000B416 00000001     H   64001 63874B
 $$$1721S      2 0000B38E 00000001     H   63864 64000B
 $$$1723F      2 0000B3F4 00000001     H   63981 63894B
 $$$1723S      2 0000B398 00000001     H   63884 63980B
 $$$1725F      2 0000B3DC 00000001     H   63969 63906B
1PROC     (PROC2193) (12:51) (15MAR04) Ordinary Symbol and Literal Cross Reference                                          Page  260
 $$$1726F      2 0000B3DC 00000001     H   63965 63922B
 $$$1727F      2 0000B3DC 00000001     H   63961 63941B
 $$$1728       1 000000AC 00000001 A   U   64035 64032  64034
 $$$173E       2 00000E54 00000001     H   11937 11929  11931
 $$$173F       2 00000E72 00000001     H   11952 11933B
 $$$1730B      1 0000B44E 00000001     X   64078 64085U
 $$$1731F      2 0000B464 00000001     H   64129 64119B
 $$$1732F      2 0000B470 00000001     H   64152 64142B
 $$$1733F      2 0000B48C 00000001     H   64179 64169B
 $$$1734F      2 0000B494 00000001     H   64200 64190B
 $$$1735B      4 0000B49E 00000001     I   64213 64228
 $$$1735F      2 0000B4A4 00000001     H   64225 64213B 64227
 $$$1736E      2 0000B4A8 00000001     H   64235 64229
 $$$1736F      2 0000B4AC 00000001     H   64241 64231B
 $$$1737       1 00000050 00000001 A   U   64260 64257  64259
 $$$1739B      1 0000B4D4 00000001     X   64302 64309U
 $$$174        1 000001AC 00000001 A   U   12107 12104  12106
 $$$1740F      2 0000B4F2 00000001     H   64355 64343B
 $$$1740S      2 0000B4DC 00000001     H   64336 64354B
 $$$1742F      2 0000B514 00000001     H   64385 64373B
 $$$1742S      2 0000B4FE 00000001     H   64366 64384B
 $$$1744       1 00000050 00000001 A   U   64407 64404  64406
 $$$1746B      1 0000B544 00000001     X   64505 64512U
 $$$1747S      2 0000B58C 00000001     H   64567 64724B
 $$$1748B      4 0000B5A2 00000001     I   64613 64636
 $$$1748F      2 0000B5C0 00000001     H   64629 64582B 64613B 64633
 $$$1748T      2 0000B5A6 00000001     H   64616 64600B
 $$$1749B      4 0000B58E 00000001     I   64582 64634
 $$$1751E      2 0000B5C4 00000001     H   64643 64635  64637
 $$$1751F      2 0000B5CC 00000001     H   64650 64639B
 $$$1755B      4 0000B612 00000001     I   64755 64767
 $$$1755F      2 0000B61A 00000001     H   64764 64755B 64766
 $$$1756E      2 0000B61E 00000001     H   64774 64768
 $$$1756F      2 0000B620 00000001     H   64783 64770B
 $$$1757       1 00000098 00000001 A   U   64809 64806  64808
 $$$176B       1 00000FAA 00000001     X   12218 12225U
 $$$177F       2 00001008 00000001     H   12404 12294B
 $$$178F       2 00001006 00000001     H   12382 12355B
 $$$179        6 00001B44 00000001     I   12372 12364X
 $$$180        6 00001B44 00000001     I   12371 12372  12372
 $$$181F       2 000010A6 00000001     H   12633 12519B
 $$$182F       2 0000109C 00000001     H   12607 12580B
 $$$183        6 00001B4A 00000001     I   12597 12589X
 $$$184        6 00001B4A 00000001     I   12596 12597  12597
 $$$185F       2 000010C4 00000001     H   12718 12691B
 $$$186        6 00001B50 00000001     I   12708 12700X
 $$$187        6 00001B50 00000001     I   12707 12708  12708
 $$$188        1 0000020C 00000001 A   U   12766 12763  12765
 $$$190B       1 000010EE 00000001     X   12799 12806U
 $$$191        1 00000050 00000001 A   U   12874 12871  12873
 $$$193B       1 00001134 00000001     X   12932 12939U
 $$$194F       2 0000118E 00000001     H   13126 13016B
 $$$195F       2 0000118C 00000001     H   13104 13077B
 $$$196        6 00001B56 00000001     I   13094 13086X
 $$$197        6 00001B56 00000001     I   13093 13094  13094
 $$$199F       2 00001218 00000001     H   13230 13217B
 $$$200F       2 00001242 00000001     H   13278 13265B
 $$$201F       2 00001256 00000001     H   13319 13295B
 $$$202        6 00001B5C 00000001     I   13309 13301X
1PROC     (PROC2193) (12:51) (15MAR04) Ordinary Symbol and Literal Cross Reference                                          Page  261
 $$$203        6 00001B5C 00000001     I   13308 13309  13309
 $$$204B       4 00001270 00000001     I   13372 13388
 $$$204F       2 0000127C 00000001     H   13385 13372B 13387
 $$$205E       2 00001280 00000001     H   13395 13389
 $$$205F       2 000012C8 00000001     H   13505 13391B
 $$$206F       2 00001298 00000001     H   13425 13412B
 $$$207F       2 000012A8 00000001     H   13450 13437B
 $$$208F       2 000012B8 00000001     H   13475 13462B
 $$$209F       2 000012C8 00000001     H   13501 13488B
 $$$210F       2 00001302 00000001     H   13641 13531B
 $$$211F       2 00001300 00000001     H   13619 13592B
 $$$212        6 00001B62 00000001     I   13609 13601X
 $$$213        6 00001B62 00000001     I   13608 13609  13609
 $$$214        1 000001E4 00000001 A   U   13681 13678  13680
 $$$216B       1 00001362 00000001     X   13727 13734U
 $$$217        1 00000050 00000001 A   U   13761 13758  13760
 $$$219B       1 0000138E 00000001     X   13803 13810U
 $$$220F       2 000013D8 00000001     H   13947 13920B
 $$$221        6 00001B68 00000001     I   13937 13929X
 $$$222        6 00001B68 00000001     I   13936 13937  13937
 $$$223F       2 0000142E 00000001     H   14176 13980B 14065B
 $$$225F       2 0000142C 00000001     H   14154 14127B
 $$$226        6 00001B6E 00000001     I   14144 14136X
 $$$227        6 00001B6E 00000001     I   14143 14144  14144
 $$$229F       2 000014B8 00000001     H   14280 14267B
 $$$230F       2 000014E2 00000001     H   14328 14315B
 $$$231F       2 000014F6 00000001     H   14369 14345B
 $$$232        6 00001B74 00000001     I   14359 14351X
 $$$233        6 00001B74 00000001     I   14358 14359  14359
 $$$234F       2 00001564 00000001     H   14530 14416B
 $$$235F       2 00001530 00000001     H   14449 14436B
 $$$236F       2 00001540 00000001     H   14474 14461B
 $$$237F       2 00001550 00000001     H   14499 14486B
 $$$238F       2 00001560 00000001     H   14525 14512B
 $$$239F       2 00001592 00000001     H   14628 14601B
 $$$240        6 00001B7A 00000001     I   14618 14610X
 $$$241        6 00001B7A 00000001     I   14617 14618  14618
 $$$242F       2 000015B8 00000001     H   14733 14660B
 $$$243F       2 000015FA 00000001     H   14873 14763B
 $$$244F       2 000015F8 00000001     H   14851 14824B
 $$$245        6 00001B80 00000001     I   14841 14833X
 $$$246        6 00001B80 00000001     I   14840 14841  14841
 $$$247        1 000001E4 00000001 A   U   14913 14910  14912
 $$$249B       1 0000165A 00000001     X   14959 14966U
 $$$250        1 00000050 00000001 A   U   14993 14990  14992
 $$$252B       1 00001686 00000001     X   15028 15035U
 $$$253F       2 000016DC 00000001     H   15212 15102B
 $$$254F       2 000016DA 00000001     H   15190 15163B
 $$$255        6 00001B86 00000001     I   15180 15172X
 $$$256        6 00001B86 00000001     I   15179 15180  15180
 $$$258F       2 00001766 00000001     H   15316 15303B
 $$$259F       2 00001790 00000001     H   15364 15351B
 $$$260F       2 000017A4 00000001     H   15405 15381B
 $$$261        6 00001B8C 00000001     I   15395 15387X
 $$$262        6 00001B8C 00000001     I   15394 15395  15395
 $$$263F       2 000017C2 00000001     H   15435 15422B
 $$$264F       2 000017F4 00000001     H   15493 15484B
 $$$265B       4 00001816 00000001     I   15517 15548
 $$$265F       2 00001830 00000001     H   15545 15517B 15547
1PROC     (PROC2193) (12:51) (15MAR04) Ordinary Symbol and Literal Cross Reference                                          Page  262
 $$$266E       2 00001834 00000001     H   15555 15549
 $$$266F       2 00001858 00000001     H   15599 15551B
 $$$267F       2 00001844 00000001     H   15575 15565B
 $$$268F       2 000018DE 00000001     H   15812 15621B
 $$$269F       2 0000187E 00000001     H   15654 15641B
 $$$270F       2 0000188E 00000001     H   15679 15666B
 $$$271F       2 0000189E 00000001     H   15704 15691B
 $$$272F       2 000018AE 00000001     H   15730 15717B
 $$$273F       2 000018BE 00000001     H   15756 15743B
 $$$274F       2 000018CE 00000001     H   15782 15769B
 $$$275F       2 000018DE 00000001     H   15808 15795B
 $$$276F       2 00001918 00000001     H   15948 15838B
 $$$277F       2 00001916 00000001     H   15926 15899B
 $$$278        6 00001B92 00000001     I   15916 15908X
 $$$279        6 00001B92 00000001     I   15915 15916  15916
 $$$280        1 000001E4 00000001 A   U   15988 15985  15987
 $$$282B       1 0000197A 00000001     X   16034 16041U
 $$$283        1 00000050 00000001 A   U   16068 16065  16067
 $$$285B       1 000019A6 00000001     X   16107 16114U
 $$$286F       2 000019E0 00000001     H   16254 16161B
 $$$287F       2 000019DE 00000001     H   16241 16214B
 $$$288        6 00001B98 00000001     I   16231 16223X
 $$$289        6 00001B98 00000001     I   16230 16231  16231
 $$$290        1 000001E4 00000001 A   U   16281 16278  16280
 $$$292B       1 00001BB8 00000001     X   16412 16419U
 $$$293F       2 00001C12 00000001     H   16606 16496B
 $$$294F       2 00001C10 00000001     H   16584 16557B
 $$$295        6 00001DB0 00000001     I   16574 16566X
 $$$296        6 00001DB0 00000001     I   16573 16574  16574
 $$$297F       2 00001C26 00000001     H   16633 16620B
 $$$298F       2 00001C50 00000001     H   16681 16668B
 $$$299F       2 00001C5E 00000001     H   16721 16697B
 $$$300        6 00001DB6 00000001     I   16711 16703X
 $$$301        6 00001DB6 00000001     I   16710 16711  16711
 $$$302B       4 00001C76 00000001     I   16740 16756
 $$$302F       2 00001C82 00000001     H   16753 16740B 16755
 $$$303E       2 00001C86 00000001     H   16763 16757
 $$$303F       2 00001CCE 00000001     H   16873 16759B
 $$$304F       2 00001C9E 00000001     H   16793 16780B
 $$$305F       2 00001CAE 00000001     H   16818 16805B
 $$$306F       2 00001CBE 00000001     H   16843 16830B
 $$$307F       2 00001CCE 00000001     H   16869 16856B
 $$$308F       2 00001CF8 00000001     H   17001 16891B
 $$$309F       2 00001CF6 00000001     H   16979 16952B
 $$$310        6 00001DBC 00000001     I   16969 16961X
 $$$311        6 00001DBC 00000001     I   16968 16969  16969
 $$$312        1 00000070 00000001 A   U   17041 17038  17040
 $$$314B       1 00001DDC 00000001     X   17152 17159U
 $$$315F       2 00001E38 00000001     H   17275 17220B 17265B
 $$$315S       2 00001DEC 00000001     H   17211 17274B
 $$$318        1 000001B4 00000001 A   U   17308 17305  17307
 $$$319F       2 00002106 00000001     H   18482 17475B 17508B
 $$$320B       1 00001E72 00000001     X   17357 17364U
 $$$321B       4 00001EA2 00000001     I   17427 17486
 $$$321F       2 00001EC0 00000001     H   17483 17427B 17485
 $$$322B       4 00001EAA 00000001     I   17442 17453
 $$$322F       2 00001EAE 00000001     H   17450 17442B 17452
 $$$323E       2 00001EB2 00000001     H   17460 17454
 $$$323F       2 00001EC0 00000001     H   17479 17456B
1PROC     (PROC2193) (12:51) (15MAR04) Ordinary Symbol and Literal Cross Reference                                          Page  263
 $$$324E       2 00001EC4 00000001     H   17493 17487
 $$$324F       2 00001ED2 00000001     H   17512 17489B
 $$$325F       2 00001F42 00000001     H   17792 17596B 17681B
 $$$327F       2 00001F40 00000001     H   17770 17743B
 $$$328        6 00002214 00000001     I   17760 17752X
 $$$329        6 00002214 00000001     I   17759 17760  17760
 $$$330F       2 00001F56 00000001     H   17819 17806B
 $$$331F       2 00001F80 00000001     H   17867 17854B
 $$$332F       2 00001F8E 00000001     H   17907 17883B
 $$$333        6 0000221A 00000001     I   17897 17889X
 $$$334        6 0000221A 00000001     I   17896 17897  17897
 $$$335F       2 00002014 00000001     H   18069 17955B
 $$$336F       2 00001FE0 00000001     H   17988 17975B
 $$$337F       2 00001FF0 00000001     H   18013 18000B
 $$$338F       2 00002000 00000001     H   18038 18025B
 $$$339F       2 00002010 00000001     H   18064 18051B
 $$$340F       2 00002032 00000001     H   18101 18083B
 $$$341F       2 00002074 00000001     H   18156 18138B
 $$$342F       2 000020C4 00000001     H   18318 18244B
 $$$343F       2 000020F6 00000001     H   18451 18341B
 $$$344F       2 000020F4 00000001     H   18429 18402B
 $$$345        6 00002220 00000001     I   18419 18411X
 $$$346        6 00002220 00000001     I   18418 18419  18419
 $$$347        1 00000070 00000001 A   U   18491 18488  18490
 $$$348F       2 00002324 00000001     H   19030 18736B 18884B
 $$$349B       1 00002240 00000001     X   18607 18614U
 $$$350F       2 0000228E 00000001     H   18784 18682B 18765B
 $$$350S       2 0000224E 00000001     H   18673 18783B
 $$$352F       2 00002274 00000001     H   18740 18728B
 $$$354B       4 00002290 00000001     I   18795 18980
 $$$354F       2 00002306 00000001     H   18977 18795B 18979
 $$$355F       2 00002306 00000001     H   18973 18830B
 $$$355S       2 000022B4 00000001     H   18821 18972B
 $$$357F       2 000022DA 00000001     H   18888 18876B
 $$$358F       2 000022FC 00000001     H   18966 18942B
 $$$359        6 00002342 00000001     I   18956 18948X
 $$$360        6 00002342 00000001     I   18955 18956  18956
 $$$361E       2 0000230A 00000001     H   18987 18981
 $$$361F       2 00002316 00000001     H   19006 18983B
 $$$362        1 000001AC 00000001 A   U   19039 19036  19038
 $$$363F       2 000025CE 00000001     H   20062 19495B 19528B
 $$$364B       1 00002362 00000001     X   19089 19096U
 $$$365F       2 000023BC 00000001     H   19283 19173B
 $$$366F       2 000023BA 00000001     H   19261 19234B
 $$$367        6 00002712 00000001     I   19251 19243X
 $$$368        6 00002712 00000001     I   19250 19251  19251
 $$$369F       2 000023D0 00000001     H   19310 19297B
 $$$370F       2 000023FA 00000001     H   19358 19345B
 $$$371F       2 00002408 00000001     H   19398 19374B
 $$$372        6 00002718 00000001     I   19388 19380X
 $$$373        6 00002718 00000001     I   19387 19388  19388
 $$$374F       2 00002426 00000001     H   19427 19414B
 $$$375B       4 0000243A 00000001     I   19447 19506
 $$$375F       2 00002458 00000001     H   19503 19447B 19505
 $$$376B       4 00002442 00000001     I   19462 19473
 $$$376F       2 00002446 00000001     H   19470 19462B 19472
 $$$377E       2 0000244A 00000001     H   19480 19474
 $$$377F       2 00002458 00000001     H   19499 19476B
 $$$378E       2 0000245C 00000001     H   19513 19507
1PROC     (PROC2193) (12:51) (15MAR04) Ordinary Symbol and Literal Cross Reference                                          Page  264
 $$$378F       2 0000246A 00000001     H   19532 19509B
 $$$379F       2 0000248E 00000001     H   19566 19553B
 $$$380F       2 000024A0 00000001     H   19589 19576B
 $$$381B       4 000024BE 00000001     I   19623 19642
 $$$381F       2 000024D6 00000001     H   19639 19623B 19641
 $$$382E       2 000024DA 00000001     H   19649 19643
 $$$382F       2 00002500 00000001     H   19682 19645B
 $$$383F       2 000024EE 00000001     H   19670 19660B
 $$$384F       2 00002594 00000001     H   19903 19712B
 $$$385F       2 00002534 00000001     H   19745 19732B
 $$$386F       2 00002544 00000001     H   19770 19757B
 $$$387F       2 00002554 00000001     H   19795 19782B
 $$$388F       2 00002564 00000001     H   19821 19808B
 $$$389F       2 00002574 00000001     H   19847 19834B
 $$$390F       2 00002584 00000001     H   19873 19860B
 $$$391F       2 00002594 00000001     H   19899 19886B
 $$$392F       2 000025BE 00000001     H   20031 19921B
 $$$393F       2 000025BC 00000001     H   20009 19982B
 $$$394        6 0000271E 00000001     I   19999 19991X
 $$$395        6 0000271E 00000001     I   19998 19999  19999
 $$$396        1 00000070 00000001 A   U   20071 20068  20070
 $$$398B       1 0000273E 00000001     X   20163 20170U
 $$$399F       2 000027A6 00000001     H   20390 20196B
 $$$400F       2 00002760 00000001     H   20239 20229B
 $$$401F       2 000027A6 00000001     H   20386 20278B
 $$$402F       2 000027A6 00000001     H   20382 20295B
 $$$403F       2 000027A4 00000001     H   20369 20342B
 $$$404        6 0000301A 00000001     I   20359 20351X
 $$$405        6 0000301A 00000001     I   20358 20359  20359
 $$$406        1 00000050 00000001 A   U   20409 20406  20408
 $$$407F       2 00002924 00000001     H   21152 20581B
 $$$408B       1 000027CE 00000001     X   20471 20478U
 $$$409F       2 00002924 00000001     H   21138 20515B
 $$$410B       4 000027F4 00000001     I   20546 20592
 $$$410F       2 00002818 00000001     H   20589 20546B 20591
 $$$411F       2 00002818 00000001     H   20585 20563B
 $$$412E       2 0000281C 00000001     H   20599 20593
 $$$412F       2 00002822 00000001     H   20611 20595B
 $$$413B       4 00002834 00000001     I   20634 20879
 $$$413F       2 000028AA 00000001     H   20876 20634B 20878
 $$$414F       2 00002856 00000001     H   20714 20687B
 $$$415        6 00003020 00000001     I   20704 20696X
 $$$416        6 00003020 00000001     I   20703 20704  20704
 $$$417F       2 000028AA 00000001     H   20872 20785B
 $$$418F       2 000028A8 00000001     H   20859 20832B
 $$$419        6 00003026 00000001     I   20849 20841X
 $$$420        6 00003026 00000001     I   20848 20849  20849
 $$$421E       2 000028AE 00000001     H   20886 20880
 $$$421F       2 00002924 00000001     H   21133 20882B
 $$$422F       2 000028F0 00000001     H   21019 20992B
 $$$423        6 0000302C 00000001     I   21009 21001X
 $$$424        6 0000302C 00000001     I   21008 21009  21009
 $$$425F       2 00002924 00000001     H   21129 21042B
 $$$426F       2 00002922 00000001     H   21116 21089B
 $$$427        6 00003032 00000001     I   21106 21098X
 $$$428        6 00003032 00000001     I   21105 21106  21106
 $$$429        1 0000014C 00000001 A   U   21161 21158  21160
 $$$430F       2 00002AA2 00000001     H   21878 21307B
 $$$431B       1 0000294C 00000001     X   21197 21204U
1PROC     (PROC2193) (12:51) (15MAR04) Ordinary Symbol and Literal Cross Reference                                          Page  265
 $$$432F       2 00002AA2 00000001     H   21864 21241B
 $$$433B       4 00002972 00000001     I   21272 21318
 $$$433F       2 00002996 00000001     H   21315 21272B 21317
 $$$434F       2 00002996 00000001     H   21311 21289B
 $$$435E       2 0000299A 00000001     H   21325 21319
 $$$435F       2 000029A0 00000001     H   21337 21321B
 $$$436B       4 000029B2 00000001     I   21360 21605
 $$$436F       2 00002A28 00000001     H   21602 21360B 21604
 $$$437F       2 000029D4 00000001     H   21440 21413B
 $$$438        6 00003038 00000001     I   21430 21422X
 $$$439        6 00003038 00000001     I   21429 21430  21430
 $$$440F       2 00002A28 00000001     H   21598 21511B
 $$$441F       2 00002A26 00000001     H   21585 21558B
 $$$442        6 0000303E 00000001     I   21575 21567X
 $$$443        6 0000303E 00000001     I   21574 21575  21575
 $$$444E       2 00002A2C 00000001     H   21612 21606
 $$$444F       2 00002AA2 00000001     H   21859 21608B
 $$$445F       2 00002A6E 00000001     H   21745 21718B
 $$$446        6 00003044 00000001     I   21735 21727X
 $$$447        6 00003044 00000001     I   21734 21735  21735
 $$$448F       2 00002AA2 00000001     H   21855 21768B
 $$$449F       2 00002AA0 00000001     H   21842 21815B
 $$$450        6 0000304A 00000001     I   21832 21824X
 $$$451        6 0000304A 00000001     I   21831 21832  21832
 $$$452        1 0000014C 00000001 A   U   21887 21884  21886
 $$$453F       2 00002C20 00000001     H   22606 22035B
 $$$454B       1 00002ACA 00000001     X   21925 21932U
 $$$455F       2 00002C20 00000001     H   22592 21969B
 $$$456B       4 00002AF0 00000001     I   22000 22046
 $$$456F       2 00002B14 00000001     H   22043 22000B 22045
 $$$457F       2 00002B14 00000001     H   22039 22017B
 $$$458E       2 00002B18 00000001     H   22053 22047
 $$$458F       2 00002B1E 00000001     H   22065 22049B
 $$$459B       4 00002B30 00000001     I   22088 22333
 $$$459F       2 00002BA6 00000001     H   22330 22088B 22332
 $$$460F       2 00002B52 00000001     H   22168 22141B
 $$$461        6 00003050 00000001     I   22158 22150X
 $$$462        6 00003050 00000001     I   22157 22158  22158
 $$$463F       2 00002BA6 00000001     H   22326 22239B
 $$$464F       2 00002BA4 00000001     H   22313 22286B
 $$$465        6 00003056 00000001     I   22303 22295X
 $$$466        6 00003056 00000001     I   22302 22303  22303
 $$$467E       2 00002BAA 00000001     H   22340 22334
 $$$467F       2 00002C20 00000001     H   22587 22336B
 $$$468F       2 00002BEC 00000001     H   22473 22446B
 $$$469        6 0000305C 00000001     I   22463 22455X
 $$$470        6 0000305C 00000001     I   22462 22463  22463
 $$$471F       2 00002C20 00000001     H   22583 22496B
 $$$472F       2 00002C1E 00000001     H   22570 22543B
 $$$473        6 00003062 00000001     I   22560 22552X
 $$$474        6 00003062 00000001     I   22559 22560  22560
 $$$475        1 0000014C 00000001 A   U   22615 22612  22614
 $$$476F       2 00002D9E 00000001     H   23334 22763B
 $$$477B       1 00002C48 00000001     X   22653 22660U
 $$$478F       2 00002D9E 00000001     H   23320 22697B
 $$$479B       4 00002C6E 00000001     I   22728 22774
 $$$479F       2 00002C92 00000001     H   22771 22728B 22773
 $$$480F       2 00002C92 00000001     H   22767 22745B
 $$$481E       2 00002C96 00000001     H   22781 22775
