1                        J E S 2  J O B  L O G  --  S Y S T E M  S Y S B  --  N O D E  R L G
0
 12.57.17 JOB03570 ---- MONDAY,    15 MAR 2004 ----
 12.57.17 JOB03570  ICH70001I GG$SLP   LAST ACCESS AT 12:57:12 ON MONDAY, MARCH 15, 2004
 12.57.18 JOB03570  $HASP373 WYL#TEXT STARTED - INIT 9    - CLASS B - SYS SYSB
 12.57.18 JOB03570  ***  HCMD      STEP $$QUIET
 12.57.18 JOB03570  PUR * Q OUT MUL
 12.57.18 JOB03570  JOB 5432 WYL#TEXT WILL BE PURGED
 12.57.19 JOB03570  WYL#TEXT.$$QUIET .         RC=Zero TapeIO=0000 DiskIO=0000 CPU=  .01s Elapsed=38.02s
 12.57.27 JOB03570  WYL#TEXT.ASM     .         RC=Zero TapeIO=0000 DiskIO=0583 CPU= 3.43s Elapsed=39.05s
 12.57.28 JOB03570  WYL#TEXT.EDIT    .         RC=Zero TapeIO=0000 DiskIO=0186 CPU=  .60s Elapsed=47.36s
 12.57.28 JOB03570  WYL#TEXT Ended.  Name=Assemble TEXT                  Total CPU= 4.04s Elapsed=38.02s
 12.57.28 JOB03570
 12.57.28 JOB03570  Execution charges   Priority=Standard   Block=Day
 12.57.28 JOB03570
 12.57.28 JOB03570  CPU Usage          74.43          $46.14   Standard Processing Unit Equivalent
 12.57.28 JOB03570                                   =======
 12.57.28 JOB03570                                    $46.14   Total Job execution charge
 12.57.28 JOB03570
 12.57.28 JOB03570  See back separator page for print charges
 12.57.28 JOB03570
 12.57.28 JOB03570  $HASP395 WYL#TEXT ENDED  ASM=0, EDIT=0
1        1 //WYL#TEXT JOB SLP$GG,'Assemble TEXT',TIME=4,REGION=4M                  JOB03570
           //*
           /*JOBPARM LINES=99,COPIES=1
           /*JOBPARM FORMS=3HOL,PFORMAT=LAND,CHARS=BD13,DUPLEX=YES,FLASH=BAR4
           //*
           /*JOBPARM NOTIFY=GG.SLP,HOLD=OUTPUT                                     WYLGEN
         2 //$$QUIET EXEC PGM=HCMDX,PARM='PUR * Q OUT MUL'
           //*
         3 //ASM    EXEC PGM=ASMA90,REGION=8M,
           //            PARM=('NORENT,TERM,FLAG(NOCONT),US(MAP,WARN(10)),NODECK',
           //            'LC(32767),XREF(SHORT),ESD,DXREF,NOOBJECT')
         4 //STEPLIB DD DSN=SYS3.IS.TESTASM,DISP=SHR
         5 //SYSLIB   DD  DSN=WYL.GS.WYL.WYLBUR.MACLIB,DISP=SHR
         6 //         DD  DSN=WYL.GG.SYS.MACLIB,DISP=SHR
         7 //         DD  DSN=SYS3.IS.MACLIB,DISP=SHR
         8 //         DD  DSN=SYS3.MACLIB,DISP=SHR
         9 //         DD  DSN=SYS1.MACLIB,DISP=SHR
        10 //         DD  DSN=SYS1.MODGEN,DISP=SHR
        11 //SYSUT1   DD DSN=&&SYSUT1,UNIT=VIO,DISP=(,DELETE),
           //            SPACE=(4088,(500,250),,CONTIG,ROUND)
        12 //SYSTERM  DD SYSOUT=T
        13 //SYSPRINT DD DSN=&&PRINT,UNIT=SYSDA,DISP=(,PASS),
           //            SPACE=(6650,(250,250),RLSE),
           //            DCB=(BLKSIZE=6650,LRECL=133,RECFM=FB)
        14 //SYSUDUMP DD SYSOUT=A
        15 //SYSIN    DD  DSN=WYL.GS.WYL.WYLBUR.SOURCE(TEXT),DISP=SHR
           //*
        16 //EDIT    EXEC PGM=ASMEDIT,TIME=2,REGION=4000K,
           //             PARM='STMT'
        17 //STEPLIB  DD  DSN=WYL.GG.SYS.LINKLIB,DISP=SHR
        18 //ASMOUT   DD  DSN=&PRINT,DISP=(OLD,DELETE)
        19 //SYSPRINT DD  SYSOUT=A
1 STMT NO. MESSAGE
 -
        11 IGD01010I STORCLAS= TEMP STORGROUP =
        11 IGD01010I STORGRP=VIO ASSIGNED.
        13 IGD01010I STORCLAS= TEMP STORGROUP =
        13 IGD01010I STORGRP=VIO ASSIGNED.
 ICH70001I GG$SLP   LAST ACCESS AT 12:57:12 ON MONDAY, MARCH 15, 2004
 IEF142I WYL#TEXT $$QUIET - STEP WAS EXECUTED - COND CODE 0000
 *********************************************************************************
 *   WYL#TEXT/$$QUIET /                    Return Code      Zero                 *
 *   Region used      260K (16K user + 244K system)                              *
 *   Extended region  9464K (4K user + 9460K system)                             *
 *                                                                               *
 *   Paging              In      Out                                             *
 *   Private <-> Aux      0        0       CPU time (TCB)   00:00:00.01          *
 *   Private <-> Exp      0        0       CPU time (SRB)   00:00:00.00          *
 *   VIO                  0        0       Elapsed time    917:30:34.94          *
 *   Common               0      ---                                             *
 *                                                                               *
 *                                                                               *
 *   CPU Usage          0.18         $0.11  Standard Processing Unit Equivalent  *
 *                                   $0.11  Total Step execution charge          *
 *                                                                               *
 *    I/O count  DDname   Type Addr           I/O count  DDname   Type Addr      *
 *                         *** No I/O for this step ***                          *
 *********************************************************************************
 IEF373I STEP/$$QUIET /START 2004075.1257
 IEF374I STEP/$$QUIET /STOP  2004075.1257 CPU    0MIN 00.01SEC SRB    0MIN 00.00SEC VIRT    16K SYS   244K EXT       4K SYS    9460K
 IEF236I ALLOC. FOR WYL#TEXT ASM
 IEF237I 04DC ALLOCATED TO STEPLIB
 IEF237I 04DC ALLOCATED TO SYSLIB
 IEF237I 04DC ALLOCATED TO
 IEF237I 04DC ALLOCATED TO
 IEF237I 0402 ALLOCATED TO
 IEF237I 04A0 ALLOCATED TO
 IEF237I 04A0 ALLOCATED TO
 IGD101I SMS ALLOCATED TO DDNAME (SYSUT1  )
         DSN (SYS04075.T125717.RA000.WYL#TEXT.SYSUT1.H01  )
         STORCLAS (TEMP) MGMTCLAS (        ) DATACLAS (        )
         VOL SER NOS= VIO
 IEF237I JES2 ALLOCATED TO SYSTERM
 IGD101I SMS ALLOCATED TO DDNAME (SYSPRINT)
         DSN (SYS04075.T125717.RA000.WYL#TEXT.PRINT.H01   )
         STORCLAS (TEMP) MGMTCLAS (        ) DATACLAS (        )
         VOL SER NOS= SCR101
 IEF237I JES2 ALLOCATED TO SYSUDUMP
 IEF237I 04DC ALLOCATED TO SYSIN
 IEF142I WYL#TEXT ASM - STEP WAS EXECUTED - COND CODE 0000
 IEF285I   SYS3.IS.TESTASM                              KEPT
 IEF285I   VOL SER NOS= SYSB05.
 IEF285I   WYL.GS.WYL.WYLBUR.MACLIB                     KEPT
 IEF285I   VOL SER NOS= SYSB05.
 IEF285I   WYL.GG.SYS.MACLIB                            KEPT
 IEF285I   VOL SER NOS= SYSB05.
 IEF285I   SYS3.IS.MACLIB                               KEPT
 IEF285I   VOL SER NOS= SYSB05.
 IEF285I   SYS3.MACLIB                                  KEPT
 IEF285I   VOL SER NOS= SYSB02.
 IEF285I   SYS1.MACLIB                                  KEPT
 IEF285I   VOL SER NOS= MVSBR9.
 IEF285I   SYS1.MODGEN                                  KEPT
 IEF285I   VOL SER NOS= MVSBR9.
 IGD105I SYS04075.T125717.RA000.WYL#TEXT.SYSUT1.H01   DELETED,   DDNAME=SYSUT1
 IEF285I   GG$SLP.WYL#TEXT.JOB03570.D0000101.?          SYSOUT
 IGD106I SYS04075.T125717.RA000.WYL#TEXT.PRINT.H01    PASSED,    DDNAME=SYSPRINT
 IEF285I   GG$SLP.WYL#TEXT.JOB03570.D0000102.?          SYSOUT
 IEF285I   WYL.GS.WYL.WYLBUR.SOURCE                     KEPT
 IEF285I   VOL SER NOS= SYSB05.
 *********************************************************************************
 *   WYL#TEXT/ASM     /                    Return Code      Zero                 *
 *   Region used      4376K (4096K user + 280K system)                           *
 *   Extended region  10064K (412K user + 9652K system)                          *
 *                                                                               *
 *   Paging              In      Out                                             *
 *   Private <-> Aux      0        0       CPU time (TCB)   00:00:03.38          *
 *   Private <-> Exp      0        0       CPU time (SRB)   00:00:00.05          *
 *   VIO                  0        0       Elapsed time    917:30:33.91          *
 *   Common               0      ---                                             *
 *                                                                               *
 *                                                                               *
 *   CPU Usage         63.37        $39.28  Standard Processing Unit Equivalent  *
 *                                  $39.28  Total Step execution charge          *
 *                                                                               *
 *    I/O count  DDname   Type Addr           I/O count  DDname   Type Addr      *
 *           89  STEPLIB  Disk 04DC                 303  SYSLIB   Disk 04DC      *
 *            0  SYSLIB   Disk 04DC                   0  SYSLIB   Disk 04DC      *
 *            0  SYSLIB   Disk 0402                   0  SYSLIB   Disk 04A0      *
 *            0  SYSLIB   Disk 04A0                   0  SYSUT1   VIO  ----      *
 *            0  SYSTERM       ----                 183  SYSPRINT Disk 04E3      *
 *            0  SYSUDUMP      ----                   8  SYSIN    Disk 04DC      *
 *********************************************************************************
 IEF373I STEP/ASM     /START 2004075.1257
 IEF374I STEP/ASM     /STOP  2004075.1257 CPU    0MIN 03.38SEC SRB    0MIN 00.05SEC VIRT  4096K SYS   280K EXT     412K SYS    9652K
 IEF236I ALLOC. FOR WYL#TEXT EDIT
 IEF237I 0402 ALLOCATED TO STEPLIB
 IGD103I SMS ALLOCATED TO DDNAME ASMOUT
 IEF237I JES2 ALLOCATED TO SYSPRINT
 IEF142I WYL#TEXT EDIT - STEP WAS EXECUTED - COND CODE 0000
 IEF285I   WYL.GG.SYS.LINKLIB                           KEPT
 IEF285I   VOL SER NOS= SYSB02.
 IGD105I SYS04075.T125717.RA000.WYL#TEXT.PRINT.H01    DELETED,   DDNAME=ASMOUT
 IEF285I   GG$SLP.WYL#TEXT.JOB03570.D0000103.?          SYSOUT
 *********************************************************************************
 *   WYL#TEXT/EDIT    /                    Return Code      Zero                 *
 *   Region used      380K (116K user + 264K system)                             *
 *   Extended region  9584K (4K user + 9580K system)                             *
 *                                                                               *
 *   Paging              In      Out                                             *
 *   Private <-> Aux      0        0       CPU time (TCB)   00:00:00.58          *
 *   Private <-> Exp      0        0       CPU time (SRB)   00:00:00.02          *
 *   VIO                  0        0       Elapsed time    917:30:25.60          *
 *   Common               0      ---                                             *
 *                                                                               *
 *                                                                               *
 *   CPU Usage         10.87         $6.73  Standard Processing Unit Equivalent  *
 *                                   $6.73  Total Step execution charge          *
 *                                                                               *
 *    I/O count  DDname   Type Addr           I/O count  DDname   Type Addr      *
 *            2  STEPLIB  Disk 0402                 184  ASMOUT   Disk 04E3      *
 *            0  SYSPRINT      ----                                              *
 *********************************************************************************
 IEF373I STEP/EDIT    /START 2004075.1257
 IEF374I STEP/EDIT    /STOP  2004075.1257 CPU    0MIN 00.58SEC SRB    0MIN 00.02SEC VIRT   116K SYS   264K EXT       4K SYS    9580K
 *********************************************************************************
 *                                                                               *
 *                      S t a n f o r d   U n i v e r s i t y                    *
 *                                                                               *
 *                              *** Job Summary ***                              *
 *                                                                               *
 *   System Id      SYSB                   Input time     12:39:28  Mar 15, 2004 *
 *                                                                               *
 *   System Release SP6.1.0                Start time     12:57:18  Mar 15, 2004 *
 *                                                                               *
 *   Job name       WYL#TEXT               Stop  time     00:00:00  Mar 15, 2004 *
 *                                                                               *
 *   Account        SLP$GG                 Elapsed time  917:30:34.94            *
 *                                                                               *
 *   User Name      Assemble TEXT          CPU time       00:00:03.97            *
 *                                                                               *
 *   Job class      B                      SRB Time       00:00:00.07            *
 *                                                                               *
 *********************************************************************************
 IEF375I  JOB/WYL#TEXT/START 2004075.1257
 IEF376I  JOB/WYL#TEXT/STOP  2004075.1257 CPU    0MIN 03.97SEC SRB    0MIN 00.07SEC
1Assembler Done TEXT No Statements Flagged
1         High Level Assembler Option Summary                   (PTF P72483 )                                               Page    1
-                                                                                            HLASM R4.0  2004/03/15 12.57
0  No Overriding ASMAOPT Parameters
   Overriding Parameters-  NORENT,TERM,FLAG(NOCONT),US(MAP,WARN(10)),NODECK,LC(32767),XREF(SHORT),ESD,DXREF,NOOBJECT
   No Process Statements


   Options for this Assembly
0  NOADATA
     ALIGN
   NOASA
     BATCH
     CODEPAGE(047C)
   NOCOMPAT
   NODBCS
 3 NODECK
 3   DXREF
 3   ESD
   NOEXIT
 3   FLAG(0,ALIGN,NOCONT,NOIMPLEN,NOPAGE0,PUSH,RECORD,NOSUBSTR,USING0)
   NOFOLD
   NOGOFF
   NOINFO
     LANGUAGE(EN)
   NOLIBMAC
 3   LINECOUNT(32767)
     LIST(121)
     MXREF(SOURCE)
 3 NOOBJECT
     OPTABLE(UNI,NOLIST)
   NOPCONTROL
   NOPESTOP
   NOPROFILE
   NORA2
 3 NORENT
     RLD
     RXREF
     SIZE(MAX)
     SYSPARM()
 3   TERM(WIDE)
   NOTEST
     THREAD
   NOTRANSLATE
 3   USING(NOLIMIT,MAP,WARN(10))
 3   XREF(SHORT)

   No Overriding DD Names

1TEXT     External Symbol Dictionary                                                                                        Page    2
-Symbol   Type   Id     Address  Length     LD ID  Flags Alias-of                            HLASM R4.0  2004/03/15 12.57
0WYLTEXT   SD 00000001 00000000 00002F20             00
 TEXT2025  LD          00000000           00000001
 CENTER    LD          00000018           00000001
 MPINT     ER 00000002
 LTNPSH    ER 00000003
 MALL      ER 00000004
 SCNINVAL  ER 00000005
 NDETRNG   ER 00000006
 NSCAN     ER 00000007
 SCANCHK   ER 00000008
 RDRNG     ER 00000009
 LISTLINE  ER 0000000A
 SEGWR     ER 0000000B
 PRESS     ER 0000000C
 STOW      ER 0000000D
 ALIGN     LD          000003A6           00000001
 MPARM     ER 0000000E
 MTOKEN    ER 0000000F
 MINT      ER 00000010
 SCINIT    ER 00000011
 NUMBER    ER 00000012
 DELRANGE  ER 00000013
 LOCATE    ER 00000014
 ADDER     ER 00000015
 GETLNO    ER 00000016
 NUMRANGE  ER 00000017
 SORT      LD          00000FDC           00000001
 CHKACT    ER 00000018
 FREECORE  ER 00000019
 PUTLINE   ER 0000001A
 SEGDC     ER 0000001B
 SEG       ER 0000001C
 GETCORE   ER 0000001D
 SLICECHK  ER 0000001E
 PFORMAT   LD          00002234           00000001
 NOTVALID  ER 0000001F
 GTFRST    ER 00000020
 GTNEXT    ER 00000021
 LRTRIM    ER 00000022
 CVEXNO    ER 00000023

1TEXT     WYLBUR's Text Preparation Commands                                                                                Page    3
0Loc    Object Code    Addr1 Addr2  Stmt Lv Lineno    Source Statement                    (Asmedit 3.3)  HLASM R4.0  2004/03/15 12.57
+___    ______ ____    _____ _____  ____ __ ______    ______ _________
0                                      2              *******************************************************************
                                       3              *                                                                 *
                                       4              *     WYLBUR/370 - Release VI - Class I - Stanford Proprietary    *
                                       5              *                                                                 *
                                       6              *******************************************************************
                                       7                       HIBAL
                                     988
 000000                00000 02F20   989              WYLTEXT  CSECT
                                     993              TEXT     IDENT 2025                11:49:35 01/25/02  (SLP)
                                     996             +
                                     997    01-IDENT +         ENTRY TEXT2025
                                     998             +
 000000 16E3C5E7E3F2F0F2             999    01-IDENT +TEXT2025 DC    AL1(22),C'TEXT2025,15MAR04,12:57'
                                    1000             +*
                                    1002              *
                                    1003              *  NEEDED FIXES:  ELIMIATE OSCINIT
                                    1004              *
                                    1005                       REGS  FSR,,,,,,,BR,(WAR,LSR),PAR,PBR,CPR,CVR,SPR,RAR
                                    1141                       SYSDEFN ,                 Define installation params
                                    1142
                                    1143                       PUSH  DSECTS
 USING  CP,R11                      1155             =         USING (CP),(CV)
 USING  CV,R12
 000017                00000 02F20  1174             =         POP   PRINT
1TEXT     (TEXT2025) (12:57) (15MAR04) ALIGN/JUSTIFY/CENTER Work Area                                                       Page    4
0Current Usings:  (CP,R11) (CV,R12)
0Loc    Object Code    Addr1 Addr2  Stmt Lv Lineno    Source Statement           (Hibal 5, Asmedit 3.3)  HLASM R4.0  2004/03/15 12.57
+___    ______ ____    _____ _____  ____ __ ______    ______ _________
0000000                00000 00135  6310              ALWA     RECORD BEGIN              Align work area definition
 000000                             6318  1           ALWASTRT   DS    0F
 000000 00                          6319  1           ALFLAGS    FLAG
 ALFLAGS.ALFNUMB   80 ONES          6323  1                      FLAG  ALFNUMB             - renumber range
 ALFLAGS.ALFMRKN   40 ONES          6328  1                      FLAG  ALFMRKN             - marker specified flag
 ALFLAGS.ALFSPACE  20 ONES          6333  1                      FLAG  ALFSPACE            - space option specified
 ALFLAGS.ALFEVEN   10 ONES          6338  1                      FLAG  ALFEVEN             - even option specified
 ALFLAGS.ALFPARA   08 ONES          6343  1                      FLAG  ALFPARA             - paragraph option given
 ALFLAGS.ALFEBL    04 ONES          6348  1                      FLAG  ALFEBL              - extra blanks on left flag
 ALFLAGS.ALFSOME   02 ONES          6353  1                      FLAG  ALFSOME             - something in buffer flag
 ALFLAGS.ALFSTOP   01 ONES          6358  1                      FLAG  ALFSTOP             - stop align process
                                    6363  1
 000001                             6364  1           ALLNMRK    DS    CL1                 Marker character
 000002                             6365  1           ALLNMAX    DS    H                   Length save spot
 000004                             6366  1           ALINDST    DS    H                   Align indent value
 000006                             6367  1           ALINDPA    DS    H                   Indent for new paragraph
 000008                             6368  1           ALINDNT    DS    H                   Next indent value
 00000A                             6369  1           ALWBUFL    DS    H                   Buffer length
 00000C                             6370  1           ALWPBC     DS    H                   Previous blank count
                                    6371  1           * as old junky code, alwbc was 'ex'ed as 'bne diflead', or 'nop',
                                    6372  1           * now we alwbc as a flag. 0 - nop. nz - bne diflead.
 00000E 4770 0000            00000  6373  1           ALWBC      BNE   0                   Nop or bne diflead
 000014                             6374  1           ALWSAVE    DS    3F                  Save area for output pointers
 000020                             6375  1           ALWLAST    DS    A                   Length of last word
 000024                             6376  1           ALWJPT     DS    A                   Point to begin justification
 000028                             6377  1           ALLNOSV    DS    F                   Work cell for line number
 00002C                             6378  1           ALFRSTSV   DS    F                   First line of range save
 000030                             6379  1           ALBSADJ    DS    H                   Backspace adjustment for line
 000032                             6380  1           ALCURBS    DS    H                   Backspace adjustment for curr
                                    6381  1           ALWAINIT   EQU   ALWASTRT,*-ALWASTRT,C'X'  fields to be initialized
 000034                             6382  1           ALWBL      DS    C                   A blank
                                    6383  1           ALBUFF     DS    CL(&PRESSZ)         Buffer work area
 000035                                   1          +ALBUFF     DS    CL(256)             Buffer work area
 000135                00135 00135  6384                       END
1TEXT     (TEXT2025) (12:57) (15MAR04) CENTER Command                                                                       Page    5
0Current Usings:  (CP,R11) (CV,R12)
0Loc    Object Code    Addr1 Addr2  Stmt Lv Lineno    Source Statement           (Hibal 5, Asmedit 3.3)  HLASM R4.0  2004/03/15 12.57
+___    ______ ____    _____ _____  ____ __ ______    ______ _________
0                                   6394              ¿þþþþþþþþþþþþþþþþþþþþþþþþþþþþþþþþþþþþþþþþþþþþþþþþþþþþþþþþþþþþþþþþþþþþþÜ
                                    6395              Ÿ                                                                     Ÿ
                                    6396              Ÿ  CENTER -- CENTER command.                                          Ÿ
                                    6397              Ÿ                                                                     Ÿ
                                                      ¾þþþþþþþþþþþþþþþþþþþþþþþþþþþþþþþþþþþþþþþþþþþþþþþþþþþþþþþþþþþþþþþþþþþþþ»
0000018 50E0 D000/9008_      00000  6398              CENTER   XPROC ALWA
 USING  *,R7
 USING  ALWA-(4+36),R8
 000032 4160 8028            00000  6449                       LA    R6,ALWA             ALWA ptr
 000036 5060 BCA4            00CA4  6450                       ST    R6,CPCWA            Save it
 USING  ALWA,R6                     6451                       USING ALWA,R6
 00003A 58E0 7316/0DEE       00348  6460                       VCALL NDETRNG             Scan for range
 000040 D733 6000 6000 00000 00000  6464                       CLEAR ALWAINIT            Clear work area
 000046 9620 BD54      00D54        6471                       SET   CPLFLG5.CPFNLST     Default is nolist
 00004A D201 6002 B87E 00002 0087E  6478                       MVC   ALLNMAX(2),CPLENGTH  set default length
 000050 5810 B08C/1B00_      0008C  6479                       SCAN  CENPRT              Scan for other values
 0000A2 58E0 7322/0DEE       00354  6511                       SCANCHK
 0000A8 4800 6002            00002  6516                       LH    R0,ALLNMAX          Test indent against length
 0000AC 4900 6004            00004  6517                       CH    R0,ALINDST          Indent must be less
 0000B0 4720 708E            000C0  6518                       IF    NH,BEGIN
 0000B4 4110 7326/4100_      00358  6529  1                      ERROR 'Indentation exceeds length. '
 0000C0                             6536                       END
 0000C0 9110 B477/47E0_00477        6540                       IF    CPFTYPED,'COUNT CPACHCT'
 0000D4 5800 7342/5810_      00374  6564                       RDRNG CENWORK,(DESNRTN+LOCATRTN+UNPRST+DESABORT)
 0000E2 18D8/9808 D004_             6571                       PEND
 DROP   ALWA-(4+36),R8
 DROP   *,R7
                                    6596              *
                                    6597              *  sckw stuff
                                    6598              *
                                    6599              *
                                    6600              &LINESZM1 SETA &LINESZ-1
                                    6601
 0000F0 D3C5D5C7E3C84040_           6602              CENPRT   SCKW  LENGTH,CENLEN,(P,PI,A),&LINESZ
 000118 C9D5C4C5D5E34040_           6617                       SCKW  INDENT,CENIND,(P,I,A),&LINESZM1
 000140 C1D9D6E4D5C44040_           6632                       SCKW  AROUND,CENARO,(P,I,A),&LINESZM1
 000168 4040404040404040_           6647                       SCKW  ,V(LTNPSH),PUSH
 000190 4040404040404040_           6662                       SCKW  ,V(SCNINVAL)
                                    6677
 0001B8 50E0 D000/9008_      00000  6678              CENLEN   DPROC
 USING  *,R7
 0001D2 4000 6002            00002  6718                       STH   R0,ALLNMAX          Save length
 0001D6 1B00                        6719                       CLEAR R0
 0001D8 18D8/9808 D004_             6723                       PEND
 DROP   *,R7
                                    6743
 0001E6 50E0 D000/9008_      00000  6744              CENIND   DPROC
 USING  *,R7
 000200 4000 6004            00004  6784                       STH   R0,ALINDST          Save indent value
 000204 1B00                        6785                       CLEAR R0
 000206 18D8/9808 D004_             6789                       PEND
 DROP   *,R7
                                    6809
1TEXT     (TEXT2025) (12:57) (15MAR04) CENTER Command                                                                       Page    6
0Current Usings:  (ALWA,R6) (*,R7) (CP,R11) (CV,R12)
0Loc    Object Code    Addr1 Addr2  Stmt Lv Lineno    Source Statement           (Hibal 5, Asmedit 3.3)  HLASM R4.0  2004/03/15 12.57
+___    ______ ____    _____ _____  ____ __ ______    ______ _________
0000214 50E0 D000/9008_      00000  6810              CENARO   DPROC
 USING  *,R7
 00022E 8900 0001            00001  6850                       SLL   R0,1                Mult by two for length
 000232 4000 6002            00002  6851                       STH   R0,ALLNMAX          Save funny length
 000236 1B00                        6852                       CLEAR R0
 000238 18D8/9808 D004_             6856                       PEND
 DROP   *,R7
                                    6876
1TEXT     (TEXT2025) (12:57) (15MAR04) CENTER Command                                                                       Page    7
0Current Usings:  (ALWA,R6) (CP,R11) (CV,R12)
0Loc    Object Code    Addr1 Addr2  Stmt Lv Lineno    Source Statement           (Hibal 5, Asmedit 3.3)  HLASM R4.0  2004/03/15 12.57
+___    ______ ____    _____ _____  ____ __ ______    ______ _________
0                                   6878              *
                                    6879              *  center co-routine
                                    6880              *
 000246 50E0 D000/9008_      00000  6881              CENWORK  PROC
 USING  *,R7
 000260 5860 BCA4            00CA4  6920                       L     R6,CPCWA            ALWA ptr
 000264 1200/4780 708A              6921                       IF    (R0,Z),CENNULL      Null line
 00026A 9540 1000/4770_00000        6938              CENBL    IF    (@R1,EQ,' '),BEGIN  Leading blank?
 000272 4110 1001            00001  6955  1                      LA    R1,@R1+1            To next char
 000276 4600 700A            0026A  6956  1                      BCT   R0,CENBL
 00027A                             6957                       END
 00027A 1200/47D0 703E              6961                       IF    (R0,POS),BEGIN      Check for backspaces...
 000280 1821                        6975  1                      LR    R2,R1
 000282 1830                        6976  1                      LR    R3,R0
 000284 9516 2000/4770_00000        6977  1           CENBACK    IF    (@R2,EQ,X'16'),'DECR R0; DECR R0'  adjust count
 000290 4120 2001            00001  7003  1                      LA    R2,@R2+1
 000294 4630 7024            00284  7004  1                      BCT   R3,CENBACK
 000298 1200/47D0 708A              7005  1                      IF    (R0,~POS),CENNULL   Leave it
 00029E                             7022                       END
 00029E 4830 6002            00002  7026                       LH    R3,ALLNMAX          Length
 0002A2 4840 6004            00004  7027                       LH    R4,ALINDST          Indent
 0002A6 1B30                        7028                       SR    R3,R0               Compute no. of blanks
 0002A8 1B34                        7029                       SR    R3,R4               Allow for indent
 0002AA 47B0 7058            002B8  7030                       BNM   CENPOS              Br if ok
 0002AE 1A43/47B0 7056_             7031                       IF    ('AR R4,R3',NEG),'CLEAR R4'
 0002B6 1B33                        7053                       CLEAR R3
 0002B8 8830 0001            00001  7057              CENPOS   SRL   R3,1                Compute blanks for left side
 0002BC 1A34                        7058                       AR    R3,R4               Add adjusted indentation
 0002BE 9240 6035      00035        7059                       MVI   ALBUFF,C' '         Blank out
 0002C2 4430 713A/D200_      0039A  7060                       EX    R3,'MVC ALBUFF+1(0),ALBUFF'  blank buffer
 0002C6 1820                        7076                       LR    R2,R0               Save length
 0002C8 1A03                        7077                       AR    R0,R3               Compute final length
 0002CA 5900 7120/47D0_      00380  7078                       IF    (R0,GT,&LINESZ),BEGIN  if length is to big
 0002D2 4B00 7136            00396  7095  1                      SH    R0,=Y(&LINESZ)      Get amount over
 0002D6 1B30/47B0 707E_             7096  1                      IF    ('SR R3,R0',M),'CLEAR R3'  make sure at least zero
 0002DE 1802                        7118  1                      LR    R0,R2               Copy r2
 0002E0 1A03                        7119  1                      AR    R0,R3               Bump r0
 0002E2                             7120                       END
 0002E2 4133 6035            00035  7124                       LA    R3,ALBUFF(R3)       Compute text address
 0002E6 4420 7140/D200_      003A0  7125                       EX    R2,'MVC @R3(0),@R1' Move text to buffer
 0002EA 4110 6035            00035  7141              CENNULL  LA    R1,ALBUFF           Point at new line
 0002EE 1B44                        7142                       CLEAR R4                  Attn flag
 0002F0 9120 BD54/4710_00D54        7146                       IF    ~CPLFLG5.CPFNLST,BEGIN  list line...
 0002F8 9001 D000/41D0_      00000  7162  1                      XPUSH R0,R1
 000300 58E0 7124/0DEE       00384  7165  1                      VCALL LISTLINE
 000306 1B00/41F0 B050_             7169  1                      IF    ('TWRITE',NZ),'LA R4,1'
 00031A 4BD0 7138/9801_      00398  7212  1                      XPOP  R0,R1
 000322                             7215                       END
 000322 58F0 B73C            0073C  7219                       L     R15,CPLCNO          Get line no.
 000326 58E0 712C/0DEE       0038C  7220                       VCALL PRESS               Press the line
 00032C 58E0 7130/0DEE       00390  7224                       VCALL STOW                Replace the line
 000332 1244/4770 C7D6              7228                       IF    (R4,NZ),CVERROR     Stop if attn
 000338 18D8/9808 D004_             7245                       PEND  ,                   Return to despot
 DROP   *,R7
1TEXT     (TEXT2025) (12:57) (15MAR04) CENTER Command                                                                       Page    8
0Current Usings:  (CP,R11) (CV,R12)
0Loc    Object Code    Addr1 Addr2  Stmt Lv Lineno    Source Statement           (Hibal 5, Asmedit 3.3)  HLASM R4.0  2004/03/15 12.57
+___    ______ ____    _____ _____  ____ __ ______    ______ _________
0DROP   ALWA,R6                     7265                       DROP  ALWA
1TEXT     (TEXT2025) (12:57) (15MAR04) CENTER Command                                                                       Page    9
0Current Usings:  (CP,R11) (CV,R12)
0Loc    Object Code    Addr1 Addr2  Stmt Lv Lineno    Source Statement           (Hibal 5, Asmedit 3.3)  HLASM R4.0  2004/03/15 12.57
+___    ______ ____    _____ _____  ____ __ ______    ______ _________
0                                   7275                       QLTORG
1TEXT     (TEXT2025) (12:57) (15MAR04) ALIGN/JUSTIFY Commands                                                               Page   10
0Current Usings:  (CP,R11) (CV,R12)
0Loc    Object Code    Addr1 Addr2  Stmt Lv Lineno    Source Statement           (Hibal 5, Asmedit 3.3)  HLASM R4.0  2004/03/15 12.57
+___    ______ ____    _____ _____  ____ __ ______    ______ _________
0                                   7304              ¿þþþþþþþþþþþþþþþþþþþþþþþþþþþþþþþþþþþþþþþþþþþþþþþþþþþþþþþþþþþþþþþþþþþþþÜ
                                    7305              Ÿ                                                                     Ÿ
                                    7306              Ÿ  ALIGN -- ALIGN/JUSTIFY commands.                                   Ÿ
                                    7307              Ÿ                                                                     Ÿ
                                                      ¾þþþþþþþþþþþþþþþþþþþþþþþþþþþþþþþþþþþþþþþþþþþþþþþþþþþþþþþþþþþþþþþþþþþþþ»
00003A6 50E0 D000/9008_      00000  7308              ALIGN    XPROC ALWA
 USING  *,R7
 USING  ALWA-(4+36),R8
 0003C0 4160 8028            00000  7359                       LA    R6,ALWA             ALWA ptr
 USING  ALWA,R6                     7360                       USING ALWA,R6
 0003C4 5060 BCA4            00CA4  7369                       ST    R6,CPCWA            Save ALWA ptr
 0003C8 58E0 7B38/0DEE       00EF8  7370                       VCALL NDETRNG             Process any range
 0003CE D711 B5C4 B5C4 005C4 005C4  7374                       CLEAR CPACINFO            Reset collect info
 0003D4 D733 6000 6000 00000 00000  7381                       CLEAR ALWAINIT            Clear work area
 0003DA 9240 6034      00034        7388                       MVI   ALWBL,C' '          Initialize blank
 0003DE D203 600E 7B3C 0000E 00EFC  7389                       MVC   ALWBC(4),=F'1'      Initialize branch instr (BNE)
 0003E4 9620 BD54      00D54        7390                       SET   CPLFLG5.CPFNLST     Default is nolist
 0003E8 D201 6002 B87E 00002 0087E  7397                       MVC   ALLNMAX(2),CPLENGTH  set default length
 0003EE 5810 B08C/1B00_      0008C  7398                       SCAN  ALIPRT              Scan for options
 000440 58E0 7B48/0DEE       00F08  7430                       SCANCHK
 000446 4810 6004            00004  7435                       LH    R1,ALINDST          Check indent parms
 00044A 4910 6002            00002  7436                       CH    R1,ALLNMAX          Less than length
 00044E 4740 709E            0045E  7437                       IF    NL,BEGIN
 000452 4110 7B4C/4100_      00F0C  7448  1                      ERROR 'Illegal indentation.'
 00045E                             7455                       END
 00045E 4101 6035            00035  7459                       LA    R0,ALBUFF(R1)       Justify starting point
 000462 5000 6024            00024  7460                       ST    R0,ALWJPT           Save it
 000466 4A10 6006            00006  7461                       AH    R1,ALINDPA          Add in extra paragraph indent
 00046A 47B0 70BA            0047A  7462                       IF    M,BEGIN
 00046E 4110 7B4C/4100_      00F0C  7473  1                      ERROR 'Illegal indentation.'
 00047A                             7480                       END
 00047A 4910 6002            00002  7484                       CH    R1,ALLNMAX          Less than length
 00047E 4740 70CE            0048E  7485                       IF    NL,BEGIN
 000482 4110 7B4C/4100_      00F0C  7496  1                      ERROR 'Illegal indentation.'
 00048E                             7503                       END
 00048E 4010 6006            00006  7507                       STH   R1,ALINDPA          Set paragraph indent
 000492 4010 6008            00008  7508                       STH   R1,ALINDNT          Set first indent
 000496 9110 6000/47E0_00000        7509                       IF    ALFEVEN,'CLEAR ALWBC'  make branch a nop
 0004A4 9280 BE14      00E14        7536                       MVI   CPWKPS,X'80'        Set to avoid numbering first
 0004A8 D203 B5A8 7B60 005A8 00F20  7537                       MVC   CPACLNO,=F'-1000'   Set current line invalid
 0004AE 9640 BD57      00D57        7538                       SET   CPFNCUR             set so despot won't change current
 0004B2 4100 0001/5A00_      00001  7544                       COUNT CPACHCT             Count typed command changes
 0004BE 5800 7B64/5810_      00F24  7548                       RDRNG WRKALIN,(DESRTRN+LOCATRTN+UNPRST+DESABORT)
 0004CC 9102 6000/47E0_00000        7555                       IF    ALFSOME,BEGIN       Stuff remains in buffer...
 0004D4 4150 6035            00035  7570  1                      LA    R5,ALBUFF           Point to text
 0004D8 9834 6014            00014  7571  1                      LM    R3,R4,ALWSAVE       Get count
 0004DC 4B40 600A            0000A  7572  1                      SH    R4,ALWBUFL          Into r4
 0004E0 4B40 6030            00030  7573  1                      SH    R4,ALBSADJ          Take account of backspaces
 0004E4 1344                        7574  1                      LCR   R4,R4               For otalin
 0004E6 58E0 7B70/0DEE       00F30  7575  1                      ACALL OTALIN              Output last
 0004EC                             7579                       END
 0004EC 9180 6000/47E0_00000        7583                       IF    ALFNUMB,BEGIN       Renumber...
 0004F4 4110 C4D8/4100_      004D8  7598  1                      OSCINIT CVBLANKS,2         Init
1TEXT     (TEXT2025) (12:57) (15MAR04) ALIGN/JUSTIFY Commands                                                               Page   11
0Current Usings:  (ALWA,R6) (*,R7) (ALWA-(4+36),R8) (CP,R11) (CV,R12)
0Loc    Object Code    Addr1 Addr2  Stmt Lv Lineno    Source Statement           (Hibal 5, Asmedit 3.3)  HLASM R4.0  2004/03/15 12.57
+___    ______ ____    _____ _____  ____ __ ______    ______ _________
0000502 D704 BD50 BD50 00D50 00D50  7620  1                      XC    CPLFLG1(5),CPLFLG1  Reset flags for number
 000508 58E0 7B78/0DEE       00F38  7621  1                      VCALL NUMBER              Renumber
 00050E                             7625                       END
 00050E 9120 BD54/47E0_00D54        7629                       IF    CPLFLG5.CPFNLST,BEGIN  only re-number if nolist...
 000516 D503 BE14 B5A4_00E14 005A4  7645  1                      IF    (CPWKPS,GT,CPALLNO),'MVC ALLNOSV,CVMAXLNO'  Max
 000526 9180 6000/4710_00000        7669  1                      IF    ~ALFNUMB,'ACALL RENUMB'  go fix line numbers
 000534                             7693                       END
                                    7697
 000534 47F0 C7DE            007DE  7698                       B     CVNEXT              ALL DONE, EXIT
                                    7699
 000538 1BFF                        7700                       CLEAR R15
 00053A 18D8/9808 D004_             7704                       PEND ,                    NEVER EXECUTED, WE EXIT ABOVE
 DROP   ALWA-(4+36),R8
 DROP   *,R7
1TEXT     (TEXT2025) (12:57) (15MAR04) ALIGN/JUSTIFY Commands                                                               Page   12
0Current Usings:  (ALWA,R6) (CP,R11) (CV,R12)
0Loc    Object Code    Addr1 Addr2  Stmt Lv Lineno    Source Statement           (Hibal 5, Asmedit 3.3)  HLASM R4.0  2004/03/15 12.57
+___    ______ ____    _____ _____  ____ __ ______    ______ _________
0                                   7730              *
                                    7731              *
                                    7732              *  Align SCKW stuff
                                    7733              *
                                    7734              &LINESZM1 SETA &LINESZ-1
                                    7735
 000548 D3C5D5C7E3C84040_           7736              ALIPRT   SCKW  LENGTH,HAVLENE,(P,A,PI),&LINESZ
 000570 D4C1D9D2C5D94040_           7751                       SCKW  MARKER,HAVMARK,(P,A)
 000598 E2D7C1C3C5404040_           7766                       SCKW  SPACE,HAVSPACE,A
 0005C0 C5E5C5D540404040_           7781                       SCKW  EVEN,HAVEVEN,A
 0005E8 D5E4D4C2C5D94040_           7796                       SCKW  NUMBER,HAVNUMB,A
 000610 4040404040404040_           7811                       SCKW  ,V(LTNPSH),PUSH
 000638 C9D5C4C5D5E34040_           7826                       SCKW  INDENT,ALINDENT,(P,I,A),&LINESZM1
 000660 D7C1D9C1C7D9C1D7_           7841                       SCKW  PARAGRAPH,HAVPARA,A
 000688 4040404040404040_           7856                       SCKW  ,V(SCNINVAL)
                                    7871
 0006B0 4E40404040404040_           7872              INDPRT   SCKW  +,ALNPA2,(P,I),50
 0006D8 6040404040404040_           7887                       SCKW  -,ALNPA1,(P,I),50
 000700 4040404040404040_           7902                       SCKW  ,ALNPA2,(I)
 000728 4040404040404040_           7917                       SCKW  ,ALCONT
-                                   7933
 000750 50E0 D000/9008_      00000  7934              HAVLENE  DPROC
 USING  *,R7
 00076A 4000 6002            00002  7974                       STH   R0,ALLNMAX          Store
 00076E 1BFF                        7975                       CLEAR R15
 000770 18D8/9808 D004_             7979                       PEND
 DROP   *,R7
                                    7999
 00077E 50E0 D000/9008_      00000  8000              HAVMARK  PROC
 USING  *,R7
 000798 9640 6000      00000        8039                       SET   ALFMRKN             Set marker given
 00079C 957D 1000/4780_00000        8045                       IF    ((@R1,EQ,''''),OR,(@R1,EQ,'"')),BEGIN
 0007AC D200 6001 1001 00001 00001  8076  1                      MVC   ALLNMRK(1),@R1+1
 0007B2                             8077                       END
 0007B2 701E/47F0 702C 007B2 007AA  8081                       ELSE  BEGIN
 0007B6 5810 B08C/4111_      0008C  8092  1                      SCUPTOK R1
 0007BE D200 6001 1000 00001 00000  8096  1                      MVC   ALLNMRK(1),@R1      Set marker
 0007C4                             8097                       END
 0007C4 1BFF                        8101                       CLEAR R15
 0007C6 18D8/9808 D004_             8105                       PEND
 DROP   *,R7
                                    8125
 0007D4 50E0 D000/9008_      00000  8126              HAVSPACE DPROC ,                   Set space option given
 USING  *,R7
 0007EE 9620 6000      00000        8166                       SET   ALFSPACE
 0007F2 1BFF                        8172                       CLEAR R15
 0007F4 18D8/9808 D004_             8176                       PEND
 DROP   *,R7
                                    8196
 000802 50E0 D000/9008_      00000  8197              HAVPARA  DPROC
 USING  *,R7
 00081C 9608 6000      00000        8237                       SET   ALFPARA             Set paragraph option given
1TEXT     (TEXT2025) (12:57) (15MAR04) ALIGN/JUSTIFY Commands                                                               Page   13
0Current Usings:  (ALWA,R6) (*,R7) (CP,R11) (CV,R12)
0Loc    Object Code    Addr1 Addr2  Stmt Lv Lineno    Source Statement           (Hibal 5, Asmedit 3.3)  HLASM R4.0  2004/03/15 12.57
+___    ______ ____    _____ _____  ____ __ ______    ______ _________
0000820 1BFF                        8243                       CLEAR R15
 000822 18D8/9808 D004_             8247                       PEND
 DROP   *,R7
                                    8267
 000830 50E0 D000/9008_      00000  8268              HAVEVEN  DPROC
 USING  *,R7
 00084A 9610 6000      00000        8308                       SET   ALFEVEN             Set even option given
 00084E 1BFF                        8314                       CLEAR R15
 000850 18D8/9808 D004_             8318                       PEND
 DROP   *,R7
                                    8338
 00085E 50E0 D000/9008_      00000  8339              HAVNUMB  DPROC
 USING  *,R7
 000878 9680 6000      00000        8379                       SET   ALFNUMB             Set to renumber
 00087C 1BFF                        8385                       CLEAR R15
 00087E 18D8/9808 D004_             8389                       PEND
 DROP   *,R7
                                    8409
 00088C 50E0 D000/9008_      00000  8410              ALINDENT PROC
 USING  *,R7
 0008A6 4000 6004            00004  8449                       STH   R0,ALINDST          Save indent value
 0008AA 58E0 B08C/D2AF_      0008C  8450                       SCPUSH ,                  Save scan pointers
 0008B8 5810 B08C/1B00_      0008C  8456                       SCAN  INDPRT              Scan for paragraph indent
 00090A 58E0 7662/0DEE       00F08  8488                       SCANCHK
 000910 59F0 769E/4770_      00F44  8493                       IF    (R15,EQ,8),BEGIN    If number not scanned,, restore
 000918 58E0 B08C/4BD0_      0008C  8510  1                      SCPOP ,
 000926                             8516                       END
 000926 1BFF                        8520                       CLEAR R15
 000928 18D8/9808 D004_             8524                       PEND
 DROP   *,R7
                                    8544
 000936 50E0 D000/9008_      00000  8545              ALNPA1   DPROC
 USING  *,R7
 000950 1300                        8585                       LCR   R0,R0               Complement the value
 000952 4000 6006            00006  8586                       STH   R0,ALINDPA          Save the paragraph indent
 000956 41F0 0004            00004  8587                       LA    R15,4
 00095A 18D8/9808 D004_             8588                       PEND
 DROP   *,R7
                                    8608
 000968 50E0 D000/9008_      00000  8609              ALNPA2   DPROC
 USING  *,R7
 000982 5900 75C6/47D0_      00F48  8649                       IF    (R0,GT,50),BEGIN
 00098A 4110 75F2/4100_      00F74  8666  1                      ERROR 'Indent specification too large. (>50) '
 000996                             8673                       END
 000996 4000 6006            00006  8677                       STH   R0,ALINDPA          Save the paragraph indent
 00099A 41F0 0004            00004  8678                       LA    R15,4
 00099E 18D8/9808 D004_             8679                       PEND
 DROP   *,R7
                                    8699
 0009AC 50E0 D000/9008_      00000  8700              ALCONT   DPROC ,                   Number not scanned, restore scan
 USING  *,R7
 0009C6 41F0 0008            00008  8740                       LA    R15,8
 0009CA 18D8/9808 D004_             8741                       PEND
 DROP   *,R7
1TEXT     (TEXT2025) (12:57) (15MAR04) ALIGN/JUSTIFY Commands                                                               Page   14
0Current Usings:  (ALWA,R6) (CP,R11) (CV,R12)
0Loc    Object Code    Addr1 Addr2  Stmt Lv Lineno    Source Statement           (Hibal 5, Asmedit 3.3)  HLASM R4.0  2004/03/15 12.57
+___    ______ ____    _____ _____  ____ __ ______    ______ _________
0                                   8761
-                                   8763                       DROP  BR
1TEXT     (TEXT2025) (12:57) (15MAR04) ALIGN/JUSTIFY Commands                                                               Page   15
0Current Usings:  (ALWA,R6) (CP,R11) (CV,R12)
0Loc    Object Code    Addr1 Addr2  Stmt Lv Lineno    Source Statement           (Hibal 5, Asmedit 3.3)  HLASM R4.0  2004/03/15 12.57
+___    ______ ____    _____ _____  ____ __ ______    ______ _________
0                                   8768              *
                                    8769              *  ALIGN CO-ROUTINE
                                    8770              *
 0009D8 50E0 D000/9008_      00000  8771              WRKALIN  PROC
 USING  *,R7
 0009F2 5860 BCA4            00CA4  8810                       L     R6,CPCWA            Get ALWA ptr
 0009F6 9835 6014            00014  8811                       LM    R3,R5,ALWSAVE       Restore pointers
 0009FA 5820 B73C            0073C  8812                       L     R2,CPLCNO           Get current line no
 0009FE 9002 6014            00014  8813                       STM   R0,R2,ALWSAVE       Save pointers to line & lineno
 000A02 5800 B73C            0073C  8814                       L     R0,CPLCNO           Line-number to delete
 000A06 1810                        8815                       LR    R1,R0
 000A08 58E0 755A/0DEE       00F4C  8816                       VCALL DELRANGE            Delete line
 000A0E 4800 75A8            00F9A  8820                       LH    R0,=H'-1'           Set R0 neg in case end of rnge
 000A12 9120 BD88/4710_00D88        8821                       IF    CPFLSKIP,BLINE      new range, go finish old stuff
                                    8839
 000A1A 9802 6014            00014  8840              NEWRNGEC LM    R0,R2,ALWSAVE       Restore pointers to line
 000A1E 5020 6028            00028  8841                       ST    R2,ALLNOSV          Save highest line no. yet
 000A22 1200                        8842                       LTR   R0,R0               Null line
 000A24 47D0 7324            00D16  8843                       BNP   BLINE               Br yes
 000A28 9140 6000/47E0_00000        8844                       IF    ALFMRKN,BEGIN       Marker given...
 000A30 D500 6001 1000 00001 00000  8859  1                      CLC   ALLNMRK(1),@R1      Marker line
 000A36 4780 731A            00D0C  8860  1                      BE    ALMAR               Br yes
 000A3A                             8861                       END
 000A3A 1821                        8865              DOLEAD   LR    R2,R1               Find blank count
 000A3C 9540 2000      00000        8866              BLCHOP   CLI   @R2,C' '            Is this blank
 000A40 4770 705E            00A50  8867                       BNE   ENDLEAD             No, at end of blanks
 000A44 4120 2001            00001  8868                       LA    R2,@R2+1            Step past blank
 000A48 4600 704A            00A3C  8869                       BCT   R0,BLCHOP           Loop till non-blank
 000A4C 47F0 7324            00D16  8870                       B     BLINE
                                    8871
 000A50 1B21                        8872              ENDLEAD  SR    R2,R1               Compute blank count
 000A52 4920 600C            0000C  8873                       CH    R2,ALWPBC           Test against previous
 000A56 D201 600C 6004 0000C 00004  8874                       MVC   ALWPBC,ALINDST      Set count for next compare
                                    8875              *        EX    0,ALWBC             Exec conditional br or nop
 000A5C 4780 7078/D503_      00A6A  8876                       IF    (NE,AND,(ALWBC,NE,0)),DIFLEAD
 000A6A 47F0 7312            00D04  8907                       B     NEXTWORD            Br if so
                                    8908
 000A6E 4920 6006            00006  8909              DIFLEAD  CH    R2,ALINDPA          Is this normal new paragraph
 000A72 4780 7322            00D14  8910                       BE    BLINEI              Yes, go flush buff and restart
 000A76 4920 6004            00004  8911                       CH    R2,ALINDST          Is this normal indent
 000A7A 4770 7318            00D0A  8912                       BNE   ALMAR1              No, treat as if marker line
                                    8913              * a new paragraph has started with the normal indentation instead
                                    8914              * of the paragraph indentation.  maintain the indentation and
                                    8915              * process the line.
 000A7E D201 6008 6004 00008 00004  8916                       MVC   ALINDNT,ALINDST     Set normal indent value
 000A84 47F0 7312            00D04  8917                       B     NEXTWORD            Go process line normally
                                    8918
 000A88 1200                        8919              GETWORD  LTR   R0,R0               More input text
 000A8A 47D0 73A4            00D96  8920                       BNP   NEXTLINE            Br no
 000A8E 1821                        8921                       LR    R2,R1               Start of word
 000A90 9540 2000      00000        8922                       CLI   @R2,C' '            Blank
 000A94 4770 70DC            00ACE  8923                       BNE   NONDO               Br if not
 000A98 47F0 70B2            00AA4  8924                       B     BDO                 Br if so
                                    8925
1TEXT     (TEXT2025) (12:57) (15MAR04) ALIGN/JUSTIFY Commands                                                               Page   16
0Current Usings:  (ALWA,R6) (*,R7) (CP,R11) (CV,R12)
0Loc    Object Code    Addr1 Addr2  Stmt Lv Lineno    Source Statement           (Hibal 5, Asmedit 3.3)  HLASM R4.0  2004/03/15 12.57
+___    ______ ____    _____ _____  ____ __ ______    ______ _________
0000A9C 9540 2000      00000        8926              BLOOP    CLI   @R2,C' '            Next char. blank
 000AA0 4770 70BE            00AB0  8927                       BNE   BEND                Br no
 000AA4 4120 2001            00001  8928              BDO      LA    R2,@R2+1            Next
 000AA8 4600 70AA            00A9C  8929                       BCT   R0,BLOOP
 000AAC 47F0 73A4            00D96  8930                       B     NEXTLINE            Br if no more in line
                                    8931
 000AB0 1B21                        8932              BEND     SR    R2,R1               Compute length
 000AB2 9120 6000/47E0_00000        8933                       IF    ~ALFSPACE,DOWORD    Space option not given
 000ABA 5550 6024            00024  8951                       CL    R5,ALWJPT           Past justify point
 000ABE 4740 7158            00B4A  8952                       BL    DOWORD              Br if not
 000AC2 47F0 7312            00D04  8953                       B     NEXTWORD            Skip the blanks
                                    8954
 000AC6 9540 2000/4780_00000        8955              NONLOOP  IF    (@R2,EQ,' '),NONEND  end of word
 000ACE 9516 2000/4770_00000        8975              NONDO    IF    (@R2,EQ,X'16'),BEGIN  backspace...
 000AD6 41F0 0002            00002  8992  1                      LA    R15,2               Else increment bs adjustment
 000ADA 4AF0 6032            00032  8993  1                      AH    R15,ALCURBS         .. count by 2
 000ADE 40F0 6032            00032  8994  1                      STH   R15,ALCURBS
 000AE2                             8995                       END
 000AE2 4120 2001            00001  8999                       LA    R2,@R2+1
 000AE6 4600 70D4            00AC6  9000                       BCT   R0,NONLOOP
 000AEA 1B21                        9001              NONEND   SR    R2,R1               Compute length
 000AEC 9102 6000/47E0_00000        9002                       IF    ~ALFSOME,DOWORD     Nothing remains in line
 000AF4 18F5                        9020                       LR    R15,R5              End of out buffer
 000AF6 06F0                        9021                       DECR  R15
 000AF8 9540 F000      00000        9023                       CLI   @R15,C' '           Last char blank
 000AFC 4780 7158            00B4A  9024                       BE    DOWORD              Br yes
 000B00 D201 5000 C4D8 00000 004D8  9025                       MVC   @R5(2),CVBLANKS     Put 2 blanks at end
 000B06 41E0 0002            00002  9026                       LA    R14,2               Set count
 000B0A 954B F000/4780_00000        9027                       IF    ((@R15,EQ,'.'),OR,(@R15,EQ,'?')),ADDIN
 000B1A 957A F000/4780_00000        9061                       IF    ((@R15,EQ,':'),OR,(@R15,EQ,'!')),ADDIN
 000B2A 06E0                        9095                       DECR  R14                 Reset count to 1
 000B2C 194E                        9097              ADDIN    CR    R4,R14              Room for blanks
 000B2E 47D0 718A            00B7C  9098                       BNH   FULL                Br if not
 000B32 50E0 6020            00020  9099                       ST    R14,ALWLAST         Save word length
 000B36 1A5E                        9100                       AR    R5,R14              Update pointer and count
 000B38 1B4E                        9101                       SR    R4,R14
 000B3A 9602 6000      00000        9102                       SET   ALFSOME             Set something in buffer
 000B3E 5550 6024            00024  9108                       CL    R5,ALWJPT           Past justify point
 000B42 47D0 7158            00B4A  9109                       BNH   *+8                 Br if not
 000B46 4130 3001            00001  9110                       LA    R3,@R3+1            Bump word count
 000B4A 1244/4780 718A              9111              DOWORD   IF    (R4,Z),FULL         Must stop now
 000B50 18F2                        9129                       LR    R15,R2              Room in line?
 000B52 4BF0 6032            00032  9130                       SH    R15,ALCURBS         Deduct bs adjustment
 000B56 194F                        9131                       CR    R4,R15              Compare with spaces left
 000B58 4740 718A            00B7C  9132                       BL    FULL                Not enough
 000B5C 48E0 600A            0000A  9133                       LH    R14,ALWBUFL         Now check that the line ..
 000B60 4AE0 6030            00030  9134                       AH    R14,ALBSADJ         ..  is not too long ..
 000B64 4AE0 6032            00032  9135                       AH    R14,ALCURBS         ..  for wylbur to stow
 000B68 49E0 75AA            00F9C  9136                       CH    R14,=Y(&LINESZ)
 000B6C 47D0 72C4            00CB6  9137                       BNH   ROOM                it's ok
                                    9138              *  let the word go in if the difference can be taken
                                    9139              *  off the free spaces (r4)
 000B70 4BE0 75AA            00F9C  9140                       SH    R14,=Y(&LINESZ)     Calculate excess
 000B74 1AEF                        9141                       AR    R14,R15             Add signif chars in the word
1TEXT     (TEXT2025) (12:57) (15MAR04) ALIGN/JUSTIFY Commands                                                               Page   17
0Current Usings:  (ALWA,R6) (*,R7) (CP,R11) (CV,R12)
0Loc    Object Code    Addr1 Addr2  Stmt Lv Lineno    Source Statement           (Hibal 5, Asmedit 3.3)  HLASM R4.0  2004/03/15 12.57
+___    ______ ____    _____ _____  ____ __ ______    ______ _________
0000B76 194E                        9142                       CR    R4,R14
 000B78 47B0 72C4            00CB6  9143                       BNL   ROOM                Br if so
 000B7C 9102 6000/47E0_00000        9144              FULL     IF    ~ALFSOME,NOWORDS    No words in line
 000B84 95D1 BD24/4770_00D24        9163                       IF    (CPCMNM,NE,'J'),UNJUST  align
 000B8C 18F5                        9183                       LR    R15,R5              Output pointer
 000B8E 06F0                        9184                       DECR  R15
 000B90 9540 F000/4770_00000        9186                       IF    (@R15,NE,' '),NBT
 000B98 5B50 6020            00020  9205                       S     R5,ALWLAST          Back up
 000B9C 5A40 6020            00020  9206                       A     R4,ALWLAST
 000BA0 0630                        9207                       DECR  R3                  Decrement word count
                                    9209
 000BA2 0630                        9210              NBT      DECR  R3                  Compute no. of gaps
 000BA4 8A30 0001            00001  9212                       SRA   R3,1
 000BA8 47D0 723E            00C30  9213                       BNP   UNJUST              Br if none
 000BAC 9002 6014            00014  9214                       STM   R0,R2,ALWSAVE       Need a few regs
 000BB0 1214                        9215                       LTR   R1,R4               No of spaces to insert
 000BB2 47D0 7238            00C2A  9216                       BNP   JEND                Br if none
 000BB6 1B00                        9217                       CLEAR R0
 000BB8 1D03                        9221                       DR    R0,R3               Compute spaces/gaps
 000BBA 1200                        9222                       LTR   R0,R0
 000BBC 47D0 71E0            00BD2  9223                       BNP   EBR                 Br if even up
 000BC0 4110 1001            00001  9224                       LA    R1,@R1+1            Start with extra on right
 000BC4 9104 6000/47E0_00000        9225                       IF    ~ALFEBL,EBR         Right/left
 000BCC 0610                        9243                       DECR  R1                  Take it back
 000BCE 1B03                        9245                       SR    R0,R3               Compute gaps before extra
 000BD0 1300                        9246                       LCR   R0,R0
 000BD2 41F4 5000            00000  9247              EBR      LA    R15,0(R4,R5)        Last char plus 1
 000BD6 06F0                        9248              EBLOOP   DECR  R15                 Look at last
 000BD8 0650                        9250                       DECR  R5
 000BDA D200 F000 5000 00000 00000  9252              EBLOOPX  MVC   @R15(1),@R5         Move one char
 000BE0 9540 F000      00000        9253                       CLI   @R15,C' '           Was it blank
 000BE4 4770 71E4            00BD6  9254                       BNE   EBLOOP              Br if not
 000BE8 06F0                        9255              BSLOOP   DECR  R15                 Move rest of blanks
 000BEA 0650                        9257                       DECR  R5
 000BEC D200 F000 5000 00000 00000  9259                       MVC   @R15(1),@R5
 000BF2 9540 F000      00000        9260                       CLI   @R15,C' '           End of gap
 000BF6 4780 71F6            00BE8  9261                       BE    BSLOOP              Br if not
 000BFA 1221                        9262                       LTR   R2,R1               No. of blanks
 000BFC 47D0 7218            00C0A  9263                       BNP   NEB                 Br if none
 000C00 9240 F000      00000        9264              EBPUT    MVI   @R15,C' '           A blank
 000C04 06F0                        9265                       DECR  R15
 000C06 4620 720E            00C00  9267                       BCT   R2,EBPUT
 000C0A 4600 7234            00C26  9268              NEB      BCT   R0,JENDT            Br if more gaps to do
 000C0E 0610                        9269                       DECR  R1                  Assume extra on right
 000C10 9104 6000/47E0_00000        9271                       IF    ALFEBL,'LA R1,@R1+2'
 000C1C 9704 6000      00000        9292                       FLIP  ALFEBL              Flip between left & right
 000C20 1211                        9298                       LTR   R1,R1               Anything more to do
 000C22 47D0 7238            00C2A  9299                       BNP   JEND                Br if not
 000C26 4630 71E8            00BDA  9300              JENDT    BCT   R3,EBLOOPX          Br if more gaps
 000C2A 9802 6014            00014  9301              JEND     LM    R0,R2,ALWSAVE       Restore regs
 000C2E 1B44                        9302                       CLEAR R4                  Set buffer full
 000C30 4130 0001            00001  9306              UNJUST   LA    R3,1                Set switch
 000C34 4150 6035            00035  9307                       LA    R5,ALBUFF
 000C38 4B40 600A            0000A  9308                       SH    R4,ALWBUFL          Compute length
1TEXT     (TEXT2025) (12:57) (15MAR04) ALIGN/JUSTIFY Commands                                                               Page   18
0Current Usings:  (ALWA,R6) (*,R7) (CP,R11) (CV,R12)
0Loc    Object Code    Addr1 Addr2  Stmt Lv Lineno    Source Statement           (Hibal 5, Asmedit 3.3)  HLASM R4.0  2004/03/15 12.57
+___    ______ ____    _____ _____  ____ __ ______    ______ _________
0000C3C 4B40 6030            00030  9309                       SH    R4,ALBSADJ          take account of bs's
 000C40 1344                        9310                       LCR   R4,R4
 000C42 58E0 753E/0DEE       00F30  9311                       ACALL OTALIN              Put out line
 000C48 4150 6035            00035  9315              NOWORDS  LA    R5,ALBUFF           Reset buffer pointer
 000C4C 48F0 6008            00008  9316                       LH    R15,ALINDNT         Indentation
 000C50 44F0 75DE/D200_      00FD0  9317                       EX    R15,'MVC ALBUFF(0),ALWBL'  blank start of line
 000C54 1A5F                        9333                       AR    R5,R15              Point at start of text
 000C56 4840 6002            00002  9334                       LH    R4,ALLNMAX          Set up length
 000C5A 4040 600A            0000A  9335                       STH   R4,ALWBUFL          Save buffer size
 000C5E D701 6030 6030 00030 00030  9336                       CLEAR ALBSADJ             Clear bs adjustment
 000C64 1B4F                        9343                       SR    R4,R15
 000C66 48E0 6004            00004  9344                       LH    R14,ALINDST         Reset indentation
 000C6A 40E0 6008            00008  9345                       STH   R14,ALINDNT
 000C6E 18E3                        9346                       LR    R14,R3              Save word count
 000C70 1B33                        9347                       CLEAR R3                  Set no words in line
 000C72 94FD 6000      00000        9351                       CLEAR ALFSOME
 000C76 9540 1000      00000        9358                       CLI   @R1,C' '            Was word blank
 000C7A 4770 7292            00C84  9359                       BNE   AGAIN               Br if not
 000C7E 12EE                        9360                       LTR   R14,R14             Anything in prev line
 000C80 4720 7312            00D04  9361                       BP    NEXTWORD            Br if so
 000C84 1942                        9362              AGAIN    CR    R4,R2               Room in line now
 000C86 47B0 72C4            00CB6  9363                       BNL   ROOM                Br if so
 000C8A 9540 1000      00000        9364                       CLI   @R1,C' '            Blanks
 000C8E 4780 7312            00D04  9365                       BE    NEXTWORD            Br if so
 000C92 4B20 6032            00032  9366                       SH    R2,ALCURBS          Convert to apperent length
 000C96 41E0 00EB            000EB  9367                       LA    R14,&LINESZ         Max. line length
 000C9A 1BE2                        9368                       SR    R14,R2              Compute max indent
 000C9C 19EF                        9369                       CR    R14,R15             Pick min
 000C9E 47B0 72B2            00CA4  9370                       BNL   *+6
 000CA2 18FE                        9371                       LR    R15,R14
 000CA4 4150 6035            00035  9372                       LA    R5,ALBUFF           Compute start of line
 000CA8 1A5F                        9373                       AR    R5,R15
 000CAA 1AF2                        9374                       AR    R15,R2              Compute buffer length
 000CAC 40F0 600A            0000A  9375                       STH   R15,ALWBUFL
 000CB0 1842                        9376                       LR    R4,R2               Value of length remaining
 000CB2 4A20 6032            00032  9377                       AH    R2,ALCURBS          Back to "real" len
                                    9378
 000CB6 4420 75E4/D200_      00FD6  9379              ROOM     EX    R2,'MVC @R5(0),@R1' Move word into buffer
 000CBA 5020 6020            00020  9395                       ST    R2,ALWLAST          Save length of word
 000CBE 1A52                        9396                       AR    R5,R2               Update pointer
 000CC0 1B42                        9397                       SR    R4,R2
 000CC2 4A40 6032            00032  9398                       AH    R4,ALCURBS          Adjust for backspaces
 000CC6 48F0 6032            00032  9399                       LH    R15,ALCURBS         Add bs adj. for this ..
 000CCA 4AF0 6030            00030  9400                       AH    R15,ALBSADJ         .. word to adj. for ..
 000CCE 40F0 6030            00030  9401                       STH   R15,ALBSADJ         .. the line
 000CD2 4AF0 600A            0000A  9402                       AH    R15,ALWBUFL         Check for backspace overflow
 000CD6 49F0 75AA            00F9C  9403                       CH    R15,=Y(&LINESZ)
 000CDA 47D0 72FC            00CEE  9404                       BNH   ROOMOK
 000CDE 4BF0 75AA            00F9C  9405                       SH    R15,=Y(&LINESZ)     And if so take the excess
 000CE2 1B4F                        9406                       SR    R4,R15              Off the free space
 000CE4 4BF0 6030            00030  9407                       SH    R15,ALBSADJ         Adjust albsadj
 000CE8 13FF                        9408                       LCR   R15,R15
 000CEA 40F0 6030            00030  9409                       STH   R15,ALBSADJ
 000CEE D701 6032 6032 00032 00032  9410              ROOMOK   CLEAR ALCURBS
1TEXT     (TEXT2025) (12:57) (15MAR04) ALIGN/JUSTIFY Commands                                                               Page   19
0Current Usings:  (ALWA,R6) (*,R7) (CP,R11) (CV,R12)
0Loc    Object Code    Addr1 Addr2  Stmt Lv Lineno    Source Statement           (Hibal 5, Asmedit 3.3)  HLASM R4.0  2004/03/15 12.57
+___    ______ ____    _____ _____  ____ __ ______    ______ _________
0000CF4 9602 6000      00000        9418                       SET   ALFSOME             Set something in line
 000CF8 5550 6024            00024  9424                       CL    R5,ALWJPT           Past justify point
 000CFC 47D0 7312            00D04  9425                       BNH   *+8                 Br if not
 000D00 4130 3001            00001  9426                       LA    R3,@R3+1            Bump word count
 000D04 1A12                        9427              NEXTWORD AR    R1,R2               Bump input pointer
 000D06 47F0 7096            00A88  9428                       B     GETWORD
                                    9429
 000D0A 1A02                        9430              ALMAR1   AR    R0,R2               Restore count
                                    9431              *LMAR    BAL   R2,BLINEX           Set sw and output marked line
 000D0C 4120 03E7            003E7  9432              ALMAR    LA    R2,999              replace bal r2,.. hope this is ok
 000D10 47F0 7326            00D18  9433                       B     BLINEX
                                    9434
 000D14 1A02                        9435              BLINEI   AR    R0,R2               Restore count
 000D16 1B22                        9436              BLINE    CLEAR R2                  Set switch
 000D18 9102 6000/47E0_00000        9441              BLINEX   IF    ALFSOME,BEGIN       Something in buffer...
 000D20 4150 6035            00035  9457  1                      LA    R5,ALBUFF           Buffer addr
 000D24 4B40 600A            0000A  9458  1                      SH    R4,ALWBUFL          Compute length
 000D28 4B40 6030            00030  9459  1                      SH    R4,ALBSADJ          Take account of backspaces
 000D2C 1344                        9460  1                      LCR   R4,R4
 000D2E 58E0 753E/0DEE       00F30  9461  1                      ACALL OTALIN              Empty buffer
 000D34                             9465                       END
 000D34 1B44                        9469                       CLEAR R4                  Clear output count
 000D36 1B33                        9473                       SR    R3,R3               Set no words
 000D38 94FD 6000      00000        9474                       CLEAR ALFSOME
 000D3C 48F0 6006            00006  9481                       LH    R15,ALINDPA         Set for paragraph
 000D40 40F0 6008            00008  9482                       STH   R15,ALINDNT
 000D44 40F0 600C            0000C  9483                       STH   R15,ALWPBC          Also set indent value allowed
 000D48 94FB 6000      00000        9484                       CLEAR ALFEBL              Reset extra blanks switch
 000D4C 1222                        9491                       LTR   R2,R2               Marker
 000D4E 4770 738C            00D7E  9492                       BNZ   LNOUT               Br if so
 000D52 1200                        9493                       LTR   R0,R0               Test input line
 000D54 4720 7048            00A3A  9494                       BP    DOLEAD              Br if indented line
 000D58 4780 738C            00D7E  9495                       BZ    LNOUT               Br if blank line
                                    9496              * process end of range
 000D5C 9180 6000/4710_00000        9497                       IF    ~ALFNUMB,'ACALL RENUMB'  renumber the old range
 000D6A 5800 601C            0001C  9521                       L     R0,ALWSAVE+8        Get first line in range
 000D6E 5000 BD8C            00D8C  9522                       ST    R0,CPNWLN           Reset cpnwln for range
 000D72 5000 602C            0002C  9523                       ST    R0,ALFRSTSV         Save as first line no used
 000D76 5000 BE14            00E14  9524                       ST    R0,CPWKPS           Set new work line no.
 000D7A 47F0 7028            00A1A  9525                       B     NEWRNGEC            Go process line for new rnge
                                    9526
 000D7E 1851                        9527              LNOUT    LR    R5,R1               Point at text
 000D80 1840                        9528                       LR    R4,R0
 000D82 58E0 753E/0DEE       00F30  9529                       ACALL OTALIN              Output line
 000D88 1B44                        9533                       CLEAR R4                  Set buffer empty
 000D8A 9108 6000/47E0_00000        9537                       IF    ALFPARA,BEGIN       Only do one paragraph
 000D92 9610 BD5A      00D5A        9552  1                      SET   CPFRQUIT            Quit range
 000D96                             9558                       END
                                    9562
 000D96 9035 6014            00014  9563              NEXTLINE STM   R3,R5,ALWSAVE       Save output pointers
 000D9A 9101 6000/47E0_00000        9564                       IF    ALFSTOP,BEGIN       Time to quit
 000DA2 9610 BD5A      00D5A        9579  1                      SET   CPFRQUIT            Quit range
 000DA6                             9585                       END
 000DA6 18D8/9808 D004_             9589                       PEND
1TEXT     (TEXT2025) (12:57) (15MAR04) ALIGN/JUSTIFY Commands                                                               Page   20
0Current Usings:  (ALWA,R6) (CP,R11) (CV,R12)
0Loc    Object Code    Addr1 Addr2  Stmt Lv Lineno    Source Statement           (Hibal 5, Asmedit 3.3)  HLASM R4.0  2004/03/15 12.57
+___    ______ ____    _____ _____  ____ __ ______    ______ _________
0DROP   *,R7
                                    9609                       DROP  BR
1TEXT     (TEXT2025) (12:57) (15MAR04) ALIGN/JUSTIFY Commands                                                               Page   21
0Current Usings:  (ALWA,R6) (CP,R11) (CV,R12)
0Loc    Object Code    Addr1 Addr2  Stmt Lv Lineno    Source Statement           (Hibal 5, Asmedit 3.3)  HLASM R4.0  2004/03/15 12.57
+___    ______ ____    _____ _____  ____ __ ______    ______ _________
0                                   9614              * output aligned lines routine
                                    9615              *        pointer - r5
                                    9616              *        count - r4
                                    9617              *        return - rar
                                    9618              *        r0,r1,r15 - free
                                    9619              *
 000DB4 50E0 D000/9008_      00000  9620              OTALIN   PROC
 USING  *,R7
 000DCE D203 B73C BE14 0073C 00E14  9659                       MVC   CPLCNO,CPWKPS       Set cplcno in case last
 000DD4 4110 BE14            00E14  9660                       LA    R1,CPWKPS           Saved line no
 000DD8 58E0 7182/0DEE       00F50  9661                       VCALL LOCATE              Setup for dorpin & check if line n
 000DDE 9108 BD84/47E0_00D84        9665                       IF    CPDRPT.CPFMTCH,BEGIN  line already exists...
 000DE6 4110 71D0/4100_      00F9E  9681  1                      TSEG  'No line-number available, the following text lost:',,WR
 000DF8 1815/1804                   9699  1                      SETMSG (R5),(R4)
 000DFC 47F0 C7C8            007C8  9711  1                      B     CVERRMSG
 000E00                             9712                       END
 000E00 D203 BD8C B73C 00D8C 0073C  9716                       MVC   CPNWLN,CPLCNO       Set next line for despot
 000E06 94DF BD53      00D53        9717                       CLEAR CPLFLG4.CPFDESET    Reset flag from previous call
 000E0A 91C0 BD84      00D84        9725                       TM    CPDRPT,CPFNTYT+CPFHIGH  see if next line exists
 000E0E 4770 7048            00E16  9726                       BNZ   NOLINE              Branch no around flag set
 000E12 9620 BD53      00D53        9727                       OI    CPLFLG4,CPFDESET    Tell despot that line set
 000E16 D203 B73C BE14 0073C 00E14  9728              NOLINE   MVC   CPLCNO,CPWKPS       Set to lineno we will use
 000E1C 9120 BD54/4710_00D54        9729                       IF    ~CPLFLG5.CPFNLST,BEGIN    list line...
 000E24 1815/1804                   9745  1                      SETMSG (R5),(R4)
 000E28 58E0 718A/0DEE       00F58  9757  1                      VCALL LISTLINE
 000E2E 1B00/41F0 B050_             9761  1                      IF    ('TWRITE',NZ),'SET ALFSTOP'  attn
 000E42                             9809                       END
 000E42 58F0 B73C            0073C  9813                       L     R15,CPLCNO          Lineno
 000E46 50F0 B5A8            005A8  9814                       ST    R15,CPACLNO         Set current line
 000E4A 1815                        9815                       LR    R1,R5               Pointer to r1
 000E4C 1804                        9816                       LR    R0,R4               Count to r0
 000E4E 58E0 718E/0DEE       00F5C  9817                       VCALL PRESS               Press
 000E54 58E0 7192/0DEE       00F60  9821                       VCALL STOW                Put away
 000E5A 5800 BE14            00E14  9825                       L     R0,CPWKPS           Line no used
 000E5E 4110 0001            00001  9826                       LA    R1,1                Kick minimum
 000E62 58E0 7196/0DEE       00F64  9827                       VCALL ADDER
 000E68 5000 BE14            00E14  9831                       ST    R0,CPWKPS           Save as default for next
 000E6C 18D8/9808 D004_             9832                       PEND
 DROP   *,R7
1TEXT     (TEXT2025) (12:57) (15MAR04) ALIGN/JUSTIFY Commands                                                               Page   22
0Current Usings:  (ALWA,R6) (CP,R11) (CV,R12)
0Loc    Object Code    Addr1 Addr2  Stmt Lv Lineno    Source Statement           (Hibal 5, Asmedit 3.3)  HLASM R4.0  2004/03/15 12.57
+___    ______ ____    _____ _____  ____ __ ______    ______ _________
0                                   9853              * do a local renumber of last section done by align
 000E7A 50E0 D000/9008_      00000  9854              RENUMB   PROC
 USING  *,R7
 000E94 5850 BE14/1255       00E14  9893                       LT    R5,CPWKPS           Get next number to use
 000E9A 4740 7052            00EE6  9897                       BM    RENUMBEX            Branch no to exit
 000E9E 0650                        9898                       DECR  R5                  Reduce by one
 000EA0 5050 BE14            00E14  9900                       ST    R5,CPWKPS           Set to last number used
 000EA4 5B50 602C            0002C  9901                       S     R5,ALFRSTSV         Get line count - 1
 000EA8 47D0 7052            00EE6  9902                       BNP   RENUMBEX            Exit if not positive
                                    9903
 000EAC 58F0 BE14            00E14  9904                       L     R15,CPWKPS          Last line number
 000EB0 5AF0 C4D0            004D0  9905                       A     R15,CVONE
 000EB4 58E0 70D4/0DEE       00F68  9906                       VCALL GETLNO              Next line-number
 000EBA 47B0 702E/5810_      00EC2  9910                       IF    NEG,'L R1,CVMAXLNO'
 000EC2 7032/47F0 7038_00EC2 00EBC  9927                       ELSE  'L R1,CPLCNO; DECR R1'  R1 = last line-number
 000ECC 5800 602C            0002C  9946                       L     R0,ALFRSTSV         R0 = first line-number
 000ED0 1B22                        9947                       CLEAR R2                  R2 = delta (0 = calculate)
 000ED2 1830                        9951                       LR    R3,R0               R3 = starting lineno
 000ED4 58E0 70D8/0DEE       00F6C  9952                       VCALL NUMRANGE            Re-number the range
 000EDA 4770 7052            00EE6  9956                       IF    Z,BEGIN
 000EDE 5020 BE18            00E18  9967  1                      ST    R2,CPWKDL           Save new delta
 000EE2 5000 B5A8            005A8  9968  1                      ST    R0,CPACLNO          Update current line pointer
 000EE6                             9969                       END
                                    9973
 000EE6 18D8/9808 D004_             9974              RENUMBEX PEND
 DROP   *,R7
                                    9995
 DROP   ALWA,R6                     9996                       DROP  ALWA
                                   10004                       QLTORG
1TEXT     (TEXT2025) (12:57) (15MAR04) SORT command and routines                                                            Page   23
0Current Usings:  (CP,R11) (CV,R12)
0Loc    Object Code    Addr1 Addr2  Stmt Lv Lineno    Source Statement           (Hibal 5, Asmedit 3.3)  HLASM R4.0  2004/03/15 12.57
+___    ______ ____    _____ _____  ____ __ ______    ______ _________
0                                  10050              ¿þþþþþþþþþþþþþþþþþþþþþþþþþþþþþþþþþþþþþþþþþþþþþþþþþþþþþþþþþþþþþþþþþþþþþÜ
                                   10051              Ÿ                                                                     Ÿ
                                   10052              Ÿ                                                                     Ÿ
                                   10053              Ÿ  SORT - COMMAND                                                     Ÿ
                                   10054              Ÿ                                                                     Ÿ
                                   10055              Ÿ                                                                     Ÿ
                                                      ¾þþþþþþþþþþþþþþþþþþþþþþþþþþþþþþþþþþþþþþþþþþþþþþþþþþþþþþþþþþþþþþþþþþþþþ»
0000000                00000 00040 10056              SORTWA   RECORD BEGIN
 000000                            10064  1           STMEM      DS    F                   SORT MEMORY
 000004                            10065  1           STMEMEND   DS    F                   END OF SORT MEMORY
 000008                            10066  1           STLIST1    DS    F                   SORT LIST
 00000C                            10067  1           STLIST2    DS    F                   SECONDARY SORT LIST
 000010                            10068  1           STLISTPT   DS    F                   LIST POINTER
 000014                            10069  1           STTEXTPT   DS    F                   TEXT POINTER
 000018                            10070  1           STFRSTLN   DS    F                   1ST LINE TO SORT
 00001C                            10071  1           STLASTLN   DS    F                   LAST LINE TO SORT
 000020                            10072  1           STCOUNT    DS    F                   SORT LINE COUNT
 000024                            10073  1           STCOL1     DS    F                   COL 1
 000028                            10074  1           STCOL2     DS    F                   COL 2
 00002C                            10075  1           STTRTAB    DS    F                   TRANSLATE TABLE
 000030                            10076  1           STPAD      DS    F                   PAD CHAR
 000034 00                         10077  1           STFLAGS    FLAG  ,
 STFLAGS.STFREV    80 ONES         10081  1                      FLAG  STFREV              DECENDING SORT
 STFLAGS.STFDEL    40 ONES         10086  1                      FLAG  STFDEL              DELETE DUPLICATES
 000038                            10091  1           STLINENO   DS    F                   OUTPUT LINENO
 00003C                            10092  1           STDELTA    DS    F                   OUTPUT DELTA
 000040                00040 00040 10093                       END
                                   10102
 000000                00000 00040 10103              STWA     RECORD BEGIN
 000000                            10111  1           STSORTWA   DS    (L'SORTWA)X
 000040                00040 00040 10112                       END
                                   10121              *
                                   10122              *
 000FDC 50E0 D000/9008_      00000 10123              SORT     XPROC STWA
 USING  *,R7
 USING  STWA-(4+36),R8
 DROP   STWA-(4+36),R8             10174                       USING STWA,WAR
 USING  STWA,R8
 USING  SORTWA,R6                  10186                       USING SORTWA,R6
 000FF6 4160 8000            00000 10195                       LA    R6,STSORTWA
                                   10196
                                   10197                       COMMENT                   INIT WORK AREA
 000FFA D73F 6000 6000 00000 00000 10198                       CLEAR SORTWA
 001000 D203 6038 780A 00038 01800 10205                       MVC   STLINENO,=F'1000'
 001006 D203 603C 780A 0003C 01800 10206                       MVC   STDELTA,=F'1000'
 00100C D203 6030 780E 00030 01804 10207                       MVC   STPAD,=A(X'40000000')
                                   10208
                                   10209                       COMMENT                   CHECK FOR ACTIVE FILE
 001012 58E0 7812/0DEE       01808 10210                       VCALL CHKACT
                                   10214
                                   10215                       COMMENT                   PROCESS RANGE
 001018 9610 BD50      00D50       10216                       SET   CPLFLG1.CPFALL      DEFAULT IS ALL
 00101C 58E0 7816/0DEE       0180C 10223                       VCALL NDETRNG
1TEXT     (TEXT2025) (12:57) (15MAR04) SORT command and routines                                                            Page   24
0Current Usings:  (SORTWA,R6) (*,R7) (STWA,R8) (CP,R11) (CV,R12)
0Loc    Object Code    Addr1 Addr2  Stmt Lv Lineno    Source Statement           (Hibal 5, Asmedit 3.3)  HLASM R4.0  2004/03/15 12.57
+___    ______ ____    _____ _____  ____ __ ______    ______ _________
0001022 9140 BD88/47E0_00D88       10227                       IF    CPFSTRRG,BEGIN
 00102A 4110 78A8/4100_      0189E 10242  1                      ERROR 'Associative range not allowed. '
 001036                            10249                       END
 001036 9104 BD88/47E0_00D88       10253                       IF    CPFDSJNT,BEGIN
 00103E 4110 781A/4100_      01810 10268  1                      ERROR 'Disjoint range not allowed. '
 00104A                            10275                       END
 00104A D203 6018 BD90 00018 00D90 10279                       MVC   STFRSTLN,CPFSLN
 001050 D503 7836 6018_0182C 00018 10280                       IF    (STFRSTLN,LT,1000),BEGIN
 00105A D203 6018 780A 00018 01800 10298  1                      MVC   STFRSTLN,=F'1000'
 001060                            10299                       END
 001060 D203 601C BD94 0001C 00D94 10303                       MVC   STLASTLN,CPLSLN
 001066 D503 601C C15C_0001C 0015C 10304                       IF    (STLASTLN,GT,CVMAXLNO),BEGIN
 001070 D703 601C 601C 0001C 0001C 10322  1                      CLEAR STLASTLN
 001076                            10329                       END
 001076 9104 BD50/47E0_00D50       10333                       IF    CPLFLG1.CPFALLV,BEGIN IF ALL, OVERRIDE ACTUAL
 00107E D203 6018 780A 00018 01800 10349  1                      MVC   STFRSTLN,=F'1000'
 001084 D203 601C C15C 0001C 0015C 10350  1                      MVC   STLASTLN,CVMAXLNO
 00108A                            10351                       END
                                   10355
                                   10356                       COMMENT                   SCAN SORT COMMAND
 00108A 5810 B08C/1B00_      0008C 10357                       SCAN  SORTPRT
 0010DC 58E0 7842/0DEE       01838 10389                       SCANCHK
                                   10394
                                   10395                       COMMENT                   GET MEMORY FOR SORT
 0010E2 58E0 7846/0DEE       0183C 10396                       ACALL STGETMEM
 0010E8 5010 6000            00000 10400                       ST    R1,STMEM
 0010EC 1A10                       10401                       AR    R1,R0
 0010EE 5010 6004            00004 10402                       ST    R1,STMEMEND
                                   10403
                                   10404                       COMMENT                   GET TEXT TO SORT W/CO-ROUTINE
 0010F2 4110 6000            00000 10405                       LA    R1,SORTWA
 0010F6 5010 BCA4            00CA4 10406                       ST    R1,CPCWA            WORK AREA ADDR FOR CO-ROUTINE
 0010FA 5800 784A/5810_      01840 10407                       RDRNG STGETTXT,(DESRTRN+LOCATRTN+DESABORT+UNPRST)
 001108 4780 712C            01122 10414                       IF    NZ,BEGIN            IF ATTENTION, ABORT SORT
 00110C 5810 6000            00000 10425  1                      L     R1,STMEM
 001110 58E0 7856/0DEE       0184C 10426  1                      VCALL FREECORE
 001116 4110 78C7/4100_      018BD 10430  1                      ERROR 'Sort Aborted.'
 001122                            10437                       END
                                   10441
                                   10442                       COMMENT                   IF DECENDING, REVERSE LIST
 001122 9180 6034/47E0_00034       10443                       IF    STFREV,BEGIN
 00112A 5800 6020            00020 10458  1                      L     R0,STCOUNT
 00112E 5810 6008            00008 10459  1                      L     R1,STLIST1
 001132 5820 600C            0000C 10460  1                      L     R2,STLIST2
 001136 58E0 785A/0DEE       01850 10461  1                      ACALL STLISTRV
 00113C                            10465                       END
                                   10469
                                   10470                       COMMENT                   NOW SORT TEXT !!
 00113C 5800 6020            00020 10471                       L     R0,STCOUNT          R1,R0 - LIST
 001140 8900 0002            00002 10472                       SLL   R0,2
 001144 5810 6008            00008 10473                       L     R1,STLIST1
 001148 5820 600C            0000C 10474                       L     R2,STLIST2          R2 - SECONDARY LIST
 00114C 5830 6024            00024 10475                       L     R3,STCOL1           R3,R4 - FIELD COL
 001150 5840 6028            00028 10476                       L     R4,STCOL2
1TEXT     (TEXT2025) (12:57) (15MAR04) SORT command and routines                                                            Page   25
0Current Usings:  (SORTWA,R6) (*,R7) (STWA,R8) (CP,R11) (CV,R12)
0Loc    Object Code    Addr1 Addr2  Stmt Lv Lineno    Source Statement           (Hibal 5, Asmedit 3.3)  HLASM R4.0  2004/03/15 12.57
+___    ______ ____    _____ _____  ____ __ ______    ______ _________
0001154 5850 602C            0002C 10477                       L     R5,STTRTAB
 001158 58F0 6030            00030 10478                       L     R15,STPAD
 00115C 58E0 785E/0DEE       01854 10479                       ACALL SORTLIST            SORT LIST
 001162 5910 600C/4770_      0000C 10483                       IF    (R1,EQ,STLIST2),BEGIN  IF SORTED LIST IN LIST2
 00116A D203 600C 6008 0000C 00008 10500  1                      MVC   STLIST2,STLIST1     EXCHANGE LIST POINTERS
 001170 5010 6008            00008 10501  1                      ST    R1,STLIST1
 001174                            10502                       END   ,                   SORTED LIST NOW IN STLIST1
                                   10506
                                   10507                       COMMENT                   CLEAR ACTIVE
 001174 5800 6018            00018 10508                       L     R0,STFRSTLN
 001178 5810 601C            0001C 10509                       L     R1,STLASTLN
 00117C 58E0 7862/0DEE       01858 10510                       VCALL DELRANGE
                                   10514
                                   10515                       COMMENT                   CALCULATE NEW DELTA
 001182 5800 6018            00018 10516                       L     R0,STFRSTLN
 001186 5810 601C            0001C 10517                       L     R1,STLASTLN
 00118A 5820 6020            00020 10518                       L     R2,STCOUNT
 00118E 58E0 7866/0DEE       0185C 10519                       ACALL AUTODELT
 001194 4780 71A4            0119A 10523                       IF    NZ,BEGIN
 001198 0000                       10534  1                      BOMB
 00119A                            10536                       END
 00119A 5000 6038            00038 10540                       ST    R0,STLINENO
 00119E 5010 603C            0003C 10541                       ST    R1,STDELTA
                                   10542
                                   10543                       COMMENT                   IF DECENDING, REVERSE LIST
 0011A2 9180 6034/47E0_00034       10544                       IF    STFREV,BEGIN
 0011AA 5800 6020            00020 10559  1                      L     R0,STCOUNT
 0011AE 5810 6008            00008 10560  1                      L     R1,STLIST1
 0011B2 5820 600C            0000C 10561  1                      L     R2,STLIST2
 0011B6 58E0 785A/0DEE       01850 10562  1                      ACALL STLISTRV
 0011BC                            10566                       END
                                   10570
                                   10571                       COMMENT                   IF DELETE, DELETE LINES WITH
                                   10572                       COMMENT                   DUPLICATE FIELDS
 0011BC 9140 6034/47E0_00034       10573                       IF    STFDEL,BEGIN
 0011C4 5800 6020            00020 10588  1                      L     R0,STCOUNT          R1,R0 - LIST
 0011C8 5810 6008            00008 10589  1                      L     R1,STLIST1
 0011CC 5830 6024            00024 10590  1                      L     R3,STCOL1           R3,R4 - FIELD COL
 0011D0 5840 6028            00028 10591  1                      L     R4,STCOL2
 0011D4 5850 602C            0002C 10592  1                      L     R5,STTRTAB
 0011D8 58F0 6030            00030 10593  1                      L     R15,STPAD
 0011DC 58E0 786A/0DEE       01860 10594  1                      ACALL SDELETE             DELETE
 0011E2 5000 6020            00020 10598  1                      ST    R0,STCOUNT
 0011E6                            10599                       END
                                   10603
                                   10604                       COMMENT                   WRITE OUT SORTED ACTIVE
 0011E6 5840 6008            00008 10605                       L     R4,STLIST1          R4,R5 - START,END OF SORTED LIST
 0011EA 5850 6020            00020 10606                       L     R5,STCOUNT
 0011EE 8950 0002            00002 10607                       SLL   R5,2
 0011F2 1A54                       10608                       AR    R5,R4
 0011F4 1945/47B0 722E             10609                       WHILE (R4,LT,R5),BEGIN
 0011FA 5814 0000            00000 10626  1                      L     R1,0(R4)
 0011FE 4801 0000            00000 10627  1                      LH    R0,0(R1)
 001202 4111 0002            00002 10628  1                      LA    R1,2(R1)
1TEXT     (TEXT2025) (12:57) (15MAR04) SORT command and routines                                                            Page   26
0Current Usings:  (SORTWA,R6) (*,R7) (STWA,R8) (CP,R11) (CV,R12)
0Loc    Object Code    Addr1 Addr2  Stmt Lv Lineno    Source Statement           (Hibal 5, Asmedit 3.3)  HLASM R4.0  2004/03/15 12.57
+___    ______ ____    _____ _____  ____ __ ______    ______ _________
0001206 58F0 6038            00038 10629  1                      L     R15,STLINENO
 00120A 58E0 786E/0DEE       01864 10630  1                      VCALL PUTLINE
 001210 58F0 6038            00038 10634  1                      L     R15,STLINENO
 001214 5AF0 603C            0003C 10635  1                      A     R15,STDELTA
 001218 50F0 6038            00038 10636  1                      ST    R15,STLINENO
 00121C 4144 0004            00004 10637  1                      LA    R4,4(R4)
 001220 47F0 71FE            011F4 10638                       END
                                   10643
                                   10644                       COMMENT                   FREE SORT MEMORY !!!!
 001224 5810 6000            00000 10645                       L     R1,STMEM
 001228 58E0 7856/0DEE       0184C 10646                       VCALL FREECORE
                                   10650
                                   10651                       COMMENT                   GIVE TERMINATION MESSAGE
 00122E 5800 6020            00020 10652                       L     R0,STCOUNT
 001232 1810/1B00/41F0_            10653                       TNUM  (R0)
 001240 4110 78D4/4100_      018CA 10675                       TSEG  ' lines sorted. '
                                   10693
 001252 47F0 C7DE            007DE 10694                       B     CVNEXT              ALL DONE, EXIT
                                   10695
 001256 1BFF                       10696                       CLEAR R15
 001258 18D8/9808 D004_            10700                       PEND ,                    NEVER EXECUTED, WE EXIT ABOVE
 DROP   STWA,R8
 DROP   *,R7
-                                  10726              *
                                   10727              * SORT SCAN ROUTINES
                                   10728              *
 001268 C3D6D3E4D4D5E240_          10729              SORTPRT  SCKW  COLUMNS,STCOLMN,(A,P,PI),&LINESZ
 001290 C3D6D3E240404040_          10744                       SCKW  COLS,STCOLMN,(A,P,PI),&LINESZ
 0012B8 C440404040404040_          10759                       SCKW  D,STREVRSE
 0012E0 C4C5E2C3C5D5C4C9_          10774                       SCKW  DESCENDING,STREVRSE,A
 001308 C4C5D3C5E3C54040_          10789                       SCKW  DELETE,STDELETE,A
 001330 D5D6C3C1E2C54040_          10804                       SCKW  NOCASE,STNOCASE
 001358 E4D7D3D6E6404040_          10819                       SCKW  UPLOW,STNOCASE,A
 001380 C8C5E74040404040_          10834                       SCKW  HEX,STHEX
 0013A8 4040404040404040_          10849                       SCKW  ,V(SCNINVAL)
-0013D0 6140404040404040_          10865              SORTPRT2 SCKW  /,STCOLMN2,(P,PI),&LINESZ
 0013F8 4040404040404040_          10880                       SCKW  ,STSCNRES
-                                  10896                       ¿þþþþþþþþþþþþþþþþÜ
                                   10897                       Ÿ  COLUMN = ...  Ÿ
                                   10898                       ¾þþþþþþþþþþþþþþþþ»
 001420 50E0 D000/9008_      00000 10899              STCOLMN  PROC  ,
 USING  *,R7
 00143A 5000 6024            00024 10938                       ST    R0,STCOL1
 00143E 58E0 B08C/D2AF_      0008C 10939                       SCPUSH ,
 00144C 5810 B08C/1B00_      0008C 10945                       SCAN  SORTPRT2
 00149E 58E0 73FE/0DEE       01838 10977                       SCANCHK
 0014A4 59F0 743A/4770_      01874 10982                       IF    (R15,EQ,8),BEGIN
 0014AC 58E0 B08C/4BD0_      0008C 10999  1                      SCPOP
1TEXT     (TEXT2025) (12:57) (15MAR04) SORT command and routines                                                            Page   27
0Current Usings:  (SORTWA,R6) (*,R7) (CP,R11) (CV,R12)
0Loc    Object Code    Addr1 Addr2  Stmt Lv Lineno    Source Statement           (Hibal 5, Asmedit 3.3)  HLASM R4.0  2004/03/15 12.57
+___    ______ ____    _____ _____  ____ __ ______    ______ _________
00014BA                            11005                       END
 0014BA 1BFF                       11009                       CLEAR R15
 0014BC 18D8/9808 D004_            11013                       PEND
 DROP   *,R7
-0014CA 50E0 D000/9008_      00000 11034              STCOLMN2 PROC
 USING  *,R7
 0014E4 5000 6028            00028 11073                       ST    R0,STCOL2
 0014E8 5B00 6024            00024 11074                       S     R0,STCOL1
 0014EC 5A00 7394            01878 11075                       A     R0,=F'1'
 0014F0 4720 701C            01500 11076                       IF    NP,BEGIN
 0014F4 4110 739C/4100_      01880 11087  1                      ERROR 'Invalid COLUMN specification. '
 001500                            11094                       END
 001500 41F0 0004            00004 11098                       LA    R15,4
 001504 18D8/9808 D004_            11099                       PEND
 DROP   *,R7
-001512 50E0 D000/9008_      00000 11120              STSCNRES DPROC ,
 USING  *,R7
 00152C 41F0 0008            00008 11160                       LA    R15,8
 001530 18D8/9808 D004_            11161                       PEND
 DROP   *,R7
-                                  11182                       ¿þþþþþþþþþþþþþÜ
                                   11183                       Ÿ  DECENDING  Ÿ
                                   11184                       ¾þþþþþþþþþþþþþ»
 00153E 50E0 D000/9008_      00000 11185              STREVRSE DPROC ,
 USING  *,R7
 001558 9680 6034      00034       11225                       SET   STFREV
 00155C 1BFF                       11231                       CLEAR R15
 00155E 18D8/9808 D004_            11235                       PEND
 DROP   *,R7
-                                  11256                       ¿þþþþþþþþþþÜ
                                   11257                       Ÿ  DELETE  Ÿ
                                   11258                       ¾þþþþþþþþþþ»
 00156C 50E0 D000/9008_      00000 11259              STDELETE DPROC ,
 USING  *,R7
 001586 9640 6034      00034       11299                       SET   STFDEL
 00158A 1BFF                       11305                       CLEAR R15
 00158C 18D8/9808 D004_            11309                       PEND
 DROP   *,R7
-                                  11330                       ¿þþþþþþþþþþÜ
                                   11331                       Ÿ  NOCASE  Ÿ
                                   11332                       ¾þþþþþþþþþþ»
 00159A 50E0 D000/9008_      00000 11333              STNOCASE PROC  ,
 USING  *,R7
 0015B4 4110 704C            01600 11372                       LA    R1,NOCASETB
1TEXT     (TEXT2025) (12:57) (15MAR04) SORT command and routines                                                            Page   28
0Current Usings:  (SORTWA,R6) (*,R7) (CP,R11) (CV,R12)
0Loc    Object Code    Addr1 Addr2  Stmt Lv Lineno    Source Statement           (Hibal 5, Asmedit 3.3)  HLASM R4.0  2004/03/15 12.57
+___    ______ ____    _____ _____  ____ __ ______    ______ _________
00015B8 5010 602C            0002C 11373                       ST    R1,STTRTAB
 0015BC 1BFF                       11374                       CLEAR R15
 0015BE 18D8/9808 D004_            11378                       PEND
 DROP   *,R7
-                                  11399                       ¿þþþþþþþþþþþþþþþþþþþþþÜ
                                   11400                       Ÿ  HEX NUMBER STRING  Ÿ
                                   11401                       ¾þþþþþþþþþþþþþþþþþþþþþ»
 0015CC 50E0 D000/9008_      00000 11402              STHEX    PROC  ,
 USING  *,R7
 0015E6 4110 711A            01700 11441                       LA    R1,HEXTB
 0015EA 5010 602C            0002C 11442                       ST    R1,STTRTAB
 0015EE 1BFF                       11443                       CLEAR R15
 0015F0 18D8/9808 D004_            11447                       PEND
 DROP   *,R7
-                                  11468              *
                                   11469              *  TRANSLATION TABLES
                                   11470              *
                                   11471              *
 0015FE 0000
 001600                            11472                       DC    0F'0'
 001600                            11473              NOCASETB LABEL ,
 001600 0001020304050607           11475                       DC    256AL1(*-NOCASETB)
 001700                01700 016C1 11476                       ORG   NOCASETB+C'A'
 0016C1 8182838485868788           11477                       DC    C'abcdefghi'        TREAT UPPER AS LOWER CASE
 0016CA                016CA 016D1 11478                       ORG   NOCASETB+C'J'
 0016D1 9192939495969798           11479                       DC    C'jklmnopqr'        TREAT UPPER AS LOWER CASE
 0016DA                016DA 016E2 11480                       ORG   NOCASETB+C'S'
 0016E2 A2A3A4A5A6A7A8A9           11481                       DC    C'stuvwxyz'         TREAT UPPER AS LOWER CASE
 0016EA                016EA 01700 11482                       ORG   ,
                                   11483
 001700                            11484                       DC    0F'0'
 001700                            11485              HEXTB    LABEL ,
 001700 0001020304050607           11487                       DC    256AL1(*-HEXTB)
 001800                01800 017C1 11488                       ORG   HEXTB+C'A'          TREAT HEX CHARS AS HEX
 0017C1 FAFBFCFDFEFF               11489                       DC    X'FAFBFCFDFEFF'
 0017C7                017C7 01781 11490                       ORG   HEXTB+C'a'
 001781 FAFBFCFDFEFF               11491                       DC    X'FAFBFCFDFEFF'
 001787                01787 01800 11492                       ORG   ,
1TEXT     (TEXT2025) (12:57) (15MAR04) SORT command and routines                                                            Page   29
0Current Usings:  (SORTWA,R6) (CP,R11) (CV,R12)
0Loc    Object Code    Addr1 Addr2  Stmt Lv Lineno    Source Statement           (Hibal 5, Asmedit 3.3)  HLASM R4.0  2004/03/15 12.57
+___    ______ ____    _____ _____  ____ __ ______    ______ _________
0                                  11494                       QLTORG
1TEXT     (TEXT2025) (12:57) (15MAR04) SORT command and routines                                                            Page   30
0Current Usings:  (SORTWA,R6) (CP,R11) (CV,R12)
0Loc    Object Code    Addr1 Addr2  Stmt Lv Lineno    Source Statement           (Hibal 5, Asmedit 3.3)  HLASM R4.0  2004/03/15 12.57
+___    ______ ____    _____ _____  ____ __ ______    ______ _________
0                                  11538              *
                                   11539              **
                                   11540              **  GET SORT MEMORY
                                   11541              **
                                   11542              **  RETURNS:
                                   11543              **    R0 - MEMORY LEN
                                   11544              **    R1 - MEMORY AREA
                                   11545              **
                                   11546              **  MEMORY NEEDED =
                                   11547              **     2 LISTS OF MEMORY POINTERS (LINE COUNT LONG) +
                                   11548              **     AREA FOR TEXT AND TEXT LENGTH POINTERS (BYTE COUNT +
                                   11549              **     2*LINE COUNT)
                                   11550              **
                                   11551              **
                                   11552              **
                                   11553              *
 0018DA 50E0 D000/9008_      00000 11554              STGETMEM PROC
 USING  *,R7
                                   11593
 0018F4 5810 B5AC            005AC 11594                       L     R1,CPALNCT
 0018F8 8910 0003            00003 11595                       SLL   R1,3                LINE COUNT * 8
 0018FC 5820 B5AC            005AC 11596                       L     R2,CPALNCT
 001900 8920 0001            00001 11597                       SLL   R2,1                LINE COUNT * 2
 001904 5830 B5B0            005B0 11598                       L     R3,CPABYCT          BYTE COUNT
 001908 5840 78AC            021A0 11599                       L     R4,=F'16384'        16K FUDGE FACTOR
 00190C 1A12                       11600                       AR    R1,R2
 00190E 1A13                       11601                       AR    R1,R3
 001910 1A14                       11602                       AR    R1,R4
 001912 8810 0007            00007 11603                       SRL   R1,7
 001916 8910 0007            00007 11604                       SLL   R1,7
 00191A 1801                       11605                       LR    R0,R1
 00191C 58E0 78B0/0DEE       021A4 11606                       VCALL GETCORE             GET MEMORY
                                   11610
 001922 9001 8004            00004 11611                       PRETURN (R0,R1)
 001926 18D8/9808 D004_            11613                       PEND
 DROP   *,R7
1TEXT     (TEXT2025) (12:57) (15MAR04) SORT command and routines                                                            Page   31
0Current Usings:  (SORTWA,R6) (CP,R11) (CV,R12)
0Loc    Object Code    Addr1 Addr2  Stmt Lv Lineno    Source Statement           (Hibal 5, Asmedit 3.3)  HLASM R4.0  2004/03/15 12.57
+___    ______ ____    _____ _____  ____ __ ______    ______ _________
0                                  11634              ¿þþþþþþþþþþþþþþþþþþþþþþþþþþþþþþþþþþþþþþþþþþþþþþþþþþþþþþþþþþþþþþþþþþþþþÜ
                                   11635              Ÿ                                                                     Ÿ
                                   11636              Ÿ                                                                     Ÿ
                                   11637              Ÿ  STGETTXT - SORT CO-ROUTINE                                         Ÿ
                                   11638              Ÿ                                                                     Ÿ
                                   11639              Ÿ  GET TEXT INTO MEMORY                                               Ÿ
                                   11640              Ÿ  THIS ROUTINE ENTERED ONCE FOR EACH LINE IN RANGE                   Ÿ
                                   11641              Ÿ                                                                     Ÿ
                                   11642              Ÿ  ON ENTRY:                                                          Ÿ
                                   11643              Ÿ        R1,R0 - LINE LOC,LEN                                         Ÿ
                                   11644              Ÿ                                                                     Ÿ
                                   11645              Ÿ                                                                     Ÿ
                                                      ¾þþþþþþþþþþþþþþþþþþþþþþþþþþþþþþþþþþþþþþþþþþþþþþþþþþþþþþþþþþþþþþþþþþþþþ»
0001934 50E0 D000/9008_      00000 11646              STGETTXT PROC
 USING  *,R7
                                   11685                       USING SORTWA,R6
 00194E 5860 BCA4            00CA4 11687                       L     R6,CPCWA
                                   11688
                                   11689                       COMMENT                   FIRST TIME THRU SET UP
                                   11690                       COMMENT                   LIST AREA, TEXT AREAS ,,,
 001952 D503 784E 6020_0219C 00020 11691                       IF    (STCOUNT,EQ,0),BEGIN
 00195C 5840 6000            00000 11709  1                      L     R4,STMEM            R4 - LIST1
 001960 5040 6008            00008 11710  1                      ST    R4,STLIST1
 001964 5040 6010            00010 11711  1                      ST    R4,STLISTPT         R4 - LIST1 PTR
 001968 5850 B5AC            005AC 11712  1                      L     R5,CPALNCT          R5 - LIST LENGTH
 00196C 8950 0002            00002 11713  1                      SLL   R5,2
 001970 4155 0040            00040 11714  1                      LA    R5,64(R5)           CHICKEN
 001974 8850 0004            00004 11715  1                      SRL   R5,4
 001978 8950 0004            00004 11716  1                      SLL   R5,4
 00197C 1A45                       11717  1                      AR    R4,R5
 00197E 5040 600C            0000C 11718  1                      ST    R4,STLIST2          R4 - LIST 2
 001982 1A45                       11719  1                      AR    R4,R5
 001984 5040 6014            00014 11720  1                      ST    R4,STTEXTPT         R5 - TEXT AREA
 001988                            11721                       END
                                   11725
                                   11726                       COMMENT                   COUNT LINES SORTED
 001988 58F0 6020            00020 11727                       L     R15,STCOUNT
 00198C 5EF0 785A            021A8 11728                       INCR  R15
 001990 50F0 6020            00020 11731                       ST    R15,STCOUNT
                                   11732
                                   11733                       COMMENT                   SAVE MAX, MIN LINE NUMBERS
 001994 58F0 B73C            0073C 11734                       L     R15,CPLCNO
 001998 59F0 6018/47B0_      00018 11735                       IF    (R15,LT,STFRSTLN),BEGIN
 0019A0 50F0 6018            00018 11752  1                      ST    R15,STFRSTLN
 0019A4                            11753                       END
 0019A4 59F0 601C/47D0_      0001C 11757                       IF    (R15,GT,STLASTLN),BEGIN
 0019AC 50F0 601C            0001C 11774  1                      ST    R15,STLASTLN
 0019B0                            11775                       END
                                   11779
                                   11780                       COMMENT                   SAVE LINE TEXT
                                   11781                       COMMENT                   R1,R0 -  LINE LOC,LEN
                                   11782                       COMMENT
 0019B0 5840 6010            00010 11783                       L     R4,STLISTPT         UPDATE LIST PTR
1TEXT     (TEXT2025) (12:57) (15MAR04) SORT command and routines                                                            Page   32
0Current Usings:  (SORTWA,R6) (*,R7) (CP,R11) (CV,R12)
0Loc    Object Code    Addr1 Addr2  Stmt Lv Lineno    Source Statement           (Hibal 5, Asmedit 3.3)  HLASM R4.0  2004/03/15 12.57
+___    ______ ____    _____ _____  ____ __ ______    ______ _________
00019B4 5820 6014            00014 11784                       L     R2,STTEXTPT
 0019B8 5024 0000            00000 11785                       ST    R2,0(R4)
 0019BC 4144 0004            00004 11786                       LA    R4,4(R4)
 0019C0 5040 6010            00010 11787                       ST    R4,STLISTPT
 0019C4 5840 6014            00014 11788                       L     R4,STTEXTPT         FILL IN TEXT AREA
 0019C8 4004 0000            00000 11789                       STH   R0,0(R4)
 0019CC 18E1                       11790                       LR    R14,R1
 0019CE 18F0                       11791                       LR    R15,R0
 0019D0 4124 0002            00002 11792                       LA    R2,2(R4)
 0019D4 1830                       11793                       LR    R3,R0
 0019D6 0E2E                       11794                       MVCL  R2,R14
 0019D8 5020 6014            00014 11795                       ST    R2,STTEXTPT         UPDATE TEXT PTR
 0019DC 4122 0100            00100 11796                       LA    R2,256(R2)
 0019E0 5920 6004/4750_      00004 11797                       IF    (R2,GE,STMEMEND),BEGIN  MEMORY OVERFLOW CHECK
 0019E8 5810 6000            00000 11814  1                      L     R1,STMEM
 0019EC 58E0 785E/0DEE       021AC 11815  1                      VCALL FREECORE
 0019F2 4110 7862/4100_      021B0 11819  1                      ERROR 'Sort memory overflow.  Sort aborted.'
 0019FE                            11826                       END
                                   11830
 0019FE 18D8/9808 D004_            11831                       PEND
 DROP   *,R7
 DROP   SORTWA,R6                  11851                       DROP  R6
1TEXT     (TEXT2025) (12:57) (15MAR04) SORT command and routines                                                            Page   33
0Current Usings:  (CP,R11) (CV,R12)
0Loc    Object Code    Addr1 Addr2  Stmt Lv Lineno    Source Statement           (Hibal 5, Asmedit 3.3)  HLASM R4.0  2004/03/15 12.57
+___    ______ ____    _____ _____  ____ __ ______    ______ _________
0                                  11859              *
                                   11860              *  SORTLIST - SORT LIST OF ENTRIES
                                   11861              *
                                   11862              *  ON ENTRY:
                                   11863              *    R0 - LIST LENGTH
                                   11864              *    R1 - LIST ADDRESS
                                   11865              *    R2 - SECONDARY LIST ADDRESS
                                   11866              *    R3 - FIRST COL (ZERO IF NONE)
                                   11867              *    R4 - 2ND COL (ZERO IF NONE)
                                   11868              *    R5 - TRANSLATE TABLE ADDRESS
                                   11869              *    R15 - PAD BYTE
                                   11870              *
                                   11871              *  ON EXIT:
                                   11872              *    R1 - SORTED LIST (MAY POINT TO SECONDARY LIST SPACE)
                                   11873              *
                                   11874              *  WE SORT BY MERGING SORTED MINI-LISTS, WE START WITH
                                   11875              *  MINI-LISTS OF ONE ENTRY AND DOUBLE THE MINI-LIST SIZE
                                   11876              *  UNTIL THE WHOLE THING IS SORTED.
                                   11877              *
                                   11878              *  REGISTER USAGE FOR LOOP
                                   11879              *    R14,R15,R0,R1  --- TEMP FOR CLCL, ETC
                                   11880              *    R2,R3 --- PTR,END OF MINI-LIST1
                                   11881              *    R4,R5 --- PRT,END OF MINI-LIST2
                                   11882              *    R6 --- OUTPUT LIST
                                   11883              *
                                   11884              *
 000000                00000 00334 11885              SLWA     RECORD BEGIN
 000000                            11893  1           SLIST1     DS    F
 000004                            11894  1           SLIST2     DS    F
 000008                            11895  1           SLISTLEN   DS    F
 00000C                            11896  1           SLIST      DS    F
 000010                            11897  1           SLISTEND   DS    F
 000014                            11898  1           SLCOL1     DS    F
 000018                            11899  1           SLCOL2     DS    F
 00001C                            11900  1           SLTRTAB    DS    F
 000020                            11901  1           SLPAD      DS    F
 000024                            11902  1           MLISTSIZ   DS    F                   MINI LIST SIZE (IN BYTES)
 000028 00                         11903  1           SLFLAG     FLAG
 SLFLAG.SLDONE     80 ONES         11907  1                      FLAG  SLDONE              MINI LIST MERGE LOOP FLAG
 00002C                            11912  1           SLFLDOFF   DS    F
 000030                            11913  1           SLFLDLEN   DS    F
 000034                            11914  1           SLBUF1     DS    CL256
 000134                            11915  1           SLBUF2     DS    CL256
 000234                            11916  1           SLTRBUF    DS    CL256
 000334                00334 00334 11917                       END
                                   11926              *
                                   11927              *
 001A0C 50E0 D000/9008_      00000 11928              SORTLIST PROC  SLWA
 USING  *,R7
 USING  SLWA-(4+36),R8
                                   11978
                                   11979                       COMMENT                   HANDLE SORT FIELD OPTIONS
                                   11980                       COMMENT                   SEPARATELY  (EFFICIENCY)
 001A26 1233/4770 700C_            11981                       IF    ((R3,NZ),OR,(R5,NZ)),BEGIN
1TEXT     (TEXT2025) (12:57) (15MAR04) SORT command and routines                                                            Page   34
0Current Usings:  (*,R7) (SLWA-(4+36),R8) (CP,R11) (CV,R12)
0Loc    Object Code    Addr1 Addr2  Stmt Lv Lineno    Source Statement           (Hibal 5, Asmedit 3.3)  HLASM R4.0  2004/03/15 12.57
+___    ______ ____    _____ _____  ____ __ ______    ______ _________
0001A32 58E0 77AE/0DEE       021D4 12008  1                      ACALL SORTWOPT
 001A38 5018 0008            00008 12012  1                      PRETURN R1
 001A3C 47F0 71C6            01BEC 12014  1                      EXIT  SORTLIST            EXIT SORT PROC
 001A40                            12017                       END
                                   12021
                                   12022                       COMMENT                   SET UP SORT LIST WORK AREA
 001A40 D7FF 8028 8028_00000 00000 12023                       CLEAR SLWA
 001A58 5010 8028            00000 12033                       ST    R1,SLIST1
 001A5C 5000 8030            00008 12034                       ST    R0,SLISTLEN
 001A60 5020 802C            00004 12035                       ST    R2,SLIST2
 001A64 5030 803C            00014 12036                       ST    R3,SLCOL1
 001A68 5040 8040            00018 12037                       ST    R4,SLCOL2
 001A6C 5050 8044            0001C 12038                       ST    R5,SLTRTAB
 001A70 50F0 8048            00020 12039                       ST    R15,SLPAD
 001A74 5010 8034            0000C 12040                       ST    R1,SLIST
 001A78 1A10                       12041                       AR    R1,R0
 001A7A 5010 8038            00010 12042                       ST    R1,SLISTEND
 001A7E 5900 77B2/4740_      021D8 12043                       IF    (R0,LT,8),EXIT
                                   12063
                                   12064                       COMMENT                   SET UP FOR MULTIPLE PASSES
 001A86 D203 804C 77B6 00024 021DC 12065                       MVC   MLISTSIZ,=F'4'
 001A8C 5820 8034            0000C 12066                       L     R2,SLIST
 001A90 4132 0004            00004 12067                       LA    R3,4(R2)
 001A94 1843                       12068                       LR    R4,R3
 001A96 4154 0004            00004 12069                       LA    R5,4(R4)
 001A9A 5860 802C            00004 12070                       L     R6,SLIST2
                                   12071
                                   12072                       COMMENT                   LOOP THRU LIST MERGE SORTING
 001A9E D503 804C 8030_00024 00008 12073                       WHILE (MLISTSIZ,LT,SLISTLEN),BEGIN
                                   12093  1
                                   12094  1                      COMMENT                   DO ONE PASS THRU LIST
 001AA8 5920 8038/47B0_      00010 12095  1                      WHILE (R2,LT,SLISTEND),BEGIN
                                   12114  2
                                   12115  2                        COMMENT                   MERGE 2 MINI LISTS
 001AB0 947F 8050      00028       12116  2                        CLEAR SLDONE
 001AB4 9180 8050/4710_00028       12123  2                        WHILE ~SLDONE,BEGIN
                                   12140  3                          COMMENT                   COMPARE ENTRIES
 001ABC 5812 0000            00000 12141  3                          L     R1,0(R2)
 001AC0 4101 0002            00002 12142  3                          LA    R0,2(R1)
 001AC4 4811 0000            00000 12143  3                          LH    R1,0(R1)
 001AC8 58E4 0000            00000 12144  3                          L     R14,0(R4)
 001ACC 48FE 0000            00000 12145  3                          LH    R15,0(R14)
 001AD0 41EE 0002            00002 12146  3                          LA    R14,2(R14)
 001AD4 5610 8048            00020 12147  3                          O     R1,SLPAD
 001AD8 56F0 8048            00020 12148  3                          O     R15,SLPAD
 001ADC 0F0E                       12149  3                          CLCL  R0,R14
 001ADE 4730 70E4            01B0A 12150  3                          IF    LE,BEGIN            IF *MINI_LIST1 < *MINI_LIST2
 001AE2 5812 0000            00000 12161  4                            L     R1,0(R2)
 001AE6 5016 0000            00000 12162  4                            ST    R1,0(R6)              *NEWLIST = *MINI_LIST1
 001AEA 4122 0004            00004 12163  4                            LA    R2,4(R2)              MINI_LIST1++;  NEWLIST++
 001AEE 4166 0004            00004 12164  4                            LA    R6,4(R6)
 001AF2 1923/4750 70E4             12165  4                            IF    (R2,GE,R3),BEGIN      IF MINI_LIST1 >= MINI_LIST1_END
 001AF8 18E6                       12180  5                              LR    R14,R6                  REST OF MINI_LIST2 TO NEWLIST
 001AFA 18F5                       12181  5                              LR    R15,R5                  BUMP MINI_LIST2 AS NEEDED
1TEXT     (TEXT2025) (12:57) (15MAR04) SORT command and routines                                                            Page   35
0Current Usings:  (*,R7) (SLWA-(4+36),R8) (CP,R11) (CV,R12)
0Loc    Object Code    Addr1 Addr2  Stmt Lv Lineno    Source Statement           (Hibal 5, Asmedit 3.3)  HLASM R4.0  2004/03/15 12.57
+___    ______ ____    _____ _____  ____ __ ______    ______ _________
0001AFC 1BF4                       12182  5                              SR    R15,R4                  BUMP NEWLIST AS NEEDED
 001AFE 1844                       12183  5                              LR    R4,R4
 001B00 185F                       12184  5                              LR    R5,R15
 001B02 0EE4                       12185  5                              MVCL  R14,R4
 001B04 9680 8050      00028       12186  5                              SET   SLDONE
 001B08 186E                       12192  5                              LR    R6,R14
 001B0A                            12193  4                            END
 001B0A                            12197  3                          END
 001B0A 70E8/47F0 7110 01B0A 01AE0 12201  3                          ELSE  BEGIN               IF *MINI_LIST1 > *MINI_LIST2
 001B0E 5814 0000            00000 12212  4                            L     R1,0(R4)
 001B12 5016 0000            00000 12213  4                            ST    R1,0(R6)              *NEWLIST = *MINI_LIST2
 001B16 4144 0004            00004 12214  4                            LA    R4,4(R4)              MINI_LIST2++;  NEWLIST++
 001B1A 4166 0004            00004 12215  4                            LA    R6,4(R6)
 001B1E 1945/4750 7110             12216  4                            IF    (R4,GE,R5),BEGIN      IF MINI_LIST1 >= MINI_LIST1_END
 001B24 18E6                       12231  5                              LR    R14,R6                  REST OF MINI_LIST1 TO NEWLIST
 001B26 18F3                       12232  5                              LR    R15,R3                  BUMP MINI_LIST1 AS NEEDED
 001B28 1BF2                       12233  5                              SR    R15,R2                  BUMP NEWLIST AS NEEDED
 001B2A 1822                       12234  5                              LR    R2,R2
 001B2C 183F                       12235  5                              LR    R3,R15
 001B2E 0EE2                       12236  5                              MVCL  R14,R2
 001B30 9680 8050      00028       12237  5                              SET   SLDONE
 001B34 186E                       12243  5                              LR    R6,R14
 001B36                            12244  4                            END
 001B36                            12248  3                          END
 001B36 47F0 708E            01AB4 12252  2                        END   , OF MERGE 2 MINI-LISTS
                                   12257  2
                                   12258  2                        COMMENT                   SET UP TO MERGE NEXT 2 MINI LISTS
 001B3A 1824                       12259  2                        LR    R2,R4
 001B3C 1832                       12260  2                        LR    R3,R2
 001B3E 5A30 804C            00024 12261  2                        A     R3,MLISTSIZ
 001B42 1843                       12262  2                        LR    R4,R3
 001B44 1854                       12263  2                        LR    R5,R4
 001B46 5A50 804C            00024 12264  2                        A     R5,MLISTSIZ
 001B4A 5950 8038/47D0_      00010 12265  2                        IF    (R5,GT,SLISTEND),BEGIN
 001B52 5850 8038            00010 12282  3                          L     R5,SLISTEND
 001B56                            12283  2                        END
 001B56 5930 8038/4750_      00010 12287  2                        IF    (R3,GE,SLISTEND),BEGIN
 001B5E 5830 8038            00010 12304  3                          L     R3,SLISTEND
 001B62 18E6                       12305  3                          LR    R14,R6
 001B64 18F3                       12306  3                          LR    R15,R3
 001B66 1BF2                       12307  3                          SR    R15,R2
 001B68 1822                       12308  3                          LR    R2,R2
 001B6A 183F                       12309  3                          LR    R3,R15
 001B6C 0EE2                       12310  3                          MVCL  R14,R2
 001B6E 186E                       12311  3                          LR    R6,R14
 001B70                            12312  2                        END
 001B70 47F0 7082            01AA8 12316  1                      END   , 1 PASS THRU WHOLE LIST
                                   12321  1
                                   12322  1                      COMMENT                   SET UP FOR NEXT PASS
 001B74 58E0 77BA/0DEE       021E0 12323  1                      VCALL SLICECHK            ALLOW SOMEONE ELSE TO RUN
 001B7A 5810 804C            00024 12327  1                      L     R1,MLISTSIZ
 001B7E 8910 0001            00001 12328  1                      SLL   R1,1                DOUBLE MINI_LIST SIZE
 001B82 5010 804C            00024 12329  1                      ST    R1,MLISTSIZ
 001B86 D503 8034 8028_0000C 00000 12330  1                      IF    (SLIST,EQ,SLIST1),' MVC SLIST,SLIST2'
1TEXT     (TEXT2025) (12:57) (15MAR04) SORT command and routines                                                            Page   36
0Current Usings:  (*,R7) (SLWA-(4+36),R8) (CP,R11) (CV,R12)
0Loc    Object Code    Addr1 Addr2  Stmt Lv Lineno    Source Statement           (Hibal 5, Asmedit 3.3)  HLASM R4.0  2004/03/15 12.57
+___    ______ ____    _____ _____  ____ __ ______    ______ _________
0001B96 7174/47F0 717A_01B96 01B8E 12354  1                      ELSE  ' MVC SLIST,SLIST1'
 001BA0 5810 8034            0000C 12371  1                      L     R1,SLIST            RESET LIST, LISTEND
 001BA4 5A10 8030            00008 12372  1                      A     R1,SLISTLEN
 001BA8 5010 8038            00010 12373  1                      ST    R1,SLISTEND
 001BAC 5820 8034            0000C 12374  1                      L     R2,SLIST            GET MINI_LIST POINTERS
 001BB0 1832                       12375  1                      LR    R3,R2
 001BB2 5A30 804C            00024 12376  1                      A     R3,MLISTSIZ
 001BB6 1843                       12377  1                      LR    R4,R3
 001BB8 1854                       12378  1                      LR    R5,R4
 001BBA 5A50 804C            00024 12379  1                      A     R5,MLISTSIZ
 001BBE 5950 8038/47D0_      00010 12380  1                      IF    (R5,GT,SLISTEND),' L R5,SLISTEND'
 001BCA D503 8034 8028_0000C 00000 12403  1                      IF    (SLIST,EQ,SLIST1),' L R6,SLIST2'
 001BD8 71B6/47F0 71BA_01BD8 01BD2 12427  1                      ELSE  'L R6,SLIST1'
 001BE0 47F0 7078            01A9E 12444                       END   , OF SORTLOOP
                                   12449
                                   12450                       COMMENT                   RETURN R1 - SORTED LIST
 001BE4 5810 8034            0000C 12451                       L     R1,SLIST
 001BE8 5018 0008            00008 12452                       PRETURN R1
                                   12454
 001BEC 18D8/9808 D004_            12455                       PEND
 DROP   SLWA-(4+36),R8
 DROP   *,R7
1TEXT     (TEXT2025) (12:57) (15MAR04) SORT command and routines                                                            Page   37
0Current Usings:  (CP,R11) (CV,R12)
0Loc    Object Code    Addr1 Addr2  Stmt Lv Lineno    Source Statement           (Hibal 5, Asmedit 3.3)  HLASM R4.0  2004/03/15 12.57
+___    ______ ____    _____ _____  ____ __ ______    ______ _________
0                                  12481              *
                                   12482              *  SORTWOPT - SORT WITH FIELD OPTIONS.
                                   12483              *
                                   12484              *  PROCESS WITH COLUMN OPTIONS, TRANSLATE TABLE OPTIONS.
                                   12485              *
                                   12486              *  N.B.
                                   12487              *  THIS ROUTINE IS IDENTICAL TO SORTLIST !!! WITH THE
                                   12488              *  EXCEPTION THAT IT COMPARES WITH COL OPTIONS, TRANSLATE OPTIONS.
                                   12489              *  THE CODE IS KEPT SEPARATE FOR EFFICIENCY REASONS.
                                   12490              *  (IE. THE INNER LOOP IS MUCH SMALLER IN THE NON OPTIONS ROUTINE)
                                   12491              *
                                   12492              *  TO CREATE THIS ROUTINE. SORTLIST ROUTINE WAS DEBUGGED AND
                                   12493              *  THEN COPIED HERE.  A SEPARATE COMPARE ROUTINE IS CALLED TO
                                   12494              *  DO THE MORE COMPLICATED COMPARE.
                                   12495              *
                                   12496              *  FOR ENTRY/EXIT CONVENTIONS SEE SORTLIST ROUTINE.
                                   12497              *
                                   12498              *
 001BFA 50E0 D000/9008_      00000 12499              SORTWOPT PROC  SLWA
 USING  *,R7
 USING  SLWA-(4+36),R8
                                   12549
 001C14 D7FF 8028 8028_00000 00000 12550                       CLEAR SLWA
 001C2C 5010 8028            00000 12560                       ST    R1,SLIST1
 001C30 5000 8030            00008 12561                       ST    R0,SLISTLEN
 001C34 5020 802C            00004 12562                       ST    R2,SLIST2
 001C38 5030 803C            00014 12563                       ST    R3,SLCOL1
 001C3C 5040 8040            00018 12564                       ST    R4,SLCOL2
 001C40 5050 8044            0001C 12565                       ST    R5,SLTRTAB
 001C44 50F0 8048            00020 12566                       ST    R15,SLPAD
 001C48 5010 8034            0000C 12567                       ST    R1,SLIST
 001C4C 1A10                       12568                       AR    R1,R0
 001C4E 5010 8038            00010 12569                       ST    R1,SLISTEND
 001C52 5900 75C4/4740_      021D8 12570                       IF    (R0,LT,8),EXIT
                                   12590
                                   12591                       COMMENT                   PROCESS SORT FIELD COLUMNS
 001C5A 1233/4770 7050             12592                       IF    (R3,Z),BEGIN        R3 - FIELD OFFSET
 001C60 4140 00FF            000FF 12606  1                      LA    R4,255              R4 - FIELD LEN
 001C64                            12607                       END
 001C64 7054/47F0 7062 01C64 01C5E 12611                       ELSE  BEGIN
 001C68 0630                       12622  1                      DECR  R3
 001C6A 1244/4770 7060_            12624  1                      IF    (R4,Z),' LA R4,255'
 001C74 1B43                       12644  1                      SR    R4,R3
 001C76                            12645                       END
 001C76 5030 8054            0002C 12649                       ST    R3,SLFLDOFF
 001C7A 5040 8058            00030 12650                       ST    R4,SLFLDLEN
                                   12651
                                   12652                       COMMENT                   MOVE TR TABLE TO LOCAL ADDR
 001C7E 4100 825C            00234 12653                       LA    R0,SLTRBUF
 001C82 4110 0100            00100 12654                       LA    R1,256
 001C86 5820 8044            0001C 12655                       L     R2,SLTRTAB
 001C8A 1831                       12656                       LR    R3,R1
 001C8C 0E02                       12657                       MVCL  R0,R2
                                   12658
1TEXT     (TEXT2025) (12:57) (15MAR04) SORT command and routines                                                            Page   38
0Current Usings:  (*,R7) (SLWA-(4+36),R8) (CP,R11) (CV,R12)
0Loc    Object Code    Addr1 Addr2  Stmt Lv Lineno    Source Statement           (Hibal 5, Asmedit 3.3)  HLASM R4.0  2004/03/15 12.57
+___    ______ ____    _____ _____  ____ __ ______    ______ _________
0                                  12659                       COMMENT                   SET UP FOR MULTIPLE PASSES
 001C8E D203 804C 75C8 00024 021DC 12660                       MVC   MLISTSIZ,=F'4'
 001C94 5820 8034            0000C 12661                       L     R2,SLIST
 001C98 4132 0004            00004 12662                       LA    R3,4(R2)
 001C9C 1843                       12663                       LR    R4,R3
 001C9E 4154 0004            00004 12664                       LA    R5,4(R4)
 001CA2 5860 802C            00004 12665                       L     R6,SLIST2
                                   12666
                                   12667                       COMMENT                   LOOP THRU LIST MERGE SORTING
 001CA6 D503 804C 8030_00024 00008 12668                       WHILE (MLISTSIZ,LT,SLISTLEN),BEGIN
                                   12688  1
                                   12689  1                      COMMENT                   DO ONE PASS THRU LIST
 001CB0 5920 8038/47B0_      00010 12690  1                      WHILE (R2,LT,SLISTEND),BEGIN
                                   12709  2
                                   12710  2                        COMMENT                   MERGE 2 MINI LISTS
 001CB8 947F 8050      00028       12711  2                        CLEAR SLDONE
 001CBC 9180 8050/4710_00028       12718  2                        WHILE ~SLDONE,BEGIN
                                   12735  3                          COMMENT                   COMPARE ENTRIES
                                   12736  3                          COMMENT ,                  (WITH FIELD, TRANSLATION OPTS)
                                   12737  3
                                   12738  3                          COMMENT                   GET FIELD 1 IN R14,R15
 001CC4 58E2 0000            00000 12739  3                          L     R14,0(R2)           (THEN IN R0,R1)
 001CC8 48FE 0000            00000 12740  3                          LH    R15,0(R14)
 001CCC 41EE 0002            00002 12741  3                          LA    R14,2(R14)
 001CD0 59F0 75D0/47D0_      021E4 12742  3                          IF    (R15,GT,255),' BOMB '
 001CDA 5AE0 8054            0002C 12766  3                          A     R14,SLFLDOFF               DO COLUMN STUFF
 001CDE 5BF0 8054            0002C 12767  3                          S     R15,SLFLDOFF
 001CE2 12FF/47B0 70D6_            12768  3                          IF    (R15,NEG),' CLEAR R15'
 001CEA 59F0 8058/47D0_      00030 12791  3                          IF    (R15,GT,SLFLDLEN),' L R15,SLFLDLEN '
 001CF6 D503 7588 8044_0219C 0001C 12814  3                          IF    (SLTRTAB,NE,0),BEGIN       DO TRANSLATE STUFF
 001D00 12FF/47D0 7104             12832  4                            IF    (R15,POS),BEGIN
 001D06 06F0/44F0 75F0_            12846  5                              DEX   R15,' MVC SLBUF1(*-*),0(R14) '
 001D0C 44F0 75F6/DC00_      0220A 12865  5                              EX    R15,' TR SLBUF1(*-*),SLTRBUF '
 001D10 41E0 805C            00034 12881  5                              LA    R14,SLBUF1
 001D14 41FF 0001            00001 12882  5                              LA    R15,1(R15)
 001D18                            12883  4                            END
 001D18                            12887  3                          END
 001D18 56F0 8048            00020 12891  3                          O     R15,SLPAD
 001D1C 180E                       12892  3                          LR    R0,R14              FIELD 1 IN R0,R1
 001D1E 181F                       12893  3                          LR    R1,R15
                                   12894  3
                                   12895  3                          COMMENT                   GET FIELD 2 IN R14,R15
 001D20 58E4 0000            00000 12896  3                          L     R14,0(R4)
 001D24 48FE 0000            00000 12897  3                          LH    R15,0(R14)
 001D28 41EE 0002            00002 12898  3                          LA    R14,2(R14)
 001D2C 59F0 75D0/47D0_      021E4 12899  3                          IF    (R15,GT,255),' BOMB '
 001D36 5AE0 8054            0002C 12923  3                          A     R14,SLFLDOFF               DO COLUMN STUFF
 001D3A 5BF0 8054            0002C 12924  3                          S     R15,SLFLDOFF
 001D3E 12FF/47B0 7132_            12925  3                          IF    (R15,NEG),' CLEAR R15'
 001D46 59F0 8058/47D0_      00030 12948  3                          IF    (R15,GT,SLFLDLEN),' L R15,SLFLDLEN '
 001D52 D503 7588 8044_0219C 0001C 12971  3                          IF    (SLTRTAB,NE,0),BEGIN       DO TRANSLATE STUFF
 001D5C 12FF/47D0 7160             12989  4                            IF    (R15,POS),BEGIN
 001D62 06F0/44F0 75FC_            13003  5                              DEX   R15,' MVC SLBUF2(*-*),0(R14) '
 001D68 44F0 7602/DC00_      02216 13022  5                              EX    R15,' TR SLBUF2(*-*),SLTRBUF '
1TEXT     (TEXT2025) (12:57) (15MAR04) SORT command and routines                                                            Page   39
0Current Usings:  (*,R7) (SLWA-(4+36),R8) (CP,R11) (CV,R12)
0Loc    Object Code    Addr1 Addr2  Stmt Lv Lineno    Source Statement           (Hibal 5, Asmedit 3.3)  HLASM R4.0  2004/03/15 12.57
+___    ______ ____    _____ _____  ____ __ ______    ______ _________
0001D6C 41E0 815C            00134 13038  5                              LA    R14,SLBUF2
 001D70 41FF 0001            00001 13039  5                              LA    R15,1(R15)
 001D74                            13040  4                            END
 001D74                            13044  3                          END
 001D74 56F0 8048            00020 13048  3                          O     R15,SLPAD
                                   13049  3
 001D78 0F0E                       13050  3                          CLCL  R0,R14              COMPARE FIELDS !!
                                   13051  3
 001D7A 4730 7192            01DA6 13052  3                          IF    LE,BEGIN            IF *MINI_LIST1 < *MINI_LIST2
 001D7E 5812 0000            00000 13063  4                            L     R1,0(R2)
 001D82 5016 0000            00000 13064  4                            ST    R1,0(R6)              *NEWLIST = *MINI_LIST1
 001D86 4122 0004            00004 13065  4                            LA    R2,4(R2)              MINI_LIST1++;  NEWLIST++
 001D8A 4166 0004            00004 13066  4                            LA    R6,4(R6)
 001D8E 1923/4750 7192             13067  4                            IF    (R2,GE,R3),BEGIN      IF MINI_LIST1 >= MINI_LIST1_END
 001D94 18E6                       13082  5                              LR    R14,R6                  REST OF MINI_LIST2 TO NEWLIST
 001D96 18F5                       13083  5                              LR    R15,R5                  BUMP MINI_LIST2 AS NEEDED
 001D98 1BF4                       13084  5                              SR    R15,R4                  BUMP NEWLIST AS NEEDED
 001D9A 1844                       13085  5                              LR    R4,R4
 001D9C 185F                       13086  5                              LR    R5,R15
 001D9E 0EE4                       13087  5                              MVCL  R14,R4
 001DA0 9680 8050      00028       13088  5                              SET   SLDONE
 001DA4 186E                       13094  5                              LR    R6,R14
 001DA6                            13095  4                            END
 001DA6                            13099  3                          END
 001DA6 7196/47F0 71BE 01DA6 01D7C 13103  3                          ELSE  BEGIN               IF *MINI_LIST1 > *MINI_LIST2
 001DAA 5814 0000            00000 13114  4                            L     R1,0(R4)
 001DAE 5016 0000            00000 13115  4                            ST    R1,0(R6)              *NEWLIST = *MINI_LIST2
 001DB2 4144 0004            00004 13116  4                            LA    R4,4(R4)              MINI_LIST2++;  NEWLIST++
 001DB6 4166 0004            00004 13117  4                            LA    R6,4(R6)
 001DBA 1945/4750 71BE             13118  4                            IF    (R4,GE,R5),BEGIN      IF MINI_LIST1 >= MINI_LIST1_END
 001DC0 18E6                       13133  5                              LR    R14,R6                  REST OF MINI_LIST1 TO NEWLIST
 001DC2 18F3                       13134  5                              LR    R15,R3                  BUMP MINI_LIST1 AS NEEDED
 001DC4 1BF2                       13135  5                              SR    R15,R2                  BUMP NEWLIST AS NEEDED
 001DC6 1822                       13136  5                              LR    R2,R2
 001DC8 183F                       13137  5                              LR    R3,R15
 001DCA 0EE2                       13138  5                              MVCL  R14,R2
 001DCC 9680 8050      00028       13139  5                              SET   SLDONE
 001DD0 186E                       13145  5                              LR    R6,R14
 001DD2                            13146  4                            END
 001DD2                            13150  3                          END
 001DD2 47F0 70A8            01CBC 13154  2                        END   , OF MERGE 2 MINI-LISTS
                                   13159  2
                                   13160  2                        COMMENT                   SET UP TO MERGE NEXT 2 MINI LISTS
 001DD6 1824                       13161  2                        LR    R2,R4
 001DD8 1832                       13162  2                        LR    R3,R2
 001DDA 5A30 804C            00024 13163  2                        A     R3,MLISTSIZ
 001DDE 1843                       13164  2                        LR    R4,R3
 001DE0 1854                       13165  2                        LR    R5,R4
 001DE2 5A50 804C            00024 13166  2                        A     R5,MLISTSIZ
 001DE6 5950 8038/47D0_      00010 13167  2                        IF    (R5,GT,SLISTEND),BEGIN
 001DEE 5850 8038            00010 13184  3                          L     R5,SLISTEND
 001DF2                            13185  2                        END
 001DF2 5930 8038/4750_      00010 13189  2                        IF    (R3,GE,SLISTEND),BEGIN
 001DFA 5830 8038            00010 13206  3                          L     R3,SLISTEND
1TEXT     (TEXT2025) (12:57) (15MAR04) SORT command and routines                                                            Page   40
0Current Usings:  (*,R7) (SLWA-(4+36),R8) (CP,R11) (CV,R12)
0Loc    Object Code    Addr1 Addr2  Stmt Lv Lineno    Source Statement           (Hibal 5, Asmedit 3.3)  HLASM R4.0  2004/03/15 12.57
+___    ______ ____    _____ _____  ____ __ ______    ______ _________
0001DFE 18E6                       13207  3                          LR    R14,R6
 001E00 18F3                       13208  3                          LR    R15,R3
 001E02 1BF2                       13209  3                          SR    R15,R2
 001E04 1822                       13210  3                          LR    R2,R2
 001E06 183F                       13211  3                          LR    R3,R15
 001E08 0EE2                       13212  3                          MVCL  R14,R2
 001E0A 186E                       13213  3                          LR    R6,R14
 001E0C                            13214  2                        END
 001E0C 47F0 709C            01CB0 13218  1                      END   , 1 PASS THRU WHOLE LIST
                                   13223  1
                                   13224  1                      COMMENT                   SET UP FOR NEXT PASS
 001E10 58E0 75CC/0DEE       021E0 13225  1                      VCALL SLICECHK            ALLOW SOMEONE ELSE TO RUN
 001E16 5810 804C            00024 13229  1                      L     R1,MLISTSIZ
 001E1A 8910 0001            00001 13230  1                      SLL   R1,1                DOUBLE MINI_LIST SIZE
 001E1E 5010 804C            00024 13231  1                      ST    R1,MLISTSIZ
 001E22 D503 8034 8028_0000C 00000 13232  1                      IF    (SLIST,EQ,SLIST1),' MVC SLIST,SLIST2'
 001E32 7222/47F0 7228_01E32 01E2A 13256  1                      ELSE  ' MVC SLIST,SLIST1'
 001E3C 5810 8034            0000C 13273  1                      L     R1,SLIST            RESET LIST, LISTEND
 001E40 5A10 8030            00008 13274  1                      A     R1,SLISTLEN
 001E44 5010 8038            00010 13275  1                      ST    R1,SLISTEND
 001E48 5820 8034            0000C 13276  1                      L     R2,SLIST            GET MINI_LIST POINTERS
 001E4C 1832                       13277  1                      LR    R3,R2
 001E4E 5A30 804C            00024 13278  1                      A     R3,MLISTSIZ
 001E52 1843                       13279  1                      LR    R4,R3
 001E54 1854                       13280  1                      LR    R5,R4
 001E56 5A50 804C            00024 13281  1                      A     R5,MLISTSIZ
 001E5A 5950 8038/47D0_      00010 13282  1                      IF    (R5,GT,SLISTEND),' L R5,SLISTEND'
 001E66 D503 8034 8028_0000C 00000 13305  1                      IF    (SLIST,EQ,SLIST1),' L R6,SLIST2'
 001E74 7264/47F0 7268_01E74 01E6E 13329  1                      ELSE  'L R6,SLIST1'
 001E7C 47F0 7092            01CA6 13346                       END   , OF SORTLOOP
                                   13351
                                   13352                       COMMENT                   RETURN R1 - SORTED LIST
 001E80 5810 8034            0000C 13353                       L     R1,SLIST
 001E84 5018 0008            00008 13354                       PRETURN R1
                                   13356
 001E88 18D8/9808 D004_            13357                       PEND
 DROP   SLWA-(4+36),R8
 DROP   *,R7
1TEXT     (TEXT2025) (12:57) (15MAR04) SORT command and routines                                                            Page   41
0Current Usings:  (CP,R11) (CV,R12)
0Loc    Object Code    Addr1 Addr2  Stmt Lv Lineno    Source Statement           (Hibal 5, Asmedit 3.3)  HLASM R4.0  2004/03/15 12.57
+___    ______ ____    _____ _____  ____ __ ______    ______ _________
0                                  13383              *
                                   13384              **
                                   13385              **  REVERSE LIST
                                   13386              **
                                   13387              **  ON ENTRY:
                                   13388              **       R0 - COUNT OF ITEMS IN LIST
                                   13389              **       R1 - LIST
                                   13390              **       R2 - SECONDARY LIST (USE AS TEMP)
                                   13391              **
                                   13392              **
                                   13393              *
 001E96 50E0 D000/9008_      00000 13394              STLISTRV PROC
 USING  *,R7
                                   13433
 001EB0 8900 0002            00002 13434                       SLL   R0,2                R0 - LIST LEN IN BYTES
 001EB4 1842                       13435                       LR    R4,R2
 001EB6 1850                       13436                       LR    R5,R0
 001EB8 18E1                       13437                       LR    R14,R1
 001EBA 18F0                       13438                       LR    R15,R0
 001EBC 0E4E                       13439                       MVCL  R4,R14              MOVE LIST TO SECONDARY LIST
 001EBE 1841                       13440                       LR    R4,R1               R4,R5 - PTR, END OF LIST
 001EC0 1851                       13441                       LR    R5,R1
 001EC2 1A50                       13442                       AR    R5,R0
 001EC4 18E2                       13443                       LR    R14,R2              R14 - PTR TO END OF 2ND LIST
 001EC6 1AE0                       13444                       AR    R14,R0
 001EC8 5BE0 732C            021DC 13445                       S     R14,=F'4'
 001ECC 1945/47B0 7036             13446                       WHILE (R4,LT,R5),BEGIN    LOOP, MOVE FROM END OF 2ND LIST
 001ED2 586E 0000            00000 13463  1                      L     R6,0(R14)             TO START OF FIRST...
 001ED6 5064 0000            00000 13464  1                      ST    R6,0(R4)
 001EDA 4144 0004            00004 13465  1                      LA    R4,4(R4)
 001EDE 5BE0 732C            021DC 13466  1                      S     R14,=F'4'
 001EE2 47F0 701C            01ECC 13467                       END
                                   13472
 001EE6 18D8/9808 D004_            13473                       PEND
 DROP   *,R7
1TEXT     (TEXT2025) (12:57) (15MAR04) SORT command and routines                                                            Page   42
0Current Usings:  (CP,R11) (CV,R12)
0Loc    Object Code    Addr1 Addr2  Stmt Lv Lineno    Source Statement           (Hibal 5, Asmedit 3.3)  HLASM R4.0  2004/03/15 12.57
+___    ______ ____    _____ _____  ____ __ ______    ______ _________
0                                  13494              *
                                   13495              *  SDELETE
                                   13496              *
                                   13497              *  DELETE DUPLICATE RECORDS  (FIELDS !!)
                                   13498              *  THE LIST OF POINTER IS UPDATED.
                                   13499              *
                                   13500              *  ON ENTRY:
                                   13501              *    R0 - COUNT
                                   13502              *    R1 - LIST
                                   13503              *    R3 - FIRST COL (0 IF NONE)
                                   13504              *    R4 - SECOND COL (0 IF NONE)
                                   13505              *    R5 - TRANSLATE TABLE (0 IF NONE)
                                   13506              *    R15 - PAD CHAR
                                   13507              *
                                   13508              *  ON EXIT:
                                   13509              *    R0 - NEW COUNT
                                   13510              *
                                   13511              *  NOTE:
                                   13512              *  THIS CODE IS SIMPLE,,, THE ROUGH PART IS THE COMPARE WHICH
                                   13513              *  DEALS WITH THE COLUMN/TRANSLATE STUFF.  IT IS COPIED FROM
                                   13514              *  THE SORTWOPT (SORT WITH OPTIONS) ROUTINE.
                                   13515              *
                                   13516              *  N.B.
                                   13517              *    IF COLUMNS AND/OR TABLES ARE SPECIFIED, THEY ARE USED
                                   13518              *    TO DETERMINE WHICH RECORD TO DELETE.  IE. WE **DELETE**
                                   13519              *    RECORDS CONTAINING DUPLICATE FIELDS !
                                   13520              *
                                   13521              *
 000000                00000 00320 13522              SDWA     RECORD BEGIN
 000000                            13530  1           SDCOUNT    DS    F
 000004                            13531  1           SDLIST     DS    F
 000008                            13532  1           SDCOL1     DS    F
 00000C                            13533  1           SDCOL2     DS    F
 000010                            13534  1           SDTRTAB    DS    F
 000014                            13535  1           SDPAD      DS    F
 000018                            13536  1           SDFLDOFF   DS    F
 00001C                            13537  1           SDFLDLEN   DS    F
 000020                            13538  1           SDBUF1     DS    CL256
 000120                            13539  1           SDBUF2     DS    CL256
 000220                            13540  1           SDTRBUF    DS    CL256
 000320                00320 00320 13541                       END
                                   13550              *
                                   13551              *
 001EF4 50E0 D000/9008_      00000 13552              SDELETE  PROC SDWA
 USING  *,R7
 USING  SDWA-(4+36),R8
                                   13602
 001F0E D7FF 8028 8028_00000 00000 13603                       CLEAR SDWA
 001F26 5000 8028            00000 13613                       ST    R0,SDCOUNT
 001F2A 5010 802C            00004 13614                       ST    R1,SDLIST
 001F2E 5030 8030            00008 13615                       ST    R3,SDCOL1
 001F32 5040 8034            0000C 13616                       ST    R4,SDCOL2
 001F36 5050 8038            00010 13617                       ST    R5,SDTRTAB
 001F3A 50F0 803C            00014 13618                       ST    R15,SDPAD
1TEXT     (TEXT2025) (12:57) (15MAR04) SORT command and routines                                                            Page   43
0Current Usings:  (*,R7) (SDWA-(4+36),R8) (CP,R11) (CV,R12)
0Loc    Object Code    Addr1 Addr2  Stmt Lv Lineno    Source Statement           (Hibal 5, Asmedit 3.3)  HLASM R4.0  2004/03/15 12.57
+___    ______ ____    _____ _____  ____ __ ______    ______ _________
0                                  13619
 001F3E D503 72DA 8028_021E8 00000 13620                       IF    (SDCOUNT,LE,1),EXIT
                                   13641
                                   13642                       COMMENT                   PROCESS SORT FIELD COLUMNS
 001F48 1233/4770 7044             13643                       IF    (R3,Z),BEGIN        R3 - FIELD OFFSET
 001F4E 4140 00FF            000FF 13657  1                      LA    R4,255              R4 - FIELD LEN
 001F52                            13658                       END
 001F52 7048/47F0 7056 01F52 01F4C 13662                       ELSE  BEGIN
 001F56 0630                       13673  1                      DECR  R3
 001F58 1244/4770 7054_            13675  1                      IF    (R4,Z),' LA R4,255'
 001F62 1B43                       13695  1                      SR    R4,R3
 001F64                            13696                       END
 001F64 5030 8040            00018 13700                       ST    R3,SDFLDOFF
 001F68 5040 8044            0001C 13701                       ST    R4,SDFLDLEN
                                   13702
                                   13703                       COMMENT                   MOVE TR TABLE TO LOCAL ADDR
 001F6C 4100 8248            00220 13704                       LA    R0,SDTRBUF
 001F70 4110 0100            00100 13705                       LA    R1,256
 001F74 5820 8038            00010 13706                       L     R2,SDTRTAB
 001F78 1831                       13707                       LR    R3,R1
 001F7A 0E02                       13708                       MVCL  R0,R2
                                   13709
                                   13710                       COMMENT                   COMPARE (SORTED!) ENTRIES FOR
                                   13711                       COMMENT                   DUPLICATES
 001F7C 5820 802C            00004 13712                       L     R2,SDLIST           R2 - CURRENT RECORD
 001F80 4142 0004            00004 13713                       LA    R4,4(R2)            R4 - NEXT RECORD
 001F84 5850 8028            00000 13714                       L     R5,SDCOUNT          R5 - END OF LIST
 001F88 8950 0002            00002 13715                       SLL   R5,2
 001F8C 1A52                       13716                       AR    R5,R2
 001F8E 1945/47B0 715C             13717                       WHILE (R4,LT,R5),BEGIN    LOOP LOOKING FOR DUPLICATES
                                   13734  1
                                   13735  1                      COMMENT                   COMPARE CODE FOLLOWS
                                   13736  1                      COMMENT                   GET FIELD 1 IN R14,R15
 001F94 58E2 0000            00000 13737  1                      L     R14,0(R2)           (THEN IN R0,R1)
 001F98 48FE 0000            00000 13738  1                      LH    R15,0(R14)
 001F9C 41EE 0002            00002 13739  1                      LA    R14,2(R14)
 001FA0 59F0 72D6/47D0_      021E4 13740  1                      IF    (R15,GT,255),' BOMB '
 001FAA 5AE0 8040            00018 13764  1                      A     R14,SDFLDOFF               DO COLUMN STUFF
 001FAE 5BF0 8040            00018 13765  1                      S     R15,SDFLDOFF
 001FB2 12FF/47B0 70AC_            13766  1                      IF    (R15,NEG),' CLEAR R15'
 001FBA 59F0 8044/47D0_      0001C 13789  1                      IF    (R15,GT,SDFLDLEN),' L R15,SDFLDLEN '
 001FC6 D503 728E 8038_0219C 00010 13812  1                      IF    (SDTRTAB,NE,0),BEGIN       DO TRANSLATE STUFF
 001FD0 12FF/47D0 70DA             13830  2                        IF    (R15,POS),BEGIN
 001FD6 06F0/44F0 730E_            13844  3                          DEX   R15,' MVC SDBUF1(*-*),0(R14) '
 001FDC 44F0 7314/DC00_      02222 13863  3                          EX    R15,' TR SDBUF1(*-*),SDTRBUF '
 001FE0 41E0 8048            00020 13879  3                          LA    R14,SDBUF1
 001FE4 41FF 0001            00001 13880  3                          LA    R15,1(R15)
 001FE8                            13881  2                        END
 001FE8                            13885  1                      END
 001FE8 56F0 803C            00014 13889  1                      O     R15,SDPAD
 001FEC 180E                       13890  1                      LR    R0,R14              FIELD 1 IN R0,R1
 001FEE 181F                       13891  1                      LR    R1,R15
                                   13892  1
                                   13893  1                      COMMENT                   GET FIELD 2 IN R14,R15
1TEXT     (TEXT2025) (12:57) (15MAR04) SORT command and routines                                                            Page   44
0Current Usings:  (*,R7) (SDWA-(4+36),R8) (CP,R11) (CV,R12)
0Loc    Object Code    Addr1 Addr2  Stmt Lv Lineno    Source Statement           (Hibal 5, Asmedit 3.3)  HLASM R4.0  2004/03/15 12.57
+___    ______ ____    _____ _____  ____ __ ______    ______ _________
0001FF0 58E4 0000            00000 13894  1                      L     R14,0(R4)
 001FF4 48FE 0000            00000 13895  1                      LH    R15,0(R14)
 001FF8 41EE 0002            00002 13896  1                      LA    R14,2(R14)
 001FFC 59F0 72D6/47D0_      021E4 13897  1                      IF    (R15,GT,255),' BOMB '
 002006 5AE0 8040            00018 13921  1                      A     R14,SDFLDOFF               DO COLUMN STUFF
 00200A 5BF0 8040            00018 13922  1                      S     R15,SDFLDOFF
 00200E 12FF/47B0 7108_            13923  1                      IF    (R15,NEG),' CLEAR R15'
 002016 59F0 8044/47D0_      0001C 13946  1                      IF    (R15,GT,SDFLDLEN),' L R15,SDFLDLEN '
 002022 D503 728E 8038_0219C 00010 13969  1                      IF    (SDTRTAB,NE,0),BEGIN       DO TRANSLATE STUFF
 00202C 12FF/47D0 7136             13987  2                        IF    (R15,POS),BEGIN
 002032 06F0/44F0 731A_            14001  3                          DEX   R15,' MVC SDBUF2(*-*),0(R14) '
 002038 44F0 7320/DC00_      0222E 14020  3                          EX    R15,' TR SDBUF2(*-*),SDTRBUF '
 00203C 41E0 8148            00120 14036  3                          LA    R14,SDBUF2
 002040 41FF 0001            00001 14037  3                          LA    R15,1(R15)
 002044                            14038  2                        END
 002044                            14042  1                      END
 002044 56F0 803C            00014 14046  1                      O     R15,SDPAD
                                   14047  1
 002048 0F0E                       14048  1                      CLCL  R0,R14              COMPARE FIELDS !!
                                   14049  1
 00204A 4770 7144            02052 14050  1                      IF    Z,BEGIN             IF EQUAL, BUMP NEXT
 00204E 4144 0004            00004 14061  2                        LA    R4,4(R4)
 002052                            14062  1                      END
 002052 7148/47F0 7158 02052 0204C 14066  1                      ELSE  BEGIN ,             IF NOT EQUAL,,,
 002056 4122 0004            00004 14077  2                        LA    R2,4(R2)            BUMP CURRENT
 00205A 5864 0000            00000 14078  2                        L     R6,0(R4)            MAKE NEXT CURRENT
 00205E 5062 0000            00000 14079  2                        ST    R6,0(R2)
 002062 4144 0004            00004 14080  2                        LA    R4,4(R4)            BUMB NEXT
 002066                            14081  1                      END
 002066 47F0 7080            01F8E 14085                       END   , OF LOOP THRU ALL LINES
                                   14090
                                   14091                       COMMENT                   RETURN UPDATED LIST COUNT
 00206A 4122 0004            00004 14092                       LA    R2,4(R2)
 00206E 5B20 802C            00004 14093                       S     R2,SDLIST
 002072 8820 0002            00002 14094                       SRL   R2,2
 002076 1802                       14095                       LR    R0,R2
 002078 5008 0004            00004 14096                       PRETURN R0
                                   14098
 00207C 18D8/9808 D004_            14099                       PEND
 DROP   SDWA-(4+36),R8
 DROP   *,R7
1TEXT     (TEXT2025) (12:57) (15MAR04) SORT command and routines                                                            Page   45
0Current Usings:  (CP,R11) (CV,R12)
0Loc    Object Code    Addr1 Addr2  Stmt Lv Lineno    Source Statement           (Hibal 5, Asmedit 3.3)  HLASM R4.0  2004/03/15 12.57
+___    ______ ____    _____ _____  ____ __ ______    ______ _________
0                                  14125              ¿þþþþþþþþþþþþþþþþþþþþþþþþþþþþþþþþþþþþþþþþþþþþþþþþþþþþþþþþþþþþþþþþþþþþþÜ
                                   14126              Ÿ                                                                     Ÿ
                                   14127              Ÿ                                                                     Ÿ
                                   14128              Ÿ  AUTODELT - CALCULATE DELTA FOR RANGE...                            Ÿ
                                   14129              Ÿ                                                                     Ÿ
                                   14130              Ÿ  ON ENTRY:                                                          Ÿ
                                   14131              Ÿ       R0 - START OF RANGE                                           Ÿ
                                   14132              Ÿ       R1 - END OF RANGE                                             Ÿ
                                   14133              Ÿ       R2 - NUMBER OF LINES IN RANGE                                 Ÿ
                                   14134              Ÿ                                                                     Ÿ
                                   14135              Ÿ  ON EXIT:                                                           Ÿ
                                   14136              Ÿ       R0 - START OF RANGE (ROUNDED BY DELTA)                        Ÿ
                                   14137              Ÿ       R1 - DELTA FOR RANGE (1.0,0.1,0.01,OR 0.001)                  Ÿ
                                   14138              Ÿ      R15 - CC=Z, LINES WILL FIT IN RANGE USING RETURNED DELTA       Ÿ
                                   14139              Ÿ            CC=NZ, TOO MANY LINES IN RANGE FOR 0.001 DELTA !!        Ÿ
                                   14140              Ÿ                                                                     Ÿ
                                   14141              Ÿ  ALGORITHM: WE TRY 1, .01, .001, AND .0001 AS DELTA, AND CHOOSE     Ÿ
                                   14142              Ÿ       THE LARGEST DELTA.   NOTE, WE DON'T LOOK AT THE USER SET      Ÿ
                                   14143              Ÿ       DELTA... IF I COULD I WOULD AX USER SET DELTA,, YUUKK!        Ÿ
                                   14144              Ÿ                                                                     Ÿ
                                   14145              Ÿ                                                                     Ÿ
                                   14146              Ÿ                                                                     Ÿ
                                                      ¾þþþþþþþþþþþþþþþþþþþþþþþþþþþþþþþþþþþþþþþþþþþþþþþþþþþþþþþþþþþþþþþþþþþþþ»
0000000                00000 0000C 14147              ADWA     RECORD BEGIN
 000000                            14155  1           ADSTART    DS    F
 000004                            14156  1           ADEND      DS    F
 000008                            14157  1           ADCOUNT    DS    F
 00000C                0000C 0000C 14158                       END
                                   14167              *
                                   14168              *
 00208A 50E0 D000/9008_      00000 14169              AUTODELT PROC  ADWA
 USING  *,R7
 USING  ADWA-(4+36),R8
                                   14219
                                   14220                       COMMENT                   INIT WORK AREA
 0020A4 5000 8028            00000 14221                       ST    R0,ADSTART
 0020A8 5010 802C            00004 14222                       ST    R1,ADEND
 0020AC 5020 8030            00008 14223                       ST    R2,ADCOUNT
                                   14224
                                   14225                       COMMENT                   TRY 1.000
 0020B0 1B22                       14226                       CLEAR R2
 0020B2 5830 8028            00000 14230                       L     R3,ADSTART
 0020B6 5A30 7148            021EC 14231                       A     R3,=F'999'
 0020BA 5D20 714C            021F0 14232                       D     R2,=F'1000'
 0020BE 1B22                       14233                       CLEAR R2
 0020C0 5C20 714C            021F0 14237                       M     R2,=F'1000'
 0020C4 1803                       14238                       LR    R0,R3               ROUNDED START OF RANGE
 0020C6 1B44                       14239                       CLEAR R4
 0020C8 5850 8030            00008 14243                       L     R5,ADCOUNT
 0020CC 0650                       14244                       DECR  R5
 0020CE 5C40 714C            021F0 14246                       M     R4,=F'1000'
 0020D2 1A35                       14247                       AR    R3,R5
 0020D4 5930 802C/4730_      00004 14248                       IF    ((R3,LE,ADEND),AND,(R4,Z)),BEGIN    IF 1.000 IS OK
1TEXT     (TEXT2025) (12:57) (15MAR04) SORT command and routines                                                            Page   46
0Current Usings:  (*,R7) (ADWA-(4+36),R8) (CP,R11) (CV,R12)
0Loc    Object Code    Addr1 Addr2  Stmt Lv Lineno    Source Statement           (Hibal 5, Asmedit 3.3)  HLASM R4.0  2004/03/15 12.57
+___    ______ ____    _____ _____  ____ __ ______    ______ _________
00020E2 4110 03E8            003E8 14278  1                      LA    R1,1000
 0020E6 1BFF                       14279  1                      CLEAR R15
 0020E8                            14283                       END
                                   14287
                                   14288                       COMMENT                   TRY 0.1
 0020E8 7048/7048/47F0_020E8 020DA 14289                       ELSE BEGIN
 0020EC 1B22                       14302  1                      CLEAR R2
 0020EE 5830 8028            00000 14306  1                      L     R3,ADSTART
 0020F2 5A30 7150            021F4 14307  1                      A     R3,=F'99'
 0020F6 5D20 7154            021F8 14308  1                      D     R2,=F'100'
 0020FA 1B22                       14309  1                      CLEAR R2
 0020FC 5C20 7154            021F8 14313  1                      M     R2,=F'100'
 002100 1803                       14314  1                      LR    R0,R3               ROUNDED START OF RANGE
 002102 1B44                       14315  1                      CLEAR R4
 002104 5850 8030            00008 14319  1                      L     R5,ADCOUNT
 002108 0650                       14320  1                      DECR  R5
 00210A 5C40 7154            021F8 14322  1                      M     R4,=F'100'
 00210E 1A35                       14323  1                      AR    R3,R5
 002110 5950 802C/4730_      00004 14324  1                      IF    ((R5,LE,ADEND),AND,(R4,Z)),BEGIN    IF 0.100 IS OK
 00211E 4110 0064            00064 14354  2                        LA    R1,100
 002122 1BFF                       14355  2                        CLEAR R15
 002124                            14359  1                      END
                                   14363  1
                                   14364  1                      COMMENT                   TRY 0.01
 002124 7084/7084/47F0_02124 02116 14365  1                      ELSE BEGIN
 002128 1B22                       14378  2                        CLEAR R2
 00212A 5830 8028            00000 14382  2                        L     R3,ADSTART
 00212E 5A30 7158            021FC 14383  2                        A     R3,=F'9'
 002132 5D20 715C            02200 14384  2                        D     R2,=F'10'
 002136 1B22                       14385  2                        CLEAR R2
 002138 5C20 715C            02200 14389  2                        M     R2,=F'10'
 00213C 1803                       14390  2                        LR    R0,R3               ROUNDED START OF RANGE
 00213E 1B44                       14391  2                        CLEAR R4
 002140 5850 8030            00008 14395  2                        L     R5,ADCOUNT
 002144 0650                       14396  2                        DECR  R5
 002146 5C40 715C            02200 14398  2                        M     R4,=F'10'
 00214A 1A35                       14399  2                        AR    R3,R5
 00214C 5930 802C/4730_      00004 14400  2                        IF    ((R3,LE,ADEND),AND,(R4,Z)),BEGIN    IF 0.010 IS OK
 00215A 4110 000A            0000A 14430  3                          LA    R1,10
 00215E 1BFF                       14431  3                          CLEAR R15
 002160                            14435  2                        END
                                   14439  2
                                   14440  2                        COMMENT                   TRY 0.001
 002160 70C0/70C0/47F0_02160 02152 14441  2                        ELSE BEGIN
 002164 5830 8028            00000 14454  3                          L     R3,ADSTART
 002168 1803                       14455  3                          LR    R0,R3               ROUNDED START OF RANGE
 00216A 5A30 8030            00008 14456  3                          A     R3,ADCOUNT
 00216E 0630                       14457  3                          DECR  R3
 002170 5930 802C/4730_      00004 14459  3                          IF    (R3,LE,ADEND),BEGIN IF 0.001 IS OK
 002178 4110 0001            00001 14476  4                            LA    R1,1
 00217C 1BFF                       14477  4                            CLEAR R15
 00217E                            14481  3                          END
 00217E 70DE/47F0 70E6 0217E 02176 14485  3                          ELSE  BEGIN
 002182 4110 0001            00001 14496  4                            LA    R1,1
1TEXT     (TEXT2025) (12:57) (15MAR04) SORT command and routines                                                            Page   47
0Current Usings:  (*,R7) (ADWA-(4+36),R8) (CP,R11) (CV,R12)
0Loc    Object Code    Addr1 Addr2  Stmt Lv Lineno    Source Statement           (Hibal 5, Asmedit 3.3)  HLASM R4.0  2004/03/15 12.57
+___    ______ ____    _____ _____  ____ __ ______    ______ _________
0002186 41F0 0004            00004 14497  4                            LA    R15,4
 00218A                            14498  3                          END
 00218A                            14502  2                        END
 00218A                            14506  1                      END
 00218A                            14510                       END
                                   14514
                                   14515                       COMMENT                   OH YEAH!
 00218A 9001 8004            00004 14516                       PRETURN (R0,R1)
 00218E 18D8/9808 D004_            14518                       PEND
 DROP   ADWA-(4+36),R8
 DROP   *,R7
                                   14543
                                   14544                       QLTORG
1TEXT     (TEXT2025) (12:57) (15MAR04) SPIRES PROTOCOL FORMATTING                                                           Page   48
0Current Usings:  (CP,R11) (CV,R12)
0Loc    Object Code    Addr1 Addr2  Stmt Lv Lineno    Source Statement           (Hibal 5, Asmedit 3.3)  HLASM R4.0  2004/03/15 12.57
+___    ______ ____    _____ _____  ____ __ ______    ______ _________
0                                  14575              *
                                   14576              *  FORMAT SPIRES PROTOCOL
                                   14577              *
                                   14578              *  INSPIRED BY XFORMAT FOR WYLBUR EXEC FILES.
                                   14579              *  PLACED IN WYLBUR, BECAUSE WE ARE NICE GUYS.
                                   14580              *  (THERE IS NO OTHER JUSTIFIABLE REASON.)
                                   14581              *
                                   14582              *
                                   14583              *  ON ENTRY:
                                   14584              *    R1,R0 - LOC,LEN PROTOCOL FORMAT OPTION STRING
                                   14585              *
                                   14586              *  NOTE:
                                   14587              *  *** THIS SHOULD BE A SPIRES COMMAND *** !!!
                                   14588              *  LTM AND PCJ AGREE THIS SHOULD NOT BE IN WYLBUR BUT IN
                                   14589              *  SPIRES.  LONG TERM THAT IS WHERE IT WILL GO.
                                   14590              *
                                   14591              *  NOTE:
                                   14592              *  ERRORS EXIT VIA CVERROR
                                   14593              *
                                   14594              *
 000000                00000 008D0 14595              PFWA     RECORD BEGIN
 000000                            14603  1           PFINDENT   DS    F                   INDENT
 000004 00                         14604  1           PFFLAGS    FLAG  ,
 PFFLAGS.PFFCONT   80 ONES         14608  1                      FLAG  PFFCONT             CONTINUED LINE
 000008                            14613  1           PFBLEVEL   DS    F                   BLOCK LEVEL
 00000C                            14614  1           PFPADLEN   DS    F                   PAD LENGTH
 000010                            14615  1           PFLINENO   DS    F                   LINE AREA
 000014                            14616  1           PFLINEL    DS    F
                                   14617  1           PFLINE     DS    CL(&LINESZ)
 000018                                   1          +PFLINE     DS    CL(235)
 000104                            14618  1           PFDLINEL   DS    F                   DIGESTED (SQUISHED UPPER) LINE
                                   14619  1           PFDLINE    DS    CL(&LINESZ)
 000108                                   1          +PFDLINE    DS    CL(235)
 0001F4                            14620  1           PFOLINEL   DS    F                   OUTPUT LINE AREA
                                   14621  1           PFOLINE    DS    CL(2*&LINESZ)
 0001F8                                   1          +PFOLINE    DS    CL(2*235)
 0003D0                            14622  1           PFLNTAB    DS    256F                LIST OF BLOCK LINENOS
 0007D0                            14623  1           PFTYPTAB   DS    256C                LIST OF BLOCK TYPE
 0008D0                008D0 008D0 14624                       END
                                   14633              *
                                   14634              *
                                   14635              *
                                   14636              *
 002234 50E0 D000/9008_      00000 14637              PFORMAT  XPROC PFWA
 USING  *,R7
 USING  PFWA-(4+36),R8
 00224E 4160 8028            00000 14688                       LA    R6,PFWA
 USING  PFWA,R6                    14689                       USING PFWA,R6
 002252 D7FF 6000 6000_00000 00000 14698                       CLEAR PFWA
                                   14713
                                   14714                       COMMENT                   SET NON ZERO DEFAULTS
 002288 4120 0003            00003 14715                       LA    R2,3
 00228C 5020 6000            00000 14716                       ST    R2,PFINDENT
                                   14717
1TEXT     (TEXT2025) (12:57) (15MAR04) SPIRES PROTOCOL FORMATTING                                                           Page   49
0Current Usings:  (PFWA,R6) (*,R7) (PFWA-(4+36),R8) (CP,R11) (CV,R12)
0Loc    Object Code    Addr1 Addr2  Stmt Lv Lineno    Source Statement           (Hibal 5, Asmedit 3.3)  HLASM R4.0  2004/03/15 12.57
+___    ______ ____    _____ _____  ____ __ ______    ______ _________
0                                  14718                       COMMENT                   PROGRAM ALLOWED IN SPIRES ONLY
                                   14719                       COMMENT ,                  (WEAK CHECK)
 002290 D607 B39C B39C_0039C 0039C 14720                       IF    ((CPSVPGM,Z),OR,(CPSVPGM,EQ,' ')),BEGIN
 0022A2 4110 7C80/4100_      02ECE 14752  1                      ERROR 'PFORMAT command available in SPIRES only.'
 0022AE                            14759                       END
 0022AE D503 7B4A B39C_02D98 0039C 14763                       IF    (CPSVPGM,EQ,'DISP'),BEGIN
 0022B8 4110 7C80/4100_      02ECE 14780  1                      ERROR 'PFORMAT command available in SPIRES only.'
 0022C4                            14787                       END
                                   14791
                                   14792                       COMMENT                   SCAN OPTIONS
 0022C4 5810 B08C/1B00_      0008C 14793                       SCAN  PFPRT
 002316 58E0 7B56/0DEE       02DA4 14825                       SCANCHK
                                   14830
                                   14831                       COMMENT                   INCREMENT CHANGE COUNT
 00231C 4120 0001/5E20_      00001 14832                       INCR  R2,CPACHCT
                                   14838
                                   14839                       COMMENT                   GET FIRST LINE, SET UP LOOP
 002328 D703 6010 6010 00010 00010 14840                       CLEAR PFLINENO
 00232E 4110 6018            00018 14847                       LA    R1,PFLINE
 002332 4120 6010            00010 14848                       LA    R2,PFLINENO
 002336 1B33                       14849                       CLEAR R3
 002338 58E0 7B5A/0DEE       02DA8 14853                       VCALL GTFRST              GET FIRST LINE
                                   14857                       COMMENT                   IF FIRST LINE IS '*'.. , IGNORE
 00233E 12FF/4770 710A_            14858                       IF    ((R15,Z),AND,(R0,POS),AND,(@R1,EQ,'*')),BEGIN
 002352 58E0 7B5E/0DEE       02DAC 14898  1                      VCALL GTNEXT              GET NEXT LINE
 002358                            14902                       END
 002358 5000 6014            00014 14906                       ST    R0,PFLINEL
                                   14907
                                   14908                       COMMENT                   LOOP FORMATTING LINES
 00235C 12FF/4770 7128             14909                       WHILE (R15,Z),BEGIN       LOOP FORMATTING LINES
 002362 58E0 7B62/0DEE       02DB0 14925  1                      ACALL LNFORMAT            FORMAT LINE
 002368 58E0 7B5E/0DEE       02DAC 14929  1                      VCALL GTNEXT              GET NEXT LINE
 00236E 5000 6014            00014 14933  1                      ST    R0,PFLINEL
 002372 47F0 710E            0235C 14934                       END   ,                   LOOP
                                   14939
                                   14940                       COMMENT                   IF NOT AT LEVEL 0, ERROR
 002376 D503 7B06 6008_02D54 00008 14941                       IF    (PFBLEVEL,NE,0),BEGIN
 002380 58E0 7B66/0DEE       02DB4 14959  1                      ACALL MISSEND ERROR DOES NOT RETURN
 002386                            14963                       END
                                   14967
                                   14968                       COMMENT                   ALL DONE
 002386 47F0 C7DE            007DE 14969                       B     CVNEXT
 00238A 18D8/9808 D004_            14970                       PEND  ,
 DROP   PFWA-(4+36),R8
 DROP   *,R7
 DROP   PFWA,R6                    14995                       DROP  R6
1TEXT     (TEXT2025) (12:57) (15MAR04) SPIRES PROTOCOL FORMATTING                                                           Page   50
0Current Usings:  (CP,R11) (CV,R12)
0Loc    Object Code    Addr1 Addr2  Stmt Lv Lineno    Source Statement           (Hibal 5, Asmedit 3.3)  HLASM R4.0  2004/03/15 12.57
+___    ______ ____    _____ _____  ____ __ ______    ______ _________
0                                  15003              *
                                   15004              *  SCAN STUFF
                                   15005              *
 002398 C9D5C4C5D5E34040_          15006              PFPRT    SCKW  INDENT,PINDENT,(A,P,PI)
 0023C0 4040404040404040_          15021                       SCKW  ,V(NOTVALID)
                                   15036
 0023E8 50E0 D000/9008_      00000 15037              PINDENT  PROC  ,
 USING  *,R7
 USING  PFWA,R6                    15076                       USING PFWA,R6
 002402 5900 79B6/4740_      02DB8 15085                       IF    ((R0,LT,2),OR,(R0,GT,16)),BEGIN
 002412 4110 7A24/4100_      02E26 15118  1                      ERROR 'Invalid indent value.  (value<2, value>16)'
 00241E                            15125                       END
 00241E 5000 6000            00000 15129                       ST    R0,PFINDENT
 002422 18D8/9808 D004_            15130                       PEND
 DROP   *,R7
 DROP   PFWA,R6                    15150                       DROP  R6
                                   15157
1TEXT     (TEXT2025) (12:57) (15MAR04) SPIRES PROTOCOL FORMATTING                                                           Page   51
0Current Usings:  (CP,R11) (CV,R12)
0Loc    Object Code    Addr1 Addr2  Stmt Lv Lineno    Source Statement           (Hibal 5, Asmedit 3.3)  HLASM R4.0  2004/03/15 12.57
+___    ______ ____    _____ _____  ____ __ ______    ______ _________
0                                  15159              *
                                   15160              *
                                   15161              *  FORMAT LINE
                                   15162              *
                                   15163              *  ON ENTRY:
                                   15164              *    R6 - PFWA
                                   15165              *
                                   15166              *
 000000                00000 00003 15167              LNFWA    RECORD BEGIN
 000000 00                         15175  1           LNFFLAG1   FLAG  ,
 LNFFLAG1.LFFNONE  01 EQ           15179  1                      FLAG  (LFFNONE,1,EQ)      NO FORMATTING
 LNFFLAG1.LFFLEFT  02 EQ           15189  1                      FLAG  (LFFLEFT,2,EQ)      LEFT JUSTFY LINE
 LNFFLAG1.LFFNORM  04 EQ           15199  1                      FLAG  (LFFNORM,4,EQ)      DO NORMAL FORMATTING
 000001 00                         15209  1           LNFFLAG2   FLAG  ,
 LNFFLAG2.LFFNEWB  80 ONES         15213  1                      FLAG  LFFNEWB             NEW BLOCK
 LNFFLAG2.LFFENDB  40 ONES         15218  1                      FLAG  LFFENDB             END BLOCK
 LNFFLAG2.LFFNOEC  20 ONES         15223  1                      FLAG  LFFNOEC             NOECHO
 LNFFLAG2.LFFPREP  10 ONES         15228  1                      FLAG  LFFPREP             PREPROCESS
 000002 00                         15233  1           LFFTYPE    FLAG  ,
 LFFTYPE.LFFBEGIN  01 EQ           15237  1                      FLAG  (LFFBEGIN,1,EQ)     BEGIN BLOCK
 LFFTYPE.LFFWHILE  02 EQ           15247  1                      FLAG  (LFFWHILE,2,EQ)     WHILE BLOCK
 LFFTYPE.LFFREP    04 EQ           15257  1                      FLAG  (LFFREP,4,EQ)       REPEAT BLOCK
 000003                00003 00003 15267                       END
                                   15276              *
                                   15277              *
                                   15278              *
 002430 50E0 D000/9008_      00000 15279              LNFORMAT PROC  LNFWA
 USING  *,R7
 USING  LNFWA-(4+36),R8
 00244A D702 8028 8028 00000 00000 15329                       CLEAR LNFWA
 USING  PFWA,R6                    15336                       USING PFWA,R6
                                   15345
                                   15346                       COMMENT                   STRIP BLANKS, UPPER CASE, SQUISH
                                   15347                       COMMENT                   BLANKS IN LINE
 002450 4110 6018            00018 15348                       LA    R1,PFLINE
 002454 5800 6014            00014 15349                       L     R0,PFLINEL
 002458 58E0 7976/0DEE       02DC0 15350                       ACALL LNDIGEST
                                   15354
                                   15355                       COMMENT
 00245E 5800 6104            00104 15356                       L     R0,PFDLINEL         R0 - DIGESTED LINE LEN
 002462 4110 6108            00108 15357                       LA    R1,PFDLINE          R1 - DIGESTED LINE LOC
 002466 58E0 797A/0DEE       02DC4 15358                       ACALL PFLRTRIM                 (DIGEST ! / TOO)
 00246C 4120 6018            00018 15362                       LA    R2,PFLINE           R2 - UNDIGESTED LINE LOC
                                   15363
                                   15364                       COMMENT                   LOOK FOR LINES THAT CHANGE
                                   15365                       COMMENT                   FORMATTING
 002470 9180 6004/47E0_00004       15366                       IF    PFFCONT,BEGIN
 002478 9204 8028      00000       15381  1                      SET   LFFNORM
 00247C                            15387                       END
 00247C 7036/47F0 7040_0247C 02476 15391                       ELSEIF (R0,Z),BEGIN
 002486 9201 8028      00000       15414  1                      SET   LFFNONE
 00248A                            15420                       END
 00248A 7044/47F0 7050_0248A 02484 15424                       ELSEIF (@R2,EQ,'-'),BEGIN
 002496 9201 8028      00000       15449  1                      SET   LFFNONE
1TEXT     (TEXT2025) (12:57) (15MAR04) SPIRES PROTOCOL FORMATTING                                                           Page   52
0Current Usings:  (PFWA,R6) (*,R7) (LNFWA-(4+36),R8) (CP,R11) (CV,R12)
0Loc    Object Code    Addr1 Addr2  Stmt Lv Lineno    Source Statement           (Hibal 5, Asmedit 3.3)  HLASM R4.0  2004/03/15 12.57
+___    ______ ____    _____ _____  ____ __ ______    ______ _________
000249A                            15455                       END
 00249A 7054/47F0 7060_0249A 02494 15459                       ELSEIF (@R2,EQ,';'),BEGIN
 0024A6 9201 8028      00000       15484  1                      SET   LFFNONE
 0024AA                            15490                       END
 0024AA 7064/47F0 707A_024AA 024A4 15494                       ELSEIF ((@R1,EQ,'++'),AND,(R0,GE,2)),BEGIN
 0024C0 9202 8028      00000       15535  1                      SET   LFFLEFT
 0024C4                            15541                       END
 0024C4 707E/707E/47F0_024C4 024B6 15545                       ELSEIF ((@R1,EQ,'DEC'),AND,(R0,GE,3)),BEGIN
 0024DA 9202 8028      00000       15588  1                      SET   LFFLEFT
 0024DE                            15594                       END
 0024DE 7098/7098/47F0_024DE 024D0 15598                       ELSEIF ((@R1,EQ,'ENDD'),AND,(R0,GE,4)),BEGIN
 0024F4 9202 8028      00000       15641  1                      SET   LFFLEFT
 0024F8                            15647                       END
 0024F8 70B2/70B2/47F0_024F8 024EA 15651                       ELSEIF ((@R1,EQ,'WHI'),AND,(R0,GE,3)),BEGIN
 00250E 9204 8028      00000       15694  1                      SET   LFFNORM
 002512 9202 802A      00002       15700  1                      SET   LFFWHILE
 002516 9680 8029      00001       15706  1                      SET   LFFNEWB
 00251A                            15712                       END
 00251A 70D4/70D4/47F0_0251A 02504 15716                       ELSEIF ((@R1,EQ,'REPEAT'),AND,(R0,GE,6)),BEGIN
 002530 9204 8028      00000       15759  1                      SET   LFFNORM
 002534 9204 802A      00002       15765  1                      SET   LFFREP
 002538 9680 8029      00001       15771  1                      SET   LFFNEWB
 00253C                            15777                       END
 00253C 70F6/70F6/47F0_0253C 02526 15781                       ELSEIF ((@R1,EQ,'IF'),AND,(R0,GE,2)),BEGIN
 002552 9204 8028      00000       15824  1                      SET   LFFNORM
 002556 58E0 798E/0DEE       02DD8 15830  1                      ACALL CHKBEGIN
 00255C 12FF/4770 7120             15834  1                      IF    (R15,Z),BEGIN
 002562 9201 802A      00002       15848  2                        SET   LFFBEGIN
 002566 9680 8029      00001       15854  2                        SET   LFFNEWB
 00256A                            15860  1                      END
 00256A                            15864                       END
 00256A 7124/7124/47F0_0256A 02548 15868                       ELSEIF ((@R1,EQ,'ELSE BEGIN'),AND,(R0,GE,10)),BEGIN
 002580 9204 8028      00000       15911  1                      SET   LFFNORM
 002584 9201 802A      00002       15917  1                      SET   LFFBEGIN
 002588 9680 8029      00001       15923  1                      SET   LFFNEWB
 00258C                            15929                       END
 00258C 7146/7146/47F0_0258C 02576 15933                       ELSEIF ((@R1,EQ,'ELSE'),AND,(R0,GE,10)),BEGIN
 0025A2 9204 8028      00000       15976  1                      SET   LFFNORM
 0025A6 58E0 798E/0DEE       02DD8 15982  1                      ACALL CHKBEGIN
 0025AC 12FF/4770 7170             15986  1                      IF    (R15,Z),BEGIN
 0025B2 9201 802A      00002       16000  2                        SET   LFFBEGIN
 0025B6 9680 8029      00001       16006  2                        SET   LFFNEWB
 0025BA                            16012  1                      END
 0025BA                            16016                       END
 0025BA 7174/7174/47F0_025BA 02598 16020                       ELSEIF ((@R1,EQ,'BEGIN'),AND,(R0,GE,5)),BEGIN
 0025D0 9204 8028      00000       16063  1                      SET   LFFNORM
 0025D4 9201 802A      00002       16069  1                      SET   LFFBEGIN
 0025D8 9680 8029      00001       16075  1                      SET   LFFNEWB
 0025DC                            16081                       END
 0025DC 7196/7196/47F0_025DC 025C6 16085                       ELSEIF ((@R1,EQ,'THEN BEGIN'),AND,(R0,GE,10)),BEGIN YUCK
 0025F2 9204 8028      00000       16128  1                      SET   LFFNORM
 0025F6 9201 802A      00002       16134  1                      SET   LFFBEGIN
 0025FA 9680 8029      00001       16140  1                      SET   LFFNEWB
 0025FE                            16146                       END
1TEXT     (TEXT2025) (12:57) (15MAR04) SPIRES PROTOCOL FORMATTING                                                           Page   53
0Current Usings:  (PFWA,R6) (*,R7) (LNFWA-(4+36),R8) (CP,R11) (CV,R12)
0Loc    Object Code    Addr1 Addr2  Stmt Lv Lineno    Source Statement           (Hibal 5, Asmedit 3.3)  HLASM R4.0  2004/03/15 12.57
+___    ______ ____    _____ _____  ____ __ ______    ______ _________
00025FE 71B8/71B8/47F0_025FE 025E8 16150                       ELSEIF ((@R1,EQ,'ENDB'),AND,(R0,GE,4)),BEGIN
 002614 9204 8028      00000       16193  1                      SET   LFFNORM
 002618 9201 802A      00002       16199  1                      SET   LFFBEGIN
 00261C 9640 8029      00001       16205  1                      SET   LFFENDB
 002620                            16211                       END
 002620 71DA/71DA/47F0_02620 0260A 16215                       ELSEIF ((@R1,EQ,'ENDW'),AND,(R0,GE,4)),BEGIN
 002636 9204 8028      00000       16258  1                      SET   LFFNORM
 00263A 9202 802A      00002       16264  1                      SET   LFFWHILE
 00263E 9640 8029      00001       16270  1                      SET   LFFENDB
 002642                            16276                       END
 002642 71FC/71FC/47F0_02642 0262C 16280                       ELSEIF ((@R1,EQ,'UNT'),AND,(R0,GE,3)),BEGIN
 002658 9204 8028      00000       16323  1                      SET   LFFNORM
 00265C 9204 802A      00002       16329  1                      SET   LFFREP
 002660 9640 8029      00001       16335  1                      SET   LFFENDB
 002664                            16341                       END
 002664 721E/721E/47F0_02664 0264E 16345                       ELSE  BEGIN
 002668 9204 8028      00000       16358  1                      SET   LFFNORM
 00266C                            16364                       END
                                   16368
                                   16369                       COMMENT                   CHECK FOR NOECHO AND/OR PREPARSE
 00266C 4110 6108            00108 16370                       LA    R1,PFDLINE
 002670 5800 6104            00104 16371                       L     R0,PFDLINEL
 002674 9180 6004/4710_00004       16372                       IF    ~PFFCONT,BEGIN
 00267C 955A 1000/4770_00000       16387  1                      IF    (@R1,EQ,'!'),BEGIN
 002684 9620 8029      00001       16403  2                        SET   LFFNOEC
 002688                            16409  1                      END
 002688 9561 1000/4770_00000       16413  1                      IF    (@R1,EQ,'/'),BEGIN
 002690 9610 8029      00001       16429  2                        SET   LFFPREP
 002694                            16435  1                      END
 002694 D501 7A24 1000_02E6E 00000 16439  1                      IF    ((@R1,EQ,'!/'),AND,(R0,GE,2)),BEGIN
 0026A6 9610 8029      00001       16471  2                        SET   LFFPREP
 0026AA                            16477  1                      END
 0026AA D502 7ABB 1000_02F05 00000 16481  1                      IF    ((@R1,EQ,'! /'),AND,(R0,GE,3)),BEGIN
 0026BC 9610 8029      00001       16513  2                        SET   LFFPREP
 0026C0                            16519  1                      END
 0026C0                            16523                       END
                                   16527              *
                                   16528              *
                                   16529              *  FORMAT LINE ,, WRITE LINE
                                   16530              *
                                   16531              *
                                   16532                       COMMENT                   DONT FORMAT
 0026C0 9501 8028/4770_00000       16533                       IF    LFFNONE,BEGIN
 0026C8                            16548                       END
                                   16552
                                   16553                       COMMENT                   LEFT JUSTIFY
 0026C8 7282/47F0 72A2_026C8 026C6 16554                       ELSEIF LFFLEFT,BEGIN
 0026D4 5800 6014            00014 16578  1                      L     R0,PFLINEL
 0026D8 4110 6018            00018 16579  1                      LA    R1,PFLINE
 0026DC 58E0 79A6/0DEE       02DF0 16580  1                      VCALL LRTRIM
 0026E2 58F0 6010            00010 16584  1                      L     R15,PFLINENO
 0026E6 58E0 79AA/0DEE       02DF4 16585  1                      VCALL PUTLINE
 0026EC                            16589                       END
                                   16593
1TEXT     (TEXT2025) (12:57) (15MAR04) SPIRES PROTOCOL FORMATTING                                                           Page   54
0Current Usings:  (PFWA,R6) (*,R7) (LNFWA-(4+36),R8) (CP,R11) (CV,R12)
0Loc    Object Code    Addr1 Addr2  Stmt Lv Lineno    Source Statement           (Hibal 5, Asmedit 3.3)  HLASM R4.0  2004/03/15 12.57
+___    ______ ____    _____ _____  ____ __ ______    ______ _________
0                                  16594                       COMMENT                   STANDARD FORMAT
 0026EC 72A6/47F0 7408_026EC 026D2 16595                       ELSEIF LFFNORM,BEGIN
                                   16619  1
                                   16620  1                      COMMENT                   STANDARD FORMAT:
                                   16621  1                      COMMENT                   END BLOCK PROCESSING,
 0026F8 9140 8029/47E0_00001       16622  1                      IF    LFFENDB,BEGIN       CHECK TYPE, POP LEVEL, PAD LEN
 002700 5810 6008            00008 16637  2                        L     R1,PFBLEVEL
 002704 1211/4720 72C6             16638  2                        IF    (R1,NP),BEGIN
 00270A 58E0 79AE/0DEE       02DF8 16652  3                          ACALL NOTINBLK ERROR DOES NOT RETURN
 002710                            16656  2                        END
 002710 4120 67D0            007D0 16660  2                        LA    R2,PFTYPTAB
 002714 5A20 6008            00008 16661  2                        A     R2,PFBLEVEL
 002718 4130 802A            00002 16662  2                        LA    R3,LFFTYPE
 00271C D500 2000 3000_00000 00000 16663  2                        IF    ('CLC @R2(1),@R3 ',NE),BEGIN
 002726 58E0 79B2/0DEE       02DFC 16676  3                          ACALL NOTTYPE ERROR DOES NOT RETURN
 00272C                            16680  2                        END
 00272C 5810 6008            00008 16684  2                        L     R1,PFBLEVEL
 002730 0610                       16685  2                        DECR  R1
 002732 5010 6008            00008 16687  2                        ST    R1,PFBLEVEL
 002736 5810 600C            0000C 16688  2                        L     R1,PFPADLEN
 00273A 5B10 6000            00000 16689  2                        S     R1,PFINDENT
 00273E 5010 600C            0000C 16690  2                        ST    R1,PFPADLEN
 002742                            16691  1                      END
                                   16695  1
                                   16696  1                      COMMENT                   FORMAT LINE
                                   16697  1                      COMMENT                   NOECHO||PAD||CONT||PREPRO||TEXT
 002742 4140 61F8            001F8 16698  1                      LA    R4,PFOLINE          R4 - OUTPUT INDEX
 002746 9120 8029/47E0_00001       16699  1                      IF    LFFNOEC,'MVI @R4,C"!" '
 002752 730C/47F0 7310_02752 0274C 16720  1                      ELSE  'MVI @R4,C" " '
 00275A 5E40 79B6            02E00 16737  1                      INCR  R4
 00275E 5850 600C            0000C 16740  1                      L     R5,PFPADLEN
 002762 1255/47D0 732C             16741  1                      WHILE (R5,POS),BEGIN
 002768 9240 4000      00000       16757  2                        MVI   @R4,C' '
 00276C 5E40 79B6            02E00 16758  2                        INCR  R4
 002770 0650                       16761  2                        DECR  R5
 002772 47F0 7318            02762 16763  1                      END
 002776 9180 6004/47E0_00004       16768  1                      IF    PFFCONT,BEGIN
 00277E 5850 6000            00000 16783  2                        L     R5,PFINDENT
 002782 1255/47D0 734C             16784  2                        WHILE (R5,POS),BEGIN
 002788 9240 4000      00000       16800  3                          MVI   @R4,C' '
 00278C 5E40 79B6            02E00 16801  3                          INCR  R4
 002790 0650                       16804  3                          DECR  R5
 002792 47F0 7338            02782 16806  2                        END
 002796                            16811  1                      END
 002796 9110 8029/47E0_00001       16815  1                      IF    LFFPREP,'MVI @R4,C"/" '
 0027A2 735C/47F0 7360_027A2 0279C 16836  1                      ELSE  'MVI @R4,C" " '
 0027AA 5E40 79B6            02E00 16853  1                      INCR  R4
 0027AE 5800 6014            00014 16856  1                      L     R0,PFLINEL
 0027B2 4110 6018            00018 16857  1                      LA    R1,PFLINE
 0027B6 9120 8029/4710_00001       16858  1                      IF    (LFFNOEC,OR,LFFPREP),' ACALL PFLRTRIM'
 0027CC 7386/47F0 738C_027CC 027C4 16896  1                      ELSE  'VCALL LRTRIM'
 0027D6 1850                       16916  1                      LR    R5,R0
 0027D8 0650/1255/4740_            16917  1                      MOVE  R5,@R4,@R1
 0027E4 1A40                       16955  1                      AR    R4,R0
1TEXT     (TEXT2025) (12:57) (15MAR04) SPIRES PROTOCOL FORMATTING                                                           Page   55
0Current Usings:  (PFWA,R6) (*,R7) (LNFWA-(4+36),R8) (CP,R11) (CV,R12)
0Loc    Object Code    Addr1 Addr2  Stmt Lv Lineno    Source Statement           (Hibal 5, Asmedit 3.3)  HLASM R4.0  2004/03/15 12.57
+___    ______ ____    _____ _____  ____ __ ______    ______ _________
00027E6 1804                       16956  1                      LR    R0,R4
 0027E8 4110 61F8            001F8 16957  1                      LA    R1,PFOLINE
 0027EC 1B01                       16958  1                      SR    R0,R1
 0027EE 5900 79BA/4750_      02E04 16959  1                      IF    (R0,GE,&LINESZ),BEGIN
 0027F6 58E0 79BE/0DEE       02E08 16976  2                        ACALL LONGLINE ERROR DOES NOT RETURN
 0027FC                            16980  1                      END
 0027FC 58F0 6010            00010 16984  1                      L     R15,PFLINENO
 002800 58E0 79AA/0DEE       02DF4 16985  1                      VCALL PUTLINE             OUTPUT FORMATED LINE
                                   16989  1
                                   16990  1                      COMMENT                   STANDARD FORMAT:
                                   16991  1                      COMMENT                   NEW BLOCK PROCESSING
 002806 9180 8029/47E0_00001       16992  1                      IF    LFFNEWB,BEGIN       PUSH LEVEL, PAD, LINENO, TYPE
 00280E 5810 6008            00008 17007  2                        L     R1,PFBLEVEL
 002812 5E10 79B6            02E00 17008  2                        INCR  R1
 002816 5010 6008            00008 17011  2                        ST    R1,PFBLEVEL
 00281A 5810 600C            0000C 17012  2                        L     R1,PFPADLEN
 00281E 5A10 6000            00000 17013  2                        A     R1,PFINDENT
 002822 5010 600C            0000C 17014  2                        ST    R1,PFPADLEN
 002826 4120 63D0            003D0 17015  2                        LA    R2,PFLNTAB
 00282A 5A20 6008            00008 17016  2                        A     R2,PFBLEVEL
 00282E 5A20 6008            00008 17017  2                        A     R2,PFBLEVEL
 002832 5A20 6008            00008 17018  2                        A     R2,PFBLEVEL
 002836 5A20 6008            00008 17019  2                        A     R2,PFBLEVEL
 00283A 5810 6010            00010 17020  2                        L     R1,PFLINENO
 00283E 5012 0000            00000 17021  2                        ST    R1,0(R2)
 002842 4120 67D0            007D0 17022  2                        LA    R2,PFTYPTAB
 002846 5A20 6008            00008 17023  2                        A     R2,PFBLEVEL
 00284A 4310 802A            00002 17024  2                        IC    R1,LFFTYPE
 00284E 4212 0000            00000 17025  2                        STC   R1,0(R2)
 002852                            17026  1                      END
 002852                            17030                       END
                                   17034
                                   17035                       COMMENT                   CHECK IF CONTINUATION LINE
 002852 947F 6004      00004       17036                       CLEAR PFFCONT
 002856 5800 6014            00014 17043                       L     R0,PFLINEL
 00285A 4110 6018            00018 17044                       LA    R1,PFLINE
 00285E 1200/47D0 742A             17045                       IF    (R0,POS),BEGIN
 002864 1A10                       17059  1                      AR    R1,R0
 002866 0610                       17060  1                      DECR  R1
 002868 95E0 1000/4770_00000       17062  1                      IF    (@R1,EQ,'\'),BEGIN
 002870 9680 6004      00004       17078  2                        SET   PFFCONT
 002874                            17084  1                      END
 002874                            17088                       END
                                   17092
 002874 18D8/9808 D004_            17093                       PEND  ,
 DROP   LNFWA-(4+36),R8
 DROP   *,R7
1TEXT     (TEXT2025) (12:57) (15MAR04) SPIRES PROTOCOL FORMATTING                                                           Page   56
0Current Usings:  (PFWA,R6) (CP,R11) (CV,R12)
0Loc    Object Code    Addr1 Addr2  Stmt Lv Lineno    Source Statement           (Hibal 5, Asmedit 3.3)  HLASM R4.0  2004/03/15 12.57
+___    ______ ____    _____ _____  ____ __ ______    ______ _________
0                                  17119              *
                                   17120              *  LNDIGEST - THIS ROUTINE DOES A STRIP(UPPER(SQUISH(TEXT)))
                                   17121              *
                                   17122              *  ON ENTRY:
                                   17123              *    R1,R0 - LINE LOC,LEN
                                   17124              *    R6 - PFWA
                                   17125              *
                                   17126              *
                                   17127              *  ON EXIT:
                                   17128              *    NEW LINE IS PFDLINE, LENGTH IS PFDLINEL
                                   17129              *
                                   17130              *
 002882 50E0 D000/9008_      00000 17131              LNDIGEST PROC ,
 USING  *,R7
                                   17170
                                   17171                       COMMENT                   STRIP BLANKS
 00289C 58E0 7554/0DEE       02DF0 17172                       VCALL LRTRIM
 0028A2 1821                       17176                       LR    R2,R1               R2 - INPUT LINE
 0028A4 1830                       17177                       LR    R3,R0               R3 - END OF INPUT LINE
 0028A6 1A32                       17178                       AR    R3,R2
 0028A8 4140 6108            00108 17179                       LA    R4,PFDLINE          R4 - OUTPUT LINE INDEX
                                   17180
                                   17181                       COMMENT                   SQUISH
 0028AC 1923/47B0 7058             17182                       WHILE (R2,LT,R3),BEGIN
 0028B2 9540 2000/4780_00000       17199  1                      IF    (@R2,NE,' '),BEGIN
 0028BA D200 4000 2000 00000 00000 17215  2                        MVC   @R4(1),@R2
 0028C0 5E20 7564            02E00 17216  2                        INCR  R2
 0028C4 5E40 7564            02E00 17219  2                        INCR  R4
 0028C8                            17222  1                      END
 0028C8 7030/47F0 7054 028C8 028B8 17226  1                      ELSE  BEGIN  IE. IF (R2,EQ,' ')
 0028CC D200 4000 2000 00000 00000 17237  2                        MVC   @R4(1),@R2
 0028D2 5E20 7564            02E00 17238  2                        INCR  R2
 0028D6 5E40 7564            02E00 17241  2                        INCR  R4
 0028DA 9540 2000/4770_00000       17244  2                        WHILE ((@R2,EQ,' '),AND,(R2,LT,R3)),BEGIN
 0028E8 5E20 7564            02E00 17276  3                          INCR  R2
 0028EC 47F0 703E            028DA 17279  2                        END
 0028F0                            17284  1                      END
 0028F0 47F0 7010            028AC 17288                       END
                                   17293                       COMMENT                   CALCULATE SQUISH LENGTH
 0028F4 4150 6108            00108 17294                       LA    R5,PFDLINE
 0028F8 1B45                       17295                       SR    R4,R5
 0028FA 5040 6104            00104 17296                       ST    R4,PFDLINEL
                                   17297
                                   17298                       COMMENT                   UPPER CASE LINE
 0028FE 4120 6108            00108 17299                       LA    R2,PFDLINE
 002902 5830 6104            00104 17300                       L     R3,PFDLINEL
 002906 5840 C8A8            008A8 17301                       L     R4,CVUPPTBL
 00290A 0630/4430 767E_            17302                       DEX   R3,' TR @R2(0),@R4 '
                                   17321
 002910 18D8/9808 D004_            17322                       PEND  ,
 DROP   *,R7
1TEXT     (TEXT2025) (12:57) (15MAR04) SPIRES PROTOCOL FORMATTING                                                           Page   57
0Current Usings:  (PFWA,R6) (CP,R11) (CV,R12)
0Loc    Object Code    Addr1 Addr2  Stmt Lv Lineno    Source Statement           (Hibal 5, Asmedit 3.3)  HLASM R4.0  2004/03/15 12.57
+___    ______ ____    _____ _____  ____ __ ______    ______ _________
0                                  17343              *
                                   17344              *  SPECIAL PFORMAT LRTRIM
                                   17345              *
                                   17346              *  WE TRIM LEADING AND TRAILING BLANKS AND ALSO
                                   17347              *  WE GET RID OF LEADING '!' NOECHO CHAR AND
                                   17348              *  LEADING '/' PREPROCESS CHARACTER.
                                   17349              *
                                   17350              *  ON ENTRY:
                                   17351              *    R1,R0 - LINE LOC,LEN
                                   17352              *
                                   17353              *  ON EXIT:
                                   17354              *    R1,R0 - NEW LOC,LEN
                                   17355              *
                                   17356              *  NOTE:
                                   17357              *  ONLY POINTER IS CHANGED, TEXT IS NOT MOVED.
                                   17358              *
                                   17359              *
 00291E 50E0 D000/9008_      00000 17360              PFLRTRIM PROC  ,
 USING  *,R7
 002938 1821                       17399                       LR    R2,R1
 00293A 1A20                       17400                       AR    R2,R0
 00293C 1912/47B0 701A_            17401                       WHILE ((R1,LT,R2),AND,(@R1,EQ,' ')),' INCR R1 '
 002952 1912/47B0 702C_            17442                       IF    ((R1,LT,R2),AND,(@R1,EQ,'!')),' INCR R1 '
 002964 1912/47B0 7042_            17480                       WHILE ((R1,LT,R2),AND,(@R1,EQ,' ')),' INCR R1 '
 00297A 1912/47B0 7054_            17521                       IF    ((R1,LT,R2),AND,(@R1,EQ,'/')),' INCR R1 '
 00298C 1912/47B0 706A_            17559                       WHILE ((R1,LT,R2),AND,(@R1,EQ,' ')),' INCR R1 '
 0029A2 0620                       17600                       DECR  R2
 0029A4 1921/4750 7080_            17602                       WHILE ((R2,GE,R1),AND,(@R2,EQ,' ')),' DECR R2 '
 0029B8 5E20 74C8            02E00 17642                       INCR  R2
 0029BC 1802                       17645                       LR    R0,R2
 0029BE 1B01                       17646                       SR    R0,R1
 0029C0 9001 8004            00004 17647                       PRETURN (R0,R1)
 0029C4 18D8/9808 D004_            17649                       PEND  ,
 DROP   *,R7
1TEXT     (TEXT2025) (12:57) (15MAR04) SPIRES PROTOCOL FORMATTING                                                           Page   58
0Current Usings:  (PFWA,R6) (CP,R11) (CV,R12)
0Loc    Object Code    Addr1 Addr2  Stmt Lv Lineno    Source Statement           (Hibal 5, Asmedit 3.3)  HLASM R4.0  2004/03/15 12.57
+___    ______ ____    _____ _____  ____ __ ______    ______ _________
0                                  17670              *
                                   17671              *  CHECK IF
                                   17672              *
                                   17673              *  THIS ROUTINE CHECKS TO SEE IF LINE IS START OF BLOCK.
                                   17674              *  WE CHECK 'IF' AND 'ELSE' COMMANDS
                                   17675              *
                                   17676              *  ON ENTRY:
                                   17677              *    R6 - PFWA
                                   17678              *    CURRENT LINE INFO IS PFLINENO, PFLINE, PFLINEL
                                   17679              *
                                   17680              *  ON EXIT:
                                   17681              *    R15=0 IF BEGIN BLOCK,  R15=NZ IF NOT BEGIN BLOCK
                                   17682              *
                                   17683              *  NOTE:
                                   17684              *  WE READ ALL CONTINUATION LINES.  WE ALSO DIGEST THE
                                   17685              *  LINES (IE. SQUISH, STRIP BLANKS, AND UPPER CASE).
                                   17686              *  NEXT WE BLANK EVERYTHING IN QUOTES AND HACK OFF ANY
                                   17687              *  TRAINLING COMMENT (AFTER ;).   FINALLY WE LOOK FOR
                                   17688              *  A ': BEGIN' OR A 'THEN BEGIN' OR A ':BEGIN'.
                                   17689              *  THIS STRATEGY SHOULD BE GOOD ENOUGH !  (HOPEFULLY)
                                   17690              *
                                   17691              *
 000000                00000 00593 17692              CFWA     RECORD BEGIN
 000000                            17700  1           CFLINENO   DS    F                   AREA FOR CONTINUE LINE
 000004                            17701  1           CFLINEL    DS    F
                                   17702  1           CFLINE     DS    CL(&LINESZ)
 000008                                   1          +CFLINE     DS    CL(235)
 0000F4                            17703  1           CFCLINEL   DS    F                   AREA FOR CONCATENATION
                                   17704  1           CFCLINE    DS    CL(4*&LINESZ)
 0000F8                                   1          +CFCLINE    DS    CL(4*235)
 0004A4                            17705  1           CFDLINEL   DS    F                   Save caller's PFDLINEX
                                   17706  1           CFDLINE    DS    CL(&LINESZ)
 0004A8                                   1          +CFDLINE    DS    CL(235)
 000593                00593 00593 17707                       END
                                   17716              *
                                   17717              *
 0029D2 50E0 D000/9008_      00000 17718              CHKBEGIN  PROC  CFWA
 USING  *,R7
 USING  CFWA-(4+36),R8
                                   17768                       USING PFWA,R6
                                   17770
                                   17771                       COMMENT                   INIT CFWA
 0029EC 5820 6010            00010 17772                       L     R2,PFLINENO
 0029F0 5020 8028            00000 17773                       ST    R2,CFLINENO
 0029F4 D703 802C 802C 00004 00004 17774                       CLEAR CFLINEL
 0029FA D703 811C 811C 000F4 000F4 17781                       CLEAR CFCLINEL
                                   17788
                                   17789                       COMMENT                   MOVE DIGESTED LINE TO CONCAT
 002A00 4120 6108            00108 17790                       LA    R2,PFDLINE
 002A04 5830 6104            00104 17791                       L     R3,PFDLINEL
 002A08 5030 84CC            004A4 17792                       ST    R3,CFDLINEL         Save caller's digested line
 002A0C D2EA 84D0 6108 004A8 00108 17793                       MVC   CFDLINE,PFDLINE     because we may clobber it
 002A12 4140 8120            000F8 17794                       LA    R4,CFCLINE
 002A16 1853                       17795                       LR    R5,R3
1TEXT     (TEXT2025) (12:57) (15MAR04) SPIRES PROTOCOL FORMATTING                                                           Page   59
0Current Usings:  (PFWA,R6) (*,R7) (CFWA-(4+36),R8) (CP,R11) (CV,R12)
0Loc    Object Code    Addr1 Addr2  Stmt Lv Lineno    Source Statement           (Hibal 5, Asmedit 3.3)  HLASM R4.0  2004/03/15 12.57
+___    ______ ____    _____ _____  ____ __ ______    ______ _________
0002A18 0E42                       17796                       MVCL  R4,R2
 002A1A 5830 6104            00104 17797                       L     R3,PFDLINEL
 002A1E 5030 811C            000F4 17798                       ST    R3,CFCLINEL
                                   17799
                                   17800                       COMMENT                   LOOP READING,DIGESTING
                                   17801                       COMMENT                   AND CONCATING CONTINUATION LINES
 002A22 4120 8120            000F8 17802                       LA    R2,CFCLINE
 002A26 5830 811C            000F4 17803                       L     R3,CFCLINEL
 002A2A 1A23                       17804                       AR    R2,R3
 002A2C 0620                       17805                       DECR  R2
 002A2E 1233/47D0 70BC_            17807                       WHILE ((R3,POS),AND,(@R2,EQ,'\')),BEGIN
 002A3C 9240 2000      00000       17838  1                      MVI   @R2,C' '
                                   17839  1                      COMMENT                   GET NEXT LINE
 002A40 4110 8030            00008 17840  1                      LA    R1,CFLINE
 002A44 4120 8028            00000 17841  1                      LA    R2,CFLINENO
 002A48 1B33                       17842  1                      CLEAR R3
 002A4A 58E0 73C0/0DEE       02DAC 17846  1                      VCALL GTNEXT
 002A50 12FF/4780 706C_            17850  1                      IF    (R15,NZ),' CLEAR R0 '
 002A58 5000 802C            00004 17873  1                      ST    R0,CFLINEL
                                   17874  1                      COMMENT                   DIGEST IT
 002A5C 4110 8030            00008 17875  1                      LA    R1,CFLINE
 002A60 5800 802C            00004 17876  1                      L     R0,CFLINEL
 002A64 58E0 73D4/0DEE       02DC0 17877  1                      ACALL LNDIGEST
                                   17881  1                      COMMENT                   CONCAT IT
 002A6A 4120 6108            00108 17882  1                      LA    R2,PFDLINE
 002A6E 5830 6104            00104 17883  1                      L     R3,PFDLINEL
 002A72 4140 8120            000F8 17884  1                      LA    R4,CFCLINE
 002A76 5A40 811C            000F4 17885  1                      A     R4,CFCLINEL
 002A7A 1853                       17886  1                      LR    R5,R3
 002A7C 0E42                       17887  1                      MVCL  R4,R2
 002A7E 5830 6104            00104 17888  1                      L     R3,PFDLINEL
 002A82 5A30 811C            000F4 17889  1                      A     R3,CFCLINEL
 002A86 5030 811C            000F4 17890  1                      ST    R3,CFCLINEL
 002A8A 5930 7420/4750_      02E0C 17891  1                      IF    (R3,GE,2*&LINESZ),BEGIN
 002A92 58E0 741C/0DEE       02E08 17908  2                        ACALL LONGLINE
 002A98                            17912  1                      END
 002A98 4120 8120            000F8 17916  1                      LA    R2,CFCLINE
 002A9C 5830 811C            000F4 17917  1                      L     R3,CFCLINEL
 002AA0 1A23                       17918  1                      AR    R2,R3
 002AA2 0620                       17919  1                      DECR  R2
 002AA4 47F0 7042            02A2E 17921                       END
                                   17926
                                   17927                       COMMENT                   BLANK INSIDE QUOTES, COMMENTS (;)
 002AA8 4120 8120            000F8 17928                       LA    R2,CFCLINE
 002AAC 5830 811C            000F4 17929                       L     R3,CFCLINEL
 002AB0 955E 2000/4780_00000       17930                       WHILE ((@R2,NE,';'),AND,(R2,LT,R3)),BEGIN
 002ABE 957D 2000/4770_00000       17962  1                      IF    (@R2,EQ,''''),BEGIN
 002AC6 5E20 7414            02E00 17978  2                        INCR  R2
 002ACA 957D 2000/4780_00000       17981  2                        WHILE ((@R2,NE,''''),AND,(R2,LT,R3)),BEGIN
 002AD8 9240 2000      00000       18013  3                          MVI   @R2,C' '
 002ADC 5E20 7414            02E00 18014  3                          INCR  R2
 002AE0 47F0 70DE            02ACA 18017  2                        END
 002AE4 5E20 7414            02E00 18022  2                        INCR  R2
 002AE8                            18025  1                      END
1TEXT     (TEXT2025) (12:57) (15MAR04) SPIRES PROTOCOL FORMATTING                                                           Page   60
0Current Usings:  (PFWA,R6) (*,R7) (CFWA-(4+36),R8) (CP,R11) (CV,R12)
0Loc    Object Code    Addr1 Addr2  Stmt Lv Lineno    Source Statement           (Hibal 5, Asmedit 3.3)  HLASM R4.0  2004/03/15 12.57
+___    ______ ____    _____ _____  ____ __ ______    ______ _________
0002AE8 7100/47F0 712A_02AE8 02AC4 18029  1                      ELSEIF (@R2,EQ,'"'),BEGIN
 002AF4 5E20 7414            02E00 18054  2                        INCR  R2
 002AF8 957F 2000/4780_00000       18057  2                        WHILE ((@R2,NE,'"'),AND,(R2,LT,R3)),BEGIN
 002B06 9240 2000      00000       18089  3                          MVI   @R2,C' '
 002B0A 5E20 7414            02E00 18090  3                          INCR  R2
 002B0E 47F0 710C            02AF8 18093  2                        END
 002B12 5E20 7414            02E00 18098  2                        INCR  R2
 002B16                            18101  1                      END
 002B16 712E/47F0 7132 02B16 02AF2 18105  1                      ELSE  BEGIN
 002B1A 5E20 7414            02E00 18116  2                        INCR  R2
 002B1E                            18119  1                      END
 002B1E 47F0 70C4            02AB0 18123                       END
                                   18128                       COMMENT                   NOW TRUNCATE COMMENT, IF ANY
 002B22 1923/47B0 7146             18129                       IF    (R2,LT,R3),BEGIN
 002B28 4130 8120            000F8 18144  1                      LA    R3,CFCLINE
 002B2C 1B23                       18145  1                      SR    R2,R3
 002B2E 5030 8120            000F8 18146  1                      ST    R3,CFCLINE
 002B32                            18147                       END
                                   18151
                                   18152                       COMMENT                   LOOK FOR 'THEN BEGIN', ':BEGIN'
 002B32 4120 8120            000F8 18153                       LA    R2,CFCLINE
 002B36 5830 811C            000F4 18154                       L     R3,CFCLINEL
 002B3A 1A32                       18155                       AR    R3,R2
 002B3C 5B30 7424            02E10 18156                       S     R3,=F'10'
 002B40 D509 7478 2000_02E64 00000 18157                       WHILE ((@R2,NE,'THEN BEGIN'),AND,(R2,LE,R3)),BEGIN
 002B50 5E20 7414            02E00 18189  1                      INCR  R2
 002B54 47F0 7154            02B40 18192                       END
 002B58 D509 7478 2000_02E64 00000 18197                       IF    ((@R2,EQ,'THEN BEGIN'),AND,(R2,LE,R3)),BEGIN
 002B68 47F0 71F8            02BE4 18227  1                      B     NEWBLOCK
 002B6C                            18228                       END
 002B6C 4120 8120            000F8 18232                       LA    R2,CFCLINE
 002B70 5830 811C            000F4 18233                       L     R3,CFCLINEL
 002B74 1A32                       18234                       AR    R3,R2
 002B76 5B30 7428            02E14 18235                       S     R3,=F'7'
 002B7A D506 751C 2000_02F08 00000 18236                       WHILE ((@R2,NE,': BEGIN'),AND,(R2,LE,R3)),BEGIN
 002B8A 5E20 7414            02E00 18268  1                      INCR  R2
 002B8E 47F0 718E            02B7A 18271                       END
 002B92 D506 751C 2000_02F08 00000 18276                       IF    ((@R2,EQ,': BEGIN'),AND,(R2,LE,R3)),BEGIN
 002BA2 47F0 71F8            02BE4 18306  1                      B     NEWBLOCK
 002BA6                            18307                       END
 002BA6 4120 8120            000F8 18311                       LA    R2,CFCLINE
 002BAA 5830 811C            000F4 18312                       L     R3,CFCLINEL
 002BAE 1A32                       18313                       AR    R3,R2
 002BB0 5B30 742C            02E18 18314                       S     R3,=F'6'
 002BB4 D505 7484 2000_02E70 00000 18315                       WHILE ((@R2,NE,':BEGIN'),AND,(R2,LE,R3)),BEGIN
 002BC4 5E20 7414            02E00 18347  1                      INCR  R2
 002BC8 47F0 71C8            02BB4 18350                       END
 002BCC D505 7484 2000_02E70 00000 18355                       IF    ((@R2,EQ,':BEGIN'),AND,(R2,LE,R3)),BEGIN
 002BDC 47F0 71F8            02BE4 18385  1                      B     NEWBLOCK
 002BE0                            18386                       END
                                   18390                       COMMENT                   DID NOT FIND 'BEGIN'
 002BE0 47F0 71FE            02BEA 18391                       B     NOBLOCK
                                   18392
 002BE4                            18393              NEWBLOCK LABEL ,
1TEXT     (TEXT2025) (12:57) (15MAR04) SPIRES PROTOCOL FORMATTING                                                           Page   61
0Current Usings:  (PFWA,R6) (*,R7) (CFWA-(4+36),R8) (CP,R11) (CV,R12)
0Loc    Object Code    Addr1 Addr2  Stmt Lv Lineno    Source Statement           (Hibal 5, Asmedit 3.3)  HLASM R4.0  2004/03/15 12.57
+___    ______ ____    _____ _____  ____ __ ______    ______ _________
0002BE4 1BFF                       18395                       CLEAR R15
 002BE6 47F0 7206            02BF2 18399                       B     CKIFDONE
                                   18400
 002BEA                            18401              NOBLOCK  LABEL ,
 002BEA 41F0 0004            00004 18403                       LA    R15,4
 002BEE 47F0 7206            02BF2 18404                       B     CKIFDONE
                                   18405
 002BF2                            18406              CKIFDONE LABEL ,
 002BF2 5800 84CC            004A4 18408                       L     R0,CFDLINEL         Restore caller's PFDLINEx
 002BF6 5000 6104            00104 18409                       ST    R0,PFDLINEL
 002BFA D2EA 6108 84D0 00108 004A8 18410                       MVC   PFDLINE,CFDLINE
 002C00 18D8/9808 D004_            18411                       PEND  ,
 DROP   CFWA-(4+36),R8
 DROP   *,R7
1TEXT     (TEXT2025) (12:57) (15MAR04) SPIRES PROTOCOL FORMATTING                                                           Page   62
0Current Usings:  (PFWA,R6) (CP,R11) (CV,R12)
0Loc    Object Code    Addr1 Addr2  Stmt Lv Lineno    Source Statement           (Hibal 5, Asmedit 3.3)  HLASM R4.0  2004/03/15 12.57
+___    ______ ____    _____ _____  ____ __ ______    ______ _________
0                                  18437              *
                                   18438              *  PROTOCOL FORMAT ERROR ROUTINES
                                   18439              *
                                   18440              *
                                   18441                       USING PFWA,R6
                                   18443
 002C0E 50E0 D000/9008_      00000 18444              MISSEND  PROC  ,
 USING  *,R7
 002C28 4110 724E/4100_      02E76 18483                       TSEG  'No END block statement.  Block starts at line '
 002C3A 4120 63D0            003D0 18501                       LA    R2,PFLNTAB
 002C3E 5A20 6008            00008 18502                       A     R2,PFBLEVEL
 002C42 5A20 6008            00008 18503                       A     R2,PFBLEVEL
 002C46 5A20 6008            00008 18504                       A     R2,PFBLEVEL
 002C4A 5A20 6008            00008 18505                       A     R2,PFBLEVEL
 002C4E 5802 0000            00000 18506                       L     R0,0(R2)
 002C52 58E0 71F8/0DEE       02E20 18507                       VCALL CVEXNO
 002C58 47F0 C7C8            007C8 18511                       ERROR (R1),(R0)
 002C5C 18D8/9808 D004_            18524                       PEND
 DROP   *,R7
                                   18544
 002C6A 50E0 D000/9008_      00000 18545              NOTINBLK PROC  ,
 USING  *,R7
 002C84 4110 7220/4100_      02EA4 18584                       TSEG  'Extra END block statement.  Error in line '
 002C96 5800 6010            00010 18602                       L     R0,PFLINENO
 002C9A 58E0 719C/0DEE       02E20 18603                       VCALL CVEXNO
 002CA0 47F0 C7C8            007C8 18607                       ERROR (R1),(R0)
 002CA4 18D8/9808 D004_            18620                       PEND
 DROP   *,R7
                                   18640
 002CB2 50E0 D000/9008_      00000 18641              NOTTYPE  PROC  ,
 USING  *,R7
 002CCC 4110 708C/4100_      02D58 18680                       TSEG  'END block is wrong type.  Error in line '
 002CDE 5800 6010            00010 18698                       L     R0,PFLINENO
 002CE2 58E0 7154/0DEE       02E20 18699                       VCALL CVEXNO
 002CE8 47F0 C7C8            007C8 18703                       ERROR (R1),(R0)
 002CEC 18D8/9808 D004_            18716                       PEND
 DROP   *,R7
                                   18736
 002CFA 50E0 D000/9008_      00000 18737              LONGLINE PROC  ,
 USING  *,R7
 002D14 4110 71FB/4100_      02F0F 18776                       TSEG  'Line '
 002D26 5800 6010            00010 18794                       L     R0,PFLINENO
 002D2A 58E0 710C/0DEE       02E20 18795                       VCALL CVEXNO
 002D30 41F0 B050/58E0_      00050 18799                       TSEG  (R1),(R0)
 002D3A 4110 706C/4100_      02D80 18823                       ERROR ' is too long to format. '
 002D46 18D8/9808 D004_            18830                       PEND
 DROP   *,R7
                                   18850
                                   18851                       QLTORG
                                   18920
                                   18921                       VLTORG
 002F20                02F20 02F20 18929                       END   .

1TEXT     (TEXT2025) (12:57) (15MAR04) Relocation Dictionary                                                                Page   63
-   Pos.Id   Rel.Id   Flags    Address                                                       HLASM R4.0  2004/03/15 12.57
0  00000001 00000001    0C    00000114
   00000001 00000001    0C    0000013C
   00000001 00000001    0C    00000164
   00000001 00000001    0C    0000034C
   00000001 00000001    0C    00000378
   00000001 00000001    0C    0000056C
   00000001 00000001    0C    00000594
   00000001 00000001    0C    000005BC
   00000001 00000001    0C    000005E4
   00000001 00000001    0C    0000060C
   00000001 00000001    0C    0000065C
   00000001 00000001    0C    00000684
   00000001 00000001    0C    000006D4
   00000001 00000001    0C    000006FC
   00000001 00000001    0C    00000724
   00000001 00000001    0C    0000074C
   00000001 00000001    0C    00000F00
   00000001 00000001    0C    00000F28
   00000001 00000001    0C    00000F30
   00000001 00000001    0C    00000F3C
   00000001 00000001    0C    00000F40
   00000001 00000001    0C    0000128C
   00000001 00000001    0C    000012B4
   00000001 00000001    0C    000012DC
   00000001 00000001    0C    00001304
   00000001 00000001    0C    0000132C
   00000001 00000001    0C    00001354
   00000001 00000001    0C    0000137C
   00000001 00000001    0C    000013A4
   00000001 00000001    0C    000013F4
   00000001 00000001    0C    0000141C
   00000001 00000001    0C    00001830
   00000001 00000001    0C    0000183C
   00000001 00000001    0C    00001844
   00000001 00000001    0C    00001850
   00000001 00000001    0C    00001854
   00000001 00000001    0C    0000185C
   00000001 00000001    0C    00001860
   00000001 00000001    0C    00001870
   00000001 00000001    0C    000021D4
   00000001 00000001    0C    000023BC
   00000001 00000001    0C    00002D9C
   00000001 00000001    0C    00002DB0
   00000001 00000001    0C    00002DB4
   00000001 00000001    0C    00002DC0
   00000001 00000001    0C    00002DC4
   00000001 00000001    0C    00002DD8
   00000001 00000001    0C    00002DF8
   00000001 00000001    0C    00002DFC
   00000001 00000001    0C    00002E08
   00000001 00000002    1C    00000110
   00000001 00000002    1C    00000138
   00000001 00000002    1C    00000160
   00000001 00000002    1C    00000568
   00000001 00000002    1C    00000658
1TEXT     (TEXT2025) (12:57) (15MAR04) Relocation Dictionary                                                                Page   64
   00000001 00000002    1C    000006D0
   00000001 00000002    1C    000006F8
   00000001 00000002    1C    00001288
   00000001 00000002    1C    000012B0
   00000001 00000002    1C    000013F0
   00000001 00000002    1C    000023B8
   00000001 00000003    1C    0000018C
   00000001 00000003    1C    00000634
   00000001 00000004    1C    000001B0
   00000001 00000004    1C    000006A8
   00000001 00000004    1C    00000748
   00000001 00000004    1C    000013C8
   00000001 00000004    1C    00001418
   00000001 00000004    1C    000023E0
   00000001 00000005    1C    000001B4
   00000001 00000005    1C    000006AC
   00000001 00000005    1C    000013CC
   00000001 00000006    1C    00000348
   00000001 00000006    1C    00000EF8
   00000001 00000006    1C    0000180C
   00000001 00000007    1C    00000350
   00000001 00000007    1C    00000F04
   00000001 00000007    1C    00001834
   00000001 00000007    1C    00002DA0
   00000001 00000008    1C    00000354
   00000001 00000008    1C    00000F08
   00000001 00000008    1C    00001838
   00000001 00000008    1C    00002DA4
   00000001 00000009    1C    0000037C
   00000001 00000009    1C    00000F2C
   00000001 00000009    1C    00001848
   00000001 0000000A    1C    00000384
   00000001 0000000A    1C    00000F58
   00000001 0000000B    1C    00000388
   00000001 0000000B    1C    00000F54
   00000001 0000000C    1C    0000038C
   00000001 0000000C    1C    00000F5C
   00000001 0000000D    1C    00000390
   00000001 0000000D    1C    00000F60
   00000001 0000000E    1C    00000590
   00000001 0000000F    1C    000005B8
   00000001 0000000F    1C    000005E0
   00000001 0000000F    1C    00000608
   00000001 0000000F    1C    00000680
   00000001 0000000F    1C    000012D8
   00000001 0000000F    1C    00001300
   00000001 0000000F    1C    00001328
   00000001 0000000F    1C    00001350
   00000001 0000000F    1C    00001378
   00000001 0000000F    1C    000013A0
   00000001 00000010    1C    00000720
   00000001 00000011    1C    00000F34
   00000001 00000012    1C    00000F38
   00000001 00000013    1C    00000F4C
   00000001 00000013    1C    00001858
   00000001 00000014    1C    00000F50
   00000001 00000015    1C    00000F64
   00000001 00000016    1C    00000F68
   00000001 00000017    1C    00000F6C
1TEXT     (TEXT2025) (12:57) (15MAR04) Relocation Dictionary                                                                Page   65
   00000001 00000018    1C    00001808
   00000001 00000019    1C    0000184C
   00000001 00000019    1C    000021AC
   00000001 0000001A    1C    00001864
   00000001 0000001A    1C    00002DF4
   00000001 0000001B    1C    00001868
   00000001 0000001C    1C    0000186C
   00000001 0000001C    1C    00002E1C
   00000001 0000001D    1C    000021A4
   00000001 0000001E    1C    000021E0
   00000001 0000001F    1C    000023E4
   00000001 00000020    1C    00002DA8
   00000001 00000021    1C    00002DAC
   00000001 00000022    1C    00002DF0
   00000001 00000023    1C    00002E20

1TEXT     (TEXT2025) (12:57) (15MAR04) Ordinary Symbol and Literal Cross Reference                                          Page   66
-Symbol   Length   Value     Id    R Type   Defn References                                  HLASM R4.0  2004/03/15 12.57
0$$$@R0        1 00000000 FFFFFFFE     J     705  1018
 $$$@R10       1 00000000 FFFFFFF4     J     835  1082
 $$$@R11       1 00000000 FFFFFFF3     J     848  1095
 $$$@R12       1 00000000 FFFFFFF2     J     861  1108
 $$$@R13       1 00000000 FFFFFFF1     J     874  1121
 $$$@R14       1 00000000 FFFFFFF0     J     887  1134
 $$$@R7        1 00000000 FFFFFFF7     J     796  1031
 $$$@R8        1 00000000 FFFFFFF6     J     809  1044   1056
 $$$@R9        1 00000000 FFFFFFF5     J     822  1069
 $$$C1WYLTEXT
               1 000003A6 00000001     J    7298  7300   9331   9393
 $$$C2WYLTEXT
               1 00000FDC 00000001     J   10044 10046  10100  10119
 $$$C3WYLTEXT
               1 000018D9 00000001     J   11532 11534  11924  12863  12879  13020  13036  13548  13861  13877  14018
                                                 14034  14165
 $$$C4WYLTEXT
               1 00002234 00000001     J   14569 14571  14631  15274  16949  17319  17714
 $$$C5WYLTEXT
               1 00002F20 00000001     J   18915 18917
 $$$C6WYLTEXT
               1 00002F20 00000001     J   18932 18934
 $$$D0WYLTEXT
               1 0000039A 00000001     J     991  7063   7128
 $$$D1WYLTEXT
               1 00000FD0 00000001     J    7299  9320   9382
 $$$D3WYLTEXT
               1 00002204 00000001     J   11533 12852  12868  13009  13025  13850  13866  14007  14023
 $$$D4WYLTEXT
               1 00002F14 00000001     J   14570 16938  17308
 $$$RADWA      1 00000000 FFFFFFE4     J   14149 14164  14164
 $$$RALWA      1 00000000 FFFFFFE9     J    6312  6390   6390
 $$$RCFWA      1 00000000 FFFFFFE1     J   17694 17713  17713
 $$$RCP        1 00000000 FFFFFFEC     J    2454  4714   6188   6188
 $$$RCV        1 00000000 FFFFFFEE     J    1179  2364   2364
 $$$RDEV       1 00000000 FFFFFFEB     J    4668  4713   4713
 $$$RLNFWA
               1 00000000 FFFFFFE2     J   15169 15273  15273
 $$$RNSCNCB
               1 00000000 FFFFFFED     J    2375  2448   2448
 $$$RPFWA      1 00000000 FFFFFFE3     J   14597 14630  14630
 $$$RSDWA      1 00000000 FFFFFFE5     J   13524 13547  13547
 $$$RSLWA      1 00000000 FFFFFFE6     J   11887 11923  11923
 $$$RSORTWA
               1 00000000 FFFFFFE8     J   10058 10099  10099
 $$$RSTWA      1 00000000 FFFFFFE7     J   10105 10118  10118
 $$$RTTYPE
               1 00000000 FFFFFFEA     J    6199  6300   6300
 $$$SEGCB0
               4 00000050 FFFFFFEC     F    2485  2571   2571
 $$$Z1         4 00000EF4 00000001     F   10010  8898
 $$$Z3         4 0000219C 00000001     F   14550 11703  12826  12983  13824  13981
 $$$Z4         4 00002D54 00000001     F   18857 14953
 $$$100B       1 000007EE 00000001     X    8150  8157U
 $$$101        1 00000050 00000001 A   U    8193  8190   8192
1TEXT     (TEXT2025) (12:57) (15MAR04) Ordinary Symbol and Literal Cross Reference                                          Page   67
 $$$103B       1 0000081C 00000001     X    8221  8228U
 $$$104        1 00000050 00000001 A   U    8264  8261   8263
 $$$106B       1 0000084A 00000001     X    8292  8299U
 $$$107        1 00000050 00000001 A   U    8335  8332   8334
 $$$109B       1 00000878 00000001     X    8363  8370U
 $$$110        1 00000050 00000001 A   U    8406  8403   8405
 $$$112B       1 000008A6 00000001     X    8433  8440U
 $$$113F       2 00000926 00000001     H    8519  8505B
 $$$114        1 00000050 00000001 A   U    8541  8538   8540
 $$$116B       1 00000950 00000001     X    8569  8576U
 $$$117        1 00000050 00000001 A   U    8605  8602   8604
 $$$119B       1 00000982 00000001     X    8633  8640U
 $$$120F       2 00000996 00000001     H    8676  8661B
 $$$121        1 00000050 00000001 A   U    8696  8693   8695
 $$$123B       1 000009C6 00000001     X    8724  8731U
 $$$124        1 00000050 00000001 A   U    8758  8755   8757
 $$$126B       1 000009F2 00000001     X    8794  8801U
 $$$128F       2 00000A3A 00000001     H    8864  8854B
 $$$129F       2 00000A6A 00000001     H    8904  8884B
 $$$133F       2 00000AE2 00000001     H    8998  8987B
 $$$144F       2 00000C1C 00000001     H    9291  9281B
 $$$145        6 00000FD0 00000001     I    9326  9318X
 $$$146        6 00000FD0 00000001     I    9325  9326   9326
 $$$147        6 00000FD6 00000001     I    9388  9380X
 $$$148        6 00000FD6 00000001     I    9387  9388   9388
 $$$149F       2 00000D34 00000001     H    9468  9452B
 $$$150F       2 00000D6A 00000001     H    9520  9507B
 $$$151F       2 00000D96 00000001     H    9561  9547B
 $$$152F       2 00000DA6 00000001     H    9588  9574B
 $$$153        1 00000050 00000001 A   U    9606  9603   9605
 $$$155B       1 00000DCE 00000001     X    9643  9650U
 $$$156F       2 00000E00 00000001     H    9715  9676B
 $$$159F       2 00000E42 00000001     H    9812  9740B
 $$$161F       2 00000E42 00000001     H    9808  9793B
 $$$162        1 00000050 00000001 A   U    9849  9846   9848
 $$$164B       1 00000E94 00000001     X    9877  9884U
 $$$165B       4 00000EBA 00000001     I    9916  9929
 $$$165F       2 00000EC2 00000001     H    9926  9916B  9928
 $$$166E       2 00000EC6 00000001     H    9936  9930
 $$$166F       2 00000ECC 00000001     H    9945  9932B
 $$$167F       2 00000EE6 00000001     H    9972  9962B
 $$$168        1 00000050 00000001 A   U    9992  9989   9991
 $$$170B       1 00000FF6 00000001     X   10149 10156U
 $$$172F       2 00001036 00000001     H   10252 10237B
 $$$173F       2 0000104A 00000001     H   10278 10263B
 $$$174F       2 00001060 00000001     H   10302 10293B
 $$$175F       2 00001076 00000001     H   10332 10317B
 $$$176F       2 0000108A 00000001     H   10354 10344B
 $$$178F       2 00001122 00000001     H   10440 10420B
 $$$179F       2 0000113C 00000001     H   10468 10453B
 $$$180F       2 00001174 00000001     H   10505 10495B
 $$$181F       2 0000119A 00000001     H   10539 10529B
 $$$182F       2 000011BC 00000001     H   10569 10554B
 $$$183F       2 000011E6 00000001     H   10602 10583B
 $$$184F       2 00001224 00000001     H   10642 10621B
 $$$184S       2 000011F4 00000001     H   10614 10641B
 $$$186        1 00000090 00000001 A   U   10722 10719  10721
 $$$188B       1 0000143A 00000001     X   10922 10929U
 $$$189F       2 000014BA 00000001     H   11008 10994B
1TEXT     (TEXT2025) (12:57) (15MAR04) Ordinary Symbol and Literal Cross Reference                                          Page   68
 $$$190        1 00000050 00000001 A   U   11030 11027  11029
 $$$192B       1 000014E4 00000001     X   11057 11064U
 $$$193F       2 00001500 00000001     H   11097 11082B
 $$$194        1 00000050 00000001 A   U   11116 11113  11115
 $$$196B       1 0000152C 00000001     X   11144 11151U
 $$$197        1 00000050 00000001 A   U   11178 11175  11177
 $$$199B       1 00001558 00000001     X   11209 11216U
 $$$200        1 00000050 00000001 A   U   11252 11249  11251
 $$$202B       1 00001586 00000001     X   11283 11290U
 $$$203        1 00000050 00000001 A   U   11326 11323  11325
 $$$205B       1 000015B4 00000001     X   11356 11363U
 $$$206        1 00000050 00000001 A   U   11395 11392  11394
 $$$208B       1 000015E6 00000001     X   11425 11432U
 $$$209        1 00000050 00000001 A   U   11464 11461  11463
 $$$211B       1 000018F4 00000001     X   11577 11584U
 $$$212        1 00000050 00000001 A   U   11630 11627  11629
 $$$214B       1 0000194E 00000001     X   11669 11676U
 $$$215F       2 00001988 00000001     H   11724 11704B
 $$$216F       2 000019A4 00000001     H   11756 11747B
 $$$217F       2 000019B0 00000001     H   11778 11769B
 $$$218F       2 000019FE 00000001     H   11829 11809B
 $$$219        1 00000050 00000001 A   U   11848 11845  11847
 $$$220F       2 00001BEC 00000001     H   12468 12016B 12057B
 $$$221B       1 00001A26 00000001     X   11953 11960U
 $$$222F       2 00001A40 00000001     H   12020 12003B
 $$$222T       2 00001A32 00000001     H   12006 11994B
 $$$225F       2 00001BE4 00000001     H   12448 12088B
 $$$225S       2 00001A9E 00000001     H   12078 12447B
 $$$227F       2 00001B74 00000001     H   12320 12109B
 $$$227S       2 00001AA8 00000001     H   12100 12319B
 $$$229F       2 00001B3A 00000001     H   12256 12135B
 $$$229S       2 00001AB4 00000001     H   12128 12255B
 $$$231B       4 00001ADE 00000001     I   12156 12203
 $$$231F       2 00001B0A 00000001     H   12200 12156B 12202
 $$$232F       2 00001B0A 00000001     H   12196 12175B
 $$$233E       2 00001B0E 00000001     H   12210 12204
 $$$233F       2 00001B36 00000001     H   12251 12206B
 $$$234F       2 00001B36 00000001     H   12247 12226B
 $$$235F       2 00001B56 00000001     H   12286 12277B
 $$$236F       2 00001B70 00000001     H   12315 12299B
 $$$237B       4 00001B8C 00000001     I   12343 12356
 $$$237F       2 00001B96 00000001     H   12353 12343B 12355
 $$$238E       2 00001B9A 00000001     H   12363 12357
 $$$238F       2 00001BA0 00000001     H   12370 12359B
 $$$239F       2 00001BCA 00000001     H   12402 12392B
 $$$240B       4 00001BD0 00000001     I   12416 12429
 $$$240F       2 00001BD8 00000001     H   12426 12416B 12428
 $$$241E       2 00001BDC 00000001     H   12436 12430
 $$$241F       2 00001BE0 00000001     H   12443 12432B
 $$$242        1 00000384 00000001 A   U   12477 12474  12476
 $$$243F       2 00001E88 00000001     H   13370 12584B
 $$$244B       1 00001C14 00000001     X   12524 12531U
 $$$246B       4 00001C5C 00000001     I   12601 12613
 $$$246F       2 00001C64 00000001     H   12610 12601B 12612
 $$$247E       2 00001C68 00000001     H   12620 12614
 $$$247F       2 00001C76 00000001     H   12648 12616B
 $$$248F       2 00001C74 00000001     H   12643 12633B
 $$$249F       2 00001E80 00000001     H   13350 12683B
 $$$249S       2 00001CA6 00000001     H   12673 13349B
1TEXT     (TEXT2025) (12:57) (15MAR04) Ordinary Symbol and Literal Cross Reference                                          Page   69
 $$$251F       2 00001E10 00000001     H   13222 12704B
 $$$251S       2 00001CB0 00000001     H   12695 13221B
 $$$253F       2 00001DD6 00000001     H   13158 12730B
 $$$253S       2 00001CBC 00000001     H   12723 13157B
 $$$255F       2 00001CDA 00000001     H   12765 12754B
 $$$256F       2 00001CEA 00000001     H   12790 12777B
 $$$257F       2 00001CF6 00000001     H   12813 12803B
 $$$258F       2 00001D18 00000001     H   12890 12827B
 $$$259F       2 00001D18 00000001     H   12886 12841B
 $$$260        6 00002204 00000001     I   12858 12850X
 $$$261        6 00002204 00000001     I   12857 12858  12858
 $$$262        6 0000220A 00000001     I   12874 12866X
 $$$263        6 0000220A 00000001     I   12873 12874  12874
 $$$264F       2 00001D36 00000001     H   12922 12911B
 $$$265F       2 00001D46 00000001     H   12947 12934B
 $$$266F       2 00001D52 00000001     H   12970 12960B
 $$$267F       2 00001D74 00000001     H   13047 12984B
 $$$268F       2 00001D74 00000001     H   13043 12998B
 $$$269        6 00002210 00000001     I   13015 13007X
 $$$270        6 00002210 00000001     I   13014 13015  13015
 $$$271        6 00002216 00000001     I   13031 13023X
 $$$272        6 00002216 00000001     I   13030 13031  13031
 $$$273B       4 00001D7A 00000001     I   13058 13105
 $$$273F       2 00001DA6 00000001     H   13102 13058B 13104
 $$$274F       2 00001DA6 00000001     H   13098 13077B
 $$$275E       2 00001DAA 00000001     H   13112 13106
 $$$275F       2 00001DD2 00000001     H   13153 13108B
 $$$276F       2 00001DD2 00000001     H   13149 13128B
 $$$277F       2 00001DF2 00000001     H   13188 13179B
 $$$278F       2 00001E0C 00000001     H   13217 13201B
 $$$279B       4 00001E28 00000001     I   13245 13258
 $$$279F       2 00001E32 00000001     H   13255 13245B 13257
 $$$280E       2 00001E36 00000001     H   13265 13259
 $$$280F       2 00001E3C 00000001     H   13272 13261B
 $$$281F       2 00001E66 00000001     H   13304 13294B
 $$$282B       4 00001E6C 00000001     I   13318 13331
 $$$282F       2 00001E74 00000001     H   13328 13318B 13330
 $$$283E       2 00001E78 00000001     H   13338 13332
 $$$283F       2 00001E7C 00000001     H   13345 13334B
 $$$284        1 00000384 00000001 A   U   13379 13376  13378
 $$$286B       1 00001EB0 00000001     X   13417 13424U
 $$$287F       2 00001EE6 00000001     H   13471 13458B
 $$$287S       2 00001ECC 00000001     H   13451 13470B
 $$$289        1 00000050 00000001 A   U   13490 13487  13489
 $$$290F       2 0000207C 00000001     H   14112 13635B
 $$$291B       1 00001F0E 00000001     X   13577 13584U
 $$$293B       4 00001F4A 00000001     I   13652 13664
 $$$293F       2 00001F52 00000001     H   13661 13652B 13663
 $$$294E       2 00001F56 00000001     H   13671 13665
 $$$294F       2 00001F64 00000001     H   13699 13667B
 $$$295F       2 00001F62 00000001     H   13694 13684B
 $$$296F       2 0000206A 00000001     H   14089 13729B
 $$$296S       2 00001F8E 00000001     H   13722 14088B
 $$$298F       2 00001FAA 00000001     H   13763 13752B
 $$$299F       2 00001FBA 00000001     H   13788 13775B
 $$$300F       2 00001FC6 00000001     H   13811 13801B
 $$$301F       2 00001FE8 00000001     H   13888 13825B
 $$$302F       2 00001FE8 00000001     H   13884 13839B
 $$$303        6 0000221C 00000001     I   13856 13848X
1TEXT     (TEXT2025) (12:57) (15MAR04) Ordinary Symbol and Literal Cross Reference                                          Page   70
 $$$304        6 0000221C 00000001     I   13855 13856  13856
 $$$305        6 00002222 00000001     I   13872 13864X
 $$$306        6 00002222 00000001     I   13871 13872  13872
 $$$307F       2 00002006 00000001     H   13920 13909B
 $$$308F       2 00002016 00000001     H   13945 13932B
 $$$309F       2 00002022 00000001     H   13968 13958B
 $$$310F       2 00002044 00000001     H   14045 13982B
 $$$311F       2 00002044 00000001     H   14041 13996B
 $$$312        6 00002228 00000001     I   14013 14005X
 $$$313        6 00002228 00000001     I   14012 14013  14013
 $$$314        6 0000222E 00000001     I   14029 14021X
 $$$315        6 0000222E 00000001     I   14028 14029  14029
 $$$316B       4 0000204A 00000001     I   14056 14068
 $$$316F       2 00002052 00000001     H   14065 14056B 14067
 $$$317E       2 00002056 00000001     H   14075 14069
 $$$317F       2 00002066 00000001     H   14084 14071B
 $$$318        1 00000370 00000001 A   U   14121 14118  14120
 $$$320B       1 000020A4 00000001     X   14194 14201U
 $$$321B       4 000020DE 00000001     I   14273 14293
 $$$321F       2 000020E8 00000001     H   14286 14262B 14273B 14290
 $$$322B       4 000020D8 00000001     I   14262 14291
 $$$323E       2 000020EC 00000001     H   14300 14292  14294
 $$$323F       2 0000218A 00000001     H   14513 14296B
 $$$324B       4 0000211A 00000001     I   14349 14369
 $$$324F       2 00002124 00000001     H   14362 14338B 14349B 14366
 $$$325B       4 00002114 00000001     I   14338 14367
 $$$326E       2 00002128 00000001     H   14376 14368  14370
 $$$326F       2 0000218A 00000001     H   14509 14372B
 $$$327B       4 00002156 00000001     I   14425 14445
 $$$327F       2 00002160 00000001     H   14438 14414B 14425B 14442
 $$$328B       4 00002150 00000001     I   14414 14443
 $$$329E       2 00002164 00000001     H   14452 14444  14446
 $$$329F       2 0000218A 00000001     H   14505 14448B
 $$$330B       4 00002174 00000001     I   14471 14487
 $$$330F       2 0000217E 00000001     H   14484 14471B 14486
 $$$331E       2 00002182 00000001     H   14494 14488
 $$$331F       2 0000218A 00000001     H   14501 14490B
 $$$332        1 0000005C 00000001 A   U   14540 14537  14539
 $$$334B       1 0000224E 00000001     X   14663 14670U
 $$$335F       2 000022AE 00000001     H   14762 14747B
 $$$335T       2 000022A2 00000001     H   14750 14735B
 $$$337F       2 000022C4 00000001     H   14790 14775B
 $$$338F       2 00002358 00000001     H   14905 14869B 14880B 14893B
 $$$341F       2 00002376 00000001     H   14938 14920B
 $$$341S       2 0000235C 00000001     H   14914 14937B
 $$$343F       2 00002386 00000001     H   14966 14954B
 $$$344        1 00000920 00000001 A   U   14992 14989  14991
 $$$346B       1 00002402 00000001     X   15060 15067U
 $$$347F       2 0000241E 00000001     H   15128 15113B
 $$$347T       2 00002412 00000001     H   15116 15101B
 $$$349        1 00000050 00000001 A   U   15147 15144  15146
 $$$357B       1 0000244A 00000001     X   15304 15311U
 $$$358B       4 00002474 00000001     I   15376 15394
 $$$358F       2 0000247C 00000001     H   15390 15376B 15393
 $$$359B       4 00002482 00000001     I   15409 15427
 $$$359E       2 00002480 00000001     H   15401 15395
 $$$359F       2 0000248A 00000001     H   15423 15397B 15409B 15426
 $$$361B       4 00002492 00000001     I   15444 15462
 $$$361E       2 0000248E 00000001     H   15434 15428
1TEXT     (TEXT2025) (12:57) (15MAR04) Ordinary Symbol and Literal Cross Reference                                          Page   71
 $$$361F       2 0000249A 00000001     H   15458 15430B 15444B 15461
 $$$363B       4 000024A2 00000001     I   15479 15497
 $$$363E       2 0000249E 00000001     H   15469 15463
 $$$363F       2 000024AA 00000001     H   15493 15465B 15479B 15496
 $$$365B       4 000024BC 00000001     I   15530 15550
 $$$365E       2 000024AE 00000001     H   15504 15498
 $$$365F       2 000024C4 00000001     H   15544 15500B 15516B 15530B 15547
 $$$367B       4 000024B4 00000001     I   15516 15548
 $$$368B       4 000024D6 00000001     I   15583 15603
 $$$368E       2 000024C8 00000001     H   15557 15549  15551
 $$$368F       2 000024DE 00000001     H   15597 15553B 15569B 15583B 15600
 $$$370B       4 000024CE 00000001     I   15569 15601
 $$$371B       4 000024F0 00000001     I   15636 15656
 $$$371E       2 000024E2 00000001     H   15610 15602  15604
 $$$371F       2 000024F8 00000001     H   15650 15606B 15622B 15636B 15653
 $$$373B       4 000024E8 00000001     I   15622 15654
 $$$374B       4 0000250A 00000001     I   15689 15721
 $$$374E       2 000024FC 00000001     H   15663 15655  15657
 $$$374F       2 0000251A 00000001     H   15715 15659B 15675B 15689B 15718
 $$$376B       4 00002502 00000001     I   15675 15719
 $$$377B       4 0000252C 00000001     I   15754 15786
 $$$377E       2 0000251E 00000001     H   15728 15720  15722
 $$$377F       2 0000253C 00000001     H   15780 15724B 15740B 15754B 15783
 $$$379B       4 00002524 00000001     I   15740 15784
 $$$380B       4 0000254E 00000001     I   15819 15873
 $$$380E       2 00002540 00000001     H   15793 15785  15787
 $$$380F       2 0000256A 00000001     H   15867 15789B 15805B 15819B 15870
 $$$382B       4 00002546 00000001     I   15805 15871
 $$$383F       2 0000256A 00000001     H   15863 15843B
 $$$384B       4 0000257C 00000001     I   15906 15938
 $$$384E       2 0000256E 00000001     H   15880 15872  15874
 $$$384F       2 0000258C 00000001     H   15932 15876B 15892B 15906B 15935
 $$$386B       4 00002574 00000001     I   15892 15936
 $$$387B       4 0000259E 00000001     I   15971 16025
 $$$387E       2 00002590 00000001     H   15945 15937  15939
 $$$387F       2 000025BA 00000001     H   16019 15941B 15957B 15971B 16022
 $$$389B       4 00002596 00000001     I   15957 16023
 $$$390F       2 000025BA 00000001     H   16015 15995B
 $$$391B       4 000025CC 00000001     I   16058 16090
 $$$391E       2 000025BE 00000001     H   16032 16024  16026
 $$$391F       2 000025DC 00000001     H   16084 16028B 16044B 16058B 16087
 $$$393B       4 000025C4 00000001     I   16044 16088
 $$$394B       4 000025EE 00000001     I   16123 16155
 $$$394E       2 000025E0 00000001     H   16097 16089  16091
 $$$394F       2 000025FE 00000001     H   16149 16093B 16109B 16123B 16152
 $$$396B       4 000025E6 00000001     I   16109 16153
 $$$397B       4 00002610 00000001     I   16188 16220
 $$$397E       2 00002602 00000001     H   16162 16154  16156
 $$$397F       2 00002620 00000001     H   16214 16158B 16174B 16188B 16217
 $$$399B       4 00002608 00000001     I   16174 16218
 $$$400B       4 00002632 00000001     I   16253 16285
 $$$400E       2 00002624 00000001     H   16227 16219  16221
 $$$400F       2 00002642 00000001     H   16279 16223B 16239B 16253B 16282
 $$$402B       4 0000262A 00000001     I   16239 16283
 $$$403B       4 00002654 00000001     I   16318 16349
 $$$403E       2 00002646 00000001     H   16292 16284  16286
 $$$403F       2 00002664 00000001     H   16344 16288B 16304B 16318B 16346
 $$$405B       4 0000264C 00000001     I   16304 16347
 $$$406E       2 00002668 00000001     H   16356 16348  16350
1TEXT     (TEXT2025) (12:57) (15MAR04) Ordinary Symbol and Literal Cross Reference                                          Page   72
 $$$406F       2 0000266C 00000001     H   16367 16352B
 $$$407F       2 000026C0 00000001     H   16526 16382B
 $$$408F       2 00002688 00000001     H   16412 16398B
 $$$409F       2 00002694 00000001     H   16438 16424B
 $$$410F       2 000026AA 00000001     H   16480 16452B 16466B
 $$$412F       2 000026C0 00000001     H   16522 16494B 16508B
 $$$414B       4 000026C4 00000001     I   16543 16557
 $$$414F       2 000026C8 00000001     H   16551 16543B 16556
 $$$415B       4 000026D0 00000001     I   16573 16598
 $$$415E       2 000026CC 00000001     H   16564 16558
 $$$415F       2 000026EC 00000001     H   16592 16560B 16573B 16597
 $$$417E       2 000026F0 00000001     H   16605 16599
 $$$417F       2 00002852 00000001     H   17033 16601B 16614B
 $$$419F       2 00002742 00000001     H   16694 16632B
 $$$420F       2 00002710 00000001     H   16659 16647B
 $$$421F       2 0000272C 00000001     H   16683 16671B
 $$$422B       4 0000274A 00000001     I   16709 16722
 $$$422F       2 00002752 00000001     H   16719 16709B 16721
 $$$423E       2 00002756 00000001     H   16729 16723
 $$$423F       2 0000275A 00000001     H   16736 16725B
 $$$424F       2 00002776 00000001     H   16767 16752B
 $$$424S       2 00002762 00000001     H   16746 16766B
 $$$426F       2 00002796 00000001     H   16814 16778B
 $$$427F       2 00002796 00000001     H   16810 16795B
 $$$427S       2 00002782 00000001     H   16789 16809B
 $$$429B       4 0000279A 00000001     I   16825 16838
 $$$429F       2 000027A2 00000001     H   16835 16825B 16837
 $$$43B        1 00000032 00000001     X    6424  6431U
 $$$430E       2 000027A6 00000001     H   16845 16839
 $$$430F       2 000027AA 00000001     H   16852 16841B
 $$$431B       4 000027C2 00000001     I   16882 16898
 $$$431F       2 000027CC 00000001     H   16895 16882B 16897
 $$$431T       2 000027C6 00000001     H   16885 16872B
 $$$433E       2 000027D0 00000001     H   16905 16899
 $$$433F       2 000027D6 00000001     H   16915 16901B
 $$$434F       2 000027E4 00000001     H   16954 16930B
 $$$435        6 00002F14 00000001     I   16944 16936X
 $$$436        6 00002F14 00000001     I   16943 16944  16944
 $$$437F       2 000027FC 00000001     H   16983 16971B
 $$$438F       2 00002852 00000001     H   17029 17002B
 $$$439F       2 00002874 00000001     H   17091 17054B
 $$$440F       2 00002874 00000001     H   17087 17073B
 $$$441        1 00000054 00000001 A   U   17115 17112  17114
 $$$443B       1 0000289C 00000001     X   17154 17161U
 $$$444F       2 000028F4 00000001     H   17292 17194B
 $$$444S       2 000028AC 00000001     H   17187 17291B
 $$$446B       4 000028B6 00000001     I   17210 17228
 $$$446F       2 000028C8 00000001     H   17225 17210B 17227
 $$$447E       2 000028CC 00000001     H   17235 17229
 $$$447F       2 000028F0 00000001     H   17287 17231B
 $$$448F       2 000028F0 00000001     H   17283 17259B 17271B
 $$$448S       2 000028DA 00000001     H   17249 17282B
 $$$45F        2 000000C0 00000001     H    6539  6524B
 $$$451        6 00002F1A 00000001     I   17314 17306X
 $$$452        6 00002F1A 00000001     I   17313 17314  17314
 $$$453        1 00000050 00000001 A   U   17339 17336  17338
 $$$455B       1 00002938 00000001     X   17383 17390U
 $$$456F       2 00002952 00000001     H   17441 17415B 17428B
 $$$456S       2 0000293C 00000001     H   17406 17440B
1TEXT     (TEXT2025) (12:57) (15MAR04) Ordinary Symbol and Literal Cross Reference                                          Page   73
 $$$459F       2 00002964 00000001     H   17479 17454B 17467B
 $$$46F        2 000000D4 00000001     H    6563  6550B
 $$$461F       2 0000297A 00000001     H   17520 17494B 17507B
 $$$461S       2 00002964 00000001     H   17485 17519B
 $$$464F       2 0000298C 00000001     H   17558 17533B 17546B
 $$$466F       2 000029A2 00000001     H   17599 17573B 17586B
 $$$466S       2 0000298C 00000001     H   17564 17598B
 $$$469F       2 000029B8 00000001     H   17641 17616B 17629B
 $$$469S       2 000029A4 00000001     H   17607 17640B
 $$$47         1 00000188 00000001 A   U    6593  6590   6592
 $$$472        1 00000050 00000001 A   U   17666 17663  17665
 $$$474B       1 000029EC 00000001     X   17743 17750U
 $$$475F       2 00002AA8 00000001     H   17925 17820B 17833B
 $$$475S       2 00002A2E 00000001     H   17812 17924B
 $$$478F       2 00002A58 00000001     H   17872 17859B
 $$$479F       2 00002A98 00000001     H   17915 17903B
 $$$480F       2 00002B22 00000001     H   18127 17945B 17957B
 $$$480S       2 00002AB0 00000001     H   17935 18126B
 $$$483B       4 00002AC2 00000001     I   17973 18032
 $$$483F       2 00002AE8 00000001     H   18028 17973B 18031
 $$$484F       2 00002AE4 00000001     H   18021 17996B 18008B
 $$$484S       2 00002ACA 00000001     H   17986 18020B
 $$$487B       4 00002AF0 00000001     I   18049 18107
 $$$487E       2 00002AEC 00000001     H   18039 18033
 $$$487F       2 00002B16 00000001     H   18104 18035B 18049B 18106
 $$$489F       2 00002B12 00000001     H   18097 18072B 18084B
 $$$489S       2 00002AF8 00000001     H   18062 18096B
 $$$49B        1 000001D2 00000001     X    6702  6709U
 $$$492E       2 00002B1A 00000001     H   18114 18108
 $$$492F       2 00002B1E 00000001     H   18122 18110B
 $$$493F       2 00002B32 00000001     H   18150 18139B
 $$$494F       2 00002B58 00000001     H   18196 18172B 18184B
 $$$494S       2 00002B40 00000001     H   18162 18195B
 $$$497F       2 00002B6C 00000001     H   18231 18210B 18222B
 $$$499F       2 00002B92 00000001     H   18275 18251B 18263B
 $$$499S       2 00002B7A 00000001     H   18241 18274B
 $$$50         1 00000050 00000001 A   U    6740  6737   6739
 $$$502F       2 00002BA6 00000001     H   18310 18289B 18301B
 $$$504F       2 00002BCC 00000001     H   18354 18330B 18342B
 $$$504S       2 00002BB4 00000001     H   18320 18353B
 $$$507F       2 00002BE0 00000001     H   18389 18368B 18380B
 $$$509        1 000005E4 00000001 A   U   18433 18430  18432
 $$$511B       1 00002C28 00000001     X   18467 18474U
 $$$512        1 00000050 00000001 A   U   18541 18538  18540
 $$$514B       1 00002C84 00000001     X   18568 18575U
 $$$515        1 00000050 00000001 A   U   18637 18634  18636
 $$$517B       1 00002CCC 00000001     X   18664 18671U
 $$$518        1 00000050 00000001 A   U   18733 18730  18732
 $$$52B        1 00000200 00000001     X    6768  6775U
 $$$520B       1 00002D14 00000001     X   18760 18767U
 $$$521        1 00000050 00000001 A   U   18847 18844  18846
 $$$53         1 00000050 00000001 A   U    6806  6803   6805
 $$$55B        1 0000022E 00000001     X    6834  6841U
 $$$56         1 00000050 00000001 A   U    6873  6870   6872
 $$$58B        1 00000260 00000001     X    6904  6911U
 $$$60F        2 0000027A 00000001     H    6960  6950B
 $$$61F        2 0000029E 00000001     H    7025  6970B
 $$$62F        2 00000290 00000001     H    7002  6989B
 $$$64F        2 000002B6 00000001     H    7052  7039B
1TEXT     (TEXT2025) (12:57) (15MAR04) Ordinary Symbol and Literal Cross Reference                                          Page   74
 $$$65         6 0000039A 00000001     I    7069  7061X
 $$$66         6 0000039A 00000001     I    7068  7069   7069
 $$$67F        2 000002E2 00000001     H    7123  7090B
 $$$68F        2 000002DE 00000001     H    7117  7104B
 $$$69         6 000003A0 00000001     I    7134  7126X
 $$$70         6 000003A0 00000001     I    7133  7134   7134
 $$$71F        2 00000322 00000001     H    7218  7157B
 $$$73F        2 0000031A 00000001     H    7211  7201B
 $$$75         1 00000050 00000001 A   U    7262  7259   7261
 $$$77B        1 000003C0 00000001     X    7334  7341U
 $$$79F        2 0000045E 00000001     H    7458  7443B
 $$$80F        2 0000047A 00000001     H    7483  7468B
 $$$81F        2 0000048E 00000001     H    7506  7491B
 $$$82F        2 000004A4 00000001     H    7535  7519B
 $$$83F        2 000004EC 00000001     H    7582  7565B
 $$$84F        2 0000050E 00000001     H    7628  7593B
 $$$85F        2 00000534 00000001     H    7696  7640B
 $$$87F        2 00000526 00000001     H    7668  7658B
 $$$88F        2 00000534 00000001     H    7692  7679B
 $$$89         1 00000188 00000001 A   U    7726  7723   7725
 $$$91B        1 0000076A 00000001     X    7958  7965U
 $$$92         1 00000050 00000001 A   U    7996  7993   7995
 $$$94B        1 00000798 00000001     X    8023  8030U
 $$$95B        4 000007A8 00000001     I    8071  8083
 $$$95F        2 000007B2 00000001     H    8080  8071B  8082
 $$$95T        2 000007AC 00000001     H    8074  8060B
 $$$97E        2 000007B6 00000001     H    8090  8084
 $$$97F        2 000007C4 00000001     H    8100  8086B
 $$$98         1 00000050 00000001 A   U    8122  8119   8121
 @RAR          0 00000000 FFFFFFF0     @    1135  2162   2170B
 @R0           0 00000000 FFFFFFFE     @     706   982U
 @R1           0 00000000 FFFFFFFD     @     719   978U  2168   2169   6949   6955   7133   8057   8070   8076   8096
                                                  8859   9224   9287   9358   9364   9387  14892  15515  15568  15621
                                                 15674  15739  15804  15891  15956  16043  16108  16173  16238  16303
                                                 16397  16423  16451  16493  16943  17072  17427  17466  17506  17545
                                                 17585
 @R10          0 00000000 FFFFFFF4     @     836   942U
 @R11          0 00000000 FFFFFFF3     @     849   938U
 @R12          0 00000000 FFFFFFF2     @     862   934U
 @R13          0 00000000 FFFFFFF1     @     875   930U  8515  11004
 @R14          0 00000000 FFFFFFF0     @     888   926U
 @R15          0 00000000 FFFFFFEF     @     901   922U  9023   9039   9052   9073   9086   9196   9252M  9253   9259M
                                                  9260   9264M
 @R2           0 00000000 FFFFFFFC     @     732   974U  6988   7003   8866   8868   8922   8926   8928   8966   8986
                                                  8999  15443  15478  16670  17209  17215  17237  17258  17313M 17628
                                                 17832  17838M 17944  17972  17995  18013M 18048  18071  18089M 18171
                                                 18209  18250  18288  18329  18367
 @R3           0 00000000 FFFFFFFB     @     745   970U  7133M  9110   9426  16670
 @R4           0 00000000 FFFFFFFA     @     758   966U 16715M 16732M 16757M 16800M 16831M 16848M 16943M 17215M 17237M
                                                 17313
 @R5           0 00000000 FFFFFFF9     @     771   962U  9025M  9252   9259   9387M
 @R6           0 00000000 FFFFFFF8     @     784   958U  7271U 10002U 11856U 15000U 15155U
 @R7           0 00000000 FFFFFFF7     @     797   954U  6582U  6729U  6795U  6862U  7251U  7715U  7985U  8111U  8182U
                                                  8253U  8324U  8395U  8530U  8594U  8685U  8747U  9595U  9838U  9981U
                                                 10711U 11019U 11105U 11167U 11241U 11315U 11384U 11453U 11619U 11837U
                                                 12466U 13368U 13479U 14110U 14529U 14981U 15136U 17104U 17328U 17655U
                                                 18422U 18530U 18626U 18722U 18836U
 @R8           0 00000000 FFFFFFF6     @     810   950U  6577U  7710U 10181U 10706U 12461U 13363U 14105U 14524U 14976U
                                                 17099U 18417U
1TEXT     (TEXT2025) (12:57) (15MAR04) Ordinary Symbol and Literal Cross Reference                                          Page   75
 @R9           0 00000000 FFFFFFF5     @     823   946U
 ABSCENT       1 00000000 00000000 A   T    2178  2178
 ADCOUNT       4 00000008 FFFFFFE4     F   14157 14223M 14243  14319  14395  14456
 ADDER         1 00000000 00000015     T   10035 10035
 ADDIN         2 00000B2C 00000001     I    9097  9042B  9055B  9076B  9089B
 ADEND         4 00000004 FFFFFFE4     F   14156 14222M 14261  14337  14413  14470
 ADSTART       4 00000000 FFFFFFE4     F   14155 14221M 14230  14306  14382  14454
 ADWA         12 00000000 FFFFFFE4     J   14164 14186  14215U 14537  14539  14540
 AGAIN         2 00000C84 00000001     I    9362  9359B
 ALBSADJ       2 00000030 FFFFFFE9     H    6379  7573   9134   9309   9342M  9342   9400   9401M  9407   9409M  9459
 ALBUFF      256 00000035 FFFFFFE9     C    6383  7059M  7068M  7068   7124   7141   7459   7570   9307   9315   9325M
                                                  9372   9457
 ALCONT        2 000009AC 00000001     H    8705  7931
 ALCURBS       2 00000032 FFFFFFE9     H    6380  8993   8994M  9130   9135   9366   9377   9398   9399   9417M  9417
 ALFEBL        4 00000000 FFFFFFE9         6350  9234   9280   9297M  9490M
 ALFEVEN      16 00000000 FFFFFFE9         6340  7518   8313M
 ALFLAGS       1 00000000 FFFFFFE9     R    6321  6325   6330   6335   6340   6345   6350   6355   6360
 ALFMRKN      64 00000000 FFFFFFE9         6330  8044M  8853
 ALFNUMB     128 00000000 FFFFFFE9         6325  7592   7678   8384M  9506
 ALFPARA       8 00000000 FFFFFFE9         6345  8242M  9546
 ALFRSTSV      4 0000002C FFFFFFE9     F    6378  9523M  9901   9946
 ALFSOME       2 00000000 FFFFFFE9         6355  7564   9011   9107M  9154   9357M  9423M  9451   9480M
 ALFSPACE     32 00000000 FFFFFFE9         6335  8171M  8942
 ALFSTOP       1 00000000 FFFFFFE9         6360  9573   9804M
 ALIGN         2 000003A6 00000001     H    7313  7309
 ALINDENT      2 0000088C 00000001     H    8414  7840
 ALINDNT       2 00000008 FFFFFFE9     H    6368  7508M  8916M  9316   9345M  9482M
 ALINDPA       2 00000006 FFFFFFE9     H    6367  7461   7507M  8586M  8677M  8909   9481
 ALINDST       2 00000004 FFFFFFE9     H    6366  6517   6784M  7027   7435   8449M  8874   8911   8916   9344
 ALIPRT        4 00000548 00000001     F    7738 10014
 ALLNMAX       2 00000002 FFFFFFE9     H    6365  6478M  6516   6718M  6851M  7026   7397M  7436   7484   7974M  9334
 ALLNMRK       1 00000001 FFFFFFE9     C    6364  8076M  8096M  8859
 ALLNOSV       4 00000028 FFFFFFE9     F    6377  7664M  8841M
 ALMAR         4 00000D0C 00000001     I    9432  8860B
 ALMAR1        2 00000D0A 00000001     I    9430  8912B
 ALNPA1        2 00000936 00000001     H    8550  7901
 ALNPA2        2 00000968 00000001     H    8614  7886   7916
 ALWA        309 00000000 FFFFFFE9     J    6390  6416   6445U  6449   6458U  6590   6592   6593   7326   7355U  7359
                                                  7367U  7723   7725   7726
 ALWAINIT     52 00000000 FFFFFFE9     X    6381  6470M  6470   7387M  7387
 ALWASTRT      4 00000000 FFFFFFE9     F    6318  6381   6381
 ALWBC         4 0000000E FFFFFFE9     I    6373  7389M  7531M  7531   8898
 ALWBL         1 00000034 FFFFFFE9     C    6382  7388M  9325
 ALWBUFL       2 0000000A FFFFFFE9     H    6369  7572   9133   9308   9335M  9375M  9402   9458
 ALWJPT        4 00000024 FFFFFFE9     A    6376  7460M  8951   9108   9424
 ALWLAST       4 00000020 FFFFFFE9     A    6375  9099M  9205   9206   9395M
 ALWPBC        2 0000000C FFFFFFE9     H    6370  8873   8874M  9483M
 ALWSAVE       4 00000014 FFFFFFE9     F    6374  7571   8811   8813M  8840   9214M  9301   9521   9563M
 ASCTBL        1 00000000 00000000 A   T    2186  2186
 AUTODELT      2 0000208A 00000001     H   14173 11518
 BDO           4 00000AA4 00000001     I    8928  8924B
 BEND          2 00000AB0 00000001     I    8932  8927B
 BLCHOP        4 00000A3C 00000001     I    8866  8869B
 BLINE         2 00000D16 00000001     H    9438  8833B  8843B  8870B
 BLINEI        2 00000D14 00000001     I    9435  8910B
 BLINEX        2 00000D18 00000001     H    9443  9433B
 BLOOP         4 00000A9C 00000001     I    8926  8929B
 BLTBL         1 00000000 00000000 A   T    2188  2188
 BR            7 00000007 00000001 A   #    1025  6419M  6697M  6763M  6829M  6899M  7329M  7953M  8018M  8145M  8216M
1TEXT     (TEXT2025) (12:57) (15MAR04) Ordinary Symbol and Literal Cross Reference                                          Page   76
                                                  8287M  8358M  8428M  8564M  8628M  8719M  8789M  9638M  9872M 10144M
                                                 10917M 11052M 11139M 11204M 11278M 11351M 11420M 11572M 11664M 11948M
                                                 12519M 13412M 13572M 14189M 14658M 15055M 15299M 17149M 17378M 17738M
                                                 18462M 18563M 18659M 18755M
 BSLOOP        2 00000BE8 00000001     I    9256  9261B
 CENARO        2 00000214 00000001     H    6815  6646
 CENBACK       2 00000284 00000001     H    6979  7004B
 CENBL         2 0000026A 00000001     H    6940  6956B
 CENIND        2 000001E6 00000001     H    6749  6631
 CENLEN        2 000001B8 00000001     H    6683  6616
 CENNULL       4 000002EA 00000001     I    7141  6932B  7016B
 CENPOS        4 000002B8 00000001     I    7057  7030B
 CENPRT        4 000000F0 00000001     F    6604  7283
 CENTER        2 00000018 00000001     H    6403  6399
 CENWORK       2 00000246 00000001     H    6885  7288
 CFCLINE     940 000000F8 FFFFFFE1     C   17704 17794  17802  17884  17916  17928  18144  18146M 18153  18232  18311
 CFCLINEL      4 000000F4 FFFFFFE1     F   17703 17787M 17787  17798M 17803  17885  17889  17890M 17917  17929  18154
                                                 18233  18312
 CFDLINE     235 000004A8 FFFFFFE1     C   17706 17793M 18410
 CFDLINEL      4 000004A4 FFFFFFE1     F   17705 17792M 18408
 CFLINE      235 00000008 FFFFFFE1     C   17702 17840  17875
 CFLINEL       4 00000004 FFFFFFE1     F   17701 17780M 17780  17873M 17876
 CFLINENO      4 00000000 FFFFFFE1     F   17700 17773M 17841
 CFWA       1427 00000000 FFFFFFE1     J   17713 17735  17764U 18430  18432  18433
 CHECKIOB      1 00000000 00000000 A   T    2234  2234
 CHKACT        1 00000000 00000018     T   11503 11503
 CHKBEGIN      2 000029D2 00000001     H   17722 18877
 CKIFDONE      2 00002BF2 00000001     H   18407 18399B 18404B
 COMMAND       1 00000000 00000000 A   T    2174  2174
 COMMSEG       1 00000000 00000000 A   T    2175  2175
 CP         4096 00000000 FFFFFFEC     J    6188  1163U
 CP#XSTK       1 00000010 FFFFFFEC A   U    3920  3921
 CPABYCT       4 000005B0 FFFFFFEC     F    3979 11598
 CPACFLG       1 000005D5 FFFFFFEC     R    4023  4027   4032   4037   4042   4047
 CPACFLN       4 000005C4 FFFFFFEC     F    4015  4050   4050
 CPACHCT       4 000005B4 FFFFFFEC     F    3980  6558   6559M  7546   7547M 14836  14837M
 CPACINFO     18 000005C4 FFFFFFEC     X    4050  7380M  7380
 CPACLNO       4 000005A8 FFFFFFEC     F    3977  7537M  9814M  9968M
 CPAFLAG       1 000005C3 FFFFFFEC     R    3987  3991   3996   4001   4006
 CPALLNO       4 000005A4 FFFFFFEC     F    3976  7657
 CPALNCT       4 000005AC FFFFFFEC     F    3978 11594  11596  11712
 CPANAME       8 00000588 FFFFFFEC     C    3969  4065   4065
 CPAUTFLG      1 000008A9 FFFFFFEC     R    4333  4337   4342   4347   4352
 CPCHFLAG      1 00000B68 FFFFFFEC     R    4960  4964
 CPCMNM        3 00000D24 FFFFFFEC     C    5286  9174
 CPCWA         4 00000CA4 FFFFFFEC     F    5212  6450M  6920   7369M  8810  10406M 11687
 CPDFLG        1 0000084C FFFFFFEC     R    4220  4224   4229   4234   4239   4244
 CPDFLG2       1 0000084D FFFFFFEC     R    4249  4253   4258   4263   4268   4273   4278
 CPDRPT        4 00000D84 FFFFFFEC     F    5648  9675   9725
 CPEXFLG       1 00000758 FFFFFFEC     R    4089  4093
 CPEXFLG2      1 00000759 FFFFFFEC     R    4099  4108   4118
 CPEXFLG3      1 0000075A FFFFFFEC     R    4125  4129   4134
 CPEXTFLG      1 00000E28 FFFFFFEC     R    5771  5775   5780   5785   5790   5795   5800
 CPFABORT    128 00000D5A FFFFFFEC         5537  2138M  2138   2143M  2143
 CPFALL        1 00000010 FFFFFFEC A   U    5303 10220
 CPFALLV       1 00000004 FFFFFFEC A   U    5304 10341
 CPFDESET      1 00000020 FFFFFFEC A   U    5369  9722   9727
 CPFDSJNT      4 00000D88 FFFFFFEC         5686 10262
 CPFERROR     64 00000D5A FFFFFFEC         5542  2137M  2137   2142M  2142
1TEXT     (TEXT2025) (12:57) (15MAR04) Ordinary Symbol and Literal Cross Reference                                          Page   77
 CPFHIGH       1 00000040 FFFFFFEC A   U    5651  9725
 CPFLSKIP     32 00000D88 FFFFFFEC         5671  8830
 CPFMTCH       1 00000008 FFFFFFEC A   U    5652  9673
 CPFNCUR      64 00000D57 FFFFFFEC         5472  7543M
 CPFNLST       1 00000020 FFFFFFEC A   U    5391  6475   7154   7394   7637   9737
 CPFNTEX       1 00000040 FFFFFFEC A   U    5389  5390
 CPFNTYT       1 00000080 FFFFFFEC A   U    5650  9725
 CPFRDRNG      1 00000D88 FFFFFFEC     R    5657  5661   5666   5671   5676   5681   5686   5691
 CPFRDSRC      1 00000D89 FFFFFFEC     R    5696  5705   5715   5725
 CPFRQUIT     16 00000D5A FFFFFFEC         5552  9557M  9584M
 CPFSLN        4 00000D90 FFFFFFEC     F    5729 10279
 CPFSTRRG     64 00000D88 FFFFFFEC         5666 10236
 CPFTYPED     16 00000477 FFFFFFEC         3594  6549
 CPFUNUM       1 00000080 FFFFFFEC A   U    5388  5390
 CPFXDFLG      1 000007E4 FFFFFFEC     R    4167  4171   4176
 CPGFLG1       1 00000474 FFFFFFEC     R    3530  3534   3539   3544   3549   3554   3884   3884
 CPGFLG10      1 0000047D FFFFFFEC     R    3767  3771   3776   3781   3786   3791   3796
 CPGFLG11      1 0000047E FFFFFFEC     R    3802  3806   3811
 CPGFLG12      1 0000047F FFFFFFEC     R    3817  3821   3826   3831
 CPGFLG13      1 00000480 FFFFFFEC     R    3837  3841
 CPGFLG14      1 00000481 FFFFFFEC     R    3847  3851   3856   3861   3866   3871
 CPGFLG4       1 00000477 FFFFFFEC     R    3583  3594   3603   3612   3621   3630
 CPGFLG5       1 00000478 FFFFFFEC     R    3636  3640   3645   3650   3655   3660   3665   3670   3675
 CPGFLG6       1 00000479 FFFFFFEC     R    3681  3685   3690   3695
 CPGFLG7       1 0000047A FFFFFFEC     R    3701  3705   3710   3715   3720
 CPGFLG8       1 0000047B FFFFFFEC     R    3726  3730   3735   3740   3745
 CPGFLG9       1 0000047C FFFFFFEC     R    3751  3755   3761
 CPINIT        1 00000174 FFFFFFEC     U    2700  6157
 CPJESFLG      1 000009E1 FFFFFFEC     R    4432  4436   4441   4446   4451   4456   4461   4466   4471
 CPJESFLY      1 000009FD FFFFFFEC     R    4482  4486   4491   4496
 CPJESHFL      1 000009E0 FFFFFFEC     R    4417  4421   4426   4505   4505
 CPLCNO        4 0000073C FFFFFFEC     F    4074  7219   8812   8814   9659M  9716   9728M  9813   9939  11734
 CPLENGTH      2 0000087E FFFFFFEC     H    4317  6478   7397
 CPLFLG1       1 00000D50 FFFFFFEC     R    5300  7620M  7620  10222M 10343
 CPLFLG10      1 00000D59 FFFFFFEC     R    5523  5527
 CPLFLG11      1 00000D5A FFFFFFEC     R    5533  5537   5542   5547   5552
 CPLFLG12      1 00000D5B FFFFFFEC     R    5558  5562
 CPLFLG14      1 00000D5C FFFFFFEC     R    5568  5572   5577   5582   5587   5592
 CPLFLG4       1 00000D53 FFFFFFEC     R    5366  9724M  9727M
 CPLFLG5       1 00000D54 FFFFFFEC     R    5385  6477M  7156   7396M  7639   9739
 CPLFLG6       1 00000D55 FFFFFFEC     R    5398  5402   5407   5412   5417   5422   5427
 CPLFLG7       1 00000D56 FFFFFFEC     R    5433  5437   5442   5447   5452   5457
 CPLFLG8       1 00000D57 FFFFFFEC     R    5463  5467   5472   5477   5482
 CPLFLG9       1 00000D58 FFFFFFEC     R    5488  5492   5497   5502   5507   5512   5517
 CPLOCALZ      1 00000C48 FFFFFFEC     U    4990  6151   6151
 CPLSLN        4 00000D94 FFFFFFEC     F    5730 10303
 CPMFLG        1 0000084F FFFFFFEC     R    4287  4291
 CPMODFLG      1 00000C78 FFFFFFEC     R    5018  5022   5027   5032   5037   5042
 CPNAMELN      1 00000010 FFFFFFEC A   U    3913  4160
 CPNEDPFX     10 00000E29 FFFFFFEC     X    5804  5805   5806
 CPNSCANP      4 0000008C FFFFFFEC     A    2573  6481   6488   6504   7400   7407   7423   8094   8452   8458   8465
                                                  8481   8512  10359  10366  10382  10941  10947  10954  10970  11001
                                                 14795  14802  14818
 CPNUMFLG      1 00000C79 FFFFFFEC     R    5048  5060
 CPNWLN        4 00000D8C FFFFFFEC     F    5728  9522M  9716M
 CPORVCMD      1 00000140 FFFFFFEC     R    2582  2586   2591   2596   2601   2606   2611   2616   2621   2626   2626
                                                  2677   2677
 CPORVFLG      1 00000149 FFFFFFEC     R    2633  2637   2642   2647   2652   2657   2662   2667   2672
 CPORVWF       1 00000150 FFFFFFEC     R    2685  2689
1TEXT     (TEXT2025) (12:57) (15MAR04) Ordinary Symbol and Literal Cross Reference                                          Page   78
 CPOSCANX      4 00000CA8 FFFFFFEC     F    5217  5284   5284
 CPR          11 0000000B 00000001 A   #    1089  1163U
 CPRACBAD     16 000001FC FFFFFFEC         2751  2785   2785   2786   2786
 CPRACF1       1 000001FC FFFFFFEC     R    2732  2736   2741   2746   2751   2756   2761   2766   2771   2787
 CPRACPSW     32 000001FC FFFFFFEC         2746  2784   2784   2786   2786
 CPRACUND     64 000001FC FFFFFFEC         2741  2784   2784   2785   2785
 CPRCVCUR      4 00000730 FFFFFFEC     A    4068  4070   4070
 CPRFLG        1 000008AA FFFFFFEC     R    4358  4362   4367   4372   4377   4382   4387
 CPS         254 00000344 FFFFFFEC     X    3502  3505   3506   3508   3508
 CPSACCT       5 000003B4 FFFFFFEC     C    3101  3264   3264
 CPSAMCOD      1 00000A22 FFFFFFEC     R    4554  4562   4572   4582   4591   4600   4609   4619   4628   4637
 CPSAMFLG      1 00000A21 FFFFFFEC     R    4514  4518   4523   4528   4533   4538   4543   4548   4659   4659
 CPSCNFLG      1 00000CD0 FFFFFFEC     R    5230  5241   5250   5261
 CPSCNF2       1 00000CD1 FFFFFFEC     R    5266  5270
 CPSCNMAX      1 00000014 FFFFFFEC A   U    5282  5283
 CPSCRI        2 00000434 FFFFFFEC     H    3491  3496   3496
 CPSEG        60 00000050 FFFFFFEC     X    2571  7196   9694   9788  10670  10688  18496  18597  18693  18789  18818
 CPSEGCOD      1 00000050 FFFFFFEC     R    2488  2497   2507   2517   2527   2537   2547   2557
 CPSFL         1 00000384 FFFFFFEC     R    2839  2843   2848   2853   2858   2863
 CPSFLG        1 000003F8 FFFFFFEC     R    3379  3383   3388   3393   3398   3403   3408   3413   3418
 CPSFLG2       1 000003F9 FFFFFFEC     R    3424  3428   3433   3438
 CPSFL2        1 00000385 FFFFFFEC     R    2869  2873   2878   2883   2888
 CPSFL3        1 00000386 FFFFFFEC     R    2894  2898   2903   2908
 CPSFL4        1 00000387 FFFFFFEC     R    2914  2918   2923   2928
 CPSFL5        1 00000388 FFFFFFEC     R    2934  2938   2943   2948
 CPSKAFL       1 000003BF FFFFFFEC     R    3235  3239   3244   3249   3254   3259
 CPSKIFL       1 000003BE FFFFFFEC     R    3190  3194   3199   3204   3209   3214   3219   3224   3229
 CPSOF         1 000001F8 FFFFFFEC     X    2722  2724   2724
 CPSOFLAG      1 00000416 FFFFFFEC     R    3449  3453   3458   3463   3468   3473
 CPSOPST       4 000003C4 FFFFFFEC     F    3269  3498   3498
 CPSPORT       8 00000354 FFFFFFEC     C    2833  2953   2953
 CPSQFLG       1 000003EC FFFFFFEC     R    3298  3302
 CPSSFLG       1 000003BB FFFFFFEC     R    3108  3112   3117   3122   3127   3132   3137
 CPSSTART      4 00000344 FFFFFFEC     F    2825  2829   2829   3265   3265   3370   3370   3502   3502
 CPSSTAT       1 0000038F FFFFFFEC     R    3045  3049   3054   3059   3064   3069   3074   3079
 CPSTACF       1 000003BC FFFFFFEC     R    3143  3147   3152   3157   3162   3167   3172   3177   3182
 CPSTART       4 00000000 FFFFFFEC     C    2461  6155   6159
 CPSTFLAG      1 000003EA FFFFFFEC     R    3276  3280   3285   3290
 CPSTYPE       1 0000038C FFFFFFEC     R    2958  2967   2977   2987   2997   3007   3017   3027   3037
 CPSUFLG       1 000003EE FFFFFFEC     R    3313  3317   3322   3327   3332   3337   3342   3347   3352
 CPSUFLG2      1 000003EF FFFFFFEC     R    3358  3362   3367
 CPSVPGM       8 0000039C FFFFFFEC     C    3091  3097   3097  14732M 14732  14746  14774
 CPS1ST        4 0000038C FFFFFFEC     F    2955  3500   3500
 CPTEMPP#      1 0000005F FFFFFFEC A   U    4408  4410
 CPTRMFL1      1 00000C7A FFFFFFEC     R    5066  5070   5075   5080   5204   5204
 CPTRMFL2      1 00000C7B FFFFFFEC     R    5086  5090   5095   5100   5105   5110   5115
 CPTRMFL3      1 00000C7C FFFFFFEC     R    5121  5125   5130   5135   5140   5145   5150   5155
 CPTRMFL4      1 00000C7D FFFFFFEC     R    5161  5165   5170   5175   5180   5185   5190   5195
 CPUSED        1 00000FBC FFFFFFEC A   U    6155  6156
 CPVACURS      8 00000AF0 FFFFFFEC     D    4933  4934   4935
 CPVCURS       8 00000AE0 FFFFFFEC     D    4927  4928   4929
 CPVFLAG       1 00000AC8 FFFFFFEC     R    4728  4732   4737   4742   4747   4752
 CPVFLAG2      1 00000AC9 FFFFFFEC     R    4758  4762   4767   4772   4777   4782   4787
 CPVFLAG3      1 00000ACA FFFFFFEC     R    4793  4797   4802   4807   4812   4817   4822
 CPVFLAG4      1 00000ACB FFFFFFEC     R    4828  4832   4837   4842
 CPVLFLAG      1 00000ACE FFFFFFEC     R    4897  4901   4906   4911
 CPVMODE       1 00000ACC FFFFFFEC     R    4850  4854   4859   4864   4869   4874   4879   4884   4889
 CPVTWID       2 00000AD0 FFFFFFEC     H    4917  4920   4920
 CPWKDL        4 00000E18 FFFFFFEC     F    5760  9967M
1TEXT     (TEXT2025) (12:57) (15MAR04) Ordinary Symbol and Literal Cross Reference                                          Page   79
 CPWKPS        4 00000E14 FFFFFFEC     F    5759  7536M  7657   9524M  9659   9660   9728   9825   9831M  9895   9900M
                                                  9904
 CPWK1         4 00000D60 FFFFFFEC     F    5601  5616   5639
 CPWK2         4 00000D64 FFFFFFEC     F    5602  5617   5631
 CPWK3         4 00000D68 FFFFFFEC     F    5603  5618   5632
 CPWK4         4 00000D6C FFFFFFEC     F    5604  5619   5633
 CPWK5         4 00000D70 FFFFFFEC     F    5605  5621   5626   5634
 CPWK6         4 00000D74 FFFFFFEC     F    5606  5622   5627   5635   5642   5644
 CPWK7         4 00000D78 FFFFFFEC     F    5607  5620   5636
 CPXFLAG       1 000007FD FFFFFFEC     R    4195  4199
 CPXSTATE      4 000007F8 FFFFFFEC     F    4189  4202   4202
 CV         4016 00000000 FFFFFFEE     J    2364  1172U
 CVABSRTN      4 0000088C FFFFFFEE     V    2178  2153
 CVBLANKS    235 000004D8 FFFFFFEE     C    1958  7608   9025
 CVBRMSK       1 00000751 FFFFFFEE     X    2094  2095   2096
 CVCFLAG       1 00000A00 FFFFFFEE     R    2259  2263   2268   2273   2278   2283
 CVCHKST       8 000009F0 FFFFFFEE     D    2249  2339   2339
 CVCHKST2      8 00000E28 FFFFFFEE     D    2342  2345   2345
 CVCOMRTN      4 0000087C FFFFFFEE     V    2174  2144
 CVDBGFLG      1 000004CC FFFFFFEE     R    1948  1952
 CVENT         4 0000074C FFFFFFEE     I    2092  6419B  6697B  6763B  6829B  6899B  7329B  7953B  8018B  8145B  8216B
                                                  8287B  8358B  8428B  8564B  8628B  8719B  8789B  9638B  9872B 10144B
                                                 10917B 11052B 11139B 11204B 11278B 11351B 11420B 11572B 11664B 11948B
                                                 12519B 13412B 13572B 14189B 14658B 15055B 15299B 17149B 17378B 17738B
                                                 18462B 18563B 18659B 18755B
 CVENTBR       2 00000750 FFFFFFEE     I    2093  2094
 CVERRMSG      4 000007C8 FFFFFFEE     I    2137  6535B  7454B  7479B  7502B  8672B  9711B 10248B 10274B 10436B 11093B
                                                 11825B 14758B 14786B 15124B 18523B 18619B 18715B 18829B
 CVERROR       4 000007D6 FFFFFFEE     I    2142  2158B  7239B
 CVEXIRTN      4 0000077C FFFFFFEE     V    2122  2118
 CVEXNO        1 00000000 00000023     T   18895 18895
 CVFCHRKBPR
               8 000004C9 FFFFFFEE         1863  1879   1879
 CVFCHRKBSE
               4 000004C9 FFFFFFEE         1868  1879   1879
 CVFCHRKCPR
               2 000004C9 FFFFFFEE         1885  1901   1901
 CVFCHRKCSE
               1 000004C9 FFFFFFEE         1890  1901   1901
 CVFCHRUBPR
             128 000004C9 FFFFFFEE         1819  1835   1835
 CVFCHRUBSE
              64 000004C9 FFFFFFEE         1824  1835   1835
 CVFCHRUCPR
              32 000004C9 FFFFFFEE         1841  1857   1857
 CVFCHRUCSE
              16 000004C9 FFFFFFEE         1846  1857   1857
 CVFL          1 000004C4 FFFFFFEE     R    1615  1619   1624   1629   1634   1639   1644   1649   1654
 CVFL2         1 000004C5 FFFFFFEE     R    1660  1664   1669   1674   1679   1684   1689   1694   1699
 CVFL3         1 000004C6 FFFFFFEE     R    1705  1709   1714   1719   1724   1729   1734   1739   1744
 CVFL4         1 000004C7 FFFFFFEE     R    1750  1754   1759   1764   1769   1774   1779   1784
 CVFL5         1 000004C8 FFFFFFEE     R    1790  1794   1799   1804   1809
 CVFL6         1 000004C9 FFFFFFEE     R    1815  1819   1824   1836   1841   1846   1858   1863   1868   1880   1885
                                                  1890   1902
 CVHEAP#       1 00000200 FFFFFFEE A   U    1521  1522
 CVINVRTN      4 00000888 FFFFFFEE     V    2177  2147
 CVJESFLG      1 000004CA FFFFFFEE     R    1908  1912
 CVLNKRGS      4 00000780 FFFFFFEE     F    2124  2099M  2125
 CVLNKRTN      4 000007B0 FFFFFFEE     U    2125  2114M
1TEXT     (TEXT2025) (12:57) (15MAR04) Ordinary Symbol and Literal Cross Reference                                          Page   80
 CVLOCK1       1 00000088 FFFFFFEE     R    1266  1270   1275
 CVLOCK2       1 00000089 FFFFFFEE     R    1280  1284
 CVLOCK3       1 0000008A FFFFFFEE     R    1289  1293
 CVLOCK4       1 0000008B FFFFFFEE     R    1298  1302
 CVLOGMOD      1 00000068 FFFFFFEE     R    1253  1257
 CVMACH        1 00000067 FFFFFFEE     R    1213  1217   1222   1227   1232   1237   1242   1247
 CVMAXLNO      4 0000015C FFFFFFEE     A    1407  7664   9922  10316  10350
 CVMILRTN      4 00000884 FFFFFFEE     V    2176  2156
 CVNEXT        4 000007DE FFFFFFEE     I    2144  7698B 10694B 14969B
 CVNOARTN      4 00000890 FFFFFFEE     V    2179  2150
 CVNWDATE      4 00000608 FFFFFFEE     F    1981  1985   1985
 CVNWMPG#      1 00000008 FFFFFFEE A   U    1983  1984
 CVONE         4 000004D0 FFFFFFEE     F    1956  9905
 CVPFXRTN      1 00000000 00000000 A   T    2122  2122
 CVPGFLAG      1 00000A01 FFFFFFEE     R    2289  2293   2298   2303
 CVPIOSZ       1 00004F80 FFFFFFEE A   U    1352  1354
 CVPPDBQH      4 0000009C FFFFFFEE     A    1310  1311
 CVPSFNO       1 000003E9 FFFFFFEE A   N    1474  1476
 CVPSLNO       1 000007CF FFFFFFEE A   N    1475  1476
 CVPXSZ        1 00000008 FFFFFFEE A   U    1353  1354
 CVR          12 0000000C 00000001 A   #    1102  1172U
 CVRKEY        1 00000008 FFFFFFEE A   U    2047  2048
 CVSEGRTN      4 00000880 FFFFFFEE     V    2175  2139
 CVSTACK#      1 00000080 FFFFFFEE A   U    1513  1514
 CVSTART       4 00000000 FFFFFFEE     C    1186  2357
 CVTRC         4 00000768 FFFFFFEE     I    2114  2100B
 CVTRCRTN      4 00000778 FFFFFFEE     V    2121  2115
 CVUPPTBL      4 000008A8 FFFFFFEE     V    2184 17301
 CVUSFNO       1 00000001 FFFFFFEE A   N    1481  1483
 CVUSLNO       1 000003E7 FFFFFFEE A   N    1482  1483
 CVVOL#        1 00000005 FFFFFFEE A   U    2332  2333
 CVWTOFLG      1 000004CB FFFFFFEE     R    1918  1922   1927   1932   1937   1942
 DEBUGSG       1 00000000 00000000 A   T    2075  2075
 DELRANGE      1 00000000 00000013     T   10029 10029  11517
 DESABORT      1 00000004 FFFFFFEC A   U    6171  7287  10019  11511
 DESNRTN       1 00000000 FFFFFFEC A   U    6165  7287
 DESRTRN       1 00000080 FFFFFFEC A   U    6164 10019  11511
 DEV          12 00000000 FFFFFFEB     J    4713  4721
 DEVMAX#       1 00000002 FFFFFFEC A   U    4664  4721
 DEVTYPE       1 00000001 FFFFFFEB     R    4681  4690   4700
 DIFLEAD       4 00000A6E 00000001     I    8909  8901B
 DOLEAD        2 00000A3A 00000001     I    8865  9494B
 DOTTBL        1 00000000 00000000 A   T    2191  2191
 DOWORD        2 00000B4A 00000001     H    9113  8945B  8952B  9014B  9024B
 DRENCFLG      1 00000F9F FFFFFFEC     R    6119  6123   6128   6133   6138   6143
 DRENPROT      1 00000F9E FFFFFFEC     R    6106  6114
 DSNON        40 00000E90 FFFFFFEC     C    5839  5840
 DSNWADSN     44 00000E5C FFFFFFEC     C    5826  5827   5828   5829   5838   5846   6077   6083   6085   6091   6094
                                                  6096   6099   6148
 DSNWAF4       1 00000F37 FFFFFFEC     R    5894  5898   5903   5908   5913   5918   5923   5928   5933
 DSNWAF5       1 00000F38 FFFFFFEC     R    5939  5943   5948   5953   5958   5963   5968   5973   5978
 DSNWAF6       1 00000F39 FFFFFFEC     R    5984  5988   5993   5998   6003   6008   6013   6018   6023
 DSNWAF7       1 00000F3A FFFFFFEC     R    6029  6033   6038   6043   6048
 DSNXG         1 00000004 FFFFFFEC A   U    5831  5833
 DSNXGL        1 00000003 FFFFFFEC A   U    5832  5833
 DSNXU         1 00000007 FFFFFFEC A   U    5833  5835
 DSNXUL        1 00000004 FFFFFFEC A   U    5834  5835
 DSSIZ         1 00000108 FFFFFFEC A   U    6077  6085   6094   6099
 EBCTBL        1 00000000 00000000 A   T    2187  2187
1TEXT     (TEXT2025) (12:57) (15MAR04) Ordinary Symbol and Literal Cross Reference                                          Page   81
 EBCTBL7       1 00000000 00000000 A   T    2190  2190
 EBLOOP        2 00000BD6 00000001     I    9249  9254B
 EBLOOPX       6 00000BDA 00000001     I    9252  9300B
 EBPUT         4 00000C00 00000001     I    9264  9267B
 EBR           4 00000BD2 00000001     I    9247  9223B  9237B
 ECBLIST       1 00000000 00000000 A   T    2050  2050
 ENDLEAD       2 00000A50 00000001     I    8872  8867B
 EPARTBL       1 00000000 00000000 A   T    2182  2182
 FREECORE      1 00000000 00000019     T   11514 11514  14555
 FSR           0 00000000 00000001 A   #    1012  6413   6590M  6692   6737M  6758   6803M  6824   6870M  6894   7259M
                                                  7323   7723M  7948   7993M  8013   8119M  8140   8190M  8211   8261M
                                                  8282   8332M  8353   8403M  8423   8538M  8559   8602M  8623   8693M
                                                  8714   8755M  8784   9603M  9633   9846M  9867   9989M 10138  10719M
                                                 10912  11027M 11047  11113M 11134  11175M 11199  11249M 11273  11323M
                                                 11346  11392M 11415  11461M 11567  11612M 11627M 11659  11845M 11942
                                                 12013M 12453M 12474M 12513  13355M 13376M 13407  13487M 13566  14097M
                                                 14118M 14183  14517M 14537M 14652  14989M 15050  15144M 15293  17112M
                                                 17144  17336M 17373  17648M 17663M 17732  18430M 18457  18538M 18558
                                                 18634M 18654  18730M 18750  18844M
 FULL          2 00000B7C 00000001     H    9146  9098B  9123B  9132B
 GETCORE       1 00000000 0000001D     T   14553 14553
 GETLNO        1 00000000 00000016     T   10036 10036
 GETWORD       2 00000A88 00000001     I    8919  9428B
 GTFRST        1 00000000 00000020     T   18865 18865
 GTNEXT        1 00000000 00000021     T   18866 18866
 HAVEVEN       2 00000830 00000001     H    8273  7795
 HAVLENE       2 00000750 00000001     H    7939  7750
 HAVMARK       2 0000077E 00000001     H    8004  7765
 HAVNUMB       2 0000085E 00000001     H    8344  7810
 HAVPARA       2 00000802 00000001     H    8202  7855
 HAVSPACE      2 000007D4 00000001     H    8131  7780
 HEXTB         2 00001700 00000001     H   11486 11441  11487  11488  11490
 HIBAL         1 00000000 FFFFFFFF     J     691   707    720    733    746    759    772    785    798    811    824
                                                   837    850    863    876    889    902
 INDPRT        4 000006B0 00000001     F    7874 10026
 INVALID       1 00000000 00000000 A   T    2177  2177
 JEND          4 00000C2A 00000001     I    9301  9216B  9299B
 JENDT         4 00000C26 00000001     I    9300  9268B
 LFFBEGIN      1 00000002 FFFFFFE2        15244 15853M 15922M 16005M 16074M 16139M 16204M
 LFFENDB      64 00000001 FFFFFFE2        15220 16210M 16275M 16340M 16631
 LFFLEFT       2 00000000 FFFFFFE2        15196 15540M 15593M 15646M 16572
 LFFNEWB     128 00000001 FFFFFFE2        15215 15711M 15776M 15859M 15928M 16011M 16080M 16145M 17001
 LFFNOEC      32 00000001 FFFFFFE2        15225 16408M 16708  16869
 LFFNONE       1 00000000 FFFFFFE2        15186 15419M 15454M 15489M 16542
 LFFNORM       4 00000000 FFFFFFE2        15206 15386M 15699M 15764M 15829M 15916M 15981M 16068M 16133M 16198M 16263M
                                                 16328M 16363M 16613
 LFFPREP      16 00000001 FFFFFFE2        15230 16434M 16476M 16518M 16824  16881
 LFFREP        4 00000002 FFFFFFE2        15264 15770M 16334M
 LFFTYPE       1 00000002 FFFFFFE2     R   15235 15244  15254  15264  16662  17024
 LFFWHILE      2 00000002 FFFFFFE2        15254 15705M 16269M
 LISTLINE      1 00000000 0000000A     T    7291  7291  10032
 LNDIGEST      2 00002882 00000001     H   17135 18871
 LNFFLAG1      1 00000000 FFFFFFE2     R   15177 15186  15196  15206
 LNFFLAG2      1 00000001 FFFFFFE2     R   15211 15215  15220  15225  15230
 LNFORMAT      2 00002430 00000001     H   15283 18867
 LNFWA         3 00000000 FFFFFFE2     J   15273 15296  15325U 15335M 15335  17112  17114  17115
 LNOUT         2 00000D7E 00000001     I    9527  9492B  9495B
 LOCATE        1 00000000 00000014     T   10030 10030
 LOCATRTN      1 00000000 FFFFFFEC A   U    6168  7287  10019  11511
1TEXT     (TEXT2025) (12:57) (15MAR04) Ordinary Symbol and Literal Cross Reference                                          Page   82
 LONGLINE      2 00002CFA 00000001     H   18741 18889
 LOWTBL        1 00000000 00000000 A   T    2185  2185
 LRTRIM        1 00000000 00000022     T   18883 18883
 LSR           8 00000008 00000001 A   #    1050  6413   6590M  6692   6737M  6758   6803M  6824   6870M  6894   7259M
                                                  7323   7723M  7948   7993M  8013   8119M  8140   8190M  8211   8261M
                                                  8282   8332M  8353   8403M  8423   8538M  8559   8602M  8623   8693M
                                                  8714   8755M  8784   9603M  9633   9846M  9867   9989M 10138  10719M
                                                 10912  11027M 11047  11113M 11134  11175M 11199  11249M 11273  11323M
                                                 11346  11392M 11415  11461M 11567  11627M 11659  11845M 11942  12474M
                                                 12513  13376M 13407  13487M 13566  14118M 14183  14537M 14652  14989M
                                                 15050  15144M 15293  17112M 17144  17336M 17373  17663M 17732  18430M
                                                 18457  18538M 18558  18634M 18654  18730M 18750  18844M
 LTNPSH        1 00000000 00000003     T    6661  6661   7825
 MALL          1 00000000 00000004     T    6675  6675   7869   7930  10862  10893  15034
 MILERR        1 00000000 00000000 A   T    2176  2176
 MINT          1 00000000 00000010     T    7915  7915
 MISSEND       2 00002C0E 00000001     H   18448 18868
 MLISTSIZ      4 00000024 FFFFFFE6     F   11902 12065M 12087  12261  12264  12327  12329M 12376  12379  12660M 12682
                                                 13163  13166  13229  13231M 13278  13281
 MPARM         1 00000000 0000000E     T    7764  7764
 MPINT         1 00000000 00000002     T    6615  6615   6630   6645   7749   7839   7885   7900  10742  10757  10878
                                                 15019
 MTOKEN        1 00000000 0000000F     T    7779  7779   7794   7809   7854  10772  10787  10802  10817  10832  10847
 NBLTBL        1 00000000 00000000 A   T    2189  2189
 NBT           2 00000BA2 00000001     I    9211  9199B
 NDETRNG       1 00000000 00000006     T    7282  7282  10012  11504
 NEB           4 00000C0A 00000001     I    9268  9263B
 NEWBLOCK      2 00002BE4 00000001     H   18394 18227B 18306B 18385B
 NEWRNGEC      4 00000A1A 00000001     I    8840  9525B
 NEXTLINE      4 00000D96 00000001     I    9563  8920B  8930B
 NEXTWORD      2 00000D04 00000001     I    9427  8907B  8917B  8953B  9361B  9365B
 NOACTION      1 00000000 00000000 A   T    2179  2179
 NOBLOCK       2 00002BEA 00000001     H   18402 18391B
 NOCASETB      2 00001600 00000001     H   11474 11372  11475  11476  11478  11480
 NOLINE        6 00000E16 00000001     I    9728  9726B
 NONDO         2 00000ACE 00000001     H    8977  8923B
 NONEND        2 00000AEA 00000001     I    9001  8969B
 NONLOOP       2 00000AC6 00000001     H    8957  9000B
 NOTINBLK      2 00002C6A 00000001     H   18549 18885
 NOTTYPE       2 00002CB2 00000001     H   18645 18886
 NOTVALID      1 00000000 0000001F     T   15035 15035
 NOWORDS       4 00000C48 00000001     I    9315  9157B
 NPARTBL       1 00000000 00000000 A   T    2183  2183
 NSCAN         1 00000000 00000007     T    7284  7284  10015  11508  18863
 NSCNCB      176 00000000 FFFFFFED     J    2448  2574   6489   6490   6491   6494M  6495M  6497M  6507M  6508M  6509M
                                                  7408   7409   7410   7413M  7414M  7416M  7426M  7427M  7428M  8095
                                                  8453   8455   8466   8467   8468   8471M  8472M  8474M  8484M  8485M
                                                  8486M  8515  10039  10367  10368  10369  10372M 10373M 10375M 10385M
                                                 10386M 10387M 10942  10944  10955  10956  10957  10960M 10961M 10963M
                                                 10973M 10974M 10975M 11004  11527  14803  14804  14805  14808M 14809M
                                                 14811M 14821M 14822M 14823M
 NSCNFLGS      1 00000008 FFFFFFED     R    2385  2389   2394
 NSCNKWS       4 00000028 FFFFFFED     A    2434  6489   6497M  6507M  7408   7416M  7426M  8466   8474M  8484M 10367
                                                 10375M 10385M 10955  10963M 10973M 14803  14811M 14821M
 NSCNSKIP      4 00000024 FFFFFFED     A    2433  6490   6494M  6508M  7409   7413M  7427M  8467   8471M  8485M 10368
                                                 10372M 10386M 10956  10960M 10974M 14804  14808M 14822M
 NSCNSTOP      4 00000020 FFFFFFED     A    2432  6491   6495M  6509M  7410   7414M  7428M  8468   8472M  8486M 10369
                                                 10373M 10387M 10957  10961M 10975M 14805  14809M 14823M
 NSCNTOK      16 00000030 FFFFFFED     C    2436  8095
1TEXT     (TEXT2025) (12:57) (15MAR04) Ordinary Symbol and Literal Cross Reference                                          Page   83
 NSCNTYPE      1 00000018 FFFFFFED     R    2403  2407   2412   2417   2422   2427
 NUMBER        1 00000000 00000012     T   10024 10024
 NUMRANGE      1 00000000 00000017     T   10037 10037
 OTALIN        2 00000DB4 00000001     H    9624 10022
 PFBLEVEL      4 00000008 FFFFFFE3     F   14613 14953  16637  16661  16684  16687M 17007  17011M 17016  17017  17018
                                                 17019  17023  18502  18503  18504  18505
 PFDLINE     235 00000108 FFFFFFE3     C   14619 15357  16370  17179  17294  17299  17790  17793  17882  18410M
 PFDLINEL      4 00000104 FFFFFFE3     F   14618 15356  16371  17296M 17300  17791  17797  17883  17888  18409M
 PFFCONT     128 00000004 FFFFFFE3        14610 15375  16381  16777  17042M 17083M
 PFFLAGS       1 00000004 FFFFFFE3     R   14606 14610
 PFINDENT      4 00000000 FFFFFFE3     F   14603 14716M 15129M 16689  16783  17013
 PFLINE      235 00000018 FFFFFFE3     C   14617 14847  15348  15362  16579  16857  17044
 PFLINEL       4 00000014 FFFFFFE3     F   14616 14906M 14933M 15349  16578  16856  17043
 PFLINENO      4 00000010 FFFFFFE3     F   14615 14846M 14846  14848  16584  16984  17020  17772  18602  18698  18794
 PFLNTAB       4 000003D0 FFFFFFE3     F   14622 17015  18501
 PFLRTRIM      2 0000291E 00000001     H   17364 18872
 PFOLINE     470 000001F8 FFFFFFE3     C   14621 16698  16957
 PFORMAT       2 00002234 00000001     H   14642 14638
 PFPADLEN      4 0000000C FFFFFFE3     F   14614 16688  16690M 16740  17012  17014M
 PFPRT         4 00002398 00000001     F   15008 18862
 PFTYPTAB      1 000007D0 FFFFFFE3     C   14623 16660  17022
 PFWA       2256 00000000 FFFFFFE3     J   14630 14655  14684U 14688  14696U 14704M 14704  14705M 14705  14706M 14706
                                                 14707M 14707  14708M 14708  14709M 14709  14710M 14710  14711M 14711
                                                 14712M 14712  14989  14991  14992  15083U 15343U
 PINDENT       2 000023E8 00000001     H   15041 15020
 PRESS         1 00000000 0000000C     T    7293  7293  10033
 PUTLINE       1 00000000 0000001A     T   11520 11520  18884
 RAR          14 0000000E 00000001 A   #    1128  2114   2115M  2116B  2118M  2119B  2139M  2140B  2144M  2145B  2147M
                                                  2148B  2150M  2151B  2153M  2154B  2156M  2157M  2157B  2163   6410
                                                  6462M  6463M  6463B  6500M  6501M  6501B  6514M  6515M  6515B  6569M
                                                  6570M  6570B  6592M  6595B  6689   6739M  6742B  6755   6805M  6808B
                                                  6821   6872M  6875B  6891   7167M  7168M  7168B  7199M  7200M  7200B
                                                  7222M  7223M  7223B  7226M  7227M  7227B  7261M  7264B  7320   7372M
                                                  7373M  7373B  7419M  7420M  7420B  7433M  7434M  7434B  7553M  7554M
                                                  7554B  7577M  7578M  7578B  7618M  7619M  7619B  7623M  7624M  7624B
                                                  7687M  7688M  7688B  7725M  7728B  7945   7995M  7998B  8010   8121M
                                                  8124B  8137   8192M  8195B  8208   8263M  8266B  8279   8334M  8337B
                                                  8350   8405M  8408B  8420   8477M  8478M  8478B  8491M  8492M  8492B
                                                  8540M  8543B  8556   8604M  8607B  8620   8695M  8698B  8711   8757M
                                                  8760B  8781   8818M  8819M  8819B  9313M  9314M  9314B  9463M  9464M
                                                  9464B  9515M  9516M  9516B  9531M  9532M  9532B  9605M  9608B  9630
                                                  9663M  9664M  9664B  9697M  9698M  9698B  9759M  9760M  9760B  9791M
                                                  9792M  9792B  9819M  9820M  9820B  9823M  9824M  9824B  9829M  9830M
                                                  9830B  9848M  9851B  9864   9908M  9909M  9909B  9954M  9955M  9955B
                                                  9991M  9994B 10135  10212M 10213M 10213B 10225M 10226M 10226B 10378M
                                                 10379M 10379B 10392M 10393M 10393B 10398M 10399M 10399B 10412M 10413M
                                                 10413B 10428M 10429M 10429B 10463M 10464M 10464B 10481M 10482M 10482B
                                                 10512M 10513M 10513B 10521M 10522M 10522B 10564M 10565M 10565B 10596M
                                                 10597M 10597B 10632M 10633M 10633B 10648M 10649M 10649B 10673M 10674M
                                                 10674B 10691M 10692M 10692B 10721M 10724B 10909  10966M 10967M 10967B
                                                 10980M 10981M 10981B 11029M 11032B 11044  11115M 11118B 11131  11177M
                                                 11180B 11196  11251M 11254B 11270  11325M 11328B 11343  11394M 11397B
                                                 11412  11463M 11466B 11564  11608M 11609M 11609B 11629M 11632B 11656
                                                 11817M 11818M 11818B 11847M 11850B 11939  12010M 12011M 12011B 12325M
                                                 12326M 12326B 12476M 12479B 12510  13227M 13228M 13228B 13378M 13381B
                                                 13404  13489M 13492B 13563  14120M 14123B 14180  14539M 14542B 14649
                                                 14814M 14815M 14815B 14828M 14829M 14829B 14855M 14856M 14856B 14900M
                                                 14901M 14901B 14927M 14928M 14928B 14931M 14932M 14932B 14961M 14962M
                                                 14962B 14991M 14994B 15047  15146M 15149B 15290  15352M 15353M 15353B
1TEXT     (TEXT2025) (12:57) (15MAR04) Ordinary Symbol and Literal Cross Reference                                          Page   84
                                                 15360M 15361M 15361B 15832M 15833M 15833B 15984M 15985M 15985B 16582M
                                                 16583M 16583B 16587M 16588M 16588B 16654M 16655M 16655B 16678M 16679M
                                                 16679B 16890M 16891M 16891B 16910M 16911M 16911B 16978M 16979M 16979B
                                                 16987M 16988M 16988B 17114M 17117B 17141  17174M 17175M 17175B 17338M
                                                 17341B 17370  17665M 17668B 17729  17848M 17849M 17849B 17879M 17880M
                                                 17880B 17910M 17911M 17911B 18432M 18435B 18454  18499M 18500M 18500B
                                                 18509M 18510M 18510B 18540M 18543B 18555  18600M 18601M 18601B 18605M
                                                 18606M 18606B 18636M 18639B 18651  18696M 18697M 18697B 18701M 18702M
                                                 18702B 18732M 18735B 18747  18792M 18793M 18793B 18797M 18798M 18798B
                                                 18821M 18822M 18822B 18846M 18849B
 RDRNG         1 00000000 00000009     T    7289  7289  10021  11513
 RENUMB        2 00000E7A 00000001     H    9858 10025
 RENUMBEX      2 00000EE6 00000001     H    9977  9897B  9902B
 ROOM          4 00000CB6 00000001     I    9380  9137B  9143B  9363B
 ROOMOK        2 00000CEE 00000001     H    9412  9404B
 R0            0 00000000 FFFFFFFF A   #     699  2099   2168M  6485M  6485   6494   6495   6516M  6517   6534M  6565M
                                                  6718   6722M  6722   6784   6788M  6788   6850M  6851   6855M  6855
                                                  6929M  6929   6956M  6969M  6969   6976   6996M  6998M  7013M  7013
                                                  7028   7076   7077M  7089   7095M  7103   7118M  7119M  7163   7164
                                                  7164   7164   7188M  7188   7214M  7297   7297   7297   7404M  7404
                                                  7413   7414   7453M  7459M  7460   7478M  7501M  7549M  7615M  7974
                                                  8449   8462M  8462   8471   8472   8585M  8585   8586   8660   8671M
                                                  8677   8813   8814M  8815   8820M  8840M  8842M  8842   8869M  8919M
                                                  8919   8929M  9000M  9214   9220M  9220   9221M  9222M  9222   9245M
                                                  9246M  9246   9268M  9301M  9430M  9435M  9493M  9493   9521M  9522
                                                  9523   9524   9528   9686M  9710M  9756M  9780M  9780   9816M  9825M
                                                  9831   9946M  9951   9968  10247M 10273M 10363M 10363  10372  10373
                                                 10401  10408M 10435M 10458M 10471M 10472M 10508M 10516M 10540  10559M
                                                 10588M 10598  10627M 10652M 10658  10662M 10662  10680M 10938  10951M
                                                 10951  10960  10961  11073  11074M 11075M 11092M 11605M 11612  11612M
                                                 11789  11791  11793  11824M 12034  12041  12054  12142M 12149M 12561
                                                 12568  12581  12653M 12657M 12892M 13050M 13434M 13436  13438  13442
                                                 13444  13613  13704M 13708M 13890M 14048M 14095M 14097  14097M 14221
                                                 14238M 14314M 14390M 14455M 14517  14517M 14757M 14785M 14799M 14799
                                                 14808  14809  14879M 14879  14906  14933  15098  15112  15123M 15129
                                                 15349M 15356M 15408M 15408  15529  15582  15635  15688  15753  15818
                                                 15905  15970  16057  16122  16187  16252  16317  16371M 16465  16507
                                                 16578M 16856M 16916  16955  16956M 16958M 16970  17043M 17053M 17053
                                                 17059  17177  17400  17645M 17646M 17648  17648M 17868M 17868  17873
                                                 17876M 18408M 18409  18488M 18506M 18589M 18602M 18685M 18698M 18781M
                                                 18794M 18828M
 R1            1 00000001 FFFFFFFF A   #     712  2162M  2163M  2169M  6481M  6494   6495   6497   6533M  6566M  6955M
                                                  6975   7141M  7163   7164   7164   7164   7214M  7297   7297   7297
                                                  7400M  7413   7414   7416   7435M  7436   7452M  7459   7461M  7477M
                                                  7484   7500M  7507   7508   7550M  7608M  8094M  8095M  8095   8458M
                                                  8471   8472   8474   8670M  8815M  8865   8872   8921   8932   9001
                                                  9215M  9224M  9244M  9262   9270M  9287M  9298M  9298   9427M  9527
                                                  9660M  9685M  9705M  9751M  9815M  9826M  9922M  9939M  9941M 10246M
                                                 10272M 10359M 10372  10373  10375  10400  10401M 10402  10405M 10406
                                                 10409M 10425M 10434M 10459M 10473M 10494  10501  10509M 10517M 10541
                                                 10560M 10589M 10626M 10627  10628M 10628  10645M 10658M 10679M 10947M
                                                 10960  10961  10963  11091M 11372M 11373  11441M 11442  11594M 11595M
                                                 11600M 11601M 11602M 11603M 11604M 11605  11612  11790  11814M 11823M
                                                 12013  12013M 12033  12040  12041M 12042  12141M 12142  12143M 12143
                                                 12147M 12161M 12162  12212M 12213  12327M 12328M 12329  12371M 12372M
                                                 12373  12451M 12453  12453M 12560  12567  12568M 12569  12654M 12656
                                                 12893M 13063M 13064  13114M 13115  13229M 13230M 13231  13273M 13274M
                                                 13275  13353M 13355  13355M 13437  13440  13441  13614  13705M 13707
                                                 13891M 14222  14278M 14354M 14430M 14476M 14496M 14517  14756M 14784M
1TEXT     (TEXT2025) (12:57) (15MAR04) Ordinary Symbol and Literal Cross Reference                                          Page   85
                                                 14795M 14808  14809  14811  14847M 15122M 15348M 15357M 16370M 16579M
                                                 16637M 16646M 16646  16684M 16686M 16687  16688M 16689M 16690  16857M
                                                 16957M 16958  17007M 17010M 17011  17012M 17013M 17014  17020M 17021
                                                 17024M 17025  17044M 17059M 17061M 17176  17399  17414  17436M 17453
                                                 17475M 17493  17515M 17532  17554M 17572  17594M 17615  17646  17648
                                                 17840M 17875M 18487M 18588M 18684M 18780M 18827M
 R12          12 0000000C FFFFFFFF A   #     855  2125
 R13          13 0000000D FFFFFFFF A   #     868  6489   6490   6491   6507   6508   6509   7408   7409   7410   7426
                                                  7427   7428   8453   8466   8467   8468   8484   8485   8486  10367
                                                 10368  10369  10385  10386  10387  10942  10955  10956  10957  10973
                                                 10974  10975  14803  14804  14805  14821  14822  14823
 R14          14 0000000E FFFFFFFF A   #     881  2100M  6488M  6489   6490   6491   6496M  6497   6504M  6507   6508
                                                  6509   7407M  7408   7409   7410   7415M  7416   7423M  7426   7427
                                                  7428   8452M  8453   8465M  8466   8467   8468   8473M  8474   8481M
                                                  8484   8485   8486   8512M  8515   9026M  9096M  9097   9099   9100
                                                  9101   9133M  9134M  9135M  9136   9140M  9141M  9142   9344M  9345
                                                  9346M  9360M  9360   9367M  9368M  9369   9371  10366M 10367  10368
                                                 10369  10374M 10375  10382M 10385  10386  10387  10941M 10942  10954M
                                                 10955  10956  10957  10962M 10963  10970M 10973  10974  10975  11001M
                                                 11004  11790M 11794M 12144M 12145  12146M 12146  12149M 12180M 12185M
                                                 12192  12231M 12236M 12243  12305M 12310M 12311  12739M 12740  12741M
                                                 12741  12766M 12857  12881M 12892  12896M 12897  12898M 12898  12923M
                                                 13014  13038M 13050M 13082M 13087M 13094  13133M 13138M 13145  13207M
                                                 13212M 13213  13437M 13439M 13443M 13444M 13445M 13463  13466M 13737M
                                                 13738  13739M 13739  13764M 13855  13879M 13890  13894M 13895  13896M
                                                 13896  13921M 14012  14036M 14048M 14802M 14803  14804  14805  14810M
                                                 14811  14818M 14821  14822  14823
 R15          15 0000000F FFFFFFFF A   #     894  2099   6510M  6510   6594M  6594   6741M  6741   6807M  6807   6874M
                                                  6874   7196M  7219M  7263M  7263   7429M  7429   7703M  7703   7727M
                                                  7727   7978M  7978   7997M  7997   8104M  8104   8123M  8123   8175M
                                                  8175   8194M  8194   8246M  8246   8265M  8265   8317M  8317   8336M
                                                  8336   8388M  8388   8407M  8407   8487M  8487   8504   8523M  8523
                                                  8542M  8542   8587M  8606M  8606   8678M  8697M  8697   8740M  8759M
                                                  8759   8992M  8993M  8994   9020M  9022M  9129M  9130M  9131   9141
                                                  9183M  9185M  9247M  9249M  9256M  9266M  9316M  9318   9333   9343
                                                  9369   9371M  9373   9374M  9375   9399M  9400M  9401   9402M  9403
                                                  9405M  9406   9407M  9408M  9408   9409   9481M  9482   9483   9607M
                                                  9607   9694M  9788M  9813M  9814   9850M  9850   9904M  9905M  9993M
                                                  9993  10388M 10388  10478M 10593M 10629M 10634M 10635M 10636  10670M
                                                 10688M 10699M 10699  10723M 10723  10976M 10976  10993  11012M 11012
                                                 11031M 11031  11098M 11117M 11117  11160M 11179M 11179  11234M 11234
                                                 11253M 11253  11308M 11308  11327M 11327  11377M 11377  11396M 11396
                                                 11446M 11446  11465M 11465  11631M 11631  11727M 11730M 11731  11734M
                                                 11746  11752  11768  11774  11791M 11849M 11849  12039  12145M 12148M
                                                 12181M 12182M 12184  12232M 12233M 12235  12306M 12307M 12309  12478M
                                                 12478  12566  12740M 12753  12767M 12776M 12776  12786M 12786  12802
                                                 12809M 12840M 12840  12848M 12850  12866  12882M 12882  12891M 12893
                                                 12897M 12910  12924M 12933M 12933  12943M 12943  12959  12966M 12997M
                                                 12997  13005M 13007  13023  13039M 13039  13048M 13083M 13084M 13086
                                                 13134M 13135M 13137  13208M 13209M 13211  13380M 13380  13438M 13491M
                                                 13491  13618  13738M 13751  13765M 13774M 13774  13784M 13784  13800
                                                 13807M 13838M 13838  13846M 13848  13864  13880M 13880  13889M 13891
                                                 13895M 13908  13922M 13931M 13931  13941M 13941  13957  13964M 13995M
                                                 13995  14003M 14005  14021  14037M 14037  14046M 14122M 14122  14282M
                                                 14282  14358M 14358  14434M 14434  14480M 14480  14497M 14541M 14541
                                                 14824M 14824  14868M 14868  14919M 14919  14993M 14993  15148M 15148
                                                 15842M 15842  15994M 15994  16584M 16984M 17116M 17116  17340M 17340
                                                 17667M 17667  17858M 17858  18398M 18398  18403M 18434M 18434  18496M
                                                 18542M 18542  18597M 18638M 18638  18693M 18734M 18734  18789M 18818M
1TEXT     (TEXT2025) (12:57) (15MAR04) Ordinary Symbol and Literal Cross Reference                                          Page   86
                                                 18848M 18848
 R2            2 00000002 FFFFFFFF A   #     725  6975M  7003M  7076M  7118   7126   8812M  8813   8840M  8841   8865M
                                                  8868M  8872M  8873   8909   8911   8921M  8928M  8932M  8999M  9001M
                                                  9129   9214   9262M  9267M  9301M  9362   9366M  9368   9374   9376
                                                  9377M  9380   9395   9396   9397   9427   9430   9432M  9435   9440M
                                                  9440   9491M  9491   9950M  9950   9967  10460M 10474M 10518M 10561M
                                                 11596M 11597M 11600  11784M 11785  11792M 11794M 11795  11796M 11796
                                                 11808  12035  12066M 12067  12108  12141  12161  12163M 12163  12174
                                                 12233  12234M 12234  12236M 12259M 12260  12307  12308M 12308  12310M
                                                 12374M 12375  12562  12655M 12657M 12661M 12662  12703  12739  13063
                                                 13065M 13065  13076  13135  13136M 13136  13138M 13161M 13162  13209
                                                 13210M 13210  13212M 13276M 13277  13435  13443  13706M 13708M 13712M
                                                 13713  13716  13737  14077M 14077  14079  14092M 14092  14093M 14094M
                                                 14095  14223  14229M 14229  14232M 14236M 14236  14237M 14305M 14305
                                                 14308M 14312M 14312  14313M 14381M 14381  14384M 14388M 14388  14389M
                                                 14715M 14716  14835M 14836M 14837  14848M 15362M 16660M 16661M 17015M
                                                 17016M 17017M 17018M 17019M 17021  17022M 17023M 17025  17176M 17178
                                                 17193  17218M 17240M 17270  17278M 17299M 17399M 17400M 17414  17453
                                                 17493  17532  17572  17601M 17615  17636M 17644M 17645  17772M 17773
                                                 17790M 17796M 17802M 17804M 17806M 17841M 17882M 17887M 17916M 17918M
                                                 17920M 17928M 17956  17980M 18007  18016M 18024M 18056M 18083  18092M
                                                 18100M 18118M 18138  18145M 18153M 18155  18183  18191M 18221  18232M
                                                 18234  18262  18270M 18300  18311M 18313  18341  18349M 18379  18501M
                                                 18502M 18503M 18504M 18505M 18506
 R3            3 00000003 FFFFFFFF A   #     738  6976M  7004M  7026M  7028M  7029M  7038   7056M  7056   7057M  7058M
                                                  7061   7077   7103M  7113M  7113   7119   7124M  7124   7571M  8811M
                                                  9110M  9208M  9211M  9212M  9221   9245   9300M  9306M  9346   9350M
                                                  9350   9426M  9473M  9473   9563   9951M 10475M 10590M 11598M 11601
                                                 11793M 11991M 11991  12036  12067M 12068  12174  12232  12235M 12260M
                                                 12261M 12262  12298  12304M 12306  12309M 12375M 12376M 12377  12563
                                                 12600M 12600  12623M 12644  12649  12656M 12662M 12663  13076  13134
                                                 13137M 13162M 13163M 13164  13200  13206M 13208  13211M 13277M 13278M
                                                 13279  13615  13651M 13651  13674M 13695  13700  13707M 14230M 14231M
                                                 14238  14247M 14261  14306M 14307M 14314  14323M 14382M 14383M 14390
                                                 14399M 14413  14454M 14455  14456M 14458M 14470  14852M 14852  16662M
                                                 17177M 17178M 17193  17270  17300M 17304M 17306  17791M 17792  17795
                                                 17797M 17798  17803M 17804  17819M 17819  17845M 17845  17883M 17886
                                                 17888M 17889M 17890  17902  17917M 17918  17929M 17956  18007  18083
                                                 18138  18144M 18145  18146  18154M 18155M 18156M 18183  18221  18233M
                                                 18234M 18235M 18262  18300  18312M 18313M 18314M 18341  18379
 R4            4 00000004 FFFFFFFF A   #     751  7027M  7029   7038M  7048M  7048   7058   7145M  7145   7207M  7236M
                                                  7236   7571M  7572M  7573M  7574M  7574   9097   9101M  9120M  9120
                                                  9131   9142   9206M  9215   9247   9305M  9305   9308M  9309M  9310M
                                                  9310   9334M  9335   9343M  9362   9376M  9397M  9398M  9406M  9458M
                                                  9459M  9460M  9460   9472M  9472   9528M  9536M  9536   9710   9756
                                                  9816  10476M 10591M 10605M 10608  10620  10626  10637M 10637  11599M
                                                 11602  11709M 11710  11711  11717M 11718  11719M 11720  11783M 11785
                                                 11786M 11786  11787  11788M 11789  11792  12037  12068M 12069  12144
                                                 12182  12183M 12183  12185M 12212  12214M 12214  12225  12259  12262M
                                                 12263  12377M 12378  12564  12606M 12632M 12632  12639M 12644M 12650
                                                 12663M 12664  12896  13084  13085M 13085  13087M 13114  13116M 13116
                                                 13127  13161  13164M 13165  13279M 13280  13435M 13439M 13440M 13457
                                                 13464  13465M 13465  13616  13657M 13683M 13683  13690M 13695M 13701
                                                 13713M 13728  13894  14061M 14061  14078  14080M 14080  14242M 14242
                                                 14246M 14272M 14272  14318M 14318  14322M 14348M 14348  14394M 14394
                                                 14398M 14424M 14424  16698M 16739M 16760M 16803M 16855M 16955M 16956
                                                 17179M 17221M 17243M 17295M 17296  17301M 17794M 17796M 17884M 17885M
                                                 17887M
 R5            5 00000005 FFFFFFFF A   #     764  7570M  8811M  8951   9020   9100M  9108   9183   9205M  9247   9251M
1TEXT     (TEXT2025) (12:57) (15MAR04) Ordinary Symbol and Literal Cross Reference                                          Page   87
                                                  9258M  9307M  9315M  9333M  9372M  9373M  9396M  9424   9457M  9527M
                                                  9563   9705   9751   9815   9895M  9896M  9896   9899M  9900   9901M
                                                 10477M 10592M 10606M 10607M 10608M 10620  11712M 11713M 11714M 11714
                                                 11715M 11716M 11717  11719  12002M 12002  12038  12069M 12181  12184M
                                                 12225  12263M 12264M 12276  12282M 12378M 12379M 12391  12398M 12565
                                                 12664M 13083  13086M 13127  13165M 13166M 13178  13184M 13280M 13281M
                                                 13293  13300M 13436M 13441M 13442M 13457  13617  13714M 13715M 13716M
                                                 13728  14243M 14245M 14247  14319M 14321M 14323  14337  14395M 14397M
                                                 14399  16740M 16751M 16751  16762M 16783M 16794M 16794  16805M 16916M
                                                 16920M 16929M 16929  16936  17294M 17295  17795M 17886M
 R6            6 00000006 FFFFFFFF A   #     777  6449M  6450   6458U  6920M  7359M  7367U  7369   8810M 10193U 10195M
                                                 11687M 12070M 12162  12164M 12164  12180  12192M 12213  12215M 12215
                                                 12231  12243M 12305  12311M 12422M 12439M 12665M 13064  13066M 13066
                                                 13082  13094M 13115  13117M 13117  13133  13145M 13207  13213M 13324M
                                                 13341M 13463M 13464  14078M 14079  14688M 14696U 15083U 15343U
 R7            7 00000007 FFFFFFFF A   #     790  2092M  2092   2093B  2105B
 R8            8 00000008 FFFFFFFF A   #     803  6445U  7355U 10170U 11974U 12545U 13598U 14215U 14684U 15325U 17764U
 SCANCHK       1 00000000 00000008     T    7285  7285  10016  11509  18864
 SCINIT        1 00000000 00000011     T   10023 10023
 SCNINVAL      1 00000000 00000005     T    6676  6676   7870  10863
 SDBUF1      256 00000020 FFFFFFE5     C   13538 13855M 13871M 13879
 SDBUF2      256 00000120 FFFFFFE5     C   13539 14012M 14028M 14036
 SDCOL1        4 00000008 FFFFFFE5     F   13532 13615M
 SDCOL2        4 0000000C FFFFFFE5     F   13533 13616M
 SDCOUNT       4 00000000 FFFFFFE5     F   13530 13613M 13632  13714
 SDELETE       2 00001EF4 00000001     H   13556 11519
 SDFLDLEN      4 0000001C FFFFFFE5     F   13537 13701M 13800  13807  13957  13964
 SDFLDOFF      4 00000018 FFFFFFE5     F   13536 13700M 13764  13765  13921  13922
 SDLIST        4 00000004 FFFFFFE5     F   13531 13614M 13712  14093
 SDPAD         4 00000014 FFFFFFE5     F   13535 13618M 13889  14046
 SDSNQSZ       1 0000002C FFFFFFEC A   U    6080  6081   6082
 SDTRBUF     256 00000220 FFFFFFE5     C   13540 13704  13871  14028
 SDTRTAB       4 00000010 FFFFFFE5     F   13534 13617M 13706  13824  13981
 SDWA        800 00000000 FFFFFFE5     J   13547 13569  13598U 13609M 13609  13610M 13610  13611M 13611  13612M 13612
                                                 14118  14120  14121
 SEG           1 00000000 0000001C     T   11522 11522  18894
 SEGDC         1 00000000 0000001B     T   11521 11521
 SEGWR         1 00000000 0000000B     T    7292  7292  10031
 SLBUF1      256 00000034 FFFFFFE6     C   11914 12857M 12873M 12881
 SLBUF2      256 00000134 FFFFFFE6     C   11915 13014M 13030M 13038
 SLCOL1        4 00000014 FFFFFFE6     F   11898 12036M 12563M
 SLCOL2        4 00000018 FFFFFFE6     F   11899 12037M 12564M
 SLDONE      128 00000028 FFFFFFE6        11909 12122M 12134  12191M 12242M 12717M 12729  13093M 13144M
 SLFLAG        1 00000028 FFFFFFE6     R   11905 11909
 SLFLDLEN      4 00000030 FFFFFFE6     F   11913 12650M 12802  12809  12959  12966
 SLFLDOFF      4 0000002C FFFFFFE6     F   11912 12649M 12766  12767  12923  12924
 SLICECHK      1 00000000 0000001E     T   14560 14560
 SLIST         4 0000000C FFFFFFE6     F   11896 12040M 12066  12342  12349M 12366M 12371  12374  12415  12451  12567M
                                                 12661  13244  13251M 13268M 13273  13276  13317  13353
 SLISTEND      4 00000010 FFFFFFE6     F   11897 12042M 12108  12276  12282  12298  12304  12373M 12391  12398  12569M
                                                 12703  13178  13184  13200  13206  13275M 13293  13300
 SLISTLEN      4 00000008 FFFFFFE6     F   11895 12034M 12087  12372  12561M 12682  13274
 SLIST1        4 00000000 FFFFFFE6     F   11893 12033M 12342  12366  12415  12439  12560M 13244  13268  13317  13341
 SLIST2        4 00000004 FFFFFFE6     F   11894 12035M 12070  12349  12422  12562M 12665  13251  13324
 SLPAD         4 00000020 FFFFFFE6     F   11901 12039M 12147  12148  12566M 12891  13048
 SLTRBUF     256 00000234 FFFFFFE6     C   11916 12653  12873  13030
 SLTRTAB       4 0000001C FFFFFFE6     F   11900 12038M 12565M 12655  12826  12983
 SLWA        820 00000000 FFFFFFE6     J   11923 11945  11974U 12029M 12029  12030M 12030  12031M 12031  12032M 12032
                                                 12474  12476  12477  12516  12545U 12556M 12556  12557M 12557  12558M
1TEXT     (TEXT2025) (12:57) (15MAR04) Ordinary Symbol and Literal Cross Reference                                          Page   88
                                                 12558  12559M 12559  13376  13378  13379
 SORT          2 00000FDC 00000001     H   10128 10124
 SORTLIST      2 00001A0C 00000001     H   11932 11516
 SORTPRT       4 00001268 00000001     F   10731 11507
 SORTPRT2      4 000013D0 00000001     F   10867 11523
 SORTWA       64 00000000 FFFFFFE8     J   10099 10111  10193U 10204M 10204  10405
 SORTWOPT      2 00001BFA 00000001     H   12503 14557
 SPR          13 0000000D 00000001 A   #    1115  6410   6413   6415   6416M  6416   6586M  6590   6592   6689   6692
                                                  6693   6694M  6694   6733M  6737   6739   6755   6758   6759   6760M
                                                  6760   6799M  6803   6805   6821   6824   6825   6826M  6826   6866M
                                                  6870   6872   6891   6894   6895   6896M  6896   7255M  7259   7261
                                                  7320   7323   7325   7326M  7326   7719M  7723   7725   7945   7948
                                                  7949   7950M  7950   7989M  7993   7995   8010   8013   8014   8015M
                                                  8015   8115M  8119   8121   8137   8140   8141   8142M  8142   8186M
                                                  8190   8192   8208   8211   8212   8213M  8213   8257M  8261   8263
                                                  8279   8282   8283   8284M  8284   8328M  8332   8334   8350   8353
                                                  8354   8355M  8355   8399M  8403   8405   8420   8423   8424   8425M
                                                  8425   8534M  8538   8540   8556   8559   8560   8561M  8561   8598M
                                                  8602   8604   8620   8623   8624   8625M  8625   8689M  8693   8695
                                                  8711   8714   8715   8716M  8716   8751M  8755   8757   8781   8784
                                                  8785   8786M  8786   9599M  9603   9605   9630   9633   9634   9635M
                                                  9635   9842M  9846   9848   9864   9867   9868   9869M  9869   9985M
                                                  9989   9991  10135  10138  10140  10141M 10141  10715M 10719  10721
                                                 10909  10912  10913  10914M 10914  11023M 11027  11029  11044  11047
                                                 11048  11049M 11049  11109M 11113  11115  11131  11134  11135  11136M
                                                 11136  11171M 11175  11177  11196  11199  11200  11201M 11201  11245M
                                                 11249  11251  11270  11273  11274  11275M 11275  11319M 11323  11325
                                                 11343  11346  11347  11348M 11348  11388M 11392  11394  11412  11415
                                                 11416  11417M 11417  11457M 11461  11463  11564  11567  11568  11569M
                                                 11569  11623M 11627  11629  11656  11659  11660  11661M 11661  11841M
                                                 11845  11847  11939  11942  11944  11945M 11945  12470M 12474  12476
                                                 12510  12513  12515  12516M 12516  13372M 13376  13378  13404  13407
                                                 13408  13409M 13409  13483M 13487  13489  13563  13566  13568  13569M
                                                 13569  14114M 14118  14120  14180  14183  14185  14186M 14186  14533M
                                                 14537  14539  14649  14652  14654  14655M 14655  14985M 14989  14991
                                                 15047  15050  15051  15052M 15052  15140M 15144  15146  15290  15293
                                                 15295  15296M 15296  17108M 17112  17114  17141  17144  17145  17146M
                                                 17146  17332M 17336  17338  17370  17373  17374  17375M 17375  17659M
                                                 17663  17665  17729  17732  17734  17735M 17735  18426M 18430  18432
                                                 18454  18457  18458  18459M 18459  18534M 18538  18540  18555  18558
                                                 18559  18560M 18560  18630M 18634  18636  18651  18654  18655  18656M
                                                 18656  18726M 18730  18732  18747  18750  18751  18752M 18752  18840M
                                                 18844  18846
 STCOLMN       2 00001420 00000001     H   10903 10743  10758
 STCOLMN2      2 000014CA 00000001     H   11038 10879
 STCOL1        4 00000024 FFFFFFE8     F   10073 10475  10590  10938M 11074
 STCOL2        4 00000028 FFFFFFE8     F   10074 10476  10591  11073M
 STCOUNT       4 00000020 FFFFFFE8     F   10072 10458  10471  10518  10559  10588  10598M 10606  10652  11703  11727
                                                 11731M
 STDELETE      2 0000156C 00000001     H   11264 10803
 STDELTA       4 0000003C FFFFFFE8     F   10092 10206M 10541M 10635
 STFDEL       64 00000034 FFFFFFE8        10088 10582  11304M
 STFLAGS       1 00000034 FFFFFFE8     R   10079 10083  10088
 STFREV      128 00000034 FFFFFFE8        10083 10452  10553  11230M
 STFRSTLN      4 00000018 FFFFFFE8     F   10070 10279M 10292  10298M 10349M 10508  10516  11746  11752M
 STGETMEM      2 000018DA 00000001     H   11558 11510
 STGETTXT      2 00001934 00000001     H   11650 11512
 STHEX         2 000015CC 00000001     H   11406 10848
 STLASTLN      4 0000001C FFFFFFE8     F   10071 10303M 10316  10328M 10328  10350M 10509  10517  11768  11774M
1TEXT     (TEXT2025) (12:57) (15MAR04) Ordinary Symbol and Literal Cross Reference                                          Page   89
 STLINENO      4 00000038 FFFFFFE8     F   10091 10205M 10540M 10629  10634  10636M
 STLISTPT      4 00000010 FFFFFFE8     F   10068 11711M 11783  11787M
 STLISTRV      2 00001E96 00000001     H   13398 11515
 STLIST1       4 00000008 FFFFFFE8     F   10066 10459  10473  10500  10501M 10560  10589  10605  11710M
 STLIST2       4 0000000C FFFFFFE8     F   10067 10460  10474  10494  10500M 10561  11718M
 STMEM         4 00000000 FFFFFFE8     F   10064 10400M 10425  10645  11709  11814
 STMEMEND      4 00000004 FFFFFFE8     F   10065 10402M 11808
 STNOCASE      2 0000159A 00000001     H   11337 10818  10833
 STOW          1 00000000 0000000D     T    7294  7294  10034
 STPAD         4 00000030 FFFFFFE8     F   10076 10207M 10478  10593
 STREVRSE      2 0000153E 00000001     H   11190 10773  10788
 STSCNRES      2 00001512 00000001     H   11125 10894
 STSORTWA      1 00000000 FFFFFFE7     X   10111 10195
 STTEXTPT      4 00000014 FFFFFFE8     F   10069 11720M 11784  11788  11795M
 STTRTAB       4 0000002C FFFFFFE8     F   10075 10477  10592  11373M 11442M
 STWA         64 00000000 FFFFFFE7     J   10118 10141  10170U 10184U 10719  10721  10722
 TEXT2025      1 00000000 00000001     R     999   997
 TRC           1 00000000 00000000 A   T    2121  2121
 TTYFLAG       1 00000004 FFFFFFEA     R    6209  6213
 TTYMAX#       1 00000006 FFFFFFEA A   U    6265  6266
 TTYTFLAG      1 00000005 FFFFFFEA     R    6219  6223   6228   6233   6238   6243   6248   6253
 UNJUST        4 00000C30 00000001     I    9306  9177B  9213B
 UNPRST        1 00000001 FFFFFFEC A   U    6169  7287  10019  11511
 UPPTBL        1 00000000 00000000 A   T    2184  2184
 WAR           8 00000008 00000001 A   #    1038  6415M  6586   6693M  6733   6759M  6799   6825M  6866   6895M  7255
                                                  7325M  7719   7949M  7989   8014M  8115   8141M  8186   8212M  8257
                                                  8283M  8328   8354M  8399   8424M  8534   8560M  8598   8624M  8689
                                                  8715M  8751   8785M  9599   9634M  9842   9868M  9985  10140M 10184U
                                                 10715  10913M 11023  11048M 11109  11135M 11171  11200M 11245  11274M
                                                 11319  11347M 11388  11416M 11457  11568M 11612  11623  11660M 11841
                                                 11944M 12013  12453  12470  12515M 13355  13372  13408M 13483  13568M
                                                 14097  14114  14185M 14517  14533  14654M 14985  15051M 15140  15295M
                                                 17108  17145M 17332  17374M 17648  17659  17734M 18426  18458M 18534
                                                 18559M 18630  18655M 18726  18751M 18840
 WRKALIN       2 000009D8 00000001     H    8775 10020
 WTOSG         1 00000000 00000000 A   T    2081  2081
 WYLTEXT       1 00000000 00000001     J     990   992   1020   1033   1046   1058   1071   1084   1097   1110   1123
                                                  1136   2365   2449   6189   6301   6307   6391   7074   7139
 =A((DESNRTN+LOCATRTN+UNPRST+DESABORT))
               4 00000374 00000001     A    7287  6565
 =A((DESRTRN+LOCATRTN+DESABORT+UNPRST))
               4 00001840 00000001     A   11511 10408
 =A((DESRTRN+LOCATRTN+UNPRST+DESABORT))
               4 00000F24 00000001     A   10019  7549
 =A(ALIPRT)
               4 00000F00 00000001     A   10014  7415
 =A(AUTODELT)
               4 0000185C 00000001     A   11518 10521
 =A(CENPRT)
               4 0000034C 00000001     A    7283  6496
 =A(CENWORK)
               4 00000378 00000001     A    7288  6566
 =A(CHKBEGIN)
               4 00002DD8 00000001     A   18877 15832  15984
 =A(INDPRT)
               4 00000F40 00000001     A   10026  8473
 =A(LNDIGEST)
               4 00002DC0 00000001     A   18871 15352  17879
 =A(LNFORMAT)
1TEXT     (TEXT2025) (12:57) (15MAR04) Ordinary Symbol and Literal Cross Reference                                          Page   90
               4 00002DB0 00000001     A   18867 14927
 =A(LONGLINE)
               4 00002E08 00000001     A   18889 16978  17910
 =A(MISSEND)
               4 00002DB4 00000001     A   18868 14961
 =A(NOTINBLK)
               4 00002DF8 00000001     A   18885 16654
 =A(NOTTYPE)
               4 00002DFC 00000001     A   18886 16678
 =A(OTALIN)
               4 00000F30 00000001     A   10022  7577   9313   9463   9531
 =A(PFLRTRIM)
               4 00002DC4 00000001     A   18872 15360  16890
 =A(PFPRT)
               4 00002D9C 00000001     A   18862 14810
 =A(RENUMB)
               4 00000F3C 00000001     A   10025  7687   9515
 =A(SDELETE)
               4 00001860 00000001     A   11519 10596
 =A(SORTLIST)
               4 00001854 00000001     A   11516 10481
 =A(SORTPRT)
               4 00001830 00000001     A   11507 10374
 =A(SORTPRT2)
               4 00001870 00000001     A   11523 10962
 =A(SORTWOPT)
               4 000021D4 00000001     A   14557 12010
 =A(STGETMEM)
               4 0000183C 00000001     A   11510 10398
 =A(STGETTXT)
               4 00001844 00000001     A   11512 10409
 =A(STLISTRV)
               4 00001850 00000001     A   11515 10463  10564
 =A(WRKALIN)
               4 00000F28 00000001     A   10020  7550
 =A(X'40000000')
               4 00001804 00000001     A   11502 10207
 =A(1)         4 000021A8 00000001     A   14554 11730
 =A(1)         4 00002E00 00000001     A   18887 16739  16760  16803  16855  17010  17218  17221  17240  17243  17278
                                                 17436  17475  17515  17554  17594  17644  17980  18016  18024  18056
                                                 18092  18100  18118  18191  18270  18349
 =A(10)        4 00002DDC 00000001     A   18878 15905  15970  16122
 =A(16)        4 00002DBC 00000001     A   18870 15112
 =A(2*235)
               4 00002E0C 00000001     A   18890 17902
 =A(2)         4 00002DB8 00000001     A   18869 15098  15529  15818  16465
 =A(235)       4 00000380 00000001     A    7290  7089
 =A(235)       4 00002E04 00000001     A   18888 16970
 =A(255)       4 000021E4 00000001     A   14561 12753  12910  13751  13908
 =A(3)         4 00002DC8 00000001     A   18873 15582  15688  16317  16507
 =A(4)         4 00002DD0 00000001     A   18875 15635  16187  16252
 =A(5)         4 00002DE4 00000001     A   18880 16057
 =A(50)        4 00000F48 00000001     A   10028  8660
 =A(6)         4 00002DD4 00000001     A   18876 15753
 =A(8)         4 00000F44 00000001     A   10027  8504
 =A(8)         4 00001874 00000001     A   11524 10993
 =A(8)         4 000021D8 00000001     A   14558 12054  12581
 =AL4(1)       4 000021E8 00000001     R   14562 13632
 =AL4(1000)
1TEXT     (TEXT2025) (12:57) (15MAR04) Ordinary Symbol and Literal Cross Reference                                          Page   91
               4 0000182C 00000001     R   11506 10292
 =C' is too long to format. '
              24 00002D80 00000001     C   18860 18827
 =C' lines sorted. '
              15 000018CA 00000001     C   11531 10679
 =C'++'        2 00002E50 00000001     C   18898 15515
 =C'! /'       3 00002F05 00000001     C   18912 16493
 =C'!/'        2 00002E6E 00000001     C   18903 16451
 =C': BEGIN'
               7 00002F08 00000001     C   18913 18250  18288
 =C':BEGIN'
               6 00002E70 00000001     C   18904 18329  18367
 =C'Associative range not allowed. '
              31 0000189E 00000001     C   11529 10246
 =C'BEGIN'
               5 00002EFD 00000001     C   18910 16043
 =C'Disjoint range not allowed. '
              28 00001810 00000001     C   11505 10272
 =C'DEC'       3 00002EF7 00000001     C   18908 15568
 =C'DISP'      4 00002D98 00000001     C   18861 14774
 =C'Extra END block statement.  Error in line '
              42 00002EA4 00000001     C   18906 18588
 =C'ELSE BEGIN'
              10 00002E5A 00000001     C   18901 15891
 =C'ELSE'      4 00002DE0 00000001     C   18879 15956
 =C'END block is wrong type.  Error in line '
              40 00002D58 00000001     C   18859 18684
 =C'ENDB'      4 00002DE8 00000001     C   18881 16173
 =C'ENDD'      4 00002DCC 00000001     C   18874 15621
 =C'ENDW'      4 00002DEC 00000001     C   18882 16238
 =C'Illegal indentation.'
              20 00000F0C 00000001     C   10017  7452   7477   7500
 =C'Indent specification too large. (>50) '
              38 00000F74 00000001     C   10040  8670
 =C'Indentation exceeds length. '
              28 00000358 00000001     C    7286  6533
 =C'Invalid indent value.  (value<2, value>16)'
              42 00002E26 00000001     C   18897 15122
 =C'Invalid COLUMN specification. '
              30 00001880 00000001     C   11528 11091
 =C'IF'        2 00002E58 00000001     C   18900 15804
 =C'Line '
               5 00002F0F 00000001     C   18914 18780
 =C'No line-number available, the following text lost:'
              50 00000F9E 00000001     C   10043  9685
 =C'No END block statement.  Block starts at line '
              46 00002E76 00000001     C   18905 18487
 =C'PFORMAT command available in SPIRES only.'
              41 00002ECE 00000001     C   18907 14756  14784
 =C'REPEAT'
               6 00002E52 00000001     C   18899 15739
 =C'Sort memory overflow.  Sort aborted.'
              36 000021B0 00000001     C   14556 11823
 =C'Sort Aborted.'
              13 000018BD 00000001     C   11530 10434
 =C'THEN BEGIN'
              10 00002E64 00000001     C   18902 16108  18171  18209
 =C'UNT'       3 00002F02 00000001     C   18911 16303
 =C'WHI'       3 00002EFA 00000001     C   18909 15674
1TEXT     (TEXT2025) (12:57) (15MAR04) Ordinary Symbol and Literal Cross Reference                                          Page   92
 =F'-1000'
               4 00000F20 00000001     F   10018  7537
 =F'1'         4 00000EFC 00000001     F   10013  7389
 =F'1'         4 00001878 00000001     F   11525 11075
 =F'10'        4 00002200 00000001     F   14568 14384  14389  14398
 =F'10'        4 00002E10 00000001     F   18891 18156
 =F'100'       4 000021F8 00000001     F   14566 14308  14313  14322
 =F'1000'      4 00001800 00000001     F   11501 10205  10206  10298  10349
 =F'1000'      4 000021F0 00000001     F   14564 14232  14237  14246
 =F'16384'
               4 000021A0 00000001     F   14552 11599
 =F'4'         4 000021DC 00000001     F   14559 12065  12660  13445  13466
 =F'6'         4 00002E18 00000001     F   18893 18314
 =F'7'         4 00002E14 00000001     F   18892 18235
 =F'9'         4 000021FC 00000001     F   14567 14383
 =F'99'        4 000021F4 00000001     F   14565 14307
 =F'999'       4 000021EC 00000001     F   14563 14231
 =H'-1'        2 00000F9A 00000001     H   10041  8820
 =V(ADDER)
               4 00000F64 00000001     V   10035  9829
 =V(CHKACT)
               4 00001808 00000001     V   11503 10212
 =V(CVEXNO)
               4 00002E20 00000001     V   18895 18509  18605  18701  18797
 =V(DELRANGE)
               4 00000F4C 00000001     V   10029  8818
 =V(DELRANGE)
               4 00001858 00000001     V   11517 10512
 =V(FREECORE)
               4 0000184C 00000001     V   11514 10428  10648
 =V(FREECORE)
               4 000021AC 00000001     V   14555 11817
 =V(GETCORE)
               4 000021A4 00000001     V   14553 11608
 =V(GETLNO)
               4 00000F68 00000001     V   10036  9908
 =V(GTFRST)
               4 00002DA8 00000001     V   18865 14855
 =V(GTNEXT)
               4 00002DAC 00000001     V   18866 14900  14931  17848
 =V(LISTLINE)
               4 00000384 00000001     V    7291  7167
 =V(LISTLINE)
               4 00000F58 00000001     V   10032  9759
 =V(LOCATE)
               4 00000F50 00000001     V   10030  9663
 =V(LRTRIM)
               4 00002DF0 00000001     V   18883 16582  16910  17174
 =V(NDETRNG)
               4 00000348 00000001     V    7282  6462
 =V(NDETRNG)
               4 00000EF8 00000001     V   10012  7372
 =V(NDETRNG)
               4 0000180C 00000001     V   11504 10225
 =V(NSCAN)
               4 00000350 00000001     V    7284  6500
 =V(NSCAN)
               4 00000F04 00000001     V   10015  7419   8477
 =V(NSCAN)
1TEXT     (TEXT2025) (12:57) (15MAR04) Ordinary Symbol and Literal Cross Reference                                          Page   93
               4 00001834 00000001     V   11508 10378  10966
 =V(NSCAN)
               4 00002DA0 00000001     V   18863 14814
 =V(NUMBER)
               4 00000F38 00000001     V   10024  7623
 =V(NUMRANGE)
               4 00000F6C 00000001     V   10037  9954
 =V(PRESS)
               4 0000038C 00000001     V    7293  7222
 =V(PRESS)
               4 00000F5C 00000001     V   10033  9819
 =V(PUTLINE)
               4 00001864 00000001     V   11520 10632
 =V(PUTLINE)
               4 00002DF4 00000001     V   18884 16587  16987
 =V(RDRNG)
               4 0000037C 00000001     V    7289  6569
 =V(RDRNG)
               4 00000F2C 00000001     V   10021  7553
 =V(RDRNG)
               4 00001848 00000001     V   11513 10412
 =V(SCANCHK)
               4 00000354 00000001     V    7285  6514
 =V(SCANCHK)
               4 00000F08 00000001     V   10016  7433   8491
 =V(SCANCHK)
               4 00001838 00000001     V   11509 10392  10980
 =V(SCANCHK)
               4 00002DA4 00000001     V   18864 14828
 =V(SCINIT)
               4 00000F34 00000001     V   10023  7618
 =V(SEG)       4 0000186C 00000001     V   11522 10691
 =V(SEG)       4 00002E1C 00000001     V   18894 18499  18600  18696  18792  18821
 =V(SEGDC)
               4 00001868 00000001     V   11521 10673
 =V(SEGWR)
               4 00000388 00000001     V    7292  7199
 =V(SEGWR)
               4 00000F54 00000001     V   10031  9697   9791
 =V(SLICECHK)
               4 000021E0 00000001     V   14560 12325  13227
 =V(STOW)      4 00000390 00000001     V    7294  7226
 =V(STOW)      4 00000F60 00000001     V   10034  9823
 =Y((L'NSCNCB+3)/4*4)
               2 00000F72 00000001     Y   10039  8514
 =Y((L'NSCNCB+3)/4*4)
               2 0000187E 00000001     Y   11527 11003
 =Y((R1+1-(R0)+16*((R0)/(R1+1))/((R0)/(R1+1)))*4)
               2 00000398 00000001     Y    7297  7213
 =Y((12+3)/4*4)
               2 00000394 00000001     Y    7295  6506
 =Y((12+3)/4*4)
               2 00000F70 00000001     Y   10038  7425   8483
 =Y((12+3)/4*4)
               2 0000187C 00000001     Y   11526 10384  10972
 =Y((12+3)/4*4)
               2 00002E24 00000001     Y   18896 14820
 =Y(235)       2 00000396 00000001     Y    7296  7095
 =Y(235)       2 00000F9C 00000001     Y   10042  9136   9140   9403   9405
1TEXT     (TEXT2025) (12:57) (15MAR04) Ordinary Symbol and Literal Cross Reference                                          Page   94

1TEXT     (TEXT2025) (12:57) (15MAR04) Macro and Copy Code Source Summary                                                   Page   95
- Con Source                                        Volume    Members                        HLASM R4.0  2004/03/15 12.57
0     PRIMARY INPUT                                           CSECT    DROP     END      EX       LTORG    POP
                                                              PRINT    PUSH     START    USING
   L1 WYL.GS.WYL.WYLBUR.MACLIB                      SYSB05    AINFO    BASE     BOMB     COLINFO  COMMENT  CONTROL
                                                              COUNT    CP       CPLOCAL  CV       CVLOCAL  ERROR
                                                              OSCINIT  RDRNG    RG       SCAN     SCANCB   SCANCHK
                                                              SCCBADR  SCKW     SCPOP    SCPUSH   SCUPTOK  TNUM     TSEG
                                                              TTYPE    TWRITE   VLTORG   XTRACE
   L2 WYL.GG.SYS.MACLIB                             SYSB05    $BC      $BFLKUP  $BV      $CCLKUP  $CRS     $CSS     $L
                                                              $LA      $LBLAD   $LEXP    $LOR     $REL     $RGLKUP
                                                              $USLKUP  ACALL    BEGIN    CLEAR    COMPROC  CSECT    DATA
                                                              DECR     DEFCC    DEX      DPROC    DROP     DTEX     ELSE
                                                              ELSEIF   END      EX       EXIT     FLAG     FLIP     GEN
                                                              HIBAL    IDENT    IF       INCR     LABEL    LC       LS
                                                              LT       LTORG    MOVE     PEND     POP      PRETURN
                                                              PRINT    PROC     PUSH     QLTORG   RECORD   REG      REGS
                                                              SET      SETMSG   START    USING    VCALL    WHILE    WITH
                                                              XPROC
   L3 SYS3.IS.MACLIB                                SYSB05    SEG      SEGCB    SEGDC    SEGLD    SEGWR    SIB
                                                              SYSDEFN  XPOP     XPUSH

1TEXT     (TEXT2025) (12:57) (15MAR04) Dsect Cross Reference                                                                Page   96
-Dsect     Length      Id       Defn                                                         HLASM R4.0  2004/03/15 12.57
0$$$@R0   00000000  FFFFFFFE     705
 $$$@R1   00000000  FFFFFFFD     718
 $$$@R10  00000000  FFFFFFF4     835
 $$$@R11  00000000  FFFFFFF3     848
 $$$@R12  00000000  FFFFFFF2     861
 $$$@R13  00000000  FFFFFFF1     874
 $$$@R14  00000000  FFFFFFF0     887
 $$$@R15  00000000  FFFFFFEF     900
 $$$@R2   00000000  FFFFFFFC     731
 $$$@R3   00000000  FFFFFFFB     744
 $$$@R4   00000000  FFFFFFFA     757
 $$$@R5   00000000  FFFFFFF9     770
 $$$@R6   00000000  FFFFFFF8     783
 $$$@R7   00000000  FFFFFFF7     796
 $$$@R8   00000000  FFFFFFF6     809
 $$$@R9   00000000  FFFFFFF5     822
 $$$RADWA 0000000C  FFFFFFE4   14149
 $$$RALWA 00000135  FFFFFFE9    6312
 $$$RCFWA 00000593  FFFFFFE1   17694
 $$$RCP   00001000  FFFFFFEC    2454
 $$$RCV   00000FB0  FFFFFFEE    1179
 $$$RDEV  0000000C  FFFFFFEB    4668
 $$$RLNFWA
          00000003  FFFFFFE2   15169
 $$$RNSCNCB
          000000B0  FFFFFFED    2375
 $$$RPFWA 000008D0  FFFFFFE3   14597
 $$$RSDWA 00000320  FFFFFFE5   13524
 $$$RSLWA 00000334  FFFFFFE6   11887
 $$$RSORTWA
          00000040  FFFFFFE8   10058
 $$$RSTWA 00000040  FFFFFFE7   10105
 $$$RTTYPE
          0000010C  FFFFFFEA    6199
 HIBAL    00000000  FFFFFFFF     691

1TEXT     (TEXT2025) (12:57) (15MAR04) Using Map                                                                            Page   97
-                                                                                            HLASM R4.0  2004/03/15 12.57
   Stmt  -----Location----- Action ----------------Using----------------- Reg Max    Last  Label and Using Text
           Count      Id           Type          Value    Range     Id        Disp   Stmt
0   922  00000000  FFFFFFFF USING  ORDINARY    00000000 00001000 FFFFFFEF  15 000    9264  @R15,15
    926  00000000  FFFFFFFF USING  ORDINARY    00000000 00001000 FFFFFFF0  14 002    2170  @R14,14
    930  00000000  FFFFFFFF USING  ORDINARY    00000000 00001000 FFFFFFF1  13 000   11004  @R13,13
    934  00000000  FFFFFFFF USING  ORDINARY    00000000 00001000 FFFFFFF2  12 000          @R12,12
    938  00000000  FFFFFFFF USING  ORDINARY    00000000 00001000 FFFFFFF3  11 000          @R11,11
    942  00000000  FFFFFFFF USING  ORDINARY    00000000 00001000 FFFFFFF4  10 000          @R10,10
    946  00000000  FFFFFFFF USING  ORDINARY    00000000 00001000 FFFFFFF5   9 000          @R9,9
    950  00000000  FFFFFFFF USING  ORDINARY    00000000 00001000 FFFFFFF6   8 000          @R8,8
    954  00000000  FFFFFFFF USING  ORDINARY    00000000 00001000 FFFFFFF7   7 000          @R7,7
    958  00000000  FFFFFFFF USING  ORDINARY    00000000 00001000 FFFFFFF8   6 000          @R6,6
    962  00000000  FFFFFFFF USING  ORDINARY    00000000 00001000 FFFFFFF9   5 000    9387  @R5,5
    966  00000000  FFFFFFFF USING  ORDINARY    00000000 00001000 FFFFFFFA   4 000   17313  @R4,4
    970  00000000  FFFFFFFF USING  ORDINARY    00000000 00001000 FFFFFFFB   3 001   16670  @R3,3
    974  00000000  FFFFFFFF USING  ORDINARY    00000000 00001000 FFFFFFFC   2 001   18367  @R2,2
    978  00000000  FFFFFFFF USING  ORDINARY    00000000 00001000 FFFFFFFD   1 002   17585  @R1,1
    982  00000000  FFFFFFFF USING  ORDINARY    00000000 00001000 FFFFFFFE   0 000          @R0,0
    983  00000000  FFFFFFFF DROP                                            0              0
   1163  00000017  00000001 USING  ORDINARY    00000000 00001000 FFFFFFEC  11 E18   18818  CP,CPR
   1172  00000017  00000001 USING  ORDINARY    00000000 00001000 FFFFFFEE  12 8A8   18829  CV,CVR
   6431  00000032  00000001 USING  ORDINARY    00000032 00001000 00000001   7 362    6569  $$$43B,7
   6445  00000032  00000001 USING  ORDINARY    FFFFFFD8 00001000 FFFFFFE9   8 028    6449  ALWA-(4+36),R8
   6458  0000003A  00000001 USING  ORDINARY    00000000 00001000 FFFFFFE9   6 036    7141  ALWA,R6
   6577  000000E2  00000001 USING  ORDINARY    00000000 00001000 FFFFFFF6   8 000          @R8,8
   6582  000000E2  00000001 USING  ORDINARY    00000000 00001000 FFFFFFF7   7 000          @R7,7
   6709  000001D2  00000001 USING  ORDINARY    000001D2 00001000 00000001   7 000          $$$49B,7
   6729  000001D8  00000001 USING  ORDINARY    00000000 00001000 FFFFFFF7   7 000          @R7,7
   6775  00000200  00000001 USING  ORDINARY    00000200 00001000 00000001   7 000          $$$52B,7
   6795  00000206  00000001 USING  ORDINARY    00000000 00001000 FFFFFFF7   7 000          @R7,7
   6841  0000022E  00000001 USING  ORDINARY    0000022E 00001000 00000001   7 000          $$$55B,7
   6862  00000238  00000001 USING  ORDINARY    00000000 00001000 FFFFFFF7   7 000          @R7,7
   6911  00000260  00000001 USING  ORDINARY    00000260 00001000 00000001   7 140    7226  $$$58B,7
   7251  00000338  00000001 USING  ORDINARY    00000000 00001000 FFFFFFF7   7 000          @R7,7
   7271  00000346  00000001 USING  ORDINARY    00000000 00001000 FFFFFFF8   6 000          @R6,6
   7341  000003C0  00000001 USING  ORDINARY    000003C0 00001000 00000001   7 BB0    7687  $$$77B,7
   7355  000003C0  00000001 USING  ORDINARY    FFFFFFD8 00001000 FFFFFFE9   8 028    7359  ALWA-(4+36),R8
   7367  000003C4  00000001 USING  ORDINARY    00000000 00001000 FFFFFFE9   6 035    9946  ALWA,R6
   7710  0000053A  00000001 USING  ORDINARY    00000000 00001000 FFFFFFF6   8 000          @R8,8
   7715  0000053A  00000001 USING  ORDINARY    00000000 00001000 FFFFFFF7   7 000          @R7,7
   7965  0000076A  00000001 USING  ORDINARY    0000076A 00001000 00000001   7 000          $$$91B,7
   7985  00000770  00000001 USING  ORDINARY    00000000 00001000 FFFFFFF7   7 000          @R7,7
   8030  00000798  00000001 USING  ORDINARY    00000798 00001000 00000001   7 02C    8086  $$$94B,7
   8111  000007C6  00000001 USING  ORDINARY    00000000 00001000 FFFFFFF7   7 000          @R7,7
   8157  000007EE  00000001 USING  ORDINARY    000007EE 00001000 00000001   7 000          $$$100B,7
   8182  000007F4  00000001 USING  ORDINARY    00000000 00001000 FFFFFFF7   7 000          @R7,7
   8228  0000081C  00000001 USING  ORDINARY    0000081C 00001000 00000001   7 000          $$$103B,7
   8253  00000822  00000001 USING  ORDINARY    00000000 00001000 FFFFFFF7   7 000          @R7,7
   8299  0000084A  00000001 USING  ORDINARY    0000084A 00001000 00000001   7 000          $$$106B,7
   8324  00000850  00000001 USING  ORDINARY    00000000 00001000 FFFFFFF7   7 000          @R7,7
   8370  00000878  00000001 USING  ORDINARY    00000878 00001000 00000001   7 000          $$$109B,7
   8395  0000087E  00000001 USING  ORDINARY    00000000 00001000 FFFFFFF7   7 000          @R7,7
   8440  000008A6  00000001 USING  ORDINARY    000008A6 00001000 00000001   7 6CC    8514  $$$112B,7
   8530  00000928  00000001 USING  ORDINARY    00000000 00001000 FFFFFFF7   7 000          @R7,7
   8576  00000950  00000001 USING  ORDINARY    00000950 00001000 00000001   7 000          $$$116B,7
1TEXT     (TEXT2025) (12:57) (15MAR04) Using Map                                                                            Page   98
   8594  0000095A  00000001 USING  ORDINARY    00000000 00001000 FFFFFFF7   7 000          @R7,7
   8640  00000982  00000001 USING  ORDINARY    00000982 00001000 00000001   7 5F2    8670  $$$119B,7
   8685  0000099E  00000001 USING  ORDINARY    00000000 00001000 FFFFFFF7   7 000          @R7,7
   8731  000009C6  00000001 USING  ORDINARY    000009C6 00001000 00000001   7 000          $$$123B,7
   8747  000009CA  00000001 USING  ORDINARY    00000000 00001000 FFFFFFF7   7 000          @R7,7
   8801  000009F2  00000001 USING  ORDINARY    000009F2 00001000 00000001   7 5E4    9574  $$$126B,7
   9595  00000DA6  00000001 USING  ORDINARY    00000000 00001000 FFFFFFF7   7 000          @R7,7
   9650  00000DCE  00000001 USING  ORDINARY    00000DCE 00001000 00000001   7 1D0    9829  $$$155B,7
   9838  00000E6C  00000001 USING  ORDINARY    00000000 00001000 FFFFFFF7   7 000          @R7,7
   9884  00000E94  00000001 USING  ORDINARY    00000E94 00001000 00000001   7 0D8    9962  $$$164B,7
   9981  00000EE6  00000001 USING  ORDINARY    00000000 00001000 FFFFFFF7   7 000          @R7,7
  10002  00000EF4  00000001 USING  ORDINARY    00000000 00001000 FFFFFFF8   6 000          @R6,6
  10156  00000FF6  00000001 USING  ORDINARY    00000FF6 00001000 00000001   7 8D4   10691  $$$170B,7
  10170  00000FF6  00000001 USING  ORDINARY    FFFFFFD8 00001000 FFFFFFE7   8 000          STWA-(4+36),R8
  10181  00000FF6  00000001 USING  ORDINARY    00000000 00001000 FFFFFFF6   8 000          @R8,8
  10184  00000FF6  00000001 USING  ORDINARY    00000000 00001000 FFFFFFE7   8 000   10195  STWA,WAR
  10193  00000FF6  00000001 USING  ORDINARY    00000000 00001000 FFFFFFE8   6 03C   11814  SORTWA,R6
  10706  00001258  00000001 USING  ORDINARY    00000000 00001000 FFFFFFF6   8 000          @R8,8
  10711  00001258  00000001 USING  ORDINARY    00000000 00001000 FFFFFFF7   7 000          @R7,7
  10929  0000143A  00000001 USING  ORDINARY    0000143A 00001000 00000001   7 444   11003  $$$188B,7
  11019  000014BC  00000001 USING  ORDINARY    00000000 00001000 FFFFFFF7   7 000          @R7,7
  11064  000014E4  00000001 USING  ORDINARY    000014E4 00001000 00000001   7 39C   11091  $$$192B,7
  11105  00001504  00000001 USING  ORDINARY    00000000 00001000 FFFFFFF7   7 000          @R7,7
  11151  0000152C  00000001 USING  ORDINARY    0000152C 00001000 00000001   7 000          $$$196B,7
  11167  00001530  00000001 USING  ORDINARY    00000000 00001000 FFFFFFF7   7 000          @R7,7
  11216  00001558  00000001 USING  ORDINARY    00001558 00001000 00000001   7 000          $$$199B,7
  11241  0000155E  00000001 USING  ORDINARY    00000000 00001000 FFFFFFF7   7 000          @R7,7
  11290  00001586  00000001 USING  ORDINARY    00001586 00001000 00000001   7 000          $$$202B,7
  11315  0000158C  00000001 USING  ORDINARY    00000000 00001000 FFFFFFF7   7 000          @R7,7
  11363  000015B4  00000001 USING  ORDINARY    000015B4 00001000 00000001   7 04C   11372  $$$205B,7
  11384  000015BE  00000001 USING  ORDINARY    00000000 00001000 FFFFFFF7   7 000          @R7,7
  11432  000015E6  00000001 USING  ORDINARY    000015E6 00001000 00000001   7 11A   11441  $$$208B,7
  11453  000015F0  00000001 USING  ORDINARY    00000000 00001000 FFFFFFF7   7 000          @R7,7
  11584  000018F4  00000001 USING  ORDINARY    000018F4 00001000 00000001   7 8B0   11608  $$$211B,7
  11619  00001926  00000001 USING  ORDINARY    00000000 00001000 FFFFFFF7   7 000          @R7,7
  11676  0000194E  00000001 USING  ORDINARY    0000194E 00001000 00000001   7 862   11823  $$$214B,7
  11837  000019FE  00000001 USING  ORDINARY    00000000 00001000 FFFFFFF7   7 000          @R7,7
  11856  00001A0C  00000001 USING  ORDINARY    00000000 00001000 FFFFFFF8   6 000          @R6,6
  11960  00001A26  00000001 USING  ORDINARY    00001A26 00001000 00000001   7 7BA   12447  $$$221B,7
  11974  00001A26  00000001 USING  ORDINARY    FFFFFFD8 00001000 FFFFFFE6   8 328   12451  SLWA-(4+36),R8
  12461  00001BEC  00000001 USING  ORDINARY    00000000 00001000 FFFFFFF6   8 000          @R8,8
  12466  00001BEC  00000001 USING  ORDINARY    00000000 00001000 FFFFFFF7   7 000          @R7,7
  12531  00001C14  00000001 USING  ORDINARY    00001C14 00001000 00000001   7 602   13349  $$$244B,7
  12545  00001C14  00000001 USING  ORDINARY    FFFFFFD8 00001000 FFFFFFE6   8 328   13353  SLWA-(4+36),R8
  13363  00001E88  00000001 USING  ORDINARY    00000000 00001000 FFFFFFF6   8 000          @R8,8
  13368  00001E88  00000001 USING  ORDINARY    00000000 00001000 FFFFFFF7   7 000          @R7,7
  13424  00001EB0  00000001 USING  ORDINARY    00001EB0 00001000 00000001   7 32C   13470  $$$286B,7
  13479  00001EE6  00000001 USING  ORDINARY    00000000 00001000 FFFFFFF7   7 000          @R7,7
  13584  00001F0E  00000001 USING  ORDINARY    00001F0E 00001000 00000001   7 320   14088  $$$291B,7
  13598  00001F0E  00000001 USING  ORDINARY    FFFFFFD8 00001000 FFFFFFE5   8 328   14093  SDWA-(4+36),R8
  14105  0000207C  00000001 USING  ORDINARY    00000000 00001000 FFFFFFF6   8 000          @R8,8
  14110  0000207C  00000001 USING  ORDINARY    00000000 00001000 FFFFFFF7   7 000          @R7,7
  14201  000020A4  00000001 USING  ORDINARY    000020A4 00001000 00000001   7 15C   14490  $$$320B,7
  14215  000020A4  00000001 USING  ORDINARY    FFFFFFD8 00001000 FFFFFFE4   8 030   14470  ADWA-(4+36),R8
  14524  0000218E  00000001 USING  ORDINARY    00000000 00001000 FFFFFFF6   8 000          @R8,8
  14529  0000218E  00000001 USING  ORDINARY    00000000 00001000 FFFFFFF7   7 000          @R7,7
  14670  0000224E  00000001 USING  ORDINARY    0000224E 00001000 00000001   7 C80   14961  $$$334B,7
  14684  0000224E  00000001 USING  ORDINARY    FFFFFFD8 00001000 FFFFFFE3   8 028   14688  PFWA-(4+36),R8
  14696  00002252  00000001 USING  ORDINARY    00000000 00001000 FFFFFFE3   6 800   14953  PFWA,R6
1TEXT     (TEXT2025) (12:57) (15MAR04) Using Map                                                                            Page   99
  14976  0000238A  00000001 USING  ORDINARY    00000000 00001000 FFFFFFF6   8 000          @R8,8
  14981  0000238A  00000001 USING  ORDINARY    00000000 00001000 FFFFFFF7   7 000          @R7,7
  15000  00002398  00000001 USING  ORDINARY    00000000 00001000 FFFFFFF8   6 000          @R6,6
  15067  00002402  00000001 USING  ORDINARY    00002402 00001000 00000001   7 A24   15122  $$$346B,7
  15083  00002402  00000001 USING  ORDINARY    00000000 00001000 FFFFFFE3   6 000   15129  PFWA,R6
  15136  00002422  00000001 USING  ORDINARY    00000000 00001000 FFFFFFF7   7 000          @R7,7
  15155  00002430  00000001 USING  ORDINARY    00000000 00001000 FFFFFFF8   6 000          @R6,6
  15311  0000244A  00000001 USING  ORDINARY    0000244A 00001000 00000001   7 ACA   17073  $$$357B,7
  15325  0000244A  00000001 USING  ORDINARY    FFFFFFD8 00001000 FFFFFFE2   8 02A   17024  LNFWA-(4+36),R8
  15343  00002450  00000001 USING  ORDINARY    00000000 00001000 FFFFFFE3   6 7D0   18794  PFWA,R6
  17099  00002874  00000001 USING  ORDINARY    00000000 00001000 FFFFFFF6   8 000          @R8,8
  17104  00002874  00000001 USING  ORDINARY    00000000 00001000 FFFFFFF7   7 000          @R7,7
  17161  0000289C  00000001 USING  ORDINARY    0000289C 00001000 00000001   7 67E   17306  $$$443B,7
  17328  00002910  00000001 USING  ORDINARY    00000000 00001000 FFFFFFF7   7 000          @R7,7
  17390  00002938  00000001 USING  ORDINARY    00002938 00001000 00000001   7 4C8   17644  $$$455B,7
  17655  000029C4  00000001 USING  ORDINARY    00000000 00001000 FFFFFFF7   7 000          @R7,7
  17750  000029EC  00000001 USING  ORDINARY    000029EC 00001000 00000001   7 51C   18404  $$$474B,7
  17764  000029EC  00000001 USING  ORDINARY    FFFFFFD8 00001000 FFFFFFE1   8 4D0   18410  CFWA-(4+36),R8
  18417  00002C00  00000001 USING  ORDINARY    00000000 00001000 FFFFFFF6   8 000          @R8,8
  18422  00002C00  00000001 USING  ORDINARY    00000000 00001000 FFFFFFF7   7 000          @R7,7
  18474  00002C28  00000001 USING  ORDINARY    00002C28 00001000 00000001   7 24E   18509  $$$511B,7
  18530  00002C5C  00000001 USING  ORDINARY    00000000 00001000 FFFFFFF7   7 000          @R7,7
  18575  00002C84  00000001 USING  ORDINARY    00002C84 00001000 00000001   7 220   18605  $$$514B,7
  18626  00002CA4  00000001 USING  ORDINARY    00000000 00001000 FFFFFFF7   7 000          @R7,7
  18671  00002CCC  00000001 USING  ORDINARY    00002CCC 00001000 00000001   7 154   18701  $$$517B,7
  18722  00002CEC  00000001 USING  ORDINARY    00000000 00001000 FFFFFFF7   7 000          @R7,7
  18767  00002D14  00000001 USING  ORDINARY    00002D14 00001000 00000001   7 1FB   18827  $$$520B,7
  18836  00002D46  00000001 USING  ORDINARY    00000000 00001000 FFFFFFF7   7 000          @R7,7

1         (TEXT2025) (12:57) (15MAR04) General Purpose Register Cross Reference                                             Page  100
- Register  References (M=modified, B=branch, U=USING, D=DROP, N=index)                      HLASM R4.0  2004/03/15 12.57
0    0(0)      982U   983D  2099   2167M  2167   2168M  6413   6485M  6485   6494   6495   6516M  6517   6534M  6557M
              6558M  6559   6565M  6590M  6692   6718   6722M  6722   6737M  6758   6784   6788M  6788   6803M  6824
              6850M  6851   6855M  6855   6870M  6894   6929M  6929   6956M  6969M  6969   6976   6996M  6998M  7013M
              7013   7028   7076   7077M  7089   7095M  7103   7118M  7119M  7163   7188M  7188   7214M  7259M  7323
              7404M  7404   7413   7414   7453M  7459M  7460   7478M  7501M  7545M  7546M  7547   7549M  7615M  7723M
              7948   7974   7993M  8013   8119M  8140   8190M  8211   8261M  8282   8332M  8353   8403M  8423   8449
              8462M  8462   8471   8472   8538M  8559   8585M  8585   8586   8602M  8623   8660   8671M  8677   8693M
              8714   8755M  8784   8813   8814M  8815   8820M  8840M  8842M  8842   8869M  8919M  8919   8929M  9000M
              9214   9220M  9220   9221M  9222M  9222   9245M  9246M  9246   9268M  9301M  9430M  9435M  9493M  9493
              9521M  9522   9523   9524   9528   9603M  9633   9686M  9710M  9756M  9780M  9780   9816M  9825M  9831
              9846M  9867   9946M  9951   9968   9989M 10138  10247M 10273M 10363M 10363  10372  10373  10401  10408M
             10435M 10458M 10471M 10472M 10508M 10516M 10540  10559M 10588M 10598  10627M 10652M 10658  10662M 10662
             10680M 10719M 10912  10938  10951M 10951  10960  10961  11027M 11047  11073  11074M 11075M 11092M 11113M
             11134  11175M 11199  11249M 11273  11323M 11346  11392M 11415  11461M 11567  11605M 11612  11627M 11659
             11789  11791  11793  11824M 11845M 11942  12034  12041  12054  12142M 12149M 12474M 12513  12561  12568
             12581  12653M 12657M 12892M 13050M 13376M 13407  13434M 13436  13438  13442  13444  13487M 13566  13613
             13704M 13708M 13890M 14048M 14095M 14097  14118M 14183  14221  14238M 14314M 14390M 14455M 14517  14537M
             14652  14757M 14785M 14799M 14799  14808  14809  14879M 14879  14906  14933  14989M 15050  15098  15112
             15123M 15129  15144M 15293  15349M 15356M 15408M 15408  15529  15582  15635  15688  15753  15818  15905
             15970  16057  16122  16187  16252  16317  16371M 16465  16507  16578M 16856M 16916  16955  16956M 16958M
             16970  17043M 17053M 17053  17059  17112M 17144  17177  17336M 17373  17400  17645M 17646M 17648  17663M
             17732  17868M 17868  17873  17876M 18408M 18409  18430M 18457  18488M 18506M 18538M 18558  18589M 18602M
             18634M 18654  18685M 18698M 18730M 18750  18781M 18794M 18828M 18844M
     1(1)      978U  2099   2162M  2163M  2169M  6413   6481M  6494N  6495N  6497N  6533M  6566M  6590M  6692   6737M
              6758   6803M  6824   6870M  6894   6955M  6975   7141M  7163   7214M  7259M  7323   7400M  7413N  7414N
              7416N  7435M  7436   7452M  7459N  7461M  7477M  7484   7500M  7507   7508   7550M  7608M  7723M  7948
              7993M  8013   8094M  8095M  8095N  8119M  8140   8190M  8211   8261M  8282   8332M  8353   8403M  8423
              8458M  8471N  8472N  8474N  8538M  8559   8602M  8623   8670M  8693M  8714   8755M  8784   8813   8815M
              8840M  8865   8872   8921   8932   9001   9214   9215M  9221M  9224M  9244M  9262   9270M  9287M  9298M
              9298   9301M  9427M  9527   9603M  9633   9660M  9685M  9705M  9751M  9815M  9826M  9846M  9867   9922M
              9939M  9941M  9989M 10138  10246M 10272M 10359M 10372N 10373N 10375N 10400  10401M 10402  10405M 10406
             10409M 10425M 10434M 10459M 10473M 10494  10501  10509M 10517M 10541  10560M 10589M 10626M 10627N 10628M
             10628N 10645M 10658M 10679M 10719M 10912  10947M 10960N 10961N 10963N 11027M 11047  11091M 11113M 11134
             11175M 11199  11249M 11273  11323M 11346  11372M 11373  11392M 11415  11441M 11442  11461M 11567  11594M
             11595M 11600M 11601M 11602M 11603M 11604M 11605  11612  11627M 11659  11790  11814M 11823M 11845M 11942
             12013  12033  12040  12041M 12042  12141M 12142N 12143M 12143N 12147M 12149M 12161M 12162  12212M 12213
             12327M 12328M 12329  12371M 12372M 12373  12451M 12453  12474M 12513  12560  12567  12568M 12569  12654M
             12656  12657M 12893M 13050M 13063M 13064  13114M 13115  13229M 13230M 13231  13273M 13274M 13275  13353M
             13355  13376M 13407  13437  13440  13441  13487M 13566  13614  13705M 13707  13708M 13891M 14048M 14118M
             14183  14222  14278M 14354M 14430M 14476M 14496M 14517  14537M 14652  14756M 14784M 14795M 14808N 14809N
             14811N 14847M 14989M 15050  15122M 15144M 15293  15348M 15357M 16370M 16579M 16637M 16646M 16646  16684M
             16686M 16687  16688M 16689M 16690  16857M 16957M 16958  17007M 17010M 17011  17012M 17013M 17014  17020M
             17021  17024M 17025  17044M 17059M 17061M 17112M 17144  17176  17336M 17373  17399  17414  17436M 17453
             17475M 17493  17515M 17532  17554M 17572  17594M 17615  17646  17648  17663M 17732  17840M 17875M 18430M
             18457  18487M 18538M 18558  18588M 18634M 18654  18684M 18730M 18750  18780M 18827M 18844M
     2(2)      974U  2099   6413   6590M  6692   6737M  6758   6803M  6824   6870M  6894   6975M  7003M  7076M  7118
              7126   7259M  7323   7723M  7948   7993M  8013   8119M  8140   8190M  8211   8261M  8282   8332M  8353
              8403M  8423   8538M  8559   8602M  8623   8693M  8714   8755M  8784   8812M  8813   8840M  8841   8865M
              8868M  8872M  8873   8909   8911   8921M  8928M  8932M  8999M  9001M  9129   9214   9262M  9267M  9301M
              9362   9366M  9368   9374   9376   9377M  9380   9395   9396   9397   9427   9430   9432M  9435   9440M
              9440   9491M  9491   9603M  9633   9846M  9867   9950M  9950   9967   9989M 10138  10460M 10474M 10518M
             10561M 10719M 10912  11027M 11047  11113M 11134  11175M 11199  11249M 11273  11323M 11346  11392M 11415
             11461M 11567  11596M 11597M 11600  11627M 11659  11784M 11785  11792M 11794M 11795  11796M 11796N 11808
             11845M 11942  12035  12066M 12067N 12108  12141N 12161N 12163M 12163N 12174  12233  12234M 12234  12236M
             12259M 12260  12307  12308M 12308  12310M 12374M 12375  12474M 12513  12562  12655M 12657M 12661M 12662N
1         (TEXT2025) (12:57) (15MAR04) General Purpose Register Cross Reference                                             Page  101
             12703  12739N 13063N 13065M 13065N 13076  13135  13136M 13136  13138M 13161M 13162  13209  13210M 13210
             13212M 13276M 13277  13376M 13407  13435  13443  13487M 13566  13706M 13708M 13712M 13713N 13716  13737N
             14077M 14077N 14079N 14092M 14092N 14093M 14094M 14095  14118M 14183  14223  14229M 14229  14232M 14236M
             14236  14237M 14305M 14305  14308M 14312M 14312  14313M 14381M 14381  14384M 14388M 14388  14389M 14537M
             14652  14715M 14716  14835M 14836M 14837  14848M 14989M 15050  15144M 15293  15362M 16660M 16661M 17015M
             17016M 17017M 17018M 17019M 17021N 17022M 17023M 17025N 17112M 17144  17176M 17178  17193  17218M 17240M
             17270  17278M 17299M 17336M 17373  17399M 17400M 17414  17453  17493  17532  17572  17601M 17615  17636M
             17644M 17645  17663M 17732  17772M 17773  17790M 17796M 17802M 17804M 17806M 17841M 17882M 17887M 17916M
             17918M 17920M 17928M 17956  17980M 18007  18016M 18024M 18056M 18083  18092M 18100M 18118M 18138  18145M
             18153M 18155  18183  18191M 18221  18232M 18234  18262  18270M 18300  18311M 18313  18341  18349M 18379
             18430M 18457  18501M 18502M 18503M 18504M 18505M 18506N 18538M 18558  18634M 18654  18730M 18750  18844M
     3(3)      970U  2099   6413   6590M  6692   6737M  6758   6803M  6824   6870M  6894   6976M  7004M  7026M  7028M
              7029M  7038   7056M  7056   7057M  7058M  7061   7077   7103M  7113M  7113   7119   7124M  7124N  7259M
              7323   7571M  7723M  7948   7993M  8013   8119M  8140   8190M  8211   8261M  8282   8332M  8353   8403M
              8423   8538M  8559   8602M  8623   8693M  8714   8755M  8784   8811M  9110M  9208M  9211M  9212M  9221
              9245   9300M  9306M  9346   9350M  9350   9426M  9473M  9473   9563   9603M  9633   9846M  9867   9951M
              9989M 10138  10475M 10590M 10719M 10912  11027M 11047  11113M 11134  11175M 11199  11249M 11273  11323M
             11346  11392M 11415  11461M 11567  11598M 11601  11627M 11659  11793M 11794M 11845M 11942  11991M 11991
             12036  12067M 12068  12174  12232  12235M 12236M 12260M 12261M 12262  12298  12304M 12306  12309M 12310M
             12375M 12376M 12377  12474M 12513  12563  12600M 12600  12623M 12644  12649  12656M 12657M 12662M 12663
             13076  13134  13137M 13138M 13162M 13163M 13164  13200  13206M 13208  13211M 13212M 13277M 13278M 13279
             13376M 13407  13487M 13566  13615  13651M 13651  13674M 13695  13700  13707M 13708M 14118M 14183  14230M
             14231M 14232M 14237M 14238  14247M 14261  14306M 14307M 14308M 14313M 14314  14323M 14382M 14383M 14384M
             14389M 14390  14399M 14413  14454M 14455  14456M 14458M 14470  14537M 14652  14852M 14852  14989M 15050
             15144M 15293  16662M 17112M 17144  17177M 17178M 17193  17270  17300M 17304M 17306  17336M 17373  17663M
             17732  17791M 17792  17795  17796M 17797M 17798  17803M 17804  17819M 17819  17845M 17845  17883M 17886
             17887M 17888M 17889M 17890  17902  17917M 17918  17929M 17956  18007  18083  18138  18144M 18145  18146
             18154M 18155M 18156M 18183  18221  18233M 18234M 18235M 18262  18300  18312M 18313M 18314M 18341  18379
             18430M 18457  18538M 18558  18634M 18654  18730M 18750  18844M
     4(4)      966U  2099   6413   6590M  6692   6737M  6758   6803M  6824   6870M  6894   7027M  7029   7038M  7048M
              7048   7058   7145M  7145   7207M  7236M  7236   7259M  7323   7571M  7572M  7573M  7574M  7574   7723M
              7948   7993M  8013   8119M  8140   8190M  8211   8261M  8282   8332M  8353   8403M  8423   8538M  8559
              8602M  8623   8693M  8714   8755M  8784   8811M  9097   9101M  9120M  9120   9131   9142   9206M  9215
              9247N  9305M  9305   9308M  9309M  9310M  9310   9334M  9335   9343M  9362   9376M  9397M  9398M  9406M
              9458M  9459M  9460M  9460   9472M  9472   9528M  9536M  9536   9563   9603M  9633   9710   9756   9816
              9846M  9867   9989M 10138  10476M 10591M 10605M 10608  10620  10626N 10637M 10637N 10719M 10912  11027M
             11047  11113M 11134  11175M 11199  11249M 11273  11323M 11346  11392M 11415  11461M 11567  11599M 11602
             11627M 11659  11709M 11710  11711  11717M 11718  11719M 11720  11783M 11785N 11786M 11786N 11787  11788M
             11789N 11792N 11845M 11942  12037  12068M 12069N 12144N 12182  12183M 12183  12185M 12212N 12214M 12214N
             12225  12259  12262M 12263  12377M 12378  12474M 12513  12564  12606M 12632M 12632  12639M 12644M 12650
             12663M 12664N 12896N 13084  13085M 13085  13087M 13114N 13116M 13116N 13127  13161  13164M 13165  13279M
             13280  13376M 13407  13435M 13439M 13440M 13457  13464N 13465M 13465N 13487M 13566  13616  13657M 13683M
             13683  13690M 13695M 13701  13713M 13728  13894N 14061M 14061N 14078N 14080M 14080N 14118M 14183  14242M
             14242  14246M 14272M 14272  14318M 14318  14322M 14348M 14348  14394M 14394  14398M 14424M 14424  14537M
             14652  14989M 15050  15144M 15293  16698M 16739M 16760M 16803M 16855M 16955M 16956  17112M 17144  17179M
             17221M 17243M 17295M 17296  17301M 17336M 17373  17663M 17732  17794M 17796M 17884M 17885M 17887M 18430M
             18457  18538M 18558  18634M 18654  18730M 18750  18844M
     5(5)      962U  2099   6413   6590M  6692   6737M  6758   6803M  6824   6870M  6894   7259M  7323   7570M  7723M
              7948   7993M  8013   8119M  8140   8190M  8211   8261M  8282   8332M  8353   8403M  8423   8538M  8559
              8602M  8623   8693M  8714   8755M  8784   8811M  8951   9020   9100M  9108   9183   9205M  9247   9251M
              9258M  9307M  9315M  9333M  9372M  9373M  9396M  9424   9457M  9527M  9563   9603M  9633   9705   9751
              9815   9846M  9867   9895M  9896M  9896   9899M  9900   9901M  9989M 10138  10477M 10592M 10606M 10607M
             10608M 10620  10719M 10912  11027M 11047  11113M 11134  11175M 11199  11249M 11273  11323M 11346  11392M
             11415  11461M 11567  11627M 11659  11712M 11713M 11714M 11714N 11715M 11716M 11717  11719  11845M 11942
             12002M 12002  12038  12069M 12181  12184M 12185M 12225  12263M 12264M 12276  12282M 12378M 12379M 12391
             12398M 12474M 12513  12565  12664M 13083  13086M 13087M 13127  13165M 13166M 13178  13184M 13280M 13281M
             13293  13300M 13376M 13407  13436M 13439M 13441M 13442M 13457  13487M 13566  13617  13714M 13715M 13716M
             13728  14118M 14183  14243M 14245M 14246M 14247  14319M 14321M 14322M 14323  14337  14395M 14397M 14398M
             14399  14537M 14652  14989M 15050  15144M 15293  16740M 16751M 16751  16762M 16783M 16794M 16794  16805M
1         (TEXT2025) (12:57) (15MAR04) General Purpose Register Cross Reference                                             Page  102
             16916M 16920M 16929M 16929  16936  17112M 17144  17294M 17295  17336M 17373  17663M 17732  17795M 17796M
             17886M 17887M 18430M 18457  18538M 18558  18634M 18654  18730M 18750  18844M
     6(6)      958U  2099   6413   6449M  6450   6458U  6590M  6692   6737M  6758   6803M  6824   6870M  6894   6920M
              7259M  7271U  7323   7359M  7367U  7369   7723M  7948   7993M  8013   8119M  8140   8190M  8211   8261M
              8282   8332M  8353   8403M  8423   8538M  8559   8602M  8623   8693M  8714   8755M  8784   8810M  9603M
              9633   9846M  9867   9989M 10002U 10138  10193U 10195M 10719M 10912  11027M 11047  11113M 11134  11175M
             11199  11249M 11273  11323M 11346  11392M 11415  11461M 11567  11627M 11659  11687M 11845M 11856U 11942
             12070M 12162N 12164M 12164N 12180  12192M 12213N 12215M 12215N 12231  12243M 12305  12311M 12422M 12439M
             12474M 12513  12665M 13064N 13066M 13066N 13082  13094M 13115N 13117M 13117N 13133  13145M 13207  13213M
             13324M 13341M 13376M 13407  13463M 13464  13487M 13566  14078M 14079  14118M 14183  14537M 14652  14688M
             14696U 14989M 15000U 15050  15083U 15144M 15155U 15293  15343U 17112M 17144  17336M 17373  17663M 17732
             18430M 18457  18538M 18558  18634M 18654  18730M 18750  18844M
     7(7)      954U  2092M  2092   2093B  2099   2105B  6413   6419M  6431U  6582U  6590M  6692   6697M  6709U  6729U
              6737M  6758   6763M  6775U  6795U  6803M  6824   6829M  6841U  6862U  6870M  6894   6899M  6911U  7251U
              7259M  7323   7329M  7341U  7715U  7723M  7948   7953M  7965U  7985U  7993M  8013   8018M  8030U  8111U
              8119M  8140   8145M  8157U  8182U  8190M  8211   8216M  8228U  8253U  8261M  8282   8287M  8299U  8324U
              8332M  8353   8358M  8370U  8395U  8403M  8423   8428M  8440U  8530U  8538M  8559   8564M  8576U  8594U
              8602M  8623   8628M  8640U  8685U  8693M  8714   8719M  8731U  8747U  8755M  8784   8789M  8801U  9595U
              9603M  9633   9638M  9650U  9838U  9846M  9867   9872M  9884U  9981U  9989M 10138  10144M 10156U 10711U
             10719M 10912  10917M 10929U 11019U 11027M 11047  11052M 11064U 11105U 11113M 11134  11139M 11151U 11167U
             11175M 11199  11204M 11216U 11241U 11249M 11273  11278M 11290U 11315U 11323M 11346  11351M 11363U 11384U
             11392M 11415  11420M 11432U 11453U 11461M 11567  11572M 11584U 11619U 11627M 11659  11664M 11676U 11837U
             11845M 11942  11948M 11960U 12466U 12474M 12513  12519M 12531U 13368U 13376M 13407  13412M 13424U 13479U
             13487M 13566  13572M 13584U 14110U 14118M 14183  14189M 14201U 14529U 14537M 14652  14658M 14670U 14981U
             14989M 15050  15055M 15067U 15136U 15144M 15293  15299M 15311U 17104U 17112M 17144  17149M 17161U 17328U
             17336M 17373  17378M 17390U 17655U 17663M 17732  17738M 17750U 18422U 18430M 18457  18462M 18474U 18530U
             18538M 18558  18563M 18575U 18626U 18634M 18654  18659M 18671U 18722U 18730M 18750  18755M 18767U 18836U
             18844M
     8(8)      950U  2099   6413   6415M  6445U  6577U  6586   6590M  6692   6693M  6733   6737M  6758   6759M  6799
              6803M  6824   6825M  6866   6870M  6894   6895M  7255   7259M  7323   7325M  7355U  7710U  7719   7723M
              7948   7949M  7989   7993M  8013   8014M  8115   8119M  8140   8141M  8186   8190M  8211   8212M  8257
              8261M  8282   8283M  8328   8332M  8353   8354M  8399   8403M  8423   8424M  8534   8538M  8559   8560M
              8598   8602M  8623   8624M  8689   8693M  8714   8715M  8751   8755M  8784   8785M  9599   9603M  9633
              9634M  9842   9846M  9867   9868M  9985   9989M 10138  10140M 10170U 10181U 10184U 10706U 10715  10719M
             10912  10913M 11023  11027M 11047  11048M 11109  11113M 11134  11135M 11171  11175M 11199  11200M 11245
             11249M 11273  11274M 11319  11323M 11346  11347M 11388  11392M 11415  11416M 11457  11461M 11567  11568M
             11612  11623  11627M 11659  11660M 11841  11845M 11942  11944M 11974U 12013N 12453N 12461U 12470  12474M
             12513  12515M 12545U 13355N 13363U 13372  13376M 13407  13408M 13483  13487M 13566  13568M 13598U 14097N
             14105U 14114  14118M 14183  14185M 14215U 14517  14524U 14533  14537M 14652  14654M 14684U 14976U 14985
             14989M 15050  15051M 15140  15144M 15293  15295M 15325U 17099U 17108  17112M 17144  17145M 17332  17336M
             17373  17374M 17648  17659  17663M 17732  17734M 17764U 18417U 18426  18430M 18457  18458M 18534  18538M
             18558  18559M 18630  18634M 18654  18655M 18726  18730M 18750  18751M 18840  18844M
     9(9)      946U  2099
    10(A)      942U  2099
    11(B)      938U  1163U  2099
    12(C)      934U  1172U  2099
    13(D)      930U  2099   6410   6413   6415   6416M  6416   6489   6490   6491   6493M  6493   6506M  6507   6508
              6509   6586M  6590   6592   6689   6692   6693   6694M  6694   6733M  6737   6739   6755   6758   6759
              6760M  6760   6799M  6803   6805   6821   6824   6825   6826M  6826   6866M  6870   6872   6891   6894
              6895   6896M  6896   7163   7164M  7164   7213M  7214   7255M  7259   7261   7320   7323   7325   7326M
              7326   7408   7409   7410   7412M  7412   7425M  7426   7427   7428   7719M  7723   7725   7945   7948
              7949   7950M  7950   7989M  7993   7995   8010   8013   8014   8015M  8015   8115M  8119   8121   8137
              8140   8141   8142M  8142   8186M  8190   8192   8208   8211   8212   8213M  8213   8257M  8261   8263
              8279   8282   8283   8284M  8284   8328M  8332   8334   8350   8353   8354   8355M  8355   8399M  8403
              8405   8420   8423   8424   8425M  8425   8453   8455M  8455   8466   8467   8468   8470M  8470   8483M
              8484   8485   8486   8514M  8534M  8538   8540   8556   8559   8560   8561M  8561   8598M  8602   8604
              8620   8623   8624   8625M  8625   8689M  8693   8695   8711   8714   8715   8716M  8716   8751M  8755
              8757   8781   8784   8785   8786M  8786   9599M  9603   9605   9630   9633   9634   9635M  9635   9842M
              9846   9848   9864   9867   9868   9869M  9869   9985M  9989   9991  10135  10138  10140  10141M 10141
1         (TEXT2025) (12:57) (15MAR04) General Purpose Register Cross Reference                                             Page  103
             10367  10368  10369  10371M 10371  10384M 10385  10386  10387  10715M 10719  10721  10909  10912  10913
             10914M 10914  10942  10944M 10944  10955  10956  10957  10959M 10959  10972M 10973  10974  10975  11003M
             11023M 11027  11029  11044  11047  11048  11049M 11049  11109M 11113  11115  11131  11134  11135  11136M
             11136  11171M 11175  11177  11196  11199  11200  11201M 11201  11245M 11249  11251  11270  11273  11274
             11275M 11275  11319M 11323  11325  11343  11346  11347  11348M 11348  11388M 11392  11394  11412  11415
             11416  11417M 11417  11457M 11461  11463  11564  11567  11568  11569M 11569  11623M 11627  11629  11656
             11659  11660  11661M 11661  11841M 11845  11847  11939  11942  11944  11945M 11945  12470M 12474  12476
             12510  12513  12515  12516M 12516  13372M 13376  13378  13404  13407  13408  13409M 13409  13483M 13487
             13489  13563  13566  13568  13569M 13569  14114M 14118  14120  14180  14183  14185  14186M 14186  14533M
             14537  14539  14649  14652  14654  14655M 14655  14803  14804  14805  14807M 14807  14820M 14821  14822
             14823  14985M 14989  14991  15047  15050  15051  15052M 15052  15140M 15144  15146  15290  15293  15295
             15296M 15296  17108M 17112  17114  17141  17144  17145  17146M 17146  17332M 17336  17338  17370  17373
             17374  17375M 17375  17659M 17663  17665  17729  17732  17734  17735M 17735  18426M 18430  18432  18454
             18457  18458  18459M 18459  18534M 18538  18540  18555  18558  18559  18560M 18560  18630M 18634  18636
             18651  18654  18655  18656M 18656  18726M 18730  18732  18747  18750  18751  18752M 18752  18840M 18844
             18846
    14(E)      926U  2099   2100M  2114   2115M  2116B  2118M  2119B  2139M  2140B  2144M  2145B  2147M  2148B  2150M
              2151B  2153M  2154B  2156M  2157M  2157B  2163   6410   6462M  6463M  6463B  6488M  6489   6490   6491
              6496M  6497   6500M  6501M  6501B  6504M  6507   6508   6509   6514M  6515M  6515B  6569M  6570M  6570B
              6592M  6595B  6689   6739M  6742B  6755   6805M  6808B  6821   6872M  6875B  6891   7167M  7168M  7168B
              7199M  7200M  7200B  7222M  7223M  7223B  7226M  7227M  7227B  7261M  7264B  7320   7372M  7373M  7373B
              7407M  7408   7409   7410   7415M  7416   7419M  7420M  7420B  7423M  7426   7427   7428   7433M  7434M
              7434B  7553M  7554M  7554B  7577M  7578M  7578B  7618M  7619M  7619B  7623M  7624M  7624B  7687M  7688M
              7688B  7725M  7728B  7945   7995M  7998B  8010   8121M  8124B  8137   8192M  8195B  8208   8263M  8266B
              8279   8334M  8337B  8350   8405M  8408B  8420   8452M  8453   8465M  8466   8467   8468   8473M  8474
              8477M  8478M  8478B  8481M  8484   8485   8486   8491M  8492M  8492B  8512M  8515   8540M  8543B  8556
              8604M  8607B  8620   8695M  8698B  8711   8757M  8760B  8781   8818M  8819M  8819B  9026M  9096M  9097
              9099   9100   9101   9133M  9134M  9135M  9136   9140M  9141M  9142   9313M  9314M  9314B  9344M  9345
              9346M  9360M  9360   9367M  9368M  9369   9371   9463M  9464M  9464B  9515M  9516M  9516B  9531M  9532M
              9532B  9605M  9608B  9630   9663M  9664M  9664B  9697M  9698M  9698B  9759M  9760M  9760B  9791M  9792M
              9792B  9819M  9820M  9820B  9823M  9824M  9824B  9829M  9830M  9830B  9848M  9851B  9864   9908M  9909M
              9909B  9954M  9955M  9955B  9991M  9994B 10135  10212M 10213M 10213B 10225M 10226M 10226B 10366M 10367
             10368  10369  10374M 10375  10378M 10379M 10379B 10382M 10385  10386  10387  10392M 10393M 10393B 10398M
             10399M 10399B 10412M 10413M 10413B 10428M 10429M 10429B 10463M 10464M 10464B 10481M 10482M 10482B 10512M
             10513M 10513B 10521M 10522M 10522B 10564M 10565M 10565B 10596M 10597M 10597B 10632M 10633M 10633B 10648M
             10649M 10649B 10673M 10674M 10674B 10691M 10692M 10692B 10721M 10724B 10909  10941M 10942  10954M 10955
             10956  10957  10962M 10963  10966M 10967M 10967B 10970M 10973  10974  10975  10980M 10981M 10981B 11001M
             11004  11029M 11032B 11044  11115M 11118B 11131  11177M 11180B 11196  11251M 11254B 11270  11325M 11328B
             11343  11394M 11397B 11412  11463M 11466B 11564  11608M 11609M 11609B 11629M 11632B 11656  11790M 11794M
             11817M 11818M 11818B 11847M 11850B 11939  12010M 12011M 12011B 12144M 12145N 12146M 12146N 12149M 12180M
             12185M 12192  12231M 12236M 12243  12305M 12310M 12311  12325M 12326M 12326B 12476M 12479B 12510  12739M
             12740N 12741M 12741N 12766M 12857  12881M 12892  12896M 12897N 12898M 12898N 12923M 13014  13038M 13050M
             13082M 13087M 13094  13133M 13138M 13145  13207M 13212M 13213  13227M 13228M 13228B 13378M 13381B 13404
             13437M 13439M 13443M 13444M 13445M 13463N 13466M 13489M 13492B 13563  13737M 13738N 13739M 13739N 13764M
             13855  13879M 13890  13894M 13895N 13896M 13896N 13921M 14012  14036M 14048M 14120M 14123B 14180  14539M
             14542B 14649  14802M 14803  14804  14805  14810M 14811  14814M 14815M 14815B 14818M 14821  14822  14823
             14828M 14829M 14829B 14855M 14856M 14856B 14900M 14901M 14901B 14927M 14928M 14928B 14931M 14932M 14932B
             14961M 14962M 14962B 14991M 14994B 15047  15146M 15149B 15290  15352M 15353M 15353B 15360M 15361M 15361B
             15832M 15833M 15833B 15984M 15985M 15985B 16582M 16583M 16583B 16587M 16588M 16588B 16654M 16655M 16655B
             16678M 16679M 16679B 16890M 16891M 16891B 16910M 16911M 16911B 16978M 16979M 16979B 16987M 16988M 16988B
             17114M 17117B 17141  17174M 17175M 17175B 17338M 17341B 17370  17665M 17668B 17729  17848M 17849M 17849B
             17879M 17880M 17880B 17910M 17911M 17911B 18432M 18435B 18454  18499M 18500M 18500B 18509M 18510M 18510B
             18540M 18543B 18555  18600M 18601M 18601B 18605M 18606M 18606B 18636M 18639B 18651  18696M 18697M 18697B
             18701M 18702M 18702B 18732M 18735B 18747  18792M 18793M 18793B 18797M 18798M 18798B 18821M 18822M 18822B
             18846M 18849B
    15(F)      922U  2099   6510M  6510   6594M  6594   6741M  6741   6807M  6807   6874M  6874   7196M  7219M  7263M
              7263   7429M  7429   7703M  7703   7727M  7727   7978M  7978   7997M  7997   8104M  8104   8123M  8123
              8175M  8175   8194M  8194   8246M  8246   8265M  8265   8317M  8317   8336M  8336   8388M  8388   8407M
              8407   8487M  8487   8504   8523M  8523   8542M  8542   8587M  8606M  8606   8678M  8697M  8697   8740M
1         (TEXT2025) (12:57) (15MAR04) General Purpose Register Cross Reference                                             Page  104
              8759M  8759   8992M  8993M  8994   9020M  9022M  9129M  9130M  9131   9141   9183M  9185M  9247M  9249M
              9256M  9266M  9316M  9318   9333   9343   9369   9371M  9373   9374M  9375   9399M  9400M  9401   9402M
              9403   9405M  9406   9407M  9408M  9408   9409   9481M  9482   9483   9607M  9607   9694M  9788M  9813M
              9814   9850M  9850   9904M  9905M  9993M  9993  10388M 10388  10478M 10593M 10629M 10634M 10635M 10636
             10670M 10688M 10699M 10699  10723M 10723  10976M 10976  10993  11012M 11012  11031M 11031  11098M 11117M
             11117  11160M 11179M 11179  11234M 11234  11253M 11253  11308M 11308  11327M 11327  11377M 11377  11396M
             11396  11446M 11446  11465M 11465  11631M 11631  11727M 11730M 11731  11734M 11746  11752  11768  11774
             11791M 11794M 11849M 11849  12039  12145M 12148M 12149M 12181M 12182M 12184  12185M 12232M 12233M 12235
             12236M 12306M 12307M 12309  12310M 12478M 12478  12566  12740M 12753  12767M 12776M 12776  12786M 12786
             12802  12809M 12840M 12840  12848M 12850  12866  12882M 12882N 12891M 12893  12897M 12910  12924M 12933M
             12933  12943M 12943  12959  12966M 12997M 12997  13005M 13007  13023  13039M 13039N 13048M 13050M 13083M
             13084M 13086  13087M 13134M 13135M 13137  13138M 13208M 13209M 13211  13212M 13380M 13380  13438M 13439M
             13491M 13491  13618  13738M 13751  13765M 13774M 13774  13784M 13784  13800  13807M 13838M 13838  13846M
             13848  13864  13880M 13880N 13889M 13891  13895M 13908  13922M 13931M 13931  13941M 13941  13957  13964M
             13995M 13995  14003M 14005  14021  14037M 14037N 14046M 14048M 14122M 14122  14282M 14282  14358M 14358
             14434M 14434  14480M 14480  14497M 14541M 14541  14824M 14824  14868M 14868  14919M 14919  14993M 14993
             15148M 15148  15842M 15842  15994M 15994  16584M 16984M 17116M 17116  17340M 17340  17667M 17667  17858M
             17858  18398M 18398  18403M 18434M 18434  18496M 18542M 18542  18597M 18638M 18638  18693M 18734M 18734
             18789M 18818M 18848M 18848

1TEXT     (TEXT2025) (12:57) (15MAR04) Diagnostic Cross Reference and Assembler Summary                                     Page  105
-                                                                                            HLASM R4.0  2004/03/15 12.57
0     No Statements Flagged in this Assembly
 HIGH LEVEL ASSEMBLER, 5696-234, RELEASE 4.0, PTF P72483
0SYSTEM: OS/390 02.10.00            JOBNAME: WYL#TEXT    STEPNAME: ASM        PROCSTEP: (NOPROC)
0Datasets Allocated for this Assembly
  Con DDname   Dataset Name                                 Volume  Member
   P1 SYSIN    WYL.GS.WYL.WYLBUR.SOURCE                     SYSB05  TEXT
   L1 SYSLIB   WYL.GS.WYL.WYLBUR.MACLIB                     SYSB05
   L2          WYL.GG.SYS.MACLIB                            SYSB05
   L3          SYS3.IS.MACLIB                               SYSB05
   L4          SYS3.MACLIB                                  SYSB02
   L5          SYS1.MACLIB                                  MVSBR9
   L6          SYS1.MODGEN                                  MVSBR9
      SYSPRINT SYS04075.T125717.RA000.WYL#TEXT.PRINT.H01    SCR101
      SYSTERM  GG$SLP.WYL#TEXT.JOB03570.D0000101.?

    3668K allocated to Buffer Pool,         2453K would be required for this to be an In-Storage Assembly
    2388 Primary Input Records Read         6921 Library Records Read                  0 Work File Reads
       0 ASMAOPT Records Read               9128 Primary Print Records Written         0 Work File Writes
       0 Punch Records Written                 0 ADATA Records Written
0Assembly Start Time: 12.57.19 Stop Time: 12.57.27 Processor Time: 00.00.03.2755
 Return Code 000
