1                        J E S 2  J O B  L O G  --  S Y S T E M  S Y S B  --  N O D E  R L G
0
 12.46.22 JOB03529 ---- MONDAY,    15 MAR 2004 ----
 12.46.22 JOB03529  ICH70001I GG$SLP   LAST ACCESS AT 12:45:44 ON MONDAY, MARCH 15, 2004
 12.46.22 JOB03529  $HASP373 WYL#GLOB STARTED - INIT 6    - CLASS B - SYS SYSB
 12.46.22 JOB03529  ***  HCMD      STEP $$QUIET
 12.46.22 JOB03529  PUR * Q OUT MUL
 12.46.22 JOB03529  JOB 5393 WYL#GLOB WILL BE PURGED
 12.46.23 JOB03529  WYL#GLOB.$$QUIET .         RC=Zero TapeIO=0000 DiskIO=0000 CPU=  .01s Elapsed=82.26s
 12.46.31 JOB03529  WYL#GLOB.ASM     .         RC=Zero TapeIO=0000 DiskIO=0638 CPU= 2.42s Elapsed=83.54s
 12.46.33 JOB03529  WYL#GLOB.EDIT    .         RC=Zero TapeIO=0000 DiskIO=0194 CPU=  .86s Elapsed=91.83s
 12.46.33 JOB03529  WYL#GLOB Ended.  Name=Assemble GLOB                  Total CPU= 3.29s Elapsed=82.26s
 12.46.33 JOB03529
 12.46.33 JOB03529  Execution charges   Priority=Standard   Block=Day
 12.46.33 JOB03529
 12.46.33 JOB03529  CPU Usage          60.37          $37.42   Standard Processing Unit Equivalent
 12.46.33 JOB03529                                   =======
 12.46.33 JOB03529                                    $37.42   Total Job execution charge
 12.46.33 JOB03529
 12.46.33 JOB03529  See back separator page for print charges
 12.46.33 JOB03529
 12.46.33 JOB03529  $HASP395 WYL#GLOB ENDED  ASM=0, EDIT=0
1        1 //WYL#GLOB JOB SLP$GG,'Assemble GLOB',TIME=4,REGION=4M                  JOB03529
           //*
           /*JOBPARM LINES=99,COPIES=1
           /*JOBPARM FORMS=3HOL,PFORMAT=LAND,CHARS=BD13,DUPLEX=YES,FLASH=BAR4
           //*
           /*JOBPARM NOTIFY=GG.SLP,HOLD=OUTPUT                                     WYLGEN
         2 //$$QUIET EXEC PGM=HCMDX,PARM='PUR * Q OUT MUL'
           //*
         3 //ASM    EXEC PGM=ASMA90,REGION=8M,
           //            PARM=('NORENT,TERM,FLAG(NOCONT),US(MAP,WARN(10)),NODECK',
           //            'LC(32767),XREF(SHORT),ESD,DXREF,NOOBJECT')
         4 //STEPLIB DD DSN=SYS3.IS.TESTASM,DISP=SHR
         5 //SYSLIB   DD  DSN=WYL.GS.WYL.WYLBUR.MACLIB,DISP=SHR
         6 //         DD  DSN=WYL.GG.SYS.MACLIB,DISP=SHR
         7 //         DD  DSN=SYS3.IS.MACLIB,DISP=SHR
         8 //         DD  DSN=SYS3.MACLIB,DISP=SHR
         9 //         DD  DSN=SYS1.MACLIB,DISP=SHR
        10 //         DD  DSN=SYS1.MODGEN,DISP=SHR
        11 //SYSUT1   DD DSN=&&SYSUT1,UNIT=VIO,DISP=(,DELETE),
           //            SPACE=(4088,(500,250),,CONTIG,ROUND)
        12 //SYSTERM  DD SYSOUT=T
        13 //SYSPRINT DD DSN=&&PRINT,UNIT=SYSDA,DISP=(,PASS),
           //            SPACE=(6650,(250,250),RLSE),
           //            DCB=(BLKSIZE=6650,LRECL=133,RECFM=FB)
        14 //SYSUDUMP DD SYSOUT=A
        15 //SYSIN    DD  DSN=WYL.GS.WYL.WYLBUR.SOURCE(GLOB),DISP=SHR
           //*
        16 //EDIT    EXEC PGM=ASMEDIT,TIME=2,REGION=4000K,
           //             PARM='STMT'
        17 //STEPLIB  DD  DSN=WYL.GG.SYS.LINKLIB,DISP=SHR
        18 //ASMOUT   DD  DSN=&PRINT,DISP=(OLD,DELETE)
        19 //SYSPRINT DD  SYSOUT=A
1 STMT NO. MESSAGE
 -
        11 IGD01010I STORCLAS= TEMP STORGROUP =
        11 IGD01010I STORGRP=VIO ASSIGNED.
        13 IGD01010I STORCLAS= TEMP STORGROUP =
        13 IGD01010I STORGRP=VIO ASSIGNED.
 ICH70001I GG$SLP   LAST ACCESS AT 12:45:44 ON MONDAY, MARCH 15, 2004
 IEF142I WYL#GLOB $$QUIET - STEP WAS EXECUTED - COND CODE 0000
 *********************************************************************************
 *   WYL#GLOB/$$QUIET /                    Return Code      Zero                 *
 *   Region used      260K (16K user + 244K system)                              *
 *   Extended region  9692K (4K user + 9688K system)                             *
 *                                                                               *
 *   Paging              In      Out                                             *
 *   Private <-> Aux      0        0       CPU time (TCB)   00:00:00.01          *
 *   Private <-> Exp      0        0       CPU time (SRB)   00:00:00.00          *
 *   VIO                  0        0       Elapsed time    917:41:30.70          *
 *   Common               0      ---                                             *
 *                                                                               *
 *                                                                               *
 *   CPU Usage          0.18         $0.11  Standard Processing Unit Equivalent  *
 *                                   $0.11  Total Step execution charge          *
 *                                                                               *
 *    I/O count  DDname   Type Addr           I/O count  DDname   Type Addr      *
 *                         *** No I/O for this step ***                          *
 *********************************************************************************
 IEF373I STEP/$$QUIET /START 2004075.1246
 IEF374I STEP/$$QUIET /STOP  2004075.1246 CPU    0MIN 00.01SEC SRB    0MIN 00.00SEC VIRT    16K SYS   244K EXT       4K SYS    9688K
 IEF236I ALLOC. FOR WYL#GLOB ASM
 IEF237I 04DC ALLOCATED TO STEPLIB
 IEF237I 04DC ALLOCATED TO SYSLIB
 IEF237I 04DC ALLOCATED TO
 IEF237I 04DC ALLOCATED TO
 IEF237I 0402 ALLOCATED TO
 IEF237I 04A0 ALLOCATED TO
 IEF237I 04A0 ALLOCATED TO
 IGD101I SMS ALLOCATED TO DDNAME (SYSUT1  )
         DSN (SYS04075.T124622.RA000.WYL#GLOB.SYSUT1.H01  )
         STORCLAS (TEMP) MGMTCLAS (        ) DATACLAS (        )
         VOL SER NOS= VIO
 IEF237I JES2 ALLOCATED TO SYSTERM
 IGD101I SMS ALLOCATED TO DDNAME (SYSPRINT)
         DSN (SYS04075.T124622.RA000.WYL#GLOB.PRINT.H01   )
         STORCLAS (TEMP) MGMTCLAS (        ) DATACLAS (        )
         VOL SER NOS= SCR101
 IEF237I JES2 ALLOCATED TO SYSUDUMP
 IEF237I 04DC ALLOCATED TO SYSIN
 IEF142I WYL#GLOB ASM - STEP WAS EXECUTED - COND CODE 0000
 IEF285I   SYS3.IS.TESTASM                              KEPT
 IEF285I   VOL SER NOS= SYSB05.
 IEF285I   WYL.GS.WYL.WYLBUR.MACLIB                     KEPT
 IEF285I   VOL SER NOS= SYSB05.
 IEF285I   WYL.GG.SYS.MACLIB                            KEPT
 IEF285I   VOL SER NOS= SYSB05.
 IEF285I   SYS3.IS.MACLIB                               KEPT
 IEF285I   VOL SER NOS= SYSB05.
 IEF285I   SYS3.MACLIB                                  KEPT
 IEF285I   VOL SER NOS= SYSB02.
 IEF285I   SYS1.MACLIB                                  KEPT
 IEF285I   VOL SER NOS= MVSBR9.
 IEF285I   SYS1.MODGEN                                  KEPT
 IEF285I   VOL SER NOS= MVSBR9.
 IGD105I SYS04075.T124622.RA000.WYL#GLOB.SYSUT1.H01   DELETED,   DDNAME=SYSUT1
 IEF285I   GG$SLP.WYL#GLOB.JOB03529.D0000101.?          SYSOUT
 IGD106I SYS04075.T124622.RA000.WYL#GLOB.PRINT.H01    PASSED,    DDNAME=SYSPRINT
 IEF285I   GG$SLP.WYL#GLOB.JOB03529.D0000102.?          SYSOUT
 IEF285I   WYL.GS.WYL.WYLBUR.SOURCE                     KEPT
 IEF285I   VOL SER NOS= SYSB05.
 *********************************************************************************
 *   WYL#GLOB/ASM     /                    Return Code      Zero                 *
 *   Region used      4376K (4096K user + 280K system)                           *
 *   Extended region  10292K (412K user + 9880K system)                          *
 *                                                                               *
 *   Paging              In      Out                                             *
 *   Private <-> Aux      0        0       CPU time (TCB)   00:00:02.37          *
 *   Private <-> Exp      0        0       CPU time (SRB)   00:00:00.05          *
 *   VIO                  0        0       Elapsed time    917:41:29.42          *
 *   Common               0      ---                                             *
 *                                                                               *
 *                                                                               *
 *   CPU Usage         44.43        $27.54  Standard Processing Unit Equivalent  *
 *                                  $27.54  Total Step execution charge          *
 *                                                                               *
 *    I/O count  DDname   Type Addr           I/O count  DDname   Type Addr      *
 *           85  STEPLIB  Disk 04DC                 204  SYSLIB   Disk 04DC      *
 *            0  SYSLIB   Disk 04DC                   0  SYSLIB   Disk 04DC      *
 *            7  SYSLIB   Disk 0402                 148  SYSLIB   Disk 04A0      *
 *            0  SYSLIB   Disk 04A0                   0  SYSUT1   VIO  ----      *
 *            0  SYSTERM       ----                 191  SYSPRINT Disk 04E3      *
 *            0  SYSUDUMP      ----                   3  SYSIN    Disk 04DC      *
 *********************************************************************************
 IEF373I STEP/ASM     /START 2004075.1246
 IEF374I STEP/ASM     /STOP  2004075.1246 CPU    0MIN 02.37SEC SRB    0MIN 00.05SEC VIRT  4096K SYS   280K EXT     412K SYS    9880K
 IEF236I ALLOC. FOR WYL#GLOB EDIT
 IEF237I 0402 ALLOCATED TO STEPLIB
 IGD103I SMS ALLOCATED TO DDNAME ASMOUT
 IEF237I JES2 ALLOCATED TO SYSPRINT
 IEF142I WYL#GLOB EDIT - STEP WAS EXECUTED - COND CODE 0000
 IEF285I   WYL.GG.SYS.LINKLIB                           KEPT
 IEF285I   VOL SER NOS= SYSB02.
 IGD105I SYS04075.T124622.RA000.WYL#GLOB.PRINT.H01    DELETED,   DDNAME=ASMOUT
 IEF285I   GG$SLP.WYL#GLOB.JOB03529.D0000103.?          SYSOUT
 *********************************************************************************
 *   WYL#GLOB/EDIT    /                    Return Code      Zero                 *
 *   Region used      380K (116K user + 264K system)                             *
 *   Extended region  9812K (4K user + 9808K system)                             *
 *                                                                               *
 *   Paging              In      Out                                             *
 *   Private <-> Aux      0        0       CPU time (TCB)   00:00:00.84          *
 *   Private <-> Exp      0        0       CPU time (SRB)   00:00:00.02          *
 *   VIO                  0        0       Elapsed time    917:41:21.13          *
 *   Common               0      ---                                             *
 *                                                                               *
 *                                                                               *
 *   CPU Usage         15.75         $9.76  Standard Processing Unit Equivalent  *
 *                                   $9.76  Total Step execution charge          *
 *                                                                               *
 *    I/O count  DDname   Type Addr           I/O count  DDname   Type Addr      *
 *            2  STEPLIB  Disk 0402                 192  ASMOUT   Disk 04E3      *
 *            0  SYSPRINT      ----                                              *
 *********************************************************************************
 IEF373I STEP/EDIT    /START 2004075.1246
 IEF374I STEP/EDIT    /STOP  2004075.1246 CPU    0MIN 00.84SEC SRB    0MIN 00.02SEC VIRT   116K SYS   264K EXT       4K SYS    9808K
 *********************************************************************************
 *                                                                               *
 *                      S t a n f o r d   U n i v e r s i t y                    *
 *                                                                               *
 *                              *** Job Summary ***                              *
 *                                                                               *
 *   System Id      SYSB                   Input time     12:39:19  Mar 15, 2004 *
 *                                                                               *
 *   System Release SP6.1.0                Start time     12:46:22  Mar 15, 2004 *
 *                                                                               *
 *   Job name       WYL#GLOB               Stop  time     00:00:00  Mar 15, 2004 *
 *                                                                               *
 *   Account        SLP$GG                 Elapsed time  917:41:30.70            *
 *                                                                               *
 *   User Name      Assemble GLOB          CPU time       00:00:03.22            *
 *                                                                               *
 *   Job class      B                      SRB Time       00:00:00.07            *
 *                                                                               *
 *********************************************************************************
 IEF375I  JOB/WYL#GLOB/START 2004075.1246
 IEF376I  JOB/WYL#GLOB/STOP  2004075.1246 CPU    0MIN 03.22SEC SRB    0MIN 00.07SEC
1Assembler Done GLOB No Statements Flagged
1         High Level Assembler Option Summary                   (PTF P72483 )                                               Page    1
-                                                                                            HLASM R4.0  2004/03/15 12.46
0  No Overriding ASMAOPT Parameters
   Overriding Parameters-  NORENT,TERM,FLAG(NOCONT),US(MAP,WARN(10)),NODECK,LC(32767),XREF(SHORT),ESD,DXREF,NOOBJECT
   No Process Statements


   Options for this Assembly
0  NOADATA
     ALIGN
   NOASA
     BATCH
     CODEPAGE(047C)
   NOCOMPAT
   NODBCS
 3 NODECK
 3   DXREF
 3   ESD
   NOEXIT
 3   FLAG(0,ALIGN,NOCONT,NOIMPLEN,NOPAGE0,PUSH,RECORD,NOSUBSTR,USING0)
   NOFOLD
   NOGOFF
   NOINFO
     LANGUAGE(EN)
   NOLIBMAC
 3   LINECOUNT(32767)
     LIST(121)
     MXREF(SOURCE)
 3 NOOBJECT
     OPTABLE(UNI,NOLIST)
   NOPCONTROL
   NOPESTOP
   NOPROFILE
   NORA2
 3 NORENT
     RLD
     RXREF
     SIZE(MAX)
     SYSPARM()
 3   TERM(WIDE)
   NOTEST
     THREAD
   NOTRANSLATE
 3   USING(NOLIMIT,MAP,WARN(10))
 3   XREF(SHORT)

   No Overriding DD Names

1GLOB     External Symbol Dictionary                                                                                        Page    2
-Symbol   Type   Id     Address  Length     LD ID  Flags Alias-of                            HLASM R4.0  2004/03/15 12.46
0WYLGLOB   SD 00000001 00000000 00022B50             00
 GLOB5139  LD          00000000           00000001
 CVPFXRTN  LD          00022B52           00000002
 CV        LD          00022B58           00000002
 CVNEXT    LD          00023336           00000002
 CVPFX     SD 00000002 00022B50 00000FB8             00
 MEMSTART  LD          00022B50           00000002
 ECBLIST   ER 00000003
 DEBUGSG   ER 00000004
 WTOSG     ER 00000005
 TRC       ER 00000006
 CVPFXRTN  ER 00000007
 COMMAND   ER 00000008
 COMMSEG   ER 00000009
 MILERR    ER 0000000A
 INVALID   ER 0000000B
 ABSCENT   ER 0000000C
 NOACTION  ER 0000000D
 EPARTBL   ER 0000000E
 NPARTBL   ER 0000000F
 UPPTBL    ER 00000010
 LOWTBL    ER 00000011
 ASCTBL    ER 00000012
 EBCTBL    ER 00000013
 BLTBL     ER 00000014
 NBLTBL    ER 00000015
 EBCTBL7   ER 00000016
 DOTTBL    ER 00000017
 CHECKIOB  ER 00000018
 KIOPOST   ER 00000019
 RUNRSG    LD          00000018           00000001
 SETRSG    LD          00000054           00000001
 PAGRSG    LD          00000090           00000001
 IOWRSG    LD          000000CC           00000001
 KWRRSG    LD          00000108           00000001
 SUBRSG    LD          00000144           00000001
 HCMRSG    LD          00000180           00000001
 KEYRSG    LD          000001BC           00000001
 UPPTBL    LD          00021AA0           00000001
 LOWTBL    LD          00021BA0           00000001
 MIXTBL    LD          00021CA0           00000001
 ASCTBL    LD          00021DA0           00000001
 EBCTBL    LD          00021EA0           00000001
 EBCTBL7   LD          00021FA0           00000001
 EPARTBL   LD          000222A0           00000001
 NPARTBL   LD          000220A0           00000001
 YPARTBL   LD          000221A0           00000001
 DOTTBL    LD          000223A0           00000001
 BLTBL     LD          000224A0           00000001
 NBLTBL    LD          000225A0           00000001
 GTUPPTBL  LD          000007BC           00000001
 GTLOWTBL  LD          000007E8           00000001
 GTMIXTBL  LD          00000814           00000001
 GTASCTBL  LD          00000840           00000001
 GTEBCTBL  LD          0000086C           00000001
1GLOB     External Symbol Dictionary                                                                                        Page    3
 GTEBCTB7  LD          00000898           00000001
 GTBLTBL   LD          000008C4           00000001
 GTNBLTBL  LD          000008F0           00000001
 GTDOTTBL  LD          0000091C           00000001
 ECBLIST   LD          000226A0           00000001

1GLOB     WYLBUR's Global Control Blocks                                                                                    Page    4
0Loc    Object Code    Addr1 Addr2  Stmt Lv Lineno    Source Statement                    (Asmedit 3.3)  HLASM R4.0  2004/03/15 12.46
+___    ______ ____    _____ _____  ____ __ ______    ______ _________
0                                      2              *******************************************************************
                                       3              *                                                                 *
                                       4              *     WYLBUR/370 - Release VI - Class I - Stanford Proprietary    *
                                       5              *                                                                 *
                                       6              *******************************************************************
                                       7                       HIBAL
                                     988
                                     989                       GBLC  &INSTALN            (See SYSDEFN macro)
                                     990                       GBLA  &JESRUN,&JESCMD,&WDIOP,&WPGBUF,&WPG(0)
                                     991
                                     992                       SYSDEFN
                                     993
 000000                00000 22B50   994              WYLGLOB  CSECT
                                     998                       REGS  FSR,,,,,,,BR,(WAR,LSR),PAR,PBR,CPR,CVR,SPR,RAR
                                    1134
                                    1135              GLOB     IDENT 5139                20:22:13 05/19/95  (MPD)
                                    1138             +
                                    1139    01-IDENT +         ENTRY GLOB5139
                                    1140             +
 000000 16C7D3D6C2F5F1F3            1141    01-IDENT +GLOB5139 DC    AL1(22),C'GLOB5139,15MAR04,12:46'
                                    1142             +*
                                    1144              *
                                    1145                       MACRO
                                    1146                       PAGEFILE
                                    1147                       GBLA  &PFCBCNT
                                    1148                       LCLA  &I
                                    1149              &X       SETA  1
                                    1150              .LOOP    AIF   (&X GT N'&SYSLIST).EXIT
                                    1151              &I       SETA  &I+1
                                    1152              PFCB&PFCBCNT DC 0F'0',(L'PFCB)X'00'
                                    1153                       PFORG PFCBNO
                                    1154                       DC    A(&PFCBCNT)
                                    1155                       AIF   (&I LT &SYSLIST(&X)).NOFL
                                    1156                       PFORG PFCBFL
                                    1157                       DC    AL1(L'PFCBFGND)
                                    1158              &I       SETA  0
                                    1159              &X       SETA  &X+1
                                    1160              .NOFL    ANOP
                                    1161                       PFORG PFCBDCBA
                                    1162            C          DCB   DDNAME=PAGE&PFCBCNT,MACRF=E,DEVD=DA,DSORG=DA,
                                                                     RECFM=F,BLKSIZE=CVPIOSZ
                                    1163              &PFCBCNT SETA  &PFCBCNT+1
                                    1164                       ORG
                                    1165                       AIF   (&SYSLIST(&X) EQ 0).EXIT
                                    1166                       AGO   .LOOP
                                    1167              .EXIT    MEND
                                    1168
                                    1169                       MACRO
                                    1170                       PFORG &F
                                    1171                       GBLA  &PFCBCNT
                                    1172                       ORG   (&F)-PFCB+PFCB&PFCBCNT
                                    1173                       MEND
                                    1174
                                    1175                       MACRO
                                    1176              &L       RSC   &NUMBER=0,&POST=0
                                    1177                       GBLA  &RSCNO
1GLOB     (GLOB5139) (12:46) (15MAR04) WYLBUR's Global Control Blocks                                                       Page    5
0Loc    Object Code    Addr1 Addr2  Stmt Lv Lineno    Source Statement           (Hibal 5, Asmedit 3.3)  HLASM R4.0  2004/03/15 12.46
+___    ______ ____    _____ _____  ____ __ ______    ______ _________
0                                   1178                       LCLA  &I
                                    1179              &L       DS    0F
                                    1180              .RLOOP   AIF   (&I GE N'&SYSLIST).EXIT
                                    1181              &I       SETA  &I+1
                                    1182              &NM      SETC  '&SYSLIST(&I,1)   '(1,3)
                                    1183                       AIF   ('&SYSLIST(&I,2)' EQ '').GOTNM
                                    1184              &NM      SETC  '&SYSLIST(&I,2)'
                                    1185              .GOTNM   ENTRY &NM.RSG
                                    1186              &NM.RSG  DC    CL8'&SYSLIST(&I,1)',A(0),Y(&NUMBER),A(0)
                                    1187                       DC    A(*,*-4)            Active queue link ptrs
                                    1188                       DC    A(&NM.FRST,&NM.LAST)  free queue link ptrs
                                    1189                       DC    A(0),A(&POST),A(0)
                                    1190                       DC    A(*-(JCBQF-JCB),*-(JCBQB-JCB))  jcb queue link ptrs
                                    1191                       DC    XL(L'RSCGROUP-(*-&NM.RSG))'0'
                                    1192              &RSCNO   SETA  &RSCNO+1
                                    1193                       DS    0SL2(&RSCNO-CVR&NM,CVR&NM-&RSCNO)  id's should match
                                    1194
                                    1195                       AIF   (&NUMBER GT 0).RGEN
                                    1196              &NM.FRST EQU   &NM.RSG+(RSGQFRFW-RSCGROUP)
                                    1197              &NM.LAST EQU   &NM.RSG+(RSGQFRFW-RSCGROUP)
                                    1198                       SPACE 2
                                    1199                       AGO   .RLOOP
                                    1200              .RGEN    DATA  BEGIN
                                    1201                       DS    0D
                                    1202               &NM.RSC FORM=CODE,NUMBER=&NUMBER,ANCHOR=&NM.RSG+(RSGQFRFW-RSCGROUP)
                                    1203                       END
                                    1204                       SPACE 2
                                    1205                       AGO   .RLOOP
                                    1206              .EXIT    MEND
                                    1207
                                    1208                       MACRO
                                    1209                       IOWRSC &FORM=,&NUMBER=,&ANCHOR=  (dummy macro)
                                    1210              IOWFRST  EQU   0
                                    1211              IOWLAST  EQU   0
                                    1212                       MEND
                                    1213
                                    1214                       PUSH  OFF                 (suzan dsects needed for milrsc)
1GLOB     (GLOB5139) (12:46) (15MAR04) WYLBUR's Global Control Blocks                                                       Page    6
0Loc    Object Code    Addr1 Addr2  Stmt Lv Lineno    Source Statement           (Hibal 5, Asmedit 3.3)  HLASM R4.0  2004/03/15 12.46
+___    ______ ____    _____ _____  ____ __ ______    ______ _________
0                                   1306                       USING (CP),(CV)
 USING  CP,R11                      1314    02-00179 +       $$USING CP,CPR
 USING  CV,R12                      1323    02-00179 +       $$USING CV,CVR
                                    1325                       ENTRY CVPFXRTN,CV
                                    1326                       ENTRY CVNEXT
                                    1327
                                    1328              CVPFX    CSECT
 022B50                22B50 00FB8  1329    01-00032 +CVPFX  $$CSECT
 023B08                23B08 00FB8  1330    01-00033 +$$$D0CVPFX LOCTR
 022B50                22B50 00FB8  1331    01-00034 +CVPFX    LOCTR
                                    1332                     ¿þþþþþþþþþþþþþþþþþþþþþþþþþþþþþþþþþþþþþþþþþþþþþþþþþþþþþþþþþþþþþþþþþÜ
                                    1333                     Ÿ    The CPU time profiler in the STAT module needs to know the   Ÿ
                                    1334                     Ÿ  address of the start of WYLBUR's code and the end of WYLBUR's  Ÿ
                                    1335                     Ÿ    code.  Because of the ORDER statement in WYLBUR's link-edit  Ÿ
                                    1336                     Ÿ  the CV should be first, hence the following "MEMSTART" symbol  Ÿ
                                    1337                     Ÿ    really is the start of WYLBUR's code.                        Ÿ
                                    1338                     ¾þþþþþþþþþþþþþþþþþþþþþþþþþþþþþþþþþþþþþþþþþþþþþþþþþþþþþþþþþþþþþþþþþ»
                                    1339                       ENTRY MEMSTART
 022B50                             1340              MEMSTART DS    0D                  Start of WYLBUR code
                                    1341
 022B50 0700                        1342                       CNOP  2,8  (cvpfxrtn routine must end on a dblwrd)
                                    1343              *
                                    1344              * This gimmick lets the tracing routines restore all regs...
 022B52 980F C780            232D8  1345              CVPFXRTN LM    R0,R15,CVLNKRGS     Restore all regs
 022B56 0DCC                        1346                       BASR  CVR,CVR             Exit to caller and reset CVR
                                    1347
 022B58                             1348              CV       DS    0D
                                    1349                       COPY  CV
 022B58 C3E54040                    1350             =CVSTART  DC    CL4'CV'
                                    1351             =
                                    1352             =         GBLA  &LINESZ,&PRESSZ,&BUFRMAX,&HACKDEL  (See SYSDEFN)
                                    1353             =         GBLB  &$PCODE             (see HIBAL macro for info)
                                    1354             =         GBLC  &MAXLNO             Maximum line-number
                                    1355             =
 022B5C C7C5D5C5D9C9C340            1356             =CVINSTAL DC    CL8'GENERIC'        Instalation name
 022B64 E2E8E2E740404040            1357             =CVMACHID DC    CL8'SYSX'           Machine name
 022B6C D1C5E240                    1358             =CVJES    DC    CL4'JES'            Name of JES
                                    1359             =
 022B70 E6E8D3C2E4D94040            1360             =CVNAME   DC    CL8'WYLBUR'         Job name
 022B78 D4C9D3E3C5D54040            1361             =CVMILSSN DC    CL8'MILTEN'         MILTEN   path name
 022B80 4040404040404040            1362             =CVWYLSSN DC    CL8' '              WYLBUR   subsystem name
 022B88 D6D9E5E8D3404040            1363             =CVORVSSN DC    CL8'ORVYL'          ORVYL    subsystem name
 022B90 D6D9E5E8D3D9D3C7            1364             =CVRLGSSN DC    CL8'ORVYLRLG'       ORVYLRLG subsystem name
 022B98 FFFFFFFFFFFFFFFF            1365             =         DC    16X'FF'             Reserved
                                    1366             =
 022BA8 0000000000000000            1367             =CVWORD   DC    XL8'00'             System word
                                    1368             =
 022BB0 4040404040                  1369             =CVWYLACC DC    CL5' '              Account WYLBUR is running under
 022BB5 40404040                    1370             =CVWYLJBN DC    CL4' '              WYLBUR's job number
 022BB9 0000000000                  1371             =CVNOTIFY DC    XL5'00'             Notify account
                                    1372             =
 022BBE                             1373             =CVKEY    DS    X                   Our storage key
                                    1374             =
 022BBF 00                          1375             =CVMACH   FLAG
 CVMACH.CVFSYSA    80 ONES          1379             =         FLAG  CVFSYSA             - SYSA access is allowed
 CVMACH.CVFSYSB    40 ONES          1384             =         FLAG  CVFSYSB             - SYSB access is allowed
1GLOB     (GLOB5139) (12:46) (15MAR04) WYLBUR's Global Control Blocks                                                       Page    7
0Current Usings:  (CP,R11) (CV,R12)
0Loc    Object Code    Addr1 Addr2  Stmt Lv Lineno    Source Statement           (Hibal 5, Asmedit 3.3)  HLASM R4.0  2004/03/15 12.46
+___    ______ ____    _____ _____  ____ __ ______    ______ _________
0CVMACH.CVFSYSC    20 ONES          1389             =         FLAG  CVFSYSC             - SYSC access is allowed
 CVMACH.CVFSYSD    10 ONES          1394             =         FLAG  CVFSYSD             - SYSD access is allowed
 CVMACH.CVFSYSE    08 ONES          1399             =         FLAG  CVFSYSE             - SYSE access is allowed
 CVMACH.CVFSYSF    04 ONES          1404             =         FLAG  CVFSYSF             - SYSF access is allowed
 CVMACH.CVFSYSG    02 ONES          1409             =         FLAG  CVFSYSG             - SYSG access is allowed
                                    1414             =
 022BC0 00                          1415             =CVLOGMOD FLAG
 CVLOGMOD.CVLGPATH 80 ONES          1419             =         FLAG  CVLGPATH            Log PATH activity
                                    1424             =
 022BC1 4040404040404040            1425             =         DC    CL11' '             Reserved
 022BCC FFFFFFFFFFFFFFFF            1426             =         DC    20X'FF'             Reserved
                                    1427             =
 022BE0 00                          1428             =CVLOCK1  FLAG
 CVLOCK1.CVL1TQ    80 ONES          1432             =         FLAG  CVL1TQ              - Lock for Timer Queue
 CVLOCK1.CVL1TQJ   40 ONES          1437             =         FLAG  CVL1TQJ             - Lock for JCBS on Time Queue
 022BE1 00                          1442             =CVLOCK2  FLAG
 CVLOCK2.CVL2RSV   80 ONES          1446             =         FLAG  CVL2RSV             Reserved
 022BE2 00                          1451             =CVLOCK3  FLAG
 CVLOCK3.CVL3RSV   80 ONES          1455             =         FLAG  CVL3RSV             Reserved
 022BE3 00                          1460             =CVLOCK4  FLAG
 CVLOCK4.CVL4RSV   80 ONES          1464             =         FLAG  CVL4RSV             Reserved
                                    1469             =
 022BE4                             1470             =CVOSRA   DS    A                   OS return addr
 022BE8 0000000000000000            1471             =CVSCLCK  DC    XL8'00'             Clock at start
 022BF0                             1472             =CVPARMP  DS    A                   OS parm ptr
                                    1473             =
 022BF4 00000000                    1474             =CVPPDBQH DC    A(0)                Pending send PDB queue head
 022BF8 00022BF4                    1475             =CVPPDBQT DC    A(CVPPDBQH)         Pending send PDB queue tail
                                    1476             =
                                    1477             =CVUPMAX# EQU   25,,C'N'            Maximum number of paths per user
                                    1478             =CVPATH#  EQU   500,,C'N'           Maximum number of paths
 022BFC                             1479             =CVPATHP  DS    A                   UPATH address table ptr
                                    1480             =
                                    1481             =CVUNMAX# EQU   25,,C'N'            Maximum number of UNETs per user
                                    1482             =CVNET#   EQU   500,,C'N'           Maximum number of net connections
 022C00                             1483             =CVNETP   DS    A                   UNET address table ptr
                                    1484             =
 022C04 00000000                    1485             =CVPATHQH DC    A(0)                User path wait queue head
 022C08 00000000                    1486             =CVUNETQH DC    A(0)                User network path wait queue head
                                    1487             =
 022C0C 00000000                    1488             =CVAMYP   DC    A(0)                AMELIA UPATH ptr
 022C10 00000000                    1489             =CVTAMYP  DC    A(0)                TESTAMY UPATH ptr
                                    1490             =
 022C14 00000000                    1491             =CVSITP   DC    A(0)                Session info table ptr (in CSA)
                                    1492             =
 022C18 00000000                    1493             =CVVTERMS DC    A(0)                VLOGON terminal list pointer
 022C1C 00000000                    1494             =CVVLASTA DC    A(0)                VLOGON terminal last assigned
                                    1495             =
 022C20                             1496             =CVVTAMQ  DS    0D                  Align for Compare double and swap
 022C20 00000000                    1497             =CVVTAMQH DC    A(0)        [Order] VTAM post queue head
 022C24 00000000                    1498             =CVVTAMQT DC    A(0)        [Order] VTAM post queue tail
                                    1499             =
 022C28 00400000                    1500             =CVSLICE  DC    A(X'00400000')      Timeslice interval (2nd clck wd)
1GLOB     (GLOB5139) (12:46) (15MAR04) WYLBUR's Global Control Blocks                                                       Page    8
0Current Usings:  (CP,R11) (CV,R12)
0Loc    Object Code    Addr1 Addr2  Stmt Lv Lineno    Source Statement           (Hibal 5, Asmedit 3.3)  HLASM R4.0  2004/03/15 12.46
+___    ______ ____    _____ _____  ____ __ ______    ______ _________
0                                   1501=            =    ¿þþþþþþþþþþþþþþþþþþþþþþþþþþþþþþþþþþþþþþþþþþþþþþþþþþþþþþþþþþþþþþþþþþÜ
                                    1502=            =    Ÿ  The size of a page buffer is controlled by the constant below.  Ÿ
                                    1503=            =    Ÿ  If you change this, it's probably safest to re-assemble all of  Ÿ
                                    1504=            =    Ÿ  WYLBUR.  Any value between 8K and 32K-1 is acceptable.          Ÿ
                                    1505=            =    Ÿ                                                                  Ÿ
                                    1506=            =    Ÿ  23476 is a good size for a 3380 device (2 records per track).   Ÿ
                                    1507=            =    Ÿ  15476 is a good size for a 3380 device (3 records per track).   Ÿ
                                    1508=            =    Ÿ  27998 is a good size for a 3390 device.                         Ÿ
                                    1509=            =    Ÿ  18452 is a good size for a 3390 device.                         Ÿ
                                    1510=            =    Ÿ                                                                  Ÿ
                                    1511=            =    Ÿ  In order to optimize on memory usage the page size is now       Ÿ
                                    1512=            =    Ÿ  20K less the space needed for various PBUF control information  Ÿ
                                    1513=            =    Ÿ  (which is roughly 128 bytes).                                   Ÿ
                                    1514=            =    ¾þþþþþþþþþþþþþþþþþþþþþþþþþþþþþþþþþþþþþþþþþþþþþþþþþþþþþþþþþþþþþþþþþþ»
                                    1515             =         AIF   (&$PCODE).WXXPSZ
                                    1516             =CVPIOSZ  EQU   20480-128           Total size of I/O buffer
                                    1517             =CVPXSZ   EQU   8                   Size of page buffer prefix
                                    1518             =CVPSZ    EQU   CVPIOSZ-CVPXSZ      Size of page buffer
                                    1519             =         AGO   .ENDPSZ
                                    1520             =.ENDPSZ  ANOP
                                    1521             =*
                                    1522             =*
                                    1523             =CVPINDEX EQU   8                   Index into PCB to PCBBUFP
                                    1524             =
 022C2C 0000                        1525             =CVNUSERS DC    H'0'                No. of users logged on
 022C2E 0000                        1526             =CVRUNCUR DC    H'0'                Current number of users on RUN-Q
 022C30 000A                        1527             =CVRUNMAX DC    H'10'               Maximum allowed RUN Q depth
 022C32 FFFF                        1528             =         DC    H'-1'               Reserved
                                    1529             =
 022C34 00000000                    1530             =CVNSMF   DC    F'0'                No. of SMF records written
 022C38 00000000                    1531             =CVNASMF  DC    F'0'                No. of accounting SMF " "
                                    1532             =
 022C3C 0000                        1533             =CVNFAIL  DC    H'0'                No. of failsofts
                                    1534             =CVDFMAX# EQU   5,,C'N'             Allowed dispatcher failsofts
 022C3E 0000                        1535             =CVNDISPF DC    H'0'                No. of dispatcher failsofts
 022C40 0000                        1536             =CVNSUBF  DC    H'0'                No. of subtask failsofts
 022C42 0000
 022C44 00000000                    1537             =CVFCLCK  DC    F'0'                Clock at failsoft
 022C48 0000000000000000            1538             =CVFINFO  DC    XL64'00'            Failsoft text
                                    1539             =
 022C88 270F                        1540             =CVPPG    DC    H'9999'             Max no. of primary (drum) pages
                                    1541             =*                                  ...allowed for a single user
                                    1542=            =         ¿þþþþþþþþþþþþþþþþþþþþþþþþþþþþþþþþþþþþþþþþþþþþþþþþþþþþþþþþþþþÜ
                                    1543=            =         Ÿ  Change the following number to increase the number       Ÿ
                                    1544=            =         Ÿ    of users.  Also change the "LINES" statement in GLOB.  Ÿ
                                    1545=            =         Ÿ                                                           Ÿ
                                    1546=            =         Ÿ    Be careful not to increase the number of users beyond  Ÿ
                                    1547=            =         Ÿ    what a single track checkpoint record can hold (see    Ÿ
                                    1548=            =         Ÿ    INIT).                                                 Ÿ
                                    1549=            =         ¾þþþþþþþþþþþþþþþþþþþþþþþþþþþþþþþþþþþþþþþþþþþþþþþþþþþþþþþþþþþ»
 022C8A 0A28                        1550             =CVMAXSES DC    H'2600'             Maximum number of users
                                    1551             =
 022C8C 0064                        1552             =CVTRCENT DC    H'100'              No. of trace table entries
 022C8E 0000
1GLOB     (GLOB5139) (12:46) (15MAR04) WYLBUR's Global Control Blocks                                                       Page    9
0Current Usings:  (CP,R11) (CV,R12)
0Loc    Object Code    Addr1 Addr2  Stmt Lv Lineno    Source Statement           (Hibal 5, Asmedit 3.3)  HLASM R4.0  2004/03/15 12.46
+___    ______ ____    _____ _____  ____ __ ______    ______ _________
0022C90 00020000                    1553             =CVMBUFF  DC    A(128*1024)         Size of MILTEN receive buffer
                                    1554             =
 022C94 FFFF                        1555             =CVNIPG   DC    H'-1'               No. of page buffers to initialize
 022C96 0000                        1556             =CVNPG    DC    H'0'                Actual number of page buffers
 022C98 0000                        1557             =CVNPG16M DC    H'0'                No. of buffers below 16M line
 022C9A 0000                        1558             =CVPGMIN  DC    H'0'                Current min no. of buffers
 022C9C 0000                        1559             =CVPGMAX  DC    H'0'                Current max no. of buffers
                                    1560             =
 022C9E FFFFFFFFFFFFFFFF            1561             =         DC    4H'-1'              Reserved
                                    1562             =
 022CA6 0000                        1563             =CVPGADJ  DC    H'0'                Last auto-pilot adjustment
 022CA8 00000000                    1564             =CVPGCLK  DC    F'0'                Clock at last adjustment
                                    1565             =
 022CAC 00000000                    1566             =CVMAXPNO DC    F'0'                Maximum page number
                                    1567             =
 022CB0 0000                        1568    **ISU**  =CVBKUPCT DC    H'0'                Count of vols in backup status
                                    1569             =
                                    1570             =&MAXLNO  SETC  '99999.999'         Maximum line-number (for msgs)
 022CB2 0000
 022CB4 05F5E0FF                    1571             =CVMAXLNO DC    A(99999999)         Maximum legal line-number
 022CB8 05F5E100                    1572             =CVHILNO  DC    A(99999999+1)       One plus max line-number
                                    1573             =
 022CBC 00000000                    1574             =CVMONPTR DC    F'0'                WMONITOR monitor address
 022CC0 00000000                    1575             =CVMONWRK DC    F'0'                WMONITOR working cell
                                    1576             =
 022CC4 00000000                    1577             =CVWGWROP DC    F'0'                Number of Wings opens for write
 022CC8 00000000                    1578             =CVWGRDOP DC    F'0'                Number of Wings opens for read
                                    1579             =
 022CCC FFFFFFFFFFFFFFFF            1580             =         DC    3F'-1'              Reserved
                                    1581=            =         ¿þþþþþþþþþþþþþþþþþþþþþþþþþþþþþþþþþþÜ
                                    1582=            =         Ÿ  Failsoft recovery information.  Ÿ
                                    1583=            =         ¾þþþþþþþþþþþþþþþþþþþþþþþþþþþþþþþþþþ»
 022CD8 00000000                    1584             =CVCURPATH DC   F'0'                Current PATH ptr
                                    1585=            =         ¿þþþþþþþþþþþþþÜ
                                    1586=            =         Ÿ  Counters.  Ÿ
                                    1587=            =         ¾þþþþþþþþþþþþþ»
 022CDC 00000000                    1588             =CVMSENT  DC    F'0'                Number of mail items sent
 022CE0 00000000                    1589             =CVMSEND  DC    F'0'                Number of SEND commands
 022CE4 00000000                    1590             =CVMBIT   DC    F'0'                Number of BITNET mail items
 022CE8 00000000                    1591             =CVMSHML  DC    F'0'                Number of SHOW MAIL commands
 022CEC 00000000                    1592             =CVMSHMLD DC    F'0'                Number of DUMP MAIL commands
 022CF0 00000000                    1593             =CVMSHSUM DC    F'0'                Number of SHOW MAIL SUMMARY cmds
 022CF4 00000000                    1594             =CVMEMS   DC    F'0'                Number of EMS mail items sent
                                    1595             =*
                                    1596             =* Temporary space used for measurement histograms.
                                    1597             =*
 022CF8 0000000000000000            1598             =CVHIST   DC    8F'0'
1GLOB     (GLOB5139) (12:46) (15MAR04) WYLBUR's Global Control Blocks                                                       Page   10
0Current Usings:  (CP,R11) (CV,R12)
0Loc    Object Code    Addr1 Addr2  Stmt Lv Lineno    Source Statement           (Hibal 5, Asmedit 3.3)  HLASM R4.0  2004/03/15 12.46
+___    ______ ____    _____ _____  ____ __ ______    ______ _________
0                                   1600             =***
                                    1601             =***
                                    1602             =***      Global Queue Ptrs
                                    1603             =***
                                    1604             =***
 022D18 00000000                    1605             =CVFJCB   DC    A(0)                Addr of first JCB
 022D1C 00000000                    1606             =CVLJCB   DC    A(0)                Addr of last(+1) JCB
 022D20 00000000                    1607             =CVCURJCB DC    A(0)                Addr of current JCB
 022D24 00000000                    1608             =CVOLDJCB DC    A(0)                Addr of old JCB
                                    1609             =
 022D28 00000000                    1610             =CVFPFCB  DC    A(0)        [Order] First avail PFCB         (Drum)
 022D2C 00000000                    1611             =CVLPFCB  DC    A(0)        [Order] Last(+1) PFCB
 022D30 00000000                    1612             =CVSPFCB  DC    A(0)        [Order] First secondary PFCB     (Disk)
                                    1613             =
 022D34 00000000                    1614             =CVPCBQH  DC    A(0)                Pointer to first PCB (or zero)
                                    1615             =
 022D38                             1616             =         DS    0D
 022D38 00000000                    1617             =CVPOSTQH DC    A(0)                First posted PCB (or zero)
 022D3C 00000000                    1618             =CVPOSTLK DC    A(0)                Lock word (counter for "CDS")
                                    1619             =
 022D40 0000000000000000            1620             =CVEMBUFQ DC    2A(0)               Queue of empty buffers
 022D48 0000000000000000            1621             =CVBUFQ   DC    2A(0)               Queue of data buffers
                                    1622             =
 022D50 00000000                    1623             =CVTQEQH  DC    A(0)                Timer queue head
 022D54                             1624             =CVTQEID  DS    A(0)                Last timer id used
                                    1625             =
 022D58 0384                        1626             =CVTIMOUT DC    AL2(15*60)          Test system timeout value
 022D5A 0384                        1627             =CVTIMLFT DC    AL2(15*60)          Time remaining
                                    1628             =
 022D5C 00000000                    1629             =CVTTYQH  DC    A(0)                TTYPE queue head
                                    1630             =
 022D60 00000000                    1631             =CVWECBQH DC    A(0)                Waiting ECB queue head
 022D64 00000000                    1632             =CVWECBQT DC    A(0)                Waiting ECB queue tail
                                    1633             =*
                                    1634             =*  Information for server connections.  There are two types
                                    1635             =*    of servers, public servers (which anyone can connect to)
                                    1636             =*    and user servers.
                                    1637             =*
                                    1638             =CVPSFNO  EQU   1001,,C'N'          First public server number
                                    1639             =CVPSLNO  EQU   1999,,C'N'          Last public server number
                                    1640             =CVPSSIZE EQU   ((CVPSLNO+1)-CVPSFNO)*4,,C'N'  SVIT size
 022D68 00000000                    1641             =CVPSTAB  DC    A(0)                Public SVIT ptr
 022D6C 00000000                    1642             =CVPSENDP DC    A(0)                End of SVIT ptr
 022D70 00000000                    1643             =CVPSNXP  DC    A(0)                Next SVIT entry to use ptr
                                    1644             =
                                    1645             =CVUSFNO  EQU   1,,C'N'             First user server number
                                    1646             =CVUSLNO  EQU   999,,C'N'           Last user server number
                                    1647             =CVUSSIZE EQU   ((CVUSLNO+1)-CVUSFNO)*4,,C'N'  SVIT size
 022D74 00000000                    1648             =CVUSTAB  DC    A(0)                User SVIT ptr
 022D78 00000000                    1649             =CVUSENDP DC    A(0)                End of SVIT ptr
 022D7C 00000000                    1650             =CVUSNXP  DC    A(0)                Next SVIT entry to use ptr
                                    1651             =*
                                    1652             =*  General server stuff.
                                    1653             =*
1GLOB     (GLOB5139) (12:46) (15MAR04) WYLBUR's Global Control Blocks                                                       Page   11
0Current Usings:  (CP,R11) (CV,R12)
0Loc    Object Code    Addr1 Addr2  Stmt Lv Lineno    Source Statement           (Hibal 5, Asmedit 3.3)  HLASM R4.0  2004/03/15 12.46
+___    ______ ____    _____ _____  ____ __ ______    ______ _________
0022D80 00000000                    1654             =CVQMONQ  DC    A(0)                QMONITOR waiting queue
 022D84 00000000                    1655             =         DC    F'0'                Reserved
 022D88 00000000                    1656             =CVHEAPGT DC    F'0'                User heap GETMAINs
 022D8C 00000000                    1657             =CVHEAPFR DC    F'0'                User heap FREEMAINs
                                    1658             =*
                                    1659             =*  Client/server counters.
                                    1660             =*
 022D90 00000000                    1661             =CVCSCONN DC    F'0'                Number of connections made
 022D94 00000000                    1662             =CVCSREQ  DC    F'0'                Number of server requests
 022D98 00000000                    1663             =CVCSNIO  DC    F'0'                Number of server I/O's
                                    1664             =
 022D9C E6C9D5C7E2E5F0F0            1665             =CVWPATH  DC    CL8'WINGSV00'       Wings path name
 022DA4 E6C9D5C7E2E5F0F0            1666             =CVWPATH1 DC    CL8'WINGSV00'       Wings1 path name
 022DAC E6C9D5C7E2E5F0F0            1667             =CVWPATH2 DC    CL8'WINGSV00'       Wings2 path name
                                    1668             =
 022DB4 00000000                    1669             =CVCHRIS  DC    A(0)                Christa memory area pointer
                                    1670             =
 022DB8 00000000                    1671             =CVVBINFO DC    A(0)                Sys var binary search info loc
 022DBC 00000000                    1672             =CVFBINFO DC    A(0)                Sys func binary search info loc
 022DC0 00000000                    1673             =CVPBINFO DC    A(0)                Sys proc binary search info loc
                                    1674             =*
                                    1675             =*  Note:  If you change CVSTACKL, you must also update WDEBUG.
                                    1676             =*
                                    1677             =CVSTACK# EQU   128                 Stack size in K
 022DC4 00020000                    1678             =CVSTACKL DC    A(CVSTACK#*1024)    Stack length
 022DC8 00000000                    1679             =CVDSTK   DC    A(0)                Start of dispatcher stack area
 022DCC 00000000                    1680             =CVSTACK  DC    A(0)                Start of user stack area
 022DD0 00000000                    1681             =CVSTACKE DC    A(0)                End of user stack area
                                    1682             =*
                                    1683             =*  Note:  If you change CVHEAPL, you must also update WDEBUG.
                                    1684             =*
                                    1685             =CVHEAP#  EQU   512                 Heap size in K
 022DD4 00080000                    1686             =CVHEAPL  DC    A(CVHEAP#*1024)     Heap length
 022DD8 00000000                    1687             =CVHEAP   DC    A(0)                Start of heap area
 022DDC 00000000                    1688             =CVHEAPE  DC    A(0)                End of heap area
                                    1689             =
 022DE0 00000000                    1690             =CVPRTQH  DC    A(0)                Printer table queue head
                                    1691             =
 022DE4 00000000                    1692             =CVHOSTQH DC    A(0)                Host table queue head
 022DE8 00000000                    1693             =CVHAILQH DC    A(0)                Host name alias table queue head
                                    1694             =
 022DEC 00000000                    1695             =CVTIMRQ  DC    A(0)                Queue of timer posted JCBs
                                    1696             =
 022DF0 FFFFFFFF                    1697             =         DC    F'-1'               Reserved
 022DF4 0000012C                    1698             =CVPCSEC  DC    F'300'              Secs before checkpoint page out
                                    1699             =CVPCMAX# EQU   20,,C'N'            Max no. of I/O CHECKOUT can queue
                                    1700             =
 022DF8 00000000                    1701             =CVXMONCT DC    F'0'                No. of current BIG xmon sessions
                                    1702             =
                                    1703             =CVVTRC#  EQU   20                  No. of view buffer trace entries
 022DFC 00000000                    1704             =CVVTRCP  DC    A(0)                View buffer trace queue head
 022E00 0000                        1705             =CVVNTRC  DC    H'0'                Number of trace entries
 022E02 FFFF                        1706             =         DC    H'-1'               Reserved
                                    1707             =
1GLOB     (GLOB5139) (12:46) (15MAR04) WYLBUR's Global Control Blocks                                                       Page   12
0Current Usings:  (CP,R11) (CV,R12)
0Loc    Object Code    Addr1 Addr2  Stmt Lv Lineno    Source Statement           (Hibal 5, Asmedit 3.3)  HLASM R4.0  2004/03/15 12.46
+___    ______ ____    _____ _____  ____ __ ______    ______ _________
0                                   1708             =CVXTRC#  EQU   50                  No. of Samson trace entries
 022E04 00000000                    1709             =CVXTRCP  DC    A(0)                Samson buffer trace queue head
 022E08 0000                        1710             =CVXNTRC  DC    H'0'                Number of trace entries
 022E0A FFFF                        1711             =         DC    H'-1'               Reserved
                                    1712             =
                                    1713             =CVETRC#  EQU   50                  No. of network trace entries
 022E0C 00000000                    1714             =CVETRCP  DC    A(0)                Network buffer trace queue head
 022E10 0000                        1715             =CVENTRC  DC    H'0'                Number of trace entries
 022E12 0000                        1716             =CVENERL  DC    H'0'                Error packet length (see CVENERP)
                                    1717             =
 022E14 00000000                    1718             =CVENUSE  DC    F'0'                Number of network uses
 022E18 00000000                    1719             =CVENSAVE DC    F'0'                Number of network saves
 022E1C 00000000                    1720             =CVENSCR  DC    F'0'                Number of network scratchs
 022E20 00000000                    1721             =CVENREN  DC    F'0'                Number of network renames
 022E24 00000000                    1722             =CVENDIR  DC    F'0'                Number of network show dir's
 022E28 00000000                    1723             =CVENCMD  DC    F'0'                Number of network commands
 022E2C 00000000                    1724             =CVENIO   DC    F'0'                Number of network I/O's
 022E30 00000000                    1725             =CVENERR  DC    F'0'                Number of network errors
 022E34 00000000                    1726             =CVENERP  DC    A(0)                Pointer to last error packet
1GLOB     (GLOB5139) (12:46) (15MAR04) WYLBUR's Global Control Blocks                                                       Page   13
0Current Usings:  (CP,R11) (CV,R12)
0Loc    Object Code    Addr1 Addr2  Stmt Lv Lineno    Source Statement           (Hibal 5, Asmedit 3.3)  HLASM R4.0  2004/03/15 12.46
+___    ______ ____    _____ _____  ____ __ ______    ______ _________
0                                   1728=            =         ¿þþþþþþþþþþþþþþþþþþþþþþþþÜ
                                    1729=            =         Ÿ  Global Record Groups  Ÿ
                                    1730=            =         ¾þþþþþþþþþþþþþþþþþþþþþþþþ»
                                    1731             =CVTEXT   RG    ,                   Global ACTIVE files
 022E38                             1732    01-RG    +         DS    0H
 022E38                             1733    01-RG    +CVTEXT   DS    XL32
                                    1734             =CVEXEC   RG    ,                   Global EXEC files
 022E58                             1735    01-RG    +         DS    0H
 022E58                             1736    01-RG    +CVEXEC   DS    XL32
                                    1737             =CVFLOW   RG    ,                   Global EXEC file flow ctrl info
 022E78                             1738    01-RG    +         DS    0H
 022E78                             1739    01-RG    +CVFLOW   DS    XL32
                                    1740             =CVDATA   RG    ,                   Global EXEC GETDATA/PUTDATA vars
 022E98                             1741    01-RG    +         DS    0H
 022E98                             1742    01-RG    +CVDATA   DS    XL32
                                    1743             =*  CVDATA key length is the same as "CPDATA" key length.
                                    1744             =CVRG16   RG    ,                   Global Misc RecGroup (name len=16)
 022EB8                             1745    01-RG    +         DS    0H
 022EB8                             1746    01-RG    +CVRG16   DS    XL32
                                    1747             =*  CVRG16 key length is the same as "CPRG16" key length.
                                    1748             =CVRG64   RG    ,                   Global Misc RecGroup (name len=64)
 022ED8                             1749    01-RG    +         DS    0H
 022ED8                             1750    01-RG    +CVRG64   DS    XL32
                                    1751             =*  CVRG64 key length is the same as "CPRG64" key length.
1GLOB     (GLOB5139) (12:46) (15MAR04) WYLBUR's Global Control Blocks                                                       Page   14
0Current Usings:  (CP,R11) (CV,R12)
0Loc    Object Code    Addr1 Addr2  Stmt Lv Lineno    Source Statement           (Hibal 5, Asmedit 3.3)  HLASM R4.0  2004/03/15 12.46
+___    ______ ____    _____ _____  ____ __ ______    ______ _________
0                                   1753=            =         ¿þþþþþþþþþþþþþþþþþþþþþþþþþþþþþþþþþþþÜ
                                    1754=            =         Ÿ  More Record Group Related Info.  Ÿ
                                    1755=            =         ¾þþþþþþþþþþþþþþþþþþþþþþþþþþþþþþþþþþþ»
                                    1756             =CV#SYS   EQU   1                   System vars/data (in CVRG16)
                                    1757             =CV#PUBV  EQU   2                   Public (PUB.) vars (in CVRG16)
                                    1758             =CV#WC    EQU   3                   WCOUNT initialization info
                                    1759=            =         ¿þþþþþþþþþþþþþþþÜ
                                    1760=            =         Ÿ  EXEC stuff.  Ÿ
                                    1761=            =         ¾þþþþþþþþþþþþþþþ»
 022EF8 00000000                    1762             =CV#XFREE DC    F'0'                Next free public Exec set no.
                                    1763             =CV#FEXEC EQU   2048                First free public Exec set no.
                                    1764=            =         ¿þþþþþþþþþþþþþþþþþÜ
                                    1765=            =         Ÿ  CHAZ RESERVED  Ÿ
                                    1766=            =         ¾þþþþþþþþþþþþþþþþþ»
 022EFC 00000000                    1767             =CVCHAZF1 DC    F'0'
 022F00 00000000                    1768             =CVCHAZF2 DC    F'0'
 022F04 00000000                    1769             =CVCHAZF3 DC    F'0'
 022F08 00000000                    1770             =CVCHAZF4 DC    F'0'
 022F0C 00000000                    1771             =CVCHAZF5 DC    F'0'
 022F10 00000000                    1772             =CVCHAZF6 DC    F'0'
 022F14 00000000                    1773             =CVCHAZF7 DC    F'0'
 022F18 00000000                    1774             =CVCHAZF8 DC    F'0'
 022F1C 4040404040404040            1775             =CVCHSTR  DC    CL256' '
1GLOB     (GLOB5139) (12:46) (15MAR04) WYLBUR's Global Control Blocks                                                       Page   15
0Current Usings:  (CP,R11) (CV,R12)
0Loc    Object Code    Addr1 Addr2  Stmt Lv Lineno    Source Statement           (Hibal 5, Asmedit 3.3)  HLASM R4.0  2004/03/15 12.46
+___    ______ ____    _____ _____  ____ __ ______    ______ _________
002301C 00                          1777             =CVFL     FLAG
 CVFL.CVFTMIL      80 ONES          1781             =         FLAG  CVFTMIL             - Test MILTEN running
 CVFL.CVFPGROT     40 ONES          1786             =         FLAG  CVFPGROT            - Do page rotates (for debugging)
 CVFL.CVFRLOAD     20 ONES          1791             =         FLAG  CVFRLOAD            - Reload is pending
 CVFL.CVFRLG       10 ONES          1796             =         FLAG  CVFRLG              - Running on the RLG machine
 CVFL.CVFNDSUB     08 ONES          1801             =         FLAG  CVFNDSUB            - No disk subtasking (debugging)
 CVFL.CVFDISP      04 ONES          1806             =         FLAG  CVFDISP             - Running in dispatcher mode
 CVFL.CVFNTRC      02 ONES          1811             =         FLAG  CVFNTRC             - ENET tracing (see NET module)
 CVFL.CVFSERVWYL   01 ONES          1816             =         FLAG  CVFSERVWYL          - Run server functions only
                                    1821             =
 02301D 00                          1822             =CVFL2    FLAG
 CVFL2.CVFTRC      80 ONES          1826             =         FLAG  CVFTRC              - Trace table in use
 CVFL2.CVFABEND    40 ONES          1831             =         FLAG  CVFABEND            - Stae abend in progress
 CVFL2.CVFRBUG     20 ONES          1836             =         FLAG  CVFRBUG             - Recovery debugging info wanted
 CVFL2.CVFRCVY     10 ONES          1841             =         FLAG  CVFRCVY             - WYLBUR recovery running
 CVFL2.CVFINIT     08 ONES          1846             =         FLAG  CVFINIT             - WYLBUR init in progress
 CVFL2.CVFFMT      04 ONES          1851             =         FLAG  CVFFMT              - Page file reformatting
 CVFL2.CVFTEST     02 ONES          1856             =         FLAG  CVFTEST             - Test WYLBUR running
 CVFL2.CVFFORCE    01 ONES          1861             =         FLAG  CVFFORCE            - Changed pages written (abend)
                                    1866             =
 02301E 00                          1867             =CVFL3    FLAG
 CVFL3.CVFNOR      80 ONES          1871             =         FLAG  CVFNOR              - Only go through init
 CVFL3.CVFNORACF   40 ONES          1876             =         FLAG  CVFNORACF           - No RACF checking
 CVFL3.CVFPUSR     20 ONES          1881             =         FLAG  CVFPUSR             - Running pseudo "init" user
 CVFL3.CVFXA       10 ONES          1886             =         FLAG  CVFXA               - MVS/XA (not MVS/370)
 CVFL3.CVFNOTIM    08 ONES          1891             =         FLAG  CVFNOTIM            - No timeout timer
 CVFL3.CVFCMDS     04 ONES          1896             =         FLAG  CVFCMDS             - Do initial commands
 CVFL3.CVFXA31     02 ONES          1901             =         FLAG  CVFXA31             - Use 31-bit mode in XA
 CVFL3.CVWPATCH    01 ONES          1906             =         FLAG  CVWPATCH            - Patch W0-W9 to format(-1,3)
                                    1911             =
 02301F 00                          1912             =CVFL4    FLAG
 CVFL4.CVFCFMT     80 ONES          1916             =         FLAG  CVFCFMT             - Format checkpoint record
 CVFL4.CVFNCHK     40 ONES          1921             =         FLAG  CVFNCHK             - No checkpointing
 CVFL4.CVFMAN      20 ONES          1926             =         FLAG  CVFMAN              - Manual recovery mode
 CVFL4.CVFSYST     10 ONES          1931             =         FLAG  CVFSYST             - Systems time (see CVWORD)
 CVFL4.CVFNSTAE    08 ONES          1936             =         FLAG  CVFNSTAE            - Don't set ESTAE exit (debugging)
 CVFL4.CVFNORET    04 ONES          1941             =         FLAG  CVFNORET            - No failsoft recovery
 CVFL4.CVFNSPIE    02 ONES          1946             =         FLAG  CVFNSPIE            - Don't set SPIE exit (debugging)
                                    1951             =
 023020 00                          1952             =CVFL5    FLAG
 CVFL5.CVFVISTA    80 ONES          1956             =         FLAG  CVFVISTA            - This is VISTA (VLOGON subsys)
 CVFL5.CVFMEMPAGE  40 ONES          1961             =         FLAG  CVFMEMPAGE          - Only memory pages are available
 CVFL5.CVFWINGS    20 ONES          1966             =         FLAG  CVFWINGS            - Use WINGS file sys
 CVFL5.CVFOLDIBM   10 ONES          1971             =         FLAG  CVFOLDIBM           - Use OLDIBM file sys, (default)
                                    1976             =
 023021 00                          1977             =CVFL6    FLAG
 CVFL6.CVFCHRUBPR  80 ONES          1981             =         FLAG  CVFCHRUBPR          UserID Access: BDAM primary
 CVFL6.CVFCHRUBSE  40 ONES          1986             =         FLAG  CVFCHRUBSE          UserID Access: BDAM secondary
 CVFL6.CVFUIDBDM   C0 NZ            1991             =         FLAG  (CVFUIDBDM,CVFCHRUBPR+CVFCHRUBSE,NZ)  UserID BDAM
 CVFL6.CVFCHRUCPR  20 ONES          2003             =         FLAG  CVFCHRUCPR          UserID Access: Christa primary
 CVFL6.CVFCHRUCSE  10 ONES          2008             =         FLAG  CVFCHRUCSE          UserID Access: Christa secondary
 CVFL6.CVFUIDCHR   30 NZ            2013             =         FLAG  (CVFUIDCHR,CVFCHRUCPR+CVFCHRUCSE,NZ)  UserID Christa
 CVFL6.CVFCHRKBPR  08 ONES          2025             =         FLAG  CVFCHRKBPR          Keyword Access: BDAM primary
 CVFL6.CVFCHRKBSE  04 ONES          2030             =         FLAG  CVFCHRKBSE          Keyword Access: BDAM secondary
1GLOB     (GLOB5139) (12:46) (15MAR04) WYLBUR's Global Control Blocks                                                       Page   16
0Current Usings:  (CP,R11) (CV,R12)
0Loc    Object Code    Addr1 Addr2  Stmt Lv Lineno    Source Statement           (Hibal 5, Asmedit 3.3)  HLASM R4.0  2004/03/15 12.46
+___    ______ ____    _____ _____  ____ __ ______    ______ _________
0CVFL6.CVFKWRBDM   0C NZ            2035             =         FLAG  (CVFKWRBDM,CVFCHRKBPR+CVFCHRKBSE,NZ)  Keyword BDAM
 CVFL6.CVFCHRKCPR  02 ONES          2047             =         FLAG  CVFCHRKCPR          Keyword Access: Christa primary
 CVFL6.CVFCHRKCSE  01 ONES          2052             =         FLAG  CVFCHRKCSE          Keyword Access: Christa secondary
 CVFL6.CVFKWRCHR   03 NZ            2057             =         FLAG  (CVFKWRCHR,CVFCHRKCPR+CVFCHRKCSE,NZ)  Keyword Christa
                                    2069             =
 023022 00                          2070             =CVJESFLG FLAG
 CVJESFLG.CVJFNRUN 80 ONES          2074             =         FLAG  CVJFNRUN            - Runs not allowed
                                    2079             =
 023023 00                          2080             =CVWTOFLG FLAG
 CVWTOFLG.CVWTOFWT 80 ONES          2084             =         FLAG  CVWTOFWTL           - Do WTL (not WTO)
 CVWTOFLG.CVWTOFNO 40 ONES          2089             =         FLAG  CVWTOFNOPFX         - No WTO prefix at all
 CVWTOFLG.CVWTOFUP 20 ONES          2094             =         FLAG  CVWTOFUPFX          - Put userid in prefix
 CVWTOFLG.CVWTOFAC 10 ONES          2099             =         FLAG  CVWTOFACTION        - Make WTO non-deletable
 CVWTOFLG.CVWTOFTA 08 ONES          2104             =         FLAG  CVWTOFTAPE          - Route WTO to tape station
                                    2109             =
 023024 00                          2110             =CVDBGFLG FLAG
 CVDBGFLG.CVFDEBUG 80 ONES          2114             =         FLAG  CVFDEBUGIO          - DEBUG message is waiting
                                    2119             =
 023025 000000
 023028 00000001                    2120             =CVONE    DC    F'1'                Constant of one
 02302C 00000004                    2121             =CVFOUR   DC    F'4'                Constant of four
                                    2122             =CVBLANKS DC    CL(&LINESZ)' '
 023030 4040404040404040                             +CVBLANKS DC    CL(235)' '
 02311C                             2123             =         DS    0F                  Exec variable 0 and 1
 02311C 0000000000000000            2124             =CVPKZERO DC    X'00000000000000000000000C'   F14.9
 023128 0000000000000100            2125             =CVPKONE  DC    X'00000000000001000000000C'   F14.9
                                    2126             =
 023134 00000000                    2127             =CVPTP    DC    A(*-*)              Page Table ptr
 023138 00000000                    2128             =CVXPTP   DC    A(*-*)              (Page Table ptr) - L'PT
                                    2129             =
 02313C 00000000                    2130             =CVSTKCEL DC    A(0)                Address of stack cell blocks
 023140 00000000                    2131             =CVHEAPCL DC    A(0)                Address of heap cell blocks
 023144 00000000                    2132             =CVTSEGPL DC    A(0)                Address of TSEG buffer cell blocks
                                    2133             =
 023148                             2134             =         DS    2F                  Reserved
                                    2135    **ISU**  =CVHACKWT DC    AL2(&HACKDEL*100)   Wait time for password verfication
 023150 0000                                **ISU**  +CVHACKWT DC    AL2(0*100)          Wait time for password verfication
                                    2136             =
 023152 0000                        2137             =         DC    H'0'                Reserved
 023154 00000000                    2138             =CVHLPPTR DC    A(0)                Help directory ptr
                                    2139             =
 023158 00000000                    2140             =CVDICPTR DC    A(0)                Spelling dictionary ptr
                                    2141             =
 02315C FFFF                        2142             =         DC    H'-1'               Reserved
                                    2143             =
 02315E FFFF                        2144             =         DC    H'-1'               Reserved
 023160 00000000                    2145             =CVNWDATE DC    F'0'                Date of latest news item
                                    2146             =CVNWSIZ# EQU   16384-16            Size of a news page
                                    2147             =CVNWMPG# EQU   8                   Max no of news pages
 023164 0000000000000000            2148             =CVNWPG   DC    (CVNWMPG#)F'0'      News page (memory) list
                                    2149             =CVNWINFO EQU   CVNWDATE,*-CVNWDATE,C'X'
                                    2150             =
 023184 00000000
 023188 0000000000000000            2151             =CVDSPCLK DC    D'0'                TOD clock at user dispatch
1GLOB     (GLOB5139) (12:46) (15MAR04) WYLBUR's Global Control Blocks                                                       Page   17
0Current Usings:  (CP,R11) (CV,R12)
0Loc    Object Code    Addr1 Addr2  Stmt Lv Lineno    Source Statement           (Hibal 5, Asmedit 3.3)  HLASM R4.0  2004/03/15 12.46
+___    ______ ____    _____ _____  ____ __ ______    ______ _________
0023190 0000000000000000            2152             =CVOLDCLK DC    D'0'                TOD clock at last checkout
 023198 0000000000000000            2153             =CVWTCLK  DC    D'0'                Voluntary wait time
 0231A0 0000000000000000            2154             =         DC    2D'0'               Reserved
1GLOB     (GLOB5139) (12:46) (15MAR04) WYLBUR's Global Control Blocks                                                       Page   18
0Current Usings:  (CP,R11) (CV,R12)
0Loc    Object Code    Addr1 Addr2  Stmt Lv Lineno    Source Statement           (Hibal 5, Asmedit 3.3)  HLASM R4.0  2004/03/15 12.46
+___    ______ ____    _____ _____  ____ __ ______    ______ _________
0                                   2156=            =         ¿þþþþþþþþþþþþþþþÜ
                                    2157=            =         Ÿ  Statistics.  Ÿ
                                    2158=            =         ¾þþþþþþþþþþþþþþþ»
 0231B0 0000003C                    2159             =CV#INTVL DC    F'60'               60 second statistics interval
 0231B4 00000000                    2160             =CV#CPU   DC    F'0'                No. of secs CPU used last intvl
                                    2161             =
 0231B8                             2162             =CV#IOSEC DS    H                   Page I/O's per second
 0231BC                             2163             =CV#IOCLK DS    F                   Clock at I/O per sec calc
                                    2164             =*
                                    2165             =*
                                    2166             =CV#PAT   EQU   *                   Start of page type stats
 0231C0 E3C5E7E3                    2167             =CV#TXT   DC    C'TEXT'
 0231C4 00000000                    2168             =CV#TXTIO DC    F'0'                Number of TEXT page I/O's
 0231C8 00000000                    2169             =CV#TXTWR DC    F'0'                Number of TEXT page writes
                                    2170             =
 0231CC D4C9E2C3                    2171             =CV#MSC   DC    C'MISC'
 0231D0 00000000                    2172             =CV#MSCIO DC    F'0'                All other page I/O's
 0231D4 00000000                    2173             =CV#MSCWR DC    F'0'                All other page writes
                                    2174             =
 0231D8 0000000000000000            2175             =         DC    3XL12'00'           Reserved
 0231FC 00000000                    2176             =         DC    XL4'00'             End of list
                                    2177             =
 023200 00000000                    2178             =CVCPMEM  DC    F'0'                Memory in use for CP space
 023204 00000000                    2179             =CVSTKMEM DC    F'0'                Memory in use for STACK space
                                    2180             =
 023208 00000000                    2181             =CVSTKFRE DC    F'0'                Number of user stack FREEMAINS
 02320C 00000000                    2182             =CV#COUT  DC    F'0'                No. of checkpoint page outs
                                    2183             =
 023210 00000000                    2184             =CV#SNEM  DC    F'0'                Snatched an empty buffer
 023214 00000000                    2185             =CV#SNB   DC    F'0'                Snatched a buffer
 023218 00000000                    2186             =CV#SNC   DC    F'0'                Can't snatch a buffer
                                    2187             =
 02321C 00000000                    2188             =CVMPGMEM DC    F'0'                Memory in use for MPAGE space
 023220 00000000                    2189             =CVMEMTOT DC    F'0'                Memory allocated by GETCORE
                                    2190             =
 023224 00000000                    2191             =CVSTKGET DC    F'0'                Number of user stack GETMAINS
 023228 FFFFFFFF                    2192             =         DC    F'-1'               Reserved
1GLOB     (GLOB5139) (12:46) (15MAR04) WYLBUR's Global Control Blocks                                                       Page   19
0Current Usings:  (CP,R11) (CV,R12)
0Loc    Object Code    Addr1 Addr2  Stmt Lv Lineno    Source Statement           (Hibal 5, Asmedit 3.3)  HLASM R4.0  2004/03/15 12.46
+___    ______ ____    _____ _____  ____ __ ______    ______ _________
0                                   2194=            =         ¿þþþþþþþþþþþþþþþþþþþþþþþþÜ
                                    2195=            =         Ÿ  Resource group area.  Ÿ
                                    2196=            =         ¾þþþþþþþþþþþþþþþþþþþþþþþþ»
 02322C 00000000                    2197             =CVFRSG   DC    A(0)                First rsg ptr
                                    2198             =
 023230 00000000                    2199             =CVRSG    DC    A(0)                Rsg effective start (milrsg)
 023234 00000000                    2200             =         DC    A(0)                Size of rscgroup
 023238 00000000                    2201             =         DC    A(0)                Address of last rsg
 02323C 00000000                    2202             =         DC    A(0)
                                    2203             =
                                    2204             =CVRRUN   EQU   1                   Run-q          (Not checked)
                                    2205             =CVRSET   EQU   2                   Setup-q        (Not checked)
                                    2206             =CVRPAG   EQU   3                   Pageio-q       (Not checked)
                                    2207             =CVRIOW   EQU   4                   Iowa-q
                                    2208             =CVRKWR   EQU   5                   Kwr-q
                                    2209             =CVRSUB   EQU   6                   Job sumbission-q
                                    2210             =CVRHCM   EQU   7                   JES commands-q
                                    2211             =CVRKEY   EQU   8                   KEYS-q
                                    2212             =CVRLAST  EQU   CVRKEY              Highest number resource id
                                    2213             =
 023240 00000000                    2214             =CVECBLST DC    V(ECBLIST)          ECB list ptr
                                    2215             =
 023244 00000000                    2216             =CVFIOWA  DC    A(0)                First EXIO work area
                                    2217             =
 023248 00000000                    2218             =CVOSDSPT DC    A(0)                @ clock time last os dispatch
 02324C 00000000                    2219             =CVTCPUTM DC    A(0)                Total cpu time used by wyl
 023250 00000000                    2220             =CVSCPUTM DC    A(0)                Cpu time at last stimer
 023254 00000000                    2221             =CVRCPUTM DC    A(0)                Cpu time at last user disp.
 023258 00000000                    2222             =CVTIME   DC    A(0)                Total user charged cputime
 02325C 00000000
 023260 0000000000000000            2223             =CVCLOCK  DC    D'0'                Clock value @ last gttime
                                    2224             =
 023268 00000000                    2225             =CVSPIEAD DC    A(0)                Spie recovery address
 02326C 00000000                    2226             =CVITCBP  DC    A(0)                Initiator TCB ptr
 023270 00000000                    2227             =CVASCBP  DC    A(0)                ASCB ptr
 023274 00000000                    2228    **ISU**  =CVLUVPTR DC    A(0)                Pointer to eligible device table
                                    2229             =
 023278 00000000                    2230             =CVECB    DC    F'0'                Main ECB
                                    2231=            =         ¿þþþþþþþþþþþþþþþþþþþþþþþþþþþÜ
                                    2232=            =         Ÿ  Volume management area.  Ÿ
                                    2233=            =         ¾þþþþþþþþþþþþþþþþþþþþþþþþþþþ»
 02327C C9D6                        2234             =CVSTYPE  DC    C'IO'               Tiot ident for save vols
 02327E C4C4                        2235             =CVUTYPE  DC    C'DD'               Tiot ident for use vols
 023280 E3D4                        2236             =CVTTYPE  DC    C'TM'               Tiot ident for temp vols
 023282 0000
 023284 FFFFFFFF                    2237             =         DC    F'-1'               Reserved
 023288 00000000                    2238             =CVWTOLID DC    F'0'                Last XWTO id (in case DOM needed)
 02328C 00000000                    2239             =CVDEBUGP DC    V(DEBUGSG)          DEBUG SEGCB ptr (see DEBUG macro)
 023290 00000000                    2240             =CVUSECVT DC    A(*-*)              User cvt (scipcvt) ptr
 023294 00000000                    2241             =CVTCBP   DC    A(0)                TCB ptr
 023298 00000000                    2242             =CVVOLIST DC    A(0)                Address of volume list
 02329C 00000000                    2243             =CVRCVOL  DC    A(0)                Address of first recovery vol
                                    2244             =
 0232A0 00000000                    2245             =CVWTOSGP DC    V(WTOSG)            XWTO SEGCB ptr (see XWTO macro)
1GLOB     (GLOB5139) (12:46) (15MAR04) WYLBUR's Global Control Blocks                                                       Page   20
0Current Usings:  (CP,R11) (CV,R12)
0Loc    Object Code    Addr1 Addr2  Stmt Lv Lineno    Source Statement           (Hibal 5, Asmedit 3.3)  HLASM R4.0  2004/03/15 12.46
+___    ______ ____    _____ _____  ____ __ ______    ______ _________
0                                   2248=            =         ¿þþþþþþþþþþþþþþþþþþþþþþþþþþþþþþþþþþþþþþþþþþþþþþþþþþþþþþþþþþþþþþÜ
                                    2249=            =         Ÿ  Subroutine entry routine (called from PROC/XPROC), entered  Ÿ
                                    2250=            =         Ÿ  as follows:                                                 Ÿ
                                    2251=            =         Ÿ                                                              Ÿ
                                    2252=            =         Ÿ     BAL   R7,CVENT         Set up base register and trace    Ÿ
                                    2253=            =         Ÿ     DC    CL8'name'        Trace name                        Ÿ
                                    2254=            =         Ÿ     USING *,R7                                               Ÿ
                                    2255=            =         ¾þþþþþþþþþþþþþþþþþþþþþþþþþþþþþþþþþþþþþþþþþþþþþþþþþþþþþþþþþþþþþþ»
 0232A4 4170 7008            00008  2256             =CVENT    LA    R7,8(,R7)           Bump addr
 0232A8 07F7                        2257             =CVENTBR  BR    R7                  Set to NOPR if tracing
                                    2258             =CVBRMSK  EQU   CVENTBR+1,1,C'X'    Four bit branch mask
                                    2259             =CVENTON  EQU   CVBRMSK,X'F0',14    Makes CVENTBR a NOPR
                                    2260             =CVENTOFF EQU   CVBRMSK,X'F0',1     Makes CVENTBR a BR
 0232AA 900F C780/4DE0_      232D8  2261             =         XTRACE ENTRY,REGS=(R15,R0,R1)
 0232BE 07F7                        2269             =         BR    R7                  Scram
                                    2270=            =         ¿þþþþþþþþþþþþþþþþþþþþþþþþþþþþþþþþþþþþþþþþþþþþþþþþþþþþþþþþþþþÜ
                                    2271=            =         Ÿ  Trace routine (linkage generated by XTRACE), entered as  Ÿ
                                    2272=            =         Ÿ  follows:                                                 Ÿ
                                    2273=            =         Ÿ                                                           Ÿ
                                    2274=            =         Ÿ     STM   R0,R15,CVLNKRGS                                 Ÿ
                                    2275=            =         Ÿ     BAL   RAR,CVTRC                                       Ÿ
                                    2276=            =         Ÿ     DC    AL2(flgs,rgmsk),CL8'name'                       Ÿ
                                    2277=            =         ¾þþþþþþþþþþþþþþþþþþþþþþþþþþþþþþþþþþþþþþþþþþþþþþþþþþþþþþþþþþþ»
 0232C0 50E0 C7B0            23308  2278             =CVTRC    ST    RAR,CVLNKRTN        Save return addr
 0232C4 58E0 C778            232D0  2279             =         L     RAR,CVTRCRTN        Addr of trace routine
 0232C8 07FE                        2280             =         BR    RAR
                                    2281             =
 0232CA 58E0 C77C            232D4  2282             =CVEXIT   L     RAR,CVEXIRTN        CV exit routine addr
 0232CE 07FE                        2283             =         BR    RAR                 Exit
                                    2284             =
 0232D0 00000000                    2285             =CVTRCRTN DC    V(TRC)              (FAIL)
 0232D4 00000000                    2286             =CVEXIRTN DC    V(CVPFXRTN)         (GLOB)
                                    2287             =
 0232D8                             2288             =CVLNKRGS DS    16F                 Register save area
                                    2289             =CVLNKRTN EQU   CVLNKRGS+(R12*4),4  Use R12 for return addr
 023318                             2290             =CVTRCDAT DS    D                   Trace data
1GLOB     (GLOB5139) (12:46) (15MAR04) WYLBUR's Global Control Blocks                                                       Page   21
0Current Usings:  (CP,R11) (CV,R12)
0Loc    Object Code    Addr1 Addr2  Stmt Lv Lineno    Source Statement           (Hibal 5, Asmedit 3.3)  HLASM R4.0  2004/03/15 12.46
+___    ______ ____    _____ _____  ____ __ ______    ______ _________
0                                   2292             =*
                                    2293             =*  Exit routines:
                                    2294             =*
                                    2295             =*   CVNEXT,CVNXTMSG  - Get next command (normal end of command).
                                    2296             =*   CVABORT,CVABTMSG - Command error, don't do auto retry.
                                    2297             =*   CVERROR,CVERRMSG - Command error, ok to do auto retry.
                                    2298             =*
                                    2299             =* CVNXTMSG, CVABTMSG, CVERRMSG entries have a msg in R1,R0 to seg.
                                    2300             =*
 023320 9640 BD5A      00D5A        2301             =CVERRMSG OI    CPFERROR,L'CPFERROR
 023324 9680 BD5A      00D5A        2302             =CVABTMSG OI    CPFABORT,L'CPFABORT
 023328 58E0 C880            233D8  2303             =CVNXTMSG L     RAR,CVSEGRTN
 02332C 07FE                        2304             =         BR    RAR
                                    2305             =
 02332E 9640 BD5A      00D5A        2306             =CVERROR  OI    CPFERROR,L'CPFERROR
 023332 9680 BD5A      00D5A        2307             =CVABORT  OI    CPFABORT,L'CPFABORT
 023336 58E0 C87C            233D4  2308             =CVNEXT   L     RAR,CVCOMRTN
 02333A 07FE                        2309             =         BR    RAR
                                    2310             =
 02333C 58E0 C888            233E0  2311             =CVNVALID L     RAR,CVINVRTN        "x: invalid."
 023340 07FE                        2312             =         BR    RAR
                                    2313             =
 023342 58E0 C890            233E8  2314             =CVNOACTN L     RAR,CVNOARTN        "No action taken."
 023346 07FE                        2315             =         BR    RAR
                                    2316             =
 023348 58E0 C88C            233E4  2317             =CVABSENT L     RAR,CVABSRTN        "Missing operand."
 02334C 07FE                        2318             =         BR    RAR
                                    2319             =
 02334E 58E0 C884            233DC  2320             =CVMILERR L     RAR,CVMILRTN        "MILTEN Interface Error"
 023352 0DEE                        2321             =         BASR  RAR,RAR
 023354 47F0 C7D6            2332E  2322             =         B     CVERROR
                                    2323             =
 023358                             2324             =         DS    XL64                Reserved
                                    2325             =
 023398 4810 E000            00000  2326             =CVLITMSG LH    R1,@RAR             Signed literal offset
 02339C 1A1E                        2327             =         AR    R1,RAR              Form ptr
 02339E 1F00/4300 1000              2328             =         LC    R0,@R1              Len
 0233A4 4110 1001            00001  2333             =         LA    R1,@R1+1            Loc
 0233A8 47F0 E002            00002  2334             =         B     @RAR+2
1GLOB     (GLOB5139) (12:46) (15MAR04) WYLBUR's Global Control Blocks                                                       Page   22
0Current Usings:  (CP,R11) (CV,R12)
0Loc    Object Code    Addr1 Addr2  Stmt Lv Lineno    Source Statement           (Hibal 5, Asmedit 3.3)  HLASM R4.0  2004/03/15 12.46
+___    ______ ____    _____ _____  ____ __ ______    ______ _________
00233AC FFFFFFFFFFFFFFFF            2336             =         DC    10F'-1'             Reserved
                                    2337             =
 0233D4 00000000                    2338             =CVCOMRTN DC    V(COMMAND)
 0233D8 00000000                    2339             =CVSEGRTN DC    V(COMMSEG)
 0233DC 00000000                    2340             =CVMILRTN DC    V(MILERR)
 0233E0 00000000                    2341             =CVINVRTN DC    V(INVALID)
 0233E4 00000000                    2342             =CVABSRTN DC    V(ABSCENT)
 0233E8 00000000                    2343             =CVNOARTN DC    V(NOACTION)
 0233EC FFFFFFFFFFFFFFFF            2344             =         DC    3A(-1)              Reserved
                                    2345             =
 0233F8 00000000                    2346             =CVPARTBL DC    V(EPARTBL)          (GLOB)  Translate to even parity
 0233FC 00000000                    2347             =CVNPRTBL DC    V(NPARTBL)          (GLOB)  Translate to zero parity
 023400 00000000                    2348             =CVUPPTBL DC    V(UPPTBL)           (GLOB)  Translate to upper table
 023404 00000000                    2349             =CVLOWTBL DC    V(LOWTBL)           (GLOB)  Translate to lower table
 023408 00000000                    2350             =CVASCTBL DC    V(ASCTBL)           (GLOB)  EBCDIC to ASCII table
 02340C 00000000                    2351             =CVEBCTBL DC    V(EBCTBL)           (GLOB)  ASCII to EBCDIC table
 023410 00000000                    2352             =CVBLTBL  DC    V(BLTBL)            (GLOB)  Blanks TRT table
 023414 00000000                    2353             =CVNBLTBL DC    V(NBLTBL)           (GLOB)  Non-blanks TRT table
 023418 00000000                    2354             =CVEB7TBL DC    V(EBCTBL7)          (GLOB)  ASCII-7 to EBCDIC table
 02341C 00000000                    2355             =CVDOTTBL DC    V(DOTTBL)           (GLOB)  Non-printing to dot table
 023420 0000000000000000            2356             =         DC    5F'0'               Reserved
                                    2358=            =         ¿þþþþþþþþþþþþþþþþþþþÜ
                                    2359=            =         Ÿ  Global counters  Ÿ
                                    2360=            =         ¾þþþþþþþþþþþþþþþþþþþ»
 023434 00000000                    2361             =CVNCOM   DC    F'0'                No. of commands
 023438 00000000                    2362             =CVNCOME  DC    F'0'                No. of commands from exec files
 02343C 00000000                    2363             =CVNPIO   DC    F'0'                No. of page I/O's
 023440 00000000                    2364             =CVNDIO   DC    F'0'                No. of disk I/O's
 023444 00000000                    2365             =CVNRJE   DC    F'0'                No. of jobs submitted
 023448 00000000                    2366             =CVNPRINT DC    F'0'                No. of prints
 02344C 00000000                    2367             =CVNSLICE DC    F'0'                No. of timeslice dispatches
 023450 00000000                    2368             =CVNDISP  DC    F'0'                No. of dispatches
                                    2369             =
 023454 00000000                    2370             =CV#CNT1  DC    F'0'                Statistic counters,
 023458 00000000                    2371             =CV#CNT2  DC    F'0'                  See SHOW WINFO Command in
 02345C 00000000                    2372             =CV#CNT3  DC    F'0'                  &WYL.MODE for current use
 023460 00000000                    2373             =CV#CNT4  DC    F'0'                  and display.
 023464 00000000                    2374             =CV#CNT5  DC    F'0'
 023468 00000000                    2375             =CV#CNT6  DC    F'0'
                                    2376             =
 02346C 00000000                    2377             =CVLOGCNT DC    F'0'                WYLBUR log info
 023470 00000000                    2378             =CVLOGSZ  DC    F'0'                Buffer size (actual)
 023474 00000000                    2379             =CVLOGBF  DC    F'0'                Buffer start
 023478 00000000                    2380             =CVLOGPT  DC    F'0'                Buffer ptr
 02347C 00000000                    2381             =CVLOGBF2 DC    F'0'                Overflow buffer start
 023480 00000000                    2382             =CVLOGPT2 DC    F'0'                Overflow buffer ptr (ie. end)
                                    2383             =CVLOGBSZ EQU   32*1024-128         Buffer Size (to request)
                                    2384             =
 023484 00000000                    2385             =CVNTIDLE DC    F'0'                No. of TIDLE terminal I/O's
 023488 FFFFFFFF                    2386             =         DC    F'-1'               Reserved
                                    2387             =
 02348C 000003E8                    2388             =CVCPUTIM DC    F'1000'             10 seconds--CPU threshold
                                    2389             =
 023490 00000000                    2390             =CVNQSERV DC    F'0'                No. of QSERV SVCs issued
1GLOB     (GLOB5139) (12:46) (15MAR04) WYLBUR's Global Control Blocks                                                       Page   23
0Current Usings:  (CP,R11) (CV,R12)
0Loc    Object Code    Addr1 Addr2  Stmt Lv Lineno    Source Statement           (Hibal 5, Asmedit 3.3)  HLASM R4.0  2004/03/15 12.46
+___    ______ ____    _____ _____  ____ __ ______    ______ _________
0023494 00000000                    2391             =CVNQSERR DC    F'0'                No. of QSERV SVC errors
                                    2392             =
 023498 FFFFFFFFFFFFFFFF            2393             =         DC    31F'-1'             Reserved
1GLOB     (GLOB5139) (12:46) (15MAR04) WYLBUR's Global Control Blocks                                                       Page   24
0Current Usings:  (CP,R11) (CV,R12)
0Loc    Object Code    Addr1 Addr2  Stmt Lv Lineno    Source Statement           (Hibal 5, Asmedit 3.3)  HLASM R4.0  2004/03/15 12.46
+___    ______ ____    _____ _____  ____ __ ______    ______ _________
0                                   2395             =***
                                    2396             =***      Checkpoint Area
                                    2397             =***
 023514 00000000                    2398             =CVCHKIOB DC    V(CHECKIOB)         Checkpoint IOB
 023518 00000000                    2399             =CVCHKBUF DC    A(*-*)              Checkpoint I/O buffer
 02351C 00000000                    2400             =CVCHKECB DC    F'0'                Checkpoint I/O ECB
 023520 00000000                    2401             =CVCHKTAB DC    A(*-*)              User checkpoint table
 023524 FFFFFFFFFFFFFFFF            2402             =         DC    5F'-1'              Reserved
                                    2403             =
 023538 0000                        2404             =CVCHKLEN DC    H'0'                Checkpoint record length
 02353A 0000                        2405             =CVCHKTLN DC    H'0'                User table length
                                    2406             =
 02353C 0000                        2407             =CVCHKPUC DC    H'0'                Previous checkpoint update count
 02353E FFFF                        2408             =         DC    H'-1'               Reserved
                                    2409             =
 023540 00000000                    2410             =CVCHKNIO DC    F'0'                No. of checkpoint I/O's
                                    2411             =*
                                    2412             =*
 023548                             2413             =CVCHKST  DS    0D        ********  Start of record prefix
 023548 C3C8C5D2                    2414             =         DC    C'CHEK'
                                    2415             =
 02354C 0000                        2416             =CVCHKUC  DC    H'0'                Checkpoint update count
 02354E 0000                        2417             =         DC    H'0'                Reserved
                                    2418             =
 023550 0000000000000000            2419             =CVCHKCLK DC    XL8'00'             Clock at last re-write
                                    2420             =
 023558 00                          2421             =CVCFLAG  FLAG
 CVCFLAG.CVFDUMP   80 ONES          2425             =         FLAG  CVFDUMP             - Do sysudump on abend
 CVCFLAG.CVFRSV1   40 ONES          2430             =         FLAG  CVFRSV1             - Reserved flag
 CVCFLAG.CVFNOSMF  20 ONES          2435             =         FLAG  CVFNOSMF            - No SMF session accounting
 CVCFLAG.CVFNONET  10 ONES          2440             =         FLAG  CVFNONET            - Network interface is disabled
 CVCFLAG.CVFNONETC 08 ONES          2445             =         FLAG  CVFNONETCHK         - No network path checking
                                    2450             =
 023559 00                          2451             =CVPGFLAG FLAG
 CVPGFLAG.CVPGFREA 80 ONES          2455             =         FLAG  CVPGFREAL           - Page fix page buffers
 CVPGFLAG.CVPGFVIR 40 ONES          2460             =         FLAG  CVPGFVIRT           - Don't page fix page buffers
 CVPGFLAG.CVPGFAUT 20 ONES          2465             =         FLAG  CVPGFAUTO           - Auto switch between real/virt
                                    2470             =
 02355A 003C                        2471             =CVPGSECS DC    H'60'               No. of secs between page adjusts
 02355C 01F4                        2472             =CVPGLMIN DC    H'500'              Large config: min no. of buffers
 02355E 0BB8                        2473             =CVPGLMAX DC    H'3000'             Large config: max no. of buffers
 023560 0004                        2474             =CVPGLO   DC    H'4'                Too low if under pages/sec
 023562 0008                        2475             =CVPGHI   DC    H'8'                Too high if over pages/sec
                                    2476             =
 023564 0000                        2477             =CVPGMEG  DC    H'0'                Use small config if LE memory
 023566 0000                        2478             =CVPGSMIN DC    H'0'                Small config: min no. of buffers
 023568 0000                        2479             =CVPGSMAX DC    H'0'                Small config: max no. of buffers
 02356A 000000000000                2480             =         DC    XL6'0'              Reserved
                                    2481             =
 023570 00000000                    2482             =CVMSGCK  DC    F'0'                Clock
                                    2483             =CVMSG    DC    XL(&LINESZ)'00'     General message
 023574 0000000000000000                             +CVMSG    DC    XL(235)'00'         General message
                                    2484             =
 02365F 00
1GLOB     (GLOB5139) (12:46) (15MAR04) WYLBUR's Global Control Blocks                                                       Page   25
0Current Usings:  (CP,R11) (CV,R12)
0Loc    Object Code    Addr1 Addr2  Stmt Lv Lineno    Source Statement           (Hibal 5, Asmedit 3.3)  HLASM R4.0  2004/03/15 12.46
+___    ______ ____    _____ _____  ____ __ ______    ______ _________
0023660 00000000                    2485             =CVUMSGCK DC    F'0'                Clock
                                    2486             =CVUMSG   DC    XL(&LINESZ)'00'     User message
 023664 0000000000000000                             +CVUMSG   DC    XL(235)'00'         User message
                                    2487             =
 02374F 00
 023750 00000000                    2488             =CVAMSGCK DC    F'0'                Clock
                                    2489             =CVAMSG   DC    XL(&LINESZ)'00'     Accounting message
 023754 0000000000000000                             +CVAMSG   DC    XL(235)'00'         Accounting message
                                    2490             =
 02383F 00
 023840 00000000                    2491             =CVVMSGCK DC    F'0'                Clock
                                    2492             =CVVMSG   DC    XL(&LINESZ)'00'     View message
 023844 0000000000000000                             +CVVMSG   DC    XL(235)'00'         View message
                                    2493             =
 02392F 00
 023930 0000                        2494             =CVVOLCUR DC    H'0'                Next volume number to use
 023932 0000                        2495             =CVVOLMAX DC    H'0'                Maximum number of volumes
                                    2496             =CVVOL#   EQU   5                   No. of entries
 023934 0000000000000000            2497             =CVVOL    DC    XL(CVVOL#*6)'00'    Volume names
                                    2498             =
 023954                             2499             =CVCPUMUL DS    F                   CPU multiplication factor
                                    2500             =
 023958                             2501             =         DS    9F                  Reserved
 023980                             2502             =         DS    0D
                                    2503             =CVCHKPFX EQU   CVCHKST,*-CVCHKST,C'X'
                                    2504             =*
                                    2505             =*
 023980                             2506             =CVCHKST2 DS    0D        ********  Start of record suffix
 023980                             2507             =         DS    F                   Reserved
 023984 C5D5C4C3                    2508             =CVCHKEND DC    C'ENDC'
                                    2509             =CVCHKSFX EQU   CVCHKST2,*-CVCHKST2,C'X'
1GLOB     (GLOB5139) (12:46) (15MAR04) WYLBUR's Global Control Blocks                                                       Page   26
0Current Usings:  (CP,R11) (CV,R12)
0Loc    Object Code    Addr1 Addr2  Stmt Lv Lineno    Source Statement           (Hibal 5, Asmedit 3.3)  HLASM R4.0  2004/03/15 12.46
+___    ______ ____    _____ _____  ____ __ ______    ______ _________
0                                   2511             =***
                                    2512             =***  Allocated for Non-Stanford Use
                                    2513             =***
                                    2514             =         COPY  CVLOCAL
                                    2515             =***
                                    2516             =***  CVLOCAL -- Non-Stanford Definitions
                                    2517             =***
 023988                             2518             =         DS    XL384               Use me!
 023B08                23B08 23B08  2519             =         ORG
                                    2520             =
                                    2521             =CVSIZE   EQU   *-CVSTART
 023B08                23B08 22D28  2522                       ORG   CVFPFCB
 022D28 000001F8000007BC            2523                       DC    A(FRSTPFCB,ENDPFCB,SECPFCB)
 022D34                22D34 2322C  2524                       ORG   CVFRSG
 02322C 00000018                    2525                       DC    A(FRSTRSG)
 023230                23230 23230  2526                       ORG   CVRSG
 023230 000000CC0000003C            2527                       DC    A(IOWRSG,L'RSCGROUP,LASTRSG)
                                    2528
 02323C                2323C 22B5C  2529                       ORG   CVINSTAL            Installation name
                                    2530                       DC    CL8'&INSTALN'
 022B5C E2E3C1D5C6D6D9C4                             +         DC    CL8'STANFORD'
 022B64                22B64 22B6C  2531                       ORG   CVJES               Name of jes
 022B6C D1C5E2F2                    2532                       DC    CL4'JES2'
 022B70                22B70 22C94  2533                       ORG   CVNIPG
                                    2534                       DC    H'&WPGBUF'          No. of page buffers
 022C94 0032                                         +         DC    H'50'               No. of page buffers
 022C96                22C96 23B08  2535                       ORG
                                    2536              **         SPACE 2
                                    2537              **VERSION  CSECT
                                    2538              **         DC    CL(&LINESZ)'No version.'
1GLOB     (GLOB5139) (12:46) (15MAR04) WYLBUR's Global Control Blocks                                                       Page   27
0Current Usings:  (CP,R11) (CV,R12)
0Loc    Object Code    Addr1 Addr2  Stmt Lv Lineno    Source Statement           (Hibal 5, Asmedit 3.3)  HLASM R4.0  2004/03/15 12.46
+___    ______ ____    _____ _____  ____ __ ______    ______ _________
0                                   2540                       COPY  SCANCB
                                    2541             =*
                                    2542             =*  NSCNCB - NEW SCAN CONTROL BLOCK
                                    2543             =*
                                    2544             =*
 000000                00000 000B0  2545             =NSCNCB   RECORD BEGIN
 000000                             2553  1          =NSCNLOC    DS    A                   SCAN STRING (REMAINING) LOC
 000004                             2554  1          =NSCNLEN    DS    F                   SCAN STRING (REMAINING) LEN
 000008 00                          2555  1          =NSCNFLGS   FLAG  ,                   SCAN FLAGS
 NSCNFLGS.NSCNFBLK 80 ONES          2559  1          =           FLAG  NSCNFBLK            BLANK TOKENS AFTER SCANNING
 NSCNFLGS.NSCNFNOQ 40 ONES          2564  1          =           FLAG  NSCNFNOQ            IGNORE QUOTED STRINGS, PARENS
 00000C                             2569  1          =           DS    0F
 00000C                             2570  1          =NSCNRSV1   DS    F                   NOT USED
 000010                             2571  1          =NSCNTLOC   DS    A                   TOKEN LOC
 000014                             2572  1          =NSCNTLEN   DS    F                   TOKEN LEN
 000018 00                          2573  1          =NSCNTYPE   FLAG  ,
 NSCNTYPE.NSCNFNUL 80 ONES          2577  1          =           FLAG  NSCNFNUL            NULL SCAN
 NSCNTYPE.NSCNFTOK 40 ONES          2582  1          =           FLAG  NSCNFTOK            TOKEN
 NSCNTYPE.NSCNFINT 20 ONES          2587  1          =           FLAG  NSCNFINT            INTEGER
 NSCNTYPE.NSCNFLNO 10 ONES          2592  1          =           FLAG  NSCNFLNO            LINE NUMBER
 NSCNTYPE.NSCNFERR 08 ONES          2597  1          =           FLAG  NSCNFERR            ERROR
 00001C                             2602  1          =           DS    0F
 00001C                             2603  1          =NSCNTVAL   DS    F                   TOKEN VALUE (x1000 if lineno)
 000020                             2604  1          =NSCNSTOP   DS    A                   SKIP TRT TABLE
 000024                             2605  1          =NSCNSKIP   DS    A                   STOP TRT TABLE
 000028                             2606  1          =NSCNKWS    DS    A                   KEYWORD TABLE ADDRESS
 00002C                             2607  1          =NSCNRSV2   DS    A                   NOT USED
 000030                             2608  1          =NSCNTOK    DS    CL16                TOKEN, UPPER CASED BLANK PADDED
 000040                             2609  1          =NSCNCTOK   DS    CL16                TOKEN, NOT CASED, BLANK PADDED
 000050                             2610  1          =NSCNTOKL   DS    F                   TOKEN LENGTH, MAX(TOKEN LEN,16)
 000054                             2611  1          =NSCNRSV3   DS    2F                  NOT USED
 00005C                             2612  1          =NSCNMSGL   DS    F                   MSG LENGTH (FOR ERR MSGS)
 000060                             2613  1          =NSCNMSG    DS    CL80                MSG BUFFER
 0000B0                000B0 000B0  2614             =         END
                                    2623
 000000                00000 01000  2624              CP       RECORD BEGIN
                                    2632  1                      COPY  CP
 000000 C3D74040                    2633  1          =CPSTART    DC    CL4'CP'
                                    2634  1          =
 000004                             2635  1          =CPREGS     DS    16A                 Saved registers
                                    2636  1          =
 000044                             2637  1          =CPLEARNP   DS    F                   Learned word pageno
1GLOB     (GLOB5139) (12:46) (15MAR04) WYLBUR's Global Control Blocks                                                       Page   28
0Current Usings:  (CP,R11) (CV,R12)
0Loc    Object Code    Addr1 Addr2  Stmt Lv Lineno    Source Statement           (Hibal 5, Asmedit 3.3)  HLASM R4.0  2004/03/15 12.46
+___    ______ ____    _____ _____  ____ __ ______    ______ _________
0                                   2638= 1          =           ¿þþþþþþþþþþþþþþþþþþþþþþþþþþþþþþþþþþþþþþþþþþþþþþþþþþþþþþþþþþþþþþÜ
                                    2639= 1          =           Ÿ  The seg buffer is allocated when the CP is allocated.       Ÿ
                                    2640= 1          =           Ÿ  CPSEGBP points to the buffer and CPSEGBSZ is the actual     Ÿ
                                    2641= 1          =           Ÿ  size of the buffer.  This buffer is used both for terminal  Ÿ
                                    2642= 1          =           Ÿ  read and write data.                                        Ÿ
                                    2643= 1          =           Ÿ                                                              Ÿ
                                    2644= 1          =           Ÿ  The maximum amount of terminal input we can accept is       Ÿ
                                    2645= 1          =           Ÿ  "CPSEGMX#".  It's ok if this is larger than the current     Ÿ
                                    2646= 1          =           Ÿ  buffer size, because the terminal routines will check to    Ÿ
                                    2647= 1          =           Ÿ  see if everything will fit and will allocate a larger       Ÿ
                                    2648= 1          =           Ÿ  buffer if it wont.                                          Ÿ
                                    2649= 1          =           ¾þþþþþþþþþþþþþþþþþþþþþþþþþþþþþþþþþþþþþþþþþþþþþþþþþþþþþþþþþþþþþþ»
                                    2650  1          =CPSEGDF#   EQU   4096                Default seg buffer size
                                    2651  1          =CPSEGMX#   EQU   16384               Maximum allowed seg buffer size
 000048                             2652  1          =CPSEGBP    DS    A                   Terminal seg buffer pointer
 00004C                             2653  1          =CPSEGBSZ   DS    H                   Terminal seg buffer size
 00004E                             2654  1          =           DS    H                   Reserved
                                    2655  1          =
                                    2656  1          =CPSEG      SEGCB ,                   Seg buffer for terminal I/O
 000050 00                          2657  1 01-SEGCB +$$$SEGCB0   DS   0F
 CPSEGCOD.CPSEGSEG 01 EQ
 CPSEGCOD.CPSEGWR  02 EQ
 CPSEGCOD.CPSEGCLR 03 EQ
 CPSEGCOD.CPSEGSPP 04 EQ
 CPSEGCOD.CPSEGOVF 05 EQ
 CPSEGCOD.CPSEGCR  06 EQ
 CPSEGCOD.CPSEGMAR 07 EQ
 000051 00                          2732  1 01-SEGCB +           DC    X'00'               Reserved
 000052 0000                              1          +
 000054 00000000                    2733  1 01-SEGCB +CPSEGMAXF   DC   A(0)                Maximum buffer length
 000058 00000000                    2734  1 01-SEGCB +CPSEGMRKF   DC   A(0)                Length at last mark
 00005C 00000000                    2735  1 01-SEGCB +CPSEGLENF   DC   A(0)                Current length
 000060 00000000                    2736  1 01-SEGCB +CPSEGINDF   DC   A(0)                Overflow/indent count
 000064 00000000                    2737  1 01-SEGCB +CPSEGERR   DC    A(0)                Address of error recovery routine
 000068 0000000000000000            2738  1 01-SEGCB +           DC    2F'0'               Reserved
 000070 00000000                    2739  1 01-SEGCB +CPSEGLOC   DC    A(0)                Location of buffer
 000074 00000000                    2740  1 01-SEGCB +CPSEGRTN   DC    A(0)                Processing routine
 000078 0000000000000000            2741  1 01-SEGCB +           DC    4F'0'               Reserved
 000088 00000000                    2742  1 01-SEGCB +CPSEGUSR   DC    A(0)                USER field
                                    2743  1 01-SEGCB +CPSEG      EQU   $$$SEGCB0,*-$$$SEGCB0,C'X'
                                    2744  1          =
 00008C                             2745  1          =CPNSCANP   DS    A                   New SCANCB ptr (usually @CPNSCAN)
 000090                             2746  1          =CPNSCAN    DS    XL(L'NSCNCB)        New SCANCB area
1GLOB     (GLOB5139) (12:46) (15MAR04) WYLBUR's Global Control Blocks                                                       Page   29
0Current Usings:  (CP,R11) (CV,R12)
0D-Loc  Object Code    Addr1 Addr2  Stmt Lv Lineno    Source Statement           (Hibal 5, Asmedit 3.3)  HLASM R4.0  2004/03/15 12.46
+_____  ______ ____    _____ _____  ____ __ ______    ______ _________
0                                   2748= 1          =           ¿þþþþþþþþþþþþþþþþþþþþþþþþþþþþþþþÜ
                                    2749= 1          =           Ÿ  ORVYL Interface Information  Ÿ
                                    2750= 1          =           ¾þþþþþþþþþþþþþþþþþþþþþþþþþþþþþþþ»
 000140                             2751  1          =           DS    0F
 000140 00                          2752  1          =CPORVCMD   FLAG
 CPORVCMD.CPFREDT  80 ONES          2756  1          =           FLAG  CPFREDT             - Read  edit
 CPORVCMD.CPFWEDT  40 ONES          2761  1          =           FLAG  CPFWEDT             - Write edit
 CPORVCMD.CPFRTEXT 20 ONES          2766  1          =           FLAG  CPFRTEXT            - Read  text
 CPORVCMD.CPFWTEXT 10 ONES          2771  1          =           FLAG  CPFWTEXT            - Write text
 CPORVCMD.CPFCNTL  08 ONES          2776  1          =           FLAG  CPFCNTL             - Control
 CPORVCMD.CPFLKPP  04 ONES          2781  1          =           FLAG  CPFLKPP             - Locked page pass
 CPORVCMD.CPFVRSV1 02 ONES          2786  1          =           FLAG  CPFVRSV1            - Reserved
 CPORVCMD.CPFRCTRL 01 ONES          2791  1          =           FLAG  CPFRCTRL            - Read  control (see MILTEN/SIFT)
                                    2796  1          =
 000141                             2797  1          =           DS    XL7                 ORVYL info depending on CPORVCMD
                                    2798  1          =CPORVINF   EQU   CPORVCMD,*-CPORVCMD,C'X'
                                    2799  1          =
                                    2800  1          =CPORVMOD   EQU   *,2,C'X'            WYLBUR/ORVYL mode word
 000148                             2801  1          =CPORVCHR   DS    C                   ORVYL prompt character
                                    2802  1          =
 000149 00                          2803  1          =CPORVFLG   FLAG  ,                   ORVYL flags
 CPORVFLG.CPOFRSV  80 ONES          2807  1          =           FLAG  CPOFRSV             - Reserved
 CPORVFLG.CPOFNPAS 40 ONES          2812  1          =           FLAG  CPOFNPAS            - Pass syntactly incorrect cmds
 CPORVFLG.CPOFNSES 20 ONES          2817  1          =           FLAG  CPOFNSES            - No changes in a session break
 CPORVFLG.CPOFNALN 10 ONES          2822  1          =           FLAG  CPOFNALN            - ALIGN/JUSTIFY are blocked
 CPORVFLG.CPOFNNUM 08 ONES          2827  1          =           FLAG  CPOFNNUM            - NUMBER is blocked
 CPORVFLG.CPOFNCHG 04 ONES          2832  1          =           FLAG  CPOFNCHG            - ACTIVE file changes are blocked
 CPORVFLG.CPOFNFRM 02 ONES          2837  1          =           FLAG  CPOFNFRM            - Not used (was INFORM)
 CPORVFLG.CPOFPRST 01 ONES          2842  1          =           FLAG  CPOFPRST            - Return pressed lines
                                    2847  1          =
 00014C                             2848  1          =CPORVLNO   DS    F                   Last READ EDIT lineno (or -1)
                                    2849  1          =CPORV      EQU   CPORVCMD,*-CPORVCMD,C'X'
                                    2850= 1          =           ¿þþþþþþþþþþþþþþþþþþþþþþþþþþþþþþþþþþþþþþþþþþþþþþþþþþþþþþþþþþþÜ
                                    2851= 1          =           Ÿ  The following flag byte is NOT reset by clearing CPORV.  Ÿ
                                    2852= 1          =           Ÿ    They are flags for us to keep track of the last thing  Ÿ
                                    2853= 1          =           Ÿ    we sent to ORVYL.                                      Ÿ
                                    2854= 1          =           ¾þþþþþþþþþþþþþþþþþþþþþþþþþþþþþþþþþþþþþþþþþþþþþþþþþþþþþþþþþþþ»
 000150 00                          2855  1          =CPORVWF    FLAG
 CPORVWF.CPOFRPASS 80 ONES          2859  1          =           FLAG  CPOFRPASS           - RD EDIT sent because syn error
                                    2864  1          =
 000151                             2865  1          =           DS    XL3                 Reserved
                                    2866  1          =
 000154                             2867  1          =CPSYS      DS    CL8                 Last subsystem to give us control
 00015C                             2868  1          =CPORGSYS   DS    CL8                 Original subsystem we came from
 000164                             2869  1          =CPLGFSYS   DS    CL8                 Subsystem name to transfer to
 00016C                             2870  1          =           DS    CL8                 Reserved
1GLOB     (GLOB5139) (12:46) (15MAR04) WYLBUR's Global Control Blocks                                                       Page   30
0Current Usings:  (CP,R11) (CV,R12)
0D-Loc  Object Code    Addr1 Addr2  Stmt Lv Lineno    Source Statement           (Hibal 5, Asmedit 3.3)  HLASM R4.0  2004/03/15 12.46
+_____  ______ ____    _____ _____  ____ __ ______    ______ _________
0                                   2872  1          =CPINIT     EQU   *                   Start of fields zeroed at logon
 000174                             2873  1          =CPNAME     DS    CL20                User name (from KWRNAME)
 000188                             2874  1          =CPWPROJ    DS    CL8                 Project id ("WPROJECT")
 000190                             2875  1          =CPWAPP     DS    CL8                 Application info ("WAPP")
 000198                             2876  1          =CPUID      DS    CL32                User id (from KEYS file)
                                    2877  1          =
 0001B8                             2878  1          =CPACCTSV   DS    0CL5                Saved account
 0001B8                             2879  1          =CPUSERSV   DS    CL3                 .uuu
 0001BB                             2880  1          =CPGRPSV    DS    CL2                 .gg
                                    2881  1          =
 0001BD                             2882  1          =CPHOST     DS    CL32                Current host name
                                    2883  1          =
 0001E0                             2884  1          =CPNCOM     DS    F                   Number of commands executed
 0001E4                             2885  1          =CPNCOME    DS    F                   Number of commands in exec mode
                                    2886  1          =
 0001E8                             2887  1          =CPVTWAP    DS    A                   VTAM terminal work area
                                    2888  1          =
 0001EC                             2889  1          =CPNMAIL    DS    F                   Number of mail commands
                                    2890  1          =
 0001F0                             2891  1          =CPSECCNT   DS    H                   Security violation counter
 0001F4                             2892  1          =CPSECCLK   DS    F                   Security violation clock (STCK)
                                    2893  1          =
 0001F8                             2894  1          =CPSOF      DS    X                   Source of funds (see KWRSOF)
 0001F9                             2895  1          =CPAR       DS    X                   Accounts receivable (see KWRAR)
                                    2896  1          =CPSOF2     EQU   CPSOF,*-CPSOF,C'X'
                                    2897  1          =
 0001FA                             2898  1          =           DS    H                   Number of interruptable paths
                                    2899= 1          =           ¿þþþþþþþþþþþþþþþþþþþþþþþþþþþþþþþþþþþþþþþþþþþþþþþþþþþþþþþÜ
                                    2900= 1          =           Ÿ  DS    F                   Used by CPRACF1 now (PJG)  Ÿ
                                    2901= 1          =           ¾þþþþþþþþþþþþþþþþþþþþþþþþþþþþþþþþþþþþþþþþþþþþþþþþþþþþþþþ»
 0001FC 00                          2902  1          =CPRACF1    FLAG  ,                   Racf security interface flags
 CPRACF1.CPRACDEF  80 ONES          2906  1          =           FLAG  CPRACDEF              -  User has been identified
 CPRACF1.CPRACUND  40 ONES          2911  1          =           FLAG  CPRACUND              -  User is undefined to racf
 CPRACF1.CPRACPSW  20 ONES          2916  1          =           FLAG  CPRACPSW              -  User's password wrong
 CPRACF1.CPRACBAD  10 ONES          2921  1          =           FLAG  CPRACBAD              -  Undefined racinit error
 CPRACF1.CPRACRS1  08 ONES          2926  1          =           FLAG  CPRACRS1              -  Reserved
 CPRACF1.CPRACRS2  04 ONES          2931  1          =           FLAG  CPRACRS2              -  Reserved
 CPRACF1.CPRACRS3  02 ONES          2936  1          =           FLAG  CPRACRS3              -  Reserved
 CPRACF1.CPRACRS4  01 ONES          2941  1          =           FLAG  CPRACRS4              -  Reserved
 CPRACF1.CPRACXT   70 NZ            2946  1          =           FLAG  (CPRACXT,CPRACUND+CPRACPSW+CPRACBAD,NZ)
                                    2962  1          =
 0001FD 00                          2963  1          =           DC    AL1(0)              Reserved field
 0001FE 00                          2964  1          =CPRACFCI   DC    AL1(0)              Initial return code from racinit
 0001FF 00                          2965  1          =CPRACFCF   DC    AL1(0)              Final return code from racinit
                                    2966  1          =
 000200                             2967  1          =CPACEE     DS    A                   RACF ACEE pointer
 000204                             2968  1          =CPDENQP    DS    A                   DENQ'd dsname list ptr (DISK)
                                    2969  1          =
 000208                             2970  1          =CPWPATH    DS    CL8                 Alternate Wings path name
 000210                             2971  1          =CPWPATH1   DS    CL8                 Alternate Wings1 path name
 000218                             2972  1          =CPWPATH2   DS    CL8                 Alternate Wings2 path name
                                    2973  1          =
 000220                             2974  1          =CPNPATHS   DS    H                   Number of open UPATHs
 000222                             2975  1          =CPNNETS    DS    H                   Number of open UNETs
1GLOB     (GLOB5139) (12:46) (15MAR04) WYLBUR's Global Control Blocks                                                       Page   31
0Current Usings:  (CP,R11) (CV,R12)
0D-Loc  Object Code    Addr1 Addr2  Stmt Lv Lineno    Source Statement           (Hibal 5, Asmedit 3.3)  HLASM R4.0  2004/03/15 12.46
+_____  ______ ____    _____ _____  ____ __ ______    ______ _________
0                                   2976  1          =
 000224                             2977  1          =           DS    2A                  Reserved
                                    2978  1          =
 00022C 00000000                    2979  1          =CPQINFOQ   DC    A(0)                Query info queue head
 000230                             2980  1          =           DS    F'0'                Reserved
                                    2981  1          =
 000234                             2982  1          =           DS    3A                  Reserved
                                    2983  1          =
 000240                             2984  1          =CPCMDLEN   DS    H                   CPCMD length
                                    2985  1          =CPCMD      DS    CL(&LINESZ)         Current command text
 000242                                   1          +CPCMD      DS    CL(235)             Current command text
                                    2986  1          =
 000330                             2987  1          =CPHEAPCR   DS    A                   Current end of heap
                                    2988  1          =
 000338                             2989  1          =CPCLCK     DS    D                   Clock at last dispatch
                                    2990  1          =
 000340                             2991  1          =CPCMDRTN   DS    A                   Command exit routine addr
                                    2992  1          =
 000344                             2993  1          =           DS    0F
1GLOB     (GLOB5139) (12:46) (15MAR04) WYLBUR's Global Control Blocks                                                       Page   32
0Current Usings:  (CP,R11) (CV,R12)
0D-Loc  Object Code    Addr1 Addr2  Stmt Lv Lineno    Source Statement           (Hibal 5, Asmedit 3.3)  HLASM R4.0  2004/03/15 12.46
+_____  ______ ____    _____ _____  ____ __ ______    ______ _________
0                                   2995  1          =CPS        SIB   ,                   Session information block
 000344                             2997  1 01-SIB   +CPSSTART   DS    0F
 000344                             2998  1 01-SIB   +CPSID      DS    F                   Unique session number
 000348                             2999  1 01-SIB   +CPSNO      DS    H                   Session number
 00034A                             3000  1 01-SIB   +CPSTMINC   DS    H                   No. minutes session was idle
                                    3001  1 01-SIB   +CPSIHDR    EQU   CPSSTART,*-CPSSTART,C'X'
                                    3002  1          +
 00034C                             3003  1 01-SIB   +CPSFE      DS    CL8                 Front-end name
                                    3004  1          +
 000354                             3005  1 01-SIB   +CPSPORT    DS    CL8                 Port name
 00035C                             3006  1 01-SIB   +CPSPINFO   DS    CL20                Port information
 000370                             3007  1 01-SIB   +CPSPLOC    DS    CL20                Port location
 000384 00                          3008  1          +*
 CPSFL.CPSFDIAL    80 ONES
 CPSFL.CPSFSUN     40 ONES
 CPSFL.CPSFDIR     20 ONES
 CPSFL.CPSFGAND    10 ONES
 CPSFL.CPSFDUMB    08 ONES
 000385 00                          3038  1          +*
 CPSFL2.CPSFLEAS   80 ONES
 CPSFL2.CPSFTEL    40 ONES
 CPSFL2.CPSFTYM    20 ONES
 CPSFL2.CPSFRLIN   10 ONES
 000386 00                          3063  1          +*
 CPSFL3.CPSFPS     80 ONES
 CPSFL3.CPSFPTID   40 ONES
 CPSFL3.CPSFOP     20 ONES
 000387 00                          3083  1          +*
 CPSFL4.CPSFSTOP   80 ONES
 CPSFL4.CPSFDET    40 ONES
 CPSFL4.CPSFDUM    20 ONES
 000388 00                          3103  1          +*
 CPSFL5.CPSFDOWN   80 ONES
 CPSFL5.CPSFHU     40 ONES
 CPSFL5.CPSFERR    20 ONES
                                    3123  1          +*
 000389                             3124  1 01-SIB   +           DS    X                   Reserved
                                    3125  1 01-SIB   +CPSPIB     EQU   CPSPORT,*-CPSPORT,C'X'
                                    3126  1          +
 00038C 00                          3127  1 01-SIB   +CPS1ST     DS    0F
 CPSTYPE.CPSTCONS  01 EQ
 CPSTYPE.CPSTASYN  02 EQ
 CPSTYPE.CPSTPDP   03 EQ
 CPSTYPE.CPSTVTAM  04 EQ
 CPSTYPE.CPSTVIRT  05 EQ
 CPSTYPE.CPSTNSC   06 EQ
 CPSTYPE.CPSTELF   07 EQ
 CPSTYPE.CPSTALF   08 EQ
                                    3212  1          +
 00038D                             3213  1 01-SIB   +CPSTINFO   DS    XL2                 Terminal info flags
 00038F 00                          3214  1          +*
 CPSSTAT.CPSFDSC   80 ONES
 CPSSTAT.CPSFLGF   40 ONES
 CPSSTAT.CPSFSOF   20 ONES
1GLOB     (GLOB5139) (12:46) (15MAR04) WYLBUR's Global Control Blocks                                                       Page   33
0Current Usings:  (CP,R11) (CV,R12)
0D-Loc  Object Code    Addr1 Addr2  Stmt Lv Lineno    Source Statement           (Hibal 5, Asmedit 3.3)  HLASM R4.0  2004/03/15 12.46
+_____  ______ ____    _____ _____  ____ __ ______    ______ _________
0CPSSTAT.CPSFKL    10 ONES
 CPSSTAT.CPSFTO    08 ONES
 CPSSTAT.CPSFMT    04 ONES
 CPSSTAT.CPSFKEPT  02 ONES
                                    3254  1          +*
 000390                             3255  1 01-SIB   +CPSNMSG    DS    H                   No. of async msgs waiting
                                    3256  1          +
 000392                             3257  1 01-SIB   +CPSTETYP   DS    C                   SMF port type
 000393                             3258  1 01-SIB   +           DS    X                   Reserved (was line-speed)
                                    3259  1          +
 000394                             3260  1 01-SIB   +CPSSUB     DS    CL8                 Current subsystem
                                    3261  1          +
 00039C                             3262  1 01-SIB   +           DS    0F
 00039C                             3263  1 01-SIB   +CPSVPGM    DS    CL8                 ORVYL program
 0003A4                             3264  1 01-SIB   +CPSVCPU    DS    F                   ORVYL CPU time used
 0003A8                             3265  1 01-SIB   +CPSVFLAG   DS    X                   ORVYL flags
                                    3266  1 01-SIB   +CPSVFRUN   EQU   X'80'               - Program is running (not paused)
                                    3267  1 01-SIB   +CPSVFATH   EQU   X'40'               - Program is authorized
 0003A9                             3268  1 01-SIB   +CPSVDIO    DS    XL3                 ORVYL Disk I/O
                                    3269  1 01-SIB   +CPSVINFO   EQU   CPSVPGM,*-CPSVPGM,C'X'
                                    3270  1          +
 0003AC                             3271  1 01-SIB   +CPSLCLCK   DS    XL8                 Tod clock at logon
                                    3272  1          +
                                    3273  1 01-SIB   +CPSACCT    EQU   *,5,C'C'            Account (uuugg)
 0003B4                             3274  1 01-SIB   +CPSUSER    DS    CL3                 .uuu
 0003B7                             3275  1 01-SIB   +CPSGRP     DS    CL2                 .gg
 0003B9                             3276  1 01-SIB   +CPSANO     DS    XL2                 .number
 0003BB 00                          3277  1          +*
 CPSSFLG.CPSSFNAT  80 ONES
 CPSSFLG.CPSSFNAR  40 ONES
 CPSSFLG.CPSSFPS   20 ONES
 CPSSFLG.CPSSFOP   10 ONES
 CPSSFLG.CPSSFSEC  08 ONES
 CPSSFLG.CPSSFPRT  04 ONES
 0003BC 00                          3312  1          +*
 CPSTACF.CPSFNST   80 ONES
 CPSTACF.CPSFNTM   40 ONES
 CPSTACF.CPSRSVX20 20 ONES
 CPSTACF.CPSRSVX10 10 ONES
 CPSTACF.CPSRSVX08 08 ONES
 CPSTACF.CPSRSVX04 04 ONES
 CPSTACF.CPSFNDAY  02 ONES
 CPSTACF.CPSRSVX01 01 ONES
                                    3357  1          +*
 0003BD                             3358  1 01-SIB   +           DS    X                   Reserved
 0003BE 00                          3359  1          +*
 CPSKIFL.CPSFIVAL  80 ONES
 CPSKIFL.CPSFAPR   40 ONES
 CPSKIFL.CPSFSPR   20 ONES
 CPSKIFL.CPSFOPR   10 ONES
 CPSKIFL.CPSFSBM   08 ONES
 CPSKIFL.CPSFSUB   04 ONES
 CPSKIFL.CPSFADM   02 ONES
 CPSKIFL.CPSFPC    01 ONES
1GLOB     (GLOB5139) (12:46) (15MAR04) WYLBUR's Global Control Blocks                                                       Page   34
0Current Usings:  (CP,R11) (CV,R12)
0D-Loc  Object Code    Addr1 Addr2  Stmt Lv Lineno    Source Statement           (Hibal 5, Asmedit 3.3)  HLASM R4.0  2004/03/15 12.46
+_____  ______ ____    _____ _____  ____ __ ______    ______ _________
00003BF 00                          3404  1          +*
 CPSKAFL.CPSFAVAL  80 ONES
 CPSKAFL.CPSFR1    40 ONES
 CPSKAFL.CPSFR2    20 ONES
 CPSKAFL.CPSFR3    10 ONES
 CPSKAFL.CPSFTOK   08 ONES
                                    3434  1          +*
 0003C0                             3435  1 01-SIB   +CPSASCBP   DS    A                   ASCB addr, if virtual session
                                    3436  1 01-SIB   +CPSSESS    EQU   CPSACCT,*-CPSACCT,C'X'
                                    3437  1 01-SIB   +CPSINFO    EQU   CPSSTART,*-CPSSTART,C'X'
                                    3438  1          +***
                                    3439  1          +***  Fields below here can be modified by the user program.
                                    3440  1          +***
 0003C4                             3441  1 01-SIB   +CPSOPST    DS    0F
 0003C4                             3442  1 01-SIB   +CPSUC      DS    H                   Update count
 0003C6                             3443  1 01-SIB   +CPSNAME    DS    CL20                User name
 0003DA                             3444  1 01-SIB   +CPSTID     DS    CL8                 Terminal id
 0003E2 00                          3445  1 01-SIB   +CPSTCLS    DS    CL8                 Terminal class
 CPSTFLAG.CPSFMOD  80 ONES
 CPSTFLAG.CPSFSAM  40 ONES
 CPSTFLAG.CPSFALTD 20 ONES
                                    3465  1          +
 0003EB                             3466  1 01-SIB   +           DS    XL1                 Reserved
 0003EC 00                          3467  1          +*
 CPSQFLG.CPSFVFAST 80 ONES
 0003ED 00                          3477  1          +*
 0003EE 00                          3482  1          +*
 CPSUFLG.CPSFNMSG  80 ONES
 CPSUFLG.CPSFNCOM  40 ONES
 CPSUFLG.CPSFNBRK  20 ONES
 CPSUFLG.CPSFNTIM  10 ONES
 CPSUFLG.CPSFCLN   08 ONES
 CPSUFLG.CPSFDISP  04 ONES
 CPSUFLG.CPSFPERM  02 ONES
 CPSUFLG.CPSFTRAN  01 ONES
 0003EF 00                          3527  1          +*
 CPSUFLG2.CPSFTRC  80 ONES
 CPSUFLG2.CPSFKEEP 40 ONES
                                    3542  1 01-SIB   +CPSG       EQU   CPSSTART,*-CPSSTART,C'X'
                                    3543  1          +***
                                    3544  1          +***  Information below this line is considered "private" and
                                    3545  1          +***    the user can only sense it for his own session.
                                    3546  1          +***
 0003F0                             3547  1 01-SIB   +CPSPROJ    DS    CL8                 Project-id
 0003F8 00                          3548  1          +*
 CPSFLG.CPSFUPL    80 ONES
 CPSFLG.CPSFBACK   40 ONES
 CPSFLG.CPSFFAST   20 ONES
 CPSFLG.CPSFRSV8   10 ONES
 CPSFLG.CPSFPSP    08 ONES
 CPSFLG.CPSFXON    04 ONES
 CPSFLG.CPSFFILT   02 ONES
 CPSFLG.CPSFNECH   01 ONES
 0003F9 00                          3593  1          +*
1GLOB     (GLOB5139) (12:46) (15MAR04) WYLBUR's Global Control Blocks                                                       Page   35
0Current Usings:  (CP,R11) (CV,R12)
0D-Loc  Object Code    Addr1 Addr2  Stmt Lv Lineno    Source Statement           (Hibal 5, Asmedit 3.3)  HLASM R4.0  2004/03/15 12.46
+_____  ______ ____    _____ _____  ____ __ ______    ______ _________
0CPSFLG2.CPSFSAMFO 80 ONES
 CPSFLG2.CPSFERA   40 ONES
 CPSFLG2.CPSFNTYP  20 ONES
                                    3613  1          +*
 0003FA                             3614  1 01-SIB   +CPSINMX    DS    H                   Maximum input length allowed
 0003FC                             3615  1 01-SIB   +CPSOUMX    DS    H                   Maximum output length allowed
 0003FE                             3616  1 01-SIB   +CPSCHAR    DS    CL8                 Terminal translate table name
 000406                             3617  1 01-SIB   +CPSTABS    DS    XL16                Tabs
 000416 00                          3618  1          +*
 CPSOFLAG.CPSFPAR  80 ONES
 CPSOFLAG.CPSFEVEN 40 ONES
 CPSOFLAG.CPSFODD  20 ONES
 CPSOFLAG.CPSFMARK 10 ONES
 CPSOFLAG.CPSFQUIE 08 ONES
 000417                             3648  1 01-SIB   +           DS    X                   Reserved
 000418                             3649  1 01-SIB   +CPSWID     DS    H                   Terminal width, actual
 00041A                             3650  1 01-SIB   +CPSHEIP    DS    H                   Terminal height, before pausing
 00041C                             3651  1 01-SIB   +CPSHEI     DS    H                   Terminal height, actual
                                    3652  1          +
 00041E                             3653  1 01-SIB   +CPSTTYPE   DS    CL8                 Terminal type
 000426                             3654  1 01-SIB   +           DS    XL2                 Reserved
 000428                             3655  1 01-SIB   +CPSIPADR   DS    F                   IP address for TCP/IP sessions
 00042C                             3656  1 01-SIB   +           DS    XL2                 Reserved
                                    3657  1          +
 00042E                             3658  1 01-SIB   +CPSIDMAX   DS    H                   Max no. of idle minutes allowed
                                    3659  1          +
 000430                             3660  1 01-SIB   +CPSALTWID   DS   H                   Alternate width (0=none)
 000432                             3661  1 01-SIB   +CPSALTHEI   DS   H                   Alternate height (0=none)
                                    3662  1          +
 000434                             3663  1 01-SIB   +CPSCRI     DS    2H                  CR idles
 000438                             3664  1 01-SIB   +CPSLFI     DS    H                   LF idles
 00043A                             3665  1 01-SIB   +CPSHTI     DS    2H                  HT idles
 00043E                             3666  1 01-SIB   +CPSCAI     DS    H                   Cursor-address idles
 000440                             3667  1 01-SIB   +CPSCSI     DS    H                   Clear-screen idles
                                    3668  1 01-SIB   +CPSIDLE    EQU   CPSCRI,*-CPSCRI,C'X'
                                    3669  1          +
                                    3670  1 01-SIB   +CPSOPT     EQU   CPSOPST,*-CPSOPST,C'X'
                                    3671  1          +
                                    3672  1 01-SIB   +CPS1       EQU   CPS1ST,*-CPS1ST,C'X'
                                    3673  1          +
                                    3674  1 01-SIB   +CPS        EQU   CPSSTART,*-CPSSTART,C'X'
                                    3676  1          =
 000442                             3677  1          =           DS    0S(256-L'CPS)       Error if not enough room for sib
 000442                00442 00444  3678  1          =           ORG   CPS+256             (fuzzy room, for expansion)
                                    3679  1          =
                                    3680  1          =CPSIB      EQU   CPS,*-CPS,C'X'
                                    3681  1          =
 000444                             3682  1          =CPSPFL     DS    X                   Privilege flags
 000445                             3683  1          =           DS    XL3                 Reserved
                                    3684  1          =
 000448                             3685  1          =CPWCHAR    DS    CL16                Current WCHARGE component
                                    3686  1          =
 000458                             3687  1          =CPLACCT    DS    0CL5                Account prior to SET LOGON
 000458                             3688  1          =CPLUSER    DS    CL3                 .uuu
1GLOB     (GLOB5139) (12:46) (15MAR04) WYLBUR's Global Control Blocks                                                       Page   36
0Current Usings:  (CP,R11) (CV,R12)
0D-Loc  Object Code    Addr1 Addr2  Stmt Lv Lineno    Source Statement           (Hibal 5, Asmedit 3.3)  HLASM R4.0  2004/03/15 12.46
+_____  ______ ____    _____ _____  ____ __ ______    ______ _________
000045B                             3689  1          =CPLGRP     DS    CL2                 .gg
                                    3690  1          =
 00045D                             3691  1          =           DS    CL11                Reserved
                                    3692  1          =
 000468                             3693  1          =CPTTYPEP   DS    A                   TTYPE entry ptr
                                    3694  1          =
 00046C                             3695  1          =CPREND     DS    CL8                 Current rendition
1GLOB     (GLOB5139) (12:46) (15MAR04) WYLBUR's Global Control Blocks                                                       Page   37
0Current Usings:  (CP,R11) (CV,R12)
0D-Loc  Object Code    Addr1 Addr2  Stmt Lv Lineno    Source Statement           (Hibal 5, Asmedit 3.3)  HLASM R4.0  2004/03/15 12.46
+_____  ______ ____    _____ _____  ____ __ ______    ______ _________
0                                   3697= 1          =           ¿þþþþþþþþþþþþþþþþþþþþþÜ
                                    3698= 1          =           Ÿ  Global user flags  Ÿ
                                    3699= 1          =           ¾þþþþþþþþþþþþþþþþþþþþþ»
 000474 00                          3700  1          =CPGFLG1    FLAG
 CPGFLG1.CPGFCPR   80 ONES          3704  1          =           FLAG  CPGFCPR             - CPROMPT has been set
 CPGFLG1.CPFRCVY   40 ONES          3709  1          =           FLAG  CPFRCVY             - Recovery is in progress
 CPGFLG1.CPFSEC    20 ONES          3714  1          =           FLAG  CPFSEC              - Secure exec mode in effect
 CPGFLG1.CPFSLOCK  10 ONES          3719  1          =           FLAG  CPFSLOCK            - Secure and locked
 CPGFLG1.CPFSYSMV  08 ONES          3724  1          =           FLAG  CPFSYSMV            - Transferring to new subsystem
                                    3729  1          =
 000475 00                          3730  1          =CPGFLG2    FLAG
                                    3734  1          =*        EQU   X'20'               - Reserved
                                    3735  1          =CPFACTSV   EQU   X'01'               - Active file saved by rcvy
                                    3736  1          =
                                    3737  1          =CPLEXATO   EQU   X'10'               - Local flag for show exec
                                    3738  1          =CPFLIMIT   EQU   X'08'               - Local flag for show exec
                                    3739  1          =
 000476 00                          3740  1          =CPGFLG3    FLAG
                                    3744  1          =CPFKWENT   EQU   X'80'               - Keyword entered for set grp
                                    3745  1          =CPFCMDFX   EQU   X'40'               - Prompt for mod of cmd lines
                                    3746  1          =CPFCMDED   EQU   X'20'               - Edit cmd retry mode
                                    3747  1          =*        EQU   X'10'               - Reserved
                                    3748  1          =CPF3IMED   EQU   X'08'               - Implicit editing cmds ok
                                    3749  1          =*        EQU   X'04'               - Reserved
                                    3750  1          =*        EQU   X'02'               - Reserved
                                    3751  1          =CPF3EXBK   EQU   X'01'               - Break exec file at cmdprt
                                    3752  1          =
 000477 00                          3753  1          =CPGFLG4    FLAG
                                    3757  1          =CPFNPREP   EQU   X'80'               - Do not preprocess command
                                    3758  1          =CPFAUSET   EQU   X'40'               - Authorized account set
                                    3759  1          =CPF4TRUE   EQU   X'20'               - Last exec if command true
 CPGFLG4.CPFTYPED  10 ONES          3760  1          =           FLAG  (CPFTYPED,X'10')    - Command typed at terminal
 CPGFLG4.CPFEXNIN  08 ONES          3769  1          =           FLAG  (CPFEXNIN,X'08')    - Don't increment exec lineno
 CPGFLG4.CPFNPARM  04 ONES          3778  1          =           FLAG  (CPFNPARM,X'04')    - Exec "parm" not set
 CPGFLG4.CPFNDEF   02 ONES          3787  1          =           FLAG  (CPFNDEF,X'02')     - Do not do define substitution
 CPGFLG4.CPGFNLST  01 ONES          3796  1          =           FLAG  (CPGFNLST,X'01')    - Global nolist option
                                    3805  1          =
 000478 00                          3806  1          =CPGFLG5    FLAG
 CPGFLG5.CPGFMULT  80 ONES          3810  1          =           FLAG  CPGFMULT            - Allow multiple cmds on a line
 CPGFLG5.CPGFCLR   40 ONES          3815  1          =           FLAG  CPGFCLR             - Assume clear if no changes
 CPGFLG5.CPGFWR    20 ONES          3820  1          =           FLAG  CPGFWR              - Write has occurred (for "@ok")
 CPGFLG5.CPGFNCMD  10 ONES          3825  1          =           FLAG  CPGFNCMD            - New command waiting in CPCMD
 CPGFLG5.CPGFNATN  08 ONES          3830  1          =           FLAG  CPGFNATN            - Don't allow just attn for collect
 CPGFLG5.CPGFCMDA  04 ONES          3835  1          =           FLAG  CPGFCMDA            - Command waiting ended with attn
 CPGFLG5.CPGFRSV1  02 ONES          3840  1          =           FLAG  CPGFRSV1            - Reserved
 CPGFLG5.CPGFRSV2  01 ONES          3845  1          =           FLAG  CPGFRSV2            - Reserved
                                    3850  1          =
 000479 00                          3851  1          =CPGFLG6    FLAG  ,                   On Error flags
 CPGFLG6.CPFONERR  80 ONES          3855  1          =           FLAG  CPFONERR            On Error specified
 CPGFLG6.CPFDDERR  40 ONES          3860  1          =           FLAG  CPFDDERR            On Error specified, disabled
 CPGFLG6.CPFXXERR  20 ONES          3865  1          =           FLAG  CPFXXERR            Error has occurred
                                    3870  1          =
 00047A 00                          3871  1          =CPGFLG7    FLAG  ,                   On Attn flags
 CPGFLG7.CPFONATN  80 ONES          3875  1          =           FLAG  CPFONATN            On Attn specified
1GLOB     (GLOB5139) (12:46) (15MAR04) WYLBUR's Global Control Blocks                                                       Page   38
0Current Usings:  (CP,R11) (CV,R12)
0D-Loc  Object Code    Addr1 Addr2  Stmt Lv Lineno    Source Statement           (Hibal 5, Asmedit 3.3)  HLASM R4.0  2004/03/15 12.46
+_____  ______ ____    _____ _____  ____ __ ______    ______ _________
0CPGFLG7.CPFDDATN  40 ONES          3880  1          =           FLAG  CPFDDATN            On Attn specified, disabled
 CPGFLG7.CPFINATN  20 ONES          3885  1          =           FLAG  CPFINATN            On Attn ,commands interruptible
 CPGFLG7.CPFXXATN  10 ONES          3890  1          =           FLAG  CPFXXATN            Attn has occurred
                                    3895  1          =
 00047B 00                          3896  1          =CPGFLG8    FLAG  ,
 CPGFLG8.CPFTRY    80 ONES          3900  1          =           FLAG  CPFTRY              TRY command
 CPGFLG8.CPFXXTRY  40 ONES          3905  1          =           FLAG  CPFXXTRY            Special TRY flag, see CHECKTRY rtn
 CPGFLG8.CPFTATTN  20 ONES          3910  1          =           FLAG  CPFTATTN            Attn during last TRY
 CPGFLG8.CPFTERR   10 ONES          3915  1          =           FLAG  CPFTERR             Error during last TRY
                                    3920  1          =
 00047C 00                          3921  1 **ISU**  =CPGFLG9    FLAG  ,                   SIGNON process flags
 CPGFLG9.CPFSGNML  80 ONES          3925  1 **ISU**  =           FLAG  CPFSGNML            - Initial signon
                                    3930  1 **ISU**  =*                                    (not from another system)
 CPGFLG9.CPFSGNCM  40 ONES          3931  1 **ISU**  =           FLAG  CPFSGNCM            - First command has been provided
                                    3936  1          =
 00047D 00                          3937  1          =CPGFLG10   FLAG
 CPGFLG10.CPFVCMD  80 ONES          3941  1          =           FLAG  CPFVCMD             - Command for WYL from ORVYL
 CPGFLG10.CPFVEXED 40 ONES          3946  1          =           FLAG  CPFVEXED            - Cmd from ORV, pushed exec mode
 CPGFLG10.CPGFSAMT 20 ONES          3951  1          =           FLAG  CPGFSAMT            - Samson tracing turned on
 CPGFLG10.CPGFSAMD 10 ONES          3956  1          =           FLAG  CPGFSAMD            - Samson debug messages turned on
 CPGFLG10.CPGFSAMS 08 ONES          3961  1          =           FLAG  CPGFSAMSLOW         - Samson force slow FTP
 CPGFLG10.CPGFSAMN 04 ONES          3966  1          =           FLAG  CPGFSAMNFTPCRYPT    - Samson never encrypt FTP
                                    3971  1          =
 00047E 00                          3972  1          =CPGFLG11   FLAG  ,
 CPGFLG11.CPFNIZ   80 ONES          3976  1          =           FLAG  CPFNIZ              - NIZ mode (used for debugging)
 CPGFLG11.CPFAPRIL 40 ONES          3981  1          =           FLAG  CPFAPRILFOOL        - NIZ hacking
                                    3986  1          =
 00047F 00                          3987  1          =CPGFLG12   FLAG  ,
 CPGFLG12.CPFLEARN 80 ONES          3991  1          =           FLAG  CPFLEARN            - Words in user dictionary
 CPGFLG12.CPFBIGXM 40 ONES          3996  1          =           FLAG  CPFBIGXMON          - Big memory xmonitor user
 CPGFLG12.CPFNTMO  20 ONES          4001  1          =           FLAG  CPFNTMO             - No wings timeout, for ses debug
                                    4006  1          =
 000480 00                          4007  1          =CPGFLG13   FLAG  ,
 CPGFLG13.CPGFNOSP 80 ONES          4011  1          =           FLAG  CPGFNOSPIEDIT       - Never do "SPIRES mode" read edit
                                    4016  1          =
 000481 00                          4017  1          =CPGFLG14   FLAG  ,                   - Default file system (FDEF)
 CPGFLG14.CPGFFWIN 80 ONES          4021  1          =           FLAG  CPGFFWINGS
 CPGFLG14.CPGFFOLD 40 ONES          4026  1          =           FLAG  CPGFFOLDIBM
 CPGFLG14.CPGFFNET 20 ONES          4031  1          =           FLAG  CPGFFNET            Not used, delete 1/1/94
 CPGFLG14.CPGFFSAM 10 ONES          4036  1          =           FLAG  CPGFFSAM            Not used, delete 1/1/94
 CPGFLG14.CPGFFUNI 08 ONES          4041  1          =           FLAG  CPGFFUNIX           Not used, delete 1/1/94
                                    4046  1          =
 000482 00                          4047  1          =CPGFLG15   FLAG  ,
 000483 00                          4051  1          =CPGFLG16   FLAG  ,
                                    4055  1          =
                                    4056  1          =CPGFLGS    EQU   CPGFLG1,*-CPGFLG1,C'X'
1GLOB     (GLOB5139) (12:46) (15MAR04) WYLBUR's Global Control Blocks                                                       Page   39
0Current Usings:  (CP,R11) (CV,R12)
0D-Loc  Object Code    Addr1 Addr2  Stmt Lv Lineno    Source Statement           (Hibal 5, Asmedit 3.3)  HLASM R4.0  2004/03/15 12.46
+_____  ______ ____    _____ _____  ____ __ ______    ______ _________
0                                   4058= 1          =           ¿þþþþþþþþþþþþþþþþþþÜ
                                    4059= 1          =           Ÿ  Record Groups.  Ÿ
                                    4060= 1          =           ¾þþþþþþþþþþþþþþþþþþ»
                                    4061  1          =CPTEXT     RG    ,                   ACTIVE files
 000484                             4062  1 01-RG    +           DS    0H
 000484                             4063  1 01-RG    +CPTEXT     DS    XL32
                                    4064  1          =CPEXEC     RG    ,                   EXEC files
 0004A4                             4065  1 01-RG    +           DS    0H
 0004A4                             4066  1 01-RG    +CPEXEC     DS    XL32
                                    4067  1          =CPFLOW     RG    ,                   EXEC file flow control info
 0004C4                             4068  1 01-RG    +           DS    0H
 0004C4                             4069  1 01-RG    +CPFLOW     DS    XL32
                                    4070  1          =CPVARS     RG    ,                   EXEC variables
 0004E4                             4071  1 01-RG    +           DS    0H
 0004E4                             4072  1 01-RG    +CPVARS     DS    XL32
                                    4073  1          =CPDATA     RG    ,                   EXEC GETDATA/PUTDATA variables
 000504                             4074  1 01-RG    +           DS    0H
 000504                             4075  1 01-RG    +CPDATA     DS    XL32
                                    4076  1          =CPDATANL   EQU   32                  Name len of CPDATA
                                    4077  1          =CPRG16     RG    ,                   Misc RecGroup (name length=16)
 000524                             4078  1 01-RG    +           DS    0H
 000524                             4079  1 01-RG    +CPRG16     DS    XL32
                                    4080  1          =CPRG64     RG    ,                   Misc RecGroup (name length=64)
 000544                             4081  1 01-RG    +           DS    0H
 000544                             4082  1 01-RG    +CPRG64     DS    XL32
                                    4083  1          =CPRG16NL   EQU   16                  Name length of CPRG16
                                    4084  1          =CPRG64NL   EQU   64                  Name length of CPRG64
                                    4085  1          =CPNAMELN   EQU   16                  Name len for vars, procs, labels,
                                    4086  1          =*                                    etc, CPNAMELN must be 16 !!
                                    4087  1          =*
                                    4088  1          =*        Exec Flow record group set numbers
                                    4089  1          =CP#XOLD    EQU   2                   Old type EXEC File
                                    4090  1          =CP#XACT    EQU   3                   ACTIVE EXEC File
                                    4091  1          =CP#XTEMP   EQU   4                   Temp EXEC File
                                    4092  1          =CP#XSTK    EQU   16                  EXEC File stack
                                    4093  1          =CP#FEXEC   EQU   CP#XSTK             First EXEC file in stack
                                    4094  1          =CPMAXXCT   EQU   256                 Number of EXEC files in stack
                                    4095  1          =*
                                    4096  1          =*        Miscelleneous record group set numbers
                                    4097  1          =*
                                    4098  1          =CP#SYSV    EQU   2                   System variables set
                                    4099  1          =CP#DEF     EQU   3                   User define commands set
                                    4100  1          =CP#ABBR    EQU   4                   User define commands ABBREV list
                                    4101  1          =CP#LRN     EQU   5                   Learned words
                                    4102  1          =CP#XFILE   EQU   6                   Exec file table
                                    4103  1          =CP#OOPS    EQU   7                   OOPS (page mode undo) lines
                                    4104  1          =CP#SESV    EQU   8                   Session (SES.) variables
                                    4105  1          =CP#DEBUG   EQU   9                   Exec Debug information
                                    4106  1          =CP#DSTOP   EQU   10                  Exec Debug stops info
                                    4107  1          =CP#MRAW    EQU   11                  Exec Monitor raw data
                                    4108  1          =CP#MSUM    EQU   12                  Exec Monitor summary data
                                    4109  1          =CP#MNAME   EQU   14                  Exec Monitor exec name data
                                    4110  1          =CP#LTRAP   EQU   15                  Line number traps
                                    4111  1          =CP#NTRAP   EQU   16                  Proc name traps
1GLOB     (GLOB5139) (12:46) (15MAR04) WYLBUR's Global Control Blocks                                                       Page   40
0Current Usings:  (CP,R11) (CV,R12)
0D-Loc  Object Code    Addr1 Addr2  Stmt Lv Lineno    Source Statement           (Hibal 5, Asmedit 3.3)  HLASM R4.0  2004/03/15 12.46
+_____  ______ ____    _____ _____  ____ __ ______    ______ _________
0                                   4112  1          =CP#RTRAP   EQU   17                  Proc return traps
                                    4113  1          =CP#HOSTI   EQU   18                  Saved host user/password info
                                    4114  1          =CP#FSDEF   EQU   19                  File System definitions
                                    4115  1          =CP#MAIL    EQU   20                  MAIL command info
                                    4116= 1          =           ¿þþþþþþþþþþþþþþþþþþþþþþþþþþþþþþþþþþþþþþþÜ
                                    4117= 1          =           Ÿ  Additional Active file information.  Ÿ
                                    4118= 1          =           ¾þþþþþþþþþþþþþþþþþþþþþþþþþþþþþþþþþþþþþþþ»
                                    4119  1          =CPATLIM#   EQU   16*1024*1024        Absolute maximum Active size
                                    4120  1          =CPATBIG#   EQU   10*1024*1024        Large Active threshold
                                    4121  1          =CPATMAX#   EQU   1024*1024           Purge old cleared Actives thresh
                                    4122  1          =CPATMIN#   EQU   512*1024            Purge until under this threshold
 000564                             4123  1          =CPATBYTS   DS    F                   Total no. bytes in all Actives
 000568                             4124  1          =CPATCLR    DS    F                   Number of cleared   Active files
 00056C                             4125  1          =CPATTEXT   DS    F                   Number of text      Active files
 000570                             4126  1          =CPATTEMP   DS    F                   Number of temporary Active files
 000574                             4127  1          =           DS    F                   Reserved
                                    4128  1          =
 000578                             4129  1          =CPATLINS   DS    F                   Total no. lines in all Actives
                                    4130  1          =
 00057C                             4131  1          =CPACTNO    DS    F                   Current Active file number
 000580                             4132  1          =CPACTMAX   DS    F                   Maximum Active file number
 000584                             4133  1          =           DS    F                   Reserved
                                    4134  1          =
                                    4135  1          =CPA        AINFO ,                   Current Active file information
                                    4137+ 1          +           ¿þþþþþþþþþþþþþþþþþþþþþþþþþþþþþþþþþþþþþþþþþþþþþþþþþþþþþÜ
                                    4138+ 1          +           Ÿ  Active file information.                           Ÿ
                                    4139+ 1          +           Ÿ    This information is kept with each Active file.  Ÿ
                                    4140+ 1          +           ¾þþþþþþþþþþþþþþþþþþþþþþþþþþþþþþþþþþþþþþþþþþþþþþþþþþþþþ»
 000588                             4141  1 01-AINFO +CPANAME    DS    CL8                 Active file name
 000590                             4142  1 01-AINFO +CPATYPE    DS    CL8                 Active file type
                                    4143  1          +
 000598                             4144  1 01-AINFO +CPANXNO    DS    F                   Next Active file set number
 00059C                             4145  1 01-AINFO +CPAPRNO    DS    F                   Previous Active file set number
                                    4146  1          +
 0005A0                             4147  1 01-AINFO +CPAFLNO    DS    F                   First line-number
 0005A4                             4148  1 01-AINFO +CPALLNO    DS    F                   Last line-number
 0005A8                             4149  1 01-AINFO +CPACLNO    DS    F                   Current line-number
 0005AC                             4150  1 01-AINFO +CPALNCT    DS    F                   Line count
 0005B0                             4151  1 01-AINFO +CPABYCT    DS    F                   Byte count
 0005B4                             4152  1 01-AINFO +CPACHCT    DS    F                   Change count
 0005B8                             4153  1 01-AINFO +CPAICLK    DS    F                   Clock when initially created
 0005BC                             4154  1 01-AINFO +           DS    F                   Reserved
 0005C0                             4155  1 01-AINFO +           DS    XL3                 Reserved
 0005C3 00                          4156  1          +*
 CPAFLAG.CPAFCLR   80 ONES
 CPAFLAG.CPAFPRT   40 ONES
 CPAFLAG.CPAFDEF   20 ONES
 CPAFLAG.CPAFLOCK  10 ONES
                                    4181  1          +*
1GLOB     (GLOB5139) (12:46) (15MAR04) WYLBUR's Global Control Blocks                                                       Page   41
0Current Usings:  (CP,R11) (CV,R12)
0D-Loc  Object Code    Addr1 Addr2  Stmt Lv Lineno    Source Statement           (Hibal 5, Asmedit 3.3)  HLASM R4.0  2004/03/15 12.46
+_____  ______ ____    _____ _____  ____ __ ______    ______ _________
0                                   4184+ 1          +     ¿þþþþþþþþþþþþþþþþþþþþþþþþþþþþþþþþþþþþþþÜ
                                    4185+ 1          +     Ÿ  Collect command saved information.  Ÿ
                                    4186+ 1          +     ¾þþþþþþþþþþþþþþþþþþþþþþþþþþþþþþþþþþþþþþ»
 0005C4                             4187  1 02-COLIN +CPACFLN    DS    F                   Lineno before first collected
 0005C8                             4188  1 02-COLIN +CPACNLN    DS    F          [Order]  Next lineno to use
 0005CC                             4189  1 02-COLIN +CPACDEL    DS    F          [Order]  Delta
 0005D0                             4190  1 02-COLIN +CPACLEN    DS    H                   Line warning length
 0005D2                             4191  1 02-COLIN +CPACCNT    DS    H                   No. of lines to collect
 0005D4 00                          4192  1 02-COLIN +CPACFG5    DS    X                   Copy of CPLFLG5
 CPACFLG.CPACFMR   80 ONES
 CPACFLG.CPACFCS   40 ONES
 CPACFLG.CPACFUP   20 ONES
 CPACFLG.CPACFRN   10 ONES
 CPACFLG.CPACFPG   08 ONES
                                    4222  1 02-COLIN +CPACINFO   EQU   CPACFLN,*-CPACFLN,C'X'
                                    4224+ 1          +           ¿þþþþþþþþþþþþþþþþþþþþþþþþþþþþþþþþþþþþþþþþþþÜ
                                    4225+ 1          +           Ÿ  Title,File name/host/type information.  Ÿ
                                    4226+ 1          +           ¾þþþþþþþþþþþþþþþþþþþþþþþþþþþþþþþþþþþþþþþþþþ»
 0005D6 00                          4227  1 01-AINFO +CPATITL    DS    CL80                Active file title area
 000628                             4232  1 01-AINFO +CPAFNAMEL   DS   F                   File name length
 00062C                             4233  1 01-AINFO +CPAFNAME   DS    CL128               File name
 0006AC                             4234  1 01-AINFO +CPAHOSTL   DS    F                   Host name length
 0006B0                             4235  1 01-AINFO +CPAHOST    DS    CL128               Host name
                                    4236  1          +
                                    4237  1 01-AINFO +CPAINFO    EQU   CPANAME,*-CPANAME,C'X'
                                    4239  1          =
 000730                             4240  1          =CPRCVCUR   DS    A                   Current recovery volume ptr
 000734                             4241  1          =CPRCVEND   DS    A                   Ending recovery volume ptr
                                    4242  1          =CPRCV      EQU   CPRCVCUR,*-CPRCVCUR,C'X'
                                    4243  1          =
 000738                             4244  1          =CPDELTA    DS    F                   Global delta
                                    4245  1          =
 00073C                             4246  1          =CPLCNO     DS    F                   Last located line-number
 000740                             4247  1          =CPSTLNO    DS    F                   Last line-number stowed
                                    4248  1          =
 000744                             4249  1          =CPCOUNT    DS    F                   Number of lines in last COUNT
                                    4250  1          =
 000748                             4251  1          =CPBLKACT   DS    F                   BLOCK's Active file number
 00074C                             4252  1          =CPFBKLNO   DS    F                   FBLOCK line-number
 000750                             4253  1          =CPLBKLNO   DS    F                   LBLOCK line-number
 000754                             4254  1          =CPFBKCOL   DS    H                   FBLOCK column number
 000756                             4255  1          =CPLBKCOL   DS    H                   LBLOCK column number (0=eol)
                                    4256= 1          =           ¿þþþþþþþþþþþþþþþþþþþþþþþþþþþþþþþþþþþþþÜ
                                    4257= 1          =           Ÿ  Additional EXEC file information.  Ÿ
                                    4258= 1          =           ¾þþþþþþþþþþþþþþþþþþþþþþþþþþþþþþþþþþþþþ»
 000758 00                          4259  1          =CPEXFLG    FLAG  ,
 CPEXFLG.CPFEXEC   80 ONES          4263  1          =           FLAG  CPFEXEC             - Exec Mode in effect
                                    4268  1          =* note CPFXTEND, CPFXOLD flags are set only if CPFEXEC is set too!
 000759 00                          4269  1          =CPEXFLG2   FLAG  ,
 CPEXFLG2.CPFXTEND 01 EQ            4273  1          =           FLAG  (CPFXTEND,1,EQ)     - Extended exec file executing
 CPEXFLG2.CPFXOLD  02 EQ            4283  1          =           FLAG  (CPFXOLD,2,EQ)      - Old exec file executing
                                    4293  1          =* Caution: Authorized Execs MUST be well behaved!  That is, they
                                    4294  1          =* must not break or pause and must terminate via XRETURN command.
 00075A 00                          4295  1          =CPEXFLG3   FLAG  ,
1GLOB     (GLOB5139) (12:46) (15MAR04) WYLBUR's Global Control Blocks                                                       Page   42
0Current Usings:  (CP,R11) (CV,R12)
0D-Loc  Object Code    Addr1 Addr2  Stmt Lv Lineno    Source Statement           (Hibal 5, Asmedit 3.3)  HLASM R4.0  2004/03/15 12.46
+_____  ______ ____    _____ _____  ____ __ ______    ______ _________
0CPEXFLG3.CPFXAUTH 80 ONES          4299  1          =           FLAG  CPFXAUTHLIB         - Authorized Exec library
 CPEXFLG3.CPFXAUTH 40 ONES          4304  1          =           FLAG  CPFXAUTH            - Authorized Exec
 00075B 00                          4309  1          =CPEXFLG4   FLAG  ,                   Not used
                                    4313  1          =
 00075C                             4314  1          =CPEXLINE   DS    F                   Exec file line number
 000760                             4315  1          =CPEXNEXT   DS    F                   Next EXEC file line number
 000764                             4316  1          =CPRETURN   DS    F                   Exec file return variable
                                    4317  1          =
 000768                             4318  1          =CPSCOPE    DS    F                   Start of current scope
 00076C                             4319  1          =CPSCOPD    DS    F                   End of current scope
 000770                             4320  1          =CPXSCOPE   DS    F                   Start of current XPROC scope
 000774                             4321  1          =CPXSCOPD   DS    F                   End of current XPROC scope
                                    4322  1          =
 000778                             4323  1          =CP#XSET    DS    F                   Current EXEC file set number
 00077C                             4324  1          =CPRGEXEC   DS    F                   Current EXEC RGroup info pointer
 000780                             4325  1          =CPRGFLOW   DS    F                   Current FLOW RGroup info pointer
                                    4326  1          =
 000784                             4327  1          =CP#XLOAD   DS    F                   EXEC file set number for load
 000788                             4328  1          =CPRGLOAD   DS    F                   EXEC RGroup info pointer for load
 00078C                             4329  1          =CPRGFC     DS    F                   FLOW RGroup info pointer for load
                                    4330  1          =
 000790                             4331  1          =CPXNAME    DS    CL(64)   not set !  EXEC, XPROC name (=L'XDSNAME)
 0007D0                             4332  1          =CPPROCNM   DS    CL(CPNAMELN)        EXEC procedure name
                                    4333  1          =
 0007E0                             4334  1          =CPLIMIT    DS    H                   No. of cmds without waring
 0007E2                             4335  1          =CPLLIMIT   DS    H                   Local no. of cmds limit
                                    4336  1          =
 0007E4 00                          4337  1          =CPFXDFLG   FLAG
 CPFXDFLG.CPFXDUMP 80 ONES          4341  1          =           FLAG  CPFXDUMP            exec dump flag
 CPFXDFLG.CPFXQT   40 ONES          4346  1          =           FLAG  CPFXQT              exec quiet flag (not implemented)
 0007E8                             4351  1          =CPXDPLN    DS    F                   LAST LINE DUMPED (-1 IF NONE)
 0007EC                             4352  1          =CPXDPNLN   DS    F                   NEXT LINE TO DUMP
 0007F0                             4353  1          =CPXDPACT   DS    F                   DUMP ACTIVE FILE
 0007F4                             4354  1          =CPXDPDLT   DS    F                   DUMP DELTA
                                    4355= 1          =           ¿þþþþþþþþþþþþþþþþþþþþþþþþþþþþþþþþþþþþþþþþþþþþþþþþþþþþþþþþþþþþþÜ
                                    4356= 1          =           Ÿ  Additional CP exec state info, initialized to zero and     Ÿ
                                    4357= 1          =           Ÿ  pushed, popped with the dynamic exec state info during     Ÿ
                                    4358= 1          =           Ÿ  execution, if you add anything to CPXSTATE area (ended by  Ÿ
                                    4359= 1          =           Ÿ  CPXPUSH), you must reassemble XCALL module.                Ÿ
                                    4360= 1          =           ¾þþþþþþþþþþþþþþþþþþþþþþþþþþþþþþþþþþþþþþþþþþþþþþþþþþþþþþþþþþþþþ»
 0007F8                             4361  1          =CPXSTATE   DS    0F                  EXEC state info, pushed
 0007F8                             4362  1          =CPPACCT    DS    0CL5                EXEC pseudo account
 0007F8                             4363  1          =CPPUSER    DS    CL3                 .uuu
 0007FB                             4364  1          =CPPGRP     DS    CL2                 .gg
 0007FD 00                          4365  1          =CPXFLAG    FLAG  ,
 CPXFLAG.CPFXOVER  80 ONES          4369  1          =           FLAG  CPFXOVER            - Overhead mode (no charging)
                                    4374  1          =CPXPUSH    EQU   CPXSTATE,*-CPXSTATE,C'X'
                                    4375  1          =
 0007FE                             4376  1          =CPCPLEN    DS    H                   Command prompt length
 000800                             4377  1          =CPCPRMT    DS    CL62                Command prompt text
1GLOB     (GLOB5139) (12:46) (15MAR04) WYLBUR's Global Control Blocks                                                       Page   43
0Current Usings:  (CP,R11) (CV,R12)
0D-Loc  Object Code    Addr1 Addr2  Stmt Lv Lineno    Source Statement           (Hibal 5, Asmedit 3.3)  HLASM R4.0  2004/03/15 12.46
+_____  ______ ____    _____ _____  ____ __ ______    ______ _________
0                                   4378= 1          =           ¿þþþþþþþþþþþþþþþþþþþþþþþþþþþþþþþþÜ
                                    4379= 1          =           Ÿ  Additional VARS information.  Ÿ
                                    4380= 1          =           ¾þþþþþþþþþþþþþþþþþþþþþþþþþþþþþþþþ»
 000840                             4381  1          =CPARRAY#   DS    F                   Next Array ID #, Global counter
 000844                             4382  1          =CPVSET#    DS    F                   Variable stack set number
 000848                             4383  1          =CPXVSET#   DS    F                   Last XCALL var stack set number
                                    4384  1          =
                                    4385  1          =CPPLIMIT   EQU   8                   MAX # OF PARMS
                                    4386  1          =CPSLIMIT   EQU   3                   MAX # OF SUBSCRIPTS (MUST BE 3)
                                    4387= 1          =           ¿þþþþþþþþþþþþþþþþþþþþþþþþþþþþþþÜ
                                    4388= 1          =           Ÿ  Debug/Monitor Information.  Ÿ
                                    4389= 1          =           ¾þþþþþþþþþþþþþþþþþþþþþþþþþþþþþþ»
 00084C 00                          4390  1          =CPDFLG     FLAG  ,                   Debug flags
 CPDFLG.CPFDEBUG   80 ONES          4394  1          =           FLAG  CPFDEBUG            Debugging mode on
 CPDFLG.CPFTRACE   40 ONES          4399  1          =           FLAG  CPFTRACE            Debug trace on
 CPDFLG.CPFTTRAP   20 ONES          4404  1          =           FLAG  CPFTTRAP            Debug trace w/trap on
 CPDFLG.CPFXLOG    10 ONES          4409  1          =           FLAG  CPFXLOG             Log all exec/xproc commands
 CPDFLG.CPFLOG     08 ONES          4414  1          =           FLAG  CPFLOG              Log all old exec commands (only)
 00084D 00                          4419  1          =CPDFLG2    FLAG  ,
 CPDFLG2.CPFDNEXT  80 ONES          4423  1          =           FLAG  CPFDNEXT            Exec trap next command
 CPDFLG2.CPFDSTOP  40 ONES          4428  1          =           FLAG  CPFDSTOP            Exec trap this command
 CPDFLG2.CPFDSTPD  20 ONES          4433  1          =           FLAG  CPFDSTPD            Exec command stopped
 CPDFLG2.CPFISTOP  10 ONES          4438  1          =           FLAG  CPFISTOP            Immediate stop at this command
 CPDFLG2.CPFISTPD  08 ONES          4443  1          =           FLAG  CPFISTPD            Immediate stop stopped
 CPDFLG2.CPFIDONE  04 ONES          4448  1          =           FLAG  CPFIDONE            Immediate stopped done
 00084E 00                          4453  1          =CPDFLG3    FLAG  ,
 00084F 00                          4457  1          =CPMFLG     FLAG  ,                   Exec monitor flags
 CPMFLG.CPFMON     80 ONES          4461  1          =           FLAG  CPFMON              Monitor exec execution
 000850                             4466  1          =CPTRAPSQ   DS    F                   Unique debug trap identfier
 000854                             4467  1          =CPMONPTR   DS    F                   Ptr to monitor memory block
 000858                             4468  1          =CPMONCPU   DS    F                   Monitor cmd timer in tu's
 00085C                             4469  1          =CPMONMAX   DS    F                   Max memory to get for monitor
1GLOB     (GLOB5139) (12:46) (15MAR04) WYLBUR's Global Control Blocks                                                       Page   44
0Current Usings:  (CP,R11) (CV,R12)
0D-Loc  Object Code    Addr1 Addr2  Stmt Lv Lineno    Source Statement           (Hibal 5, Asmedit 3.3)  HLASM R4.0  2004/03/15 12.46
+_____  ______ ____    _____ _____  ____ __ ______    ______ _________
0                                   4471= 1          =           ¿þþþþþþþþþþþþþþþþþþþþþþÜ
                                    4472= 1          =           Ÿ  Miscelleneous info  Ÿ
                                    4473= 1          =           ¾þþþþþþþþþþþþþþþþþþþþþþ»
 000860                             4474  1          =CPLOCLCP   DS    F                   CP extension (Getmain'd area)
                                    4475  1          =
 000864                             4476  1          =CPGETSTK   DS    F                   Pointer to GETSTACK (GETMAINed)
 000868                             4477  1          =CPGETLN    DS    H                   Size of GETSTACK
                                    4478  1          =
                                    4479  1          =CPHCMD#    EQU   100                 Maximum number of saved cmds
 00086A                             4480  1          =CPHCMDNO   DS    H                   Current command number
 00086C                             4481  1          =CPHCMDMX   DS    H                   No. of saved commands to display
 00086E                             4482  1          =CPHCMDCR   DS    H                   Current no. of saved commands
 000870                             4483  1          =CPHCMDQH   DS    A                   History command list queue head
 000874                             4484  1          =CPHCMDQT   DS    A                   History command list queue tail
                                    4485  1          =
 000878                             4486  1          =CPKWRID    DS    F                   Logged on user's kwr record no.
 00087C                             4487  1          =CPLGNCT    DS    H                   No. of logon attempts
                                    4488  1          =
 00087E                             4489  1          =CPLENGTH   DS    H                   Line length
 000880                             4490  1          =CPVOLUME   DS    CL6                 Volume
 000886                             4491  1          =CPERRID    DS    CL8                 Error id
 00088E                             4492  1          =CPOERRID   DS    CL8                 Prev cmds error id
                                    4493  1          =
 000898                             4494  1          =CPEXABRT   DS    F                   EXEC "ON ABORT" line#
 00089C                             4495  1          =CPEXATTN   DS    F                   EXEC "ON ATTN" line#
 0008A0                             4496  1          =CPATTNCT   DS    H                   Attention count
                                    4497  1          =
 0008A2                             4498  1          =           DS    H                   Reserved  (what is this Niz ??)
                                    4499  1          =
 0008A4                             4500  1          =CPAUTHUS   DS    CL3                 Authorized user
 0008A7                             4501  1          =CPAUTHGP   DS    CL2                 Authorized group
                                    4502  1          =
 0008A9 00                          4503  1          =CPAUTFLG   FLAG  ,                   Logon flags
 CPAUTFLG.CPFAUSE  80 ONES          4507  1          =           FLAG  CPFAUSE             - Doing use of active
 CPAUTFLG.CPFGREET 40 ONES          4512  1          =           FLAG  CPFGREET            - Greetings msg given
 CPAUTFLG.CPFWORD  20 ONES          4517  1          =           FLAG  CPFWORD             - User knows the word
 CPAUTFLG.CPFLMSG  10 ONES          4522  1          =           FLAG  CPFLMSG             - Logon msgs displayed
                                    4527  1          =
 0008AA 00                          4528  1          =CPRFLG     FLAG
 CPRFLG.CPRFEXT    80 ONES          4532  1          =           FLAG  CPRFEXT             - External (disk) path is owned
 CPRFLG.CPRFSUB    40 ONES          4537  1          =           FLAG  CPRFSUB             - Submit path is owned
 CPRFLG.CPRFJES    20 ONES          4542  1          =           FLAG  CPRFJES             - Jes command path is owned
 CPRFLG.CPRFKWR    10 ONES          4547  1          =           FLAG  CPRFKWR             - Kwr resource is owned
 CPRFLG.CPRFKEYS   08 ONES          4552  1          =           FLAG  CPRFKEYS            - Keys resource is owned
 CPRFLG.CPRFDICT   04 ONES          4557  1          =           FLAG  CPRFDICT            - Dictionary is owned
                                    4562  1          =
 0008AB                             4563  1          =CPLIB      DS    CL8                 Default library
 0008B4                             4564  1          =CPEXCMCT   DS    H                   Exec command loop count
 0008B6                             4565  1          =CPWRNCNT   DS    H                   Warn chng cnt on clear rqst
 0008B8                             4566  1          =CPRSCNVL   DS    H                   Rescan limit for pre-proc
 0008BA                             4567  1          =CPESCAPE   DS    C                   Current escape character
 0008BB                             4568  1          =CPSKIP     DS    C                   Current skip character
 0008BC                             4569  1          =CPORVYL    DS    CL8                 ORVYL subsystem name
 0008C4                             4570  1          =           DS    F                   Reserved
1GLOB     (GLOB5139) (12:46) (15MAR04) WYLBUR's Global Control Blocks                                                       Page   45
0Current Usings:  (CP,R11) (CV,R12)
0D-Loc  Object Code    Addr1 Addr2  Stmt Lv Lineno    Source Statement           (Hibal 5, Asmedit 3.3)  HLASM R4.0  2004/03/15 12.46
+_____  ______ ____    _____ _____  ____ __ ______    ______ _________
00008C8                             4571  1          =CPXCMDP    DS    A                   ???? delete next time around
 0008CC                             4572  1          =CPTIOCLK   DS    F                   Clock at last terminal I/O
                                    4573  1          =
 0008D0                             4574  1          =CPCHAZ     DS    F                   Charley Hoyt's word
 0008D4                             4575  1          =CPCHAZF    DS    F                   Charley's full word
 0008D8                             4576  1          =           DS    2F                  Charley is greedy
 0008E0                             4577  1          =CPOHYEAH   DS    CL64                This is Charley's
                                    4578  1          =
 000920                             4579  1          =           DS    0F
                                    4580  1          =CPTEMPP#   EQU   95                  Max. no of temp pages
 000920                             4581  1          =CPTEMPNP   DS    H                   Offset to next free pageno
 000922                             4582  1          =CPTEMPPG   DS    (CPTEMPP#)H         Pageno's of temporary pages
1GLOB     (GLOB5139) (12:46) (15MAR04) WYLBUR's Global Control Blocks                                                       Page   46
0Current Usings:  (CP,R11) (CV,R12)
0D-Loc  Object Code    Addr1 Addr2  Stmt Lv Lineno    Source Statement           (Hibal 5, Asmedit 3.3)  HLASM R4.0  2004/03/15 12.46
+_____  ______ ____    _____ _____  ____ __ ______    ______ _________
00009E0                             4584  1          =           DS    0F
                                    4585  1          =*  Note that for the JES interface, the CPJESHFL must be
                                    4586  1          =*  defined the same as the HCBFGBL flag byte in the HCB.
 0009E0 00                          4587  1          =CPJESHFL   FLAG
 CPJESHFL.CPJFTER  80 ONES          4591  1          =           FLAG  CPJFTER             - Jes terse mode
 CPJESHFL.CPJFPRIV 40 ONES          4596  1          =           FLAG  CPJFPRIV            - Privd jes use allowed
                                    4601  1          =
 0009E1 00                          4602  1          =CPJESFLG   FLAG
 CPJESFLG.CPJFNRUN 80 ONES          4606  1          =           FLAG  CPJFNRUN            - Norun
 CPJESFLG.CPJFHOLD 40 ONES          4611  1          =           FLAG  CPJFHOLD            - Hold
 CPJESFLG.CPJFXHLD 20 ONES          4616  1          =           FLAG  CPJFXHLD            - Xhold
 CPJESFLG.CPJFNTFY 10 ONES          4621  1          =           FLAG  CPJFNTFY            - Notify
 CPJESFLG.CPJFFRCE 08 ONES          4626  1          =           FLAG  CPJFFRCE            - Force
 CPJESFLG.CPJFNOPT 04 ONES          4631  1          =           FLAG  CPJFNOPT            - Numbering options explicit
 CPJESFLG.CPJFUNN  02 ONES          4636  1          =           FLAG  CPJFUNN             - Unnumbered
 CPJESFLG.CPJFDBUG 01 ONES          4641  1          =           FLAG  CPJFDBUG            - Debug mode
                                    4646  1          =
 0009E2                             4647  1          =CPSYSAFF   DS    CL8                 Sysaff
 0009EA                             4648  1          =CPDEST     DS    CL8                 Destination
 0009F2                             4649  1          =CPBIN      DS    CL3                 Bin
 0009F5                             4650  1          =CPFORMS    DS    CL8                 Forms
                                    4651  1          =
 0009FD 00                          4652  1          =CPJESFLY   FLAG  ,
 CPJESFLY.CPJFNTFX 80 ONES          4656  1          =           FLAG  CPJFNTFX            - Notify option explict
 CPJESFLY.CPJFHOLX 40 ONES          4661  1          =           FLAG  CPJFHOLX            - Hold print option explicit
 CPJESFLY.CPJFXHOX 20 ONES          4666  1          =           FLAG  CPJFXHOX            - Hold execution option explicit
                                    4671  1          =
 0009FE                             4672  1          =           DS    XL3                 Reserved
                                    4673  1          =
 000A01                             4674  1          =CPJPFX     DS    CL8                 Job prefix
 000A0A                             4675  1          =CPJNO      DS    H                   User job count
 000A0C                             4676  1          =CPJNACCT   DS    CL5                 Notify account (uuugg)
                                    4677  1          =CPJESINF   EQU   CPJESHFL,*-CPJESHFL,C'X'
                                    4678  1          =
 000A11                             4679  1          =CPJOBNM    DS    CL8                 Last jobname of job submitted
 000A19                             4680  1          =CPJOBS     DS    XL8                 Last four jobno's (2 bytes ea)
                                    4681= 1          =           ¿þþþþþþþþþþþþþþþþþþþþþþþþþþþþþþþþþþþþþþþþþþþþþþþþþþþþþþþÜ
                                    4682= 1          =           Ÿ  Samson terminal information (obtained from Samson).  Ÿ
                                    4683= 1          =           ¾þþþþþþþþþþþþþþþþþþþþþþþþþþþþþþþþþþþþþþþþþþþþþþþþþþþþþþþ»
 000A21 00                          4684  1          =CPSAMFLG   FLAG
 CPSAMFLG.CPSAMFDE 80 ONES          4688  1          =           FLAG  CPSAMFDEF           - Samson information defined
 CPSAMFLG.CPSAMFBA 40 ONES          4693  1          =           FLAG  CPSAMFBADECHO       - Echo test failed
 CPSAMFLG.CPSAMFDE 20 ONES          4698  1          =           FLAG  CPSAMFDEBUG         - Debugging mode
 CPSAMFLG.CPSAMFUB 10 ONES          4703  1          =           FLAG  CPSAMFUBUFFER       - Buffer value is explicit
 CPSAMFLG.CPSAMFUT 08 ONES          4708  1          =           FLAG  CPSAMFUTMOUT        - Timeout value is explicit
 CPSAMFLG.CPSAMFUE 04 ONES          4713  1          =           FLAG  CPSAMFUENCODE       - Encoding value is explicit
 CPSAMFLG.CPSAMFUC 02 ONES          4718  1          =           FLAG  CPSAMFUCHECK        - Checking value is explicit
                                    4723  1          =
 000A22 00                          4724  1          =CPSAMCOD   FLAG  ,                   Samson encoding options
 CPSAMCOD.CPSAMFEM 0C ONES          4728  1          =           FLAG  (CPSAMFEMASK,12)    - Encoding mask:
 CPSAMCOD.CPSAMF8B 0C OFF           4737  1          =           FLAG  (CPSAMF8BIT,12,OFF)   . 8-bit transfer mode
 CPSAMCOD.CPSAMF7B 0C ONES          4747  1          =           FLAG  (CPSAMF7BIT,12,ONES)  . 7-bit transfer mode
 CPSAMCOD.CPSAMFHE 08 ONES          4757  1          =           FLAG  (CPSAMFHEX,8)         . Hex transfer mode
 CPSAMCOD.CPSAMFPC 04 ONES          4766  1          =           FLAG  (CPSAMFPCK,4)         . Send data in packed format
1GLOB     (GLOB5139) (12:46) (15MAR04) WYLBUR's Global Control Blocks                                                       Page   47
0Current Usings:  (CP,R11) (CV,R12)
0D-Loc  Object Code    Addr1 Addr2  Stmt Lv Lineno    Source Statement           (Hibal 5, Asmedit 3.3)  HLASM R4.0  2004/03/15 12.46
+_____  ______ ____    _____ _____  ____ __ ______    ______ _________
0CPSAMCOD.CPSAMFCM 03 ONES          4775  1          =           FLAG  (CPSAMFCMASK,3)     - Error checking mask:
 CPSAMCOD.CPSAMFCN 03 OFF           4784  1          =           FLAG  (CPSAMFCNONE,3,OFF)   . No checksum
 CPSAMCOD.CPSAMFCK 02 ONES          4794  1          =           FLAG  (CPSAMFCKS,2)         . Send one byte checksum
 CPSAMCOD.CPSAMFCR 01 ONES          4803  1          =           FLAG  (CPSAMFCRC,1)         . Send two byte CRC
                                    4812  1          =
 000A23                             4813  1          =CPSAMTYP   DS    CL16                Samson type
 000A33                             4814  1          =CPSAMVER   DS    CL16                Samson version
 000A43                             4815  1          =CPSAMOS    DS    CL16                Samson operating system
 000A53                             4816  1          =CPSAMTRM   DS    CL8                 Samson terminal type
 000A5B                             4817  1          =CPSAMLPR   DS    CL24                Samson printer name
 000A73                             4818  1          =CPSAMFONT   DS   CL16                Samson font name
 000A83                             4819  1          =           DS    XL16                Reserved
 000A94                             4820  1          =CPSAMPRO   DS    H                   Samson protocol version
 000A96                             4821  1          =           DS    H                   Reserved
 000A98                             4822  1          =CPSAMTMO   DS    H                   Samson re-transmission timeout
 000A9A                             4823  1          =CPSAMHEI   DS    H                   Samson screen height
 000A9C                             4824  1          =CPSAMWID   DS    H                   Samson screen width
 000A9E                             4825  1          =CPSAMALH   DS    H                   Samson alt screen height
 000AA0                             4826  1          =CPSAMALW   DS    H                   Samson alt screen width
 000AA2                             4827  1          =CPSAMSPD   DS    H                   Samson speed
 000AA4                             4828  1          =CPSAMDV    DS    H                   Samson dialog support version
 000AA6                             4829  1          =           DS    H                   Reserved
 000AA8                             4830  1          =CPSAMBUFF   DS   F                   Samson buffer size
                                    4831  1          =CPSAM      EQU   CPSAMFLG,*-CPSAMFLG,C'X'
1GLOB     (GLOB5139) (12:46) (15MAR04) WYLBUR's Global Control Blocks                                                       Page   48
0Current Usings:  (CP,R11) (CV,R12)
0D-Loc  Object Code    Addr1 Addr2  Stmt Lv Lineno    Source Statement           (Hibal 5, Asmedit 3.3)  HLASM R4.0  2004/03/15 12.46
+_____  ______ ____    _____ _____  ____ __ ______    ______ _________
0                                   4833= 1          =           ¿þþþþþþþþþþþþþþþþþþþþþþÜ
                                    4834= 1          =           Ÿ  User Device Table.  Ÿ
                                    4835= 1          =           ¾þþþþþþþþþþþþþþþþþþþþþþ»
                                    4836  1          =DEVMAX#    EQU   2                   Maximum number of devices
                                    4837  1          =
 000000                00000 0000C  4838  1          =DEV        RECORD BEGIN              User device information
 000000 00                          4846  2          =DEVFLAG      FLAG
                                    4850  2          =
 000001 00                          4851  2          =DEVTYPE      FLAG
 DEVTYPE.DEVTSAM   01 EQ            4855  2          =             FLAG  (DEVTSAM,1,EQ)      - SAMSON device
 DEVTYPE.DEVTNET   02 EQ            4865  2          =             FLAG  (DEVTNET,2,EQ)      - NETWORK device
                                    4875  2          =
 000002                             4876  2          =DEVNAME      DS    CL8                 Device name
                                    4877  2          =
 00000C                             4878  2          =DEVNEXT      DS    0F
 00000C                0000C 0000C  4879  1          =           END
                                    4888  1          =*
                                    4889  1          =*
 000AAC                             4890  1          =CPDEVCNT   DS    H                   No. of user devices
                                    4891  1          =
 000AB0                             4892  1          =           DS    0F
 000AB0                             4893  1          =CPDEVTBL   DS    XL(DEVMAX#*L'DEV)   User device table
1GLOB     (GLOB5139) (12:46) (15MAR04) WYLBUR's Global Control Blocks                                                       Page   49
0Current Usings:  (CP,R11) (CV,R12)
0D-Loc  Object Code    Addr1 Addr2  Stmt Lv Lineno    Source Statement           (Hibal 5, Asmedit 3.3)  HLASM R4.0  2004/03/15 12.46
+_____  ______ ____    _____ _____  ____ __ ______    ______ _________
0                                   4895= 1          =           ¿þþþþþþþþþþþþþþþþþþþþþþþþþÜ
                                    4896= 1          =           Ÿ  Page Mode Information  Ÿ
                                    4897= 1          =           ¾þþþþþþþþþþþþþþþþþþþþþþþþþ»
 000AC8 00                          4898  1          =CPVFLAG    FLAG
 CPVFLAG.CPVFPAGE  80 ONES          4902  1          =           FLAG  CPVFPAGE            - Page mode
 CPVFLAG.CPVFPEND  40 ONES          4907  1          =           FLAG  CPVFPEND            - Page mode is pending
 CPVFLAG.CPVFSPEC  20 ONES          4912  1          =           FLAG  CPVFSPEC            - Specific lines on the page
 CPVFLAG.CPVFCH    10 ONES          4917  1          =           FLAG  CPVFCH              - File changes have occurred
 CPVFLAG.CPVFHIDE  08 ONES          4922  1          =           FLAG  CPVFHIDE            - Block is hidden
                                    4927  1          =
 000AC9 00                          4928  1          =CPVFLAG2   FLAG
 CPVFLAG2.CPVFCLR  80 ONES          4932  1          =           FLAG  CPVFCLR             - Clear page and re-write lines
 CPVFLAG2.CPVFREWR 40 ONES          4937  1          =           FLAG  CPVFREWR            - Rewrite all lines on the page
 CPVFLAG2.CPVFFMT  20 ONES          4942  1          =           FLAG  CPVFFMT             - Format all fields on the page
 CPVFLAG2.CPVFRTRY 10 ONES          4947  1          =           FLAG  CPVFRTRY            - Command retry entry
 CPVFLAG2.CPVFMARK 08 ONES          4952  1          =           FLAG  CPVFMARK            - Block marks have changed
 CPVFLAG2.CPVFREN  04 ONES          4957  1          =           FLAG  CPVFREN             - Renumbered linenos on page
                                    4962  1          =
 000ACA 00                          4963  1          =CPVFLAG3   FLAG
 CPVFLAG3.CPVFWRAP 80 ONES          4967  1          =           FLAG  CPVFWRAP            - Wordwrap mode
 CPVFLAG3.CPVFUNN  40 ONES          4972  1          =           FLAG  CPVFUNN             - Unnumbered mode
 CPVFLAG3.CPVFTRC  20 ONES          4977  1          =           FLAG  CPVFTRC             - Trace mode
 CPVFLAG3.CPVFBUG  10 ONES          4982  1          =           FLAG  CPVFBUG             - Debug mode
 CPVFLAG3.CPVFSPEL 08 ONES          4987  1          =           FLAG  CPVFSPEL            - Do spelling checking
 CPVFLAG3.CPVFFORM 04 ONES          4992  1          =           FLAG  CPVFFORMAT          - Formatted mode
                                    4997  1          =
 000ACB 00                          4998  1          =CPVFLAG4   FLAG
 CPVFLAG4.CPVFVTAM 80 ONES          5002  1          =           FLAG  CPVFVTAM            - VTAM format    (for 3270s)
 CPVFLAG4.CPVFPREP 40 ONES          5007  1          =           FLAG  CPVFPREP            - Prepare mode   (for 3270s)
 CPVFLAG4.CPVFESC  20 ONES          5012  1          =           FLAG  CPVFESC             - Escape mode    (for 3270s)
                                    5017= 1          =           ¿þþþþþþþþþþþþþþþþþþþþþþþþþþþþþþþþþþþþþþþþþþþþþþþþþþþþþþþþþþþþþþþÜ
                                    5018= 1          =           Ÿ  The CPVMODE byte is the editing mode sent to the front-end.  Ÿ
                                    5019= 1          =           ¾þþþþþþþþþþþþþþþþþþþþþþþþþþþþþþþþþþþþþþþþþþþþþþþþþþþþþþþþþþþþþþþ»
 000ACC 00                          5020  1          =CPVMODE    FLAG
 CPVMODE.CPVFWYL   80 ONES          5024  1          =           FLAG  CPVFWYL             - WYLBUR mode
 CPVMODE.CPVFRSV2  40 ONES          5029  1          =           FLAG  CPVFRSV2            - Reserved
 CPVMODE.CPVFRSV3  20 ONES          5034  1          =           FLAG  CPVFRSV3            - Reserved
 CPVMODE.CPVFRSV4  10 ONES          5039  1          =           FLAG  CPVFRSV4            - Reserved
 CPVMODE.CPVFRSV5  08 ONES          5044  1          =           FLAG  CPVFRSV5            - Reserved
 CPVMODE.CPVFRSV6  04 ONES          5049  1          =           FLAG  CPVFRSV6            - Reserved
 CPVMODE.CPVFRSV7  02 ONES          5054  1          =           FLAG  CPVFRSV7            - Reserved
 CPVMODE.CPVFINS   01 ONES          5059  1          =           FLAG  CPVFINS             - Insert mode
                                    5064  1          =
 000ACD                             5065  1          =CPVWCHAR   DS    C                   Word character (for front-end)
                                    5066  1          =
 000ACE 00                          5067  1          =CPVLFLAG   FLAG
 CPVLFLAG.CPVFEXIT 80 ONES          5071  1          =           FLAG  CPVFEXIT            - Exit page mode
 CPVLFLAG.CPVFBRK  40 ONES          5076  1          =           FLAG  CPVFBRK             - Break out of page mode
 CPVLFLAG.CPVFBELL 20 ONES          5081  1          =           FLAG  CPVFBELL            - Ring the bell
                                    5086  1          =
 000ACF                             5087  1          =           DS    X                   Reserved
                                    5088  1          =
 000AD0                             5089  1          =CPVTWID    DS    H                   Total (buffer) width
 000AD2                             5090  1          =CPVWID     DS    H                   Displayed width
1GLOB     (GLOB5139) (12:46) (15MAR04) WYLBUR's Global Control Blocks                                                       Page   50
0Current Usings:  (CP,R11) (CV,R12)
0D-Loc  Object Code    Addr1 Addr2  Stmt Lv Lineno    Source Statement           (Hibal 5, Asmedit 3.3)  HLASM R4.0  2004/03/15 12.46
+_____  ______ ____    _____ _____  ____ __ ______    ______ _________
0000AD4                             5091  1          =CPVHEI     DS    H                   Page height
                                    5092  1          =CPVDIM     EQU   CPVTWID,*-CPVTWID,C'X'
                                    5093  1          =
 000AD6                             5094  1          =CPVWCUR    DS    H                   Current window number
 000AD8                             5095  1          =CPVWCNT    DS    H                   No. of windows on page
                                    5096  1          =
 000ADA                             5097  1          =CPVCOL     DS    H                   Current column for page lineno
 000ADC                             5098  1          =CPVLNO     DS    F                   Current line-number on page
 000AE0                             5099  1          =CPVCURS    DS    D                   Current cursor position
                                    5100  1          =CPVCURR    EQU   CPVCURS,4,C'F'      .Current row
                                    5101  1          =CPVCURC    EQU   CPVCURS+4,4,C'F'    .Current column
                                    5102  1          =
 000AE8                             5103  1          =CPVACOL    DS    H                   Column for alternate page lineno
 000AEC                             5104  1          =CPVALNO    DS    F                   Alternate line-number on page
 000AF0                             5105  1          =CPVACURS   DS    D                   Alternate cursor position
                                    5106  1          =CPVACURR   EQU   CPVACURS,4,C'F'     .alternate row
                                    5107  1          =CPVACURC   EQU   CPVACURS+4,4,C'F'   .alternate column
                                    5108  1          =
 000AF8                             5109  1          =CPVMCLK    DS    F                   View message clock
 000AFC                             5110  1          =CPVMSG     DS    CL80                Message text
                                    5111  1          =
 000B4C                             5112  1          =CPVCMDR    DS    H                   Row number of command line
 000B4E                             5113  1          =CPVMSGR    DS    H                   Row number of message line
                                    5114  1          =
 000B50                             5115  1          =CPVIND     DS    H                   Default indentation (left margin)
 000B52                             5116  1          =CPVMARG    DS    H                   Right margin
                                    5117  1          =
 000B54                             5118  1          =CPVNMSG    DS    H                   Number of pending messages
 000B56                             5119  1          =           DS    H                   Reserved
-000B58                             5121  1          =CPWINDP    DS    A                   WIND ptr (View/Window info)
 000B5C                             5122  1          =CPXWIND    DS    A                   WIND-(1 entry) ptr
                                    5123  1          =
 000B60                             5124  1          =CPLINTP    DS    A                   LINT ptr (View/Line info)
 000B64                             5125  1          =CPXLINT    DS    A                   LINT-(1 entry) ptr
1GLOB     (GLOB5139) (12:46) (15MAR04) WYLBUR's Global Control Blocks                                                       Page   51
0Current Usings:  (CP,R11) (CV,R12)
0D-Loc  Object Code    Addr1 Addr2  Stmt Lv Lineno    Source Statement           (Hibal 5, Asmedit 3.3)  HLASM R4.0  2004/03/15 12.46
+_____  ______ ____    _____ _____  ____ __ ______    ______ _________
0                                   5127= 1          =           ¿þþþþþþþþþþþþþþþþþþþþþþþþþÜ
                                    5128= 1          =           Ÿ  Charging Information.  Ÿ
                                    5129= 1          =           ¾þþþþþþþþþþþþþþþþþþþþþþþþþ»
 000B68 00                          5130  1          =CPCHFLAG   FLAG
 CPCHFLAG.CPFFLAT  80 ONES          5134  1          =           FLAG  CPFFLAT             - Flat rate for non-prime time
                                    5139  1          =
 000B6C                             5140  1          =           DS    5F                  Reserved
 000B80                             5141  1          =CPAUTHID   DS    CL128               Kerberos principal
1GLOB     (GLOB5139) (12:46) (15MAR04) WYLBUR's Global Control Blocks                                                       Page   52
0Current Usings:  (CP,R11) (CV,R12)
0D-Loc  Object Code    Addr1 Addr2  Stmt Lv Lineno    Source Statement           (Hibal 5, Asmedit 3.3)  HLASM R4.0  2004/03/15 12.46
+_____  ______ ____    _____ _____  ____ __ ______    ______ _________
0                                   5143  1          =*********************************************************************
                                    5144  1          =**                                                                 **
                                    5145  1          =**  The following space is allocated for non-Stanford use.         **
                                    5146  1          =**                                                                 **
                                    5147  1          =*********************************************************************
                                    5148  1          =           COPY  CPLOCAL
                                    5149  1          =***
                                    5150  1          =***  CPLOCAL -- Non-Stanford CP Definitions
                                    5151  1          =***
                                    5152  1          =***  Note:  Fields before CPLOCALZ are global and are initialized
                                    5153  1          =***         to zeros when the CP is first obtained.
                                    5154  1          =***
                                    5155  1          =***         Fields after CPLOCALZ are local and are initialized to
                                    5156  1          =***         zeros at the start of every command.
                                    5157  1          =***
                                    5158  1          =***         You can put the CPLOCALZ anyplace in this mapping to
                                    5159  1          =***         divide globals and locals.
                                    5160  1          =***
 000C00                             5161  1          =           DS    XL72                Assume all globals
                                    5162  1          =CPLOCALZ   EQU   *  ---------------- Start of Locals
1GLOB     (GLOB5139) (12:46) (15MAR04) WYLBUR's Global Control Blocks                                                       Page   53
0Current Usings:  (CP,R11) (CV,R12)
0D-Loc  Object Code    Addr1 Addr2  Stmt Lv Lineno    Source Statement           (Hibal 5, Asmedit 3.3)  HLASM R4.0  2004/03/15 12.46
+_____  ______ ____    _____ _____  ____ __ ______    ______ _________
0                                   5164  1          =*********************************************************************
                                    5165  1          =**                                                                 **
                                    5166  1          =**  Start of local fields, initialized at the start of a command.  **
                                    5167  1          =**                                                                 **
                                    5168  1          =*********************************************************************
                                    5169  1          =*
 000C48                             5170  1          =CPCACCT    DS    0CL5                Command account (when needed)
 000C48                             5171  1          =CPCUSER    DS    CL3                 .uuu
 000C4B                             5172  1          =CPCGRP     DS    CL2                 .gg
                                    5173  1          =
 000C4E                             5174  1          =CPFCOL     DS    H          [Order]  Starting column (-1)
 000C50                             5175  1          =CPLCOL     DS    H          [Order]  Last column
                                    5176  1          =
 000C52                             5177  1          =CPLLEN     DS    H                   Local line warning len
 000C54                             5178  1          =           DS    H                   Reserved
                                    5179  1          =
 000C56                             5180  1          =CPLWCHAR   DS    CL16                Local charging component override
                                    5181  1          =
 000C68                             5182  1          =CPDMPLST   DS    F                   Next lineno for dump
 000C6C                             5183  1          =CPDMPDLT   DS    F                   Delta for dump
 000C70                             5184  1          =CPDMPMAX   DS    F                   Line that stops dump
                                    5185  1          =
 000C74                             5186  1          =CPMODNEX   DS    F                   Assume next existing lineno
                                    5187  1          =
 000C78 00                          5188  1          =CPMODFLG   FLAG  ,                   Modify/edit flags
 CPMODFLG.CPFCMDMD 80 ONES          5192  1          =           FLAG  CPFCMDMD            - Command retry
 CPMODFLG.CPFMODXP 40 ONES          5197  1          =           FLAG  CPFMODXP            - Modify/edit is explicit
 CPMODFLG.CPFNUMXP 20 ONES          5202  1          =           FLAG  CPFNUMXP            - Number options are explicit
 CPMODFLG.CPFMODCD 10 ONES          5207  1          =           FLAG  CPFMODCD            - Modify mode (modify/edit)
 CPMODFLG.CPFLISXP 08 ONES          5212  1          =           FLAG  CPFLISXP            - List options are explicit
                                    5217  1          =
 000C79 00                          5218  1          =CPNUMFLG   FLAG  ,                   Number options
                                    5222  1          =*        flag  cpnfopt             - Number option explicit
                                    5223  1          =*        flag  cpnfunn             - Unnumbered
                                    5224  1          =*        flag  cpnfnon             - Nonumber
                                    5225  1          =*        flag  cpnfint             - Integer
 CPNUMFLG.CPNFRNUM 08 ONES          5226  1          =           FLAG  (CPNFRNUM,X'08')    - Rnumber
                                    5235  1          =
 000C7A 00                          5236  1          =CPTRMFL1   FLAG
 CPTRMFL1.CPFNONL  80 ONES          5240  1          =           FLAG  CPFNONL             - Don't append NL on writes
 CPTRMFL1.CPFWTO   40 ONES          5245  1          =           FLAG  CPFWTO              - WTO seg buffer
 CPTRMFL1.CPFIATTN 20 ONES          5250  1          =           FLAG  CPFIATTN            - Intermediate attn occurred
                                    5255  1          =
 000C7B 00                          5256  1          =CPTRMFL2   FLAG
 CPTRMFL2.CPFCLEAN 80 ONES          5260  1          =           FLAG  CPFCLEAN            - Don't allow other terminal I/O
 CPTRMFL2.CPFNECHO 40 ONES          5265  1          =           FLAG  CPFNECHO            - Noecho on reads
 CPTRMFL2.CPFSLOW  20 ONES          5270  1          =           FLAG  CPFSLOW             - Don't use tabs
 CPTRMFL2.CPFDISP  10 ONES          5275  1          =           FLAG  CPFDISP             - Display mode I/O
 CPTRMFL2.CPFNOCUR 08 ONES          5280  1          =           FLAG  CPFNOCURS           - Don't move input cursor (VTAM)
 CPTRMFL2.CPFNOUTT 04 ONES          5285  1          =           FLAG  CPFNOUTTRIM         - No trim trailing output blanks
                                    5290  1          =
 000C7C 00                          5291  1          =CPTRMFL3   FLAG
 CPTRMFL3.CPFTRAN  80 ONES          5295  1          =           FLAG  CPFTRAN             - Transparent I/O
 CPTRMFL3.CPFNTYPE 40 ONES          5300  1          =           FLAG  CPFNTYPE            - No typeahead I/O
1GLOB     (GLOB5139) (12:46) (15MAR04) WYLBUR's Global Control Blocks                                                       Page   54
0Current Usings:  (CP,R11) (CV,R12)
0D-Loc  Object Code    Addr1 Addr2  Stmt Lv Lineno    Source Statement           (Hibal 5, Asmedit 3.3)  HLASM R4.0  2004/03/15 12.46
+_____  ______ ____    _____ _____  ____ __ ______    ______ _________
0CPTRMFL3.CPFRUND  20 ONES          5305  1          =           FLAG  CPFRUND             - Count rundown I/O (read)
 CPTRMFL3.CPFNMOD  10 ONES          5310  1          =           FLAG  CPFNMOD             - Nomodel I/O
 CPTRMFL3.CPFUFMT  08 ONES          5315  1          =           FLAG  CPFUFMT             - Unformatted I/O
 CPTRMFL3.CPFFORCE 04 ONES          5320  1          =           FLAG  CPFFORCE            - Force I/O (override quiet)
 CPTRMFL3.CPFBUFIO 02 ONES          5325  1          =           FLAG  CPFBUFIO            - Buffered I/O
                                    5330  1          =
 000C7D 00                          5331  1          =CPTRMFL4   FLAG
 CPTRMFL4.CPFNPAU  80 ONES          5335  1          =           FLAG  CPFNPAU             - Don't pause at end of page
 CPTRMFL4.CPFNPT   40 ONES          5340  1          =           FLAG  CPFNPT              - Don't allow read text at p/p
 CPTRMFL4.CPFTINT  20 ONES          5345  1          =           FLAG  CPFTINT             - Terminal I/O interruptible
 CPTRMFL4.CPFNSTAR 10 ONES          5350  1          =           FLAG  CPFNSTAR            - No stars on read attention
 CPTRMFL4.CPFSTMSG 08 ONES          5355  1          =           FLAG  CPFSTMSG            - Status msg needs erasing
 CPTRMFL4.CPFNLF   04 ONES          5360  1          =           FLAG  CPFNLF              - No LF on read CR
 CPTRMFL4.CPFDATTN 02 ONES          5365  1          =           FLAG  CPFDATTN            - Disallow ATTN on reads
                                    5370  1          =
 000C7E                             5371  1          =CPTRMPAU   DS    H                   Page/pause line count
                                    5372  1          =
 000C80                             5373  1          =CPTRMIN    DS    H                   Input read count
                                    5374  1          =
 000C84                             5375  1          =           DS    F                   Reserved
                                    5376  1          =CPTRM      EQU   CPTRMFL1,*-CPTRMFL1,C'X'
                                    5377  1          =
 000C88                             5378  1          =CPDOUB     DS    D                   Double-word work area
 000C90                             5379  1          =CPHFWRD    DS    H                   Used to extend cpdoub to 10 bytes
 000C92                             5380  1          =CPBYTE     DS    X                   Work byte
 000C93                             5381  1          =           DS    X                   Reserved
 000C94                             5382  1          =CPTELL     DS    2F
 000C9C                             5383  1          =CPSAVE     DS    2A                  Scan saves ptrs here
 000CA4                             5384  1          =CPCWA      DS    F                   Command work area ptr
                                    5385= 1          =           ¿þþþþþþþþþþþþþþþþþþþþþþþþþÜ
                                    5386= 1          =           Ÿ  Old Scanner work area  Ÿ
                                    5387= 1          =           ¾þþþþþþþþþþþþþþþþþþþþþþþþþ»
                                    5388  1          =CPSCANSZ   EQU   24                  Size of scan area
 000CA8                             5389  1          =CPOSCANX   DS    0F                  Scanner work area
 000CA8                             5390  1          =CPSCNLOC   DS    F                   Resume scan text ptr
 000CAC                             5391  1          =CPSCNLEN   DS    H                   Resume len
 000CAE                             5392  1          =CPSCNKW    DS    CL8                 Scan kw
 000CB6                             5393  1          =CPSCNPST   DS    H                   Push rel ptr
 000CB8                             5394  1          =CPSCNRA    DS    A                   Scan return addr
 000CBC                             5395  1          =CPSCNPRT   DS    A                   Sckw prt addr
 000CC0                             5396  1          =CPSCANBK   DS    XL6                 Previous scan loc, len
 000CC8                             5397  1          =CPSCNERT   DS    A                   Scanner error routine addr
 000CCC                             5398  1          =CPLSTSCK   DS    F                   Last SCKW addr
                                    5399  1          =
 000CD0 00                          5400  1          =CPSCNFLG   FLAG  ,                   Scanner control flag
                                    5404  1          =CPFSBLK    EQU   X'80'               - Blanks tokens (for passed cmds)
                                    5405  1          =CPFRTNER   EQU   X'40'               - Go to exit routine on error
                                    5406  1          =CPFSPRM    EQU   X'20'               - Parm scan in progress
 CPSCNFLG.CPFSNSEP 10 ONES          5407  1          =           FLAG  (CPFSNSEP,X'10')    - Don't isolate *, /, +, -
 CPSCNFLG.CPFSUPLO 08 ONES          5416  1          =           FLAG  (CPFSUPLO,X'08')    - Don't upcase the token
                                    5425  1          =CPFSCNAS   EQU   X'04'               - Scan asterisk(*) as token
                                    5426  1          =CPFGSBLK   EQU   X'02'               - Default is to blank tokens
 CPSCNFLG.CPFSNRTN 01 ONES          5427  1          =           FLAG  (CPFSNRTN,X'01')    - Don't go to sckw rtn flag
 000CD1 00                          5436  1          =CPSCNF2    FLAG  ,
1GLOB     (GLOB5139) (12:46) (15MAR04) WYLBUR's Global Control Blocks                                                       Page   55
0Current Usings:  (CP,R11) (CV,R12)
0D-Loc  Object Code    Addr1 Addr2  Stmt Lv Lineno    Source Statement           (Hibal 5, Asmedit 3.3)  HLASM R4.0  2004/03/15 12.46
+_____  ______ ____    _____ _____  ____ __ ______    ______ _________
0CPSCNF2.CPFSRETN  80 ONES          5440  1          =           FLAG  CPFSRETN            - Always return from scan
 000CD2 00                          5445  1          =CPSCNF3    FLAG  ,                   Flag byte (not used)
 000CD3 00                          5449  1          =CPSCNF4    FLAG  ,                   Flag byte (not used)
                                    5453  1          =
                                    5454  1          =CPSCNMAX   EQU   20                  Max scan PUSH depth
 000CD4                             5455  1          =CPSCNSTK   DS    (CPSCNMAX)F         Scan PUSH/POP stack
                                    5456  1          =CPOSCAN    EQU   CPOSCANX,*-CPOSCANX,C'X'  Scanner control block
                                    5457  1          =
 000D24                             5458  1          =CPCMNM     DS    CL3                 First 3 bytes of command name
                                    5459  1          =
 000D28                             5460  1          =           DS    0F
 000D28                             5461  1          =CPTOKEN    DS    CL16                Isolated token from SCANTOK
 000D38                             5462  1          =CPUPPTOK   DS    CL16                Capitalized token from SCANTOK
                                    5463  1          =
 000D48                             5464  1          =CPSCNKLC   DS    F                   Last keyword scanned location
 000D4C                             5465  1          =CPSCNKLN   DS    F                   Last keyword scanned length
1GLOB     (GLOB5139) (12:46) (15MAR04) WYLBUR's Global Control Blocks                                                       Page   56
0Current Usings:  (CP,R11) (CV,R12)
0D-Loc  Object Code    Addr1 Addr2  Stmt Lv Lineno    Source Statement           (Hibal 5, Asmedit 3.3)  HLASM R4.0  2004/03/15 12.46
+_____  ______ ____    _____ _____  ____ __ ______    ______ _________
0                                   5467= 1          =     ¿þþþþþþþþþþþþþþþþþþþþÜ
                                    5468= 1          =     Ÿ  Local user flags  Ÿ
                                    5469= 1          =     ¾þþþþþþþþþþþþþþþþþþþþ»
 000D50 00                          5470  1          =CPLFLG1    FLAG
                                    5474  1          =CPFCPY     EQU   X'20'               - Copy flag
                                    5475  1          =CPFALL     EQU   X'10'               - Detrng flag -- default all
                                    5476  1          =CPFALLV    EQU   X'04'               - ALL specified/defaulted
                                    5477  1          =CPFDSN1    EQU   X'02'               - Dodsnm re-entry flag
                                    5478  1          =CPFTODFT   EQU   X'01'               - Default "to end" taken (copy)
                                    5479  1          =
 000D51 00                          5480  1          =CPLFLG2    FLAG
                                    5484  1          =CPFSCRTC   EQU   X'40'               - Scratch flag (save-show dsn)
                                    5485  1          =CPFDSNMS   EQU   X'20'               - No default ok on dsnames flag
                                    5486  1          =*        EQU   X'10'               - Reserved
                                    5487  1          =CPFCOMB    EQU   X'08'               - Combine flag for copy
                                    5488  1          =CPFMERG    EQU   X'04'               - Merge option (copy/move/collect)
                                    5489  1          =CPFREP1    EQU   X'02'               - Replace option (copy/move/rep)
                                    5490  1          =CPFDITTO   EQU   X'01'               - Ditto option (insert/replace)
                                    5491  1          =CPFSMALL   EQU   X'01'               - Small data set saved (save)
                                    5492  1          =*------> exec usage
                                    5493  1          =CPFEXSAV   EQU   X'80'               - Save option on exec
                                    5494  1          =*cpfdsnms equ  x'20'               - Null dsname flag
                                    5495  1          =*cpfclear equ  x'10'               - Clear exec file flag
                                    5496  1          =CPFEXLNE   EQU   X'08'               - Explicit lineno was specified
                                    5497  1          =CPFEXRNG   EQU   X'04'               - Exec line range specified
                                    5498  1          =CPFEXPA    EQU   X'02'               - Exec pause was specified
                                    5499  1          =CPFEXDEL   EQU   X'01'               - Exec active has delete range
                                    5500  1          =*------> change usage
                                    5501  1          =CPFCHTEX   EQU   X'40'               - CHANGE C'XXXX' (case indep.)
                                    5502  1          =CPFCHLIM   EQU   X'20'               - String positionally delimited
                                    5503  1          =CPFCHDEL   EQU   X'10'               - Replacing string void flag
                                    5504  1          =CPFCHNGD   EQU   X'08'               - Something changed flag
                                    5505  1          =CPFLNCHN   EQU   X'04'               - At least 1 line changed flag
                                    5506  1          =CPFCHPOS   EQU   X'02'               - Positional change
                                    5507  1          =CPFCHND    EQU   X'01'               - Terminate change flag
                                    5508  1          =*------> show dsnames usage
                                    5509  1          =CPFSTOP    EQU   X'01'               - Stop typed list flag
                                    5510  1          =
 000D52 00                          5511  1          =CPLFLG3    FLAG
                                    5515  1          =CPFSET     EQU   X'80'               - Set prefix after scan
                                    5516  1          =CPFKWOP    EQU   X'10'               - Keyword option on usr/grp/name
                                    5517  1          =*------> show dsnames/directory usage
                                    5518  1          =CPFDATED   EQU   X'10'               - Dated option flag
                                    5519  1          =CPFEXCL    EQU   X'08'               - Exclude option flag
                                    5520  1          =CPFSPACE   EQU   X'04'               - Space option flag
                                    5521  1          =CPFTYPE    EQU   X'02'               - Type/all option flag
                                    5522  1          =CPFBLOCK   EQU   X'01'               - Directory block info requested
                                    5523  1          =*------> show volumes usage
                                    5524  1          =CPFINFO    EQU   X'80'               - Show volumes info
                                    5525  1          =CPL3AATN   EQU   X'40'               - Abort on attention
                                    5526  1          =*------> change usage
                                    5527  1          =CPFCHIN    EQU   X'80'               - Range specified
                                    5528  1          =CPFCHUS    EQU   X'40'               - Change using
                                    5529  1          =CPFCHTO    EQU   X'20'               - Change to
1GLOB     (GLOB5139) (12:46) (15MAR04) WYLBUR's Global Control Blocks                                                       Page   57
0Current Usings:  (CP,R11) (CV,R12)
0D-Loc  Object Code    Addr1 Addr2  Stmt Lv Lineno    Source Statement           (Hibal 5, Asmedit 3.3)  HLASM R4.0  2004/03/15 12.46
+_____  ______ ____    _____ _____  ____ __ ______    ______ _________
0                                   5530  1          =CPFCHNM    EQU   X'10'               - Change to numbers
                                    5531  1          =CPFCHNMI   EQU   X'08'               - Increment number flag
                                    5532  1          =CPFCHLN    EQU   X'04'               - Line option
                                    5533  1          =CPFCHREP   EQU   X'02'               - Repeat option for using range
                                    5534  1          =CPFCHCAS   EQU   X'01'               - To upper/lower
                                    5535  1          =
 000D53 00                          5536  1          =CPLFLG4    FLAG
                                    5540  1          =CPFSTINS   EQU   X'40'               - Allow insert only flag
                                    5541  1          =CPFDESET   EQU   X'20'               - This flag signals despot
                                    5542  1          =*                                     the value of cpnwln has been
                                    5543  1          =*                                     set for the next locate and
                                    5544  1          =*                                     should not be kicked up.
                                    5545  1          =CPFDESRT   EQU   X'10'               - Re-entry to despot -- don't reset
                                    5546  1          =*                                     range.  this option is
                                    5547  1          =*                                     no longer used (it was
                                    5548  1          =*                                     used by the old blpr run).
                                    5549  1          =CPFSTREP   EQU   X'08'               - Allow repl only in stow
                                    5550  1          =CPFRUNCK   EQU   X'04'               - Submit check for run
                                    5551  1          =CPFNOCUR   EQU   X'02'               - No abort if cur, next, or prev
                                    5552  1          =*                                     do not exist
                                    5553  1          =CPFNOINC   EQU   X'01'               - No increment of lineno's
                                    5554  1          =
 000D54 00                          5555  1          =CPLFLG5    FLAG
                                    5559  1          =* common flag bits of cplflg5 used by many commands
                                    5560  1          =CPFUNUM    EQU   X'80'               - Unnumbered flag
                                    5561  1          =CPFNTEX    EQU   X'40'               - Notext listing flag
                                    5562  1          =CPFNONUM   EQU   CPFUNUM+CPFNTEX     - Nonumber listing flag
                                    5563  1          =CPFNLST    EQU   X'20'               - Nolist listing control flag
                                    5564  1          =CPFFOPT    EQU   X'10'               - Number option specified
                                    5565  1          =CPNFINT    EQU   X'08'               - Integer (numbered) flag
                                    5566  1          =CPFSING    EQU   X'01'               - Single option
                                    5567  1          =
 000D55 00                          5568  1          =CPLFLG6    FLAG
 CPLFLG6.CPFDUMP   80 ONES          5572  1          =           FLAG  CPFDUMP             - Dump (collect options)
 CPLFLG6.CPFQUIET  40 ONES          5577  1          =           FLAG  CPFQUIET            - Quiet
 CPLFLG6.CPFKOK    20 ONES          5582  1          =           FLAG  CPFKOK              - Yes or ok needed for access
 CPLFLG6.CPFCLEAR  10 ONES          5587  1          =           FLAG  CPFCLEAR            - Clear current Active file
 CPLFLG6.CPFKEEP   08 ONES          5592  1          =           FLAG  CPFKEEP             - Keep current Active file
 CPLFLG6.CPFNWARN  04 ONES          5597  1          =           FLAG  CPFNWARN            - NOWARN specified
                                    5602  1          =
 000D56 00                          5603  1          =CPLFLG7    FLAG
 CPLFLG7.CPFSETP   80 ONES          5607  1          =           FLAG  CPFSETP             - This command set the prefix
 CPLFLG7.CPFTRUNC  40 ONES          5612  1          =           FLAG  CPFTRUNC            - Lines truncated when saved
 CPLFLG7.CPFNOCAT  20 ONES          5617  1          =           FLAG  CPFNOCAT            - Don't use the catalog
 CPLFLG7.CPFUNCAT  10 ONES          5622  1          =           FLAG  CPFUNCAT            - Uncatalog
 CPLFLG7.CPFRECAT  08 ONES          5627  1          =           FLAG  CPFRECAT            - Recatalog
                                    5632  1          =
 000D57 00                          5633  1          =CPLFLG8    FLAG
 CPLFLG8.CPLCOLXP  80 ONES          5637  1          =           FLAG  CPLCOLXP            - Dump with explicit lineno
 CPLFLG8.CPFNCUR   40 ONES          5642  1          =           FLAG  CPFNCUR             - Don't update current lineno
 CPLFLG8.CPFCASE   20 ONES          5647  1          =           FLAG  CPFCASE             - Explicit case override
 CPLFLG8.CPFUPPER  10 ONES          5652  1          =           FLAG  CPFUPPER            - Explicit case is upper case
                                    5657  1          =
 000D58 00                          5658  1          =CPLFLG9    FLAG
1GLOB     (GLOB5139) (12:46) (15MAR04) WYLBUR's Global Control Blocks                                                       Page   58
0Current Usings:  (CP,R11) (CV,R12)
0D-Loc  Object Code    Addr1 Addr2  Stmt Lv Lineno    Source Statement           (Hibal 5, Asmedit 3.3)  HLASM R4.0  2004/03/15 12.46
+_____  ______ ____    _____ _____  ____ __ ______    ______ _________
0CPLFLG9.CPLSTOWD  80 ONES          5662  1          =           FLAG  CPLSTOWD            - Lines stowed with collect
 CPLFLG9.CPFFIRST  40 ONES          5667  1          =           FLAG  CPFFIRST            - First time flag
 CPLFLG9.CPFVER    20 ONES          5672  1          =           FLAG  CPFVER              - Verify option specified
 CPLFLG9.CPFINT    10 ONES          5677  1          =           FLAG  CPFINT              - Internal format
 CPLFLG9.CPFEXNOB  08 ONES          5682  1          =           FLAG  CPFEXNOB            - "NOBREAK" specified on EXEC
 CPLFLG9.CPFGEN    04 ONES          5687  1          =           FLAG  CPFGEN              - Generation dataset
                                    5692  1          =
 000D59 00                          5693  1          =CPLFLG10   FLAG
 CPLFLG10.CPLFSPEL 80 ONES          5697  1          =           FLAG  CPLFSPEL            - Force spell check in page mode
                                    5702  1          =
 000D5A 00                          5703  1          =CPLFLG11   FLAG
 CPLFLG11.CPFABORT 80 ONES          5707  1          =           FLAG  CPFABORT            - Abort command
 CPLFLG11.CPFERROR 40 ONES          5712  1          =           FLAG  CPFERROR            - Command error
 CPLFLG11.CPFRETRY 20 ONES          5717  1          =           FLAG  CPFRETRY            - Force command retry
 CPLFLG11.CPFRQUIT 10 ONES          5722  1          =           FLAG  CPFRQUIT            - Quit range (see DESPOT in ACT)
                                    5727  1          =
 000D5B 00                          5728  1          =CPLFLG12   FLAG
 CPLFLG12.CPFIDSET 80 ONES          5732  1          =           FLAG  CPFIDSET            - Attn ID already set
                                    5737  1          =
 000D5C 00                          5738  1          =CPLFLG14   FLAG
 CPLFLG14.CPFWFIX  80 ONES          5742  1          =           FLAG  CPFWFIX             - Fix W variable
 CPLFLG14.CPFZAPIF 40 ONES          5747  1          =           FLAG  CPFZAPIF            - Zap to fix YESNO mult fn calls
 CPLFLG14.CPFBDEST 20 ONES          5752  1          =           FLAG  CPFBDEST            - Bad DEST (see RJE and MAIL)
 CPLFLG14.CPFDSNNE 10 ONES          5757  1          =           FLAG  CPFDSNNE            - Don't generate error on baddsn
 CPLFLG14.CPFDSNBD 08 ONES          5762  1          =           FLAG  CPFDSNBD            - Bad dsname found
                                    5767  1          =
                                    5768  1          =CPLFLGND   EQU   *                   End of local flags
1GLOB     (GLOB5139) (12:46) (15MAR04) WYLBUR's Global Control Blocks                                                       Page   59
0Current Usings:  (CP,R11) (CV,R12)
0D-Loc  Object Code    Addr1 Addr2  Stmt Lv Lineno    Source Statement           (Hibal 5, Asmedit 3.3)  HLASM R4.0  2004/03/15 12.46
+_____  ______ ____    _____ _____  ____ __ ______    ______ _________
0                                   5770= 1          =           ¿þþþþþþþþþþþþþþþþþþþþÜ
                                    5771= 1          =           Ÿ  Local work cells  Ÿ
                                    5772= 1          =           ¾þþþþþþþþþþþþþþþþþþþþ»
 000D60                             5773  1          =CPWK1      DS    F                   Work cells
 000D64                             5774  1          =CPWK2      DS    F
 000D68                             5775  1          =CPWK3      DS    F
 000D6C                             5776  1          =CPWK4      DS    F
 000D70                             5777  1          =CPWK5      DS    F
 000D74                             5778  1          =CPWK6      DS    F
 000D78                             5779  1          =CPWK7      DS    F
 000D7C                             5780  1          =CPWK8      DS    F
 000D80                             5781  1          =CPWK9      DS    F
                                    5782  1          =*
                                    5783  1          =* CPWK1, CPWK2 & CPWK3 used by lxcate (external copy)
                                    5784  1          =* CPWK4 used by move & copy
                                    5785  1          =* CPWK4 & CPWK5 used by exec command (parm option)
                                    5786  1          =*
                                    5787  1          =* as used by "change"
                                    5788  1          =CPCHCST    EQU   CPWK1,4,C'F'        Disp. in line of change target fld
                                    5789  1          =CPCHCLN    EQU   CPWK2,4,C'F'        Length of field
                                    5790  1          =CPCHLN1    EQU   CPWK3               Length of string to match
                                    5791  1          =CPCHAD1    EQU   CPWK4               It's address
                                    5792  1          =CPCHMOD    EQU   CPWK7,1,C'X'        First byte for occurrence count
                                    5793  1          =CPCHLN2    EQU   CPWK5               String length to use as replace
                                    5794  1          =CPCHAD2    EQU   CPWK6               It's address
                                    5795  1          =*
                                    5796  1          =* as used by MOVE & COPY
                                    5797  1          =*
                                    5798  1          =CPBGLN     EQU   CPWK5               1st line no. of copy-move
                                    5799  1          =CPNDLN     EQU   CPWK6               Start of rep/interlv on copy-move
                                    5800  1          =*
                                    5801  1          =* as used by USE & SAVE
                                    5802  1          =*
                                    5803  1          =CPNREC     EQU   CPWK2,4,C'F'        Blocking factor for use-save
                                    5804  1          =CPRCSZ     EQU   CPWK3               Blocksize for use-save
                                    5805  1          =CPNXAD     EQU   CPWK4               Work cell for use-save
                                    5806  1          =CPNWCT     EQU   CPWK5               Work cell for use-save
                                    5807  1          =CPUSCNT    EQU   CPWK6,4,C'F'        Use--max no of lines to use
                                    5808  1          =CPUSLNS    EQU   CPWK7,4,C'F'        Use--no of lines stowed
                                    5809  1          =*
                                    5810  1          =* as used by "read"
                                    5811  1          =CPWKRD     EQU   CPWK1               Line number for read command
                                    5812  1          =*
                                    5813  1          =* as used by "exec"
                                    5814  1          =CPEXLNET   EQU   CPWK6               Specified line no. for exec
                                    5815  1          =
                                    5816  1          =CPJWA      EQU   CPWK6               Address of jes work area
1GLOB     (GLOB5139) (12:46) (15MAR04) WYLBUR's Global Control Blocks                                                       Page   60
0Current Usings:  (CP,R11) (CV,R12)
0D-Loc  Object Code    Addr1 Addr2  Stmt Lv Lineno    Source Statement           (Hibal 5, Asmedit 3.3)  HLASM R4.0  2004/03/15 12.46
+_____  ______ ____    _____ _____  ____ __ ______    ______ _________
0                                   5818  1          =*        range-processor information
                                    5819  1          =* CPDRPT is a relic of the past.  1/86, Niz   (Ha! CH 2/91)
 000D84                             5820  1          =CPDRPT     DS    F                   Addr directory entry of locate pg
                                    5821  1          =*                                  high byte is flags....
                                    5822  1          =CPFNTYT    EQU   X'80'               - No active file flag
                                    5823  1          =CPFHIGH    EQU   X'40'               - Higher than lineno in active
                                    5824  1          =CPFMTCH    EQU   X'08'               - Lineno matches pre-existing one
                                    5825  1          =*
                                    5826  1          =* detrng sets cpfsln-cplsln-cpstad-cpmdln-cpmdad
 000D88 00                          5827  1          =CPFRDRNG   FLAG ,                    Read range flags
 CPFRDRNG.CPFEXPRG 80 ONES          5831  1          =           FLAG  CPFEXPRG            Explicit range flag
 CPFRDRNG.CPFSTRRG 40 ONES          5836  1          =           FLAG  CPFSTRRG            Associative range flag
 CPFRDRNG.CPFLSKIP 20 ONES          5841  1          =           FLAG  CPFLSKIP            Line skipped since last rng line
 CPFRDRNG.CPFONEL  10 ONES          5846  1          =           FLAG  CPFONEL             Only one line-number specified
 CPFRDRNG.CPFMODS  08 ONES          5851  1          =           FLAG  CPFMODS             Mods specified flag
 CPFRDRNG.CPFDSJNT 04 ONES          5856  1          =           FLAG  CPFDSJNT            Disjoint explicit range flag
 CPFRDRNG.CPFSOME  02 ONES          5861  1          =           FLAG  CPFSOME             Non-void range flag
 000D89 00                          5866  1          =CPFRDSRC   FLAG ,                    Read range source
 CPFRDSRC.CPFRDACT 01 EQ            5870  1          =           FLAG  (CPFRDACT,1,EQ)     Read from active
 CPFRDSRC.CPFRDEXE 02 EQ            5880  1          =           FLAG  (CPFRDEXE,2,EQ)     Read from exec
 CPFRDSRC.CPFRDEXT 03 EQ            5890  1          =           FLAG  (CPFRDEXT,3,EQ)     Read from external file
 000D8C                             5900  1          =CPNWLN     DS    F                   For despot -- lineno it's at
 000D90                             5901  1          =CPFSLN     DS    F                   1st line no. in range
 000D94                             5902  1          =CPLSLN     DS    F                   Last line no. in range
 000D98                             5903  1          =CPOCCURS   DS    F                   Cur occurrence count for mods
 000D9C                             5904  1          =CPLRCL     DS    F                   Lrecl for data set type
 000DA0                             5905  1          =CPSEQFLD   DS    H                   Seqfld start for numbered
 000DA2                             5906  1          =CPSEQLN    DS    H                   Seqfld length for numbered
 000DA4                             5907  1          =CPSTAD     DS    F                   String wa addr for assoc rng
 000DA8                             5908  1          =CPMDLN     DS    F                   No. of mods or no explicit line nos
 000DAC                             5909  1          =CPMDAD     DS    10F                 The mods or line nos.
                                    5910  1          =*
                                    5911  1          =* CPPRESSL used for locate, one of the last bastion of pressed lines
                                    5912  1          =*
 000DD4                             5913  1          =CPPRESSL   DS    F                   Pressed line area ptr (in HEAP)
                                    5914  1          =*
                                    5915  1          =* CPDRED for use, save, copy
                                    5916  1          =*
 000DD8                             5917  1          =CPDRED     DS    F                   Address of xtrnl buffer
                                    5918  1          =*                                  flag used in cpdred
                                    5919  1          =CPFSTART   EQU   X'F0'               Signal 1st read or not
                                    5920  1          =
 000DDC                             5921  1          =CPIOWAP    DS    F                   IOWA ptr (or zero)
                                    5922  1          =
 000DE0                             5923  1          =CPEVLNO    DS    F                   EVAL command working lineno
 000DE4                             5924  1          =CPEVLEN    DS    F                   EVAL command text len
 000DE8                             5925  1          =CPEVLOC    DS    F                   EVAL command text loc
                                    5926  1          =
 000DEC                             5927  1          =           DS    10F                 Reserved
                                    5928  1          =*
                                    5929  1          =* CPWKPS & CPWKDL are used where required
                                    5930  1          =*
 000E14                             5931  1          =CPWKPS     DS    F                   Work position
 000E18                             5932  1          =CPWKDL     DS    F                   Work delta
1GLOB     (GLOB5139) (12:46) (15MAR04) WYLBUR's Global Control Blocks                                                       Page   61
0Current Usings:  (CP,R11) (CV,R12)
0D-Loc  Object Code    Addr1 Addr2  Stmt Lv Lineno    Source Statement           (Hibal 5, Asmedit 3.3)  HLASM R4.0  2004/03/15 12.46
+_____  ______ ____    _____ _____  ____ __ ______    ______ _________
0                                   5933  1          =
 000E1C                             5934  1          =CPNUMLNO   DS    F                   Working line-number
                                    5935  1          =*                                  (Updated if a renumber occurs)
                                    5936  1          =*
 000E20                             5937  1          =CPLENLNO   DS    F                   First length warning lineno
 000E24                             5938  1          =CPLENWRN   DS    H                   Number of over length warnings
 000E26                             5939  1          =CPLENMAX   DS    H                   Length of longest line
                                    5940  1          =
 000E28 00                          5941  1          =CPEXTFLG   FLAG
 CPEXTFLG.CPFNEWED 80 ONES          5945  1          =           FLAG  CPFNEWED            - NEWEDIT option specified
 CPEXTFLG.CPF###R1 40 ONES          5950  1          =           FLAG  CPF###R1            - Reserved
 CPEXTFLG.CPFXPREF 20 ONES          5955  1          =           FLAG  CPFXPREF            - For PUTLINE: CPNEDPFX is set
 CPEXTFLG.CPFXMULT 10 ONES          5960  1          =           FLAG  CPFXMULT            - For SAVE: MULTIPLE specified
 CPEXTFLG.CPFXALL  08 ONES          5965  1          =           FLAG  CPFXALL             - For USE: We want ALL lines
 CPEXTFLG.CPFNCOND 04 ONES          5970  1          =           FLAG  CPFNCOND            - For SAVE: Do not condense
                                    5975  1          =
 000E29                             5976  1          =CPNEDPFX   DS    XL10                NEWEDIT line prefix
                                    5977  1          =CPNEDL     EQU   CPNEDPFX,8,C'X'     : Line's prefix info (see ACT)
                                    5978  1          =CPNEDSET   EQU   CPNEDPFX+8,2,C'X'   : Active file set number
                                    5979  1          =
 000E34                             5980  1          =CPSAVOLD   DS    F                   For SAVE: last CPACTNO seen
 000E38                             5981  1          =CPSAVACT   DS    F                   For SAVE: CPACTNO to stop at
                                    5982  1          =
 000E3C                             5983  1          =CPUSESET   DS    H                   For USE: current ext. set number
 000E3E                             5984  1          =           DS    H                   Reserved
                                    5985  1          =
 000E40                             5986  1          =           DS    5F                  Reserved
1GLOB     (GLOB5139) (12:46) (15MAR04) WYLBUR's Global Control Blocks                                                       Page   62
0Current Usings:  (CP,R11) (CV,R12)
0D-Loc  Object Code    Addr1 Addr2  Stmt Lv Lineno    Source Statement           (Hibal 5, Asmedit 3.3)  HLASM R4.0  2004/03/15 12.46
+_____  ______ ____    _____ _____  ____ __ ______    ______ _________
0                                   5988= 1          =     ¿þþþþþþþþþþþþþþþþþþþþþþþþþÜ
                                    5989= 1          =     Ÿ  Modern file work area  Ÿ
                                    5990= 1          =     ¾þþþþþþþþþþþþþþþþþþþþþþþþþ»
 000E54                             5991  1          =CPFINFOP   DS    A                   FILE NAME, FILE INFO DSECT
 000E58                             5992  1          =CPDEVP     DS    A                   FILE WORK AREA
0                                   5994= 1          =     ¿þþþþþþþþþþþþþþþþþþþþþþþÜ
                                    5995= 1          =     Ÿ  Data set work area.  Ÿ
                                    5996= 1          =     ¾þþþþþþþþþþþþþþþþþþþþþþþ»
 000E5C                             5997  1          =CPDSNWA    DS    0F
 000E5C                             5998  1          =DSNWADSN   DS    CL44                Dsname
                                    5999  1          =DSNWAGRP   EQU   DSNWADSN+4,2,C'X'   .gg
                                    6000  1          =DSNWAUSR   EQU   DSNWADSN+7,3,C'X'   .uuu
                                    6001  1          =DSNWASTD   EQU   DSNWADSN+11,33,C'X' .user part of standard dsname
                                    6002  1          =* offsets of dsname levels for standard WYLBUR dsnames...
                                    6003  1          =DSNXG      EQU   4                   Offset of group id in std dsname
                                    6004  1          =DSNXGL     EQU   3                   Length of group level in std dsn
                                    6005  1          =DSNXU      EQU   DSNXG+DSNXGL        Offset of user id in std dsname
                                    6006  1          =DSNXUL     EQU   4                   Length of user level in std dsn
                                    6007  1          =DSNXN      EQU   DSNXU+DSNXUL        Offset after std dsn prefix
                                    6008  1          =
 000E88                             6009  1          =DSNWAMBR   DS    CL8                 Pds member name
                                    6010  1          =DSNWACL2   EQU   *-DSNWADSN          2nd entry length to clear to blk
 000E90                             6011  1          =DSNON      DS    CL40                ON volume name
                                    6012  1          =DSNON6     EQU   DSNON,6,C'X'        6 char volume name for disks
 000EB8                             6013  1          =DSNCATV    DS    CL6                 Cataloged volume name
 000EBE                             6014  1          =DSNBADV    DS    CL6                 Volume name to avoid (for retry)
 000EC4                             6015  1          =DSNNUSER   DS    CL32                Network user-id
 000EE4                             6016  1          =DSNNPASS   DS    CL32                Network user-id's password
 000F04                             6017  1          =DSNWLEN    DS    H                   File name length
                                    6018  1          =DSNWACLR   EQU   *-DSNWADSN          Length to be cleared to blanks
 000F06                             6019  1          =DSNWANL    DS    H                   Dsname length
                                    6020  1          =
 000F08                             6021  1          =DSNWFILE   DS    CL44                File name (uplow)
                                    6022  1          =
 000F34 00                          6023  1          =DSNWAF1    FLAG
                                    6027  1          =DSNFSTD    EQU   X'80'               - Dsname is standard WYLBUR name
                                    6028  1          =DSNFMYDS   EQU   X'40'               - Dsname belongs to user
                                    6029  1          =DSNFWLIB   EQU   X'20'               - Data set is standard WYLBUR pds
                                    6030  1          =DSNFQDSN   EQU   X'10'               - Dsname was specified in quotes
                                    6031  1          =DSNFREPL   EQU   X'08'               - Replace this dataset
                                    6032  1          =DSNFKEY    EQU   X'04'               - We have prompted for keyword
                                    6033  1          =DSNFBYPS   EQU   X'02'               - Bypass protection
                                    6034  1          =DSNFACCS   EQU   X'01'               - Dsname access has been verified
                                    6035  1          =
 000F35 00                          6036  1          =DSNWAF2    FLAG
                                    6040  1          =DSNFSIMP   EQU   X'FF'               - Simple dopen/dclose request
                                    6041  1          =DSNFWRT    EQU   X'80'               - Data set to be written
                                    6042  1          =DSNFSCR    EQU   X'40'               - Scratch function flag
                                    6043  1          =DSNFPDS    EQU   X'20'               - Command dealing with a pds
                                    6044  1          =DSNFALLO   EQU   X'10'               - Allocate command
                                    6045  1          =DSNFSHOW   EQU   X'08'               - Function is show
                                    6046  1          =DSNFCAT    EQU   X'04'               - Command manipulating the catlg
                                    6047  1          =DSNFVALO   EQU   X'02'               - *** not used ***
1GLOB     (GLOB5139) (12:46) (15MAR04) WYLBUR's Global Control Blocks                                                       Page   63
0Current Usings:  (CP,R11) (CV,R12)
0D-Loc  Object Code    Addr1 Addr2  Stmt Lv Lineno    Source Statement           (Hibal 5, Asmedit 3.3)  HLASM R4.0  2004/03/15 12.46
+_____  ______ ____    _____ _____  ____ __ ______    ______ _________
0                                   6048  1          =DSNFPROT   EQU   X'01'               - Set/show protect command
                                    6049  1          =
 000F36 00                          6050  1          =DSNWAF3    FLAG
                                    6054  1          =DSNFTYP    EQU   X'80'               - Show dsn/type,dir/all,cat/type
                                    6055  1          =DSNFLIN    EQU   X'80'               - Lines option on save
                                    6056  1          =DSNFSPAC   EQU   X'40'               - Show dsn/space
                                    6057  1          =DSNFDATD   EQU   X'20'               - Show dsn/dated
                                    6058  1          =DSNFXCL    EQU   X'10'               - Exclude on show dsn/dir/cat
                                    6059  1          =DSNFCVOL   EQU   X'08'               - Cvol option specified on cat op
                                    6060  1          =DSNFCHT    EQU   X'04'               - Type change ok on save
                                    6061  1          =DSNFEXP    EQU   X'02'               - Expdt override ok on save/scr
                                    6062  1          =DSNFNOFL   EQU   X'01'               - Bypass FASTLIB search
                                    6063  1          =
 000F37 00                          6064  1          =DSNWAF4    FLAG
 DSNWAF4.DSNFMAIL  80 ONES          6068  1          =           FLAG  DSNFMAIL            - Mail command
 DSNWAF4.DSNFSML   40 ONES          6073  1          =           FLAG  DSNFSML             - Show mail command
 DSNWAF4.DSNFBADN  20 ONES          6078  1          =           FLAG  DSNFBADN            - Bad (non-os) dsname
 DSNWAF4.DSNFENQ   10 ONES          6083  1          =           FLAG  DSNFENQ             - DOPEN ENQ'd on dsname
 DSNWAF4.DSNFSTAT  08 ONES          6088  1          =           FLAG  DSNFSTAT            - Give "in progress" messages
 DSNWAF4.DSNFRSV1  04 ONES          6093  1          =           FLAG  DSNFRSV1            - Reserved
 DSNWAF4.DSNFRENA  02 ONES          6098  1          =           FLAG  DSNFRENA            - Rename command
 DSNWAF4.DSNFFAST  01 ONES          6103  1          =           FLAG  DSNFFAST            - FASTLIB
                                    6108  1          =
 000F38 00                          6109  1          =DSNWAF5    FLAG
 DSNWAF5.DSNFUNC   80 ONES          6113  1          =           FLAG  DSNFUNC             - SHOW CATALOG UNCATALOG
 DSNWAF5.DSNFTAB   40 ONES          6118  1          =           FLAG  DSNFTAB             - SHOW DIRECTORY TABLE option
 DSNWAF5.DSNFCODE  20 ONES          6123  1          =           FLAG  DSNFCODE            - Encoded dataset
 DSNWAF5.DSNFNONQ  10 ONES          6128  1          =           FLAG  DSNFNONQ            - No enqueue (privd)
 DSNWAF5.DSNFONLY  08 ONES          6133  1          =           FLAG  DSNFONLY            - Do "OBTAIN" (SHOW DSN ONLY)
 DSNWAF5.DSNFCUNI  04 ONES          6138  1          =           FLAG  DSNFCUNI            - UNIT specified on (RE)CATALOG
 DSNWAF5.DSNFCUIG  02 ONES          6143  1          =           FLAG  DSNFCUIG            - UNIT ignored - volume known
 DSNWAF5.DSNFLIKE  01 ONES          6148  1          =           FLAG  DSNFLIKE            - SHOW DIRECTORY LIKE option
                                    6153  1          =
 000F39 00                          6154  1          =DSNWAF6    FLAG
 DSNWAF6.DSNFTRAN  80 ONES          6158  1          =           FLAG  DSNFTRAN            - TRANSPARENT option
 DSNWAF6.DSNFSTRM  40 ONES          6163  1          =           FLAG  DSNFSTRM            - STREAM option
 DSNWAF6.DSNFSPLT  20 ONES          6168  1          =           FLAG  DSNFSPLT            - SPLIT option (see DSNWRAPL)
 DSNWAF6.DSNFAPP   10 ONES          6173  1          =           FLAG  DSNFAPP             - APPEND option
 DSNWAF6.DSNFRETAI 08 ONES          6178  1          =           FLAG  DSNFRETAIN          - RETAIN option
 DSNWAF6.DSNFDTRAN 04 ONES          6183  1          =           FLAG  DSNFDTRAN           - DTRANSPARENT option
 DSNWAF6.DSNFTABS  02 ONES          6188  1          =           FLAG  DSNFTABS            - TABS option
 DSNWAF6.DSNFUFMT  01 ONES          6193  1          =           FLAG  DSNFUFMT            - UNFORMATTED option
                                    6198  1          =
 000F3A 00                          6199  1          =DSNWAF7    FLAG
 DSNWAF7.DSNFTEXTO 80 ONES          6203  1          =           FLAG  DSNFTEXTONLY        - TEXTONLY option
 DSNWAF7.DSNFASCII 40 ONES          6208  1          =           FLAG  DSNFASCII           - ASCII format
 DSNWAF7.DSNFEBCDI 20 ONES          6213  1          =           FLAG  DSNFEBCDIC          - EBCDIC format
 DSNWAF7.DSNFWRITE 10 ONES          6218  1          =           FLAG  DSNFWRITE           - lines written
                                    6223  1          =
 000F3B                             6224  1          =DSNDTYPE   DS    X                   Device type
                                    6225  1          =DSNDDISK   EQU   1                   - Disk
                                    6226  1          =DSNDSAM    EQU   2                   - Samson
                                    6227  1          =DSNDNET    EQU   3                   - Network
                                    6228  1          =DSNDMAX    EQU   3
1GLOB     (GLOB5139) (12:46) (15MAR04) WYLBUR's Global Control Blocks                                                       Page   64
0Current Usings:  (CP,R11) (CV,R12)
0D-Loc  Object Code    Addr1 Addr2  Stmt Lv Lineno    Source Statement           (Hibal 5, Asmedit 3.3)  HLASM R4.0  2004/03/15 12.46
+_____  ______ ____    _____ _____  ____ __ ______    ______ _________
0                                   6229  1          =
 000F3C                             6230  1          =DSNNTRK    DS    H                   No. of tracks (for allocate)
 000F3E                             6231  1          =DSNNBLK    DS    H                   No. of dir blocks (for allocate)
 000F40                             6232  1          =DSNIXLEN   DS    H                   Length of pattern dsname
                                    6233  1          =
 000F42                             6234  1          =DSNWRAPL   DS    H                   Wrap length (or zero)
                                    6235  1          =
 000F44                             6236  1          =DSNVOLCT   DS    H                   Number of alt volumes picked
 000F48                             6237  1          =           DS    F                   Reserved
                                    6238  1          =
 000F4C                             6239  1          =DSNCLCK    DS    F                   Clock at last status message
 000F50                             6240  1          =DSNLCNT    DS    F                   No. of lines read/written
 000F54                             6241  1          =DSNLTOT    DS    F                   Total number of lines (0=n/a)
                                    6242  1          =
 000F58                             6243  1          =DSNFLIB    DS    F                   FASTLIB entry pointer
 000F5C                             6244  1          =DSNCODE    DS    F                   Dataset encoding value
                                    6245  1          =
 000F60                             6246  1          =DSNDEVP    DS    A                   Device dependent work area ptr
                                    6247  1          =
 000F64                             6248  1          =           DS    0F
                                    6249  1          =DSSIZ      EQU   *-DSNWADSN          Length of dsname work area
                                    6250  1          =*
                                    6251  1          =* Offsets in dsname work area for SHOW DSNAMES...
                                    6252  1          =SDSNQSZ    EQU   44                  Show dsnames bound area size
 000F64                             6253  1          =SDSNQLB    DS    CL(SDSNQSZ)         Show dsnames lower bound
 000F90                             6254  1          =SDSNQUB    DS    CL(SDSNQSZ)         Show dsnames upper bound
                                    6255  1          =SDSNDSZ    EQU   *-DSNWADSN          Lngth of sdsn wk area
                                    6256  1          =
 000FBC                00FBC 00F64  6257  1          =           ORG   DSNWADSN+DSSIZ      Define area for save
 000F64                             6258  1          =DSAVTITL   DS    H                   Title length
 000F66                             6259  1          =DSAVTIT    DS    CL42                Title text
 000F90                             6260  1          =DSAVSPA    DS    F                   Byte size for new data set
 000F94                             6261  1          =DSAVCNT    DS    H                   Line count for new data set
 000F96                             6262  1          =DSAVBLK    DS    H                   Block count for edit save
                                    6263  1          =DSAVSIZ    EQU   *-DSNWADSN          Size of work area for save
                                    6264  1          =*
                                    6265  1          =* DSN work area extension for CATALOG
 000F98                00F98 00F64  6266  1          =           ORG   DSNWADSN+DSSIZ
 000F64                             6267  1          =DCATUNIT   DS    F                   Unit type for CATALOG
                                    6268  1          =DCATSIZ    EQU   *-DSNWADSN
                                    6269  1          =*
                                    6270  1          =* DSN work area extension for RENAME
 000F68                00F68 00F64  6271  1          =           ORG   DSNWADSN+DSSIZ      Define area for RENAME
 000F64                             6272  1          =DRENDSN    DS    CL44                Newname
 000F90                             6273  1          =DRENMNAM   DS    CL8                 Member name
 000F98                             6274  1          =DRENCTRC   DS    F                   Newname catalog return code
 000F9C                             6275  1          =DRENDSNL   DS    H                   Newname length
 000F9E 00                          6276  1          =DRENPROT   FLAG  ,
 DRENPROT.DRENISP  10 ONES          6280  1          =           FLAG  (DRENISP,X'10')     Dataset password protected
 000F9F 00                          6289  1          =DRENCFLG   FLAG  ,
 DRENCFLG.DRENTODN 80 ONES          6293  1          =           FLAG  DRENTODN            "TO" keyword found
 DRENCFLG.DRENUNC  40 ONES          6298  1          =           FLAG  DRENUNC             Old DSN uncat attempted
 DRENCFLG.DRENCATF 20 ONES          6303  1          =           FLAG  DRENCATF            New DSN cat failed
 DRENCFLG.DRENUNCF 10 ONES          6308  1          =           FLAG  DRENUNCF            Old DSN uncat failed
1GLOB     (GLOB5139) (12:46) (15MAR04) WYLBUR's Global Control Blocks                                                       Page   65
0Current Usings:  (CP,R11) (CV,R12)
0D-Loc  Object Code    Addr1 Addr2  Stmt Lv Lineno    Source Statement           (Hibal 5, Asmedit 3.3)  HLASM R4.0  2004/03/15 12.46
+_____  ______ ____    _____ _____  ____ __ ______    ______ _________
0DRENCFLG.DRENMBR  08 ONES          6313  1          =           FLAG  DRENMBR             This is rename of pds member
 000FA0                             6318  1          =DREN1OR    DS    CL2                 Newname 1st level override
 000FA2                             6319  1          =DREN2OR    DS    CL3                 Newname 2nd level override
                                    6320  1          =DRENSIZ    EQU   *-DSNWADSN          Size of work area for rename
 000FA5                00FA5 00FBC  6321  1          =           ORG   ,
                                    6322  1          =
                                    6323  1          =CPZERO     EQU   CPLOCALZ,*-CPLOCALZ,C'X'  Fields zeroed at cmd start
                                    6324= 1          =     ¿þþþþþþþþþþþþþþþþþþþþþþþþþþþþþþþþþþþþþþþþþþþþþþþþþþþþþþÜ
                                    6325= 1          =     Ÿ  Stuff that we don't need direct addressability to.  Ÿ
                                    6326= 1          =     ¾þþþþþþþþþþþþþþþþþþþþþþþþþþþþþþþþþþþþþþþþþþþþþþþþþþþþþþ»
                                    6327  1          =CPUSED     EQU   *-CPSTART           Actual size of CP
 000FBC                             6328  1          =           DS    (4096-CPUSED)X      Slop space
                                    6329  1          =CPINITL    EQU   *-CPINIT,,C'N'
                                    6330  1          =
                                    6331  1          =CPXSIZE    EQU   *-CPSTART           Total CP size
1GLOB     (GLOB5139) (12:46) (15MAR04) WYLBUR's Global Control Blocks                                                       Page   66
0Current Usings:  (CP,R11) (CV,R12)
0D-Loc  Object Code    Addr1 Addr2  Stmt Lv Lineno    Source Statement           (Hibal 5, Asmedit 3.3)  HLASM R4.0  2004/03/15 12.46
+_____  ______ ____    _____ _____  ____ __ ______    ______ _________
0                                   6333= 1          =     ¿þþþþþþþþþþþþþþþþþþþþþþþþþþþþþÜ
                                    6334= 1          =     Ÿ  Flags for DESPOT callers.  Ÿ
                                    6335= 1          =     ¾þþþþþþþþþþþþþþþþþþþþþþþþþþþþþ»
                                    6336  1          =DESRTRN    EQU   X'80'               Return from despot
                                    6337  1          =DESNRTN    EQU   X'00'               Call cmdprt from despot
                                    6338  1          =LEXATRTN   EQU   X'40'               Use locateex
                                    6339  1          =LXCATRTN   EQU   X'60'               Use lxcate
                                    6340  1          =LOCATRTN   EQU   X'00'               Use locate
                                    6341  1          =UNPRST     EQU   X'01'               Return unpressed from despot
                                    6342  1          =PREST      EQU   X'00'               Return pressed from despot
                                    6343  1          =DESABORT   EQU   X'04'               Attention can abort range
                                    6344  1          =
                                    6345  1          =FRNGTYP    EQU   X'C0'               Range type bits
                                    6346  1          =*              x'00'               single line number range n
                                    6347  1          =*              x'40'               count range n(m)
                                    6348  1          =*              x'c0'               normal two line range n/m
                                    6349  1          =*
                                    6350  1          =TALOCODE   EQU   32                  Talo rc for ntgdopn routine
                                    6351  1          =ABRTCODE   EQU   36                  Abort rc for ntgdopn routine
                                    6352  1          =
                                    6353  1          =ENTL       EQU   44                  Open reg save size used in DISK
 001000                01000 01000  6354                       END
                                    6363
                                    6364                       COPY  TTYPE
                                    6365=            =¿þþþþþþþþþþþþþþþþþþþþþþþþþþþþþþþþþþþþþþþþþþþþþþþþþþþþþþþþþþþþþþþþþþþþþÜ
                                    6366=            =Ÿ                                                                     Ÿ
                                    6367=            =Ÿ  Terminal Type Information                                          Ÿ
                                    6368=            =Ÿ                                                                     Ÿ
                                                      ¾þþþþþþþþþþþþþþþþþþþþþþþþþþþþþþþþþþþþþþþþþþþþþþþþþþþþþþþþþþþþþþþþþþþþþ»
0000000                00000 0010C  6369             =TTYPE    RECORD BEGIN
 000000                             6377  1          =TTYLINK    DS    A                   Next TTYPE ptr
                                    6378  1          =
 000004 00                          6379  1          =TTYFLAG    FLAG
 TTYFLAG.TTYFREL   80 ONES          6383  1          =           FLAG  TTYFREL             - Release this entry
                                    6388  1          =
 000005 00                          6389  1          =TTYTFLAG   FLAG
 TTYTFLAG.TTYFMOD  80 ONES          6393  1          =           FLAG  TTYFMOD             - Supported as a Model terminal
 TTYTFLAG.TTYFSAM  40 ONES          6398  1          =           FLAG  TTYFSAM             - Supported as a Samson terminal
 TTYTFLAG.TTYFMARK 20 ONES          6403  1          =           FLAG  TTYFMARK            - Always display marked rendition
 TTYTFLAG.TTYFSCR  10 ONES          6408  1          =           FLAG  TTYFSCR             - Terminal supports scrolling
 TTYTFLAG.TTYFQSCR 08 ONES          6413  1          =           FLAG  TTYFQSCR            - Terminal supports quick scroll
 TTYTFLAG.TTYFVTAM 04 ONES          6418  1          =           FLAG  TTYFVTAM            - VTAM/3270 type of terminal
 TTYTFLAG.TTYFCOLO 02 ONES          6423  1          =           FLAG  TTYFCOLOR           - This is a color terminal
                                    6428  1          =
 000006                             6429  1          =TTYUSE     DS    H                   Use count
                                    6430  1          =
 000008                             6431  1          =TTYHEI     DS    H                   Terminal height (no. of lines)
 00000A                             6432  1          =TTYWID     DS    H                   Terminal width  (no. of columns)
 00000C                             6433  1          =TTYAWID    DS    H                   Alternate terminal width
                                    6434  1          =
 000010                             6435  1          =TTYINITQ   DS    A                   Initialization text queue ptr
                                    6436  1          =
                                    6437  1          =TTYMAX#    EQU   6
1GLOB     (GLOB5139) (12:46) (15MAR04) WYLBUR's Global Control Blocks                                                       Page   67
0Current Usings:  (CP,R11) (CV,R12)
0D-Loc  Object Code    Addr1 Addr2  Stmt Lv Lineno    Source Statement           (Hibal 5, Asmedit 3.3)  HLASM R4.0  2004/03/15 12.46
+_____  ______ ____    _____ _____  ____ __ ______    ______ _________
0000014                             6438  1          =TTYNAME    DS    (TTYMAX#)CL8        Terminal name (primary is first)
                                    6439  1          =
 000044                             6440  1          =TTYTCLS    DS    CL8                 Generic terminal class
                                    6441  1          =
 00004C                             6442  1          =TTYNORM    DS    CL8                 Normal text
 000054                             6443  1          =TTYBOLD    DS    CL8                 Bold text
 00005C                             6444  1          =TTYSTAT    DS    CL8                 Status line
 000064                             6445  1          =TTYPF      DS    CL8                 PF key line
 00006C                             6446  1          =TTYPFHI    DS    CL8                 Highlighted PF key
 000074                             6447  1          =TTYMSG     DS    CL8                 Message text
 00007C                             6448  1          =TTYERR     DS    CL8                 Error text
 000084                             6449  1          =TTYNEW     DS    CL8                 New lines
 00008C                             6450  1          =TTYMARK    DS    CL8                 Marked lines
 000094                             6451  1          =TTYLNORM   DS    CL8                 Normal lineno
 00009C                             6452  1          =TTYLCOL    DS    CL8                 Collect lineno
 0000A4                             6453  1          =TTYLDIM    DS    CL8                 Dim lineno
 0000AC                             6454  1          =TTYLMARK   DS    CL8                 Marked lineno
 0000B4                             6455  1          =TTYLNEW    DS    CL8                 New lineno
 0000BC                             6456  1          =TTYOPT     DS    CL8                 Option text
 0000C4                             6457  1          =TTYDIM     DS    CL8                 Dim text
 0000CC                             6458  1          =TTY####3   DS    CL8
 0000D4                             6459  1          =TTYCOL     DS    CL8                 Column line
 0000DC                             6460  1          =TTYCOLT    DS    CL8                 Column line/tab position
 0000E4                             6461  1          =TTYCOLM    DS    CL8                 Column line/text past margin
 0000EC                             6462  1          =TTY####4   DS    CL8
 0000F4                             6463  1          =TTYSPELL   DS    CL8                 Misspelled word
 0000FC                             6464  1          =TTYCMD     DS    CL8                 Command line
 000104                             6465  1          =TTYBACK    DS    CL8                 Backround rendition
 00010C                0010C 0010C  6466             =         END
1GLOB     (GLOB5139) (12:46) (15MAR04) WYLBUR's Global Control Blocks                                                       Page   68
0Current Usings:  (CP,R11) (CV,R12)
0Loc    Object Code    Addr1 Addr2  Stmt Lv Lineno    Source Statement           (Hibal 5, Asmedit 3.3)  HLASM R4.0  2004/03/15 12.46
+___    ______ ____    _____ _____  ____ __ ______    ______ _________
0                                   6476              WYLGLOB  CSECT
 000017                00000 22B50  6477    01-00037 +WYLGLOB $$CSECT
                                    6478              ¿þþþþþþþþþþþþþþþþþþþþþþþþþþþþþþþþþþþþþþþþþþþþþþþþþþþþþþþþþþþþþþþþþþþþþÜ
                                    6479              Ÿ                                                                     Ÿ
                                    6480              Ÿ  RESOURCE groups                                                    Ÿ
                                    6481              Ÿ                                                                     Ÿ
                                                      ¾þþþþþþþþþþþþþþþþþþþþþþþþþþþþþþþþþþþþþþþþþþþþþþþþþþþþþþþþþþþþþþþþþþþþþ»
0                                   6482                       COPY  RSCGROUP
 000000                00000 0003C  6483             =RSCGROUP RECORD BEGIN
 000000 4040404040404040            6491  1          =RSGNAME    DC    CL8' '              resource group name
 000008 00000000                    6492  1          =RSG#AUSE   DC    F'0'                no. of use attempts
 00000C 0000                        6493  1          =RSG#FREE   DC    H'0'                no. of resources free
 00000E 0000                        6494  1          =RSG#ACTV   DC    H'0'                no. of resources in use
 000010 00000000                    6495  1          =RSG#IMFR   DC    F'0'                no. of with no wait required
 000014 00000000                    6496  1          =RSGQACFW   DC    A(0)                active resource forward chain
 000018 00000000                    6497  1          =RSGQACBK   DC    A(0)                active resource backward chain
 00001C 00000000                    6498  1          =RSGQFRFW   DC    A(0)                free resource forward chain
 000020 00000000                    6499  1          =RSGQFRBK   DC    A(0)                free resource backward chain
 000024 00000000                    6500  1          =RSG#WAIT   DC    F'0'                no. of waits for the resource
 000028 00000000                    6501  1          =RSG@POST   DC    A(0)                address of post routine
 00002C 00000000                    6502  1          =RSG@QUER   DC    A(0)                address of jcb queue routine
 000030 00000000                    6503  1          =RSGQJCFW   DC    A(0)                forward jcb queue
 000034 00000000                    6504  1          =RSGQJCBK   DC    A(0)                backward jcb queue
 000038 0000                        6505  1          =RSG#MXJC   DC    H'0'                max # jcbs ever queued
                                    6506  1          =
 00003A 00                          6507  1          =RSGWTYPE   DC    X'00'               resource wait type
                                    6508  1          =RSGWLONG   EQU   1                   this is a long wait
                                    6509  1          =RSGWTERM   EQU   2                   terminal wait
                                    6510  1          =RSGWRSC    EQU   3                   resource busy wait
                                    6511  1          =RSGWSHRT   EQU   4                   short i/o wait
                                    6512  1          =
 00003B 00                          6513  1          =RSGFLG1    FLAG  ,                   flag1
 RSGFLG1.RSG1ACTV  80 ONES          6517  1          =           FLAG  RSG1ACTV            - resource group is active
 RSGFLG1.RSG1QUED  40 ONES          6522  1          =           FLAG  RSG1QUED            - at least one jcb is queued
 RSGFLG1.RSG1ASYN  20 ONES          6527  1          =           FLAG  RSG1ASYN            - rsgroup is asynchronous
                                    6532  1          =RSGFLGSZ   EQU   *-RSGFLG1           size of flag area
 00003C                             6533  1          =           DS    0F
 00003C                0003C 0003C  6534             =         END
-
 000000                00000 00018  6544             =RESOURCE RECORD 'RSCHDR'           resource entry definition
 000000 00000000                    6555  1 03-RSCHD +RSC@NEXT     DC    A(0)              next resource on queue
 000004 00000000                    6556  1 03-RSCHD +RSC@PREV     DC    A(0)              previous resource on queue
 000008 00000000                    6557  1 03-RSCHD +RSC@JCB      DC    A(0)              address of owning jcb
 00000C 00000000                    6558  1 03-RSCHD +RSC$ECB      DC    A(0)              resource ecb
 000010 00000000                    6559  1 03-RSCHD +RSC#USE      DC    A(0)              no. of uses of resource
 000014 00                          6560  1          +*
 RSCFLAGS.RSC1ACTV 80 ONES
 RSCFLAGS.RSC1@ECB 40 ONES
 RSCFLAGS.RSC1ASYN 20 ONES
 000018                00018 00018  6580    03-RSCHD +         DS    0F
1GLOB     (GLOB5139) (12:46) (15MAR04) WYLBUR's Global Control Blocks                                                       Page   69
0Current Usings:  (CP,R11) (CV,R12)
0Loc    Object Code    Addr1 Addr2  Stmt Lv Lineno    Source Statement           (Hibal 5, Asmedit 3.3)  HLASM R4.0  2004/03/15 12.46
+___    ______ ____    _____ _____  ____ __ ______    ______ _________
0                                   6591                       EXTRN KIOPOST
                                    6592
                                    6593              FRSTRSG  RSC   RUN,SETUP,PAGEIO
 000018                             6594    01-01179 +FRSTRSG  DS    0F
                                    6595    01-01185 +         ENTRY RUNRSG
 000018 D9E4D54040404040            6596    01-01186 +RUNRSG   DC    CL8'RUN',A(0),Y(0),A(0)
 00002C 0000002C0000002C            6597    01-01187 +         DC    A(*,*-4)            Active queue link ptrs
 000034 0000003400000034            6598    01-01188 +         DC    A(RUNFRST,RUNLAST)    free queue link ptrs
 00003C 0000000000000000            6599    01-01189 +         DC    A(0),A(0),A(0)
 000048 0000004800000048            6600    01-01190 +         DC    A(*-(JCBQF-JCB),*-(JCBQB-JCB))  jcb queue link ptrs
 000050 00000000                    6601    01-01191 +         DC    XL(L'RSCGROUP-(*-RUNRSG))'0'
 000054                             6602    01-01193 +         DS    0SL2(1-CVRRUN,CVRRUN-1)            id's should match
                                    6603             +
                                    6604    01-01196 +RUNFRST  EQU   RUNRSG+(RSGQFRFW-RSCGROUP)
                                    6605    01-01197 +RUNLAST  EQU   RUNRSG+(RSGQFRFW-RSCGROUP)
-                                   6607    01-01185 +         ENTRY SETRSG
 000054 E2C5E3E4D7404040            6608    01-01186 +SETRSG   DC    CL8'SETUP',A(0),Y(0),A(0)
 000068 0000006800000068            6609    01-01187 +         DC    A(*,*-4)            Active queue link ptrs
 000070 0000007000000070            6610    01-01188 +         DC    A(SETFRST,SETLAST)    free queue link ptrs
 000078 0000000000000000            6611    01-01189 +         DC    A(0),A(0),A(0)
 000084 0000008400000084            6612    01-01190 +         DC    A(*-(JCBQF-JCB),*-(JCBQB-JCB))  jcb queue link ptrs
 00008C 00000000                    6613    01-01191 +         DC    XL(L'RSCGROUP-(*-SETRSG))'0'
 000090                             6614    01-01193 +         DS    0SL2(2-CVRSET,CVRSET-2)            id's should match
                                    6615             +
                                    6616    01-01196 +SETFRST  EQU   SETRSG+(RSGQFRFW-RSCGROUP)
                                    6617    01-01197 +SETLAST  EQU   SETRSG+(RSGQFRFW-RSCGROUP)
-                                   6619    01-01185 +         ENTRY PAGRSG
 000090 D7C1C7C5C9D64040            6620    01-01186 +PAGRSG   DC    CL8'PAGEIO',A(0),Y(0),A(0)
 0000A4 000000A4000000A4            6621    01-01187 +         DC    A(*,*-4)            Active queue link ptrs
 0000AC 000000AC000000AC            6622    01-01188 +         DC    A(PAGFRST,PAGLAST)    free queue link ptrs
 0000B4 0000000000000000            6623    01-01189 +         DC    A(0),A(0),A(0)
 0000C0 000000C0000000C0            6624    01-01190 +         DC    A(*-(JCBQF-JCB),*-(JCBQB-JCB))  jcb queue link ptrs
 0000C8 00000000                    6625    01-01191 +         DC    XL(L'RSCGROUP-(*-PAGRSG))'0'
 0000CC                             6626    01-01193 +         DS    0SL2(3-CVRPAG,CVRPAG-3)            id's should match
                                    6627             +
                                    6628    01-01196 +PAGFRST  EQU   PAGRSG+(RSGQFRFW-RSCGROUP)
                                    6629    01-01197 +PAGLAST  EQU   PAGRSG+(RSGQFRFW-RSCGROUP)
-                                   6631                       RSC   IOWA,NUMBER=&WDIOP
 0000CC                             6632    01-01179 +         DS    0F
                                    6633    01-01185 +         ENTRY IOWRSG
 0000CC C9D6E6C140404040            6634    01-01186 +IOWRSG   DC    CL8'IOWA',A(0),Y(12),A(0)
 0000E0 000000E0000000E0            6635    01-01187 +         DC    A(*,*-4)            Active queue link ptrs
 0000E8 0000000000000000            6636    01-01188 +         DC    A(IOWFRST,IOWLAST)    free queue link ptrs
 0000F0 0000000000000000            6637    01-01189 +         DC    A(0),A(0),A(0)
 0000FC 000000FC000000FC            6638    01-01190 +         DC    A(*-(JCBQF-JCB),*-(JCBQB-JCB))  jcb queue link ptrs
 000104 00000000                    6639    01-01191 +         DC    XL(L'RSCGROUP-(*-IOWRSG))'0'
 000108                             6640    01-01193 +         DS    0SL2(4-CVRIOW,CVRIOW-4)            id's should match
                                    6641             +
1GLOB     (GLOB5139) (12:46) (15MAR04) WYLBUR's Global Control Blocks                                                       Page   70
0Current Usings:  (CP,R11) (CV,R12)
0Loc    Object Code    Addr1 Addr2  Stmt Lv Lineno    Source Statement           (Hibal 5, Asmedit 3.3)  HLASM R4.0  2004/03/15 12.46
+___    ______ ____    _____ _____  ____ __ ______    ______ _________
000096C                0096C 22B50  6643    02-DATA  +$$$D0WYLGLOB LOCTR
 000970                             6647  1 01-01201 +           DS    0D
                                    6649  1 02-01210 +IOWFRST    EQU   0
 000108                00000 22B50  6650    02-01211 +IOWLAST  EQU   0
-                                   6658                       RSC   KWR,POST=KIOPOST,NUMBER=1
 000108                             6659    01-01179 +         DS    0F
                                    6660    01-01185 +         ENTRY KWRRSG
 000108 D2E6D94040404040            6661    01-01186 +KWRRSG   DC    CL8'KWR',A(0),Y(1),A(0)
 00011C 0000011C0000011C            6662    01-01187 +         DC    A(*,*-4)            Active queue link ptrs
 000124 0000097000000970            6663    01-01188 +         DC    A(KWRFRST,KWRLAST)    free queue link ptrs
 00012C 0000000000000000            6664    01-01189 +         DC    A(0),A(KIOPOST),A(0)
 000138 0000013800000138            6665    01-01190 +         DC    A(*-(JCBQF-JCB),*-(JCBQB-JCB))  jcb queue link ptrs
 000140 00000000                    6666    01-01191 +         DC    XL(L'RSCGROUP-(*-KWRRSG))'0'
 000144                             6667    01-01193 +         DS    0SL2(5-CVRKWR,CVRKWR-5)            id's should match
                                    6668             +
 000970                0096C 22B50  6670    02-DATA  +$$$D0WYLGLOB LOCTR
 000970                             6674  1 01-01201 +           DS    0D
 000970                             6676  1 02-KWRRS +KWRFRST    DS    0F
 000970                             6677  1 02-KWRRS +KWRLAST    DS    0F
                                    6678  1          +
 000970 0000012400000124            6681  1 03-RSCHDC+           DC    A(KWRRSG+(RSGQFRFW-RSCGROUP)),A(KWRRSG+(RSGQFRFW-RSCGROU
                                          1          +                 P))
 000978 0000000000000000            6682  1 03-RSCHD +           DC    A(0),A(0),A(0)
 000984 00                          6683  1 03-RSCHD +           DC    X'00'
 000988                             6684  1 03-RSCHD +           DS    0F
                                    6685  1          +
 000988 00                          6686  1 02-KWRRS +KWFL       DC    X'00'               flags
                                    6687  1 02-KWRRS +KWFU       EQU   X'80'               - kw file in use
                                    6688  1 02-KWRRS +KWFW       EQU   X'40'               - kw file wanted
                                    6689  1          +
 000989 000000                            1          +
 00098C 00000994                    6690  1 02-KWRRS +KWLIST     DC    A(KWR)              parm list for svc
                                    6691  1 02-KWRRS +KWOP       EQU   KWLIST+0            opcode is first byte of kwlist
                                    6692  1          +
 000990                             6693  1 02-KWRRS +KWKWRID    DS    F                   record id returned from kwio
                                    6694  1          +
 000994                             6695  1 02-KWRRS +KWRST      DS    0F
                                    6697  1          +*
                                    6698  1          +*       Keyword Record
                                    6699  1          +*
 000994                             6700  1 03-KWR   +KWRSTART     DS  0F
 000994 E4E4E4                      6701  1 03-KWR   +KWRUSER      DC  C'UUU'              User
 000997 C7C7                        6702  1 03-KWR   +KWRGRP       DC  C'GG'               Group
                                    6703  1 03-KWR   +KWRACCT      EQU KWRUSER,*-KWRUSER,C'X'
                                    6704  1          +
                                    6705  1 03-KWR   +KWRDSTRT     EQU *
 000999 000000                      6706  1 03-KWR   +             DC  XL3'00'             Reserved
 00099C 0000                        6707  1 03-KWR   +KWRRJE       DC  H'0'                No. of jobs run
 00099E 0000                        6708  1 03-KWR   +KWRSPUSD     DC  H'0'                Disk space used
 0009A0 FFFF                        6709  1 03-KWR   +KWRSPMAX     DC  H'-1'               Disk space allowed
                                    6710  1          +
 0009A2 80                          6711  1 03-KWR   +KWRIFL       DC  X'80'               Initials flags
1GLOB     (GLOB5139) (12:46) (15MAR04) WYLBUR's Global Control Blocks                                                       Page   71
0Current Usings:  (CP,R11) (CV,R12)
0Loc    Object Code    Addr1 Addr2  Stmt Lv Lineno    Source Statement           (Hibal 5, Asmedit 3.3)  HLASM R4.0  2004/03/15 12.46
+___    ______ ____    _____ _____  ____ __ ______    ______ _________
0                                   6712  1 03-KWR   +KWRIFVAL      EQU  X'80'             - Valid user
                                    6713  1 03-KWR   +KWRIFAPR      EQU  X'40'             - ACCT privs
                                    6714  1 03-KWR   +KWRIFSPR      EQU  X'20'             - SYS privs
                                    6715  1 03-KWR   +KWRIFOPR      EQU  X'10'             - OPR privs
                                    6716  1 03-KWR   +KWRIFSBM      EQU  X'08'             - SUBMIT priv
                                    6717  1 03-KWR   +KWRIFSUB      EQU  X'04'             - SUBADMIN privs
                                    6718  1 03-KWR   +KWRIFADM      EQU  X'02'             - ADMIN privs
                                    6719  1 03-KWR   +KWRIFPC       EQU  X'01'             - PC privs
                                    6720  1          +
 0009A3 98                          6721  1 03-KWR   +KWRAFL       DC  X'98'               Account flags
                                    6722  1 03-KWR   +KWRAFVAL      EQU  X'80'             - Valid acct (off when SUSPENDED)
                                    6723  1 03-KWR   +KWRAFTOK      EQU  X'08'             - Terminal usage permitted
                                    6724  1 03-KWR   +KWRAFZSV      EQU  X'02'             - Test recovery flag (not used)
                                    6725  1 03-KWR   +KWRAFASV      EQU  X'01'             - Recovery done for last session
                                    6726  1          +
 0009A4 6F6F6F                      6727  1 03-KWR   +KWRBIN       DC  C'???'              Bin
 0009A7 00                          6728  1 03-KWR   +KWRWRCT      DC  X'00'               Record rewrite count
 0009A8 000000                      6729  1 03-KWR   +KWRBGT       DC  XL3'00'             Account budget
 0009AB 000000                      6730  1 03-KWR   +KWRBAL       DC  XL3'00'             Account year-to-date balance
 0009AE 0000                        6731  1 03-KWR   +KWRLCP       DC  H'0'                Punch card limit -- in hundreds
 0009B0 0000                        6732  1 03-KWR   +KWRLLC       DC  H'0'                Line count limit -- in thousands
 0009B2 0000                        6733  1 03-KWR   +KWRLET       DC  H'0'                Execution time limit in seconds
                                    6734  1          +
 0009B4 84                          6735  1 03-KWR   +KWRBFL       DC  X'84'               Batch flags
                                    6736  1 03-KWR   +KWRBFVAL     EQU X'80'               - Valid for batch
                                    6737  1 03-KWR   +KWRBFIN      EQU X'40'               - No input setups allowed
                                    6738  1 03-KWR   +KWRBFOUT     EQU X'20'               - No output setups allowed
                                    6739  1 03-KWR   +KWRBFNON     EQU X'10'               - No non-standard priority allowed
                                    6740  1 03-KWR   +KWRBFE       EQU X'08'               - Class E only
                                    6741  1 03-KWR   +KWRBFP       EQU X'04'               - Class P permitted
                                    6742  1          +
 0009B5 D3D6C3C1D3404040            6743  1 03-KWR   +KWRDEST      DC  CL8'LOCAL'          Destination for output data
 0009BD 6F6F6F6F                    6744  1 03-KWR   +KWRFORM      DC  CL4'????'           Default forms code
 0009C1 0000000000000000            6745  1 03-KWR   +KWRORV       DC  XL8'00'             Default ORVYL name
                                    6746  1          +
 0009C9 80                          6747  1 03-KWR   +KWRMACC      DC  X'80'               Machine access flags
                                    6748  1 03-KWR   +KWRFSYSA     EQU X'80'               - SYSA access allowed
                                    6749  1 03-KWR   +KWRFSYSB     EQU X'40'               - SYSB access allowed
                                    6750  1 03-KWR   +KWRFSYSC     EQU X'20'               - SYSC access allowed
                                    6751  1 03-KWR   +KWRFSYSD     EQU X'10'               - SYSD access allowed
                                    6752  1 03-KWR   +KWRFSYSE     EQU X'08'               - SYSE access allowed
                                    6753  1 03-KWR   +KWRFSYSF     EQU X'04'               - SYSF access allowed
                                    6754  1 03-KWR   +KWRFSYSG     EQU X'02'               - SYSG access allowed
                                    6755  1          +
 0009CA 00                          6756  1 03-KWR   +KWRSFL       DC  X'00'               Status flags
                                    6757  1 03-KWR   +KWRSFKEP     EQU X'80'               - Kept mail waiting
                                    6758  1 03-KWR   +KWRSFMAI     EQU X'40'               - New mail waiting
                                    6759  1 03-KWR   +KWRSFMLQ     EQU X'20'               - New mail in MAILQnnn files
                                    6760  1          +
 0009CB 02                          6761  1 03-KWR   +KWRJFL       DC  X'02'               Job flags
                                    6762  1 03-KWR   +KWRJFNUM     EQU X'80'               - Numbered job submission
                                    6763  1 03-KWR   +KWRJFFOR     EQU X'40'               - Force user id as job prefix
                                    6764  1 03-KWR   +KWRJFHOL     EQU X'10'               - Hold printed output
                                    6765  1 03-KWR   +KWRJFNOT     EQU X'08'               - Notify user
1GLOB     (GLOB5139) (12:46) (15MAR04) WYLBUR's Global Control Blocks                                                       Page   72
0Current Usings:  (CP,R11) (CV,R12)
0Loc    Object Code    Addr1 Addr2  Stmt Lv Lineno    Source Statement           (Hibal 5, Asmedit 3.3)  HLASM R4.0  2004/03/15 12.46
+___    ______ ____    _____ _____  ____ __ ______    ______ _________
0                                   6766  1 03-KWR   +KWRJFATH     EQU X'07'               - Job auth, as follows...
                                    6767  1 03-KWR   +KWRJFPUB     EQU X'04'                  Auth=public
                                    6768  1 03-KWR   +KWRJFCOM     EQU X'02'                  Auth=community
                                    6769  1 03-KWR   +KWRJFGRP     EQU X'01'                  Auth=group
                                    6770  1          +
 0009CC 4040404040404040            6771  1 03-KWR   +KWRJPFX      DC  CL8' '              Users job prefix
 0009D4 0000                        6772  1 03-KWR   +KWRJNO       DC  H'0'                Users job count
                                    6773  1          +
 0009D6 0000                        6774  1 03-KWR   +KWRHRSAL     DC  H'0'                Connect hrs allowed (hrs/10)
 0009D8 0000                        6775  1 03-KWR   +KWRACCH      DC  H'0'                Connect hrs accounted (hrs/10)
 0009DA 0000                        6776  1 03-KWR   +           DC    H'0'                Reserved
                                    6777  1          +
 0009DC 20                          6778  1 03-KWR   +KWRTACF      DC  X'20'               Type/account class flags
                                    6779  1 03-KWR   +KWRTNST      EQU X'80'               - No logoff statistics
                                    6780  1 03-KWR   +KWRTNTM      EQU X'40'               - No session timeouts (NOTIME)
                                    6781  1 03-KWR   +KWRTNDAY     EQU X'02'               - No daytime access allowed
                                    6782  1          +
 0009DD 3C                          6783  1 03-KWR   +KWRTFL       DC  X'3C'               Timesharing flags
                                    6784  1          +*              X'80'               - Reserved
                                    6785  1          +*              X'40'               - Reserved
                                    6786  1 03-KWR   +KWRTFAN      EQU X'20'               - Auto news at logon
                                    6787  1 03-KWR   +KWRTFAM      EQU X'10'               - Auto mail at logon
                                    6788  1 03-KWR   +KWRTFAR      EQU X'08'               - Auto recovery at logon
                                    6789  1 03-KWR   +KWRTFAE      EQU X'04'               - Auto exec at logon
                                    6790  1 03-KWR   +KWRTFAL      EQU X'02'               - Auto ltime at logon
                                    6791  1 03-KWR   +KWRTFAK      EQU X'01'               - Auto ktime at logon
                                    6792  1          +
 0009DE 00F0                        6793  1 03-KWR   +KWRNTDEF     DC  H'240'              Default notime minutes (0=nolim)
 0009E0 0000                        6794  1 03-KWR   +KWRNTMAX     DC  H'0'                Maximum notime minutes (0=nolim)
 0009E2 00000000                    6795  1 03-KWR   +KWRPFORM     DC  XL4'00'             Default PRINT job forms
 0009E6 0000                        6796  1 03-KWR   +KWRR1      DC    H'0'                Reserved
 0009E8 0000                        6797  1 03-KWR   +KWRR3      DC    H'0'                Reserved
 0009EA 00                          6798  1 03-KWR   +KWRR4      DC    X'0'                Reserved
                                    6799  1          +
 0009EB 00                          6800  1 03-KWR   +KWROFL       DC  X'00'               Online flags
                                    6801  1 03-KWR   +KWRFMULT     EQU X'80'               - Multiple sessions allowed
                                    6802  1 03-KWR   +KWRFMAIL     EQU X'40'               - Mail is allowed
                                    6803  1 03-KWR   +KWRFSEC      EQU X'20'               - Secure session (EXEC SECURE)
                                    6804  1 03-KWR   +KWRFMNPR     EQU X'08'               - XMultiple: multiple w/o prompt
                                    6805  1 03-KWR   +KWRFNPAS     EQU X'04'               - No logon password needed
                                    6806  1          +
 0009EC 00000000                    6807  1 03-KWR   +KWRLTIM      DC  XL4'00'             Last logoff time(high 32 clck bits)
 0009F0 00000000                    6808  1 03-KWR   +KWRKTIM      DC  XL4'00'             Last time keyword changed (" ")
                                    6809  1          +
 0009F4 00                          6810  1 03-KWR   +KWRAC        DC  X'00'               Accounting flags
                                    6811  1          +
 0009F5 40                          6812  1 03-KWR   +KWRSOF       DC  C' '                Source of funds code
 0009F6 40                          6813  1 03-KWR   +KWRAR        DC  C' '                Accounts receivable code (if SOF=2)
                                    6814  1          +
 0009F7 40                          6815  1 03-KWR   +KWRSTAT      DC  C' '                Account status code
                                    6816  1 03-KWR   +KWRSEXP      EQU C'1'                - Expired
                                    6817  1 03-KWR   +KWRSCLS      EQU C'2'                - Closed
                                    6818  1 03-KWR   +KWRSOVB      EQU C'3'                - Over-budget
                                    6819  1 03-KWR   +KWRSUHL      EQU C'4'                - User hold
1GLOB     (GLOB5139) (12:46) (15MAR04) WYLBUR's Global Control Blocks                                                       Page   73
0Current Usings:  (CP,R11) (CV,R12)
0Loc    Object Code    Addr1 Addr2  Stmt Lv Lineno    Source Statement           (Hibal 5, Asmedit 3.3)  HLASM R4.0  2004/03/15 12.46
+___    ______ ____    _____ _____  ____ __ ______    ______ _________
0                                   6820  1          +
 0009F8 10                          6821  1 03-KWR   +KWRTFL2      DC  X'10'               Timesharing flags  (second byte)
                                    6822  1 03-KWR   +KWRTFAPE     EQU X'80'               - Auto pubexec at logon
                                    6823  1 03-KWR   +KWRTFML      EQU X'40'               - Ok to receive mail
                                    6824  1 03-KWR   +KWRTFANE     EQU X'10'               - Auto newexec at logon
                                    6825  1 03-KWR   +KWRTFMNOATTN     EQU  X'08'          - Ignore SHOW MAIL attn (NOATTN)
                                    6826  1          +
 0009F9 00                          6827  1 03-KWR   +KWRPFL       DC  X'00'               Privilege flags
                                    6828  1 03-KWR   +KWRFPCHK     EQU X'80'               - PCHECK privs
                                    6829  1          +
 0009FA 0000                        6830  1 03-KWR   +KWRHRSFR     DC  H'0'                Free connect hrs to date (hrs/10)
 0009FC 0000                        6831  1 03-KWR   +KWRHRSUS     DC  H'0'                Hours used to date (hrs/10)
 0009FE FFFF                        6832  1 03-KWR   +KWRDSKMX     DC  H'-1'               Disk kilobytes allowed
 000A00 00000000                    6833  1 03-KWR   +KWRDSKUS     DC  F'0'                Disk bytes used
                                    6834  1          +
 000A04 0000000000000000            6835  1 03-KWR   +KWRPASS      DC  XL8'00'             Password
 000A0C 0000000000000000            6836  1 03-KWR   +KWRNAME      DC  XL20'00'            User's name
 000A20 000000000000                6837  1 03-KWR   +KWRVOL       DC  XL6'00'             User's permanent volume
 000A26 0000000000000000            6838  1 03-KWR   +KWRSYS       DC  XL8'00'             User's initial subsystem (WYLBUR)
 000A2E 0000000000000000            6839  1 03-KWR   +KWRCOMM      DC  XL20'00'            Comment for accounting office
                                    6840  1          +
 000A42 00                          6841  1 03-KWR   +KWRMPRIM     DC  X'00'               Primary machine
                                    6842  1          +***  Flag definitions are the same as with KWRMACC above.  ***
                                    6843  1          +*
 000A43 00                          6844  1 03-KWR   +KWRXCNT      DC  X'00'               Unsuccessful logon attempt count
 000A44 00000000                    6845  1 03-KWR   +KWRXTIM      DC  XL4'00'             Last unsuccessful logon time
                                    6846  1          +
 000A48 00000000                    6847  1 03-KWR   +KWRNEWDT     DC  F'0'                Date news was last read
                                    6848  1          +
 000A4C 00000000                    6849  1 03-KWR   +KWRCDATE     DC  F'0'                Date of charges update
 000A50 000000                      6850  1 03-KWR   +KWRMTD       DC  XL3'0'              Account month-to-date balance
 000A53 000000                      6851  1 03-KWR   +KWRPBAL      DC  XL3'0'              Account previous ytd charges
                                    6852  1          +
 000A56 0000000000000000            6853  1 03-KWR   +KWRMFOR      DC  XL64'00'            Mail forwarding address
 000A96 0000000000000000            6854  1 03-KWR   +KWRMTXT      DC  XL80'00'            Mail information text
                                    6855  1          +
 000AE6 0000000000000000            6856  1 03-KWR   +KWRCMD       DC  XL80'00'            First command to execute
 000B36 0000000000000000            6857  1 03-KWR   +KWRLPORT     DC  XL20'00'            Last logoff port name
                                    6858  1          +
 000B4A 00000000                    6859  1 03-KWR   +KWRCRDT      DC  XL4'00'             Account creation date
                                    6860  1          +
 000B4E 0000                        6861  1 03-KWR   +KWRRENCT     DC  XL2'00'             No. of ORVYL RENAMEs (not used)
                                    6862  1          +
 000B50 C7E4C5E2E3404040            6863  1 03-KWR   +KWRNETU      DC  CL16'GUEST'         Network user id (zeros=disabled)
 000B60 D3C9D5C4E8404040            6864  1 03-KWR   +KWRNETH      DC  CL32'LINDY'         Network host name
                                    6865  1          +
 000B80 0000000000000000            6866  1 03-KWR   +KWRLOCAL     DC  XL8'00'             For non-Stanford use (ISU!)
                                    6867  1 03-KWR   +KWRDATA      EQU KWRDSTRT,*-KWRDSTRT,C'X'
                                    6868  1          +
                                    6869  1 03-KWR   +KWREND       EQU *                   End of physical record
                                    6870  1          +
 000B88 00                          6871  1 03-KWR   +KWRHFL       DC  X'00'               Status flags
                                    6872  1 03-KWR   +KWRHFCK      EQU X'80'               - Keyword checking in effect
                                    6873  1 03-KWR   +KWRHFUOK     EQU X'40'         Update successful--cannot occur with
1GLOB     (GLOB5139) (12:46) (15MAR04) WYLBUR's Global Control Blocks                                                       Page   74
0Current Usings:  (CP,R11) (CV,R12)
0Loc    Object Code    Addr1 Addr2  Stmt Lv Lineno    Source Statement           (Hibal 5, Asmedit 3.3)  HLASM R4.0  2004/03/15 12.46
+___    ______ ____    _____ _____  ____ __ ______    ______ _________
0                                   6874  1          +*                            kwrhferr or kwrhfful.  if kwrhfuok,
                                    6875  1          +*                            err, and ful are all 0, the record has
                                    6876  1          +*                            been changed since it was read.
                                    6877  1 03-KWR   +KWRHFERR     EQU X'20'               - I/O error reading keyword file
                                    6878  1 03-KWR   +KWRHFFUL     EQU X'10'               - No room to add user
                                    6879  1          +
 000B8C                             6880  1 03-KWR   +           DS    0F
                                    6881  1 03-KWR   +KWRSIZE      EQU *-KWRSTART
                                    6882  1          +*
                                    6883  1          +*  Operation codes.
                                    6884  1          +*
                                    6885  1 03-KWR   +KWRCWR        EQU  X'80'             Write
                                    6886  1 03-KWR   +KWRCRD        EQU  X'40'             Read
                                    6887  1 03-KWR   +KWRCDIE       EQU  X'FF'             Shutdown keyword routines
 000144                00000 22B50  6888    02-KWRRS +KWR      EQU   KWRST,*-KWRST,C'X'
-                                   6896                       RSC   SUBMIT,NUMBER=&JESRUN
 000144                             6897    01-01179 +         DS    0F
                                    6898    01-01185 +         ENTRY SUBRSG
 000144 E2E4C2D4C9E34040            6899    01-01186 +SUBRSG   DC    CL8'SUBMIT',A(0),Y(8),A(0)
 000158 0000015800000158            6900    01-01187 +         DC    A(*,*-4)            Active queue link ptrs
 000160 00000B900001D354            6901    01-01188 +         DC    A(SUBFRST,SUBLAST)    free queue link ptrs
 000168 0000000000000000            6902    01-01189 +         DC    A(0),A(0),A(0)
 000174 0000017400000174            6903    01-01190 +         DC    A(*-(JCBQF-JCB),*-(JCBQB-JCB))  jcb queue link ptrs
 00017C 00000000                    6904    01-01191 +         DC    XL(L'RSCGROUP-(*-SUBRSG))'0'
 000180                             6905    01-01193 +         DS    0SL2(6-CVRSUB,CVRSUB-6)            id's should match
                                    6906             +
 000B8C                0096C 22B50  6908    02-DATA  +$$$D0WYLGLOB LOCTR
 000B90                00000 0411C  6912  1 01-01201 +           DS    0D
 000000                             6924  2 04-LABEL +SUB          DS    0H
 000000 00000000                    6925  2 03-RSCHD +SUB@NEXT       DC    A(0)              next resource on queue
 000004 00000000                    6926  2 03-RSCHD +SUB@PREV       DC    A(0)              previous resource on queue
 000008 00000000                    6927  2 03-RSCHD +SUB@JCB        DC    A(0)              address of owning jcb
 00000C 00000000                    6928  2 03-RSCHD +SUB$ECB        DC    A(0)              resource ecb
 000010 00000000                    6929  2 03-RSCHD +SUB#USE        DC    A(0)              no. of uses of resource
 000014 00                          6930  2          +*
 SUBFLAGS.SUB1ACTV 80 ONES
 SUBFLAGS.SUB1@ECB 40 ONES
 SUBFLAGS.SUB1ASYN 20 ONES
 000018                             6950  2 03-RSCHD +             DS    0F
                                    6951  2          +
 000018 D1C5E2D9C4D94040            6952  2 02-SUBRS +SUBNAME      DC    CL8'JESRDR'
                                    6953  2          +
 000020 00000000                    6954  2 02-SUBRS +SUBTCB       DC    A(0)                Submit subtask TCB ptr
                                    6955  2          +
 000024 00000000                    6956  2 02-SUBRS +SUBTECB      DC    A(0)                Termination ECB
 000028 00000000                    6957  2 02-SUBRS +SUBWECB      DC    A(0)                Subtask's ECB
                                    6958  2          +
 00002C 00000000                    6959  2 02-SUBRS +SUBRADDR     DC    A(0)                Address of this resource
                                    6960  2          +*                                    used as attach param list
                                    6961  2          +*
 000030                             6962  2 02-SUBRS +SUBTEMP      DS    CL8                 Work cell
 000038 00                          6963  2          +*
1GLOB     (GLOB5139) (12:46) (15MAR04) WYLBUR's Global Control Blocks                                                       Page   75
0Current Usings:  (CP,R11) (CV,R12)
0Loc    Object Code    Addr1 Addr2  Stmt Lv Lineno    Source Statement           (Hibal 5, Asmedit 3.3)  HLASM R4.0  2004/03/15 12.46
+___    ______ ____    _____ _____  ____ __ ______    ______ _________
0SUBFLAG.SUBFEOJ   80 ONES
                                    6973  2          +*
 000039 00                                2          +
 00003A 0000                        6974  2 02-SUBRS +SUBJBNO      DC    H'0'                Jobno of job just submitted
                                    6975  2          +
 00003C                             6986  2 04-ACBVS +SUBACB       DS    0F
 00003C A0                          6987  2 04-ACBVS +             DC    X'A0' .                  ACB IDENTIFICATION
 00003D 10                          6988  2 04-ACBVS +             DC    AL1(16)                  ACB SUBTYPE             X04SVHS
 00003E 004C                        6989  2 04-ACBVS +             DC    AL2(76+0)         .      ACB LENGTH             X03004HS
 000040 00000000                    6990  2 04-ACBVS +             DC    A(0) .                   AMB LIST POINTER
 000044 00000000                    6991  2 04-ACBVS +             DC    A(0) .                   INTERFACE ROUTINE POINTER
 000048 92                          6992  2 04-ACBVS +             DC    B'10010010'              MACRF(1)                X04SVHS
 000049 00                          6993  2 04-ACBVS +             DC    B'00000000'              MACRF(2)                X04SVHS
                                    6994  2          +*                                       FOR NUMERIC IN PARENS  @YA41534
 00004A 00                          6995  2 04-ACBVS +             DC    AL1(0)       .           NO OF CONCURRENT        X04SVHS
                                    6996  2          +*                                       STRINGS FOR AIX PATH    X04SVHS
                                    6997  2          +*                                       FOR NUMERIC IN PARENS  @YA41534
 00004B 01                          6998  2 04-ACBVS +             DC    AL1(1)      .            NUMBER OF STRINGS       X04SVHS
                                    6999  2          +*                                       FOR NUMERIC IN PARENS  @YA41534
 00004C 0001                        7000  2 04-ACBVS +             DC    AL2(1)      .            NUMBER OF DATA BUFFERS
                                    7001  2          +*                                       FOR NUMERIC IN PARENS  @YA41534
 00004E 0000                        7002  2 04-ACBVS +             DC    AL2(0)      .            NUMBER OF INDEX BUFFERS
 000050 00                          7003  2 04-ACBVS +             DC    B'00000000'              MACRF(3)                X04SVHS
                                    7004  2          +*                                       FOR NUMERIC IN PARENS  @YA41534
 000051 00                          7005  2 04-ACBVS +             DC    AL1(0)                   SHARED RESOURCE POOL ID    @L1C
 000052 0000                        7006  2 04-ACBVS +             DC    AL2(0) .                 JES BUFFER POOL/NUMBER  X04SVHS
                                    7007  2          +*                                       OF JOURNAL BUFFERS
 000054 80                          7008  2 04-ACBVS +             DC    X'80' .                  RECFM=A
 000055 00                          7009  2 04-ACBVS +             DC    B'00000000'              READ INTEGRITY OPTIONS     @L2C
 000056 0008                        7010  2 04-ACBVS +             DC    X'0008' .                DSORG=ACB
 000058 00000000                    7011  2 04-ACBVS +             DC    A(0)                                             X04SVHS
 00005C 00000000                    7012  2 04-ACBVS +             DC    A(0)       .             PASSWORD POINTER
 000060 00000000                    7013  2 04-ACBVS +             DC    A(0)      .              EXIT LIST POINTER
 000064 D1C5E2D9C4D94040            7014  2 04-ACBVS +             DC    CL8'JESRDR'  .           DDNAME
 00006C 02                          7015  2 04-ACBVS +             DC    B'00000010'              OFLAGS                     @LPC
 00006D 00                          7016  2 04-ACBVS +             DC    AL1(0) .                 ERFLAGS
 00006E 00                          7017  2 04-ACBVS +             DC    B'00000000'              INFLGS(1)               X04SVHS
 00006F 00                          7018  2 04-ACBVS +             DC    B'00000000'              INFLGS(2)               X04SVHS
 000070 00000000                    7019  2 04-ACBVS +             DC    A(0)     .               OPENJ JFCB POINTER
 000074 00004000                    7020  2 04-ACBVS +             DC    A(16384)                 BUFFER SPACE
 000078 0000                        7021  2 04-ACBVS +             DC    AL2(0)        .          BLOCK SIZE
 00007A 0000                        7022  2 04-ACBVS +             DC    AL2(0)      .            RECORD SIZE
 00007C 00000000                    7023  2 04-ACBVS +             DC    A(0) .                   USER WORKAREA POINTER
 000080 00000000                    7024  2 04-ACBVS +             DC    A(0)                     CONTROL BLOCK MANIPULATION
                                    7025  2          +*                                       WORKAREA POINTER
 000084 00000000                    7026  2 04-ACBVS +             DC    A(0) .                   PTR TO APPLICATION NAME  X03004
                                    7027  2          +
 000088                             7030  2 04-RPLVS +SUBRPL       DS    0F
 000088 00                          7031  2 04-RPLVS +             DC    AL1(0)                   RPL IDENTIFICATION
 000089 10                          7032  2 04-RPLVS +             DC    AL1(16)                  RPL SUBTYPE             X04SVHS
 00008A 00                          7033  2 04-RPLVS +             DC    AL1(0)                   RPL REQUEST TYPE
 00008B 4C                          7034  2 04-RPLVS +             DC    AL1(76)                  RPL LENGTH               X03004
 00008C 00000000                    7060  2 04-RPLVS +             DC    A(0) .                   POINTER TO PLACEHOLDER
 000090 00000000                    7061  2 04-RPLVS +             DC    A(0) .                   ECB
1GLOB     (GLOB5139) (12:46) (15MAR04) WYLBUR's Global Control Blocks                                                       Page   76
0Current Usings:  (CP,R11) (CV,R12)
0Loc    Object Code    Addr1 Addr2  Stmt Lv Lineno    Source Statement           (Hibal 5, Asmedit 3.3)  HLASM R4.0  2004/03/15 12.46
+___    ______ ____    _____ _____  ____ __ ______    ______ _________
0000094 00                          7062  2 04-RPLVS +             DC    BL1'0' .                 STATUS BYTE
 000095 000000                      7063  2 04-RPLVS +             DC    XL3'0'                   FEEDBACK CODES
 000098 0000                        7064  2 04-RPLVS +             DC    AL2(0)       .           KEY LENGTH
 00009A 0000                        7065  2 04-RPLVS +             DC    AL2(0)        .          TRANSID                    @LAC
 00009C 00000000                    7066  2 04-RPLVS +             DC    A(0)                     POINTER TO CONTROL CHARACTER
 0000A0 0000003C                    7067  2 04-RPLVSC+             DC    A(SUBACB)
                                          2          +                           .                POINTER TO ACB
 0000A4 00000000                    7068  2 04-RPLVS +             DC    A(0) .                   POINTER TO TCB
 0000A8 00000000                    7069  2 04-RPLVS +             DC    A(0)     .               POINTER TO RECORD AREA
 0000AC 00000000                    7070  2 04-RPLVS +             DC    A(0)    .                POINTER TO ARGUMENT
 0000B0 20                          7071  2 04-RPLVS +             DC    B'00100000'     .        OPTCD BYTE 1
 0000B1 80                          7072  2 04-RPLVSC+             DC    B'10000000'
                                          2          +                              .            OPTCD BYTE 2
 0000B2 00                          7073  2 04-RPLVS +             DC    B'00000000'              OPTCD BYTE 3               @LAC
 0000B3 00                          7074  2 04-RPLVS +             DC    B'00000000'              OPTCD BYTE 4               @EAC
 0000B4 00000000                    7075  2 04-RPLVS +             DC    A(0)       .             POINTER TO NEXT RPL
 0000B8 00000000                    7076  2 04-RPLVS +             DC    A(0) .                   RESERVED FOR LOGICAL REC LEN
 0000BC 00004000                    7077  2 04-RPLVS +             DC    A(16384)    .            BUFFER LENGTH
                                    7078  2          +*                                       OPTCD BYTES 5-8          X03004
 0000C0 00                          7079  2 04-RPLVSC+             DC    B'00000000'
                                          2          +                              .            BYTE 5                  X04SVHS
 0000C1 00                          7080  2 04-RPLVSC+             DC    B'00000000'
                                          2          +                              .            BYTE 6                  X04SVHS
 0000C2 00                          7081  2 04-RPLVSC+             DC    B'00000000'
                                          2          +                              .            BYTE 7                  X04SVHS
 0000C3 00                          7082  2 04-RPLVSC+             DC    B'00000000'
                                          2          +                              .            BYTE 8                  X04SVHS
 0000C4 0000000000000000            7083  2 04-RPLVS +             DC    XL8'0' .                 RBA
 0000CC 40                          7084  2 04-RPLVS +             DC    B'01000000'                                     @G40AKSL
 0000CD 00                          7085  2 04-RPLVS +             DC    AL1(0)                   ACTIVE INDICATOR
 0000CE 0000                        7086  2 04-RPLVS +             DC    AL2(0)       .           MAXIMUM ERROR MSG LENGTH
 0000D0 00000000                    7087  2 04-RPLVS +             DC    A(0) .                   RESERVED FOR MESSAGE AREA PTR
                                    7088  2          +
 0000D4 000000DC                    7130  2 04-IDACB +SUBTSCBL     DC    A(*+8)                  ADDRESS OF HEADER
 0000D8 800000EC                    7131  2 04-IDACB +             DC    A(SUBTSCBL+24+X'80000000')   ADDRESS OF LAST ELEMENT
 0000DC A0                          7132  2 04-IDACB +             DC    AL1(160)                BLOCK TYPE CODE
 0000DD 04                          7133  2 04-IDACB +             DC    AL1(4)                  FUNCTION TYPE CODE
 0000DE 0000                        7134  2 04-IDACB +             DC    AL2(0)                   HEADER FIELD VALUE
 0000E0 0000003C                    7135  2 04-IDACB +             DC    AL4(SUBACB)                  HEADER FIELD VALUE
 0000E4 00000000                    7136  2 04-IDACB +             DC    AL4(0)                   HEADER FIELD VALUE
 0000E8 00000000                    7137  2 04-IDACB +             DC    AL4(0)                   HEADER FIELD VALUE
 0000EC 001D                        7138  2 04-IDACB +             DC    AL2(29)                    ELEMENT ID
 0000EE 0000                        7139  2 04-IDACB +             DC    AL2(0)                  RESERVED                    @LQC
 0000F0 80000000                    7140  2 04-IDACBC+             DC    B'10000000000000000000000000000000'
                                          2          +                                           ELEMENT VALUE
 0000F4 00000100                    7174  2 04-IDACB +SUBMDCBL     DC    A(*+12)                 ADDRESS OF HEADER
 0000F8 00000108                    7175  2 04-IDACB +             DC    A(SUBMDCBL+20)          ELEMENT ADDRESS
 0000FC 80000110                    7176  2 04-IDACB +             DC    A(SUBMDCBL+28+X'80000000')   ADDRESS OF LAST ELEMENT
 000100 C0                          7177  2 04-IDACB +             DC    AL1(192)                BLOCK TYPE CODE
 000101 02                          7178  2 04-IDACB +             DC    AL1(2)                  FUNCTION TYPE CODE
 000102 0000                        7179  2 04-IDACB +             DC    AL2(0)                   HEADER FIELD VALUE
 000104 00000088                    7180  2 04-IDACB +             DC    AL4(SUBRPL)                  HEADER FIELD VALUE
 000108 002C                        7181  2 04-IDACB +             DC    AL2(44)                    ELEMENT ID
 00010A 0000                        7182  2 04-IDACB +             DC    AL2(0)                  RESERVED                    @LQC
1GLOB     (GLOB5139) (12:46) (15MAR04) WYLBUR's Global Control Blocks                                                       Page   77
0Current Usings:  (CP,R11) (CV,R12)
0Loc    Object Code    Addr1 Addr2  Stmt Lv Lineno    Source Statement           (Hibal 5, Asmedit 3.3)  HLASM R4.0  2004/03/15 12.46
+___    ______ ____    _____ _____  ____ __ ______    ______ _________
000010C 00000000                    7183  2 04-IDACB +             DC    A(0)                    ELEMENT VALUE
 000110 0035                        7184  2 04-IDACB +             DC    AL2(53)                    ELEMENT ID
 000112 0000                        7185  2 04-IDACB +             DC    AL2(0)                  RESERVED                    @LQC
 000114 00000000                    7186  2 04-IDACB +             DC    A(0)                    ELEMENT VALUE
 000118 0000                        7187  2 02-SUBRS +SUBBLEN      DC    H'0'                Current buffer length
 00011A                             7188  2 02-SUBRS +SUBBUFR      DS    XL16384             Working buffer
 00411C                0411C 0411C  7189  1 02-SUBRS +           DS    0F
                                    7199  1 02-SUBRS +SUBFRST    EQU   SUB1
                                    7200  1 02-SUBRS +SUBLAST    EQU   SUB8
                                    7201  1 02-SUBRSC+SUB0       EQU   SUBRSG+(RSGQFRFW-RSCGROUP)
                                          1          +                                     Links in resource group
                                    7202  1 02-SUBRSC+SUB9       EQU   SUBRSG+(RSGQFRFW-RSCGROUP)
                                          1          +                                     Links in resource group
 000B90                             7205  1 04-LABEL +SUB1       DS    0H
 000B90 00004CAC00000160            7206  1 03-RSCHD +           DC    A(SUB2),A(SUB0)
 000B98 0000000000000000            7207  1 03-RSCHD +           DC    A(0),A(0),A(0)
 000BA4 00                          7208  1 03-RSCHD +           DC    X'00'
 000BA8                             7209  1 03-RSCHD +           DS    0F
 000BA8 D1C5E2D9C4D9F140            7210  1 02-SUBRS +           DC    CL8'JESRDR1'
                                    7211  1          +
 000BB0 00000000                    7212  1 02-SUBRS +           DC    A(0)                Submit subtask TCB ptr
                                    7213  1          +
 000BB4 00000000                    7214  1 02-SUBRS +           DC    A(0)                Termination ECB
 000BB8 00000000                    7215  1 02-SUBRS +           DC    A(0)                Subtask's ECB
                                    7216  1          +
 000BBC 00000B90                    7217  1 02-SUBRS +           DC    A(SUB1)             Address of this resource
                                    7218  1          +*                                    used for attach param list
                                    7219  1          +*
 000BC0                             7220  1 02-SUBRS +           DS    CL8                 Work cell
                                    7221  1          +
 000BC8 00                          7222  1 02-SUBRS +           DC    X'00'               Flag byte
                                    7223  1          +
 000BC9 00                                1          +
 000BCA 0000                        7224  1 02-SUBRS +           DC    H'0'                Jobno of job just submitted
                                    7225  1          +
 000BCC                             7236  1 04-ACBVS +SUBACB1    DS    0F
 000BCC A0                          7237  1 04-ACBVS +           DC    X'A0' .                  ACB IDENTIFICATION
 000BCD 10                          7238  1 04-ACBVS +           DC    AL1(16)                  ACB SUBTYPE             X04SVHS
 000BCE 004C                        7239  1 04-ACBVS +           DC    AL2(76+0)         .      ACB LENGTH             X03004HS
 000BD0 00000000                    7240  1 04-ACBVS +           DC    A(0) .                   AMB LIST POINTER
 000BD4 00000000                    7241  1 04-ACBVS +           DC    A(0) .                   INTERFACE ROUTINE POINTER
 000BD8 92                          7242  1 04-ACBVS +           DC    B'10010010'              MACRF(1)                X04SVHS
 000BD9 00                          7243  1 04-ACBVS +           DC    B'00000000'              MACRF(2)                X04SVHS
                                    7244  1          +*                                       FOR NUMERIC IN PARENS  @YA41534
 000BDA 00                          7245  1 04-ACBVS +           DC    AL1(0)       .           NO OF CONCURRENT        X04SVHS
                                    7246  1          +*                                       STRINGS FOR AIX PATH    X04SVHS
                                    7247  1          +*                                       FOR NUMERIC IN PARENS  @YA41534
 000BDB 01                          7248  1 04-ACBVS +           DC    AL1(1)      .            NUMBER OF STRINGS       X04SVHS
                                    7249  1          +*                                       FOR NUMERIC IN PARENS  @YA41534
 000BDC 0001                        7250  1 04-ACBVS +           DC    AL2(1)      .            NUMBER OF DATA BUFFERS
                                    7251  1          +*                                       FOR NUMERIC IN PARENS  @YA41534
 000BDE 0000                        7252  1 04-ACBVS +           DC    AL2(0)      .            NUMBER OF INDEX BUFFERS
 000BE0 00                          7253  1 04-ACBVS +           DC    B'00000000'              MACRF(3)                X04SVHS
                                    7254  1          +*                                       FOR NUMERIC IN PARENS  @YA41534
1GLOB     (GLOB5139) (12:46) (15MAR04) WYLBUR's Global Control Blocks                                                       Page   78
0Current Usings:  (CP,R11) (CV,R12)
0Loc    Object Code    Addr1 Addr2  Stmt Lv Lineno    Source Statement           (Hibal 5, Asmedit 3.3)  HLASM R4.0  2004/03/15 12.46
+___    ______ ____    _____ _____  ____ __ ______    ______ _________
0000BE1 00                          7255  1 04-ACBVS +           DC    AL1(0)                   SHARED RESOURCE POOL ID    @L1C
 000BE2 0000                        7256  1 04-ACBVS +           DC    AL2(0) .                 JES BUFFER POOL/NUMBER  X04SVHS
                                    7257  1          +*                                       OF JOURNAL BUFFERS
 000BE4 80                          7258  1 04-ACBVS +           DC    X'80' .                  RECFM=A
 000BE5 00                          7259  1 04-ACBVS +           DC    B'00000000'              READ INTEGRITY OPTIONS     @L2C
 000BE6 0008                        7260  1 04-ACBVS +           DC    X'0008' .                DSORG=ACB
 000BE8 00000000                    7261  1 04-ACBVS +           DC    A(0)                                             X04SVHS
 000BEC 00000000                    7262  1 04-ACBVS +           DC    A(0)       .             PASSWORD POINTER
 000BF0 00000000                    7263  1 04-ACBVS +           DC    A(0)      .              EXIT LIST POINTER
 000BF4 D1C5E2D9C4D9F140            7264  1 04-ACBVS +           DC    CL8'JESRDR1' .           DDNAME
 000BFC 02                          7265  1 04-ACBVS +           DC    B'00000010'              OFLAGS                     @LPC
 000BFD 00                          7266  1 04-ACBVS +           DC    AL1(0) .                 ERFLAGS
 000BFE 00                          7267  1 04-ACBVS +           DC    B'00000000'              INFLGS(1)               X04SVHS
 000BFF 00                          7268  1 04-ACBVS +           DC    B'00000000'              INFLGS(2)               X04SVHS
 000C00 00000000                    7269  1 04-ACBVS +           DC    A(0)     .               OPENJ JFCB POINTER
 000C04 00004000                    7270  1 04-ACBVS +           DC    A(16384)                 BUFFER SPACE
 000C08 0000                        7271  1 04-ACBVS +           DC    AL2(0)        .          BLOCK SIZE
 000C0A 0000                        7272  1 04-ACBVS +           DC    AL2(0)      .            RECORD SIZE
 000C0C 00000000                    7273  1 04-ACBVS +           DC    A(0) .                   USER WORKAREA POINTER
 000C10 00000000                    7274  1 04-ACBVS +           DC    A(0)                     CONTROL BLOCK MANIPULATION
                                    7275  1          +*                                       WORKAREA POINTER
 000C14 00000000                    7276  1 04-ACBVS +           DC    A(0) .                   PTR TO APPLICATION NAME  X03004
 000C18                             7279  1 04-RPLVS +SUBRPL1    DS    0F
 000C18 00                          7280  1 04-RPLVS +           DC    AL1(0)                   RPL IDENTIFICATION
 000C19 10                          7281  1 04-RPLVS +           DC    AL1(16)                  RPL SUBTYPE             X04SVHS
 000C1A 00                          7282  1 04-RPLVS +           DC    AL1(0)                   RPL REQUEST TYPE
 000C1B 4C                          7283  1 04-RPLVS +           DC    AL1(76)                  RPL LENGTH               X03004
 000C1C 00000000                    7309  1 04-RPLVS +           DC    A(0) .                   POINTER TO PLACEHOLDER
 000C20 00000000                    7310  1 04-RPLVS +           DC    A(0) .                   ECB
 000C24 00                          7311  1 04-RPLVS +           DC    BL1'0' .                 STATUS BYTE
 000C25 000000                      7312  1 04-RPLVS +           DC    XL3'0'                   FEEDBACK CODES
 000C28 0000                        7313  1 04-RPLVS +           DC    AL2(0)       .           KEY LENGTH
 000C2A 0000                        7314  1 04-RPLVS +           DC    AL2(0)        .          TRANSID                    @LAC
 000C2C 00000000                    7315  1 04-RPLVS +           DC    A(0)                     POINTER TO CONTROL CHARACTER
 000C30 00000BCC                    7316  1 04-RPLVSC+           DC    A(SUBACB1)
                                          1          +                         .                POINTER TO ACB
 000C34 00000000                    7317  1 04-RPLVS +           DC    A(0) .                   POINTER TO TCB
 000C38 00000000                    7318  1 04-RPLVS +           DC    A(0)     .               POINTER TO RECORD AREA
 000C3C 00000000                    7319  1 04-RPLVS +           DC    A(0)    .                POINTER TO ARGUMENT
 000C40 20                          7320  1 04-RPLVS +           DC    B'00100000'     .        OPTCD BYTE 1
 000C41 80                          7321  1 04-RPLVSC+           DC    B'10000000'
                                          1          +                            .            OPTCD BYTE 2
 000C42 00                          7322  1 04-RPLVS +           DC    B'00000000'              OPTCD BYTE 3               @LAC
 000C43 00                          7323  1 04-RPLVS +           DC    B'00000000'              OPTCD BYTE 4               @EAC
 000C44 00000000                    7324  1 04-RPLVS +           DC    A(0)       .             POINTER TO NEXT RPL
 000C48 00000000                    7325  1 04-RPLVS +           DC    A(0) .                   RESERVED FOR LOGICAL REC LEN
 000C4C 00004000                    7326  1 04-RPLVS +           DC    A(16384)    .            BUFFER LENGTH
                                    7327  1          +*                                       OPTCD BYTES 5-8          X03004
 000C50 00                          7328  1 04-RPLVSC+           DC    B'00000000'
                                          1          +                            .            BYTE 5                  X04SVHS
 000C51 00                          7329  1 04-RPLVSC+           DC    B'00000000'
                                          1          +                            .            BYTE 6                  X04SVHS
 000C52 00                          7330  1 04-RPLVSC+           DC    B'00000000'
                                          1          +                            .            BYTE 7                  X04SVHS
1GLOB     (GLOB5139) (12:46) (15MAR04) WYLBUR's Global Control Blocks                                                       Page   79
0Current Usings:  (CP,R11) (CV,R12)
0Loc    Object Code    Addr1 Addr2  Stmt Lv Lineno    Source Statement           (Hibal 5, Asmedit 3.3)  HLASM R4.0  2004/03/15 12.46
+___    ______ ____    _____ _____  ____ __ ______    ______ _________
0000C53 00                          7331  1 04-RPLVSC+           DC    B'00000000'
                                          1          +                            .            BYTE 8                  X04SVHS
 000C54 0000000000000000            7332  1 04-RPLVS +           DC    XL8'0' .                 RBA
 000C5C 40                          7333  1 04-RPLVS +           DC    B'01000000'                                     @G40AKSL
 000C5D 00                          7334  1 04-RPLVS +           DC    AL1(0)                   ACTIVE INDICATOR
 000C5E 0000                        7335  1 04-RPLVS +           DC    AL2(0)       .           MAXIMUM ERROR MSG LENGTH
 000C60 00000000                    7336  1 04-RPLVS +           DC    A(0) .                   RESERVED FOR MESSAGE AREA PTR
                                    7337  1          +
 000C64 00000C6C                    7379  1 04-IDACB +IDA1292A   DC    A(*+8)                  ADDRESS OF HEADER
 000C68 80000C7C                    7380  1 04-IDACB +           DC    A(IDA1292A+24+X'80000000')   ADDRESS OF LAST ELEMENT
 000C6C A0                          7381  1 04-IDACB +           DC    AL1(160)                BLOCK TYPE CODE
 000C6D 04                          7382  1 04-IDACB +           DC    AL1(4)                  FUNCTION TYPE CODE
 000C6E 0000                        7383  1 04-IDACB +           DC    AL2(0)                   HEADER FIELD VALUE
 000C70 00000BCC                    7384  1 04-IDACB +           DC    AL4(SUBACB1)                 HEADER FIELD VALUE
 000C74 00000000                    7385  1 04-IDACB +           DC    AL4(0)                   HEADER FIELD VALUE
 000C78 00000000                    7386  1 04-IDACB +           DC    AL4(0)                   HEADER FIELD VALUE
 000C7C 001D                        7387  1 04-IDACB +           DC    AL2(29)                    ELEMENT ID
 000C7E 0000                        7388  1 04-IDACB +           DC    AL2(0)                  RESERVED                    @LQC
 000C80 80000000                    7389  1 04-IDACBC+           DC    B'10000000000000000000000000000000'
                                          1          +                                         ELEMENT VALUE
 000C84 00000C90                    7423  1 04-IDACB +IDA1333A   DC    A(*+12)                 ADDRESS OF HEADER
 000C88 00000C98                    7424  1 04-IDACB +           DC    A(IDA1333A+20)          ELEMENT ADDRESS
 000C8C 80000CA0                    7425  1 04-IDACB +           DC    A(IDA1333A+28+X'80000000')   ADDRESS OF LAST ELEMENT
 000C90 C0                          7426  1 04-IDACB +           DC    AL1(192)                BLOCK TYPE CODE
 000C91 02                          7427  1 04-IDACB +           DC    AL1(2)                  FUNCTION TYPE CODE
 000C92 0000                        7428  1 04-IDACB +           DC    AL2(0)                   HEADER FIELD VALUE
 000C94 00000C18                    7429  1 04-IDACB +           DC    AL4(SUBRPL1)                 HEADER FIELD VALUE
 000C98 002C                        7430  1 04-IDACB +           DC    AL2(44)                    ELEMENT ID
 000C9A 0000                        7431  1 04-IDACB +           DC    AL2(0)                  RESERVED                    @LQC
 000C9C 00000000                    7432  1 04-IDACB +           DC    A(0)                    ELEMENT VALUE
 000CA0 0035                        7433  1 04-IDACB +           DC    AL2(53)                    ELEMENT ID
 000CA2 0000                        7434  1 04-IDACB +           DC    AL2(0)                  RESERVED                    @LQC
 000CA4 00000000                    7435  1 04-IDACB +           DC    A(0)                    ELEMENT VALUE
                                    7436  1          +
 000CA8 0000                        7437  1 02-SUBRS +           DC    H'0'                Current buffer length
 000CAA                             7438  1 02-SUBRS +           DS    XL16384             Working buffer
                                    7439  1          +
 004CAC                             7440  1 02-SUBRS +           DS    0F
 004CAC                             7443  1 04-LABEL +SUB2       DS    0H
 004CAC 00008DC800000B90            7444  1 03-RSCHD +           DC    A(SUB3),A(SUB1)
 004CB4 0000000000000000            7445  1 03-RSCHD +           DC    A(0),A(0),A(0)
 004CC0 00                          7446  1 03-RSCHD +           DC    X'00'
 004CC4                             7447  1 03-RSCHD +           DS    0F
 004CC4 D1C5E2D9C4D9F240            7448  1 02-SUBRS +           DC    CL8'JESRDR2'
                                    7449  1          +
 004CCC 00000000                    7450  1 02-SUBRS +           DC    A(0)                Submit subtask TCB ptr
                                    7451  1          +
 004CD0 00000000                    7452  1 02-SUBRS +           DC    A(0)                Termination ECB
 004CD4 00000000                    7453  1 02-SUBRS +           DC    A(0)                Subtask's ECB
                                    7454  1          +
 004CD8 00004CAC                    7455  1 02-SUBRS +           DC    A(SUB2)             Address of this resource
                                    7456  1          +*                                    used for attach param list
                                    7457  1          +*
 004CDC                             7458  1 02-SUBRS +           DS    CL8                 Work cell
1GLOB     (GLOB5139) (12:46) (15MAR04) WYLBUR's Global Control Blocks                                                       Page   80
0Current Usings:  (CP,R11) (CV,R12)
0Loc    Object Code    Addr1 Addr2  Stmt Lv Lineno    Source Statement           (Hibal 5, Asmedit 3.3)  HLASM R4.0  2004/03/15 12.46
+___    ______ ____    _____ _____  ____ __ ______    ______ _________
0                                   7459  1          +
 004CE4 00                          7460  1 02-SUBRS +           DC    X'00'               Flag byte
                                    7461  1          +
 004CE5 00                                1          +
 004CE6 0000                        7462  1 02-SUBRS +           DC    H'0'                Jobno of job just submitted
                                    7463  1          +
 004CE8                             7474  1 04-ACBVS +SUBACB2    DS    0F
 004CE8 A0                          7475  1 04-ACBVS +           DC    X'A0' .                  ACB IDENTIFICATION
 004CE9 10                          7476  1 04-ACBVS +           DC    AL1(16)                  ACB SUBTYPE             X04SVHS
 004CEA 004C                        7477  1 04-ACBVS +           DC    AL2(76+0)         .      ACB LENGTH             X03004HS
 004CEC 00000000                    7478  1 04-ACBVS +           DC    A(0) .                   AMB LIST POINTER
 004CF0 00000000                    7479  1 04-ACBVS +           DC    A(0) .                   INTERFACE ROUTINE POINTER
 004CF4 92                          7480  1 04-ACBVS +           DC    B'10010010'              MACRF(1)                X04SVHS
 004CF5 00                          7481  1 04-ACBVS +           DC    B'00000000'              MACRF(2)                X04SVHS
                                    7482  1          +*                                       FOR NUMERIC IN PARENS  @YA41534
 004CF6 00                          7483  1 04-ACBVS +           DC    AL1(0)       .           NO OF CONCURRENT        X04SVHS
                                    7484  1          +*                                       STRINGS FOR AIX PATH    X04SVHS
                                    7485  1          +*                                       FOR NUMERIC IN PARENS  @YA41534
 004CF7 01                          7486  1 04-ACBVS +           DC    AL1(1)      .            NUMBER OF STRINGS       X04SVHS
                                    7487  1          +*                                       FOR NUMERIC IN PARENS  @YA41534
 004CF8 0001                        7488  1 04-ACBVS +           DC    AL2(1)      .            NUMBER OF DATA BUFFERS
                                    7489  1          +*                                       FOR NUMERIC IN PARENS  @YA41534
 004CFA 0000                        7490  1 04-ACBVS +           DC    AL2(0)      .            NUMBER OF INDEX BUFFERS
 004CFC 00                          7491  1 04-ACBVS +           DC    B'00000000'              MACRF(3)                X04SVHS
                                    7492  1          +*                                       FOR NUMERIC IN PARENS  @YA41534
 004CFD 00                          7493  1 04-ACBVS +           DC    AL1(0)                   SHARED RESOURCE POOL ID    @L1C
 004CFE 0000                        7494  1 04-ACBVS +           DC    AL2(0) .                 JES BUFFER POOL/NUMBER  X04SVHS
                                    7495  1          +*                                       OF JOURNAL BUFFERS
 004D00 80                          7496  1 04-ACBVS +           DC    X'80' .                  RECFM=A
 004D01 00                          7497  1 04-ACBVS +           DC    B'00000000'              READ INTEGRITY OPTIONS     @L2C
 004D02 0008                        7498  1 04-ACBVS +           DC    X'0008' .                DSORG=ACB
 004D04 00000000                    7499  1 04-ACBVS +           DC    A(0)                                             X04SVHS
 004D08 00000000                    7500  1 04-ACBVS +           DC    A(0)       .             PASSWORD POINTER
 004D0C 00000000                    7501  1 04-ACBVS +           DC    A(0)      .              EXIT LIST POINTER
 004D10 D1C5E2D9C4D9F240            7502  1 04-ACBVS +           DC    CL8'JESRDR2' .           DDNAME
 004D18 02                          7503  1 04-ACBVS +           DC    B'00000010'              OFLAGS                     @LPC
 004D19 00                          7504  1 04-ACBVS +           DC    AL1(0) .                 ERFLAGS
 004D1A 00                          7505  1 04-ACBVS +           DC    B'00000000'              INFLGS(1)               X04SVHS
 004D1B 00                          7506  1 04-ACBVS +           DC    B'00000000'              INFLGS(2)               X04SVHS
 004D1C 00000000                    7507  1 04-ACBVS +           DC    A(0)     .               OPENJ JFCB POINTER
 004D20 00004000                    7508  1 04-ACBVS +           DC    A(16384)                 BUFFER SPACE
 004D24 0000                        7509  1 04-ACBVS +           DC    AL2(0)        .          BLOCK SIZE
 004D26 0000                        7510  1 04-ACBVS +           DC    AL2(0)      .            RECORD SIZE
 004D28 00000000                    7511  1 04-ACBVS +           DC    A(0) .                   USER WORKAREA POINTER
 004D2C 00000000                    7512  1 04-ACBVS +           DC    A(0)                     CONTROL BLOCK MANIPULATION
                                    7513  1          +*                                       WORKAREA POINTER
 004D30 00000000                    7514  1 04-ACBVS +           DC    A(0) .                   PTR TO APPLICATION NAME  X03004
 004D34                             7517  1 04-RPLVS +SUBRPL2    DS    0F
 004D34 00                          7518  1 04-RPLVS +           DC    AL1(0)                   RPL IDENTIFICATION
 004D35 10                          7519  1 04-RPLVS +           DC    AL1(16)                  RPL SUBTYPE             X04SVHS
 004D36 00                          7520  1 04-RPLVS +           DC    AL1(0)                   RPL REQUEST TYPE
 004D37 4C                          7521  1 04-RPLVS +           DC    AL1(76)                  RPL LENGTH               X03004
 004D38 00000000                    7547  1 04-RPLVS +           DC    A(0) .                   POINTER TO PLACEHOLDER
 004D3C 00000000                    7548  1 04-RPLVS +           DC    A(0) .                   ECB
1GLOB     (GLOB5139) (12:46) (15MAR04) WYLBUR's Global Control Blocks                                                       Page   81
0Current Usings:  (CP,R11) (CV,R12)
0Loc    Object Code    Addr1 Addr2  Stmt Lv Lineno    Source Statement           (Hibal 5, Asmedit 3.3)  HLASM R4.0  2004/03/15 12.46
+___    ______ ____    _____ _____  ____ __ ______    ______ _________
0004D40 00                          7549  1 04-RPLVS +           DC    BL1'0' .                 STATUS BYTE
 004D41 000000                      7550  1 04-RPLVS +           DC    XL3'0'                   FEEDBACK CODES
 004D44 0000                        7551  1 04-RPLVS +           DC    AL2(0)       .           KEY LENGTH
 004D46 0000                        7552  1 04-RPLVS +           DC    AL2(0)        .          TRANSID                    @LAC
 004D48 00000000                    7553  1 04-RPLVS +           DC    A(0)                     POINTER TO CONTROL CHARACTER
 004D4C 00004CE8                    7554  1 04-RPLVSC+           DC    A(SUBACB2)
                                          1          +                         .                POINTER TO ACB
 004D50 00000000                    7555  1 04-RPLVS +           DC    A(0) .                   POINTER TO TCB
 004D54 00000000                    7556  1 04-RPLVS +           DC    A(0)     .               POINTER TO RECORD AREA
 004D58 00000000                    7557  1 04-RPLVS +           DC    A(0)    .                POINTER TO ARGUMENT
 004D5C 20                          7558  1 04-RPLVS +           DC    B'00100000'     .        OPTCD BYTE 1
 004D5D 80                          7559  1 04-RPLVSC+           DC    B'10000000'
                                          1          +                            .            OPTCD BYTE 2
 004D5E 00                          7560  1 04-RPLVS +           DC    B'00000000'              OPTCD BYTE 3               @LAC
 004D5F 00                          7561  1 04-RPLVS +           DC    B'00000000'              OPTCD BYTE 4               @EAC
 004D60 00000000                    7562  1 04-RPLVS +           DC    A(0)       .             POINTER TO NEXT RPL
 004D64 00000000                    7563  1 04-RPLVS +           DC    A(0) .                   RESERVED FOR LOGICAL REC LEN
 004D68 00004000                    7564  1 04-RPLVS +           DC    A(16384)    .            BUFFER LENGTH
                                    7565  1          +*                                       OPTCD BYTES 5-8          X03004
 004D6C 00                          7566  1 04-RPLVSC+           DC    B'00000000'
                                          1          +                            .            BYTE 5                  X04SVHS
 004D6D 00                          7567  1 04-RPLVSC+           DC    B'00000000'
                                          1          +                            .            BYTE 6                  X04SVHS
 004D6E 00                          7568  1 04-RPLVSC+           DC    B'00000000'
                                          1          +                            .            BYTE 7                  X04SVHS
 004D6F 00                          7569  1 04-RPLVSC+           DC    B'00000000'
                                          1          +                            .            BYTE 8                  X04SVHS
 004D70 0000000000000000            7570  1 04-RPLVS +           DC    XL8'0' .                 RBA
 004D78 40                          7571  1 04-RPLVS +           DC    B'01000000'                                     @G40AKSL
 004D79 00                          7572  1 04-RPLVS +           DC    AL1(0)                   ACTIVE INDICATOR
 004D7A 0000                        7573  1 04-RPLVS +           DC    AL2(0)       .           MAXIMUM ERROR MSG LENGTH
 004D7C 00000000                    7574  1 04-RPLVS +           DC    A(0) .                   RESERVED FOR MESSAGE AREA PTR
                                    7575  1          +
 004D80 00004D88                    7617  1 04-IDACB +IDA1405A   DC    A(*+8)                  ADDRESS OF HEADER
 004D84 80004D98                    7618  1 04-IDACB +           DC    A(IDA1405A+24+X'80000000')   ADDRESS OF LAST ELEMENT
 004D88 A0                          7619  1 04-IDACB +           DC    AL1(160)                BLOCK TYPE CODE
 004D89 04                          7620  1 04-IDACB +           DC    AL1(4)                  FUNCTION TYPE CODE
 004D8A 0000                        7621  1 04-IDACB +           DC    AL2(0)                   HEADER FIELD VALUE
 004D8C 00004CE8                    7622  1 04-IDACB +           DC    AL4(SUBACB2)                 HEADER FIELD VALUE
 004D90 00000000                    7623  1 04-IDACB +           DC    AL4(0)                   HEADER FIELD VALUE
 004D94 00000000                    7624  1 04-IDACB +           DC    AL4(0)                   HEADER FIELD VALUE
 004D98 001D                        7625  1 04-IDACB +           DC    AL2(29)                    ELEMENT ID
 004D9A 0000                        7626  1 04-IDACB +           DC    AL2(0)                  RESERVED                    @LQC
 004D9C 80000000                    7627  1 04-IDACBC+           DC    B'10000000000000000000000000000000'
                                          1          +                                         ELEMENT VALUE
 004DA0 00004DAC                    7661  1 04-IDACB +IDA1446A   DC    A(*+12)                 ADDRESS OF HEADER
 004DA4 00004DB4                    7662  1 04-IDACB +           DC    A(IDA1446A+20)          ELEMENT ADDRESS
 004DA8 80004DBC                    7663  1 04-IDACB +           DC    A(IDA1446A+28+X'80000000')   ADDRESS OF LAST ELEMENT
 004DAC C0                          7664  1 04-IDACB +           DC    AL1(192)                BLOCK TYPE CODE
 004DAD 02                          7665  1 04-IDACB +           DC    AL1(2)                  FUNCTION TYPE CODE
 004DAE 0000                        7666  1 04-IDACB +           DC    AL2(0)                   HEADER FIELD VALUE
 004DB0 00004D34                    7667  1 04-IDACB +           DC    AL4(SUBRPL2)                 HEADER FIELD VALUE
 004DB4 002C                        7668  1 04-IDACB +           DC    AL2(44)                    ELEMENT ID
 004DB6 0000                        7669  1 04-IDACB +           DC    AL2(0)                  RESERVED                    @LQC
1GLOB     (GLOB5139) (12:46) (15MAR04) WYLBUR's Global Control Blocks                                                       Page   82
0Current Usings:  (CP,R11) (CV,R12)
0Loc    Object Code    Addr1 Addr2  Stmt Lv Lineno    Source Statement           (Hibal 5, Asmedit 3.3)  HLASM R4.0  2004/03/15 12.46
+___    ______ ____    _____ _____  ____ __ ______    ______ _________
0004DB8 00000000                    7670  1 04-IDACB +           DC    A(0)                    ELEMENT VALUE
 004DBC 0035                        7671  1 04-IDACB +           DC    AL2(53)                    ELEMENT ID
 004DBE 0000                        7672  1 04-IDACB +           DC    AL2(0)                  RESERVED                    @LQC
 004DC0 00000000                    7673  1 04-IDACB +           DC    A(0)                    ELEMENT VALUE
                                    7674  1          +
 004DC4 0000                        7675  1 02-SUBRS +           DC    H'0'                Current buffer length
 004DC6                             7676  1 02-SUBRS +           DS    XL16384             Working buffer
                                    7677  1          +
 008DC8                             7678  1 02-SUBRS +           DS    0F
 008DC8                             7681  1 04-LABEL +SUB3       DS    0H
 008DC8 0000CEE400004CAC            7682  1 03-RSCHD +           DC    A(SUB4),A(SUB2)
 008DD0 0000000000000000            7683  1 03-RSCHD +           DC    A(0),A(0),A(0)
 008DDC 00                          7684  1 03-RSCHD +           DC    X'00'
 008DE0                             7685  1 03-RSCHD +           DS    0F
 008DE0 D1C5E2D9C4D9F340            7686  1 02-SUBRS +           DC    CL8'JESRDR3'
                                    7687  1          +
 008DE8 00000000                    7688  1 02-SUBRS +           DC    A(0)                Submit subtask TCB ptr
                                    7689  1          +
 008DEC 00000000                    7690  1 02-SUBRS +           DC    A(0)                Termination ECB
 008DF0 00000000                    7691  1 02-SUBRS +           DC    A(0)                Subtask's ECB
                                    7692  1          +
 008DF4 00008DC8                    7693  1 02-SUBRS +           DC    A(SUB3)             Address of this resource
                                    7694  1          +*                                    used for attach param list
                                    7695  1          +*
 008DF8                             7696  1 02-SUBRS +           DS    CL8                 Work cell
                                    7697  1          +
 008E00 00                          7698  1 02-SUBRS +           DC    X'00'               Flag byte
                                    7699  1          +
 008E01 00                                1          +
 008E02 0000                        7700  1 02-SUBRS +           DC    H'0'                Jobno of job just submitted
                                    7701  1          +
 008E04                             7712  1 04-ACBVS +SUBACB3    DS    0F
 008E04 A0                          7713  1 04-ACBVS +           DC    X'A0' .                  ACB IDENTIFICATION
 008E05 10                          7714  1 04-ACBVS +           DC    AL1(16)                  ACB SUBTYPE             X04SVHS
 008E06 004C                        7715  1 04-ACBVS +           DC    AL2(76+0)         .      ACB LENGTH             X03004HS
 008E08 00000000                    7716  1 04-ACBVS +           DC    A(0) .                   AMB LIST POINTER
 008E0C 00000000                    7717  1 04-ACBVS +           DC    A(0) .                   INTERFACE ROUTINE POINTER
 008E10 92                          7718  1 04-ACBVS +           DC    B'10010010'              MACRF(1)                X04SVHS
 008E11 00                          7719  1 04-ACBVS +           DC    B'00000000'              MACRF(2)                X04SVHS
                                    7720  1          +*                                       FOR NUMERIC IN PARENS  @YA41534
 008E12 00                          7721  1 04-ACBVS +           DC    AL1(0)       .           NO OF CONCURRENT        X04SVHS
                                    7722  1          +*                                       STRINGS FOR AIX PATH    X04SVHS
                                    7723  1          +*                                       FOR NUMERIC IN PARENS  @YA41534
 008E13 01                          7724  1 04-ACBVS +           DC    AL1(1)      .            NUMBER OF STRINGS       X04SVHS
                                    7725  1          +*                                       FOR NUMERIC IN PARENS  @YA41534
 008E14 0001                        7726  1 04-ACBVS +           DC    AL2(1)      .            NUMBER OF DATA BUFFERS
                                    7727  1          +*                                       FOR NUMERIC IN PARENS  @YA41534
 008E16 0000                        7728  1 04-ACBVS +           DC    AL2(0)      .            NUMBER OF INDEX BUFFERS
 008E18 00                          7729  1 04-ACBVS +           DC    B'00000000'              MACRF(3)                X04SVHS
                                    7730  1          +*                                       FOR NUMERIC IN PARENS  @YA41534
 008E19 00                          7731  1 04-ACBVS +           DC    AL1(0)                   SHARED RESOURCE POOL ID    @L1C
 008E1A 0000                        7732  1 04-ACBVS +           DC    AL2(0) .                 JES BUFFER POOL/NUMBER  X04SVHS
                                    7733  1          +*                                       OF JOURNAL BUFFERS
 008E1C 80                          7734  1 04-ACBVS +           DC    X'80' .                  RECFM=A
1GLOB     (GLOB5139) (12:46) (15MAR04) WYLBUR's Global Control Blocks                                                       Page   83
0Current Usings:  (CP,R11) (CV,R12)
0Loc    Object Code    Addr1 Addr2  Stmt Lv Lineno    Source Statement           (Hibal 5, Asmedit 3.3)  HLASM R4.0  2004/03/15 12.46
+___    ______ ____    _____ _____  ____ __ ______    ______ _________
0008E1D 00                          7735  1 04-ACBVS +           DC    B'00000000'              READ INTEGRITY OPTIONS     @L2C
 008E1E 0008                        7736  1 04-ACBVS +           DC    X'0008' .                DSORG=ACB
 008E20 00000000                    7737  1 04-ACBVS +           DC    A(0)                                             X04SVHS
 008E24 00000000                    7738  1 04-ACBVS +           DC    A(0)       .             PASSWORD POINTER
 008E28 00000000                    7739  1 04-ACBVS +           DC    A(0)      .              EXIT LIST POINTER
 008E2C D1C5E2D9C4D9F340            7740  1 04-ACBVS +           DC    CL8'JESRDR3' .           DDNAME
 008E34 02                          7741  1 04-ACBVS +           DC    B'00000010'              OFLAGS                     @LPC
 008E35 00                          7742  1 04-ACBVS +           DC    AL1(0) .                 ERFLAGS
 008E36 00                          7743  1 04-ACBVS +           DC    B'00000000'              INFLGS(1)               X04SVHS
 008E37 00                          7744  1 04-ACBVS +           DC    B'00000000'              INFLGS(2)               X04SVHS
 008E38 00000000                    7745  1 04-ACBVS +           DC    A(0)     .               OPENJ JFCB POINTER
 008E3C 00004000                    7746  1 04-ACBVS +           DC    A(16384)                 BUFFER SPACE
 008E40 0000                        7747  1 04-ACBVS +           DC    AL2(0)        .          BLOCK SIZE
 008E42 0000                        7748  1 04-ACBVS +           DC    AL2(0)      .            RECORD SIZE
 008E44 00000000                    7749  1 04-ACBVS +           DC    A(0) .                   USER WORKAREA POINTER
 008E48 00000000                    7750  1 04-ACBVS +           DC    A(0)                     CONTROL BLOCK MANIPULATION
                                    7751  1          +*                                       WORKAREA POINTER
 008E4C 00000000                    7752  1 04-ACBVS +           DC    A(0) .                   PTR TO APPLICATION NAME  X03004
 008E50                             7755  1 04-RPLVS +SUBRPL3    DS    0F
 008E50 00                          7756  1 04-RPLVS +           DC    AL1(0)                   RPL IDENTIFICATION
 008E51 10                          7757  1 04-RPLVS +           DC    AL1(16)                  RPL SUBTYPE             X04SVHS
 008E52 00                          7758  1 04-RPLVS +           DC    AL1(0)                   RPL REQUEST TYPE
 008E53 4C                          7759  1 04-RPLVS +           DC    AL1(76)                  RPL LENGTH               X03004
 008E54 00000000                    7785  1 04-RPLVS +           DC    A(0) .                   POINTER TO PLACEHOLDER
 008E58 00000000                    7786  1 04-RPLVS +           DC    A(0) .                   ECB
 008E5C 00                          7787  1 04-RPLVS +           DC    BL1'0' .                 STATUS BYTE
 008E5D 000000                      7788  1 04-RPLVS +           DC    XL3'0'                   FEEDBACK CODES
 008E60 0000                        7789  1 04-RPLVS +           DC    AL2(0)       .           KEY LENGTH
 008E62 0000                        7790  1 04-RPLVS +           DC    AL2(0)        .          TRANSID                    @LAC
 008E64 00000000                    7791  1 04-RPLVS +           DC    A(0)                     POINTER TO CONTROL CHARACTER
 008E68 00008E04                    7792  1 04-RPLVSC+           DC    A(SUBACB3)
                                          1          +                         .                POINTER TO ACB
 008E6C 00000000                    7793  1 04-RPLVS +           DC    A(0) .                   POINTER TO TCB
 008E70 00000000                    7794  1 04-RPLVS +           DC    A(0)     .               POINTER TO RECORD AREA
 008E74 00000000                    7795  1 04-RPLVS +           DC    A(0)    .                POINTER TO ARGUMENT
 008E78 20                          7796  1 04-RPLVS +           DC    B'00100000'     .        OPTCD BYTE 1
 008E79 80                          7797  1 04-RPLVSC+           DC    B'10000000'
                                          1          +                            .            OPTCD BYTE 2
 008E7A 00                          7798  1 04-RPLVS +           DC    B'00000000'              OPTCD BYTE 3               @LAC
 008E7B 00                          7799  1 04-RPLVS +           DC    B'00000000'              OPTCD BYTE 4               @EAC
 008E7C 00000000                    7800  1 04-RPLVS +           DC    A(0)       .             POINTER TO NEXT RPL
 008E80 00000000                    7801  1 04-RPLVS +           DC    A(0) .                   RESERVED FOR LOGICAL REC LEN
 008E84 00004000                    7802  1 04-RPLVS +           DC    A(16384)    .            BUFFER LENGTH
                                    7803  1          +*                                       OPTCD BYTES 5-8          X03004
 008E88 00                          7804  1 04-RPLVSC+           DC    B'00000000'
                                          1          +                            .            BYTE 5                  X04SVHS
 008E89 00                          7805  1 04-RPLVSC+           DC    B'00000000'
                                          1          +                            .            BYTE 6                  X04SVHS
 008E8A 00                          7806  1 04-RPLVSC+           DC    B'00000000'
                                          1          +                            .            BYTE 7                  X04SVHS
 008E8B 00                          7807  1 04-RPLVSC+           DC    B'00000000'
                                          1          +                            .            BYTE 8                  X04SVHS
 008E8C 0000000000000000            7808  1 04-RPLVS +           DC    XL8'0' .                 RBA
 008E94 40                          7809  1 04-RPLVS +           DC    B'01000000'                                     @G40AKSL
1GLOB     (GLOB5139) (12:46) (15MAR04) WYLBUR's Global Control Blocks                                                       Page   84
0Current Usings:  (CP,R11) (CV,R12)
0Loc    Object Code    Addr1 Addr2  Stmt Lv Lineno    Source Statement           (Hibal 5, Asmedit 3.3)  HLASM R4.0  2004/03/15 12.46
+___    ______ ____    _____ _____  ____ __ ______    ______ _________
0008E95 00                          7810  1 04-RPLVS +           DC    AL1(0)                   ACTIVE INDICATOR
 008E96 0000                        7811  1 04-RPLVS +           DC    AL2(0)       .           MAXIMUM ERROR MSG LENGTH
 008E98 00000000                    7812  1 04-RPLVS +           DC    A(0) .                   RESERVED FOR MESSAGE AREA PTR
                                    7813  1          +
 008E9C 00008EA4                    7855  1 04-IDACB +IDA1518A   DC    A(*+8)                  ADDRESS OF HEADER
 008EA0 80008EB4                    7856  1 04-IDACB +           DC    A(IDA1518A+24+X'80000000')   ADDRESS OF LAST ELEMENT
 008EA4 A0                          7857  1 04-IDACB +           DC    AL1(160)                BLOCK TYPE CODE
 008EA5 04                          7858  1 04-IDACB +           DC    AL1(4)                  FUNCTION TYPE CODE
 008EA6 0000                        7859  1 04-IDACB +           DC    AL2(0)                   HEADER FIELD VALUE
 008EA8 00008E04                    7860  1 04-IDACB +           DC    AL4(SUBACB3)                 HEADER FIELD VALUE
 008EAC 00000000                    7861  1 04-IDACB +           DC    AL4(0)                   HEADER FIELD VALUE
 008EB0 00000000                    7862  1 04-IDACB +           DC    AL4(0)                   HEADER FIELD VALUE
 008EB4 001D                        7863  1 04-IDACB +           DC    AL2(29)                    ELEMENT ID
 008EB6 0000                        7864  1 04-IDACB +           DC    AL2(0)                  RESERVED                    @LQC
 008EB8 80000000                    7865  1 04-IDACBC+           DC    B'10000000000000000000000000000000'
                                          1          +                                         ELEMENT VALUE
 008EBC 00008EC8                    7899  1 04-IDACB +IDA1559A   DC    A(*+12)                 ADDRESS OF HEADER
 008EC0 00008ED0                    7900  1 04-IDACB +           DC    A(IDA1559A+20)          ELEMENT ADDRESS
 008EC4 80008ED8                    7901  1 04-IDACB +           DC    A(IDA1559A+28+X'80000000')   ADDRESS OF LAST ELEMENT
 008EC8 C0                          7902  1 04-IDACB +           DC    AL1(192)                BLOCK TYPE CODE
 008EC9 02                          7903  1 04-IDACB +           DC    AL1(2)                  FUNCTION TYPE CODE
 008ECA 0000                        7904  1 04-IDACB +           DC    AL2(0)                   HEADER FIELD VALUE
 008ECC 00008E50                    7905  1 04-IDACB +           DC    AL4(SUBRPL3)                 HEADER FIELD VALUE
 008ED0 002C                        7906  1 04-IDACB +           DC    AL2(44)                    ELEMENT ID
 008ED2 0000                        7907  1 04-IDACB +           DC    AL2(0)                  RESERVED                    @LQC
 008ED4 00000000                    7908  1 04-IDACB +           DC    A(0)                    ELEMENT VALUE
 008ED8 0035                        7909  1 04-IDACB +           DC    AL2(53)                    ELEMENT ID
 008EDA 0000                        7910  1 04-IDACB +           DC    AL2(0)                  RESERVED                    @LQC
 008EDC 00000000                    7911  1 04-IDACB +           DC    A(0)                    ELEMENT VALUE
                                    7912  1          +
 008EE0 0000                        7913  1 02-SUBRS +           DC    H'0'                Current buffer length
 008EE2                             7914  1 02-SUBRS +           DS    XL16384             Working buffer
                                    7915  1          +
 00CEE4                             7916  1 02-SUBRS +           DS    0F
 00CEE4                             7919  1 04-LABEL +SUB4       DS    0H
 00CEE4 0001100000008DC8            7920  1 03-RSCHD +           DC    A(SUB5),A(SUB3)
 00CEEC 0000000000000000            7921  1 03-RSCHD +           DC    A(0),A(0),A(0)
 00CEF8 00                          7922  1 03-RSCHD +           DC    X'00'
 00CEFC                             7923  1 03-RSCHD +           DS    0F
 00CEFC D1C5E2D9C4D9F440            7924  1 02-SUBRS +           DC    CL8'JESRDR4'
                                    7925  1          +
 00CF04 00000000                    7926  1 02-SUBRS +           DC    A(0)                Submit subtask TCB ptr
                                    7927  1          +
 00CF08 00000000                    7928  1 02-SUBRS +           DC    A(0)                Termination ECB
 00CF0C 00000000                    7929  1 02-SUBRS +           DC    A(0)                Subtask's ECB
                                    7930  1          +
 00CF10 0000CEE4                    7931  1 02-SUBRS +           DC    A(SUB4)             Address of this resource
                                    7932  1          +*                                    used for attach param list
                                    7933  1          +*
 00CF14                             7934  1 02-SUBRS +           DS    CL8                 Work cell
                                    7935  1          +
 00CF1C 00                          7936  1 02-SUBRS +           DC    X'00'               Flag byte
                                    7937  1          +
 00CF1D 00                                1          +
1GLOB     (GLOB5139) (12:46) (15MAR04) WYLBUR's Global Control Blocks                                                       Page   85
0Current Usings:  (CP,R11) (CV,R12)
0Loc    Object Code    Addr1 Addr2  Stmt Lv Lineno    Source Statement           (Hibal 5, Asmedit 3.3)  HLASM R4.0  2004/03/15 12.46
+___    ______ ____    _____ _____  ____ __ ______    ______ _________
000CF1E 0000                        7938  1 02-SUBRS +           DC    H'0'                Jobno of job just submitted
                                    7939  1          +
 00CF20                             7950  1 04-ACBVS +SUBACB4    DS    0F
 00CF20 A0                          7951  1 04-ACBVS +           DC    X'A0' .                  ACB IDENTIFICATION
 00CF21 10                          7952  1 04-ACBVS +           DC    AL1(16)                  ACB SUBTYPE             X04SVHS
 00CF22 004C                        7953  1 04-ACBVS +           DC    AL2(76+0)         .      ACB LENGTH             X03004HS
 00CF24 00000000                    7954  1 04-ACBVS +           DC    A(0) .                   AMB LIST POINTER
 00CF28 00000000                    7955  1 04-ACBVS +           DC    A(0) .                   INTERFACE ROUTINE POINTER
 00CF2C 92                          7956  1 04-ACBVS +           DC    B'10010010'              MACRF(1)                X04SVHS
 00CF2D 00                          7957  1 04-ACBVS +           DC    B'00000000'              MACRF(2)                X04SVHS
                                    7958  1          +*                                       FOR NUMERIC IN PARENS  @YA41534
 00CF2E 00                          7959  1 04-ACBVS +           DC    AL1(0)       .           NO OF CONCURRENT        X04SVHS
                                    7960  1          +*                                       STRINGS FOR AIX PATH    X04SVHS
                                    7961  1          +*                                       FOR NUMERIC IN PARENS  @YA41534
 00CF2F 01                          7962  1 04-ACBVS +           DC    AL1(1)      .            NUMBER OF STRINGS       X04SVHS
                                    7963  1          +*                                       FOR NUMERIC IN PARENS  @YA41534
 00CF30 0001                        7964  1 04-ACBVS +           DC    AL2(1)      .            NUMBER OF DATA BUFFERS
                                    7965  1          +*                                       FOR NUMERIC IN PARENS  @YA41534
 00CF32 0000                        7966  1 04-ACBVS +           DC    AL2(0)      .            NUMBER OF INDEX BUFFERS
 00CF34 00                          7967  1 04-ACBVS +           DC    B'00000000'              MACRF(3)                X04SVHS
                                    7968  1          +*                                       FOR NUMERIC IN PARENS  @YA41534
 00CF35 00                          7969  1 04-ACBVS +           DC    AL1(0)                   SHARED RESOURCE POOL ID    @L1C
 00CF36 0000                        7970  1 04-ACBVS +           DC    AL2(0) .                 JES BUFFER POOL/NUMBER  X04SVHS
                                    7971  1          +*                                       OF JOURNAL BUFFERS
 00CF38 80                          7972  1 04-ACBVS +           DC    X'80' .                  RECFM=A
 00CF39 00                          7973  1 04-ACBVS +           DC    B'00000000'              READ INTEGRITY OPTIONS     @L2C
 00CF3A 0008                        7974  1 04-ACBVS +           DC    X'0008' .                DSORG=ACB
 00CF3C 00000000                    7975  1 04-ACBVS +           DC    A(0)                                             X04SVHS
 00CF40 00000000                    7976  1 04-ACBVS +           DC    A(0)       .             PASSWORD POINTER
 00CF44 00000000                    7977  1 04-ACBVS +           DC    A(0)      .              EXIT LIST POINTER
 00CF48 D1C5E2D9C4D9F440            7978  1 04-ACBVS +           DC    CL8'JESRDR4' .           DDNAME
 00CF50 02                          7979  1 04-ACBVS +           DC    B'00000010'              OFLAGS                     @LPC
 00CF51 00                          7980  1 04-ACBVS +           DC    AL1(0) .                 ERFLAGS
 00CF52 00                          7981  1 04-ACBVS +           DC    B'00000000'              INFLGS(1)               X04SVHS
 00CF53 00                          7982  1 04-ACBVS +           DC    B'00000000'              INFLGS(2)               X04SVHS
 00CF54 00000000                    7983  1 04-ACBVS +           DC    A(0)     .               OPENJ JFCB POINTER
 00CF58 00004000                    7984  1 04-ACBVS +           DC    A(16384)                 BUFFER SPACE
 00CF5C 0000                        7985  1 04-ACBVS +           DC    AL2(0)        .          BLOCK SIZE
 00CF5E 0000                        7986  1 04-ACBVS +           DC    AL2(0)      .            RECORD SIZE
 00CF60 00000000                    7987  1 04-ACBVS +           DC    A(0) .                   USER WORKAREA POINTER
 00CF64 00000000                    7988  1 04-ACBVS +           DC    A(0)                     CONTROL BLOCK MANIPULATION
                                    7989  1          +*                                       WORKAREA POINTER
 00CF68 00000000                    7990  1 04-ACBVS +           DC    A(0) .                   PTR TO APPLICATION NAME  X03004
 00CF6C                             7993  1 04-RPLVS +SUBRPL4    DS    0F
 00CF6C 00                          7994  1 04-RPLVS +           DC    AL1(0)                   RPL IDENTIFICATION
 00CF6D 10                          7995  1 04-RPLVS +           DC    AL1(16)                  RPL SUBTYPE             X04SVHS
 00CF6E 00                          7996  1 04-RPLVS +           DC    AL1(0)                   RPL REQUEST TYPE
 00CF6F 4C                          7997  1 04-RPLVS +           DC    AL1(76)                  RPL LENGTH               X03004
 00CF70 00000000                    8023  1 04-RPLVS +           DC    A(0) .                   POINTER TO PLACEHOLDER
 00CF74 00000000                    8024  1 04-RPLVS +           DC    A(0) .                   ECB
 00CF78 00                          8025  1 04-RPLVS +           DC    BL1'0' .                 STATUS BYTE
 00CF79 000000                      8026  1 04-RPLVS +           DC    XL3'0'                   FEEDBACK CODES
 00CF7C 0000                        8027  1 04-RPLVS +           DC    AL2(0)       .           KEY LENGTH
 00CF7E 0000                        8028  1 04-RPLVS +           DC    AL2(0)        .          TRANSID                    @LAC
1GLOB     (GLOB5139) (12:46) (15MAR04) WYLBUR's Global Control Blocks                                                       Page   86
0Current Usings:  (CP,R11) (CV,R12)
0Loc    Object Code    Addr1 Addr2  Stmt Lv Lineno    Source Statement           (Hibal 5, Asmedit 3.3)  HLASM R4.0  2004/03/15 12.46
+___    ______ ____    _____ _____  ____ __ ______    ______ _________
000CF80 00000000                    8029  1 04-RPLVS +           DC    A(0)                     POINTER TO CONTROL CHARACTER
 00CF84 0000CF20                    8030  1 04-RPLVSC+           DC    A(SUBACB4)
                                          1          +                         .                POINTER TO ACB
 00CF88 00000000                    8031  1 04-RPLVS +           DC    A(0) .                   POINTER TO TCB
 00CF8C 00000000                    8032  1 04-RPLVS +           DC    A(0)     .               POINTER TO RECORD AREA
 00CF90 00000000                    8033  1 04-RPLVS +           DC    A(0)    .                POINTER TO ARGUMENT
 00CF94 20                          8034  1 04-RPLVS +           DC    B'00100000'     .        OPTCD BYTE 1
 00CF95 80                          8035  1 04-RPLVSC+           DC    B'10000000'
                                          1          +                            .            OPTCD BYTE 2
 00CF96 00                          8036  1 04-RPLVS +           DC    B'00000000'              OPTCD BYTE 3               @LAC
 00CF97 00                          8037  1 04-RPLVS +           DC    B'00000000'              OPTCD BYTE 4               @EAC
 00CF98 00000000                    8038  1 04-RPLVS +           DC    A(0)       .             POINTER TO NEXT RPL
 00CF9C 00000000                    8039  1 04-RPLVS +           DC    A(0) .                   RESERVED FOR LOGICAL REC LEN
 00CFA0 00004000                    8040  1 04-RPLVS +           DC    A(16384)    .            BUFFER LENGTH
                                    8041  1          +*                                       OPTCD BYTES 5-8          X03004
 00CFA4 00                          8042  1 04-RPLVSC+           DC    B'00000000'
                                          1          +                            .            BYTE 5                  X04SVHS
 00CFA5 00                          8043  1 04-RPLVSC+           DC    B'00000000'
                                          1          +                            .            BYTE 6                  X04SVHS
 00CFA6 00                          8044  1 04-RPLVSC+           DC    B'00000000'
                                          1          +                            .            BYTE 7                  X04SVHS
 00CFA7 00                          8045  1 04-RPLVSC+           DC    B'00000000'
                                          1          +                            .            BYTE 8                  X04SVHS
 00CFA8 0000000000000000            8046  1 04-RPLVS +           DC    XL8'0' .                 RBA
 00CFB0 40                          8047  1 04-RPLVS +           DC    B'01000000'                                     @G40AKSL
 00CFB1 00                          8048  1 04-RPLVS +           DC    AL1(0)                   ACTIVE INDICATOR
 00CFB2 0000                        8049  1 04-RPLVS +           DC    AL2(0)       .           MAXIMUM ERROR MSG LENGTH
 00CFB4 00000000                    8050  1 04-RPLVS +           DC    A(0) .                   RESERVED FOR MESSAGE AREA PTR
                                    8051  1          +
 00CFB8 0000CFC0                    8093  1 04-IDACB +IDA1631A   DC    A(*+8)                  ADDRESS OF HEADER
 00CFBC 8000CFD0                    8094  1 04-IDACB +           DC    A(IDA1631A+24+X'80000000')   ADDRESS OF LAST ELEMENT
 00CFC0 A0                          8095  1 04-IDACB +           DC    AL1(160)                BLOCK TYPE CODE
 00CFC1 04                          8096  1 04-IDACB +           DC    AL1(4)                  FUNCTION TYPE CODE
 00CFC2 0000                        8097  1 04-IDACB +           DC    AL2(0)                   HEADER FIELD VALUE
 00CFC4 0000CF20                    8098  1 04-IDACB +           DC    AL4(SUBACB4)                 HEADER FIELD VALUE
 00CFC8 00000000                    8099  1 04-IDACB +           DC    AL4(0)                   HEADER FIELD VALUE
 00CFCC 00000000                    8100  1 04-IDACB +           DC    AL4(0)                   HEADER FIELD VALUE
 00CFD0 001D                        8101  1 04-IDACB +           DC    AL2(29)                    ELEMENT ID
 00CFD2 0000                        8102  1 04-IDACB +           DC    AL2(0)                  RESERVED                    @LQC
 00CFD4 80000000                    8103  1 04-IDACBC+           DC    B'10000000000000000000000000000000'
                                          1          +                                         ELEMENT VALUE
 00CFD8 0000CFE4                    8137  1 04-IDACB +IDA1672A   DC    A(*+12)                 ADDRESS OF HEADER
 00CFDC 0000CFEC                    8138  1 04-IDACB +           DC    A(IDA1672A+20)          ELEMENT ADDRESS
 00CFE0 8000CFF4                    8139  1 04-IDACB +           DC    A(IDA1672A+28+X'80000000')   ADDRESS OF LAST ELEMENT
 00CFE4 C0                          8140  1 04-IDACB +           DC    AL1(192)                BLOCK TYPE CODE
 00CFE5 02                          8141  1 04-IDACB +           DC    AL1(2)                  FUNCTION TYPE CODE
 00CFE6 0000                        8142  1 04-IDACB +           DC    AL2(0)                   HEADER FIELD VALUE
 00CFE8 0000CF6C                    8143  1 04-IDACB +           DC    AL4(SUBRPL4)                 HEADER FIELD VALUE
 00CFEC 002C                        8144  1 04-IDACB +           DC    AL2(44)                    ELEMENT ID
 00CFEE 0000                        8145  1 04-IDACB +           DC    AL2(0)                  RESERVED                    @LQC
 00CFF0 00000000                    8146  1 04-IDACB +           DC    A(0)                    ELEMENT VALUE
 00CFF4 0035                        8147  1 04-IDACB +           DC    AL2(53)                    ELEMENT ID
 00CFF6 0000                        8148  1 04-IDACB +           DC    AL2(0)                  RESERVED                    @LQC
 00CFF8 00000000                    8149  1 04-IDACB +           DC    A(0)                    ELEMENT VALUE
1GLOB     (GLOB5139) (12:46) (15MAR04) WYLBUR's Global Control Blocks                                                       Page   87
0Current Usings:  (CP,R11) (CV,R12)
0Loc    Object Code    Addr1 Addr2  Stmt Lv Lineno    Source Statement           (Hibal 5, Asmedit 3.3)  HLASM R4.0  2004/03/15 12.46
+___    ______ ____    _____ _____  ____ __ ______    ______ _________
0                                   8150  1          +
 00CFFC 0000                        8151  1 02-SUBRS +           DC    H'0'                Current buffer length
 00CFFE                             8152  1 02-SUBRS +           DS    XL16384             Working buffer
                                    8153  1          +
 011000                             8154  1 02-SUBRS +           DS    0F
 011000                             8157  1 04-LABEL +SUB5       DS    0H
 011000 0001511C0000CEE4            8158  1 03-RSCHD +           DC    A(SUB6),A(SUB4)
 011008 0000000000000000            8159  1 03-RSCHD +           DC    A(0),A(0),A(0)
 011014 00                          8160  1 03-RSCHD +           DC    X'00'
 011018                             8161  1 03-RSCHD +           DS    0F
 011018 D1C5E2D9C4D9F540            8162  1 02-SUBRS +           DC    CL8'JESRDR5'
                                    8163  1          +
 011020 00000000                    8164  1 02-SUBRS +           DC    A(0)                Submit subtask TCB ptr
                                    8165  1          +
 011024 00000000                    8166  1 02-SUBRS +           DC    A(0)                Termination ECB
 011028 00000000                    8167  1 02-SUBRS +           DC    A(0)                Subtask's ECB
                                    8168  1          +
 01102C 00011000                    8169  1 02-SUBRS +           DC    A(SUB5)             Address of this resource
                                    8170  1          +*                                    used for attach param list
                                    8171  1          +*
 011030                             8172  1 02-SUBRS +           DS    CL8                 Work cell
                                    8173  1          +
 011038 00                          8174  1 02-SUBRS +           DC    X'00'               Flag byte
                                    8175  1          +
 011039 00                                1          +
 01103A 0000                        8176  1 02-SUBRS +           DC    H'0'                Jobno of job just submitted
                                    8177  1          +
 01103C                             8188  1 04-ACBVS +SUBACB5    DS    0F
 01103C A0                          8189  1 04-ACBVS +           DC    X'A0' .                  ACB IDENTIFICATION
 01103D 10                          8190  1 04-ACBVS +           DC    AL1(16)                  ACB SUBTYPE             X04SVHS
 01103E 004C                        8191  1 04-ACBVS +           DC    AL2(76+0)         .      ACB LENGTH             X03004HS
 011040 00000000                    8192  1 04-ACBVS +           DC    A(0) .                   AMB LIST POINTER
 011044 00000000                    8193  1 04-ACBVS +           DC    A(0) .                   INTERFACE ROUTINE POINTER
 011048 92                          8194  1 04-ACBVS +           DC    B'10010010'              MACRF(1)                X04SVHS
 011049 00                          8195  1 04-ACBVS +           DC    B'00000000'              MACRF(2)                X04SVHS
                                    8196  1          +*                                       FOR NUMERIC IN PARENS  @YA41534
 01104A 00                          8197  1 04-ACBVS +           DC    AL1(0)       .           NO OF CONCURRENT        X04SVHS
                                    8198  1          +*                                       STRINGS FOR AIX PATH    X04SVHS
                                    8199  1          +*                                       FOR NUMERIC IN PARENS  @YA41534
 01104B 01                          8200  1 04-ACBVS +           DC    AL1(1)      .            NUMBER OF STRINGS       X04SVHS
                                    8201  1          +*                                       FOR NUMERIC IN PARENS  @YA41534
 01104C 0001                        8202  1 04-ACBVS +           DC    AL2(1)      .            NUMBER OF DATA BUFFERS
                                    8203  1          +*                                       FOR NUMERIC IN PARENS  @YA41534
 01104E 0000                        8204  1 04-ACBVS +           DC    AL2(0)      .            NUMBER OF INDEX BUFFERS
 011050 00                          8205  1 04-ACBVS +           DC    B'00000000'              MACRF(3)                X04SVHS
                                    8206  1          +*                                       FOR NUMERIC IN PARENS  @YA41534
 011051 00                          8207  1 04-ACBVS +           DC    AL1(0)                   SHARED RESOURCE POOL ID    @L1C
 011052 0000                        8208  1 04-ACBVS +           DC    AL2(0) .                 JES BUFFER POOL/NUMBER  X04SVHS
                                    8209  1          +*                                       OF JOURNAL BUFFERS
 011054 80                          8210  1 04-ACBVS +           DC    X'80' .                  RECFM=A
 011055 00                          8211  1 04-ACBVS +           DC    B'00000000'              READ INTEGRITY OPTIONS     @L2C
 011056 0008                        8212  1 04-ACBVS +           DC    X'0008' .                DSORG=ACB
 011058 00000000                    8213  1 04-ACBVS +           DC    A(0)                                             X04SVHS
 01105C 00000000                    8214  1 04-ACBVS +           DC    A(0)       .             PASSWORD POINTER
1GLOB     (GLOB5139) (12:46) (15MAR04) WYLBUR's Global Control Blocks                                                       Page   88
0Current Usings:  (CP,R11) (CV,R12)
0Loc    Object Code    Addr1 Addr2  Stmt Lv Lineno    Source Statement           (Hibal 5, Asmedit 3.3)  HLASM R4.0  2004/03/15 12.46
+___    ______ ____    _____ _____  ____ __ ______    ______ _________
0011060 00000000                    8215  1 04-ACBVS +           DC    A(0)      .              EXIT LIST POINTER
 011064 D1C5E2D9C4D9F540            8216  1 04-ACBVS +           DC    CL8'JESRDR5' .           DDNAME
 01106C 02                          8217  1 04-ACBVS +           DC    B'00000010'              OFLAGS                     @LPC
 01106D 00                          8218  1 04-ACBVS +           DC    AL1(0) .                 ERFLAGS
 01106E 00                          8219  1 04-ACBVS +           DC    B'00000000'              INFLGS(1)               X04SVHS
 01106F 00                          8220  1 04-ACBVS +           DC    B'00000000'              INFLGS(2)               X04SVHS
 011070 00000000                    8221  1 04-ACBVS +           DC    A(0)     .               OPENJ JFCB POINTER
 011074 00004000                    8222  1 04-ACBVS +           DC    A(16384)                 BUFFER SPACE
 011078 0000                        8223  1 04-ACBVS +           DC    AL2(0)        .          BLOCK SIZE
 01107A 0000                        8224  1 04-ACBVS +           DC    AL2(0)      .            RECORD SIZE
 01107C 00000000                    8225  1 04-ACBVS +           DC    A(0) .                   USER WORKAREA POINTER
 011080 00000000                    8226  1 04-ACBVS +           DC    A(0)                     CONTROL BLOCK MANIPULATION
                                    8227  1          +*                                       WORKAREA POINTER
 011084 00000000                    8228  1 04-ACBVS +           DC    A(0) .                   PTR TO APPLICATION NAME  X03004
 011088                             8231  1 04-RPLVS +SUBRPL5    DS    0F
 011088 00                          8232  1 04-RPLVS +           DC    AL1(0)                   RPL IDENTIFICATION
 011089 10                          8233  1 04-RPLVS +           DC    AL1(16)                  RPL SUBTYPE             X04SVHS
 01108A 00                          8234  1 04-RPLVS +           DC    AL1(0)                   RPL REQUEST TYPE
 01108B 4C                          8235  1 04-RPLVS +           DC    AL1(76)                  RPL LENGTH               X03004
 01108C 00000000                    8261  1 04-RPLVS +           DC    A(0) .                   POINTER TO PLACEHOLDER
 011090 00000000                    8262  1 04-RPLVS +           DC    A(0) .                   ECB
 011094 00                          8263  1 04-RPLVS +           DC    BL1'0' .                 STATUS BYTE
 011095 000000                      8264  1 04-RPLVS +           DC    XL3'0'                   FEEDBACK CODES
 011098 0000                        8265  1 04-RPLVS +           DC    AL2(0)       .           KEY LENGTH
 01109A 0000                        8266  1 04-RPLVS +           DC    AL2(0)        .          TRANSID                    @LAC
 01109C 00000000                    8267  1 04-RPLVS +           DC    A(0)                     POINTER TO CONTROL CHARACTER
 0110A0 0001103C                    8268  1 04-RPLVSC+           DC    A(SUBACB5)
                                          1          +                         .                POINTER TO ACB
 0110A4 00000000                    8269  1 04-RPLVS +           DC    A(0) .                   POINTER TO TCB
 0110A8 00000000                    8270  1 04-RPLVS +           DC    A(0)     .               POINTER TO RECORD AREA
 0110AC 00000000                    8271  1 04-RPLVS +           DC    A(0)    .                POINTER TO ARGUMENT
 0110B0 20                          8272  1 04-RPLVS +           DC    B'00100000'     .        OPTCD BYTE 1
 0110B1 80                          8273  1 04-RPLVSC+           DC    B'10000000'
                                          1          +                            .            OPTCD BYTE 2
 0110B2 00                          8274  1 04-RPLVS +           DC    B'00000000'              OPTCD BYTE 3               @LAC
 0110B3 00                          8275  1 04-RPLVS +           DC    B'00000000'              OPTCD BYTE 4               @EAC
 0110B4 00000000                    8276  1 04-RPLVS +           DC    A(0)       .             POINTER TO NEXT RPL
 0110B8 00000000                    8277  1 04-RPLVS +           DC    A(0) .                   RESERVED FOR LOGICAL REC LEN
 0110BC 00004000                    8278  1 04-RPLVS +           DC    A(16384)    .            BUFFER LENGTH
                                    8279  1          +*                                       OPTCD BYTES 5-8          X03004
 0110C0 00                          8280  1 04-RPLVSC+           DC    B'00000000'
                                          1          +                            .            BYTE 5                  X04SVHS
 0110C1 00                          8281  1 04-RPLVSC+           DC    B'00000000'
                                          1          +                            .            BYTE 6                  X04SVHS
 0110C2 00                          8282  1 04-RPLVSC+           DC    B'00000000'
                                          1          +                            .            BYTE 7                  X04SVHS
 0110C3 00                          8283  1 04-RPLVSC+           DC    B'00000000'
                                          1          +                            .            BYTE 8                  X04SVHS
 0110C4 0000000000000000            8284  1 04-RPLVS +           DC    XL8'0' .                 RBA
 0110CC 40                          8285  1 04-RPLVS +           DC    B'01000000'                                     @G40AKSL
 0110CD 00                          8286  1 04-RPLVS +           DC    AL1(0)                   ACTIVE INDICATOR
 0110CE 0000                        8287  1 04-RPLVS +           DC    AL2(0)       .           MAXIMUM ERROR MSG LENGTH
 0110D0 00000000                    8288  1 04-RPLVS +           DC    A(0) .                   RESERVED FOR MESSAGE AREA PTR
                                    8289  1          +
1GLOB     (GLOB5139) (12:46) (15MAR04) WYLBUR's Global Control Blocks                                                       Page   89
0Current Usings:  (CP,R11) (CV,R12)
0Loc    Object Code    Addr1 Addr2  Stmt Lv Lineno    Source Statement           (Hibal 5, Asmedit 3.3)  HLASM R4.0  2004/03/15 12.46
+___    ______ ____    _____ _____  ____ __ ______    ______ _________
00110D4 000110DC                    8331  1 04-IDACB +IDA1744A   DC    A(*+8)                  ADDRESS OF HEADER
 0110D8 800110EC                    8332  1 04-IDACB +           DC    A(IDA1744A+24+X'80000000')   ADDRESS OF LAST ELEMENT
 0110DC A0                          8333  1 04-IDACB +           DC    AL1(160)                BLOCK TYPE CODE
 0110DD 04                          8334  1 04-IDACB +           DC    AL1(4)                  FUNCTION TYPE CODE
 0110DE 0000                        8335  1 04-IDACB +           DC    AL2(0)                   HEADER FIELD VALUE
 0110E0 0001103C                    8336  1 04-IDACB +           DC    AL4(SUBACB5)                 HEADER FIELD VALUE
 0110E4 00000000                    8337  1 04-IDACB +           DC    AL4(0)                   HEADER FIELD VALUE
 0110E8 00000000                    8338  1 04-IDACB +           DC    AL4(0)                   HEADER FIELD VALUE
 0110EC 001D                        8339  1 04-IDACB +           DC    AL2(29)                    ELEMENT ID
 0110EE 0000                        8340  1 04-IDACB +           DC    AL2(0)                  RESERVED                    @LQC
 0110F0 80000000                    8341  1 04-IDACBC+           DC    B'10000000000000000000000000000000'
                                          1          +                                         ELEMENT VALUE
 0110F4 00011100                    8375  1 04-IDACB +IDA1785A   DC    A(*+12)                 ADDRESS OF HEADER
 0110F8 00011108                    8376  1 04-IDACB +           DC    A(IDA1785A+20)          ELEMENT ADDRESS
 0110FC 80011110                    8377  1 04-IDACB +           DC    A(IDA1785A+28+X'80000000')   ADDRESS OF LAST ELEMENT
 011100 C0                          8378  1 04-IDACB +           DC    AL1(192)                BLOCK TYPE CODE
 011101 02                          8379  1 04-IDACB +           DC    AL1(2)                  FUNCTION TYPE CODE
 011102 0000                        8380  1 04-IDACB +           DC    AL2(0)                   HEADER FIELD VALUE
 011104 00011088                    8381  1 04-IDACB +           DC    AL4(SUBRPL5)                 HEADER FIELD VALUE
 011108 002C                        8382  1 04-IDACB +           DC    AL2(44)                    ELEMENT ID
 01110A 0000                        8383  1 04-IDACB +           DC    AL2(0)                  RESERVED                    @LQC
 01110C 00000000                    8384  1 04-IDACB +           DC    A(0)                    ELEMENT VALUE
 011110 0035                        8385  1 04-IDACB +           DC    AL2(53)                    ELEMENT ID
 011112 0000                        8386  1 04-IDACB +           DC    AL2(0)                  RESERVED                    @LQC
 011114 00000000                    8387  1 04-IDACB +           DC    A(0)                    ELEMENT VALUE
                                    8388  1          +
 011118 0000                        8389  1 02-SUBRS +           DC    H'0'                Current buffer length
 01111A                             8390  1 02-SUBRS +           DS    XL16384             Working buffer
                                    8391  1          +
 01511C                             8392  1 02-SUBRS +           DS    0F
 01511C                             8395  1 04-LABEL +SUB6       DS    0H
 01511C 0001923800011000            8396  1 03-RSCHD +           DC    A(SUB7),A(SUB5)
 015124 0000000000000000            8397  1 03-RSCHD +           DC    A(0),A(0),A(0)
 015130 00                          8398  1 03-RSCHD +           DC    X'00'
 015134                             8399  1 03-RSCHD +           DS    0F
 015134 D1C5E2D9C4D9F640            8400  1 02-SUBRS +           DC    CL8'JESRDR6'
                                    8401  1          +
 01513C 00000000                    8402  1 02-SUBRS +           DC    A(0)                Submit subtask TCB ptr
                                    8403  1          +
 015140 00000000                    8404  1 02-SUBRS +           DC    A(0)                Termination ECB
 015144 00000000                    8405  1 02-SUBRS +           DC    A(0)                Subtask's ECB
                                    8406  1          +
 015148 0001511C                    8407  1 02-SUBRS +           DC    A(SUB6)             Address of this resource
                                    8408  1          +*                                    used for attach param list
                                    8409  1          +*
 01514C                             8410  1 02-SUBRS +           DS    CL8                 Work cell
                                    8411  1          +
 015154 00                          8412  1 02-SUBRS +           DC    X'00'               Flag byte
                                    8413  1          +
 015155 00                                1          +
 015156 0000                        8414  1 02-SUBRS +           DC    H'0'                Jobno of job just submitted
                                    8415  1          +
 015158                             8426  1 04-ACBVS +SUBACB6    DS    0F
 015158 A0                          8427  1 04-ACBVS +           DC    X'A0' .                  ACB IDENTIFICATION
1GLOB     (GLOB5139) (12:46) (15MAR04) WYLBUR's Global Control Blocks                                                       Page   90
0Current Usings:  (CP,R11) (CV,R12)
0Loc    Object Code    Addr1 Addr2  Stmt Lv Lineno    Source Statement           (Hibal 5, Asmedit 3.3)  HLASM R4.0  2004/03/15 12.46
+___    ______ ____    _____ _____  ____ __ ______    ______ _________
0015159 10                          8428  1 04-ACBVS +           DC    AL1(16)                  ACB SUBTYPE             X04SVHS
 01515A 004C                        8429  1 04-ACBVS +           DC    AL2(76+0)         .      ACB LENGTH             X03004HS
 01515C 00000000                    8430  1 04-ACBVS +           DC    A(0) .                   AMB LIST POINTER
 015160 00000000                    8431  1 04-ACBVS +           DC    A(0) .                   INTERFACE ROUTINE POINTER
 015164 92                          8432  1 04-ACBVS +           DC    B'10010010'              MACRF(1)                X04SVHS
 015165 00                          8433  1 04-ACBVS +           DC    B'00000000'              MACRF(2)                X04SVHS
                                    8434  1          +*                                       FOR NUMERIC IN PARENS  @YA41534
 015166 00                          8435  1 04-ACBVS +           DC    AL1(0)       .           NO OF CONCURRENT        X04SVHS
                                    8436  1          +*                                       STRINGS FOR AIX PATH    X04SVHS
                                    8437  1          +*                                       FOR NUMERIC IN PARENS  @YA41534
 015167 01                          8438  1 04-ACBVS +           DC    AL1(1)      .            NUMBER OF STRINGS       X04SVHS
                                    8439  1          +*                                       FOR NUMERIC IN PARENS  @YA41534
 015168 0001                        8440  1 04-ACBVS +           DC    AL2(1)      .            NUMBER OF DATA BUFFERS
                                    8441  1          +*                                       FOR NUMERIC IN PARENS  @YA41534
 01516A 0000                        8442  1 04-ACBVS +           DC    AL2(0)      .            NUMBER OF INDEX BUFFERS
 01516C 00                          8443  1 04-ACBVS +           DC    B'00000000'              MACRF(3)                X04SVHS
                                    8444  1          +*                                       FOR NUMERIC IN PARENS  @YA41534
 01516D 00                          8445  1 04-ACBVS +           DC    AL1(0)                   SHARED RESOURCE POOL ID    @L1C
 01516E 0000                        8446  1 04-ACBVS +           DC    AL2(0) .                 JES BUFFER POOL/NUMBER  X04SVHS
                                    8447  1          +*                                       OF JOURNAL BUFFERS
 015170 80                          8448  1 04-ACBVS +           DC    X'80' .                  RECFM=A
 015171 00                          8449  1 04-ACBVS +           DC    B'00000000'              READ INTEGRITY OPTIONS     @L2C
 015172 0008                        8450  1 04-ACBVS +           DC    X'0008' .                DSORG=ACB
 015174 00000000                    8451  1 04-ACBVS +           DC    A(0)                                             X04SVHS
 015178 00000000                    8452  1 04-ACBVS +           DC    A(0)       .             PASSWORD POINTER
 01517C 00000000                    8453  1 04-ACBVS +           DC    A(0)      .              EXIT LIST POINTER
 015180 D1C5E2D9C4D9F640            8454  1 04-ACBVS +           DC    CL8'JESRDR6' .           DDNAME
 015188 02                          8455  1 04-ACBVS +           DC    B'00000010'              OFLAGS                     @LPC
 015189 00                          8456  1 04-ACBVS +           DC    AL1(0) .                 ERFLAGS
 01518A 00                          8457  1 04-ACBVS +           DC    B'00000000'              INFLGS(1)               X04SVHS
 01518B 00                          8458  1 04-ACBVS +           DC    B'00000000'              INFLGS(2)               X04SVHS
 01518C 00000000                    8459  1 04-ACBVS +           DC    A(0)     .               OPENJ JFCB POINTER
 015190 00004000                    8460  1 04-ACBVS +           DC    A(16384)                 BUFFER SPACE
 015194 0000                        8461  1 04-ACBVS +           DC    AL2(0)        .          BLOCK SIZE
 015196 0000                        8462  1 04-ACBVS +           DC    AL2(0)      .            RECORD SIZE
 015198 00000000                    8463  1 04-ACBVS +           DC    A(0) .                   USER WORKAREA POINTER
 01519C 00000000                    8464  1 04-ACBVS +           DC    A(0)                     CONTROL BLOCK MANIPULATION
                                    8465  1          +*                                       WORKAREA POINTER
 0151A0 00000000                    8466  1 04-ACBVS +           DC    A(0) .                   PTR TO APPLICATION NAME  X03004
 0151A4                             8469  1 04-RPLVS +SUBRPL6    DS    0F
 0151A4 00                          8470  1 04-RPLVS +           DC    AL1(0)                   RPL IDENTIFICATION
 0151A5 10                          8471  1 04-RPLVS +           DC    AL1(16)                  RPL SUBTYPE             X04SVHS
 0151A6 00                          8472  1 04-RPLVS +           DC    AL1(0)                   RPL REQUEST TYPE
 0151A7 4C                          8473  1 04-RPLVS +           DC    AL1(76)                  RPL LENGTH               X03004
 0151A8 00000000                    8499  1 04-RPLVS +           DC    A(0) .                   POINTER TO PLACEHOLDER
 0151AC 00000000                    8500  1 04-RPLVS +           DC    A(0) .                   ECB
 0151B0 00                          8501  1 04-RPLVS +           DC    BL1'0' .                 STATUS BYTE
 0151B1 000000                      8502  1 04-RPLVS +           DC    XL3'0'                   FEEDBACK CODES
 0151B4 0000                        8503  1 04-RPLVS +           DC    AL2(0)       .           KEY LENGTH
 0151B6 0000                        8504  1 04-RPLVS +           DC    AL2(0)        .          TRANSID                    @LAC
 0151B8 00000000                    8505  1 04-RPLVS +           DC    A(0)                     POINTER TO CONTROL CHARACTER
 0151BC 00015158                    8506  1 04-RPLVSC+           DC    A(SUBACB6)
                                          1          +                         .                POINTER TO ACB
 0151C0 00000000                    8507  1 04-RPLVS +           DC    A(0) .                   POINTER TO TCB
1GLOB     (GLOB5139) (12:46) (15MAR04) WYLBUR's Global Control Blocks                                                       Page   91
0Current Usings:  (CP,R11) (CV,R12)
0Loc    Object Code    Addr1 Addr2  Stmt Lv Lineno    Source Statement           (Hibal 5, Asmedit 3.3)  HLASM R4.0  2004/03/15 12.46
+___    ______ ____    _____ _____  ____ __ ______    ______ _________
00151C4 00000000                    8508  1 04-RPLVS +           DC    A(0)     .               POINTER TO RECORD AREA
 0151C8 00000000                    8509  1 04-RPLVS +           DC    A(0)    .                POINTER TO ARGUMENT
 0151CC 20                          8510  1 04-RPLVS +           DC    B'00100000'     .        OPTCD BYTE 1
 0151CD 80                          8511  1 04-RPLVSC+           DC    B'10000000'
                                          1          +                            .            OPTCD BYTE 2
 0151CE 00                          8512  1 04-RPLVS +           DC    B'00000000'              OPTCD BYTE 3               @LAC
 0151CF 00                          8513  1 04-RPLVS +           DC    B'00000000'              OPTCD BYTE 4               @EAC
 0151D0 00000000                    8514  1 04-RPLVS +           DC    A(0)       .             POINTER TO NEXT RPL
 0151D4 00000000                    8515  1 04-RPLVS +           DC    A(0) .                   RESERVED FOR LOGICAL REC LEN
 0151D8 00004000                    8516  1 04-RPLVS +           DC    A(16384)    .            BUFFER LENGTH
                                    8517  1          +*                                       OPTCD BYTES 5-8          X03004
 0151DC 00                          8518  1 04-RPLVSC+           DC    B'00000000'
                                          1          +                            .            BYTE 5                  X04SVHS
 0151DD 00                          8519  1 04-RPLVSC+           DC    B'00000000'
                                          1          +                            .            BYTE 6                  X04SVHS
 0151DE 00                          8520  1 04-RPLVSC+           DC    B'00000000'
                                          1          +                            .            BYTE 7                  X04SVHS
 0151DF 00                          8521  1 04-RPLVSC+           DC    B'00000000'
                                          1          +                            .            BYTE 8                  X04SVHS
 0151E0 0000000000000000            8522  1 04-RPLVS +           DC    XL8'0' .                 RBA
 0151E8 40                          8523  1 04-RPLVS +           DC    B'01000000'                                     @G40AKSL
 0151E9 00                          8524  1 04-RPLVS +           DC    AL1(0)                   ACTIVE INDICATOR
 0151EA 0000                        8525  1 04-RPLVS +           DC    AL2(0)       .           MAXIMUM ERROR MSG LENGTH
 0151EC 00000000                    8526  1 04-RPLVS +           DC    A(0) .                   RESERVED FOR MESSAGE AREA PTR
                                    8527  1          +
 0151F0 000151F8                    8569  1 04-IDACB +IDA1857A   DC    A(*+8)                  ADDRESS OF HEADER
 0151F4 80015208                    8570  1 04-IDACB +           DC    A(IDA1857A+24+X'80000000')   ADDRESS OF LAST ELEMENT
 0151F8 A0                          8571  1 04-IDACB +           DC    AL1(160)                BLOCK TYPE CODE
 0151F9 04                          8572  1 04-IDACB +           DC    AL1(4)                  FUNCTION TYPE CODE
 0151FA 0000                        8573  1 04-IDACB +           DC    AL2(0)                   HEADER FIELD VALUE
 0151FC 00015158                    8574  1 04-IDACB +           DC    AL4(SUBACB6)                 HEADER FIELD VALUE
 015200 00000000                    8575  1 04-IDACB +           DC    AL4(0)                   HEADER FIELD VALUE
 015204 00000000                    8576  1 04-IDACB +           DC    AL4(0)                   HEADER FIELD VALUE
 015208 001D                        8577  1 04-IDACB +           DC    AL2(29)                    ELEMENT ID
 01520A 0000                        8578  1 04-IDACB +           DC    AL2(0)                  RESERVED                    @LQC
 01520C 80000000                    8579  1 04-IDACBC+           DC    B'10000000000000000000000000000000'
                                          1          +                                         ELEMENT VALUE
 015210 0001521C                    8613  1 04-IDACB +IDA1898A   DC    A(*+12)                 ADDRESS OF HEADER
 015214 00015224                    8614  1 04-IDACB +           DC    A(IDA1898A+20)          ELEMENT ADDRESS
 015218 8001522C                    8615  1 04-IDACB +           DC    A(IDA1898A+28+X'80000000')   ADDRESS OF LAST ELEMENT
 01521C C0                          8616  1 04-IDACB +           DC    AL1(192)                BLOCK TYPE CODE
 01521D 02                          8617  1 04-IDACB +           DC    AL1(2)                  FUNCTION TYPE CODE
 01521E 0000                        8618  1 04-IDACB +           DC    AL2(0)                   HEADER FIELD VALUE
 015220 000151A4                    8619  1 04-IDACB +           DC    AL4(SUBRPL6)                 HEADER FIELD VALUE
 015224 002C                        8620  1 04-IDACB +           DC    AL2(44)                    ELEMENT ID
 015226 0000                        8621  1 04-IDACB +           DC    AL2(0)                  RESERVED                    @LQC
 015228 00000000                    8622  1 04-IDACB +           DC    A(0)                    ELEMENT VALUE
 01522C 0035                        8623  1 04-IDACB +           DC    AL2(53)                    ELEMENT ID
 01522E 0000                        8624  1 04-IDACB +           DC    AL2(0)                  RESERVED                    @LQC
 015230 00000000                    8625  1 04-IDACB +           DC    A(0)                    ELEMENT VALUE
                                    8626  1          +
 015234 0000                        8627  1 02-SUBRS +           DC    H'0'                Current buffer length
 015236                             8628  1 02-SUBRS +           DS    XL16384             Working buffer
                                    8629  1          +
1GLOB     (GLOB5139) (12:46) (15MAR04) WYLBUR's Global Control Blocks                                                       Page   92
0Current Usings:  (CP,R11) (CV,R12)
0Loc    Object Code    Addr1 Addr2  Stmt Lv Lineno    Source Statement           (Hibal 5, Asmedit 3.3)  HLASM R4.0  2004/03/15 12.46
+___    ______ ____    _____ _____  ____ __ ______    ______ _________
0019238                             8630  1 02-SUBRS +           DS    0F
 019238                             8633  1 04-LABEL +SUB7       DS    0H
 019238 0001D3540001511C            8634  1 03-RSCHD +           DC    A(SUB8),A(SUB6)
 019240 0000000000000000            8635  1 03-RSCHD +           DC    A(0),A(0),A(0)
 01924C 00                          8636  1 03-RSCHD +           DC    X'00'
 019250                             8637  1 03-RSCHD +           DS    0F
 019250 D1C5E2D9C4D9F740            8638  1 02-SUBRS +           DC    CL8'JESRDR7'
                                    8639  1          +
 019258 00000000                    8640  1 02-SUBRS +           DC    A(0)                Submit subtask TCB ptr
                                    8641  1          +
 01925C 00000000                    8642  1 02-SUBRS +           DC    A(0)                Termination ECB
 019260 00000000                    8643  1 02-SUBRS +           DC    A(0)                Subtask's ECB
                                    8644  1          +
 019264 00019238                    8645  1 02-SUBRS +           DC    A(SUB7)             Address of this resource
                                    8646  1          +*                                    used for attach param list
                                    8647  1          +*
 019268                             8648  1 02-SUBRS +           DS    CL8                 Work cell
                                    8649  1          +
 019270 00                          8650  1 02-SUBRS +           DC    X'00'               Flag byte
                                    8651  1          +
 019271 00                                1          +
 019272 0000                        8652  1 02-SUBRS +           DC    H'0'                Jobno of job just submitted
                                    8653  1          +
 019274                             8664  1 04-ACBVS +SUBACB7    DS    0F
 019274 A0                          8665  1 04-ACBVS +           DC    X'A0' .                  ACB IDENTIFICATION
 019275 10                          8666  1 04-ACBVS +           DC    AL1(16)                  ACB SUBTYPE             X04SVHS
 019276 004C                        8667  1 04-ACBVS +           DC    AL2(76+0)         .      ACB LENGTH             X03004HS
 019278 00000000                    8668  1 04-ACBVS +           DC    A(0) .                   AMB LIST POINTER
 01927C 00000000                    8669  1 04-ACBVS +           DC    A(0) .                   INTERFACE ROUTINE POINTER
 019280 92                          8670  1 04-ACBVS +           DC    B'10010010'              MACRF(1)                X04SVHS
 019281 00                          8671  1 04-ACBVS +           DC    B'00000000'              MACRF(2)                X04SVHS
                                    8672  1          +*                                       FOR NUMERIC IN PARENS  @YA41534
 019282 00                          8673  1 04-ACBVS +           DC    AL1(0)       .           NO OF CONCURRENT        X04SVHS
                                    8674  1          +*                                       STRINGS FOR AIX PATH    X04SVHS
                                    8675  1          +*                                       FOR NUMERIC IN PARENS  @YA41534
 019283 01                          8676  1 04-ACBVS +           DC    AL1(1)      .            NUMBER OF STRINGS       X04SVHS
                                    8677  1          +*                                       FOR NUMERIC IN PARENS  @YA41534
 019284 0001                        8678  1 04-ACBVS +           DC    AL2(1)      .            NUMBER OF DATA BUFFERS
                                    8679  1          +*                                       FOR NUMERIC IN PARENS  @YA41534
 019286 0000                        8680  1 04-ACBVS +           DC    AL2(0)      .            NUMBER OF INDEX BUFFERS
 019288 00                          8681  1 04-ACBVS +           DC    B'00000000'              MACRF(3)                X04SVHS
                                    8682  1          +*                                       FOR NUMERIC IN PARENS  @YA41534
 019289 00                          8683  1 04-ACBVS +           DC    AL1(0)                   SHARED RESOURCE POOL ID    @L1C
 01928A 0000                        8684  1 04-ACBVS +           DC    AL2(0) .                 JES BUFFER POOL/NUMBER  X04SVHS
                                    8685  1          +*                                       OF JOURNAL BUFFERS
 01928C 80                          8686  1 04-ACBVS +           DC    X'80' .                  RECFM=A
 01928D 00                          8687  1 04-ACBVS +           DC    B'00000000'              READ INTEGRITY OPTIONS     @L2C
 01928E 0008                        8688  1 04-ACBVS +           DC    X'0008' .                DSORG=ACB
 019290 00000000                    8689  1 04-ACBVS +           DC    A(0)                                             X04SVHS
 019294 00000000                    8690  1 04-ACBVS +           DC    A(0)       .             PASSWORD POINTER
 019298 00000000                    8691  1 04-ACBVS +           DC    A(0)      .              EXIT LIST POINTER
 01929C D1C5E2D9C4D9F740            8692  1 04-ACBVS +           DC    CL8'JESRDR7' .           DDNAME
 0192A4 02                          8693  1 04-ACBVS +           DC    B'00000010'              OFLAGS                     @LPC
 0192A5 00                          8694  1 04-ACBVS +           DC    AL1(0) .                 ERFLAGS
1GLOB     (GLOB5139) (12:46) (15MAR04) WYLBUR's Global Control Blocks                                                       Page   93
0Current Usings:  (CP,R11) (CV,R12)
0Loc    Object Code    Addr1 Addr2  Stmt Lv Lineno    Source Statement           (Hibal 5, Asmedit 3.3)  HLASM R4.0  2004/03/15 12.46
+___    ______ ____    _____ _____  ____ __ ______    ______ _________
00192A6 00                          8695  1 04-ACBVS +           DC    B'00000000'              INFLGS(1)               X04SVHS
 0192A7 00                          8696  1 04-ACBVS +           DC    B'00000000'              INFLGS(2)               X04SVHS
 0192A8 00000000                    8697  1 04-ACBVS +           DC    A(0)     .               OPENJ JFCB POINTER
 0192AC 00004000                    8698  1 04-ACBVS +           DC    A(16384)                 BUFFER SPACE
 0192B0 0000                        8699  1 04-ACBVS +           DC    AL2(0)        .          BLOCK SIZE
 0192B2 0000                        8700  1 04-ACBVS +           DC    AL2(0)      .            RECORD SIZE
 0192B4 00000000                    8701  1 04-ACBVS +           DC    A(0) .                   USER WORKAREA POINTER
 0192B8 00000000                    8702  1 04-ACBVS +           DC    A(0)                     CONTROL BLOCK MANIPULATION
                                    8703  1          +*                                       WORKAREA POINTER
 0192BC 00000000                    8704  1 04-ACBVS +           DC    A(0) .                   PTR TO APPLICATION NAME  X03004
 0192C0                             8707  1 04-RPLVS +SUBRPL7    DS    0F
 0192C0 00                          8708  1 04-RPLVS +           DC    AL1(0)                   RPL IDENTIFICATION
 0192C1 10                          8709  1 04-RPLVS +           DC    AL1(16)                  RPL SUBTYPE             X04SVHS
 0192C2 00                          8710  1 04-RPLVS +           DC    AL1(0)                   RPL REQUEST TYPE
 0192C3 4C                          8711  1 04-RPLVS +           DC    AL1(76)                  RPL LENGTH               X03004
 0192C4 00000000                    8737  1 04-RPLVS +           DC    A(0) .                   POINTER TO PLACEHOLDER
 0192C8 00000000                    8738  1 04-RPLVS +           DC    A(0) .                   ECB
 0192CC 00                          8739  1 04-RPLVS +           DC    BL1'0' .                 STATUS BYTE
 0192CD 000000                      8740  1 04-RPLVS +           DC    XL3'0'                   FEEDBACK CODES
 0192D0 0000                        8741  1 04-RPLVS +           DC    AL2(0)       .           KEY LENGTH
 0192D2 0000                        8742  1 04-RPLVS +           DC    AL2(0)        .          TRANSID                    @LAC
 0192D4 00000000                    8743  1 04-RPLVS +           DC    A(0)                     POINTER TO CONTROL CHARACTER
 0192D8 00019274                    8744  1 04-RPLVSC+           DC    A(SUBACB7)
                                          1          +                         .                POINTER TO ACB
 0192DC 00000000                    8745  1 04-RPLVS +           DC    A(0) .                   POINTER TO TCB
 0192E0 00000000                    8746  1 04-RPLVS +           DC    A(0)     .               POINTER TO RECORD AREA
 0192E4 00000000                    8747  1 04-RPLVS +           DC    A(0)    .                POINTER TO ARGUMENT
 0192E8 20                          8748  1 04-RPLVS +           DC    B'00100000'     .        OPTCD BYTE 1
 0192E9 80                          8749  1 04-RPLVSC+           DC    B'10000000'
                                          1          +                            .            OPTCD BYTE 2
 0192EA 00                          8750  1 04-RPLVS +           DC    B'00000000'              OPTCD BYTE 3               @LAC
 0192EB 00                          8751  1 04-RPLVS +           DC    B'00000000'              OPTCD BYTE 4               @EAC
 0192EC 00000000                    8752  1 04-RPLVS +           DC    A(0)       .             POINTER TO NEXT RPL
 0192F0 00000000                    8753  1 04-RPLVS +           DC    A(0) .                   RESERVED FOR LOGICAL REC LEN
 0192F4 00004000                    8754  1 04-RPLVS +           DC    A(16384)    .            BUFFER LENGTH
                                    8755  1          +*                                       OPTCD BYTES 5-8          X03004
 0192F8 00                          8756  1 04-RPLVSC+           DC    B'00000000'
                                          1          +                            .            BYTE 5                  X04SVHS
 0192F9 00                          8757  1 04-RPLVSC+           DC    B'00000000'
                                          1          +                            .            BYTE 6                  X04SVHS
 0192FA 00                          8758  1 04-RPLVSC+           DC    B'00000000'
                                          1          +                            .            BYTE 7                  X04SVHS
 0192FB 00                          8759  1 04-RPLVSC+           DC    B'00000000'
                                          1          +                            .            BYTE 8                  X04SVHS
 0192FC 0000000000000000            8760  1 04-RPLVS +           DC    XL8'0' .                 RBA
 019304 40                          8761  1 04-RPLVS +           DC    B'01000000'                                     @G40AKSL
 019305 00                          8762  1 04-RPLVS +           DC    AL1(0)                   ACTIVE INDICATOR
 019306 0000                        8763  1 04-RPLVS +           DC    AL2(0)       .           MAXIMUM ERROR MSG LENGTH
 019308 00000000                    8764  1 04-RPLVS +           DC    A(0) .                   RESERVED FOR MESSAGE AREA PTR
                                    8765  1          +
 01930C 00019314                    8807  1 04-IDACB +IDA1970A   DC    A(*+8)                  ADDRESS OF HEADER
 019310 80019324                    8808  1 04-IDACB +           DC    A(IDA1970A+24+X'80000000')   ADDRESS OF LAST ELEMENT
 019314 A0                          8809  1 04-IDACB +           DC    AL1(160)                BLOCK TYPE CODE
 019315 04                          8810  1 04-IDACB +           DC    AL1(4)                  FUNCTION TYPE CODE
1GLOB     (GLOB5139) (12:46) (15MAR04) WYLBUR's Global Control Blocks                                                       Page   94
0Current Usings:  (CP,R11) (CV,R12)
0Loc    Object Code    Addr1 Addr2  Stmt Lv Lineno    Source Statement           (Hibal 5, Asmedit 3.3)  HLASM R4.0  2004/03/15 12.46
+___    ______ ____    _____ _____  ____ __ ______    ______ _________
0019316 0000                        8811  1 04-IDACB +           DC    AL2(0)                   HEADER FIELD VALUE
 019318 00019274                    8812  1 04-IDACB +           DC    AL4(SUBACB7)                 HEADER FIELD VALUE
 01931C 00000000                    8813  1 04-IDACB +           DC    AL4(0)                   HEADER FIELD VALUE
 019320 00000000                    8814  1 04-IDACB +           DC    AL4(0)                   HEADER FIELD VALUE
 019324 001D                        8815  1 04-IDACB +           DC    AL2(29)                    ELEMENT ID
 019326 0000                        8816  1 04-IDACB +           DC    AL2(0)                  RESERVED                    @LQC
 019328 80000000                    8817  1 04-IDACBC+           DC    B'10000000000000000000000000000000'
                                          1          +                                         ELEMENT VALUE
 01932C 00019338                    8851  1 04-IDACB +IDA2011A   DC    A(*+12)                 ADDRESS OF HEADER
 019330 00019340                    8852  1 04-IDACB +           DC    A(IDA2011A+20)          ELEMENT ADDRESS
 019334 80019348                    8853  1 04-IDACB +           DC    A(IDA2011A+28+X'80000000')   ADDRESS OF LAST ELEMENT
 019338 C0                          8854  1 04-IDACB +           DC    AL1(192)                BLOCK TYPE CODE
 019339 02                          8855  1 04-IDACB +           DC    AL1(2)                  FUNCTION TYPE CODE
 01933A 0000                        8856  1 04-IDACB +           DC    AL2(0)                   HEADER FIELD VALUE
 01933C 000192C0                    8857  1 04-IDACB +           DC    AL4(SUBRPL7)                 HEADER FIELD VALUE
 019340 002C                        8858  1 04-IDACB +           DC    AL2(44)                    ELEMENT ID
 019342 0000                        8859  1 04-IDACB +           DC    AL2(0)                  RESERVED                    @LQC
 019344 00000000                    8860  1 04-IDACB +           DC    A(0)                    ELEMENT VALUE
 019348 0035                        8861  1 04-IDACB +           DC    AL2(53)                    ELEMENT ID
 01934A 0000                        8862  1 04-IDACB +           DC    AL2(0)                  RESERVED                    @LQC
 01934C 00000000                    8863  1 04-IDACB +           DC    A(0)                    ELEMENT VALUE
                                    8864  1          +
 019350 0000                        8865  1 02-SUBRS +           DC    H'0'                Current buffer length
 019352                             8866  1 02-SUBRS +           DS    XL16384             Working buffer
                                    8867  1          +
 01D354                             8868  1 02-SUBRS +           DS    0F
 01D354                             8871  1 04-LABEL +SUB8       DS    0H
 01D354 0000016000019238            8872  1 03-RSCHD +           DC    A(SUB9),A(SUB7)
 01D35C 0000000000000000            8873  1 03-RSCHD +           DC    A(0),A(0),A(0)
 01D368 00                          8874  1 03-RSCHD +           DC    X'00'
 01D36C                             8875  1 03-RSCHD +           DS    0F
 01D36C D1C5E2D9C4D9F840            8876  1 02-SUBRS +           DC    CL8'JESRDR8'
                                    8877  1          +
 01D374 00000000                    8878  1 02-SUBRS +           DC    A(0)                Submit subtask TCB ptr
                                    8879  1          +
 01D378 00000000                    8880  1 02-SUBRS +           DC    A(0)                Termination ECB
 01D37C 00000000                    8881  1 02-SUBRS +           DC    A(0)                Subtask's ECB
                                    8882  1          +
 01D380 0001D354                    8883  1 02-SUBRS +           DC    A(SUB8)             Address of this resource
                                    8884  1          +*                                    used for attach param list
                                    8885  1          +*
 01D384                             8886  1 02-SUBRS +           DS    CL8                 Work cell
                                    8887  1          +
 01D38C 00                          8888  1 02-SUBRS +           DC    X'00'               Flag byte
                                    8889  1          +
 01D38D 00                                1          +
 01D38E 0000                        8890  1 02-SUBRS +           DC    H'0'                Jobno of job just submitted
                                    8891  1          +
 01D390                             8902  1 04-ACBVS +SUBACB8    DS    0F
 01D390 A0                          8903  1 04-ACBVS +           DC    X'A0' .                  ACB IDENTIFICATION
 01D391 10                          8904  1 04-ACBVS +           DC    AL1(16)                  ACB SUBTYPE             X04SVHS
 01D392 004C                        8905  1 04-ACBVS +           DC    AL2(76+0)         .      ACB LENGTH             X03004HS
 01D394 00000000                    8906  1 04-ACBVS +           DC    A(0) .                   AMB LIST POINTER
 01D398 00000000                    8907  1 04-ACBVS +           DC    A(0) .                   INTERFACE ROUTINE POINTER
1GLOB     (GLOB5139) (12:46) (15MAR04) WYLBUR's Global Control Blocks                                                       Page   95
0Current Usings:  (CP,R11) (CV,R12)
0Loc    Object Code    Addr1 Addr2  Stmt Lv Lineno    Source Statement           (Hibal 5, Asmedit 3.3)  HLASM R4.0  2004/03/15 12.46
+___    ______ ____    _____ _____  ____ __ ______    ______ _________
001D39C 92                          8908  1 04-ACBVS +           DC    B'10010010'              MACRF(1)                X04SVHS
 01D39D 00                          8909  1 04-ACBVS +           DC    B'00000000'              MACRF(2)                X04SVHS
                                    8910  1          +*                                       FOR NUMERIC IN PARENS  @YA41534
 01D39E 00                          8911  1 04-ACBVS +           DC    AL1(0)       .           NO OF CONCURRENT        X04SVHS
                                    8912  1          +*                                       STRINGS FOR AIX PATH    X04SVHS
                                    8913  1          +*                                       FOR NUMERIC IN PARENS  @YA41534
 01D39F 01                          8914  1 04-ACBVS +           DC    AL1(1)      .            NUMBER OF STRINGS       X04SVHS
                                    8915  1          +*                                       FOR NUMERIC IN PARENS  @YA41534
 01D3A0 0001                        8916  1 04-ACBVS +           DC    AL2(1)      .            NUMBER OF DATA BUFFERS
                                    8917  1          +*                                       FOR NUMERIC IN PARENS  @YA41534
 01D3A2 0000                        8918  1 04-ACBVS +           DC    AL2(0)      .            NUMBER OF INDEX BUFFERS
 01D3A4 00                          8919  1 04-ACBVS +           DC    B'00000000'              MACRF(3)                X04SVHS
                                    8920  1          +*                                       FOR NUMERIC IN PARENS  @YA41534
 01D3A5 00                          8921  1 04-ACBVS +           DC    AL1(0)                   SHARED RESOURCE POOL ID    @L1C
 01D3A6 0000                        8922  1 04-ACBVS +           DC    AL2(0) .                 JES BUFFER POOL/NUMBER  X04SVHS
                                    8923  1          +*                                       OF JOURNAL BUFFERS
 01D3A8 80                          8924  1 04-ACBVS +           DC    X'80' .                  RECFM=A
 01D3A9 00                          8925  1 04-ACBVS +           DC    B'00000000'              READ INTEGRITY OPTIONS     @L2C
 01D3AA 0008                        8926  1 04-ACBVS +           DC    X'0008' .                DSORG=ACB
 01D3AC 00000000                    8927  1 04-ACBVS +           DC    A(0)                                             X04SVHS
 01D3B0 00000000                    8928  1 04-ACBVS +           DC    A(0)       .             PASSWORD POINTER
 01D3B4 00000000                    8929  1 04-ACBVS +           DC    A(0)      .              EXIT LIST POINTER
 01D3B8 D1C5E2D9C4D9F840            8930  1 04-ACBVS +           DC    CL8'JESRDR8' .           DDNAME
 01D3C0 02                          8931  1 04-ACBVS +           DC    B'00000010'              OFLAGS                     @LPC
 01D3C1 00                          8932  1 04-ACBVS +           DC    AL1(0) .                 ERFLAGS
 01D3C2 00                          8933  1 04-ACBVS +           DC    B'00000000'              INFLGS(1)               X04SVHS
 01D3C3 00                          8934  1 04-ACBVS +           DC    B'00000000'              INFLGS(2)               X04SVHS
 01D3C4 00000000                    8935  1 04-ACBVS +           DC    A(0)     .               OPENJ JFCB POINTER
 01D3C8 00004000                    8936  1 04-ACBVS +           DC    A(16384)                 BUFFER SPACE
 01D3CC 0000                        8937  1 04-ACBVS +           DC    AL2(0)        .          BLOCK SIZE
 01D3CE 0000                        8938  1 04-ACBVS +           DC    AL2(0)      .            RECORD SIZE
 01D3D0 00000000                    8939  1 04-ACBVS +           DC    A(0) .                   USER WORKAREA POINTER
 01D3D4 00000000                    8940  1 04-ACBVS +           DC    A(0)                     CONTROL BLOCK MANIPULATION
                                    8941  1          +*                                       WORKAREA POINTER
 01D3D8 00000000                    8942  1 04-ACBVS +           DC    A(0) .                   PTR TO APPLICATION NAME  X03004
 01D3DC                             8945  1 04-RPLVS +SUBRPL8    DS    0F
 01D3DC 00                          8946  1 04-RPLVS +           DC    AL1(0)                   RPL IDENTIFICATION
 01D3DD 10                          8947  1 04-RPLVS +           DC    AL1(16)                  RPL SUBTYPE             X04SVHS
 01D3DE 00                          8948  1 04-RPLVS +           DC    AL1(0)                   RPL REQUEST TYPE
 01D3DF 4C                          8949  1 04-RPLVS +           DC    AL1(76)                  RPL LENGTH               X03004
 01D3E0 00000000                    8975  1 04-RPLVS +           DC    A(0) .                   POINTER TO PLACEHOLDER
 01D3E4 00000000                    8976  1 04-RPLVS +           DC    A(0) .                   ECB
 01D3E8 00                          8977  1 04-RPLVS +           DC    BL1'0' .                 STATUS BYTE
 01D3E9 000000                      8978  1 04-RPLVS +           DC    XL3'0'                   FEEDBACK CODES
 01D3EC 0000                        8979  1 04-RPLVS +           DC    AL2(0)       .           KEY LENGTH
 01D3EE 0000                        8980  1 04-RPLVS +           DC    AL2(0)        .          TRANSID                    @LAC
 01D3F0 00000000                    8981  1 04-RPLVS +           DC    A(0)                     POINTER TO CONTROL CHARACTER
 01D3F4 0001D390                    8982  1 04-RPLVSC+           DC    A(SUBACB8)
                                          1          +                         .                POINTER TO ACB
 01D3F8 00000000                    8983  1 04-RPLVS +           DC    A(0) .                   POINTER TO TCB
 01D3FC 00000000                    8984  1 04-RPLVS +           DC    A(0)     .               POINTER TO RECORD AREA
 01D400 00000000                    8985  1 04-RPLVS +           DC    A(0)    .                POINTER TO ARGUMENT
 01D404 20                          8986  1 04-RPLVS +           DC    B'00100000'     .        OPTCD BYTE 1
 01D405 80                          8987  1 04-RPLVSC+           DC    B'10000000'
1GLOB     (GLOB5139) (12:46) (15MAR04) WYLBUR's Global Control Blocks                                                       Page   96
0Current Usings:  (CP,R11) (CV,R12)
0Loc    Object Code    Addr1 Addr2  Stmt Lv Lineno    Source Statement           (Hibal 5, Asmedit 3.3)  HLASM R4.0  2004/03/15 12.46
+___    ______ ____    _____ _____  ____ __ ______    ______ _________
0                                         1          +                            .            OPTCD BYTE 2
 01D406 00                          8988  1 04-RPLVS +           DC    B'00000000'              OPTCD BYTE 3               @LAC
 01D407 00                          8989  1 04-RPLVS +           DC    B'00000000'              OPTCD BYTE 4               @EAC
 01D408 00000000                    8990  1 04-RPLVS +           DC    A(0)       .             POINTER TO NEXT RPL
 01D40C 00000000                    8991  1 04-RPLVS +           DC    A(0) .                   RESERVED FOR LOGICAL REC LEN
 01D410 00004000                    8992  1 04-RPLVS +           DC    A(16384)    .            BUFFER LENGTH
                                    8993  1          +*                                       OPTCD BYTES 5-8          X03004
 01D414 00                          8994  1 04-RPLVSC+           DC    B'00000000'
                                          1          +                            .            BYTE 5                  X04SVHS
 01D415 00                          8995  1 04-RPLVSC+           DC    B'00000000'
                                          1          +                            .            BYTE 6                  X04SVHS
 01D416 00                          8996  1 04-RPLVSC+           DC    B'00000000'
                                          1          +                            .            BYTE 7                  X04SVHS
 01D417 00                          8997  1 04-RPLVSC+           DC    B'00000000'
                                          1          +                            .            BYTE 8                  X04SVHS
 01D418 0000000000000000            8998  1 04-RPLVS +           DC    XL8'0' .                 RBA
 01D420 40                          8999  1 04-RPLVS +           DC    B'01000000'                                     @G40AKSL
 01D421 00                          9000  1 04-RPLVS +           DC    AL1(0)                   ACTIVE INDICATOR
 01D422 0000                        9001  1 04-RPLVS +           DC    AL2(0)       .           MAXIMUM ERROR MSG LENGTH
 01D424 00000000                    9002  1 04-RPLVS +           DC    A(0) .                   RESERVED FOR MESSAGE AREA PTR
                                    9003  1          +
 01D428 0001D430                    9045  1 04-IDACB +IDA2083A   DC    A(*+8)                  ADDRESS OF HEADER
 01D42C 8001D440                    9046  1 04-IDACB +           DC    A(IDA2083A+24+X'80000000')   ADDRESS OF LAST ELEMENT
 01D430 A0                          9047  1 04-IDACB +           DC    AL1(160)                BLOCK TYPE CODE
 01D431 04                          9048  1 04-IDACB +           DC    AL1(4)                  FUNCTION TYPE CODE
 01D432 0000                        9049  1 04-IDACB +           DC    AL2(0)                   HEADER FIELD VALUE
 01D434 0001D390                    9050  1 04-IDACB +           DC    AL4(SUBACB8)                 HEADER FIELD VALUE
 01D438 00000000                    9051  1 04-IDACB +           DC    AL4(0)                   HEADER FIELD VALUE
 01D43C 00000000                    9052  1 04-IDACB +           DC    AL4(0)                   HEADER FIELD VALUE
 01D440 001D                        9053  1 04-IDACB +           DC    AL2(29)                    ELEMENT ID
 01D442 0000                        9054  1 04-IDACB +           DC    AL2(0)                  RESERVED                    @LQC
 01D444 80000000                    9055  1 04-IDACBC+           DC    B'10000000000000000000000000000000'
                                          1          +                                         ELEMENT VALUE
 01D448 0001D454                    9089  1 04-IDACB +IDA2124A   DC    A(*+12)                 ADDRESS OF HEADER
 01D44C 0001D45C                    9090  1 04-IDACB +           DC    A(IDA2124A+20)          ELEMENT ADDRESS
 01D450 8001D464                    9091  1 04-IDACB +           DC    A(IDA2124A+28+X'80000000')   ADDRESS OF LAST ELEMENT
 01D454 C0                          9092  1 04-IDACB +           DC    AL1(192)                BLOCK TYPE CODE
 01D455 02                          9093  1 04-IDACB +           DC    AL1(2)                  FUNCTION TYPE CODE
 01D456 0000                        9094  1 04-IDACB +           DC    AL2(0)                   HEADER FIELD VALUE
 01D458 0001D3DC                    9095  1 04-IDACB +           DC    AL4(SUBRPL8)                 HEADER FIELD VALUE
 01D45C 002C                        9096  1 04-IDACB +           DC    AL2(44)                    ELEMENT ID
 01D45E 0000                        9097  1 04-IDACB +           DC    AL2(0)                  RESERVED                    @LQC
 01D460 00000000                    9098  1 04-IDACB +           DC    A(0)                    ELEMENT VALUE
 01D464 0035                        9099  1 04-IDACB +           DC    AL2(53)                    ELEMENT ID
 01D466 0000                        9100  1 04-IDACB +           DC    AL2(0)                  RESERVED                    @LQC
 01D468 00000000                    9101  1 04-IDACB +           DC    A(0)                    ELEMENT VALUE
                                    9102  1          +
 01D46C 0000                        9103  1 02-SUBRS +           DC    H'0'                Current buffer length
 01D46E                             9104  1 02-SUBRS +           DS    XL16384             Working buffer
                                    9105  1          +
 021470                00000 22B50  9106    02-SUBRS +         DS    0F
-                                   9114                       RSC   (HASP,HCM),NUMBER=&JESCMD
1GLOB     (GLOB5139) (12:46) (15MAR04) WYLBUR's Global Control Blocks                                                       Page   97
0Current Usings:  (CP,R11) (CV,R12)
0Loc    Object Code    Addr1 Addr2  Stmt Lv Lineno    Source Statement           (Hibal 5, Asmedit 3.3)  HLASM R4.0  2004/03/15 12.46
+___    ______ ____    _____ _____  ____ __ ______    ______ _________
0000180                             9115    01-01179 +         DS    0F
                                    9116    01-01185 +         ENTRY HCMRSG
 000180 C8C1E2D740404040            9117    01-01186 +HCMRSG   DC    CL8'HASP',A(0),Y(15),A(0)
 000194 0000019400000194            9118    01-01187 +         DC    A(*,*-4)            Active queue link ptrs
 00019C 0002147000021A20            9119    01-01188 +         DC    A(HCMFRST,HCMLAST)    free queue link ptrs
 0001A4 0000000000000000            9120    01-01189 +         DC    A(0),A(0),A(0)
 0001B0 000001B0000001B0            9121    01-01190 +         DC    A(*-(JCBQF-JCB),*-(JCBQB-JCB))  jcb queue link ptrs
 0001B8 00000000                    9122    01-01191 +         DC    XL(L'RSCGROUP-(*-HCMRSG))'0'
 0001BC                             9123    01-01193 +         DS    0SL2(7-CVRHCM,CVRHCM-7)            id's should match
                                    9124             +
 021470                0096C 22B50  9126    02-DATA  +$$$D0WYLGLOB LOCTR
 021470                00000 00068  9130  1 01-01201 +           DS    0D
 000000 00000000                    9142  2 03-RSCHD +HCM@NEXT       DC    A(0)              next resource on queue
 000004 00000000                    9143  2 03-RSCHD +HCM@PREV       DC    A(0)              previous resource on queue
 000008 00000000                    9144  2 03-RSCHD +HCM@JCB        DC    A(0)              address of owning jcb
 00000C 00000000                    9145  2 03-RSCHD +HCM$ECB        DC    A(0)              resource ecb
 000010 00000000                    9146  2 03-RSCHD +HCM#USE        DC    A(0)              no. of uses of resource
 000014 00                          9147  2          +*
 HCMFLAGS.HCM1ACTV 80 ONES
 HCMFLAGS.HCM1@ECB 40 ONES
 HCMFLAGS.HCM1ASYN 20 ONES
 000018                             9167  2 03-RSCHD +             DS    0F
 000018                             9169  2 03-PATH  +HCMPATH      DC    0F'0'
 000018                             9170  2 03-PATH  +HCMP         DC    0F'0'
 000018 00000000                    9172  2 04-DEFIN +HCMPMGC      DC    AL4(0)
 00001C 00000000                    9174  2 04-DEFIN +HCMPDJNM     DC    AL4(0)
 000020 E2E4C2E2E8E2E3D4            9176  2 04-DEFIN +HCMPMY       DC    CL8'SUBSYSTM'
 000028 C8C1E2D7C3D6D5E2            9178  2 04-DEFIN +HCMPYOU      DC    CL8'HASPCONS'
 000030 A0                          9180  2 04-DEFIN +HCMPMFL      DC    AL1(1*X'80'+0*X'40'+1*X'20')
                                    9181  2          +
                                    9182  2 03-PATH  +HCMPVER2      EQU  X'80'         CALLER IS USING VERSION 2
                                    9183  2 03-PATH  +HCMPMCTL      EQU  X'40'         CALLER ASKS TERMINATION CONTROL
                                    9184  2 03-PATH  +HCMPMNAM      EQU  X'20'         CALLER PROVIDES CALLEE NAME
                                    9185  2 03-PATH  +HCMPMDP1      EQU  X'10'         DUPLICATE TAGS FOUND: MY=PCBO, YOU=PCBA
                                    9186  2 03-PATH  +HCMPMDP2      EQU  X'08'         DUPLICATE TAGS FOUND: MY=PCBA, YOU=PCBO
                                    9187  2          +
 000031 000000                      9189  2 04-DEFIN +HCMPOECB     DC    AL3(0)
 000034 00000000                    9191  2 04-DEFIN +HCMPBUF      DC    AL4(0)
 000038 00000051                    9193  2 04-DEFIN +HCMPECBF     DC    AL4(HCMSFLG)
                                    9194  2          +
                                    9195  2 03-PATH  +HCMPFCLS      EQU   X'80'         I AM POSTED BECAUSE HE CLOSED
                                    9196  2 03-PATH  +HCMPFFQE      EQU   X'40'         I AM POSTED BECAUSE HIS FULL Q EMPTIED
                                    9197  2 03-PATH  +HCMPFNI       EQU   X'20'         I AM POSTED BECAUSE NEW INFO IN MY Q
                                    9198  2 03-PATH  +HCMPFDP       EQU   X'10'         I AM POSTED AT HIS DISCRETION
                                    9199  2 03-PATH  +HCMPFOPN      EQU   X'08'         I AM POSTED BECAUSE HE OPENED
                                    9200  2 03-PATH  +HCMPFCLC      EQU   X'04'         I AM POSTED BECAUSE MY CLOSE IS COMPLETE
                                    9201  2          +
 00003C C8E7C3C9                    9203  2 04-DEFIN +HCMPPASS     DC    CL4'HXCI'
 000040 0000000C                    9205  2 04-DEFIN +HCMPECB      DC    AL4(HCM$ECB)
 000044 00000000                    9207  2 04-DEFIN +HCMPEXIT     DC    AL4(0)
 000048 00000000                    9209  2 04-DEFIN +HCMPPINP     DC    XL4'0'
 00004C 00000000                    9211  2 04-DEFIN +HCMPRESV     DC    XL4'0'
                                    9212  2          +*
                                    9213  2          +*  VERSION 2 RETURN CODES
1GLOB     (GLOB5139) (12:46) (15MAR04) WYLBUR's Global Control Blocks                                                       Page   98
0Current Usings:  (CP,R11) (CV,R12)
0Loc    Object Code    Addr1 Addr2  Stmt Lv Lineno    Source Statement           (Hibal 5, Asmedit 3.3)  HLASM R4.0  2004/03/15 12.46
+___    ______ ____    _____ _____  ____ __ ______    ______ _________
0                                   9214  2          +*
                                    9215  2 03-PATH  +HCMPROK       EQU  0                       COMPLETE OK
                                    9216  2 03-PATH  +HCMPRIFC      EQU  4                       INVALID FUNCTION CODE
                                    9217  2 03-PATH  +HCMPRPMW      EQU  8                       INVALID PATH MAGIC WORD
                                    9218  2 03-PATH  +HCMPRBAF      EQU  12                      PARTNER'S BUFFER AREA FULL
                                    9219  2 03-PATH  +HCMPRNOP      EQU  16                      PARTNER NOT THERE
                                    9220  2 03-PATH  +HCMPRBOM      EQU  20                      BUFFER OVER PARTNER'S MAXIMUM
                                    9221  2 03-PATH  +HCMPRIBS      EQU  24                      RECEIVE BUFFER TOO SMALL
                                    9222  2 03-PATH  +HCMPRBPI      EQU  28                      INVALID BUFFER POINTER
                                    9223  2 03-PATH  +HCMPRIAD      EQU  32                      INVALID ADDRESS
                                    9224  2 03-PATH  +HCMPRES1      EQU  36                      RESERVED
                                    9225  2 03-PATH  +HCMPRES2      EQU  40                      RESERVED
                                    9226  2 03-PATH  +HCMPRES3      EQU  44                      RESERVED
                                    9227  2 03-PATH  +HCMPRES4      EQU  48                      RESERVED
                                    9228  2          +
                                    9229  2 03-PATH  +HCMPSIZE      EQU  *-HCMP        LENGTH OF PATH BLOCK
 000050 00                          9230  2 02-HCMRS +HCMFLG       DC    X'00'               Local copy of Suzan flag
 000051 00                          9231  2 02-HCMRS +HCMSFLG      DC    X'00'               Flag for Suzan post info
 000052 00                          9232  2 02-HCMRS +             DC    X'00'               Zero for MVC mask
 000053 00                          9233  2          +*
 HCMWFLG.HCMFOPN   80 ONES
 HCMWFLG.HCMFPND   40 ONES
 HCMWFLG.HCMFSENT  20 ONES
                                    9253  2          +*
 000058                             9254  2 02-HCMRS +HCMPTRS      DS    0D
 000058                             9255  2 02-HCMRS +HCMLOC       DS    F          [Order]  Location of text in suzan buf
 00005C                             9256  2 02-HCMRS +HCMLEN       DS    F          [Order]  Length of text in suzan buf
 000060                             9257  2 02-HCMRS +HCMINDEX     DS    H                   Index into fetch buffer
                                    9258  2 02-HCMRS +HCMWA        EQU   HCMPTRS,*-HCMPTRS,C'X'
 000068                00068 00068  9259  1 02-HCMRS +           DS    0D
                                    9269  1 02-HCMRS +HCMFRST    EQU   HCM1
                                    9270  1 02-HCMRS +HCMLAST    EQU   HCM15
                                    9271  1 02-HCMRSC+HCM0       EQU   HCMRSG+(RSGQFRFW-RSCGROUP)
                                          1          +                                     Links in resource group
                                    9272  1 02-HCMRSC+HCM16      EQU   HCMRSG+(RSGQFRFW-RSCGROUP)
                                          1          +                                     Links in resource group
 021470                             9275  1 04-LABEL +HCM1       DS    0H
 021470 000214D80000019C            9276  1 03-RSCHD +           DC    A(HCM2),A(HCM0)
 021478 0000000000000000            9277  1 03-RSCHD +           DC    A(0),A(0),A(0)
 021484 00                          9278  1 03-RSCHD +           DC    X'00'
 021488                             9279  1 03-RSCHD +           DS    0F
 021488                             9281  1 03-PATH  +HCMPATH1   DC    0F'0'
 021488                             9282  1 03-PATH  +           DC    0F'0'
 021488 00000000                    9284  1 04-DEFIN +           DC    AL4(0)
 02148C 00000000                    9286  1 04-DEFIN +           DC    AL4(0)
 021490 6F40404040404040            9288  1 04-DEFIN +           DC    CL8'?'
 021498 C8C1E2D7C3D6D5E2            9290  1 04-DEFIN +           DC    CL8'HASPCONS'
 0214A0 A0                          9292  1 04-DEFIN +           DC    AL1(1*X'80'+0*X'40'+1*X'20')
 0214A1 000000                      9294  1 04-DEFIN +           DC    AL3(0)
 0214A4 00000000                    9296  1 04-DEFIN +           DC    AL4(0)
 0214A8 000214C1                    9298  1 04-DEFIN +           DC    AL4(HCMSFLG1)
 0214AC C8E7C3C9                    9300  1 04-DEFIN +           DC    CL4'HXCI'
 0214B0 0002147C                    9302  1 04-DEFIN +           DC    AL4((HCM1+(HCM$ECB-HCMRSC)))
 0214B4 00000000                    9304  1 04-DEFIN +           DC    AL4(0)
1GLOB     (GLOB5139) (12:46) (15MAR04) WYLBUR's Global Control Blocks                                                       Page   99
0Current Usings:  (CP,R11) (CV,R12)
0Loc    Object Code    Addr1 Addr2  Stmt Lv Lineno    Source Statement           (Hibal 5, Asmedit 3.3)  HLASM R4.0  2004/03/15 12.46
+___    ______ ____    _____ _____  ____ __ ______    ______ _________
00214B8 00000000                    9306  1 04-DEFIN +           DC    XL4'0'
 0214BC 00000000                    9308  1 04-DEFIN +           DC    XL4'0'
 0214C0 00                          9310  1 03-GEN   +           DC    X'00'
 0214C1 00                          9311  1 03-GEN   +HCMSFLG1   DC    X'00'
 0214C2 00                          9312  1 03-GEN   +           DC    X'00'
 0214C3 00                          9313  1 02-HCMRS +           DC    X'00'               WYLBUR path flags
 0214C8                             9314  1 02-HCMRS +           DS    0D
 0214C8                             9315  1 02-HCMRS +           DS    (L'HCMWA)X          Path work area
 0214D8                             9316  1 02-HCMRS +           DS    0D
 0214D8                             9319  1 04-LABEL +HCM2       DS    0H
 0214D8 0002154000021470            9320  1 03-RSCHD +           DC    A(HCM3),A(HCM1)
 0214E0 0000000000000000            9321  1 03-RSCHD +           DC    A(0),A(0),A(0)
 0214EC 00                          9322  1 03-RSCHD +           DC    X'00'
 0214F0                             9323  1 03-RSCHD +           DS    0F
 0214F0                             9325  1 03-PATH  +HCMPATH2   DC    0F'0'
 0214F0                             9326  1 03-PATH  +           DC    0F'0'
 0214F0 00000000                    9328  1 04-DEFIN +           DC    AL4(0)
 0214F4 00000000                    9330  1 04-DEFIN +           DC    AL4(0)
 0214F8 6F40404040404040            9332  1 04-DEFIN +           DC    CL8'?'
 021500 C8C1E2D7C3D6D5E2            9334  1 04-DEFIN +           DC    CL8'HASPCONS'
 021508 A0                          9336  1 04-DEFIN +           DC    AL1(1*X'80'+0*X'40'+1*X'20')
 021509 000000                      9338  1 04-DEFIN +           DC    AL3(0)
 02150C 00000000                    9340  1 04-DEFIN +           DC    AL4(0)
 021510 00021529                    9342  1 04-DEFIN +           DC    AL4(HCMSFLG2)
 021514 C8E7C3C9                    9344  1 04-DEFIN +           DC    CL4'HXCI'
 021518 000214E4                    9346  1 04-DEFIN +           DC    AL4((HCM2+(HCM$ECB-HCMRSC)))
 02151C 00000000                    9348  1 04-DEFIN +           DC    AL4(0)
 021520 00000000                    9350  1 04-DEFIN +           DC    XL4'0'
 021524 00000000                    9352  1 04-DEFIN +           DC    XL4'0'
 021528 00                          9354  1 03-GEN   +           DC    X'00'
 021529 00                          9355  1 03-GEN   +HCMSFLG2   DC    X'00'
 02152A 00                          9356  1 03-GEN   +           DC    X'00'
 02152B 00                          9357  1 02-HCMRS +           DC    X'00'               WYLBUR path flags
 021530                             9358  1 02-HCMRS +           DS    0D
 021530                             9359  1 02-HCMRS +           DS    (L'HCMWA)X          Path work area
 021540                             9360  1 02-HCMRS +           DS    0D
 021540                             9363  1 04-LABEL +HCM3       DS    0H
 021540 000215A8000214D8            9364  1 03-RSCHD +           DC    A(HCM4),A(HCM2)
 021548 0000000000000000            9365  1 03-RSCHD +           DC    A(0),A(0),A(0)
 021554 00                          9366  1 03-RSCHD +           DC    X'00'
 021558                             9367  1 03-RSCHD +           DS    0F
 021558                             9369  1 03-PATH  +HCMPATH3   DC    0F'0'
 021558                             9370  1 03-PATH  +           DC    0F'0'
 021558 00000000                    9372  1 04-DEFIN +           DC    AL4(0)
 02155C 00000000                    9374  1 04-DEFIN +           DC    AL4(0)
 021560 6F40404040404040            9376  1 04-DEFIN +           DC    CL8'?'
 021568 C8C1E2D7C3D6D5E2            9378  1 04-DEFIN +           DC    CL8'HASPCONS'
 021570 A0                          9380  1 04-DEFIN +           DC    AL1(1*X'80'+0*X'40'+1*X'20')
 021571 000000                      9382  1 04-DEFIN +           DC    AL3(0)
 021574 00000000                    9384  1 04-DEFIN +           DC    AL4(0)
 021578 00021591                    9386  1 04-DEFIN +           DC    AL4(HCMSFLG3)
 02157C C8E7C3C9                    9388  1 04-DEFIN +           DC    CL4'HXCI'
 021580 0002154C                    9390  1 04-DEFIN +           DC    AL4((HCM3+(HCM$ECB-HCMRSC)))
 021584 00000000                    9392  1 04-DEFIN +           DC    AL4(0)
1GLOB     (GLOB5139) (12:46) (15MAR04) WYLBUR's Global Control Blocks                                                       Page  100
0Current Usings:  (CP,R11) (CV,R12)
0Loc    Object Code    Addr1 Addr2  Stmt Lv Lineno    Source Statement           (Hibal 5, Asmedit 3.3)  HLASM R4.0  2004/03/15 12.46
+___    ______ ____    _____ _____  ____ __ ______    ______ _________
0021588 00000000                    9394  1 04-DEFIN +           DC    XL4'0'
 02158C 00000000                    9396  1 04-DEFIN +           DC    XL4'0'
 021590 00                          9398  1 03-GEN   +           DC    X'00'
 021591 00                          9399  1 03-GEN   +HCMSFLG3   DC    X'00'
 021592 00                          9400  1 03-GEN   +           DC    X'00'
 021593 00                          9401  1 02-HCMRS +           DC    X'00'               WYLBUR path flags
 021598                             9402  1 02-HCMRS +           DS    0D
 021598                             9403  1 02-HCMRS +           DS    (L'HCMWA)X          Path work area
 0215A8                             9404  1 02-HCMRS +           DS    0D
 0215A8                             9407  1 04-LABEL +HCM4       DS    0H
 0215A8 0002161000021540            9408  1 03-RSCHD +           DC    A(HCM5),A(HCM3)
 0215B0 0000000000000000            9409  1 03-RSCHD +           DC    A(0),A(0),A(0)
 0215BC 00                          9410  1 03-RSCHD +           DC    X'00'
 0215C0                             9411  1 03-RSCHD +           DS    0F
 0215C0                             9413  1 03-PATH  +HCMPATH4   DC    0F'0'
 0215C0                             9414  1 03-PATH  +           DC    0F'0'
 0215C0 00000000                    9416  1 04-DEFIN +           DC    AL4(0)
 0215C4 00000000                    9418  1 04-DEFIN +           DC    AL4(0)
 0215C8 6F40404040404040            9420  1 04-DEFIN +           DC    CL8'?'
 0215D0 C8C1E2D7C3D6D5E2            9422  1 04-DEFIN +           DC    CL8'HASPCONS'
 0215D8 A0                          9424  1 04-DEFIN +           DC    AL1(1*X'80'+0*X'40'+1*X'20')
 0215D9 000000                      9426  1 04-DEFIN +           DC    AL3(0)
 0215DC 00000000                    9428  1 04-DEFIN +           DC    AL4(0)
 0215E0 000215F9                    9430  1 04-DEFIN +           DC    AL4(HCMSFLG4)
 0215E4 C8E7C3C9                    9432  1 04-DEFIN +           DC    CL4'HXCI'
 0215E8 000215B4                    9434  1 04-DEFIN +           DC    AL4((HCM4+(HCM$ECB-HCMRSC)))
 0215EC 00000000                    9436  1 04-DEFIN +           DC    AL4(0)
 0215F0 00000000                    9438  1 04-DEFIN +           DC    XL4'0'
 0215F4 00000000                    9440  1 04-DEFIN +           DC    XL4'0'
 0215F8 00                          9442  1 03-GEN   +           DC    X'00'
 0215F9 00                          9443  1 03-GEN   +HCMSFLG4   DC    X'00'
 0215FA 00                          9444  1 03-GEN   +           DC    X'00'
 0215FB 00                          9445  1 02-HCMRS +           DC    X'00'               WYLBUR path flags
 021600                             9446  1 02-HCMRS +           DS    0D
 021600                             9447  1 02-HCMRS +           DS    (L'HCMWA)X          Path work area
 021610                             9448  1 02-HCMRS +           DS    0D
 021610                             9451  1 04-LABEL +HCM5       DS    0H
 021610 00021678000215A8            9452  1 03-RSCHD +           DC    A(HCM6),A(HCM4)
 021618 0000000000000000            9453  1 03-RSCHD +           DC    A(0),A(0),A(0)
 021624 00                          9454  1 03-RSCHD +           DC    X'00'
 021628                             9455  1 03-RSCHD +           DS    0F
 021628                             9457  1 03-PATH  +HCMPATH5   DC    0F'0'
 021628                             9458  1 03-PATH  +           DC    0F'0'
 021628 00000000                    9460  1 04-DEFIN +           DC    AL4(0)
 02162C 00000000                    9462  1 04-DEFIN +           DC    AL4(0)
 021630 6F40404040404040            9464  1 04-DEFIN +           DC    CL8'?'
 021638 C8C1E2D7C3D6D5E2            9466  1 04-DEFIN +           DC    CL8'HASPCONS'
 021640 A0                          9468  1 04-DEFIN +           DC    AL1(1*X'80'+0*X'40'+1*X'20')
 021641 000000                      9470  1 04-DEFIN +           DC    AL3(0)
 021644 00000000                    9472  1 04-DEFIN +           DC    AL4(0)
 021648 00021661                    9474  1 04-DEFIN +           DC    AL4(HCMSFLG5)
 02164C C8E7C3C9                    9476  1 04-DEFIN +           DC    CL4'HXCI'
 021650 0002161C                    9478  1 04-DEFIN +           DC    AL4((HCM5+(HCM$ECB-HCMRSC)))
 021654 00000000                    9480  1 04-DEFIN +           DC    AL4(0)
1GLOB     (GLOB5139) (12:46) (15MAR04) WYLBUR's Global Control Blocks                                                       Page  101
0Current Usings:  (CP,R11) (CV,R12)
0Loc    Object Code    Addr1 Addr2  Stmt Lv Lineno    Source Statement           (Hibal 5, Asmedit 3.3)  HLASM R4.0  2004/03/15 12.46
+___    ______ ____    _____ _____  ____ __ ______    ______ _________
0021658 00000000                    9482  1 04-DEFIN +           DC    XL4'0'
 02165C 00000000                    9484  1 04-DEFIN +           DC    XL4'0'
 021660 00                          9486  1 03-GEN   +           DC    X'00'
 021661 00                          9487  1 03-GEN   +HCMSFLG5   DC    X'00'
 021662 00                          9488  1 03-GEN   +           DC    X'00'
 021663 00                          9489  1 02-HCMRS +           DC    X'00'               WYLBUR path flags
 021668                             9490  1 02-HCMRS +           DS    0D
 021668                             9491  1 02-HCMRS +           DS    (L'HCMWA)X          Path work area
 021678                             9492  1 02-HCMRS +           DS    0D
 021678                             9495  1 04-LABEL +HCM6       DS    0H
 021678 000216E000021610            9496  1 03-RSCHD +           DC    A(HCM7),A(HCM5)
 021680 0000000000000000            9497  1 03-RSCHD +           DC    A(0),A(0),A(0)
 02168C 00                          9498  1 03-RSCHD +           DC    X'00'
 021690                             9499  1 03-RSCHD +           DS    0F
 021690                             9501  1 03-PATH  +HCMPATH6   DC    0F'0'
 021690                             9502  1 03-PATH  +           DC    0F'0'
 021690 00000000                    9504  1 04-DEFIN +           DC    AL4(0)
 021694 00000000                    9506  1 04-DEFIN +           DC    AL4(0)
 021698 6F40404040404040            9508  1 04-DEFIN +           DC    CL8'?'
 0216A0 C8C1E2D7C3D6D5E2            9510  1 04-DEFIN +           DC    CL8'HASPCONS'
 0216A8 A0                          9512  1 04-DEFIN +           DC    AL1(1*X'80'+0*X'40'+1*X'20')
 0216A9 000000                      9514  1 04-DEFIN +           DC    AL3(0)
 0216AC 00000000                    9516  1 04-DEFIN +           DC    AL4(0)
 0216B0 000216C9                    9518  1 04-DEFIN +           DC    AL4(HCMSFLG6)
 0216B4 C8E7C3C9                    9520  1 04-DEFIN +           DC    CL4'HXCI'
 0216B8 00021684                    9522  1 04-DEFIN +           DC    AL4((HCM6+(HCM$ECB-HCMRSC)))
 0216BC 00000000                    9524  1 04-DEFIN +           DC    AL4(0)
 0216C0 00000000                    9526  1 04-DEFIN +           DC    XL4'0'
 0216C4 00000000                    9528  1 04-DEFIN +           DC    XL4'0'
 0216C8 00                          9530  1 03-GEN   +           DC    X'00'
 0216C9 00                          9531  1 03-GEN   +HCMSFLG6   DC    X'00'
 0216CA 00                          9532  1 03-GEN   +           DC    X'00'
 0216CB 00                          9533  1 02-HCMRS +           DC    X'00'               WYLBUR path flags
 0216D0                             9534  1 02-HCMRS +           DS    0D
 0216D0                             9535  1 02-HCMRS +           DS    (L'HCMWA)X          Path work area
 0216E0                             9536  1 02-HCMRS +           DS    0D
 0216E0                             9539  1 04-LABEL +HCM7       DS    0H
 0216E0 0002174800021678            9540  1 03-RSCHD +           DC    A(HCM8),A(HCM6)
 0216E8 0000000000000000            9541  1 03-RSCHD +           DC    A(0),A(0),A(0)
 0216F4 00                          9542  1 03-RSCHD +           DC    X'00'
 0216F8                             9543  1 03-RSCHD +           DS    0F
 0216F8                             9545  1 03-PATH  +HCMPATH7   DC    0F'0'
 0216F8                             9546  1 03-PATH  +           DC    0F'0'
 0216F8 00000000                    9548  1 04-DEFIN +           DC    AL4(0)
 0216FC 00000000                    9550  1 04-DEFIN +           DC    AL4(0)
 021700 6F40404040404040            9552  1 04-DEFIN +           DC    CL8'?'
 021708 C8C1E2D7C3D6D5E2            9554  1 04-DEFIN +           DC    CL8'HASPCONS'
 021710 A0                          9556  1 04-DEFIN +           DC    AL1(1*X'80'+0*X'40'+1*X'20')
 021711 000000                      9558  1 04-DEFIN +           DC    AL3(0)
 021714 00000000                    9560  1 04-DEFIN +           DC    AL4(0)
 021718 00021731                    9562  1 04-DEFIN +           DC    AL4(HCMSFLG7)
 02171C C8E7C3C9                    9564  1 04-DEFIN +           DC    CL4'HXCI'
 021720 000216EC                    9566  1 04-DEFIN +           DC    AL4((HCM7+(HCM$ECB-HCMRSC)))
 021724 00000000                    9568  1 04-DEFIN +           DC    AL4(0)
1GLOB     (GLOB5139) (12:46) (15MAR04) WYLBUR's Global Control Blocks                                                       Page  102
0Current Usings:  (CP,R11) (CV,R12)
0Loc    Object Code    Addr1 Addr2  Stmt Lv Lineno    Source Statement           (Hibal 5, Asmedit 3.3)  HLASM R4.0  2004/03/15 12.46
+___    ______ ____    _____ _____  ____ __ ______    ______ _________
0021728 00000000                    9570  1 04-DEFIN +           DC    XL4'0'
 02172C 00000000                    9572  1 04-DEFIN +           DC    XL4'0'
 021730 00                          9574  1 03-GEN   +           DC    X'00'
 021731 00                          9575  1 03-GEN   +HCMSFLG7   DC    X'00'
 021732 00                          9576  1 03-GEN   +           DC    X'00'
 021733 00                          9577  1 02-HCMRS +           DC    X'00'               WYLBUR path flags
 021738                             9578  1 02-HCMRS +           DS    0D
 021738                             9579  1 02-HCMRS +           DS    (L'HCMWA)X          Path work area
 021748                             9580  1 02-HCMRS +           DS    0D
 021748                             9583  1 04-LABEL +HCM8       DS    0H
 021748 000217B0000216E0            9584  1 03-RSCHD +           DC    A(HCM9),A(HCM7)
 021750 0000000000000000            9585  1 03-RSCHD +           DC    A(0),A(0),A(0)
 02175C 00                          9586  1 03-RSCHD +           DC    X'00'
 021760                             9587  1 03-RSCHD +           DS    0F
 021760                             9589  1 03-PATH  +HCMPATH8   DC    0F'0'
 021760                             9590  1 03-PATH  +           DC    0F'0'
 021760 00000000                    9592  1 04-DEFIN +           DC    AL4(0)
 021764 00000000                    9594  1 04-DEFIN +           DC    AL4(0)
 021768 6F40404040404040            9596  1 04-DEFIN +           DC    CL8'?'
 021770 C8C1E2D7C3D6D5E2            9598  1 04-DEFIN +           DC    CL8'HASPCONS'
 021778 A0                          9600  1 04-DEFIN +           DC    AL1(1*X'80'+0*X'40'+1*X'20')
 021779 000000                      9602  1 04-DEFIN +           DC    AL3(0)
 02177C 00000000                    9604  1 04-DEFIN +           DC    AL4(0)
 021780 00021799                    9606  1 04-DEFIN +           DC    AL4(HCMSFLG8)
 021784 C8E7C3C9                    9608  1 04-DEFIN +           DC    CL4'HXCI'
 021788 00021754                    9610  1 04-DEFIN +           DC    AL4((HCM8+(HCM$ECB-HCMRSC)))
 02178C 00000000                    9612  1 04-DEFIN +           DC    AL4(0)
 021790 00000000                    9614  1 04-DEFIN +           DC    XL4'0'
 021794 00000000                    9616  1 04-DEFIN +           DC    XL4'0'
 021798 00                          9618  1 03-GEN   +           DC    X'00'
 021799 00                          9619  1 03-GEN   +HCMSFLG8   DC    X'00'
 02179A 00                          9620  1 03-GEN   +           DC    X'00'
 02179B 00                          9621  1 02-HCMRS +           DC    X'00'               WYLBUR path flags
 0217A0                             9622  1 02-HCMRS +           DS    0D
 0217A0                             9623  1 02-HCMRS +           DS    (L'HCMWA)X          Path work area
 0217B0                             9624  1 02-HCMRS +           DS    0D
 0217B0                             9627  1 04-LABEL +HCM9       DS    0H
 0217B0 0002181800021748            9628  1 03-RSCHD +           DC    A(HCM10),A(HCM8)
 0217B8 0000000000000000            9629  1 03-RSCHD +           DC    A(0),A(0),A(0)
 0217C4 00                          9630  1 03-RSCHD +           DC    X'00'
 0217C8                             9631  1 03-RSCHD +           DS    0F
 0217C8                             9633  1 03-PATH  +HCMPATH9   DC    0F'0'
 0217C8                             9634  1 03-PATH  +           DC    0F'0'
 0217C8 00000000                    9636  1 04-DEFIN +           DC    AL4(0)
 0217CC 00000000                    9638  1 04-DEFIN +           DC    AL4(0)
 0217D0 6F40404040404040            9640  1 04-DEFIN +           DC    CL8'?'
 0217D8 C8C1E2D7C3D6D5E2            9642  1 04-DEFIN +           DC    CL8'HASPCONS'
 0217E0 A0                          9644  1 04-DEFIN +           DC    AL1(1*X'80'+0*X'40'+1*X'20')
 0217E1 000000                      9646  1 04-DEFIN +           DC    AL3(0)
 0217E4 00000000                    9648  1 04-DEFIN +           DC    AL4(0)
 0217E8 00021801                    9650  1 04-DEFIN +           DC    AL4(HCMSFLG9)
 0217EC C8E7C3C9                    9652  1 04-DEFIN +           DC    CL4'HXCI'
 0217F0 000217BC                    9654  1 04-DEFIN +           DC    AL4((HCM9+(HCM$ECB-HCMRSC)))
 0217F4 00000000                    9656  1 04-DEFIN +           DC    AL4(0)
1GLOB     (GLOB5139) (12:46) (15MAR04) WYLBUR's Global Control Blocks                                                       Page  103
0Current Usings:  (CP,R11) (CV,R12)
0Loc    Object Code    Addr1 Addr2  Stmt Lv Lineno    Source Statement           (Hibal 5, Asmedit 3.3)  HLASM R4.0  2004/03/15 12.46
+___    ______ ____    _____ _____  ____ __ ______    ______ _________
00217F8 00000000                    9658  1 04-DEFIN +           DC    XL4'0'
 0217FC 00000000                    9660  1 04-DEFIN +           DC    XL4'0'
 021800 00                          9662  1 03-GEN   +           DC    X'00'
 021801 00                          9663  1 03-GEN   +HCMSFLG9   DC    X'00'
 021802 00                          9664  1 03-GEN   +           DC    X'00'
 021803 00                          9665  1 02-HCMRS +           DC    X'00'               WYLBUR path flags
 021808                             9666  1 02-HCMRS +           DS    0D
 021808                             9667  1 02-HCMRS +           DS    (L'HCMWA)X          Path work area
 021818                             9668  1 02-HCMRS +           DS    0D
 021818                             9671  1 04-LABEL +HCM10      DS    0H
 021818 00021880000217B0            9672  1 03-RSCHD +           DC    A(HCM11),A(HCM9)
 021820 0000000000000000            9673  1 03-RSCHD +           DC    A(0),A(0),A(0)
 02182C 00                          9674  1 03-RSCHD +           DC    X'00'
 021830                             9675  1 03-RSCHD +           DS    0F
 021830                             9677  1 03-PATH  +HCMPATH10   DC   0F'0'
 021830                             9678  1 03-PATH  +           DC    0F'0'
 021830 00000000                    9680  1 04-DEFIN +           DC    AL4(0)
 021834 00000000                    9682  1 04-DEFIN +           DC    AL4(0)
 021838 6F40404040404040            9684  1 04-DEFIN +           DC    CL8'?'
 021840 C8C1E2D7C3D6D5E2            9686  1 04-DEFIN +           DC    CL8'HASPCONS'
 021848 A0                          9688  1 04-DEFIN +           DC    AL1(1*X'80'+0*X'40'+1*X'20')
 021849 000000                      9690  1 04-DEFIN +           DC    AL3(0)
 02184C 00000000                    9692  1 04-DEFIN +           DC    AL4(0)
 021850 00021869                    9694  1 04-DEFIN +           DC    AL4(HCMSFLG10)
 021854 C8E7C3C9                    9696  1 04-DEFIN +           DC    CL4'HXCI'
 021858 00021824                    9698  1 04-DEFIN +           DC    AL4((HCM10+(HCM$ECB-HCMRSC)))
 02185C 00000000                    9700  1 04-DEFIN +           DC    AL4(0)
 021860 00000000                    9702  1 04-DEFIN +           DC    XL4'0'
 021864 00000000                    9704  1 04-DEFIN +           DC    XL4'0'
 021868 00                          9706  1 03-GEN   +           DC    X'00'
 021869 00                          9707  1 03-GEN   +HCMSFLG10   DC   X'00'
 02186A 00                          9708  1 03-GEN   +           DC    X'00'
 02186B 00                          9709  1 02-HCMRS +           DC    X'00'               WYLBUR path flags
 021870                             9710  1 02-HCMRS +           DS    0D
 021870                             9711  1 02-HCMRS +           DS    (L'HCMWA)X          Path work area
 021880                             9712  1 02-HCMRS +           DS    0D
 021880                             9715  1 04-LABEL +HCM11      DS    0H
 021880 000218E800021818            9716  1 03-RSCHD +           DC    A(HCM12),A(HCM10)
 021888 0000000000000000            9717  1 03-RSCHD +           DC    A(0),A(0),A(0)
 021894 00                          9718  1 03-RSCHD +           DC    X'00'
 021898                             9719  1 03-RSCHD +           DS    0F
 021898                             9721  1 03-PATH  +HCMPATH11   DC   0F'0'
 021898                             9722  1 03-PATH  +           DC    0F'0'
 021898 00000000                    9724  1 04-DEFIN +           DC    AL4(0)
 02189C 00000000                    9726  1 04-DEFIN +           DC    AL4(0)
 0218A0 6F40404040404040            9728  1 04-DEFIN +           DC    CL8'?'
 0218A8 C8C1E2D7C3D6D5E2            9730  1 04-DEFIN +           DC    CL8'HASPCONS'
 0218B0 A0                          9732  1 04-DEFIN +           DC    AL1(1*X'80'+0*X'40'+1*X'20')
 0218B1 000000                      9734  1 04-DEFIN +           DC    AL3(0)
 0218B4 00000000                    9736  1 04-DEFIN +           DC    AL4(0)
 0218B8 000218D1                    9738  1 04-DEFIN +           DC    AL4(HCMSFLG11)
 0218BC C8E7C3C9                    9740  1 04-DEFIN +           DC    CL4'HXCI'
 0218C0 0002188C                    9742  1 04-DEFIN +           DC    AL4((HCM11+(HCM$ECB-HCMRSC)))
 0218C4 00000000                    9744  1 04-DEFIN +           DC    AL4(0)
1GLOB     (GLOB5139) (12:46) (15MAR04) WYLBUR's Global Control Blocks                                                       Page  104
0Current Usings:  (CP,R11) (CV,R12)
0Loc    Object Code    Addr1 Addr2  Stmt Lv Lineno    Source Statement           (Hibal 5, Asmedit 3.3)  HLASM R4.0  2004/03/15 12.46
+___    ______ ____    _____ _____  ____ __ ______    ______ _________
00218C8 00000000                    9746  1 04-DEFIN +           DC    XL4'0'
 0218CC 00000000                    9748  1 04-DEFIN +           DC    XL4'0'
 0218D0 00                          9750  1 03-GEN   +           DC    X'00'
 0218D1 00                          9751  1 03-GEN   +HCMSFLG11   DC   X'00'
 0218D2 00                          9752  1 03-GEN   +           DC    X'00'
 0218D3 00                          9753  1 02-HCMRS +           DC    X'00'               WYLBUR path flags
 0218D8                             9754  1 02-HCMRS +           DS    0D
 0218D8                             9755  1 02-HCMRS +           DS    (L'HCMWA)X          Path work area
 0218E8                             9756  1 02-HCMRS +           DS    0D
 0218E8                             9759  1 04-LABEL +HCM12      DS    0H
 0218E8 0002195000021880            9760  1 03-RSCHD +           DC    A(HCM13),A(HCM11)
 0218F0 0000000000000000            9761  1 03-RSCHD +           DC    A(0),A(0),A(0)
 0218FC 00                          9762  1 03-RSCHD +           DC    X'00'
 021900                             9763  1 03-RSCHD +           DS    0F
 021900                             9765  1 03-PATH  +HCMPATH12   DC   0F'0'
 021900                             9766  1 03-PATH  +           DC    0F'0'
 021900 00000000                    9768  1 04-DEFIN +           DC    AL4(0)
 021904 00000000                    9770  1 04-DEFIN +           DC    AL4(0)
 021908 6F40404040404040            9772  1 04-DEFIN +           DC    CL8'?'
 021910 C8C1E2D7C3D6D5E2            9774  1 04-DEFIN +           DC    CL8'HASPCONS'
 021918 A0                          9776  1 04-DEFIN +           DC    AL1(1*X'80'+0*X'40'+1*X'20')
 021919 000000                      9778  1 04-DEFIN +           DC    AL3(0)
 02191C 00000000                    9780  1 04-DEFIN +           DC    AL4(0)
 021920 00021939                    9782  1 04-DEFIN +           DC    AL4(HCMSFLG12)
 021924 C8E7C3C9                    9784  1 04-DEFIN +           DC    CL4'HXCI'
 021928 000218F4                    9786  1 04-DEFIN +           DC    AL4((HCM12+(HCM$ECB-HCMRSC)))
 02192C 00000000                    9788  1 04-DEFIN +           DC    AL4(0)
 021930 00000000                    9790  1 04-DEFIN +           DC    XL4'0'
 021934 00000000                    9792  1 04-DEFIN +           DC    XL4'0'
 021938 00                          9794  1 03-GEN   +           DC    X'00'
 021939 00                          9795  1 03-GEN   +HCMSFLG12   DC   X'00'
 02193A 00                          9796  1 03-GEN   +           DC    X'00'
 02193B 00                          9797  1 02-HCMRS +           DC    X'00'               WYLBUR path flags
 021940                             9798  1 02-HCMRS +           DS    0D
 021940                             9799  1 02-HCMRS +           DS    (L'HCMWA)X          Path work area
 021950                             9800  1 02-HCMRS +           DS    0D
 021950                             9803  1 04-LABEL +HCM13      DS    0H
 021950 000219B8000218E8            9804  1 03-RSCHD +           DC    A(HCM14),A(HCM12)
 021958 0000000000000000            9805  1 03-RSCHD +           DC    A(0),A(0),A(0)
 021964 00                          9806  1 03-RSCHD +           DC    X'00'
 021968                             9807  1 03-RSCHD +           DS    0F
 021968                             9809  1 03-PATH  +HCMPATH13   DC   0F'0'
 021968                             9810  1 03-PATH  +           DC    0F'0'
 021968 00000000                    9812  1 04-DEFIN +           DC    AL4(0)
 02196C 00000000                    9814  1 04-DEFIN +           DC    AL4(0)
 021970 6F40404040404040            9816  1 04-DEFIN +           DC    CL8'?'
 021978 C8C1E2D7C3D6D5E2            9818  1 04-DEFIN +           DC    CL8'HASPCONS'
 021980 A0                          9820  1 04-DEFIN +           DC    AL1(1*X'80'+0*X'40'+1*X'20')
 021981 000000                      9822  1 04-DEFIN +           DC    AL3(0)
 021984 00000000                    9824  1 04-DEFIN +           DC    AL4(0)
 021988 000219A1                    9826  1 04-DEFIN +           DC    AL4(HCMSFLG13)
 02198C C8E7C3C9                    9828  1 04-DEFIN +           DC    CL4'HXCI'
 021990 0002195C                    9830  1 04-DEFIN +           DC    AL4((HCM13+(HCM$ECB-HCMRSC)))
 021994 00000000                    9832  1 04-DEFIN +           DC    AL4(0)
1GLOB     (GLOB5139) (12:46) (15MAR04) WYLBUR's Global Control Blocks                                                       Page  105
0Current Usings:  (CP,R11) (CV,R12)
0Loc    Object Code    Addr1 Addr2  Stmt Lv Lineno    Source Statement           (Hibal 5, Asmedit 3.3)  HLASM R4.0  2004/03/15 12.46
+___    ______ ____    _____ _____  ____ __ ______    ______ _________
0021998 00000000                    9834  1 04-DEFIN +           DC    XL4'0'
 02199C 00000000                    9836  1 04-DEFIN +           DC    XL4'0'
 0219A0 00                          9838  1 03-GEN   +           DC    X'00'
 0219A1 00                          9839  1 03-GEN   +HCMSFLG13   DC   X'00'
 0219A2 00                          9840  1 03-GEN   +           DC    X'00'
 0219A3 00                          9841  1 02-HCMRS +           DC    X'00'               WYLBUR path flags
 0219A8                             9842  1 02-HCMRS +           DS    0D
 0219A8                             9843  1 02-HCMRS +           DS    (L'HCMWA)X          Path work area
 0219B8                             9844  1 02-HCMRS +           DS    0D
 0219B8                             9847  1 04-LABEL +HCM14      DS    0H
 0219B8 00021A2000021950            9848  1 03-RSCHD +           DC    A(HCM15),A(HCM13)
 0219C0 0000000000000000            9849  1 03-RSCHD +           DC    A(0),A(0),A(0)
 0219CC 00                          9850  1 03-RSCHD +           DC    X'00'
 0219D0                             9851  1 03-RSCHD +           DS    0F
 0219D0                             9853  1 03-PATH  +HCMPATH14   DC   0F'0'
 0219D0                             9854  1 03-PATH  +           DC    0F'0'
 0219D0 00000000                    9856  1 04-DEFIN +           DC    AL4(0)
 0219D4 00000000                    9858  1 04-DEFIN +           DC    AL4(0)
 0219D8 6F40404040404040            9860  1 04-DEFIN +           DC    CL8'?'
 0219E0 C8C1E2D7C3D6D5E2            9862  1 04-DEFIN +           DC    CL8'HASPCONS'
 0219E8 A0                          9864  1 04-DEFIN +           DC    AL1(1*X'80'+0*X'40'+1*X'20')
 0219E9 000000                      9866  1 04-DEFIN +           DC    AL3(0)
 0219EC 00000000                    9868  1 04-DEFIN +           DC    AL4(0)
 0219F0 00021A09                    9870  1 04-DEFIN +           DC    AL4(HCMSFLG14)
 0219F4 C8E7C3C9                    9872  1 04-DEFIN +           DC    CL4'HXCI'
 0219F8 000219C4                    9874  1 04-DEFIN +           DC    AL4((HCM14+(HCM$ECB-HCMRSC)))
 0219FC 00000000                    9876  1 04-DEFIN +           DC    AL4(0)
 021A00 00000000                    9878  1 04-DEFIN +           DC    XL4'0'
 021A04 00000000                    9880  1 04-DEFIN +           DC    XL4'0'
 021A08 00                          9882  1 03-GEN   +           DC    X'00'
 021A09 00                          9883  1 03-GEN   +HCMSFLG14   DC   X'00'
 021A0A 00                          9884  1 03-GEN   +           DC    X'00'
 021A0B 00                          9885  1 02-HCMRS +           DC    X'00'               WYLBUR path flags
 021A10                             9886  1 02-HCMRS +           DS    0D
 021A10                             9887  1 02-HCMRS +           DS    (L'HCMWA)X          Path work area
 021A20                             9888  1 02-HCMRS +           DS    0D
 021A20                             9891  1 04-LABEL +HCM15      DS    0H
 021A20 0000019C000219B8            9892  1 03-RSCHD +           DC    A(HCM16),A(HCM14)
 021A28 0000000000000000            9893  1 03-RSCHD +           DC    A(0),A(0),A(0)
 021A34 00                          9894  1 03-RSCHD +           DC    X'00'
 021A38                             9895  1 03-RSCHD +           DS    0F
 021A38                             9897  1 03-PATH  +HCMPATH15   DC   0F'0'
 021A38                             9898  1 03-PATH  +           DC    0F'0'
 021A38 00000000                    9900  1 04-DEFIN +           DC    AL4(0)
 021A3C 00000000                    9902  1 04-DEFIN +           DC    AL4(0)
 021A40 6F40404040404040            9904  1 04-DEFIN +           DC    CL8'?'
 021A48 C8C1E2D7C3D6D5E2            9906  1 04-DEFIN +           DC    CL8'HASPCONS'
 021A50 A0                          9908  1 04-DEFIN +           DC    AL1(1*X'80'+0*X'40'+1*X'20')
 021A51 000000                      9910  1 04-DEFIN +           DC    AL3(0)
 021A54 00000000                    9912  1 04-DEFIN +           DC    AL4(0)
 021A58 00021A71                    9914  1 04-DEFIN +           DC    AL4(HCMSFLG15)
 021A5C C8E7C3C9                    9916  1 04-DEFIN +           DC    CL4'HXCI'
 021A60 00021A2C                    9918  1 04-DEFIN +           DC    AL4((HCM15+(HCM$ECB-HCMRSC)))
 021A64 00000000                    9920  1 04-DEFIN +           DC    AL4(0)
1GLOB     (GLOB5139) (12:46) (15MAR04) WYLBUR's Global Control Blocks                                                       Page  106
0Current Usings:  (CP,R11) (CV,R12)
0Loc    Object Code    Addr1 Addr2  Stmt Lv Lineno    Source Statement           (Hibal 5, Asmedit 3.3)  HLASM R4.0  2004/03/15 12.46
+___    ______ ____    _____ _____  ____ __ ______    ______ _________
0021A68 00000000                    9922  1 04-DEFIN +           DC    XL4'0'
 021A6C 00000000                    9924  1 04-DEFIN +           DC    XL4'0'
 021A70 00                          9926  1 03-GEN   +           DC    X'00'
 021A71 00                          9927  1 03-GEN   +HCMSFLG15   DC   X'00'
 021A72 00                          9928  1 03-GEN   +           DC    X'00'
 021A73 00                          9929  1 02-HCMRS +           DC    X'00'               WYLBUR path flags
 021A78                             9930  1 02-HCMRS +           DS    0D
 021A78                             9931  1 02-HCMRS +           DS    (L'HCMWA)X          Path work area
 021A88                00000 22B50  9932    02-HCMRS +         DS    0D
-                                   9940              LASTRSG  RSC   KEYS,NUMBER=1
 0001BC                             9941    01-01179 +LASTRSG  DS    0F
                                    9942    01-01185 +         ENTRY KEYRSG
 0001BC D2C5E8E240404040            9943    01-01186 +KEYRSG   DC    CL8'KEYS',A(0),Y(1),A(0)
 0001D0 000001D0000001D0            9944    01-01187 +         DC    A(*,*-4)            Active queue link ptrs
 0001D8 00021A8800021A88            9945    01-01188 +         DC    A(KEYFRST,KEYLAST)    free queue link ptrs
 0001E0 0000000000000000            9946    01-01189 +         DC    A(0),A(0),A(0)
 0001EC 000001EC000001EC            9947    01-01190 +         DC    A(*-(JCBQF-JCB),*-(JCBQB-JCB))  jcb queue link ptrs
 0001F4 00000000                    9948    01-01191 +         DC    XL(L'RSCGROUP-(*-KEYRSG))'0'
 0001F8                             9949    01-01193 +         DS    0SL2(8-CVRKEY,CVRKEY-8)            id's should match
                                    9950             +
 021A88                0096C 22B50  9952    02-DATA  +$$$D0WYLGLOB LOCTR
 021A88                             9956  1 01-01201 +           DS    0D
 021A88                             9958  1 02-KEYRS +KEYFRST    DS    0F
 021A88                             9959  1 02-KEYRS +KEYLAST    DS    0F
                                    9960  1          +
 021A88 000001D8000001D8            9963  1 03-RSCHDC+           DC    A(KEYRSG+(RSGQFRFW-RSCGROUP)),A(KEYRSG+(RSGQFRFW-RSCGROU
                                          1          +                 P))
 021A90 0000000000000000            9964  1 03-RSCHD +           DC    A(0),A(0),A(0)
 021A9C 00                          9965  1 03-RSCHD +           DC    X'00'
 021AA0                00000 22B50  9966    03-RSCHD +         DS    0F
1GLOB     (GLOB5139) (12:46) (15MAR04) WYLBUR's Global Control Blocks                                                       Page  107
0Current Usings:  (CP,R11) (CV,R12)
0Loc    Object Code    Addr1 Addr2  Stmt Lv Lineno    Source Statement           (Hibal 5, Asmedit 3.3)  HLASM R4.0  2004/03/15 12.46
+___    ______ ____    _____ _____  ____ __ ______    ______ _________
0                                   9975              ¿þþþþþþþþþþþþþþþþþþþþþþþþþþþþþþþþþþþþþþþþþþþþþþþþþþþþþþþþþþþþþþþþþþþþþÜ
                                    9976              Ÿ                                                                     Ÿ
                                    9977              Ÿ  Page File Control Blocks (PFCBs)                                   Ÿ
                                    9978              Ÿ                                                                     Ÿ
                                                      ¾þþþþþþþþþþþþþþþþþþþþþþþþþþþþþþþþþþþþþþþþþþþþþþþþþþþþþþþþþþþþþþþþþþþþþ»
0000000                00000 000A4  9979              PFCB     RECORD BEGIN
                                    9987  1                      COPY  PFCB
 000000                             9988  1          =PFCBSTRT   DS    0F                  Page File Control Block, 7/86
 000000 D7C6C3C2                    9989  1          =PFCBID     DC    C'PFCB'             Self identification
 000004 00000000                    9990  1          =PFCBNO     DC    F'0'                PFCB number
 000008 00000000                    9991  1          =PFCBNP     DC    A(0)                No. of pages
 00000C 00000000                    9992  1          =PFCBMP     DC    A(0)                Max. pages used
 000010 00000000                    9993  1          =PFCBCP     DC    A(0)                Current pages used
 000014 00000000                    9994  1          =PFCBRPT    DC    A(0)                Records/track
 000018 00000000                    9995  1          =PFCBUCBP   DC    A(0)                UCB ptr
 00001C 00000000                    9996  1          =PFCBFPNO   DC    F'0'                First pageno in this PFCB
 000020 00000000                    9997  1          =PFCBAPQH   DC    A(0)                Available PT entry queue head
 000024 FFFFFFFFFFFFFFFF            9998  1          =           DC    3F'-1'
                                    9999  1          =
 000030 00000000                   10000  1          =PFCBNIO    DC    F'0'                No. of I/O's
 000034 0000000000000000           10001  1          =PFCBCLK    DC    XL8'00'             Total I/O wait time
                                   10002  1          =
 00003C 00000000                   10003  1          =PFCBPNIO   DC    F'0'                Previous no. of I/O's
 000040 0000000000000000           10004  1          =PFCBPCLK   DC    XL8'00'             Previous I/O wait time
                                   10005  1          =
 000048 0000                       10006  1          =PFCB#IOS   DC    H'0'                I/O's per second       (Stats)
 00004A                            10007  1          =PFCB#IOT   DS    H'0'                Milliseconds per page  (Stats)
                                   10008  1          =
 00004C FFFFFFFFFFFFFFFF           10009  1          =           DC    3F'-1'              Reserved
                                   10010  1          =
 000058 00                         10011  1          =PFCBFL     FLAG
 PFCBFL.PFCBFGND   80 ONES         10015  1          =           FLAG  PFCBFGND            - End of group
 PFCBFL.PFCBFRPS   40 ONES         10020  1          =           FLAG  PFCBFRPS            - File has RPS
                                   10025  1          =
 000059 000000                     10026  1          =           DC    XL3'00'             Reserved
                                   10027  1          =
                                   10028  1          =PFCBSECM   EQU   19                  Max sector records for RPS
 00005C 0000000000000000           10029  1          =PFCBSECT   DC    (PFCBSECM)X'00'     Define area for sector values
 000070                            10030  1          =PFCBDCBA   DS    0F                  DCB area
                                   10031  1          =PFCBDCB    DCB   DDNAME=PAGE0,MACRF=(E),DEVD=DA,DSORG=DA
0                                  10034  1          +*                       DATA CONTROL BLOCK
                                   10035  1          +*
 000070                            10036  1 01-DCB   +PFCBDCB    DS    0F'0'          ORIGIN ON WORD BOUNDARY
 000070                00070 00074 10037  1 01-DCB   +           ORG   *+4            TO ORIGIN GENERATION
                                   10038  1          +*                       DIRECT ACCESS DEVICE INTERFACE
 000074 0000000000000000           10039  1 01-DCB   +           DC    BL12'0'        FDAD, DVTBL
 000080 00000000                   10040  1 01-DCB   +           DC    A(0)           KEYLEN, DEVT, TRBAL
                                   10041  1          +*                       COMMON ACCESS METHOD INTERFACE
 000084 00                         10042  1 01-DCB   +           DC    AL1(0)         BUFNO, NUMBER OF BUFFERS
 000085 000001                     10043  1 01-DCB   +           DC    AL3(1)         BUFCB, BUFFER POOL CONTROL BLOCK
 000088 0000                       10044  1 01-DCB   +           DC    AL2(0)         BUFL, BUFFER LENGTH
 00008A 2000                       10045  1 01-DCB   +           DC    BL2'0010000000000000' DSORG, DATA SET ORGANIZATION
1GLOB     (GLOB5139) (12:46) (15MAR04) WYLBUR's Global Control Blocks                                                       Page  108
0Current Usings:  (CP,R11) (CV,R12)
0Loc    Object Code    Addr1 Addr2  Stmt Lv Lineno    Source Statement           (Hibal 5, Asmedit 3.3)  HLASM R4.0  2004/03/15 12.46
+___    ______ ____    _____ _____  ____ __ ______    ______ _________
000008C 00000001                   10046  1 01-DCB   +           DC    A(1)           IOBAD FOR EXCP OR RESERVED
                                   10047  1          +*                       FOUNDATION EXTENSION
 000090 00                         10048  1 01-DCB   +           DC    BL1'00000000'  BFTEK, BFALN, DCBE INDICATORS
 000091 000001                     10049  1 01-DCB   +           DC    AL3(1)         EODAD (END OF DATA ROUTINE ADDRESS)
 000094 00                         10050  1 01-DCB   +           DC    BL1'00000000'  RECFM (RECORD FORMAT)
 000095 000000                     10051  1 01-DCB   +           DC    AL3(0)         EXLST (EXIT LIST ADDRESS)
                                   10052  1          +*                       FOUNDATION BLOCK
 000098 D7C1C7C5F0404040           10053  1 01-DCB   +           DC    CL8'PAGE0'     DDNAME
 0000A0 02                         10054  1 01-DCB   +           DC    BL1'00000010'  OFLGS (OPEN FLAGS)
 0000A1 00                         10055  1 01-DCB   +           DC    BL1'00000000'  IFLGS (IOS FLAGS)
 0000A2 D004                       10056  1 01-DCB   +           DC    BL2'1101000000000100' MACR (MACRO FORMAT)
00000A4                            10058  1          =PFCBNEXT   DS    0F
 0000A4                000A4 000A4 10059                       END
1GLOB     (GLOB5139) (12:46) (15MAR04) WYLBUR's Global Control Blocks                                                       Page  109
0Current Usings:  (CP,R11) (CV,R12)
0Loc    Object Code    Addr1 Addr2  Stmt Lv Lineno    Source Statement           (Hibal 5, Asmedit 3.3)  HLASM R4.0  2004/03/15 12.46
+___    ______ ____    _____ _____  ____ __ ______    ______ _________
0                                  10069              FRSTPFCB EQU   PFCB0               First avail PFCB
                                   10070              SECPFCB  EQU   PFCB0               Secondary PFCB's start here
                                   10071
                                   10072                       PAGEFILE &WPG(1),&WPG(2),&WPG(3)
 0001F8 0000000000000000           10073    01-01152 +PFCB0        DC 0F'0',(L'PFCB)X'00'
 00029C                0029C 001FC 10075    02-01172 +         ORG   (PFCBNO)-PFCB+PFCB0
 0001FC 00000000                   10076    01-01154 +         DC    A(0)
 000200                00200 00268 10078    02-01172 +         ORG   (PFCBDCBA)-PFCB+PFCB0
0                                  10082             +*                       DATA CONTROL BLOCK
                                   10083             +*
 000268                            10084    02-DCB   +         DS    0F'0'          ORIGIN ON WORD BOUNDARY
 000268                00268 0026C 10085    02-DCB   +         ORG   *+4            TO ORIGIN GENERATION
                                   10086             +*                       DIRECT ACCESS DEVICE INTERFACE
 00026C 0000000000000000           10087    02-DCB   +         DC    BL12'0'        FDAD, DVTBL
 000278 00000000                   10088    02-DCB   +         DC    A(0)           KEYLEN, DEVT, TRBAL
                                   10089             +*                       COMMON ACCESS METHOD INTERFACE
 00027C 00                         10090    02-DCB   +         DC    AL1(0)         BUFNO, NUMBER OF BUFFERS
 00027D 000001                     10091    02-DCB   +         DC    AL3(1)         BUFCB, BUFFER POOL CONTROL BLOCK
 000280 0000                       10092    02-DCB   +         DC    AL2(0)         BUFL, BUFFER LENGTH
 000282 2000                       10093    02-DCB   +         DC    BL2'0010000000000000' DSORG, DATA SET ORGANIZATION
 000284 00000001                   10094    02-DCB   +         DC    A(1)           IOBAD FOR EXCP OR RESERVED
                                   10095             +*                       FOUNDATION EXTENSION
 000288 00                         10096    02-DCB   +         DC    BL1'00000000'  BFTEK, BFALN, DCBE INDICATORS
 000289 000001                     10097    02-DCB   +         DC    AL3(1)         EODAD (END OF DATA ROUTINE ADDRESS)
 00028C 80                         10098    02-DCB   +         DC    BL1'10000000'  RECFM (RECORD FORMAT)
 00028D 000000                     10099    02-DCB   +         DC    AL3(0)         EXLST (EXIT LIST ADDRESS)
                                   10100             +*                       FOUNDATION BLOCK
 000290 D7C1C7C5F0404040           10101    02-DCB   +         DC    CL8'PAGE0'     DDNAME
 000298 02                         10102    02-DCB   +         DC    BL1'00000010'  OFLGS (OPEN FLAGS)
 000299 00                         10103    02-DCB   +         DC    BL1'00000000'  IFLGS (IOS FLAGS)
 00029A D004                       10104    02-DCB   +         DC    BL2'1101000000000100' MACR (MACRO FORMAT)
000029C                0029C 0029C 10106    01-01164 +         ORG
 00029C 0000000000000000           10107    01-01152 +PFCB1        DC 0F'0',(L'PFCB)X'00'
 000340                00340 002A0 10109    02-01172 +         ORG   (PFCBNO)-PFCB+PFCB1
 0002A0 00000001                   10110    01-01154 +         DC    A(1)
 0002A4                002A4 0030C 10112    02-01172 +         ORG   (PFCBDCBA)-PFCB+PFCB1
0                                  10116             +*                       DATA CONTROL BLOCK
                                   10117             +*
 00030C                            10118    02-DCB   +         DS    0F'0'          ORIGIN ON WORD BOUNDARY
 00030C                0030C 00310 10119    02-DCB   +         ORG   *+4            TO ORIGIN GENERATION
                                   10120             +*                       DIRECT ACCESS DEVICE INTERFACE
 000310 0000000000000000           10121    02-DCB   +         DC    BL12'0'        FDAD, DVTBL
 00031C 00000000                   10122    02-DCB   +         DC    A(0)           KEYLEN, DEVT, TRBAL
                                   10123             +*                       COMMON ACCESS METHOD INTERFACE
 000320 00                         10124    02-DCB   +         DC    AL1(0)         BUFNO, NUMBER OF BUFFERS
 000321 000001                     10125    02-DCB   +         DC    AL3(1)         BUFCB, BUFFER POOL CONTROL BLOCK
 000324 0000                       10126    02-DCB   +         DC    AL2(0)         BUFL, BUFFER LENGTH
 000326 2000                       10127    02-DCB   +         DC    BL2'0010000000000000' DSORG, DATA SET ORGANIZATION
 000328 00000001                   10128    02-DCB   +         DC    A(1)           IOBAD FOR EXCP OR RESERVED
                                   10129             +*                       FOUNDATION EXTENSION
 00032C 00                         10130    02-DCB   +         DC    BL1'00000000'  BFTEK, BFALN, DCBE INDICATORS
1GLOB     (GLOB5139) (12:46) (15MAR04) WYLBUR's Global Control Blocks                                                       Page  110
0Current Usings:  (CP,R11) (CV,R12)
0Loc    Object Code    Addr1 Addr2  Stmt Lv Lineno    Source Statement           (Hibal 5, Asmedit 3.3)  HLASM R4.0  2004/03/15 12.46
+___    ______ ____    _____ _____  ____ __ ______    ______ _________
000032D 000001                     10131    02-DCB   +         DC    AL3(1)         EODAD (END OF DATA ROUTINE ADDRESS)
 000330 80                         10132    02-DCB   +         DC    BL1'10000000'  RECFM (RECORD FORMAT)
 000331 000000                     10133    02-DCB   +         DC    AL3(0)         EXLST (EXIT LIST ADDRESS)
                                   10134             +*                       FOUNDATION BLOCK
 000334 D7C1C7C5F1404040           10135    02-DCB   +         DC    CL8'PAGE1'     DDNAME
 00033C 02                         10136    02-DCB   +         DC    BL1'00000010'  OFLGS (OPEN FLAGS)
 00033D 00                         10137    02-DCB   +         DC    BL1'00000000'  IFLGS (IOS FLAGS)
 00033E D004                       10138    02-DCB   +         DC    BL2'1101000000000100' MACR (MACRO FORMAT)
0000340                00340 00340 10140    01-01164 +         ORG
 000340 0000000000000000           10141    01-01152 +PFCB2        DC 0F'0',(L'PFCB)X'00'
 0003E4                003E4 00344 10143    02-01172 +         ORG   (PFCBNO)-PFCB+PFCB2
 000344 00000002                   10144    01-01154 +         DC    A(2)
 000348                00348 00398 10146    02-01172 +         ORG   (PFCBFL)-PFCB+PFCB2
 000398 80                         10147    01-01157 +         DC    AL1(L'PFCBFGND)
 000399                00399 003B0 10149    02-01172 +         ORG   (PFCBDCBA)-PFCB+PFCB2
0                                  10153             +*                       DATA CONTROL BLOCK
                                   10154             +*
 0003B0                            10155    02-DCB   +         DS    0F'0'          ORIGIN ON WORD BOUNDARY
 0003B0                003B0 003B4 10156    02-DCB   +         ORG   *+4            TO ORIGIN GENERATION
                                   10157             +*                       DIRECT ACCESS DEVICE INTERFACE
 0003B4 0000000000000000           10158    02-DCB   +         DC    BL12'0'        FDAD, DVTBL
 0003C0 00000000                   10159    02-DCB   +         DC    A(0)           KEYLEN, DEVT, TRBAL
                                   10160             +*                       COMMON ACCESS METHOD INTERFACE
 0003C4 00                         10161    02-DCB   +         DC    AL1(0)         BUFNO, NUMBER OF BUFFERS
 0003C5 000001                     10162    02-DCB   +         DC    AL3(1)         BUFCB, BUFFER POOL CONTROL BLOCK
 0003C8 0000                       10163    02-DCB   +         DC    AL2(0)         BUFL, BUFFER LENGTH
 0003CA 2000                       10164    02-DCB   +         DC    BL2'0010000000000000' DSORG, DATA SET ORGANIZATION
 0003CC 00000001                   10165    02-DCB   +         DC    A(1)           IOBAD FOR EXCP OR RESERVED
                                   10166             +*                       FOUNDATION EXTENSION
 0003D0 00                         10167    02-DCB   +         DC    BL1'00000000'  BFTEK, BFALN, DCBE INDICATORS
 0003D1 000001                     10168    02-DCB   +         DC    AL3(1)         EODAD (END OF DATA ROUTINE ADDRESS)
 0003D4 80                         10169    02-DCB   +         DC    BL1'10000000'  RECFM (RECORD FORMAT)
 0003D5 000000                     10170    02-DCB   +         DC    AL3(0)         EXLST (EXIT LIST ADDRESS)
                                   10171             +*                       FOUNDATION BLOCK
 0003D8 D7C1C7C5F2404040           10172    02-DCB   +         DC    CL8'PAGE2'     DDNAME
 0003E0 02                         10173    02-DCB   +         DC    BL1'00000010'  OFLGS (OPEN FLAGS)
 0003E1 00                         10174    02-DCB   +         DC    BL1'00000000'  IFLGS (IOS FLAGS)
 0003E2 D004                       10175    02-DCB   +         DC    BL2'1101000000000100' MACR (MACRO FORMAT)
00003E4                003E4 003E4 10177    01-01164 +         ORG
 0003E4 0000000000000000           10178    01-01152 +PFCB3        DC 0F'0',(L'PFCB)X'00'
 000488                00488 003E8 10180    02-01172 +         ORG   (PFCBNO)-PFCB+PFCB3
 0003E8 00000003                   10181    01-01154 +         DC    A(3)
 0003EC                003EC 00454 10183    02-01172 +         ORG   (PFCBDCBA)-PFCB+PFCB3
0                                  10187             +*                       DATA CONTROL BLOCK
                                   10188             +*
 000454                            10189    02-DCB   +         DS    0F'0'          ORIGIN ON WORD BOUNDARY
 000454                00454 00458 10190    02-DCB   +         ORG   *+4            TO ORIGIN GENERATION
                                   10191             +*                       DIRECT ACCESS DEVICE INTERFACE
 000458 0000000000000000           10192    02-DCB   +         DC    BL12'0'        FDAD, DVTBL
 000464 00000000                   10193    02-DCB   +         DC    A(0)           KEYLEN, DEVT, TRBAL
1GLOB     (GLOB5139) (12:46) (15MAR04) WYLBUR's Global Control Blocks                                                       Page  111
0Current Usings:  (CP,R11) (CV,R12)
0Loc    Object Code    Addr1 Addr2  Stmt Lv Lineno    Source Statement           (Hibal 5, Asmedit 3.3)  HLASM R4.0  2004/03/15 12.46
+___    ______ ____    _____ _____  ____ __ ______    ______ _________
0                                  10194             +*                       COMMON ACCESS METHOD INTERFACE
 000468 00                         10195    02-DCB   +         DC    AL1(0)         BUFNO, NUMBER OF BUFFERS
 000469 000001                     10196    02-DCB   +         DC    AL3(1)         BUFCB, BUFFER POOL CONTROL BLOCK
 00046C 0000                       10197    02-DCB   +         DC    AL2(0)         BUFL, BUFFER LENGTH
 00046E 2000                       10198    02-DCB   +         DC    BL2'0010000000000000' DSORG, DATA SET ORGANIZATION
 000470 00000001                   10199    02-DCB   +         DC    A(1)           IOBAD FOR EXCP OR RESERVED
                                   10200             +*                       FOUNDATION EXTENSION
 000474 00                         10201    02-DCB   +         DC    BL1'00000000'  BFTEK, BFALN, DCBE INDICATORS
 000475 000001                     10202    02-DCB   +         DC    AL3(1)         EODAD (END OF DATA ROUTINE ADDRESS)
 000478 80                         10203    02-DCB   +         DC    BL1'10000000'  RECFM (RECORD FORMAT)
 000479 000000                     10204    02-DCB   +         DC    AL3(0)         EXLST (EXIT LIST ADDRESS)
                                   10205             +*                       FOUNDATION BLOCK
 00047C D7C1C7C5F3404040           10206    02-DCB   +         DC    CL8'PAGE3'     DDNAME
 000484 02                         10207    02-DCB   +         DC    BL1'00000010'  OFLGS (OPEN FLAGS)
 000485 00                         10208    02-DCB   +         DC    BL1'00000000'  IFLGS (IOS FLAGS)
 000486 D004                       10209    02-DCB   +         DC    BL2'1101000000000100' MACR (MACRO FORMAT)
0000488                00488 00488 10211    01-01164 +         ORG
 000488 0000000000000000           10212    01-01152 +PFCB4        DC 0F'0',(L'PFCB)X'00'
 00052C                0052C 0048C 10214    02-01172 +         ORG   (PFCBNO)-PFCB+PFCB4
 00048C 00000004                   10215    01-01154 +         DC    A(4)
 000490                00490 004F8 10217    02-01172 +         ORG   (PFCBDCBA)-PFCB+PFCB4
0                                  10221             +*                       DATA CONTROL BLOCK
                                   10222             +*
 0004F8                            10223    02-DCB   +         DS    0F'0'          ORIGIN ON WORD BOUNDARY
 0004F8                004F8 004FC 10224    02-DCB   +         ORG   *+4            TO ORIGIN GENERATION
                                   10225             +*                       DIRECT ACCESS DEVICE INTERFACE
 0004FC 0000000000000000           10226    02-DCB   +         DC    BL12'0'        FDAD, DVTBL
 000508 00000000                   10227    02-DCB   +         DC    A(0)           KEYLEN, DEVT, TRBAL
                                   10228             +*                       COMMON ACCESS METHOD INTERFACE
 00050C 00                         10229    02-DCB   +         DC    AL1(0)         BUFNO, NUMBER OF BUFFERS
 00050D 000001                     10230    02-DCB   +         DC    AL3(1)         BUFCB, BUFFER POOL CONTROL BLOCK
 000510 0000                       10231    02-DCB   +         DC    AL2(0)         BUFL, BUFFER LENGTH
 000512 2000                       10232    02-DCB   +         DC    BL2'0010000000000000' DSORG, DATA SET ORGANIZATION
 000514 00000001                   10233    02-DCB   +         DC    A(1)           IOBAD FOR EXCP OR RESERVED
                                   10234             +*                       FOUNDATION EXTENSION
 000518 00                         10235    02-DCB   +         DC    BL1'00000000'  BFTEK, BFALN, DCBE INDICATORS
 000519 000001                     10236    02-DCB   +         DC    AL3(1)         EODAD (END OF DATA ROUTINE ADDRESS)
 00051C 80                         10237    02-DCB   +         DC    BL1'10000000'  RECFM (RECORD FORMAT)
 00051D 000000                     10238    02-DCB   +         DC    AL3(0)         EXLST (EXIT LIST ADDRESS)
                                   10239             +*                       FOUNDATION BLOCK
 000520 D7C1C7C5F4404040           10240    02-DCB   +         DC    CL8'PAGE4'     DDNAME
 000528 02                         10241    02-DCB   +         DC    BL1'00000010'  OFLGS (OPEN FLAGS)
 000529 00                         10242    02-DCB   +         DC    BL1'00000000'  IFLGS (IOS FLAGS)
 00052A D004                       10243    02-DCB   +         DC    BL2'1101000000000100' MACR (MACRO FORMAT)
000052C                0052C 0052C 10245    01-01164 +         ORG
 00052C 0000000000000000           10246    01-01152 +PFCB5        DC 0F'0',(L'PFCB)X'00'
 0005D0                005D0 00530 10248    02-01172 +         ORG   (PFCBNO)-PFCB+PFCB5
 000530 00000005                   10249    01-01154 +         DC    A(5)
 000534                00534 00584 10251    02-01172 +         ORG   (PFCBFL)-PFCB+PFCB5
 000584 80                         10252    01-01157 +         DC    AL1(L'PFCBFGND)
 000585                00585 0059C 10254    02-01172 +         ORG   (PFCBDCBA)-PFCB+PFCB5
1GLOB     (GLOB5139) (12:46) (15MAR04) WYLBUR's Global Control Blocks                                                       Page  112
0Current Usings:  (CP,R11) (CV,R12)
0Loc    Object Code    Addr1 Addr2  Stmt Lv Lineno    Source Statement           (Hibal 5, Asmedit 3.3)  HLASM R4.0  2004/03/15 12.46
+___    ______ ____    _____ _____  ____ __ ______    ______ _________
0                                  10258             +*                       DATA CONTROL BLOCK
                                   10259             +*
 00059C                            10260    02-DCB   +         DS    0F'0'          ORIGIN ON WORD BOUNDARY
 00059C                0059C 005A0 10261    02-DCB   +         ORG   *+4            TO ORIGIN GENERATION
                                   10262             +*                       DIRECT ACCESS DEVICE INTERFACE
 0005A0 0000000000000000           10263    02-DCB   +         DC    BL12'0'        FDAD, DVTBL
 0005AC 00000000                   10264    02-DCB   +         DC    A(0)           KEYLEN, DEVT, TRBAL
                                   10265             +*                       COMMON ACCESS METHOD INTERFACE
 0005B0 00                         10266    02-DCB   +         DC    AL1(0)         BUFNO, NUMBER OF BUFFERS
 0005B1 000001                     10267    02-DCB   +         DC    AL3(1)         BUFCB, BUFFER POOL CONTROL BLOCK
 0005B4 0000                       10268    02-DCB   +         DC    AL2(0)         BUFL, BUFFER LENGTH
 0005B6 2000                       10269    02-DCB   +         DC    BL2'0010000000000000' DSORG, DATA SET ORGANIZATION
 0005B8 00000001                   10270    02-DCB   +         DC    A(1)           IOBAD FOR EXCP OR RESERVED
                                   10271             +*                       FOUNDATION EXTENSION
 0005BC 00                         10272    02-DCB   +         DC    BL1'00000000'  BFTEK, BFALN, DCBE INDICATORS
 0005BD 000001                     10273    02-DCB   +         DC    AL3(1)         EODAD (END OF DATA ROUTINE ADDRESS)
 0005C0 80                         10274    02-DCB   +         DC    BL1'10000000'  RECFM (RECORD FORMAT)
 0005C1 000000                     10275    02-DCB   +         DC    AL3(0)         EXLST (EXIT LIST ADDRESS)
                                   10276             +*                       FOUNDATION BLOCK
 0005C4 D7C1C7C5F5404040           10277    02-DCB   +         DC    CL8'PAGE5'     DDNAME
 0005CC 02                         10278    02-DCB   +         DC    BL1'00000010'  OFLGS (OPEN FLAGS)
 0005CD 00                         10279    02-DCB   +         DC    BL1'00000000'  IFLGS (IOS FLAGS)
 0005CE D004                       10280    02-DCB   +         DC    BL2'1101000000000100' MACR (MACRO FORMAT)
00005D0                005D0 005D0 10282    01-01164 +         ORG
 0005D0 0000000000000000           10283    01-01152 +PFCB6        DC 0F'0',(L'PFCB)X'00'
 000674                00674 005D4 10285    02-01172 +         ORG   (PFCBNO)-PFCB+PFCB6
 0005D4 00000006                   10286    01-01154 +         DC    A(6)
 0005D8                005D8 00640 10288    02-01172 +         ORG   (PFCBDCBA)-PFCB+PFCB6
0                                  10292             +*                       DATA CONTROL BLOCK
                                   10293             +*
 000640                            10294    02-DCB   +         DS    0F'0'          ORIGIN ON WORD BOUNDARY
 000640                00640 00644 10295    02-DCB   +         ORG   *+4            TO ORIGIN GENERATION
                                   10296             +*                       DIRECT ACCESS DEVICE INTERFACE
 000644 0000000000000000           10297    02-DCB   +         DC    BL12'0'        FDAD, DVTBL
 000650 00000000                   10298    02-DCB   +         DC    A(0)           KEYLEN, DEVT, TRBAL
                                   10299             +*                       COMMON ACCESS METHOD INTERFACE
 000654 00                         10300    02-DCB   +         DC    AL1(0)         BUFNO, NUMBER OF BUFFERS
 000655 000001                     10301    02-DCB   +         DC    AL3(1)         BUFCB, BUFFER POOL CONTROL BLOCK
 000658 0000                       10302    02-DCB   +         DC    AL2(0)         BUFL, BUFFER LENGTH
 00065A 2000                       10303    02-DCB   +         DC    BL2'0010000000000000' DSORG, DATA SET ORGANIZATION
 00065C 00000001                   10304    02-DCB   +         DC    A(1)           IOBAD FOR EXCP OR RESERVED
                                   10305             +*                       FOUNDATION EXTENSION
 000660 00                         10306    02-DCB   +         DC    BL1'00000000'  BFTEK, BFALN, DCBE INDICATORS
 000661 000001                     10307    02-DCB   +         DC    AL3(1)         EODAD (END OF DATA ROUTINE ADDRESS)
 000664 80                         10308    02-DCB   +         DC    BL1'10000000'  RECFM (RECORD FORMAT)
 000665 000000                     10309    02-DCB   +         DC    AL3(0)         EXLST (EXIT LIST ADDRESS)
                                   10310             +*                       FOUNDATION BLOCK
 000668 D7C1C7C5F6404040           10311    02-DCB   +         DC    CL8'PAGE6'     DDNAME
 000670 02                         10312    02-DCB   +         DC    BL1'00000010'  OFLGS (OPEN FLAGS)
 000671 00                         10313    02-DCB   +         DC    BL1'00000000'  IFLGS (IOS FLAGS)
 000672 D004                       10314    02-DCB   +         DC    BL2'1101000000000100' MACR (MACRO FORMAT)
1GLOB     (GLOB5139) (12:46) (15MAR04) WYLBUR's Global Control Blocks                                                       Page  113
0Current Usings:  (CP,R11) (CV,R12)
0Loc    Object Code    Addr1 Addr2  Stmt Lv Lineno    Source Statement           (Hibal 5, Asmedit 3.3)  HLASM R4.0  2004/03/15 12.46
+___    ______ ____    _____ _____  ____ __ ______    ______ _________
0000674                00674 00674 10316    01-01164 +         ORG
 000674 0000000000000000           10317    01-01152 +PFCB7        DC 0F'0',(L'PFCB)X'00'
 000718                00718 00678 10319    02-01172 +         ORG   (PFCBNO)-PFCB+PFCB7
 000678 00000007                   10320    01-01154 +         DC    A(7)
 00067C                0067C 006E4 10322    02-01172 +         ORG   (PFCBDCBA)-PFCB+PFCB7
0                                  10326             +*                       DATA CONTROL BLOCK
                                   10327             +*
 0006E4                            10328    02-DCB   +         DS    0F'0'          ORIGIN ON WORD BOUNDARY
 0006E4                006E4 006E8 10329    02-DCB   +         ORG   *+4            TO ORIGIN GENERATION
                                   10330             +*                       DIRECT ACCESS DEVICE INTERFACE
 0006E8 0000000000000000           10331    02-DCB   +         DC    BL12'0'        FDAD, DVTBL
 0006F4 00000000                   10332    02-DCB   +         DC    A(0)           KEYLEN, DEVT, TRBAL
                                   10333             +*                       COMMON ACCESS METHOD INTERFACE
 0006F8 00                         10334    02-DCB   +         DC    AL1(0)         BUFNO, NUMBER OF BUFFERS
 0006F9 000001                     10335    02-DCB   +         DC    AL3(1)         BUFCB, BUFFER POOL CONTROL BLOCK
 0006FC 0000                       10336    02-DCB   +         DC    AL2(0)         BUFL, BUFFER LENGTH
 0006FE 2000                       10337    02-DCB   +         DC    BL2'0010000000000000' DSORG, DATA SET ORGANIZATION
 000700 00000001                   10338    02-DCB   +         DC    A(1)           IOBAD FOR EXCP OR RESERVED
                                   10339             +*                       FOUNDATION EXTENSION
 000704 00                         10340    02-DCB   +         DC    BL1'00000000'  BFTEK, BFALN, DCBE INDICATORS
 000705 000001                     10341    02-DCB   +         DC    AL3(1)         EODAD (END OF DATA ROUTINE ADDRESS)
 000708 80                         10342    02-DCB   +         DC    BL1'10000000'  RECFM (RECORD FORMAT)
 000709 000000                     10343    02-DCB   +         DC    AL3(0)         EXLST (EXIT LIST ADDRESS)
                                   10344             +*                       FOUNDATION BLOCK
 00070C D7C1C7C5F7404040           10345    02-DCB   +         DC    CL8'PAGE7'     DDNAME
 000714 02                         10346    02-DCB   +         DC    BL1'00000010'  OFLGS (OPEN FLAGS)
 000715 00                         10347    02-DCB   +         DC    BL1'00000000'  IFLGS (IOS FLAGS)
 000716 D004                       10348    02-DCB   +         DC    BL2'1101000000000100' MACR (MACRO FORMAT)
0000718                00718 00718 10350    01-01164 +         ORG
 000718 0000000000000000           10351    01-01152 +PFCB8        DC 0F'0',(L'PFCB)X'00'
 0007BC                007BC 0071C 10353    02-01172 +         ORG   (PFCBNO)-PFCB+PFCB8
 00071C 00000008                   10354    01-01154 +         DC    A(8)
 000720                00720 00770 10356    02-01172 +         ORG   (PFCBFL)-PFCB+PFCB8
 000770 80                         10357    01-01157 +         DC    AL1(L'PFCBFGND)
 000771                00771 00788 10359    02-01172 +         ORG   (PFCBDCBA)-PFCB+PFCB8
0                                  10363             +*                       DATA CONTROL BLOCK
                                   10364             +*
 000788                            10365    02-DCB   +         DS    0F'0'          ORIGIN ON WORD BOUNDARY
 000788                00788 0078C 10366    02-DCB   +         ORG   *+4            TO ORIGIN GENERATION
                                   10367             +*                       DIRECT ACCESS DEVICE INTERFACE
 00078C 0000000000000000           10368    02-DCB   +         DC    BL12'0'        FDAD, DVTBL
 000798 00000000                   10369    02-DCB   +         DC    A(0)           KEYLEN, DEVT, TRBAL
                                   10370             +*                       COMMON ACCESS METHOD INTERFACE
 00079C 00                         10371    02-DCB   +         DC    AL1(0)         BUFNO, NUMBER OF BUFFERS
 00079D 000001                     10372    02-DCB   +         DC    AL3(1)         BUFCB, BUFFER POOL CONTROL BLOCK
 0007A0 0000                       10373    02-DCB   +         DC    AL2(0)         BUFL, BUFFER LENGTH
 0007A2 2000                       10374    02-DCB   +         DC    BL2'0010000000000000' DSORG, DATA SET ORGANIZATION
 0007A4 00000001                   10375    02-DCB   +         DC    A(1)           IOBAD FOR EXCP OR RESERVED
                                   10376             +*                       FOUNDATION EXTENSION
 0007A8 00                         10377    02-DCB   +         DC    BL1'00000000'  BFTEK, BFALN, DCBE INDICATORS
 0007A9 000001                     10378    02-DCB   +         DC    AL3(1)         EODAD (END OF DATA ROUTINE ADDRESS)
1GLOB     (GLOB5139) (12:46) (15MAR04) WYLBUR's Global Control Blocks                                                       Page  114
0Current Usings:  (CP,R11) (CV,R12)
0Loc    Object Code    Addr1 Addr2  Stmt Lv Lineno    Source Statement           (Hibal 5, Asmedit 3.3)  HLASM R4.0  2004/03/15 12.46
+___    ______ ____    _____ _____  ____ __ ______    ______ _________
00007AC 80                         10379    02-DCB   +         DC    BL1'10000000'  RECFM (RECORD FORMAT)
 0007AD 000000                     10380    02-DCB   +         DC    AL3(0)         EXLST (EXIT LIST ADDRESS)
                                   10381             +*                       FOUNDATION BLOCK
 0007B0 D7C1C7C5F8404040           10382    02-DCB   +         DC    CL8'PAGE8'     DDNAME
 0007B8 02                         10383    02-DCB   +         DC    BL1'00000010'  OFLGS (OPEN FLAGS)
 0007B9 00                         10384    02-DCB   +         DC    BL1'00000000'  IFLGS (IOS FLAGS)
 0007BA D004                       10385    02-DCB   +         DC    BL2'1101000000000100' MACR (MACRO FORMAT)
00007BC                007BC 007BC 10387    01-01164 +         ORG
 0007BC                            10388              ENDPFCB  DS    0F
1GLOB     (GLOB5139) (12:46) (15MAR04) WYLBUR's Global Control Blocks                                                       Page  115
0Current Usings:  (CP,R11) (CV,R12)
0Loc    Object Code    Addr1 Addr2  Stmt Lv Lineno    Source Statement           (Hibal 5, Asmedit 3.3)  HLASM R4.0  2004/03/15 12.46
+___    ______ ____    _____ _____  ____ __ ______    ______ _________
0                                  10390              ¿þþþþþþþþþþþþþþþþþþþþþþþþþþþþþþþþþþþþþþþþþþþþþþþþþþþþþþþþþþþþþþþþþþþþþÜ
                                   10391              Ÿ                                                                     Ÿ
                                   10392              Ÿ  Line Control Blocks (JCBs)                                         Ÿ
                                   10393              Ÿ                                                                     Ÿ
                                                      ¾þþþþþþþþþþþþþþþþþþþþþþþþþþþþþþþþþþþþþþþþþþþþþþþþþþþþþþþþþþþþþþþþþþþþþ»
0000000                00000 000D0 10394              JCB      RECORD BEGIN
                                   10402  1                      COPY  JCB
 000000                            10403  1          =JCBSTART   DS    0F
 000000 00000000                   10404  1          =JCBQF      DC    A(0)                Next JCB ptr
 000004 00000000                   10405  1          =JCBQB      DC    A(0)                Previous JCB ptr
                                   10406  1          =
 000008 00000000                   10407  1          =JCBDSPP    DC    A(0)                JCB ptr for next dispatched user
                                   10408  1          =
 00000C 00000000                   10409  1          =JCBTIMID   DC    A(0)                Timer id (if a timer is active)
 000010 00000000                   10410  1          =JCBTIMQL   DC    A(0)                Ptr to next JCB on timer queue
                                   10411  1          =
 000014                            10412  1          =JCBCPX     DS    A                   CP ptr
 000018                            10413  1          =JCBSTKL    DS    A                   Current actual stack length
 00001C                            10414  1          =JCBSTKX    DS    XL8                 Current stack length, location
 000024                            10415  1          =JCBHEAPL   DS    A                   Current actual heap length
 000028                            10416  1          =JCBHEAPX   DS    XL8                 Current heap length, location
                                   10417  1          =
 000030 0000                       10418  1          =JCBNPG     DC    H'0'                Current no. of pages for user
 000032 0000                       10419  1          =JCB#PIO    DC    H'0'                Number of active page I/O's
                                   10420  1          =
                                   10421  1          =JCBFMAX#   EQU   5,,C'N'             Maximum number of failsofts
 000034 0000                       10422  1          =JCBFCNT    DC    H'0'                No. of failsofts
 000036 0000                       10423  1          =           DC    H'0'                Reserved
                                   10424  1          =
 000038                            10425  1          =JCBSINP    DS    A                   SIN ptr (in ECSA)
 00003C 00000000                   10426  1          =           DC    F'0'                Reserved
                                   10427  1          =
 000040                            10428  1          =JCBPTA     DS    A                   Page A's page table ptr (or zero)
 000044                            10429  1          =JCBPTB     DS    A                   Page B's page table ptr (or zero)
                                   10430  1          =
 000048                            10431  1          =JCBSEQ     DS    H                   Line number
 00004A                            10432  1          =JCBACCT    DS    0CL5                Account
 00004A                            10433  1          =JCBUSER    DS    CL3                 .user (uuu)
 00004D                            10434  1          =JCBGRP     DS    CL2                 .group (gg)
 00004F                            10435  1          =JCBANO     DS    XL2                 .number (nnn)
 000052                            10436  1          =JCBSUC     DS    H                   SIB update count
                                   10437  1          =
 000058                            10438  1          =JCBPDBXL   DS    D                   PDB loc,len in Suzan buffer
                                   10439= 1          =           ¿þþþþþþþþþþþþþþþþþþþþþþþþþþþþþþþþþþþþþþþþþþÜ
                                   10440= 1          =           Ÿ  JCBWFL and JCBWWFL must stay together.  Ÿ
                                   10441= 1          =           ¾þþþþþþþþþþþþþþþþþþþþþþþþþþþþþþþþþþþþþþþþþþ»
 000060 00                         10442  1          =JCBWFL     FLAG  ,                   Wait flags
 JCBWFL.JCBWFSO    80 ONES         10446  1          =           FLAG  JCBWFSO             - Waiting for signon
 JCBWFL.JCBWFT     40 ONES         10451  1          =           FLAG  JCBWFT              - Waiting for terminal
 JCBWFL.JCBWFD     20 ONES         10456  1          =           FLAG  JCBWFD              - Waiting for disk/jes
 JCBWFL.JCBWFRSC   10 ONES         10461  1          =           FLAG  JCBWFRSC            - Resource wait
 JCBWFL.JCBWFDSP   08 ONES         10466  1          =           FLAG  JCBWFDSP            - Waiting for user dispatch
 JCBWFL.JCBWFECB   04 ONES         10471  1          =           FLAG  JCBWFECB            - Waiting for ecb
1GLOB     (GLOB5139) (12:46) (15MAR04) WYLBUR's Global Control Blocks                                                       Page  116
0Current Usings:  (CP,R11) (CV,R12)
0Loc    Object Code    Addr1 Addr2  Stmt Lv Lineno    Source Statement           (Hibal 5, Asmedit 3.3)  HLASM R4.0  2004/03/15 12.46
+___    ______ ____    _____ _____  ____ __ ______    ______ _________
0JCBWFL.JCBWFTM    02 ONES         10476  1          =           FLAG  JCBWFTM             - Waiting for timer
 JCBWFL.JCBWFERR   01 ONES         10481  1          =           FLAG  JCBWFERR            - Suspended (by failsoft)
                                   10486  1          =
 000061 00                         10487  1          =JCBWWFL    FLAG  ,                   Weak wait flags
 JCBWWFL.JCBWWFJ   80 ONES         10491  1          =           FLAG  JCBWWFJ             - Waiting for JES
 JCBWWFL.JCBWWFPT  40 ONES         10496  1          =           FLAG  JCBWWFPT            - Waiting for user path
 JCBWWFL.JCBWWFECB 20 ONES         10501  1          =           FLAG  JCBWWFECB           - Waiting for ecb
 JCBWWFL.JCBWWFGEN 10 ONES         10506  1          =           FLAG  JCBWWFGEN           - General wait
                                   10511  1          =JCBWFSIZ   EQU   *-JCBWFL            Size of wait flags
                                   10512  1          =
 000062 00                         10513  1          =JCBAFL     FLAG
 JCBAFL.JCBAFALO   80 ONES         10517  1          =           FLAG  JCBAFALO            - Auto logoff
 JCBAFL.JCBFNATN   40 ONES         10522  1          =           FLAG  JCBFNATN            - Don't allow ATTNs
 JCBAFL.JCBFARB    20 ONES         10527  1          =           FLAG  JCBFARB             - Attn can't break rsc wait
 JCBAFL.JCBAPDSP   10 ONES         10532  1          =           FLAG  JCBAPDSP            - Pending dispatch, no attn
 JCBAFL.JCBFPATN   08 ONES         10537  1          =           FLAG  JCBFPATN            - Pending ATTN occurred
 JCBAFL.JCBAFRUN   04 ONES         10542  1          =           FLAG  JCBAFRUN            - This user wants to run
 JCBAFL.JCBFATTN   02 ONES         10547  1          =           FLAG  JCBFATTN            - Attention received
 JCBAFL.JCBFTINT   01 ONES         10552  1          =           FLAG  JCBFTINT            - Terminal I/O interruptible
                                   10557  1          =
 000063 00                         10558  1          =JCBBFL     FLAG
 JCBBFL.JCBBFNR    80 ONES         10562  1          =           FLAG  JCBBFNR             - No recovery for this user
 JCBBFL.JCBBFSIB   40 ONES         10567  1          =           FLAG  JCBBFSIB            - SIB has changed
 JCBBFL.JCBBFPS    20 ONES         10572  1          =           FLAG  JCBBFPS             - Pseudo-session
 JCBBFL.JCBFWINT   10 ONES         10577  1          =           FLAG  JCBFWINT            - Timer is interruptible
 JCBBFL.JCBFTBRK   08 ONES         10582  1          =           FLAG  JCBFTBRK            - Send break when timer fires
 JCBBFL.JCBFATTNFR 04 ONES         10587  1          =           FLAG  JCBFATTNFREE        - Attn freed user from rsc wait
 JCBBFL.JCBFBILLED 02 ONES         10592  1          =           FLAG  JCBFBILLED          - Final billing record written
                                   10597  1          =
 000064 00                         10598  1          =JCBRSCF1   FLAG
 JCBRSCF1.JCBRIOWA 80 ONES         10602  1          =           FLAG  JCBRIOWA            - I/O work area
 JCBRSCF1.JCBRHSPS 40 ONES         10607  1          =           FLAG  JCBRHSPS            - Jes submit path
 JCBRSCF1.JCBRHSPI 20 ONES         10612  1          =           FLAG  JCBRHSPI            - Jes command path
                                   10617  1          =
 000065 00                         10618  1          =JCBSFLG1   FLAG
 JCBSFLG1.JCBSFV   80 ONES         10622  1          =           FLAG  JCBSFV              - Has issued a VIEW command
 JCBSFLG1.JCBSFMIC 40 ONES         10627  1          =           FLAG  JCBSFMIC            - Currently in MICRO mode
                                   10632  1          =
 000066 0000                              1
 000068 0000000000000000           10633  1          =           DC    D'0'                Reserved
                                   10634= 1          =           ¿þþþþþþþþþþþþþþþþþþþþþþþþþÜ
                                   10635= 1          =           Ÿ  Charging information.  Ÿ
                                   10636= 1          =           ¾þþþþþþþþþþþþþþþþþþþþþþþþþ»
 000070 00000000                   10637  1          =JCBUCEP    DC    A(0)                Current UCE entry ptr
 000074 00000000                   10638  1          =JCBUCEQH   DC    A(0)                UCE queue head ptr
 000078 00000000                   10639  1          =JCBUCEQT   DC    A(0)                UCE queue tail ptr
                                   10640  1          =
 00007C 00000000                   10641  1          =JCBWCPU    DC    F'0'                Total CPU time used
 000080 00000000                   10642  1          =JCBWIO     DC    F'0'                Total disk I/O's
 000084 00000000                   10643  1          =           DC    F'0'                Reserved
                                   10644  1          =
 000088                            10645  1          =JCBBILLX   DS    0D
 000088 0000000000000000           10646  1          =JCBIECLK   DC    D'0'                STCK clock at last check
 000090 00000000                   10647  1          =JCBITIO    DC    F'0'                Terminal I/Os at last check
1GLOB     (GLOB5139) (12:46) (15MAR04) WYLBUR's Global Control Blocks                                                       Page  117
0Current Usings:  (CP,R11) (CV,R12)
0Loc    Object Code    Addr1 Addr2  Stmt Lv Lineno    Source Statement           (Hibal 5, Asmedit 3.3)  HLASM R4.0  2004/03/15 12.46
+___    ______ ____    _____ _____  ____ __ ______    ______ _________
0000094 00000000                   10648  1          =JCBVICPU   DC    F'0'                ORVYL cpu at last check
 000098 00000000                   10649  1          =JCBVIDIO   DC    F'0'                ORVYL I/Os at last check
 00009C 00000000                   10650  1          =JCBTIOL    DC    F'0'                Terminal I/Os at last check
 0000A0 00000000                   10651  1          =JCBTOT$    DC    F'0'                Total charges reported at logoff
 0000A4 00000000                   10652  1          =           DC    F'0'                Reserved
                                   10653  1          =JCBBILL    EQU   JCBBILLX,*-JCBBILLX,C'X'
                                   10654  1          =
 0000A8 00000000                   10655  1          =JCBCTP     DC    F'0'                Counter record area pointer
 0000AC 00000000                   10656  1          =           DC    F'0'                Reserved
                                   10657  1          =*
                                   10658  1          =* jcbtemp is a bit of mem below 16M, used by many, share with care
 0000B0 0000000000000000           10659  1          =JCBTEMP    DC    4F'0'               below 16M line temp memory
                                   10660  1          =
 0000C0 0000000000000000           10661  1          =           DC    XL16'00'            Reserved
                                   10662  1          =
 0000D0                            10663  1          =JCBNEXT    DS    0F
 0000D0                000D0 000D0 10664                       END
1GLOB     (GLOB5139) (12:46) (15MAR04) WYLBUR's Global Control Blocks                                                       Page  118
0Current Usings:  (CP,R11) (CV,R12)
0Loc    Object Code    Addr1 Addr2  Stmt Lv Lineno    Source Statement           (Hibal 5, Asmedit 3.3)  HLASM R4.0  2004/03/15 12.46
+___    ______ ____    _____ _____  ____ __ ______    ______ _________
0                                  10674              ¿þþþþþþþþþþþþþþþþþþþþþþþþþþþþþþþþþþþþþþþþþþþþþþþþþþþþþþþþþþþþþþþþþþþþþÜ
                                   10675              Ÿ                                                                     Ÿ
                                   10676              Ÿ  Misc. translate tables                                             Ÿ
                                   10677              Ÿ                                                                     Ÿ
                                                      ¾þþþþþþþþþþþþþþþþþþþþþþþþþþþþþþþþþþþþþþþþþþþþþþþþþþþþþþþþþþþþþþþþþþþþþ»
0                                  10678                       ENTRY UPPTBL,LOWTBL,MIXTBL
                                   10679                       ENTRY ASCTBL,EBCTBL,EBCTBL7
                                   10680                       ENTRY EPARTBL,NPARTBL,YPARTBL,DOTTBL
                                   10681                       ENTRY BLTBL,NBLTBL
                                   10682              .SKIP1   ANOP
                                   10683
                                   10684              GTUPPTBL XPROC
                                   10685    01-XPROC +         ENTRY GTUPPTBL
 0007BC                            10689    04-LABEL +GTUPPTBL DS    0H
 0007BC                            10690    03-BEGIN +$$$42S       DS 0H
 0007BC 50E0 D000            00000 10695    03-00341 +         ST    RAR,(0)(,SPR)
 0007C0 9008 D004            00004 10698    03-00357 +         STM   FSR,LSR,(0+4)(SPR)
 0007C4 188D                       10699    03-00372 +         LR    WAR,SPR
 0007C6 41D0 D028            00028 10700    03-00373 +         LA    SPR,(0+4+36)(,SPR)
 0007CA 4D70 C74C            232A4 10703    03-BASE  +         BAS   BR,CVENT            Special WYLBUR Routine
 0007CE C7E3E4D7D7E3C2D3           10704    03-BASE  +         DC    CL8'GTUPPTBL '      Trace id
 0007D6                            10708    06-00067 +$$$43B       DS 0X
 USING  *,R7                       10715    06-00179 +       $$USING $$$43B,7
 0007D6 58F0 7172            00948 10724                       L     R15,=A(UPPTBL)
                                   10725                       PEND
 DROP   *,R7                       10731    03-00179 +       $$USING @R7,7
 0007DA                            10733    02-00543 +$$$42F   DS    0H
 0007DA 18D8                       10735    02-00435 +         LR    SPR,WAR
 0007DC 9808 D004            00004 10739    02-00469 +         LM  FSR,LSR,($$$44-(0+((4+36++3)/4*4)+36))(SPR)
 0007E0 58E0 D000            00000 10741    02-00453 +         L     RAR,($$$44-(0+((4+36++3)/4*4)+36+4))(,SPR)
                                   10742    02-00481 +$$$44    EQU   0+((4+36++3)/4*4)+36+4
 0007E4 12FF                       10743    01-PEND  +         LTR   R15,R15
 0007E6 07FE                       10744    01-PEND  +         BR    RAR
                                   10745
                                   10746              GTLOWTBL XPROC
                                   10747    01-XPROC +         ENTRY GTLOWTBL
 0007E8                            10751    04-LABEL +GTLOWTBL DS    0H
 0007E8                            10752    03-BEGIN +$$$45S       DS 0H
 0007E8 50E0 D000            00000 10757    03-00341 +         ST    RAR,(0)(,SPR)
 0007EC 9008 D004            00004 10760    03-00357 +         STM   FSR,LSR,(0+4)(SPR)
 0007F0 188D                       10761    03-00372 +         LR    WAR,SPR
 0007F2 41D0 D028            00028 10762    03-00373 +         LA    SPR,(0+4+36)(,SPR)
 0007F6 4D70 C74C            232A4 10765    03-BASE  +         BAS   BR,CVENT            Special WYLBUR Routine
 0007FA C7E3D3D6E6E3C2D3           10766    03-BASE  +         DC    CL8'GTLOWTBL '      Trace id
 000802                            10770    06-00067 +$$$46B       DS 0X
 USING  *,R7                       10777    06-00179 +       $$USING $$$46B,7
 000802 58F0 714A            0094C 10786                       L     R15,=A(LOWTBL)
                                   10787                       PEND
 DROP   *,R7                       10793    03-00179 +       $$USING @R7,7
 000806                            10795    02-00543 +$$$45F   DS    0H
 000806 18D8                       10797    02-00435 +         LR    SPR,WAR
 000808 9808 D004            00004 10801    02-00469 +         LM  FSR,LSR,($$$47-(0+((4+36++3)/4*4)+36))(SPR)
 00080C 58E0 D000            00000 10803    02-00453 +         L     RAR,($$$47-(0+((4+36++3)/4*4)+36+4))(,SPR)
1GLOB     (GLOB5139) (12:46) (15MAR04) WYLBUR's Global Control Blocks                                                       Page  119
0Current Usings:  (CP,R11) (CV,R12)
0Loc    Object Code    Addr1 Addr2  Stmt Lv Lineno    Source Statement           (Hibal 5, Asmedit 3.3)  HLASM R4.0  2004/03/15 12.46
+___    ______ ____    _____ _____  ____ __ ______    ______ _________
0                                  10804    02-00481 +$$$47    EQU   0+((4+36++3)/4*4)+36+4
 000810 12FF                       10805    01-PEND  +         LTR   R15,R15
 000812 07FE                       10806    01-PEND  +         BR    RAR
                                   10807
                                   10808              GTMIXTBL XPROC
                                   10809    01-XPROC +         ENTRY GTMIXTBL
 000814                            10813    04-LABEL +GTMIXTBL DS    0H
 000814                            10814    03-BEGIN +$$$48S       DS 0H
 000814 50E0 D000            00000 10819    03-00341 +         ST    RAR,(0)(,SPR)
 000818 9008 D004            00004 10822    03-00357 +         STM   FSR,LSR,(0+4)(SPR)
 00081C 188D                       10823    03-00372 +         LR    WAR,SPR
 00081E 41D0 D028            00028 10824    03-00373 +         LA    SPR,(0+4+36)(,SPR)
 000822 4D70 C74C            232A4 10827    03-BASE  +         BAS   BR,CVENT            Special WYLBUR Routine
 000826 C7E3D4C9E7E3C2D3           10828    03-BASE  +         DC    CL8'GTMIXTBL '      Trace id
 00082E                            10832    06-00067 +$$$49B       DS 0X
 USING  *,R7                       10839    06-00179 +       $$USING $$$49B,7
 00082E 58F0 7122            00950 10848                       L     R15,=A(MIXTBL)
                                   10849                       PEND
 DROP   *,R7                       10855    03-00179 +       $$USING @R7,7
 000832                            10857    02-00543 +$$$48F   DS    0H
 000832 18D8                       10859    02-00435 +         LR    SPR,WAR
 000834 9808 D004            00004 10863    02-00469 +         LM  FSR,LSR,($$$50-(0+((4+36++3)/4*4)+36))(SPR)
 000838 58E0 D000            00000 10865    02-00453 +         L     RAR,($$$50-(0+((4+36++3)/4*4)+36+4))(,SPR)
                                   10866    02-00481 +$$$50    EQU   0+((4+36++3)/4*4)+36+4
 00083C 12FF                       10867    01-PEND  +         LTR   R15,R15
 00083E 07FE                       10868    01-PEND  +         BR    RAR
                                   10869
                                   10870              GTASCTBL XPROC
                                   10871    01-XPROC +         ENTRY GTASCTBL
 000840                            10875    04-LABEL +GTASCTBL DS    0H
 000840                            10876    03-BEGIN +$$$51S       DS 0H
 000840 50E0 D000            00000 10881    03-00341 +         ST    RAR,(0)(,SPR)
 000844 9008 D004            00004 10884    03-00357 +         STM   FSR,LSR,(0+4)(SPR)
 000848 188D                       10885    03-00372 +         LR    WAR,SPR
 00084A 41D0 D028            00028 10886    03-00373 +         LA    SPR,(0+4+36)(,SPR)
 00084E 4D70 C74C            232A4 10889    03-BASE  +         BAS   BR,CVENT            Special WYLBUR Routine
 000852 C7E3C1E2C3E3C2D3           10890    03-BASE  +         DC    CL8'GTASCTBL '      Trace id
 00085A                            10894    06-00067 +$$$52B       DS 0X
 USING  *,R7                       10901    06-00179 +       $$USING $$$52B,7
 00085A 58F0 70FA            00954 10910                       L     R15,=A(ASCTBL)
                                   10911                       PEND
 DROP   *,R7                       10917    03-00179 +       $$USING @R7,7
 00085E                            10919    02-00543 +$$$51F   DS    0H
 00085E 18D8                       10921    02-00435 +         LR    SPR,WAR
 000860 9808 D004            00004 10925    02-00469 +         LM  FSR,LSR,($$$53-(0+((4+36++3)/4*4)+36))(SPR)
 000864 58E0 D000            00000 10927    02-00453 +         L     RAR,($$$53-(0+((4+36++3)/4*4)+36+4))(,SPR)
                                   10928    02-00481 +$$$53    EQU   0+((4+36++3)/4*4)+36+4
 000868 12FF                       10929    01-PEND  +         LTR   R15,R15
 00086A 07FE                       10930    01-PEND  +         BR    RAR
                                   10931
                                   10932              GTEBCTBL XPROC
                                   10933    01-XPROC +         ENTRY GTEBCTBL
 00086C                            10937    04-LABEL +GTEBCTBL DS    0H
 00086C                            10938    03-BEGIN +$$$54S       DS 0H
1GLOB     (GLOB5139) (12:46) (15MAR04) WYLBUR's Global Control Blocks                                                       Page  120
0Current Usings:  (CP,R11) (CV,R12)
0Loc    Object Code    Addr1 Addr2  Stmt Lv Lineno    Source Statement           (Hibal 5, Asmedit 3.3)  HLASM R4.0  2004/03/15 12.46
+___    ______ ____    _____ _____  ____ __ ______    ______ _________
000086C 50E0 D000            00000 10943    03-00341 +         ST    RAR,(0)(,SPR)
 000870 9008 D004            00004 10946    03-00357 +         STM   FSR,LSR,(0+4)(SPR)
 000874 188D                       10947    03-00372 +         LR    WAR,SPR
 000876 41D0 D028            00028 10948    03-00373 +         LA    SPR,(0+4+36)(,SPR)
 00087A 4D70 C74C            232A4 10951    03-BASE  +         BAS   BR,CVENT            Special WYLBUR Routine
 00087E C7E3C5C2C3E3C2D3           10952    03-BASE  +         DC    CL8'GTEBCTBL '      Trace id
 000886                            10956    06-00067 +$$$55B       DS 0X
 USING  *,R7                       10963    06-00179 +       $$USING $$$55B,7
 000886 58F0 70D2            00958 10972                       L     R15,=A(EBCTBL)
                                   10973                       PEND  ,
 DROP   *,R7                       10979    03-00179 +       $$USING @R7,7
 00088A                            10981    02-00543 +$$$54F   DS    0H
 00088A 18D8                       10983    02-00435 +         LR    SPR,WAR
 00088C 9808 D004            00004 10987    02-00469 +         LM  FSR,LSR,($$$56-(0+((4+36++3)/4*4)+36))(SPR)
 000890 58E0 D000            00000 10989    02-00453 +         L     RAR,($$$56-(0+((4+36++3)/4*4)+36+4))(,SPR)
                                   10990    02-00481 +$$$56    EQU   0+((4+36++3)/4*4)+36+4
 000894 12FF                       10991    01-PEND  +         LTR   R15,R15
 000896 07FE                       10992    01-PEND  +         BR    RAR
                                   10993
                                   10994              GTEBCTB7 XPROC
                                   10995    01-XPROC +         ENTRY GTEBCTB7
 000898                            10999    04-LABEL +GTEBCTB7 DS    0H
 000898                            11000    03-BEGIN +$$$57S       DS 0H
 000898 50E0 D000            00000 11005    03-00341 +         ST    RAR,(0)(,SPR)
 00089C 9008 D004            00004 11008    03-00357 +         STM   FSR,LSR,(0+4)(SPR)
 0008A0 188D                       11009    03-00372 +         LR    WAR,SPR
 0008A2 41D0 D028            00028 11010    03-00373 +         LA    SPR,(0+4+36)(,SPR)
 0008A6 4D70 C74C            232A4 11013    03-BASE  +         BAS   BR,CVENT            Special WYLBUR Routine
 0008AA C7E3C5C2C3E3C2F7           11014    03-BASE  +         DC    CL8'GTEBCTB7 '      Trace id
 0008B2                            11018    06-00067 +$$$58B       DS 0X
 USING  *,R7                       11025    06-00179 +       $$USING $$$58B,7
 0008B2 58F0 70AA            0095C 11034                       L     R15,=A(EBCTBL7)
                                   11035                       PEND
 DROP   *,R7                       11041    03-00179 +       $$USING @R7,7
 0008B6                            11043    02-00543 +$$$57F   DS    0H
 0008B6 18D8                       11045    02-00435 +         LR    SPR,WAR
 0008B8 9808 D004            00004 11049    02-00469 +         LM  FSR,LSR,($$$59-(0+((4+36++3)/4*4)+36))(SPR)
 0008BC 58E0 D000            00000 11051    02-00453 +         L     RAR,($$$59-(0+((4+36++3)/4*4)+36+4))(,SPR)
                                   11052    02-00481 +$$$59    EQU   0+((4+36++3)/4*4)+36+4
 0008C0 12FF                       11053    01-PEND  +         LTR   R15,R15
 0008C2 07FE                       11054    01-PEND  +         BR    RAR
                                   11055
                                   11056              GTBLTBL  XPROC ,
                                   11057    01-XPROC +         ENTRY GTBLTBL
 0008C4                            11061    04-LABEL +GTBLTBL  DS    0H
 0008C4                            11062    03-BEGIN +$$$60S       DS 0H
 0008C4 50E0 D000            00000 11067    03-00341 +         ST    RAR,(0)(,SPR)
 0008C8 9008 D004            00004 11070    03-00357 +         STM   FSR,LSR,(0+4)(SPR)
 0008CC 188D                       11071    03-00372 +         LR    WAR,SPR
 0008CE 41D0 D028            00028 11072    03-00373 +         LA    SPR,(0+4+36)(,SPR)
 0008D2 4D70 C74C            232A4 11075    03-BASE  +         BAS   BR,CVENT            Special WYLBUR Routine
 0008D6 C7E3C2D3E3C2D340           11076    03-BASE  +         DC    CL8'GTBLTBL '       Trace id
 0008DE                            11080    06-00067 +$$$61B       DS 0X
 USING  *,R7                       11087    06-00179 +       $$USING $$$61B,7
1GLOB     (GLOB5139) (12:46) (15MAR04) WYLBUR's Global Control Blocks                                                       Page  121
0Current Usings:  (*,R7) (CP,R11) (CV,R12)
0Loc    Object Code    Addr1 Addr2  Stmt Lv Lineno    Source Statement           (Hibal 5, Asmedit 3.3)  HLASM R4.0  2004/03/15 12.46
+___    ______ ____    _____ _____  ____ __ ______    ______ _________
00008DE 58F0 7082            00960 11096                       L     R15,=A(BLTBL)
                                   11097                       PEND  ,
 DROP   *,R7                       11103    03-00179 +       $$USING @R7,7
 0008E2                            11105    02-00543 +$$$60F   DS    0H
 0008E2 18D8                       11107    02-00435 +         LR    SPR,WAR
 0008E4 9808 D004            00004 11111    02-00469 +         LM  FSR,LSR,($$$62-(0+((4+36++3)/4*4)+36))(SPR)
 0008E8 58E0 D000            00000 11113    02-00453 +         L     RAR,($$$62-(0+((4+36++3)/4*4)+36+4))(,SPR)
                                   11114    02-00481 +$$$62    EQU   0+((4+36++3)/4*4)+36+4
 0008EC 12FF                       11115    01-PEND  +         LTR   R15,R15
 0008EE 07FE                       11116    01-PEND  +         BR    RAR
                                   11117
                                   11118              GTNBLTBL XPROC ,
                                   11119    01-XPROC +         ENTRY GTNBLTBL
 0008F0                            11123    04-LABEL +GTNBLTBL DS    0H
 0008F0                            11124    03-BEGIN +$$$63S       DS 0H
 0008F0 50E0 D000            00000 11129    03-00341 +         ST    RAR,(0)(,SPR)
 0008F4 9008 D004            00004 11132    03-00357 +         STM   FSR,LSR,(0+4)(SPR)
 0008F8 188D                       11133    03-00372 +         LR    WAR,SPR
 0008FA 41D0 D028            00028 11134    03-00373 +         LA    SPR,(0+4+36)(,SPR)
 0008FE 4D70 C74C            232A4 11137    03-BASE  +         BAS   BR,CVENT            Special WYLBUR Routine
 000902 C7E3D5C2D3E3C2D3           11138    03-BASE  +         DC    CL8'GTNBLTBL '      Trace id
 00090A                            11142    06-00067 +$$$64B       DS 0X
 USING  *,R7                       11149    06-00179 +       $$USING $$$64B,7
 00090A 58F0 705A            00964 11158                       L     R15,=A(NBLTBL)
                                   11159                       PEND  ,
 DROP   *,R7                       11165    03-00179 +       $$USING @R7,7
 00090E                            11167    02-00543 +$$$63F   DS    0H
 00090E 18D8                       11169    02-00435 +         LR    SPR,WAR
 000910 9808 D004            00004 11173    02-00469 +         LM  FSR,LSR,($$$65-(0+((4+36++3)/4*4)+36))(SPR)
 000914 58E0 D000            00000 11175    02-00453 +         L     RAR,($$$65-(0+((4+36++3)/4*4)+36+4))(,SPR)
                                   11176    02-00481 +$$$65    EQU   0+((4+36++3)/4*4)+36+4
 000918 12FF                       11177    01-PEND  +         LTR   R15,R15
 00091A 07FE                       11178    01-PEND  +         BR    RAR
                                   11179
                                   11180              GTDOTTBL XPROC ,
                                   11181    01-XPROC +         ENTRY GTDOTTBL
 00091C                            11185    04-LABEL +GTDOTTBL DS    0H
 00091C                            11186    03-BEGIN +$$$66S       DS 0H
 00091C 50E0 D000            00000 11191    03-00341 +         ST    RAR,(0)(,SPR)
 000920 9008 D004            00004 11194    03-00357 +         STM   FSR,LSR,(0+4)(SPR)
 000924 188D                       11195    03-00372 +         LR    WAR,SPR
 000926 41D0 D028            00028 11196    03-00373 +         LA    SPR,(0+4+36)(,SPR)
 00092A 4D70 C74C            232A4 11199    03-BASE  +         BAS   BR,CVENT            Special WYLBUR Routine
 00092E C7E3C4D6E3E3C2D3           11200    03-BASE  +         DC    CL8'GTDOTTBL '      Trace id
 000936                            11204    06-00067 +$$$67B       DS 0X
 USING  *,R7                       11211    06-00179 +       $$USING $$$67B,7
 000936 58F0 7032            00968 11220                       L     R15,=A(DOTTBL)
                                   11221                       PEND  ,
 DROP   *,R7                       11227    03-00179 +       $$USING @R7,7
 00093A                            11229    02-00543 +$$$66F   DS    0H
 00093A 18D8                       11231    02-00435 +         LR    SPR,WAR
 00093C 9808 D004            00004 11235    02-00469 +         LM  FSR,LSR,($$$68-(0+((4+36++3)/4*4)+36))(SPR)
 000940 58E0 D000            00000 11237    02-00453 +         L     RAR,($$$68-(0+((4+36++3)/4*4)+36+4))(,SPR)
                                   11238    02-00481 +$$$68    EQU   0+((4+36++3)/4*4)+36+4
1GLOB     (GLOB5139) (12:46) (15MAR04) WYLBUR's Global Control Blocks                                                       Page  122
0Current Usings:  (CP,R11) (CV,R12)
0Loc    Object Code    Addr1 Addr2  Stmt Lv Lineno    Source Statement           (Hibal 5, Asmedit 3.3)  HLASM R4.0  2004/03/15 12.46
+___    ______ ____    _____ _____  ____ __ ______    ______ _________
0000944 12FF                       11239    01-PEND  +         LTR   R15,R15
 000946 07FE                       11240    01-PEND  +         BR    RAR
                                   11241
                                   11242                       QLTORG
                                   11244    02-00315 +       $$PUSH  PRINT
                                   11246    02-00280 +       $$PRINT OFF
                                   11262    02-00420 +       $$POP   PRINT
1GLOB     (GLOB5139) (12:46) (15MAR04) WYLBUR's Global Control Blocks                                                       Page  123
0Current Usings:  (CP,R11) (CV,R12)
0Loc    Object Code    Addr1 Addr2  Stmt Lv Lineno    Source Statement           (Hibal 5, Asmedit 3.3)  HLASM R4.0  2004/03/15 12.46
+___    ______ ____    _____ _____  ____ __ ______    ______ _________
0                                  11264              *
 021AA0 0001020304050607           11265              UPPTBL   DC    256AL1(*-UPPTBL)
 021BA0                21BA0 21B21 11266                       ORG   UPPTBL+C'a'         Lowercase
 021B21 C1C2C3C4C5C6C7C8           11267                       DC    C'ABCDEFGHI'
 021B2A                21B2A 21B31 11268                       ORG   UPPTBL+C'j'         Lowercase
 021B31 D1D2D3D4D5D6D7D8           11269                       DC    C'JKLMNOPQR'
 021B3A                21B3A 21B42 11270                       ORG   UPPTBL+C's'         Lowercase
 021B42 E2E3E4E5E6E7E8E9           11271                       DC    C'STUVWXYZ'
 021B4A                21B4A 21BA0 11272                       ORG
                                   11273
 021BA0 0001020304050607           11274              LOWTBL   DC    256AL1(*-LOWTBL)
 021CA0                21CA0 21C61 11275                       ORG   LOWTBL+C'A'
 021C61 8182838485868788           11276                       DC    C'abcdefghi'        Lowercase
 021C6A                21C6A 21C71 11277                       ORG   LOWTBL+C'J'
 021C71 9192939495969798           11278                       DC    C'jklmnopqr'        Lowercase
 021C7A                21C7A 21C82 11279                       ORG   LOWTBL+C'S'
 021C82 A2A3A4A5A6A7A8A9           11280                       DC    C'stuvwxyz'         Lowercase
 021C8A                21C8A 21CA0 11281                       ORG
                                   11282              ¿þþþþþþþþþþþþþþþþþþþþþþþþþþþþþþþþþþþþþþþþþþþþþþþþþþþþþþþþþþþþþþþþþþþþþÜ
                                   11283              Ÿ                                                                     Ÿ
                                   11284              Ÿ  MIXTBL -- TRT table for non-printing characters.  All              Ÿ
                                   11285              Ÿ       non-printing characters are represented by an X'FF'.          Ÿ
                                   11286              Ÿ       Modified, 11/6/90, to make X'6A' a non-printing               Ÿ
                                   11287              Ÿ       character.                                                    Ÿ
                                   11288              Ÿ                                                                     Ÿ
                                   11289              Ÿ                 0 1 2 3 4 5 6 7 8 9 A B C D E F                     Ÿ
                                   11290              Ÿ                                                                     Ÿ
                                                      ¾þþþþþþþþþþþþþþþþþþþþþþþþþþþþþþþþþþþþþþþþþþþþþþþþþþþþþþþþþþþþþþþþþþþþþ»
0021CA0 FFFFFFFFFFFFFFFF           11291              MIXTBL   DC    X'FFFFFFFFFFFFFFFFFFFFFFFFFFFFFFFF'  0
 021CB0 FFFFFFFFFFFFFFFF           11292                       DC    X'FFFFFFFFFFFFFFFFFFFFFFFFFFFFFFFF'  1
 021CC0 FFFFFFFFFFFFFFFF           11293                       DC    X'FFFFFFFFFFFFFFFFFFFFFFFFFFFFFFFF'  2
 021CD0 FFFFFFFFFFFFFFFF           11294                       DC    X'FFFFFFFFFFFFFFFFFFFFFFFFFFFFFFFF'  3
 021CE0 00FFFFFFFFFFFFFF           11295                       DC    X'00FFFFFFFFFFFFFFFFFF000000000000'  4
 021CF0 00FFFFFFFFFFFFFF           11296                       DC    X'00FFFFFFFFFFFFFFFFFF000000000000'  5
 021D00 0000FFFFFFFFFFFF           11297                       DC    X'0000FFFFFFFFFFFFFFFFFF0000000000'  6
 021D10 FFFFFFFFFFFFFFFF           11298                       DC    X'FFFFFFFFFFFFFFFFFF00000000000000'  7
 021D20 FF00000000000000           11299                       DC    X'FF000000000000000000FFFFFFFFFFFF'  8
 021D30 FF00000000000000           11300                       DC    X'FF000000000000000000FFFFFFFFFFFF'  9
 021D40 FFFF000000000000           11301                       DC    X'FFFF0000000000000000FFFFFF00FFFF'  A
 021D50 FFFFFFFFFFFFFFFF           11302                       DC    X'FFFFFFFFFFFFFFFFFFFFFFFFFF00FFFF'  B
 021D60 0000000000000000           11303                       DC    X'00000000000000000000FFFFFFFFFFFF'  C
 021D70 0000000000000000           11304                       DC    X'00000000000000000000FFFFFFFFFFFF'  D
 021D80 00FF000000000000           11305                       DC    X'00FF0000000000000000FFFFFFFFFFFF'  E
 021D90 0000000000000000           11306                       DC    X'00000000000000000000FFFFFFFFFFFF'  F
1GLOB     (GLOB5139) (12:46) (15MAR04) WYLBUR's Global Control Blocks                                                       Page  124
0Current Usings:  (CP,R11) (CV,R12)
0Loc    Object Code    Addr1 Addr2  Stmt Lv Lineno    Source Statement           (Hibal 5, Asmedit 3.3)  HLASM R4.0  2004/03/15 12.46
+___    ______ ____    _____ _____  ____ __ ______    ______ _________
0                                  11308              ¿þþþþþþþþþþþþþþþþþþþþþþþþþþþþþþþþþþþþþþþþþþþþþþþþþþþþþþþþþþþþþþþþþþþþþÜ
                                   11309              Ÿ                                                                     Ÿ
                                   11310              Ÿ  ASCTBL -- Translate table for EBCDIC to ASCII conversion.          Ÿ
                                   11311              Ÿ       Modified 11/85 to be a 1-to-1 translation by Dick Guertin.    Ÿ
                                   11312              Ÿ                                                                     Ÿ
0                                  11314              Ÿ                 0 1 2 3 4 5 6 7 8 9 A B C D E F                     Ÿ
                                   11315              Ÿ                                                                     Ÿ
                                                      ¾þþþþþþþþþþþþþþþþþþþþþþþþþþþþþþþþþþþþþþþþþþþþþþþþþþþþþþþþþþþþþþþþþþþþþ»
0021DA0 000102038009817F           11316              ASCTBL   DC    X'000102038009817F8283840B0C0D0E0F'   0
 021DB0 1011121385860887           11317                       DC    X'1011121385860887181988891C1D1E1F'   1
 021DC0 8A8B8C8D8E0A171B           11318                       DC    X'8A8B8C8D8E0A171B8F90919293050607'   2
 021DD0 9495169697989904           11319                       DC    X'94951696979899049A9B9C9D14159E1A'   3
 021DE0 20A9A1A2A3A4A5A6           11320                       DC    X'20A9A1A2A3A4A5A6AAA85E2E3C282B7C'   4
 021DF0 26D1D2D3D4D5D6D7           11321                       DC    X'26D1D2D3D4D5D6D7D8D921242A293B7E'   5
 021E00 2D2FB1B2B3B4B5B6           11322                       DC    X'2D2FB1B2B3B4B5B6B8EE9F2C255F3E3F'   6
 021E10 EACEE8CFE2E7F0E6           11323                       DC    X'EACEE8CFE2E7F0E6E9603A2340273D22'   7
 021E20 D061626364656667           11324                       DC    X'D0616263646566676869E0ACBCCCCACB'   8
 021E30 DE6A6B6C6D6E6F70           11325                       DC    X'DE6A6B6C6D6E6F707172DFADBDCDABA0'   9
 021E40 E5E3737475767778           11326                       DC    X'E5E3737475767778797AAFBEBF5BA7B7'   A
 021E50 C0C1C2C3C4C5C6C7           11327                       DC    X'C0C1C2C3C4C5C6C7C8C9BABBDC5DEDFE'   B
 021E60 7B41424344454647           11328                       DC    X'7B414243444546474849DADBDDF9B0F1'   C
 021E70 7D4A4B4C4D4E4F50           11329                       DC    X'7D4A4B4C4D4E4F505152F8B9FAFBF2F3'   D
 021E80 5CE1535455565758           11330                       DC    X'5CE1535455565758595AF4F5E4AEF7EF'   E
 021E90 3031323334353637           11331                       DC    X'30313233343536373839EBECFCFDF6FF'   F
-                                  11333              ¿þþþþþþþþþþþþþþþþþþþþþþþþþþþþþþþþþþþþþþþþþþþþþþþþþþþþþþþþþþþþþþþþþþþþþÜ
                                   11334              Ÿ                                                                     Ÿ
                                   11335              Ÿ  EBCTBL -- Translate table for ASCII to EBCDIC conversion.          Ÿ
                                   11336              Ÿ       Modified 11/85 to be a 1-to-1 translation by Dick Guertin.    Ÿ
                                   11337              Ÿ                                                                     Ÿ
                                   11338              Ÿ                                                                     Ÿ
0                                  11340              Ÿ                 0 1 2 3 4 5 6 7 8 9 A B C D E F                     Ÿ
                                   11341              Ÿ                                                                     Ÿ
                                                      ¾þþþþþþþþþþþþþþþþþþþþþþþþþþþþþþþþþþþþþþþþþþþþþþþþþþþþþþþþþþþþþþþþþþþþþ»
0021EA0 00010203372D2E2F           11342              EBCTBL   DC    X'00010203372D2E2F1605250B0C0D0E0F'   0
 021EB0 101112133C3D3226           11343                       DC    X'101112133C3D322618193F271C1D1E1F'   1
 021EC0 405A7F7B5B6C507D           11344                       DC    X'405A7F7B5B6C507D4D5D5C4E6B604B61'   2
 021ED0 F0F1F2F3F4F5F6F7           11345                       DC    X'F0F1F2F3F4F5F6F7F8F97A5E4C7E6E6F'   3
 021EE0 7CC1C2C3C4C5C6C7           11346                       DC    X'7CC1C2C3C4C5C6C7C8C9D1D2D3D4D5D6'   4
 021EF0 D7D8D9E2E3E4E5E6           11347                       DC    X'D7D8D9E2E3E4E5E6E7E8E9ADE0BD4A6D'   5
 021F00 7981828384858687           11348                       DC    X'79818283848586878889919293949596'   6
 021F10 979899A2A3A4A5A6           11349                       DC    X'979899A2A3A4A5A6A7A8A9C04FD05F07'   7
 021F20 040608090A141517           11350                       DC    X'040608090A1415171A1B202122232428'   8
 021F30 292A2B2C30313334           11351                       DC    X'292A2B2C30313334353638393A3B3E6A'   9
 021F40 9F424344454647AE           11352                       DC    X'9F424344454647AE4941489E8B9BEDAA'   A
 021F50 CE626364656667AF           11353                       DC    X'CE626364656667AF68DBBABB8C9CABAC'   B
 021F60 B0B1B2B3B4B5B6B7           11354                       DC    X'B0B1B2B3B4B5B6B7B8B98E8F8D9D7173'   C
 021F70 8051525354555657           11355                       DC    X'80515253545556575859CACBBCCC909A'   D
 021F80 8AE174A1ECA07775           11356                       DC    X'8AE174A1ECA07775727870FAFBBE69EF'   E
1GLOB     (GLOB5139) (12:46) (15MAR04) WYLBUR's Global Control Blocks                                                       Page  125
0Current Usings:  (CP,R11) (CV,R12)
0Loc    Object Code    Addr1 Addr2  Stmt Lv Lineno    Source Statement           (Hibal 5, Asmedit 3.3)  HLASM R4.0  2004/03/15 12.46
+___    ______ ____    _____ _____  ____ __ ______    ______ _________
0021F90 76CFDEDFEAEBFEEE           11357                       DC    X'76CFDEDFEAEBFEEEDACDDCDDFCFDBFFF'   F
-                                  11359              ¿þþþþþþþþþþþþþþþþþþþþþþþþþþþþþþþþþþþþþþþþþþþþþþþþþþþþþþþþþþþþþþþþþþþþþÜ
                                   11360              Ÿ                                                                     Ÿ
                                   11361              Ÿ  EBCTBL7 -- Translate table for 7-bit ASCII to EBCDIC conversion.   Ÿ
                                   11362              Ÿ       Use this table when you are translating ASCII where the       Ÿ
                                   11363              Ÿ       high order bit may or may not be on.                          Ÿ
                                   11364              Ÿ                                                                     Ÿ
                                   11365              Ÿ       This is NOT a 1-to-1 translation.   Values between 00-7F      Ÿ
                                   11366              Ÿ       and values between 80-FF will translate to the same thing.    Ÿ
                                   11367              Ÿ                                                                     Ÿ
0                                  11369              Ÿ                 0 1 2 3 4 5 6 7 8 9 A B C D E F                     Ÿ
                                   11370              Ÿ                                                                     Ÿ
                                                      ¾þþþþþþþþþþþþþþþþþþþþþþþþþþþþþþþþþþþþþþþþþþþþþþþþþþþþþþþþþþþþþþþþþþþþþ»
0021FA0 00010203372D2E2F           11371              EBCTBL7  DC    X'00010203372D2E2F1605250B0C0D0E0F'   0
 021FB0 101112133C3D3226           11372                       DC    X'101112133C3D322618193F271C1D1E1F'   1
 021FC0 405A7F7B5B6C507D           11373                       DC    X'405A7F7B5B6C507D4D5D5C4E6B604B61'   2
 021FD0 F0F1F2F3F4F5F6F7           11374                       DC    X'F0F1F2F3F4F5F6F7F8F97A5E4C7E6E6F'   3
 021FE0 7CC1C2C3C4C5C6C7           11375                       DC    X'7CC1C2C3C4C5C6C7C8C9D1D2D3D4D5D6'   4
 021FF0 D7D8D9E2E3E4E5E6           11376                       DC    X'D7D8D9E2E3E4E5E6E7E8E9ADE0BD4A6D'   5
 022000 7981828384858687           11377                       DC    X'79818283848586878889919293949596'   6
 022010 979899A2A3A4A5A6           11378                       DC    X'979899A2A3A4A5A6A7A8A9C04FD05F07'   7
 022020 00010203372D2E2F           11379                       DC    X'00010203372D2E2F1605250B0C0D0E0F'   8
 022030 101112133C3D3226           11380                       DC    X'101112133C3D322618193F271C1D1E1F'   9
 022040 405A7F7B5B6C507D           11381                       DC    X'405A7F7B5B6C507D4D5D5C4E6B604B61'   A
 022050 F0F1F2F3F4F5F6F7           11382                       DC    X'F0F1F2F3F4F5F6F7F8F97A5E4C7E6E6F'   B
 022060 7CC1C2C3C4C5C6C7           11383                       DC    X'7CC1C2C3C4C5C6C7C8C9D1D2D3D4D5D6'   C
 022070 D7D8D9E2E3E4E5E6           11384                       DC    X'D7D8D9E2E3E4E5E6E7E8E9ADE0BD4A6D'   D
 022080 7981828384858687           11385                       DC    X'79818283848586878889919293949596'   E
 022090 979899A2A3A4A5A6           11386                       DC    X'979899A2A3A4A5A6A7A8A9C04FD05F07'   F
1GLOB     (GLOB5139) (12:46) (15MAR04) WYLBUR's Global Control Blocks                                                       Page  126
0Current Usings:  (CP,R11) (CV,R12)
0Loc    Object Code    Addr1 Addr2  Stmt Lv Lineno    Source Statement           (Hibal 5, Asmedit 3.3)  HLASM R4.0  2004/03/15 12.46
+___    ______ ____    _____ _____  ____ __ ______    ______ _________
0                                  11388              ¿þþþþþþþþþþþþþþþþþþþþþþþþþþþþþþþþþþþþþþþþþþþþþþþþþþþþþþþþþþþþþþþþþþþþþÜ
                                   11389              Ÿ                                                                     Ÿ
                                   11390              Ÿ  NPARTBL -- Translate table to force parity bit off.                Ÿ
                                   11391              Ÿ                                                                     Ÿ
                                                      ¾þþþþþþþþþþþþþþþþþþþþþþþþþþþþþþþþþþþþþþþþþþþþþþþþþþþþþþþþþþþþþþþþþþþþþ»
00220A0 0001020304050607           11392              NPARTBL  DC    128AL1(*-NPARTBL),128AL1(*-NPARTBL-128)
-                                  11394              ¿þþþþþþþþþþþþþþþþþþþþþþþþþþþþþþþþþþþþþþþþþþþþþþþþþþþþþþþþþþþþþþþþþþþþþÜ
                                   11395              Ÿ                                                                     Ÿ
                                   11396              Ÿ  YPARTBL -- Translate table to force parity bit on.                 Ÿ
                                   11397              Ÿ                                                                     Ÿ
                                                      ¾þþþþþþþþþþþþþþþþþþþþþþþþþþþþþþþþþþþþþþþþþþþþþþþþþþþþþþþþþþþþþþþþþþþþþ»
00221A0 8081828384858687           11398              YPARTBL  DC    128AL1(*-YPARTBL+128),128AL1(*-YPARTBL)
-                                  11400              ¿þþþþþþþþþþþþþþþþþþþþþþþþþþþþþþþþþþþþþþþþþþþþþþþþþþþþþþþþþþþþþþþþþþþþþÜ
                                   11401              Ÿ                                                                     Ÿ
                                   11402              Ÿ  EPARTBL -- Translate table to force even parity.                   Ÿ
                                   11403              Ÿ                                                                     Ÿ
0                                  11405              Ÿ                 0 1 2 3 4 5 6 7 8 9 A B C D E F                     Ÿ
                                   11406              Ÿ                                                                     Ÿ
                                                      ¾þþþþþþþþþþþþþþþþþþþþþþþþþþþþþþþþþþþþþþþþþþþþþþþþþþþþþþþþþþþþþþþþþþþþþ»
00222A0 0081820384050687           11407              EPARTBL  DC    X'008182038405068788090A8B0C8D8E0F'   0
 0222B0 9011129314959617           11408                       DC    X'901112931495961718999A1B9C1D1E9F'   1
 0222C0 A02122A324A5A627           11409                       DC    X'A02122A324A5A62728A9AA2BAC2D2EAF'   2
 0222D0 30B1B233B43536B7           11410                       DC    X'30B1B233B43536B7B8393ABB3CBDBE3F'   3
 0222E0 C04142C344C5C647           11411                       DC    X'C04142C344C5C64748C9CA4BCC4D4ECF'   4
 0222F0 50D1D253D45556D7           11412                       DC    X'50D1D253D45556D7D8595ADB5CDDDE5F'   5
 022300 60E1E263E46566E7           11413                       DC    X'60E1E263E46566E7E8696AEB6CEDEE6F'   6
 022310 F07172F374F5F677           11414                       DC    X'F07172F374F5F67778F9FA7BFC7D7EFF'   7
 022320 0081820384050687           11415                       DC    X'008182038405068788090A8B0C8D8E0F'   8
 022330 9011129314959617           11416                       DC    X'901112931495961718999A1B9C1D1E9F'   9
 022340 A02122A324A5A627           11417                       DC    X'A02122A324A5A62728A9AA2BAC2D2EAF'   A
 022350 30B1B233B43536B7           11418                       DC    X'30B1B233B43536B7B8393ABB3CBDBE3F'   B
 022360 C04142C344C5C647           11419                       DC    X'C04142C344C5C64748C9CA4BCC4D4ECF'   C
 022370 50D1D253D45556D7           11420                       DC    X'50D1D253D45556D7D8595ADB5CDDDE5F'   D
 022380 60E1E263E46566E7           11421                       DC    X'60E1E263E46566E7E8696AEB6CEDEE6F'   E
 022390 F07172F374F5F677           11422                       DC    X'F07172F374F5F67778F9FA7BFC7D7EFF'   F
1GLOB     (GLOB5139) (12:46) (15MAR04) WYLBUR's Global Control Blocks                                                       Page  127
0Current Usings:  (CP,R11) (CV,R12)
0Loc    Object Code    Addr1 Addr2  Stmt Lv Lineno    Source Statement           (Hibal 5, Asmedit 3.3)  HLASM R4.0  2004/03/15 12.46
+___    ______ ____    _____ _____  ____ __ ______    ______ _________
0                                  11424              ¿þþþþþþþþþþþþþþþþþþþþþþþþþþþþþþþþþþþþþþþþþþþþþþþþþþþþþþþþþþþþþþþþþþþþþÜ
                                   11425              Ÿ                                                                     Ÿ
                                   11426              Ÿ  DOTTBL -- Translate table to convert funny chars to dots.          Ÿ
                                   11427              Ÿ                                                                     Ÿ
0                                  11429              Ÿ                 0 1 2 3 4 5 6 7 8 9 A B C D E F                     Ÿ
                                   11430              Ÿ                                                                     Ÿ
                                                      ¾þþþþþþþþþþþþþþþþþþþþþþþþþþþþþþþþþþþþþþþþþþþþþþþþþþþþþþþþþþþþþþþþþþþþþ»
00223A0 4B4B4B4B4B4B4B4B           11431              DOTTBL   DC    X'4B4B4B4B4B4B4B4B4B4B4B4B4B4B4B4B'   0
 0223B0 4B4B4B4B4B4B4B4B           11432                       DC    X'4B4B4B4B4B4B4B4B4B4B4B4B4B4B4B4B'   1
 0223C0 4B4B4B4B4B4B4B4B           11433                       DC    X'4B4B4B4B4B4B4B4B4B4B4B4B4B4B4B4B'   2
 0223D0 4B4B4B4B4B4B4B4B           11434                       DC    X'4B4B4B4B4B4B4B4B4B4B4B4B4B4B4B4B'   3
 0223E0 404B4B4B4B4B4B4B           11435                       DC    X'404B4B4B4B4B4B4B4B4B4A4B4C4D4E4F'   4
 0223F0 504B4B4B4B4B4B4B           11436                       DC    X'504B4B4B4B4B4B4B4B4B5A5B5C5D5E4B'   5
 022400 60614B4B4B4B4B4B           11437                       DC    X'60614B4B4B4B4B4B4B4B4B6B6C6D6E6F'   6
 022410 4B4B4B4B4B4B4B4B           11438                       DC    X'4B4B4B4B4B4B4B4B4B4B7A7B7C7D7E7F'   7
 022420 4B81828384858687           11439                       DC    X'4B8182838485868788894B4B4B4B4B4B'   8
 022430 4B91929394959697           11440                       DC    X'4B9192939495969798994B4B4B4B4B4B'   9
 022440 4B4BA2A3A4A5A6A7           11441                       DC    X'4B4BA2A3A4A5A6A7A8A94B4B4BAD4B4B'   A
 022450 4B4B4B4B4B4B4B4B           11442                       DC    X'4B4B4B4B4B4B4B4B4B4B4B4B4BBD4B4B'   B
 022460 C0C1C2C3C4C5C6C7           11443                       DC    X'C0C1C2C3C4C5C6C7C8C94B4B4B4B4B4B'   C
 022470 D0D1D2D3D4D5D6D7           11444                       DC    X'D0D1D2D3D4D5D6D7D8D94B4B4B4B4B4B'   D
 022480 E04BE2E3E4E5E6E7           11445                       DC    X'E04BE2E3E4E5E6E7E8E94B4B4B4B4B4B'   E
 022490 F0F1F2F3F4F5F6F7           11446                       DC    X'F0F1F2F3F4F5F6F7F8F94B4B4B4B4B4B'   F
1GLOB     (GLOB5139) (12:46) (15MAR04) WYLBUR's Global Control Blocks                                                       Page  128
0Current Usings:  (CP,R11) (CV,R12)
0Loc    Object Code    Addr1 Addr2  Stmt Lv Lineno    Source Statement           (Hibal 5, Asmedit 3.3)  HLASM R4.0  2004/03/15 12.46
+___    ______ ____    _____ _____  ____ __ ______    ______ _________
0                                  11448              ¿þþþþþþþþþþþþþþþþþþþþþþþþþþþþþþþþþþþþþþþþþþþþþþþþþþþþþþþþþþþþþþþþþþþþþÜ
                                   11449              Ÿ                                                                     Ÿ
                                   11450              Ÿ  BLTBL -- Translate and test table that skips blanks.               Ÿ
                                   11451              Ÿ                                                                     Ÿ
                                                      ¾þþþþþþþþþþþþþþþþþþþþþþþþþþþþþþþþþþþþþþþþþþþþþþþþþþþþþþþþþþþþþþþþþþþþþ»
00224A0 FFFFFFFFFFFFFFFF           11452              BLTBL    DC    256X'FF'
 0225A0                225A0 224E0 11453                       ORG   BLTBL+C' '
 0224E0 00                         11454                       DC    X'00'
 0224E1                224E1 225A0 11455                       ORG
-                                  11457              ¿þþþþþþþþþþþþþþþþþþþþþþþþþþþþþþþþþþþþþþþþþþþþþþþþþþþþþþþþþþþþþþþþþþþþþÜ
                                   11458              Ÿ                                                                     Ÿ
                                   11459              Ÿ  NBLTBL -- Translate and test table that skips all non-blanks.      Ÿ
                                   11460              Ÿ                                                                     Ÿ
                                                      ¾þþþþþþþþþþþþþþþþþþþþþþþþþþþþþþþþþþþþþþþþþþþþþþþþþþþþþþþþþþþþþþþþþþþþþ»
00225A0 0000000000000000           11461              NBLTBL   DC    256X'00'
 0226A0                226A0 225E0 11462                       ORG   NBLTBL+C' '
 0225E0 FF                         11463                       DC    X'FF'
 0225E1                225E1 226A0 11464                       ORG
1GLOB     (GLOB5139) (12:46) (15MAR04) WYLBUR's Global Control Blocks                                                       Page  129
0Current Usings:  (CP,R11) (CV,R12)
0Loc    Object Code    Addr1 Addr2  Stmt Lv Lineno    Source Statement           (Hibal 5, Asmedit 3.3)  HLASM R4.0  2004/03/15 12.46
+___    ______ ____    _____ _____  ____ __ ______    ______ _________
0                                  11466              ¿þþþþþþþþþþþþþþþþþþþþþþþþþþþþþþþþþþþþþþþþþþþþþþþþþþþþþþþþþþþþþþþþþþþþþÜ
                                   11467              Ÿ                                                                     Ÿ
                                   11468              Ÿ  ECBLIST Area                                                       Ÿ
                                   11469              Ÿ                                                                     Ÿ
                                                      ¾þþþþþþþþþþþþþþþþþþþþþþþþþþþþþþþþþþþþþþþþþþþþþþþþþþþþþþþþþþþþþþþþþþþþþ»
0                                  11470                       ENTRY ECBLIST
 0226A0 0000000000000000           11471              ECBLIST  DC    (300)F'0'           Plenty of ECBs
-
0                                  11473                       END   .
 022B50                            11475    02-00641 +       $$LTORG
 022B50                22B50 22B50 11476    02-00643 +$$$C2WYLGLOB      LOCTR
 022B50                22B50 22B50 11477    02-00644 +$$$D2WYLGLOB      LOCTR
 022B50                22B50 22B50 11478    02-00645 +$$$C2WYLGLOB      LOCTR
                                   11479    01-00612 +       $$END

1GLOB     (GLOB5139) (12:46) (15MAR04) Relocation Dictionary                                                                Page  130
-   Pos.Id   Rel.Id   Flags    Address                                                       HLASM R4.0  2004/03/15 12.46
0  00000001 00000001    0C    0000002C
   00000001 00000001    0C    00000030
   00000001 00000001    0C    00000034
   00000001 00000001    0C    00000038
   00000001 00000001    0C    00000048
   00000001 00000001    0C    0000004C
   00000001 00000001    0C    00000068
   00000001 00000001    0C    0000006C
   00000001 00000001    0C    00000070
   00000001 00000001    0C    00000074
   00000001 00000001    0C    00000084
   00000001 00000001    0C    00000088
   00000001 00000001    0C    000000A4
   00000001 00000001    0C    000000A8
   00000001 00000001    0C    000000AC
   00000001 00000001    0C    000000B0
   00000001 00000001    0C    000000C0
   00000001 00000001    0C    000000C4
   00000001 00000001    0C    000000E0
   00000001 00000001    0C    000000E4
   00000001 00000001    0C    000000FC
   00000001 00000001    0C    00000100
   00000001 00000001    0C    0000011C
   00000001 00000001    0C    00000120
   00000001 00000001    0C    00000124
   00000001 00000001    0C    00000128
   00000001 00000001    0C    00000138
   00000001 00000001    0C    0000013C
   00000001 00000001    0C    00000158
   00000001 00000001    0C    0000015C
   00000001 00000001    0C    00000160
   00000001 00000001    0C    00000164
   00000001 00000001    0C    00000174
   00000001 00000001    0C    00000178
   00000001 00000001    0C    00000194
   00000001 00000001    0C    00000198
   00000001 00000001    0C    0000019C
   00000001 00000001    0C    000001A0
   00000001 00000001    0C    000001B0
   00000001 00000001    0C    000001B4
   00000001 00000001    0C    000001D0
   00000001 00000001    0C    000001D4
   00000001 00000001    0C    000001D8
   00000001 00000001    0C    000001DC
   00000001 00000001    0C    000001EC
   00000001 00000001    0C    000001F0
   00000001 00000001    0C    00000948
   00000001 00000001    0C    0000094C
   00000001 00000001    0C    00000950
   00000001 00000001    0C    00000954
   00000001 00000001    0C    00000958
   00000001 00000001    0C    0000095C
   00000001 00000001    0C    00000960
   00000001 00000001    0C    00000964
   00000001 00000001    0C    00000968
1GLOB     (GLOB5139) (12:46) (15MAR04) Relocation Dictionary                                                                Page  131
   00000001 00000001    0C    00000970
   00000001 00000001    0C    00000974
   00000001 00000001    0C    0000098C
   00000001 00000001    0C    00000B90
   00000001 00000001    0C    00000B94
   00000001 00000001    0C    00000BBC
   00000001 00000001    0C    00000C30
   00000001 00000001    0C    00000C64
   00000001 00000001    0C    00000C68
   00000001 00000001    0C    00000C70
   00000001 00000001    0C    00000C84
   00000001 00000001    0C    00000C88
   00000001 00000001    0C    00000C8C
   00000001 00000001    0C    00000C94
   00000001 00000001    0C    00004CAC
   00000001 00000001    0C    00004CB0
   00000001 00000001    0C    00004CD8
   00000001 00000001    0C    00004D4C
   00000001 00000001    0C    00004D80
   00000001 00000001    0C    00004D84
   00000001 00000001    0C    00004D8C
   00000001 00000001    0C    00004DA0
   00000001 00000001    0C    00004DA4
   00000001 00000001    0C    00004DA8
   00000001 00000001    0C    00004DB0
   00000001 00000001    0C    00008DC8
   00000001 00000001    0C    00008DCC
   00000001 00000001    0C    00008DF4
   00000001 00000001    0C    00008E68
   00000001 00000001    0C    00008E9C
   00000001 00000001    0C    00008EA0
   00000001 00000001    0C    00008EA8
   00000001 00000001    0C    00008EBC
   00000001 00000001    0C    00008EC0
   00000001 00000001    0C    00008EC4
   00000001 00000001    0C    00008ECC
   00000001 00000001    0C    0000CEE4
   00000001 00000001    0C    0000CEE8
   00000001 00000001    0C    0000CF10
   00000001 00000001    0C    0000CF84
   00000001 00000001    0C    0000CFB8
   00000001 00000001    0C    0000CFBC
   00000001 00000001    0C    0000CFC4
   00000001 00000001    0C    0000CFD8
   00000001 00000001    0C    0000CFDC
   00000001 00000001    0C    0000CFE0
   00000001 00000001    0C    0000CFE8
   00000001 00000001    0C    00011000
   00000001 00000001    0C    00011004
   00000001 00000001    0C    0001102C
   00000001 00000001    0C    000110A0
   00000001 00000001    0C    000110D4
   00000001 00000001    0C    000110D8
   00000001 00000001    0C    000110E0
   00000001 00000001    0C    000110F4
   00000001 00000001    0C    000110F8
   00000001 00000001    0C    000110FC
   00000001 00000001    0C    00011104
   00000001 00000001    0C    0001511C
1GLOB     (GLOB5139) (12:46) (15MAR04) Relocation Dictionary                                                                Page  132
   00000001 00000001    0C    00015120
   00000001 00000001    0C    00015148
   00000001 00000001    0C    000151BC
   00000001 00000001    0C    000151F0
   00000001 00000001    0C    000151F4
   00000001 00000001    0C    000151FC
   00000001 00000001    0C    00015210
   00000001 00000001    0C    00015214
   00000001 00000001    0C    00015218
   00000001 00000001    0C    00015220
   00000001 00000001    0C    00019238
   00000001 00000001    0C    0001923C
   00000001 00000001    0C    00019264
   00000001 00000001    0C    000192D8
   00000001 00000001    0C    0001930C
   00000001 00000001    0C    00019310
   00000001 00000001    0C    00019318
   00000001 00000001    0C    0001932C
   00000001 00000001    0C    00019330
   00000001 00000001    0C    00019334
   00000001 00000001    0C    0001933C
   00000001 00000001    0C    0001D354
   00000001 00000001    0C    0001D358
   00000001 00000001    0C    0001D380
   00000001 00000001    0C    0001D3F4
   00000001 00000001    0C    0001D428
   00000001 00000001    0C    0001D42C
   00000001 00000001    0C    0001D434
   00000001 00000001    0C    0001D448
   00000001 00000001    0C    0001D44C
   00000001 00000001    0C    0001D450
   00000001 00000001    0C    0001D458
   00000001 00000001    0C    00021470
   00000001 00000001    0C    00021474
   00000001 00000001    0C    000214A8
   00000001 00000001    0C    000214B0
   00000001 00000001    0C    000214D8
   00000001 00000001    0C    000214DC
   00000001 00000001    0C    00021510
   00000001 00000001    0C    00021518
   00000001 00000001    0C    00021540
   00000001 00000001    0C    00021544
   00000001 00000001    0C    00021578
   00000001 00000001    0C    00021580
   00000001 00000001    0C    000215A8
   00000001 00000001    0C    000215AC
   00000001 00000001    0C    000215E0
   00000001 00000001    0C    000215E8
   00000001 00000001    0C    00021610
   00000001 00000001    0C    00021614
   00000001 00000001    0C    00021648
   00000001 00000001    0C    00021650
   00000001 00000001    0C    00021678
   00000001 00000001    0C    0002167C
   00000001 00000001    0C    000216B0
   00000001 00000001    0C    000216B8
   00000001 00000001    0C    000216E0
   00000001 00000001    0C    000216E4
   00000001 00000001    0C    00021718
1GLOB     (GLOB5139) (12:46) (15MAR04) Relocation Dictionary                                                                Page  133
   00000001 00000001    0C    00021720
   00000001 00000001    0C    00021748
   00000001 00000001    0C    0002174C
   00000001 00000001    0C    00021780
   00000001 00000001    0C    00021788
   00000001 00000001    0C    000217B0
   00000001 00000001    0C    000217B4
   00000001 00000001    0C    000217E8
   00000001 00000001    0C    000217F0
   00000001 00000001    0C    00021818
   00000001 00000001    0C    0002181C
   00000001 00000001    0C    00021850
   00000001 00000001    0C    00021858
   00000001 00000001    0C    00021880
   00000001 00000001    0C    00021884
   00000001 00000001    0C    000218B8
   00000001 00000001    0C    000218C0
   00000001 00000001    0C    000218E8
   00000001 00000001    0C    000218EC
   00000001 00000001    0C    00021920
   00000001 00000001    0C    00021928
   00000001 00000001    0C    00021950
   00000001 00000001    0C    00021954
   00000001 00000001    0C    00021988
   00000001 00000001    0C    00021990
   00000001 00000001    0C    000219B8
   00000001 00000001    0C    000219BC
   00000001 00000001    0C    000219F0
   00000001 00000001    0C    000219F8
   00000001 00000001    0C    00021A20
   00000001 00000001    0C    00021A24
   00000001 00000001    0C    00021A58
   00000001 00000001    0C    00021A60
   00000001 00000001    0C    00021A88
   00000001 00000001    0C    00021A8C
   00000001 00000019    0C    00000130
   00000002 00000001    0C    00022D28
   00000002 00000001    0C    00022D2C
   00000002 00000001    0C    00022D30
   00000002 00000001    0C    0002322C
   00000002 00000001    0C    00023230
   00000002 00000001    0C    00023238
   00000002 00000002    0C    00022BF8
   00000002 00000003    1C    00023240
   00000002 00000004    1C    0002328C
   00000002 00000005    1C    000232A0
   00000002 00000006    1C    000232D0
   00000002 00000007    1C    000232D4
   00000002 00000008    1C    000233D4
   00000002 00000009    1C    000233D8
   00000002 0000000A    1C    000233DC
   00000002 0000000B    1C    000233E0
   00000002 0000000C    1C    000233E4
   00000002 0000000D    1C    000233E8
   00000002 0000000E    1C    000233F8
   00000002 0000000F    1C    000233FC
   00000002 00000010    1C    00023400
   00000002 00000011    1C    00023404
   00000002 00000012    1C    00023408
1GLOB     (GLOB5139) (12:46) (15MAR04) Relocation Dictionary                                                                Page  134
   00000002 00000013    1C    0002340C
   00000002 00000014    1C    00023410
   00000002 00000015    1C    00023414
   00000002 00000016    1C    00023418
   00000002 00000017    1C    0002341C
   00000002 00000018    1C    00023514

1GLOB     (GLOB5139) (12:46) (15MAR04) Ordinary Symbol and Literal Cross Reference                                          Page  135
-Symbol   Length   Value     Id    R Type   Defn References                                  HLASM R4.0  2004/03/15 12.46
0$$$@R0        1 00000000 FFFFFFFE     J     705  1011
 $$$@R10       1 00000000 FFFFFFF4     J     835  1075
 $$$@R11       1 00000000 FFFFFFF3     J     848  1088
 $$$@R12       1 00000000 FFFFFFF2     J     861  1101
 $$$@R13       1 00000000 FFFFFFF1     J     874  1114
 $$$@R14       1 00000000 FFFFFFF0     J     887  1127
 $$$@R7        1 00000000 FFFFFFF7     J     796  1024
 $$$@R8        1 00000000 FFFFFFF6     J     809  1037   1049
 $$$@R9        1 00000000 FFFFFFF5     J     822  1062
 $$$C1WYLGLOB
               1 00021AA0 00000001     J   11258 11260
 $$$C2WYLGLOB
               1 00022B50 00000001     J   11476 11478
 $$$D0WYLGLOB
               1 0000096C 00000001     J     996  6643   6670   6908   7197   9126   9267   9952
 $$$RCP        1 00000000 FFFFFFEC     J    2626  4886   6360   6360
 $$$RDEV       1 00000000 FFFFFFEB     J    4840  4885   4885
 $$$RHCMRSC
               1 00000000 FFFFFFE6     J    9134  9266   9266
 $$$RJCB       1 00000000 FFFFFFE4     J   10396 10670  10670
 $$$RNSCNCB
               1 00000000 FFFFFFED     J    2547  2620   2620
 $$$RPCWD      1 00000000 FFFFFFEE     J    1220  1299   1299
 $$$RPFCB      1 00000000 FFFFFFE5     J    9981 10065  10065
 $$$RRESOURCE
               1 00000000 FFFFFFE8     J    6546  6587   6587
 $$$RRSCGROUP
               1 00000000 FFFFFFE9     J    6485  6540   6540
 $$$RSUBRSC
               1 00000000 FFFFFFE7     J    6916  7196   7196
 $$$RTTYPE
               1 00000000 FFFFFFEA     J    6371  6472   6472
 $$$SEGCB0
               4 00000050 FFFFFFEC     F    2657  2743   2743
 $$$43B        1 000007D6 00000001     X   10708 10715U
 $$$44         1 00000050 00000001 A   U   10742 10739  10741
 $$$46B        1 00000802 00000001     X   10770 10777U
 $$$47         1 00000050 00000001 A   U   10804 10801  10803
 $$$49B        1 0000082E 00000001     X   10832 10839U
 $$$50         1 00000050 00000001 A   U   10866 10863  10865
 $$$52B        1 0000085A 00000001     X   10894 10901U
 $$$53         1 00000050 00000001 A   U   10928 10925  10927
 $$$55B        1 00000886 00000001     X   10956 10963U
 $$$56         1 00000050 00000001 A   U   10990 10987  10989
 $$$58B        1 000008B2 00000001     X   11018 11025U
 $$$59         1 00000050 00000001 A   U   11052 11049  11051
 $$$61B        1 000008DE 00000001     X   11080 11087U
 $$$62         1 00000050 00000001 A   U   11114 11111  11113
 $$$64B        1 0000090A 00000001     X   11142 11149U
 $$$65         1 00000050 00000001 A   U   11176 11173  11175
 $$$67B        1 00000936 00000001     X   11204 11211U
 $$$68         1 00000050 00000001 A   U   11238 11235  11237
 @RAR          0 00000000 FFFFFFF0     @    1128  2326   2334B
 @R0           0 00000000 FFFFFFFE     @     706   982U
 @R1           0 00000000 FFFFFFFD     @     719   978U  2332   2333
1GLOB     (GLOB5139) (12:46) (15MAR04) Ordinary Symbol and Literal Cross Reference                                          Page  136
 @R10          0 00000000 FFFFFFF4     @     836   942U
 @R11          0 00000000 FFFFFFF3     @     849   938U
 @R12          0 00000000 FFFFFFF2     @     862   934U
 @R13          0 00000000 FFFFFFF1     @     875   930U
 @R14          0 00000000 FFFFFFF0     @     888   926U
 @R15          0 00000000 FFFFFFEF     @     901   922U
 @R2           0 00000000 FFFFFFFC     @     732   974U
 @R3           0 00000000 FFFFFFFB     @     745   970U
 @R4           0 00000000 FFFFFFFA     @     758   966U
 @R5           0 00000000 FFFFFFF9     @     771   962U
 @R6           0 00000000 FFFFFFF8     @     784   958U
 @R7           0 00000000 FFFFFFF7     @     797   954U 10731U 10793U 10855U 10917U 10979U 11041U 11103U 11165U 11227U
 @R8           0 00000000 FFFFFFF6     @     810   950U
 @R9           0 00000000 FFFFFFF5     @     823   946U
 ABSCENT       1 00000000 0000000C     T    2342  2342
 ASCTBL       16 00021DA0 00000001     X   11316 10679  11252
 ASCTBL        1 00000000 00000012     T    2350  2350
 BLTBL         1 000224A0 00000001     X   11452 10681  11255  11453
 BLTBL         1 00000000 00000014     T    2352  2352
 BR            7 00000007 00000001 A   #    1018 10703M 10765M 10827M 10889M 10951M 11013M 11075M 11137M 11199M
 CHECKIOB      1 00000000 00000018     T    2398  2398
 CMDPART       1 0000000B FFFFFFEE A   U    1272  1275
 COMMAND       1 00000000 00000008     T    2338  2338
 COMMSEG       1 00000000 00000009     T    2339  2339
 CP         4096 00000000 FFFFFFEC     J    6360  1314U
 CP#XSTK       1 00000010 FFFFFFEC A   U    4092  4093
 CPACFLG       1 000005D5 FFFFFFEC     R    4195  4199   4204   4209   4214   4219
 CPACFLN       4 000005C4 FFFFFFEC     F    4187  4222   4222
 CPAFLAG       1 000005C3 FFFFFFEC     R    4159  4163   4168   4173   4178
 CPANAME       8 00000588 FFFFFFEC     C    4141  4237   4237
 CPAUTFLG      1 000008A9 FFFFFFEC     R    4505  4509   4514   4519   4524
 CPCHFLAG      1 00000B68 FFFFFFEC     R    5132  5136
 CPDFLG        1 0000084C FFFFFFEC     R    4392  4396   4401   4406   4411   4416
 CPDFLG2       1 0000084D FFFFFFEC     R    4421  4425   4430   4435   4440   4445   4450
 CPEXFLG       1 00000758 FFFFFFEC     R    4261  4265
 CPEXFLG2      1 00000759 FFFFFFEC     R    4271  4280   4290
 CPEXFLG3      1 0000075A FFFFFFEC     R    4297  4301   4306
 CPEXTFLG      1 00000E28 FFFFFFEC     R    5943  5947   5952   5957   5962   5967   5972
 CPFABORT    128 00000D5A FFFFFFEC         5709  2302M  2302   2307M  2307
 CPFERROR     64 00000D5A FFFFFFEC         5714  2301M  2301   2306M  2306
 CPFNTEX       1 00000040 FFFFFFEC A   U    5561  5562
 CPFRDRNG      1 00000D88 FFFFFFEC     R    5829  5833   5838   5843   5848   5853   5858   5863
 CPFRDSRC      1 00000D89 FFFFFFEC     R    5868  5877   5887   5897
 CPFUNUM       1 00000080 FFFFFFEC A   U    5560  5562
 CPFXDFLG      1 000007E4 FFFFFFEC     R    4339  4343   4348
 CPGFLG1       1 00000474 FFFFFFEC     R    3702  3706   3711   3716   3721   3726   4056   4056
 CPGFLG10      1 0000047D FFFFFFEC     R    3939  3943   3948   3953   3958   3963   3968
 CPGFLG11      1 0000047E FFFFFFEC     R    3974  3978   3983
 CPGFLG12      1 0000047F FFFFFFEC     R    3989  3993   3998   4003
 CPGFLG13      1 00000480 FFFFFFEC     R    4009  4013
 CPGFLG14      1 00000481 FFFFFFEC     R    4019  4023   4028   4033   4038   4043
 CPGFLG4       1 00000477 FFFFFFEC     R    3755  3766   3775   3784   3793   3802
 CPGFLG5       1 00000478 FFFFFFEC     R    3808  3812   3817   3822   3827   3832   3837   3842   3847
 CPGFLG6       1 00000479 FFFFFFEC     R    3853  3857   3862   3867
 CPGFLG7       1 0000047A FFFFFFEC     R    3873  3877   3882   3887   3892
 CPGFLG8       1 0000047B FFFFFFEC     R    3898  3902   3907   3912   3917
 CPGFLG9       1 0000047C FFFFFFEC     R    3923  3927   3933
 CPINIT        1 00000174 FFFFFFEC     U    2872  6329
 CPJESFLG      1 000009E1 FFFFFFEC     R    4604  4608   4613   4618   4623   4628   4633   4638   4643
1GLOB     (GLOB5139) (12:46) (15MAR04) Ordinary Symbol and Literal Cross Reference                                          Page  137
 CPJESFLY      1 000009FD FFFFFFEC     R    4654  4658   4663   4668
 CPJESHFL      1 000009E0 FFFFFFEC     R    4589  4593   4598   4677   4677
 CPLFLG10      1 00000D59 FFFFFFEC     R    5695  5699
 CPLFLG11      1 00000D5A FFFFFFEC     R    5705  5709   5714   5719   5724
 CPLFLG12      1 00000D5B FFFFFFEC     R    5730  5734
 CPLFLG14      1 00000D5C FFFFFFEC     R    5740  5744   5749   5754   5759   5764
 CPLFLG6       1 00000D55 FFFFFFEC     R    5570  5574   5579   5584   5589   5594   5599
 CPLFLG7       1 00000D56 FFFFFFEC     R    5605  5609   5614   5619   5624   5629
 CPLFLG8       1 00000D57 FFFFFFEC     R    5635  5639   5644   5649   5654
 CPLFLG9       1 00000D58 FFFFFFEC     R    5660  5664   5669   5674   5679   5684   5689
 CPLOCALZ      1 00000C48 FFFFFFEC     U    5162  6323   6323
 CPMFLG        1 0000084F FFFFFFEC     R    4459  4463
 CPMODFLG      1 00000C78 FFFFFFEC     R    5190  5194   5199   5204   5209   5214
 CPNAMELN      1 00000010 FFFFFFEC A   U    4085  4332
 CPNEDPFX     10 00000E29 FFFFFFEC     X    5976  5977   5978
 CPNUMFLG      1 00000C79 FFFFFFEC     R    5220  5232
 CPORVCMD      1 00000140 FFFFFFEC     R    2754  2758   2763   2768   2773   2778   2783   2788   2793   2798   2798
                                                  2849   2849
 CPORVFLG      1 00000149 FFFFFFEC     R    2805  2809   2814   2819   2824   2829   2834   2839   2844
 CPORVWF       1 00000150 FFFFFFEC     R    2857  2861
 CPOSCANX      4 00000CA8 FFFFFFEC     F    5389  5456   5456
 CPR          11 0000000B 00000001 A   #    1082  1314U
 CPRACBAD     16 000001FC FFFFFFEC         2923  2957   2957   2958   2958
 CPRACF1       1 000001FC FFFFFFEC     R    2904  2908   2913   2918   2923   2928   2933   2938   2943   2959
 CPRACPSW     32 000001FC FFFFFFEC         2918  2956   2956   2958   2958
 CPRACUND     64 000001FC FFFFFFEC         2913  2956   2956   2957   2957
 CPRCVCUR      4 00000730 FFFFFFEC     A    4240  4242   4242
 CPRFLG        1 000008AA FFFFFFEC     R    4530  4534   4539   4544   4549   4554   4559
 CPS         254 00000344 FFFFFFEC     X    3674  3677   3678   3680   3680
 CPSACCT       5 000003B4 FFFFFFEC     C    3273  3436   3436
 CPSAMCOD      1 00000A22 FFFFFFEC     R    4726  4734   4744   4754   4763   4772   4781   4791   4800   4809
 CPSAMFLG      1 00000A21 FFFFFFEC     R    4686  4690   4695   4700   4705   4710   4715   4720   4831   4831
 CPSCNFLG      1 00000CD0 FFFFFFEC     R    5402  5413   5422   5433
 CPSCNF2       1 00000CD1 FFFFFFEC     R    5438  5442
 CPSCNMAX      1 00000014 FFFFFFEC A   U    5454  5455
 CPSCRI        2 00000434 FFFFFFEC     H    3663  3668   3668
 CPSEGCOD      1 00000050 FFFFFFEC     R    2660  2669   2679   2689   2699   2709   2719   2729
 CPSFL         1 00000384 FFFFFFEC     R    3011  3015   3020   3025   3030   3035
 CPSFLG        1 000003F8 FFFFFFEC     R    3551  3555   3560   3565   3570   3575   3580   3585   3590
 CPSFLG2       1 000003F9 FFFFFFEC     R    3596  3600   3605   3610
 CPSFL2        1 00000385 FFFFFFEC     R    3041  3045   3050   3055   3060
 CPSFL3        1 00000386 FFFFFFEC     R    3066  3070   3075   3080
 CPSFL4        1 00000387 FFFFFFEC     R    3086  3090   3095   3100
 CPSFL5        1 00000388 FFFFFFEC     R    3106  3110   3115   3120
 CPSKAFL       1 000003BF FFFFFFEC     R    3407  3411   3416   3421   3426   3431
 CPSKIFL       1 000003BE FFFFFFEC     R    3362  3366   3371   3376   3381   3386   3391   3396   3401
 CPSOF         1 000001F8 FFFFFFEC     X    2894  2896   2896
 CPSOFLAG      1 00000416 FFFFFFEC     R    3621  3625   3630   3635   3640   3645
 CPSOPST       4 000003C4 FFFFFFEC     F    3441  3670   3670
 CPSPORT       8 00000354 FFFFFFEC     C    3005  3125   3125
 CPSQFLG       1 000003EC FFFFFFEC     R    3470  3474
 CPSSFLG       1 000003BB FFFFFFEC     R    3280  3284   3289   3294   3299   3304   3309
 CPSSTART      4 00000344 FFFFFFEC     F    2997  3001   3001   3437   3437   3542   3542   3674   3674
 CPSSTAT       1 0000038F FFFFFFEC     R    3217  3221   3226   3231   3236   3241   3246   3251
 CPSTACF       1 000003BC FFFFFFEC     R    3315  3319   3324   3329   3334   3339   3344   3349   3354
 CPSTART       4 00000000 FFFFFFEC     C    2633  6327   6331
 CPSTFLAG      1 000003EA FFFFFFEC     R    3448  3452   3457   3462
 CPSTYPE       1 0000038C FFFFFFEC     R    3130  3139   3149   3159   3169   3179   3189   3199   3209
 CPSUFLG       1 000003EE FFFFFFEC     R    3485  3489   3494   3499   3504   3509   3514   3519   3524
1GLOB     (GLOB5139) (12:46) (15MAR04) Ordinary Symbol and Literal Cross Reference                                          Page  138
 CPSUFLG2      1 000003EF FFFFFFEC     R    3530  3534   3539
 CPSVPGM       8 0000039C FFFFFFEC     C    3263  3269   3269
 CPS1ST        4 0000038C FFFFFFEC     F    3127  3672   3672
 CPTEMPP#      1 0000005F FFFFFFEC A   U    4580  4582
 CPTRMFL1      1 00000C7A FFFFFFEC     R    5238  5242   5247   5252   5376   5376
 CPTRMFL2      1 00000C7B FFFFFFEC     R    5258  5262   5267   5272   5277   5282   5287
 CPTRMFL3      1 00000C7C FFFFFFEC     R    5293  5297   5302   5307   5312   5317   5322   5327
 CPTRMFL4      1 00000C7D FFFFFFEC     R    5333  5337   5342   5347   5352   5357   5362   5367
 CPUSED        1 00000FBC FFFFFFEC A   U    6327  6328
 CPVACURS      8 00000AF0 FFFFFFEC     D    5105  5106   5107
 CPVCURS       8 00000AE0 FFFFFFEC     D    5099  5100   5101
 CPVFLAG       1 00000AC8 FFFFFFEC     R    4900  4904   4909   4914   4919   4924
 CPVFLAG2      1 00000AC9 FFFFFFEC     R    4930  4934   4939   4944   4949   4954   4959
 CPVFLAG3      1 00000ACA FFFFFFEC     R    4965  4969   4974   4979   4984   4989   4994
 CPVFLAG4      1 00000ACB FFFFFFEC     R    5000  5004   5009   5014
 CPVLFLAG      1 00000ACE FFFFFFEC     R    5069  5073   5078   5083
 CPVMODE       1 00000ACC FFFFFFEC     R    5022  5026   5031   5036   5041   5046   5051   5056   5061
 CPVTWID       2 00000AD0 FFFFFFEC     H    5089  5092   5092
 CPWK1         4 00000D60 FFFFFFEC     F    5773  5788   5811
 CPWK2         4 00000D64 FFFFFFEC     F    5774  5789   5803
 CPWK3         4 00000D68 FFFFFFEC     F    5775  5790   5804
 CPWK4         4 00000D6C FFFFFFEC     F    5776  5791   5805
 CPWK5         4 00000D70 FFFFFFEC     F    5777  5793   5798   5806
 CPWK6         4 00000D74 FFFFFFEC     F    5778  5794   5799   5807   5814   5816
 CPWK7         4 00000D78 FFFFFFEC     F    5779  5792   5808
 CPXFLAG       1 000007FD FFFFFFEC     R    4367  4371
 CPXSTATE      4 000007F8 FFFFFFEC     F    4361  4374   4374
 CV            8 00022B58 00000002     D    1348  1323U  1325
 CVABSRTN      4 000233E4 00000002     V    2342  2317
 CVBRMSK       1 000232A9 00000002     X    2258  2259   2260
 CVCFLAG       1 00023558 00000002     R    2423  2427   2432   2437   2442   2447
 CVCHKST       8 00023548 00000002     D    2413  2503   2503
 CVCHKST2      8 00023980 00000002     D    2506  2509   2509
 CVCOMRTN      4 000233D4 00000002     V    2338  2308
 CVDBGFLG      1 00023024 00000002     R    2112  2116
 CVENT         4 000232A4 00000002     I    2256 10703B 10765B 10827B 10889B 10951B 11013B 11075B 11137B 11199B
 CVENTBR       2 000232A8 00000002     I    2257  2258
 CVERROR       4 0002332E 00000002     I    2306  2322B
 CVEXIRTN      4 000232D4 00000002     V    2286  2282
 CVFCHRKBPR
               8 00023021 00000002         2027  2043   2043
 CVFCHRKBSE
               4 00023021 00000002         2032  2043   2043
 CVFCHRKCPR
               2 00023021 00000002         2049  2065   2065
 CVFCHRKCSE
               1 00023021 00000002         2054  2065   2065
 CVFCHRUBPR
             128 00023021 00000002         1983  1999   1999
 CVFCHRUBSE
              64 00023021 00000002         1988  1999   1999
 CVFCHRUCPR
              32 00023021 00000002         2005  2021   2021
 CVFCHRUCSE
              16 00023021 00000002         2010  2021   2021
 CVFL          1 0002301C 00000002     R    1779  1783   1788   1793   1798   1803   1808   1813   1818
 CVFL2         1 0002301D 00000002     R    1824  1828   1833   1838   1843   1848   1853   1858   1863
 CVFL3         1 0002301E 00000002     R    1869  1873   1878   1883   1888   1893   1898   1903   1908
 CVFL4         1 0002301F 00000002     R    1914  1918   1923   1928   1933   1938   1943   1948
1GLOB     (GLOB5139) (12:46) (15MAR04) Ordinary Symbol and Literal Cross Reference                                          Page  139
 CVFL5         1 00023020 00000002     R    1954  1958   1963   1968   1973
 CVFL6         1 00023021 00000002     R    1979  1983   1988   2000   2005   2010   2022   2027   2032   2044   2049
                                                  2054   2066
 CVFPFCB       4 00022D28 00000002     A    1610  2522
 CVFRSG        4 0002322C 00000002     A    2197  2524
 CVHEAP#       1 00000200 00000002 A   U    1685  1686
 CVINSTAL      8 00022B5C 00000002     C    1356  2529
 CVINVRTN      4 000233E0 00000002     V    2341  2311
 CVJES         4 00022B6C 00000002     C    1358  2531
 CVJESFLG      1 00023022 00000002     R    2072  2076
 CVLNKRGS      4 000232D8 00000002     F    2288  1345   2263M  2289
 CVLNKRTN      4 00023308 00000002     U    2289  2278M
 CVLOCK1       1 00022BE0 00000002     R    1430  1434   1439
 CVLOCK2       1 00022BE1 00000002     R    1444  1448
 CVLOCK3       1 00022BE2 00000002     R    1453  1457
 CVLOCK4       1 00022BE3 00000002     R    1462  1466
 CVLOGMOD      1 00022BC0 00000002     R    1417  1421
 CVMACH        1 00022BBF 00000002     R    1377  1381   1386   1391   1396   1401   1406   1411
 CVMILRTN      4 000233DC 00000002     V    2340  2320
 CVNEXT        4 00023336 00000002     I    2308  1326
 CVNIPG        2 00022C94 00000002     H    1555  2533
 CVNOARTN      4 000233E8 00000002     V    2343  2314
 CVNWDATE      4 00023160 00000002     F    2145  2149   2149
 CVNWMPG#      1 00000008 00000002 A   U    2147  2148
 CVPFX         1 00022B50 00000002     J    1329  1331   2621   6361   6473
 CVPFXRTN      4 00022B52 00000002     I    1345  1325
 CVPFXRTN      1 00000000 00000007     T    2286  2286
 CVPGFLAG      1 00023559 00000002     R    2453  2457   2462   2467
 CVPIOSZ       1 00004F80 00000002 A   U    1516  1518
 CVPPDBQH      4 00022BF4 00000002     A    1474  1475
 CVPSFNO       1 000003E9 00000002 A   N    1638  1640
 CVPSLNO       1 000007CF 00000002 A   N    1639  1640
 CVPXSZ        1 00000008 00000002 A   U    1517  1518
 CVR          12 0000000C 00000001 A   #    1095  1323U  1346M  1346B
 CVRHCM        1 00000007 00000002 A   U    2210  9123   9123
 CVRIOW        1 00000004 00000002 A   U    2207  6640   6640
 CVRKEY        1 00000008 00000002 A   U    2211  2212   9949   9949
 CVRKWR        1 00000005 00000002 A   U    2208  6667   6667
 CVRPAG        1 00000003 00000002 A   U    2206  6626   6626
 CVRRUN        1 00000001 00000002 A   U    2204  6602   6602
 CVRSET        1 00000002 00000002 A   U    2205  6614   6614
 CVRSG         4 00023230 00000002     A    2199  2526
 CVRSUB        1 00000006 00000002 A   U    2209  6905   6905
 CVSEGRTN      4 000233D8 00000002     V    2339  2303
 CVSTACK#      1 00000080 00000002 A   U    1677  1678
 CVSTART       4 00022B58 00000002     C    1350  2521
 CVTRC         4 000232C0 00000002     I    2278  2264B
 CVTRCRTN      4 000232D0 00000002     V    2285  2279
 CVUSFNO       1 00000001 00000002 A   N    1645  1647
 CVUSLNO       1 000003E7 00000002 A   N    1646  1647
 CVVOL#        1 00000005 00000002 A   U    2496  2497
 CVWTOFLG      1 00023023 00000002     R    2082  2086   2091   2096   2101   2106
 DEBUGSG       1 00000000 00000004     T    2239  2239
 DEV          12 00000000 FFFFFFEB     J    4885  4893
 DEVMAX#       1 00000002 FFFFFFEC A   U    4836  4893
 DEVTYPE       1 00000001 FFFFFFEB     R    4853  4862   4872
 DOTTBL       16 000223A0 00000001     X   11431 10680  11257
 DOTTBL        1 00000000 00000017     T    2355  2355
 DRENCFLG      1 00000F9F FFFFFFEC     R    6291  6295   6300   6305   6310   6315
1GLOB     (GLOB5139) (12:46) (15MAR04) Ordinary Symbol and Literal Cross Reference                                          Page  140
 DRENPROT      1 00000F9E FFFFFFEC     R    6278  6286
 DSNON        40 00000E90 FFFFFFEC     C    6011  6012
 DSNWADSN     44 00000E5C FFFFFFEC     C    5998  5999   6000   6001   6010   6018   6249   6255   6257   6263   6266
                                                  6268   6271   6320
 DSNWAF4       1 00000F37 FFFFFFEC     R    6066  6070   6075   6080   6085   6090   6095   6100   6105
 DSNWAF5       1 00000F38 FFFFFFEC     R    6111  6115   6120   6125   6130   6135   6140   6145   6150
 DSNWAF6       1 00000F39 FFFFFFEC     R    6156  6160   6165   6170   6175   6180   6185   6190   6195
 DSNWAF7       1 00000F3A FFFFFFEC     R    6201  6205   6210   6215   6220
 DSNXG         1 00000004 FFFFFFEC A   U    6003  6005
 DSNXGL        1 00000003 FFFFFFEC A   U    6004  6005
 DSNXU         1 00000007 FFFFFFEC A   U    6005  6007
 DSNXUL        1 00000004 FFFFFFEC A   U    6006  6007
 DSSIZ         1 00000108 FFFFFFEC A   U    6249  6257   6266   6271
 EBCTBL       16 00021EA0 00000001     X   11342 10679  11253
 EBCTBL        1 00000000 00000013     T    2351  2351
 EBCTBL7      16 00021FA0 00000001     X   11371 10679  11254
 EBCTBL7       1 00000000 00000016     T    2354  2354
 ECBLIST       4 000226A0 00000001     F   11471 11470
 ECBLIST       1 00000000 00000003     T    2214  2214
 ENDPFCB       4 000007BC 00000001     F   10388  2523
 EPARTBL      16 000222A0 00000001     X   11407 10680
 EPARTBL       1 00000000 0000000E     T    2346  2346
 FRSTPFCB      4 000001F8 00000001 C   U   10069  2523
 FRSTRSG       4 00000018 00000001     F    6594  2525
 FSR           0 00000000 00000001 A   #    1005 10698  10739M 10760  10801M 10822  10863M 10884  10925M 10946  10987M
                                                 11008  11049M 11070  11111M 11132  11173M 11194  11235M
 GLOB5139      1 00000000 00000001     R    1141  1139
 GTASCTBL      2 00000840 00000001     H   10875 10871
 GTBLTBL       2 000008C4 00000001     H   11061 11057
 GTDOTTBL      2 0000091C 00000001     H   11185 11181
 GTEBCTBL      2 0000086C 00000001     H   10937 10933
 GTEBCTB7      2 00000898 00000001     H   10999 10995
 GTLOWTBL      2 000007E8 00000001     H   10751 10747
 GTMIXTBL      2 00000814 00000001     H   10813 10809
 GTNBLTBL      2 000008F0 00000001     H   11123 11119
 GTUPPTBL      2 000007BC 00000001     H   10689 10685
 HCM$ECB       4 0000000C FFFFFFE6     A    9145  9205   9302   9346   9390   9434   9478   9522   9566   9610   9654
                                                  9698   9742   9786   9830   9874   9918
 HCMFLAGS      1 00000014 FFFFFFE6     R    9150  9154   9159   9164
 HCMFRST       2 00021470 00000001 C   U    9269  9119
 HCMLAST       2 00021A20 00000001 C   U    9270  9119
 HCMP          4 00000018 FFFFFFE6     F    9170  9229
 HCMPTRS       8 00000058 FFFFFFE6     D    9254  9258   9258
 HCMRSC      104 00000000 FFFFFFE6     J    9266  9302   9346   9390   9434   9478   9522   9566   9610   9654   9698
                                                  9742   9786   9830   9874   9918
 HCMRSG        8 00000180 00000001     C    9117  9116   9122   9271   9272
 HCMSFLG       1 00000051 FFFFFFE6     X    9231  9193
 HCMSFLG1      1 000214C1 00000001     X    9311  9298
 HCMSFLG10
               1 00021869 00000001     X    9707  9694
 HCMSFLG11
               1 000218D1 00000001     X    9751  9738
 HCMSFLG12
               1 00021939 00000001     X    9795  9782
 HCMSFLG13
               1 000219A1 00000001     X    9839  9826
 HCMSFLG14
               1 00021A09 00000001     X    9883  9870
 HCMSFLG15
1GLOB     (GLOB5139) (12:46) (15MAR04) Ordinary Symbol and Literal Cross Reference                                          Page  141
               1 00021A71 00000001     X    9927  9914
 HCMSFLG2      1 00021529 00000001     X    9355  9342
 HCMSFLG3      1 00021591 00000001     X    9399  9386
 HCMSFLG4      1 000215F9 00000001     X    9443  9430
 HCMSFLG5      1 00021661 00000001     X    9487  9474
 HCMSFLG6      1 000216C9 00000001     X    9531  9518
 HCMSFLG7      1 00021731 00000001     X    9575  9562
 HCMSFLG8      1 00021799 00000001     X    9619  9606
 HCMSFLG9      1 00021801 00000001     X    9663  9650
 HCMWA        10 00000058 FFFFFFE6     X    9258  9315   9359   9403   9447   9491   9535   9579   9623   9667   9711
                                                  9755   9799   9843   9887   9931
 HCMWFLG       1 00000053 FFFFFFE6     R    9236  9240   9245   9250
 HCM0          8 0000019C 00000001     U    9271  9276
 HCM1          2 00021470 00000001     H    9275  9269   9302   9320
 HCM10         2 00021818 00000001     H    9671  9628   9698   9716
 HCM11         2 00021880 00000001     H    9715  9672   9742   9760
 HCM12         2 000218E8 00000001     H    9759  9716   9786   9804
 HCM13         2 00021950 00000001     H    9803  9760   9830   9848
 HCM14         2 000219B8 00000001     H    9847  9804   9874   9892
 HCM15         2 00021A20 00000001     H    9891  9270   9848   9918
 HCM16         8 0000019C 00000001     U    9272  9892
 HCM2          2 000214D8 00000001     H    9319  9276   9346   9364
 HCM3          2 00021540 00000001     H    9363  9320   9390   9408
 HCM4          2 000215A8 00000001     H    9407  9364   9434   9452
 HCM5          2 00021610 00000001     H    9451  9408   9478   9496
 HCM6          2 00021678 00000001     H    9495  9452   9522   9540
 HCM7          2 000216E0 00000001     H    9539  9496   9566   9584
 HCM8          2 00021748 00000001     H    9583  9540   9610   9628
 HCM9          2 000217B0 00000001     H    9627  9584   9654   9672
 HIBAL         1 00000000 FFFFFFFF     J     691   707    720    733    746    759    772    785    798    811    824
                                                   837    850    863    876    889    902
 IDA1292A      4 00000C64 00000001     A    7379  7380
 IDA1333A      4 00000C84 00000001     A    7423  7424   7425
 IDA1405A      4 00004D80 00000001     A    7617  7618
 IDA1446A      4 00004DA0 00000001     A    7661  7662   7663
 IDA1518A      4 00008E9C 00000001     A    7855  7856
 IDA1559A      4 00008EBC 00000001     A    7899  7900   7901
 IDA1631A      4 0000CFB8 00000001     A    8093  8094
 IDA1672A      4 0000CFD8 00000001     A    8137  8138   8139
 IDA1744A      4 000110D4 00000001     A    8331  8332
 IDA1785A      4 000110F4 00000001     A    8375  8376   8377
 IDA1857A      4 000151F0 00000001     A    8569  8570
 IDA1898A      4 00015210 00000001     A    8613  8614   8615
 IDA1970A      4 0001930C 00000001     A    8807  8808
 IDA2011A      4 0001932C 00000001     A    8851  8852   8853
 IDA2083A      4 0001D428 00000001     A    9045  9046
 IDA2124A      4 0001D448 00000001     A    9089  9090   9091
 INVALID       1 00000000 0000000B     T    2341  2341
 IOWFRST       1 00000000 00000001 A   U    6649  6636
 IOWLAST       1 00000000 00000001 A   U    6650  6636
 IOWRSG        8 000000CC 00000001     C    6634  2527   6633   6639
 JCB         208 00000000 FFFFFFE4     J   10670  6600   6600   6612   6612   6624   6624   6638   6638   6665   6665
                                                  6903   6903   9121   9121   9947   9947
 JCBAFL        1 00000062 FFFFFFE4     R   10515 10519  10524  10529  10534  10539  10544  10549  10554
 JCBBFL        1 00000063 FFFFFFE4     R   10560 10564  10569  10574  10579  10584  10589  10594
 JCBBILLX      8 00000088 FFFFFFE4     D   10645 10653  10653
 JCBQB         4 00000004 FFFFFFE4     A   10405  6600   6612   6624   6638   6665   6903   9121   9947
 JCBQF         4 00000000 FFFFFFE4     A   10404  6600   6612   6624   6638   6665   6903   9121   9947
 JCBRSCF1      1 00000064 FFFFFFE4     R   10600 10604  10609  10614
1GLOB     (GLOB5139) (12:46) (15MAR04) Ordinary Symbol and Literal Cross Reference                                          Page  142
 JCBSFLG1      1 00000065 FFFFFFE4     R   10620 10624  10629
 JCBWFL        1 00000060 FFFFFFE4     R   10444 10448  10453  10458  10463  10468  10473  10478  10483  10511
 JCBWWFL       1 00000061 FFFFFFE4     R   10489 10493  10498  10503  10508
 KEYFRST       4 00021A88 00000001     F    9958  9945
 KEYLAST       4 00021A88 00000001     F    9959  9945
 KEYRSG        8 000001BC 00000001     C    9943  9942   9948   9963   9963
 KIOPOST       1 00000000 00000019     T    6591  6664
 KWLIST        4 0000098C 00000001     A    6690  6691
 KWR         504 00000994 00000001     X    6888  6690
 KWRDSTRT      1 00000999 00000001     U    6705  6867   6867
 KWRFRST       4 00000970 00000001     F    6676  6663
 KWRLAST       4 00000970 00000001     F    6677  6663
 KWRRSG        8 00000108 00000001     C    6661  6660   6666   6681   6681
 KWRST         4 00000994 00000001     F    6695  6888   6888
 KWRSTART      4 00000994 00000001     F    6700  6881
 KWRUSER       3 00000994 00000001     C    6701  6703   6703
 LASTRSG       4 000001BC 00000001     F    9941  2527
 LOWTBL        1 00021BA0 00000001     R   11274 10678  11250  11274  11275  11277  11279
 LOWTBL        1 00000000 00000011     T    2349  2349
 LSR           8 00000008 00000001 A   #    1043 10698  10739M 10760  10801M 10822  10863M 10884  10925M 10946  10987M
                                                 11008  11049M 11070  11111M 11132  11173M 11194  11235M
 MEMSTART      8 00022B50 00000002     D    1340  1339
 MILERR        1 00000000 0000000A     T    2340  2340
 MIXTBL       16 00021CA0 00000001     X   11291 10678  11251
 NBLTBL        1 000225A0 00000001     X   11461 10681  11256  11462
 NBLTBL        1 00000000 00000015     T    2353  2353
 NOACTION      1 00000000 0000000D     T    2343  2343
 NPARTBL       1 000220A0 00000001     R   11392 10680  11392  11392
 NPARTBL       1 00000000 0000000F     T    2347  2347
 NSCNCB      176 00000000 FFFFFFED     J    2620  2746
 NSCNFLGS      1 00000008 FFFFFFED     R    2557  2561   2566
 NSCNTYPE      1 00000018 FFFFFFED     R    2575  2579   2584   2589   2594   2599
 PAGFRST       8 000000AC 00000001     U    6628  6622
 PAGLAST       8 000000AC 00000001     U    6629  6622
 PAGRSG        8 00000090 00000001     C    6620  6619   6625   6628   6629
 PCW           4 00000000 FFFFFFEE     F    1231  1238
 PFCB        164 00000000 FFFFFFE5     J   10065 10073  10075  10078  10107  10109  10112  10141  10143  10146  10149
                                                 10178  10180  10183  10212  10214  10217  10246  10248  10251  10254
                                                 10283  10285  10288  10317  10319  10322  10351  10353  10356  10359
 PFCBDCBA      4 00000070 FFFFFFE5     F   10030 10078  10112  10149  10183  10217  10254  10288  10322  10359
 PFCBFGND    128 00000058 FFFFFFE5        10017 10147  10252  10357
 PFCBFL        1 00000058 FFFFFFE5     R   10013 10017  10022  10146  10251  10356
 PFCBNO        4 00000004 FFFFFFE5     F    9990 10075  10109  10143  10180  10214  10248  10285  10319  10353
 PFCBSECM      1 00000013 FFFFFFE5 A   U   10028 10029
 PFCB0         4 000001F8 00000001     F   10073 10069  10070  10075  10078
 PFCB1         4 0000029C 00000001     F   10107 10109  10112
 PFCB2         4 00000340 00000001     F   10141 10143  10146  10149
 PFCB3         4 000003E4 00000001     F   10178 10180  10183
 PFCB4         4 00000488 00000001     F   10212 10214  10217
 PFCB5         4 0000052C 00000001     F   10246 10248  10251  10254
 PFCB6         4 000005D0 00000001     F   10283 10285  10288
 PFCB7         4 00000674 00000001     F   10317 10319  10322
 PFCB8         4 00000718 00000001     F   10351 10353  10356  10359
 RAR          14 0000000E 00000001 A   #    1121  2278   2279M  2280B  2282M  2283B  2303M  2304B  2308M  2309B  2311M
                                                  2312B  2314M  2315B  2317M  2318B  2320M  2321M  2321B  2327  10695
                                                 10741M 10744B 10757  10803M 10806B 10819  10865M 10868B 10881  10927M
                                                 10930B 10943  10989M 10992B 11005  11051M 11054B 11067  11113M 11116B
                                                 11129  11175M 11178B 11191  11237M 11240B
 RSCFLAGS      1 00000014 FFFFFFE8     R    6563  6567   6572   6577
1GLOB     (GLOB5139) (12:46) (15MAR04) Ordinary Symbol and Literal Cross Reference                                          Page  143
 RSCGROUP     60 00000000 FFFFFFE9     J    6540  2527   6601   6604   6605   6613   6616   6617   6625   6628   6629
                                                  6639   6666   6681   6681   6904   7201   7202   9122   9271   9272
                                                  9948   9963   9963
 RSGFLG1       1 0000003B FFFFFFE9     R    6515  6519   6524   6529   6532
 RSGQFRFW      4 0000001C FFFFFFE9     A    6498  6604   6605   6616   6617   6628   6629   6681   6681   7201   7202
                                                  9271   9272   9963   9963
 RUNFRST       8 00000034 00000001     U    6604  6598
 RUNLAST       8 00000034 00000001     U    6605  6598
 RUNRSG        8 00000018 00000001     C    6596  6595   6601   6604   6605
 R0            0 00000000 FFFFFFFF A   #     699  1345M  2263   2332M
 R1            1 00000001 FFFFFFFF A   #     712  2326M  2327M  2333M
 R12          12 0000000C FFFFFFFF A   #     855  2289
 R14          14 0000000E FFFFFFFF A   #     881  2264M
 R15          15 0000000F FFFFFFFF A   #     894  1345M  2263  10724M 10743M 10743  10786M 10805M 10805  10848M 10867M
                                                 10867  10910M 10929M 10929  10972M 10991M 10991  11034M 11053M 11053
                                                 11096M 11115M 11115  11158M 11177M 11177  11220M 11239M 11239
 R7            7 00000007 FFFFFFFF A   #     790  2256M  2256   2257B  2269B
 SDSNQSZ       1 0000002C FFFFFFEC A   U    6252  6253   6254
 SECPFCB       4 000001F8 00000001 C   U   10070  2523
 SETFRST       8 00000070 00000001     U    6616  6610
 SETLAST       8 00000070 00000001     U    6617  6610
 SETRSG        8 00000054 00000001     C    6608  6607   6613   6616   6617
 SPR          13 0000000D 00000001 A   #    1108 10695  10698  10699  10700M 10700  10735M 10739  10741  10757  10760
                                                 10761  10762M 10762  10797M 10801  10803  10819  10822  10823  10824M
                                                 10824  10859M 10863  10865  10881  10884  10885  10886M 10886  10921M
                                                 10925  10927  10943  10946  10947  10948M 10948  10983M 10987  10989
                                                 11005  11008  11009  11010M 11010  11045M 11049  11051  11067  11070
                                                 11071  11072M 11072  11107M 11111  11113  11129  11132  11133  11134M
                                                 11134  11169M 11173  11175  11191  11194  11195  11196M 11196  11231M
                                                 11235  11237
 SUBACB        4 0000003C FFFFFFE7     F    6986  7067   7135
 SUBACB1       4 00000BCC 00000001     F    7236  7316   7384
 SUBACB2       4 00004CE8 00000001     F    7474  7554   7622
 SUBACB3       4 00008E04 00000001     F    7712  7792   7860
 SUBACB4       4 0000CF20 00000001     F    7950  8030   8098
 SUBACB5       4 0001103C 00000001     F    8188  8268   8336
 SUBACB6       4 00015158 00000001     F    8426  8506   8574
 SUBACB7       4 00019274 00000001     F    8664  8744   8812
 SUBACB8       4 0001D390 00000001     F    8902  8982   9050
 SUBFLAG       1 00000038 FFFFFFE7     R    6966  6970
 SUBFLAGS      1 00000014 FFFFFFE7     R    6933  6937   6942   6947
 SUBFRST       2 00000B90 00000001 C   U    7199  6901
 SUBLAST       2 0001D354 00000001 C   U    7200  6901
 SUBMDCBL      4 000000F4 FFFFFFE7     A    7174  7175   7176
 SUBRPL        4 00000088 FFFFFFE7     F    7030  7180
 SUBRPL1       4 00000C18 00000001     F    7279  7429
 SUBRPL2       4 00004D34 00000001     F    7517  7667
 SUBRPL3       4 00008E50 00000001     F    7755  7905
 SUBRPL4       4 0000CF6C 00000001     F    7993  8143
 SUBRPL5       4 00011088 00000001     F    8231  8381
 SUBRPL6       4 000151A4 00000001     F    8469  8619
 SUBRPL7       4 000192C0 00000001     F    8707  8857
 SUBRPL8       4 0001D3DC 00000001     F    8945  9095
 SUBRSG        8 00000144 00000001     C    6899  6898   6904   7201   7202
 SUBTSCBL      4 000000D4 FFFFFFE7     A    7130  7131
 SUB0          8 00000160 00000001     U    7201  7206
 SUB1          2 00000B90 00000001     H    7205  7199   7217   7444
 SUB2          2 00004CAC 00000001     H    7443  7206   7455   7682
 SUB3          2 00008DC8 00000001     H    7681  7444   7693   7920
1GLOB     (GLOB5139) (12:46) (15MAR04) Ordinary Symbol and Literal Cross Reference                                          Page  144
 SUB4          2 0000CEE4 00000001     H    7919  7682   7931   8158
 SUB5          2 00011000 00000001     H    8157  7920   8169   8396
 SUB6          2 0001511C 00000001     H    8395  8158   8407   8634
 SUB7          2 00019238 00000001     H    8633  8396   8645   8872
 SUB8          2 0001D354 00000001     H    8871  7200   8634   8883
 SUB9          8 00000160 00000001     U    7202  8872
 TRC           1 00000000 00000006     T    2285  2285
 TTYFLAG       1 00000004 FFFFFFEA     R    6381  6385
 TTYMAX#       1 00000006 FFFFFFEA A   U    6437  6438
 TTYTFLAG      1 00000005 FFFFFFEA     R    6391  6395   6400   6405   6410   6415   6420   6425
 UPPTBL        1 00021AA0 00000001     R   11265 10678  11249  11265  11266  11268  11270
 UPPTBL        1 00000000 00000010     T    2348  2348
 WAR           8 00000008 00000001 A   #    1031 10699M 10735  10761M 10797  10823M 10859  10885M 10921  10947M 10983
                                                 11009M 11045  11071M 11107  11133M 11169  11195M 11231
 WTOSG         1 00000000 00000005     T    2245  2245
 WYLGLOB       1 00000000 00000001     J     995   997   1013   1026   1039   1051   1064   1077   1090   1103   1116
                                                  1129   1300   6477   6541   6588   6655   6893   9111   9937   9971
                                                 10066  10671
 YPARTBL       1 000221A0 00000001     R   11398 10680  11398  11398
 =A(ASCTBL)
               4 00000954 00000001     A   11252 10910
 =A(BLTBL)
               4 00000960 00000001     A   11255 11096
 =A(DOTTBL)
               4 00000968 00000001     A   11257 11220
 =A(EBCTBL)
               4 00000958 00000001     A   11253 10972
 =A(EBCTBL7)
               4 0000095C 00000001     A   11254 11034
 =A(LOWTBL)
               4 0000094C 00000001     A   11250 10786
 =A(MIXTBL)
               4 00000950 00000001     A   11251 10848
 =A(NBLTBL)
               4 00000964 00000001     A   11256 11158
 =A(UPPTBL)
               4 00000948 00000001     A   11249 10724

1GLOB     (GLOB5139) (12:46) (15MAR04) Macro and Copy Code Source Summary                                                   Page  145
- Con Source                                        Volume    Members                        HLASM R4.0  2004/03/15 12.46
0     PRIMARY INPUT                                           CSECT    DROP     END      EX       IOWRSC   LTORG
                                                              PAGEFILE PFORG    POP      PRINT    PUSH     RSC
                                                              START    USING
   L1 WYL.GS.WYL.WYLBUR.MACLIB                      SYSB05    AINFO    BASE     COLINFO  CP       CPLOCAL  CV
                                                              CVLOCAL  HCMRSC   JCB      KEYRSC   KWRRSC   PFCB     RG
                                                              RSCGROUP RSCHDR   SCANCB   SUBRSC   TTYPE    XTRACE
   L2 WYL.GG.SYS.MACLIB                             SYSB05    $BFLKUP  $BV      $CCLKUP  $LOR     $RGLKUP  $USLKUP
                                                              BEGIN    COMPROC  CSECT    DATA     DEFCC    DROP     END
                                                              EX       FLAG     GEN      HIBAL    IDENT    LABEL    LC
                                                              LTORG    PEND     POP      PRINT    PUSH     QLTORG
                                                              RECORD   REG      REGS     START    USING    WITH
                                                              XPROC
   L3 SYS3.IS.MACLIB                                SYSB05    DEFINE   KWR      SEGCB    SIB      SYSDEFN
   L4 SYS3.MACLIB                                   SYSB02    PATH     PCW
   L5 SYS1.MACLIB                                   MVSBR9    ACB      ACBVS    DCB      IDACBACB IDACBOPT IDACBRPL
                                                              IDACB1   IDACB2   IDACB3   IDAVSACB IDAVSCB3 IDAVSOPT
                                                              IDAVSRPL IHB01    MODCB    RPL      RPLVS    TESTCB

1GLOB     (GLOB5139) (12:46) (15MAR04) Dsect Cross Reference                                                                Page  146
-Dsect     Length      Id       Defn                                                         HLASM R4.0  2004/03/15 12.46
0$$$@R0   00000000  FFFFFFFE     705
 $$$@R1   00000000  FFFFFFFD     718
 $$$@R10  00000000  FFFFFFF4     835
 $$$@R11  00000000  FFFFFFF3     848
 $$$@R12  00000000  FFFFFFF2     861
 $$$@R13  00000000  FFFFFFF1     874
 $$$@R14  00000000  FFFFFFF0     887
 $$$@R15  00000000  FFFFFFEF     900
 $$$@R2   00000000  FFFFFFFC     731
 $$$@R3   00000000  FFFFFFFB     744
 $$$@R4   00000000  FFFFFFFA     757
 $$$@R5   00000000  FFFFFFF9     770
 $$$@R6   00000000  FFFFFFF8     783
 $$$@R7   00000000  FFFFFFF7     796
 $$$@R8   00000000  FFFFFFF6     809
 $$$@R9   00000000  FFFFFFF5     822
 $$$RCP   00001000  FFFFFFEC    2626
 $$$RDEV  0000000C  FFFFFFEB    4840
 $$$RHCMRSC
          00000068  FFFFFFE6    9134
 $$$RJCB  000000D0  FFFFFFE4   10396
 $$$RNSCNCB
          000000B0  FFFFFFED    2547
 $$$RPCWD 00000008  FFFFFFEE    1220
 $$$RPFCB 000000A4  FFFFFFE5    9981
 $$$RRESOURCE
          00000018  FFFFFFE8    6546
 $$$RRSCGROUP
          0000003C  FFFFFFE9    6485
 $$$RSUBRSC
          0000411C  FFFFFFE7    6916
 $$$RTTYPE
          0000010C  FFFFFFEA    6371
 HIBAL    00000000  FFFFFFFF     691

1GLOB     (GLOB5139) (12:46) (15MAR04) Using Map                                                                            Page  147
-                                                                                            HLASM R4.0  2004/03/15 12.46
   Stmt  -----Location----- Action ----------------Using----------------- Reg Max    Last  Label and Using Text
           Count      Id           Type          Value    Range     Id        Disp   Stmt
0   922  00000000  FFFFFFFF USING  ORDINARY    00000000 00001000 FFFFFFEF  15 000          @R15,15
    926  00000000  FFFFFFFF USING  ORDINARY    00000000 00001000 FFFFFFF0  14 002    2334  @R14,14
    930  00000000  FFFFFFFF USING  ORDINARY    00000000 00001000 FFFFFFF1  13 000          @R13,13
    934  00000000  FFFFFFFF USING  ORDINARY    00000000 00001000 FFFFFFF2  12 000          @R12,12
    938  00000000  FFFFFFFF USING  ORDINARY    00000000 00001000 FFFFFFF3  11 000          @R11,11
    942  00000000  FFFFFFFF USING  ORDINARY    00000000 00001000 FFFFFFF4  10 000          @R10,10
    946  00000000  FFFFFFFF USING  ORDINARY    00000000 00001000 FFFFFFF5   9 000          @R9,9
    950  00000000  FFFFFFFF USING  ORDINARY    00000000 00001000 FFFFFFF6   8 000          @R8,8
    954  00000000  FFFFFFFF USING  ORDINARY    00000000 00001000 FFFFFFF7   7 000          @R7,7
    958  00000000  FFFFFFFF USING  ORDINARY    00000000 00001000 FFFFFFF8   6 000          @R6,6
    962  00000000  FFFFFFFF USING  ORDINARY    00000000 00001000 FFFFFFF9   5 000          @R5,5
    966  00000000  FFFFFFFF USING  ORDINARY    00000000 00001000 FFFFFFFA   4 000          @R4,4
    970  00000000  FFFFFFFF USING  ORDINARY    00000000 00001000 FFFFFFFB   3 000          @R3,3
    974  00000000  FFFFFFFF USING  ORDINARY    00000000 00001000 FFFFFFFC   2 000          @R2,2
    978  00000000  FFFFFFFF USING  ORDINARY    00000000 00001000 FFFFFFFD   1 001    2333  @R1,1
    982  00000000  FFFFFFFF USING  ORDINARY    00000000 00001000 FFFFFFFE   0 000          @R0,0
    983  00000000  FFFFFFFF DROP                                            0              0
   1314  00000017  00000001 USING  ORDINARY    00000000 00001000 FFFFFFEC  11 D5A    2307  CP,CPR
   1323  00000017  00000001 USING  ORDINARY    00022B58 00001000 00000002  12 890   11199  CV,CVR
  10715  000007D6  00000001 USING  ORDINARY    000007D6 00001000 00000001   7 172   10724  $$$43B,7
  10731  000007DA  00000001 USING  ORDINARY    00000000 00001000 FFFFFFF7   7 000          @R7,7
  10777  00000802  00000001 USING  ORDINARY    00000802 00001000 00000001   7 14A   10786  $$$46B,7
  10793  00000806  00000001 USING  ORDINARY    00000000 00001000 FFFFFFF7   7 000          @R7,7
  10839  0000082E  00000001 USING  ORDINARY    0000082E 00001000 00000001   7 122   10848  $$$49B,7
  10855  00000832  00000001 USING  ORDINARY    00000000 00001000 FFFFFFF7   7 000          @R7,7
  10901  0000085A  00000001 USING  ORDINARY    0000085A 00001000 00000001   7 0FA   10910  $$$52B,7
  10917  0000085E  00000001 USING  ORDINARY    00000000 00001000 FFFFFFF7   7 000          @R7,7
  10963  00000886  00000001 USING  ORDINARY    00000886 00001000 00000001   7 0D2   10972  $$$55B,7
  10979  0000088A  00000001 USING  ORDINARY    00000000 00001000 FFFFFFF7   7 000          @R7,7
  11025  000008B2  00000001 USING  ORDINARY    000008B2 00001000 00000001   7 0AA   11034  $$$58B,7
  11041  000008B6  00000001 USING  ORDINARY    00000000 00001000 FFFFFFF7   7 000          @R7,7
  11087  000008DE  00000001 USING  ORDINARY    000008DE 00001000 00000001   7 082   11096  $$$61B,7
  11103  000008E2  00000001 USING  ORDINARY    00000000 00001000 FFFFFFF7   7 000          @R7,7
  11149  0000090A  00000001 USING  ORDINARY    0000090A 00001000 00000001   7 05A   11158  $$$64B,7
  11165  0000090E  00000001 USING  ORDINARY    00000000 00001000 FFFFFFF7   7 000          @R7,7
  11211  00000936  00000001 USING  ORDINARY    00000936 00001000 00000001   7 032   11220  $$$67B,7
  11227  0000093A  00000001 USING  ORDINARY    00000000 00001000 FFFFFFF7   7 000          @R7,7

1         (GLOB5139) (12:46) (15MAR04) General Purpose Register Cross Reference                                             Page  148
- Register  References (M=modified, B=branch, U=USING, D=DROP, N=index)                      HLASM R4.0  2004/03/15 12.46
0    0(0)      982U   983D  1345M  2263   2331M  2331   2332M 10698  10739M 10760  10801M 10822  10863M 10884  10925M
             10946  10987M 11008  11049M 11070  11111M 11132  11173M 11194  11235M
     1(1)      978U  1345M  2263   2326M  2327M  2333M 10698  10739M 10760  10801M 10822  10863M 10884  10925M 10946
             10987M 11008  11049M 11070  11111M 11132  11173M 11194  11235M
     2(2)      974U  1345M  2263  10698  10739M 10760  10801M 10822  10863M 10884  10925M 10946  10987M 11008  11049M
             11070  11111M 11132  11173M 11194  11235M
     3(3)      970U  1345M  2263  10698  10739M 10760  10801M 10822  10863M 10884  10925M 10946  10987M 11008  11049M
             11070  11111M 11132  11173M 11194  11235M
     4(4)      966U  1345M  2263  10698  10739M 10760  10801M 10822  10863M 10884  10925M 10946  10987M 11008  11049M
             11070  11111M 11132  11173M 11194  11235M
     5(5)      962U  1345M  2263  10698  10739M 10760  10801M 10822  10863M 10884  10925M 10946  10987M 11008  11049M
             11070  11111M 11132  11173M 11194  11235M
     6(6)      958U  1345M  2263  10698  10739M 10760  10801M 10822  10863M 10884  10925M 10946  10987M 11008  11049M
             11070  11111M 11132  11173M 11194  11235M
     7(7)      954U  1345M  2256M  2256   2257B  2263   2269B 10698  10703M 10715U 10731U 10739M 10760  10765M 10777U
             10793U 10801M 10822  10827M 10839U 10855U 10863M 10884  10889M 10901U 10917U 10925M 10946  10951M 10963U
             10979U 10987M 11008  11013M 11025U 11041U 11049M 11070  11075M 11087U 11103U 11111M 11132  11137M 11149U
             11165U 11173M 11194  11199M 11211U 11227U 11235M
     8(8)      950U  1345M  2263  10698  10699M 10735  10739M 10760  10761M 10797  10801M 10822  10823M 10859  10863M
             10884  10885M 10921  10925M 10946  10947M 10983  10987M 11008  11009M 11045  11049M 11070  11071M 11107
             11111M 11132  11133M 11169  11173M 11194  11195M 11231  11235M
     9(9)      946U  1345M  2263
    10(A)      942U  1345M  2263
    11(B)      938U  1314U  1345M  2263
    12(C)      934U  1323U  1345M  1346M  1346B  2263
    13(D)      930U  1345M  2263  10695  10698  10699  10700M 10700  10735M 10739  10741  10757  10760  10761  10762M
             10762  10797M 10801  10803  10819  10822  10823  10824M 10824  10859M 10863  10865  10881  10884  10885
             10886M 10886  10921M 10925  10927  10943  10946  10947  10948M 10948  10983M 10987  10989  11005  11008
             11009  11010M 11010  11045M 11049  11051  11067  11070  11071  11072M 11072  11107M 11111  11113  11129
             11132  11133  11134M 11134  11169M 11173  11175  11191  11194  11195  11196M 11196  11231M 11235  11237
    14(E)      926U  1345M  2263   2264M  2278   2279M  2280B  2282M  2283B  2303M  2304B  2308M  2309B  2311M  2312B
              2314M  2315B  2317M  2318B  2320M  2321M  2321B  2327  10695  10741M 10744B 10757  10803M 10806B 10819
             10865M 10868B 10881  10927M 10930B 10943  10989M 10992B 11005  11051M 11054B 11067  11113M 11116B 11129
             11175M 11178B 11191  11237M 11240B
    15(F)      922U  1345M  2263  10724M 10743M 10743  10786M 10805M 10805  10848M 10867M 10867  10910M 10929M 10929
             10972M 10991M 10991  11034M 11053M 11053  11096M 11115M 11115  11158M 11177M 11177  11220M 11239M 11239

1GLOB     (GLOB5139) (12:46) (15MAR04) Diagnostic Cross Reference and Assembler Summary                                     Page  149
-                                                                                            HLASM R4.0  2004/03/15 12.46
0     No Statements Flagged in this Assembly
 HIGH LEVEL ASSEMBLER, 5696-234, RELEASE 4.0, PTF P72483
0SYSTEM: OS/390 02.10.00            JOBNAME: WYL#GLOB    STEPNAME: ASM        PROCSTEP: (NOPROC)
0Datasets Allocated for this Assembly
  Con DDname   Dataset Name                                 Volume  Member
   P1 SYSIN    WYL.GS.WYL.WYLBUR.SOURCE                     SYSB05  GLOB
   L1 SYSLIB   WYL.GS.WYL.WYLBUR.MACLIB                     SYSB05
   L2          WYL.GG.SYS.MACLIB                            SYSB05
   L3          SYS3.IS.MACLIB                               SYSB05
   L4          SYS3.MACLIB                                  SYSB02
   L5          SYS1.MACLIB                                  MVSBR9
   L6          SYS1.MODGEN                                  MVSBR9
      SYSPRINT SYS04075.T124622.RA000.WYL#GLOB.PRINT.H01    SCR101
      SYSTERM  GG$SLP.WYL#GLOB.JOB03529.D0000101.?

    3668K allocated to Buffer Pool,         2449K would be required for this to be an In-Storage Assembly
     438 Primary Input Records Read        14712 Library Records Read                  0 Work File Reads
       0 ASMAOPT Records Read               9546 Primary Print Records Written         0 Work File Writes
       0 Punch Records Written                 0 ADATA Records Written
0Assembly Start Time: 12.46.24 Stop Time: 12.46.31 Processor Time: 00.00.02.2677
 Return Code 000
