1LINE     (LINE2193) (12:47) (15MAR04) Ordinary Symbol and Literal Cross Reference                                          Page  246
 =A(JOINRTN)
               4 0000A7A4 00000001     A   49002 47710
 =A(L)         4 0000164C 00000001     A   14175 13626
 =A(L'IMTEXT)
               4 00006060 00000001     A   31755 28139  28151
 =A(L'METLINE)
               4 0000224C 00000001     A   18414 16457  17088  17276
 =A(L'METLINE)
               4 00002800 00000001     A   20282 19087
 =A(LINEMOD)
               4 0000053C 00000001     A    8179  8120
 =A(LINEMOD)
               4 00005140 00000001     A   27720 26090  26149
 =A(LINEMOD)
               4 00006108 00000001     A   31785 30717  30755
 =A(LINEMOD)
               4 00006608 00000001     A   32621 32431
 =A(LINEMOD)
               4 0000B3F8 00000001     A   51496 50848  50907
 =A(LINERD)
               4 00001054 00000001     A   12192 11843
 =A(LINERD)
               4 00003124 00000001     A   22542 21414
 =A(LINERD)
               4 00005138 00000001     A   27718 25806
 =A(LINERD)
               4 000060F8 00000001     A   31781 30628
 =A(LINERD)
               4 000065FC 00000001     A   32618 32324
 =A(MCHAR)
               4 00001618 00000001     A   14162 13327
 =A(METPUTMX)
               4 00002250 00000001     A   18415 16865
 =A(MODPRT)
               4 00000514 00000001     A    8169  6890
 =A(MODREAD)
               4 00001014 00000001     A   12176 10355  10893
 =A(MODRTN)
               4 00000528 00000001     A    8174  6983
 =A(MODS)      4 0000102C 00000001     A   12182 10966
 =A(MODS)      4 0000160C 00000001     A   14159 13038
 =A(N)         4 00001654 00000001     A   14177 13662
 =A(NEEDNUM)
               4 00007B7C 00000001     A   37169 36373
 =A(OCCNTPRT)
               4 00008548 00000001     A   39310 39066
 =A(OCCURPRT)
               4 0000853C 00000001     A   39307 38682
 =A(P)         4 0000165C 00000001     A   14179 13698
 =A(PUTLPRT)
               4 000060B4 00000001     A   31772 28821
 =A(R)         4 00001664 00000001     A   14181 13734
 =A(REMAINDR)
               4 0000168C 00000001     A   14191 13951
 =A(REPPRT)
               4 000065D4 00000001     A   32608 31969
 =A(REPRTN)
               4 000065E4 00000001     A   32612 31992
 =A(RERROR)
1LINE     (LINE2193) (12:47) (15MAR04) Ordinary Symbol and Literal Cross Reference                                          Page  247
               4 00001038 00000001     A   12185 11045
 =A(RERROR)
               4 00003618 00000001     A   23865 22806
 =A(RLINDONE)
               4 0000103C 00000001     A   12186 11082
 =A(RLINRET)
               4 00001040 00000001     A   12187 11102
 =A(RLINRETD)
               4 00001044 00000001     A   12188 11122
 =A(RNORMAL2)
               4 00001034 00000001     A   12184 11024
 =A(RNORMAL2)
               4 00003118 00000001     A   22539 20482
 =A(S)         4 0000166C 00000001     A   14183 13770
 =A(SCHINCR)
               4 00007B68 00000001     A   37164 35340  35484  35621  35744  35867
 =A(SCHOCCUR)
               4 00007B30 00000001     A   37160 34396  34532  34641
 =A(SCHPRT1)
               4 0000696C 00000001     A   33408 32964
 =A(SCHSCOLS)
               4 00007B28 00000001     A   37158 34388  34524  34633  34768  34895
 =A(SCHTOOPT)
               4 00006988 00000001     A   33415 33187
 =A(SCHTOPRT)
               4 00006984 00000001     A   33414 33150
 =A(SCHUSOPT)
               4 00006980 00000001     A   33413 33092
 =A(SCHUSPRT)
               4 0000697C 00000001     A   33412 33055
 =A(SETINCR)
               4 00007B6C 00000001     A   37165 35358  35502  35625  35748  35871
 =A(SPLITPRT)
               4 0000A744 00000001     A   48984 46047
 =A(SPLITRTN)
               4 0000A74C 00000001     A   48986 46113
 =A(T)         4 00001674 00000001     A   14185 13806
 =A(TABLPRT)
               4 000060C0 00000001     A   31775 29496
 =A(TOUSPRT)
               4 00006978 00000001     A   33411 33001
 =A(UPLOW)
               4 00009218 00000001     A   43418 42380
 =A(UPLOWTBL)
               4 00002254 00000001     A   18416 17315
 =A(WORD)      4 00001694 00000001     A   14193 13987
 =A(X)         4 0000167C 00000001     A   14187 13842
 =A(X'F')      4 00002244 00000001     A   18412 14823
 =A(X'4B')
               4 00001684 00000001     A   14189 13906
 =A(X'7FFF')
               4 00006124 00000001     A   31792 31370
 =A(YESMOD)
               4 0000983C 00000001     A   44823 44523
 =A(YESMOD)
               4 0000A794 00000001     A   48998 47265  47880
 =A(YESMPRT)
               4 0000B3E0 00000001     A   51490 50710
 =A(1)         4 00000FF4 00000001     A   12168  9016   9019   9140   9143   9202   9205   9232
1LINE     (LINE2193) (12:47) (15MAR04) Ordinary Symbol and Literal Cross Reference                                          Page  248
 =A(1)         4 00002248 00000001     A   18413 15499  15507  15576  15635  15666
 =A(1)         4 0000605C 00000001     A   31754 28111  28858  29305  29533  29609  30739  31195  31557
 =A(1)         4 00007B70 00000001     A   37166 35740  35863  36350
 =A(1)         4 00008544 00000001     A   39309 39024
 =A(1)         4 00008934 00000001     A   40443 40099  40232  40245  40254  40316  40371
 =A(1)         4 000091FC 00000001     A   43411 40820  40832  40891  40989  41841  42082  42310  43054
 =A(1)         4 0000A758 00000001     A   48989 47047
 =A(12)        4 00008514 00000001     A   39305 37564  37868  38075
 =A(12)        4 0000B3F4 00000001     A   51495 50830
 =A(16)        4 0000B3FC 00000001     A   51497 50887
 =A(20)        4 0000B400 00000001     A   51498 50946
 =A(235)       4 00000FEC 00000001     A   12166  8557  10529  10541  10789
 =A(235)       4 0000129C 00000001     A   12714 12651  12663
 =A(235)       4 0000223C 00000001     A   18410 14559  14986
 =A(235)       4 000027FC 00000001     A   20281 18708
 =A(235)       4 00003160 00000001     A   22553 22358
 =A(235)       4 0000850C 00000001     A   39303 37387  37691  38009
 =A(235)       4 00009200 00000001     A   43412 41023
 =A(235)       4 0000A7D0 00000001     A   49013 48780
 =A(3)         4 00001298 00000001     A   12713 12584
 =A(3)         4 00008540 00000001     A   39308 39002
 =A(3)         4 0000B3D4 00000001     A   51487 50484
 =A(30)        4 00006118 00000001     A   31789 31208
 =A(4)         4 000050DC 00000001     A   27695 24303
 =A(4)         4 00008504 00000001     A   39301 37325  37450  37626  37754  37930
 =A(4)         4 0000892C 00000001     A   40441 39420
 =A(4)         4 0000B3EC 00000001     A   51493 50777
 =A(5)         4 00003158 00000001     A   22551 22052
 =A(8)         4 000050E0 00000001     A   27696 24325
 =A(8)         4 00008508 00000001     A   39302 37357  37472  37658  37776  37962
 =A(8)         4 00008930 00000001     A   40442 39446
 =A(8)         4 0000B3F0 00000001     A   51494 50805
 =A(9)         4 00008938 00000001     A   40444 40266
 =A(999999999)
               4 00009234 00000001     A   43425 42989
 =AL2(L'INSLINS)
               2 000061AC 00000001     R   31801 31227
 =AL2(L'METLINE)
               2 000022BA 00000001     R   18421 16463
 =AL2(L'METSPLIT)
               2 0000107C 00000001     R   12198  9943
 =AL2(L'METSPLIT)
               2 0000287A 00000001     R   20294 19458
 =AL2(1)       2 0000107A 00000001     R   12197  9840  10200
 =AL2(1)       2 0000A7E2 00000001     R   49017 47777  48717
 =AL2(16)      2 00002878 00000001     R   20293 19427
 =AL2(235)
               2 0000105E 00000001     R   12195  9644  10659
 =AL4(-1)      4 00001048 00000001     R   12189 11609
 =AL4(-1)      4 00005100 00000001     R   27704 24821  24879  25288  25420  26245
 =AL4(-1)      4 00009B6C 00000001     R   45735 45202  45445
 =AL4(235)
               4 00009810 00000001     R   44812 43583
 =C'   Mods  '
               9 000012A4 00000001     C   12717 12493
 =C'  Edits '
               8 00001280 00000001     C   12708 12473
 =C' (Yes/No/Modify/Edit)'
              21 0000B40E 00000001     C   51504 50661
1LINE     (LINE2193) (12:47) (15MAR04) Ordinary Symbol and Literal Cross Reference                                          Page  249
 =C' already in file.'
              17 000051BC 00000001     C   27742 26409
 =C' and under '
              11 00000577 00000001     C    8185  7137
 =C' characters long, JOIN not possible.'
              36 00003168 00000001     C   22555 22408
 =C' does not exist.'
              16 000035F8 00000001     C   23860 23070
 =C' lines will fit at line '
              24 00006038 00000001     C   31750 31672
 =C' lost'
               5 000010F4 00000001     C   12207 10728
 =C' not in file.'
              13 000061B5 00000001     C   31804 28322
 =C' not in file.'
              13 0000AEDF 00000001     C   50229 50168
 =C' was not replaced.'
              18 0000661E 00000001     C   32627 32388
 =C'(backslashes are treated specially).'
              36 000060C4 00000001     C   31776 29800
 =C'(You are in Command Retry -- press BREAK to exit.)'
              50 0000287C 00000001     C   20295 19645
 =C'* COLUMN 0'
              10 0000A7D8 00000001     C   49016 45965
 =C'*+N or *-N invalid with "P"'
              27 000022F4 00000001     C   18424 14908
 =C', no line-numbers available.'
              28 0000A768 00000001     C   48993 47118
 =C'> '        2 000012A0 00000001     C   12715 12525
 =C'> '        2 0000B404 00000001     C   51499 50411
 =C'?  '       3 000028F1 00000001     C   20299 19707
 =C'? '        2 000012A2 00000001     C   12716 12545
 =C'? '        2 0000B406 00000001     C   51500 50431
 =C': invalid first edit char.  Retype line.'
              40 000015D8 00000001     C   14155 13173
 =C': invalid hex digits.'
              21 00007BA5 00000001     C   37173 34358
 =C': invalid line number for PUTLINE.'
              34 00006134 00000001     C   31797 29187
 =C': invalid line number for PUTLINET.'
              35 0000620D 00000001     C   31808 30159
 =C': invalid line oriented function.'
              33 0000368F 00000001     C   23877 23811
 =C': invalid line-number'
              21 0000367A 00000001     C   23876 23589
 =C': invalid modify character. Retype line.'
              40 000027D0 00000001     C   20279 20216
 =C': invalid TAB sequence '
              23 000061F6 00000001     C   31807 29782
 =C': Invalid with length specification'
              35 000028F4 00000001     C   20300 20070
 =C': INVALID HEX'
              13 00007BCB 00000001     C   37175 35474
 =C'already in file.'
              16 00006028 00000001     C   31749 30908  31539
 =C'by line'
               7 000051CD 00000001     C   27743 26636
 =C'characters lost at column '
              26 00001060 00000001     C   12196  9669
1LINE     (LINE2193) (12:47) (15MAR04) Ordinary Symbol and Literal Cross Reference                                          Page  250
 =C'characters past column '
              23 000010DD 00000001     C   12206 10689
 =C'equal to '
               9 00000582 00000001     C    8186  7253
 =C'has already been joined.'
              24 000035E0 00000001     C   23859 22902
 =C'in: invalid.  (2 range specifications not allowed.)'
              51 00007BFF 00000001     C   37179 37080
 =C'in: invalid.  Missing range. '
              29 00007C32 00000001     C   37180 37113
 =C'over '
               5 00000572 00000001     C    8184  7083
 =C'split(s) not possible.'
              22 0000107E 00000001     C   12199 10099
 =C'under '
               6 00000542 00000001     C    8181  7195
 =C'Answer Yes, No, Modify or Edit.'
              31 0000B423 00000001     C   51505 50745  50956
 =C'Can''t go past line 99999.999'
              28 00005158 00000001     C   27726 26507
 =C'Can''t split line '
              17 0000A7E4 00000001     C   49018 47071
 =C'Change'
               6 00009852 00000001     C   44829 44519
 =C'Characters lost in line '
              24 000097F8 00000001     C   44811 43958  44130
 =C'Collect aborted '
              16 000050B8 00000001     C   27689 26597
 =C'CHANGE ... TO UPLOW is not available.'
              37 00007BDA 00000001     C   37178 36076
 =C'COLLECT not possible.'
              21 000031AA 00000001     C   22559 22008
 =C'Delete line '
              12 00006074 00000001     C   31760 28334
 =C'Delete'
               6 00009B82 00000001     C   45741 45361
 =C'DEL '      4 00006084 00000001     C   31762 28362
 =C'Ending column must be specified when using LOWER.'
              49 00009285 00000001     C   43430 42037
 =C'Ending column must be specified when using UPLOW.'
              49 000092B6 00000001     C   43431 42278
 =C'Ending column must be specified when using UPPER.'
              49 00009254 00000001     C   43429 41796
 =C'Exchange line-numbers can''t be the same.'
              40 0000AE40 00000001     C   50208 50015
 =C'Exchange'
               8 0000AE08 00000001     C   50206 49443
 =C'Function name missing.'
              22 00003646 00000001     C   23873 23686
 =C'Insert line '
              12 00006098 00000001     C   31767 28581
 =C'It is not possible to have lines '
              33 00000548 00000001     C    8182  6955
 =C'INSERT not possible.'
              20 00003140 00000001     C   22549 21975
 =C'Join not done, '
              15 0000A81F 00000001     C   49021 48790
 =C'Join'      4 0000A7B0 00000001     C   49005 47876
 =C'Joined line would be too long -- at line'
1LINE     (LINE2193) (12:47) (15MAR04) Ordinary Symbol and Literal Cross Reference                                          Page  251
              40 0000A710 00000001     C   48980 48808
 =C'JOIN not done, too many lines -- at line'
              40 0000A6E8 00000001     C   48979 48662
 =C'Line '
               5 0000365C 00000001     C   23874 22855  23023
 =C'Line '
               5 000051B7 00000001     C   27741 26362
 =C'Line '
               5 000061B0 00000001     C   31803 28274
 =C'Line '
               5 00006630 00000001     C   32628 32341
 =C'Line '
               5 0000AEDA 00000001     C   50228 50121
 =C'Line is already '
              16 00003100 00000001     C   22536 22368
 =C'Line was not changed.'
              21 000010F9 00000001     C   12208 11262
 =C'Line'      4 00006110 00000001     C   31787 30861  31492
 =C'Missing line-number on PUTLINE command.'
              39 000061CF 00000001     C   31806 29034
 =C'Missing line-number on PUTLINET command.'
              40 00006000 00000001     C   31748 30006
 =C'Missing line-number pair for EXCHANGE command.'
              46 0000AEAC 00000001     C   50227 49773
 =C'Missing line-number.'
              20 00003630 00000001     C   23871 23486
 =C'Missing line-number(s) for INSERT command.'
              42 00006180 00000001     C   31799 30404
 =C'Missing modify char (column expected before tab char).'
              54 000022BE 00000001     C   18423 17464
 =C'Missing modify char.'
              20 00002840 00000001     C   20290 19924
 =C'Missing occurance specification.'
              32 000084D8 00000001     C   39297 39203
 =C'Missing operand. '
              17 00007BBA 00000001     C   37174 35248  36583
 =C'Missing operand.'
              16 00007B08 00000001     C   37153 36153
 =C'Missing second line-number for EXCHANGE command.'
              48 0000AE10 00000001     C   50207 49840
 =C'Missing CHANGE command options.'
              31 00007B86 00000001     C   37172 34240
 =C'Missing TO or USING for the CHANGE command. '
              44 00007B38 00000001     C   37162 35041
 =C'Modify characters invalid in deletion range.'
              44 00002258 00000001     C   18417 17800  18242
 =C'Modify chars invalid in GET range'
              33 000028AE 00000001     C   20296 18672
 =C'Must have at least two lines to join.'
              37 0000A7FA 00000001     C   49020 47787
 =C'New GETs will not fit in GET stack'
              34 00002854 00000001     C   20291 18718
 =C'No line-number available, '
              26 00003190 00000001     C   22558 21942
 =C'No line-numbers available, '
              27 000010C2 00000001     C   12205 10081
 =C'No lines '
               9 00000569 00000001     C    8183  7031
 =C'No lines in USING range. '
1LINE     (LINE2193) (12:47) (15MAR04) Ordinary Symbol and Literal Cross Reference                                          Page  252
              25 000092E7 00000001     C   43432 42549  42577
 =C'No lines in USING range.'
              24 000091C8 00000001     C   43403 42766
 =C'No more line-numbers available, collect aborted.'
              48 00000FA0 00000001     C   12163 11720
 =C'No next line, JOIN not possible.'
              32 000030E0 00000001     C   22535 22322
 =C'No previous line.'
              17 000051A6 00000001     C   27740 26047
 =C'No previous line.'
              17 00006230 00000001     C   31809 30676
 =C'No repeating done.'
              18 00009242 00000001     C   43428 42693
 =C'Not enough lines for using.'
              27 00009300 00000001     C   43433 42656
 =C'Nothing found to change.'
              24 00006950 00000001     C   33406 33363
 =C'Number is too big.'
              18 00002284 00000001     C   18418 14569  14996
 =C'Number must be positive.'
              24 00002218 00000001     C   18406 14528  14956
 =C'Numeric overflow in CHANGE command. '
              36 0000893C 00000001     C   40445 40276
 =C'Numeric overflow in CHANGE command.'
              35 0000931B 00000001     C   43434 43012
 =C'NEXT line does not exist.'
              25 00003661 00000001     C   23875 22968
 =C'Only '
               5 00006268 00000001     C   31811 31632
 =C'Original numbering kept.'
              24 00000FD0 00000001     C   12164 11876
 =C'Original numbering kept.'
              24 00005050 00000001     C   27687 25877
 =C'Previous split(s) aborted.'
              26 00001094 00000001     C   12200 10403
 =C'PUTEND not possible, no more line-numbers.'
              42 00006156 00000001     C   31798 29284
 =C'Renumbered by '
              14 000010B2 00000001     C   12203 11752
 =C'Renumbered by '
              14 00005196 00000001     C   27738 26711
 =C'Repeat'
               6 0000923C 00000001     C   43427 42672
 =C'Replace line '
              13 000061C2 00000001     C   31805 28505
 =C'Split not valid in command retry.'
              33 000028CF 00000001     C   20297 19393
 =C'Split'
               5 0000A7F5 00000001     C   49019 47261
 =C'String is longer than columns given.'
              36 00008518 00000001     C   39306 38566
 =C'Too many insert line numbers specified.'
              39 00006241 00000001     C   31810 31218
 =C'Too many line splits specified (>16)'
              36 00002808 00000001     C   20284 19437
 =C'Too many PUT operations'
              23 0000230F 00000001     C   18425 16875
 =C'Word term positioned under a blank'
              34 00002298 00000001     C   18420 15438
1LINE     (LINE2193) (12:47) (15MAR04) Ordinary Symbol and Literal Cross Reference                                          Page  253
 =CL(L'CPATITL)'Newly collected text'
              80 00005068 00000001     C   27688 25934
 =CL1'+'       1 00007BD8 00000001     C   37176 35689
 =CL1'-'       1 00007BD9 00000001     C   37177 35812
 =CL8'CR'      8 00007B00 00000001     C   37152 36073
 =CL8'NOCHANGE'
               8 00006948 00000001     C   33405 33360
 =CL8'NOLINESX'
               8 00005FF8 00000001     C   31747 28319
 =F'-1'        4 00000FE8 00000001     F   12165  8492   8867
 =F'-1'        4 000050EC 00000001     F   27699 24439  24440  26226  27079
 =F'-1'        4 00009B5C 00000001     F   45731 45176  45177  45178  45453  45514  45612
 =F'-1000'
               4 000050FC 00000001     F   27703 24805
 =F'-1000'
               4 00006990 00000001     F   33417 33296
 =F'-1000'
               4 0000AE80 00000001     F   50215 49320
 =F'1'         4 00001288 00000001     F   12709 12288
 =F'5'         4 00005174 00000001     F   27727 26518
 =H'-1'        2 0000318E 00000001     H   22557 21635
 =H'-4'        2 0000B408 00000001     H   51501 50491  50811
 =H'1'         2 00005192 00000001     H   27736 25781
 =H'10'        2 00008966 00000001     H   40448 40310
 =H'2'         2 000051A4 00000001     H   27739 27581
 =V(ACTCHK)
               4 00006068 00000001     V   31757 28267
 =V(ACTCHK)
               4 0000AE68 00000001     V   50209 49165
 =V(ADDER)
               4 00005108 00000001     V   27706 24855  26287
 =V(ADDER)
               4 00009230 00000001     V   43424 42788
 =V(BTD)       4 00000FFC 00000001     V   12170  9701
 =V(CKQUOTES)
               4 00007B18 00000001     V   37154 34311  34473  34603  35314  35428
 =V(CLRTEXT)
               4 000050E8 00000001     V   27698 24414
 =V(CMDFIN)
               4 0000608C 00000001     V   31764 28443
 =V(CNTRANGE)
               4 00005178 00000001     V   27728 26537
 =V(CVEXNO)
               4 00001050 00000001     V   12191 11769
 =V(CVEXNO)
               4 00003620 00000001     V   23867 22872  23040
 =V(CVEXNO)
               4 00005154 00000001     V   27725 26379  26653  26728
 =V(CVEXNO)
               4 00006070 00000001     V   31759 28291  28351  28366  28522  28598  30878  31509  31689
 =V(CVEXNO)
               4 00006604 00000001     V   32620 32358
 =V(CVEXNO)
               4 00009820 00000001     V   44816 43975  44147
 =V(CVEXNO)
               4 0000A764 00000001     V   48992 47088  48679  48825
 =V(CVEXNO)
               4 0000AEA4 00000001     V   50224 50138
 =V(CVEXNO)
1LINE     (LINE2193) (12:47) (15MAR04) Ordinary Symbol and Literal Cross Reference                                          Page  254
               4 0000B3C8 00000001     V   51484 50377
 =V(DELRANGE)
               4 0000128C 00000001     V   12710 12294
 =V(DELRANGE)
               4 00003134 00000001     V   22546 21633
 =V(DELRANGE)
               4 0000511C 00000001     V   27711 25175
 =V(DELRANGE)
               4 00009B70 00000001     V   45736 45212  45509
 =V(DELRANGE)
               4 0000A7BC 00000001     V   49008 47968
 =V(DEQSTR)
               4 00007B34 00000001     V   37161 34478  34608
 =V(DTB)       4 00002234 00000001     V   18408 14508
 =V(DTB)       4 00005188 00000001     V   27732 27618
 =V(DTB)       4 00006120 00000001     V   31791 31337
 =V(EDTCOMNH)
               4 00006088 00000001     V   31763 28374
 =V(ENDLNO)
               4 000060BC 00000001     V   31774 29267
 =V(GETLINE)
               4 00005118 00000001     V   27710 25140  25542  26083
 =V(GETLINE)
               4 00006104 00000001     V   31784 30713
 =V(GETLINE)
               4 0000A754 00000001     V   48988 46902
 =V(GETLNO)
               4 0000510C 00000001     V   27707 24888  25040
 =V(GETLNO)
               4 00009B7C 00000001     V   45739 45598
 =V(GETLNO)
               4 0000A75C 00000001     V   48990 47050
 =V(GTFRST)
               4 00009220 00000001     V   43420 42604  42732
 =V(GTFRSTLN)
               4 0000921C 00000001     V   43419 42532
 =V(HELP)      4 00002834 00000001     V   20287 19726
 =V(HEXSTR)
               4 00007B1C 00000001     V   37155 34316  35433
 =V(LENCHK)
               4 000060A8 00000001     V   31769 28644
 =V(LENCHK)
               4 0000982C 00000001     V   44819 44377
 =V(LENCHK)
               4 0000A78C 00000001     V   48996 47167  47213  47806
 =V(LENCHKM)
               4 0000100C 00000001     V   12174 10157  10801  11983
 =V(LENCHKM)
               4 0000312C 00000001     V   22544 21487
 =V(LENCHKM)
               4 00005144 00000001     V   27721 26174
 =V(LENCHKM)
               4 0000610C 00000001     V   31786 30819
 =V(LENCHKM)
               4 0000660C 00000001     V   32622 32513
 =V(LINEMOD)
               4 00009834 00000001     V   44821 44416
 =V(LISTLINE)
               4 00001010 00000001     V   12175 10208  10833
1LINE     (LINE2193) (12:47) (15MAR04) Ordinary Symbol and Literal Cross Reference                                          Page  255
 =V(LISTLINE)
               4 00005124 00000001     V   27713 25561
 =V(LISTLINE)
               4 00006094 00000001     V   31766 28554
 =V(LISTLINE)
               4 000065F8 00000001     V   32617 32309
 =V(LISTLINE)
               4 00009838 00000001     V   44822 44494
 =V(LISTLINE)
               4 00009B74 00000001     V   45737 45341
 =V(LISTLINE)
               4 0000A790 00000001     V   48997 47188  47235  47828
 =V(LISTLINE)
               4 0000AE88 00000001     V   50217 49356  49392
 =V(LMSGCHK)
               4 00009830 00000001     V   44820 44402  44515
 =V(LOCATE)
               4 00001004 00000001     V   12172 10020  11618
 =V(LOCATE)
               4 0000311C 00000001     V   22540 21222  21889  22295
 =V(LOCATE)
               4 0000362C 00000001     V   23870 22926
 =V(LOCATE)
               4 00005120 00000001     V   27712 25228  25356  26340
 =V(LOCATE)
               4 00006064 00000001     V   31756 28247  28482  30781  31470
 =V(LOCATE)
               4 0000AE98 00000001     V   50221 49909  50028
 =V(LOCLIST)
               4 00005128 00000001     V   27714 25582
 =V(LOCLIST)
               4 000060A4 00000001     V   31768 28624  30468
 =V(LOWMULT)
               4 00005104 00000001     V   27705 24851
 =V(LRTRIM)
               4 0000A7CC 00000001     V   49012 48759
 =V(NDETRNG)
               4 00000510 00000001     V    8168  6868
 =V(NDETRNG)
               4 000065D0 00000001     V   32607 31908
 =V(NDETRNG)
               4 0000698C 00000001     V   33416 33282
 =V(NDETRNG)
               4 00007B80 00000001     V   37170 37095
 =V(NDETRNG)
               4 00009B48 00000001     V   45726 44970
 =V(NDETRNG)
               4 0000A740 00000001     V   48983 45986  47583
 =V(NOOPTS)
               4 000050C8 00000001     V   27690 24023
 =V(NOTVALID)
               4 00000538 00000001     V    8178  7643   7755   7871
 =V(NOTVALID)
               4 00005184 00000001     V   27731 27289  27575  27596  27634
 =V(NOTVALID)
               4 0000611C 00000001     V   31790 31315  31353  31379
 =V(NOTVALID)
               4 00007B24 00000001     V   37157 34379  34494  34624
 =V(NOTVALID)
1LINE     (LINE2193) (12:47) (15MAR04) Ordinary Symbol and Literal Cross Reference                                          Page  256
               4 00008510 00000001     V   39304 37395  37699  38017  38083  39010
 =V(NSCAN)
               4 00000518 00000001     V    8170  6894
 =V(NSCAN)
               4 00003114 00000001     V   22538 20438
 =V(NSCAN)
               4 00003614 00000001     V   23864 22763
 =V(NSCAN)
               4 000050D4 00000001     V   27693 24276  24370  24567
 =V(NSCAN)
               4 00006054 00000001     V   31752 27875  28825  29500  30369  31255
 =V(NSCAN)
               4 000065D8 00000001     V   32609 31973
 =V(NSCAN)
               4 00006970 00000001     V   33409 32968  33005  33059  33096  33154  33191
 =V(NSCAN)
               4 00007B74 00000001     V   37167 36307  36377
 =V(NSCAN)
               4 000084FC 00000001     V   39299 37297  37423  37598  37727  37902  38686  39070
 =V(NSCAN)
               4 00008924 00000001     V   40439 39393
 =V(NSCAN)
               4 00009B50 00000001     V   45728 44993
 =V(NSCAN)
               4 0000A738 00000001     V   48981 45925  46051  47649
 =V(NSCAN)
               4 0000AE70 00000001     V   50211 49190  49228  49266
 =V(NSCAN)
               4 0000B3E4 00000001     V   51491 50714
 =V(NUMRANGE)
               4 00001058 00000001     V   12193 11927
 =V(NUMRANGE)
               4 0000512C 00000001     V   27715 25731  25966
 =V(PAGECLR)
               4 000050F8 00000001     V   27702 24724
 =V(PAGELINE)
               4 00005134 00000001     V   27717 25785
 =V(PAGELINE)
               4 000060F0 00000001     V   31779 30568
 =V(PAGELINE)
               4 000065EC 00000001     V   32614 32236
 =V(PAGELINE)
               4 00009844 00000001     V   44825 44730
 =V(PAGEMOD)
               4 000060F4 00000001     V   31780 30585
 =V(PAGEMOD)
               4 000065F0 00000001     V   32615 32253
 =V(PAGEMOD)
               4 00009848 00000001     V   44826 44746
 =V(PAGERES)
               4 0000050C 00000001     V    8167  6850
 =V(PAGETCHK)
               4 000050F4 00000001     V   27701 24720
 =V(PRESS)
               4 00001020 00000001     V   12179 10478  11580
 =V(PRESS)
               4 00005148 00000001     V   27722 26178
 =V(PRESS)
               4 000060AC 00000001     V   31770 28648  30823
1LINE     (LINE2193) (12:47) (15MAR04) Ordinary Symbol and Literal Cross Reference                                          Page  257
 =V(PRESS)
               4 00006610 00000001     V   32623 32517
 =V(PRESS)
               4 0000A7B4 00000001     V   49006 47892
 =V(PREVLNO)
               4 00005110 00000001     V   27708 24963  25506  26030
 =V(PREVLNO)
               4 000060FC 00000001     V   31782 30659
 =V(PUTLINE)
               4 00005130 00000001     V   27716 25768
 =V(PUTLINE)
               4 000060B8 00000001     V   31773 28887  29334  29858  30556
 =V(PUTLINE)
               4 00009840 00000001     V   44824 44582
 =V(PUTLINE)
               4 0000A798 00000001     V   48999 47293  47319
 =V(RDRNG)
               4 0000052C 00000001     V    8175  6986
 =V(RDRNG)
               4 000065E8 00000001     V   32613 31995
 =V(RDRNG)
               4 0000699C 00000001     V   33420 33303
 =V(RDRNG)
               4 00009B68 00000001     V   45734 45186
 =V(RDRNG)
               4 0000A750 00000001     V   48987 46116  47713
 =V(RNGABORT)
               4 000065F4 00000001     V   32616 32269
 =V(RNGABORT)
               4 0000984C 00000001     V   44827 44762
 =V(RTRIM)
               4 00009818 00000001     V   44814 43927  44101
 =V(SCANCHK)
               4 0000051C 00000001     V    8171  6908
 =V(SCANCHK)
               4 000050D8 00000001     V   27694 24290  24384  24581
 =V(SCANCHK)
               4 00006058 00000001     V   31753 27889  28839  29514  30383  31269
 =V(SCANCHK)
               4 000065DC 00000001     V   32610 31987
 =V(SCANCHK)
               4 00006974 00000001     V   33410 32982  33019  33073  33110  33168  33205
 =V(SCANCHK)
               4 00007B78 00000001     V   37168 36321  36391
 =V(SCANCHK)
               4 00008500 00000001     V   39300 37311  37437  37612  37741  37916  38700  39084
 =V(SCANCHK)
               4 00008928 00000001     V   40440 39407
 =V(SCANCHK)
               4 00009B54 00000001     V   45729 45007
 =V(SCANCHK)
               4 0000A73C 00000001     V   48982 45939  46065  47663
 =V(SCANCHK)
               4 0000AE74 00000001     V   50212 49204  49242
 =V(SCDQUOTE)
               4 00007B64 00000001     V   37163 35335
 =V(SCDQUOTE)
               4 0000A7C0 00000001     V   49009 48217
 =V(SEG)       4 00000520 00000001     V    8172  6967   7043   7095   7149   7207   7265
1LINE     (LINE2193) (12:47) (15MAR04) Ordinary Symbol and Literal Cross Reference                                          Page  258
 =V(SEG)       4 00000FF8 00000001     V   12169  9681  10093  10701  11764
 =V(SEG)       4 00001290 00000001     V   12711 12521
 =V(SEG)       4 00001610 00000001     V   14160 13167
 =V(SEG)       4 0000282C 00000001     V   20285 19657  20064  20210
 =V(SEG)       4 0000313C 00000001     V   22548 21954  22380
 =V(SEG)       4 0000361C 00000001     V   23866 22867  23035  23064  23583  23805
 =V(SEG)       4 00005150 00000001     V   27724 26374  26403  26609  26723
 =V(SEG)       4 0000606C 00000001     V   31758 28286  28315  28346  28517  28593  29181  29776  29794  30153  31644
                                                 31684
 =V(SEG)       4 00006600 00000001     V   32619 32353  32382
 =V(SEG)       4 00007B20 00000001     V   37156 34352  35468
 =V(SEG)       4 0000922C 00000001     V   43423 42705
 =V(SEG)       4 0000981C 00000001     V   44815 43970  44142
 =V(SEG)       4 0000A760 00000001     V   48991 47083  47112  48802
 =V(SEG)       4 0000AEA0 00000001     V   50223 50133  50162
 =V(SEG)       4 0000B3CC 00000001     V   51485 50407  50655
 =V(SEGB)      4 00003624 00000001     V   23868 22896
 =V(SEGB)      4 0000517C 00000001     V   27729 26648
 =V(SEGB)      4 00006114 00000001     V   31788 30873  30902  31504  31533
 =V(SEGB)      4 0000A7C8 00000001     V   49011 48674  48820
 =V(SEGCLR)
               4 0000A7A8 00000001     V   49003 47739
 =V(SEGCR)
               4 00001000 00000001     V   12171  9725  10111  10415  10740  11732
 =V(SEGCR)
               4 00001614 00000001     V   14161 13185
 =V(SEGCR)
               4 00002238 00000001     V   18409 14540  14581  14920  14968  15008  15450  16887  17476  17812  18254
 =V(SEGCR)
               4 000027F8 00000001     V   20280 18684  18730  19405  19449  19818  19936  20082  20228
 =V(SEGCR)
               4 00003154 00000001     V   22550 21987  22020  22334  22420
 =V(SEGCR)
               4 00003628 00000001     V   23869 22914  22980  23082  23498  23601  23698  23823
 =V(SEGCR)
               4 0000513C 00000001     V   27719 26059
 =V(SEGCR)
               4 00006100 00000001     V   31783 30688
 =V(SEGCR)
               4 00009224 00000001     V   43421 42668
 =V(SEGCR)
               4 0000A784 00000001     V   48994 47130
 =V(SEGCR)
               4 0000B3E8 00000001     V   51492 50757  50968
 =V(SEGDC)
               4 00000530 00000001     V    8176  7116   7170   7228   7286
 =V(SEGDC)
               4 00001028 00000001     V   12181 10722
 =V(SEGDC)
               4 00003164 00000001     V   22554 22402
 =V(SEGDC)
               4 00006128 00000001     V   31793 31666
 =V(SEGWR)
               4 00000534 00000001     V    8177  7315
 =V(SEGWR)
               4 00000FF0 00000001     V   12167  8850  10240  10858  11274  11793  11888
 =V(SEGWR)
               4 00002830 00000001     V   20286 19675
 =V(SEGWR)
1LINE     (LINE2193) (12:47) (15MAR04) Ordinary Symbol and Literal Cross Reference                                          Page  259
               4 00005180 00000001     V   27730 26752
 =V(SEGWR)
               4 000060EC 00000001     V   31778 30493
 =V(SEGWR)
               4 00006618 00000001     V   32625 32567
 =V(SEGWR)
               4 00009824 00000001     V   44817 43999  44171  44561
 =V(SEGWR)
               4 0000A7AC 00000001     V   49004 47853
 =V(SEGWR)
               4 0000AE8C 00000001     V   50218 49381  49417
 =V(SEGWR)
               4 0000B3D8 00000001     V   51488 50628
 =V(SELDELTA)
               4 00001008 00000001     V   12173 10120  11743
 =V(SELDELTA)
               4 0000315C 00000001     V   22552 22059
 =V(SELDELTA)
               4 00005114 00000001     V   27709 25099  26521  26668
 =V(SELDELTA)
               4 0000612C 00000001     V   31794 31698
 =V(SELDELTA)
               4 0000A788 00000001     V   48995 47142
 =V(STOW)      4 00001024 00000001     V   12180 10482  11584
 =V(STOW)      4 0000514C 00000001     V   27723 26189
 =V(STOW)      4 000060B0 00000001     V   31771 28652  30844
 =V(STOW)      4 00006614 00000001     V   32624 32521  32540
 =V(STOW)      4 0000A7B8 00000001     V   49007 47896
 =V(STOW)      4 0000AE94 00000001     V   50220 49462  49472
 =V(TREAD)
               4 00001294 00000001     V   12712 12569
 =V(TREAD)
               4 0000B3D0 00000001     V   51486 50460
 =V(TREADQ)
               4 0000B3DC 00000001     V   51489 50669
 =V(UNPRESS)
               4 0000104C 00000001     V   12190 11623
 =V(UNPRESS)
               4 00003120 00000001     V   22541 21243  22454
 =V(UNPRESS)
               4 00006090 00000001     V   31765 28550
 =V(UNPRESS)
               4 0000AE84 00000001     V   50216 49352  49388
 =V(YESREQ)
               4 00006080 00000001     V   31761 28355  28526  28602
 =V(YESRTN)
               4 00009228 00000001     V   43422 42676
 =V(YESRTN)
               4 00009B78 00000001     V   45738 45365
 =V(YESRTN)
               4 0000AE90 00000001     V   50219 49447
 =X'0000000F'
               4 00008960 00000001     X   40446 40312
 =X'15'        1 000028F0 00000001     X   20298 19663
 =X'40000000'
               4 000091F8 00000001     X   43410 40677  40737  42592
 =X'40000000'
               4 00009828 00000001     X   44818 44229
 =X'402020202020202020202020202020202020'
1LINE     (LINE2193) (12:47) (15MAR04) Ordinary Symbol and Literal Cross Reference                                          Page  260
              18 00008968 00000001     X   40449 40349
 =Y((L'NSCNCB+3)/4*4)
               2 0000518E 00000001     Y   27734 24335  24390
 =Y((L'NSCNCB+3)/4*4)
               2 0000854E 00000001     Y   39312 39091
 =Y((L'NSCNCB+3)/4*4)
               2 0000A7D6 00000001     Y   49015 45945
 =Y((L'NSCNCB+3)/4*4)
               2 0000B40C 00000001     Y   51503 50981
 =Y((R0+1-(R15)+16*((R15)/(R0+1))/((R15)/(R0+1)))*4)
               2 00005194 00000001     Y   27737 25988
 =Y((R1+1-(R0)+16*((R0)/(R1+1))/((R0)/(R1+1)))*4)
               2 000010AE 00000001     Y   12201 10491
 =Y((R1+1-(R0)+16*((R0)/(R1+1))/((R0)/(R1+1)))*4)
               2 00009850 00000001     Y   44828 44405
 =Y((R1+1-(R15)+16*((R15)/(R1+1))/((R15)/(R1+1)))*4)
               2 000010B0 00000001     Y   12202 10629
 =Y((R3+1-(R15)+16*((R15)/(R3+1))/((R15)/(R3+1)))*4)
               2 000010C0 00000001     Y   12204 11937
 =Y((R3+1-(R15)+16*((R15)/(R3+1))/((R15)/(R3+1)))*4)
               2 00005190 00000001     Y   27735 25734  25970
 =Y((12+3)/4*4)
               2 00000540 00000001     Y    8180  6900
 =Y((12+3)/4*4)
               2 0000318C 00000001     Y   22556 20444
 =Y((12+3)/4*4)
               2 00003644 00000001     Y   23872 22769
 =Y((12+3)/4*4)
               2 0000518C 00000001     Y   27733 24282  24376  24573
 =Y((12+3)/4*4)
               2 00006130 00000001     Y   31795 27881  28831  29506  30375  31261
 =Y((12+3)/4*4)
               2 0000661C 00000001     Y   32626 31979
 =Y((12+3)/4*4)
               2 000069A0 00000001     Y   33421 32974  33011  33065  33102  33160  33197
 =Y((12+3)/4*4)
               2 00007B84 00000001     Y   37171 36313  36383
 =Y((12+3)/4*4)
               2 0000854C 00000001     Y   39311 37303  37429  37604  37733  37908  38692  39076
 =Y((12+3)/4*4)
               2 00008964 00000001     Y   40447 39399
 =Y((12+3)/4*4)
               2 00009B80 00000001     Y   45740 44999
 =Y((12+3)/4*4)
               2 0000A7D4 00000001     Y   49014 45931  46057  47655
 =Y((12+3)/4*4)
               2 0000AEA8 00000001     Y   50225 49196  49234  49272
 =Y((12+3)/4*4)
               2 0000B40A 00000001     Y   51502 50720
 =Y((235+3)/4*4)
               2 00006132 00000001     Y   31796 28557
 =Y((235+3)/4*4)
               2 0000AEAA 00000001     Y   50226 49420
 =Y(L'INSLINS)
               2 000061AA 00000001     Y   31800 30412
 =Y(L'METLINE)
               2 000022BC 00000001     Y   18422 17094  17282
 =Y(L'METLINE)
               2 00002876 00000001     Y   20292 19093
1LINE     (LINE2193) (12:47) (15MAR04) Ordinary Symbol and Literal Cross Reference                                          Page  261
 =Y(0,235)
               2 0000101C 00000001     Y   12178 10441  11669
 =Y(0,235)
               2 00003128 00000001     Y   22543 21467
 =Y(10)        2 00002296 00000001     Y   18419 14824
 =Y(2)         2 000061AE 00000001     Y   31802 31300
 =Y(4)         2 0000105C 00000001     Y   12194  9098

1LINE     (LINE2193) (12:47) (15MAR04) Macro and Copy Code Source Summary                                                   Page  262
- Con Source                                        Volume    Members                        HLASM R4.0  2004/03/15 12.47
0     PRIMARY INPUT                                           CSECT    DROP     END      EX       LTORG    MCHAR    POP
                                                              PRINT    PUSH     START    USING
   L1 WYL.GS.WYL.WYLBUR.MACLIB                      SYSB05    ABORT    AINFO    BASE     BOMB     BTD      COLINFO
                                                              COMMENT  CONTROL  CP       CPLOCAL  CV       CVLOCAL  DTB
                                                              ERROR    JCB      RDRNG    RG       RTNCODES SCAN
                                                              SCANCB   SCANCHK  SCBKUP   SCCBADR  SCDQUOTE SCINFO
                                                              SCINIT   SCKW     SCPOP    SCPUSH   SCTOK    TCLEAR   TNUM
                                                              TREAD    TSEG     TTYPE    TWRITE   VLTORG   XTRACE
   L2 WYL.GG.SYS.MACLIB                             SYSB05    $BC      $BFLKUP  $BV      $CCLKUP  $CRS     $CSS     $L
                                                              $LA      $LBLAD   $LEXP    $LOR     $REL     $RGLKUP
                                                              $USLKUP  ACALL    BEGIN    CEIL     CLEAR    CMPR
                                                              COMPROC  CSECT    DATA     DECR     DEFCC    DEX      DROP
                                                              DTEX     ELSE     ELSEIF   END      EX       EXIT     FLAG
                                                              FLIP     FLOOR    GEN      HIBAL    IDENT    IF       INCR
                                                              LABEL    LC       LS       LT       LTH      LTORG    MOVE
                                                              PEND     POP      PRETURN  PRINT    PROC     PUSH
                                                              QLTORG   RECORD   REG      REGS     SET      SETMSG
                                                              START    TDEX     TEX      USING    VCALL    WHILE    WITH
                                                              XPROC
   L3 SYS3.IS.MACLIB                                SYSB05    SEG      SEGCB    SEGCLR   SEGDC    SEGLD    SEGWR    SIB
                                                              SYSDEFN  XPOP     XPUSH

1LINE     (LINE2193) (12:47) (15MAR04) Dsect Cross Reference                                                                Page  263
-Dsect     Length      Id       Defn                                                         HLASM R4.0  2004/03/15 12.47
0$$$@R0   00000000  FFFFFFFE     705
 $$$@R1   00000000  FFFFFFFD     718
 $$$@R10  00000000  FFFFFFF4     835
 $$$@R11  00000000  FFFFFFF3     848
 $$$@R12  00000000  FFFFFFF2     861
 $$$@R13  00000000  FFFFFFF1     874
 $$$@R14  00000000  FFFFFFF0     887
 $$$@R15  00000000  FFFFFFEF     900
 $$$@R2   00000000  FFFFFFFC     731
 $$$@R3   00000000  FFFFFFFB     744
 $$$@R4   00000000  FFFFFFFA     757
 $$$@R5   00000000  FFFFFFF9     770
 $$$@R6   00000000  FFFFFFF8     783
 $$$@R7   00000000  FFFFFFF7     796
 $$$@R8   00000000  FFFFFFF6     809
 $$$@R9   00000000  FFFFFFF5     822
 $$$RCHWA 000008CC  FFFFFFDD   32651
 $$$RCOLWA
          00000122  FFFFFFE3   24073
 $$$RCP   00001000  FFFFFFEC    2483
 $$$RCV   00000FB0  FFFFFFEE    1208
 $$$RDEV  0000000C  FFFFFFEB    4697
 $$$REDWA 00000001  FFFFFFE4   12737
 $$$REXCHWA
          00000200  FFFFFFD8   49030
 $$$RGETIWA
          0000001C  FFFFFFDB   42898
 $$$RIMWA 00000110  FFFFFFE2   27951
 $$$RINSWA
          00000288  FFFFFFDF   30193
 $$$RJCB  000000D0  FFFFFFE9    6335
 $$$RJOINWA
          000002B8  FFFFFFD9   47454
 $$$RMETPDATA
          00000004  FFFFFFE6    8222
 $$$RMETSPLIT
          00000004  FFFFFFE7    8199
 $$$RMETWA
          00000396  FFFFFFE5    8247
 $$$RMODWA
          00000006  FFFFFFE8    6639
 $$$RNSCNCB
          000000B0  FFFFFFED    2404
 $$$RPUTLWA
          00000004  FFFFFFE1   28723
 $$$RREPWA
          00000100  FFFFFFDE   31827
 $$$RSETIWA
          00000010  FFFFFFDC   39867
 $$$RSPLITWA
          00000314  FFFFFFDA   45750
 $$$RTABLWA
          000000F7  FFFFFFE0   29396
 $$$RTTYPE
          0000010C  FFFFFFEA    6228
1LINE     (LINE2193) (12:47) (15MAR04) Dsect Cross Reference                                                                Page  264
 HIBAL    00000000  FFFFFFFF     691

1LINE     (LINE2193) (12:47) (15MAR04) Using Map                                                                            Page  265
-                                                                                            HLASM R4.0  2004/03/15 12.47
   Stmt  -----Location----- Action ----------------Using----------------- Reg Max    Last  Label and Using Text
           Count      Id           Type          Value    Range     Id        Disp   Stmt
0   922  00000000  FFFFFFFF USING  ORDINARY    00000000 00001000 FFFFFFEF  15 000    8530  @R15,15
    926  00000000  FFFFFFFF USING  ORDINARY    00000000 00001000 FFFFFFF0  14 002   34513  @R14,14
    930  00000000  FFFFFFFF USING  ORDINARY    00000000 00001000 FFFFFFF1  13 000   50982  @R13,13
    934  00000000  FFFFFFFF USING  ORDINARY    00000000 00001000 FFFFFFF2  12 000          @R12,12
    938  00000000  FFFFFFFF USING  ORDINARY    00000000 00001000 FFFFFFF3  11 000          @R11,11
    942  00000000  FFFFFFFF USING  ORDINARY    00000000 00001000 FFFFFFF4  10 000          @R10,10
    946  00000000  FFFFFFFF USING  ORDINARY    00000000 00001000 FFFFFFF5   9 000          @R9,9
    950  00000000  FFFFFFFF USING  ORDINARY    00000000 00001000 FFFFFFF6   8 000          @R8,8
    954  00000000  FFFFFFFF USING  ORDINARY    00000000 00001000 FFFFFFF7   7 000          @R7,7
    958  00000000  FFFFFFFF USING  ORDINARY    00000000 00001000 FFFFFFF8   6 000          @R6,6
    962  00000000  FFFFFFFF USING  ORDINARY    00000000 00001000 FFFFFFF9   5 000    9795  @R5,5
    966  00000000  FFFFFFFF USING  ORDINARY    00000000 00001000 FFFFFFFA   4 000    9409  @R4,4
    970  00000000  FFFFFFFF USING  ORDINARY    00000000 00001000 FFFFFFFB   3 000          @R3,3
    974  00000000  FFFFFFFF USING  ORDINARY    00000000 00001000 FFFFFFFC   2 001    9385  @R2,2
    978  00000000  FFFFFFFF USING  ORDINARY    00000000 00001000 FFFFFFFD   1 001    9631  @R1,1
    982  00000000  FFFFFFFF USING  ORDINARY    00000000 00001000 FFFFFFFE   0 000          @R0,0
    983  00000000  FFFFFFFF DROP                                            0              0
   1192  00000017  00000001 USING  ORDINARY    00000000 00001000 FFFFFFEC  11 E18   50979  CP,CPR
   1201  00000017  00000001 USING  ORDINARY    00000000 00001000 FFFFFFEE  12 8AC   51434  CV,CVR
   6718  00000032  00000001 USING  ORDINARY    00000032 00001000 00000001   7 4D6    6735  $$$43B,7
   6743  0000003C  00000001 USING  ORDINARY    00000000 00001000 FFFFFFF7   7 000          @R7,7
   6793  00000064  00000001 USING  ORDINARY    00000064 00001000 00000001   7 51E    7315  $$$46B,7
   6807  00000064  00000001 USING  ORDINARY    FFFFFFD8 00001000 FFFFFFE8   8 028    6811  MODWA-(4+36),R8
   6821  00000068  00000001 USING  ORDINARY    00000000 00001000 FFFFFFE8   6 004    7271  MODWA,R6
   7325  000001FA  00000001 USING  ORDINARY    00000000 00001000 FFFFFFF8   6 000          @R6,6
   7330  000001FA  00000001 USING  ORDINARY    00000000 00001000 FFFFFFF6   8 000          @R8,8
   7335  000001FA  00000001 USING  ORDINARY    00000000 00001000 FFFFFFF7   7 000          @R7,7
   7533  000003B2  00000001 USING  ORDINARY    000003B2 00001000 00000001   7 000          $$$59B,7
   7555  000003B6  00000001 USING  ORDINARY    00000000 00001000 FFFFFFF7   7 000          @R7,7
   7600  000003DE  00000001 USING  ORDINARY    000003DE 00001000 00000001   7 15A    7643  $$$63B,7
   7618  000003DE  00000001 USING  ORDINARY    00000000 00001000 FFFFFFE8   6 004    7655  MODWA,R6
   7662  000003F4  00000001 USING  ORDINARY    00000000 00001000 FFFFFFF8   6 000          @R6,6
   7667  000003F4  00000001 USING  ORDINARY    00000000 00001000 FFFFFFF7   7 000          @R7,7
   7712  0000041C  00000001 USING  ORDINARY    0000041C 00001000 00000001   7 11C    7755  $$$67B,7
   7730  0000041C  00000001 USING  ORDINARY    00000000 00001000 FFFFFFE8   6 002    7767  MODWA,R6
   7774  00000432  00000001 USING  ORDINARY    00000000 00001000 FFFFFFF8   6 000          @R6,6
   7779  00000432  00000001 USING  ORDINARY    00000000 00001000 FFFFFFF7   7 000          @R7,7
   7824  0000045A  00000001 USING  ORDINARY    0000045A 00001000 00000001   7 0DE    7871  $$$71B,7
   7842  0000045A  00000001 USING  ORDINARY    00000000 00001000 FFFFFFE8   6 002    7883  MODWA,R6
   7890  00000470  00000001 USING  ORDINARY    00000000 00001000 FFFFFFF8   6 000          @R6,6
   7895  00000470  00000001 USING  ORDINARY    00000000 00001000 FFFFFFF7   7 000          @R7,7
   7947  00000498  00000001 USING  ORDINARY    00000498 00001000 00000001   7 0A4    8120  $$$75B,7
   7966  0000049C  00000001 USING  ORDINARY    00000000 00001000 FFFFFFE8   6 004    8132  MODWA,R6
   8139  000004F8  00000001 USING  ORDINARY    00000000 00001000 FFFFFFF8   6 000          @R6,6
   8144  000004F8  00000001 USING  ORDINARY    00000000 00001000 FFFFFFF7   7 000          @R7,7
   8428  000005A6  00000001 USING  ORDINARY    000005A6 00001000 00000001   7 BC2   12104  $$$83B,7
   8442  000005A6  00000001 USING  ORDINARY    FFFFFFE0 00001000 FFFFFFE5   8 020    8446  METWA-(4+28),R8
   8456  000005AA  00000001 USING  ORDINARY    00000000 00001000 FFFFFFE5   6 346   12117  METWA,R6
   8943  000006D2  00000001 USING  ORDINARY    00000000 00001000 FFFFFFE6   3 002    8950  METPDATA,R3
   8957  000006DC  00000001 USING  ORDINARY    00000000 00001000 FFFFFFFB   3 001   16431  @R3,3
   9450  00000804  00000001 USING  ORDINARY    00000000 00001000 FFFFFFE6   2 000    9476  METPDATA,R2
   9461  00000808  00000001 USING  ORDINARY    00000000 00001000 FFFFFFE7   4 004    9489  METSPLIT,R4
   9496  00000824  00000001 USING  ORDINARY    00000000 00001000 FFFFFFFA   4 000    9795  @R4,4
1LINE     (LINE2193) (12:47) (15MAR04) Using Map                                                                            Page  266
   9502  00000824  00000001 USING  ORDINARY    00000000 00001000 FFFFFFFC   2 050   48689  @R2,2
   9823  000008FA  00000001 USING  ORDINARY    00000000 00001000 FFFFFFE7   5 004    9929  METSPLIT,R5
   9940  00000956  00000001 USING  ORDINARY    00000000 00001000 FFFFFFF9   5 004   47974  @R5,5
   9954  00000962  00000001 USING  ORDINARY    00000000 00001000 FFFFFFE7   4 000    9967  METSPLIT,R4
   9974  0000096E  00000001 USING  ORDINARY    00000000 00001000 FFFFFFFA   4 000          @R4,4
  10140  00000A00  00000001 USING  ORDINARY    00000000 00001000 FFFFFFE7   4 004   10264  METSPLIT,R4
  10293  00000A6C  00000001 USING  ORDINARY    00000000 00001000 FFFFFFFA   4 000          @R4,4
  10312  00000A74  00000001 USING  ORDINARY    00000000 00001000 FFFFFFE9  15 062   10324  JCB,R15
  10331  00000A78  00000001 USING  ORDINARY    00000000 00001000 FFFFFFEF  15 000          @R15,15
  10378  00000A8E  00000001 USING  ORDINARY    00000000 00001000 FFFFFFE9   1 062   10390  JCB,R1
  10397  00000A92  00000001 USING  ORDINARY    00000000 00001000 FFFFFFFD   1 004   48902  @R1,1
  10455  00000AD0  00000001 USING  ORDINARY    00000000 00001000 FFFFFFE7   4 004   10495  METSPLIT,R4
  10524  00000B38  00000001 USING  ORDINARY    00000000 00001000 FFFFFFFA   4 001   19236  @R4,4
  11805  00000E94  00000001 USING  ORDINARY    00000000 00001000 FFFFFFE9  15 062   11817  JCB,R15
  11824  00000E98  00000001 USING  ORDINARY    00000000 00001000 FFFFFFEF  15 000          @R15,15
  12068  00000F6A  00000001 USING  ORDINARY    00000000 00001000 FFFFFFE9  15 062   12080  JCB,R15
  12087  00000F6E  00000001 USING  ORDINARY    00000000 00001000 FFFFFFEF  15 001   18852  @R15,15
  12131  00000F90  00000001 USING  ORDINARY    00000000 00001000 FFFFFFF8   6 000          @R6,6
  12136  00000F90  00000001 USING  ORDINARY    00000000 00001000 FFFFFFF6   8 000          @R8,8
  12141  00000F90  00000001 USING  ORDINARY    00000000 00001000 FFFFFFF7   7 000          @R7,7
  12248  00001188  00000001 USING  ORDINARY    00001188 00001000 00000001   7 104   12294  $$$249B,7
  12266  00001188  00000001 USING  ORDINARY    00000000 00001000 FFFFFFE5   6 010   12302  METWA,R6
  12313  000011AC  00000001 USING  ORDINARY    00000000 00001000 FFFFFFF8   6 000          @R6,6
  12318  000011AC  00000001 USING  ORDINARY    00000000 00001000 FFFFFFF7   7 000          @R7,7
  12373  000011D4  00000001 USING  ORDINARY    000011D4 00001000 00000001   7 0D0   12663  $$$253B,7
  12391  000011D4  00000001 USING  ORDINARY    00000000 00001000 FFFFFFE5   6 341   12670  METWA,R6
  12681  00001270  00000001 USING  ORDINARY    00000000 00001000 FFFFFFF8   6 000          @R6,6
  12686  00001270  00000001 USING  ORDINARY    00000000 00001000 FFFFFFF7   7 000          @R7,7
  12786  000012C8  00000001 USING  ORDINARY    000012C8 00001000 00000001   7 34C   13185  $$$272B,7
  12800  000012C8  00000001 USING  ORDINARY    FFFFFFD8 00001000 FFFFFFE4   8 028   13107  EDWA-(4+36),R8
  12813  000012C8  00000001 USING  ORDINARY    00000000 00001000 FFFFFFE5   6 32C   12869  METWA,R6
  13199  000013A2  00000001 USING  ORDINARY    00000000 00001000 FFFFFFF8   6 000          @R6,6
  13204  000013A2  00000001 USING  ORDINARY    00000000 00001000 FFFFFFF6   8 000          @R8,8
  13209  000013A2  00000001 USING  ORDINARY    00000000 00001000 FFFFFFF7   7 000          @R7,7
  13265  000013CA  00000001 USING  ORDINARY    000013CA 00001000 00000001   7 2DE   14114  $$$293B,7
  13283  000013CA  00000001 USING  ORDINARY    00000000 00001000 FFFFFFE5   6 33E   14110  METWA,R6
  14128  000015C8  00000001 USING  ORDINARY    00000000 00001000 FFFFFFF8   6 000          @R6,6
  14133  000015C8  00000001 USING  ORDINARY    00000000 00001000 FFFFFFF7   7 000          @R7,7
  14377  000017C8  00000001 USING  ORDINARY    000017C8 00001000 00000001   7 ABC   14584  $$$340B,7
  14395  000017C8  00000001 USING  ORDINARY    00000000 00001000 FFFFFFE5   6 33E   14590  METWA,R6
  14605  00001870  00000001 USING  ORDINARY    00000000 00001000 FFFFFFF8   6 000          @R6,6
  14610  00001870  00000001 USING  ORDINARY    00000000 00001000 FFFFFFF7   7 000          @R7,7
  14666  00001898  00000001 USING  ORDINARY    00001898 00001000 00000001   7 A5C   15218  $$$349B,7
  14684  00001898  00000001 USING  ORDINARY    00000000 00001000 FFFFFFE5   6 33E   15126  METWA,R6
  15230  00001A12  00000001 USING  ORDINARY    00000000 00001000 FFFFFFF8   6 000          @R6,6
  15235  00001A12  00000001 USING  ORDINARY    00000000 00001000 FFFFFFF7   7 000          @R7,7
  15291  00001A3A  00000001 USING  ORDINARY    00001A3A 00001000 00000001   7 85E   15672  $$$374B,7
  15309  00001A3A  00000001 USING  ORDINARY    00000000 00001000 FFFFFFE5   6 33E   15667  METWA,R6
  15684  00001B36  00000001 USING  ORDINARY    00000000 00001000 FFFFFFF8   6 000          @R6,6
  15689  00001B36  00000001 USING  ORDINARY    00000000 00001000 FFFFFFF7   7 000          @R7,7
  15746  00001B5E  00000001 USING  ORDINARY    00001B5E 00001000 00000001   7 6E2   15797  $$$394B,7
  15764  00001B5E  00000001 USING  ORDINARY    00000000 00001000 FFFFFFE5   6 000          METWA,R6
  15828  00001B74  00000001 USING  ORDINARY    00000000 00001000 FFFFFFF8   6 000          @R6,6
  15833  00001B74  00000001 USING  ORDINARY    00000000 00001000 FFFFFFF7   7 000          @R7,7
  15889  00001B9C  00000001 USING  ORDINARY    00001B9C 00001000 00000001   7 6A4   15940  $$$401B,7
  15907  00001B9C  00000001 USING  ORDINARY    00000000 00001000 FFFFFFE5   6 000          METWA,R6
  15967  00001BB2  00000001 USING  ORDINARY    00000000 00001000 FFFFFFF8   6 000          @R6,6
  15972  00001BB2  00000001 USING  ORDINARY    00000000 00001000 FFFFFFF7   7 000          @R7,7
  16029  00001BDA  00000001 USING  ORDINARY    00001BDA 00001000 00000001   7 74C   16254  $$$407B,7
1LINE     (LINE2193) (12:47) (15MAR04) Using Map                                                                            Page  267
  16047  00001BDA  00000001 USING  ORDINARY    00000000 00001000 FFFFFFE5   6 32C   16170  METWA,R6
  16267  00001C58  00000001 USING  ORDINARY    00000000 00001000 FFFFFFF8   6 000          @R6,6
  16272  00001C58  00000001 USING  ORDINARY    00000000 00001000 FFFFFFF7   7 000          @R7,7
  16329  00001C80  00000001 USING  ORDINARY    00001C80 00001000 00000001   7 6C4   16655  $$$421B,7
  16347  00001C80  00000001 USING  ORDINARY    00000000 00001000 FFFFFFE5   6 338   16540  METWA,R6
  16690  00001D36  00000001 USING  ORDINARY    00000000 00001000 FFFFFFF8   6 000          @R6,6
  16695  00001D36  00000001 USING  ORDINARY    00000000 00001000 FFFFFFF7   7 000          @R7,7
  16752  00001D5E  00000001 USING  ORDINARY    00001D5E 00001000 00000001   7 5B1   16931  $$$444B,7
  16770  00001D5E  00000001 USING  ORDINARY    00000000 00001000 FFFFFFE5   6 33E   16944  METWA,R6
  16906  00001DB4  00000001 USING  ORDINARY    00000000 00001000 FFFFFFE6   3 002   16942  METPDATA,R3
  16951  00001DDC  00000001 USING  ORDINARY    00000000 00001000 FFFFFFFB   3 001   44272  @R3,3
  16967  00001DDE  00000001 USING  ORDINARY    00000000 00001000 FFFFFFF8   6 000          @R6,6
  16972  00001DDE  00000001 USING  ORDINARY    00000000 00001000 FFFFFFF7   7 000          @R7,7
  17029  00001E06  00000001 USING  ORDINARY    00001E06 00001000 00000001   7 544   17128  $$$453B,7
  17047  00001E06  00000001 USING  ORDINARY    00000000 00001000 FFFFFFE5   6 338   17126  METWA,R6
  17155  00001E3E  00000001 USING  ORDINARY    00000000 00001000 FFFFFFF8   6 000          @R6,6
  17160  00001E3E  00000001 USING  ORDINARY    00000000 00001000 FFFFFFF7   7 000          @R7,7
  17217  00001E66  00000001 USING  ORDINARY    00001E66 00001000 00000001   7 4EA   17317  $$$461B,7
  17235  00001E66  00000001 USING  ORDINARY    00000000 00001000 FFFFFFE5   6 338   17314  METWA,R6
  17344  00001EA2  00000001 USING  ORDINARY    00000000 00001000 FFFFFFF8   6 000          @R6,6
  17349  00001EA2  00000001 USING  ORDINARY    00000000 00001000 FFFFFFF7   7 000          @R7,7
  17423  00001FCA  00000001 USING  ORDINARY    00001FCA 00001000 00000001   7 2F4   17479  $$$469B,7
  17441  00001FCA  00000001 USING  ORDINARY    00000000 00001000 FFFFFFE5   6 338   17495  METWA,R6
  17508  00002008  00000001 USING  ORDINARY    00000000 00001000 FFFFFFF8   6 000          @R6,6
  17513  00002008  00000001 USING  ORDINARY    00000000 00001000 FFFFFFF7   7 000          @R7,7
  17570  00002030  00000001 USING  ORDINARY    00002030 00001000 00000001   7 326   17905  $$$473B,7
  17588  00002030  00000001 USING  ORDINARY    00000000 00001000 FFFFFFE5   6 338   17884  METWA,R6
  17937  00002102  00000001 USING  ORDINARY    00000000 00001000 FFFFFFF8   6 000          @R6,6
  17942  00002102  00000001 USING  ORDINARY    00000000 00001000 FFFFFFF7   7 000          @R7,7
  17999  0000212A  00000001 USING  ORDINARY    0000212A 00001000 00000001   7 232   18347  $$$493B,7
  18017  0000212A  00000001 USING  ORDINARY    00000000 00001000 FFFFFFE5   6 338   18326  METWA,R6
  18379  00002204  00000001 USING  ORDINARY    00000000 00001000 FFFFFFF8   6 000          @R6,6
  18384  00002204  00000001 USING  ORDINARY    00000000 00001000 FFFFFFF7   7 000          @R7,7
  18474  0000237C  00000001 USING  ORDINARY    0000237C 00001000 00000001   7 5A8   18872  $$$514B,7
  18492  0000237C  00000001 USING  ORDINARY    00000000 00001000 FFFFFFE5   6 338   18802  METWA,R6
  18904  000024A0  00000001 USING  ORDINARY    00000000 00001000 FFFFFFF8   6 000          @R6,6
  18909  000024A0  00000001 USING  ORDINARY    00000000 00001000 FFFFFFF7   7 000          @R7,7
  18966  000024C8  00000001 USING  ORDINARY    000024C8 00001000 00000001   7 46E   19229  $$$536B,7
  18984  000024C8  00000001 USING  ORDINARY    00000000 00001000 FFFFFFE5   6 338   19149  METWA,R6
  19263  0000255A  00000001 USING  ORDINARY    00000000 00001000 FFFFFFF8   6 000          @R6,6
  19268  0000255A  00000001 USING  ORDINARY    00000000 00001000 FFFFFFF7   7 000          @R7,7
  19325  00002582  00000001 USING  ORDINARY    00002582 00001000 00000001   7 34D   19458  $$$554B,7
  19343  00002582  00000001 USING  ORDINARY    00000000 00001000 FFFFFFE5   6 346   19497  METWA,R6
  19469  000025E4  00000001 USING  ORDINARY    00000000 00001000 FFFFFFE7   4 000   19483  METSPLIT,R4
  19490  000025F6  00000001 USING  ORDINARY    00000000 00001000 FFFFFFFA   4 00C   46630  @R4,4
  19510  00002604  00000001 USING  ORDINARY    00000000 00001000 FFFFFFF8   6 000          @R6,6
  19515  00002604  00000001 USING  ORDINARY    00000000 00001000 FFFFFFF7   7 000          @R7,7
  19563  0000262C  00000001 USING  ORDINARY    0000262C 00001000 00000001   7 2C5   19824  $$$560B,7
  19581  0000262C  00000001 USING  ORDINARY    00000000 00001000 FFFFFFE5   6 33E   19760  METWA,R6
  19843  000026D0  00000001 USING  ORDINARY    00000000 00001000 FFFFFFF8   6 000          @R6,6
  19848  000026D0  00000001 USING  ORDINARY    00000000 00001000 FFFFFFF7   7 000          @R7,7
  19897  000026F8  00000001 USING  ORDINARY    000026F8 00001000 00000001   7 148   19936  $$$572B,7
  19915  000026F8  00000001 USING  ORDINARY    00000000 00001000 FFFFFFE5   6 33E   19951  METWA,R6
  19960  00002716  00000001 USING  ORDINARY    00000000 00001000 FFFFFFF8   6 000          @R6,6
  19965  00002716  00000001 USING  ORDINARY    00000000 00001000 FFFFFFF7   7 000          @R7,7
  20014  0000273E  00000001 USING  ORDINARY    0000273E 00001000 00000001   7 1B6   20082  $$$576B,7
  20032  0000273E  00000001 USING  ORDINARY    00000000 00001000 FFFFFFE5   6 33E   20097  METWA,R6
  20106  0000276C  00000001 USING  ORDINARY    00000000 00001000 FFFFFFF8   6 000          @R6,6
  20111  0000276C  00000001 USING  ORDINARY    00000000 00001000 FFFFFFF7   7 000          @R7,7
1LINE     (LINE2193) (12:47) (15MAR04) Using Map                                                                            Page  268
  20160  00002794  00000001 USING  ORDINARY    00002794 00001000 00000001   7 098   20228  $$$580B,7
  20178  00002794  00000001 USING  ORDINARY    00000000 00001000 FFFFFFE5   6 33E   20243  METWA,R6
  20252  000027C2  00000001 USING  ORDINARY    00000000 00001000 FFFFFFF8   6 000          @R6,6
  20257  000027C2  00000001 USING  ORDINARY    00000000 00001000 FFFFFFF7   7 000          @R7,7
  20350  00002956  00000001 USING  ORDINARY    00002956 00001000 00000001   7 836   20483  $$$584B,7
  20368  00002956  00000001 USING  ORDINARY    00000000 00001000 FFFFFFE5   6 000          METWA,R6
  20504  000029D8  00000001 USING  ORDINARY    00000000 00001000 FFFFFFF8   6 000          @R6,6
  20509  000029D8  00000001 USING  ORDINARY    00000000 00001000 FFFFFFF7   7 000          @R7,7
  20803  00002C82  00000001 USING  ORDINARY    00002C82 00001000 00000001   7 000          $$$590B,7
  20821  00002C82  00000001 USING  ORDINARY    00000000 00001000 FFFFFFE5   6 33E   20831  METWA,R6
  20839  00002C8E  00000001 USING  ORDINARY    00000000 00001000 FFFFFFF8   6 000          @R6,6
  20844  00002C8E  00000001 USING  ORDINARY    00000000 00001000 FFFFFFF7   7 000          @R7,7
  20894  00002CB6  00000001 USING  ORDINARY    00002CB6 00001000 00000001   7 000          $$$593B,7
  20912  00002CB6  00000001 USING  ORDINARY    00000000 00001000 FFFFFFE5   6 004   20916  METWA,R6
  20924  00002CBE  00000001 USING  ORDINARY    00000000 00001000 FFFFFFF8   6 000          @R6,6
  20929  00002CBE  00000001 USING  ORDINARY    00000000 00001000 FFFFFFF7   7 000          @R7,7
  20979  00002CE6  00000001 USING  ORDINARY    00002CE6 00001000 00000001   7 000          $$$596B,7
  20997  00002CE6  00000001 USING  ORDINARY    00000000 00001000 FFFFFFE5   6 33E   21006  METWA,R6
  21022  00002CF2  00000001 USING  ORDINARY    00000000 00001000 FFFFFFF8   6 000          @R6,6
  21027  00002CF2  00000001 USING  ORDINARY    00000000 00001000 FFFFFFF7   7 000          @R7,7
  21077  00002D1A  00000001 USING  ORDINARY    00002D1A 00001000 00000001   7 000          $$$600B,7
  21095  00002D1A  00000001 USING  ORDINARY    00000000 00001000 FFFFFFE5   6 33E   21106  METWA,R6
  21122  00002D26  00000001 USING  ORDINARY    00000000 00001000 FFFFFFF8   6 000          @R6,6
  21127  00002D26  00000001 USING  ORDINARY    00000000 00001000 FFFFFFF7   7 000          @R7,7
  21178  00002D4E  00000001 USING  ORDINARY    00002D4E 00001000 00000001   7 472   21281  $$$604B,7
  21196  00002D4E  00000001 USING  ORDINARY    00000000 00001000 FFFFFFE5   6 33E   21323  METWA,R6
  21332  00002DA0  00000001 USING  ORDINARY    00000000 00001000 FFFFFFF8   6 000          @R6,6
  21337  00002DA0  00000001 USING  ORDINARY    00000000 00001000 FFFFFFF7   7 000          @R7,7
  21388  00002DC8  00000001 USING  ORDINARY    00002DC8 00001000 00000001   7 364   21509  $$$615B,7
  21406  00002DC8  00000001 USING  ORDINARY    00000000 00001000 FFFFFFE5   6 330   21493  METWA,R6
  21524  00002E28  00000001 USING  ORDINARY    00000000 00001000 FFFFFFF8   6 000          @R6,6
  21529  00002E28  00000001 USING  ORDINARY    00000000 00001000 FFFFFFF7   7 000          @R7,7
  21580  00002E50  00000001 USING  ORDINARY    00002E50 00001000 00000001   7 33E   21635  $$$623B,7
  21598  00002E50  00000001 USING  ORDINARY    00000000 00001000 FFFFFFE5   6 00C   21629  METWA,R6
  21644  00002E76  00000001 USING  ORDINARY    00000000 00001000 FFFFFFF8   6 000          @R6,6
  21649  00002E76  00000001 USING  ORDINARY    00000000 00001000 FFFFFFF7   7 000          @R7,7
  21700  00002E9E  00000001 USING  ORDINARY    00002E9E 00001000 00000001   7 29A   21731  $$$627B,7
  21718  00002E9E  00000001 USING  ORDINARY    00000000 00001000 FFFFFFE5   6 33E   21728  METWA,R6
  21739  00002EA8  00000001 USING  ORDINARY    00000000 00001000 FFFFFFF8   6 000          @R6,6
  21744  00002EA8  00000001 USING  ORDINARY    00000000 00001000 FFFFFFF7   7 000          @R7,7
  21794  00002ED0  00000001 USING  ORDINARY    00002ED0 00001000 00000001   7 2F6   22134  $$$630B,7
  21812  00002ED0  00000001 USING  ORDINARY    00000000 00001000 FFFFFFE5   6 33E   22126  METWA,R6
  22163  00002FC2  00000001 USING  ORDINARY    00000000 00001000 FFFFFFF8   6 000          @R6,6
  22168  00002FC2  00000001 USING  ORDINARY    00000000 00001000 FFFFFFF7   7 000          @R7,7
  22219  00002FEA  00000001 USING  ORDINARY    00002FEA 00001000 00000001   7 17E   22492  $$$650B,7
  22237  00002FEA  00000001 USING  ORDINARY    00000000 00001000 FFFFFFE5   6 12A   22498  METWA,R6
  22508  000030D0  00000001 USING  ORDINARY    00000000 00001000 FFFFFFF8   6 000          @R6,6
  22513  000030D0  00000001 USING  ORDINARY    00000000 00001000 FFFFFFF7   7 000          @R7,7
  22602  000031E6  00000001 USING  ORDINARY    000031E6 00001000 00000001   7 422   22633  $$$662B,7
  22641  000031FA  00000001 USING  ORDINARY    00000000 00001000 FFFFFFF7   7 000          @R7,7
  22686  00003222  00000001 USING  ORDINARY    00003222 00001000 00000001   7 48E   23155  $$$665B,7
  22704  00003222  00000001 USING  ORDINARY    00000000 00001000 FFFFFFE5   6 33F   23147  METWA,R6
  23185  000033A4  00000001 USING  ORDINARY    00000000 00001000 FFFFFFF8   6 000          @R6,6
  23190  000033A4  00000001 USING  ORDINARY    00000000 00001000 FFFFFFF7   7 000          @R7,7
  23296  0000346E  00000001 USING  ORDINARY    0000346E 00001000 00000001   7 000          $$$687B,7
  23315  00003478  00000001 USING  ORDINARY    00000000 00001000 FFFFFFF7   7 000          @R7,7
  23360  000034A0  00000001 USING  ORDINARY    000034A0 00001000 00000001   7 014   23396  $$$690B,7
  23378  000034A0  00000001 USING  ORDINARY    00000000 00001000 FFFFFFE5   6 33F   23412  METWA,R6
  23423  000034C2  00000001 USING  ORDINARY    00000000 00001000 FFFFFFF8   6 000          @R6,6
1LINE     (LINE2193) (12:47) (15MAR04) Using Map                                                                            Page  269
  23428  000034C2  00000001 USING  ORDINARY    00000000 00001000 FFFFFFF7   7 000          @R7,7
  23473  000034EA  00000001 USING  ORDINARY    000034EA 00001000 00000001   7 146   23498  $$$694B,7
  23507  00003500  00000001 USING  ORDINARY    00000000 00001000 FFFFFFF7   7 000          @R7,7
  23552  00003528  00000001 USING  ORDINARY    00003528 00001000 00000001   7 152   23601  $$$697B,7
  23610  00003548  00000001 USING  ORDINARY    00000000 00001000 FFFFFFF7   7 000          @R7,7
  23659  00003570  00000001 USING  ORDINARY    00003570 00001000 00000001   7 0D6   23698  $$$700B,7
  23677  00003570  00000001 USING  ORDINARY    00000000 00001000 FFFFFFE5   6 000          METWA,R6
  23707  00003586  00000001 USING  ORDINARY    00000000 00001000 FFFFFFF8   6 000          @R6,6
  23712  00003586  00000001 USING  ORDINARY    00000000 00001000 FFFFFFF7   7 000          @R7,7
  23760  000035AE  00000001 USING  ORDINARY    000035AE 00001000 00000001   7 0E1   23823  $$$703B,7
  23778  000035AE  00000001 USING  ORDINARY    00000000 00001000 FFFFFFE5   6 000          METWA,R6
  23832  000035CE  00000001 USING  ORDINARY    00000000 00001000 FFFFFFF8   6 000          @R6,6
  23837  000035CE  00000001 USING  ORDINARY    00000000 00001000 FFFFFFF7   7 000          @R7,7
  24012  00004352  00000001 USING  ORDINARY    00004352 00001000 00000001   7 D7A   24046  $$$706B,7
  24056  0000436A  00000001 USING  ORDINARY    00000000 00001000 FFFFFFF7   7 000          @R7,7
  24211  00004392  00000001 USING  ORDINARY    00004392 00001000 00000001   7 E3B   26789  $$$710B,7
  24225  00004392  00000001 USING  ORDINARY    FFFFFFD8 00001000 FFFFFFE3   8 028   24229  COLWA-(4+36),R8
  24237  00004396  00000001 USING  ORDINARY    00000000 00001000 FFFFFFE3   6 100   27641  COLWA,R6
  25829  000048EA  00000001 USING  ORDINARY    00000000 00001000 FFFFFFE9  15 062   25839  JCB,R15
  25890  00004910  00000001 USING  ORDINARY    00000000 00001000 FFFFFFEF  15 005   26660  @R15,15
  26764  00004C16  00000001 USING  ORDINARY    00000000 00001000 FFFFFFE9  15 062   26776  JCB,R15
  26783  00004C1A  00000001 USING  ORDINARY    00000000 00001000 FFFFFFEF  15 001   27640  @R15,15
  26796  00004C1E  00000001 USING  ORDINARY    00000000 00001000 FFFFFFF6   8 000          @R8,8
  26801  00004C1E  00000001 USING  ORDINARY    00000000 00001000 FFFFFFF7   7 000          @R7,7
  27064  00004E76  00000001 USING  ORDINARY    00004E76 00001000 00000001   7 276   27134  $$$808B,7
  27157  00004EAA  00000001 USING  ORDINARY    00000000 00001000 FFFFFFF7   7 000          @R7,7
  27202  00004ED2  00000001 USING  ORDINARY    00004ED2 00001000 00000001   7 000          $$$815B,7
  27218  00004ED6  00000001 USING  ORDINARY    00000000 00001000 FFFFFFF7   7 000          @R7,7
  27263  00004EFE  00000001 USING  ORDINARY    00004EFE 00001000 00000001   7 286   27289  $$$818B,7
  27302  00004F0E  00000001 USING  ORDINARY    00000000 00001000 FFFFFFF7   7 000          @R7,7
  27347  00004F36  00000001 USING  ORDINARY    00004F36 00001000 00000001   7 000          $$$822B,7
  27368  00004F3A  00000001 USING  ORDINARY    00000000 00001000 FFFFFFF7   7 000          @R7,7
  27413  00004F62  00000001 USING  ORDINARY    00004F62 00001000 00000001   7 000          $$$825B,7
  27435  00004F66  00000001 USING  ORDINARY    00000000 00001000 FFFFFFF7   7 000          @R7,7
  27480  00004F8E  00000001 USING  ORDINARY    00004F8E 00001000 00000001   7 000          $$$828B,7
  27501  00004F92  00000001 USING  ORDINARY    00000000 00001000 FFFFFFF7   7 000          @R7,7
  27547  00004FBA  00000001 USING  ORDINARY    00004FBA 00001000 00000001   7 1EA   27634  $$$831B,7
  27652  00004FF4  00000001 USING  ORDINARY    00000000 00001000 FFFFFFF7   7 000          @R7,7
  27672  00005002  00000001 USING  ORDINARY    00000000 00001000 FFFFFFF8   6 000          @R6,6
  27788  000051EE  00000001 USING  ORDINARY    000051EE 00001000 00000001   7 F42   27889  $$$837B,7
  27898  00005280  00000001 USING  ORDINARY    00000000 00001000 FFFFFFF7   7 000          @R7,7
  28018  000052FA  00000001 USING  ORDINARY    000052FA 00001000 00000001   7 F74   28664  $$$842B,7
  28032  000052FA  00000001 USING  ORDINARY    FFFFFFD8 00001000 FFFFFFE2   8 128   28640  IMWA-(4+36),R8
  28692  00005512  00000001 USING  ORDINARY    00000000 00001000 FFFFFFF6   8 000          @R8,8
  28697  00005512  00000001 USING  ORDINARY    00000000 00001000 FFFFFFF7   7 000          @R7,7
  28774  0000553A  00000001 USING  ORDINARY    0000553A 00001000 00000001   7 BF6   28901  $$$874B,7
  28788  0000553A  00000001 USING  ORDINARY    FFFFFFD8 00001000 FFFFFFE1   8 028   28792  PUTLWA-(4+36),R8
  28800  0000553E  00000001 USING  ORDINARY    00000000 00001000 FFFFFFE1   6 000   29097  PUTLWA,R6
  28924  000055DE  00000001 USING  ORDINARY    00000000 00001000 FFFFFFF6   8 000          @R8,8
  28929  000055DE  00000001 USING  ORDINARY    00000000 00001000 FFFFFFF7   7 000          @R7,7
  29021  0000567E  00000001 USING  ORDINARY    0000567E 00001000 00000001   7 B51   29034  $$$879B,7
  29043  0000568A  00000001 USING  ORDINARY    00000000 00001000 FFFFFFF7   7 000          @R7,7
  29088  000056B2  00000001 USING  ORDINARY    000056B2 00001000 00000001   7 000          $$$882B,7
  29105  000056BA  00000001 USING  ORDINARY    00000000 00001000 FFFFFFF7   7 000          @R7,7
  29150  000056E2  00000001 USING  ORDINARY    000056E2 00001000 00000001   7 A52   29187  $$$885B,7
  29196  000056F8  00000001 USING  ORDINARY    00000000 00001000 FFFFFFF7   7 000          @R7,7
  29216  00005706  00000001 USING  ORDINARY    00000000 00001000 FFFFFFF8   6 000          @R6,6
  29254  00005720  00000001 USING  ORDINARY    00005720 00001000 00000001   7 A36   29347  $$$888B,7
  29370  00005778  00000001 USING  ORDINARY    00000000 00001000 FFFFFFF7   7 000          @R7,7
1LINE     (LINE2193) (12:47) (15MAR04) Using Map                                                                            Page  270
  29449  000057A0  00000001 USING  ORDINARY    000057A0 00001000 00000001   7 ADA   29872  $$$894B,7
  29463  000057A0  00000001 USING  ORDINARY    FFFFFFD8 00001000 FFFFFFE0   8 028   29467  TABLWA-(4+36),R8
  29475  000057A4  00000001 USING  ORDINARY    00000000 00001000 FFFFFFE0   6 00D   30069  TABLWA,R6
  29895  000058E2  00000001 USING  ORDINARY    00000000 00001000 FFFFFFF6   8 000          @R8,8
  29900  000058E2  00000001 USING  ORDINARY    00000000 00001000 FFFFFFF7   7 000          @R7,7
  29993  00005982  00000001 USING  ORDINARY    00005982 00001000 00000001   7 67E   30006  $$$914B,7
  30015  0000598E  00000001 USING  ORDINARY    00000000 00001000 FFFFFFF7   7 000          @R7,7
  30060  000059B6  00000001 USING  ORDINARY    000059B6 00001000 00000001   7 000          $$$917B,7
  30077  000059BE  00000001 USING  ORDINARY    00000000 00001000 FFFFFFF7   7 000          @R7,7
  30122  000059E6  00000001 USING  ORDINARY    000059E6 00001000 00000001   7 827   30159  $$$920B,7
  30168  000059FC  00000001 USING  ORDINARY    00000000 00001000 FFFFFFF7   7 000          @R7,7
  30188  00005A0A  00000001 USING  ORDINARY    00000000 00001000 FFFFFFF8   6 000          @R6,6
  30270  00005A24  00000001 USING  ORDINARY    00005A24 00001000 00000001   7 80C   30957  $$$923B,7
  30284  00005A24  00000001 USING  ORDINARY    FFFFFFD8 00001000 FFFFFFDF   8 028   30288  INSWA-(4+36),R8
  30296  00005A28  00000001 USING  ORDINARY    00000000 00001000 FFFFFFDF   6 200   31228  INSWA,R6
  30966  00005CAE  00000001 USING  ORDINARY    00000000 00001000 FFFFFFF6   8 000          @R8,8
  30971  00005CAE  00000001 USING  ORDINARY    00000000 00001000 FFFFFFF7   7 000          @R7,7
  31111  00005DC6  00000001 USING  ORDINARY    00005DC6 00001000 00000001   7 000          $$$951B,7
  31132  00005DCA  00000001 USING  ORDINARY    00000000 00001000 FFFFFFF7   7 000          @R7,7
  31181  00005DF2  00000001 USING  ORDINARY    00005DF2 00001000 00000001   7 476   31698  $$$954B,7
  31715  00005FBA  00000001 USING  ORDINARY    00000000 00001000 FFFFFFF7   7 000          @R7,7
  31735  00005FC8  00000001 USING  ORDINARY    00000000 00001000 FFFFFFF8   6 000          @R6,6
  31878  0000629A  00000001 USING  ORDINARY    0000629A 00001000 00000001   7 382   31995  $$$974B,7
  31892  0000629A  00000001 USING  ORDINARY    FFFFFFD8 00001000 FFFFFFDE   8 028   31903  REPWA-(4+36),R8
  32006  0000632A  00000001 USING  ORDINARY    00000000 00001000 FFFFFFF6   8 000          @R8,8
  32011  0000632A  00000001 USING  ORDINARY    00000000 00001000 FFFFFFF7   7 000          @R7,7
  32132  0000641A  00000001 USING  ORDINARY    0000641A 00001000 00000001   7 000          $$$980B,7
  32154  0000641E  00000001 USING  ORDINARY    00000000 00001000 FFFFFFF7   7 000          @R7,7
  32205  00006446  00000001 USING  ORDINARY    00006446 00001000 00000001   7 1EA   32570  $$$984B,7
  32445  00006512  00000001 USING  ORDINARY    00000000 00001000 FFFFFFE9  15 062   32457  JCB,R15
  32464  00006516  00000001 USING  ORDINARY    00000000 00001000 FFFFFFEF  15 000          @R15,15
  32579  00006590  00000001 USING  ORDINARY    00000000 00001000 FFFFFFF7   7 000          @R7,7
  32869  00006650  00000001 USING  ORDINARY    00006650 00001000 00000001   7 350   33363  $$$996B,7
  32883  00006650  00000001 USING  ORDINARY    FFFFFFD8 00001000 FFFFFFDD   8 028   32913  CHWA-(4+36),R8
  32921  00006660  00000001 USING  ORDINARY    00000000 00001000 FFFFFFDD   6 800   44680  CHWA,R6
  33378  00006934  00000001 USING  ORDINARY    00000000 00001000 FFFFFFF6   8 000          @R8,8
  33383  00006934  00000001 USING  ORDINARY    00000000 00001000 FFFFFFF7   7 000          @R7,7
  34227  0000716A  00000001 USING  ORDINARY    0000716A 00001000 00000001   7 A1C   34240  $$$1009B,7
  34249  00007176  00000001 USING  ORDINARY    00000000 00001000 FFFFFFF7   7 000          @R7,7
  34294  0000719E  00000001 USING  ORDINARY    0000719E 00001000 00000001   7 A07   34396  $$$1012B,7
  34405  000071F0  00000001 USING  ORDINARY    00000000 00001000 FFFFFFF7   7 000          @R7,7
  34450  00007218  00000001 USING  ORDINARY    00007218 00001000 00000001   7 A38   34532  $$$1017B,7
  34541  00007260  00000001 USING  ORDINARY    00000000 00001000 FFFFFFF7   7 000          @R7,7
  34586  00007288  00000001 USING  ORDINARY    00007288 00001000 00000001   7 8AC   34641  $$$1023B,7
  34650  000072C0  00000001 USING  ORDINARY    00000000 00001000 FFFFFFF7   7 000          @R7,7
  34695  000072E8  00000001 USING  ORDINARY    000072E8 00001000 00000001   7 840   34768  $$$1027B,7
  34777  0000732C  00000001 USING  ORDINARY    00000000 00001000 FFFFFFF7   7 000          @R7,7
  34822  00007354  00000001 USING  ORDINARY    00007354 00001000 00000001   7 7D4   34895  $$$1032B,7
  34904  00007398  00000001 USING  ORDINARY    00000000 00001000 FFFFFFF7   7 000          @R7,7
  34949  000073C0  00000001 USING  ORDINARY    000073C0 00001000 00000001   7 000          $$$1037B,7
  34977  000073CC  00000001 USING  ORDINARY    00000000 00001000 FFFFFFF7   7 000          @R7,7
  35028  000073F4  00000001 USING  ORDINARY    000073F4 00001000 00000001   7 744   35041  $$$1040B,7
  35050  00007400  00000001 USING  ORDINARY    00000000 00001000 FFFFFFF7   7 000          @R7,7
  35095  00007428  00000001 USING  ORDINARY    00007428 00001000 00000001   7 000          $$$1043B,7
  35117  00007430  00000001 USING  ORDINARY    00000000 00001000 FFFFFFF7   7 000          @R7,7
  35162  00007458  00000001 USING  ORDINARY    00007458 00001000 00000001   7 000          $$$1046B,7
  35184  00007460  00000001 USING  ORDINARY    00000000 00001000 FFFFFFF7   7 000          @R7,7
  35235  00007488  00000001 USING  ORDINARY    00007488 00001000 00000001   7 732   35248  $$$1049B,7
  35257  00007494  00000001 USING  ORDINARY    00000000 00001000 FFFFFFF7   7 000          @R7,7
1LINE     (LINE2193) (12:47) (15MAR04) Using Map                                                                            Page  271
  35303  000074BC  00000001 USING  ORDINARY    000074BC 00001000 00000001   7 6B0   35358  $$$1052B,7
  35371  000074EE  00000001 USING  ORDINARY    00000000 00001000 FFFFFFF7   7 000          @R7,7
  35417  00007516  00000001 USING  ORDINARY    00007516 00001000 00000001   7 6B5   35502  $$$1056B,7
  35515  0000755A  00000001 USING  ORDINARY    00000000 00001000 FFFFFFF7   7 000          @R7,7
  35561  00007582  00000001 USING  ORDINARY    00007582 00001000 00000001   7 6D4   35625  $$$1061B,7
  35634  000075B2  00000001 USING  ORDINARY    00000000 00001000 FFFFFFF7   7 000          @R7,7
  35680  000075DA  00000001 USING  ORDINARY    000075DA 00001000 00000001   7 682   35748  $$$1067B,7
  35757  00007614  00000001 USING  ORDINARY    00000000 00001000 FFFFFFF7   7 000          @R7,7
  35803  0000763C  00000001 USING  ORDINARY    0000763C 00001000 00000001   7 626   35871  $$$1073B,7
  35880  00007676  00000001 USING  ORDINARY    00000000 00001000 FFFFFFF7   7 000          @R7,7
  35926  0000769E  00000001 USING  ORDINARY    0000769E 00001000 00000001   7 000          $$$1079B,7
  35948  000076A6  00000001 USING  ORDINARY    00000000 00001000 FFFFFFF7   7 000          @R7,7
  35994  000076CE  00000001 USING  ORDINARY    000076CE 00001000 00000001   7 000          $$$1082B,7
  36016  000076D6  00000001 USING  ORDINARY    00000000 00001000 FFFFFFF7   7 000          @R7,7
  36062  000076FE  00000001 USING  ORDINARY    000076FE 00001000 00000001   7 4DC   36076  $$$1085B,7
  36092  00007718  00000001 USING  ORDINARY    00000000 00001000 FFFFFFF7   7 000          @R7,7
  36140  00007740  00000001 USING  ORDINARY    00007740 00001000 00000001   7 3C8   36153  $$$1088B,7
  36162  0000774C  00000001 USING  ORDINARY    00000000 00001000 FFFFFFF7   7 000          @R7,7
  36207  00007774  00000001 USING  ORDINARY    00007774 00001000 00000001   7 000          $$$1091B,7
  36229  00007790  00000001 USING  ORDINARY    00000000 00001000 FFFFFFF7   7 000          @R7,7
  36274  000077B8  00000001 USING  ORDINARY    000077B8 00001000 00000001   7 3CC   36441  $$$1094B,7
  36479  000078CA  00000001 USING  ORDINARY    00000000 00001000 FFFFFFF7   7 000          @R7,7
  36570  0000796A  00000001 USING  ORDINARY    0000796A 00001000 00000001   7 250   36583  $$$1102B,7
  36592  00007976  00000001 USING  ORDINARY    00000000 00001000 FFFFFFF7   7 000          @R7,7
  36637  0000799E  00000001 USING  ORDINARY    0000799E 00001000 00000001   7 000          $$$1105B,7
  36656  000079A8  00000001 USING  ORDINARY    00000000 00001000 FFFFFFF7   7 000          @R7,7
  36705  000079D0  00000001 USING  ORDINARY    000079D0 00001000 00000001   7 000          $$$1108B,7
  36726  000079D4  00000001 USING  ORDINARY    00000000 00001000 FFFFFFF7   7 000          @R7,7
  36771  000079FC  00000001 USING  ORDINARY    000079FC 00001000 00000001   7 000          $$$1111B,7
  36792  00007A00  00000001 USING  ORDINARY    00000000 00001000 FFFFFFF7   7 000          @R7,7
  36837  00007A28  00000001 USING  ORDINARY    00007A28 00001000 00000001   7 000          $$$1114B,7
  36867  00007A30  00000001 USING  ORDINARY    00000000 00001000 FFFFFFF7   7 000          @R7,7
  36912  00007A58  00000001 USING  ORDINARY    00007A58 00001000 00000001   7 000          $$$1117B,7
  36944  00007A64  00000001 USING  ORDINARY    00000000 00001000 FFFFFFF7   7 000          @R7,7
  36989  00007A8C  00000001 USING  ORDINARY    00007A8C 00001000 00000001   7 000          $$$1120B,7
  37006  00007A94  00000001 USING  ORDINARY    00000000 00001000 FFFFFFF7   7 000          @R7,7
  37052  00007ABC  00000001 USING  ORDINARY    00007ABC 00001000 00000001   7 176   37113  $$$1123B,7
  37130  00007AF0  00000001 USING  ORDINARY    00000000 00001000 FFFFFFF7   7 000          @R7,7
  37240  00007C82  00000001 USING  ORDINARY    00007C82 00001000 00000001   7 8CA   38083  $$$1128B,7
  38098  00007FBC  00000001 USING  ORDINARY    00000000 00001000 FFFFFFF7   7 000          @R7,7
  38206  00008086  00000001 USING  ORDINARY    00008086 00001000 00000001   7 000          $$$1162B,7
  38222  0000808A  00000001 USING  ORDINARY    00000000 00001000 FFFFFFF7   7 000          @R7,7
  38267  000080B2  00000001 USING  ORDINARY    000080B2 00001000 00000001   7 02E   38305  $$$1165B,7
  38339  000080EC  00000001 USING  ORDINARY    00000000 00001000 FFFFFFF7   7 000          @R7,7
  38384  00008114  00000001 USING  ORDINARY    00008114 00001000 00000001   7 000          $$$1170B,7
  38403  0000811E  00000001 USING  ORDINARY    00000000 00001000 FFFFFFF7   7 000          @R7,7
  38448  00008146  00000001 USING  ORDINARY    00008146 00001000 00000001   7 000          $$$1173B,7
  38464  0000814A  00000001 USING  ORDINARY    00000000 00001000 FFFFFFF7   7 000          @R7,7
  38515  00008172  00000001 USING  ORDINARY    00008172 00001000 00000001   7 3A6   38566  $$$1176B,7
  38584  00008198  00000001 USING  ORDINARY    00000000 00001000 FFFFFFF7   7 000          @R7,7
  38643  000081C0  00000001 USING  ORDINARY    000081C0 00001000 00000001   7 38C   38700  $$$1181B,7
  38709  0000821E  00000001 USING  ORDINARY    00000000 00001000 FFFFFFF7   7 000          @R7,7
  38802  000082BE  00000001 USING  ORDINARY    000082BE 00001000 00000001   7 000          $$$1184B,7
  38818  000082C2  00000001 USING  ORDINARY    00000000 00001000 FFFFFFF7   7 000          @R7,7
  38863  000082EA  00000001 USING  ORDINARY    000082EA 00001000 00000001   7 02E   38901  $$$1187B,7
  38935  00008324  00000001 USING  ORDINARY    00000000 00001000 FFFFFFF7   7 000          @R7,7
  38982  0000834C  00000001 USING  ORDINARY    0000834C 00001000 00000001   7 202   39091  $$$1192B,7
  39099  000083E8  00000001 USING  ORDINARY    00000000 00001000 FFFFFFF7   7 000          @R7,7
  39190  0000848A  00000001 USING  ORDINARY    0000848A 00001000 00000001   7 04E   39203  $$$1196B,7
1LINE     (LINE2193) (12:47) (15MAR04) Using Map                                                                            Page  272
  39212  00008496  00000001 USING  ORDINARY    00000000 00001000 FFFFFFF7   7 000          @R7,7
  39257  000084BE  00000001 USING  ORDINARY    000084BE 00001000 00000001   7 000          $$$1199B,7
  39275  000084C4  00000001 USING  ORDINARY    00000000 00001000 FFFFFFF7   7 000          @R7,7
  39363  0000856A  00000001 USING  ORDINARY    0000856A 00001000 00000001   7 3FA   39447  $$$1202B,7
  39466  000085E2  00000001 USING  ORDINARY    00000000 00001000 FFFFFFF7   7 000          @R7,7
  39574  000086AA  00000001 USING  ORDINARY    000086AA 00001000 00000001   7 000          $$$1207B,7
  39590  000086AE  00000001 USING  ORDINARY    00000000 00001000 FFFFFFF7   7 000          @R7,7
  39635  000086D6  00000001 USING  ORDINARY    000086D6 00001000 00000001   7 02E   39673  $$$1210B,7
  39707  00008710  00000001 USING  ORDINARY    00000000 00001000 FFFFFFF7   7 000          @R7,7
  39752  00008738  00000001 USING  ORDINARY    00008738 00001000 00000001   7 000          $$$1215B,7
  39771  00008742  00000001 USING  ORDINARY    00000000 00001000 FFFFFFF7   7 000          @R7,7
  39816  0000876A  00000001 USING  ORDINARY    0000876A 00001000 00000001   7 000          $$$1218B,7
  39835  00008774  00000001 USING  ORDINARY    00000000 00001000 FFFFFFF7   7 000          @R7,7
  39919  0000879C  00000001 USING  ORDINARY    0000879C 00001000 00000001   7 1CC   40386  $$$1221B,7
  39933  0000879C  00000001 USING  ORDINARY    FFFFFFD8 00001000 FFFFFFDC   8 034   40368  SETIWA-(4+36),R8
  40411  00008912  00000001 USING  ORDINARY    00000000 00001000 FFFFFFF6   8 000          @R8,8
  40416  00008912  00000001 USING  ORDINARY    00000000 00001000 FFFFFFF7   7 000          @R7,7
  40496  00008994  00000001 USING  ORDINARY    00008994 00001000 00000001   7 860   40587  $$$1247B,7
  40598  000089DA  00000001 USING  ORDINARY    00000000 00001000 FFFFFFF7   7 000          @R7,7
  40648  00008A02  00000001 USING  ORDINARY    00008A02 00001000 00000001   7 948   41024  $$$1253B,7
  41047  00008B2E  00000001 USING  ORDINARY    00000000 00001000 FFFFFFF7   7 000          @R7,7
  41106  00008B56  00000001 USING  ORDINARY    00008B56 00001000 00000001   7 7FA   41390  $$$1275B,7
  41400  00008C26  00000001 USING  ORDINARY    00000000 00001000 FFFFFFF7   7 000          @R7,7
  41451  00008C4E  00000001 USING  ORDINARY    00008C4E 00001000 00000001   7 5C6   41671  $$$1292B,7
  41692  00008CCC  00000001 USING  ORDINARY    00000000 00001000 FFFFFFF7   7 000          @R7,7
  41741  00008CF4  00000001 USING  ORDINARY    00008CF4 00001000 00000001   7 674   41903  $$$1308B,7
  41933  00008D78  00000001 USING  ORDINARY    00000000 00001000 FFFFFFF7   7 000          @R7,7
  41982  00008DA0  00000001 USING  ORDINARY    00008DA0 00001000 00000001   7 5E0   42144  $$$1323B,7
  42174  00008E24  00000001 USING  ORDINARY    00000000 00001000 FFFFFFF7   7 000          @R7,7
  42223  00008E4C  00000001 USING  ORDINARY    00008E4C 00001000 00000001   7 540   42380  $$$1338B,7
  42389  00008ECE  00000001 USING  ORDINARY    00000000 00001000 FFFFFFF7   7 000          @R7,7
  42435  00008EF6  00000001 USING  ORDINARY    00008EF6 00001000 00000001   7 000          $$$1349B,7
  42450  00008EF6  00000001 USING  ORDINARY    00000000 00001000 FFFFFFF7   7 000          @R7,7
  42499  00008F1E  00000001 USING  ORDINARY    00008F1E 00001000 00000001   7 3E2   42850  $$$1352B,7
  42876  00009052  00000001 USING  ORDINARY    00000000 00001000 FFFFFFF7   7 000          @R7,7
  42951  0000907A  00000001 USING  ORDINARY    0000907A 00001000 00000001   7 324   43342  $$$1367B,7
  42965  0000907A  00000001 USING  ORDINARY    FFFFFFD8 00001000 FFFFFFDB   8 040   43366  GETIWA-(4+36),R8
  43375  000091B2  00000001 USING  ORDINARY    00000000 00001000 FFFFFFF6   8 000          @R8,8
  43380  000091B2  00000001 USING  ORDINARY    00000000 00001000 FFFFFFF7   7 000          @R7,7
  43477  000093BE  00000001 USING  ORDINARY    000093BE 00001000 00000001   7 4A0   43595  $$$1392B,7
  43625  0000942A  00000001 USING  ORDINARY    00000000 00001000 FFFFFFF7   7 000          @R7,7
  43675  00009452  00000001 USING  ORDINARY    00009452 00001000 00000001   7 412   43750  $$$1402B,7
  43782  00009494  00000001 USING  ORDINARY    00000000 00001000 FFFFFFF7   7 000          @R7,7
  43841  000094BC  00000001 USING  ORDINARY    000094BC 00001000 00000001   7 3BA   44265  $$$1410B,7
  44297  00009630  00000001 USING  ORDINARY    00000000 00001000 FFFFFFF7   7 000          @R7,7
  44359  00009658  00000001 USING  ORDINARY    00009658 00001000 00000001   7 1FA   44769  $$$1430B,7
  44787  000097B6  00000001 USING  ORDINARY    00000000 00001000 FFFFFFF7   7 000          @R7,7
  44874  00009896  00000001 USING  ORDINARY    00009896 00001000 00000001   7 2EA   45054  $$$1449B,7
  45063  0000993A  00000001 USING  ORDINARY    00000000 00001000 FFFFFFF7   7 000          @R7,7
  45164  000099DA  00000001 USING  ORDINARY    000099DA 00001000 00000001   7 196   45212  $$$1462B,7
  45242  00009A1A  00000001 USING  ORDINARY    00000000 00001000 FFFFFFF7   7 000          @R7,7
  45294  00009A42  00000001 USING  ORDINARY    00009A42 00001000 00000001   7 140   45658  $$$1467B,7
  45392  00009A7A  00000001 USING  ORDINARY    00000000 00001000 FFFFFFE9  15 062   45404  JCB,R15
  45411  00009A7E  00000001 USING  ORDINARY    00000000 00001000 FFFFFFEF  15 000          @R15,15
  45673  00009B30  00000001 USING  ORDINARY    00000000 00001000 FFFFFFE9  15 062   45684  JCB,R15
  45691  00009B34  00000001 USING  ORDINARY    00000000 00001000 FFFFFFEF  15 001   47416  @R15,15
  45704  00009B34  00000001 USING  ORDINARY    00000000 00001000 FFFFFFF7   7 000          @R7,7
  45841  00009BA2  00000001 USING  ORDINARY    00009BA2 00001000 00000001   7 C36   46116  $$$1486B,7
  45855  00009BA2  00000001 USING  ORDINARY    FFFFFFD8 00001000 FFFFFFDA   8 028   45859  SPLITWA-(4+36),R8
1LINE     (LINE2193) (12:47) (15MAR04) Using Map                                                                            Page  273
  45867  00009BA6  00000001 USING  ORDINARY    00000000 00001000 FFFFFFF8   6 000          @R6,6
  45870  00009BA6  00000001 USING  ORDINARY    00000000 00001000 FFFFFFDA   6 300   46483  SPLITWA,R6
  46127  00009CEC  00000001 USING  ORDINARY    00000000 00001000 FFFFFFF6   8 000          @R8,8
  46132  00009CEC  00000001 USING  ORDINARY    00000000 00001000 FFFFFFF7   7 000          @R7,7
  46283  00009E2E  00000001 USING  ORDINARY    00009E2E 00001000 00000001   7 01C   46340  $$$1498B,7
  46358  00009E4E  00000001 USING  ORDINARY    00000000 00001000 FFFFFFF7   7 000          @R7,7
  46403  00009E76  00000001 USING  ORDINARY    00009E76 00001000 00000001   7 000          $$$1504B,7
  46424  00009E7A  00000001 USING  ORDINARY    00000000 00001000 FFFFFFF7   7 000          @R7,7
  46469  00009EA2  00000001 USING  ORDINARY    00009EA2 00001000 00000001   7 000          $$$1507B,7
  46490  00009EA6  00000001 USING  ORDINARY    00000000 00001000 FFFFFFF7   7 000          @R7,7
  46510  00009EB4  00000001 USING  ORDINARY    00000000 00001000 FFFFFFF8   6 000          @R6,6
  46548  00009ECE  00000001 USING  ORDINARY    00009ECE 00001000 00000001   7 972   47402  $$$1510B,7
  46565  00009ED2  00000001 USING  ORDINARY    00000000 00001000 FFFFFFDA   6 214   47378  SPLITWA,R6
  47430  0000A14C  00000001 USING  ORDINARY    00000000 00001000 FFFFFFF7   7 000          @R7,7
  47449  0000A15A  00000001 USING  ORDINARY    00000000 00001000 FFFFFFF8   6 000          @R6,6
  47534  0000A174  00000001 USING  ORDINARY    0000A174 00001000 00000001   7 686   47975  $$$1551B,7
  47548  0000A174  00000001 USING  ORDINARY    FFFFFFD8 00001000 FFFFFFD9   8 028   47552  JOINWA-(4+36),R8
  47560  0000A178  00000001 USING  ORDINARY    00000000 00001000 FFFFFFD9   6 200   48556  JOINWA,R6
  47988  0000A312  00000001 USING  ORDINARY    00000000 00001000 FFFFFFF6   8 000          @R8,8
  47993  0000A312  00000001 USING  ORDINARY    00000000 00001000 FFFFFFF7   7 000          @R7,7
  48189  0000A4CA  00000001 USING  ORDINARY    0000A4CA 00001000 00000001   7 2F6   48217  $$$1570B,7
  48230  0000A4E2  00000001 USING  ORDINARY    00000000 00001000 FFFFFFF7   7 000          @R7,7
  48275  0000A50A  00000001 USING  ORDINARY    0000A50A 00001000 00000001   7 000          $$$1573B,7
  48297  0000A50E  00000001 USING  ORDINARY    00000000 00001000 FFFFFFF7   7 000          @R7,7
  48342  0000A536  00000001 USING  ORDINARY    0000A536 00001000 00000001   7 000          $$$1576B,7
  48363  0000A53A  00000001 USING  ORDINARY    00000000 00001000 FFFFFFF7   7 000          @R7,7
  48408  0000A562  00000001 USING  ORDINARY    0000A562 00001000 00000001   7 000          $$$1579B,7
  48430  0000A566  00000001 USING  ORDINARY    00000000 00001000 FFFFFFF7   7 000          @R7,7
  48475  0000A58E  00000001 USING  ORDINARY    0000A58E 00001000 00000001   7 000          $$$1582B,7
  48497  0000A592  00000001 USING  ORDINARY    00000000 00001000 FFFFFFF7   7 000          @R7,7
  48542  0000A5BA  00000001 USING  ORDINARY    0000A5BA 00001000 00000001   7 000          $$$1585B,7
  48563  0000A5BE  00000001 USING  ORDINARY    00000000 00001000 FFFFFFF7   7 000          @R7,7
  48582  0000A5CC  00000001 USING  ORDINARY    00000000 00001000 FFFFFFF8   6 000          @R6,6
  48620  0000A5E6  00000001 USING  ORDINARY    0000A5E6 00001000 00000001   7 266   48930  $$$1588B,7
  48637  0000A5EA  00000001 USING  ORDINARY    00000000 00001000 FFFFFFD9   6 1F0   48935  JOINWA,R6
  48693  0000A62C  00000001 DROP                                           15              15
  48697  0000A632  00000001 USING  ORDINARY    00000000 00001000 FFFFFFEF  15 000   50055  @R15,15
  48700  0000A632  00000001 DROP                                            2              2
  48704  0000A638  00000001 USING  ORDINARY    00000000 00001000 FFFFFFFC   2 000   48765  @R2,2
  48950  0000A6D8  00000001 USING  ORDINARY    00000000 00001000 FFFFFFF7   7 000          @R7,7
  48969  0000A6E6  00000001 USING  ORDINARY    00000000 00001000 FFFFFFF8   6 000          @R6,6
  49085  0000A86C  00000001 USING  ORDINARY    0000A86C 00001000 00000001   7 63E   49485  $$$1603B,7
  49099  0000A86C  00000001 USING  ORDINARY    FFFFFFD8 00001000 FFFFFFD8   8 028   49103  EXCHWA-(4+36),R8
  49111  0000A870  00000001 USING  ORDINARY    00000000 00001000 FFFFFFD8   6 104   50055  EXCHWA,R6
  49509  0000AA76  00000001 USING  ORDINARY    00000000 00001000 FFFFFFF6   8 000          @R8,8
  49514  0000AA76  00000001 USING  ORDINARY    00000000 00001000 FFFFFFF7   7 000          @R7,7
  49760  0000ACA6  00000001 USING  ORDINARY    0000ACA6 00001000 00000001   7 206   49773  $$$1617B,7
  49782  0000ACB2  00000001 USING  ORDINARY    00000000 00001000 FFFFFFF7   7 000          @R7,7
  49827  0000ACDA  00000001 USING  ORDINARY    0000ACDA 00001000 00000001   7 136   49840  $$$1620B,7
  49849  0000ACE6  00000001 USING  ORDINARY    00000000 00001000 FFFFFFF7   7 000          @R7,7
  49894  0000AD0E  00000001 USING  ORDINARY    0000AD0E 00001000 00000001   7 18E   49930  $$$1623B,7
  49944  0000AD3A  00000001 USING  ORDINARY    00000000 00001000 FFFFFFF7   7 000          @R7,7
  49989  0000AD62  00000001 USING  ORDINARY    0000AD62 00001000 00000001   7 13A   50049  $$$1628B,7
  50063  0000ADA2  00000001 USING  ORDINARY    00000000 00001000 FFFFFFF7   7 000          @R7,7
  50108  0000ADCA  00000001 USING  ORDINARY    0000ADCA 00001000 00000001   7 115   50168  $$$1634B,7
  50177  0000ADFA  00000001 USING  ORDINARY    00000000 00001000 FFFFFFF7   7 000          @R7,7
  50196  0000AE08  00000001 USING  ORDINARY    00000000 00001000 FFFFFFF8   6 000          @R6,6
  50280  0000AF06  00000001 USING  ORDINARY    0000AF06 00001000 00000001   7 502   50501  $$$1637B,7
  50525  0000AF7E  00000001 USING  ORDINARY    00000000 00001000 FFFFFFF7   7 000          @R7,7
1LINE     (LINE2193) (12:47) (15MAR04) Using Map                                                                            Page  274
  50586  0000AFA6  00000001 USING  ORDINARY    0000AFA6 00001000 00000001   7 47D   50981  $$$1650B,7
  50989  0000B120  00000001 USING  ORDINARY    00000000 00001000 FFFFFFF7   7 000          @R7,7
  51202  0000B302  00000001 USING  ORDINARY    0000B302 00001000 00000001   7 000          $$$1659B,7
  51218  0000B306  00000001 USING  ORDINARY    00000000 00001000 FFFFFFF7   7 000          @R7,7
  51263  0000B32E  00000001 USING  ORDINARY    0000B32E 00001000 00000001   7 000          $$$1662B,7
  51279  0000B332  00000001 USING  ORDINARY    00000000 00001000 FFFFFFF7   7 000          @R7,7
  51324  0000B35A  00000001 USING  ORDINARY    0000B35A 00001000 00000001   7 000          $$$1665B,7
  51340  0000B35E  00000001 USING  ORDINARY    00000000 00001000 FFFFFFF7   7 000          @R7,7
  51385  0000B386  00000001 USING  ORDINARY    0000B386 00001000 00000001   7 000          $$$1668B,7
  51401  0000B38A  00000001 USING  ORDINARY    00000000 00001000 FFFFFFF7   7 000          @R7,7
  51446  0000B3B2  00000001 USING  ORDINARY    0000B3B2 00001000 00000001   7 000          $$$1671B,7
  51462  0000B3B6  00000001 USING  ORDINARY    00000000 00001000 FFFFFFF7   7 000          @R7,7

1         (LINE2193) (12:47) (15MAR04) General Purpose Register Cross Reference                                             Page  275
- Register  References (M=modified, B=branch, U=USING, D=DROP, N=index)                      HLASM R4.0  2004/03/15 12.47
0    0(0)      982U   983D  2128   2196M  2196   2197M  6701   6751M  6775   6879M  6879   6888   6889   6956M  6982M
              7032M  7084M  7105M  7105   7138M  7159M  7159   7196M  7217M  7217   7254M  7275M  7275   7304M  7304
              7343M  7516   7563M  7583   7655   7675M  7695   7767   7787M  7807   7883   7903M  7930   8009   8037
              8065   8152M  8501   8540M  8557   8564M  8569   8599   8808   8815M  8839M  8839   8896M  8896   8949
              9509M  9560M  9563   9602M  9630   9659   9670M  9691M  9691   9727M  9754   9803M  9808   9847M  9849M
              9905M 10060M 10060  10062M 10082M 10100M 10152M 10153M 10229M 10229  10404M 10432  10467M 10468M 10471
             10487M 10488M 10489  10492M 10529  10541M 10546  10578  10608  10630M 10676  10690M 10711M 10711  10729M
             10742M 10789  10810  10811M 10847M 10847  10919M 10919  11175M 11179  11181M 11192  11263M 11281M 11281
             11284M 11305  11314  11348M 11396  11533  11591M 11721M 11753M 11766M 11840M 11877M 11919  11921M 11924
             11938M 11989  12231  12287M 12288M 12326M 12474M 12494M 12526M 12546M 12651  12663M 12768  12872M 13156M
             13174M 13217M 13248  13316M 13316  13328  13364M 13382  13389M 14141M 14414M 14414  14431  14434M 14467M
             14529M 14570M 14592M 14722M 14722  14783M 14909M 14957M 14997M 15354M 15354  15439M 15729  15841M 15872
             15980M 16067  16081  16088  16248M 16367  16481M 16481  16551  16558  16609  16676M 16800M 16800  16843M
             16876M 17012  17111M 17111  17168M 17200  17299M 17299  17357M 17406  17465M 17521M 17618M 17618  17667M
             17667  17676M 17729M 17729  17747  17754  17801M 18047M 18047  18109M 18109  18118M 18171M 18171  18189
             18196  18243M 18523M 18523  18566M 18602M 18602  18620  18627  18673M 18719M 19010  19111M 19111  19160
             19167  19218  19249M 19308  19394M 19438M 19523M 19546  19646M 19664M 19723M 19807M 19856M 19880  19925M
             19973M 19997  20053M 20071M 20119M 20143  20199M 20217M 20265M 20333  20412  20423M 20423  20432  20433
             20517M 20786  20831M 20852M 20877  20916M 20937M 20962  21035M 21060  21135M 21161  21245  21261M 21262
             21270  21345M 21371  21411M 21430M 21430  21455M 21455  21493  21537M 21563  21629M 21630  21635M 21657M
             21683  21752M 21777  21943M 21976M 22009M 22051M 22051  22052M 22176M 22202  22323M 22369M 22391M 22391
             22409M 22465M 22465  22492M 22497M 22498  22521M 22585  22626  22649M 22669  22748M 22748  22757  22758
             22816M 22817  22831  22845  22856M 22869M 22903M 22969M 23024M 23037M 23071M 23198M 23279  23305  23323M
             23343  23383M 23384M 23402M 23413  23436M 23456  23487M 23515M 23535  23590M 23618M 23642  23687M 23720M
             23743  23812M 23845M 23995  24064M 24193  24261M 24261  24270  24271  24355M 24355  24364  24365  24552M
             24552  24561  24562  24827M 24858  25165M 25165  25171M 25172  25539M 25600M 25617M 25618M 25623  25723
             25725M 25728  25735M 25765M 25765  25773M 25774M 25775  25878M 25896  25958  25960M 25963  25971M 25989M
             26020M 26020  26048M 26080M 26232M 26252  26308  26315  26336  26363M 26376M 26410M 26475M 26476M 26476
             26508M 26517M 26517  26518M 26539M 26577M 26587  26598M 26637M 26650M 26664M 26664  26665M 26682M 26682
             26683M 26684M 26685M 26686  26712M 26725M 26809M 27047  27148  27165M 27185  27226M 27246  27280M 27280
             27295  27310M 27330  27376M 27396  27443M 27463  27509M 27530  27581M 27660M 27771  27860M 27860  27869
             27870  27906M 28000  28044  28056M 28069M 28069  28113M 28122M 28122  28132M 28132  28139  28151M 28156
             28157  28275M 28288M 28323M 28335M 28348M 28363M 28369M 28370  28506M 28519M 28582M 28595M 28638M 28673M
             28674M 28675  28705M 28756  28810M 28810  28819  28820  28851M 28860M 28869M 28869  28879M 28879  28937M
             29004  29035M 29051M 29071  29097  29113M 29133  29188M 29204M 29237  29285M 29293  29298M 29307M 29316M
             29316  29326M 29326  29378M 29431  29485M 29485  29494  29495  29526M 29535M 29544M 29544  29554M 29554
             29562  29573M 29573  29609  29649  29732M 29765M 29783M 29801M 29847M 29853M 29908M 29976  30007M 30023M
             30043  30069  30085M 30105  30160M 30176M 30252  30354M 30354  30363  30364  30405M 30482M 30482  30553M
             30553  30561M 30562M 30563  30624M 30625  30651M 30651  30677M 30710M 30828M 30829M 30830  30840M 30840
             30841M 30862M 30875M 30909M 30915M 30916  30917M 30918  30979M 31094  31140M 31164  31219M 31231  31232
             31241M 31241  31250  31251  31252  31281M 31281  31300M 31493M 31506M 31540M 31596M 31596  31597M 31633M
             31655M 31655  31673M 31686M 31723M 31860  31958M 31958  31967  31968  31991M 32019M 32115  32162M 32188
             32316  32321M 32342M 32355M 32389M 32414M 32414  32422M 32480M 32480  32502M 32526M 32527M 32528  32536M
             32536  32537M 32556M 32556  32587M 32851  32898  32898  32953M 32953  32962  32963  32990M 32990  32999
             33000  33044M 33044  33053  33054  33081M 33081  33090  33091  33139M 33139  33148  33149  33176M 33176
             33185  33186  33299M 33364M 33391M 34210  34241M 34257M 34277  34359M 34385  34413M 34433  34501  34521
             34549M 34569  34630  34658M 34678  34785M 34805  34912M 34932  34985M 35011  35042M 35058M 35078  35125M
             35145  35192M 35218  35249M 35265M 35286  35332M 35337  35379M 35400  35475M 35481  35523M 35544  35574M
             35579  35618  35642M 35663  35694M 35699  35740M 35741  35765M 35786  35817M 35822  35863M 35864  35888M
             35909  35956M 35977  36024M 36045  36077M 36100M 36123  36154M 36170M 36190  36216M 36218  36220  36237M
             36257  36283  36284  36285  36286  36293M 36293  36302  36303  36304  36350  36362M 36362  36371  36372
             36487M 36553  36584M 36600M 36620  36646  36664M 36688  36734M 36754  36800M 36820  36875M 36895  36952M
             36972  36998  37014M 37035  37081M 37114M 37138M 37223  37282M 37282  37291  37292  37408M 37408  37417
             37418  37583M 37583  37592  37593  37712M 37712  37721  37722  37887M 37887  37896  37897  38106M 38189
             38230M 38250  38347M 38367  38393  38411M 38431  38472M 38498  38567M 38592M 38626  38671M 38671  38680
1         (LINE2193) (12:47) (15MAR04) General Purpose Register Cross Reference                                             Page  276
             38681  38717M 38785  38826M 38846  38943M 38965  39002  39026M 39028M 39044  39055M 39055  39064  39065
             39107M 39173  39204M 39220M 39240  39266  39283M 39346  39378M 39378  39387  39388  39430M 39453M 39459
             39474M 39557  39598M 39618  39715M 39735  39761  39779M 39799  39825  39843M 39901  39945  40277M 40424M
             40479  40606M 40631  40679  40680  40739  40740  40820  40832M 40837  41055M 41089  41408M 41434  41700M
             41724  41797M 41941M 41965  42038M 42182M 42206  42279M 42376M 42397M 42418  42458M 42482  42525M 42550M
             42567  42578M 42657M 42673M 42694M 42767M 42779  42784M 42790  42884M 42933  43013M 43388M 43460  43633M
             43658  43790M 43824  43923M 43924M 43929  43931M 43932  43959M 43972M 44097M 44098M 44103  44105M 44106
             44131M 44144M 44305M 44342  44370M 44371M 44372  44398  44406M 44432  44512  44520M 44550M 44550  44577M
             44578M 44660M 44661M 44662  44795M 44857  44978M 44978  44987  44988  45071M 45147  45182M 45208M 45250M
             45277  45362M 45505M 45712M 45823  45911M 45911  45920  45921  45922  45955M 45955  45966M 45970  46036M
             46036  46045  46046  46112M 46140M 46266  46300M 46300  46322M 46339M 46339  46346M 46351  46366M 46386
             46432M 46452  46498M 46531  46604  46705  46713  46765  46929M 46929  46975  47072M 47085M 47119M 47164M
             47210M 47215  47262M 47290M 47298M 47299M 47300  47316M 47324M 47325M 47326  47438M 47516  47634M 47634
             47643  47644  47709M 47788M 47802M 47802  47803M 47808  47842M 47842  47877M 47889M 47917M 47918M 47919
             47946M 47947  48001M 48172  48214M 48219  48238M 48258  48305M 48325  48371M 48391  48438M 48458  48505M
             48525  48571M 48603  48663M 48676M 48768  48791M 48809M 48822M 48874  48958M 49067  49175M 49175  49184
             49185  49213M 49213  49222  49223  49251M 49251  49260  49261  49370M 49370  49406M 49406  49444M 49457M
             49457  49458M 49467M 49467  49468M 49494M 49495M 49496  49522M 49743  49774M 49790M 49810  49841M 49857M
             49877  49903  49904  49905  49952M 49972  50005  50016M 50022  50023  50024  50071M 50091  50122M 50135M
             50169M 50185M 50263  50322M 50358M 50358  50396M 50412M 50432M 50518  50533M 50569  50603  50617M 50617
             50644M 50662M 50688  50699M 50699  50708  50709  50746M 50845M 50904M 50957M 50997M 51185  51226M 51246
             51287M 51307  51348M 51368  51409M 51429  51470M
     1(1)      978U  2128   2191M  2192M  2198M  6701   6751M  6775   6875M  6888N  6889N  6891N  6955M  6983M  7031M
              7083M  7101M  7137M  7155M  7195M  7213M  7253M  7271M  7343M  7516   7563M  7583   7675M  7695   7787M
              7807   7903M  7930   8152M  8500   8517   8569   9025M  9026M  9027   9056   9347M  9482M  9483M  9484
              9561M  9562   9579   9629   9669M  9698M  9985M  9986M  9986   9992M  9993M  9994   9995M 10013M 10022M
             10045M 10055M 10056M 10062M 10071M 10071  10081M 10099M 10122  10151M 10368M 10378U 10397U 10403M 10432
             10466M 10471  10473M 10492M 10630M 10689M 10707M 10728M 10743M 10812M 11175M 11262M 11285M 11304  11590M
             11615M 11620M 11682M 11683  11701M 11710M 11710  11720M 11745  11746  11752M 11876M 11902M 11919  11922M
             11938M 12231  12289M 12291M 12326M 12473M 12493M 12525M 12545M 12668  12768  12870M 13141M 13173M 13217M
             13248  13322  13340M 13363  13382  13387M 14141M 14430  14433M 14528M 14569M 14591M 14781  14782M 14908M
             14956M 14996M 15438M 15729  15841M 15872  15980M 16120  16246M 16675M 16842M 16875M 17012  17168M 17200
             17357M 17406  17464M 17492  17521M 17674M 17701  17720  17800M 18116M 18143  18162  18242M 18565M 18574
             18593  18672M 18718M 19248M 19308  19393M 19437M 19523M 19546  19645M 19663M 19707M 19800M 19856M 19880
             19924M 19973M 19997  20038M 20070M 20119M 20143  20184M 20216M 20265M 20333  20411  20419M 20432N 20433N
             20435N 20517M 20786  20831M 20852M 20877  20916M 20937M 20962  21035M 21060  21135M 21161  21219M 21240M
             21261M 21345M 21371  21469M 21537M 21563  21630M 21657M 21683  21752M 21777  21854M 21855M 21855  21861M
             21862M 21863  21864M 21882M 21891M 21914M 21924M 21925  21926M 21942M 21975M 22008M 22052M 22061  22176M
             22202  22285M 22286M 22287  22292M 22322M 22343M 22344M 22345  22368M 22387M 22408M 22429M 22446M 22456
             22521M 22585  22625  22649M 22669  22744M 22757N 22758N 22760N 22855M 22902M 22923M 22968M 23023M 23070M
             23198M 23279  23323M 23343  23436M 23456  23486M 23515M 23535  23589M 23618M 23642  23686M 23720M 23743
             23811M 23845M 23995  24064M 24193  24257M 24270N 24271N 24273N 24351M 24364N 24365N 24367N 24548M 24561N
             24562N 24564N 24830M 24831M 24831  24844M 25096M 25101  25137M 25172M 25222M 25223M 25224  25225M 25294M
             25295  25353M 25534M 25579M 25723  25726M 25735M 25761M 25877M 25958  25961M 25971M 25991M 26047M 26075M
             26086M 26259M 26260M 26260  26273M 26337M 26362M 26409M 26489M 26490M 26507M 26518M 26523  26524M 26525
             26531M 26533M 26534  26575M 26576M 26597M 26636M 26665M 26670  26683M 26684  26711M 26809M 27047  27133
             27143M 27143  27149  27165M 27185  27226M 27246  27310M 27330  27376M 27396  27443M 27463  27509M 27530
             27611M 27660M 27771  27856M 27869N 27870N 27872N 27906M 28000  28055M 28108  28111M 28244M 28274M 28322M
             28334M 28371M 28479M 28505M 28546M 28581M 28604M 28639M 28705M 28756  28806M 28819N 28820N 28822N 28850M
             28858M 28937M 29004  29034M 29051M 29071  29113M 29133  29187M 29204M 29237  29284M 29297M 29305M 29378M
             29431  29481M 29494N 29495N 29497N 29525M 29533M 29562  29782M 29800M 29845M 29853M 29908M 29976  30006M
             30023M 30043  30085M 30105  30159M 30176M 30252  30350M 30363N 30364N 30366N 30404M 30465M 30549M 30676M
             30705M 30727M 30778M 30815M 30836M 30861M 30908M 30915M 30917  30979M 31094  31140M 31164  31218M 31231
             31237M 31250N 31251N 31252N 31330M 31467M 31492M 31539M 31563M 31586M 31591M 31592  31597M 31605  31622M
             31622  31632M 31651M 31672M 31700  31723M 31860  31954M 31967N 31968N 31970N 31992M 32019M 32115  32162M
             32188  32315  32341M 32388M 32421M 32495M 32510M 32531M 32587M 32851  32949M 32962N 32963N 32965N 32986M
             32999N 33000N 33002N 33040M 33053N 33054N 33056N 33077M 33090N 33091N 33093N 33135M 33148N 33149N 33151N
             33172M 33185N 33186N 33188N 33228M 33229M 33231M 33300M 33363M 33391M 34210  34240M 34257M 34277  34358M
             34413M 34433  34549M 34569  34658M 34678  34785M 34805  34912M 34932  34985M 35011  35041M 35058M 35078
1         (LINE2193) (12:47) (15MAR04) General Purpose Register Cross Reference                                             Page  277
             35125M 35145  35192M 35218  35248M 35265M 35286  35327M 35379M 35400  35474M 35523M 35544  35573M 35642M
             35663  35693M 35765M 35786  35816M 35888M 35909  35956M 35977  36024M 36045  36076M 36100M 36123  36153M
             36170M 36190  36217M 36219  36221  36237M 36257  36289M 36302N 36303N 36304N 36358M 36371N 36372N 36374N
             36487M 36553  36583M 36600M 36620  36664M 36688  36734M 36754  36800M 36820  36875M 36895  36952M 36972
             36999  37014M 37035  37080M 37113M 37138M 37223  37278M 37291N 37292N 37294N 37404M 37417N 37418N 37420N
             37579M 37592N 37593N 37595N 37708M 37721N 37722N 37724N 37883M 37896N 37897N 37899N 38106M 38189  38230M
             38250  38347M 38367  38411M 38431  38472M 38498  38541M 38543M 38544  38566M 38592M 38626  38667M 38680N
             38681N 38683N 38717M 38785  38826M 38846  38943M 38965  39024M 39043  39051M 39064N 39065N 39067N 39107M
             39173  39203M 39220M 39240  39283M 39346  39374M 39387N 39388N 39390N 39474M 39557  39598M 39618  39715M
             39735  39779M 39799  39843M 39901  40276M 40424M 40479  40606M 40631  41055M 41089  41152M 41153M 41155M
             41156  41157  41176M 41177M 41178  41214M 41230  41236  41284  41285M 41286  41367M 41367N 41408M 41434
             41677M 41678  41679M 41680  41700M 41724  41769M 41770M 41772M 41796M 41843M 41844  41880M 41918M 41919
             41920M 41921  41941M 41965  42010M 42011M 42013M 42037M 42084M 42085  42121M 42159M 42160  42161M 42162
             42182M 42206  42251M 42252M 42254M 42278M 42312M 42313  42345M 42366M 42367  42368M 42369  42377M 42397M
             42418  42458M 42482  42529M 42529  42549M 42577M 42596M 42656M 42672M 42693M 42722M 42723  42724M 42766M
             42780M 42781  42785M 42811M 42812M 42814M 42815  42837M 42839M 42840  42884M 42933  43012M 43023M 43025M
             43046M 43054M 43058M 43060M 43077M 43110M 43143M 43176M 43185  43231M 43272M 43273M 43315M 43316M 43317M
             43362M 43363  43388M 43460  43490M 43492  43533M 43534  43535  43538M 43582M 43583M 43594  43600  43633M
             43658  43729M 43730  43790M 43824  43879M 43880  43922M 43924  43930M 43931  43951M 43952M 43953  43958M
             44052M 44053  44096M 44098  44104M 44105  44130M 44241M 44242M 44243  44305M 44342  44369M 44371  44398
             44406M 44512  44519M 44576M 44578  44795M 44857  44974M 44987N 44988N 44990N 45071M 45147  45183M 45209M
             45250M 45277  45361M 45506M 45712M 45823  45907M 45920N 45921N 45922N 45965M 45969  46032M 46045N 46046N
             46048N 46113M 46140M 46266  46366M 46386  46432M 46452  46498M 46531  46767M 46899M 47071M 47118M 47139M
             47144M 47145  47159M 47205M 47215  47261M 47285M 47311M 47438M 47516  47630M 47643N 47644N 47646N 47710M
             47787M 47798M 47808  47876M 47889M 47947M 48001M 48172  48209M 48238M 48258  48305M 48325  48371M 48391
             48438M 48458  48505M 48525  48571M 48603  48662M 48790M 48808M 48958M 49067  49171M 49184N 49185N 49187N
             49209M 49222N 49223N 49225N 49247M 49260N 49261N 49263N 49349M 49385M 49443M 49459M 49469M 49522M 49743
             49773M 49790M 49810  49840M 49857M 49877  49906M 49952M 49972  50015M 50025M 50071M 50091  50121M 50168M
             50185M 50263  50315M 50356M 50356  50389M 50411M 50431M 50518  50533M 50569  50602  50639M 50661M 50687
             50695M 50708N 50709N 50711N 50745M 50845M 50904M 50956M 50997M 51185  51226M 51246  51287M 51307  51348M
             51368  51409M 51429  51470M
     2(2)      974U  2128   6701   6751M  6775   6931M  6933M  6945   7343M  7516   7563M  7583   7675M  7695   7787M
              7807   7903M  7930   8152M  8410   8978M  8980   9007   9016M  9037   9057M  9058   9131   9140M  9158
              9193   9202M  9220   9277M  9278M  9282M  9284   9305M  9307M  9316   9346M  9350M  9359M  9359   9366
              9441M  9450U  9502U  9511M  9512M  9513   9515M  9516   9562M  9563M  9565M  9579   9600M  9732M  9740M
              9786M  9788  10149M 10149  10151N 10153  10263M 10464M 10464  10466N 10468  10494M 10570M 11286M 11298
             11306M 11314M 11322M 11324  11346M 11347  11348  11349M 11352M 11354  11442M 11453  11681M 11683M 11695
             11832M 11833M 11834M 11835M 11840  11919  11923M 11938M 11943  11944  11961  11973M 12036M 12036  12149M
             12231  12326M 12356  12694M 12768  13217M 13248  13326M 13326  13340M 13401  13437  13473  13509  13545
             13581  13617  13653  13689  13725  13761  13797  13833  13869  13906  13942  13978  14016  14030  14141M
             14360  14431M 14469M 14592  14618M 14649  14822M 14823M 14825  15243M 15274  15411M 15659M 15697M 15729
             15841M 15872  15980M 16012  16124M 16135  16142  16143M 16143N 16280M 16312  16417M 16418M 16422M 16424
             16497M 16499M 16508  16538M 16539M 16540  16541M 16551  16558M 16565M 16574M 16574  16581  16601M 16609M
             16617M 16619  16703M 16735  16918M 16919M 16920  16980M 17012  17168M 17200  17357M 17406  17492M 17493M
             17494  17521M 17553  17700M 17710M 17719  17747  17754M 17821M 17830M 17831  17832M 17833  17834M 17835
             17881M 17882  17950M 17982  18142M 18152M 18161  18189  18196M 18263M 18272M 18273  18274M 18275  18276M
             18277  18323M 18324  18392M 18457  18573M 18583M 18592  18620  18627M 18693M 18695M 18696M 18708  18739M
             18740  18741M 18742  18746M 18747  18759  18766  18768M 18768N 18796M 18797M 18798  18804M 18805M 18805
             18845M 18846M 18847  18917M 18949  19049M 19050M 19054M 19056  19150M 19167M 19174M 19183M 19183  19190
             19210M 19218M 19227M 19229  19276M 19308  19495M 19496M 19497  19523M 19546  19750M 19767M 19800  19820M
             19856M 19880  19973M 19997  20119M 20143  20265M 20333  20517M 20786  20852M 20877  20937M 20962  21035M
             21060  21135M 21161  21345M 21371  21477M 21502M 21502  21537M 21563  21657M 21683  21752M 21777  21843M
             21844  21861  21926  22176M 22202  22456M 22521M 22585  22649M 22669  23198M 23279  23323M 23343  23436M
             23456  23515M 23535  23618M 23642  23720M 23743  23845M 23995  24064M 24193  24790M 24791  25720M 25723
             25727M 25735M 25737  25738  25955M 25958  25962M 25968  25971M 25973  25974  26488M 26490  26524  26574M
             26678M 26683  26809M 27047  27165M 27185  27226M 27246  27310M 27330  27376M 27396  27443M 27463  27509M
             27530  27660M 27771  27906M 28000  28396M 28705M 28756  28889M 28890  28937M 29004  29051M 29071  29113M
             29133  29204M 29237  29293M 29331  29336  29378M 29431  29860M 29861  29908M 29976  30023M 30043  30085M
             30105  30176M 30252  30979M 31094  31140M 31164  31592M 31651  31723M 31860  31903M 31904  32019M 32115
1         (LINE2193) (12:47) (15MAR04) General Purpose Register Cross Reference                                             Page  278
             32162M 32188  32427M 32508M 32510  32587M 32851  33391M 34210  34257M 34277  34413M 34433  34549M 34569
             34658M 34678  34785M 34805  34912M 34932  34985M 35011  35058M 35078  35125M 35145  35192M 35218  35265M
             35286  35379M 35400  35523M 35544  35642M 35663  35765M 35786  35888M 35909  35956M 35977  36024M 36045
             36100M 36123  36170M 36190  36237M 36257  36487M 36553  36600M 36620  36664M 36688  36734M 36754  36800M
             36820  36875M 36895  36952M 36972  37014M 37035  37138M 37223  38106M 38189  38230M 38250  38347M 38367
             38411M 38431  38472M 38498  38526M 38535M 38535  38544M 38556  38592M 38626  38717M 38785  38826M 38846
             38943M 38965  39107M 39173  39220M 39240  39283M 39346  39474M 39557  39598M 39618  39715M 39735  39779M
             39799  39843M 39901  39956M 39975  40025  40058  40114  40204  40236M 40238  40240M 40242  40250M 40251
             40283M 40304  40316M 40350M 40367M 40368M 40371M 40373  40424M 40479  40606M 40631  40675M 40678M 40735M
             40738M 40816M 40817  40844M 40845  40848M 40849  40850  40851  40887M 40888M 40891M 40907M 40912  40929M
             40930M 40932M 40933  40952M 40953M 40954  40970M 40971M 40989M 40990M 40995  41006M 41008M 41010M 41011M
             41023  41029M 41030M 41031  41055M 41089  41215M 41217M 41258  41408M 41434  41700M 41724  41773M 41777M
             41786M 41786  41805M 41807  41824  41841M 41842  41881M 41884M 41886  41903  41941M 41965  42014M 42018M
             42027M 42027  42046M 42048  42065  42082M 42083  42122M 42125M 42127  42144  42182M 42206  42255M 42259M
             42268M 42268  42291M 42293  42310M 42311  42346M 42349M 42351  42397M 42418  42458M 42482  42590M 42593M
             42597M 42725M 42816M 42825M 42825  42832M 42840M 42849M 42849  42859M 42859  42864  42884M 42933  42974M
             42975M 42989  43002  43019  43057  43069M 43069  43184M 43185M 43187M 43188  43200  43206  43222M 43223
             43232M 43242M 43242  43250M 43252  43274M 43285M 43285  43293M 43295  43318M 43319M 43320M 43332M 43332
             43340M 43342  43364M 43365M 43366M 43367  43388M 43460  43491M 43492M 43502M 43502  43510M 43512  43527
             43539M 43549M 43549  43557M 43559  43574N 43584M 43594  43633M 43658  43725M 43726M 43727  43728  43730M
             43740M 43740  43748M 43750  43765N 43790M 43824  43875M 43876M 43877  43878  43880M 43890M 43890  43898M
             43900  43915N 44048M 44049M 44050  44051  44053M 44063M 44063  44071M 44073  44088N 44227M 44228  44230M
             44237M 44238M 44239  44240  44243M 44255M 44255  44263M 44265  44280N 44305M 44342  44726M 44727  44795M
             44857  45071M 45147  45188M 45227M 45227  45250M 45277  45712M 45823  46140M 46266  46366M 46386  46432M
             46452  46498M 46531  46811M 46811  46848M 46876  46974M 46976N 46997M 46997N 47438M 47516  48001M 48172
             48238M 48258  48305M 48325  48371M 48391  48438M 48458  48505M 48525  48571M 48603  48639M 48687M 48688M
             48688N 48700D 48702M 48702  48703M 48704U 48727M 48727  48838M 48847M 48847  48854  48874M 48879M 48888M
             48888  48895  48958M 49067  49345M 49349  49385  49522M 49743  49790M 49810  49857M 49877  49905M 49952M
             49972  50024M 50071M 50091  50135  50185M 50263  50533M 50569  50997M 51185  51226M 51246  51287M 51307
             51348M 51368  51409M 51429  51470M
     3(3)      970U  2128   6701   6751M  6775   7343M  7516   7563M  7583   7675M  7695   7787M  7807   7903M  7930
              8152M  8410   8933M  8943U  8957U  8979M  8980M  8980N  9007   9037   9131   9158   9193   9220   9261M
              9271   9278   9279M  9279N  9299M  9304M  9306   9316M  9325M  9327   9395M  9395   9402   9434M  9435M
              9435   9490M  9516M  9629M  9630M 10145M 10150  10262M 10460M 10465  10493M 11286M 11344  11442M 11919
             11924M 11938M 12149M 12231  12326M 12356  12694M 12768  13217M 13248  13327M 14141M 14360  14430M 14468M
             14591  14618M 14649  14781M 15243M 15274  15461M 15475  15524M 15525M 15526  15527M 15528M 15529  15538M
             15539M 15539N 15567  15591  15626  15650  15697M 15729  15841M 15872  15980M 16012  16280M 16312  16401M
             16411  16418  16419M 16419N 16439M 16445M 16457  16463M 16471  16491M 16498  16508M 16517M 16519  16648M
             16648  16655  16703M 16735  16896M 16906U 16951U 16980M 17012  17075M 17088  17094M 17095  17168M 17200
             17263M 17276  17282M 17283  17315M 17357M 17406  17488M 17489  17491M 17494M 17495  17521M 17553  17719M
             17885M 17950M 17982  18161M 18327M 18392M 18457  18592M 18748M 18749M 18759  18765  18766M 18767  18771M
             18773  18803M 18805N 18806M 18816M 18816  18824M 18826  18852M 18917M 18949  19033M 19043  19050  19051M
             19051N 19075M 19087  19093M 19101  19121M 19137  19144  19276M 19308  19523M 19546  19856M 19880  19973M
             19997  20119M 20143  20265M 20333  20517M 20786  20852M 20877  20937M 20962  21035M 21060  21135M 21161
             21345M 21371  21537M 21563  21657M 21683  21752M 21777  22176M 22202  22346M 22358  22387  22429N 22438M
             22438  22447M 22497  22521M 22585  22649M 22669  22816  23198M 23279  23305M 23307  23323M 23343  23413M
             23415  23436M 23456  23515M 23535  23618M 23642  23720M 23743  23845M 23995  24064M 24193  25049M 25050M
             25050  25063M 25085M 25095  25723  25728M 25735M 25958  25963M 25971M 26809M 27047  27165M 27185  27226M
             27246  27310M 27330  27376M 27396  27443M 27463  27509M 27530  27660M 27771  27906M 28000  28157M 28161M
             28170M 28170  28177  28500M 28705M 28756  28937M 29004  29051M 29071  29113M 29133  29204M 29237  29378M
             29431  29908M 29976  30023M 30043  30085M 30105  30176M 30252  30504M 30516M 30516  30739  30920M 30979M
             31094  31140M 31164  31385M 31459M 31464  31557  31597  31723M 31860  32019M 32115  32162M 32188  32587M
             32851  33391M 34210  34257M 34277  34413M 34433  34549M 34569  34658M 34678  34785M 34805  34912M 34932
             34985M 35011  35058M 35078  35125M 35145  35192M 35218  35265M 35286  35379M 35400  35523M 35544  35579M
             35583M 35592M 35592  35599  35642M 35663  35699M 35703M 35712M 35712  35719  35765M 35786  35822M 35826M
             35835M 35835  35842  35888M 35909  35956M 35977  36024M 36045  36100M 36123  36170M 36190  36237M 36257
             36393  36394  36487M 36553  36600M 36620  36646M 36648  36664M 36688  36734M 36754  36800M 36820  36875M
             36895  36952M 36972  37014M 37035  37138M 37223  37373M 37373  37387  37401  37677  37691  37705  37981
             37995  38009  38031M 38031  38041M 38041  38046  38048M 38049  38106M 38189  38230M 38250  38347M 38367
1         (LINE2193) (12:47) (15MAR04) General Purpose Register Cross Reference                                             Page  279
             38393M 38395  38411M 38431  38472M 38498  38592M 38626  38717M 38785  38826M 38846  38943M 38965  39086
             39107M 39173  39220M 39240  39266M 39268  39283M 39346  39453  39474M 39557  39598M 39618  39715M 39735
             39761M 39763  39779M 39799  39825M 39827  39843M 39901  39957M 39958M 39960M 39975  40010M 40025  40043
             40058  40091M 40099M 40100  40101  40104M 40114  40177  40180M 40204  40224M 40232M 40233  40237M 40238M
             40239  40241M 40242M 40245M 40246  40249M 40251M 40254M 40266  40284M 40304  40372M 40373M 40375M 40392M
             40394M 40396M 40424M 40479  40606M 40631  40676M 40678M 40680M 40689M 40689  40697M 40699  40736M 40738M
             40740M 40749M 40749  40757M 40759  40776  41007M 41008  41055M 41089  41218M 41230  41408M 41434  41700M
             41724  41774M 41776M 41777  41941M 41965  42015M 42017M 42018  42182M 42206  42256M 42258M 42259  42397M
             42418  42458M 42482  42591M 42593M 42601M 42601  42729M 42729  42884M 42933  43233M 43275M 43276M 43321M
             43322M 43323M 43388M 43460  43493M 43527M 43527N 43528  43540M 43574M 43574  43575  43633M 43658  43731M
             43765M 43765  43766  43790M 43824  43881M 43915M 43915  43916  44054M 44088M 44088  44089  44225M 44226M
             44228M 44230M 44244M 44245M 44246  44280M 44280  44281  44305M 44342  44372M 44432M 44795M 44857  45071M
             45147  45250M 45277  45712M 45823  46140M 46266  46366M 46386  46432M 46452  46498M 46531  46765M 46766M
             46768  46822M 46822  46849  46870M 46878  46954M 46955M 46955  46968M 46986  47438M 47516  48001M 48172
             48238M 48258  48305M 48325  48371M 48391  48438M 48458  48505M 48525  48571M 48603  48767M 48768M 48780
             48832  48958M 49067  49522M 49743  49790M 49810  49857M 49877  49952M 49972  50071M 50091  50185M 50263
             50533M 50569  50997M 51185  51226M 51246  51287M 51307  51348M 51368  51409M 51429  51470M
     4(4)      966U  2128   6701   6751M  6775   7343M  7516   7563M  7583   7675M  7695   7787M  7807   7903M  7930
              8152M  8410   8948M  8949M  9271   9277   9299   9307   9308M  9308N  9385M  9385N  9452M  9461U  9489M
              9496U  9631M  9942M  9943M  9944M  9944N  9954U  9974U 10124M 10140U 10264M 10293U 10445M 10455U 10495M
             10524U 11304M 11305M 11339M 11339N 12149M 12231  12326M 12356  12694M 12768  13217M 13248  13322M 13363M
             13364  14141M 14360  14618M 14649  14745M 15058  15072M 15073  15243M 15274  15460M 15460  15499M 15509M
             15518M 15518  15525  15528  15697M 15729  15841M 15872  15980M 16012  16122M 16123M 16135  16141  16142M
             16146M 16148  16280M 16312  16399M 16400M 16411  16417  16439  16499  16500M 16500N 16600M 16600N 16634M
             16634N 16703M 16735  16853M 16865  16896N 16943M 16943N 16944  16980M 17012  17073M 17074M 17075N 17126M
             17126N 17168M 17200  17261M 17262M 17263N 17314M 17314N 17357M 17406  17487M 17489M 17490  17521M 17553
             17701M 17702M 17710  17720M 17820M 17829M 17831M 17844  17884M 17884N 17885N 17950M 17982  18143M 18144M
             18152  18162M 18262M 18271M 18273M 18286  18326M 18326N 18327N 18392M 18457  18574M 18575M 18583  18593M
             18692M 18738M 18740M 18748  18792  18802M 18802N 18852N 18917M 18949  19031M 19032M 19043  19049  19149M
             19149N 19209M 19209N 19276M 19308  19457M 19458M 19459M 19459N 19469U 19490U 19523M 19546  19856M 19880
             19973M 19997  20119M 20143  20265M 20333  20517M 20786  20852M 20877  20937M 20962  21035M 21060  21135M
             21161  21345M 21371  21537M 21563  21657M 21683  21752M 21777  22176M 22202  22521M 22585  22649M 22669
             23198M 23279  23323M 23343  23436M 23456  23515M 23535  23618M 23642  23720M 23743  23845M 23995  24064M
             24193  26809M 27047  27165M 27185  27226M 27246  27310M 27330  27376M 27396  27443M 27463  27509M 27530
             27660M 27771  27906M 28000  28705M 28756  28937M 29004  29051M 29071  29113M 29133  29204M 29237  29378M
             29431  29908M 29976  30023M 30043  30085M 30105  30176M 30252  30414M 30427  30465  30953M 30979M 31094
             31140M 31164  31192M 31195M 31196  31208  31226M 31227M 31228M 31228N 31723M 31860  32019M 32115  32162M
             32188  32316M 32422  32587M 32851  33391M 34210  34257M 34277  34413M 34433  34549M 34569  34658M 34678
             34785M 34805  34912M 34932  34985M 35011  35058M 35078  35125M 35145  35192M 35218  35265M 35286  35379M
             35400  35523M 35544  35642M 35663  35765M 35786  35888M 35909  35956M 35977  36024M 36045  36100M 36123
             36170M 36190  36237M 36257  36487M 36553  36600M 36620  36664M 36688  36734M 36754  36800M 36820  36875M
             36895  36952M 36972  37014M 37035  37138M 37223  38106M 38189  38230M 38250  38347M 38367  38411M 38431
             38472M 38498  38592M 38626  38717M 38785  38826M 38846  38943M 38965  39107M 39173  39220M 39240  39283M
             39346  39474M 39557  39598M 39618  39715M 39735  39779M 39799  39843M 39901  40288M 40288  40310M 40313M
             40339M 40339  40344M 40345  40424M 40479  40606M 40631  40678M 40738M 40774M 41055M 41089  41236M 41252M
             41252N 41408M 41434  41700M 41724  41822M 41901M 41941M 41965  42063M 42142M 42182M 42206  42397M 42418
             42458M 42482  42593M 42884M 42933  43388M 43460  43633M 43658  43790M 43824  43929M 43945  44103M 44120
             44219  44230M 44305M 44342  44795M 44857  45071M 45147  45250M 45277  45303M 45451  45452  45481  45488
             45512  45513  45712M 45823  46140M 46266  46366M 46386  46432M 46452  46498M 46531  46568M 46587N 46604
             46630M 46639M 46640N 46654M 46654  46682M 46688M 46705  46712M 46713M 46719  46723M 46724  46766  46767N
             47438M 47516  47942M 47944M 47975M 48001M 48172  48238M 48258  48305M 48325  48371M 48391  48438M 48458
             48505M 48525  48571M 48603  48958M 49067  49522M 49743  49790M 49810  49857M 49877  49952M 49972  50071M
             50091  50185M 50263  50533M 50569  50997M 51185  51226M 51246  51287M 51307  51348M 51368  51409M 51429
             51470M
     5(5)      962U  2128   6701   6751M  6775   7343M  7516   7563M  7583   7675M  7695   7787M  7807   7903M  7930
              8152M  8410   8898M  8898   8914   8933N  9054   9056M  9068M  9068   9076M  9078   9099M  9441N  9510M
              9510N  9628M  9631N  9659   9687   9727   9740   9746   9783M  9813M  9823U  9846M  9904M  9940U 10122M
             10262  10493  11344M 11345M 12149M 12231  12326M 12356  12668M 12669M 12670  12694M 12768  13217M 13248
             14141M 14360  14618M 14649  15243M 15274  15412M 15413M 15417M 15417N 15475  15496M 15507M 15537  15663
1         (LINE2193) (12:47) (15MAR04) General Purpose Register Cross Reference                                             Page  280
             15697M 15729  15841M 15872  15980M 16012  16120M 16121M 16122  16170M 16170N 16245M 16280M 16312  16703M
             16735  16980M 17012  17168M 17200  17357M 17406  17521M 17553  17835M 17844M 17869  17876  17883M 17895M
             17895  17903M 17905  17950M 17982  18277M 18286M 18311  18318  18325M 18337M 18337  18345M 18347  18392M
             18457  18747M 18767M 18792M 18851M 18862M 18862  18870M 18872  18917M 18949  19276M 19308  19523M 19546
             19856M 19880  19973M 19997  20119M 20143  20265M 20333  20517M 20786  20852M 20877  20937M 20962  21035M
             21060  21135M 21161  21345M 21371  21537M 21563  21657M 21683  21752M 21777  22176M 22202  22521M 22585
             22649M 22669  23198M 23279  23323M 23343  23436M 23456  23515M 23535  23618M 23642  23720M 23743  23845M
             23995  24064M 24193  26809M 27047  27165M 27185  27226M 27246  27310M 27330  27376M 27396  27443M 27463
             27509M 27530  27660M 27771  27906M 28000  28705M 28756  28937M 29004  29051M 29071  29113M 29133  29204M
             29237  29378M 29431  29908M 29976  30023M 30043  30085M 30105  30176M 30252  30385M 30394M 30394  30412M
             30413M 30413N 30427  30979M 31094  31140M 31164  31723M 31860  32019M 32115  32162M 32188  32315M 32421
             32587M 32851  33391M 34210  34257M 34277  34413M 34433  34549M 34569  34658M 34678  34785M 34805  34912M
             34932  34985M 35011  35058M 35078  35125M 35145  35192M 35218  35265M 35286  35379M 35400  35523M 35544
             35642M 35663  35765M 35786  35888M 35909  35956M 35977  36024M 36045  36100M 36123  36170M 36190  36237M
             36257  36487M 36553  36600M 36620  36664M 36688  36734M 36754  36800M 36820  36875M 36895  36952M 36972
             37014M 37035  37138M 37223  38106M 38189  38230M 38250  38347M 38367  38411M 38431  38472M 38498  38592M
             38626  38717M 38785  38826M 38846  38943M 38965  39107M 39173  39220M 39240  39283M 39346  39474M 39557
             39598M 39618  39715M 39735  39779M 39799  39843M 39901  40292M 40292  40311M 40312M 40313  40424M 40479
             40606M 40631  40677M 40678M 40737M 40738M 41055M 41089  41408M 41434  41700M 41724  41941M 41965  42182M
             42206  42397M 42418  42458M 42482  42592M 42593M 42884M 42933  43388M 43460  43633M 43658  43790M 43824
             44229M 44230M 44305M 44342  44795M 44857  45071M 45147  45250M 45277  45712M 45823  46140M 46266  46366M
             46386  46432M 46452  46498M 46531  46587M 46589M 46629M 46640M 46642M 46680M 47438M 47516  47941M 47974M
             48001M 48172  48238M 48258  48305M 48325  48371M 48391  48438M 48458  48505M 48525  48571M 48603  48765M
             48767  48875N 48937  48958M 49067  49522M 49743  49790M 49810  49857M 49877  49952M 49972  50071M 50091
             50185M 50263  50533M 50569  50603M 50644  50997M 51185  51226M 51246  51287M 51307  51348M 51368  51409M
             51429  51470M
     6(6)      958U  2128   6701   6751M  6775   6811M  6821U  6832   7325U  7343M  7516   7563M  7583   7618U  7662U
              7675M  7695   7730U  7774U  7787M  7807   7842U  7890U  7903M  7930   7956M  7966U  8139U  8152M  8410
              8446M  8456U 12131U 12149M 12231  12266U 12313U 12326M 12356  12391U 12681U 12694M 12768  12813U 13199U
             13217M 13248  13283U 14128U 14141M 14360  14395U 14605U 14618M 14649  14684U 15230U 15243M 15274  15309U
             15684U 15697M 15729  15764U 15828U 15841M 15872  15907U 15967U 15980M 16012  16047U 16267U 16280M 16312
             16347U 16690U 16703M 16735  16770U 16967U 16980M 17012  17047U 17155U 17168M 17200  17235U 17344U 17357M
             17406  17441U 17508U 17521M 17553  17588U 17937U 17950M 17982  18017U 18379U 18392M 18457  18492U 18904U
             18917M 18949  18984U 19263U 19276M 19308  19343U 19510U 19523M 19546  19581U 19843U 19856M 19880  19915U
             19960U 19973M 19997  20032U 20106U 20119M 20143  20178U 20252U 20265M 20333  20368U 20504U 20517M 20786
             20821U 20839U 20852M 20877  20912U 20924U 20937M 20962  20997U 21022U 21035M 21060  21095U 21122U 21135M
             21161  21196U 21332U 21345M 21371  21406U 21524U 21537M 21563  21598U 21644U 21657M 21683  21718U 21739U
             21752M 21777  21812U 22163U 22176M 22202  22237U 22508U 22521M 22585  22649M 22669  22704U 23185U 23198M
             23279  23323M 23343  23378U 23423U 23436M 23456  23515M 23535  23618M 23642  23677U 23707U 23720M 23743
             23778U 23832U 23845M 23995  24064M 24193  24229M 24237U 26809M 27047  27165M 27185  27226M 27246  27310M
             27330  27376M 27396  27443M 27463  27509M 27530  27660M 27672U 27771  27906M 28000  28705M 28756  28792M
             28800U 28937M 29004  29051M 29071  29113M 29133  29204M 29216U 29237  29378M 29431  29467M 29475U 29908M
             29976  30023M 30043  30085M 30105  30176M 30188U 30252  30288M 30296U 30979M 31094  31140M 31164  31723M
             31735U 31860  32019M 32115  32162M 32188  32232M 32233  32587M 32851  32913M 32921U 32938  33391M 34210
             34257M 34277  34413M 34433  34549M 34569  34658M 34678  34785M 34805  34912M 34932  34985M 35011  35058M
             35078  35125M 35145  35192M 35218  35265M 35286  35379M 35400  35523M 35544  35642M 35663  35765M 35786
             35888M 35909  35956M 35977  36024M 36045  36100M 36123  36170M 36190  36237M 36257  36487M 36553  36600M
             36620  36664M 36688  36734M 36754  36800M 36820  36875M 36895  36952M 36972  37014M 37035  37138M 37223
             38106M 38189  38230M 38250  38347M 38367  38411M 38431  38472M 38498  38592M 38626  38717M 38785  38826M
             38846  38943M 38965  39107M 39173  39220M 39240  39283M 39346  39474M 39557  39598M 39618  39715M 39735
             39779M 39799  39843M 39901  40424M 40479  40509M 40606M 40631  41055M 41089  41408M 41434  41700M 41724
             41941M 41965  42182M 42206  42397M 42418  42458M 42482  42884M 42933  43388M 43460  43633M 43658  43790M
             43824  44305M 44342  44795M 44857  45071M 45147  45250M 45277  45712M 45823  45859M 45867U 45870U 45882
             46140M 46266  46366M 46386  46432M 46452  46498M 46510U 46531  46557M 46565U 47438M 47449U 47516  47552M
             47560U 47562  48001M 48172  48238M 48258  48305M 48325  48371M 48391  48438M 48458  48505M 48525  48571M
             48582U 48603  48629M 48637U 48958M 48969U 49067  49103M 49111U 49522M 49743  49790M 49810  49857M 49877
             49952M 49972  50071M 50091  50185M 50196U 50263  50533M 50569  50602M 50639  50997M 51185  51226M 51246
             51287M 51307  51348M 51368  51409M 51429  51470M
     7(7)      954U  2121M  2121   2122B  2128   2134B  6701   6706M  6718U  6743U  6751M  6775   6781M  6793U  7335U
1         (LINE2193) (12:47) (15MAR04) General Purpose Register Cross Reference                                             Page  281
              7343M  7516   7521M  7533U  7555U  7563M  7583   7588M  7600U  7667U  7675M  7695   7700M  7712U  7779U
              7787M  7807   7812M  7824U  7895U  7903M  7930   7935M  7947U  8144U  8152M  8410   8416M  8428U 12141U
             12149M 12231  12236M 12248U 12318U 12326M 12356  12361M 12373U 12686U 12694M 12768  12774M 12786U 13209U
             13217M 13248  13253M 13265U 14133U 14141M 14360  14365M 14377U 14610U 14618M 14649  14654M 14666U 15235U
             15243M 15274  15279M 15291U 15689U 15697M 15729  15734M 15746U 15833U 15841M 15872  15877M 15889U 15972U
             15980M 16012  16017M 16029U 16272U 16280M 16312  16317M 16329U 16695U 16703M 16735  16740M 16752U 16972U
             16980M 17012  17017M 17029U 17160U 17168M 17200  17205M 17217U 17349U 17357M 17406  17411M 17423U 17513U
             17521M 17553  17558M 17570U 17942U 17950M 17982  17987M 17999U 18384U 18392M 18457  18462M 18474U 18909U
             18917M 18949  18954M 18966U 19268U 19276M 19308  19313M 19325U 19515U 19523M 19546  19551M 19563U 19848U
             19856M 19880  19885M 19897U 19965U 19973M 19997  20002M 20014U 20111U 20119M 20143  20148M 20160U 20257U
             20265M 20333  20338M 20350U 20509U 20517M 20786  20791M 20803U 20844U 20852M 20877  20882M 20894U 20929U
             20937M 20962  20967M 20979U 21027U 21035M 21060  21065M 21077U 21127U 21135M 21161  21166M 21178U 21337U
             21345M 21371  21376M 21388U 21529U 21537M 21563  21568M 21580U 21649U 21657M 21683  21688M 21700U 21744U
             21752M 21777  21782M 21794U 22168U 22176M 22202  22207M 22219U 22513U 22521M 22585  22590M 22602U 22641U
             22649M 22669  22674M 22686U 23190U 23198M 23279  23284M 23296U 23315U 23323M 23343  23348M 23360U 23428U
             23436M 23456  23461M 23473U 23507U 23515M 23535  23540M 23552U 23610U 23618M 23642  23647M 23659U 23712U
             23720M 23743  23748M 23760U 23837U 23845M 23995  24000M 24012U 24056U 24064M 24193  24199M 24211U 26801U
             26809M 27047  27052M 27064U 27157U 27165M 27185  27190M 27202U 27218U 27226M 27246  27251M 27263U 27302U
             27310M 27330  27335M 27347U 27368U 27376M 27396  27401M 27413U 27435U 27443M 27463  27468M 27480U 27501U
             27509M 27530  27535M 27547U 27652U 27660M 27771  27776M 27788U 27898U 27906M 28000  28006M 28018U 28697U
             28705M 28756  28762M 28774U 28929U 28937M 29004  29009M 29021U 29043U 29051M 29071  29076M 29088U 29105U
             29113M 29133  29138M 29150U 29196U 29204M 29237  29242M 29254U 29370U 29378M 29431  29437M 29449U 29900U
             29908M 29976  29981M 29993U 30015U 30023M 30043  30048M 30060U 30077U 30085M 30105  30110M 30122U 30168U
             30176M 30252  30258M 30270U 30971U 30979M 31094  31099M 31111U 31132U 31140M 31164  31169M 31181U 31715U
             31723M 31860  31866M 31878U 32011U 32019M 32115  32120M 32132U 32154U 32162M 32188  32193M 32205U 32579U
             32587M 32851  32857M 32869U 33383U 33391M 34210  34215M 34227U 34249U 34257M 34277  34282M 34294U 34405U
             34413M 34433  34438M 34450U 34541U 34549M 34569  34574M 34586U 34650U 34658M 34678  34683M 34695U 34777U
             34785M 34805  34810M 34822U 34904U 34912M 34932  34937M 34949U 34977U 34985M 35011  35016M 35028U 35050U
             35058M 35078  35083M 35095U 35117U 35125M 35145  35150M 35162U 35184U 35192M 35218  35223M 35235U 35257U
             35265M 35286  35291M 35303U 35371U 35379M 35400  35405M 35417U 35515U 35523M 35544  35549M 35561U 35634U
             35642M 35663  35668M 35680U 35757U 35765M 35786  35791M 35803U 35880U 35888M 35909  35914M 35926U 35948U
             35956M 35977  35982M 35994U 36016U 36024M 36045  36050M 36062U 36092U 36100M 36123  36128M 36140U 36162U
             36170M 36190  36195M 36207U 36229U 36237M 36257  36262M 36274U 36479U 36487M 36553  36558M 36570U 36592U
             36600M 36620  36625M 36637U 36656U 36664M 36688  36693M 36705U 36726U 36734M 36754  36759M 36771U 36792U
             36800M 36820  36825M 36837U 36867U 36875M 36895  36900M 36912U 36944U 36952M 36972  36977M 36989U 37006U
             37014M 37035  37040M 37052U 37130U 37138M 37223  37228M 37240U 38098U 38106M 38189  38194M 38206U 38222U
             38230M 38250  38255M 38267U 38339U 38347M 38367  38372M 38384U 38403U 38411M 38431  38436M 38448U 38464U
             38472M 38498  38503M 38515U 38584U 38592M 38626  38631M 38643U 38709U 38717M 38785  38790M 38802U 38818U
             38826M 38846  38851M 38863U 38935U 38943M 38965  38970M 38982U 39099U 39107M 39173  39178M 39190U 39212U
             39220M 39240  39245M 39257U 39275U 39283M 39346  39351M 39363U 39466U 39474M 39557  39562M 39574U 39590U
             39598M 39618  39623M 39635U 39707U 39715M 39735  39740M 39752U 39771U 39779M 39799  39804M 39816U 39835U
             39843M 39901  39907M 39919U 40416U 40424M 40479  40484M 40496U 40598U 40606M 40631  40636M 40648U 41047U
             41055M 41089  41094M 41106U 41400U 41408M 41434  41439M 41451U 41692U 41700M 41724  41729M 41741U 41933U
             41941M 41965  41970M 41982U 42174U 42182M 42206  42211M 42223U 42389U 42397M 42418  42423M 42435U 42450U
             42458M 42482  42487M 42499U 42876U 42884M 42933  42939M 42951U 43380U 43388M 43460  43465M 43477U 43625U
             43633M 43658  43663M 43675U 43782U 43790M 43824  43829M 43841U 44297U 44305M 44342  44347M 44359U 44787U
             44795M 44857  44862M 44874U 45063U 45071M 45147  45152M 45164U 45242U 45250M 45277  45282M 45294U 45704U
             45712M 45823  45829M 45841U 46132U 46140M 46266  46271M 46283U 46358U 46366M 46386  46391M 46403U 46424U
             46432M 46452  46457M 46469U 46490U 46498M 46531  46536M 46548U 47430U 47438M 47516  47522M 47534U 47993U
             48001M 48172  48177M 48189U 48230U 48238M 48258  48263M 48275U 48297U 48305M 48325  48330M 48342U 48363U
             48371M 48391  48396M 48408U 48430U 48438M 48458  48463M 48475U 48497U 48505M 48525  48530M 48542U 48563U
             48571M 48603  48608M 48620U 48950U 48958M 49067  49073M 49085U 49514U 49522M 49743  49748M 49760U 49782U
             49790M 49810  49815M 49827U 49849U 49857M 49877  49882M 49894U 49944U 49952M 49972  49977M 49989U 50063U
             50071M 50091  50096M 50108U 50177U 50185M 50263  50268M 50280U 50525U 50533M 50569  50574M 50586U 50989U
             50997M 51185  51190M 51202U 51218U 51226M 51246  51251M 51263U 51279U 51287M 51307  51312M 51324U 51340U
             51348M 51368  51373M 51385U 51401U 51409M 51429  51434M 51446U 51462U 51470M
     8(8)      950U  2128   6701   6702M  6747   6751M  6775   6777M  6807U  7330U  7339   7343M  7516   7517M  7559
              7563M  7583   7584M  7671   7675M  7695   7696M  7783   7787M  7807   7808M  7899   7903M  7930   7931M
              8148   8152M  8410   8412M  8442U 12136U 12145  12149M 12231  12232M 12322  12326M 12356  12357M 12690
1         (LINE2193) (12:47) (15MAR04) General Purpose Register Cross Reference                                             Page  282
             12694M 12768  12770M 12800U 13204U 13213  13217M 13248  13249M 14137  14141M 14360  14361M 14614  14618M
             14649  14650M 15239  15243M 15274  15275M 15693  15697M 15729  15730M 15837  15841M 15872  15873M 15976
             15980M 16012  16013M 16276  16280M 16312  16313M 16699  16703M 16735  16736M 16976  16980M 17012  17013M
             17164  17168M 17200  17201M 17353  17357M 17406  17407M 17517  17521M 17553  17554M 17946  17950M 17982
             17983M 18388  18392M 18457  18458M 18913  18917M 18949  18950M 19272  19276M 19308  19309M 19519  19523M
             19546  19547M 19852  19856M 19880  19881M 19969  19973M 19997  19998M 20115  20119M 20143  20144M 20261
             20265M 20333  20334M 20513  20517M 20786  20787M 20848  20852M 20877  20878M 20933  20937M 20962  20963M
             21031  21035M 21060  21061M 21131  21135M 21161  21162M 21341  21345M 21371  21372M 21533  21537M 21563
             21564M 21653  21657M 21683  21684M 21748  21752M 21777  21778M 22172  22176M 22202  22203M 22517  22521M
             22585  22586M 22645  22649M 22669  22670M 23194  23198M 23279  23280M 23307N 23319  23323M 23343  23344M
             23415N 23432  23436M 23456  23457M 23511  23515M 23535  23536M 23614  23618M 23642  23643M 23716  23720M
             23743  23744M 23841  23845M 23995  23996M 24060  24064M 24193  24195M 24225U 26796U 26805  26809M 27047
             27048M 27161  27165M 27185  27186M 27222  27226M 27246  27247M 27306  27310M 27330  27331M 27372  27376M
             27396  27397M 27439  27443M 27463  27464M 27505  27509M 27530  27531M 27656  27660M 27771  27772M 27902
             27906M 28000  28002M 28032U 28692U 28701  28705M 28756  28758M 28788U 28924U 28933  28937M 29004  29005M
             29047  29051M 29071  29072M 29109  29113M 29133  29134M 29200  29204M 29237  29238M 29374  29378M 29431
             29433M 29463U 29895U 29904  29908M 29976  29977M 30019  30023M 30043  30044M 30081  30085M 30105  30106M
             30172  30176M 30252  30254M 30284U 30966U 30975  30979M 31094  31095M 31136  31140M 31164  31165M 31719
             31723M 31860  31862M 31892U 32006U 32015  32019M 32115  32116M 32158  32162M 32188  32189M 32583  32587M
             32851  32853M 32883U 33378U 33387  33391M 34210  34211M 34253  34257M 34277  34278M 34409  34413M 34433
             34434M 34545  34549M 34569  34570M 34654  34658M 34678  34679M 34781  34785M 34805  34806M 34908  34912M
             34932  34933M 34981  34985M 35011  35012M 35054  35058M 35078  35079M 35121  35125M 35145  35146M 35188
             35192M 35218  35219M 35261  35265M 35286  35287M 35375  35379M 35400  35401M 35519  35523M 35544  35545M
             35638  35642M 35663  35664M 35761  35765M 35786  35787M 35884  35888M 35909  35910M 35952  35956M 35977
             35978M 36020  36024M 36045  36046M 36096  36100M 36123  36124M 36166  36170M 36190  36191M 36233  36237M
             36257  36258M 36483  36487M 36553  36554M 36596  36600M 36620  36621M 36648N 36660  36664M 36688  36689M
             36730  36734M 36754  36755M 36796  36800M 36820  36821M 36871  36875M 36895  36896M 36948  36952M 36972
             36973M 37010  37014M 37035  37036M 37134  37138M 37223  37224M 38102  38106M 38189  38190M 38226  38230M
             38250  38251M 38343  38347M 38367  38368M 38395N 38407  38411M 38431  38432M 38468  38472M 38498  38499M
             38588  38592M 38626  38627M 38713  38717M 38785  38786M 38822  38826M 38846  38847M 38939  38943M 38965
             38966M 39103  39107M 39173  39174M 39216  39220M 39240  39241M 39268N 39279  39283M 39346  39347M 39459N
             39470  39474M 39557  39558M 39594  39598M 39618  39619M 39711  39715M 39735  39736M 39763N 39775  39779M
             39799  39800M 39827N 39839  39843M 39901  39903M 39933U 40411U 40420  40424M 40479  40480M 40602  40606M
             40631  40632M 41051  41055M 41089  41090M 41404  41408M 41434  41435M 41696  41700M 41724  41725M 41937
             41941M 41965  41966M 42178  42182M 42206  42207M 42393  42397M 42418  42419M 42454  42458M 42482  42483M
             42880  42884M 42933  42935M 42965U 43375U 43384  43388M 43460  43461M 43629  43633M 43658  43659M 43786
             43790M 43824  43825M 44301  44305M 44342  44343M 44791  44795M 44857  44858M 45067  45071M 45147  45148M
             45246  45250M 45277  45278M 45708  45712M 45823  45825M 45855U 46127U 46136  46140M 46266  46267M 46362
             46366M 46386  46387M 46428  46432M 46452  46453M 46494  46498M 46531  46532M 47434  47438M 47516  47518M
             47548U 47988U 47997  48001M 48172  48173M 48234  48238M 48258  48259M 48301  48305M 48325  48326M 48367
             48371M 48391  48392M 48434  48438M 48458  48459M 48501  48505M 48525  48526M 48567  48571M 48603  48604M
             48954  48958M 49067  49069M 49099U 49509U 49518  49522M 49743  49744M 49786  49790M 49810  49811M 49853
             49857M 49877  49878M 49948  49952M 49972  49973M 50067  50071M 50091  50092M 50181  50185M 50263  50264M
             50518  50529  50533M 50569  50570M 50993  50997M 51185  51186M 51222  51226M 51246  51247M 51283  51287M
             51307  51308M 51344  51348M 51368  51369M 51405  51409M 51429  51430M 51466  51470M
     9(9)      946U  2128
    10(A)      942U  2128
    11(B)      938U  1192U  2128
    12(C)      934U  1201U  2128
    13(D)      930U  2128   6698   6701   6702   6703M  6703   6747M  6751   6753   6772   6775   6777   6778M  6778
              6883   6884   6885   6887M  6887   6900M  6901   6902   6903   7339M  7343   7345   7513   7516   7517
              7518M  7518   7559M  7563   7565   7580   7583   7584   7585M  7585   7671M  7675   7677   7692   7695
              7696   7697M  7697   7783M  7787   7789   7804   7807   7808   7809M  7809   7899M  7903   7905   7927
              7930   7931   7932M  7932   8148M  8152   8154   8407   8410   8412   8413M  8413   9054   9055M  9055
              9098M  9099  10432  10433M 10433  10471  10472M 10472  10491M 10492  10629M 10630  11919  11920M 11920
             11937M 11938  12145M 12149  12151  12228  12231  12232  12233M 12233  12322M 12326  12328  12353  12356
             12357  12358M 12358  12690M 12694  12696  12765  12768  12770  12771M 12771  13213M 13217  13219  13245
             13248  13249  13250M 13250  14137M 14141  14143  14357  14360  14361  14362M 14362  14614M 14618  14620
             14646  14649  14650  14651M 14651  15239M 15243  15245  15271  15274  15275  15276M 15276  15693M 15697
1         (LINE2193) (12:47) (15MAR04) General Purpose Register Cross Reference                                             Page  283
             15699  15726  15729  15730  15731M 15731  15837M 15841  15843  15869  15872  15873  15874M 15874  15976M
             15980  15982  16009  16012  16013  16014M 16014  16276M 16280  16282  16309  16312  16313  16314M 16314
             16699M 16703  16705  16732  16735  16736  16737M 16737  16976M 16980  16982  17009  17012  17013  17014M
             17014  17164M 17168  17170  17197  17200  17201  17202M 17202  17353M 17357  17359  17403  17406  17407
             17408M 17408  17517M 17521  17523  17550  17553  17554  17555M 17555  17946M 17950  17952  17979  17982
             17983  17984M 17984  18388M 18392  18394  18454  18457  18458  18459M 18459  18913M 18917  18919  18946
             18949  18950  18951M 18951  19272M 19276  19278  19305  19308  19309  19310M 19310  19519M 19523  19525
             19543  19546  19547  19548M 19548  19852M 19856  19858  19877  19880  19881  19882M 19882  19969M 19973
             19975  19994  19997  19998  19999M 19999  20115M 20119  20121  20140  20143  20144  20145M 20145  20261M
             20265  20267  20330  20333  20334  20335M 20335  20427  20428  20429  20431M 20431  20444M 20445  20446
             20447  20513M 20517  20519  20783  20786  20787  20788M 20788  20848M 20852  20854  20874  20877  20878
             20879M 20879  20933M 20937  20939  20959  20962  20963  20964M 20964  21031M 21035  21037  21057  21060
             21061  21062M 21062  21131M 21135  21137  21158  21161  21162  21163M 21163  21341M 21345  21347  21368
             21371  21372  21373M 21373  21533M 21537  21539  21560  21563  21564  21565M 21565  21653M 21657  21659
             21680  21683  21684  21685M 21685  21748M 21752  21754  21774  21777  21778  21779M 21779  22172M 22176
             22178  22199  22202  22203  22204M 22204  22517M 22521  22523  22582  22585  22586  22587M 22587  22645M
             22649  22651  22666  22669  22670  22671M 22671  22752  22753  22754  22756M 22756  22769M 22770  22771
             22772  23194M 23198  23200  23276  23279  23280  23281M 23281  23319M 23323  23325  23340  23343  23344
             23345M 23345  23432M 23436  23438  23453  23456  23457  23458M 23458  23511M 23515  23517  23532  23535
             23536  23537M 23537  23614M 23618  23620  23639  23642  23643  23644M 23644  23716M 23720  23722  23740
             23743  23744  23745M 23745  23841M 23845  23847  23992  23995  23996  23997M 23997  24060M 24064  24066
             24190  24193  24195  24196M 24196  24252  24254M 24254  24265  24266  24267  24269M 24269  24282M 24283
             24284  24285  24335M 24346  24348M 24348  24359  24360  24361  24363M 24363  24376M 24377  24378  24379
             24390M 24556  24557  24558  24560M 24560  24573M 24574  24575  24576  25723  25724M 25724  25734M 25735
             25896  25897M 25897  25958  25959M 25959  25970M 25971  25988M 25989  26805M 26809  26811  27044  27047
             27048  27049M 27049  27161M 27165  27167  27182  27185  27186  27187M 27187  27222M 27226  27228  27243
             27246  27247  27248M 27248  27306M 27310  27312  27327  27330  27331  27332M 27332  27372M 27376  27378
             27393  27396  27397  27398M 27398  27439M 27443  27445  27460  27463  27464  27465M 27465  27505M 27509
             27511  27527  27530  27531  27532M 27532  27656M 27660  27662  27768  27771  27772  27773M 27773  27864
             27865  27866  27868M 27868  27881M 27882  27883  27884  27902M 27906  27908  27997  28000  28002  28003M
             28003  28546  28547M 28547  28557M 28701M 28705  28707  28753  28756  28758  28759M 28759  28814  28815
             28816  28818M 28818  28831M 28832  28833  28834  28933M 28937  28939  29001  29004  29005  29006M 29006
             29047M 29051  29053  29068  29071  29072  29073M 29073  29109M 29113  29115  29130  29133  29134  29135M
             29135  29200M 29204  29206  29234  29237  29238  29239M 29239  29374M 29378  29380  29428  29431  29433
             29434M 29434  29489  29490  29491  29493M 29493  29506M 29507  29508  29509  29904M 29908  29910  29973
             29976  29977  29978M 29978  30019M 30023  30025  30040  30043  30044  30045M 30045  30081M 30085  30087
             30102  30105  30106  30107M 30107  30172M 30176  30178  30249  30252  30254  30255M 30255  30358  30359
             30360  30362M 30362  30375M 30376  30377  30378  30975M 30979  30981  31091  31094  31095  31096M 31096
             31136M 31140  31142  31161  31164  31165  31166M 31166  31245  31246  31247  31249M 31249  31261M 31262
             31263  31264  31719M 31723  31725  31857  31860  31862  31863M 31863  31962  31963  31964  31966M 31966
             31979M 31980  31981  31982  32015M 32019  32021  32112  32115  32116  32117M 32117  32158M 32162  32164
             32185  32188  32189  32190M 32190  32583M 32587  32589  32848  32851  32853  32854M 32854  32957  32958
             32959  32961M 32961  32974M 32975  32976  32977  32994  32995  32996  32998M 32998  33011M 33012  33013
             33014  33048  33049  33050  33052M 33052  33065M 33066  33067  33068  33085  33086  33087  33089M 33089
             33102M 33103  33104  33105  33143  33144  33145  33147M 33147  33160M 33161  33162  33163  33180  33181
             33182  33184M 33184  33197M 33198  33199  33200  33387M 33391  33393  34207  34210  34211  34212M 34212
             34253M 34257  34259  34274  34277  34278  34279M 34279  34409M 34413  34415  34430  34433  34434  34435M
             34435  34545M 34549  34551  34566  34569  34570  34571M 34571  34654M 34658  34660  34675  34678  34679
             34680M 34680  34781M 34785  34787  34802  34805  34806  34807M 34807  34908M 34912  34914  34929  34932
             34933  34934M 34934  34981M 34985  34987  35008  35011  35012  35013M 35013  35054M 35058  35060  35075
             35078  35079  35080M 35080  35121M 35125  35127  35142  35145  35146  35147M 35147  35188M 35192  35194
             35215  35218  35219  35220M 35220  35261M 35265  35267  35283  35286  35287  35288M 35288  35375M 35379
             35381  35397  35400  35401  35402M 35402  35519M 35523  35525  35541  35544  35545  35546M 35546  35638M
             35642  35644  35660  35663  35664  35665M 35665  35761M 35765  35767  35783  35786  35787  35788M 35788
             35884M 35888  35890  35906  35909  35910  35911M 35911  35952M 35956  35958  35974  35977  35978  35979M
             35979  36020M 36024  36026  36042  36045  36046  36047M 36047  36096M 36100  36102  36120  36123  36124
             36125M 36125  36166M 36170  36172  36187  36190  36191  36192M 36192  36233M 36237  36239  36254  36257
             36258  36259M 36259  36297  36298  36299  36301M 36301  36313M 36314  36315  36316  36366  36367  36368
             36370M 36370  36383M 36384  36385  36386  36483M 36487  36489  36550  36553  36554  36555M 36555  36596M
1         (LINE2193) (12:47) (15MAR04) General Purpose Register Cross Reference                                             Page  284
             36600  36602  36617  36620  36621  36622M 36622  36660M 36664  36666  36685  36688  36689  36690M 36690
             36730M 36734  36736  36751  36754  36755  36756M 36756  36796M 36800  36802  36817  36820  36821  36822M
             36822  36871M 36875  36877  36892  36895  36896  36897M 36897  36948M 36952  36954  36969  36972  36973
             36974M 36974  37010M 37014  37016  37032  37035  37036  37037M 37037  37134M 37138  37140  37220  37223
             37224  37225M 37225  37286  37287  37288  37290M 37290  37303M 37304  37305  37306  37412  37413  37414
             37416M 37416  37429M 37430  37431  37432  37587  37588  37589  37591M 37591  37604M 37605  37606  37607
             37716  37717  37718  37720M 37720  37733M 37734  37735  37736  37891  37892  37893  37895M 37895  37908M
             37909  37910  37911  38102M 38106  38108  38186  38189  38190  38191M 38191  38226M 38230  38232  38247
             38250  38251  38252M 38252  38343M 38347  38349  38364  38367  38368  38369M 38369  38407M 38411  38413
             38428  38431  38432  38433M 38433  38468M 38472  38474  38495  38498  38499  38500M 38500  38588M 38592
             38594  38623  38626  38627  38628M 38628  38675  38676  38677  38679M 38679  38692M 38693  38694  38695
             38713M 38717  38719  38782  38785  38786  38787M 38787  38822M 38826  38828  38843  38846  38847  38848M
             38848  38939M 38943  38945  38962  38965  38966  38967M 38967  39019  39021M 39021  39059  39060  39061
             39063M 39063  39076M 39077  39078  39079  39091M 39103M 39107  39109  39170  39173  39174  39175M 39175
             39216M 39220  39222  39237  39240  39241  39242M 39242  39279M 39283  39285  39343  39346  39347  39348M
             39348  39382  39383  39384  39386M 39386  39399M 39400  39401  39402  39470M 39474  39476  39554  39557
             39558  39559M 39559  39594M 39598  39600  39615  39618  39619  39620M 39620  39711M 39715  39717  39732
             39735  39736  39737M 39737  39775M 39779  39781  39796  39799  39800  39801M 39801  39839M 39843  39845
             39898  39901  39903  39904M 39904  40420M 40424  40426  40476  40479  40480  40481M 40481  40602M 40606
             40608  40628  40631  40632  40633M 40633  41051M 41055  41057  41086  41089  41090  41091M 41091  41404M
             41408  41410  41431  41434  41435  41436M 41436  41696M 41700  41702  41721  41724  41725  41726M 41726
             41937M 41941  41943  41962  41965  41966  41967M 41967  42178M 42182  42184  42203  42206  42207  42208M
             42208  42393M 42397  42399  42415  42418  42419  42420M 42420  42454M 42458  42460  42479  42482  42483
             42484M 42484  42880M 42884  42886  42930  42933  42935  42936M 42936  43384M 43388  43390  43457  43460
             43461  43462M 43462  43629M 43633  43635  43655  43658  43659  43660M 43660  43786M 43790  43792  43821
             43824  43825  43826M 43826  44301M 44305  44307  44339  44342  44343  44344M 44344  44398  44399M 44399
             44405M 44406  44791M 44795  44797  44854  44857  44858  44859M 44859  44982  44983  44984  44986M 44986
             44999M 45000  45001  45002  45067M 45071  45073  45144  45147  45148  45149M 45149  45246M 45250  45252
             45274  45277  45278  45279M 45279  45708M 45712  45714  45820  45823  45825  45826M 45826  45902  45904M
             45904  45915  45916  45917  45919M 45919  45931M 45932  45933  45934  45945M 46040  46041  46042  46044M
             46044  46057M 46058  46059  46060  46136M 46140  46142  46263  46266  46267  46268M 46268  46362M 46366
             46368  46383  46386  46387  46388M 46388  46428M 46432  46434  46449  46452  46453  46454M 46454  46494M
             46498  46500  46528  46531  46532  46533M 46533  47434M 47438  47440  47513  47516  47518  47519M 47519
             47638  47639  47640  47642M 47642  47655M 47656  47657  47658  47997M 48001  48003  48169  48172  48173
             48174M 48174  48234M 48238  48240  48255  48258  48259  48260M 48260  48301M 48305  48307  48322  48325
             48326  48327M 48327  48367M 48371  48373  48388  48391  48392  48393M 48393  48434M 48438  48440  48455
             48458  48459  48460M 48460  48501M 48505  48507  48522  48525  48526  48527M 48527  48567M 48571  48573
             48600  48603  48604  48605M 48605  48954M 48958  48960  49064  49067  49069  49070M 49070  49179  49180
             49181  49183M 49183  49196M 49197  49198  49199  49217  49218  49219  49221M 49221  49234M 49235  49236
             49237  49255  49256  49257  49259M 49259  49272M 49273  49274  49275  49345  49346M 49346  49420M 49518M
             49522  49524  49740  49743  49744  49745M 49745  49786M 49790  49792  49807  49810  49811  49812M 49812
             49853M 49857  49859  49874  49877  49878  49879M 49879  49948M 49952  49954  49969  49972  49973  49974M
             49974  50067M 50071  50073  50088  50091  50092  50093M 50093  50181M 50185  50187  50260  50263  50264
             50265M 50265  50529M 50533  50535  50566  50569  50570  50571M 50571  50598  50600M 50600  50703  50704
             50705  50707M 50707  50720M 50721  50722  50723  50981M 50993M 50997  50999  51182  51185  51186  51187M
             51187  51222M 51226  51228  51243  51246  51247  51248M 51248  51283M 51287  51289  51304  51307  51308
             51309M 51309  51344M 51348  51350  51365  51368  51369  51370M 51370  51405M 51409  51411  51426  51429
             51430  51431M 51431  51466M 51470  51472
    14(E)      926U  2128   2129M  2143   2144M  2145B  2147M  2148B  2168M  2169B  2173M  2174B  2176M  2177B  2179M
              2180B  2182M  2183B  2185M  2186M  2186B  2192   6698   6735M  6736M  6736B  6753M  6756B  6772   6850M
              6851M  6851B  6868M  6869M  6869B  6882M  6883   6884   6885   6890M  6891   6894M  6895M  6895B  6898M
              6901   6902   6903   6908M  6909M  6909B  6967M  6968M  6968B  6986M  6987M  6987B  7043M  7044M  7044B
              7095M  7096M  7096B  7116M  7117M  7117B  7149M  7150M  7150B  7170M  7171M  7171B  7207M  7208M  7208B
              7228M  7229M  7229B  7265M  7266M  7266B  7286M  7287M  7287B  7315M  7316M  7316B  7345M  7348B  7513
              7565M  7568B  7580   7643M  7644M  7644B  7677M  7680B  7692   7755M  7756M  7756B  7789M  7792B  7804
              7871M  7872M  7872B  7905M  7908B  7927   8120M  8121M  8121B  8154M  8157B  8407   8850M  8851M  8851B
              8977M  8977   9019M  9026   9047M  9047   9058M  9058N  9103M  9103   9143M  9205M  9232M  9233   9514M
              9519M  9528M  9528   9535   9681M  9682M  9682B  9701M  9702M  9702B  9725M  9726M  9726B 10020M 10021M
             10021B 10061M 10062  10093M 10094M 10094B 10111M 10112M 10112B 10120M 10121M 10121B 10128M 10129M 10130
1         (LINE2193) (12:47) (15MAR04) General Purpose Register Cross Reference                                             Page  285
             10157M 10158M 10158B 10208M 10209M 10209B 10240M 10241M 10241B 10267M 10268M 10269  10278M 10278  10355M
             10356M 10356B 10415M 10416M 10416B 10439M 10440M 10440B 10442M 10443M 10444  10478M 10479M 10479B 10482M
             10483M 10483B 10498M 10499M 10500  10509M 10509  10701M 10702M 10702B 10722M 10723M 10723B 10740M 10741M
             10741B 10801M 10802M 10802B 10833M 10834M 10834B 10858M 10859M 10859B 10893M 10894M 10894B 10966M 10967M
             10967B 10986M 10987M 10987B 11274M 11275M 11275B 11570M 11571M 11572  11575M 11576M 11576B 11580M 11581M
             11581B 11584M 11585M 11585B 11594M 11595M 11595B 11618M 11619M 11619B 11623M 11624M 11624B 11732M 11733M
             11733B 11743M 11744M 11744B 11764M 11765M 11765B 11769M 11770M 11770B 11793M 11794M 11794B 11843M 11844M
             11844B 11888M 11889M 11889B 11927M 11928M 11928B 11983M 11984M 11984B 12151M 12154B 12228  12294M 12295M
             12295B 12328M 12331B 12353  12521M 12522M 12522B 12569M 12570M 12570B 12696M 12699B 12765  12898M 12899M
             12899B 12933M 12934M 12934B 12968M 12969M 12969B 13003M 13004M 13004B 13038M 13039M 13039B 13081M 13082M
             13082B 13123M 13124M 13124B 13167M 13168M 13168B 13185M 13186M 13186B 13219M 13222B 13245  13410M 13411M
             13411B 13446M 13447M 13447B 13482M 13483M 13483B 13518M 13519M 13519B 13554M 13555M 13555B 13590M 13591M
             13591B 13626M 13627M 13627B 13662M 13663M 13663B 13698M 13699M 13699B 13734M 13735M 13735B 13770M 13771M
             13771B 13806M 13807M 13807B 13842M 13843M 13843B 13878M 13879M 13879B 13915M 13916M 13916B 13951M 13952M
             13952B 13987M 13988M 13988B 14039M 14040M 14040B 14062M 14063M 14063B 14143M 14146B 14357  14423M 14424M
             14424B 14472M 14473M 14473B 14498M 14499M 14499B 14508M 14509M 14509B 14540M 14541M 14541B 14581M 14582M
             14582B 14620M 14623B 14646  14706M 14707M 14707B 14731M 14732M 14732B 14786M 14787M 14787B 14920M 14921M
             14921B 14968M 14969M 14969B 15008M 15009M 15009B 15150M 15151M 15151B 15206M 15207M 15207B 15245M 15248B
             15271  15450M 15451M 15451B 15699M 15702B 15726  15786M 15787M 15787B 15843M 15846B 15869  15929M 15930M
             15930B 15982M 15985B 16009  16282M 16285B 16309  16705M 16708B 16732  16887M 16888M 16888B 16982M 16985B
             17009  17170M 17173B 17197  17359M 17362B 17403  17476M 17477M 17477B 17523M 17526B 17550  17812M 17813M
             17813B 17952M 17955B 17979  18254M 18255M 18255B 18394M 18397B 18454  18684M 18685M 18685B 18730M 18731M
             18731B 18919M 18922B 18946  19278M 19281B 19305  19366M 19367M 19367B 19405M 19406M 19406B 19449M 19450M
             19450B 19525M 19528B 19543  19604M 19605M 19605B 19657M 19658M 19658B 19675M 19676M 19676B 19726M 19727M
             19727B 19818M 19819M 19819B 19858M 19861B 19877  19936M 19937M 19937B 19975M 19978B 19994  20064M 20065M
             20065B 20082M 20083M 20083B 20121M 20124B 20140  20210M 20211M 20211B 20228M 20229M 20229B 20267M 20270B
             20330  20410M 20411N 20412N 20416M 20416  20426M 20427  20428  20429  20434M 20435  20438M 20439M 20439B
             20442M 20445  20446  20447  20519M 20522B 20783  20854M 20857B 20874  20939M 20942B 20959  21037M 21040B
             21057  21137M 21140B 21158  21222M 21223M 21223B 21243M 21244M 21244B 21347M 21350B 21368  21414M 21415M
             21415B 21487M 21488M 21488B 21539M 21542B 21560  21621M 21622M 21622B 21633M 21634M 21634B 21659M 21662B
             21680  21731M 21732M 21732B 21754M 21757B 21774  21835M 21836M 21836B 21889M 21890M 21890B 21954M 21955M
             21955B 21987M 21988M 21988B 22020M 22021M 22021B 22059M 22060M 22060B 22178M 22181B 22199  22260M 22261M
             22261B 22295M 22296M 22296B 22334M 22335M 22335B 22380M 22381M 22381B 22402M 22403M 22403B 22420M 22421M
             22421B 22454M 22455M 22455B 22523M 22526B 22582  22624M 22625N 22626N 22630M 22630  22633M 22634M 22634B
             22651M 22654B 22666  22727M 22728M 22728B 22751M 22752  22753  22754  22759M 22760  22763M 22764M 22764B
             22767M 22770  22771  22772  22867M 22868M 22868B 22872M 22873M 22873B 22896M 22897M 22897B 22914M 22915M
             22915B 22926M 22927M 22927B 22980M 22981M 22981B 23035M 23036M 23036B 23040M 23041M 23041B 23064M 23065M
             23065B 23082M 23083M 23083B 23200M 23203B 23276  23325M 23328B 23340  23438M 23441B 23453  23498M 23499M
             23499B 23517M 23520B 23532  23583M 23584M 23584B 23601M 23602M 23602B 23620M 23623B 23639  23698M 23699M
             23699B 23722M 23725B 23740  23805M 23806M 23806B 23823M 23824M 23824B 23847M 23850B 23992  24023M 24024M
             24024B 24046M 24047M 24047B 24066M 24069B 24190  24251M 24252  24264M 24265  24266  24267  24272M 24273
             24276M 24277M 24277B 24280M 24283  24284  24285  24290M 24291M 24291B 24333M 24336  24345M 24346  24358M
             24359  24360  24361  24366M 24367  24370M 24371M 24371B 24374M 24377  24378  24379  24384M 24385M 24385B
             24388M 24391  24414M 24415M 24415B 24555M 24556  24557  24558  24563M 24564  24567M 24568M 24568B 24571M
             24574  24575  24576  24581M 24582M 24582B 24720M 24721M 24721B 24724M 24725M 24725B 24851M 24852M 24852B
             24855M 24856M 24856B 24888M 24889M 24889B 24963M 24964M 24964B 25040M 25041M 25041B 25094M 25094  25095M
             25099M 25100M 25100B 25140M 25141M 25141B 25175M 25176M 25176B 25228M 25229M 25229B 25356M 25357M 25357B
             25506M 25507M 25507B 25542M 25543M 25543B 25561M 25562M 25562B 25582M 25583M 25583B 25731M 25732M 25732B
             25768M 25769M 25769B 25785M 25786M 25786B 25806M 25807M 25807B 25966M 25967M 25967B 26030M 26031M 26031B
             26059M 26060M 26060B 26083M 26084M 26084B 26090M 26091M 26091B 26149M 26150M 26150B 26174M 26175M 26175B
             26178M 26179M 26179B 26189M 26190M 26190B 26287M 26288M 26288B 26340M 26341M 26341B 26374M 26375M 26375B
             26379M 26380M 26380B 26403M 26404M 26404B 26521M 26522M 26522B 26537M 26538M 26538B 26609M 26610M 26610B
             26648M 26649M 26649B 26653M 26654M 26654B 26668M 26669M 26669B 26723M 26724M 26724B 26728M 26729M 26729B
             26752M 26753M 26753B 26811M 26814B 27044  27167M 27170B 27182  27228M 27231B 27243  27289M 27290M 27290B
             27312M 27315B 27327  27378M 27381B 27393  27445M 27448B 27460  27511M 27514B 27527  27575M 27576M 27576B
             27596M 27597M 27597B 27618M 27619M 27619B 27634M 27635M 27635B 27662M 27665B 27768  27801M 27802N 27817N
             27832N 27833N 27834  27834  27835N 27836N 27849N 27853M 27853  27863M 27864  27865  27866  27871M 27872
             27875M 27876M 27876B 27879M 27882  27883  27884  27889M 27890M 27890B 27908M 27911B 27997  28054M 28055N
             28056N 28060M 28060  28247M 28248M 28248B 28267M 28268M 28268B 28286M 28287M 28287B 28291M 28292M 28292B
1         (LINE2193) (12:47) (15MAR04) General Purpose Register Cross Reference                                             Page  286
             28315M 28316M 28316B 28346M 28347M 28347B 28351M 28352M 28352B 28355M 28356M 28356B 28366M 28367M 28367B
             28374M 28375M 28375B 28443M 28444M 28444B 28482M 28483M 28483B 28517M 28518M 28518B 28522M 28523M 28523B
             28526M 28527M 28527B 28550M 28551M 28551B 28554M 28555M 28555B 28593M 28594M 28594B 28598M 28599M 28599B
             28602M 28603M 28603B 28624M 28625M 28625B 28644M 28645M 28645B 28648M 28649M 28649B 28652M 28653M 28653B
             28707M 28710B 28753  28813M 28814  28815  28816  28821M 28822  28825M 28826M 28826B 28829M 28832  28833
             28834  28839M 28840M 28840B 28849M 28850N 28851N 28855M 28855  28887M 28888M 28888B 28939M 28942B 29001
             29053M 29056B 29068  29115M 29118B 29130  29181M 29182M 29182B 29206M 29209B 29234  29267M 29268M 29268B
             29296M 29297N 29298N 29302M 29302  29334M 29335M 29335B 29380M 29383B 29428  29488M 29489  29490  29491
             29496M 29497  29500M 29501M 29501B 29504M 29507  29508  29509  29514M 29515M 29515B 29524M 29525N 29526N
             29530M 29530  29776M 29777M 29777B 29794M 29795M 29795B 29858M 29859M 29859B 29910M 29913B 29973  30025M
             30028B 30040  30087M 30090B 30102  30153M 30154M 30154B 30178M 30181B 30249  30357M 30358  30359  30360
             30365M 30366  30369M 30370M 30370B 30373M 30376  30377  30378  30383M 30384M 30384B 30468M 30469M 30469B
             30493M 30494M 30494B 30556M 30557M 30557B 30568M 30569M 30569B 30585M 30586M 30586B 30628M 30629M 30629B
             30659M 30660M 30660B 30688M 30689M 30689B 30713M 30714M 30714B 30717M 30718M 30718B 30755M 30756M 30756B
             30781M 30782M 30782B 30819M 30820M 30820B 30823M 30824M 30824B 30844M 30845M 30845B 30873M 30874M 30874B
             30878M 30879M 30879B 30902M 30903M 30903B 30981M 30984B 31091  31142M 31145B 31161  31244M 31245  31246
             31247  31255M 31256M 31256B 31259M 31262  31263  31264  31269M 31270M 31270B 31315M 31316M 31316B 31337M
             31338M 31338B 31353M 31354M 31354B 31379M 31380M 31380B 31406M 31407N 31422N 31437N 31438N 31439  31439
             31440N 31441N 31454N 31458M 31458  31470M 31471M 31471B 31504M 31505M 31505B 31509M 31510M 31510B 31533M
             31534M 31534B 31644M 31645M 31645B 31666M 31667M 31667B 31684M 31685M 31685B 31689M 31690M 31690B 31698M
             31699M 31699B 31725M 31728B 31857  31908M 31909M 31909B 31961M 31962  31963  31964  31969M 31970  31973M
             31974M 31974B 31977M 31980  31981  31982  31987M 31988M 31988B 31995M 31996M 31996B 32021M 32024B 32112
             32164M 32167B 32185  32236M 32237M 32237B 32253M 32254M 32254B 32269M 32270M 32270B 32309M 32310M 32310B
             32324M 32325M 32325B 32353M 32354M 32354B 32358M 32359M 32359B 32382M 32383M 32383B 32431M 32432M 32432B
             32513M 32514M 32514B 32517M 32518M 32518B 32521M 32522M 32522B 32540M 32541M 32541B 32567M 32568M 32568B
             32589M 32592B 32848  32906M 32907M 32907B 32956M 32957  32958  32959  32964M 32965  32968M 32969M 32969B
             32972M 32975  32976  32977  32982M 32983M 32983B 32993M 32994  32995  32996  33001M 33002  33005M 33006M
             33006B 33009M 33012  33013  33014  33019M 33020M 33020B 33047M 33048  33049  33050  33055M 33056  33059M
             33060M 33060B 33063M 33066  33067  33068  33073M 33074M 33074B 33084M 33085  33086  33087  33092M 33093
             33096M 33097M 33097B 33100M 33103  33104  33105  33110M 33111M 33111B 33142M 33143  33144  33145  33150M
             33151  33154M 33155M 33155B 33158M 33161  33162  33163  33168M 33169M 33169B 33179M 33180  33181  33182
             33187M 33188  33191M 33192M 33192B 33195M 33198  33199  33200  33205M 33206M 33206B 33282M 33283M 33283B
             33303M 33304M 33304B 33393M 33396B 34207  34259M 34262B 34274  34311M 34312M 34312B 34316M 34317M 34317B
             34352M 34353M 34353B 34379M 34380M 34380B 34388M 34389M 34389B 34392M 34393M 34393B 34396M 34397M 34397B
             34415M 34418B 34430  34473M 34474M 34474B 34478M 34479M 34479B 34494M 34495M 34495B 34500M 34524M 34525M
             34525B 34528M 34529M 34529B 34532M 34533M 34533B 34551M 34554B 34566  34603M 34604M 34604B 34608M 34609M
             34609B 34624M 34625M 34625B 34633M 34634M 34634B 34637M 34638M 34638B 34641M 34642M 34642B 34660M 34663B
             34675  34707M 34708N 34723N 34738N 34739N 34740  34740  34741N 34742N 34755N 34759M 34759  34768M 34769M
             34769B 34787M 34790B 34802  34834M 34835N 34850N 34865N 34866N 34867  34867  34868N 34869N 34882N 34886M
             34886  34895M 34896M 34896B 34914M 34917B 34929  34987M 34990B 35008  35060M 35063B 35075  35127M 35130B
             35142  35194M 35197B 35215  35267M 35270B 35283  35314M 35315M 35315B 35335M 35336M 35336B 35340M 35341M
             35341B 35358M 35359M 35359B 35381M 35384B 35397  35428M 35429M 35429B 35433M 35434M 35434B 35468M 35469M
             35469B 35484M 35485M 35485B 35502M 35503M 35503B 35525M 35528B 35541  35572M 35573N 35574N 35578M 35578
             35621M 35622M 35622B 35625M 35626M 35626B 35644M 35647B 35660  35692M 35693N 35694N 35698M 35698  35744M
             35745M 35745B 35748M 35749M 35749B 35767M 35770B 35783  35815M 35816N 35817N 35821M 35821  35867M 35868M
             35868B 35871M 35872M 35872B 35890M 35893B 35906  35958M 35961B 35974  36026M 36029B 36042  36102M 36105B
             36120  36172M 36175B 36187  36239M 36242B 36254  36296M 36297  36298  36299  36307M 36308M 36308B 36311M
             36314  36315  36316  36321M 36322M 36322B 36365M 36366  36367  36368  36373M 36374  36377M 36378M 36378B
             36381M 36384  36385  36386  36391M 36392M 36392B 36415M 36416N 36431N 36446N 36447N 36448  36448  36449N
             36450N 36463N 36467M 36467  36489M 36492B 36550  36602M 36605B 36617  36666M 36669B 36685  36736M 36739B
             36751  36802M 36805B 36817  36877M 36880B 36892  36954M 36957B 36969  37016M 37019B 37032  37095M 37096M
             37096B 37140M 37143B 37220  37285M 37286  37287  37288  37293M 37294  37297M 37298M 37298B 37301M 37304
             37305  37306  37311M 37312M 37312B 37395M 37396M 37396B 37411M 37412  37413  37414  37419M 37420  37423M
             37424M 37424B 37427M 37430  37431  37432  37437M 37438M 37438B 37481M 37482N 37497N 37512N 37513N 37514
             37514  37515N 37516N 37529N 37533M 37533  37586M 37587  37588  37589  37594M 37595  37598M 37599M 37599B
             37602M 37605  37606  37607  37612M 37613M 37613B 37699M 37700M 37700B 37715M 37716  37717  37718  37723M
             37724  37727M 37728M 37728B 37731M 37734  37735  37736  37741M 37742M 37742B 37785M 37786N 37801N 37816N
             37817N 37818  37818  37819N 37820N 37833N 37837M 37837  37890M 37891  37892  37893  37898M 37899  37902M
             37903M 37903B 37906M 37909  37910  37911  37916M 37917M 37917B 38017M 38018M 38018B 38083M 38084M 38084B
1         (LINE2193) (12:47) (15MAR04) General Purpose Register Cross Reference                                             Page  287
             38108M 38111B 38186  38232M 38235B 38247  38279M 38280N 38295N 38310N 38311N 38312  38312  38313N 38314N
             38327N 38331M 38331  38349M 38352B 38364  38413M 38416B 38428  38474M 38477B 38495  38594M 38597B 38623
             38674M 38675  38676  38677  38682M 38683  38686M 38687M 38687B 38690M 38693  38694  38695  38700M 38701M
             38701B 38719M 38722B 38782  38828M 38831B 38843  38875M 38876N 38891N 38906N 38907N 38908  38908  38909N
             38910N 38923N 38927M 38927  38945M 38948B 38962  39010M 39011M 39011B 39018M 39019  39042M 39043N 39044N
             39048M 39048  39058M 39059  39060  39061  39066M 39067  39070M 39071M 39071B 39074M 39077  39078  39079
             39084M 39085M 39085B 39089M 39092  39109M 39112B 39170  39222M 39225B 39237  39285M 39288B 39343  39381M
             39382  39383  39384  39389M 39390  39393M 39394M 39394B 39397M 39400  39401  39402  39407M 39408M 39408B
             39476M 39479B 39554  39600M 39603B 39615  39647M 39648N 39663N 39678N 39679N 39680  39680  39681N 39682N
             39695N 39699M 39699  39717M 39720B 39732  39781M 39784B 39796  39845M 39848B 39898  40426M 40429B 40476
             40515M 40516M 40516B 40521M 40522M 40522B 40541M 40542M 40542B 40545M 40546M 40546B 40549M 40550M 40550B
             40580M 40581M 40581B 40587M 40588M 40588B 40608M 40611B 40628  41057M 41060B 41086  41355M 41356M 41356B
             41410M 41413B 41431  41527M 41528M 41528B 41560M 41561M 41561B 41593M 41594M 41594B 41626M 41627M 41627B
             41659M 41660M 41660B 41702M 41705B 41721  41943M 41946B 41962  42184M 42187B 42203  42380M 42381M 42381B
             42399M 42402B 42415  42460M 42463B 42479  42532M 42533M 42533B 42604M 42605M 42605B 42668M 42669M 42669B
             42676M 42677M 42677B 42705M 42706M 42706B 42732M 42733M 42733B 42788M 42789M 42789B 42886M 42889B 42930
             43390M 43393B 43457  43635M 43638B 43655  43706M 43707M 43707B 43792M 43795B 43821  43927M 43928M 43928B
             43970M 43971M 43971B 43975M 43976M 43976B 43999M 44000M 44000B 44101M 44102M 44102B 44142M 44143M 44143B
             44147M 44148M 44148B 44171M 44172M 44172B 44307M 44310B 44339  44377M 44378M 44378B 44402M 44403M 44403B
             44416M 44417M 44417B 44494M 44495M 44495B 44515M 44516M 44516B 44523M 44524M 44524B 44561M 44562M 44562B
             44582M 44583M 44583B 44730M 44731M 44731B 44746M 44747M 44747B 44762M 44763M 44763B 44797M 44800B 44854
             44970M 44971M 44971B 44981M 44982  44983  44984  44989M 44990  44993M 44994M 44994B 44997M 45000  45001
             45002  45007M 45008M 45008B 45054M 45055M 45055B 45073M 45076B 45144  45186M 45187M 45187B 45212M 45213M
             45213B 45252M 45255B 45274  45341M 45342M 45342B 45365M 45366M 45366B 45509M 45510M 45510B 45598M 45599M
             45599B 45714M 45717B 45820  45901M 45902  45914M 45915  45916  45917  45925M 45926M 45926B 45929M 45932
             45933  45934  45939M 45940M 45940B 45943M 45946  45968M 45969N 45970N 45974M 45974  45986M 45987M 45987B
             46039M 46040  46041  46042  46047M 46048  46051M 46052M 46052B 46055M 46058  46059  46060  46065M 46066M
             46066B 46116M 46117M 46117B 46142M 46145B 46263  46368M 46371B 46383  46434M 46437B 46449  46500M 46503B
             46528  46902M 46903M 46903B 47050M 47051M 47051B 47083M 47084M 47084B 47088M 47089M 47089B 47112M 47113M
             47113B 47130M 47131M 47131B 47142M 47143M 47143B 47167M 47168M 47168B 47188M 47189M 47189B 47213M 47214M
             47214B 47235M 47236M 47236B 47265M 47266M 47266B 47293M 47294M 47294B 47319M 47320M 47320B 47440M 47443B
             47513  47583M 47584M 47584B 47637M 47638  47639  47640  47645M 47646  47649M 47650M 47650B 47653M 47656
             47657  47658  47663M 47664M 47664B 47713M 47714M 47714B 47739M 47740M 47740B 47806M 47807M 47807B 47828M
             47829M 47829B 47853M 47854M 47854B 47880M 47881M 47881B 47892M 47893M 47893B 47896M 47897M 47897B 47968M
             47969M 47969B 48003M 48006B 48169  48217M 48218M 48218B 48240M 48243B 48255  48307M 48310B 48322  48373M
             48376B 48388  48440M 48443B 48455  48507M 48510B 48522  48573M 48576B 48600  48674M 48675M 48675B 48679M
             48680M 48680B 48759M 48760M 48760B 48802M 48803M 48803B 48820M 48821M 48821B 48825M 48826M 48826B 48960M
             48963B 49064  49165M 49166M 49166B 49178M 49179  49180  49181  49186M 49187  49190M 49191M 49191B 49194M
             49197  49198  49199  49204M 49205M 49205B 49216M 49217  49218  49219  49224M 49225  49228M 49229M 49229B
             49232M 49235  49236  49237  49242M 49243M 49243B 49254M 49255  49256  49257  49262M 49263  49266M 49267M
             49267B 49270M 49273  49274  49275  49352M 49353M 49353B 49356M 49357M 49357B 49381M 49382M 49382B 49388M
             49389M 49389B 49392M 49393M 49393B 49417M 49418M 49418B 49447M 49448M 49448B 49462M 49463M 49463B 49472M
             49473M 49473B 49524M 49527B 49740  49792M 49795B 49807  49859M 49862B 49874  49909M 49910M 49910B 49930M
             49931M 49931B 49954M 49957B 49969  50028M 50029M 50029B 50049M 50050M 50050B 50073M 50076B 50088  50133M
             50134M 50134B 50138M 50139M 50139B 50162M 50163M 50163B 50187M 50190B 50260  50377M 50378M 50378B 50407M
             50408M 50408B 50460M 50461M 50461B 50535M 50538B 50566  50597M 50598  50628M 50629M 50629B 50655M 50656M
             50656B 50669M 50670M 50670B 50686M 50687N 50688N 50692M 50692  50702M 50703  50704  50705  50710M 50711
             50714M 50715M 50715B 50718M 50721  50722  50723  50757M 50758M 50758B 50848M 50849M 50849B 50907M 50908M
             50908B 50968M 50969M 50969B 50979M 50982  50999M 51002B 51182  51228M 51231B 51243  51289M 51292B 51304
             51350M 51353B 51365  51411M 51414B 51426  51472M 51475B
    15(F)      922U  2128   6755M  6755   6904M  6904   6964M  7040M  7092M  7113M  7146M  7167M  7204M  7225M  7262M
              7283M  7312M  7347M  7347   7567M  7567   7679M  7679   7791M  7791   7907M  7907   8156M  8156   8500M
              8501M  8503M  8517   8538M  8599M  8608M  8610   8847M  8950M  8967M  8967   8973M  8973   9229M  9233M
              9249   9256M  9304   9346   9483   9509   9512   9516N  9678M  9687M  9722M  9746M  9754M  9762M  9764
             10090M 10108M 10154M 10237M 10302M 10312U 10331U 10412M 10432  10474M 10475  10578M 10587M 10589  10630M
             10698M 10719M 10737M 10798M 10855M 10933M 10933  11004M 11004  11024  11045  11082  11102  11122  11182M
             11192  11206M 11206  11218M 11227M 11227  11234  11271M 11277M 11396M 11405M 11407  11443M 11453  11462M
             11471M 11471  11478  11533M 11542M 11544  11577M 11729M 11761M 11790M 11795M 11805U 11824U 11885M 11919
             11938M 11973  11980M 12025M 12026M 12027  12058M 12093M 12093  12110M 12111M 12111  12153M 12153  12330M
1         (LINE2193) (12:47) (15MAR04) General Purpose Register Cross Reference                                             Page  288
             12330  12518M 12566M 12566  12584  12629M 12629  12643M 12643  12698M 12698  12867M 12868M 12869  12876M
             12876  13164M 13182M 13187M 13221M 13221  13328M 13331M 13333  13374M 13375M 13375  14064M 14120M 14120
             14145M 14145  14518M 14518  14537M 14542M 14559  14578M 14583M 14590  14596M 14596  14622M 14622  14697M
             14697  14749M 14749  14824M 14825M 14849M 14849  14898M 14898  14917M 14928M 14929  14933M 14933  14940M
             14965M 14986  15005M 15046M 15047  15051M 15051  15058M 15059M 15121M 15126  15217M 15217  15222M 15247M
             15247  15322M 15322  15329M 15363M 15363  15400  15404M 15404  15411  15447M 15537M 15567  15576M 15591
             15626  15635M 15650  15663M 15666M 15667  15671M 15671  15676M 15701M 15701  15777M 15777  15817M 15817
             15845M 15845  15920M 15920  15956M 15956  15984M 15984  16060M 16060  16067M 16081  16088M 16101M 16101
             16111M 16111  16123  16181M 16181  16250M 16260M 16260  16284M 16284  16360M 16360  16367M 16380M 16380
             16390M 16390  16445  16471M 16485M 16485  16539  16541  16601  16675  16676  16681M 16681  16707M 16707
             16785M 16785  16791M 16841M 16884M 16889M 16937M 16937  16942  16957M 16957  16984M 16984  17060M 17060
             17068M 17095M 17115M 17115  17128  17147M 17147  17172M 17172  17248M 17248  17256M 17283M 17303M 17303
             17317  17337M 17337  17361M 17361  17454M 17454  17473M 17478M 17486M 17490M 17491  17500M 17500  17525M
             17525  17603M 17603  17609M 17673M 17700  17809M 17814M 17832  17854M 17854  17869  17876M 17881  17883
             17928M 17928  17954M 17954  18032M 18032  18038M 18115M 18142  18251M 18256M 18274  18296M 18296  18311
             18318M 18323  18325  18370M 18370  18396M 18396  18505M 18505  18514M 18564M 18573  18681M 18686M 18696
             18727M 18732M 18741  18749  18797  18806  18846  18851  18895M 18895  18921M 18921  18997M 18997  19010M
             19020M 19020  19075N 19101M 19115M 19115  19150  19160  19210  19248  19249  19254M 19254  19280M 19280
             19357M 19357  19402M 19407M 19446M 19451M 19481M 19482M 19483  19502M 19502  19527M 19527  19595M 19595
             19654M 19672M 19815M 19834M 19834  19860M 19860  19933M 19953M 19977M 19977  20061M 20079M 20099M 20123M
             20123  20207M 20225M 20245M 20269M 20269  20381M 20381  20388M 20448M 20448  20457M 20457  20465M 20482
             20492M 20492  20521M 20521  20832M 20856M 20856  20917M 20941M 20941  21015M 21039M 21039  21115M 21139M
             21139  21270M 21279M 21281  21325M 21349M 21349  21431M 21461M 21477  21484M 21508M 21515M 21541M 21541
             21636M 21661M 21661  21756M 21756  21951M 21984M 22017M 22026M 22077M 22089  22105M 22105  22117M 22119
             22155M 22180M 22180  22331M 22336M 22377M 22399M 22417M 22422M 22500M 22525M 22525  22653M 22653  22773M
             22773  22782M 22782  22789M 22806  22864M 22893M 22911M 22916M 22977M 22982M 23032M 23061M 23079M 23084M
             23098M 23110  23126M 23126  23138M 23140  23176M 23202M 23202  23308M 23327M 23327  23394M 23395M 23395
             23402  23416M 23440M 23440  23495M 23500M 23519M 23519  23580M 23598M 23603M 23622M 23622  23695M 23700M
             23724M 23724  23802M 23820M 23825M 23849M 23849  24068M 24068  24286M 24286  24303  24325  24380M 24380
             24577M 24577  24885M 24929M 24929  25036M 25037M 25042M 25043M 25045M 25095M 25096  25136M 25192M 25193M
             25194  25195  25257M 25258M 25258  25271M 25295M 25312M 25328  25337  25502M 25503  25510M 25511M 25511
             25627M 25628M 25628  25641M 25642  25651M 25651  25723  25735M 25752M 25777M 25778  25779  25780  25819M
             25890U 25896  25958  25971M 25989M 26003M 26003  26026M 26027  26056M 26066M 26103M 26104M 26104  26117M
             26122M 26134  26141M 26146  26171M 26195M 26196M 26197  26371M 26400M 26574  26587  26606M 26645M 26660M
             26665  26720M 26749M 26754M 26813M 26813  27150M 27169M 27169  27211M 27230M 27230  27314M 27314  27380M
             27380  27447M 27447  27513M 27513  27640M 27641  27645M 27645  27664M 27664  27802M 27811M 27811  27817M
             27826M 27826  27832M 27833M 27835M 27836  27848M 27848  27849  27885M 27885  27910M 27910  28283M 28312M
             28343M 28500  28514M 28528M 28590M 28640M 28641  28709M 28709  28835M 28835  28844M 28844  28884M 28910M
             28911M 28912  28941M 28941  29055M 29055  29098M 29117M 29117  29178M 29208M 29208  29331M 29356M 29357M
             29358  29382M 29382  29510M 29510  29519M 29519  29649M 29653M 29662M 29662  29669  29691M 29700M 29700
             29707  29728M 29729M 29730  29773M 29791M 29855M 29881M 29882M 29883  29912M 29912  30027M 30027  30070M
             30089M 30089  30150M 30180M 30180  30379M 30379  30490M 30540M 30565M 30685M 30696M 30746M 30747M 30748
             30816M 30870M 30899M 30983M 30983  31144M 31144  31265M 31265  31370  31385  31407M 31416M 31416  31422M
             31431M 31431  31437M 31438M 31440M 31441  31453M 31453  31454  31501M 31530M 31641M 31663M 31681M 31708M
             31708  31727M 31727  31983M 31983  32023M 32023  32166M 32166  32233M 32350M 32379M 32435M 32445U 32464U
             32471M 32564M 32591M 32591  32978M 32978  33015M 33015  33069M 33069  33106M 33106  33164M 33164  33201M
             33201  33395M 33395  34261M 34261  34313M 34349M 34398M 34417M 34417  34475M 34501M 34504M 34506  34534M
             34553M 34553  34605M 34643M 34662M 34662  34708M 34717M 34717  34723M 34732M 34732  34738M 34739M 34741M
             34742  34754M 34754  34755  34770M 34789M 34789  34835M 34844M 34844  34850M 34859M 34859  34865M 34866M
             34868M 34869  34881M 34881  34882  34897M 34916M 34916  34970M 34989M 34989  35062M 35062  35110M 35129M
             35129  35177M 35196M 35196  35269M 35269  35318M 35350M 35350  35364M 35383M 35383  35430M 35465M 35494M
             35494  35508M 35527M 35527  35627M 35646M 35646  35750M 35769M 35769  35873M 35892M 35892  35941M 35960M
             35960  36009M 36028M 36028  36085M 36104M 36104  36174M 36174  36222M 36241M 36241  36317M 36317  36387M
             36387  36416M 36425M 36425  36431M 36440M 36440  36446M 36447M 36449M 36450  36462M 36462  36463  36472M
             36491M 36491  36604M 36604  36649M 36668M 36668  36738M 36738  36804M 36804  36879M 36879  36956M 36956
             37018M 37018  37123M 37123  37142M 37142  37307M 37307  37325  37357  37433M 37433  37450  37472  37482M
             37491M 37491  37497M 37506M 37506  37512M 37513M 37515M 37516  37528M 37528  37529  37564  37608M 37608
             37626  37658  37737M 37737  37754  37776  37786M 37795M 37795  37801M 37810M 37810  37816M 37817M 37819M
             37820  37832M 37832  37833  37868  37912M 37912  37930  37962  38075  38110M 38110  38215M 38234M 38234
1         (LINE2193) (12:47) (15MAR04) General Purpose Register Cross Reference                                             Page  289
             38280M 38289M 38289  38295M 38304M 38304  38310M 38311M 38313M 38314  38326M 38326  38327  38332M 38351M
             38351  38396M 38415M 38415  38457M 38476M 38476  38596M 38596  38696M 38696  38721M 38721  38811M 38830M
             38830  38876M 38885M 38885  38891M 38900M 38900  38906M 38907M 38909M 38910  38922M 38922  38923  38928M
             38947M 38947  39080M 39080  39111M 39111  39224M 39224  39287M 39287  39403M 39403  39420  39429M 39429
             39446  39452M 39478M 39478  39583M 39602M 39602  39648M 39657M 39657  39663M 39672M 39672  39678M 39679M
             39681M 39682  39694M 39694  39695  39700M 39719M 39719  39764M 39783M 39783  39828M 39847M 39847  40428M
             40428  40533M 40533  40610M 40610  41059M 41059  41308M 41309M 41310  41384M 41384  41389M 41412M 41412
             41704M 41704  41945M 41945  42186M 42186  42401M 42401  42462M 42462  42665M 42702M 42888M 42888  43392M
             43392  43637M 43637  43794M 43794  43967M 43996M 44139M 44168M 44309M 44309  44373M 44374  44423M 44424M
             44425  44530M 44531M 44532  44558M 44570M 44571  44579M 44727M 44799M 44799  45003M 45003  45075M 45075
             45188  45254M 45254  45382M 45392U 45411U 45417M 45418M 45419  45578M 45579M 45580  45594M 45595M 45612M
             45629M 45630  45643  45663M 45673U 45691U 45716M 45716  45935M 45935  46061M 46061  46144M 46144  46370M
             46370  46436M 46436  46502M 46502  46724M 46728M 46737M 46737  46744  46768M 46772M 46781M 46781  46788
             46849M 46852M 46854  46897M 46898M 46975M 46976M 46986  47001M 47010M 47010  47017  47044M 47047M 47052M
             47054M 47055M 47080M 47109M 47127M 47138M 47139  47276M 47302M 47348M 47349M 47366M 47388M 47388  47401M
             47401  47411M 47411  47416M 47417  47442M 47442  47659M 47659  47736M 47795M 47796  47797  47850M 47888M
             47959  48005M 48005  48200M 48223M 48223  48242M 48242  48309M 48309  48375M 48375  48442M 48442  48509M
             48509  48575M 48575  48640M 48652  48671M 48686  48693D 48695M 48695  48696M 48697U 48765N 48799M 48817M
             48834M 48834N 48875M 48936M 48937M 48938  48962M 48962  49200M 49200  49238M 49238  49276M 49276  49347M
             49378M 49383M 49414M 49526M 49526  49794M 49794  49861M 49861  49937M 49956M 49956  50056M 50075M 50075
             50130M 50159M 50189M 50189  50404M 50457M 50457  50484  50491M 50508M 50537M 50537  50625M 50652M 50666M
             50666  50724M 50724  50735M 50735  50754M 50777  50786M 50786  50805  50811M 50830  50854M 50855M 50856
             50868M 50887  50913M 50914M 50915  50927M 50946  50965M 51001M 51001  51211M 51230M 51230  51272M 51291M
             51291  51333M 51352M 51352  51394M 51413M 51413  51455M 51474M 51474

1LINE     (LINE2193) (12:47) (15MAR04) Diagnostic Cross Reference and Assembler Summary                                     Page  290
-                                                                                            HLASM R4.0  2004/03/15 12.47
0     No Statements Flagged in this Assembly
 HIGH LEVEL ASSEMBLER, 5696-234, RELEASE 4.0, PTF P72483
0SYSTEM: OS/390 02.10.00            JOBNAME: WYL#LINE    STEPNAME: ASM        PROCSTEP: (NOPROC)
0Datasets Allocated for this Assembly
  Con DDname   Dataset Name                                 Volume  Member
   P1 SYSIN    WYL.GS.WYL.WYLBUR.SOURCE                     SYSB05  LINE
   L1 SYSLIB   WYL.GS.WYL.WYLBUR.MACLIB                     SYSB05
   L2          WYL.GG.SYS.MACLIB                            SYSB05
   L3          SYS3.IS.MACLIB                               SYSB05
   L4          SYS3.MACLIB                                  SYSB02
   L5          SYS1.MACLIB                                  MVSBR9
   L6          SYS1.MODGEN                                  MVSBR9
      SYSPRINT SYS04075.T124742.RA000.WYL#LINE.PRINT.H01    SCR101
      SYSTERM  GG$SLP.WYL#LINE.JOB03538.D0000101.?

    3668K allocated to Buffer Pool,         6037K would be required for this to be an In-Storage Assembly
    6349 Primary Input Records Read         7203 Library Records Read                542 Work File Reads
       0 ASMAOPT Records Read              30205 Primary Print Records Written       595 Work File Writes
       0 Punch Records Written                 0 ADATA Records Written
0Assembly Start Time: 12.47.44 Stop Time: 12.48.08 Processor Time: 00.00.10.4748
 Return Code 000
