1                        J E S 2  J O B  L O G  --  S Y S T E M  S Y S B  --  N O D E  R L G
0
 12.49.54 JOB03548 ---- MONDAY,    15 MAR 2004 ----
 12.49.54 JOB03548  ICH70001I GG$SLP   LAST ACCESS AT 12:49:45 ON MONDAY, MARCH 15, 2004
 12.49.54 JOB03548  $HASP373 WYL#NFIL STARTED - INIT 6    - CLASS B - SYS SYSB
 12.49.54 JOB03548  ***  HCMD      STEP $$QUIET
 12.49.55 JOB03548  PUR * Q OUT MUL
 12.49.55 JOB03548  JOB 5409 WYL#NFIL WILL BE PURGED
 12.49.56 JOB03548  WYL#NFIL.$$QUIET .         RC=Zero TapeIO=0000 DiskIO=0000 CPU=  .01s Elapsed=94.96s
 12.50.04 JOB03548  WYL#NFIL.ASM     .         RC=Zero TapeIO=0000 DiskIO=0769 CPU= 5.59s Elapsed=96.26s
 12.50.06 JOB03548  WYL#NFIL.EDIT    .         RC=Zero TapeIO=0000 DiskIO=0344 CPU=  .97s Elapsed=04.65s
 12.50.06 JOB03548  WYL#NFIL Ended.  Name=Assemble NFILE                 Total CPU= 6.57s Elapsed=94.96s
 12.50.06 JOB03548
 12.50.06 JOB03548  Execution charges   Priority=Standard   Block=Day
 12.50.06 JOB03548
 12.50.06 JOB03548  CPU Usage         121.50          $75.33   Standard Processing Unit Equivalent
 12.50.06 JOB03548                                   =======
 12.50.06 JOB03548                                    $75.33   Total Job execution charge
 12.50.06 JOB03548
 12.50.06 JOB03548  See back separator page for print charges
 12.50.06 JOB03548
 12.50.06 JOB03548  $HASP395 WYL#NFIL ENDED  ASM=0, EDIT=0
1        1 //WYL#NFIL JOB SLP$GG,'Assemble NFILE',TIME=4,REGION=4M                 JOB03548
           //*
           /*JOBPARM LINES=99,COPIES=1
           /*JOBPARM FORMS=3HOL,PFORMAT=LAND,CHARS=BD13,DUPLEX=YES,FLASH=BAR4
           //*
           /*JOBPARM NOTIFY=GG.SLP,HOLD=OUTPUT                                     WYLGEN
         2 //$$QUIET EXEC PGM=HCMDX,PARM='PUR * Q OUT MUL'
           //*
         3 //ASM    EXEC PGM=ASMA90,REGION=8M,
           //            PARM=('NORENT,TERM,FLAG(NOCONT),US(MAP,WARN(10)),NODECK',
           //            'LC(32767),XREF(SHORT),ESD,DXREF,NOOBJECT')
         4 //STEPLIB DD DSN=SYS3.IS.TESTASM,DISP=SHR
         5 //SYSLIB   DD  DSN=WYL.GS.WYL.WYLBUR.MACLIB,DISP=SHR
         6 //         DD  DSN=WYL.GG.SYS.MACLIB,DISP=SHR
         7 //         DD  DSN=SYS3.IS.MACLIB,DISP=SHR
         8 //         DD  DSN=SYS3.MACLIB,DISP=SHR
         9 //         DD  DSN=SYS1.MACLIB,DISP=SHR
        10 //         DD  DSN=SYS1.MODGEN,DISP=SHR
        11 //SYSUT1   DD DSN=&&SYSUT1,UNIT=VIO,DISP=(,DELETE),
           //            SPACE=(4088,(500,250),,CONTIG,ROUND)
        12 //SYSTERM  DD SYSOUT=T
        13 //SYSPRINT DD DSN=&&PRINT,UNIT=SYSDA,DISP=(,PASS),
           //            SPACE=(6650,(250,250),RLSE),
           //            DCB=(BLKSIZE=6650,LRECL=133,RECFM=FB)
        14 //SYSUDUMP DD SYSOUT=A
        15 //SYSIN    DD  DSN=WYL.GS.WYL.WYLBUR.SOURCE(NFILE),DISP=SHR
           //*
        16 //EDIT    EXEC PGM=ASMEDIT,TIME=2,REGION=4000K,
           //             PARM='STMT'
        17 //STEPLIB  DD  DSN=WYL.GG.SYS.LINKLIB,DISP=SHR
        18 //ASMOUT   DD  DSN=&PRINT,DISP=(OLD,DELETE)
        19 //SYSPRINT DD  SYSOUT=A
1 STMT NO. MESSAGE
 -
        11 IGD01010I STORCLAS= TEMP STORGROUP =
        11 IGD01010I STORGRP=VIO ASSIGNED.
        13 IGD01010I STORCLAS= TEMP STORGROUP =
        13 IGD01010I STORGRP=VIO ASSIGNED.
 ICH70001I GG$SLP   LAST ACCESS AT 12:49:45 ON MONDAY, MARCH 15, 2004
 IEF142I WYL#NFIL $$QUIET - STEP WAS EXECUTED - COND CODE 0000
 *********************************************************************************
 *   WYL#NFIL/$$QUIET /                    Return Code      Zero                 *
 *   Region used      260K (16K user + 244K system)                              *
 *   Extended region  9692K (4K user + 9688K system)                             *
 *                                                                               *
 *   Paging              In      Out                                             *
 *   Private <-> Aux      0        0       CPU time (TCB)   00:00:00.01          *
 *   Private <-> Exp      0        0       CPU time (SRB)   00:00:00.00          *
 *   VIO                  0        0       Elapsed time    917:37:58.00          *
 *   Common               0      ---                                             *
 *                                                                               *
 *                                                                               *
 *   CPU Usage          0.18         $0.11  Standard Processing Unit Equivalent  *
 *                                   $0.11  Total Step execution charge          *
 *                                                                               *
 *    I/O count  DDname   Type Addr           I/O count  DDname   Type Addr      *
 *                         *** No I/O for this step ***                          *
 *********************************************************************************
 IEF373I STEP/$$QUIET /START 2004075.1249
 IEF374I STEP/$$QUIET /STOP  2004075.1249 CPU    0MIN 00.01SEC SRB    0MIN 00.00SEC VIRT    16K SYS   244K EXT       4K SYS    9688K
 IEF236I ALLOC. FOR WYL#NFIL ASM
 IEF237I 04DC ALLOCATED TO STEPLIB
 IEF237I 04DC ALLOCATED TO SYSLIB
 IEF237I 04DC ALLOCATED TO
 IEF237I 04DC ALLOCATED TO
 IEF237I 0402 ALLOCATED TO
 IEF237I 04A0 ALLOCATED TO
 IEF237I 04A0 ALLOCATED TO
 IGD101I SMS ALLOCATED TO DDNAME (SYSUT1  )
         DSN (SYS04075.T124954.RA000.WYL#NFIL.SYSUT1.H01  )
         STORCLAS (TEMP) MGMTCLAS (        ) DATACLAS (        )
         VOL SER NOS= VIO
 IEF237I JES2 ALLOCATED TO SYSTERM
 IGD101I SMS ALLOCATED TO DDNAME (SYSPRINT)
         DSN (SYS04075.T124954.RA000.WYL#NFIL.PRINT.H01   )
         STORCLAS (TEMP) MGMTCLAS (        ) DATACLAS (        )
         VOL SER NOS= SCR100
 IEF237I JES2 ALLOCATED TO SYSUDUMP
 IEF237I 04DC ALLOCATED TO SYSIN
 IEF142I WYL#NFIL ASM - STEP WAS EXECUTED - COND CODE 0000
 IEF285I   SYS3.IS.TESTASM                              KEPT
 IEF285I   VOL SER NOS= SYSB05.
 IEF285I   WYL.GS.WYL.WYLBUR.MACLIB                     KEPT
 IEF285I   VOL SER NOS= SYSB05.
 IEF285I   WYL.GG.SYS.MACLIB                            KEPT
 IEF285I   VOL SER NOS= SYSB05.
 IEF285I   SYS3.IS.MACLIB                               KEPT
 IEF285I   VOL SER NOS= SYSB05.
 IEF285I   SYS3.MACLIB                                  KEPT
 IEF285I   VOL SER NOS= SYSB02.
 IEF285I   SYS1.MACLIB                                  KEPT
 IEF285I   VOL SER NOS= MVSBR9.
 IEF285I   SYS1.MODGEN                                  KEPT
 IEF285I   VOL SER NOS= MVSBR9.
 IGD105I SYS04075.T124954.RA000.WYL#NFIL.SYSUT1.H01   DELETED,   DDNAME=SYSUT1
 IEF285I   GG$SLP.WYL#NFIL.JOB03548.D0000101.?          SYSOUT
 IGD106I SYS04075.T124954.RA000.WYL#NFIL.PRINT.H01    PASSED,    DDNAME=SYSPRINT
 IEF285I   GG$SLP.WYL#NFIL.JOB03548.D0000102.?          SYSOUT
 IEF285I   WYL.GS.WYL.WYLBUR.SOURCE                     KEPT
 IEF285I   VOL SER NOS= SYSB05.
 *********************************************************************************
 *   WYL#NFIL/ASM     /                    Return Code      Zero                 *
 *   Region used      4376K (4096K user + 280K system)                           *
 *   Extended region  10292K (412K user + 9880K system)                          *
 *                                                                               *
 *   Paging              In      Out                                             *
 *   Private <-> Aux      0        0       CPU time (TCB)   00:00:05.53          *
 *   Private <-> Exp      0        0       CPU time (SRB)   00:00:00.06          *
 *   VIO                  0        0       Elapsed time    917:37:56.70          *
 *   Common               0      ---                                             *
 *                                                                               *
 *                                                                               *
 *   CPU Usage        103.68        $64.28  Standard Processing Unit Equivalent  *
 *                                  $64.28  Total Step execution charge          *
 *                                                                               *
 *    I/O count  DDname   Type Addr           I/O count  DDname   Type Addr      *
 *           86  STEPLIB  Disk 04DC                 330  SYSLIB   Disk 04DC      *
 *            0  SYSLIB   Disk 04DC                   0  SYSLIB   Disk 04DC      *
 *            0  SYSLIB   Disk 0402                   0  SYSLIB   Disk 04A0      *
 *            0  SYSLIB   Disk 04A0                   0  SYSUT1   VIO  ----      *
 *            0  SYSTERM       ----                 341  SYSPRINT Disk 038B      *
 *            0  SYSUDUMP      ----                  12  SYSIN    Disk 04DC      *
 *********************************************************************************
 IEF373I STEP/ASM     /START 2004075.1249
 IEF374I STEP/ASM     /STOP  2004075.1250 CPU    0MIN 05.53SEC SRB    0MIN 00.06SEC VIRT  4096K SYS   280K EXT     412K SYS    9880K
 IEF236I ALLOC. FOR WYL#NFIL EDIT
 IEF237I 0402 ALLOCATED TO STEPLIB
 IGD103I SMS ALLOCATED TO DDNAME ASMOUT
 IEF237I JES2 ALLOCATED TO SYSPRINT
 IEF142I WYL#NFIL EDIT - STEP WAS EXECUTED - COND CODE 0000
 IEF285I   WYL.GG.SYS.LINKLIB                           KEPT
 IEF285I   VOL SER NOS= SYSB02.
 IGD105I SYS04075.T124954.RA000.WYL#NFIL.PRINT.H01    DELETED,   DDNAME=ASMOUT
 IEF285I   GG$SLP.WYL#NFIL.JOB03548.D0000103.?          SYSOUT
 *********************************************************************************
 *   WYL#NFIL/EDIT    /                    Return Code      Zero                 *
 *   Region used      380K (116K user + 264K system)                             *
 *   Extended region  9836K (4K user + 9832K system)                             *
 *                                                                               *
 *   Paging              In      Out                                             *
 *   Private <-> Aux      0        0       CPU time (TCB)   00:00:00.94          *
 *   Private <-> Exp      0        0       CPU time (SRB)   00:00:00.03          *
 *   VIO                  0        0       Elapsed time    917:37:48.31          *
 *   Common               0      ---                                             *
 *                                                                               *
 *                                                                               *
 *   CPU Usage         17.62        $10.92  Standard Processing Unit Equivalent  *
 *                                  $10.92  Total Step execution charge          *
 *                                                                               *
 *    I/O count  DDname   Type Addr           I/O count  DDname   Type Addr      *
 *            2  STEPLIB  Disk 0402                 342  ASMOUT   Disk 038B      *
 *            0  SYSPRINT      ----                                              *
 *********************************************************************************
 IEF373I STEP/EDIT    /START 2004075.1250
 IEF374I STEP/EDIT    /STOP  2004075.1250 CPU    0MIN 00.94SEC SRB    0MIN 00.03SEC VIRT   116K SYS   264K EXT       4K SYS    9832K
 *********************************************************************************
 *                                                                               *
 *                      S t a n f o r d   U n i v e r s i t y                    *
 *                                                                               *
 *                              *** Job Summary ***                              *
 *                                                                               *
 *   System Id      SYSB                   Input time     12:39:22  Mar 15, 2004 *
 *                                                                               *
 *   System Release SP6.1.0                Start time     12:49:54  Mar 15, 2004 *
 *                                                                               *
 *   Job name       WYL#NFIL               Stop  time     00:00:00  Mar 15, 2004 *
 *                                                                               *
 *   Account        SLP$GG                 Elapsed time  917:37:58.00            *
 *                                                                               *
 *   User Name      Assemble NFILE         CPU time       00:00:06.48            *
 *                                                                               *
 *   Job class      B                      SRB Time       00:00:00.09            *
 *                                                                               *
 *********************************************************************************
 IEF375I  JOB/WYL#NFIL/START 2004075.1249
 IEF376I  JOB/WYL#NFIL/STOP  2004075.1250 CPU    0MIN 06.48SEC SRB    0MIN 00.09SEC
1Assembler Done NFILE No Statements Flagged
1         High Level Assembler Option Summary                   (PTF P72483 )                                               Page    1
-                                                                                            HLASM R4.0  2004/03/15 12.49
0  No Overriding ASMAOPT Parameters
   Overriding Parameters-  NORENT,TERM,FLAG(NOCONT),US(MAP,WARN(10)),NODECK,LC(32767),XREF(SHORT),ESD,DXREF,NOOBJECT
   No Process Statements


   Options for this Assembly
0  NOADATA
     ALIGN
   NOASA
     BATCH
     CODEPAGE(047C)
   NOCOMPAT
   NODBCS
 3 NODECK
 3   DXREF
 3   ESD
   NOEXIT
 3   FLAG(0,ALIGN,NOCONT,NOIMPLEN,NOPAGE0,PUSH,RECORD,NOSUBSTR,USING0)
   NOFOLD
   NOGOFF
   NOINFO
     LANGUAGE(EN)
   NOLIBMAC
 3   LINECOUNT(32767)
     LIST(121)
     MXREF(SOURCE)
 3 NOOBJECT
     OPTABLE(UNI,NOLIST)
   NOPCONTROL
   NOPESTOP
   NOPROFILE
   NORA2
 3 NORENT
     RLD
     RXREF
     SIZE(MAX)
     SYSPARM()
 3   TERM(WIDE)
   NOTEST
     THREAD
   NOTRANSLATE
 3   USING(NOLIMIT,MAP,WARN(10))
 3   XREF(SHORT)

   No Overriding DD Names

1NFILE    External Symbol Dictionary                                                                                        Page    2
-Symbol   Type   Id     Address  Length     LD ID  Flags Alias-of                            HLASM R4.0  2004/03/15 12.49
0WYLNFILE  SD 00000001 00000000 00005D98             00
 NFIL2025  LD          00000000           00000001
 RESAVE    LD          00000026           00000001
 SAVE      LD          0000006A           00000001
 OLDSAVE   ER 00000002
 LRTRIM    ER 00000003
 NSCANSTR  ER 00000004
 SCANCHK   ER 00000005
 DOFNAME   ER 00000006
 SCNEXFR   ER 00000007
 NSCAN     ER 00000008
 FNAMEFIN  ER 00000009
 EDTCOMNH  ER 0000000A
 SEG       ER 0000000B
 SEGDSN    ER 0000000C
 YESREQ    ER 0000000D
 NDETRNG   ER 0000000E
 EXTOPEN   ER 0000000F
 SEGWR     ER 00000010
 RDRNG     ER 00000011
 EXTCLOSE  ER 00000012
 SETPFXNS  ER 00000013
 ACTRESET  ER 00000014
 CLRTEXT   ER 00000015
 NRESOLVE  ER 00000016
 MTOKEN    ER 00000017
 SCNNOOP   ER 00000018
 CLSCRPSH  ER 00000019
 VERPSH    ER 0000001A
 COLLPSH   ER 0000001B
 QUIETPSH  ER 0000001C
 SMSPSH    ER 0000001D
 MALL      ER 0000001E
 NOTVALID  ER 0000001F
 EXTWRITE  ER 00000020
 BTDZEROS  ER 00000021
 ACTNEXT   ER 00000022
 ACTPICK   ER 00000023
 GETKWR    ER 00000024
 YESRTN    ER 00000025
 USE       LD          00001036           00000001
 MPINT     ER 00000026
 MPARM     ER 00000027
 CLRPSH    ER 00000028
 FNAMPSHF  ER 00000029
 LASTLINE  ER 0000002A
 SEGDC     ER 0000002B
 SEGCR     ER 0000002C
 PUTLINE   ER 0000002D
 ACTOPEN   ER 0000002E
 ACTVREST  ER 0000002F
 GTINTVAL  ER 00000030
 RTRIM     ER 00000031
 SETVINFO  ER 00000032
 CHKPASSW  LD          00001B34           00000001
1NFILE    External Symbol Dictionary                                                                                        Page    3
 OSRENAME  LD          00001B60           00000001
 MNULL     ER 00000033
 FNAMPSH   ER 00000034
 SCRATCH   LD          000021C6           00000001
 MKFFINFO  ER 00000035
 SAMREN    ER 00000036
 NETREN    ER 00000037
 RETFNAME  ER 00000038
 WGSRENAM  ER 00000039
 SAMSCR    ER 0000003A
 SEGT      ER 0000003B
 NETSCR    ER 0000003C
 WGSCRTCH  ER 0000003D
 ALLOCATE  LD          00002730           00000001
 SCAN      ER 0000003E
 ORVCPASS  ER 0000003F
 WGSALLOC  ER 00000040
 CATALOG   LD          00002D50           00000001
 WGSCATLG  ER 00000041
 MKFFINFO  LD          00002FE8           00000001
 DOFNAME   LD          00003054           00000001
 FNAMESCN  LD          0000311E           00000001
 GETHEAP   ER 00000042
 LOGCMD    ER 00000043
 SCSEG     ER 00000044
 FILEOPTS  LD          00003232           00000001
 SCNINVAL  ER 00000045
 FILFOPTS  LD          00003304           00000001
 FNAMPSH   LD          000033EA           00000001
 FNAMPSHF  LD          00003420           00000001
 FNONPSH   LD          0000348C           00000001
 SMSPSH    LD          000034C2           00000001
 MPAREN    ER 00000046
 RLOOKUP   ER 00000047
 FNAMEFIN  LD          0000446C           00000001
 ZAPNET    LD          000045AA           00000001
 CHECKVOL  ER 00000048
 EXPCNAME  LD          00005046           00000001
 DSNPSHF   ER 00000049
 DODSNM    ER 0000004A
 DSNFIN    ER 0000004B
 SETDHOST  LD          000055B4           00000001
 GETDHOST  LD          000055E6           00000001
 SETDTYPE  LD          0000561C           00000001
 GETDTYPE  LD          00005652           00000001
 SAVEDATA  ER 0000004C
 GETDATA   ER 0000004D
 SETFDEF   LD          000056B0           00000001
 SHOWFDEF  LD          00005938           00000001
 SETFPAT   LD          00005A80           00000001
 SHOWFPAT  LD          00005B2A           00000001
 SCUPCASE  ER 0000004E
 NOOPTS    ER 0000004F
 NRESOLVE  LD          00005C96           00000001
 WGSRESLV  ER 00000050
 NETRESLV  ER 00000051
 UFSRESLV  ER 00000052
 SAMRESLV  ER 00000053
 EXPCNAME  ER 00000054
1NFILE    External Symbol Dictionary                                                                                        Page    4

1NFILE    WYLBUR's File Access Commands                                                                                     Page    5
0Loc    Object Code    Addr1 Addr2  Stmt Lv Lineno    Source Statement                    (Asmedit 3.3)  HLASM R4.0  2004/03/15 12.49
+___    ______ ____    _____ _____  ____ __ ______    ______ _________
0                                      2              *******************************************************************
                                       3              *                                                                 *
                                       4              *     WYLBUR/370 - Release VI - Class I - Stanford Proprietary    *
                                       5              *                                                                 *
                                       6              *******************************************************************
                                       7                       HIBAL
                                     988
 000000                00000 05D98   989              WYLNFILE CSECT
                                     993              NFIL     IDENT 2025                11:49:27 01/25/02  (SLP)
                                     996             +
                                     997    01-IDENT +         ENTRY NFIL2025
                                     998             +
 000000 16D5C6C9D3F2F0F2             999    01-IDENT +NFIL2025 DC    AL1(22),C'NFIL2025,15MAR04,12:49'
                                    1000             +*
                                    1002              *
                                    1003              * Modification history:
                                    1004              *
                                    1005              *    8-MAR-1995  M. Durket
                                    1006              *      Changed test in ZAPNET to make sure that the file name
                                    1007              *      doesn't just consist of only a '%' sign (because that
                                    1008              *      caused WYLBUR to failsoft later in the NET module). If
                                    1009              *      the filename is just '%' and nothing more, treat it as if
                                    1010              *      it were not a network filename.
                                    1011              *
                                    1012              *    1-JUL-1997 M. Durket
                                    1013              *      Added support for using WINGS to do ACTIVE file recovery.
                                    1014              *      To activate this, we'll need to turn it on in the SIGN
                                    1015              *      module. For now, ACTIVE file SAVEs via WINGS are turned off,
                                    1016              *      but USEs (for AUTO USE at logon time) are turned on since
                                    1017              *      it's no big deal if they don't work.
                                    1018              *
                                    1019                       REGS   FSR,,,,,,IOWAR,BR,(WAR,LSR),PAR,PBR,CPR,CVR,SPR,RAR
-                                   1169                       SYSDEFN ,                 Define installation params
                                    1170                       GBLC  &PUBUSER,&PUBGRP,&INSTALN
-                                   1172                       PUSH  DSECTS
 USING  CP,R11                      1184             =         USING (CP),(CV)
 USING  CV,R12
 000017                00000 05D98  1203             =         POP   PRINT
1NFILE    (NFIL2025) (12:49) (15MAR04) Common Control Blocks                                                                Page    6
0Current Usings:  (CP,R11) (CV,R12)
0Loc    Object Code    Addr1 Addr2  Stmt Lv Lineno    Source Statement           (Hibal 5, Asmedit 3.3)  HLASM R4.0  2004/03/15 12.49
+___    ______ ____    _____ _____  ____ __ ______    ______ _________
0                                   6563                       COPY  FFINFO
                                    6564             =*
                                    6565             =*
                                    6566             =*  FILE INFO DSECT
                                    6567             =*
                                    6568             =*  THIS DSECT CONTAINS THE INFO NEEDED TO OPEN FILES.
                                    6569             =*  IT CONTAINS THE FILE NAME, FILE OPTIONS, FILE SYSTEM
                                    6570             =*  NAME AND FILE SYSTEM OPTIONS. THIS DSECT SHOULD CONTAIN
                                    6571             =*  ONLY DESCRIPTIVE INFO NEEDED TO OPEN THE FILE.
                                    6572             =*
                                    6573             =*
                                    6574             =FNAMELN  EQU   128                 MAXIMUM FILE NAME LENGTH
                                    6575             =FSYSLN   EQU   128                 MAXIMUM FILE SYSTEM LENGTH
                                    6576             =FHOSTLN  EQU   128                 MAXIMUM FILE SYSTEM HOST LENGTH
                                    6577             =*
                                    6578             =*
 000000                00000 003A0  6579             =FFINFO   RECORD BEGIN
 000000 00                          6587  1          =FFTYPE     FLAG  ,                   FILE SYSTEM TYPE FLAGS
 FFTYPE.FFFWINGS   01 EQ            6591  1          =           FLAG  (FFFWINGS,1,EQ)     WINGS
 FFTYPE.FFFUNIX    02 EQ            6601  1          =           FLAG  (FFFUNIX,2,EQ)      UNIX (NOT IMPLEMENTED)
 FFTYPE.FFFSAM     03 EQ            6611  1          =           FLAG  (FFFSAM,3,EQ)       SAMSON
 FFTYPE.FFFNET     04 EQ            6621  1          =           FLAG  (FFFNET,4,EQ)       NET
 FFTYPE.FFFOLD     05 EQ            6631  1          =           FLAG  (FFFOLD,5,EQ)       OLD IBM
 000001 00                          6641  1          =FFRQTYPE   FLAG  ,                   REQUEST TYPE FLAGS
 FFRQTYPE.FFFREAD  01 EQ            6645  1          =           FLAG  (FFFREAD,1,EQ)      READ (DEFAULT)
 FFRQTYPE.FFFWRITE 02 EQ            6655  1          =           FLAG  (FFFWRITE,2,EQ)     WRITE
 FFRQTYPE.FFFAPPD  04 EQ            6665  1          =           FLAG  (FFFAPPD,4,EQ)      APPEND
 FFRQTYPE.FFFREPL  08 EQ            6675  1          =           FLAG  (FFFREPL,8,EQ)      REPLACE
 000002 00                          6685  1          =FFMISC     FLAG  ,                   MISC FLAGS
 FFMISC.FFFPASSW   80 ONES          6689  1          =           FLAG  FFFPASSW            PASSWORD ACCESS OK
 FFMISC.FFFDIFFV   40 ONES          6694  1          =           FLAG  FFFDIFFV            DIFFERENT VOL SAVE OK
 FFMISC.FFFCHFMT   20 ONES          6699  1          =           FLAG  FFFCHFMT            CHANGE DSN FORMAT OK
 FFMISC.FFFNRACF   10 ONES          6704  1          =           FLAG  FFFNRACF            NO RACF PROCESSING
 FFMISC.FFFPDS     08 ONES          6709  1          =           FLAG  FFFPDS              OP APPLIES TO PDS
 000003 00                          6714  1          =FFPTYPE    FLAG  ,                   PREVIOUS FILE TYPE
 FFPTYPE.FFFPWINGS 01 EQ            6718  1          =           FLAG  (FFFPWINGS,1,EQ)    WINGS
 FFPTYPE.FFFPUNIX  02 EQ            6728  1          =           FLAG  (FFFPUNIX,2,EQ)     UNIX (NOT IMPLEMENTED)
 FFPTYPE.FFFPSAM   03 EQ            6738  1          =           FLAG  (FFFPSAM,3,EQ)      SAMSON
 FFPTYPE.FFFPNET   04 EQ            6748  1          =           FLAG  (FFFPNET,4,EQ)      NET
 FFPTYPE.FFFPOLD   05 EQ            6758  1          =           FLAG  (FFFPOLD,5,EQ)      OLD IBM
 000004 00                          6768  1          =FFFLAG4    FLAG  ,
 000008                             6772  1          =FFNAMEL    DS    F                   FILE NAME
 00000C                             6773  1          =FFNAME     DS    CL128
 00008C                             6774  1          =FFHOSTL    DS    F                   FILE HOST
 000090                             6775  1          =FFHOST     DS    CL128
 000110                             6776  1          =FFOPTSL    DS    F                   FILE OPTIONS (FORMAT ETC)
 000114                             6777  1          =FFOPTS     DS    CL256
 000214                             6778  1          =FFRNAMEL   DS    F                   RESOLVED FULL FILE NAME
 000218                             6779  1          =FFRNAME    DS    CL128
 000298                             6780  1          =FFPNAMEL   DS    F                   PREVIOUS FILE NAME (IE. *)
 00029C                             6781  1          =FFPNAME    DS    CL128
 00031C                             6782  1          =FFPHOSTL   DS    F                   PREVIOUS HOST
 000320                             6783  1          =FFPHOST    DS    CL128
 0003A0                003A0 003A0  6784             =         END   ,
1NFILE    (NFIL2025) (12:49) (15MAR04) Common Control Blocks                                                                Page    7
0Current Usings:  (CP,R11) (CV,R12)
0Loc    Object Code    Addr1 Addr2  Stmt Lv Lineno    Source Statement           (Hibal 5, Asmedit 3.3)  HLASM R4.0  2004/03/15 12.49
+___    ______ ____    _____ _____  ____ __ ______    ______ _________
0000000                00000 0003C  6794              SEGCB    RECORD 'SEGCB'
 000000 00                          6804  1 03-SEGCB +$$$SEGCB56   DS  0F
 SEGCBCOD.SEGCBSEG 01 EQ
 SEGCBCOD.SEGCBWR  02 EQ
 SEGCBCOD.SEGCBCLR 03 EQ
 SEGCBCOD.SEGCBSPP 04 EQ
 SEGCBCOD.SEGCBOVF 05 EQ
 SEGCBCOD.SEGCBCR  06 EQ
 SEGCBCOD.SEGCBMAR 07 EQ
 000001 00                          6879  1 03-SEGCB +           DC    X'00'               Reserved
 000002 0000                              1          +
 000004 00000000                    6880  1 03-SEGCB +SEGCBMAXF   DC   A(0)                Maximum buffer length
 000008 00000000                    6881  1 03-SEGCB +SEGCBMRKF   DC   A(0)                Length at last mark
 00000C 00000000                    6882  1 03-SEGCB +SEGCBLENF   DC   A(0)                Current length
 000010 00000000                    6883  1 03-SEGCB +SEGCBINDF   DC   A(0)                Overflow/indent count
 000014 00000000                    6884  1 03-SEGCB +SEGCBERR   DC    A(0)                Address of error recovery routine
 000018 0000000000000000            6885  1 03-SEGCB +           DC    2F'0'               Reserved
 000020 00000000                    6886  1 03-SEGCB +SEGCBLOC   DC    A(0)                Location of buffer
 000024 00000000                    6887  1 03-SEGCB +SEGCBRTN   DC    A(0)                Processing routine
 000028 0000000000000000            6888  1 03-SEGCB +           DC    4F'0'               Reserved
 000038 00000000                    6889    03-SEGCB +SEGCBUSR DC    A(0)                USER field
                                    6899
1NFILE    (NFIL2025) (12:49) (15MAR04) Common Control Blocks                                                                Page    8
0Current Usings:  (CP,R11) (CV,R12)
0Loc    Object Code    Addr1 Addr2  Stmt Lv Lineno    Source Statement           (Hibal 5, Asmedit 3.3)  HLASM R4.0  2004/03/15 12.49
+___    ______ ____    _____ _____  ____ __ ______    ______ _________
0000017                00000 05D98  6901              WYLNFILE CSECT
 000017 C881A58540814095            6903                       DC    C'Have a nice day'
1NFILE    (NFIL2025) (12:49) (15MAR04) RESAVE Command                                                                       Page    9
0Current Usings:  (CP,R11) (CV,R12)
0Loc    Object Code    Addr1 Addr2  Stmt Lv Lineno    Source Statement           (Hibal 5, Asmedit 3.3)  HLASM R4.0  2004/03/15 12.49
+___    ______ ____    _____ _____  ____ __ ______    ______ _________
0                                   6905              *
                                    6906              *  THIS IS UNDOCUMENTED.
                                    6907              *  KEEP IT THAT WAY.  REMOVE THIS COMMAND IN FUTURE.
                                    6908              *  IT IS THE SAME AS 'SAVE .... REPLACE
                                    6909              *
                                    6910              *
 000026 50E0 D000/9008_      00000  6911              RESAVE   XPROC ,
 USING  *,R7
                                    6951
 000040 58E0 7560/0DEE       005A0  6952                       ACALL MKFFINFO
 000046 5850 BE54            00E54  6956                       L     R5,CPFINFOP
 USING  FFINFO,R5                   6957                       USING FFINFO,R5
                                    6966
                                    6967                       COMMENT                   SET REPLACE
 00004A 9208 5001      00001        6968                       SET   FFFREPL
 00004E 9640 BD51      00D51        6974                       SET   CPLFLG2.CPFSCRTC    ** DEBUG ** OLD IBM REPLACE FLAG
                                    6981
                                    6982                       COMMENT                   DO SAVE
 000052 58E0 7564/0DEE       005A4  6983                       ACALL SAVE
                                    6987
 000058 47F0 C7DE            007DE  6988                       B     CVNEXT              ALL DONE
                                    6989
 00005C 18D8/9808 D004_             6990                       PEND  ,
 DROP   *,R7
 DROP   FFINFO,R5                   7010                       DROP  R5
1NFILE    (NFIL2025) (12:49) (15MAR04) SAVE Command                                                                         Page   10
0Current Usings:  (CP,R11) (CV,R12)
0Loc    Object Code    Addr1 Addr2  Stmt Lv Lineno    Source Statement           (Hibal 5, Asmedit 3.3)  HLASM R4.0  2004/03/15 12.49
+___    ______ ____    _____ _____  ____ __ ______    ______ _________
0                                   7018              ¿þþþþþþþþþþþþþþþþþþþþþþþþþþþþþþþþþþþþþþþþþþþþþþþþþþþþþþþþþþþþþþþþþþþþþÜ
                                    7019              Ÿ                                                                     Ÿ
                                    7020              Ÿ  SAVE COMMAND                                                       Ÿ
                                    7021              Ÿ                                                                     Ÿ
                                    7022              Ÿ  NOTE:                                                              Ÿ
                                    7023              Ÿ  IF FILE TYPE IS OLDIBM, THEN WE EVENTUALLY CALL THE                Ÿ
                                    7024              Ÿ  'OLDSAVE' ROUTINE.  THUS, WHEN WINGS GOES PRODUCTION               Ÿ
                                    7025              Ÿ  WE CAN DELETE THE 'OLDSAVE' CALL.  ALSO WE WILL BE                 Ÿ
                                    7026              Ÿ  ABLE TO DELETE 'OLDFIN' ROUTINE COMPATABILITY CODE.                Ÿ
                                    7027              Ÿ  DIG IT.                                                            Ÿ
                                    7028              Ÿ                                                                     Ÿ
                                    7029              Ÿ                                                                     Ÿ
                                                      ¾þþþþþþþþþþþþþþþþþþþþþþþþþþþþþþþþþþþþþþþþþþþþþþþþþþþþþþþþþþþþþþþþþþþþþ»
0000000                00000 00110  7030              SVWA     RECORD BEGIN
 000000 00                          7038  1           SVFLAG1    FLAG  ,
 SVFLAG1.SVFLINES  80 ONES          7042  1                      FLAG  SVFLINES            SAVE LINES
 SVFLAG1.SVFRECOV  40 ONES          7047  1                      FLAG  SVFRECOV            SAVE .. RECOVERY (IE. MULT)
 000004                             7052  1           SVCMDLEN   DS    F                   SAVE CMD LENGTH
                                    7053  1           SVCMDBUF   DS    CL(&LINESZ+16)      SAVE CMD BUFFER
 000008                                   1          +SVCMDBUF   DS    CL(235+16)          SAVE CMD BUFFER
 000104                             7054  1           SVLINECT   DS    F                   LINE COUNTER
 000108                             7055  1           SVTRUCCT   DS    F                   LINE TRUCATION COUNTER
 00010C                             7056  1           SVRTRYCT   DS    F                   OPEN RETRY COUNTER
 000110                00110 00110  7057                       END
                                    7066              *
                                    7067              *
 00006A 50E0 D000/9008_      00000  7068              SAVE     XPROC SVWA
 USING  *,R7
 USING  SVWA-(4+36),R8
                                    7119
                                    7120                       COMMENT                   ** DEBUG ** EMERGENCY PATCH
 000084 1900/4780 700C_             7121                       IF    (R0,NE,R0),' VCALL OLDSAVE '  *** DEBUG ***
                                    7145
 000090 4160 8028            00000  7146                       LA    R6,SVWA
 USING  SVWA,R6                     7147                       USING SVWA,R6
 000094 5060 BCA4            00CA4  7156                       ST    R6,CPCWA
 000098 D7FF 6000 6000_00000 00000  7157                       CLEAR SVWA
                                    7165
 0000A4 58E0 751C/0DEE       005A0  7166                       ACALL MKFFINFO
 0000AA 5850 BE54            00E54  7170                       L     R5,CPFINFOP
 USING  FFINFO,R5                   7171                       USING FFINFO,R5
                                    7180
 0000AE D202 BD24 75C2 00D24 00646  7181                       MVC   CPCMNM(3),=CL3'SAV'
                                    7182
                                    7183                       COMMENT                   ** DEBUG ** WE SAVE CMD TEXT
                                    7184                       COMMENT                   IF OLDIBM, WE WILL REISSUE CMD
 0000B4 9001 D000/41D0_      00000  7185                       XPUSH R0,R1
 0000BC D20F 6008 74BC 00008 00540  7188                       MVC   SVCMDBUF(16),=CL16'        OLDSAVE '
 0000C2 58E0 B08C/581E_      0008C  7189                       SCINFO ,                  R1,R0 SAVE CMD TEXT LOC,LEN
 0000D0 58E0 7528/0DEE       005AC  7198                       VCALL LRTRIM
 0000D6 1830                        7202                       LR    R3,R0
 0000D8 5930 752C/47D0_      005B0  7203                       IF    (R3,GT,&LINESZ-32),'ERROR "Command buffer overflow."'
 0000EC 0630/1233/4740_             7232                       MOVE  R3,SVCMDBUF+16,@R1
1NFILE    (NFIL2025) (12:49) (15MAR04) SAVE Command                                                                         Page   11
0Current Usings:  (FFINFO,R5) (SVWA,R6) (*,R7) (SVWA-(4+36),R8) (CP,R11) (CV,R12)
0Loc    Object Code    Addr1 Addr2  Stmt Lv Lineno    Source Statement           (Hibal 5, Asmedit 3.3)  HLASM R4.0  2004/03/15 12.49
+___    ______ ____    _____ _____  ____ __ ______    ______ _________
00000F8 5A00 7530            005B4  7270                       A     R0,=F'16'
 0000FC 5000 6004            00004  7271                       ST    R0,SVCMDLEN
 000100 9180 B47B/47E0_0047B        7272                       IF    CPFTRY,BEGIN        IF TRY PREFIX
 000108 D203 6008 7534 00008 005B8  7287  1                      MVC   SVCMDBUF(4),=CL4'TRY '
 00010E                             7288                       END
 00010E 9140 BD55/47E0_00D55        7292                       IF    CPFQUIET,BEGIN      IF QUIET PREFIX
 000116 D203 600C 7538 0000C 005BC  7307  1                      MVC   SVCMDBUF+4(4),=CL4'QUI '
 00011C                             7308                       END
 00011C 9508 5001/4770_00001        7312                       IF    FFFREPL,BEGIN       IF RESAVE
 000124 4130 6008            00008  7327  1                      LA    R3,SVCMDBUF
 000128 5800 6004            00004  7328  1                      L     R0,SVCMDLEN
 00012C 1A30                        7329  1                      AR    R3,R0
 00012E 5900 753C/4770_      005C0  7330  1                      IF    (R0,EQ,16),BEGIN
 000136 D207 3000 74E4 00000 00568  7347  2                        MVC   @R3(8),=CL8' * REP  '
 00013C                             7348  1                      END
 00013C 70BC/47F0 70C2 0013C 00134  7352  1                      ELSE  BEGIN
 000140 D207 3000 74EC 00000 00570  7363  2                        MVC   @R3(8),=CL8'   REP  '
 000146                             7364  1                      END
 000146 5A00 7540            005C4  7368  1                      A     R0,=A(8)
 00014A 5000 6004            00004  7369  1                      ST    R0,SVCMDLEN
 00014E                             7370                       END
 00014E 4BD0 75BC/9801_      00640  7374                       XPOP  R0,R1
                                    7377
                                    7378                       COMMENT                   SET REQUEST TYPE
 000156 9500 5001/4770_00001        7379                       IF    (FFRQTYPE,EQ,0),BEGIN     (MAY BE REPLACE, ALREADY)
 00015E 9202 5001      00001        7397  1                      SET   FFFWRITE            SET FILE WRITE FLAG
 000162                             7403                       END
                                    7407
 000162 9610 BD50      00D50        7408                       SET   CPLFLG1.CPFALL      Set ALL ok for range
                                    7415
                                    7416                       COMMENT                   CHECK FOR NO OPERANDS
 000166 58E0 B08C/D2AF_      0008C  7417                       SCPUSH ,
 000174 5810 B08C/1B00_      0008C  7423                       SCANSTR ,                 Pick up next token
 0001BA 58E0 7548/0DEE       005CC  7452                       SCANCHK ,
 0001C0 58E0 B08C/4BD0_      0008C  7457                       SCPOP ,
 0001CE 12FF/4770 716C_             7463                       IF    ((R15,Z),AND,(R0,Z)),BEGIN  If no file name
 0001DA 4110 74F4/4100_      00578  7490  1                      SCINIT '* VERIFY'         Default is "SAVE * VERIFY"
 0001F0                             7504                       END
                                    7508
                                    7509                       COMMENT                   SCAN FOR FILE NAME
 0001F0 58E0 754C/0DEE       005D0  7510                       VCALL DOFNAME
 0001F6 58E0 7550/0DEE       005D4  7514                       VCALL SCNEXFR             SEE IF SAVE ... .. EXEC
                                    7518
                                    7519                       COMMENT                   SET PREFIX on save (PBT 5/91)
 0001FC 9501 BD89/4770_00D89        7520                       IF    CPFRDACT,BEGIN  Saving Active...
 000204 9680 BD52      00D52        7535  1                      SET   CPLFLG3.CPFSET
 000208                             7542                       END
                                    7546
                                    7547                       COMMENT                   SCAN SAVE COMMAND
 000208 5810 B08C/1B00_      0008C  7548                       SCAN  SAVEPRT
 00025A 58E0 7548/0DEE       005CC  7580                       SCANCHK
                                    7585
                                    7586                       COMMENT                   FINISH FILE NAME PROCESSING
 000260 58E0 755C/0DEE       005E0  7587                       VCALL FNAMEFIN
1NFILE    (NFIL2025) (12:49) (15MAR04) SAVE Command                                                                         Page   12
0Current Usings:  (FFINFO,R5) (SVWA,R6) (*,R7) (SVWA-(4+36),R8) (CP,R11) (CV,R12)
0Loc    Object Code    Addr1 Addr2  Stmt Lv Lineno    Source Statement           (Hibal 5, Asmedit 3.3)  HLASM R4.0  2004/03/15 12.49
+___    ______ ____    _____ _____  ____ __ ______    ______ _________
0                                   7591
                                    7592                       COMMENT                   IF OLDIBM SAVE, DO IT
 000266 9505 5000/4770_00000        7593                       IF    FFFOLD,BEGIN        ** DEBUG **
                                    7608  1                      COMMENT                   THE OLDIBM SAVE CODE IS KIND
                                    7609  1                      COMMENT                   OF YUCKKY, IT IS GOING AWAY SO
                                    7610  1                      COMMENT                   THERE IS NO POINT TO FIX IT.
 00026E 5820 6004            00004  7611  1                      L     R2,SVCMDLEN         SET UP 'OLDSAVE' CMD
 000272 4020 B240            00240  7612  1                      STH   R2,CPCMDLEN
 000276 0620/1222/4740_             7613  1                      MOVE  R2,CPCMD,SVCMDBUF
 000282 4110 B242/4800_      00242  7651  1                      SETMSG CPCMD,LH:CPCMDLEN
 00028A 58E0 7560/0DEE       005E4  7664  1                      VCALL EDTCOMNH            GO DO 'OLDSAVE', DOES NOT RETURN
 000290                             7668                       END
                                    7672
                                    7673                       COMMENT                   IF VERIFY, ASK 'OK TO SAVE ..??'
                                    7674              * ** DEBUG ** HELP WE MAY NEED FULL NAME ??? DO BEFORE OPEN ?? AHHH!
 000290 9120 BD58/47E0_00D58        7675                       IF    CPFVER,BEGIN        Verify...
 000298 4110 75C5/4100_      00649  7690  1                      TSEG  'OK to save '
 0002AA 58E0 7568/0DEE       005EC  7708  1                      VCALL SEGDSN
 0002B0 D503 74B8 508C_0053C 0008C  7712  1                      IF    (FFHOSTL,NE,0),BEGIN
 0002BA 4110 756C/4100_      005F0  7730  2                        TSEG  ' on '
 0002CC 4110 5090/5800_      00090  7748  2                        TSEG  FFHOST,L:FFHOSTL
 0002DE                             7776  1                      END
 0002DE 1B00                        7780  1                      CLEAR R0
 0002E0 58E0 7570/0DEE       005F4  7784  1                      VCALL YESREQ              Get Yes/No
 0002E6                             7788                       END
                                    7792
                                    7793                       COMMENT                   SET DEFAULT RANGE IF NEEDED
 0002E6 9110 BE28/4710_00E28        7794                       IF    (~CPFXMULT,AND,~SVFLINES),BEGIN
 0002F6 58E0 B08C/D7AF_      0008C  7823  1                      SCCLR
 000302 58E0 7574/0DEE       005F8  7832  1                      VCALL NDETRNG
 000308                             7836                       END
                                    7840
                                    7841                       COMMENT                   SET MISC STUFF, DO VALIDITY CHECKS
 000308 9640 BD57      00D57        7842                       SET   CPFNCUR             Set not to change current
                                    7848              *
                                    7849              *        DO OPEN
                                    7850              *
                                    7851                       COMMENT                   OPEN EXTERNAL FILE
 00030C 58E0 7578/0DEE       005FC  7852                       VCALL EXTOPEN
                                    7856              *
                                    7857              *        PROCESS OPEN ERRORS
                                    7858              *
                                    7859                       COMMENT                   IF ERROR, RETRY OPEN ,,
 000312 12FF/4780 7364              7860                       WHILE  (R15,NZ),BEGIN
 000318 4120 0001/5E20_      00001  7876  1                      INCR  R2,SVRTRYCT         CHECK RETRY COUNT
 000324 5920 757C/47D0_      00600  7882  1                      IF    (R2,GT,10),BEGIN
 00032C 47F0 C7D6            007D6  7899  2                        B     CVERROR
 000330                             7900  1                      END
                                    7904  1                      COMMENT                   FILE EXISTS ,,,
                                    7905  1                      COMMENT                   ASK IF OK TO REPLACE
 000330 D507 74FC B886_00580 00886  7906  1                      IF (CPERRID,EQ,'EXISTS  '),BEGIN
 00033A 1B00/41F0 B050_             7923  2                        TWRITE ,
 000346 D707 B886 B886 00886 00886  7948  2                        CLEAR CPERRID
 00034C 58E0 7584/0DEE       00608  7955  2                        ACALL REPOPEN
1NFILE    (NFIL2025) (12:49) (15MAR04) SAVE Command                                                                         Page   13
0Current Usings:  (FFINFO,R5) (SVWA,R6) (*,R7) (SVWA-(4+36),R8) (CP,R11) (CV,R12)
0Loc    Object Code    Addr1 Addr2  Stmt Lv Lineno    Source Statement           (Hibal 5, Asmedit 3.3)  HLASM R4.0  2004/03/15 12.49
+___    ______ ____    _____ _____  ____ __ ______    ______ _________
0000352                             7959  1                      END
                                    7963  1                      COMMENT                   FILE NOT YOURS
                                    7964  1                      COMMENT                   ASK PASSWORD
 000352 72D2/47F0 72FC_00352 00338  7965  1                      ELSEIF ((CPERRID,EQ,'NOTYOURS'),AND,FFFWINGS),BEGIN
                                    8005  2                        COMMENT                   IF NO ACCESS, ASK FOR PASSWORD
 000368 1B00/41F0 B050_             8006  2                        TWRITE
 000374 D707 B886 B886 00886 00886  8031  2                        CLEAR CPERRID
 00037A 58E0 7588/0DEE       0060C  8038  2                        ACALL PASSOPEN
 000380                             8042  1                      END
                                    8046  1                      COMMENT                   FILE SAVED ON DIFFERENT VOL
                                    8047  1                      COMMENT                   ASK IF OK TO SAVE ON THIS VOL
 000380 7300/7300/47F0_00380 0035E  8048  1                      ELSEIF ((CPERRID,EQ,'DIFFVOL'),AND,FFFWINGS),BEGIN
 000396 1B00/41F0 B050_             8090  2                        TWRITE ,
 0003A2 D707 B886 B886 00886 00886  8115  2                        CLEAR CPERRID
 0003A8 58E0 758C/0DEE       00610  8122  2                        ACALL DIFFOPEN
 0003AE                             8126  1                      END
 0003AE 732E/732E/47F0_003AE 0038C  8130  1                      ELSEIF ((CPERRID,EQ,'CHANGFMT'),AND,FFFWINGS),BEGIN
 0003C4 1B00/41F0 B050_             8172  2                        TWRITE ,
 0003D0 D707 B886 B886 00886 00886  8197  2                        CLEAR CPERRID
 0003D6 58E0 7590/0DEE       00614  8204  2                        ACALL CFMTOPEN
 0003DC                             8208  1                      END
                                    8212  1                      COMMENT                   OTHER ERRS ,,, WE GIVE UP
 0003DC 735C/735C/47F0_003DC 003BA  8213  1                      ELSE  BEGIN
 0003E0 47F0 C7D6            007D6  8226  2                        B     CVERROR
 0003E4                             8227  1                      END
 0003E4 47F0 728E            00312  8231                       END   , OF LOOP TRYING TO OPEN
                                    8236              *
                                    8237              *        DO SAVE.
                                    8238              *
                                    8239                       COMMENT                   RECOVERY SAVE (IE. SAVE MULT)
 0003E8 9140 6000/47E0_00000        8240                       IF    SVFRECOV,BEGIN
 0003F0 58E0 7594/0DEE       00618  8255  1                      ACALL SAVRECOV
 0003F6                             8259                       END
                                    8263
                                    8264                       COMMENT                   NORMAL SAVE
 0003F6 7376/47F0 73A6 003F6 003EE  8265                       ELSE  BEGIN               Save current Active/Exec...
 0003FA 9501 BD89/4770_00D89        8276  1                      IF    CPFRDACT,BEGIN
 000402 5800 7598/5810_      0061C  8291  2                        RDRNG SAVERTN,(DESRTRN+LOCATRTN+UNPRST)
 000410                             8298  1                      END
 000410 7390/47F0 73A6_00410 00400  8302  1                      ELSEIF CPFRDEXE,BEGIN
 00041C 5800 75A4/5810_      00628  8326  2                        RDRNG SAVERTN,(DESRTRN+LEXATRTN+UNPRST)
 00042A                             8333  1                      END
 00042A                             8337                       END
                                    8341
 00042A 58E0 75A8/0DEE       0062C  8342                       VCALL EXTCLOSE
 000430 9140 B474/47E0_00474        8346                       IF    CPFRCVY,BEGIN       Recovery save...
 000438 9601 B475      00475        8361  1                      SET   CPGFLG2.CPFACTSV    Set flag that recovery saved
 00043C                             8368                       END
 00043C D703 B5B4 B5B4 005B4 005B4  8372                       CLEAR CPACHCT             Clear change count
                                    8379
                                    8380                       COMMENT                   SET PREFIX, IF APPROPRIATE
 000442 9180 BD52/47E0_00D52        8381                       IF    CPLFLG3.CPFSET,BEGIN
 00044A 58E0 75AC/0DEE       00630  8397  1                      VCALL SETPFXNS
 000450                             8401                       END
1NFILE    (NFIL2025) (12:49) (15MAR04) SAVE Command                                                                         Page   14
0Current Usings:  (FFINFO,R5) (SVWA,R6) (*,R7) (SVWA-(4+36),R8) (CP,R11) (CV,R12)
0Loc    Object Code    Addr1 Addr2  Stmt Lv Lineno    Source Statement           (Hibal 5, Asmedit 3.3)  HLASM R4.0  2004/03/15 12.49
+___    ______ ____    _____ _____  ____ __ ______    ______ _________
0                                   8405
                                    8406                       COMMENT                   DO CLEAR IF REQUESTED
 000450 9118 BD55/4780_00D55        8407                       IF    CPFCLEAR+CPFKEEP,BEGIN
 000458 9501 BD89/4770_00D89        8425  1                      IF    CPFRDACT,BEGIN
 000460 9140 6000/47E0_00000        8440  2                        IF    SVFRECOV,BEGIN
 000468 58E0 75B0/0DEE       00634  8455  3                          VCALL ACTRESET            Wipe them out - MPD
 00046E                             8459  2                        END
 00046E 73EE/47F0 73F4 0046E 00466  8463  2                        ELSE  BEGIN
 000472 58E0 75B4/0DEE       00638  8474  3                          VCALL CLRTEXT             Clear/Keep
 000478                             8478  2                        END
 000478                             8482  1                      END
 000478                             8486                       END
                                    8490
                                    8491                       COMMENT                   GIVE SAVED OK MESSAGE
                                    8492                       COMMENT                   ** DEBUG ** WINGS GENERATES MSG
                                    8493                       COMMENT                   ** DEBUG ** SHOULD NET AND SAM ??
 000478 9504 5000/4770_00000        8494                       IF    FFFNET,BEGIN        MSG FOR NET
 000480 58E0 7568/0DEE       005EC  8509  1                      VCALL SEGDSN
 000486 4110 75D7/4100_      0065B  8513  1                      SETMSG 'saved'
 00048E 9504 5001/4770_00001        8517  1                      IF    FFFAPPD,'SETMSG "appended"'
 00049E 41F0 B050/58E0_      00050  8541  1                      TSEG  (R1),(R0)
 0004A8 D503 74B8 508C_0053C 0008C  8565  1                      IF    (FFHOSTL,NE,0),BEGIN
 0004B2 4110 756C/4100_      005F0  8583  2                        TSEG  ' on '
 0004C4 4110 5090/5800_      00090  8601  2                        TSEG  FFHOST,L:FFHOSTL
 0004D6                             8629  1                      END
 0004D6                             8633                       END
 0004D6 9503 5000/4770_00000        8637                       IF    FFFSAM,BEGIN        MSG FOR SAM
 0004DE 58E0 75B8/0DEE       0063C  8652  1                      VCALL NRESOLVE            RESOLVE C: NAME
 0004E4 58E0 7568/0DEE       005EC  8656  1                      VCALL SEGDSN
 0004EA 4110 75D7/4100_      0065B  8660  1                      TSEG  'saved'
 0004FC D503 74B8 508C_0053C 0008C  8678  1                      IF    (FFHOSTL,NE,0),BEGIN
 000506 4110 756C/4100_      005F0  8696  2                        TSEG  ' on '
 000518 4110 5090/5800_      00090  8714  2                        TSEG  FFHOST,L:FFHOSTL
 00052A                             8742  1                      END
 00052A                             8746                       END
                                    8750
 00052A 47F0 C7DE            007DE  8751                       B     CVNEXT              ALL DONE
 00052E 18D8/9808 D004_             8752                       PEND  ,
 DROP   SVWA-(4+36),R8
 DROP   *,R7
                                    8777                       QLTORG
1NFILE    (NFIL2025) (12:49) (15MAR04) SAVE Command                                                                         Page   15
0Current Usings:  (FFINFO,R5) (SVWA,R6) (CP,R11) (CV,R12)
0Loc    Object Code    Addr1 Addr2  Stmt Lv Lineno    Source Statement           (Hibal 5, Asmedit 3.3)  HLASM R4.0  2004/03/15 12.49
+___    ______ ____    _____ _____  ____ __ ______    ______ _________
0                                   8847                       ¿þþþþþþþþþþþþþþþþÜ
                                    8848                       Ÿ  SAVE options  Ÿ
                                    8849                       ¾þþþþþþþþþþþþþþþþ»
 00066C D3C9D5C5E2404040_           8850              SAVEPRT  SCKW  LINES,SSNLINES,A
 000694 D3C9D5E240404040_           8865                       SCKW  LINS,SSNLINES,A
 0006BC C5E7C5C3E4E3C540_           8880                       SCKW  EXECUTE,V(SCNNOOP),A
 0006E4 D9C5D7D3C1C3C540_           8895                       SCKW  REPLACE,SSNREPL,A
 00070C C1D7D7C5D5C44040_           8910                       SCKW  APPEND,SSNAPPND,A
 000734 E2C3D9C1E3C3C840_           8925                       SCKW  SCRATCH,SSNREPL,A
 00075C D9C5C3D6E5C5D9E8_           8940                       SCKW  RECOVERY,SSNRECOV,A
 000784 D4E4D3E3C9D7D3C5_           8955                       SCKW  MULTIPLE,SSNRECOV,A
 0007AC D5D6C3D6D5C4C5D5_           8970                       SCKW  NOCONDENSE,SSNNCOND,A
 0007D4 E2C5E34040404040_           8985                       SCKW  SET,SSNSET
 0007FC D5D6E2C5E3404040_           9000                       SCKW  NOSET,SSNNOSET,A
 000824 4040404040404040_           9015                       SCKW  ,V(CLSCRPSH),PUSH
 00084C 4040404040404040_           9030                       SCKW  ,V(VERPSH),PUSH
 000874 4040404040404040_           9045                       SCKW  ,FNAMPSHS,PUSH
 00089C 4040404040404040_           9060                       SCKW  ,V(COLLPSH),PUSH
 0008C4 4040404040404040_           9075                       SCKW  ,V(QUIETPSH),PUSH
 0008EC 4040404040404040_           9090                       SCKW  ,V(SMSPSH),PUSH
                                    9105              *        SCKW  ,NREC,V(MATPARN)!!
 000914 4040404040404040_           9106                       SCKW  ,V(NOTVALID)
                                    9121
 00093C 50E0 D000/9008_      00000  9122              SSNLINES PROC  ,
 USING  *,R7
 000956 9180 6000/47E0_00000        9161                       IF    SVFLINES,BEGIN
 00095E 4110 768A/4100_      00FE0  9176  1                      ERROR 'LINES: invalid.  LINES specified twice.'
 00096A                             9183                       END
 00096A 9680 6000      00000        9187                       SET   SVFLINES
 00096E 58E0 75EA/0DEE       00F40  9193                       VCALL NDETRNG
 000974 1BFF                        9197                       CLEAR R15
 000976 18D8/9808 D004_             9201                       PEND  ,
 DROP   *,R7
                                    9221
 000984 50E0 D000/9008_      00000  9222              SSNREPL  PROC  ,
 USING  *,R7
 00099E 9208 5001      00001        9261                       SET   FFFREPL
 0009A2 9640 BD51      00D51        9267                       SET   CPLFLG2.CPFSCRTC    *** DEBUG *** NEEDED FOR SAM,NET
 0009A6 18D8/9808 D004_             9274                       PEND  ,
 DROP   *,R7
                                    9294
 0009B4 50E0 D000/9008_      00000  9295              SSNAPPND PROC  ,
 USING  *,R7
 0009CE 9204 5001      00001        9334                       SET   FFFAPPD
 0009D2 18D8/9808 D004_             9340                       PEND  ,
 DROP   *,R7
                                    9360
 0009E0 50E0 D000/9008_      00000  9361              SSNRECOV PROC  ,
 USING  *,R7
 0009FA 9610 BE28      00E28        9400                       SET   CPFXMULT
 0009FE 9640 6000      00000        9406                       SET   SVFRECOV
 000A02 18D8/9808 D004_             9412                       PEND  ,
 DROP   *,R7
                                    9432
1NFILE    (NFIL2025) (12:49) (15MAR04) SAVE Command                                                                         Page   16
0Current Usings:  (FFINFO,R5) (SVWA,R6) (*,R7) (CP,R11) (CV,R12)
0Loc    Object Code    Addr1 Addr2  Stmt Lv Lineno    Source Statement           (Hibal 5, Asmedit 3.3)  HLASM R4.0  2004/03/15 12.49
+___    ______ ____    _____ _____  ____ __ ______    ______ _________
0000A10 50E0 D000/9008_      00000  9433              SSNNCOND PROC  ,                   NO CONDENSE, HEY WINGS GET SMAR!
 USING  *,R7
 000A2A 9604 BE28      00E28        9472                       SET   CPFNCOND
 000A2E 18D8/9808 D004_             9478                       PEND
 DROP   *,R7
                                    9498
 000A3C 50E0 D000/9008_      00000  9499              SSNSET   PROC  ,
 USING  *,R7
 000A56 9680 BD52      00D52        9538                       SET   CPLFLG3.CPFSET
 000A5A 18D8/9808 D004_             9545                       PEND
 DROP   *,R7
                                    9565
 000A68 50E0 D000/9008_      00000  9566              SSNNOSET PROC  ,
 USING  *,R7
 000A82 947F BD52      00D52        9605                       CLEAR CPLFLG3.CPFSET
 000A86 18D8/9808 D004_             9613                       PEND
 DROP   *,R7
                                    9633
 DROP   SVWA,R6                     9634                       DROP  R6
 DROP   FFINFO,R5                   9641                       DROP  R5
1NFILE    (NFIL2025) (12:49) (15MAR04) SAVE Command                                                                         Page   17
0Current Usings:  (CP,R11) (CV,R12)
0Loc    Object Code    Addr1 Addr2  Stmt Lv Lineno    Source Statement           (Hibal 5, Asmedit 3.3)  HLASM R4.0  2004/03/15 12.49
+___    ______ ____    _____ _____  ____ __ ______    ______ _________
0                                   9649              ¿þþþþþþþþþþþþþþþþþþþþþþþþþþþþþþþþþþþþþþþþþþþþþþþþþþþþþþþþþþþþþþþþþþþþþÜ
                                    9650              Ÿ                                                                     Ÿ
                                    9651              Ÿ  SAVERTN -- SAVE CO-ROUTINE                                         Ÿ
                                    9652              Ÿ                                                                     Ÿ
                                    9653              Ÿ    ON ENTRY:                                                        Ÿ
                                    9654              Ÿ      R1,R0 - LINE LOCATION LENGTH                                   Ÿ
                                    9655              Ÿ      CPLCNO - LINE NUMBER                                           Ÿ
                                    9656              Ÿ                                                                     Ÿ
                                    9657              Ÿ                                                                     Ÿ
                                                      ¾þþþþþþþþþþþþþþþþþþþþþþþþþþþþþþþþþþþþþþþþþþþþþþþþþþþþþþþþþþþþþþþþþþþþþ»
0000A94 50E0 D000/9008_      00000  9658              SAVERTN  PROC  ,
 USING  *,R7
                                    9697
                                    9698                       COMMENT                   R1,R0 - LINE LOC,LEN
                                    9699                       COMMENT                   R2 - LINE NUMBER
 000AAE 5820 B73C            0073C  9700                       L     R2,CPLCNO
 000AB2 58E0 7496/0DEE       00F44  9701                       VCALL EXTWRITE            PUT LINE INTO I/O BUFFER, ETC.
                                    9705                       COMMENT                   RETURNS ONLY IF OK
 000AB8 18D8/9808 D004_             9706                       PEND
 DROP   *,R7
1NFILE    (NFIL2025) (12:49) (15MAR04) SAVE Command                                                                         Page   18
0Current Usings:  (CP,R11) (CV,R12)
0Loc    Object Code    Addr1 Addr2  Stmt Lv Lineno    Source Statement           (Hibal 5, Asmedit 3.3)  HLASM R4.0  2004/03/15 12.49
+___    ______ ____    _____ _____  ____ __ ______    ______ _________
0                                   9727              *
                                    9728              *
                                    9729              *  RSAVERTN - SAVE .. RECOVERY CO-ROUTINE
                                    9730              *
                                    9731              *    ON ENTRY:
                                    9732              *      R1,R0 - LINE LOCATION LENGTH
                                    9733              *      CPLCNO - LINE NUMBER
                                    9734              *
                                    9735              *  NOTE:
                                    9736              *  FOR SAVE RECOVERY WE ADD THE ACTUAL LINE NUMBER TO THE
                                    9737              *  START OF THE RECORD.  THE EXTERNAL LINE NUMBER IS JUST
                                    9738              *  SEQUENTIALLY UPDATED VALUE.
                                    9739              *
 000000                00000 001E6  9740              SRWA     RECORD BEGIN
 000000                             9748  1           SRR0       DS    F
 000004                             9749  1           SRR1       DS    F
                                    9750  1           SRLINE     DS    CL(2*&LINESZ+8)
 000008                                   1          +SRLINE     DS    CL(2*235+8)
 0001E6                001E6 001E6  9751                       END
                                    9760              *
                                    9761              *
 000AC6 50E0 D000/9008_      00000  9762              RSAVERTN PROC  SRWA,
 USING  *,R7
 USING  SRWA-(4+36),R8
 000AE0 5000 8028            00000  9812                       ST    R0,SRR0
 000AE4 5010 802C            00004  9813                       ST    R1,SRR1
                                    9814
 000AE8 5860 BCA4            00CA4  9815                       L     R6,CPCWA
 USING  SVWA,R6                     9816                       USING SVWA,R6
                                    9825
                                    9826                       COMMENT                   ADD LINE NUMBER TO START OF LINE
 000AEC 58F0 B73C            0073C  9827                       L     R15,CPLCNO
 000AF0 4110 8030            00008  9828                       LA    R1,SRLINE
 000AF4 4100 0008            00008  9829                       LA    R0,8
 000AF8 58E0 7468/0DEE       00F48  9830                       VCALL BTDZEROS
                                    9834                       COMMENT                   COPY LINE TEXT
 000AFE 4120 8038            00010  9835                       LA    R2,SRLINE+8
 000B02 5830 8028            00000  9836                       L     R3,SRR0
 000B06 5840 802C            00004  9837                       L     R4,SRR1
 000B0A 1853                        9838                       LR    R5,R3
 000B0C 0E24                        9839                       MVCL  R2,R4
                                    9840
                                    9841                       COMMENT                   R1,R0 - LINE LOC,LEN
 000B0E 4110 8030            00008  9842                       LA    R1,SRLINE           R2 - LINE NUMBER
 000B12 5800 8028            00000  9843                       L     R0,SRR0
 000B16 5A00 746C            00F4C  9844                       A     R0,=F'8'
 000B1A 4120 0001/5E20_      00001  9845                       INCR  R2,SVLINECT
 000B26 58E0 7464/0DEE       00F44  9851                       VCALL EXTWRITE            PUT LINE INTO I/O BUFFER, ETC.
                                    9855                       COMMENT                   RETURNS ONLY IF OK
 000B2C 18D8/9808 D004_             9856                       PEND
 DROP   SRWA-(4+36),R8
 DROP   *,R7
 DROP   SVWA,R6                     9881                       DROP  R6
1NFILE    (NFIL2025) (12:49) (15MAR04) SAVE Command                                                                         Page   19
0Current Usings:  (CP,R11) (CV,R12)
0Loc    Object Code    Addr1 Addr2  Stmt Lv Lineno    Source Statement           (Hibal 5, Asmedit 3.3)  HLASM R4.0  2004/03/15 12.49
+___    ______ ____    _____ _____  ____ __ ______    ______ _________
0                                   9889              *
                                    9890              *
                                    9891              *  SAVRECOV - DO RECOVERY SAVE OF MULTIPLE ACTIVE FILES
                                    9892              *
                                    9893              *  ON ENTRY:
                                    9894              *    R6 - SAVE WORK AREA         ** DEBUG **
                                    9895              *
                                    9896              *  WE SUPERIMPOSE, MULTIPLE FILES INTO ONE FILE
                                    9897              *  WE SAVE CURRENT ACTIVE FILE LAST
                                    9898              *
                                    9899              *
 000000                00000 00008  9900              SVRWA    RECORD BEGIN
 000000                             9908  1           SVROACT    DS    F                   ORIGINAL ACTIVE NUMBER
 000004                             9909  1           SVRCACT    DS    F                   CURRENT ACTIVE NUMBER
 000008                00008 00008  9910                       END
                                    9919              *
                                    9920              *
 000B3A 50E0 D000/9008_      00000  9921              SAVRECOV PROC  SVRWA
 USING  *,R7
 USING  SVRWA-(4+36),R8
 000B54 D707 8028 8028 00000 00000  9971                       CLEAR SVRWA
                                    9978
 USING  SVWA,R6                     9979                       USING  SVWA,R6
                                    9988
                                    9989                       COMMENT                   SAVE ORIGINAL ACT #
 000B5A 5810 B57C            0057C  9990                       L     R1,CPACTNO
 000B5E 5010 8028            00000  9991                       ST    R1,SVROACT
                                    9992
                                    9993                       COMMENT                   WRITE MULTIPLE FORMAT HDR
 000B62 4110 7460/4100_      00FB4  9994                       SETMSG '*CTL%%%%MULTIPLE FILE FORMAT VERSION 00.00'
 000B6A 4120 0001/5E20_      00001  9998                       INCR  R2,SVLINECT
 000B76 58E0 73F0/0DEE       00F44 10004                       VCALL EXTWRITE
                                   10008
                                   10009                       COMMENT                   COMMENT LOOP THRU ALL ACTS
 000B7C 4110 73D4            00F28 10010                       LA    R1,=CL8'TEXT'
 000B80 1BFF                       10011                       CLEAR R15
 000B82 58E0 73FC/0DEE       00F50 10015                       VCALL ACTNEXT
 000B88 4780 70A6            00BFA 10019                       WHILE NZ,BEGIN            WHILE MORE ACTS, LOOP
 000B8C 50F0 802C            00004 10032  1                      ST    R15,SVRCACT
 000B90 58E0 7400/0DEE       00F54 10033  1                      VCALL ACTPICK
 000B96 D603 B5AC B5AC_005AC 005AC 10037  1                      IF    (CPALNCT,NZ),BEGIN  IF LINES,,,
 000BA0 D503 802C 8028_00004 00000 10053  2                        IF    (SVRCACT,NE,SVROACT),BEGIN IF NOT ORIGINAL ACT ,,
                                   10071  3                          COMMENT                   SAVE ACTS
                                   10072  3                          COMMENT                   WRITE NEW ACT HDR
 000BAA 4110 74B3/4100_      01007 10073  3                          SETMSG '*CTL%%%%OPEN NEW ACTIVE'
 000BB2 4120 0001/5E20_      00001 10077  3                          INCR  R2,SVLINECT
 000BBE 58E0 73F0/0DEE       00F44 10083  3                          VCALL EXTWRITE
 000BC4 58E0 B08C/D7AF_      0008C 10087  3                          SCCLR ,
 000BD0 9610 BD50      00D50       10096  3                          SET   CPLFLG1.CPFALL
 000BD4 58E0 73EC/0DEE       00F40 10103  3                          VCALL NDETRNG
                                   10107  3                          COMMENT                   SAVE ACT
 000BDA 5800 7404/5810_      00F58 10108  3                          RDRNG RSAVERTN,(DESRTRN+LOCATRTN+UNPRST)
 000BE8                            10115  2                        END
 000BE8                            10119  1                      END
1NFILE    (NFIL2025) (12:49) (15MAR04) SAVE Command                                                                         Page   20
0Current Usings:  (SVWA,R6) (*,R7) (SVRWA-(4+36),R8) (CP,R11) (CV,R12)
0Loc    Object Code    Addr1 Addr2  Stmt Lv Lineno    Source Statement           (Hibal 5, Asmedit 3.3)  HLASM R4.0  2004/03/15 12.49
+___    ______ ____    _____ _____  ____ __ ______    ______ _________
0000BE8 4110 73D4            00F28 10123  1                      LA    R1,=CL8'TEXT'
 000BEC 58F0 802C            00004 10124  1                      L     R15,SVRCACT
 000BF0 58E0 73FC/0DEE       00F50 10125  1                      VCALL ACTNEXT             POINT TO NEXT ACT, LOOP
 000BF6 47F0 7034            00B88 10129                       END
                                   10134
                                   10135                       COMMENT                   SAVE CURRENT ACT
 000BFA 58F0 8028            00000 10136                       L     R15,SVROACT
 000BFE 58E0 7400/0DEE       00F54 10137                       VCALL ACTPICK
 000C04 D603 B5AC B5AC_005AC 005AC 10141                       IF    (CPALNCT,NZ),BEGIN  IF LINES,,,
                                   10157  1                      COMMENT                   SAVE ACTS
                                   10158  1                      COMMENT                   WRITE NEW ACT HDR
 000C0E 4110 74B3/4100_      01007 10159  1                      SETMSG '*CTL%%%%OPEN NEW ACTIVE'
 000C16 4120 0001/5E20_      00001 10163  1                      INCR  R2,SVLINECT
 000C22 58E0 73F0/0DEE       00F44 10169  1                      VCALL EXTWRITE
 000C28 58E0 B08C/D7AF_      0008C 10173  1                      SCCLR ,
 000C34 9610 BD50      00D50       10182  1                      SET   CPLFLG1.CPFALL
 000C38 58E0 73EC/0DEE       00F40 10189  1                      VCALL NDETRNG
                                   10193  1                      COMMENT                   SAVE ACT
 000C3E 5800 7404/5810_      00F58 10194  1                      RDRNG RSAVERTN,(DESRTRN+LOCATRTN+UNPRST)
 000C4C                            10201                       END
                                   10205
 000C4C 18D8/9808 D004_            10206                       PEND  ,
 DROP   SVRWA-(4+36),R8
 DROP   *,R7
 DROP   SVWA,R6                    10231                       DROP  R6
1NFILE    (NFIL2025) (12:49) (15MAR04) SAVE Command                                                                         Page   21
0Current Usings:  (CP,R11) (CV,R12)
0Loc    Object Code    Addr1 Addr2  Stmt Lv Lineno    Source Statement           (Hibal 5, Asmedit 3.3)  HLASM R4.0  2004/03/15 12.49
+___    ______ ____    _____ _____  ____ __ ______    ______ _________
0                                  10239              *
                                   10240              *
                                   10241              *  REPOPEN - ASK IF OK TO REPLACE EXISTING FILE
                                   10242              *
                                   10243              *  IF USER SAYS 'OK TO REPLACE' WE SET THE REPLACE OPTION
                                   10244              *  AND TRY TO OPEN AGAIN.  THIS ROUTINE APPLIES ONLY TO WINGS
                                   10245              *  FILE SYSTEM.
                                   10246              *
                                   10247              *
 000C5A 50E0 D000/9008_      00000 10248              REPOPEN  PROC  ,
 USING  *,R7
 000C74 5860 BE54            00E54 10287                       L     R6,CPFINFOP
 USING  FFINFO,R6                  10288                       USING FFINFO,R6
                                   10297
                                   10298                       COMMENT                   ASK -- OK to replace
 000C78 4110 73AA/4100_      0101E 10299                       SETMSG 'OK to replace'
 000C80 58E0 72F0/0DEE       00F64 10303                       VCALL YESREQ
                                   10307
                                   10308                       COMMENT                   SET REPLACE OPTION
 000C86 9208 6001      00001       10309                       SET   FFFREPL
                                   10315
                                   10316                       COMMENT                   TRY AGAIN
 000C8A 58E0 72F4/0DEE       00F68 10317                       VCALL EXTOPEN
                                   10321
 000C90 18D8/9808 D004_            10322                       PEND  ,
 DROP   *,R7
 DROP   FFINFO,R6                  10342                       DROP  R6
1NFILE    (NFIL2025) (12:49) (15MAR04) SAVE Command                                                                         Page   22
0Current Usings:  (CP,R11) (CV,R12)
0Loc    Object Code    Addr1 Addr2  Stmt Lv Lineno    Source Statement           (Hibal 5, Asmedit 3.3)  HLASM R4.0  2004/03/15 12.49
+___    ______ ____    _____ _____  ____ __ ______    ______ _________
0                                  10350              *
                                   10351              *
                                   10352              *  ACSSOPEN - SPECIAL ACCESS OPEN
                                   10353              *
                                   10354              *  USER HAS SPECIAL ACCESS TO THIS FILE (EG. SET ACCT ..  PASS..)
                                   10355              *  SO WE OPEN THE FILE WITH 'ACCESS=YES' FLAG.
                                   10356              *
                                   10357              *
 000C9E 50E0 D000/9008_      00000 10358              ACSSOPEN PROC  ,
 USING  *,R7
 000CB8 5860 BE54            00E54 10397                       L     R6,CPFINFOP
 USING  FFINFO,R6                  10398                       USING FFINFO,R6
                                   10407
                                   10408                       COMMENT                   SET NORACF ACCESS OPTION
 000CBC 9610 6002      00002       10409                       SET   FFFNRACF
                                   10415
                                   10416                       COMMENT                   TRY AGAIN
 000CC0 58E0 72B0/0DEE       00F68 10417                       VCALL EXTOPEN
                                   10421
 000CC6 18D8/9808 D004_            10422                       PEND  ,
 DROP   *,R7
 DROP   FFINFO,R6                  10442                       DROP  R6
1NFILE    (NFIL2025) (12:49) (15MAR04) SAVE Command                                                                         Page   23
0Current Usings:  (CP,R11) (CV,R12)
0Loc    Object Code    Addr1 Addr2  Stmt Lv Lineno    Source Statement           (Hibal 5, Asmedit 3.3)  HLASM R4.0  2004/03/15 12.49
+___    ______ ____    _____ _____  ____ __ ______    ______ _________
0                                  10450              *
                                   10451              *
                                   10452              *  GETPASSW - WE NEED PASSWORD TO ACCESS THIS FILE
                                   10453              *
                                   10454              *  THIS ROUTINE ASKS USER FOR (MAINFRAME) PASSWORD.  IF USER
                                   10455              *  KNOWS PASSWORD, THIS ROUTINE SETS THE APPROPRIATE FLAG
                                   10456              *  IN THE FFINFO BLOCK.
                                   10457              *  THIS ROUTINE APPLIES ONLY TO WINGS *  FILE SYSTEM.
                                   10458              *
                                   10459              *  ON ENTRY:
                                   10460              *  'NOT YOURS' MSG IS TSEG'D.  WE DECIDE WHETHER TO PURGE
                                   10461              *  OR PRINT TSEG'D MSG BELOW.
                                   10462              *
                                   10463              *  NOTE:
                                   10464              *  IF 'SET ACCOUNT ... PASS ...' OWNS DATA SET WE DO NOT
                                   10465              *  ISSUE ERROR MSG, AND DO *NOT* PROMPT FOR PASSWORD.
                                   10466              *
                                   10467              *  NOTE:
                                   10468              *  IF NO ACCOUNT ASSOCIATED WITH THE DATA SET, THEN
                                   10469              *  WE PROMPT FOR THE ACCOUNT GS.WYL.  WHICH ONLY SYSTEMS
                                   10470              *  TYPES CAN GUESS.  YES!
                                   10471              *
                                   10472              *
 000000                00000 001F8 10473              GETPWWA  RECORD BEGIN
 000000                            10481  1           GETPWKWR   DS    XL(L'KWR)
 0001F8                001F8 001F8 10482                       END
                                   10491              *
                                   10492              *
 000CD4 50E0 D000/9008_      00000 10493              GETPASSW PROC  GETPWWA
 USING  *,R7
 USING  GETPWWA-(4+36),R8
 000CEE 5860 BE54            00E54 10543                       L     R6,CPFINFOP
 USING  FFINFO,R6                  10544                       USING FFINFO,R6
                                   10553
                                   10554                       COMMENT                   IF NOT WINGS, ERR
                                   10555                       COMMENT ,                 (IE. NO 'NOTYOURS' FOR NET,
 000CF2 9501 6000/4780_00000       10556                       IF    ~FFFWINGS,BEGIN      SAMSON, ETC.)
 000CFA 47F0 C7D6            007D6 10571  1                      B     CVERROR
 000CFE                            10572                       END
                                   10576
                                   10577                       COMMENT                   SET UP KWR
 000CFE 4140 8028            00000 10578                       LA    R4,GETPWKWR
 USING  KWR,R4                     10579                       USING KWR,R4
 000D02 D7FF 4000 4000_00000 00000 10588                       CLEAR KWR
                                   10596
                                   10597                       COMMENT                   SET ACCOUNT FROM DATA SET NAME
 000D0E 58E0 727E/0DEE       00F6C 10598                       ACALL NRESOLVE            GET FULL NAME
 000D14 4110 6218/5800_      00218 10602                       SETMSG FFRNAME,L:FFRNAMEL
                                   10616            C          IF    ((R0,GT,11),AND,(@R1,EQ,'WYL.'),AND,
 000D1C 5900 7282/47D0_      00F70                                   (@R1+6,EQ,'.'),AND,(@R1+10,EQ,'.')),BEGIN
 000D3E D201 4003 1004 00003 00004 10674  1                      MVC   KWRGRP,@R1+4        SET DATA SET ACCOUNT
 000D44 D202 4000 1007 00000 00007 10675  1                      MVC   KWRUSER,@R1+7
 000D4A                            10676                       END
 000D4A 7060/7060/7060_00D4A 00D22 10680                       ELSE  BEGIN               SET DEFAULT OWNER ACCOUT
1NFILE    (NFIL2025) (12:49) (15MAR04) SAVE Command                                                                         Page   24
0Current Usings:  (KWR,R4) (FFINFO,R6) (*,R7) (GETPWWA-(4+36),R8) (CP,R11) (CV,R12)
0Loc    Object Code    Addr1 Addr2  Stmt Lv Lineno    Source Statement           (Hibal 5, Asmedit 3.3)  HLASM R4.0  2004/03/15 12.49
+___    ______ ____    _____ _____  ____ __ ______    ______ _________
0000D4E D201 4003 72F0 00003 00FDE 10697  1                      MVC   KWRGRP,=CL2'GS'
 000D54 D202 4000 733D 00000 0102B 10698  1                      MVC   KWRUSER,=CL3'WYL'
 000D5A                            10699                       END
                                   10703
                                   10704                       COMMENT                   CHECK PASSWORD
 000D5A 1B00                       10705                       CLEAR R0                  GETKWR OPTION
 000D5C 4110 4000            00000 10709                       LA    R1,KWR
 000D60 58E0 728A/0DEE       00F78 10710                       VCALL GETKWR
 000D66 1BFF                       10714                       CLEAR R15                 RETURNS ONLY IF OK
                                   10718
                                   10719                       COMMENT                   IF PASSWORD OK, ADD TO OPTIONS
 000D68 9680 6002      00002       10720                       SET   FFFPASSW            PASSWORD IS OK
                                   10726
 000D6C 18D8/9808 D004_            10727                       PEND  ,
 DROP   GETPWWA-(4+36),R8
 DROP   *,R7
 DROP   FFINFO,R6                  10752                       DROP  R6
 DROP   KWR,R4                     10759                       DROP  R4
1NFILE    (NFIL2025) (12:49) (15MAR04) SAVE Command                                                                         Page   25
0Current Usings:  (CP,R11) (CV,R12)
0Loc    Object Code    Addr1 Addr2  Stmt Lv Lineno    Source Statement           (Hibal 5, Asmedit 3.3)  HLASM R4.0  2004/03/15 12.49
+___    ______ ____    _____ _____  ____ __ ______    ______ _________
0                                  10767              *
                                   10768              *
                                   10769              *  PASSOPEN - WE NEED PASSWORD TO OPEN THIS FILE
                                   10770              *
                                   10771              *  THIS ROUTINE ASKS USER FOR (MAINFRAME) PASSWORD.  IF USER
                                   10772              *  KNOWS PASSWORD, WE WILL TRY AGAIN TO OPEN FILE WITH
                                   10773              *  PASSWORD=OK OPTION.  THIS ROUTINE APPLIES ONLY TO WINGS
                                   10774              *  FILE SYSTEM.
                                   10775              *
                                   10776              *  ON ENTRY:
                                   10777              *  'NOT YOURS' MSG IS TSEG'D.  WE DECIDE WHETHER TO PURGE
                                   10778              *  OR PRINT TSEG'D MSG BELOW.
                                   10779              *
                                   10780              *  NOTE:
                                   10781              *  IF 'SET ACCOUNT ... PASS ...' OWNS DATA SET WE DO NOT
                                   10782              *  ISSUE ERROR MSG, AND DO *NOT* PROMPT FOR PASSWORD.
                                   10783              *
                                   10784              *  NOTE:
                                   10785              *  IF NO ACCOUNT ASSOCIATED WITH THE DATA SET, THEN
                                   10786              *  WE PROMPT FOR THE ACCOUNT GS.WYL.  WHICH ONLY SYSTEMS
                                   10787              *  TYPES CAN GUESS.  YES!
                                   10788              *
                                   10789              *
 000000                00000 001F8 10790              PWWA     RECORD BEGIN
 000000                            10798  1           PWKWR      DS    XL(L'KWR)
 0001F8                001F8 001F8 10799                       END
                                   10808              *
                                   10809              *
 000D7A 50E0 D000/9008_      00000 10810              PASSOPEN PROC  PWWA
 USING  *,R7
 USING  PWWA-(4+36),R8
 000D94 5860 BE54            00E54 10860                       L     R6,CPFINFOP
 USING  FFINFO,R6                  10861                       USING FFINFO,R6
                                   10870
                                   10871                       COMMENT                   IF NOT WINGS, ERR
                                   10872                       COMMENT ,                 (IE. NO 'NOTYOURS' FOR NET,
 000D98 9501 6000/4780_00000       10873                       IF    ~FFFWINGS,BEGIN      SAMSON, ETC.)
 000DA0 47F0 C7D6            007D6 10888  1                      B     CVERROR
 000DA4                            10889                       END
                                   10893
 000DA4 9140 B474/47E0_00474       10894                       IF    CPFRCVY,BEGIN       SKIP IF DOING RECOVERY
 000DAC 47F0 C7D6            007D6 10909  1                      B     CVERROR
 000DB0                            10910                       END
                                   10914
                                   10915                       COMMENT                   SET UP KWR
 000DB0 4140 8028            00000 10916                       LA    R4,PWKWR
 USING  KWR,R4                     10917                       USING KWR,R4
 000DB4 D7FF 4000 4000_00000 00000 10926                       CLEAR KWR
                                   10934
                                   10935                       COMMENT                   SET ACCOUNT FROM DATA SET NAME
 000DC0 58E0 71D8/0DEE       00F6C 10936                       ACALL NRESOLVE            GET FULL NAME
 000DC6 4110 6218/5800_      00218 10940                       SETMSG FFRNAME,L:FFRNAMEL
                                   10954            C          IF    ((R0,GT,11),AND,(@R1,EQ,'WYL.'),AND,
 000DCE 5900 71DC/47D0_      00F70                                   (@R1+6,EQ,'.'),AND,(@R1+10,EQ,'.')),BEGIN
1NFILE    (NFIL2025) (12:49) (15MAR04) SAVE Command                                                                         Page   26
0Current Usings:  (KWR,R4) (FFINFO,R6) (*,R7) (PWWA-(4+36),R8) (CP,R11) (CV,R12)
0Loc    Object Code    Addr1 Addr2  Stmt Lv Lineno    Source Statement           (Hibal 5, Asmedit 3.3)  HLASM R4.0  2004/03/15 12.49
+___    ______ ____    _____ _____  ____ __ ______    ______ _________
0000DF0 D201 4003 1004 00003 00004 11012  1                      MVC   KWRGRP,@R1+4        SET DATA SET ACCOUNT
 000DF6 D202 4000 1007 00000 00007 11013  1                      MVC   KWRUSER,@R1+7
 000DFC                            11014                       END
 000DFC 706C/706C/706C_00DFC 00DD4 11018                       ELSE  BEGIN               SET DEFAULT OWNER ACCOUT
 000E00 D201 4003 724A 00003 00FDE 11035  1                      MVC   KWRGRP,=CL2'GS'
 000E06 D202 4000 7297 00000 0102B 11036  1                      MVC   KWRUSER,=CL3'WYL'
 000E0C                            11037                       END
                                   11041
                                   11042                       COMMENT                   CHECK PASSWORD
 000E0C 1B00                       11043                       CLEAR R0                  GETKWR OPTION
 000E0E 4110 4000            00000 11047                       LA    R1,KWR
 000E12 58E0 71E4/0DEE       00F78 11048                       VCALL GETKWR
 000E18 1BFF                       11052                       CLEAR R15                 RETURNS ONLY IF OK
                                   11056
                                   11057                       COMMENT                   IF PASSWORD OK, ADD TO OPTIONS
 000E1A 9680 6002      00002       11058                       SET   FFFPASSW            PASSWORD IS OK
                                   11064
                                   11065                       COMMENT                   TRY AGAIN
 000E1E 58E0 71D4/0DEE       00F68 11066                       VCALL EXTOPEN
                                   11070
 000E24 18D8/9808 D004_            11071                       PEND  ,
 DROP   PWWA-(4+36),R8
 DROP   *,R7
 DROP   FFINFO,R6                  11096                       DROP  R6
 DROP   KWR,R4                     11103                       DROP  R4
1NFILE    (NFIL2025) (12:49) (15MAR04) SAVE Command                                                                         Page   27
0Current Usings:  (CP,R11) (CV,R12)
0Loc    Object Code    Addr1 Addr2  Stmt Lv Lineno    Source Statement           (Hibal 5, Asmedit 3.3)  HLASM R4.0  2004/03/15 12.49
+___    ______ ____    _____ _____  ____ __ ______    ______ _________
0                                  11111              *
                                   11112              *
                                   11113              *  DIFFOPEN - ASK IF OK TO SAVE ON DIFFERENT VOLUME
                                   11114              *
                                   11115              *  IF USER SAYS 'OK TO USE OTHER -VOLUME- WE LET WINGS TRY TO
                                   11116              *  SAVE (BUT NOT CAT) FILE.  THIS ROUTINE APPLIES ONLY TO WINGS
                                   11117              *  FILE SYSTEM.
                                   11118              *
                                   11119              *
 000E32 50E0 D000/9008_      00000 11120              DIFFOPEN PROC  ,
 USING  *,R7
 000E4C 5860 BE54            00E54 11159                       L     R6,CPFINFOP
 USING  FFINFO,R6                  11160                       USING FFINFO,R6
                                   11169
 000E50 9140 B474/4710_00474       11170                       IF    ~CPFRCVY,BEGIN
                                   11185  1                      COMMENT                   ASK -- OK to replace
 000E58 4110 7130/4100_      00F7C 11186  1                      TSEG  'Do you want to save '
 000E6A 4110 6090/5800_      00090 11204  1                      TSEG  FFHOST,L:FFHOSTL
 000E7C 4110 71E2/4100_      0102E 11232  1                      SETMSG ' anyway'
 000E84 58E0 7148/0DEE       00F94 11236  1                      VCALL YESRTN
 000E8A 4780 7058            00EA4 11240  1                      IF    NZ,BEGIN
 000E8E 4110 70E4/4100_      00F30 11251  2                        TSEG  'No action taken.'
 000EA0 47F0 C7DE            007DE 11269  2                        B     CVNEXT
 000EA4                            11270  1                      END
 000EA4                            11274                       END
                                   11278
                                   11279                       COMMENT                   SET REPLACE OPTION
 000EA4 9640 6002      00002       11280                       SET   FFFDIFFV
                                   11286
                                   11287                       COMMENT                   TRY AGAIN
 000EA8 58E0 711C/0DEE       00F68 11288                       VCALL EXTOPEN
                                   11292
 000EAE 18D8/9808 D004_            11293                       PEND  ,
 DROP   *,R7
 DROP   FFINFO,R6                  11313                       DROP  R6
                                   11320
1NFILE    (NFIL2025) (12:49) (15MAR04) SAVE Command                                                                         Page   28
0Current Usings:  (CP,R11) (CV,R12)
0Loc    Object Code    Addr1 Addr2  Stmt Lv Lineno    Source Statement           (Hibal 5, Asmedit 3.3)  HLASM R4.0  2004/03/15 12.49
+___    ______ ____    _____ _____  ____ __ ______    ______ _________
0                                  11322              *
                                   11323              *
                                   11324              *  CFMTOPEN - ASK IF OK TO CHANGE DATA SET FORMAT
                                   11325              *
                                   11326              *  IF USER SAYS 'OK TO CHANGE DATA SET FORMAT' LET WINGS CHANGE
                                   11327              *  THE DATA SET FORMANT.  THIS ROUTINE APPLIES ONLY TO WINGS
                                   11328              *  FILE SYSTEM.
                                   11329              *
                                   11330              *
 000EBC 50E0 D000/9008_      00000 11331              CFMTOPEN PROC  ,
 USING  *,R7
 000ED6 5860 BE54            00E54 11370                       L     R6,CPFINFOP
 USING  FFINFO,R6                  11371                       USING FFINFO,R6
                                   11380
 000EDA 9140 B474/4710_00474       11381                       IF    ~CPFRCVY,BEGIN
                                   11396  1                      COMMENT                   ASK -- OK to change
 000EE2 4110 70C2/4100_      00F98 11397  1                      SETMSG 'OK to change data set format'
 000EEA 58E0 70BE/0DEE       00F94 11401  1                      VCALL YESRTN
 000EF0 4780 7034            00F0A 11405  1                      IF    NZ,BEGIN
 000EF4 4110 705A/4100_      00F30 11416  2                        TSEG  'No action taken.'
 000F06 47F0 C7DE            007DE 11434  2                        B     CVNEXT
 000F0A                            11435  1                      END
 000F0A                            11439                       END
                                   11443
                                   11444                       COMMENT                   SET REPLACE OPTION
 000F0A 9620 6002      00002       11445                       SET   FFFCHFMT
                                   11451
                                   11452                       COMMENT                   TRY AGAIN
 000F0E 58E0 7092/0DEE       00F68 11453                       VCALL EXTOPEN
                                   11457
 000F14 18D8/9808 D004_            11458                       PEND  ,
 DROP   *,R7
 DROP   FFINFO,R6                  11478                       DROP  R6
                                   11485
                                   11486                       QLTORG
1NFILE    (NFIL2025) (12:49) (15MAR04) SAVE Command                                                                         Page   29
0Current Usings:  (CP,R11) (CV,R12)
0Loc    Object Code    Addr1 Addr2  Stmt Lv Lineno    Source Statement           (Hibal 5, Asmedit 3.3)  HLASM R4.0  2004/03/15 12.49
+___    ______ ____    _____ _____  ____ __ ______    ______ _________
0                                  11527              *
                                   11528              *
                                   11529              *   USE COMMAND
                                   11530              *
                                   11531              *
                                   11532              *
 000000                00000 0000D 11533              USEWA    RECORD BEGIN
 000000                            11541  1           USESKIP    DS    F
 000004                            11542  1           USECOUNT   DS    F
 000008                            11543  1           USETCNT    DS    F
 00000C 00                         11544  1           USEFLAG1   FLAG  ,
 USEFLAG1.USEFRECO 80 ONES         11548  1                      FLAG  USEFRECOV           RECOVERY
 USEFLAG1.USEFNOCT 40 ONES         11553  1                      FLAG  USEFNOCTL           SKIP *CTL%%%% DIRECTIVES
 00000D                0000D 0000D 11558                       END
                                   11567              *
                                   11568              *
 001036 50E0 D000/9008_      00000 11569              USE      XPROC USEWA
 USING  *,R7
 USING  USEWA-(4+36),R8
                                   11620
 001050 4160 8028            00000 11621                       LA    R6,USEWA
 USING  USEWA,R6                   11622                       USING USEWA,R6
 001054 5060 BCA4            00CA4 11631                       ST    R6,CPCWA
 001058 D70C 6000 6000 00000 00000 11632                       CLEAR USEWA
                                   11639
 00105E 58E0 78D0/0DEE       01920 11640                       ACALL MKFFINFO
 001064 5850 BE54            00E54 11644                       L     R5,CPFINFOP
 USING  FFINFO,R5                  11645                       USING FFINFO,R5
 001068 9201 5001      00001       11654                       SET   FFFREAD
                                   11660
                                   11661                       COMMENT                   SET SOME DEFAULTS
 00106C 9680 BD52      00D52       11662                       SET   CPLFLG3.CPFSET
                                   11669
                                   11670                       COMMENT                   SCAN DATA SET NAME
 001070 58E0 78D4/0DEE       01924 11671                       VCALL DOFNAME
                                   11675
                                   11676                       COMMENT                   SCAN 'USE ...' OPTIONS
 001076 5810 B08C/1B00_      0008C 11677                       SCAN  USEPRT
 0010C8 58E0 78E0/0DEE       01930 11709                       SCANCHK
                                   11714
                                   11715                       COMMENT                   FINISH FILE NAME PROCESSING
 0010CE 58E0 78E4/0DEE       01934 11716                       VCALL FNAMEFIN
                                   11720
                                   11721                       COMMENT                   VALIDITY CHECK SOME OPTIONS
 0010D4 9180 600C/47E0_0000C       11722                       IF    USEFRECOV,BEGIN
 0010DC D503 78B0 6000_01900 00000 11737  1                      IF    (USESKIP,NE,0),BEGIN
 0010E6 4110 7A2A/4100_      01A7A 11755  2                        ERROR 'RECOVERY and SKIP options are incompatible.'
 0010F2                            11762  1                      END
 0010F2 D503 78B0 6004_01900 00004 11766  1                      IF    (USECOUNT,NE,0),BEGIN
 0010FC 4110 78E8/4100_      01938 11784  2                        ERROR 'RECOVERY and COUNT options are incompatible.'
 001108                            11791  1                      END
 001108                            11795                       END
                                   11799                       COMMENT                   WE IGNORE ALL FORMAT OPTIONS
                                   11800                       COMMENT                   YES OR NO ??
1NFILE    (NFIL2025) (12:49) (15MAR04) SAVE Command                                                                         Page   30
0Current Usings:  (FFINFO,R5) (USEWA,R6) (*,R7) (USEWA-(4+36),R8) (CP,R11) (CV,R12)
0Loc    Object Code    Addr1 Addr2  Stmt Lv Lineno    Source Statement           (Hibal 5, Asmedit 3.3)  HLASM R4.0  2004/03/15 12.49
+___    ______ ____    _____ _____  ____ __ ______    ______ _________
0                                  11801
                                   11802                       COMMENT                   CLEAR CURRENT ACTIVE,
 001108 58E0 7914/0DEE       01964 11803                       VCALL CLRTEXT
                                   11807
                                   11808                       COMMENT                   OPEN EXTERNAL FILE
 00110E 58E0 7918/0DEE       01968 11809                       VCALL EXTOPEN
                                   11813
                                   11814                       COMMENT                   IF ERROR, RETRY OPEN ,,
 001114 12FF/4780 70CE             11815                       IF    (R15,NZ),BEGIN
 00111A 47F0 C7D6            007D6 11829  1                      B     CVERROR
 00111E                            11830                       END
                                   11834
                                   11835                       COMMENT                   SET SOME DEFAULTS
                                   11836                       COMMENT                   READ IN EXTERNAL RANGE
 00111E 9610 BD50      00D50       11837                       SET   CPLFLG1.CPFALL
 001122 9203 BD89      00D89       11844                       SET   CPFRDEXT
 001126 58E0 B08C/D7AF_      0008C 11850                       SCCLR ,
 001132 58E0 791C/0DEE       0196C 11859                       VCALL NDETRNG
 001138 9620 BD54      00D54       11863                       SET   CPLFLG5.CPFNLST
 00113C 9640 BD57      00D57       11870                       SET   CPFNCUR
 001140 9608 BE28      00E28       11876                       SET   CPFXALL
 001144 9505 5000/4780_00000       11882                       IF    ~FFFOLD,BEGIN
 00114C 9180 B8A9/47E0_008A9       11897  1                      IF    (CPFAUSE),BEGIN     Auto recovery not abortable
 001154 5800 7920/5810_      01970 11912  2                        RDRNG USERTN,(DESRTRN+LXCATRTN)
 001162                            11919  1                      END
 001162 7116/47F0 7124 01162 01152 11923  1                      ELSE  BEGIN
 001166 5800 792C/5810_      0197C 11934  2                        RDRNG USERTN,(DESABORT+DESRTRN+LXCATRTN)
 001174                            11941  1                      END
 001174                            11945                       END
 001174 7128/47F0 713E_01174 0114A 11949                       ELSEIF FFFOLD,BEGIN
 001180 5800 792C/5810_      0197C 11973  1                      RDRNG OLDRTN,(DESABORT+DESRTRN+LXCATRTN)
 00118E                            11980                       END
                                   11984
                                   11985                       COMMENT                   IF ATTENTION HIT ,,,
 00118E 12FF/4780 7154             11986                       IF    (R15,NZ),BEGIN
 001194 58E0 7934/0DEE       01984 12000  1                      VCALL EXTCLOSE
 00119A 58E0 7938/0DEE       01988 12004  1                      VCALL LASTLINE SHOW LAST LINE NUMBER
 0011A0 47F0 C7DA            007DA 12008  1                      B     CVABORT
 0011A4                            12009                       END
                                   12013
                                   12014                       COMMENT                   CLOSE FILE
 0011A4 58E0 7934/0DEE       01984 12015                       VCALL EXTCLOSE
 0011AA 12FF/4780 7164             12019                       IF    (R15,NZ),BEGIN
 0011B0 47F0 C7D6            007D6 12033  1                      B     CVERROR
 0011B4                            12034                       END
                                   12038
                                   12039                       COMMENT                   CHECK LINES READ
 0011B4 D503 78B0 6000_01900 00000 12040                       IF    (USESKIP,GT,0),BEGIN
 0011BE D503 6008 6000_00008 00000 12058  1                      IF    (USETCNT,LE,USESKIP),BEGIN
 0011C8 5820 6008            00008 12076  2                        L     R2,USETCNT
 0011CC 1812/1B00/41F0_            12077  2                        TNUM  (R2)
 0011DA 4110 797E/4100_      019CE 12099  2                        ERROR ' lines found, skip count too high.'
 0011E6                            12106  1                      END
 0011E6                            12110                       END
1NFILE    (NFIL2025) (12:49) (15MAR04) SAVE Command                                                                         Page   31
0Current Usings:  (FFINFO,R5) (USEWA,R6) (*,R7) (USEWA-(4+36),R8) (CP,R11) (CV,R12)
0Loc    Object Code    Addr1 Addr2  Stmt Lv Lineno    Source Statement           (Hibal 5, Asmedit 3.3)  HLASM R4.0  2004/03/15 12.49
+___    ______ ____    _____ _____  ____ __ ______    ______ _________
0                                  12114
 0011E6 47F0 C7DE            007DE 12115                       B     CVNEXT
                                   12116
 0011EA 18D8/9808 D004_            12117                       PEND  ,
 DROP   USEWA-(4+36),R8
 DROP   *,R7
 DROP   FFINFO,R5                  12142                       DROP  R5
1NFILE    (NFIL2025) (12:49) (15MAR04) SAVE Command                                                                         Page   32
0Current Usings:  (USEWA,R6) (CP,R11) (CV,R12)
0Loc    Object Code    Addr1 Addr2  Stmt Lv Lineno    Source Statement           (Hibal 5, Asmedit 3.3)  HLASM R4.0  2004/03/15 12.49
+___    ______ ____    _____ _____  ____ __ ______    ______ _________
0                                  12150              *
                                   12151              *  USE SCKW STUFF
                                   12152              *
 0011F8 E2D2C9D740404040_          12153              USEPRT   SCKW  SKIP,USNSKIP,(A,P,PI),99999999
 001220 C3D6E4D5E3404040_          12168                       SCKW  COUNT,USNCOUNT,(A,P,PI),99999
 001248 D9C5C3D6E5C5D9E8_          12183                       SCKW  RECOVERY,USNRECOV,A
 001270 D4E4D3E3C9D7D3C5_          12198                       SCKW  MULTIPLE,USNRECOV,A
 001298 D5D6C3C1E3C1D3D6_          12213                       SCKW  NOCATALOG,USNICAT,A
 0012C0 D5D6C3D6D5E3D9D6_          12228                       SCKW  NOCONTROL,USNOCTL,A
 0012E8 C4E2D6D9C7404040_          12243                       SCKW  DSORG,USNIDS,(P,A)
 001310 E2C5E34040404040_          12258                       SCKW  SET,USSET
 001338 D5D6E2C5E3404040_          12273                       SCKW  NOSET,USNOSET,A
 001360 4040404040404040_          12288                       SCKW  ,V(CLRPSH),PUSH
 001388 4040404040404040_          12303                       SCKW  ,V(FNAMPSHF),PUSH
 0013B0 4040404040404040_          12318                       SCKW  ,V(QUIETPSH),PUSH
 0013D8 4040404040404040_          12333                       SCKW  ,V(NOTVALID)
                                   12348
 001400 50E0 D000/9008_      00000 12349              USNSKIP  PROC  ,
 USING  *,R7
 00141A 5000 6000            00000 12388                       ST    R0,USESKIP
 00141E 18D8/9808 D004_            12389                       PEND  ,
 DROP   *,R7
                                   12409
 00142C 50E0 D000/9008_      00000 12410              USNCOUNT PROC  ,
 USING  *,R7
 001446 5000 6004            00004 12449                       ST    R0,USECOUNT
 00144A 18D8/9808 D004_            12450                       PEND  ,
 DROP   *,R7
                                   12470
 001458 50E0 D000/9008_      00000 12471              USNRECOV PROC  ,
 USING  *,R7
 001472 9680 600C      0000C       12510                       SET   USEFRECOV
 001476 18D8/9808 D004_            12516                       PEND  ,
 DROP   *,R7
                                   12536
 001484 50E0 D000/9008_      00000 12537              USNOCTL  PROC  ,
 USING  *,R7
 00149E 9640 600C      0000C       12576                       SET   USEFNOCTL
 0014A2 18D8/9808 D004_            12582                       PEND  ,
 DROP   *,R7
                                   12602
 0014B0 50E0 D000/9008_      00000 12603              USSET    PROC
 USING  *,R7
 0014CA 9680 BD52      00D52       12642                       SET   CPLFLG3.CPFSET
 0014CE 18D8/9808 D004_            12649                       PEND
 DROP   *,R7
                                   12669
 0014DC 50E0 D000/9008_      00000 12670              USNOSET  PROC
 USING  *,R7
 0014F6 947F BD52      00D52       12709                       CLEAR CPLFLG3.CPFSET
 0014FA 18D8/9808 D004_            12717                       PEND
 DROP   *,R7
                                   12737
 001508 50E0 D000/9008_      00000 12738              USNICAT  PROC  ,
1NFILE    (NFIL2025) (12:49) (15MAR04) SAVE Command                                                                         Page   33
0Current Usings:  (USEWA,R6) (*,R7) (CP,R11) (CV,R12)
0Loc    Object Code    Addr1 Addr2  Stmt Lv Lineno    Source Statement           (Hibal 5, Asmedit 3.3)  HLASM R4.0  2004/03/15 12.49
+___    ______ ____    _____ _____  ____ __ ______    ______ _________
0USING  *,R7
 001522 4110 7583/4100_      01AA5 12777                       TSEG  'NOCATALOG option ignored.',,CR
 001534 18D8/9808 D004_            12795                       PEND  ,
 DROP   *,R7
                                   12815
 001542 50E0 D000/9008_      00000 12816              USNIDS   PROC  ,
 USING  *,R7
 00155C 4110 7494/4100_      019F0 12855                       TSEG  'DSORG options ignored.',,CR
 00156E 18D8/9808 D004_            12873                       PEND  ,
 DROP   *,R7
 DROP   USEWA,R6                   12893                       DROP  R6
1NFILE    (NFIL2025) (12:49) (15MAR04) SAVE Command                                                                         Page   34
0Current Usings:  (CP,R11) (CV,R12)
0Loc    Object Code    Addr1 Addr2  Stmt Lv Lineno    Source Statement           (Hibal 5, Asmedit 3.3)  HLASM R4.0  2004/03/15 12.49
+___    ______ ____    _____ _____  ____ __ ______    ______ _________
0                                  12901              *
                                   12902              *
                                   12903              *
                                   12904              *  USERTN - USE CO-ROUTINE
                                   12905              *
                                   12906              *  ON ENTRY:
                                   12907              *    R1,R0 - LINE TEXT LOCATION LENGTH
                                   12908              *    CPLCNO - LINE NUMBER
                                   12909              *
                                   12910              *
                                   12911              *  NOTE:
                                   12912              *  WE DO NOT HANDLE LONG LINES OR WHAT ??
                                   12913              *
                                   12914              *
 00157C 50E0 D000/9008_      00000 12915              USERTN   PROC  ,
 USING  *,R7
 001596 5860 BCA4            00CA4 12954                       L     R6,CPCWA
 USING  USEWA,R6                   12955                       USING USEWA,R6
                                   12964
                                   12965                       COMMENT                   INCREMENT TOTAL COUNT
 00159A 4120 0001/5E20_      00001 12966                       INCR  R2,USETCNT
                                   12972
                                   12973                       COMMENT                   CHECK FILE FOR CONTROL LINES
 0015A6 9001 D000/41D0_      00000 12974                       XPUSH R0,R1
 0015AE D503 73FE 6008_01994 00008 12977                       IF    ((USETCNT,EQ,1),AND,(@R1,EQ,=CL8'*CTL%%%%')),BEGIN
 0015C2 9180 600C/4710_0000C       13010  1                      IF    ((~USEFRECOV),AND,(~USEFNOCTL)),BEGIN
 0015D2 4120 7470/4130_      01A06 13039  2                        LS    R2,R3,'*CTL%%%%MULTIPLE FILE FORMAT VERSION 00.00'
 0015DA 1930/4770 70A8             13042  2                        IF    (R3,EQ,R0),BEGIN
 0015E0 0630/4430 758C_            13057  3                          DEX   R3,' CLC @R2(0),@R1 '
 0015E6 4770 70A8            0163E 13076  3                          IF    EQ,BEGIN
 0015EA 9680 600C      0000C       13087  4                            SET   USEFRECOV
 0015EE 4110 7528/4100_      01ABE 13093  4                            TSEG  'Processing multiple active files.',,CR
 001600 1B00/41F0 B050_            13111  4                            TWRITE
 00160C D503 736A 6000_01900 00000 13136  4                            IF    ((USESKIP,NE,0),OR,(USECOUNT,NE,0)),BEGIN
 001620 4110 749A/4100_      01A30 13171  5                              TSEG  'SKIP and/or COUNT options ignored.',,CR
 001632 1B00/41F0 B050_            13189  5                              TWRITE
 00163E                            13214  4                            END
 00163E                            13218  3                          END
 00163E                            13222  2                        END
 00163E                            13226  1                      END
 00163E                            13230                       END
 00163E 4BD0 74BC/9801_      01A52 13234                       XPOP  R0,R1
                                   13237
                                   13238                       COMMENT                   IF MULTIPLE ACTIVES,
                                   13239                       COMMENT                   PROCESS SEPARATELY
 001646 9180 600C/47E0_0000C       13240                       IF    USEFRECOV,BEGIN
 00164E 58E0 7406/0DEE       0199C 13255  1                      ACALL USEMULT
 001654 47F0 7102            01698 13259  1                      B     URTNDONE
 001658                            13260                       END
                                   13264
                                   13265                       COMMENT                   FIGURE UPPER LIMIT IF ANY
 001658 5830 740A            019A0 13266                       L     R3,=F'1000000000'
 00165C D503 736A 6004_01900 00004 13267                       IF    (USECOUNT,NE,0),BEGIN
 001666 5830 6000            00000 13285  1                      L     R3,USESKIP
1NFILE    (NFIL2025) (12:49) (15MAR04) SAVE Command                                                                         Page   35
0Current Usings:  (USEWA,R6) (*,R7) (CP,R11) (CV,R12)
0Loc    Object Code    Addr1 Addr2  Stmt Lv Lineno    Source Statement           (Hibal 5, Asmedit 3.3)  HLASM R4.0  2004/03/15 12.49
+___    ______ ____    _____ _____  ____ __ ______    ______ _________
000166A 5A30 6004            00004 13286  1                      A     R3,USECOUNT         R3 - UPPER LIMIT
 00166E                            13287                       END
                                   13291
                                   13292                       COMMENT                   PUT LINE IF SKIP/COUNT LIMIT OK
 00166E 5820 6008            00008 13293                       L     R2,USETCNT
 001672 5920 6000/47D0_      00000 13294                       IF    ((R2,GT,USESKIP),AND,(R2,LE,R3)),BEGIN
 001680 58F0 B73C            0073C 13325  1                      L     R15,CPLCNO
 001684 58E0 740E/0DEE       019A4 13326  1                      VCALL PUTLINE
 00168A                            13330                       END
                                   13334
                                   13335                       COMMENT                   IF MORE THAN COUNT, STOP
 00168A 5820 6008            00008 13336                       L     R2,USETCNT
 00168E 1923/47D0 7102             13337                       IF    (R2,GT,R3),BEGIN
 001694 9610 BD5A      00D5A       13352  1                      SET   CPFRQUIT QUIT RANGE
 001698                            13358                       END
                                   13362
 001698                            13363              URTNDONE LABEL ,
 001698 18D8/9808 D004_            13365                       PEND  ,
 DROP   *,R7
1NFILE    (NFIL2025) (12:49) (15MAR04) SAVE Command                                                                         Page   36
0Current Usings:  (USEWA,R6) (CP,R11) (CV,R12)
0Loc    Object Code    Addr1 Addr2  Stmt Lv Lineno    Source Statement           (Hibal 5, Asmedit 3.3)  HLASM R4.0  2004/03/15 12.49
+___    ______ ____    _____ _____  ____ __ ______    ______ _________
0                                  13386              *
                                   13387              *
                                   13388              *
                                   13389              *  USEMULT - DO MULTIPLE ACTIVE FILE *CTL%%%% PROCESSING
                                   13390              *
                                   13391              *  ON ENTRY:
                                   13392              *    R1,R0 - LINE TEXT LOCATION LENGTH
                                   13393              *    CPLCNO - LINE NUMBER
                                   13394              *
                                   13395              *  REGISTER USAGE,
                                   13396              *    R2,R3 - LINE TEXT LOC, LENGTH
                                   13397              *
                                   13398              *  NOTE:
                                   13399              *  WE DO NOT HANDLE LONG LINES.
                                   13400              *
                                   13401              *
                                   13402              LNNUMB   EQU   0,8                 OFFSETS FOR MULT FORMAT
                                   13403              LNTEXT   EQU   8
                                   13404
 0016A6 50E0 D000/9008_      00000 13405              USEMULT  PROC  ,
 USING  *,R7
 0016C0 5860 BCA4            00CA4 13444                       L     R6,CPCWA
                                   13445                       USING USEWA,R6
                                   13447
                                   13448                       COMMENT                   R2,R3 - INPUT LINE LOC, LEN
 0016C4 1821                       13449                       LR    R2,R1
 0016C6 1830                       13450                       LR    R3,R0
                                   13451
                                   13452                       COMMENT                   VALIDITY CHECK FIRST LINE
 0016C8 D503 72D4 6008_01994 00008 13453                       IF    (USETCNT,EQ,1),BEGIN
 0016D2 4110 7346/4100_      01A06 13471  1                      SETMSG '*CTL%%%%MULTIPLE FILE FORMAT VERSION 00.00'
 0016DA 1930/4780 702C             13475  1                      IF    (R3,NE,R0),BEGIN
 0016E0 4110 7394/4100_      01A54 13490  2                        ERROR 'RECOVERY option invalid for this file.'
 0016EC                            13497  1                      END
 0016EC 1843                       13501  1                      LR    R4,R3
 0016EE 0640/4440 7468_            13502  1                      DEX   R4,' CLC @R2(0),@R1 '
 0016F4 4780 7044            01704 13521  1                      IF    NE,BEGIN
 0016F8 4110 7394/4100_      01A54 13532  2                        ERROR 'RECOVERY option invalid for this file.'
 001704                            13539  1                      END
 001704                            13543                       END
                                   13547
 001704 7048/47F0 70B2 01704 016D0 13548                       ELSE  BEGIN
                                   13559  1                      COMMENT                   IF OPEN NEW ACTIVE REQ, DO IT
 001708 D516 2000 741F 00000 01ADF 13560  1                      CLC   @R2(23),=CL23'*CTL%%%%OPEN NEW ACTIVE'
 00170E 4770 7068            01728 13561  1                      IF    EQ,BEGIN
 001712 D503 7240 B5AC_01900 005AC 13572  2                        IF    (CPALNCT,NE,0),BEGIN
 00171C 58E0 72E8/0DEE       019A8 13590  3                          VCALL ACTOPEN
 001722 58E0 72EC/0DEE       019AC 13594  3                          VCALL ACTVREST
 001728                            13598  2                        END
 001728                            13602  1                      END
                                   13606  1
                                   13607  1                      COMMENT                   STANDARD LINE, WRITE IT
 001728 706C/47F0 70B2 01728 01710 13608  1                      ELSE  BEGIN
 00172C 5930 72F0/47B0_      019B0 13619  2                        IF    (R3,LT,L'LNNUMB),BEGIN
1NFILE    (NFIL2025) (12:49) (15MAR04) SAVE Command                                                                         Page   37
0Current Usings:  (USEWA,R6) (*,R7) (CP,R11) (CV,R12)
0Loc    Object Code    Addr1 Addr2  Stmt Lv Lineno    Source Statement           (Hibal 5, Asmedit 3.3)  HLASM R4.0  2004/03/15 12.49
+___    ______ ____    _____ _____  ____ __ ______    ______ _________
0001734 4110 7436/4100_      01AF6 13636  3                          TSEG  'RECOVERY option invalid for this file. '
 001746 4110 7250/4100_      01910 13654  3                          ERROR 'Command stopped.'
 001752                            13661  2                        END
 001752 4112 0000            00000 13665  2                        LA    R1,LNNUMB(R2)
 001756 4100 0008            00008 13666  2                        LA    R0,L'LNNUMB
 00175A 58E0 72F8/0DEE       019B8 13667  2                        VCALL GTINTVAL
 001760 1803                       13671  2                        LR    R0,R3
 001762 1812                       13672  2                        LR    R1,R2
 001764 4111 0008            00008 13673  2                        LA    R1,LNTEXT(R1)
 001768 5B00 72FC            019BC 13674  2                        S     R0,=AL4(L'LNNUMB)
 00176C 58E0 72E4/0DEE       019A4 13675  2                        VCALL PUTLINE
 001772                            13679  1                      END ,
 001772                            13683                       END , OF NOT FIRST LINE
                                   13687
 001772 18D8/9808 D004_            13688                       PEND  ,
 DROP   *,R7
1NFILE    (NFIL2025) (12:49) (15MAR04) SAVE Command                                                                         Page   38
0Current Usings:  (USEWA,R6) (CP,R11) (CV,R12)
0Loc    Object Code    Addr1 Addr2  Stmt Lv Lineno    Source Statement           (Hibal 5, Asmedit 3.3)  HLASM R4.0  2004/03/15 12.49
+___    ______ ____    _____ _____  ____ __ ______    ______ _________
0                                  13709              * *** DEBUG ***  THIS ROUTINE AND CALLING SEQUENCE
                                   13710              * *** DEBUG ***  FOR OLD IBM ONLY
                                   13711              *
                                   13712              *
                                   13713              *  OLDRTN - USE CO-ROUTINE FOR OLDIBM
                                   13714              *
                                   13715              *  ON ENTRY:
                                   13716              *    R1,R0 - LINE TEXT LOCATION LENGTH
                                   13717              *    CPLCNO - LINE NUMBER
                                   13718              *
                                   13719              *
                                   13720              *  NOTE:
                                   13721              *  FOR OLD IBM FORMAT, WE GET YUCKED UP A BIT
                                   13722              *  WE READ EITHER TYPE OF MULTIPLE ACTIVE FORMAT.
                                   13723              *  (IE. *CTL%%%% OR EXTENDED EDIT. ONE OR OTHER.)
                                   13724              *
                                   13725              *
                                   13726              *  NOTE:
                                   13727              *  WE DO NOT HANDLE LONG LINES OR WHAT ??
                                   13728              *
                                   13729              *
 001780 50E0 D000/9008_      00000 13730              OLDRTN   PROC  ,
 USING  *,R7
 00179A 5860 BCA4            00CA4 13769                       L     R6,CPCWA
                                   13770                       USING USEWA,R6
                                   13772
                                   13773                       COMMENT                   INCREMENT TOTAL COUNT
 00179E 4120 0001/5E20_      00001 13774                       INCR  R2,USETCNT
                                   13780                       ¿þþþþþþþþþþþþþþþþþþþþþþþþþþþþþþþþþþþþþþþþÜ
                                   13781                       Ÿ  Handle USE of multiple Active files.  Ÿ
                                   13782                       ¾þþþþþþþþþþþþþþþþþþþþþþþþþþþþþþþþþþþþþþþþ»
 0017AA 1F22/BF23 BE31             13783                       L2    R2,CPNEDSET         Current set number
 0017B0 5420 7226            019C0 13791                       N     R2,=A(X'7FFF')      High order bit is a flag
 0017B4 4920 BE3C/4780_      00E3C 13792                       IF    (R2,NE,CPUSESET),BEGIN  Stack Actives...
 0017BC 4020 BE3C            00E3C 13809  1                      STH   R2,CPUSESET         Save new set number
 0017C0 D603 B5AC B5AC_005AC 005AC 13810  1                      IF    (CPALNCT,Z),EXIT    No Active file, don't switch
                                   13829  1
 0017CA 58E0 720E/0DEE       019A8 13830  1                      VCALL ACTOPEN             Open a new Active file
 0017D0 58E0 7212/0DEE       019AC 13834  1                      VCALL ACTVREST            Set current view position
 0017D6                            13838                       END
                                   13842                       ¿þþþþþþþþþþþþþþþþþþþþþþþþþþÜ
                                   13843                       Ÿ  Process control lines.  Ÿ
                                   13844                       ¾þþþþþþþþþþþþþþþþþþþþþþþþþþ»
 0017D6 9180 BE31/47E0_00E31       13845                       IF    CPNEDSET.X'80',BEGIN  It's a control line...
 0017DE 9640 600C      0000C       13861  1                      SET   USEFNOCTL             If extend edit, no *CTL%%%%
 0017E2 947F 600C      0000C       13867  1                      CLEAR USEFRECOV
 0017E6 D504 7383 1000_01B1D 00000 13874  1                      IF    (@R1,EQ,'VIEW='),BEGIN  Set VIEW info
 0017F0 58E0 722A/0DEE       019C4 13890  2                        VCALL RTRIM
 0017F6 58E0 722E/0DEE       019C8 13894  2                        VCALL SETVINFO
 0017FC                            13898  1                      END
 0017FC 47F0 7158            018F2 13902  1                      B     ORTNDONE
 001800                            13903                       END
                                   13907
                                   13908                       COMMENT                   CHECK FILE FOR CONTROL LINES
1NFILE    (NFIL2025) (12:49) (15MAR04) SAVE Command                                                                         Page   39
0Current Usings:  (USEWA,R6) (*,R7) (CP,R11) (CV,R12)
0Loc    Object Code    Addr1 Addr2  Stmt Lv Lineno    Source Statement           (Hibal 5, Asmedit 3.3)  HLASM R4.0  2004/03/15 12.49
+___    ______ ____    _____ _____  ____ __ ______    ______ _________
0001800 9001 D000/41D0_      00000 13909                       XPUSH R0,R1
 001808 D503 71FA 6008_01994 00008 13912                       IF    ((USETCNT,EQ,1),AND,(@R1,EQ,=CL8'*CTL%%%%')),BEGIN
 00181C 9180 600C/4710_0000C       13945  1                      IF    ((~USEFRECOV),AND,(~USEFNOCTL)),BEGIN
 00182C 4120 726C/4130_      01A06 13974  2                        LS    R2,R3,'*CTL%%%%MULTIPLE FILE FORMAT VERSION 00.00'
 001834 1930/4770 70FE             13977  2                        IF    (R3,EQ,R0),BEGIN
 00183A 0630/4430 7394_            13992  3                          DEX   R3,' CLC @R2(0),@R1 '
 001840 4770 70FE            01898 14011  3                          IF    EQ,BEGIN
 001844 9680 600C      0000C       14022  4                            SET   USEFRECOV
 001848 4110 7324/4100_      01ABE 14028  4                            TSEG  'Processing multiple active files.',,CR
 00185A 1B00/41F0 B050_            14046  4                            TWRITE
 001866 D503 7166 6000_01900 00000 14071  4                            IF    ((USESKIP,NE,0),OR,(USECOUNT,NE,0)),BEGIN
 00187A 4110 7296/4100_      01A30 14106  5                              TSEG  'SKIP and/or COUNT options ignored.',,CR
 00188C 1B00/41F0 B050_            14124  5                              TWRITE
 001898                            14149  4                            END
 001898                            14153  3                          END
 001898                            14157  2                        END
 001898                            14161  1                      END
 001898                            14165                       END
 001898 4BD0 72B8/9801_      01A52 14169                       XPOP  R0,R1
                                   14172
                                   14173                       COMMENT                   IF MULTIPLE ACTIVES,
                                   14174                       COMMENT                   PROCESS SEPARATELY
 0018A0 9180 600C/47E0_0000C       14175                       IF    USEFRECOV,BEGIN
 0018A8 58E0 7202/0DEE       0199C 14190  1                      ACALL USEMULT
 0018AE 47F0 7158            018F2 14194  1                      B     ORTNDONE
 0018B2                            14195                       END
                                   14199
                                   14200                       COMMENT                   FIGURE UPPER LIMIT IF ANY
 0018B2 5830 7206            019A0 14201                       L     R3,=F'1000000000'
 0018B6 D503 7166 6004_01900 00004 14202                       IF    (USECOUNT,NE,0),BEGIN
 0018C0 5830 6000            00000 14220  1                      L     R3,USESKIP
 0018C4 5A30 6004            00004 14221  1                      A     R3,USECOUNT
 0018C8                            14222                       END
                                   14226
                                   14227                       COMMENT                   PUT LINE IF SKIP/COUNT LIMIT OK
 0018C8 5820 6008            00008 14228                       L     R2,USETCNT
 0018CC 5920 6000/47D0_      00000 14229                       IF    ((R2,GT,USESKIP),AND,(R2,LE,R3)),BEGIN
 0018DA 58F0 B73C            0073C 14260  1                      L     R15,CPLCNO
 0018DE 58E0 720A/0DEE       019A4 14261  1                      VCALL PUTLINE
 0018E4                            14265                       END
                                   14269
                                   14270                       COMMENT                   IF MORE THAN COUNT, STOP
 0018E4 5820 6008            00008 14271                       L     R2,USETCNT
 0018E8 1923/47D0 7158             14272                       IF    (R2,GT,R3),BEGIN
 0018EE 9610 BD5A      00D5A       14287  1                      SET   CPFRQUIT QUIT RANGE
 0018F2                            14293                       END
                                   14297
 0018F2                            14298              ORTNDONE LABEL ,
 0018F2 18D8/9808 D004_            14300                       PEND  ,
 DROP   *,R7
                                   14320
                                   14321                       QLTORG
1NFILE    (NFIL2025) (12:49) (15MAR04) SAVE Command                                                                         Page   40
0Current Usings:  (USEWA,R6) (CP,R11) (CV,R12)
0Loc    Object Code    Addr1 Addr2  Stmt Lv Lineno    Source Statement           (Hibal 5, Asmedit 3.3)  HLASM R4.0  2004/03/15 12.49
+___    ______ ____    _____ _____  ____ __ ______    ______ _________
0                                  14383              *
                                   14384              *  DUMMY ROUTINES
                                   14385              *
                                   14386              *
 001B34 50E0 D000/9008_      00000 14387              CHKPASSW XPROC ,                   ASSUME PASSWD OK
 USING  *,R7
 001B4E 1BFF                       14427                       CLEAR R15
 001B50 18D8/9808 D004_            14431                       PEND  ,
 DROP   *,R7
                                   14451
                                   14452                       QLTORG
1NFILE    (NFIL2025) (12:49) (15MAR04) OSRENAME Command                                                                     Page   41
0Current Usings:  (USEWA,R6) (CP,R11) (CV,R12)
0Loc    Object Code    Addr1 Addr2  Stmt Lv Lineno    Source Statement           (Hibal 5, Asmedit 3.3)  HLASM R4.0  2004/03/15 12.49
+___    ______ ____    _____ _____  ____ __ ______    ______ _________
0                                  14466              *
                                   14467              *
                                   14468              *  OSRENAME
                                   14469              *
                                   14470              *
                                   14471              *  MINAMAL WORK DONE BY THIS ROUTINE.
                                   14472              *  WE CALL DEVICE DEPENDENT ROUTINES TO DO RENAME.
                                   14473              *  WE CALL DEVICE DEPENDENT ROUTINES AS FOLLOWS:
                                   14474              *    R1,R0 - OLD NAME LENGTH
                                   14475              *    R2,R3 - NEW NAME LENGTH
                                   14476              *    ON EXIT FFRNAME IS NEW FULLY RESOLVED NAME.
                                   14477              *    DEVICE ROUTINE PRINTS MESSAGE ABOUT RENAME.
                                   14478              *
                                   14479              *  NOTE,CAUTION!
                                   14480              *  THE RENAME IS A BIT GRIMY AND UNUSUAL IN THAT
                                   14481              *  IT HAS TO DEAL WITH 2 FILE NAMES. THE FILE NAME
                                   14482              *  SCANNING ROUTINES ARE NOT BUILT TO DO THAT. WE
                                   14483              *  THEREFORE TAKE SOME LIBERTIES WITH THE NAME
                                   14484              *  RESOLVING ROUTINES BY RESOLVING 2 FILE NAMES.
                                   14485              *  I THINK THIS IS OK, BUT IT IS NOT AN EXPECTED
                                   14486              *  USE OF THESE FILE SCANING/NAME RESOLVING ROUTINES.
                                   14487              *
                                   14488              *  NOTE:
                                   14489              *  THE OLD FILE NAME DETERMINES THE FILE TYPE.
                                   14490              *  THE FILE OPTIONS (EG. USER) ARE APPLIED TO BOTH
                                   14491              *  OLD AND NEW FILE NAMES BY NAME RESOLVE ROUTINE.
                                   14492              *  SEE ABOVE COMMENTS.
                                   14493              *
                                   14494              *
 000000                00000 00300 14495              RNWA     RECORD BEGIN
 000000                            14503  1           RNCMDL     DS    F
                                   14504  1           RNCMD      DS    CL(&LINESZ)
 000004                                   1          +RNCMD      DS    CL(235)
 0000F0                            14505  1           RNNEWL     DS    F                   NEW NAME
 0000F4                            14506  1           RNNEW      DS    CL(L'FFNAME)
 000174                            14507  1           RNRNEWL    DS    F                   FULL RESOLVED NEW NAME
 000178                            14508  1           RNRNEW     DS    CL(L'FFNAME)
 0001F8                            14509  1           RNOLDL     DS    F                   OLD NAME
 0001FC                            14510  1           RNOLD      DS    CL(L'FFNAME)
 00027C                            14511  1           RNROLDL    DS    F                   FULL RESOLVED OLD NAME
 000280                            14512  1           RNROLD     DS    CL(L'FFNAME)
 000300                00300 00300 14513                       END
                                   14522              *
                                   14523              *
 001B60 50E0 D000/9008_      00000 14524              OSRENAME XPROC RNWA
 USING  *,R7
 USING  RNWA-(4+36),R8
 001B7A 4160 8028            00000 14575                       LA    R6,RNWA
 DROP   USEWA,R6                   14576                       USING RNWA,R6
 USING  RNWA,R6
 001B7E D7FF 6000 6000_00000 00000 14588                       CLEAR RNWA
                                   14597
 001B90 58E0 782E/0DEE       023A8 14598                       VCALL MKFFINFO
 001B96 5850 BE54            00E54 14602                       L     R5,CPFINFOP
1NFILE    (NFIL2025) (12:49) (15MAR04) OSRENAME Command                                                                     Page   42
0Current Usings:  (FFINFO,R5) (RNWA,R6) (*,R7) (RNWA-(4+36),R8) (CP,R11) (CV,R12)
0Loc    Object Code    Addr1 Addr2  Stmt Lv Lineno    Source Statement           (Hibal 5, Asmedit 3.3)  HLASM R4.0  2004/03/15 12.49
+___    ______ ____    _____ _____  ____ __ ______    ______ _________
0USING  FFINFO,R5                  14603                       USING FFINFO,R5
                                   14612
                                   14613                       COMMENT                   SAVE RENAME COMMAND
 001B9A 58E0 B08C/581E_      0008C 14614                       SCINFO
 001BA8 1820                       14623                       LR    R2,R0
 001BAA 5020 6000            00000 14624                       ST    R2,RNCMDL
 001BAE 0620/1222/4740_            14625                       MOVE  R2,RNCMD,@R1
                                   14663
                                   14664                       COMMENT                   SCAN FIRST NAME
 001BBA 58E0 7832/0DEE       023AC 14665                       VCALL DOFNAME
                                   14669
                                   14670                       COMMENT                   SCAN OTHER OPTIONS
 001BC0 5810 B08C/1B00_      0008C 14671                       SCAN  RNAMEPRT
 001C12 58E0 783E/0DEE       023B8 14703                       SCANCHK
                                   14708
 001C18 D603 60F0 60F0_000F0 000F0 14709                       IF    (RNNEWL,Z),BEGIN
 001C22 4110 78AC/4100_      02426 14725  1                      ERROR 'Missing new file name.'
 001C2E                            14732                       END
                                   14736
                                   14737                       COMMENT                   DETERMINE FILE TYPE
 001C2E 58E0 7842/0DEE       023BC 14738                       VCALL FNAMEFIN
                                   14742
                                   14743                       COMMENT                   PROCESS (RESOLVE) FILE NAMES
                                   14744                       COMMENT                   PROCESS OLD NAME
 001C34 9503 5000/4780_00000       14745                       IF    (FFFSAM,OR,FFFNET),BEGIN
 001C44 58E0 7846/0DEE       023C0 14774  1                      VCALL NRESOLVE
 001C4A 5820 5008            00008 14778  1                      L     R2,FFNAMEL
 001C4E 5020 61F8            001F8 14779  1                      ST    R2,RNOLDL
 001C52 0620/1222/4740_            14780  1                      MOVE  R2,RNOLD,FFNAME
 001C5E 5820 5214            00214 14818  1                      L     R2,FFRNAMEL
 001C62 5020 627C            0027C 14819  1                      ST    R2,RNROLDL
 001C66 0620/1222/4740_            14820  1                      MOVE  R2,RNROLD,FFRNAME
                                   14858  1                      COMMENT                   PROCESS NEW NAME
 001C72 D703 5008 5008 00008 00008 14859  1                      CLEAR FFNAMEL
 001C78 D77F 5218 5218 00218 00218 14866  1                      CLEAR FFRNAME
 001C7E 5820 60F0            000F0 14873  1                      L     R2,RNNEWL
 001C82 5020 5008            00008 14874  1                      ST    R2,FFNAMEL
 001C86 0620/1222/4740_            14875  1                      MOVE  R2,FFNAME,RNNEW
 001C92 58E0 7846/0DEE       023C0 14913  1                      VCALL NRESOLVE
 001C98 5820 5214            00214 14917  1                      L     R2,FFRNAMEL
 001C9C 5020 6174            00174 14918  1                      ST    R2,RNRNEWL
 001CA0 0620/1222/4740_            14919  1                      MOVE  R2,RNRNEW,FFRNAME
 001CAC                            14957                       END
                                   14961              *
                                   14962              *
                                   14963                       COMMENT                   IF SAMSON FILE
 001CAC 9503 5000/4770_00000       14964                       IF    FFFSAM,BEGIN
 001CB4 5800 627C            0027C 14979  1                      L     R0,RNROLDL
 001CB8 4110 6280            00280 14980  1                      LA    R1,RNROLD
 001CBC 4120 6178            00178 14981  1                      LA    R2,RNRNEW
 001CC0 5830 6174            00174 14982  1                      L     R3,RNRNEWL
 001CC4 58E0 784A/0DEE       023C4 14983  1                      VCALL SAMREN              DO RENAME
 001CCA 4770 C7DA            007DA 14987  1                      BNZ   CVABORT
 001CCE 9180 BD52/47E0_00D52       14988  1                      IF    CPLFLG3.CPFSET,BEGIN
1NFILE    (NFIL2025) (12:49) (15MAR04) OSRENAME Command                                                                     Page   43
0Current Usings:  (FFINFO,R5) (RNWA,R6) (*,R7) (RNWA-(4+36),R8) (CP,R11) (CV,R12)
0Loc    Object Code    Addr1 Addr2  Stmt Lv Lineno    Source Statement           (Hibal 5, Asmedit 3.3)  HLASM R4.0  2004/03/15 12.49
+___    ______ ____    _____ _____  ____ __ ______    ______ _________
0001CD6 58E0 784E/0DEE       023C8 15004  2                        VCALL SETPFXNS
 001CDC                            15008  1                      END
 001CDC 4110 6280/5800_      00280 15012  1                      TSEG  RNROLD,L:RNROLDL    GIVE MSG
 001CEE 4110 7856/4100_      023D0 15040  1                      TSEG  ' renamed to '
 001D00 4110 6178/5800_      00178 15058  1                      TSEG  RNRNEW,L:RNRNEWL
 001D12 47F0 C7DE            007DE 15086  1                      B     CVNEXT
 001D16                            15087                       END
                                   15091              *
                                   15092              *
                                   15093                       COMMENT                   IF NET FILE,
 001D16 9504 5000/4770_00000       15094                       IF    FFFNET,BEGIN
 001D1E 5800 627C            0027C 15109  1                      L     R0,RNROLDL
 001D22 4110 6280            00280 15110  1                      LA    R1,RNROLD
 001D26 4120 6178            00178 15111  1                      LA    R2,RNRNEW
 001D2A 5830 6174            00174 15112  1                      L     R3,RNRNEWL
 001D2E 58E0 7862/0DEE       023DC 15113  1                      VCALL NETREN              NOT IMPLEMENTED, DUMMY ROUTINE
 001D34 4770 C7DA            007DA 15117  1                      BNZ   CVABORT
 001D38 9180 BD52/47E0_00D52       15118  1                      IF    CPLFLG3.CPFSET,BEGIN
 001D40 58E0 784E/0DEE       023C8 15134  2                        VCALL SETPFXNS
 001D46                            15138  1                      END
 001D46 4110 6280/5800_      00280 15142  1                      TSEG  RNROLD,L:RNROLDL    GIVE MSG
 001D58 4110 7856/4100_      023D0 15170  1                      TSEG  ' renamed to '
 001D6A 4110 6178/5800_      00178 15188  1                      TSEG  RNRNEW,L:RNRNEWL
 001D7C D603 508C 508C_0008C 0008C 15216  1                      IF    (FFHOSTL,NZ),BEGIN
 001D86 4110 7866/4100_      023E0 15232  2                        TSEG  ' on '
 001D98 4110 5090/5800_      00090 15250  2                        TSEG  FFHOST,L:FFHOSTL
 001DAA                            15278  1                      END
 001DAA 47F0 C7DE            007DE 15282  1                      B     CVNEXT
 001DAE                            15283                       END
                                   15287              *
                                   15288              *
 001DAE 9501 5000/4780_00000       15289                       IF    (FFFWINGS,OR,FFFOLD),BEGIN
 001DBE 58E0 7846/0DEE       023C0 15318  1                      VCALL NRESOLVE            Get fully-qualified oldname
 001DC4 5820 5008            00008 15322  1                      L     R2,FFNAMEL
 001DC8 5020 61F8            001F8 15323  1                      ST    R2,RNOLDL
 001DCC 0620/1222/4740_            15324  1                      MOVE  R2,RNOLD,FFNAME
 001DD8 5820 5214            00214 15362  1                      L     R2,FFRNAMEL
 001DDC 5020 627C            0027C 15363  1                      ST    R2,RNROLDL
 001DE0 0620/1222/4740_            15364  1                      MOVE  R2,RNROLD,FFRNAME     and put it in RNROLD
                                   15402  1                      COMMENT                   Check the old name to
 001DEC 4110 6280            00280 15403  1                      LA    R1,RNROLD             determine whether or not
 001DF0 5800 627C            0027C 15404  1                      L     R0,RNROLDL              it includes a member
 001DF4 58E0 786A/0DEE       023E4 15405  1                      VCALL RETFNAME
 001DFA 5900 627C/47B0_      0027C 15409  1                      IF    (R0,LT,RNROLDL),BEGIN   It's a member rename
                                   15426  2           *
                                   15427  2           *  Create the newname by concatenating the dsname portion of
                                   15428  2           *  the oldname with a '#' followed by the newname (which must
                                   15429  2           *  be a membername).
                                   15430  2           *
 001E02 1820                       15431  2                        LR    R2,R0
 001E04 0620/1222/4740_            15432  2                        MOVE  R2,FFNAME,@R1         Move in the old dsname
 001E10 5820 60F0            000F0 15470  2                        L     R2,RNNEWL
 001E14 4110 60F4            000F4 15471  2                        LA    R1,RNNEW
 001E18 957B 1000/4780_00000       15472  2                        IF    (@R1,NE,'#'),BEGIN    We need to add a '#'
1NFILE    (NFIL2025) (12:49) (15MAR04) OSRENAME Command                                                                     Page   44
0Current Usings:  (FFINFO,R5) (RNWA,R6) (*,R7) (RNWA-(4+36),R8) (CP,R11) (CV,R12)
0Loc    Object Code    Addr1 Addr2  Stmt Lv Lineno    Source Statement           (Hibal 5, Asmedit 3.3)  HLASM R4.0  2004/03/15 12.49
+___    ______ ____    _____ _____  ____ __ ______    ______ _________
0001E20 4130 500C            0000C 15488  3                          LA    R3,FFNAME
 001E24 1A30                       15489  3                          AR    R3,R0
 001E26 927B 3000      00000       15490  3                          MVI   0(R3),C'#'
 001E2A 5E00 786E            023E8 15491  3                          INCR  R0
 001E2E                            15494  2                        END
 001E2E 1830                       15498  2                        LR    R3,R0                 Append the newname
 001E30 1A32                       15499  2                        AR    R3,R2
 001E32 5030 5008            00008 15500  2                        ST    R3,FFNAMEL
 001E36 4130 500C            0000C 15501  2                        LA    R3,FFNAME
 001E3A 1A30                       15502  2                        AR    R3,R0
 001E3C 0620/1222/4740_            15503  2                        MOVE  R2,@R3,@R1            Now have correct newname
 001E48                            15541  1                      END
 001E48 72D2/47F0 72E6 01E48 01E00 15545  1                      ELSE  BEGIN                 Simple dataset rename
 001E4C 5820 60F0            000F0 15556  2                        L     R2,RNNEWL
 001E50 5020 5008            00008 15557  2                        ST    R2,FFNAMEL
 001E54 0620/1222/4740_            15558  2                        MOVE  R2,FFNAME,RNNEW
 001E60                            15596  1                      END
 001E60 D77F 5218 5218 00218 00218 15600  1                      CLEAR FFRNAME
 001E66 D703 5214 5214 00214 00214 15607  1                      CLEAR FFRNAMEL
 001E6C 58E0 7846/0DEE       023C0 15614  1                      VCALL NRESOLVE
 001E72 5820 5214            00214 15618  1                      L     R2,FFRNAMEL
 001E76 5020 6174            00174 15619  1                      ST    R2,RNRNEWL
 001E7A 0620/1222/4740_            15620  1                      MOVE  R2,RNRNEW,FFRNAME
 001E86 5820 627C            0027C 15658  1                      L     R2,RNROLDL
 001E8A 5020 5008            00008 15659  1                      ST    R2,FFNAMEL
 001E8E 0620/1222/4740_            15660  1                      MOVE  R2,FFNAME,RNROLD
                                   15698  1           *
                                   15699  1           *  New file name is already in FFRNAME
                                   15700  1           *
 001E9A 58E0 7872/0DEE       023EC 15701  1           RENOK      VCALL WGSRENAM
 001EA0 4780 733A            01EB4 15705  1                      IF    NZ,BEGIN
 001EA4 1B00/41F0 B050_            15716  2                        TWRITE  ,
                                   15741  2           *        IF (CPERRID,EQ,'NOTYOURS'),BEGIN
                                   15742  2           *        COMMENT                   IF NO ACCESS, ASK FOR PASSWORD
                                   15743  2           *        CLEAR CPFQUIET            Force warning to be printed
                                   15744  2           *        CLEAR CPERRID
                                   15745  2           *        ACALL RENGETPS
                                   15746  2           *        L     R2,RNRNEWL
                                   15747  2           *        ST    R2,FFRNAMEL
                                   15748  2           *        MOVE  R2,FFRNAME,RNRNEW
                                   15749  2           *        B     RENOK
                                   15750  2           *        END
 001EB0 47F0 C7DA            007DA 15751  2                        B     CVABORT
 001EB4                            15752  1                      END
                                   15756  1           *  If SET requested, set existing to newdsn
 001EB4 9180 BD52/47E0_00D52       15757  1                      IF    CPLFLG3.CPFSET,BEGIN
 001EBC 5820 6174            00174 15773  2                        L     R2,RNRNEWL
 001EC0 5020 5214            00214 15774  2                        ST    R2,FFRNAMEL
 001EC4 0620/1222/4740_            15775  2                        MOVE  R2,FFRNAME,RNRNEW
 001ED0 58E0 784E/0DEE       023C8 15813  2                        VCALL SETPFXNS            Set existing
 001ED6                            15817  1                      END
 001ED6                            15821                       END
                                   15825
 001ED6 47F0 C7DE            007DE 15826                       B     CVNEXT
1NFILE    (NFIL2025) (12:49) (15MAR04) OSRENAME Command                                                                     Page   45
0Current Usings:  (FFINFO,R5) (RNWA,R6) (*,R7) (RNWA-(4+36),R8) (CP,R11) (CV,R12)
0Loc    Object Code    Addr1 Addr2  Stmt Lv Lineno    Source Statement           (Hibal 5, Asmedit 3.3)  HLASM R4.0  2004/03/15 12.49
+___    ______ ____    _____ _____  ____ __ ______    ______ _________
0                                  15827
 001EDA 18D8/9808 D004_            15828                       PEND
 DROP   RNWA-(4+36),R8
 DROP   *,R7
1NFILE    (NFIL2025) (12:49) (15MAR04) OSRENAME Command                                                                     Page   46
0Current Usings:  (FFINFO,R5) (RNWA,R6) (CP,R11) (CV,R12)
0Loc    Object Code    Addr1 Addr2  Stmt Lv Lineno    Source Statement           (Hibal 5, Asmedit 3.3)  HLASM R4.0  2004/03/15 12.49
+___    ______ ____    _____ _____  ____ __ ______    ______ _________
0                                  15854              *
                                   15855              *  RENAME OPTIONS
                                   15856              *
 001EE8 4040404040404040_          15857              RNAMEPRT SCKW  ,RNMISS,NULL
 001F10 E3D6404040404040_          15872                       SCKW  TO,RNAMETO
 001F38 4040404040404040_          15887                       SCKW  ,V(FNAMPSH),PUSH
 001F60 4040404040404040_          15902                       SCKW  ,V(QUIETPSH),PUSH
 001F88 E2C5E34040404040_          15917                       SCKW  SET,RENSET
 001FB0 D5D6E2C5E3404040_          15932                       SCKW  NOSET,RENNOSET,A
 001FD8 4040404040404040_          15947                       SCKW  ,V(NOTVALID)
                                   15962
 002000 50E0 D000/9008_      00000 15963              RENSET   PROC  ,
 USING  *,R7
 00201A 9680 BD52      00D52       16002                       SET   CPLFLG3.CPFSET
 00201E 18D8/9808 D004_            16009                       PEND
 DROP   *,R7
                                   16029
 00202C 50E0 D000/9008_      00000 16030              RENNOSET PROC  ,
 USING  *,R7
 002046 947F BD52      00D52       16069                       CLEAR CPLFLG3.CPFSET
 00204A 18D8/9808 D004_            16077                       PEND
 DROP   *,R7
                                   16097
 002058 50E0 D000/9008_      00000 16098              RNMISS   PROC
 USING  *,R7
 002072 4110 73B4/4100_      02426 16137                       ERROR 'Missing new file name.'
 00207E 18D8/9808 D004_            16144                       PEND
 DROP   *,R7
                                   16164
 00208C 50E0 D000/9008_      00000 16165              RNAMETO  PROC
 USING  *,R7
 0020A6 5810 B08C/1B00_      0008C 16204                       SCANSTR
 0020EC 58E0 7312/0DEE       023B8 16233                       SCANCHK
 0020F2 1200/4770 705E             16238                       IF    (R0,Z),BEGIN
 0020F8 4110 7380/4100_      02426 16252  1                      ERROR 'Missing new file name.'
 002104                            16259                       END
 002104 1820                       16263                       LR    R2,R0
 002106 5020 60F0            000F0 16264                       ST    R2,RNNEWL
 00210A 0620/1222/4740_            16265                       MOVE  R2,RNNEW,@R1
 002116 1BFF                       16303                       CLEAR R15
 002118 18D8/9808 D004_            16307                       PEND
 DROP   *,R7
                                   16327
1NFILE    (NFIL2025) (12:49) (15MAR04) OSRENAME Command                                                                     Page   47
0Current Usings:  (FFINFO,R5) (RNWA,R6) (CP,R11) (CV,R12)
0Loc    Object Code    Addr1 Addr2  Stmt Lv Lineno    Source Statement           (Hibal 5, Asmedit 3.3)  HLASM R4.0  2004/03/15 12.49
+___    ______ ____    _____ _____  ____ __ ______    ______ _________
0                                  16329              *
                                   16330              *
                                   16331              *  RENGETPS - WE NEED PASSWORD TO RENAME THIS FILE
                                   16332              *
                                   16333              *  THIS ROUTINE ASKS USER FOR (MAINFRAME) PASSWORD.  IF USER
                                   16334              *  KNOWS PASSWORD, THIS ROUTINE SETS THE APPROPRIATE FLAG
                                   16335              *  IN THE FFINFO BLOCK.
                                   16336              *  THIS ROUTINE APPLIES ONLY TO WINGS *  FILE SYSTEM.
                                   16337              *
                                   16338              *  ON ENTRY:
                                   16339              *  'NOT YOURS' MSG IS TSEG'D.  WE DECIDE WHETHER TO PURGE
                                   16340              *  OR PRINT TSEG'D MSG BELOW.
                                   16341              *
                                   16342              *  NOTE:
                                   16343              *  IF 'SET ACCOUNT ... PASS ...' OWNS DATA SET WE DO NOT
                                   16344              *  ISSUE ERROR MSG, AND DO *NOT* PROMPT FOR PASSWORD.
                                   16345              *
                                   16346              *  NOTE:
                                   16347              *  IF NO ACCOUNT ASSOCIATED WITH THE DATA SET, THEN
                                   16348              *  WE PROMPT FOR THE ACCOUNT GS.WYL.  WHICH ONLY SYSTEMS
                                   16349              *  TYPES CAN GUESS.  YES!
                                   16350              *
                                   16351              *
 002126 50E0 D000/9008_      00000 16352              RENGETPS PROC  GETPWWA
 USING  *,R7
 USING  GETPWWA-(4+36),R8
 002140 5860 BE54            00E54 16402                       L     R6,CPFINFOP
 DROP   RNWA,R6                    16403                       USING FFINFO,R6
 USING  FFINFO,R6
                                   16415
                                   16416                       COMMENT                   IF NOT WINGS, ERR
                                   16417                       COMMENT ,                 (IE. NO 'NOTYOURS' FOR NET,
 002144 9501 6000/4780_00000       16418                       IF    ~FFFWINGS,BEGIN      SAMSON, ETC.)
 00214C 47F0 C7D6            007D6 16433  1                      B     CVERROR
 002150                            16434                       END
                                   16438
                                   16439                       COMMENT                   SET UP KWR
 002150 4140 8028            00000 16440                       LA    R4,GETPWKWR
 USING  KWR,R4                     16441                       USING KWR,R4
 002154 D7FF 4000 4000_00000 00000 16450                       CLEAR KWR
                                   16458
                                   16459                       COMMENT                   SET ACCOUNT FROM DATA SET NAME
 002160 4110 6218/5800_      00218 16460                       SETMSG FFRNAME,L:FFRNAMEL
                                   16474            C          IF    ((R0,GT,11),AND,(@R1,EQ,'WYL.'),AND,
 002168 5900 72B8/47D0_      023F8                                   (@R1+6,EQ,'.'),AND,(@R1+10,EQ,'.')),BEGIN
 00218A D201 4003 1004 00003 00004 16532  1                      MVC   KWRGRP,@R1+4        SET DATA SET ACCOUNT
 002190 D202 4000 1007 00000 00007 16533  1                      MVC   KWRUSER,@R1+7
 002196                            16534                       END
 002196 705A/705A/705A_02196 0216E 16538                       ELSE  BEGIN               SET DEFAULT OWNER ACCOUT
 00219A D201 4003 72FC 00003 0243C 16555  1                      MVC   KWRGRP,=CL2'GS'
 0021A0 D202 4000 7322 00000 02462 16556  1                      MVC   KWRUSER,=CL3'WYL'
 0021A6                            16557                       END
                                   16561
                                   16562                       COMMENT                   CHECK PASSWORD
1NFILE    (NFIL2025) (12:49) (15MAR04) OSRENAME Command                                                                     Page   48
0Current Usings:  (KWR,R4) (FFINFO,R5) (FFINFO,R6) (*,R7) (GETPWWA-(4+36),R8) (CP,R11) (CV,R12)
0Loc    Object Code    Addr1 Addr2  Stmt Lv Lineno    Source Statement           (Hibal 5, Asmedit 3.3)  HLASM R4.0  2004/03/15 12.49
+___    ______ ____    _____ _____  ____ __ ______    ______ _________
00021A6 1B00                       16563                       CLEAR R0                  GETKWR OPTION
 0021A8 4110 4000            00000 16567                       LA    R1,KWR
 0021AC 58E0 72C0/0DEE       02400 16568                       VCALL GETKWR
 0021B2 1BFF                       16572                       CLEAR R15                 RETURNS ONLY IF OK
                                   16576
                                   16577                       COMMENT                   IF PASSWORD OK, ADD TO OPTIONS
 0021B4 9680 6002      00002       16578                       SET   FFFPASSW            PASSWORD IS OK
                                   16584
 0021B8 18D8/9808 D004_            16585                       PEND  ,
 DROP   GETPWWA-(4+36),R8
 DROP   *,R7
 DROP   FFINFO,R6                  16610                       DROP  R6
 DROP   KWR,R4                     16617                       DROP  R4
1NFILE    (NFIL2025) (12:49) (15MAR04) SCRATCH Command                                                                      Page   49
0Current Usings:  (FFINFO,R5) (CP,R11) (CV,R12)
0Loc    Object Code    Addr1 Addr2  Stmt Lv Lineno    Source Statement           (Hibal 5, Asmedit 3.3)  HLASM R4.0  2004/03/15 12.49
+___    ______ ____    _____ _____  ____ __ ______    ______ _________
0                                  16626              ¿þþþþþþþþþþþþþþþþþþþþþþþþþþþþþþþþþþþþþþþþþþþþþþþþþþþþþþþþþþþþþþþþþþþþþÜ
                                   16627              Ÿ                                                                     Ÿ
                                   16628              Ÿ  SCRATCH -- SCRATCH command.                                        Ÿ
                                   16629              Ÿ                                                                     Ÿ
                                   16630              Ÿ  updated by ch 6/91.  some prep was done so that                    Ÿ
                                   16631              Ÿ  command can handle future wings expansion.  it                     Ÿ
                                   16632              Ÿ  allows net/samson to not be dependent on DSNWA.                    Ÿ
                                   16633              Ÿ                                                                     Ÿ
                                   16634              Ÿ  Modified 10/94 by MPD to add Wings support.                        Ÿ
                                   16635              Ÿ                                                                     Ÿ
                                   16636              Ÿ                                                                     Ÿ
                                                      ¾þþþþþþþþþþþþþþþþþþþþþþþþþþþþþþþþþþþþþþþþþþþþþþþþþþþþþþþþþþþþþþþþþþþþþ»
00021C6 50E0 D000/9008_      00000 16637              SCRATCH  XPROC ,
 USING  *,R7
                                   16677                       COMMENT                   Get file info dsect
 0021E0 58E0 71C8/0DEE       023A8 16678                       VCALL MKFFINFO
 0021E6 5860 BE54            00E54 16682                       L     R6,CPFINFOP
 USING  FFINFO,R6                  16683                       USING FFINFO,R6
                                   16692
                                   16693                       COMMENT                   Scan file name, command
 0021EA 58E0 71CC/0DEE       023AC 16694                       VCALL DOFNAME
 0021F0 5810 B08C/1B00_      0008C 16698                       SCAN  SCRPRT
 002242 58E0 71D8/0DEE       023B8 16730                       SCANCHK
 002248 58E0 71DC/0DEE       023BC 16735                       VCALL FNAMEFIN            Finish up dsnames
 00224E 58E0 71E0/0DEE       023C0 16739                       VCALL NRESOLVE            (needed for set prefix)
                                   16743              *
                                   16744              *
                                   16745                       COMMENT                   If samson file scratch
 002254 9503 6000/4770_00000       16746                       IF    FFFSAM,BEGIN
 00225C 58E0 7228/0DEE       02408 16761  1                      VCALL SAMSCR              Do Samson SCRATCH
 002262 4770 C7DA            007DA 16765  1                      BNZ   CVABORT             It didn't work, scram
 002266 58E0 722C/0DEE       0240C 16766  1                      VCALL SEGDSN
 00226C 4110 725E/4100_      0243E 16770  1                      TSEG  'scratched '
 00227E D603 608C 608C_0008C 0008C 16788  1                      IF    (FFHOSTL,NZ),'TSEG "on "; TSEG FFHOST,L:FFHOSTL,T'
 0022AC 47F0 7196            02376 16855  1                      B     SCRSET
 0022B0                            16856                       END
                                   16860              *
                                   16861              *
                                   16862                       COMMENT                   If network file scratch
 0022B0 9504 6000/4770_00000       16863                       IF    FFFNET,BEGIN
 0022B8 58E0 7234/0DEE       02414 16878  1                      VCALL NETSCR              Do network SCRATCH
 0022BE 4770 C7DA            007DA 16882  1                      BNZ   CVABORT             It didn't work, scram
 0022C2 58E0 722C/0DEE       0240C 16883  1                      VCALL SEGDSN
 0022C8 4110 725E/4100_      0243E 16887  1                      TSEG  'scratched '
 0022DA D603 608C 608C_0008C 0008C 16905  1                      IF    (FFHOSTL,NZ),'TSEG "on "; TSEG FFHOST,L:FFHOSTL,T'
 002308 47F0 7196            02376 16972  1                      B     SCRSET
 00230C                            16973                       END
                                   16977
                                   16978                       COMMENT                   If WINGS file scratch
 00230C 9501 6000/4770_00000       16979                       IF    FFFWINGS,BEGIN
 002314 58E0 7238/0DEE       02418 16994  1           SCRTOK     VCALL WGSCRTCH            Do Wings SCRATCH
 00231A 4780 7196            02376 16998  1                      IF    NZ,BEGIN
 00231E D507 71B8 B886_02398 00886 17009  2                        IF (CPERRID,EQ,'NOMEMBER'),BEGIN
1NFILE    (NFIL2025) (12:49) (15MAR04) SCRATCH Command                                                                      Page   50
0Current Usings:  (FFINFO,R5) (FFINFO,R6) (*,R7) (CP,R11) (CV,R12)
0Loc    Object Code    Addr1 Addr2  Stmt Lv Lineno    Source Statement           (Hibal 5, Asmedit 3.3)  HLASM R4.0  2004/03/15 12.49
+___    ______ ____    _____ _____  ____ __ ______    ______ _________
0002328 9180 BD55/4710_00D55       17026  3                          IF    CPFDUMP,CVABORT
 002330 4110 7268/4100_      02448 17044  3                          SETMSG 'Scratch the entire library'
 002338 58E0 723C/0DEE       0241C 17048  3                          VCALL YESREQ              Go prompt user
 00233E 9608 6002      00002       17052  3                          SET   FFFPDS              Set flag for dscratch
 002342 D707 B886 B886 00886 00886 17058  3                          CLEAR CPERRID
 002348 47F0 7134            02314 17065  3                          B     SCRTOK              Go do scratch
 00234C                            17066  2                        END
                                   17070  2           *
                                   17071  2           *        IF (CPERRID,EQ,'NOTPDS  '),BEGIN
                                   17072  2           *        IF    CPFDUMP,CVABORT
                                   17073  2           *        SETMSG 'Scratch'
                                   17074  2           *        VCALL YESREQ              Go prompt user
                                   17075  2           *
                                   17076  2           *   Remove the member name from the fully-qualified file
                                   17077  2           *   name and resubmit the command.
                                   17078  2           *
                                   17079  2           *        L     R0,FFRNAMEL
                                   17080  2           *        LA    R1,FFRNAME
                                   17081  2           *        VCALL RETFNAME
                                   17082  2           *        ST    R0,FFRNAMEL
                                   17083  2           *        CLEAR CPERRID
                                   17084  2           *        B     SCRTOK              Try scratch again
                                   17085  2           *        END
                                   17086  2           *
 00234C D507 71C0 B886_023A0 00886 17087  2                        IF (CPERRID,EQ,'NOTYOURS'),BEGIN
                                   17104  3                          COMMENT                   IF NO ACCESS, ASK FOR PASSWORD
 002356 1B00/41F0 B050_            17105  3                          TWRITE
 002362 D707 B886 B886 00886 00886 17130  3                          CLEAR CPERRID
 002368 58E0 7240/0DEE       02420 17137  3                          ACALL GETPASSW
 00236E 47F0 7134            02314 17141  3                          B     SCRTOK
 002372                            17142  2                        END
 002372 47F0 C7D6            007D6 17146  2                        B     CVERROR
 002376                            17147  1                      END
 002376                            17151                       END
                                   17155              *
                                   17156              * Scratch completed ok. Set the prefix if requested.
                                   17157              * WYLBUR used to set the prefix regardless of successful
                                   17158              * completion, but that's probably not a good idea.
                                   17159              *
                                   17160              *    MPD 10/19/94
                                   17161              *
 002376 9180 BD52/47E0_00D52       17162              SCRSET   IF    CPLFLG3.CPFSET,'VCALL SETPFXNS'  Set prefix
 002384 47F0 C7DE            007DE 17188                       B     CVNEXT
 002388 18D8/9808 D004_            17189                       PEND  ,
 DROP   *,R7
                                   17209                       QLTORG ,
 DROP   FFINFO,R6                  17259                       DROP  R6
1NFILE    (NFIL2025) (12:49) (15MAR04) SCKWs and Remote MVCs                                                                Page   51
0Current Usings:  (FFINFO,R5) (CP,R11) (CV,R12)
0Loc    Object Code    Addr1 Addr2  Stmt Lv Lineno    Source Statement           (Hibal 5, Asmedit 3.3)  HLASM R4.0  2004/03/15 12.49
+___    ______ ____    _____ _____  ____ __ ______    ______ _________
0                                  17267                       ¿þþþþþþþþþþþþþþþþþþþþþþþþþþþþÜ
                                   17268                       Ÿ  Scratch command options.  Ÿ
                                   17269                       ¾þþþþþþþþþþþþþþþþþþþþþþþþþþþþ»
 0024BC E4D5C3C1E3D3C740_          17270              SCRPRT   SCKW  UNCATLG,FNAMEKW,A             (Compatability)
 0024E4 E4D5C3C1E3C1D3D6_          17285                       SCKW  UNCATALOG,FNAMEKW,A           (Compatability)
 00250C D5D6C3C1E3C1D3D6_          17300                       SCKW  NOCATALOG,FNAMEKW,A
 002534 D7C4E24040404040_          17315                       SCKW  PDS,SCRPDS
 00255C C5E7D7C4E3404040_          17330                       SCKW  EXPDT,SCREXPDT,A
 002584 C5D9C1E2C5404040_          17345                       SCKW  ERASE,FNAMEKW,A
 0025AC D9C5E3C1C9D54040_          17360                       SCKW  RETAIN,FNAMEKW,A
 0025D4 D5D6D9C5E3C1C9D5_          17375                       SCKW  NORETAIN,FNAMEKW,A
 0025FC E2C5E34040404040_          17390                       SCKW  SET,SSNSET
 002624 D5D6E2C5E3404040_          17405                       SCKW  NOSET,SSNNOSET,A
 00264C 4040404040404040_          17420                       SCKW  ,V(FNAMPSH),PUSH
 002674 4040404040404040_          17435                       SCKW  ,V(QUIETPSH),PUSH
 00269C 4040404040404040_          17450                       SCKW  ,V(NOTVALID)
                                   17465
 0026C4 50E0 D000/9008_      00000 17466              SCRPDS   PROC
 USING  *,R7
 0026DE 5860 BE54            00E54 17505                       L     R6,CPFINFOP
 USING  FFINFO,R6                  17506                       USING FFINFO,R6
 0026E2 9608 6002      00002       17515                       SET   FFFPDS
 DROP   FFINFO,R6                  17521                       DROP  R6
 0026E6 18D8/9808 D004_            17528                       PEND
 DROP   *,R7
                                   17548
 0026F4 50E0 D000/9008_      00000 17549              SCREXPDT PROC
 USING  *,R7
 00270E 9120 B3BE/4710_003BE       17588                       IF    ~CPSFSPR,'VCALL NOTVALID'  priv'd request
 00271C 58E0 7206/0DEE       02914 17612                       ACALL FNAMEKW
 002722 18D8/9808 D004_            17616                       PEND
 DROP   *,R7
                                   17636
1NFILE    (NFIL2025) (12:49) (15MAR04) ALLOCATE Command                                                                     Page   52
0Current Usings:  (FFINFO,R5) (CP,R11) (CV,R12)
0Loc    Object Code    Addr1 Addr2  Stmt Lv Lineno    Source Statement           (Hibal 5, Asmedit 3.3)  HLASM R4.0  2004/03/15 12.49
+___    ______ ____    _____ _____  ____ __ ______    ______ _________
0                                  17639              ¿þþþþþþþþþþþþþþþþþþþþþþþþþþþþþþþþþþþþþþþþþþþþþþþþþþþþþþþþþþþþþþþþþþþþþÜ
                                   17640              Ÿ                                                                     Ÿ
                                   17641              Ÿ  ALLOCATE -- ALLOCATE command.                                      Ÿ
                                   17642              Ÿ                                                                     Ÿ
                                                      ¾þþþþþþþþþþþþþþþþþþþþþþþþþþþþþþþþþþþþþþþþþþþþþþþþþþþþþþþþþþþþþþþþþþþþþ»
0002730 50E0 D000/9008_      00000 17643              ALLOCATE XPROC ,
 USING  *,R7
 00274A D7FF BE5C BE5C_00E5C 00E5C 17683                       CLEAR (DSNWADSN,DSAVSIZ)
                                   17691                      ¿þþþþþþþþþþþþþþþþþþþþþþþþþþþþþþþþþþþþþþþþþþþþþþþþþþþþþþþþþþþþþþþþÜ
                                   17692                      Ÿ  The following code is dedicated to a happy SPIRES community.  Ÿ
                                   17693                      Ÿ   (If you don't have a happy SPIRES community, then feel free  Ÿ
                                   17694                      Ÿ   to remove it!)                                               Ÿ
                                   17695                      ¾þþþþþþþþþþþþþþþþþþþþþþþþþþþþþþþþþþþþþþþþþþþþþþþþþþþþþþþþþþþþþþþþ»
 002756 9140 B149/47E0_00149       17696                       IF    CPOFNPAS,BEGIN      SPIRES bit...
 00275E D205 BC94 BCA8 00C94 00CA8 17711  1                      OSCSAVE
 002764 1B11/58E0 71CE_            17713  1                      OSCAN ,                   (Dsname)
 00276C D503 71D2 F000_0291C 00000 17723  1                      IF    (@R15,EQ,'ORV.'),'VCALL ORVCPASS'  Send to SPIRES
 00277C D205 BCA8 BC94 00CA8 00C94 17748  1                      OSCRSTR
 002782                            17750                       END
                                   17754
                                   17755                       COMMENT                   Get file info dsect
 002782 58E0 71DA/0DEE       02924 17756                       VCALL MKFFINFO
 002788 5860 BE54            00E54 17760                       L     R6,CPFINFOP
 USING  FFINFO,R6                  17761                       USING FFINFO,R6
                                   17770
                                   17771                       COMMENT                   Scan file name, command
 00278C 58E0 71DE/0DEE       02928 17772                       VCALL DOFNAME
                                   17776
 002792 9620 BD58      00D58       17777                       SET   CPFVER              Verify is the default
 002796 5810 B08C/1B00_      0008C 17783                       SCAN  ALLOPRT
 0027E8 58E0 71EA/0DEE       02934 17815                       SCANCHK
 0027EE 58E0 71EE/0DEE       02938 17820                       VCALL FNAMEFIN            Finish up dsnames
 0027F4 58E0 71F2/0DEE       0293C 17824                       VCALL NRESOLVE            Resolve to exact filename
                                   17828
 0027FA 9501 6000/4780_00000       17829                       IF    ~FFFWINGS,BEGIN
 002802 4110 71F6/4100_      02940 17844  1                      ERROR 'Allocate is only valid for MVS files'
 00280E                            17851                       END
                                   17855
                                   17856            C          IF    ((FFRNAMEL,EQ,15),AND,
 00280E D503 721A 6214_02964 00214                                   (FFRNAME+11,EQ,'MAIL')),BEGIN
 002822 4110 723C/4100_      02986 17890  1                      ERROR 'Please use the SET MAIL command to open a mailbox.'
 00282E                            17897                       END
                                   17901              *
                                   17902              *
 00282E 58E0 7222/0DEE       0296C 17903              DOALLO   VCALL WGSALLOC            Do Wings Allocate
 002834 4780 7188            028D2 17907                       IF    NZ,BEGIN
 002838 D507 71AE B886_028F8 00886 17918  1                      IF (CPERRID,EQ,'NOTYOURS'),BEGIN
                                   17935  2                        COMMENT                   IF NO ACCESS, ASK FOR PASSWORD
 002842 1B00/41F0 B050_            17936  2                        TWRITE
 00284E D707 B886 B886 00886 00886 17961  2                        CLEAR CPERRID
 002854 58E0 722A/0DEE       02974 17968  2                        ACALL GETPASSW
 00285A 47F0 70E4            0282E 17972  2                        B     DOALLO
 00285E                            17973  1                      END
1NFILE    (NFIL2025) (12:49) (15MAR04) ALLOCATE Command                                                                     Page   53
0Current Usings:  (FFINFO,R5) (FFINFO,R6) (*,R7) (CP,R11) (CV,R12)
0Loc    Object Code    Addr1 Addr2  Stmt Lv Lineno    Source Statement           (Hibal 5, Asmedit 3.3)  HLASM R4.0  2004/03/15 12.49
+___    ______ ____    _____ _____  ____ __ ______    ______ _________
000285E D506 726E B886_029B8 00886 17977  1                      IF (CPERRID,EQ,'DIFFVOL'),BEGIN
 002868 1B00/41F0 B050_            17994  2                        TWRITE ,
 002874 D707 B886 B886 00886 00886 18019  2                        CLEAR CPERRID
 00287A 4110 7275/4100_      029BF 18026  2                        TSEG  'Do you want to use '
 00288C 4110 6090/5800_      00090 18044  2                        TSEG  FFHOST,L:FFHOSTL
 00289E 4110 7288/4100_      029D2 18072  2                        SETMSG ' anyway'
 0028A6 58E0 7232/0DEE       0297C 18076  2                        VCALL YESRTN
 0028AC 4780 717C            028C6 18080  2                        IF    NZ,BEGIN
 0028B0 4110 71B6/4100_      02900 18091  3                          TSEG  'No action taken.'
 0028C2 47F0 C7DE            007DE 18109  3                          B     CVNEXT
 0028C6                            18110  2                        END
 0028C6 9640 6002      00002       18114  2                        SET   FFFDIFFV
 0028CA 47F0 70E4            0282E 18120  2                        B     DOALLO
 0028CE                            18121  1                      END
 0028CE 47F0 C7D6            007D6 18125  1                      B     CVERROR
 0028D2                            18126                       END
                                   18130              *
                                   18131              * Allocate completed ok. Set the prefix if requested.
                                   18132              * WYLBUR used to set the prefix regardless of successful
                                   18133              * completion, but that's probably not a good idea.
                                   18134              *
                                   18135              *    MPD 11/14/94
                                   18136              *
 0028D2 9180 BD52/47E0_00D52       18137                       IF    CPLFLG3.CPFSET,'VCALL SETPFXNS'  Set prefix
 0028E0 47F0 C7DE            007DE 18162                       B     CVNEXT
 0028E4 18D8/9808 D004_            18163                       PEND  ,
 DROP   *,R7
                                   18183                       QLTORG ,
 DROP   FFINFO,R6                  18223                       DROP  R6
1NFILE    (NFIL2025) (12:49) (15MAR04) ALLOCATE Command                                                                     Page   54
0Current Usings:  (FFINFO,R5) (CP,R11) (CV,R12)
0Loc    Object Code    Addr1 Addr2  Stmt Lv Lineno    Source Statement           (Hibal 5, Asmedit 3.3)  HLASM R4.0  2004/03/15 12.49
+___    ______ ____    _____ _____  ____ __ ______    ______ _________
00029DC E3D9C1C3D2E24040_          18231              ALLOPRT  SCKW TRACKS,FNAMEOPT,A
 002A04 E2C5D8E4C5D5E3C9_          18246                       SCKW SEQUENTIAL,FNAMEKW,A
 002A2C C2D3D6C3D2E24040_          18261                       SCKW BLOCKS,FNAMEOPT,A
 002A54 C4C9D9C5C3E3D6D9_          18276                       SCKW DIRECTORY,FNAMEOPT,A
 002A7C D4C5D4C2C5D9E240_          18291                       SCKW MEMBERS,FNAMEOPT,A
 002AA4 D2C9D3D6C2E8E3C5_          18306                       SCKW KILOBYTES,FNAMEOPT,A
 002ACC D2C2E8E3C5E24040_          18321                       SCKW KBYTES,FNAMEOPT,A
 002AF4 D2C2404040404040_          18336                       SCKW KB,FNAMEOPT
 002B1C D4C5C7C1C2E8E3C5_          18351                       SCKW MEGABYTES,FNAMEOPT,A
 002B44 D4C2E8E3C5E24040_          18366                       SCKW MBYTES,FNAMEOPT,A
 002B6C D4C2404040404040_          18381                       SCKW MB,FNAMEOPT
 002B94 C3E8D3C9D5C4C5D9_          18396                       SCKW CYLINDERS,FNAMEOPT,A
 002BBC E2C5C3D6D5C4C1D9_          18411                       SCKW SECONDARY,FNAMEOPT,A
 002BE4 C3C1E3D3C7404040_          18426                       SCKW CATLG,FNAMEKW,A
 002C0C C3C1E3C1D3D6C740_          18441                       SCKW CATALOG,FNAMEKW,A
 002C34 D5D6C3C1E3C1D3D6_          18456                       SCKW NOCATALOG,FNAMEKW,A
 002C5C 4040404040404040_          18471                       SCKW ,V(FNAMPSHF),PUSH
 002C84 4040404040404040_          18486                       SCKW ,FNAMPSHS,PUSH
 002CAC 4040404040404040_          18501                       SCKW ,V(VERPSH),PUSH
 002CD4 4040404040404040_          18516                       SCKW ,V(QUIETPSH),PUSH
 002CFC 4040404040404040_          18531                       SCKW ,V(SMSPSH),PUSH
 002D24 4040404040404040_          18546                       SCKW ,V(NOTVALID)
                                   18561
                                   18562                       QLTORG
1NFILE    (NFIL2025) (12:49) (15MAR04) CATALOG/UNCATALOG/RECATALOG Commands                                                 Page   55
0Current Usings:  (FFINFO,R5) (CP,R11) (CV,R12)
0Loc    Object Code    Addr1 Addr2  Stmt Lv Lineno    Source Statement           (Hibal 5, Asmedit 3.3)  HLASM R4.0  2004/03/15 12.49
+___    ______ ____    _____ _____  ____ __ ______    ______ _________
0                                  18576              ¿þþþþþþþþþþþþþþþþþþþþþþþþþþþþþþþþþþþþþþþþþþþþþþþþþþþþþþþþþþþþþþþþþþþþþÜ
                                   18577              Ÿ                                                                     Ÿ
                                   18578              Ÿ  CATALOG -- CATALOG/UNCATALOG/RECATALOG commands.                   Ÿ
                                   18579              Ÿ                                                                     Ÿ
                                                      ¾þþþþþþþþþþþþþþþþþþþþþþþþþþþþþþþþþþþþþþþþþþþþþþþþþþþþþþþþþþþþþþþþþþþþþ»
0002D50 50E0 D000/9008_      00000 18580              CATALOG  XPROC ,
 USING  *,R7
 002D6A D7FF BE5C BE5C_00E5C 00E5C 18620                       CLEAR (DSNWADSN,DSAVSIZ)
 002D76 95E4 BD24/4770_00D24       18628                       IF    (CPCMNM,EQ,'U'),'SET CPFUNCAT'  Uncatalog
 002D82 95D9 BD24/4770_00D24       18656                       IF    (CPCMNM,EQ,'R'),'SET CPFRECAT'  Recatalog
                                   18684
                                   18685                       COMMENT                   Get file info dsect
 002D8E 58E0 7156/0DEE       02EC0 18686                       VCALL MKFFINFO
 002D94 5860 BE54            00E54 18690                       L     R6,CPFINFOP
 USING  FFINFO,R6                  18691                       USING FFINFO,R6
                                   18700
                                   18701                       COMMENT                   Scan file name, command
 002D98 58E0 715A/0DEE       02EC4 18702                       VCALL DOFNAME
                                   18706
 002D9E 9110 BD56/47E0_00D56       18707                       IF (CPFUNCAT),BEGIN
 002DA6 5810 B08C/1B00_      0008C 18722  1                      SCAN  UNCATPRT
 002DF8                            18754                       END
 002DF8 7092/47F0 70E4 02DF8 02DA4 18758                       ELSE  BEGIN
 002DFC 5810 B08C/1B00_      0008C 18769  1                      SCAN  CATLGPRT
 002E4E                            18801                       END
 002E4E 58E0 716A/0DEE       02ED4 18805                       SCANCHK
 002E54 58E0 716E/0DEE       02ED8 18810                       VCALL FNAMEFIN            Finish up dsnames
 002E5A 58E0 7172/0DEE       02EDC 18814                       VCALL NRESOLVE            Resolve to exact filename
                                   18818
 002E60 9201 6000      00000       18819                       SET   FFFWINGS
                                   18825
                                   18826            C          IF    ((FFRNAMEL,EQ,15),AND,
 002E64 D503 7176 6214_02EE0 00214                                   (FFRNAME+11,EQ,'MAIL')),BEGIN
 002E78 4110 7184/4100_      02EEE 18860  1                      ERROR 'Please use the SET MAIL command to open a mailbox.'
 002E84                            18867                       END
                                   18871
 002E84 1B00                       18872                       CLEAR R0                  Assume CATALOG
 002E86 9110 BD56/47E0_00D56       18876                       IF    (CPFUNCAT),'LA R0,1'      Positive = UNCAT
 002E92 9108 BD56/47E0_00D56       18897                       IF    (CPFRECAT),'BCTR R0,R0'   Negative = RECAT
 002E9C 58E0 717E/0DEE       02EE8 18918                       VCALL WGSCATLG            Do Wings Catalog
 002EA2 4780 7140            02EAA 18922                       IF    NZ,BEGIN
 002EA6 47F0 C7D6            007D6 18933  1                      B     CVERROR
 002EAA                            18934                       END
                                   18938
 002EAA 47F0 C7DE            007DE 18939                       B     CVNEXT
 002EAE 18D8/9808 D004_            18940                       PEND  ,
 DROP   *,R7
                                   18960                       QLTORG ,
 DROP   FFINFO,R6                  18985                       DROP  R6
1NFILE    (NFIL2025) (12:49) (15MAR04) CATALOG/UNCATALOG/RECATALOG Commands                                                 Page   56
0Current Usings:  (FFINFO,R5) (CP,R11) (CV,R12)
0Loc    Object Code    Addr1 Addr2  Stmt Lv Lineno    Source Statement           (Hibal 5, Asmedit 3.3)  HLASM R4.0  2004/03/15 12.49
+___    ______ ____    _____ _____  ____ __ ______    ______ _________
0002F20 E4D5C9E340404040_          18993              CATLGPRT SCKW UNIT,FNAMEOPT,A
 002F48 C6C9D3C5E2C5D840_          19008                       SCKW FILESEQ,FNAMEOPT,A
 002F70 4040404040404040_          19023              UNCATPRT SCKW ,V(FNAMPSH),PUSH
 002F98 4040404040404040_          19038                       SCKW ,V(QUIETPSH),PUSH
 002FC0 4040404040404040_          19053                       SCKW ,V(NOTVALID)
                                   19068
                                   19069                       QLTORG
1NFILE    (NFIL2025) (12:49) (15MAR04) PRELIMINARY FILE NAME SCANNING                                                       Page   57
0Current Usings:  (FFINFO,R5) (CP,R11) (CV,R12)
0Loc    Object Code    Addr1 Addr2  Stmt Lv Lineno    Source Statement           (Hibal 5, Asmedit 3.3)  HLASM R4.0  2004/03/15 12.49
+___    ______ ____    _____ _____  ____ __ ______    ______ _________
0                                  19083              ¿þþþþþþþþþþþþþþþþþþþþþþþþþþþþþþþþþþþþþþþþþþþþþþþþþþþþþþþþþþþþþþþþþþþþþÜ
                                   19084              Ÿ                                                                     Ÿ
                                   19085              Ÿ                                                                     Ÿ
                                   19086              Ÿ  FILE NAME AND FILE SYSTEM PRELIMINARY SCANNING.                    Ÿ
                                   19087              Ÿ                                                                     Ÿ
                                   19088              Ÿ  THESE ROUTINES SCAN THE FILE NAME.                                 Ÿ
                                   19089              Ÿ  THE NAMES ARE NOT PROCESSED HERE.  FILE NAMES                      Ÿ
                                   19090              Ÿ  ARE RESOLVED BASED ON FILE SYSTEM TYPE BY EACH                     Ÿ
                                   19091              Ÿ  SEPARATE OPEN ROUTINE.  HERE WE MERELY                             Ÿ
                                   19092              Ÿ  COLLECT THE FILE NAME,  FILE SYSTEM, AND                           Ÿ
                                   19093              Ÿ  FILE OPTIONS.                                                      Ÿ
                                   19094              Ÿ                                                                     Ÿ
                                                      ¾þþþþþþþþþþþþþþþþþþþþþþþþþþþþþþþþþþþþþþþþþþþþþþþþþþþþþþþþþþþþþþþþþþþþþ»
1NFILE    (NFIL2025) (12:49) (15MAR04) PRELIMINARY FILE NAME SCANNING                                                       Page   58
0Current Usings:  (FFINFO,R5) (CP,R11) (CV,R12)
0Loc    Object Code    Addr1 Addr2  Stmt Lv Lineno    Source Statement           (Hibal 5, Asmedit 3.3)  HLASM R4.0  2004/03/15 12.49
+___    ______ ____    _____ _____  ____ __ ______    ______ _________
0                                  19096              *
                                   19097              *
                                   19098              *  MKFFINFO - CREATE (MAKE) AND INITIALIZE A FFINFO
                                   19099              *        DSECT WORK AREA ON THE HEAP.
                                   19100              *
                                   19101              *  ON EXIT:
                                   19102              *    CPFINFOP - CONTAINS ADDRESS OF THE FFINFO DSECT
                                   19103              *
                                   19104              *  NOTE:
                                   19105              *  THIS ROUTINE MAY BE CALLED MULTIPLE TIMES, ONLY
                                   19106              *  ONE DSECT WILL BE CREATED.  THIS IS SO IF ONE
                                   19107              *  CAN BE AUTOMATICALLY OR EXPLICITLY CREATED FOR THE
                                   19108              *  CALLING ROUTINES.
                                   19109              *
                                   19110              *  THE DSECT IS INITIALIZED TO ZEROS. WITH THE EXCEPTION
                                   19111              *  THAT THE PREVIOUS FILE NAME/HOST/TYPE IS SAVED IS THE
                                   19112              *  WORKAREA.  (NOTE; THE PREVIOUS REALLY IS THE CURRENT
                                   19113              *  FILE NAME/HOST/TYPE. BUT IT MAY SOON BE PREVIOUS IF
                                   19114              *  THIS IS A 'USE XYZ ..' COMMAND)
                                   19115              *
                                   19116              *
 002FE8 50E0 D000/9008_      00000 19117              MKFFINFO XPROC ,
 USING  *,R7
                                   19157
                                   19158                       COMMENT                   IF NEEDED, MAKE FFINFO DSECT
 003002 D503 71EA BE54_031EC 00E54 19159                       IF    (CPFINFOP,EQ,0),BEGIN
                                   19177  1
                                   19178  1                      COMMENT                   GET HEAP SPACE
 00300C 5800 71EE            031F0 19179  1                      L     R0,=A(L'FFINFO)
 003010 58E0 71F2/0DEE       031F4 19180  1                      VCALL GETHEAP
 003016 5010 BE54            00E54 19184  1                      ST    R1,CPFINFOP
                                   19185  1
 00301A 1861                       19186  1                      LR    R6,R1
 USING  FFINFO,R6                  19187  1                      USING FFINFO,R6
                                   19196  1
                                   19197  1                      COMMENT                   INITIALIZE
 00301C 4120 6000            00000 19198  1                      LA    R2,FFINFO
 003020 4130 03A0            003A0 19199  1                      LA    R3,L'FFINFO
 003024 1B55                       19200  1                      CLEAR R5
 003026 0E24                       19204  1                      MVCL  R2,R4               CLEAR FFINFO DSECT
                                   19205  1                      COMMENT                   SET PREVIOUS FILE NAME/HOST/TYPE
 003028 D200 6003 B626 00003 00626 19206  1                      MVC   FFPTYPE,CPAFTYPE
 00302E D203 6298 B628 00298 00628 19207  1                      MVC   FFPNAMEL,CPAFNAMEL
 003034 D27F 629C B62C 0029C 0062C 19208  1                      MVC   FFPNAME,CPAFNAME
 00303A D203 631C B6AC 0031C 006AC 19209  1                      MVC   FFPHOSTL,CPAHOSTL
 003040 D27F 6320 B6B0 00320 006B0 19210  1                      MVC   FFPHOST,CPAHOST
                                   19211  1
 003046                            19212                       END   , NEED NEW FFINFO DSECT
                                   19216
 003046 18D8/9808 D004_            19217                       PEND  ,
 DROP   *,R7
1NFILE    (NFIL2025) (12:49) (15MAR04) PRELIMINARY FILE NAME SCANNING                                                       Page   59
0Current Usings:  (FFINFO,R5) (FFINFO,R6) (CP,R11) (CV,R12)
0Loc    Object Code    Addr1 Addr2  Stmt Lv Lineno    Source Statement           (Hibal 5, Asmedit 3.3)  HLASM R4.0  2004/03/15 12.49
+___    ______ ____    _____ _____  ____ __ ______    ______ _________
0                                  19238              *
                                   19239              *
                                   19240              *  DOFNAME - SCAN FILE NAME
                                   19241              *
                                   19242              *  ON ENTRY:
                                   19243              *  SCAN CONTROL BLOCK POINTS TO NAME TO SCAN
                                   19244              *
                                   19245              *  ALL ERRORS EXIT VIA CVERROR
                                   19246              *
                                   19247              *
 003054 50E0 D000/9008_      00000 19248              DOFNAME  XPROC ,
 USING  *,R7
                                   19288
                                   19289                       COMMENT                   GET FILE INFO ADDR
 00306E 58E0 718A/0DEE       031F8 19290                       ACALL MKFFINFO            CREATE FFINFO DSECT, IF NEEDED
 003074 5860 BE54            00E54 19294                       L     R6,CPFINFOP
                                   19295                       USING FFINFO,R6
                                   19297
                                   19298                       COMMENT                   SCAN FILE NAME
                                   19299                       COMMENT                   DO BLANK DELIMITED SCAN
 003078 5810 B08C/1B00_      0008C 19300                       SCANSTR ,                 SKIP=' ', STOP=' ,=;'
 0030BE 58E0 7192/0DEE       03200 19329                       SCANCHK ,
                                   19334
                                   19335                       COMMENT                   IF NORMAL SCAN
 0030C4 12FF/4770 7086_            19336                       IF    ((R15,Z),AND,(R0,POS)),BEGIN
 0030D0 957F 1000/4780_00000       19363  1                      IF    ((@R1,EQ,'"'),OR,(@R1,EQ,'''')),'VCALL LOGCMD'
 0030E6 5000 6008            00008 19403  1                      ST    R0,FFNAMEL
 0030EA 1830                       19404  1                      LR    R3,R0
 0030EC 0630/4430 71B8_            19405  1                      DEX   R3,'MVC FFNAME(0),@R1'
 0030F2 1BFF                       19424  1                      CLEAR R15
 0030F4                            19428                       END
                                   19432                       COMMENT                   IF MISSING NAME
 0030F4 708A/708A/47F0_030F4 030C8 19433                       ELSEIF    ((R15,Z),AND,(R0,NP)),BEGIN
 003104 4110 71A4/4100_      03212 19471  1                      ERROR 'Missing file name. '
 003110                            19478                       END
                                   19482
 003110 18D8/9808 D004_            19483                       PEND
 DROP   *,R7
 DROP   FFINFO,R6                  19503                       DROP  R6
1NFILE    (NFIL2025) (12:49) (15MAR04) PRELIMINARY FILE NAME SCANNING                                                       Page   60
0Current Usings:  (FFINFO,R5) (CP,R11) (CV,R12)
0Loc    Object Code    Addr1 Addr2  Stmt Lv Lineno    Source Statement           (Hibal 5, Asmedit 3.3)  HLASM R4.0  2004/03/15 12.49
+___    ______ ____    _____ _____  ____ __ ______    ______ _________
0                                  19511              *
                                   19512              *
                                   19513              *  FNAMESCN - SCAN FILE NAME
                                   19514              *
                                   19515              *  ENTERED AS SCKW PROCESSING ROUTINE. EG. --
                                   19516              *  SCKW FROM,V(DSNSCAN)
                                   19517              *  -- WE SCAN AND SAVE THE NAME.
                                   19518              *
                                   19519              *  ON ENTRY:
                                   19520              *    SCAN CONTROL BLOCK POINTS TO FILE NAME TO SCAN
                                   19521              *
                                   19522              *  ON EXIT:
                                   19523              *    IF ERROR, R15=NZ, AND ERROR MSG PUT IN SCAN CONTROL BLOCK
                                   19524              *
                                   19525              *
                                   19526              *
 00311E 50E0 D000/9008_      00000 19527              FNAMESCN XPROC ,
 USING  *,R7
                                   19567
                                   19568                       COMMENT                   GET FILE INFO ADDR
 003138 58E0 70C0/0DEE       031F8 19569                       ACALL MKFFINFO            CREATE FFINFO DSECT, IF NEEDED
 00313E 5860 BE54            00E54 19573                       L     R6,CPFINFOP
 USING  FFINFO,R6                  19574                       USING FFINFO,R6
                                   19583
                                   19584                       COMMENT                   SCAN FILE NAME
                                   19585                       COMMENT                   DO BLANK DELIMITED SCAN
 003142 5810 B08C/1B00_      0008C 19586                       SCANSTR ,                 SKIP=' ', STOP=' ,=;'
                                   19615
                                   19616                       COMMENT                   IF SCAN ERROR,
 003188 12FF/4780 7056             19617                       IF    (R15,NZ),BEGIN      JUST RETURN R15=NZ
 00318E                            19631                       END
                                   19635                       COMMENT                   IF NORMAL SCAN
 00318E 705A/47F0 7074_0318E 0318C 19636                       ELSEIF    ((R15,Z),AND,(R0,POS)),BEGIN
 00319E 5000 6008            00008 19672  1                      ST    R0,FFNAMEL
 0031A2 1830                       19673  1                      LR    R3,R0
 0031A4 0630/4430 70F4_            19674  1                      DEX   R3,'MVC FFNAME(0),@R1'
 0031AA 1BFF                       19693  1                      CLEAR R15
 0031AC                            19697                       END
                                   19701                       COMMENT                   IF MISSING NAME
 0031AC 7078/7078/47F0_031AC 03196 19702                       ELSEIF    ((R15,Z),AND,(R0,NP)),BEGIN
 0031BC 58E0 B08C/D703_      0008C 19740  1                      SCSEGCLR
 0031C8 4110 70DA/4100_      03212 19749  1                      SCSEG 'Missing file name. '
 0031DA 58F0 70D4            0320C 19761  1                      L     R15,=F'-4'
 0031DE                            19762                       END
                                   19766
 0031DE 18D8/9808 D004_            19767                       PEND
 DROP   *,R7
 DROP   FFINFO,R6                  19787                       DROP  R6
                                   19794
                                   19795                       QLTORG
1NFILE    (NFIL2025) (12:49) (15MAR04) PRELIMINARY FILE NAME SCANNING                                                       Page   61
0Current Usings:  (FFINFO,R5) (CP,R11) (CV,R12)
0Loc    Object Code    Addr1 Addr2  Stmt Lv Lineno    Source Statement           (Hibal 5, Asmedit 3.3)  HLASM R4.0  2004/03/15 12.49
+___    ______ ____    _____ _____  ____ __ ______    ______ _________
0                                  19819              *
                                   19820              *  SCAN FILE OPTIONS
                                   19821              *
                                   19822              *
 003232 50E0 D000/9008_      00000 19823              FILEOPTS XPROC ,
 USING  *,R7
 00324C 5810 B08C/1B00_      0008C 19863                       SCAN  FOPTSPRT
 00329E 58E0 7194/0DEE       033E0 19895                       SCANCHK
 0032A4 18D8/9808 D004_            19900                       PEND
 DROP   *,R7
                                   19920
 0032B4 4040404040404040_          19921              FOPTSPRT SCKW  ,FNAMPSH,PUSH
 0032DC 4040404040404040_          19936                       SCKW  ,V(SCNINVAL)
                                   19951              *
                                   19952              *  SCAN FILE OPTIONS W/FORMAT OPTIONS INCLUDED
                                   19953              *
                                   19954              *
 003304 50E0 D000/9008_      00000 19955              FILFOPTS XPROC  ,
 USING  *,R7
 00331E 5810 B08C/1B00_      0008C 19995                       SCAN   FFOPTSPRT
 003370 58E0 70C2/0DEE       033E0 20027                       SCANCHK
 003376 18D8/9808 D004_            20032                       PEND
 DROP   *,R7
                                   20052
 003384 4040404040404040_          20053              FFOPTSPRT SCKW ,FNAMPSHF,PUSH
 0033AC 4040404040404040_          20068                       SCKW  ,V(SCNINVAL)
                                   20083
                                   20084                       QLTORG
1NFILE    (NFIL2025) (12:49) (15MAR04) PRELIMINARY FILE NAME SCANNING                                                       Page   62
0Current Usings:  (FFINFO,R5) (CP,R11) (CV,R12)
0Loc    Object Code    Addr1 Addr2  Stmt Lv Lineno    Source Statement           (Hibal 5, Asmedit 3.3)  HLASM R4.0  2004/03/15 12.49
+___    ______ ____    _____ _____  ____ __ ______    ______ _________
0                                  20102              *
                                   20103              *
                                   20104              *   ROUTINES TO DO PRELIMINARY SCANNING OF FILE OPTIONS
                                   20105              *
                                   20106              *
                                   20107              *   FNAMPRTF - FILE NAME OPTIONS, FILE FORMAT OPTIONS, ETC
                                   20108              *   FNAMPRT - FILE NAME OPTIONS
                                   20109              *   FNONPRT - FILE SYSTEM NAME ONLY
                                   20110              *
                                   20111              *   NOTE:
                                   20112              *   ALL FILE OPTIONS MUST BE LISTED IN THE FOLLOWING TABLE
                                   20113              *   EVEN THOUGH NO PROCESSING OF THESE OPTIONS TAKES PLACE
                                   20114              *   HERE.
                                   20115              *
                                   20116              *
 0033EA 50E0 D000/9008_      00000 20117              FNAMPSH  XPUSHRTN FNAMPRT
 USING  *,R7
 DROP   *,R7
                                   20185
 003420 50E0 D000/9008_      00000 20186              FNAMPSHF XPUSHRTN FNAMPRTF
 USING  *,R7
 DROP   *,R7
                                   20254
 003456 50E0 D000/9008_      00000 20255              FNAMPSHS PUSHRTN FNAMPRTS
 USING  *,R7
 DROP   *,R7
                                   20322
 00348C 50E0 D000/9008_      00000 20323              FNONPSH  XPUSHRTN FNONPRT
 USING  *,R7
 DROP   *,R7
                                   20391
 0034C2 50E0 D000/9008_      00000 20392              SMSPSH   XPUSHRTN SMSPRT
 USING  *,R7
 DROP   *,R7
                                   20460              *
                                   20461              *  FILE NAME OPTIONS,  VALID ON SAVE, INCLUDES ALL OPTIONS
                                   20462              *
 0034F8 C2D3D2E2C9E9C540_          20463              FNAMPRTS SCKW  BLKSIZE,FNAMEOPT,A
 003520 4040404040404040_          20478                       SCKW  ,FNAMEKW,V(MPAREN) MATCH '(<NNNN>)' RECORD COUNT
 003548 D9C5C3C6D4404040_          20493                       SCKW  RECFM,FNAMEOPT,A
 003570 E3C9E3D3C5404040_          20508                       SCKW  TITLE,FNAMEOPT,A
 003598 C3C1E3C1D3D6C740_          20523                       SCKW  CATALOG,FNAMEKW,A
 0035C0 C3C1E3D3C7404040_          20538                       SCKW  CATLG,FNAMEKW,A
 0035E8 D5D6C3C1E3C1D3D6_          20553                       SCKW  NOCATALOG,FNAMEKW,A
 003610 D5D6C3C1E3D3C740_          20568                       SCKW  NOCATLG,FNAMEKW,A
 003638 D9C5C3C1E3C1D3D6_          20583                       SCKW  RECATALOG,FNAMEKW,A
 003660 D9C5C3C1E3D3C740_          20598                       SCKW  RECATLG,FNAMEKW,A
 003688 E4D5C3C1E3C1D3D6_          20613                       SCKW  UNCATALOG,FNAMEKW,A
 0036B0 E2E3D9C5C1D44040_          20628                       SCKW  STREAM,FNAMEKW,A
 0036D8 C5E7D7C4E3404040_          20643                       SCKW  EXPDT,FNAMEKW,A
                                   20658              *
                                   20659              *  FILE NAME OPTIONS VALID ON USE, LIST FROM ,, COPY FROM ETC
                                   20660              *  INCLUDES FORMAT TYPE OPTIONS
                                   20661              *
1NFILE    (NFIL2025) (12:49) (15MAR04) PRELIMINARY FILE NAME SCANNING                                                       Page   63
0Current Usings:  (FFINFO,R5) (CP,R11) (CV,R12)
0Loc    Object Code    Addr1 Addr2  Stmt Lv Lineno    Source Statement           (Hibal 5, Asmedit 3.3)  HLASM R4.0  2004/03/15 12.49
+___    ______ ____    _____ _____  ____ __ ______    ______ _________
0003700 C5C4C9E340404040_          20662              FNAMPRTF SCKW  EDIT,FNAMEKW,A
 003728 D5C5E6C5C4C9E340_          20677                       SCKW  NEWEDIT,FNAMEKW,A
 003750 D6D3C4C5C4C9E340_          20692                       SCKW  OLDEDIT,FNAMEKW,A
 003778 C3C1D9C440404040_          20707                       SCKW  CARD,FNAMEKW,A
 0037A0 D7D9C9D5E3404040_          20722                       SCKW  PRINT,FNAMEKW,A
 0037C8 E3C1C2E240404040_          20737                       SCKW  TABS,FNAMEKW,A
 0037F0 D5D6E3C1C2E24040_          20752                       SCKW  NOTABS,FNAMEKW,A
 003818 E4D5C6D6D9D4C1E3_          20767                       SCKW  UNFORMATTED,FNAMEKW,A
 003840 C6D6D9D4C1E3E3C5_          20782                       SCKW  FORMATTED,FNAMEKW,A
 003868 E3C5E7E3D6D5D3E8_          20797                       SCKW  TEXTONLY,FNAMEKW
 003890 E3D9C1D5E2D7C1D9_          20812                       SCKW  TRANSPARENT,FNAMEKW,A
 0038B8 C4E3D9C1D5E2D7C1_          20827                       SCKW  DTRANSPARENT,FNAMEKW,A
 0038E0 C1E2C3C9C9404040_          20842                       SCKW  ASCII,FNAMEKW,A
 003908 C5C2C3C4C9C34040_          20857                       SCKW  EBCDIC,FNAMEKW,A
 003930 E6D9C1D740404040_          20872                       SCKW  WRAP,FNAMEOPT,A
 003958 E2D7D3C9E3404040_          20887                       SCKW  SPLIT,FNAMEOPT,A
 003980 D3D9C5C3D3404040_          20902                       SCKW  LRECL,FNAMEOPT,A
 0039A8 C3D6C4C540404040_          20917                       SCKW  CODE,FNAMEOPT,A
 0039D0 C9D5E3C5C7C5D940_          20932                       SCKW  INTEGER,FNAMEKW,A
 0039F8 E4D5D5E4D4C2C5D9_          20947                       SCKW  UNNUMBERED,FNAMEKW,A
 003A20 D5E4D4C2C5D9C5C4_          20962                       SCKW  NUMBERED,FNAMEKW,A
 003A48 D5D6D5E4D4C2C5D9_          20977                       SCKW  NONUMBER,FNAMEKW,A
 003A70 E2C5D8C6D3C44040_          20992                       SCKW  SEQFLD,FNAMEOPT,A
                                   21007              *
                                   21008              *  FILE NAME OPTIONS, MINIMAL FILE NAME KEYWORDS
                                   21009              *  ALLOWS FOR USER/GROUP;  FILE HOST; FILE TYPE; ETC.
                                   21010              *
 003A98 E6C9D5C7E2404040_          21011              FNAMPRT  SCKW  WINGS,FNWINGS
 003AC0 E4D5C9E740404040_          21026                       SCKW  UNIX,FNUNIX
 003AE8 E2C1D4E2D6D54040_          21041                       SCKW  SAMSON,FNSAMSON,A
 003B10 D5C5E34040404040_          21056                       SCKW  NET,FNNET
 003B38 D6D3C4C9C2D44040_          21071                       SCKW  OLDIBM,FNOLDIBM,A
 003B60 D6D5404040404040_          21086                       SCKW  ON,FNAMEON,A
 003B88 E5D6D3E4D4C54040_          21101                       SCKW  VOLUME,FNAMEVOL,A
 003BB0 C1C3C3D6E4D5E340_          21116                       SCKW  ACCOUNT,FNAMEOPT,A
 003BD8 C1C3C3E340404040_          21131                       SCKW  ACCT,FNAMEOPT,A
 003C00 E4E2C5D940404040_          21146                       SCKW  USER,FNAMEOPT,A
 003C28 C7D9D6E4D7404040_          21161                       SCKW  GROUP,FNAMEOPT,A
 003C50 C7D9D74040404040_          21176                       SCKW  GRP,FNAMEOPT
 003C78 E3C5D4D7D6D9C1D9_          21191                       SCKW  TEMPORARY,FNAMEKW,A
 003CA0 D7E4C2D3C9C34040_          21206                       SCKW  PUBLIC,FNAMEKW,A
 003CC8 C7E4C5E2E3404040_          21221                       SCKW  GUEST,FNAMEKW,A
 003CF0 D5D6C5D5D8E4C5E4_          21236                       SCKW  NOENQUEUE,FNAMEKW,A
 003D18 4040404040404040_          21251                       SCKW  ,,END
                                   21266              *
                                   21267              *  FNONPRT ??? WHAT IS THIS FOR ?? SHOULD BE THE
                                   21268              *  EQUIVALENT OF DSNONPRT IN OPT ?? OR WHAT CHECK IT
                                   21269              *  OUT I AM NOT SURE NOW - CH FEB. 25 91
                                   21270              *
 003D40 D6D5404040404040_          21271              FNONPRT  SCKW  ON,FNAMEON,A
 003D68 4040404040404040_          21286                       SCKW  ,,END
1NFILE    (NFIL2025) (12:49) (15MAR04) PRELIMINARY FILE NAME SCANNING                                                       Page   64
0Current Usings:  (FFINFO,R5) (CP,R11) (CV,R12)
0Loc    Object Code    Addr1 Addr2  Stmt Lv Lineno    Source Statement           (Hibal 5, Asmedit 3.3)  HLASM R4.0  2004/03/15 12.49
+___    ______ ____    _____ _____  ____ __ ______    ______ _________
0                                  21302              *
                                   21303              *  SMS options for ALLOCATE and SAVE
                                   21304              *
 003D90 C4C1E3C1C3D3C1E2_          21305              SMSPRT   SCKW  DATACLAS,FNAMEOPT,A
 003DB8 D4C7D4E3C3D3C1E2_          21320                       SCKW  MGMTCLAS,FNAMEOPT,A
 003DE0 E2E3D6D9C3D3C1E2_          21335                       SCKW  STORCLAS,FNAMEOPT,A
 003E08 4040404040404040_          21350                       SCKW  ,,END
                                   21365              *
                                   21366              *  SET FILE TYPE FLAGS
                                   21367              *
                                   21368              *
 003E30 50E0 D000/9008_      00000 21369              FNWINGS  PROC  ,
 USING  *,R7
 003E4A 5860 BE54            00E54 21408                       L     R6,CPFINFOP
 USING  FFINFO,R6                  21409                       USING FFINFO,R6
 003E4E 9201 6000      00000       21418                       SET   FFFWINGS
 003E52 18D8/9808 D004_            21424                       PEND
 DROP   *,R7
 DROP   FFINFO,R6                  21444                       DROP  R6
                                   21451              *
                                   21452              *
 003E60 50E0 D000/9008_      00000 21453              FNUNIX   PROC  ,
 USING  *,R7
                                   21492                       AIF   (&$PCODE).DOUNIX
 003E7A 58E0 752E/0DEE       043A8 21493                       VCALL NOTVALID
                                   21497                       AGO   .ENDUNIX
                                   21498              .ENDUNIX ANOP
 003E80 18D8/9808 D004_            21499                       PEND
 DROP   *,R7
                                   21519                       DROP  R6
                                   21523              *
                                   21524              *
 003E8E 50E0 D000/9008_      00000 21525              FNSAMSON PROC  ,
 USING  *,R7
 003EA8 5860 BE54            00E54 21564                       L     R6,CPFINFOP
 USING  FFINFO,R6                  21565                       USING FFINFO,R6
 003EAC 9203 6000      00000       21574                       SET   FFFSAM
 003EB0 18D8/9808 D004_            21580                       PEND
 DROP   *,R7
 DROP   FFINFO,R6                  21600                       DROP  R6
                                   21607              *
                                   21608              *
 003EBE 50E0 D000/9008_      00000 21609              FNNET    PROC  ,
 USING  *,R7
 003ED8 5860 BE54            00E54 21648                       L     R6,CPFINFOP
 USING  FFINFO,R6                  21649                       USING FFINFO,R6
 003EDC 9204 6000      00000       21658                       SET   FFFNET
 003EE0 18D8/9808 D004_            21664                       PEND
 DROP   *,R7
 DROP   FFINFO,R6                  21684                       DROP  R6
                                   21691              *
                                   21692              *
 003EEE 50E0 D000/9008_      00000 21693              FNOLDIBM PROC  ,
 USING  *,R7
1NFILE    (NFIL2025) (12:49) (15MAR04) PRELIMINARY FILE NAME SCANNING                                                       Page   65
0Current Usings:  (FFINFO,R5) (*,R7) (CP,R11) (CV,R12)
0Loc    Object Code    Addr1 Addr2  Stmt Lv Lineno    Source Statement           (Hibal 5, Asmedit 3.3)  HLASM R4.0  2004/03/15 12.49
+___    ______ ____    _____ _____  ____ __ ______    ______ _________
0003F08 5860 BE54            00E54 21732                       L     R6,CPFINFOP
 USING  FFINFO,R6                  21733                       USING FFINFO,R6
 003F0C 9205 6000      00000       21742                       SET   FFFOLD
 003F10 18D8/9808 D004_            21748                       PEND
 DROP   *,R7
 DROP   FFINFO,R6                  21768                       DROP  R6
1NFILE    (NFIL2025) (12:49) (15MAR04) PRELIMINARY FILE NAME SCANNING                                                       Page   66
0Current Usings:  (FFINFO,R5) (CP,R11) (CV,R12)
0Loc    Object Code    Addr1 Addr2  Stmt Lv Lineno    Source Statement           (Hibal 5, Asmedit 3.3)  HLASM R4.0  2004/03/15 12.49
+___    ______ ____    _____ _____  ____ __ ______    ______ _________
0                                  21776              *
                                   21777              *
                                   21778              *  GOT FILE/FILE SYSTEM OPTION KEYWORD
                                   21779              *
                                   21780              *
 003F1E 50E0 D000/9008_      00000 21781              FNAMEKW  PROC  ,
 USING  *,R7
                                   21820
                                   21821                       COMMENT                   GET FILE INFO ADDR
 003F38 5860 BE54            00E54 21822                       L     R6,CPFINFOP
 USING  FFINFO,R6                  21823                       USING FFINFO,R6
                                   21832
                                   21833                       COMMENT                   SEPARATE OPTIONS BY BLANK
 003F3C 4140 6114            00114 21834                       LA    R4,FFOPTS
 003F40 5A40 6110            00110 21835                       A     R4,FFOPTSL
 003F44 9240 4000      00000       21836                       MVI   @R4,C' '
 003F48 4130 0001/5E30_      00001 21837                       INCR  R3,FFOPTSL
                                   21843
                                   21844                       COMMENT                   ADD KEYWORD TO OPTIONS STRING
 003F54 5850 6110            00110 21845                       L     R5,FFOPTSL
 003F58 1A50                       21846                       AR    R5,R0
 003F5A 5950 7474/4750_      043AC 21847                       IF    (R5,GE,L'FFOPTS),BEGIN
 003F62 58E0 B08C/D703_      0008C 21864  1                      SCSEGCLR
 003F6E 4110 7478/4100_      043B0 21873  1                      SCSEG 'File specification overflow.'
 003F80 58F0 7498            043D0 21885  1                      L     R15,=F'-4'
 003F84 47F0 706C            03FA4 21886  1                      B     FNKWEXIT
 003F88                            21887                       END
 003F88 1830                       21891                       LR    R3,R0
 003F8A 4140 6114            00114 21892                       LA    R4,FFOPTS
 003F8E 5A40 6110            00110 21893                       A     R4,FFOPTSL
 003F92 0630/1233/4740_            21894                       MOVE  R3,@R4,@R1
 003F9E 5050 6110            00110 21932                       ST    R5,FFOPTSL
                                   21933
 003FA2 1BFF                       21934                       CLEAR R15
                                   21938
 003FA4                            21939              FNKWEXIT LABEL ,
 003FA4 18D8/9808 D004_            21941                       PEND  ,
 DROP   *,R7
 DROP   FFINFO,R6                  21961                       DROP  R6
1NFILE    (NFIL2025) (12:49) (15MAR04) PRELIMINARY FILE NAME SCANNING                                                       Page   67
0Current Usings:  (FFINFO,R5) (CP,R11) (CV,R12)
0Loc    Object Code    Addr1 Addr2  Stmt Lv Lineno    Source Statement           (Hibal 5, Asmedit 3.3)  HLASM R4.0  2004/03/15 12.49
+___    ______ ____    _____ _____  ____ __ ______    ______ _________
0                                  21969              *
                                   21970              *
                                   21971              *  GOT FILE/FILE SYSTEM OPTION KEYWORD AND VALUE
                                   21972              *
                                   21973              *
 000000                00000 00008 21974              FNOWA    RECORD BEGIN
 000000                            21982  1           FNOPTLOC   DS    F
 000004                            21983  1           FNOPTLEN   DS    F
 000008                00008 00008 21984                       END
                                   21993              *
                                   21994              *
 003FB2 50E0 D000/9008_      00000 21995              FNAMEOPT PROC  FNOWA
 USING  *,R7
 USING  FNOWA-(4+36),R8
                                   22045
 003FCC 5010 8028            00000 22046                       ST    R1,FNOPTLOC
 003FD0 5000 802C            00004 22047                       ST    R0,FNOPTLEN
                                   22048
                                   22049                       COMMENT                   GET FILE INFO ADDR
 003FD4 5860 BE54            00E54 22050                       L     R6,CPFINFOP
 USING  FFINFO,R6                  22051                       USING FFINFO,R6
                                   22060
                                   22061                       COMMENT                   SEPARATE OPTIONS BY BLANK
 003FD8 4140 6114            00114 22062                       LA    R4,FFOPTS
 003FDC 5A40 6110            00110 22063                       A     R4,FFOPTSL
 003FE0 9240 4000      00000       22064                       MVI   @R4,C' '
 003FE4 4130 0001/5E30_      00001 22065                       INCR  R3,FFOPTSL
                                   22071
                                   22072                       COMMENT                   ADD KEYWORD TO OPTIONS STRING
 003FF0 5850 6110            00110 22073                       L     R5,FFOPTSL
 003FF4 1A50                       22074                       AR    R5,R0
 003FF6 5950 73E0/4750_      043AC 22075                       IF    (R5,GE,L'FFOPTS),BEGIN
 003FFE 58E0 B08C/D703_      0008C 22092  1                      SCSEGCLR
 00400A 4110 73E4/4100_      043B0 22101  1                      SCSEG 'File specification overflow.'
 00401C 58F0 7404            043D0 22113  1                      L     R15,=F'-4'
 004020 47F0 7188            04154 22114  1                      B     FNOPEXIT
 004024                            22115                       END
 004024 1830                       22119                       LR    R3,R0
 004026 4140 6114            00114 22120                       LA    R4,FFOPTS
 00402A 5A40 6110            00110 22121                       A     R4,FFOPTSL
 00402E 0630/1233/4740_            22122                       MOVE  R3,@R4,@R1
 00403A 5050 6110            00110 22160                       ST    R5,FFOPTSL
                                   22161
                                   22162                       COMMENT                   FOLLOW KEYWORD WITH '='
 00403E 4140 6114            00114 22163                       LA    R4,FFOPTS
 004042 5A40 6110            00110 22164                       A     R4,FFOPTSL
 004046 927E 4000      00000       22165                       MVI   @R4,C'='
 00404A 4130 0001/5E30_      00001 22166                       INCR  R3,FFOPTSL
                                   22172
                                   22173                       COMMENT                   SCAN FOR KEYWORD VALUE
 004056 5810 B08C/1B00_      0008C 22174                       SCAN  ,
                                   22205
                                   22206                       COMMENT                   IF SCAN OK
 0040A4 12FF/4770 7134_            22207                       IF    ((R15,Z),AND,(R0,POS)),BEGIN
1NFILE    (NFIL2025) (12:49) (15MAR04) PRELIMINARY FILE NAME SCANNING                                                       Page   68
0Current Usings:  (FFINFO,R5) (FFINFO,R6) (*,R7) (FNOWA-(4+36),R8) (CP,R11) (CV,R12)
0Loc    Object Code    Addr1 Addr2  Stmt Lv Lineno    Source Statement           (Hibal 5, Asmedit 3.3)  HLASM R4.0  2004/03/15 12.49
+___    ______ ____    _____ _____  ____ __ ______    ______ _________
00040B0 5850 6110            00110 22234  1                      L     R5,FFOPTSL
 0040B4 1A50                       22235  1                      AR    R5,R0
 0040B6 5950 73E0/4750_      043AC 22236  1                      IF    (R5,GE,L'FFOPTS),BEGIN
 0040BE 58E0 B08C/D703_      0008C 22253  2                        SCSEGCLR
 0040CA 4110 73E4/4100_      043B0 22262  2                        SCSEG 'File specification overflow.'
 0040DC 58F0 7404            043D0 22274  2                        L     R15,=F'-4'
 0040E0 47F0 7188            04154 22275  2                        B     FNOPEXIT
 0040E4                            22276  1                      END
 0040E4 1830                       22280  1                      LR    R3,R0
 0040E6 4140 6114            00114 22281  1                      LA    R4,FFOPTS
 0040EA 5A40 6110            00110 22282  1                      A     R4,FFOPTSL
 0040EE 0630/1233/4740_            22283  1                      MOVE  R3,@R4,@R1
 0040FA 5050 6110            00110 22321  1                      ST    R5,FFOPTSL
 0040FE 1BFF                       22322  1                      CLEAR R15
 004100                            22326                       END
                                   22330                       COMMENT                   IF MISSING NAME
 004100 7138/7138/47F0_04100 040A8 22331                       ELSEIF    ((R15,Z),AND,(R0,NP)),BEGIN
 004110 58E0 B08C/D703_      0008C 22369  1                      SCSEGCLR
 00411C 5810 8028            00000 22378  1                      L     R1,FNOPTLOC
 004120 5800 802C            00004 22379  1                      L     R0,FNOPTLEN
 004124 5820 B08C/58E0_      0008C 22380  1                      SCSEG (R1),(R0)
 00412E 4110 743A/4100_      04406 22398  1                      SCSEG ': missing option. '
 004140 58F0 7404            043D0 22410  1                      L     R15,=F'-4'
 004144 47F0 7188            04154 22411  1                      B     FNOPEXIT
 004148                            22412                       END
                                   22416                       COMMENT                   IF SCAN ERROR,
 004148 7180/7180/47F0_04148 04108 22417                       ELSEIF  (R15,NZ),BEGIN    JUST RETURN R15=NZ
 004152                            22442                       END
                                   22446              *
                                   22447              *
 004152 1BFF                       22448                       CLEAR R15
                                   22452
 004154                            22453              FNOPEXIT LABEL ,
 004154 18D8/9808 D004_            22455                       PEND  ,
 DROP   FNOWA-(4+36),R8
 DROP   *,R7
 DROP   FFINFO,R6                  22480                       DROP  R6
1NFILE    (NFIL2025) (12:49) (15MAR04) PRELIMINARY FILE NAME SCANNING                                                       Page   69
0Current Usings:  (FFINFO,R5) (CP,R11) (CV,R12)
0Loc    Object Code    Addr1 Addr2  Stmt Lv Lineno    Source Statement           (Hibal 5, Asmedit 3.3)  HLASM R4.0  2004/03/15 12.49
+___    ______ ____    _____ _____  ____ __ ______    ______ _________
0                                  22488              *
                                   22489              *
                                   22490              *  SCAN ON <FILE SYSTEM>
                                   22491              *
                                   22492              *
 004162 50E0 D000/9008_      00000 22493              FNAMEON  PROC  ,
 USING  *,R7
                                   22532
                                   22533                       COMMENT                   GET FILE INFO ADDR
 00417C 5860 BE54            00E54 22534                       L     R6,CPFINFOP
 USING  FFINFO,R6                  22535                       USING FFINFO,R6
                                   22544
                                   22545                       COMMENT                   SCAN FILE SYSTEM
                                   22546                       COMMENT                   USE BLANK DELIMITED SCAN
 004180 5810 B08C/1B00_      0008C 22547                       SCANSTR ,                 SKIP='' STOP=' =,;'
                                   22576
                                   22577                       COMMENT                   IF SCAN OK
 0041C6 12FF/4770 70CE             22578                       IF    (R15,Z),BEGIN
                                   22592  1                      COMMENT                   IF NAME OK
 0041CC 1200/47D0 706C_            22593  1                      IF    ((R0,POS),AND,(R0,LE,L'FFHOST)),BEGIN
 0041DA 5000 608C            0008C 22623  2                        ST    R0,FFHOSTL
 0041DE 1830                       22624  2                        LR    R3,R0
 0041E0 0630/4430 72E4_            22625  2                        DEX   R3,'MVC FFHOST(0),@R1'
 0041E6 1BFF                       22644  2                        CLEAR R15
 0041E8                            22648  1                      END
                                   22652  1                      COMMENT                   IF NAME TOO LONG
 0041E8 7070/7070/47F0_041E8 041D0 22653  1                      ELSEIF (R0,GE,L'FFHOST),BEGIN
 0041F4 58E0 B08C/D703_      0008C 22681  2                        SCSEGCLR
 004200 4110 7234/4100_      043B0 22690  2                        SCSEG 'File specification overflow.'
 004212 58F0 7254            043D0 22702  2                        L     R15,=F'-4'
 004216 47F0 70D2            0424E 22703  2                        B     FNONEXIT
 00421A                            22704  1                      END
                                   22708  1                      COMMENT                   IF MISSING NAME
 00421A 70A2/47F0 70CE_0421A 041F2 22709  1                      ELSEIF    (R0,NP),BEGIN
 004224 58E0 B08C/D703_      0008C 22732  2                        SCSEGCLR
 004230 4110 72B2/4100_      0442E 22741  2                        SCSEG 'Missing host name after "ON".'
 004242 58F0 7254            043D0 22753  2                        L     R15,=F'-4'
 004246 47F0 70D2            0424E 22754  2                        B     FNONEXIT
 00424A                            22755  1                      END
 00424A                            22759                       END
                                   22763
                                   22764                       COMMENT                   IF SCAN ERROR,
 00424A 70D2/47F0 70D2 0424A 041CA 22765                       ELSE  BEGIN               JUST RETURN R15=NZ
 00424E                            22776                       END
                                   22780
 00424E                            22781              FNONEXIT LABEL ,
 00424E 18D8/9808 D004_            22783                       PEND
 DROP   *,R7
 DROP   FFINFO,R6                  22803                       DROP  R6
1NFILE    (NFIL2025) (12:49) (15MAR04) PRELIMINARY FILE NAME SCANNING                                                       Page   70
0Current Usings:  (FFINFO,R5) (CP,R11) (CV,R12)
0Loc    Object Code    Addr1 Addr2  Stmt Lv Lineno    Source Statement           (Hibal 5, Asmedit 3.3)  HLASM R4.0  2004/03/15 12.49
+___    ______ ____    _____ _____  ____ __ ______    ______ _________
0                                  22811              *
                                   22812              *
                                   22813              *  SCAN VOL=<VOLUME>
                                   22814              *
                                   22815              *
 00425C 50E0 D000/9008_      00000 22816              FNAMEVOL PROC  ,
 USING  *,R7
                                   22855
                                   22856                       COMMENT                   GET FILE INFO ADDR
 004276 5860 BE54            00E54 22857                       L     R6,CPFINFOP
 USING  FFINFO,R6                  22858                       USING FFINFO,R6
                                   22867
                                   22868                       COMMENT                   SCAN FILE SYSTEM
                                   22869                       COMMENT                   USE BLANK DELIMITED SCAN
 00427A 5810 B08C/1B00_      0008C 22870                       SCANSTR ,                 SKIP='' STOP=' =,;'
                                   22899
                                   22900                       COMMENT                   IF SCAN OK
 0042C0 12FF/4770 7102             22901                       IF    (R15,Z),BEGIN
 0042C6 5820 B08C/4122_      0008C 22915  1                      SCUPTOK (R2)
 0042CE 5900 716A/4780_      043E0 22919  1                      IF    ((R0,EQ,6),OR,(@R2,EQ,'CAT')),BEGIN    IF NAME OK
 0042E0 5000 608C            0008C 22951  2                        ST    R0,FFHOSTL
 0042E4 1830                       22952  2                        LR    R3,R0
 0042E6 0630/4430 71F0_            22953  2                        DEX   R3,'MVC FFHOST(0),@R1'
                                   22972  2                        COMMENT                   FORCE FILE TYPE TO MVS FILE
                                   22973  2                        COMMENT  ** DEBUG **      SELECT OLDIBM OR WINGS AS DEFAULT
 0042EC 9500 6000/4770_00000       22974  2                        IF    (FFTYPE,EQ,0),BEGIN
 0042F4 58E0 716E/0DEE       043E4 22992  3                          ACALL FIBMTYPE
 0042FA 59F0 7172/4770_      043E8 22996  3                          IF    (R15,EQ,4),BEGIN
 004302 9201 6000      00000       23013  4                            SET   FFFWINGS
 004306                            23019  3                          END
 004306 59F0 7176/4770_      043EC 23023  3                          IF    (R15,EQ,8),BEGIN
 00430E 9205 6000      00000       23040  4                            SET   FFFOLD
 004312                            23046  3                          END
 004312                            23050  2                        END
 004312 1BFF                       23054  2                        CLEAR R15
 004314                            23058  1                      END
                                   23062  1                      COMMENT                   IF NO NAME
 004314 70A2/47F0 70CE_04314 042DE 23063  1                      ELSEIF (R0,NP),BEGIN
 00431E 58E0 B08C/D703_      0008C 23086  2                        SCSEGCLR
 00432A 4110 717A/4100_      043F0 23095  2                        SCSEG 'Missing volume name.'
 00433C 58F0 715A            043D0 23107  2                        L     R15,=F'-4'
 004340 47F0 7106            0437C 23108  2                        B     FNVOLXIT
 004344                            23109  1                      END
                                   23113  1                      COMMENT                   IF NAME NOT OK
 004344 70D2/47F0 7102 04344 0431C 23114  1                      ELSE  BEGIN
 004348 58E0 B08C/D703_      0008C 23125  2                        SCSEGCLR
 004354 5820 B08C/58E0_      0008C 23134  2                        SCSEG (R1),(R0)
 00435E 4110 71A2/4100_      04418 23152  2                        SCSEG ': invalid volume name.'
 004370 58F0 715A            043D0 23164  2                        L     R15,=F'-4'
 004374 47F0 7106            0437C 23165  2                        B     FNVOLXIT
 004378                            23166  1                      END
 004378                            23170                       END
                                   23174
                                   23175                       COMMENT                   IF SCAN ERROR,
1NFILE    (NFIL2025) (12:49) (15MAR04) PRELIMINARY FILE NAME SCANNING                                                       Page   71
0Current Usings:  (FFINFO,R5) (FFINFO,R6) (*,R7) (CP,R11) (CV,R12)
0Loc    Object Code    Addr1 Addr2  Stmt Lv Lineno    Source Statement           (Hibal 5, Asmedit 3.3)  HLASM R4.0  2004/03/15 12.49
+___    ______ ____    _____ _____  ____ __ ______    ______ _________
0004378 7106/47F0 7106 04378 042C4 23176                       ELSE  BEGIN               JUST RETURN R15=NZ
 00437C                            23187                       END
                                   23191
 00437C                            23192              FNVOLXIT LABEL ,
 00437C 18D8/9808 D004_            23194                       PEND
 DROP   *,R7
 DROP   FFINFO,R6                  23214                       DROP  R6
                                   23221
                                   23222                       QLTORG
1NFILE    (NFIL2025) (12:49) (15MAR04) PRELIMINARY FILE NAME SCANNING                                                       Page   72
0Current Usings:  (FFINFO,R5) (CP,R11) (CV,R12)
0Loc    Object Code    Addr1 Addr2  Stmt Lv Lineno    Source Statement           (Hibal 5, Asmedit 3.3)  HLASM R4.0  2004/03/15 12.49
+___    ______ ____    _____ _____  ____ __ ______    ______ _________
0                                  23259              ¿þþþþþþþþþþþþþþþþþþþþþþþþþþþþþþþþþþþþþþþþþþþþþþþþþþþþþþþþþþþþþþþþþþþþþÜ
                                   23260              Ÿ                                                                     Ÿ
                                   23261              Ÿ                                                                     Ÿ
                                   23262              Ÿ  FNAMEFIN - FINISH FILE NAME PROCESSING.                            Ÿ
                                   23263              Ÿ                                                                     Ÿ
                                   23264              Ÿ  THE PURPOSE OF THIS ROUTINE IS TO DETERMINE THE                    Ÿ
                                   23265              Ÿ  FILE SYSTEM TYPE.  (IE. FIND OUT WHICH TYPE OF FILE                Ÿ
                                   23266              Ÿ  OPEN TO DO.)  WE THEN PASS ALL THE FILE NAME AND                   Ÿ
                                   23267              Ÿ  OPTIONS TO THE APPROPRIATE OPEN ROUTINE AND LET                    Ÿ
                                   23268              Ÿ  THAT ROUTINE FIGURE OUT WHAT TO DO.                                Ÿ
                                   23269              Ÿ                                                                     Ÿ
                                   23270              Ÿ  THIS ROUTINE ALSO APPLIES SOME ZAP TYPE LOGIC.                     Ÿ
                                   23271              Ÿ  WE WANT ALL FILE NAMES TO BE OF THE FORM                           Ÿ
                                   23272              Ÿ    <file name> [on <host>] [file type]                              Ÿ
                                   23273              Ÿ  SO WE FIX ALL REFERENCES TO 'on <ibm volume>' TO BE                Ÿ
                                   23274              Ÿ  THE SAME AS 'WINGS VOL=<ibm volume>' AND SAMSON                    Ÿ
                                   23275              Ÿ  FILENAMES C:NAME TO BE 'C:NAME SAMSON'.  IN SHORT                  Ÿ
                                   23276              Ÿ  THERE IS SOME LOGIC TO MAKE OLD STUFF CONFORM TO                   Ÿ
                                   23277              Ÿ  THE NEW.  THEN WE DO OUR THING WHICH IS TO FIND THE                Ÿ
                                   23278              Ÿ  FILE SYSTEM TYPE.                                                  Ÿ
                                   23279              Ÿ                                                                     Ÿ
                                   23280              Ÿ  WE DETERMINE FILE SYSTEM TYPE AS FOLLOWS:                          Ÿ
                                   23281              Ÿ   1. FILE SYSTEM EXPLICITLY SET                                     Ÿ
                                   23282              Ÿ   2. ZAP ROUTINES IMPLY OLD FORMAT OLDIBM/WINGS/SAMSON              Ÿ
                                   23283              Ÿ   3. 'ON <HOST>' IMPLIES NET                                        Ÿ
                                   23284              Ÿ   4. '*' IMPLIES USE CURRENT FILE TYPE                              Ÿ
                                   23285              Ÿ   4. USE DEFAULT FILE TYPE                                          Ÿ
                                   23286              Ÿ                                                                     Ÿ
                                   23287              Ÿ                                                                     Ÿ
                                                      ¾þþþþþþþþþþþþþþþþþþþþþþþþþþþþþþþþþþþþþþþþþþþþþþþþþþþþþþþþþþþþþþþþþþþþþ»
000446C 50E0 D000/9008_      00000 23288              FNAMEFIN XPROC ,
 USING  *,R7
 004486 58E0 B08C/D2AF_      0008C 23328                       SCPUSH ,                  DO NOT CLOBBER SCANNER
                                   23334
 004494 5860 BE54            00E54 23335                       L     R6,CPFINFOP         FFINFO DSECT POINTER
 USING  FFINFO,R6                  23336                       USING FFINFO,R6
                                   23345
                                   23346                       COMMENT                   IF FILE TYPE ALREADY SET, DONE
 004498 9500 6000/4770_00000       23347                       IF    (FFTYPE,NE,0),FFINDONE
                                   23368
                                   23369                       COMMENT                   CHECK IF NETWORK STYLE (%) NAME
 0044A0 58E0 7ADA/0DEE       04F60 23370                       ACALL ZAPNET
 0044A6 4770 7028            044AE 23374                       IF    Z,BEGIN
 0044AA 47F0 70B4            0453A 23385  1                      B     FFINDONE
 0044AE                            23386                       END
                                   23390
                                   23391                       COMMENT                   CHECK IF OLD 'ON VOLUME'
 0044AE 58E0 7ADE/0DEE       04F64 23392                       ACALL ZAPVOL
 0044B4 4770 7036            044BC 23396                       IF    Z,BEGIN
 0044B8 47F0 70B4            0453A 23407  1                      B     FFINDONE
 0044BC                            23408                       END
                                   23412
                                   23413                       COMMENT                   CHECK IF SAMSON STYLE FILE NAME
1NFILE    (NFIL2025) (12:49) (15MAR04) PRELIMINARY FILE NAME SCANNING                                                       Page   73
0Current Usings:  (FFINFO,R5) (FFINFO,R6) (*,R7) (CP,R11) (CV,R12)
0Loc    Object Code    Addr1 Addr2  Stmt Lv Lineno    Source Statement           (Hibal 5, Asmedit 3.3)  HLASM R4.0  2004/03/15 12.49
+___    ______ ____    _____ _____  ____ __ ______    ______ _________
00044BC 58E0 7AE2/0DEE       04F68 23414                       ACALL ZAPSAM
 0044C2 4770 7044            044CA 23418                       IF    Z,BEGIN
 0044C6 47F0 70B4            0453A 23429  1                      B     FFINDONE
 0044CA                            23430                       END
                                   23434
                                   23435                       COMMENT                   IF 'ON HOST', PRESUME NET
 0044CA D503 7AC6 608C_04F4C 0008C 23436                       IF    (FFHOSTL,GT,0),BEGIN IF ON ...
 0044D4 9204 6000      00000       23454  1                      SET   FFFNET
 0044D8 47F0 70B4            0453A 23460  1                      B     FFINDONE
 0044DC                            23461                       END
                                   23465
                                   23466                       COMMENT                   CHECK FOR '*' FILE NAME
 0044DC D503 7AE6 6008_04F6C 00008 23467                       IF    ((FFNAMEL,GE,1),AND,(FFNAME,EQ,'*')),BEGIN
 0044EE 4110 6000            00000 23501  1                      LA    R1,FFTYPE
 0044F2 D200 6000 6003 00000 00003 23502  1                      MVC   FFTYPE,FFPTYPE
 0044F8 9500 6000/4770_00000       23503  1                      IF    (FFTYPE,NE,0),FFINDONE
 004500                            23524                       END
                                   23528
                                   23529                       COMMENT                   USE USER DEFAULT TYPE
 004500 4110 6000            00000 23530                       LA    R1,FFTYPE
 004504 58E0 7AEA/0DEE       04F70 23531                       ACALL GETDTYPE
 00450A 9500 6000/4770_00000       23535                       IF    (FFTYPE,NE,0),FFINDONE
                                   23556
                                   23557                       COMMENT                   SELECT OLDIBM OR WINGS AS DEFAULT
 004512 58E0 7AEE/0DEE       04F74 23558                       ACALL FIBMTYPE
 004518 59F0 7AF2/4770_      04F78 23562                       IF    (R15,EQ,4),BEGIN
 004520 9201 6000      00000       23579  1                      SET   FFFWINGS
 004524                            23585                       END
 004524 59F0 7AF6/4770_      04F7C 23589                       IF    (R15,EQ,8),BEGIN
 00452C 9205 6000      00000       23606  1                      SET   FFFOLD
 004530                            23612                       END
                                   23616
 004530 9500 6000/4770_00000       23617                       IF    (FFTYPE,EQ,0),' BOMB '
                                   23642
                                   23643                       AIF   (NOT &$PCODE).NOUDEF
                                   23644              .NOUDEF  ANOP
                                   23645
 00453A                            23646              FFINDONE LABEL ,
                                   23648
                                   23649                       COMMENT                   BACKWARDS COMPATABILITY
                                   23650                       COMMENT                   DO OLD DSN NAME PROCESSING
 00453A 9505 6000/4770_00000       23651                       IF    (FFFOLD),BEGIN
 004542 58E0 7AFA/0DEE       04F80 23666  1                      ACALL OLDFIN
 004548                            23670                       END
                                   23674
                                   23675                       COMMENT                   Check SAMSON terminal type
 004548 9503 6000/4770_00000       23676                       IF    (FFFSAM,AND,~CPSFSAM),BEGIN
 004558 4110 7B76/4100_      04FFC 23705  1                      TSEG  'Please issue a SET TERMINAL SAMSON command '
 00456A 4110 7B4A/4100_      04FD0 23723  1                      TSEG  'before accessing SAMSON files.',,CR
 00457C D207 B886 7ACA_00886 04F50 23741  1                      ABORT 'Type ? for more information.',,MICROTRM
 00458E                            23749                       END
                                   23753
 00458E 58E0 B08C/4BD0_      0008C 23754                       SCPOP
 00459C 18D8/9808 D004_            23760                       PEND  ,
1NFILE    (NFIL2025) (12:49) (15MAR04) PRELIMINARY FILE NAME SCANNING                                                       Page   74
0Current Usings:  (FFINFO,R5) (FFINFO,R6) (CP,R11) (CV,R12)
0Loc    Object Code    Addr1 Addr2  Stmt Lv Lineno    Source Statement           (Hibal 5, Asmedit 3.3)  HLASM R4.0  2004/03/15 12.49
+___    ______ ____    _____ _____  ____ __ ______    ______ _________
0DROP   *,R7
 DROP   FFINFO,R6                  23780                       DROP  R6
1NFILE    (NFIL2025) (12:49) (15MAR04) PRELIMINARY FILE NAME SCANNING                                                       Page   75
0Current Usings:  (FFINFO,R5) (CP,R11) (CV,R12)
0Loc    Object Code    Addr1 Addr2  Stmt Lv Lineno    Source Statement           (Hibal 5, Asmedit 3.3)  HLASM R4.0  2004/03/15 12.49
+___    ______ ____    _____ _____  ____ __ ______    ______ _________
0                                  23788              *
                                   23789              *
                                   23790              *  CHECK IF NETWORK STYLE FILE (%) NAME
                                   23791              *
                                   23792              *
                                   23793              *  ON ENTRY:
                                   23794              *    R6 - FFINFO DSECT
                                   23795              *
                                   23796              *  ON EXIT:
                                   23797              *    R15 - NZ, NO ZAP
                                   23798              *    R15 - ZERO, ZAPPED.  FFTYPE SET APPROPRIATELY.
                                   23799              *
                                   23800              *
                                   23801              *  NOTE:
                                   23802              *  WE DO *NOT* STRIP '%' FROM FRONT OF FILE NAME.
                                   23803              *  THIS IS DONE FOR NOW BY THE OLD FILE NAME PROCESSING.
                                   23804              *  WHEN SAM MODULE IS FIXED TO USE DEFAULT HOST ON
                                   23805              *  SAM OPEN, IF ONE IS NOT GIVEN. THEN WE SHOULD STRIP
                                   23806              *  THE '%'.  THIS CODE IN PROGRESS.  AND SUBJECT TO CHANGE.
                                   23807              *
                                   23808              *
 0045AA 50E0 D000/9008_      00000 23809              ZAPNET   XPROC ,
 USING  *,R7
 USING  FFINFO,R6                  23849                       USING FFINFO,R6
                                   23858
                                   23859                       COMMENT                   CHECK FOR LEADING '%'
 0045C4 4110 600C/5800_      0000C 23860                       SETMSG FFNAME,L:FFNAMEL
                                   23874
                                   23875                       COMMENT                   IF '%', SET NET FILE TYPE
                                   23876                       COMMENT                   STRIP '%' OFF FILE NAME
 0045CC 5900 79E4/47D0_      04FA8 23877                       IF    ((R0,GT,1),AND,(@R1,EQ,'%')),BEGIN    ***MPD***
 0045DC 9204 6000      00000       23909  1                      SET   FFFNET              STRIP LEADING FILE NAME
 0045E0 0600                       23915  1                      DECR  R0
 0045E2 5000 6008            00008 23917  1                      ST    R0,FFNAMEL
 0045E6 1820                       23918  1                      LR    R2,R0
 0045E8 0620/1222/4740_            23919  1                      MOVE  R2,FFNAME,FFNAME+1
 0045F4 1BFF                       23957  1                      CLEAR R15
 0045F6                            23961                       END
                                   23965
                                   23966                       COMMENT                   ELSE NOT NET FILE TYPE
 0045F6 7036/7036/47F0_045F6 045D2 23967                       ELSE  BEGIN
 0045FA 41F0 0004            00004 23980  1                      LA    R15,4
 0045FE                            23981                       END
                                   23985
 0045FE 18D8/9808 D004_            23986                       PEND
 DROP   *,R7
 DROP   FFINFO,R6                  24006                       DROP  R6
1NFILE    (NFIL2025) (12:49) (15MAR04) PRELIMINARY FILE NAME SCANNING                                                       Page   76
0Current Usings:  (FFINFO,R5) (CP,R11) (CV,R12)
0Loc    Object Code    Addr1 Addr2  Stmt Lv Lineno    Source Statement           (Hibal 5, Asmedit 3.3)  HLASM R4.0  2004/03/15 12.49
+___    ______ ____    _____ _____  ____ __ ______    ______ _________
0                                  24014              *
                                   24015              *  CHECK IF IBM TYPE 'on <volume>'
                                   24016              *  OR SAMSON TYPE 'on <disk>'
                                   24017              *
                                   24018              *  WE SET TYPE AS IS APPROPRIATE
                                   24019              *
                                   24020              *  ON ENTRY:
                                   24021              *    R6 - FFINFO DSECT
                                   24022              *
                                   24023              *  ON EXIT:
                                   24024              *    R15 - NZ, NO ZAP
                                   24025              *    R15 - ZERO, ZAPPED.  FFTYPE SET APPROPRIATELY.
                                   24026              *
                                   24027              *
 00460C 50E0 D000/9008_      00000 24028              ZAPVOL   PROC  ,
 USING  *,R7
 USING  FFINFO,R6                  24067                       USING FFINFO,R6
                                   24076
                                   24077                       COMMENT                   IF NO 'ON VOL', NO ZAP
 004626 D503 7926 608C_04F4C 0008C 24078                       IF    (FFHOSTL,EQ,0),BEGIN
 004630 41F0 0004            00004 24096  1                      LA    R15,4
 004634 47F0 70BA            046E0 24097  1                      B     ZAPVDONE
 004638                            24098                       END
                                   24102
                                   24103                       COMMENT                   SCAN ON '...'
 004638 58E0 B08C/D2AF_      0008C 24104                       SCPUSH ,
 004646 58E0 B08C/D7AF_      0008C 24110                       SCCLR ,
 004652 4110 6090/5800_      00090 24119                       SCINIT FFHOST,L:FFHOSTL
 004668 5810 B08C/1B00_      0008C 24143                       SCAN  FVOLPRT
 0046BA 58E0 798E/0DEE       04FB4 24175                       SCANCHK
                                   24180
                                   24181                       COMMENT ,                 SCAN ROUTINES SET UP FS DEFINITION
                                   24182
                                   24183                       COMMENT
 0046C0 59F0 7952/4770_      04F78 24184                       IF    (R15,EQ,4),BEGIN
 0046C8 1BFF                       24201  1                      CLEAR R15
 0046CA                            24205                       END
 0046CA 70A8/47F0 70B4_046CA 046C6 24209                       ELSEIF (R15,EQ,8),BEGIN
 0046D6 41F0 0004            00004 24235  1                      LA    R15,4
 0046DA                            24236                       END
 0046DA 70B8/47F0 70BA 046DA 046D4 24240                       ELSE  BEGIN
 0046DE 0000                       24251  1                      BOMB
 0046E0                            24253                       END
                                   24257
 0046E0                            24258              ZAPVDONE LABEL ,
 0046E0 58E0 B08C/4BD0_      0008C 24260                       SCPOP ,
 0046EE 18D8/9808 D004_            24266                       PEND  ,
 DROP   *,R7
1NFILE    (NFIL2025) (12:49) (15MAR04) PRELIMINARY FILE NAME SCANNING                                                       Page   77
0Current Usings:  (FFINFO,R5) (FFINFO,R6) (CP,R11) (CV,R12)
0Loc    Object Code    Addr1 Addr2  Stmt Lv Lineno    Source Statement           (Hibal 5, Asmedit 3.3)  HLASM R4.0  2004/03/15 12.49
+___    ______ ____    _____ _____  ____ __ ______    ______ _________
0                                  24287              *
                                   24288              *  SCAN VARIOUS VOLUMES/DISK NAMES
                                   24289              *
                                   24290              *  R15 - 4 ,,, SAMSON/WINGS
                                   24291              *  R15 - 8 ,,, NOT RECOGINZED
                                   24292              *
                                   24293              *
 0046FC C140404040404040_          24294              FVOLPRT  SCKW  A,SAMDISK
 004724 C240404040404040_          24309                       SCKW  B,SAMDISK
 00474C C340404040404040_          24324                       SCKW  C,SAMDISK
 004774 C440404040404040_          24339                       SCKW  D,SAMDISK
 00479C C540404040404040_          24354                       SCKW  E,SAMDISK
 0047C4 C640404040404040_          24369                       SCKW  F,SAMDISK
 0047EC C740404040404040_          24384                       SCKW  G,SAMDISK
 004814 C840404040404040_          24399                       SCKW  H,SAMDISK
 00483C C940404040404040_          24414                       SCKW  I,SAMDISK
 004864 D140404040404040_          24429                       SCKW  J,SAMDISK
 00488C D240404040404040_          24444                       SCKW  K,SAMDISK
 0048B4 D340404040404040_          24459                       SCKW  L,SAMDISK
 0048DC D440404040404040_          24474                       SCKW  M,SAMDISK
 004904 D540404040404040_          24489                       SCKW  N,SAMDISK
 00492C D640404040404040_          24504                       SCKW  O,SAMDISK
 004954 D740404040404040_          24519                       SCKW  P,SAMDISK
 00497C D840404040404040_          24534                       SCKW  Q,SAMDISK
 0049A4 D940404040404040_          24549                       SCKW  R,SAMDISK
 0049CC E240404040404040_          24564                       SCKW  S,SAMDISK
 0049F4 E340404040404040_          24579                       SCKW  T,SAMDISK
 004A1C E440404040404040_          24594                       SCKW  U,SAMDISK
 004A44 E540404040404040_          24609                       SCKW  V,SAMDISK
 004A6C E640404040404040_          24624                       SCKW  W,SAMDISK
 004A94 E740404040404040_          24639                       SCKW  X,SAMDISK
 004ABC E840404040404040_          24654                       SCKW  Y,SAMDISK
 004AE4 E940404040404040_          24669                       SCKW  Z,SAMDISK
 004B0C C3D3C9D740404040_          24684                       SCKW  CLIP,SAMDISK
 004B34 C3D3C9D7C2D6C1D9_          24699                       SCKW  CLIPBOARD,SAMDISK
 004B5C C3C1E3D3C7404040_          24714                       SCKW  CATLG,WINGSCAT,A
 004B84 C3C1E3C1D3D6C740_          24729                       SCKW  CATALOG,WINGSCAT,A
 004BAC 4040404040404040_          24744                       SCKW  ,WINGSVOL,A(MATVOL)
 004BD4 4040404040404040_          24759                       SCKW  ,ZVOTHER,NULL
 004BFC 4040404040404040_          24774                       SCKW  ,ZVOTHER
                                   24789              *
                                   24790              *
                                   24791              *
 004C24 50E0 D000/9008_      00000 24792              WINGSVOL PROC  ,                   WINGS VOLUME
 USING  *,R7
                                   24831              *
                                   24832              * ** DEBUG **  EVENTUALLY SHOULD JUST SET WINGS. FOR NOW NEED
                                   24833              * ** DEBUG **  FIGURE IT OUT.
                                   24834              *
                                   24835                       COMMENT                   SELECT OLDIBM OR WINGS AS DEFAULT
 004C3E 58E0 7336/0DEE       04F74 24836                       ACALL FIBMTYPE
 004C44 59F0 733A/4770_      04F78 24840                       IF    (R15,EQ,4),BEGIN
 004C4C 9201 6000      00000       24857  1                      SET   FFFWINGS
 004C50                            24863                       END
1NFILE    (NFIL2025) (12:49) (15MAR04) PRELIMINARY FILE NAME SCANNING                                                       Page   78
0Current Usings:  (FFINFO,R5) (FFINFO,R6) (*,R7) (CP,R11) (CV,R12)
0Loc    Object Code    Addr1 Addr2  Stmt Lv Lineno    Source Statement           (Hibal 5, Asmedit 3.3)  HLASM R4.0  2004/03/15 12.49
+___    ______ ____    _____ _____  ____ __ ______    ______ _________
0004C50 59F0 733E/4770_      04F7C 24867                       IF    (R15,EQ,8),BEGIN
 004C58 9205 6000      00000       24884  1                      SET   FFFOLD
 004C5C                            24890                       END
                                   24894
 004C5C 41F0 0004            00004 24895                       LA    R15,4
 004C60 18D8/9808 D004_            24896                       PEND
 DROP   *,R7
                                   24916              *
                                   24917              *
 004C6E 50E0 D000/9008_      00000 24918              WINGSCAT PROC  ,
 USING  *,R7
                                   24957              *
                                   24958              * ** DEBUG **  EVENTUALLY SHOULD JUST SET WINGS. FOR NOW NEED
                                   24959              * ** DEBUG **  FIGURE IT OUT.
                                   24960              *
                                   24961                       COMMENT                   SELECT OLDIBM OR WINGS AS DEFAULT
 004C88 58E0 72EC/0DEE       04F74 24962                       ACALL FIBMTYPE
 004C8E 59F0 72F0/4770_      04F78 24966                       IF    (R15,EQ,4),BEGIN
 004C96 9201 6000      00000       24983  1                      SET   FFFWINGS
 004C9A                            24989                       END
 004C9A 7016/47F0 701E 04C9A 04C94 24993                       ELSE  BEGIN
 004C9E 9205 6000      00000       25004  1                      SET   FFFOLD
 004CA2 41F0 0004            00004 25010  1                      LA    R15,4
 004CA6                            25011                       END
 004CA6 18D8/9808 D004_            25015                       PEND  ,
 DROP   *,R7
                                   25035
 004CB4 50E0 D000/9008_      00000 25036              SAMDISK  PROC ,                    SAMSON
 USING  *,R7
 004CCE 9203 6000      00000       25075                       SET   FFFSAM
 004CD2 41F0 0004            00004 25081                       LA    R15,4
 004CD6 18D8/9808 D004_            25082                       PEND ,
 DROP   *,R7
                                   25102
 004CE4 50E0 D000/9008_      00000 25103              ZVOTHER  PROC ,                    OTHER
 USING  *,R7
 004CFE 41F0 0008            00008 25142                       LA    R15,8
 004D02 18D8/9808 D004_            25143                       PEND  ,
 DROP   *,R7
                                   25163              *
                                   25164              *  MATCH ROUTINE FOR VOLUME
                                   25165              *
                                   25166              *  SEE COMMENTS IN SCAN MODULE.
                                   25167              *    RETURN R15=0 IF FOUND, R15=NZ, NOT FOUND
                                   25168              *
 004D10 50E0 D000/9008_      00000 25169              MATVOL   PROC   ,
 USING  *,R7
                                   25208
 004D2A 58E0 B08C/581E_      0008C 25209                       SCTOK ,                   R1,R0 - TOKEN LOC LEN
 004D38 5810 B08C/4111_      0008C 25218                       SCUPTOK (R1)
                                   25222
 004D40 5900 728E/4770_      04FB8 25223                       IF    (R0,EQ,6),BEGIN
 004D48 58E0 7292/0DEE       04FBC 25240  1                      VCALL CHECKVOL            IS IT A VALID VOLUME NAME
 004D4E 12FF/4770 702E             25244  1                      IF    (R15,Z),BEGIN
1NFILE    (NFIL2025) (12:49) (15MAR04) PRELIMINARY FILE NAME SCANNING                                                       Page   79
0Current Usings:  (FFINFO,R5) (FFINFO,R6) (*,R7) (CP,R11) (CV,R12)
0Loc    Object Code    Addr1 Addr2  Stmt Lv Lineno    Source Statement           (Hibal 5, Asmedit 3.3)  HLASM R4.0  2004/03/15 12.49
+___    ______ ____    _____ _____  ____ __ ______    ______ _________
0004D54 9001 8004            00004 25258  2                        PRETURN (R0,R1)
 004D58                            25260  1                      END
 004D58                            25264                       END
 004D58 7032/47F0 7036 04D58 04D46 25268                       ELSE  BEGIN
 004D5C 41F0 0004            00004 25279  1                      LA    R15,4 NOTVOL
 004D60                            25280                       END
                                   25284
 004D60 18D8/9808 D004_            25285                       PEND  ,
 DROP   *,R7
 DROP   FFINFO,R6                  25305                       DROP  R6
1NFILE    (NFIL2025) (12:49) (15MAR04) PRELIMINARY FILE NAME SCANNING                                                       Page   80
0Current Usings:  (FFINFO,R5) (CP,R11) (CV,R12)
0Loc    Object Code    Addr1 Addr2  Stmt Lv Lineno    Source Statement           (Hibal 5, Asmedit 3.3)  HLASM R4.0  2004/03/15 12.49
+___    ______ ____    _____ _____  ____ __ ______    ______ _________
0                                  25313              *
                                   25314              *  CHECK FOR SAMSON FILE NAME
                                   25315              *
                                   25316              *  WE SET TYPE AS SAMSON, IF SAMSON TYPE NAME FOUND
                                   25317              *
                                   25318              *  ON ENTRY:
                                   25319              *    R6 - FFINFO DSECT
                                   25320              *
                                   25321              *  ON EXIT:
                                   25322              *    R15 - NZ, NO ZAP
                                   25323              *    R15 - ZERO, ZAPPED.  FFTYPE SET APPROPRIATELY.
                                   25324              *
                                   25325              *
 004D6E 50E0 D000/9008_      00000 25326              ZAPSAM   PROC  ,
 USING  *,R7
 USING  FFINFO,R6                  25365                       USING FFINFO,R6
 004D88 58E0 B08C/D2AF_      0008C 25374                       SCPUSH ,
 004D96 58E0 B08C/D7AF_      0008C 25380                       SCCLR ,
 004DA2 4110 600C/5800_      0000C 25389                       SCINIT FFNAME,L:FFNAMEL
 004DB8 5810 B08C/1B00_      0008C 25413                       SCAN ,
 004E06 58E0 722C/0DEE       04FB4 25444                       SCANCHK ,
 004E0C 5810 B08C/4111_      0008C 25449                       SCUPTOK (R1)
                                   25453                       COMMENT                   CHECK FOR A: THRU Z:<NAME>
 004E14 5900 7238/4750_      04FC0 25454                       IF    ((R0,GE,2),AND,(@R1+1,EQ,':')),BEGIN
 004E24 95C1 1000/4750_00000       25486  1                      IF    ((@R1,GE,'A'),AND,(@R1,LE,'Z')),CKGOTSAM
 004E34                            25520                       END
 004E34 5900 723C/4750_      04FC4 25524                       IF    ((R0,GE,5),AND,(@R1,EQ,'CLIP:')),CKGOTSAM
 004E46 5900 7240/4750_      04FC8 25559                       IF    ((R0,GE,10),AND,(@R1,EQ,'CLIPBOARD:')),CKGOTSAM
 004E58 5900 71F4/47D0_      04F7C 25594                       IF    ((R0,GT,8),AND,(@R1,EQ,'<SAMSON>')),BEGIN
                                   25626  1                      COMMENT  YUCK, STRIP '<SAMSON>' PART, SET SAMSON TYPE
 004E6A 5800 6008            00008 25627  1                      L     R0,FFNAMEL
 004E6E 5B00 71F4            04F7C 25628  1                      S     R0,=A(8)
 004E72 5000 6008            00008 25629  1                      ST    R0,FFNAMEL
 004E76 1830                       25630  1                      LR    R3,R0
 004E78 0630/4430 72B2_            25631  1                      DEX   R3,' MVC FFNAME(0),FFNAME+8'
 004E7E 47F0 712C            04EB4 25650  1                      B     CKGOTSAM
 004E82                            25651                       END
 004E82 5900 7244/47D0_      04FCC 25655                       IF    ((R0,GT,7),AND,(@R1,EQ,'<MICRO>')),BEGIN
                                   25687  1                      COMMENT  YUCK, STRIP '<MICRO>' PART, SET SAMSON TYPE
 004E94 5800 6008            00008 25688  1                      L     R0,FFNAMEL
 004E98 5B00 7244            04FCC 25689  1                      S     R0,=A(7)
 004E9C 5000 6008            00008 25690  1                      ST    R0,FFNAMEL
 004EA0 1830                       25691  1                      LR    R3,R0
 004EA2 0630/4430 72B8_            25692  1                      DEX   R3,' MVC FFNAME(0),FFNAME+7'
 004EA8 47F0 712C            04EB4 25711  1                      B     CKGOTSAM
 004EAC                            25712                       END
                                   25716                       COMMENT                   WE FALL THRU IF NOT SAMSON TYPE
                                   25717
 004EAC                            25718              CKNOTSAM LABEL ,
 004EAC 41F0 0004            00004 25720                       LA    R15,4
 004EB0 47F0 7132            04EBA 25721                       B     CHKSDONE
                                   25722
 004EB4                            25723              CKGOTSAM LABEL ,
 004EB4 9203 6000      00000       25725                       SET   FFFSAM
1NFILE    (NFIL2025) (12:49) (15MAR04) PRELIMINARY FILE NAME SCANNING                                                       Page   81
0Current Usings:  (FFINFO,R5) (FFINFO,R6) (*,R7) (CP,R11) (CV,R12)
0Loc    Object Code    Addr1 Addr2  Stmt Lv Lineno    Source Statement           (Hibal 5, Asmedit 3.3)  HLASM R4.0  2004/03/15 12.49
+___    ______ ____    _____ _____  ____ __ ______    ______ _________
0004EB8 1BFF                       25731                       CLEAR R15
                                   25735
 004EBA                            25736              CHKSDONE LABEL ,
 DROP   FFINFO,R6                  25738                       DROP  R6
 004EBA 18D8/9808 D004_            25745                       PEND  ,
 DROP   *,R7
1NFILE    (NFIL2025) (12:49) (15MAR04) PRELIMINARY FILE NAME SCANNING                                                       Page   82
0Current Usings:  (FFINFO,R5) (CP,R11) (CV,R12)
0Loc    Object Code    Addr1 Addr2  Stmt Lv Lineno    Source Statement           (Hibal 5, Asmedit 3.3)  HLASM R4.0  2004/03/15 12.49
+___    ______ ____    _____ _____  ____ __ ______    ______ _________
0                                  25766              *
                                   25767              *  FIBMTYPE - FIND IBM TYPE -- WINGS OR OLDIBM
                                   25768              *
                                   25769              *
                                   25770              *  ON EXIT:
                                   25771              *    R15=4   IS WINGS
                                   25772              *    R15=8   IS OLDIBM
                                   25773              *
                                   25774              *  LOOK AT FDEFAULT,
                                   25775              *  IF NO FDEFAULT SET WE LOOK AT CV FLAGS, IF NOT
                                   25776              *  WE FOR NOW DEFAULT TO OLDIBM (** DEBUG **)
                                   25777              *
 000000                00000 003A0 25778              FIBWA    RECORD BEGIN
 000000                            25786  1           FIBINFO    DS    XL(L'FFINFO)
 0003A0                003A0 003A0 25787                       END
                                   25796              *
                                   25797              *
 004EC8 50E0 D000/9008_      00000 25798              FIBMTYPE PROC  FIBWA
 USING  *,R7
 USING  FIBWA-(4+36),R8
                                   25848
 004EE2 4160 8028            00000 25849                       LA    R6,FIBINFO
 USING  FFINFO,R6                  25850                       USING FFINFO,R6
 004EE6 D7FF 6000 6000_00000 00000 25859                       CLEAR FFINFO
                                   25869
 004EFE 4110 6000            00000 25870                       LA    R1,FFTYPE
 004F02 58E0 708E/0DEE       04F70 25871                       ACALL GETDTYPE
                                   25875
 004F08 9501 6000/4780_00000       25876                       IF    FFFWINGS,FIBWINGS   USE USER DEFAULTS
 004F10 9505 6000/4780_00000       25894                       IF    FFFOLD,FIBOLD
 004F18 9120 C4C8/4710_004C8       25912                       IF    CVFWINGS,FIBWINGS   THEN USE SYSTEM DEFAULTS
 004F20 9110 C4C8/4710_004C8       25930                       IF    CVFOLDIBM,FIBOLD
                                   25948              *
                                   25949              *** DEBUG EVENTUALLY SHOULD DEFAULT TO WINGS, FOR NOW DEFAULT IS
                                   25950              *** DEBUG SETABLE (CVFWINGS/CVFOLDIBM), WITH ULTIMATE LAST DEFAULT
                                   25951              *** DEBUG BEING FOR NOW OLDIBM.
                                   25952              *
                                   25953                       COMMENT                   FINALLY, AS LAST RESORT
                                   25954                       COMMENT                      DEFAULT TO OLDIBM
 004F28 47F0 7052            04F34 25955                       B     FIBOLD              ** DEBUG **  LAST DEFAULT: OLDIBM
                                   25956                       COMMENT                   ** DEBUG **
                                   25957
 004F2C                            25958              FIBWINGS LABEL ,
 004F2C 41F0 0004            00004 25960                       LA    R15,4
 004F30 47F0 705A            04F3C 25961                       B     FIBEXIT
                                   25962
 004F34                            25963              FIBOLD   LABEL ,
 004F34 41F0 0008            00008 25965                       LA    R15,8
 004F38 47F0 705A            04F3C 25966                       B     FIBEXIT
                                   25967
 004F3C                            25968              FIBEXIT  LABEL ,
 004F3C 18D8/9808 D004_            25970                       PEND
 DROP   FIBWA-(4+36),R8
 DROP   *,R7
1NFILE    (NFIL2025) (12:49) (15MAR04) PRELIMINARY FILE NAME SCANNING                                                       Page   83
0Current Usings:  (FFINFO,R5) (CP,R11) (CV,R12)
0Loc    Object Code    Addr1 Addr2  Stmt Lv Lineno    Source Statement           (Hibal 5, Asmedit 3.3)  HLASM R4.0  2004/03/15 12.49
+___    ______ ____    _____ _____  ____ __ ______    ______ _________
0DROP   FFINFO,R6                  25995                       DROP  R6
                                   26002
                                   26003                       QLTORG
1NFILE    (NFIL2025) (12:49) (15MAR04) PRELIMINARY FILE NAME SCANNING                                                       Page   84
0Current Usings:  (FFINFO,R5) (CP,R11) (CV,R12)
0Loc    Object Code    Addr1 Addr2  Stmt Lv Lineno    Source Statement           (Hibal 5, Asmedit 3.3)  HLASM R4.0  2004/03/15 12.49
+___    ______ ____    _____ _____  ____ __ ______    ______ _________
0                                  26048              *
                                   26049              *  ** DEBUG
                                   26050              *
                                   26051              *  EXPCNAME - EXPORT FULL CURRENT NAME TO FFINFO DSECT
                                   26052              *             FROM DSN WORKARE
                                   26053              *
                                   26054              *
 005046 50E0 D000/9008_      00000 26055              EXPCNAME XPROC ,
 USING  *,R7
                                   26095
                                   26096                       COMMENT                   MAKE SURE WORK AREA EXISTS
 005060 58E0 7108/0DEE       05168 26097                       ACALL MKFFINFO
 005066 5860 BE54            00E54 26101                       L     R6,CPFINFOP
 USING  FFINFO,R6                  26102                       USING FFINFO,R6
                                   26111
                                   26112                       COMMENT                   EXPORT NAME BACK TO FFINFO
                                   26113
                                   26114                       COMMENT                   DISK (OLDIBM) TYPE NAME
 00506A 9501 BF3B/4770_00F3B       26115                       IF    (DSNDTYPE,EQ,DSNDDISK),BEGIN
 005072 D27F 6218 C4D8 00218 004D8 26133  1                      MVC   FFRNAME,CVBLANKS
 005078 D22B 6218 BE5C 00218 00E5C 26134  1                      MVC   FFRNAME(L'DSNWADSN),DSNWADSN    DO FILE NAME
 00507E 4120 6218            00218 26135  1                      LA    R2,FFRNAME                      R2 - NDX PTR
 005082 9540 2000/4780_00000       26136  1                      WHILE (@R2,NE,' '),BEGIN
 00508A 5E20 710C            0516C 26154  2                        INCR  R2
 00508E 47F0 7022            05082 26157  1                      END
 005092 D507 7100 BE88_05160 00E88 26162  1                      IF    (DSNWAMBR,NE,'        '),BEGIN  IF MEMBER, ADD IT
 00509C 924D 2000      00000       26179  2                        MVI   @R2,C'('
 0050A0 5E20 710C            0516C 26180  2                        INCR  R2
 0050A4 D207 2000 BE88 00000 00E88 26183  2                        MVC   @R2(L'DSNWAMBR),DSNWAMBR
 0050AA 9540 2000/4780_00000       26184  2                        WHILE (@R2,NE,' '),BEGIN
 0050B2 5E20 710C            0516C 26202  3                          INCR  R2
 0050B6 47F0 704A            050AA 26205  2                        END
 0050BA 925D 2000      00000       26210  2                        MVI   @R2,C')'
 0050BE 5E20 710C            0516C 26211  2                        INCR  R2
 0050C2                            26214  1                      END
 0050C2 4110 6218            00218 26218  1                      LA    R1,FFRNAME
 0050C6 1B21                       26219  1                      SR    R2,R1
 0050C8 5020 6214            00214 26220  1                      ST    R2,FFRNAMEL
 0050CC                            26221                       END
                                   26225
                                   26226                       COMMENT                   NET NAME IS SPECIAL
 0050CC 9503 BF3B/4770_00F3B       26227                       IF    (DSNDTYPE,EQ,DSNDNET),BEGIN
 0050D4 4810 BF04            00F04 26245  1                      LH    R1,DSNWLEN
 0050D8 5010 6214            00214 26246  1                      ST    R1,FFRNAMEL
 0050DC 0610/1211/4740_            26247  1                      MOVE  R1,FFRNAME,DSNWFILE
 0050E8                            26285                       END
                                   26289
                                   26290                       COMMENT                   SAMSON NAME IS SPECIAL
 0050E8 9502 BF3B/4770_00F3B       26291                       IF    (DSNDTYPE,EQ,DSNDSAM),BEGIN
 0050F0 4810 BF06            00F06 26309  1                      LH    R1,DSNWANL
 0050F4 5010 6214            00214 26310  1                      ST    R1,FFRNAMEL
 0050F8 0610/1211/4740_            26311  1                      MOVE  R1,FFRNAME,DSNWADSN
 005104                            26349                       END
                                   26353
1NFILE    (NFIL2025) (12:49) (15MAR04) PRELIMINARY FILE NAME SCANNING                                                       Page   85
0Current Usings:  (FFINFO,R5) (FFINFO,R6) (*,R7) (CP,R11) (CV,R12)
0Loc    Object Code    Addr1 Addr2  Stmt Lv Lineno    Source Statement           (Hibal 5, Asmedit 3.3)  HLASM R4.0  2004/03/15 12.49
+___    ______ ____    _____ _____  ____ __ ______    ______ _________
0                                  26354                       COMMENT                   IF NO HOST, EXPORT HOST/VOL TOO
 005104 D503 70F8 608C_05158 0008C 26355                       IF    (FFHOSTL,EQ,0),BEGIN
 00510E 4110 BE90            00E90 26373  1                      LA    R1,DSNON
 005112 4120 BEB8            00EB8 26374  1                      LA    R2,DSNON+L'DSNON
 005116 0620                       26375  1                      DECR  R2
 005118 1921/4750 70D4_            26377  1                      WHILE ((R2,GE,R1),AND,((@R2,EQ,' '),OR,(@R2,EQ,0))),BEGIN
 00512E 0620                       26425  2                        DECR  R2
 005130 47F0 70B8            05118 26427  1                      END
 005134 5E20 710C            0516C 26432  1                      INCR  R2
 005138 1B21                       26435  1                      SR    R2,R1               R2 - DSNON LEN (MAY BE ZERO)
 00513A 5020 608C            0008C 26436  1                      ST    R2,FFHOSTL
 00513E 0620/1222/4740_            26437  1                      MOVE  R2,FFHOST,DSNON
 00514A                            26475                       END
                                   26479
 00514A 18D8/9808 D004_            26480                       PEND
 DROP   *,R7
 DROP   FFINFO,R6                  26500                       DROP  R6
                                   26507
                                   26508                       QLTORG
                                   26524                       AGO   .ALWAYS
                                   26525              .ALWAYS  ANOP
1NFILE    (NFIL2025) (12:49) (15MAR04) PRELIMINARY FILE NAME SCANNING                                                       Page   86
0Current Usings:  (FFINFO,R5) (CP,R11) (CV,R12)
0Loc    Object Code    Addr1 Addr2  Stmt Lv Lineno    Source Statement           (Hibal 5, Asmedit 3.3)  HLASM R4.0  2004/03/15 12.49
+___    ______ ____    _____ _____  ____ __ ______    ______ _________
0                                  26527              *
                                   26528              *
                                   26529              *   OLD DSN SCAN FINISHED PROCESSING.
                                   26530              *
                                   26531              *   THIS IS FOR BACKWARDS COMPATABILITY.  WE MUST
                                   26532              *   SET ALL THE OLD DSN... FIELDS IN THE CP.  WE
                                   26533              *   DO THIS BY RUNNING FILE NAME AND FILE OPTION
                                   26534              *   STRINGS THROUGH THE OLD DSN... ROUTINES.
                                   26535              *
                                   26536              *   NOTE:
                                   26537              *   THESE ROUTINES USE THE NEW SCANNER.  I MENTION
                                   26538              *   THIS JUST TO AVOID CONFUSION.  IT IS NO BIGGIE.
                                   26539              *
                                   26540              *   COMMENT:
                                   26541              *   ERRORS ARE HANDLED IN MISC UNKOWN FASHIONS.
                                   26542              *
 000000                00000 00208 26543              OLDFWA   RECORD BEGIN
 000000                            26551  1           OLDNAMEL   DS    F
 000004                            26552  1           OLDNAME    DS    XL256
 000104                            26553  1           OLDOPTSL   DS    F
 000108                            26554  1           OLDOPTS    DS    XL256
 000208                00208 00208 26555                       END
                                   26564              *
                                   26565              *
 005182 50E0 D000/9008_      00000 26566              OLDFIN   PROC  OLDFWA
 USING  *,R7
 USING  OLDFWA-(4+36),R8
 00519C 58E0 B08C/D2AF_      0008C 26616                       SCPUSH ,
 0051AA 5860 BE54            00E54 26622                       L     R6,CPFINFOP
 USING  FFINFO,R6                  26623                       USING FFINFO,R6
                                   26632
                                   26633                       COMMENT                   SCAN FILE NAME IF ANY
 0051AE 4110 600C/5800_      0000C 26634                       SETMSG FFNAME,L:FFNAMEL
 0051B6 1820                       26648                       LR    R2,R0
 0051B8 0620/1222/4740_            26649                       MOVE  R2,OLDNAME,@R1
 0051C4 5000 8028            00000 26687                       ST    R0,OLDNAMEL
 0051C8 9503 6000/4770_00000       26688                       IF    FFFSAM,BEGIN        IF SAMSON, preface with <MICRO>
 0051D0 4110 600C/5800_      0000C 26703  1                      SETMSG FFNAME,L:FFNAMEL
 0051D8 1820                       26717  1                      LR    R2,R0
 0051DA 954C 1000/4780_00000       26718  1                      IF    (@R1,NE,'<'),BEGIN
 0051E2 D206 802C 7404 00004 055A0 26734  2                        MVC   OLDNAME(7),=CL7'<MICRO>'
 0051E8 0620/1222/4740_            26735  2                        MOVE  R2,OLDNAME+7,@R1
 0051F4 5A00 73DC            05578 26773  2                        A     R0,=A(7)
 0051F8 5000 8028            00000 26774  2                        ST    R0,OLDNAMEL
 0051FC                            26775  1                      END
 0051FC                            26779                       END
                                   26783
                                   26784                       COMMENT                   DO FNAME !
 0051FC 58E0 B08C/D7AF_      0008C 26785                       SCCLR
 005208 4110 802C/5800_      00004 26794                       SCINIT OLDNAME,L:OLDNAMEL
 00521E 58E0 73E0/0DEE       0557C 26818                       VCALL DODSNM              PROCESS DATA SET NAME
                                   26822
                                   26823                       COMMENT                   DO FILE OPTIONS
 005224 5830 6110            00110 26824                       L     R3,FFOPTSL          MOVE FFOPTS TO OLDOPTS
1NFILE    (NFIL2025) (12:49) (15MAR04) PRELIMINARY FILE NAME SCANNING                                                       Page   87
0Current Usings:  (FFINFO,R5) (FFINFO,R6) (*,R7) (OLDFWA-(4+36),R8) (CP,R11) (CV,R12)
0Loc    Object Code    Addr1 Addr2  Stmt Lv Lineno    Source Statement           (Hibal 5, Asmedit 3.3)  HLASM R4.0  2004/03/15 12.49
+___    ______ ____    _____ _____  ____ __ ______    ______ _________
0005228 5030 812C            00104 26825                       ST    R3,OLDOPTSL
 00522C 4120 8130            00108 26826                       LA    R2,OLDOPTS
 005230 5830 6110            00110 26827                       L     R3,FFOPTSL
 005234 4140 6114            00114 26828                       LA    R4,FFOPTS
 005238 1853                       26829                       LR    R5,R3
 00523A 0E24                       26830                       MVCL  R2,R4               MOVE OPTIONS
 00523C D503 73D4 608C_05570 0008C 26831                       IF    (FFHOSTL,GT,0),BEGIN   ADD 'ON HOST' TO OPTIONS
 005246 4110 73E4/4100_      05580 26849  1                      SETMSG ' ON '
 00524E 1830                       26853  1                      LR    R3,R0
 005250 1841                       26854  1                      LR    R4,R1
 005252 1853                       26855  1                      LR    R5,R3
 005254 0E24                       26856  1                      MVCL  R2,R4               ' ON '
 005256 5830 608C            0008C 26857  1                      L     R3,FFHOSTL
 00525A 4140 6090            00090 26858  1                      LA    R4,FFHOST
 00525E 1853                       26859  1                      LR    R5,R3
 005260 0E24                       26860  1                      MVCL  R2,R4               HOST
 005262 5830 6110            00110 26861  1                      L     R3,FFOPTSL
 005266 5A30 73E8            05584 26862  1                      A     R3,=F'4'
 00526A 5A30 608C            0008C 26863  1                      A     R3,FFHOSTL
 00526E 5030 812C            00104 26864  1                      ST    R3,OLDOPTSL
 005272                            26865                       END
 005272 58E0 B08C/D7AF_      0008C 26869                       SCCLR                     SCAN FILE OPTIONS
 00527E 4110 8130/5800_      00108 26878                       SCINIT OLDOPTS,L:OLDOPTSL
 005294 5810 B08C/1B00_      0008C 26902                       SCAN  OLDFPRT
 0052E6 58E0 73F4/0DEE       05590 26934                       SCANCHK
                                   26939
                                   26940                       COMMENT                   FINISH UP, OLD STYLE
 0052EC 58E0 73F8/0DEE       05594 26941                       VCALL DSNFIN
                                   26945
 0052F2 58E0 73FC/0DEE       05598 26946                       ACALL EXPCNAME
                                   26950
 0052F8 58E0 B08C/4BD0_      0008C 26951                       SCPOP
 005306 18D8/9808 D004_            26957                       PEND  ,
 DROP   OLDFWA-(4+36),R8
 DROP   *,R7
 DROP   FFINFO,R6                  26982                       DROP  R6
                                   26989              *
                                   26990              *
 005314 C2D3D2E2C9E9C540_          26991              OLDFPRT  SCKW  BLKSIZE,V(SCNNOOP),(A,P)
 00533C 4040404040404040_          27006                       SCKW  ,V(SCNNOOP),V(MPAREN) MATCH '(<NNNN>)' RECORD COUNT
 005364 E3C9E3D3C5404040_          27021                       SCKW  TITLE,V(SCNNOOP),(A,P)
 00538C C3C1E3C1D3D6C740_          27036                       SCKW  CATALOG,V(SCNNOOP),A
 0053B4 C3C1E3D3C7404040_          27051                       SCKW  CATLG,V(SCNNOOP),A
 0053DC D5D6C3C1E3C1D3D6_          27066                       SCKW  NOCATALOG,V(SCNNOOP),A
 005404 D5D6C3C1E3D3C740_          27081                       SCKW  NOCATLG,V(SCNNOOP),A
 00542C D9C5C3C1E3C1D3D6_          27096                       SCKW  RECATALOG,V(SCNNOOP),A
 005454 D9C5C3C1E3D3C740_          27111                       SCKW  RECATLG,V(SCNNOOP),A
 00547C E4D5C3C1E3C1D3D6_          27126                       SCKW  UNCATALOG,V(SCNNOOP),A
 0054A4 E2E3D9C5C1D44040_          27141                       SCKW  STREAM,STREAM,A
 0054CC C5E7D7C4E3404040_          27156                       SCKW  EXPDT,V(SCNNOOP),A
 0054F4 4040404040404040_          27171                       SCKW  ,V(DSNPSHF),PUSH
 00551C 4040404040404040_          27186                       SCKW  ,V(NOTVALID)
                                   27201
 005544 50E0 D000/9008_      00000 27202              STREAM   PROC
1NFILE    (NFIL2025) (12:49) (15MAR04) PRELIMINARY FILE NAME SCANNING                                                       Page   88
0Current Usings:  (FFINFO,R5) (*,R7) (CP,R11) (CV,R12)
0Loc    Object Code    Addr1 Addr2  Stmt Lv Lineno    Source Statement           (Hibal 5, Asmedit 3.3)  HLASM R4.0  2004/03/15 12.49
+___    ______ ____    _____ _____  ____ __ ______    ______ _________
0USING  *,R7
 00555E 9640 BF39      00F39       27241                       SET   DSNFSTRM
 005562 18D8/9808 D004_            27247                       PEND
 DROP   *,R7
                                   27267
                                   27268                       QLTORG
1NFILE    (NFIL2025) (12:49) (15MAR04) MISC FILE SYSTEM INFO SAVE/GET ROUTINES                                              Page   89
0Current Usings:  (FFINFO,R5) (CP,R11) (CV,R12)
0Loc    Object Code    Addr1 Addr2  Stmt Lv Lineno    Source Statement           (Hibal 5, Asmedit 3.3)  HLASM R4.0  2004/03/15 12.49
+___    ______ ____    _____ _____  ____ __ ______    ______ _________
0                                  27294              *
                                   27295              *  SETDHOST - SET DEFAULT FILE HOST
                                   27296              *
                                   27297              *  R1,R0 - HOST LOCATION AND LENGTH
                                   27298              *
                                   27299              *
 0055B4 50E0 D000/9008_      00000 27300              SETDHOST XPROC ,
 USING  *,R7
 0055CE 4120 70BA            05688 27340                       LA    R2,=CL16'DEF_FILE_HOST   '
 0055D2 58E0 70DA/0DEE       056A8 27341                       VCALL SAVEDATA
 0055D8 18D8/9808 D004_            27345                       PEND
 DROP   *,R7
                                   27365              *
                                   27366              *  GETDHOST - GET DEFAULT FILE HOST
                                   27367              *
                                   27368              *  ON ENTRY:
                                   27369              *    R1,R0 - LOCATION AND LENGTH OF AREA
                                   27370              *
                                   27371              *  ON EXIT:
                                   27372              *    R0  - ACTUAL LENGTH
                                   27373              *    R1  - AREA
                                   27374              *    R15 - CC=ZERO, ALL OK
                                   27375              *          CC=NZ, NOT FOUND
                                   27376              *
                                   27377              *
 0055E6 50E0 D000/9008_      00000 27378              GETDHOST XPROC ,
 USING  *,R7
 005600 4120 7088            05688 27418                       LA    R2,=CL16'DEF_FILE_HOST   '
 005604 58E0 70AC/0DEE       056AC 27419                       VCALL GETDATA
 00560A 5008 0004            00004 27423                       PRETURN (R0)
 00560E 18D8/9808 D004_            27425                       PEND  ,
 DROP   *,R7
1NFILE    (NFIL2025) (12:49) (15MAR04) MISC FILE SYSTEM INFO SAVE/GET ROUTINES                                              Page   90
0Current Usings:  (FFINFO,R5) (CP,R11) (CV,R12)
0Loc    Object Code    Addr1 Addr2  Stmt Lv Lineno    Source Statement           (Hibal 5, Asmedit 3.3)  HLASM R4.0  2004/03/15 12.49
+___    ______ ____    _____ _____  ____ __ ______    ______ _________
0                                  27446              *
                                   27447              *  SETDTYPE - SET DEFAULT FILE TYPE
                                   27448              *
                                   27449              *  R1 - TYPE LOCATION AND LENGTH
                                   27450              *
                                   27451              *  NOTE:
                                   27452              *  TYPE IS STORED AS 1 BYTE OF FLAGS.
                                   27453              *  SEE FFFTYPE IN FFINFO DSECT.
                                   27454              *
                                   27455              *
 00561C 50E0 D000/9008_      00000 27456              SETDTYPE XPROC ,
 USING  *,R7
 005636 4100 0001            00001 27496                       LA    R0,1
 00563A 4120 7062            05698 27497                       LA    R2,=CL16'DEF_FILE_TYPE   '
 00563E 58E0 7072/0DEE       056A8 27498                       VCALL SAVEDATA
 005644 18D8/9808 D004_            27502                       PEND
 DROP   *,R7
                                   27522              *
                                   27523              *  GETDTYPE - GET CURRENT FILE TYPE
                                   27524              *
                                   27525              *  ON ENTRY:
                                   27526              *    R1,R0 - LOCATION AND LENGTH OF AREA
                                   27527              *
                                   27528              *  ON EXIT:
                                   27529              *    R0  - ACTUAL LENGTH
                                   27530              *    R1  - AREA
                                   27531              *    R15 - CC=ZERO, ALL OK
                                   27532              *          CC=NZ, NOT FOUND
                                   27533              *
                                   27534              *
 005652 50E0 D000/9008_      00000 27535              GETDTYPE XPROC ,
 USING  *,R7
 00566C 4100 0001            00001 27575                       LA    R0,1
 005670 4120 702C            05698 27576                       LA    R2,=CL16'DEF_FILE_TYPE   '
 005674 58E0 7040/0DEE       056AC 27577                       VCALL GETDATA
 00567A 18D8/9808 D004_            27581                       PEND  ,
 DROP   *,R7
                                   27601                       QLTORG
1NFILE    (NFIL2025) (12:49) (15MAR04) SET/SHOW FILE DEFAULT, FILE PREFIX                                                   Page   91
0Current Usings:  (FFINFO,R5) (CP,R11) (CV,R12)
0Loc    Object Code    Addr1 Addr2  Stmt Lv Lineno    Source Statement           (Hibal 5, Asmedit 3.3)  HLASM R4.0  2004/03/15 12.49
+___    ______ ____    _____ _____  ____ __ ______    ______ _________
0                                  27619              *
                                   27620              *  SET FDEFAULT
                                   27621              *
                                   27622              *  SET FILE DEFAULT: TYPE, HOST, PATH (WINGS)
                                   27623              *
                                   27624              *
                                   27625              *  WE TURN OFF FOR NOW,  PATCHABLE,,,
                                   27626              *
 000000                00000 003A0 27627              SFDWA    RECORD BEGIN
 000000                            27635  1           SFDINFO    DS    XL(L'FFINFO)
 0003A0                003A0 003A0 27636                       END
                                   27645              *
                                   27646              *
 0056B0 50E0 D000/9008_      00000 27647              SETFDEF  XPROC SFDWA
 USING  *,R7
 USING  SFDWA-(4+36),R8
                                   27698
                                   27699                       COMMENT                   DISABLE COMMAND FOR ALL
                                   27700                       COMMENT                    BUT PJG,SCH,  PATCHABLE
 0056CA D504 754A B3B4_05C14 003B4 27701                       IF    (CPSACCT,EQ,'SCHGG'),SETALLOW
 0056D4 D504 754F B3B4_05C19 003B4 27721                       IF    (CPSACCT,EQ,'PJGGG'),SETALLOW
 0056DE D504 7554 B3B4_05C1E 003B4 27741                       IF    (CPSACCT,EQ,'JDNGG'),SETALLOW
 0056E8 4100 0000            00000 27761                       LA    R0,0
 0056EC 4110 0000            00000 27762                       LA    R1,0
 0056F0 1901/4770 7030             27763                       IF    (R0,EQ,R1),BEGIN
 0056F6 47F0 C7DE            007DE 27778  1                      B     CVNEXT
 0056FA                            27779                       END
                                   27783
 0056FA                            27784              SETALLOW LABEL ,
                                   27786                       COMMENT                   GET DUMMY FFINO AREA,,
 0056FA 4160 8028            00000 27787                       LA    R6,SFDINFO
 USING  FFINFO,R6                  27788                       USING FFINFO,R6
 0056FE D7FF 6000 6000_00000 00000 27797                       CLEAR FFINFO
                                   27807                       COMMENT                   SCAN OPTIONS
 005716 5810 B08C/1B00_      0008C 27808                       SCAN  SFDPRT
 005768 58E0 74E6/0DEE       05BB0 27840                       SCANCHK
                                   27845                       COMMENT                   SET DEFAULT OPTIONS
 00576E 4110 6000            00000 27846                       LA    R1,FFTYPE
 005772 58E0 74EA/0DEE       05BB4 27847                       ACALL SETDTYPE
 005778 18D8/9808 D004_            27851                       PEND  ,
 DROP   SFDWA-(4+36),R8
 DROP   *,R7
                                   27876
 005788 4040404040404040_          27877              SFDPRT   SCKW  ,SFDNULL,NULL
 0057B0 E6C9D5C7E2404040_          27892                       SCKW  WINGS,SFDWINGS
                                   27907              *        SCKW  UNIX,SFDUNIX
                                   27908              *        SCKW  NET,SFDNET
                                   27909              *        SCKW  SAMSON,SFDSAM,A
 0057D8 D6D3C4C9C2D44040_          27910                       SCKW  OLDIBM,SFDOLD,A
 005800 4040404040404040_          27925                       SCKW  ,V(NOTVALID)
                                   27940              *
                                   27941              *
 005828 50E0 D000/9008_      00000 27942              SFDNULL  PROC  ,
 USING  *,R7
1NFILE    (NFIL2025) (12:49) (15MAR04) SET/SHOW FILE DEFAULT, FILE PREFIX                                                   Page   92
0Current Usings:  (FFINFO,R5) (FFINFO,R6) (*,R7) (CP,R11) (CV,R12)
0Loc    Object Code    Addr1 Addr2  Stmt Lv Lineno    Source Statement           (Hibal 5, Asmedit 3.3)  HLASM R4.0  2004/03/15 12.49
+___    ______ ____    _____ _____  ____ __ ______    ______ _________
0005842 4110 7356/4100_      05B98 27981                       ERROR 'Missing options.'
 00584E 18D8/9808 D004_            27988                       PEND
 DROP   *,R7
                                   28008              *
                                   28009              *
 00585C 50E0 D000/9008_      00000 28010              SFDWINGS PROC  ,
 USING  *,R7
 005876 9201 6000      00000       28049                       SET   FFFWINGS
 00587A 18D8/9808 D004_            28055                       PEND
 DROP   *,R7
                                   28075              *
                                   28076              *
 005888 50E0 D000/9008_      00000 28077              SFDUNIX  PROC  ,
 USING  *,R7
 0058A2 9202 6000      00000       28116                       SET   FFFUNIX
 0058A6 18D8/9808 D004_            28122                       PEND
 DROP   *,R7
                                   28142              *
                                   28143              *
 0058B4 50E0 D000/9008_      00000 28144              SFDNET   PROC  ,
 USING  *,R7
 0058CE 9204 6000      00000       28183                       SET   FFFNET
 0058D2 18D8/9808 D004_            28189                       PEND
 DROP   *,R7
                                   28209              *
                                   28210              *
 0058E0 50E0 D000/9008_      00000 28211              SFDSAM   PROC  ,
 USING  *,R7
 0058FA 9203 6000      00000       28250                       SET   FFFSAM
 0058FE 18D8/9808 D004_            28256                       PEND
 DROP   *,R7
                                   28276              *
                                   28277              *
 00590C 50E0 D000/9008_      00000 28278              SFDOLD   PROC  ,
 USING  *,R7
 005926 9205 6000      00000       28317                       SET   FFFOLD
 00592A 18D8/9808 D004_            28323                       PEND
 DROP   *,R7
 DROP   FFINFO,R6                  28343                       DROP  R6
1NFILE    (NFIL2025) (12:49) (15MAR04) SET/SHOW FILE DEFAULT, FILE PREFIX                                                   Page   93
0Current Usings:  (FFINFO,R5) (CP,R11) (CV,R12)
0Loc    Object Code    Addr1 Addr2  Stmt Lv Lineno    Source Statement           (Hibal 5, Asmedit 3.3)  HLASM R4.0  2004/03/15 12.49
+___    ______ ____    _____ _____  ____ __ ______    ______ _________
0                                  28351              *
                                   28352              *  SHOW FDEFAULT
                                   28353              *
                                   28354              *  SHOW DEFAULT FILE SYSTEM
                                   28355              *
                                   28356              *
 005938 50E0 D000/9008_      00000 28357              SHOWFDEF XPROC SFDWA
 USING  *,R7
 USING  SFDWA-(4+36),R8
 005952 4160 8028            00000 28408                       LA    R6,SFDINFO
 USING  FFINFO,R6                  28409                       USING FFINFO,R6
 005956 D7FF 6000 6000_00000 00000 28418                       CLEAR FFINFO
                                   28428
                                   28429                       COMMENT                   GET TYPE
 00596E 4110 6000            00000 28430                       LA    R1,FFTYPE
 005972 58E0 7266/0DEE       05BB8 28431                       ACALL GETDTYPE
                                   28435
                                   28436                       COMMENT                   TELL USER
 005978 9500 6000/4780_00000       28437                       IF    (FFTYPE,NZ),BEGIN
 005980 4110 726A/4100_      05BBC 28453  1                      TSEG  'Your default file system is '
                                   28471  1                      COMMENT                   OUTPUT TYPE INFO
 005992 9501 6000/4770_00000       28472  1                      IF    FFFWINGS,' TSEG "Wings." '
 0059AC 705E/47F0 7078_059AC 05998 28510  1                      ELSEIF    FFFUNIX,' TSEG "UNIX." '
 0059CA 707C/47F0 7096_059CA 059B6 28557  1                      ELSEIF    FFFNET,' TSEG "NET." '
 0059E8 709A/47F0 70B4_059E8 059D4 28604  1                      ELSEIF    FFFSAM,' TSEG "SAMSON." '
 005A06 70B8/47F0 70D2_05A06 059F2 28651  1                      ELSEIF    FFFOLD,' TSEG "OLDIBM." '
 005A24 70D6/47F0 70E8 05A24 05A10 28698  1                      ELSE  BEGIN
 005A28 4110 72E4/4100_      05C36 28709  2                        TSEG  'unknown. '
 005A3A                            28727  1                      END
 005A3A                            28731                       END
                                   28735
 005A3A 70EC/47F0 711C 05A3A 0597E 28736                       ELSE  BEGIN               IF NO USER DEFAULT SET
 005A3E 9120 C4C8/47E0_004C8       28747  1                      IF    CVFWINGS,BEGIN
 005A46 4110 728E/4100_      05BE0 28762  2                        TSEG  'Wylbur default file system is Wings.'
 005A58                            28780  1                      END
 005A58 710A/47F0 711C 05A58 05A44 28784  1                      ELSE  BEGIN
 005A5C 4110 72ED/4100_      05C3F 28795  2                        TSEG  'Wylbur default file system is OLDIBM.'
 005A6E                            28813  1                      END
 005A6E                            28817                       END
                                   28821
 005A6E 47F0 C7DE            007DE 28822                       B     CVNEXT
 005A72 18D8/9808 D004_            28823                       PEND  ,
 DROP   SFDWA-(4+36),R8
 DROP   *,R7
 DROP   FFINFO,R6                  28848                       DROP  R6
1NFILE    (NFIL2025) (12:49) (15MAR04) SET/SHOW FILE DEFAULT, FILE PREFIX                                                   Page   94
0Current Usings:  (FFINFO,R5) (CP,R11) (CV,R12)
0Loc    Object Code    Addr1 Addr2  Stmt Lv Lineno    Source Statement           (Hibal 5, Asmedit 3.3)  HLASM R4.0  2004/03/15 12.49
+___    ______ ____    _____ _____  ____ __ ______    ______ _________
0                                  28856              MAXFPATH EQU   32
                                   28857              *
                                   28858              *  SET FPATH (WINGS PATH NAME)
                                   28859              *
                                   28860              *
 005A80 50E0 D000/9008_      00000 28861              SETFPAT  XPROC ,
 USING  *,R7
 005A9A 5810 B08C/1B00_      0008C 28901                       SCAN  ,
 005AE8 58E0 7116/0DEE       05BB0 28932                       SCANCHK
 005AEE 12FF/4770 707E             28937                       IF    (R15,Z),BEGIN
 005AF4 1200/4770 7066             28951  1                      IF    (R0,Z),BEGIN
 005AFA D707 B208 B208 00208 00208 28965  2                        CLEAR CPWPATH
 005B00                            28972  1                      END
 005B00 1200/47D0 707E             28976  1                      IF    (R0,POS),BEGIN
 005B06 58F0 B08C/4110_      0008C 28990  2                        SCUPCASE CPWPATH
 005B18                            29011  1                      END
 005B18                            29015                       END
 005B18 47F0 C7DE            007DE 29019                       B     CVNEXT
 005B1C 18D8/9808 D004_            29020                       PEND  ,
 DROP   *,R7
                                   29040              *
                                   29041              *  SHOW FPATH
                                   29042              *
                                   29043              *
 005B2A 50E0 D000/9008_      00000 29044              SHOWFPAT XPROC
 USING  *,R7
 005B44 58E0 70C4/0DEE       05C08 29084                       VCALL NOOPTS
 005B4A D507 704C B208_05B90 00208 29088                       IF    (CPWPATH,EQ,0),BEGIN
 005B54 4110 7120/4100_      05C64 29106  1                      TSEG  'No user specified WINGS path.  Default path used.'
 005B66                            29124                       END
 005B66 7026/47F0 7038 05B66 05B52 29128                       ELSE  BEGIN
 005B6A 4110 B208/4100_      00208 29139  1                      TSEG  CPWPATH,8
 005B7C                            29169                       END
 005B7C 47F0 C7DE            007DE 29173                       B     CVNEXT
 005B80 18D8/9808 D004_            29174                       PEND
 DROP   *,R7
                                   29194
                                   29195                       QLTORG
1NFILE    (NFIL2025) (12:49) (15MAR04) NAME RESOLUTION ROUTINES                                                             Page   95
0Current Usings:  (FFINFO,R5) (CP,R11) (CV,R12)
0Loc    Object Code    Addr1 Addr2  Stmt Lv Lineno    Source Statement           (Hibal 5, Asmedit 3.3)  HLASM R4.0  2004/03/15 12.49
+___    ______ ____    _____ _____  ____ __ ______    ______ _________
0                                  29232              *
                                   29233              *  NRESOLVE
                                   29234              *
                                   29235              *  RESOLVE FILE NAME
                                   29236              *
                                   29237              *  ON ENTRY:
                                   29238              *    FFINFO CONTAINS FFNAME, FFHOST, FFTYPE, AND FFOPTIONS
                                   29239              *    (IE, FILE NAME, FILE HOST, FILE TYPE, FILE OPTIONS)
                                   29240              *  ON EXIT:
                                   29241              *    FFRNAME CONTAINS FULL NAME
                                   29242              *    R15=0 NAME RESOLVED.  R15=NZ IF ERROR, ERR MSG TSEG'D.
                                   29243              *
                                   29244              *  NOTE:
                                   29245              *    SOME ERRORS EXIT VIA CVERROR
                                   29246              *
                                   29247              *
 005C96 50E0 D000/9008_      00000 29248              NRESOLVE XPROC ,
 USING  *,R7
                                   29288
 005CB0 5860 BE54            00E54 29289                       L     R6,CPFINFOP
 005CB4 1266/4770 700C_            29290                       IF    (R6,Z),' BOMB '
 USING  FFINFO,R6                  29311                       USING FFINFO,R6
                                   29320
                                   29321                       COMMENT                   MUST HAVE FILE NAME, FILE TYPE
 005CBC D503 70CC 6008_05D7C 00008 29322                       IF    (FFNAMEL,EQ,0),' BOMB '
 005CC8 9500 6000/4770_00000       29347                       IF    (FFTYPE,EQ,0),' BOMB '
                                   29372
                                   29373                       COMMENT                   RESOLVE NAME BASED ON FILE TYPE
 005CD2 4110 6000            00000 29374                       LA     R1,FFINFO
 005CD6 9501 6000/4770_00000       29375                       IF     FFFWINGS,BEGIN     WINGS NAME RESOLVE
 005CDE 58E0 70D0/0DEE       05D80 29390  1                      VCALL WGSRESLV
 005CE4 4780 7044            05CF4 29394  1                      IF    NZ,BEGIN            ERRORS EXIT VIA CVERROR
 005CE8 9110 BD5C/4710_00D5C       29405  2                        IF    ~CPFDSNNE,BEGIN     UNLESS CPFDSNNE SET
 005CF0 47F0 C7D6            007D6 29420  3                          B     CVERROR
 005CF4                            29421  2                        END
 005CF4                            29425  1                      END
 005CF4                            29429                       END
 005CF4 7048/47F0 7056_05CF4 05CDC 29433                       ELSEIF FFFOLD,'ACALL DSNRESLV'
 005D06 705A/47F0 7068_05D06 05CFE 29466                       ELSEIF FFFNET,'VCALL NETRESLV'
 005D18 706C/47F0 707A_05D18 05D10 29499                       ELSEIF FFFUNIX,'VCALL UFSRESLV'
 005D2A 707E/47F0 708C_05D2A 05D22 29532                       ELSEIF FFFSAM,'VCALL SAMRESLV'
                                   29565
 005D3C 18D8/9808 D004_            29566                       PEND
 DROP   *,R7
 DROP   FFINFO,R6                  29586                       DROP  R6
1NFILE    (NFIL2025) (12:49) (15MAR04) NAME RESOLUTION ROUTINES                                                             Page   96
0Current Usings:  (FFINFO,R5) (CP,R11) (CV,R12)
0Loc    Object Code    Addr1 Addr2  Stmt Lv Lineno    Source Statement           (Hibal 5, Asmedit 3.3)  HLASM R4.0  2004/03/15 12.49
+___    ______ ____    _____ _____  ____ __ ______    ______ _________
0                                  29594              *
                                   29595              *
 005D4A 50E0 D000/9008_      00000 29596              DSNRESLV PROC
 USING  *,R7
 005D64 58E0 7030/0DEE       05D94 29635                       VCALL EXPCNAME            EXPORT NAME FROM DSN WORK AREA
 005D6A 1BFF                       29639                       CLEAR R15
 005D6C 18D8/9808 D004_            29643                       PEND
 DROP   *,R7
1NFILE    (NFIL2025) (12:49) (15MAR04) NAME RESOLUTION ROUTINES                                                             Page   97
0Current Usings:  (FFINFO,R5) (CP,R11) (CV,R12)
0Loc    Object Code    Addr1 Addr2  Stmt Lv Lineno    Source Statement           (Hibal 5, Asmedit 3.3)  HLASM R4.0  2004/03/15 12.49
+___    ______ ____    _____ _____  ____ __ ______    ______ _________
0                                  29664              *
                                   29665                       VLTORG
 005D7A 0000/00000000              29673                       END   .
 005D80 00000000                   29677                             =V(WGSRESLV)
 005D84 00005D4A                   29678                             =A(DSNRESLV)
 005D88 00000000                   29679                             =V(NETRESLV)
 005D8C 00000000                   29680                             =V(UFSRESLV)
 005D90 00000000                   29681                             =V(SAMRESLV)
 005D94 00000000                   29682                             =V(EXPCNAME)

1NFILE    (NFIL2025) (12:49) (15MAR04) Relocation Dictionary                                                                Page   98
-   Pos.Id   Rel.Id   Flags    Address                                                       HLASM R4.0  2004/03/15 12.49
0  00000001 00000001    0C    000005A0
   00000001 00000001    0C    000005A4
   00000001 00000001    0C    000005D8
   00000001 00000001    0C    00000608
   00000001 00000001    0C    0000060C
   00000001 00000001    0C    00000610
   00000001 00000001    0C    00000614
   00000001 00000001    0C    00000618
   00000001 00000001    0C    00000620
   00000001 00000001    0C    00000690
   00000001 00000001    0C    000006B8
   00000001 00000001    0C    00000708
   00000001 00000001    0C    00000730
   00000001 00000001    0C    00000758
   00000001 00000001    0C    00000780
   00000001 00000001    0C    000007A8
   00000001 00000001    0C    000007D0
   00000001 00000001    0C    000007F8
   00000001 00000001    0C    00000820
   00000001 00000001    0C    00000898
   00000001 00000001    0C    00000F5C
   00000001 00000001    0C    00000F6C
   00000001 00000001    0C    0000121C
   00000001 00000001    0C    00001244
   00000001 00000001    0C    0000126C
   00000001 00000001    0C    00001294
   00000001 00000001    0C    000012BC
   00000001 00000001    0C    000012E4
   00000001 00000001    0C    0000130C
   00000001 00000001    0C    00001334
   00000001 00000001    0C    0000135C
   00000001 00000001    0C    00001920
   00000001 00000001    0C    00001928
   00000001 00000001    0C    00001974
   00000001 00000001    0C    00001980
   00000001 00000001    0C    0000199C
   00000001 00000001    0C    00001F0C
   00000001 00000001    0C    00001F34
   00000001 00000001    0C    00001FAC
   00000001 00000001    0C    00001FD4
   00000001 00000001    0C    000023B0
   00000001 00000001    0C    00002404
   00000001 00000001    0C    00002420
   00000001 00000001    0C    000024E0
   00000001 00000001    0C    00002508
   00000001 00000001    0C    00002530
   00000001 00000001    0C    00002558
   00000001 00000001    0C    00002580
   00000001 00000001    0C    000025A8
   00000001 00000001    0C    000025D0
   00000001 00000001    0C    000025F8
   00000001 00000001    0C    00002620
   00000001 00000001    0C    00002648
   00000001 00000001    0C    00002914
   00000001 00000001    0C    0000292C
1NFILE    (NFIL2025) (12:49) (15MAR04) Relocation Dictionary                                                                Page   99
   00000001 00000001    0C    00002974
   00000001 00000001    0C    00002A00
   00000001 00000001    0C    00002A28
   00000001 00000001    0C    00002A50
   00000001 00000001    0C    00002A78
   00000001 00000001    0C    00002AA0
   00000001 00000001    0C    00002AC8
   00000001 00000001    0C    00002AF0
   00000001 00000001    0C    00002B18
   00000001 00000001    0C    00002B40
   00000001 00000001    0C    00002B68
   00000001 00000001    0C    00002B90
   00000001 00000001    0C    00002BB8
   00000001 00000001    0C    00002BE0
   00000001 00000001    0C    00002C08
   00000001 00000001    0C    00002C30
   00000001 00000001    0C    00002C58
   00000001 00000001    0C    00002CA8
   00000001 00000001    0C    00002EC8
   00000001 00000001    0C    00002ED0
   00000001 00000001    0C    00002F44
   00000001 00000001    0C    00002F6C
   00000001 00000001    0C    000031F8
   00000001 00000001    0C    000032D8
   00000001 00000001    0C    000033A8
   00000001 00000001    0C    000033D8
   00000001 00000001    0C    000033E4
   00000001 00000001    0C    0000351C
   00000001 00000001    0C    00003544
   00000001 00000001    0C    0000356C
   00000001 00000001    0C    00003594
   00000001 00000001    0C    000035BC
   00000001 00000001    0C    000035E4
   00000001 00000001    0C    0000360C
   00000001 00000001    0C    00003634
   00000001 00000001    0C    0000365C
   00000001 00000001    0C    00003684
   00000001 00000001    0C    000036AC
   00000001 00000001    0C    000036D4
   00000001 00000001    0C    000036FC
   00000001 00000001    0C    00003724
   00000001 00000001    0C    0000374C
   00000001 00000001    0C    00003774
   00000001 00000001    0C    0000379C
   00000001 00000001    0C    000037C4
   00000001 00000001    0C    000037EC
   00000001 00000001    0C    00003814
   00000001 00000001    0C    0000383C
   00000001 00000001    0C    00003864
   00000001 00000001    0C    0000388C
   00000001 00000001    0C    000038B4
   00000001 00000001    0C    000038DC
   00000001 00000001    0C    00003904
   00000001 00000001    0C    0000392C
   00000001 00000001    0C    00003954
   00000001 00000001    0C    0000397C
   00000001 00000001    0C    000039A4
   00000001 00000001    0C    000039CC
   00000001 00000001    0C    000039F4
1NFILE    (NFIL2025) (12:49) (15MAR04) Relocation Dictionary                                                                Page  100
   00000001 00000001    0C    00003A1C
   00000001 00000001    0C    00003A44
   00000001 00000001    0C    00003A6C
   00000001 00000001    0C    00003A94
   00000001 00000001    0C    00003ABC
   00000001 00000001    0C    00003AE4
   00000001 00000001    0C    00003B0C
   00000001 00000001    0C    00003B34
   00000001 00000001    0C    00003B5C
   00000001 00000001    0C    00003B84
   00000001 00000001    0C    00003BAC
   00000001 00000001    0C    00003BD4
   00000001 00000001    0C    00003BFC
   00000001 00000001    0C    00003C24
   00000001 00000001    0C    00003C4C
   00000001 00000001    0C    00003C74
   00000001 00000001    0C    00003C9C
   00000001 00000001    0C    00003CC4
   00000001 00000001    0C    00003CEC
   00000001 00000001    0C    00003D14
   00000001 00000001    0C    00003D64
   00000001 00000001    0C    00003DB4
   00000001 00000001    0C    00003DDC
   00000001 00000001    0C    00003E04
   00000001 00000001    0C    00004390
   00000001 00000001    0C    00004398
   00000001 00000001    0C    0000439C
   00000001 00000001    0C    000043A0
   00000001 00000001    0C    000043A4
   00000001 00000001    0C    000043E4
   00000001 00000001    0C    00004720
   00000001 00000001    0C    00004748
   00000001 00000001    0C    00004770
   00000001 00000001    0C    00004798
   00000001 00000001    0C    000047C0
   00000001 00000001    0C    000047E8
   00000001 00000001    0C    00004810
   00000001 00000001    0C    00004838
   00000001 00000001    0C    00004860
   00000001 00000001    0C    00004888
   00000001 00000001    0C    000048B0
   00000001 00000001    0C    000048D8
   00000001 00000001    0C    00004900
   00000001 00000001    0C    00004928
   00000001 00000001    0C    00004950
   00000001 00000001    0C    00004978
   00000001 00000001    0C    000049A0
   00000001 00000001    0C    000049C8
   00000001 00000001    0C    000049F0
   00000001 00000001    0C    00004A18
   00000001 00000001    0C    00004A40
   00000001 00000001    0C    00004A68
   00000001 00000001    0C    00004A90
   00000001 00000001    0C    00004AB8
   00000001 00000001    0C    00004AE0
   00000001 00000001    0C    00004B08
   00000001 00000001    0C    00004B30
   00000001 00000001    0C    00004B58
   00000001 00000001    0C    00004B80
1NFILE    (NFIL2025) (12:49) (15MAR04) Relocation Dictionary                                                                Page  101
   00000001 00000001    0C    00004BA8
   00000001 00000001    0C    00004BCC
   00000001 00000001    0C    00004BD0
   00000001 00000001    0C    00004BF8
   00000001 00000001    0C    00004C20
   00000001 00000001    0C    00004F60
   00000001 00000001    0C    00004F64
   00000001 00000001    0C    00004F68
   00000001 00000001    0C    00004F70
   00000001 00000001    0C    00004F74
   00000001 00000001    0C    00004F80
   00000001 00000001    0C    00004FAC
   00000001 00000001    0C    00005168
   00000001 00000001    0C    000054C8
   00000001 00000001    0C    00005588
   00000001 00000001    0C    00005598
   00000001 00000001    0C    000057AC
   00000001 00000001    0C    000057D4
   00000001 00000001    0C    000057FC
   00000001 00000001    0C    00005BA8
   00000001 00000001    0C    00005BB4
   00000001 00000001    0C    00005BB8
   00000001 00000001    0C    00005D84
   00000001 00000002    1C    000005A8
   00000001 00000003    1C    000005AC
   00000001 00000004    1C    000005C8
   00000001 00000004    1C    000023F4
   00000001 00000004    1C    000031FC
   00000001 00000004    1C    000043D8
   00000001 00000005    1C    000005CC
   00000001 00000005    1C    00001930
   00000001 00000005    1C    000023B8
   00000001 00000005    1C    00002934
   00000001 00000005    1C    00002ED4
   00000001 00000005    1C    00003200
   00000001 00000005    1C    000033E0
   00000001 00000005    1C    00004FB4
   00000001 00000005    1C    00005590
   00000001 00000005    1C    00005BB0
   00000001 00000006    1C    000005D0
   00000001 00000006    1C    00001924
   00000001 00000006    1C    000023AC
   00000001 00000006    1C    00002928
   00000001 00000006    1C    00002EC4
   00000001 00000007    1C    000005D4
   00000001 00000008    1C    000005DC
   00000001 00000008    1C    0000192C
   00000001 00000008    1C    000023B4
   00000001 00000008    1C    00002930
   00000001 00000008    1C    00002ECC
   00000001 00000008    1C    000033DC
   00000001 00000008    1C    000043D4
   00000001 00000008    1C    00004FB0
   00000001 00000008    1C    0000558C
   00000001 00000008    1C    00005BAC
   00000001 00000009    1C    000005E0
   00000001 00000009    1C    00001934
   00000001 00000009    1C    000023BC
   00000001 00000009    1C    00002938
1NFILE    (NFIL2025) (12:49) (15MAR04) Relocation Dictionary                                                                Page  102
   00000001 00000009    1C    00002ED8
   00000001 0000000A    1C    000005E4
   00000001 0000000B    1C    000005E8
   00000001 0000000B    1C    00000F90
   00000001 0000000B    1C    000019B4
   00000001 0000000B    1C    000023CC
   00000001 0000000B    1C    00002978
   00000001 0000000B    1C    00004F84
   00000001 0000000B    1C    00005BD8
   00000001 0000000C    1C    000005EC
   00000001 0000000C    1C    0000240C
   00000001 0000000D    1C    000005F4
   00000001 0000000D    1C    00000F64
   00000001 0000000D    1C    0000241C
   00000001 0000000E    1C    000005F8
   00000001 0000000E    1C    00000F40
   00000001 0000000E    1C    0000196C
   00000001 0000000F    1C    000005FC
   00000001 0000000F    1C    00000F68
   00000001 0000000F    1C    00001968
   00000001 00000010    1C    00000604
   00000001 00000010    1C    00001998
   00000001 00000010    1C    000023F0
   00000001 00000010    1C    00002970
   00000001 00000011    1C    00000624
   00000001 00000011    1C    00000F60
   00000001 00000011    1C    00001978
   00000001 00000012    1C    0000062C
   00000001 00000012    1C    00001984
   00000001 00000013    1C    00000630
   00000001 00000013    1C    000023C8
   00000001 00000013    1C    00002980
   00000001 00000014    1C    00000634
   00000001 00000015    1C    00000638
   00000001 00000015    1C    00001964
   00000001 00000016    1C    0000063C
   00000001 00000016    1C    000023C0
   00000001 00000016    1C    0000293C
   00000001 00000016    1C    00002EDC
   00000001 00000017    1C    0000068C
   00000001 00000017    1C    000006B4
   00000001 00000017    1C    000006DC
   00000001 00000017    1C    00000704
   00000001 00000017    1C    0000072C
   00000001 00000017    1C    00000754
   00000001 00000017    1C    0000077C
   00000001 00000017    1C    000007A4
   00000001 00000017    1C    000007CC
   00000001 00000017    1C    000007F4
   00000001 00000017    1C    0000081C
   00000001 00000017    1C    00001268
   00000001 00000017    1C    00001290
   00000001 00000017    1C    000012B8
   00000001 00000017    1C    000012E0
   00000001 00000017    1C    00001330
   00000001 00000017    1C    00001358
   00000001 00000017    1C    00001F30
   00000001 00000017    1C    00001FA8
   00000001 00000017    1C    00001FD0
1NFILE    (NFIL2025) (12:49) (15MAR04) Relocation Dictionary                                                                Page  103
   00000001 00000017    1C    000024DC
   00000001 00000017    1C    00002504
   00000001 00000017    1C    0000252C
   00000001 00000017    1C    00002554
   00000001 00000017    1C    0000257C
   00000001 00000017    1C    000025A4
   00000001 00000017    1C    000025CC
   00000001 00000017    1C    000025F4
   00000001 00000017    1C    0000261C
   00000001 00000017    1C    00002644
   00000001 00000017    1C    000029FC
   00000001 00000017    1C    00002A24
   00000001 00000017    1C    00002A4C
   00000001 00000017    1C    00002A74
   00000001 00000017    1C    00002A9C
   00000001 00000017    1C    00002AC4
   00000001 00000017    1C    00002AEC
   00000001 00000017    1C    00002B14
   00000001 00000017    1C    00002B3C
   00000001 00000017    1C    00002B64
   00000001 00000017    1C    00002B8C
   00000001 00000017    1C    00002BB4
   00000001 00000017    1C    00002BDC
   00000001 00000017    1C    00002C04
   00000001 00000017    1C    00002C2C
   00000001 00000017    1C    00002C54
   00000001 00000017    1C    00002F40
   00000001 00000017    1C    00002F68
   00000001 00000017    1C    00003518
   00000001 00000017    1C    00003568
   00000001 00000017    1C    00003590
   00000001 00000017    1C    000035B8
   00000001 00000017    1C    000035E0
   00000001 00000017    1C    00003608
   00000001 00000017    1C    00003630
   00000001 00000017    1C    00003658
   00000001 00000017    1C    00003680
   00000001 00000017    1C    000036A8
   00000001 00000017    1C    000036D0
   00000001 00000017    1C    000036F8
   00000001 00000017    1C    00003720
   00000001 00000017    1C    00003748
   00000001 00000017    1C    00003770
   00000001 00000017    1C    00003798
   00000001 00000017    1C    000037C0
   00000001 00000017    1C    000037E8
   00000001 00000017    1C    00003810
   00000001 00000017    1C    00003838
   00000001 00000017    1C    00003860
   00000001 00000017    1C    00003888
   00000001 00000017    1C    000038B0
   00000001 00000017    1C    000038D8
   00000001 00000017    1C    00003900
   00000001 00000017    1C    00003928
   00000001 00000017    1C    00003950
   00000001 00000017    1C    00003978
   00000001 00000017    1C    000039A0
   00000001 00000017    1C    000039C8
   00000001 00000017    1C    000039F0
1NFILE    (NFIL2025) (12:49) (15MAR04) Relocation Dictionary                                                                Page  104
   00000001 00000017    1C    00003A18
   00000001 00000017    1C    00003A40
   00000001 00000017    1C    00003A68
   00000001 00000017    1C    00003A90
   00000001 00000017    1C    00003AB8
   00000001 00000017    1C    00003AE0
   00000001 00000017    1C    00003B08
   00000001 00000017    1C    00003B30
   00000001 00000017    1C    00003B58
   00000001 00000017    1C    00003B80
   00000001 00000017    1C    00003BA8
   00000001 00000017    1C    00003BD0
   00000001 00000017    1C    00003BF8
   00000001 00000017    1C    00003C20
   00000001 00000017    1C    00003C48
   00000001 00000017    1C    00003C70
   00000001 00000017    1C    00003C98
   00000001 00000017    1C    00003CC0
   00000001 00000017    1C    00003CE8
   00000001 00000017    1C    00003D10
   00000001 00000017    1C    00003D60
   00000001 00000017    1C    00003DB0
   00000001 00000017    1C    00003DD8
   00000001 00000017    1C    00003E00
   00000001 00000017    1C    0000471C
   00000001 00000017    1C    00004744
   00000001 00000017    1C    0000476C
   00000001 00000017    1C    00004794
   00000001 00000017    1C    000047BC
   00000001 00000017    1C    000047E4
   00000001 00000017    1C    0000480C
   00000001 00000017    1C    00004834
   00000001 00000017    1C    0000485C
   00000001 00000017    1C    00004884
   00000001 00000017    1C    000048AC
   00000001 00000017    1C    000048D4
   00000001 00000017    1C    000048FC
   00000001 00000017    1C    00004924
   00000001 00000017    1C    0000494C
   00000001 00000017    1C    00004974
   00000001 00000017    1C    0000499C
   00000001 00000017    1C    000049C4
   00000001 00000017    1C    000049EC
   00000001 00000017    1C    00004A14
   00000001 00000017    1C    00004A3C
   00000001 00000017    1C    00004A64
   00000001 00000017    1C    00004A8C
   00000001 00000017    1C    00004AB4
   00000001 00000017    1C    00004ADC
   00000001 00000017    1C    00004B04
   00000001 00000017    1C    00004B2C
   00000001 00000017    1C    00004B54
   00000001 00000017    1C    00004B7C
   00000001 00000017    1C    00004BA4
   00000001 00000017    1C    000053AC
   00000001 00000017    1C    000053D4
   00000001 00000017    1C    000053FC
   00000001 00000017    1C    00005424
   00000001 00000017    1C    0000544C
1NFILE    (NFIL2025) (12:49) (15MAR04) Relocation Dictionary                                                                Page  105
   00000001 00000017    1C    00005474
   00000001 00000017    1C    0000549C
   00000001 00000017    1C    000054C4
   00000001 00000017    1C    000054EC
   00000001 00000017    1C    000057D0
   00000001 00000017    1C    000057F8
   00000001 00000018    1C    000006E0
   00000001 00000018    1C    00005338
   00000001 00000018    1C    00005360
   00000001 00000018    1C    00005388
   00000001 00000018    1C    000053B0
   00000001 00000018    1C    000053D8
   00000001 00000018    1C    00005400
   00000001 00000018    1C    00005428
   00000001 00000018    1C    00005450
   00000001 00000018    1C    00005478
   00000001 00000018    1C    000054A0
   00000001 00000018    1C    000054F0
   00000001 00000019    1C    00000848
   00000001 0000001A    1C    00000870
   00000001 0000001A    1C    00002CD0
   00000001 0000001B    1C    000008C0
   00000001 0000001C    1C    000008E8
   00000001 0000001C    1C    000013D4
   00000001 0000001C    1C    00001F84
   00000001 0000001C    1C    00002698
   00000001 0000001C    1C    00002CF8
   00000001 0000001C    1C    00002FBC
   00000001 0000001D    1C    00000910
   00000001 0000001D    1C    00002D20
   00000001 0000001E    1C    00000934
   00000001 0000001E    1C    000013F8
   00000001 0000001E    1C    00001FF8
   00000001 0000001E    1C    000026BC
   00000001 0000001E    1C    00002D44
   00000001 0000001E    1C    00002FE0
   00000001 0000001E    1C    000032FC
   00000001 0000001E    1C    000033CC
   00000001 0000001E    1C    00004C1C
   00000001 0000001E    1C    0000553C
   00000001 0000001E    1C    00005820
   00000001 0000001F    1C    00000938
   00000001 0000001F    1C    000013FC
   00000001 0000001F    1C    00001FFC
   00000001 0000001F    1C    000026C0
   00000001 0000001F    1C    00002910
   00000001 0000001F    1C    00002D48
   00000001 0000001F    1C    00002FE4
   00000001 0000001F    1C    000043A8
   00000001 0000001F    1C    00005540
   00000001 0000001F    1C    00005824
   00000001 00000020    1C    00000F44
   00000001 00000021    1C    00000F48
   00000001 00000022    1C    00000F50
   00000001 00000023    1C    00000F54
   00000001 00000024    1C    00000F78
   00000001 00000024    1C    00002400
   00000001 00000025    1C    00000F94
   00000001 00000025    1C    0000297C
1NFILE    (NFIL2025) (12:49) (15MAR04) Relocation Dictionary                                                                Page  106
   00000001 00000026    1C    00001218
   00000001 00000026    1C    00001240
   00000001 00000027    1C    00001308
   00000001 00000027    1C    00005334
   00000001 00000027    1C    00005384
   00000001 00000028    1C    00001384
   00000001 00000029    1C    000013AC
   00000001 00000029    1C    00002C80
   00000001 0000002A    1C    00001988
   00000001 0000002B    1C    0000198C
   00000001 0000002C    1C    00001990
   00000001 0000002C    1C    00004F88
   00000001 0000002D    1C    000019A4
   00000001 0000002E    1C    000019A8
   00000001 0000002F    1C    000019AC
   00000001 00000030    1C    000019B8
   00000001 00000031    1C    000019C4
   00000001 00000032    1C    000019C8
   00000001 00000033    1C    00001F08
   00000001 00000033    1C    00004BF4
   00000001 00000033    1C    000057A8
   00000001 00000034    1C    00001F5C
   00000001 00000034    1C    00002670
   00000001 00000034    1C    00002F94
   00000001 00000035    1C    000023A8
   00000001 00000035    1C    00002924
   00000001 00000035    1C    00002EC0
   00000001 00000036    1C    000023C4
   00000001 00000037    1C    000023DC
   00000001 00000038    1C    000023E4
   00000001 00000039    1C    000023EC
   00000001 0000003A    1C    00002408
   00000001 0000003B    1C    00002410
   00000001 0000003C    1C    00002414
   00000001 0000003D    1C    00002418
   00000001 0000003E    1C    00002918
   00000001 0000003F    1C    00002920
   00000001 00000040    1C    0000296C
   00000001 00000041    1C    00002EE8
   00000001 00000042    1C    000031F4
   00000001 00000043    1C    00003204
   00000001 00000044    1C    00003208
   00000001 00000044    1C    000043CC
   00000001 00000045    1C    00003300
   00000001 00000045    1C    000033D0
   00000001 00000046    1C    00003540
   00000001 00000046    1C    0000535C
   00000001 00000047    1C    00004394
   00000001 00000048    1C    00004FBC
   00000001 00000049    1C    00005518
   00000001 0000004A    1C    0000557C
   00000001 0000004B    1C    00005594
   00000001 0000004C    1C    000056A8
   00000001 0000004D    1C    000056AC
   00000001 0000004E    1C    00005C04
   00000001 0000004F    1C    00005C08
   00000001 00000050    1C    00005D80
   00000001 00000051    1C    00005D88
   00000001 00000052    1C    00005D8C
1NFILE    (NFIL2025) (12:49) (15MAR04) Relocation Dictionary                                                                Page  107
   00000001 00000053    1C    00005D90
   00000001 00000054    1C    00005D94

1NFILE    (NFIL2025) (12:49) (15MAR04) Ordinary Symbol and Literal Cross Reference                                          Page  108
-Symbol   Length   Value     Id    R Type   Defn References                                  HLASM R4.0  2004/03/15 12.49
0$$$@R0        1 00000000 FFFFFFFE     J     705  1032
 $$$@R10       1 00000000 FFFFFFF4     J     835  1109
 $$$@R11       1 00000000 FFFFFFF3     J     848  1122
 $$$@R12       1 00000000 FFFFFFF2     J     861  1135
 $$$@R13       1 00000000 FFFFFFF1     J     874  1148
 $$$@R14       1 00000000 FFFFFFF0     J     887  1161
 $$$@R6        1 00000000 FFFFFFF8     J     783  1045
 $$$@R7        1 00000000 FFFFFFF7     J     796  1058
 $$$@R8        1 00000000 FFFFFFF6     J     809  1071   1083
 $$$@R9        1 00000000 FFFFFFF5     J     822  1096
 $$$C1WYLNFILE
               1 0000066C 00000001     J    8841  8843   9758   9917  10489  10806
 $$$C10WYLNFILE
               1 00003232 00000001     J   19813 19815
 $$$C11WYLNFILE
               1 000033EA 00000001     J   20096 20098  21926  21991  22154  22315  22642  22970
 $$$C12WYLNFILE
               1 0000446C 00000001     J   23253 23255  23951  25648  25709  25794
 $$$C13WYLNFILE
               1 00005046 00000001     J   26042 26044  26279  26343  26469
 $$$C14WYLNFILE
               1 00005182 00000001     J   26519 26521  26562  26681  26767
 $$$C15WYLNFILE
               1 000055B4 00000001     J   27288 27290
 $$$C16WYLNFILE
               1 000056B0 00000001     J   27612 27614  27643
 $$$C17WYLNFILE
               1 00005C95 00000001     J   29226 29228
 $$$C18WYLNFILE
               1 00005D98 00000001     J   29683 29685
 $$$C2WYLNFILE
               1 00001035 00000001     J   11521 11523  11565  13074  13519  14009
 $$$C3WYLNFILE
               1 00001B34 00000001     J   14377 14379
 $$$C4WYLNFILE
               1 00001B60 00000001     J   14459 14461  14520  14657  14812  14852  14907  14951  15356  15396  15464
                                                 15535  15590  15652  15692  15807  16297
 $$$C5WYLNFILE
               1 000024BC 00000001     J   17254 17256
 $$$C6WYLNFILE
               1 000029D9 00000001     J   18218 18220
 $$$C7WYLNFILE
               1 00002D50 00000001     J   18569 18571
 $$$C8WYLNFILE
               1 00002F20 00000001     J   18980 18982
 $$$C9WYLNFILE
               1 00002FE8 00000001     J   19076 19078  19422  19691
 $$$D0WYLNFILE
               1 00000660 00000001     J     991  7253   7634
 $$$D11WYLNFILE
               1 0000444E 00000001     J   20097 21915  22143  22304  22631  22959
 $$$D12WYLNFILE
               1 00005033 00000001     J   23254 23940  25637  25698
 $$$D13WYLNFILE
               1 00005170 00000001     J   26043 26268  26332  26458
1NFILE    (NFIL2025) (12:49) (15MAR04) Ordinary Symbol and Literal Cross Reference                                          Page  109
 $$$D14WYLNFILE
               1 000055A7 00000001     J   26520 26670  26756
 $$$D2WYLNFILE
               1 00001B22 00000001     J   11522 13063  13508  13998
 $$$D4WYLNFILE
               1 00002468 00000001     J   14460 14646  14801  14841  14896  14940  15345  15385  15453  15524  15579
                                                 15641  15681  15796  16286
 $$$D9WYLNFILE
               1 00003225 00000001     J   19077 19411  19680
 $$$RCP        1 00000000 FFFFFFEC     J    2483  4743   6217   6217
 $$$RCV        1 00000000 FFFFFFEE     J    1208  2393   2393
 $$$RDEV       1 00000000 FFFFFFEB     J    4697  4742   4742
 $$$RFFINFO
               1 00000000 FFFFFFE8     J    6581  6790   6790
 $$$RFIBWA
               1 00000000 FFFFFFDE     J   25780 25793  25793
 $$$RFNOWA
               1 00000000 FFFFFFDF     J   21976 21990  21990
 $$$RGETPWWA
               1 00000000 FFFFFFE3     J   10475 10488  10488
 $$$RKWR       1 00000000 FFFFFFE9     J    6350  6554   6554
 $$$RNSCNCB
               1 00000000 FFFFFFED     J    2404  2477   2477
 $$$ROLDFWA
               1 00000000 FFFFFFDD     J   26545 26561  26561
 $$$RPWWA      1 00000000 FFFFFFE2     J   10792 10805  10805
 $$$RRNWA      1 00000000 FFFFFFE0     J   14497 14519  14519
 $$$RSEGCB
               1 00000000 FFFFFFE7     J    6796  6896   6896
 $$$RSFDWA
               1 00000000 FFFFFFDC     J   27629 27642  27642
 $$$RSRWA      1 00000000 FFFFFFE5     J    9742  9757   9757
 $$$RSVRWA
               1 00000000 FFFFFFE4     J    9902  9916   9916
 $$$RSVWA      1 00000000 FFFFFFE6     J    7032  7063   7063
 $$$RTTYPE
               1 00000000 FFFFFFEA     J    6228  6329   6329
 $$$RUSEWA
               1 00000000 FFFFFFE1     J   11535 11564  11564
 $$$SEGCB0
               4 00000050 FFFFFFEC     F    2514  2600   2600
 $$$Z0         4 0000053C 00000001     F    8783  7724   8577   8690
 $$$Z12        4 00004F4C 00000001     F   26009 23448  24090
 $$$Z13        4 00005158 00000001     F   26514 26367
 $$$Z14        4 00005570 00000001     F   27274 26843
 $$$Z16        4 00005B90 00000001     F   29201 29100
 $$$Z17        4 00005D7C 00000001     F   29675 29334
 $$$Z2         4 00001900 00000001     F   14327 11749  11778  12052  13150  13165  13279  13584  14085  14100  14214
 $$$Z9         4 000031EC 00000001     F   19801 19171
 $$$100B       4 0000035C 00000001     I    7988  8051
 $$$101B       4 00000392 00000001     I    8085  8135
 $$$101E       2 00000384 00000001     H    8060  8052   8054
 $$$101F       2 000003AE 00000001     H    8129  8056B  8073B  8085B  8132
 $$$103B       4 0000038A 00000001     I    8073  8133
 $$$104B       4 000003C0 00000001     I    8167  8217
 $$$104E       2 000003B2 00000001     H    8142  8134   8136
 $$$104F       2 000003DC 00000001     H    8211  8138B  8155B  8167B  8214
 $$$106B       4 000003B8 00000001     I    8155  8215
 $$$107E       2 000003E0 00000001     H    8224  8216   8218
1NFILE    (NFIL2025) (12:49) (15MAR04) Ordinary Symbol and Literal Cross Reference                                          Page  110
 $$$107F       2 000003E4 00000001     H    8230  8220B
 $$$108B       4 000003EC 00000001     I    8250  8267
 $$$108F       2 000003F6 00000001     H    8262  8250B  8266
 $$$109E       2 000003FA 00000001     H    8274  8268
 $$$109F       2 0000042A 00000001     H    8340  8270B
 $$$110B       4 000003FE 00000001     I    8286  8305
 $$$110F       2 00000410 00000001     H    8301  8286B  8304
 $$$111E       2 00000414 00000001     H    8312  8306
 $$$111F       2 0000042A 00000001     H    8336  8308B  8321B
 $$$113F       2 0000043C 00000001     H    8371  8356B
 $$$115F       2 00000450 00000001     H    8404  8392B
 $$$117F       2 00000478 00000001     H    8489  8420B
 $$$118F       2 00000478 00000001     H    8485  8435B
 $$$119B       4 00000464 00000001     I    8450  8465
 $$$119F       2 0000046E 00000001     H    8462  8450B  8464
 $$$120E       2 00000472 00000001     H    8472  8466
 $$$120F       2 00000478 00000001     H    8481  8468B
 $$$121F       2 000004D6 00000001     H    8636  8504B
 $$$122F       2 0000049E 00000001     H    8540  8527B
 $$$123F       2 000004D6 00000001     H    8632  8578B
 $$$124F       2 0000052A 00000001     H    8749  8647B
 $$$125F       2 0000052A 00000001     H    8745  8691B
 $$$126        1 00000160 00000001 A   U    8774  8771   8773
 $$$128B       1 00000956 00000001     X    9145  9152U
 $$$129F       2 0000096A 00000001     H    9186  9171B
 $$$130        1 00000050 00000001 A   U    9218  9215   9217
 $$$132B       1 0000099E 00000001     X    9245  9252U
 $$$134        1 00000050 00000001 A   U    9291  9288   9290
 $$$136B       1 000009CE 00000001     X    9318  9325U
 $$$137        1 00000050 00000001 A   U    9357  9354   9356
 $$$139B       1 000009FA 00000001     X    9384  9391U
 $$$140        1 00000050 00000001 A   U    9429  9426   9428
 $$$142B       1 00000A2A 00000001     X    9456  9463U
 $$$143        1 00000050 00000001 A   U    9495  9492   9494
 $$$145B       1 00000A56 00000001     X    9522  9529U
 $$$147        1 00000050 00000001 A   U    9562  9559   9561
 $$$149B       1 00000A82 00000001     X    9589  9596U
 $$$151        1 00000050 00000001 A   U    9630  9627   9629
 $$$153B       1 00000AAE 00000001     X    9681  9688U
 $$$154        1 00000050 00000001 A   U    9723  9720   9722
 $$$156B       1 00000AE0 00000001     X    9787  9794U
 $$$157        1 00000238 00000001 A   U    9878  9875   9877
 $$$159B       1 00000B54 00000001     X    9946  9953U
 $$$160F       2 00000BFA 00000001     H   10133 10027B
 $$$160S       2 00000B88 00000001     H   10024 10132B
 $$$162F       2 00000BE8 00000001     H   10122 10048B
 $$$163F       2 00000BE8 00000001     H   10118 10066B
 $$$165F       2 00000C4C 00000001     H   10204 10152B
 $$$167        1 00000058 00000001 A   U   10228 10225  10227
 $$$169B       1 00000C74 00000001     X   10271 10278U
 $$$170        1 00000050 00000001 A   U   10339 10336  10338
 $$$172B       1 00000CB8 00000001     X   10381 10388U
 $$$173        1 00000050 00000001 A   U   10439 10436  10438
 $$$175B       1 00000CEE 00000001     X   10518 10525U
 $$$176F       2 00000CFE 00000001     H   10575 10566B
 $$$177B       4 00000D3A 00000001     I   10669 10688
 $$$177F       2 00000D4A 00000001     H   10679 10630B 10643B 10656B 10669B 10681
 $$$178B       4 00000D20 00000001     I   10630 10682
 $$$179B       4 00000D2A 00000001     I   10643 10684
1NFILE    (NFIL2025) (12:49) (15MAR04) Ordinary Symbol and Literal Cross Reference                                          Page  111
 $$$180B       4 00000D32 00000001     I   10656 10686
 $$$181E       2 00000D4E 00000001     H   10695 10683  10685  10687  10689
 $$$181F       2 00000D5A 00000001     H   10702 10691B
 $$$182        1 00000248 00000001 A   U   10749 10746  10748
 $$$184B       1 00000D94 00000001     X   10835 10842U
 $$$185F       2 00000DA4 00000001     H   10892 10883B
 $$$186F       2 00000DB0 00000001     H   10913 10904B
 $$$187B       4 00000DEC 00000001     I   11007 11026
 $$$187F       2 00000DFC 00000001     H   11017 10968B 10981B 10994B 11007B 11019
 $$$188B       4 00000DD2 00000001     I   10968 11020
 $$$189B       4 00000DDC 00000001     I   10981 11022
 $$$190B       4 00000DE4 00000001     I   10994 11024
 $$$191E       2 00000E00 00000001     H   11033 11021  11023  11025  11027
 $$$191F       2 00000E0C 00000001     H   11040 11029B
 $$$192        1 00000248 00000001 A   U   11093 11090  11092
 $$$194B       1 00000E4C 00000001     X   11143 11150U
 $$$195F       2 00000EA4 00000001     H   11277 11180B
 $$$196F       2 00000EA4 00000001     H   11273 11246B
 $$$197        1 00000050 00000001 A   U   11310 11307  11309
 $$$199B       1 00000ED6 00000001     X   11354 11361U
 $$$200F       2 00000F0A 00000001     H   11442 11391B
 $$$201F       2 00000F0A 00000001     H   11438 11411B
 $$$202        1 00000050 00000001 A   U   11475 11472  11474
 $$$204B       1 00001050 00000001     X   11595 11602U
 $$$206F       2 00001108 00000001     H   11798 11732B
 $$$207F       2 000010F2 00000001     H   11765 11750B
 $$$208F       2 00001108 00000001     H   11794 11779B
 $$$209F       2 0000111E 00000001     H   11833 11824B
 $$$212B       4 00001148 00000001     I   11892 11952
 $$$212F       2 00001174 00000001     H   11948 11892B 11951
 $$$213B       4 00001150 00000001     I   11907 11925
 $$$213F       2 00001162 00000001     H   11922 11907B 11924
 $$$214E       2 00001166 00000001     H   11932 11926
 $$$214F       2 00001174 00000001     H   11944 11928B
 $$$215E       2 00001178 00000001     H   11959 11953
 $$$215F       2 0000118E 00000001     H   11983 11955B 11968B
 $$$217F       2 000011A4 00000001     H   12012 11995B
 $$$218F       2 000011B4 00000001     H   12037 12028B
 $$$219F       2 000011E6 00000001     H   12113 12053B
 $$$220F       2 000011E6 00000001     H   12109 12071B
 $$$221        1 00000060 00000001 A   U   12139 12136  12138
 $$$223B       1 0000141A 00000001     X   12372 12379U
 $$$224        1 00000050 00000001 A   U   12406 12403  12405
 $$$226B       1 00001446 00000001     X   12433 12440U
 $$$227        1 00000050 00000001 A   U   12467 12464  12466
 $$$229B       1 00001472 00000001     X   12494 12501U
 $$$230        1 00000050 00000001 A   U   12533 12530  12532
 $$$232B       1 0000149E 00000001     X   12560 12567U
 $$$233        1 00000050 00000001 A   U   12599 12596  12598
 $$$235B       1 000014CA 00000001     X   12626 12633U
 $$$237        1 00000050 00000001 A   U   12666 12663  12665
 $$$239B       1 000014F6 00000001     X   12693 12700U
 $$$241        1 00000050 00000001 A   U   12734 12731  12733
 $$$243B       1 00001522 00000001     X   12761 12768U
 $$$244        1 00000050 00000001 A   U   12812 12809  12811
 $$$246B       1 0000155C 00000001     X   12839 12846U
 $$$247        1 00000050 00000001 A   U   12890 12887  12889
 $$$249B       1 00001596 00000001     X   12938 12945U
 $$$250F       2 0000163E 00000001     H   13233 12992B 13005B
1NFILE    (NFIL2025) (12:49) (15MAR04) Ordinary Symbol and Literal Cross Reference                                          Page  112
 $$$252F       2 0000163E 00000001     H   13229 13022B 13034B
 $$$254F       2 0000163E 00000001     H   13225 13052B
 $$$255        6 00001B22 00000001     I   13069 13061X
 $$$256        6 00001B22 00000001     I   13068 13069  13069
 $$$257F       2 0000163E 00000001     H   13221 13082B
 $$$258F       2 0000163E 00000001     H   13217 13166B
 $$$258T       2 00001620 00000001     H   13169 13153B
 $$$260F       2 00001658 00000001     H   13263 13250B
 $$$261F       2 0000166E 00000001     H   13290 13280B
 $$$262F       2 0000168A 00000001     H   13333 13308B 13320B
 $$$264F       2 00001698 00000001     H   13361 13347B
 $$$265        1 00000050 00000001 A   U   13382 13379  13381
 $$$267B       1 000016C0 00000001     X   13428 13435U
 $$$268B       4 000016CE 00000001     I   13466 13550
 $$$268F       2 00001704 00000001     H   13546 13466B 13549
 $$$269F       2 000016EC 00000001     H   13500 13485B
 $$$270        6 00001B28 00000001     I   13514 13506X
 $$$271        6 00001B28 00000001     I   13513 13514  13514
 $$$272F       2 00001704 00000001     H   13542 13527B
 $$$273E       2 00001708 00000001     H   13557 13551
 $$$273F       2 00001772 00000001     H   13686 13553B
 $$$274B       4 0000170E 00000001     I   13567 13610
 $$$274F       2 00001728 00000001     H   13605 13567B 13609
 $$$275F       2 00001728 00000001     H   13601 13585B
 $$$276E       2 0000172C 00000001     H   13617 13611
 $$$276F       2 00001772 00000001     H   13682 13613B
 $$$277F       2 00001752 00000001     H   13664 13631B
 $$$278        1 00000050 00000001 A   U   13705 13702  13704
 $$$280B       1 0000179A 00000001     X   13753 13760U
 $$$281F       2 000017D6 00000001     H   13841 13804B 13823B
 $$$283F       2 00001800 00000001     H   13906 13856B
 $$$285F       2 000017FC 00000001     H   13901 13885B
 $$$286F       2 00001898 00000001     H   14168 13927B 13940B
 $$$288F       2 00001898 00000001     H   14164 13957B 13969B
 $$$290F       2 00001898 00000001     H   14160 13987B
 $$$291        6 00001B2E 00000001     I   14004 13996X
 $$$292        6 00001B2E 00000001     I   14003 14004  14004
 $$$293F       2 00001898 00000001     H   14156 14017B
 $$$294F       2 00001898 00000001     H   14152 14101B
 $$$294T       2 0000187A 00000001     H   14104 14088B
 $$$296F       2 000018B2 00000001     H   14198 14185B
 $$$297F       2 000018C8 00000001     H   14225 14215B
 $$$298F       2 000018E4 00000001     H   14268 14243B 14255B
 $$$300F       2 000018F2 00000001     H   14296 14282B
 $$$301        1 00000050 00000001 A   U   14317 14314  14316
 $$$303B       1 00001B4E 00000001     X   14411 14418U
 $$$304        1 00000050 00000001 A   U   14448 14445  14447
 $$$306B       1 00001B7A 00000001     X   14550 14557U
 $$$307F       2 00001BBA 00000001     H   14662 14638B
 $$$308        6 00002468 00000001     I   14652 14644X
 $$$309        6 00002468 00000001     I   14651 14652  14652
 $$$310F       2 00001C2E 00000001     H   14735 14720B
 $$$311F       2 00001CAC 00000001     H   14960 14769B
 $$$311T       2 00001C44 00000001     H   14772 14759B
 $$$313F       2 00001C5E 00000001     H   14817 14793B
 $$$314        6 0000246E 00000001     I   14807 14799X
 $$$315        6 0000246E 00000001     I   14806 14807  14807
 $$$316F       2 00001C72 00000001     H   14857 14833B
 $$$317        6 00002474 00000001     I   14847 14839X
1NFILE    (NFIL2025) (12:49) (15MAR04) Ordinary Symbol and Literal Cross Reference                                          Page  113
 $$$318        6 00002474 00000001     I   14846 14847  14847
 $$$319F       2 00001C92 00000001     H   14912 14888B
 $$$320        6 0000247A 00000001     I   14902 14894X
 $$$321        6 0000247A 00000001     I   14901 14902  14902
 $$$322F       2 00001CAC 00000001     H   14956 14932B
 $$$323        6 00002480 00000001     I   14946 14938X
 $$$324        6 00002480 00000001     I   14945 14946  14946
 $$$325F       2 00001D16 00000001     H   15090 14974B
 $$$326F       2 00001CDC 00000001     H   15011 14999B
 $$$328F       2 00001DAE 00000001     H   15286 15104B
 $$$329F       2 00001D46 00000001     H   15141 15129B
 $$$331F       2 00001DAA 00000001     H   15281 15227B
 $$$332F       2 00001ED6 00000001     H   15824 15313B
 $$$332T       2 00001DBE 00000001     H   15316 15303B
 $$$334F       2 00001DD8 00000001     H   15361 15337B
 $$$335        6 00002486 00000001     I   15351 15343X
 $$$336        6 00002486 00000001     I   15350 15351  15351
 $$$337F       2 00001DEC 00000001     H   15401 15377B
 $$$338        6 0000248C 00000001     I   15391 15383X
 $$$339        6 0000248C 00000001     I   15390 15391  15391
 $$$340B       4 00001DFE 00000001     I   15421 15547
 $$$340F       2 00001E48 00000001     H   15544 15421B 15546
 $$$341F       2 00001E10 00000001     H   15469 15445B
 $$$342        6 00002492 00000001     I   15459 15451X
 $$$343        6 00002492 00000001     I   15458 15459  15459
 $$$344F       2 00001E2E 00000001     H   15497 15483B
 $$$345F       2 00001E48 00000001     H   15540 15516B
 $$$346        6 00002498 00000001     I   15530 15522X
 $$$347        6 00002498 00000001     I   15529 15530  15530
 $$$348E       2 00001E4C 00000001     H   15554 15548
 $$$348F       2 00001E60 00000001     H   15599 15550B
 $$$349F       2 00001E60 00000001     H   15595 15571B
 $$$350        6 0000249E 00000001     I   15585 15577X
 $$$351        6 0000249E 00000001     I   15584 15585  15585
 $$$352F       2 00001E86 00000001     H   15657 15633B
 $$$353        6 000024A4 00000001     I   15647 15639X
 $$$354        6 000024A4 00000001     I   15646 15647  15647
 $$$355F       2 00001E9A 00000001     H   15697 15673B
 $$$356        6 000024AA 00000001     I   15687 15679X
 $$$357        6 000024AA 00000001     I   15686 15687  15687
 $$$358F       2 00001EB4 00000001     H   15755 15711B
 $$$359F       2 00001ED6 00000001     H   15820 15768B
 $$$361F       2 00001ED0 00000001     H   15812 15788B
 $$$362        6 000024B0 00000001     I   15802 15794X
 $$$363        6 000024B0 00000001     I   15801 15802  15802
 $$$364        1 00000350 00000001 A   U   15850 15847  15849
 $$$366B       1 0000201A 00000001     X   15986 15993U
 $$$368        1 00000050 00000001 A   U   16026 16023  16025
 $$$370B       1 00002046 00000001     X   16053 16060U
 $$$372        1 00000050 00000001 A   U   16094 16091  16093
 $$$374B       1 00002072 00000001     X   16121 16128U
 $$$375        1 00000050 00000001 A   U   16161 16158  16160
 $$$377B       1 000020A6 00000001     X   16188 16195U
 $$$378F       2 00002104 00000001     H   16262 16247B
 $$$379F       2 00002116 00000001     H   16302 16278B
 $$$380        6 000024B6 00000001     I   16292 16284X
 $$$381        6 000024B6 00000001     I   16291 16292  16292
 $$$382        1 00000050 00000001 A   U   16324 16321  16323
 $$$384B       1 00002140 00000001     X   16377 16384U
1NFILE    (NFIL2025) (12:49) (15MAR04) Ordinary Symbol and Literal Cross Reference                                          Page  114
 $$$385F       2 00002150 00000001     H   16437 16428B
 $$$386B       4 00002186 00000001     I   16527 16546
 $$$386F       2 00002196 00000001     H   16537 16488B 16501B 16514B 16527B 16539
 $$$387B       4 0000216C 00000001     I   16488 16540
 $$$388B       4 00002176 00000001     I   16501 16542
 $$$389B       4 0000217E 00000001     I   16514 16544
 $$$390E       2 0000219A 00000001     H   16553 16541  16543  16545  16547
 $$$390F       2 000021A6 00000001     H   16560 16549B
 $$$391        1 00000248 00000001 A   U   16607 16604  16606
 $$$393B       1 000021E0 00000001     X   16661 16668U
 $$$394F       2 000022B0 00000001     H   16859 16756B
 $$$395F       2 000022AC 00000001     H   16854 16799B
 $$$396F       2 0000230C 00000001     H   16976 16873B
 $$$397F       2 00002308 00000001     H   16971 16916B
 $$$398F       2 00002376 00000001     H   17154 16989B
 $$$399F       2 00002376 00000001     H   17150 17004B
 $$$400F       2 0000234C 00000001     H   17069 17021B
 $$$402F       2 00002372 00000001     H   17145 17099B
 $$$403F       2 00002384 00000001     H   17187 17174B
 $$$405        1 00000050 00000001 A   U   17206 17203  17205
 $$$407B       1 000026DE 00000001     X   17489 17496U
 $$$408        1 00000050 00000001 A   U   17545 17542  17544
 $$$410B       1 0000270E 00000001     X   17572 17579U
 $$$411F       2 0000271C 00000001     H   17611 17598B
 $$$412        1 00000050 00000001 A   U   17633 17630  17632
 $$$414B       1 0000274A 00000001     X   17667 17674U
 $$$416F       2 00002782 00000001     H   17753 17706B
 $$$417F       2 0000277C 00000001     H   17747 17734B
 $$$418F       2 0000280E 00000001     H   17854 17839B
 $$$419F       2 0000282E 00000001     H   17900 17871B 17885B
 $$$421F       2 000028D2 00000001     H   18129 17913B
 $$$422F       2 0000285E 00000001     H   17976 17930B
 $$$423F       2 000028CE 00000001     H   18124 17989B
 $$$424F       2 000028C6 00000001     H   18113 18086B
 $$$425F       2 000028E0 00000001     H   18161 18148B
 $$$427        1 00000050 00000001 A   U   18180 18177  18179
 $$$429B       1 00002D6A 00000001     X   18604 18611U
 $$$431F       2 00002D82 00000001     H   18655 18640B
 $$$432F       2 00002D8E 00000001     H   18683 18668B
 $$$433B       4 00002DA2 00000001     I   18717 18760
 $$$433F       2 00002DF8 00000001     H   18757 18717B 18759
 $$$434E       2 00002DFC 00000001     H   18767 18761
 $$$434F       2 00002E4E 00000001     H   18804 18763B
 $$$435F       2 00002E84 00000001     H   18870 18841B 18855B
 $$$437F       2 00002E92 00000001     H   18896 18886B
 $$$438F       2 00002E9C 00000001     H   18917 18907B
 $$$439F       2 00002EAA 00000001     H   18937 18928B
 $$$440        1 00000050 00000001 A   U   18957 18954  18956
 $$$442B       1 00003002 00000001     X   19141 19148U
 $$$443F       2 00003046 00000001     H   19215 19172B
 $$$444        1 00000050 00000001 A   U   19234 19231  19233
 $$$446B       1 0000306E 00000001     X   19272 19279U
 $$$447B       4 000030CC 00000001     I   19358 19438
 $$$447F       2 000030F4 00000001     H   19431 19347B 19358B 19435
 $$$448B       4 000030C6 00000001     I   19347 19436
 $$$449F       2 000030E6 00000001     H   19402 19389B
 $$$449T       2 000030E0 00000001     H   19392 19378B
 $$$451        6 00003226 00000001     I   19417 19409X
 $$$452        6 00003226 00000001     I   19416 19417  19417
1NFILE    (NFIL2025) (12:49) (15MAR04) Ordinary Symbol and Literal Cross Reference                                          Page  115
 $$$453E       2 000030F8 00000001     H   19445 19437  19439
 $$$453F       2 00003110 00000001     H   19481 19441B 19455B 19466B
 $$$456        1 00000050 00000001 A   U   19500 19497  19499
 $$$458B       1 00003138 00000001     X   19551 19558U
 $$$459B       4 0000318A 00000001     I   19626 19639
 $$$459F       2 0000318E 00000001     H   19634 19626B 19638
 $$$460B       4 0000319A 00000001     I   19667 19707
 $$$460E       2 00003192 00000001     H   19646 19640
 $$$460F       2 000031AC 00000001     H   19700 19642B 19656B 19667B 19704
 $$$462B       4 00003194 00000001     I   19656 19705
 $$$463        6 0000322C 00000001     I   19686 19678X
 $$$464        6 0000322C 00000001     I   19685 19686  19686
 $$$465E       2 000031B0 00000001     H   19714 19706  19708
 $$$465F       2 000031DE 00000001     H   19765 19710B 19724B 19735B
 $$$468        1 00000050 00000001 A   U   19784 19781  19783
 $$$470B       1 0000324C 00000001     X   19847 19854U
 $$$471        1 00000050 00000001 A   U   19917 19914  19916
 $$$473B       1 0000331E 00000001     X   19979 19986U
 $$$474        1 00000050 00000001 A   U   20049 20046  20048
 $$$476B       1 00003404 00000001     X   20142 20149U
 $$$477        1 00000050 00000001 A   U   20182 20179  20181
 $$$479B       1 0000343A 00000001     X   20211 20218U
 $$$480        1 00000050 00000001 A   U   20251 20248  20250
 $$$482B       1 00003470 00000001     X   20279 20286U
 $$$483        1 00000050 00000001 A   U   20319 20316  20318
 $$$485B       1 000034A6 00000001     X   20348 20355U
 $$$486        1 00000050 00000001 A   U   20388 20385  20387
 $$$488B       1 000034DC 00000001     X   20417 20424U
 $$$489        1 00000050 00000001 A   U   20457 20454  20456
 $$$491B       1 00003E4A 00000001     X   21392 21399U
 $$$492        1 00000050 00000001 A   U   21441 21438  21440
 $$$494B       1 00003E7A 00000001     X   21476 21483U
 $$$495        1 00000050 00000001 A   U   21516 21513  21515
 $$$497B       1 00003EA8 00000001     X   21548 21555U
 $$$498        1 00000050 00000001 A   U   21597 21594  21596
 $$$500B       1 00003ED8 00000001     X   21632 21639U
 $$$501        1 00000050 00000001 A   U   21681 21678  21680
 $$$503B       1 00003F08 00000001     X   21716 21723U
 $$$504        1 00000050 00000001 A   U   21765 21762  21764
 $$$506B       1 00003F38 00000001     X   21804 21811U
 $$$507F       2 00003F88 00000001     H   21890 21859B
 $$$508F       2 00003F9E 00000001     H   21931 21907B
 $$$509        6 0000444E 00000001     I   21921 21913X
 $$$510        6 0000444E 00000001     I   21920 21921  21921
 $$$511        1 00000050 00000001 A   U   21958 21955  21957
 $$$513B       1 00003FCC 00000001     X   22020 22027U
 $$$514F       2 00004024 00000001     H   22118 22087B
 $$$515F       2 0000403A 00000001     H   22159 22135B
 $$$516        6 00004454 00000001     I   22149 22141X
 $$$517        6 00004454 00000001     I   22148 22149  22149
 $$$518B       4 000040AC 00000001     I   22229 22336
 $$$518F       2 00004100 00000001     H   22329 22218B 22229B 22333
 $$$519B       4 000040A6 00000001     I   22218 22334
 $$$520F       2 000040E4 00000001     H   22279 22248B
 $$$521F       2 000040FA 00000001     H   22320 22296B
 $$$522        6 0000445A 00000001     I   22310 22302X
 $$$523        6 0000445A 00000001     I   22309 22310  22310
 $$$524B       4 0000410C 00000001     I   22364 22422
 $$$524E       2 00004104 00000001     H   22343 22335  22337
1NFILE    (NFIL2025) (12:49) (15MAR04) Ordinary Symbol and Literal Cross Reference                                          Page  116
 $$$524F       2 00004148 00000001     H   22415 22339B 22353B 22364B 22419
 $$$526B       4 00004106 00000001     I   22353 22420
 $$$527E       2 0000414C 00000001     H   22429 22421  22423
 $$$527F       2 00004152 00000001     H   22445 22425B 22437B
 $$$529        1 00000058 00000001 A   U   22477 22474  22476
 $$$531B       1 0000417C 00000001     X   22516 22523U
 $$$532B       4 000041C8 00000001     I   22587 22767
 $$$532F       2 0000424A 00000001     H   22762 22587B 22766
 $$$533B       4 000041D6 00000001     I   22618 22658
 $$$533F       2 000041E8 00000001     H   22651 22604B 22618B 22655
 $$$534B       4 000041CE 00000001     I   22604 22656
 $$$535        6 00004460 00000001     I   22637 22629X
 $$$536        6 00004460 00000001     I   22636 22637  22637
 $$$537B       4 000041F0 00000001     I   22676 22712
 $$$537E       2 000041EC 00000001     H   22665 22657  22659
 $$$537F       2 0000421A 00000001     H   22707 22661B 22676B 22711
 $$$539E       2 0000421E 00000001     H   22719 22713
 $$$539F       2 0000424A 00000001     H   22758 22715B 22727B
 $$$541E       2 0000424E 00000001     H   22774 22768
 $$$541F       2 0000424E 00000001     H   22779 22770B
 $$$542        1 00000050 00000001 A   U   22800 22797  22799
 $$$544B       1 00004276 00000001     X   22839 22846U
 $$$545B       4 000042C2 00000001     I   22910 23178
 $$$545F       2 00004378 00000001     H   23173 22910B 23177
 $$$546B       4 000042DC 00000001     I   22946 23066
 $$$546F       2 00004314 00000001     H   23061 22946B 23065
 $$$546T       2 000042E0 00000001     H   22949 22935B
 $$$548        6 00004466 00000001     I   22965 22957X
 $$$549        6 00004466 00000001     I   22964 22965  22965
 $$$550F       2 00004312 00000001     H   23053 22987B
 $$$551F       2 00004306 00000001     H   23022 23008B
 $$$552F       2 00004312 00000001     H   23049 23035B
 $$$553B       4 0000431A 00000001     I   23081 23116
 $$$553E       2 00004318 00000001     H   23073 23067
 $$$553F       2 00004344 00000001     H   23112 23069B 23081B 23115
 $$$555E       2 00004348 00000001     H   23123 23117
 $$$555F       2 00004378 00000001     H   23169 23119B
 $$$556E       2 0000437C 00000001     H   23185 23179
 $$$556F       2 0000437C 00000001     H   23190 23181B
 $$$557        1 00000050 00000001 A   U   23211 23208  23210
 $$$559B       1 00004486 00000001     X   23312 23319U
 $$$561F       2 000044AE 00000001     H   23389 23380B
 $$$562F       2 000044BC 00000001     H   23411 23402B
 $$$563F       2 000044CA 00000001     H   23433 23424B
 $$$564F       2 000044DC 00000001     H   23464 23449B
 $$$565F       2 00004500 00000001     H   23527 23482B 23496B
 $$$569F       2 00004524 00000001     H   23588 23574B
 $$$570F       2 00004530 00000001     H   23615 23601B
 $$$571F       2 0000453A 00000001     H   23641 23630B
 $$$572F       2 00004548 00000001     H   23673 23661B
 $$$573F       2 0000458E 00000001     H   23752 23688B 23700B
 $$$575        1 00000050 00000001 A   U   23777 23774  23776
 $$$577B       1 000045C4 00000001     X   23833 23840U
 $$$578B       4 000045D8 00000001     I   23904 23971
 $$$578F       2 000045F6 00000001     H   23964 23891B 23904B 23968
 $$$579B       4 000045D0 00000001     I   23891 23969
 $$$580F       2 000045F4 00000001     H   23956 23932B
 $$$581        6 00005034 00000001     I   23946 23938X
 $$$582        6 00005034 00000001     I   23945 23946  23946
1NFILE    (NFIL2025) (12:49) (15MAR04) Ordinary Symbol and Literal Cross Reference                                          Page  117
 $$$583E       2 000045FA 00000001     H   23978 23970  23972
 $$$583F       2 000045FE 00000001     H   23984 23974B
 $$$584        1 00000050 00000001 A   U   24003 24000  24002
 $$$586B       1 00004626 00000001     X   24051 24058U
 $$$587F       2 00004638 00000001     H   24101 24091B
 $$$588B       4 000046C4 00000001     I   24196 24212
 $$$588F       2 000046CA 00000001     H   24208 24196B 24211
 $$$589B       4 000046D2 00000001     I   24230 24242
 $$$589E       2 000046CE 00000001     H   24219 24213
 $$$589F       2 000046DA 00000001     H   24239 24215B 24230B 24241
 $$$591E       2 000046DE 00000001     H   24249 24243
 $$$591F       2 000046E0 00000001     H   24256 24245B
 $$$592        1 00000050 00000001 A   U   24283 24280  24282
 $$$594B       1 00004C3E 00000001     X   24815 24822U
 $$$595F       2 00004C50 00000001     H   24866 24852B
 $$$596F       2 00004C5C 00000001     H   24893 24879B
 $$$597        1 00000050 00000001 A   U   24913 24910  24912
 $$$599B       1 00004C88 00000001     X   24941 24948U
 $$$600B       4 00004C92 00000001     I   24978 24995
 $$$600F       2 00004C9A 00000001     H   24992 24978B 24994
 $$$601E       2 00004C9E 00000001     H   25002 24996
 $$$601F       2 00004CA6 00000001     H   25014 24998B
 $$$602        1 00000050 00000001 A   U   25032 25029  25031
 $$$604B       1 00004CCE 00000001     X   25059 25066U
 $$$605        1 00000050 00000001 A   U   25099 25096  25098
 $$$607B       1 00004CFE 00000001     X   25126 25133U
 $$$608        1 00000050 00000001 A   U   25160 25157  25159
 $$$610B       1 00004D2A 00000001     X   25192 25199U
 $$$611B       4 00004D44 00000001     I   25235 25270
 $$$611F       2 00004D58 00000001     H   25267 25235B 25269
 $$$612F       2 00004D58 00000001     H   25263 25253B
 $$$613E       2 00004D5C 00000001     H   25277 25271
 $$$613F       2 00004D60 00000001     H   25283 25273B
 $$$614        1 00000050 00000001 A   U   25302 25299  25301
 $$$616B       1 00004D88 00000001     X   25349 25356U
 $$$617F       2 00004E34 00000001     H   25523 25468B 25481B
 $$$619F       2 00004E34 00000001     H   25517 25499B
 $$$621F       2 00004E46 00000001     H   25556 25538B
 $$$623F       2 00004E58 00000001     H   25591 25573B
 $$$625F       2 00004E82 00000001     H   25654 25608B 25621B
 $$$627        6 0000503A 00000001     I   25643 25635X
 $$$628        6 0000503A 00000001     I   25642 25643  25643
 $$$629F       2 00004EAC 00000001     H   25715 25669B 25682B
 $$$631        6 00005040 00000001     I   25704 25696X
 $$$632        6 00005040 00000001     I   25703 25704  25704
 $$$633        1 00000050 00000001 A   U   25762 25759  25761
 $$$635B       1 00004EE2 00000001     X   25823 25830U
 $$$640        1 000003F0 00000001 A   U   25992 25989  25991
 $$$642B       1 00005060 00000001     X   26079 26086U
 $$$643F       2 000050CC 00000001     H   26224 26128B
 $$$644F       2 00005092 00000001     H   26161 26149B
 $$$644S       2 00005082 00000001     H   26141 26160B
 $$$646F       2 000050C2 00000001     H   26217 26174B
 $$$647F       2 000050BA 00000001     H   26209 26197B
 $$$647S       2 000050AA 00000001     H   26189 26208B
 $$$649F       2 000050E8 00000001     H   26288 26240B
 $$$65B        1 00000040 00000001     X    6935  6942U
 $$$650F       2 000050E8 00000001     H   26284 26260B
 $$$651        6 00005170 00000001     I   26274 26266X
1NFILE    (NFIL2025) (12:49) (15MAR04) Ordinary Symbol and Literal Cross Reference                                          Page  118
 $$$652        6 00005170 00000001     I   26273 26274  26274
 $$$653F       2 00005104 00000001     H   26352 26304B
 $$$654F       2 00005104 00000001     H   26348 26324B
 $$$655        6 00005176 00000001     I   26338 26330X
 $$$656        6 00005176 00000001     I   26337 26338  26338
 $$$657F       2 0000514A 00000001     H   26478 26368B
 $$$658F       2 00005134 00000001     H   26431 26391B 26420B
 $$$658S       2 00005118 00000001     H   26382 26430B
 $$$658T       2 0000512E 00000001     H   26423 26408B
 $$$662F       2 0000514A 00000001     H   26474 26450B
 $$$663        6 0000517C 00000001     I   26464 26456X
 $$$664        6 0000517C 00000001     I   26463 26464  26464
 $$$665        1 00000050 00000001 A   U   26497 26494  26496
 $$$667B       1 0000519C 00000001     X   26591 26598U
 $$$668F       2 000051C4 00000001     H   26686 26662B
 $$$669        6 000055A8 00000001     I   26676 26668X
 $$$67         1 00000050 00000001 A   U    7007  7004   7006
 $$$670        6 000055A8 00000001     I   26675 26676  26676
 $$$671F       2 000051FC 00000001     H   26782 26698B
 $$$672F       2 000051FC 00000001     H   26778 26729B
 $$$673F       2 000051F4 00000001     H   26772 26748B
 $$$674        6 000055AE 00000001     I   26762 26754X
 $$$675        6 000055AE 00000001     I   26761 26762  26762
 $$$676F       2 00005272 00000001     H   26868 26844B
 $$$677        1 00000258 00000001 A   U   26979 26976  26978
 $$$679B       1 0000555E 00000001     X   27225 27232U
 $$$680        1 00000050 00000001 A   U   27264 27261  27263
 $$$682B       1 000055CE 00000001     X   27324 27331U
 $$$683        1 00000050 00000001 A   U   27362 27359  27361
 $$$685B       1 00005600 00000001     X   27402 27409U
 $$$686        1 00000050 00000001 A   U   27442 27439  27441
 $$$688B       1 00005636 00000001     X   27480 27487U
 $$$689        1 00000050 00000001 A   U   27519 27516  27518
 $$$69B        1 00000084 00000001     X    7094  7101U
 $$$691B       1 0000566C 00000001     X   27559 27566U
 $$$692        1 00000050 00000001 A   U   27598 27595  27597
 $$$694B       1 000056CA 00000001     X   27673 27680U
 $$$698F       2 000056FA 00000001     H   27782 27773B
 $$$699        1 000003F0 00000001 A   U   27873 27870  27872
 $$$70F        2 00000090 00000001     H    7144  7131B
 $$$701B       1 00005842 00000001     X   27965 27972U
 $$$702        1 00000050 00000001 A   U   28005 28002  28004
 $$$704B       1 00005876 00000001     X   28033 28040U
 $$$705        1 00000050 00000001 A   U   28072 28069  28071
 $$$707B       1 000058A2 00000001     X   28100 28107U
 $$$708        1 00000050 00000001 A   U   28139 28136  28138
 $$$71F        2 000000EC 00000001     H    7231  7215B
 $$$710B       1 000058CE 00000001     X   28167 28174U
 $$$711        1 00000050 00000001 A   U   28206 28203  28205
 $$$713B       1 000058FA 00000001     X   28234 28241U
 $$$714        1 00000050 00000001 A   U   28273 28270  28272
 $$$716B       1 00005926 00000001     X   28301 28308U
 $$$717        1 00000050 00000001 A   U   28340 28337  28339
 $$$719B       1 00005952 00000001     X   28383 28390U
 $$$72F        2 000000F8 00000001     H    7269  7245B
 $$$720B       4 0000597C 00000001     I   28448 28738
 $$$720F       2 00005A3A 00000001     H   28734 28448B 28737
 $$$721B       4 00005996 00000001     I   28482 28513
 $$$721F       2 000059AC 00000001     H   28509 28482B 28512
1NFILE    (NFIL2025) (12:49) (15MAR04) Ordinary Symbol and Literal Cross Reference                                          Page  119
 $$$722B       4 000059B4 00000001     I   28529 28560
 $$$722E       2 000059B0 00000001     H   28520 28514
 $$$722F       2 000059CA 00000001     H   28556 28516B 28529B 28559
 $$$724B       4 000059D2 00000001     I   28576 28607
 $$$724E       2 000059CE 00000001     H   28567 28561
 $$$724F       2 000059E8 00000001     H   28603 28563B 28576B 28606
 $$$726B       4 000059F0 00000001     I   28623 28654
 $$$726E       2 000059EC 00000001     H   28614 28608
 $$$726F       2 00005A06 00000001     H   28650 28610B 28623B 28653
 $$$728B       4 00005A0E 00000001     I   28670 28700
 $$$728E       2 00005A0A 00000001     H   28661 28655
 $$$728F       2 00005A24 00000001     H   28697 28657B 28670B 28699
 $$$73         6 00000660 00000001     I    7259  7251X
 $$$730E       2 00005A28 00000001     H   28707 28701
 $$$730F       2 00005A3A 00000001     H   28730 28703B
 $$$731E       2 00005A3E 00000001     H   28745 28739
 $$$731F       2 00005A6E 00000001     H   28820 28741B
 $$$732B       4 00005A42 00000001     I   28757 28786
 $$$732F       2 00005A58 00000001     H   28783 28757B 28785
 $$$733E       2 00005A5C 00000001     H   28793 28787
 $$$733F       2 00005A6E 00000001     H   28816 28789B
 $$$734        1 000003F0 00000001 A   U   28845 28842  28844
 $$$736B       1 00005A9A 00000001     X   28885 28892U
 $$$737F       2 00005B18 00000001     H   29018 28946B
 $$$738F       2 00005B00 00000001     H   28975 28960B
 $$$739F       2 00005B18 00000001     H   29014 28985B
 $$$74         6 00000660 00000001     I    7258  7259   7259
 $$$740        1 00000050 00000001 A   U   29037 29034  29036
 $$$742B       1 00005B44 00000001     X   29068 29075U
 $$$743B       4 00005B50 00000001     I   29101 29130
 $$$743F       2 00005B66 00000001     H   29127 29101B 29129
 $$$744E       2 00005B6A 00000001     H   29137 29131
 $$$744F       2 00005B7C 00000001     H   29172 29133B
 $$$745        1 00000050 00000001 A   U   29191 29188  29190
 $$$747B       1 00005CB0 00000001     X   29272 29279U
 $$$748F       2 00005CBC 00000001     H   29310 29299B
 $$$749F       2 00005CC8 00000001     H   29346 29335B
 $$$75F        2 0000010E 00000001     H    7291  7282B
 $$$750F       2 00005CD2 00000001     H   29371 29360B
 $$$751B       4 00005CDA 00000001     I   29385 29436
 $$$751F       2 00005CF4 00000001     H   29432 29385B 29435
 $$$752F       2 00005CF4 00000001     H   29428 29400B
 $$$753F       2 00005CF4 00000001     H   29424 29415B
 $$$754B       4 00005CFC 00000001     I   29452 29469
 $$$754E       2 00005CF8 00000001     H   29443 29437
 $$$754F       2 00005D06 00000001     H   29465 29439B 29452B 29468
 $$$756B       4 00005D0E 00000001     I   29485 29502
 $$$756E       2 00005D0A 00000001     H   29476 29470
 $$$756F       2 00005D18 00000001     H   29498 29472B 29485B 29501
 $$$758B       4 00005D20 00000001     I   29518 29535
 $$$758E       2 00005D1C 00000001     H   29509 29503
 $$$758F       2 00005D2A 00000001     H   29531 29505B 29518B 29534
 $$$76F        2 0000011C 00000001     H    7311  7302B
 $$$760E       2 00005D2E 00000001     H   29542 29536
 $$$760F       2 00005D3C 00000001     H   29564 29538B 29551B
 $$$762        1 00000050 00000001 A   U   29583 29580  29582
 $$$764B       1 00005D64 00000001     X   29619 29626U
 $$$765        1 00000050 00000001 A   U   29660 29657  29659
 $$$77F        2 0000014E 00000001     H    7373  7322B
1NFILE    (NFIL2025) (12:49) (15MAR04) Ordinary Symbol and Literal Cross Reference                                          Page  120
 $$$78B        4 00000132 00000001     I    7342  7354
 $$$78F        2 0000013C 00000001     H    7351  7342B  7353
 $$$79E        2 00000140 00000001     H    7361  7355
 $$$79F        2 00000146 00000001     H    7367  7357B
 $$$80F        2 00000162 00000001     H    7406  7392B
 $$$82F        2 000001F0 00000001     H    7507  7474B  7485B
 $$$84F        2 00000208 00000001     H    7545  7530B
 $$$86F        2 00000290 00000001     H    7671  7603B
 $$$87F        2 00000282 00000001     H    7650  7626B
 $$$88         6 00000666 00000001     I    7640  7632X
 $$$89         6 00000666 00000001     I    7639  7640   7640
 $$$90F        2 000002E6 00000001     H    7791  7685B
 $$$91F        2 000002DE 00000001     H    7779  7725B
 $$$92F        2 00000308 00000001     H    7839  7806B  7818B
 $$$94F        2 000003E8 00000001     H    8235  7871B
 $$$94S        2 00000312 00000001     H    7865  8234B
 $$$96F        2 00000330 00000001     H    7903  7894B
 $$$97B        4 00000336 00000001     I    7918  7968
 $$$97F        2 00000352 00000001     H    7962  7918B  7967
 $$$98B        4 00000364 00000001     I    8000  8053
 $$$98E        2 00000356 00000001     H    7975  7969
 $$$98F        2 00000380 00000001     H    8045  7971B  7988B  8000B  8050
 @RAR          0 00000000 FFFFFFF0     @    1162  2191   2199B
 @R0           0 00000000 FFFFFFFE     @     706   982U
 @R1           0 00000000 FFFFFFFD     @     719   978U  2197   2198   7258  10642  10655  10668  10674  10675  10980
                                                 10993  11006  11012  11013  13004  13068  13513  13884  13939  14003
                                                 14651  15458  15482  15529  16291  16500  16513  16526  16532  16533
                                                 19375  19388  19416  19685  21920  22148  22309  22636  22964  23903
                                                 25480  25498  25511  25550  25585  25620  25681  26675  26728  26761
 @R10          0 00000000 FFFFFFF4     @     836   942U
 @R11          0 00000000 FFFFFFF3     @     849   938U
 @R12          0 00000000 FFFFFFF2     @     862   934U
 @R13          0 00000000 FFFFFFF1     @     875   930U  7462  23759  24265  26956
 @R14          0 00000000 FFFFFFF0     @     888   926U  7827M  7827  10091M 10091  10177M 10177  11854M 11854  24114M
                                                 24114  25384M 25384  26789M 26789  26873M 26873
 @R15          0 00000000 FFFFFFEF     @     901   922U 17733
 @R2           0 00000000 FFFFFFFC     @     732   974U 13068  13513  13560  13790U 14003  22945  26148  26179M 26183M
                                                 26196  26210M 26405  26419
 @R3           0 00000000 FFFFFFFB     @     745   970U  7347M  7363M 15529M
 @R4           0 00000000 FFFFFFFA     @     758   966U 10764U 11108U 16622U 21836M 21920M 22064M 22148M 22165M 22309M
 @R5           0 00000000 FFFFFFF9     @     771   962U  7015U  9646U 12147U
 @R6           0 00000000 FFFFFFF8     @     784   958U  9639U  9886U 10236U 10347U 10447U 10757U 11101U 11318U 11483U
                                                 12898U 14583U 16410U 16615U 17264U 17526U 18228U 18990U 19508U 19792U
                                                 21449U 21605U 21689U 21773U 21966U 22485U 22808U 23219U 23785U 24011U
                                                 25310U 25743U 26000U 26505U 26987U 28348U 28853U 29591U
 @R7           0 00000000 FFFFFFF7     @     797   954U  6996U  8763U  9207U  9280U  9346U  9418U  9484U  9551U  9619U
                                                  9712U  9867U 10217U 10328U 10428U 10738U 11082U 11299U 11464U 12128U
                                                 12395U 12456U 12522U 12588U 12655U 12723U 12801U 12879U 13371U 13694U
                                                 14306U 14437U 15839U 16015U 16083U 16150U 16313U 16596U 17195U 17534U
                                                 17622U 18169U 18946U 19223U 19489U 19773U 19906U 20038U 20171U 20240U
                                                 20308U 20377U 20446U 21430U 21505U 21586U 21670U 21754U 21947U 22466U
                                                 22789U 23200U 23766U 23992U 24272U 24902U 25021U 25088U 25149U 25291U
                                                 25751U 25981U 26486U 26968U 27253U 27351U 27431U 27508U 27587U 27862U
                                                 27994U 28061U 28128U 28195U 28262U 28329U 28834U 29026U 29180U 29572U
                                                 29649U
 @R8           0 00000000 FFFFFFF6     @     810   950U  8758U  9862U 10212U 10733U 11077U 12123U 15834U 16591U 22461U
                                                 25976U 26963U 27857U 28829U
 @R9           0 00000000 FFFFFFF5     @     823   946U
 ABSCENT       1 00000000 00000000 A   T    2207  2207
1NFILE    (NFIL2025) (12:49) (15MAR04) Ordinary Symbol and Literal Cross Reference                                          Page  121
 ACTNEXT       1 00000000 00000022     T   11499 11499
 ACTOPEN       1 00000000 0000002E     T   14355 14355
 ACTPICK       1 00000000 00000023     T   11500 11500
 ACTRESET      1 00000000 00000014     T    8831  8831
 ACTVREST      1 00000000 0000002F     T   14356 14356
 ALLOCATE      2 00002730 00000001     H   17648 17644
 ALLOPRT       4 000029DC 00000001     F   18233 18199
 ASCTBL        1 00000000 00000000 A   T    2215  2215
 BLTBL         1 00000000 00000000 A   T    2217  2217
 BR            7 00000007 00000001 A   #    1052  6930M  7089M  9140M  9240M  9313M  9379M  9451M  9517M  9584M  9676M
                                                  9782M  9941M 10266M 10376M 10513M 10830M 11138M 11349M 11590M 12367M
                                                 12428M 12489M 12555M 12621M 12688M 12756M 12834M 12933M 13423M 13748M
                                                 14406M 14545M 15981M 16048M 16116M 16183M 16372M 16656M 17484M 17567M
                                                 17662M 18599M 19136M 19267M 19546M 19842M 19974M 20137M 20206M 20274M
                                                 20343M 20412M 21387M 21471M 21543M 21627M 21711M 21799M 22015M 22511M
                                                 22834M 23307M 23828M 24046M 24810M 24936M 25054M 25121M 25187M 25344M
                                                 25818M 26074M 26586M 27220M 27319M 27397M 27475M 27554M 27668M 27960M
                                                 28028M 28095M 28162M 28229M 28296M 28378M 28880M 29063M 29267M 29614M
 BTDZEROS      1 00000000 00000021     T   11497 11497
 CATALOG       2 00002D50 00000001     H   18585 18581
 CATLGPRT      4 00002F20 00000001     F   18995 18971
 CFMTOPEN      2 00000EBC 00000001     H   11335  8823
 CHECKIOB      1 00000000 00000000 A   T    2263  2263
 CHECKVOL      1 00000000 00000048     T   26030 26030
 CHKPASSW      2 00001B34 00000001     H   14392 14388
 CHKSDONE      2 00004EBA 00000001     H   25737 25721B
 CKGOTSAM      2 00004EB4 00000001     H   25724 25514B 25553B 25588B 25650B 25711B
 CLRPSH        1 00000000 00000028     T   12302 12302
 CLRTEXT       1 00000000 00000015     T    8832  8832  14338
 CLSCRPSH      1 00000000 00000019     T    9029  9029
 COLLPSH       1 00000000 0000001B     T    9074  9074
 COMMAND       1 00000000 00000000 A   T    2203  2203
 COMMSEG       1 00000000 00000000 A   T    2204  2204
 CP         4096 00000000 FFFFFFEC     J    6217  1192U
 CP#XSTK       1 00000010 FFFFFFEC A   U    3949  3950
 CPACFLG       1 000005D5 FFFFFFEC     R    4052  4056   4061   4066   4071   4076
 CPACFLN       4 000005C4 FFFFFFEC     F    4044  4079   4079
 CPACHCT       4 000005B4 FFFFFFEC     F    4009  8378M  8378
 CPACTNO       4 0000057C FFFFFFEC     F    3988  9990
 CPAFLAG       1 000005C3 FFFFFFEC     R    4016  4020   4025   4030   4035
 CPAFNAME    128 0000062C FFFFFFEC     C    4090 19208
 CPAFNAMEL
               4 00000628 FFFFFFEC     F    4089 19207
 CPAFTYPE      1 00000626 FFFFFFEC     R    4087 19206
 CPAHOST     128 000006B0 FFFFFFEC     C    4092 19210
 CPAHOSTL      4 000006AC FFFFFFEC     F    4091 19209
 CPALNCT       4 000005AC FFFFFFEC     F    4007 10047M 10047  10151M 10151  13584  13820M 13820
 CPANAME       8 00000588 FFFFFFEC     C    3998  4094   4094
 CPAUTFLG      1 000008A9 FFFFFFEC     R    4362  4366   4371   4376   4381
 CPCHFLAG      1 00000B68 FFFFFFEC     R    4989  4993
 CPCMD       235 00000242 FFFFFFEC     C    2842  7639M  7659
 CPCMDLEN      2 00000240 FFFFFFEC     H    2841  7612M  7663
 CPCMNM        3 00000D24 FFFFFFEC     C    5315  7181M 18639  18667
 CPCWA         4 00000CA4 FFFFFFEC     F    5241  7156M  9815  11631M 12954  13444  13769
 CPDFLG        1 0000084C FFFFFFEC     R    4249  4253   4258   4263   4268   4273
 CPDFLG2       1 0000084D FFFFFFEC     R    4278  4282   4287   4292   4297   4302   4307
 CPERRID       8 00000886 FFFFFFEC     C    4348  7917   7954M  7954   7987   8037M  8037   8072   8121M  8121   8154
                                                  8203M  8203  17020  17064M 17064  17098  17136M 17136  17929  17967M
                                                 17967  17988  18025M 18025  23743M
1NFILE    (NFIL2025) (12:49) (15MAR04) Ordinary Symbol and Literal Cross Reference                                          Page  122
 CPEXFLG       1 00000758 FFFFFFEC     R    4118  4122
 CPEXFLG2      1 00000759 FFFFFFEC     R    4128  4137   4147
 CPEXFLG3      1 0000075A FFFFFFEC     R    4154  4158   4163
 CPEXTFLG      1 00000E28 FFFFFFEC     R    5800  5804   5809   5814   5819   5824   5829
 CPFABORT    128 00000D5A FFFFFFEC         5566  2167M  2167   2172M  2172
 CPFACTSV      1 00000001 FFFFFFEC A   U    3592  8365
 CPFALL        1 00000010 FFFFFFEC A   U    5332  7412  10100  10186  11841
 CPFAUSE     128 000008A9 FFFFFFEC         4366 11906
 CPFCLEAR     16 00000D55 FFFFFFEC         5446  8418   8418   8419
 CPFDSNNE     16 00000D5C FFFFFFEC         5616 29414
 CPFDUMP     128 00000D55 FFFFFFEC         5431 17035
 CPFERROR     64 00000D5A FFFFFFEC         5571  2166M  2166   2171M  2171
 CPFINFOP      4 00000E54 FFFFFFEC     A    5848  6956   7170  10287  10397  10543  10860  11159  11370  11644  14602
                                                 16402  16682  17505  17760  18690  19171  19184M 19294  19573  21408
                                                 21564  21648  21732  21822  22050  22534  22857  23335  26101  26622
                                                 29289
 CPFKEEP       8 00000D55 FFFFFFEC         5451  8418   8418
 CPFNCOND      4 00000E28 FFFFFFEC         5829  9477M
 CPFNCUR      64 00000D57 FFFFFFEC         5501  7847M 11875M
 CPFNLST       1 00000020 FFFFFFEC A   U    5420 11867
 CPFNTEX       1 00000040 FFFFFFEC A   U    5418  5419
 CPFQUIET     64 00000D55 FFFFFFEC         5436  7301
 CPFRCVY      64 00000474 FFFFFFEC         3568  8355  10903  11179  11390
 CPFRDACT      1 00000D89 FFFFFFEC         5734  7529   8285   8434
 CPFRDEXE      2 00000D89 FFFFFFEC         5744  8320
 CPFRDEXT      3 00000D89 FFFFFFEC         5754 11849M
 CPFRDRNG      1 00000D88 FFFFFFEC     R    5686  5690   5695   5700   5705   5710   5715   5720
 CPFRDSRC      1 00000D89 FFFFFFEC     R    5725  5734   5744   5754
 CPFRECAT      8 00000D56 FFFFFFEC         5486 18679M 18906
 CPFRQUIT     16 00000D5A FFFFFFEC         5581 13357M 14292M
 CPFSCRTC      1 00000040 FFFFFFEC A   U    5341  6978   9271
 CPFSET        1 00000080 FFFFFFEC A   U    5372  7539   8389   9542   9610  11666  12646  12714  14996  15126  15765
                                                 16006  16074  17171  18145
 CPFTRY      128 0000047B FFFFFFEC         3759  7281
 CPFUNCAT     16 00000D56 FFFFFFEC         5481 18651M 18716  18885
 CPFUNUM       1 00000080 FFFFFFEC A   U    5417  5419
 CPFVER       32 00000D58 FFFFFFEC         5531  7684  17782M
 CPFXALL       8 00000E28 FFFFFFEC         5824 11881M
 CPFXDFLG      1 000007E4 FFFFFFEC     R    4196  4200   4205
 CPFXMULT     16 00000E28 FFFFFFEC         5819  7805   9405M
 CPGFLG1       1 00000474 FFFFFFEC     R    3559  3563   3568   3573   3578   3583   3913   3913
 CPGFLG10      1 0000047D FFFFFFEC     R    3796  3800   3805   3810   3815   3820   3825
 CPGFLG11      1 0000047E FFFFFFEC     R    3831  3835   3840
 CPGFLG12      1 0000047F FFFFFFEC     R    3846  3850   3855   3860
 CPGFLG13      1 00000480 FFFFFFEC     R    3866  3870
 CPGFLG14      1 00000481 FFFFFFEC     R    3876  3880   3885   3890   3895   3900
 CPGFLG2       1 00000475 FFFFFFEC     R    3589  8367M
 CPGFLG4       1 00000477 FFFFFFEC     R    3612  3623   3632   3641   3650   3659
 CPGFLG5       1 00000478 FFFFFFEC     R    3665  3669   3674   3679   3684   3689   3694   3699   3704
 CPGFLG6       1 00000479 FFFFFFEC     R    3710  3714   3719   3724
 CPGFLG7       1 0000047A FFFFFFEC     R    3730  3734   3739   3744   3749
 CPGFLG8       1 0000047B FFFFFFEC     R    3755  3759   3764   3769   3774
 CPGFLG9       1 0000047C FFFFFFEC     R    3780  3784   3790
 CPINIT        1 00000174 FFFFFFEC     U    2729  6186
 CPJESFLG      1 000009E1 FFFFFFEC     R    4461  4465   4470   4475   4480   4485   4490   4495   4500
 CPJESFLY      1 000009FD FFFFFFEC     R    4511  4515   4520   4525
 CPJESHFL      1 000009E0 FFFFFFEC     R    4446  4450   4455   4534   4534
 CPLCNO        4 0000073C FFFFFFEC     F    4103  9700   9827  13325  14260
 CPLFLG1       1 00000D50 FFFFFFEC     R    5329  7414M 10102M 10188M 11843M
1NFILE    (NFIL2025) (12:49) (15MAR04) Ordinary Symbol and Literal Cross Reference                                          Page  123
 CPLFLG10      1 00000D59 FFFFFFEC     R    5552  5556
 CPLFLG11      1 00000D5A FFFFFFEC     R    5562  5566   5571   5576   5581
 CPLFLG12      1 00000D5B FFFFFFEC     R    5587  5591
 CPLFLG14      1 00000D5C FFFFFFEC     R    5597  5601   5606   5611   5616   5621
 CPLFLG2       1 00000D51 FFFFFFEC     R    5339  6980M  9273M
 CPLFLG3       1 00000D52 FFFFFFEC     R    5370  7541M  8391   9544M  9612M 11668M 12648M 12716M 14998  15128  15767
                                                 16008M 16076M 17173  18147
 CPLFLG5       1 00000D54 FFFFFFEC     R    5414 11869M
 CPLFLG6       1 00000D55 FFFFFFEC     R    5427  5431   5436   5441   5446   5451   5456
 CPLFLG7       1 00000D56 FFFFFFEC     R    5462  5466   5471   5476   5481   5486
 CPLFLG8       1 00000D57 FFFFFFEC     R    5492  5496   5501   5506   5511
 CPLFLG9       1 00000D58 FFFFFFEC     R    5517  5521   5526   5531   5536   5541   5546
 CPLOCALZ      1 00000C48 FFFFFFEC     U    5019  6180   6180
 CPMFLG        1 0000084F FFFFFFEC     R    4316  4320
 CPMODFLG      1 00000C78 FFFFFFEC     R    5047  5051   5056   5061   5066   5071
 CPNAMELN      1 00000010 FFFFFFEC A   U    3942  4189
 CPNEDPFX     10 00000E29 FFFFFFEC     X    5833  5834   5835
 CPNEDSET      2 00000E31 FFFFFFEC     X    5835 13789  13855
 CPNSCANP      4 0000008C FFFFFFEC     A    2602  7191   7419   7425   7432   7445   7459   7497   7550   7557   7573
                                                  7826  10090  10176  11679  11686  11702  11853  14616  14673  14680
                                                 14696  16206  16213  16226  16700  16707  16723  17785  17792  17808
                                                 18724  18731  18747  18771  18778  18794  19302  19309  19322  19588
                                                 19595  19608  19743  19756  19865  19872  19888  19997  20004  20020
                                                 21867  21880  22095  22108  22176  22183  22198  22256  22269  22372
                                                 22393  22405  22549  22556  22569  22684  22697  22735  22748  22872
                                                 22879  22892  22917  23089  23102  23128  23147  23159  23330  23756
                                                 24106  24113  24136  24145  24152  24168  24262  25211  25220  25376
                                                 25383  25406  25415  25422  25437  25451  26618  26788  26811  26872
                                                 26895  26904  26911  26927  26953  27810  27817  27833  28903  28910
                                                 28925  28992
 CPNUMFLG      1 00000C79 FFFFFFEC     R    5077  5089
 CPOFNPAS     64 00000149 FFFFFFEC         2671 17705
 CPORVCMD      1 00000140 FFFFFFEC     R    2611  2615   2620   2625   2630   2635   2640   2645   2650   2655   2655
                                                  2706   2706
 CPORVFLG      1 00000149 FFFFFFEC     R    2662  2666   2671   2676   2681   2686   2691   2696   2701
 CPORVWF       1 00000150 FFFFFFEC     R    2714  2718
 CPOSCAN     124 00000CA8 FFFFFFEC     X    5313 17712  17749M
 CPOSCANX      4 00000CA8 FFFFFFEC     F    5246  5313   5313
 CPR          11 0000000B 00000001 A   #    1116  1192U
 CPRACBAD     16 000001FC FFFFFFEC         2780  2814   2814   2815   2815
 CPRACF1       1 000001FC FFFFFFEC     R    2761  2765   2770   2775   2780   2785   2790   2795   2800   2816
 CPRACPSW     32 000001FC FFFFFFEC         2775  2813   2813   2815   2815
 CPRACUND     64 000001FC FFFFFFEC         2770  2813   2813   2814   2814
 CPRCVCUR      4 00000730 FFFFFFEC     A    4097  4099   4099
 CPRFLG        1 000008AA FFFFFFEC     R    4387  4391   4396   4401   4406   4411   4416
 CPS         254 00000344 FFFFFFEC     X    3531  3534   3535   3537   3537
 CPSACCT       5 000003B4 FFFFFFEC     C    3130  3293   3293  27712  27732  27752
 CPSAMCOD      1 00000A22 FFFFFFEC     R    4583  4591   4601   4611   4620   4629   4638   4648   4657   4666
 CPSAMFLG      1 00000A21 FFFFFFEC     R    4543  4547   4552   4557   4562   4567   4572   4577   4688   4688
 CPSCNFLG      1 00000CD0 FFFFFFEC     R    5259  5270   5279   5290
 CPSCNF2       1 00000CD1 FFFFFFEC     R    5295  5299
 CPSCNMAX      1 00000014 FFFFFFEC A   U    5311  5312
 CPSCRI        2 00000434 FFFFFFEC     H    3520  3525   3525
 CPSEG        60 00000050 FFFFFFEC     X    2600  7703   7743   7771   7943   8026   8110   8192   8560   8596   8624
                                                  8673   8709   8737  11199  11227  11264  11429  12094  12790  12868
                                                 13106  13131  13184  13209  13649  14041  14066  14119  14144  15035
                                                 15053  15081  15165  15183  15211  15245  15273  15736  16783  16818
                                                 16846  16900  16935  16963  17125  17956  18014  18039  18067  18104
                                                 23718  23736  28466  28501  28548  28595  28642  28689  28722  28775
1NFILE    (NFIL2025) (12:49) (15MAR04) Ordinary Symbol and Literal Cross Reference                                          Page  124
                                                 28808  29119  29164
 CPSEGCOD      1 00000050 FFFFFFEC     R    2517  2526   2536   2546   2556   2566   2576   2586
 CPSFL         1 00000384 FFFFFFEC     R    2868  2872   2877   2882   2887   2892
 CPSFLG        1 000003F8 FFFFFFEC     R    3408  3412   3417   3422   3427   3432   3437   3442   3447
 CPSFLG2       1 000003F9 FFFFFFEC     R    3453  3457   3462   3467
 CPSFL2        1 00000385 FFFFFFEC     R    2898  2902   2907   2912   2917
 CPSFL3        1 00000386 FFFFFFEC     R    2923  2927   2932   2937
 CPSFL4        1 00000387 FFFFFFEC     R    2943  2947   2952   2957
 CPSFL5        1 00000388 FFFFFFEC     R    2963  2967   2972   2977
 CPSFSAM      64 000003EA FFFFFFEC         3314 23699
 CPSFSPR      32 000003BE FFFFFFEC         3233 17597
 CPSKAFL       1 000003BF FFFFFFEC     R    3264  3268   3273   3278   3283   3288
 CPSKIFL       1 000003BE FFFFFFEC     R    3219  3223   3228   3233   3238   3243   3248   3253   3258
 CPSOF         1 000001F8 FFFFFFEC     X    2751  2753   2753
 CPSOFLAG      1 00000416 FFFFFFEC     R    3478  3482   3487   3492   3497   3502
 CPSOPST       4 000003C4 FFFFFFEC     F    3298  3527   3527
 CPSPORT       8 00000354 FFFFFFEC     C    2862  2982   2982
 CPSQFLG       1 000003EC FFFFFFEC     R    3327  3331
 CPSSFLG       1 000003BB FFFFFFEC     R    3137  3141   3146   3151   3156   3161   3166
 CPSSTART      4 00000344 FFFFFFEC     F    2854  2858   2858   3294   3294   3399   3399   3531   3531
 CPSSTAT       1 0000038F FFFFFFEC     R    3074  3078   3083   3088   3093   3098   3103   3108
 CPSTACF       1 000003BC FFFFFFEC     R    3172  3176   3181   3186   3191   3196   3201   3206   3211
 CPSTART       4 00000000 FFFFFFEC     C    2490  6184   6188
 CPSTFLAG      1 000003EA FFFFFFEC     R    3305  3309   3314   3319
 CPSTYPE       1 0000038C FFFFFFEC     R    2987  2996   3006   3016   3026   3036   3046   3056   3066
 CPSUFLG       1 000003EE FFFFFFEC     R    3342  3346   3351   3356   3361   3366   3371   3376   3381
 CPSUFLG2      1 000003EF FFFFFFEC     R    3387  3391   3396
 CPSVPGM       8 0000039C FFFFFFEC     C    3120  3126   3126
 CPS1ST        4 0000038C FFFFFFEC     F    2984  3529   3529
 CPTELL        4 00000C94 FFFFFFEC     F    5239 17712M 17749
 CPTEMPP#      1 0000005F FFFFFFEC A   U    4437  4439
 CPTRMFL1      1 00000C7A FFFFFFEC     R    5095  5099   5104   5109   5233   5233
 CPTRMFL2      1 00000C7B FFFFFFEC     R    5115  5119   5124   5129   5134   5139   5144
 CPTRMFL3      1 00000C7C FFFFFFEC     R    5150  5154   5159   5164   5169   5174   5179   5184
 CPTRMFL4      1 00000C7D FFFFFFEC     R    5190  5194   5199   5204   5209   5214   5219   5224
 CPUSED        1 00000FBC FFFFFFEC A   U    6184  6185
 CPUSESET      2 00000E3C FFFFFFEC     H    5840 13803  13809M
 CPVACURS      8 00000AF0 FFFFFFEC     D    4962  4963   4964
 CPVCURS       8 00000AE0 FFFFFFEC     D    4956  4957   4958
 CPVFLAG       1 00000AC8 FFFFFFEC     R    4757  4761   4766   4771   4776   4781
 CPVFLAG2      1 00000AC9 FFFFFFEC     R    4787  4791   4796   4801   4806   4811   4816
 CPVFLAG3      1 00000ACA FFFFFFEC     R    4822  4826   4831   4836   4841   4846   4851
 CPVFLAG4      1 00000ACB FFFFFFEC     R    4857  4861   4866   4871
 CPVLFLAG      1 00000ACE FFFFFFEC     R    4926  4930   4935   4940
 CPVMODE       1 00000ACC FFFFFFEC     R    4879  4883   4888   4893   4898   4903   4908   4913   4918
 CPVTWID       2 00000AD0 FFFFFFEC     H    4946  4949   4949
 CPWK1         4 00000D60 FFFFFFEC     F    5630  5645   5668
 CPWK2         4 00000D64 FFFFFFEC     F    5631  5646   5660
 CPWK3         4 00000D68 FFFFFFEC     F    5632  5647   5661
 CPWK4         4 00000D6C FFFFFFEC     F    5633  5648   5662
 CPWK5         4 00000D70 FFFFFFEC     F    5634  5650   5655   5663
 CPWK6         4 00000D74 FFFFFFEC     F    5635  5651   5656   5664   5671   5673
 CPWK7         4 00000D78 FFFFFFEC     F    5636  5649   5665
 CPWPATH       8 00000208 FFFFFFEC     C    2827 28971M 28971  29001  29006  29100  29149
 CPXFLAG       1 000007FD FFFFFFEC     R    4224  4228
 CPXSTATE      4 000007F8 FFFFFFEC     F    4218  4231   4231
 CV         4016 00000000 FFFFFFEE     J    2393  1201U
 CVABORT       4 000007DA FFFFFFEE     I    2172 12008B 14987B 15117B 15751B 16765B 16882B 17038B
 CVABSRTN      4 0000088C FFFFFFEE     V    2207  2182
1NFILE    (NFIL2025) (12:49) (15MAR04) Ordinary Symbol and Literal Cross Reference                                          Page  125
 CVABTMSG      4 000007CC FFFFFFEE     I    2167 23748B
 CVBLANKS    235 000004D8 FFFFFFEE     C    1987 26133
 CVBRMSK       1 00000751 FFFFFFEE     X    2123  2124   2125
 CVCFLAG       1 00000A00 FFFFFFEE     R    2288  2292   2297   2302   2307   2312
 CVCHKST       8 000009F0 FFFFFFEE     D    2278  2368   2368
 CVCHKST2      8 00000E28 FFFFFFEE     D    2371  2374   2374
 CVCOMRTN      4 0000087C FFFFFFEE     V    2203  2173
 CVDBGFLG      1 000004CC FFFFFFEE     R    1977  1981
 CVENT         4 0000074C FFFFFFEE     I    2121  6930B  7089B  9140B  9240B  9313B  9379B  9451B  9517B  9584B  9676B
                                                  9782B  9941B 10266B 10376B 10513B 10830B 11138B 11349B 11590B 12367B
                                                 12428B 12489B 12555B 12621B 12688B 12756B 12834B 12933B 13423B 13748B
                                                 14406B 14545B 15981B 16048B 16116B 16183B 16372B 16656B 17484B 17567B
                                                 17662B 18599B 19136B 19267B 19546B 19842B 19974B 20137B 20206B 20274B
                                                 20343B 20412B 21387B 21471B 21543B 21627B 21711B 21799B 22015B 22511B
                                                 22834B 23307B 23828B 24046B 24810B 24936B 25054B 25121B 25187B 25344B
                                                 25818B 26074B 26586B 27220B 27319B 27397B 27475B 27554B 27668B 27960B
                                                 28028B 28095B 28162B 28229B 28296B 28378B 28880B 29063B 29267B 29614B
 CVENTBR       2 00000750 FFFFFFEE     I    2122  2123
 CVERRMSG      4 000007C8 FFFFFFEE     I    2166  7227B  9182B 11761B 11790B 12105B 13496B 13538B 13660B 14731B 16143B
                                                 16258B 17850B 17896B 18866B 19477B 27987B
 CVERROR       4 000007D6 FFFFFFEE     I    2171  2187B  7899B  8226B 10571B 10888B 10909B 11829B 12033B 16433B 17146B
                                                 18125B 18933B 29420B
 CVEXIRTN      4 0000077C FFFFFFEE     V    2151  2147
 CVFCHRKBPR
               8 000004C9 FFFFFFEE         1892  1908   1908
 CVFCHRKBSE
               4 000004C9 FFFFFFEE         1897  1908   1908
 CVFCHRKCPR
               2 000004C9 FFFFFFEE         1914  1930   1930
 CVFCHRKCSE
               1 000004C9 FFFFFFEE         1919  1930   1930
 CVFCHRUBPR
             128 000004C9 FFFFFFEE         1848  1864   1864
 CVFCHRUBSE
              64 000004C9 FFFFFFEE         1853  1864   1864
 CVFCHRUCPR
              32 000004C9 FFFFFFEE         1870  1886   1886
 CVFCHRUCSE
              16 000004C9 FFFFFFEE         1875  1886   1886
 CVFL          1 000004C4 FFFFFFEE     R    1644  1648   1653   1658   1663   1668   1673   1678   1683
 CVFL2         1 000004C5 FFFFFFEE     R    1689  1693   1698   1703   1708   1713   1718   1723   1728
 CVFL3         1 000004C6 FFFFFFEE     R    1734  1738   1743   1748   1753   1758   1763   1768   1773
 CVFL4         1 000004C7 FFFFFFEE     R    1779  1783   1788   1793   1798   1803   1808   1813
 CVFL5         1 000004C8 FFFFFFEE     R    1819  1823   1828   1833   1838
 CVFL6         1 000004C9 FFFFFFEE     R    1844  1848   1853   1865   1870   1875   1887   1892   1897   1909   1914
                                                  1919   1931
 CVFOLDIBM
              16 000004C8 FFFFFFEE         1838 25939
 CVFWINGS     32 000004C8 FFFFFFEE         1833 25921  28756
 CVHEAP#       1 00000200 FFFFFFEE A   U    1550  1551
 CVINVRTN      4 00000888 FFFFFFEE     V    2206  2176
 CVJESFLG      1 000004CA FFFFFFEE     R    1937  1941
 CVLNKRGS      4 00000780 FFFFFFEE     F    2153  2128M  2154
 CVLNKRTN      4 000007B0 FFFFFFEE     U    2154  2143M
 CVLOCK1       1 00000088 FFFFFFEE     R    1295  1299   1304
 CVLOCK2       1 00000089 FFFFFFEE     R    1309  1313
 CVLOCK3       1 0000008A FFFFFFEE     R    1318  1322
 CVLOCK4       1 0000008B FFFFFFEE     R    1327  1331
 CVLOGMOD      1 00000068 FFFFFFEE     R    1282  1286
1NFILE    (NFIL2025) (12:49) (15MAR04) Ordinary Symbol and Literal Cross Reference                                          Page  126
 CVMACH        1 00000067 FFFFFFEE     R    1242  1246   1251   1256   1261   1266   1271   1276
 CVMILRTN      4 00000884 FFFFFFEE     V    2205  2185
 CVNEXT        4 000007DE FFFFFFEE     I    2173  6988B  8751B 11269B 11434B 12115B 15086B 15282B 15826B 17188B 18109B
                                                 18162B 18939B 27778B 28822B 29019B 29173B
 CVNOARTN      4 00000890 FFFFFFEE     V    2208  2179
 CVNWDATE      4 00000608 FFFFFFEE     F    2010  2014   2014
 CVNWMPG#      1 00000008 FFFFFFEE A   U    2012  2013
 CVPFXRTN      1 00000000 00000000 A   T    2151  2151
 CVPGFLAG      1 00000A01 FFFFFFEE     R    2318  2322   2327   2332
 CVPIOSZ       1 00004F80 FFFFFFEE A   U    1381  1383
 CVPPDBQH      4 0000009C FFFFFFEE     A    1339  1340
 CVPSFNO       1 000003E9 FFFFFFEE A   N    1503  1505
 CVPSLNO       1 000007CF FFFFFFEE A   N    1504  1505
 CVPXSZ        1 00000008 FFFFFFEE A   U    1382  1383
 CVR          12 0000000C 00000001 A   #    1129  1201U
 CVRKEY        1 00000008 FFFFFFEE A   U    2076  2077
 CVSEGRTN      4 00000880 FFFFFFEE     V    2204  2168
 CVSTACK#      1 00000080 FFFFFFEE A   U    1542  1543
 CVSTART       4 00000000 FFFFFFEE     C    1215  2386
 CVTRC         4 00000768 FFFFFFEE     I    2143  2129B
 CVTRCRTN      4 00000778 FFFFFFEE     V    2150  2144
 CVUSFNO       1 00000001 FFFFFFEE A   N    1510  1512
 CVUSLNO       1 000003E7 FFFFFFEE A   N    1511  1512
 CVVOL#        1 00000005 FFFFFFEE A   U    2361  2362
 CVWTOFLG      1 000004CB FFFFFFEE     R    1947  1951   1956   1961   1966   1971
 DEBUGSG       1 00000000 00000000 A   T    2104  2104
 DESABORT      1 00000004 FFFFFFEC A   U    6200 14344
 DESRTRN       1 00000080 FFFFFFEC A   U    6193  8825   8828  11501  14341  14344
 DEV          12 00000000 FFFFFFEB     J    4742  4750
 DEVMAX#       1 00000002 FFFFFFEC A   U    4693  4750
 DEVTYPE       1 00000001 FFFFFFEB     R    4710  4719   4729
 DIFFOPEN      2 00000E32 00000001     H   11124  8822
 DOALLO        4 0000282E 00000001     I   17905 17972B 18120B
 DODSNM        1 00000000 0000004A     T   27277 27277
 DOFNAME       2 00003054 00000001     H   19253 19249
 DOFNAME       1 00000000 00000006     T    8806  8806  14332  17219  18198  18968
 DOTTBL        1 00000000 00000000 A   T    2220  2220
 DRENCFLG      1 00000F9F FFFFFFEC     R    6148  6152   6157   6162   6167   6172
 DRENPROT      1 00000F9E FFFFFFEC     R    6135  6143
 DSAVSIZ       1 0000013C FFFFFFEC A   U    6120 17688  18625
 DSNDDISK      1 00000001 FFFFFFEC A   U    6082 26127
 DSNDNET       1 00000003 FFFFFFEC A   U    6084 26239
 DSNDSAM       1 00000002 FFFFFFEC A   U    6083 26303
 DSNDTYPE      1 00000F3B FFFFFFEC     X    6081 26127  26239  26303
 DSNFIN        1 00000000 0000004B     T   27283 27283
 DSNFSTRM     64 00000F39 FFFFFFEC         6022 27246M
 DSNON        40 00000E90 FFFFFFEC     C    5868  5869  26373  26374  26374  26463
 DSNPSHF       1 00000000 00000049     T   27185 27185
 DSNRESLV      2 00005D4A 00000001     H   29600 29678
 DSNWADSN     44 00000E5C FFFFFFEC     C    5855  5856   5857   5858   5867   5875   6106   6112   6114   6120   6123
                                                  6125   6128   6177  17689M 17689  17690M 17690  18626M 18626  18627M
                                                 18627  26134  26134  26337
 DSNWAF4       1 00000F37 FFFFFFEC     R    5923  5927   5932   5937   5942   5947   5952   5957   5962
 DSNWAF5       1 00000F38 FFFFFFEC     R    5968  5972   5977   5982   5987   5992   5997   6002   6007
 DSNWAF6       1 00000F39 FFFFFFEC     R    6013  6017   6022   6027   6032   6037   6042   6047   6052
 DSNWAF7       1 00000F3A FFFFFFEC     R    6058  6062   6067   6072   6077
 DSNWAMBR      8 00000E88 FFFFFFEC     C    5866 26173  26183  26183
 DSNWANL       2 00000F06 FFFFFFEC     H    5876 26309
 DSNWFILE     44 00000F08 FFFFFFEC     C    5878 26273
1NFILE    (NFIL2025) (12:49) (15MAR04) Ordinary Symbol and Literal Cross Reference                                          Page  127
 DSNWLEN       2 00000F04 FFFFFFEC     H    5874 26245
 DSNXG         1 00000004 FFFFFFEC A   U    5860  5862
 DSNXGL        1 00000003 FFFFFFEC A   U    5861  5862
 DSNXU         1 00000007 FFFFFFEC A   U    5862  5864
 DSNXUL        1 00000004 FFFFFFEC A   U    5863  5864
 DSSIZ         1 00000108 FFFFFFEC A   U    6106  6114   6123   6128
 EBCTBL        1 00000000 00000000 A   T    2216  2216
 EBCTBL7       1 00000000 00000000 A   T    2219  2219
 ECBLIST       1 00000000 00000000 A   T    2079  2079
 EDTCOMNH      1 00000000 0000000A     T    8811  8811
 EPARTBL       1 00000000 00000000 A   T    2211  2211
 EXPCNAME      2 00005046 00000001     H   26060 26056  27284
 EXPCNAME      1 00000000 00000054     T   29682 29682
 EXTCLOSE      1 00000000 00000012     T    8829  8829  14346
 EXTOPEN       1 00000000 0000000F     T    8817  8817  11505  14339
 EXTWRITE      1 00000000 00000020     T   11496 11496
 FFFAPPD       4 00000001 FFFFFFE8         6672  8526   9339M
 FFFCHFMT     32 00000002 FFFFFFE8         6701 11450M
 FFFDIFFV     64 00000002 FFFFFFE8         6696 11285M 18119M
 FFFNET        4 00000000 FFFFFFE8         6628  8503  14768  15103  16872  21663M 23459M 23914M 28188M 28575  29484
 FFFNRACF     16 00000002 FFFFFFE8         6706 10414M
 FFFOLD        5 00000000 FFFFFFE8         6638  7602  11891  11967  15312  21747M 23045M 23611M 23660  24889M 25009M
                                                 25903  28322M 28669  29451
 FFFPASSW    128 00000002 FFFFFFE8         6691 10725M 11063M 16583M
 FFFPDS        8 00000002 FFFFFFE8         6711 17057M 17520M
 FFFREAD       1 00000001 FFFFFFE8         6652 11659M
 FFFREPL       8 00000001 FFFFFFE8         6682  6973M  7321   9266M 10314M
 FFFSAM        3 00000000 FFFFFFE8         6618  8646  14756  14973  16755  21579M 23687  25080M 25730M 26697  28255M
                                                 28622  29550
 FFFUNIX       2 00000000 FFFFFFE8         6608 28121M 28528  29517
 FFFWINGS      1 00000000 FFFFFFE8         6598  7999   8084   8166  10565  10882  15300  16427  16988  17838  18824M
                                                 21423M 23018M 23584M 24862M 24988M 25885  28054M 28481  29384
 FFFWRITE      2 00000001 FFFFFFE8         6662  7402M
 FFHOST      128 00000090 FFFFFFE8     C    6775  7758   8611   8724  11214  15260  16833  16950  18054  22636M 22964M
                                                 23242  24129  26463M 26858
 FFHOSTL       4 0000008C FFFFFFE8     F    6774  7724   7763   8577   8616   8690   8729  11219  15226M 15226  15265
                                                 16798M 16798  16838  16915M 16915  16955  18059  22623M 22951M 23448
                                                 24090  24134  26367  26436M 26843  26857  26863
 FFINDONE      2 0000453A 00000001     H   23647 23362B 23385B 23407B 23429B 23460B 23518B 23550B
 FFINFO      928 00000000 FFFFFFE8     J    6790  6964U  7178U 10295U 10405U 10551U 10868U 11167U 11378U 11652U 14610U
                                                 16413U 16690U 17513U 17768U 18698U 19194U 19198  19199  19581U 19803
                                                 21416U 21572U 21656U 21740U 21830U 22058U 22542U 22865U 23343U 23856U
                                                 24074U 25372U 25786  25857U 25865M 25865  25866M 25866  25867M 25867
                                                 25868M 25868  26109U 26630U 27635  27795U 27803M 27803  27804M 27804
                                                 27805M 27805  27806M 27806  28416U 28424M 28424  28425M 28425  28426M
                                                 28426  28427M 28427  29318U 29374
 FFMISC        1 00000002 FFFFFFE8     R    6687  6691   6696   6701   6706   6711
 FFNAME      128 0000000C FFFFFFE8     C    6773 14506  14508  14510  14512  14806  14901M 15350  15458M 15488  15501
                                                 15584M 15686M 19416M 19685M 23495  23868  23945M 23945  25399  25642M
                                                 25642  25703M 25703  26642  26711
 FFNAMEL       4 00000008 FFFFFFE8     F    6772 14778  14865M 14865  14874M 15322  15500M 15557M 15659M 19403M 19672M
                                                 23481  23873  23917M 25404  25627  25629M 25688  25690M 26647  26716
                                                 29334
 FFOPTS      256 00000114 FFFFFFE8     C    6777 21834  21892  22062  22120  22163  22281  23236  26828
 FFOPTSL       4 00000110 FFFFFFE8     F    6776 21835  21841  21842M 21845  21893  21932M 22063  22069  22070M 22073
                                                 22121  22160M 22164  22170  22171M 22234  22282  22321M 26824  26827
                                                 26861
 FFOPTSPRT
               4 00003384 00000001     F   20055 20094
1NFILE    (NFIL2025) (12:49) (15MAR04) Ordinary Symbol and Literal Cross Reference                                          Page  128
 FFPHOST     128 00000320 FFFFFFE8     C    6783 19210M
 FFPHOSTL      4 0000031C FFFFFFE8     F    6782 19209M
 FFPNAME     128 0000029C FFFFFFE8     C    6781 19208M
 FFPNAMEL      4 00000298 FFFFFFE8     F    6780 19207M
 FFPTYPE       1 00000003 FFFFFFE8     R    6716  6725   6735   6745   6755   6765  19206M 23502
 FFRNAME     128 00000218 FFFFFFE8     C    6779 10610  10948  14846  14872M 14872  14945  15390  15606M 15606  15646
                                                 15801M 16468  17884  18854  26133M 26134M 26135  26218  26273M 26337M
 FFRNAMEL      4 00000214 FFFFFFE8     F    6778 10615  10953  14818  14917  15362  15613M 15613  15618  15774M 16473
                                                 17870  18840  26220M 26246M 26310M
 FFRQTYPE      1 00000001 FFFFFFE8     R    6643  6652   6662   6672   6682   7391
 FFTYPE        1 00000000 FFFFFFE8     R    6589  6598   6608   6618   6628   6638  22986  23359  23501  23502M 23515
                                                 23530  23547  23629  25870  27846  28430  28447  29359
 FIBEXIT       2 00004F3C 00000001     H   25969 25961B 25966B
 FIBINFO     928 00000000 FFFFFFDE     X   25786 25849
 FIBMTYPE      2 00004EC8 00000001     H   25802 23244  26018
 FIBOLD        2 00004F34 00000001     H   25964 25906B 25942B 25955B
 FIBWA       928 00000000 FFFFFFDE     J   25793 25815  25844U 25989  25991  25992
 FIBWINGS      2 00004F2C 00000001     H   25959 25888B 25924B
 FILEOPTS      2 00003232 00000001     H   19828 19824
 FILFOPTS      2 00003304 00000001     H   19960 19956
 FNAMEFIN      2 0000446C 00000001     H   23293 23289
 FNAMEFIN      1 00000000 00000009     T    8810  8810  14336  17223  18202  18973
 FNAMEKW       2 00003F1E 00000001     H   21785 17284  17299  17314  17359  17374  17389  18193  18260  18440  18455
                                                 18470  20492  20537  20552  20567  20582  20597  20612  20627  20642
                                                 20657  20676  20691  20706  20721  20736  20751  20766  20781  20796
                                                 20811  20826  20841  20856  20871  20946  20961  20976  20991  21205
                                                 21220  21235  21250
 FNAMEON       2 00004162 00000001     H   22497 21100  21285
 FNAMEOPT      2 00003FB2 00000001     H   21999 18245  18275  18290  18305  18320  18335  18350  18365  18380  18395
                                                 18410  18425  19007  19022  20477  20507  20522  20886  20901  20916
                                                 20931  21006  21130  21145  21160  21175  21190  21319  21334  21349
 FNAMESCN      2 0000311E 00000001     H   19532 19528
 FNAMEVOL      2 0000425C 00000001     H   22820 21115
 FNAMPRT       4 00003A98 00000001     F   21013 23229
 FNAMPRTF      4 00003700 00000001     F   20664 23231
 FNAMPRTS      4 000034F8 00000001     F   20465 23232
 FNAMPSH       2 000033EA 00000001     H   20123 19935  20119
 FNAMPSH       1 00000000 00000034     T   15901 15901  17434  19037
 FNAMPSHF      2 00003420 00000001     H   20192 20067  20188
 FNAMPSHF      1 00000000 00000029     T   12317 12317  18485
 FNAMPSHS      2 00003456 00000001     H   20260  9059  18500
 FNKWEXIT      2 00003FA4 00000001     H   21940 21886B
 FNNET         2 00003EBE 00000001     H   21613 21070
 FNOLDIBM      2 00003EEE 00000001     H   21697 21085
 FNONEXIT      2 0000424E 00000001     H   22782 22703B 22754B
 FNONPRT       4 00003D40 00000001     F   21273 23233
 FNONPSH       2 0000348C 00000001     H   20329 20325
 FNOPEXIT      2 00004154 00000001     H   22454 22114B 22275B 22411B
 FNOPTLEN      4 00000004 FFFFFFDF     F   21983 22047M 22379
 FNOPTLOC      4 00000000 FFFFFFDF     F   21982 22046M 22378
 FNOWA         8 00000000 FFFFFFDF     J   21990 22012  22041U 22474  22476  22477
 FNSAMSON      2 00003E8E 00000001     H   21529 21055
 FNUNIX        2 00003E60 00000001     H   21457 21040
 FNVOLXIT      2 0000437C 00000001     H   23193 23108B 23165B
 FNWINGS       2 00003E30 00000001     H   21373 21025
 FOPTSPRT      4 000032B4 00000001     F   19923 20091
 FSR           0 00000000 00000001 A   #    1026  6925   7004M  7083   8771M  9135   9215M  9235   9288M  9308   9354M
                                                  9374   9426M  9446   9492M  9512   9559M  9579   9627M  9671   9720M
                                                  9776   9875M  9935  10225M 10261  10336M 10371  10436M 10507  10746M
1NFILE    (NFIL2025) (12:49) (15MAR04) Ordinary Symbol and Literal Cross Reference                                          Page  129
                                                 10824  11090M 11133  11307M 11344  11472M 11584  12136M 12362  12403M
                                                 12423  12464M 12484  12530M 12550  12596M 12616  12663M 12683  12731M
                                                 12751  12809M 12829  12887M 12928  13379M 13418  13702M 13743  14314M
                                                 14401  14445M 14539  15847M 15976  16023M 16043  16091M 16111  16158M
                                                 16178  16321M 16366  16604M 16651  17203M 17479  17542M 17562  17630M
                                                 17657  18177M 18594  18954M 19131  19231M 19262  19497M 19541  19781M
                                                 19837  19914M 19969  20046M 20132  20164M 20179M 20201  20233M 20248M
                                                 20269  20301M 20316M 20338  20370M 20385M 20407  20439M 20454M 21382
                                                 21438M 21466  21513M 21538  21594M 21622  21678M 21706  21762M 21794
                                                 21955M 22009  22474M 22506  22797M 22829  23208M 23302  23774M 23823
                                                 24000M 24041  24280M 24805  24910M 24931  25029M 25049  25096M 25116
                                                 25157M 25182  25259M 25299M 25339  25759M 25812  25989M 26069  26494M
                                                 26580  26976M 27215  27261M 27314  27359M 27392  27424M 27439M 27470
                                                 27516M 27549  27595M 27662  27870M 27955  28002M 28023  28069M 28090
                                                 28136M 28157  28203M 28224  28270M 28291  28337M 28372  28842M 28875
                                                 29034M 29058  29188M 29262  29580M 29609  29657M
 FVOLPRT       4 000046FC 00000001     F   24296 26026
 GETDATA       1 00000000 0000004D     T   27611 27611
 GETDHOST      2 000055E6 00000001     H   27383 27379
 GETDTYPE      2 00005652 00000001     H   27540 26017  27536  29208
 GETHEAP       1 00000000 00000042     T   19804 19804
 GETKWR        1 00000000 00000024     T   11509 11509  17238
 GETPASSW      2 00000CD4 00000001     H   10497 17246  18209
 GETPWKWR    504 00000000 FFFFFFE3     X   10481 10578  16440
 GETPWWA     504 00000000 FFFFFFE3     J   10488 10510  10539U 10746  10748  10749  16369  16398U 16604  16606  16607
 GTINTVAL      1 00000000 00000030     T   14359 14359
 HIBAL         1 00000000 FFFFFFFF     J     691   707    720    733    746    759    772    785    798    811    824
                                                   837    850    863    876    889    902
 INVALID       1 00000000 00000000 A   T    2206  2206
 KWR         504 00000000 FFFFFFE9     J    6554 10481  10586U 10594M 10594  10595M 10595  10709  10798  10924U 10932M
                                                 10932  10933M 10933  11047  16448U 16456M 16456  16457M 16457  16567
 KWRDSTRT      1 00000005 FFFFFFE9     U    6365  6527   6527
 KWRGRP        2 00000003 FFFFFFE9     C    6362 10674M 10697M 11012M 11035M 16532M 16555M
 KWRSTART      4 00000000 FFFFFFE9     F    6360  6541
 KWRUSER       3 00000000 FFFFFFE9     C    6361  6363   6363  10675M 10698M 11013M 11036M 16533M 16556M
 LASTLINE      1 00000000 0000002A     T   14347 14347
 LEXATRTN      1 00000040 FFFFFFEC A   U    6195  8828
 LNNUMB        8 00000000 00000001 A   U   13402 13665  13666  14357  14360
 LNTEXT        1 00000008 00000001 A   U   13403 13673
 LOCATRTN      1 00000000 FFFFFFEC A   U    6197  8825  11501
 LOGCMD        1 00000000 00000043     T   19808 19808
 LOWTBL        1 00000000 00000000 A   T    2214  2214
 LRTRIM        1 00000000 00000003     T    8797  8797
 LSR           8 00000008 00000001 A   #    1077  6925   7004M  7083   8771M  9135   9215M  9235   9288M  9308   9354M
                                                  9374   9426M  9446   9492M  9512   9559M  9579   9627M  9671   9720M
                                                  9776   9875M  9935  10225M 10261  10336M 10371  10436M 10507  10746M
                                                 10824  11090M 11133  11307M 11344  11472M 11584  12136M 12362  12403M
                                                 12423  12464M 12484  12530M 12550  12596M 12616  12663M 12683  12731M
                                                 12751  12809M 12829  12887M 12928  13379M 13418  13702M 13743  14314M
                                                 14401  14445M 14539  15847M 15976  16023M 16043  16091M 16111  16158M
                                                 16178  16321M 16366  16604M 16651  17203M 17479  17542M 17562  17630M
                                                 17657  18177M 18594  18954M 19131  19231M 19262  19497M 19541  19781M
                                                 19837  19914M 19969  20046M 20132  20179M 20201  20248M 20269  20316M
                                                 20338  20385M 20407  20454M 21382  21438M 21466  21513M 21538  21594M
                                                 21622  21678M 21706  21762M 21794  21955M 22009  22474M 22506  22797M
                                                 22829  23208M 23302  23774M 23823  24000M 24041  24280M 24805  24910M
                                                 24931  25029M 25049  25096M 25116  25157M 25182  25299M 25339  25759M
                                                 25812  25989M 26069  26494M 26580  26976M 27215  27261M 27314  27359M
                                                 27392  27439M 27470  27516M 27549  27595M 27662  27870M 27955  28002M
1NFILE    (NFIL2025) (12:49) (15MAR04) Ordinary Symbol and Literal Cross Reference                                          Page  130
                                                 28023  28069M 28090  28136M 28157  28203M 28224  28270M 28291  28337M
                                                 28372  28842M 28875  29034M 29058  29188M 29262  29580M 29609  29657M
 LXCATRTN      1 00000060 FFFFFFEC A   U    6196 14341  14344
 MALL          1 00000000 0000001E     T    9119  9119  12346  15960  17463  18559  19066  19949  20081  24787  27199
                                                 27938
 MATVOL        2 00004D10 00000001     H   25173 24757
 MILERR        1 00000000 00000000 A   T    2205  2205
 MKFFINFO      2 00002FE8 00000001     H   19122  8794  14331  19118  19805  26517
 MKFFINFO      1 00000000 00000035     T   17218 17218  18197  18967
 MNULL         1 00000000 00000033     T   15870 15870  24772  27890
 MPAREN        1 00000000 00000046     T   20491 20491  27019
 MPARM         1 00000000 00000027     T   12256 12256  27004  27034
 MPINT         1 00000000 00000026     T   12166 12166  12181
 MTOKEN        1 00000000 00000017     T    8863  8863   8878   8893   8908   8923   8938   8953   8968   8983   8998
                                                  9013  12196  12211  12226  12241  12271  12286  15885  15930  15945
                                                 17283  17298  17313  17328  17343  17358  17373  17388  17403  17418
                                                 18244  18259  18274  18289  18304  18319  18334  18349  18364  18379
                                                 18394  18409  18424  18439  18454  18469  19006  19021  20476  20506
                                                 20521  20536  20551  20566  20581  20596  20611  20626  20641  20656
                                                 20675  20690  20705  20720  20735  20750  20765  20780  20795  20810
                                                 20825  20840  20855  20870  20885  20900  20915  20930  20945  20960
                                                 20975  20990  21005  21024  21039  21054  21069  21084  21099  21114
                                                 21129  21144  21159  21174  21189  21204  21219  21234  21249  21284
                                                 21318  21333  21348  24307  24322  24337  24352  24367  24382  24397
                                                 24412  24427  24442  24457  24472  24487  24502  24517  24532  24547
                                                 24562  24577  24592  24607  24622  24637  24652  24667  24682  24697
                                                 24712  24727  24742  27049  27064  27079  27094  27109  27124  27139
                                                 27154  27169  27905  27923
 NBLTBL        1 00000000 00000000 A   T    2218  2218
 NDETRNG       1 00000000 0000000E     T    8816  8816  11495  14340
 NETREN        1 00000000 00000037     T   17229 17229
 NETRESLV      1 00000000 00000051     T   29679 29679
 NETSCR        1 00000000 0000003C     T   17243 17243
 NFIL2025      1 00000000 00000001     R     999   997
 NOACTION      1 00000000 00000000 A   T    2208  2208
 NOOPTS        1 00000000 0000004F     T   29214 29214
 NOTVALID      1 00000000 0000001F     T    9120  9120  12347  15961  17464  18192  18560  19067  23235  27200  27939
 NPARTBL       1 00000000 00000000 A   T    2212  2212
 NRESOLVE      2 00005C96 00000001     H   29253 11506  29249
 NRESOLVE      1 00000000 00000016     T    8833  8833  17224  18203  18974
 NSCAN         1 00000000 00000008     T    8809  8809  14334  17221  18200  18970  20092  23240  26027  27281  29205
 NSCANSTR      1 00000000 00000004     T    8804  8804  17235  19806  23241
 NSCNCB      176 00000000 FFFFFFED     J    2477  2603   7192   7193   7420   7422   7433   7434   7435   7438M  7448M
                                                  7449M  7450M  7462   7498M  7499M  7558   7559   7560   7563M  7564M
                                                  7566M  7576M  7577M  7578M  7827   8836  10091  10177  11687  11688
                                                 11689  11692M 11693M 11695M 11705M 11706M 11707M 11854  14617  14618
                                                 14681  14682  14683  14686M 14687M 14689M 14699M 14700M 14701M 16214
                                                 16215  16216  16219M 16229M 16230M 16231M 16708  16709  16710  16713M
                                                 16714M 16716M 16726M 16727M 16728M 17793  17794  17795  17798M 17799M
                                                 17801M 17811M 17812M 17813M 18732  18733  18734  18737M 18738M 18740M
                                                 18750M 18751M 18752M 18779  18780  18781  18784M 18785M 18787M 18797M
                                                 18798M 18799M 19310  19311  19312  19315M 19325M 19326M 19327M 19596
                                                 19597  19598  19601M 19611M 19612M 19613M 19744M 19744  19873  19874
                                                 19875  19878M 19879M 19881M 19891M 19892M 19893M 20005  20006  20007
                                                 20010M 20011M 20013M 20023M 20024M 20025M 21868M 21868  22096M 22096
                                                 22184  22185  22186  22189M 22190M 22191M 22201M 22202M 22203M 22257M
                                                 22257  22373M 22373  22557  22558  22559  22562M 22572M 22573M 22574M
                                                 22685M 22685  22736M 22736  22880  22881  22882  22885M 22895M 22896M
                                                 22897M 22918  23090M 23090  23129M 23129  23331  23333  23759  24107
1NFILE    (NFIL2025) (12:49) (15MAR04) Ordinary Symbol and Literal Cross Reference                                          Page  131
                                                 24109  24114  24137M 24138M 24153  24154  24155  24158M 24159M 24161M
                                                 24171M 24172M 24173M 24265  25212  25213  25221  25377  25379  25384
                                                 25407M 25408M 25423  25424  25425  25428M 25429M 25430M 25440M 25441M
                                                 25442M 25452  26036  26619  26621  26789  26812M 26813M 26873  26896M
                                                 26897M 26912  26913  26914  26917M 26918M 26920M 26930M 26931M 26932M
                                                 26956  27286  27818  27819  27820  27823M 27824M 27826M 27836M 27837M
                                                 27838M 28911  28912  28913  28916M 28917M 28918M 28928M 28929M 28930M
 NSCNFLGS      1 00000008 FFFFFFED     R    2414  2418   2423
 NSCNKWS       4 00000028 FFFFFFED     A    2463  7433   7438M  7448M  7558   7566M  7576M 11687  11695M 11705M 14681
                                                 14689M 14699M 16214  16219M 16229M 16708  16716M 16726M 17793  17801M
                                                 17811M 18732  18740M 18750M 18779  18787M 18797M 19310  19315M 19325M
                                                 19596  19601M 19611M 19873  19881M 19891M 20005  20013M 20023M 22184
                                                 22191M 22201M 22557  22562M 22572M 22880  22885M 22895M 24153  24161M
                                                 24171M 25423  25430M 25440M 26912  26920M 26930M 27818  27826M 27836M
                                                 28911  28918M 28928M
 NSCNLEN       4 00000004 FFFFFFED     F    2411  7193   7499M 14618  24138M 25408M 26813M 26897M
 NSCNLOC       4 00000000 FFFFFFED     A    2410  7192   7498M 14617  24137M 25407M 26812M 26896M
 NSCNMSGL      4 0000005C FFFFFFED     F    2469 19744  19744M 19744  21868  21868M 21868  22096  22096M 22096  22257
                                                 22257M 22257  22373  22373M 22373  22685  22685M 22685  22736  22736M
                                                 22736  23090  23090M 23090  23129  23129M 23129
 NSCNSKIP      4 00000024 FFFFFFED     A    2462  7434   7449M  7559   7563M  7577M 11688  11692M 11706M 14682  14686M
                                                 14700M 16215  16230M 16709  16713M 16727M 17794  17798M 17812M 18733
                                                 18737M 18751M 18780  18784M 18798M 19311  19326M 19597  19612M 19874
                                                 19878M 19892M 20006  20010M 20024M 22185  22189M 22202M 22558  22573M
                                                 22881  22896M 24154  24158M 24172M 25424  25428M 25441M 26913  26917M
                                                 26931M 27819  27823M 27837M 28912  28916M 28929M
 NSCNSTOP      4 00000020 FFFFFFED     A    2461  7435   7450M  7560   7564M  7578M 11689  11693M 11707M 14683  14687M
                                                 14701M 16216  16231M 16710  16714M 16728M 17795  17799M 17813M 18734
                                                 18738M 18752M 18781  18785M 18799M 19312  19327M 19598  19613M 19875
                                                 19879M 19893M 20007  20011M 20025M 22186  22190M 22203M 22559  22574M
                                                 22882  22897M 24155  24159M 24173M 25425  25429M 25442M 26914  26918M
                                                 26932M 27820  27824M 27838M 28913  28917M 28930M
 NSCNTLEN      4 00000014 FFFFFFED     F    2429 25213
 NSCNTLOC      4 00000010 FFFFFFED     A    2428 25212
 NSCNTOK      16 00000030 FFFFFFED     C    2465 22918  25221  25452
 NSCNTYPE      1 00000018 FFFFFFED     R    2432  2436   2441   2446   2451   2456
 OLDFIN        2 00005182 00000001     H   26570 26021
 OLDFPRT       4 00005314 00000001     F   26993 27280
 OLDFWA      520 00000000 FFFFFFDD     J   26561 26583  26612U 26976  26978  26979
 OLDNAME     256 00000004 FFFFFFDD     X   26552 26675M 26734M 26761M 26804
 OLDNAMEL      4 00000000 FFFFFFDD     F   26551 26687M 26774M 26809
 OLDOPTS     256 00000108 FFFFFFDD     X   26554 26826  26888
 OLDOPTSL      4 00000104 FFFFFFDD     F   26553 26825M 26864M 26893
 OLDRTN        2 00001780 00000001     H   13734 14345
 OLDSAVE       1 00000000 00000002     T    8796  8796
 ORTNDONE      2 000018F2 00000001     H   14299 13902B 14194B
 ORVCPASS      1 00000000 0000003F     T   18196 18196
 OSRENAME      2 00001B60 00000001     H   14529 14525
 PASSOPEN      2 00000D7A 00000001     H   10814  8821
 PUTLINE       1 00000000 0000002D     T   14354 14354
 PWKWR       504 00000000 FFFFFFE2     X   10798 10916
 PWWA        504 00000000 FFFFFFE2     J   10805 10827  10856U 11090  11092  11093
 QUIETPSH      1 00000000 0000001C     T    9089  9089  12332  15916  17449  18530  19052
 RAR          14 0000000E 00000001 A   #    1155  2143   2144M  2145B  2147M  2148B  2168M  2169B  2173M  2174B  2176M
                                                  2177B  2179M  2180B  2182M  2183B  2185M  2186M  2186B  2192   6922
                                                  6954M  6955M  6955B  6985M  6986M  6986B  7006M  7009B  7080   7139M
                                                  7140M  7140B  7168M  7169M  7169B  7200M  7201M  7201B  7441M  7442M
                                                  7442B  7455M  7456M  7456B  7512M  7513M  7513B  7516M  7517M  7517B
                                                  7569M  7570M  7570B  7583M  7584M  7584B  7589M  7590M  7590B  7666M
1NFILE    (NFIL2025) (12:49) (15MAR04) Ordinary Symbol and Literal Cross Reference                                          Page  132
                                                  7667M  7667B  7706M  7707M  7707B  7710M  7711M  7711B  7746M  7747M
                                                  7747B  7774M  7775M  7775B  7786M  7787M  7787B  7834M  7835M  7835B
                                                  7854M  7855M  7855B  7946M  7947M  7947B  7957M  7958M  7958B  8029M
                                                  8030M  8030B  8040M  8041M  8041B  8113M  8114M  8114B  8124M  8125M
                                                  8125B  8195M  8196M  8196B  8206M  8207M  8207B  8257M  8258M  8258B
                                                  8296M  8297M  8297B  8331M  8332M  8332B  8344M  8345M  8345B  8399M
                                                  8400M  8400B  8457M  8458M  8458B  8476M  8477M  8477B  8511M  8512M
                                                  8512B  8563M  8564M  8564B  8599M  8600M  8600B  8627M  8628M  8628B
                                                  8654M  8655M  8655B  8658M  8659M  8659B  8676M  8677M  8677B  8712M
                                                  8713M  8713B  8740M  8741M  8741B  8773M  8776B  9132   9195M  9196M
                                                  9196B  9217M  9220B  9232   9290M  9293B  9305   9356M  9359B  9371
                                                  9428M  9431B  9443   9494M  9497B  9509   9561M  9564B  9576   9629M
                                                  9632B  9668   9703M  9704M  9704B  9722M  9725B  9773   9832M  9833M
                                                  9833B  9853M  9854M  9854B  9877M  9880B  9932  10006M 10007M 10007B
                                                 10017M 10018M 10018B 10035M 10036M 10036B 10085M 10086M 10086B 10105M
                                                 10106M 10106B 10113M 10114M 10114B 10127M 10128M 10128B 10139M 10140M
                                                 10140B 10171M 10172M 10172B 10191M 10192M 10192B 10199M 10200M 10200B
                                                 10227M 10230B 10258  10305M 10306M 10306B 10319M 10320M 10320B 10338M
                                                 10341B 10368  10419M 10420M 10420B 10438M 10441B 10504  10600M 10601M
                                                 10601B 10712M 10713M 10713B 10748M 10751B 10821  10938M 10939M 10939B
                                                 11050M 11051M 11051B 11068M 11069M 11069B 11092M 11095B 11130  11202M
                                                 11203M 11203B 11230M 11231M 11231B 11238M 11239M 11239B 11267M 11268M
                                                 11268B 11290M 11291M 11291B 11309M 11312B 11341  11403M 11404M 11404B
                                                 11432M 11433M 11433B 11455M 11456M 11456B 11474M 11477B 11581  11642M
                                                 11643M 11643B 11673M 11674M 11674B 11698M 11699M 11699B 11712M 11713M
                                                 11713B 11718M 11719M 11719B 11805M 11806M 11806B 11811M 11812M 11812B
                                                 11861M 11862M 11862B 11917M 11918M 11918B 11939M 11940M 11940B 11978M
                                                 11979M 11979B 12002M 12003M 12003B 12006M 12007M 12007B 12017M 12018M
                                                 12018B 12097M 12098M 12098B 12138M 12141B 12359  12405M 12408B 12420
                                                 12466M 12469B 12481  12532M 12535B 12547  12598M 12601B 12613  12665M
                                                 12668B 12680  12733M 12736B 12748  12793M 12794M 12794B 12811M 12814B
                                                 12826  12871M 12872M 12872B 12889M 12892B 12925  13109M 13110M 13110B
                                                 13134M 13135M 13135B 13187M 13188M 13188B 13212M 13213M 13213B 13257M
                                                 13258M 13258B 13328M 13329M 13329B 13381M 13384B 13415  13592M 13593M
                                                 13593B 13596M 13597M 13597B 13652M 13653M 13653B 13669M 13670M 13670B
                                                 13677M 13678M 13678B 13704M 13707B 13740  13832M 13833M 13833B 13836M
                                                 13837M 13837B 13892M 13893M 13893B 13896M 13897M 13897B 14044M 14045M
                                                 14045B 14069M 14070M 14070B 14122M 14123M 14123B 14147M 14148M 14148B
                                                 14192M 14193M 14193B 14263M 14264M 14264B 14316M 14319B 14398  14447M
                                                 14450B 14536  14600M 14601M 14601B 14667M 14668M 14668B 14692M 14693M
                                                 14693B 14706M 14707M 14707B 14740M 14741M 14741B 14776M 14777M 14777B
                                                 14915M 14916M 14916B 14985M 14986M 14986B 15006M 15007M 15007B 15038M
                                                 15039M 15039B 15056M 15057M 15057B 15084M 15085M 15085B 15115M 15116M
                                                 15116B 15136M 15137M 15137B 15168M 15169M 15169B 15186M 15187M 15187B
                                                 15214M 15215M 15215B 15248M 15249M 15249B 15276M 15277M 15277B 15320M
                                                 15321M 15321B 15407M 15408M 15408B 15616M 15617M 15617B 15703M 15704M
                                                 15704B 15739M 15740M 15740B 15815M 15816M 15816B 15849M 15852B 15973
                                                 16025M 16028B 16040  16093M 16096B 16108  16160M 16163B 16175  16222M
                                                 16223M 16223B 16236M 16237M 16237B 16323M 16326B 16363  16570M 16571M
                                                 16571B 16606M 16609B 16648  16680M 16681M 16681B 16696M 16697M 16697B
                                                 16719M 16720M 16720B 16733M 16734M 16734B 16737M 16738M 16738B 16741M
                                                 16742M 16742B 16763M 16764M 16764B 16768M 16769M 16769B 16786M 16787M
                                                 16787B 16821M 16822M 16822B 16849M 16850M 16850B 16880M 16881M 16881B
                                                 16885M 16886M 16886B 16903M 16904M 16904B 16938M 16939M 16939B 16966M
                                                 16967M 16967B 16996M 16997M 16997B 17050M 17051M 17051B 17128M 17129M
                                                 17129B 17139M 17140M 17140B 17182M 17183M 17183B 17205M 17208B 17476
                                                 17544M 17547B 17559  17606M 17607M 17607B 17614M 17615M 17615B 17632M
                                                 17635B 17654  17721M 17722M 17722B 17742M 17743M 17743B 17758M 17759M
                                                 17759B 17774M 17775M 17775B 17804M 17805M 17805B 17818M 17819M 17819B
1NFILE    (NFIL2025) (12:49) (15MAR04) Ordinary Symbol and Literal Cross Reference                                          Page  133
                                                 17822M 17823M 17823B 17826M 17827M 17827B 17905M 17906M 17906B 17959M
                                                 17960M 17960B 17970M 17971M 17971B 18017M 18018M 18018B 18042M 18043M
                                                 18043B 18070M 18071M 18071B 18078M 18079M 18079B 18107M 18108M 18108B
                                                 18156M 18157M 18157B 18179M 18182B 18591  18688M 18689M 18689B 18704M
                                                 18705M 18705B 18743M 18744M 18744B 18790M 18791M 18791B 18808M 18809M
                                                 18809B 18812M 18813M 18813B 18816M 18817M 18817B 18920M 18921M 18921B
                                                 18956M 18959B 19128  19182M 19183M 19183B 19233M 19236B 19259  19292M
                                                 19293M 19293B 19318M 19319M 19319B 19332M 19333M 19333B 19397M 19398M
                                                 19398B 19499M 19502B 19538  19571M 19572M 19572B 19604M 19605M 19605B
                                                 19759M 19760M 19760B 19783M 19786B 19834  19884M 19885M 19885B 19898M
                                                 19899M 19899B 19916M 19919B 19966  20016M 20017M 20017B 20030M 20031M
                                                 20031B 20048M 20051B 20129  20161M 20162M 20162B 20181M 20184B 20198
                                                 20230M 20231M 20231B 20250M 20253B 20266  20298M 20299M 20299B 20318M
                                                 20321B 20335  20367M 20368M 20368B 20387M 20390B 20404  20436M 20437M
                                                 20437B 20456M 20459B 21379  21440M 21443B 21463  21495M 21496M 21496B
                                                 21515M 21518B 21535  21596M 21599B 21619  21680M 21683B 21703  21764M
                                                 21767B 21791  21883M 21884M 21884B 21957M 21960B 22006  22111M 22112M
                                                 22112B 22194M 22195M 22195B 22272M 22273M 22273B 22396M 22397M 22397B
                                                 22408M 22409M 22409B 22476M 22479B 22503  22565M 22566M 22566B 22700M
                                                 22701M 22701B 22751M 22752M 22752B 22799M 22802B 22826  22888M 22889M
                                                 22889B 22994M 22995M 22995B 23105M 23106M 23106B 23150M 23151M 23151B
                                                 23162M 23163M 23163B 23210M 23213B 23299  23372M 23373M 23373B 23394M
                                                 23395M 23395B 23416M 23417M 23417B 23533M 23534M 23534B 23560M 23561M
                                                 23561B 23668M 23669M 23669B 23721M 23722M 23722B 23739M 23740M 23740B
                                                 23776M 23779B 23820  24002M 24005B 24038  24164M 24165M 24165B 24178M
                                                 24179M 24179B 24282M 24285B 24802  24838M 24839M 24839B 24912M 24915B
                                                 24928  24964M 24965M 24965B 25031M 25034B 25046  25098M 25101B 25113
                                                 25159M 25162B 25179  25242M 25243M 25243B 25301M 25304B 25336  25433M
                                                 25434M 25434B 25447M 25448M 25448B 25761M 25764B 25809  25873M 25874M
                                                 25874B 25991M 25994B 26066  26099M 26100M 26100B 26496M 26499B 26577
                                                 26820M 26821M 26821B 26923M 26924M 26924B 26937M 26938M 26938B 26943M
                                                 26944M 26944B 26948M 26949M 26949B 26978M 26981B 27212  27263M 27266B
                                                 27311  27343M 27344M 27344B 27361M 27364B 27389  27421M 27422M 27422B
                                                 27441M 27444B 27467  27500M 27501M 27501B 27518M 27521B 27546  27579M
                                                 27580M 27580B 27597M 27600B 27659  27829M 27830M 27830B 27843M 27844M
                                                 27844B 27849M 27850M 27850B 27872M 27875B 27952  28004M 28007B 28020
                                                 28071M 28074B 28087  28138M 28141B 28154  28205M 28208B 28221  28272M
                                                 28275B 28288  28339M 28342B 28369  28433M 28434M 28434B 28469M 28470M
                                                 28470B 28504M 28505M 28505B 28551M 28552M 28552B 28598M 28599M 28599B
                                                 28645M 28646M 28646B 28692M 28693M 28693B 28725M 28726M 28726B 28778M
                                                 28779M 28779B 28811M 28812M 28812B 28844M 28847B 28872  28921M 28922M
                                                 28922B 28935M 28936M 28936B 29009M 29010M 29010B 29036M 29039B 29055
                                                 29086M 29087M 29087B 29122M 29123M 29123B 29167M 29168M 29168B 29190M
                                                 29193B 29259  29392M 29393M 29393B 29460M 29461M 29461B 29493M 29494M
                                                 29494B 29526M 29527M 29527B 29559M 29560M 29560B 29582M 29585B 29606
                                                 29637M 29638M 29638B 29659M 29662B
 RDRNG         1 00000000 00000011     T    8827  8827  11503  14343
 RENNOSET      2 0000202C 00000001     H   16034 15946
 RENSET        2 00002000 00000001     H   15967 15931
 REPOPEN       2 00000C5A 00000001     H   10252  8820
 RESAVE        2 00000026 00000001     H    6916  6912
 RETFNAME      1 00000000 00000038     T   17231 17231
 RLOOKUP       1 00000000 00000047     T   23230 23230
 RNAMEPRT      4 00001EE8 00000001     F   15859 17220
 RNAMETO       2 0000208C 00000001     H   16169 15886
 RNCMD       235 00000004 FFFFFFE0     C   14504 14651M
 RNCMDL        4 00000000 FFFFFFE0     F   14503 14624M
 RNMISS        2 00002058 00000001     H   16102 15871
 RNNEW       128 000000F4 FFFFFFE0     C   14506 14901  15471  15584  16291M
1NFILE    (NFIL2025) (12:49) (15MAR04) Ordinary Symbol and Literal Cross Reference                                          Page  134
 RNNEWL        4 000000F0 FFFFFFE0     F   14505 14719M 14719  14873  15470  15556  16264M
 RNOLD       128 000001FC FFFFFFE0     C   14510 14806M 15350M
 RNOLDL        4 000001F8 FFFFFFE0     F   14509 14779M 15323M
 RNRNEW      128 00000178 FFFFFFE0     C   14508 14945M 14981  15068  15111  15198  15646M 15801
 RNRNEWL       4 00000174 FFFFFFE0     F   14507 14918M 14982  15073  15112  15203  15619M 15773
 RNROLD      128 00000280 FFFFFFE0     C   14512 14846M 14980  15022  15110  15152  15390M 15403  15686
 RNROLDL       4 0000027C FFFFFFE0     F   14511 14819M 14979  15027  15109  15157  15363M 15404  15420  15658
 RNWA        768 00000000 FFFFFFE0     J   14519 14542  14571U 14575  14586U 14594M 14594  14595M 14595  14596M 14596
                                                 15847  15849  15850
 RSAVERTN      2 00000AC6 00000001     H    9766 11502
 RTRIM         1 00000000 00000031     T   14362 14362
 R0            0 00000000 FFFFFFFF A   #     699  2128   2197M  7130   7130   7186   7187   7187   7187   7193M  7202
                                                  7226M  7270M  7271   7328M  7329   7341   7368M  7369   7376M  7429M
                                                  7429   7438   7484M  7484   7495M  7499   7554M  7554   7563   7564
                                                  7663M  7695M  7735M  7763M  7783M  7783   7935M  7935   8018M  8018
                                                  8102M  8102   8184M  8184   8292M  8327M  8516M  8536M  8588M  8616M
                                                  8665M  8701M  8729M  8834   8834   8834   9181M  9812   9829M  9843M
                                                  9844M  9997M 10076M 10109M 10162M 10195M 10302M 10615M 10629  10708M
                                                 10708  10953M 10967  11046M 11046  11191M 11219M 11235M 11256M 11400M
                                                 11421M 11683M 11683  11692  11693  11760M 11789M 11913M 11935M 11974M
                                                 12086M 12086  12104M 12388  12449  12782M 12860M 12975  12976  12976
                                                 12976  13051  13098M 13123M 13123  13176M 13201M 13201  13236M 13450
                                                 13474M 13484  13495M 13537M 13641M 13659M 13666M 13671M 13674M 13910
                                                 13911  13911  13911  13986  14033M 14058M 14058  14111M 14136M 14136
                                                 14171M 14369  14369  14369  14618M 14623  14677M 14677  14686  14687
                                                 14730M 14979M 15027M 15045M 15073M 15109M 15157M 15175M 15203M 15237M
                                                 15265M 15404M 15420  15431  15489  15493M 15498  15502  15728M 15728
                                                 16142M 16210M 16210  16219  16246M 16246  16257M 16263  16473M 16487
                                                 16566M 16566  16704M 16704  16713  16714  16775M 16810M 16838M 16892M
                                                 16927M 16955M 17047M 17117M 17117  17789M 17789  17798  17799  17849M
                                                 17895M 17948M 17948  18006M 18006  18031M 18059M 18075M 18096M 18728M
                                                 18728  18737  18738  18775M 18775  18784  18785  18865M 18875M 18875
                                                 18892M 18913M 18913B 19179M 19306M 19306  19315  19357M 19357  19403
                                                 19404  19465M 19465  19476M 19592M 19592  19601  19666M 19666  19672
                                                 19673  19734M 19734  19754M 19869M 19869  19878  19879  20001M 20001
                                                 20010  20011  20164  20164M 20233  20233M 20301  20301M 20370  20370M
                                                 20439  20439M 21846  21878M 21891  22047  22074  22106M 22119  22180M
                                                 22180  22189  22190  22191  22228M 22228  22235  22267M 22280  22363M
                                                 22363  22379M 22403M 22553M 22553  22562  22603M 22603  22617  22623
                                                 22624  22675  22695M 22726M 22726  22746M 22876M 22876  22885  22932
                                                 22951  22952  23080M 23080  23100M 23157M 23710M 23728M 23747M 23873M
                                                 23890  23916M 23917  23918  24134M 24138  24149M 24149  24158  24159
                                                 25213M 25234  25259  25259M 25404M 25408  25419M 25419  25428  25429
                                                 25430  25467  25537  25572  25607  25627M 25628M 25629  25630  25668
                                                 25688M 25689M 25690  25691  26647M 26648  26687  26716M 26717  26773M
                                                 26774  26809M 26813  26852M 26853  26893M 26897  26908M 26908  26917
                                                 26918  27424  27424M 27496M 27575M 27761M 27772  27814M 27814  27823
                                                 27824  27986M 28458M 28493M 28540M 28587M 28634M 28681M 28714M 28767M
                                                 28800M 28907M 28907  28916  28917  28918  28959M 28959  28984M 28984
                                                 29006M 29111M 29156M
 R1            1 00000001 FFFFFFFF A   #     712  2191M  2192M  2198M  7186   7187   7187   7187   7192M  7225M  7376M
                                                  7425M  7438   7494M  7498   7550M  7563   7564   7566   7659M  7694M
                                                  7734M  7758M  8293M  8328M  8515M  8535M  8587M  8611M  8664M  8700M
                                                  8724M  8834   8834   8834   9180M  9813   9828M  9842M  9990M  9991
                                                  9996M 10010M 10075M 10110M 10123M 10161M 10196M 10301M 10610M 10709M
                                                 10948M 11047M 11190M 11214M 11234M 11255M 11399M 11420M 11679M 11692
                                                 11693  11695  11759M 11788M 11914M 11936M 11975M 12082M 12103M 12781M
                                                 12859M 12975  12976  12976  12976  13097M 13175M 13236M 13449  13473M
                                                 13494M 13536M 13640M 13658M 13665M 13672M 13673M 13673  13910  13911
1NFILE    (NFIL2025) (12:49) (15MAR04) Ordinary Symbol and Literal Cross Reference                                          Page  135
                                                 13911  13911  14032M 14110M 14171M 14369  14369  14369  14617M 14673M
                                                 14686  14687  14689  14729M 14980M 15022M 15044M 15068M 15110M 15152M
                                                 15174M 15198M 15236M 15260M 15403M 15471M 16141M 16206M 16219  16256M
                                                 16468M 16567M 16700M 16713  16714  16716  16774M 16809M 16833M 16891M
                                                 16926M 16950M 17046M 17718M 17718  17785M 17798  17799  17801  17848M
                                                 17894M 18030M 18054M 18074M 18095M 18724M 18737  18738  18740  18771M
                                                 18784  18785  18787  18864M 19184  19186  19302M 19315  19475M 19588M
                                                 19601  19753M 19865M 19878  19879  19881  19997M 20010  20011  20013
                                                 20158M 20227M 20295M 20364M 20433M 21877M 22046  22105M 22176M 22189
                                                 22190  22191  22266M 22378M 22402M 22549M 22562  22694M 22745M 22872M
                                                 22885  23099M 23156M 23501M 23530M 23709M 23727M 23746M 23868M 24129M
                                                 24137  24145M 24158  24159  24161  25212M 25220M 25221M 25221  25259
                                                 25399M 25407  25415M 25428  25429  25430  25451M 25452M 25452  25870M
                                                 26218M 26219  26245M 26246  26250M 26259M 26259  26266  26309M 26310
                                                 26314M 26323M 26323  26330  26373M 26390  26435  26642M 26711M 26804M
                                                 26812  26851M 26854  26888M 26896  26904M 26917  26918  26920  27762M
                                                 27772  27810M 27823  27824  27826  27846M 27985M 28430M 28457M 28492M
                                                 28539M 28586M 28633M 28680M 28713M 28766M 28799M 28903M 28916  28917
                                                 28918  29001M 29110M 29149M 29374M
 R12          12 0000000C FFFFFFFF A   #     855  2154
 R13          13 0000000D FFFFFFFF A   #     868  7420   7433   7434   7435   7448   7449   7450   7558   7559   7560
                                                  7576   7577   7578  11687  11688  11689  11705  11706  11707  14681
                                                 14682  14683  14699  14700  14701  16214  16215  16216  16229  16230
                                                 16231  16708  16709  16710  16726  16727  16728  17793  17794  17795
                                                 17811  17812  17813  18732  18733  18734  18750  18751  18752  18779
                                                 18780  18781  18797  18798  18799  19310  19311  19312  19325  19326
                                                 19327  19596  19597  19598  19611  19612  19613  19873  19874  19875
                                                 19891  19892  19893  20005  20006  20007  20023  20024  20025  22184
                                                 22185  22186  22201  22202  22203  22557  22558  22559  22572  22573
                                                 22574  22880  22881  22882  22895  22896  22897  23331  24107  24153
                                                 24154  24155  24171  24172  24173  25377  25423  25424  25425  25440
                                                 25441  25442  26619  26912  26913  26914  26930  26931  26932  27818
                                                 27819  27820  27836  27837  27838  28911  28912  28913  28928  28929
                                                 28930
 R14          14 0000000E FFFFFFFF A   #     881  2129M  7191M  7192   7193   7197M  7197   7419M  7420   7432M  7433
                                                  7434   7435   7445M  7448   7449   7450   7459M  7462   7497M  7498
                                                  7499   7503M  7503   7557M  7558   7559   7560   7565M  7566   7573M
                                                  7576   7577   7578   7826M  7831M  7831  10090M 10095M 10095  10176M
                                                 10181M 10181  11686M 11687  11688  11689  11694M 11695  11702M 11705
                                                 11706  11707  11853M 11858M 11858  14616M 14617  14618  14622M 14622
                                                 14680M 14681  14682  14683  14688M 14689  14696M 14699  14700  14701
                                                 16213M 16214  16215  16216  16226M 16229  16230  16231  16707M 16708
                                                 16709  16710  16715M 16716  16723M 16726  16727  16728  17792M 17793
                                                 17794  17795  17800M 17801  17808M 17811  17812  17813  18731M 18732
                                                 18733  18734  18739M 18740  18747M 18750  18751  18752  18778M 18779
                                                 18780  18781  18786M 18787  18794M 18797  18798  18799  19309M 19310
                                                 19311  19312  19322M 19325  19326  19327  19595M 19596  19597  19598
                                                 19608M 19611  19612  19613  19743M 19744  19744  19748M 19748  19872M
                                                 19873  19874  19875  19880M 19881  19888M 19891  19892  19893  20004M
                                                 20005  20006  20007  20012M 20013  20020M 20023  20024  20025  21867M
                                                 21868  21868  21872M 21872  22095M 22096  22096  22100M 22100  22183M
                                                 22184  22185  22186  22198M 22201  22202  22203  22256M 22257  22257
                                                 22261M 22261  22372M 22373  22373  22377M 22377  22556M 22557  22558
                                                 22559  22569M 22572  22573  22574  22684M 22685  22685  22689M 22689
                                                 22735M 22736  22736  22740M 22740  22879M 22880  22881  22882  22892M
                                                 22895  22896  22897  23089M 23090  23090  23094M 23094  23128M 23129
                                                 23129  23133M 23133  23330M 23331  23756M 23759  24106M 24107  24113M
                                                 24118M 24118  24136M 24137  24138  24142M 24142  24152M 24153  24154
                                                 24155  24160M 24161  24168M 24171  24172  24173  24262M 24265  25211M
1NFILE    (NFIL2025) (12:49) (15MAR04) Ordinary Symbol and Literal Cross Reference                                          Page  136
                                                 25212  25213  25217M 25217  25376M 25377  25383M 25388M 25388  25406M
                                                 25407  25408  25412M 25412  25422M 25423  25424  25425  25437M 25440
                                                 25441  25442  26618M 26619  26788M 26793M 26793  26811M 26812  26813
                                                 26817M 26817  26872M 26877M 26877  26895M 26896  26897  26901M 26901
                                                 26911M 26912  26913  26914  26919M 26920  26927M 26930  26931  26932
                                                 26953M 26956  27817M 27818  27819  27820  27825M 27826  27833M 27836
                                                 27837  27838  28910M 28911  28912  28913  28925M 28928  28929  28930
 R15          15 0000000F FFFFFFFF A   #     894  2128   7008M  7008   7451M  7451   7473M  7473   7579M  7579   7703M
                                                  7743M  7771M  7870M  7870   7943M  8026M  8110M  8192M  8560M  8596M
                                                  8624M  8673M  8709M  8737M  8775M  8775   9200M  9200   9219M  9219
                                                  9292M  9292   9358M  9358   9430M  9430   9496M  9496   9563M  9563
                                                  9631M  9631   9724M  9724   9827M  9879M  9879  10014M 10014  10032
                                                 10124M 10136M 10229M 10229  10340M 10340  10440M 10440  10717M 10717
                                                 10750M 10750  11055M 11055  11094M 11094  11199M 11227M 11264M 11311M
                                                 11311  11429M 11476M 11476  11708M 11708  11823M 11823  11994M 11994
                                                 12027M 12027  12094M 12140M 12140  12407M 12407  12468M 12468  12534M
                                                 12534  12600M 12600  12667M 12667  12735M 12735  12790M 12813M 12813
                                                 12868M 12891M 12891  13106M 13131M 13184M 13209M 13325M 13383M 13383
                                                 13649M 13706M 13706  14041M 14066M 14119M 14144M 14260M 14318M 14318
                                                 14430M 14430  14449M 14449  14702M 14702  15035M 15053M 15081M 15165M
                                                 15183M 15211M 15245M 15273M 15736M 15851M 15851  16027M 16027  16095M
                                                 16095  16162M 16162  16232M 16232  16306M 16306  16325M 16325  16575M
                                                 16575  16608M 16608  16729M 16729  16783M 16818M 16846M 16900M 16935M
                                                 16963M 17125M 17207M 17207  17546M 17546  17634M 17634  17814M 17814
                                                 17956M 18014M 18039M 18067M 18104M 18181M 18181  18753M 18753  18800M
                                                 18800  18958M 18958  19235M 19235  19328M 19328  19346M 19346  19427M
                                                 19427  19454M 19454  19501M 19501  19614M 19614  19625M 19625  19655M
                                                 19655  19696M 19696  19723M 19723  19761M 19785M 19785  19894M 19894
                                                 19918M 19918  20026M 20026  20050M 20050  20183M 20183  20252M 20252
                                                 20320M 20320  20389M 20389  20458M 20458  21442M 21442  21517M 21517
                                                 21598M 21598  21682M 21682  21766M 21766  21885M 21937M 21937  21959M
                                                 21959  22113M 22204M 22204  22217M 22217  22274M 22325M 22325  22352M
                                                 22352  22410M 22436M 22436  22451M 22451  22478M 22478  22575M 22575
                                                 22586M 22586  22647M 22647  22702M 22753M 22801M 22801  22898M 22898
                                                 22909M 22909  23007  23034  23057M 23057  23107M 23164M 23212M 23212
                                                 23573  23600  23718M 23736M 23778M 23778  23960M 23960  23980M 24004M
                                                 24004  24096M 24174M 24174  24195  24204M 24204  24229  24235M 24284M
                                                 24284  24851  24878  24895M 24914M 24914  24977  25010M 25033M 25033
                                                 25081M 25100M 25100  25142M 25161M 25161  25252M 25252  25279M 25303M
                                                 25303  25443M 25443  25720M 25734M 25734  25763M 25763  25960M 25965M
                                                 25993M 25993  26498M 26498  26933M 26933  26980M 26980  27265M 27265
                                                 27363M 27363  27443M 27443  27520M 27520  27599M 27599  27839M 27839
                                                 27874M 27874  28006M 28006  28073M 28073  28140M 28140  28207M 28207
                                                 28274M 28274  28341M 28341  28466M 28501M 28548M 28595M 28642M 28689M
                                                 28722M 28775M 28808M 28846M 28846  28931M 28931  28945M 28945  28992M
                                                 29038M 29038  29119M 29164M 29192M 29192  29584M 29584  29642M 29642
                                                 29661M 29661
 R2            2 00000002 FFFFFFFF A   #     725  7611M  7612   7616M  7625M  7625   7632   7879M  7880M  7881   7893
                                                  9700M  9835M  9839M  9848M  9849M  9850  10001M 10002M 10003  10080M
                                                 10081M 10082  10166M 10167M 10168  12076M 12082  12969M 12970M 12971
                                                 13040M 13293M 13307  13319  13336M 13346  13449M 13665  13672  13777M
                                                 13778M 13779  13789M 13791M 13803  13809  13975M 14228M 14242  14254
                                                 14271M 14281  14623M 14624  14628M 14637M 14637  14644  14778M 14779
                                                 14783M 14792M 14792  14799  14818M 14819  14823M 14832M 14832  14839
                                                 14873M 14874  14878M 14887M 14887  14894  14917M 14918  14922M 14931M
                                                 14931  14938  14981M 15111M 15322M 15323  15327M 15336M 15336  15343
                                                 15362M 15363  15367M 15376M 15376  15383  15431M 15435M 15444M 15444
                                                 15451  15470M 15499  15506M 15515M 15515  15522  15556M 15557  15561M
                                                 15570M 15570  15577  15618M 15619  15623M 15632M 15632  15639  15658M
1NFILE    (NFIL2025) (12:49) (15MAR04) Ordinary Symbol and Literal Cross Reference                                          Page  137
                                                 15659  15663M 15672M 15672  15679  15773M 15774  15778M 15787M 15787
                                                 15794  16263M 16264  16268M 16277M 16277  16284  19198M 19204M 19756M
                                                 21880M 22108M 22269M 22393M 22405M 22697M 22748M 22917M 22918M 22918
                                                 23102M 23147M 23159M 23918M 23922M 23931M 23931  23938  26135M 26156M
                                                 26182M 26204M 26213M 26219M 26220  26374M 26376M 26390  26426M 26434M
                                                 26435M 26436  26440M 26449M 26449  26456  26648M 26652M 26661M 26661
                                                 26668  26717M 26738M 26747M 26747  26754  26826M 26830M 26856M 26860M
                                                 27340M 27418M 27497M 27576M
 R3            3 00000003 FFFFFFFF A   #     738  7202M  7214   7235M  7244M  7244   7251   7327M  7329M  9836M  9838
                                                 13041M 13051  13059M 13061  13266M 13285M 13286M 13319  13346  13450M
                                                 13484  13501  13630  13671  13976M 13986  13994M 13996  14201M 14220M
                                                 14221M 14254  14281  14982M 15112M 15488M 15489M 15490  15498M 15499M
                                                 15500  15501M 15502M 19199M 19404M 19407M 19409  19673M 19676M 19678
                                                 21840M 21841M 21842  21891M 21897M 21906M 21906  21913  22068M 22069M
                                                 22070  22119M 22125M 22134M 22134  22141  22169M 22170M 22171  22280M
                                                 22286M 22295M 22295  22302  22624M 22627M 22629  22952M 22955M 22957
                                                 25630M 25633M 25635  25691M 25694M 25696  26824M 26825  26827M 26829
                                                 26853M 26855  26857M 26859  26861M 26862M 26863M 26864
 R4            4 00000004 FFFFFFFF A   #     751  9837M  9839M 10578M 10586U 10916M 10924U 13501M 13504M 13506  16440M
                                                 16448U 19204M 21834M 21835M 21892M 21893M 22062M 22063M 22120M 22121M
                                                 22163M 22164M 22281M 22282M 26828M 26830M 26854M 26856M 26858M 26860M
 R5            5 00000005 FFFFFFFF A   #     764  6956M  6964U  7170M  7178U  9838M 11644M 11652U 14602M 14610U 19203M
                                                 19203  21845M 21846M 21858  21932  22073M 22074M 22086  22160  22234M
                                                 22235M 22247  22321  26829M 26855M 26859M
 R6            6 00000006 FFFFFFFF A   #     777  7146M  7154U  7156   9815M  9823U  9986U 10287M 10295U 10397M 10405U
                                                 10543M 10551U 10860M 10868U 11159M 11167U 11370M 11378U 11621M 11629U
                                                 11631  12954M 12962U 13444M 13769M 14575M 14586U 16402M 16413U 16682M
                                                 16690U 17505M 17513U 17760M 17768U 18690M 18698U 19186M 19194U 19294M
                                                 19573M 19581U 21408M 21416U 21564M 21572U 21648M 21656U 21732M 21740U
                                                 21822M 21830U 22050M 22058U 22534M 22542U 22857M 22865U 23335M 23343U
                                                 23856U 24074U 25372U 25849M 25857U 26101M 26109U 26622M 26630U 27787M
                                                 27795U 28408M 28416U 29289M 29298M 29298  29318U
 R7            7 00000007 FFFFFFFF A   #     790  2121M  2121   2122B  2134B
 R8            8 00000008 FFFFFFFF A   #     803  7115U  9808U  9967U 10539U 10856U 11616U 14571U 16398U 22041U 25844U
                                                 26612U 27694U 28404U
 SAMDISK       2 00004CB4 00000001     H   25040 24308  24323  24338  24353  24368  24383  24398  24413  24428  24443
                                                 24458  24473  24488  24503  24518  24533  24548  24563  24578  24593
                                                 24608  24623  24638  24653  24668  24683  24698  24713
 SAMREN        1 00000000 00000036     T   17225 17225
 SAMRESLV      1 00000000 00000053     T   29681 29681
 SAMSCR        1 00000000 0000003A     T   17240 17240
 SAVE          2 0000006A 00000001     H    7073  7069   8795
 SAVEDATA      1 00000000 0000004C     T   27610 27610
 SAVEPRT       4 0000066C 00000001     F    8852  8808
 SAVERTN       2 00000A94 00000001     H    9662  8826
 SAVRECOV      2 00000B3A 00000001     H    9925  8824
 SCAN          1 00000000 0000003E     T   18194 18194
 SCANCHK       1 00000000 00000005     T    8805  8805  14335  17222  18201  18972  19807  20093  26028  27282  29206
 SCNEXFR       1 00000000 00000007     T    8807  8807
 SCNINVAL      1 00000000 00000045     T   19950 19950  20082
 SCNNOOP       1 00000000 00000018     T    8894  8894  27005  27020  27035  27050  27065  27080  27095  27110  27125
                                                 27140  27170
 SCRATCH       2 000021C6 00000001     H   16642 16638
 SCREXPDT      2 000026F4 00000001     H   17553 17344
 SCRPDS        2 000026C4 00000001     H   17470 17329
 SCRPRT        4 000024BC 00000001     F   17272 17239
 SCRSET        2 00002376 00000001     H   17164 16855B 16972B
 SCRTOK        4 00002314 00000001     I   16996 17065B 17141B
 SCSEG         1 00000000 00000044     T   19809 19809  23238
1NFILE    (NFIL2025) (12:49) (15MAR04) Ordinary Symbol and Literal Cross Reference                                          Page  138
 SCUPCASE      1 00000000 0000004E     T   29213 29213
 SDSNQSZ       1 0000002C FFFFFFEC A   U    6109  6110   6111
 SEG           1 00000000 0000000B     T    8812  8812  11511  14358  17227  18210  26022  29210
 SEGCBCOD      1 00000000 FFFFFFE7     R    6807  6816   6826   6836   6846   6856   6866   6876
 SEGCR         1 00000000 0000002C     T   14349 14349  26023
 SEGDC         1 00000000 0000002B     T   14348 14348
 SEGDSN        1 00000000 0000000C     T    8813  8813  17241
 SEGT          1 00000000 0000003B     T   17242 17242
 SEGWR         1 00000000 00000010     T    8819  8819  14351  17234  18208
 SETALLOW      2 000056FA 00000001     H   27785 27715B 27735B 27755B
 SETDHOST      2 000055B4 00000001     H   27305 27301
 SETDTYPE      2 0000561C 00000001     H   27461 27457  29207
 SETFDEF       2 000056B0 00000001     H   27652 27648
 SETFPAT       2 00005A80 00000001     H   28866 28862
 SETPFXNS      1 00000000 00000013     T    8830  8830  17226  18212
 SETVINFO      1 00000000 00000032     T   14363 14363
 SFDINFO     928 00000000 FFFFFFDC     X   27635 27787  28408
 SFDNULL       2 00005828 00000001     H   27946 27891
 SFDOLD        2 0000590C 00000001     H   28282 27924
 SFDPRT        4 00005788 00000001     F   27879 29204
 SFDWA       928 00000000 FFFFFFDC     J   27642 27665  27694U 27870  27872  27873  28375  28404U 28842  28844  28845
 SFDWINGS      2 0000585C 00000001     H   28014 27906
 SHOWFDEF      2 00005938 00000001     H   28362 28358
 SHOWFPAT      2 00005B2A 00000001     H   29049 29045
 SMSPRT        4 00003D90 00000001     F   21307 23234
 SMSPSH        2 000034C2 00000001     H   20398 20394
 SMSPSH        1 00000000 0000001D     T    9104  9104  18545
 SPR          13 0000000D 00000001 A   #    1142  6922   6925   6926   6927M  6927   7000M  7004   7006   7080   7083
                                                  7085   7086M  7086   8767M  8771   8773   9132   9135   9136   9137M
                                                  9137   9211M  9215   9217   9232   9235   9236   9237M  9237   9284M
                                                  9288   9290   9305   9308   9309   9310M  9310   9350M  9354   9356
                                                  9371   9374   9375   9376M  9376   9422M  9426   9428   9443   9446
                                                  9447   9448M  9448   9488M  9492   9494   9509   9512   9513   9514M
                                                  9514   9555M  9559   9561   9576   9579   9580   9581M  9581   9623M
                                                  9627   9629   9668   9671   9672   9673M  9673   9716M  9720   9722
                                                  9773   9776   9778   9779M  9779   9871M  9875   9877   9932   9935
                                                  9937   9938M  9938  10221M 10225  10227  10258  10261  10262  10263M
                                                 10263  10332M 10336  10338  10368  10371  10372  10373M 10373  10432M
                                                 10436  10438  10504  10507  10509  10510M 10510  10742M 10746  10748
                                                 10821  10824  10826  10827M 10827  11086M 11090  11092  11130  11133
                                                 11134  11135M 11135  11303M 11307  11309  11341  11344  11345  11346M
                                                 11346  11468M 11472  11474  11581  11584  11586  11587M 11587  12132M
                                                 12136  12138  12359  12362  12363  12364M 12364  12399M 12403  12405
                                                 12420  12423  12424  12425M 12425  12460M 12464  12466  12481  12484
                                                 12485  12486M 12486  12526M 12530  12532  12547  12550  12551  12552M
                                                 12552  12592M 12596  12598  12613  12616  12617  12618M 12618  12659M
                                                 12663  12665  12680  12683  12684  12685M 12685  12727M 12731  12733
                                                 12748  12751  12752  12753M 12753  12805M 12809  12811  12826  12829
                                                 12830  12831M 12831  12883M 12887  12889  12925  12928  12929  12930M
                                                 12930  13375M 13379  13381  13415  13418  13419  13420M 13420  13698M
                                                 13702  13704  13740  13743  13744  13745M 13745  14310M 14314  14316
                                                 14398  14401  14402  14403M 14403  14441M 14445  14447  14536  14539
                                                 14541  14542M 14542  15843M 15847  15849  15973  15976  15977  15978M
                                                 15978  16019M 16023  16025  16040  16043  16044  16045M 16045  16087M
                                                 16091  16093  16108  16111  16112  16113M 16113  16154M 16158  16160
                                                 16175  16178  16179  16180M 16180  16317M 16321  16323  16363  16366
                                                 16368  16369M 16369  16600M 16604  16606  16648  16651  16652  16653M
                                                 16653  17199M 17203  17205  17476  17479  17480  17481M 17481  17538M
                                                 17542  17544  17559  17562  17563  17564M 17564  17626M 17630  17632
1NFILE    (NFIL2025) (12:49) (15MAR04) Ordinary Symbol and Literal Cross Reference                                          Page  139
                                                 17654  17657  17658  17659M 17659  18173M 18177  18179  18591  18594
                                                 18595  18596M 18596  18950M 18954  18956  19128  19131  19132  19133M
                                                 19133  19227M 19231  19233  19259  19262  19263  19264M 19264  19493M
                                                 19497  19499  19538  19541  19542  19543M 19543  19777M 19781  19783
                                                 19834  19837  19838  19839M 19839  19910M 19914  19916  19966  19969
                                                 19970  19971M 19971  20042M 20046  20048  20129  20132  20133  20134M
                                                 20134  20175M 20179  20181  20198  20201  20202  20203M 20203  20244M
                                                 20248  20250  20266  20269  20270  20271M 20271  20312M 20316  20318
                                                 20335  20338  20339  20340M 20340  20381M 20385  20387  20404  20407
                                                 20408  20409M 20409  20450M 20454  20456  21379  21382  21383  21384M
                                                 21384  21434M 21438  21440  21463  21466  21467  21468M 21468  21509M
                                                 21513  21515  21535  21538  21539  21540M 21540  21590M 21594  21596
                                                 21619  21622  21623  21624M 21624  21674M 21678  21680  21703  21706
                                                 21707  21708M 21708  21758M 21762  21764  21791  21794  21795  21796M
                                                 21796  21951M 21955  21957  22006  22009  22011  22012M 22012  22470M
                                                 22474  22476  22503  22506  22507  22508M 22508  22793M 22797  22799
                                                 22826  22829  22830  22831M 22831  23204M 23208  23210  23299  23302
                                                 23303  23304M 23304  23770M 23774  23776  23820  23823  23824  23825M
                                                 23825  23996M 24000  24002  24038  24041  24042  24043M 24043  24276M
                                                 24280  24282  24802  24805  24806  24807M 24807  24906M 24910  24912
                                                 24928  24931  24932  24933M 24933  25025M 25029  25031  25046  25049
                                                 25050  25051M 25051  25092M 25096  25098  25113  25116  25117  25118M
                                                 25118  25153M 25157  25159  25179  25182  25183  25184M 25184  25295M
                                                 25299  25301  25336  25339  25340  25341M 25341  25755M 25759  25761
                                                 25809  25812  25814  25815M 25815  25985M 25989  25991  26066  26069
                                                 26070  26071M 26071  26490M 26494  26496  26577  26580  26582  26583M
                                                 26583  26972M 26976  26978  27212  27215  27216  27217M 27217  27257M
                                                 27261  27263  27311  27314  27315  27316M 27316  27355M 27359  27361
                                                 27389  27392  27393  27394M 27394  27435M 27439  27441  27467  27470
                                                 27471  27472M 27472  27512M 27516  27518  27546  27549  27550  27551M
                                                 27551  27591M 27595  27597  27659  27662  27664  27665M 27665  27866M
                                                 27870  27872  27952  27955  27956  27957M 27957  27998M 28002  28004
                                                 28020  28023  28024  28025M 28025  28065M 28069  28071  28087  28090
                                                 28091  28092M 28092  28132M 28136  28138  28154  28157  28158  28159M
                                                 28159  28199M 28203  28205  28221  28224  28225  28226M 28226  28266M
                                                 28270  28272  28288  28291  28292  28293M 28293  28333M 28337  28339
                                                 28369  28372  28374  28375M 28375  28838M 28842  28844  28872  28875
                                                 28876  28877M 28877  29030M 29034  29036  29055  29058  29059  29060M
                                                 29060  29184M 29188  29190  29259  29262  29263  29264M 29264  29576M
                                                 29580  29582  29606  29609  29610  29611M 29611  29653M 29657  29659
 SRLINE      478 00000008 FFFFFFE5     C    9750  9828   9835   9842
 SRR0          4 00000000 FFFFFFE5     F    9748  9812M  9836   9843
 SRR1          4 00000004 FFFFFFE5     F    9749  9813M  9837
 SRWA        486 00000000 FFFFFFE5     J    9757  9779   9808U  9875   9877   9878
 SSNAPPND      2 000009B4 00000001     H    9299  8924
 SSNLINES      2 0000093C 00000001     H    9126  8864   8879
 SSNNCOND      2 00000A10 00000001     H    9437  8984
 SSNNOSET      2 00000A68 00000001     H    9570  9014  17419
 SSNRECOV      2 000009E0 00000001     H    9365  8954   8969
 SSNREPL       2 00000984 00000001     H    9226  8909   8939
 SSNSET        2 00000A3C 00000001     H    9503  8999  17404
 STREAM        2 00005544 00000001     H   27206 27155
 SVCMDBUF    251 00000008 FFFFFFE6     C    7053  7188M  7258M  7287M  7307M  7327   7639
 SVCMDLEN      4 00000004 FFFFFFE6     F    7052  7271M  7328   7369M  7611
 SVFLAG1       1 00000000 FFFFFFE6     R    7040  7044   7049
 SVFLINES    128 00000000 FFFFFFE6         7044  7817   9170   9192M
 SVFRECOV     64 00000000 FFFFFFE6         7049  8249   8449   9411M
 SVLINECT      4 00000104 FFFFFFE6     F    7054  9849   9850M 10002  10003M 10081  10082M 10167  10168M
 SVRCACT       4 00000004 FFFFFFE4     F    9909 10032M 10065  10124
1NFILE    (NFIL2025) (12:49) (15MAR04) Ordinary Symbol and Literal Cross Reference                                          Page  140
 SVROACT       4 00000000 FFFFFFE4     F    9908  9991M 10065  10136
 SVRTRYCT      4 0000010C FFFFFFE6     F    7056  7880   7881M
 SVRWA         8 00000000 FFFFFFE4     J    9916  9938   9967U  9977M  9977  10225  10227  10228
 SVWA        272 00000000 FFFFFFE6     J    7063  7086   7115U  7146   7154U  7163M  7163   7164M  7164   8771   8773
                                                  8774   9823U  9986U
 TRC           1 00000000 00000000 A   T    2150  2150
 TTYFLAG       1 00000004 FFFFFFEA     R    6238  6242
 TTYMAX#       1 00000006 FFFFFFEA A   U    6294  6295
 TTYTFLAG      1 00000005 FFFFFFEA     R    6248  6252   6257   6262   6267   6272   6277   6282
 UFSRESLV      1 00000000 00000052     T   29680 29680
 UNCATPRT      4 00002F70 00000001     F   19025 18969
 UNPRST        1 00000001 FFFFFFEC A   U    6198  8825   8828  11501
 UPPTBL        1 00000000 00000000 A   T    2213  2213
 URTNDONE      2 00001698 00000001     H   13364 13259B
 USE           2 00001036 00000001     H   11574 11570
 USECOUNT      4 00000004 FFFFFFE1     F   11542 11778  12449M 13165  13279  13286  14100  14214  14221
 USEFLAG1      1 0000000C FFFFFFE1     R   11546 11550  11555
 USEFNOCTL
              64 0000000C FFFFFFE1        11555 12581M 13033  13866M 13968
 USEFRECOV
             128 0000000C FFFFFFE1        11550 11731  12515M 13021  13092M 13249  13873M 13956  14027M 14184
 USEMULT       2 000016A6 00000001     H   13409 14352
 USEPRT        4 000011F8 00000001     F   12155 14333
 USERTN        2 0000157C 00000001     H   12919 14342
 USESKIP       4 00000000 FFFFFFE1     F   11541 11749  12052  12070  12388M 13150  13285  13307  14085  14220  14242
 USETCNT       4 00000008 FFFFFFE1     F   11543 12070  12076  12970  12971M 12991  13293  13336  13465  13778  13779M
                                                 13926  14228  14271
 USEWA        13 00000000 FFFFFFE1     J   11564 11587  11616U 11621  11629U 11638M 11638  12136  12138  12139  12962U
 USNCOUNT      2 0000142C 00000001     H   12414 12182
 USNICAT       2 00001508 00000001     H   12742 12227
 USNIDS        2 00001542 00000001     H   12820 12257
 USNOCTL       2 00001484 00000001     H   12541 12242
 USNOSET       2 000014DC 00000001     H   12674 12287
 USNRECOV      2 00001458 00000001     H   12475 12197  12212
 USNSKIP       2 00001400 00000001     H   12353 12167
 USSET         2 000014B0 00000001     H   12607 12272
 VERPSH        1 00000000 0000001A     T    9044  9044  18515
 WAR           8 00000008 00000001 A   #    1065  6926M  7000   7085M  8767   9136M  9211   9236M  9284   9309M  9350
                                                  9375M  9422   9447M  9488   9513M  9555   9580M  9623   9672M  9716
                                                  9778M  9871   9937M 10221  10262M 10332  10372M 10432  10509M 10742
                                                 10826M 11086  11134M 11303  11345M 11468  11586M 12132  12363M 12399
                                                 12424M 12460  12485M 12526  12551M 12592  12617M 12659  12684M 12727
                                                 12752M 12805  12830M 12883  12929M 13375  13419M 13698  13744M 14310
                                                 14402M 14441  14541M 15843  15977M 16019  16044M 16087  16112M 16154
                                                 16179M 16317  16368M 16600  16652M 17199  17480M 17538  17563M 17626
                                                 17658M 18173  18595M 18950  19132M 19227  19263M 19493  19542M 19777
                                                 19838M 19910  19970M 20042  20133M 20164  20175  20202M 20233  20244
                                                 20270M 20301  20312  20339M 20370  20381  20408M 20439  20450  21383M
                                                 21434  21467M 21509  21539M 21590  21623M 21674  21707M 21758  21795M
                                                 21951  22011M 22470  22507M 22793  22830M 23204  23303M 23770  23824M
                                                 23996  24042M 24276  24806M 24906  24932M 25025  25050M 25092  25117M
                                                 25153  25183M 25259  25295  25340M 25755  25814M 25985  26070M 26490
                                                 26582M 26972  27216M 27257  27315M 27355  27393M 27424  27435  27471M
                                                 27512  27550M 27591  27664M 27866  27956M 27998  28024M 28065  28091M
                                                 28132  28158M 28199  28225M 28266  28292M 28333  28374M 28838  28876M
                                                 29030  29059M 29184  29263M 29576  29610M 29653
 WGSALLOC      1 00000000 00000040     T   18207 18207
 WGSCATLG      1 00000000 00000041     T   18977 18977
 WGSCRTCH      1 00000000 0000003D     T   17244 17244
1NFILE    (NFIL2025) (12:49) (15MAR04) Ordinary Symbol and Literal Cross Reference                                          Page  141
 WGSRENAM      1 00000000 00000039     T   17233 17233
 WGSRESLV      1 00000000 00000050     T   29677 29677
 WINGSCAT      2 00004C6E 00000001     H   24922 24728  24743
 WINGSVOL      2 00004C24 00000001     H   24796 24758
 WTOSG         1 00000000 00000000 A   T    2110  2110
 WYLNFILE      1 00000000 00000001     J     990   992   1034   1047   1060   1073   1085   1098   1111   1124   1137
                                                  1150   1163   2394   2478   6218   6330   6555   6560   6791   6897
                                                  6902   7064   7264   7645
 YESREQ        1 00000000 0000000D     T    8815  8815  11504  17245
 YESRTN        1 00000000 00000025     T   11512 11512  18211
 ZAPNET        2 000045AA 00000001     H   23814 23810  26013
 ZAPSAM        2 00004D6E 00000001     H   25330 26015
 ZAPVDONE      2 000046E0 00000001     H   24259 24097B
 ZAPVOL        2 0000460C 00000001     H   24032 26014
 ZVOTHER       2 00004CE4 00000001     H   25107 24773  24788
 =A((DESABORT+DESRTRN+LXCATRTN))
               4 0000197C 00000001     A   14344 11935  11974
 =A((DESRTRN+LEXATRTN+UNPRST))
               4 00000628 00000001     A    8828  8327
 =A((DESRTRN+LOCATRTN+UNPRST))
               4 0000061C 00000001     A    8825  8292
 =A((DESRTRN+LOCATRTN+UNPRST))
               4 00000F58 00000001     A   11501 10109  10195
 =A((DESRTRN+LXCATRTN))
               4 00001970 00000001     A   14341 11913
 =A(ALLOPRT)
               4 0000292C 00000001     A   18199 17800
 =A(CATLGPRT)
               4 00002ED0 00000001     A   18971 18786
 =A(CFMTOPEN)
               4 00000614 00000001     A    8823  8206
 =A(DIFFOPEN)
               4 00000610 00000001     A    8822  8124
 =A(DSNRESLV)
               4 00005D84 00000001     A   29678 29460
 =A(EXPCNAME)
               4 00005598 00000001     A   27284 26948
 =A(FFOPTSPRT)
               4 000033E4 00000001     A   20094 20012
 =A(FIBMTYPE)
               4 000043E4 00000001     A   23244 22994
 =A(FIBMTYPE)
               4 00004F74 00000001     A   26018 23560  24838  24964
 =A(FNAMEKW)
               4 00002914 00000001     A   18193 17614
 =A(FNAMPRT)
               4 00004390 00000001     A   23229 20158
 =A(FNAMPRTF)
               4 00004398 00000001     A   23231 20227
 =A(FNAMPRTS)
               4 0000439C 00000001     A   23232 20295
 =A(FNONPRT)
               4 000043A0 00000001     A   23233 20364
 =A(FOPTSPRT)
               4 000033D8 00000001     A   20091 19880
 =A(FVOLPRT)
               4 00004FAC 00000001     A   26026 24160
 =A(GETDTYPE)
               4 00004F70 00000001     A   26017 23533  25873
1NFILE    (NFIL2025) (12:49) (15MAR04) Ordinary Symbol and Literal Cross Reference                                          Page  142
 =A(GETDTYPE)
               4 00005BB8 00000001     A   29208 28433
 =A(GETPASSW)
               4 00002420 00000001     A   17246 17139
 =A(GETPASSW)
               4 00002974 00000001     A   18209 17970
 =A(L'FFHOST)
               4 000043DC 00000001     A   23242 22617  22675
 =A(L'FFINFO)
               4 000031F0 00000001     A   19803 19179
 =A(L'FFOPTS)
               4 000043AC 00000001     A   23236 21858  22086  22247
 =A(L'LNNUMB)
               4 000019B0 00000001     A   14357 13630
 =A(MKFFINFO)
               4 000005A0 00000001     A    8794  6954   7168
 =A(MKFFINFO)
               4 00001920 00000001     A   14331 11642
 =A(MKFFINFO)
               4 000031F8 00000001     A   19805 19292  19571
 =A(MKFFINFO)
               4 00005168 00000001     A   26517 26099
 =A(NRESOLVE)
               4 00000F6C 00000001     A   11506 10600  10938
 =A(OLDFIN)
               4 00004F80 00000001     A   26021 23668
 =A(OLDFPRT)
               4 00005588 00000001     A   27280 26919
 =A(OLDRTN)
               4 00001980 00000001     A   14345 11975
 =A(PASSOPEN)
               4 0000060C 00000001     A    8821  8040
 =A(REPOPEN)
               4 00000608 00000001     A    8820  7957
 =A(RNAMEPRT)
               4 000023B0 00000001     A   17220 14688
 =A(RSAVERTN)
               4 00000F5C 00000001     A   11502 10110  10196
 =A(SAVE)      4 000005A4 00000001     A    8795  6985
 =A(SAVEPRT)
               4 000005D8 00000001     A    8808  7565
 =A(SAVERTN)
               4 00000620 00000001     A    8826  8293   8328
 =A(SAVRECOV)
               4 00000618 00000001     A    8824  8257
 =A(SCRPRT)
               4 00002404 00000001     A   17239 16715
 =A(SETDTYPE)
               4 00005BB4 00000001     A   29207 27849
 =A(SFDPRT)
               4 00005BA8 00000001     A   29204 27825
 =A(SMSPRT)
               4 000043A4 00000001     A   23234 20433
 =A(UNCATPRT)
               4 00002EC8 00000001     A   18969 18739
 =A(USEMULT)
               4 0000199C 00000001     A   14352 13257  14192
 =A(USEPRT)
               4 00001928 00000001     A   14333 11694
1NFILE    (NFIL2025) (12:49) (15MAR04) Ordinary Symbol and Literal Cross Reference                                          Page  143
 =A(USERTN)
               4 00001974 00000001     A   14342 11914  11936
 =A(X'7FFF')
               4 000019C0 00000001     A   14361 13791
 =A(ZAPNET)
               4 00004F60 00000001     A   26013 23372
 =A(ZAPSAM)
               4 00004F68 00000001     A   26015 23416
 =A(ZAPVOL)
               4 00004F64 00000001     A   26014 23394
 =A(1)         4 000023E8 00000001     A   17232 15493
 =A(1)         4 00004FA8 00000001     A   26025 23890
 =A(1)         4 0000516C 00000001     A   26518 26156  26182  26204  26213  26434
 =A(10)        4 00000600 00000001     A    8818  7893
 =A(10)        4 00004FC8 00000001     A   26033 25572
 =A(11)        4 00000F70 00000001     A   11507 10629  10967
 =A(11)        4 000023F8 00000001     A   17236 16487
 =A(16)        4 000005C0 00000001     A    8802  7341
 =A(2)         4 00004FC0 00000001     A   26031 25467
 =A(235-32)
               4 000005B0 00000001     A    8798  7214
 =A(4)         4 000043E8 00000001     A   23245 23007
 =A(4)         4 00004F78 00000001     A   26019 23573  24195  24851  24977
 =A(5)         4 00004FC4 00000001     A   26032 25537
 =A(6)         4 000043E0 00000001     A   23243 22932
 =A(6)         4 00004FB8 00000001     A   26029 25234
 =A(7)         4 00004FCC 00000001     A   26034 25668  25689
 =A(7)         4 00005578 00000001     A   27276 26773
 =A(8)         4 000005C4 00000001     A    8803  7368
 =A(8)         4 000043EC 00000001     A   23246 23034
 =A(8)         4 00004F7C 00000001     A   26020 23600  24229  24878  25607  25628
 =AL4(L'LNNUMB)
               4 000019BC 00000001     R   14360 13674
 =AL4(1)       4 00001994 00000001     R   14350 12991  13465  13926
 =AL4(1)       4 00004F6C 00000001     R   26016 23481
 =AL4(15)      4 00002964 00000001     R   18205 17870
 =AL4(15)      4 00002EE0 00000001     R   18975 18840
 =C'        '
               8 00005160 00000001     C   26516 26173
 =C' anyway'
               7 0000102E 00000001     C   11520 11234
 =C' anyway'
               7 000029D2 00000001     C   18217 18074
 =C' lines found, skip count too high.'
              34 000019CE 00000001     C   14365 12103
 =C' on '      4 000005F0 00000001     C    8814  7734   8587   8700
 =C' on '      4 000023E0 00000001     C   17230 15236
 =C' renamed to '
              12 000023D0 00000001     C   17228 15044  15174
 =C' ON '      4 00005580 00000001     C   27278 26851
 =C'<MICRO>'
               7 0000502C 00000001     C   26041 25681
 =C'<SAMSON>'
               8 00004F58 00000001     C   26012 25620
 =C'* VERIFY'
               8 00000578 00000001     C    8789  7494
 =C'*CTL%%%%MULTIPLE FILE FORMAT VERSION 00.00'
              42 00000FB4 00000001     C   11514  9996
 =C'*CTL%%%%MULTIPLE FILE FORMAT VERSION 00.00'
1NFILE    (NFIL2025) (12:49) (15MAR04) Ordinary Symbol and Literal Cross Reference                                          Page  144
              42 00001A06 00000001     C   14367 13040  13473  13975
 =C'*CTL%%%%OPEN NEW ACTIVE'
              23 00001007 00000001     C   11517 10075  10161
 =C': invalid volume name.'
              22 00004418 00000001     C   23250 23156
 =C': missing option. '
              18 00004406 00000001     C   23249 22402
 =C'appended'
               8 00000598 00000001     C    8793  8535
 =C'before accessing SAMSON files.'
              30 00004FD0 00000001     C   26035 23727
 =C'on '       3 00002465 00000001     C   17253 16809  16926
 =C'saved'
               5 0000065B 00000001     C    8840  8515   8664
 =C'scratched '
              10 0000243E 00000001     C   17250 16774  16891
 =C'unknown. '
               9 00005C36 00000001     C   29223 28713
 =C'Allocate is only valid for MVS files'
              36 00002940 00000001     C   18204 17848
 =C'Command buffer overflow.'
              24 00000550 00000001     C    8786  7225
 =C'Command stopped.'
              16 00001910 00000001     C   14330 13658
 =C'CAT'       3 0000444B 00000001     C   23252 22945
 =C'CHANGFMT'
               8 00000590 00000001     C    8792  8154
 =C'CLIP:'
               5 00005027 00000001     C   26040 25550
 =C'CLIPBOARD:'
              10 00004FF2 00000001     C   26038 25585
 =C'Do you want to save '
              20 00000F7C 00000001     C   11510 11190
 =C'Do you want to use '
              19 000029BF 00000001     C   18216 18030
 =C'DIFFVOL'
               7 00000654 00000001     C    8839  8072
 =C'DIFFVOL'
               7 000029B8 00000001     C   18215 17988
 =C'DSORG options ignored.'
              22 000019F0 00000001     C   14366 12859
 =C'EXISTS  '
               8 00000580 00000001     C    8790  7917
 =C'File specification overflow.'
              28 000043B0 00000001     C   23237 21877  22105  22266  22694
 =C'JDNGG'
               5 00005C1E 00000001     C   29219 27752
 =C'LINES: invalid.  LINES specified twice.'
              39 00000FE0 00000001     C   11516  9180
 =C'Missing file name. '
              19 00003212 00000001     C   19812 19475  19753
 =C'Missing host name after "ON".'
              29 0000442E 00000001     C   23251 22745
 =C'Missing new file name.'
              22 00002426 00000001     C   17248 14729  16141  16256
 =C'Missing options.'
              16 00005B98 00000001     C   29203 27985
 =C'Missing volume name.'
              20 000043F0 00000001     C   23247 23099
1NFILE    (NFIL2025) (12:49) (15MAR04) Ordinary Symbol and Literal Cross Reference                                          Page  145
 =C'MAIL'      4 00002968 00000001     C   18206 17884
 =C'MAIL'      4 00002EE4 00000001     C   18976 18854
 =C'No action taken.'
              16 00000F30 00000001     C   11494 11255  11420
 =C'No action taken.'
              16 00002900 00000001     C   18191 18095
 =C'No user specified WINGS path.  Default path used.'
              49 00005C64 00000001     C   29225 29110
 =C'NET.'      4 00005BDC 00000001     C   29211 28586
 =C'NOCATALOG option ignored.'
              25 00001AA5 00000001     C   14372 12781
 =C'NOMEMBER'
               8 00002398 00000001     C   17216 17020
 =C'NOTYOURS'
               8 00000588 00000001     C    8791  7987
 =C'NOTYOURS'
               8 000023A0 00000001     C   17217 17098
 =C'NOTYOURS'
               8 000028F8 00000001     C   18190 17929
 =C'OK to change data set format'
              28 00000F98 00000001     C   11513 11399
 =C'OK to replace'
              13 0000101E 00000001     C   11518 10301
 =C'OK to save '
              11 00000649 00000001     C    8838  7694
 =C'OLDIBM.'
               7 00005C2F 00000001     C   29222 28680
 =C'ORV.'      4 0000291C 00000001     C   18195 17733
 =C'Please issue a SET TERMINAL SAMSON command '
              43 00004FFC 00000001     C   26039 23709
 =C'Please use the SET MAIL command to open a mailbox.'
              50 00002986 00000001     C   18214 17894
 =C'Please use the SET MAIL command to open a mailbox.'
              50 00002EEE 00000001     C   18979 18864
 =C'Processing multiple active files.'
              33 00001ABE 00000001     C   14373 13097  14032
 =C'PJGGG'
               5 00005C19 00000001     C   29218 27732
 =C'RECOVERY and COUNT options are incompatible.'
              44 00001938 00000001     C   14337 11788
 =C'RECOVERY and SKIP options are incompatible.'
              43 00001A7A 00000001     C   14371 11759
 =C'RECOVERY option invalid for this file. '
              39 00001AF6 00000001     C   14375 13640
 =C'RECOVERY option invalid for this file.'
              38 00001A54 00000001     C   14370 13494  13536
 =C'Scratch the entire library'
              26 00002448 00000001     C   17251 17046
 =C'SAMSON.'
               7 00005C28 00000001     C   29221 28633
 =C'SCHGG'
               5 00005C14 00000001     C   29217 27712
 =C'SKIP and/or COUNT options ignored.'
              34 00001A30 00000001     C   14368 13175  14110
 =C'Type ? for more information.'
              28 00004F8C 00000001     C   26024 23746
 =C'UNIX.'
               5 00005C23 00000001     C   29220 28539
 =C'VIEW='
1NFILE    (NFIL2025) (12:49) (15MAR04) Ordinary Symbol and Literal Cross Reference                                          Page  146
               5 00001B1D 00000001     C   14376 13884
 =C'Wings.'
               6 00005C0E 00000001     C   29216 28492
 =C'Wylbur default file system is OLDIBM.'
              37 00005C3F 00000001     C   29224 28799
 =C'Wylbur default file system is Wings.'
              36 00005BE0 00000001     C   29212 28766
 =C'WYL.'      4 00000F74 00000001     C   11508 10642  10980
 =C'WYL.'      4 000023FC 00000001     C   17237 16500
 =C'Your default file system is '
              28 00005BBC 00000001     C   29209 28457
 =CL16'        OLDSAVE '
              16 00000540 00000001     C    8785  7188
 =CL16'DEF_FILE_HOST   '
              16 00005688 00000001     C   27608 27340  27418
 =CL16'DEF_FILE_TYPE   '
              16 00005698 00000001     C   27609 27497  27576
 =CL2'GS'      2 00000FDE 00000001     C   11515 10697  11035
 =CL2'GS'      2 0000243C 00000001     C   17249 16555
 =CL23'*CTL%%%%OPEN NEW ACTIVE'
              23 00001ADF 00000001     C   14374 13560
 =CL3'SAV'
               3 00000646 00000001     C    8837  7181
 =CL3'WYL'
               3 0000102B 00000001     C   11519 10698  11036
 =CL3'WYL'
               3 00002462 00000001     C   17252 16556
 =CL4'QUI '
               4 000005BC 00000001     C    8801  7307
 =CL4'TRY '
               4 000005B8 00000001     C    8800  7287
 =CL7'<MICRO>'
               7 000055A0 00000001     C   27287 26734
 =CL8'   REP  '
               8 00000570 00000001     C    8788  7363
 =CL8' * REP  '
               8 00000568 00000001     C    8787  7347
 =CL8'*CTL%%%%'
               8 00001908 00000001     C   14329 13004  13939
 =CL8'MICROTRM'
               8 00004F50 00000001     C   26011 23743
 =CL8'TEXT'
               8 00000F28 00000001     C   11493 10010  10123
 =F'-4'        4 0000320C 00000001     F   19810 19761
 =F'-4'        4 000043D0 00000001     F   23239 21885  22113  22274  22410  22702  22753  23107  23164
 =F'1000000000'
               4 000019A0 00000001     F   14353 13266  14201
 =F'16'        4 000005B4 00000001     F    8799  7270
 =F'4'         4 00005584 00000001     F   27279 26862
 =F'8'         4 00000F4C 00000001     F   11498  9844
 =V(ACTNEXT)
               4 00000F50 00000001     V   11499 10017  10127
 =V(ACTOPEN)
               4 000019A8 00000001     V   14355 13592  13832
 =V(ACTPICK)
               4 00000F54 00000001     V   11500 10035  10139
 =V(ACTRESET)
               4 00000634 00000001     V    8831  8457
 =V(ACTVREST)
1NFILE    (NFIL2025) (12:49) (15MAR04) Ordinary Symbol and Literal Cross Reference                                          Page  147
               4 000019AC 00000001     V   14356 13596  13836
 =V(BTDZEROS)
               4 00000F48 00000001     V   11497  9832
 =V(CHECKVOL)
               4 00004FBC 00000001     V   26030 25242
 =V(CLRTEXT)
               4 00000638 00000001     V    8832  8476
 =V(CLRTEXT)
               4 00001964 00000001     V   14338 11805
 =V(DODSNM)
               4 0000557C 00000001     V   27277 26820
 =V(DOFNAME)
               4 000005D0 00000001     V    8806  7512
 =V(DOFNAME)
               4 00001924 00000001     V   14332 11673
 =V(DOFNAME)
               4 000023AC 00000001     V   17219 14667  16696
 =V(DOFNAME)
               4 00002928 00000001     V   18198 17774
 =V(DOFNAME)
               4 00002EC4 00000001     V   18968 18704
 =V(DSNFIN)
               4 00005594 00000001     V   27283 26943
 =V(EDTCOMNH)
               4 000005E4 00000001     V    8811  7666
 =V(EXPCNAME)
               4 00005D94 00000001     V   29682 29637
 =V(EXTCLOSE)
               4 0000062C 00000001     V    8829  8344
 =V(EXTCLOSE)
               4 00001984 00000001     V   14346 12002  12017
 =V(EXTOPEN)
               4 000005FC 00000001     V    8817  7854
 =V(EXTOPEN)
               4 00000F68 00000001     V   11505 10319  10419  11068  11290  11455
 =V(EXTOPEN)
               4 00001968 00000001     V   14339 11811
 =V(EXTWRITE)
               4 00000F44 00000001     V   11496  9703   9853  10006  10085  10171
 =V(FNAMEFIN)
               4 000005E0 00000001     V    8810  7589
 =V(FNAMEFIN)
               4 00001934 00000001     V   14336 11718
 =V(FNAMEFIN)
               4 000023BC 00000001     V   17223 14740  16737
 =V(FNAMEFIN)
               4 00002938 00000001     V   18202 17822
 =V(FNAMEFIN)
               4 00002ED8 00000001     V   18973 18812
 =V(GETDATA)
               4 000056AC 00000001     V   27611 27421  27579
 =V(GETHEAP)
               4 000031F4 00000001     V   19804 19182
 =V(GETKWR)
               4 00000F78 00000001     V   11509 10712  11050
 =V(GETKWR)
               4 00002400 00000001     V   17238 16570
 =V(GTINTVAL)
               4 000019B8 00000001     V   14359 13669
1NFILE    (NFIL2025) (12:49) (15MAR04) Ordinary Symbol and Literal Cross Reference                                          Page  148
 =V(LASTLINE)
               4 00001988 00000001     V   14347 12006
 =V(LOGCMD)
               4 00003204 00000001     V   19808 19397
 =V(LRTRIM)
               4 000005AC 00000001     V    8797  7200
 =V(MKFFINFO)
               4 000023A8 00000001     V   17218 14600  16680
 =V(MKFFINFO)
               4 00002924 00000001     V   18197 17758
 =V(MKFFINFO)
               4 00002EC0 00000001     V   18967 18688
 =V(NDETRNG)
               4 000005F8 00000001     V    8816  7834
 =V(NDETRNG)
               4 00000F40 00000001     V   11495  9195  10105  10191
 =V(NDETRNG)
               4 0000196C 00000001     V   14340 11861
 =V(NETREN)
               4 000023DC 00000001     V   17229 15115
 =V(NETRESLV)
               4 00005D88 00000001     V   29679 29493
 =V(NETSCR)
               4 00002414 00000001     V   17243 16880
 =V(NOOPTS)
               4 00005C08 00000001     V   29214 29086
 =V(NOTVALID)
               4 00002910 00000001     V   18192 17606
 =V(NOTVALID)
               4 000043A8 00000001     V   23235 21495
 =V(NRESOLVE)
               4 0000063C 00000001     V    8833  8654
 =V(NRESOLVE)
               4 000023C0 00000001     V   17224 14776  14915  15320  15616  16741
 =V(NRESOLVE)
               4 0000293C 00000001     V   18203 17826
 =V(NRESOLVE)
               4 00002EDC 00000001     V   18974 18816
 =V(NSCAN)
               4 000005DC 00000001     V    8809  7569
 =V(NSCAN)
               4 0000192C 00000001     V   14334 11698
 =V(NSCAN)
               4 000023B4 00000001     V   17221 14692  16719
 =V(NSCAN)
               4 00002930 00000001     V   18200 17804
 =V(NSCAN)
               4 00002ECC 00000001     V   18970 18743  18790
 =V(NSCAN)
               4 000033DC 00000001     V   20092 19884  20016
 =V(NSCAN)
               4 000043D4 00000001     V   23240 22194
 =V(NSCAN)
               4 00004FB0 00000001     V   26027 24164  25433
 =V(NSCAN)
               4 0000558C 00000001     V   27281 26923
 =V(NSCAN)
               4 00005BAC 00000001     V   29205 27829  28921
 =V(NSCANSTR)
1NFILE    (NFIL2025) (12:49) (15MAR04) Ordinary Symbol and Literal Cross Reference                                          Page  149
               4 000005C8 00000001     V    8804  7441
 =V(NSCANSTR)
               4 000023F4 00000001     V   17235 16222
 =V(NSCANSTR)
               4 000031FC 00000001     V   19806 19318  19604
 =V(NSCANSTR)
               4 000043D8 00000001     V   23241 22565  22888
 =V(OLDSAVE)
               4 000005A8 00000001     V    8796  7139
 =V(ORVCPASS)
               4 00002920 00000001     V   18196 17742
 =V(PUTLINE)
               4 000019A4 00000001     V   14354 13328  13677  14263
 =V(RDRNG)
               4 00000624 00000001     V    8827  8296   8331
 =V(RDRNG)
               4 00000F60 00000001     V   11503 10113  10199
 =V(RDRNG)
               4 00001978 00000001     V   14343 11917  11939  11978
 =V(RETFNAME)
               4 000023E4 00000001     V   17231 15407
 =V(RLOOKUP)
               4 00004394 00000001     V   23230 20161  20230  20298  20367  20436
 =V(RTRIM)
               4 000019C4 00000001     V   14362 13892
 =V(SAMREN)
               4 000023C4 00000001     V   17225 14985
 =V(SAMRESLV)
               4 00005D90 00000001     V   29681 29559
 =V(SAMSCR)
               4 00002408 00000001     V   17240 16763
 =V(SAVEDATA)
               4 000056A8 00000001     V   27610 27343  27500
 =V(SCAN)      4 00002918 00000001     V   18194 17721
 =V(SCANCHK)
               4 000005CC 00000001     V    8805  7455   7583
 =V(SCANCHK)
               4 00001930 00000001     V   14335 11712
 =V(SCANCHK)
               4 000023B8 00000001     V   17222 14706  16236  16733
 =V(SCANCHK)
               4 00002934 00000001     V   18201 17818
 =V(SCANCHK)
               4 00002ED4 00000001     V   18972 18808
 =V(SCANCHK)
               4 00003200 00000001     V   19807 19332
 =V(SCANCHK)
               4 000033E0 00000001     V   20093 19898  20030
 =V(SCANCHK)
               4 00004FB4 00000001     V   26028 24178  25447
 =V(SCANCHK)
               4 00005590 00000001     V   27282 26937
 =V(SCANCHK)
               4 00005BB0 00000001     V   29206 27843  28935
 =V(SCNEXFR)
               4 000005D4 00000001     V    8807  7516
 =V(SCSEG)
               4 00003208 00000001     V   19809 19759
 =V(SCSEG)
1NFILE    (NFIL2025) (12:49) (15MAR04) Ordinary Symbol and Literal Cross Reference                                          Page  150
               4 000043CC 00000001     V   23238 21883  22111  22272  22396  22408  22700  22751  23105  23150  23162
 =V(SCUPCASE)
               4 00005C04 00000001     V   29213 29009
 =V(SEG)       4 000005E8 00000001     V    8812  7706   7746   7774   8563   8599   8627   8676   8712   8740
 =V(SEG)       4 00000F90 00000001     V   11511 11202  11230  11267  11432
 =V(SEG)       4 000019B4 00000001     V   14358 13652
 =V(SEG)       4 000023CC 00000001     V   17227 15038  15056  15084  15168  15186  15214  15248  15276  16786  16821
                                                 16903  16938
 =V(SEG)       4 00002978 00000001     V   18210 18042  18070  18107
 =V(SEG)       4 00004F84 00000001     V   26022 23721
 =V(SEG)       4 00005BD8 00000001     V   29210 28469  28504  28551  28598  28645  28692  28725  28778  28811  29122
                                                 29167
 =V(SEGCR)
               4 00001990 00000001     V   14349 12793  12871  13109  13187  14044  14122
 =V(SEGCR)
               4 00004F88 00000001     V   26023 23739
 =V(SEGDC)
               4 0000198C 00000001     V   14348 12097
 =V(SEGDSN)
               4 000005EC 00000001     V    8813  7710   8511   8658
 =V(SEGDSN)
               4 0000240C 00000001     V   17241 16768  16885
 =V(SEGT)      4 00002410 00000001     V   17242 16849  16966
 =V(SEGWR)
               4 00000604 00000001     V    8819  7946   8029   8113   8195
 =V(SEGWR)
               4 00001998 00000001     V   14351 13134  13212  14069  14147
 =V(SEGWR)
               4 000023F0 00000001     V   17234 15739  17128
 =V(SEGWR)
               4 00002970 00000001     V   18208 17959  18017
 =V(SETPFXNS)
               4 00000630 00000001     V    8830  8399
 =V(SETPFXNS)
               4 000023C8 00000001     V   17226 15006  15136  15815  17182
 =V(SETPFXNS)
               4 00002980 00000001     V   18212 18156
 =V(SETVINFO)
               4 000019C8 00000001     V   14363 13896
 =V(UFSRESLV)
               4 00005D8C 00000001     V   29680 29526
 =V(WGSALLOC)
               4 0000296C 00000001     V   18207 17905
 =V(WGSCATLG)
               4 00002EE8 00000001     V   18977 18920
 =V(WGSCRTCH)
               4 00002418 00000001     V   17244 16996
 =V(WGSRENAM)
               4 000023EC 00000001     V   17233 15703
 =V(WGSRESLV)
               4 00005D80 00000001     V   29677 29392
 =V(YESREQ)
               4 000005F4 00000001     V    8815  7786
 =V(YESREQ)
               4 00000F64 00000001     V   11504 10305
 =V(YESREQ)
               4 0000241C 00000001     V   17245 17050
 =V(YESRTN)
               4 00000F94 00000001     V   11512 11238  11403
1NFILE    (NFIL2025) (12:49) (15MAR04) Ordinary Symbol and Literal Cross Reference                                          Page  151
 =V(YESRTN)
               4 0000297C 00000001     V   18211 18078
 =Y((L'NSCNCB+3)/4*4)
               2 00000644 00000001     Y    8836  7461
 =Y((L'NSCNCB+3)/4*4)
               2 00004FEE 00000001     Y   26036 23758  24264
 =Y((L'NSCNCB+3)/4*4)
               2 0000559E 00000001     Y   27286 26955
 =Y((R1+1-(R0)+16*((R0)/(R1+1))/((R0)/(R1+1)))*4)
               2 00000640 00000001     Y    8834  7375
 =Y((R1+1-(R0)+16*((R0)/(R1+1))/((R0)/(R1+1)))*4)
               2 00001A52 00000001     Y   14369 13235  14170
 =Y((12+3)/4*4)
               2 00000642 00000001     Y    8835  7447   7575
 =Y((12+3)/4*4)
               2 000019CC 00000001     Y   14364 11704
 =Y((12+3)/4*4)
               2 00002424 00000001     Y   17247 14698  16228  16725
 =Y((12+3)/4*4)
               2 00002984 00000001     Y   18213 17810
 =Y((12+3)/4*4)
               2 00002EEC 00000001     Y   18978 18749  18796
 =Y((12+3)/4*4)
               2 00003210 00000001     Y   19811 19324  19610
 =Y((12+3)/4*4)
               2 000033E8 00000001     Y   20095 19890  20022
 =Y((12+3)/4*4)
               2 00004404 00000001     Y   23248 22200  22571  22894
 =Y((12+3)/4*4)
               2 00004FF0 00000001     Y   26037 24170  25439
 =Y((12+3)/4*4)
               2 0000559C 00000001     Y   27285 26929
 =Y((12+3)/4*4)
               2 00005C0C 00000001     Y   29215 27835  28927

1NFILE    (NFIL2025) (12:49) (15MAR04) Macro and Copy Code Source Summary                                                   Page  152
- Con Source                                        Volume    Members                        HLASM R4.0  2004/03/15 12.49
0     PRIMARY INPUT                                           CSECT    DROP     END      EX       LTORG    POP
                                                              PRINT    PUSH     START    USING
   L1 WYL.GS.WYL.WYLBUR.MACLIB                      SYSB05    ABORT    AINFO    BASE     BOMB     COLINFO  COMMENT
                                                              CONTROL  CP       CPLOCAL  CV       CVLOCAL  ERROR
                                                              FFINFO   OSCAN    OSCRSTR  OSCSAVE  PUSHRTN  RDRNG    RG
                                                              SCAN     SCANCB   SCANCHK  SCANSTR  SCCBADR  SCCLR
                                                              SCINFO   SCINIT   SCKW     SCPOP    SCPUSH   SCSEG
                                                              SCSEGCLR SCTOK    SCUPCASE SCUPTOK  SYSDSNS  TNUM     TSEG
                                                              TTYPE    TWRITE   VLTORG   XPUSHRTN XTRACE
   L2 WYL.GG.SYS.MACLIB                             SYSB05    $BC      $BFLKUP  $BV      $CCLKUP  $CRS     $CSS     $L
                                                              $LA      $LBLAD   $LEXP    $LOR     $REL     $RGLKUP
                                                              $USLKUP  ACALL    BEGIN    CLEAR    COMPROC  CSECT    DATA
                                                              DECR     DEFCC    DEX      DROP     DTEX     ELSE
                                                              ELSEIF   END      EX       FLAG     GEN      HIBAL
                                                              IDENT    IF       INCR     LABEL    LC       LCM      LS
                                                              LTORG    L2       MOVE     PEND     POP      PRETURN
                                                              PRINT    PROC     PUSH     QLTORG   RECORD   REG      REGS
                                                              SET      SETMSG   START    USING    VCALL    WHILE    WITH
                                                              XPROC
   L3 SYS3.IS.MACLIB                                SYSB05    KWR      SEG      SEGCB    SEGDC    SEGLD    SEGWR    SIB
                                                              SYSDEFN  XPOP     XPUSH

1NFILE    (NFIL2025) (12:49) (15MAR04) Dsect Cross Reference                                                                Page  153
-Dsect     Length      Id       Defn                                                         HLASM R4.0  2004/03/15 12.49
0$$$@R0   00000000  FFFFFFFE     705
 $$$@R1   00000000  FFFFFFFD     718
 $$$@R10  00000000  FFFFFFF4     835
 $$$@R11  00000000  FFFFFFF3     848
 $$$@R12  00000000  FFFFFFF2     861
 $$$@R13  00000000  FFFFFFF1     874
 $$$@R14  00000000  FFFFFFF0     887
 $$$@R15  00000000  FFFFFFEF     900
 $$$@R2   00000000  FFFFFFFC     731
 $$$@R3   00000000  FFFFFFFB     744
 $$$@R4   00000000  FFFFFFFA     757
 $$$@R5   00000000  FFFFFFF9     770
 $$$@R6   00000000  FFFFFFF8     783
 $$$@R7   00000000  FFFFFFF7     796
 $$$@R8   00000000  FFFFFFF6     809
 $$$@R9   00000000  FFFFFFF5     822
 $$$RCP   00001000  FFFFFFEC    2483
 $$$RCV   00000FB0  FFFFFFEE    1208
 $$$RDEV  0000000C  FFFFFFEB    4697
 $$$RFFINFO
          000003A0  FFFFFFE8    6581
 $$$RFIBWA
          000003A0  FFFFFFDE   25780
 $$$RFNOWA
          00000008  FFFFFFDF   21976
 $$$RGETPWWA
          000001F8  FFFFFFE3   10475
 $$$RKWR  000001F8  FFFFFFE9    6350
 $$$RNSCNCB
          000000B0  FFFFFFED    2404
 $$$ROLDFWA
          00000208  FFFFFFDD   26545
 $$$RPWWA 000001F8  FFFFFFE2   10792
 $$$RRNWA 00000300  FFFFFFE0   14497
 $$$RSEGCB
          0000003C  FFFFFFE7    6796
 $$$RSFDWA
          000003A0  FFFFFFDC   27629
 $$$RSRWA 000001E6  FFFFFFE5    9742
 $$$RSVRWA
          00000008  FFFFFFE4    9902
 $$$RSVWA 00000110  FFFFFFE6    7032
 $$$RTTYPE
          0000010C  FFFFFFEA    6228
 $$$RUSEWA
          0000000D  FFFFFFE1   11535
 HIBAL    00000000  FFFFFFFF     691

1NFILE    (NFIL2025) (12:49) (15MAR04) Using Map                                                                            Page  154
-                                                                                            HLASM R4.0  2004/03/15 12.49
   Stmt  -----Location----- Action ----------------Using----------------- Reg Max    Last  Label and Using Text
           Count      Id           Type          Value    Range     Id        Disp   Stmt
0   922  00000000  FFFFFFFF USING  ORDINARY    00000000 00001000 FFFFFFEF  15 000   17733  @R15,15
    926  00000000  FFFFFFFF USING  ORDINARY    00000000 00001000 FFFFFFF0  14 002   26873  @R14,14
    930  00000000  FFFFFFFF USING  ORDINARY    00000000 00001000 FFFFFFF1  13 000   26956  @R13,13
    934  00000000  FFFFFFFF USING  ORDINARY    00000000 00001000 FFFFFFF2  12 000          @R12,12
    938  00000000  FFFFFFFF USING  ORDINARY    00000000 00001000 FFFFFFF3  11 000          @R11,11
    942  00000000  FFFFFFFF USING  ORDINARY    00000000 00001000 FFFFFFF4  10 000          @R10,10
    946  00000000  FFFFFFFF USING  ORDINARY    00000000 00001000 FFFFFFF5   9 000          @R9,9
    950  00000000  FFFFFFFF USING  ORDINARY    00000000 00001000 FFFFFFF6   8 000          @R8,8
    954  00000000  FFFFFFFF USING  ORDINARY    00000000 00001000 FFFFFFF7   7 000          @R7,7
    958  00000000  FFFFFFFF USING  ORDINARY    00000000 00001000 FFFFFFF8   6 000          @R6,6
    962  00000000  FFFFFFFF USING  ORDINARY    00000000 00001000 FFFFFFF9   5 000          @R5,5
    966  00000000  FFFFFFFF USING  ORDINARY    00000000 00001000 FFFFFFFA   4 000          @R4,4
    970  00000000  FFFFFFFF USING  ORDINARY    00000000 00001000 FFFFFFFB   3 000   15529  @R3,3
    974  00000000  FFFFFFFF USING  ORDINARY    00000000 00001000 FFFFFFFC   2 000   13560  @R2,2
    978  00000000  FFFFFFFF USING  ORDINARY    00000000 00001000 FFFFFFFD   1 00A   26761  @R1,1
    982  00000000  FFFFFFFF USING  ORDINARY    00000000 00001000 FFFFFFFE   0 000          @R0,0
    983  00000000  FFFFFFFF DROP                                            0              0
   1192  00000017  00000001 USING  ORDINARY    00000000 00001000 FFFFFFEC  11 F5C   29414  CP,CPR
   1201  00000017  00000001 USING  ORDINARY    00000000 00001000 FFFFFFEE  12 890   29614  CV,CVR
   6942  00000040  00000001 USING  ORDINARY    00000040 00001000 00000001   7 564    6985  $$$65B,7
   6964  0000004A  00000001 USING  ORDINARY    00000000 00001000 FFFFFFE8   5 001    6973  FFINFO,R5
   6996  0000005C  00000001 USING  ORDINARY    00000000 00001000 FFFFFFF7   7 000          @R7,7
   7015  0000006A  00000001 USING  ORDINARY    00000000 00001000 FFFFFFF9   5 000          @R5,5
   7101  00000084  00000001 USING  ORDINARY    00000084 00001000 00000001   7 5E2    8740  $$$69B,7
   7115  00000084  00000001 USING  ORDINARY    FFFFFFD8 00001000 FFFFFFE6   8 028    7146  SVWA-(4+36),R8
   7154  00000094  00000001 USING  ORDINARY    00000000 00001000 FFFFFFE6   6 10C    9411  SVWA,R6
   7178  000000AE  00000001 USING  ORDINARY    00000000 00001000 FFFFFFE8   5 090    9339  FFINFO,R5
   8758  0000052E  00000001 USING  ORDINARY    00000000 00001000 FFFFFFF6   8 000          @R8,8
   8763  0000052E  00000001 USING  ORDINARY    00000000 00001000 FFFFFFF7   7 000          @R7,7
   9152  00000956  00000001 USING  ORDINARY    00000956 00001000 00000001   7 68A    9195  $$$128B,7
   9207  00000976  00000001 USING  ORDINARY    00000000 00001000 FFFFFFF7   7 000          @R7,7
   9252  0000099E  00000001 USING  ORDINARY    0000099E 00001000 00000001   7 000          $$$132B,7
   9280  000009A6  00000001 USING  ORDINARY    00000000 00001000 FFFFFFF7   7 000          @R7,7
   9325  000009CE  00000001 USING  ORDINARY    000009CE 00001000 00000001   7 000          $$$136B,7
   9346  000009D2  00000001 USING  ORDINARY    00000000 00001000 FFFFFFF7   7 000          @R7,7
   9391  000009FA  00000001 USING  ORDINARY    000009FA 00001000 00000001   7 000          $$$139B,7
   9418  00000A02  00000001 USING  ORDINARY    00000000 00001000 FFFFFFF7   7 000          @R7,7
   9463  00000A2A  00000001 USING  ORDINARY    00000A2A 00001000 00000001   7 000          $$$142B,7
   9484  00000A2E  00000001 USING  ORDINARY    00000000 00001000 FFFFFFF7   7 000          @R7,7
   9529  00000A56  00000001 USING  ORDINARY    00000A56 00001000 00000001   7 000          $$$145B,7
   9551  00000A5A  00000001 USING  ORDINARY    00000000 00001000 FFFFFFF7   7 000          @R7,7
   9596  00000A82  00000001 USING  ORDINARY    00000A82 00001000 00000001   7 000          $$$149B,7
   9619  00000A86  00000001 USING  ORDINARY    00000000 00001000 FFFFFFF7   7 000          @R7,7
   9639  00000A94  00000001 USING  ORDINARY    00000000 00001000 FFFFFFF8   6 000          @R6,6
   9646  00000A94  00000001 USING  ORDINARY    00000000 00001000 FFFFFFF9   5 000          @R5,5
   9688  00000AAE  00000001 USING  ORDINARY    00000AAE 00001000 00000001   7 496    9703  $$$153B,7
   9712  00000AB8  00000001 USING  ORDINARY    00000000 00001000 FFFFFFF7   7 000          @R7,7
   9794  00000AE0  00000001 USING  ORDINARY    00000AE0 00001000 00000001   7 46C    9853  $$$156B,7
   9808  00000AE0  00000001 USING  ORDINARY    FFFFFFD8 00001000 FFFFFFE5   8 038    9843  SRWA-(4+36),R8
   9823  00000AEC  00000001 USING  ORDINARY    00000000 00001000 FFFFFFE6   6 104    9850  SVWA,R6
   9862  00000B2C  00000001 USING  ORDINARY    00000000 00001000 FFFFFFF6   8 000          @R8,8
   9867  00000B2C  00000001 USING  ORDINARY    00000000 00001000 FFFFFFF7   7 000          @R7,7
   9886  00000B3A  00000001 USING  ORDINARY    00000000 00001000 FFFFFFF8   6 000          @R6,6
1NFILE    (NFIL2025) (12:49) (15MAR04) Using Map                                                                            Page  155
   9953  00000B54  00000001 USING  ORDINARY    00000B54 00001000 00000001   7 4B3   10199  $$$159B,7
   9967  00000B54  00000001 USING  ORDINARY    FFFFFFD8 00001000 FFFFFFE4   8 02C   10136  SVRWA-(4+36),R8
   9986  00000B5A  00000001 USING  ORDINARY    00000000 00001000 FFFFFFE6   6 104   10168  SVWA,R6
  10212  00000C4C  00000001 USING  ORDINARY    00000000 00001000 FFFFFFF6   8 000          @R8,8
  10217  00000C4C  00000001 USING  ORDINARY    00000000 00001000 FFFFFFF7   7 000          @R7,7
  10236  00000C5A  00000001 USING  ORDINARY    00000000 00001000 FFFFFFF8   6 000          @R6,6
  10278  00000C74  00000001 USING  ORDINARY    00000C74 00001000 00000001   7 3AA   10319  $$$169B,7
  10295  00000C78  00000001 USING  ORDINARY    00000000 00001000 FFFFFFE8   6 001   10314  FFINFO,R6
  10328  00000C90  00000001 USING  ORDINARY    00000000 00001000 FFFFFFF7   7 000          @R7,7
  10347  00000C9E  00000001 USING  ORDINARY    00000000 00001000 FFFFFFF8   6 000          @R6,6
  10388  00000CB8  00000001 USING  ORDINARY    00000CB8 00001000 00000001   7 2B0   10419  $$$172B,7
  10405  00000CBC  00000001 USING  ORDINARY    00000000 00001000 FFFFFFE8   6 002   10414  FFINFO,R6
  10428  00000CC6  00000001 USING  ORDINARY    00000000 00001000 FFFFFFF7   7 000          @R7,7
  10447  00000CD4  00000001 USING  ORDINARY    00000000 00001000 FFFFFFF8   6 000          @R6,6
  10525  00000CEE  00000001 USING  ORDINARY    00000CEE 00001000 00000001   7 33D   10712  $$$175B,7
  10539  00000CEE  00000001 USING  ORDINARY    FFFFFFD8 00001000 FFFFFFE3   8 028   10578  GETPWWA-(4+36),R8
  10551  00000CF2  00000001 USING  ORDINARY    00000000 00001000 FFFFFFE8   6 218   10725  FFINFO,R6
  10586  00000D02  00000001 USING  ORDINARY    00000000 00001000 FFFFFFE9   4 100   10709  KWR,R4
  10733  00000D6C  00000001 USING  ORDINARY    00000000 00001000 FFFFFFF6   8 000          @R8,8
  10738  00000D6C  00000001 USING  ORDINARY    00000000 00001000 FFFFFFF7   7 000          @R7,7
  10757  00000D7A  00000001 USING  ORDINARY    00000000 00001000 FFFFFFF8   6 000          @R6,6
  10764  00000D7A  00000001 USING  ORDINARY    00000000 00001000 FFFFFFFA   4 000          @R4,4
  10842  00000D94  00000001 USING  ORDINARY    00000D94 00001000 00000001   7 297   11068  $$$184B,7
  10856  00000D94  00000001 USING  ORDINARY    FFFFFFD8 00001000 FFFFFFE2   8 028   10916  PWWA-(4+36),R8
  10868  00000D98  00000001 USING  ORDINARY    00000000 00001000 FFFFFFE8   6 218   11063  FFINFO,R6
  10924  00000DB4  00000001 USING  ORDINARY    00000000 00001000 FFFFFFE9   4 100   11047  KWR,R4
  11077  00000E24  00000001 USING  ORDINARY    00000000 00001000 FFFFFFF6   8 000          @R8,8
  11082  00000E24  00000001 USING  ORDINARY    00000000 00001000 FFFFFFF7   7 000          @R7,7
  11101  00000E32  00000001 USING  ORDINARY    00000000 00001000 FFFFFFF8   6 000          @R6,6
  11108  00000E32  00000001 USING  ORDINARY    00000000 00001000 FFFFFFFA   4 000          @R4,4
  11150  00000E4C  00000001 USING  ORDINARY    00000E4C 00001000 00000001   7 1E2   11290  $$$194B,7
  11167  00000E50  00000001 USING  ORDINARY    00000000 00001000 FFFFFFE8   6 090   11285  FFINFO,R6
  11299  00000EAE  00000001 USING  ORDINARY    00000000 00001000 FFFFFFF7   7 000          @R7,7
  11318  00000EBC  00000001 USING  ORDINARY    00000000 00001000 FFFFFFF8   6 000          @R6,6
  11361  00000ED6  00000001 USING  ORDINARY    00000ED6 00001000 00000001   7 0C2   11455  $$$199B,7
  11378  00000EDA  00000001 USING  ORDINARY    00000000 00001000 FFFFFFE8   6 002   11450  FFINFO,R6
  11464  00000F14  00000001 USING  ORDINARY    00000000 00001000 FFFFFFF7   7 000          @R7,7
  11483  00000F22  00000001 USING  ORDINARY    00000000 00001000 FFFFFFF8   6 000          @R6,6
  11602  00001050  00000001 USING  ORDINARY    00001050 00001000 00000001   7 A2A   12103  $$$204B,7
  11616  00001050  00000001 USING  ORDINARY    FFFFFFD8 00001000 FFFFFFE1   8 028   11621  USEWA-(4+36),R8
  11629  00001054  00000001 USING  ORDINARY    00000000 00001000 FFFFFFE1   6 00C   12581  USEWA,R6
  11652  00001068  00000001 USING  ORDINARY    00000000 00001000 FFFFFFE8   5 001   11967  FFINFO,R5
  12123  000011EA  00000001 USING  ORDINARY    00000000 00001000 FFFFFFF6   8 000          @R8,8
  12128  000011EA  00000001 USING  ORDINARY    00000000 00001000 FFFFFFF7   7 000          @R7,7
  12147  000011F8  00000001 USING  ORDINARY    00000000 00001000 FFFFFFF9   5 000          @R5,5
  12379  0000141A  00000001 USING  ORDINARY    0000141A 00001000 00000001   7 000          $$$223B,7
  12395  0000141E  00000001 USING  ORDINARY    00000000 00001000 FFFFFFF7   7 000          @R7,7
  12440  00001446  00000001 USING  ORDINARY    00001446 00001000 00000001   7 000          $$$226B,7
  12456  0000144A  00000001 USING  ORDINARY    00000000 00001000 FFFFFFF7   7 000          @R7,7
  12501  00001472  00000001 USING  ORDINARY    00001472 00001000 00000001   7 000          $$$229B,7
  12522  00001476  00000001 USING  ORDINARY    00000000 00001000 FFFFFFF7   7 000          @R7,7
  12567  0000149E  00000001 USING  ORDINARY    0000149E 00001000 00000001   7 000          $$$232B,7
  12588  000014A2  00000001 USING  ORDINARY    00000000 00001000 FFFFFFF7   7 000          @R7,7
  12633  000014CA  00000001 USING  ORDINARY    000014CA 00001000 00000001   7 000          $$$235B,7
  12655  000014CE  00000001 USING  ORDINARY    00000000 00001000 FFFFFFF7   7 000          @R7,7
  12700  000014F6  00000001 USING  ORDINARY    000014F6 00001000 00000001   7 000          $$$239B,7
  12723  000014FA  00000001 USING  ORDINARY    00000000 00001000 FFFFFFF7   7 000          @R7,7
  12768  00001522  00000001 USING  ORDINARY    00001522 00001000 00000001   7 583   12793  $$$243B,7
  12801  00001534  00000001 USING  ORDINARY    00000000 00001000 FFFFFFF7   7 000          @R7,7
1NFILE    (NFIL2025) (12:49) (15MAR04) Using Map                                                                            Page  156
  12846  0000155C  00000001 USING  ORDINARY    0000155C 00001000 00000001   7 494   12871  $$$246B,7
  12879  0000156E  00000001 USING  ORDINARY    00000000 00001000 FFFFFFF7   7 000          @R7,7
  12898  0000157C  00000001 USING  ORDINARY    00000000 00001000 FFFFFFF8   6 000          @R6,6
  12945  00001596  00000001 USING  ORDINARY    00001596 00001000 00000001   7 58C   13347  $$$249B,7
  12962  0000159A  00000001 USING  ORDINARY    00000000 00001000 FFFFFFE1   6 00C   14271  USEWA,R6
  13371  00001698  00000001 USING  ORDINARY    00000000 00001000 FFFFFFF7   7 000          @R7,7
  13435  000016C0  00000001 USING  ORDINARY    000016C0 00001000 00000001   7 468   13677  $$$267B,7
  13694  00001772  00000001 USING  ORDINARY    00000000 00001000 FFFFFFF7   7 000          @R7,7
  13760  0000179A  00000001 USING  ORDINARY    0000179A 00001000 00000001   7 394   14282  $$$280B,7
  13786  000017AA  00000001 DROP                                            2              2
  13790  000017B0  00000001 USING  ORDINARY    00000000 00001000 FFFFFFFC   2 000   26419  @R2,2
  14306  000018F2  00000001 USING  ORDINARY    00000000 00001000 FFFFFFF7   7 000          @R7,7
  14418  00001B4E  00000001 USING  ORDINARY    00001B4E 00001000 00000001   7 000          $$$303B,7
  14437  00001B50  00000001 USING  ORDINARY    00000000 00001000 FFFFFFF7   7 000          @R7,7
  14557  00001B7A  00000001 USING  ORDINARY    00001B7A 00001000 00000001   7 936   15815  $$$306B,7
  14571  00001B7A  00000001 USING  ORDINARY    FFFFFFD8 00001000 FFFFFFE0   8 028   14575  RNWA-(4+36),R8
  14583  00001B7E  00000001 USING  ORDINARY    00000000 00001000 FFFFFFF8   6 000          @R6,6
  14586  00001B7E  00000001 USING  ORDINARY    00000000 00001000 FFFFFFE0   6 280   16291  RNWA,R6
  14610  00001B9A  00000001 USING  ORDINARY    00000000 00001000 FFFFFFE8   5 218   15801  FFINFO,R5
  15834  00001EDA  00000001 USING  ORDINARY    00000000 00001000 FFFFFFF6   8 000          @R8,8
  15839  00001EDA  00000001 USING  ORDINARY    00000000 00001000 FFFFFFF7   7 000          @R7,7
  15993  0000201A  00000001 USING  ORDINARY    0000201A 00001000 00000001   7 000          $$$366B,7
  16015  0000201E  00000001 USING  ORDINARY    00000000 00001000 FFFFFFF7   7 000          @R7,7
  16060  00002046  00000001 USING  ORDINARY    00002046 00001000 00000001   7 000          $$$370B,7
  16083  0000204A  00000001 USING  ORDINARY    00000000 00001000 FFFFFFF7   7 000          @R7,7
  16128  00002072  00000001 USING  ORDINARY    00002072 00001000 00000001   7 3B4   16141  $$$374B,7
  16150  0000207E  00000001 USING  ORDINARY    00000000 00001000 FFFFFFF7   7 000          @R7,7
  16195  000020A6  00000001 USING  ORDINARY    000020A6 00001000 00000001   7 410   16284  $$$377B,7
  16313  00002118  00000001 USING  ORDINARY    00000000 00001000 FFFFFFF7   7 000          @R7,7
  16384  00002140  00000001 USING  ORDINARY    00002140 00001000 00000001   7 322   16570  $$$384B,7
  16398  00002140  00000001 USING  ORDINARY    FFFFFFD8 00001000 FFFFFFE3   8 028   16440  GETPWWA-(4+36),R8
  16410  00002144  00000001 USING  ORDINARY    00000000 00001000 FFFFFFF8   6 000          @R6,6
  16413  00002144  00000001 USING  ORDINARY    00000000 00001000 FFFFFFE8   6 218   16583  FFINFO,R6
  16448  00002154  00000001 USING  ORDINARY    00000000 00001000 FFFFFFE9   4 100   16567  KWR,R4
  16591  000021B8  00000001 USING  ORDINARY    00000000 00001000 FFFFFFF6   8 000          @R8,8
  16596  000021B8  00000001 USING  ORDINARY    00000000 00001000 FFFFFFF7   7 000          @R7,7
  16615  000021C6  00000001 USING  ORDINARY    00000000 00001000 FFFFFFF8   6 000          @R6,6
  16622  000021C6  00000001 USING  ORDINARY    00000000 00001000 FFFFFFFA   4 000   22309  @R4,4
  16668  000021E0  00000001 USING  ORDINARY    000021E0 00001000 00000001   7 285   17182  $$$393B,7
  16690  000021EA  00000001 USING  ORDINARY    00000000 00001000 FFFFFFE8   6 090   17057  FFINFO,R6
  17195  00002388  00000001 USING  ORDINARY    00000000 00001000 FFFFFFF7   7 000          @R7,7
  17264  000024BC  00000001 USING  ORDINARY    00000000 00001000 FFFFFFF8   6 000          @R6,6
  17496  000026DE  00000001 USING  ORDINARY    000026DE 00001000 00000001   7 000          $$$407B,7
  17513  000026E2  00000001 USING  ORDINARY    00000000 00001000 FFFFFFE8   6 002   17520  FFINFO,R6
  17526  000026E6  00000001 USING  ORDINARY    00000000 00001000 FFFFFFF8   6 000          @R6,6
  17534  000026E6  00000001 USING  ORDINARY    00000000 00001000 FFFFFFF7   7 000          @R7,7
  17579  0000270E  00000001 USING  ORDINARY    0000270E 00001000 00000001   7 206   17614  $$$410B,7
  17622  00002722  00000001 USING  ORDINARY    00000000 00001000 FFFFFFF7   7 000          @R7,7
  17674  0000274A  00000001 USING  ORDINARY    0000274A 00001000 00000001   7 288   18156  $$$414B,7
  17768  0000278C  00000001 USING  ORDINARY    00000000 00001000 FFFFFFE8   6 223   18119  FFINFO,R6
  18169  000028E4  00000001 USING  ORDINARY    00000000 00001000 FFFFFFF7   7 000          @R7,7
  18228  000029D9  00000001 USING  ORDINARY    00000000 00001000 FFFFFFF8   6 000          @R6,6
  18611  00002D6A  00000001 USING  ORDINARY    00002D6A 00001000 00000001   7 184   18928  $$$429B,7
  18698  00002D98  00000001 USING  ORDINARY    00000000 00001000 FFFFFFE8   6 223   18854  FFINFO,R6
  18946  00002EAE  00000001 USING  ORDINARY    00000000 00001000 FFFFFFF7   7 000          @R7,7
  18990  00002F20  00000001 USING  ORDINARY    00000000 00001000 FFFFFFF8   6 000          @R6,6
  19148  00003002  00000001 USING  ORDINARY    00003002 00001000 00000001   7 1F2   19182  $$$442B,7
  19194  0000301C  00000001 USING  ORDINARY    00000000 00001000 FFFFFFE8   6 320   19416  FFINFO,R6
  19223  00003046  00000001 USING  ORDINARY    00000000 00001000 FFFFFFF7   7 000          @R7,7
1NFILE    (NFIL2025) (12:49) (15MAR04) Using Map                                                                            Page  157
  19279  0000306E  00000001 USING  ORDINARY    0000306E 00001000 00000001   7 1B8   19475  $$$446B,7
  19489  00003110  00000001 USING  ORDINARY    00000000 00001000 FFFFFFF7   7 000          @R7,7
  19508  0000311E  00000001 USING  ORDINARY    00000000 00001000 FFFFFFF8   6 000          @R6,6
  19558  00003138  00000001 USING  ORDINARY    00003138 00001000 00000001   7 0F4   19761  $$$458B,7
  19581  00003142  00000001 USING  ORDINARY    00000000 00001000 FFFFFFE8   6 00C   19685  FFINFO,R6
  19773  000031DE  00000001 USING  ORDINARY    00000000 00001000 FFFFFFF7   7 000          @R7,7
  19792  000031EC  00000001 USING  ORDINARY    00000000 00001000 FFFFFFF8   6 000          @R6,6
  19854  0000324C  00000001 USING  ORDINARY    0000324C 00001000 00000001   7 19C   19898  $$$470B,7
  19906  000032A4  00000001 USING  ORDINARY    00000000 00001000 FFFFFFF7   7 000          @R7,7
  19986  0000331E  00000001 USING  ORDINARY    0000331E 00001000 00000001   7 0CA   20030  $$$473B,7
  20038  00003376  00000001 USING  ORDINARY    00000000 00001000 FFFFFFF7   7 000          @R7,7
  20149  00003404  00000001 USING  ORDINARY    00003404 00001000 00000001   7 F90   20161  $$$476B,7
  20171  00003412  00000001 USING  ORDINARY    00000000 00001000 FFFFFFF7   7 000          @R7,7
  20218  0000343A  00000001 USING  ORDINARY    0000343A 00001000 00000001   7 F5E   20230  $$$479B,7
  20240  00003448  00000001 USING  ORDINARY    00000000 00001000 FFFFFFF7   7 000          @R7,7
  20286  00003470  00000001 USING  ORDINARY    00003470 00001000 00000001   7 F2C   20298  $$$482B,7
  20308  0000347E  00000001 USING  ORDINARY    00000000 00001000 FFFFFFF7   7 000          @R7,7
  20355  000034A6  00000001 USING  ORDINARY    000034A6 00001000 00000001   7 EFA   20367  $$$485B,7
  20377  000034B4  00000001 USING  ORDINARY    00000000 00001000 FFFFFFF7   7 000          @R7,7
  20424  000034DC  00000001 USING  ORDINARY    000034DC 00001000 00000001   7 EC8   20436  $$$488B,7
  20446  000034EA  00000001 USING  ORDINARY    00000000 00001000 FFFFFFF7   7 000          @R7,7
  21399  00003E4A  00000001 USING  ORDINARY    00003E4A 00001000 00000001   7 000          $$$491B,7
  21416  00003E4E  00000001 USING  ORDINARY    00000000 00001000 FFFFFFE8   6 000   21423  FFINFO,R6
  21430  00003E52  00000001 USING  ORDINARY    00000000 00001000 FFFFFFF7   7 000          @R7,7
  21449  00003E60  00000001 USING  ORDINARY    00000000 00001000 FFFFFFF8   6 000          @R6,6
  21483  00003E7A  00000001 USING  ORDINARY    00003E7A 00001000 00000001   7 52E   21495  $$$494B,7
  21505  00003E80  00000001 USING  ORDINARY    00000000 00001000 FFFFFFF7   7 000          @R7,7
  21555  00003EA8  00000001 USING  ORDINARY    00003EA8 00001000 00000001   7 000          $$$497B,7
  21572  00003EAC  00000001 USING  ORDINARY    00000000 00001000 FFFFFFE8   6 000   21579  FFINFO,R6
  21586  00003EB0  00000001 USING  ORDINARY    00000000 00001000 FFFFFFF7   7 000          @R7,7
  21605  00003EBE  00000001 USING  ORDINARY    00000000 00001000 FFFFFFF8   6 000          @R6,6
  21639  00003ED8  00000001 USING  ORDINARY    00003ED8 00001000 00000001   7 000          $$$500B,7
  21656  00003EDC  00000001 USING  ORDINARY    00000000 00001000 FFFFFFE8   6 000   21663  FFINFO,R6
  21670  00003EE0  00000001 USING  ORDINARY    00000000 00001000 FFFFFFF7   7 000          @R7,7
  21689  00003EEE  00000001 USING  ORDINARY    00000000 00001000 FFFFFFF8   6 000          @R6,6
  21723  00003F08  00000001 USING  ORDINARY    00003F08 00001000 00000001   7 000          $$$503B,7
  21740  00003F0C  00000001 USING  ORDINARY    00000000 00001000 FFFFFFE8   6 000   21747  FFINFO,R6
  21754  00003F10  00000001 USING  ORDINARY    00000000 00001000 FFFFFFF7   7 000          @R7,7
  21773  00003F1E  00000001 USING  ORDINARY    00000000 00001000 FFFFFFF8   6 000          @R6,6
  21811  00003F38  00000001 USING  ORDINARY    00003F38 00001000 00000001   7 516   21913  $$$506B,7
  21830  00003F3C  00000001 USING  ORDINARY    00000000 00001000 FFFFFFE8   6 114   21932  FFINFO,R6
  21947  00003FA4  00000001 USING  ORDINARY    00000000 00001000 FFFFFFF7   7 000          @R7,7
  21966  00003FB2  00000001 USING  ORDINARY    00000000 00001000 FFFFFFF8   6 000          @R6,6
  22027  00003FCC  00000001 USING  ORDINARY    00003FCC 00001000 00000001   7 48E   22437  $$$513B,7
  22041  00003FCC  00000001 USING  ORDINARY    FFFFFFD8 00001000 FFFFFFDF   8 02C   22379  FNOWA-(4+36),R8
  22058  00003FD8  00000001 USING  ORDINARY    00000000 00001000 FFFFFFE8   6 114   22321  FFINFO,R6
  22461  00004154  00000001 USING  ORDINARY    00000000 00001000 FFFFFFF6   8 000          @R8,8
  22466  00004154  00000001 USING  ORDINARY    00000000 00001000 FFFFFFF7   7 000          @R7,7
  22485  00004162  00000001 USING  ORDINARY    00000000 00001000 FFFFFFF8   6 000          @R6,6
  22523  0000417C  00000001 USING  ORDINARY    0000417C 00001000 00000001   7 2E4   22770  $$$531B,7
  22542  00004180  00000001 USING  ORDINARY    00000000 00001000 FFFFFFE8   6 090   22636  FFINFO,R6
  22789  0000424E  00000001 USING  ORDINARY    00000000 00001000 FFFFFFF7   7 000          @R7,7
  22808  0000425C  00000001 USING  ORDINARY    00000000 00001000 FFFFFFF8   6 000          @R6,6
  22846  00004276  00000001 USING  ORDINARY    00004276 00001000 00000001   7 1F0   23181  $$$544B,7
  22865  0000427A  00000001 USING  ORDINARY    00000000 00001000 FFFFFFE8   6 090   23045  FFINFO,R6
  23200  0000437C  00000001 USING  ORDINARY    00000000 00001000 FFFFFFF7   7 000          @R7,7
  23219  0000438A  00000001 USING  ORDINARY    00000000 00001000 FFFFFFF8   6 000          @R6,6
  23319  00004486  00000001 USING  ORDINARY    00004486 00001000 00000001   7 B76   23758  $$$559B,7
  23343  00004498  00000001 USING  ORDINARY    00000000 00001000 FFFFFFE8   6 08C   23687  FFINFO,R6
1NFILE    (NFIL2025) (12:49) (15MAR04) Using Map                                                                            Page  158
  23766  0000459C  00000001 USING  ORDINARY    00000000 00001000 FFFFFFF7   7 000          @R7,7
  23785  000045AA  00000001 USING  ORDINARY    00000000 00001000 FFFFFFF8   6 000          @R6,6
  23840  000045C4  00000001 USING  ORDINARY    000045C4 00001000 00000001   7 A70   23974  $$$577B,7
  23856  000045C4  00000001 USING  ORDINARY    00000000 00001000 FFFFFFE8   6 00D   23945  FFINFO,R6
  23992  000045FE  00000001 USING  ORDINARY    00000000 00001000 FFFFFFF7   7 000          @R7,7
  24011  0000460C  00000001 USING  ORDINARY    00000000 00001000 FFFFFFF8   6 000          @R6,6
  24058  00004626  00000001 USING  ORDINARY    00004626 00001000 00000001   7 9CA   24264  $$$586B,7
  24074  00004626  00000001 USING  ORDINARY    00000000 00001000 FFFFFFE8   6 090   25080  FFINFO,R6
  24272  000046EE  00000001 USING  ORDINARY    00000000 00001000 FFFFFFF7   7 000          @R7,7
  24822  00004C3E  00000001 USING  ORDINARY    00004C3E 00001000 00000001   7 33E   24879  $$$594B,7
  24902  00004C60  00000001 USING  ORDINARY    00000000 00001000 FFFFFFF7   7 000          @R7,7
  24948  00004C88  00000001 USING  ORDINARY    00004C88 00001000 00000001   7 2F0   24998  $$$599B,7
  25021  00004CA6  00000001 USING  ORDINARY    00000000 00001000 FFFFFFF7   7 000          @R7,7
  25066  00004CCE  00000001 USING  ORDINARY    00004CCE 00001000 00000001   7 000          $$$604B,7
  25088  00004CD6  00000001 USING  ORDINARY    00000000 00001000 FFFFFFF7   7 000          @R7,7
  25133  00004CFE  00000001 USING  ORDINARY    00004CFE 00001000 00000001   7 000          $$$607B,7
  25149  00004D02  00000001 USING  ORDINARY    00000000 00001000 FFFFFFF7   7 000          @R7,7
  25199  00004D2A  00000001 USING  ORDINARY    00004D2A 00001000 00000001   7 292   25273  $$$610B,7
  25291  00004D60  00000001 USING  ORDINARY    00000000 00001000 FFFFFFF7   7 000          @R7,7
  25310  00004D6E  00000001 USING  ORDINARY    00000000 00001000 FFFFFFF8   6 000          @R6,6
  25356  00004D88  00000001 USING  ORDINARY    00004D88 00001000 00000001   7 2B8   25721  $$$616B,7
  25372  00004D88  00000001 USING  ORDINARY    00000000 00001000 FFFFFFE8   6 014   25730  FFINFO,R6
  25743  00004EBA  00000001 USING  ORDINARY    00000000 00001000 FFFFFFF8   6 000          @R6,6
  25751  00004EBA  00000001 USING  ORDINARY    00000000 00001000 FFFFFFF7   7 000          @R7,7
  25830  00004EE2  00000001 USING  ORDINARY    00004EE2 00001000 00000001   7 08E   25966  $$$635B,7
  25844  00004EE2  00000001 USING  ORDINARY    FFFFFFD8 00001000 FFFFFFDE   8 028   25849  FIBWA-(4+36),R8
  25857  00004EE6  00000001 USING  ORDINARY    00000000 00001000 FFFFFFE8   6 300   25903  FFINFO,R6
  25976  00004F3C  00000001 USING  ORDINARY    00000000 00001000 FFFFFFF6   8 000          @R8,8
  25981  00004F3C  00000001 USING  ORDINARY    00000000 00001000 FFFFFFF7   7 000          @R7,7
  26000  00004F4A  00000001 USING  ORDINARY    00000000 00001000 FFFFFFF8   6 000          @R6,6
  26086  00005060  00000001 USING  ORDINARY    00005060 00001000 00000001   7 11C   26456  $$$642B,7
  26109  0000506A  00000001 USING  ORDINARY    00000000 00001000 FFFFFFE8   6 218   26463  FFINFO,R6
  26486  0000514A  00000001 USING  ORDINARY    00000000 00001000 FFFFFFF7   7 000          @R7,7
  26505  00005158  00000001 USING  ORDINARY    00000000 00001000 FFFFFFF8   6 000          @R6,6
  26598  0000519C  00000001 USING  ORDINARY    0000519C 00001000 00000001   7 412   26955  $$$667B,7
  26612  0000519C  00000001 USING  ORDINARY    FFFFFFD8 00001000 FFFFFFDD   8 130   26893  OLDFWA-(4+36),R8
  26630  000051AE  00000001 USING  ORDINARY    00000000 00001000 FFFFFFE8   6 114   26863  FFINFO,R6
  26963  00005306  00000001 USING  ORDINARY    00000000 00001000 FFFFFFF6   8 000          @R8,8
  26968  00005306  00000001 USING  ORDINARY    00000000 00001000 FFFFFFF7   7 000          @R7,7
  26987  00005314  00000001 USING  ORDINARY    00000000 00001000 FFFFFFF8   6 000          @R6,6
  27232  0000555E  00000001 USING  ORDINARY    0000555E 00001000 00000001   7 000          $$$679B,7
  27253  00005562  00000001 USING  ORDINARY    00000000 00001000 FFFFFFF7   7 000          @R7,7
  27331  000055CE  00000001 USING  ORDINARY    000055CE 00001000 00000001   7 0DA   27343  $$$682B,7
  27351  000055D8  00000001 USING  ORDINARY    00000000 00001000 FFFFFFF7   7 000          @R7,7
  27409  00005600  00000001 USING  ORDINARY    00005600 00001000 00000001   7 0AC   27421  $$$685B,7
  27431  0000560E  00000001 USING  ORDINARY    00000000 00001000 FFFFFFF7   7 000          @R7,7
  27487  00005636  00000001 USING  ORDINARY    00005636 00001000 00000001   7 072   27500  $$$688B,7
  27508  00005644  00000001 USING  ORDINARY    00000000 00001000 FFFFFFF7   7 000          @R7,7
  27566  0000566C  00000001 USING  ORDINARY    0000566C 00001000 00000001   7 040   27579  $$$691B,7
  27587  0000567A  00000001 USING  ORDINARY    00000000 00001000 FFFFFFF7   7 000          @R7,7
  27680  000056CA  00000001 USING  ORDINARY    000056CA 00001000 00000001   7 554   27849  $$$694B,7
  27694  000056CA  00000001 USING  ORDINARY    FFFFFFD8 00001000 FFFFFFDC   8 028   27787  SFDWA-(4+36),R8
  27795  000056FE  00000001 USING  ORDINARY    00000000 00001000 FFFFFFE8   6 300   28322  FFINFO,R6
  27857  00005778  00000001 USING  ORDINARY    00000000 00001000 FFFFFFF6   8 000          @R8,8
  27862  00005778  00000001 USING  ORDINARY    00000000 00001000 FFFFFFF7   7 000          @R7,7
  27972  00005842  00000001 USING  ORDINARY    00005842 00001000 00000001   7 356   27985  $$$701B,7
  27994  0000584E  00000001 USING  ORDINARY    00000000 00001000 FFFFFFF7   7 000          @R7,7
  28040  00005876  00000001 USING  ORDINARY    00005876 00001000 00000001   7 000          $$$704B,7
  28061  0000587A  00000001 USING  ORDINARY    00000000 00001000 FFFFFFF7   7 000          @R7,7
1NFILE    (NFIL2025) (12:49) (15MAR04) Using Map                                                                            Page  159
  28107  000058A2  00000001 USING  ORDINARY    000058A2 00001000 00000001   7 000          $$$707B,7
  28128  000058A6  00000001 USING  ORDINARY    00000000 00001000 FFFFFFF7   7 000          @R7,7
  28174  000058CE  00000001 USING  ORDINARY    000058CE 00001000 00000001   7 000          $$$710B,7
  28195  000058D2  00000001 USING  ORDINARY    00000000 00001000 FFFFFFF7   7 000          @R7,7
  28241  000058FA  00000001 USING  ORDINARY    000058FA 00001000 00000001   7 000          $$$713B,7
  28262  000058FE  00000001 USING  ORDINARY    00000000 00001000 FFFFFFF7   7 000          @R7,7
  28308  00005926  00000001 USING  ORDINARY    00005926 00001000 00000001   7 000          $$$716B,7
  28329  0000592A  00000001 USING  ORDINARY    00000000 00001000 FFFFFFF7   7 000          @R7,7
  28348  00005938  00000001 USING  ORDINARY    00000000 00001000 FFFFFFF8   6 000          @R6,6
  28390  00005952  00000001 USING  ORDINARY    00005952 00001000 00000001   7 2ED   28811  $$$719B,7
  28404  00005952  00000001 USING  ORDINARY    FFFFFFD8 00001000 FFFFFFDC   8 028   28408  SFDWA-(4+36),R8
  28416  00005956  00000001 USING  ORDINARY    00000000 00001000 FFFFFFE8   6 300   28669  FFINFO,R6
  28829  00005A72  00000001 USING  ORDINARY    00000000 00001000 FFFFFFF6   8 000          @R8,8
  28834  00005A72  00000001 USING  ORDINARY    00000000 00001000 FFFFFFF7   7 000          @R7,7
  28853  00005A80  00000001 USING  ORDINARY    00000000 00001000 FFFFFFF8   6 000          @R6,6
  28892  00005A9A  00000001 USING  ORDINARY    00005A9A 00001000 00000001   7 172   29009  $$$736B,7
  29026  00005B1C  00000001 USING  ORDINARY    00000000 00001000 FFFFFFF7   7 000          @R7,7
  29075  00005B44  00000001 USING  ORDINARY    00005B44 00001000 00000001   7 120   29167  $$$742B,7
  29180  00005B80  00000001 USING  ORDINARY    00000000 00001000 FFFFFFF7   7 000          @R7,7
  29279  00005CB0  00000001 USING  ORDINARY    00005CB0 00001000 00000001   7 0E0   29559  $$$747B,7
  29318  00005CBC  00000001 USING  ORDINARY    00000000 00001000 FFFFFFE8   6 008   29550  FFINFO,R6
  29572  00005D3C  00000001 USING  ORDINARY    00000000 00001000 FFFFFFF7   7 000          @R7,7
  29591  00005D4A  00000001 USING  ORDINARY    00000000 00001000 FFFFFFF8   6 000          @R6,6
  29626  00005D64  00000001 USING  ORDINARY    00005D64 00001000 00000001   7 030   29637  $$$764B,7
  29649  00005D6C  00000001 USING  ORDINARY    00000000 00001000 FFFFFFF7   7 000          @R7,7

1         (NFIL2025) (12:49) (15MAR04) General Purpose Register Cross Reference                                             Page  160
- Register  References (M=modified, B=branch, U=USING, D=DROP, N=index)                      HLASM R4.0  2004/03/15 12.49
0    0(0)      982U   983D  2128   2196M  2196   2197M  6925   7004M  7083   7130   7130   7186   7193M  7202   7226M
              7270M  7271   7328M  7329   7341   7368M  7369   7376M  7429M  7429   7438   7484M  7484   7495M  7499
              7554M  7554   7563   7564   7663M  7695M  7735M  7763M  7783M  7783   7935M  7935   8018M  8018   8102M
              8102   8184M  8184   8292M  8327M  8516M  8536M  8588M  8616M  8665M  8701M  8729M  8771M  9135   9181M
              9215M  9235   9288M  9308   9354M  9374   9426M  9446   9492M  9512   9559M  9579   9627M  9671   9720M
              9776   9812   9829M  9843M  9844M  9875M  9935   9997M 10076M 10109M 10162M 10195M 10225M 10261  10302M
             10336M 10371  10436M 10507  10615M 10629  10708M 10708  10746M 10824  10953M 10967  11046M 11046  11090M
             11133  11191M 11219M 11235M 11256M 11307M 11344  11400M 11421M 11472M 11584  11683M 11683  11692  11693
             11760M 11789M 11913M 11935M 11974M 12086M 12086  12104M 12136M 12362  12388  12403M 12423  12449  12464M
             12484  12530M 12550  12596M 12616  12663M 12683  12731M 12751  12782M 12809M 12829  12860M 12887M 12928
             12975  13051  13098M 13123M 13123  13176M 13201M 13201  13236M 13379M 13418  13450  13474M 13484  13495M
             13537M 13641M 13659M 13666M 13671M 13674M 13702M 13743  13910  13986  14033M 14058M 14058  14111M 14136M
             14136  14171M 14314M 14401  14445M 14539  14618M 14623  14677M 14677  14686  14687  14730M 14979M 15027M
             15045M 15073M 15109M 15157M 15175M 15203M 15237M 15265M 15404M 15420  15431  15489  15493M 15498  15502
             15728M 15728  15847M 15976  16023M 16043  16091M 16111  16142M 16158M 16178  16210M 16210  16219  16246M
             16246  16257M 16263  16321M 16366  16473M 16487  16566M 16566  16604M 16651  16704M 16704  16713  16714
             16775M 16810M 16838M 16892M 16927M 16955M 17047M 17117M 17117  17203M 17479  17542M 17562  17630M 17657
             17789M 17789  17798  17799  17849M 17895M 17948M 17948  18006M 18006  18031M 18059M 18075M 18096M 18177M
             18594  18728M 18728  18737  18738  18775M 18775  18784  18785  18865M 18875M 18875  18892M 18913M 18954M
             19131  19179M 19231M 19262  19306M 19306  19315  19357M 19357  19403  19404  19465M 19465  19476M 19497M
             19541  19592M 19592  19601  19666M 19666  19672  19673  19734M 19734  19754M 19781M 19837  19869M 19869
             19878  19879  19914M 19969  20001M 20001  20010  20011  20046M 20132  20164  20179M 20201  20233  20248M
             20269  20301  20316M 20338  20370  20385M 20407  20439  20454M 21382  21438M 21466  21513M 21538  21594M
             21622  21678M 21706  21762M 21794  21846  21878M 21891  21955M 22009  22047  22074  22106M 22119  22180M
             22180  22189  22190  22191  22228M 22228  22235  22267M 22280  22363M 22363  22379M 22403M 22474M 22506
             22553M 22553  22562  22603M 22603  22617  22623  22624  22675  22695M 22726M 22726  22746M 22797M 22829
             22876M 22876  22885  22932  22951  22952  23080M 23080  23100M 23157M 23208M 23302  23710M 23728M 23747M
             23774M 23823  23873M 23890  23916M 23917  23918  24000M 24041  24134M 24138  24149M 24149  24158  24159
             24280M 24805  24910M 24931  25029M 25049  25096M 25116  25157M 25182  25213M 25234  25259  25299M 25339
             25404M 25408  25419M 25419  25428  25429  25430  25467  25537  25572  25607  25627M 25628M 25629  25630
             25668  25688M 25689M 25690  25691  25759M 25812  25989M 26069  26494M 26580  26647M 26648  26687  26716M
             26717  26773M 26774  26809M 26813  26852M 26853  26893M 26897  26908M 26908  26917  26918  26976M 27215
             27261M 27314  27359M 27392  27424  27439M 27470  27496M 27516M 27549  27575M 27595M 27662  27761M 27772
             27814M 27814  27823  27824  27870M 27955  27986M 28002M 28023  28069M 28090  28136M 28157  28203M 28224
             28270M 28291  28337M 28372  28458M 28493M 28540M 28587M 28634M 28681M 28714M 28767M 28800M 28842M 28875
             28907M 28907  28916  28917  28918  28959M 28959  28984M 28984  29006M 29034M 29058  29111M 29156M 29188M
             29262  29580M 29609  29657M
     1(1)      978U  2128   2191M  2192M  2198M  6925   7004M  7083   7186   7192M  7225M  7376M  7425M  7438N  7494M
              7498   7550M  7563N  7564N  7566N  7659M  7694M  7734M  7758M  8293M  8328M  8515M  8535M  8587M  8611M
              8664M  8700M  8724M  8771M  9135   9180M  9215M  9235   9288M  9308   9354M  9374   9426M  9446   9492M
              9512   9559M  9579   9627M  9671   9720M  9776   9813   9828M  9842M  9875M  9935   9990M  9991   9996M
             10010M 10075M 10110M 10123M 10161M 10196M 10225M 10261  10301M 10336M 10371  10436M 10507  10610M 10709M
             10746M 10824  10948M 11047M 11090M 11133  11190M 11214M 11234M 11255M 11307M 11344  11399M 11420M 11472M
             11584  11679M 11692N 11693N 11695N 11759M 11788M 11914M 11936M 11975M 12082M 12103M 12136M 12362  12403M
             12423  12464M 12484  12530M 12550  12596M 12616  12663M 12683  12731M 12751  12781M 12809M 12829  12859M
             12887M 12928  12975  13097M 13175M 13236M 13379M 13418  13449  13473M 13494M 13536M 13640M 13658M 13665M
             13672M 13673M 13673N 13702M 13743  13910  14032M 14110M 14171M 14314M 14401  14445M 14539  14617M 14673M
             14686N 14687N 14689N 14729M 14980M 15022M 15044M 15068M 15110M 15152M 15174M 15198M 15236M 15260M 15403M
             15471M 15847M 15976  16023M 16043  16091M 16111  16141M 16158M 16178  16206M 16219N 16256M 16321M 16366
             16468M 16567M 16604M 16651  16700M 16713N 16714N 16716N 16774M 16809M 16833M 16891M 16926M 16950M 17046M
             17203M 17479  17542M 17562  17630M 17657  17718M 17718  17785M 17798N 17799N 17801N 17848M 17894M 18030M
             18054M 18074M 18095M 18177M 18594  18724M 18737N 18738N 18740N 18771M 18784N 18785N 18787N 18864M 18954M
             19131  19184  19186  19231M 19262  19302M 19315N 19475M 19497M 19541  19588M 19601N 19753M 19781M 19837
             19865M 19878N 19879N 19881N 19914M 19969  19997M 20010N 20011N 20013N 20046M 20132  20158M 20179M 20201
             20227M 20248M 20269  20295M 20316M 20338  20364M 20385M 20407  20433M 20454M 21382  21438M 21466  21513M
1         (NFIL2025) (12:49) (15MAR04) General Purpose Register Cross Reference                                             Page  161
             21538  21594M 21622  21678M 21706  21762M 21794  21877M 21955M 22009  22046  22105M 22176M 22189N 22190N
             22191N 22266M 22378M 22402M 22474M 22506  22549M 22562N 22694M 22745M 22797M 22829  22872M 22885N 23099M
             23156M 23208M 23302  23501M 23530M 23709M 23727M 23746M 23774M 23823  23868M 24000M 24041  24129M 24137
             24145M 24158N 24159N 24161N 24280M 24805  24910M 24931  25029M 25049  25096M 25116  25157M 25182  25212M
             25220M 25221M 25221N 25259  25299M 25339  25399M 25407  25415M 25428N 25429N 25430N 25451M 25452M 25452N
             25759M 25812  25870M 25989M 26069  26218M 26219  26245M 26246  26250M 26259M 26259  26266  26309M 26310
             26314M 26323M 26323  26330  26373M 26390  26435  26494M 26580  26642M 26711M 26804M 26812  26851M 26854
             26888M 26896  26904M 26917N 26918N 26920N 26976M 27215  27261M 27314  27359M 27392  27439M 27470  27516M
             27549  27595M 27662  27762M 27772  27810M 27823N 27824N 27826N 27846M 27870M 27955  27985M 28002M 28023
             28069M 28090  28136M 28157  28203M 28224  28270M 28291  28337M 28372  28430M 28457M 28492M 28539M 28586M
             28633M 28680M 28713M 28766M 28799M 28842M 28875  28903M 28916N 28917N 28918N 29001M 29034M 29058  29110M
             29149M 29188M 29262  29374M 29580M 29609  29657M
     2(2)      974U  2128   6925   7004M  7083   7611M  7612   7616M  7625M  7625   7632   7879M  7880M  7881   7893
              8771M  9135   9215M  9235   9288M  9308   9354M  9374   9426M  9446   9492M  9512   9559M  9579   9627M
              9671   9700M  9720M  9776   9835M  9839M  9848M  9849M  9850   9875M  9935  10001M 10002M 10003  10080M
             10081M 10082  10166M 10167M 10168  10225M 10261  10336M 10371  10436M 10507  10746M 10824  11090M 11133
             11307M 11344  11472M 11584  12076M 12082  12136M 12362  12403M 12423  12464M 12484  12530M 12550  12596M
             12616  12663M 12683  12731M 12751  12809M 12829  12887M 12928  12969M 12970M 12971  13040M 13293M 13307
             13319  13336M 13346  13379M 13418  13449M 13665N 13672  13702M 13743  13777M 13778M 13779  13786D 13788M
             13788  13789M 13790U 13791M 13803  13809  13975M 14228M 14242  14254  14271M 14281  14314M 14401  14445M
             14539  14623M 14624  14628M 14637M 14637  14644  14778M 14779  14783M 14792M 14792  14799  14818M 14819
             14823M 14832M 14832  14839  14873M 14874  14878M 14887M 14887  14894  14917M 14918  14922M 14931M 14931
             14938  14981M 15111M 15322M 15323  15327M 15336M 15336  15343  15362M 15363  15367M 15376M 15376  15383
             15431M 15435M 15444M 15444  15451  15470M 15499  15506M 15515M 15515  15522  15556M 15557  15561M 15570M
             15570  15577  15618M 15619  15623M 15632M 15632  15639  15658M 15659  15663M 15672M 15672  15679  15773M
             15774  15778M 15787M 15787  15794  15847M 15976  16023M 16043  16091M 16111  16158M 16178  16263M 16264
             16268M 16277M 16277  16284  16321M 16366  16604M 16651  17203M 17479  17542M 17562  17630M 17657  18177M
             18594  18954M 19131  19198M 19204M 19231M 19262  19497M 19541  19756M 19781M 19837  19914M 19969  20046M
             20132  20179M 20201  20248M 20269  20316M 20338  20385M 20407  20454M 21382  21438M 21466  21513M 21538
             21594M 21622  21678M 21706  21762M 21794  21880M 21955M 22009  22108M 22269M 22393M 22405M 22474M 22506
             22697M 22748M 22797M 22829  22917M 22918M 22918N 23102M 23147M 23159M 23208M 23302  23774M 23823  23918M
             23922M 23931M 23931  23938  24000M 24041  24280M 24805  24910M 24931  25029M 25049  25096M 25116  25157M
             25182  25299M 25339  25759M 25812  25989M 26069  26135M 26156M 26182M 26204M 26213M 26219M 26220  26374M
             26376M 26390  26426M 26434M 26435M 26436  26440M 26449M 26449  26456  26494M 26580  26648M 26652M 26661M
             26661  26668  26717M 26738M 26747M 26747  26754  26826M 26830M 26856M 26860M 26976M 27215  27261M 27314
             27340M 27359M 27392  27418M 27439M 27470  27497M 27516M 27549  27576M 27595M 27662  27870M 27955  28002M
             28023  28069M 28090  28136M 28157  28203M 28224  28270M 28291  28337M 28372  28842M 28875  29034M 29058
             29188M 29262  29580M 29609  29657M
     3(3)      970U  2128   6925   7004M  7083   7202M  7214   7235M  7244M  7244   7251   7327M  7329M  8771M  9135
              9215M  9235   9288M  9308   9354M  9374   9426M  9446   9492M  9512   9559M  9579   9627M  9671   9720M
              9776   9836M  9838   9839M  9875M  9935  10225M 10261  10336M 10371  10436M 10507  10746M 10824  11090M
             11133  11307M 11344  11472M 11584  12136M 12362  12403M 12423  12464M 12484  12530M 12550  12596M 12616
             12663M 12683  12731M 12751  12809M 12829  12887M 12928  13041M 13051  13059M 13061  13266M 13285M 13286M
             13319  13346  13379M 13418  13450M 13484  13501  13630  13671  13702M 13743  13976M 13986  13994M 13996
             14201M 14220M 14221M 14254  14281  14314M 14401  14445M 14539  14982M 15112M 15488M 15489M 15490  15498M
             15499M 15500  15501M 15502M 15847M 15976  16023M 16043  16091M 16111  16158M 16178  16321M 16366  16604M
             16651  17203M 17479  17542M 17562  17630M 17657  18177M 18594  18954M 19131  19199M 19204M 19231M 19262
             19404M 19407M 19409  19497M 19541  19673M 19676M 19678  19781M 19837  19914M 19969  20046M 20132  20179M
             20201  20248M 20269  20316M 20338  20385M 20407  20454M 21382  21438M 21466  21513M 21538  21594M 21622
             21678M 21706  21762M 21794  21840M 21841M 21842  21891M 21897M 21906M 21906  21913  21955M 22009  22068M
             22069M 22070  22119M 22125M 22134M 22134  22141  22169M 22170M 22171  22280M 22286M 22295M 22295  22302
             22474M 22506  22624M 22627M 22629  22797M 22829  22952M 22955M 22957  23208M 23302  23774M 23823  24000M
             24041  24280M 24805  24910M 24931  25029M 25049  25096M 25116  25157M 25182  25299M 25339  25630M 25633M
             25635  25691M 25694M 25696  25759M 25812  25989M 26069  26494M 26580  26824M 26825  26827M 26829  26830M
             26853M 26855  26856M 26857M 26859  26860M 26861M 26862M 26863M 26864  26976M 27215  27261M 27314  27359M
             27392  27439M 27470  27516M 27549  27595M 27662  27870M 27955  28002M 28023  28069M 28090  28136M 28157
             28203M 28224  28270M 28291  28337M 28372  28842M 28875  29034M 29058  29188M 29262  29580M 29609  29657M
     4(4)      966U  2128   6925   7004M  7083   8771M  9135   9215M  9235   9288M  9308   9354M  9374   9426M  9446
              9492M  9512   9559M  9579   9627M  9671   9720M  9776   9837M  9839M  9875M  9935  10225M 10261  10336M
1         (NFIL2025) (12:49) (15MAR04) General Purpose Register Cross Reference                                             Page  162
             10371  10436M 10507  10578M 10586U 10746M 10764U 10824  10916M 10924U 11090M 11108U 11133  11307M 11344
             11472M 11584  12136M 12362  12403M 12423  12464M 12484  12530M 12550  12596M 12616  12663M 12683  12731M
             12751  12809M 12829  12887M 12928  13379M 13418  13501M 13504M 13506  13702M 13743  14314M 14401  14445M
             14539  15847M 15976  16023M 16043  16091M 16111  16158M 16178  16321M 16366  16440M 16448U 16604M 16622U
             16651  17203M 17479  17542M 17562  17630M 17657  18177M 18594  18954M 19131  19204M 19231M 19262  19497M
             19541  19781M 19837  19914M 19969  20046M 20132  20179M 20201  20248M 20269  20316M 20338  20385M 20407
             20454M 21382  21438M 21466  21513M 21538  21594M 21622  21678M 21706  21762M 21794  21834M 21835M 21892M
             21893M 21955M 22009  22062M 22063M 22120M 22121M 22163M 22164M 22281M 22282M 22474M 22506  22797M 22829
             23208M 23302  23774M 23823  24000M 24041  24280M 24805  24910M 24931  25029M 25049  25096M 25116  25157M
             25182  25299M 25339  25759M 25812  25989M 26069  26494M 26580  26828M 26830M 26854M 26856M 26858M 26860M
             26976M 27215  27261M 27314  27359M 27392  27439M 27470  27516M 27549  27595M 27662  27870M 27955  28002M
             28023  28069M 28090  28136M 28157  28203M 28224  28270M 28291  28337M 28372  28842M 28875  29034M 29058
             29188M 29262  29580M 29609  29657M
     5(5)      962U  2128   6925   6956M  6964U  7004M  7015U  7083   7170M  7178U  8771M  9135   9215M  9235   9288M
              9308   9354M  9374   9426M  9446   9492M  9512   9559M  9579   9627M  9646U  9671   9720M  9776   9838M
              9839M  9875M  9935  10225M 10261  10336M 10371  10436M 10507  10746M 10824  11090M 11133  11307M 11344
             11472M 11584  11644M 11652U 12136M 12147U 12362  12403M 12423  12464M 12484  12530M 12550  12596M 12616
             12663M 12683  12731M 12751  12809M 12829  12887M 12928  13379M 13418  13702M 13743  14314M 14401  14445M
             14539  14602M 14610U 15847M 15976  16023M 16043  16091M 16111  16158M 16178  16321M 16366  16604M 16651
             17203M 17479  17542M 17562  17630M 17657  18177M 18594  18954M 19131  19203M 19203  19204M 19231M 19262
             19497M 19541  19781M 19837  19914M 19969  20046M 20132  20179M 20201  20248M 20269  20316M 20338  20385M
             20407  20454M 21382  21438M 21466  21513M 21538  21594M 21622  21678M 21706  21762M 21794  21845M 21846M
             21858  21932  21955M 22009  22073M 22074M 22086  22160  22234M 22235M 22247  22321  22474M 22506  22797M
             22829  23208M 23302  23774M 23823  24000M 24041  24280M 24805  24910M 24931  25029M 25049  25096M 25116
             25157M 25182  25299M 25339  25759M 25812  25989M 26069  26494M 26580  26829M 26830M 26855M 26856M 26859M
             26860M 26976M 27215  27261M 27314  27359M 27392  27439M 27470  27516M 27549  27595M 27662  27870M 27955
             28002M 28023  28069M 28090  28136M 28157  28203M 28224  28270M 28291  28337M 28372  28842M 28875  29034M
             29058  29188M 29262  29580M 29609  29657M
     6(6)      958U  2128   6925   7004M  7083   7146M  7154U  7156   8771M  9135   9215M  9235   9288M  9308   9354M
              9374   9426M  9446   9492M  9512   9559M  9579   9627M  9639U  9671   9720M  9776   9815M  9823U  9875M
              9886U  9935   9986U 10225M 10236U 10261  10287M 10295U 10336M 10347U 10371  10397M 10405U 10436M 10447U
             10507  10543M 10551U 10746M 10757U 10824  10860M 10868U 11090M 11101U 11133  11159M 11167U 11307M 11318U
             11344  11370M 11378U 11472M 11483U 11584  11621M 11629U 11631  12136M 12362  12403M 12423  12464M 12484
             12530M 12550  12596M 12616  12663M 12683  12731M 12751  12809M 12829  12887M 12898U 12928  12954M 12962U
             13379M 13418  13444M 13702M 13743  13769M 14314M 14401  14445M 14539  14575M 14583U 14586U 15847M 15976
             16023M 16043  16091M 16111  16158M 16178  16321M 16366  16402M 16410U 16413U 16604M 16615U 16651  16682M
             16690U 17203M 17264U 17479  17505M 17513U 17526U 17542M 17562  17630M 17657  17760M 17768U 18177M 18228U
             18594  18690M 18698U 18954M 18990U 19131  19186M 19194U 19231M 19262  19294M 19497M 19508U 19541  19573M
             19581U 19781M 19792U 19837  19914M 19969  20046M 20132  20179M 20201  20248M 20269  20316M 20338  20385M
             20407  20454M 21382  21408M 21416U 21438M 21449U 21466  21513M 21538  21564M 21572U 21594M 21605U 21622
             21648M 21656U 21678M 21689U 21706  21732M 21740U 21762M 21773U 21794  21822M 21830U 21955M 21966U 22009
             22050M 22058U 22474M 22485U 22506  22534M 22542U 22797M 22808U 22829  22857M 22865U 23208M 23219U 23302
             23335M 23343U 23774M 23785U 23823  23856U 24000M 24011U 24041  24074U 24280M 24805  24910M 24931  25029M
             25049  25096M 25116  25157M 25182  25299M 25310U 25339  25372U 25743U 25759M 25812  25849M 25857U 25989M
             26000U 26069  26101M 26109U 26494M 26505U 26580  26622M 26630U 26976M 26987U 27215  27261M 27314  27359M
             27392  27439M 27470  27516M 27549  27595M 27662  27787M 27795U 27870M 27955  28002M 28023  28069M 28090
             28136M 28157  28203M 28224  28270M 28291  28337M 28348U 28372  28408M 28416U 28842M 28853U 28875  29034M
             29058  29188M 29262  29289M 29298M 29298  29318U 29580M 29591U 29609  29657M
     7(7)      954U  2121M  2121   2122B  2128   2134B  6925   6930M  6942U  6996U  7004M  7083   7089M  7101U  8763U
              8771M  9135   9140M  9152U  9207U  9215M  9235   9240M  9252U  9280U  9288M  9308   9313M  9325U  9346U
              9354M  9374   9379M  9391U  9418U  9426M  9446   9451M  9463U  9484U  9492M  9512   9517M  9529U  9551U
              9559M  9579   9584M  9596U  9619U  9627M  9671   9676M  9688U  9712U  9720M  9776   9782M  9794U  9867U
              9875M  9935   9941M  9953U 10217U 10225M 10261  10266M 10278U 10328U 10336M 10371  10376M 10388U 10428U
             10436M 10507  10513M 10525U 10738U 10746M 10824  10830M 10842U 11082U 11090M 11133  11138M 11150U 11299U
             11307M 11344  11349M 11361U 11464U 11472M 11584  11590M 11602U 12128U 12136M 12362  12367M 12379U 12395U
             12403M 12423  12428M 12440U 12456U 12464M 12484  12489M 12501U 12522U 12530M 12550  12555M 12567U 12588U
             12596M 12616  12621M 12633U 12655U 12663M 12683  12688M 12700U 12723U 12731M 12751  12756M 12768U 12801U
             12809M 12829  12834M 12846U 12879U 12887M 12928  12933M 12945U 13371U 13379M 13418  13423M 13435U 13694U
             13702M 13743  13748M 13760U 14306U 14314M 14401  14406M 14418U 14437U 14445M 14539  14545M 14557U 15839U
1         (NFIL2025) (12:49) (15MAR04) General Purpose Register Cross Reference                                             Page  163
             15847M 15976  15981M 15993U 16015U 16023M 16043  16048M 16060U 16083U 16091M 16111  16116M 16128U 16150U
             16158M 16178  16183M 16195U 16313U 16321M 16366  16372M 16384U 16596U 16604M 16651  16656M 16668U 17195U
             17203M 17479  17484M 17496U 17534U 17542M 17562  17567M 17579U 17622U 17630M 17657  17662M 17674U 18169U
             18177M 18594  18599M 18611U 18946U 18954M 19131  19136M 19148U 19223U 19231M 19262  19267M 19279U 19489U
             19497M 19541  19546M 19558U 19773U 19781M 19837  19842M 19854U 19906U 19914M 19969  19974M 19986U 20038U
             20046M 20132  20137M 20149U 20171U 20179M 20201  20206M 20218U 20240U 20248M 20269  20274M 20286U 20308U
             20316M 20338  20343M 20355U 20377U 20385M 20407  20412M 20424U 20446U 20454M 21382  21387M 21399U 21430U
             21438M 21466  21471M 21483U 21505U 21513M 21538  21543M 21555U 21586U 21594M 21622  21627M 21639U 21670U
             21678M 21706  21711M 21723U 21754U 21762M 21794  21799M 21811U 21947U 21955M 22009  22015M 22027U 22466U
             22474M 22506  22511M 22523U 22789U 22797M 22829  22834M 22846U 23200U 23208M 23302  23307M 23319U 23766U
             23774M 23823  23828M 23840U 23992U 24000M 24041  24046M 24058U 24272U 24280M 24805  24810M 24822U 24902U
             24910M 24931  24936M 24948U 25021U 25029M 25049  25054M 25066U 25088U 25096M 25116  25121M 25133U 25149U
             25157M 25182  25187M 25199U 25291U 25299M 25339  25344M 25356U 25751U 25759M 25812  25818M 25830U 25981U
             25989M 26069  26074M 26086U 26486U 26494M 26580  26586M 26598U 26968U 26976M 27215  27220M 27232U 27253U
             27261M 27314  27319M 27331U 27351U 27359M 27392  27397M 27409U 27431U 27439M 27470  27475M 27487U 27508U
             27516M 27549  27554M 27566U 27587U 27595M 27662  27668M 27680U 27862U 27870M 27955  27960M 27972U 27994U
             28002M 28023  28028M 28040U 28061U 28069M 28090  28095M 28107U 28128U 28136M 28157  28162M 28174U 28195U
             28203M 28224  28229M 28241U 28262U 28270M 28291  28296M 28308U 28329U 28337M 28372  28378M 28390U 28834U
             28842M 28875  28880M 28892U 29026U 29034M 29058  29063M 29075U 29180U 29188M 29262  29267M 29279U 29572U
             29580M 29609  29614M 29626U 29649U 29657M
     8(8)      950U  2128   6925   6926M  7000   7004M  7083   7085M  7115U  8758U  8767   8771M  9135   9136M  9211
              9215M  9235   9236M  9284   9288M  9308   9309M  9350   9354M  9374   9375M  9422   9426M  9446   9447M
              9488   9492M  9512   9513M  9555   9559M  9579   9580M  9623   9627M  9671   9672M  9716   9720M  9776
              9778M  9808U  9862U  9871   9875M  9935   9937M  9967U 10212U 10221  10225M 10261  10262M 10332  10336M
             10371  10372M 10432  10436M 10507  10509M 10539U 10733U 10742  10746M 10824  10826M 10856U 11077U 11086
             11090M 11133  11134M 11303  11307M 11344  11345M 11468  11472M 11584  11586M 11616U 12123U 12132  12136M
             12362  12363M 12399  12403M 12423  12424M 12460  12464M 12484  12485M 12526  12530M 12550  12551M 12592
             12596M 12616  12617M 12659  12663M 12683  12684M 12727  12731M 12751  12752M 12805  12809M 12829  12830M
             12883  12887M 12928  12929M 13375  13379M 13418  13419M 13698  13702M 13743  13744M 14310  14314M 14401
             14402M 14441  14445M 14539  14541M 14571U 15834U 15843  15847M 15976  15977M 16019  16023M 16043  16044M
             16087  16091M 16111  16112M 16154  16158M 16178  16179M 16317  16321M 16366  16368M 16398U 16591U 16600
             16604M 16651  16652M 17199  17203M 17479  17480M 17538  17542M 17562  17563M 17626  17630M 17657  17658M
             18173  18177M 18594  18595M 18950  18954M 19131  19132M 19227  19231M 19262  19263M 19493  19497M 19541
             19542M 19777  19781M 19837  19838M 19910  19914M 19969  19970M 20042  20046M 20132  20133M 20164N 20175
             20179M 20201  20202M 20233N 20244  20248M 20269  20270M 20301N 20312  20316M 20338  20339M 20370N 20381
             20385M 20407  20408M 20439N 20450  20454M 21382  21383M 21434  21438M 21466  21467M 21509  21513M 21538
             21539M 21590  21594M 21622  21623M 21674  21678M 21706  21707M 21758  21762M 21794  21795M 21951  21955M
             22009  22011M 22041U 22461U 22470  22474M 22506  22507M 22793  22797M 22829  22830M 23204  23208M 23302
             23303M 23770  23774M 23823  23824M 23996  24000M 24041  24042M 24276  24280M 24805  24806M 24906  24910M
             24931  24932M 25025  25029M 25049  25050M 25092  25096M 25116  25117M 25153  25157M 25182  25183M 25259
             25295  25299M 25339  25340M 25755  25759M 25812  25814M 25844U 25976U 25985  25989M 26069  26070M 26490
             26494M 26580  26582M 26612U 26963U 26972  26976M 27215  27216M 27257  27261M 27314  27315M 27355  27359M
             27392  27393M 27424N 27435  27439M 27470  27471M 27512  27516M 27549  27550M 27591  27595M 27662  27664M
             27694U 27857U 27866  27870M 27955  27956M 27998  28002M 28023  28024M 28065  28069M 28090  28091M 28132
             28136M 28157  28158M 28199  28203M 28224  28225M 28266  28270M 28291  28292M 28333  28337M 28372  28374M
             28404U 28829U 28838  28842M 28875  28876M 29030  29034M 29058  29059M 29184  29188M 29262  29263M 29576
             29580M 29609  29610M 29653  29657M
     9(9)      946U  2128
    10(A)      942U  2128
    11(B)      938U  1192U  2128
    12(C)      934U  1201U  2128
    13(D)      930U  2128   6922   6925   6926   6927M  6927   7000M  7004   7006   7080   7083   7085   7086M  7086
              7186   7187M  7187   7375M  7376   7420   7422M  7422   7433   7434   7435   7437M  7437   7447M  7448
              7449   7450   7461M  7558   7559   7560   7562M  7562   7575M  7576   7577   7578   8767M  8771   8773
              9132   9135   9136   9137M  9137   9211M  9215   9217   9232   9235   9236   9237M  9237   9284M  9288
              9290   9305   9308   9309   9310M  9310   9350M  9354   9356   9371   9374   9375   9376M  9376   9422M
              9426   9428   9443   9446   9447   9448M  9448   9488M  9492   9494   9509   9512   9513   9514M  9514
              9555M  9559   9561   9576   9579   9580   9581M  9581   9623M  9627   9629   9668   9671   9672   9673M
              9673   9716M  9720   9722   9773   9776   9778   9779M  9779   9871M  9875   9877   9932   9935   9937
1         (NFIL2025) (12:49) (15MAR04) General Purpose Register Cross Reference                                             Page  164
              9938M  9938  10221M 10225  10227  10258  10261  10262  10263M 10263  10332M 10336  10338  10368  10371
             10372  10373M 10373  10432M 10436  10438  10504  10507  10509  10510M 10510  10742M 10746  10748  10821
             10824  10826  10827M 10827  11086M 11090  11092  11130  11133  11134  11135M 11135  11303M 11307  11309
             11341  11344  11345  11346M 11346  11468M 11472  11474  11581  11584  11586  11587M 11587  11687  11688
             11689  11691M 11691  11704M 11705  11706  11707  12132M 12136  12138  12359  12362  12363  12364M 12364
             12399M 12403  12405  12420  12423  12424  12425M 12425  12460M 12464  12466  12481  12484  12485  12486M
             12486  12526M 12530  12532  12547  12550  12551  12552M 12552  12592M 12596  12598  12613  12616  12617
             12618M 12618  12659M 12663  12665  12680  12683  12684  12685M 12685  12727M 12731  12733  12748  12751
             12752  12753M 12753  12805M 12809  12811  12826  12829  12830  12831M 12831  12883M 12887  12889  12925
             12928  12929  12930M 12930  12975  12976M 12976  13235M 13236  13375M 13379  13381  13415  13418  13419
             13420M 13420  13698M 13702  13704  13740  13743  13744  13745M 13745  13910  13911M 13911  14170M 14171
             14310M 14314  14316  14398  14401  14402  14403M 14403  14441M 14445  14447  14536  14539  14541  14542M
             14542  14681  14682  14683  14685M 14685  14698M 14699  14700  14701  15843M 15847  15849  15973  15976
             15977  15978M 15978  16019M 16023  16025  16040  16043  16044  16045M 16045  16087M 16091  16093  16108
             16111  16112  16113M 16113  16154M 16158  16160  16175  16178  16179  16180M 16180  16214  16215  16216
             16218M 16218  16228M 16229  16230  16231  16317M 16321  16323  16363  16366  16368  16369M 16369  16600M
             16604  16606  16648  16651  16652  16653M 16653  16708  16709  16710  16712M 16712  16725M 16726  16727
             16728  17199M 17203  17205  17476  17479  17480  17481M 17481  17538M 17542  17544  17559  17562  17563
             17564M 17564  17626M 17630  17632  17654  17657  17658  17659M 17659  17793  17794  17795  17797M 17797
             17810M 17811  17812  17813  18173M 18177  18179  18591  18594  18595  18596M 18596  18732  18733  18734
             18736M 18736  18749M 18750  18751  18752  18779  18780  18781  18783M 18783  18796M 18797  18798  18799
             18950M 18954  18956  19128  19131  19132  19133M 19133  19227M 19231  19233  19259  19262  19263  19264M
             19264  19310  19311  19312  19314M 19314  19324M 19325  19326  19327  19493M 19497  19499  19538  19541
             19542  19543M 19543  19596  19597  19598  19600M 19600  19610M 19611  19612  19613  19777M 19781  19783
             19834  19837  19838  19839M 19839  19873  19874  19875  19877M 19877  19890M 19891  19892  19893  19910M
             19914  19916  19966  19969  19970  19971M 19971  20005  20006  20007  20009M 20009  20022M 20023  20024
             20025  20042M 20046  20048  20129  20132  20133  20134M 20134  20175M 20179  20181  20198  20201  20202
             20203M 20203  20244M 20248  20250  20266  20269  20270  20271M 20271  20312M 20316  20318  20335  20338
             20339  20340M 20340  20381M 20385  20387  20404  20407  20408  20409M 20409  20450M 20454  20456  21379
             21382  21383  21384M 21384  21434M 21438  21440  21463  21466  21467  21468M 21468  21509M 21513  21515
             21535  21538  21539  21540M 21540  21590M 21594  21596  21619  21622  21623  21624M 21624  21674M 21678
             21680  21703  21706  21707  21708M 21708  21758M 21762  21764  21791  21794  21795  21796M 21796  21951M
             21955  21957  22006  22009  22011  22012M 22012  22184  22185  22186  22188M 22188  22200M 22201  22202
             22203  22470M 22474  22476  22503  22506  22507  22508M 22508  22557  22558  22559  22561M 22561  22571M
             22572  22573  22574  22793M 22797  22799  22826  22829  22830  22831M 22831  22880  22881  22882  22884M
             22884  22894M 22895  22896  22897  23204M 23208  23210  23299  23302  23303  23304M 23304  23331  23333M
             23333  23758M 23770M 23774  23776  23820  23823  23824  23825M 23825  23996M 24000  24002  24038  24041
             24042  24043M 24043  24107  24109M 24109  24153  24154  24155  24157M 24157  24170M 24171  24172  24173
             24264M 24276M 24280  24282  24802  24805  24806  24807M 24807  24906M 24910  24912  24928  24931  24932
             24933M 24933  25025M 25029  25031  25046  25049  25050  25051M 25051  25092M 25096  25098  25113  25116
             25117  25118M 25118  25153M 25157  25159  25179  25182  25183  25184M 25184  25295M 25299  25301  25336
             25339  25340  25341M 25341  25377  25379M 25379  25423  25424  25425  25427M 25427  25439M 25440  25441
             25442  25755M 25759  25761  25809  25812  25814  25815M 25815  25985M 25989  25991  26066  26069  26070
             26071M 26071  26490M 26494  26496  26577  26580  26582  26583M 26583  26619  26621M 26621  26912  26913
             26914  26916M 26916  26929M 26930  26931  26932  26955M 26972M 26976  26978  27212  27215  27216  27217M
             27217  27257M 27261  27263  27311  27314  27315  27316M 27316  27355M 27359  27361  27389  27392  27393
             27394M 27394  27435M 27439  27441  27467  27470  27471  27472M 27472  27512M 27516  27518  27546  27549
             27550  27551M 27551  27591M 27595  27597  27659  27662  27664  27665M 27665  27818  27819  27820  27822M
             27822  27835M 27836  27837  27838  27866M 27870  27872  27952  27955  27956  27957M 27957  27998M 28002
             28004  28020  28023  28024  28025M 28025  28065M 28069  28071  28087  28090  28091  28092M 28092  28132M
             28136  28138  28154  28157  28158  28159M 28159  28199M 28203  28205  28221  28224  28225  28226M 28226
             28266M 28270  28272  28288  28291  28292  28293M 28293  28333M 28337  28339  28369  28372  28374  28375M
             28375  28838M 28842  28844  28872  28875  28876  28877M 28877  28911  28912  28913  28915M 28915  28927M
             28928  28929  28930  29030M 29034  29036  29055  29058  29059  29060M 29060  29184M 29188  29190  29259
             29262  29263  29264M 29264  29576M 29580  29582  29606  29609  29610  29611M 29611  29653M 29657  29659
    14(E)      926U  2128   2129M  2143   2144M  2145B  2147M  2148B  2168M  2169B  2173M  2174B  2176M  2177B  2179M
              2180B  2182M  2183B  2185M  2186M  2186B  2192   6922   6954M  6955M  6955B  6985M  6986M  6986B  7006M
              7009B  7080   7139M  7140M  7140B  7168M  7169M  7169B  7191M  7192N  7193N  7197M  7197   7200M  7201M
              7201B  7419M  7420   7432M  7433   7434   7435   7441M  7442M  7442B  7445M  7448   7449   7450   7455M
1         (NFIL2025) (12:49) (15MAR04) General Purpose Register Cross Reference                                             Page  165
              7456M  7456B  7459M  7462   7497M  7498N  7499N  7503M  7503   7512M  7513M  7513B  7516M  7517M  7517B
              7557M  7558   7559   7560   7565M  7566   7569M  7570M  7570B  7573M  7576   7577   7578   7583M  7584M
              7584B  7589M  7590M  7590B  7666M  7667M  7667B  7706M  7707M  7707B  7710M  7711M  7711B  7746M  7747M
              7747B  7774M  7775M  7775B  7786M  7787M  7787B  7826M  7831M  7831   7834M  7835M  7835B  7854M  7855M
              7855B  7946M  7947M  7947B  7957M  7958M  7958B  8029M  8030M  8030B  8040M  8041M  8041B  8113M  8114M
              8114B  8124M  8125M  8125B  8195M  8196M  8196B  8206M  8207M  8207B  8257M  8258M  8258B  8296M  8297M
              8297B  8331M  8332M  8332B  8344M  8345M  8345B  8399M  8400M  8400B  8457M  8458M  8458B  8476M  8477M
              8477B  8511M  8512M  8512B  8563M  8564M  8564B  8599M  8600M  8600B  8627M  8628M  8628B  8654M  8655M
              8655B  8658M  8659M  8659B  8676M  8677M  8677B  8712M  8713M  8713B  8740M  8741M  8741B  8773M  8776B
              9132   9195M  9196M  9196B  9217M  9220B  9232   9290M  9293B  9305   9356M  9359B  9371   9428M  9431B
              9443   9494M  9497B  9509   9561M  9564B  9576   9629M  9632B  9668   9703M  9704M  9704B  9722M  9725B
              9773   9832M  9833M  9833B  9853M  9854M  9854B  9877M  9880B  9932  10006M 10007M 10007B 10017M 10018M
             10018B 10035M 10036M 10036B 10085M 10086M 10086B 10090M 10095M 10095  10105M 10106M 10106B 10113M 10114M
             10114B 10127M 10128M 10128B 10139M 10140M 10140B 10171M 10172M 10172B 10176M 10181M 10181  10191M 10192M
             10192B 10199M 10200M 10200B 10227M 10230B 10258  10305M 10306M 10306B 10319M 10320M 10320B 10338M 10341B
             10368  10419M 10420M 10420B 10438M 10441B 10504  10600M 10601M 10601B 10712M 10713M 10713B 10748M 10751B
             10821  10938M 10939M 10939B 11050M 11051M 11051B 11068M 11069M 11069B 11092M 11095B 11130  11202M 11203M
             11203B 11230M 11231M 11231B 11238M 11239M 11239B 11267M 11268M 11268B 11290M 11291M 11291B 11309M 11312B
             11341  11403M 11404M 11404B 11432M 11433M 11433B 11455M 11456M 11456B 11474M 11477B 11581  11642M 11643M
             11643B 11673M 11674M 11674B 11686M 11687  11688  11689  11694M 11695  11698M 11699M 11699B 11702M 11705
             11706  11707  11712M 11713M 11713B 11718M 11719M 11719B 11805M 11806M 11806B 11811M 11812M 11812B 11853M
             11858M 11858  11861M 11862M 11862B 11917M 11918M 11918B 11939M 11940M 11940B 11978M 11979M 11979B 12002M
             12003M 12003B 12006M 12007M 12007B 12017M 12018M 12018B 12097M 12098M 12098B 12138M 12141B 12359  12405M
             12408B 12420  12466M 12469B 12481  12532M 12535B 12547  12598M 12601B 12613  12665M 12668B 12680  12733M
             12736B 12748  12793M 12794M 12794B 12811M 12814B 12826  12871M 12872M 12872B 12889M 12892B 12925  13109M
             13110M 13110B 13134M 13135M 13135B 13187M 13188M 13188B 13212M 13213M 13213B 13257M 13258M 13258B 13328M
             13329M 13329B 13381M 13384B 13415  13592M 13593M 13593B 13596M 13597M 13597B 13652M 13653M 13653B 13669M
             13670M 13670B 13677M 13678M 13678B 13704M 13707B 13740  13832M 13833M 13833B 13836M 13837M 13837B 13892M
             13893M 13893B 13896M 13897M 13897B 14044M 14045M 14045B 14069M 14070M 14070B 14122M 14123M 14123B 14147M
             14148M 14148B 14192M 14193M 14193B 14263M 14264M 14264B 14316M 14319B 14398  14447M 14450B 14536  14600M
             14601M 14601B 14616M 14617N 14618N 14622M 14622  14667M 14668M 14668B 14680M 14681  14682  14683  14688M
             14689  14692M 14693M 14693B 14696M 14699  14700  14701  14706M 14707M 14707B 14740M 14741M 14741B 14776M
             14777M 14777B 14915M 14916M 14916B 14985M 14986M 14986B 15006M 15007M 15007B 15038M 15039M 15039B 15056M
             15057M 15057B 15084M 15085M 15085B 15115M 15116M 15116B 15136M 15137M 15137B 15168M 15169M 15169B 15186M
             15187M 15187B 15214M 15215M 15215B 15248M 15249M 15249B 15276M 15277M 15277B 15320M 15321M 15321B 15407M
             15408M 15408B 15616M 15617M 15617B 15703M 15704M 15704B 15739M 15740M 15740B 15815M 15816M 15816B 15849M
             15852B 15973  16025M 16028B 16040  16093M 16096B 16108  16160M 16163B 16175  16213M 16214  16215  16216
             16222M 16223M 16223B 16226M 16229  16230  16231  16236M 16237M 16237B 16323M 16326B 16363  16570M 16571M
             16571B 16606M 16609B 16648  16680M 16681M 16681B 16696M 16697M 16697B 16707M 16708  16709  16710  16715M
             16716  16719M 16720M 16720B 16723M 16726  16727  16728  16733M 16734M 16734B 16737M 16738M 16738B 16741M
             16742M 16742B 16763M 16764M 16764B 16768M 16769M 16769B 16786M 16787M 16787B 16821M 16822M 16822B 16849M
             16850M 16850B 16880M 16881M 16881B 16885M 16886M 16886B 16903M 16904M 16904B 16938M 16939M 16939B 16966M
             16967M 16967B 16996M 16997M 16997B 17050M 17051M 17051B 17128M 17129M 17129B 17139M 17140M 17140B 17182M
             17183M 17183B 17205M 17208B 17476  17544M 17547B 17559  17606M 17607M 17607B 17614M 17615M 17615B 17632M
             17635B 17654  17721M 17722M 17722B 17742M 17743M 17743B 17758M 17759M 17759B 17774M 17775M 17775B 17792M
             17793  17794  17795  17800M 17801  17804M 17805M 17805B 17808M 17811  17812  17813  17818M 17819M 17819B
             17822M 17823M 17823B 17826M 17827M 17827B 17905M 17906M 17906B 17959M 17960M 17960B 17970M 17971M 17971B
             18017M 18018M 18018B 18042M 18043M 18043B 18070M 18071M 18071B 18078M 18079M 18079B 18107M 18108M 18108B
             18156M 18157M 18157B 18179M 18182B 18591  18688M 18689M 18689B 18704M 18705M 18705B 18731M 18732  18733
             18734  18739M 18740  18743M 18744M 18744B 18747M 18750  18751  18752  18778M 18779  18780  18781  18786M
             18787  18790M 18791M 18791B 18794M 18797  18798  18799  18808M 18809M 18809B 18812M 18813M 18813B 18816M
             18817M 18817B 18920M 18921M 18921B 18956M 18959B 19128  19182M 19183M 19183B 19233M 19236B 19259  19292M
             19293M 19293B 19309M 19310  19311  19312  19318M 19319M 19319B 19322M 19325  19326  19327  19332M 19333M
             19333B 19397M 19398M 19398B 19499M 19502B 19538  19571M 19572M 19572B 19595M 19596  19597  19598  19604M
             19605M 19605B 19608M 19611  19612  19613  19743M 19744  19744  19748M 19748  19759M 19760M 19760B 19783M
             19786B 19834  19872M 19873  19874  19875  19880M 19881  19884M 19885M 19885B 19888M 19891  19892  19893
             19898M 19899M 19899B 19916M 19919B 19966  20004M 20005  20006  20007  20012M 20013  20016M 20017M 20017B
             20020M 20023  20024  20025  20030M 20031M 20031B 20048M 20051B 20129  20161M 20162M 20162B 20181M 20184B
             20198  20230M 20231M 20231B 20250M 20253B 20266  20298M 20299M 20299B 20318M 20321B 20335  20367M 20368M
1         (NFIL2025) (12:49) (15MAR04) General Purpose Register Cross Reference                                             Page  166
             20368B 20387M 20390B 20404  20436M 20437M 20437B 20456M 20459B 21379  21440M 21443B 21463  21495M 21496M
             21496B 21515M 21518B 21535  21596M 21599B 21619  21680M 21683B 21703  21764M 21767B 21791  21867M 21868
             21868  21872M 21872  21883M 21884M 21884B 21957M 21960B 22006  22095M 22096  22096  22100M 22100  22111M
             22112M 22112B 22183M 22184  22185  22186  22194M 22195M 22195B 22198M 22201  22202  22203  22256M 22257
             22257  22261M 22261  22272M 22273M 22273B 22372M 22373  22373  22377M 22377  22396M 22397M 22397B 22408M
             22409M 22409B 22476M 22479B 22503  22556M 22557  22558  22559  22565M 22566M 22566B 22569M 22572  22573
             22574  22684M 22685  22685  22689M 22689  22700M 22701M 22701B 22735M 22736  22736  22740M 22740  22751M
             22752M 22752B 22799M 22802B 22826  22879M 22880  22881  22882  22888M 22889M 22889B 22892M 22895  22896
             22897  22994M 22995M 22995B 23089M 23090  23090  23094M 23094  23105M 23106M 23106B 23128M 23129  23129
             23133M 23133  23150M 23151M 23151B 23162M 23163M 23163B 23210M 23213B 23299  23330M 23331  23372M 23373M
             23373B 23394M 23395M 23395B 23416M 23417M 23417B 23533M 23534M 23534B 23560M 23561M 23561B 23668M 23669M
             23669B 23721M 23722M 23722B 23739M 23740M 23740B 23756M 23759  23776M 23779B 23820  24002M 24005B 24038
             24106M 24107  24113M 24118M 24118  24136M 24137N 24138N 24142M 24142  24152M 24153  24154  24155  24160M
             24161  24164M 24165M 24165B 24168M 24171  24172  24173  24178M 24179M 24179B 24262M 24265  24282M 24285B
             24802  24838M 24839M 24839B 24912M 24915B 24928  24964M 24965M 24965B 25031M 25034B 25046  25098M 25101B
             25113  25159M 25162B 25179  25211M 25212N 25213N 25217M 25217  25242M 25243M 25243B 25301M 25304B 25336
             25376M 25377  25383M 25388M 25388  25406M 25407N 25408N 25412M 25412  25422M 25423  25424  25425  25433M
             25434M 25434B 25437M 25440  25441  25442  25447M 25448M 25448B 25761M 25764B 25809  25873M 25874M 25874B
             25991M 25994B 26066  26099M 26100M 26100B 26496M 26499B 26577  26618M 26619  26788M 26793M 26793  26811M
             26812N 26813N 26817M 26817  26820M 26821M 26821B 26872M 26877M 26877  26895M 26896N 26897N 26901M 26901
             26911M 26912  26913  26914  26919M 26920  26923M 26924M 26924B 26927M 26930  26931  26932  26937M 26938M
             26938B 26943M 26944M 26944B 26948M 26949M 26949B 26953M 26956  26978M 26981B 27212  27263M 27266B 27311
             27343M 27344M 27344B 27361M 27364B 27389  27421M 27422M 27422B 27441M 27444B 27467  27500M 27501M 27501B
             27518M 27521B 27546  27579M 27580M 27580B 27597M 27600B 27659  27817M 27818  27819  27820  27825M 27826
             27829M 27830M 27830B 27833M 27836  27837  27838  27843M 27844M 27844B 27849M 27850M 27850B 27872M 27875B
             27952  28004M 28007B 28020  28071M 28074B 28087  28138M 28141B 28154  28205M 28208B 28221  28272M 28275B
             28288  28339M 28342B 28369  28433M 28434M 28434B 28469M 28470M 28470B 28504M 28505M 28505B 28551M 28552M
             28552B 28598M 28599M 28599B 28645M 28646M 28646B 28692M 28693M 28693B 28725M 28726M 28726B 28778M 28779M
             28779B 28811M 28812M 28812B 28844M 28847B 28872  28910M 28911  28912  28913  28921M 28922M 28922B 28925M
             28928  28929  28930  28935M 28936M 28936B 29009M 29010M 29010B 29036M 29039B 29055  29086M 29087M 29087B
             29122M 29123M 29123B 29167M 29168M 29168B 29190M 29193B 29259  29392M 29393M 29393B 29460M 29461M 29461B
             29493M 29494M 29494B 29526M 29527M 29527B 29559M 29560M 29560B 29582M 29585B 29606  29637M 29638M 29638B
             29659M 29662B
    15(F)      922U  2128   7008M  7008   7451M  7451   7473M  7473   7579M  7579   7703M  7743M  7771M  7870M  7870
              7943M  8026M  8110M  8192M  8560M  8596M  8624M  8673M  8709M  8737M  8775M  8775   9200M  9200   9219M
              9219   9292M  9292   9358M  9358   9430M  9430   9496M  9496   9563M  9563   9631M  9631   9724M  9724
              9827M  9879M  9879  10014M 10014  10032  10124M 10136M 10229M 10229  10340M 10340  10440M 10440  10717M
             10717  10750M 10750  11055M 11055  11094M 11094  11199M 11227M 11264M 11311M 11311  11429M 11476M 11476
             11708M 11708  11823M 11823  11994M 11994  12027M 12027  12094M 12140M 12140  12407M 12407  12468M 12468
             12534M 12534  12600M 12600  12667M 12667  12735M 12735  12790M 12813M 12813  12868M 12891M 12891  13106M
             13131M 13184M 13209M 13325M 13383M 13383  13649M 13706M 13706  14041M 14066M 14119M 14144M 14260M 14318M
             14318  14430M 14430  14449M 14449  14702M 14702  15035M 15053M 15081M 15165M 15183M 15211M 15245M 15273M
             15736M 15851M 15851  16027M 16027  16095M 16095  16162M 16162  16232M 16232  16306M 16306  16325M 16325
             16575M 16575  16608M 16608  16729M 16729  16783M 16818M 16846M 16900M 16935M 16963M 17125M 17207M 17207
             17546M 17546  17634M 17634  17814M 17814  17956M 18014M 18039M 18067M 18104M 18181M 18181  18753M 18753
             18800M 18800  18958M 18958  19235M 19235  19328M 19328  19346M 19346  19427M 19427  19454M 19454  19501M
             19501  19614M 19614  19625M 19625  19655M 19655  19696M 19696  19723M 19723  19761M 19785M 19785  19894M
             19894  19918M 19918  20026M 20026  20050M 20050  20183M 20183  20252M 20252  20320M 20320  20389M 20389
             20458M 20458  21442M 21442  21517M 21517  21598M 21598  21682M 21682  21766M 21766  21885M 21937M 21937
             21959M 21959  22113M 22204M 22204  22217M 22217  22274M 22325M 22325  22352M 22352  22410M 22436M 22436
             22451M 22451  22478M 22478  22575M 22575  22586M 22586  22647M 22647  22702M 22753M 22801M 22801  22898M
             22898  22909M 22909  23007  23034  23057M 23057  23107M 23164M 23212M 23212  23573  23600  23718M 23736M
             23778M 23778  23960M 23960  23980M 24004M 24004  24096M 24174M 24174  24195  24204M 24204  24229  24235M
             24284M 24284  24851  24878  24895M 24914M 24914  24977  25010M 25033M 25033  25081M 25100M 25100  25142M
             25161M 25161  25252M 25252  25279M 25303M 25303  25443M 25443  25720M 25734M 25734  25763M 25763  25960M
             25965M 25993M 25993  26498M 26498  26933M 26933  26980M 26980  27265M 27265  27363M 27363  27443M 27443
             27520M 27520  27599M 27599  27839M 27839  27874M 27874  28006M 28006  28073M 28073  28140M 28140  28207M
             28207  28274M 28274  28341M 28341  28466M 28501M 28548M 28595M 28642M 28689M 28722M 28775M 28808M 28846M
             28846  28931M 28931  28945M 28945  28992M 29038M 29038  29119M 29164M 29192M 29192  29584M 29584  29642M
1         (NFIL2025) (12:49) (15MAR04) General Purpose Register Cross Reference                                             Page  167
             29642  29661M 29661

1NFILE    (NFIL2025) (12:49) (15MAR04) Diagnostic Cross Reference and Assembler Summary                                     Page  168
-                                                                                            HLASM R4.0  2004/03/15 12.49
0     No Statements Flagged in this Assembly
 HIGH LEVEL ASSEMBLER, 5696-234, RELEASE 4.0, PTF P72483
0SYSTEM: OS/390 02.10.00            JOBNAME: WYL#NFIL    STEPNAME: ASM        PROCSTEP: (NOPROC)
0Datasets Allocated for this Assembly
  Con DDname   Dataset Name                                 Volume  Member
   P1 SYSIN    WYL.GS.WYL.WYLBUR.SOURCE                     SYSB05  NFILE
   L1 SYSLIB   WYL.GS.WYL.WYLBUR.MACLIB                     SYSB05
   L2          WYL.GG.SYS.MACLIB                            SYSB05
   L3          SYS3.IS.MACLIB                               SYSB05
   L4          SYS3.MACLIB                                  SYSB02
   L5          SYS1.MACLIB                                  MVSBR9
   L6          SYS1.MODGEN                                  MVSBR9
      SYSPRINT SYS04075.T124954.RA000.WYL#NFIL.PRINT.H01    SCR100
      SYSTERM  GG$SLP.WYL#NFIL.JOB03548.D0000101.?

    3668K allocated to Buffer Pool,         3621K would be required for this to be an In-Storage Assembly
    3661 Primary Input Records Read         7325 Library Records Read                  0 Work File Reads
       0 ASMAOPT Records Read              17037 Primary Print Records Written         0 Work File Writes
       0 Punch Records Written                 0 ADATA Records Written
0Assembly Start Time: 12.49.56 Stop Time: 12.50.04 Processor Time: 00.00.05.4221
 Return Code 000
