1         (PAGE2193) (12:50) (15MAR04) General Purpose Register Cross Reference                                             Page  239
             25221M 25222M 25222B 25311M 25312M 25312B 25322M 25323M 25323B 25381M 25382M 25382B 25402M 25403M 25403B
             25420M 25421M 25421B 25441M 25442M 25442B 25459M 25460M 25460B 25480M 25481M 25481B 25498M 25499M 25499B
             25527M 25528M 25528B 25556M 25557M 25557B 25585M 25586M 25586B 25592M 25593M 25593B 25606M 25607M 25607B
             25651M 25652M 25652B 25684M 25685M 25685B 25702M 25703M 25703B 25739M 25740M 25740B 25767M 25768M 25768B
             25774M 25775M 25775B 25781M 25782M 25782B 25871M 25872M 25872B 25899M 25900M 25900B 25926M 25927M 25927B
             25964M 25965M 25965B 25998M 25999M 25999B 26016M 26017M 26017B 26336M 26337M 26337B 26369M 26370M 26370B
             26408M 26409M 26409B 26501M 26502M 26502B 26537M 26538M 26538B 26561M 26562M 26562B 26571M 26572M 26572B
             26647M 26648M 26648B 26898M 26899M 26899B 27410M 27411M 27411B 27461M 27462M 27462B 27485M 27486M 27486B
             27509M 27510M 27510B 27558M 27559M 27559B 27688M 27689M 27689B 27729M 27730M 27730B 27740M 27741M 27741B
             27792M 27795B 27913  28004M 28005M 28005B 28144M 28145M 28145B 28172M 28173M 28173B 28183M 28184M 28184B
             28214M 28215M 28215B 28242M 28243M 28243B 28310M 28311M 28311B 28331M 28332M 28332B 28349M 28350M 28350B
             28370M 28371M 28371B 28388M 28389M 28389B 28412M 28415B 28436  28477M 28478M 28478B 28482M 28483M 28483B
             28510M 28511M 28511B 28531M 28532M 28532B 28556M 28557M 28557B 28594M 28595M 28595B 28618M 28619M 28619B
             28642M 28643M 28643B 28666M 28667M 28667B 28690M 28691M 28691B 28717M 28720B 28738  28891M 28892M 28892B
             28909M 28912B 28933  28988M 28989M 28989B 29006M 29009B 29030  29103M 29104M 29104B 29120M 29121M 29121B
             29208M 29209M 29209B 29349M 29350M 29350B 29413M 29414M 29414B 29441M 29442M 29442B 29521M 29522M 29522B
             29549M 29550M 29550B 29606M 29607M 29607B 29634M 29635M 29635B 29652M 29653M 29653B 29680M 29683B 29714
             29877M 29878M 29878B 29905M 29906M 29906B 29934M 29935M 29935B 29955M 29956M 29956B 29973M 29974M 29974B
             29995M 29996M 29996B 30013M 30014M 30014B 30054M 30057B 30078  30133M 30134M 30134B 30150M 30151M 30151B
             30179M 30180M 30180B 30207M 30208M 30208B 30235M 30236M 30236B 30273M 30274M 30274B 30301M 30302M 30302B
             30326M 30329B 30350  30405M 30406M 30406B 30423M 30426B 30447  30520M 30521M 30521B 30537M 30538M 30538B
             30572M 30573M 30573B 30590M 30593B 30614  30715M 30716M 30716B 30733M 30736B 30769  30838M 30839M 30839B
             30888M 30889M 30889B 30979M 30980M 30980B 31007M 31008M 31008B 31022M 31023M 31023B 31050M 31051M 31051B
             31078M 31081B 31140  31361M 31362M 31362B 31603M 31604M 31604B 31788M 31789M 31789B 31862M 31863M 31863B
             31880M 31881M 31881B 31909M 31912B 31959  32187M 32188M 32188B 32208M 32209M 32209B 32226M 32227M 32227B
             32247M 32248M 32248B 32265M 32266M 32266B 32335M 32336M 32336B 32358M 32359M 32359B 32409M 32410M 32410B
             32504M 32505M 32505B 32522M 32523M 32523B 32528M 32529M 32529B 32637M 32638M 32638B 32655M 32656M 32656B
             32661M 32662M 32662B 33017M 33020B 33118  33212M 33213M 33213B 33605M 33606M 33606B 33622M 33623M 33623B
             33651M 33652M 33652B 33675M 33676M 33676B 33699M 33700M 33700B 33723M 33724M 33724B 33747M 33748M 33748B
             33771M 33772M 33772B 33795M 33796M 33796B 33814M 33815M 33815B 33824M 33825M 33825B 33857M 33860B 33881
             33939M 33940M 33940B 33947M 33948M 33948B 33975M 33978B 33999  34074M 34075M 34075B 34151M 34152M 34152B
             34169M 34170M 34170B 34222M 34223M 34223B 34256M 34257M 34257B 34290M 34291M 34291B 34308M 34309M 34309B
             34320M 34321M 34321B 34350M 34353B 34397  34466M 34467M 34467B 34514M 34521M 34975M 34976M 34976B 35023M
             35024M 35024B 35068M 35069M 35069B 35193M 35194M 35194B 35246M 35247M 35247B 35280M 35281M 35281B 35314M
             35315M 35315B 35332M 35333M 35333B 35355M 35356M 35356B 35357M 35399M 35400M 35400B 35401M 35522M 35523M
             35523B 35557M 35560B 35780  35889M 35890M 35890B 35922M 35923M 35923B 35943M 35944M 35944B 35960M 35961M
             35961B 35983M 35984M 35984B 36000M 36001M 36001B 36056M 36057M 36057B 36061M 36062M 36062B 36084M 36085M
             36085B 36101M 36102M 36102B 36106M 36107M 36107B 36129M 36130M 36130B 36146M 36147M 36147B 36198M 36199M
             36199B 36236M 36237M 36237B 36273M 36274M 36274B 36295M 36296M 36296B 36316M 36317M 36317B 36367M 36368M
             36368B 36397M 36398M 36398B 36463M 36464M 36464B 36487M 36488M 36488B 36516M 36517M 36517B 36543M 36544M
             36544B 36589M 36590M 36590B 36617M 36618M 36618B 36668M 36669M 36669B 36687M 36688M 36688B 36802M 36803M
             36803B 36821M 36822M 36822B 36855M 36856M 36856B 36881M 36882M 36882B 36921M 36922M 36922B 36948M 36949M
             36949B 37088M 37089M 37089B 37128M 37131B 37246  37564M 37565M 37565B 37595M 37596M 37596B 37609M 37610M
             37610B 37643M 37646B 37675  37733M 37734M 37734B 37802M 37803M 37803B 37830M 37831M 37831B 37864M 37865M
             37865B 37889M 37890M 37890B 37914M 37915M 37915B 37919M 37920M 37920B 37954M 37957B 37978  38036M 38037M
             38037B 38054M 38055M 38055B 38082M 38083M 38083B 38102M 38103M 38103B 38136M 38137M 38137B 38142M 38143M
             38143B 38177M 38180B 38226  38287M 38288M 38288B 38421M 38422M 38422B 38460M 38461M 38461B 38581M 38582M
             38582B 38686M 38687M 38687B 38733M 38736B 38757  38886M 38887M 38887B 38915M 38918B 38935  38990M 39002M
             39016M 39017M 39017B 39044M 39045M 39045B 39062M 39063M 39063B 39083M 39084M 39084B 39101M 39102M 39102B
             39120M 39121M 39121B 39145M 39146M 39146B 39154M 39155M 39155B 39162M 39174M 39205M 39208B 39231  39334M
             39337B 39360  39496M 39497M 39497B 39581M 39582M 39582B 39603M 39604M 39604B 39637M 39640B 39663  39769M
             39772B 39819  39879M 39880M 39880B 39897M 39898M 39898B 39914M 39915M 39915B 39927M 39928M 39928B 39951M
             39954B 39972  40628M 40631B 40684  41068M 41069M 41069B 41096M 41097M 41097B 41102M 41103M 41103B 41246M
             41249B 41315  41566M 41567M 41567B 42035M 42038B 42104  42222M 42223M 42223B 42271M 42272M 42272B 42357M
             42358M 42358B 42381M 42382M 42382B 42409M 42410M 42410B 42437M 42438M 42438B 42465M 42466M 42466B 42493M
             42494M 42494B 42557M 42558M 42558B 42625M 42626M 42626B 42645D 42647M 42647  42648M 42649U 42650M 42650N
             42698M 42718  42776M 42777M 42777B 42797M 42798M 42798B 42825M 42826M 42826B 42868M 42869M 42869B 42900M
             42920  42947M 42948M 42948B 43030M 43031M 43031B 43058M 43061B 43082  43149M 43150M 43150B 43171M 43172M
             43172B 43199M 43200M 43200B 43221M 43224B
1         (PAGE2193) (12:50) (15MAR04) General Purpose Register Cross Reference                                             Page  240
    15(F)      922U  2111   7018M  7019M  7020   7036M  7038M  7068M  7069M  7070   7086M  7088M  7107M  7107   7256M
              7256   7448M  7479M  7511M  7629M  7693M  7714M  7731M  7759M  7776M  7797M  7827M  7851M  7851   8006M
              8006   8160   8166   8172   8178   8233M  8233   8257M  8257   8338M  8338   8347M  8347   8358M  8377M
              8377   8468M  8487M  8487   8532M  8551M  8551   8631M  8631   8640M  8640   8651M  8670M  8670   8762M
              8781M  8781   8826M  8845M  8845   9062   9081M  9179M  9235M  9253M  9273M  9291M  9311M  9329M  9350M
              9390M  9414M  9414   9438M  9438   9655   9680M  9797M  9797   9806M  9806   9866M  9898M  9964M  9995M
              9995  10024M 10024  10267M 10267  10376M 10376  10471M 10498M 10498  10531M 10531  10626M 10653M 10653
             10686M 10686  10765M 10765  10789M 10789  10874M 10930M 10930  11015M 11071M 11071  11150M 11150  11192M
             11211M 11211  11390  11409M 11645M 11663M 11683M 11716M 11744M 11788M 11812M 11812  11836M 11836  12029
             12054M 12171M 12171  12180M 12180  12243M 12274M 12274  12303M 12303  12510M 12510  12594M 12594  12678M
             12678  12762M 12762  12846M 12846  12930M 12930  13014M 13014  13056M 13075M 13075  13155M 13173M 13310M
             13328M 13362M 13390M 13408M 13456M 13456  13617M 13617  13758M 13760M 13894M 13923M 13923  14230M 14265M
             14293M 14307M 14332M 14427M 14454M 14479M 14541M 14558M 14577M 14591M 14622M 14653M 14671M 14719M 14733M
             14758M 14830M 14830  14965M 14966M 14966  15001M 15002M 15168M 15191M 15196  15730  15772M 15772  15876D
             15878M 15878  15879M 15880U 15881M 15893  16088M 16088  16139  16195M 16195  16543  16545M 16546  16547
             16548  16549  16588  16625M 16633  16634M 16647M 16655  16656M 16666M 16667M 16668  16690M 16690  16697M
             16732M 16732  16784  16819M 16819  16834  16841  16910  17058M 17058  17110  17145M 17145  17160  17167
             17236  17384M 17384  17628M 17629  17630  17631  17632  17648M 17667M 17667  17719  17785M 17786M 17790
             17792  17834M 17834  18143M 18143  18197  18281M 18281  18300M 18300  18878M 18878  19534M 19534  19803M
             19803  19905M 19906  19922  20006M 20021M 20021  20051M 20051  20227  20398M 20399  20400  20409M 20409
             20426  20439M 20439  20530M 20550M 20580M 20580  20720M 20721M 20722  20735  20741M 20818  21053M 21054M
             21054  21068M 21069  21078M 21159M 21176  21187  21190M 21191  21377M 21378M 21395M 21411M 21413M 21418
             21457M 21485M 21485  21799M 21800  21819M 21851M 21851  21954M 21954  21997M 21997  22003M 22015  22022M
             22032  22072M 22072  22108M 22148M 22148  22196  22314M 22314  22350M 22391M 22391  22555M 22555  22701M
             22729  22743  22762  22776  22853M 22853  22918  22924  22928M 22928  22946M 22969M 22969  23116M 23116
             23196M 23260  23278M 23278  23297M 23297  23407  23445M 23450  23452  23632M 23633M 23633  23640M 23641
             23662M 23663M 23664  23725M 23726M 23726  23733M 23734  23837M 23838M 23839  23848M 23848  23911M 23911
             23988M 23989M 23990M 24000U 24013U 24034M 24035M 24036M 24046U 24059U 24101M 24101  24224M 24260M 24260
             24523M 24524  24608M 24695M 24723M 24724M 24725  24763M 24806M 24838M 24856M 24863M 24867M 24876M 24876
             24883  24912M 25027  25049M 25056M 25218M 25285M 25286M 25296  25303  25308M 25319M 25378M 25399M 25417M
             25438M 25456M 25477M 25495M 25524M 25553M 25582M 25589M 25603M 25648M 25681M 25699M 25714D 25716M 25716
             25717M 25718U 25724  25736M 25764M 25896M 25961M 25983M 25983  26013M 26013  26092M 26092  26138  26169
             26195M 26195  26283  26303  26333M 26498M 26503  26568M 26640D 26642M 26642  26643M 26644U 26655D 26657M
             26657  26658M 26659U 26668M 26668  26703  26723  26731M 26748  26756M 26763N 26814  26828  26835M 26836N
             26869  26875M 26900M 26904M 26913M 26913  26920  27230M 27231M 27232M 27248M 27248  27253M 27254  27389M
             27401  27587M 27587  27631M 27643  27754M 27754  27771M 27794M 27794  28001M 28169M 28239M 28307M 28328M
             28346M 28367M 28385M 28414M 28414  28474M 28719M 28719  28767M 28798M 28819M 28840M 28861M 28882M 28911M
             28911  28985M 29008M 29008  29100M 29205M 29346M 29438M 29546M 29631M 29649M 29682M 29682  29902M 29931M
             29952M 29970M 29992M 30010M 30037M 30056M 30056  30130M 30176M 30204M 30232M 30298M 30328M 30328  30402M
             30425M 30425  30517M 30569M 30592M 30592  30712M 30735M 30735  30895M 30896M 30897  31004M 31047M 31080M
             31080  31208M 31209M 31209  31230U 31262U 31374  31384  31424M 31425M 31426  31522M 31523M 31538  31565D
             31567M 31567  31568M 31569U 31579  31600M 31705M 31706M 31721  31749D 31751M 31751  31752M 31753U 31763
             31785M 31859M 31877M 31911M 31911  32000  32010M 32011M 32011  32032U 32055M 32056M 32057M 32067U 32070U
             32087U 32090U 32154U 32184M 32205M 32223M 32244M 32262M 32272M 32273M 32273  32283U 32296U 32332M 32355M
             32406M 32429M 32430  32440M 32440  32446M 32446  32447  32451M 32453M 32454  32501M 32519M 32535M 32536M
             32537  32550M 32550  32634M 32652M 32669M 32670M 32671  32684M 32684  32810D 32812M 32812  32813M 32814U
             32823M 32823  32832M 32833M 32834  32834  32946D 32948M 32948  32949M 32950U 32959M 32959  32968M 32969M
             32970  32970  33019M 33019  33209M 33348M 33384M 33409M 33441  33455  33508  33536  33602M 33811M 33821M
             33859M 33859  33936M 33941M 33942M 33944M 33977M 33977  34084M 34085  34148M 34166M 34219M 34287M 34305M
             34352M 34352  34462M 34505M 34506M 34519M 34519  34521M 34529M 34530  34646M 34647N 34680M 34681M 34681
             34696N 34711M 34728M 34769M 34786M 34789  34801M 34836M 34837M 34845  34857M 34871M 34871  34879M 34883M
             34892M 34892  34899  35020M 35020  35073M 35074M 35075M 35076M 35088  35101M 35173M 35243M 35311M 35329M
             35340M 35341M 35341  35357  35360M 35361M 35361  35364M 35366  35401  35421D 35423M 35423  35424M 35425U
             35431N 35443M 35443  35559M 35559  35845M 35846  35886M 35919M 35940M 35957M 35980M 35997M 36053M 36081M
             36098M 36126M 36143M 36195M 36233M 36270M 36292M 36313M 36364M 36394M 36460M 36484M 36513M 36540M 36586M
             36614M 36665M 36799M 36852M 36878M 36918M 36945M 37005M 37006M 37021N 37029M 37033M 37042M 37042  37049
             37130M 37130  37319M 37320  37332M 37354D 37356M 37356  37357M 37358U 37367M 37367  37376N 37378N 37516M
             37517M 37531M 37533  37561M 37592M 37645M 37645  37730M 37799M 37827M 37861M 37911M 37916M 37956M 37956
             38033M 38079M 38087M 38088M 38133M 38139M 38179M 38179  38281M 38282M 38282  38293M 38297M 38306M 38306
1         (PAGE2193) (12:50) (15MAR04) General Purpose Register Cross Reference                                             Page  241
             38313  38333M 38337  38339M 38343M 38352M 38352  38359  38386M 38565M 38670M 38735M 38735  38811M 38814
             38826M 38831  38835M 38844M 38844  38851  38917M 38917  38995M 39001  39002M 39013M 39041M 39059M 39080M
             39098M 39116M 39142M 39167M 39173  39174M 39207M 39207  39284M 39303  39336M 39336  39480M 39564M 39565M
             39566  39594  39600M 39639M 39639  39771M 39771  39858  39894M 39911M 39923M 39953M 39953  40161M 40162M
             40162  40175M 40193M 40194M 40194  40223M 40224M 40224  40245M 40246M 40246  40261M 40269  40281M 40288
             40300M 40306M 40307  40327M 40328M 40328  40342M 40343M 40343  40372M 40373M 40373  40392M 40399  40403
             40415M 40422  40434M 40439  40442  40454M 40459  40462M 40514  40516M 40517  40565M 40567M 40591  40630M
             40630  40734M 40734  40849  40866  40876M 40876  40893M 40935M 40954M 40955  40974M 40975M 40985M 40985
             41041M 41053  41060M 41098M 41109M 41141M 41160  41217M 41248M 41248  41384M 41387  41399M 41408N 41411M
             41413  41587  41591M 41592M 41593  41663M 41672M 41672  41679N 41682D 41684M 41684  41685M 41686U 41691
             41748M 41760  41899M 41926M 41927M 41941  41953M 41958  41962M 41971M 41971  41978  42004M 42004  42037M
             42037  42168M 42169M 42169  42219M 42268M 42280M 42281N 42284M 42288M 42297M 42297  42304  42352M 42378M
             42406M 42434M 42462M 42490M 42554M 42622M 42652M 42656M 42658  42697M 42773M 42794M 42822M 42865M 42899M
             42944M 42966M 42967M 42968  42970M 42971M 42972  42974M 42975M 42976  42978M 42979M 42980  43027M 43060M
             43060  43111  43146M 43168M 43196M 43223M 43223

1PAGE     (PAGE2193) (12:50) (15MAR04) Diagnostic Cross Reference and Assembler Summary                                     Page  242
-                                                                                            HLASM R4.0  2004/03/15 12.50
0     No Statements Flagged in this Assembly
 HIGH LEVEL ASSEMBLER, 5696-234, RELEASE 4.0, PTF P72483
0SYSTEM: OS/390 02.10.00            JOBNAME: WYL#PAGE    STEPNAME: ASM        PROCSTEP: (NOPROC)
0Datasets Allocated for this Assembly
  Con DDname   Dataset Name                                 Volume  Member
   P1 SYSIN    WYL.GS.WYL.WYLBUR.SOURCE                     SYSB05  PAGE
   L1 SYSLIB   WYL.GS.WYL.WYLBUR.MACLIB                     SYSB05
   L2          WYL.GG.SYS.MACLIB                            SYSB05
   L3          SYS3.IS.MACLIB                               SYSB05
   L4          SYS3.MACLIB                                  SYSB02
   L5          SYS1.MACLIB                                  MVSBR9
   L6          SYS1.MODGEN                                  MVSBR9
      SYSPRINT SYS04075.T125057.RA000.WYL#PAGE.PRINT.H01    SCR101
      SYSTERM  GG$SLP.WYL#PAGE.JOB03553.D0000101.?

    3668K allocated to Buffer Pool,         5157K would be required for this to be an In-Storage Assembly
    5522 Primary Input Records Read         7361 Library Records Read                322 Work File Reads
       0 ASMAOPT Records Read              22018 Primary Print Records Written       376 Work File Writes
       0 Punch Records Written                 0 ADATA Records Written
0Assembly Start Time: 12.50.58 Stop Time: 12.51.16 Processor Time: 00.00.08.8542
 Return Code 000
