1                        J E S 2  J O B  L O G  --  S Y S T E M  S Y S B  --  N O D E  R L G
0
 12.54.26 JOB03562 ---- MONDAY,    15 MAR 2004 ----
 12.54.26 JOB03562  ICH70001I GG$SLP   LAST ACCESS AT 12:54:03 ON MONDAY, MARCH 15, 2004
 12.54.26 JOB03562  $HASP373 WYL#SCAN STARTED - INIT 9    - CLASS B - SYS SYSB
 12.54.26 JOB03562  ***  HCMD      STEP $$QUIET
 12.54.26 JOB03562  PUR * Q OUT MUL
 12.54.26 JOB03562  JOB 5424 WYL#SCAN WILL BE PURGED
 12.54.27 JOB03562  WYL#SCAN.$$QUIET .         RC=Zero TapeIO=0000 DiskIO=0000 CPU=  .01s Elapsed=66.83s
 12.54.39 JOB03562  WYL#SCAN.ASM     .         RC=Zero TapeIO=0000 DiskIO=0774 CPU= 5.66s Elapsed=67.87s
 12.54.43 JOB03562  WYL#SCAN.EDIT    .         RC=Zero TapeIO=0000 DiskIO=0361 CPU= 1.15s Elapsed=79.29s
 12.54.43 JOB03562  WYL#SCAN Ended.  Name=Assemble SCAN                  Total CPU= 6.82s Elapsed=66.83s
 12.54.43 JOB03562
 12.54.43 JOB03562  Execution charges   Priority=Standard   Block=Day
 12.54.43 JOB03562
 12.54.43 JOB03562  CPU Usage         126.37          $78.34   Standard Processing Unit Equivalent
 12.54.43 JOB03562                                   =======
 12.54.43 JOB03562                                    $78.34   Total Job execution charge
 12.54.43 JOB03562
 12.54.43 JOB03562  See back separator page for print charges
 12.54.43 JOB03562
 12.54.43 JOB03562  $HASP395 WYL#SCAN ENDED  ASM=0, EDIT=0
1        1 //WYL#SCAN JOB SLP$GG,'Assemble SCAN',TIME=4,REGION=4M                  JOB03562
           //*
           /*JOBPARM LINES=99,COPIES=1
           /*JOBPARM FORMS=3HOL,PFORMAT=LAND,CHARS=BD13,DUPLEX=YES,FLASH=BAR4
           //*
           /*JOBPARM NOTIFY=GG.SLP,HOLD=OUTPUT                                     WYLGEN
         2 //$$QUIET EXEC PGM=HCMDX,PARM='PUR * Q OUT MUL'
           //*
         3 //ASM    EXEC PGM=ASMA90,REGION=8M,
           //            PARM=('NORENT,TERM,FLAG(NOCONT),US(MAP,WARN(10)),NODECK',
           //            'LC(32767),XREF(SHORT),ESD,DXREF,NOOBJECT')
         4 //STEPLIB DD DSN=SYS3.IS.TESTASM,DISP=SHR
         5 //SYSLIB   DD  DSN=WYL.GS.WYL.WYLBUR.MACLIB,DISP=SHR
         6 //         DD  DSN=WYL.GG.SYS.MACLIB,DISP=SHR
         7 //         DD  DSN=SYS3.IS.MACLIB,DISP=SHR
         8 //         DD  DSN=SYS3.MACLIB,DISP=SHR
         9 //         DD  DSN=SYS1.MACLIB,DISP=SHR
        10 //         DD  DSN=SYS1.MODGEN,DISP=SHR
        11 //SYSUT1   DD DSN=&&SYSUT1,UNIT=VIO,DISP=(,DELETE),
           //            SPACE=(4088,(500,250),,CONTIG,ROUND)
        12 //SYSTERM  DD SYSOUT=T
        13 //SYSPRINT DD DSN=&&PRINT,UNIT=SYSDA,DISP=(,PASS),
           //            SPACE=(6650,(250,250),RLSE),
           //            DCB=(BLKSIZE=6650,LRECL=133,RECFM=FB)
        14 //SYSUDUMP DD SYSOUT=A
        15 //SYSIN    DD  DSN=WYL.GS.WYL.WYLBUR.SOURCE(SCAN),DISP=SHR
           //*
        16 //EDIT    EXEC PGM=ASMEDIT,TIME=2,REGION=4000K,
           //             PARM='STMT'
        17 //STEPLIB  DD  DSN=WYL.GG.SYS.LINKLIB,DISP=SHR
        18 //ASMOUT   DD  DSN=&PRINT,DISP=(OLD,DELETE)
        19 //SYSPRINT DD  SYSOUT=A
1 STMT NO. MESSAGE
 -
        11 IGD01010I STORCLAS= TEMP STORGROUP =
        11 IGD01010I STORGRP=VIO ASSIGNED.
        13 IGD01010I STORCLAS= TEMP STORGROUP =
        13 IGD01010I STORGRP=VIO ASSIGNED.
 ICH70001I GG$SLP   LAST ACCESS AT 12:54:03 ON MONDAY, MARCH 15, 2004
 IEF142I WYL#SCAN $$QUIET - STEP WAS EXECUTED - COND CODE 0000
 *********************************************************************************
 *   WYL#SCAN/$$QUIET /                    Return Code      Zero                 *
 *   Region used      260K (16K user + 244K system)                              *
 *   Extended region  9464K (4K user + 9460K system)                             *
 *                                                                               *
 *   Paging              In      Out                                             *
 *   Private <-> Aux      0        0       CPU time (TCB)   00:00:00.01          *
 *   Private <-> Exp      0        0       CPU time (SRB)   00:00:00.00          *
 *   VIO                  0        0       Elapsed time    917:33:26.13          *
 *   Common               0      ---                                             *
 *                                                                               *
 *                                                                               *
 *   CPU Usage          0.18         $0.11  Standard Processing Unit Equivalent  *
 *                                   $0.11  Total Step execution charge          *
 *                                                                               *
 *    I/O count  DDname   Type Addr           I/O count  DDname   Type Addr      *
 *                         *** No I/O for this step ***                          *
 *********************************************************************************
 IEF373I STEP/$$QUIET /START 2004075.1254
 IEF374I STEP/$$QUIET /STOP  2004075.1254 CPU    0MIN 00.01SEC SRB    0MIN 00.00SEC VIRT    16K SYS   244K EXT       4K SYS    9460K
 IEF236I ALLOC. FOR WYL#SCAN ASM
 IEF237I 04DC ALLOCATED TO STEPLIB
 IEF237I 04DC ALLOCATED TO SYSLIB
 IEF237I 04DC ALLOCATED TO
 IEF237I 04DC ALLOCATED TO
 IEF237I 0402 ALLOCATED TO
 IEF237I 04A0 ALLOCATED TO
 IEF237I 04A0 ALLOCATED TO
 IGD101I SMS ALLOCATED TO DDNAME (SYSUT1  )
         DSN (SYS04075.T125426.RA000.WYL#SCAN.SYSUT1.H01  )
         STORCLAS (TEMP) MGMTCLAS (        ) DATACLAS (        )
         VOL SER NOS= VIO
 IEF237I JES2 ALLOCATED TO SYSTERM
 IGD101I SMS ALLOCATED TO DDNAME (SYSPRINT)
         DSN (SYS04075.T125426.RA000.WYL#SCAN.PRINT.H01   )
         STORCLAS (TEMP) MGMTCLAS (        ) DATACLAS (        )
         VOL SER NOS= SCR101
 IEF237I JES2 ALLOCATED TO SYSUDUMP
 IEF237I 04DC ALLOCATED TO SYSIN
 IEF142I WYL#SCAN ASM - STEP WAS EXECUTED - COND CODE 0000
 IEF285I   SYS3.IS.TESTASM                              KEPT
 IEF285I   VOL SER NOS= SYSB05.
 IEF285I   WYL.GS.WYL.WYLBUR.MACLIB                     KEPT
 IEF285I   VOL SER NOS= SYSB05.
 IEF285I   WYL.GG.SYS.MACLIB                            KEPT
 IEF285I   VOL SER NOS= SYSB05.
 IEF285I   SYS3.IS.MACLIB                               KEPT
 IEF285I   VOL SER NOS= SYSB05.
 IEF285I   SYS3.MACLIB                                  KEPT
 IEF285I   VOL SER NOS= SYSB02.
 IEF285I   SYS1.MACLIB                                  KEPT
 IEF285I   VOL SER NOS= MVSBR9.
 IEF285I   SYS1.MODGEN                                  KEPT
 IEF285I   VOL SER NOS= MVSBR9.
 IGD105I SYS04075.T125426.RA000.WYL#SCAN.SYSUT1.H01   DELETED,   DDNAME=SYSUT1
 IEF285I   GG$SLP.WYL#SCAN.JOB03562.D0000101.?          SYSOUT
 IGD106I SYS04075.T125426.RA000.WYL#SCAN.PRINT.H01    PASSED,    DDNAME=SYSPRINT
 IEF285I   GG$SLP.WYL#SCAN.JOB03562.D0000102.?          SYSOUT
 IEF285I   WYL.GS.WYL.WYLBUR.SOURCE                     KEPT
 IEF285I   VOL SER NOS= SYSB05.
 *********************************************************************************
 *   WYL#SCAN/ASM     /                    Return Code      Zero                 *
 *   Region used      4376K (4096K user + 280K system)                           *
 *   Extended region  10072K (412K user + 9660K system)                          *
 *                                                                               *
 *   Paging              In      Out                                             *
 *   Private <-> Aux      0        0       CPU time (TCB)   00:00:05.61          *
 *   Private <-> Exp      0        0       CPU time (SRB)   00:00:00.05          *
 *   VIO                  0        0       Elapsed time    917:33:25.09          *
 *   Common               0      ---                                             *
 *                                                                               *
 *                                                                               *
 *   CPU Usage        105.18        $65.21  Standard Processing Unit Equivalent  *
 *                                  $65.21  Total Step execution charge          *
 *                                                                               *
 *    I/O count  DDname   Type Addr           I/O count  DDname   Type Addr      *
 *           83  STEPLIB  Disk 04DC                 316  SYSLIB   Disk 04DC      *
 *            0  SYSLIB   Disk 04DC                   0  SYSLIB   Disk 04DC      *
 *            0  SYSLIB   Disk 0402                   0  SYSLIB   Disk 04A0      *
 *            0  SYSLIB   Disk 04A0                  16  SYSUT1   VIO  ----      *
 *            0  SYSTERM       ----                 358  SYSPRINT Disk 04E3      *
 *            0  SYSUDUMP      ----                  17  SYSIN    Disk 04DC      *
 *********************************************************************************
 IEF373I STEP/ASM     /START 2004075.1254
 IEF374I STEP/ASM     /STOP  2004075.1254 CPU    0MIN 05.61SEC SRB    0MIN 00.05SEC VIRT  4096K SYS   280K EXT     412K SYS    9660K
 IEF236I ALLOC. FOR WYL#SCAN EDIT
 IEF237I 0402 ALLOCATED TO STEPLIB
 IGD103I SMS ALLOCATED TO DDNAME ASMOUT
 IEF237I JES2 ALLOCATED TO SYSPRINT
 IEF142I WYL#SCAN EDIT - STEP WAS EXECUTED - COND CODE 0000
 IEF285I   WYL.GG.SYS.LINKLIB                           KEPT
 IEF285I   VOL SER NOS= SYSB02.
 IGD105I SYS04075.T125426.RA000.WYL#SCAN.PRINT.H01    DELETED,   DDNAME=ASMOUT
 IEF285I   GG$SLP.WYL#SCAN.JOB03562.D0000103.?          SYSOUT
 *********************************************************************************
 *   WYL#SCAN/EDIT    /                    Return Code      Zero                 *
 *   Region used      380K (116K user + 264K system)                             *
 *   Extended region  9584K (4K user + 9580K system)                             *
 *                                                                               *
 *   Paging              In      Out                                             *
 *   Private <-> Aux      0        0       CPU time (TCB)   00:00:01.12          *
 *   Private <-> Exp      0        0       CPU time (SRB)   00:00:00.03          *
 *   VIO                  0        0       Elapsed time    917:33:13.67          *
 *   Common               0      ---                                             *
 *                                                                               *
 *                                                                               *
 *   CPU Usage         21.00        $13.02  Standard Processing Unit Equivalent  *
 *                                  $13.02  Total Step execution charge          *
 *                                                                               *
 *    I/O count  DDname   Type Addr           I/O count  DDname   Type Addr      *
 *            2  STEPLIB  Disk 0402                 359  ASMOUT   Disk 04E3      *
 *            0  SYSPRINT      ----                                              *
 *********************************************************************************
 IEF373I STEP/EDIT    /START 2004075.1254
 IEF374I STEP/EDIT    /STOP  2004075.1254 CPU    0MIN 01.12SEC SRB    0MIN 00.03SEC VIRT   116K SYS   264K EXT       4K SYS    9580K
 *********************************************************************************
 *                                                                               *
 *                      S t a n f o r d   U n i v e r s i t y                    *
 *                                                                               *
 *                              *** Job Summary ***                              *
 *                                                                               *
 *   System Id      SYSB                   Input time     12:39:26  Mar 15, 2004 *
 *                                                                               *
 *   System Release SP6.1.0                Start time     12:54:26  Mar 15, 2004 *
 *                                                                               *
 *   Job name       WYL#SCAN               Stop  time     00:00:00  Mar 15, 2004 *
 *                                                                               *
 *   Account        SLP$GG                 Elapsed time  917:33:26.13            *
 *                                                                               *
 *   User Name      Assemble SCAN          CPU time       00:00:06.74            *
 *                                                                               *
 *   Job class      B                      SRB Time       00:00:00.08            *
 *                                                                               *
 *********************************************************************************
 IEF375I  JOB/WYL#SCAN/START 2004075.1254
 IEF376I  JOB/WYL#SCAN/STOP  2004075.1254 CPU    0MIN 06.74SEC SRB    0MIN 00.08SEC
1Assembler Done SCAN No Statements Flagged
1         High Level Assembler Option Summary                   (PTF P72483 )                                               Page    1
-                                                                                            HLASM R4.0  2004/03/15 12.54
0  No Overriding ASMAOPT Parameters
   Overriding Parameters-  NORENT,TERM,FLAG(NOCONT),US(MAP,WARN(10)),NODECK,LC(32767),XREF(SHORT),ESD,DXREF,NOOBJECT
   No Process Statements


   Options for this Assembly
0  NOADATA
     ALIGN
   NOASA
     BATCH
     CODEPAGE(047C)
   NOCOMPAT
   NODBCS
 3 NODECK
 3   DXREF
 3   ESD
   NOEXIT
 3   FLAG(0,ALIGN,NOCONT,NOIMPLEN,NOPAGE0,PUSH,RECORD,NOSUBSTR,USING0)
   NOFOLD
   NOGOFF
   NOINFO
     LANGUAGE(EN)
   NOLIBMAC
 3   LINECOUNT(32767)
     LIST(121)
     MXREF(SOURCE)
 3 NOOBJECT
     OPTABLE(UNI,NOLIST)
   NOPCONTROL
   NOPESTOP
   NOPROFILE
   NORA2
 3 NORENT
     RLD
     RXREF
     SIZE(MAX)
     SYSPARM()
 3   TERM(WIDE)
   NOTEST
     THREAD
   NOTRANSLATE
 3   USING(NOLIMIT,MAP,WARN(10))
 3   XREF(SHORT)

   No Overriding DD Names

1SCAN     External Symbol Dictionary                                                                                        Page    2
-Symbol   Type   Id     Address  Length     LD ID  Flags Alias-of                            HLASM R4.0  2004/03/15 12.54
0WYLSCAN   SD 00000001 00000000 000061B8             00
 SCAN2025  LD          00000000           00000001
 NSCAN     LD          00000018           00000001
 NSCANSTR  LD          00000118           00000001
 RLOOKUP   LD          000001B8           00000001
 RLOOKUP   ER 00000002
 SETSKIP   ER 00000003
 SETSTOP   ER 00000004
 NSCAN     ER 00000005
 MNULL     LD          0000128A           00000001
 MALL      LD          000012C4           00000001
 MNONE     LD          0000130A           00000001
 MTOKEN    LD          00001336           00000001
 MOPTION   LD          000013BE           00000001
 SCNSCFLG  LD          000013FA           00000001
 MINT      LD          0000142A           00000001
 MLNO      LD          000014B8           00000001
 MQUOTE    LD          00001548           00000001
 MPAREN    LD          0000159C           00000001
 MNCHAR    LD          000015E8           00000001
 MPARM     LD          00001666           00000001
 MPINT     LD          0000172E           00000001
 MPLNO     LD          00001872           00000001
 MNULL     ER 00000006
 MLNO      ER 00000007
 MALL      ER 00000008
 MPSYMLN   LD          00001A74           00000001
 MSYMLN    ER 00000009
 MPCOLS    LD          00001C74           00000001
 MSYMLN    LD          00001EAC           00000001
 MTOKEN    ER 0000000A
 EXFRSTLN  ER 0000000B
 EXLASTLN  ER 0000000C
 SCSEG     ER 0000000D
 GTNEXTLN  ER 0000000E
 EXNEXTLN  ER 0000000F
 GTPREVLN  ER 00000010
 EXPREVLN  ER 00000011
 ENDLNO    ER 00000012
 MIMPLIED  LD          00002C94           00000001
 MCOLS     LD          00002F98           00000001
 NSCANSTR  ER 00000013
 SCANSTR   LD          0000365C           00000001
 XSCANSTR  LD          0000373C           00000001
 SCANPARM  LD          00003808           00000001
 SETSKIP   LD          000039B8           00000001
 SETSTOP   LD          000039F2           00000001
 NOTVALID  LD          000053F0           00000001
 SCNNOOP   LD          00005478           00000001
 SCSEG     LD          000054A0           00000001
 SCNINVAL  LD          00005506           00000001
 SCANCHK   LD          00005562           00000001
 SCDQUOTE  LD          000055C6           00000001
 CKQUOTES  LD          000056BE           00000001
 SCUPCASE  LD          00005730           00000001
1SCAN     External Symbol Dictionary                                                                                        Page    3
 NSCANTOK  LD          00005798           00000001
 HEXCONV   LD          00005868           00000001
 HEXSTR    LD          0000589C           00000001
 ORVCPASS  ER 00000014
 SEGCR     ER 00000015
 SEG       ER 00000016
 RTRIM     LD          00005A42           00000001
 LRTRIM    LD          00005A86           00000001
 UPCASE    LD          00005AE2           00000001
 LOWCASE   LD          00005B36           00000001
 TESTSCAN  LD          00005B8A           00000001
 MPINT     ER 00000017
 MPLNO     ER 00000018
 MINT      ER 00000019
 NDETRNG   ER 0000001A
 SCANCHK   ER 0000001B
 SEGWR     ER 0000001C

1SCAN     WYLBUR's Scanner                                                                                                  Page    4
0Loc    Object Code    Addr1 Addr2  Stmt Lv Lineno    Source Statement                    (Asmedit 3.3)  HLASM R4.0  2004/03/15 12.54
+___    ______ ____    _____ _____  ____ __ ______    ______ _________
0                                      2              *******************************************************************
                                       3              *                                                                 *
                                       4              *     WYLBUR/370 - Release VI - Class I - Stanford Proprietary    *
                                       5              *                                                                 *
                                       6              *******************************************************************
                                       7                       HIBAL
                                     988
                                     989                       SYSDEFN
                                     990
 000000                00000 061B8   991              WYLSCAN  CSECT
                                     995                       REGS  FSR,,,,,,,BR,(WAR,LSR),PAR,PBR,CPR,CVR,SPR,RAR
                                    1131
                                    1132              SCAN     IDENT 2025                11:49:31 01/25/02  (SLP)
                                    1135             +
                                    1136    01-IDENT +         ENTRY SCAN2025
                                    1137             +
 000000 16E2C3C1D5F2F0F2            1138    01-IDENT +SCAN2025 DC    AL1(22),C'SCAN2025,15MAR04,12:54'
                                    1139             +*
-USING  CV,R12                      1142                       USING CV
                                    1151                       PUSH  DSECTS
 USING  CP,R11                      1162             =         USING (CP),(CV)
 000017                00000 061B8  1174             =         POP   PRINT
 000017                00000 061B8  6307              WYLSCAN  CSECT
1SCAN     (SCAN2025) (12:54) (15MAR04) WYLBUR SCAN ROUTINES                                                                 Page    5
0Current Usings:  (CP,R11) (CV,R12)
0Loc    Object Code    Addr1 Addr2  Stmt Lv Lineno    Source Statement           (Hibal 5, Asmedit 3.3)  HLASM R4.0  2004/03/15 12.54
+___    ______ ____    _____ _____  ____ __ ______    ______ _________
0                                   6310              *
                                    6311              **
                                    6312              **  WYLBUR SCANNER DOCUMENTATION
                                    6313              **
                                    6314              **  AS OF 11/89 WYLBURS OLD SCANNER IS BEING REPLACED BY A
                                    6315              **  NEW SCANNER.  THE FOLLOWING COMMENTS REFER TO THE NEW
                                    6316              **  SCANNER.  THIS DOCUMENTATION IS NOT COMPLETE, BUT REMEMBER !
                                    6317              **
                                    6318              **  "SOME IS BETTER THAN NONE."
                                    6319              **
                                    6320              **  HISTORICAL NOTE (11/89):
                                    6321              **  THE NSCAN AND NKW PREFIX REFER TO 'NEW' SCAN AND 'NEW'
                                    6322              **  KEYWORD ENTRY DSECT.  AS TIME GOES ON 'NEW' WILL BECOME
                                    6323              **  THE REGULAR.  CHANCES ARE THAT THE 'N' PART OF MANY
                                    6324              **  NAMES (IE. NSCAN) WILL REMAIN. OH WELL.
                                    6325              **
                                    6326              **  -------------------------------------------------
                                    6327              **
                                    6328              **  DOCUMENTATION OUTLINE
                                    6329              **
                                    6330              **  1. MACRO INTERFACE
                                    6331              **  2. SCAN CONTROL BLOCK
                                    6332              **  3. ROUTINES INTERFACES
                                    6333              **     (FOR SCAN ROUTINE, MATCH ROUTINE, PROCESSING ROUTINE)
                                    6334              **
                                    6335              **  -------------------------------------------------
                                    6336              **
                                    6337              **
                                    6338              **  MACRO INTERFACE:
                                    6339              **
                                    6340              **  THESE MACROS ARE NOT FULLY DOCUMENTED.  SEE WYLBUR CODE
                                    6341              **  FOR EXAMPLES, AND ACTUAL MACROS FOR DETAILS.
                                    6342              **
                                    6343              **  SET UP SCAN CONTROL BLOCK ..
                                    6344              **    SCINIT - SET UP STRING LOC,LEN TO SCAN
                                    6345              **    SETSKIP - SET UP SCAN SKIP TABLE
                                    6346              **    SETSTOP - SET UP SCAN STOP TABLE
                                    6347              **    SETSCKWS - SET UP SCAN SCKWS TABLE ADDRESS
                                    6348              **
                                    6349              **  CALL SCAN ..
                                    6350              **    SCAN - CALL SCANNER
                                    6351              **    SCANCHK - CHECK/WRITE ANY SCAN ERRORS
                                    6352              **
                                    6353              **  TO PROCESS SCANNED TOKEN(S) ..
                                    6354              **    SCTOK - RETURN LOC,LEN OF CURRENT TOKEN
                                    6355              **    SCUPTOK - POINT RX TO UPPER CASE BLANK PADDED TOKEN
                                    6356              **    SCULTOK - POINT RX TO UPLOW CASE BLANK PADDED TOKEN
                                    6357              **    SCDQUOTE - DEQUOTE TOKEN INTO SPECIFIED AREA B/PADDED
                                    6358              **    SCUPCASE - UPPER CASE TOKEN INTO SPECIFIED AREA B/PADDED
                                    6359              **
                                    6360              **  SET KEYWORD TABLE ENTRY
                                    6361              **    SCKW <KEYWORD STRING>,<ROUTINE>,<MATCH INFO,FLAGS>,PARM1,PARM2
                                    6362              **
                                    6363              **  TO SAVE/RESTOR SCAN CONTROL BLOCKS OR PORTIONS..
1SCAN     (SCAN2025) (12:54) (15MAR04) WYLBUR SCAN ROUTINES                                                                 Page    6
0Current Usings:  (CP,R11) (CV,R12)
0Loc    Object Code    Addr1 Addr2  Stmt Lv Lineno    Source Statement           (Hibal 5, Asmedit 3.3)  HLASM R4.0  2004/03/15 12.54
+___    ______ ____    _____ _____  ____ __ ______    ______ _________
0                                   6364              **    SCPUSH - SAVE COPY OF SCAN CB ON STACK
                                    6365              **    SCPOP - RESTORE SAVED SCAN CB
                                    6366              **    SCCLR - CLEAR CURRENT SCAN CB
                                    6367              **    SCSAVE - SAVE COPY OF SCAN CB IN SPECIFIC AREA
                                    6368              **    SCRSTR - RESTOR COPY OF SCAN CB FROM SPECIFIC AREA
                                    6369              **
                                    6370              **
                                    6371              **  TO GET SCAN CONTROL BLOCK ADDRESSABILITY ...
                                    6372              **    SCCBADR <RX> - PUT ADDR OF SCAN CB IN RX
                                    6373              **
                                    6374              **
                                    6375              **  MISC SCAN MACROS ...
                                    6376              **    SCANSTR - SAME AS SCAN BUT W/SKIP=' ' STOP=' ,;='
                                    6377              **    SCINFO - RETURN CURRENT REMAINDER TO SCAN LOC AND LEN
                                    6378              **    SCBKUP - BACKUP BY LAST TOKEN
                                    6379              **        (CAN ONLY BE USED FOR LAST TOKEN SCANNED)
                                    6380              **    SCSEG - SEG AN ERROR TO SCAN CB
                                    6381              **    SCSEGCLR - CLEAR ERR MSG IN SCAN CB
                                    6382              **
                                    6383              **  PUSH ROUTINE MACRO ..
                                    6384              **    PUSHRTN - USED FOR PUSHED SCKWS(RECURSIVE KW LOOKUP)
                                    6385              **    XPUSHRTN -USED FOR PUSHED SCKWS (RECURSIVE KW LOOKUP)
                                    6386              **
                                    6387              **  MORE DETAILED COMMENTS:
                                    6388              **
                                    6389              **
                                    6390              **  SET UP SCAN CONTROL BLOCK ..
                                    6391              **    SCINIT - SET UP STRING LOC,LEN TO SCAN
                                    6392              **    SETSKIP - SET UP SCAN SKIP TABLE
                                    6393              **    SETSTOP - SET UP SCAN STOP TABLE
                                    6394              **    SETSCKWS - SET UP SCAN SCKWS TABLE ADDRESS
                                    6395              **  THESE MACROS SET UP THE SCAN ENVIRONMENT. ONLY SCINIT
                                    6396              **  IS REQUIRED. SETSKIP AND SETSTOP CAN BE USED TO RESET
                                    6397              **  THE SKIP AND STOP TABLES USED WHEN SCANNING.  TO SEE
                                    6398              **  HOW SKIP/STOP CHARS ARE SPECIFIED LOOK IN 'EXTENDED
                                    6399              **  EXEC' DOCUMENT UNDER 'SYSCALL SCAN'. THE CALLS WORK IN
                                    6400              **  THE SAME MANNER. SETSCKWS WILL SET THE ADDRESS OF THE
                                    6401              **  SCAN TABLES USED.  THE DEFAULTS FOR SET/SKIP ARE TO
                                    6402              **  USE WYLBURS WIERD CONVENTIONS. THE DEFAULT SCKWS ARE NONE.
                                    6403              **
                                    6404              **
                                    6405              **  CALL SCAN ..
                                    6406              **    SCAN - CALL SCANNER
                                    6407              **    SCANCHK - CHECK/WRITE ANY SCAN ERRORS
                                    6408              **  THE SCAN MACRO CALLS THE SCAN ROUTINE, SEE DOCUMENTATION ON
                                    6409              **  THE SCAN ROUTINE INTERFACE BELOW.  ALL INPUTS TO SCAN ARE
                                    6410              **  PASSED IN THE SCAN CONTROL BLOCK.  THESE ARE SET UP WITH
                                    6411              **  THE SCINIT, SETSKIP, SETSTOP, AND SETSCKW MACROS.  TYPICALLY
                                    6412              **  THE SETSKIP, SETSTOP AND SETSCKW MACROS ARE NOT USED AND
                                    6413              **  ARE DEFAULTED.  AN SCINIT MUST BE DONE. BUT IS USUALLY DONE
                                    6414              **  ONCE AT THE START OF EACH COMMAND IN THE COMM MODULE.
                                    6415              **  THE TYPICAL USE OF THE 'SCAN' MACRO WILL DEFAULT THE SKIP
                                    6416              **  START TABLES.  MORE UNUSUAL WAYS TO HANDLE THE SCANNING
                                    6417              **  INPUT PARAMETERS ARE COMMENTED ON IN THE ACTUAL 'SCAN'
1SCAN     (SCAN2025) (12:54) (15MAR04) WYLBUR SCAN ROUTINES                                                                 Page    7
0Current Usings:  (CP,R11) (CV,R12)
0Loc    Object Code    Addr1 Addr2  Stmt Lv Lineno    Source Statement           (Hibal 5, Asmedit 3.3)  HLASM R4.0  2004/03/15 12.54
+___    ______ ____    _____ _____  ____ __ ______    ______ _________
0                                   6418              **  MACRO.
                                    6419              **  THE SCANCHK MACRO, WILL DETECT AND PROCESS ANY SCAN ERRORS
                                    6420              **  FOUND.  IF THERE IS AN ERROR, CONTROL WILL NOT RETURN AFTER
                                    6421              **  A SCANCHK MACRO IS ISSUED.
                                    6422              **
                                    6423              **
                                    6424              **  TO PROCESS SCANNED TOKEN(S) ..
                                    6425              **    SCTOK - RETURN LOC,LEN OF CURRENT TOKEN
                                    6426              **    SCUPTOK - POINT RX TO UPPER CASE BLANK PADDED TOKEN
                                    6427              **    SCULTOK - POINT RX TO UPLOW CASE BLANK PADDED TOKEN
                                    6428              **    SCDQUOTE - DEQUOTE TOKEN INTO SPECIFIED AREA B/PADDED
                                    6429              **    SCUPCASE - UPPER CASE TOKEN INTO SPECIFIED AREA B/PADDED
                                    6430              **  SCUPTOK, SCULTOK POINT A REGISTER TO A 16 BYTE AREA, SO BE
                                    6431              **  CAREFUL IF TOKEN SCANNED IS LARGER.  SCDQUOTE DOES DEQUOTE
                                    6432              **  STRING INTO AN AREA. IF STRING IS NOT QUOTED IT WILL UPPER
                                    6433              **  CASE STRING INTO AREA.  R1,R0 ARE DEQUOTED STRING LOC,LEN.
                                    6434              **  SCUPCASE WILL UPPER CASE STRING INTO AREA. R1,R0 ARE UPPER
                                    6435              **  CASED STRING LOCATION AND LENGTH.
                                    6436              **
                                    6437              **  SET KEYWORD TABLE ENTRY
                                    6438              **    SCKW <KEYWORD STRING>,<ROUTINE>,<MATCH INFO,FLAGS>,PARM1,PARM2
                                    6439              **  SEE MANY EXAMPLES OF SCKW IN CODE.  THIS MACRO GENERATES A
                                    6440              **  PROPERLY FILLED OUT NKW (NEW KEYWORD CONTROL BLOCK). SO CHECK
                                    6441              **  OUT THE NKW DESECT FOR MORE INFO.
                                    6442              **
                                    6443              **  TO SAVE/RESTOR SCAN CONTROL BLOCKS OR PORTIONS..
                                    6444              **    SCPUSH - SAVE COPY OF SCAN CB ON STACK
                                    6445              **    SCPOP - RESTORE SAVED SCAN CB
                                    6446              **    SCCLR - CLEAR CURRENT SCAN CB
                                    6447              **    SCSAVE - SAVE COPY OF SCAN CB IN SPECIFIC AREA
                                    6448              **    SCRSTR - RESTOR COPY OF SCAN CB FROM SPECIFIC AREA
                                    6449              **  SCPUSH, SCPOP MUST USE STANDARD STACK DISCIPLINE.
                                    6450              **  SCSAVE AND SCRSTR CAN BE POINTED TO ANY AREA.
                                    6451              **
                                    6452              **  TO GET SCAN CONTROL BLOCK ADDRESSABILITY ...
                                    6453              **    SCCBADR <RX> - PUT ADDR OF SCAN CB IN RX
                                    6454              **  THE SCAN CONTROL BLOCK IS IN THE CP AND IS POINTED TO
                                    6455              **  BY CPSCANP.  MACROS ASSUME THIS IS TRUE.  THE SCCBADR
                                    6456              **  LOADS THE ADDRESS FROM CPSCANP.  IF YOU WANT TO USE THE
                                    6457              **  SCANNER IN A NOT-CP ENVIRONMENT, IT IS POSSIBLE IF YOU
                                    6458              **  CHANGE THE LOCATION AND THE WAY THAT THE CONTROL BLOCK
                                    6459              **  LOCATION IS FOUND.  (IE. CHANGE THE SCCBADDR MACRO!.)
                                    6460              **  THE SCAN CODE ITSELF DOES NOT USE THE CP. (VERIFY !!)
                                    6461              **  NOR DOES IT HAVE ANY KNOWLEDGE OF CPSCANP. (VERIFY !!)
                                    6462              **
                                    6463              **
                                    6464              **  MISC SCAN MACROS ...
                                    6465              **    SCANSTR - SAME AS SCAN BUT W/SKIP=' ' STOP=' ,;='
                                    6466              **    SCINFO - RETURN CURRENT REMAINDER TO SCAN LOC AND LEN
                                    6467              **    SCBKUP - BACKUP BY LAST TOKEN
                                    6468              **        (CAN ONLY BE USED FOR LAST TOKEN SCANNED)
                                    6469              **    SCSEG - SEG AN ERROR TO SCAN CB
                                    6470              **    SCSEGCLR - CLEAR ERR MSG IN SCAN CB
                                    6471              **  SCANSTR IS IDENTICAL TO SCAN MACRO EXCEPT THAT IT USES
1SCAN     (SCAN2025) (12:54) (15MAR04) WYLBUR SCAN ROUTINES                                                                 Page    8
0Current Usings:  (CP,R11) (CV,R12)
0Loc    Object Code    Addr1 Addr2  Stmt Lv Lineno    Source Statement           (Hibal 5, Asmedit 3.3)  HLASM R4.0  2004/03/15 12.54
+___    ______ ____    _____ _____  ____ __ ______    ______ _________
0                                   6472              **  DIFFERENT SKIP/STOP TABLES.  SKIP=' ' STOP=' ,;='.
                                    6473              **  SCSEG, SCSEGCLR ARE USED TO RETURN SCAN ERRORS BY THE
                                    6474              **  TOKEN PROCESSING ROUTINES.  (IN ACTUALITY, MOST JUST
                                    6475              **  EXIT DIRECTLY TO CVERROR)
                                    6476              **
                                    6477              **  PUSH ROUTINE MACRO ..
                                    6478              **    PUSHRTN - USED FOR PUSHED SCKWS(RECURSIVE KW LOOKUP)
                                    6479              **    XPUSHRTN -USED FOR PUSHED SCKWS (RECURSIVE KW LOOKUP)
                                    6480              **  THESE MACROS IMPLEMENT RECURSIVE KW LOOKUP OF PUSHED
                                    6481              **  KEYWORD TABLES.  YOU HAVE TO LOOK AT SCAN CODE TO SEE
                                    6482              **  WHAT IS GOING ON. OR JUST USE THE MACRO BLINDLY BY
                                    6483              **  EXAMPLE.
                                    6484              **
                                    6485              **  OTHER COMMENTS:
                                    6486              **
                                    6487              **  ALL FIELDS IN THE CONTROL BLOCK MAY BE MODIFIED BY THE
                                    6488              **  KNOWLEDGEABLE PROGRAMMER.  TO INITIALIZE THE CONTROL BLOCK
                                    6489              **  THE MACROS: SCINIT, SETSKIP, SETSTOP MACROS ARE PROVIEDED.
                                    6490              **  THEY ALL EXPECT A STRING LOCATION AND LENGTH AS ARGUMENTS.
                                    6491              **
                                    6492              **  THE SCAN MACRO CALLS THE SCAN ROUTINE. A KEYWORD TABLE IS
                                    6493              **  OPTIONAL.   TO SPECIFY A KEWORD TABLE, THE NAME MUST BE
                                    6494              **  SPECIFIED ON THE NSCAN MACRO.  ALSO SPECIFY ONLY THE NAME
                                    6495              **  NOT HOW IT IS TO BE LOADED (EG. LA: L: LH:). THIS IS FOR
                                    6496              **  *-CODE COMPATIBILITY.
                                    6497              **
                                    6498              **  NOTE: ALL MACROS ASSUME THAT CPNSCANP POINTS TO VALID
                                    6499              **  SCAN CONTROL BLOCK.  TO USE IT IN NON-CP ADDRESSABLE STATE
                                    6500              **  MOST MACROS WILL HAVE TO BE BYPASSED.  THE SCAN MACRO
                                    6501              **  WILL CHANGE R14-R2.
                                    6502              **
                                    6503              **
                                    6504              **  -----------------------------------------------------------
                                    6505              **
                                    6506              **  SCAN CONTROL BLOCK
                                    6507              **
                                    6508              **  TO FULLY UNDERSTAND THE SCAN ROUTINES, YOU NEED TO LOOK AT
                                    6509              **  THE SCAN CONTROL BLOCK.  ALSO TO FIGURE OUT THE NKW MACRO
                                    6510              **  FOR CODING KEYWORD TABLE ENTRIES, CHECK OUT THE 'NKW' DSECT.
                                    6511              **
                                    6512              **
                                    6513              ** ------------------------------------------------------------
                                    6514              **
                                    6515              **  ROUTINE INTERFACES (VERIFY W/COMMENTS IN ACTUAL CODE !!)
                                    6516              **
                                    6517              **
                                    6518              **  SCAN ROUTINE:
                                    6519              **
                                    6520              **  ON ENTRY:
                                    6521              **    R1 - POINTS TO SCAN CONTROL BLOCK
                                    6522              **    THE SCAN CONTROL BLOCK INPUT PARAMETERS ARE:
                                    6523              **      STRING LOCATION, LENGTH; THESE ARE UPDATED TO REFLECT
                                    6524              **         REMAINING STRING TO SCAN.
                                    6525              **      ADDRESS OF SKIP AND STOP TRT TABLES (ZERO TO USE DEFAULT).
1SCAN     (SCAN2025) (12:54) (15MAR04) WYLBUR SCAN ROUTINES                                                                 Page    9
0Current Usings:  (CP,R11) (CV,R12)
0Loc    Object Code    Addr1 Addr2  Stmt Lv Lineno    Source Statement           (Hibal 5, Asmedit 3.3)  HLASM R4.0  2004/03/15 12.54
+___    ______ ____    _____ _____  ____ __ ______    ______ _________
0                                   6526              **      ADDRESS OF KEYWORD TABLE (ZERO IF NONE).
                                    6527              **      SCAN CONTROL FLAGS. (ONLY BLANK TOKEN FLAG ALLOWED SO FAR).
                                    6528              **
                                    6529              **  ON EXIT:
                                    6530              **    R1,R0 - LOC, LEN OF LAST TOKEN/PARM SCANNED
                                    6531              **    R15 - ZERO IF NO ERROR
                                    6532              **    R15 - NZ, IF ERROR
                                    6533              **
                                    6534              **    THE SCAN CONTROL BLOCK IS UPDATED AS FOLLOWS:
                                    6535              **    THE STRING LOC, LEN POINTERS ARE UPDATED TO POINT TO THE
                                    6536              **      REMAINDER OF THE STRING
                                    6537              **    THE TOKEN LOC, LEN POINTERS POINT TO THE LAST TOKEN OR
                                    6538              **      PARAMETER SCANNED.
                                    6539              **    THE TOKEN TYPE FLAGS ARE SET, AND IF NUMBER OR LINENUMBER TYPE
                                    6540              **      THEN THE TOKEN VALUE IS SET.
                                    6541              **    THE TOKEN (IF NO ERROR) ALSO PLACED LEFT JUSTIFIED BLANK
                                    6542              **      PADDED IN BOTH UPPER AND UPLOW CASE WITHIN THE SCAN CB.
                                    6543              **
                                    6544              **  REGISTER USAGE:
                                    6545              **    R2 - SCAN CB
                                    6546              **
                                    6547              **    R2 IS USED INTERNALLY WITHIN THIS MODULE TO POINT AT THE
                                    6548              **    SCAN CONTROL BLOCK.  IT IS ALSO PASSED (IN R2) TO THE
                                    6549              **    MATCH AND PROCESSING ROUTINES.
                                    6550              **
                                    6551              **
                                    6552              **  COMMENTS:
                                    6553              **  IF NO KEYWORD TABLE IS SPECIFIED:
                                    6554              **  ONLY ONE TOKEN IS SCANNED, IT'S TYPE IS DETERMINED.  IF IT'S
                                    6555              **  TYPE IS NUMBER (INTEGER) OR LINE NO, THEN ITS VALUE IS RETURNED
                                    6556              **  IN THE SCAN CONTROL BLOCK.  THE TOKEN IS PLACED LEFT JUSTIFIED
                                    6557              **  BLANK PADDED IN UPPER AND UPLOW CASE WITHIN THE SCAN CB.
                                    6558              **  THE ONLY ERROR THAT CAN OCCUR IS 'MISMATCHED QUOTE OR
                                    6559              **  PARENTHESIS'
                                    6560              **
                                    6561              **  IF A KEYWORD TABLE IS SPECIFIED:
                                    6562              **  A TOKEN IS SCANNED AS ABOVE.  THIS TOKEN IS COMPARED AGAINST ALL
                                    6563              **  THE ENTRIES IN THE KEYWORD TABLE.  IF A MATCH IS FOUND THE
                                    6564              **  KEYWORD ROUTINE IS CALLED.  UPON RETURN FROM THE KEYWORD ROUTINE
                                    6565              **  ANOTHER TOKEN IS SCANNED.  THIS TOKEN IS COMPARED AGAINST ALL
                                    6566              **  ENTRIES IN THE KEYWORD TABLE.  IF A MATCH IS FOUND, THE MATCHING
                                    6567              **  KEYWORD ROUTINE IS CALLED.  ... AND SO ON ...
                                    6568              **  THIS CONTINUES UNTIL:  (A) ALL TOKENS IN THE STRING ARE SCANNED
                                    6569              **  (B) NO MATCH IS FOUND, (C) THE KEYWORD ROUTINE RETURNS A NON-ZERO
                                    6570              **  RETURN CODE, OR (D) AN ERROR OCCURS DURING THE SCAN.
                                    6571              **
                                    6572              **  WE EXAMINE EACH CASE:
                                    6573              **    (A) ALL TOKENS IN STRING ARE SCANNED:  THE NORMAL CASE.
                                    6574              **    (B) NO MATCH IS FOUND:  THIS IS NOT AN ERROR CONDITION.
                                    6575              **          TYPICALLY THIS DOES NOT HAPPEN AS THERE IS A CATCH-ALL
                                    6576              **          KEYWORD ENTRY, THAT WILL GENERATE AN ERROR.
                                    6577              **    (C) IF THE KEYWORD ROUTINE RETURNS A NON-ZERO IN R15, THE
                                    6578              **        SCAN WILL BE STOPPED, AND R15 WILL BE RETURNED TO THE
                                    6579              **        SCAN CALLER.
1SCAN     (SCAN2025) (12:54) (15MAR04) WYLBUR SCAN ROUTINES                                                                 Page   10
0Current Usings:  (CP,R11) (CV,R12)
0Loc    Object Code    Addr1 Addr2  Stmt Lv Lineno    Source Statement           (Hibal 5, Asmedit 3.3)  HLASM R4.0  2004/03/15 12.54
+___    ______ ____    _____ _____  ____ __ ______    ______ _________
0                                   6580              **    (D) THE ONLY ERRORS ENCOUNTERED DURING THE SCAN ARE
                                    6581              **        (1) MISMATCHED QUOTES OR PARENTHESIS, OR
                                    6582              **        (2) THE MATCH ROUTINE DETECTS AN ERROR, EG.
                                    6583              **            THE MATCH ROUTINE EXPECTS A PARM, BUT THERE IS NOT
                                    6584              **            ONE OR THE PARM IS INVALID TYPE OR VALUE
                                    6585              **
                                    6586              **  ------
                                    6587              **
                                    6588              **  EACH MATCH ROUTINE IS CALLED AS FOLLOWS:
                                    6589              **  ON ENTRY:
                                    6590              **     R15 - ZERO
                                    6591              **     R0 - NOT USED
                                    6592              **     R1 - NKW (KEYWORD (SCKW) INFO BLOCK)
                                    6593              **     R2 - SCAN CONTROL BLOCK
                                    6594              **     R3-R6 SAME AS ON ENTRY TO NSCAN ROUTINE
                                    6595              **
                                    6596              **  ON EXIT:
                                    6597              **     R15 - NEGATIVE, ERROR (PLACE ERROR MSG IN NSCNCB)
                                    6598              **     R15 - ZERO, MATCH FOUND
                                    6599              **     R15 - POSITIVE, MATCH NOT FOUND
                                    6600              **     R0-R1 - VALUE TO PASS TO KEYWORD ROUTINE (IF R15 ZERO)
                                    6601              **             (PRETURN MUST BE USED TO CHANGE THESE VALUES.)
                                    6602              **     R2-R6 - DO NOT CHANGE
                                    6603              **
                                    6604              **  NOTE: IF YOU WANT A MATCH ROUTINE TO DO A LOT OF RESCANNING
                                    6605              **  ETC, YOU MUST BE AWARE THAT YOU WILL BE MAKING CHANGES TO
                                    6606              **  THE SCAN CONTROL BLOCK (NSCNCB).  AND YOU MUST BE SURE THAT
                                    6607              **  THE CHANGES ARE COOL VIS-A-VIS THE SCAN CALLS THAT FOLLOW.
                                    6608              **  BE COOL
                                    6609              **
                                    6610              **  ------
                                    6611              **
                                    6612              **  EACH KEYWORD ROUTINE IS CALLED AS FOLLOWS:
                                    6613              **  ON ENTRY:
                                    6614              **     R15 - ZERO
                                    6615              **     R1,R0 - AS SUPPLIED BY THE MATCH ROUTINE, TYPICALLY ..
                                    6616              **             R1,R0 - LOC, LEN OF KEYWORD/PARM FOR STRINGS
                                    6617              **             R0 - VALUE FOR INTEGERS VALUEx1000 FOR LINE NUMBERS
                                    6618              **             SEE COMMENTS AT SPECIFIC MATCH ROUTINE
                                    6619              **     R2 - SCAN CONTROL BLOCK
                                    6620              **     R3-R6 SAME AS ON ENTRY TO NSCAN ROUTINE
                                    6621              **
                                    6622              **  ON EXIT:
                                    6623              **     R15 - ZERO, CONTINUE SCAN
                                    6624              **     R15 - NON-ZERO, STOP SCAN  (R15 VAL RETURNED TO NSCAN CALLER)
                                    6625              **     R0-R2 - DO NOT CHANGE
                                    6626              **     R3-R6 - PASSED BACK TO CALLER OF SCAN ROUTINE.
                                    6627              **             (PRETURN MUST BE USED TO CHANGE THESE VALUES.)
                                    6628              **
                                    6629              **  NOTE:
                                    6630              **  ALL KEYWORD ROUTINES SHOULD USE THE STANDARD XPROC/PROC/PEND
                                    6631              **  INTERFACE. THEY ARE RESPONSIBLE FOR RESTORING ALL REGISTERS
                                    6632              **  USED.  THEY SHOULD ALWAYS RETURN TO THE CALLER.  THIS GIVES
                                    6633              **  THE NSCAN CALLER CONTROL!
1SCAN     (SCAN2025) (12:54) (15MAR04) WYLBUR SCAN ROUTINES                                                                 Page   11
0Current Usings:  (CP,R11) (CV,R12)
0Loc    Object Code    Addr1 Addr2  Stmt Lv Lineno    Source Statement           (Hibal 5, Asmedit 3.3)  HLASM R4.0  2004/03/15 12.54
+___    ______ ____    _____ _____  ____ __ ______    ______ _________
0                                   6634              **
                                    6635              **  -----
                                    6636              **
                                    6637              **  KEYWORD ENTRIES AND MATCHES:
                                    6638              **
                                    6639              **  MATCH ROUTINES CAN DO WHAT THEY WANT, BUT IN GENERAL:
                                    6640              **  KEYWORD ENTRIES CAN MATCH TOKENS, NUMBERS, LINE NUMBERS, OR
                                    6641              **  ANYTHING.  THE FIRST KEYWORD ENTRY THAT MATCHES WILL BE CALLED.
                                    6642              **  KEYWORD ENTRIES CAN SPECIFY THAT A CERTAIN TYPE OF PARAMETER
                                    6643              **  BE SCANNED.  IF A PARAMETER IS SCANNED, IT (AND NOT THE TOKEN)
                                    6644              **  WILL BE CONTAINED IN THE SCAN CONTROL BLOCK.  IF A PARAMETER
                                    6645              **  SCAN IS REQUESTED AND THE PARM IS MISSING OR NOT OF THE
                                    6646              **  SPECIFIED TYPE AN ERROR OCCURS.
                                    6647              **
                                    6648              **
                                    6649              **  -----
                                    6650              **
                                    6651              **  ERRORS:
                                    6652              **  ERRORS RETURN NON-ZERO RETURN CODE IN R15.  ALSO FOR SCANNER
                                    6653              **  GENERATED ERRORS (NEG RETURN CODE) AN ERROR MESSAGE IS
                                    6654              **  PLACED IN THE SCAN CONTROL BLOCK.  IF A KEYWORD ROUTINE
                                    6655              **  GENERATES A NON-ZERO RETURN CODE, THAT ROUTINE IS RESPONSIBLE
                                    6656              **  FOR EITHER SEG'ING AN ERROR MSG, PUTTING AN ERROR MSG IN THE
                                    6657              **  SCAN CONTROL BLOCK, OR DOING NOTHING.
                                    6658              **
                                    6659              **  TYPICALLY, A CATCH-ALL KEYWORD ENTRY IS SPECIFIED AT THE END
                                    6660              **  OF THE KEYWORD LIST TO CATCH INVALID KEYWORDS.  MOST ERROR
                                    6661              **  RETURNED BY THE SCANNER ARE DUE TO MISSING OR BAD PARMS.
                                    6662              **  IF YOU NEED MORE CONTROL OVER THE DETECTION AND PROCESSING
                                    6663              **  OF ERRORS, YOU MAY WANT TO SCAN THE PARMS YOURSELF. IT IS
                                    6664              **  NOT DIFFICULT, BUT RARELY NECESSARY.
                                    6665              **
                                    6666              **  ------
                                    6667              **
                                    6668              *
1SCAN     (SCAN2025) (12:54) (15MAR04) NEW WYLBUR SCANNER                                                                   Page   12
0Current Usings:  (CP,R11) (CV,R12)
0Loc    Object Code    Addr1 Addr2  Stmt Lv Lineno    Source Statement           (Hibal 5, Asmedit 3.3)  HLASM R4.0  2004/03/15 12.54
+___    ______ ____    _____ _____  ____ __ ______    ______ _________
0                                   6671              *
                                    6672              *  NKW - KEYWORD TABLE ENTRY
                                    6673              *
 000000                00000 00028  6674              NKW      RECORD BEGIN
 000000                             6682  1           NKWTOK     DS    CL16                TOKEN, BLANK PADDED
 000010                             6683  1           NKWTOKL    DS    H                   TOKEN LENGTH
 000012 00                          6684  1           NKWFLG1    FLAG  ,                   FIELD FLAGS
 NKWFLG1.NKWFP1    80 ONES          6688  1                      FLAG  NKWFP1              PARM1
 NKWFLG1.NKWFP2    40 ONES          6693  1                      FLAG  NKWFP2              PARM2
 NKWFLG1.NKWFMAT   20 ONES          6698  1                      FLAG  NKWFMAT             MATCH ROUTINE
 NKWFLG1.NKWFRTN   10 ONES          6703  1                      FLAG  NKWFRTN             PROCESSING ROUTINE
 000013 00                          6708  1           NKWFLG2    FLAG  ,                   MISC FLAGS
 NKWFLG2.NKWFPUSH  80 ONES          6712  1                      FLAG  NKWFPUSH            PUSH
 NKWFLG2.NKWFEND   40 ONES          6717  1                      FLAG  NKWFEND             LAST KEYWORD ENTRY IN LIST
 000014 00                          6722  1           NKWFLG3    FLAG  ,                   MATCH SPECS,SPECIAL ACTIONS
 NKWFLG3.NKWFABBV  80 ONES          6726  1                      FLAG  NKWFABBV            ABBREVIATE  (3 CHAR MIN)
 NKWFLG3.NKWFAB1   40 ONES          6731  1                      FLAG  NKWFAB1             ABBREVIATE  (1 CHAR MIN)
 NKWFLG3.NKWFSET   20 ONES          6736  1                      FLAG  NKWFSET             SAVE KEYWORD IN CP
 NKWFLG3.NKWFNOBK  10 ONES          6741  1                      FLAG  NKWFNOBK            DO NOT BLANK
 000015 00                          6746  1           NKWFLG4    FLAG  ,                   INTEGER MATCH SPECS
 NKWFLG4.NKWFPI    80 ONES          6750  1                      FLAG  NKWFPI              POSITIVE INT ONLY
 NKWFLG4.NKWFSI    40 ONES          6755  1                      FLAG  NKWFSI              SIGNED INT (MAY BE NEG)
 000016 00                          6760  1           NKWFLG5    FLAG  ,
 000017 00                          6764  1           NKWFLG6    FLAG  ,
 000018                             6768  1           NKWPARM1   DS    F                   MATCH PARM 1
 00001C                             6769  1           NKWPARM2   DS    F                   MATCH PARM 2
 000020                             6770  1           NKWMAT     DS    A                   MATCH ROUTINE ADDRESS
 000024                             6771  1           NKWRTN     DS    A                   PROCESSING ROUTINE ADDRESS
 000028                00028 00028  6772                       END
1SCAN     (SCAN2025) (12:54) (15MAR04) NEW WYLBUR SCANNER                                                                   Page   13
0Current Usings:  (CP,R11) (CV,R12)
0Loc    Object Code    Addr1 Addr2  Stmt Lv Lineno    Source Statement           (Hibal 5, Asmedit 3.3)  HLASM R4.0  2004/03/15 12.54
+___    ______ ____    _____ _____  ____ __ ______    ______ _________
0                                   6782              *
                                    6783              *        LOCAL MACROS, EQU'S
                                    6784              *
                                    6785              *
                                    6786              *  CALL SCKW PROCESSING ROUTINE,,, R14 POINTS TO KEYWORD ENTRY
                                    6787              *
                                    6788                       MACRO
                                    6789              &L       RTNCALL  &DUMMY
                                    6790                       GBLB  &$PCODE
                                    6791                       AIF   (&$PCODE).CGEN
                                    6792              &L       L     R14,NKWRTN-NKW(R14)
                                    6793                       BASR  R14,R14
                                    6794                       AGO   .RTDONE
                                    6795              .CGEN    ANOP
                                    6796              &L       NOOP
                                    6797                       MNOTE *,'C-CODE  (*(((struct sckw *)(r14))->nkwrtn))();'
                                    6798              .RTDONE  ANOP
                                    6799                       MEND
                                    6800              *
                                    6801              *  CALL SCKW MATCH ROUTINE,,, R14 POINTS TO KEYWORD ENTRY
                                    6802              *
                                    6803                       MACRO
                                    6804              &L       MATCALL  &DUMMY
                                    6805                       GBLB  &$PCODE
                                    6806                       AIF   (&$PCODE).CGEN
                                    6807              &L       L     R14,NKWMAT-NKW(R14)
                                    6808                       BASR  R14,R14
                                    6809                       AGO   .RTDONE
                                    6810              .CGEN    ANOP
                                    6811              &L       NOOP
                                    6812                       MNOTE *,'C-CODE  (*(((struct sckw *)(r14))->nkwmat))();'
                                    6813              .RTDONE  ANOP
                                    6814                       MEND
                                    6815              *
                                    6816              *
                                    6817              *
                                    6818              *  GET NEXT KEYWORD TABLE ENTRY
                                    6819              *
                                    6820                       MACRO
                                    6821              &L       NEXTNKW  &DUMMY
                                    6822                       GBLB  &$PCODE
                                    6823                       AIF   (&$PCODE).NXCCODE
                                    6824              &L       LA    R3,L'NKW(R3)
                                    6825                       AGO   .NXDONE
                                    6826              .NXCCODE ANOP
                                    6827              &L       NOOP
                                    6828                       MNOTE *,'C-CODE  R3 = R3 + sizeof(struct sckw);'
                                    6829              .NXDONE  ANOP
                                    6830                       MEND
                                    6831              *
                                    6832              *  THESE NEED TO BE RELATIVE TO CV EQU'S
                                    6833              *
                                    6834              SMAXLNO  EQU   99999999            MAX LINE NUMBER
                                    6835              SMAXILNO EQU   99999               MAX LINE NUMBER (INTEGER PART)
1SCAN     (SCAN2025) (12:54) (15MAR04) NEW WYLBUR SCANNER                                                                   Page   14
0Current Usings:  (CP,R11) (CV,R12)
0Loc    Object Code    Addr1 Addr2  Stmt Lv Lineno    Source Statement           (Hibal 5, Asmedit 3.3)  HLASM R4.0  2004/03/15 12.54
+___    ______ ____    _____ _____  ____ __ ______    ______ _________
0                                   6837              *
                                    6838              **
                                    6839              **  SCAN
                                    6840              **
                                    6841              **  ON ENTRY:
                                    6842              **    R1 - SCAN CONTROL BLOCK
                                    6843              **
                                    6844              **  ON EXIT:
                                    6845              **    R1,R0 - LOC LENGTH OF LAST SCANNED ITEM/PARM
                                    6846              **    R15 - ZERO, IF SCAN OK
                                    6847              **    R15 - MINUS, IF SCAN ERROR, ERR MSG PLACED IN SCAN CB
                                    6848              **    R15 - POSITIVE, USER RETURN, SET BY KEYWORD ROUTINE.
                                    6849              **    R2 - SCAN CB,  ALL TOKEN, STRING STUFF UPDATED.
                                    6850              **
                                    6851              **
                                    6852              **  REGISTER USAGE:
                                    6853              **    R2 - SCAN CB        (INTERNAL TO SCAN MODULE)
                                    6854              **
                                    6855              **  NOTE:
                                    6856              **  IF KW TABLE IS SUPPLIED, ,,, WE LOOP THRU EACH TOKEN
                                    6857              **  CALLING THE APROPRIATE KEYWORD ROUTINES.
                                    6858              **
                                    6859              **  NOTE2: !!!
                                    6860              **  WHEN CALLING THE MATCH/PROCESSING ROUTINES,  REGISTERS
                                    6861              **  ARE SET BY POINTING DIRECTLY INTO THE STACK. THIS IS
                                    6862              **  HIGHLY NON-STANDARD !!
                                    6863              **
                                    6864              **  IMPLEMENTATION NOTE:
                                    6865              **  MOST ROUTINE PARAMETERS ARE PASSED IN THE SCAN CONTROL
                                    6866              **  BLOCK.  CHECK IT OUT.
                                    6867              **
                                    6868              **  SEE COMMENTS AT START OF MODULE.
                                    6869              **  SEE COMMENTS AT START OF MODULE.  !!!!
                                    6870              **
                                    6871              *
 000000                00000 00009  6872              NSWA     RECORD BEGIN
 000000                             6880  1           NSTLOC     DS    A                   TOKEN LOC  (NOT PARM)
 000004                             6881  1           NSTLEN     DS    F                   TOKEN LEN
 000008 00                          6882  1           NSFLAG     FLAG  ,
 NSFLAG.NSFFIRST   80 ONES          6886  1                      FLAG  NSFFIRST            FIRST TOKEN SCAN FLAG
 000009                00009 00009  6891                       END
                                    6900              *
                                    6901              *
 000018 50E0 D000/9008_      00000  6902              NSCAN    XPROC NSWA
 USING  *,R7
 USING  NSWA-(4+36),R8
 USING  NSCNCB,R2                   6953                       USING NSCNCB,R2
 000032 1821                        6962                       LR    R2,R1
 USING  NKW,R1                      6963                       USING NKW,R1
                                    6972
                                    6973                       COMMENT                   SET SCAN DEFAULTS IF NEEDED
 000034 D503 7B7E 2024_00BB0 00024  6974                       IF    (NSCNSKIP,EQ,0),BEGIN
 00003E 5810 7B86            00BB8  6992  1                      L     R1,=A(TBLWSKIP)
 000042 5010 2024            00024  6993  1                      ST    R1,NSCNSKIP
1SCAN     (SCAN2025) (12:54) (15MAR04) NEW WYLBUR SCANNER                                                                   Page   15
0Current Usings:  (NKW,R1) (NSCNCB,R2) (*,R7) (NSWA-(4+36),R8) (CP,R11) (CV,R12)
0Loc    Object Code    Addr1 Addr2  Stmt Lv Lineno    Source Statement           (Hibal 5, Asmedit 3.3)  HLASM R4.0  2004/03/15 12.54
+___    ______ ____    _____ _____  ____ __ ______    ______ _________
0000046                             6994                       END
 000046 D503 7B7E 2020_00BB0 00020  6998                       IF    (NSCNSTOP,EQ,0),BEGIN
 000050 5810 7B8A            00BBC  7016  1                      L     R1,=A(TBLWSTOP)
 000054 5010 2020            00020  7017  1                      ST    R1,NSCNSTOP
 000058                             7018                       END
 000058 D703 205C 205C 0005C 0005C  7022                       CLEAR NSCNMSGL
                                    7029              *
                                    7030              *        SCAN  /NO KEY WORD TABLE
                                    7031              *
                                    7032                       COMMENT                   IF NO KW TABLE,,, JUST SCAN
 00005E D503 7B7E 2028_00BB0 00028  7033                       IF    (NSCNKWS,EQ,0),BEGIN
                                    7051  1                      COMMENT                   SCAN TOKEN,,,  GET TOKEN TYPE
 000068 58E0 7B8E/0DEE       00BC0  7052  1                      ACALL SCNTOKEN
 00006E 58E0 7B92/0DEE       00BC4  7056  1                      ACALL SETTOKEN
 000074 58E0 7B96/0DEE       00BC8  7060  1                      ACALL SETTYPE
 00007A 47F0 70CC            000FE  7064  1                      B     NSCNDONE
 00007E                             7065                       END
                                    7069              *
                                    7070              *        SCAN  /WITH KEYWORD TABLE,  LOOP,,LOOP,,LOOP
                                    7071              *
                                    7072                       COMMENT                   IF SCAN KW TABLE, LOOP SCANNING
 00007E 1BFF                        7073                       CLEAR R15
 000080 9680 8030      00008        7077                       SET   NSFFIRST
 000084 12FF/4770 70CC              7083                       WHILE (R15,Z),BEGIN       LOOP WHILE KW ROUTINES SUCCESSFUL
                                    7099  1
                                    7100  1                      COMMENT                   SCAN TOKEN,,,  GET TOKEN TYPE
 00008A 58E0 7B8E/0DEE       00BC0  7101  1                      ACALL SCNTOKEN            RETURNS R1,R0 - TOKEN LOC,LEN
 000090 58E0 7B92/0DEE       00BC4  7105  1                      ACALL SETTOKEN
 000096 58E0 7B96/0DEE       00BC8  7109  1                      ACALL SETTYPE
                                    7113  1
 00009C D203 8028 2010 00000 00010  7114  1                      MVC   NSTLOC,NSCNTLOC
 0000A2 D203 802C 2014 00004 00014  7115  1                      MVC   NSTLEN,NSCNTLEN
                                    7116  1
                                    7117  1                      COMMENT                   IF ERROR, RETURN ,,,
 0000A8 12FF/4780 7080              7118  1                      IF    (R15,NZ),BEGIN
 0000AE 47F0 70CC            000FE  7132  2                        B     NSCNDONE
 0000B2                             7133  1                      END
                                    7137  1
                                    7138  1                      COMMENT                   IF NULL, RETURN,,,
                                    7139  1                      COMMENT                   IF TOTAL SCAN EMPTY, CHECK KW TAB
 0000B2 9180 2018/47E0_00018        7140  1                      IF    (NSCNFNUL,AND,~NSFFIRST),BEGIN
 0000C2 47F0 70CC            000FE  7169  2                        B     NSCNDONE
 0000C6                             7170  1                      END
 0000C6 947F 8030      00008        7174  1                      CLEAR NSFFIRST
                                    7181  1
                                    7182  1                      COMMENT                   FIND/PROCESS KW TABLE MATCH
 0000CA 5810 2028            00028  7183  1                      L     R1,NSCNKWS
                                    7184  1                      COMMENT R2 IS NSCNCB
 0000CE 1838                        7185  1                      LR    R3,WAR
 0000D0 58E0 7B9A/0DEE       00BCC  7186  1                      VCALL RLOOKUP
                                    7190  1
                                    7191  1                      COMMENT                   IF NO MATCH, RETURN
 0000D6 1200/4780 70B0              7192  1                      IF    (R0,NZ),BEGIN
 0000DC 1BFF                        7206  2                        CLEAR R15
1SCAN     (SCAN2025) (12:54) (15MAR04) NEW WYLBUR SCANNER                                                                   Page   16
0Current Usings:  (NKW,R1) (NSCNCB,R2) (*,R7) (NSWA-(4+36),R8) (CP,R11) (CV,R12)
0Loc    Object Code    Addr1 Addr2  Stmt Lv Lineno    Source Statement           (Hibal 5, Asmedit 3.3)  HLASM R4.0  2004/03/15 12.54
+___    ______ ____    _____ _____  ____ __ ______    ______ _________
00000DE 47F0 70CC            000FE  7210  2                        B     NSCNDONE
 0000E2                             7211  1                      END
                                    7215  1
                                    7216  1                      COMMENT                   IF MATCH, AND ERROR, RETURN
 0000E2 12FF/4780 70BA              7217  1                      IF    (R15,NZ),BEGIN
 0000E8 47F0 70CC            000FE  7231  2                        B     NSCNDONE
 0000EC                             7232  1                      END
                                    7236  1
                                    7237  1                      COMMENT                   PROCESS ANY SPECIAL ACTIONS
 0000EC 5830 8028            00000  7238  1                      L     R3,NSTLOC           (IE. SET, BLANK)
 0000F0 5840 802C            00004  7239  1                      L     R4,NSTLEN
 0000F4 58E0 7B9E/0DEE       00BD0  7240  1                      ACALL DOSPECL
                                    7244  1
 0000FA 47F0 7052            00084  7245                       END   ,,                  LOOP SCANNING KEYWORDS
                                    7250
 0000FE                             7251              NSCNDONE LABEL ,
 0000FE 5800 2014            00014  7253                       L     R0,NSCNTLEN         *** RESET OR NO ???
 000102 5810 2010            00010  7254                       L     R1,NSCNTLOC         *** SHOULD WE ALLOW USER PRETURN?
 000106 9001 8004            00004  7255                       PRETURN (R0,R1)
 00010A 18D8/9808 D004_             7257                       PEND
 DROP   NSWA-(4+36),R8
 DROP   *,R7
 DROP   NKW,R1                      7282                       DROP  R1
 DROP   NSCNCB,R2                   7289                       DROP  R2
1SCAN     (SCAN2025) (12:54) (15MAR04) NEW WYLBUR SCANNER                                                                   Page   17
0Current Usings:  (CP,R11) (CV,R12)
0Loc    Object Code    Addr1 Addr2  Stmt Lv Lineno    Source Statement           (Hibal 5, Asmedit 3.3)  HLASM R4.0  2004/03/15 12.54
+___    ______ ____    _____ _____  ____ __ ______    ______ _________
0                                   7297              *
                                    7298              **
                                    7299              **  SCANSTR - SCAN STRING DELIMITED BY ' ,=' AND ' ,=;'
                                    7300              **
                                    7301              **  THIS ROUTINE IS THE SAME AS SCAN EXCEPT THAT THE
                                    7302              **  SKIP/STOP CHARS ARE SET AS SHOWN ABOVE.
                                    7303              **  (IE. NO STOP ON /,+,",(,),...ETC.. )
                                    7304              **
                                    7305              **  ON ENTRY: SAME AS NSCAN
                                    7306              **  ON EXIT: SAME AS NSCAN
                                    7307              **
                                    7308              *
 000000                00000 00200  7309              NSTWA    RECORD BEGIN
 000000                             7317  1           NSNSKIP    DS    XL256
 000100                             7318  1           NSNSTOP    DS    XL256
 000200                00200 00200  7319                       END
                                    7328              *
                                    7329              *
 000118 50E0 D000/9008_      00000  7330              NSCANSTR XPROC NSTWA
 USING  *,R7
 USING  NSTWA-(4+36),R8
 000132 5010 D000/41D0_      00000  7381                       XPUSH R1                  SAVE R1 ENTRY FOR CALL TO SCAN
                                    7384
                                    7385                       COMMENT                   SET NEW SKIP/STOP TABLES
 00013A 58E0 B08C/41F0_      0008C  7386                       SETSKIP NSNSKIP,' ,='
 000168 58E0 B08C/41F0_      0008C  7407                       SETSTOP NSNSTOP,' ,=;'
                                    7428
                                    7429                       COMMENT                   ALL SET, CALL SCAN
 000196 1B00                        7430                       CLEAR R0
 000198 4BD0 7B06/5810_      00C38  7434                       XPOP  R1
 0001A0 58E0 7AAE/0DEE       00BE0  7437                       VCALL NSCAN
                                    7441
                                    7442                       COMMENT                   SET SCAN RETURNS
 0001A6 9001 8004            00004  7443                       PRETURN (R0,R1)
 0001AA 18D8/9808 D004_             7445                       PEND
 DROP   NSTWA-(4+36),R8
 DROP   *,R7
1SCAN     (SCAN2025) (12:54) (15MAR04) NEW WYLBUR SCANNER                                                                   Page   18
0Current Usings:  (CP,R11) (CV,R12)
0Loc    Object Code    Addr1 Addr2  Stmt Lv Lineno    Source Statement           (Hibal 5, Asmedit 3.3)  HLASM R4.0  2004/03/15 12.54
+___    ______ ____    _____ _____  ____ __ ______    ______ _________
0                                   7471              *
                                    7472              **
                                    7473              **  RLOOKUP -  FIND/PROCESS SCAN KEYWORDS
                                    7474              **
                                    7475              **  LOOK FOR MATCH. IF FOUND, CALL PROCESSING ROUTINE.
                                    7476              **
                                    7477              **  THIS ROUTINE IS USED RECURSIVELY.  IF MULTIPLE MATCHES IT
                                    7478              **  WILL ONLY FIND THE FIRST MATCH.
                                    7479              **
                                    7480              **  ON ENTRY:
                                    7481              **       R1 - KEYWORD TABLE ENTRIES POINTER
                                    7482              **       R2 - SCAN CONTROL BLOCK (CONTAINS TOKEN/KEYWORD INFO)
                                    7483              **       R3 - ORIGINAL REGISTER SAVE AREA
                                    7484              **
                                    7485              **  ON EXIT
                                    7486              **       R0 - ZERO, MATCH FOUND
                                    7487              **       R0 - NZ, NO MATCH FOUND
                                    7488              **       R1 - IF MATCH, MATCHING KW ENTRY
                                    7489              **       R15 - IF MATCH, PROCESSING ROUTINE RETURN CODE
                                    7490              **
                                    7491              **  NOTE:
                                    7492              **  SEE COMMENTS AT START OF MODULE FOR MATCH AND PROCESSING
                                    7493              **  ROUTINE INTERFACE.
                                    7494              **
                                    7495              **  NOTE:
                                    7496              **  THIS ROUTINE IS USED RECURSIVELY TO IMPLEMENT SCAN TABLE
                                    7497              **  PUSH AND POP.
                                    7498              *
 000000                00000 00004  7499              RLKWA    RECORD BEGIN
 000000                             7507  1           RLKLIST    DS    A
 000004                00004 00004  7508                       END
                                    7517              *
                                    7518              *
 0001B8 50E0 D000/9008_      00000  7519              RLOOKUP  XPROC RLKWA
 USING  *,R7
 USING  RLKWA-(4+36),R8
                                    7570
 USING  NSCNCB,R2                   7571                       USING NSCNCB,R2
 USING  NKW,R1                      7580                       USING NKW,R1
                                    7589
                                    7590                       COMMENT                   IF NO SCAN TABLE, EXIT
 0001D2 1211/4770 700E              7591                       IF    (R1,Z),BEGIN
 0001D8 4100 0004            00004  7605  1                      LA    R0,4
 0001DC 47F0 707A            0024C  7606  1                      B     RLKDONE
 0001E0                             7607                       END
                                    7611
                                    7612                       COMMENT                   LOOP LOOKING FOR MATCH
 0001E0 1211/4780 7076              7613                       WHILE (R1,NZ),BEGIN
 0001E6 5010 8028            00000  7629  1                      ST    R1,RLKLIST
                                    7630  1
                                    7631  1                      COMMENT                   IF PUSH, RECURSE
 0001EA 9180 1013/47E0_00013        7632  1                      IF    NKWFPUSH,BEGIN
 0001F2 41E0 1000            00000  7647  2                        LA    R14,NKW
 0001F6 58EE 0024/0DEE       00024  7648  2                        RTNCALL ,                 THIS CALL WILL RECURSE
1SCAN     (SCAN2025) (12:54) (15MAR04) NEW WYLBUR SCANNER                                                                   Page   19
0Current Usings:  (NKW,R1) (NSCNCB,R2) (*,R7) (RLKWA-(4+36),R8) (CP,R11) (CV,R12)
0Loc    Object Code    Addr1 Addr2  Stmt Lv Lineno    Source Statement           (Hibal 5, Asmedit 3.3)  HLASM R4.0  2004/03/15 12.54
+___    ______ ____    _____ _____  ____ __ ______    ______ _________
00001FC 1200/4770 7034              7651  2                        IF    (R0,Z),BEGIN        IF MATCH FOUND AND PROCESSED, DONE
 000202 47F0 707A            0024C  7665  3                          B     RLKDONE
 000206                             7666  2                        END
 000206                             7670  1                      END
                                    7674  1
                                    7675  1                      COMMENT                   CALL MATCH ROUTINE
 000206 58E0 7A12/0DEE       00BE4  7676  1                      ACALL CALLMAT
                                    7680  1
                                    7681  1                      COMMENT                   IF ERROR,,,
 00020C 12FF/47B0 7046              7682  1                      IF    (R15,NEG),BEGIN
 000212 1B00                        7696  2                        CLEAR R0
 000214 47F0 707A            0024C  7700  2                        B     RLKDONE
 000218                             7701  1                      END
                                    7705  1
                                    7706  1                      COMMENT                   IF MATCH, CALL PROCESS ROUTINE
 000218 12FF/4770 705C              7707  1                      IF    (R15,Z),BEGIN
 00021E 58F0 8028            00000  7721  2                        L     R15,RLKLIST
 000222 58E0 7A16/0DEE       00BE8  7722  2                        ACALL CALLRTN
 000228 1B00                        7726  2                        CLEAR R0
 00022A 47F0 707A            0024C  7730  2                        B     RLKDONE
 00022E                             7731  1                      END
                                    7735  1
                                    7736  1                      COMMENT                   LOOP THRU KEYWORDS
 00022E 5810 8028            00000  7737  1                      L     R1,RLKLIST
 000232 9140 1013/47E0_00013        7738  1                      IF    (NKWFEND),BEGIN
 00023A 1B11                        7753  2                        CLEAR R1
 00023C                             7757  1                      END
 00023C 706E/47F0 7072 0023C 00238  7761  1                      ELSE  BEGIN
                                    7772  2           *        NEXTNKW
 000240 4111 0028            00028  7773  2                        LA    R1,L'NKW(R1)
 000244                             7774  1                      END
 000244 47F0 700E            001E0  7778                       END , LOOP LOOKING FOR MATCHES ,,,
                                    7783
                                    7784                       COMMENT                   DROP THRU IMPLIES NO MATCH
 000248 4100 0004            00004  7785                       LA    R0,4
                                    7786
 00024C                             7787              RLKDONE  LABEL ,
 00024C 5810 8028            00000  7789                       L     R1,RLKLIST
 000250 9001 8004            00004  7790                       PRETURN (R0,R1)
 000254 18D8/9808 D004_             7792                       PEND
 DROP   RLKWA-(4+36),R8
 DROP   *,R7
 DROP   NKW,R1                      7817                       DROP  R1
 DROP   NSCNCB,R2                   7824                       DROP  R2
1SCAN     (SCAN2025) (12:54) (15MAR04) NEW WYLBUR SCANNER                                                                   Page   20
0Current Usings:  (CP,R11) (CV,R12)
0Loc    Object Code    Addr1 Addr2  Stmt Lv Lineno    Source Statement           (Hibal 5, Asmedit 3.3)  HLASM R4.0  2004/03/15 12.54
+___    ______ ____    _____ _____  ____ __ ______    ______ _________
0                                   7832              *
                                    7833              **
                                    7834              **  CALLMAT
                                    7835              **
                                    7836              **  ON ENTRY:
                                    7837              **    R1 - KEYWORD TABLE ENTRY FOR THIS KEYWORD
                                    7838              **    R2 - SCAN CB
                                    7839              **    R3 - STACK POINTER AT SCAN ROUTINE ENTRY
                                    7840              **
                                    7841              **  ON EXIT:
                                    7842              **    R0 - USER PARM, IF MATCH
                                    7843              **    R1 - USER PARM, IF MATCH
                                    7844              **    R15 - ZERO IF MATCH
                                    7845              **    R15 - NON ZERO, IF NO MATCH
                                    7846              **
                                    7847              **
                                    7848              **  NOTE:
                                    7849              **  WE SET UP PARMS TO CALL USERS MATCH ROUTINE.
                                    7850              **
                                    7851              **  NOTE:
                                    7852              **  SEE COMMENTS AT START OF MODULE ON MATCH ROUTINE
                                    7853              **  USER INTERFACE.
                                    7854              **
                                    7855              **  NOTE2: !!!!
                                    7856              **  THERE ARE SOME (MANY) DIFFICULTIES SETTING UP THE REGISTERS
                                    7857              **  FOR THE CALL TO USERS ROUTINE.  THERE IS MUCH REGISTER
                                    7858              **  JUGGLING... THE BIGGEST TRICKS ARE: (A.) THAT R14 MUST POINT
                                    7859              **  TO THE KEYWORD TABLE ENTRY... SO WE CAN USE IT TO GET THE
                                    7860              **  ROUTINE ADDRESS AFTER ALL THE OTHER REGS ARE SET UP.
                                    7861              **  AND (B.) THAT WE MUST POINT INTO THE STACK TO RECOVER
                                    7862              **  REGS AT THE TIME OF THE CALL TO SCAN.  AND ALSO TO POINT
                                    7863              **  TO USERS WORK AREA AT THE TIME OF THE CALL TO SCAN.
                                    7864              **  HOLD ONTO YOUR HATS !!
                                    7865              *
 000262 50E0 D000/9008_      00000  7866              CALLMAT  PROC  CALLWA
 USING  *,R7
 USING  CALLWA-(4+36),R8
 USING  NSCNCB,R2                   7916                       USING NSCNCB,R2
 USING  NKW,R1                      7925                       USING NKW,R1
                                    7934
                                    7935                       COMMENT                   IF ROUTINE IS NOOP, DO NOT CALL
 00027C 9120 1012/47E0_00012        7936                       IF    (~NKWFMAT,OR,(NKWMAT,EQ,0)),BEGIN
 00028E 41F0 0004            00004  7968  1                      LA    R15,4
 000292 47F0 7030            002AC  7969  1                      B     CALMDONE
 000296                             7970                       END
                                    7974
                                    7975                       COMMENT                   R14 IS NOW NKW TOO !
 000296 41E0 1000            00000  7976                       LA    R14,NKW
                                    7977
                                    7978                       COMMENT                   SET R0,R1,R2 FOR CALL
 00029A 1BFF                        7979                       CLEAR R15
 00029C 1B00                        7983                       CLEAR R0
                                    7987                       COMMENT R1 IS NKW
                                    7988                       COMMENT R2 IS NSCNCB
1SCAN     (SCAN2025) (12:54) (15MAR04) NEW WYLBUR SCANNER                                                                   Page   21
0Current Usings:  (NKW,R1) (NSCNCB,R2) (*,R7) (CALLWA-(4+36),R8) (CP,R11) (CV,R12)
0Loc    Object Code    Addr1 Addr2  Stmt Lv Lineno    Source Statement           (Hibal 5, Asmedit 3.3)  HLASM R4.0  2004/03/15 12.54
+___    ______ ____    _____ _____  ____ __ ______    ______ _________
0                                   7989
                                    7990                       COMMENT
 00029E 5030 8028            00000  7991                       ST    R3,CALLSTKP         STACK POINTER FOR NSCAN
 0002A2 9836 3010            00010  7992                       LM    R3,R6,16(R3)        *** HIGHLY NON-STANDARD !
 0002A6 58EE 0020/0DEE       00020  7993                       MATCALL
                                    7996
 0002AC                             7997              CALMDONE LABEL ,
 0002AC 9001 8004            00004  7999                       PRETURN (R0,R1)
 0002B0 18D8/9808 D004_             8001                       PEND
 DROP   CALLWA-(4+36),R8
 DROP   *,R7
 DROP   NKW,R1                      8026                       DROP  R1
 DROP   NSCNCB,R2                   8033                       DROP  R2
1SCAN     (SCAN2025) (12:54) (15MAR04) NEW WYLBUR SCANNER                                                                   Page   22
0Current Usings:  (CP,R11) (CV,R12)
0Loc    Object Code    Addr1 Addr2  Stmt Lv Lineno    Source Statement           (Hibal 5, Asmedit 3.3)  HLASM R4.0  2004/03/15 12.54
+___    ______ ____    _____ _____  ____ __ ______    ______ _________
0                                   8041              *
                                    8042              **
                                    8043              **  CALLRTN
                                    8044              **
                                    8045              **  ON ENTRY:
                                    8046              **    R0 - MATCH ROUTINE PARM1
                                    8047              **    R1 - MATCH ROUTINE PARM2
                                    8048              **    R2 - SCAN CB
                                    8049              **    R3 - STACK POINTER AT SCAN ROUTINE ENTRY
                                    8050              **    R15 - MATCH NKW ADDRESS
                                    8051              **
                                    8052              **  ON EXIT:
                                    8053              **    R15 - RETURNS R15 VALUE PASSED BY USER
                                    8054              **
                                    8055              **
                                    8056              **  NOTE:
                                    8057              **  WE SET UP PARMS TO CALL USERS KEYWORD PROCESSING ROUTINE.
                                    8058              **
                                    8059              **  NOTE:
                                    8060              **  SEE COMMENT AT START OF MODULE FOR PROCESSING ROUTINE
                                    8061              **  INTERFACE DOCUMENTATION.
                                    8062              **
                                    8063              **  NOTE: !!!!
                                    8064              **  THERE ARE SOME (MANY) DIFFICULTIES SETTING UP THE REGISTERS
                                    8065              **  FOR THE CALL TO USERS ROUTINE.  THERE IS MUCH REGISTER
                                    8066              **  JUGGLING... THE BIGGEST TRICKS ARE: (A.) THAT R14 MUST POINT
                                    8067              **  TO THE KEYWORD TABLE ENTRY... SO WE CAN USE IT TO GET THE
                                    8068              **  ROUTINE ADDRESS AFTER ALL THE OTHER REGS ARE SET UP.
                                    8069              **  AND (B.) THAT WE MUST POINT INTO THE STACK TO RECOVER
                                    8070              **  REGS AT THE TIME OF THE CALL TO SCAN.  AND ALSO TO POINT
                                    8071              **  TO USERS WORK AREA AT THE TIME OF THE CALL TO SCAN.
                                    8072              **  HOLD ONTO YOUR HATS !!
                                    8073              *
 000000                00000 00004  8074              CALLWA   RECORD BEGIN
 000000                             8082  1           CALLSTKP   DS    F
 000004                00004 00004  8083                       END
                                    8092              *
                                    8093              *
 0002BE 50E0 D000/9008_      00000  8094              CALLRTN  PROC  CALLWA
 USING  *,R7
 USING  CALLWA-(4+36),R8
 USING  NSCNCB,R2                   8144                       USING NSCNCB,R2
 USING  NKW,R15                     8153                       USING NKW,R15
                                    8162
                                    8163                       COMMENT                   SAVE TOKEN IF SET SPECIFED
 0002D8 9120 F014/47E0_00014        8164                       IF    NKWFSET,BEGIN
 0002E0 D202 BD24 F000 00D24 00000  8179  1                      MVC   CPCMNM,NKWTOK
 0002E6                             8180                       END
                                    8184
                                    8185                       COMMENT                   IF ROUTINE IS NOOP, DO NOT CALL
 0002E6 9110 F012/47E0_00012        8186                       IF    (~NKWFRTN,OR,(NKWRTN,EQ,0)),BEGIN
 0002F8 1BFF                        8218  1                      CLEAR R15
 0002FA 47F0 7042            0031A  8222  1                      B     CALLDONE
 0002FE                             8223                       END
1SCAN     (SCAN2025) (12:54) (15MAR04) NEW WYLBUR SCANNER                                                                   Page   23
0Current Usings:  (NSCNCB,R2) (*,R7) (CALLWA-(4+36),R8) (CP,R11) (CV,R12) (NKW,R15)
0Loc    Object Code    Addr1 Addr2  Stmt Lv Lineno    Source Statement           (Hibal 5, Asmedit 3.3)  HLASM R4.0  2004/03/15 12.54
+___    ______ ____    _____ _____  ____ __ ______    ______ _________
0                                   8227
                                    8228                       COMMENT                   R14 IS NOW NKW TOO !
 0002FE 41E0 F000            00000  8229                       LA    R14,NKW
                                    8230
                                    8231                       COMMENT                   SET ALL REGS FOR CALL
 000302 1BFF                        8232                       CLEAR R15
                                    8236                       COMMENT R0 IS USER PARM
                                    8237                       COMMENT R1 IS USER PARM
                                    8238                       COMMENT R2 IS NSCNCB
 000304 5030 8028            00000  8239                       ST    R3,CALLSTKP         STACK POINTER FOR NSCAN
 000308 9836 3010            00010  8240                       LM    R3,R6,16(R3)        *** HIGHLY NON-STANDARD !
 00030C 58EE 0024/0DEE       00024  8241                       RTNCALL
 000312 5810 8028            00000  8244                       L     R1,CALLSTKP
 000316 9036 1010            00010  8245                       STM   R3,R6,16(R1)        *** HIGHLY NON-STANDARD !
                                    8246
 00031A                             8247              CALLDONE LABEL ,
 00031A 18D8/9808 D004_             8249                       PEND
 DROP   CALLWA-(4+36),R8
 DROP   *,R7
 DROP   NKW,R15                     8274                       DROP  R15
 DROP   NSCNCB,R2                   8281                       DROP  R2
1SCAN     (SCAN2025) (12:54) (15MAR04) NEW WYLBUR SCANNER                                                                   Page   24
0Current Usings:  (CP,R11) (CV,R12)
0Loc    Object Code    Addr1 Addr2  Stmt Lv Lineno    Source Statement           (Hibal 5, Asmedit 3.3)  HLASM R4.0  2004/03/15 12.54
+___    ______ ____    _____ _____  ____ __ ______    ______ _________
0                                   8289              *
                                    8290              **
                                    8291              **  DO SPECIAL ACTIONS
                                    8292              **
                                    8293              **  ON ENTRY:
                                    8294              **    R1 - KEYWORD TABLE ENTRY
                                    8295              **    R2 - SCAN CONTROL BLOCK
                                    8296              **    R3 - TOKEN LOC
                                    8297              **    R4 - TOKEN LEN
                                    8298              **
                                    8299              **  ON EXIT:
                                    8300              **    R15 - SAME AS ENTRY (DO NOT CHANGE !!)
                                    8301              **
                                    8302              **  SET AND BLANK OPTIONS PROCESSED BELOW.
                                    8303              **
                                    8304              *
 000328 50E0 D000/9008_      00000  8305              DOSPECL  PROC
 USING  *,R7
 USING  NKW,R1                      8344                       USING NKW,R1
 USING  NSCNCB,R2                   8353                       USING NSCNCB,R2
 000342 50F0 D000/41D0_      00000  8362                       XPUSH R15
                                    8365
                                    8366                       COMMENT                   SAVE TOKEN IF SET SPECIFED
 00034A 9120 1014/47E0_00014        8367                       IF    NKWFSET,BEGIN
 000352 D202 BD24 1000 00D24 00000  8382  1                      MVC   CPCMNM,NKWTOK
 000358                             8383                       END
                                    8387
                                    8388                       COMMENT                   IF BLANK, BLANK TOKEN/PARM
                                    8389                       COMMENT                     UNLESS NOBLANK ON KW ENTRY
 000358 9180 2008/47E0_00008        8390                       IF    (NSCNFBLK,AND,~NKWFNOBK,AND,~NKWFPUSH),BEGIN
 000370 5840 2010            00010  8431  1                      L     R4,NSCNTLOC         GET TOKEN, TOKEN/PARM LOC LEN
 000374 5A40 2014            00014  8432  1                      A     R4,NSCNTLEN
 000378 1B43                        8433  1                      SR    R4,R3
 00037A 5850 78AA            00BEC  8434  1                      L     R5,=A(TBLBLANK)
 00037E 1244/47D0 7048              8435  1                      IF    (R4,POS),BEGIN
 000384 0640/4440 7902_             8449  2                        DEX   R4,' MVC @R3(0),@R5 '
 00038A                             8468  1                      END
 00038A                             8472                       END
                                    8476
 00038A 4BD0 78F6/58F0_      00C38  8477                       XPOP  R15
 000392 18D8/9808 D004_             8480                       PEND
 DROP   *,R7
 DROP   NKW,R1                      8500                       DROP  R1
 DROP   NSCNCB,R2                   8507                       DROP  R2
1SCAN     (SCAN2025) (12:54) (15MAR04) NEW SCAN ROUTINES                                                                    Page   25
0Current Usings:  (CP,R11) (CV,R12)
0Loc    Object Code    Addr1 Addr2  Stmt Lv Lineno    Source Statement           (Hibal 5, Asmedit 3.3)  HLASM R4.0  2004/03/15 12.54
+___    ______ ____    _____ _____  ____ __ ______    ______ _________
0                                   8515              *
                                    8516              **
                                    8517              **  SCNTOKEN - SCAN TOKEN
                                    8518              **
                                    8519              **  ON ENTRY:
                                    8520              **    @R2 - SCAN CB
                                    8521              **    NSCNLOC - STRING LOC
                                    8522              **    NSCNLEN - STRING LEN
                                    8523              **    NSCNSKIP - SKIP TRT TABLE
                                    8524              **    NSCNSTOP - STOP TRT TABLE
                                    8525              **
                                    8526              **  ON EXIT:
                                    8527              **    @R2 - SCAN CB
                                    8528              **    TOKEN LOC,LEN; STRING (REMAINING) LOC,LEN UPDATED IN SCAN CB
                                    8529              **    R15 - 0, IF NO ERROR
                                    8530              **    R15 - NEG, IF ERROR, ERROR MSG PLACED IN SCAN CB
                                    8531              **      (ONLY ERROR DETECTED IS MISMATCHED QUOTES, PARENTHESIS)
                                    8532              **
                                    8533              **  NOTE:
                                    8534              **  THIS ROUTINE USES SKIP/STOP TRT TABLES.  IF TOKEN STARTS WITH
                                    8535              **  PARENTHESIS OR QUOTE.  THE MATCHING PARENTHESIS OR QUOTE WILL
                                    8536              **  CONSTITUTES THE END OF THE TOKEN.  ALSO, A SCAN OF A ';'
                                    8537              **  TOKEN WILL BE TREATED AS AN END OF STRING.
                                    8538              **
                                    8539              *
 0003A0 50E0 D000/9008_      00000  8540              SCNTOKEN PROC
 USING  *,R7
 USING  NSCNCB,R6                   8579                       USING NSCNCB,R6
 0003BA 1862                        8588                       LR    R6,R2
                                    8589
                                    8590                       COMMENT                   SET DEFAULT RETURNS
 0003BC 5810 6000            00000  8591                       L     R1,NSCNLOC
 0003C0 5010 6010            00010  8592                       ST    R1,NSCNTLOC
 0003C4 D703 6014 6014 00014 00014  8593                       CLEAR NSCNTLEN
 0003CA D703 6050 6050 00050 00050  8600                       CLEAR NSCNTOKL
 0003D0 1BFF                        8607                       CLEAR R15
                                    8611
                                    8612                       COMMENT                   SCAN TOKEN
 0003D2 5800 6004            00004  8613                       L     R0,NSCNLEN
 0003D6 5810 6000            00000  8614                       L     R1,NSCNLOC
 0003DA 5820 6024            00024  8615                       L     R2,NSCNSKIP
 0003DE 58E0 7836/0DEE       00BF0  8616                       ACALL TRTSCAN
 0003E4 5010 6010            00010  8620                       ST    R1,NSCNTLOC
 0003E8 5820 6020            00020  8621                       L     R2,NSCNSTOP
 0003EC 58E0 7836/0DEE       00BF0  8622                       ACALL TRTSCAN
 0003F2 1200/47D0 704C_             8626                       IF    ((R0,POS),AND,(R1,EQ,NSCNTLOC)),BEGIN
 000400 4111 0001            00001  8656  1                      LA    R1,1(R1)            IF START/STOP OF TOKEN ARE SAME
 000404 0600                        8657  1                      DECR  R0                  CHAR, THEN STOP IS REALLY +1
 000406                             8659                       END
 000406 5010 6000            00000  8663                       ST    R1,NSCNLOC
 00040A 5000 6004            00004  8664                       ST    R0,NSCNLEN
 00040E 5810 6000            00000  8665                       L     R1,NSCNLOC
 000412 5B10 6010            00010  8666                       S     R1,NSCNTLOC
 000416 5010 6014            00014  8667                       ST    R1,NSCNTLEN
1SCAN     (SCAN2025) (12:54) (15MAR04) NEW SCAN ROUTINES                                                                    Page   26
0Current Usings:  (NSCNCB,R6) (*,R7) (CP,R11) (CV,R12)
0Loc    Object Code    Addr1 Addr2  Stmt Lv Lineno    Source Statement           (Hibal 5, Asmedit 3.3)  HLASM R4.0  2004/03/15 12.54
+___    ______ ____    _____ _____  ____ __ ______    ______ _________
000041A 5810 6010            00010  8668                       L     R1,NSCNTLOC
 00041E 5800 6014            00014  8669                       L     R0,NSCNTLEN
                                    8670
                                    8671                       COMMENT                   IF NULL SCAN, EXIT
 000422 1200/4770 7072              8672                       IF    (R0,Z),BEGIN
 000428 47F0 7104            004BE  8686  1                      B     SCNTDONE
 00042C                             8687                       END
                                    8691
                                    8692                       COMMENT                   SPECIAL PROCESS QUOTES, PARENS
 00042C 9140 6008/4710_00008        8693                       IF    ~NSCNFNOQ,BEGIN
 000434 954D 1000/4780_00000        8708  1                      IF    ((@R1,EQ,'('),OR,(@R1,EQ,'"'),OR,(@R1,EQ,'''')),BEGIN
 00044C 5810 6010            00010  8752  2                        L     R1,NSCNTLOC
 000450 5800 6014            00014  8753  2                        L     R0,NSCNTLEN
 000454 5820 6000            00000  8754  2                        L     R2,NSCNLOC
 000458 5830 6004            00004  8755  2                        L     R3,NSCNLEN
 00045C 954D 1000/4770_00000        8756  2                        IF    (@R1,EQ,'('),BEGIN
 000464 58E0 783A/0DEE       00BF4  8772  3                          ACALL SCNPAREN
 00046A                             8776  2                        END
 00046A 70B4/47F0 70BA 0046A 00462  8780  2                        ELSE  BEGIN
 00046E 58E0 783E/0DEE       00BF8  8791  3                          ACALL SCNQUOTE
 000474                             8795  2                        END
 000474 5000 6014            00014  8799  2                        ST    R0,NSCNTLEN
 000478 5010 6010            00010  8800  2                        ST    R1,NSCNTLOC
 00047C 5020 6000            00000  8801  2                        ST    R2,NSCNLOC
 000480 5030 6004            00004  8802  2                        ST    R3,NSCNLEN
 000484 12FF/4780 70DA              8803  2                        IF    (R15,NZ),BEGIN
 00048A 4120 6000            00000  8817  3                          LA    R2,NSCNCB
 00048E 58E0 7842/0DEE       00BFC  8818  3                          ACALL BADPAREN
 000494                             8822  2                        END
 000494                             8826  1                      END
 000494                             8830                       END
                                    8834
                                    8835                       COMMENT
 000494 955E 1000/4770_00000        8836                       IF    (@R1,EQ,';'),BEGIN  SPECIAL PROCESS ';', NULL SCAN
 00049C D703 6014 6014 00014 00014  8852  1                      CLEAR NSCNTLEN            CLEAR TOKEN LENGTH
 0004A2 D703 6050 6050 00050 00050  8859  1                      CLEAR NSCNTOKL
 0004A8 5810 6010            00010  8866  1                      L     R1,NSCNTLOC         RESET REMAINING STRING LOC,LEN
 0004AC 5820 6000            00000  8867  1                      L     R2,NSCNLOC
 0004B0 5A20 6004            00004  8868  1                      A     R2,NSCNLEN
 0004B4 1B21                        8869  1                      SR    R2,R1
 0004B6 5010 6000            00000  8870  1                      ST    R1,NSCNLOC
 0004BA 5020 6004            00004  8871  1                      ST    R2,NSCNLEN
 0004BE                             8872                       END
                                    8876
 0004BE                             8877              SCNTDONE LABEL ,
 0004BE 18D8/9808 D004_             8879                       PEND
 DROP   *,R7
 DROP   NSCNCB,R6                   8899                       DROP  R6
1SCAN     (SCAN2025) (12:54) (15MAR04) NEW SCAN ROUTINES                                                                    Page   27
0Current Usings:  (CP,R11) (CV,R12)
0Loc    Object Code    Addr1 Addr2  Stmt Lv Lineno    Source Statement           (Hibal 5, Asmedit 3.3)  HLASM R4.0  2004/03/15 12.54
+___    ______ ____    _____ _____  ____ __ ______    ______ _________
0                                   8907              *
                                    8908              **
                                    8909              **  SETTOKEN - SET TOKEN FIELDS IN SCAN CB
                                    8910              **
                                    8911              **  ON ENTRY:
                                    8912              **    R2 - SCAN CB
                                    8913              **    NSCNTLOC - TOKEN LOC
                                    8914              **    NSCNTLEN - TOKEN LEN
                                    8915              **    R15 - ZERO, IF SCAN OK;  NEG, IF SCAN ERROR
                                    8916              **
                                    8917              **  ON EXIT:
                                    8918              **    R15 - SAME AS ON ENTRY
                                    8919              **    NSCNTOK - TOKEN UPPER CASE AND BLANK PADDED IN 16 CHAR FIELD
                                    8920              **    NSCNCTOK - TOKEN UPLOW AND BLANK PADDED IN 16 CHAR FIELD
                                    8921              **    NSCNTOKL - MIN(TOKEN LEN, 16)
                                    8922              **    BLANK SCAN OPTION PROCESSED HERE
                                    8923              **
                                    8924              *
 0004CC 50E0 D000/9008_      00000  8925              SETTOKEN PROC
 USING  *,R7
 USING  NSCNCB,R6                   8964                       USING NSCNCB,R6
 0004E6 1862                        8973                       LR    R6,R2
 0004E8 50F0 D000/41D0_      00000  8974                       XPUSH R15
                                    8977
                                    8978                       COMMENT                   BLANK TOKEN FIELDS
 0004F0 5840 7706            00BEC  8979                       L     R4,=A(TBLBLANK)
 0004F4 D20F 6030 4000 00030 00000  8980                       MVC   NSCNTOK,@R4
 0004FA D20F 6040 4000 00040 00000  8981                       MVC   NSCNCTOK,@R4
 000500 D703 6050 6050 00050 00050  8982                       CLEAR NSCNTOKL
                                    8989
 000506 12FF/4770 7062_             8990                       IF    ((R15,Z),AND,(NSCNTLEN,GT,0)),BEGIN
 000516 5810 6010            00010  9021  1                      L     R1,NSCNTLOC
 00051A 5830 6014            00014  9022  1                      L     R3,NSCNTLEN
 00051E 5930 771A/47D0_      00C00  9023  1                      CEIL  R3,16
 00052A 5030 6050            00050  9042  1                      ST    R3,NSCNTOKL
 00052E 0630                        9043  1                      DECR  R3
 000530 4430 7764/D200_      00C4A  9045  1                      EX    R3,' MVC NSCNTOK(0),0(R1) '
 000534 4430 776A/D200_      00C50  9061  1                      EX    R3,' MVC NSCNCTOK(0),0(R1) '
 000538 5840 771E            00C04  9077  1                      L     R4,=A(TBLUPPER)
 00053C 4430 7770/DC00_      00C56  9078  1                      EX    R3,' TR  NSCNTOK(0),0(R4) '
 000540 5810 6010            00010  9094  1                      L     R1,NSCNTLOC
 000544 5800 6014            00014  9095  1                      L     R0,NSCNTLEN
 000548                             9096                       END
                                    9100
 000548 4BD0 7752/58F0_      00C38  9101                       XPOP  R15
 000550 18D8/9808 D004_             9104                       PEND
 DROP   *,R7
 DROP   NSCNCB,R6                   9124                       DROP  R6
1SCAN     (SCAN2025) (12:54) (15MAR04) NEW SCAN ROUTINES                                                                    Page   28
0Current Usings:  (CP,R11) (CV,R12)
0Loc    Object Code    Addr1 Addr2  Stmt Lv Lineno    Source Statement           (Hibal 5, Asmedit 3.3)  HLASM R4.0  2004/03/15 12.54
+___    ______ ____    _____ _____  ____ __ ______    ______ _________
0                                   9132              *
                                    9133              **
                                    9134              **  SETTYPE - DETERMINE TYPE
                                    9135              **
                                    9136              **  ON ENTRY:
                                    9137              **    R15 - ZERO, IF SCAN OK;  NEG, IF SCAN ERROR
                                    9138              **    SCAN CB - TOKEN LOC, LEN;
                                    9139              **
                                    9140              **  ON EXIT:
                                    9141              **    R15 - SAME AS ENTRY VALUE, ALSO
                                    9142              **    SET TYPE FLAGS AS FOLLOWS, (VALUE SET FOR NUM, LNO TYPES):
                                    9143              **       NULL - TOKEN LEN 0
                                    9144              **       LNO - LINE NUMBER (CONTAINS DECIMAL, VAL IS x1000)
                                    9145              **             (EG. 123.2  12. .123 12.2222222)
                                    9146              **             (NOTE: LONG DECIMALS TRUNCATED TO 3 PLACES)
                                    9147              **       NUM - INTEGER NUMBER (MAY BE NEG)
                                    9148              **             (EG. -123 +123 12)
                                    9149              **       ERR - IF R15 NEG ON ENTRY
                                    9150              **       TOKEN - ANY OTHER
                                    9151              **
                                    9152              **
                                    9153              **  NOTE:
                                    9154              **  NO ERRORS ARE DETECTED BY THIS ROUTINE.  NUMBERS ARE CHECKED
                                    9155              **  ONLY FOR MAX SIZE.  IF NUMBERS ARE INVALID, THEY WILL BE
                                    9156              **  TREATED AS TOKENS.  IF R15 IS NZ, THEN THE TYPE FLAG IS SET
                                    9157              **  TO ERROR.  THAT IS IT.
                                    9158              **
                                    9159              *
 000000                00000 00001  9160              SETTWA   RECORD BEGIN
 000000 00                          9168  1           SETTFLG    FLAG
 SETTFLG.SETTNEG   80 ONES          9172  1                      FLAG  SETTNEG             NEG NUMBER
 SETTFLG.SETTDEC   40 ONES          9177  1                      FLAG  SETTDEC             DECIMAL ENCOUNTERED
 000001                00001 00001  9182                       END
                                    9191              *
                                    9192              *
 00055E 50E0 D000/9008_      00000  9193              SETTYPE  PROC  SETTWA
 USING  *,R7
 USING  SETTWA-(4+36),R8
 USING  NSCNCB,R6                   9243                       USING NSCNCB,R6
 000578 1862                        9252                       LR    R6,R2
 00057A 50F0 D000/41D0_      00000  9253                       XPUSH R15
                                    9256
 000582 9200 8028      00000        9257                       CLEAR SETTWA
                                    9264
                                    9265                       COMMENT                   IF ERROR
 000586 12FF/4780 7026              9266                       IF    (R15,NZ),BEGIN
 00058C 9200 6018      00018        9280  1                      CLEAR NSCNTYPE
 000590 9608 6018      00018        9287  1                      SET   NSCNFERR
 000594 D703 601C 601C 0001C 0001C  9293  1                      CLEAR NSCNTVAL
 00059A 47F0 7220            00798  9300  1                      B     SETTDONE
 00059E                             9301                       END
                                    9305
                                    9306                       COMMENT                   IF NULL
 00059E 5800 6014            00014  9307                       L     R0,NSCNTLEN
1SCAN     (SCAN2025) (12:54) (15MAR04) NEW SCAN ROUTINES                                                                    Page   29
0Current Usings:  (NSCNCB,R6) (*,R7) (SETTWA-(4+36),R8) (CP,R11) (CV,R12)
0Loc    Object Code    Addr1 Addr2  Stmt Lv Lineno    Source Statement           (Hibal 5, Asmedit 3.3)  HLASM R4.0  2004/03/15 12.54
+___    ______ ____    _____ _____  ____ __ ______    ______ _________
00005A2 1200/4770 7042              9308                       IF    (R0,Z),BEGIN
 0005A8 9200 6018      00018        9322  1                      CLEAR NSCNTYPE
 0005AC 9680 6018      00018        9329  1                      SET   NSCNFNUL
 0005B0 D703 601C 601C 0001C 0001C  9335  1                      CLEAR NSCNTVAL
 0005B6 47F0 7220            00798  9342  1                      B     SETTDONE
 0005BA                             9343                       END
                                    9347
                                    9348                       COMMENT                   DETERMINE IF NUM,
 0005BA 5810 6010            00010  9349                       L     R1,NSCNTLOC
 0005BE 5800 6014            00014  9350                       L     R0,NSCNTLEN
 0005C2 1850                        9351                       LR    R5,R0
 0005C4 5840 7690            00C08  9352                       L     R4,=A(SNUMBERX)
 0005C8 0650/4450 76E4_             9353                       DEX   R5,' TRT @R1(0),@R4 '
 0005CE 4770 70D8            00650  9372                       IF    Z,BEGIN
 0005D2 954E 1000/4780_00000        9383  1                      IF    ((@R1,EQ,'+'),OR,(@R1,EQ,'-')),BEGIN
 0005E2 5E10 7694            00C0C  9414  2                        INCR  R1
 0005E6 0600                        9417  2                        DECR  R0
 0005E8 9560 1000/4770_00000        9419  2                        IF    (@R1,EQ,'-'),BEGIN
 0005F0 9680 8028      00000        9435  3                          SET   SETTNEG
 0005F4                             9441  2                        END
 0005F4                             9445  1                      END
 0005F4 1200/47D0 70D8_             9449  1                      IF    ((R0,POS),AND,(R0,LE,9)),BEGIN
 000602 1850                        9479  2                        LR    R5,R0
 000604 5840 769C            00C14  9480  2                        L     R4,=A(SNUMBER)
 000608 0650/4450 76EA_             9481  2                        DEX   R5,' TRT @R1(0),@R4 '
 00060E 4770 70D8            00650  9500  2                        IF    Z,BEGIN             FOUND INTEGER, ,,,
 000612 9200 6018      00018        9511  3                          CLEAR NSCNTYPE            SET FLAG, GET INTEGER VALUE
 000616 9620 6018      00018        9518  3                          SET   NSCNFINT
 00061A 1B44                        9524  3                          CLEAR R4
 00061C 1B55                        9528  3                          CLEAR R5
 00061E 5900 76A0/47D0_      00C18  9532  3                          WHILE (R0,GT,0),BEGIN
 000626 4C50 76C2            00C3A  9551  4                            MH    R5,=H'10'
 00062A 4340 1000            00000  9552  4                            IC    R4,@R1
 00062E 5440 76A4            00C1C  9553  4                            N     R4,=F'15' IE. X'0F'
 000632 1A54                        9554  4                            AR    R5,R4
 000634 5E10 7694            00C0C  9555  4                            INCR  R1
 000638 0600                        9558  4                            DECR  R0
 00063A 47F0 70A6            0061E  9560  3                          END
 00063E 9180 8028/47E0_00000        9565  3                          IF    SETTNEG,' LNR R5,R5 '
 000648 5050 601C            0001C  9586  3                          ST    R5,NSCNTVAL
 00064C 47F0 7220            00798  9587  3                          B     SETTDONE
 000650                             9588  2                        END
 000650                             9592  1                      END
 000650                             9596                       END
                                    9600
                                    9601                       COMMENT                   DETERMINE IF LNO,
 000650 5810 6010            00010  9602                       L     R1,NSCNTLOC
 000654 5800 6014            00014  9603                       L     R0,NSCNTLEN
 000658 1850                        9604                       LR    R5,R0
 00065A 5840 76A8            00C20  9605                       L     R4,=A(SLINENOX)
 00065E 0650/4450 76F0_             9606                       DEX   R5,' TRT @R1(0),@R4 '
 000664 4770 7212            0078A  9625                       IF    Z,BEGIN
 000668 954E 1000/4780_00000        9636  1                      IF    ((@R1,EQ,'+'),OR,(@R1,EQ,'-')),BEGIN
 000678 5E10 7694            00C0C  9667  2                        INCR  R1
1SCAN     (SCAN2025) (12:54) (15MAR04) NEW SCAN ROUTINES                                                                    Page   30
0Current Usings:  (NSCNCB,R6) (*,R7) (SETTWA-(4+36),R8) (CP,R11) (CV,R12)
0Loc    Object Code    Addr1 Addr2  Stmt Lv Lineno    Source Statement           (Hibal 5, Asmedit 3.3)  HLASM R4.0  2004/03/15 12.54
+___    ______ ____    _____ _____  ____ __ ______    ______ _________
000067C 0600                        9670  2                        DECR  R0
 00067E 9560 1000/4770_00000        9672  2                        IF    (@R1,EQ,'-'),BEGIN
 000686 9680 8028      00000        9688  3                          SET   SETTNEG
 00068A                             9694  2                        END
 00068A                             9698  1                      END
 00068A 5900 76AC/4750_      00C24  9702  1                      IF    (R0,GE,2),BEGIN     (AT LEAST 1 NUM AND A DECIMAL)
 000692 1850                        9719  2                        LR    R5,R0
 000694 5840 76B0            00C28  9720  2                        L     R4,=A(SLINENO)
 000698 0650/4450 76F6_             9721  2                        DEX   R5,' TRT @R1(0),@R4 '
 00069E 4770 7212            0078A  9740  2                        IF    Z,BEGIN
 0006A2 1841                        9751  3                          LR    R4,R1               COUNT DECIMAL POINTS IN R3
 0006A4 1850                        9752  3                          LR    R5,R0
 0006A6 1B33                        9753  3                          CLEAR R3
 0006A8 5950 76A0/47D0_      00C18  9757  3                          WHILE (R5,GT,0),BEGIN
 0006B0 954B 4000/4770_00000        9776  4                            IF    (@R4,EQ,'.'),' LA R3,1(R3) '
 0006BC 5E40 7694            00C0C  9798  4                            INCR  R4
 0006C0 0650                        9801  4                            DECR  R5
 0006C2 47F0 7130            006A8  9803  3                          END
 0006C6 5930 7694/4770_      00C0C  9808  3                          IF    (R3,EQ,1),BEGIN
 0006CE 1841                        9825  4                            LR    R4,R1               COUNT DIGITS BEFORE DECIMAL
 0006D0 1B33                        9826  4                            CLEAR R3
 0006D2 954B 4000/4780_00000        9830  4                            WHILE (@R4,NE,'.'),BEGIN
 0006DA 5E30 7694            00C0C  9848  5                              INCR  R3
 0006DE 5E40 7694            00C0C  9851  5                              INCR  R4
 0006E2 47F0 715A            006D2  9854  4                            END
 0006E6 5930 76B4/4730_      00C2C  9859  4                            IF    (R3,LE,6),BEGIN     GOT LINE NUMBER, WHEW!
 0006EE 9200 6018      00018        9876  5                              CLEAR NSCNTYPE            SET FLAG, GET LNO VALUE  (x1000)
 0006F2 9610 6018      00018        9883  5                              SET   NSCNFLNO
 0006F6 1B44                        9889  5                              CLEAR R4
 0006F8 1B55                        9893  5                              CLEAR R5
 0006FA 1B33                        9897  5                              CLEAR R3
 0006FC 5900 76A0/47D0_      00C18  9901  5                              WHILE ((R0,GT,0),AND,(R3,LT,3)),BEGIN
 00070C 954B 1000/4770_00000        9936  6                                IF    (@R1,EQ,'.'),BEGIN
 000714 9640 8028      00000        9952  7                                  SET   SETTDEC
 000718                             9958  6                                END
 000718 71A4/47F0 71BE 00718 00712  9962  6                                ELSE  BEGIN
 00071C 4C50 76C2            00C3A  9973  7                                  MH    R5,=H'10'
 000720 4340 1000            00000  9974  7                                  IC    R4,@R1
 000724 5440 76A4            00C1C  9975  7                                  N     R4,=F'15' IE. X'0F'
 000728 1A54                        9976  7                                  AR    R5,R4
 00072A 9140 8028/47E0_00000        9977  7                                  IF    SETTDEC,' LA R3,1(R3) '
 000736                             9998  6                                END
 000736 5E10 7694            00C0C 10002  6                                INCR  R1
 00073A 0600                       10005  6                                DECR  R0
 00073C 47F0 7184            006FC 10007  5                              END
 000740 1233/4770 71D2             10012  5                              IF    (R3,Z),BEGIN
 000746 4C50 76C4            00C3C 10026  6                                MH  R5,=H'1000'
 00074A                            10027  5                              END
 00074A 71D6/47F0 71E2_0074A 00744 10031  5                              ELSEIF (R3,EQ,1),BEGIN
 000756 4C50 76C6            00C3E 10057  6                                MH  R5,=H'100'
 00075A                            10058  5                              END
 00075A 71E6/47F0 71F2_0075A 00754 10062  5                              ELSEIF (R3,EQ,2),BEGIN
 000766 4C50 76C2            00C3A 10088  6                                MH  R5,=H'10'
 00076A                            10089  5                              END
1SCAN     (SCAN2025) (12:54) (15MAR04) NEW SCAN ROUTINES                                                                    Page   31
0Current Usings:  (NSCNCB,R6) (*,R7) (SETTWA-(4+36),R8) (CP,R11) (CV,R12)
0Loc    Object Code    Addr1 Addr2  Stmt Lv Lineno    Source Statement           (Hibal 5, Asmedit 3.3)  HLASM R4.0  2004/03/15 12.54
+___    ______ ____    _____ _____  ____ __ ______    ______ _________
000076A 9180 8028/47E0_00000       10093  5                              IF    SETTNEG,' LNR R5,R5 '
 000774 5050 601C            0001C 10114  5                              ST    R5,NSCNTVAL
 000778 1255/4740 7212_            10115  5                              IF    ((R5,NL),AND,(R5,LE,=A(SMAXLNO))),BEGIN
 000786 47F0 7220            00798 10144  6                                B     SETTDONE
 00078A                            10145  5                              END
 00078A                            10149  4                            END
 00078A                            10153  3                          END
 00078A                            10157  2                        END
 00078A                            10161  1                      END
 00078A                            10165                       END
                                   10169
                                   10170                       COMMENT                   ALL OTHERS TREAT AS TOKEN
 00078A 9200 6018      00018       10171                       CLEAR NSCNTYPE
 00078E 9640 6018      00018       10178                       SET   NSCNFTOK
 000792 D703 601C 601C 0001C 0001C 10184                       CLEAR NSCNTVAL
                                   10191
 000798                            10192              SETTDONE LABEL ,
 000798 4BD0 76C0/58F0_      00C38 10194                       XPOP  R15
 0007A0 18D8/9808 D004_            10197                       PEND
 DROP   SETTWA-(4+36),R8
 DROP   *,R7
 DROP   NSCNCB,R6                  10222                       DROP  R6
-
0                                  10230              *
                                   10231              *
                                   10232              *  TYPE TRT TABLES
                                   10233              *
                                   10234              *
 0007AE                            10235              SNUMBER  LABEL ,                   VALID NUMBER
 0007AE FFFFFFFFFFFFFFFF           10237                       DC    256X'FF'
 0008AE                008AE 0089E 10238                       ORG   SNUMBER+C'0'
 00089E 0000000000000000           10239                       DC    10X'00'
 0008A8                008A8 008AE 10240                       ORG
                                   10241
 0008AE                            10242              SNUMBERX LABEL ,                   VALID NUMBER  AND '+' '-'
 0008AE FFFFFFFFFFFFFFFF           10244                       DC    256X'FF'
 0009AE                009AE 0099E 10245                       ORG   SNUMBERX+C'0'
 00099E 0000000000000000           10246                       DC    10X'00'
 0009A8                009A8 008FC 10247                       ORG   SNUMBERX+C'+'
 0008FC 00                         10248                       DC    X'00'
 0008FD                008FD 0090E 10249                       ORG   SNUMBERX+C'-'
 00090E 00                         10250                       DC    X'00'
 00090F                0090F 009AE 10251                       ORG
                                   10252
 0009AE                            10253              SLINENO  LABEL ,                   VALID LINE NUMBER
 0009AE FFFFFFFFFFFFFFFF           10255                       DC    256X'FF'
 000AAE                00AAE 00A9E 10256                       ORG   SLINENO+C'0'
 000A9E 0000000000000000           10257                       DC    10X'00'
 000AA8                00AA8 009F9 10258                       ORG   SLINENO+C'.'
 0009F9 00                         10259                       DC    X'00'
 0009FA                009FA 00AAE 10260                       ORG
1SCAN     (SCAN2025) (12:54) (15MAR04) NEW SCAN ROUTINES                                                                    Page   32
0Current Usings:  (CP,R11) (CV,R12)
0Loc    Object Code    Addr1 Addr2  Stmt Lv Lineno    Source Statement           (Hibal 5, Asmedit 3.3)  HLASM R4.0  2004/03/15 12.54
+___    ______ ____    _____ _____  ____ __ ______    ______ _________
0                                  10261
 000AAE                            10262              SLINENOX LABEL ,                   VALID LINE NO AND '+' '-'
 000AAE FFFFFFFFFFFFFFFF           10264                       DC    256X'FF'
 000BAE                00BAE 00B9E 10265                       ORG   SLINENOX+C'0'
 000B9E 0000000000000000           10266                       DC    10X'00'
 000BA8                00BA8 00AF9 10267                       ORG   SLINENOX+C'.'
 000AF9 00                         10268                       DC    X'00'
 000AFA                00AFA 00AFC 10269                       ORG   SLINENOX+C'+'
 000AFC 00                         10270                       DC    X'00'
 000AFD                00AFD 00B0E 10271                       ORG   SLINENOX+C'-'
 000B0E 00                         10272                       DC    X'00'
 000B0F                00B0F 00BAE 10273                       ORG
1SCAN     (SCAN2025) (12:54) (15MAR04) NEW SCAN ROUTINES                                                                    Page   33
0Current Usings:  (CP,R11) (CV,R12)
0Loc    Object Code    Addr1 Addr2  Stmt Lv Lineno    Source Statement           (Hibal 5, Asmedit 3.3)  HLASM R4.0  2004/03/15 12.54
+___    ______ ____    _____ _____  ____ __ ______    ______ _________
0                                  10275                       QLTORG
1SCAN     (SCAN2025) (12:54) (15MAR04) NEW SCAN ROUTINES                                                                    Page   34
0Current Usings:  (CP,R11) (CV,R12)
0Loc    Object Code    Addr1 Addr2  Stmt Lv Lineno    Source Statement           (Hibal 5, Asmedit 3.3)  HLASM R4.0  2004/03/15 12.54
+___    ______ ____    _____ _____  ____ __ ______    ______ _________
0                                  10326
                                   10327
                                   10328
                                   10329                SCNPAREN - SCAN FOR PARM IN PARENTHESIS
                                   10330
                                   10331                RETURNS PARM/UNREC TYPES.  ENTRY CHARACTER MUST BE '('.
                                   10332                IF PARM PARENTHESIS MATCH WE GET PARM, ELSE WE GET UNREC.
                                   10333
                                   10334                ON ENTRY:
                                   10335                     R0 - TOKEN LENGTH
                                   10336                     R1 - TOKEN LOCATION
                                   10337                     R2 - REMAINDER LOCATION
                                   10338                     R3 - REMAINDER LENGTH
                                   10339
                                   10340                ON EXIT:
                                   10341                     R0 - TOKEN LENGTH
                                   10342                     R1 - TOKEN LOCATION
                                   10343                     R2 - REMAINDER LOCATION
                                   10344                     R3 - REMAINDER LENGTH
                                   10345                     R15 - ZERO, MATCHING PARENTHESIS FOUND
                                   10346                           NON-ZERO, NO MATCHING PARENTHESIS FOUND
                                   10347
                                   10348                NOTES:  TOKEN CONCATENATED WITH THE REMAINDER EQUALS
                                   10349                     THE ORIGINAL STRING STARTING AT THE TOKEN.  THAT IS
                                   10350                     THE REMAINDER STRING IS NOT SCANNED TO GET RID OF
                                   10351                     LEADING BLANKS, ETC.
                                   10352
                                   10353
                                   10354

0000C74 50E0 D000/9008_      00000 10355              SCNPAREN PROC
 USING  *,R7
                                   10394
                                   10395                       COMMENT                   1ST CHAR MUST BE '('
 000C8E 954D 1000/4780_00000       10396                       IF    (@R1,NE,'('),BEGIN
 000C96 0000                       10412  1                      BOMB
 000C98                            10414                       END
                                   10418
                                   10419                       COMMENT                   REMEBER START OF TOKEN
 000C98 1861                       10420                       LR    R6,R1               R6 - START OF TOKEN
                                   10421
                                   10422                       COMMENT                   REJOIN TOKEN AND REMAINDER
 000C9A 1A03                       10423                       AR    R0,R3
                                   10424
                                   10425                       COMMENT                   SKIP LEADING '('
 000C9C 5E10 70AA            00D38 10426                       INCR  R1
 000CA0 0600                       10429                       DECR  R0
                                   10431
                                   10432                       COMMENT                   FIND CLOSE PARENTHESIS
 000CA2 58E0 70AE/0DEE       00D3C 10433                       ACALL FINDPREN
                                   10437
                                   10438                       COMMENT                   RETURN TOKEN, REMAINDER
 000CA8 1821                       10439                       LR    R2,R1
1SCAN     (SCAN2025) (12:54) (15MAR04) NEW SCAN ROUTINES                                                                    Page   35
0Current Usings:  (*,R7) (CP,R11) (CV,R12)
0Loc    Object Code    Addr1 Addr2  Stmt Lv Lineno    Source Statement           (Hibal 5, Asmedit 3.3)  HLASM R4.0  2004/03/15 12.54
+___    ______ ____    _____ _____  ____ __ ______    ______ _________
0000CAA 1830                       10440                       LR    R3,R0
 000CAC 1816                       10441                       LR    R1,R6
 000CAE 1802                       10442                       LR    R0,R2
 000CB0 1B01                       10443                       SR    R0,R1
                                   10444
 000CB2 9003 8004            00004 10445                       PRETURN (R0,R3)
 000CB6 18D8/9808 D004_            10447                       PEND
 DROP   *,R7
1SCAN     (SCAN2025) (12:54) (15MAR04) NEW SCAN ROUTINES                                                                    Page   36
0Current Usings:  (CP,R11) (CV,R12)
0Loc    Object Code    Addr1 Addr2  Stmt Lv Lineno    Source Statement           (Hibal 5, Asmedit 3.3)  HLASM R4.0  2004/03/15 12.54
+___    ______ ____    _____ _____  ____ __ ______    ______ _________
0                                  10468
                                   10469
                                   10470
                                   10471                SCNQUOTE - SCAN FOR PARM IN QUOTES
                                   10472
                                   10473                RETURNS QUOTE/UNREC TYPES.  ENTRY CHARACTER MUST BE '"'
                                   10474                OR "'".  IF QUOTES MATCH WE GET PARM, ELSE WE GET UNREC.
                                   10475
                                   10476                ON ENTRY:
                                   10477                     R0 - TOKEN LENGTH
                                   10478                     R1 - TOKEN LOCATION
                                   10479                     R2 - REMAINDER LOCATION
                                   10480                     R3 - REMAINDER LENGTH
                                   10481
                                   10482                ON EXIT:
                                   10483                     R0 - TOKEN LENGTH
                                   10484                     R1 - TOKEN LOCATION
                                   10485                     R2 - REMAINDER LOCATION
                                   10486                     R3 - REMAINDER LENGTH
                                   10487                     R15 - ZERO, MATCHING PARENTHESIS FOUND
                                   10488                           NON-ZERO, NO MATCHING PARENTHESIS FOUND
                                   10489
                                   10490                NOTES:  TOKEN CONCATENATED WITH THE REMAINDER EQUALS
                                   10491                     THE ORIGINAL STRING STARTING AT THE TOKEN.  THAT IS
                                   10492                     THE REMAINDER STRING IS NOT SCANNED TO GET RID OF
                                   10493                     LEADING BLANKS, ETC.
                                   10494
                                   10495
                                   10496

0000CC4 50E0 D000/9008_      00000 10497              SCNQUOTE PROC
 USING  *,R7
                                   10536
                                   10537                       COMMENT                   1ST CHAR MUST BE '('
 000CDE 957D 1000/4780_00000       10538                       IF    ((@R1,NE,''''),AND,(@R1,NE,'"')),BEGIN
 000CEE 0000                       10569  1                      BOMB
 000CF0                            10571                       END
                                   10575
                                   10576                       COMMENT                   REMEBER START OF TOKEN
 000CF0 1861                       10577                       LR    R6,R1               R6 - START OF TOKEN
                                   10578
                                   10579                       COMMENT                   REJOIN TOKEN AND REMAINDER
 000CF2 1A03                       10580                       AR    R0,R3
                                   10581
                                   10582                       COMMENT                   SKIP LEADING QUOTE
 000CF4 5E10 705A            00D38 10583                       INCR  R1
 000CF8 0600                       10586                       DECR  R0
                                   10588
                                   10589                       COMMENT                   FIND MATCHING QUOTE
 000CFA 957D 6000/4770_00000       10590                       IF    (@R6,EQ,''''),BEGIN FIND SINGLE QUOTE, OR
 000D02 58E0 7062/0DEE       00D40 10606  1                      ACALL FINDSQUO
 000D08                            10610                       END
 000D08 957F 6000/4770_00000       10614                       IF    (@R6,EQ,'"'),BEGIN  FIND DOUBLE QUOTE
1SCAN     (SCAN2025) (12:54) (15MAR04) NEW SCAN ROUTINES                                                                    Page   37
0Current Usings:  (*,R7) (CP,R11) (CV,R12)
0Loc    Object Code    Addr1 Addr2  Stmt Lv Lineno    Source Statement           (Hibal 5, Asmedit 3.3)  HLASM R4.0  2004/03/15 12.54
+___    ______ ____    _____ _____  ____ __ ______    ______ _________
0000D10 58E0 7066/0DEE       00D44 10630  1                      ACALL FINDDQUO
 000D16                            10634                       END
                                   10638
                                   10639                       COMMENT                   RETURN TOKEN, REMAINDER
 000D16 1821                       10640                       LR    R2,R1
 000D18 1830                       10641                       LR    R3,R0
 000D1A 1816                       10642                       LR    R1,R6
 000D1C 1802                       10643                       LR    R0,R2
 000D1E 1B01                       10644                       SR    R0,R1
                                   10645
 000D20 9003 8004            00004 10646                       PRETURN (R0,R3)
 000D24 18D8/9808 D004_            10648                       PEND
 DROP   *,R7
1SCAN     (SCAN2025) (12:54) (15MAR04) NEW SCAN ROUTINES                                                                    Page   38
0Current Usings:  (CP,R11) (CV,R12)
0Loc    Object Code    Addr1 Addr2  Stmt Lv Lineno    Source Statement           (Hibal 5, Asmedit 3.3)  HLASM R4.0  2004/03/15 12.54
+___    ______ ____    _____ _____  ____ __ ______    ______ _________
0                                  10669                       QLTORG
1SCAN     (SCAN2025) (12:54) (15MAR04) NEW SCAN ROUTINES                                                                    Page   39
0Current Usings:  (CP,R11) (CV,R12)
0Loc    Object Code    Addr1 Addr2  Stmt Lv Lineno    Source Statement           (Hibal 5, Asmedit 3.3)  HLASM R4.0  2004/03/15 12.54
+___    ______ ____    _____ _____  ____ __ ______    ______ _________
0                                  10686
                                   10687
                                   10688
                                   10689                FIND CLOSE PARENTHESIS
                                   10690
                                   10691                ON ENTRY:
                                   10692                     R0,R1 - TEXT LOC, LENGTH  (JUST PAST '(')
                                   10693
                                   10694                ON EXIT:
                                   10695                     R0,R1 - TEXT LOC, LENGTH  (JUST PAST ')')
                                   10696                     R15 - CC=ZERO, ')' FOUND
                                   10697                           CC=NZ, ')' NOT FOUND
                                   10698
                                   10699
                                   10700

0000D48 50E0 D000/9008_      00000 10701              FINDPREN PROC  ,
 USING  *,R7
                                   10740
                                   10741                       COMMENT                   LOOK FOR ')'
                                   10742                       COMMENT                   R0,R1 - LOC, LEN OF STING
 000D62 5820 74FE            01260 10743                       L     R2,=A(FTBLPREN)     R2 - SCAN TABLE
 000D66 58E0 7502/0DEE       01264 10744                       ACALL TRTSCAN             SCAN FOR ')' OR '''' OR '"'
                                   10748
                                   10749                       COMMENT                   IF SCANNED OFF END OF STRING,
 000D6C 1200/4720 7014             10750                       IF    (R0,NP),BEGIN
 000D72 41F0 0004            00004 10764  1                      LA    R15,4
 000D76                            10765                       END
                                   10769
                                   10770                       COMMENT                   IF SCANNED CHAR, PROCESS IT
 000D76 7018/47F0 7094 00D76 00D70 10771                       ELSE  BEGIN               (GOT '(' ')' '''' OR '"')
                                   10782  1
                                   10783  1                      COMMENT                   PROCESS SINGLE QUOTE
 000D7A 957D 1000/4770_00000       10784  1                      IF    (@R1,EQ,''''),BEGIN
 000D82 5E10 7506            01268 10800  2                        INCR  R1
 000D86 0600                       10803  2                        DECR  R0
 000D88 58E0 750A/0DEE       0126C 10805  2                        ACALL FINDSQUO
 000D8E 4770 7036            00D98 10809  2                        IF    Z,BEGIN
 000D92 58E0 750E/0DEE       01270 10820  3                          ACALL FINDPREN
 000D98                            10824  2                        END
 000D98                            10828  1                      END
                                   10832  1
                                   10833  1                      COMMENT                   PROCESS DOUBLE QUOTE
 000D98 703A/47F0 7058_00D98 00D80 10834  1                      ELSEIF (@R1,EQ,'"'),BEGIN
 000DA4 5E10 7506            01268 10859  2                        INCR  R1
 000DA8 0600                       10862  2                        DECR  R0
 000DAA 58E0 7512/0DEE       01274 10864  2                        ACALL FINDDQUO
 000DB0 4770 7058            00DBA 10868  2                        IF    Z,BEGIN
 000DB4 58E0 750E/0DEE       01270 10879  3                          ACALL FINDPREN
 000DBA                            10883  2                        END
 000DBA                            10887  1                      END
                                   10891  1
                                   10892  1                      COMMENT                   PROCESS PARENTHESIS PAIR
1SCAN     (SCAN2025) (12:54) (15MAR04) NEW SCAN ROUTINES                                                                    Page   40
0Current Usings:  (*,R7) (CP,R11) (CV,R12)
0Loc    Object Code    Addr1 Addr2  Stmt Lv Lineno    Source Statement           (Hibal 5, Asmedit 3.3)  HLASM R4.0  2004/03/15 12.54
+___    ______ ____    _____ _____  ____ __ ______    ______ _________
0000DBA 705C/47F0 707A_00DBA 00DA2 10893  1                      ELSEIF (@R1,EQ,'('),BEGIN
 000DC6 5E10 7506            01268 10918  2                        INCR  R1
 000DCA 0600                       10921  2                        DECR  R0
 000DCC 58E0 750E/0DEE       01270 10923  2                        ACALL FINDPREN
 000DD2 4770 707A            00DDC 10927  2                        IF    Z,BEGIN
 000DD6 58E0 750E/0DEE       01270 10938  3                          ACALL FINDPREN
 000DDC                            10942  2                        END
 000DDC                            10946  1                      END
                                   10950  1
                                   10951  1                      COMMENT                   GOT IT !!, SKIP IT, AND EXIT
 000DDC 707E/47F0 708E_00DDC 00DC4 10952  1                      ELSEIF (@R1,EQ,')'),BEGIN
 000DE8 5E10 7506            01268 10977  2                        INCR  R1
 000DEC 0600                       10980  2                        DECR  R0
 000DEE 1BFF                       10982  2                        CLEAR R15                 GOT IT !! CC=ZERO
 000DF0                            10986  1                      END
                                   10990  1
                                   10991  1                      COMMENT                    IF NONE OF THE ABOVE, BOMB
 000DF0 7092/47F0 7094 00DF0 00DE6 10992  1                      ELSE  BEGIN
 000DF4 0000                       11003  2                        BOMB
 000DF6                            11005  1                      END
 000DF6                            11009                       END , OF FOUND CHAR
                                   11013
 000DF6 9001 8004            00004 11014                       PRETURN (R0,R1)
 000DFA 18D8/9808 D004_            11016                       PEND  ,
 DROP   *,R7
1SCAN     (SCAN2025) (12:54) (15MAR04) NEW SCAN ROUTINES                                                                    Page   41
0Current Usings:  (CP,R11) (CV,R12)
0Loc    Object Code    Addr1 Addr2  Stmt Lv Lineno    Source Statement           (Hibal 5, Asmedit 3.3)  HLASM R4.0  2004/03/15 12.54
+___    ______ ____    _____ _____  ____ __ ______    ______ _________
0                                  11037
                                   11038
                                   11039
                                   11040                FIND SINGLE QUOTE
                                   11041
                                   11042                ON ENTRY:
                                   11043                     R0,R1 - TEXT LOC, LENGTH  (JUST PAST '''')
                                   11044
                                   11045                ON EXIT:
                                   11046                     R0,R1 - TEXT LOC, LENGTH  (JUST PAST '''')
                                   11047                     R15 - CC=ZERO, MATCHING QUOTE FOUND
                                   11048                           CC=NZ, MATCHING QUOTE NOT FOUND
                                   11049
                                   11050
                                   11051

0000E08 50E0 D000/9008_      00000 11052              FINDSQUO PROC  ,
 USING  *,R7
                                   11091
                                   11092                       COMMENT                   LOOK FOR ')'
                                   11093                       COMMENT                   R0,R1 - LOC, LEN OF STING
 000E22 5820 7456            01278 11094                       L     R2,=A(FTBLSQUO)     R2 - SCAN TABLE
 000E26 58E0 7442/0DEE       01264 11095                       ACALL TRTSCAN             SCAN FOR ')' OR '''' OR '"'
                                   11099
                                   11100                       COMMENT                   IF SCANNED OFF END OF STRING,
 000E2C 1200/4720 7014             11101                       IF    (R0,NP),BEGIN
 000E32 41F0 0004            00004 11115  1                      LA    R15,4
 000E36                            11116                       END
                                   11120
                                   11121                       COMMENT                   PROCESS SINGLE QUOTE
                                   11122                       COMMENT                   GOT IT, SKIP IT, EXIT
 000E36 7018/47F0 7042_00E36 00E30 11123                       ELSEIF (@R1,EQ,''''),BEGIN
 000E42 5E10 7446            01268 11148  1                      INCR  R1
 000E46 0600                       11151  1                      DECR  R0
 000E48 1BFF                       11153  1                      CLEAR R15                 FOUND QUOTE, CC=ZERO
                                   11157  1                      COMMENT
                                   11158  1                      COMMENT                   IF TWO QUOTES, KEEP SCANNING
 000E4A 1200/47D0 7042_            11159  1                      IF    ((R0,POS),AND,(@R1,EQ,'''')),BEGIN
 000E58 5E10 7446            01268 11188  2                        INCR  R1
 000E5C 0600                       11191  2                        DECR  R0
 000E5E 58E0 744A/0DEE       0126C 11193  2                        ACALL FINDSQUO
 000E64                            11197  1                      END
 000E64                            11201                       END
                                   11205
                                   11206                       COMMENT                    IF NONE OF THE ABOVE, BOMB
 000E64 7046/47F0 7048 00E64 00E40 11207                       ELSE  BEGIN
 000E68 0000                       11218  1                      BOMB
 000E6A                            11220                       END
                                   11224
 000E6A 9001 8004            00004 11225                       PRETURN (R0,R1)
 000E6E 18D8/9808 D004_            11227                       PEND  ,
 DROP   *,R7
1SCAN     (SCAN2025) (12:54) (15MAR04) NEW SCAN ROUTINES                                                                    Page   42
0Current Usings:  (CP,R11) (CV,R12)
0Loc    Object Code    Addr1 Addr2  Stmt Lv Lineno    Source Statement           (Hibal 5, Asmedit 3.3)  HLASM R4.0  2004/03/15 12.54
+___    ______ ____    _____ _____  ____ __ ______    ______ _________
0                                  11248
                                   11249
                                   11250
                                   11251                FIND DOUBLE QUOTE
                                   11252
                                   11253                ON ENTRY:
                                   11254                     R0,R1 - TEXT LOC, LENGTH  (JUST PAST '"')
                                   11255
                                   11256                ON EXIT:
                                   11257                     R0,R1 - TEXT LOC, LENGTH  (JUST PAST '"')
                                   11258                     R15 - CC=ZERO, MATCHING QUOTE FOUND
                                   11259                           CC=NZ, MATCHING QUOTE NOT FOUND
                                   11260
                                   11261

0000E7C 50E0 D000/9008_      00000 11262              FINDDQUO PROC  ,
 USING  *,R7
                                   11301
                                   11302                       COMMENT                   LOOK FOR ')'
                                   11303                       COMMENT                   R0,R1 - LOC, LEN OF STING
 000E96 5820 73E6            0127C 11304                       L     R2,=A(FTBLDQUO)     R2 - SCAN TABLE
 000E9A 58E0 73CE/0DEE       01264 11305                       ACALL TRTSCAN             SCAN FOR ')' OR '''' OR '"'
                                   11309
                                   11310                       COMMENT                   IF SCANNED OFF END OF STRING,
 000EA0 1200/4720 7014             11311                       IF    (R0,NP),BEGIN
 000EA6 41F0 0004            00004 11325  1                      LA    R15,4
 000EAA                            11326                       END
                                   11330
                                   11331                       COMMENT                   PROCESS DOUBLE QUOTE
                                   11332                       COMMENT                   GOT IT, SKIP IT, EXIT
 000EAA 7018/47F0 7042_00EAA 00EA4 11333                       ELSEIF (@R1,EQ,'"'),BEGIN
 000EB6 5E10 73D2            01268 11358  1                      INCR  R1
 000EBA 0600                       11361  1                      DECR  R0
 000EBC 1BFF                       11363  1                      CLEAR R15                 FOUND QUOTE, CC=ZERO
                                   11367  1                      COMMENT
                                   11368  1                      COMMENT                   IF TWO QUOTES, KEEP SCANNING
 000EBE 1200/47D0 7042_            11369  1                      IF    ((R0,POS),AND,(@R1,EQ,'"')),BEGIN
 000ECC 5E10 73D2            01268 11398  2                        INCR  R1
 000ED0 0600                       11401  2                        DECR  R0
 000ED2 58E0 73DE/0DEE       01274 11403  2                        ACALL FINDDQUO
 000ED8                            11407  1                      END
 000ED8                            11411                       END
                                   11415
                                   11416                       COMMENT                    IF NONE OF THE ABOVE, BOMB
 000ED8 7046/47F0 7048 00ED8 00EB4 11417                       ELSE  BEGIN
 000EDC 0000                       11428  1                      BOMB
 000EDE                            11430                       END
                                   11434
 000EDE 9001 8004            00004 11435                       PRETURN (R0,R1)
 000EE2 18D8/9808 D004_            11437                       PEND  ,
 DROP   *,R7
1SCAN     (SCAN2025) (12:54) (15MAR04) NEW SCAN ROUTINES                                                                    Page   43
0Current Usings:  (CP,R11) (CV,R12)
0Loc    Object Code    Addr1 Addr2  Stmt Lv Lineno    Source Statement           (Hibal 5, Asmedit 3.3)  HLASM R4.0  2004/03/15 12.54
+___    ______ ____    _____ _____  ____ __ ______    ______ _________
0                                  11458
                                   11459                         FIND TABLES - USED FOR FINDING AND MATCHING QUOTES AND
                                   11460                                 PARENTHESIS PAIRS.
                                   11461
                                   11462
 000EF0                            11463              FTBLPREN LABEL ,                   FIND PARENTHESIS TABLE
 000EF0 0000000000000000           11465                       DC    256X'0'
 000FF0                00FF0 00F3D 11466                       ORG   FTBLPREN+C'('
 000F3D 04                         11467                       DC    X'4'
 000F3E                00F3E 00F4D 11468                       ORG   FTBLPREN+C')'
 000F4D 04                         11469                       DC    X'4'
 000F4E                00F4E 00F6F 11470                       ORG   FTBLPREN+C'"'
 000F6F 04                         11471                       DC    X'4'
 000F70                00F70 00F6D 11472                       ORG   FTBLPREN+C''''
 000F6D 04                         11473                       DC    X'4'
 000F6E                00F6E 00FF0 11474                       ORG
-
0000FF0                            11476              FTBLSQUO LABEL ,                   FIND SINGLE QUOTE TABLE
 000FF0 0000000000000000           11478                       DC    256X'0'
 0010F0                010F0 0106D 11479                       ORG   FTBLSQUO+C''''
 00106D 04                         11480                       DC    X'4'
 00106E                0106E 010F0 11481                       ORG
-
00010F0                            11483              FTBLDQUO LABEL ,                   FIND DOUBLE QUOTE TABLE
 0010F0 0000000000000000           11485                       DC    256X'0'
 0011F0                011F0 0116F 11486                       ORG   FTBLDQUO+C'"'
 00116F 04                         11487                       DC    X'4'
 001170                01170 011F0 11488                       ORG
1SCAN     (SCAN2025) (12:54) (15MAR04) NEW SCAN ROUTINES                                                                    Page   44
0Current Usings:  (CP,R11) (CV,R12)
0Loc    Object Code    Addr1 Addr2  Stmt Lv Lineno    Source Statement           (Hibal 5, Asmedit 3.3)  HLASM R4.0  2004/03/15 12.54
+___    ______ ____    _____ _____  ____ __ ______    ______ _________
0                                  11490
                                   11491
                                   11492
                                   11493                TRTSCAN - SCAN WITH TRT COMMAND
                                   11494
                                   11495                ON ENTRY:
                                   11496                     R0 - LENGTH OF STRING TO SCAN
                                   11497                     R1 - LOCATION OF STRING TO SCAN
                                   11498                     R2 - TRT TABLE
                                   11499                          (SCAN STOPS AT FIRST CORRESPONDING NZ TRT CHAR)
                                   11500
                                   11501                ON EXIT:
                                   11502                     R0 - LENGTH OF REMAINING STRING
                                   11503                     R1 - LOCATION OF REMAINING STRING
                                   11504                          (STARTING AT FIRST NZ TRT CHAR)
                                   11505                    R15 - ZERO
                                   11506
                                   11507

00011F0 50E0 D000/9008_      00000 11508              TRTSCAN  PROC
 USING  *,R7
 00120A 1200/47D0 703E             11547                       IF    (R0,POS),BEGIN
 001210 1830                       11561  1                      LR    R3,R0               R3 - LENGTH TO SCAN
                                   11562  1                      COMMENT                   R2 - TRT TABLE
                                   11563  1                      COMMENT                   R1 - START OF SCAN STRING
 001212 1A01                       11564  1                      AR    R0,R1               R0 - END OF SCAN STRING
 001214 1233/4780 703A             11565  1                      WHILE (R3,NZ),BEGIN
 00121A 1843                       11581  2                        LR    R4,R3
 00121C 5940 7076/47D0_      01280 11582  2                        CEIL  R4,256
 001228 1B34                       11601  2                        SR    R3,R4               Amount remaining next time
 00122A 0640/4440 707A_            11602  2                        DEX   R4,' TRT 0(0,R1),0(R2) ' SCAN WITH TRT
 001230 4780 702E/47F0_      01238 11621  2                        IF    NZ,'B TRTSCEX'
 001238 7032/47F0 7036_01238 01232 11638  2                        ELSE  'LA R1,1(R4,R1)'    Point at next part to do
 001240 47F0 700A            01214 11655  1                      END
                                   11660  1
 001244 1810                       11661  1                      LR    R1,R0
                                   11662  1
 001246                            11663  1           TRTSCEX    LABEL ,
 001246 1B01                       11665  1                      SR    R0,R1
 001248                            11666                       END
                                   11670
 001248 9001 8004            00004 11671                       PRETURN (R0,R1)
 00124C 1BFF                       11673                       CLEAR R15
 00124E 18D8/9808 D004_            11677                       PEND
 DROP   *,R7
1SCAN     (SCAN2025) (12:54) (15MAR04) NEW SCAN ROUTINES                                                                    Page   45
0Current Usings:  (CP,R11) (CV,R12)
0Loc    Object Code    Addr1 Addr2  Stmt Lv Lineno    Source Statement           (Hibal 5, Asmedit 3.3)  HLASM R4.0  2004/03/15 12.54
+___    ______ ____    _____ _____  ____ __ ______    ______ _________
0                                  11698                       QLTORG
1SCAN     (SCAN2025) (12:54) (15MAR04) STANDARD MATCH ROUTINES                                                              Page   46
0Current Usings:  (CP,R11) (CV,R12)
0Loc    Object Code    Addr1 Addr2  Stmt Lv Lineno    Source Statement           (Hibal 5, Asmedit 3.3)  HLASM R4.0  2004/03/15 12.54
+___    ______ ____    _____ _____  ____ __ ______    ______ _________
0                                  11720              *
                                   11721              **
                                   11722              **  NULL MATCH ROUTINE
                                   11723              **
                                   11724              **  SEE COMMENTS AT START OF MODULE.
                                   11725              **
                                   11726              **
                                   11727              *
 00128A 50E0 D000/9008_      00000 11728              MNULL    XPROC ,
 USING  *,R7
 USING  NSCNCB,R2                  11768                       USING NSCNCB,R2
                                   11777
 0012A4 9180 2018/47E0_00018       11778                       IF    NSCNFNUL,BEGIN
 0012AC 1BFF                       11793  1                      CLEAR R15
 0012AE                            11797                       END
 0012AE 700E/47F0 7012 012AE 012AA 11801                       ELSE  BEGIN
 0012B2 41F0 0004            00004 11812  1                      LA    R15,4
 0012B6                            11813                       END
                                   11817
 0012B6 18D8/9808 D004_            11818                       PEND
 DROP   *,R7
 DROP   NSCNCB,R2                  11838                       DROP  R2
1SCAN     (SCAN2025) (12:54) (15MAR04) STANDARD MATCH ROUTINES                                                              Page   47
0Current Usings:  (CP,R11) (CV,R12)
0Loc    Object Code    Addr1 Addr2  Stmt Lv Lineno    Source Statement           (Hibal 5, Asmedit 3.3)  HLASM R4.0  2004/03/15 12.54
+___    ______ ____    _____ _____  ____ __ ______    ______ _________
0                                  11846              *
                                   11847              **
                                   11848              **  MATCH ALL ROUTINE
                                   11849              **
                                   11850              **  SEE COMMENTS AT START OF MODULE.
                                   11851              **
                                   11852              **  ON EXIT:
                                   11853              **       R1,R0 - TOKEN LOC,LEN
                                   11854              **
                                   11855              **  NOTE !!
                                   11856              **  WE DO NOT MATCH ALL, IF NULL TOKEN !
                                   11857              **
                                   11858              *
 0012C4 50E0 D000/9008_      00000 11859              MALL     XPROC ,
 USING  *,R7
 USING  NSCNCB,R2                  11899                       USING NSCNCB,R2
                                   11908
                                   11909                       COMMENT                   MATCH ALL EXCEPT NULL TOKEN
 0012DE 9180 2018/4710_00018       11910                       IF    ~NSCNFNUL,BEGIN
 0012E6 1BFF                       11925  1                      CLEAR R15
 0012E8 5800 2014            00014 11929  1                      L     R0,NSCNTLEN
 0012EC 5810 2010            00010 11930  1                      L     R1,NSCNTLOC
 0012F0 9001 8004            00004 11931  1                      PRETURN (R0,R1)
 0012F4                            11933                       END
 0012F4 701A/47F0 701E 012F4 012E4 11937                       ELSE  BEGIN               IF NULL, NO MATCH
 0012F8 41F0 0004            00004 11948  1                      LA    R15,4
 0012FC                            11949                       END
                                   11953
 0012FC 18D8/9808 D004_            11954                       PEND
 DROP   *,R7
 DROP   NSCNCB,R2                  11974                       DROP  R2
1SCAN     (SCAN2025) (12:54) (15MAR04) STANDARD MATCH ROUTINES                                                              Page   48
0Current Usings:  (CP,R11) (CV,R12)
0Loc    Object Code    Addr1 Addr2  Stmt Lv Lineno    Source Statement           (Hibal 5, Asmedit 3.3)  HLASM R4.0  2004/03/15 12.54
+___    ______ ____    _____ _____  ____ __ ______    ______ _________
0                                  11982              *
                                   11983              **
                                   11984              **  MATCH NONE ROUTINE
                                   11985              **
                                   11986              **  SEE COMMENTS AT START OF MODULE.
                                   11987              **
                                   11988              **
                                   11989              *
 00130A 50E0 D000/9008_      00000 11990              MNONE    XPROC ,
 USING  *,R7
                                   12030
 001324 41F0 0004            00004 12031                       LA    R15,4
                                   12032
 001328 18D8/9808 D004_            12033                       PEND
 DROP   *,R7
1SCAN     (SCAN2025) (12:54) (15MAR04) STANDARD MATCH ROUTINES                                                              Page   49
0Current Usings:  (CP,R11) (CV,R12)
0Loc    Object Code    Addr1 Addr2  Stmt Lv Lineno    Source Statement           (Hibal 5, Asmedit 3.3)  HLASM R4.0  2004/03/15 12.54
+___    ______ ____    _____ _____  ____ __ ______    ______ _________
0                                  12054              *
                                   12055              **
                                   12056              **  TOKEN MATCH ROUTINE
                                   12057              **
                                   12058              **  SEE COMMENTS AT START OF MODULE.
                                   12059              **
                                   12060              **  ON ENTRY, EXIT:
                                   12061              **  R1,R0 - LOC LEN OF TOKEN IN STRING
                                   12062              **
                                   12063              *
 001336 50E0 D000/9008_      00000 12064              MTOKEN   XPROC ,
 USING  *,R7
 USING  NSCNCB,R2                  12104                       USING NSCNCB,R2
 USING  NKW,R1                     12113                       USING NKW,R1
                                   12122
                                   12123                       COMMENT                   COMPARE TOKEN
 001350 9140 2018/47E0_00018       12124                       IF    NSCNFTOK,BEGIN
 001358 4140 1000            00000 12139  1                      LA    R4,NKWTOK           R4,R5 - KEYWORD LOC,LEN
 00135C 4850 1010            00010 12140  1                      LH    R5,NKWTOKL
 001360 41E0 2030            00030 12141  1                      LA    R14,NSCNTOK         R14,R15 - TOKEN LOC,LEN
 001364 58F0 2050            00050 12142  1                      L     R15,NSCNTOKL
 001368 195F/47D0 703E             12143  1                      IF    (R5,GT,R15),BEGIN
 00136E 9180 1014/47E0_00014       12158  2                        IF    NKWFABBV,BEGIN      IF ABBREVIATE (3 CHAR MIN)
 001376 185F                       12173  3                          LR    R5,R15
 001378 59F0 7300/47B0_      01650 12174  3                          FLOOR R15,3
 001384                            12193  2                        END
 001384 9140 1014/47E0_00014       12197  2                        IF    NKWFAB1,BEGIN       IF ABBREVIATE (1 CHAR MIN)
 00138C 185F                       12212  3                          LR    R5,R15
 00138E                            12213  2                        END
 00138E                            12217  1                      END
 00138E 19F5/4770 705C             12221  1                      IF    (R15,EQ,R5),BEGIN   COMPARE
 001394 0F4E                       12236  2                        CLCL  R4,R14
 001396 4770 705C            013AC 12237  2                        IF    EQ,BEGIN            FOUND
 00139A 5800 2014            00014 12248  3                          L     R0,NSCNTLEN         RETURN R1,R0 - TOKEN LOC LEN
 00139E 5810 2010            00010 12249  3                          L     R1,NSCNTLOC
 0013A2 9001 8004            00004 12250  3                          PRETURN (R0,R1)
 0013A6 1BFF                       12252  3                          CLEAR R15
 0013A8 47F0 7060            013B0 12256  3                          B     MTOKDONE
 0013AC                            12257  2                        END
 0013AC                            12261  1                      END
 0013AC                            12265                       END
 0013AC 41F0 0004            00004 12269                       LA    R15,4               NOT FOUND
                                   12270
 0013B0                            12271              MTOKDONE LABEL ,
 0013B0 18D8/9808 D004_            12273                       PEND
 DROP   *,R7
 DROP   NSCNCB,R2                  12293                       DROP  R2
 DROP   NKW,R1                     12300                       DROP  R1
1SCAN     (SCAN2025) (12:54) (15MAR04) STANDARD MATCH ROUTINES                                                              Page   50
0Current Usings:  (CP,R11) (CV,R12)
0Loc    Object Code    Addr1 Addr2  Stmt Lv Lineno    Source Statement           (Hibal 5, Asmedit 3.3)  HLASM R4.0  2004/03/15 12.54
+___    ______ ____    _____ _____  ____ __ ______    ______ _________
0                                  12308              *
                                   12309              **
                                   12310              **  OPTION TOKEN MATCH ROUTINE
                                   12311              **
                                   12312              **  SEE COMMENTS AT START OF MODULE.
                                   12313              **
                                   12314              **  ON ENTRY
                                   12315              **    R1 - CONTAINS A POINTER TO THE KEYWORD ENTRY
                                   12316              **    R2 - CONTAINS POINTER TO SCAN CONTROL BLOCK
                                   12317              **
                                   12318              **  ON EXIT:
                                   12319              **    R1 - CONTAINS A POINTER TO THE KEYWORD ENTRY
                                   12320              *
 0013BE 50E0 D000/9008_      00000 12321              MOPTION  XPROC ,
 USING  *,R7
 0013D8 1831                       12361                       LR    R3,R1               Save pointer to SCKW
 0013DA 58E0 727C/0DEE       01654 12362                       ACALL MTOKEN              Match the token
 0013E0 12FF/4770 7014             12366                       IF    (R15,Z),BEGIN
 0013E6 1813                       12380  1                      LR    R1,R3
 0013E8 9001 8004            00004 12381  1                      PRETURN (R0,R1)
 0013EC                            12383                       END
 0013EC 18D8/9808 D004_            12387                       PEND
 DROP   *,R7
1SCAN     (SCAN2025) (12:54) (15MAR04) STANDARD MATCH ROUTINES                                                              Page   51
0Current Usings:  (CP,R11) (CV,R12)
0Loc    Object Code    Addr1 Addr2  Stmt Lv Lineno    Source Statement           (Hibal 5, Asmedit 3.3)  HLASM R4.0  2004/03/15 12.54
+___    ______ ____    _____ _____  ____ __ ______    ______ _________
0                                  12408              *
                                   12409              **
                                   12410              **  SCAN ROUTINE FOR OPTION MACRO
                                   12411              **
                                   12412              **  This routine performs the actual flag setting/
                                   12413              **  clearing for flags defined by the OPTION scan
                                   12414              **  macro.
                                   12415              **
                                   12416              **  ON ENTRY
                                   12417              **    R1 - CONTAINS A POINTER TO THE KEYWORD ENTRY
                                   12418              **
                                   12419              *
 0013FA 50E0 D000/9008_      00000 12420              SCNSCFLG XPROC ,
 USING  *,R7
 USING  NKW,R1                     12460                       USING NKW,R1
                                   12469              *
                                   12470              * NKWPARM1 and NKWPARM2 are actually instructions which
                                   12471              * perform the proper operations. We only need to
                                   12472              * execute them. The instructions should refer only
                                   12473              * to flags that are addressable by registers 3-6
                                   12474              * or the CP and CV since those are the registers
                                   12475              * available to a SCAN routine on entry.
                                   12476              *
 001414 4400 101C            0001C 12477                       EX    R0,NKWPARM2            Perform any reset
 001418 4400 1018            00018 12479                       EX    R0,NKWPARM1            Do the SET/CLEAR
 00141C 18D8/9808 D004_            12481                       PEND
 DROP   *,R7
 DROP   NKW,R1                     12501                       DROP  R1
1SCAN     (SCAN2025) (12:54) (15MAR04) STANDARD MATCH ROUTINES                                                              Page   52
0Current Usings:  (CP,R11) (CV,R12)
0Loc    Object Code    Addr1 Addr2  Stmt Lv Lineno    Source Statement           (Hibal 5, Asmedit 3.3)  HLASM R4.0  2004/03/15 12.54
+___    ______ ____    _____ _____  ____ __ ______    ______ _________
0                                  12509              *
                                   12510              **
                                   12511              **  INTEGER MATCH ROUTINE
                                   12512              **
                                   12513              **  SEE COMMENTS AT START OF MODULE.
                                   12514              **
                                   12515              **  ON EXIT:
                                   12516              **    R0 - VALUE
                                   12517              **
                                   12518              *
 00142A 50E0 D000/9008_      00000 12519              MINT     XPROC ,
 USING  *,R7
 USING  NSCNCB,R2                  12559                       USING NSCNCB,R2
 USING  NKW,R1                     12568                       USING NKW,R1
                                   12577
 001444 9120 2018/47E0_00018       12578                       IF    NSCNFINT,BEGIN      IF INTEGER
 00144C 5800 201C            0001C 12593  1                      L     R0,NSCNTVAL
                                   12594  1                      COMMENT                   CHECK UPPER LIMIT
 001450 9180 1012/47E0_00012       12595  1                      IF    (NKWFP1,AND,(R0,GT,NKWPARM1)),BEGIN
 001460 58E0 7214/0DEE       01658 12626  2                        ACALL BADINT
 001466 47F0 7060            014A4 12630  2                        B     MINTDONE
 00146A                            12631  1                      END
                                   12635  1                      COMMENT                   CHECK LOWER LIMITS
 00146A 9140 1015/4710_00015       12636  1                      IF    (~NKWFSI,AND,(R0,NEG)),BEGIN
 001478 58E0 7214/0DEE       01658 12664  2                        ACALL BADINT
 00147E 47F0 7060            014A4 12668  2                        B     MINTDONE
 001482                            12669  1                      END
 001482 9180 1015/47E0_00015       12673  1                      IF    (NKWFPI,AND,(R0,NP)),BEGIN
 001490 58E0 7214/0DEE       01658 12701  2                        ACALL BADINT
 001496 47F0 7060            014A4 12705  2                        B     MINTDONE
 00149A                            12706  1                      END
 00149A 1BFF                       12710  1                      CLEAR R15
 00149C                            12714                       END
                                   12718
 00149C 705C/47F0 7060 0149C 0144A 12719                       ELSE  BEGIN               IF NOT INTEGER
 0014A0 41F0 0004            00004 12730  1                      LA    R15,4
 0014A4                            12731                       END
                                   12735
 0014A4                            12736              MINTDONE LABEL ,
 0014A4 1B11                       12738                       CLEAR R1
 0014A6 9001 8004            00004 12742                       PRETURN (R0,R1)
 0014AA 18D8/9808 D004_            12744                       PEND
 DROP   *,R7
 DROP   NSCNCB,R2                  12764                       DROP  R2
 DROP   NKW,R1                     12771                       DROP  R1
 0014B8 50E0 D000/9008_      00000 12778              MLNO     XPROC ,
 USING  *,R7
 USING  NSCNCB,R2                  12818                       USING NSCNCB,R2
 USING  NKW,R1                     12827                       USING NKW,R1
                                   12836
                                   12837                       COMMENT                   IF INTEGER, CANNGE TO LNO
 0014D2 9120 2018/47E0_00018       12838                       IF    NSCNFINT,BEGIN
 0014DA 5800 201C            0001C 12853  1                      L     R0,NSCNTVAL
 0014DE 1200/4740 701A_            12854  1                      IF    ((R0,NEG),OR,(R0,GT,=A(SMAXLNO))),BEGIN
1SCAN     (SCAN2025) (12:54) (15MAR04) STANDARD MATCH ROUTINES                                                              Page   53
0Current Usings:  (NKW,R1) (NSCNCB,R2) (*,R7) (CP,R11) (CV,R12)
0Loc    Object Code    Addr1 Addr2  Stmt Lv Lineno    Source Statement           (Hibal 5, Asmedit 3.3)  HLASM R4.0  2004/03/15 12.54
+___    ______ ____    _____ _____  ____ __ ______    ______ _________
00014EC 58E0 718E/0DEE       01660 12883  2                        ACALL BADLNO
 0014F2 47F0 7062            01534 12887  2                        B     GOTLNO
 0014F6                            12888  1                      END
 0014F6 4C00 7192            01664 12892  1                      MH    R0,=H'1000'
 0014FA 5000 201C            0001C 12893  1                      ST    R0,NSCNTVAL
 0014FE 9200 2018      00018       12894  1                      CLEAR NSCNTYPE
 001502 9610 2018      00018       12901  1                      SET   NSCNFLNO
 001506                            12907                       END
                                   12911
                                   12912                       COMMENT                   IF LINE NUMBER ,,
 001506 9110 2018/47E0_00018       12913                       IF    NSCNFLNO,BEGIN
 00150E 5800 201C            0001C 12928  1                      L     R0,NSCNTVAL
 001512 1200/4740 704E_            12929  1                      IF    ((R0,NEG),OR,(R0,GT,=A(SMAXLNO))),BEGIN
 001520 58E0 718E/0DEE       01660 12958  2                        ACALL BADLNO
 001526 47F0 7062            01534 12962  2                        B     GOTLNO
 00152A                            12963  1                      END
 00152A 1BFF                       12967  1                      CLEAR R15
 00152C                            12971                       END
                                   12975
 00152C 705E/47F0 7062 0152C 0150C 12976                       ELSE  BEGIN               IF NOT LINE NUMBER
 001530 41F0 0004            00004 12987  1                      LA    R15,4
 001534                            12988                       END
                                   12992
 001534                            12993              GOTLNO   LABEL ,
 001534 1B11                       12995                       CLEAR R1
 001536 9001 8004            00004 12999                       PRETURN (R0,R1)
 00153A 18D8/9808 D004_            13001                       PEND
 DROP   *,R7
 DROP   NSCNCB,R2                  13021                       DROP  R2
 DROP   NKW,R1                     13028                       DROP  R1
1SCAN     (SCAN2025) (12:54) (15MAR04) STANDARD MATCH ROUTINES                                                              Page   54
0Current Usings:  (CP,R11) (CV,R12)
0Loc    Object Code    Addr1 Addr2  Stmt Lv Lineno    Source Statement           (Hibal 5, Asmedit 3.3)  HLASM R4.0  2004/03/15 12.54
+___    ______ ____    _____ _____  ____ __ ______    ______ _________
0                                  13036              *
                                   13037              **
                                   13038              **  QUOTED STRING MATCH ROUTINE
                                   13039              **
                                   13040              **  SEE COMMENTS AT START OF MODULE.
                                   13041              **
                                   13042              **  ON EXIT:
                                   13043              **    R1,R0 - LOC,LENGTH OF QUOTED STRING
                                   13044              **
                                   13045              **  NOTE:
                                   13046              **  WE ONLY CHECK FOR '"' OR '''' AS FIRST CHAR.
                                   13047              **  NO ERRORS ARE DETECTED OR RETURNED.
                                   13048              **  STRING IS _NOT_ DEQUOTED.
                                   13049              **
                                   13050              *
 001548 50E0 D000/9008_      00000 13051              MQUOTE   XPROC  ,
 USING  *,R7
 USING  NSCNCB,R2                  13091                       USING NSCNCB,R2
 001562 5810 2010            00010 13100                       L     R1,NSCNTLOC
 001566 5800 2014            00014 13101                       L     R0,NSCNTLEN
 00156A 1200/47D0 7024_            13102                       IF    ((R0,POS),AND,((@R1,EQ,''''),OR,(@R1,EQ,'"'))),BEGIN
 001580 1BFF                       13146  1                      CLEAR R15
 001582 9001 8004            00004 13150  1                      PRETURN (R0,R1)
 001586                            13152                       END
 001586 7028/7028/47F0_01586 0156E 13156                       ELSE  BEGIN
 00158A 41F0 0004            00004 13169  1                      LA    R15,4
 00158E                            13170                       END
 00158E 18D8/9808 D004_            13174                       PEND
 DROP   *,R7
 DROP   NSCNCB,R2                  13194                       DROP  R2
1SCAN     (SCAN2025) (12:54) (15MAR04) STANDARD MATCH ROUTINES                                                              Page   55
0Current Usings:  (CP,R11) (CV,R12)
0Loc    Object Code    Addr1 Addr2  Stmt Lv Lineno    Source Statement           (Hibal 5, Asmedit 3.3)  HLASM R4.0  2004/03/15 12.54
+___    ______ ____    _____ _____  ____ __ ______    ______ _________
0                                  13202              *
                                   13203              **
                                   13204              **  PARENTHESIZED TOKEN MATCH ROUTINE
                                   13205              **
                                   13206              **  SEE COMMENTS AT START OF MODULE.
                                   13207              **
                                   13208              **  ON EXIT:
                                   13209              **    R1,R0 - LOC,LENGTH OF PARENTHESIZED STRING
                                   13210              **
                                   13211              **  NOTE:
                                   13212              **  WE ONLY CHECK FOR '(' AS FIRST CHAR.
                                   13213              **  NO ERRORS ARE DETECTED OR RETURNED.
                                   13214              **  STRING IS _NOT_ DE-PARENTHESISZED.
                                   13215              **
                                   13216              *
 00159C 50E0 D000/9008_      00000 13217              MPAREN   XPROC  ,
 USING  *,R7
 USING  NSCNCB,R2                  13257                       USING NSCNCB,R2
 0015B6 5810 2010            00010 13266                       L     R1,NSCNTLOC
 0015BA 5800 2014            00014 13267                       L     R0,NSCNTLEN
 0015BE 1200/47D0 701C_            13268                       IF    ((R0,POS),AND,(@R1,EQ,'(')),BEGIN
 0015CC 1BFF                       13297  1                      CLEAR R15
 0015CE 9001 8004            00004 13301  1                      PRETURN (R0,R1)
 0015D2                            13303                       END
 0015D2 7020/7020/47F0_015D2 015C2 13307                       ELSE  BEGIN
 0015D6 41F0 0004            00004 13320  1                      LA    R15,4
 0015DA                            13321                       END
 0015DA 18D8/9808 D004_            13325                       PEND
 DROP   *,R7
 DROP   NSCNCB,R2                  13345                       DROP  R2
1SCAN     (SCAN2025) (12:54) (15MAR04) STANDARD MATCH ROUTINES                                                              Page   56
0Current Usings:  (CP,R11) (CV,R12)
0Loc    Object Code    Addr1 Addr2  Stmt Lv Lineno    Source Statement           (Hibal 5, Asmedit 3.3)  HLASM R4.0  2004/03/15 12.54
+___    ______ ____    _____ _____  ____ __ ______    ______ _________
0                                  13353              *
                                   13354              **
                                   13355              **  N-CHAR MATCH ROUTINE
                                   13356              **
                                   13357              **  SEE COMMENTS AT START OF MODULE.
                                   13358              **
                                   13359              **  ON EXIT:
                                   13360              **    R1,R0 - LOC,LENGTH OF _ENTIRE_ STRING
                                   13361              **
                                   13362              **  NOTE:
                                   13363              **  ROUTINE DOES A ROOT STRING MATCH.  THAT IS,
                                   13364              **  WE ONLY CHECK N CHARS FOR A MATCH, WE DO NOT CARE IF
                                   13365              **  STRING IS LONGER THAN THE MATCHING CHARS.  NO ERRORS
                                   13366              **  ARE DETECTED OR RETURNED.
                                   13367              **
                                   13368              **  NOT DEBUGED !  REMOVE WHEN USED !
                                   13369              *
 0015E8 50E0 D000/9008_      00000 13370              MNCHAR   XPROC  ,
 USING  *,R7
 USING  NKW,R1                     13410                       USING NKW,R1
 USING  NSCNCB,R2                  13419                       USING NSCNCB,R2
 001602 4140 1000            00000 13428                       LA    R4,NKWTOK
 001606 4850 1010            00010 13429                       LH    R5,NKWTOKL
 00160A 41E0 2030            00030 13430                       LA    R14,NSCNTOK
 00160E 58F0 2050            00050 13431                       L     R15,NSCNTOKL
 001612 195F/4730 7034             13432                       IF    (R5,LE,R15),BEGIN
 001618 18F5                       13447  1                      LR    R15,R5
 00161A 0F4E                       13448  1                      CLCL  R4,R14
 00161C 4770 702C            0162E 13449  1                      IF    EQ,BEGIN
 001620 5810 2010            00010 13460  2                        L     R1,NSCNTLOC
 001624 5800 2014            00014 13461  2                        L     R0,NSCNTLEN
 001628 9001 8004            00004 13462  2                        PRETURN (R0,R1)
 00162C 1BFF                       13464  2                        CLEAR R15
 00162E                            13468  1                      END
 00162E 7030/47F0 7034 0162E 0161E 13472  1                      ELSE  BEGIN
 001632 41F0 0004            00004 13483  2                        LA    R15,4
 001636                            13484  1                      END
 001636                            13488                       END
 001636 7038/47F0 703C 01636 01616 13492                       ELSE  BEGIN
 00163A 41F0 0004            00004 13503  1                      LA    R15,4
 00163E                            13504                       END
 00163E 18D8/9808 D004_            13508                       PEND
 DROP   *,R7
 DROP   NKW,R1                     13528                       DROP  R1
 DROP   NSCNCB,R2                  13535                       DROP  R2
1SCAN     (SCAN2025) (12:54) (15MAR04) STANDARD MATCH ROUTINES                                                              Page   57
0Current Usings:  (CP,R11) (CV,R12)
0Loc    Object Code    Addr1 Addr2  Stmt Lv Lineno    Source Statement           (Hibal 5, Asmedit 3.3)  HLASM R4.0  2004/03/15 12.54
+___    ______ ____    _____ _____  ____ __ ______    ______ _________
0                                  13543                       QLTORG
1SCAN     (SCAN2025) (12:54) (15MAR04) PARM MATCH ROUTINES                                                                  Page   58
0Current Usings:  (CP,R11) (CV,R12)
0Loc    Object Code    Addr1 Addr2  Stmt Lv Lineno    Source Statement           (Hibal 5, Asmedit 3.3)  HLASM R4.0  2004/03/15 12.54
+___    ______ ____    _____ _____  ____ __ ______    ______ _________
0                                  13562              *
                                   13563              **
                                   13564              **  TOKEN W/PARM MATCH ROUTINE
                                   13565              **
                                   13566              **  SEE COMMENTS AT START OF MODULE.
                                   13567              **
                                   13568              **  ON EXIT, IF MATCH:
                                   13569              **  R1,R0 - LOC LEN OF PARM STRING
                                   13570              **
                                   13571              *
                                   13572              *
 001666 50E0 D000/9008_      00000 13573              MPARM    XPROC
 USING  *,R7
                                   13613
                                   13614                       COMMENT                   CHECK PARM KEYWORD
 001680 9001 D000/41D0_      00000 13615                       XPUSH R0,R1
 001688 58E0 71D0/0DEE       01850 13618                       ACALL MTOKEN
 00168E 4BD0 71F0/9801_      01870 13622                       XPOP  R0,R1
                                   13625
                                   13626                       COMMENT                   IF CORRECT KEYWORD, GET PARM
 001696 12FF/4770 7026             13627                       IF    (R15,Z),BEGIN
 00169C 58E0 71D4/0DEE       01854 13641  1                      ACALL DOPARM
 0016A2 9001 8004            00004 13645  1                      PRETURN (R0,R1)
 0016A6                            13647                       END
                                   13651
 0016A6 18D8/9808 D004_            13652                       PEND
 DROP   *,R7
1SCAN     (SCAN2025) (12:54) (15MAR04) PARM MATCH ROUTINES                                                                  Page   59
0Current Usings:  (CP,R11) (CV,R12)
0Loc    Object Code    Addr1 Addr2  Stmt Lv Lineno    Source Statement           (Hibal 5, Asmedit 3.3)  HLASM R4.0  2004/03/15 12.54
+___    ______ ____    _____ _____  ____ __ ______    ______ _________
0                                  13673              *
                                   13674              **
                                   13675              **  DO PARM
                                   13676              **
                                   13677              **  ON ENTRY:
                                   13678              **    R1 - KEYWORD TABLE ENTRY
                                   13679              **    R2 - SCAN CONTROL BLOCK
                                   13680              **
                                   13681              **
                                   13682              **  ON EXIT:
                                   13683              **    R1,R0 - PARM STRING LOC LEN
                                   13684              **    R2 - SCAN CB, SCAN CB IS UPDATED TO CONTAIN SCANNED PARM
                                   13685              **    R15 - ZERO, IF NO ERROR IN SCANNING PARM
                                   13686              **    R15 - NEG, IF ERROR IN SCANNING PARM
                                   13687              **         NSCNFERR FLAG SET, NSCNMSG,NSCNMSGL - ERROR MSG !
                                   13688              **
                                   13689              **  NOTE:
                                   13690              **    SCAN PARM USES SAME OPTIONS AS PARENT SCAN, IE. THE
                                   13691              **    PARM SCAN USES THE SAME SKIP/STOP TABLE AND SCAN PARMS.
                                   13692              **    IF YOU DO NOT WANT THIS, YOU MUST SCAN YOUR OWN PARM.
                                   13693              **
                                   13694              *
 000000                00000 00014 13695              PARMWA   RECORD BEGIN
 000000                            13703  1           PARMKW     DS    CL(L'NSCNTOK)
 000010                            13704  1           PARMKWL    DS    F
 000014                00014 00014 13705                       END
                                   13714              *
                                   13715              *
 0016B4 50E0 D000/9008_      00000 13716              DOPARM   PROC  PARMWA
 USING  *,R7
 USING  PARMWA-(4+36),R8
 USING  NKW,R1                     13766                       USING NKW,R1
 USING  NSCNCB,R2                  13775                       USING NSCNCB,R2
                                   13784
                                   13785                       COMMENT                   SAVE SCANNED KEYWORD
 0016CE D20F 8028 2040 00000 00040 13786                       MVC   PARMKW,NSCNCTOK
 0016D4 5840 2050            00050 13787                       L     R4,NSCNTOKL
 0016D8 5040 8038            00010 13788                       ST    R4,PARMKWL
                                   13789
                                   13790                       COMMENT                   SCAN PARM
 0016DC 58E0 718A/0DEE       01858 13791                       ACALL SCNTOKEN
 0016E2 58E0 718E/0DEE       0185C 13795                       ACALL SETTOKEN
 0016E8 58E0 7192/0DEE       01860 13799                       ACALL SETTYPE
                                   13803              *
                                   13804              *  HANDLE SCAN ERRORS
                                   13805              *
                                   13806                       COMMENT                   IF ERROR,, RETURN ERROR
 0016EE 12FF/4780 7026             13807                       IF    (R15,NZ),BEGIN
 0016F4                            13821                       END
                                   13825
                                   13826                       COMMENT                   IF NULL,, NULL PARM IS ERROR
 0016F4 702A/47F0 7040_016F4 016F2 13827                       ELSEIF NSCNFNUL,BEGIN
 001700 4140 8028            00000 13851  1                      LA    R4,PARMKW
 001704 5850 8038            00010 13852  1                      L     R5,PARMKWL
1SCAN     (SCAN2025) (12:54) (15MAR04) PARM MATCH ROUTINES                                                                  Page   60
0Current Usings:  (NKW,R1) (NSCNCB,R2) (*,R7) (PARMWA-(4+36),R8) (CP,R11) (CV,R12)
0Loc    Object Code    Addr1 Addr2  Stmt Lv Lineno    Source Statement           (Hibal 5, Asmedit 3.3)  HLASM R4.0  2004/03/15 12.54
+___    ______ ____    _____ _____  ____ __ ______    ______ _________
0001708 58E0 7196/0DEE       01864 13853  1                      ACALL MISSPARM            SET MISSING PARM MESSAGE
 00170E                            13857                       END
                                   13861
                                   13862                       COMMENT                   IF PARM OK
 00170E 7044/47F0 7046 0170E 016FE 13863                       ELSE  BEGIN
 001712 1BFF                       13874  1                      CLEAR R15
 001714                            13878                       END
                                   13882
 001714 5800 2014            00014 13883                       L     R0,NSCNTLEN
 001718 5810 2010            00010 13884                       L     R1,NSCNTLOC
 00171C 9001 8004            00004 13885                       PRETURN (R0,R1)
                                   13887
 001720 18D8/9808 D004_            13888                       PEND
 DROP   PARMWA-(4+36),R8
 DROP   *,R7
 DROP   NSCNCB,R2                  13913                       DROP  R2
 DROP   NKW,R1                     13920                       DROP  R1
1SCAN     (SCAN2025) (12:54) (15MAR04) PARM MATCH ROUTINES                                                                  Page   61
0Current Usings:  (CP,R11) (CV,R12)
0Loc    Object Code    Addr1 Addr2  Stmt Lv Lineno    Source Statement           (Hibal 5, Asmedit 3.3)  HLASM R4.0  2004/03/15 12.54
+___    ______ ____    _____ _____  ____ __ ______    ______ _________
0                                  13928              *
                                   13929              **
                                   13930              **  TOKEN W/INTEGER PARM MATCH ROUTINE
                                   13931              **
                                   13932              **  SEE COMMENTS AT START OF MODULE.
                                   13933              **
                                   13934              **  ON EXIT, IF FOUND:
                                   13935              **  R0 - VALUE
                                   13936              **
                                   13937              *
                                   13938              *
 00172E 50E0 D000/9008_      00000 13939              MPINT XPROC
 USING  *,R7
                                   13979
                                   13980                       COMMENT                   CHECK PARM KEYWORD
 001748 9001 D000/41D0_      00000 13981                       XPUSH R0,R1
 001750 58E0 7108/0DEE       01850 13984                       ACALL MTOKEN
 001756 4BD0 7128/9801_      01870 13988                       XPOP  R0,R1
                                   13991
                                   13992                       COMMENT                   IF CORRECT KEYWORD, GET PARM
 00175E 12FF/4770 7026             13993                       IF    (R15,Z),BEGIN
 001764 58E0 7120/0DEE       01868 14007  1                      ACALL DOPINT
 00176A 9001 8004            00004 14011  1                      PRETURN (R0,R1)
 00176E                            14013                       END
                                   14017
 00176E 18D8/9808 D004_            14018                       PEND
 DROP   *,R7
1SCAN     (SCAN2025) (12:54) (15MAR04) PARM MATCH ROUTINES                                                                  Page   62
0Current Usings:  (CP,R11) (CV,R12)
0Loc    Object Code    Addr1 Addr2  Stmt Lv Lineno    Source Statement           (Hibal 5, Asmedit 3.3)  HLASM R4.0  2004/03/15 12.54
+___    ______ ____    _____ _____  ____ __ ______    ______ _________
0                                  14039              *
                                   14040              **
                                   14041              **  DO INTEGER PARM
                                   14042              **
                                   14043              **  ON ENTRY:
                                   14044              **    R1 - KEYWORD TABLE ENTRY
                                   14045              **    R2 - SCAN CONTROL BLOCK
                                   14046              **
                                   14047              **
                                   14048              **  ON EXIT:
                                   14049              **    R0 - INTEGER VALUE
                                   14050              **    R2 - SCAN CB, SCAN CB IS UPDATED TO CONTAIN SCANNED PARM
                                   14051              **    R15 - ZERO, IF NO ERROR IN SCANNING PARM
                                   14052              **    R15 - NEG, IF ERROR IN SCANNING PARM
                                   14053              **         NSCNFERR FLAG SET, NSCNMSG,NSCNMSGL - ERROR MSG !
                                   14054              **
                                   14055              **  NOTE:
                                   14056              **    SCAN PARM USES SAME OPTIONS AS PARENT SCAN, IE. THE
                                   14057              **    PARM SCAN USES THE SAME SKIP/STOP TABLE AND SCAN PARMS.
                                   14058              **    IF YOU DO NOT WANT THIS, YOU MUST SCAN YOUR OWN PARM.
                                   14059              **
                                   14060              *
 00177C 50E0 D000/9008_      00000 14061              DOPINT   PROC  PARMWA
 USING  *,R7
 USING  PARMWA-(4+36),R8
 USING  NKW,R1                     14111                       USING NKW,R1
 USING  NSCNCB,R2                  14120                       USING NSCNCB,R2
                                   14129
                                   14130                       COMMENT                   SAVE SCANNED KEYWORD
 001796 D20F 8028 2040 00000 00040 14131                       MVC   PARMKW,NSCNCTOK
 00179C 5840 2050            00050 14132                       L     R4,NSCNTOKL
 0017A0 5040 8038            00010 14133                       ST    R4,PARMKWL
                                   14134
                                   14135                       COMMENT                   SCAN PARM
 0017A4 58E0 70C2/0DEE       01858 14136                       ACALL SCNTOKEN
 0017AA 58E0 70C6/0DEE       0185C 14140                       ACALL SETTOKEN
 0017B0 58E0 70CA/0DEE       01860 14144                       ACALL SETTYPE
                                   14148              *
                                   14149              *  HANDLE SCAN ERRORS
                                   14150              *
                                   14151                       COMMENT                   IF ERROR,, RETURN ERROR
 0017B6 12FF/4780 702A             14152                       IF    (R15,NZ),BEGIN
 0017BC 47F0 70AC            01842 14166  1                      B     PINTDONE
 0017C0                            14167                       END
                                   14171
                                   14172                       COMMENT                   IF NULL,, NULL PARM IS ERROR
 0017C0 9180 2018/47E0_00018       14173                       IF    NSCNFNUL,BEGIN
 0017C8 4140 8028            00000 14188  1                      LA    R4,PARMKW
 0017CC 5850 8038            00010 14189  1                      L     R5,PARMKWL
 0017D0 58E0 70CE/0DEE       01864 14190  1                      ACALL MISSPARM            SET MISSING PARM MESSAGE
 0017D6 47F0 70AC            01842 14194  1                      B     PINTDONE
 0017DA                            14195                       END
                                   14199
 0017DA 9120 2018/4710_00018       14200                       IF    ~NSCNFINT,BEGIN     CHECK FOR VALID INT TYPE, RANGE
1SCAN     (SCAN2025) (12:54) (15MAR04) PARM MATCH ROUTINES                                                                  Page   63
0Current Usings:  (NKW,R1) (NSCNCB,R2) (*,R7) (PARMWA-(4+36),R8) (CP,R11) (CV,R12)
0Loc    Object Code    Addr1 Addr2  Stmt Lv Lineno    Source Statement           (Hibal 5, Asmedit 3.3)  HLASM R4.0  2004/03/15 12.54
+___    ______ ____    _____ _____  ____ __ ______    ______ _________
00017E2 58E0 70D6/0DEE       0186C 14215  1                      ACALL BADINT
 0017E8 47F0 70AC            01842 14219  1                      B     PINTDONE
 0017EC                            14220                       END
                                   14224
                                   14225                       COMMENT                   CHECK UPPER LIMIT
 0017EC 5800 201C            0001C 14226                       L     R0,NSCNTVAL
 0017F0 9180 1012/47E0_00012       14227                       IF    (NKWFP1,AND,(R0,GT,NKWPARM1)),BEGIN
 001800 58E0 70D6/0DEE       0186C 14258  1                      ACALL BADINT
 001806 47F0 70AC            01842 14262  1                      B     PINTDONE
 00180A                            14263                       END
                                   14267
                                   14268                       COMMENT                   CHECK LOWER LIMITS
 00180A 9140 1015/4710_00015       14269                       IF    (~NKWFSI,AND,(R0,NEG)),BEGIN
 001818 58E0 70D6/0DEE       0186C 14297  1                      ACALL BADINT
 00181E 47F0 70AC            01842 14301  1                      B     PINTDONE
 001822                            14302                       END
 001822 9180 1015/47E0_00015       14306                       IF    (NKWFPI,AND,(R0,NP)),BEGIN
 001830 58E0 70D6/0DEE       0186C 14334  1                      ACALL BADINT
 001836 47F0 70AC            01842 14338  1                      B     PINTDONE
 00183A                            14339                       END
                                   14343
                                   14344                       COMMENT                   VALUE OK
 00183A 1B11                       14345                       CLEAR R1
 00183C 9001 8004            00004 14349                       PRETURN (R0,R1)
 001840 1BFF                       14351                       CLEAR R15
                                   14355
 001842                            14356              PINTDONE LABEL ,
                                   14358
 001842 18D8/9808 D004_            14359                       PEND
 DROP   PARMWA-(4+36),R8
 DROP   *,R7
 DROP   NSCNCB,R2                  14384                       DROP  R2
 DROP   NKW,R1                     14391                       DROP  R1
1SCAN     (SCAN2025) (12:54) (15MAR04) PARM MATCH ROUTINES                                                                  Page   64
0Current Usings:  (CP,R11) (CV,R12)
0Loc    Object Code    Addr1 Addr2  Stmt Lv Lineno    Source Statement           (Hibal 5, Asmedit 3.3)  HLASM R4.0  2004/03/15 12.54
+___    ______ ____    _____ _____  ____ __ ______    ______ _________
0                                  14399                       QLTORG
1SCAN     (SCAN2025) (12:54) (15MAR04) PARM MATCH ROUTINES                                                                  Page   65
0Current Usings:  (CP,R11) (CV,R12)
0Loc    Object Code    Addr1 Addr2  Stmt Lv Lineno    Source Statement           (Hibal 5, Asmedit 3.3)  HLASM R4.0  2004/03/15 12.54
+___    ______ ____    _____ _____  ____ __ ______    ______ _________
0                                  14421              *
                                   14422              **
                                   14423              **  TOKEN W/LINE NUMBER PARM MATCH ROUTINE
                                   14424              **
                                   14425              **  SEE COMMENTS AT START OF MODULE.
                                   14426              **
                                   14427              **  ON EXIT, IF MATCH:
                                   14428              **  R0 - VALUE
                                   14429              **
                                   14430              *
                                   14431              *
 001872 50E0 D000/9008_      00000 14432              MPLNO    XPROC
 USING  *,R7
                                   14472
                                   14473                       COMMENT                   CHECK PARM KEYWORD
 00188C 9001 D000/41D0_      00000 14474                       XPUSH R0,R1
 001894 58E0 75EC/0DEE       01E78 14477                       ACALL MTOKEN
 00189A 4BD0 761C/9801_      01EA8 14481                       XPOP  R0,R1
                                   14484
                                   14485                       COMMENT                   IF CORRECT KEYWORD, GET PARM
 0018A2 12FF/4770 7026             14486                       IF    (R15,Z),BEGIN
 0018A8 58E0 75F0/0DEE       01E7C 14500  1                      ACALL DOPLNO
 0018AE 9001 8004            00004 14504  1                      PRETURN (R0,R1)
 0018B2                            14506                       END
                                   14510
 0018B2 18D8/9808 D004_            14511                       PEND
 DROP   *,R7
1SCAN     (SCAN2025) (12:54) (15MAR04) PARM MATCH ROUTINES                                                                  Page   66
0Current Usings:  (CP,R11) (CV,R12)
0Loc    Object Code    Addr1 Addr2  Stmt Lv Lineno    Source Statement           (Hibal 5, Asmedit 3.3)  HLASM R4.0  2004/03/15 12.54
+___    ______ ____    _____ _____  ____ __ ______    ______ _________
0                                  14532              *
                                   14533              **
                                   14534              **  DO LINE NUMBER PARM
                                   14535              **
                                   14536              **  ON ENTRY:
                                   14537              **    R1 - NKW
                                   14538              **    R2 - SCAN CONTROL BLOCK
                                   14539              **
                                   14540              **
                                   14541              **  ON EXIT:
                                   14542              **    R0 - LINE NUMBER VALUE
                                   14543              **    R2 - SCAN CB, SCAN CB IS UPDATED TO CONTAIN SCANNED PARM
                                   14544              **    R15 - ZERO, IF NO ERROR IN SCANNING PARM
                                   14545              **    R15 - NEG, IF ERROR IN SCANNING PARM
                                   14546              **         NSCNFERR FLAG SET, NSCNMSG,NSCNMSGL - ERROR MSG !
                                   14547              **
                                   14548              **  NOTE:
                                   14549              **    PARM SCAN USES DEFAULT SKIP/STOP TABLE ON OPTION SCAN.
                                   14550              **    IF YOU DO NOT WANT THIS, YOU MUST SCAN YOUR OWN PARM.
                                   14551              **
                                   14552              *
 0018C0 50E0 D000/9008_      00000 14553              DOPLNO   PROC  PARMWA
 USING  *,R7
 USING  PARMWA-(4+36),R8
 USING  NSCNCB,R2                  14603                       USING NSCNCB,R2
                                   14612
                                   14613                       COMMENT                   GET KEYWORD LOC,LEN
 0018DA D20F 8028 2040 00000 00040 14614                       MVC   PARMKW,NSCNCTOK
 0018E0 4140 8028            00000 14615                       LA    R4,PARMKW
 0018E4 5850 2014            00014 14616                       L     R5,NSCNTLEN
                                   14617
                                   14618                       COMMENT                   SCAN FOR LNO
 0018E8 5810 B08C/1B00_      0008C 14619                       SCAN  PLNOPRT
 00193A 12FF/47B0 7066             14651                       IF    (R15,NEG),BEGIN
 001940                            14665                       END
 001940 706A/47F0 707C_01940 0193E 14669                       ELSEIF (R15,EQ,4),BEGIN
 00194C 1804                       14695  1                      LR    R0,R4
 00194E 1815                       14696  1                      LR    R1,R5
 001950 1BFF                       14697  1                      CLEAR R15
 001952 9001 8004            00004 14701  1                      PRETURN (R0,R1)
 001956                            14703                       END
 001956 7080/47F0 7082 01956 0194A 14707                       ELSE  BEGIN
 00195A 0000                       14718  1                      BOMB
 00195C                            14720                       END
                                   14724
 00195C 18D8/9808 D004_            14725                       PEND
 DROP   PARMWA-(4+36),R8
 DROP   *,R7
 DROP   NSCNCB,R2                  14750                       DROP  R2
                                   14757              *
                                   14758              *  PARM SCKWS AND ROUTINES
                                   14759              *
 00196C 4040404040404040_          14760              PLNOPRT  SCKW  ,PLNONULL,NULL
 001994 4040404040404040_          14775                       SCKW  ,PLNOOK,LN
1SCAN     (SCAN2025) (12:54) (15MAR04) PARM MATCH ROUTINES                                                                  Page   67
0Current Usings:  (CP,R11) (CV,R12)
0Loc    Object Code    Addr1 Addr2  Stmt Lv Lineno    Source Statement           (Hibal 5, Asmedit 3.3)  HLASM R4.0  2004/03/15 12.54
+___    ______ ____    _____ _____  ____ __ ______    ______ _________
00019BC 4040404040404040_          14790                       SCKW  ,PLNOBAD
                                   14805
 0019E4 50E0 D000/9008_      00000 14806              PLNONULL PROC  ,
 USING  *,R7
 0019FE 58E0 748E/0DEE       01E8C 14845                       ACALL MISSPARM
 001A04 18D8/9808 D004_            14849                       PEND
 DROP   *,R7
                                   14869
 001A12 50E0 D000/9008_      00000 14870              PLNOOK   PROC  ,
 USING  *,R7
 001A2C 1840                       14909                       LR    R4,R0
 001A2E 1851                       14910                       LR    R5,R1
 001A30 41F0 0004            00004 14911                       LA    R15,4
 001A34 9045 8014            00014 14912                       PRETURN (R4,R5)
 001A38 18D8/9808 D004_            14914                       PEND
 DROP   *,R7
                                   14934
 001A46 50E0 D000/9008_      00000 14935              PLNOBAD  PROC  ,
 USING  *,R7
 001A60 58E0 7430/0DEE       01E90 14974                       ACALL BADLNO
 001A66 18D8/9808 D004_            14978                       PEND
 DROP   *,R7
1SCAN     (SCAN2025) (12:54) (15MAR04) PARM MATCH ROUTINES                                                                  Page   68
0Current Usings:  (CP,R11) (CV,R12)
0Loc    Object Code    Addr1 Addr2  Stmt Lv Lineno    Source Statement           (Hibal 5, Asmedit 3.3)  HLASM R4.0  2004/03/15 12.54
+___    ______ ____    _____ _____  ____ __ ______    ______ _________
0                                  14999              *
                                   15000              **
                                   15001              **  TOKEN W/SYMBOLIC LINE NUMBER PARM MATCH ROUTINE
                                   15002              **
                                   15003              **  SEE COMMENTS AT START OF MODULE.
                                   15004              **
                                   15005              **  ON EXIT, IF MATCH:
                                   15006              **  R0 - VALUE
                                   15007              **  R1 - DELTA
                                   15008              **
                                   15009              *
                                   15010              *
 001A74 50E0 D000/9008_      00000 15011              MPSYMLN  XPROC
 USING  *,R7
                                   15051
                                   15052                       COMMENT                   CHECK PARM KEYWORD
 001A8E 9001 D000/41D0_      00000 15053                       XPUSH R0,R1
 001A96 58E0 73EA/0DEE       01E78 15056                       ACALL MTOKEN
 001A9C 4BD0 741A/9801_      01EA8 15060                       XPOP  R0,R1
                                   15063
                                   15064                       COMMENT                   IF CORRECT KEYWORD, GET PARM
 001AA4 12FF/4770 7026             15065                       IF    (R15,Z),BEGIN
 001AAA 58E0 7406/0DEE       01E94 15079  1                      ACALL DOPSYMLN
 001AB0 9001 8004            00004 15083  1                      PRETURN (R0,R1)
 001AB4                            15085                       END
                                   15089
 001AB4 18D8/9808 D004_            15090                       PEND
 DROP   *,R7
1SCAN     (SCAN2025) (12:54) (15MAR04) PARM MATCH ROUTINES                                                                  Page   69
0Current Usings:  (CP,R11) (CV,R12)
0Loc    Object Code    Addr1 Addr2  Stmt Lv Lineno    Source Statement           (Hibal 5, Asmedit 3.3)  HLASM R4.0  2004/03/15 12.54
+___    ______ ____    _____ _____  ____ __ ______    ______ _________
0                                  15111              *
                                   15112              **
                                   15113              **  DO SYMBOLIC LINE NUMBER PARM
                                   15114              **
                                   15115              **  ON ENTRY:
                                   15116              **    R1 - NKW
                                   15117              **    R2 - SCAN CONTROL BLOCK
                                   15118              **
                                   15119              **
                                   15120              **  ON EXIT:
                                   15121              **    R0 - LINE NUMBER VALUE
                                   15122              **    R1 - DELTA
                                   15123              **    R2 - SCAN CB, SCAN CB IS UPDATED TO CONTAIN SCANNED PARM
                                   15124              **    R15 - ZERO, IF NO ERROR IN SCANNING PARM
                                   15125              **    R15 - NEG, IF ERROR IN SCANNING PARM
                                   15126              **         NSCNFERR FLAG SET, NSCNMSG,NSCNMSGL - ERROR MSG !
                                   15127              **
                                   15128              **  NOTE:
                                   15129              **    PARM SCAN USES DEFAULT SKIP/STOP TABLE ON OPTION SCAN.
                                   15130              **    IF YOU DO NOT WANT THIS, YOU MUST SCAN YOUR OWN PARM.
                                   15131              **
                                   15132              *
 001AC2 50E0 D000/9008_      00000 15133              DOPSYMLN PROC  PARMWA
 USING  *,R7
 USING  PARMWA-(4+36),R8
 USING  NSCNCB,R2                  15183                       USING NSCNCB,R2
                                   15192
                                   15193                       COMMENT                   GET KEYWORD LOC,LEN
 001ADC D20F 8028 2040 00000 00040 15194                       MVC   PARMKW,NSCNCTOK
 001AE2 4140 8028            00000 15195                       LA    R4,PARMKW
 001AE6 5850 2014            00014 15196                       L     R5,NSCNTLEN
                                   15197
                                   15198                       COMMENT                   SCAN FOR SYMLNO
 001AEA 5810 B08C/1B00_      0008C 15199                       SCAN  PSYMPRT
 001B3C 12FF/47B0 7066             15231                       IF    (R15,NEG),BEGIN
 001B42                            15245                       END
 001B42 706A/47F0 707C_01B42 01B40 15249                       ELSEIF (R15,EQ,4),BEGIN
 001B4E 1804                       15275  1                      LR    R0,R4
 001B50 1815                       15276  1                      LR    R1,R5
 001B52 1BFF                       15277  1                      CLEAR R15
 001B54 9001 8004            00004 15281  1                      PRETURN (R0,R1)
 001B58                            15283                       END
 001B58 7080/47F0 7082 01B58 01B4C 15287                       ELSE  BEGIN
 001B5C 0000                       15298  1                      BOMB
 001B5E                            15300                       END
                                   15304
 001B5E 18D8/9808 D004_            15305                       PEND
 DROP   PARMWA-(4+36),R8
 DROP   *,R7
 DROP   NSCNCB,R2                  15330                       DROP  R2
                                   15337              *
                                   15338              *  PARM SCKWS AND ROUTINES
                                   15339              *
 001B6C 4040404040404040_          15340              PSYMPRT  SCKW  ,PSYMNULL,NULL
1SCAN     (SCAN2025) (12:54) (15MAR04) PARM MATCH ROUTINES                                                                  Page   70
0Current Usings:  (CP,R11) (CV,R12)
0Loc    Object Code    Addr1 Addr2  Stmt Lv Lineno    Source Statement           (Hibal 5, Asmedit 3.3)  HLASM R4.0  2004/03/15 12.54
+___    ______ ____    _____ _____  ____ __ ______    ______ _________
0001B94 4040404040404040_          15355                       SCKW  ,PSYMOK,SYMLN
 001BBC 4040404040404040_          15370                       SCKW  ,PSYMBAD
                                   15385
 001BE4 50E0 D000/9008_      00000 15386              PSYMNULL PROC  ,
 USING  *,R7
 001BFE 58E0 728E/0DEE       01E8C 15425                       ACALL MISSPARM
 001C04 18D8/9808 D004_            15429                       PEND
 DROP   *,R7
                                   15449
 001C12 50E0 D000/9008_      00000 15450              PSYMOK   PROC  ,
 USING  *,R7
 001C2C 1840                       15489                       LR     R4,R0
 001C2E 1851                       15490                       LR     R5,R1
 001C30 41F0 0004            00004 15491                       LA    R15,4
 001C34 9045 8014            00014 15492                       PRETURN (R4,R5)
 001C38 18D8/9808 D004_            15494                       PEND
 DROP   *,R7
                                   15514
 001C46 50E0 D000/9008_      00000 15515              PSYMBAD  PROC  ,
 USING  *,R7
 001C60 58E0 7230/0DEE       01E90 15554                       ACALL BADLNO
 001C66 18D8/9808 D004_            15558                       PEND
 DROP   *,R7
1SCAN     (SCAN2025) (12:54) (15MAR04) PARM MATCH ROUTINES                                                                  Page   71
0Current Usings:  (CP,R11) (CV,R12)
0Loc    Object Code    Addr1 Addr2  Stmt Lv Lineno    Source Statement           (Hibal 5, Asmedit 3.3)  HLASM R4.0  2004/03/15 12.54
+___    ______ ____    _____ _____  ____ __ ______    ______ _________
0                                  15579              *
                                   15580              **
                                   15581              **  TOKEN W/COLUMN PARM MATCH ROUTINE
                                   15582              **
                                   15583              **  SEE COMMENTS AT START OF MODULE.
                                   15584              **
                                   15585              **  ON EXIT, IF MATCH:
                                   15586              **  R0 - FIRST COL
                                   15587              **  R1 - SECOND COL (0 IF NONE)
                                   15588              **
                                   15589              *
                                   15590              *
 001C74 50E0 D000/9008_      00000 15591              MPCOLS   XPROC
 USING  *,R7
                                   15631
                                   15632                       COMMENT                   CHECK PARM KEYWORD
 001C8E 9001 D000/41D0_      00000 15633                       XPUSH R0,R1
 001C96 58E0 71EA/0DEE       01E78 15636                       ACALL MTOKEN
 001C9C 4BD0 721A/9801_      01EA8 15640                       XPOP  R0,R1
                                   15643
                                   15644                       COMMENT                   IF CORRECT KEYWORD, GET PARM
 001CA4 12FF/4770 7026             15645                       IF    (R15,Z),BEGIN
 001CAA 58E0 720E/0DEE       01E9C 15659  1                      ACALL DOPCOLS
 001CB0 9001 8004            00004 15663  1                      PRETURN (R0,R1)
 001CB4                            15665                       END
                                   15669
 001CB4 18D8/9808 D004_            15670                       PEND
 DROP   *,R7
1SCAN     (SCAN2025) (12:54) (15MAR04) PARM MATCH ROUTINES                                                                  Page   72
0Current Usings:  (CP,R11) (CV,R12)
0Loc    Object Code    Addr1 Addr2  Stmt Lv Lineno    Source Statement           (Hibal 5, Asmedit 3.3)  HLASM R4.0  2004/03/15 12.54
+___    ______ ____    _____ _____  ____ __ ______    ______ _________
0                                  15691              *
                                   15692              **
                                   15693              **  DO COLS PARM
                                   15694              **
                                   15695              **  ON ENTRY:
                                   15696              **    R1 - NKW
                                   15697              **    R2 - SCAN CONTROL BLOCK
                                   15698              **
                                   15699              **
                                   15700              **  ON EXIT:
                                   15701              **    R0 - STARTING COL
                                   15702              **    R1 - FIELD LEN
                                   15703              **    R2 - SCAN CB, SCAN CB IS UPDATED TO CONTAIN SCANNED PARM
                                   15704              **    R15 - ZERO, IF NO ERROR IN SCANNING PARM
                                   15705              **    R15 - NEG, IF ERROR IN SCANNING PARM
                                   15706              **         NSCNFERR FLAG SET, NSCNMSG,NSCNMSGL - ERROR MSG !
                                   15707              **
                                   15708              **  NOTE:
                                   15709              **    PARM SCAN USES DEFAULT SKIP/STOP TABLE ON OPTION SCAN.
                                   15710              **    IF YOU DO NOT WANT THIS, YOU MUST SCAN YOUR OWN PARM.
                                   15711              **
                                   15712              *
 001CC2 50E0 D000/9008_      00000 15713              DOPCOLS  PROC  PARMWA
 USING  *,R7
 USING  PARMWA-(4+36),R8
 USING  NSCNCB,R2                  15763                       USING NSCNCB,R2
                                   15772
                                   15773                       COMMENT                   GET KEYWORD LOC,LEN
 001CDC D20F 8028 2040 00000 00040 15774                       MVC   PARMKW,NSCNCTOK
 001CE2 4140 8028            00000 15775                       LA    R4,PARMKW
 001CE6 5850 2014            00014 15776                       L     R5,NSCNTLEN
                                   15777
                                   15778                       COMMENT                   SCAN FOR SYMLNO
 001CEA 5810 B08C/1B00_      0008C 15779                       SCAN  PCOLPRT
 001D3C 12FF/47B0 7066             15811                       IF    (R15,NEG),BEGIN
 001D42                            15825                       END
 001D42 706A/47F0 707C_01D42 01D40 15829                       ELSEIF (R15,EQ,4),BEGIN
 001D4E 1804                       15855  1                      LR    R0,R4
 001D50 1815                       15856  1                      LR    R1,R5
 001D52 1BFF                       15857  1                      CLEAR R15
 001D54 9001 8004            00004 15861  1                      PRETURN (R0,R1)
 001D58                            15863                       END
 001D58 7080/47F0 7082 01D58 01D4C 15867                       ELSE  BEGIN
 001D5C 0000                       15878  1                      BOMB
 001D5E                            15880                       END
                                   15884
 001D5E 18D8/9808 D004_            15885                       PEND
 DROP   PARMWA-(4+36),R8
 DROP   *,R7
 DROP   NSCNCB,R2                  15910                       DROP  R2
                                   15917              *
                                   15918              *  PARM SCKWS AND ROUTINES
                                   15919              *
 001D6C 4040404040404040_          15920              PCOLPRT  SCKW  ,PCOLNULL,NULL
1SCAN     (SCAN2025) (12:54) (15MAR04) PARM MATCH ROUTINES                                                                  Page   73
0Current Usings:  (CP,R11) (CV,R12)
0Loc    Object Code    Addr1 Addr2  Stmt Lv Lineno    Source Statement           (Hibal 5, Asmedit 3.3)  HLASM R4.0  2004/03/15 12.54
+___    ______ ____    _____ _____  ____ __ ______    ______ _________
0001D94 4040404040404040_          15935                       SCKW  ,PCOLOK,A(MCOLS)
 001DBC 4040404040404040_          15950                       SCKW  ,PCOLBAD
                                   15965
 001DE4 50E0 D000/9008_      00000 15966              PCOLNULL PROC  ,
 USING  *,R7
 001DFE 58E0 708E/0DEE       01E8C 16005                       ACALL MISSPARM
 001E04 18D8/9808 D004_            16009                       PEND
 DROP   *,R7
                                   16029
 001E12 50E0 D000/9008_      00000 16030              PCOLOK   PROC  ,
 USING  *,R7
 001E2C 1840                       16069                       LR     R4,R0
 001E2E 1851                       16070                       LR     R5,R1
 001E30 41F0 0004            00004 16071                       LA    R15,4
 001E34 9045 8014            00014 16072                       PRETURN (R4,R5)
 001E38 18D8/9808 D004_            16074                       PEND
 DROP   *,R7
                                   16094
 001E46 50E0 D000/9008_      00000 16095              PCOLBAD  PROC  ,
 USING  *,R7
 001E60 58E0 7044/0DEE       01EA4 16134                       ACALL BADTOKEN
 001E66 18D8/9808 D004_            16138                       PEND
 DROP   *,R7
1SCAN     (SCAN2025) (12:54) (15MAR04) PARM MATCH ROUTINES                                                                  Page   74
0Current Usings:  (CP,R11) (CV,R12)
0Loc    Object Code    Addr1 Addr2  Stmt Lv Lineno    Source Statement           (Hibal 5, Asmedit 3.3)  HLASM R4.0  2004/03/15 12.54
+___    ______ ____    _____ _____  ____ __ ______    ______ _________
0                                  16159                       QLTORG
1SCAN     (SCAN2025) (12:54) (15MAR04) COMPLEX MATCH ROUTINES                                                               Page   75
0Current Usings:  (CP,R11) (CV,R12)
0Loc    Object Code    Addr1 Addr2  Stmt Lv Lineno    Source Statement           (Hibal 5, Asmedit 3.3)  HLASM R4.0  2004/03/15 12.54
+___    ______ ____    _____ _____  ____ __ ______    ______ _________
0                                  16186              *
                                   16187              **
                                   16188              **  MSYMLN - MATCH SYMBOLIC LINE NUMBER
                                   16189              **
                                   16190              **  E.G.  FIRST+1, 123.012, NEXT+.001
                                   16191              **  FOR MORE DETAILS TYPE 'HELP LINE NUMBER'
                                   16192              **
                                   16193              **  STANDARD MATCH ROUTINE PARMAMETERS PASSED.
                                   16194              **  SEE COMMENTS AT START OF MODULE.
                                   16195              **
                                   16196              **  ON EXIT:
                                   16197              **    R0 - LINE NUMBER VALUE
                                   16198              **    R1 - DELTA VALUE
                                   16199              **
                                   16200              **
                                   16201              *
 000000                00000 00011 16202              MSLWA    RECORD BEGIN
 000000                            16210  1           MSLLNO     DS    F
 000004                            16211  1           MSLDELTA   DS    F
 000008                            16212  1           MSLINCR    DS    F
 00000C                            16213  1           MSLSTART   DS    A                   START OF SYMBOLIC TOKEN(S)
 000010 00                         16214  1           MSLFLAGS   FLAG  ,
 MSLFLAGS.MSLACT   80 ONES         16218  1                      FLAG  MSLACT              SELECT FROM ACTIVE
 MSLFLAGS.MSLEXTRN 40 ONES         16223  1                      FLAG  MSLEXTRN            SELECT FROM EXTERNAL
 MSLFLAGS.MSLEXEC  20 ONES         16228  1                      FLAG  MSLEXEC             SELECT FROM EXEC
 MSLFLAGS.MSLNOCUR 10 ONES         16233  1                      FLAG  MSLNOCUR            OK NOT TO HAVE CURRENT
 000011                00011 00011 16238                       END
                                   16247              *
                                   16248              *
 001EAC 50E0 D000/9008_      00000 16249              MSYMLN   XPROC MSLWA
 USING  *,R7
 USING  MSLWA-(4+36),R8
 USING  NSCNCB,R2                  16300                       USING NSCNCB,R2
 001EC6 4160 8028            00000 16309                       LA    R6,MSLWA
 USING  MSLWA,R6                   16310                       USING MSLWA,R6
                                   16319
                                   16320                       COMMENT                   INIT WORK AREA
 001ECA D710 6000 6000 00000 00000 16321                       CLEAR MSLWA
 001ED0 9501 BD89/4780_00D89       16328                       IF    (CPFRDACT,OR,(CPFRDSRC,Z)),BEGIN   IF ACTIVE,,
 001EE0 9680 6010      00010       16358  1                      SET   MSLACT
 001EE4                            16364                       END
 001EE4 7022/47F0 702E_01EE4 01EDE 16368                       ELSEIF CPFRDEXE,BEGIN
 001EF0 9620 6010      00010       16392  1                      SET   MSLEXEC
 001EF4                            16398                       END
 001EF4 7032/47F0 703E_01EF4 01EEE 16402                       ELSEIF CPFRDEXT,BEGIN
 001F00 9640 6010      00010       16426  1                      SET   MSLEXTRN
 001F04                            16432                       END
 001F04 7042/47F0 7046 01F04 01EFE 16436                       ELSE  BEGIN
 001F08 9680 6010      00010       16447  1                      SET   MSLACT AS DEFAULT
 001F0C                            16453                       END
 001F0C 9102 BD53/47E0_00D53       16457                       IF    ('TM CPLFLG4,CPFNOCUR',O),BEGIN
 001F14 9610 6010      00010       16470  1                      SET   MSLNOCUR
 001F18                            16476                       END
 001F18 5800 B738            00738 16480                       L     R0,CPDELTA          SET DEFAULT DELTA
1SCAN     (SCAN2025) (12:54) (15MAR04) COMPLEX MATCH ROUTINES                                                               Page   76
0Current Usings:  (NSCNCB,R2) (MSLWA,R6) (*,R7) (MSLWA-(4+36),R8) (CP,R11) (CV,R12)
0Loc    Object Code    Addr1 Addr2  Stmt Lv Lineno    Source Statement           (Hibal 5, Asmedit 3.3)  HLASM R4.0  2004/03/15 12.54
+___    ______ ____    _____ _____  ____ __ ______    ______ _________
0001F1C 5000 6004            00004 16481                       ST    R0,MSLDELTA
                                   16482
                                   16483                       COMMENT                   SAVE SCAN STATE
 001F20 58E0 B08C/D2AF_      0008C 16484                       SCPUSH ,
 001F2E 5800 2010            00010 16490                       L     R0,NSCNTLOC
 001F32 5000 600C            0000C 16491                       ST    R0,MSLSTART
 001F36 58E0 B08C/58FE_      0008C 16492                       SCBKUP
                                   16548
                                   16549                       COMMENT                   SCAN
 001F6C 5810 B08C/1B00_      0008C 16550                       SCAN  MSMPRT
 001FBE 12FF/4770 7100_            16582                       IF    (R15,Z),' BOMB '    R15 MUST BE SET ON ALL RETURNS
 001FC6 59F0 787A/4770_      02740 16603                       IF    (R15,EQ,4),BEGIN    NORMAL TERMINATION W/MATCH
 001FCE 1BFF                       16620  1                      CLEAR R15
 001FD0                            16624                       END
 001FD0 59F0 787E/4770_      02744 16628                       IF    (R15,EQ,8),BEGIN    NORMAL TERMINATION NO/MATCH
 001FD8 58E0 B08C/4BD0_      0008C 16645  1                      SCPOP ,
 001FE6 41F0 0004            00004 16651  1                      LA    R15,4
 001FEA                            16652                       END
                                   16656
                                   16657                       COMMENT                   IF MATCH, RETURN R0,R1
 001FEA 12FF/4770 7136             16658                       IF    (R15,Z),BEGIN
 001FF0 5800 6000            00000 16672  1                      L     R0,MSLLNO
 001FF4 5810 6004            00004 16673  1                      L     R1,MSLDELTA
 001FF8 9001 8004            00004 16674  1                      PRETURN (R0,R1)
 001FFC                            16676                       END
                                   16680
 001FFC 18D8/9808 D004_            16681                       PEND
 DROP   MSLWA-(4+36),R8
 DROP   *,R7
1SCAN     (SCAN2025) (12:54) (15MAR04) COMPLEX MATCH ROUTINES                                                               Page   77
0Current Usings:  (NSCNCB,R2) (MSLWA,R6) (CP,R11) (CV,R12)
0Loc    Object Code    Addr1 Addr2  Stmt Lv Lineno    Source Statement           (Hibal 5, Asmedit 3.3)  HLASM R4.0  2004/03/15 12.54
+___    ______ ____    _____ _____  ____ __ ______    ______ _________
0                                  16707              *
                                   16708              *  SYMBOLIC LINE NO SCKWS
                                   16709              *
 00200C 4040404040404040_          16710              MSMPRT   SCKW  ,MSMLNO,LN
 002034 C640404040404040_          16725                       SCKW  F,MSMFRST
 00205C D340404040404040_          16740                       SCKW  L,MSMLAST
 002084 C6C9D9E2E3404040_          16755                       SCKW  FIRST,MSMFRST,A
 0020AC D3C1E2E340404040_          16770                       SCKW  LAST,MSMLAST,A
 0020D4 C3E4D9D9C5D5E340_          16785                       SCKW  CURRENT,MSMCURR,A
 0020FC D5C5E7E340404040_          16800                       SCKW  NEXT,MSMNEXT,A
 002124 D7D9C5E5C9D6E4E2_          16815                       SCKW  PREVIOUS,MSMPREV,A
 00214C C5D5C44040404040_          16830                       SCKW  END,MSMEND
 002174 C6C2D3D6C3D24040_          16845                       SCKW  FBLOCK,MSMFBLK,A
 00219C D3C2D3D6C3D24040_          16860                       SCKW  LBLOCK,MSMLBLK,A
 0021C4 D9C5E3E4D9D54040_          16875                       SCKW  RETURN,MSMRETN,A
 0021EC 5C40404040404040_          16890                       SCKW  *,MSMCURR
                                   16905              *IOWA*   SCKW  ATTN,MSMATTN,A
                                   16906              *IOWA*   SCKW  ATTENTION,MSMATTN,A
                                   16907              *IOWA*   SCKW  ABORT,MSMABRT,A
 002214 4040404040404040_          16908                       SCKW  ,MSMNOMAT,NULL
 00223C 4040404040404040_          16923                       SCKW  ,MSMNOMAT,END
                                   16938              *
                                   16939              *
 002264 50E0 D000/9008_      00000 16940              MSMLNO   PROC  ,
 USING  *,R7
 00227E 5000 6000            00000 16979                       ST    R0,MSLLNO
 002282 58E0 74CA/0DEE       02748 16980                       ACALL DODELTA
 002288 5000 6004            00004 16984                       ST    R0,MSLDELTA
 00228C 58E0 74CE/0DEE       0274C 16985                       ACALL DOINCR
 002292 18D8/9808 D004_            16989                       PEND  ,
 DROP   *,R7
                                   17009              *
                                   17010              *
 0022A0 50E0 D000/9008_      00000 17011              MSMFRST  PROC  ,
 USING  *,R7
 0022BA 9180 6010/47E0_00010       17050                       IF    MSLACT,BEGIN
 0022C2 5800 B5A0            005A0 17065  1                      L     R0,CPAFLNO
 0022C6                            17066                       END
 0022C6 7010/47F0 701A_022C6 022C0 17070                       ELSEIF MSLEXTRN,BEGIN
 0022D2 1B00                       17094  1                      CLEAR R0
 0022D4                            17098                       END
 0022D4 701E/47F0 702C_022D4 022D0 17102                       ELSEIF MSLEXEC,BEGIN
 0022E0 58E0 7496/0DEE       02750 17126  1                      VCALL EXFRSTLN
 0022E6                            17130                       END
 0022E6 5000 6000            00000 17134                       ST    R0,MSLLNO
 0022EA 58E0 7492/0DEE       0274C 17135                       ACALL DOINCR
 0022F0 18D8/9808 D004_            17139                       PEND  ,
 DROP   *,R7
                                   17159              *
                                   17160              *
 0022FE 50E0 D000/9008_      00000 17161              MSMLAST  PROC  ,
 USING  *,R7
 002318 9180 6010/47E0_00010       17200                       IF    MSLACT,BEGIN
 002320 5800 B5A4            005A4 17215  1                      L     R0,CPALLNO
1SCAN     (SCAN2025) (12:54) (15MAR04) COMPLEX MATCH ROUTINES                                                               Page   78
0Current Usings:  (NSCNCB,R2) (MSLWA,R6) (*,R7) (CP,R11) (CV,R12)
0Loc    Object Code    Addr1 Addr2  Stmt Lv Lineno    Source Statement           (Hibal 5, Asmedit 3.3)  HLASM R4.0  2004/03/15 12.54
+___    ______ ____    _____ _____  ____ __ ______    ______ _________
0002324                            17216                       END
 002324 7010/47F0 701C_02324 0231E 17220                       ELSEIF MSLEXTRN,BEGIN
 002330 5800 C15C            0015C 17244  1                      L     R0,CVMAXLNO
 002334                            17245                       END
 002334 7020/47F0 702E_02334 0232E 17249                       ELSEIF MSLEXEC,BEGIN
 002340 58E0 743C/0DEE       02754 17273  1                      VCALL EXLASTLN
 002346                            17277                       END
 002346 5000 6000            00000 17281                       ST    R0,MSLLNO
 00234A 58E0 7434/0DEE       0274C 17282                       ACALL DOINCR
 002350 18D8/9808 D004_            17286                       PEND  ,
 DROP   *,R7
                                   17306              *
                                   17307              *
 00235E 50E0 D000/9008_      00000 17308              MSMCURR  PROC  ,
 USING  *,R7
 002378 9180 6010/47E0_00010       17347                       IF    MSLACT,BEGIN
 002380 5800 B5A8            005A8 17362  1                      L     R0,CPACLNO
 002384                            17363                       END
 002384 7010/47F0 7022_02384 0237E 17367                       ELSEIF MSLEXTRN,BEGIN
 002390 58E0 73E0/0DEE       02758 17391  1                      ACALL BADTOKEN
 002396 47F0 706A            023E2 17395  1                      B     MSMCDONE
 00239A                            17396                       END
 00239A 7026/47F0 703C_0239A 0238E 17400                       ELSEIF MSLEXEC,BEGIN
 0023A6 5800 B75C            0075C 17424  1                      L     R0,CPEXLINE
 0023AA 1200/47B0 703C             17425  1                      IF    (R0,NEG),BEGIN
 0023B0 5800 73E4            0275C 17439  2                        L     R0,=F'-1000'
 0023B4                            17440  1                      END
 0023B4                            17444                       END
 0023B4 1200/47B0 7060_            17448                       IF    ((R0,NEG),AND,~MSLNOCUR),BEGIN
 0023C2 4110 7404/4100_      0277C 17476  1                      SCSEG 'Current line not set. '
 0023D4 47F0 706A            023E2 17488  1                      B     MSMCDONE
 0023D8                            17489                       END
 0023D8 5000 6000            00000 17493                       ST    R0,MSLLNO
 0023DC 58E0 73D4/0DEE       0274C 17494                       ACALL DOINCR
 0023E2                            17498              MSMCDONE LABEL ,
 0023E2 18D8/9808 D004_            17500                       PEND  ,
 DROP   *,R7
                                   17520              *
                                   17521              *
 0023F0 50E0 D000/9008_      00000 17522              MSMNEXT  PROC  ,
 USING  *,R7
 00240A 9180 6010/47E0_00010       17561                       IF    MSLACT,BEGIN
 002412 5800 B5A8            005A8 17576  1                      L     R0,CPACLNO
 002416 1B11                       17577  1                      CLEAR R1
 002418 58E0 735A/0DEE       02764 17581  1                      VCALL GTNEXTLN
 00241E 4780 701C            02426 17585  1                      IF    NZ,BEGIN
 002422 5800 7352            0275C 17596  2                        L     R0,=F'-1000'
 002426                            17597  1                      END
 002426                            17601                       END
 002426 7020/47F0 7032_02426 02410 17605                       ELSEIF MSLEXTRN,BEGIN
 002432 58E0 734E/0DEE       02758 17629  1                      ACALL BADTOKEN
 002438 47F0 707E            02488 17633  1                      B     MSMNDONE
 00243C                            17634                       END
 00243C 7036/47F0 7050_0243C 02430 17638                       ELSEIF MSLEXEC,BEGIN
1SCAN     (SCAN2025) (12:54) (15MAR04) COMPLEX MATCH ROUTINES                                                               Page   79
0Current Usings:  (NSCNCB,R2) (MSLWA,R6) (*,R7) (CP,R11) (CV,R12)
0Loc    Object Code    Addr1 Addr2  Stmt Lv Lineno    Source Statement           (Hibal 5, Asmedit 3.3)  HLASM R4.0  2004/03/15 12.54
+___    ______ ____    _____ _____  ____ __ ______    ______ _________
0002448 5800 B75C            0075C 17662  1                      L     R0,CPEXLINE
 00244C 58E0 735E/0DEE       02768 17663  1                      VCALL EXNEXTLN
 002452 4780 7050            0245A 17667  1                      IF    NZ,BEGIN
 002456 5800 7352            0275C 17678  2                        L     R0,=F'-1000'
 00245A                            17679  1                      END
 00245A                            17683                       END
 00245A 1200/47B0 7074_            17687                       IF    ((R0,NEG),AND,~MSLNOCUR),BEGIN
 002468 4110 73A2/4100_      027AC 17715  1                      SCSEG 'Next line not set. '
 00247A 47F0 707E            02488 17727  1                      B     MSMNDONE
 00247E                            17728                       END
 00247E 5000 6000            00000 17732                       ST    R0,MSLLNO
 002482 58E0 7342/0DEE       0274C 17733                       ACALL DOINCR
 002488                            17737              MSMNDONE LABEL ,
 002488 18D8/9808 D004_            17739                       PEND  ,
 DROP   *,R7
                                   17759              *
                                   17760              *
 002496 50E0 D000/9008_      00000 17761              MSMPREV  PROC  ,
 USING  *,R7
 0024B0 9180 6010/47E0_00010       17800                       IF    MSLACT,BEGIN
 0024B8 5800 B5A8            005A8 17815  1                      L     R0,CPACLNO
 0024BC 1B11                       17816  1                      CLEAR R1
 0024BE 58E0 72BC/0DEE       0276C 17820  1                      VCALL GTPREVLN
 0024C4 4780 701C            024CC 17824  1                      IF    NZ,BEGIN
 0024C8 5800 72AC            0275C 17835  2                        L     R0,=F'-1000'
 0024CC                            17836  1                      END
 0024CC                            17840                       END
 0024CC 7020/47F0 7032_024CC 024B6 17844                       ELSEIF MSLEXTRN,BEGIN
 0024D8 58E0 72A8/0DEE       02758 17868  1                      ACALL BADTOKEN
 0024DE 47F0 707E            0252E 17872  1                      B     MSMPDONE
 0024E2                            17873                       END
 0024E2 7036/47F0 7050_024E2 024D6 17877                       ELSEIF MSLEXEC,BEGIN
 0024EE 5800 B75C            0075C 17901  1                      L     R0,CPEXLINE
 0024F2 58E0 72C0/0DEE       02770 17902  1                      VCALL EXPREVLN
 0024F8 4780 7050            02500 17906  1                      IF    NZ,BEGIN
 0024FC 5800 72AC            0275C 17917  2                        L     R0,=F'-1000'
 002500                            17918  1                      END
 002500                            17922                       END
 002500 1200/47B0 7074_            17926                       IF    ((R0,NEG),AND,~MSLNOCUR),BEGIN
 00250E 4110 730F/4100_      027BF 17954  1                      SCSEG 'Previous line not set. '
 002520 47F0 707E            0252E 17966  1                      B     MSMPDONE
 002524                            17967                       END
 002524 5000 6000            00000 17971                       ST    R0,MSLLNO
 002528 58E0 729C/0DEE       0274C 17972                       ACALL DOINCR
 00252E                            17976              MSMPDONE LABEL ,
 00252E 18D8/9808 D004_            17978                       PEND  ,
 DROP   *,R7
                                   17998              *
                                   17999              *
 00253C 50E0 D000/9008_      00000 18000              MSMEND   PROC  ,
 USING  *,R7
 002556 9180 6010/47E0_00010       18039                       IF    MSLACT,BEGIN
 00255E 58E0 721E/0DEE       02774 18054  1                      VCALL ENDLNO
 002564 47B0 701C            02572 18058  1                      IF    M,BEGIN
1SCAN     (SCAN2025) (12:54) (15MAR04) COMPLEX MATCH ROUTINES                                                               Page   80
0Current Usings:  (NSCNCB,R2) (MSLWA,R6) (*,R7) (CP,R11) (CV,R12)
0Loc    Object Code    Addr1 Addr2  Stmt Lv Lineno    Source Statement           (Hibal 5, Asmedit 3.3)  HLASM R4.0  2004/03/15 12.54
+___    ______ ____    _____ _____  ____ __ ______    ______ _________
0002568 58E0 7202/0DEE       02758 18069  2                        ACALL BADTOKEN
 00256E 47F0 7034            0258A 18073  2                        B     MSMEDONE
 002572                            18074  1                      END
 002572                            18078                       END
 002572 7020/47F0 702A 02572 0255C 18082                       ELSE  BEGIN
 002576 58E0 7202/0DEE       02758 18093  1                      ACALL BADTOKEN
 00257C 47F0 7034            0258A 18097  1                      B     MSMEDONE
 002580                            18098                       END
 002580 5000 6000            00000 18102                       ST    R0,MSLLNO
 002584 58E0 71F6/0DEE       0274C 18103                       ACALL DOINCR
 00258A                            18107              MSMEDONE LABEL ,
 00258A 18D8/9808 D004_            18109                       PEND  ,
 DROP   *,R7
                                   18129              *
                                   18130              *
 002598 50E0 D000/9008_      00000 18131              MSMFBLK  PROC  ,
 USING  *,R7
 0025B2 5800 B74C            0074C 18170                       L     R0,CPFBKLNO
 0025B6 D603 B748 B748_00748 00748 18171                       IF    ((CPBLKACT,Z),OR,(CPVFHIDE)),BEGIN
 0025C8 5800 71AA            0275C 18201  1                      L     R0,=F'-1000'
 0025CC                            18202                       END
 0025CC 5000 6000            00000 18206                       ST    R0,MSLLNO
 0025D0 58E0 719A/0DEE       0274C 18207                       ACALL DOINCR
 0025D6 18D8/9808 D004_            18211                       PEND  ,
 DROP   *,R7
                                   18231              *
                                   18232              *
 0025E4 50E0 D000/9008_      00000 18233              MSMLBLK  PROC  ,
 USING  *,R7
 0025FE 5800 B750            00750 18272                       L     R0,CPLBKLNO
 002602 D603 B748 B748_00748 00748 18273                       IF    ((CPBLKACT,Z),OR,(CPVFHIDE)),BEGIN
 002614 5800 715E            0275C 18303  1                      L     R0,=F'-1000'
 002618                            18304                       END
 002618 5000 6000            00000 18308                       ST    R0,MSLLNO
 00261C 58E0 714E/0DEE       0274C 18309                       ACALL DOINCR
 002622 18D8/9808 D004_            18313                       PEND  ,
 DROP   *,R7
                                   18333              *
                                   18334              *
 002630 50E0 D000/9008_      00000 18335              MSMRETN  PROC  ,
 USING  *,R7
 00264A 5800 B764            00764 18374                       L     R0,CPRETURN
 00264E 5000 6000            00000 18375                       ST    R0,MSLLNO
 002652 58E0 7102/0DEE       0274C 18376                       ACALL DOINCR
 002658 18D8/9808 D004_            18380                       PEND  ,
 DROP   *,R7
                                   18400              *
                                   18401              *
 002666 50E0 D000/9008_      00000 18402              MSMATTN  PROC  ,
 USING  *,R7
 002680 5800 B89C            0089C 18441                       L     R0,CPEXATTN
 002684 1200/4770 701C             18442                       IF    (R0,Z),BEGIN
 00268A 4110 7156/4100_      027D6 18456  1                      SCSEG 'ATTN line number not set.'
 00269C                            18468                       END
1SCAN     (SCAN2025) (12:54) (15MAR04) COMPLEX MATCH ROUTINES                                                               Page   81
0Current Usings:  (NSCNCB,R2) (MSLWA,R6) (*,R7) (CP,R11) (CV,R12)
0Loc    Object Code    Addr1 Addr2  Stmt Lv Lineno    Source Statement           (Hibal 5, Asmedit 3.3)  HLASM R4.0  2004/03/15 12.54
+___    ______ ____    _____ _____  ____ __ ______    ______ _________
000269C 7020/47F0 702A 0269C 02688 18472                       ELSE  BEGIN
 0026A0 5000 6000            00000 18483  1                      ST    R0,MSLLNO
 0026A4 58E0 70CC/0DEE       0274C 18484  1                      ACALL DOINCR
 0026AA                            18488                       END
 0026AA 18D8/9808 D004_            18492                       PEND  ,
 DROP   *,R7
                                   18512              *
                                   18513              *
 0026B8 50E0 D000/9008_      00000 18514              MSMABRT  PROC  ,
 USING  *,R7
 0026D2 5800 B898            00898 18553                       L     R0,CPEXABRT
 0026D6 1200/4770 701C             18554                       IF    (R0,Z),BEGIN
 0026DC 4110 70C0/4100_      02792 18568  1                      SCSEG 'ABORT line number not set.'
 0026EE                            18580                       END
 0026EE 7020/47F0 702A 026EE 026DA 18584                       ELSE  BEGIN
 0026F2 5000 6000            00000 18595  1                      ST    R0,MSLLNO
 0026F6 58E0 707A/0DEE       0274C 18596  1                      ACALL DOINCR
 0026FC                            18600                       END
 0026FC 18D8/9808 D004_            18604                       PEND  ,
 DROP   *,R7
                                   18624              *
                                   18625              *
 00270A 50E0 D000/9008_      00000 18626              MSMNOMAT PROC  ,                   NO MATCH
 USING  *,R7
 002724 41F0 0008            00008 18665                       LA    R15,8               SET SCAN RESTORE FLAG
 002728 18D8/9808 D004_            18666                       PEND  ,                   QUIT SCAN
 DROP   *,R7
1SCAN     (SCAN2025) (12:54) (15MAR04) COMPLEX MATCH ROUTINES                                                               Page   82
0Current Usings:  (NSCNCB,R2) (MSLWA,R6) (CP,R11) (CV,R12)
0Loc    Object Code    Addr1 Addr2  Stmt Lv Lineno    Source Statement           (Hibal 5, Asmedit 3.3)  HLASM R4.0  2004/03/15 12.54
+___    ______ ____    _____ _____  ____ __ ______    ______ _________
0                                  18687                       QLTORG
1SCAN     (SCAN2025) (12:54) (15MAR04) COMPLEX MATCH ROUTINES                                                               Page   83
0Current Usings:  (NSCNCB,R2) (MSLWA,R6) (CP,R11) (CV,R12)
0Loc    Object Code    Addr1 Addr2  Stmt Lv Lineno    Source Statement           (Hibal 5, Asmedit 3.3)  HLASM R4.0  2004/03/15 12.54
+___    ______ ____    _____ _____  ____ __ ______    ______ _________
0                                  18723              *
                                   18724              **
                                   18725              **  DO INCR
                                   18726              **
                                   18727              **  ALLOW ONE INCREMENT (DECREMENT) FOR SYMBOLIC LINE NUMBER
                                   18728              **
                                   18729              **  ON EXIT:
                                   18730              **    R15 - 4 IF ALL OK, NEG - IF ERROR
                                   18731              **
                                   18732              **  NOTE!
                                   18733              **  SET R15 TO 4 IF ALL OK (IF GOOD INCR OR NO INCR)
                                   18734              **
                                   18735              *
 0027F0 50E0 D000/9008_      00000 18736              DOINCR   PROC ,
 USING  *,R7
                                   18775
                                   18776                       COMMENT                   SAVE SCAN
 00280A 58E0 B08C/D2AF_      0008C 18777                       SCPUSH ,
                                   18783
                                   18784                       COMMENT                   SCAN FOR INCRMENT/DECREMENT
 002818 5810 B08C/1B00_      0008C 18785                       SCAN  INCRPRT
 00286A 59F0 7466/4770_      02C70 18817                       IF    (R15,EQ,8),BEGIN
 002872 58E0 B08C/4BD0_      0008C 18834  1                      SCPOP ,
 002880 41F0 0004            00004 18840  1                      LA    R15,4
 002884                            18841                       END
                                   18845
 002884 18D8/9808 D004_            18846                       PEND  ,
 DROP   *,R7
                                   18866              *
                                   18867              *  INCR SCKWS
                                   18868              *
 002894 4E40404040404040_          18869              INCRPRT  SCKW +,MSMINCR
 0028BC 6040404040404040_          18884                       SCKW -,MSMDECR
 0028E4 4040404040404040_          18899                       SCKW ,MSMNOINC,NULL
 00290C 4040404040404040_          18914                       SCKW ,MSMNOINC
                                   18929
 002934 4040404040404040_          18930              IVALPRT  SCKW ,MSMIVAL,LN
 00295C C4C5D3E3C1404040_          18945                       SCKW DELTA,MSMDELTA,A
 002984 4040404040404040_          18960                       SCKW ,MSMBADVL,NULL
 0029AC 4040404040404040_          18975                       SCKW ,MSMBADVL
                                   18990              *
                                   18991              *
 0029D4 50E0 D000/9008_      00000 18992              MSMINCR  PROC  ,
 USING  *,R7
 0029EE 5810 B08C/1B00_      0008C 19031                       SCAN  IVALPRT
 002A40 59F0 728A/4770_      02C78 19063                       IF    (R15,EQ,4),BEGIN
 002A48 5800 6000            00000 19080  1                      L     R0,MSLLNO
 002A4C 5A00 6008            00008 19081  1                      A     R0,MSLINCR
 002A50 5000 6000            00000 19082  1                      ST    R0,MSLLNO
 002A54 1200/4740 7074_            19083  1                      IF    ((R0,NEG),OR,(R0,GT,CVMAXLNO)),BEGIN
 002A62 58E0 728E/0DEE       02C7C 19113  2                        ACALL MSBADVAL
 002A68                            19117  1                      END
 002A68                            19121                       END
 002A68 18D8/9808 D004_            19125                       PEND  ,
1SCAN     (SCAN2025) (12:54) (15MAR04) COMPLEX MATCH ROUTINES                                                               Page   84
0Current Usings:  (NSCNCB,R2) (MSLWA,R6) (CP,R11) (CV,R12)
0Loc    Object Code    Addr1 Addr2  Stmt Lv Lineno    Source Statement           (Hibal 5, Asmedit 3.3)  HLASM R4.0  2004/03/15 12.54
+___    ______ ____    _____ _____  ____ __ ______    ______ _________
0DROP   *,R7
                                   19145              *
                                   19146              *
 002A76 50E0 D000/9008_      00000 19147              MSMDECR  PROC  ,
 USING  *,R7
 002A90 5810 B08C/1B00_      0008C 19186                       SCAN  IVALPRT
 002AE2 59F0 71E8/4770_      02C78 19218                       IF    (R15,EQ,4),BEGIN
 002AEA 5800 6000            00000 19235  1                      L     R0,MSLLNO
 002AEE 5B00 6008            00008 19236  1                      S     R0,MSLINCR
 002AF2 5000 6000            00000 19237  1                      ST    R0,MSLLNO
 002AF6 1200/4740 7074_            19238  1                      IF    ((R0,NEG),OR,(R0,GT,CVMAXLNO)),BEGIN
 002B04 58E0 71EC/0DEE       02C7C 19268  2                        ACALL MSBADVAL
 002B0A                            19272  1                      END
 002B0A                            19276                       END
 002B0A 18D8/9808 D004_            19280                       PEND  ,
 DROP   *,R7
                                   19300              *
                                   19301              *
 002B18 50E0 D000/9008_      00000 19302              MSMNOINC PROC  ,
 USING  *,R7
 002B32 41F0 0008            00008 19341                       LA    R15,8
 002B36 18D8/9808 D004_            19342                       PEND  ,
 DROP   *,R7
                                   19362              *
                                   19363              *
 002B44 50E0 D000/9008_      00000 19364              MSMDELTA PROC  ,
 USING  *,R7
 002B5E 5800 B738            00738 19403                       L     R0,CPDELTA
 002B62 5000 6008            00008 19404                       ST    R0,MSLINCR
 002B66 41F0 0004            00004 19405                       LA    R15,4
 002B6A 18D8/9808 D004_            19406                       PEND  ,
 DROP   *,R7
                                   19426              *
                                   19427              *
 002B78 50E0 D000/9008_      00000 19428              MSMIVAL  PROC  ,
 USING  *,R7
 002B92 5000 6008            00008 19467                       ST    R0,MSLINCR
 002B96 58E0 70EE/0DEE       02C80 19468                       ACALL DODELTA
 002B9C 5000 6004            00004 19472                       ST    R0,MSLDELTA
 002BA0 41F0 0004            00004 19473                       LA    R15,4
 002BA4 18D8/9808 D004_            19474                       PEND  ,
 DROP   *,R7
                                   19494              *
                                   19495              *
 002BB2 50E0 D000/9008_      00000 19496              MSMBADVL PROC  ,
 USING  *,R7
 002BCC 58E0 70B0/0DEE       02C7C 19535                       ACALL MSBADVAL
 002BD2 18D8/9808 D004_            19539                       PEND  ,
 DROP   *,R7
 DROP   MSLWA,R6                   19559                       DROP  R6
1SCAN     (SCAN2025) (12:54) (15MAR04) COMPLEX MATCH ROUTINES                                                               Page   85
0Current Usings:  (NSCNCB,R2) (CP,R11) (CV,R12)
0Loc    Object Code    Addr1 Addr2  Stmt Lv Lineno    Source Statement           (Hibal 5, Asmedit 3.3)  HLASM R4.0  2004/03/15 12.54
+___    ______ ____    _____ _____  ____ __ ______    ______ _________
0                                  19567              *
                                   19568              **
                                   19569              **  DODELTA
                                   19570              **
                                   19571              **  INSPECT SCANNED NUMBER AND FIGURE DELTA ...
                                   19572              **  (EG. 123.1 => DELTA = .1;  2.003 => DELTA = .001;
                                   19573              **       12 => DELTA = CPDELTA )
                                   19574              **
                                   19575              **  ON ENTRY:
                                   19576              **    R2 - SCAN CONTROL BLOCK
                                   19577              **  ON EXIT:
                                   19578              **    R0 - DELTA
                                   19579              **
                                   19580              **
                                   19581              *
 002BE0 50E0 D000/9008_      00000 19582              DODELTA  PROC ,
 USING  *,R7
                                   19621                       USING NSCNCB,R2
                                   19623
                                   19624                       COMMENT                   SCAN NUMBER UNTIL '.'
 002BFA 5800 2014            00014 19625                       L     R0,NSCNTLEN
 002BFE 5810 2010            00010 19626                       L     R1,NSCNTLOC
 002C02 1200/47D0 7020_            19627                       WHILE ((R0,POS),AND,(@R1,NE,'.')),BEGIN
 002C10 5E10 708A            02C84 19658  1                      INCR  R1
 002C14 0600                       19661  1                      DECR  R0
 002C16 47F0 7008            02C02 19663                       END
                                   19668
                                   19669                       COMMENT                   SKIP '.'
 002C1A 5E10 708A            02C84 19670                       INCR  R1
 002C1E 0600                       19673                       DECR  R0                  R0 = # OF TRAILING CHARS
                                   19675                       COMMENT ,                 (ASSUME THEY ARE ALL NUMBERS !)
                                   19676
                                   19677                       COMMENT                   FIGURE DELTA
 002C20 5900 708E/4750_      02C88 19678                       IF    (R0,GE,3),BEGIN
 002C28 4100 0001            00001 19695  1                      LA    R0,1
 002C2C                            19696                       END
 002C2C 7036/47F0 7042_02C2C 02C26 19700                       ELSEIF (R0,EQ,2),BEGIN
 002C38 4100 000A            0000A 19726  1                      LA    R0,10
 002C3C                            19727                       END
 002C3C 7046/47F0 7052_02C3C 02C36 19731                       ELSEIF (R0,EQ,1),BEGIN
 002C48 4100 0064            00064 19757  1                      LA    R0,100
 002C4C                            19758                       END
 002C4C 7056/47F0 705A 02C4C 02C46 19762                       ELSE  BEGIN
 002C50 5800 B738            00738 19773  1                      L     R0,CPDELTA
 002C54                            19774                       END
                                   19778
 002C54 5008 0004            00004 19779                       PRETURN (R0)
 002C58 18D8/9808 D004_            19781                       PEND  ,
 DROP   *,R7
1SCAN     (SCAN2025) (12:54) (15MAR04) COMPLEX MATCH ROUTINES                                                               Page   86
0Current Usings:  (NSCNCB,R2) (CP,R11) (CV,R12)
0Loc    Object Code    Addr1 Addr2  Stmt Lv Lineno    Source Statement           (Hibal 5, Asmedit 3.3)  HLASM R4.0  2004/03/15 12.54
+___    ______ ____    _____ _____  ____ __ ______    ______ _________
0                                  19802                       QLTORG
1SCAN     (SCAN2025) (12:54) (15MAR04) COMPLEX MATCH ROUTINES                                                               Page   87
0Current Usings:  (NSCNCB,R2) (CP,R11) (CV,R12)
0Loc    Object Code    Addr1 Addr2  Stmt Lv Lineno    Source Statement           (Hibal 5, Asmedit 3.3)  HLASM R4.0  2004/03/15 12.54
+___    ______ ____    _____ _____  ____ __ ______    ______ _________
0                                  19827              *
                                   19828              *  MIMPLIED - MATCH IMPLIED LINE NUMBER
                                   19829              *
                                   19830              *  THIS IS THE SAME AS MATCHING A SYMBOLIC LINE NUMBER WITH
                                   19831              *  THE EXCEPTION THAT NO BLANKS ARE ALLOWED IN THE NUMBER.
                                   19832              *  TO SEE WHY, CONSIDER:
                                   19833              *    PUTLINE NEXT +.01
                                   19834              *  THIS WILL PUT '+.01' IN THE NEXT LINE.
                                   19835              *
                                   19836              *  ON ENTRY:
                                   19837              *        STANDARD SCAN MATCH ROUTINE ENTRY/EXIT CONVENTIONS
                                   19838              *        (SEE SCAN MODULE COMMENTS)
                                   19839              *  ON EXIT:
                                   19840              *        R0 - LINE NUMBER, IF MATCH
                                   19841              *
 000000                00000 00470 19842              MIMWA    RECORD BEGIN
 000000                            19850  1           MIMLNO     DS    F
 000004                            19851  1           MIMFLOC    DS    F                   LINE FIELD LOC
 000008                            19852  1           MIMFLEN    DS    F                   LINE FIELD LEN
 00000C                            19853  1           MIMSKIP    DS    256X
 00010C                            19854  1           MIMSTOP    DS    256X
 00020C                            19855  1           MIMMSG     DS    256C
 00030C                            19856  1           MIMMSGL    DS    F
 000310                            19857  1           MIMNOMAT   DS    XL(L'NSCNCB)        SCAN CB STATE IF NO MATCH
 0003C0                            19858  1           MIMMAT     DS    XL(L'NSCNCB)        SCAN CB STATE IF MATCH
 000470                00470 00470 19859                       END
                                   19868              *
                                   19869              *
 002C94 50E0 D000/9008_      00000 19870              MIMPLIED XPROC MIMWA
 USING  *,R7
 USING  MIMWA-(4+36),R8
                                   19921                       USING NSCNCB,R2
 002CAE 4160 8028            00000 19923                       LA    R6,MIMWA
 USING  MIMWA,R6                   19924                       USING MIMWA,R6
 002CB2 58E0 B08C/D2AF_      0008C 19933                       SCSAVE AREA=MIMNOMAT      SAVE SCAN STUFF
                                   19942
                                   19943                       COMMENT                   SCAN LINE NUMBER FIELD
 002CBE 58E0 B08C/58FE_      0008C 19944                       SCBKUP
 002CF4 5810 B08C/1B00_      0008C 20000                       SCANSTR ,                 ALLOW ODD CHARS IN SCAN
 002D3A 12FF/4780 70A6             20029                       IF    (R15,NZ),BEGIN      IF ERR, NO MATCH
 002D40 58E0 B08C/D2AF_      0008C 20043  1                      SCRSTR AREA=MIMNOMAT
 002D4C 41F0 0004            00004 20052  1                      LA    R15,4
 002D50 47F0 7178            02E26 20053  1                      EXIT MIMPLIED
 002D54                            20056                       END
 002D54 58E0 B08C/D2AF_      0008C 20060                       SCSAVE AREA=MIMMAT
 002D60 5010 6004            00004 20069                       ST    R1,MIMFLOC
 002D64 5000 6008            00008 20070                       ST    R0,MIMFLEN
                                   20071
                                   20072                       COMMENT                   SCAN LNO FIELD FOR LNO VALUE
 002D68 58E0 B08C/501E_      0008C 20073                       SCINIT (R1),(R0)
 002D76 5810 B08C/1B00_      0008C 20093                       SCAN  MIMPRT
 002DC8 12FF/47B0 7140             20125                       IF    (R15,NEG),BEGIN     IF ERROR,
 002DCE 5830 205C            0005C 20139  1                      L     R3,NSCNMSGL         DO NOT CLOBBER ERROR MSG
 002DD2 5030 636C            0036C 20140  1                      ST    R3,MIMNOMAT+(NSCNMSGL-NSCNCB)
1SCAN     (SCAN2025) (12:54) (15MAR04) COMPLEX MATCH ROUTINES                                                               Page   88
0Current Usings:  (NSCNCB,R2) (MIMWA,R6) (*,R7) (MIMWA-(4+36),R8) (CP,R11) (CV,R12)
0Loc    Object Code    Addr1 Addr2  Stmt Lv Lineno    Source Statement           (Hibal 5, Asmedit 3.3)  HLASM R4.0  2004/03/15 12.54
+___    ______ ____    _____ _____  ____ __ ______    ______ _________
0002DD6 0630/1233/4740_            20141  1                      MOVE  R3,MIMNOMAT+(NSCNMSG-NSCNCB),NSCNMSG
 002DE2 58E0 B08C/D2AF_      0008C 20179  1                      SCRSTR AREA=MIMNOMAT
 002DEE                            20188                       END
 002DEE 7144/47F0 7156_02DEE 02DCC 20192                       ELSEIF (R15,POS),BEGIN    IF NO MATCH
 002DF8 58E0 B08C/D2AF_      0008C 20215  1                      SCRSTR AREA=MIMNOMAT
 002E04                            20224                       END
 002E04 715A/47F0 7178_02E04 02DF6 20228                       ELSEIF (R15,Z),BEGIN       GOT MATCH
 002E0E 58E0 B08C/D2AF_      0008C 20251  1                      SCRSTR AREA=MIMMAT
 002E1A 5800 6000            00000 20260  1                      L     R0,MIMLNO
 002E1E 1B11                       20261  1                      CLEAR R1
 002E20 9001 8004            00004 20265  1                      PRETURN (R0,R1)
 002E24 1BFF                       20267  1                      CLEAR R15
 002E26                            20271                       END
 002E26 18D8/9808 D004_            20275                       PEND  ,
 DROP   MIMWA-(4+36),R8
 DROP   *,R7
 DROP   NSCNCB,R2                  20300                       DROP  R2
                                   20307              *
                                   20308              *
                                   20309              *
 002E34 4040404040404040_          20310              MIMPRT   SCKW ,MIMNOTLN,NULL
 002E5C 4040404040404040_          20325                       SCKW ,MIMSYMLN,SYMLN
 002E84 4040404040404040_          20340                       SCKW ,MIMNOTLN
                                   20355
 002EAC 50E0 D000/9008_      00000 20356              MIMNOTLN PROC  ,
 USING  *,R7
 002EC6 41F0 0004            00004 20395                       LA    R15,4
 002ECA 18D8/9808 D004_            20396                       PEND  ,
 DROP   *,R7
                                   20416
 002ED8 50E0 D000/9008_      00000 20417              MIMSYMLN PROC  ,
 USING  *,R7
 002EF2 5000 6000            00000 20456                       ST    R0,MIMLNO
                                   20457                       COMMENT                   CHECK FOR JUNK AFTER LNO
 002EF6 5810 B08C/1B00_      0008C 20458                       SCAN ,
 002F44 12FF/4770 705E_            20489                       IF    ((R15,NZ),OR,(R0,NZ)),BEGIN
 002F50 58E0 B08C/D703_      0008C 20516  1                      SCSEGCLR
 002F5C 5810 6004            00004 20525  1                      L     R1,MIMFLOC
 002F60 5800 6008            00008 20526  1                      L     R0,MIMFLEN
 002F64 5820 B08C/58E0_      0008C 20527  1                      SCSEG (R1),(R0)
 002F6E 4110 73DC/4100_      032CE 20545  1                      SCSEG ': invalid line number. Unable to evaluate.'
 002F80 58F0 7396            03288 20557  1                      L     R15,=F'-1'
 002F84                            20558                       END
 002F84 7096/47F0 7098 02F84 02F4E 20562                       ELSE  BEGIN
 002F88 1BFF                       20573  1                      CLEAR R15
 002F8A                            20577                       END
 002F8A 18D8/9808 D004_            20581                       PEND  ,
 DROP   *,R7
 DROP   MIMWA,R6                   20601                       DROP  R6
1SCAN     (SCAN2025) (12:54) (15MAR04) COMPLEX MATCH ROUTINES                                                               Page   89
0Current Usings:  (CP,R11) (CV,R12)
0Loc    Object Code    Addr1 Addr2  Stmt Lv Lineno    Source Statement           (Hibal 5, Asmedit 3.3)  HLASM R4.0  2004/03/15 12.54
+___    ______ ____    _____ _____  ____ __ ______    ______ _________
0                                  20609              *
                                   20610              **
                                   20611              **  MCOLS - MATCH NNN[/NNN] COLUMN SPECIFICATION
                                   20612              **
                                   20613              **  STANDARD MATCH INPUT OUTPUT CONVENTIONS.
                                   20614              **
                                   20615              **  ON EXIT:
                                   20616              **    R0 - FIRST COL
                                   20617              **    R1 - SECOND COL (0 IF NONE)
                                   20618              **
                                   20619              **
                                   20620              **
                                   20621              *
 000000                00000 00008 20622              MCOLWA   RECORD BEGIN
 000000                            20630  1           MCOLCOL1   DS    F
 000004                            20631  1           MCOLCOL2   DS    F
 000008                00008 00008 20632                       END
                                   20641              *
                                   20642              *
 002F98 50E0 D000/9008_      00000 20643              MCOLS    XPROC MCOLWA
 USING  *,R7
 USING  MCOLWA-(4+36),R8
 USING  NSCNCB,R2                  20694                       USING NSCNCB,R2
 002FB2 4160 8028            00000 20703                       LA    R6,MCOLWA
 USING  MCOLWA,R6                  20704                       USING MCOLWA,R6
 002FB6 D707 6000 6000 00000 00000 20713                       CLEAR MCOLWA
                                   20720
                                   20721                       COMMENT                   IF NOT NUMBER, NO MATCH
 002FBC 9120 2018/4710_00018       20722                       IF    (~NSCNFINT),BEGIN
 002FC4 41F0 0004            00004 20737  1                      LA    R15,4
 002FC8                            20738                       END
                                   20742
                                   20743                       COMMENT                   IF NUMBER, SCAN FOR COL 2
 002FC8 9120 2018/47E0_00018       20744                       IF    NSCNFINT,BEGIN
 002FD0 D203 6000 201C 00000 0001C 20759  1                      MVC   MCOLCOL1,NSCNTVAL
 002FD6 58E0 B08C/D2AF_      0008C 20760  1                      SCPUSH
 002FE4 5810 B08C/1B00_      0008C 20766  1                      SCAN  MCOLPRT
 003036 12FF/47B0 708E             20798  1                      IF    (R15,NEG),BEGIN
 00303C 47F0 712E            030E0 20812  2                        B     MCOLDONE
 003040                            20813  1                      END
 003040 12FF/4770 7096_            20817  1                      IF    (R15,Z),' BOMB '
 003048 59F0 72DE/4770_      03290 20838  1                      IF    (R15,EQ,4),BEGIN       NOT FOUND/ FOUND
 003050 1BFF                       20855  2                        CLEAR R15
 003052                            20859  1                      END
 003052 59F0 72E2/4770_      03294 20863  1                      IF    (R15,EQ,8),BEGIN    RESTORE
 00305A 58E0 B08C/4BD0_      0008C 20880  2                        SCPOP
 003068 1BFF                       20886  2                        CLEAR R15
 00306A                            20890  1                      END
                                   20894  1
                                   20895  1                      COMMENT                   VALIDITY CHECK COLS
 00306A 5800 6000            00000 20896  1                      L     R0,MCOLCOL1
 00306E 5810 6004            00004 20897  1                      L     R1,MCOLCOL2
 003072 1200/47D0 70CE_            20898  1                      IF    ((R0,NP),OR,(R0,GT,&LINESZ)),BEGIN
 003080 4110 7348/4100_      032FA 20928  2                        SCSEG 'Invalid column specification. (too large or small)'
1SCAN     (SCAN2025) (12:54) (15MAR04) COMPLEX MATCH ROUTINES                                                               Page   90
0Current Usings:  (NSCNCB,R2) (MCOLWA,R6) (*,R7) (MCOLWA-(4+36),R8) (CP,R11) (CV,R12)
0Loc    Object Code    Addr1 Addr2  Stmt Lv Lineno    Source Statement           (Hibal 5, Asmedit 3.3)  HLASM R4.0  2004/03/15 12.54
+___    ______ ____    _____ _____  ____ __ ______    ______ _________
0003092 47F0 712E            030E0 20940  2                        B     MCOLDONE
 003096                            20941  1                      END
 003096 1211/4740 70F2_            20945  1                      IF    ((R1,NEG),OR,(R1,GT,&LINESZ)),BEGIN
 0030A4 4110 7348/4100_      032FA 20975  2                        SCSEG 'Invalid column specification. (too large or small)'
 0030B6 47F0 712E            030E0 20987  2                        B     MCOLDONE
 0030BA                            20988  1                      END
 0030BA 1211/4780 712A_            20992  1                      IF    ((R1,NZ),AND,(R1,LT,R0)),BEGIN
 0030C6 4110 737A/4100_      0332C 21020  2                        SCSEG 'Invalid column specification. '
 0030D8 47F0 712E            030E0 21032  2                        B     MCOLDONE
 0030DC                            21033  1                      END
                                   21037  1
                                   21038  1                      COMMENT                   ALL OK, RETURN COLS
 0030DC 9001 8004            00004 21039  1                      PRETURN (R0,R1)
 0030E0                            21041                       END
                                   21045
 0030E0                            21046              MCOLDONE LABEL ,
 0030E0 18D8/9808 D004_            21048                       PEND
 DROP   MCOLWA-(4+36),R8
 DROP   *,R7
1SCAN     (SCAN2025) (12:54) (15MAR04) COMPLEX MATCH ROUTINES                                                               Page   91
0Current Usings:  (NSCNCB,R2) (MCOLWA,R6) (CP,R11) (CV,R12)
0Loc    Object Code    Addr1 Addr2  Stmt Lv Lineno    Source Statement           (Hibal 5, Asmedit 3.3)  HLASM R4.0  2004/03/15 12.54
+___    ______ ____    _____ _____  ____ __ ______    ______ _________
0                                  21074              *
                                   21075              *  MATCH COL SCKWS/ROUTINES
                                   21076              *
 0030F0 4040404040404040_          21077              MCOLPRT  SCKW  ,MCNULL,NULL
 003118 6140404040404040_          21092                       SCKW  /,MCSLASH
 003140 4040404040404040_          21107                       SCKW  ,MCOTHER
                                   21122
 003168 50E0 D000/9008_      00000 21123              MCNULL   DPROC ,
 USING  *,R7
 003182 41F0 0008            00008 21163                       LA    R15,8
 003186 18D8/9808 D004_            21164                       PEND
 DROP   *,R7
                                   21184
 003194 50E0 D000/9008_      00000 21185              MCOTHER  DPROC ,
 USING  *,R7
 0031AE 41F0 0008            00008 21225                       LA    R15,8
 0031B2 18D8/9808 D004_            21226                       PEND
 DROP   *,R7
                                   21246
 0031C0 50E0 D000/9008_      00000 21247              MCSLASH  PROC  ,
 USING  *,R7
 0031DA 5810 B08C/1B00_      0008C 21286                       SCAN
 003228 12FF/4770 708E             21317                       IF    (R15,Z),BEGIN
 00322E 9180 2018/47E0_00018       21331  1                      IF    NSCNFNUL,BEGIN
 003236 4110 70C2/4100_      0329C 21346  2                        SCSEG '/: invalid.  Missing column2 specification. '
 003248                            21358  1                      END
 003248 7072/47F0 7080_03248 03234 21362  1                      ELSEIF    ~NSCNFINT,BEGIN
 003254 58E0 70EE/0DEE       032C8 21386  2                        ACALL BADTOKEN
 00325A                            21390  1                      END
 00325A 7084/47F0 708E 0325A 03252 21394  1                      ELSE  BEGIN
 00325E D203 6004 201C 00004 0001C 21405  2                        MVC   MCOLCOL2,NSCNTVAL
 003264 41F0 0004            00004 21406  2                        LA    R15,4
 003268                            21407  1                      END
 003268                            21411                       END
 003268 18D8/9808 D004_            21415                       PEND  ,
 DROP   *,R7
 DROP   MCOLWA,R6                  21435                       DROP  R6
1SCAN     (SCAN2025) (12:54) (15MAR04) COMPLEX MATCH ROUTINES                                                               Page   92
0Current Usings:  (NSCNCB,R2) (CP,R11) (CV,R12)
0Loc    Object Code    Addr1 Addr2  Stmt Lv Lineno    Source Statement           (Hibal 5, Asmedit 3.3)  HLASM R4.0  2004/03/15 12.54
+___    ______ ____    _____ _____  ____ __ ______    ______ _________
0                                  21443                       QLTORG
1SCAN     (SCAN2025) (12:54) (15MAR04) COMPLEX MATCH ROUTINES                                                               Page   93
0Current Usings:  (NSCNCB,R2) (CP,R11) (CV,R12)
0Loc    Object Code    Addr1 Addr2  Stmt Lv Lineno    Source Statement           (Hibal 5, Asmedit 3.3)  HLASM R4.0  2004/03/15 12.54
+___    ______ ____    _____ _____  ____ __ ______    ______ _________
0                                  21472              *
                                   21473              **
                                   21474              **  BUILD MISMATCHED PARENTHISIS OR QUOTES MESSAGE
                                   21475              **
                                   21476              **  ON ENTRY:
                                   21477              **    R2 - SCAN CB
                                   21478              **
                                   21479              **  ON EXIT
                                   21480              **    ERROR MSG PLACED INTO SCAN CB
                                   21481              **    R15 - NEG CC
                                   21482              **
                                   21483              *
 003350 50E0 D000/9008_      00000 21484              BADPAREN PROC
 USING  *,R7
                                   21523                       USING NSCNCB,R2
                                   21525
                                   21526                       COMMENT                   BUILD MSG
 00336A 5810 2010            00010 21527                       L     R1,NSCNTLOC         BAD INT STRING
 00336E 5800 2014            00014 21528                       L     R0,NSCNTLEN         BAD INT STRING LEN
 003372 5900 721E/47D0_      03588 21529                       CEIL  R0,32               Not too long now
 00337E 5820 B08C/58E0_      0008C 21548                       SCSEG (R1),(R0)
 003388 5810 2010            00010 21566                       L     R1,NSCNTLOC
 00338C 954D 1000/4770_00000       21567                       IF    (@R1,EQ,'('),BEGIN
 003394 4110 72AC/4100_      03616 21583  1                      SCSEG ': invalid.  Mismatched parenthesis.'
 0033A6                            21595                       END
 0033A6 7040/47F0 7052 033A6 03392 21599                       ELSE  BEGIN
 0033AA 4110 72CF/4100_      03639 21610  1                      SCSEG ': invalid.  Mismatched quotes.     '
 0033BC                            21622                       END
                                   21626
 0033BC 58F0 7226            03590 21627                       L     R15,=F'-4'
 0033C0 18D8/9808 D004_            21628                       PEND
 DROP   *,R7
 DROP   NSCNCB,R2                  21648                       DROP  R2
1SCAN     (SCAN2025) (12:54) (15MAR04) COMPLEX MATCH ROUTINES                                                               Page   94
0Current Usings:  (CP,R11) (CV,R12)
0Loc    Object Code    Addr1 Addr2  Stmt Lv Lineno    Source Statement           (Hibal 5, Asmedit 3.3)  HLASM R4.0  2004/03/15 12.54
+___    ______ ____    _____ _____  ____ __ ______    ______ _________
0                                  21656              *
                                   21657              **
                                   21658              **  BADTOKEN - ADD '<TOKEN>: invalid.' MSG TO SCANCB
                                   21659              **    MESSAGE BUFFER.
                                   21660              **
                                   21661              **  PLACE MSG IN SCAN CB AND RETURN R15 = -4
                                   21662              **
                                   21663              **
                                   21664              *
 0033CE 50E0 D000/9008_      00000 21665              BADTOKEN PROC ,
 USING  *,R7
 USING  NSCNCB,R2                  21704                       USING NSCNCB,R2
                                   21713
                                   21714                       COMMENT                   R1,R3 - TOKEN LOC,LEN
 0033E8 5810 2010            00010 21715                       L     R1,NSCNTLOC
 0033EC 5800 2014            00014 21716                       L     R0,NSCNTLEN
 0033F0 5820 B08C/58E0_      0008C 21717                       SCSEG (R1),(R0)
 0033FA 4110 7224/4100_      0360C 21735                       SCSEG ': invalid.'
                                   21747
 00340C 58F0 71A8            03590 21748                       L     R15,=F'-4'
 003410 18D8/9808 D004_            21749                       PEND  ,
 DROP   *,R7
 DROP   NSCNCB,R2                  21769                       DROP  R2
1SCAN     (SCAN2025) (12:54) (15MAR04) COMPLEX MATCH ROUTINES                                                               Page   95
0Current Usings:  (CP,R11) (CV,R12)
0Loc    Object Code    Addr1 Addr2  Stmt Lv Lineno    Source Statement           (Hibal 5, Asmedit 3.3)  HLASM R4.0  2004/03/15 12.54
+___    ______ ____    _____ _____  ____ __ ______    ______ _________
0                                  21777              *
                                   21778              **
                                   21779              **  BUILD MISSING PARM ERR MSG
                                   21780              **  FIND ERROR KW ENTRY, IF ANY
                                   21781              **
                                   21782              **  ON ENTRY:
                                   21783              **    R2 - SCAN CB
                                   21784              **    R4 - PARM KEYWORD
                                   21785              **    R5 - PARM KEYWORD LENGTH
                                   21786              **
                                   21787              **  ON EXIT
                                   21788              **    ERROR MSG PLACED INTO SCAN CB
                                   21789              **    R15 - NEG CC
                                   21790              **
                                   21791              *
 00341E 50E0 D000/9008_      00000 21792              MISSPARM PROC
 USING  *,R7
 USING  NSCNCB,R2                  21831                       USING NSCNCB,R2
                                   21840
                                   21841                       COMMENT                   BUILD MSG
 003438 1814                       21842                       LR    R1,R4
 00343A 1805                       21843                       LR    R0,R5
 00343C 5820 B08C/58E0_      0008C 21844                       SCSEG (R1),(R0)
 003446 4110 715C/4100_      03594 21862                       SCSEG ': Missing operand.  '
                                   21874
 003458 58F0 7158            03590 21875                       L     R15,=F'-4'
 00345C 18D8/9808 D004_            21876                       PEND
 DROP   *,R7
 DROP   NSCNCB,R2                  21896                       DROP  R2
1SCAN     (SCAN2025) (12:54) (15MAR04) COMPLEX MATCH ROUTINES                                                               Page   96
0Current Usings:  (CP,R11) (CV,R12)
0Loc    Object Code    Addr1 Addr2  Stmt Lv Lineno    Source Statement           (Hibal 5, Asmedit 3.3)  HLASM R4.0  2004/03/15 12.54
+___    ______ ____    _____ _____  ____ __ ______    ______ _________
0                                  21904              *
                                   21905              **
                                   21906              **  BUILD BAD LINE NUMBER PARM ERR MSG
                                   21907              **
                                   21908              **  ON ENTRY:
                                   21909              **    R2 - SCAN CB
                                   21910              **
                                   21911              **  ON EXIT
                                   21912              **    ERROR MSG PLACED INTO SCAN CB
                                   21913              **    R15 - NEG CC
                                   21914              **
                                   21915              *
 00346A 50E0 D000/9008_      00000 21916              BADLNO   PROC
 USING  *,R7
 USING  NSCNCB,R2                  21955                       USING NSCNCB,R2
                                   21964
                                   21965                       COMMENT                   BUILD MSG
 003484 4110 2040            00040 21966                       LA    R1,NSCNCTOK         BAD LNO STRING
 003488 5800 2050            00050 21967                       L     R0,NSCNTOKL         BAD LNO STRING LEN
 00348C 5820 B08C/58E0_      0008C 21968                       SCSEG (R1),(R0)
 003496 4110 7124/4100_      035A8 21986                       SCSEG ': invalid operand.  Expecting line number.  '
                                   21998
 0034A8 58F0 710C            03590 21999                       L     R15,=F'-4'
 0034AC 18D8/9808 D004_            22000                       PEND
 DROP   *,R7
 DROP   NSCNCB,R2                  22020                       DROP  R2
1SCAN     (SCAN2025) (12:54) (15MAR04) COMPLEX MATCH ROUTINES                                                               Page   97
0Current Usings:  (CP,R11) (CV,R12)
0Loc    Object Code    Addr1 Addr2  Stmt Lv Lineno    Source Statement           (Hibal 5, Asmedit 3.3)  HLASM R4.0  2004/03/15 12.54
+___    ______ ____    _____ _____  ____ __ ______    ______ _________
0                                  22028              *
                                   22029              **
                                   22030              **  BUILD BAD INTEGER PARM ERR MSG
                                   22031              **  FIND ERROR KW ENTRY, IF ANY
                                   22032              **
                                   22033              **  ON ENTRY:
                                   22034              **    R2 - SCAN CB
                                   22035              **
                                   22036              **  ON EXIT
                                   22037              **    ERROR MSG PLACED INTO SCAN CB
                                   22038              **    R15 - NEG CC
                                   22039              **
                                   22040              *
 0034BA 50E0 D000/9008_      00000 22041              BADINT   PROC
 USING  *,R7
 USING  NSCNCB,R2                  22080                       USING NSCNCB,R2
                                   22089
                                   22090                       COMMENT                   BUILD MSG
 0034D4 4110 2040            00040 22091                       LA    R1,NSCNCTOK         BAD INT STRING
 0034D8 5800 2050            00050 22092                       L     R0,NSCNTOKL         BAD INT STRING LEN
 0034DC 5820 B08C/58E0_      0008C 22093                       SCSEG (R1),(R0)
 0034E6 4110 7100/4100_      035D4 22111                       SCSEG ': invalid operand.  '
 0034F8 4110 7114/4100_      035E8 22123                       SCSEG 'Expecting reasonable integer value. '
                                   22135
 00350A 58F0 70BC            03590 22136                       L     R15,=F'-4'
 00350E 18D8/9808 D004_            22137                       PEND
 DROP   *,R7
 DROP   NSCNCB,R2                  22157                       DROP  R2
1SCAN     (SCAN2025) (12:54) (15MAR04) COMPLEX MATCH ROUTINES                                                               Page   98
0Current Usings:  (CP,R11) (CV,R12)
0Loc    Object Code    Addr1 Addr2  Stmt Lv Lineno    Source Statement           (Hibal 5, Asmedit 3.3)  HLASM R4.0  2004/03/15 12.54
+___    ______ ____    _____ _____  ____ __ ______    ______ _________
0                                  22165              *
                                   22166              **
                                   22167              **  MSBADVAL - BAD SYMBOLIC LINE NUMBER
                                   22168              **
                                   22169              **  PLACE MSG IN SCAN CB AND RETURN R15 = -4
                                   22170              **
                                   22171              **
                                   22172              *
 00351C 50E0 D000/9008_      00000 22173              MSBADVAL PROC ,
 USING  *,R7
 USING  NSCNCB,R2                  22212                       USING NSCNCB,R2
 USING  MSLWA,R6                   22221                       USING MSLWA,R6
                                   22230
                                   22231                       COMMENT                   R1,R0 - SYMBOLIC LN LOC, LEN
 003536 5810 600C            0000C 22232                       L     R1,MSLSTART
 00353A 5800 2010            00010 22233                       L     R0,NSCNTLOC
 00353E 5A00 2014            00014 22234                       A     R0,NSCNTLEN
 003542 1B01                       22235                       SR    R0,R1
 003544 5820 B08C/58E0_      0008C 22236                       SCSEG (R1),(R0)
 00354E 4110 7042/4100_      03578 22254                       SCSEG ': invalid value.'  APPEND 'INVALID VALUE'
                                   22266
 003560 58F0 705A            03590 22267                       L     R15,=F'-4'
 003564 18D8/9808 D004_            22268                       PEND  ,
 DROP   *,R7
 DROP   MSLWA,R6                   22288                       DROP  R6
1SCAN     (SCAN2025) (12:54) (15MAR04) COMPLEX MATCH ROUTINES                                                               Page   99
0Current Usings:  (NSCNCB,R2) (CP,R11) (CV,R12)
0Loc    Object Code    Addr1 Addr2  Stmt Lv Lineno    Source Statement           (Hibal 5, Asmedit 3.3)  HLASM R4.0  2004/03/15 12.54
+___    ______ ____    _____ _____  ____ __ ______    ______ _________
0                                  22296                       QLTORG
1SCAN     (SCAN2025) (12:54) (15MAR04) EXEC SYSCALL SCANSTR INTERFACE                                                       Page  100
0Current Usings:  (NSCNCB,R2) (CP,R11) (CV,R12)
0Loc    Object Code    Addr1 Addr2  Stmt Lv Lineno    Source Statement           (Hibal 5, Asmedit 3.3)  HLASM R4.0  2004/03/15 12.54
+___    ______ ____    _____ _____  ____ __ ______    ______ _________
0                                  22320
                                   22321
                                   22322                SCANSTR - SCAN STRING
                                   22323
                                   22324                ON ENTRY:
                                   22325                     R0 - LENGTH OF STRING TO SCAN
                                   22326                     R1 - LOCATION OF STRING TO SCAN
                                   22327                     R2 - LOCATION OF SKIP STRING
                                   22328                     R3 - LENGTH OF SKIP STRING
                                   22329                     R4 - LOCATION OF STOP STRING
                                   22330                     R5 - LENGTH OF STOP STRING
                                   22331
                                   22332                ON EXIT:
                                   22333                     R0 - TOKEN LENGTH
                                   22334                     R1 - TOKEN LOCATION
                                   22335                     R2 - REMAINING STRING LOCATION
                                   22336                     R3 - REMAINING STRING LENGTH
                                   22337                     R4 - TYPE STRING LOCATION
                                   22338                     R5 - TYPE STRING LENGTH
                                   22339                    R15 - CC=ZERO
                                   22340
                                   22341                SEE SYSCALL SCAN DOCUMENTATION FOR DETAILS.
                                   22342                SEE SYSCALL SCAN_PARM DOCUMENTATION FOR DETAILS.
                                   22343
                                   22344

0000000                00000 00230 22345              XSSWA    RECORD BEGIN
 000000                            22353  1           XSSLOC     DS    F                   LOC OF STR TO SCAN
 000004                            22354  1           XSSLEN     DS    F                   LEN OF STR TO SCAN
 000008                            22355  1           XSSTOK     DS    F                   LOC OF TOKEN SCANNED
 00000C                            22356  1           XSSTOKL    DS    F                   LEN OF TOKEN SCANNED
 000010                            22357  1           XSSREM     DS    F                   LOC OF REMAINDER OF STR
 000014                            22358  1           XSSREML    DS    F                   LEN OF REMAINDER OF STR
 000018                            22359  1           XSSTYPE    DS    F                   LOC OF TYPE STR
 00001C                            22360  1           XSSTYPEL   DS    F                   LEN OF TYPE STR
 000020                            22361  1           XSSSKIPS   DS    F                   LOC OF SKIP CONTROL STR
 000024                            22362  1           XSSSKIPL   DS    F                   LEN OF SKIP CONTROL STR
 000028                            22363  1           XSSSKIPT   DS    XL256               TRT TABLE FOR SKIP
 000128                            22364  1           XSSSTOPS   DS    F                   LOC OF STOP CONTROL STR
 00012C                            22365  1           XSSSTOPL   DS    F                   LEN OF STOP CONTROL STR
 000130                            22366  1           XSSSTOPT   DS    XL256               TRT TABLE FOR STOP
 000230                00230 00230 22367                       END
                                   22376              *
                                   22377              *
 00365C 50E0 D000/9008_      00000 22378              SCANSTR  XPROC XSSWA
 USING  *,R7
 USING  XSSWA-(4+36),R8
                                   22429
                                   22430                       COMMENT                   SAVE ENTRY PARMS
 003676 5000 802C            00004 22431                       ST    R0,XSSLEN
 00367A 5010 8028            00000 22432                       ST    R1,XSSLOC
 00367E 5020 8048            00020 22433                       ST    R2,XSSSKIPS
 003682 5030 804C            00024 22434                       ST    R3,XSSSKIPL
1SCAN     (SCAN2025) (12:54) (15MAR04) EXEC SYSCALL SCANSTR INTERFACE                                                       Page  101
0Current Usings:  (NSCNCB,R2) (*,R7) (XSSWA-(4+36),R8) (CP,R11) (CV,R12)
0Loc    Object Code    Addr1 Addr2  Stmt Lv Lineno    Source Statement           (Hibal 5, Asmedit 3.3)  HLASM R4.0  2004/03/15 12.54
+___    ______ ____    _____ _____  ____ __ ______    ______ _________
0003686 5040 8150            00128 22435                       ST    R4,XSSSTOPS
 00368A 5050 8154            0012C 22436                       ST    R5,XSSSTOPL
                                   22437
                                   22438                       COMMENT                   SET UP SKIP TABLE
 00368E 5810 8048            00020 22439                       L     R1,XSSSKIPS
 003692 5800 804C            00024 22440                       L     R0,XSSSKIPL
 003696 4120 8050            00028 22441                       LA    R2,XSSSKIPT
 00369A 58E0 7ACA/0DEE       04140 22442                       ACALL SETSKIP
                                   22446
                                   22447                       COMMENT                   SET UP STOP TABLE
 0036A0 5810 8150            00128 22448                       L     R1,XSSSTOPS
 0036A4 5800 8154            0012C 22449                       L     R0,XSSSTOPL
 0036A8 4120 8158            00130 22450                       LA    R2,XSSSTOPT
 0036AC 58E0 7ACE/0DEE       04144 22451                       ACALL SETSTOP
                                   22455
                                   22456                       COMMENT                   SCAN TOKEN
 0036B2 5800 802C            00004 22457                       L     R0,XSSLEN
 0036B6 5810 8028            00000 22458                       L     R1,XSSLOC
 0036BA 4120 8050            00028 22459                       LA    R2,XSSSKIPT
 0036BE 58E0 7AD2/0DEE       04148 22460                       ACALL TRTSCAN             SCAN PAST SKIP CHARS
 0036C4 5010 8030            00008 22464                       ST    R1,XSSTOK           SAVE START OF TOKEN
 0036C8 4120 8158            00130 22465                       LA    R2,XSSSTOPT
 0036CC 58E0 7AD2/0DEE       04148 22466                       ACALL TRTSCAN             SCAN TO END OF TOKEN
 0036D2 1200/47D0 7070_            22470                       IF    ((R0,POS),AND,(R1,EQ,XSSTOK)),BEGIN
 0036E0 4111 0001            00001 22500  1                      LA    R1,1(R1)            IF START/STOP OF TOKEN ARE SAME
 0036E4 0600                       22501  1                      DECR  R0                  CHAR, THEN STOP IS REALLY +1
 0036E6                            22503                       END
 0036E6 5010 8038            00010 22507                       ST    R1,XSSREM           SAVE REMAINING STRING
 0036EA 5000 803C            00014 22508                       ST    R0,XSSREML          SAVE REMAINING STRING LENGTH
 0036EE 5810 8038            00010 22509                       L     R1,XSSREM
 0036F2 5B10 8030            00008 22510                       S     R1,XSSTOK           CALCULATE TOKEN LENGTH
 0036F6 5010 8034            0000C 22511                       ST    R1,XSSTOKL          SAVE TOKEN LENGTH
                                   22512
                                   22513                       COMMENT                   PROCESS (SCAN) TOKEN TYPES
 0036FA 5810 8030            00008 22514                       L     R1,XSSTOK
 0036FE 5800 8034            0000C 22515                       L     R0,XSSTOKL
 003702 58E0 7AD6/0DEE       0414C 22516                       ACALL XSCNTYPE
 003708 5000 8044            0001C 22520                       ST    R0,XSSTYPEL
 00370C 5010 8040            00018 22521                       ST    R1,XSSTYPE
                                   22522
                                   22523                       COMMENT                   RETURN TOKEN,REMAINDER,TYPE
 003710 5800 8034            0000C 22524                       L     R0,XSSTOKL          R1,R0 - TOKEN LOC, LEN
 003714 5810 8030            00008 22525                       L     R1,XSSTOK
 003718 5820 8038            00010 22526                       L     R2,XSSREM           R2,R3 - REMAINDER LOC, LEN
 00371C 5830 803C            00014 22527                       L     R3,XSSREML
 003720 5840 8040            00018 22528                       L     R4,XSSTYPE          R4,R5 - TYPE LOC,LEN
 003724 5850 8044            0001C 22529                       L     R5,XSSTYPEL
                                   22530
 003728 9005 8004            00004 22531                       PRETURN (R0,R5)
 00372C 1BFF                       22533                       CLEAR R15
 00372E 18D8/9808 D004_            22537                       PEND
 DROP   XSSWA-(4+36),R8
 DROP   *,R7
1SCAN     (SCAN2025) (12:54) (15MAR04) EXEC SYSCALL XSCANSTR INTERFACE                                                      Page  102
0Current Usings:  (NSCNCB,R2) (CP,R11) (CV,R12)
0Loc    Object Code    Addr1 Addr2  Stmt Lv Lineno    Source Statement           (Hibal 5, Asmedit 3.3)  HLASM R4.0  2004/03/15 12.54
+___    ______ ____    _____ _____  ____ __ ______    ______ _________
0                                  22564
                                   22565
                                   22566                XSCANSTR - SCAN STRING
                                   22567
                                   22568                ON ENTRY:
                                   22569                     R0 - LENGTH OF STRING TO SCAN
                                   22570                     R1 - LOCATION OF STRING TO SCAN
                                   22571                     R2 - LOCATION OF SKIP STRING
                                   22572                     R3 - LENGTH OF SKIP STRING
                                   22573                     R4 - LOCATION OF STOP STRING
                                   22574                     R5 - LENGTH OF STOP STRING
                                   22575
                                   22576                ON EXIT:
                                   22577                     R0 - TOKEN LENGTH
                                   22578                     R1 - TOKEN LOCATION
                                   22579                     R2 - REMAINING STRING LOCATION
                                   22580                     R3 - REMAINING STRING LENGTH
                                   22581                     R4 - TYPE STRING LOCATION
                                   22582                     R5 - TYPE STRING LENGTH
                                   22583                    R15 - CC=ZERO
                                   22584
                                   22585                SEE SYSCALL SCAN DOCUMENTATION FOR DETAILS.
                                   22586                SEE SYSCALL SCAN_PARM DOCUMENTATION FOR DETAILS.
                                   22587
                                   22588                Note: This routine differs from the SCANSTR routine
                                   22589                      above (which in my opinion has a bug). If you
                                   22590                      scan a string whose very first character is
                                   22591                      in fact the stop character, then by the
                                   22592                      definition of the SYSCALL SCAN interfaces,
                                   22593                      you should get a NULL token. That doesn't
                                   22594                      happen with SCANSTR above, but too many people
                                   22595                      have probably coded around that to change the
                                   22596                      function of that routine. Thus, we introduce
                                   22597                      this routine, and additional SYSCALL XSCAN
                                   22598                      routines.
                                   22599
                                   22600
                                   22601
                                   22602

000373C 50E0 D000/9008_      00000 22603              XSCANSTR XPROC XSSWA
 USING  *,R7
 USING  XSSWA-(4+36),R8
                                   22654
                                   22655                       COMMENT                   SAVE ENTRY PARMS
 003756 5000 802C            00004 22656                       ST    R0,XSSLEN
 00375A 5010 8028            00000 22657                       ST    R1,XSSLOC
 00375E 5020 8048            00020 22658                       ST    R2,XSSSKIPS
 003762 5030 804C            00024 22659                       ST    R3,XSSSKIPL
 003766 5040 8150            00128 22660                       ST    R4,XSSSTOPS
 00376A 5050 8154            0012C 22661                       ST    R5,XSSSTOPL
                                   22662
                                   22663                       COMMENT                   SET UP SKIP TABLE
1SCAN     (SCAN2025) (12:54) (15MAR04) EXEC SYSCALL XSCANSTR INTERFACE                                                      Page  103
0Current Usings:  (NSCNCB,R2) (*,R7) (XSSWA-(4+36),R8) (CP,R11) (CV,R12)
0Loc    Object Code    Addr1 Addr2  Stmt Lv Lineno    Source Statement           (Hibal 5, Asmedit 3.3)  HLASM R4.0  2004/03/15 12.54
+___    ______ ____    _____ _____  ____ __ ______    ______ _________
000376E 5810 8048            00020 22664                       L     R1,XSSSKIPS
 003772 5800 804C            00024 22665                       L     R0,XSSSKIPL
 003776 4120 8050            00028 22666                       LA    R2,XSSSKIPT
 00377A 58E0 79EA/0DEE       04140 22667                       ACALL SETSKIP
                                   22671
                                   22672                       COMMENT                   SET UP STOP TABLE
 003780 5810 8150            00128 22673                       L     R1,XSSSTOPS
 003784 5800 8154            0012C 22674                       L     R0,XSSSTOPL
 003788 4120 8158            00130 22675                       LA    R2,XSSSTOPT
 00378C 58E0 79EE/0DEE       04144 22676                       ACALL SETSTOP
                                   22680
                                   22681                       COMMENT                   SCAN TOKEN
 003792 5800 802C            00004 22682                       L     R0,XSSLEN
 003796 5810 8028            00000 22683                       L     R1,XSSLOC
 00379A 4120 8050            00028 22684                       LA    R2,XSSSKIPT
 00379E 58E0 79F2/0DEE       04148 22685                       ACALL TRTSCAN             SCAN PAST SKIP CHARS
 0037A4 5010 8030            00008 22689                       ST    R1,XSSTOK           SAVE START OF TOKEN
 0037A8 4120 8158            00130 22690                       LA    R2,XSSSTOPT
 0037AC 58E0 79F2/0DEE       04148 22691                       ACALL TRTSCAN             SCAN TO END OF TOKEN
 0037B2 5010 8038            00010 22695                       ST    R1,XSSREM           SAVE REMAINING STRING
 0037B6 5000 803C            00014 22696                       ST    R0,XSSREML          SAVE REMAINING STRING LENGTH
 0037BA 5810 8038            00010 22697                       L     R1,XSSREM
 0037BE 5B10 8030            00008 22698                       S     R1,XSSTOK           CALCULATE TOKEN LENGTH
 0037C2 5010 8034            0000C 22699                       ST    R1,XSSTOKL          SAVE TOKEN LENGTH
                                   22700
                                   22701                       COMMENT                   PROCESS (SCAN) TOKEN TYPES
 0037C6 5810 8030            00008 22702                       L     R1,XSSTOK
 0037CA 5800 8034            0000C 22703                       L     R0,XSSTOKL
 0037CE 58E0 79F6/0DEE       0414C 22704                       ACALL XSCNTYPE
 0037D4 5000 8044            0001C 22708                       ST    R0,XSSTYPEL
 0037D8 5010 8040            00018 22709                       ST    R1,XSSTYPE
                                   22710
                                   22711                       COMMENT                   RETURN TOKEN,REMAINDER,TYPE
 0037DC 5800 8034            0000C 22712                       L     R0,XSSTOKL          R1,R0 - TOKEN LOC, LEN
 0037E0 5810 8030            00008 22713                       L     R1,XSSTOK
 0037E4 5820 8038            00010 22714                       L     R2,XSSREM           R2,R3 - REMAINDER LOC, LEN
 0037E8 5830 803C            00014 22715                       L     R3,XSSREML
 0037EC 5840 8040            00018 22716                       L     R4,XSSTYPE          R4,R5 - TYPE LOC,LEN
 0037F0 5850 8044            0001C 22717                       L     R5,XSSTYPEL
                                   22718
 0037F4 9005 8004            00004 22719                       PRETURN (R0,R5)
 0037F8 1BFF                       22721                       CLEAR R15
 0037FA 18D8/9808 D004_            22725                       PEND
 DROP   XSSWA-(4+36),R8
 DROP   *,R7
1SCAN     (SCAN2025) (12:54) (15MAR04) EXEC SYSCALL XSCANSTR INTERFACE                                                      Page  104
0Current Usings:  (NSCNCB,R2) (CP,R11) (CV,R12)
0Loc    Object Code    Addr1 Addr2  Stmt Lv Lineno    Source Statement           (Hibal 5, Asmedit 3.3)  HLASM R4.0  2004/03/15 12.54
+___    ______ ____    _____ _____  ____ __ ______    ______ _________
0                                  22751
                                   22752
                                   22753                XSCNPARM - EXEC SCAN_PARM SYSCALL INTERFACE
                                   22754                SCANPARM - SCAN STRING OR PARM
                                   22755
                                   22756                ON ENTRY:
                                   22757                     R0 - LENGTH OF STRING TO SCAN
                                   22758                     R1 - LOCATION OF STRING TO SCAN
                                   22759                     R2 - LOCATION OF SKIP STRING
                                   22760                     R3 - LENGTH OF SKIP STRING
                                   22761                     R4 - LOCATION OF STOP STRING
                                   22762                     R5 - LENGTH OF STOP STRING
                                   22763
                                   22764                ON EXIT:
                                   22765                     R0 - TOKEN LENGTH
                                   22766                     R1 - TOKEN LOCATION
                                   22767                     R2 - REMAINING STRING LOCATION
                                   22768                     R3 - REMAINING STRING LENGTH
                                   22769                     R4 - TYPE STRING LOCATION
                                   22770                     R5 - TYPE STRING LENGTH
                                   22771                    R15 - CC=ZERO
                                   22772
                                   22773                SEE SYSCALL SCAN DOCUMENTATION FOR DETAILS.
                                   22774                SEE SYSCALL SCAN_PARM DOCUMENTATION FOR DETAILS.
                                   22775
                                   22776

0003808 50E0 D000/9008_      00000 22777              SCANPARM XPROC XSSWA
 USING  *,R7
 USING  XSSWA-(4+36),R8
                                   22828
                                   22829                       COMMENT                   SAVE ENTRY PARMS
 003822 5000 802C            00004 22830                       ST    R0,XSSLEN
 003826 5010 8028            00000 22831                       ST    R1,XSSLOC
 00382A 5020 8048            00020 22832                       ST    R2,XSSSKIPS
 00382E 5030 804C            00024 22833                       ST    R3,XSSSKIPL
 003832 5040 8150            00128 22834                       ST    R4,XSSSTOPS
 003836 5050 8154            0012C 22835                       ST    R5,XSSSTOPL
                                   22836
                                   22837                       COMMENT                   SET UP SKIP TABLE
 00383A 5810 8048            00020 22838                       L     R1,XSSSKIPS
 00383E 5800 804C            00024 22839                       L     R0,XSSSKIPL
 003842 4120 8050            00028 22840                       LA    R2,XSSSKIPT
 003846 58E0 791E/0DEE       04140 22841                       ACALL SETSKIP
                                   22845
                                   22846                       COMMENT                   SET UP STOP TABLE
 00384C 5810 8150            00128 22847                       L     R1,XSSSTOPS
 003850 5800 8154            0012C 22848                       L     R0,XSSSTOPL
 003854 4120 8158            00130 22849                       LA    R2,XSSSTOPT
 003858 58E0 7922/0DEE       04144 22850                       ACALL SETSTOP
                                   22854
                                   22855                       COMMENT                   SCAN TOKEN
 00385E 5800 802C            00004 22856                       L     R0,XSSLEN
1SCAN     (SCAN2025) (12:54) (15MAR04) EXEC SYSCALL XSCANSTR INTERFACE                                                      Page  105
0Current Usings:  (NSCNCB,R2) (*,R7) (XSSWA-(4+36),R8) (CP,R11) (CV,R12)
0Loc    Object Code    Addr1 Addr2  Stmt Lv Lineno    Source Statement           (Hibal 5, Asmedit 3.3)  HLASM R4.0  2004/03/15 12.54
+___    ______ ____    _____ _____  ____ __ ______    ______ _________
0003862 5810 8028            00000 22857                       L     R1,XSSLOC
 003866 4120 8050            00028 22858                       LA    R2,XSSSKIPT
 00386A 58E0 7926/0DEE       04148 22859                       ACALL TRTSCAN             SCAN PAST SKIP CHARS
 003870 5010 8030            00008 22863                       ST    R1,XSSTOK           SAVE START OF TOKEN
 003874 4120 8158            00130 22864                       LA    R2,XSSSTOPT
 003878 58E0 7926/0DEE       04148 22865                       ACALL TRTSCAN             SCAN TO END OF TOKEN
 00387E 1200/47D0 7070_            22869                       IF    ((R0,POS),AND,(R1,EQ,XSSTOK)),BEGIN
 00388C 4111 0001            00001 22899  1                      LA    R1,1(R1)            IF START/STOP OF TOKEN ARE SAME
 003890 0600                       22900  1                      DECR  R0                  CHAR, THEN STOP IS REALLY +1
 003892                            22902                       END
 003892 5010 8038            00010 22906                       ST    R1,XSSREM           SAVE REMAINING STRING
 003896 5000 803C            00014 22907                       ST    R0,XSSREML          SAVE REMAINING STRING LENGTH
 00389A 5810 8038            00010 22908                       L     R1,XSSREM
 00389E 5B10 8030            00008 22909                       S     R1,XSSTOK           CALCULATE TOKEN LENGTH
 0038A2 5010 8034            0000C 22910                       ST    R1,XSSTOKL          SAVE TOKEN LENGTH
                                   22911
                                   22912                       COMMENT                   SPECIAL PROCESS QUOTES, PARENS
 0038A6 5810 8030            00008 22913                       L     R1,XSSTOK
 0038AA 954D 1000/4780_00000       22914                       IF    ((@R1,EQ,'('),OR,(@R1,EQ,'"'),OR,(@R1,EQ,'''')),BEGIN
 0038C2 5800 8034            0000C 22958  1                      L     R0,XSSTOKL
 0038C6 5820 8038            00010 22959  1                      L     R2,XSSREM
 0038CA 5830 803C            00014 22960  1                      L     R3,XSSREML
 0038CE 954D 1000/4770_00000       22961  1                      IF    (@R1,EQ,'('),BEGIN
 0038D6 58E0 792E/0DEE       04150 22977  2                        ACALL SCNPAREN
 0038DC                            22981  1                      END
 0038DC 70BE/47F0 70C4 038DC 038D4 22985  1                      ELSE  BEGIN
 0038E0 58E0 7932/0DEE       04154 22996  2                        ACALL SCNQUOTE
 0038E6                            23000  1                      END
 0038E6 5000 8034            0000C 23004  1                      ST    R0,XSSTOKL
 0038EA 5010 8030            00008 23005  1                      ST    R1,XSSTOK
 0038EE 5020 8038            00010 23006  1                      ST    R2,XSSREM
 0038F2 5030 803C            00014 23007  1                      ST    R3,XSSREML
 0038F6                            23008                       END
                                   23012              *
                                   23013              *
                                   23014                       COMMENT                   PROCESS (SCAN) TOKEN TYPES
 0038F6 5810 8030            00008 23015                       L     R1,XSSTOK
 0038FA 5800 8034            0000C 23016                       L     R0,XSSTOKL
 0038FE 58E0 792A/0DEE       0414C 23017                       ACALL XSCNTYPE
 003904 5000 8044            0001C 23021                       ST    R0,XSSTYPEL
 003908 5010 8040            00018 23022                       ST    R1,XSSTYPE
                                   23023
                                   23024                       COMMENT                   RETURN TOKEN,REMAINDER,TYPE
 00390C 5800 8034            0000C 23025                       L     R0,XSSTOKL          R1,R0 - TOKEN LOC, LEN
 003910 5810 8030            00008 23026                       L     R1,XSSTOK
 003914 5820 8038            00010 23027                       L     R2,XSSREM           R2,R3 - REMAINDER LOC, LEN
 003918 5830 803C            00014 23028                       L     R3,XSSREML
 00391C 5840 8040            00018 23029                       L     R4,XSSTYPE          R4,R5 - TYPE LOC,LEN
 003920 5850 8044            0001C 23030                       L     R5,XSSTYPEL
                                   23031
 003924 9005 8004            00004 23032                       PRETURN (R0,R5)
 003928 1BFF                       23034                       CLEAR R15
 00392A 18D8/9808 D004_            23038                       PEND
 DROP   XSSWA-(4+36),R8
1SCAN     (SCAN2025) (12:54) (15MAR04) EXEC SYSCALL XSCANSTR INTERFACE                                                      Page  106
0Current Usings:  (NSCNCB,R2) (CP,R11) (CV,R12)
0Loc    Object Code    Addr1 Addr2  Stmt Lv Lineno    Source Statement           (Hibal 5, Asmedit 3.3)  HLASM R4.0  2004/03/15 12.54
+___    ______ ____    _____ _____  ____ __ ______    ______ _________
0DROP   *,R7
1SCAN     (SCAN2025) (12:54) (15MAR04) EXEC SYSCALL XSCANSTR INTERFACE                                                      Page  107
0Current Usings:  (NSCNCB,R2) (CP,R11) (CV,R12)
0Loc    Object Code    Addr1 Addr2  Stmt Lv Lineno    Source Statement           (Hibal 5, Asmedit 3.3)  HLASM R4.0  2004/03/15 12.54
+___    ______ ____    _____ _____  ____ __ ______    ______ _________
0                                  23064              *
                                   23065              *  XSCNTYPE - RETURN TYPE OF TOKEN, EXEC FILE VERSION.
                                   23066              *
                                   23067              *
                                   23068              *  ON ENTRY:
                                   23069              *    R1,R0 - TOKEN LOC, LEN
                                   23070              *  ON EXIT:
                                   23071              *    R1,R0 - TYPE LOC, LEN
                                   23072              *
                                   23073              *  NOTE:
                                   23074              *  THE ONLY TYPES RETURNED ARE:
                                   23075              *    NULL, ALPHA, NUMBER, AND OTHER
                                   23076              *  NULL IS END OF SCAN (IRRESPECTIVE OF ';'), ALPHA IS ALL
                                   23077              *  ALPHAS SCANNED, NUMBER IS ALL NUMBERS SCANNED.
                                   23078              *
                                   23079              *  NOTE2:
                                   23080              *  THIS IS JUNK.  IT WOULD HAVE BEEN BETTER FOR EXEC FILES
                                   23081              *  TO HAVE SEPARATE SCAN ROUTINES AND TYPE ROUTINES.
                                   23082              *  ONLY MINIMAL TYPING IS DONE HERE.  PERHAPS A SOMEDAY A
                                   23083              *  FEW TYPE PROCESSING SYSCALL WILL BE PROVIDED. WHATEVER.
                                   23084              *  WHENEVER.
                                   23085              *
                                   23086              *
 003938 50E0 D000/9008_      00000 23087              XSCNTYPE PROC
 USING  *,R7
 003952 5900 7806/4770_      04158 23126                       IF    (R0,EQ,0),BEGIN
 00395A 4110 780A/4100_      0415C 23143  1                      SETMSG 'NULL'
 003962                            23147                       END
 003962 7014/47F0 7054 03962 03958 23151                       ELSE  BEGIN
 003966 1850                       23162  1                      LR    R5,R0
 003968 5840 780E            04160 23163  1                      L     R4,=A(TBLACLR)
 00396C 0650/4450 788C_            23164  1                      DEX   R5,' TRT @R1(0),@R4 '
 003972 4770 702C            0397E 23183  1                      IF    Z,BEGIN
 003976 4110 7864/4100_      041B6 23194  2                        SETMSG 'ALPHA'
 00397E                            23198  1                      END
 00397E 7030/47F0 7054 0397E 03974 23202  1                      ELSE  BEGIN
 003982 1850                       23213  2                        LR    R5,R0
 003984 5840 7812            04164 23214  2                        L     R4,=A(TBLNCLR)
 003988 0650/4450 7892_            23215  2                        DEX   R5,' TRT @R1(0),@R4 '
 00398E 4770 7048            0399A 23234  2                        IF    Z,BEGIN
 003992 4110 785E/4100_      041B0 23245  3                          SETMSG 'NUMBER'
 00399A                            23249  2                        END
 00399A 704C/47F0 7054 0399A 03990 23253  2                        ELSE  BEGIN
 00399E 4110 7869/4100_      041BB 23264  3                          SETMSG 'OTHER'
 0039A6                            23268  2                        END
 0039A6                            23272  1                      END
 0039A6                            23276                       END
                                   23280
 0039A6 9001 8004            00004 23281                       PRETURN (R0,R1)
 0039AA 18D8/9808 D004_            23283                       PEND
 DROP   *,R7
1SCAN     (SCAN2025) (12:54) (15MAR04) SET SKIP/STOP TABLES                                                                 Page  108
0Current Usings:  (NSCNCB,R2) (CP,R11) (CV,R12)
0Loc    Object Code    Addr1 Addr2  Stmt Lv Lineno    Source Statement           (Hibal 5, Asmedit 3.3)  HLASM R4.0  2004/03/15 12.54
+___    ______ ____    _____ _____  ____ __ ______    ______ _________
0                                  23304              *
                                   23305              **
                                   23306              **  SETSKIP
                                   23307              **
                                   23308              **  SET SKIP CHARACTERS ...
                                   23309              **  (SEE COMMENTS FOR SCAN AND SCAN_PARM FUNCTIONS IN
                                   23310              **  EXTENDED EXEC MANUAL.)
                                   23311              **
                                   23312              **  ON ENTRY:
                                   23313              **    R1 - LOC OF SKIP STRING
                                   23314              **    R0 - LEN OF SKIP STRING
                                   23315              **    R2 - LOC OF 256 BYTE TRT TABLE AREA
                                   23316              **
                                   23317              **  ON EXIT:
                                   23318              **    R15 - ZERO
                                   23319              **
                                   23320              **
                                   23321              **  NOTE:
                                   23322              **  TABLE IS INITIALIZED TO SKIP NONE.
                                   23323              **
                                   23324              *
 0039B8 50E0 D000/9008_      00000 23325              SETSKIP  XPROC
 USING  *,R7
                                   23365
                                   23366                       COMMENT                   INIT TABLE TO X'FF' (SKIP NONE)
 0039D2 1842                       23367                       LR    R4,R2
 0039D4 4150 0100            00100 23368                       LA    R5,256
 0039D8 58F0 7796            04168 23369                       L     R15,=X'FF000000'
 0039DC 0E4E                       23370                       MVCL  R4,R14
                                   23371
                                   23372                       COMMENT                   SET USERS SKIP CHARS
 0039DE 58E0 779A/0DEE       0416C 23373                       ACALL TBLCLR
                                   23377
 0039E4 18D8/9808 D004_            23378                       PEND
 DROP   *,R7
1SCAN     (SCAN2025) (12:54) (15MAR04) SET SKIP/STOP TABLES                                                                 Page  109
0Current Usings:  (NSCNCB,R2) (CP,R11) (CV,R12)
0Loc    Object Code    Addr1 Addr2  Stmt Lv Lineno    Source Statement           (Hibal 5, Asmedit 3.3)  HLASM R4.0  2004/03/15 12.54
+___    ______ ____    _____ _____  ____ __ ______    ______ _________
0                                  23399              *
                                   23400              **
                                   23401              **  SETSTOP
                                   23402              **
                                   23403              **  SET STOP CHARACTERS ...
                                   23404              **  (SEE COMMENTS FOR SCAN AND SCAN_PARM FUNCTIONS IN
                                   23405              **  EXTENDED EXEC MANUAL.)
                                   23406              **
                                   23407              **  ON ENTRY:
                                   23408              **    R1 - LOC OF STOP STRING
                                   23409              **    R0 - LEN OF STOP STRING
                                   23410              **    R2 - LOC OF 256 BYTE TRT TABLE AREA
                                   23411              **
                                   23412              **  ON EXIT:
                                   23413              **    R15 - ZERO
                                   23414              **
                                   23415              **
                                   23416              **  NOTE:
                                   23417              **  TABLE IS INITIALIZED WITH NO STOP CHARS
                                   23418              **
                                   23419              *
 0039F2 50E0 D000/9008_      00000 23420              SETSTOP  XPROC
 USING  *,R7
                                   23460
                                   23461                       COMMENT                   INIT TABLE TO X'00' (NO STOP)
 003A0C 1842                       23462                       LR    R4,R2
 003A0E 4150 0100            00100 23463                       LA    R5,256
 003A12 1BFF                       23464                       CLEAR R15
 003A14 0E4E                       23468                       MVCL  R4,R14
                                   23469
                                   23470                       COMMENT                   SET USERS STOP CHARS
 003A16 58E0 7764/0DEE       04170 23471                       ACALL TBLMRK
                                   23475
 003A1C 18D8/9808 D004_            23476                       PEND
 DROP   *,R7
1SCAN     (SCAN2025) (12:54) (15MAR04) SET SKIP/STOP TABLES                                                                 Page  110
0Current Usings:  (NSCNCB,R2) (CP,R11) (CV,R12)
0Loc    Object Code    Addr1 Addr2  Stmt Lv Lineno    Source Statement           (Hibal 5, Asmedit 3.3)  HLASM R4.0  2004/03/15 12.54
+___    ______ ____    _____ _____  ____ __ ______    ______ _________
0                                  23497
                                   23498
                                   23499
                                   23500                TBLCLR -- CLEAR TABLE ENTRIES
                                   23501
                                   23502                ON ENTRY:
                                   23503                     R0 - LENGTH OF CLEAR STRING
                                   23504                     R1 - LOCATION OF CLEAR STRING
                                   23505                     R2 - TABLE TO CLEAR
                                   23506
                                   23507                TABLE IS CLEARED AS SPECIFIED BY CLEAR STRING.  NOTE THE
                                   23508                ENTIRE TABLE IS NOT (AND MUST NOT BE) INITIALIZED BY THIS
                                   23509                ROUTINE.  SEE SCAN SYSCALL FOR CLEAR STRING DESCRIPTION.
                                   23510
                                   23511

0000000                00000 00100 23512              TABLE    RECORD BEGIN
 000000                            23520  1                      DS    256X
 000100                00100 00100 23521                       END
                                   23530
 003A2A 50E0 D000/9008_      00000 23531              TBLCLR   PROC  ,
 USING  *,R7
 USING  TABLE,R6                   23570                       USING TABLE,R6
 003A44 1862                       23579                       LR    R6,R2               R6 - TABLE ADDRESS
                                   23580
                                   23581                       COMMENT                   DO NOT INITIALIZE ENTIRE TABLE
                                   23582                       COMMENT                   THIS ROUTINE IS CALLED RECUSIVELY
                                   23583
                                   23584                       COMMENT                   SCAN CLEAR STRING
 003A46 1200/47D0 719E             23585                       WHILE (R0,POS),BEGIN       LOOP THRU STRING
                                   23601  1
                                   23602  1                      COMMENT                   IF +,
 003A4C 954E 1000/4770_00000       23603  1                      IF    (@R1,EQ,'+'),BEGIN  SKIP '+' AND CLR TABLE ENTRIES
 003A54 5E10 7730            04174 23619  2                        INCR  R1
 003A58 0600                       23622  2                        DECR  R0
 003A5A                            23624  1                      END
                                   23628  1
                                   23629  1                      COMMENT                   IF -,
 003A5A 701A/47F0 7034_03A5A 03A52 23630  1                      ELSEIF (@R1,EQ,'-'),BEGIN SKIP '-' AND MARK TABLE ENTRIES
 003A66 5E10 7730            04174 23655  2                        INCR  R1
 003A6A 0600                       23658  2                        DECR  R0
 003A6C 4120 6000            00000 23660  2                        LA    R2,TABLE
 003A70 58E0 7734/0DEE       04178 23661  2                        ACALL TBLUNCLR
 003A76 1B00                       23665  2                        CLEAR R0   QUIT LOOP
 003A78                            23669  1                      END
                                   23673  1
                                   23674  1                      COMMENT                   IF '(<special set>)',
                                   23675  1                      COMMENT                     CLEAR SPECIAL SET OF CHARS
                                   23676  1                      COMMENT
 003A78 7038/47F0 7182_03A78 03A64 23677  1                      ELSEIF ((@R1,EQ,'('),AND,(R0,GE,3)),BEGIN
 003A8C D502 777C 1000_041C0 00000 23718  2                        IF    (@R1,EQ,'(0)'),BEGIN
                                   23734  3                          COMMENT NULL CLEAR
 003A96 4111 0003            00003 23735  3                          LA    R1,3(R1)
1SCAN     (SCAN2025) (12:54) (15MAR04) SET SKIP/STOP TABLES                                                                 Page  111
0Current Usings:  (NSCNCB,R2) (TABLE,R6) (*,R7) (CP,R11) (CV,R12)
0Loc    Object Code    Addr1 Addr2  Stmt Lv Lineno    Source Statement           (Hibal 5, Asmedit 3.3)  HLASM R4.0  2004/03/15 12.54
+___    ______ ____    _____ _____  ____ __ ______    ______ _________
0003A9A 5B00 773C            04180 23736  3                          S     R0,=F'3'
 003A9E                            23737  2                        END
 003A9E 705E/47F0 7076_03A9E 03A94 23741  2                        ELSEIF (@R1,EQ,'(*)'),BEGIN
 003AAC D2FF 6000 79A6 00000 043EA 23766  3                          MVC   TABLE,TBLZERO
 003AB2 4111 0003            00003 23767  3                          LA    R1,3(R1)
 003AB6 5B00 773C            04180 23768  3                          S     R0,=F'3'
 003ABA                            23769  2                        END
 003ABA 707A/47F0 7096_03ABA 03AAA 23773  2                        ELSEIF (@R1,EQ,'(A)'),BEGIN
 003AC8 5830 771C            04160 23798  3                          L     R3,=A(TBLACLR)
 003ACC D4FF 6000 3000 00000 00000 23799  3                          NC    TABLE,0(R3)
 003AD2 4111 0003            00003 23800  3                          LA    R1,3(R1)
 003AD6 5B00 773C            04180 23801  3                          S     R0,=F'3'
 003ADA                            23802  2                        END
 003ADA 709A/47F0 70B6_03ADA 03AC6 23806  2                        ELSEIF (@R1,EQ,'(N)'),BEGIN
 003AE8 5830 7720            04164 23831  3                          L     R3,=A(TBLNCLR)
 003AEC D4FF 6000 3000 00000 00000 23832  3                          NC    TABLE,0(R3)
 003AF2 4111 0003            00003 23833  3                          LA    R1,3(R1)
 003AF6 5B00 773C            04180 23834  3                          S     R0,=F'3'
 003AFA                            23835  2                        END
 003AFA 70BA/47F0 70D6_03AFA 03AE6 23839  2                        ELSEIF (@R1,EQ,'(S)'),BEGIN
 003B08 5830 7740            04184 23864  3                          L     R3,=A(TBLSCLR)
 003B0C D4FF 6000 3000 00000 00000 23865  3                          NC    TABLE,0(R3)
 003B12 4111 0003            00003 23866  3                          LA    R1,3(R1)
 003B16 5B00 773C            04180 23867  3                          S     R0,=F'3'
 003B1A                            23868  2                        END
 003B1A 70DA/47F0 70F6_03B1A 03B06 23872  2                        ELSEIF (@R1,EQ,'(I)'),BEGIN
 003B28 5830 7744            04188 23897  3                          L     R3,=A(TBLICLR)
 003B2C D4FF 6000 3000 00000 00000 23898  3                          NC    TABLE,0(R3)
 003B32 4111 0003            00003 23899  3                          LA    R1,3(R1)
 003B36 5B00 773C            04180 23900  3                          S     R0,=F'3'
 003B3A                            23901  2                        END
 003B3A 70FA/47F0 7116_03B3A 03B26 23905  2                        ELSEIF (@R1,EQ,'(C)'),BEGIN
 003B48 5830 7748            0418C 23930  3                          L     R3,=A(TBLCCLR)
 003B4C D4FF 6000 3000 00000 00000 23931  3                          NC    TABLE,0(R3)
 003B52 4111 0003            00003 23932  3                          LA    R1,3(R1)
 003B56 5B00 773C            04180 23933  3                          S     R0,=F'3'
 003B5A                            23934  2                        END
 003B5A 711A/47F0 7136_03B5A 03B46 23938  2                        ELSEIF (@R1,EQ,'(W)'),BEGIN
 003B68 5830 774C            04190 23963  3                          L     R3,=A(TBLWCLR)
 003B6C D4FF 6000 3000 00000 00000 23964  3                          NC    TABLE,0(R3)
 003B72 4111 0003            00003 23965  3                          LA    R1,3(R1)
 003B76 5B00 773C            04180 23966  3                          S     R0,=F'3'
 003B7A                            23967  2                        END
 003B7A 713A/47F0 7150_03B7A 03B66 23971  2                        ELSEIF (@R1,EQ,'(+)'),BEGIN
 003B88 9200 604E      0004E       23996  3                          MVI   TABLE+C'+',X'00'
 003B8C 4111 0003            00003 23997  3                          LA    R1,3(R1)
 003B90 5B00 773C            04180 23998  3                          S     R0,=F'3'
 003B94                            23999  2                        END
 003B94 7154/47F0 716A_03B94 03B86 24003  2                        ELSEIF (@R1,EQ,'(-)'),BEGIN
 003BA2 9200 6060      00060       24028  3                          MVI   TABLE+C'-',X'00'
 003BA6 4111 0003            00003 24029  3                          LA    R1,3(R1)
 003BAA 5B00 773C            04180 24030  3                          S     R0,=F'3'
 003BAE                            24031  2                        END
 003BAE 716E/47F0 7182 03BAE 03BA0 24035  2                        ELSE  BEGIN               IF NOT '(...)'
1SCAN     (SCAN2025) (12:54) (15MAR04) SET SKIP/STOP TABLES                                                                 Page  112
0Current Usings:  (NSCNCB,R2) (TABLE,R6) (*,R7) (CP,R11) (CV,R12)
0Loc    Object Code    Addr1 Addr2  Stmt Lv Lineno    Source Statement           (Hibal 5, Asmedit 3.3)  HLASM R4.0  2004/03/15 12.54
+___    ______ ____    _____ _____  ____ __ ______    ______ _________
0003BB2 1F22/4321 0000             24046  3                          LC    R2,0(R1)            CLEAR CHARACTER
 003BB8 4122 6000            00000 24053  3                          LA    R2,TABLE(R2)
 003BBC 9200 2000      00000       24054  3                          MVI   0(R2),X'00'
 003BC0 5E10 7730            04174 24055  3                          INCR  R1
 003BC4 0600                       24058  3                          DECR  R0
 003BC6                            24060  2                        END
 003BC6                            24064  1                      END
                                   24068  1
                                   24069  1                      COMMENT                   IF NON OF THE ABOVE
 003BC6 7186/7186/47F0_03BC6 03A82 24070  1                      ELSE  BEGIN               CLEAR CHARACTER
 003BCA 1F22/4321 0000             24083  2                        LC    R2,0(R1)            CLEAR CHARACTER
 003BD0 4122 6000            00000 24090  2                        LA    R2,TABLE(R2)
 003BD4 9200 2000      00000       24091  2                        MVI   0(R2),X'00'
 003BD8 5E10 7730            04174 24092  2                        INCR  R1
 003BDC 0600                       24095  2                        DECR  R0
 003BDE                            24097  1                      END
                                   24101  1
 003BDE 47F0 7002            03A46 24102                       END   , LOOP THRU ENTIRE CLEAR STRING
                                   24107
 003BE2 1BFF                       24108                       CLEAR R15
 003BE4 18D8/9808 D004_            24112                       PEND  ,
 DROP   *,R7
 DROP   TABLE,R6                   24132                       DROP  R6
1SCAN     (SCAN2025) (12:54) (15MAR04) SET SKIP/STOP TABLES                                                                 Page  113
0Current Usings:  (NSCNCB,R2) (CP,R11) (CV,R12)
0Loc    Object Code    Addr1 Addr2  Stmt Lv Lineno    Source Statement           (Hibal 5, Asmedit 3.3)  HLASM R4.0  2004/03/15 12.54
+___    ______ ____    _____ _____  ____ __ ______    ______ _________
0                                  24140              *
                                   24141              **
                                   24142              **  TBLUNCLR  -- MARK TABLE (UNCLEAR)
                                   24143              **
                                   24144              **  ON ENTRY:
                                   24145              **       R0 - LENGTH OF MARK STRING
                                   24146              **       R1 - LOCATION OF MARK STRING
                                   24147              **       R2 - TABLE TO MARK
                                   24148              **
                                   24149              **  TABLE IS MARKED AS SPECIFIED BY MARK STRING.  NOTE THE
                                   24150              **  ENTIRE TABLE IS NOT (AND MUST NOT BE) CLEARED BY THIS
                                   24151              **  ROUTINE.  SEE SCAN SYSCALL FOR MARK STRING DESCRIPTION.
                                   24152              **
                                   24153              **  TBLUNCLR IS SAME AS TBLMRK EXCEPT THAT '-' DENOTES UNCLEAR
                                   24154              **  AND '+' DENOTES CLEAR
                                   24155              **
                                   24156              **TABLE    RECORD BEGIN
                                   24157              **         DS    256X
                                   24158              **         END
                                   24159              **
                                   24160              *
 003BF2 50E0 D000/9008_      00000 24161              TBLUNCLR PROC  ,
 USING  *,R7
 USING  TABLE,R6                   24200                       USING TABLE,R6
 003C0C 1862                       24209                       LR    R6,R2               R6 - TABLE ADDRESS
                                   24210
                                   24211                       COMMENT                   DO NOT CLEAR ENTIRE TABLE
                                   24212                       COMMENT                   THIS ROUTINE IS CALLED RECUSIVELY
                                   24213
                                   24214                       COMMENT                   SCAN MARK STRING
 003C0E 1200/47D0 719A             24215                       WHILE (R0,POS),BEGIN      LOOP THRU STRING
                                   24231  1
                                   24232  1                      COMMENT                   IF +,
 003C14 954E 1000/4770_00000       24233  1                      IF    (@R1,EQ,'+'),BEGIN  RESUME CLEARING TABLE ENTRIES
 003C1C 5E10 7568            04174 24249  2                        INCR  R1
 003C20 0600                       24252  2                        DECR  R0
 003C22 4120 6000            00000 24254  2                        LA    R2,TABLE
 003C26 58E0 7560/0DEE       0416C 24255  2                        ACALL TBLCLR
 003C2C 1B00                       24259  2                        CLEAR R0   QUIT LOOP
 003C2E                            24263  1                      END
                                   24267  1
                                   24268  1                      COMMENT                   IF -,
 003C2E 7026/47F0 7034_03C2E 03C1A 24269  1                      ELSEIF (@R1,EQ,'-'),BEGIN CONTINUE UNCLEARING ENTRIES
 003C3A 5E10 7568            04174 24294  2                        INCR  R1
 003C3E 0600                       24297  2                        DECR  R0
 003C40                            24299  1                      END
                                   24303  1
                                   24304  1                      COMMENT                   IF '(<special set>)',
                                   24305  1                      COMMENT                      MARK SPECIAL SET OF CHARS
                                   24306  1                      COMMENT
 003C40 7038/47F0 717E_03C40 03C38 24307  1                      ELSEIF ((@R1,EQ,'('),AND,(R0,GE,3)),BEGIN
 003C54 D502 75B4 1000_041C0 00000 24348  2                        IF    (@R1,EQ,'(0)'),BEGIN
                                   24364  3                          COMMENT NULL MARK
 003C5E 4111 0003            00003 24365  3                          LA    R1,3(R1)
1SCAN     (SCAN2025) (12:54) (15MAR04) SET SKIP/STOP TABLES                                                                 Page  114
0Current Usings:  (NSCNCB,R2) (TABLE,R6) (*,R7) (CP,R11) (CV,R12)
0Loc    Object Code    Addr1 Addr2  Stmt Lv Lineno    Source Statement           (Hibal 5, Asmedit 3.3)  HLASM R4.0  2004/03/15 12.54
+___    ______ ____    _____ _____  ____ __ ______    ______ _________
0003C62 5B00 7574            04180 24366  3                          S     R0,=F'3'
 003C66                            24367  2                        END
 003C66 D502 75B7 1000_041C3 00000 24371  2                        IF    (@R1,EQ,'(*)'),BEGIN
 003C70 D2FF 6000 78DE 00000 044EA 24387  3                          MVC   TABLE,TBLFFFF
 003C76 4111 0003            00003 24388  3                          LA    R1,3(R1)
 003C7A 5B00 7574            04180 24389  3                          S     R0,=F'3'
 003C7E                            24390  2                        END
 003C7E 7076/47F0 7092_03C7E 03C6E 24394  2                        ELSEIF (@R1,EQ,'(A)'),BEGIN
 003C8C 5830 7588            04194 24419  3                          L     R3,=A(TBLAMARK)
 003C90 D6FF 6000 3000 00000 00000 24420  3                          OC    TABLE,0(R3)
 003C96 4111 0003            00003 24421  3                          LA    R1,3(R1)
 003C9A 5B00 7574            04180 24422  3                          S     R0,=F'3'
 003C9E                            24423  2                        END
 003C9E 7096/47F0 70B2_03C9E 03C8A 24427  2                        ELSEIF (@R1,EQ,'(N)'),BEGIN
 003CAC 5830 758C            04198 24452  3                          L     R3,=A(TBLNMARK)
 003CB0 D6FF 6000 3000 00000 00000 24453  3                          OC    TABLE,0(R3)
 003CB6 4111 0003            00003 24454  3                          LA    R1,3(R1)
 003CBA 5B00 7574            04180 24455  3                          S     R0,=F'3'
 003CBE                            24456  2                        END
 003CBE 70B6/47F0 70D2_03CBE 03CAA 24460  2                        ELSEIF (@R1,EQ,'(S)'),BEGIN
 003CCC 5830 7590            0419C 24485  3                          L     R3,=A(TBLSMARK)
 003CD0 D6FF 6000 3000 00000 00000 24486  3                          OC    TABLE,0(R3)
 003CD6 4111 0003            00003 24487  3                          LA    R1,3(R1)
 003CDA 5B00 7574            04180 24488  3                          S     R0,=F'3'
 003CDE                            24489  2                        END
 003CDE 70D6/47F0 70F2_03CDE 03CCA 24493  2                        ELSEIF (@R1,EQ,'(I)'),BEGIN
 003CEC 5830 7594            041A0 24518  3                          L     R3,=A(TBLIMARK)
 003CF0 D6FF 6000 3000 00000 00000 24519  3                          OC    TABLE,0(R3)
 003CF6 4111 0003            00003 24520  3                          LA    R1,3(R1)
 003CFA 5B00 7574            04180 24521  3                          S     R0,=F'3'
 003CFE                            24522  2                        END
 003CFE 70F6/47F0 7112_03CFE 03CEA 24526  2                        ELSEIF (@R1,EQ,'(C)'),BEGIN
 003D0C 5830 7598            041A4 24551  3                          L     R3,=A(TBLCMARK)
 003D10 D6FF 6000 3000 00000 00000 24552  3                          OC    TABLE,0(R3)
 003D16 4111 0003            00003 24553  3                          LA    R1,3(R1)
 003D1A 5B00 7574            04180 24554  3                          S     R0,=F'3'
 003D1E                            24555  2                        END
 003D1E 7116/47F0 7132_03D1E 03D0A 24559  2                        ELSEIF (@R1,EQ,'(W)'),BEGIN
 003D2C 5830 759C            041A8 24584  3                          L     R3,=A(TBLWMARK)
 003D30 D6FF 6000 3000 00000 00000 24585  3                          OC    TABLE,0(R3)
 003D36 4111 0003            00003 24586  3                          LA    R1,3(R1)
 003D3A 5B00 7574            04180 24587  3                          S     R0,=F'3'
 003D3E                            24588  2                        END
 003D3E 7136/47F0 714C_03D3E 03D2A 24592  2                        ELSEIF (@R1,EQ,'(+)'),BEGIN
 003D4C 92FF 604E      0004E       24617  3                          MVI   TABLE+C'+',X'FF'
 003D50 4111 0003            00003 24618  3                          LA    R1,3(R1)
 003D54 5B00 7574            04180 24619  3                          S     R0,=F'3'
 003D58                            24620  2                        END
 003D58 7150/47F0 7166_03D58 03D4A 24624  2                        ELSEIF (@R1,EQ,'(-)'),BEGIN
 003D66 92FF 6060      00060       24649  3                          MVI   TABLE+C'-',X'FF'
 003D6A 4111 0003            00003 24650  3                          LA    R1,3(R1)
 003D6E 5B00 7574            04180 24651  3                          S     R0,=F'3'
 003D72                            24652  2                        END
 003D72 716A/47F0 717E 03D72 03D64 24656  2                        ELSE  BEGIN               IF NOT '(...)'
1SCAN     (SCAN2025) (12:54) (15MAR04) SET SKIP/STOP TABLES                                                                 Page  115
0Current Usings:  (NSCNCB,R2) (TABLE,R6) (*,R7) (CP,R11) (CV,R12)
0Loc    Object Code    Addr1 Addr2  Stmt Lv Lineno    Source Statement           (Hibal 5, Asmedit 3.3)  HLASM R4.0  2004/03/15 12.54
+___    ______ ____    _____ _____  ____ __ ______    ______ _________
0003D76 1F22/4321 0000             24667  3                          LC    R2,0(R1)            MARK CHARACTER
 003D7C 4122 6000            00000 24674  3                          LA    R2,TABLE(R2)
 003D80 92FF 2000      00000       24675  3                          MVI   0(R2),X'FF'
 003D84 5E10 7568            04174 24676  3                          INCR  R1
 003D88 0600                       24679  3                          DECR  R0
 003D8A                            24681  2                        END
 003D8A                            24685  1                      END
                                   24689  1
                                   24690  1                      COMMENT                   IF NON OF THE ABOVE
 003D8A 7182/7182/47F0_03D8A 03C4A 24691  1                      ELSE  BEGIN               MARK CHARACTER
 003D8E 1F22/4321 0000             24704  2                        LC    R2,0(R1)            MARK CHARACTER
 003D94 4122 6000            00000 24711  2                        LA    R2,TABLE(R2)
 003D98 92FF 2000      00000       24712  2                        MVI   0(R2),X'FF'
 003D9C 5E10 7568            04174 24713  2                        INCR  R1
 003DA0 0600                       24716  2                        DECR  R0
 003DA2                            24718  1                      END
                                   24722  1
 003DA2 47F0 7002            03C0E 24723                       END   , LOOP THRU ENTIRE MARK STRING
                                   24728
 003DA6 1BFF                       24729                       CLEAR R15
 003DA8 18D8/9808 D004_            24733                       PEND  ,
 DROP   *,R7
 DROP   TABLE,R6                   24753                       DROP  R6
1SCAN     (SCAN2025) (12:54) (15MAR04) SET SKIP/STOP TABLES                                                                 Page  116
0Current Usings:  (NSCNCB,R2) (CP,R11) (CV,R12)
0Loc    Object Code    Addr1 Addr2  Stmt Lv Lineno    Source Statement           (Hibal 5, Asmedit 3.3)  HLASM R4.0  2004/03/15 12.54
+___    ______ ____    _____ _____  ____ __ ______    ______ _________
0                                  24761              *
                                   24762              **
                                   24763              **  TBLMRK   -- MARK TABLE
                                   24764              **
                                   24765              **  ON ENTRY:
                                   24766              **       R0 - LENGTH OF MARK STRING
                                   24767              **       R1 - LOCATION OF MARK STRING
                                   24768              **       R2 - TABLE TO MARK
                                   24769              **
                                   24770              **  TABLE IS MARKED AS SPECIFIED BY MARK STRING.  NOTE THE
                                   24771              **  ENTIRE TABLE IS NOT (AND MUST NOT BE) CLEARED BY THIS
                                   24772              **  ROUTINE.  SEE SCAN SYSCALL FOR MARK STRING DESCRIPTION.
                                   24773              **
                                   24774              **
                                   24775              **TABLE    RECORD BEGIN
                                   24776              **         DS    256X
                                   24777              **         END
                                   24778              **
                                   24779              *
 003DB6 50E0 D000/9008_      00000 24780              TBLMRK   PROC  ,
 USING  *,R7
 USING  TABLE,R6                   24819                       USING TABLE,R6
 003DD0 1862                       24828                       LR    R6,R2               R6 - TABLE ADDRESS
                                   24829
                                   24830                       COMMENT                   DO NOT CLEAR ENTIRE TABLE
                                   24831                       COMMENT                   THIS ROUTINE IS CALLED RECUSIVELY
                                   24832
                                   24833                       COMMENT                   SCAN MARK STRING
 003DD2 1200/47D0 719A             24834                       WHILE (R0,POS),BEGIN      LOOP THRU STRING
                                   24850  1
                                   24851  1                      COMMENT                   IF +,
 003DD8 954E 1000/4770_00000       24852  1                      IF    (@R1,EQ,'+'),BEGIN  SKIP '+' AND MARK TABLE ENTRIES
 003DE0 5E10 73A4            04174 24868  2                        INCR  R1
 003DE4 0600                       24871  2                        DECR  R0
 003DE6                            24873  1                      END
                                   24877  1
                                   24878  1                      COMMENT                   IF -,
 003DE6 701A/47F0 7034_03DE6 03DDE 24879  1                      ELSEIF (@R1,EQ,'-'),BEGIN SKIP '-' AND CLEAR TABLE ENTRIES
 003DF2 5E10 73A4            04174 24904  2                        INCR  R1
 003DF6 0600                       24907  2                        DECR  R0
 003DF8 4120 6000            00000 24909  2                        LA    R2,TABLE
 003DFC 58E0 73DC/0DEE       041AC 24910  2                        ACALL TBLUNMRK
 003E02 1B00                       24914  2                        CLEAR R0   QUIT LOOP
 003E04                            24918  1                      END
                                   24922  1
                                   24923  1                      COMMENT                   IF '(<special set>)',
                                   24924  1                      COMMENT                      MARK SPECIAL SET OF CHARS
                                   24925  1                      COMMENT
 003E04 7038/47F0 717E_03E04 03DF0 24926  1                      ELSEIF ((@R1,EQ,'('),AND,(R0,GE,3)),BEGIN
 003E18 D502 73F0 1000_041C0 00000 24967  2                        IF    (@R1,EQ,'(0)'),BEGIN
                                   24983  3                          COMMENT NULL MARK
 003E22 4111 0003            00003 24984  3                          LA    R1,3(R1)
 003E26 5B00 73B0            04180 24985  3                          S     R0,=F'3'
 003E2A                            24986  2                        END
1SCAN     (SCAN2025) (12:54) (15MAR04) SET SKIP/STOP TABLES                                                                 Page  117
0Current Usings:  (NSCNCB,R2) (TABLE,R6) (*,R7) (CP,R11) (CV,R12)
0Loc    Object Code    Addr1 Addr2  Stmt Lv Lineno    Source Statement           (Hibal 5, Asmedit 3.3)  HLASM R4.0  2004/03/15 12.54
+___    ______ ____    _____ _____  ____ __ ______    ______ _________
0003E2A D502 73F3 1000_041C3 00000 24990  2                        IF    (@R1,EQ,'(*)'),BEGIN
 003E34 D2FF 6000 771A 00000 044EA 25006  3                          MVC   TABLE,TBLFFFF
 003E3A 4111 0003            00003 25007  3                          LA    R1,3(R1)
 003E3E 5B00 73B0            04180 25008  3                          S     R0,=F'3'
 003E42                            25009  2                        END
 003E42 7076/47F0 7092_03E42 03E32 25013  2                        ELSEIF (@R1,EQ,'(A)'),BEGIN
 003E50 5830 73C4            04194 25038  3                          L     R3,=A(TBLAMARK)
 003E54 D6FF 6000 3000 00000 00000 25039  3                          OC    TABLE,0(R3)
 003E5A 4111 0003            00003 25040  3                          LA    R1,3(R1)
 003E5E 5B00 73B0            04180 25041  3                          S     R0,=F'3'
 003E62                            25042  2                        END
 003E62 7096/47F0 70B2_03E62 03E4E 25046  2                        ELSEIF (@R1,EQ,'(N)'),BEGIN
 003E70 5830 73C8            04198 25071  3                          L     R3,=A(TBLNMARK)
 003E74 D6FF 6000 3000 00000 00000 25072  3                          OC    TABLE,0(R3)
 003E7A 4111 0003            00003 25073  3                          LA    R1,3(R1)
 003E7E 5B00 73B0            04180 25074  3                          S     R0,=F'3'
 003E82                            25075  2                        END
 003E82 70B6/47F0 70D2_03E82 03E6E 25079  2                        ELSEIF (@R1,EQ,'(S)'),BEGIN
 003E90 5830 73CC            0419C 25104  3                          L     R3,=A(TBLSMARK)
 003E94 D6FF 6000 3000 00000 00000 25105  3                          OC    TABLE,0(R3)
 003E9A 4111 0003            00003 25106  3                          LA    R1,3(R1)
 003E9E 5B00 73B0            04180 25107  3                          S     R0,=F'3'
 003EA2                            25108  2                        END
 003EA2 70D6/47F0 70F2_03EA2 03E8E 25112  2                        ELSEIF (@R1,EQ,'(I)'),BEGIN
 003EB0 5830 73D0            041A0 25137  3                          L     R3,=A(TBLIMARK)
 003EB4 D6FF 6000 3000 00000 00000 25138  3                          OC    TABLE,0(R3)
 003EBA 4111 0003            00003 25139  3                          LA    R1,3(R1)
 003EBE 5B00 73B0            04180 25140  3                          S     R0,=F'3'
 003EC2                            25141  2                        END
 003EC2 70F6/47F0 7112_03EC2 03EAE 25145  2                        ELSEIF (@R1,EQ,'(C)'),BEGIN
 003ED0 5830 73D4            041A4 25170  3                          L     R3,=A(TBLCMARK)
 003ED4 D6FF 6000 3000 00000 00000 25171  3                          OC    TABLE,0(R3)
 003EDA 4111 0003            00003 25172  3                          LA    R1,3(R1)
 003EDE 5B00 73B0            04180 25173  3                          S     R0,=F'3'
 003EE2                            25174  2                        END
 003EE2 7116/47F0 7132_03EE2 03ECE 25178  2                        ELSEIF (@R1,EQ,'(W)'),BEGIN
 003EF0 5830 73D8            041A8 25203  3                          L     R3,=A(TBLWMARK)
 003EF4 D6FF 6000 3000 00000 00000 25204  3                          OC    TABLE,0(R3)
 003EFA 4111 0003            00003 25205  3                          LA    R1,3(R1)
 003EFE 5B00 73B0            04180 25206  3                          S     R0,=F'3'
 003F02                            25207  2                        END
 003F02 7136/47F0 714C_03F02 03EEE 25211  2                        ELSEIF (@R1,EQ,'(+)'),BEGIN
 003F10 92FF 604E      0004E       25236  3                          MVI   TABLE+C'+',X'FF'
 003F14 4111 0003            00003 25237  3                          LA    R1,3(R1)
 003F18 5B00 73B0            04180 25238  3                          S     R0,=F'3'
 003F1C                            25239  2                        END
 003F1C 7150/47F0 7166_03F1C 03F0E 25243  2                        ELSEIF (@R1,EQ,'(-)'),BEGIN
 003F2A 92FF 6060      00060       25268  3                          MVI   TABLE+C'-',X'FF'
 003F2E 4111 0003            00003 25269  3                          LA    R1,3(R1)
 003F32 5B00 73B0            04180 25270  3                          S     R0,=F'3'
 003F36                            25271  2                        END
 003F36 716A/47F0 717E 03F36 03F28 25275  2                        ELSE  BEGIN               IF NOT '(...)'
 003F3A 1F22/4321 0000             25286  3                          LC    R2,0(R1)            MARK CHARACTER
 003F40 4122 6000            00000 25293  3                          LA    R2,TABLE(R2)
1SCAN     (SCAN2025) (12:54) (15MAR04) SET SKIP/STOP TABLES                                                                 Page  118
0Current Usings:  (NSCNCB,R2) (TABLE,R6) (*,R7) (CP,R11) (CV,R12)
0Loc    Object Code    Addr1 Addr2  Stmt Lv Lineno    Source Statement           (Hibal 5, Asmedit 3.3)  HLASM R4.0  2004/03/15 12.54
+___    ______ ____    _____ _____  ____ __ ______    ______ _________
0003F44 92FF 2000      00000       25294  3                          MVI   0(R2),X'FF'
 003F48 5E10 73A4            04174 25295  3                          INCR  R1
 003F4C 0600                       25298  3                          DECR  R0
 003F4E                            25300  2                        END
 003F4E                            25304  1                      END
                                   25308  1
                                   25309  1                      COMMENT                   IF NON OF THE ABOVE
 003F4E 7182/7182/47F0_03F4E 03E0E 25310  1                      ELSE  BEGIN               MARK CHARACTER
 003F52 1F22/4321 0000             25323  2                        LC    R2,0(R1)            MARK CHARACTER
 003F58 4122 6000            00000 25330  2                        LA    R2,TABLE(R2)
 003F5C 92FF 2000      00000       25331  2                        MVI   0(R2),X'FF'
 003F60 5E10 73A4            04174 25332  2                        INCR  R1
 003F64 0600                       25335  2                        DECR  R0
 003F66                            25337  1                      END
                                   25341  1
 003F66 47F0 7002            03DD2 25342                       END   , LOOP THRU ENTIRE MARK STRING
                                   25347
 003F6A 1BFF                       25348                       CLEAR R15
 003F6C 18D8/9808 D004_            25352                       PEND  ,
 DROP   *,R7
 DROP   TABLE,R6                   25372                       DROP  R6
1SCAN     (SCAN2025) (12:54) (15MAR04) SET SKIP/STOP TABLES                                                                 Page  119
0Current Usings:  (NSCNCB,R2) (CP,R11) (CV,R12)
0Loc    Object Code    Addr1 Addr2  Stmt Lv Lineno    Source Statement           (Hibal 5, Asmedit 3.3)  HLASM R4.0  2004/03/15 12.54
+___    ______ ____    _____ _____  ____ __ ______    ______ _________
0                                  25380              *
                                   25381              **
                                   25382              **  TBLUNMRK - CLEAR TABLE ENTRIES (UNMARK)
                                   25383              **
                                   25384              **  ON ENTRY:
                                   25385              **       R0 - LENGTH OF CLEAR STRING
                                   25386              **       R1 - LOCATION OF CLEAR STRING
                                   25387              **       R2 - TABLE TO CLEAR
                                   25388              **
                                   25389              **  TABLE IS CLEARED AS SPECIFIED BY CLEAR STRING.  NOTE THE
                                   25390              **  ENTIRE TABLE IS NOT (AND MUST NOT BE) INITIALIZED BY THIS
                                   25391              **  ROUTINE.  SEE SCAN SYSCALL FOR CLEAR STRING DESCRIPTION.
                                   25392              **
                                   25393              **  TBLUNMRK IS SAME AS TBLCLR EXCEPT THAT '-' DENOTES UNMARK
                                   25394              **  AND '+' DENOTES MARK
                                   25395              **
                                   25396              **TABLE    RECORD BEGIN
                                   25397              **         DS    256X
                                   25398              **         END
                                   25399              **
                                   25400              *
 003F7A 50E0 D000/9008_      00000 25401              TBLUNMRK PROC  ,
 USING  *,R7
 USING  TABLE,R6                   25440                       USING TABLE,R6
 003F94 1862                       25449                       LR    R6,R2               R6 - TABLE ADDRESS
                                   25450
                                   25451                       COMMENT                   DO NOT INITIALIZE ENTIRE TABLE
                                   25452                       COMMENT                   THIS ROUTINE IS CALLED RECUSIVELY
                                   25453
                                   25454                       COMMENT                   SCAN CLEAR STRING
 003F96 1200/47D0 719A             25455                       WHILE (R0,POS),BEGIN       LOOP THRU STRING
                                   25471  1
                                   25472  1                      COMMENT                   IF +,
 003F9C 954E 1000/4770_00000       25473  1                      IF    (@R1,EQ,'+'),BEGIN  RESUME MARKING TABLE ENTRIES
 003FA4 5E10 71E0            04174 25489  2                        INCR  R1
 003FA8 0600                       25492  2                        DECR  R0
 003FAA 4120 6000            00000 25494  2                        LA    R2,TABLE
 003FAE 58E0 71DC/0DEE       04170 25495  2                        ACALL TBLMRK
 003FB4 1B00                       25499  2                        CLEAR R0   QUIT LOOP
 003FB6                            25503  1                      END
                                   25507  1
                                   25508  1                      COMMENT                   IF -,
 003FB6 7026/47F0 7034_03FB6 03FA2 25509  1                      ELSEIF (@R1,EQ,'-'),BEGIN CONTINUE UNMARKING ENTRIES
 003FC2 5E10 71E0            04174 25534  2                        INCR  R1
 003FC6 0600                       25537  2                        DECR  R0
 003FC8                            25539  1                      END
                                   25543  1
                                   25544  1                      COMMENT                   IF '(<special set>)',
                                   25545  1                      COMMENT                     CLEAR SPECIAL SET OF CHARS
                                   25546  1                      COMMENT
 003FC8 7038/47F0 717E_03FC8 03FC0 25547  1                      ELSEIF ((@R1,EQ,'('),AND,(R0,GE,3)),BEGIN
 003FDC D502 722C 1000_041C0 00000 25588  2                        IF    (@R1,EQ,'(0)'),BEGIN
                                   25604  3                          COMMENT NULL CLEAR
 003FE6 4111 0003            00003 25605  3                          LA    R1,3(R1)
1SCAN     (SCAN2025) (12:54) (15MAR04) SET SKIP/STOP TABLES                                                                 Page  120
0Current Usings:  (NSCNCB,R2) (TABLE,R6) (*,R7) (CP,R11) (CV,R12)
0Loc    Object Code    Addr1 Addr2  Stmt Lv Lineno    Source Statement           (Hibal 5, Asmedit 3.3)  HLASM R4.0  2004/03/15 12.54
+___    ______ ____    _____ _____  ____ __ ______    ______ _________
0003FEA 5B00 71EC            04180 25606  3                          S     R0,=F'3'
 003FEE                            25607  2                        END
 003FEE D502 722F 1000_041C3 00000 25611  2                        IF    (@R1,EQ,'(*)'),BEGIN
 003FF8 D2FF 6000 7456 00000 043EA 25627  3                          MVC   TABLE,TBLZERO
 003FFE 4111 0003            00003 25628  3                          LA    R1,3(R1)
 004002 5B00 71EC            04180 25629  3                          S     R0,=F'3'
 004006                            25630  2                        END
 004006 7076/47F0 7092_04006 03FF6 25634  2                        ELSEIF (@R1,EQ,'(A)'),BEGIN
 004014 5830 71CC            04160 25659  3                          L     R3,=A(TBLACLR)
 004018 D4FF 6000 3000 00000 00000 25660  3                          NC    TABLE,0(R3)
 00401E 4111 0003            00003 25661  3                          LA    R1,3(R1)
 004022 5B00 71EC            04180 25662  3                          S     R0,=F'3'
 004026                            25663  2                        END
 004026 7096/47F0 70B2_04026 04012 25667  2                        ELSEIF (@R1,EQ,'(N)'),BEGIN
 004034 5830 71D0            04164 25692  3                          L     R3,=A(TBLNCLR)
 004038 D4FF 6000 3000 00000 00000 25693  3                          NC    TABLE,0(R3)
 00403E 4111 0003            00003 25694  3                          LA    R1,3(R1)
 004042 5B00 71EC            04180 25695  3                          S     R0,=F'3'
 004046                            25696  2                        END
 004046 70B6/47F0 70D2_04046 04032 25700  2                        ELSEIF (@R1,EQ,'(S)'),BEGIN
 004054 5830 71F0            04184 25725  3                          L     R3,=A(TBLSCLR)
 004058 D4FF 6000 3000 00000 00000 25726  3                          NC    TABLE,0(R3)
 00405E 4111 0003            00003 25727  3                          LA    R1,3(R1)
 004062 5B00 71EC            04180 25728  3                          S     R0,=F'3'
 004066                            25729  2                        END
 004066 70D6/47F0 70F2_04066 04052 25733  2                        ELSEIF (@R1,EQ,'(I)'),BEGIN
 004074 5830 71F4            04188 25758  3                          L     R3,=A(TBLICLR)
 004078 D4FF 6000 3000 00000 00000 25759  3                          NC    TABLE,0(R3)
 00407E 4111 0003            00003 25760  3                          LA    R1,3(R1)
 004082 5B00 71EC            04180 25761  3                          S     R0,=F'3'
 004086                            25762  2                        END
 004086 70F6/47F0 7112_04086 04072 25766  2                        ELSEIF (@R1,EQ,'(C)'),BEGIN
 004094 5830 71F8            0418C 25791  3                          L     R3,=A(TBLCCLR)
 004098 D4FF 6000 3000 00000 00000 25792  3                          NC    TABLE,0(R3)
 00409E 4111 0003            00003 25793  3                          LA    R1,3(R1)
 0040A2 5B00 71EC            04180 25794  3                          S     R0,=F'3'
 0040A6                            25795  2                        END
 0040A6 7116/47F0 7132_040A6 04092 25799  2                        ELSEIF (@R1,EQ,'(W)'),BEGIN
 0040B4 5830 71FC            04190 25824  3                          L     R3,=A(TBLWCLR)
 0040B8 D4FF 6000 3000 00000 00000 25825  3                          NC    TABLE,0(R3)
 0040BE 4111 0003            00003 25826  3                          LA    R1,3(R1)
 0040C2 5B00 71EC            04180 25827  3                          S     R0,=F'3'
 0040C6                            25828  2                        END
 0040C6 7136/47F0 714C_040C6 040B2 25832  2                        ELSEIF (@R1,EQ,'(+)'),BEGIN
 0040D4 9200 604E      0004E       25857  3                          MVI   TABLE+C'+',X'00'
 0040D8 4111 0003            00003 25858  3                          LA    R1,3(R1)
 0040DC 5B00 71EC            04180 25859  3                          S     R0,=F'3'
 0040E0                            25860  2                        END
 0040E0 7150/47F0 7166_040E0 040D2 25864  2                        ELSEIF (@R1,EQ,'(-)'),BEGIN
 0040EE 9200 6060      00060       25889  3                          MVI   TABLE+C'-',X'00'
 0040F2 4111 0003            00003 25890  3                          LA    R1,3(R1)
 0040F6 5B00 71EC            04180 25891  3                          S     R0,=F'3'
 0040FA                            25892  2                        END
 0040FA 716A/47F0 717E 040FA 040EC 25896  2                        ELSE  BEGIN               IF NOT '(...)'
1SCAN     (SCAN2025) (12:54) (15MAR04) SET SKIP/STOP TABLES                                                                 Page  121
0Current Usings:  (NSCNCB,R2) (TABLE,R6) (*,R7) (CP,R11) (CV,R12)
0Loc    Object Code    Addr1 Addr2  Stmt Lv Lineno    Source Statement           (Hibal 5, Asmedit 3.3)  HLASM R4.0  2004/03/15 12.54
+___    ______ ____    _____ _____  ____ __ ______    ______ _________
00040FE 1F22/4321 0000             25907  3                          LC    R2,0(R1)            CLEAR CHARACTER
 004104 4122 6000            00000 25914  3                          LA    R2,TABLE(R2)
 004108 9200 2000      00000       25915  3                          MVI   0(R2),X'00'
 00410C 5E10 71E0            04174 25916  3                          INCR  R1
 004110 0600                       25919  3                          DECR  R0
 004112                            25921  2                        END
 004112                            25925  1                      END
                                   25929  1
                                   25930  1                      COMMENT                   IF NON OF THE ABOVE
 004112 7182/7182/47F0_04112 03FD2 25931  1                      ELSE  BEGIN               CLEAR CHARACTER
 004116 1F22/4321 0000             25944  2                        LC    R2,0(R1)            CLEAR CHARACTER
 00411C 4122 6000            00000 25951  2                        LA    R2,TABLE(R2)
 004120 9200 2000      00000       25952  2                        MVI   0(R2),X'00'
 004124 5E10 71E0            04174 25953  2                        INCR  R1
 004128 0600                       25956  2                        DECR  R0
 00412A                            25958  1                      END
                                   25962  1
 00412A 47F0 7002            03F96 25963                       END   , LOOP THRU ENTIRE CLEAR STRING
                                   25968
 00412E 1BFF                       25969                       CLEAR R15
 004130 18D8/9808 D004_            25973                       PEND  ,
 DROP   *,R7
 DROP   TABLE,R6                   25993                       DROP  R6
1SCAN     (SCAN2025) (12:54) (15MAR04) SET SKIP/STOP TABLES                                                                 Page  122
0Current Usings:  (NSCNCB,R2) (CP,R11) (CV,R12)
0Loc    Object Code    Addr1 Addr2  Stmt Lv Lineno    Source Statement           (Hibal 5, Asmedit 3.3)  HLASM R4.0  2004/03/15 12.54
+___    ______ ____    _____ _____  ____ __ ______    ______ _________
0                                  26001                       QLTORG
1SCAN     (SCAN2025) (12:54) (15MAR04) SET SKIP/STOP TABLES                                                                 Page  123
0Current Usings:  (NSCNCB,R2) (CP,R11) (CV,R12)
0Loc    Object Code    Addr1 Addr2  Stmt Lv Lineno    Source Statement           (Hibal 5, Asmedit 3.3)  HLASM R4.0  2004/03/15 12.54
+___    ______ ____    _____ _____  ____ __ ______    ______ _________
0                                  26055
                                   26056
                                   26057
                                   26058                     TRT TABLES
                                   26059
                                   26060
                                   26061

-
0                                  26063
                                   26064
                                   26065                         TYPE TABLE
                                   26066
                                   26067                         I - INVALID,  S - SPECIAL,  A - ALPHA,  N - NUMERIC,
                                   26068
 0041EA                            26069              TBLTYPE  LABEL ,
                                   26071                       COMMENT    0123456789012345
                                   26072                       COMMENT
 0041EA C9C9C9C9C9C9C9C9           26073                       DC    CL16'IIIIIIIIIIIIIIII'     0
 0041FA C9C9C9C9C9C9C9C9           26074                       DC    CL16'IIIIIIIIIIIIIIII'     1
 00420A C9C9C9C9C9C9C9C9           26075                       DC    CL16'IIIIIIIIIIIIIIII'     2
 00421A C9C9C9C9C9C9C9C9           26076                       DC    CL16'IIIIIIIIIIIIIIII'     3
 00422A E2C9C9C9C9C9C9C9           26077                       DC    CL16'SIIIIIIIIISSSSSS'     4
 00423A E2C9C9C9C9C9C9C9           26078                       DC    CL16'SIIIIIIIIISSSSSS'     5
 00424A E2E2C9C9C9C9C9C9           26079                       DC    CL16'SSIIIIIIIISSSSSS'     6
 00425A C9C9C9C9C9C9C9C9           26080                       DC    CL16'IIIIIIIIISSSSSSS'     7
 00426A C9C1C1C1C1C1C1C1           26081                       DC    CL16'IAAAAAAAAAIIIIII'     8
 00427A C9C1C1C1C1C1C1C1           26082                       DC    CL16'IAAAAAAAAAIIIIII'     9
 00428A C9E2C1C1C1C1C1C1           26083                       DC    CL16'ISAAAAAAAAIIIIII'     0
 00429A C9C9C9C9C9C9C9C9           26084                       DC    CL16'IIIIIIIIIIIIIIII'     1
 0042AA E2C1C1C1C1C1C1C1           26085                       DC    CL16'SAAAAAAAAAIIIIII'     2
 0042BA E2C1C1C1C1C1C1C1           26086                       DC    CL16'SAAAAAAAAAIIIIII'     3
 0042CA E2C9C1C1C1C1C1C1           26087                       DC    CL16'SIAAAAAAAAIIIIII'     4
 0042DA D5D5D5D5D5D5D5D5           26088                       DC    CL16'NNNNNNNNNNNSIIII'     5
-
0                                  26090
                                   26091
                                   26092                    DEFAULT WYLBUR SCAN SKIP TABLE;
                                   26093
                                   26094
 0042EA                            26095              TBLWSKIP LABEL ,                   SKIP BLANKS, COMMAS, EQUALS
 0042EA FFFFFFFFFFFFFFFF           26097                       DC    256X'FF'
 0043EA                043EA 0432A 26098                       ORG   TBLWSKIP+C' '
 00432A 00                         26099                       DC    X'00'
 00432B                0432B 04355 26100                       ORG   TBLWSKIP+C','
 004355 00                         26101                       DC    X'00'
 004356                04356 04368 26102                       ORG   TBLWSKIP+C'='
 004368 00                         26103                       DC    X'00'
1SCAN     (SCAN2025) (12:54) (15MAR04) SET SKIP/STOP TABLES                                                                 Page  124
0Current Usings:  (NSCNCB,R2) (CP,R11) (CV,R12)
0Loc    Object Code    Addr1 Addr2  Stmt Lv Lineno    Source Statement           (Hibal 5, Asmedit 3.3)  HLASM R4.0  2004/03/15 12.54
+___    ______ ____    _____ _____  ____ __ ______    ______ _________
0004369                04369 043EA 26104                       ORG
-
0                                  26106
                                   26107
                                   26108                    DEFAULT WYLBUR STOP SKIP TABLE;
                                   26109
                                   26110
                                   26111              TBLWSTOP EQU   TBLWMARK,256
-
0                                  26113
                                   26114
                                   26115                         TBLZERO - ZERO TABLE FOR CLEARING ALL
                                   26116
                                   26117
 0043EA                            26118              TBLZERO  LABEL
 0043EA 0000000000000000           26120                       DC    256X'00'
-
0                                  26122
                                   26123
                                   26124                         TBLFFFF - 'FFFF' TABLE FOR MARKING ALL
                                   26125
                                   26126
 0044EA                            26127              TBLFFFF  LABEL
 0044EA FFFFFFFFFFFFFFFF           26129                       DC    256X'FF'
-
0                                  26131
                                   26132
                                   26133                         TBLAMARK - ALPHA TABLE
                                   26134
                                   26135
 0045EA                            26136              TBLAMARK LABEL ,
 0045EA 0000000000000000           26138                       DC    256X'00'
 0046EA                046EA 0466B 26139                       ORG   TBLAMARK+C'a'
 00466B FFFFFFFFFFFFFFFF           26140                       DC    9X'FF'
 004674                04674 0467B 26141                       ORG   TBLAMARK+C'j'
 00467B FFFFFFFFFFFFFFFF           26142                       DC    9X'FF'
 004684                04684 0468C 26143                       ORG   TBLAMARK+C's'
 00468C FFFFFFFFFFFFFFFF           26144                       DC    8X'FF'
 004694                04694 046AB 26145                       ORG   TBLAMARK+C'A'
 0046AB FFFFFFFFFFFFFFFF           26146                       DC    9X'FF'
 0046B4                046B4 046BB 26147                       ORG   TBLAMARK+C'J'
 0046BB FFFFFFFFFFFFFFFF           26148                       DC    9X'FF'
1SCAN     (SCAN2025) (12:54) (15MAR04) SET SKIP/STOP TABLES                                                                 Page  125
0Current Usings:  (NSCNCB,R2) (CP,R11) (CV,R12)
0Loc    Object Code    Addr1 Addr2  Stmt Lv Lineno    Source Statement           (Hibal 5, Asmedit 3.3)  HLASM R4.0  2004/03/15 12.54
+___    ______ ____    _____ _____  ____ __ ______    ______ _________
00046C4                046C4 046CC 26149                       ORG   TBLAMARK+C'S'
 0046CC FFFFFFFFFFFFFFFF           26150                       DC    8X'FF'
 0046D4                046D4 046EA 26151                       ORG
-
0                                  26153
                                   26154
                                   26155                         TBLACLR - ALPHA TABLE, REVERSE VIDEO
                                   26156
                                   26157
 0046EA                            26158              TBLACLR  LABEL ,
 0046EA FFFFFFFFFFFFFFFF           26160                       DC    256X'FF'
 0047EA                047EA 0476B 26161                       ORG   TBLACLR+C'a'
 00476B 0000000000000000           26162                       DC    9X'00'
 004774                04774 0477B 26163                       ORG   TBLACLR+C'j'
 00477B 0000000000000000           26164                       DC    9X'00'
 004784                04784 0478C 26165                       ORG   TBLACLR+C's'
 00478C 0000000000000000           26166                       DC    8X'00'
 004794                04794 047AB 26167                       ORG   TBLACLR+C'A'
 0047AB 0000000000000000           26168                       DC    9X'00'
 0047B4                047B4 047BB 26169                       ORG   TBLACLR+C'J'
 0047BB 0000000000000000           26170                       DC    9X'00'
 0047C4                047C4 047CC 26171                       ORG   TBLACLR+C'S'
 0047CC 0000000000000000           26172                       DC    8X'00'
 0047D4                047D4 047EA 26173                       ORG
-
0                                  26175
                                   26176
                                   26177                         TBLNMARK - NUMERIC TABLE
                                   26178
                                   26179
 0047EA                            26180              TBLNMARK LABEL ,
 0047EA 0000000000000000           26182                       DC    256X'00'
 0048EA                048EA 048DA 26183                       ORG   TBLNMARK+C'0'
 0048DA FFFFFFFFFFFFFFFF           26184                       DC    10X'FF'
 0048E4                048E4 048EA 26185                       ORG
-
0                                  26187
                                   26188
                                   26189                         TBLNCLR - NUMERIC TABLE, REVERSE VIDEO
                                   26190
                                   26191
 0048EA                            26192              TBLNCLR  LABEL ,
 0048EA FFFFFFFFFFFFFFFF           26194                       DC    256X'FF'
 0049EA                049EA 049DA 26195                       ORG   TBLNCLR+C'0'
 0049DA 0000000000000000           26196                       DC    10X'00'
1SCAN     (SCAN2025) (12:54) (15MAR04) SET SKIP/STOP TABLES                                                                 Page  126
0Current Usings:  (NSCNCB,R2) (CP,R11) (CV,R12)
0Loc    Object Code    Addr1 Addr2  Stmt Lv Lineno    Source Statement           (Hibal 5, Asmedit 3.3)  HLASM R4.0  2004/03/15 12.54
+___    ______ ____    _____ _____  ____ __ ______    ______ _________
00049E4                049E4 049EA 26197                       ORG
-
0                                  26199
                                   26200
                                   26201                         TBLSMARK - SPECIAL CHAR TABLE
                                   26202
                                   26203                         NOTE: SPECIAL CHARACTERS ARE ALL PRINTABLE IBM EBCDIC
                                   26204                         CHARACTERS THAT ARE NOT NUMBERS OR ALPHAS.
                                   26205
 0049EA                            26206              TBLSMARK LABEL ,
                                   26208                       COMMENT    0 1 2 3 4 5 6 7 8 9 0 1 2 3 4 5
                                   26209                       COMMENT
 0049EA 0000000000000000           26210                       DC    XL16'00000000000000000000000000000000'     0
 0049FA 0000000000000000           26211                       DC    XL16'00000000000000000000000000000000'     1
 004A0A 0000000000000000           26212                       DC    XL16'00000000000000000000000000000000'     2
 004A1A 0000000000000000           26213                       DC    XL16'00000000000000000000000000000000'     3
 004A2A FF00000000000000           26214                       DC    XL16'FF000000000000000000FFFFFFFFFFFF'     4
 004A3A FF00000000000000           26215                       DC    XL16'FF000000000000000000FFFFFFFFFFFF'     5
 004A4A FFFF000000000000           26216                       DC    XL16'FFFF0000000000000000FFFFFFFFFFFF'     6
 004A5A 0000000000000000           26217                       DC    XL16'000000000000000000FFFFFFFFFFFFFF'     7
 004A6A 0000000000000000           26218                       DC    XL16'00000000000000000000000000000000'     8
 004A7A 0000000000000000           26219                       DC    XL16'00000000000000000000000000000000'     9
 004A8A 00FF000000000000           26220                       DC    XL16'00FF0000000000000000000000000000'     0
 004A9A 0000000000000000           26221                       DC    XL16'00000000000000000000000000000000'     1
 004AAA FF00000000000000           26222                       DC    XL16'FF000000000000000000000000000000'     2
 004ABA FF00000000000000           26223                       DC    XL16'FF000000000000000000000000000000'     3
 004ACA FF00000000000000           26224                       DC    XL16'FF000000000000000000000000000000'     4
 004ADA 0000000000000000           26225                       DC    XL16'00000000000000000000FF0000000000'     5
-
0                                  26227
                                   26228
                                   26229                         TBLSCLR - SPECIAL CHAR TABLE, REVERSE VIDEO
                                   26230
                                   26231                         NOTE: SPECIAL CHARACTERS ARE ALL PRINTABLE IBM EBCDIC
                                   26232                         CHARACTERS THAT ARE NOT NUMBERS OR ALPHAS.
                                   26233
 004AEA                            26234              TBLSCLR  LABEL ,
                                   26236                       COMMENT    0 1 2 3 4 5 6 7 8 9 0 1 2 3 4 5
                                   26237                       COMMENT
 004AEA FFFFFFFFFFFFFFFF           26238                       DC    XL16'FFFFFFFFFFFFFFFFFFFFFFFFFFFFFFFF'     0
 004AFA FFFFFFFFFFFFFFFF           26239                       DC    XL16'FFFFFFFFFFFFFFFFFFFFFFFFFFFFFFFF'     1
 004B0A FFFFFFFFFFFFFFFF           26240                       DC    XL16'FFFFFFFFFFFFFFFFFFFFFFFFFFFFFFFF'     2
 004B1A FFFFFFFFFFFFFFFF           26241                       DC    XL16'FFFFFFFFFFFFFFFFFFFFFFFFFFFFFFFF'     3
 004B2A 00FFFFFFFFFFFFFF           26242                       DC    XL16'00FFFFFFFFFFFFFFFFFF000000000000'     4
 004B3A 00FFFFFFFFFFFFFF           26243                       DC    XL16'00FFFFFFFFFFFFFFFFFF000000000000'     5
 004B4A 0000FFFFFFFFFFFF           26244                       DC    XL16'0000FFFFFFFFFFFFFFFF000000000000'     6
 004B5A FFFFFFFFFFFFFFFF           26245                       DC    XL16'FFFFFFFFFFFFFFFFFF00000000000000'     7
 004B6A FFFFFFFFFFFFFFFF           26246                       DC    XL16'FFFFFFFFFFFFFFFFFFFFFFFFFFFFFFFF'     8
1SCAN     (SCAN2025) (12:54) (15MAR04) SET SKIP/STOP TABLES                                                                 Page  127
0Current Usings:  (NSCNCB,R2) (CP,R11) (CV,R12)
0Loc    Object Code    Addr1 Addr2  Stmt Lv Lineno    Source Statement           (Hibal 5, Asmedit 3.3)  HLASM R4.0  2004/03/15 12.54
+___    ______ ____    _____ _____  ____ __ ______    ______ _________
0004B7A FFFFFFFFFFFFFFFF           26247                       DC    XL16'FFFFFFFFFFFFFFFFFFFFFFFFFFFFFFFF'     9
 004B8A FF00FFFFFFFFFFFF           26248                       DC    XL16'FF00FFFFFFFFFFFFFFFFFFFFFFFFFFFF'     0
 004B9A FFFFFFFFFFFFFFFF           26249                       DC    XL16'FFFFFFFFFFFFFFFFFFFFFFFFFFFFFFFF'     1
 004BAA 00FFFFFFFFFFFFFF           26250                       DC    XL16'00FFFFFFFFFFFFFFFFFFFFFFFFFFFFFF'     2
 004BBA 00FFFFFFFFFFFFFF           26251                       DC    XL16'00FFFFFFFFFFFFFFFFFFFFFFFFFFFFFF'     3
 004BCA 00FFFFFFFFFFFFFF           26252                       DC    XL16'00FFFFFFFFFFFFFFFFFFFFFFFFFFFFFF'     4
 004BDA FFFFFFFFFFFFFFFF           26253                       DC    XL16'FFFFFFFFFFFFFFFFFFFF00FFFFFFFFFF'     5
-
0                                  26255
                                   26256
                                   26257                         TBLIMARK - INVALID CHAR TABLE
                                   26258
                                   26259                         NOTE: INVALID CHARACTERS ARE ALL NON-PRINTABLE IBM EBCDIC
                                   26260                         CHARACTERS.
                                   26261
 004BEA                            26262              TBLIMARK LABEL ,
                                   26264                       COMMENT    0 1 2 3 4 5 6 7 8 9 0 1 2 3 4 5
                                   26265                       COMMENT
 004BEA FFFFFFFFFFFFFFFF           26266                       DC    XL16'FFFFFFFFFFFFFFFFFFFFFFFFFFFFFFFF'     0
 004BFA FFFFFFFFFFFFFFFF           26267                       DC    XL16'FFFFFFFFFFFFFFFFFFFFFFFFFFFFFFFF'     1
 004C0A FFFFFFFFFFFFFFFF           26268                       DC    XL16'FFFFFFFFFFFFFFFFFFFFFFFFFFFFFFFF'     2
 004C1A FFFFFFFFFFFFFFFF           26269                       DC    XL16'FFFFFFFFFFFFFFFFFFFFFFFFFFFFFFFF'     3
 004C2A 00FFFFFFFFFFFFFF           26270                       DC    XL16'00FFFFFFFFFFFFFFFFFF000000000000'     4
 004C3A 00FFFFFFFFFFFFFF           26271                       DC    XL16'00FFFFFFFFFFFFFFFFFF000000000000'     5
 004C4A 0000FFFFFFFFFFFF           26272                       DC    XL16'0000FFFFFFFFFFFFFFFF000000000000'     6
 004C5A FFFFFFFFFFFFFFFF           26273                       DC    XL16'FFFFFFFFFFFFFFFFFF00000000000000'     7
 004C6A FF00000000000000           26274                       DC    XL16'FF000000000000000000FFFFFFFFFFFF'     8
 004C7A FF00000000000000           26275                       DC    XL16'FF000000000000000000FFFFFFFFFFFF'     9
 004C8A FF00000000000000           26276                       DC    XL16'FF000000000000000000FFFFFFFFFFFF'     0
 004C9A FFFFFFFFFFFFFFFF           26277                       DC    XL16'FFFFFFFFFFFFFFFFFFFFFFFFFFFFFFFF'     1
 004CAA 0000000000000000           26278                       DC    XL16'00000000000000000000FFFFFFFFFFFF'     2
 004CBA 0000000000000000           26279                       DC    XL16'00000000000000000000FFFFFFFFFFFF'     3
 004CCA 00FF000000000000           26280                       DC    XL16'00FF0000000000000000FFFFFFFFFFFF'     4
 004CDA 0000000000000000           26281                       DC    XL16'0000000000000000000000FFFFFFFFFF'     5
-
0                                  26283
                                   26284
                                   26285                         TBLICLR - INVALID CHAR TABLE, REVERSE VIDEO
                                   26286
                                   26287                         NOTE: INVALID CHARACTERS ARE ALL NON-PRINTABLE IBM EBCDIC
                                   26288                         CHARACTERS.
                                   26289
 004CEA                            26290              TBLICLR  LABEL ,
                                   26292                       COMMENT    0 1 2 3 4 5 6 7 8 9 0 1 2 3 4 5
                                   26293                       COMMENT
 004CEA 0000000000000000           26294                       DC    XL16'00000000000000000000000000000000'     0
 004CFA 0000000000000000           26295                       DC    XL16'00000000000000000000000000000000'     1
 004D0A 0000000000000000           26296                       DC    XL16'00000000000000000000000000000000'     2
1SCAN     (SCAN2025) (12:54) (15MAR04) SET SKIP/STOP TABLES                                                                 Page  128
0Current Usings:  (NSCNCB,R2) (CP,R11) (CV,R12)
0Loc    Object Code    Addr1 Addr2  Stmt Lv Lineno    Source Statement           (Hibal 5, Asmedit 3.3)  HLASM R4.0  2004/03/15 12.54
+___    ______ ____    _____ _____  ____ __ ______    ______ _________
0004D1A 0000000000000000           26297                       DC    XL16'00000000000000000000000000000000'     3
 004D2A FF00000000000000           26298                       DC    XL16'FF000000000000000000FFFFFFFFFFFF'     4
 004D3A FF00000000000000           26299                       DC    XL16'FF000000000000000000FFFFFFFFFFFF'     5
 004D4A FFFF000000000000           26300                       DC    XL16'FFFF0000000000000000FFFFFFFFFFFF'     6
 004D5A 0000000000000000           26301                       DC    XL16'000000000000000000FFFFFFFFFFFFFF'     7
 004D6A 00FFFFFFFFFFFFFF           26302                       DC    XL16'00FFFFFFFFFFFFFFFFFF000000000000'     8
 004D7A 00FFFFFFFFFFFFFF           26303                       DC    XL16'00FFFFFFFFFFFFFFFFFF000000000000'     9
 004D8A 00FFFFFFFFFFFFFF           26304                       DC    XL16'00FFFFFFFFFFFFFFFFFF000000000000'     0
 004D9A 0000000000000000           26305                       DC    XL16'00000000000000000000000000000000'     1
 004DAA FFFFFFFFFFFFFFFF           26306                       DC    XL16'FFFFFFFFFFFFFFFFFFFF000000000000'     2
 004DBA FFFFFFFFFFFFFFFF           26307                       DC    XL16'FFFFFFFFFFFFFFFFFFFF000000000000'     3
 004DCA FF00FFFFFFFFFFFF           26308                       DC    XL16'FF00FFFFFFFFFFFFFFFF000000000000'     4
 004DDA FFFFFFFFFFFFFFFF           26309                       DC    XL16'FFFFFFFFFFFFFFFFFFFFFF0000000000'     5
-
0                                  26311
                                   26312
                                   26313                         TBLCMARK - CONTROL CHARACTERS
                                   26314
                                   26315                       CONTROL CHARACTERS ARE X'00' THRU X'3F'    (LOCAL DEFINITION)
                                   26316
 004DEA                            26317              TBLCMARK LABEL ,
 004DEA 0000000000000000           26319                       DC    256X'00'
 004EEA                04EEA 04DEA 26320                       ORG   TBLCMARK+X'00'
 004DEA FFFFFFFFFFFFFFFF           26321                       DC    64X'FF'
 004E2A                04E2A 04EEA 26322                       ORG
-
0                                  26324
                                   26325
                                   26326                         TBLCCLR - CONTROL CHARACTERS, REVERSE VIDEO
                                   26327
                                   26328                       CONTROL CHARACTERS ARE X'00' THRU X'3F'    (LOCAL DEFINITION)
                                   26329
 004EEA                            26330              TBLCCLR  LABEL ,
 004EEA FFFFFFFFFFFFFFFF           26332                       DC    256X'FF'
 004FEA                04FEA 04EEA 26333                       ORG   TBLCCLR+X'00'
 004EEA 0000000000000000           26334                       DC    64X'00'
 004F2A                04F2A 04FEA 26335                       ORG
-
1SCAN     (SCAN2025) (12:54) (15MAR04) SET SKIP/STOP TABLES                                                                 Page  129
0Current Usings:  (NSCNCB,R2) (CP,R11) (CV,R12)
0Loc    Object Code    Addr1 Addr2  Stmt Lv Lineno    Source Statement           (Hibal 5, Asmedit 3.3)  HLASM R4.0  2004/03/15 12.54
+___    ______ ____    _____ _____  ____ __ ______    ______ _________
0                                  26337
                                   26338
                                   26339                         TBLWMARK - WYLBUR STOP CHARACTERS
                                   26340
                                   26341                         NOTE: WYLBUR DEFAULT STOP CHARACTERS, IE. TABLE WYLBUR
                                   26342                         USES FOR STOPING COMMAND SCANS.  HISTORICAL GARBAGE.
                                   26343
 004FEA                            26344              TBLWMARK LABEL ,
                                   26346              ***
                                   26347              ***  SHOULD BE SAME, COPIED FROM CLTBL  (WYLBUR CLASS TABLE)
                                   26348              ***
 004FEA FFFFFFFFFFFFFFFF           26349                       DC    256X'FF'           ASSUME ALL ARE STOP CHARACTERS
 0050EA                050EA 0506B 26350                       ORG   TBLWMARK+C'a'        EXCEPT AS FOLLOWS,,,
 00506B 0000000000000000           26351                       DC    9X'00'
 005074                05074 0507B 26352                       ORG   TBLWMARK+C'j'
 00507B 0000000000000000           26353                       DC    9X'00'
 005084                05084 0508C 26354                       ORG   TBLWMARK+C's'
 00508C 0000000000000000           26355                       DC    8X'00'
 005094                05094 050AB 26356                       ORG   TBLWMARK+C'A'
 0050AB 0000000000000000           26357                       DC    9X'00'
 0050B4                050B4 050BB 26358                       ORG   TBLWMARK+C'J'
 0050BB 0000000000000000           26359                       DC    9X'00'
 0050C4                050C4 050CC 26360                       ORG   TBLWMARK+C'S'
 0050CC 0000000000000000           26361                       DC    8X'00'
 0050D4                050D4 050DA 26362                       ORG   TBLWMARK+C'0'
 0050DA 0000000000000000           26363                       DC    10X'00'
 0050E4                050E4 05035 26364                       ORG   TBLWMARK+C'.'
 005035 00                         26365                       DC    X'00'
 005036                05036 05045 26366                       ORG   TBLWMARK+C'$'
 005045 00                         26367                       DC    X'00'
 005046                05046 05066 26368                       ORG   TBLWMARK+C'@'
 005066 00                         26369                       DC    X'00'
 005067                05067 05065 26370                       ORG   TBLWMARK+C'#'
 005065 00                         26371                       DC    X'00'
 005066                05066 0503A 26372                       ORG   TBLWMARK+C'&&'
 00503A 00                         26373                       DC    X'00'
 00503B                0503B 05057 26374                       ORG   TBLWMARK+C'_'
 005057 00                         26375                       DC    X'00'
 005058                05058 05034 26376                       ORG   TBLWMARK+C'^'          Cent sign
 005034 00                         26377                       DC    X'00'
 005035                05035 05044 26378                       ORG   TBLWMARK+C'!'          Exp. point
 005044 00                         26379                       DC    X'00'
 005045                05045 05036 26380                       ORG   TBLWMARK+C'<'
 005036 00                         26381                       DC    X'00'
 005037                05037 05058 26382                       ORG   TBLWMARK+C'>'
 005058 00                         26383                       DC    X'00'
 005059                05059 05064 26384                       ORG   TBLWMARK+C':'
 005064 00                         26385                       DC    X'00'
 005065                05065 05056 26386                       ORG   TBLWMARK+C'%'
 005056 00                         26387                       DC    X'00'
 005057                05057 05097 26388                       ORG   TBLWMARK+C'['
 005097 00                         26389                       DC    X'00'
 005098                05098 050A7 26390                       ORG   TBLWMARK+C']'
 0050A7 00                         26391                       DC    X'00'
1SCAN     (SCAN2025) (12:54) (15MAR04) SET SKIP/STOP TABLES                                                                 Page  130
0Current Usings:  (NSCNCB,R2) (CP,R11) (CV,R12)
0Loc    Object Code    Addr1 Addr2  Stmt Lv Lineno    Source Statement           (Hibal 5, Asmedit 3.3)  HLASM R4.0  2004/03/15 12.54
+___    ______ ____    _____ _____  ____ __ ______    ______ _________
00050A8                050A8 050AA 26392                       ORG   TBLWMARK+C'{'
 0050AA 00                         26393                       DC    X'00'
 0050AB                050AB 050BA 26394                       ORG   TBLWMARK+C'}'
 0050BA 00                         26395                       DC    X'00'
 0050BB                050BB 050CA 26396                       ORG   TBLWMARK+C'\'
 0050CA 00                         26397                       DC    X'00'
 0050CB                050CB 05063 26398                       ORG   TBLWMARK+C'`'
 005063 00                         26399                       DC    X'00'
 005064                05064 05059 26400                       ORG   TBLWMARK+C'?'
 005059 00                         26401                       DC    X'00'
 00505A                0505A 05046 26402                       ORG   TBLWMARK+C'*'       believe it or not, EVAL and
 005046 00                         26403                       DC    X'00'               JES do own scanning
 005047                05047 050EA 26404                       ORG
-
0                                  26406
                                   26407
                                   26408                         TBLWCLR - WYLBUR STOP CHARACTERS, REVERSE VIDEO
                                   26409
                                   26410                         NOTE: WYLBUR DEFAULT STOP CHARACTERS, IE. TABLE WYLBUR
                                   26411                         USES FOR STOPING COMMAND SCANS.  HISTORICAL GARBAGE.
                                   26412
 0050EA                            26413              TBLWCLR  LABEL ,
                                   26415              ***
                                   26416              ***  SHOULD BE SAME, COPIED FROM CLTBL  (WYLBUR CLASS TABLE)
                                   26417              ***
 0050EA 0000000000000000           26418                       DC    256X'00'           ASSUME ALL ARE STOP CHARACTERS
 0051EA                051EA 0516B 26419                       ORG   TBLWCLR+C'a'        EXCEPT AS FOLLOWS,,,
 00516B FFFFFFFFFFFFFFFF           26420                       DC    9X'FF'
 005174                05174 0517B 26421                       ORG   TBLWCLR+C'j'
 00517B FFFFFFFFFFFFFFFF           26422                       DC    9X'FF'
 005184                05184 0518C 26423                       ORG   TBLWCLR+C's'
 00518C FFFFFFFFFFFFFFFF           26424                       DC    8X'FF'
 005194                05194 051AB 26425                       ORG   TBLWCLR+C'A'
 0051AB FFFFFFFFFFFFFFFF           26426                       DC    9X'FF'
 0051B4                051B4 051BB 26427                       ORG   TBLWCLR+C'J'
 0051BB FFFFFFFFFFFFFFFF           26428                       DC    9X'FF'
 0051C4                051C4 051CC 26429                       ORG   TBLWCLR+C'S'
 0051CC FFFFFFFFFFFFFFFF           26430                       DC    8X'FF'
 0051D4                051D4 051DA 26431                       ORG   TBLWCLR+C'0'
 0051DA FFFFFFFFFFFFFFFF           26432                       DC    10X'FF'
 0051E4                051E4 05135 26433                       ORG   TBLWCLR+C'.'
 005135 FF                         26434                       DC    X'FF'
 005136                05136 05145 26435                       ORG   TBLWCLR+C'$'
 005145 FF                         26436                       DC    X'FF'
 005146                05146 05166 26437                       ORG   TBLWCLR+C'@'
 005166 FF                         26438                       DC    X'FF'
 005167                05167 05165 26439                       ORG   TBLWCLR+C'#'
 005165 FF                         26440                       DC    X'FF'
 005166                05166 0513A 26441                       ORG   TBLWCLR+C'&&'
 00513A FF                         26442                       DC    X'FF'
 00513B                0513B 05157 26443                       ORG   TBLWCLR+C'_'
1SCAN     (SCAN2025) (12:54) (15MAR04) SET SKIP/STOP TABLES                                                                 Page  131
0Current Usings:  (NSCNCB,R2) (CP,R11) (CV,R12)
0Loc    Object Code    Addr1 Addr2  Stmt Lv Lineno    Source Statement           (Hibal 5, Asmedit 3.3)  HLASM R4.0  2004/03/15 12.54
+___    ______ ____    _____ _____  ____ __ ______    ______ _________
0005157 FF                         26444                       DC    X'FF'
 005158                05158 05134 26445                       ORG   TBLWCLR+C'^'          Cent sign
 005134 FF                         26446                       DC    X'FF'
 005135                05135 05144 26447                       ORG   TBLWCLR+C'!'          Exp. point
 005144 FF                         26448                       DC    X'FF'
 005145                05145 05136 26449                       ORG   TBLWCLR+C'<'
 005136 FF                         26450                       DC    X'FF'
 005137                05137 05158 26451                       ORG   TBLWCLR+C'>'
 005158 FF                         26452                       DC    X'FF'
 005159                05159 05164 26453                       ORG   TBLWCLR+C':'
 005164 FF                         26454                       DC    X'FF'
 005165                05165 05156 26455                       ORG   TBLWCLR+C'%'
 005156 FF                         26456                       DC    X'FF'
 005157                05157 05197 26457                       ORG   TBLWCLR+C'['
 005197 FF                         26458                       DC    X'FF'
 005198                05198 051A7 26459                       ORG   TBLWCLR+C']'
 0051A7 FF                         26460                       DC    X'FF'
 0051A8                051A8 051AA 26461                       ORG   TBLWCLR+C'{'
 0051AA FF                         26462                       DC    X'FF'
 0051AB                051AB 051BA 26463                       ORG   TBLWCLR+C'}'
 0051BA FF                         26464                       DC    X'FF'
 0051BB                051BB 051CA 26465                       ORG   TBLWCLR+C'\'
 0051CA FF                         26466                       DC    X'FF'
 0051CB                051CB 05163 26467                       ORG   TBLWCLR+C'`'
 005163 FF                         26468                       DC    X'FF'
 005164                05164 05159 26469                       ORG   TBLWCLR+C'?'
 005159 FF                         26470                       DC    X'FF'
 00515A                0515A 051EA 26471                       ORG
-                                  26473
                                   26474
                                   26475                         MISC TABLES
                                   26476
                                   26477
 0051EA 4040404040404040           26478              TBLBLANK DC    256C' '             BLANKS
                                   26479
 0052EA                            26480              TBLUPPER LABEL ,                   TR CONVERT TO UPPER
 0052EA 0001020304050607           26482                       DC    256AL1(*-TBLUPPER)
 0053EA                053EA 0536B 26483                       ORG   TBLUPPER+C'a'
 00536B C1C2C3C4C5C6C7C8           26484                       DC    C'ABCDEFGHI'
 005374                05374 0537B 26485                       ORG   TBLUPPER+C'j'
 00537B D1D2D3D4D5D6D7D8           26486                       DC    C'JKLMNOPQR'
 005384                05384 0538C 26487                       ORG   TBLUPPER+C's'
 00538C E2E3E4E5E6E7E8E9           26488                       DC    C'STUVWXYZ'
 005394                05394 053EA 26489                       ORG
1SCAN     (SCAN2025) (12:54) (15MAR04) SET SKIP/STOP TABLES                                                                 Page  132
0Current Usings:  (NSCNCB,R2) (CP,R11) (CV,R12)
0Loc    Object Code    Addr1 Addr2  Stmt Lv Lineno    Source Statement           (Hibal 5, Asmedit 3.3)  HLASM R4.0  2004/03/15 12.54
+___    ______ ____    _____ _____  ____ __ ______    ______ _________
0                                  26491                       QLTORG
1SCAN     (SCAN2025) (12:54) (15MAR04) MISC SCANNER/PARSE ROUTINES                                                          Page  133
0Current Usings:  (NSCNCB,R2) (CP,R11) (CV,R12)
0Loc    Object Code    Addr1 Addr2  Stmt Lv Lineno    Source Statement           (Hibal 5, Asmedit 3.3)  HLASM R4.0  2004/03/15 12.54
+___    ______ ____    _____ _____  ____ __ ______    ______ _________
0                                  26504              *
                                   26505              **
                                   26506              **  NOTVALID - GIVE 'TOKEN: invalid' MESSAGE
                                   26507              **
                                   26508              **  ON ENTRY:
                                   26509              **    CPNSCANP - POINTER TO SCAN CONTROL BLOCK
                                   26510              **
                                   26511              **  NOTE, CAUTION:
                                   26512              **  DOES NOT RETURN,,, EXITS VIA ERROR EXIT.
                                   26513              **
                                   26514              **  NOTE, CAUTION:
                                   26515              **  CPNSCANP MUST HAVE POINTER TO SCAN CB !
                                   26516              **
                                   26517              **
                                   26518              *
 0053F0 50E0 D000/9008_      00000 26519              NOTVALID XPROC ,
 USING  *,R7
 00540A 5820 B08C            0008C 26559                       L     R2,CPNSCANP
                                   26560                       USING NSCNCB,R2
                                   26562
 00540E 1900/4780 7010             26563                       IF    (R0,NE,R0),BEGIN    ZAP TO SEND CMDS TO SPIRES
 005414 58E0 75B6/0DEE       059C0 26578  1                      VCALL ORVCPASS
                                   26582  1                      COMMENT DOES NOT RETURN IF SPIRES CMD
 00541A                            26583                       END
                                   26587
 00541A D603 B05C B05C_0005C 0005C 26588                       TCCR  ,,,                 PUT OUT CR IF NEEDED
                                   26650
 00543A 5810 2010            00010 26651                       L     R1,NSCNTLOC
 00543E 5800 2014            00014 26652                       L     R0,NSCNTLEN
 005442 5900 75BE/47D0_      059C8 26653                       CEIL  R0,32
 00544E 41F0 B050/58E0_      00050 26672                       TSEG  (R1),(R0)
 005458 D207 B886 75AE_00886 059B8 26696                       ERROR  ': invalid.',,SYNTAX
 00546A 18D8/9808 D004_            26704                       PEND  ,
 DROP   *,R7
 DROP   NSCNCB,R2                  26724                       DROP  R2
1SCAN     (SCAN2025) (12:54) (15MAR04) MISC SCANNER/PARSE ROUTINES                                                          Page  134
0Current Usings:  (CP,R11) (CV,R12)
0Loc    Object Code    Addr1 Addr2  Stmt Lv Lineno    Source Statement           (Hibal 5, Asmedit 3.3)  HLASM R4.0  2004/03/15 12.54
+___    ______ ____    _____ _____  ____ __ ______    ______ _________
0                                  26732              *
                                   26733              *
                                   26734              **
                                   26735              **  SCNNOOP  - DO NOTHING SCAN PROCESSING ROUTINE
                                   26736              **
                                   26737              *
 005478 50E0 D000/9008_      00000 26738              SCNNOOP  XPROC
 USING  *,R7
 005492 18D8/9808 D004_            26778                       PEND
 DROP   *,R7
1SCAN     (SCAN2025) (12:54) (15MAR04) MISC SCANNER/PARSE ROUTINES                                                          Page  135
0Current Usings:  (CP,R11) (CV,R12)
0Loc    Object Code    Addr1 Addr2  Stmt Lv Lineno    Source Statement           (Hibal 5, Asmedit 3.3)  HLASM R4.0  2004/03/15 12.54
+___    ______ ____    _____ _____  ____ __ ______    ______ _________
0                                  26799              *
                                   26800              **
                                   26801              **  SCSEG - SEG A MESSAGE TO THE SCAN MESSAGE BUFFER
                                   26802              **
                                   26803              **  ON ENTRY: R1,R0 MESSAGE LOC,LEN,  R2 - SCAN CONTROL BLOCK
                                   26804              **  ON EXIT: R15 = -4, MESSAGE ADDED TO SCAN CONTROL BLOCK
                                   26805              **
                                   26806              **
                                   26807              *
 0054A0 50E0 D000/9008_      00000 26808              SCSEG    XPROC
 USING  *,R7
 USING  NSCNCB,R2                  26848                       USING NSCNCB,R2
                                   26857
                                   26858                       COMMENT                   R4,R5 - DEST, LOC, LEN
                                   26859                       COMMENT                   R1 - LOCATION, LEN
 0054BA 4130 0050            00050 26860                       LA    R3,L'NSCNMSG        Total message length
 0054BE 5B30 205C            0005C 26861                       S     R3,NSCNMSGL         Space remaining
 0054C2 1903/47D0 7010_            26862                       CEIL  R0,R3               Not too much now
 0054CA 1200/47D0 703A             26868                       IF    (R0,POS),BEGIN      We can add something...
 0054D0 1830                       26882  1                      LR    R3,R0               R3 - TOTAL MSG LENGTH
 0054D2 5A30 205C            0005C 26883  1                      A     R3,NSCNMSGL
 0054D6 4140 2060            00060 26884  1                      LA    R4,NSCNMSG
 0054DA 5A40 205C            0005C 26885  1                      A     R4,NSCNMSGL
 0054DE 1850                       26886  1                      LR    R5,R0
 0054E0 0650/1255/4740_            26887  1                      MOVE  R5,@R4,@R1          MOVE IN MSG
 0054EC 5A00 205C            0005C 26925  1                      A     R0,NSCNMSGL         SAVE MSG LENGTH
 0054F0 5000 205C            0005C 26926  1                      ST    R0,NSCNMSGL
 0054F4                            26927                       END
                                   26931
 0054F4 58F0 7516            059D0 26932                       L     R15,=F'-4'
 0054F8 18D8/9808 D004_            26933                       PEND
 DROP   *,R7
 DROP   NSCNCB,R2                  26953                       DROP  R2
1SCAN     (SCAN2025) (12:54) (15MAR04) MISC SCANNER/PARSE ROUTINES                                                          Page  136
0Current Usings:  (CP,R11) (CV,R12)
0Loc    Object Code    Addr1 Addr2  Stmt Lv Lineno    Source Statement           (Hibal 5, Asmedit 3.3)  HLASM R4.0  2004/03/15 12.54
+___    ______ ____    _____ _____  ____ __ ______    ______ _________
0                                  26961              *
                                   26962              **
                                   26963              **  SCNINVAL - INVALID SCAN
                                   26964              **
                                   26965              **  ON ENTRY:
                                   26966              **       R2 - SCAN CONTROL BLOCK
                                   26967              **
                                   26968              **  ON EXIT:
                                   26969              **       INVALID MESSAGE PLACED IN SCAN CB.
                                   26970              **       R15 RETURNED AS NEGATIVE
                                   26971              **
                                   26972              **  NOTE, CAUTION:
                                   26973              **  R2 IS ASSUMED TO POINT TO SCAN CB.
                                   26974              **
                                   26975              *
 005506 50E0 D000/9008_      00000 26976              SCNINVAL XPROC ,
 USING  *,R7
 USING  NSCNCB,R2                  27016                       USING NSCNCB,R2
                                   27025
                                   27026                       COMMENT                   R1,R0 - TOKEN LOC,LEN
 005520 5810 2010            00010 27027                       L     R1,NSCNTLOC
 005524 5800 2014            00014 27028                       L     R0,NSCNTLEN
 005528 5900 74A8/47D0_      059C8 27029                       CEIL  R0,32
 005534 5820 B08C/58E0_      0008C 27048                       SCSEG (R1),(R0)
 00553E 4110 74E6/4100_      05A06 27066                       SCSEG ': invalid. '
                                   27078
 005550 58F0 74B0            059D0 27079                       L     R15,=F'-4'
 005554 18D8/9808 D004_            27080                       PEND  ,
 DROP   *,R7
 DROP   NSCNCB,R2                  27100                       DROP  R2
1SCAN     (SCAN2025) (12:54) (15MAR04) MISC SCANNER/PARSE ROUTINES                                                          Page  137
0Current Usings:  (CP,R11) (CV,R12)
0Loc    Object Code    Addr1 Addr2  Stmt Lv Lineno    Source Statement           (Hibal 5, Asmedit 3.3)  HLASM R4.0  2004/03/15 12.54
+___    ______ ____    _____ _____  ____ __ ______    ______ _________
0                                  27108              *
                                   27109              **
                                   27110              **  SCAN CHECK
                                   27111              **
                                   27112              **  ON ENTRY:
                                   27113              **       CPNSCANP - SCAN CONTROL BLOCK
                                   27114              **       R15 - RETURN COND FROM SCAN CALL
                                   27115              **
                                   27116              **  IF R15 IS A NEGATIVE RETURN CODE, WE PRINT THE ERROR
                                   27117              **  MESSAGE AND ABORT THE COMMAND.   IF R15 IS >= 0, WE
                                   27118              **  RETURN TO THE CALLER.
                                   27119              **
                                   27120              **  CAUTION:
                                   27121              **    IF R15 IS NEGATIVE, THIS ROUTINE WILL NOT RETURN.
                                   27122              **
                                   27123              **  CAUTION:
                                   27124              **    DO NOT CALL SCANCHK FROM WITHIN SCAN MODULE. IT USES
                                   27125              **    CPNSCANP POINTER.
                                   27126              **
                                   27127              **  NOTE:
                                   27128              **    CPNSCANP MUST POINT TO SCAN CONTROL BLOCK.  THIS
                                   27129              **    MAY NOT BE THE CASE DURING INITIALIZATION.  WE DO
                                   27130              **    NOT PASS SCAN CB IN R0 OR R1, BECAUSE THOSE ARE
                                   27131              **    SET WITH SCAN RETURNS THAT WE DO NOT WANT TO DIDDLE.
                                   27132              **    IT WOULD BE NICE NOT TO HAVE TO MAKE THIS ASSUMPTION
                                   27133              **    AND USE THE SCCBADR MACRO OF THE CALLER... BUT THIS
                                   27134              **    IS NOT POSSIBLE HERE.  (SCCBADR IS DIFFERENT IN SCAN
                                   27135              **    MODULE).   OH WELL FOR NOW.
                                   27136              *
 005562 50E0 D000/9008_      00000 27137              SCANCHK  XPROC
 USING  *,R7
 USING  NSCNCB,R2                  27177                       USING NSCNCB,R2
 00557C 5820 B08C            0008C 27186                       L     R2,CPNSCANP         * !!!!
                                   27187
                                   27188                       COMMENT                   IF SCAN ERROR
 005580 12FF/47B0 703C             27189                       IF    (R15,NEG),BEGIN
                                   27203  1                      COMMENT                   WRITE OUT SCAN ERROR
 005586 D603 B05C B05C_0005C 0005C 27204  1                      TCCR  ,,
 0055A6 5800 205C            0005C 27266  1                      L     R0,NSCNMSGL
 0055AA 4110 2060            00060 27267  1                      LA    R1,NSCNMSG
 0055AE D207 B886 743C_00886 059B8 27268  1                      ERROR (R1),(R0),SYNTAX
 0055B8                            27282                       END
                                   27286
 0055B8 18D8/9808 D004_            27287                       PEND
 DROP   *,R7
 DROP   NSCNCB,R2                  27307                       DROP  R2
1SCAN     (SCAN2025) (12:54) (15MAR04) MISC SCANNER/PARSE ROUTINES                                                          Page  138
0Current Usings:  (CP,R11) (CV,R12)
0Loc    Object Code    Addr1 Addr2  Stmt Lv Lineno    Source Statement           (Hibal 5, Asmedit 3.3)  HLASM R4.0  2004/03/15 12.54
+___    ______ ____    _____ _____  ____ __ ______    ______ _________
0                                  27315              *
                                   27316              **
                                   27317              **  SCAN DEQUOTE
                                   27318              **
                                   27319              **  THIS ROUTINE WILL DEQUOTE IF QUOTED,  IF NOT
                                   27320              **  QUOTED THIS ROUTINE WILL UPPER CASE ..
                                   27321              **  THE ROUTINE WILL TRUNCATE IF NECESSARY.
                                   27322              **
                                   27323              **  ON ENTRY:
                                   27324              **       R1,R0 - DEQUOTED OUTPUT LOC, LEN
                                   27325              **       R15 - SCAN CONTROL BLOCK
                                   27326              **       NSCNTLOC, NSCNTLEN - TOKEN LOC, LEN (POSSIBLY QUOTED)
                                   27327              **
                                   27328              **  ON EXIT:
                                   27329              **       R1,R0 - DEQUOTED OUTPUT LOC, ACTUAL LEN
                                   27330              **       R15 - ZERO
                                   27331              *
 0055C6 50E0 D000/9008_      00000 27332              SCDQUOTE XPROC ,
 USING  *,R7
 0055E0 186F                       27372                       LR    R6,R15
 USING  NSCNCB,R6                  27373                       USING NSCNCB,R6
                                   27382
                                   27383                       COMMENT                   BLANK STRING
 0055E2 1821                       27384                       LR    R2,R1
 0055E4 1830                       27385                       LR    R3,R0
 0055E6 5850 73F8            059D8 27386                       L     R5,=X'40000000'
 0055EA 0E24                       27387                       MVCL  R2,R4
                                   27388
                                   27389                       COMMENT                   R2,R3 TOKEN LOC, LEN
 0055EC 5820 6010            00010 27390                       L     R2,NSCNTLOC
 0055F0 5830 6014            00014 27391                       L     R3,NSCNTLEN
                                   27392
                                   27393                       COMMENT                   CHECK IF QUOTED  ,,,
 0055F4 5930 73FC/4740_      059DC 27394                       IF    (R3,LT,2),NOTQUOTE
 0055FC 957D 2000/4780_00000       27414                       IF    ((@R2,NE,''''),AND,(@R2,NE,'"')),NOTQUOTE
 00560C 1842                       27448                       LR    R4,R2
 00560E 1A43                       27449                       AR    R4,R3
 005610 0640                       27450                       DECR  R4
 005612 D500 4000 2000_00000 00000 27452                       IF    ('CLC @R4(1),@R2',NE),NOTQUOTE
                                   27468
                                   27469                       COMMENT                   IF QUOTED, DEQUOTE
 00561C 1842                       27470                       LR    R4,R2               R4 - QUOTE TYPE
 00561E 1851                       27471                       LR    R5,R1               R5 - START OF DEST
 005620 4122 0001            00001 27472                       LA    R2,1(R2)            R2,R3 - SOURCE
 005624 0630                       27473                       DECR  R3                  R1,R0 - DEST
 005626 0630                       27475                       DECR  R3
 005628 1930/47D0 7050_            27477                       IF    (R3,GT,R0),' LR R3,R0 '
 005630 1233/47D0 708A             27498                       WHILE (R3,POS),BEGIN      Move string a char at a time...
 005636 D200 1000 2000 00000 00000 27514  1                      MVC   @R1(1),@R2
 00563C D500 2000 4000_00000 00000 27515  1                      IF    ('CLC @R2(1),@R4',EQ),BEGIN  Check for two quotes...
 005646 1233/47D0 707C_            27528  2                        IF    ((R3,POS),AND,('CLC @R2(1),@R2+1',EQ)),BEGIN
 005656 4120 2001            00001 27554  3                          LA    R2,@R2+1            Skip second quote
 00565A 0630                       27555  3                          DECR  R3
 00565C                            27557  2                        END
1SCAN     (SCAN2025) (12:54) (15MAR04) MISC SCANNER/PARSE ROUTINES                                                          Page  139
0Current Usings:  (NSCNCB,R6) (*,R7) (CP,R11) (CV,R12)
0Loc    Object Code    Addr1 Addr2  Stmt Lv Lineno    Source Statement           (Hibal 5, Asmedit 3.3)  HLASM R4.0  2004/03/15 12.54
+___    ______ ____    _____ _____  ____ __ ______    ______ _________
000565C                            27561  1                      END
                                   27565  1
 00565C 4110 1001            00001 27566  1                      LA    R1,@R1+1
 005660 4120 2001            00001 27567  1                      LA    R2,@R2+1
 005664 0630                       27568  1                      DECR  R3
 005666 47F0 7050            05630 27570                       END
 00566A 1801                       27575                       LR    R0,R1
 00566C 1815                       27576                       LR    R1,R5
 00566E 1B01                       27577                       SR    R0,R1
 005670 47F0 70CA            056AA 27578                       B     SCDQDONE
                                   27579
 005674                            27580              NOTQUOTE LABEL ,
 005674 1841                       27582                       LR    R4,R1               MOVE IT
 005676 1850                       27583                       LR    R5,R0
 005678 5820 6010            00010 27584                       L     R2,NSCNTLOC
 00567C 5830 6014            00014 27585                       L     R3,NSCNTLEN
 005680 5630 73F8            059D8 27586                       O     R3,=X'40000000'
 005684 0E42                       27587                       MVCL  R4,R2
 005686 1841                       27588                       LR    R4,R1
 005688 1850                       27589                       LR    R5,R0               TO UPPER ,,
 00568A 58E0 C8A8            008A8 27590                       L     R14,CVUPPTBL
 00568E 1255/47D0 70BA             27591                       IF    (R5,POS),BEGIN
 005694 0650/4450 7456_            27605  1                      DEX   R5,' TR @R4(0),@R14 '
 00569A                            27624                       END
 00569A 5900 6014/47D0_      00014 27628                       IF    (R0,GT,NSCNTLEN),BEGIN
 0056A2 5800 6014            00014 27645  1                      L     R0,NSCNTLEN
 0056A6                            27646                       END
 0056A6 47F0 70CA            056AA 27650                       B     SCDQDONE
                                   27651
 0056AA                            27652              SCDQDONE LABEL ,
 0056AA 9001 8004            00004 27654                       PRETURN (R0,R1)
 0056AE 1BFF                       27656                       CLEAR R15
 0056B0 18D8/9808 D004_            27660                       PEND  ,
 DROP   *,R7
 DROP   NSCNCB,R6                  27680                       DROP  R6
1SCAN     (SCAN2025) (12:54) (15MAR04) MISC SCANNER/PARSE ROUTINES                                                          Page  140
0Current Usings:  (CP,R11) (CV,R12)
0Loc    Object Code    Addr1 Addr2  Stmt Lv Lineno    Source Statement           (Hibal 5, Asmedit 3.3)  HLASM R4.0  2004/03/15 12.54
+___    ______ ____    _____ _____  ____ __ ______    ______ _________
0                                  27688              *
                                   27689              **
                                   27690              **  CHECK QUOTES
                                   27691              **
                                   27692              **  IF NO QUOTES, ERROR
                                   27693              **  ALL ERRORS EXIT VIA CVERROR W/ERROR MSG
                                   27694              **
                                   27695              **  ON ENTRY: R1,R0 - TOKEN LOCATION, LENGTH
                                   27696              **  ON EXIT: R15 - ZERO
                                   27697              **
                                   27698              *
 0056BE 50E0 D000/9008_      00000 27699              CKQUOTES XPROC ,
 USING  *,R7
 0056D8 5900 7304/4740_      059DC 27739                       IF    (R0,LT,2),BADQUOTE
 0056E0 957D 1000/4780_00000       27759                       IF    ((@R1,NE,''''),AND,(@R1,NE,'"')),BADQUOTE
 0056F0 1821                       27793                       LR    R2,R1
 0056F2 1A20                       27794                       AR    R2,R0
 0056F4 0620                       27795                       DECR  R2                  R2 - END OF QUOTES
 0056F6 957D 2000/4780_00000       27797                       IF    ((@R2,NE,''''),AND,(@R2,NE,'"')),BADQUOTE
 005706 47F0 7048            05720 27831                       B     OKQUOTE
                                   27832
 00570A                            27833              BADQUOTE LABEL ,
 00570A 41F0 B050/58E0_      00050 27835                       TSEG  (R1),(R0)
 005714 4110 7339/4100_      05A11 27859                       ERROR ': invalid.  Missing quotes.'
                                   27866
 005720                            27867              OKQUOTE  LABEL ,
 005720 1BFF                       27869                       CLEAR R15
 005722 18D8/9808 D004_            27873                       PEND  ,
 DROP   *,R7
1SCAN     (SCAN2025) (12:54) (15MAR04) MISC SCANNER/PARSE ROUTINES                                                          Page  141
0Current Usings:  (CP,R11) (CV,R12)
0Loc    Object Code    Addr1 Addr2  Stmt Lv Lineno    Source Statement           (Hibal 5, Asmedit 3.3)  HLASM R4.0  2004/03/15 12.54
+___    ______ ____    _____ _____  ____ __ ______    ______ _________
0                                  27894              *
                                   27895              **
                                   27896              **  SCAN UPPER CASE
                                   27897              **
                                   27898              **  THIS ROUTINE WILL UPPER CASE TOKEN AND PUT
                                   27899              **  IT BLANK PADDED INTO THE CELL POINTED AT BY R1.
                                   27900              **  THE ROUTINE WILL TRUNCATE IF NECESSARY.
                                   27901              **
                                   27902              **
                                   27903              **  ON ENTRY:
                                   27904              **       R1,R0 - CELL LOC, LEN
                                   27905              **       R15 - SCAN CONTROL BLOCK
                                   27906              **       NSCNTLOC, NSCNTLEN - TOKEN LOC, LEN
                                   27907              **
                                   27908              **  ON EXIT:
                                   27909              **       R1,R0 - OUTPUT LOC, ACTUAL LEN
                                   27910              **       R15 - ZERO
                                   27911              **
                                   27912              **  NOTE:
                                   27913              **  YOU CAN UPPER CASE A TOKEN IN PLACE IF YOU USE THE
                                   27914              **  ACTUAL TOKEN LEN  (IE. SCUPCASE (R1),(R0))
                                   27915              *
 005730 50E0 D000/9008_      00000 27916              SCUPCASE XPROC ,
 USING  *,R7
 00574A 186F                       27956                       LR    R6,R15
 USING  NSCNCB,R6                  27957                       USING NSCNCB,R6
                                   27966
                                   27967                       COMMENT                   MOVE TOKEN, UPPER CASE IT
 00574C 1841                       27968                       LR    R4,R1               R4,R5 - CELL LOCATION
 00574E 1850                       27969                       LR    R5,R0
 005750 5820 6010            00010 27970                       L     R2,NSCNTLOC         R2,R3 - TOKEN
 005754 5830 6014            00014 27971                       L     R3,NSCNTLEN
 005758 5630 728E            059D8 27972                       O     R3,=X'40000000'     BLANK PAD
 00575C 1942/4780 701A             27973                       IF    (R4,NE,R2),BEGIN    IF IN PLACE UPCASE, SKIP MOVE
 005762 0E42                       27988  1                      MVCL  R4,R2
 005764                            27989                       END
 005764 1841                       27993                       LR    R4,R1
 005766 1850                       27994                       LR    R5,R0               TO UPPER
 005768 58E0 C8A8            008A8 27995                       L     R14,CVUPPTBL
 00576C 1255/47D0 702E             27996                       IF    (R5,POS),BEGIN
 005772 0650/4450 72F2_            28010  1                      DEX   R5,' TR @R4(0),@R14 '
 005778                            28029                       END
 005778 5900 6014/47D0_      00014 28033                       IF    (R0,GT,NSCNTLEN),BEGIN  RETURN ACTUAL LEN
 005780 5800 6014            00014 28050  1                      L     R0,NSCNTLEN
 005784                            28051                       END
                                   28055
 005784 9001 8004            00004 28056                       PRETURN (R0,R1)
 005788 1BFF                       28058                       CLEAR R15
 00578A 18D8/9808 D004_            28062                       PEND  ,
 DROP   *,R7
 DROP   NSCNCB,R6                  28082                       DROP  R6
1SCAN     (SCAN2025) (12:54) (15MAR04) MISC SCANNER/PARSE ROUTINES                                                          Page  142
0Current Usings:  (CP,R11) (CV,R12)
0Loc    Object Code    Addr1 Addr2  Stmt Lv Lineno    Source Statement           (Hibal 5, Asmedit 3.3)  HLASM R4.0  2004/03/15 12.54
+___    ______ ____    _____ _____  ____ __ ______    ______ _________
0                                  28090              *
                                   28091              **
                                   28092              **  SCAN TOKEN ---
                                   28093              **
                                   28094              **  SCAN A TOKEN USING
                                   28095              **      ' =,' AS SKIP CHARS, AND
                                   28096              **      ' =,;' AS STOP CHARS ...
                                   28097              **
                                   28098              **  ALL NORMAL SCAN CONVENTIONS APPLY,,, QUOTES ARE
                                   28099              **  MATCHED, SAME ENTRY EXIT CONVETIONS AS A SIMPLE
                                   28100              **  SCAN, RETURNS R1,R0 - TOKEN LOC LEN, R15 IS
                                   28101              **  RETURN CODE, (MISMATCHED QUOTES ARE THE ONLY BAD
                                   28102              **  RETURN I CAN THINK OF.)  THE SKIP/STOP TABLES ARE
                                   28103              **  RESET UPON EXIT.
                                   28104              **
                                   28105              **
                                   28106              *
 000000                00000 00200 28107              STKWA    RECORD BEGIN
 000000                            28115  1           STKSKIP    DS    XL256
 000100                            28116  1           STKSTOP    DS    XL256
 000200                00200 00200 28117                       END
                                   28126              *
                                   28127              *
 005798 50E0 D000/9008_      00000 28128              NSCANTOK XPROC STKWA
 USING  *,R7
 USING  STKWA-(4+36),R8
 0057B2 58E0 B08C/D203_      0008C 28179                       SCPUSH TABLES
 0057CC 58E0 B08C/41F0_      0008C 28187                       SETSKIP STKSKIP,' =,'
 0057FA 58E0 B08C/41F0_      0008C 28208                       SETSTOP STKSTOP,' =,;'
 005828 58E0 B08C/1BFF_      0008C 28229                       SETSCKWS ,
 005834 5810 B08C/1B00_      0008C 28242                       SCAN  TABLES=NOSET
 005840 58E0 B08C/4BD0_      0008C 28253                       SCPOP TABLES
 00585A 18D8/9808 D004_            28261                       PEND  ,
 DROP   STKWA-(4+36),R8
 DROP   *,R7
1SCAN     (SCAN2025) (12:54) (15MAR04) MISC SCANNER/PARSE ROUTINES                                                          Page  143
0Current Usings:  (CP,R11) (CV,R12)
0Loc    Object Code    Addr1 Addr2  Stmt Lv Lineno    Source Statement           (Hibal 5, Asmedit 3.3)  HLASM R4.0  2004/03/15 12.54
+___    ______ ____    _____ _____  ____ __ ______    ______ _________
0                                  28287
                                   28288
                                   28289                HEXCONV/HEXSTR -- Routine to convert hex digits to binary.
                                   28290
                                   28291                  On entry:
                                   28292                    R1,R0 - string loc,len
                                   28293                    R15   - output string loc (only for "HEXSTR" entry)
                                   28294
                                   28295                  On exit:
                                   28296                    R15 = neg   - bad hex string (R1,R0 - as on entry)
                                   28297                    R15 = z,pos - hex string converted. R15 = string len.
                                   28298                              (R1,R0 - string loc, len)
                                   28299
                                   28300                  CAUTION:
                                   28301                    R15 clobbered by this routine
                                   28302

0005868 50E0 D000/9008_      00000 28303              HEXCONV  XPROC ,
 USING  *,R7
 005882 18F1                       28343                       LR    R15,R1              Convert to hex in  place
 005884 58E0 716E/0DEE       059F0 28344                       ACALL HEXSTR
 00588A 9001 8004            00004 28348                       PRETURN (R0,R1)
 00588E 18D8/9808 D004_            28350                       PEND  ,
 DROP   *,R7
                                   28370
 00589C 50E0 D000/9008_      00000 28371              HEXSTR   XPROC ,
 USING  *,R7
 0058B6 957D 1000/4780_00000       28411                       IF    ((@R1,EQ,''''),OR,(@R1,EQ,'"')),BEGIN  string quotes...
 0058C6 4110 1001            00001 28442  1                      LA    R1,@R1+1
 0058CA 4B00 714C            05A02 28443  1                      SH    R0,=Y(2)
 0058CE                            28444                       END
                                   28448
 0058CE 9001 D000/41D0_      00000 28449                       XPUSH R0,R1,*             Ptrs restored if bad hex
                                   28452
 0058D6 186F                       28453                       LR    R6,R15              Output string ptr
 0058D8 1B55                       28454                       CLEAR R5                  Output string len
 0058DA 1B44/1B33                  28458                       CLEAR R4,R3               Ic regs
                                   28464
 0058DE 1200/47D0 70D0             28465                       WHILE (R0,POS),BEGIN
 0058E4 5000 BC88            00C88 28481  1                      ST    R0,CPDOUB
 0058E8 9101 BC8B/47E0_00C8B       28482  1                      IF    CPDOUB+3.1,BEGIN    Odd no. of digits...
 0058F0 92F0 BC88      00C88       28498  2                        MVI   CPDOUB,C'0'
 0058F4 D200 BC89 1000 00C89 00000 28499  2                        MVC   CPDOUB+1(1),@R1
 0058FA 4110 1001            00001 28500  2                        LA    R1,@R1+1
 0058FE 0600                       28501  2                        DECR  R0
 005900                            28503  1                      END
 005900 704E/47F0 705C 05900 058EE 28507  1                      ELSE  BEGIN               Even no. of digits...
 005904 D201 BC88 1000 00C88 00000 28518  2                        MVC   CPDOUB(2),@R1
 00590A 4110 1002            00002 28519  2                        LA    R1,@R1+2            Kick ptr
 00590E 4B00 714C            05A02 28520  2                        SH    R0,=Y(2)            & remaining len
 005912                            28521  1                      END
 005912 D601 BC88 C4D8 00C88 004D8 28525  1                      OC    CPDOUB(2),CVBLANKS  Upper case
                                   28526  1           *  first digit...
1SCAN     (SCAN2025) (12:54) (15MAR04) MISC SCANNER/PARSE ROUTINES                                                          Page  144
0Current Usings:  (*,R7) (CP,R11) (CV,R12)
0Loc    Object Code    Addr1 Addr2  Stmt Lv Lineno    Source Statement           (Hibal 5, Asmedit 3.3)  HLASM R4.0  2004/03/15 12.54
+___    ______ ____    _____ _____  ____ __ ______    ______ _________
0005918 95C1 BC88/4740_00C88       28527  1                      IF    (CPDOUB,LT,'A'),HEXBAD
 005920 4330 BC88            00C88 28547  1                      IC    R3,CPDOUB           Get char
 005924 4120 00B7            000B7 28548  1                      LA    R2,C'A'-10          Assume alpha adjustment
 005928 95C6 BC88/47D0_00C88       28549  1                      IF    (CPDOUB,GT,'F'),BEGIN
 005930 95F0 BC88/4740_00C88       28566  2                        IF    ((CPDOUB,LT,'0'),OR,(CPDOUB,GT,'9')),HEXBAD
 005940 4120 00F0            000F0 28602  2                        LA    R2,C'0'             Numeric adjustment
 005944                            28603  1                      END
 005944 1B32                       28607  1                      SR    R3,R2               Binary
                                   28608  1           *  second digit...
 005946 95C1 BC89/4740_00C89       28609  1                      IF    (CPDOUB+1,LT,'A'),HEXBAD
 00594E 4340 BC89            00C89 28629  1                      IC    R4,CPDOUB+1         Get char
 005952 4120 00B7            000B7 28630  1                      LA    R2,C'A'-10          Assume alpha adjustment
 005956 95C6 BC89/47D0_00C89       28631  1                      IF    (CPDOUB+1,GT,'F'),BEGIN
 00595E 95F0 BC89/4740_00C89       28648  2                        IF    ((CPDOUB+1,LT,'0'),OR,(CPDOUB+1,GT,'9')),HEXBAD
 00596E 4120 00F0            000F0 28684  2                        LA    R2,C'0'             Numeric adjustment
 005972                            28685  1                      END
 005972 1B42                       28689  1                      SR    R4,R2               Binary
                                   28690  1
 005974 8930 0004            00004 28691  1                      SLL   R3,4                Move high byte over
 005978 1A34                       28692  1                      AR    R3,R4               Form byte
 00597A 4235 6000            00000 28693  1                      STC   R3,@R6(R5)
 00597E 4150 5001            00001 28694  1                      LA    R5,@R5+1
 005982 47F0 7028            058DE 28695                       END
 005986 1816                       28700                       LR    R1,R6               Loc
 005988 1805                       28701                       LR    R0,R5               Len
 00598A 18F5                       28702                       LR    R15,R5              Len
 00598C 47F0 70EA            059A0 28703                       B     HEXEXIT
                                   28704
 005990 4BD0 714E/9801_      05A04 28705              HEXBAD   XPOP  R0,R1,*             Restore orig ptrs
 005998 58F0 711A            059D0 28708                       L     R15,=F'-4'
 00599C 47F0 70EA            059A0 28709                       B     HEXEXIT
                                   28710
 0059A0                            28711              HEXEXIT  LABEL ,
 0059A0 9001 8004            00004 28713                       PRETURN (R0,R1)
 0059A4 18D8/9808 D004_            28715                       PEND  ,
 DROP   *,R7
                                   28735
                                   28736                       QLTORG
1SCAN     (SCAN2025) (12:54) (15MAR04) Trim Leading and Trailing Blanks                                                     Page  145
0Current Usings:  (CP,R11) (CV,R12)
0Loc    Object Code    Addr1 Addr2  Stmt Lv Lineno    Source Statement           (Hibal 5, Asmedit 3.3)  HLASM R4.0  2004/03/15 12.54
+___    ______ ____    _____ _____  ____ __ ______    ______ _________
0                                  28771
                                   28772
                                   28773                RTRIM -- Trim right-side (trailing) blanks.
                                   28774
                                   28775                  On entry:
                                   28776                    R1,R0 - string loc, len
                                   28777

0005A42 50E0 D000/9028_      00000 28778              RTRIM    XPROC (R2,LSR)
 USING  *,R7
 005A5C 1861                       28818                       LR    R6,R1
 005A5E 1A60                       28819                       AR    R6,R0
 005A60 0660                       28820                       DECR  R6
 005A62 1200/47D0 701C_            28822                       WHILE ((R0,POS),AND,(@R6,EQ,' ')),'DECR R6; DECR R0'
 005A78 18D8/9828 D004_            28863                       PEND
 DROP   *,R7
-                                  28884
                                   28885
                                   28886                LRTRIM -- Trim left and right-side (leading/trailing) blanks.
                                   28887
                                   28888                  On entry:
                                   28889                    R1,R0 - string loc, len
                                   28890

0005A86 50E0 D000/9028_      00000 28891              LRTRIM   XPROC (R2,LSR)
 USING  *,R7
 005AA0 1200/47D0 7018_            28931                       WHILE ((R0,POS),AND,(@R1,EQ,' ')),'LA R1,@R1+1; DECR R0'
                                   28971
 005AB8 1861                       28972                       LR    R6,R1
 005ABA 1A60                       28973                       AR    R6,R0
 005ABC 0660                       28974                       DECR  R6
 005ABE 1200/47D0 7034_            28976                       WHILE ((R0,POS),AND,(@R6,EQ,' ')),'DECR R6; DECR R0'
 005AD4 18D8/9828 D004_            29017                       PEND
 DROP   *,R7
1SCAN     (SCAN2025) (12:54) (15MAR04) Trim Leading and Trailing Blanks                                                     Page  146
0Current Usings:  (CP,R11) (CV,R12)
0Loc    Object Code    Addr1 Addr2  Stmt Lv Lineno    Source Statement           (Hibal 5, Asmedit 3.3)  HLASM R4.0  2004/03/15 12.54
+___    ______ ____    _____ _____  ____ __ ______    ______ _________
0                                  29038
                                   29039
                                   29040                UPCASE -- Convert string to upper case (in place).
                                   29041
                                   29042                  On entry:
                                   29043                    R1,R0 - string loc, len
                                   29044
                                   29045                  On exit:
                                   29046                    Guaranteed not to change R15.
                                   29047

0005AE2 50E0 D000/9008_      00000 29048              UPCASE   XPROC
 USING  *,R7
 005AFC 5850 C8A8            008A8 29088                       L     R5,CVUPPTBL         Upper case translate table
 005B00 1820                       29089                       LR    R2,R0               Total string length
 005B02 5920 7664/47D0_      06160 29090                       WHILE (R2,GT,256),BEGIN   Do a chunk at a time...
 005B0A DCFF 1000 5000 00000 00000 29109  1                      TR    @R1(256),@R5        Convert to caps
 005B10 4110 1100            00100 29110  1                      LA    R1,@R1+256
 005B14 4B20 768C            06188 29111  1                      SH    R2,=H'256'
 005B18 47F0 7006            05B02 29112                       END
                                   29117
 005B1C 0620/1222/4740_            29118                       DTEX  R2,'TR @R1(0),@R5'   Convert remainder to upper case
 005B28 18D8/9808 D004_            29155                       PEND
 DROP   *,R7
-                                  29176
                                   29177
                                   29178                LOWCASE -- Convert string to lower case (in place).
                                   29179
                                   29180                  On entry:
                                   29181                    R1,R0 - string loc, len
                                   29182
                                   29183                  On exit:
                                   29184                    Guaranteed not to change R15.
                                   29185

0005B36 50E0 D000/9008_      00000 29186              LOWCASE  XPROC
 USING  *,R7
 005B50 5850 C8AC            008AC 29226                       L     R5,CVLOWTBL         Lower case translate table
 005B54 1820                       29227                       LR    R2,R0               Total string length
 005B56 5920 7610/47D0_      06160 29228                       WHILE (R2,GT,256),BEGIN   Do a chunk at a time...
 005B5E DCFF 1000 5000 00000 00000 29247  1                      TR    @R1(256),@R5        Convert to caps
 005B64 4110 1100            00100 29248  1                      LA    R1,@R1+256
 005B68 4B20 7638            06188 29249  1                      SH    R2,=H'256'
 005B6C 47F0 7006            05B56 29250                       END
                                   29255
 005B70 0620/1222/4740_            29256                       DTEX  R2,'TR @R1(0),@R5'   Convert remainder to upper case
 005B7C 18D8/9808 D004_            29293                       PEND
 DROP   *,R7
1SCAN     (SCAN2025) (12:54) (15MAR04) TEST SCAN STUFF                                                                      Page  147
0Current Usings:  (CP,R11) (CV,R12)
0Loc    Object Code    Addr1 Addr2  Stmt Lv Lineno    Source Statement           (Hibal 5, Asmedit 3.3)  HLASM R4.0  2004/03/15 12.54
+___    ______ ____    _____ _____  ____ __ ______    ______ _________
0                                  29314              * TESTSCAN BEGIN ,,, NSCAN TEST BEGIN ,,,  DEBUG
                                   29315              *
                                   29316              **
                                   29317              **  TEST NEW SCANNER
                                   29318              **
                                   29319              **
                                   29320              *
 005B8A 50E0 D000/9008_      00000 29321              TESTSCAN XPROC
 USING  *,R7
                                   29361              *
                                   29362              *
 005BA4 9610 BD50      00D50       29363                       SET   CPLFLG1.CPFALL
 005BA8 58E0 75C0/0DEE       06164 29370                       VCALL NDETRNG
 005BAE 5820 B08C            0008C 29374                       L     R2,CPNSCANP         INSURE R2 IS SCAN CB WITHIN
 005BB2 5810 B08C/1B00_      0008C 29375                       SCAN  TESTPRT1            SCAN MODULE
 005C04 58E0 75CC/0DEE       06170 29407                       SCANCHK
                                   29412
                                   29413                       COMMENT
 005C0A 4110 75FC/4100_      061A0 29414                       TSEG  'ALL DONE.'
 005C1C 1B00/41F0 B050_            29432                       TWRITE
                                   29457
 005C28 47F0 C7DE            007DE 29458                       B     CVNEXT
 005C2C 18D8/9808 D004_            29459                       PEND
 DROP   *,R7
                                   29479              *
                                   29480              *  SCKW TABLES
                                   29481              *
 005C3C C4C5E5C9C1E3C540_          29482              TESTPRT1 SCKW  DEVIATE,DEVIATE,(A,S)
 005C64 C6C1C3E3D6D94040_          29497                       SCKW  FACTOR,FACTOR,(A,P,I),99999
 005C8C D3C9D5C5D5D64040_          29512                       SCKW  LINENO,LINENO,(A1,P,LN)
 005CB4 4040404040404040_          29527                       SCKW  ,INT,I,10
 005CDC 4040404040404040_          29542                       SCKW  ,LNO,LN
 005D04 4040404040404040_          29557                       SCKW  ,SYMLNO,SYMLN
 005D2C 4040404040404040_          29572                       SCKW  ,COLS,A(MCOLS)    NOT REACHED, BECAUSE OF INT ABOVE
 005D54 D7C3D6D3E2404040_          29587                       SCKW  PCOLS,PCOLS,(A,A(MPCOLS))
 005D7C D7E2E8D440404040_          29602                       SCKW  PSYM,PSYM,(A(MPSYMLN),A)
 005DA4 4040404040404040_          29617                       SCKW  ,NULLRTN,NULL
 005DCC 4040404040404040_          29632                       SCKW  ,PUSHRTN,PUSH
 005DF4 4040404040404040_          29647                       SCKW  ,ERRORRTN,END
                                   29662
 005E1C D7C4C5E5C9C1E3C5_          29663              TESTPRT2 SCKW  PDEVIATE,PDEVIATE,(A,DONTBLANK)
 005E44 D7C6C1C3E3D6D940_          29678                       SCKW  PFACTOR,PFACTOR,(A,P,PI,DONTBLANK)
 005E6C D7D3C9D5C5D5D640_          29693                       SCKW  PLINENO,PLINENO,(A1,P,LN,END,DONTBLANK)
                                   29708
1SCAN     (SCAN2025) (12:54) (15MAR04) TEST SCAN STUFF                                                                      Page  148
0Current Usings:  (CP,R11) (CV,R12)
0Loc    Object Code    Addr1 Addr2  Stmt Lv Lineno    Source Statement           (Hibal 5, Asmedit 3.3)  HLASM R4.0  2004/03/15 12.54
+___    ______ ____    _____ _____  ____ __ ______    ______ _________
0                                  29710              *
                                   29711              *  DEVIATE
                                   29712              *
 005E94 50E0 D000/9008_      00000 29713              DEVIATE  PROC
 USING  *,R7
 005EAE 1BFF                       29752                       CLEAR R15
 005EB0 18D8/9808 D004_            29756                       PEND
 DROP   *,R7
                                   29776              *
                                   29777              *  FACTOR
                                   29778              *
 005EBE 50E0 D000/9008_      00000 29779              FACTOR   PROC
 USING  *,R7
 005ED8 1BFF                       29818                       CLEAR R15
 005EDA 18D8/9808 D004_            29822                       PEND
 DROP   *,R7
                                   29842              *
                                   29843              *  LINE NUMBER
                                   29844              *
 005EE8 50E0 D000/9008_      00000 29845              LINENO   PROC
 USING  *,R7
 005F02 1BFF                       29884                       CLEAR R15
 005F04 18D8/9808 D004_            29888                       PEND
 DROP   *,R7
                                   29908              *
                                   29909              *  LINE NUMBER
                                   29910              *
 005F12 50E0 D000/9008_      00000 29911              SYMLNO   PROC
 USING  *,R7
 005F2C 1BFF                       29950                       CLEAR R15
 005F2E 18D8/9808 D004_            29954                       PEND
 DROP   *,R7
                                   29974              *
                                   29975              *  LINE NUMBER
                                   29976              *
 005F3C 50E0 D000/9008_      00000 29977              LNO      PROC
 USING  *,R7
 005F56 1BFF                       30016                       CLEAR R15
 005F58 18D8/9808 D004_            30020                       PEND
 DROP   *,R7
                                   30040              *
                                   30041              *  LINE NUMBER
                                   30042              *
 005F66 50E0 D000/9008_      00000 30043              INT      PROC
 USING  *,R7
 005F80 1BFF                       30082                       CLEAR R15
 005F82 18D8/9808 D004_            30086                       PEND
 DROP   *,R7
                                   30106              *
                                   30107              *  LINE NUMBER
                                   30108              *
 005F90 50E0 D000/9008_      00000 30109              COLS     PROC
 USING  *,R7
 005FAA 1BFF                       30148                       CLEAR R15
1SCAN     (SCAN2025) (12:54) (15MAR04) TEST SCAN STUFF                                                                      Page  149
0Current Usings:  (CP,R11) (CV,R12)
0Loc    Object Code    Addr1 Addr2  Stmt Lv Lineno    Source Statement           (Hibal 5, Asmedit 3.3)  HLASM R4.0  2004/03/15 12.54
+___    ______ ____    _____ _____  ____ __ ______    ______ _________
0005FAC 18D8/9808 D004_            30152                       PEND
 DROP   *,R7
                                   30172              *
                                   30173              *  LINE NUMBER
                                   30174              *
 005FBA 50E0 D000/9008_      00000 30175              PCOLS    PROC
 USING  *,R7
 005FD4 1BFF                       30214                       CLEAR R15
 005FD6 18D8/9808 D004_            30218                       PEND
 DROP   *,R7
                                   30238              *
                                   30239              *  LINE NUMBER
                                   30240              *
 005FE4 50E0 D000/9008_      00000 30241              PSYM     PROC
 USING  *,R7
 005FFE 1BFF                       30280                       CLEAR R15
 006000 18D8/9808 D004_            30284                       PEND
 DROP   *,R7
                                   30304              *
                                   30305              *  NULL
                                   30306              *
 00600E 50E0 D000/9008_      00000 30307              NULLRTN  PROC
 USING  *,R7
 006028 4110 7164/4100_      0618C 30346                       TSEG 'Null scan.',,CR
 00603A 1B00/41F0 B050_            30364                       TWRITE
 006046 1BFF                       30389                       CLEAR R15
 006048 18D8/9808 D004_            30393                       PEND
 DROP   *,R7
                                   30413              *
                                   30414              *  PUSH
                                   30415              *
 006056 50E0 D000/9008_      00000 30416              PUSHRTN  PUSHRTN TESTPRT2
 USING  *,R7
 DROP   *,R7
                                   30483              *
                                   30484              *  ERRORRTN
                                   30485              *
 00608C 50E0 D000/9008_      00000 30486              ERRORRTN PROC
 USING  *,R7
 0060A6 41F0 B050/58E0_      00050 30525                       TSEG (R1),(R0)
 0060B0 4110 70F0/4100_      06196 30549                       TSEG ': invalid.'
 0060C2 1B00/41F0 B050_            30567                       TWRITE
 0060CE 18D8/9808 D004_            30592                       PEND
 DROP   *,R7
                                   30612              *
                                   30613              *  PDEVIATE
                                   30614              *
 0060DC 50E0 D000/9008_      00000 30615              PDEVIATE PROC
 USING  *,R7
 0060F6 1BFF                       30654                       CLEAR R15
 0060F8 18D8/9808 D004_            30658                       PEND
 DROP   *,R7
                                   30678              *
                                   30679              *  PFACTOR
1SCAN     (SCAN2025) (12:54) (15MAR04) TEST SCAN STUFF                                                                      Page  150
0Current Usings:  (CP,R11) (CV,R12)
0Loc    Object Code    Addr1 Addr2  Stmt Lv Lineno    Source Statement           (Hibal 5, Asmedit 3.3)  HLASM R4.0  2004/03/15 12.54
+___    ______ ____    _____ _____  ____ __ ______    ______ _________
0                                  30680              *
 006106 50E0 D000/9008_      00000 30681              PFACTOR  PROC
 USING  *,R7
 006120 1BFF                       30720                       CLEAR R15
 006122 18D8/9808 D004_            30724                       PEND
 DROP   *,R7
                                   30744              *
                                   30745              *  PLINE NUMBER
                                   30746              *
 006130 50E0 D000/9008_      00000 30747              PLINENO  PROC
 USING  *,R7
 00614A 1BFF                       30786                       CLEAR R15
 00614C 18D8/9808 D004_            30790                       PEND
 DROP   *,R7
                                   30810
1SCAN     (SCAN2025) (12:54) (15MAR04) TEST SCAN STUFF                                                                      Page  151
0Current Usings:  (CP,R11) (CV,R12)
0Loc    Object Code    Addr1 Addr2  Stmt Lv Lineno    Source Statement           (Hibal 5, Asmedit 3.3)  HLASM R4.0  2004/03/15 12.54
+___    ______ ____    _____ _____  ____ __ ______    ______ _________
0                                  30812                       QLTORG
                                   30839              * TESTSCAN END ,,, NSCAN TEST END    DEBUG
1SCAN     (SCAN2025) (12:54) (15MAR04) TEST SCAN STUFF                                                                      Page  152
0Current Usings:  (CP,R11) (CV,R12)
0Loc    Object Code    Addr1 Addr2  Stmt Lv Lineno    Source Statement           (Hibal 5, Asmedit 3.3)  HLASM R4.0  2004/03/15 12.54
+___    ______ ____    _____ _____  ____ __ ______    ______ _________
0                                  30841                       QLTORG ,                  ,,, DEBUG OF DETRNG
1SCAN     (SCAN2025) (12:54) (15MAR04) TEST SCAN STUFF                                                                      Page  153
0Current Usings:  (CP,R11) (CV,R12)
0Loc    Object Code    Addr1 Addr2  Stmt Lv Lineno    Source Statement           (Hibal 5, Asmedit 3.3)  HLASM R4.0  2004/03/15 12.54
+___    ______ ____    _____ _____  ____ __ ______    ______ _________
0                                  30854                       VLTORG
 0061B8                061B8 061B8 30862                       END   .

1SCAN     (SCAN2025) (12:54) (15MAR04) Relocation Dictionary                                                                Page  154
-   Pos.Id   Rel.Id   Flags    Address                                                       HLASM R4.0  2004/03/15 12.54
0  00000001 00000001    0C    00000BB8
   00000001 00000001    0C    00000BBC
   00000001 00000001    0C    00000BC0
   00000001 00000001    0C    00000BC4
   00000001 00000001    0C    00000BC8
   00000001 00000001    0C    00000BD0
   00000001 00000001    0C    00000BE4
   00000001 00000001    0C    00000BE8
   00000001 00000001    0C    00000BEC
   00000001 00000001    0C    00000BF0
   00000001 00000001    0C    00000BF4
   00000001 00000001    0C    00000BF8
   00000001 00000001    0C    00000BFC
   00000001 00000001    0C    00000C04
   00000001 00000001    0C    00000C08
   00000001 00000001    0C    00000C14
   00000001 00000001    0C    00000C20
   00000001 00000001    0C    00000C28
   00000001 00000001    0C    00000D3C
   00000001 00000001    0C    00000D40
   00000001 00000001    0C    00000D44
   00000001 00000001    0C    00001260
   00000001 00000001    0C    00001264
   00000001 00000001    0C    0000126C
   00000001 00000001    0C    00001270
   00000001 00000001    0C    00001274
   00000001 00000001    0C    00001278
   00000001 00000001    0C    0000127C
   00000001 00000001    0C    00001654
   00000001 00000001    0C    00001658
   00000001 00000001    0C    00001660
   00000001 00000001    0C    00001850
   00000001 00000001    0C    00001854
   00000001 00000001    0C    00001858
   00000001 00000001    0C    0000185C
   00000001 00000001    0C    00001860
   00000001 00000001    0C    00001864
   00000001 00000001    0C    00001868
   00000001 00000001    0C    0000186C
   00000001 00000001    0C    00001990
   00000001 00000001    0C    000019B8
   00000001 00000001    0C    000019E0
   00000001 00000001    0C    00001B90
   00000001 00000001    0C    00001BB8
   00000001 00000001    0C    00001BE0
   00000001 00000001    0C    00001D90
   00000001 00000001    0C    00001DB4
   00000001 00000001    0C    00001DB8
   00000001 00000001    0C    00001DE0
   00000001 00000001    0C    00001E78
   00000001 00000001    0C    00001E7C
   00000001 00000001    0C    00001E80
   00000001 00000001    0C    00001E8C
   00000001 00000001    0C    00001E90
   00000001 00000001    0C    00001E94
1SCAN     (SCAN2025) (12:54) (15MAR04) Relocation Dictionary                                                                Page  155
   00000001 00000001    0C    00001E98
   00000001 00000001    0C    00001E9C
   00000001 00000001    0C    00001EA0
   00000001 00000001    0C    00001EA4
   00000001 00000001    0C    00002030
   00000001 00000001    0C    00002058
   00000001 00000001    0C    00002080
   00000001 00000001    0C    000020A8
   00000001 00000001    0C    000020D0
   00000001 00000001    0C    000020F8
   00000001 00000001    0C    00002120
   00000001 00000001    0C    00002148
   00000001 00000001    0C    00002170
   00000001 00000001    0C    00002198
   00000001 00000001    0C    000021C0
   00000001 00000001    0C    000021E8
   00000001 00000001    0C    00002210
   00000001 00000001    0C    00002238
   00000001 00000001    0C    00002260
   00000001 00000001    0C    00002738
   00000001 00000001    0C    00002748
   00000001 00000001    0C    0000274C
   00000001 00000001    0C    00002758
   00000001 00000001    0C    000028B8
   00000001 00000001    0C    000028E0
   00000001 00000001    0C    00002908
   00000001 00000001    0C    00002930
   00000001 00000001    0C    00002958
   00000001 00000001    0C    00002980
   00000001 00000001    0C    000029A8
   00000001 00000001    0C    000029D0
   00000001 00000001    0C    00002C68
   00000001 00000001    0C    00002C74
   00000001 00000001    0C    00002C7C
   00000001 00000001    0C    00002C80
   00000001 00000001    0C    00002E58
   00000001 00000001    0C    00002E80
   00000001 00000001    0C    00002EA8
   00000001 00000001    0C    00003114
   00000001 00000001    0C    0000313C
   00000001 00000001    0C    00003164
   00000001 00000001    0C    0000327C
   00000001 00000001    0C    0000328C
   00000001 00000001    0C    000032C8
   00000001 00000001    0C    00004140
   00000001 00000001    0C    00004144
   00000001 00000001    0C    00004148
   00000001 00000001    0C    0000414C
   00000001 00000001    0C    00004150
   00000001 00000001    0C    00004154
   00000001 00000001    0C    00004160
   00000001 00000001    0C    00004164
   00000001 00000001    0C    0000416C
   00000001 00000001    0C    00004170
   00000001 00000001    0C    00004178
   00000001 00000001    0C    00004184
   00000001 00000001    0C    00004188
   00000001 00000001    0C    0000418C
   00000001 00000001    0C    00004190
1SCAN     (SCAN2025) (12:54) (15MAR04) Relocation Dictionary                                                                Page  156
   00000001 00000001    0C    00004194
   00000001 00000001    0C    00004198
   00000001 00000001    0C    0000419C
   00000001 00000001    0C    000041A0
   00000001 00000001    0C    000041A4
   00000001 00000001    0C    000041A8
   00000001 00000001    0C    000041AC
   00000001 00000001    0C    000059F0
   00000001 00000001    0C    00005C60
   00000001 00000001    0C    00005C88
   00000001 00000001    0C    00005CB0
   00000001 00000001    0C    00005CD8
   00000001 00000001    0C    00005D00
   00000001 00000001    0C    00005D28
   00000001 00000001    0C    00005D4C
   00000001 00000001    0C    00005D50
   00000001 00000001    0C    00005D74
   00000001 00000001    0C    00005D78
   00000001 00000001    0C    00005D9C
   00000001 00000001    0C    00005DA0
   00000001 00000001    0C    00005DC8
   00000001 00000001    0C    00005DF0
   00000001 00000001    0C    00005E18
   00000001 00000001    0C    00005E40
   00000001 00000001    0C    00005E68
   00000001 00000001    0C    00005E90
   00000001 00000001    0C    00006168
   00000001 00000001    0C    00006180
   00000001 00000002    1C    00000BCC
   00000001 00000002    1C    00006184
   00000001 00000003    1C    00000BD4
   00000001 00000003    1C    000059E0
   00000001 00000004    1C    00000BDC
   00000001 00000004    1C    000059E8
   00000001 00000005    1C    00000BE0
   00000001 00000005    1C    00001E84
   00000001 00000005    1C    0000273C
   00000001 00000005    1C    00002C6C
   00000001 00000005    1C    00003280
   00000001 00000005    1C    000059EC
   00000001 00000005    1C    0000616C
   00000001 00000006    1C    0000198C
   00000001 00000006    1C    00001B8C
   00000001 00000006    1C    00001D8C
   00000001 00000006    1C    00002234
   00000001 00000006    1C    00002904
   00000001 00000006    1C    000029A4
   00000001 00000006    1C    00002E54
   00000001 00000006    1C    00003110
   00000001 00000006    1C    00005DC4
   00000001 00000007    1C    000019B4
   00000001 00000007    1C    0000202C
   00000001 00000007    1C    00002954
   00000001 00000007    1C    00005CFC
   00000001 00000008    1C    000019DC
   00000001 00000008    1C    00001BDC
   00000001 00000008    1C    00001DDC
   00000001 00000008    1C    0000225C
   00000001 00000008    1C    0000292C
1SCAN     (SCAN2025) (12:54) (15MAR04) Relocation Dictionary                                                                Page  157
   00000001 00000008    1C    000029CC
   00000001 00000008    1C    00002EA4
   00000001 00000008    1C    00003160
   00000001 00000008    1C    00005E14
   00000001 00000009    1C    00001BB4
   00000001 00000009    1C    00002E7C
   00000001 00000009    1C    00005D24
   00000001 0000000A    1C    00002054
   00000001 0000000A    1C    0000207C
   00000001 0000000A    1C    000020A4
   00000001 0000000A    1C    000020CC
   00000001 0000000A    1C    000020F4
   00000001 0000000A    1C    0000211C
   00000001 0000000A    1C    00002144
   00000001 0000000A    1C    0000216C
   00000001 0000000A    1C    00002194
   00000001 0000000A    1C    000021BC
   00000001 0000000A    1C    000021E4
   00000001 0000000A    1C    0000220C
   00000001 0000000A    1C    000028B4
   00000001 0000000A    1C    000028DC
   00000001 0000000A    1C    0000297C
   00000001 0000000A    1C    00003138
   00000001 0000000A    1C    00005C5C
   00000001 0000000A    1C    00005E3C
   00000001 0000000B    1C    00002750
   00000001 0000000C    1C    00002754
   00000001 0000000D    1C    00002760
   00000001 0000000D    1C    00003284
   00000001 0000000D    1C    0000358C
   00000001 0000000D    1C    000059D4
   00000001 0000000E    1C    00002764
   00000001 0000000F    1C    00002768
   00000001 00000010    1C    0000276C
   00000001 00000011    1C    00002770
   00000001 00000012    1C    00002774
   00000001 00000013    1C    00003278
   00000001 00000014    1C    000059C0
   00000001 00000015    1C    000059C4
   00000001 00000015    1C    0000617C
   00000001 00000016    1C    000059CC
   00000001 00000016    1C    00006174
   00000001 00000017    1C    00005C84
   00000001 00000017    1C    00005E64
   00000001 00000018    1C    00005CAC
   00000001 00000018    1C    00005E8C
   00000001 00000019    1C    00005CD4
   00000001 0000001A    1C    00006164
   00000001 0000001B    1C    00006170
   00000001 0000001C    1C    00006178

1SCAN     (SCAN2025) (12:54) (15MAR04) Ordinary Symbol and Literal Cross Reference                                          Page  158
-Symbol   Length   Value     Id    R Type   Defn References                                  HLASM R4.0  2004/03/15 12.54
0$$$@R0        1 00000000 FFFFFFFE     J     705  1008
 $$$@R10       1 00000000 FFFFFFF4     J     835  1072
 $$$@R11       1 00000000 FFFFFFF3     J     848  1085
 $$$@R12       1 00000000 FFFFFFF2     J     861  1098
 $$$@R13       1 00000000 FFFFFFF1     J     874  1111
 $$$@R14       1 00000000 FFFFFFF0     J     887  1124
 $$$@R7        1 00000000 FFFFFFF7     J     796  1021
 $$$@R8        1 00000000 FFFFFFF6     J     809  1034   1046
 $$$@R9        1 00000000 FFFFFFF5     J     822  1059
 $$$C1WYLSCAN
               1 00000C74 00000001     J   10320 10322
 $$$C10WYLSCAN
               1 0000365C 00000001     J   22314 22316  22374  23181  23232  23528
 $$$C11WYLSCAN
               1 000041EA 00000001     J   26049 26051
 $$$C12WYLSCAN
               1 000053F0 00000001     J   26498 26500  26919  27622  28027  28124
 $$$C13WYLSCAN
               1 00005A42 00000001     J   28765 28767  29149  29287
 $$$C14WYLSCAN
               1 000061B6 00000001     J   30834 30836
 $$$C15WYLSCAN
               1 000061B8 00000001     J   30848 30850
 $$$C16WYLSCAN
               1 000061B8 00000001     J   30865 30867
 $$$C2WYLSCAN
               1 00000D48 00000001     J   10680 10682  11619
 $$$C3WYLSCAN
               1 0000128A 00000001     J   11714 11716
 $$$C4WYLSCAN
               1 00001666 00000001     J   13556 13558  13712
 $$$C5WYLSCAN
               1 00001872 00000001     J   14415 14417
 $$$C6WYLSCAN
               1 00001EAC 00000001     J   16180 16182  16245
 $$$C7WYLSCAN
               1 000027EF 00000001     J   18717 18719
 $$$C8WYLSCAN
               1 00002C94 00000001     J   19821 19823  19866  20173  20639
 $$$C9WYLSCAN
               1 00003350 00000001     J   21466 21468
 $$$D0WYLSCAN
               1 00000C43 00000001     J     993  8455   9048   9064   9081   9359   9487   9612   9727
 $$$D10WYLSCAN
               1 000041DE 00000001     J   22315 23170  23221
 $$$D12WYLSCAN
               1 00005A2F 00000001     J   26499 26908  27611  28016
 $$$D13WYLSCAN
               1 000061A9 00000001     J   28766 29138  29276
 $$$D2WYLSCAN
               1 00001284 00000001     J   10681 11608
 $$$D8WYLSCAN
               1 0000334A 00000001     J   19822 20162
 $$$RCALLWA
               1 00000000 FFFFFFE5     J    8076  8089   8089
1SCAN     (SCAN2025) (12:54) (15MAR04) Ordinary Symbol and Literal Cross Reference                                          Page  159
 $$$RCP        1 00000000 FFFFFFEC     J    2454  4714   6188   6188
 $$$RCV        1 00000000 FFFFFFEE     J    1179  2364   2364
 $$$RDEV       1 00000000 FFFFFFEB     J    4668  4713   4713
 $$$RMCOLWA
               1 00000000 FFFFFFE0     J   20624 20638  20638
 $$$RMIMWA
               1 00000000 FFFFFFE1     J   19844 19865  19865
 $$$RMSLWA
               1 00000000 FFFFFFE2     J   16204 16244  16244
 $$$RNKW       1 00000000 FFFFFFE9     J    6676  6778   6778
 $$$RNSCNCB
               1 00000000 FFFFFFED     J    2375  2448   2448
 $$$RNSTWA
               1 00000000 FFFFFFE7     J    7311  7325   7325
 $$$RNSWA      1 00000000 FFFFFFE8     J    6874  6897   6897
 $$$RPARMWA
               1 00000000 FFFFFFE3     J   13697 13711  13711
 $$$RRLKWA
               1 00000000 FFFFFFE6     J    7501  7514   7514
 $$$RSETTWA
               1 00000000 FFFFFFE4     J    9162  9188   9188
 $$$RSTKWA
               1 00000000 FFFFFFDD     J   28109 28123  28123
 $$$RTABLE
               1 00000000 FFFFFFDE     J   23514 23527  23527
 $$$RTTYPE
               1 00000000 FFFFFFEA     J    6199  6300   6300
 $$$RXSSWA
               1 00000000 FFFFFFDF     J   22347 22373  22373
 $$$SEGCB0
               4 00000050 FFFFFFEC     F    2485  2571   2571
 $$$Z0         4 00000BB0 00000001     F   10281  6986   7010   7045   7962   8212   9015
 $$$100B       4 00000460 00000001     I    8767  8782
 $$$100F       2 0000046A 00000001     H    8779  8767B  8781
 $$$101E       2 0000046E 00000001     H    8789  8783
 $$$101F       2 00000474 00000001     H    8798  8785B
 $$$102F       2 00000494 00000001     H    8825  8812B
 $$$103F       2 000004BE 00000001     H    8875  8847B
 $$$104        1 00000050 00000001 A   U    8896  8893   8895
 $$$106B       1 000004E6 00000001     X    8948  8955U
 $$$107F       2 00000548 00000001     H    9099  9001B  9016B
 $$$109F       2 0000052A 00000001     H    9041  9032B
 $$$110        6 00000C4A 00000001     I    9054  9046X
 $$$111        6 00000C4A 00000001     I    9053  9054   9054
 $$$112        6 00000C50 00000001     I    9070  9062X
 $$$113        6 00000C50 00000001     I    9069  9070   9070
 $$$114        6 00000C56 00000001     I    9087  9079X
 $$$115        6 00000C56 00000001     I    9086  9087   9087
 $$$116        1 00000050 00000001 A   U    9121  9118   9120
 $$$118B       1 00000578 00000001     X    9218  9225U
 $$$119F       2 0000059E 00000001     H    9304  9275B
 $$$120F       2 000005BA 00000001     H    9346  9317B
 $$$121        6 00000C5C 00000001     I    9365  9357X
 $$$122        6 00000C5C 00000001     I    9364  9365   9365
 $$$123F       2 00000650 00000001     H    9599  9378B
 $$$124F       2 000005F4 00000001     H    9448  9409B
 $$$124T       2 000005E2 00000001     H    9412  9398B
 $$$126F       2 000005F4 00000001     H    9444  9430B
 $$$127F       2 00000650 00000001     H    9595  9460B  9474B
1SCAN     (SCAN2025) (12:54) (15MAR04) Ordinary Symbol and Literal Cross Reference                                          Page  160
 $$$129        6 00000C62 00000001     I    9493  9485X
 $$$130        6 00000C62 00000001     I    9492  9493   9493
 $$$131F       2 00000650 00000001     H    9591  9506B
 $$$132F       2 0000063E 00000001     H    9564  9546B
 $$$132S       2 0000061E 00000001     H    9537  9563B
 $$$134F       2 00000648 00000001     H    9585  9575B
 $$$135        6 00000C68 00000001     I    9618  9610X
 $$$136        6 00000C68 00000001     I    9617  9618   9618
 $$$137F       2 0000078A 00000001     H   10168  9631B
 $$$138F       2 0000068A 00000001     H    9701  9662B
 $$$138T       2 00000678 00000001     H    9665  9651B
 $$$140F       2 0000068A 00000001     H    9697  9683B
 $$$141F       2 0000078A 00000001     H   10164  9714B
 $$$142        6 00000C6E 00000001     I    9733  9725X
 $$$143        6 00000C6E 00000001     I    9732  9733   9733
 $$$144F       2 0000078A 00000001     H   10160  9746B
 $$$145F       2 000006C6 00000001     H    9807  9771B
 $$$145S       2 000006A8 00000001     H    9762  9806B
 $$$147F       2 000006BC 00000001     H    9797  9787B
 $$$148F       2 0000078A 00000001     H   10156  9820B
 $$$149F       2 000006E6 00000001     H    9858  9843B
 $$$149S       2 000006D2 00000001     H    9835  9857B
 $$$151F       2 0000078A 00000001     H   10152  9871B
 $$$152F       2 00000740 00000001     H   10011  9917B  9931B
 $$$152S       2 000006FC 00000001     H    9906 10010B
 $$$155B       4 00000710 00000001     I    9947  9964
 $$$155F       2 00000718 00000001     H    9961  9947B  9963
 $$$156E       2 0000071C 00000001     H    9971  9965
 $$$156F       2 00000736 00000001     H   10001  9967B
 $$$157F       2 00000736 00000001     H    9997  9987B
 $$$158B       4 00000742 00000001     I   10021 10034
 $$$158F       2 0000074A 00000001     H   10030 10021B 10033
 $$$159B       4 00000752 00000001     I   10052 10065
 $$$159E       2 0000074E 00000001     H   10041 10035
 $$$159F       2 0000075A 00000001     H   10061 10037B 10052B 10064
 $$$161E       2 0000075E 00000001     H   10072 10066
 $$$161F       2 0000076A 00000001     H   10092 10068B 10083B
 $$$163F       2 00000774 00000001     H   10113 10103B
 $$$164F       2 0000078A 00000001     H   10148 10126B 10139B
 $$$166        1 00000054 00000001 A   U   10219 10216  10218
 $$$168B       1 00000C8E 00000001     X   10378 10385U
 $$$169F       2 00000C98 00000001     H   10417 10407B
 $$$170        1 00000050 00000001 A   U   10464 10461  10463
 $$$172B       1 00000CDE 00000001     X   10520 10527U
 $$$173F       2 00000CF0 00000001     H   10574 10551B 10564B
 $$$175F       2 00000D08 00000001     H   10613 10601B
 $$$176F       2 00000D16 00000001     H   10637 10625B
 $$$177        1 00000050 00000001 A   U   10665 10662  10664
 $$$179B       1 00000D62 00000001     X   10724 10731U
 $$$180B       4 00000D6E 00000001     I   10759 10773
 $$$180F       2 00000D76 00000001     H   10768 10759B 10772
 $$$181E       2 00000D7A 00000001     H   10780 10774
 $$$181F       2 00000DF6 00000001     H   11012 10776B
 $$$182B       4 00000D7E 00000001     I   10795 10837
 $$$182F       2 00000D98 00000001     H   10831 10795B 10836
 $$$183F       2 00000D98 00000001     H   10827 10815B
 $$$184B       4 00000DA0 00000001     I   10854 10896
 $$$184E       2 00000D9C 00000001     H   10844 10838
 $$$184F       2 00000DBA 00000001     H   10890 10840B 10854B 10895
1SCAN     (SCAN2025) (12:54) (15MAR04) Ordinary Symbol and Literal Cross Reference                                          Page  161
 $$$186F       2 00000DBA 00000001     H   10886 10874B
 $$$187B       4 00000DC2 00000001     I   10913 10955
 $$$187E       2 00000DBE 00000001     H   10903 10897
 $$$187F       2 00000DDC 00000001     H   10949 10899B 10913B 10954
 $$$189F       2 00000DDC 00000001     H   10945 10933B
 $$$190B       4 00000DE4 00000001     I   10972 10994
 $$$190E       2 00000DE0 00000001     H   10962 10956
 $$$190F       2 00000DF0 00000001     H   10989 10958B 10972B 10993
 $$$192E       2 00000DF4 00000001     H   11001 10995
 $$$192F       2 00000DF6 00000001     H   11008 10997B
 $$$193        1 00000050 00000001 A   U   11033 11030  11032
 $$$195B       1 00000E22 00000001     X   11075 11082U
 $$$196B       4 00000E2E 00000001     I   11110 11126
 $$$196F       2 00000E36 00000001     H   11119 11110B 11125
 $$$197B       4 00000E3E 00000001     I   11143 11209
 $$$197E       2 00000E3A 00000001     H   11133 11127
 $$$197F       2 00000E64 00000001     H   11204 11129B 11143B 11208
 $$$199F       2 00000E64 00000001     H   11200 11170B 11183B
 $$$201E       2 00000E68 00000001     H   11216 11210
 $$$201F       2 00000E6A 00000001     H   11223 11212B
 $$$202        1 00000050 00000001 A   U   11244 11241  11243
 $$$204B       1 00000E96 00000001     X   11285 11292U
 $$$205B       4 00000EA2 00000001     I   11320 11336
 $$$205F       2 00000EAA 00000001     H   11329 11320B 11335
 $$$206B       4 00000EB2 00000001     I   11353 11419
 $$$206E       2 00000EAE 00000001     H   11343 11337
 $$$206F       2 00000ED8 00000001     H   11414 11339B 11353B 11418
 $$$208F       2 00000ED8 00000001     H   11410 11380B 11393B
 $$$210E       2 00000EDC 00000001     H   11426 11420
 $$$210F       2 00000EDE 00000001     H   11433 11422B
 $$$211        1 00000050 00000001 A   U   11454 11451  11453
 $$$213B       1 0000120A 00000001     X   11531 11538U
 $$$214F       2 00001248 00000001     H   11669 11556B
 $$$215F       2 00001244 00000001     H   11659 11576B
 $$$215S       2 00001214 00000001     H   11570 11658B
 $$$217F       2 00001228 00000001     H   11600 11591B
 $$$218        6 00001284 00000001     I   11614 11606X
 $$$219        6 00001284 00000001     I   11613 11614  11614
 $$$220B       4 00001230 00000001     I   11627 11640
 $$$220F       2 00001238 00000001     H   11637 11627B 11639
 $$$221E       2 0000123C 00000001     H   11647 11641
 $$$221F       2 00001240 00000001     H   11654 11643B
 $$$222        1 00000050 00000001 A   U   11694 11691  11693
 $$$224B       1 000012A4 00000001     X   11752 11759U
 $$$225B       4 000012A8 00000001     I   11788 11803
 $$$225F       2 000012AE 00000001     H   11800 11788B 11802
 $$$226E       2 000012B2 00000001     H   11810 11804
 $$$226F       2 000012B6 00000001     H   11816 11806B
 $$$227        1 00000050 00000001 A   U   11835 11832  11834
 $$$229B       1 000012DE 00000001     X   11883 11890U
 $$$230B       4 000012E2 00000001     I   11920 11939
 $$$230F       2 000012F4 00000001     H   11936 11920B 11938
 $$$231E       2 000012F8 00000001     H   11946 11940
 $$$231F       2 000012FC 00000001     H   11952 11942B
 $$$232        1 00000050 00000001 A   U   11971 11968  11970
 $$$234B       1 00001324 00000001     X   12014 12021U
 $$$235        1 00000050 00000001 A   U   12050 12047  12049
 $$$237B       1 00001350 00000001     X   12088 12095U
 $$$238F       2 000013AC 00000001     H   12268 12134B
1SCAN     (SCAN2025) (12:54) (15MAR04) Ordinary Symbol and Literal Cross Reference                                          Page  162
 $$$239F       2 0000138E 00000001     H   12220 12153B
 $$$240F       2 00001384 00000001     H   12196 12168B
 $$$241F       2 00001384 00000001     H   12192 12183B
 $$$242F       2 0000138E 00000001     H   12216 12207B
 $$$243F       2 000013AC 00000001     H   12264 12231B
 $$$244F       2 000013AC 00000001     H   12260 12243B
 $$$245        1 00000050 00000001 A   U   12290 12287  12289
 $$$247B       1 000013D8 00000001     X   12345 12352U
 $$$248F       2 000013EC 00000001     H   12386 12375B
 $$$249        1 00000050 00000001 A   U   12404 12401  12403
 $$$251B       1 00001414 00000001     X   12444 12451U
 $$$254        1 00000050 00000001 A   U   12498 12495  12497
 $$$256B       1 00001444 00000001     X   12543 12550U
 $$$257B       4 00001448 00000001     I   12588 12721
 $$$257F       2 0000149C 00000001     H   12717 12588B 12720
 $$$258F       2 0000146A 00000001     H   12634 12607B 12621B
 $$$260F       2 00001482 00000001     H   12672 12648B 12659B
 $$$262F       2 0000149A 00000001     H   12709 12685B 12696B
 $$$264E       2 000014A0 00000001     H   12728 12722
 $$$264F       2 000014A4 00000001     H   12734 12724B
 $$$265        1 00000050 00000001 A   U   12761 12758  12760
 $$$267B       1 000014D2 00000001     X   12802 12809U
 $$$268F       2 00001506 00000001     H   12910 12848B
 $$$269F       2 000014F6 00000001     H   12891 12878B
 $$$269T       2 000014EC 00000001     H   12881 12867B
 $$$271B       4 0000150A 00000001     I   12923 12978
 $$$271F       2 0000152C 00000001     H   12974 12923B 12977
 $$$272F       2 0000152A 00000001     H   12966 12953B
 $$$272T       2 00001520 00000001     H   12956 12942B
 $$$274E       2 00001530 00000001     H   12985 12979
 $$$274F       2 00001534 00000001     H   12991 12981B
 $$$275        1 00000050 00000001 A   U   13018 13015  13017
 $$$277B       1 00001562 00000001     X   13075 13082U
 $$$278B       4 0000157C 00000001     I   13141 13160
 $$$278F       2 00001586 00000001     H   13155 13113B 13141B 13157
 $$$278T       2 00001580 00000001     H   13144 13130B
 $$$279B       4 0000156C 00000001     I   13113 13158
 $$$281E       2 0000158A 00000001     H   13167 13159  13161
 $$$281F       2 0000158E 00000001     H   13173 13163B
 $$$282        1 00000050 00000001 A   U   13191 13188  13190
 $$$284B       1 000015B6 00000001     X   13241 13248U
 $$$285B       4 000015C8 00000001     I   13292 13311
 $$$285F       2 000015D2 00000001     H   13306 13279B 13292B 13308
 $$$286B       4 000015C0 00000001     I   13279 13309
 $$$287E       2 000015D6 00000001     H   13318 13310  13312
 $$$287F       2 000015DA 00000001     H   13324 13314B
 $$$288        1 00000050 00000001 A   U   13342 13339  13341
 $$$290B       1 00001602 00000001     X   13394 13401U
 $$$291B       4 00001614 00000001     I   13442 13494
 $$$291F       2 00001636 00000001     H   13491 13442B 13493
 $$$292B       4 0000161C 00000001     I   13455 13474
 $$$292F       2 0000162E 00000001     H   13471 13455B 13473
 $$$293E       2 00001632 00000001     H   13481 13475
 $$$293F       2 00001636 00000001     H   13487 13477B
 $$$294E       2 0000163A 00000001     H   13501 13495
 $$$294F       2 0000163E 00000001     H   13507 13497B
 $$$295        1 00000050 00000001 A   U   13525 13522  13524
 $$$297B       1 00001680 00000001     X   13597 13604U
 $$$298F       2 000016A6 00000001     H   13650 13636B
1SCAN     (SCAN2025) (12:54) (15MAR04) Ordinary Symbol and Literal Cross Reference                                          Page  163
 $$$299        1 00000050 00000001 A   U   13669 13666  13668
 $$$301B       1 000016CE 00000001     X   13741 13748U
 $$$302B       4 000016F0 00000001     I   13816 13830
 $$$302F       2 000016F4 00000001     H   13824 13816B 13829
 $$$303B       4 000016FC 00000001     I   13846 13865
 $$$303E       2 000016F8 00000001     H   13837 13831
 $$$303F       2 0000170E 00000001     H   13860 13833B 13846B 13864
 $$$305E       2 00001712 00000001     H   13872 13866
 $$$305F       2 00001714 00000001     H   13881 13868B
 $$$306        1 00000064 00000001 A   U   13910 13907  13909
 $$$308B       1 00001748 00000001     X   13963 13970U
 $$$309F       2 0000176E 00000001     H   14016 14002B
 $$$310        1 00000050 00000001 A   U   14035 14032  14034
 $$$312B       1 00001796 00000001     X   14086 14093U
 $$$313F       2 000017C0 00000001     H   14170 14161B
 $$$314F       2 000017DA 00000001     H   14198 14183B
 $$$315F       2 000017EC 00000001     H   14223 14210B
 $$$316F       2 0000180A 00000001     H   14266 14239B 14253B
 $$$318F       2 00001822 00000001     H   14305 14281B 14292B
 $$$320F       2 0000183A 00000001     H   14342 14318B 14329B
 $$$322        1 00000064 00000001 A   U   14381 14378  14380
 $$$324B       1 0000188C 00000001     X   14456 14463U
 $$$325F       2 000018B2 00000001     H   14509 14495B
 $$$326        1 00000050 00000001 A   U   14528 14525  14527
 $$$328B       1 000018DA 00000001     X   14578 14585U
 $$$329B       4 0000193C 00000001     I   14660 14672
 $$$329F       2 00001940 00000001     H   14668 14660B 14671
 $$$330B       4 00001948 00000001     I   14690 14709
 $$$330E       2 00001944 00000001     H   14679 14673
 $$$330F       2 00001956 00000001     H   14706 14675B 14690B 14708
 $$$332E       2 0000195A 00000001     H   14716 14710
 $$$332F       2 0000195C 00000001     H   14723 14712B
 $$$333        1 00000064 00000001 A   U   14747 14744  14746
 $$$335B       1 000019FE 00000001     X   14829 14836U
 $$$336        1 00000050 00000001 A   U   14866 14863  14865
 $$$338B       1 00001A2C 00000001     X   14893 14900U
 $$$339        1 00000050 00000001 A   U   14931 14928  14930
 $$$341B       1 00001A60 00000001     X   14958 14965U
 $$$342        1 00000050 00000001 A   U   14995 14992  14994
 $$$344B       1 00001A8E 00000001     X   15035 15042U
 $$$345F       2 00001AB4 00000001     H   15088 15074B
 $$$346        1 00000050 00000001 A   U   15107 15104  15106
 $$$348B       1 00001ADC 00000001     X   15158 15165U
 $$$349B       4 00001B3E 00000001     I   15240 15252
 $$$349F       2 00001B42 00000001     H   15248 15240B 15251
 $$$350B       4 00001B4A 00000001     I   15270 15289
 $$$350E       2 00001B46 00000001     H   15259 15253
 $$$350F       2 00001B58 00000001     H   15286 15255B 15270B 15288
 $$$352E       2 00001B5C 00000001     H   15296 15290
 $$$352F       2 00001B5E 00000001     H   15303 15292B
 $$$353        1 00000064 00000001 A   U   15327 15324  15326
 $$$355B       1 00001BFE 00000001     X   15409 15416U
 $$$356        1 00000050 00000001 A   U   15446 15443  15445
 $$$358B       1 00001C2C 00000001     X   15473 15480U
 $$$359        1 00000050 00000001 A   U   15511 15508  15510
 $$$361B       1 00001C60 00000001     X   15538 15545U
 $$$362        1 00000050 00000001 A   U   15575 15572  15574
 $$$364B       1 00001C8E 00000001     X   15615 15622U
 $$$365F       2 00001CB4 00000001     H   15668 15654B
1SCAN     (SCAN2025) (12:54) (15MAR04) Ordinary Symbol and Literal Cross Reference                                          Page  164
 $$$366        1 00000050 00000001 A   U   15687 15684  15686
 $$$368B       1 00001CDC 00000001     X   15738 15745U
 $$$369B       4 00001D3E 00000001     I   15820 15832
 $$$369F       2 00001D42 00000001     H   15828 15820B 15831
 $$$370B       4 00001D4A 00000001     I   15850 15869
 $$$370E       2 00001D46 00000001     H   15839 15833
 $$$370F       2 00001D58 00000001     H   15866 15835B 15850B 15868
 $$$372E       2 00001D5C 00000001     H   15876 15870
 $$$372F       2 00001D5E 00000001     H   15883 15872B
 $$$373        1 00000064 00000001 A   U   15907 15904  15906
 $$$375B       1 00001DFE 00000001     X   15989 15996U
 $$$376        1 00000050 00000001 A   U   16026 16023  16025
 $$$378B       1 00001E2C 00000001     X   16053 16060U
 $$$379        1 00000050 00000001 A   U   16091 16088  16090
 $$$381B       1 00001E60 00000001     X   16118 16125U
 $$$382        1 00000050 00000001 A   U   16155 16152  16154
 $$$384B       1 00001EC6 00000001     X   16275 16282U
 $$$385B       4 00001EDC 00000001     I   16353 16371
 $$$385F       2 00001EE4 00000001     H   16367 16353B 16370
 $$$385T       2 00001EE0 00000001     H   16356 16342B
 $$$387B       4 00001EEC 00000001     I   16387 16405
 $$$387E       2 00001EE8 00000001     H   16378 16372
 $$$387F       2 00001EF4 00000001     H   16401 16374B 16387B 16404
 $$$389B       4 00001EFC 00000001     I   16421 16438
 $$$389E       2 00001EF8 00000001     H   16412 16406
 $$$389F       2 00001F04 00000001     H   16435 16408B 16421B 16437
 $$$391E       2 00001F08 00000001     H   16445 16439
 $$$391F       2 00001F0C 00000001     H   16456 16441B
 $$$392F       2 00001F18 00000001     H   16479 16465B
 $$$393F       2 00001F64 00000001     H   16538 16506B
 $$$394F       2 00001F64 00000001     H   16534 16521B
 $$$395F       2 00001FC6 00000001     H   16602 16591B
 $$$396F       2 00001FD0 00000001     H   16627 16615B
 $$$397F       2 00001FEA 00000001     H   16655 16640B
 $$$398F       2 00001FFC 00000001     H   16679 16667B
 $$$399        1 00000064 00000001 A   U   16703 16700  16702
 $$$401B       1 0000227E 00000001     X   16963 16970U
 $$$402        1 00000050 00000001 A   U   17006 17003  17005
 $$$404B       1 000022BA 00000001     X   17034 17041U
 $$$405B       4 000022BE 00000001     I   17060 17073
 $$$405F       2 000022C6 00000001     H   17069 17060B 17072
 $$$406B       4 000022CE 00000001     I   17089 17105
 $$$406E       2 000022CA 00000001     H   17080 17074
 $$$406F       2 000022D4 00000001     H   17101 17076B 17089B 17104
 $$$408E       2 000022D8 00000001     H   17112 17106
 $$$408F       2 000022E6 00000001     H   17133 17108B 17121B
 $$$410        1 00000050 00000001 A   U   17156 17153  17155
 $$$412B       1 00002318 00000001     X   17184 17191U
 $$$413B       4 0000231C 00000001     I   17210 17223
 $$$413F       2 00002324 00000001     H   17219 17210B 17222
 $$$414B       4 0000232C 00000001     I   17239 17252
 $$$414E       2 00002328 00000001     H   17230 17224
 $$$414F       2 00002334 00000001     H   17248 17226B 17239B 17251
 $$$416E       2 00002338 00000001     H   17259 17253
 $$$416F       2 00002346 00000001     H   17280 17255B 17268B
 $$$418        1 00000050 00000001 A   U   17303 17300  17302
 $$$420B       1 00002378 00000001     X   17331 17338U
 $$$421B       4 0000237C 00000001     I   17357 17370
 $$$421F       2 00002384 00000001     H   17366 17357B 17369
1SCAN     (SCAN2025) (12:54) (15MAR04) Ordinary Symbol and Literal Cross Reference                                          Page  165
 $$$422B       4 0000238C 00000001     I   17386 17403
 $$$422E       2 00002388 00000001     H   17377 17371
 $$$422F       2 0000239A 00000001     H   17399 17373B 17386B 17402
 $$$424E       2 0000239E 00000001     H   17410 17404
 $$$424F       2 000023B4 00000001     H   17447 17406B 17419B
 $$$426F       2 000023B4 00000001     H   17443 17434B
 $$$427F       2 000023D8 00000001     H   17492 17459B 17471B
 $$$429        1 00000050 00000001 A   U   17517 17514  17516
 $$$43B        1 00000032 00000001     X    6928  6935U
 $$$431B       1 0000240A 00000001     X   17545 17552U
 $$$432B       4 0000240E 00000001     I   17571 17608
 $$$432F       2 00002426 00000001     H   17604 17571B 17607
 $$$433F       2 00002426 00000001     H   17600 17591B
 $$$434B       4 0000242E 00000001     I   17624 17641
 $$$434E       2 0000242A 00000001     H   17615 17609
 $$$434F       2 0000243C 00000001     H   17637 17611B 17624B 17640
 $$$436E       2 00002440 00000001     H   17648 17642
 $$$436F       2 0000245A 00000001     H   17686 17644B 17657B
 $$$438F       2 0000245A 00000001     H   17682 17673B
 $$$439F       2 0000247E 00000001     H   17731 17698B 17710B
 $$$44F        2 00000046 00000001     H    6997  6987B
 $$$441        1 00000050 00000001 A   U   17756 17753  17755
 $$$443B       1 000024B0 00000001     X   17784 17791U
 $$$444B       4 000024B4 00000001     I   17810 17847
 $$$444F       2 000024CC 00000001     H   17843 17810B 17846
 $$$445F       2 000024CC 00000001     H   17839 17830B
 $$$446B       4 000024D4 00000001     I   17863 17880
 $$$446E       2 000024D0 00000001     H   17854 17848
 $$$446F       2 000024E2 00000001     H   17876 17850B 17863B 17879
 $$$448E       2 000024E6 00000001     H   17887 17881
 $$$448F       2 00002500 00000001     H   17925 17883B 17896B
 $$$45F        2 00000058 00000001     H    7021  7011B
 $$$450F       2 00002500 00000001     H   17921 17912B
 $$$451F       2 00002524 00000001     H   17970 17937B 17949B
 $$$453        1 00000050 00000001 A   U   17995 17992  17994
 $$$455B       1 00002556 00000001     X   18023 18030U
 $$$456B       4 0000255A 00000001     I   18049 18084
 $$$456F       2 00002572 00000001     H   18081 18049B 18083
 $$$457F       2 00002572 00000001     H   18077 18064B
 $$$458E       2 00002576 00000001     H   18091 18085
 $$$458F       2 00002580 00000001     H   18101 18087B
 $$$459        1 00000050 00000001 A   U   18126 18123  18125
 $$$46F        2 0000007E 00000001     H    7068  7046B
 $$$461B       1 000025B2 00000001     X   18154 18161U
 $$$462F       2 000025CC 00000001     H   18205 18196B
 $$$462T       2 000025C8 00000001     H   18199 18186B
 $$$464        1 00000050 00000001 A   U   18228 18225  18227
 $$$466B       1 000025FE 00000001     X   18256 18263U
 $$$467F       2 00002618 00000001     H   18307 18298B
 $$$467T       2 00002614 00000001     H   18301 18288B
 $$$469        1 00000050 00000001 A   U   18330 18327  18329
 $$$47F        2 000000FE 00000001     H    7249  7094B
 $$$47S        2 00000084 00000001     H    7088  7248B
 $$$471B       1 0000264A 00000001     X   18358 18365U
 $$$472        1 00000050 00000001 A   U   18397 18394  18396
 $$$474B       1 00002680 00000001     X   18425 18432U
 $$$475B       4 00002686 00000001     I   18451 18474
 $$$475F       2 0000269C 00000001     H   18471 18451B 18473
 $$$476E       2 000026A0 00000001     H   18481 18475
1SCAN     (SCAN2025) (12:54) (15MAR04) Ordinary Symbol and Literal Cross Reference                                          Page  166
 $$$476F       2 000026AA 00000001     H   18491 18477B
 $$$477        1 00000050 00000001 A   U   18509 18506  18508
 $$$479B       1 000026D2 00000001     X   18537 18544U
 $$$480B       4 000026D8 00000001     I   18563 18586
 $$$480F       2 000026EE 00000001     H   18583 18563B 18585
 $$$481E       2 000026F2 00000001     H   18593 18587
 $$$481F       2 000026FC 00000001     H   18603 18589B
 $$$482        1 00000050 00000001 A   U   18621 18618  18620
 $$$484B       1 00002724 00000001     X   18649 18656U
 $$$485        1 00000050 00000001 A   U   18683 18680  18682
 $$$487B       1 0000280A 00000001     X   18759 18766U
 $$$488F       2 00002884 00000001     H   18844 18829B
 $$$489        1 00000050 00000001 A   U   18863 18860  18862
 $$$49F        2 000000B2 00000001     H    7136  7127B
 $$$491B       1 000029EE 00000001     X   19015 19022U
 $$$492F       2 00002A68 00000001     H   19124 19075B
 $$$493F       2 00002A68 00000001     H   19120 19108B
 $$$493T       2 00002A62 00000001     H   19111 19096B
 $$$495        1 00000050 00000001 A   U   19142 19139  19141
 $$$497B       1 00002A90 00000001     X   19170 19177U
 $$$498F       2 00002B0A 00000001     H   19279 19230B
 $$$499F       2 00002B0A 00000001     H   19275 19263B
 $$$499T       2 00002B04 00000001     H   19266 19251B
 $$$50F        2 000000C6 00000001     H    7173  7152B  7164B
 $$$501        1 00000050 00000001 A   U   19297 19294  19296
 $$$503B       1 00002B32 00000001     X   19325 19332U
 $$$504        1 00000050 00000001 A   U   19359 19356  19358
 $$$506B       1 00002B5E 00000001     X   19387 19394U
 $$$507        1 00000050 00000001 A   U   19423 19420  19422
 $$$509B       1 00002B92 00000001     X   19451 19458U
 $$$510        1 00000050 00000001 A   U   19491 19488  19490
 $$$512B       1 00002BCC 00000001     X   19519 19526U
 $$$513        1 00000050 00000001 A   U   19556 19553  19555
 $$$515B       1 00002BFA 00000001     X   19605 19612U
 $$$516F       2 00002C1A 00000001     H   19667 19640B 19653B
 $$$516S       2 00002C02 00000001     H   19632 19666B
 $$$519B       4 00002C24 00000001     I   19690 19703
 $$$519F       2 00002C2C 00000001     H   19699 19690B 19702
 $$$52F        2 000000E2 00000001     H    7214  7201B
 $$$520B       4 00002C34 00000001     I   19721 19734
 $$$520E       2 00002C30 00000001     H   19710 19704
 $$$520F       2 00002C3C 00000001     H   19730 19706B 19721B 19733
 $$$522B       4 00002C44 00000001     I   19752 19764
 $$$522E       2 00002C40 00000001     H   19741 19735
 $$$522F       2 00002C4C 00000001     H   19761 19737B 19752B 19763
 $$$524E       2 00002C50 00000001     H   19771 19765
 $$$524F       2 00002C54 00000001     H   19777 19767B
 $$$525        1 00000050 00000001 A   U   19798 19795  19797
 $$$526F       2 00002E26 00000001     H   20288 20055B
 $$$527B       1 00002CAE 00000001     X   19896 19903U
 $$$528F       2 00002CEC 00000001     H   19990 19958B
 $$$529F       2 00002CEC 00000001     H   19986 19973B
 $$$53F        2 000000EC 00000001     H    7235  7226B
 $$$530F       2 00002D54 00000001     H   20059 20038B
 $$$531B       4 00002DCA 00000001     I   20134 20195
 $$$531F       2 00002DEE 00000001     H   20191 20134B 20194
 $$$532F       2 00002DE2 00000001     H   20178 20154B
 $$$533        6 0000334A 00000001     I   20168 20160X
 $$$534        6 0000334A 00000001     I   20167 20168  20168
1SCAN     (SCAN2025) (12:54) (15MAR04) Ordinary Symbol and Literal Cross Reference                                          Page  167
 $$$535B       4 00002DF4 00000001     I   20210 20231
 $$$535E       2 00002DF2 00000001     H   20202 20196
 $$$535F       2 00002E04 00000001     H   20227 20198B 20210B 20230
 $$$537E       2 00002E08 00000001     H   20238 20232
 $$$537F       2 00002E26 00000001     H   20274 20234B 20246B
 $$$539        1 000004C0 00000001 A   U   20297 20294  20296
 $$$54         1 0000005C 00000001 A   U    7279  7276   7278
 $$$541B       1 00002EC6 00000001     X   20379 20386U
 $$$542        1 00000050 00000001 A   U   20413 20410  20412
 $$$544B       1 00002EF2 00000001     X   20440 20447U
 $$$545B       4 00002F4C 00000001     I   20511 20564
 $$$545F       2 00002F84 00000001     H   20561 20511B 20563
 $$$545T       2 00002F50 00000001     H   20514 20502B
 $$$547E       2 00002F88 00000001     H   20571 20565
 $$$547F       2 00002F8A 00000001     H   20580 20567B
 $$$548        1 00000050 00000001 A   U   20598 20595  20597
 $$$550B       1 00002FB2 00000001     X   20669 20676U
 $$$551F       2 00002FC8 00000001     H   20741 20732B
 $$$552F       2 000030E0 00000001     H   21044 20754B
 $$$553F       2 00003040 00000001     H   20816 20807B
 $$$554F       2 00003048 00000001     H   20837 20826B
 $$$555F       2 00003052 00000001     H   20862 20850B
 $$$556F       2 0000306A 00000001     H   20893 20875B
 $$$557F       2 00003096 00000001     H   20944 20923B
 $$$557T       2 00003080 00000001     H   20926 20911B
 $$$559F       2 000030BA 00000001     H   20991 20970B
 $$$559T       2 000030A4 00000001     H   20973 20958B
 $$$56B        1 00000132 00000001     X    7356  7363U
 $$$561F       2 000030DC 00000001     H   21036 21003B 21015B
 $$$563        1 00000058 00000001 A   U   21070 21067  21069
 $$$565B       1 00003182 00000001     X   21147 21154U
 $$$566        1 00000050 00000001 A   U   21181 21178  21180
 $$$568B       1 000031AE 00000001     X   21209 21216U
 $$$569        1 00000050 00000001 A   U   21243 21240  21242
 $$$57         1 00000250 00000001 A   U    7467  7464   7466
 $$$571B       1 000031DA 00000001     X   21270 21277U
 $$$572F       2 00003268 00000001     H   21414 21326B
 $$$573B       4 00003232 00000001     I   21341 21365
 $$$573F       2 00003248 00000001     H   21361 21341B 21364
 $$$574B       4 00003250 00000001     I   21381 21396
 $$$574E       2 0000324C 00000001     H   21372 21366
 $$$574F       2 0000325A 00000001     H   21393 21368B 21381B 21395
 $$$576E       2 0000325E 00000001     H   21403 21397
 $$$576F       2 00003268 00000001     H   21410 21399B
 $$$577        1 00000050 00000001 A   U   21432 21429  21431
 $$$579B       1 0000336A 00000001     X   21507 21514U
 $$$580F       2 0000337E 00000001     H   21547 21538B
 $$$581B       4 00003390 00000001     I   21578 21601
 $$$581F       2 000033A6 00000001     H   21598 21578B 21600
 $$$582E       2 000033AA 00000001     H   21608 21602
 $$$582F       2 000033BC 00000001     H   21625 21604B
 $$$583        1 00000050 00000001 A   U   21645 21642  21644
 $$$585B       1 000033E8 00000001     X   21688 21695U
 $$$586        1 00000050 00000001 A   U   21766 21763  21765
 $$$588B       1 00003438 00000001     X   21815 21822U
 $$$589        1 00000050 00000001 A   U   21893 21890  21892
 $$$59B        1 000001D2 00000001     X    7545  7552U
 $$$591B       1 00003484 00000001     X   21939 21946U
 $$$592        1 00000050 00000001 A   U   22017 22014  22016
1SCAN     (SCAN2025) (12:54) (15MAR04) Ordinary Symbol and Literal Cross Reference                                          Page  168
 $$$594B       1 000034D4 00000001     X   22064 22071U
 $$$595        1 00000050 00000001 A   U   22154 22151  22153
 $$$597B       1 00003536 00000001     X   22196 22203U
 $$$598        1 00000050 00000001 A   U   22285 22282  22284
 $$$60F        2 000001E0 00000001     H    7610  7600B
 $$$600B       1 00003676 00000001     X   22404 22411U
 $$$601F       2 000036E6 00000001     H   22506 22481B 22495B
 $$$603        1 00000280 00000001 A   U   22559 22556  22558
 $$$605B       1 00003756 00000001     X   22629 22636U
 $$$606        1 00000280 00000001 A   U   22747 22744  22746
 $$$608B       1 00003822 00000001     X   22803 22810U
 $$$609F       2 00003892 00000001     H   22905 22880B 22894B
 $$$61F        2 00000248 00000001     H    7782  7624B
 $$$61S        2 000001E0 00000001     H    7618  7781B
 $$$611F       2 000038F6 00000001     H   23011 22953B
 $$$611T       2 000038C2 00000001     H   22956 22929B 22942B
 $$$614B       4 000038D2 00000001     I   22972 22987
 $$$614F       2 000038DC 00000001     H   22984 22972B 22986
 $$$615E       2 000038E0 00000001     H   22994 22988
 $$$615F       2 000038E6 00000001     H   23003 22990B
 $$$616        1 00000280 00000001 A   U   23060 23057  23059
 $$$618B       1 00003952 00000001     X   23110 23117U
 $$$619B       4 00003956 00000001     I   23138 23153
 $$$619F       2 00003962 00000001     H   23150 23138B 23152
 $$$620E       2 00003966 00000001     H   23160 23154
 $$$620F       2 000039A6 00000001     H   23279 23156B
 $$$621        6 000041DE 00000001     I   23176 23168X
 $$$622        6 000041DE 00000001     I   23175 23176  23176
 $$$623B       4 00003972 00000001     I   23189 23204
 $$$623F       2 0000397E 00000001     H   23201 23189B 23203
 $$$624E       2 00003982 00000001     H   23211 23205
 $$$624F       2 000039A6 00000001     H   23275 23207B
 $$$625        6 000041E4 00000001     I   23227 23219X
 $$$626        6 000041E4 00000001     I   23226 23227  23227
 $$$627B       4 0000398E 00000001     I   23240 23255
 $$$627F       2 0000399A 00000001     H   23252 23240B 23254
 $$$628E       2 0000399E 00000001     H   23262 23256
 $$$628F       2 000039A6 00000001     H   23271 23258B
 $$$629        1 00000050 00000001 A   U   23300 23297  23299
 $$$63F        2 00000206 00000001     H    7673  7642B
 $$$631B       1 000039D2 00000001     X   23349 23356U
 $$$632        1 00000050 00000001 A   U   23395 23392  23394
 $$$634B       1 00003A0C 00000001     X   23444 23451U
 $$$635        1 00000050 00000001 A   U   23493 23490  23492
 $$$637B       1 00003A44 00000001     X   23554 23561U
 $$$638F       2 00003BE2 00000001     H   24106 23596B
 $$$638S       2 00003A46 00000001     H   23590 24105B
 $$$64F        2 00000206 00000001     H    7669  7660B
 $$$640B       4 00003A50 00000001     I   23614 23633
 $$$640F       2 00003A5A 00000001     H   23627 23614B 23632
 $$$641B       4 00003A62 00000001     I   23650 23680
 $$$641E       2 00003A5E 00000001     H   23640 23634
 $$$641F       2 00003A78 00000001     H   23672 23636B 23650B 23679
 $$$643B       4 00003A88 00000001     I   23713 24074
 $$$643E       2 00003A7C 00000001     H   23687 23681
 $$$643F       2 00003BC6 00000001     H   24067 23683B 23699B 23713B 24071
 $$$645B       4 00003A80 00000001     I   23699 24072
 $$$646B       4 00003A92 00000001     I   23729 23744
 $$$646F       2 00003A9E 00000001     H   23740 23729B 23743
1SCAN     (SCAN2025) (12:54) (15MAR04) Ordinary Symbol and Literal Cross Reference                                          Page  169
 $$$647B       4 00003AA8 00000001     I   23761 23776
 $$$647E       2 00003AA2 00000001     H   23751 23745
 $$$647F       2 00003ABA 00000001     H   23772 23747B 23761B 23775
 $$$649B       4 00003AC4 00000001     I   23793 23809
 $$$649E       2 00003ABE 00000001     H   23783 23777
 $$$649F       2 00003ADA 00000001     H   23805 23779B 23793B 23808
 $$$65F        2 00000218 00000001     H    7704  7691B
 $$$651B       4 00003AE4 00000001     I   23826 23842
 $$$651E       2 00003ADE 00000001     H   23816 23810
 $$$651F       2 00003AFA 00000001     H   23838 23812B 23826B 23841
 $$$653B       4 00003B04 00000001     I   23859 23875
 $$$653E       2 00003AFE 00000001     H   23849 23843
 $$$653F       2 00003B1A 00000001     H   23871 23845B 23859B 23874
 $$$655B       4 00003B24 00000001     I   23892 23908
 $$$655E       2 00003B1E 00000001     H   23882 23876
 $$$655F       2 00003B3A 00000001     H   23904 23878B 23892B 23907
 $$$657B       4 00003B44 00000001     I   23925 23941
 $$$657E       2 00003B3E 00000001     H   23915 23909
 $$$657F       2 00003B5A 00000001     H   23937 23911B 23925B 23940
 $$$659B       4 00003B64 00000001     I   23958 23974
 $$$659E       2 00003B5E 00000001     H   23948 23942
 $$$659F       2 00003B7A 00000001     H   23970 23944B 23958B 23973
 $$$66F        2 0000022E 00000001     H    7734  7716B
 $$$661B       4 00003B84 00000001     I   23991 24006
 $$$661E       2 00003B7E 00000001     H   23981 23975
 $$$661F       2 00003B94 00000001     H   24002 23977B 23991B 24005
 $$$663B       4 00003B9E 00000001     I   24023 24037
 $$$663E       2 00003B98 00000001     H   24013 24007
 $$$663F       2 00003BAE 00000001     H   24034 24009B 24023B 24036
 $$$665E       2 00003BB2 00000001     H   24044 24038
 $$$665F       2 00003BC6 00000001     H   24063 24040B
 $$$666E       2 00003BCA 00000001     H   24081 24073  24075
 $$$666F       2 00003BDE 00000001     H   24100 24077B
 $$$667        1 00000050 00000001 A   U   24129 24126  24128
 $$$669B       1 00003C0C 00000001     X   24184 24191U
 $$$67B        4 00000236 00000001     I    7748  7763
 $$$67F        2 0000023C 00000001     H    7760  7748B  7762
 $$$670F       2 00003DA6 00000001     H   24727 24226B
 $$$670S       2 00003C0E 00000001     H   24220 24726B
 $$$672B       4 00003C18 00000001     I   24244 24272
 $$$672F       2 00003C2E 00000001     H   24266 24244B 24271
 $$$673B       4 00003C36 00000001     I   24289 24310
 $$$673E       2 00003C32 00000001     H   24279 24273
 $$$673F       2 00003C40 00000001     H   24302 24275B 24289B 24309
 $$$675B       4 00003C50 00000001     I   24343 24695
 $$$675E       2 00003C44 00000001     H   24317 24311
 $$$675F       2 00003D8A 00000001     H   24688 24313B 24329B 24343B 24692
 $$$677B       4 00003C48 00000001     I   24329 24693
 $$$678F       2 00003C66 00000001     H   24370 24359B
 $$$679B       4 00003C6C 00000001     I   24382 24397
 $$$679F       2 00003C7E 00000001     H   24393 24382B 24396
 $$$68E        2 00000240 00000001     H    7770  7764
 $$$68F        2 00000244 00000001     H    7777  7766B
 $$$680B       4 00003C88 00000001     I   24414 24430
 $$$680E       2 00003C82 00000001     H   24404 24398
 $$$680F       2 00003C9E 00000001     H   24426 24400B 24414B 24429
 $$$682B       4 00003CA8 00000001     I   24447 24463
 $$$682E       2 00003CA2 00000001     H   24437 24431
 $$$682F       2 00003CBE 00000001     H   24459 24433B 24447B 24462
1SCAN     (SCAN2025) (12:54) (15MAR04) Ordinary Symbol and Literal Cross Reference                                          Page  170
 $$$684B       4 00003CC8 00000001     I   24480 24496
 $$$684E       2 00003CC2 00000001     H   24470 24464
 $$$684F       2 00003CDE 00000001     H   24492 24466B 24480B 24495
 $$$686B       4 00003CE8 00000001     I   24513 24529
 $$$686E       2 00003CE2 00000001     H   24503 24497
 $$$686F       2 00003CFE 00000001     H   24525 24499B 24513B 24528
 $$$688B       4 00003D08 00000001     I   24546 24562
 $$$688E       2 00003D02 00000001     H   24536 24530
 $$$688F       2 00003D1E 00000001     H   24558 24532B 24546B 24561
 $$$69         1 00000054 00000001 A   U    7814  7811   7813
 $$$690B       4 00003D28 00000001     I   24579 24595
 $$$690E       2 00003D22 00000001     H   24569 24563
 $$$690F       2 00003D3E 00000001     H   24591 24565B 24579B 24594
 $$$692B       4 00003D48 00000001     I   24612 24627
 $$$692E       2 00003D42 00000001     H   24602 24596
 $$$692F       2 00003D58 00000001     H   24623 24598B 24612B 24626
 $$$694B       4 00003D62 00000001     I   24644 24658
 $$$694E       2 00003D5C 00000001     H   24634 24628
 $$$694F       2 00003D72 00000001     H   24655 24630B 24644B 24657
 $$$696E       2 00003D76 00000001     H   24665 24659
 $$$696F       2 00003D8A 00000001     H   24684 24661B
 $$$697E       2 00003D8E 00000001     H   24702 24694  24696
 $$$697F       2 00003DA2 00000001     H   24721 24698B
 $$$698        1 00000050 00000001 A   U   24750 24747  24749
 $$$700B       1 00003DD0 00000001     X   24803 24810U
 $$$701F       2 00003F6A 00000001     H   25346 24845B
 $$$701S       2 00003DD2 00000001     H   24839 25345B
 $$$703B       4 00003DDC 00000001     I   24863 24882
 $$$703F       2 00003DE6 00000001     H   24876 24863B 24881
 $$$704B       4 00003DEE 00000001     I   24899 24929
 $$$704E       2 00003DEA 00000001     H   24889 24883
 $$$704F       2 00003E04 00000001     H   24921 24885B 24899B 24928
 $$$706B       4 00003E14 00000001     I   24962 25314
 $$$706E       2 00003E08 00000001     H   24936 24930
 $$$706F       2 00003F4E 00000001     H   25307 24932B 24948B 24962B 25311
 $$$708B       4 00003E0C 00000001     I   24948 25312
 $$$709F       2 00003E2A 00000001     H   24989 24978B
 $$$71B        1 0000027C 00000001     X    7891  7898U
 $$$710B       4 00003E30 00000001     I   25001 25016
 $$$710F       2 00003E42 00000001     H   25012 25001B 25015
 $$$711B       4 00003E4C 00000001     I   25033 25049
 $$$711E       2 00003E46 00000001     H   25023 25017
 $$$711F       2 00003E62 00000001     H   25045 25019B 25033B 25048
 $$$713B       4 00003E6C 00000001     I   25066 25082
 $$$713E       2 00003E66 00000001     H   25056 25050
 $$$713F       2 00003E82 00000001     H   25078 25052B 25066B 25081
 $$$715B       4 00003E8C 00000001     I   25099 25115
 $$$715E       2 00003E86 00000001     H   25089 25083
 $$$715F       2 00003EA2 00000001     H   25111 25085B 25099B 25114
 $$$717B       4 00003EAC 00000001     I   25132 25148
 $$$717E       2 00003EA6 00000001     H   25122 25116
 $$$717F       2 00003EC2 00000001     H   25144 25118B 25132B 25147
 $$$719B       4 00003ECC 00000001     I   25165 25181
 $$$719E       2 00003EC6 00000001     H   25155 25149
 $$$719F       2 00003EE2 00000001     H   25177 25151B 25165B 25180
 $$$72F        2 00000296 00000001     H    7973  7963B
 $$$72T        2 0000028E 00000001     H    7966  7950B
 $$$721B       4 00003EEC 00000001     I   25198 25214
 $$$721E       2 00003EE6 00000001     H   25188 25182
1SCAN     (SCAN2025) (12:54) (15MAR04) Ordinary Symbol and Literal Cross Reference                                          Page  171
 $$$721F       2 00003F02 00000001     H   25210 25184B 25198B 25213
 $$$723B       4 00003F0C 00000001     I   25231 25246
 $$$723E       2 00003F06 00000001     H   25221 25215
 $$$723F       2 00003F1C 00000001     H   25242 25217B 25231B 25245
 $$$725B       4 00003F26 00000001     I   25263 25277
 $$$725E       2 00003F20 00000001     H   25253 25247
 $$$725F       2 00003F36 00000001     H   25274 25249B 25263B 25276
 $$$727E       2 00003F3A 00000001     H   25284 25278
 $$$727F       2 00003F4E 00000001     H   25303 25280B
 $$$728E       2 00003F52 00000001     H   25321 25313  25315
 $$$728F       2 00003F66 00000001     H   25340 25317B
 $$$729        1 00000050 00000001 A   U   25369 25366  25368
 $$$731B       1 00003F94 00000001     X   25424 25431U
 $$$732F       2 0000412E 00000001     H   25967 25466B
 $$$732S       2 00003F96 00000001     H   25460 25966B
 $$$734B       4 00003FA0 00000001     I   25484 25512
 $$$734F       2 00003FB6 00000001     H   25506 25484B 25511
 $$$735B       4 00003FBE 00000001     I   25529 25550
 $$$735E       2 00003FBA 00000001     H   25519 25513
 $$$735F       2 00003FC8 00000001     H   25542 25515B 25529B 25549
 $$$737B       4 00003FD8 00000001     I   25583 25935
 $$$737E       2 00003FCC 00000001     H   25557 25551
 $$$737F       2 00004112 00000001     H   25928 25553B 25569B 25583B 25932
 $$$739B       4 00003FD0 00000001     I   25569 25933
 $$$74         1 00000054 00000001 A   U    8023  8020   8022
 $$$740F       2 00003FEE 00000001     H   25610 25599B
 $$$741B       4 00003FF4 00000001     I   25622 25637
 $$$741F       2 00004006 00000001     H   25633 25622B 25636
 $$$742B       4 00004010 00000001     I   25654 25670
 $$$742E       2 0000400A 00000001     H   25644 25638
 $$$742F       2 00004026 00000001     H   25666 25640B 25654B 25669
 $$$744B       4 00004030 00000001     I   25687 25703
 $$$744E       2 0000402A 00000001     H   25677 25671
 $$$744F       2 00004046 00000001     H   25699 25673B 25687B 25702
 $$$746B       4 00004050 00000001     I   25720 25736
 $$$746E       2 0000404A 00000001     H   25710 25704
 $$$746F       2 00004066 00000001     H   25732 25706B 25720B 25735
 $$$748B       4 00004070 00000001     I   25753 25769
 $$$748E       2 0000406A 00000001     H   25743 25737
 $$$748F       2 00004086 00000001     H   25765 25739B 25753B 25768
 $$$750B       4 00004090 00000001     I   25786 25802
 $$$750E       2 0000408A 00000001     H   25776 25770
 $$$750F       2 000040A6 00000001     H   25798 25772B 25786B 25801
 $$$752B       4 000040B0 00000001     I   25819 25835
 $$$752E       2 000040AA 00000001     H   25809 25803
 $$$752F       2 000040C6 00000001     H   25831 25805B 25819B 25834
 $$$754B       4 000040D0 00000001     I   25852 25867
 $$$754E       2 000040CA 00000001     H   25842 25836
 $$$754F       2 000040E0 00000001     H   25863 25838B 25852B 25866
 $$$756B       4 000040EA 00000001     I   25884 25898
 $$$756E       2 000040E4 00000001     H   25874 25868
 $$$756F       2 000040FA 00000001     H   25895 25870B 25884B 25897
 $$$758E       2 000040FE 00000001     H   25905 25899
 $$$758F       2 00004112 00000001     H   25924 25901B
 $$$759E       2 00004116 00000001     H   25942 25934  25936
 $$$759F       2 0000412A 00000001     H   25961 25938B
 $$$76B        1 000002D8 00000001     X    8119  8126U
 $$$760        1 00000050 00000001 A   U   25990 25987  25989
 $$$762B       1 0000540A 00000001     X   26543 26550U
1SCAN     (SCAN2025) (12:54) (15MAR04) Ordinary Symbol and Literal Cross Reference                                          Page  172
 $$$763F       2 0000541A 00000001     H   26586 26573B
 $$$764F       2 0000543A 00000001     H   26649 26602B 26617B
 $$$766F       2 0000544E 00000001     H   26671 26662B
 $$$767        1 00000050 00000001 A   U   26721 26718  26720
 $$$769B       1 00005492 00000001     X   26762 26769U
 $$$77F        2 000002E6 00000001     H    8183  8174B
 $$$770        1 00000050 00000001 A   U   26795 26792  26794
 $$$772B       1 000054BA 00000001     X   26832 26839U
 $$$773F       2 000054F4 00000001     H   26930 26877B
 $$$774F       2 000054EC 00000001     H   26924 26900B
 $$$775        6 00005A30 00000001     I   26914 26906X
 $$$776        6 00005A30 00000001     I   26913 26914  26914
 $$$777        1 00000050 00000001 A   U   26950 26947  26949
 $$$779B       1 00005520 00000001     X   27000 27007U
 $$$78F        2 000002FE 00000001     H    8226  8213B
 $$$78T        2 000002F8 00000001     H    8216  8200B
 $$$780F       2 00005534 00000001     H   27047 27038B
 $$$781        1 00000050 00000001 A   U   27097 27094  27096
 $$$783B       1 0000557C 00000001     X   27161 27168U
 $$$784F       2 000055B8 00000001     H   27285 27198B
 $$$785F       2 000055A6 00000001     H   27265 27218B 27233B
 $$$787        1 00000050 00000001 A   U   27304 27301  27303
 $$$789B       1 000055E0 00000001     X   27356 27363U
 $$$791F       2 0000560C 00000001     H   27445 27427B
 $$$794F       2 00005630 00000001     H   27497 27487B
 $$$795F       2 0000566A 00000001     H   27574 27509B
 $$$795S       2 00005630 00000001     H   27503 27573B
 $$$797F       2 0000565C 00000001     H   27564 27523B
 $$$798F       2 0000565C 00000001     H   27560 27539B 27549B
 $$$80         1 00000054 00000001 A   U    8271  8268   8270
 $$$800F       2 0000569A 00000001     H   27627 27600B
 $$$801        6 00005A36 00000001     I   27617 27609X
 $$$802        6 00005A36 00000001     I   27616 27617  27617
 $$$803F       2 000056A6 00000001     H   27649 27640B
 $$$804        1 00000050 00000001 A   U   27677 27674  27676
 $$$806B       1 000056D8 00000001     X   27723 27730U
 $$$808F       2 000056F0 00000001     H   27790 27772B
 $$$810F       2 00005706 00000001     H   27828 27810B
 $$$812        1 00000050 00000001 A   U   27890 27887  27889
 $$$814B       1 0000574A 00000001     X   27940 27947U
 $$$815F       2 00005764 00000001     H   27992 27983B
 $$$816F       2 00005778 00000001     H   28032 28005B
 $$$817        6 00005A3C 00000001     I   28022 28014X
 $$$818        6 00005A3C 00000001     I   28021 28022  28022
 $$$819F       2 00005784 00000001     H   28054 28045B
 $$$82B        1 00000342 00000001     X    8328  8335U
 $$$820        1 00000050 00000001 A   U   28079 28076  28078
 $$$822B       1 000057B2 00000001     X   28154 28161U
 $$$823        1 00000250 00000001 A   U   28283 28280  28282
 $$$825B       1 00005882 00000001     X   28327 28334U
 $$$826        1 00000050 00000001 A   U   28367 28364  28366
 $$$828B       1 000058B6 00000001     X   28395 28402U
 $$$829F       2 000058CE 00000001     H   28447 28437B
 $$$829T       2 000058C6 00000001     H   28440 28426B
 $$$83F        2 00000358 00000001     H    8386  8377B
 $$$831F       2 00005986 00000001     H   28699 28476B
 $$$831S       2 000058DE 00000001     H   28470 28698B
 $$$833B       4 000058EC 00000001     I   28493 28509
 $$$833F       2 00005900 00000001     H   28506 28493B 28508
1SCAN     (SCAN2025) (12:54) (15MAR04) Ordinary Symbol and Literal Cross Reference                                          Page  173
 $$$835E       2 00005904 00000001     H   28516 28510
 $$$835F       2 00005912 00000001     H   28524 28512B
 $$$837F       2 00005944 00000001     H   28606 28561B
 $$$84F        2 0000038A 00000001     H    8475  8402B  8414B  8426B
 $$$841F       2 00005972 00000001     H   28688 28643B
 $$$844        1 00000050 00000001 A   U   28732 28729  28731
 $$$846B       1 00005A5C 00000001     X   28802 28809U
 $$$847F       2 00005A78 00000001     H   28862 28835B 28848B
 $$$847S       2 00005A62 00000001     H   28827 28861B
 $$$850        1 00000040 00000001 A   U   28880 28877  28879
 $$$852B       1 00005AA0 00000001     X   28915 28922U
 $$$853F       2 00005AB8 00000001     H   28970 28944B 28957B
 $$$853S       2 00005AA0 00000001     H   28936 28969B
 $$$856F       2 00005AD4 00000001     H   29016 28989B 29002B
 $$$856S       2 00005ABE 00000001     H   28981 29015B
 $$$859        1 00000040 00000001 A   U   29034 29031  29033
 $$$861B       1 00005AFC 00000001     X   29072 29079U
 $$$862F       2 00005B1C 00000001     H   29116 29104B
 $$$862S       2 00005B02 00000001     H   29095 29115B
 $$$864F       2 00005B28 00000001     H   29154 29130B
 $$$865        6 000061AA 00000001     I   29144 29136X
 $$$866        6 000061AA 00000001     I   29143 29144  29144
 $$$867        1 00000050 00000001 A   U   29172 29169  29171
 $$$869B       1 00005B50 00000001     X   29210 29217U
 $$$87F        2 0000038A 00000001     H    8471  8444B
 $$$870F       2 00005B70 00000001     H   29254 29242B
 $$$870S       2 00005B56 00000001     H   29233 29253B
 $$$872F       2 00005B7C 00000001     H   29292 29268B
 $$$873        6 000061B0 00000001     I   29282 29274X
 $$$874        6 000061B0 00000001     I   29281 29282  29282
 $$$875        1 00000050 00000001 A   U   29310 29307  29309
 $$$877B       1 00005BA4 00000001     X   29345 29352U
 $$$879        1 00000050 00000001 A   U   29476 29473  29475
 $$$88         6 00000C44 00000001     I    8461  8453X
 $$$881B       1 00005EAE 00000001     X   29736 29743U
 $$$882        1 00000050 00000001 A   U   29773 29770  29772
 $$$884B       1 00005ED8 00000001     X   29802 29809U
 $$$885        1 00000050 00000001 A   U   29839 29836  29838
 $$$887B       1 00005F02 00000001     X   29868 29875U
 $$$888        1 00000050 00000001 A   U   29905 29902  29904
 $$$89         6 00000C44 00000001     I    8460  8461   8461
 $$$890B       1 00005F2C 00000001     X   29934 29941U
 $$$891        1 00000050 00000001 A   U   29971 29968  29970
 $$$893B       1 00005F56 00000001     X   30000 30007U
 $$$894        1 00000050 00000001 A   U   30037 30034  30036
 $$$896B       1 00005F80 00000001     X   30066 30073U
 $$$897        1 00000050 00000001 A   U   30103 30100  30102
 $$$899B       1 00005FAA 00000001     X   30132 30139U
 $$$90         1 00000050 00000001 A   U    8497  8494   8496
 $$$900        1 00000050 00000001 A   U   30169 30166  30168
 $$$902B       1 00005FD4 00000001     X   30198 30205U
 $$$903        1 00000050 00000001 A   U   30235 30232  30234
 $$$905B       1 00005FFE 00000001     X   30264 30271U
 $$$906        1 00000050 00000001 A   U   30301 30298  30300
 $$$908B       1 00006028 00000001     X   30330 30337U
 $$$909        1 00000050 00000001 A   U   30410 30407  30409
 $$$911B       1 00006070 00000001     X   30440 30447U
 $$$912        1 00000050 00000001 A   U   30480 30477  30479
 $$$914B       1 000060A6 00000001     X   30509 30516U
1SCAN     (SCAN2025) (12:54) (15MAR04) Ordinary Symbol and Literal Cross Reference                                          Page  174
 $$$915        1 00000050 00000001 A   U   30609 30606  30608
 $$$917B       1 000060F6 00000001     X   30638 30645U
 $$$918        1 00000050 00000001 A   U   30675 30672  30674
 $$$92B        1 000003BA 00000001     X    8563  8570U
 $$$920B       1 00006120 00000001     X   30704 30711U
 $$$921        1 00000050 00000001 A   U   30741 30738  30740
 $$$923B       1 0000614A 00000001     X   30770 30777U
 $$$924        1 00000050 00000001 A   U   30807 30804  30806
 $$$93F        2 00000406 00000001     H    8662  8637B  8651B
 $$$95F        2 0000042C 00000001     H    8690  8681B
 $$$96F        2 00000494 00000001     H    8833  8703B
 $$$97F        2 00000494 00000001     H    8829  8747B
 $$$97T        2 0000044C 00000001     H    8750  8723B  8736B
 @RAR          0 00000000 FFFFFFF0     @    1125  2162   2170B
 @R0           0 00000000 FFFFFFFE     @     706   982U
 @R1           0 00000000 FFFFFFFD     @     719   978U  2168   2169   7287U  7822U  8031U  8505U  8720   8733   8746
                                                  8766   8846   9364   9395   9408   9429   9492   9552   9617   9648
                                                  9661   9682   9732   9946   9974  10406  10550  10563  10794  10853
                                                 10912  10971  11142  11182  11352  11392  12305U 12506U 12776U 13033U
                                                 13127  13140  13291  13533U 13925U 14396U 19652  21577  22926  22939
                                                 22952  22971  23175  23226  23613  23649  23698  23728  23760  23792
                                                 23825  23858  23891  23924  23957  23990  24022  24243  24288  24328
                                                 24358  24381  24413  24446  24479  24512  24545  24578  24611  24643
                                                 24862  24898  24947  24977  25000  25032  25065  25098  25131  25164
                                                 25197  25230  25262  25483  25528  25568  25598  25621  25653  25686
                                                 25719  25752  25785  25818  25851  25883  26913  27514M 27566  27771
                                                 27784  28423  28436  28442  28499  28500  28518  28519  28956  28963
                                                 29109M 29110  29143M 29247M 29248  29281M
 @R10          0 00000000 FFFFFFF4     @     836   942U
 @R11          0 00000000 FFFFFFF3     @     849   938U
 @R12          0 00000000 FFFFFFF2     @     862   934U
 @R13          0 00000000 FFFFFFF1     @     875   930U 16650  18839  20885
 @R14          0 00000000 FFFFFFF0     @     888   926U 19937  20047M 20064  20183M 20219M 20255M 27616  28021
 @R15          0 00000000 FFFFFFEF     @     901   922U  8279U
 @R2           0 00000000 FFFFFFFC     @     732   974U  7294U  7829U  8038U  8286U  8512U 11843U 11979U 12298U 12769U
                                                 13026U 13199U 13350U 13540U 13918U 14389U 14755U 15335U 15915U 20305U
                                                 21653U 21774U 21901U 22025U 22162U 26729U 26958U 27105U 27312U 27426
                                                 27439  27459  27514  27522  27548  27548  27554  27567  27809  27822
 @R3           0 00000000 FFFFFFFB     @     745   970U  8460M
 @R4           0 00000000 FFFFFFFA     @     758   966U  8980   8981   9364   9492   9617   9732   9786   9842  23175
                                                 23226  26913M 27459  27522  27616M 28021M
 @R5           0 00000000 FFFFFFF9     @     771   962U  8460  28694  29109  29143  29247  29281
 @R6           0 00000000 FFFFFFF8     @     784   958U  8904U  9129U 10227U 10600  10624  19564U 20606U 21440U 22293U
                                                 24137U 24758U 25377U 25998U 27685U 28087U 28693M 28847  29001
 @R7           0 00000000 FFFFFFF7     @     797   954U  7268U  7456U  7803U  8012U  8260U  8486U  8885U  9110U 10208U
                                                 10453U 10654U 11022U 11233U 11443U 11683U 11824U 11960U 12039U 12279U
                                                 12393U 12487U 12750U 13007U 13180U 13331U 13514U 13658U 13899U 14024U
                                                 14370U 14517U 14736U 14855U 14920U 14984U 15096U 15316U 15435U 15500U
                                                 15564U 15676U 15896U 16015U 16080U 16144U 16692U 16995U 17145U 17292U
                                                 17506U 17745U 17984U 18115U 18217U 18319U 18386U 18498U 18610U 18672U
                                                 18852U 19131U 19286U 19348U 19412U 19480U 19545U 19787U 20286U 20402U
                                                 20587U 21059U 21170U 21232U 21421U 21634U 21755U 21882U 22006U 22143U
                                                 22274U 22548U 22736U 23049U 23289U 23384U 23482U 24118U 24739U 25358U
                                                 25979U 26710U 26784U 26939U 27086U 27293U 27666U 27879U 28068U 28272U
                                                 28356U 28721U 28869U 29023U 29161U 29299U 29465U 29762U 29828U 29894U
                                                 29960U 30026U 30092U 30158U 30224U 30290U 30399U 30469U 30598U 30664U
                                                 30730U 30796U
 @R8           0 00000000 FFFFFFF6     @     810   950U  7263U  7451U  7798U  8007U  8255U 10203U 13894U 14365U 14731U
                                                 15311U 15891U 16687U 20281U 21054U 22543U 22731U 23044U 28267U
1SCAN     (SCAN2025) (12:54) (15MAR04) Ordinary Symbol and Literal Cross Reference                                          Page  175
 @R9           0 00000000 FFFFFFF5     @     823   946U
 ABSCENT       1 00000000 00000000 A   T    2178  2178
 ASCTBL        1 00000000 00000000 A   T    2186  2186
 BADINT        2 000034BA 00000001     H   22045 13552  14413
 BADLNO        2 0000346A 00000001     H   21920 13554  16172
 BADPAREN      2 00003350 00000001     H   21488 10300
 BADQUOTE      2 0000570A 00000001     H   27834 27753B 27787B 27825B
 BADTOKEN      2 000033CE 00000001     H   21669 16177  18702  21460
 BLTBL         1 00000000 00000000 A   T    2188  2188
 BR            7 00000007 00000001 A   #    1015  6923M  7351M  7540M  7886M  8114M  8323M  8558M  8943M  9213M 10373M
                                                 10515M 10719M 11070M 11280M 11526M 11747M 11878M 12009M 12083M 12340M
                                                 12439M 12538M 12797M 13070M 13236M 13389M 13592M 13736M 13958M 14081M
                                                 14451M 14573M 14824M 14888M 14953M 15030M 15153M 15404M 15468M 15533M
                                                 15610M 15733M 15984M 16048M 16113M 16270M 16958M 17029M 17179M 17326M
                                                 17540M 17779M 18018M 18149M 18251M 18353M 18420M 18532M 18644M 18754M
                                                 19010M 19165M 19320M 19382M 19446M 19514M 19600M 19891M 20374M 20435M
                                                 20664M 21142M 21204M 21265M 21502M 21683M 21810M 21934M 22059M 22191M
                                                 22399M 22624M 22798M 23105M 23344M 23439M 23549M 24179M 24798M 25419M
                                                 26538M 26757M 26827M 26995M 27156M 27351M 27718M 27935M 28149M 28322M
                                                 28390M 28797M 28910M 29067M 29205M 29340M 29731M 29797M 29863M 29929M
                                                 29995M 30061M 30127M 30193M 30259M 30325M 30435M 30504M 30633M 30699M
                                                 30765M
 CALLDONE      2 0000031A 00000001     H    8248  8222B
 CALLMAT       2 00000262 00000001     H    7870 10294
 CALLRTN       2 000002BE 00000001     H    8098 10295
 CALLSTKP      4 00000000 FFFFFFE5     F    8082  7991M  8239M  8244
 CALLWA        4 00000000 FFFFFFE5     J    8089  7883   7912U  8020   8022   8023   8111   8140U  8268   8270   8271
 CALMDONE      2 000002AC 00000001     H    7998  7969B
 CHECKIOB      1 00000000 00000000 A   T    2234  2234
 CKQUOTES      2 000056BE 00000001     H   27704 27700
 COLS          2 00005F90 00000001     H   30113 29586
 COMMAND       1 00000000 00000000 A   T    2174  2174
 COMMSEG       1 00000000 00000000 A   T    2175  2175
 CP         4096 00000000 FFFFFFEC     J    6188  1170U
 CP#XSTK       1 00000010 FFFFFFEC A   U    3920  3921
 CPACFLG       1 000005D5 FFFFFFEC     R    4023  4027   4032   4037   4042   4047
 CPACFLN       4 000005C4 FFFFFFEC     F    4015  4050   4050
 CPACLNO       4 000005A8 FFFFFFEC     F    3977 17362  17576  17815
 CPAFLAG       1 000005C3 FFFFFFEC     R    3987  3991   3996   4001   4006
 CPAFLNO       4 000005A0 FFFFFFEC     F    3975 17065
 CPALLNO       4 000005A4 FFFFFFEC     F    3976 17215
 CPANAME       8 00000588 FFFFFFEC     C    3969  4065   4065
 CPAUTFLG      1 000008A9 FFFFFFEC     R    4333  4337   4342   4347   4352
 CPBLKACT      4 00000748 FFFFFFEC     F    4079 18183M 18183  18285M 18285
 CPCHFLAG      1 00000B68 FFFFFFEC     R    4960  4964
 CPCMNM        3 00000D24 FFFFFFEC     C    5286  8179M  8382M
 CPDELTA       4 00000738 FFFFFFEC     F    4072 16480  19403  19773
 CPDFLG        1 0000084C FFFFFFEC     R    4220  4224   4229   4234   4239   4244
 CPDFLG2       1 0000084D FFFFFFEC     R    4249  4253   4258   4263   4268   4273   4278
 CPDOUB        8 00000C88 FFFFFFEC     D    5206 28481M 28492  28498M 28499M 28518M 28525M 28538  28547  28560  28579
                                                 28593  28620  28629  28642  28661  28675
 CPERRID       8 00000886 FFFFFFEC     C    4319 26698M 27270M
 CPEXABRT      4 00000898 FFFFFFEC     F    4322 18553
 CPEXATTN      4 0000089C FFFFFFEC     F    4323 18441
 CPEXFLG       1 00000758 FFFFFFEC     R    4089  4093
 CPEXFLG2      1 00000759 FFFFFFEC     R    4099  4108   4118
 CPEXFLG3      1 0000075A FFFFFFEC     R    4125  4129   4134
 CPEXLINE      4 0000075C FFFFFFEC     F    4142 17424  17662  17901
 CPEXTFLG      1 00000E28 FFFFFFEC     R    5771  5775   5780   5785   5790   5795   5800
1SCAN     (SCAN2025) (12:54) (15MAR04) Ordinary Symbol and Literal Cross Reference                                          Page  176
 CPFABORT    128 00000D5A FFFFFFEC         5537  2138M  2138   2143M  2143
 CPFALL        1 00000010 FFFFFFEC A   U    5303 29367
 CPFBKLNO      4 0000074C FFFFFFEC     F    4080 18170
 CPFERROR     64 00000D5A FFFFFFEC         5542  2137M  2137   2142M  2142
 CPFNOCUR      1 00000002 FFFFFFEC A   U    5379 16464
 CPFNTEX       1 00000040 FFFFFFEC A   U    5389  5390
 CPFRDACT      1 00000D89 FFFFFFEC         5705 16339
 CPFRDEXE      2 00000D89 FFFFFFEC         5715 16386
 CPFRDEXT      3 00000D89 FFFFFFEC         5725 16420
 CPFRDRNG      1 00000D88 FFFFFFEC     R    5657  5661   5666   5671   5676   5681   5686   5691
 CPFRDSRC      1 00000D89 FFFFFFEC     R    5696  5705   5715   5725  16352
 CPFUNUM       1 00000080 FFFFFFEC A   U    5388  5390
 CPFXDFLG      1 000007E4 FFFFFFEC     R    4167  4171   4176
 CPGFLG1       1 00000474 FFFFFFEC     R    3530  3534   3539   3544   3549   3554   3884   3884
 CPGFLG10      1 0000047D FFFFFFEC     R    3767  3771   3776   3781   3786   3791   3796
 CPGFLG11      1 0000047E FFFFFFEC     R    3802  3806   3811
 CPGFLG12      1 0000047F FFFFFFEC     R    3817  3821   3826   3831
 CPGFLG13      1 00000480 FFFFFFEC     R    3837  3841
 CPGFLG14      1 00000481 FFFFFFEC     R    3847  3851   3856   3861   3866   3871
 CPGFLG4       1 00000477 FFFFFFEC     R    3583  3594   3603   3612   3621   3630
 CPGFLG5       1 00000478 FFFFFFEC     R    3636  3640   3645   3650   3655   3660   3665   3670   3675
 CPGFLG6       1 00000479 FFFFFFEC     R    3681  3685   3690   3695
 CPGFLG7       1 0000047A FFFFFFEC     R    3701  3705   3710   3715   3720
 CPGFLG8       1 0000047B FFFFFFEC     R    3726  3730   3735   3740   3745
 CPGFLG9       1 0000047C FFFFFFEC     R    3751  3755   3761
 CPINIT        1 00000174 FFFFFFEC     U    2700  6157
 CPJESFLG      1 000009E1 FFFFFFEC     R    4432  4436   4441   4446   4451   4456   4461   4466   4471
 CPJESFLY      1 000009FD FFFFFFEC     R    4482  4486   4491   4496
 CPJESHFL      1 000009E0 FFFFFFEC     R    4417  4421   4426   4505   4505
 CPLBKLNO      4 00000750 FFFFFFEC     F    4081 18272
 CPLFLG1       1 00000D50 FFFFFFEC     R    5300 29369M
 CPLFLG10      1 00000D59 FFFFFFEC     R    5523  5527
 CPLFLG11      1 00000D5A FFFFFFEC     R    5533  5537   5542   5547   5552
 CPLFLG12      1 00000D5B FFFFFFEC     R    5558  5562
 CPLFLG14      1 00000D5C FFFFFFEC     R    5568  5572   5577   5582   5587   5592
 CPLFLG4       1 00000D53 FFFFFFEC     R    5366 16464
 CPLFLG6       1 00000D55 FFFFFFEC     R    5398  5402   5407   5412   5417   5422   5427
 CPLFLG7       1 00000D56 FFFFFFEC     R    5433  5437   5442   5447   5452   5457
 CPLFLG8       1 00000D57 FFFFFFEC     R    5463  5467   5472   5477   5482
 CPLFLG9       1 00000D58 FFFFFFEC     R    5488  5492   5497   5502   5507   5512   5517
 CPLOCALZ      1 00000C48 FFFFFFEC     U    4990  6151   6151
 CPMFLG        1 0000084F FFFFFFEC     R    4287  4291
 CPMODFLG      1 00000C78 FFFFFFEC     R    5018  5022   5027   5032   5037   5042
 CPNAMELN      1 00000010 FFFFFFEC A   U    3913  4160
 CPNEDPFX     10 00000E29 FFFFFFEC     X    5804  5805   5806
 CPNSCANP      4 0000008C FFFFFFEC     A    2573  7389   7410  14621  14628  14644  15201  15208  15224  15781  15788
                                                 15804  16486  16495  16552  16559  16575  16647  17483  17722  17961
                                                 18463  18575  18779  18787  18794  18810  18836  19033  19040  19056
                                                 19188  19195  19211  19936  19947  20002  20009  20022  20046  20063
                                                 20086  20095  20102  20118  20182  20218  20254  20460  20467  20482
                                                 20519  20540  20552  20762  20768  20775  20791  20882  20935  20982
                                                 21027  21288  21295  21310  21353  21561  21590  21617  21730  21742
                                                 21857  21869  21981  21993  22106  22118  22130  22249  22261  26559
                                                 27061  27073  27186  28181  28190  28211  28232  28244  28255  29374
                                                 29377  29384  29400
 CPNUMFLG      1 00000C79 FFFFFFEC     R    5048  5060
 CPORVCMD      1 00000140 FFFFFFEC     R    2582  2586   2591   2596   2601   2606   2611   2616   2621   2626   2626
                                                  2677   2677
 CPORVFLG      1 00000149 FFFFFFEC     R    2633  2637   2642   2647   2652   2657   2662   2667   2672
1SCAN     (SCAN2025) (12:54) (15MAR04) Ordinary Symbol and Literal Cross Reference                                          Page  177
 CPORVWF       1 00000150 FFFFFFEC     R    2685  2689
 CPOSCANX      4 00000CA8 FFFFFFEC     F    5217  5284   5284
 CPR          11 0000000B 00000001 A   #    1079  1170U
 CPRACBAD     16 000001FC FFFFFFEC         2751  2785   2785   2786   2786
 CPRACF1       1 000001FC FFFFFFEC     R    2732  2736   2741   2746   2751   2756   2761   2766   2771   2787
 CPRACPSW     32 000001FC FFFFFFEC         2746  2784   2784   2786   2786
 CPRACUND     64 000001FC FFFFFFEC         2741  2784   2784   2785   2785
 CPRCVCUR      4 00000730 FFFFFFEC     A    4068  4070   4070
 CPRETURN      4 00000764 FFFFFFEC     F    4144 18374
 CPRFLG        1 000008AA FFFFFFEC     R    4358  4362   4367   4372   4377   4382   4387
 CPS         254 00000344 FFFFFFEC     X    3502  3505   3506   3508   3508
 CPSACCT       5 000003B4 FFFFFFEC     C    3101  3264   3264
 CPSAMCOD      1 00000A22 FFFFFFEC     R    4554  4562   4572   4582   4591   4600   4609   4619   4628   4637
 CPSAMFLG      1 00000A21 FFFFFFEC     R    4514  4518   4523   4528   4533   4538   4543   4548   4659   4659
 CPSCNFLG      1 00000CD0 FFFFFFEC     R    5230  5241   5250   5261
 CPSCNF2       1 00000CD1 FFFFFFEC     R    5266  5270
 CPSCNMAX      1 00000014 FFFFFFEC A   U    5282  5283
 CPSCRI        2 00000434 FFFFFFEC     H    3491  3496   3496
 CPSEG        60 00000050 FFFFFFEC     X    2571 26641  26691  27257  27854  29427  29452  30359  30384  30544  30562
                                                 30587
 CPSEGCOD      1 00000050 FFFFFFEC     R    2488  2497   2507   2517   2527   2537   2547   2557
 CPSEGLENF
               4 0000005C FFFFFFEC     A    2563 26601M 26601  26616  27217M 27217  27232
 CPSEGMRKF
               4 00000058 FFFFFFEC     A    2562 26616  27232
 CPSFL         1 00000384 FFFFFFEC     R    2839  2843   2848   2853   2858   2863
 CPSFLG        1 000003F8 FFFFFFEC     R    3379  3383   3388   3393   3398   3403   3408   3413   3418
 CPSFLG2       1 000003F9 FFFFFFEC     R    3424  3428   3433   3438
 CPSFL2        1 00000385 FFFFFFEC     R    2869  2873   2878   2883   2888
 CPSFL3        1 00000386 FFFFFFEC     R    2894  2898   2903   2908
 CPSFL4        1 00000387 FFFFFFEC     R    2914  2918   2923   2928
 CPSFL5        1 00000388 FFFFFFEC     R    2934  2938   2943   2948
 CPSKAFL       1 000003BF FFFFFFEC     R    3235  3239   3244   3249   3254   3259
 CPSKIFL       1 000003BE FFFFFFEC     R    3190  3194   3199   3204   3209   3214   3219   3224   3229
 CPSOF         1 000001F8 FFFFFFEC     X    2722  2724   2724
 CPSOFLAG      1 00000416 FFFFFFEC     R    3449  3453   3458   3463   3468   3473
 CPSOPST       4 000003C4 FFFFFFEC     F    3269  3498   3498
 CPSPORT       8 00000354 FFFFFFEC     C    2833  2953   2953
 CPSQFLG       1 000003EC FFFFFFEC     R    3298  3302
 CPSSFLG       1 000003BB FFFFFFEC     R    3108  3112   3117   3122   3127   3132   3137
 CPSSTART      4 00000344 FFFFFFEC     F    2825  2829   2829   3265   3265   3370   3370   3502   3502
 CPSSTAT       1 0000038F FFFFFFEC     R    3045  3049   3054   3059   3064   3069   3074   3079
 CPSTACF       1 000003BC FFFFFFEC     R    3143  3147   3152   3157   3162   3167   3172   3177   3182
 CPSTART       4 00000000 FFFFFFEC     C    2461  6155   6159
 CPSTFLAG      1 000003EA FFFFFFEC     R    3276  3280   3285   3290
 CPSTYPE       1 0000038C FFFFFFEC     R    2958  2967   2977   2987   2997   3007   3017   3027   3037
 CPSUFLG       1 000003EE FFFFFFEC     R    3313  3317   3322   3327   3332   3337   3342   3347   3352
 CPSUFLG2      1 000003EF FFFFFFEC     R    3358  3362   3367
 CPSVPGM       8 0000039C FFFFFFEC     C    3091  3097   3097
 CPS1ST        4 0000038C FFFFFFEC     F    2955  3500   3500
 CPTEMPP#      1 0000005F FFFFFFEC A   U    4408  4410
 CPTRMFL1      1 00000C7A FFFFFFEC     R    5066  5070   5075   5080   5204   5204
 CPTRMFL2      1 00000C7B FFFFFFEC     R    5086  5090   5095   5100   5105   5110   5115
 CPTRMFL3      1 00000C7C FFFFFFEC     R    5121  5125   5130   5135   5140   5145   5150   5155
 CPTRMFL4      1 00000C7D FFFFFFEC     R    5161  5165   5170   5175   5180   5185   5190   5195
 CPUSED        1 00000FBC FFFFFFEC A   U    6155  6156
 CPVACURS      8 00000AF0 FFFFFFEC     D    4933  4934   4935
 CPVCURS       8 00000AE0 FFFFFFEC     D    4927  4928   4929
 CPVFHIDE      8 00000AC8 FFFFFFEC         4752 18195  18297
1SCAN     (SCAN2025) (12:54) (15MAR04) Ordinary Symbol and Literal Cross Reference                                          Page  178
 CPVFLAG       1 00000AC8 FFFFFFEC     R    4728  4732   4737   4742   4747   4752
 CPVFLAG2      1 00000AC9 FFFFFFEC     R    4758  4762   4767   4772   4777   4782   4787
 CPVFLAG3      1 00000ACA FFFFFFEC     R    4793  4797   4802   4807   4812   4817   4822
 CPVFLAG4      1 00000ACB FFFFFFEC     R    4828  4832   4837   4842
 CPVLFLAG      1 00000ACE FFFFFFEC     R    4897  4901   4906   4911
 CPVMODE       1 00000ACC FFFFFFEC     R    4850  4854   4859   4864   4869   4874   4879   4884   4889
 CPVTWID       2 00000AD0 FFFFFFEC     H    4917  4920   4920
 CPWK1         4 00000D60 FFFFFFEC     F    5601  5616   5639
 CPWK2         4 00000D64 FFFFFFEC     F    5602  5617   5631
 CPWK3         4 00000D68 FFFFFFEC     F    5603  5618   5632
 CPWK4         4 00000D6C FFFFFFEC     F    5604  5619   5633
 CPWK5         4 00000D70 FFFFFFEC     F    5605  5621   5626   5634
 CPWK6         4 00000D74 FFFFFFEC     F    5606  5622   5627   5635   5642   5644
 CPWK7         4 00000D78 FFFFFFEC     F    5607  5620   5636
 CPXFLAG       1 000007FD FFFFFFEC     R    4195  4199
 CPXSTATE      4 000007F8 FFFFFFEC     F    4189  4202   4202
 CV         4016 00000000 FFFFFFEE     J    2364  1149U
 CVABSRTN      4 0000088C FFFFFFEE     V    2178  2153
 CVBLANKS    235 000004D8 FFFFFFEE     C    1958 28525
 CVBRMSK       1 00000751 FFFFFFEE     X    2094  2095   2096
 CVCFLAG       1 00000A00 FFFFFFEE     R    2259  2263   2268   2273   2278   2283
 CVCHKST       8 000009F0 FFFFFFEE     D    2249  2339   2339
 CVCHKST2      8 00000E28 FFFFFFEE     D    2342  2345   2345
 CVCOMRTN      4 0000087C FFFFFFEE     V    2174  2144
 CVDBGFLG      1 000004CC FFFFFFEE     R    1948  1952
 CVENT         4 0000074C FFFFFFEE     I    2092  6923B  7351B  7540B  7886B  8114B  8323B  8558B  8943B  9213B 10373B
                                                 10515B 10719B 11070B 11280B 11526B 11747B 11878B 12009B 12083B 12340B
                                                 12439B 12538B 12797B 13070B 13236B 13389B 13592B 13736B 13958B 14081B
                                                 14451B 14573B 14824B 14888B 14953B 15030B 15153B 15404B 15468B 15533B
                                                 15610B 15733B 15984B 16048B 16113B 16270B 16958B 17029B 17179B 17326B
                                                 17540B 17779B 18018B 18149B 18251B 18353B 18420B 18532B 18644B 18754B
                                                 19010B 19165B 19320B 19382B 19446B 19514B 19600B 19891B 20374B 20435B
                                                 20664B 21142B 21204B 21265B 21502B 21683B 21810B 21934B 22059B 22191B
                                                 22399B 22624B 22798B 23105B 23344B 23439B 23549B 24179B 24798B 25419B
                                                 26538B 26757B 26827B 26995B 27156B 27351B 27718B 27935B 28149B 28322B
                                                 28390B 28797B 28910B 29067B 29205B 29340B 29731B 29797B 29863B 29929B
                                                 29995B 30061B 30127B 30193B 30259B 30325B 30435B 30504B 30633B 30699B
                                                 30765B
 CVENTBR       2 00000750 FFFFFFEE     I    2093  2094
 CVERRMSG      4 000007C8 FFFFFFEE     I    2137 26703B 27281B 27865B
 CVERROR       4 000007D6 FFFFFFEE     I    2142  2158B
 CVEXIRTN      4 0000077C FFFFFFEE     V    2122  2118
 CVFCHRKBPR
               8 000004C9 FFFFFFEE         1863  1879   1879
 CVFCHRKBSE
               4 000004C9 FFFFFFEE         1868  1879   1879
 CVFCHRKCPR
               2 000004C9 FFFFFFEE         1885  1901   1901
 CVFCHRKCSE
               1 000004C9 FFFFFFEE         1890  1901   1901
 CVFCHRUBPR
             128 000004C9 FFFFFFEE         1819  1835   1835
 CVFCHRUBSE
              64 000004C9 FFFFFFEE         1824  1835   1835
 CVFCHRUCPR
              32 000004C9 FFFFFFEE         1841  1857   1857
 CVFCHRUCSE
              16 000004C9 FFFFFFEE         1846  1857   1857
 CVFL          1 000004C4 FFFFFFEE     R    1615  1619   1624   1629   1634   1639   1644   1649   1654
1SCAN     (SCAN2025) (12:54) (15MAR04) Ordinary Symbol and Literal Cross Reference                                          Page  179
 CVFL2         1 000004C5 FFFFFFEE     R    1660  1664   1669   1674   1679   1684   1689   1694   1699
 CVFL3         1 000004C6 FFFFFFEE     R    1705  1709   1714   1719   1724   1729   1734   1739   1744
 CVFL4         1 000004C7 FFFFFFEE     R    1750  1754   1759   1764   1769   1774   1779   1784
 CVFL5         1 000004C8 FFFFFFEE     R    1790  1794   1799   1804   1809
 CVFL6         1 000004C9 FFFFFFEE     R    1815  1819   1824   1836   1841   1846   1858   1863   1868   1880   1885
                                                  1890   1902
 CVHEAP#       1 00000200 FFFFFFEE A   U    1521  1522
 CVINVRTN      4 00000888 FFFFFFEE     V    2177  2147
 CVJESFLG      1 000004CA FFFFFFEE     R    1908  1912
 CVLNKRGS      4 00000780 FFFFFFEE     F    2124  2099M  2125
 CVLNKRTN      4 000007B0 FFFFFFEE     U    2125  2114M
 CVLOCK1       1 00000088 FFFFFFEE     R    1266  1270   1275
 CVLOCK2       1 00000089 FFFFFFEE     R    1280  1284
 CVLOCK3       1 0000008A FFFFFFEE     R    1289  1293
 CVLOCK4       1 0000008B FFFFFFEE     R    1298  1302
 CVLOGMOD      1 00000068 FFFFFFEE     R    1253  1257
 CVLOWTBL      4 000008AC FFFFFFEE     V    2185 29226
 CVMACH        1 00000067 FFFFFFEE     R    1213  1217   1222   1227   1232   1237   1242   1247
 CVMAXLNO      4 0000015C FFFFFFEE     A    1407 17244  19107  19262
 CVMILRTN      4 00000884 FFFFFFEE     V    2176  2156
 CVNEXT        4 000007DE FFFFFFEE     I    2144 29458B
 CVNOARTN      4 00000890 FFFFFFEE     V    2179  2150
 CVNWDATE      4 00000608 FFFFFFEE     F    1981  1985   1985
 CVNWMPG#      1 00000008 FFFFFFEE A   U    1983  1984
 CVPFXRTN      1 00000000 00000000 A   T    2122  2122
 CVPGFLAG      1 00000A01 FFFFFFEE     R    2289  2293   2298   2303
 CVPIOSZ       1 00004F80 FFFFFFEE A   U    1352  1354
 CVPPDBQH      4 0000009C FFFFFFEE     A    1310  1311
 CVPSFNO       1 000003E9 FFFFFFEE A   N    1474  1476
 CVPSLNO       1 000007CF FFFFFFEE A   N    1475  1476
 CVPXSZ        1 00000008 FFFFFFEE A   U    1353  1354
 CVR          12 0000000C 00000001 A   #    1092  1149U
 CVRKEY        1 00000008 FFFFFFEE A   U    2047  2048
 CVSEGRTN      4 00000880 FFFFFFEE     V    2175  2139
 CVSTACK#      1 00000080 FFFFFFEE A   U    1513  1514
 CVSTART       4 00000000 FFFFFFEE     C    1186  2357
 CVTRC         4 00000768 FFFFFFEE     I    2114  2100B
 CVTRCRTN      4 00000778 FFFFFFEE     V    2121  2115
 CVUPPTBL      4 000008A8 FFFFFFEE     V    2184 27590  27995  29088
 CVUSFNO       1 00000001 FFFFFFEE A   N    1481  1483
 CVUSLNO       1 000003E7 FFFFFFEE A   N    1482  1483
 CVVOL#        1 00000005 FFFFFFEE A   U    2332  2333
 CVWTOFLG      1 000004CB FFFFFFEE     R    1918  1922   1927   1932   1937   1942
 DEBUGSG       1 00000000 00000000 A   T    2075  2075
 DEV          12 00000000 FFFFFFEB     J    4713  4721
 DEVIATE       2 00005E94 00000001     H   29717 29496
 DEVMAX#       1 00000002 FFFFFFEC A   U    4664  4721
 DEVTYPE       1 00000001 FFFFFFEB     R    4681  4690   4700
 DODELTA       2 00002BE0 00000001     H   19586 18698  19815
 DOINCR        2 000027F0 00000001     H   18740 18699
 DOPARM        2 000016B4 00000001     H   13720 14407
 DOPCOLS       2 00001CC2 00000001     H   15717 16175
 DOPINT        2 0000177C 00000001     H   14065 14412
 DOPLNO        2 000018C0 00000001     H   14557 16167
 DOPSYMLN      2 00001AC2 00000001     H   15137 16173
 DOSPECL       2 00000328 00000001     H    8309 10289
 DOTTBL        1 00000000 00000000 A   T    2191  2191
 DRENCFLG      1 00000F9F FFFFFFEC     R    6119  6123   6128   6133   6138   6143
 DRENPROT      1 00000F9E FFFFFFEC     R    6106  6114
1SCAN     (SCAN2025) (12:54) (15MAR04) Ordinary Symbol and Literal Cross Reference                                          Page  180
 DSNON        40 00000E90 FFFFFFEC     C    5839  5840
 DSNWADSN     44 00000E5C FFFFFFEC     C    5826  5827   5828   5829   5838   5846   6077   6083   6085   6091   6094
                                                  6096   6099   6148
 DSNWAF4       1 00000F37 FFFFFFEC     R    5894  5898   5903   5908   5913   5918   5923   5928   5933
 DSNWAF5       1 00000F38 FFFFFFEC     R    5939  5943   5948   5953   5958   5963   5968   5973   5978
 DSNWAF6       1 00000F39 FFFFFFEC     R    5984  5988   5993   5998   6003   6008   6013   6018   6023
 DSNWAF7       1 00000F3A FFFFFFEC     R    6029  6033   6038   6043   6048
 DSNXG         1 00000004 FFFFFFEC A   U    5831  5833
 DSNXGL        1 00000003 FFFFFFEC A   U    5832  5833
 DSNXU         1 00000007 FFFFFFEC A   U    5833  5835
 DSNXUL        1 00000004 FFFFFFEC A   U    5834  5835
 DSSIZ         1 00000108 FFFFFFEC A   U    6077  6085   6094   6099
 EBCTBL        1 00000000 00000000 A   T    2187  2187
 EBCTBL7       1 00000000 00000000 A   T    2190  2190
 ECBLIST       1 00000000 00000000 A   T    2050  2050
 ENDLNO        1 00000000 00000012     T   18709 18709
 EPARTBL       1 00000000 00000000 A   T    2182  2182
 ERRORRTN      2 0000608C 00000001     H   30490 29661
 EXFRSTLN      1 00000000 0000000B     T   18700 18700
 EXLASTLN      1 00000000 0000000C     T   18701 18701
 EXNEXTLN      1 00000000 0000000F     T   18706 18706
 EXPREVLN      1 00000000 00000011     T   18708 18708
 FACTOR        2 00005EBE 00000001     H   29783 29511
 FINDDQUO      2 00000E7C 00000001     H   11266 10679  11710
 FINDPREN      2 00000D48 00000001     H   10705 10677  11709
 FINDSQUO      2 00000E08 00000001     H   11056 10678  11708
 FSR           0 00000000 00000001 A   #    1002  6917   7256M  7276M  7345   7444M  7464M  7534   7791M  7811M  7880
                                                  8000M  8020M  8108   8268M  8318   8494M  8553   8893M  8938   9118M
                                                  9207  10216M 10368  10446M 10461M 10510  10647M 10662M 10714  11015M
                                                 11030M 11065  11226M 11241M 11275  11436M 11451M 11521  11672M 11691M
                                                 11742  11832M 11873  11932M 11968M 12004  12047M 12078  12251M 12287M
                                                 12335  12382M 12401M 12434  12495M 12533  12743M 12758M 12792  13000M
                                                 13015M 13065  13151M 13188M 13231  13302M 13339M 13384  13463M 13522M
                                                 13587  13646M 13666M 13730  13886M 13907M 13953  14012M 14032M 14075
                                                 14350M 14378M 14446  14505M 14525M 14567  14702M 14744M 14819  14863M
                                                 14883  14913M 14928M 14948  14992M 15025  15084M 15104M 15147  15282M
                                                 15324M 15399  15443M 15463  15493M 15508M 15528  15572M 15605  15664M
                                                 15684M 15727  15862M 15904M 15979  16023M 16043  16073M 16088M 16108
                                                 16152M 16264  16675M 16700M 16953  17003M 17024  17153M 17174  17300M
                                                 17321  17514M 17535  17753M 17774  17992M 18013  18123M 18144  18225M
                                                 18246  18327M 18348  18394M 18415  18506M 18527  18618M 18639  18680M
                                                 18749  18860M 19005  19139M 19160  19294M 19315  19356M 19377  19420M
                                                 19441  19488M 19509  19553M 19595  19780M 19795M 19885  20266M 20294M
                                                 20369  20410M 20430  20595M 20658  21040M 21067M 21137  21178M 21199
                                                 21240M 21260  21429M 21497  21642M 21678  21763M 21805  21890M 21929
                                                 22014M 22054  22151M 22186  22282M 22393  22532M 22556M 22618  22720M
                                                 22744M 22792  23033M 23057M 23100  23282M 23297M 23339  23392M 23434
                                                 23490M 23544  24126M 24174  24747M 24793  25366M 25414  25987M 26533
                                                 26718M 26752  26792M 26822  26947M 26990  27094M 27151  27301M 27346
                                                 27655M 27674M 27713  27887M 27930  28057M 28076M 28143  28280M 28317
                                                 28349M 28364M 28385  28714M 28729M 29062  29169M 29200  29307M 29335
                                                 29473M 29726  29770M 29792  29836M 29858  29902M 29924  29968M 29990
                                                 30034M 30056  30100M 30122  30166M 30188  30232M 30254  30298M 30320
                                                 30407M 30430  30462M 30477M 30499  30606M 30628  30672M 30694  30738M
                                                 30760  30804M
 FTBLDQUO      2 000010F0 00000001     H   11484 11486  11712
 FTBLPREN      2 00000EF0 00000001     H   11464 11466  11468  11470  11472  11705
 FTBLSQUO      2 00000FF0 00000001     H   11477 11479  11711
 GOTLNO        2 00001534 00000001     H   12994 12887B 12962B
1SCAN     (SCAN2025) (12:54) (15MAR04) Ordinary Symbol and Literal Cross Reference                                          Page  181
 GTNEXTLN      1 00000000 0000000E     T   18705 18705
 GTPREVLN      1 00000000 00000010     T   18707 18707
 HEXBAD        4 00005990 00000001     I   28706 28541B 28582B 28596B 28623B 28664B 28678B
 HEXCONV       2 00005868 00000001     H   28308 28304
 HEXEXIT       2 000059A0 00000001     H   28712 28703B 28709B
 HEXSTR        2 0000589C 00000001     H   28376 28372  28756
 HIBAL         1 00000000 FFFFFFFF     J     691   707    720    733    746    759    772    785    798    811    824
                                                   837    850    863    876    889    902
 INCRPRT       4 00002894 00000001     F   18871 19809
 INT           2 00005F66 00000001     H   30047 29541
 INVALID       1 00000000 00000000 A   T    2177  2177
 IVALPRT       4 00002934 00000001     F   18932 19812
 LINENO        2 00005EE8 00000001     H   29849 29526
 LNO           2 00005F3C 00000001     H   29981 29556
 LOWCASE       2 00005B36 00000001     H   29191 29187
 LOWTBL        1 00000000 00000000 A   T    2185  2185
 LRTRIM        2 00005A86 00000001     H   28896 28892
 LSR           8 00000008 00000001 A   #    1040  6917   7276M  7345   7464M  7534   7811M  7880   8020M  8108   8268M
                                                  8318   8494M  8553   8893M  8938   9118M  9207  10216M 10368  10461M
                                                 10510  10662M 10714  11030M 11065  11241M 11275  11451M 11521  11691M
                                                 11742  11832M 11873  11968M 12004  12047M 12078  12287M 12335  12401M
                                                 12434  12495M 12533  12758M 12792  13015M 13065  13188M 13231  13339M
                                                 13384  13522M 13587  13666M 13730  13907M 13953  14032M 14075  14378M
                                                 14446  14525M 14567  14744M 14819  14863M 14883  14928M 14948  14992M
                                                 15025  15104M 15147  15324M 15399  15443M 15463  15508M 15528  15572M
                                                 15605  15684M 15727  15904M 15979  16023M 16043  16088M 16108  16152M
                                                 16264  16700M 16953  17003M 17024  17153M 17174  17300M 17321  17514M
                                                 17535  17753M 17774  17992M 18013  18123M 18144  18225M 18246  18327M
                                                 18348  18394M 18415  18506M 18527  18618M 18639  18680M 18749  18860M
                                                 19005  19139M 19160  19294M 19315  19356M 19377  19420M 19441  19488M
                                                 19509  19553M 19595  19795M 19885  20294M 20369  20410M 20430  20595M
                                                 20658  21067M 21137  21178M 21199  21240M 21260  21429M 21497  21642M
                                                 21678  21763M 21805  21890M 21929  22014M 22054  22151M 22186  22282M
                                                 22393  22556M 22618  22744M 22792  23057M 23100  23297M 23339  23392M
                                                 23434  23490M 23544  24126M 24174  24747M 24793  25366M 25414  25987M
                                                 26533  26718M 26752  26792M 26822  26947M 26990  27094M 27151  27301M
                                                 27346  27674M 27713  27887M 27930  28076M 28143  28280M 28317  28364M
                                                 28385  28729M 28792  28877M 28905  29031M 29062  29169M 29200  29307M
                                                 29335  29473M 29726  29770M 29792  29836M 29858  29902M 29924  29968M
                                                 29990  30034M 30056  30100M 30122  30166M 30188  30232M 30254  30298M
                                                 30320  30407M 30430  30477M 30499  30606M 30628  30672M 30694  30738M
                                                 30760  30804M
 MALL          2 000012C4 00000001     H   11864 11860
 MALL          1 00000000 00000008     T   14803 14803  15383  15963  16936  18927  18988  20353  21120  29660
 MCNULL        2 00003168 00000001     H   21128 21091
 MCOLCOL1      4 00000000 FFFFFFE0     F   20630 20759M 20896
 MCOLCOL2      4 00000004 FFFFFFE0     F   20631 20897  21405M
 MCOLDONE      2 000030E0 00000001     H   21047 20812B 20940B 20987B 21032B
 MCOLPRT       4 000030F0 00000001     F   21079 21455
 MCOLS         2 00002F98 00000001     H   20648 15948  20644  29585
 MCOLWA        8 00000000 FFFFFFE0     J   20638 20661  20690U 20703  20711U 20719M 20719  21067  21069  21070
 MCOTHER       2 00003194 00000001     H   21190 21121
 MCSLASH       2 000031C0 00000001     H   21251 21106
 MILERR        1 00000000 00000000 A   T    2176  2176
 MIMFLEN       4 00000008 FFFFFFE1     F   19852 20070M 20526
 MIMFLOC       4 00000004 FFFFFFE1     F   19851 20069M 20525
 MIMLNO        4 00000000 FFFFFFE1     F   19850 20260  20456M
 MIMMAT      176 000003C0 FFFFFFE1     X   19858 20064M 20255
 MIMNOMAT    176 00000310 FFFFFFE1     X   19857 19937M 20047  20140M 20167M 20183  20219
1SCAN     (SCAN2025) (12:54) (15MAR04) Ordinary Symbol and Literal Cross Reference                                          Page  182
 MIMNOTLN      2 00002EAC 00000001     H   20360 20324  20354
 MIMPLIED      2 00002C94 00000001     H   19875 19871
 MIMPRT        4 00002E34 00000001     F   20312 21451
 MIMSYMLN      2 00002ED8 00000001     H   20421 20339
 MIMWA      1136 00000000 FFFFFFE1     J   19865 19888  19917U 19923  19931U 20294  20296  20297
 MINT          2 0000142A 00000001     H   12524 12520
 MINT          1 00000000 00000019     T   29540 29540
 MINTDONE      2 000014A4 00000001     H   12737 12630B 12668B 12705B
 MISSPARM      2 0000341E 00000001     H   21796 14411  16171
 MLNO          2 000014B8 00000001     H   12783 12779
 MLNO          1 00000000 00000007     T   14788 14788  16723  18943  29555
 MNCHAR        2 000015E8 00000001     H   13375 13371
 MNONE         2 0000130A 00000001     H   11995 11991
 MNULL         2 0000128A 00000001     H   11733 11729
 MNULL         1 00000000 00000006     T   14773 14773  15353  15933  16921  18912  18973  20323  21090  29630
 MOPTION       2 000013BE 00000001     H   12326 12322
 MPAREN        2 0000159C 00000001     H   13222 13218
 MPARM         2 00001666 00000001     H   13578 13574
 MPCOLS        2 00001C74 00000001     H   15596 15592  29600
 MPINT         2 0000172E 00000001     H   13944 13940
 MPINT         1 00000000 00000017     T   29510 29510  29691
 MPLNO         2 00001872 00000001     H   14437 14433
 MPLNO         1 00000000 00000018     T   29525 29525  29706
 MPSYMLN       2 00001A74 00000001     H   15016 15012  29615
 MQUOTE        2 00001548 00000001     H   13056 13052
 MSBADVAL      2 0000351C 00000001     H   22177 19814
 MSLACT      128 00000010 FFFFFFE2        16220 16363M 16452M 17059  17209  17356  17570  17809  18048
 MSLDELTA      4 00000004 FFFFFFE2     F   16211 16481M 16673  16984M 19472M
 MSLEXEC      32 00000010 FFFFFFE2        16230 16397M 17120  17267  17418  17656  17895
 MSLEXTRN     64 00000010 FFFFFFE2        16225 16431M 17088  17238  17385  17623  17862
 MSLFLAGS      1 00000010 FFFFFFE2     R   16216 16220  16225  16230  16235
 MSLINCR       4 00000008 FFFFFFE2     F   16212 19081  19236  19404M 19467M
 MSLLNO        4 00000000 FFFFFFE2     F   16210 16672  16979M 17134M 17281M 17493M 17732M 17971M 18102M 18206M 18308M
                                                 18375M 18483M 18595M 19080  19082M 19235  19237M
 MSLNOCUR     16 00000010 FFFFFFE2        16235 16475M 17470  17709  17948
 MSLSTART      4 0000000C FFFFFFE2     A   16213 16491M 22232
 MSLWA        17 00000000 FFFFFFE2     J   16244 16267  16296U 16309  16317U 16327M 16327  16700  16702  16703  22228U
 MSMBADVL      2 00002BB2 00000001     H   19500 18974  18989
 MSMCDONE      2 000023E2 00000001     H   17499 17395B 17488B
 MSMCURR       2 0000235E 00000001     H   17312 16799  16904
 MSMDECR       2 00002A76 00000001     H   19151 18898
 MSMDELTA      2 00002B44 00000001     H   19368 18959
 MSMEDONE      2 0000258A 00000001     H   18108 18073B 18097B
 MSMEND        2 0000253C 00000001     H   18004 16844
 MSMFBLK       2 00002598 00000001     H   18135 16859
 MSMFRST       2 000022A0 00000001     H   17015 16739  16769
 MSMINCR       2 000029D4 00000001     H   18996 18883
 MSMIVAL       2 00002B78 00000001     H   19432 18944
 MSMLAST       2 000022FE 00000001     H   17165 16754  16784
 MSMLBLK       2 000025E4 00000001     H   18237 16874
 MSMLNO        2 00002264 00000001     H   16944 16724
 MSMNDONE      2 00002488 00000001     H   17738 17633B 17727B
 MSMNEXT       2 000023F0 00000001     H   17526 16814
 MSMNOINC      2 00002B18 00000001     H   19306 18913  18928
 MSMNOMAT      2 0000270A 00000001     H   18630 16922  16937
 MSMPDONE      2 0000252E 00000001     H   17977 17872B 17966B
 MSMPREV       2 00002496 00000001     H   17765 16829
 MSMPRT        4 0000200C 00000001     F   16712 18694
 MSMRETN       2 00002630 00000001     H   18339 16889
1SCAN     (SCAN2025) (12:54) (15MAR04) Ordinary Symbol and Literal Cross Reference                                          Page  183
 MSYMLN        2 00001EAC 00000001     H   16254 16250
 MSYMLN        1 00000000 00000009     T   15368 15368  20338  29570
 MTOKDONE      2 000013B0 00000001     H   12272 12256B
 MTOKEN        2 00001336 00000001     H   12069 12065  13551  14406  16166
 MTOKEN        1 00000000 0000000A     T   16738 16738  16753  16768  16783  16798  16813  16828  16843  16858  16873
                                                 16888  16903  18882  18897  18958  21105  29495  29676
 NBLTBL        1 00000000 00000000 A   T    2189  2189
 NDETRNG       1 00000000 0000001A     T   30820 30820
 NKW          40 00000000 FFFFFFE9     J    6778  6970U  7587U  7647   7649   7773   7932U  7976   7994   8160U  8229
                                                  8242   8351U 12120U 12467U 12575U 12834U 13417U 13773U 14118U
 NKWFABBV    128 00000014 FFFFFFE9         6728 12167
 NKWFAB1      64 00000014 FFFFFFE9         6733 12206
 NKWFEND      64 00000013 FFFFFFE9         6719  7747
 NKWFLG1       1 00000012 FFFFFFE9     R    6686  6690   6695   6700   6705
 NKWFLG2       1 00000013 FFFFFFE9     R    6710  6714   6719
 NKWFLG3       1 00000014 FFFFFFE9     R    6724  6728   6733   6738   6743
 NKWFLG4       1 00000015 FFFFFFE9     R    6748  6752   6757
 NKWFMAT      32 00000012 FFFFFFE9         6700  7947
 NKWFNOBK     16 00000014 FFFFFFE9         6743  8413
 NKWFPI      128 00000015 FFFFFFE9         6752 12684  14317
 NKWFPUSH    128 00000013 FFFFFFE9         6714  7641   8425
 NKWFP1      128 00000012 FFFFFFE9         6690 12606  14238
 NKWFRTN      16 00000012 FFFFFFE9         6705  8197
 NKWFSET      32 00000014 FFFFFFE9         6738  8173   8376
 NKWFSI       64 00000015 FFFFFFE9         6757 12647  14280
 NKWMAT        4 00000020 FFFFFFE9     A    6770  7962   7994
 NKWPARM1      4 00000018 FFFFFFE9     F    6768 12480X 12620  14252
 NKWPARM2      4 0000001C FFFFFFE9     F    6769 12478X
 NKWRTN        4 00000024 FFFFFFE9     A    6771  7649   8212   8242
 NKWTOK       16 00000000 FFFFFFE9     C    6682  8179   8382  12139  13428
 NKWTOKL       2 00000010 FFFFFFE9     H    6683 12140  13429
 NOACTION      1 00000000 00000000 A   T    2179  2179
 NOTQUOTE      2 00005674 00000001     H   27581 27408B 27442B 27462B
 NOTVALID      2 000053F0 00000001     H   26524 26520
 NPARTBL       1 00000000 00000000 A   T    2183  2183
 NSCAN         2 00000018 00000001     H    6907  6903
 NSCAN         1 00000000 00000005     T   10293 10293  16169  18695  19810  21452  28755  30822
 NSCANSTR      2 00000118 00000001     H    7335  7331
 NSCANSTR      1 00000000 00000013     T   21450 21450
 NSCANTOK      2 00005798 00000001     H   28133 28129
 NSCNCB      176 00000000 FFFFFFED     J    2448  2574   6960U  7391M  7412M  7578U  7923U  8151U  8360U  8586U  8817
                                                  8971U  9250U 11775U 11906U 12111U 12566U 12825U 13098U 13264U 13426U
                                                 13782U 14127U 14610U 14629  14630  14631  14634M 14635M 14637M 14647M
                                                 14648M 14649M 15190U 15209  15210  15211  15214M 15215M 15217M 15227M
                                                 15228M 15229M 15770U 15789  15790  15791  15794M 15795M 15797M 15807M
                                                 15808M 15809M 16307U 16487  16489  16496  16511  16526  16527  16528M
                                                 16528  16529  16530M 16543M 16560  16561  16562  16565M 16566M 16568M
                                                 16578M 16579M 16580M 16650  18711  18780  18782  18795  18796  18797
                                                 18800M 18801M 18803M 18813M 18814M 18815M 18839  19041  19042  19043
                                                 19046M 19047M 19049M 19059M 19060M 19061M 19196  19197  19198  19201M
                                                 19202M 19204M 19214M 19215M 19216M 19820  19857  19858  19937  19948
                                                 19963  19978  19979  19980M 19980  19981  19982M 19995M 20010  20011
                                                 20012  20015M 20025M 20026M 20027M 20047  20064  20087M 20088M 20103
                                                 20104  20105  20108M 20109M 20111M 20121M 20122M 20123M 20140M 20167M
                                                 20183  20219  20255  20468  20469  20470  20473M 20474M 20475M 20485M
                                                 20486M 20487M 20520M 20520  20701U 20763  20765  20776  20777  20778
                                                 20781M 20782M 20784M 20794M 20795M 20796M 20885  21296  21297  21298
                                                 21301M 21302M 21303M 21313M 21314M 21315M 21463  21711U 21838U 21962U
                                                 22087U 22219U 24052U 24089U 24673U 24710U 25292U 25329U 25913U 25950U
1SCAN     (SCAN2025) (12:54) (15MAR04) Ordinary Symbol and Literal Cross Reference                                          Page  184
                                                 26855U 27023U 27184U 27380U 27964U 28182  28183  28184  28192M 28213M
                                                 28237M 28258M 28259M 28260M 29385  29386  29387  29390M 29391M 29393M
                                                 29403M 29404M 29405M
 NSCNCTOK     16 00000040 FFFFFFED     C    2437  8981M  9069M 13786  14131  14614  15194  15774  21966  22091
 NSCNDONE      2 000000FE 00000001     H    7252  7064B  7132B  7169B  7210B  7231B
 NSCNFBLK    128 00000008 FFFFFFED         2389  8401
 NSCNFERR      8 00000018 FFFFFFED         2427  9292M
 NSCNFINT     32 00000018 FFFFFFED         2417  9523M 12587  12847  14209  20731  20753  21380
 NSCNFLGS      1 00000008 FFFFFFED     R    2385  2389   2394
 NSCNFLNO     16 00000018 FFFFFFED         2422  9888M 12906M 12922
 NSCNFNOQ     64 00000008 FFFFFFED         2394  8702
 NSCNFNUL    128 00000018 FFFFFFED         2407  7151   9334M 11787  11919  13845  14182  21340
 NSCNFTOK     64 00000018 FFFFFFED         2412 10183M 12133
 NSCNKWS       4 00000028 FFFFFFED     A    2434  7045   7183  14629  14637M 14647M 15209  15217M 15227M 15789  15797M
                                                 15807M 16560  16568M 16578M 18795  18803M 18813M 19041  19049M 19059M
                                                 19196  19204M 19214M 20010  20015M 20025M 20103  20111M 20121M 20468
                                                 20475M 20485M 20776  20784M 20794M 21296  21303M 21313M 28182  28237M
                                                 28258M 29385  29393M 29403M
 NSCNLEN       4 00000004 FFFFFFED     F    2382  8613   8664M  8755   8802M  8868   8871M 16529  16530M 19981  19982M
                                                 20088M
 NSCNLOC       4 00000000 FFFFFFED     A    2381  8591   8614   8663M  8665   8754   8801M  8867   8870M 16526  16528M
                                                 19978  19980M 20087M
 NSCNMSG      80 00000060 FFFFFFED     C    2441 20167M 20167  26860  26884  27267
 NSCNMSGL      4 0000005C FFFFFFED     F    2440  7028M  7028  20139  20140M 20520  20520M 20520  26861  26883  26885
                                                 26925  26926M 27266
 NSCNSKIP      4 00000024 FFFFFFED     A    2433  6986   6993M  7391M  8615  14630  14634M 14648M 15210  15214M 15228M
                                                 15790  15794M 15808M 16561  16565M 16579M 18796  18800M 18814M 19042
                                                 19046M 19060M 19197  19201M 19215M 20011  20026M 20104  20108M 20122M
                                                 20469  20473M 20486M 20777  20781M 20795M 21297  21301M 21314M 28183
                                                 28192M 28259M 29386  29390M 29404M
 NSCNSTOP      4 00000020 FFFFFFED     A    2432  7010   7017M  7412M  8621  14631  14635M 14649M 15211  15215M 15229M
                                                 15791  15795M 15809M 16562  16566M 16580M 18797  18801M 18815M 19043
                                                 19047M 19061M 19198  19202M 19216M 20012  20027M 20105  20109M 20123M
                                                 20470  20474M 20487M 20778  20782M 20796M 21298  21302M 21315M 28184
                                                 28213M 28260M 29387  29391M 29405M
 NSCNTLEN      4 00000014 FFFFFFED     F    2400  7115   7253   8432   8599M  8599   8667M  8669   8753   8799M  8858M
                                                  8858   9015   9022   9095   9307   9350   9603  11929  12248  13101
                                                 13267  13461  13883  14616  15196  15776  16496  16543M 19625  19948
                                                 19995M 21528  21716  22234  26652  27028  27391  27585  27639  27645
                                                 27971  28044  28050
 NSCNTLOC      4 00000010 FFFFFFED     A    2399  7114   7254   8431   8592M  8620M  8650   8666   8668   8752   8800M
                                                  8866   9021   9094   9349   9602  11930  12249  13100  13266  13460
                                                 13884  16490  16511  16527  16528  19626  19963  19979  19980  21527
                                                 21566  21715  22233  26651  27027  27390  27584  27970
 NSCNTOK      16 00000030 FFFFFFED     C    2436  8980M  9053M  9086M 12141  13430  13703
 NSCNTOKL      4 00000050 FFFFFFED     F    2438  8606M  8606   8865M  8865   8988M  8988   9042M 12142  13431  13787
                                                 14132  21967  22092
 NSCNTVAL      4 0000001C FFFFFFED     F    2431  9299M  9299   9341M  9341   9586M 10114M 10190M 10190  12593  12853
                                                 12893M 12928  14226  20759  21405
 NSCNTYPE      1 00000018 FFFFFFED     R    2403  2407   2412   2417   2422   2427   9286M  9328M  9517M  9882M 10177M
                                                 12900M
 NSFFIRST    128 00000008 FFFFFFE8         6888  7082M  7163   7180M
 NSFLAG        1 00000008 FFFFFFE8     R    6884  6888
 NSNSKIP     256 00000000 FFFFFFE7     X    7317  7390   7399
 NSNSTOP     256 00000100 FFFFFFE7     X    7318  7411   7420
 NSTLEN        4 00000004 FFFFFFE8     F    6881  7115M  7239
 NSTLOC        4 00000000 FFFFFFE8     A    6880  7114M  7238
 NSTWA       512 00000000 FFFFFFE7     J    7325  7348   7377U  7464   7466   7467
 NSWA          9 00000000 FFFFFFE8     J    6897  6920   6949U  7276   7278   7279
1SCAN     (SCAN2025) (12:54) (15MAR04) Ordinary Symbol and Literal Cross Reference                                          Page  185
 NULLRTN       2 0000600E 00000001     H   30311 29631
 OKQUOTE       2 00005720 00000001     H   27868 27831B
 ORVCPASS      1 00000000 00000014     T   28744 28744
 PARMKW       16 00000000 FFFFFFE3     C   13703 13786M 13851  14131M 14188  14614M 14615  15194M 15195  15774M 15775
 PARMKWL       4 00000010 FFFFFFE3     F   13704 13788M 13852  14133M 14189
 PARMWA       20 00000000 FFFFFFE3     J   13711 13733  13762U 13907  13909  13910  14078  14107U 14378  14380  14381
                                                 14570  14599U 14744  14746  14747  15150  15179U 15324  15326  15327
                                                 15730  15759U 15904  15906  15907
 PCOLBAD       2 00001E46 00000001     H   16099 15964
 PCOLNULL      2 00001DE4 00000001     H   15970 15934
 PCOLOK        2 00001E12 00000001     H   16034 15949
 PCOLPRT       4 00001D6C 00000001     F   15922 16176
 PCOLS         2 00005FBA 00000001     H   30179 29601
 PDEVIATE      2 000060DC 00000001     H   30619 29677
 PFACTOR       2 00006106 00000001     H   30685 29692
 PINTDONE      2 00001842 00000001     H   14357 14166B 14194B 14219B 14262B 14301B 14338B
 PLINENO       2 00006130 00000001     H   30751 29707
 PLNOBAD       2 00001A46 00000001     H   14939 14804
 PLNONULL      2 000019E4 00000001     H   14810 14774
 PLNOOK        2 00001A12 00000001     H   14874 14789
 PLNOPRT       4 0000196C 00000001     F   14762 16168
 PSYM          2 00005FE4 00000001     H   30245 29616
 PSYMBAD       2 00001C46 00000001     H   15519 15384
 PSYMNULL      2 00001BE4 00000001     H   15390 15354
 PSYMOK        2 00001C12 00000001     H   15454 15369
 PSYMPRT       4 00001B6C 00000001     F   15342 16174
 PUSHRTN       2 00006056 00000001     H   30421 29646
 RAR          14 0000000E 00000001 A   #    1118  2114   2115M  2116B  2118M  2119B  2139M  2140B  2144M  2145B  2147M
                                                  2148B  2150M  2151B  2153M  2154B  2156M  2157M  2157B  2163   6914
                                                  7054M  7055M  7055B  7058M  7059M  7059B  7062M  7063M  7063B  7103M
                                                  7104M  7104B  7107M  7108M  7108B  7111M  7112M  7112B  7188M  7189M
                                                  7189B  7242M  7243M  7243B  7278M  7281B  7342   7402M  7403M  7403B
                                                  7423M  7424M  7424B  7439M  7440M  7440B  7466M  7469B  7531   7678M
                                                  7679M  7679B  7724M  7725M  7725B  7813M  7816B  7877   8022M  8025B
                                                  8105   8270M  8273B  8315   8496M  8499B  8550   8618M  8619M  8619B
                                                  8624M  8625M  8625B  8774M  8775M  8775B  8793M  8794M  8794B  8820M
                                                  8821M  8821B  8895M  8898B  8935   9120M  9123B  9204  10218M 10221B
                                                 10365  10435M 10436M 10436B 10463M 10466B 10507  10608M 10609M 10609B
                                                 10632M 10633M 10633B 10664M 10667B 10711  10746M 10747M 10747B 10807M
                                                 10808M 10808B 10822M 10823M 10823B 10866M 10867M 10867B 10881M 10882M
                                                 10882B 10925M 10926M 10926B 10940M 10941M 10941B 11032M 11035B 11062
                                                 11097M 11098M 11098B 11195M 11196M 11196B 11243M 11246B 11272  11307M
                                                 11308M 11308B 11405M 11406M 11406B 11453M 11456B 11518  11693M 11696B
                                                 11739  11834M 11837B 11870  11970M 11973B 12001  12049M 12052B 12075
                                                 12289M 12292B 12332  12364M 12365M 12365B 12403M 12406B 12431  12497M
                                                 12500B 12530  12628M 12629M 12629B 12666M 12667M 12667B 12703M 12704M
                                                 12704B 12760M 12763B 12789  12885M 12886M 12886B 12960M 12961M 12961B
                                                 13017M 13020B 13062  13190M 13193B 13228  13341M 13344B 13381  13524M
                                                 13527B 13584  13620M 13621M 13621B 13643M 13644M 13644B 13668M 13671B
                                                 13727  13793M 13794M 13794B 13797M 13798M 13798B 13801M 13802M 13802B
                                                 13855M 13856M 13856B 13909M 13912B 13950  13986M 13987M 13987B 14009M
                                                 14010M 14010B 14034M 14037B 14072  14138M 14139M 14139B 14142M 14143M
                                                 14143B 14146M 14147M 14147B 14192M 14193M 14193B 14217M 14218M 14218B
                                                 14260M 14261M 14261B 14299M 14300M 14300B 14336M 14337M 14337B 14380M
                                                 14383B 14443  14479M 14480M 14480B 14502M 14503M 14503B 14527M 14530B
                                                 14564  14640M 14641M 14641B 14746M 14749B 14816  14847M 14848M 14848B
                                                 14865M 14868B 14880  14930M 14933B 14945  14976M 14977M 14977B 14994M
                                                 14997B 15022  15058M 15059M 15059B 15081M 15082M 15082B 15106M 15109B
                                                 15144  15220M 15221M 15221B 15326M 15329B 15396  15427M 15428M 15428B
1SCAN     (SCAN2025) (12:54) (15MAR04) Ordinary Symbol and Literal Cross Reference                                          Page  186
                                                 15445M 15448B 15460  15510M 15513B 15525  15556M 15557M 15557B 15574M
                                                 15577B 15602  15638M 15639M 15639B 15661M 15662M 15662B 15686M 15689B
                                                 15724  15800M 15801M 15801B 15906M 15909B 15976  16007M 16008M 16008B
                                                 16025M 16028B 16040  16090M 16093B 16105  16136M 16137M 16137B 16154M
                                                 16157B 16261  16571M 16572M 16572B 16702M 16705B 16950  16982M 16983M
                                                 16983B 16987M 16988M 16988B 17005M 17008B 17021  17128M 17129M 17129B
                                                 17137M 17138M 17138B 17155M 17158B 17171  17275M 17276M 17276B 17284M
                                                 17285M 17285B 17302M 17305B 17318  17393M 17394M 17394B 17486M 17487M
                                                 17487B 17496M 17497M 17497B 17516M 17519B 17532  17583M 17584M 17584B
                                                 17631M 17632M 17632B 17665M 17666M 17666B 17725M 17726M 17726B 17735M
                                                 17736M 17736B 17755M 17758B 17771  17822M 17823M 17823B 17870M 17871M
                                                 17871B 17904M 17905M 17905B 17964M 17965M 17965B 17974M 17975M 17975B
                                                 17994M 17997B 18010  18056M 18057M 18057B 18071M 18072M 18072B 18095M
                                                 18096M 18096B 18105M 18106M 18106B 18125M 18128B 18141  18209M 18210M
                                                 18210B 18227M 18230B 18243  18311M 18312M 18312B 18329M 18332B 18345
                                                 18378M 18379M 18379B 18396M 18399B 18412  18466M 18467M 18467B 18486M
                                                 18487M 18487B 18508M 18511B 18524  18578M 18579M 18579B 18598M 18599M
                                                 18599B 18620M 18623B 18636  18682M 18685B 18746  18806M 18807M 18807B
                                                 18862M 18865B 19002  19052M 19053M 19053B 19115M 19116M 19116B 19141M
                                                 19144B 19157  19207M 19208M 19208B 19270M 19271M 19271B 19296M 19299B
                                                 19312  19358M 19361B 19374  19422M 19425B 19438  19470M 19471M 19471B
                                                 19490M 19493B 19506  19537M 19538M 19538B 19555M 19558B 19592  19797M
                                                 19800B 19882  20018M 20019M 20019B 20114M 20115M 20115B 20296M 20299B
                                                 20366  20412M 20415B 20427  20478M 20479M 20479B 20543M 20544M 20544B
                                                 20555M 20556M 20556B 20597M 20600B 20655  20787M 20788M 20788B 20938M
                                                 20939M 20939B 20985M 20986M 20986B 21030M 21031M 21031B 21069M 21072B
                                                 21134  21180M 21183B 21196  21242M 21245B 21257  21306M 21307M 21307B
                                                 21356M 21357M 21357B 21388M 21389M 21389B 21431M 21434B 21494  21564M
                                                 21565M 21565B 21593M 21594M 21594B 21620M 21621M 21621B 21644M 21647B
                                                 21675  21733M 21734M 21734B 21745M 21746M 21746B 21765M 21768B 21802
                                                 21860M 21861M 21861B 21872M 21873M 21873B 21892M 21895B 21926  21984M
                                                 21985M 21985B 21996M 21997M 21997B 22016M 22019B 22051  22109M 22110M
                                                 22110B 22121M 22122M 22122B 22133M 22134M 22134B 22153M 22156B 22183
                                                 22252M 22253M 22253B 22264M 22265M 22265B 22284M 22287B 22390  22444M
                                                 22445M 22445B 22453M 22454M 22454B 22462M 22463M 22463B 22468M 22469M
                                                 22469B 22518M 22519M 22519B 22558M 22561B 22615  22669M 22670M 22670B
                                                 22678M 22679M 22679B 22687M 22688M 22688B 22693M 22694M 22694B 22706M
                                                 22707M 22707B 22746M 22749B 22789  22843M 22844M 22844B 22852M 22853M
                                                 22853B 22861M 22862M 22862B 22867M 22868M 22868B 22979M 22980M 22980B
                                                 22998M 22999M 22999B 23019M 23020M 23020B 23059M 23062B 23097  23299M
                                                 23302B 23336  23375M 23376M 23376B 23394M 23397B 23431  23473M 23474M
                                                 23474B 23492M 23495B 23541  23663M 23664M 23664B 24128M 24131B 24171
                                                 24257M 24258M 24258B 24749M 24752B 24790  24912M 24913M 24913B 25368M
                                                 25371B 25411  25497M 25498M 25498B 25989M 25992B 26530  26580M 26581M
                                                 26581B 26644M 26645M 26645B 26694M 26695M 26695B 26720M 26723B 26749
                                                 26794M 26797B 26819  26949M 26952B 26987  27064M 27065M 27065B 27076M
                                                 27077M 27077B 27096M 27099B 27148  27260M 27261M 27261B 27303M 27306B
                                                 27343  27676M 27679B 27710  27857M 27858M 27858B 27889M 27892B 27927
                                                 28078M 28081B 28140  28203M 28204M 28204B 28224M 28225M 28225B 28251M
                                                 28252M 28252B 28282M 28285B 28314  28346M 28347M 28347B 28366M 28369B
                                                 28382  28731M 28734B 28789  28879M 28882B 28902  29033M 29036B 29059
                                                 29171M 29174B 29197  29309M 29312B 29332  29372M 29373M 29373B 29396M
                                                 29397M 29397B 29410M 29411M 29411B 29430M 29431M 29431B 29455M 29456M
                                                 29456B 29475M 29478B 29723  29772M 29775B 29789  29838M 29841B 29855
                                                 29904M 29907B 29921  29970M 29973B 29987  30036M 30039B 30053  30102M
                                                 30105B 30119  30168M 30171B 30185  30234M 30237B 30251  30300M 30303B
                                                 30317  30362M 30363M 30363B 30387M 30388M 30388B 30409M 30412B 30427
                                                 30459M 30460M 30460B 30479M 30482B 30496  30547M 30548M 30548B 30565M
                                                 30566M 30566B 30590M 30591M 30591B 30608M 30611B 30625  30674M 30677B
1SCAN     (SCAN2025) (12:54) (15MAR04) Ordinary Symbol and Literal Cross Reference                                          Page  187
                                                 30691  30740M 30743B 30757  30806M 30809B
 RLKDONE       2 0000024C 00000001     H    7788  7606B  7665B  7700B  7730B
 RLKLIST       4 00000000 FFFFFFE6     A    7507  7629M  7721   7737   7789
 RLKWA         4 00000000 FFFFFFE6     J    7514  7537   7566U  7811   7813   7814
 RLOOKUP       2 000001B8 00000001     H    7524  7520
 RLOOKUP       1 00000000 00000002     T   10288 10288  30828
 RTRIM         2 00005A42 00000001     H   28783 28779
 R0            0 00000000 FFFFFFFF A   #     699  2099   2168M  7200M  7200   7253M  7256   7256M  7395M  7416M  7433M
                                                  7433   7444   7444M  7605M  7659M  7659   7699M  7699   7729M  7729
                                                  7785M  7791   7791M  7986M  7986   8000   8000M  8613M  8636M  8636
                                                  8658M  8664   8669M  8680M  8680   8753M  8799   9095M  9307M  9316M
                                                  9316   9350M  9351   9418M  9459M  9459   9473   9479   9545   9559M
                                                  9603M  9604   9671M  9713   9719   9752   9916  10006M 10423M 10430M
                                                 10440  10442M 10443M 10446  10446M 10580M 10587M 10641  10643M 10644M
                                                 10647  10647M 10758M 10758  10804M 10863M 10922M 10981M 11015  11015M
                                                 11109M 11109  11152M 11169M 11169  11192M 11226  11226M 11319M 11319
                                                 11362M 11379M 11379  11402M 11436  11436M 11555M 11555  11561  11564M
                                                 11661  11665M 11672  11672M 11929M 11932  11932M 12248M 12251  12251M
                                                 12382  12382M 12478  12480  12593M 12620  12658M 12658  12695M 12695
                                                 12743  12743M 12853M 12864M 12864  12877  12892M 12893  12928M 12939M
                                                 12939  12952  13000  13000M 13101M 13112M 13112  13151  13151M 13267M
                                                 13278M 13278  13302  13302M 13461M 13463  13463M 13616  13617  13617
                                                 13617  13624M 13646  13646M 13883M 13886  13886M 13982  13983  13983
                                                 13983  13990M 14012  14012M 14226M 14252  14291M 14291  14328M 14328
                                                 14350  14350M 14414  14414  14414  14475  14476  14476  14476  14483M
                                                 14505  14505M 14625M 14625  14634  14635  14695M 14702  14702M 14909
                                                 15054  15055  15055  15055  15062M 15084  15084M 15205M 15205  15214
                                                 15215  15275M 15282  15282M 15489  15634  15635  15635  15635  15642M
                                                 15664  15664M 15785M 15785  15794  15795  15855M 15862  15862M 16069
                                                 16178  16178  16178  16480M 16481  16490M 16491  16556M 16556  16565
                                                 16566  16672M 16675  16675M 16979  16984  17065M 17097M 17097  17134
                                                 17215M 17244M 17281  17362M 17424M 17433M 17433  17439M 17458M 17458
                                                 17481M 17493  17576M 17596M 17662M 17678M 17697M 17697  17720M 17732
                                                 17815M 17835M 17901M 17917M 17936M 17936  17959M 17971  18102  18170M
                                                 18201M 18206  18272M 18303M 18308  18374M 18375  18441M 18450M 18450
                                                 18461M 18483  18553M 18562M 18562  18573M 18595  18791M 18791  18800
                                                 18801  19037M 19037  19046  19047  19080M 19081M 19082  19093M 19093
                                                 19107  19192M 19192  19201  19202  19235M 19236M 19237  19248M 19248
                                                 19262  19403M 19404  19467  19472  19625M 19639M 19639  19662M 19674M
                                                 19689  19695M 19720  19726M 19751  19757M 19773M 19780  19780M 20006M
                                                 20006  20015  20070  20088  20099M 20099  20108  20109  20260M 20266
                                                 20266M 20456  20464M 20464  20473  20474  20475  20510M 20510  20526M
                                                 20550M 20772M 20772  20781  20782  20896M 20908M 20908  20922  20933M
                                                 20980M 21014  21025M 21040  21040M 21292M 21292  21301  21302  21303
                                                 21351M 21528M 21531  21543M 21588M 21615M 21716M 21740M 21843M 21867M
                                                 21967M 21991M 22092M 22116M 22128M 22233M 22234M 22235M 22259M 22431
                                                 22440M 22449M 22457M 22480M 22480  22502M 22508  22515M 22520  22524M
                                                 22532  22532M 22656  22665M 22674M 22682M 22696  22703M 22708  22712M
                                                 22720  22720M 22830  22839M 22848M 22856M 22879M 22879  22901M 22907
                                                 22958M 23004  23016M 23021  23025M 23033  23033M 23137  23146M 23162
                                                 23197M 23213  23248M 23267M 23282  23282M 23595M 23595  23623M 23659M
                                                 23668M 23668  23712  23736M 23768M 23801M 23834M 23867M 23900M 23933M
                                                 23966M 23998M 24030M 24059M 24096M 24225M 24225  24253M 24262M 24262
                                                 24298M 24342  24366M 24389M 24422M 24455M 24488M 24521M 24554M 24587M
                                                 24619M 24651M 24680M 24717M 24844M 24844  24872M 24908M 24917M 24917
                                                 24961  24985M 25008M 25041M 25074M 25107M 25140M 25173M 25206M 25238M
                                                 25270M 25299M 25336M 25465M 25465  25493M 25502M 25502  25538M 25582
                                                 25606M 25629M 25662M 25695M 25728M 25761M 25794M 25827M 25859M 25891M
                                                 25920M 25957M 26572  26572  26633M 26633  26652M 26655  26667M 26702M
1SCAN     (SCAN2025) (12:54) (15MAR04) Ordinary Symbol and Literal Cross Reference                                          Page  188
                                                 26865  26867M 26876M 26876  26882  26886  26925M 26926  27028M 27031
                                                 27043M 27071M 27249M 27249  27266M 27385  27486  27493  27575M 27577M
                                                 27583  27589  27639  27645M 27655  27655M 27750  27794  27864M 27969
                                                 27994  28044  28050M 28057  28057M 28196M 28217M 28248M 28248  28349
                                                 28349M 28443M 28450  28451  28451  28451  28475M 28475  28481  28502M
                                                 28520M 28701M 28707M 28714  28714M 28761  28761  28761  28819  28834M
                                                 28834  28857M 28943M 28943  28965M 28973  28988M 28988  29011M 29089
                                                 29227  29381M 29381  29390  29391  29419M 29444M 29444  30351M 30376M
                                                 30376  30462  30462M 30554M 30579M 30579
 R1            1 00000001 FFFFFFFF A   #     712  2162M  2163M  2169M  6962   6970U  6992M  6993   7016M  7017   7183M
                                                  7254M  7256   7382   7394M  7415M  7436M  7444   7587U  7599M  7599
                                                  7623M  7623   7629   7737M  7756M  7756   7773M  7773   7789M  7791
                                                  7932U  8000   8244M  8245   8351U  8591M  8592   8614M  8620   8650
                                                  8656M  8656   8663   8665M  8666M  8667   8668M  8752M  8800   8866M
                                                  8869   8870   9021M  9053   9069   9094M  9349M  9416M  9557M  9602M
                                                  9669M  9751   9825  10004M 10420  10428M 10439  10441M 10443  10577
                                                 10585M 10640  10642M 10644  10802M 10861M 10920M 10979M 11015  11150M
                                                 11190M 11226  11360M 11400M 11436  11564  11613  11650M 11650  11661M
                                                 11665  11672  11930M 11932  12120U 12249M 12251  12361  12380M 12382
                                                 12467U 12575U 12741M 12741  12743  12834U 12998M 12998  13000  13100M
                                                 13151  13266M 13302  13417U 13460M 13463  13616  13617  13617  13617
                                                 13624M 13646  13773U 13884M 13886  13982  13983  13983  13983  13990M
                                                 14012  14118U 14348M 14348  14350  14414  14414  14414  14475  14476
                                                 14476  14476  14483M 14505  14621M 14634  14635  14637  14696M 14702
                                                 14910  15054  15055  15055  15055  15062M 15084  15201M 15214  15215
                                                 15217  15276M 15282  15490  15634  15635  15635  15635  15642M 15664
                                                 15781M 15794  15795  15797  15856M 15862  16070  16178  16178  16178
                                                 16552M 16565  16566  16568  16673M 16675  17480M 17580M 17580  17719M
                                                 17819M 17819  17958M 18460M 18572M 18787M 18800  18801  18803  19033M
                                                 19046  19047  19049  19188M 19201  19202  19204  19626M 19660M 19672M
                                                 20002M 20015  20069  20087  20095M 20108  20109  20111  20264M 20264
                                                 20266  20460M 20473  20474  20475  20525M 20549M 20768M 20781  20782
                                                 20784  20897M 20932M 20955M 20955  20969  20979M 21002M 21002  21014
                                                 21024M 21040  21288M 21301  21302  21303  21350M 21527M 21566M 21587M
                                                 21614M 21715M 21739M 21842M 21866M 21966M 21990M 22091M 22115M 22127M
                                                 22232M 22235  22258M 22432  22439M 22448M 22458M 22464  22494  22500M
                                                 22500  22507  22509M 22510M 22511  22514M 22521  22525M 22657  22664M
                                                 22673M 22683M 22689  22695  22697M 22698M 22699  22702M 22709  22713M
                                                 22831  22838M 22847M 22857M 22863  22893  22899M 22899  22906  22908M
                                                 22909M 22910  22913M 23005  23015M 23022  23026M 23145M 23196M 23247M
                                                 23266M 23282  23621M 23657M 23735M 23735  23767M 23767  23800M 23800
                                                 23833M 23833  23866M 23866  23899M 23899  23932M 23932  23965M 23965
                                                 23997M 23997  24029M 24029  24051  24057M 24088  24094M 24251M 24296M
                                                 24365M 24365  24388M 24388  24421M 24421  24454M 24454  24487M 24487
                                                 24520M 24520  24553M 24553  24586M 24586  24618M 24618  24650M 24650
                                                 24672  24678M 24709  24715M 24870M 24906M 24984M 24984  25007M 25007
                                                 25040M 25040  25073M 25073  25106M 25106  25139M 25139  25172M 25172
                                                 25205M 25205  25237M 25237  25269M 25269  25291  25297M 25328  25334M
                                                 25491M 25536M 25605M 25605  25628M 25628  25661M 25661  25694M 25694
                                                 25727M 25727  25760M 25760  25793M 25793  25826M 25826  25858M 25858
                                                 25890M 25890  25912  25918M 25949  25955M 26651M 26701M 27027M 27070M
                                                 27267M 27384  27471  27566M 27575  27576M 27577  27582  27588  27655
                                                 27793  27863M 27968  27993  28057  28195M 28216M 28244M 28343  28349
                                                 28442M 28450  28451  28451  28451  28500M 28519M 28700M 28707M 28714
                                                 28761  28761  28761  28818  28963M 28972  29110M 29248M 29377M 29390
                                                 29391  29393  29418M 30350M 30456M 30553M
 R12          12 0000000C FFFFFFFF A   #     855  2125
 R13          13 0000000D FFFFFFFF A   #     868 14629  14630  14631  14647  14648  14649  15209  15210  15211  15227
                                                 15228  15229  15789  15790  15791  15807  15808  15809  16487  16560
1SCAN     (SCAN2025) (12:54) (15MAR04) Ordinary Symbol and Literal Cross Reference                                          Page  189
                                                 16561  16562  16578  16579  16580  18780  18795  18796  18797  18813
                                                 18814  18815  19041  19042  19043  19059  19060  19061  19196  19197
                                                 19198  19214  19215  19216  20010  20011  20012  20025  20026  20027
                                                 20103  20104  20105  20121  20122  20123  20468  20469  20470  20485
                                                 20486  20487  20763  20776  20777  20778  20794  20795  20796  21296
                                                 21297  21298  21313  21314  21315  28182  28183  28184  28258  28259
                                                 28260  29385  29386  29387  29403  29404  29405
 R14          14 0000000E FFFFFFFF A   #     881  2100M  7389M  7391   7410M  7412   7647M  7649M  7649   7650M  7650B
                                                  7976M  7994M  7994   7995M  7995B  8229M  8242M  8242   8243M  8243B
                                                 12141M 12236M 13430M 13448M 14628M 14629  14630  14631  14636M 14637
                                                 14644M 14647  14648  14649  15208M 15209  15210  15211  15216M 15217
                                                 15224M 15227  15228  15229  15788M 15789  15790  15791  15796M 15797
                                                 15804M 15807  15808  15809  16486M 16487  16495M 16496  16511  16526
                                                 16527  16528  16528  16529  16530  16543  16547M 16547  16559M 16560
                                                 16561  16562  16567M 16568  16575M 16578  16579  16580  16647M 16650
                                                 18779M 18780  18794M 18795  18796  18797  18802M 18803  18810M 18813
                                                 18814  18815  18836M 18839  19040M 19041  19042  19043  19048M 19049
                                                 19056M 19059  19060  19061  19195M 19196  19197  19198  19203M 19204
                                                 19211M 19214  19215  19216  19936M 19941M 19941  19947M 19948  19963
                                                 19978  19979  19980  19980  19981  19982  19995  19999M 19999  20009M
                                                 20010  20011  20012  20022M 20025  20026  20027  20046M 20051M 20051
                                                 20063M 20068M 20068  20086M 20087  20088  20092M 20092  20102M 20103
                                                 20104  20105  20110M 20111  20118M 20121  20122  20123  20182M 20187M
                                                 20187  20218M 20223M 20223  20254M 20259M 20259  20467M 20468  20469
                                                 20470  20482M 20485  20486  20487  20519M 20520  20520  20524M 20524
                                                 20762M 20763  20775M 20776  20777  20778  20783M 20784  20791M 20794
                                                 20795  20796  20882M 20885  21295M 21296  21297  21298  21310M 21313
                                                 21314  21315  23370M 23468M 27590M 27995M 28181M 28182  28183  28184
                                                 28190M 28192  28211M 28213  28232M 28237  28241M 28241  28255M 28258
                                                 28259  28260  29384M 29385  29386  29387  29392M 29393  29400M 29403
                                                 29404  29405
 R15          15 0000000F FFFFFFFF A   #     894  2099   7076M  7076   7093M  7093   7126M  7126   7209M  7209   7225M
                                                  7225   7280M  7280   7390M  7391   7411M  7412   7468M  7468   7690M
                                                  7690   7715M  7715   7721M  7815M  7815   7968M  7982M  7982   8024M
                                                  8024   8160U  8221M  8221   8235M  8235   8272M  8272   8363   8479M
                                                  8498M  8498   8610M  8610   8811M  8811   8897M  8897   8975   9000M
                                                  9000   9103M  9122M  9122   9254   9274M  9274  10196M 10220M 10220
                                                 10465M 10465  10666M 10666  10764M 10985M 10985  11034M 11034  11115M
                                                 11156M 11156  11245M 11245  11325M 11366M 11366  11455M 11455  11676M
                                                 11676  11695M 11695  11796M 11796  11812M 11836M 11836  11928M 11928
                                                 11948M 11972M 11972  12031M 12051M 12051  12142M 12152  12173  12176
                                                 12188M 12212  12230  12255M 12255  12269M 12291M 12291  12374M 12374
                                                 12405M 12405  12499M 12499  12713M 12713  12730M 12762M 12762  12970M
                                                 12970  12987M 13019M 13019  13149M 13149  13169M 13192M 13192  13300M
                                                 13300  13320M 13343M 13343  13431M 13441  13447M 13467M 13467  13483M
                                                 13503M 13526M 13526  13635M 13635  13670M 13670  13815M 13815  13877M
                                                 13877  13911M 13911  14001M 14001  14036M 14036  14160M 14160  14354M
                                                 14354  14382M 14382  14494M 14494  14529M 14529  14650M 14650  14659M
                                                 14659  14689  14700M 14700  14748M 14748  14867M 14867  14911M 14932M
                                                 14932  14996M 14996  15073M 15073  15108M 15108  15230M 15230  15239M
                                                 15239  15269  15280M 15280  15328M 15328  15447M 15447  15491M 15512M
                                                 15512  15576M 15576  15653M 15653  15688M 15688  15810M 15810  15819M
                                                 15819  15849  15860M 15860  15908M 15908  16027M 16027  16071M 16092M
                                                 16092  16156M 16156  16496M 16505M 16505  16511M 16520M 16520  16526M
                                                 16527M 16529M 16530  16542M 16542  16543  16581M 16581  16590M 16590
                                                 16614  16623M 16623  16639  16651M 16666M 16666  16704M 16704  17007M
                                                 17007  17157M 17157  17304M 17304  17518M 17518  17757M 17757  17996M
                                                 17996  18127M 18127  18229M 18229  18331M 18331  18398M 18398  18510M
                                                 18510  18622M 18622  18665M 18684M 18684  18816M 18816  18828  18840M
1SCAN     (SCAN2025) (12:54) (15MAR04) Ordinary Symbol and Literal Cross Reference                                          Page  190
                                                 18864M 18864  19062M 19062  19074  19143M 19143  19217M 19217  19229
                                                 19298M 19298  19341M 19360M 19360  19405M 19424M 19424  19473M 19492M
                                                 19492  19557M 19557  19799M 19799  19948M 19957M 19957  19963M 19972M
                                                 19972  19978M 19979M 19981M 19982  19994M 19994  19995  20028M 20028
                                                 20037M 20037  20052M 20124M 20124  20133M 20133  20209M 20209  20245M
                                                 20245  20270M 20270  20298M 20298  20395M 20414M 20414  20488M 20488
                                                 20499M 20499  20557M 20576M 20576  20599M 20599  20737M 20797M 20797
                                                 20806M 20806  20825M 20825  20849  20858M 20858  20874  20889M 20889
                                                 21071M 21071  21163M 21182M 21182  21225M 21244M 21244  21316M 21316
                                                 21325M 21325  21406M 21433M 21433  21627M 21646M 21646  21748M 21767M
                                                 21767  21875M 21894M 21894  21999M 22018M 22018  22136M 22155M 22155
                                                 22267M 22286M 22286  22536M 22536  22560M 22560  22724M 22724  22748M
                                                 22748  23037M 23037  23061M 23061  23301M 23301  23369M 23396M 23396
                                                 23467M 23467  23494M 23494  24111M 24111  24130M 24130  24732M 24732
                                                 24751M 24751  25351M 25351  25370M 25370  25972M 25972  25991M 25991
                                                 26641M 26691M 26722M 26722  26796M 26796  26932M 26951M 26951  27079M
                                                 27098M 27098  27197M 27197  27257M 27305M 27305  27372  27659M 27659
                                                 27678M 27678  27854M 27872M 27872  27891M 27891  27956  28061M 28061
                                                 28080M 28080  28191M 28192  28212M 28213  28236M 28236  28237  28284M
                                                 28284  28343M 28368M 28368  28453  28702M 28708M 28733M 28733  28881M
                                                 28881  29035M 29035  29173M 29173  29311M 29311  29406M 29406  29427M
                                                 29452M 29477M 29477  29755M 29755  29774M 29774  29821M 29821  29840M
                                                 29840  29887M 29887  29906M 29906  29953M 29953  29972M 29972  30019M
                                                 30019  30038M 30038  30085M 30085  30104M 30104  30151M 30151  30170M
                                                 30170  30217M 30217  30236M 30236  30283M 30283  30302M 30302  30359M
                                                 30384M 30392M 30392  30411M 30411  30481M 30481  30544M 30562M 30587M
                                                 30610M 30610  30657M 30657  30676M 30676  30723M 30723  30742M 30742
                                                 30789M 30789  30808M 30808
 R2            2 00000002 FFFFFFFF A   #     725  6960U  6962M  7397   7399M  7406M  7418   7420M  7427M  7578U  7923U
                                                  8151U  8360U  8588   8615M  8621M  8754M  8801   8817M  8867M  8868M
                                                  8869M  8871   8973   9252  10439M 10442  10640M 10643  10743M 11094M
                                                 11304M 11613  11775U 11906U 12111U 12566U 12825U 13098U 13264U 13426U
                                                 13782U 14127U 14610U 15190U 15770U 16307U 17483M 17722M 17961M 18463M
                                                 18575M 20540M 20552M 20701U 20935M 20982M 21027M 21353M 21561M 21590M
                                                 21617M 21711U 21730M 21742M 21838U 21857M 21869M 21962U 21981M 21993M
                                                 22087U 22106M 22118M 22130M 22219U 22249M 22261M 22433  22441M 22450M
                                                 22459M 22465M 22526M 22658  22666M 22675M 22684M 22690M 22714M 22832
                                                 22840M 22849M 22858M 22864M 22959M 23006  23027M 23367  23462  23579
                                                 23660M 24051M 24053M 24053  24054  24088M 24090M 24090  24091  24209
                                                 24254M 24672M 24674M 24674  24675  24709M 24711M 24711  24712  24828
                                                 24909M 25291M 25293M 25293  25294  25328M 25330M 25330  25331  25449
                                                 25494M 25912M 25914M 25914  25915  25949M 25951M 25951  25952  26559M
                                                 26855U 27023U 27061M 27073M 27184U 27186M 27384M 27387M 27390M 27448
                                                 27470  27472M 27472  27554M 27567M 27584M 27587M 27793M 27794M 27796M
                                                 27970M 27982  27988M 28198  28200M 28207M 28219  28221M 28228M 28548M
                                                 28602M 28607  28630M 28684M 28689  28792  28877M 28905  29031M 29089M
                                                 29103  29111M 29120M 29129M 29129  29136  29227M 29241  29249M 29258M
                                                 29267M 29267  29274  29374M
 R3            3 00000003 FFFFFFFF A   #     738  7185M  7238M  7991   7992M  7992   8239   8240M  8240   8245   8433
                                                  8755M  8802   9022M  9025   9037M  9042   9044M  9046   9062   9079
                                                  9756M  9756   9793M  9793   9819   9829M  9829   9850M  9870   9900M
                                                  9900   9930   9993M  9993  10020M 10020  10051  10082  10423  10440M
                                                 10446  10580  10641M 10647  11561M 11575M 11575  11581  11601M 12361M
                                                 12380  20139M 20140  20144M 20153M 20153  20160  22434  22527M 22659
                                                 22715M 22833  22960M 23007  23028M 23798M 23799  23831M 23832  23864M
                                                 23865  23897M 23898  23930M 23931  23963M 23964  24419M 24420  24452M
                                                 24453  24485M 24486  24518M 24519  24551M 24552  24584M 24585  25038M
                                                 25039  25071M 25072  25104M 25105  25137M 25138  25170M 25171  25203M
                                                 25204  25659M 25660  25692M 25693  25725M 25726  25758M 25759  25791M
1SCAN     (SCAN2025) (12:54) (15MAR04) Ordinary Symbol and Literal Cross Reference                                          Page  191
                                                 25792  25824M 25825  26860M 26861M 26865  26867  26882M 26883M 27385M
                                                 27391M 27405  27449  27474M 27476M 27486  27493M 27508M 27508  27538M
                                                 27538  27556M 27569M 27585M 27586M 27971M 27972M 28463M 28463  28547M
                                                 28607M 28691M 28692M 28693
 R4            4 00000004 FFFFFFFF A   #     751  7239M  8431M  8432M  8433M  8443M  8443   8451M  8453   8979M  9077M
                                                  9086   9352M  9480M  9527M  9527   9552M  9553M  9554   9605M  9720M
                                                  9751M  9800M  9825M  9853M  9892M  9892   9974M  9975M  9976  11581M
                                                 11584  11596M 11601  11604M 11606  11650  12139M 12236M 13428M 13448M
                                                 13787M 13788  13851M 14132M 14133  14188M 14615M 14695  14909M 14913
                                                 14913M 15195M 15275  15489M 15493  15493M 15775M 15855  16069M 16073
                                                 16073M 21842  22435  22528M 22660  22716M 22834  23029M 23163M 23214M
                                                 23367M 23370M 23462M 23468M 26884M 26885M 27387M 27448M 27449M 27451M
                                                 27470M 27582M 27587M 27588M 27968M 27982  27988M 27993M 28461M 28461
                                                 28629M 28689M 28692
 R5            5 00000005 FFFFFFFF A   #     764  8434M  9351M  9355M  9357   9479M  9483M  9485   9531M  9531   9551M
                                                  9554M  9581M  9581   9586   9604M  9608M  9610   9719M  9723M  9725
                                                  9752M  9770   9802M  9896M  9896   9973M  9976M 10026M 10057M 10088M
                                                 10109M 10109  10114  10125M 10125  10138  12140M 12152  12173M 12212M
                                                 12230  13429M 13441  13447  13852M 14189M 14616M 14696  14910M 14913
                                                 15196M 15276  15490M 15493  15776M 15856  16070M 16073  21843  22436
                                                 22529M 22532  22661  22717M 22720  22835  23030M 23033  23162M 23166M
                                                 23168  23213M 23217M 23219  23368M 23463M 26886M 26890M 26899M 26899
                                                 26906  27386M 27471M 27576  27583M 27589M 27599M 27599  27607M 27609
                                                 27969M 27994M 28004M 28004  28012M 28014  28457M 28457  28693  28694M
                                                 28701  28702  29088M 29226M
 R6            6 00000006 FFFFFFFF A   #     777  7992M  8240M  8245   8586U  8588M  8971U  8973M  9250U  9252M 10420M
                                                 10441  10577M 10642  16309M 16317U 19923M 19931U 20703M 20711U 22228U
                                                 23577U 23579M 24207U 24209M 24826U 24828M 25447U 25449M 27372M 27380U
                                                 27956M 27964U 28453M 28700  28818M 28819M 28821M 28855M 28972M 28973M
                                                 28975M 29009M
 R7            7 00000007 FFFFFFFF A   #     790  2092M  2092   2093B  2105B
 R8            8 00000008 FFFFFFFF A   #     803  6949U  7377U  7566U  7912U  8140U  9239U 13762U 14107U 14599U 15179U
                                                 15759U 16296U 19917U 20690U 22425U 22650U 22824U 28175U
 SCANCHK       2 00005562 00000001     H   27142 27138
 SCANCHK       1 00000000 0000001B     T   30823 30823
 SCANPARM      2 00003808 00000001     H   22782 22778
 SCANSTR       2 0000365C 00000001     H   22383 22379
 SCAN2025      1 00000000 00000001     R    1138  1136
 SCDQDONE      2 000056AA 00000001     H   27653 27578B 27650B
 SCDQUOTE      2 000055C6 00000001     H   27337 27333
 SCNINVAL      2 00005506 00000001     H   26981 26977
 SCNNOOP       2 00005478 00000001     H   26743 26739
 SCNPAREN      2 00000C74 00000001     H   10359 10298  26012
 SCNQUOTE      2 00000CC4 00000001     H   10501 10299  26013
 SCNSCFLG      2 000013FA 00000001     H   12425 12421
 SCNTDONE      2 000004BE 00000001     H    8878  8686B
 SCNTOKEN      2 000003A0 00000001     H    8544 10285  14408
 SCSEG         2 000054A0 00000001     H   26813 26809
 SCSEG         1 00000000 0000000D     T   18704 18704  21453  22305  28749
 SCUPCASE      2 00005730 00000001     H   27921 27917
 SDSNQSZ       1 0000002C FFFFFFEC A   U    6080  6081   6082
 SEG           1 00000000 00000016     T   28747 28747  30824
 SEGCR         1 00000000 00000015     T   28745 28745  30826
 SEGWR         1 00000000 0000001C     T   30825 30825
 SETSKIP       2 000039B8 00000001     H   23330 23326  26008
 SETSKIP       1 00000000 00000003     T   10290 10290  28752
 SETSTOP       2 000039F2 00000001     H   23425 23421  26009
 SETSTOP       1 00000000 00000004     T   10292 10292  28754
 SETTDEC      64 00000000 FFFFFFE4         9179  9957M  9986
1SCAN     (SCAN2025) (12:54) (15MAR04) Ordinary Symbol and Literal Cross Reference                                          Page  192
 SETTDONE      2 00000798 00000001     H   10193  9300B  9342B  9587B 10144B
 SETTFLG       1 00000000 FFFFFFE4     R    9170  9174   9179
 SETTNEG     128 00000000 FFFFFFE4         9174  9440M  9574   9693M 10102
 SETTOKEN      2 000004CC 00000001     H    8929 10286  14409
 SETTWA        1 00000000 FFFFFFE4     J    9188  9210   9239U  9263M 10216  10218  10219
 SETTYPE       2 0000055E 00000001     H    9197 10287  14410
 SLINENO       2 000009AE 00000001     H   10254 10256  10258  10311
 SLINENOX      2 00000AAE 00000001     H   10263 10265  10267  10269  10271  10309
 SMAXLNO       1 05F5E0FF 00000001 A   U    6834 10314  13553
 SNUMBER       2 000007AE 00000001     H   10236 10238  10306
 SNUMBERX      2 000008AE 00000001     H   10243 10245  10247  10249  10303
 SPR          13 0000000D 00000001 A   #    1105  6914   6917   6919   6920M  6920   7272M  7276   7278   7342   7345
                                                  7347   7348M  7348   7460M  7464   7466   7531   7534   7536   7537M
                                                  7537   7807M  7811   7813   7877   7880   7882   7883M  7883   8016M
                                                  8020   8022   8105   8108   8110   8111M  8111   8264M  8268   8270
                                                  8315   8318   8319   8320M  8320   8490M  8494   8496   8550   8553
                                                  8554   8555M  8555   8889M  8893   8895   8935   8938   8939   8940M
                                                  8940   9114M  9118   9120   9204   9207   9209   9210M  9210  10212M
                                                 10216  10218  10365  10368  10369  10370M 10370  10457M 10461  10463
                                                 10507  10510  10511  10512M 10512  10658M 10662  10664  10711  10714
                                                 10715  10716M 10716  11026M 11030  11032  11062  11065  11066  11067M
                                                 11067  11237M 11241  11243  11272  11275  11276  11277M 11277  11447M
                                                 11451  11453  11518  11521  11522  11523M 11523  11687M 11691  11693
                                                 11739  11742  11743  11744M 11744  11828M 11832  11834  11870  11873
                                                 11874  11875M 11875  11964M 11968  11970  12001  12004  12005  12006M
                                                 12006  12043M 12047  12049  12075  12078  12079  12080M 12080  12283M
                                                 12287  12289  12332  12335  12336  12337M 12337  12397M 12401  12403
                                                 12431  12434  12435  12436M 12436  12491M 12495  12497  12530  12533
                                                 12534  12535M 12535  12754M 12758  12760  12789  12792  12793  12794M
                                                 12794  13011M 13015  13017  13062  13065  13066  13067M 13067  13184M
                                                 13188  13190  13228  13231  13232  13233M 13233  13335M 13339  13341
                                                 13381  13384  13385  13386M 13386  13518M 13522  13524  13584  13587
                                                 13588  13589M 13589  13662M 13666  13668  13727  13730  13732  13733M
                                                 13733  13903M 13907  13909  13950  13953  13954  13955M 13955  14028M
                                                 14032  14034  14072  14075  14077  14078M 14078  14374M 14378  14380
                                                 14443  14446  14447  14448M 14448  14521M 14525  14527  14564  14567
                                                 14569  14570M 14570  14740M 14744  14746  14816  14819  14820  14821M
                                                 14821  14859M 14863  14865  14880  14883  14884  14885M 14885  14924M
                                                 14928  14930  14945  14948  14949  14950M 14950  14988M 14992  14994
                                                 15022  15025  15026  15027M 15027  15100M 15104  15106  15144  15147
                                                 15149  15150M 15150  15320M 15324  15326  15396  15399  15400  15401M
                                                 15401  15439M 15443  15445  15460  15463  15464  15465M 15465  15504M
                                                 15508  15510  15525  15528  15529  15530M 15530  15568M 15572  15574
                                                 15602  15605  15606  15607M 15607  15680M 15684  15686  15724  15727
                                                 15729  15730M 15730  15900M 15904  15906  15976  15979  15980  15981M
                                                 15981  16019M 16023  16025  16040  16043  16044  16045M 16045  16084M
                                                 16088  16090  16105  16108  16109  16110M 16110  16148M 16152  16154
                                                 16261  16264  16266  16267M 16267  16696M 16700  16702  16950  16953
                                                 16954  16955M 16955  16999M 17003  17005  17021  17024  17025  17026M
                                                 17026  17149M 17153  17155  17171  17174  17175  17176M 17176  17296M
                                                 17300  17302  17318  17321  17322  17323M 17323  17510M 17514  17516
                                                 17532  17535  17536  17537M 17537  17749M 17753  17755  17771  17774
                                                 17775  17776M 17776  17988M 17992  17994  18010  18013  18014  18015M
                                                 18015  18119M 18123  18125  18141  18144  18145  18146M 18146  18221M
                                                 18225  18227  18243  18246  18247  18248M 18248  18323M 18327  18329
                                                 18345  18348  18349  18350M 18350  18390M 18394  18396  18412  18415
                                                 18416  18417M 18417  18502M 18506  18508  18524  18527  18528  18529M
                                                 18529  18614M 18618  18620  18636  18639  18640  18641M 18641  18676M
                                                 18680  18682  18746  18749  18750  18751M 18751  18856M 18860  18862
1SCAN     (SCAN2025) (12:54) (15MAR04) Ordinary Symbol and Literal Cross Reference                                          Page  193
                                                 19002  19005  19006  19007M 19007  19135M 19139  19141  19157  19160
                                                 19161  19162M 19162  19290M 19294  19296  19312  19315  19316  19317M
                                                 19317  19352M 19356  19358  19374  19377  19378  19379M 19379  19416M
                                                 19420  19422  19438  19441  19442  19443M 19443  19484M 19488  19490
                                                 19506  19509  19510  19511M 19511  19549M 19553  19555  19592  19595
                                                 19596  19597M 19597  19791M 19795  19797  19882  19885  19887  19888M
                                                 19888  20290M 20294  20296  20366  20369  20370  20371M 20371  20406M
                                                 20410  20412  20427  20430  20431  20432M 20432  20591M 20595  20597
                                                 20655  20658  20660  20661M 20661  21063M 21067  21069  21134  21137
                                                 21138  21139M 21139  21174M 21178  21180  21196  21199  21200  21201M
                                                 21201  21236M 21240  21242  21257  21260  21261  21262M 21262  21425M
                                                 21429  21431  21494  21497  21498  21499M 21499  21638M 21642  21644
                                                 21675  21678  21679  21680M 21680  21759M 21763  21765  21802  21805
                                                 21806  21807M 21807  21886M 21890  21892  21926  21929  21930  21931M
                                                 21931  22010M 22014  22016  22051  22054  22055  22056M 22056  22147M
                                                 22151  22153  22183  22186  22187  22188M 22188  22278M 22282  22284
                                                 22390  22393  22395  22396M 22396  22552M 22556  22558  22615  22618
                                                 22620  22621M 22621  22740M 22744  22746  22789  22792  22794  22795M
                                                 22795  23053M 23057  23059  23097  23100  23101  23102M 23102  23293M
                                                 23297  23299  23336  23339  23340  23341M 23341  23388M 23392  23394
                                                 23431  23434  23435  23436M 23436  23486M 23490  23492  23541  23544
                                                 23545  23546M 23546  24122M 24126  24128  24171  24174  24175  24176M
                                                 24176  24743M 24747  24749  24790  24793  24794  24795M 24795  25362M
                                                 25366  25368  25411  25414  25415  25416M 25416  25983M 25987  25989
                                                 26530  26533  26534  26535M 26535  26714M 26718  26720  26749  26752
                                                 26753  26754M 26754  26788M 26792  26794  26819  26822  26823  26824M
                                                 26824  26943M 26947  26949  26987  26990  26991  26992M 26992  27090M
                                                 27094  27096  27148  27151  27152  27153M 27153  27297M 27301  27303
                                                 27343  27346  27347  27348M 27348  27670M 27674  27676  27710  27713
                                                 27714  27715M 27715  27883M 27887  27889  27927  27930  27931  27932M
                                                 27932  28072M 28076  28078  28140  28143  28145  28146M 28146  28276M
                                                 28280  28282  28314  28317  28318  28319M 28319  28360M 28364  28366
                                                 28382  28385  28386  28387M 28387  28725M 28729  28731  28789  28792
                                                 28793  28794M 28794  28873M 28877  28879  28902  28905  28906  28907M
                                                 28907  29027M 29031  29033  29059  29062  29063  29064M 29064  29165M
                                                 29169  29171  29197  29200  29201  29202M 29202  29303M 29307  29309
                                                 29332  29335  29336  29337M 29337  29469M 29473  29475  29723  29726
                                                 29727  29728M 29728  29766M 29770  29772  29789  29792  29793  29794M
                                                 29794  29832M 29836  29838  29855  29858  29859  29860M 29860  29898M
                                                 29902  29904  29921  29924  29925  29926M 29926  29964M 29968  29970
                                                 29987  29990  29991  29992M 29992  30030M 30034  30036  30053  30056
                                                 30057  30058M 30058  30096M 30100  30102  30119  30122  30123  30124M
                                                 30124  30162M 30166  30168  30185  30188  30189  30190M 30190  30228M
                                                 30232  30234  30251  30254  30255  30256M 30256  30294M 30298  30300
                                                 30317  30320  30321  30322M 30322  30403M 30407  30409  30427  30430
                                                 30431  30432M 30432  30473M 30477  30479  30496  30499  30500  30501M
                                                 30501  30602M 30606  30608  30625  30628  30629  30630M 30630  30668M
                                                 30672  30674  30691  30694  30695  30696M 30696  30734M 30738  30740
                                                 30757  30760  30761  30762M 30762  30800M 30804  30806
 STKSKIP     256 00000000 FFFFFFDD     X   28115 28191  28200
 STKSTOP     256 00000100 FFFFFFDD     X   28116 28212  28221
 STKWA       512 00000000 FFFFFFDD     J   28123 28146  28175U 28280  28282  28283
 SYMLNO        2 00005F12 00000001     H   29915 29571
 TABLE       256 00000000 FFFFFFDE     J   23527 23577U 23660  23766M 23799M 23832M 23865M 23898M 23931M 23964M 23996M
                                                 24028M 24053  24090  24207U 24254  24387M 24420M 24453M 24486M 24519M
                                                 24552M 24585M 24617M 24649M 24674  24711  24826U 24909  25006M 25039M
                                                 25072M 25105M 25138M 25171M 25204M 25236M 25268M 25293  25330  25447U
                                                 25494  25627M 25660M 25693M 25726M 25759M 25792M 25825M 25857M 25889M
                                                 25914  25951
1SCAN     (SCAN2025) (12:54) (15MAR04) Ordinary Symbol and Literal Cross Reference                                          Page  194
 TBLACLR       2 000046EA 00000001     H   26159 26016  26161  26163  26165  26167  26169  26171
 TBLAMARK      2 000045EA 00000001     H   26137 26029  26139  26141  26143  26145  26147  26149
 TBLBLANK      1 000051EA 00000001     C   26478 10296
 TBLCCLR       2 00004EEA 00000001     H   26331 26027  26333
 TBLCLR        2 00003A2A 00000001     H   23535 26019
 TBLCMARK      2 00004DEA 00000001     H   26318 26033  26320
 TBLFFFF       2 000044EA 00000001     H   26128 24387  25006
 TBLICLR       2 00004CEA 00000001     H   26291 26026
 TBLIMARK      2 00004BEA 00000001     H   26263 26032
 TBLMRK        2 00003DB6 00000001     H   24784 26020
 TBLNCLR       2 000048EA 00000001     H   26193 26017  26195
 TBLNMARK      2 000047EA 00000001     H   26181 26030  26183
 TBLSCLR       2 00004AEA 00000001     H   26235 26025
 TBLSMARK      2 000049EA 00000001     H   26207 26031
 TBLUNCLR      2 00003BF2 00000001     H   24165 26022
 TBLUNMRK      2 00003F7A 00000001     H   25405 26035
 TBLUPPER      2 000052EA 00000001     H   26481 10302  26482  26483  26485  26487
 TBLWCLR       2 000050EA 00000001     H   26414 26028  26419  26421  26423  26425  26427  26429  26431  26433  26435
                                                 26437  26439  26441  26443  26445  26447  26449  26451  26453  26455
                                                 26457  26459  26461  26463  26465  26467  26469
 TBLWMARK      2 00004FEA 00000001     H   26345 26034  26111  26350  26352  26354  26356  26358  26360  26362  26364
                                                 26366  26368  26370  26372  26374  26376  26378  26380  26382  26384
                                                 26386  26388  26390  26392  26394  26396  26398  26400  26402
 TBLWSKIP      2 000042EA 00000001     H   26096 10283  26098  26100  26102
 TBLWSTOP    256 00004FEA 00000001 C   U   26111 10284
 TBLZERO       2 000043EA 00000001     H   26119 23766  25627
 TESTPRT1      4 00005C3C 00000001     F   29484 30821
 TESTPRT2      4 00005E1C 00000001     F   29665 30827
 TESTSCAN      2 00005B8A 00000001     H   29326 29322
 TRC           1 00000000 00000000 A   T    2121  2121
 TRTSCAN       2 000011F0 00000001     H   11512 10297  11706  26010
 TRTSCEX       2 00001246 00000001     H   11664 11633B
 TTYFLAG       1 00000004 FFFFFFEA     R    6209  6213
 TTYMAX#       1 00000006 FFFFFFEA A   U    6265  6266
 TTYTFLAG      1 00000005 FFFFFFEA     R    6219  6223   6228   6233   6238   6243   6248   6253
 UPCASE        2 00005AE2 00000001     H   29053 29049
 UPPTBL        1 00000000 00000000 A   T    2184  2184
 WAR           8 00000008 00000001 A   #    1028  6919M  7185   7256   7272   7347M  7444   7460   7536M  7791   7807
                                                  7882M  8000   8016   8110M  8264   8319M  8490   8554M  8889   8939M
                                                  9114   9209M 10212  10369M 10446  10457  10511M 10647  10658  10715M
                                                 11015  11026  11066M 11226  11237  11276M 11436  11447  11522M 11672
                                                 11687  11743M 11828  11874M 11932  11964  12005M 12043  12079M 12251
                                                 12283  12336M 12382  12397  12435M 12491  12534M 12743  12754  12793M
                                                 13000  13011  13066M 13151  13184  13232M 13302  13335  13385M 13463
                                                 13518  13588M 13646  13662  13732M 13886  13903  13954M 14012  14028
                                                 14077M 14350  14374  14447M 14505  14521  14569M 14702  14740  14820M
                                                 14859  14884M 14913  14924  14949M 14988  15026M 15084  15100  15149M
                                                 15282  15320  15400M 15439  15464M 15493  15504  15529M 15568  15606M
                                                 15664  15680  15729M 15862  15900  15980M 16019  16044M 16073  16084
                                                 16109M 16148  16266M 16675  16696  16954M 16999  17025M 17149  17175M
                                                 17296  17322M 17510  17536M 17749  17775M 17988  18014M 18119  18145M
                                                 18221  18247M 18323  18349M 18390  18416M 18502  18528M 18614  18640M
                                                 18676  18750M 18856  19006M 19135  19161M 19290  19316M 19352  19378M
                                                 19416  19442M 19484  19510M 19549  19596M 19780  19791  19887M 20266
                                                 20290  20370M 20406  20431M 20591  20660M 21040  21063  21138M 21174
                                                 21200M 21236  21261M 21425  21498M 21638  21679M 21759  21806M 21886
                                                 21930M 22010  22055M 22147  22187M 22278  22395M 22532  22552  22620M
                                                 22720  22740  22794M 23033  23053  23101M 23282  23293  23340M 23388
                                                 23435M 23486  23545M 24122  24175M 24743  24794M 25362  25415M 25983
1SCAN     (SCAN2025) (12:54) (15MAR04) Ordinary Symbol and Literal Cross Reference                                          Page  195
                                                 26534M 26714  26753M 26788  26823M 26943  26991M 27090  27152M 27297
                                                 27347M 27655  27670  27714M 27883  27931M 28057  28072  28145M 28276
                                                 28318M 28349  28360  28386M 28714  28725  28793M 28873  28906M 29027
                                                 29063M 29165  29201M 29303  29336M 29469  29727M 29766  29793M 29832
                                                 29859M 29898  29925M 29964  29991M 30030  30057M 30096  30123M 30162
                                                 30189M 30228  30255M 30294  30321M 30403  30431M 30462  30473  30500M
                                                 30602  30629M 30668  30695M 30734  30761M 30800
 WTOSG         1 00000000 00000000 A   T    2081  2081
 WYLSCAN       1 00000000 00000001     J     992   994   1010   1023   1036   1048   1061   1074   1087   1100   1113
                                                  1126   2365   2449   6189   6301   6305   6308   6779   6898   7326
                                                  7515   8090   8466   9059   9075   9092   9189   9370   9498   9623
                                                  9738
 XSCANSTR      2 0000373C 00000001     H   22608 22604
 XSCNTYPE      2 00003938 00000001     H   23091 26011
 XSSLEN        4 00000004 FFFFFFDF     F   22354 22431M 22457  22656M 22682  22830M 22856
 XSSLOC        4 00000000 FFFFFFDF     F   22353 22432M 22458  22657M 22683  22831M 22857
 XSSREM        4 00000010 FFFFFFDF     F   22357 22507M 22509  22526  22695M 22697  22714  22906M 22908  22959  23006M
                                                 23027
 XSSREML       4 00000014 FFFFFFDF     F   22358 22508M 22527  22696M 22715  22907M 22960  23007M 23028
 XSSSKIPL      4 00000024 FFFFFFDF     F   22362 22434M 22440  22659M 22665  22833M 22839
 XSSSKIPS      4 00000020 FFFFFFDF     F   22361 22433M 22439  22658M 22664  22832M 22838
 XSSSKIPT    256 00000028 FFFFFFDF     X   22363 22441  22459  22666  22684  22840  22858
 XSSSTOPL      4 0000012C FFFFFFDF     F   22365 22436M 22449  22661M 22674  22835M 22848
 XSSSTOPS      4 00000128 FFFFFFDF     F   22364 22435M 22448  22660M 22673  22834M 22847
 XSSSTOPT    256 00000130 FFFFFFDF     X   22366 22450  22465  22675  22690  22849  22864
 XSSTOK        4 00000008 FFFFFFDF     F   22355 22464M 22494  22510  22514  22525  22689M 22698  22702  22713  22863M
                                                 22893  22909  22913  23005M 23015  23026
 XSSTOKL       4 0000000C FFFFFFDF     F   22356 22511M 22515  22524  22699M 22703  22712  22910M 22958  23004M 23016
                                                 23025
 XSSTYPE       4 00000018 FFFFFFDF     F   22359 22521M 22528  22709M 22716  23022M 23029
 XSSTYPEL      4 0000001C FFFFFFDF     F   22360 22520M 22529  22708M 22717  23021M 23030
 XSSWA       560 00000000 FFFFFFDF     J   22373 22396  22425U 22556  22558  22559  22621  22650U 22744  22746  22747
                                                 22795  22824U 23057  23059  23060
 =A(BADINT)
               4 00001658 00000001     A   13552 12628  12666  12703
 =A(BADINT)
               4 0000186C 00000001     A   14413 14217  14260  14299  14336
 =A(BADLNO)
               4 00001660 00000001     A   13554 12885  12960
 =A(BADLNO)
               4 00001E90 00000001     A   16172 14976  15556
 =A(BADPAREN)
               4 00000BFC 00000001     A   10300  8820
 =A(BADTOKEN)
               4 00001EA4 00000001     A   16177 16136
 =A(BADTOKEN)
               4 00002758 00000001     A   18702 17393  17631  17870  18071  18095
 =A(BADTOKEN)
               4 000032C8 00000001     A   21460 21388
 =A(CALLMAT)
               4 00000BE4 00000001     A   10294  7678
 =A(CALLRTN)
               4 00000BE8 00000001     A   10295  7724
 =A(DODELTA)
               4 00002748 00000001     A   18698 16982
 =A(DODELTA)
               4 00002C80 00000001     A   19815 19470
 =A(DOINCR)
               4 0000274C 00000001     A   18699 16987  17137  17284  17496  17735  17974  18105  18209  18311  18378
1SCAN     (SCAN2025) (12:54) (15MAR04) Ordinary Symbol and Literal Cross Reference                                          Page  196
                                                 18486  18598
 =A(DOPARM)
               4 00001854 00000001     A   14407 13643
 =A(DOPCOLS)
               4 00001E9C 00000001     A   16175 15661
 =A(DOPINT)
               4 00001868 00000001     A   14412 14009
 =A(DOPLNO)
               4 00001E7C 00000001     A   16167 14502
 =A(DOPSYMLN)
               4 00001E94 00000001     A   16173 15081
 =A(DOSPECL)
               4 00000BD0 00000001     A   10289  7242
 =A(FINDDQUO)
               4 00000D44 00000001     A   10679 10632
 =A(FINDDQUO)
               4 00001274 00000001     A   11710 10866  11405
 =A(FINDPREN)
               4 00000D3C 00000001     A   10677 10435
 =A(FINDPREN)
               4 00001270 00000001     A   11709 10822  10881  10925  10940
 =A(FINDSQUO)
               4 00000D40 00000001     A   10678 10608
 =A(FINDSQUO)
               4 0000126C 00000001     A   11708 10807  11195
 =A(FTBLDQUO)
               4 0000127C 00000001     A   11712 11304
 =A(FTBLPREN)
               4 00001260 00000001     A   11705 10743
 =A(FTBLSQUO)
               4 00001278 00000001     A   11711 11094
 =A(HEXSTR)
               4 000059F0 00000001     A   28756 28346
 =A(INCRPRT)
               4 00002C68 00000001     A   19809 18802
 =A(IVALPRT)
               4 00002C74 00000001     A   19812 19048  19203
 =A(MCOLPRT)
               4 0000328C 00000001     A   21455 20783
 =A(MIMPRT)
               4 0000327C 00000001     A   21451 20110
 =A(MISSPARM)
               4 00001864 00000001     A   14411 13855  14192
 =A(MISSPARM)
               4 00001E8C 00000001     A   16171 14847  15427  16007
 =A(MSBADVAL)
               4 00002C7C 00000001     A   19814 19115  19270  19537
 =A(MSMPRT)
               4 00002738 00000001     A   18694 16567
 =A(MTOKEN)
               4 00001654 00000001     A   13551 12364
 =A(MTOKEN)
               4 00001850 00000001     A   14406 13620  13986
 =A(MTOKEN)
               4 00001E78 00000001     A   16166 14479  15058  15638
 =A(PCOLPRT)
               4 00001EA0 00000001     A   16176 15796
 =A(PLNOPRT)
               4 00001E80 00000001     A   16168 14636
1SCAN     (SCAN2025) (12:54) (15MAR04) Ordinary Symbol and Literal Cross Reference                                          Page  197
 =A(PSYMPRT)
               4 00001E98 00000001     A   16174 15216
 =A(SCNPAREN)
               4 00000BF4 00000001     A   10298  8774
 =A(SCNPAREN)
               4 00004150 00000001     A   26012 22979
 =A(SCNQUOTE)
               4 00000BF8 00000001     A   10299  8793
 =A(SCNQUOTE)
               4 00004154 00000001     A   26013 22998
 =A(SCNTOKEN)
               4 00000BC0 00000001     A   10285  7054   7103
 =A(SCNTOKEN)
               4 00001858 00000001     A   14408 13793  14138
 =A(SETSKIP)
               4 00004140 00000001     A   26008 22444  22669  22843
 =A(SETSTOP)
               4 00004144 00000001     A   26009 22453  22678  22852
 =A(SETTOKEN)
               4 00000BC4 00000001     A   10286  7058   7107
 =A(SETTOKEN)
               4 0000185C 00000001     A   14409 13797  14142
 =A(SETTYPE)
               4 00000BC8 00000001     A   10287  7062   7111
 =A(SETTYPE)
               4 00001860 00000001     A   14410 13801  14146
 =A(SLINENO)
               4 00000C28 00000001     A   10311  9720
 =A(SLINENOX)
               4 00000C20 00000001     A   10309  9605
 =A(SMAXLNO)
               4 00000C34 00000001     A   10314 10138
 =A(SMAXLNO)
               4 0000165C 00000001     A   13553 12877  12952
 =A(SNUMBER)
               4 00000C14 00000001     A   10306  9480
 =A(SNUMBERX)
               4 00000C08 00000001     A   10303  9352
 =A(TBLACLR)
               4 00004160 00000001     A   26016 23163  23798  25659
 =A(TBLAMARK)
               4 00004194 00000001     A   26029 24419  25038
 =A(TBLBLANK)
               4 00000BEC 00000001     A   10296  8434   8979
 =A(TBLCCLR)
               4 0000418C 00000001     A   26027 23930  25791
 =A(TBLCLR)
               4 0000416C 00000001     A   26019 23375  24257
 =A(TBLCMARK)
               4 000041A4 00000001     A   26033 24551  25170
 =A(TBLICLR)
               4 00004188 00000001     A   26026 23897  25758
 =A(TBLIMARK)
               4 000041A0 00000001     A   26032 24518  25137
 =A(TBLMRK)
               4 00004170 00000001     A   26020 23473  25497
 =A(TBLNCLR)
               4 00004164 00000001     A   26017 23214  23831  25692
 =A(TBLNMARK)
1SCAN     (SCAN2025) (12:54) (15MAR04) Ordinary Symbol and Literal Cross Reference                                          Page  198
               4 00004198 00000001     A   26030 24452  25071
 =A(TBLSCLR)
               4 00004184 00000001     A   26025 23864  25725
 =A(TBLSMARK)
               4 0000419C 00000001     A   26031 24485  25104
 =A(TBLUNCLR)
               4 00004178 00000001     A   26022 23663
 =A(TBLUNMRK)
               4 000041AC 00000001     A   26035 24912
 =A(TBLUPPER)
               4 00000C04 00000001     A   10302  9077
 =A(TBLWCLR)
               4 00004190 00000001     A   26028 23963  25824
 =A(TBLWMARK)
               4 000041A8 00000001     A   26034 24584  25203
 =A(TBLWSKIP)
               4 00000BB8 00000001     A   10283  6992
 =A(TBLWSTOP)
               4 00000BBC 00000001     A   10284  7016
 =A(TESTPRT1)
               4 00006168 00000001     A   30821 29392
 =A(TESTPRT2)
               4 00006180 00000001     A   30827 30456
 =A(TRTSCAN)
               4 00000BF0 00000001     A   10297  8618   8624
 =A(TRTSCAN)
               4 00001264 00000001     A   11706 10746  11097  11307
 =A(TRTSCAN)
               4 00004148 00000001     A   26010 22462  22468  22687  22693  22861  22867
 =A(XSCNTYPE)
               4 0000414C 00000001     A   26011 22518  22706  23019
 =A(0)         4 00000C18 00000001     A   10307  9545   9770   9916
 =A(0)         4 00004158 00000001     A   26014 23137
 =A(1)         4 00000C0C 00000001     A   10304  9416   9557   9669   9800   9819   9850   9853  10004  10051
 =A(1)         4 00000D38 00000001     A   10676 10428  10585
 =A(1)         4 00001268 00000001     A   11707 10802  10861  10920  10979  11150  11190  11360  11400
 =A(1)         4 00002C84 00000001     A   19816 19660  19672  19751
 =A(1)         4 00004174 00000001     A   26021 23621  23657  24057  24094  24251  24296  24678  24715  24870  24906
                                                 25297  25334  25491  25536  25918  25955
 =A(16)        4 00000C00 00000001     A   10301  9025   9037
 =A(2)         4 00000C24 00000001     A   10310  9713  10082
 =A(2)         4 00002C8C 00000001     A   19818 19720
 =A(2)         4 000059DC 00000001     A   28751 27405  27750
 =A(235)       4 00003298 00000001     A   21458 20922  20969
 =A(256)       4 00001280 00000001     A   11713 11584  11596
 =A(256)       4 00006160 00000001     A   30819 29103  29241
 =A(3)         4 00000C30 00000001     A   10313  9930
 =A(3)         4 00001650 00000001     A   13550 12176  12188
 =A(3)         4 00002C88 00000001     A   19817 19689
 =A(3)         4 0000417C 00000001     A   26023 23712  24342  24961  25582
 =A(32)        4 00003588 00000001     A   22304 21531  21543
 =A(32)        4 000059C8 00000001     A   28746 26655  26667  27031  27043
 =A(4)         4 00001E88 00000001     A   16170 14689  15269  15849
 =A(4)         4 00002740 00000001     A   18696 16614
 =A(4)         4 00002C78 00000001     A   19813 19074  19229
 =A(4)         4 00003290 00000001     A   21456 20849
 =A(6)         4 00000C2C 00000001     A   10312  9870
 =A(8)         4 00002744 00000001     A   18697 16639
 =A(8)         4 00002C70 00000001     A   19811 18828
1SCAN     (SCAN2025) (12:54) (15MAR04) Ordinary Symbol and Literal Cross Reference                                          Page  199
 =A(8)         4 00003294 00000001     A   21457 20874
 =A(9)         4 00000C10 00000001     A   10305  9473
 =C' ,=;'      4 00000BD8 00000001     C   10291  7415
 =C' ,='       3 00000C40 00000001     C   10319  7394
 =C' =,;'      4 000059E4 00000001     C   28753 28216
 =C' =,'       3 00005A2C 00000001     C   28764 28195
 =C'(+)'       3 000041D8 00000001     C   26047 23990  24611  25230  25851
 =C'(*)'       3 000041C3 00000001     C   26040 23760  24381  25000  25621
 =C'(-)'       3 000041DB 00000001     C   26048 24022  24643  25262  25883
 =C'(A)'       3 000041C6 00000001     C   26041 23792  24413  25032  25653
 =C'(C)'       3 000041D2 00000001     C   26045 23924  24545  25164  25785
 =C'(I)'       3 000041CF 00000001     C   26044 23891  24512  25131  25752
 =C'(N)'       3 000041C9 00000001     C   26042 23825  24446  25065  25686
 =C'(S)'       3 000041CC 00000001     C   26043 23858  24479  25098  25719
 =C'(W)'       3 000041D5 00000001     C   26046 23957  24578  25197  25818
 =C'(0)'       3 000041C0 00000001     C   26039 23728  24358  24977  25598
 =C'/: invalid.  Missing column2 specification. '
              44 0000329C 00000001     C   21459 21350
 =C': invalid line number. Unable to evaluate.'
              42 000032CE 00000001     C   21462 20549
 =C': invalid operand.  '
              20 000035D4 00000001     C   22309 22115
 =C': invalid operand.  Expecting line number.  '
              44 000035A8 00000001     C   22308 21990
 =C': invalid value.'
              16 00003578 00000001     C   22303 22258
 =C': invalid.  Mismatched parenthesis.'
              35 00003616 00000001     C   22312 21587
 =C': invalid.  Mismatched quotes.     '
              35 00003639 00000001     C   22313 21614
 =C': invalid.  Missing quotes.'
              27 00005A11 00000001     C   28763 27863
 =C': invalid. '
              11 00005A06 00000001     C   28762 27070
 =C': invalid.'
              10 0000360C 00000001     C   22311 21739
 =C': invalid.'
              10 000059F4 00000001     C   28757 26701
 =C': invalid.'
              10 00006196 00000001     C   30832 30553
 =C': Missing operand.  '
              20 00003594 00000001     C   22307 21866
 =C'ABORT line number not set.'
              26 00002792 00000001     C   18713 18572
 =C'ALL DONE.'
               9 000061A0 00000001     C   30833 29418
 =C'ALPHA'
               5 000041B6 00000001     C   26037 23196
 =C'ATTN line number not set.'
              25 000027D6 00000001     C   18716 18460
 =C'Current line not set. '
              22 0000277C 00000001     C   18712 17480
 =C'Expecting reasonable integer value. '
              36 000035E8 00000001     C   22310 22127
 =C'Invalid column specification. (too large or small)'
              50 000032FA 00000001     C   21464 20932  20979
 =C'Invalid column specification. '
              30 0000332C 00000001     C   21465 21024
 =C'Next line not set. '
1SCAN     (SCAN2025) (12:54) (15MAR04) Ordinary Symbol and Literal Cross Reference                                          Page  200
              19 000027AC 00000001     C   18714 17719
 =C'Null scan.'
              10 0000618C 00000001     C   30831 30350
 =C'NULL'      4 0000415C 00000001     C   26015 23145
 =C'NUMBER'
               6 000041B0 00000001     C   26036 23247
 =C'OTHER'
               5 000041BB 00000001     C   26038 23266
 =C'Previous line not set. '
              23 000027BF 00000001     C   18715 17958
 =CL8'SYNTAX'
               8 000059B8 00000001     C   28743 26698  27270
 =F'-1'        4 00003288 00000001     F   21454 20557
 =F'-1000'
               4 0000275C 00000001     F   18703 17439  17596  17678  17835  17917  18201  18303
 =F'-4'        4 00003590 00000001     F   22306 21627  21748  21875  21999  22136  22267
 =F'-4'        4 000059D0 00000001     F   28748 26932  27079  28708
 =F'15'        4 00000C1C 00000001     F   10308  9553   9975
 =F'3'         4 00004180 00000001     F   26024 23736  23768  23801  23834  23867  23900  23933  23966  23998  24030
                                                 24366  24389  24422  24455  24488  24521  24554  24587  24619  24651
                                                 24985  25008  25041  25074  25107  25140  25173  25206  25238  25270
                                                 25606  25629  25662  25695  25728  25761  25794  25827  25859  25891
 =H'10'        2 00000C3A 00000001     H   10316  9551   9973  10088
 =H'100'       2 00000C3E 00000001     H   10318 10057
 =H'1000'      2 00000C3C 00000001     H   10317 10026
 =H'1000'      2 00001664 00000001     H   13555 12892
 =H'256'       2 00006188 00000001     H   30829 29111  29249
 =V(ENDLNO)
               4 00002774 00000001     V   18709 18056
 =V(EXFRSTLN)
               4 00002750 00000001     V   18700 17128
 =V(EXLASTLN)
               4 00002754 00000001     V   18701 17275
 =V(EXNEXTLN)
               4 00002768 00000001     V   18706 17665
 =V(EXPREVLN)
               4 00002770 00000001     V   18708 17904
 =V(GTNEXTLN)
               4 00002764 00000001     V   18705 17583
 =V(GTPREVLN)
               4 0000276C 00000001     V   18707 17822
 =V(NDETRNG)
               4 00006164 00000001     V   30820 29372
 =V(NSCAN)
               4 00000BE0 00000001     V   10293  7439
 =V(NSCAN)
               4 00001E84 00000001     V   16169 14640  15220  15800
 =V(NSCAN)
               4 0000273C 00000001     V   18695 16571
 =V(NSCAN)
               4 00002C6C 00000001     V   19810 18806  19052  19207
 =V(NSCAN)
               4 00003280 00000001     V   21452 20114  20478  20787  21306
 =V(NSCAN)
               4 000059EC 00000001     V   28755 28251
 =V(NSCAN)
               4 0000616C 00000001     V   30822 29396
 =V(NSCANSTR)
               4 00003278 00000001     V   21450 20018
1SCAN     (SCAN2025) (12:54) (15MAR04) Ordinary Symbol and Literal Cross Reference                                          Page  201
 =V(ORVCPASS)
               4 000059C0 00000001     V   28744 26580
 =V(RLOOKUP)
               4 00000BCC 00000001     V   10288  7188
 =V(RLOOKUP)
               4 00006184 00000001     V   30828 30459
 =V(SCANCHK)
               4 00006170 00000001     V   30823 29410
 =V(SCSEG)
               4 00002760 00000001     V   18704 17486  17725  17964  18466  18578
 =V(SCSEG)
               4 00003284 00000001     V   21453 20543  20555  20938  20985  21030  21356
 =V(SCSEG)
               4 0000358C 00000001     V   22305 21564  21593  21620  21733  21745  21860  21872  21984  21996  22109
                                                 22121  22133  22252  22264
 =V(SCSEG)
               4 000059D4 00000001     V   28749 27064  27076
 =V(SEG)       4 000059CC 00000001     V   28747 26694  27857
 =V(SEG)       4 00006174 00000001     V   30824 29430  30547  30565
 =V(SEGCR)
               4 000059C4 00000001     V   28745 26644  27260
 =V(SEGCR)
               4 0000617C 00000001     V   30826 30362
 =V(SEGWR)
               4 00006178 00000001     V   30825 29455  30387  30590
 =V(SETSKIP)
               4 00000BD4 00000001     V   10290  7402
 =V(SETSKIP)
               4 000059E0 00000001     V   28752 28203
 =V(SETSTOP)
               4 00000BDC 00000001     V   10292  7423
 =V(SETSTOP)
               4 000059E8 00000001     V   28754 28224
 =X'FF000000'
               4 00004168 00000001     X   26018 23369
 =X'40000000'
               4 000059D8 00000001     X   28750 27386  27586  27972
 =Y((L'NSCNCB+3)/4*4)
               2 0000277A 00000001     Y   18711 16649
 =Y((L'NSCNCB+3)/4*4)
               2 00002C92 00000001     Y   19820 18838
 =Y((L'NSCNCB+3)/4*4)
               2 000032F8 00000001     Y   21463 20884
 =Y((R1+1-(R0)+16*((R0)/(R1+1))/((R0)/(R1+1)))*4)
               2 00001870 00000001     Y   14414 13623  13989
 =Y((R1+1-(R0)+16*((R0)/(R1+1))/((R0)/(R1+1)))*4)
               2 00001EA8 00000001     Y   16178 14482  15061  15641
 =Y((R1+1-(R0)+16*((R0)/(R1+1))/((R0)/(R1+1)))*4)
               2 00005A04 00000001     Y   28761 28706
 =Y((12+3)/4*4)
               2 00001EAA 00000001     Y   16179 14646  15226  15806
 =Y((12+3)/4*4)
               2 00002778 00000001     Y   18710 16577
 =Y((12+3)/4*4)
               2 00002C90 00000001     Y   19819 18812  19058  19213
 =Y((12+3)/4*4)
               2 000032CC 00000001     Y   21461 20024  20120  20484  20793  21312
 =Y((12+3)/4*4)
               2 00005A00 00000001     Y   28759 28257
1SCAN     (SCAN2025) (12:54) (15MAR04) Ordinary Symbol and Literal Cross Reference                                          Page  202
 =Y((12+3)/4*4)
               2 0000618A 00000001     Y   30830 29402
 =Y(2)         2 00005A02 00000001     Y   28760 28443  28520
 =Y(4)         2 00000C38 00000001     Y   10315  7405   7426   7435   8478   9102  10195
 =Y(4)         2 000059FE 00000001     Y   28758 28206  28227

1SCAN     (SCAN2025) (12:54) (15MAR04) Macro and Copy Code Source Summary                                                   Page  203
- Con Source                                        Volume    Members                        HLASM R4.0  2004/03/15 12.54
0     PRIMARY INPUT                                           CSECT    DROP     END      EX       LTORG    MATCALL
                                                              NEXTNKW  POP      PRINT    PUSH     RTNCALL  START
                                                              USING
   L1 WYL.GS.WYL.WYLBUR.MACLIB                      SYSB05    AINFO    BASE     BOMB     COLINFO  COMMENT  CONTROL  CP
                                                              CPLOCAL  CV       CVLOCAL  ERROR    PUSHRTN  RG       SCAN
                                                              SCANCB   SCANCHK  SCANSTR  SCBKUP   SCCBADR  SCINIT   SCKW
                                                              SCPOP    SCPUSH   SCRSTR   SCSAVE   SCSEG    SCSEGCLR
                                                              SETSCKWS SETSKIP  SETSTOP  TCCR     TSEG     TTYPE
                                                              TWRITE   VLTORG   XTRACE
   L2 WYL.GG.SYS.MACLIB                             SYSB05    $BC      $BFLKUP  $BV      $CCLKUP  $CRS     $CSS     $L
                                                              $LA      $LBLAD   $LEXP    $LOR     $REL     $RGLKUP
                                                              $USLKUP  ACALL    BEGIN    CEIL     CLEAR    COMPROC
                                                              CSECT    DATA     DECR     DEFCC    DEX      DPROC    DROP
                                                              DTEX     ELSE     ELSEIF   END      EX       EXIT     FLAG
                                                              FLOOR    GEN      HIBAL    IDENT    IF       INCR
                                                              LABEL    LC       LS       LTORG    MOVE     PEND     POP
                                                              PRETURN  PRINT    PROC     PUSH     QLTORG   RECORD   REG
                                                              REGS     SET      SETMSG   START    USING    VCALL
                                                              WHILE    WITH     XPROC
   L3 SYS3.IS.MACLIB                                SYSB05    SEG      SEGCB    SEGCR    SEGLD    SEGWR    SIB
                                                              SYSDEFN  XPOP     XPUSH

1SCAN     (SCAN2025) (12:54) (15MAR04) Dsect Cross Reference                                                                Page  204
-Dsect     Length      Id       Defn                                                         HLASM R4.0  2004/03/15 12.54
0$$$@R0   00000000  FFFFFFFE     705
 $$$@R1   00000000  FFFFFFFD     718
 $$$@R10  00000000  FFFFFFF4     835
 $$$@R11  00000000  FFFFFFF3     848
 $$$@R12  00000000  FFFFFFF2     861
 $$$@R13  00000000  FFFFFFF1     874
 $$$@R14  00000000  FFFFFFF0     887
 $$$@R15  00000000  FFFFFFEF     900
 $$$@R2   00000000  FFFFFFFC     731
 $$$@R3   00000000  FFFFFFFB     744
 $$$@R4   00000000  FFFFFFFA     757
 $$$@R5   00000000  FFFFFFF9     770
 $$$@R6   00000000  FFFFFFF8     783
 $$$@R7   00000000  FFFFFFF7     796
 $$$@R8   00000000  FFFFFFF6     809
 $$$@R9   00000000  FFFFFFF5     822
 $$$RCALLWA
          00000004  FFFFFFE5    8076
 $$$RCP   00001000  FFFFFFEC    2454
 $$$RCV   00000FB0  FFFFFFEE    1179
 $$$RDEV  0000000C  FFFFFFEB    4668
 $$$RMCOLWA
          00000008  FFFFFFE0   20624
 $$$RMIMWA
          00000470  FFFFFFE1   19844
 $$$RMSLWA
          00000011  FFFFFFE2   16204
 $$$RNKW  00000028  FFFFFFE9    6676
 $$$RNSCNCB
          000000B0  FFFFFFED    2375
 $$$RNSTWA
          00000200  FFFFFFE7    7311
 $$$RNSWA 00000009  FFFFFFE8    6874
 $$$RPARMWA
          00000014  FFFFFFE3   13697
 $$$RRLKWA
          00000004  FFFFFFE6    7501
 $$$RSETTWA
          00000001  FFFFFFE4    9162
 $$$RSTKWA
          00000200  FFFFFFDD   28109
 $$$RTABLE
          00000100  FFFFFFDE   23514
 $$$RTTYPE
          0000010C  FFFFFFEA    6199
 $$$RXSSWA
          00000230  FFFFFFDF   22347
 HIBAL    00000000  FFFFFFFF     691

1SCAN     (SCAN2025) (12:54) (15MAR04) Using Map                                                                            Page  205
-                                                                                            HLASM R4.0  2004/03/15 12.54
   Stmt  -----Location----- Action ----------------Using----------------- Reg Max    Last  Label and Using Text
           Count      Id           Type          Value    Range     Id        Disp   Stmt
0   922  00000000  FFFFFFFF USING  ORDINARY    00000000 00001000 FFFFFFEF  15 000          @R15,15
    926  00000000  FFFFFFFF USING  ORDINARY    00000000 00001000 FFFFFFF0  14 002   28021  @R14,14
    930  00000000  FFFFFFFF USING  ORDINARY    00000000 00001000 FFFFFFF1  13 000   20885  @R13,13
    934  00000000  FFFFFFFF USING  ORDINARY    00000000 00001000 FFFFFFF2  12 000          @R12,12
    938  00000000  FFFFFFFF USING  ORDINARY    00000000 00001000 FFFFFFF3  11 000          @R11,11
    942  00000000  FFFFFFFF USING  ORDINARY    00000000 00001000 FFFFFFF4  10 000          @R10,10
    946  00000000  FFFFFFFF USING  ORDINARY    00000000 00001000 FFFFFFF5   9 000          @R9,9
    950  00000000  FFFFFFFF USING  ORDINARY    00000000 00001000 FFFFFFF6   8 000          @R8,8
    954  00000000  FFFFFFFF USING  ORDINARY    00000000 00001000 FFFFFFF7   7 000          @R7,7
    958  00000000  FFFFFFFF USING  ORDINARY    00000000 00001000 FFFFFFF8   6 000          @R6,6
    962  00000000  FFFFFFFF USING  ORDINARY    00000000 00001000 FFFFFFF9   5 001   29281  @R5,5
    966  00000000  FFFFFFFF USING  ORDINARY    00000000 00001000 FFFFFFFA   4 000   28021  @R4,4
    970  00000000  FFFFFFFF USING  ORDINARY    00000000 00001000 FFFFFFFB   3 000    8460  @R3,3
    974  00000000  FFFFFFFF USING  ORDINARY    00000000 00001000 FFFFFFFC   2 000          @R2,2
    978  00000000  FFFFFFFF USING  ORDINARY    00000000 00001000 FFFFFFFD   1 001    2169  @R1,1
    982  00000000  FFFFFFFF USING  ORDINARY    00000000 00001000 FFFFFFFE   0 000          @R0,0
    983  00000000  FFFFFFFF DROP                                            0              0
   1149  00000017  00000001 USING  ORDINARY    00000000 00001000 FFFFFFEE  12 8AC   30765  CV,CVR
   1170  00000017  00000001 USING  ORDINARY    00000000 00001000 FFFFFFEC  11 D89   30587  CP,CPR
   6935  00000032  00000001 USING  ORDINARY    00000032 00001000 00000001   7 B9E    7248  $$$43B,7
   6949  00000032  00000001 USING  ORDINARY    FFFFFFD8 00001000 FFFFFFE8   8 030    7239  NSWA-(4+36),R8
   6960  00000032  00000001 USING  ORDINARY    00000000 00001000 FFFFFFED   2 05C    7254  NSCNCB,R2
   6970  00000034  00000001 USING  ORDINARY    00000000 00001000 FFFFFFE9   1 000          NKW,R1
   7263  0000010A  00000001 USING  ORDINARY    00000000 00001000 FFFFFFF6   8 000          @R8,8
   7268  0000010A  00000001 USING  ORDINARY    00000000 00001000 FFFFFFF7   7 000          @R7,7
   7287  00000118  00000001 USING  ORDINARY    00000000 00001000 FFFFFFFD   1 000          @R1,1
   7294  00000118  00000001 USING  ORDINARY    00000000 00001000 FFFFFFFC   2 000          @R2,2
   7363  00000132  00000001 USING  ORDINARY    00000132 00001000 00000001   7 B0E    7439  $$$56B,7
   7377  00000132  00000001 USING  ORDINARY    FFFFFFD8 00001000 FFFFFFE7   8 128    7420  NSTWA-(4+36),R8
   7451  000001AA  00000001 USING  ORDINARY    00000000 00001000 FFFFFFF6   8 000          @R8,8
   7456  000001AA  00000001 USING  ORDINARY    00000000 00001000 FFFFFFF7   7 000          @R7,7
   7552  000001D2  00000001 USING  ORDINARY    000001D2 00001000 00000001   7 A16    7781  $$$59B,7
   7566  000001D2  00000001 USING  ORDINARY    FFFFFFD8 00001000 FFFFFFE6   8 028    7789  RLKWA-(4+36),R8
   7578  000001D2  00000001 USING  ORDINARY    00000000 00001000 FFFFFFED   2 000          NSCNCB,R2
   7587  000001D2  00000001 USING  ORDINARY    00000000 00001000 FFFFFFE9   1 013    7747  NKW,R1
   7798  00000254  00000001 USING  ORDINARY    00000000 00001000 FFFFFFF6   8 000          @R8,8
   7803  00000254  00000001 USING  ORDINARY    00000000 00001000 FFFFFFF7   7 000          @R7,7
   7822  00000262  00000001 USING  ORDINARY    00000000 00001000 FFFFFFFD   1 000          @R1,1
   7829  00000262  00000001 USING  ORDINARY    00000000 00001000 FFFFFFFC   2 000          @R2,2
   7898  0000027C  00000001 USING  ORDINARY    0000027C 00001000 00000001   7 934    7969  $$$71B,7
   7912  0000027C  00000001 USING  ORDINARY    FFFFFFD8 00001000 FFFFFFE5   8 028    7991  CALLWA-(4+36),R8
   7923  0000027C  00000001 USING  ORDINARY    00000000 00001000 FFFFFFED   2 000          NSCNCB,R2
   7932  0000027C  00000001 USING  ORDINARY    00000000 00001000 FFFFFFE9   1 020    7976  NKW,R1
   8007  000002B0  00000001 USING  ORDINARY    00000000 00001000 FFFFFFF6   8 000          @R8,8
   8012  000002B0  00000001 USING  ORDINARY    00000000 00001000 FFFFFFF7   7 000          @R7,7
   8031  000002BE  00000001 USING  ORDINARY    00000000 00001000 FFFFFFFD   1 000          @R1,1
   8038  000002BE  00000001 USING  ORDINARY    00000000 00001000 FFFFFFFC   2 000          @R2,2
   8126  000002D8  00000001 USING  ORDINARY    000002D8 00001000 00000001   7 8D8    8222  $$$76B,7
   8140  000002D8  00000001 USING  ORDINARY    FFFFFFD8 00001000 FFFFFFE5   8 028    8244  CALLWA-(4+36),R8
   8151  000002D8  00000001 USING  ORDINARY    00000000 00001000 FFFFFFED   2 000          NSCNCB,R2
   8160  000002D8  00000001 USING  ORDINARY    00000000 00001000 FFFFFFE9  15 024    8229  NKW,R15
   8255  0000031A  00000001 USING  ORDINARY    00000000 00001000 FFFFFFF6   8 000          @R8,8
   8260  0000031A  00000001 USING  ORDINARY    00000000 00001000 FFFFFFF7   7 000          @R7,7
1SCAN     (SCAN2025) (12:54) (15MAR04) Using Map                                                                            Page  206
   8279  00000328  00000001 USING  ORDINARY    00000000 00001000 FFFFFFEF  15 000          @R15,15
   8286  00000328  00000001 USING  ORDINARY    00000000 00001000 FFFFFFFC   2 000          @R2,2
   8335  00000342  00000001 USING  ORDINARY    00000342 00001000 00000001   7 902    8478  $$$82B,7
   8351  00000342  00000001 USING  ORDINARY    00000000 00001000 FFFFFFE9   1 014    8425  NKW,R1
   8360  00000342  00000001 USING  ORDINARY    00000000 00001000 FFFFFFED   2 014    8432  NSCNCB,R2
   8486  00000392  00000001 USING  ORDINARY    00000000 00001000 FFFFFFF7   7 000          @R7,7
   8505  000003A0  00000001 USING  ORDINARY    00000000 00001000 FFFFFFFD   1 000   11392  @R1,1
   8512  000003A0  00000001 USING  ORDINARY    00000000 00001000 FFFFFFFC   2 000          @R2,2
   8570  000003BA  00000001 USING  ORDINARY    000003BA 00001000 00000001   7 842    8847  $$$92B,7
   8586  000003BA  00000001 USING  ORDINARY    00000000 00001000 FFFFFFED   6 050    8871  NSCNCB,R6
   8885  000004BE  00000001 USING  ORDINARY    00000000 00001000 FFFFFFF7   7 000          @R7,7
   8904  000004CC  00000001 USING  ORDINARY    00000000 00001000 FFFFFFF8   6 000          @R6,6
   8955  000004E6  00000001 USING  ORDINARY    000004E6 00001000 00000001   7 770    9102  $$$106B,7
   8971  000004E6  00000001 USING  ORDINARY    00000000 00001000 FFFFFFED   6 050    9095  NSCNCB,R6
   9110  00000550  00000001 USING  ORDINARY    00000000 00001000 FFFFFFF7   7 000          @R7,7
   9129  0000055E  00000001 USING  ORDINARY    00000000 00001000 FFFFFFF8   6 000          @R6,6
   9225  00000578  00000001 USING  ORDINARY    00000578 00001000 00000001   7 6F6   10195  $$$118B,7
   9239  00000578  00000001 USING  ORDINARY    FFFFFFD8 00001000 FFFFFFE4   8 028   10102  SETTWA-(4+36),R8
   9250  00000578  00000001 USING  ORDINARY    00000000 00001000 FFFFFFED   6 01C   10190  NSCNCB,R6
  10203  000007A0  00000001 USING  ORDINARY    00000000 00001000 FFFFFFF6   8 000          @R8,8
  10208  000007A0  00000001 USING  ORDINARY    00000000 00001000 FFFFFFF7   7 000          @R7,7
  10227  000007AE  00000001 USING  ORDINARY    00000000 00001000 FFFFFFF8   6 000   10624  @R6,6
  10385  00000C8E  00000001 USING  ORDINARY    00000C8E 00001000 00000001   7 0AE   10435  $$$168B,7
  10453  00000CB6  00000001 USING  ORDINARY    00000000 00001000 FFFFFFF7   7 000          @R7,7
  10527  00000CDE  00000001 USING  ORDINARY    00000CDE 00001000 00000001   7 066   10632  $$$172B,7
  10654  00000D24  00000001 USING  ORDINARY    00000000 00001000 FFFFFFF7   7 000          @R7,7
  10731  00000D62  00000001 USING  ORDINARY    00000D62 00001000 00000001   7 512   10997  $$$179B,7
  11022  00000DFA  00000001 USING  ORDINARY    00000000 00001000 FFFFFFF7   7 000          @R7,7
  11082  00000E22  00000001 USING  ORDINARY    00000E22 00001000 00000001   7 456   11212  $$$195B,7
  11233  00000E6E  00000001 USING  ORDINARY    00000000 00001000 FFFFFFF7   7 000          @R7,7
  11292  00000E96  00000001 USING  ORDINARY    00000E96 00001000 00000001   7 3E6   11422  $$$204B,7
  11443  00000EE2  00000001 USING  ORDINARY    00000000 00001000 FFFFFFF7   7 000          @R7,7
  11538  0000120A  00000001 USING  ORDINARY    0000120A 00001000 00000001   7 07A   11658  $$$213B,7
  11683  0000124E  00000001 USING  ORDINARY    00000000 00001000 FFFFFFF7   7 000          @R7,7
  11759  000012A4  00000001 USING  ORDINARY    000012A4 00001000 00000001   7 012   11806  $$$224B,7
  11775  000012A4  00000001 USING  ORDINARY    00000000 00001000 FFFFFFED   2 018   11787  NSCNCB,R2
  11824  000012B6  00000001 USING  ORDINARY    00000000 00001000 FFFFFFF7   7 000          @R7,7
  11843  000012C4  00000001 USING  ORDINARY    00000000 00001000 FFFFFFFC   2 000          @R2,2
  11890  000012DE  00000001 USING  ORDINARY    000012DE 00001000 00000001   7 01E   11942  $$$229B,7
  11906  000012DE  00000001 USING  ORDINARY    00000000 00001000 FFFFFFED   2 018   11930  NSCNCB,R2
  11960  000012FC  00000001 USING  ORDINARY    00000000 00001000 FFFFFFF7   7 000          @R7,7
  11979  0000130A  00000001 USING  ORDINARY    00000000 00001000 FFFFFFFC   2 000          @R2,2
  12021  00001324  00000001 USING  ORDINARY    00001324 00001000 00000001   7 000          $$$234B,7
  12039  00001328  00000001 USING  ORDINARY    00000000 00001000 FFFFFFF7   7 000          @R7,7
  12095  00001350  00000001 USING  ORDINARY    00001350 00001000 00000001   7 300   12256  $$$237B,7
  12111  00001350  00000001 USING  ORDINARY    00000000 00001000 FFFFFFED   2 050   12249  NSCNCB,R2
  12120  00001350  00000001 USING  ORDINARY    00000000 00001000 FFFFFFE9   1 014   12206  NKW,R1
  12279  000013B0  00000001 USING  ORDINARY    00000000 00001000 FFFFFFF7   7 000          @R7,7
  12298  000013BE  00000001 USING  ORDINARY    00000000 00001000 FFFFFFFC   2 000          @R2,2
  12305  000013BE  00000001 USING  ORDINARY    00000000 00001000 FFFFFFFD   1 000          @R1,1
  12352  000013D8  00000001 USING  ORDINARY    000013D8 00001000 00000001   7 27C   12375  $$$247B,7
  12393  000013EC  00000001 USING  ORDINARY    00000000 00001000 FFFFFFF7   7 000          @R7,7
  12451  00001414  00000001 USING  ORDINARY    00001414 00001000 00000001   7 000          $$$251B,7
  12467  00001414  00000001 USING  ORDINARY    00000000 00001000 FFFFFFE9   1 01C   12480  NKW,R1
  12487  0000141C  00000001 USING  ORDINARY    00000000 00001000 FFFFFFF7   7 000          @R7,7
  12506  0000142A  00000001 USING  ORDINARY    00000000 00001000 FFFFFFFD   1 000          @R1,1
  12550  00001444  00000001 USING  ORDINARY    00001444 00001000 00000001   7 214   12724  $$$256B,7
  12566  00001444  00000001 USING  ORDINARY    00000000 00001000 FFFFFFED   2 01C   12593  NSCNCB,R2
  12575  00001444  00000001 USING  ORDINARY    00000000 00001000 FFFFFFE9   1 018   12684  NKW,R1
1SCAN     (SCAN2025) (12:54) (15MAR04) Using Map                                                                            Page  207
  12750  000014AA  00000001 USING  ORDINARY    00000000 00001000 FFFFFFF7   7 000          @R7,7
  12769  000014B8  00000001 USING  ORDINARY    00000000 00001000 FFFFFFFC   2 000          @R2,2
  12776  000014B8  00000001 USING  ORDINARY    00000000 00001000 FFFFFFFD   1 000          @R1,1
  12809  000014D2  00000001 USING  ORDINARY    000014D2 00001000 00000001   7 192   12981  $$$267B,7
  12825  000014D2  00000001 USING  ORDINARY    00000000 00001000 FFFFFFED   2 01C   12928  NSCNCB,R2
  12834  000014D2  00000001 USING  ORDINARY    00000000 00001000 FFFFFFE9   1 000          NKW,R1
  13007  0000153A  00000001 USING  ORDINARY    00000000 00001000 FFFFFFF7   7 000          @R7,7
  13026  00001548  00000001 USING  ORDINARY    00000000 00001000 FFFFFFFC   2 000          @R2,2
  13033  00001548  00000001 USING  ORDINARY    00000000 00001000 FFFFFFFD   1 000   13291  @R1,1
  13082  00001562  00000001 USING  ORDINARY    00001562 00001000 00000001   7 02C   13163  $$$277B,7
  13098  00001562  00000001 USING  ORDINARY    00000000 00001000 FFFFFFED   2 014   13101  NSCNCB,R2
  13180  0000158E  00000001 USING  ORDINARY    00000000 00001000 FFFFFFF7   7 000          @R7,7
  13199  0000159C  00000001 USING  ORDINARY    00000000 00001000 FFFFFFFC   2 000          @R2,2
  13248  000015B6  00000001 USING  ORDINARY    000015B6 00001000 00000001   7 024   13314  $$$284B,7
  13264  000015B6  00000001 USING  ORDINARY    00000000 00001000 FFFFFFED   2 014   13267  NSCNCB,R2
  13331  000015DA  00000001 USING  ORDINARY    00000000 00001000 FFFFFFF7   7 000          @R7,7
  13350  000015E8  00000001 USING  ORDINARY    00000000 00001000 FFFFFFFC   2 000          @R2,2
  13401  00001602  00000001 USING  ORDINARY    00001602 00001000 00000001   7 03C   13497  $$$290B,7
  13417  00001602  00000001 USING  ORDINARY    00000000 00001000 FFFFFFE9   1 010   13429  NKW,R1
  13426  00001602  00000001 USING  ORDINARY    00000000 00001000 FFFFFFED   2 050   13461  NSCNCB,R2
  13514  0000163E  00000001 USING  ORDINARY    00000000 00001000 FFFFFFF7   7 000          @R7,7
  13533  0000164C  00000001 USING  ORDINARY    00000000 00001000 FFFFFFFD   1 000          @R1,1
  13540  0000164C  00000001 USING  ORDINARY    00000000 00001000 FFFFFFFC   2 000          @R2,2
  13604  00001680  00000001 USING  ORDINARY    00001680 00001000 00000001   7 1F0   13643  $$$297B,7
  13658  000016A6  00000001 USING  ORDINARY    00000000 00001000 FFFFFFF7   7 000          @R7,7
  13748  000016CE  00000001 USING  ORDINARY    000016CE 00001000 00000001   7 196   13868  $$$301B,7
  13762  000016CE  00000001 USING  ORDINARY    FFFFFFD8 00001000 FFFFFFE3   8 038   13852  PARMWA-(4+36),R8
  13773  000016CE  00000001 USING  ORDINARY    00000000 00001000 FFFFFFE9   1 000          NKW,R1
  13782  000016CE  00000001 USING  ORDINARY    00000000 00001000 FFFFFFED   2 050   13884  NSCNCB,R2
  13894  00001720  00000001 USING  ORDINARY    00000000 00001000 FFFFFFF6   8 000          @R8,8
  13899  00001720  00000001 USING  ORDINARY    00000000 00001000 FFFFFFF7   7 000          @R7,7
  13918  0000172E  00000001 USING  ORDINARY    00000000 00001000 FFFFFFFC   2 000          @R2,2
  13925  0000172E  00000001 USING  ORDINARY    00000000 00001000 FFFFFFFD   1 000          @R1,1
  13970  00001748  00000001 USING  ORDINARY    00001748 00001000 00000001   7 128   14009  $$$308B,7
  14024  0000176E  00000001 USING  ORDINARY    00000000 00001000 FFFFFFF7   7 000          @R7,7
  14093  00001796  00000001 USING  ORDINARY    00001796 00001000 00000001   7 0D6   14338  $$$312B,7
  14107  00001796  00000001 USING  ORDINARY    FFFFFFD8 00001000 FFFFFFE3   8 038   14189  PARMWA-(4+36),R8
  14118  00001796  00000001 USING  ORDINARY    00000000 00001000 FFFFFFE9   1 018   14317  NKW,R1
  14127  00001796  00000001 USING  ORDINARY    00000000 00001000 FFFFFFED   2 050   14226  NSCNCB,R2
  14365  00001842  00000001 USING  ORDINARY    00000000 00001000 FFFFFFF6   8 000          @R8,8
  14370  00001842  00000001 USING  ORDINARY    00000000 00001000 FFFFFFF7   7 000          @R7,7
  14389  00001850  00000001 USING  ORDINARY    00000000 00001000 FFFFFFFC   2 000          @R2,2
  14396  00001850  00000001 USING  ORDINARY    00000000 00001000 FFFFFFFD   1 100   29281  @R1,1
  14463  0000188C  00000001 USING  ORDINARY    0000188C 00001000 00000001   7 61C   14502  $$$324B,7
  14517  000018B2  00000001 USING  ORDINARY    00000000 00001000 FFFFFFF7   7 000          @R7,7
  14585  000018DA  00000001 USING  ORDINARY    000018DA 00001000 00000001   7 5D0   14712  $$$328B,7
  14599  000018DA  00000001 USING  ORDINARY    FFFFFFD8 00001000 FFFFFFE3   8 028   14615  PARMWA-(4+36),R8
  14610  000018DA  00000001 USING  ORDINARY    00000000 00001000 FFFFFFED   2 040   14616  NSCNCB,R2
  14731  0000195C  00000001 USING  ORDINARY    00000000 00001000 FFFFFFF6   8 000          @R8,8
  14736  0000195C  00000001 USING  ORDINARY    00000000 00001000 FFFFFFF7   7 000          @R7,7
  14755  0000196A  00000001 USING  ORDINARY    00000000 00001000 FFFFFFFC   2 000          @R2,2
  14836  000019FE  00000001 USING  ORDINARY    000019FE 00001000 00000001   7 48E   14847  $$$335B,7
  14855  00001A04  00000001 USING  ORDINARY    00000000 00001000 FFFFFFF7   7 000          @R7,7
  14900  00001A2C  00000001 USING  ORDINARY    00001A2C 00001000 00000001   7 000          $$$338B,7
  14920  00001A38  00000001 USING  ORDINARY    00000000 00001000 FFFFFFF7   7 000          @R7,7
  14965  00001A60  00000001 USING  ORDINARY    00001A60 00001000 00000001   7 430   14976  $$$341B,7
  14984  00001A66  00000001 USING  ORDINARY    00000000 00001000 FFFFFFF7   7 000          @R7,7
  15042  00001A8E  00000001 USING  ORDINARY    00001A8E 00001000 00000001   7 41A   15081  $$$344B,7
  15096  00001AB4  00000001 USING  ORDINARY    00000000 00001000 FFFFFFF7   7 000          @R7,7
1SCAN     (SCAN2025) (12:54) (15MAR04) Using Map                                                                            Page  208
  15165  00001ADC  00000001 USING  ORDINARY    00001ADC 00001000 00000001   7 3CE   15292  $$$348B,7
  15179  00001ADC  00000001 USING  ORDINARY    FFFFFFD8 00001000 FFFFFFE3   8 028   15195  PARMWA-(4+36),R8
  15190  00001ADC  00000001 USING  ORDINARY    00000000 00001000 FFFFFFED   2 040   15196  NSCNCB,R2
  15311  00001B5E  00000001 USING  ORDINARY    00000000 00001000 FFFFFFF6   8 000          @R8,8
  15316  00001B5E  00000001 USING  ORDINARY    00000000 00001000 FFFFFFF7   7 000          @R7,7
  15335  00001B6C  00000001 USING  ORDINARY    00000000 00001000 FFFFFFFC   2 000          @R2,2
  15416  00001BFE  00000001 USING  ORDINARY    00001BFE 00001000 00000001   7 28E   15427  $$$355B,7
  15435  00001C04  00000001 USING  ORDINARY    00000000 00001000 FFFFFFF7   7 000          @R7,7
  15480  00001C2C  00000001 USING  ORDINARY    00001C2C 00001000 00000001   7 000          $$$358B,7
  15500  00001C38  00000001 USING  ORDINARY    00000000 00001000 FFFFFFF7   7 000          @R7,7
  15545  00001C60  00000001 USING  ORDINARY    00001C60 00001000 00000001   7 230   15556  $$$361B,7
  15564  00001C66  00000001 USING  ORDINARY    00000000 00001000 FFFFFFF7   7 000          @R7,7
  15622  00001C8E  00000001 USING  ORDINARY    00001C8E 00001000 00000001   7 21A   15661  $$$364B,7
  15676  00001CB4  00000001 USING  ORDINARY    00000000 00001000 FFFFFFF7   7 000          @R7,7
  15745  00001CDC  00000001 USING  ORDINARY    00001CDC 00001000 00000001   7 1CE   15872  $$$368B,7
  15759  00001CDC  00000001 USING  ORDINARY    FFFFFFD8 00001000 FFFFFFE3   8 028   15775  PARMWA-(4+36),R8
  15770  00001CDC  00000001 USING  ORDINARY    00000000 00001000 FFFFFFED   2 040   15776  NSCNCB,R2
  15891  00001D5E  00000001 USING  ORDINARY    00000000 00001000 FFFFFFF6   8 000          @R8,8
  15896  00001D5E  00000001 USING  ORDINARY    00000000 00001000 FFFFFFF7   7 000          @R7,7
  15915  00001D6C  00000001 USING  ORDINARY    00000000 00001000 FFFFFFFC   2 000          @R2,2
  15996  00001DFE  00000001 USING  ORDINARY    00001DFE 00001000 00000001   7 08E   16007  $$$375B,7
  16015  00001E04  00000001 USING  ORDINARY    00000000 00001000 FFFFFFF7   7 000          @R7,7
  16060  00001E2C  00000001 USING  ORDINARY    00001E2C 00001000 00000001   7 000          $$$378B,7
  16080  00001E38  00000001 USING  ORDINARY    00000000 00001000 FFFFFFF7   7 000          @R7,7
  16125  00001E60  00000001 USING  ORDINARY    00001E60 00001000 00000001   7 044   16136  $$$381B,7
  16144  00001E66  00000001 USING  ORDINARY    00000000 00001000 FFFFFFF7   7 000          @R7,7
  16282  00001EC6  00000001 USING  ORDINARY    00001EC6 00001000 00000001   7 8B4   16667  $$$384B,7
  16296  00001EC6  00000001 USING  ORDINARY    FFFFFFD8 00001000 FFFFFFE2   8 028   16309  MSLWA-(4+36),R8
  16307  00001EC6  00000001 USING  ORDINARY    00000000 00001000 FFFFFFED   2 060   20167  NSCNCB,R2
  16317  00001ECA  00000001 USING  ORDINARY    00000000 00001000 FFFFFFE2   6 010   19472  MSLWA,R6
  16687  00001FFC  00000001 USING  ORDINARY    00000000 00001000 FFFFFFF6   8 000          @R8,8
  16692  00001FFC  00000001 USING  ORDINARY    00000000 00001000 FFFFFFF7   7 000          @R7,7
  16970  0000227E  00000001 USING  ORDINARY    0000227E 00001000 00000001   7 4CE   16987  $$$401B,7
  16995  00002292  00000001 USING  ORDINARY    00000000 00001000 FFFFFFF7   7 000          @R7,7
  17041  000022BA  00000001 USING  ORDINARY    000022BA 00001000 00000001   7 496   17137  $$$404B,7
  17145  000022F0  00000001 USING  ORDINARY    00000000 00001000 FFFFFFF7   7 000          @R7,7
  17191  00002318  00000001 USING  ORDINARY    00002318 00001000 00000001   7 43C   17284  $$$412B,7
  17292  00002350  00000001 USING  ORDINARY    00000000 00001000 FFFFFFF7   7 000          @R7,7
  17338  00002378  00000001 USING  ORDINARY    00002378 00001000 00000001   7 404   17496  $$$420B,7
  17506  000023E2  00000001 USING  ORDINARY    00000000 00001000 FFFFFFF7   7 000          @R7,7
  17552  0000240A  00000001 USING  ORDINARY    0000240A 00001000 00000001   7 3A2   17735  $$$431B,7
  17745  00002488  00000001 USING  ORDINARY    00000000 00001000 FFFFFFF7   7 000          @R7,7
  17791  000024B0  00000001 USING  ORDINARY    000024B0 00001000 00000001   7 30F   17974  $$$443B,7
  17984  0000252E  00000001 USING  ORDINARY    00000000 00001000 FFFFFFF7   7 000          @R7,7
  18030  00002556  00000001 USING  ORDINARY    00002556 00001000 00000001   7 21E   18105  $$$455B,7
  18115  0000258A  00000001 USING  ORDINARY    00000000 00001000 FFFFFFF7   7 000          @R7,7
  18161  000025B2  00000001 USING  ORDINARY    000025B2 00001000 00000001   7 1AA   18209  $$$461B,7
  18217  000025D6  00000001 USING  ORDINARY    00000000 00001000 FFFFFFF7   7 000          @R7,7
  18263  000025FE  00000001 USING  ORDINARY    000025FE 00001000 00000001   7 15E   18311  $$$466B,7
  18319  00002622  00000001 USING  ORDINARY    00000000 00001000 FFFFFFF7   7 000          @R7,7
  18365  0000264A  00000001 USING  ORDINARY    0000264A 00001000 00000001   7 102   18378  $$$471B,7
  18386  00002658  00000001 USING  ORDINARY    00000000 00001000 FFFFFFF7   7 000          @R7,7
  18432  00002680  00000001 USING  ORDINARY    00002680 00001000 00000001   7 156   18486  $$$474B,7
  18498  000026AA  00000001 USING  ORDINARY    00000000 00001000 FFFFFFF7   7 000          @R7,7
  18544  000026D2  00000001 USING  ORDINARY    000026D2 00001000 00000001   7 0C0   18598  $$$479B,7
  18610  000026FC  00000001 USING  ORDINARY    00000000 00001000 FFFFFFF7   7 000          @R7,7
  18656  00002724  00000001 USING  ORDINARY    00002724 00001000 00000001   7 000          $$$484B,7
  18672  00002728  00000001 USING  ORDINARY    00000000 00001000 FFFFFFF7   7 000          @R7,7
  18766  0000280A  00000001 USING  ORDINARY    0000280A 00001000 00000001   7 488   18838  $$$487B,7
1SCAN     (SCAN2025) (12:54) (15MAR04) Using Map                                                                            Page  209
  18852  00002884  00000001 USING  ORDINARY    00000000 00001000 FFFFFFF7   7 000          @R7,7
  19022  000029EE  00000001 USING  ORDINARY    000029EE 00001000 00000001   7 2A2   19115  $$$491B,7
  19131  00002A68  00000001 USING  ORDINARY    00000000 00001000 FFFFFFF7   7 000          @R7,7
  19177  00002A90  00000001 USING  ORDINARY    00002A90 00001000 00000001   7 200   19270  $$$497B,7
  19286  00002B0A  00000001 USING  ORDINARY    00000000 00001000 FFFFFFF7   7 000          @R7,7
  19332  00002B32  00000001 USING  ORDINARY    00002B32 00001000 00000001   7 000          $$$503B,7
  19348  00002B36  00000001 USING  ORDINARY    00000000 00001000 FFFFFFF7   7 000          @R7,7
  19394  00002B5E  00000001 USING  ORDINARY    00002B5E 00001000 00000001   7 000          $$$506B,7
  19412  00002B6A  00000001 USING  ORDINARY    00000000 00001000 FFFFFFF7   7 000          @R7,7
  19458  00002B92  00000001 USING  ORDINARY    00002B92 00001000 00000001   7 0EE   19470  $$$509B,7
  19480  00002BA4  00000001 USING  ORDINARY    00000000 00001000 FFFFFFF7   7 000          @R7,7
  19526  00002BCC  00000001 USING  ORDINARY    00002BCC 00001000 00000001   7 0B0   19537  $$$512B,7
  19545  00002BD2  00000001 USING  ORDINARY    00000000 00001000 FFFFFFF7   7 000          @R7,7
  19564  00002BE0  00000001 USING  ORDINARY    00000000 00001000 FFFFFFF8   6 000          @R6,6
  19612  00002BFA  00000001 USING  ORDINARY    00002BFA 00001000 00000001   7 092   19767  $$$515B,7
  19787  00002C58  00000001 USING  ORDINARY    00000000 00001000 FFFFFFF7   7 000          @R7,7
  19903  00002CAE  00000001 USING  ORDINARY    00002CAE 00001000 00000001   7 69C   20246  $$$527B,7
  19917  00002CAE  00000001 USING  ORDINARY    FFFFFFD8 00001000 FFFFFFE1   8 028   19923  MIMWA-(4+36),R8
  19931  00002CB2  00000001 USING  ORDINARY    00000000 00001000 FFFFFFE1   6 3C0   20526  MIMWA,R6
  20281  00002E26  00000001 USING  ORDINARY    00000000 00001000 FFFFFFF6   8 000          @R8,8
  20286  00002E26  00000001 USING  ORDINARY    00000000 00001000 FFFFFFF7   7 000          @R7,7
  20305  00002E34  00000001 USING  ORDINARY    00000000 00001000 FFFFFFFC   2 000          @R2,2
  20386  00002EC6  00000001 USING  ORDINARY    00002EC6 00001000 00000001   7 000          $$$541B,7
  20402  00002ECA  00000001 USING  ORDINARY    00000000 00001000 FFFFFFF7   7 000          @R7,7
  20447  00002EF2  00000001 USING  ORDINARY    00002EF2 00001000 00000001   7 3DC   20567  $$$544B,7
  20587  00002F8A  00000001 USING  ORDINARY    00000000 00001000 FFFFFFF7   7 000          @R7,7
  20606  00002F98  00000001 USING  ORDINARY    00000000 00001000 FFFFFFF8   6 000          @R6,6
  20676  00002FB2  00000001 USING  ORDINARY    00002FB2 00001000 00000001   7 37A   21032  $$$550B,7
  20690  00002FB2  00000001 USING  ORDINARY    FFFFFFD8 00001000 FFFFFFE0   8 028   20703  MCOLWA-(4+36),R8
  20701  00002FB2  00000001 USING  ORDINARY    00000000 00001000 FFFFFFED   2 01C   21566  NSCNCB,R2
  20711  00002FB6  00000001 USING  ORDINARY    00000000 00001000 FFFFFFE0   6 004   21405  MCOLWA,R6
  21054  000030E0  00000001 USING  ORDINARY    00000000 00001000 FFFFFFF6   8 000          @R8,8
  21059  000030E0  00000001 USING  ORDINARY    00000000 00001000 FFFFFFF7   7 000          @R7,7
  21154  00003182  00000001 USING  ORDINARY    00003182 00001000 00000001   7 000          $$$565B,7
  21170  00003186  00000001 USING  ORDINARY    00000000 00001000 FFFFFFF7   7 000          @R7,7
  21216  000031AE  00000001 USING  ORDINARY    000031AE 00001000 00000001   7 000          $$$568B,7
  21232  000031B2  00000001 USING  ORDINARY    00000000 00001000 FFFFFFF7   7 000          @R7,7
  21277  000031DA  00000001 USING  ORDINARY    000031DA 00001000 00000001   7 0F2   21399  $$$571B,7
  21421  00003268  00000001 USING  ORDINARY    00000000 00001000 FFFFFFF7   7 000          @R7,7
  21440  00003276  00000001 USING  ORDINARY    00000000 00001000 FFFFFFF8   6 000          @R6,6
  21514  0000336A  00000001 USING  ORDINARY    0000336A 00001000 00000001   7 2CF   21627  $$$579B,7
  21634  000033C0  00000001 USING  ORDINARY    00000000 00001000 FFFFFFF7   7 000          @R7,7
  21653  000033CE  00000001 USING  ORDINARY    00000000 00001000 FFFFFFFC   2 000          @R2,2
  21695  000033E8  00000001 USING  ORDINARY    000033E8 00001000 00000001   7 224   21748  $$$585B,7
  21711  000033E8  00000001 USING  ORDINARY    00000000 00001000 FFFFFFED   2 014   21716  NSCNCB,R2
  21755  00003410  00000001 USING  ORDINARY    00000000 00001000 FFFFFFF7   7 000          @R7,7
  21774  0000341E  00000001 USING  ORDINARY    00000000 00001000 FFFFFFFC   2 000          @R2,2
  21822  00003438  00000001 USING  ORDINARY    00003438 00001000 00000001   7 15C   21875  $$$588B,7
  21838  00003438  00000001 USING  ORDINARY    00000000 00001000 FFFFFFED   2 000          NSCNCB,R2
  21882  0000345C  00000001 USING  ORDINARY    00000000 00001000 FFFFFFF7   7 000          @R7,7
  21901  0000346A  00000001 USING  ORDINARY    00000000 00001000 FFFFFFFC   2 000          @R2,2
  21946  00003484  00000001 USING  ORDINARY    00003484 00001000 00000001   7 124   21999  $$$591B,7
  21962  00003484  00000001 USING  ORDINARY    00000000 00001000 FFFFFFED   2 050   21967  NSCNCB,R2
  22006  000034AC  00000001 USING  ORDINARY    00000000 00001000 FFFFFFF7   7 000          @R7,7
  22025  000034BA  00000001 USING  ORDINARY    00000000 00001000 FFFFFFFC   2 000          @R2,2
  22071  000034D4  00000001 USING  ORDINARY    000034D4 00001000 00000001   7 114   22136  $$$594B,7
  22087  000034D4  00000001 USING  ORDINARY    00000000 00001000 FFFFFFED   2 050   22092  NSCNCB,R2
  22143  0000350E  00000001 USING  ORDINARY    00000000 00001000 FFFFFFF7   7 000          @R7,7
  22162  0000351C  00000001 USING  ORDINARY    00000000 00001000 FFFFFFFC   2 000          @R2,2
1SCAN     (SCAN2025) (12:54) (15MAR04) Using Map                                                                            Page  210
  22203  00003536  00000001 USING  ORDINARY    00003536 00001000 00000001   7 05A   22267  $$$597B,7
  22219  00003536  00000001 USING  ORDINARY    00000000 00001000 FFFFFFED   2 014   22234  NSCNCB,R2
  22228  00003536  00000001 USING  ORDINARY    00000000 00001000 FFFFFFE2   6 00C   22232  MSLWA,R6
  22274  00003564  00000001 USING  ORDINARY    00000000 00001000 FFFFFFF7   7 000          @R7,7
  22293  00003572  00000001 USING  ORDINARY    00000000 00001000 FFFFFFF8   6 000          @R6,6
  22411  00003676  00000001 USING  ORDINARY    00003676 00001000 00000001   7 AD6   22518  $$$600B,7
  22425  00003676  00000001 USING  ORDINARY    FFFFFFD8 00001000 FFFFFFDF   8 158   22529  XSSWA-(4+36),R8
  22543  0000372E  00000001 USING  ORDINARY    00000000 00001000 FFFFFFF6   8 000          @R8,8
  22548  0000372E  00000001 USING  ORDINARY    00000000 00001000 FFFFFFF7   7 000          @R7,7
  22636  00003756  00000001 USING  ORDINARY    00003756 00001000 00000001   7 9F6   22706  $$$605B,7
  22650  00003756  00000001 USING  ORDINARY    FFFFFFD8 00001000 FFFFFFDF   8 158   22717  XSSWA-(4+36),R8
  22731  000037FA  00000001 USING  ORDINARY    00000000 00001000 FFFFFFF6   8 000          @R8,8
  22736  000037FA  00000001 USING  ORDINARY    00000000 00001000 FFFFFFF7   7 000          @R7,7
  22810  00003822  00000001 USING  ORDINARY    00003822 00001000 00000001   7 932   23019  $$$608B,7
  22824  00003822  00000001 USING  ORDINARY    FFFFFFD8 00001000 FFFFFFDF   8 158   23030  XSSWA-(4+36),R8
  23044  0000392A  00000001 USING  ORDINARY    00000000 00001000 FFFFFFF6   8 000          @R8,8
  23049  0000392A  00000001 USING  ORDINARY    00000000 00001000 FFFFFFF7   7 000          @R7,7
  23117  00003952  00000001 USING  ORDINARY    00003952 00001000 00000001   7 892   23266  $$$618B,7
  23289  000039AA  00000001 USING  ORDINARY    00000000 00001000 FFFFFFF7   7 000          @R7,7
  23356  000039D2  00000001 USING  ORDINARY    000039D2 00001000 00000001   7 79A   23375  $$$631B,7
  23384  000039E4  00000001 USING  ORDINARY    00000000 00001000 FFFFFFF7   7 000          @R7,7
  23451  00003A0C  00000001 USING  ORDINARY    00003A0C 00001000 00000001   7 764   23473  $$$634B,7
  23482  00003A1C  00000001 USING  ORDINARY    00000000 00001000 FFFFFFF7   7 000          @R7,7
  23561  00003A44  00000001 USING  ORDINARY    00003A44 00001000 00000001   7 9A6   24105  $$$637B,7
  23577  00003A44  00000001 USING  ORDINARY    00000000 00001000 FFFFFFDE   6 060   24090  TABLE,R6
  24048  00003BB2  00000001 DROP                                            2              2
  24052  00003BB8  00000001 USING  ORDINARY    00000000 00001000 FFFFFFED   2 000          NSCNCB,2
  24085  00003BCA  00000001 DROP                                            2              2
  24089  00003BD0  00000001 USING  ORDINARY    00000000 00001000 FFFFFFED   2 000          NSCNCB,2
  24118  00003BE4  00000001 USING  ORDINARY    00000000 00001000 FFFFFFF7   7 000          @R7,7
  24137  00003BF2  00000001 USING  ORDINARY    00000000 00001000 FFFFFFF8   6 000          @R6,6
  24191  00003C0C  00000001 USING  ORDINARY    00003C0C 00001000 00000001   7 8DE   24726  $$$669B,7
  24207  00003C0C  00000001 USING  ORDINARY    00000000 00001000 FFFFFFDE   6 060   24711  TABLE,R6
  24669  00003D76  00000001 DROP                                            2              2
  24673  00003D7C  00000001 USING  ORDINARY    00000000 00001000 FFFFFFED   2 000          NSCNCB,2
  24706  00003D8E  00000001 DROP                                            2              2
  24710  00003D94  00000001 USING  ORDINARY    00000000 00001000 FFFFFFED   2 000          NSCNCB,2
  24739  00003DA8  00000001 USING  ORDINARY    00000000 00001000 FFFFFFF7   7 000          @R7,7
  24758  00003DB6  00000001 USING  ORDINARY    00000000 00001000 FFFFFFF8   6 000          @R6,6
  24810  00003DD0  00000001 USING  ORDINARY    00003DD0 00001000 00000001   7 71A   25345  $$$700B,7
  24826  00003DD0  00000001 USING  ORDINARY    00000000 00001000 FFFFFFDE   6 060   25330  TABLE,R6
  25288  00003F3A  00000001 DROP                                            2              2
  25292  00003F40  00000001 USING  ORDINARY    00000000 00001000 FFFFFFED   2 000          NSCNCB,2
  25325  00003F52  00000001 DROP                                            2              2
  25329  00003F58  00000001 USING  ORDINARY    00000000 00001000 FFFFFFED   2 000          NSCNCB,2
  25358  00003F6C  00000001 USING  ORDINARY    00000000 00001000 FFFFFFF7   7 000          @R7,7
  25377  00003F7A  00000001 USING  ORDINARY    00000000 00001000 FFFFFFF8   6 000          @R6,6
  25431  00003F94  00000001 USING  ORDINARY    00003F94 00001000 00000001   7 456   25966  $$$731B,7
  25447  00003F94  00000001 USING  ORDINARY    00000000 00001000 FFFFFFDE   6 060   25951  TABLE,R6
  25909  000040FE  00000001 DROP                                            2              2
  25913  00004104  00000001 USING  ORDINARY    00000000 00001000 FFFFFFED   2 000          NSCNCB,2
  25946  00004116  00000001 DROP                                            2              2
  25950  0000411C  00000001 USING  ORDINARY    00000000 00001000 FFFFFFED   2 014   26652  NSCNCB,2
  25979  00004130  00000001 USING  ORDINARY    00000000 00001000 FFFFFFF7   7 000          @R7,7
  25998  0000413E  00000001 USING  ORDINARY    00000000 00001000 FFFFFFF8   6 000          @R6,6
  26550  0000540A  00000001 USING  ORDINARY    0000540A 00001000 00000001   7 5EA   26701  $$$762B,7
  26710  0000546A  00000001 USING  ORDINARY    00000000 00001000 FFFFFFF7   7 000          @R7,7
  26729  00005478  00000001 USING  ORDINARY    00000000 00001000 FFFFFFFC   2 000          @R2,2
  26769  00005492  00000001 USING  ORDINARY    00005492 00001000 00000001   7 000          $$$769B,7
1SCAN     (SCAN2025) (12:54) (15MAR04) Using Map                                                                            Page  211
  26784  00005492  00000001 USING  ORDINARY    00000000 00001000 FFFFFFF7   7 000          @R7,7
  26839  000054BA  00000001 USING  ORDINARY    000054BA 00001000 00000001   7 576   26932  $$$772B,7
  26855  000054BA  00000001 USING  ORDINARY    00000000 00001000 FFFFFFED   2 060   26926  NSCNCB,R2
  26939  000054F8  00000001 USING  ORDINARY    00000000 00001000 FFFFFFF7   7 000          @R7,7
  26958  00005506  00000001 USING  ORDINARY    00000000 00001000 FFFFFFFC   2 000          @R2,2
  27007  00005520  00000001 USING  ORDINARY    00005520 00001000 00000001   7 4E6   27079  $$$779B,7
  27023  00005520  00000001 USING  ORDINARY    00000000 00001000 FFFFFFED   2 014   27028  NSCNCB,R2
  27086  00005554  00000001 USING  ORDINARY    00000000 00001000 FFFFFFF7   7 000          @R7,7
  27105  00005562  00000001 USING  ORDINARY    00000000 00001000 FFFFFFFC   2 000          @R2,2
  27168  0000557C  00000001 USING  ORDINARY    0000557C 00001000 00000001   7 448   27270  $$$783B,7
  27184  0000557C  00000001 USING  ORDINARY    00000000 00001000 FFFFFFED   2 060   27267  NSCNCB,R2
  27293  000055B8  00000001 USING  ORDINARY    00000000 00001000 FFFFFFF7   7 000          @R7,7
  27312  000055C6  00000001 USING  ORDINARY    00000000 00001000 FFFFFFFC   2 001   27822  @R2,2
  27363  000055E0  00000001 USING  ORDINARY    000055E0 00001000 00000001   7 456   27650  $$$789B,7
  27380  000055E2  00000001 USING  ORDINARY    00000000 00001000 FFFFFFED   6 014   27645  NSCNCB,R6
  27666  000056B0  00000001 USING  ORDINARY    00000000 00001000 FFFFFFF7   7 000          @R7,7
  27685  000056BE  00000001 USING  ORDINARY    00000000 00001000 FFFFFFF8   6 000          @R6,6
  27730  000056D8  00000001 USING  ORDINARY    000056D8 00001000 00000001   7 339   27863  $$$806B,7
  27879  00005722  00000001 USING  ORDINARY    00000000 00001000 FFFFFFF7   7 000          @R7,7
  27947  0000574A  00000001 USING  ORDINARY    0000574A 00001000 00000001   7 2F2   28045  $$$814B,7
  27964  0000574C  00000001 USING  ORDINARY    00000000 00001000 FFFFFFED   6 014   28050  NSCNCB,R6
  28068  0000578A  00000001 USING  ORDINARY    00000000 00001000 FFFFFFF7   7 000          @R7,7
  28087  00005798  00000001 USING  ORDINARY    00000000 00001000 FFFFFFF8   6 000   29001  @R6,6
  28161  000057B2  00000001 USING  ORDINARY    000057B2 00001000 00000001   7 27A   28257  $$$822B,7
  28175  000057B2  00000001 USING  ORDINARY    FFFFFFD8 00001000 FFFFFFDD   8 128   28221  STKWA-(4+36),R8
  28267  0000585A  00000001 USING  ORDINARY    00000000 00001000 FFFFFFF6   8 000          @R8,8
  28272  0000585A  00000001 USING  ORDINARY    00000000 00001000 FFFFFFF7   7 000          @R7,7
  28334  00005882  00000001 USING  ORDINARY    00005882 00001000 00000001   7 16E   28346  $$$825B,7
  28356  0000588E  00000001 USING  ORDINARY    00000000 00001000 FFFFFFF7   7 000          @R7,7
  28402  000058B6  00000001 USING  ORDINARY    000058B6 00001000 00000001   7 14E   28709  $$$828B,7
  28721  000059A4  00000001 USING  ORDINARY    00000000 00001000 FFFFFFF7   7 000          @R7,7
  28809  00005A5C  00000001 USING  ORDINARY    00005A5C 00001000 00000001   7 01C   28861  $$$846B,7
  28869  00005A78  00000001 USING  ORDINARY    00000000 00001000 FFFFFFF7   7 000          @R7,7
  28922  00005AA0  00000001 USING  ORDINARY    00005AA0 00001000 00000001   7 034   29015  $$$852B,7
  29023  00005AD4  00000001 USING  ORDINARY    00000000 00001000 FFFFFFF7   7 000          @R7,7
  29079  00005AFC  00000001 USING  ORDINARY    00005AFC 00001000 00000001   7 6AE   29136  $$$861B,7
  29161  00005B28  00000001 USING  ORDINARY    00000000 00001000 FFFFFFF7   7 000          @R7,7
  29217  00005B50  00000001 USING  ORDINARY    00005B50 00001000 00000001   7 660   29274  $$$869B,7
  29299  00005B7C  00000001 USING  ORDINARY    00000000 00001000 FFFFFFF7   7 000          @R7,7
  29352  00005BA4  00000001 USING  ORDINARY    00005BA4 00001000 00000001   7 5FC   29455  $$$877B,7
  29465  00005C2C  00000001 USING  ORDINARY    00000000 00001000 FFFFFFF7   7 000          @R7,7
  29743  00005EAE  00000001 USING  ORDINARY    00005EAE 00001000 00000001   7 000          $$$881B,7
  29762  00005EB0  00000001 USING  ORDINARY    00000000 00001000 FFFFFFF7   7 000          @R7,7
  29809  00005ED8  00000001 USING  ORDINARY    00005ED8 00001000 00000001   7 000          $$$884B,7
  29828  00005EDA  00000001 USING  ORDINARY    00000000 00001000 FFFFFFF7   7 000          @R7,7
  29875  00005F02  00000001 USING  ORDINARY    00005F02 00001000 00000001   7 000          $$$887B,7
  29894  00005F04  00000001 USING  ORDINARY    00000000 00001000 FFFFFFF7   7 000          @R7,7
  29941  00005F2C  00000001 USING  ORDINARY    00005F2C 00001000 00000001   7 000          $$$890B,7
  29960  00005F2E  00000001 USING  ORDINARY    00000000 00001000 FFFFFFF7   7 000          @R7,7
  30007  00005F56  00000001 USING  ORDINARY    00005F56 00001000 00000001   7 000          $$$893B,7
  30026  00005F58  00000001 USING  ORDINARY    00000000 00001000 FFFFFFF7   7 000          @R7,7
  30073  00005F80  00000001 USING  ORDINARY    00005F80 00001000 00000001   7 000          $$$896B,7
  30092  00005F82  00000001 USING  ORDINARY    00000000 00001000 FFFFFFF7   7 000          @R7,7
  30139  00005FAA  00000001 USING  ORDINARY    00005FAA 00001000 00000001   7 000          $$$899B,7
  30158  00005FAC  00000001 USING  ORDINARY    00000000 00001000 FFFFFFF7   7 000          @R7,7
  30205  00005FD4  00000001 USING  ORDINARY    00005FD4 00001000 00000001   7 000          $$$902B,7
  30224  00005FD6  00000001 USING  ORDINARY    00000000 00001000 FFFFFFF7   7 000          @R7,7
  30271  00005FFE  00000001 USING  ORDINARY    00005FFE 00001000 00000001   7 000          $$$905B,7
  30290  00006000  00000001 USING  ORDINARY    00000000 00001000 FFFFFFF7   7 000          @R7,7
1SCAN     (SCAN2025) (12:54) (15MAR04) Using Map                                                                            Page  212
  30337  00006028  00000001 USING  ORDINARY    00006028 00001000 00000001   7 164   30387  $$$908B,7
  30399  00006048  00000001 USING  ORDINARY    00000000 00001000 FFFFFFF7   7 000          @R7,7
  30447  00006070  00000001 USING  ORDINARY    00006070 00001000 00000001   7 114   30459  $$$911B,7
  30469  0000607E  00000001 USING  ORDINARY    00000000 00001000 FFFFFFF7   7 000          @R7,7
  30516  000060A6  00000001 USING  ORDINARY    000060A6 00001000 00000001   7 0F0   30590  $$$914B,7
  30598  000060CE  00000001 USING  ORDINARY    00000000 00001000 FFFFFFF7   7 000          @R7,7
  30645  000060F6  00000001 USING  ORDINARY    000060F6 00001000 00000001   7 000          $$$917B,7
  30664  000060F8  00000001 USING  ORDINARY    00000000 00001000 FFFFFFF7   7 000          @R7,7
  30711  00006120  00000001 USING  ORDINARY    00006120 00001000 00000001   7 000          $$$920B,7
  30730  00006122  00000001 USING  ORDINARY    00000000 00001000 FFFFFFF7   7 000          @R7,7
  30777  0000614A  00000001 USING  ORDINARY    0000614A 00001000 00000001   7 000          $$$923B,7
  30796  0000614C  00000001 USING  ORDINARY    00000000 00001000 FFFFFFF7   7 000          @R7,7

1         (SCAN2025) (12:54) (15MAR04) General Purpose Register Cross Reference                                             Page  213
- Register  References (M=modified, B=branch, U=USING, D=DROP, N=index)                      HLASM R4.0  2004/03/15 12.54
0    0(0)      982U   983D  2099   2167M  2167   2168M  6917   7200M  7200   7253M  7256   7276M  7345   7395M  7416M
              7433M  7433   7444   7464M  7534   7605M  7659M  7659   7699M  7699   7729M  7729   7785M  7791   7811M
              7880   7986M  7986   8000   8020M  8108   8268M  8318   8494M  8553   8613M  8636M  8636   8658M  8664
              8669M  8680M  8680   8753M  8799   8893M  8938   9095M  9118M  9207   9307M  9316M  9316   9350M  9351
              9418M  9459M  9459   9473   9479   9545   9559M  9603M  9604   9671M  9713   9719   9752   9916  10006M
             10216M 10368  10423M 10430M 10440  10442M 10443M 10446  10461M 10510  10580M 10587M 10641  10643M 10644M
             10647  10662M 10714  10758M 10758  10804M 10863M 10922M 10981M 11015  11030M 11065  11109M 11109  11152M
             11169M 11169  11192M 11226  11241M 11275  11319M 11319  11362M 11379M 11379  11402M 11436  11451M 11521
             11555M 11555  11561  11564M 11661  11665M 11672  11691M 11742  11832M 11873  11929M 11932  11968M 12004
             12047M 12078  12248M 12251  12287M 12335  12382  12401M 12434  12495M 12533  12593M 12620  12658M 12658
             12695M 12695  12743  12758M 12792  12853M 12864M 12864  12877  12892M 12893  12928M 12939M 12939  12952
             13000  13015M 13065  13101M 13112M 13112  13151  13188M 13231  13267M 13278M 13278  13302  13339M 13384
             13461M 13463  13522M 13587  13616  13624M 13646  13666M 13730  13883M 13886  13907M 13953  13982  13990M
             14012  14032M 14075  14226M 14252  14291M 14291  14328M 14328  14350  14378M 14446  14475  14483M 14505
             14525M 14567  14625M 14625  14634  14635  14695M 14702  14744M 14819  14863M 14883  14909  14928M 14948
             14992M 15025  15054  15062M 15084  15104M 15147  15205M 15205  15214  15215  15275M 15282  15324M 15399
             15443M 15463  15489  15508M 15528  15572M 15605  15634  15642M 15664  15684M 15727  15785M 15785  15794
             15795  15855M 15862  15904M 15979  16023M 16043  16069  16088M 16108  16152M 16264  16480M 16481  16490M
             16491  16556M 16556  16565  16566  16672M 16675  16700M 16953  16979  16984  17003M 17024  17065M 17097M
             17097  17134  17153M 17174  17215M 17244M 17281  17300M 17321  17362M 17424M 17433M 17433  17439M 17458M
             17458  17481M 17493  17514M 17535  17576M 17596M 17662M 17678M 17697M 17697  17720M 17732  17753M 17774
             17815M 17835M 17901M 17917M 17936M 17936  17959M 17971  17992M 18013  18102  18123M 18144  18170M 18201M
             18206  18225M 18246  18272M 18303M 18308  18327M 18348  18374M 18375  18394M 18415  18441M 18450M 18450
             18461M 18483  18506M 18527  18553M 18562M 18562  18573M 18595  18618M 18639  18680M 18749  18791M 18791
             18800  18801  18860M 19005  19037M 19037  19046  19047  19080M 19081M 19082  19093M 19093  19107  19139M
             19160  19192M 19192  19201  19202  19235M 19236M 19237  19248M 19248  19262  19294M 19315  19356M 19377
             19403M 19404  19420M 19441  19467  19472  19488M 19509  19553M 19595  19625M 19639M 19639  19662M 19674M
             19689  19695M 19720  19726M 19751  19757M 19773M 19780  19795M 19885  20006M 20006  20015  20070  20088
             20099M 20099  20108  20109  20260M 20266  20294M 20369  20410M 20430  20456  20464M 20464  20473  20474
             20475  20510M 20510  20526M 20550M 20595M 20658  20772M 20772  20781  20782  20896M 20908M 20908  20922
             20933M 20980M 21014  21025M 21040  21067M 21137  21178M 21199  21240M 21260  21292M 21292  21301  21302
             21303  21351M 21429M 21497  21528M 21531  21543M 21588M 21615M 21642M 21678  21716M 21740M 21763M 21805
             21843M 21867M 21890M 21929  21967M 21991M 22014M 22054  22092M 22116M 22128M 22151M 22186  22233M 22234M
             22235M 22259M 22282M 22393  22431  22440M 22449M 22457M 22480M 22480  22502M 22508  22515M 22520  22524M
             22532  22556M 22618  22656  22665M 22674M 22682M 22696  22703M 22708  22712M 22720  22744M 22792  22830
             22839M 22848M 22856M 22879M 22879  22901M 22907  22958M 23004  23016M 23021  23025M 23033  23057M 23100
             23137  23146M 23162  23197M 23213  23248M 23267M 23282  23297M 23339  23392M 23434  23490M 23544  23595M
             23595  23623M 23659M 23668M 23668  23712  23736M 23768M 23801M 23834M 23867M 23900M 23933M 23966M 23998M
             24030M 24059M 24096M 24126M 24174  24225M 24225  24253M 24262M 24262  24298M 24342  24366M 24389M 24422M
             24455M 24488M 24521M 24554M 24587M 24619M 24651M 24680M 24717M 24747M 24793  24844M 24844  24872M 24908M
             24917M 24917  24961  24985M 25008M 25041M 25074M 25107M 25140M 25173M 25206M 25238M 25270M 25299M 25336M
             25366M 25414  25465M 25465  25493M 25502M 25502  25538M 25582  25606M 25629M 25662M 25695M 25728M 25761M
             25794M 25827M 25859M 25891M 25920M 25957M 25987M 26533  26572  26572  26633M 26633  26652M 26655  26667M
             26702M 26718M 26752  26792M 26822  26865  26867M 26876M 26876  26882  26886  26925M 26926  26947M 26990
             27028M 27031  27043M 27071M 27094M 27151  27249M 27249  27266M 27301M 27346  27385  27486  27493  27575M
             27577M 27583  27589  27639  27645M 27655  27674M 27713  27750  27794  27864M 27887M 27930  27969  27994
             28044  28050M 28057  28076M 28143  28196M 28217M 28248M 28248  28280M 28317  28349  28364M 28385  28443M
             28450  28475M 28475  28481  28502M 28520M 28701M 28707M 28714  28729M 28819  28834M 28834  28857M 28943M
             28943  28965M 28973  28988M 28988  29011M 29062  29089  29169M 29200  29227  29307M 29335  29381M 29381
             29390  29391  29419M 29444M 29444  29473M 29726  29770M 29792  29836M 29858  29902M 29924  29968M 29990
             30034M 30056  30100M 30122  30166M 30188  30232M 30254  30298M 30320  30351M 30376M 30376  30407M 30430
             30462  30477M 30499  30554M 30579M 30579  30606M 30628  30672M 30694  30738M 30760  30804M
     1(1)      978U  2099   2162M  2163M  2169M  6917   6962   6970U  6992M  6993   7016M  7017   7183M  7254M  7256
              7276M  7287U  7345   7382   7394M  7415M  7436M  7444   7464M  7534   7587U  7599M  7599   7623M  7623
              7629   7737M  7756M  7756   7773M  7773N  7789M  7791   7811M  7822U  7880   7932U  8000   8020M  8031U
1         (SCAN2025) (12:54) (15MAR04) General Purpose Register Cross Reference                                             Page  214
              8108   8244M  8245   8268M  8318   8351U  8494M  8505U  8553   8591M  8592   8614M  8620   8650   8656M
              8656N  8663   8665M  8666M  8667   8668M  8752M  8800   8866M  8869   8870   8893M  8938   9021M  9053
              9069   9094M  9118M  9207   9349M  9364M  9416M  9492M  9557M  9602M  9617M  9669M  9732M  9751   9825
             10004M 10216M 10368  10420  10428M 10439  10441M 10443  10446  10461M 10510  10577  10585M 10640  10642M
             10644  10647  10662M 10714  10802M 10861M 10920M 10979M 11015  11030M 11065  11150M 11190M 11226  11241M
             11275  11360M 11400M 11436  11451M 11521  11564  11613  11613M 11650M 11650  11661M 11665  11672  11691M
             11742  11832M 11873  11930M 11932  11968M 12004  12047M 12078  12120U 12249M 12251  12287M 12305U 12335
             12361  12380M 12382  12401M 12434  12467U 12495M 12506U 12533  12575U 12741M 12741  12743  12758M 12776U
             12792  12834U 12998M 12998  13000  13015M 13033U 13065  13100M 13151  13188M 13231  13266M 13302  13339M
             13384  13417U 13460M 13463  13522M 13533U 13587  13616  13624M 13646  13666M 13730  13773U 13884M 13886
             13907M 13925U 13953  13982  13990M 14012  14032M 14075  14118U 14348M 14348  14350  14378M 14396U 14446
             14475  14483M 14505  14525M 14567  14621M 14634N 14635N 14637N 14696M 14702  14744M 14819  14863M 14883
             14910  14928M 14948  14992M 15025  15054  15062M 15084  15104M 15147  15201M 15214N 15215N 15217N 15276M
             15282  15324M 15399  15443M 15463  15490  15508M 15528  15572M 15605  15634  15642M 15664  15684M 15727
             15781M 15794N 15795N 15797N 15856M 15862  15904M 15979  16023M 16043  16070  16088M 16108  16152M 16264
             16552M 16565N 16566N 16568N 16673M 16675  16700M 16953  17003M 17024  17153M 17174  17300M 17321  17480M
             17514M 17535  17580M 17580  17719M 17753M 17774  17819M 17819  17958M 17992M 18013  18123M 18144  18225M
             18246  18327M 18348  18394M 18415  18460M 18506M 18527  18572M 18618M 18639  18680M 18749  18787M 18800N
             18801N 18803N 18860M 19005  19033M 19046N 19047N 19049N 19139M 19160  19188M 19201N 19202N 19204N 19294M
             19315  19356M 19377  19420M 19441  19488M 19509  19553M 19595  19626M 19660M 19672M 19795M 19885  20002M
             20015N 20069  20087  20095M 20108N 20109N 20111N 20264M 20264  20266  20294M 20369  20410M 20430  20460M
             20473N 20474N 20475N 20525M 20549M 20595M 20658  20768M 20781N 20782N 20784N 20897M 20932M 20955M 20955
             20969  20979M 21002M 21002  21014  21024M 21040  21067M 21137  21178M 21199  21240M 21260  21288M 21301N
             21302N 21303N 21350M 21429M 21497  21527M 21566M 21587M 21614M 21642M 21678  21715M 21739M 21763M 21805
             21842M 21866M 21890M 21929  21966M 21990M 22014M 22054  22091M 22115M 22127M 22151M 22186  22232M 22235
             22258M 22282M 22393  22432  22439M 22448M 22458M 22464  22494  22500M 22500N 22507  22509M 22510M 22511
             22514M 22521  22525M 22532  22556M 22618  22657  22664M 22673M 22683M 22689  22695  22697M 22698M 22699
             22702M 22709  22713M 22720  22744M 22792  22831  22838M 22847M 22857M 22863  22893  22899M 22899N 22906
             22908M 22909M 22910  22913M 23005  23015M 23022  23026M 23033  23057M 23100  23145M 23175M 23196M 23226M
             23247M 23266M 23282  23297M 23339  23392M 23434  23490M 23544  23621M 23657M 23735M 23735N 23767M 23767N
             23800M 23800N 23833M 23833N 23866M 23866N 23899M 23899N 23932M 23932N 23965M 23965N 23997M 23997N 24029M
             24029N 24051N 24057M 24088N 24094M 24126M 24174  24251M 24296M 24365M 24365N 24388M 24388N 24421M 24421N
             24454M 24454N 24487M 24487N 24520M 24520N 24553M 24553N 24586M 24586N 24618M 24618N 24650M 24650N 24672N
             24678M 24709N 24715M 24747M 24793  24870M 24906M 24984M 24984N 25007M 25007N 25040M 25040N 25073M 25073N
             25106M 25106N 25139M 25139N 25172M 25172N 25205M 25205N 25237M 25237N 25269M 25269N 25291N 25297M 25328N
             25334M 25366M 25414  25491M 25536M 25605M 25605N 25628M 25628N 25661M 25661N 25694M 25694N 25727M 25727N
             25760M 25760N 25793M 25793N 25826M 25826N 25858M 25858N 25890M 25890N 25912N 25918M 25949N 25955M 25987M
             26533  26651M 26701M 26718M 26752  26792M 26822  26947M 26990  27027M 27070M 27094M 27151  27267M 27301M
             27346  27384  27471  27566M 27575  27576M 27577  27582  27588  27655  27674M 27713  27793  27863M 27887M
             27930  27968  27993  28057  28076M 28143  28195M 28216M 28244M 28280M 28317  28343  28349  28364M 28385
             28442M 28450  28500M 28519M 28700M 28707M 28714  28729M 28818  28963M 28972  29062  29110M 29169M 29200
             29248M 29307M 29335  29377M 29390N 29391N 29393N 29418M 29473M 29726  29770M 29792  29836M 29858  29902M
             29924  29968M 29990  30034M 30056  30100M 30122  30166M 30188  30232M 30254  30298M 30320  30350M 30407M
             30430  30456M 30477M 30499  30553M 30606M 30628  30672M 30694  30738M 30760  30804M
     2(2)      974U  2099   6917   6960U  6962M  7276M  7294U  7345   7397   7399M  7406M  7418   7420M  7427M  7464M
              7534   7578U  7811M  7829U  7880   7923U  8020M  8038U  8108   8151U  8268M  8286U  8318   8360U  8494M
              8512U  8553   8588   8615M  8621M  8754M  8801   8817M  8867M  8868M  8869M  8871   8893M  8938   8973
              9118M  9207   9252   9364M  9492M  9617M  9732M 10216M 10368  10439M 10442  10446  10461M 10510  10640M
             10643  10647  10662M 10714  10743M 11030M 11065  11094M 11241M 11275  11304M 11451M 11521  11613  11613M
             11691M 11742  11775U 11832M 11843U 11873  11906U 11968M 11979U 12004  12047M 12078  12111U 12287M 12298U
             12335  12401M 12434  12495M 12533  12566U 12758M 12769U 12792  12825U 13015M 13026U 13065  13098U 13188M
             13199U 13231  13264U 13339M 13350U 13384  13426U 13522M 13540U 13587  13666M 13730  13782U 13907M 13918U
             13953  14032M 14075  14127U 14378M 14389U 14446  14525M 14567  14610U 14744M 14755U 14819  14863M 14883
             14928M 14948  14992M 15025  15104M 15147  15190U 15324M 15335U 15399  15443M 15463  15508M 15528  15572M
             15605  15684M 15727  15770U 15904M 15915U 15979  16023M 16043  16088M 16108  16152M 16264  16307U 16700M
             16953  17003M 17024  17153M 17174  17300M 17321  17483M 17514M 17535  17722M 17753M 17774  17961M 17992M
             18013  18123M 18144  18225M 18246  18327M 18348  18394M 18415  18463M 18506M 18527  18575M 18618M 18639
             18680M 18749  18860M 19005  19139M 19160  19294M 19315  19356M 19377  19420M 19441  19488M 19509  19553M
             19595  19795M 19885  20294M 20305U 20369  20410M 20430  20540M 20552M 20595M 20658  20701U 20935M 20982M
1         (SCAN2025) (12:54) (15MAR04) General Purpose Register Cross Reference                                             Page  215
             21027M 21067M 21137  21178M 21199  21240M 21260  21353M 21429M 21497  21561M 21590M 21617M 21642M 21653U
             21678  21711U 21730M 21742M 21763M 21774U 21805  21838U 21857M 21869M 21890M 21901U 21929  21962U 21981M
             21993M 22014M 22025U 22054  22087U 22106M 22118M 22130M 22151M 22162U 22186  22219U 22249M 22261M 22282M
             22393  22433  22441M 22450M 22459M 22465M 22526M 22532  22556M 22618  22658  22666M 22675M 22684M 22690M
             22714M 22720  22744M 22792  22832  22840M 22849M 22858M 22864M 22959M 23006  23027M 23033  23057M 23100
             23175M 23226M 23297M 23339  23367  23392M 23434  23462  23490M 23544  23579  23660M 24048D 24050M 24050
             24051M 24052U 24053M 24053N 24054  24085D 24087M 24087  24088M 24089U 24090M 24090N 24091  24126M 24174
             24209  24254M 24669D 24671M 24671  24672M 24673U 24674M 24674N 24675  24706D 24708M 24708  24709M 24710U
             24711M 24711N 24712  24747M 24793  24828  24909M 25288D 25290M 25290  25291M 25292U 25293M 25293N 25294
             25325D 25327M 25327  25328M 25329U 25330M 25330N 25331  25366M 25414  25449  25494M 25909D 25911M 25911
             25912M 25913U 25914M 25914N 25915  25946D 25948M 25948  25949M 25950U 25951M 25951N 25952  25987M 26533
             26559M 26718M 26729U 26752  26792M 26822  26855U 26947M 26958U 26990  27023U 27061M 27073M 27094M 27105U
             27151  27184U 27186M 27301M 27312U 27346  27384M 27387M 27390M 27448  27470  27472M 27472N 27554M 27567M
             27584M 27587M 27674M 27713  27793M 27794M 27796M 27887M 27930  27970M 27982  27988M 28076M 28143  28198
             28200M 28207M 28219  28221M 28228M 28280M 28317  28364M 28385  28548M 28602M 28607  28630M 28684M 28689
             28729M 28792  28877M 28905  29031M 29062  29089M 29103  29111M 29120M 29129M 29129  29136  29169M 29200
             29227M 29241  29249M 29258M 29267M 29267  29274  29307M 29335  29374M 29473M 29726  29770M 29792  29836M
             29858  29902M 29924  29968M 29990  30034M 30056  30100M 30122  30166M 30188  30232M 30254  30298M 30320
             30407M 30430  30477M 30499  30606M 30628  30672M 30694  30738M 30760  30804M
     3(3)      970U  2099   6917   7185M  7238M  7276M  7345   7464M  7534   7811M  7880   7991   7992M  8020M  8108
              8239   8240M  8245   8268M  8318   8433   8494M  8553   8755M  8802   8893M  8938   9022M  9025   9037M
              9042   9044M  9046   9062   9079   9118M  9207   9756M  9756   9793M  9793N  9819   9829M  9829   9850M
              9870   9900M  9900   9930   9993M  9993N 10020M 10020  10051  10082  10216M 10368  10423  10440M 10446
             10461M 10510  10580  10641M 10647  10662M 10714  11030M 11065  11241M 11275  11451M 11521  11561M 11575M
             11575  11581  11601M 11691M 11742  11832M 11873  11968M 12004  12047M 12078  12287M 12335  12361M 12380
             12401M 12434  12495M 12533  12758M 12792  13015M 13065  13188M 13231  13339M 13384  13522M 13587  13666M
             13730  13907M 13953  14032M 14075  14378M 14446  14525M 14567  14744M 14819  14863M 14883  14928M 14948
             14992M 15025  15104M 15147  15324M 15399  15443M 15463  15508M 15528  15572M 15605  15684M 15727  15904M
             15979  16023M 16043  16088M 16108  16152M 16264  16700M 16953  17003M 17024  17153M 17174  17300M 17321
             17514M 17535  17753M 17774  17992M 18013  18123M 18144  18225M 18246  18327M 18348  18394M 18415  18506M
             18527  18618M 18639  18680M 18749  18860M 19005  19139M 19160  19294M 19315  19356M 19377  19420M 19441
             19488M 19509  19553M 19595  19795M 19885  20139M 20140  20144M 20153M 20153  20160  20294M 20369  20410M
             20430  20595M 20658  21067M 21137  21178M 21199  21240M 21260  21429M 21497  21642M 21678  21763M 21805
             21890M 21929  22014M 22054  22151M 22186  22282M 22393  22434  22527M 22532  22556M 22618  22659  22715M
             22720  22744M 22792  22833  22960M 23007  23028M 23033  23057M 23100  23297M 23339  23392M 23434  23490M
             23544  23798M 23799  23831M 23832  23864M 23865  23897M 23898  23930M 23931  23963M 23964  24126M 24174
             24419M 24420  24452M 24453  24485M 24486  24518M 24519  24551M 24552  24584M 24585  24747M 24793  25038M
             25039  25071M 25072  25104M 25105  25137M 25138  25170M 25171  25203M 25204  25366M 25414  25659M 25660
             25692M 25693  25725M 25726  25758M 25759  25791M 25792  25824M 25825  25987M 26533  26718M 26752  26792M
             26822  26860M 26861M 26865  26867  26882M 26883M 26947M 26990  27094M 27151  27301M 27346  27385M 27387M
             27391M 27405  27449  27474M 27476M 27486  27493M 27508M 27508  27538M 27538  27556M 27569M 27585M 27586M
             27587M 27674M 27713  27887M 27930  27971M 27972M 27988M 28076M 28143  28280M 28317  28364M 28385  28463M
             28463  28547M 28607M 28691M 28692M 28693  28729M 28792  28877M 28905  29031M 29062  29169M 29200  29307M
             29335  29473M 29726  29770M 29792  29836M 29858  29902M 29924  29968M 29990  30034M 30056  30100M 30122
             30166M 30188  30232M 30254  30298M 30320  30407M 30430  30477M 30499  30606M 30628  30672M 30694  30738M
             30760  30804M
     4(4)      966U  2099   6917   7239M  7276M  7345   7464M  7534   7811M  7880   7992M  8020M  8108   8240M  8245
              8268M  8318   8431M  8432M  8433M  8443M  8443   8451M  8453   8494M  8553   8893M  8938   8979M  9077M
              9086   9118M  9207   9352M  9480M  9527M  9527   9552M  9553M  9554   9605M  9720M  9751M  9800M  9825M
              9853M  9892M  9892   9974M  9975M  9976  10216M 10368  10461M 10510  10662M 10714  11030M 11065  11241M
             11275  11451M 11521  11581M 11584  11596M 11601  11604M 11606  11650N 11691M 11742  11832M 11873  11968M
             12004  12047M 12078  12139M 12236M 12287M 12335  12401M 12434  12495M 12533  12758M 12792  13015M 13065
             13188M 13231  13339M 13384  13428M 13448M 13522M 13587  13666M 13730  13787M 13788  13851M 13907M 13953
             14032M 14075  14132M 14133  14188M 14378M 14446  14525M 14567  14615M 14695  14744M 14819  14863M 14883
             14909M 14913  14928M 14948  14992M 15025  15104M 15147  15195M 15275  15324M 15399  15443M 15463  15489M
             15493  15508M 15528  15572M 15605  15684M 15727  15775M 15855  15904M 15979  16023M 16043  16069M 16073
             16088M 16108  16152M 16264  16700M 16953  17003M 17024  17153M 17174  17300M 17321  17514M 17535  17753M
             17774  17992M 18013  18123M 18144  18225M 18246  18327M 18348  18394M 18415  18506M 18527  18618M 18639
             18680M 18749  18860M 19005  19139M 19160  19294M 19315  19356M 19377  19420M 19441  19488M 19509  19553M
1         (SCAN2025) (12:54) (15MAR04) General Purpose Register Cross Reference                                             Page  216
             19595  19795M 19885  20294M 20369  20410M 20430  20595M 20658  21067M 21137  21178M 21199  21240M 21260
             21429M 21497  21642M 21678  21763M 21805  21842  21890M 21929  22014M 22054  22151M 22186  22282M 22393
             22435  22528M 22532  22556M 22618  22660  22716M 22720  22744M 22792  22834  23029M 23033  23057M 23100
             23163M 23214M 23297M 23339  23367M 23370M 23392M 23434  23462M 23468M 23490M 23544  24126M 24174  24747M
             24793  25366M 25414  25987M 26533  26718M 26752  26792M 26822  26884M 26885M 26947M 26990  27094M 27151
             27301M 27346  27387M 27448M 27449M 27451M 27470M 27582M 27587M 27588M 27674M 27713  27887M 27930  27968M
             27982  27988M 27993M 28076M 28143  28280M 28317  28364M 28385  28461M 28461  28629M 28689M 28692  28729M
             28792  28877M 28905  29031M 29062  29169M 29200  29307M 29335  29473M 29726  29770M 29792  29836M 29858
             29902M 29924  29968M 29990  30034M 30056  30100M 30122  30166M 30188  30232M 30254  30298M 30320  30407M
             30430  30477M 30499  30606M 30628  30672M 30694  30738M 30760  30804M
     5(5)      962U  2099   6917   7276M  7345   7464M  7534   7811M  7880   7992M  8020M  8108   8240M  8245   8268M
              8318   8434M  8494M  8553   8893M  8938   9118M  9207   9351M  9355M  9357   9479M  9483M  9485   9531M
              9531   9551M  9554M  9581M  9581   9586   9604M  9608M  9610   9719M  9723M  9725   9752M  9770   9802M
              9896M  9896   9973M  9976M 10026M 10057M 10088M 10109M 10109  10114  10125M 10125  10138  10216M 10368
             10461M 10510  10662M 10714  11030M 11065  11241M 11275  11451M 11521  11691M 11742  11832M 11873  11968M
             12004  12047M 12078  12140M 12152  12173M 12212M 12230  12236M 12287M 12335  12401M 12434  12495M 12533
             12758M 12792  13015M 13065  13188M 13231  13339M 13384  13429M 13441  13447  13448M 13522M 13587  13666M
             13730  13852M 13907M 13953  14032M 14075  14189M 14378M 14446  14525M 14567  14616M 14696  14744M 14819
             14863M 14883  14910M 14913  14928M 14948  14992M 15025  15104M 15147  15196M 15276  15324M 15399  15443M
             15463  15490M 15493  15508M 15528  15572M 15605  15684M 15727  15776M 15856  15904M 15979  16023M 16043
             16070M 16073  16088M 16108  16152M 16264  16700M 16953  17003M 17024  17153M 17174  17300M 17321  17514M
             17535  17753M 17774  17992M 18013  18123M 18144  18225M 18246  18327M 18348  18394M 18415  18506M 18527
             18618M 18639  18680M 18749  18860M 19005  19139M 19160  19294M 19315  19356M 19377  19420M 19441  19488M
             19509  19553M 19595  19795M 19885  20294M 20369  20410M 20430  20595M 20658  21067M 21137  21178M 21199
             21240M 21260  21429M 21497  21642M 21678  21763M 21805  21843  21890M 21929  22014M 22054  22151M 22186
             22282M 22393  22436  22529M 22532  22556M 22618  22661  22717M 22720  22744M 22792  22835  23030M 23033
             23057M 23100  23162M 23166M 23168  23213M 23217M 23219  23297M 23339  23368M 23370M 23392M 23434  23463M
             23468M 23490M 23544  24126M 24174  24747M 24793  25366M 25414  25987M 26533  26718M 26752  26792M 26822
             26886M 26890M 26899M 26899  26906  26947M 26990  27094M 27151  27301M 27346  27386M 27387M 27471M 27576
             27583M 27587M 27589M 27599M 27599  27607M 27609  27674M 27713  27887M 27930  27969M 27988M 27994M 28004M
             28004  28012M 28014  28076M 28143  28280M 28317  28364M 28385  28457M 28457  28693N 28694M 28701  28702
             28729M 28792  28877M 28905  29031M 29062  29088M 29169M 29200  29226M 29307M 29335  29473M 29726  29770M
             29792  29836M 29858  29902M 29924  29968M 29990  30034M 30056  30100M 30122  30166M 30188  30232M 30254
             30298M 30320  30407M 30430  30477M 30499  30606M 30628  30672M 30694  30738M 30760  30804M
     6(6)      958U  2099   6917   7276M  7345   7464M  7534   7811M  7880   7992M  8020M  8108   8240M  8245   8268M
              8318   8494M  8553   8586U  8588M  8893M  8904U  8938   8971U  8973M  9118M  9129U  9207   9250U  9252M
             10216M 10227U 10368  10420M 10441  10461M 10510  10577M 10642  10662M 10714  11030M 11065  11241M 11275
             11451M 11521  11691M 11742  11832M 11873  11968M 12004  12047M 12078  12287M 12335  12401M 12434  12495M
             12533  12758M 12792  13015M 13065  13188M 13231  13339M 13384  13522M 13587  13666M 13730  13907M 13953
             14032M 14075  14378M 14446  14525M 14567  14744M 14819  14863M 14883  14928M 14948  14992M 15025  15104M
             15147  15324M 15399  15443M 15463  15508M 15528  15572M 15605  15684M 15727  15904M 15979  16023M 16043
             16088M 16108  16152M 16264  16309M 16317U 16700M 16953  17003M 17024  17153M 17174  17300M 17321  17514M
             17535  17753M 17774  17992M 18013  18123M 18144  18225M 18246  18327M 18348  18394M 18415  18506M 18527
             18618M 18639  18680M 18749  18860M 19005  19139M 19160  19294M 19315  19356M 19377  19420M 19441  19488M
             19509  19553M 19564U 19595  19795M 19885  19923M 19931U 20294M 20369  20410M 20430  20595M 20606U 20658
             20703M 20711U 21067M 21137  21178M 21199  21240M 21260  21429M 21440U 21497  21642M 21678  21763M 21805
             21890M 21929  22014M 22054  22151M 22186  22228U 22282M 22293U 22393  22556M 22618  22744M 22792  23057M
             23100  23297M 23339  23392M 23434  23490M 23544  23577U 23579M 24126M 24137U 24174  24207U 24209M 24747M
             24758U 24793  24826U 24828M 25366M 25377U 25414  25447U 25449M 25987M 25998U 26533  26718M 26752  26792M
             26822  26947M 26990  27094M 27151  27301M 27346  27372M 27380U 27674M 27685U 27713  27887M 27930  27956M
             27964U 28076M 28087U 28143  28280M 28317  28364M 28385  28453M 28700  28729M 28792  28818M 28819M 28821M
             28855M 28877M 28905  28972M 28973M 28975M 29009M 29031M 29062  29169M 29200  29307M 29335  29473M 29726
             29770M 29792  29836M 29858  29902M 29924  29968M 29990  30034M 30056  30100M 30122  30166M 30188  30232M
             30254  30298M 30320  30407M 30430  30477M 30499  30606M 30628  30672M 30694  30738M 30760  30804M
     7(7)      954U  2092M  2092   2093B  2099   2105B  6917   6923M  6935U  7268U  7276M  7345   7351M  7363U  7456U
              7464M  7534   7540M  7552U  7803U  7811M  7880   7886M  7898U  8012U  8020M  8108   8114M  8126U  8260U
              8268M  8318   8323M  8335U  8486U  8494M  8553   8558M  8570U  8885U  8893M  8938   8943M  8955U  9110U
              9118M  9207   9213M  9225U 10208U 10216M 10368  10373M 10385U 10453U 10461M 10510  10515M 10527U 10654U
             10662M 10714  10719M 10731U 11022U 11030M 11065  11070M 11082U 11233U 11241M 11275  11280M 11292U 11443U
1         (SCAN2025) (12:54) (15MAR04) General Purpose Register Cross Reference                                             Page  217
             11451M 11521  11526M 11538U 11683U 11691M 11742  11747M 11759U 11824U 11832M 11873  11878M 11890U 11960U
             11968M 12004  12009M 12021U 12039U 12047M 12078  12083M 12095U 12279U 12287M 12335  12340M 12352U 12393U
             12401M 12434  12439M 12451U 12487U 12495M 12533  12538M 12550U 12750U 12758M 12792  12797M 12809U 13007U
             13015M 13065  13070M 13082U 13180U 13188M 13231  13236M 13248U 13331U 13339M 13384  13389M 13401U 13514U
             13522M 13587  13592M 13604U 13658U 13666M 13730  13736M 13748U 13899U 13907M 13953  13958M 13970U 14024U
             14032M 14075  14081M 14093U 14370U 14378M 14446  14451M 14463U 14517U 14525M 14567  14573M 14585U 14736U
             14744M 14819  14824M 14836U 14855U 14863M 14883  14888M 14900U 14920U 14928M 14948  14953M 14965U 14984U
             14992M 15025  15030M 15042U 15096U 15104M 15147  15153M 15165U 15316U 15324M 15399  15404M 15416U 15435U
             15443M 15463  15468M 15480U 15500U 15508M 15528  15533M 15545U 15564U 15572M 15605  15610M 15622U 15676U
             15684M 15727  15733M 15745U 15896U 15904M 15979  15984M 15996U 16015U 16023M 16043  16048M 16060U 16080U
             16088M 16108  16113M 16125U 16144U 16152M 16264  16270M 16282U 16692U 16700M 16953  16958M 16970U 16995U
             17003M 17024  17029M 17041U 17145U 17153M 17174  17179M 17191U 17292U 17300M 17321  17326M 17338U 17506U
             17514M 17535  17540M 17552U 17745U 17753M 17774  17779M 17791U 17984U 17992M 18013  18018M 18030U 18115U
             18123M 18144  18149M 18161U 18217U 18225M 18246  18251M 18263U 18319U 18327M 18348  18353M 18365U 18386U
             18394M 18415  18420M 18432U 18498U 18506M 18527  18532M 18544U 18610U 18618M 18639  18644M 18656U 18672U
             18680M 18749  18754M 18766U 18852U 18860M 19005  19010M 19022U 19131U 19139M 19160  19165M 19177U 19286U
             19294M 19315  19320M 19332U 19348U 19356M 19377  19382M 19394U 19412U 19420M 19441  19446M 19458U 19480U
             19488M 19509  19514M 19526U 19545U 19553M 19595  19600M 19612U 19787U 19795M 19885  19891M 19903U 20286U
             20294M 20369  20374M 20386U 20402U 20410M 20430  20435M 20447U 20587U 20595M 20658  20664M 20676U 21059U
             21067M 21137  21142M 21154U 21170U 21178M 21199  21204M 21216U 21232U 21240M 21260  21265M 21277U 21421U
             21429M 21497  21502M 21514U 21634U 21642M 21678  21683M 21695U 21755U 21763M 21805  21810M 21822U 21882U
             21890M 21929  21934M 21946U 22006U 22014M 22054  22059M 22071U 22143U 22151M 22186  22191M 22203U 22274U
             22282M 22393  22399M 22411U 22548U 22556M 22618  22624M 22636U 22736U 22744M 22792  22798M 22810U 23049U
             23057M 23100  23105M 23117U 23289U 23297M 23339  23344M 23356U 23384U 23392M 23434  23439M 23451U 23482U
             23490M 23544  23549M 23561U 24118U 24126M 24174  24179M 24191U 24739U 24747M 24793  24798M 24810U 25358U
             25366M 25414  25419M 25431U 25979U 25987M 26533  26538M 26550U 26710U 26718M 26752  26757M 26769U 26784U
             26792M 26822  26827M 26839U 26939U 26947M 26990  26995M 27007U 27086U 27094M 27151  27156M 27168U 27293U
             27301M 27346  27351M 27363U 27666U 27674M 27713  27718M 27730U 27879U 27887M 27930  27935M 27947U 28068U
             28076M 28143  28149M 28161U 28272U 28280M 28317  28322M 28334U 28356U 28364M 28385  28390M 28402U 28721U
             28729M 28792  28797M 28809U 28869U 28877M 28905  28910M 28922U 29023U 29031M 29062  29067M 29079U 29161U
             29169M 29200  29205M 29217U 29299U 29307M 29335  29340M 29352U 29465U 29473M 29726  29731M 29743U 29762U
             29770M 29792  29797M 29809U 29828U 29836M 29858  29863M 29875U 29894U 29902M 29924  29929M 29941U 29960U
             29968M 29990  29995M 30007U 30026U 30034M 30056  30061M 30073U 30092U 30100M 30122  30127M 30139U 30158U
             30166M 30188  30193M 30205U 30224U 30232M 30254  30259M 30271U 30290U 30298M 30320  30325M 30337U 30399U
             30407M 30430  30435M 30447U 30469U 30477M 30499  30504M 30516U 30598U 30606M 30628  30633M 30645U 30664U
             30672M 30694  30699M 30711U 30730U 30738M 30760  30765M 30777U 30796U 30804M
     8(8)      950U  2099   6917   6919M  6949U  7185   7256   7263U  7272   7276M  7345   7347M  7377U  7444   7451U
              7460   7464M  7534   7536M  7566U  7791   7798U  7807   7811M  7880   7882M  7912U  8000   8007U  8016
              8020M  8108   8110M  8140U  8255U  8264   8268M  8318   8319M  8490   8494M  8553   8554M  8889   8893M
              8938   8939M  9114   9118M  9207   9209M  9239U 10203U 10212  10216M 10368  10369M 10446  10457  10461M
             10510  10511M 10647  10658  10662M 10714  10715M 11015  11026  11030M 11065  11066M 11226  11237  11241M
             11275  11276M 11436  11447  11451M 11521  11522M 11672  11687  11691M 11742  11743M 11828  11832M 11873
             11874M 11932  11964  11968M 12004  12005M 12043  12047M 12078  12079M 12251  12283  12287M 12335  12336M
             12382  12397  12401M 12434  12435M 12491  12495M 12533  12534M 12743  12754  12758M 12792  12793M 13000
             13011  13015M 13065  13066M 13151  13184  13188M 13231  13232M 13302  13335  13339M 13384  13385M 13463
             13518  13522M 13587  13588M 13646  13662  13666M 13730  13732M 13762U 13886  13894U 13903  13907M 13953
             13954M 14012  14028  14032M 14075  14077M 14107U 14350  14365U 14374  14378M 14446  14447M 14505  14521
             14525M 14567  14569M 14599U 14702  14731U 14740  14744M 14819  14820M 14859  14863M 14883  14884M 14913
             14924  14928M 14948  14949M 14988  14992M 15025  15026M 15084  15100  15104M 15147  15149M 15179U 15282
             15311U 15320  15324M 15399  15400M 15439  15443M 15463  15464M 15493  15504  15508M 15528  15529M 15568
             15572M 15605  15606M 15664  15680  15684M 15727  15729M 15759U 15862  15891U 15900  15904M 15979  15980M
             16019  16023M 16043  16044M 16073  16084  16088M 16108  16109M 16148  16152M 16264  16266M 16296U 16675
             16687U 16696  16700M 16953  16954M 16999  17003M 17024  17025M 17149  17153M 17174  17175M 17296  17300M
             17321  17322M 17510  17514M 17535  17536M 17749  17753M 17774  17775M 17988  17992M 18013  18014M 18119
             18123M 18144  18145M 18221  18225M 18246  18247M 18323  18327M 18348  18349M 18390  18394M 18415  18416M
             18502  18506M 18527  18528M 18614  18618M 18639  18640M 18676  18680M 18749  18750M 18856  18860M 19005
             19006M 19135  19139M 19160  19161M 19290  19294M 19315  19316M 19352  19356M 19377  19378M 19416  19420M
             19441  19442M 19484  19488M 19509  19510M 19549  19553M 19595  19596M 19780N 19791  19795M 19885  19887M
             19917U 20266  20281U 20290  20294M 20369  20370M 20406  20410M 20430  20431M 20591  20595M 20658  20660M
1         (SCAN2025) (12:54) (15MAR04) General Purpose Register Cross Reference                                             Page  218
             20690U 21040  21054U 21063  21067M 21137  21138M 21174  21178M 21199  21200M 21236  21240M 21260  21261M
             21425  21429M 21497  21498M 21638  21642M 21678  21679M 21759  21763M 21805  21806M 21886  21890M 21929
             21930M 22010  22014M 22054  22055M 22147  22151M 22186  22187M 22278  22282M 22393  22395M 22425U 22532
             22543U 22552  22556M 22618  22620M 22650U 22720  22731U 22740  22744M 22792  22794M 22824U 23033  23044U
             23053  23057M 23100  23101M 23282  23293  23297M 23339  23340M 23388  23392M 23434  23435M 23486  23490M
             23544  23545M 24122  24126M 24174  24175M 24743  24747M 24793  24794M 25362  25366M 25414  25415M 25983
             25987M 26533  26534M 26714  26718M 26752  26753M 26788  26792M 26822  26823M 26943  26947M 26990  26991M
             27090  27094M 27151  27152M 27297  27301M 27346  27347M 27655  27670  27674M 27713  27714M 27883  27887M
             27930  27931M 28057  28072  28076M 28143  28145M 28175U 28267U 28276  28280M 28317  28318M 28349  28360
             28364M 28385  28386M 28714  28725  28729M 28792  28793M 28873  28877M 28905  28906M 29027  29031M 29062
             29063M 29165  29169M 29200  29201M 29303  29307M 29335  29336M 29469  29473M 29726  29727M 29766  29770M
             29792  29793M 29832  29836M 29858  29859M 29898  29902M 29924  29925M 29964  29968M 29990  29991M 30030
             30034M 30056  30057M 30096  30100M 30122  30123M 30162  30166M 30188  30189M 30228  30232M 30254  30255M
             30294  30298M 30320  30321M 30403  30407M 30430  30431M 30462N 30473  30477M 30499  30500M 30602  30606M
             30628  30629M 30668  30672M 30694  30695M 30734  30738M 30760  30761M 30800  30804M
     9(9)      946U  2099
    10(A)      942U  2099
    11(B)      938U  1170U  2099
    12(C)      934U  1149U  2099
    13(D)      930U  2099   6914   6917   6919   6920M  6920   7272M  7276   7278   7342   7345   7347   7348M  7348
              7382   7383M  7383   7397   7398M  7398   7405M  7406   7418   7419M  7419   7426M  7427   7435M  7436
              7460M  7464   7466   7531   7534   7536   7537M  7537   7807M  7811   7813   7877   7880   7882   7883M
              7883   8016M  8020   8022   8105   8108   8110   8111M  8111   8264M  8268   8270   8315   8318   8319
              8320M  8320   8363   8364M  8364   8478M  8479   8490M  8494   8496   8550   8553   8554   8555M  8555
              8889M  8893   8895   8935   8938   8939   8940M  8940   8975   8976M  8976   9102M  9103   9114M  9118
              9120   9204   9207   9209   9210M  9210   9254   9255M  9255  10195M 10196  10212M 10216  10218  10365
             10368  10369  10370M 10370  10457M 10461  10463  10507  10510  10511  10512M 10512  10658M 10662  10664
             10711  10714  10715  10716M 10716  11026M 11030  11032  11062  11065  11066  11067M 11067  11237M 11241
             11243  11272  11275  11276  11277M 11277  11447M 11451  11453  11518  11521  11522  11523M 11523  11687M
             11691  11693  11739  11742  11743  11744M 11744  11828M 11832  11834  11870  11873  11874  11875M 11875
             11964M 11968  11970  12001  12004  12005  12006M 12006  12043M 12047  12049  12075  12078  12079  12080M
             12080  12283M 12287  12289  12332  12335  12336  12337M 12337  12397M 12401  12403  12431  12434  12435
             12436M 12436  12491M 12495  12497  12530  12533  12534  12535M 12535  12754M 12758  12760  12789  12792
             12793  12794M 12794  13011M 13015  13017  13062  13065  13066  13067M 13067  13184M 13188  13190  13228
             13231  13232  13233M 13233  13335M 13339  13341  13381  13384  13385  13386M 13386  13518M 13522  13524
             13584  13587  13588  13589M 13589  13616  13617M 13617  13623M 13624  13662M 13666  13668  13727  13730
             13732  13733M 13733  13903M 13907  13909  13950  13953  13954  13955M 13955  13982  13983M 13983  13989M
             13990  14028M 14032  14034  14072  14075  14077  14078M 14078  14374M 14378  14380  14443  14446  14447
             14448M 14448  14475  14476M 14476  14482M 14483  14521M 14525  14527  14564  14567  14569  14570M 14570
             14629  14630  14631  14633M 14633  14646M 14647  14648  14649  14740M 14744  14746  14816  14819  14820
             14821M 14821  14859M 14863  14865  14880  14883  14884  14885M 14885  14924M 14928  14930  14945  14948
             14949  14950M 14950  14988M 14992  14994  15022  15025  15026  15027M 15027  15054  15055M 15055  15061M
             15062  15100M 15104  15106  15144  15147  15149  15150M 15150  15209  15210  15211  15213M 15213  15226M
             15227  15228  15229  15320M 15324  15326  15396  15399  15400  15401M 15401  15439M 15443  15445  15460
             15463  15464  15465M 15465  15504M 15508  15510  15525  15528  15529  15530M 15530  15568M 15572  15574
             15602  15605  15606  15607M 15607  15634  15635M 15635  15641M 15642  15680M 15684  15686  15724  15727
             15729  15730M 15730  15789  15790  15791  15793M 15793  15806M 15807  15808  15809  15900M 15904  15906
             15976  15979  15980  15981M 15981  16019M 16023  16025  16040  16043  16044  16045M 16045  16084M 16088
             16090  16105  16108  16109  16110M 16110  16148M 16152  16154  16261  16264  16266  16267M 16267  16487
             16489M 16489  16560  16561  16562  16564M 16564  16577M 16578  16579  16580  16649M 16696M 16700  16702
             16950  16953  16954  16955M 16955  16999M 17003  17005  17021  17024  17025  17026M 17026  17149M 17153
             17155  17171  17174  17175  17176M 17176  17296M 17300  17302  17318  17321  17322  17323M 17323  17510M
             17514  17516  17532  17535  17536  17537M 17537  17749M 17753  17755  17771  17774  17775  17776M 17776
             17988M 17992  17994  18010  18013  18014  18015M 18015  18119M 18123  18125  18141  18144  18145  18146M
             18146  18221M 18225  18227  18243  18246  18247  18248M 18248  18323M 18327  18329  18345  18348  18349
             18350M 18350  18390M 18394  18396  18412  18415  18416  18417M 18417  18502M 18506  18508  18524  18527
             18528  18529M 18529  18614M 18618  18620  18636  18639  18640  18641M 18641  18676M 18680  18682  18746
             18749  18750  18751M 18751  18780  18782M 18782  18795  18796  18797  18799M 18799  18812M 18813  18814
             18815  18838M 18856M 18860  18862  19002  19005  19006  19007M 19007  19041  19042  19043  19045M 19045
1         (SCAN2025) (12:54) (15MAR04) General Purpose Register Cross Reference                                             Page  219
             19058M 19059  19060  19061  19135M 19139  19141  19157  19160  19161  19162M 19162  19196  19197  19198
             19200M 19200  19213M 19214  19215  19216  19290M 19294  19296  19312  19315  19316  19317M 19317  19352M
             19356  19358  19374  19377  19378  19379M 19379  19416M 19420  19422  19438  19441  19442  19443M 19443
             19484M 19488  19490  19506  19509  19510  19511M 19511  19549M 19553  19555  19592  19595  19596  19597M
             19597  19791M 19795  19797  19882  19885  19887  19888M 19888  20010  20011  20012  20014M 20014  20024M
             20025  20026  20027  20103  20104  20105  20107M 20107  20120M 20121  20122  20123  20290M 20294  20296
             20366  20369  20370  20371M 20371  20406M 20410  20412  20427  20430  20431  20432M 20432  20468  20469
             20470  20472M 20472  20484M 20485  20486  20487  20591M 20595  20597  20655  20658  20660  20661M 20661
             20763  20765M 20765  20776  20777  20778  20780M 20780  20793M 20794  20795  20796  20884M 21063M 21067
             21069  21134  21137  21138  21139M 21139  21174M 21178  21180  21196  21199  21200  21201M 21201  21236M
             21240  21242  21257  21260  21261  21262M 21262  21296  21297  21298  21300M 21300  21312M 21313  21314
             21315  21425M 21429  21431  21494  21497  21498  21499M 21499  21638M 21642  21644  21675  21678  21679
             21680M 21680  21759M 21763  21765  21802  21805  21806  21807M 21807  21886M 21890  21892  21926  21929
             21930  21931M 21931  22010M 22014  22016  22051  22054  22055  22056M 22056  22147M 22151  22153  22183
             22186  22187  22188M 22188  22278M 22282  22284  22390  22393  22395  22396M 22396  22552M 22556  22558
             22615  22618  22620  22621M 22621  22740M 22744  22746  22789  22792  22794  22795M 22795  23053M 23057
             23059  23097  23100  23101  23102M 23102  23293M 23297  23299  23336  23339  23340  23341M 23341  23388M
             23392  23394  23431  23434  23435  23436M 23436  23486M 23490  23492  23541  23544  23545  23546M 23546
             24122M 24126  24128  24171  24174  24175  24176M 24176  24743M 24747  24749  24790  24793  24794  24795M
             24795  25362M 25366  25368  25411  25414  25415  25416M 25416  25983M 25987  25989  26530  26533  26534
             26535M 26535  26714M 26718  26720  26749  26752  26753  26754M 26754  26788M 26792  26794  26819  26822
             26823  26824M 26824  26943M 26947  26949  26987  26990  26991  26992M 26992  27090M 27094  27096  27148
             27151  27152  27153M 27153  27297M 27301  27303  27343  27346  27347  27348M 27348  27670M 27674  27676
             27710  27713  27714  27715M 27715  27883M 27887  27889  27927  27930  27931  27932M 27932  28072M 28076
             28078  28140  28143  28145  28146M 28146  28182  28183  28184  28186M 28186  28198  28199M 28199  28206M
             28207  28219  28220M 28220  28227M 28228  28257M 28258  28259  28260  28276M 28280  28282  28314  28317
             28318  28319M 28319  28360M 28364  28366  28382  28385  28386  28387M 28387  28450  28451M 28451  28706M
             28707  28725M 28729  28731  28789  28792  28793  28794M 28794  28873M 28877  28879  28902  28905  28906
             28907M 28907  29027M 29031  29033  29059  29062  29063  29064M 29064  29165M 29169  29171  29197  29200
             29201  29202M 29202  29303M 29307  29309  29332  29335  29336  29337M 29337  29385  29386  29387  29389M
             29389  29402M 29403  29404  29405  29469M 29473  29475  29723  29726  29727  29728M 29728  29766M 29770
             29772  29789  29792  29793  29794M 29794  29832M 29836  29838  29855  29858  29859  29860M 29860  29898M
             29902  29904  29921  29924  29925  29926M 29926  29964M 29968  29970  29987  29990  29991  29992M 29992
             30030M 30034  30036  30053  30056  30057  30058M 30058  30096M 30100  30102  30119  30122  30123  30124M
             30124  30162M 30166  30168  30185  30188  30189  30190M 30190  30228M 30232  30234  30251  30254  30255
             30256M 30256  30294M 30298  30300  30317  30320  30321  30322M 30322  30403M 30407  30409  30427  30430
             30431  30432M 30432  30473M 30477  30479  30496  30499  30500  30501M 30501  30602M 30606  30608  30625
             30628  30629  30630M 30630  30668M 30672  30674  30691  30694  30695  30696M 30696  30734M 30738  30740
             30757  30760  30761  30762M 30762  30800M 30804  30806
    14(E)      926U  2099   2100M  2114   2115M  2116B  2118M  2119B  2139M  2140B  2144M  2145B  2147M  2148B  2150M
              2151B  2153M  2154B  2156M  2157M  2157B  2163   6914   7054M  7055M  7055B  7058M  7059M  7059B  7062M
              7063M  7063B  7103M  7104M  7104B  7107M  7108M  7108B  7111M  7112M  7112B  7188M  7189M  7189B  7242M
              7243M  7243B  7278M  7281B  7342   7389M  7391N  7402M  7403M  7403B  7410M  7412N  7423M  7424M  7424B
              7439M  7440M  7440B  7466M  7469B  7531   7647M  7649M  7649N  7650M  7650B  7678M  7679M  7679B  7724M
              7725M  7725B  7813M  7816B  7877   7976M  7994M  7994N  7995M  7995B  8022M  8025B  8105   8229M  8242M
              8242N  8243M  8243B  8270M  8273B  8315   8496M  8499B  8550   8618M  8619M  8619B  8624M  8625M  8625B
              8774M  8775M  8775B  8793M  8794M  8794B  8820M  8821M  8821B  8895M  8898B  8935   9120M  9123B  9204
             10218M 10221B 10365  10435M 10436M 10436B 10463M 10466B 10507  10608M 10609M 10609B 10632M 10633M 10633B
             10664M 10667B 10711  10746M 10747M 10747B 10807M 10808M 10808B 10822M 10823M 10823B 10866M 10867M 10867B
             10881M 10882M 10882B 10925M 10926M 10926B 10940M 10941M 10941B 11032M 11035B 11062  11097M 11098M 11098B
             11195M 11196M 11196B 11243M 11246B 11272  11307M 11308M 11308B 11405M 11406M 11406B 11453M 11456B 11518
             11693M 11696B 11739  11834M 11837B 11870  11970M 11973B 12001  12049M 12052B 12075  12141M 12236M 12289M
             12292B 12332  12364M 12365M 12365B 12403M 12406B 12431  12497M 12500B 12530  12628M 12629M 12629B 12666M
             12667M 12667B 12703M 12704M 12704B 12760M 12763B 12789  12885M 12886M 12886B 12960M 12961M 12961B 13017M
             13020B 13062  13190M 13193B 13228  13341M 13344B 13381  13430M 13448M 13524M 13527B 13584  13620M 13621M
             13621B 13643M 13644M 13644B 13668M 13671B 13727  13793M 13794M 13794B 13797M 13798M 13798B 13801M 13802M
             13802B 13855M 13856M 13856B 13909M 13912B 13950  13986M 13987M 13987B 14009M 14010M 14010B 14034M 14037B
             14072  14138M 14139M 14139B 14142M 14143M 14143B 14146M 14147M 14147B 14192M 14193M 14193B 14217M 14218M
             14218B 14260M 14261M 14261B 14299M 14300M 14300B 14336M 14337M 14337B 14380M 14383B 14443  14479M 14480M
1         (SCAN2025) (12:54) (15MAR04) General Purpose Register Cross Reference                                             Page  220
             14480B 14502M 14503M 14503B 14527M 14530B 14564  14628M 14629  14630  14631  14636M 14637  14640M 14641M
             14641B 14644M 14647  14648  14649  14746M 14749B 14816  14847M 14848M 14848B 14865M 14868B 14880  14930M
             14933B 14945  14976M 14977M 14977B 14994M 14997B 15022  15058M 15059M 15059B 15081M 15082M 15082B 15106M
             15109B 15144  15208M 15209  15210  15211  15216M 15217  15220M 15221M 15221B 15224M 15227  15228  15229
             15326M 15329B 15396  15427M 15428M 15428B 15445M 15448B 15460  15510M 15513B 15525  15556M 15557M 15557B
             15574M 15577B 15602  15638M 15639M 15639B 15661M 15662M 15662B 15686M 15689B 15724  15788M 15789  15790
             15791  15796M 15797  15800M 15801M 15801B 15804M 15807  15808  15809  15906M 15909B 15976  16007M 16008M
             16008B 16025M 16028B 16040  16090M 16093B 16105  16136M 16137M 16137B 16154M 16157B 16261  16486M 16487
             16495M 16496N 16511N 16526N 16527N 16528  16528  16529N 16530N 16543N 16547M 16547  16559M 16560  16561
             16562  16567M 16568  16571M 16572M 16572B 16575M 16578  16579  16580  16647M 16650  16702M 16705B 16950
             16982M 16983M 16983B 16987M 16988M 16988B 17005M 17008B 17021  17128M 17129M 17129B 17137M 17138M 17138B
             17155M 17158B 17171  17275M 17276M 17276B 17284M 17285M 17285B 17302M 17305B 17318  17393M 17394M 17394B
             17486M 17487M 17487B 17496M 17497M 17497B 17516M 17519B 17532  17583M 17584M 17584B 17631M 17632M 17632B
             17665M 17666M 17666B 17725M 17726M 17726B 17735M 17736M 17736B 17755M 17758B 17771  17822M 17823M 17823B
             17870M 17871M 17871B 17904M 17905M 17905B 17964M 17965M 17965B 17974M 17975M 17975B 17994M 17997B 18010
             18056M 18057M 18057B 18071M 18072M 18072B 18095M 18096M 18096B 18105M 18106M 18106B 18125M 18128B 18141
             18209M 18210M 18210B 18227M 18230B 18243  18311M 18312M 18312B 18329M 18332B 18345  18378M 18379M 18379B
             18396M 18399B 18412  18466M 18467M 18467B 18486M 18487M 18487B 18508M 18511B 18524  18578M 18579M 18579B
             18598M 18599M 18599B 18620M 18623B 18636  18682M 18685B 18746  18779M 18780  18794M 18795  18796  18797
             18802M 18803  18806M 18807M 18807B 18810M 18813  18814  18815  18836M 18839  18862M 18865B 19002  19040M
             19041  19042  19043  19048M 19049  19052M 19053M 19053B 19056M 19059  19060  19061  19115M 19116M 19116B
             19141M 19144B 19157  19195M 19196  19197  19198  19203M 19204  19207M 19208M 19208B 19211M 19214  19215
             19216  19270M 19271M 19271B 19296M 19299B 19312  19358M 19361B 19374  19422M 19425B 19438  19470M 19471M
             19471B 19490M 19493B 19506  19537M 19538M 19538B 19555M 19558B 19592  19797M 19800B 19882  19936M 19941M
             19941  19947M 19948N 19963N 19978N 19979N 19980  19980  19981N 19982N 19995N 19999M 19999  20009M 20010
             20011  20012  20018M 20019M 20019B 20022M 20025  20026  20027  20046M 20051M 20051  20063M 20068M 20068
             20086M 20087N 20088N 20092M 20092  20102M 20103  20104  20105  20110M 20111  20114M 20115M 20115B 20118M
             20121  20122  20123  20182M 20187M 20187  20218M 20223M 20223  20254M 20259M 20259  20296M 20299B 20366
             20412M 20415B 20427  20467M 20468  20469  20470  20478M 20479M 20479B 20482M 20485  20486  20487  20519M
             20520  20520  20524M 20524  20543M 20544M 20544B 20555M 20556M 20556B 20597M 20600B 20655  20762M 20763
             20775M 20776  20777  20778  20783M 20784  20787M 20788M 20788B 20791M 20794  20795  20796  20882M 20885
             20938M 20939M 20939B 20985M 20986M 20986B 21030M 21031M 21031B 21069M 21072B 21134  21180M 21183B 21196
             21242M 21245B 21257  21295M 21296  21297  21298  21306M 21307M 21307B 21310M 21313  21314  21315  21356M
             21357M 21357B 21388M 21389M 21389B 21431M 21434B 21494  21564M 21565M 21565B 21593M 21594M 21594B 21620M
             21621M 21621B 21644M 21647B 21675  21733M 21734M 21734B 21745M 21746M 21746B 21765M 21768B 21802  21860M
             21861M 21861B 21872M 21873M 21873B 21892M 21895B 21926  21984M 21985M 21985B 21996M 21997M 21997B 22016M
             22019B 22051  22109M 22110M 22110B 22121M 22122M 22122B 22133M 22134M 22134B 22153M 22156B 22183  22252M
             22253M 22253B 22264M 22265M 22265B 22284M 22287B 22390  22444M 22445M 22445B 22453M 22454M 22454B 22462M
             22463M 22463B 22468M 22469M 22469B 22518M 22519M 22519B 22558M 22561B 22615  22669M 22670M 22670B 22678M
             22679M 22679B 22687M 22688M 22688B 22693M 22694M 22694B 22706M 22707M 22707B 22746M 22749B 22789  22843M
             22844M 22844B 22852M 22853M 22853B 22861M 22862M 22862B 22867M 22868M 22868B 22979M 22980M 22980B 22998M
             22999M 22999B 23019M 23020M 23020B 23059M 23062B 23097  23299M 23302B 23336  23370M 23375M 23376M 23376B
             23394M 23397B 23431  23468M 23473M 23474M 23474B 23492M 23495B 23541  23663M 23664M 23664B 24128M 24131B
             24171  24257M 24258M 24258B 24749M 24752B 24790  24912M 24913M 24913B 25368M 25371B 25411  25497M 25498M
             25498B 25989M 25992B 26530  26580M 26581M 26581B 26644M 26645M 26645B 26694M 26695M 26695B 26720M 26723B
             26749  26794M 26797B 26819  26949M 26952B 26987  27064M 27065M 27065B 27076M 27077M 27077B 27096M 27099B
             27148  27260M 27261M 27261B 27303M 27306B 27343  27590M 27676M 27679B 27710  27857M 27858M 27858B 27889M
             27892B 27927  27995M 28078M 28081B 28140  28181M 28182  28183  28184  28190M 28192N 28203M 28204M 28204B
             28211M 28213N 28224M 28225M 28225B 28232M 28237N 28241M 28241  28251M 28252M 28252B 28255M 28258  28259
             28260  28282M 28285B 28314  28346M 28347M 28347B 28366M 28369B 28382  28731M 28734B 28789  28879M 28882B
             28902  29033M 29036B 29059  29171M 29174B 29197  29309M 29312B 29332  29372M 29373M 29373B 29384M 29385
             29386  29387  29392M 29393  29396M 29397M 29397B 29400M 29403  29404  29405  29410M 29411M 29411B 29430M
             29431M 29431B 29455M 29456M 29456B 29475M 29478B 29723  29772M 29775B 29789  29838M 29841B 29855  29904M
             29907B 29921  29970M 29973B 29987  30036M 30039B 30053  30102M 30105B 30119  30168M 30171B 30185  30234M
             30237B 30251  30300M 30303B 30317  30362M 30363M 30363B 30387M 30388M 30388B 30409M 30412B 30427  30459M
             30460M 30460B 30479M 30482B 30496  30547M 30548M 30548B 30565M 30566M 30566B 30590M 30591M 30591B 30608M
             30611B 30625  30674M 30677B 30691  30740M 30743B 30757  30806M 30809B
    15(F)      922U  2099   7076M  7076   7093M  7093   7126M  7126   7209M  7209   7225M  7225   7280M  7280   7390M
              7391   7411M  7412   7468M  7468   7690M  7690   7715M  7715   7721M  7815M  7815   7968M  7982M  7982
1         (SCAN2025) (12:54) (15MAR04) General Purpose Register Cross Reference                                             Page  221
              8024M  8024   8160U  8221M  8221   8235M  8235   8272M  8272   8279U  8363   8479M  8498M  8498   8610M
              8610   8811M  8811   8897M  8897   8975   9000M  9000   9103M  9122M  9122   9254   9274M  9274  10196M
             10220M 10220  10465M 10465  10666M 10666  10764M 10985M 10985  11034M 11034  11115M 11156M 11156  11245M
             11245  11325M 11366M 11366  11455M 11455  11676M 11676  11695M 11695  11796M 11796  11812M 11836M 11836
             11928M 11928  11948M 11972M 11972  12031M 12051M 12051  12142M 12152  12173  12176  12188M 12212  12230
             12236M 12255M 12255  12269M 12291M 12291  12374M 12374  12405M 12405  12499M 12499  12713M 12713  12730M
             12762M 12762  12970M 12970  12987M 13019M 13019  13149M 13149  13169M 13192M 13192  13300M 13300  13320M
             13343M 13343  13431M 13441  13447M 13448M 13467M 13467  13483M 13503M 13526M 13526  13635M 13635  13670M
             13670  13815M 13815  13877M 13877  13911M 13911  14001M 14001  14036M 14036  14160M 14160  14354M 14354
             14382M 14382  14494M 14494  14529M 14529  14650M 14650  14659M 14659  14689  14700M 14700  14748M 14748
             14867M 14867  14911M 14932M 14932  14996M 14996  15073M 15073  15108M 15108  15230M 15230  15239M 15239
             15269  15280M 15280  15328M 15328  15447M 15447  15491M 15512M 15512  15576M 15576  15653M 15653  15688M
             15688  15810M 15810  15819M 15819  15849  15860M 15860  15908M 15908  16027M 16027  16071M 16092M 16092
             16156M 16156  16496M 16505M 16505  16511M 16520M 16520  16526M 16527M 16529M 16530  16542M 16542  16543
             16581M 16581  16590M 16590  16614  16623M 16623  16639  16651M 16666M 16666  16704M 16704  17007M 17007
             17157M 17157  17304M 17304  17518M 17518  17757M 17757  17996M 17996  18127M 18127  18229M 18229  18331M
             18331  18398M 18398  18510M 18510  18622M 18622  18665M 18684M 18684  18816M 18816  18828  18840M 18864M
             18864  19062M 19062  19074  19143M 19143  19217M 19217  19229  19298M 19298  19341M 19360M 19360  19405M
             19424M 19424  19473M 19492M 19492  19557M 19557  19799M 19799  19948M 19957M 19957  19963M 19972M 19972
             19978M 19979M 19981M 19982  19994M 19994  19995  20028M 20028  20037M 20037  20052M 20124M 20124  20133M
             20133  20209M 20209  20245M 20245  20270M 20270  20298M 20298  20395M 20414M 20414  20488M 20488  20499M
             20499  20557M 20576M 20576  20599M 20599  20737M 20797M 20797  20806M 20806  20825M 20825  20849  20858M
             20858  20874  20889M 20889  21071M 21071  21163M 21182M 21182  21225M 21244M 21244  21316M 21316  21325M
             21325  21406M 21433M 21433  21627M 21646M 21646  21748M 21767M 21767  21875M 21894M 21894  21999M 22018M
             22018  22136M 22155M 22155  22267M 22286M 22286  22536M 22536  22560M 22560  22724M 22724  22748M 22748
             23037M 23037  23061M 23061  23301M 23301  23369M 23370M 23396M 23396  23467M 23467  23468M 23494M 23494
             24111M 24111  24130M 24130  24732M 24732  24751M 24751  25351M 25351  25370M 25370  25972M 25972  25991M
             25991  26641M 26691M 26722M 26722  26796M 26796  26932M 26951M 26951  27079M 27098M 27098  27197M 27197
             27257M 27305M 27305  27372  27659M 27659  27678M 27678  27854M 27872M 27872  27891M 27891  27956  28061M
             28061  28080M 28080  28191M 28192  28212M 28213  28236M 28236  28237  28284M 28284  28343M 28368M 28368
             28453  28702M 28708M 28733M 28733  28881M 28881  29035M 29035  29173M 29173  29311M 29311  29406M 29406
             29427M 29452M 29477M 29477  29755M 29755  29774M 29774  29821M 29821  29840M 29840  29887M 29887  29906M
             29906  29953M 29953  29972M 29972  30019M 30019  30038M 30038  30085M 30085  30104M 30104  30151M 30151
             30170M 30170  30217M 30217  30236M 30236  30283M 30283  30302M 30302  30359M 30384M 30392M 30392  30411M
             30411  30481M 30481  30544M 30562M 30587M 30610M 30610  30657M 30657  30676M 30676  30723M 30723  30742M
             30742  30789M 30789  30808M 30808

1SCAN     (SCAN2025) (12:54) (15MAR04) Diagnostic Cross Reference and Assembler Summary                                     Page  222
-                                                                                            HLASM R4.0  2004/03/15 12.54
0     No Statements Flagged in this Assembly
 HIGH LEVEL ASSEMBLER, 5696-234, RELEASE 4.0, PTF P72483
0SYSTEM: OS/390 02.10.00            JOBNAME: WYL#SCAN    STEPNAME: ASM        PROCSTEP: (NOPROC)
0Datasets Allocated for this Assembly
  Con DDname   Dataset Name                                 Volume  Member
   P1 SYSIN    WYL.GS.WYL.WYLBUR.SOURCE                     SYSB05  SCAN
   L1 SYSLIB   WYL.GS.WYL.WYLBUR.MACLIB                     SYSB05
   L2          WYL.GG.SYS.MACLIB                            SYSB05
   L3          SYS3.IS.MACLIB                               SYSB05
   L4          SYS3.MACLIB                                  SYSB02
   L5          SYS1.MACLIB                                  MVSBR9
   L6          SYS1.MODGEN                                  MVSBR9
      SYSPRINT SYS04075.T125426.RA000.WYL#SCAN.PRINT.H01    SCR101
      SYSTERM  GG$SLP.WYL#SCAN.JOB03562.D0000101.?

    3668K allocated to Buffer Pool,         3721K would be required for this to be an In-Storage Assembly
    5298 Primary Input Records Read         7113 Library Records Read                  0 Work File Reads
       0 ASMAOPT Records Read              17899 Primary Print Records Written        16 Work File Writes
       0 Punch Records Written                 0 ADATA Records Written
0Assembly Start Time: 12.54.28 Stop Time: 12.54.38 Processor Time: 00.00.05.5069
 Return Code 000
