1                        J E S 2  J O B  L O G  --  S Y S T E M  S Y S B  --  N O D E  R L G
0
 12.48.57 JOB03544 ---- MONDAY,    15 MAR 2004 ----
 12.48.57 JOB03544  ICH70001I GG$SLP   LAST ACCESS AT 12:48:51 ON MONDAY, MARCH 15, 2004
 12.48.57 JOB03544  $HASP373 WYL#MODE STARTED - INIT 9    - CLASS B - SYS SYSB
 12.48.57 JOB03544  ***  HCMD      STEP $$QUIET
 12.48.57 JOB03544  PUR * Q OUT MUL
 12.48.57 JOB03544  JOB 5669 WYL#MODE WILL BE PURGED
 12.48.58 JOB03544  WYL#MODE.$$QUIET .         RC=Zero TapeIO=0000 DiskIO=0000 CPU=  .01s Elapsed=37.88s
 12.49.25 JOB03544  WYL#MODE.ASM     .         RC=Zero TapeIO=0000 DiskIO=1308 CPU=11.84s Elapsed=38.95s
 12.49.30 JOB03544  WYL#MODE.EDIT    .         RC=Zero TapeIO=0000 DiskIO=0663 CPU= 1.74s Elapsed=65.84s
 12.49.30 JOB03544  WYL#MODE Ended.  Name=Assemble MODE                  Total CPU=13.59s Elapsed=37.88s
 12.49.30 JOB03544
 12.49.30 JOB03544  Execution charges   Priority=Standard   Block=Day
 12.49.30 JOB03544
 12.49.30 JOB03544  CPU Usage         252.18         $156.35   Standard Processing Unit Equivalent
 12.49.30 JOB03544                                   =======
 12.49.30 JOB03544                                   $156.35   Total Job execution charge
 12.49.30 JOB03544
 12.49.30 JOB03544  See back separator page for print charges
 12.49.30 JOB03544
 12.49.30 JOB03544  $HASP395 WYL#MODE ENDED  ASM=0, EDIT=0
1        1 //WYL#MODE JOB SLP$GG,'Assemble MODE',TIME=4,REGION=4M                  JOB03544
           //*
           /*JOBPARM LINES=99,COPIES=1
           /*JOBPARM FORMS=3HOL,PFORMAT=LAND,CHARS=BD13,DUPLEX=YES,FLASH=BAR4
           //*
           /*JOBPARM NOTIFY=GG.SLP,HOLD=OUTPUT                                     WYLGEN
         2 //$$QUIET EXEC PGM=HCMDX,PARM='PUR * Q OUT MUL'
           //*
         3 //ASM    EXEC PGM=ASMA90,REGION=8M,
           //            PARM=('NORENT,TERM,FLAG(NOCONT),US(MAP,WARN(10)),NODECK',
           //            'LC(32767),XREF(SHORT),ESD,DXREF,NOOBJECT')
         4 //STEPLIB DD DSN=SYS3.IS.TESTASM,DISP=SHR
         5 //SYSLIB   DD  DSN=WYL.GS.WYL.WYLBUR.MACLIB,DISP=SHR
         6 //         DD  DSN=WYL.GG.SYS.MACLIB,DISP=SHR
         7 //         DD  DSN=SYS3.IS.MACLIB,DISP=SHR
         8 //         DD  DSN=SYS3.MACLIB,DISP=SHR
         9 //         DD  DSN=SYS1.MACLIB,DISP=SHR
        10 //         DD  DSN=SYS1.MODGEN,DISP=SHR
        11 //SYSUT1   DD DSN=&&SYSUT1,UNIT=VIO,DISP=(,DELETE),
           //            SPACE=(4088,(500,250),,CONTIG,ROUND)
        12 //SYSTERM  DD SYSOUT=T
        13 //SYSPRINT DD DSN=&&PRINT,UNIT=SYSDA,DISP=(,PASS),
           //            SPACE=(6650,(250,250),RLSE),
           //            DCB=(BLKSIZE=6650,LRECL=133,RECFM=FB)
        14 //SYSUDUMP DD SYSOUT=A
        15 //SYSIN    DD  DSN=WYL.GS.WYL.WYLBUR.SOURCE(MODE),DISP=SHR
           //*
        16 //EDIT    EXEC PGM=ASMEDIT,TIME=2,REGION=4000K,
           //             PARM='STMT'
        17 //STEPLIB  DD  DSN=WYL.GG.SYS.LINKLIB,DISP=SHR
        18 //ASMOUT   DD  DSN=&PRINT,DISP=(OLD,DELETE)
        19 //SYSPRINT DD  SYSOUT=A
1 STMT NO. MESSAGE
 -
        11 IGD01010I STORCLAS= TEMP STORGROUP =
        11 IGD01010I STORGRP=VIO ASSIGNED.
        13 IGD01010I STORCLAS= TEMP STORGROUP =
        13 IGD01010I STORGRP=VIO ASSIGNED.
 ICH70001I GG$SLP   LAST ACCESS AT 12:48:51 ON MONDAY, MARCH 15, 2004
 IEF142I WYL#MODE $$QUIET - STEP WAS EXECUTED - COND CODE 0000
 *********************************************************************************
 *   WYL#MODE/$$QUIET /                    Return Code      Zero                 *
 *   Region used      260K (16K user + 244K system)                              *
 *   Extended region  9464K (4K user + 9460K system)                             *
 *                                                                               *
 *   Paging              In      Out                                             *
 *   Private <-> Aux      0        0       CPU time (TCB)   00:00:00.01          *
 *   Private <-> Exp      0        0       CPU time (SRB)   00:00:00.00          *
 *   VIO                  0        0       Elapsed time    917:38:55.08          *
 *   Common               0      ---                                             *
 *                                                                               *
 *                                                                               *
 *   CPU Usage          0.18         $0.11  Standard Processing Unit Equivalent  *
 *                                   $0.11  Total Step execution charge          *
 *                                                                               *
 *    I/O count  DDname   Type Addr           I/O count  DDname   Type Addr      *
 *                         *** No I/O for this step ***                          *
 *********************************************************************************
 IEF373I STEP/$$QUIET /START 2004075.1248
 IEF374I STEP/$$QUIET /STOP  2004075.1248 CPU    0MIN 00.01SEC SRB    0MIN 00.00SEC VIRT    16K SYS   244K EXT       4K SYS    9460K
 IEF236I ALLOC. FOR WYL#MODE ASM
 IEF237I 04DC ALLOCATED TO STEPLIB
 IEF237I 04DC ALLOCATED TO SYSLIB
 IEF237I 04DC ALLOCATED TO
 IEF237I 04DC ALLOCATED TO
 IEF237I 0402 ALLOCATED TO
 IEF237I 04A0 ALLOCATED TO
 IEF237I 04A0 ALLOCATED TO
 IGD101I SMS ALLOCATED TO DDNAME (SYSUT1  )
         DSN (SYS04075.T124857.RA000.WYL#MODE.SYSUT1.H01  )
         STORCLAS (TEMP) MGMTCLAS (        ) DATACLAS (        )
         VOL SER NOS= VIO
 IEF237I JES2 ALLOCATED TO SYSTERM
 IGD101I SMS ALLOCATED TO DDNAME (SYSPRINT)
         DSN (SYS04075.T124857.RA000.WYL#MODE.PRINT.H01   )
         STORCLAS (TEMP) MGMTCLAS (        ) DATACLAS (        )
         VOL SER NOS= SCR100
 IEF237I JES2 ALLOCATED TO SYSUDUMP
 IEF237I 04DC ALLOCATED TO SYSIN
 IEF142I WYL#MODE ASM - STEP WAS EXECUTED - COND CODE 0000
 IEF285I   SYS3.IS.TESTASM                              KEPT
 IEF285I   VOL SER NOS= SYSB05.
 IEF285I   WYL.GS.WYL.WYLBUR.MACLIB                     KEPT
 IEF285I   VOL SER NOS= SYSB05.
 IEF285I   WYL.GG.SYS.MACLIB                            KEPT
 IEF285I   VOL SER NOS= SYSB05.
 IEF285I   SYS3.IS.MACLIB                               KEPT
 IEF285I   VOL SER NOS= SYSB05.
 IEF285I   SYS3.MACLIB                                  KEPT
 IEF285I   VOL SER NOS= SYSB02.
 IEF285I   SYS1.MACLIB                                  KEPT
 IEF285I   VOL SER NOS= MVSBR9.
 IEF285I   SYS1.MODGEN                                  KEPT
 IEF285I   VOL SER NOS= MVSBR9.
 IGD105I SYS04075.T124857.RA000.WYL#MODE.SYSUT1.H01   DELETED,   DDNAME=SYSUT1
 IEF285I   GG$SLP.WYL#MODE.JOB03544.D0000101.?          SYSOUT
 IGD106I SYS04075.T124857.RA000.WYL#MODE.PRINT.H01    PASSED,    DDNAME=SYSPRINT
 IEF285I   GG$SLP.WYL#MODE.JOB03544.D0000102.?          SYSOUT
 IEF285I   WYL.GS.WYL.WYLBUR.SOURCE                     KEPT
 IEF285I   VOL SER NOS= SYSB05.
 *********************************************************************************
 *   WYL#MODE/ASM     /                    Return Code      Zero                 *
 *   Region used      4376K (4096K user + 280K system)                           *
 *   Extended region  10092K (412K user + 9680K system)                          *
 *                                                                               *
 *   Paging              In      Out                                             *
 *   Private <-> Aux      0        0       CPU time (TCB)   00:00:11.75          *
 *   Private <-> Exp      0        0       CPU time (SRB)   00:00:00.09          *
 *   VIO                  0        0       Elapsed time    917:38:54.01          *
 *   Common               0      ---                                             *
 *                                                                               *
 *                                                                               *
 *   CPU Usage        220.31       $136.59  Standard Processing Unit Equivalent  *
 *                                 $136.59  Total Step execution charge          *
 *                                                                               *
 *    I/O count  DDname   Type Addr           I/O count  DDname   Type Addr      *
 *           84  STEPLIB  Disk 04DC                 355  SYSLIB   Disk 04DC      *
 *            0  SYSLIB   Disk 04DC                   0  SYSLIB   Disk 04DC      *
 *            4  SYSLIB   Disk 0402                 191  SYSLIB   Disk 04A0      *
 *            0  SYSLIB   Disk 04A0               2,205  SYSUT1   VIO  ----      *
 *            0  SYSTERM       ----                 660  SYSPRINT Disk 038B      *
 *            0  SYSUDUMP      ----                  14  SYSIN    Disk 04DC      *
 *********************************************************************************
 IEF373I STEP/ASM     /START 2004075.1248
 IEF374I STEP/ASM     /STOP  2004075.1249 CPU    0MIN 11.75SEC SRB    0MIN 00.09SEC VIRT  4096K SYS   280K EXT     412K SYS    9680K
 IEF236I ALLOC. FOR WYL#MODE EDIT
 IEF237I 0402 ALLOCATED TO STEPLIB
 IGD103I SMS ALLOCATED TO DDNAME ASMOUT
 IEF237I JES2 ALLOCATED TO SYSPRINT
 IEF142I WYL#MODE EDIT - STEP WAS EXECUTED - COND CODE 0000
 IEF285I   WYL.GG.SYS.LINKLIB                           KEPT
 IEF285I   VOL SER NOS= SYSB02.
 IGD105I SYS04075.T124857.RA000.WYL#MODE.PRINT.H01    DELETED,   DDNAME=ASMOUT
 IEF285I   GG$SLP.WYL#MODE.JOB03544.D0000103.?          SYSOUT
 *********************************************************************************
 *   WYL#MODE/EDIT    /                    Return Code      Zero                 *
 *   Region used      380K (116K user + 264K system)                             *
 *   Extended region  9592K (4K user + 9588K system)                             *
 *                                                                               *
 *   Paging              In      Out                                             *
 *   Private <-> Aux      0        0       CPU time (TCB)   00:00:01.69          *
 *   Private <-> Exp      0        0       CPU time (SRB)   00:00:00.05          *
 *   VIO                  0        0       Elapsed time    917:38:27.12          *
 *   Common               0      ---                                             *
 *                                                                               *
 *                                                                               *
 *   CPU Usage         31.68        $19.64  Standard Processing Unit Equivalent  *
 *                                  $19.64  Total Step execution charge          *
 *                                                                               *
 *    I/O count  DDname   Type Addr           I/O count  DDname   Type Addr      *
 *            2  STEPLIB  Disk 0402                 661  ASMOUT   Disk 038B      *
 *            0  SYSPRINT      ----                                              *
 *********************************************************************************
 IEF373I STEP/EDIT    /START 2004075.1249
 IEF374I STEP/EDIT    /STOP  2004075.1249 CPU    0MIN 01.69SEC SRB    0MIN 00.05SEC VIRT   116K SYS   264K EXT       4K SYS    9588K
 *********************************************************************************
 *                                                                               *
 *                      S t a n f o r d   U n i v e r s i t y                    *
 *                                                                               *
 *                              *** Job Summary ***                              *
 *                                                                               *
 *   System Id      SYSB                   Input time     12:39:22  Mar 15, 2004 *
 *                                                                               *
 *   System Release SP6.1.0                Start time     12:48:57  Mar 15, 2004 *
 *                                                                               *
 *   Job name       WYL#MODE               Stop  time     00:00:00  Mar 15, 2004 *
 *                                                                               *
 *   Account        SLP$GG                 Elapsed time  917:38:55.08            *
 *                                                                               *
 *   User Name      Assemble MODE          CPU time       00:00:13.45            *
 *                                                                               *
 *   Job class      B                      SRB Time       00:00:00.14            *
 *                                                                               *
 *********************************************************************************
 IEF375I  JOB/WYL#MODE/START 2004075.1248
 IEF376I  JOB/WYL#MODE/STOP  2004075.1249 CPU    0MIN 13.45SEC SRB    0MIN 00.14SEC
1Assembler Done MODE No Statements Flagged
1         High Level Assembler Option Summary                   (PTF P72483 )                                               Page    1
-                                                                                            HLASM R4.0  2004/03/15 12.48
0  No Overriding ASMAOPT Parameters
   Overriding Parameters-  NORENT,TERM,FLAG(NOCONT),US(MAP,WARN(10)),NODECK,LC(32767),XREF(SHORT),ESD,DXREF,NOOBJECT
   No Process Statements


   Options for this Assembly
0  NOADATA
     ALIGN
   NOASA
     BATCH
     CODEPAGE(047C)
   NOCOMPAT
   NODBCS
 3 NODECK
 3   DXREF
 3   ESD
   NOEXIT
 3   FLAG(0,ALIGN,NOCONT,NOIMPLEN,NOPAGE0,PUSH,RECORD,NOSUBSTR,USING0)
   NOFOLD
   NOGOFF
   NOINFO
     LANGUAGE(EN)
   NOLIBMAC
 3   LINECOUNT(32767)
     LIST(121)
     MXREF(SOURCE)
 3 NOOBJECT
     OPTABLE(UNI,NOLIST)
   NOPCONTROL
   NOPESTOP
   NOPROFILE
   NORA2
 3 NORENT
     RLD
     RXREF
     SIZE(MAX)
     SYSPARM()
 3   TERM(WIDE)
   NOTEST
     THREAD
   NOTRANSLATE
 3   USING(NOLIMIT,MAP,WARN(10))
 3   XREF(SHORT)

   No Overriding DD Names

1MODE     External Symbol Dictionary                                                                                        Page    2
-Symbol   Type   Id     Address  Length     LD ID  Flags Alias-of                            HLASM R4.0  2004/03/15 12.48
0WYLMODE   SD 00000001 00000000 0000E1EB             00
 MODE4072  LD          00000000           00000001
 SET       LD          00000018           00000001
 NSCAN     ER 00000002
 SCINIT    ER 00000003
 SCANCHK   ER 00000004
 NOOPTS    ER 00000005
 UPDCPSIB  ER 00000006
 SETTERM   ER 00000007
 NOTVALID  ER 00000008
 SCNEXFR   ER 00000009
 MNULL     ER 0000000A
 MINT      ER 0000000B
 MALL      ER 0000000C
 MTOKEN    ER 0000000D
 SCDQUOTE  ER 0000000E
 SEGB      ER 0000000F
 SETPFXNS  LD          0000160C           00000001
 SEG       ER 00000010
 EXIT12    ER 00000011
 DOFNAME   ER 00000012
 FNAMEFIN  ER 00000013
 NRESOLVE  ER 00000014
 CHKKW     ER 00000015
 OLDSETV   ER 00000016
 MPINT     ER 00000017
 MPLNO     ER 00000018
 SETTABS   ER 00000019
 SETMAST   ER 0000001A
 SETPASS   ER 0000001B
 SETSMF    ER 0000001C
 SETAUTO   ER 0000001D
 SETMST    ER 0000001E
 SETMAIL   ER 0000001F
 SETXMAIL  ER 00000020
 SETACT    ER 00000021
 SETFDEF   ER 00000022
 SETFPAT   ER 00000023
 SETNAME   ER 00000024
 SETPACCT  ER 00000025
 SETSAM    ER 00000026
 CMDFIN    ER 00000027
 SETPROJ   ER 00000028
 SETLINE   ER 00000029
 SETHIST   ER 0000002A
 SETJES    ER 0000002B
 TAPE      ER 0000002C
 SETWPROJ  ER 0000002D
 SETWAPP   ER 0000002E
 PROTECT   ER 0000002F
 SETLOGON  ER 00000030
 SETVSES   ER 00000031
 SETVOPT   ER 00000032
 SETCOST   ER 00000033
 SETJOB    ER 00000034
1MODE     External Symbol Dictionary                                                                                        Page    3
 SETOUT    ER 00000035
 SETWCH    ER 00000036
 SETWCTR   ER 00000037
 SETWCIN   ER 00000038
 SETDEBUG  ER 00000039
 SETHOST   ER 0000003A
 SETQUERY  ER 0000003B
 SETOPER   ER 0000003C
 SETPRIV   ER 0000003D
 SETWNET   ER 0000003E
 SETWNEWS  ER 0000003F
 SETWHELP  ER 00000040
 SETWHOST  ER 00000041
 SETWTERM  ER 00000042
 SETWPRT   ER 00000043
 SETWDICT  ER 00000044
 SETCHR    ER 00000045
 SETCHRU   ER 00000046
 SETLPR    ER 00000047
 SETVIEW   ER 00000048
 SETMIL    ER 00000049
 SETNOTM   ER 0000004A
 SCNNOOP   ER 0000004B
 MSYMLN    ER 0000004C
 STEXEPSH  ER 0000004D
 MPARM     ER 0000004E
 FNAMPSH   ER 0000004F
 MOPTION   ER 00000050
 SCNSCFLG  ER 00000051
 CLEAR     LD          00003B4C           00000001
 CLRHOSTS  ER 00000052
 CLRFTP    ER 00000053
 SEGMARK   ER 00000054
 SEGWR     ER 00000055
 CLRTEXT   ER 00000056
 SEGCR     ER 00000057
 CLRVARS   ER 00000058
 ACTRESET  ER 00000059
 CLRACTS   ER 0000005A
 CHKXOLD   ER 0000005B
 CLREX     ER 0000005C
 SETPAUSE  ER 0000005D
 PAGETABS  ER 0000005E
 CLRDEF    ER 0000005F
 CLRLRN    ER 00000060
 CLRHCMDS  ER 00000061
 DBCLEAR   ER 00000062
 MCLEAR    ER 00000063
 CLRERROR  ER 00000064
 CLRATTN   ER 00000065
 CLRDEBUG  ER 00000066
 ACCTPSHC  ER 00000067
 COLLPSH   ER 00000068
 GETKWR    ER 00000069
 SEGT      ER 0000006A
 AUTODISP  ER 0000006B
 JOBDISP   ER 0000006C
 OUTDISP   ER 0000006D
 TERMDISP  ER 0000006E
1MODE     External Symbol Dictionary                                                                                        Page    4
 LRTRIM    ER 0000006F
 SEGDC     ER 00000070
 CVEXNO    ER 00000071
 RETFNAME  ER 00000072
 RETFMEM   ER 00000073
 JESDISP   ER 00000074
 JESDISP2  ER 00000075
 EXECDISP  ER 00000076
 BTD       ER 00000077
 LPRDISP   ER 00000078
 DUMP      LD          00006294           00000001
 SHOW      LD          000062FE           00000001
 COLLOPTS  ER 00000079
 JESCMD    ER 0000007A
 SCNEX     ER 0000007B
 SEGTB     ER 0000007C
 SHOWACT   ER 0000007D
 SHOWACTS  ER 0000007E
 SHOWAINF  ER 0000007F
 SHODSN    ER 00000080
 SHOWAUTO  ER 00000081
 SHOWMST   ER 00000082
 SHOWDIR   ER 00000083
 SHOWNAME  ER 00000084
 SHOWFDEF  ER 00000085
 SHOWFPAT  ER 00000086
 SHOWUSRS  ER 00000087
 SHOWHOST  ER 00000088
 SHOWHSTS  ER 00000089
 SHOWQRY   ER 0000008A
 SHOWFTP   ER 0000008B
 SHOWLINE  ER 0000008C
 SHOWILIN  ER 0000008D
 SHOWNET   ER 0000008E
 SHOSIZ    ER 0000008F
 SHOWCAT   ER 00000090
 SHOWSPCE  ER 00000091
 SHOWTRKS  ER 00000092
 SHOWNEWS  ER 00000093
 SHOWMAIL  ER 00000094
 SHOWEXEC  ER 00000095
 SHXLOAD   ER 00000096
 SHPBLOAD  ER 00000097
 SHOWMAST  ER 00000098
 SHOWSMF   ER 00000099
 SHOWLTIM  ER 0000009A
 SHOWKTIM  ER 0000009B
 SHOWPRIV  ER 0000009C
 SHOWPROJ  ER 0000009D
 SHOWSAM   ER 0000009E
 SHOWVAL   ER 0000009F
 SHOWVARS  ER 000000A0
 SHOWARRY  ER 000000A1
 SHOWDEF   ER 000000A2
 SHOWLRN   ER 000000A3
 SHOWHIST  ER 000000A4
 SHOWJES   ER 000000A5
 SHOWJOB   ER 000000A6
 SHOWOUT   ER 000000A7
1MODE     External Symbol Dictionary                                                                                        Page    5
 DSHOW     ER 000000A8
 SHOWMON   ER 000000A9
 SHOWVSES  ER 000000AA
 SHOWVOPT  ER 000000AB
 SHOWWCH   ER 000000AC
 SHOWWCTR  ER 000000AD
 SHOWWCIN  ER 000000AE
 SHOWDBUG  ER 000000AF
 SHOWWPRJ  ER 000000B0
 SHOWVERS  ER 000000B1
 SHOWMVER  ER 000000B2
 SHOWWLIN  ER 000000B3
 SHOWWLNS  ER 000000B4
 SHOWSYM   ER 000000B5
 SHOWJCB   ER 000000B6
 SHOWWMON  ER 000000B7
 SHOWWLOG  ER 000000B8
 SHOWCHR   ER 000000B9
 SHOWTERM  ER 000000BA
 SHOWLPR   ER 000000BB
 SHOWVIEW  ER 000000BC
 SHOWIDLE  ER 000000BD
 SHOWTIME  ER 000000BE
 SHOWCNT   ER 000000BF
 SHOWMINF  ER 000000C0
 SHOWKINF  ER 000000C1
 SHOWTABS  ER 000000C2
 SHOWMIL   ER 000000C3
 SHOWMDEV  ER 000000C4
 SHOWWPAT  ER 000000C5
 SHOWWNET  ER 000000C6
 SHOWSYS   ER 000000C7
 SHOWCASE  ER 000000C8
 SHOWNOTM  ER 000000C9
 SHOWCHAR  ER 000000CA
 SHOWCOST  ER 000000CB
 SHOWSCOS  ER 000000CC
 SHOWSCS   ER 000000CD
 SHOWPORT  ER 000000CE
 EXIT13    ER 000000CF
 NUMPSH    ER 000000D0
 DOSHCOLS  LD          00008FD0           00000001
 LOCALTOD  ER 000000D1
 FMTRCLCK  ER 000000D2
 BTX       ER 000000D3
 FMTXDATE  ER 000000D4
 MINFDISP  ER 000000D5
 BTR       ER 000000D6
 FMTTIME   ER 000000D7
 GETCPU    ER 000000D8
 SCNINVAL  ER 000000D9
 SCUPCASE  ER 000000DA
 YESREQ    ER 000000DB
 CALCPGC   ER 000000DC
 GETPCB    ER 000000DD
 WAITER    ER 000000DE
 TSTAT     ER 000000DF
 FREEPCB   ER 000000E0
 PGETNEW   ER 000000E1
1MODE     External Symbol Dictionary                                                                                        Page    6
 PJUNKA    ER 000000E2
 FMTWBUF   ER 000000E3
 FMTCLCK   ER 000000E4
 XTB       ER 000000E5
 EXIT1     ER 000000E6
 ORVCPASS  ER 000000E7
 DEQUOTE   ER 000000E8
 TBREAK    ER 000000E9
 SHOWBKUP  LD          0000DF34           00000001
 DTB       ER 000000EA

1MODE     WYLBUR's SET/SHOW/CLEAR Commands                                                                                  Page    7
0Loc    Object Code    Addr1 Addr2  Stmt Lv Lineno    Source Statement                    (Asmedit 3.3)  HLASM R4.0  2004/03/15 12.48
+___    ______ ____    _____ _____  ____ __ ______    ______ _________
0                                      2              *******************************************************************
                                       3              *                                                                 *
                                       4              *     WYLBUR/370 - Release VI - Class I - Stanford Proprietary    *
                                       5              *                                                                 *
                                       6              *******************************************************************
                                       7                       HIBAL
                                     988
                                     989                       SYSDEFN ,                 Define installation parms
                                     990                       GBLB  &JOBAUTH            (See SYSDEFN)
                                     991
 000000                00000 0E1EB   992              WYLMODE  CSECT
                                     996              MODE     IDENT 4072                10:30:07 03/12/04  (SLP)
                                     999             +
                                    1000    01-IDENT +         ENTRY MODE4072
                                    1001             +
 000000 16D4D6C4C5F4F0F7            1002    01-IDENT +MODE4072 DC    AL1(22),C'MODE4072,15MAR04,12:48'
                                    1003             +*
-                                   1006                       REGS  FSR,,,,,,,BR,(WAR,LSR),PAR,PBR,CPR,CVR,SPR,RAR
                                    1142
                                    1143                       PUSH  DSECTS
 USING  CP,R11                      5239             =         USING (CP),(CV)
 USING  CV,R12
 000017                00000 0E1EB  5258             =         POP   PRINT
1MODE     (MODE4072) (12:48) (15MAR04) SET Command                                                                          Page    8
0Current Usings:  (CP,R11) (CV,R12)
0Loc    Object Code    Addr1 Addr2  Stmt Lv Lineno    Source Statement           (Hibal 5, Asmedit 3.3)  HLASM R4.0  2004/03/15 12.48
+___    ______ ____    _____ _____  ____ __ ______    ______ _________
0                                  11049              ¿þþþþþþþþþþþþþþþþþþþþþþþþþþþþþþþþþþþþþþþþþþþþþþþþþþþþþþþþþþþþþþþþþþþþþÜ
                                   11050              Ÿ                                                                     Ÿ
                                   11051              Ÿ  SET -- SET command                                                 Ÿ
                                   11052              Ÿ                                                                     Ÿ
                                                      ¾þþþþþþþþþþþþþþþþþþþþþþþþþþþþþþþþþþþþþþþþþþþþþþþþþþþþþþþþþþþþþþþþþþþþþ»
0000018 50E0 D000/9008_      00000 11053              SET      XPROC  ,
 USING  *,R7
                                   11093                       ¿þþþþþþþþþþþþþþþþþþþþþþþþþþþþþþþþþþþþþþþþþþþþþþþþþþþþþþþþþþþÜ
                                   11094                       Ÿ  The following is for dual-scanner compatibility only!!!  Ÿ
                                   11095                       ¾þþþþþþþþþþþþþþþþþþþþþþþþþþþþþþþþþþþþþþþþþþþþþþþþþþþþþþþþþþþ»
 000032 58E0 B08C/D2AF_      0008C 11096                       SCPUSH ,
 000040 5810 B08C/1B00_      0008C 11102                       SCAN ,
 00008E 58E0 B08C/581E_      0008C 11133                       SCINFO ,
 00009C 58E0 7842/0DEE       00874 11142                       OSCINIT (R1),(R0)         OLD SCANNER COMPATIBILTY
 0000A2 58E0 B08C/4BD0_      0008C 11158                       SCPOP ,
                                   11164
 0000B0 D604 B3B4 B3B4_003B4 003B4 11165                       IF    ((CPSACCT,Z),AND,~CPFEXEC),BEGIN
 0000C2 5810 B08C/1B00_      0008C 11195  1                      SCAN  SETPRTL
 000114 58E0 784A/0DEE       0087C 11227  1                      SCANCHK
 00011A                            11232                       END
 00011A 70EC/70EC/47F0_0011A 000B8 11236                       ELSE  BEGIN
 00011E 5810 B08C/1B00_      0008C 11249  1                      SCAN  SETPRT
 000170 58E0 784A/0DEE       0087C 11281  1                      SCANCHK
 000176                            11286                       END
 000176 47F0 C7DE            007DE 11290                       B     CVNEXT              !!!
 00017A 18D8/9808 D004_            11291                       PEND
 DROP   *,R7
1MODE     (MODE4072) (12:48) (15MAR04) SET Command                                                                          Page    9
0Current Usings:  (CP,R11) (CV,R12)
0Loc    Object Code    Addr1 Addr2  Stmt Lv Lineno    Source Statement           (Hibal 5, Asmedit 3.3)  HLASM R4.0  2004/03/15 12.48
+___    ______ ____    _____ _____  ____ __ ______    ______ _________
0000188 50E0 D000/9008_      00000 11312              SETNULL  PROC
 USING  *,R7
 0001A2 D207 B886 76BE_00886 00860 11351                       ERROR 'Missing SET option.',,MISSSET
 0001B4 18D8/9808 D004_            11359                       PEND
 DROP   *,R7
                                   11379
 0001C2 50E0 D000/9008_      00000 11380              SETPLOG  PROC
 USING  *,R7
 0001DC 58E0 76A8/0DEE       00884 11419                       VCALL NOOPTS
 0001E2 9102 B3EE/4710_003EE       11423                       IF    ~CPSFPERM,BEGIN
 0001EA 4120 0005            00005 11438  1                      LA    R2,5
 0001EE                            11439  1                      LOOP  BEGIN
 0001EE 9602 B3EE      003EE       11445  2                        SET   CPSFPERM            Set permanent logon
 0001F2 58E0 76AC/0DEE       00888 11451  2                        VCALL UPDCPSIB
 0001F8 4780 702C            00208 11455  2                        IF    Z,EXIT
 0001FC 0620                       11469  2                        DECR  R2
 0001FE 1222/4740 702C             11471  2                        IF    (R2,NEG),EXIT
 000204 47F0 7012            001EE 11488  1                      END
 000208                            11493                       END
 000208 47F0 C7DE            007DE 11497                       B     CVNEXT
 00020C 18D8/9808 D004_            11498                       PEND
 DROP   *,R7
                                   11518
 00021A 50E0 D000/9008_      00000 11519              SETNPLOG PROC
 USING  *,R7
 000234 58E0 7650/0DEE       00884 11558                       VCALL NOOPTS
 00023A 9102 B3EE/47E0_003EE       11562                       IF    CPSFPERM,BEGIN
 000242 4120 0005            00005 11577  1                      LA    R2,5
 000246                            11578  1                      LOOP  BEGIN
 000246 94FD B3EE      003EE       11584  2                        CLEAR CPSFPERM            Clear permanent logon
 00024A 58E0 7654/0DEE       00888 11591  2                        VCALL UPDCPSIB
 000250 4780 702C            00260 11595  2                        IF    Z,EXIT
 000254 0620                       11609  2                        DECR  R2
 000256 1222/4740 702C             11611  2                        IF    (R2,NEG),EXIT
 00025C 47F0 7012            00246 11628  1                      END
 000260                            11633                       END
 000260 47F0 C7DE            007DE 11637                       B     CVNEXT
 000264 18D8/9808 D004_            11638                       PEND
 DROP   *,R7
                                   11658
 000272 50E0 D000/9008_      00000 11659              SETTER   PROC
 USING  *,R7
 00028C 5810 B08C/1B00_      0008C 11698                       SCAN  ,
 0002DA 58E0 75F0/0DEE       0087C 11729                       SCANCHK
 0002E0 1200/47D0 7096_            11734                       IF    (R0,POS),'SCBKUP; VCALL SETTERM'  set terminal
                                   11813
 000322 9180 B474/4710_00474       11814                       IF    CPGFCPR,CVNEXT      Ignore if CPROMPT already set
 00032A D701 B7FE B7FE 007FE 007FE 11832                       CLEAR CPCPLEN             SET TERSE compat. (no CPROMPT)
 000330 47F0 C7DE            007DE 11839                       B     CVNEXT
 000334 18D8/9808 D004_            11840                       PEND
 DROP   *,R7
                                   11860
 000342 50E0 D000/9008_      00000 11861              SETVER   PROC
 USING  *,R7
1MODE     (MODE4072) (12:48) (15MAR04) SET Command                                                                          Page   10
0Current Usings:  (*,R7) (CP,R11) (CV,R12)
0Loc    Object Code    Addr1 Addr2  Stmt Lv Lineno    Source Statement           (Hibal 5, Asmedit 3.3)  HLASM R4.0  2004/03/15 12.48
+___    ______ ____    _____ _____  ____ __ ______    ______ _________
000035C 9180 B474/4710_00474       11900                       IF    CPGFCPR,CVNEXT      Ignore if CPROMPT already set
 000364 D201 B7FE 7550 007FE 008AC 11918                       MVC   CPCPLEN,=H'7'       SET VERBOSE compat.
 00036A D23D B800 7565 00800 008C1 11919                       MVC   CPCPRMT,=C'Command'
 000370 47F0 C7DE            007DE 11920                       B     CVNEXT
 000374 18D8/9808 D004_            11921                       PEND
 DROP   *,R7
                                   11941
 000382 50E0 D000/9008_      00000 11942              SETLEN   PROC
 USING  *,R7
 00039C 4000 B87E            0087E 11981                       STH   R0,CPLENGTH
 0003A0 47F0 C7DE            007DE 11982                       B     CVNEXT
 0003A4 18D8/9808 D004_            11983                       PEND
 DROP   *,R7
                                   12003
 0003B2 50E0 D000/9008_      00000 12004              SETSING  PROC
 USING  *,R7
 0003CC 947F B478      00478       12043                       CLEAR CPGFMULT            Clear multi-command mode
 0003D0 47F0 C7DE            007DE 12050                       B     CVNEXT
 0003D4 18D8/9808 D004_            12051                       PEND
 DROP   *,R7
                                   12071
 0003E2 50E0 D000/9008_      00000 12072              SETMULT  PROC
 USING  *,R7
 0003FC 9680 B478      00478       12111                       SET   CPGFMULT            Set multi-command mode
 000400 47F0 C7DE            007DE 12117                       B     CVNEXT
 000404 18D8/9808 D004_            12118                       PEND
 DROP   *,R7
                                   12138
 000412 50E0 D000/9008_      00000 12139              DELTAX   PROC
 USING  *,R7
 00042C 1200/4720 700C_            12178                       IF    (R0,NP),'VCALL NOTVALID'    Must be pos
 000438 5000 B738            00738 12201                       ST    R0,CPDELTA          Store delta
 00043C 47F0 C7DE            007DE 12202                       B     CVNEXT              New command
 000440 18D8/9808 D004_            12203                       PEND
 DROP   *,R7
                                   12223
 00044E 50E0 D000/9008_      00000 12224              SETVOL   PROC ,
 USING  *,R7
 000468 5810 B08C/1B00_      0008C 12263                       SCAN ,
 0004B6 58E0 7414/0DEE       0087C 12294                       SCANCHK ,
 0004BC 1200/4770 7064_            12299                       IF    (R0,Z),'CLEAR CPVOLUME; B CVNEXT'
 0004CC 5810 B08C/4111_      0008C 12326                       SCUPTOK R1
 0004D4 D205 B880 1000 00880 00000 12330                       MVC   CPVOLUME,@R1        Save volume name
 0004DA D502 7460 1000_008C8 00000 12331                       IF    (@R1,EQ,'CAT'),'CLEAR CPVOLUME'  (compatability)
 0004EA 58E0 741C/0DEE       00884 12359                       VCALL NOOPTS
 0004F0 47F0 C7DE            007DE 12363                       B     CVNEXT
 0004F4 18D8/9808 D004_            12364                       PEND
 DROP   *,R7
1MODE     (MODE4072) (12:48) (15MAR04) SET Command                                                                          Page   11
0Current Usings:  (CP,R11) (CV,R12)
0Loc    Object Code    Addr1 Addr2  Stmt Lv Lineno    Source Statement           (Hibal 5, Asmedit 3.3)  HLASM R4.0  2004/03/15 12.48
+___    ______ ____    _____ _____  ____ __ ______    ______ _________
0000502 50E0 D000/9008_      00000 12385              SETLIB   PROC
 USING  *,R7
 00051C D207 BC88 734C 00C88 00868 12424                       MVC   CPDOUB,=CL8'LIB'
 000522 5810 B08C/1B00_      0008C 12425                       SCAN
 000570 1200/4780 707C             12456                       IF    (R0,NZ),BEGIN
 000576 5900 7378/47D0_      00894 12470  1                      IF    (R0,GT,L'CPLIB),'VCALL NOTVALID'
 000584 5810 B08C/4111_      0008C 12496  1                      SCUPTOK R1
 00058C D207 BC88 1000 00C88 00000 12500  1                      MVC   CPDOUB,@R1          Save
 000592 58E0 7368/0DEE       00884 12501  1                      VCALL NOOPTS
 000598                            12505                       END
 000598 D207 B8AB BC88 008AB 00C88 12509                       MVC   CPLIB,CPDOUB        Set library
 00059E 47F0 C7DE            007DE 12510                       B     CVNEXT
 0005A2 18D8/9808 D004_            12511                       PEND
 DROP   *,R7
1MODE     (MODE4072) (12:48) (15MAR04) SET Command                                                                          Page   12
0Current Usings:  (CP,R11) (CV,R12)
0Loc    Object Code    Addr1 Addr2  Stmt Lv Lineno    Source Statement           (Hibal 5, Asmedit 3.3)  HLASM R4.0  2004/03/15 12.48
+___    ______ ____    _____ _____  ____ __ ______    ______ _________
00005B0 50E0 D000/9008_      00000 12532              SETRETRN PROC ,
 USING  *,R7
 0005CA 9202 BD89      00D89       12571                       SET   CPFRDEXE            Set to use exec line no
 0005CE 58E0 72CE/0DEE       00898 12577                       VCALL SCNEXFR
 0005D4 1B55                       12581                       CLEAR R5
 0005D6 5810 B08C/1B00_      0008C 12585                       SCAN  CURRPRT1
 000628 58E0 72B2/0DEE       0087C 12617                       SCANCHK
 00062E 5050 B764            00764 12622                       ST    R5,CPRETURN
 000632 47F0 C7DE            007DE 12623                       B     CVNEXT
 000636 18D8/9808 D004_            12624                       PEND
 DROP   *,R7
                                   12644
 000644 50E0 D000/9008_      00000 12645              SETCURR  PROC
 USING  *,R7
 00065E 58E0 723A/0DEE       00898 12684                       VCALL SCNEXFR             See if exec or active wanted
 000664 1B55                       12688                       CLEAR R5                  Use 0 as default set
 000666 5810 B08C/1B00_      0008C 12692                       SCAN  CURRPRT1            Scan options
                                   12724                       COMMENT                   Set * for active or exec
 0006B8 9502 BD89/4770_00D89       12725                       IF    CPFRDEXE,BEGIN      if exec
 0006C0 5050 B75C            0075C 12740  1                      ST    R5,CPEXLINE
 0006C4                            12741                       END
 0006C4 706A/47F0 706E 006C4 006BE 12745                       ELSE  BEGIN               else, must be active
 0006C8 5050 B5A8            005A8 12756  1                      ST    R5,CPACLNO          Set current for active file
 0006CC                            12757                       END
 0006CC 47F0 C7DE            007DE 12761                       B     CVNEXT
 0006D0 18D8/9808 D004_            12762                       PEND
 DROP   *,R7
                                   12782              *
                                   12783              *
 0006DE 50E0 D000/9008_      00000 12784              CURRTO   PROC
 USING  *,R7
 0006F8 58E0 B08C/D2AF_      0008C 12823                       SCPUSH ,
 000706 5810 B08C/1B00_      0008C 12829                       SCAN  ,
 000754 58E0 7184/0DEE       0087C 12860                       SCANCHK
 00075A 1200/4780 C7F0             12865                       IF    (R0,Z),CVABSENT
 000760 58E0 B08C/4BD0_      0008C 12882                       SCPOP ,
 00076E 18D8/9808 D004_            12888                       PEND
 DROP   *,R7
                                   12908
 00077C 50E0 D000/9008_      00000 12909              CURLINE  PROC
 USING  *,R7
 000796 1850                       12948                       LR    R5,R0               current value
 000798 5058 0018            00018 12949                       PRETURN (R5)              Remember specified line no
 00079C 18D8/9808 D004_            12951                       PEND
 DROP   *,R7
                                   12971
 0007AA 50E0 D000/9008_      00000 12972              CURMIN   PROC
 USING  *,R7
 0007C4 5850 70DC            008A0 13011                       L     R5,=F'-1'           Set current to -1
 0007C8 5058 0018            00018 13012                       PRETURN (R5)              Remember specified line no
 0007CC 18D8/9808 D004_            13014                       PEND
 DROP   *,R7
                                   13034
 0007DA 50E0 D000/9008_      00000 13035              SETEXEC  PROC
1MODE     (MODE4072) (12:48) (15MAR04) SET Command                                                                          Page   13
0Current Usings:  (*,R7) (CP,R11) (CV,R12)
0Loc    Object Code    Addr1 Addr2  Stmt Lv Lineno    Source Statement           (Hibal 5, Asmedit 3.3)  HLASM R4.0  2004/03/15 12.48
+___    ______ ____    _____ _____  ____ __ ______    ______ _________
0USING  *,R7
 0007F4 5810 B08C/1B00_      0008C 13074                       SCAN  SETEXPRT
 000846 58E0 7088/0DEE       0087C 13106                       SCANCHK
 00084C 47F0 C7DE            007DE 13111                       B     CVNEXT
 000850 18D8/9808 D004_            13112                       PEND
 DROP   *,R7
1MODE     (MODE4072) (12:48) (15MAR04) SET Command                                                                          Page   14
0Current Usings:  (CP,R11) (CV,R12)
0Loc    Object Code    Addr1 Addr2  Stmt Lv Lineno    Source Statement           (Hibal 5, Asmedit 3.3)  HLASM R4.0  2004/03/15 12.48
+___    ______ ____    _____ _____  ____ __ ______    ______ _________
0                                  13133                       QLTORG
1MODE     (MODE4072) (12:48) (15MAR04) SET Command                                                                          Page   15
0Current Usings:  (CP,R11) (CV,R12)
0Loc    Object Code    Addr1 Addr2  Stmt Lv Lineno    Source Statement           (Hibal 5, Asmedit 3.3)  HLASM R4.0  2004/03/15 12.48
+___    ______ ____    _____ _____  ____ __ ______    ______ _________
0                                  13168              *
 000000                00000 00002 13169              ESCWA    RECORD BEGIN
 000000                            13177  1           ESCCH      DS    CL2                 1 CHAR W/1CHAR OVERFLOW
 000002                00002 00002 13178                       END
                                   13187
 0008CC 50E0 D000/9008_      00000 13188              SETESCAP PROC  ESCWA
 USING  *,R7
 USING  ESCWA-(4+36),R8
 0008E6 5810 B08C/1B00_      0008C 13238                       SCAN  ,
 000934 58E0 77FE/0DEE       010E4 13269                       SCANCHK
 00093A 58F0 B08C/4110_      0008C 13274                       SCDQUOTE ESCCH,L'ESCCH
 00094C 1200/4770 707A             13297                       IF    (R0,Z),BEGIN
 000952 9200 B8BA      008BA       13311  1                      CLEAR CPESCAPE
 000956 58E0 7806/0DEE       010EC 13318  1                      ACALL SETIGNOR
 00095C 47F0 C7DE            007DE 13322  1                      B     CVNEXT
 000960                            13323                       END
 000960 5900 780A/4780_      010F0 13327                       IF    (R0,NE,1),BEGIN
 000968 58E0 780E/0DEE       010F4 13344  1                      VCALL NOTVALID
 00096E                            13348                       END
 00096E 954A 1000/47B0_00000       13352                       IF    (@R1,LT,X'4A'),BEGIN
 000976 D207 B886 77F2_00886 010D8 13368  1                      ERROR 'Supplied character is not valid for escape use',,INVESC
 000988                            13376                       END
 000988 9500 B8BB/4780_008BB       13380                       IF    ((CPSKIP,NE,0),AND,(CPSKIP,EQ,@R1)),BEGIN
 00099A 4110 786E/4100_      01154 13414  1                      ERROR 'ESCAPE AND SKIP CHAR CAN''T BE THE SAME'
 0009A6                            13421                       END
 0009A6 D200 B8BA 8028 008BA 00000 13425                       MVC   CPESCAPE,ESCCH
 0009AC 58E0 7806/0DEE       010EC 13426                       ACALL SETIGNOR
 0009B2 47F0 C7DE            007DE 13430                       B     CVNEXT
 0009B6 18D8/9808 D004_            13431                       PEND
 DROP   ESCWA-(4+36),R8
 DROP   *,R7
                                   13456
 000000                00000 00002 13457              SKIPWA   RECORD BEGIN
 000000                            13465  1           SKIPCH     DS    CL2                 1 CHAR W/1CHAR OVERFLOW
 000002                00002 00002 13466                       END
                                   13475
 0009C4 50E0 D000/9008_      00000 13476              SETSKIP  PROC  SKIPWA
 USING  *,R7
 USING  SKIPWA-(4+36),R8
 0009DE 5810 B08C/1B00_      0008C 13526                       SCAN  ,
 000A2C 58E0 7706/0DEE       010E4 13557                       SCANCHK
 000A32 58F0 B08C/4110_      0008C 13562                       SCDQUOTE SKIPCH,L'SKIPCH
 000A44 1200/4770 707A             13585                       IF    (R0,Z),BEGIN
 000A4A 9200 B8BB      008BB       13599  1                      CLEAR CPSKIP
 000A4E 58E0 770E/0DEE       010EC 13606  1                      ACALL SETIGNOR
 000A54 47F0 C7DE            007DE 13610  1                      B     CVNEXT
 000A58                            13611                       END
 000A58 5900 7712/4780_      010F0 13615                       IF    (R0,NE,1),BEGIN
 000A60 58E0 7716/0DEE       010F4 13632  1                      VCALL NOTVALID
 000A66                            13636                       END
 000A66 9500 B8BA/4780_008BA       13640                       IF    ((CPESCAPE,NE,0),AND,(CPESCAPE,EQ,@R1)),BEGIN
 000A78 4110 7776/4100_      01154 13674  1                      ERROR 'ESCAPE AND SKIP CHAR CAN''T BE THE SAME'
 000A84                            13681                       END
 000A84 D200 B8BB 8028 008BB 00000 13685                       MVC   CPSKIP,SKIPCH
1MODE     (MODE4072) (12:48) (15MAR04) SET Command                                                                          Page   16
0Current Usings:  (*,R7) (SKIPWA-(4+36),R8) (CP,R11) (CV,R12)
0Loc    Object Code    Addr1 Addr2  Stmt Lv Lineno    Source Statement           (Hibal 5, Asmedit 3.3)  HLASM R4.0  2004/03/15 12.48
+___    ______ ____    _____ _____  ____ __ ______    ______ _________
0000A8A 58E0 770E/0DEE       010EC 13686                       ACALL SETIGNOR
 000A90 47F0 C7DE            007DE 13690                       B     CVNEXT
 000A94 18D8/9808 D004_            13691                       PEND
 DROP   SKIPWA-(4+36),R8
 DROP   *,R7
                                   13716              *
                                   13717              *
 000AA2 50E0 D000/9008_      00000 13718              SETRSCN  PROC
 USING  *,R7
 000ABC 4000 B8B8            008B8 13757                       STH   R0,CPRSCNVL         Set rescan count
 000AC0 58E0 7630/0DEE       010EC 13758                       ACALL SETIGNOR            NO RETURN
 000AC6 18D8/9808 D004_            13762                       PEND
 DROP   *,R7
                                   13782
 000AD4 50E0 D000/9008_      00000 13783              SETIGNOR PROC
 USING  *,R7
 000AEE 5810 B08C/1B00_      0008C 13822                       SCAN  ,
 000B3C 58E0 75F6/0DEE       010E4 13853                       SCANCHK
 000B42 1200/4780 C7DE             13858                       IF    (R0,Z),CVNEXT
 000B48                            13875                       LOOP  BEGIN
 000B48 41F0 B050/58E0_      00050 13881  1                      TSEG  (R1),(R0),B
 000B52 5810 B08C/1B00_      0008C 13905  1                      SCAN  ,                   More?
 000BA0 1200/4770 705A             13936                       UNTIL (R0,Z),END
 000BA6 4110 768C/4100_      0117A 13958                       SETMSG '-- IGNORED'
 000BAE 47F0 C7D0            007D0 13962                       B     CVNXTMSG
 000BB2 18D8/9808 D004_            13963                       PEND
 DROP   *,R7
                                   13983
 000BC0 50E0 D000/9008_      00000 13984              SETORVYL PROC
 USING  *,R7
 000BDA 95D5 BD24/4770_00D24       14023                       IF    (CPCMNM,EQ,'N'),BEGIN  Set noorvyl...
 000BE2 D707 B8BC B8BC 008BC 008BC 14040  1                      CLEAR CPORVYL             Clear subsystem name
 000BE8 47F0 C7DE            007DE 14047  1                      B     CVNEXT
 000BEC                            14048                       END
                                   14052
 000BEC 5810 B08C/1B00_      0008C 14053                       SCAN  ,
 000C3A 58E0 750A/0DEE       010E4 14084                       SCANCHK ,
 000C40 58F0 B08C/41FF_      0008C 14089                       SCUPTOK R15
 000C48 1200/4770 70B0             14093                       IF    (R0,Z),BEGIN             Set to default...
 000C4E 41F0 C030            00030 14107  1                      LA    R15,CVORVSSN        Our ORVYL
 000C52 9110 C4C4/47E0_004C4       14108  1                      IF    CVFRLG,'LA R15,CVRLGSSN'  ...their ORVYL
 000C5E 181F/4100 0008             14129  1                      SETMSG (R15),8
 000C64 9500 F000/4770_00000       14143  1                      IF    (@R15,EQ,X'00'),BEGIN
 000C6C 4110 7522/4100_      010FC 14159  2                        TSEG  'No default ORVYL for',,B
 000C7E 4110 C028/4100_      00028 14177  2                        ERROR CVWYLSSN
 000C8A                            14194  1                      END
 000C8A                            14198                       END
 000C8A 5900 7536/47D0_      01110 14202                       IF    (R0,GT,8),'VCALL NOTVALID'
                                   14228
 000C98 D504 75B2 F000_0118C 00000 14229                       IF    (@R15,NE,'ORVYL'),BEGIN
 000CA2 D505 75AA F000_01184 00000 14245  1                      IF    (@R15,EQ,'TORVYL'),EXIT
 000CAC D503 753A F000_01114 00000 14264  1                      IF    (@R15,EQ,'TEST'),EXIT
 000CB6 D502 75B7 F000_01191 00000 14283  1                      IF    (@R15,EQ,'NIZ'),EXIT
 000CC0 9120 B3BE/4710_003BE       14302  1                      IF    ~CPSFSPR,'VCALL NOTVALID'   Can't set a funny name
1MODE     (MODE4072) (12:48) (15MAR04) SET Command                                                                          Page   17
0Current Usings:  (*,R7) (CP,R11) (CV,R12)
0Loc    Object Code    Addr1 Addr2  Stmt Lv Lineno    Source Statement           (Hibal 5, Asmedit 3.3)  HLASM R4.0  2004/03/15 12.48
+___    ______ ____    _____ _____  ____ __ ______    ______ _________
0000CCE                            14326                       END
                                   14330
 000CCE D507 C020 F000_00020 00000 14331                       IF    ((@R15,EQ,CVMILSSN),OR,(@R15,EQ,CVWYLSSN)),BEGIN
 000CE2 58E0 751A/0DEE       010F4 14364  1                      VCALL NOTVALID
 000CE8                            14368                       END
                                   14372
 000CE8 D207 B8BC F000 008BC 00000 14373                       MVC   CPORVYL,@R15        Set ORVYL subsystem name
 000CEE 47F0 C7DE            007DE 14374                       B     CVNEXT
 000CF2 18D8/9808 D004_            14375                       PEND
 DROP   *,R7
1MODE     (MODE4072) (12:48) (15MAR04) SET Command                                                                          Page   18
0Current Usings:  (CP,R11) (CV,R12)
0Loc    Object Code    Addr1 Addr2  Stmt Lv Lineno    Source Statement           (Hibal 5, Asmedit 3.3)  HLASM R4.0  2004/03/15 12.48
+___    ______ ____    _____ _____  ____ __ ______    ______ _________
0000D00 50E0 D000/9008_      00000 14396              STMODE   PROC
 USING  *,R7
 000D1A 5810 B08C/1B00_      0008C 14435                       SCAN  STMODPRT      Scan for modes
 000D6C 58E0 73CA/0DEE       010E4 14467                       SCANCHK
 000D72 47F0 C7DE            007DE 14472                       B     CVNEXT
 000D76 18D8/9808 D004_            14473                       PEND
 DROP   *,R7
                                   14493
 000D84 50E0 D000/9008_      00000 14494              STRTRY   PROC
 USING  *,R7
 000D9E 9501 B38C/4780_0038C       14533                       IF    CPSTCONS,EXIT       Console can't SET MODE RETRY
 000DA6 9640 B476      00476       14551                       SET   CPGFLG3.CPFCMDFX
 000DAA 18D8/9808 D004_            14558                       PEND
 DROP   *,R7
                                   14578
 000DB8 50E0 D000/9008_      00000 14579              STWARN   PROC
 USING  *,R7
 000DD2 D201 B8B6 73B8 008B6 0118A 14618                       MVC   CPWRNCNT,=H'30'     Set default
 000DD8 5810 B08C/1B00_      0008C 14619                       SCAN  WARNPRT
 000E2A 58E0 7312/0DEE       010E4 14651                       SCANCHK
 000E30 1BFF                       14656                       CLEAR R15
 000E32 18D8/9808 D004_            14660                       PEND
 DROP   *,R7
                                   14680
 000E40 50E0 D000/9008_      00000 14681              STNOWA   PROC
 USING  *,R7
 000E5A D701 B8B6 B8B6 008B6 008B6 14720                       CLEAR CPWRNCNT
 000E60 18D8/9808 D004_            14727                       PEND
 DROP   *,R7
                                   14747              *
                                   14748              * integer max count for warn
                                   14749              *
 000E70 4040404040404040_          14750              WARNPRT  SCKW  ,WRNNOINT,NULL
 000E98 4040404040404040_          14765                       SCKW  ,WRNINT,I,32767
 000EC0 4040404040404040_          14780                       SCKW  ,WRNNOINT
                                   14795
 000EE8 50E0 D000/9008_      00000 14796              WRNNOINT PROC
 USING  *,R7
 000F02 D701 B8B6 B8B6 008B6 008B6 14835                       CLEAR CPWRNCNT
 000F08 58E0 B08C/58FE_      0008C 14842                       SCBKUP ,
 000F3E 41F0 0004            00004 14898                       LA    R15,4
 000F42 18D8/9808 D004_            14899                       PEND
 DROP   *,R7
                                   14919
 000F50 50E0 D000/9008_      00000 14920              WRNINT   PROC  ,                   IF NOT WARN = <INT>
 USING  *,R7
 000F6A 4000 B8B6            008B6 14959                       STH   R0,CPWRNCNT         SET NOWARN AND BACKUP SCAN
 000F6E 41F0 0004            00004 14960                       LA    R15,4
 000F72 18D8/9808 D004_            14961                       PEND
 DROP   *,R7
1MODE     (MODE4072) (12:48) (15MAR04) SET Command                                                                          Page   19
0Current Usings:  (CP,R11) (CV,R12)
0Loc    Object Code    Addr1 Addr2  Stmt Lv Lineno    Source Statement           (Hibal 5, Asmedit 3.3)  HLASM R4.0  2004/03/15 12.48
+___    ______ ____    _____ _____  ____ __ ______    ______ _________
0                                  14982              ¿þþþþþþþþþþþþþþþþþþþþþþþþþþþþþþþþþþþþþþþþþþþþþþþþþþþþþþþþþþþþþþþþþþþþþÜ
                                   14983              Ÿ                                                                     Ÿ
                                   14984              Ÿ  SET LOGMODE command.                                               Ÿ
                                   14985              Ÿ                                                                     Ÿ
                                                      ¾þþþþþþþþþþþþþþþþþþþþþþþþþþþþþþþþþþþþþþþþþþþþþþþþþþþþþþþþþþþþþþþþþþþþþ»
0000F80 50E0 D000/9008_      00000 14986              SETLMODE PROC
 USING  *,R7
 000F9A 5810 B08C/1B00_      0008C 15025                       SCAN  LMODEPRT      Scan for vmodes
 000FEC 58E0 714A/0DEE       010E4 15057                       SCANCHK
 000FF2 47F0 C7DE            007DE 15062                       B     CVNEXT
 000FF6 18D8/9808 D004_            15063                       PEND
 DROP   *,R7
                                   15083
 001004 50E0 D000/9008_      00000 15084              STNOLPAT PROC
 USING  *,R7
 00101E 947F C068      00068       15123                       CLEAR   CVLGPATH
 001022 18D8/9808 D004_            15130                       PEND
 DROP   *,R7
                                   15150
 001030 50E0 D000/9008_      00000 15151              STLPATH  PROC
 USING  *,R7
 00104A 9680 C068      00068       15190                       SET     CVLGPATH
 00104E 18D8/9808 D004_            15196                       PEND
 DROP   *,R7
                                   15216                       ¿þþþþþþþþþþþþþþþþþþþþþþþþÜ
                                   15217                       Ÿ  SET LOGMODE options.  Ÿ
                                   15218                       ¾þþþþþþþþþþþþþþþþþþþþþþþþ»
 00105C D5D6D7C1E3C84040_          15219              LMODEPRT SCKW  NOPATH,STNOLPAT
 001084 D7C1E3C840404040_          15234                       SCKW  PATH,STLPATH
 0010AC 4040404040404040_          15249                       SCKW  ,V(NOTVALID)
                                   15264
                                   15265                       QLTORG
1MODE     (MODE4072) (12:48) (15MAR04) SET Command                                                                          Page   20
0Current Usings:  (CP,R11) (CV,R12)
0Loc    Object Code    Addr1 Addr2  Stmt Lv Lineno    Source Statement           (Hibal 5, Asmedit 3.3)  HLASM R4.0  2004/03/15 12.48
+___    ______ ____    _____ _____  ____ __ ______    ______ _________
0                                  15300              ¿þþþþþþþþþþþþþþþþþþþþþþþþþþþþþþþþþþþþþþþþþþþþþþþþþþþþþþþþþþþþþþþþþþþþþÜ
                                   15301              Ÿ                                                                     Ÿ
                                   15302              Ÿ  SET VMODE command.                                                 Ÿ
                                   15303              Ÿ                                                                     Ÿ
                                                      ¾þþþþþþþþþþþþþþþþþþþþþþþþþþþþþþþþþþþþþþþþþþþþþþþþþþþþþþþþþþþþþþþþþþþþþ»
0001194 50E0 D000/9008_      00000 15304              SETVMODE PROC
 USING  *,R7
 0011AE 5810 B08C/1B00_      0008C 15343                       SCAN  VMODEPRT      Scan for vmodes
 001200 58E0 7142/0DEE       012F0 15375                       SCANCHK
 001206 47F0 C7DE            007DE 15380                       B     CVNEXT
 00120A 18D8/9808 D004_            15381                       PEND
 DROP   *,R7
                                   15401
 001218 50E0 D000/9008_      00000 15402              STNOSPI  PROC
 USING  *,R7
 001232 9680 B480      00480       15441                       SET   CPGFNOSPIEDIT
 001236 18D8/9808 D004_            15447                       PEND
 DROP   *,R7
                                   15467
 001244 50E0 D000/9008_      00000 15468              STSPI    PROC
 USING  *,R7
 00125E 947F B480      00480       15507                       CLEAR CPGFNOSPIEDIT
 001262 18D8/9808 D004_            15514                       PEND
 DROP   *,R7
                                   15534                       ¿þþþþþþþþþþþþþþþþþþþþþþÜ
                                   15535                       Ÿ  SET VMODE options.  Ÿ
                                   15536                       ¾þþþþþþþþþþþþþþþþþþþþþþ»
 001270 D5D6E2D7C9C5C4C9_          15537              VMODEPRT SCKW  NOSPIEDIT,STNOSPI
 001298 E2D7C9C5C4C9E340_          15552                       SCKW  SPIEDIT,STSPI
 0012C0 4040404040404040_          15567                       SCKW  ,V(NOTVALID)
                                   15582
                                   15583                       QLTORG
1MODE     (MODE4072) (12:48) (15MAR04) SET Command                                                                          Page   21
0Current Usings:  (CP,R11) (CV,R12)
0Loc    Object Code    Addr1 Addr2  Stmt Lv Lineno    Source Statement           (Hibal 5, Asmedit 3.3)  HLASM R4.0  2004/03/15 12.48
+___    ______ ____    _____ _____  ____ __ ______    ______ _________
0                                  15600              ¿þþþþþþþþþþþþþþþþþþþþþþþþþþþþþþþþþþþþþþþþþþþþþþþþþþþþþþþþþþþþþþþþþþþþþÜ
                                   15601              Ÿ                                                                     Ÿ
                                   15602              Ÿ  SETCPRMT -- SET CPROMPT Command.                                   Ÿ
                                   15603              Ÿ                                                                     Ÿ
                                                      ¾þþþþþþþþþþþþþþþþþþþþþþþþþþþþþþþþþþþþþþþþþþþþþþþþþþþþþþþþþþþþþþþþþþþþþ»
00012F6 50E0 D000/9008_      00000 15604              SETCPR   PROC
 USING  *,R7
                                   15643
 001310 5810 B08C/1B00_      0008C 15644                       SCAN
 00135E 58E0 76B4/0DEE       019C4 15675                       SCANCHK
 001364 1200/4770 706A             15680                       IF    (R0,Z),BEGIN        Reset to default...
 00136A D701 B7FE B7FE_007FE 007FE 15694  1                      CLEAR CPCPLEN,CPCPRMT
 001376 947F B474      00474       15706  1                      CLEAR CPGFCPR             No explicit CPROMPT now
 00137A                            15713                       END
                                   15717
 00137A 706E/47F0 70AE 0137A 01368 15718                       ELSE  BEGIN               Set new CPROMPT...
 00137E 957F 1000/4780_00000       15729  1                      IF    ((@R1,NE,'"'),AND,(@R1,NE,'''')),BEGIN
 00138E 41F0 B050/58E0_      00050 15760  2                        TSEG  (R1),(R0)
 001398 4110 76BC/4100_      019CC 15784  2                        ERROR ': Command prompt string not properly quoted.'
 0013A4                            15791  1                      END
                                   15795  1
 0013A4 58F0 B08C/4110_      0008C 15796  1                      SCDQUOTE CPCPRMT,L'CPCPRMT
 0013B6 4000 B7FE            007FE 15819  1                      STH   R0,CPCPLEN          Save command prompt length
 0013BA 9680 B474      00474       15820  1                      SET   CPGFCPR             CPROMPT text set explicitly
 0013BE                            15826                       END
                                   15830
 0013BE 58E0 76EC/0DEE       019FC 15831                       VCALL NOOPTS              Don't allow trailing junk
                                   15835
 0013C4 47F0 C7DE            007DE 15836                       B     CVNEXT
 0013C8 18D8/9808 D004_            15837                       PEND
 DROP   *,R7
1MODE     (MODE4072) (12:48) (15MAR04) SET Command                                                                          Page   22
0Current Usings:  (CP,R11) (CV,R12)
0Loc    Object Code    Addr1 Addr2  Stmt Lv Lineno    Source Statement           (Hibal 5, Asmedit 3.3)  HLASM R4.0  2004/03/15 12.48
+___    ______ ____    _____ _____  ____ __ ______    ______ _________
0                                  15858              ¿þþþþþþþþþþþþþþþþþþþþþþþþþþþþþþþþþþþþþþþþþþþþþþþþþþþþþþþþþþþþþþþþþþþþþÜ
                                   15859              Ÿ                                                                     Ÿ
                                   15860              Ÿ        SET XDUMP                                                    Ÿ
                                   15861              Ÿ                                                                     Ÿ
                                                      ¾þþþþþþþþþþþþþþþþþþþþþþþþþþþþþþþþþþþþþþþþþþþþþþþþþþþþþþþþþþþþþþþþþþþþþ»
00013D6 50E0 D000/9008_      00000 15862              SXDUMP   PROC
 USING  *,R7
                                   15901
                                   15902                       COMMENT                   If bad option, give msg
 0013F0 58E0 760C/0DEE       019FC 15903                       VCALL NOOPTS
 0013F6 9680 B7E4      007E4       15907                       SET   CPFXDUMP
 0013FA 47F0 C7DE            007DE 15913                       B     CVNEXT
 0013FE 18D8/9808 D004_            15914                       PEND
 DROP   *,R7
1MODE     (MODE4072) (12:48) (15MAR04) SET Command                                                                          Page   23
0Current Usings:  (CP,R11) (CV,R12)
0Loc    Object Code    Addr1 Addr2  Stmt Lv Lineno    Source Statement           (Hibal 5, Asmedit 3.3)  HLASM R4.0  2004/03/15 12.48
+___    ______ ____    _____ _____  ____ __ ______    ______ _________
0                                  15935                       ¿þþþþþþþþþþþþþþþÜ
                                   15936                       Ÿ  SET NOXDUMP  Ÿ
                                   15937                       ¾þþþþþþþþþþþþþþþ»
 00140C 50E0 D000/9008_      00000 15938              SNOXDUMP PROC
 USING  *,R7
                                   15977
                                   15978                       COMMENT                   If bad option, give msg
 001426 58E0 75D6/0DEE       019FC 15979                       VCALL NOOPTS
 00142C 947F B7E4      007E4       15983                       CLEAR CPFXDUMP
 001430 47F0 C7DE            007DE 15990                       B     CVNEXT
 001434 18D8/9808 D004_            15991                       PEND
 DROP   *,R7
1MODE     (MODE4072) (12:48) (15MAR04) SET Command                                                                          Page   24
0Current Usings:  (CP,R11) (CV,R12)
0Loc    Object Code    Addr1 Addr2  Stmt Lv Lineno    Source Statement           (Hibal 5, Asmedit 3.3)  HLASM R4.0  2004/03/15 12.48
+___    ______ ____    _____ _____  ____ __ ______    ______ _________
0                                  16012                       ¿þþþþþþþþþþþþþþÜ
                                   16013                       Ÿ  SET XQUIET  Ÿ
                                   16014                       ¾þþþþþþþþþþþþþþ»
 001442 50E0 D000/9008_      00000 16015              SXQUIET  PROC
 USING  *,R7
                                   16054
                                   16055                       COMMENT                   If bad option, give msg
 00145C 58E0 75A0/0DEE       019FC 16056                       VCALL NOOPTS
 001462 9640 B7E4      007E4       16060                       SET   CPFXQT
 001466 47F0 C7DE            007DE 16066                       B     CVNEXT
 00146A 18D8/9808 D004_            16067                       PEND
 DROP   *,R7
1MODE     (MODE4072) (12:48) (15MAR04) SET Command                                                                          Page   25
0Current Usings:  (CP,R11) (CV,R12)
0Loc    Object Code    Addr1 Addr2  Stmt Lv Lineno    Source Statement           (Hibal 5, Asmedit 3.3)  HLASM R4.0  2004/03/15 12.48
+___    ______ ____    _____ _____  ____ __ ______    ______ _________
0                                  16088                       ¿þþþþþþþþþþþþþþþþÜ
                                   16089                       Ÿ  SET NOXQUIET  Ÿ
                                   16090                       ¾þþþþþþþþþþþþþþþþ»
 001478 50E0 D000/9008_      00000 16091              SNOXQT   PROC
 USING  *,R7
                                   16130
                                   16131                       COMMENT                   If bad option, give msg
 001492 58E0 756A/0DEE       019FC 16132                       VCALL NOOPTS
 001498 94BF B7E4      007E4       16136                       CLEAR CPFXQT
 00149C 47F0 C7DE            007DE 16143                       B     CVNEXT
 0014A0 18D8/9808 D004_            16144                       PEND
 DROP   *,R7
1MODE     (MODE4072) (12:48) (15MAR04) SET Command                                                                          Page   26
0Current Usings:  (CP,R11) (CV,R12)
0Loc    Object Code    Addr1 Addr2  Stmt Lv Lineno    Source Statement           (Hibal 5, Asmedit 3.3)  HLASM R4.0  2004/03/15 12.48
+___    ______ ____    _____ _____  ____ __ ______    ______ _________
0                                  16165              ¿þþþþþþþþþþþþþþþþþþþþþþþþþþþþþþþþþþþþþþþþþþþþþþþþþþþþþþþþþþþþþþþþþþþþþÜ
                                   16166              Ÿ                                                                     Ÿ
                                   16167              Ÿ  SETACCT -- SET ACCOUNT command.                                    Ÿ
                                   16168              Ÿ             (Also, SET USER and SET GROUP commands.)                Ÿ
                                   16169              Ÿ                                                                     Ÿ
                                                      ¾þþþþþþþþþþþþþþþþþþþþþþþþþþþþþþþþþþþþþþþþþþþþþþþþþþþþþþþþþþþþþþþþþþþþþ»
00014AE 50E0 D000/9008_      00000 16170              SETACCT  PROC
 USING  *,R7
 0014C8 58E0 7538/0DEE       01A00 16209                       VCALL EXIT12              LOCAL exit - Set local account
 0014CE 47F0 C7DE            007DE 16213                       B     CVNEXT
 0014D2 18D8/9808 D004_            16214                       PEND
 DROP   *,R7
1MODE     (MODE4072) (12:48) (15MAR04) SET Command                                                                          Page   27
0Current Usings:  (CP,R11) (CV,R12)
0Loc    Object Code    Addr1 Addr2  Stmt Lv Lineno    Source Statement           (Hibal 5, Asmedit 3.3)  HLASM R4.0  2004/03/15 12.48
+___    ______ ____    _____ _____  ____ __ ______    ______ _________
0                                  16235              ¿þþþþþþþþþþþþþþþþþþþþþþþþþþþþþþþþþþþþþþþþþþþþþþþþþþþþþþþþþþþþþþþþþþþþþÜ
                                   16236              Ÿ                                                                     Ÿ
                                   16237              Ÿ     SET PREFIX command enters at "SETPFX"                           Ÿ
                                   16238              Ÿ     SET operand of other commands enters at "SETPFXNS"              Ÿ
                                   16239              Ÿ                                                                     Ÿ
                                   16240              Ÿ                                                                     Ÿ
                                   16241              Ÿ                                                                     Ÿ
                                                      ¾þþþþþþþþþþþþþþþþþþþþþþþþþþþþþþþþþþþþþþþþþþþþþþþþþþþþþþþþþþþþþþþþþþþþþ»
00014E0 50E0 D000/9008_      00000 16242              SETPFX   PROC
 USING  *,R7
 0014FA D202 BD24 754C 00D24 01A46 16281                       MVC   CPCMNM,=C'PFX'      Indicate set prefix
 001500 9620 BD51      00D51       16282                       OI    CPLFLG2,CPFDSNMS    Null/no default on dsn ok
 001504 58E0 B08C/D2AF_      0008C 16283                       SCPUSH ,
 001512 5810 B08C/1B00_      0008C 16289                       SCAN  ,
 001560 58E0 74CA/0DEE       019C4 16320                       SCANCHK
 001566 1200/4770 7082             16325                       IF    (R0,Z),BEGIN        no prefix
 00156C D703 B628 B628_00628 00628 16339  1                      CLEAR CPAFNAMEL,CPAHOSTL
 001578 47F0 C7DE            007DE 16351  1                      B     CVNEXT
 00157C                            16352                       END
 00157C 58E0 B08C/4BD0_      0008C 16356                       SCPOP ,
 00158A 58E0 750A/0DEE       01A04 16362                       VCALL DOFNAME             Get the name
 001590 5810 B08C/1B00_      0008C 16366                       SCAN  NAMEPRT             Also scan for dsn options
 0015E2 58E0 74CA/0DEE       019C4 16398                       SCANCHK
 0015E8 58E0 7512/0DEE       01A0C 16403                       VCALL FNAMEFIN            Process all dsn options
 0015EE 58E0 7516/0DEE       01A10 16407                       VCALL NRESOLVE            Resolve name for prefix
 0015F4 58E0 751A/0DEE       01A14 16411                       ACALL SETPFXNS
 0015FA 47F0 C7DE            007DE 16415                       B     CVNEXT
 0015FE 18D8/9808 D004_            16416                       PEND
 DROP   *,R7
1MODE     (MODE4072) (12:48) (15MAR04) SET Command                                                                          Page   28
0Current Usings:  (CP,R11) (CV,R12)
0Loc    Object Code    Addr1 Addr2  Stmt Lv Lineno    Source Statement           (Hibal 5, Asmedit 3.3)  HLASM R4.0  2004/03/15 12.48
+___    ______ ____    _____ _____  ____ __ ______    ______ _________
0                                  16437              *
                                   16438              *
                                   16439              *  SET PREFIX - internal version
                                   16440              *
                                   16441              *  NOTE:
                                   16442              *  this 'internal' version of set prefix, presumes that the
                                   16443              *  file info dsect (ffinfo) is set up correctly.  (ie. that
                                   16444              *  an EXTOPEN, or EXTRNAME has taken place.
                                   16445              *
                                   16446              *  NOTE2:
                                   16447              *  EXTRNAME will be name resolve call.
                                   16448              *
                                   16449              *
 00160C 50E0 D000/9008_      00000 16450              SETPFXNS XPROC
 USING  *,R7
 001626 50F0 D000/41D0_      00000 16490                       XPUSH R15                 ,, IS THIS A YUCK OR WHAT
                                   16493              *
                                   16494              *        IF    (CPCMNM,EQ,'PFX'),BEGIN  it's set prefix...
                                   16495              *        VCALL NOOPTS
                                   16496              *        END
                                   16497              *
                                   16498                       COMMENT                   GET NAME FROM FFINFO DSECT
 00162E 5860 BE54            00E54 16499                       L     R6,CPFINFOP
 USING  FFINFO,R6                  16500                       USING FFINFO,R6
 001632 1266/4780 7050_            16509                       IF    ((R6,NZ),AND,(FFRNAMEL,NE,0),AND,~FFFOLD),BEGIN
 00164A D203 B628 6214 00628 00214 16552  1                      MVC   CPAFNAMEL,FFRNAMEL
 001650 D27F B62C 6218 0062C 00218 16553  1                      MVC   CPAFNAME,FFRNAME
 001656 D203 B6AC 608C 006AC 0008C 16554  1                      MVC   CPAHOSTL,FFHOSTL
 00165C D27F B6B0 6090 006B0 00090 16555  1                      MVC   CPAHOST,FFHOST
 001662 D200 B626 6000 00626 00000 16556  1                      MVC   CPAFTYPE,FFTYPE
 001668 9503 6000/4770_00000       16557  1                      IF    FFFSAM,'CLEAR CPAHOSTL'  NO HOST FOR SAMSON FILES
 DROP   FFINFO,R6                  16584  1                      DROP  R6
 001676                            16591                       END
                                   16595
 001676 7054/7054/7054_01676 01636 16596                       ELSE  BEGIN               ** DEBUG ** OLD FILE NAME STUFF
                                   16611  1
                                   16612  1                      COMMENT                   SET NAME
 00167A 4800 BF06            00F06 16613  1                      LH    R0,DSNWANL          Dsname length
 00167E 5900 73F2/47D0_      01A18 16614  1                      CEIL  R0,L'CPAFNAME
 00168A 5000 B628            00628 16633  1                      ST    R0,CPAFNAMEL
 00168E 4110 BE5C            00E5C 16634  1                      LA    R1,DSNWADSN         Dsname
 001692 1820                       16635  1                      LR    R2,R0
 001694 0620/1222/4740_            16636  1                      MOVE  R2,CPAFNAME,DSNWADSN
                                   16674  1
                                   16675  1                      COMMENT                   IF MEMBER ADD IT
 0016A0 4140 BE88            00E88 16676  1                      LA    R4,DSNWAMBR
 0016A4 9540 4000/4780_00000       16677  1                      IF    ((@R4,NE,' '),AND,(@R4,NE,X'00')),BEGIN
 0016B4 4130 B62C            0062C 16708  2                        LA    R3,CPAFNAME
 0016B8 5A30 B628            00628 16709  2                        A     R3,CPAFNAMEL
 0016BC 924D 3000      00000       16710  2                        MVI   @R3,C'('
 0016C0 5E30 73F6            01A1C 16711  2                        INCR  R3
 0016C4 D207 3000 BE88 00000 00E88 16714  2                        MVC   @R3(8),DSNWAMBR
 0016CA 5A30 73FA            01A20 16715  2                        A     R3,=F'8'
 0016CE 0630                       16716  2                        DECR  R3
1MODE     (MODE4072) (12:48) (15MAR04) SET Command                                                                          Page   29
0Current Usings:  (*,R7) (CP,R11) (CV,R12)
0Loc    Object Code    Addr1 Addr2  Stmt Lv Lineno    Source Statement           (Hibal 5, Asmedit 3.3)  HLASM R4.0  2004/03/15 12.48
+___    ______ ____    _____ _____  ____ __ ______    ______ _________
00016D0 9540 3000/4770_00000       16718  2                        WHILE (@R3,EQ,' '),BEGIN
 0016D8 0630                       16736  3                          DECR  R3
 0016DA 47F0 70AA            016D0 16738  2                        END
 0016DE 5E30 73F6            01A1C 16743  2                        INCR  R3
 0016E2 925D 3000      00000       16746  2                        MVI   @R3,C')'
 0016E6 5E30 73F6            01A1C 16747  2                        INCR  R3
 0016EA 4120 B62C            0062C 16750  2                        LA    R2,CPAFNAME
 0016EE 1B32                       16751  2                        SR    R3,R2
 0016F0 5030 B628            00628 16752  2                        ST    R3,CPAFNAMEL
 0016F4                            16753  1                      END
                                   16757  1
                                   16758  1                      COMMENT                   ADD HOST
 0016F4 4120 BE90            00E90 16759  1                      LA    R2,DSNON
 0016F8 4130 BE90            00E90 16760  1                      LA    R3,DSNON
 0016FC 5A30 73FE            01A24 16761  1                      A     R3,=A(L'DSNON)
 001700 0630                       16762  1                      DECR  R3
 001702 1932/4750 70F0_            16764  1                      WHILE ((R3,GE,R2),AND,(@R3,EQ,' ')),BEGIN
 001710 0630                       16796  2                        DECR  R3
 001712 47F0 70DC            01702 16798  1                      END
 001716 1932/4750 7104_            16803  1                      WHILE ((R3,GE,R2),AND,(@R3,EQ,X'00')),BEGIN
 001724 0630                       16835  2                        DECR  R3
 001726 47F0 70F0            01716 16837  1                      END
 00172A 5E30 73F6            01A1C 16842  1                      INCR  R3
 00172E 1B32                       16845  1                      SR    R3,R2
 001730 5030 B6AC            006AC 16846  1                      ST    R3,CPAHOSTL
 001734 0630/1233/4740_            16847  1                      MOVE  R3,CPAHOST,DSNON
                                   16885  1
                                   16886  1                      COMMENT                   ADD TYPE
                                   16887  1                      COMMENT  FFTYPE SET IN EXT FOR ANY AND ALL TYPES
 001740 9200 B626      00626       16888  1                      CLEAR CPAFTYPE
 001744 5860 BE54            00E54 16895  1                      L     R6,CPFINFOP
 001748 1266/4780 712E             16896  1                      IF    (R6,NZ),BEGIN
 USING  FFINFO,R6                  16910  2                        USING FFINFO,R6
 00174E D200 B626 6000 00626 00000 16919  2                        MVC   CPAFTYPE,FFTYPE
 DROP   FFINFO,R6                  16920  2                        DROP  R6
 001754                            16927  1                      END
 001754 9500 B626/4770_00626       16931  1                      IF    (CPAFTYPE,Z),BEGIN  FORCE TYPE IF NO FFINFO
 00175C 9205 B626      00626       16947  2                        MVI   CPAFTYPE,L'FFFOLD   (IE. FORCE TYPE FOR OLD SAVE)
 001760                            16948  1                      END
                                   16952  1
                                   16953  1                      COMMENT                   UNSET VOL IF CATALOG VOL
 001760 D502 7420 BD24_01A46 00D24 16954  1                      IF    ((CPCMNM,NE,'PFX'),AND,(DSNON6,EQ,DSNCATV)),BEGIN
 001774 D703 B6AC B6AC 006AC 006AC 16988  2                        CLEAR CPAHOSTL
 00177A                            16995  1                      END
 00177A                            16999                       END
                                   17003                       ¿þþþþþþþþþþþþþþþþþþþþþþþþþþþþþþþþþþþþþþþþþþþþþþþþþþþþþþþþÜ
                                   17004                       Ÿ  Zap generic "Text from ORVYL" Active file title if    Ÿ
                                   17005                       Ÿ    the prefix has changed.  See Dick Guertin for an    Ÿ
                                   17006                       Ÿ    explanation of why this is a good idea.  9/91, Niz  Ÿ
                                   17007                       ¾þþþþþþþþþþþþþþþþþþþþþþþþþþþþþþþþþþþþþþþþþþþþþþþþþþþþþþþþ»
 00177A D50E 7423 B5D6_01A49 005D6 17008                       IF    (CPATITL,EQ,'Text from ORVYL'),'CLEAR CPATITL'
                                   17037
 00178A 9680 BD56      00D56       17038                       SET   CPFSETP             This command set the prefix
 00178E 4BD0 741E/58F0_      01A44 17044                       XPOP  R15
1MODE     (MODE4072) (12:48) (15MAR04) SET Command                                                                          Page   30
0Current Usings:  (CP,R11) (CV,R12)
0Loc    Object Code    Addr1 Addr2  Stmt Lv Lineno    Source Statement           (Hibal 5, Asmedit 3.3)  HLASM R4.0  2004/03/15 12.48
+___    ______ ____    _____ _____  ____ __ ______    ______ _________
0001796 18D8/9808 D004_            17047                       PEND
 DROP   *,R7
1MODE     (MODE4072) (12:48) (15MAR04) SET Command                                                                          Page   31
0Current Usings:  (CP,R11) (CV,R12)
0Loc    Object Code    Addr1 Addr2  Stmt Lv Lineno    Source Statement           (Hibal 5, Asmedit 3.3)  HLASM R4.0  2004/03/15 12.48
+___    ______ ____    _____ _____  ____ __ ______    ______ _________
0                                  17068                       AIF   (NOT &JOBAUTH).AUTH1A
 0017A4 50E0 D000/9008_      00000 17069              SETAUTH  PROC
 USING  *,R7
 0017BE 5810 B08C/1B00_      0008C 17108                       SCAN  AUTHPRT
 001810 58E0 7206/0DEE       019C4 17140                       SCANCHK
 001816 94BF B477      00477       17145                       NI    CPGFLG4,255-CPFAUSET  indicate auth field unset
 00181A 47F0 C7DE            007DE 17146                       B     CVNEXT              Get next command
 00181E 18D8/9808 D004_            17147                       PEND
 DROP   *,R7
                                   17167
 00182C 50E0 D000/9008_      00000 17168              GOTACCT  PROC
 USING  *,R7
 001846 5810 B08C/4111_      0008C 17207                       SCUPTOK R1
 00184E 5900 71E6/4740_      01A2C 17211                       IF    ((R0,LT,6),OR,(R0,GT,8)),BEGIN
 00185E 58E0 71EE/0DEE       01A34 17244  1                      VCALL NOTVALID
 001864                            17248                       END
 001864 955B 1003/4780_00003       17252                       IF    (@R1+3,NE,'$'),'VCALL NOTVALID'
 001872 1841                       17277                       LR    R4,R1               Save ptr to account
 001874 185D                       17278                       LR    R5,R13              Pt to kwr space
 001876 41D0 D1F8            001F8 17279                       LA    R13,(KWRSIZE+3)/4*4(,R13)  get space
 USING  KWR,R5                     17280                       USING KWR,R5
 00187A D7FF 5000 5000_00000 00000 17289                       CLEAR KWR                 Init kwr
 001886 D201 5003 1004 00003 00004 17297                       MVC   KWRGRP,@R1+4        Move in group
 00188C D202 5000 1000 00000 00000 17298                       MVC   KWRUSER,@R1         And user
 001892 1815                       17299                       LR    R1,R5               And pt to kwr for chkkw
 001894 1B00                       17300                       CLEAR R0                  Standard options
 001896 58E0 71F2/0DEE       01A38 17304                       VCALL CHKKW               Find out if he knows kwd
 00189C D202 B8A4 4000 008A4 00000 17308                       MVC   CPAUTHUS,@R4        Move in user field
 0018A2 D201 B8A7 4004 008A7 00004 17309                       MVC   CPAUTHGP,@R4+4      And group
 0018A8 9640 B477      00477       17310                       OI    CPGFLG4,CPFAUSET    Authority set
 DROP   KWR,R5                     17311                       DROP  KWR
 0018AC 47F0 C7DE            007DE 17319                       B     CVNEXT              Get another commnad
 0018B0 18D8/9808 D004_            17320                       PEND
 DROP   *,R7
                                   17340              .AUTH1A  ANOP
1MODE     (MODE4072) (12:48) (15MAR04) SET Command                                                                          Page   32
0Current Usings:  (CP,R11) (CV,R12)
0Loc    Object Code    Addr1 Addr2  Stmt Lv Lineno    Source Statement           (Hibal 5, Asmedit 3.3)  HLASM R4.0  2004/03/15 12.48
+___    ______ ____    _____ _____  ____ __ ______    ______ _________
0                                  17342              ¿þþþþþþþþþþþþþþþþþþþþþþþþþþþþþþþþþþþþþþþþþþþþþþþþþþþþþþþþþþþþþþþþþþþþþÜ
                                   17343              Ÿ                                                                     Ÿ
                                   17344              Ÿ  SETWVOL -- SET WVOLUMES command.                                   Ÿ
                                   17345              Ÿ                                                                     Ÿ
                                                      ¾þþþþþþþþþþþþþþþþþþþþþþþþþþþþþþþþþþþþþþþþþþþþþþþþþþþþþþþþþþþþþþþþþþþþþ»
00018BE 50E0 D000/9008_      00000 17346              SETWVOL  PROC
 USING  *,R7
 0018D8 9120 B3BE/4710_003BE       17385                       IF    ~CPSFSPR,'VCALL NOTVALID'   Naugty naugty
                                   17409
 0018E6 186D/41D0 D020             17410                       XPUSH ,,L'CVVOL,PTR=R6
 0018EC D71D 6000 6000 00000 00000 17413                       CLEAR (@R6,L'CVVOL)
 0018F2 1856                       17420                       LR    R5,R6
 0018F4 1B44                       17421                       CLEAR R4
                                   17425
 0018F6                            17426                       LOOP  BEGIN
 0018F6 5810 B08C/1B00_      0008C 17432  1                      SCAN  ,
 001944 58E0 70EC/0DEE       019C4 17463  1                      SCANCHK
 00194A 5810 B08C/4111_      0008C 17468  1                      SCUPTOK R1
 001952 1200/4770 70A6             17472  1                      IF    (R0,Z),BEGIN
 001958 1244/4780 C7F0             17486  2                        IF    (R4,Z),CVABSENT     Nothing
 00195E D21D CDDC 6000 00DDC 00000 17503  2                        MVC   CVVOL,@R6           Set volumes
 001964 4040 CDDA            00DDA 17504  2                        STH   R4,CVVOLMAX         No. of volumes
 001968 D701 CDD8 CDD8 00DD8 00DD8 17505  2                        CLEAR CVVOLCUR            Last volume used
 00196E 41F0 0001/4AF0_      00001 17512  2                        INCR  R15,CVCHKUC         Time for checkpoint I/O
 00197A 47F0 C7DE            007DE 17518  2                        B     CVNEXT
 00197E                            17519  1                      END
                                   17523  1
 00197E 5940 7164/4750_      01A3C 17524  1                      IF    (R4,GE,CVVOL#),BEGIN
 001986 41F0 B050/58E0_      00050 17541  2                        TSEG  (R1),(R0)
 001990 4110 7180/4100_      01A58 17565  2                        ABORT ': invalid; too many volumes'
 00199C                            17572  1                      END
                                   17576  1
 00199C D205 5000 1000 00000 00000 17577  1                      MVC   @R5(6),@R1          Volume name
 0019A2 4150 5006            00006 17578  1                      LA    R5,@R5+6
 0019A6 4140 4001            00001 17579  1                      LA    R4,@R4+1
 0019AA 47F0 701E            018F6 17580                       END
                                   17585
 0019AE 18D8/9808 D004_            17586                       PEND
 DROP   *,R7
-                                  17607                       QLTORG
1MODE     (MODE4072) (12:48) (15MAR04) SCKW's                                                                               Page   33
0Current Usings:  (CP,R11) (CV,R12)
0Loc    Object Code    Addr1 Addr2  Stmt Lv Lineno    Source Statement           (Hibal 5, Asmedit 3.3)  HLASM R4.0  2004/03/15 12.48
+___    ______ ____    _____ _____  ____ __ ______    ______ _________
0                                  17649              ¿þþþþþþþþþþþþþþþþþþþþþþþþþþþþþþþþþþþþþþþþþþþþþþþþþþþþþþþþþþþþþþþþþþþþþÜ
                                   17650              Ÿ                                                                     Ÿ
                                   17651              Ÿ  SET command options...                                             Ÿ
                                   17652              Ÿ                                                                     Ÿ
                                                      ¾þþþþþþþþþþþþþþþþþþþþþþþþþþþþþþþþþþþþþþþþþþþþþþþþþþþþþþþþþþþþþþþþþþþþþ»
0001A80 4040404040404040_          17653              SETPRT   SCKW  ,SETNULL,NULL
 001AA8 E5C1D3E4C5404040_          17668                       SCKW  VALUE,V(OLDSETV),A
 001AD0 E3C5D9E2C5404040_          17683                       SCKW  TERSE,SETTER,A
 001AF8 E5C5D9C2D6E2C540_          17698                       SCKW  VERBOSE,SETVER,A
 001B20 D3C5D5C7E3C84040_          17713                       SCKW  LENGTH,SETLEN,(A,P,PI),&LINESZ
 001B48 C4C5D3E3C1404040_          17728                       SCKW  DELTA,DELTAX,(P,LN,A)
 001B70 E3C1C2E240404040_          17743                       SCKW  TABS,V(SETTABS),A
 001B98 D4C1E2E3C5D94040_          17758                       SCKW  MASTER,V(SETMAST),A
 001BC0 D7C1E2E2E6D6D9C4_          17773                       SCKW  PASSWORD,V(SETPASS),A
 001BE8 D2C5E8E6D6D9C440_          17788                       SCKW  KEYWORD,V(SETPASS),A
 001C10 E2D4C64040404040_          17803                       SCKW  SMF,V(SETSMF),S
 001C38 D5D6E2D4C6404040_          17818                       SCKW  NOSMF,V(SETSMF),S
 001C60 E5D6D3E4D4C54040_          17833                       SCKW  VOLUME,SETVOL,A
 001C88 C1E4E3D640404040_          17848                       SCKW  AUTO,V(SETAUTO),A
 001CB0 D4E2E3C1E3E4E240_          17863                       SCKW  MSTATUS,V(SETMST),A
 001CD8 D4C1C9D340404040_          17878                       SCKW  MAIL,V(SETMAIL),(A,S)
 001D00 D5D6D4C1C9D34040_          17893                       SCKW  NOMAIL,V(SETMAIL),(A,S)
 001D28 E7D4C1C9D3404040_          17908                       SCKW  XMAIL,V(SETXMAIL),(A,S)
 001D50 D5D6E7D4C1C9D340_          17923                       SCKW  NOXMAIL,V(SETXMAIL),(A,S)
 001D78 C1C3E3C9E5C54040_          17938                       SCKW  ACTIVE,V(SETACT),(A,S)
 001DA0 D7D9C5C6C9E74040_          17953                       SCKW  PREFIX,SETPFX,A
 001DC8 C6C4C5C6C1E4D3E3_          17968                       SCKW  FDEFAULT,V(SETFDEF),A
 001DF0 C6D7C1E3C8404040_          17983                       SCKW  FPATH,V(SETFPAT),A
 001E18 C6D5D6E3C9D4C5D6_          17998                       SCKW  FNOTIMEOUT,SETFNTMO,A
 001E40 C6E3C9D4C5D6E4E3_          18013                       SCKW  FTIMEOUT,SETFTMO,A
 001E68 D5C1D4C540404040_          18028                       SCKW  NAME,V(SETNAME),A
 001E90 C1C3C3D6E4D5E340_          18043                       SCKW  ACCOUNT,SETACCT,(A,S)
 001EB8 C7D9D6E4D7404040_          18058                       SCKW  GROUP,SETACCT,(A,S)
 001EE0 C7D9D74040404040_          18073                       SCKW  GRP,SETACCT,S
 001F08 E4E2C5D940404040_          18088                       SCKW  USER,SETACCT,(A,S)
 001F30 E4E2D94040404040_          18103                       SCKW  USR,SETACCT,S
 001F58 D7C1C3C3D6E4D5E3_          18118                       SCKW  PACCOUNT,V(SETPACCT),(A,S)
 001F80 D7C1C3C3E3404040_          18133                       SCKW  PACCT,V(SETPACCT),(A,S)
 001FA8 D3C9C2D9C1D9E840_          18148                       SCKW  LIBRARY,SETLIB,A
 001FD0 E2C1D4E2D6D54040_          18163                       SCKW  SAMSON,V(SETSAM),A
 001FF8 E2E4C2C7D9404040_          18178                       SCKW  SUBGR,V(CMDFIN),A
 002020 E2E4C2C7D9D6E4D7_          18193                       SCKW  SUBGROUP,V(SETPROJ),(A,S)
 002048 E2E4C2C7D9D74040_          18208                       SCKW  SUBGRP,V(SETPROJ),S
 002070 D4D6C4C5E2404040_          18223                       SCKW  MODES,STMODE,A
 002098 E5D4D6C4C5404040_          18238                       SCKW  VMODE,SETVMODE,A
 0020C0 C3E4D9D9C5D5E340_          18253                       SCKW  CURRENT,SETCURR,A
 0020E8 5C40404040404040_          18268                       SCKW  *,SETCURR
 002110 D9C5E3E4D9D54040_          18283                       SCKW  RETURN,SETRETRN,A
 002138 C5E7C5C3E4E3C540_          18298                       SCKW  EXECUTE,SETEXEC,A
 002160 C5E2C3C1D7C54040_          18313                       SCKW  ESCAPE,SETESCAP,A
 002188 E2D2C9D740404040_          18328                       SCKW  SKIP,SETSKIP,A
 0021B0 D9C5E2C3C1D54040_          18343                       SCKW  RESCAN,SETRSCN,(A,P,I),100
 0021D8 D6D9E5E8D3404040_          18358                       SCKW  ORVYL,SETORVYL,(A,S)
1MODE     (MODE4072) (12:48) (15MAR04) SCKW's                                                                               Page   34
0Current Usings:  (CP,R11) (CV,R12)
0Loc    Object Code    Addr1 Addr2  Stmt Lv Lineno    Source Statement           (Hibal 5, Asmedit 3.3)  HLASM R4.0  2004/03/15 12.48
+___    ______ ____    _____ _____  ____ __ ______    ______ _________
0002200 D5D6D6D9E5E8D340_          18373                       SCKW  NOORVYL,SETORVYL,(A,S)
 002228 D3C9D5C540404040_          18388                       SCKW  LINE,V(SETLINE),(A,S)
 002250 C8C9E2E3D6D9E840_          18403                       SCKW  HISTORY,V(SETHIST),(A,S,P,PI),9999
 002278 D1C5E24040404040_          18418                       SCKW  JES,V(SETJES)
 0022A0 E3C1D7C540404040_          18433                       SCKW  TAPE,V(TAPE),A
 0022C8 D7D9D64040404040_          18448                       SCKW  PRO,SETPRO
 0022F0 D7D9D6D1C5C3E340_          18463                       SCKW  PROJECT,V(SETPROJ),(A,S)
 002318 E6D7D9D6D1C5C3E3_          18478                       SCKW  WPROJECT,V(SETWPROJ),(A,S)
 002340 E6C1D7D740404040_          18493                       SCKW  WAPP,V(SETWAPP),(A,S)
 002368 E2D7D9D6E3C5C3E3_          18508                       SCKW  SPROTECT,V(PROTECT),A      (Old: Stanford security)
 002390 D3D6C7D6D5404040_          18523                       SCKW  LOGON,V(SETLOGON),S
 0023B8 D7D3D6C7D6D54040_          18538                       SCKW  PLOGON,SETPLOG,A
 0023E0 D5D6D7D3D6C7D6D5_          18553                       SCKW  NOPLOGON,SETNPLOG,A
 002408 E5E2C5E2E2C9D6D5_          18568                       SCKW  VSESSIONS,V(SETVSES),(A,S)
 002430 E5D6D7E3C9D6D5E2_          18583                       SCKW  VOPTIONS,V(SETVOPT),(A,S)
                                   18598                       AIF   (NOT &JOBAUTH).AUTH2A
 002458 C1E4E3C8D6D9C9E3_          18599                       SCKW  AUTHORITY,SETAUTH,A
                                   18614              .AUTH2A  ANOP
 002480 C3D6E2E340404040_          18615                       SCKW  COST,V(SETCOST),(A,S)
 0024A8 D1D6C24040404040_          18630                       SCKW  JOB,V(SETJOB)
 0024D0 D6E4E3D7E4E34040_          18645                       SCKW  OUTPUT,V(SETOUT),A
 0024F8 E6C3C8C1D9C7C540_          18660                       SCKW  WCHARGE,V(SETWCH),A
 002520 E6C3D6E4D5E34040_          18675                       SCKW  WCOUNT,V(SETWCTR),(A,S)
 002548 E6C3C9D5C9E34040_          18690                       SCKW  WCINIT,V(SETWCIN),S
 002570 E6C4C5C2E4C74040_          18705                       SCKW  WDEBUG,V(SETDEBUG),A
 002598 C8D6E2E340404040_          18720                       SCKW  HOST,V(SETHOST),(A,S)
 0025C0 D8E4C5D9E8404040_          18735                       SCKW  QUERY,V(SETQUERY),(A,S)
 0025E8 D6D7C5D9C1E3D6D9_          18750                       SCKW  OPERATOR,V(SETOPER),(A,S)
 002610 D5D6D6D7C5D9C1E3_          18765                       SCKW  NOOPERATOR,V(SETOPER),(A,S)
 002638 D7D9C9E540404040_          18780                       SCKW  PRIV,V(SETPRIV),(A,S)
 002660 D5D6D7D9C9E54040_          18795                       SCKW  NOPRIV,V(SETPRIV),(A,S)
 002688 E6D6D9C440404040_          18810                       SCKW  WORD,SETWORD,A
 0026B0 D4E2C74040404040_          18825                       SCKW  MSG,SETMSG,S
 0026D8 D4C5E2E2C1C7C540_          18840                       SCKW  MESSAGE,SETMSG,(A,S)
 002700 C1D4C54040404040_          18855                       SCKW  AME,V(CMDFIN)
 002728 C1D4E2C740404040_          18870                       SCKW  AMSG,SETMSG,S
 002750 C1D4C5E2E2C1C7C5_          18885                       SCKW  AMESSAGE,SETMSG,(A,S)
 002778 E4D4C54040404040_          18900                       SCKW  UME,V(CMDFIN)
 0027A0 E4D4E2C740404040_          18915                       SCKW  UMSG,SETMSG,S
 0027C8 E4D4C5E2E2C1C7C5_          18930                       SCKW  UMESSAGE,SETMSG,(A,S)
 0027F0 E5D4C54040404040_          18945                       SCKW  VME,V(CMDFIN)
 002818 E5D4E2C740404040_          18960                       SCKW  VMSG,SETMSG,S
 002840 E5D4C5E2E2C1C7C5_          18975                       SCKW  VMESSAGE,SETMSG,(A,S)
 002868 C3D7D9D6D4D7E340_          18990                       SCKW  CPROMPT,SETCPR,A
 002890 E7C4E4D4D7404040_          19005                       SCKW  XDUMP,SXDUMP,A
 0028B8 D5D6E7C4E4D4D740_          19020                       SCKW  NOXDUMP,SNOXDUMP,A
 0028E0 E7D8E4C9C5E34040_          19035                       SCKW  XQUIET,SXQUIET,A
 002908 D5D6E7D8E4C9C5E3_          19050                       SCKW  NOXQUIET,SNOXQT,A
 002930 E6D5C5E3E6D6D9D2_          19065                       SCKW  WNETWORK,V(SETWNET),(A,S)
 002958 E6E5D6D3E4D4C5E2_          19080                       SCKW  WVOLUMES,SETWVOL,(A,S)
 002980 E6C2C1C3D2E4D740_          19095                       SCKW  WBACKUP,SETWBKUP,(A,S)
 0029A8 E6D5D6C2C1C3D2E4_          19110                       SCKW  WNOBACKUP,CLRWBKUP,(A,S)
 0029D0 E6D5C5E6E2404040_          19125                       SCKW  WNEWS,V(SETWNEWS),(A,S)
 0029F8 E6C8C5D3D7404040_          19140                       SCKW  WHELP,V(SETWHELP),(A,S)
1MODE     (MODE4072) (12:48) (15MAR04) SCKW's                                                                               Page   35
0Current Usings:  (CP,R11) (CV,R12)
0Loc    Object Code    Addr1 Addr2  Stmt Lv Lineno    Source Statement           (Hibal 5, Asmedit 3.3)  HLASM R4.0  2004/03/15 12.48
+___    ______ ____    _____ _____  ____ __ ______    ______ _________
0002A20 E6C8D6E2E3E24040_          19155                       SCKW  WHOSTS,V(SETWHOST),(A,S)
 002A48 E6E3C5D9D4C9D5C1_          19170                       SCKW  WTERMINALS,V(SETWTERM),(A,S)
 002A70 E6D7D9C9D5E3C5D9_          19185                       SCKW  WPRINTERS,V(SETWPRT),(A,S)
 002A98 E6C4C9C3E3C9D6D5_          19200                       SCKW  WDICTIONARY,V(SETWDICT),(A,S)
 002AC0 E6D4C1C3C8C9D5C5_          19215                       SCKW  WMACHINE,SETWMACH,A
 002AE8 E6C6C1C3E3D6D940_          19230                       SCKW  WFACTOR,SETWFACT,(A,P,LN)
 002B10 E6C6C4C5C6404040_          19245                       SCKW  WFDEF,SETWFDEF,S
 002B38 E6C6D7C1E3C84040_          19260                       SCKW  WFPATH,SETWFPAT,S
 002B60 C3C8D9C9E2E3C140_          19275                       SCKW  CHRISTA,V(SETCHR)
 002B88 C3C8D9C9E2E4C9C4_          19290                       SCKW  CHRISUID,V(SETCHRU)
 002BB0 E6D7C1C7C5E24040_          19305                       SCKW  WPAGES,SETWPGS,A
 002BD8 E6D9C5D3D6C1C440_          19320                       SCKW  WRELOAD,SETWREL,(A,S)
 002C00 E6D5D6D9C5D3D6C1_          19335                       SCKW  WNORELOAD,SETWREL,(A,S)
 002C28 D3D6C7D4D6C4C540_          19350                       SCKW  LOGMODE,SETLMODE,S
 002C50 E6E3D9C1C3C54040_          19365                       SCKW  WTRACE,SETWTRC,S
 002C78 E6D5D6E3D9C1C3C5_          19380                       SCKW  WNOTRACE,SETWTRC,S
 002CA0 E6D9D6E3C1E3C540_          19395                       SCKW  WROTATE,SETWROT,S
 002CC8 E6D5D6D9D6E3C1E3_          19410                       SCKW  WNOROTATE,SETWROT,S
 002CF0 D9C1C3C640404040_          19425                       SCKW  RACF,SETRACF,S
 002D18 D5D6D9C1C3C64040_          19440                       SCKW  NORACF,SETRACF,S
 002D40 E6D5D6E3C1E2D240_          19455                       SCKW  WNOTASK,SETWTASK,S
 002D68 E6E3C1E2D2404040_          19470                       SCKW  WTASK,SETWTASK,S
 002D90 E6E2D3C9C3C54040_          19485                       SCKW  WSLICE,SETWSL,(A,P,PI),9999999
                                   19500                       ¿þþþþþþþþþþþþþþþþþþþþþþþþþþþþþþþþþþþþþþþþþþþþþþþþþþþþþþþþþþþþþþÜ
                                   19501                       Ÿ  Set commands after here are allowed even if the user isn't  Ÿ
                                   19502                       Ÿ    logged on.                                                Ÿ
                                   19503                       ¾þþþþþþþþþþþþþþþþþþþþþþþþþþþþþþþþþþþþþþþþþþþþþþþþþþþþþþþþþþþþþþ»
 002DB8 4040404040404040_          19504              SETPRTL  SCKW  ,SETNULL,NULL
 002DE0 E3C5D9D4C9D5C1D3_          19519                       SCKW  TERMINAL,V(SETTERM),A
 002E08 D3D7D9C9D5E3C5D9_          19534                       SCKW  LPRINTER,V(SETLPR),A
 002E30 E5C9C5E640404040_          19549                       SCKW  VIEW,V(SETVIEW),A
 002E58 C9C4D3C5E2404040_          19564                       SCKW  IDLES,V(SETMIL),(A,S)
 002E80 D5D6C9C4D3C5E240_          19579                       SCKW  NOIDLES,V(SETMIL),(A,S)
 002EA8 E6C9C4E3C8404040_          19594                       SCKW  WIDTH,V(SETMIL),A
 002ED0 C8C5C9C7C8E34040_          19609                       SCKW  HEIGHT,V(SETMIL),A
 002EF8 D5D6C8C5C9C7C8E3_          19624                       SCKW  NOHEIGHT,V(SETMIL),A
 002F20 C2C1C3D240404040_          19639                       SCKW  BACK,V(SETMIL),A
 002F48 D5D6C2C1C3D24040_          19654                       SCKW  NOBACK,V(SETMIL),A
 002F70 C2D9C5C1D2404040_          19669                       SCKW  BREAK,V(SETMIL),A
 002F98 D5D6C2D9C5C1D240_          19684                       SCKW  NOBREAK,V(SETMIL),A
 002FC0 C3C1E2C540404040_          19699                       SCKW  CASE,V(SETMIL),A
 002FE8 E4D7D7C5D9404040_          19714                       SCKW  UPPER,V(SETMIL),A
 003010 E4D7D3D6E6404040_          19729                       SCKW  UPLOW,V(SETMIL),A
 003038 C1D7D34040404040_          19744                       SCKW  APL,V(SETMIL)
 003060 C1D7D3C240404040_          19759                       SCKW  APLB,V(SETMIL)
 003088 D5D6C1D7D3404040_          19774                       SCKW  NOAPL,V(SETMIL)
 0030B0 D5D6C1D7D3C24040_          19789                       SCKW  NOAPLB,V(SETMIL)
 0030D8 C3D6D4D440404040_          19804                       SCKW  COMM,V(SETMIL),A
 003100 D5D6C3D6D4D44040_          19819                       SCKW  NOCOMM,V(SETMIL),A
 003128 E2D3D6E6D3C9E2E3_          19834                       SCKW  SLOWLIST,V(SETMIL),A
 003150 C6C1E2E3D3C9E2E3_          19849                       SCKW  FASTLIST,V(SETMIL),A
 003178 D5D6E3C9D4C54040_          19864                       SCKW  NOTIME,V(SETNOTM),A
 0031A0 E3C9D4C5D6E4E340_          19879                       SCKW  TIMEOUT,V(SCNNOOP),A  ** Ignored -- compatiblity **
 0031C8 E7D6D54040404040_          19894                       SCKW  XON,V(SETMIL)
1MODE     (MODE4072) (12:48) (15MAR04) SCKW's                                                                               Page   36
0Current Usings:  (CP,R11) (CV,R12)
0Loc    Object Code    Addr1 Addr2  Stmt Lv Lineno    Source Statement           (Hibal 5, Asmedit 3.3)  HLASM R4.0  2004/03/15 12.48
+___    ______ ____    _____ _____  ____ __ ______    ______ _________
00031F0 D5D6E7D6D5404040_          19909                       SCKW  NOXON,V(SETMIL),A
 003218 D7E2D7C5C3C9C1D3_          19924                       SCKW  PSPECIAL,V(SETMIL)
 003240 D5D6D7E2D7C5C340_          19939                       SCKW  NOPSPEC,V(SETMIL)
 003268 D9C9404040404040_          19954                       SCKW  RI,V(SETMIL)
 003290 E3C9404040404040_          19969                       SCKW  TI,V(SETMIL)
 0032B8 4040404040404040_          19984                       SCKW  ,V(CMDFIN)
1MODE     (MODE4072) (12:48) (15MAR04) SCKW's                                                                               Page   37
0Current Usings:  (CP,R11) (CV,R12)
0Loc    Object Code    Addr1 Addr2  Stmt Lv Lineno    Source Statement           (Hibal 5, Asmedit 3.3)  HLASM R4.0  2004/03/15 12.48
+___    ______ ____    _____ _____  ____ __ ______    ______ _________
0                                  20000              *
                                   20001              * for set current
                                   20002              *
 0032E0 C5E7C5C3E4E3C540_          20003              CURRPRT1 SCKW  EXECUTE,V(SCNNOOP),A
 003308 C1C3E3C9E5C54040_          20018                       SCKW  ACTIVE,V(SCNNOOP),A
 003330 E3D6404040404040_          20033                       SCKW  TO,CURRTO
 003358 4040404040404040_          20048                       SCKW  ,CURLINE,SYMLN
 003380 6040404040404040_          20063                       SCKW  -,CURMIN,(P,LN)
 0033A8 4040404040404040_          20078                       SCKW  ,V(NOTVALID)
                                   20093
 0033D0 4040404040404040_          20094              CURRPRT2 SCKW  ,CURLINE,SYMLN
 0033F8 6040404040404040_          20109                       SCKW  -,CURMIN,(P,LN)
 003420 4040404040404040_          20124                       SCKW  ,V(NOTVALID)
                                   20139              *
                                   20140              * for set exec
                                   20141              *
 003448 4040404040404040_          20142              SETEXPRT SCKW  ,V(STEXEPSH),PUSH
 003470 C1E4E3C840404040_          20157                       SCKW  AUTH,SETXAUTH
 003498 D5D6C1E4E3C84040_          20172                       SCKW  NOAUTH,SETNAUTH
 0034C0 D6E5C5D9C8C5C1C4_          20187                       SCKW  OVERHEAD,SETOVER,A
 0034E8 D5D6D6E5C5D9C8C5_          20202                       SCKW  NOOVERHEAD,SETNOVER,A
 003510 E2C5C3E4D9C54040_          20217                       SCKW  SECURE,SETSEC,A
 003538 D5D6E2C5C3E4D9C5_          20232                       SCKW  NOSECURE,SETNOSEC,A
 003560 D3D6C3D2C5C44040_          20247                       SCKW  LOCKED,SETSLOCK,A
 003588 4040404040404040_          20262                       SCKW  ,V(NOTVALID)
                                   20277
 0035B0 50E0 D000/9008_      00000 20278              SETOVER  PROC
 USING  *,R7
 0035CA 9680 B7FD      007FD       20317                       SET   CPFXOVER            (Ignored unless CPFXAUTH on also)
 0035CE 18D8/9808 D004_            20323                       PEND
 DROP   *,R7
                                   20343
 0035DC 50E0 D000/9008_      00000 20344              SETNOVER PROC
 USING  *,R7
 0035F6 947F B7FD      007FD       20383                       CLEAR CPFXOVER            (Ignored unless CPFXAUTH on also)
 0035FA 18D8/9808 D004_            20390                       PEND
 DROP   *,R7
                                   20410
 003608 50E0 D000/9008_      00000 20411              SETXAUTH PROC
 USING  *,R7
 003622 9180 B75A/47E0_0075A       20450                       IF    ~CPFXAUTHLIB,EXIT   Not coming from authorized lib
 00362A 9640 B75A      0075A       20468                       SET   CPFXAUTH
 00362E 18D8/9808 D004_            20474                       PEND
 DROP   *,R7
                                   20494
 00363C 50E0 D000/9008_      00000 20495              SETNAUTH PROC
 USING  *,R7
 003656 9180 B75A/47E0_0075A       20534                       IF    ~CPFXAUTHLIB,EXIT   Not coming from authorized lib
 00365E 94BF B75A      0075A       20552                       CLEAR CPFXAUTH
 003662 18D8/9808 D004_            20559                       PEND
 DROP   *,R7
                                   20579
 003670 50E0 D000/9008_      00000 20580              SETSEC   PROC
 USING  *,R7
1MODE     (MODE4072) (12:48) (15MAR04) SCKW's                                                                               Page   38
0Current Usings:  (*,R7) (CP,R11) (CV,R12)
0Loc    Object Code    Addr1 Addr2  Stmt Lv Lineno    Source Statement           (Hibal 5, Asmedit 3.3)  HLASM R4.0  2004/03/15 12.48
+___    ______ ____    _____ _____  ____ __ ______    ______ _________
000368A 9620 B474      00474       20619                       SET   CPFSEC
 00368E 18D8/9808 D004_            20625                       PEND
 DROP   *,R7
                                   20645
 00369C 50E0 D000/9008_      00000 20646              SETNOSEC PROC
 USING  *,R7
 0036B6 9110 B474/4710_00474       20685                       IF    CPFSLOCK,EXIT
 0036BE 94DF B474      00474       20703                       CLEAR CPFSEC
 0036C2 18D8/9808 D004_            20710                       PEND
 DROP   *,R7
                                   20730
 0036D0 50E0 D000/9008_      00000 20731              SETSLOCK PROC
 USING  *,R7
 0036EA 9630 B474      00474       20770                       SET   CPFSEC+CPFSLOCK
 0036EE 18D8/9808 D004_            20779                       PEND
 DROP   *,R7
                                   20799                       AIF   (NOT &JOBAUTH).AUTH3A
                                   20800                       ¿þþþþþþþþþþþþþþþþþÜ
                                   20801                       Ÿ  For SET AUTH.  Ÿ
                                   20802                       ¾þþþþþþþþþþþþþþþþþ»
 0036FC C6D6D94040404040_          20803              AUTHPRT  SCKW  FOR,GOTACCT,P
 003724 C1C3C3D6E4D5E340_          20818                       SCKW  ACCOUNT,GOTACCT,(A,P)
 00374C 4040404040404040_          20833                       SCKW  ,GOTACCT
                                   20848              .AUTH3A  ANOP
                                   20849
 003774 4040404040404040_          20850              NAMEPRT  SCKW  ,V(FNAMPSH),PUSH
 00379C D2C5E8E6D6D9C440_          20865              KEYWDPRT SCKW  KEYWORD,V(SCNNOOP),A
 0037C4 D7C1E2E2E6D6D9C4_          20880                       SCKW  PASSWORD,V(SCNNOOP),A
 0037EC 4040404040404040_          20895                       SCKW  ,V(NOTVALID)
                                   20910                       ¿þþþþþþþþþþþþþþþþþÜ
                                   20911                       Ÿ  For set mode.  Ÿ
                                   20912                       ¾þþþþþþþþþþþþþþþþþ»
 003814 D9C5E3D9E8404040_          20913              STMODPRT SCKW  RETRY,STRTRY,A
 00383C D5D6D9C5E3D9E840_          20928                       OPTION NORETRY,CLEAR,A,CPGFLG3.CPFCMDFX
 003864 D4D6C4C9C6E84040_          20949                       OPTION MODIFY,CLEAR,A,CPGFLG3.CPFCMDED
 00388C C5C4C9E340404040_          20970                       OPTION EDIT,SET,A,CPGFLG3.CPFCMDED
 0038B4 E2C8D6D9E3404040_          20990                       OPTION SHORT,SET,A,CPGFLG3.CPF3IMED
 0038DC D5D6E2C8D6D9E340_          21010                       OPTION NOSHORT,CLEAR,A,CPGFLG3.CPF3IMED
 003904 D3C9E2E340404040_          21031                       OPTION LIST,CLEAR,A,CPGFNLST
 00392C D5D6D3C9E2E34040_          21051                       OPTION NOLIST,SET,A,CPGFNLST
 003954 C3D3C5C1D9404040_          21070                       OPTION CLEAR,SET,A,CPGFCLR
 00397C C3D3D94040404040_          21089                       OPTION CLR,SET,,CPGFCLR
 0039A4 D5D6C3D3C5C1D940_          21108                       OPTION NOCLEAR,CLEAR,A,CPGFCLR
 0039CC D5D6C3D3D9404040_          21128                       OPTION NOCLR,CLEAR,,CPGFCLR
 0039F4 C1E3E3D540404040_          21148                       OPTION ATTN,CLEAR,A,CPGFNATN
 003A1C D5D6C1E3E3D54040_          21168                       OPTION NOATTN,SET,A,CPGFNATN
 003A44 E6C1D9D540404040_          21187                       SCKW  WARN,STWARN,A
 003A6C D5D6E6C1D9D54040_          21202                       SCKW  NOWARN,STNOWA,A
 003A94 4040404040404040_          21217                       SCKW  ,V(NOTVALID)
1MODE     (MODE4072) (12:48) (15MAR04) SCKW's                                                                               Page   39
0Current Usings:  (CP,R11) (CV,R12)
0Loc    Object Code    Addr1 Addr2  Stmt Lv Lineno    Source Statement           (Hibal 5, Asmedit 3.3)  HLASM R4.0  2004/03/15 12.48
+___    ______ ____    _____ _____  ____ __ ______    ______ _________
0                                  21233                       ¿þþþþþþþþþþþþþþþþþþþþþþþþþÜ
                                   21234                       Ÿ  SET PRO is ambiguous.  Ÿ
                                   21235                       ¾þþþþþþþþþþþþþþþþþþþþþþþþþ»
 003ABC 50E0 D000/9008_      00000 21236              SETPRO   PROC
 USING  *,R7
 003AD6 4110 7036/4100_      03B0C 21275                       TSEG  'PRO is ambiguous.  Specify PROT for PROTECT or '
 003AE8 4110 7065/4100_      03B3B 21293                       SETMSG 'PROJ for PROJECT.'
 003AF0 47F0 C7CC            007CC 21297                       B     CVABTMSG
 003AF4 18D8/9808 D004_            21298                       PEND
 DROP   *,R7
1MODE     (MODE4072) (12:48) (15MAR04) SCKW's                                                                               Page   40
0Current Usings:  (CP,R11) (CV,R12)
0Loc    Object Code    Addr1 Addr2  Stmt Lv Lineno    Source Statement           (Hibal 5, Asmedit 3.3)  HLASM R4.0  2004/03/15 12.48
+___    ______ ____    _____ _____  ____ __ ______    ______ _________
0                                  21319                       QLTORG
1MODE     (MODE4072) (12:48) (15MAR04) CLEAR Command                                                                        Page   41
0Current Usings:  (CP,R11) (CV,R12)
0Loc    Object Code    Addr1 Addr2  Stmt Lv Lineno    Source Statement           (Hibal 5, Asmedit 3.3)  HLASM R4.0  2004/03/15 12.48
+___    ______ ____    _____ _____  ____ __ ______    ______ _________
0                                  21335              ¿þþþþþþþþþþþþþþþþþþþþþþþþþþþþþþþþþþþþþþþþþþþþþþþþþþþþþþþþþþþþþþþþþþþþþÜ
                                   21336              Ÿ                                                                     Ÿ
                                   21337              Ÿ  CLEAR -- CLEAR command.                                            Ÿ
                                   21338              Ÿ                                                                     Ÿ
                                                      ¾þþþþþþþþþþþþþþþþþþþþþþþþþþþþþþþþþþþþþþþþþþþþþþþþþþþþþþþþþþþþþþþþþþþþþ»
0003B4C 50E0 D000/9008_      00000 21339              CLEAR    XPROC
 USING  *,R7
                                   21379                       ¿þþþþþþþþþþþþþþþþþþþþþþþþþþþþþþþþþþþþþþþþþþþþþþþþþþþþþþþþþþþÜ
                                   21380                       Ÿ  The following is for dual-scanner compatibility only!!!  Ÿ
                                   21381                       ¾þþþþþþþþþþþþþþþþþþþþþþþþþþþþþþþþþþþþþþþþþþþþþþþþþþþþþþþþþþþ»
 003B66 58E0 B08C/D2AF_      0008C 21382                       SCPUSH ,
 003B74 5810 B08C/1B00_      0008C 21388                       SCAN ,
 003BC2 58E0 B08C/581E_      0008C 21419                       SCINFO ,
 003BD0 58E0 70EE/0DEE       03C54 21428                       OSCINIT (R1),(R0)         OLD SCANNER COMPATIBILTY
 003BD6 58E0 B08C/4BD0_      0008C 21444                       SCPOP ,
                                   21450
 003BE4 5810 B08C/1B00_      0008C 21451                       SCAN  CLEARPRT
 003C36 58E0 70F6/0DEE       03C5C 21483                       SCANCHK ,
 003C3C 47F0 C7DE            007DE 21488                       B     CVNEXT
 003C40 18D8/9808 D004_            21489                       PEND
 DROP   *,R7
1MODE     (MODE4072) (12:48) (15MAR04) CLEAR Command                                                                        Page   42
0Current Usings:  (CP,R11) (CV,R12)
0Loc    Object Code    Addr1 Addr2  Stmt Lv Lineno    Source Statement           (Hibal 5, Asmedit 3.3)  HLASM R4.0  2004/03/15 12.48
+___    ______ ____    _____ _____  ____ __ ______    ______ _________
0                                  21510                       QLTORG
1MODE     (MODE4072) (12:48) (15MAR04) CLEAR Command                                                                        Page   43
0Current Usings:  (CP,R11) (CV,R12)
0Loc    Object Code    Addr1 Addr2  Stmt Lv Lineno    Source Statement           (Hibal 5, Asmedit 3.3)  HLASM R4.0  2004/03/15 12.48
+___    ______ ____    _____ _____  ____ __ ______    ______ _________
0                                  21529              ***
                                   21530              ***  CLEAR Commands.
                                   21531              ***
 003C64 4040404040404040_          21532              CLEARPRT SCKW  ,CLRNULL,NULL
 003C8C C1C3E3C9E5C54040_          21547                       SCKW  ACTIVE,CACT,A
 003CB4 C1C3E3C9E5C5E240_          21562                       SCKW  ACTIVES,CACTS
 003CDC C1C3E3E240404040_          21577                       SCKW  ACTS,CACTS
 003D04 E3C5E7E340404040_          21592                       SCKW  TEXT,CACT,A
 003D2C C5E7C5C3E4E3C540_          21607                       SCKW  EXECUTE,CEXEC,A
 003D54 E3C1C2E240404040_          21622                       SCKW  TABS,CTABS,A
 003D7C D7D9C5C6C9E74040_          21637                       SCKW  PREFIX,CPREF,A
 003DA4 D5C1D4C540404040_          21652                       SCKW  NAME,CPREF,A        (Compatibility)
 003DCC E5C1D9C9C1C2D3C5_          21667                       SCKW  VARIABLES,CVARS,A
 003DF4 E5C1D9E240404040_          21682                       SCKW  VARS,CVARS,A
 003E1C E5C1D3E4C5E24040_          21697                       SCKW  VALUES,CVARS,A
 003E44 C4C5C6C9D5C5C440_          21712                       SCKW  DEFINED,CDEF,A
 003E6C C8C9E2E3D6D9E840_          21727                       SCKW  HISTORY,CHIST,A
 003E94 E7C4404040404040_          21742                       SCKW  XD,CXDEBUG,A
 003EBC E7C4C5C2E4C74040_          21757                       SCKW  XDEBUG,CXDEBUG,A
 003EE4 E7D4D6D5C9E3D6D9_          21772                       SCKW  XMONITOR,CXMON,A
 003F0C E7C4E4D4D7404040_          21787                       SCKW  XDUMP,CXDUMP,A
 003F34 E7D8E4C9C5E34040_          21802                       SCKW  XQUIET,CXQUIET,A
 003F5C C5D9D9D6D9404040_          21817                       SCKW  ERROR,CERROR,A
 003F84 C1E3E3D540404040_          21832                       SCKW  ATTN,CATTN,A
 003FAC C1E3E3C5D5E3C9D6_          21847                       SCKW  ATTENTION,CATTN,A
 003FD4 C7C5E3E2E3C1C3D2_          21862                       SCKW  GETSTACK,CGETSTK,A
 003FFC C8D6E2E3E2404040_          21877                       SCKW  HOSTS,V(CLRHOSTS),A
 004024 C6E3D7D3D6C74040_          21892                       SCKW  FTPLOG,V(CLRFTP),A
 00404C C4C5E5C9C3C5E240_          21907                       SCKW  DEVICES,CDEV,A
 004074 D3C5C1D9D5C5C440_          21922                       SCKW  LEARNED,CLEARN,A
 00409C E2C3D9C5C5D54040_          21937                       SCKW  SCREEN,CSCREEN,A
 0040C4 E2C3D9D540404040_          21952                       SCKW  SCRN,CSCREEN
 0040EC E6C4404040404040_          21967                       SCKW  WD,CWDEBUG,A
 004114 E6C4C5C2E4C74040_          21982                       SCKW  WDEBUG,CWDEBUG,A
 00413C 4040404040404040_          21997                       SCKW  ,CUNREC
1MODE     (MODE4072) (12:48) (15MAR04) CLEAR Command                                                                        Page   44
0Current Usings:  (CP,R11) (CV,R12)
0Loc    Object Code    Addr1 Addr2  Stmt Lv Lineno    Source Statement           (Hibal 5, Asmedit 3.3)  HLASM R4.0  2004/03/15 12.48
+___    ______ ____    _____ _____  ____ __ ______    ______ _________
0                                  22013              *
                                   22014              *
 004164 50E0 D000/9008_      00000 22015              CLRNULL  PROC
 USING  *,R7
 00417E D207 B886 7842_00886 049C0 22054                       ERROR 'Missing CLEAR option.',,MISSCLR
 004190 18D8/9808 D004_            22062                       PEND
 DROP   *,R7
                                   22082
 00419E 50E0 D000/9008_      00000 22083              CUNREC   PROC  ,                   Unrecognized CLEAR option
 USING  *,R7
 0041B8 58E0 7820/0DEE       049D8 22122                       VCALL CMDFIN              Pass command on to others
 0041BE 47F0 C7DE            007DE 22126                       B     CVNEXT
 0041C2 18D8/9808 D004_            22127                       PEND
 DROP   *,R7
1MODE     (MODE4072) (12:48) (15MAR04) CLEAR Command                                                                        Page   45
0Current Usings:  (CP,R11) (CV,R12)
0Loc    Object Code    Addr1 Addr2  Stmt Lv Lineno    Source Statement           (Hibal 5, Asmedit 3.3)  HLASM R4.0  2004/03/15 12.48
+___    ______ ____    _____ _____  ____ __ ______    ______ _________
0                                  22148                       ¿þþþþþþþþþþþþþþþþÜ
                                   22149                       Ÿ  CLEAR SCREEN  Ÿ
                                   22150                       ¾þþþþþþþþþþþþþþþþ»
 0041D0 50E0 D000/9008_      00000 22151              CSCREEN  PROC
 USING  *,R7
 0041EA 5810 B08C/1B00_      0008C 22190                       SCAN
 004238 58E0 77F6/0DEE       049E0 22221                       SCANCHK
 00423E 1200/4780 7070             22226                       IF    (R0,NZ),BEGIN
 004244 41F0 B050/58E0_      00050 22240  1                      TSEG  (R1),(R0)
 00424E 4110 7858/4100_      04A42 22264  1                      ABORT ': invalid CLEAR SCREEN option.'
 00425A                            22271                       END
                                   22275                       ¿þþþþþþþþþþþþþþþþþþþþþþþþþþþþþþþþþþþþþþþþþÜ
                                   22276                       Ÿ  Model terminal clear screen sequence.  Ÿ
                                   22277                       ¾þþþþþþþþþþþþþþþþþþþþþþþþþþþþþþþþþþþþþþþþþ»
 00425A 4110 78AF/4100_      04A99 22278                       SETMSG X'27ADF2D127AD86'   Clear screen sequence
                                   22282                       ¿þþþþþþþþþþþþþþþþþþþþþþþþþþþþþþþþþþþþþþþþþþþþþþþþþþþþþþþþþþþþþþþÜ
                                   22283                       Ÿ  IF the front-end can not handle a model terminal clear       Ÿ
                                   22284                       Ÿ    screen sequence then we have to do the terminal dependent  Ÿ
                                   22285                       Ÿ    stuff ourselves.                                           Ÿ
                                   22286                       ¾þþþþþþþþþþþþþþþþþþþþþþþþþþþþþþþþþþþþþþþþþþþþþþþþþþþþþþþþþþþþþþþ»
 004262 9108 B384/47E0_00384       22287                       IF    CPSFDUMB,BEGIN      Dumb front-end...
 00426A D501 7876 B3E2_04A60 003E2 22302  1                      IF    (CPSTCLS,EQ,'VT'),EXIT  VT100
 004274 D502 78B6 B3E2_04AA0 003E2 22322  1                      IF    (CPSTCLS,EQ,'SAM'),EXIT  SAMSON
                                   22342  1
 00427E D506 78B9 B3E2_04AA3 003E2 22343  1                      IF    (CPSTCLS,EQ,'TEK4023'),'SETMSG X"270C"'  ESC Ctrl-L
 004290 70AA/47F0 70BC_04290 04286 22369  1                      ELSEIF (CPSTCLS,EQ,'Z19'),'SETMSG X"2745"'  ESC E
 0042A6 70C0/47F0 70D2_042A6 0429C 22404  1                      ELSEIF (CPSTCLS,EQ,'TVI'),'SETMSG X"3F"'  Ctrl-Z
 0042BC 70D6/47F0 70E8_042BC 042B2 22439  1                      ELSEIF (CPSTCLS,EQ,'ADM'),'SETMSG X"0C"'  Ctrl-L
 0042D2 70EC/47F0 70FE_042D2 042C8 22474  1                      ELSEIF (CPSTCLS,EQ,'RLG'),'SETMSG X"0C"'  Ctrl-L
 0042E8 7102/47F0 710A_042E8 042DE 22509  1                      ELSE  'SETMSG X"151515"'     Triple space
 0042F4                            22529                       END
                                   22533
 0042F4 41F0 B050/58E0_      00050 22534                       TSEG  (R1),(R0)           Clear the screen
 0042FE 41F0 B050/58E0_      00050 22558                       TMARK ,                   (Don't add NL)
                                   22572
 004308 9180 BAC8/47E0_00AC8       22573                       IF    CPVFPAGE,BEGIN      Page mode...
 004310 9610 BC7B      00C7B       22588  1                      SET   CPFDISP             Make it a display mode write
 004314 1B00/41F0 B050_            22594  1                      TWRITE
                                   22619  1
 004320 94EF BC7B/947F_00C7B       22620  1                      CLEAR CPFDISP,CPVFPAGE    Reset page mode
 004328                            22632                       END
                                   22636
 004328 47F0 C7DE            007DE 22637                       B     CVNEXT
                                   22638
 00432C 18D8/9808 D004_            22639                       PEND
 DROP   *,R7
1MODE     (MODE4072) (12:48) (15MAR04) CLEAR Command                                                                        Page   46
0Current Usings:  (CP,R11) (CV,R12)
0Loc    Object Code    Addr1 Addr2  Stmt Lv Lineno    Source Statement           (Hibal 5, Asmedit 3.3)  HLASM R4.0  2004/03/15 12.48
+___    ______ ____    _____ _____  ____ __ ______    ______ _________
0                                  22660                       ¿þþþþþþþþþþþþþþþþÜ
                                   22661                       Ÿ  CLEAR ACTIVE  Ÿ
                                   22662                       ¾þþþþþþþþþþþþþþþþ»
 000000                00000 00001 22663              CACTWA   RECORD BEGIN
 000000 00                         22671  1           CACTFLAG   FLAG
 CACTFLAG.CACTFEXE 80 ONES         22675  1                      FLAG  CACTFEXE            - Compatability: CLEAR ACT EXEC
 CACTFLAG.CACTFVAR 40 ONES         22680  1                      FLAG  CACTFVAR            - Compatability: CLEAR ACT VARS
 000001                00001 00001 22685                       END
                                   22694              þþþþ
 00433A 50E0 D000/9008_      00000 22695              CACT     PROC  CACTWA
 USING  *,R7
 USING  CACTWA-(4+36),R8
 004354 4160 8028            00000 22745                       LA    R6,CACTWA
 USING  CACTWA,R6                  22746                       USING CACTWA,R6
 004358 9200 6000      00000       22755                       CLEAR CACTWA
                                   22762
 00435C 5810 B08C/1B00_      0008C 22763                       SCAN  CACTPRT
 0043AE 58E0 768C/0DEE       049E0 22795                       SCANCHK
                                   22800
 0043B4 D603 B5AC B5AC_005AC 005AC 22801                       IF    (CPALNCT,NZ),BEGIN  Active file...
 0043BE 9610 BD55      00D55       22817  1                      SET   CPFCLEAR            Set clear ok
 0043C2 58E0 76A0/0DEE       049F4 22823  1                      VCALL CLRTEXT             Clear
 0043C8                            22827                       END
                                   22831
 0043C8 7078/47F0 70A4 043C8 043BC 22832                       ELSE  BEGIN               Otherwise...
 0043CC D703 B628 B628_00628 00628 22843  1                      CLEAR CPAFNAMEL,CPAHOSTL  Clear prefix (safety)
 0043D8 D207 B886 7674 00886 049C8 22855  1                      MVC   CPERRID,=CL8'NOACTIVE'
 0043DE 9110 B477/47E0_00477       22856  1                      IF    CPFTYPED,BEGIN      Answer if typed...
 0043E6 4110 7767/4100_      04ABB 22871  2                        TSEG  'No ACTIVE file.',,CR
 0043F8                            22889  1                      END
 0043F8                            22893                       END
                                   22897                       ¿þþþþþþþþþþþþþþþþþþþþþþþþþþþþþþþþþþþþþþþþþþþþþþþþþþþþþþÜ
                                   22898                       Ÿ  Check for other things to clear for compatability.  Ÿ
                                   22899                       ¾þþþþþþþþþþþþþþþþþþþþþþþþþþþþþþþþþþþþþþþþþþþþþþþþþþþþþþ»
 0043F8 9140 6000/47E0_00000       22900                       IF    CACTFVAR,'VCALL CLRVARS'  Do CLEAR VARS
                                   22924
 004406 9180 6000/47E0_00000       22925                       IF    CACTFEXE,'ACALL CEXECSUB'  Do CLEAR EXEC
                                   22949
 004414 47F0 C7DE            007DE 22950                       B     CVNEXT
 004418 18D8/9808 D004_            22951                       PEND
 DROP   CACTWA-(4+36),R8
 DROP   *,R7
1MODE     (MODE4072) (12:48) (15MAR04) CLEAR Command                                                                        Page   47
0Current Usings:  (CACTWA,R6) (CP,R11) (CV,R12)
0Loc    Object Code    Addr1 Addr2  Stmt Lv Lineno    Source Statement           (Hibal 5, Asmedit 3.3)  HLASM R4.0  2004/03/15 12.48
+___    ______ ____    _____ _____  ____ __ ______    ______ _________
0                                  22977              ***
                                   22978              ***  CLEAR ACTIVE Options.
                                   22979              ***
 004428 E6C1D9D540404040_          22980              CACTPRT  OPTION WARN,CLEAR,A,CPFNWARN
 004450 D5D6E6C1D9D54040_          23000                       OPTION NOWARN,SET,A,CPFNWARN
 004478 C5E7C5C3E4E3C540_          23019                       OPTION EXECUTE,SET,A,CACTFEXE
 0044A0 E5C1D9C9C1C2D3C5_          23038                       OPTION VARIABLES,SET,A,CACTFVAR
 0044C8 E5C1D9E240404040_          23057                       OPTION VARS,SET,A,CACTFVAR
 0044F0 E5C1D3E4C5E24040_          23076                       OPTION VALUES,SET,A,CACTFVAR
 004518 D7D9C5C6C9E74040_          23095                       SCKW  PREFIX,V(SCNNOOP),A
 004540 D5C1D4C540404040_          23110                       SCKW  NAME,V(SCNNOOP),A             (Compatability)
 004568 4040404040404040_          23125                       SCKW  ,CACTERR
                                   23140
 004590 50E0 D000/9008_      00000 23141              CACTERR  PROC
 USING  *,R7
 0045AA 41F0 B050/58E0_      00050 23180                       TSEG  (R1),(R0)
 0045B4 4110 74BC/4100_      04A66 23204                       ERROR ': invalid CLEAR ACTIVE option.'
 0045C0 18D8/9808 D004_            23211                       PEND
 DROP   *,R7
                                   23231
 DROP   CACTWA,R6                  23232                       DROP  R6
1MODE     (MODE4072) (12:48) (15MAR04) CLEAR Command                                                                        Page   48
0Current Usings:  (CP,R11) (CV,R12)
0Loc    Object Code    Addr1 Addr2  Stmt Lv Lineno    Source Statement           (Hibal 5, Asmedit 3.3)  HLASM R4.0  2004/03/15 12.48
+___    ______ ____    _____ _____  ____ __ ______    ______ _________
0000000                00000 00001 23240              CACTSWA  RECORD BEGIN
 000000 00                         23248  1           CACTSFL    FLAG
 CACTSFL.CACTSFR   80 ONES         23252  1                      FLAG  CACTSFR
 000001                00001 00001 23257                       END
-                                  23267                       ¿þþþþþþþþþþþþþþþþþÜ
                                   23268                       Ÿ  CLEAR ACTIVES  Ÿ
                                   23269                       ¾þþþþþþþþþþþþþþþþþ»
 0045CE 50E0 D000/9008_      00000 23270              CACTS    PROC  CACTSWA
 USING  *,R7
 USING  CACTSWA-(4+36),R8
 0045E8 4160 8028            00000 23320                       LA    R6,CACTSWA
 USING  CACTSWA,R6                 23321                       USING CACTSWA,R6
 0045EC 9200 6000      00000       23330                       CLEAR CACTSWA
                                   23337
 0045F0 5810 B08C/1B00_      0008C 23338                       SCAN  CACTSPRT
 004642 58E0 73F8/0DEE       049E0 23370                       SCANCHK
                                   23375                       ¿þþþþþþþþþþþþþþþþþþþþþþþþþþþþþþþþþþþþþþþþþþþþÜ
                                   23376                       Ÿ  RESET means zap the entire record group.  Ÿ
                                   23377                       ¾þþþþþþþþþþþþþþþþþþþþþþþþþþþþþþþþþþþþþþþþþþþþ»
 004648 9180 6000/47E0_00000       23378                       IF    CACTSFR,BEGIN       Reset...
 004650 58E0 7420/0DEE       04A08 23393  1                      VCALL ACTRESET            Blow 'em away
 004656 47F0 C7DE            007DE 23397  1                      B     CVNEXT
 00465A                            23398                       END
                                   23402                       ¿þþþþþþþþþþþþþþþþþþþþþþþþþþþþþþþþþþþþþþþþþþþþþþþþþþþþþþþþÜ
                                   23403                       Ÿ  Regular CLEAR ACTIVES just marks Actives as cleared.  Ÿ
                                   23404                       ¾þþþþþþþþþþþþþþþþþþþþþþþþþþþþþþþþþþþþþþþþþþþþþþþþþþþþþþþþ»
 00465A 9610 BD55      00D55       23405                       SET   CPFCLEAR            OK to clear the unchanged Actives
 00465E 58E0 7424/0DEE       04A0C 23411                       VCALL CLRACTS             Clear Actives
 004664 47F0 C7DE            007DE 23415                       B     CVNEXT
 004668 18D8/9808 D004_            23416                       PEND
 DROP   CACTSWA-(4+36),R8
 DROP   *,R7
                                   23441              ***
                                   23442              ***  CLEAR ACTIVES Options.
                                   23443              ***
 004678 E6C1D9D540404040_          23444              CACTSPRT OPTION WARN,CLEAR,A,CPFNWARN
 0046A0 D5D6E6C1D9D54040_          23464                       OPTION NOWARN,SET,A,CPFNWARN
 0046C8 D9C5E2C5E3404040_          23483                       OPTION RESET,SET,A,CACTSFR
 0046F0 4040404040404040_          23502                       SCKW  ,CACTSERR
                                   23517
 004718 50E0 D000/9008_      00000 23518              CACTSERR PROC
 USING  *,R7
 004732 41F0 B050/58E0_      00050 23557                       TSEG  (R1),(R0)
 00473C 4110 7398/4100_      04ACA 23581                       ERROR ': invalid CLEAR ACTIVES option.'
 004748 18D8/9808 D004_            23588                       PEND
 DROP   *,R7
                                   23608
 DROP   CACTSWA,R6                 23609                       DROP  R6
1MODE     (MODE4072) (12:48) (15MAR04) CLEAR Command                                                                        Page   49
0Current Usings:  (CP,R11) (CV,R12)
0Loc    Object Code    Addr1 Addr2  Stmt Lv Lineno    Source Statement           (Hibal 5, Asmedit 3.3)  HLASM R4.0  2004/03/15 12.48
+___    ______ ____    _____ _____  ____ __ ______    ______ _________
0000000                00000 00001 23617              CEXECWA  RECORD BEGIN
 000000 00                         23625  1           CEXEFLAG   FLAG
 CEXEFLAG.CEXEFACT 80 ONES         23629  1                      FLAG  CEXEFACT            - Compatability: CLEAR EXEC ACT
 CEXEFLAG.CEXEFVAR 40 ONES         23634  1                      FLAG  CEXEFVAR            - Compatability: CLEAR EXEC VARS
 000001                00001 00001 23639                       END
-                                  23649                       ¿þþþþþþþþþþþþþþÜ
                                   23650                       Ÿ  CLEAR EXEC  Ÿ
                                   23651                       ¾þþþþþþþþþþþþþþ»
 004756 50E0 D000/9008_      00000 23652              CEXEC    PROC  CEXECWA
 USING  *,R7
 USING  CEXECWA-(4+36),R8
 004770 4160 8028            00000 23702                       LA    R6,CEXECWA
 USING  CEXECWA,R6                 23703                       USING CEXECWA,R6
 004774 9200 6000      00000       23712                       CLEAR CEXECWA
                                   23719
 004778 5810 B08C/1B00_      0008C 23720                       SCAN  CEXECPRT
 0047CA 58E0 7270/0DEE       049E0 23752                       SCANCHK
                                   23757
 0047D0 58E0 7290/0DEE       04A00 23758                       ACALL CEXECSUB            Do CLEAR EXEC
                                   23762                       ¿þþþþþþþþþþþþþþþþþþþþþþþþþþþþþþþþþþþþþþþþþþþþþþþþþþþþþÜ
                                   23763                       Ÿ  Check for other stuff to clear for compatability.  Ÿ
                                   23764                       ¾þþþþþþþþþþþþþþþþþþþþþþþþþþþþþþþþþþþþþþþþþþþþþþþþþþþþþ»
 0047D6 9140 6000/47E0_00000       23765                       IF    CEXEFVAR,'VCALL CLRVARS'  Do a CLEAR VARS
                                   23789
 0047E4 9180 6000/47E0_00000       23790                       IF    CEXEFACT,'ACALL CACT'     Do a CLEAR ACTIVE
                                   23814
 0047F2 47F0 C7DE            007DE 23815                       B     CVNEXT
 0047F6 18D8/9808 D004_            23816                       PEND
 DROP   CEXECWA-(4+36),R8
 DROP   *,R7
1MODE     (MODE4072) (12:48) (15MAR04) CLEAR Command                                                                        Page   50
0Current Usings:  (CEXECWA,R6) (CP,R11) (CV,R12)
0Loc    Object Code    Addr1 Addr2  Stmt Lv Lineno    Source Statement           (Hibal 5, Asmedit 3.3)  HLASM R4.0  2004/03/15 12.48
+___    ______ ____    _____ _____  ____ __ ______    ______ _________
0                                  23842              ***
                                   23843              ***  CLEAR EXEC Options.
                                   23844              ***
 004804 C1C3E3C9E5C54040_          23845              CEXECPRT OPTION ACTIVE,SET,A,CEXEFACT
 00482C E5C1D9C9C1C2D3C5_          23864                       OPTION VARIABLES,SET,A,CEXEFVAR
 004854 E5C1D9E240404040_          23883                       OPTION VARS,SET,,CEXEFVAR
 00487C E5C1D3E4C5E24040_          23902                       OPTION VALUES,SET,A,CEXEFVAR
 0048A4 D7D9C5C6C9E74040_          23921                       SCKW  PREFIX,V(SCNNOOP),A
 0048CC D5C1D4C540404040_          23936                       SCKW  NAME,V(SCNNOOP),A             (Compatability)
 0048F4 4040404040404040_          23951                       SCKW  ,CEXECERR
                                   23966
 00491C 50E0 D000/9008_      00000 23967              CEXECERR PROC
 USING  *,R7
 004936 41F0 B050/58E0_      00050 24006                       TSEG  (R1),(R0)
 004940 4110 70E2/4100_      04A18 24030                       ABORT ': invalid CLEAR EXEC option.'
 00494C 18D8/9808 D004_            24037                       PEND
 DROP   *,R7
                                   24057
 DROP   CEXECWA,R6                 24058                       DROP  R6
1MODE     (MODE4072) (12:48) (15MAR04) CLEAR Command                                                                        Page   51
0Current Usings:  (CP,R11) (CV,R12)
0Loc    Object Code    Addr1 Addr2  Stmt Lv Lineno    Source Statement           (Hibal 5, Asmedit 3.3)  HLASM R4.0  2004/03/15 12.48
+___    ______ ____    _____ _____  ____ __ ______    ______ _________
0                                  24066              ¿þþþþþþþþþþþþþþþþþþþþþþþþþþþþþþþþþþþþþþþþþþþþþþþþþþþþþþþþþþþþþþþþþþþþþÜ
                                   24067              Ÿ                                                                     Ÿ
                                   24068              Ÿ  CEXECSUB -- Routine to do CLEAR EXEC.                              Ÿ
                                   24069              Ÿ                                                                     Ÿ
                                                      ¾þþþþþþþþþþþþþþþþþþþþþþþþþþþþþþþþþþþþþþþþþþþþþþþþþþþþþþþþþþþþþþþþþþþþþ»
000495A 50E0 D000/9008_      00000 24070              CEXECSUB PROC
 USING  *,R7
 004974 58E0 70C0/0DEE       04A34 24109                       VCALL CHKXOLD
 00497A 4780 7016            0498A 24113                       IF    NZ,BEGIN
 00497E 58E0 70C4/0DEE       04A38 24124  1                      VCALL CLREX               Clear the exec file
 004984 58E0 70C8/0DEE       04A3C 24128  1                      VCALL SETPAUSE
 00498A                            24132                       END
 00498A 701A/47F0 703A 0498A 0497C 24136                       ELSE  BEGIN
 00498E D207 B886 705C 00886 049D0 24147  1                      MVC   CPERRID,=CL8'NOEXEC'
 004994 9110 B477/47E0_00477       24148  1                      IF    CPFTYPED,BEGIN
 00499C 4110 7175/4100_      04AE9 24163  2                        TSEG  'No EXEC file.',,CR
 0049AE                            24181  1                      END
 0049AE                            24185                       END
 0049AE 18D8/9808 D004_            24189                       PEND
 DROP   *,R7
1MODE     (MODE4072) (12:48) (15MAR04) CLEAR Command                                                                        Page   52
0Current Usings:  (CP,R11) (CV,R12)
0Loc    Object Code    Addr1 Addr2  Stmt Lv Lineno    Source Statement           (Hibal 5, Asmedit 3.3)  HLASM R4.0  2004/03/15 12.48
+___    ______ ____    _____ _____  ____ __ ______    ______ _________
0                                  24210                       QLTORG
1MODE     (MODE4072) (12:48) (15MAR04) CLEAR Command                                                                        Page   53
0Current Usings:  (CP,R11) (CV,R12)
0Loc    Object Code    Addr1 Addr2  Stmt Lv Lineno    Source Statement           (Hibal 5, Asmedit 3.3)  HLASM R4.0  2004/03/15 12.48
+___    ______ ____    _____ _____  ____ __ ______    ______ _________
0                                  24266                       ¿þþþþþþþþþþþþþþÜ
                                   24267                       Ÿ  CLEAR TABS  Ÿ
                                   24268                       ¾þþþþþþþþþþþþþþ»
 004AF6 50E0 D000/9008_      00000 24269              CTABS    PROC
 USING  *,R7
 004B10 5810 B08C/1B00_      0008C 24308                       SCAN
 004B5E 58E0 7454/0DEE       04F64 24339                       SCANCHK
 004B64 1200/4780 7070             24344                       IF    (R0,NZ),BEGIN
 004B6A 41F0 B050/58E0_      00050 24358  1                      TSEG  (R1),(R0)
 004B74 4110 745C/4100_      04F6C 24382  1                      ABORT ': invalid CLEAR TABS option.'
 004B80                            24389                       END
                                   24393
 004B80                            24394                       LOOP  BEGIN
 004B80 D70F B406 B406 00406 00406 24400  1                      CLEAR CPSTABS             Clear tabs
 004B86 58E0 7478/0DEE       04F88 24407  1                      VCALL UPDCPSIB
 004B8C 4780 7084            04B94 24411  1                      UNTIL Z
 004B90 47F0 7070            04B80 24426                       END
                                   24431
 004B94 58E0 747C/0DEE       04F8C 24432                       VCALL PAGETABS            Update page tabs
                                   24436
 004B9A 47F0 C7DE            007DE 24437                       B     CVNEXT
 004B9E 18D8/9808 D004_            24438                       PEND
 DROP   *,R7
1MODE     (MODE4072) (12:48) (15MAR04) CLEAR Command                                                                        Page   54
0Current Usings:  (CP,R11) (CV,R12)
0Loc    Object Code    Addr1 Addr2  Stmt Lv Lineno    Source Statement           (Hibal 5, Asmedit 3.3)  HLASM R4.0  2004/03/15 12.48
+___    ______ ____    _____ _____  ____ __ ______    ______ _________
0000000                00000 00001 24459              CPREFWA  RECORD BEGIN
 000000 00                         24467  1           CPFXFLAG   FLAG
 CPFXFLAG.CPFXFACT 80 ONES         24471  1                      FLAG  CPFXFACT            - Compatability: CLEAR PFX ACT
 CPFXFLAG.CPFXFEXE 40 ONES         24476  1                      FLAG  CPFXFEXE            - Compatability: CLEAR PFX EXEC
 CPFXFLAG.CPFXFVAR 20 ONES         24481  1                      FLAG  CPFXFVAR            - Compatability: CLEAR PFX VARS
 000001                00001 00001 24486                       END
-                                  24496                       ¿þþþþþþþþþþþþþþþþÜ
                                   24497                       Ÿ  CLEAR PREFIX  Ÿ
                                   24498                       ¾þþþþþþþþþþþþþþþþ»
 004BAC 50E0 D000/9008_      00000 24499              CPREF    PROC  CPREFWA
 USING  *,R7
 USING  CPREFWA-(4+36),R8
 004BC6 4160 8028            00000 24549                       LA    R6,CPREFWA
 USING  CPREFWA,R6                 24550                       USING CPREFWA,R6
 004BCA 9200 6000      00000       24559                       CLEAR CPREFWA
                                   24566
 004BCE 5810 B08C/1B00_      0008C 24567                       SCAN  CPFXPRT
 004C20 58E0 739E/0DEE       04F64 24599                       SCANCHK
                                   24604
 004C26 D703 B628 B628_00628 00628 24605                       CLEAR CPAFNAMEL,CPAHOSTL  Clear prefix
 004C32 D204 B1B8 B3B4 001B8 003B4 24617                       MVC   CPACCTSV,CPSACCT
                                   24618                       ¿þþþþþþþþþþþþþþþþþþþþþþþþþþþþþþþþþþþþþþþþþþþþþþþþþÜ
                                   24619                       Ÿ  Check other stuff to clear for compatability.  Ÿ
                                   24620                       ¾þþþþþþþþþþþþþþþþþþþþþþþþþþþþþþþþþþþþþþþþþþþþþþþþþ»
 004C38 9120 6000/47E0_00000       24621                       IF    CPFXFVAR,'VCALL CLRVARS'  Do a CLEAR VARS
                                   24645
 004C46 9140 6000/47E0_00000       24646                       IF    CPFXFEXE,'ACALL CEXECSUB'  Do a CLEAR EXEC
                                   24670
 004C54 9180 6000/47E0_00000       24671                       IF    CPFXFACT,'ACALL CACT'  Do a CLEAR ACTIVE
                                   24695
 004C62 47F0 C7DE            007DE 24696                       B     CVNEXT
 004C66 18D8/9808 D004_            24697                       PEND
 DROP   CPREFWA-(4+36),R8
 DROP   *,R7
                                   24722              ***
                                   24723              ***  CLEAR PREFIX Options.
                                   24724              ***
 004C74 C1C3E3C9E5C54040_          24725              CPFXPRT  OPTION ACTIVE,SET,A,CPFXFACT
 004C9C C5E7C5C3E4E3C540_          24744                       OPTION EXECUTE,SET,A,CPFXFEXE
 004CC4 E5C1D9C9C1C2D3C5_          24763                       OPTION VARIABLES,SET,A,CPFXFVAR
 004CEC E5C1D9E240404040_          24782                       OPTION VARS,SET,,CPFXFVAR
 004D14 E5C1D3E4C5E24040_          24801                       OPTION VALUES,SET,A,CPFXFVAR
 004D3C 4040404040404040_          24820                       SCKW  ,CPFXERR
                                   24835
 004D64 50E0 D000/9008_      00000 24836              CPFXERR  PROC
 USING  *,R7
 004D7E 41F0 B050/58E0_      00050 24875                       TSEG  (R1),(R0)
 004D88 4110 722C/4100_      04FAA 24899                       ABORT ': invalid CLEAR PREFIX option.'
 004D94 18D8/9808 D004_            24906                       PEND
 DROP   *,R7
                                   24926
 DROP   CPREFWA,R6                 24927                       DROP  R6
1MODE     (MODE4072) (12:48) (15MAR04) CLEAR Command                                                                        Page   55
0Current Usings:  (CP,R11) (CV,R12)
0Loc    Object Code    Addr1 Addr2  Stmt Lv Lineno    Source Statement           (Hibal 5, Asmedit 3.3)  HLASM R4.0  2004/03/15 12.48
+___    ______ ____    _____ _____  ____ __ ______    ______ _________
0000000                00000 00001 24935              CVARSWA  RECORD BEGIN
 000000 00                         24943  1           CVARFLAG   FLAG
 CVARFLAG.CVARFACT 80 ONES         24947  1                      FLAG  CVARFACT            - Compatability: CLEAR VARS ACT
 CVARFLAG.CVARFEXE 40 ONES         24952  1                      FLAG  CVARFEXE            - Compatability: CLEAR VARS EXEC
 000001                00001 00001 24957                       END
-                                  24967                       ¿þþþþþþþþþþþþþþþþþþþÜ
                                   24968                       Ÿ  CLEAR VARIABLES  Ÿ
                                   24969                       ¾þþþþþþþþþþþþþþþþþþþ»
 004DA2 50E0 D000/9008_      00000 24970              CVARS    PROC  CVARSWA
 USING  *,R7
 USING  CVARSWA-(4+36),R8
 004DBC 4160 8028            00000 25020                       LA    R6,CVARSWA
 USING  CVARSWA,R6                 25021                       USING CVARSWA,R6
 004DC0 9200 6000      00000       25030                       CLEAR CVARSWA
                                   25037
 004DC4 5810 B08C/1B00_      0008C 25038                       SCAN  CVARSPRT
 004E16 58E0 71A8/0DEE       04F64 25070                       SCANCHK
                                   25075
 004E1C 58E0 71D8/0DEE       04F94 25076                       VCALL CLRVARS             Clear variables
                                   25080                       ¿þþþþþþþþþþþþþþþþþþþþþþþþþþþþþþþþþþþþþþþþþþþþþþþþþþþþþþÜ
                                   25081                       Ÿ  Check for other things to clear for compatability.  Ÿ
                                   25082                       ¾þþþþþþþþþþþþþþþþþþþþþþþþþþþþþþþþþþþþþþþþþþþþþþþþþþþþþþ»
 004E22 9180 6000/47E0_00000       25083                       IF    CVARFACT,BEGIN      Do CLEAR ACTIVE...
 004E2A 9610 BD55      00D55       25098  1                      SET   CPFCLEAR
 004E2E 58E0 71E8/0DEE       04FA4 25104  1                      VCALL CLRTEXT
 004E34                            25108                       END
                                   25112
 004E34 9140 6000/47E0_00000       25113                       IF    CVARFEXE,'ACALL CEXECSUB'  Do CLEAR EXEC
                                   25137
 004E42 47F0 C7DE            007DE 25138                       B     CVNEXT
 004E46 18D8/9808 D004_            25139                       PEND
 DROP   CVARSWA-(4+36),R8
 DROP   *,R7
                                   25164              ***
                                   25165              ***  CLEAR VARS Options.
                                   25166              ***
 004E54 C1C3E3C9E5C54040_          25167              CVARSPRT OPTION ACTIVE,SET,A,CVARFACT
 004E7C C5E7C5C3E4E3C540_          25186                       OPTION EXECUTE,SET,A,CVARFEXE
 004EA4 D7D9C5C6C9E74040_          25205                       SCKW  PREFIX,V(SCNNOOP),A
 004ECC D5C1D4C540404040_          25220                       SCKW  NAME,V(SCNNOOP),A             (Compatability)
 004EF4 4040404040404040_          25235                       SCKW  ,CVARERR
                                   25250
 004F1C 50E0 D000/9008_      00000 25251              CVARERR  PROC
 USING  *,R7
 004F36 41F0 B050/58E0_      00050 25290                       TSEG  (R1),(R0)
 004F40 4110 7092/4100_      04FC8 25314                       ABORT ': invalid CLEAR VARIABLES option.'
 004F4C 18D8/9808 D004_            25321                       PEND
 DROP   *,R7
                                   25341
 DROP   CVARSWA,R6                 25342                       DROP  R6
1MODE     (MODE4072) (12:48) (15MAR04) CLEAR Command                                                                        Page   56
0Current Usings:  (CP,R11) (CV,R12)
0Loc    Object Code    Addr1 Addr2  Stmt Lv Lineno    Source Statement           (Hibal 5, Asmedit 3.3)  HLASM R4.0  2004/03/15 12.48
+___    ______ ____    _____ _____  ____ __ ______    ______ _________
0                                  25350                       QLTORG
1MODE     (MODE4072) (12:48) (15MAR04) CLEAR Command                                                                        Page   57
0Current Usings:  (CP,R11) (CV,R12)
0Loc    Object Code    Addr1 Addr2  Stmt Lv Lineno    Source Statement           (Hibal 5, Asmedit 3.3)  HLASM R4.0  2004/03/15 12.48
+___    ______ ____    _____ _____  ____ __ ______    ______ _________
0                                  25378                       ¿þþþþþþþþþþþþþþþþþÜ
                                   25379                       Ÿ  CLEAR DEFINES  Ÿ
                                   25380                       ¾þþþþþþþþþþþþþþþþþ»
 004FEA 50E0 D000/9008_      00000 25381              CDEF     PROC
 USING  *,R7
 005004 5810 B08C/1B00_      0008C 25420                       SCAN
 005052 58E0 77E8/0DEE       057EC 25451                       SCANCHK
 005058 1200/4780 7070             25456                       IF    (R0,NZ),BEGIN
 00505E 41F0 B050/58E0_      00050 25470  1                      TSEG  (R1),(R0)
 005068 4110 7888/4100_      0588C 25494  1                      ABORT ': invalid CLEAR DEFINES option.'
 005074                            25501                       END
                                   25505
 005074 58E0 77F0/0DEE       057F4 25506                       VCALL CLRDEF              CLEAR DEFINES
                                   25510
 00507A 47F0 C7DE            007DE 25511                       B     CVNEXT
 00507E 18D8/9808 D004_            25512                       PEND
 DROP   *,R7
1MODE     (MODE4072) (12:48) (15MAR04) CLEAR Command                                                                        Page   58
0Current Usings:  (CP,R11) (CV,R12)
0Loc    Object Code    Addr1 Addr2  Stmt Lv Lineno    Source Statement           (Hibal 5, Asmedit 3.3)  HLASM R4.0  2004/03/15 12.48
+___    ______ ____    _____ _____  ____ __ ______    ______ _________
0                                  25533                       ¿þþþþþþþþþþþþþþþþþÜ
                                   25534                       Ÿ  CLEAR LEARNED  Ÿ
                                   25535                       ¾þþþþþþþþþþþþþþþþþ»
 00508C 50E0 D000/9008_      00000 25536              CLEARN   PROC
 USING  *,R7
 0050A6 5810 B08C/1B00_      0008C 25575                       SCAN
 0050F4 58E0 7746/0DEE       057EC 25606                       SCANCHK
 0050FA 1200/4780 7070             25611                       IF    (R0,NZ),BEGIN
 005100 41F0 B050/58E0_      00050 25625  1                      TSEG  (R1),(R0)
 00510A 4110 7805/4100_      058AB 25649  1                      ABORT ': invalid CLEAR LEARNED option.'
 005116                            25656                       END
                                   25660
 005116 58E0 7752/0DEE       057F8 25661                       VCALL CLRLRN              Clear learned
                                   25665
 00511C 47F0 C7DE            007DE 25666                       B     CVNEXT
 005120 18D8/9808 D004_            25667                       PEND
 DROP   *,R7
1MODE     (MODE4072) (12:48) (15MAR04) CLEAR Command                                                                        Page   59
0Current Usings:  (CP,R11) (CV,R12)
0Loc    Object Code    Addr1 Addr2  Stmt Lv Lineno    Source Statement           (Hibal 5, Asmedit 3.3)  HLASM R4.0  2004/03/15 12.48
+___    ______ ____    _____ _____  ____ __ ______    ______ _________
0                                  25688                       ¿þþþþþþþþþþþþþþþþþÜ
                                   25689                       Ÿ  CLEAR HISTORY  Ÿ
                                   25690                       ¾þþþþþþþþþþþþþþþþþ»
 00512E 50E0 D000/9008_      00000 25691              CHIST    PROC
 USING  *,R7
 005148 5810 B08C/1B00_      0008C 25730                       SCAN
 005196 58E0 76A4/0DEE       057EC 25761                       SCANCHK
 00519C 1200/4780 7070             25766                       IF    (R0,NZ),BEGIN
 0051A2 41F0 B050/58E0_      00050 25780  1                      TSEG  (R1),(R0)
 0051AC 4110 7782/4100_      058CA 25804  1                      ABORT ': invalid CLEAR HISTORY option.'
 0051B8                            25811                       END
                                   25815
 0051B8 58E0 76B4/0DEE       057FC 25816                       VCALL CLRHCMDS            Clear history
                                   25820
 0051BE 47F0 C7DE            007DE 25821                       B     CVNEXT
 0051C2 18D8/9808 D004_            25822                       PEND
 DROP   *,R7
1MODE     (MODE4072) (12:48) (15MAR04) CLEAR Command                                                                        Page   60
0Current Usings:  (CP,R11) (CV,R12)
0Loc    Object Code    Addr1 Addr2  Stmt Lv Lineno    Source Statement           (Hibal 5, Asmedit 3.3)  HLASM R4.0  2004/03/15 12.48
+___    ______ ____    _____ _____  ____ __ ______    ______ _________
0                                  25843                       ¿þþþþþþþþþþþþþþþþÜ
                                   25844                       Ÿ  CLEAR XDEBUG  Ÿ
                                   25845                       ¾þþþþþþþþþþþþþþþþ»
 0051D0 50E0 D000/9008_      00000 25846              CXDEBUG  PROC
 USING  *,R7
 0051EA 5810 B08C/1B00_      0008C 25885                       SCAN
 005238 58E0 7602/0DEE       057EC 25916                       SCANCHK
 00523E 1200/4780 7076             25921                       IF    (R0,NZ),BEGIN
 005244 41F0 B050/58E0_      00050 25935  1                      TSEG  (R1),(R0)
 00524E 4110 7648/4100_      05832 25959  1                      TSEG  ': invalid CLEAR XDEBUG option.'
 005260                            25977                       END
                                   25981
                                   25982                       COMMENT                   Clear XDEBUG
 005260 58E0 7616/0DEE       05800 25983                       VCALL DBCLEAR
                                   25987
 005266 47F0 C7DE            007DE 25988                       B     CVNEXT
 00526A 18D8/9808 D004_            25989                       PEND
 DROP   *,R7
1MODE     (MODE4072) (12:48) (15MAR04) CLEAR Command                                                                        Page   61
0Current Usings:  (CP,R11) (CV,R12)
0Loc    Object Code    Addr1 Addr2  Stmt Lv Lineno    Source Statement           (Hibal 5, Asmedit 3.3)  HLASM R4.0  2004/03/15 12.48
+___    ______ ____    _____ _____  ____ __ ______    ______ _________
0                                  26010                       ¿þþþþþþþþþþþþþþþþþþÜ
                                   26011                       Ÿ  CLEAR XMONITOR  Ÿ
                                   26012                       ¾þþþþþþþþþþþþþþþþþþ»
 005278 50E0 D000/9008_      00000 26013              CXMON    PROC
 USING  *,R7
 005292 5810 B08C/1B00_      0008C 26052                       SCAN
 0052E0 58E0 755A/0DEE       057EC 26083                       SCANCHK
 0052E6 1200/4780 7076             26088                       IF    (R0,NZ),BEGIN
 0052EC 41F0 B050/58E0_      00050 26102  1                      TSEG  (R1),(R0)
 0052F6 4110 750E/4100_      057A0 26126  1                      TSEG  ': invalid CLEAR XMONITOR option.'
 005308                            26144                       END
                                   26148
                                   26149                       COMMENT                   Clear monitor memory, records
 005308 58E0 7572/0DEE       05804 26150                       VCALL MCLEAR
                                   26154
 00530E 47F0 C7DE            007DE 26155                       B     CVNEXT
 005312 18D8/9808 D004_            26156                       PEND
 DROP   *,R7
1MODE     (MODE4072) (12:48) (15MAR04) CLEAR Command                                                                        Page   62
0Current Usings:  (CP,R11) (CV,R12)
0Loc    Object Code    Addr1 Addr2  Stmt Lv Lineno    Source Statement           (Hibal 5, Asmedit 3.3)  HLASM R4.0  2004/03/15 12.48
+___    ______ ____    _____ _____  ____ __ ______    ______ _________
0                                  26177                       ¿þþþþþþþþþþþþþþþÜ
                                   26178                       Ÿ  CLEAR XDUMP  Ÿ
                                   26179                       ¾þþþþþþþþþþþþþþþ»
 005320 50E0 D000/9008_      00000 26180              CXDUMP   PROC
 USING  *,R7
 00533A 5810 B08C/1B00_      0008C 26219                       SCAN
 005388 58E0 74B2/0DEE       057EC 26250                       SCANCHK
 00538E 1200/4780 7076             26255                       IF    (R0,NZ),BEGIN
 005394 41F0 B050/58E0_      00050 26269  1                      TSEG  (R1),(R0)
 00539E D207 B886 7486_00886 057C0 26293  1                      ERROR ': invalid. ',,SYNTAX
 0053B0                            26301                       END
 0053B0 947F B7E4      007E4       26305                       CLEAR CPFXDUMP
                                   26312
 0053B4 47F0 C7DE            007DE 26313                       B     CVNEXT
 0053B8 18D8/9808 D004_            26314                       PEND
 DROP   *,R7
1MODE     (MODE4072) (12:48) (15MAR04) CLEAR Command                                                                        Page   63
0Current Usings:  (CP,R11) (CV,R12)
0Loc    Object Code    Addr1 Addr2  Stmt Lv Lineno    Source Statement           (Hibal 5, Asmedit 3.3)  HLASM R4.0  2004/03/15 12.48
+___    ______ ____    _____ _____  ____ __ ______    ______ _________
0                                  26335                       ¿þþþþþþþþþþþþþþþþÜ
                                   26336                       Ÿ  CLEAR XQUIET  Ÿ
                                   26337                       ¾þþþþþþþþþþþþþþþþ»
 0053C6 50E0 D000/9008_      00000 26338              CXQUIET  PROC
 USING  *,R7
 0053E0 5810 B08C/1B00_      0008C 26377                       SCAN
 00542E 58E0 740C/0DEE       057EC 26408                       SCANCHK
 005434 1200/4780 7076             26413                       IF    (R0,NZ),BEGIN
 00543A 41F0 B050/58E0_      00050 26427  1                      TSEG  (R1),(R0)
 005444 D207 B886 73E0_00886 057C0 26451  1                      ERROR ': invalid. ',,SYNTAX
 005456                            26459                       END
 005456 94BF B7E4      007E4       26463                       CLEAR CPFXQT
                                   26470
 00545A 47F0 C7DE            007DE 26471                       B     CVNEXT
 00545E 18D8/9808 D004_            26472                       PEND
 DROP   *,R7
1MODE     (MODE4072) (12:48) (15MAR04) CLEAR Command                                                                        Page   64
0Current Usings:  (CP,R11) (CV,R12)
0Loc    Object Code    Addr1 Addr2  Stmt Lv Lineno    Source Statement           (Hibal 5, Asmedit 3.3)  HLASM R4.0  2004/03/15 12.48
+___    ______ ____    _____ _____  ____ __ ______    ______ _________
0                                  26493                       ¿þþþþþþþþþþþþþþþÜ
                                   26494                       Ÿ  CLEAR ERROR  Ÿ
                                   26495                       ¾þþþþþþþþþþþþþþþ»
 00546C 50E0 D000/9008_      00000 26496              CERROR   PROC
 USING  *,R7
 005486 5810 B08C/1B00_      0008C 26535                       SCAN
 0054D4 58E0 7366/0DEE       057EC 26566                       SCANCHK
 0054DA 1200/4780 7070             26571                       IF    (R0,NZ),BEGIN
 0054E0 41F0 B050/58E0_      00050 26585  1                      TSEG  (R1),(R0)
 0054EA 4110 746E/4100_      058F4 26609  1                      ABORT ': invalid CLEAR ERROR option.'
 0054F6                            26616                       END
                                   26620
                                   26621                       COMMENT                   Clear user error variables
 0054F6 58E0 7382/0DEE       05808 26622                       VCALL CLRERROR
                                   26626
 0054FC 47F0 C7DE            007DE 26627                       B     CVNEXT
 005500 18D8/9808 D004_            26628                       PEND
 DROP   *,R7
1MODE     (MODE4072) (12:48) (15MAR04) CLEAR Command                                                                        Page   65
0Current Usings:  (CP,R11) (CV,R12)
0Loc    Object Code    Addr1 Addr2  Stmt Lv Lineno    Source Statement           (Hibal 5, Asmedit 3.3)  HLASM R4.0  2004/03/15 12.48
+___    ______ ____    _____ _____  ____ __ ______    ______ _________
0                                  26649              ¿þþþþþþþþþþþþþþþþþþþþþþþþþþþþþþþþþþþþþþþþþþþþþþþþþþþþþþþþþþþþþþþþþþþþþÜ
                                   26650              Ÿ                                                                     Ÿ
                                   26651              Ÿ                                                                     Ÿ
                                   26652              Ÿ  CLEAR ATTENTION                                                    Ÿ
                                   26653              Ÿ                                                                     Ÿ
                                   26654              Ÿ                                                                     Ÿ
                                   26655              Ÿ                                                                     Ÿ
                                                      ¾þþþþþþþþþþþþþþþþþþþþþþþþþþþþþþþþþþþþþþþþþþþþþþþþþþþþþþþþþþþþþþþþþþþþþ»
000550E 50E0 D000/9008_      00000 26656              CATTN    PROC
 USING  *,R7
 005528 5810 B08C/1B00_      0008C 26695                       SCAN
 005576 58E0 72C4/0DEE       057EC 26726                       SCANCHK
 00557C 1200/4780 7070             26731                       IF    (R0,NZ),BEGIN
 005582 41F0 B050/58E0_      00050 26745  1                      TSEG  (R1),(R0)
 00558C 4110 72E4/4100_      0580C 26769  1                      ABORT ': invalid CLEAR ATTN option.'
 005598                            26776                       END
                                   26780
                                   26781                       COMMENT                   Clear user attn variables
 005598 58E0 7300/0DEE       05828 26782                       VCALL CLRATTN
                                   26786
 00559E 47F0 C7DE            007DE 26787                       B     CVNEXT
 0055A2 18D8/9808 D004_            26788                       PEND
 DROP   *,R7
1MODE     (MODE4072) (12:48) (15MAR04) CLEAR Command                                                                        Page   66
0Current Usings:  (CP,R11) (CV,R12)
0Loc    Object Code    Addr1 Addr2  Stmt Lv Lineno    Source Statement           (Hibal 5, Asmedit 3.3)  HLASM R4.0  2004/03/15 12.48
+___    ______ ____    _____ _____  ____ __ ______    ______ _________
0                                  26809                       ¿þþþþþþþþþþþþþþþþþÜ
                                   26810                       Ÿ  CLEAR DEVICES  Ÿ
                                   26811                       ¾þþþþþþþþþþþþþþþþþ»
 0055B0 50E0 D000/9008_      00000 26812              CDEV     PROC
 USING  *,R7
 0055CA 4110 7286/4100_      05850 26851                       ERROR 'Devices: invalid clear option.'
 0055D6 5810 B08C/1B00_      0008C 26858                       SCAN
 005624 58E0 7222/0DEE       057EC 26889                       SCANCHK
 00562A 1200/4780 707C             26894                       IF    (R0,NZ),BEGIN
 005630 41F0 B050/58E0_      00050 26908  1                      TSEG  (R1),(R0)
 00563A 4110 7347/4100_      05911 26932  1                      ABORT ': invalid CLEAR DEVICES option.'
 005646                            26939                       END
                                   26943              *
                                   26944              *        VCALL CLRDEV              Clear devices
 005646 47F0 C7DE            007DE 26945                       B     CVNEXT
 00564A 18D8/9808 D004_            26946                       PEND
 DROP   *,R7
1MODE     (MODE4072) (12:48) (15MAR04) CLEAR Command                                                                        Page   67
0Current Usings:  (CP,R11) (CV,R12)
0Loc    Object Code    Addr1 Addr2  Stmt Lv Lineno    Source Statement           (Hibal 5, Asmedit 3.3)  HLASM R4.0  2004/03/15 12.48
+___    ______ ____    _____ _____  ____ __ ______    ______ _________
0                                  26967                       ¿þþþþþþþþþþþþþþþþÜ
                                   26968                       Ÿ  CLEAR WDEBUG  Ÿ
                                   26969                       ¾þþþþþþþþþþþþþþþþ»
 005658 50E0 D000/9008_      00000 26970              CWDEBUG  PROC
 USING  *,R7
 005672 5810 B08C/1B00_      0008C 27009                       SCAN
 0056C0 58E0 717A/0DEE       057EC 27040                       SCANCHK
 0056C6 1200/4780 7070             27045                       IF    (R0,NZ),BEGIN
 0056CC 41F0 B050/58E0_      00050 27059  1                      TSEG  (R1),(R0)
 0056D6 4110 71FC/4100_      0586E 27083  1                      ABORT ': invalid CLEAR WDEBUG option.'
 0056E2                            27090                       END
                                   27094
 0056E2 58E0 71BA/0DEE       0582C 27095                       VCALL CLRDEBUG            Clear debug
 0056E8 47F0 C7DE            007DE 27099                       B     CVNEXT
 0056EC 18D8/9808 D004_            27100                       PEND
 DROP   *,R7
1MODE     (MODE4072) (12:48) (15MAR04) CLEAR Command                                                                        Page   68
0Current Usings:  (CP,R11) (CV,R12)
0Loc    Object Code    Addr1 Addr2  Stmt Lv Lineno    Source Statement           (Hibal 5, Asmedit 3.3)  HLASM R4.0  2004/03/15 12.48
+___    ______ ____    _____ _____  ____ __ ______    ______ _________
0                                  27121                       ¿þþþþþþþþþþþþþþþþþþÜ
                                   27122                       Ÿ  CLEAR GETSTACK  Ÿ
                                   27123                       ¾þþþþþþþþþþþþþþþþþþ»
 0056FA 50E0 D000/9008_      00000 27124              CGETSTK  PROC
 USING  *,R7
 005714 5810 B08C/1B00_      0008C 27163                       SCAN
 005762 58E0 70D8/0DEE       057EC 27194                       SCANCHK
 005768 1200/4780 7070             27199                       IF    (R0,NZ),BEGIN
 00576E 41F0 B050/58E0_      00050 27213  1                      TSEG  (R1),(R0)
 005778 4110 70B4/4100_      057C8 27237  1                      ABORT ': invalid CLEAR GETSTACK option.'
 005784                            27244                       END
                                   27248
 005784 D701 B868 B868 00868 00868 27249                       CLEAR CPGETLN
 00578A 47F0 C7DE            007DE 27256                       B     CVNEXT
 00578E 18D8/9808 D004_            27257                       PEND
 DROP   *,R7
1MODE     (MODE4072) (12:48) (15MAR04) CLEAR Command                                                                        Page   69
0Current Usings:  (CP,R11) (CV,R12)
0Loc    Object Code    Addr1 Addr2  Stmt Lv Lineno    Source Statement           (Hibal 5, Asmedit 3.3)  HLASM R4.0  2004/03/15 12.48
+___    ______ ____    _____ _____  ____ __ ______    ______ _________
0                                  27278                       QLTORG
1MODE     (MODE4072) (12:48) (15MAR04) SHOW OPTIONS Command                                                                 Page   70
0Current Usings:  (CP,R11) (CV,R12)
0Loc    Object Code    Addr1 Addr2  Stmt Lv Lineno    Source Statement           (Hibal 5, Asmedit 3.3)  HLASM R4.0  2004/03/15 12.48
+___    ______ ____    _____ _____  ____ __ ______    ______ _________
0                                  27316              ¿þþþþþþþþþþþþþþþþþþþþþþþþþþþþþþþþþþþþþþþþþþþþþþþþþþþþþþþþþþþþþþþþþþþþþÜ
                                   27317              Ÿ                                                                     Ÿ
                                   27318              Ÿ  SHOWOPTS -- SHOW OPTIONS command.                                  Ÿ
                                   27319              Ÿ                                                                     Ÿ
                                                      ¾þþþþþþþþþþþþþþþþþþþþþþþþþþþþþþþþþþþþþþþþþþþþþþþþþþþþþþþþþþþþþþþþþþþþþ»
0005930 50E0 D000/9008_      00000 27320              SHOWOPTS PROC  KWR
 USING  *,R7
 USING  KWR-(4+36),R8
 00594A 4150 8028            00000 27370                       LA    R5,KWR              Kwr ptr
 USING  KWR,R5                     27371                       USING KWR,R5
 00594E D7FF 5000 5000_00000 00000 27380                       CLEAR KWR
                                   27388
 00595A D204 BC48 B3B4 00C48 003B4 27389                       MVC   CPCACCT,CPSACCT
 005960 5810 B08C/1B00_      0008C 27390                       SCAN  OPTPRT
 0059B2 58E0 7596/0DEE       05EE0 27422                       SCANCHK
                                   27427
 0059B8 D201 5003 BC4B 00003 00C4B 27428                       MVC   KWRGRP,CPCGRP
 0059BE D202 5000 BC48 00000 00C48 27429                       MVC   KWRUSER,CPCUSER
 0059C4 4800 75F4            05F3E 27430                       LH    R0,=H'-1'           Prompt for kw (allow acct privs)
 0059C8 4110 5000            00000 27431                       LA    R1,KWR
 0059CC 58E0 759A/0DEE       05EE4 27432                       VCALL GETKWR              Read kwr, etc.
                                   27436
 0059D2 4110 BC4B/4100_      00C4B 27437                       TSEG  CPCGRP,2
 0059E4 4110 763A/4100_      05F84 27467                       TSEG  '.'
 0059F6 4110 BC48/4100_      00C48 27485                       TSEG  CPCUSER,,B
                                   27513
 005A08 D613 5078 5078_00078 00078 27514                       IF    (KWRNAME,NZ),BEGIN
 005A12 4110 763B/4100_      05F85 27530  1                      TSEG  '"'
 005A24 4110 5078/4100_      00078 27548  1                      TSEG  KWRNAME,,T
 005A36 4110 763B/4100_      05F85 27576  1                      TSEG  '"',,B
 005A48                            27594                       END
                                   27598
 005A48 4110 756E/4100_      05EB8 27599                       TSEG  'Options:'
 005A5A 1B00/41F0 B050_            27617                       TCR
 005A66 1B00/41F0 B050_            27642                       TCR
                                   27667
 005A72 4110 75F6/4100_      05F40 27668                       TSEG  'Permanent Options:',,CR
                                   27686
 005A84 4110 C4D8/4100_      004D8 27687                       TSEG  CVBLANKS,2
 005A96 4110 5000            00000 27717                       LA    R1,KWR
 005A9A 58E0 75AE/0DEE       05EF8 27718                       VCALL AUTODISP            Auto signon options
                                   27722
 005AA0 4110 C4D8/4100_      004D8 27723                       TSEG  CVBLANKS,2
 005AB2 4110 5000            00000 27753                       LA    R1,KWR
 005AB6 58E0 75B2/0DEE       05EFC 27754                       VCALL JOBDISP             Job options
                                   27758
 005ABC 4110 C4D8/4100_      004D8 27759                       TSEG  CVBLANKS,2
 005ACE 4110 5000            00000 27789                       LA    R1,KWR
 005AD2 58E0 75B6/0DEE       05F00 27790                       VCALL OUTDISP             Output options
 005AD8 D504 B3B4 5000_003B4 00000 27794                       IF    (CPSACCT,NE,KWRUSER),'CLEAR KWR; B CVNEXT'
 005AF2 D7FF 5000 5000_00000 00000 27826                       CLEAR KWR
1MODE     (MODE4072) (12:48) (15MAR04) SHOW OPTIONS Command                                                                 Page   71
0Current Usings:  (KWR,R5) (*,R7) (KWR-(4+36),R8) (CP,R11) (CV,R12)
0Loc    Object Code    Addr1 Addr2  Stmt Lv Lineno    Source Statement           (Hibal 5, Asmedit 3.3)  HLASM R4.0  2004/03/15 12.48
+___    ______ ____    _____ _____  ____ __ ______    ______ _________
0005AFE 1B00/41F0 B050_            27835                       TCR
 005B0A 58E0 75BA/0DEE       05F04 27860                       VCALL TERMDISP            Terminal options
-005B10 1B00/41F0 B050_            27865                       TCR
 005B1C 4110 7576/4100_      05EC0 27890                       TSEG  'Session Options:',,CR
                                   27908
 005B2E 4110 7608/4100_      05F52 27909                       TSEG  '  ACCOUNT='
 005B40 4110 B1BB/4100_      001BB 27927                       TSEG  CPGRPSV
 005B52 4110 763A/4100_      05F84 27955                       TSEG  '.'
 005B64 4110 B1B8/4100_      001B8 27973                       TSEG  CPUSERSV
 005B76 9180 B476/47E0_00476       28001                       IF    CPGFLG3.CPFKWENT,'TSEG " (Password)"'
                                   28040
 005B90 1B00                       28041                       CLEAR R0
 005B92 D605 B880 B880_00880 00880 28045                       IF    (CPVOLUME,NZ),BEGIN
 005B9C 4110 7647/4100_      05F91 28061  1                      TSEG  ', VOLUME='
 005BAE 4110 B880/4100_      00880 28079  1                      SETMSG CPVOLUME
 005BB6 58E0 75BE/0DEE       05F08 28093  1                      VCALL LRTRIM
 005BBC                            28097                       END
 005BBC 41F0 B050/58E0_      00050 28101                       TSEG  (R1),(R0)
 005BC6 4110 7650/4100_      05F9A 28125                       TSEG  ', LENGTH='
 005BD8 4810 B87E/1B00_      0087E 28143                       TNUM  LH:CPLENGTH
 005BE8 4110 7586/4100_      05ED0 28164                       TSEG  ', DELTA='
 005BFA 5800 B738            00738 28182                       L     R0,CPDELTA
 005BFE 58E0 75C6/0DEE       05F10 28183                       VCALL CVEXNO
 005C04 41F0 B050/58E0_      00050 28187                       TSEG  (R1),(R0),CR
                                   28211
 005C0E 4110 7612/4100_      05F5C 28212                       TSEG  '  LIBRARY='
 005C20 4110 B8AB/4100_      008AB 28230                       SETMSG CPLIB
 005C28 58E0 75BE/0DEE       05F08 28244                       VCALL LRTRIM
 005C2E 41F0 B050/58E0_      00050 28248                       TSEG  (R1),(R0)
 005C38 D503 756A B628_05EB4 00628 28272                       IF    (CPAFNAMEL,EQ,0),'TSEG ", NO PREFIX"'
 005C54 730E/47F0 73A6 05C54 05C40 28313                       ELSE  BEGIN
 005C58 4110 7664/4100_      05FAE 28324  1                      TSEG  ', PREFIX='
                                   28342  1                      COMMENT                   FILE NAME
 005C6A 4110 B62C/5800_      0062C 28343  1                      SETMSG CPAFNAME,L:CPAFNAMEL
 005C72 58E0 75CA/0DEE       05F14 28357  1                      VCALL RETFNAME
 005C78 41F0 B050/58E0_      00050 28361  1                      TSEG  (R1),(R0)
                                   28385  1                      COMMENT                   #MEMBER NAME, IF ANY
 005C82 4110 B62C/5800_      0062C 28386  1                      SETMSG CPAFNAME,L:CPAFNAMEL
 005C8A 58E0 75CE/0DEE       05F18 28400  1                      VCALL RETFMEM
 005C90 1200/47D0 7378             28404  1                      IF    (R0,POS),BEGIN
 005C96 9001 D000/41D0_      00000 28418  2                        XPUSH R0,R1
 005C9E 4110 766D/4100_      05FB7 28421  2                        TSEG  '#'
 005CB0 4BD0 761C/9801_      05F66 28439  2                        XPOP  R0,R1
 005CB8 41F0 B050/58E0_      00050 28442  2                        TSEG  (R1),(R0)
 005CC2                            28466  1                      END
                                   28470  1                      COMMENT                   ON HOST, IF ANY
 005CC2 D503 756A B6AC_05EB4 006AC 28471  1                      IF    (CPAHOSTL,NE,0),BEGIN
 005CCC 4110 75D2/4100_      05F1C 28489  2                        TSEG  ' on '
 005CDE 4110 B6B0/5800_      006B0 28507  2                        TSEG  CPAHOST,L:CPAHOSTL
 005CF0                            28535  1                      END
 005CF0                            28539                       END
 005CF0 1B00/41F0 B050_            28543                       TWRITE
1MODE     (MODE4072) (12:48) (15MAR04) SHOW OPTIONS Command                                                                 Page   72
0Current Usings:  (KWR,R5) (*,R7) (KWR-(4+36),R8) (CP,R11) (CV,R12)
0Loc    Object Code    Addr1 Addr2  Stmt Lv Lineno    Source Statement           (Hibal 5, Asmedit 3.3)  HLASM R4.0  2004/03/15 12.48
+___    ______ ____    _____ _____  ____ __ ______    ______ _________
0005CFC 4770 C7DA            007DA 28568                       BNZ   CVABORT
                                   28569
 005D00 4110 C4D8/4100_      004D8 28570                       TSEG  CVBLANKS,2
 005D12 58E0 75DA/0DEE       05F24 28600                       ACALL MODEDISP            Modes
                                   28604
 005D18 4110 C4D8/4100_      004D8 28605                       TSEG  CVBLANKS,2
 005D2A 58E0 75DE/0DEE       05F28 28635                       VCALL JESDISP             Jes options
                                   28639
 005D30 4110 C4D8/4100_      004D8 28640                       TSEG  CVBLANKS,2
 005D42 58E0 75E2/0DEE       05F2C 28670                       VCALL JESDISP2            Put out job numbers
 005D48 4110 C4D8/4100_      004D8 28674                       TSEG  CVBLANKS,2          Indent
 005D5A 58E0 75E6/0DEE       05F30 28704                       VCALL EXECDISP            Exec options
                                   28708
 005D60 4110 C4D8/4100_      004D8 28709                       TSEG  CVBLANKS,2
 005D72 9500 B8BA/4770_008BA       28739                       IF    (CPESCAPE,Z),'SETMSG "NO ESCAPE CHAR"'
 005D82 743C/47F0 7456_05D82 05D78 28764                       ELSE  'TSEG "ESCAPE="; SETMSG CPESCAPE'
 005DA0 41F0 B050/58E0_      00050 28812                       TSEG  (R1),(R0)
 005DAA 9500 B8BB/4770_008BB       28836                       IF    (CPSKIP,Z),'SETMSG ", NO SKIP CHAR"'
 005DBA 7474/47F0 748E_05DBA 05DB0 28861                       ELSE  'TSEG ", SKIP="; SETMSG CPSKIP'
 005DD8 41F0 B050/58E0_      00050 28909                       TSEG  (R1),(R0)
 005DE2 4110 767C/4100_      05FC6 28933                       TSEG  ', RESCAN='
 005DF4 48F0 B8B8/1B00_      008B8 28951                       BTD   CPDOUB,0,LH:CPRSCNVL
 005E04 41F0 B050/58E0_      00050 28970                       TSEG  (R1),(R0),WR
 005E0E 4770 C7DA            007DA 28994                       BNZ   CVABORT
                                   28995
 005E12 4110 C4D8/4100_      004D8 28996                       TSEG  CVBLANKS,2
 005E24 58E0 75EE/0DEE       05F38 29026                       VCALL LPRDISP
                                   29030
 005E2A 47F0 C7DE            007DE 29031                       B     CVNEXT
 005E2E 18D8/9808 D004_            29032                       PEND
 DROP   KWR-(4+36),R8
 DROP   *,R7
                                   29057
 DROP   KWR,R5                     29058                       DROP  KWR
-005E3C 4040404040404040_          29067              OPTPRT   SCKW  ,V(ACCTPSHC),PUSH
 005E64 4040404040404040_          29082                       SCKW  ,V(COLLPSH),PUSH
 005E8C 4040404040404040_          29097                       SCKW  ,V(NOTVALID)
                                   29112
                                   29113                       QLTORG
1MODE     (MODE4072) (12:48) (15MAR04) SHOW MODE Command                                                                    Page   73
0Current Usings:  (CP,R11) (CV,R12)
0Loc    Object Code    Addr1 Addr2  Stmt Lv Lineno    Source Statement           (Hibal 5, Asmedit 3.3)  HLASM R4.0  2004/03/15 12.48
+___    ______ ____    _____ _____  ____ __ ______    ______ _________
0                                  29174              ¿þþþþþþþþþþþþþþþþþþþþþþþþþþþþþþþþþþþþþþþþþþþþþþþþþþþþþþþþþþþþþþþþþþþþþÜ
                                   29175              Ÿ                                                                     Ÿ
                                   29176              Ÿ  SHOMODE -- SHOW MODE command.                                      Ÿ
                                   29177              Ÿ  MODEDISP -- Subroutine (called by "SHOW OPTIONS").                 Ÿ
                                   29178              Ÿ                                                                     Ÿ
                                                      ¾þþþþþþþþþþþþþþþþþþþþþþþþþþþþþþþþþþþþþþþþþþþþþþþþþþþþþþþþþþþþþþþþþþþþþ»
0005FD0 50E0 D000/9008_      00000 29179              SHOMODE  PROC
 USING  *,R7
 005FEA 58E0 7DC6/0DEE       06DB0 29218                       VCALL COLLOPTS       Allow collect options
 005FF0 58E0 7DCA/0DEE       06DB4 29222                       ACALL MODEDISP
 005FF6 47F0 C7DE            007DE 29226                       B     CVNEXT
 005FFA 18D8/9808 D004_            29227                       PEND
 DROP   *,R7
-006008 50E0 D000/9008_      00000 29248              MODEDISP PROC
 USING  *,R7
 006022 9140 B476/4710_00476       29287                       IF    ~CPGFLG3.CPFCMDFX,'TSEG "NO"'
 00603C 4110 7E1C/4100_      06E3E 29326                       TSEG  'RETRY '
                                   29344
 00604E 4110 7E22/4100_      06E44 29345                       SETMSG 'MODIFY'
 006056 9120 B476/47E0_00476       29349                       IF    CPGFLG3.CPFCMDED,'SETMSG "EDIT"'
 006066 41F0 B050/58E0_      00050 29374                       TSEG  (R1),(R0),B
                                   29398
 006070 9101 B477/47E0_00477       29399                       IF    CPGFNLST,'TSEG "NO"'
 00608A 4110 7EA8/4100_      06ECA 29437                       TSEG  'LIST '
                                   29455
 00609C 9140 B478/4710_00478       29456                       IF    ~CPGFCLR,'TSEG "NO"'
 0060B6 4110 7E28/4100_      06E4A 29494                       TSEG  'CLEAR '
                                   29512
 0060C8 9108 B476/4710_00476       29513                       IF    ~CPGFLG3.CPF3IMED,'TSEG "NO"'
 0060E2 4110 7E2E/4100_      06E50 29552                       TSEG  'SHORT '
                                   29570
 0060F4 9108 B478/47E0_00478       29571                       IF    CPGFNATN,'TSEG "NO"'
 00610E 4110 7EAD/4100_      06ECF 29609                       TSEG  'ATTN '
                                   29627
 006120 D601 B8B6 B8B6_008B6 008B6 29628                       IF    (CPWRNCNT,Z),'SETMSG "NOWARN"'
 006132 7114/47F0 7136 06132 06128 29653                       ELSE  BEGIN
 006136 4110 7EB2/4100_      06ED4 29664  1                      TSEG  'WARN='
 006148 48F0 B8B6/1B00_      008B6 29682  1                      BTD   CPDOUB,0,LH:CPWRNCNT
 006158                            29701                       END
 006158 41F0 B050/58E0_      00050 29705                       TSEG  (R1),(R0),B
 006162 4110 7EB7/4100_      06ED9 29729                       TSEG  '(CHANGES='
 006174 58F0 B5B4/1B00_      005B4 29747                       BTD   CPDOUB,0,L:CPACHCT
 006184 41F0 B050/58E0_      00050 29767                       TSEG  (R1),(R0)
 00618E 4110 7E3A/4100_      06E5C 29791                       TSEG  ') '
                                   29809
 0061A0 4110 7EC0/4100_      06EE2 29810                       TSEG  '- MODES',,WR
 0061B2 4770 C7DA            007DA 29828                       BNZ   CVABORT
 0061B6 18D8/9808 D004_            29829                       PEND
 DROP   *,R7
1MODE     (MODE4072) (12:48) (15MAR04) SHOW LOGMODE Command                                                                 Page   74
0Current Usings:  (CP,R11) (CV,R12)
0Loc    Object Code    Addr1 Addr2  Stmt Lv Lineno    Source Statement           (Hibal 5, Asmedit 3.3)  HLASM R4.0  2004/03/15 12.48
+___    ______ ____    _____ _____  ____ __ ______    ______ _________
0                                  29850              ¿þþþþþþþþþþþþþþþþþþþþþþþþþþþþþþþþþþþþþþþþþþþþþþþþþþþþþþþþþþþþþþþþþþþþþÜ
                                   29851              Ÿ                                                                     Ÿ
                                   29852              Ÿ  SHOLMODE -- SHOW LOGMODE command.                                  Ÿ
                                   29853              Ÿ                                                                     Ÿ
                                                      ¾þþþþþþþþþþþþþþþþþþþþþþþþþþþþþþþþþþþþþþþþþþþþþþþþþþþþþþþþþþþþþþþþþþþþþ»
00061C4 50E0 D000/9008_      00000 29854              SHOLMODE PROC
 USING  *,R7
 0061DE 58E0 7BD2/0DEE       06DB0 29893                       VCALL COLLOPTS       Allow collect options
 0061E4 9180 C068/4710_00068       29897                       IF    ~CVLOGMOD.CVLGPATH,'TSEG "NO"'
 0061FE 4110 7D0B/4100_      06EE9 29935                       TSEG  'PATH '
                                   29953
 006210 1B00/41F0 B050_            29954                       TCR
 00621C 47F0 C7DE            007DE 29979                       B     CVNEXT
 006220 18D8/9808 D004_            29980                       PEND
 DROP   *,R7
1MODE     (MODE4072) (12:48) (15MAR04) SHOW VMODE Command                                                                   Page   75
0Current Usings:  (CP,R11) (CV,R12)
0Loc    Object Code    Addr1 Addr2  Stmt Lv Lineno    Source Statement           (Hibal 5, Asmedit 3.3)  HLASM R4.0  2004/03/15 12.48
+___    ______ ____    _____ _____  ____ __ ______    ______ _________
0                                  30001              ¿þþþþþþþþþþþþþþþþþþþþþþþþþþþþþþþþþþþþþþþþþþþþþþþþþþþþþþþþþþþþþþþþþþþþþÜ
                                   30002              Ÿ                                                                     Ÿ
                                   30003              Ÿ  SHOVMODE -- SHOW VMODE command.                                    Ÿ
                                   30004              Ÿ                                                                     Ÿ
                                                      ¾þþþþþþþþþþþþþþþþþþþþþþþþþþþþþþþþþþþþþþþþþþþþþþþþþþþþþþþþþþþþþþþþþþþþþ»
000622E 50E0 D000/9008_      00000 30005              SHOVMODE PROC
 USING  *,R7
 006248 58E0 7B68/0DEE       06DB0 30044                       VCALL COLLOPTS       Allow collect options
                                   30048
 00624E 9180 B480/47E0_00480       30049                       IF    CPGFNOSPIEDIT,'TSEG "NO"'
 006268 4110 7CA6/4100_      06EEE 30087                       TSEG  'SPIEDIT'
                                   30105
 00627A 4110 7C16/4100_      06E5E 30106                       SETMSG ' - Orvyl modes'
 006282 47F0 C7D0            007D0 30110                       B     CVNXTMSG
 006286 18D8/9808 D004_            30111                       PEND
 DROP   *,R7
1MODE     (MODE4072) (12:48) (15MAR04) SHOW and DUMP Commands                                                               Page   76
0Current Usings:  (CP,R11) (CV,R12)
0Loc    Object Code    Addr1 Addr2  Stmt Lv Lineno    Source Statement           (Hibal 5, Asmedit 3.3)  HLASM R4.0  2004/03/15 12.48
+___    ______ ____    _____ _____  ____ __ ______    ______ _________
0                                  30132              ¿þþþþþþþþþþþþþþþþþþþþþþþþþþþþþþþþþþþþþþþþþþþþþþþþþþþþþþþþþþþþþþþþþþþþþÜ
                                   30133              Ÿ                                                                     Ÿ
                                   30134              Ÿ                                                                     Ÿ
                                   30135              Ÿ                                                                     Ÿ
                                   30136              Ÿ  show/dump -- entries for the show and dump commands.               Ÿ
                                   30137              Ÿ                                                                     Ÿ
                                   30138              Ÿ                                                                     Ÿ
                                   30139              Ÿ                                                                     Ÿ
                                   30140              Ÿ                                                                     Ÿ
                                                      ¾þþþþþþþþþþþþþþþþþþþþþþþþþþþþþþþþþþþþþþþþþþþþþþþþþþþþþþþþþþþþþþþþþþþþþ»
0006294 50E0 D000/9008_      00000 30141              DUMP     XPROC
 USING  *,R7
 0062AE 955B BD24/4770_00D24       30181                       IF    ((CPCMNM,EQ,'$'),AND,(R0,LT,4)),'VCALL CMDFIN'  ($du)
 0062C4 9280 BC68      00C68       30223                       MVI   CPDMPLST,X'80'      Lineno not yet set
 0062C8 D203 B5A8 7B2A 005A8 06DD8 30224                       MVC   CPACLNO,=F'-1000'   No current lineno
 0062CE 9680 BD55      00D55       30225                       SET   CPFDUMP             Turn on the stow flag
 0062D2 955B BD24/4770_00D24       30231                       IF    (CPCMNM,EQ,'$'),'VCALL JESCMD'  $dump is special
 0062E0 D202 BD24 7C47 00D24 06EF5 30257                       MVC   CPCMNM,=C'SHO'      Make it a show command!
 0062E6 58E0 7B32/0DEE       06DE0 30258                       ACALL SHOW
 0062EC 47F0 C7DE            007DE 30262                       B     CVNEXT
 0062F0 18D8/9808 D004_            30263                       PEND
 DROP   *,R7
                                   30283              *
                                   30284              *
                                   30285              *        SHOW
                                   30286              *
                                   30287              *
 0062FE 50E0 D000/9008_      00000 30288              SHOW     XPROC
 USING  *,R7
                                   30328                       ¿þþþþþþþþþþþþþþþþþþþþþþþþþþþþþþþþþþþþþþþþþþþþþþþþþþþþþþþþþþþÜ
                                   30329                       Ÿ  The following is for dual-scanner compatibility only!!!  Ÿ
                                   30330                       ¾þþþþþþþþþþþþþþþþþþþþþþþþþþþþþþþþþþþþþþþþþþþþþþþþþþþþþþþþþþþ»
 006318 58E0 B08C/D2AF_      0008C 30331                       SCPUSH ,
 006326 5810 B08C/1B00_      0008C 30337                       SCAN ,
 006374 58E0 B08C/581E_      0008C 30368                       SCINFO ,
 006382 58E0 7AD0/0DEE       06DE8 30377                       OSCINIT (R1),(R0)         OLD SCANNER COMPATIBILTY
 006388 58E0 B08C/4BD0_      0008C 30393                       SCPOP ,
                                   30399
                                   30400                       COMMENT                   SCAN EXEC/ACTIVE OPTION
 006396 58E0 7AD4/0DEE       06DEC 30401                       VCALL SCNEX
                                   30405
                                   30406                       COMMENT                   SCAN FOR TOKEN AFTER 'SHOW'
 00639C D604 B3B4 B3B4_003B4 003B4 30407                       IF    ((CPSACCT,Z),AND,~CPFEXEC),BEGIN
 0063AE 5810 B08C/1B00_      0008C 30437  1                      SCAN  SHOWPRTL
 006400 58E0 7ADC/0DEE       06DF4 30469  1                      SCANCHK
 006406                            30474                       END
 006406 70F2/70F2/47F0_06406 063A4 30478                       ELSE  BEGIN
 00640A 5810 B08C/1B00_      0008C 30491  1                      SCAN  SHOWPRT
 00645C 58E0 7ADC/0DEE       06DF4 30523  1                      SCANCHK
 006462                            30528                       END
                                   30532
 006462 47F0 C7DE            007DE 30533                       B     CVNEXT
 006466 18D8/9808 D004_            30534                       PEND
1MODE     (MODE4072) (12:48) (15MAR04) SHOW and DUMP Commands                                                               Page   77
0Current Usings:  (CP,R11) (CV,R12)
0Loc    Object Code    Addr1 Addr2  Stmt Lv Lineno    Source Statement           (Hibal 5, Asmedit 3.3)  HLASM R4.0  2004/03/15 12.48
+___    ______ ____    _____ _____  ____ __ ______    ______ _________
0DROP   *,R7
1MODE     (MODE4072) (12:48) (15MAR04) SHOW and DUMP Commands                                                               Page   78
0Current Usings:  (CP,R11) (CV,R12)
0Loc    Object Code    Addr1 Addr2  Stmt Lv Lineno    Source Statement           (Hibal 5, Asmedit 3.3)  HLASM R4.0  2004/03/15 12.48
+___    ______ ____    _____ _____  ____ __ ______    ______ _________
0006474 50E0 D000/9008_      00000 30555              MISSSHOW PROC
 USING  *,R7
 00648E 9180 BD55/47E0_00D55       30594                       IF    CPFDUMP,BEGIN
 006496 D207 B886 78EA_00886 06D78 30609  1                      ERROR 'Missing DUMP/SHOW option.',,SYNTAX
 0064A8                            30617                       END
 0064A8 701E/47F0 7030 064A8 06494 30621                       ELSE  BEGIN
 0064AC D207 B886 78EA_00886 06D78 30632  1                      ERROR 'Missing SHOW option.',,SYNTAX
 0064BE                            30640                       END
 0064BE 18D8/9808 D004_            30644                       PEND
 DROP   *,R7
1MODE     (MODE4072) (12:48) (15MAR04) SHOW and DUMP Commands                                                               Page   79
0Current Usings:  (CP,R11) (CV,R12)
0Loc    Object Code    Addr1 Addr2  Stmt Lv Lineno    Source Statement           (Hibal 5, Asmedit 3.3)  HLASM R4.0  2004/03/15 12.48
+___    ______ ____    _____ _____  ____ __ ______    ______ _________
0                                  30665              *
                                   30666              *  SHOW - LINE NUMBER/ SYMBOLIC LINE NUMBER
                                   30667              *
                                   30668              *
 0064CC 50E0 D000/9008_      00000 30669              SHOWLNO  PROC
 USING  *,R7
                                   30708
                                   30709                       COMMENT                   PRINT LINE NUMBER
 0064E6 58E0 792A/0DEE       06E10 30710                       VCALL CVEXNO
 0064EC 41F0 B050/58E0_      00050 30714                       TSEG  (R1),(R0),B
                                   30738
                                   30739                       COMMENT                   NOW PRINT WHAT TYPE ...
 0064F6 58E0 B08C/D2AF_      0008C 30740                       SCPUSH
 006504 58E0 B08C/58FE_      0008C 30746                       SCBKUP
 00653A 5810 B08C/1B00_      0008C 30802                       SCAN  SHOWLPRT
 00658C 59F0 78EA/4780_      06DD0 30834                       IF    (R15,NE,4),BEGIN
 006594 4110 7A2B/4100_      06F11 30851  1                      TSEG  '- LINE NUMBER'
 0065A6                            30869                       END
                                   30873
 0065A6 58E0 78CA/0DEE       06DB0 30874                       VCALL COLLOPTS
                                   30878
 0065AC 47F0 C7DE            007DE 30879                       B     CVNEXT
 0065B0 18D8/9808 D004_            30880                       PEND
 DROP   *,R7
                                   30900              *
                                   30901              *
                                   30902              *
 0065C0 4040404040404040_          30903              SHOWLPRT SCKW  ,SHOWLLNO,NULL
 0065E8 D7D9C5E5C9D6E4E2_          30918                       SCKW  PREVIOUS,SHOWLPRE,A
 006610 C3E4D9D9C5D5E340_          30933                       SCKW  CURRENT,SHOWLCUR,A
 006638 5C40404040404040_          30948                       SCKW  *,SHOWLCUR
 006660 D5C5E7E340404040_          30963                       SCKW  NEXT,SHOWLNEX,A
 006688 D3C1E2E340404040_          30978                       SCKW  LAST,SHOWLLAS,A
 0066B0 D340404040404040_          30993                       SCKW  L,SHOWLLAS,A
 0066D8 C6C9D9E2E3404040_          31008                       SCKW  FIRST,SHOWLFIR,A
 006700 C640404040404040_          31023                       SCKW  F,SHOWLFIR,A
 006728 C5D5C44040404040_          31038                       SCKW  END,SHOWLEND,A
 006750 4040404040404040_          31053                       SCKW  ,SHOWLLNO
                                   31068
 006778 50E0 D000/9008_      00000 31069              SHOWLPRE PROC
 USING  *,R7
 006792 4110 76DE/4100_      06E70 31108                       TSEG  '- PREVIOUS'
 0067A4 41F0 0004            00004 31126                       LA    R15,4
 0067A8 18D8/9808 D004_            31127                       PEND
 DROP   *,R7
                                   31147
 0067B6 50E0 D000/9008_      00000 31148              SHOWLCUR PROC
 USING  *,R7
 0067D0 4110 774E/4100_      06F1E 31187                       TSEG  '- CURRENT'
 0067E2 41F0 0004            00004 31205                       LA    R15,4
 0067E6 18D8/9808 D004_            31206                       PEND
 DROP   *,R7
                                   31226
 0067F4 50E0 D000/9008_      00000 31227              SHOWLNEX PROC
1MODE     (MODE4072) (12:48) (15MAR04) SHOW and DUMP Commands                                                               Page   80
0Current Usings:  (*,R7) (CP,R11) (CV,R12)
0Loc    Object Code    Addr1 Addr2  Stmt Lv Lineno    Source Statement           (Hibal 5, Asmedit 3.3)  HLASM R4.0  2004/03/15 12.48
+___    ______ ____    _____ _____  ____ __ ______    ______ _________
0USING  *,R7
 00680E 4110 766C/4100_      06E7A 31266                       TSEG  '- NEXT'
 006820 41F0 0004            00004 31284                       LA    R15,4
 006824 18D8/9808 D004_            31285                       PEND
 DROP   *,R7
                                   31305
 006832 50E0 D000/9008_      00000 31306              SHOWLLAS PROC
 USING  *,R7
 00684C 4110 7634/4100_      06E80 31345                       TSEG  '- LAST'
 00685E 41F0 0004            00004 31363                       LA    R15,4
 006862 18D8/9808 D004_            31364                       PEND
 DROP   *,R7
                                   31384
 006870 50E0 D000/9008_      00000 31385              SHOWLFIR PROC
 USING  *,R7
 00688A 4110 769D/4100_      06F27 31424                       TSEG  '- FIRST'
 00689C 41F0 0004            00004 31442                       LA    R15,4
 0068A0 18D8/9808 D004_            31443                       PEND
 DROP   *,R7
                                   31463
 0068AE 50E0 D000/9008_      00000 31464              SHOWLEND PROC
 USING  *,R7
 0068C8 4110 7666/4100_      06F2E 31503                       TSEG  '- PEND  ,'
 0068DA 41F0 0004            00004 31521                       LA    R15,4
 0068DE 18D8/9808 D004_            31522                       PEND
 DROP   *,R7
                                   31542
 0068EC 50E0 D000/9008_      00000 31543              SHOWLLNO PROC
 USING  *,R7
 006906 4110 760B/4100_      06F11 31582                       TSEG  '- LINE NUMBER'
 006918 41F0 0004            00004 31600                       LA    R15,4
 00691C 18D8/9808 D004_            31601                       PEND
 DROP   *,R7
1MODE     (MODE4072) (12:48) (15MAR04) SHOW and DUMP Commands                                                               Page   81
0Current Usings:  (CP,R11) (CV,R12)
0Loc    Object Code    Addr1 Addr2  Stmt Lv Lineno    Source Statement           (Hibal 5, Asmedit 3.3)  HLASM R4.0  2004/03/15 12.48
+___    ______ ____    _____ _____  ____ __ ______    ______ _________
0                                  31622              *
                                   31623              *
 00692A 50E0 D000/9008_      00000 31624              SHODELTA PROC
 USING  *,R7
 006944 58E0 746C/0DEE       06DB0 31663                       VCALL COLLOPTS
 00694A 5800 B738            00738 31667                       L     R0,CPDELTA
 00694E 58E0 74CC/0DEE       06E10 31668                       VCALL CVEXNO              Convert
 006954 41F0 B050/58E0_      00050 31672                       TSEG  (R1),(R0),B
 00695E 4110 75F3/4100_      06F37 31696                       TSEG  '- DELTA'
 006970 47F0 C7DE            007DE 31714                       B     CVNEXT
 006974 18D8/9808 D004_            31715                       PEND
 DROP   *,R7
                                   31735
 006982 50E0 D000/9008_      00000 31736              INSTALN  PROC
 USING  *,R7
 00699C 58E0 7414/0DEE       06DB0 31775                       VCALL COLLOPTS
 0069A2 4110 C004/4100_      00004 31779                       TSEG  CVINSTAL,,TB
 0069B4 4110 74EA/4100_      06E86 31807                       TSEG  '- INSTALLATION'
 0069C6 47F0 C7DE            007DE 31825                       B     CVNEXT
 0069CA 18D8/9808 D004_            31826                       PEND
 DROP   *,R7
                                   31846
                                   31847                       AIF   (NOT &JOBAUTH).AUTH4A
 0069D8 50E0 D000/9008_      00000 31848              SHOAUTH  PROC
 USING  *,R7
 0069F2 58E0 73BE/0DEE       06DB0 31887                       VCALL COLLOPTS
 0069F8 9140 B477      00477       31891                       TM    CPGFLG4,CPFAUSET    Authority field set?
 0069FC 4710 7020            06A12 31892                       IF    NO,BEGIN            Yes, go list it
 006A00 4110 738E/4100_      06D80 31903  1                      TSEG  'NO AUTHORITY SET' Otherwise tell him its not se
 006A12                            31921                       END
 006A12 7024/47F0 706C 06A12 069FE 31925                       ELSE  BEGIN
 006A16 4110 B8A7/4100_      008A7 31936  1                      TSEG  CPAUTHGP
 006A28 4110 754C/4100_      06F3E 31964  1                      TSEG  '.'
 006A3A 4110 B8A4/4100_      008A4 31982  1                      TSEG  CPAUTHUS
 006A4C 4110 754D/4100_      06F3F 32010  1                      TSEG  '- AUTHORITY'
 006A5E                            32028                       END
 006A5E 47F0 C7DE            007DE 32032                       B     CVNEXT
 006A62 18D8/9808 D004_            32033                       PEND
 DROP   *,R7
                                   32053              .AUTH4A  ANOP
                                   32054
 006A70 50E0 D000/9008_      00000 32055              SHOLEN   PROC
 USING  *,R7
 006A8A 58E0 7326/0DEE       06DB0 32094                       VCALL COLLOPTS
 006A90 4800 B87E            0087E 32098                       LH    R0,CPLENGTH
 006A94 5900 7392/47D0_      06E1C 32099                       IF    (R0,GT,&LINESZ),BEGIN
 006A9C 4110 74C0/4100_      06F4A 32116  1                      TSEG  'NO LENGTH'
 006AAE                            32134                       END
 006AAE 7028/47F0 704A 06AAE 06A9A 32138                       ELSE  BEGIN
 006AB2 4810 B87E/1B00_      0087E 32149  1                      TNUM  LH:CPLENGTH
 006AC2 4110 74C9/4100_      06F53 32170  1                      TSEG  ' - LENGTH'
 006AD4                            32188                       END
 006AD4 47F0 C7DE            007DE 32192                       B     CVNEXT
 006AD8 18D8/9808 D004_            32193                       PEND
1MODE     (MODE4072) (12:48) (15MAR04) SHOW and DUMP Commands                                                               Page   82
0Current Usings:  (CP,R11) (CV,R12)
0Loc    Object Code    Addr1 Addr2  Stmt Lv Lineno    Source Statement           (Hibal 5, Asmedit 3.3)  HLASM R4.0  2004/03/15 12.48
+___    ______ ____    _____ _____  ____ __ ______    ______ _________
0DROP   *,R7
                                   32213
 006AE6 50E0 D000/9008_      00000 32214              VOLSHOW  PROC
 USING  *,R7
 006B00 58E0 72B0/0DEE       06DB0 32253                       VCALL COLLOPTS
 006B06 D605 B880 B880_00880 00880 32257                       IF    (CPVOLUME,Z),BEGIN
 006B10 4110 745C/4100_      06F5C 32273  1                      TSEG  'NO VOLUME'
 006B22                            32291                       END
 006B22 7026/47F0 704A 06B22 06B0E 32295                       ELSE  BEGIN
 006B26 4110 B880/4100_      00880 32306  1                      TSEG  CPVOLUME,,B
 006B38 4110 7290/4100_      06D90 32334  1                      TSEG  '- VOLUME'
 006B4A                            32352                       END
 006B4A 47F0 C7DE            007DE 32356                       B     CVNEXT
 006B4E 18D8/9808 D004_            32357                       PEND
 DROP   *,R7
                                   32377
 006B5C 50E0 D000/9008_      00000 32378              SHOWORV  PROC
 USING  *,R7
 006B76 58E0 723A/0DEE       06DB0 32417                       VCALL COLLOPTS
 006B7C D607 B8BC B8BC_008BC 008BC 32421                       IF    (CPORVYL,Z),BEGIN
 006B86 4110 7222/4100_      06D98 32437  1                      TSEG  'ORVYL access is blocked.'
 006B98                            32455                       END
 006B98 7026/47F0 7050 06B98 06B84 32459                       ELSE  BEGIN
 006B9C 4110 B8BC/4100_      008BC 32470  1                      SETMSG CPORVYL
 006BA4 58E0 72AE/0DEE       06E24 32484  1                      VCALL LRTRIM
 006BAA 41F0 B050/58E0_      00050 32488  1                      TSEG  (R1),(R0),B
 006BB4 4110 731E/4100_      06E94 32512  1                      TSEG  'access is allowed.'
 006BC6                            32530                       END
 006BC6 47F0 C7DE            007DE 32534                       B     CVNEXT
 006BCA 18D8/9808 D004_            32535                       PEND
 DROP   *,R7
                                   32555
 006BD8 50E0 D000/9008_      00000 32556              SHOESCAP PROC
 USING  *,R7
 006BF2 58E0 71BE/0DEE       06DB0 32595                       VCALL COLLOPTS
 006BF8 9500 B8BA/4770_008BA       32599                       IF    (CPESCAPE,Z),BEGIN
 006C00 4110 7236/4100_      06E28 32615  1                      TSEG  'No escape character.'
 006C12                            32633                       END
 006C12 7024/47F0 7048 06C12 06BFE 32637                       ELSE  BEGIN
 006C16 4110 B8BA/4100_      008BA 32648  1                      TSEG  CPESCAPE,,B
 006C28 4110 7373/4100_      06F65 32676  1                      TSEG  '- escape character.'
 006C3A                            32694                       END
 006C3A 47F0 C7DE            007DE 32698                       B     CVNEXT
 006C3E 18D8/9808 D004_            32699                       PEND
 DROP   *,R7
                                   32719
 006C4C 50E0 D000/9008_      00000 32720              SHOSKIP  PROC
 USING  *,R7
 006C66 58E0 714A/0DEE       06DB0 32759                       VCALL COLLOPTS
 006C6C 9500 B8BB/4770_008BB       32763                       IF    (CPSKIP,Z),BEGIN
 006C74 4110 7240/4100_      06EA6 32779  1                      TSEG  'No skip character.'
 006C86                            32797                       END
 006C86 7024/47F0 7048 06C86 06C72 32801                       ELSE  BEGIN
 006C8A 4110 B8BB/4100_      008BB 32812  1                      TSEG  CPSKIP
1MODE     (MODE4072) (12:48) (15MAR04) SHOW and DUMP Commands                                                               Page   83
0Current Usings:  (*,R7) (CP,R11) (CV,R12)
0Loc    Object Code    Addr1 Addr2  Stmt Lv Lineno    Source Statement           (Hibal 5, Asmedit 3.3)  HLASM R4.0  2004/03/15 12.48
+___    ______ ____    _____ _____  ____ __ ______    ______ _________
0006C9C 4110 7252/4100_      06EB8 32840  1                      TSEG  ' - skip character.'
 006CAE                            32858                       END
 006CAE 47F0 C7DE            007DE 32862                       B     CVNEXT
 006CB2 18D8/9808 D004_            32863                       PEND
 DROP   *,R7
                                   32883
 006CC0 50E0 D000/9008_      00000 32884              SHORSCN  PROC
 USING  *,R7
 006CDA 4810 B8B8/1B00_      008B8 32923                       TNUM  LH:CPRSCNVL
 006CEA 4110 729E/4100_      06F78 32944                       TSEG  ' - rescan count'
 006CFC 47F0 C7DE            007DE 32962                       B     CVNEXT
 006D00 18D8/9808 D004_            32963                       PEND
 DROP   *,R7
                                   32983
 006D0E 50E0 D000/9008_      00000 32984              SHOWCPR  PROC
 USING  *,R7
 006D28 58E0 7088/0DEE       06DB0 33023                       VCALL COLLOPTS
 006D2E 4110 725F/4100_      06F87 33027                       TSEG  '"'
 006D40 4110 B800/4800_      00800 33045                       TSEG  CPCPRMT,LH:CPCPLEN
 006D52 4110 7260/4100_      06F88 33072                       TSEG  '" is the command prompt string.'
 006D64 47F0 C7DE            007DE 33090                       B     CVNEXT
 006D68 18D8/9808 D004_            33091                       PEND
 DROP   *,R7
                                   33111
                                   33112                       QLTORG
1MODE     (MODE4072) (12:48) (15MAR04) SHOW and DUMP Commands                                                               Page   84
0Current Usings:  (CP,R11) (CV,R12)
0Loc    Object Code    Addr1 Addr2  Stmt Lv Lineno    Source Statement           (Hibal 5, Asmedit 3.3)  HLASM R4.0  2004/03/15 12.48
+___    ______ ____    _____ _____  ____ __ ______    ______ _________
0                                  33196              ***
                                   33197              ***  SHOW Commands.
                                   33198              ***
 006FA8 4040404040404040_          33199              SHOWPRT  SCKW  ,MISSSHOW,NULL
 006FD0 D6D7E3C9D6D5E240_          33214                       SCKW  OPTIONS,SHOWOPTS,(A,S)
 006FF8 C7C5E3E2E3C1C3D2_          33229                       SCKW  GETSTACK,SHOWGETS,A
 007020 C1C3E3C9E5C54040_          33244                       SCKW  ACTIVE,V(SHOWACT),(A,S)
 007048 C1C3E3C9E5C5E240_          33259                       SCKW  ACTIVES,V(SHOWACTS),(A,S)
 007070 C1C3E3E240404040_          33274                       SCKW  ACTS,V(SHOWACTS),S
 007098 C1C9D5C6D6404040_          33289                       SCKW  AINFO,V(SHOWAINF),(A,S)
 0070C0 D3C5D5C7E3C84040_          33304                       SCKW  LENGTH,SHOLEN,A
 0070E8 C4E2D5C1D4C5E240_          33319                       SCKW  DSNAMES,V(SHODSN),(A,S)
 007110 C1E4E3D640404040_          33334                       SCKW  AUTO,V(SHOWAUTO),A
 007138 D4E2E3C1E3E4E240_          33349                       SCKW  MSTATUS,V(SHOWMST),A
 007160 C4C9D9C5C3E3D6D9_          33364                       SCKW  DIRECTORY,V(SHOWDIR),(A,S)
 007188 E5D6D3E4D4C54040_          33379                       SCKW  VOLUME,VOLSHOW,A
 0071B0 D5C1D4C540404040_          33394                       SCKW  NAME,V(SHOWNAME),(A,S)
 0071D8 C1D5C1D4C5404040_          33409                       SCKW  ANAME,V(SHOWNAME),(A,S)
 007200 D7D9C5C6C9E74040_          33424                       SCKW  PREFIX,SHOWPREF,(A,S)
 007228 C6C4C5C6C1E4D3E3_          33439                       SCKW  FDEFAULT,V(SHOWFDEF),A
 007250 C6D7C1E3C8404040_          33454                       SCKW  FPATH,V(SHOWFPAT),A
 007278 C7D9D6E4D7404040_          33469                       SCKW  GROUP,SHOWACCT,(A,S)
 0072A0 C7D9D74040404040_          33484                       SCKW  GRP,SHOWACCT,(A,S)
 0072C8 E4E2C5D940404040_          33499                       SCKW  USER,SHOWACCT,(A,S)
 0072F0 E4E2D94040404040_          33514                       SCKW  USR,SHOWACCT,(A,S)
 007318 6DE4E2C5D9E24040_          33529                       SCKW  _USERS,V(SHOWUSRS)
 007340 C8D6E2E340404040_          33544                       SCKW  HOST,V(SHOWHOST),(A,S)
 007368 C8D6E2E3E2404040_          33559                       SCKW  HOSTS,V(SHOWHSTS),(A,S)
 007390 D8E4C5D9E8404040_          33574                       SCKW  QUERY,V(SHOWQRY),(A,S)
 0073B8 C6E3D7D3D6C74040_          33589                       SCKW  FTPLOG,V(SHOWFTP),(A,S)
 0073E0 D3C9D5E240404040_          33604                       SCKW  LINS,V(SHOWLINE),(A,S)
 007408 D3C9D5C5E2404040_          33619                       SCKW  LINES,V(SHOWLINE),(A,S)
 007430 E5D3C9D5C5E24040_          33634                       SCKW  VLINES,V(SHOWLINE),(A,S)
 007458 6DD3C9D5C5E24040_          33649                       SCKW  _LINES,V(SHOWILIN),S
 007480 E5C9D9E3E4C1D340_          33664                       SCKW  VIRTUAL,V(SHOWNET),(A,S)
 0074A8 D3C9C2D9C1D9E840_          33679                       SCKW  LIBRARY,SHOWLIB,(A,S)
 0074D0 E2C9E9C540404040_          33694                       SCKW  SIZE,V(SHOSIZ),A
 0074F8 C3C1E3C1D3D6C740_          33709                       SCKW  CATALOG,V(SHOWCAT),(A,S)
 007520 C3C1E3D3C7404040_          33724                       SCKW  CATLG,V(SHOWCAT),(A,S)
 007548 E2D7C1C3C5404040_          33739                       SCKW  SPACE,V(SHOWSPCE),(A,S)
 007570 E3D9C1C3D2E24040_          33754                       SCKW  TRACKS,V(SHOWTRKS),(A,S)
 007598 E5D6D3E4D4C5E240_          33769                       SCKW  VOLUMES,SHOWVOLS
 0075C0 E5D6D3E240404040_          33784                       SCKW  VOLS,SHOWVOLS
 0075E8 D5C5E6E240404040_          33799                       SCKW  NEWS,V(SHOWNEWS),A
 007610 D4C1C9D340404040_          33814                       SCKW  MAIL,V(SHOWMAIL),A
 007638 C5E7C5C3E4E3C540_          33829                       SCKW  EXECUTE,V(SHOWEXEC),A
 007660 E7D3D6C1C4404040_          33844                       SCKW  XLOAD,V(SHXLOAD),A
 007688 D7E4C24040404040_          33859                       SCKW  PUB,V(CMDFIN)
 0076B0 D7E4C2D3D6C1C440_          33874                       SCKW  PUBLOAD,V(SHPBLOAD),A
 0076D8 D4C1E2E3C5D94040_          33889                       SCKW  MASTER,V(SHOWMAST),A
 007700 E2D4C64040404040_          33904                       SCKW  SMF,V(SHOWSMF)
 007728 D3E3C9D4C5404040_          33919                       SCKW  LTIME,V(SHOWLTIM),(A,S)
 007750 D7E3C9D4C5404040_          33934                       SCKW  PTIME,V(SHOWKTIM),(A,S)
 007778 D2E3C9D4C5404040_          33949                       SCKW  KTIME,V(SHOWKTIM),(A,S)
1MODE     (MODE4072) (12:48) (15MAR04) SHOW and DUMP Commands                                                               Page   85
0Current Usings:  (CP,R11) (CV,R12)
0Loc    Object Code    Addr1 Addr2  Stmt Lv Lineno    Source Statement           (Hibal 5, Asmedit 3.3)  HLASM R4.0  2004/03/15 12.48
+___    ______ ____    _____ _____  ____ __ ______    ______ _________
00077A0 D6D7C5D9C1E3D6D9_          33964                       SCKW  OPERATOR,V(SHOWLINE),(A,S)
 0077C8 D7D9C9E540404040_          33979                       SCKW  PRIV,V(SHOWPRIV),(A,S)
 0077F0 C1C3C3D6E4D5E340_          33994                       SCKW  ACCOUNT,SHOWACCT,A
 007818 E2E4C2C7D9404040_          34009                       SCKW  SUBGR,V(CMDFIN),A
 007840 E2E4C2C7D9D6E4D7_          34024                       SCKW  SUBGROUP,V(SHOWPROJ),A
 007868 E2E4C2C7D9D74040_          34039                       SCKW  SUBGRP,V(SHOWPROJ)
 007890 E2C1D4E2D6D54040_          34054                       SCKW  SAMSON,V(SHOWSAM),A
 0078B8 E5C1D94040404040_          34069                       SCKW  VAR,V(SHOWVAL),A
 0078E0 E5C1D3E4C5404040_          34084                       SCKW  VALUE,V(SHOWVAL),A
 007908 E5C1D3E240404040_          34099                       SCKW  VALS,V(SHOWVARS)
 007930 E5C1D9E240404040_          34114                       SCKW  VARS,V(SHOWVARS)
 007958 E5C1D9C9C1C2D3C5_          34129                       SCKW  VARIABLES,V(SHOWVARS)
 007980 C1D9D9C1E8404040_          34144                       SCKW  ARRAY,V(SHOWARRY),A
 0079A8 C4C5C6C9D5C5C440_          34159                       SCKW  DEFINED,V(SHOWDEF),A
 0079D0 D3C5C1D9D5C5C440_          34174                       SCKW  LEARNED,V(SHOWLRN),A
 0079F8 C5E2C3C1D7C54040_          34189                       SCKW  ESCAPE,SHOESCAP,A
 007A20 E2D2C9D740404040_          34204                       SCKW  SKIP,SHOSKIP,A
 007A48 D9C5E2C3C1D54040_          34219                       SCKW  RESCAN,SHORSCN,A
 007A70 C4C5D3E3C1404040_          34234                       SCKW  DELTA,SHODELTA,A
 007A98 D4D6C4C5E2404040_          34249                       SCKW  MODES,SHOMODE,A
 007AC0 E5D4D6C4C5404040_          34264                       SCKW  VMODE,SHOVMODE,A
 007AE8 C8C9E2E3D6D9E840_          34279                       SCKW  HISTORY,V(SHOWHIST),A
 007B10 D1C5E24040404040_          34294                       SCKW  JES,V(SHOWJES),A
 007B38 D1D6C24040404040_          34309                       SCKW  JOB,V(SHOWJOB)
 007B60 D6E4E3D7E4E34040_          34324                       SCKW  OUTPUT,V(SHOWOUT),A
 007B88 E7C4404040404040_          34339                       SCKW  XD,V(DSHOW),A
 007BB0 E7C4C5C2E4C74040_          34354                       SCKW  XDEBUG,V(DSHOW)
 007BD8 E7D4D6D5C9E3D6D9_          34369                       SCKW  XMONITOR,V(SHOWMON),(A,S)
 007C00 E5E2C5E2E2C9D6D5_          34384                       SCKW  VSESSIONS,V(SHOWVSES),(A,S)
 007C28 E5D6D7E3C9D6D5E2_          34399                       SCKW  VOPTIONS,V(SHOWVOPT),(A,S)
 007C50 E6C3C8C1D9C7C540_          34414                       SCKW  WCHARGE,V(SHOWWCH),(A,S)
 007C78 E6C3D6E4D5E34040_          34429                       SCKW  WCOUNT,V(SHOWWCTR),(A,S)
 007CA0 E6C3C9D5C9E34040_          34444                       SCKW  WCINIT,V(SHOWWCIN),S
 007CC8 E6C4C5C2E4C74040_          34459                       SCKW  WDEBUG,V(SHOWDBUG),A
                                   34474                       AIF   (NOT &JOBAUTH).AUTH5A
 007CF0 C1E4E3C8D6D9C9E3_          34475                       SCKW  AUTHORITY,SHOAUTH,A
                                   34490              .AUTH5A  ANOP
 007D18 E3C1D7C540404040_          34491                       SCKW  TAPE,V(TAPE),A
 007D40 D6D9E5E8D3404040_          34506                       SCKW  ORVYL,SHOWORV,A
 007D68 D7D9D64040404040_          34521                       SCKW  PRO,V(CMDFIN)
 007D90 D7D9D6D1C5C3E340_          34536                       SCKW  PROJECT,V(SHOWPROJ),A
                                   34551              ****     SCKW  PROTECT,V(PROTECT),A       (--REMOVE ME--)
 007DB8 E2D7D9D6E3C5C3E3_          34552                       SCKW  SPROTECT,V(PROTECT),A      (Old: Stanford security)
 007DE0 E6D7D9D6D1C5C3E3_          34567                       SCKW  WPROJECT,V(SHOWWPRJ),A
 007E08 C9D5E2E3C1D3D3C1_          34582                       SCKW  INSTALLATION,INSTALN,A
 007E30 C3D7D9D6D4D7E340_          34597                       SCKW  CPROMPT,SHOWCPR,A
 007E58 E6D6D9C440404040_          34612                       SCKW  WORD,SHOWWORD,A
 007E80 E6E5D6D3E4D4C5E2_          34627                       SCKW  WVOLUMES,SHOWWVOL,(A,S)
 007EA8 E6E5C5D9E2C9D6D5_          34642                       SCKW  WVERSION,V(SHOWVERS),(A,S)
 007ED0 D4E5C5D9E2C9D6D5_          34657                       SCKW  MVERSION,V(SHOWMVER),(A,S)
 007EF8 E6D3C9D5C5404040_          34672                       SCKW  WLINE,V(SHOWWLIN),(A,S)
 007F20 E6D3C9D5C5E24040_          34687                       SCKW  WLINES,V(SHOWWLNS),(A,S)
 007F48 E6E2E8D4C2D6D3E2_          34702                       SCKW  WSYMBOLS,V(SHOWSYM),(A,S)
 007F70 E6D1C3C2E2404040_          34717                       SCKW  WJCBS,V(SHOWJCB),(A,S)
1MODE     (MODE4072) (12:48) (15MAR04) SHOW and DUMP Commands                                                               Page   86
0Current Usings:  (CP,R11) (CV,R12)
0Loc    Object Code    Addr1 Addr2  Stmt Lv Lineno    Source Statement           (Hibal 5, Asmedit 3.3)  HLASM R4.0  2004/03/15 12.48
+___    ______ ____    _____ _____  ____ __ ______    ______ _________
0007F98 E6D4D6D5C9E3D6D9_          34732                       SCKW  WMONITOR,V(SHOWWMON),(A,S)
 007FC0 D3D6C7D4D6C4C540_          34747                       SCKW  LOGMODE,SHOLMODE,S
 007FE8 E6D3D6C740404040_          34762                       SCKW  WLOG,V(SHOWWLOG),(A,S)
 008010 E6D4C1C3C8C9D5C5_          34777                       SCKW  WMACHINE,SHOWWMAC,(A,S)
 008038 E6C6C1C3E3D6D940_          34792                       SCKW  WFACTOR,SHOWWFAC,(A,S)
 008060 E6C6C4C5C6404040_          34807                       SCKW  WFDEF,SHOWWFD,S
 008088 E6C6D7C1E3C84040_          34822                       SCKW  WFPATH,SHOWWFPA,S
 0080B0 C3C8D9C9E2E3C140_          34837                       SCKW  CHRISTA,V(SHOWCHR),S
 0080D8 E6C2E4C6C6C5D940_          34852                       SCKW  WBUFFER,SHOWWBUF,(A,S)
 008100 E6D7C1C7C5E24040_          34867                       SCKW  WPAGES,SHOWWPGS,(A,S)
 008128 E6E8D3D740404040_          34882                       SCKW  WYLP,SHOWWYLP,S
 008150 E6E8D3D7C1C7C5E2_          34897                       SCKW  WYLPAGES,SHOWWYLP,S
 008178 E6E2D3C9C3C54040_          34912                       SCKW  WSLICE,SHOWWSL,(A,S)
 0081A0 E6D3D9C140404040_          34927                       SCKW  WLRA,SHOWWLRA,(A,S)
 0081C8 C9D6404040404040_          34942                       SCKW  IO,V(JESCMD),A
 0081F0 E2E3C1E3E4E24040_          34957                       SCKW  STATUS,V(JESCMD),A
 008218 C4C9E2D7D3C1E840_          34972                       SCKW  DISPLAY,V(JESCMD),A
 008240 C2D3D6C3D2404040_          34987                       SCKW  BLOCK,V(JESCMD)
 008268 D1E5C5D9E2C9D6D5_          35002                       SCKW  JVERSION,V(JESCMD),A
 008290 D8E4C5E4C5404040_          35017                       SCKW  QUEUE,V(JESCMD),A1
                                   35032                       ¿þþþþþþþþþþþþþþþþþþþþþþþþþþþþþþþþþþþþþþþþþþþþþþþþþþþþþþþþþþþþþþþÜ
                                   35033                       Ÿ  SHOW commands after here are allowed even if the user isn't  Ÿ
                                   35034                       Ÿ  logged on.                                                   Ÿ
                                   35035                       ¾þþþþþþþþþþþþþþþþþþþþþþþþþþþþþþþþþþþþþþþþþþþþþþþþþþþþþþþþþþþþþþþ»
 0082B8 4040404040404040_          35036              SHOWPRTL SCKW  ,MISSSHOW,NULL
 0082E0 E3C5D9D4C9D5C1D3_          35051                       SCKW  TERMINAL,V(SHOWTERM),(A,S)
 008308 D3D7D9C9D5E3C5D9_          35066                       SCKW  LPRINTER,V(SHOWLPR),(A,S)
 008330 E5C9C5E640404040_          35081                       SCKW  VIEW,V(SHOWVIEW),(A,S)
 008358 C9C4D3C5E2404040_          35096                       SCKW  IDLES,V(SHOWIDLE),(A,S)
 008380 E3C9D4C540404040_          35111                       SCKW  TIME,V(SHOWTIME),(A,S)
 0083A8 C3D6E4D5E3404040_          35126                       SCKW  COUNT,V(SHOWCNT),(A,S)
 0083D0 C9D5C6D640404040_          35141                       SCKW  INFO,SHOWINFO,(A,S)
 0083F8 D4C9D5C6D6404040_          35156                       SCKW  MINFO,V(SHOWMINF),(A,S)
 008420 E6C9D5C6D6404040_          35171                       SCKW  WINFO,SHOWWINF,(A,S)
 008448 D2C9D5C6D6404040_          35186                       SCKW  KINFO,V(SHOWKINF),(A,S)
 008470 E6D4C1C9D3404040_          35201                       SCKW  WMAIL,SHOWWMAI,(A,S)
 008498 E6C3C1D7E3E4D9C5_          35216                       SCKW  WCAPTURE,SHOWWCAP,(A,S)
 0084C0 E3C1C2E240404040_          35231                       SCKW  TABS,V(SHOWTABS),A
 0084E8 C3D6D3E4D4D5E240_          35246                       SCKW  COLUMNS,SHOWCOLS,A
 008510 C3D6D3E240404040_          35261                       SCKW  COLS,SHOWCOLS
 008538 C4C1E3C540404040_          35276                       SCKW  DATE,SHOWDATE,(A,S)
 008560 E7C4C1E3C5404040_          35291                       SCKW  XDATE,SHOWDATE,(A,S)
 008588 E6C9C4E3C8404040_          35306                       SCKW  WIDTH,V(SHOWMIL),(A,S)
 0085B0 C8C5C9C7C8E34040_          35321                       SCKW  HEIGHT,V(SHOWMIL),(A,S)
 0085D8 D4C4C5E5C9C3C540_          35336                       SCKW  MDEVICE,V(SHOWMDEV),(A,S)
 008600 E6D7C1E3C8E24040_          35351                       SCKW  WPATHS,V(SHOWWPAT),(A,S)
 008628 E6D5C5E3E6D6D9D2_          35366                       SCKW  WNETWORK,V(SHOWWNET),(A,S)
 008650 E2E8E2E3C5D4E240_          35381                       SCKW  SYSTEMS,V(SHOWSYS),(A,S)
 008678 C2C1C3D240404040_          35396                       SCKW  BACK,V(SHOWMIL),(A,S)
 0086A0 C2D9C5C1D2404040_          35411                       SCKW  BREAK,V(SHOWMIL),(A,S)
 0086C8 C3C1E2C540404040_          35426                       SCKW  CASE,V(SHOWCASE),A
 0086F0 E4D7D7C5D9404040_          35441                       SCKW  UPPER,V(SHOWCASE),A
 008718 E4D7D3D6E6404040_          35456                       SCKW  UPLOW,V(SHOWCASE),A
 008740 C3D6D4D440404040_          35471                       SCKW  COMM,V(SHOWMIL),(A,S)
1MODE     (MODE4072) (12:48) (15MAR04) SHOW and DUMP Commands                                                               Page   87
0Current Usings:  (CP,R11) (CV,R12)
0Loc    Object Code    Addr1 Addr2  Stmt Lv Lineno    Source Statement           (Hibal 5, Asmedit 3.3)  HLASM R4.0  2004/03/15 12.48
+___    ______ ____    _____ _____  ____ __ ______    ______ _________
0008768 E2D3D6E6D3C9E2E3_          35486                       SCKW  SLOWLIST,V(SHOWMIL),(A,S)
 008790 C6C1E2E3D3C9E2E3_          35501                       SCKW  FASTLIST,V(SHOWMIL),(A,S)
 0087B8 D5D6E3C9D4C54040_          35516                       SCKW  NOTIME,V(SHOWNOTM),(A,S)
 0087E0 E7D6D54040404040_          35531                       SCKW  XON,V(SHOWMIL),S
 008808 D5D6E7D6D5404040_          35546                       SCKW  NOXON,V(SHOWMIL),(A,S)
 008830 D9C9404040404040_          35561                       SCKW  RI,V(SHOWMIL),S
 008858 E3C9404040404040_          35576                       SCKW  TI,V(SHOWMIL),S
 008880 C3C8C1D9C7C5E240_          35591                       SCKW  CHARGES,V(SHOWCHAR),(A,S)
 0088A8 C3D6E2E340404040_          35606                       SCKW  COST,V(SHOWCOST),(A,S)
 0088D0 E2C3D6E2E3404040_          35621                       SCKW  SCOST,V(SHOWSCOS),(A,S)
 0088F8 E2C3D6E2E3E24040_          35636                       SCKW  SCOSTS,V(SHOWSCS),(A,S)
 008920 C9D7D3E3C9D4C540_          35651                       SCKW  IPLTIME,SHOWIPL,(A,S)
 008948 D4E2C74040404040_          35666                       SCKW  MSG,SHOWMSG,S
 008970 D4C5E2E2C1C7C540_          35681                       SCKW  MESSAGE,SHOWMSG,(A,S)
 008998 C1D4C54040404040_          35696                       SCKW  AME,V(CMDFIN)
 0089C0 C1D4E2C740404040_          35711                       SCKW  AMSG,SHOWMSG,S
 0089E8 C1D4C5E2E2C1C7C5_          35726                       SCKW  AMESSAGE,SHOWMSG,(A,S)
 008A10 E4D4C54040404040_          35741                       SCKW  UME,V(CMDFIN)
 008A38 E4D4E2C740404040_          35756                       SCKW  UMSG,SHOWMSG,S
 008A60 E4D4C5E2E2C1C7C5_          35771                       SCKW  UMESSAGE,SHOWMSG,(A,S)
 008A88 E5D4C54040404040_          35786                       SCKW  VME,V(CMDFIN)
 008AB0 E5D4E2C740404040_          35801                       SCKW  VMSG,SHOWMSG,S
 008AD8 E5D4C5E2E2C1C7C5_          35816                       SCKW  VMESSAGE,SHOWMSG,(A,S)
 008B00 6DD5C5E3E6D6D9D2_          35831                       SCKW  _NETWORK,V(SHOWNET),(A,S)
 008B28 6DD7D6D9E3E24040_          35846                       SCKW  _PORTS,V(SHOWPORT),(A,S)
 008B50 4040404040404040_          35861                       SCKW  ,SHOWLNO,SYMLN
 008B78 4040404040404040_          35876                       SCKW  ,V(CMDFIN)
1MODE     (MODE4072) (12:48) (15MAR04) SHOW Commands                                                                        Page   88
0Current Usings:  (CP,R11) (CV,R12)
0Loc    Object Code    Addr1 Addr2  Stmt Lv Lineno    Source Statement           (Hibal 5, Asmedit 3.3)  HLASM R4.0  2004/03/15 12.48
+___    ______ ____    _____ _____  ____ __ ______    ______ _________
0                                  35892              ¿þþþþþþþþþþþþþþþþþþþþþþþþþþþþþþþþþþþþþþþþþþþþþþþþþþþþþþþþþþþþþþþþþþþþþÜ
                                   35893              Ÿ                                                                     Ÿ
                                   35894              Ÿ  SHOWACCT -- SHOW ACCOUNT command.                                  Ÿ
                                   35895              Ÿ      (Also the entry for SHOW USER and SHOW GROUP.)                 Ÿ
                                   35896              Ÿ                                                                     Ÿ
                                                      ¾þþþþþþþþþþþþþþþþþþþþþþþþþþþþþþþþþþþþþþþþþþþþþþþþþþþþþþþþþþþþþþþþþþþþþ»
0008BA0 50E0 D000/9008_      00000 35897              SHOWACCT PROC
 USING  *,R7
                                   35936
 008BBA 58E0 719E/0DEE       08D58 35937                       VCALL EXIT13              LOCAL exit - Show local account
 008BC0 47F0 C7DE            007DE 35941                       B     CVNEXT
                                   35942
 008BC4 18D8/9808 D004_            35943                       PEND
 DROP   *,R7
1MODE     (MODE4072) (12:48) (15MAR04) SHOW Commands                                                                        Page   89
0Current Usings:  (CP,R11) (CV,R12)
0Loc    Object Code    Addr1 Addr2  Stmt Lv Lineno    Source Statement           (Hibal 5, Asmedit 3.3)  HLASM R4.0  2004/03/15 12.48
+___    ______ ____    _____ _____  ____ __ ______    ______ _________
0                                  35964              ¿þþþþþþþþþþþþþþþþþþþþþþþþþþþþþþþþþþþþþþþþþþþþþþþþþþþþþþþþþþþþþþþþþþþþþÜ
                                   35965              Ÿ                                                                     Ÿ
                                   35966              Ÿ  SHOWLIB -- SHOW LIBRARY command.                                   Ÿ
                                   35967              Ÿ                                                                     Ÿ
                                                      ¾þþþþþþþþþþþþþþþþþþþþþþþþþþþþþþþþþþþþþþþþþþþþþþþþþþþþþþþþþþþþþþþþþþþþþ»
0008BD2 50E0 D000/9008_      00000 35968              SHOWLIB  PROC
 USING  *,R7
 008BEC 58E0 7170/0DEE       08D5C 36007                       VCALL COLLOPTS
                                   36011
 008BF2 4110 B8AB/4100_      008AB 36012                       TSEG  CPLIB,,B
 008C04 4110 718C/4100_      08D78 36040                       SETMSG '- Library.'
 008C0C 47F0 C7D0            007D0 36044                       B     CVNXTMSG
                                   36045
 008C10 18D8/9808 D004_            36046                       PEND
 DROP   *,R7
-                                  36067              ¿þþþþþþþþþþþþþþþþþþþþþþþþþþþþþþþþþþþþþþþþþþþþþþþþþþþþþþþþþþþþþþþþþþþþþÜ
                                   36068              Ÿ                                                                     Ÿ
                                   36069              Ÿ  SHOWPREF -- SHOW PREFIX command.                                   Ÿ
                                   36070              Ÿ              (Also, SHOW MEMBER command.)                           Ÿ
                                   36071              Ÿ                                                                     Ÿ
                                                      ¾þþþþþþþþþþþþþþþþþþþþþþþþþþþþþþþþþþþþþþþþþþþþþþþþþþþþþþþþþþþþþþþþþþþþþ»
0008C1E 50E0 D000/9008_      00000 36072              SHOWPREF PROC
 USING  *,R7
 008C38 58E0 7124/0DEE       08D5C 36111                       VCALL COLLOPTS
                                   36115
 008C3E D503 711C B628_08D54 00628 36116                       IF    (CPAFNAMEL,EQ,0),'TSEG "NO PREFIX"'
 008C5A 7026/47F0 70FC 08C5A 08C46 36157                       ELSE  BEGIN
 008C5E 4110 715F/4100_      08D97 36168  1                      TSEG  'PREFIX='
                                   36186  1                      COMMENT                   FILE NAME
 008C70 4110 B62C/5800_      0062C 36187  1                      SETMSG CPAFNAME,L:CPAFNAMEL
 008C78 58E0 7130/0DEE       08D68 36201  1                      VCALL RETFNAME
 008C7E 41F0 B050/58E0_      00050 36205  1                      TSEG  (R1),(R0)
                                   36229  1                      COMMENT                   #MEMBER NAME, IF ANY
 008C88 4110 B62C/5800_      0062C 36230  1                      SETMSG CPAFNAME,L:CPAFNAMEL
 008C90 58E0 7134/0DEE       08D6C 36244  1                      VCALL RETFMEM
 008C96 1200/47D0 7090             36248  1                      IF    (R0,POS),BEGIN
 008C9C 9001 D000/41D0_      00000 36262  2                        XPUSH R0,R1
 008CA4 4110 7166/4100_      08D9E 36265  2                        TSEG  '#'
 008CB6 4BD0 714A/9801_      08D82 36283  2                        XPOP  R0,R1
 008CBE 41F0 B050/58E0_      00050 36286  2                        TSEG  (R1),(R0)
 008CC8                            36310  1                      END
                                   36314  1                      COMMENT                   ON HOST, IF ANY
 008CC8 D603 B6AC B6AC_006AC 006AC 36315  1                      IF    (CPAHOSTL,NZ),BEGIN
 008CD2 4110 7138/4100_      08D70 36331  2                        TSEG  ' on '
 008CE4 4110 B6B0/5800_      006B0 36349  2                        TSEG  CPAHOST,L:CPAHOSTL
 008CF6                            36377  1                      END
                                   36381  1                      COMMENT                   IF NO HOST, TELL FILE TYPE
 008CF6 D603 B6AC B6AC_006AC 006AC 36382  1                      IF    (CPAHOSTL,Z),BEGIN
 008D00 9503 B626/4770_00626       36398  2                        IF    (CPAFTYPE,EQ,L'FFFSAM),BEGIN
 008D08 4110 7167/4100_      08D9F 36415  3                          TSEG  ' (samson)'
1MODE     (MODE4072) (12:48) (15MAR04) SHOW Commands                                                                        Page   90
0Current Usings:  (*,R7) (CP,R11) (CV,R12)
0Loc    Object Code    Addr1 Addr2  Stmt Lv Lineno    Source Statement           (Hibal 5, Asmedit 3.3)  HLASM R4.0  2004/03/15 12.48
+___    ______ ____    _____ _____  ____ __ ______    ______ _________
0008D1A                            36433  2                        END
 008D1A 9504 B626/4770_00626       36437  2                        IF    (CPAFTYPE,EQ,L'FFFNET),BEGIN
 008D22 4110 714C/4100_      08D84 36454  3                          TSEG  ' (network)'
 008D34                            36472  2                        END
 008D34                            36476  1                      END
 008D34                            36480                       END
 008D34 1B00/41F0 B050_            36484                       TWRITE
 008D40 47F0 C7DE            007DE 36509                       B     CVNEXT
                                   36510
 008D44 18D8/9808 D004_            36511                       PEND
 DROP   *,R7
                                   36531
                                   36532                       QLTORG
1MODE     (MODE4072) (12:48) (15MAR04) SHOW COLUMNS Command                                                                 Page   91
0Current Usings:  (CP,R11) (CV,R12)
0Loc    Object Code    Addr1 Addr2  Stmt Lv Lineno    Source Statement           (Hibal 5, Asmedit 3.3)  HLASM R4.0  2004/03/15 12.48
+___    ______ ____    _____ _____  ____ __ ______    ______ _________
0                                  36561              ¿þþþþþþþþþþþþþþþþþþþþþþþþþþþþþþþþþþþþþþþþþþþþþþþþþþþþþþþþþþþþþþþþþþþþþÜ
                                   36562              Ÿ                                                                     Ÿ
                                   36563              Ÿ  SHOWCOLS -- SHOW COLUMNS command.                                  Ÿ
                                   36564              Ÿ                                                                     Ÿ
                                                      ¾þþþþþþþþþþþþþþþþþþþþþþþþþþþþþþþþþþþþþþþþþþþþþþþþþþþþþþþþþþþþþþþþþþþþþ»
0008DA8 50E0 D000/9008_      00000 36565              SHOWCOLS PROC
 USING  *,R7
 008DC2 1B33                       36604                       CLEAR R3                  No. of columns to display (0=def)
 008DC4 1B44                       36608                       CLEAR R4                  Default offset is zero
 008DC6 5810 B08C/1B00_      0008C 36612                       SCAN  SHCOLPRT
 008E18 58E0 7346/0DEE       09108 36644                       SCANCHK
 008E1E 9180 BD55/47E0_00D55       36649                       IF    CPFDUMP,BEGIN       Different defaults if dump...
 008E26 9110 BD54/4710_00D54       36664  1                      IF    ~CPLFLG5.CPFFOPT,'SET CPLFLG5.CPFUNUM'  unnumbered
 008E32                            36692                       END
 008E32 1803                       36696                       LR    R0,R3
 008E34 18F4                       36697                       LR    R15,R4
 008E36 58E0 734A/0DEE       0910C 36698                       ACALL DOSHCOLS
 008E3C 47F0 C7DE            007DE 36702                       B     CVNEXT
 008E40 18D8/9808 D004_            36703                       PEND
 DROP   *,R7
                                   36723
 008E50 4040404040404040_          36724              SHCOLPRT SCKW  ,SHNUM,PI,&LINESZ
 008E78 D3C5D5C7E3C84040_          36739                       SCKW  LENGTH,SHNUM,(A,P,PI),&LINESZ
 008EA0 E6C9C4E3C8404040_          36754                       SCKW  WIDTH,SHNUM,(A,P,PI),&LINESZ
 008EC8 E2E3C1D9E3404040_          36769                       SCKW  START,SHSTART,(A,P,PI),&LINESZ
 008EF0 4040404040404040_          36784                       SCKW  ,V(NUMPSH),PUSH
 008F18 4040404040404040_          36799                       SCKW  ,V(COLLPSH),PUSH
 008F40 4040404040404040_          36814                       SCKW  ,V(NOTVALID)
                                   36829
 008F68 50E0 D000/9008_      00000 36830              SHNUM    PROC
 USING  *,R7
 008F82 1233/4780 700C_            36869                       IF    (R3,NZ),'VCALL NOTVALID'  already scanned
 008F8E 1830                       36892                       LR    R3,R0
 008F90 5038 0010            00010 36893                       PRETURN (R3)
 008F94 18D8/9808 D004_            36895                       PEND
 DROP   *,R7
                                   36915
 008FA2 50E0 D000/9008_      00000 36916              SHSTART  PROC
 USING  *,R7
 008FBC 1840                       36955                       LR    R4,R0
 008FBE 5048 0014            00014 36956                       PRETURN (R4)
 008FC2 18D8/9808 D004_            36958                       PEND
 DROP   *,R7
                                   36978
1MODE     (MODE4072) (12:48) (15MAR04) SHOW COLUMNS Command                                                                 Page   92
0Current Usings:  (CP,R11) (CV,R12)
0Loc    Object Code    Addr1 Addr2  Stmt Lv Lineno    Source Statement           (Hibal 5, Asmedit 3.3)  HLASM R4.0  2004/03/15 12.48
+___    ______ ____    _____ _____  ____ __ ______    ______ _________
0                                  36980              ¿þþþþþþþþþþþþþþþþþþþþþþþþþþþþþþþþþþþþþþþþþþþþþþþþþþþþþþþþþþþþþþþþþþþþþÜ
                                   36981              Ÿ                                                                     Ÿ
                                   36982              Ÿ  DOSHCOLS -- Routine to display columns.  Called by SET TABS and    Ÿ
                                   36983              Ÿ    SHOW COLUMNS command.                                            Ÿ
                                   36984              Ÿ                                                                     Ÿ
                                                      ¾þþþþþþþþþþþþþþþþþþþþþþþþþþþþþþþþþþþþþþþþþþþþþþþþþþþþþþþþþþþþþþþþþþþþþ»
0008FD0 50E0 D000/9008_      00000 36985              DOSHCOLS XPROC
 USING  *,R7
 008FEA 1200/4770 700A_            37025                       IF    (R0,Z),'LA R0,150'  Universal default
                                   37045
 008FF4 183F                       37046                       LR    R3,R15              Starting (logical) offset
 008FF6 1233/47D0 7014_            37047                       IF    (R3,P),'DECR R3'    Rel to zero, not one
                                   37068
 008FFE 1060                       37069                       LPR   R6,R0
 009000 5960 712A/47D0_      09114 37070                       CEIL  R6,&LINESZ          Keep it within bounds
                                   37089
 00900C 9180 BD54/4710_00D54       37090                       IF    ~CPLFLG5.CPFUNUM,'TSEG CVBLANKS,11'
                                   37141
 009026 1B44                       37142                       CLEAR R4
 009028 1853                       37146                       LR    R5,R3
 00902A 5D40 7132            0911C 37147                       D     R4,=F'10'           Tens count in r5, rem in r4
 00902E 1244/4780 7078             37148                       IF    (R4,NZ),BEGIN
 009034 4100 0009            00009 37162  1                      LA    R0,9
 009038 1B04                       37163  1                      SR    R0,R4               No. of chars to seg
 00903A 1906/47D0 7058_            37164  1                      CEIL  R0,R6               can't go over max
 009042 1B60                       37170  1                      SR    R6,R0
 009044 4110 7140            0912A 37171  1                      LA    R1,=C'....v....'
 009048 4114 1000/41F0_      00000 37172  1                      TSEG  @R1(R4),(R0)        Seg partial start
 009056 1266/47D0 C7DE             37199  1                      IF    (R6,NP),CVNEXT
 00905C 0660                       37216  1                      DECR  R6
 00905E 47F0 70A2            0908C 37218  1                      B     DOSHCX              Join common code
 009062                            37219                       END
                                   37223
 009062 1266/47D0 70BC             37224                       WHILE (R6,POS),BEGIN
 009068 1806                       37240  1                      LR    R0,R6
 00906A 5900 7136/47D0_      09120 37241  1                      CEIL  R0,9
 009076 4110 7140/41F0_      0912A 37260  1                      TSEG  LA:=C'....v....',(R0)
 009084 5B60 7132/4740_      0911C 37285  1                      IF    ('S R6,=F"10"',NEG),EXIT
 00908C 4115 70D6/4100_      090C0 37301  1           DOSHCX     TSEG  COLSDISP(R5),1
 00909E 4150 5001            00001 37331  1                      LA    R5,@R5+1            Kick tens counter
 0090A2 47F0 7078            09062 37332                       END
 0090A6 1B00/41F0 B050_            37337                       TWRITE
 0090B2 18D8/9808 D004_            37362                       PEND
 DROP   *,R7
                                   37382
 0090C0 F1F2F3F4F5F6F7F8           37383              COLSDISP DC    C'123456789ABCDEFGHIJKLMNOPQRSTUVWXYZ'
 0090E3 8182838485868788           37384                       DC    C'abcdefghijklmnopqrstuvwxyz'
                                   37385                       DROP  BR
                                   37389
                                   37390                       QLTORG
1MODE     (MODE4072) (12:48) (15MAR04) SHOW IPL Command                                                                     Page   93
0Current Usings:  (CP,R11) (CV,R12)
0Loc    Object Code    Addr1 Addr2  Stmt Lv Lineno    Source Statement           (Hibal 5, Asmedit 3.3)  HLASM R4.0  2004/03/15 12.48
+___    ______ ____    _____ _____  ____ __ ______    ______ _________
0                                  37415              ¿þþþþþþþþþþþþþþþþþþþþþþþþþþþþþþþþþþþþþþþþþþþþþþþþþþþþþþþþþþþþþþþþþþþþþÜ
                                   37416              Ÿ                                                                     Ÿ
                                   37417              Ÿ  SHOWIPL -- SHOW IPL Command.                                       Ÿ
                                   37418              Ÿ                                                                     Ÿ
                                                      ¾þþþþþþþþþþþþþþþþþþþþþþþþþþþþþþþþþþþþþþþþþþþþþþþþþþþþþþþþþþþþþþþþþþþþþ»
0009134 50E0 D000/9008_      00000 37419              SHOWIPL  PROC
 USING  *,R7
 00914E 58E0 719A/0DEE       092E8 37458                       VCALL COLLOPTS       Allow collect options
                                   37462
 009154 5850 0010            00010 37463                       L     R5,CVTPTR
 USING  CVT,R5                     37464                       USING CVT,R5
 009158 4110 7192/4100_      092E0 37473                       TSEG  'Last IPL',,B
 00916A 5840 50CC/1244       000CC 37491                       LT    R4,CVTUSER          SCIPCVT ptr
 009170 4780 7074            091C2 37495                       IF    NZ,BEGIN
 USING  USERCVT,R4                 37506  1                      WITH  (USERCVT,R4)
 009174 D503 71A2 4000_092F0 00000 37519  1                      IF    (USERCVT,NE,'SCIP'),EXIT  Forget it
 00917E 5800 401C            0001C 37539  1                      L     R0,USEIPLTM         Ipl time (STCK format)
 009182 1200/4780 7074             37540  1                      IF    (R0,Z),EXIT         No ipl time, scram
 009188 4110 71CC/4100_      0931A 37557  1                      TSEG  'at '
 00919A 58E0 71AA/0DEE       092F8 37575  1                      VCALL LOCALTOD
 0091A0 1820                       37579  1                      LR    R2,R0
 0091A2 1831                       37580  1                      LR    R3,R1
 0091A4 9801 401C            0001C 37581  1                      LM    R0,R1,USEIPLTM
 0091A8 18FD/41D0 D020             37582  1                      XPUSH ,,30,PTR=R15
 0091AE 58E0 71AE/0DEE       092FC 37585  1                      VCALL FMTRCLCK            "hh:mm" or "hh:mm mm/dd/yyyy"
 0091B4 41F0 B050/58E0_      00050 37589  1                      TSEG  (R1),(R0),B
 0091BE 4BD0 71BE            0930C 37613  1                      XPOP  ,,30
 DROP   USERCVT,R4                 37615                       END
                                   37624                       ¿þþþþþþþþþþþþþþþþþþþþþþþÜ
                                   37625                       Ÿ  Sysres volume info.  Ÿ
                                   37626                       ¾þþþþþþþþþþþþþþþþþþþþþþþ»
 0091C2 5840 5030            00030 37627                       L     R4,CVTSYSAD         Sysres UCB
 USING  UCBOB,R4                   37628                       USING UCBOB,R4
 0091C6 4110 71CF/4100_      0931D 37637                       TSEG  'from '
 0091D8 4110 401C/4100_      0001C 37655                       TSEG  UCBVOLI,6,B         Seg volser
 0091EA 4110 71D4/4100_      09322 37685                       TSEG  '('
 0091FC 1FFF/BFF3 4004             37703                       L2    R15,UCBCHAN
 009202 1B00/4110 BC88_            37711                       BTX   CPDOUB,0,(R15)
 00920E 41F0 B050/58E0_      00050 37730                       TSEG  (R1),(R0)           Unit
 009218 4110 71D5/4100_      09323 37754                       TSEG  '), '
                                   37772                       ¿þþþþþþþþþþþþþþþþþþÜ
                                   37773                       Ÿ  SMF system id.  Ÿ
                                   37774                       ¾þþþþþþþþþþþþþþþþþþ»
 00922A 5810 50C4/1211       000C4 37775                       LT    R1,CVTSMCA
 009230 4780 70F8            09246 37779                       IF    NZ,BEGIN
 009234 4110 1010/4100_      00010 37790  1                      TSEG  @R1+16,4,TB         SMF system id
 009246                            37820                       END
                                   37824                       ¿þþþþþþþþþþþþþþþþþþþþþþþÜ
                                   37825                       Ÿ  System information.  Ÿ
                                   37826                       ¾þþþþþþþþþþþþþþþþþþþþþþþ»
 009246 4110 71D8/4100_      09326 37827                       SETMSG 'MVS'
 00924E 9180 5074/47E0_00074       37831                       IF    CVTDCB.CVTMVSE,BEGIN  XA or ESA...
 009256 4110 71DB/4100_      09329 37847  1                      SETMSG 'MVS/ESA'           Assume ESA
1MODE     (MODE4072) (12:48) (15MAR04) SHOW IPL Command                                                                     Page   94
0Current Usings:  (UCBOB,R4) (CVT,R5) (*,R7) (CP,R11) (CV,R12)
0Loc    Object Code    Addr1 Addr2  Stmt Lv Lineno    Source Statement           (Hibal 5, Asmedit 3.3)  HLASM R4.0  2004/03/15 12.48
+___    ______ ____    _____ _____  ____ __ ______    ______ _________
000925E 9593 5074/4770_00074       37851  1                      IF    (CVTDCB,EQ,X'93'),'SETMSG "MVS/XA"'  XA
 00926E                            37877                       END
 00926E 41F0 B050/58E0_      00050 37881                       TSEG  (R1),(R0),B
                                   37905
 009278 4110 5000            00000 37906                       LA    R1,CVT
 00927C 4B10 71C6            09314 37907                       SH    R1,=H'40'           CVT-X'28' = Product number text
 009280 4100 0008/41F0_      00008 37908                       TSEG  @R1,8,T
                                   37937
 00928E 4110 71C8/4100_      09316 37938                       TSEG  ' ('
 0092A0 4110 5000            00000 37956                       LA    R1,CVT
 0092A4 4B10 71CA            09318 37957                       SH    R1,=H'32'           CVT-X'20' = FMID text
 0092A8 4100 0008/41F0_      00008 37958                       TSEG  @R1,8,T
 0092B6 4110 71E2/4100_      09330 37987                       TSEG  ')'
 0092C8 47F0 C7DE            007DE 38005                       B     CVNEXT
 0092CC 18D8/9808 D004_            38006                       PEND
 DROP   *,R7
                                   38026
 DROP   UCBOB,R4                   38027                       DROP  UCBOB,CVT
 DROP   CVT,R5
                                   38042
                                   38043                       QLTORG
1MODE     (MODE4072) (12:48) (15MAR04) SHOW INFO Command                                                                    Page   95
0Current Usings:  (CP,R11) (CV,R12)
0Loc    Object Code    Addr1 Addr2  Stmt Lv Lineno    Source Statement           (Hibal 5, Asmedit 3.3)  HLASM R4.0  2004/03/15 12.48
+___    ______ ____    _____ _____  ____ __ ______    ______ _________
0                                  38078              ¿þþþþþþþþþþþþþþþþþþþþþþþþþþþþþþþþþþþþþþþþþþþþþþþþþþþþþþþþþþþþþþþþþþþþþÜ
                                   38079              Ÿ                                                                     Ÿ
                                   38080              Ÿ  SHOWINFO -- SHOW INFO command.                                     Ÿ
                                   38081              Ÿ                                                                     Ÿ
                                                      ¾þþþþþþþþþþþþþþþþþþþþþþþþþþþþþþþþþþþþþþþþþþþþþþþþþþþþþþþþþþþþþþþþþþþþþ»
0009332 50E0 D000/9008_      00000 38082              SHOWINFO PROC
 USING  *,R7
 00934C 58E0 707C/0DEE       093C8 38121                       VCALL COLLOPTS
                                   38125
 009352 58E0 7080/0DEE       093CC 38126                       VCALL LOCALTOD
 009358 18FD/41D0 D040             38130                       XPUSH ,,64,PTR=R15
 00935E 58E0 7084/0DEE       093D0 38133                       VCALL FMTXDATE            (SHOW XDATE style)
 009364 41F0 B050/58E0_      00050 38137                       TSEG  (R1),(R0),CR
 00936E 1B00/41F0 B050_            38161                       TCR
 00937A 4BD0 7098            093E4 38186                       XPOP  ,,64
                                   38188
 00937E 58E0 708C/0DEE       093D8 38189                       VCALL MINFDISP            Show minfo
 009384 4110 C4D8/4100_      004D8 38193                       TSEG  CVBLANKS,1,CR
                                   38223
 009396 1B00                       38224                       CLEAR R0                  Default
 009398 58E0 7090/0DEE       093DC 38228                       ACALL WINFDISP            Show winfo
                                   38232
 00939E 4110 C4D8/4100_      004D8 38233                       TSEG  CVBLANKS,1,WR
 0093B0 4770 C7DA            007DA 38263                       BNZ   CVABORT
 0093B4 47F0 C7DE            007DE 38264                       B     CVNEXT
 0093B8 18D8/9808 D004_            38265                       PEND
 DROP   *,R7
                                   38285
1MODE     (MODE4072) (12:48) (15MAR04) SHOW INFO Command                                                                    Page   96
0Current Usings:  (CP,R11) (CV,R12)
0Loc    Object Code    Addr1 Addr2  Stmt Lv Lineno    Source Statement           (Hibal 5, Asmedit 3.3)  HLASM R4.0  2004/03/15 12.48
+___    ______ ____    _____ _____  ____ __ ______    ______ _________
0                                  38287                       QLTORG
1MODE     (MODE4072) (12:48) (15MAR04) SHOW WINFO Command                                                                   Page   97
0Current Usings:  (CP,R11) (CV,R12)
0Loc    Object Code    Addr1 Addr2  Stmt Lv Lineno    Source Statement           (Hibal 5, Asmedit 3.3)  HLASM R4.0  2004/03/15 12.48
+___    ______ ____    _____ _____  ____ __ ______    ______ _________
0                                  38308                  ¿þþþþþþþþþþþþþþþþþþþþþþþþþþþþþþþþþþþþþþþþþþþþþþþþþþþþþþþþþþþþþþþþþþþþÜ
                                   38309                  Ÿ  Paging statistics record (must match CVPNSTAT entries exactly!).  Ÿ
                                   38310                  ¾þþþþþþþþþþþþþþþþþþþþþþþþþþþþþþþþþþþþþþþþþþþþþþþþþþþþþþþþþþþþþþþþþþþþ»
 000000                00000 0000C 38311              PAT      RECORD BEGIN
 000000                            38319  1           PATNAME    DS    CL4                 Page type
 000004                            38320  1           PATIO      DS    F                   No. of page I/O's
 000008                            38321  1           PATWR      DS    F                   No. of page writes
                                   38322  1
                                   38323  1           PATNEXT    EQU   *                   (Last entry has NAME of zeros)
 00000C                0000C 0000C 38324                       END
-                                  38334              ¿þþþþþþþþþþþþþþþþþþþþþþþþþþþþþþþþþþþþþþþþþþþþþþþþþþþþþþþþþþþþþþþþþþþþþÜ
                                   38335              Ÿ                                                                     Ÿ
                                   38336              Ÿ  SHOWWINF -- SHOW WINFO command.                                    Ÿ
                                   38337              Ÿ                                                                     Ÿ
                                                      ¾þþþþþþþþþþþþþþþþþþþþþþþþþþþþþþþþþþþþþþþþþþþþþþþþþþþþþþþþþþþþþþþþþþþþþ»
00093E6 50E0 D000/9008_      00000 38338              SHOWWINF PROC
 USING  *,R7
 009400 1B66                       38377                       CLEAR R6                  Default
 009402 5810 B08C/1B00_      0008C 38381                       SCAN  WINFOPRT
 009454 58E0 7128/0DEE       09528 38413                       SCANCHK
                                   38418
 00945A 1806                       38419                       LR    R0,R6               Pass ALL option
 00945C 58E0 712C/0DEE       0952C 38420                       ACALL WINFDISP
 009462 47F0 C7DE            007DE 38424                       B     CVNEXT
 009466 18D8/9808 D004_            38425                       PEND
 DROP   *,R7
                                   38445
 009474 C1D3D34040404040_          38446              WINFOPRT SCKW  ALL,WINFALL
 00949C 4040404040404040_          38461                       SCKW  ,V(COLLPSH),PUSH
 0094C4 4040404040404040_          38476                       SCKW  ,V(NOTVALID)
                                   38491
 0094EC 50E0 D000/9008_      00000 38492              WINFALL  PROC
 USING  *,R7
 009506 4160 0001            00001 38531                       LA    R6,1                ALL info
 00950A 5068 001C            0001C 38532                       PRETURN (R6)
 00950E 18D8/9808 D004_            38534                       PEND
 DROP   *,R7
                                   38554
                                   38555                       QLTORG
1MODE     (MODE4072) (12:48) (15MAR04) SHOW WINFO Command                                                                   Page   98
0Current Usings:  (CP,R11) (CV,R12)
0Loc    Object Code    Addr1 Addr2  Stmt Lv Lineno    Source Statement           (Hibal 5, Asmedit 3.3)  HLASM R4.0  2004/03/15 12.48
+___    ______ ____    _____ _____  ____ __ ______    ______ _________
0                                  38573              ¿þþþþþþþþþþþþþþþþþþþþþþþþþþþþþþþþþþþþþþþþþþþþþþþþþþþþþþþþþþþþþþþþþþþþþÜ
                                   38574              Ÿ                                                                     Ÿ
                                   38575              Ÿ  WINFDISP -- Routine to display WYLBUR statistics.                  Ÿ
                                   38576              Ÿ                                                                     Ÿ
                                   38577              Ÿ    On entry:                                                        Ÿ
                                   38578              Ÿ      R0 - 0=default                                                 Ÿ
                                   38579              Ÿ           1=ALL                                                     Ÿ
                                   38580              Ÿ                                                                     Ÿ
                                                      ¾þþþþþþþþþþþþþþþþþþþþþþþþþþþþþþþþþþþþþþþþþþþþþþþþþþþþþþþþþþþþþþþþþþþþþ»
0009532 50E0 D000/9008_      00000 38581              WINFDISP PROC
 USING  *,R7
 00954C 1860                       38620                       LR    R6,R0
                                   38621
 00954E 4110 C028/4100_      00028 38622                       TSEG  CVWYLSSN,,T
 009560 4110 7D9E/4100_      0A2EA 38650                       TSEG  ':',,CR
 009572 1B00/41F0 B050_            38668                       TCR
                                   38693
 00957E 9120 CA00/47E0_00A00       38694                       IF    CVFNOSMF,BEGIN
 009586 4110 7D9F/4100_      0A2EB 38709  1                      TSEG  '*** SMF charging records turned off ***',,CR
 009598 1B00/41F0 B050_            38727  1                      TCR
 0095A4                            38752                       END
                                   38756
 0095A4 9120 C4C4/47E0_004C4       38757                       IF    CVFRLOAD,'TSEG "*** Reload pending ***",,CR; TCR'
                                   38820
 0095CA 91F0 C751/47E0_00751       38821                       IF    (CVENTON,OR,CVFPGROT),BEGIN  Debugging...
 0095DA 1B00                       38850  1                      CLEAR R0
 0095DC 91F0 C751/4710_00751       38854  1                      IF    CVENTON,'SETMSG "*** Tracing ***"'
 0095EC 9140 C4C4/47E0_004C4       38878  1                      IF    CVFPGROT,'SETMSG "*** Rotate ***"'
 0095FC 1200/4780 70CC             38902  1                      IF    (R0,Z),EXIT
 009602 41F0 B050/58E0_      00050 38919  1                      TSEG  (R1),(R0),CR
 00960C 1B00/41F0 B050_            38943  1                      TCR
 009618                            38968                       END
                                   38972
 009618 4110 7DD5/4100_      0A321 38973                       TSEG  'Started at '
 00962A 58E0 7C20/0DEE       0A16C 38991                       VCALL LOCALTOD
 009630 1820                       38995                       LR    R2,R0
 009632 1831                       38996                       LR    R3,R1
 009634 9801 C090            00090 38997                       LM    R0,R1,CVSCLCK
 009638 18FD/41D0 D020             38998                       XPUSH ,,30,PTR=R15
 00963E 58E0 7C24/0DEE       0A170 39001                       VCALL FMTRCLCK            "hh:mm" or "hh:mm mm/dd/yyyy"
 009644 41F0 B050/58E0_      00050 39005                       TSEG  (R1),(R0)
 00964E 4BD0 7CCC            0A218 39029                       XPOP  ,,30
                                   39031
 009652 4110 7CCE/4100_      0A21A 39032                       TSEG  ' (running for '
 009664 58E0 7C20/0DEE       0A16C 39050                       VCALL LOCALTOD
 00966A 1820                       39054                       LR    R2,R0
 00966C 1831                       39055                       LR    R3,R1
 00966E 5F30 C094/47B0_      00094 39056                       SDL   R2,R3,CVSCLCK       Calculate elapsed time
 00967C 8C20 000C            0000C 39061                       SRDL  R2,12               .000001 of a sec
 009680 5D20 7C28            0A174 39062                       D     R2,=A(100000*60*60)  Number of hours * 10
 009684 5920 7C2C/4750_      0A178 39063                       IF    (R2,GE,=A(10000*60*60/2)),'INCR R3'  Round
 009690 18F3/4100 0001_            39087                       BTR   CPDOUB,(0,1),(R3)   Format as "n.n"
 0096A0 41F0 B050/58E0_      00050 39110                       TSEG  (R1),(R0)
1MODE     (MODE4072) (12:48) (15MAR04) SHOW WINFO Command                                                                   Page   99
0Current Usings:  (*,R7) (CP,R11) (CV,R12)
0Loc    Object Code    Addr1 Addr2  Stmt Lv Lineno    Source Statement           (Hibal 5, Asmedit 3.3)  HLASM R4.0  2004/03/15 12.48
+___    ______ ____    _____ _____  ____ __ ______    ______ _________
00096AA 4110 7DE0/4100_      0A32C 39134                       TSEG  ' hours)'
 0096BC 1B00/41F0 B050_            39152                       TCR
                                   39177                       ¿þþþþþþþþþþþþþþþþþþþþþþþÜ
                                   39178                       Ÿ  File system access.  Ÿ
                                   39179                       ¾þþþþþþþþþþþþþþþþþþþþþþþ»
 0096C8 1B00/41F0 B050_            39180                       TCR
 0096D4 4110 7DE7/4100_      0A333 39205                       TSEG  'Default file system access is: '
 0096E6 4110 7CDC/4100_      0A228 39223                       SETMSG 'OLDIBM (not Wings)'
 0096EE 9120 C4C8/47E0_004C8       39227                       IF    CVFWINGS,'SETMSG "Wings"'
 0096FE 41F0 B050/58E0_      00050 39251                       TSEG  (R1),(R0),CR
                                   39275                       ¿þþþþþþþþþþþþþþþþþþþþþÜ
                                   39276                       Ÿ  Wings statistics.  Ÿ
                                   39277                       ¾þþþþþþþþþþþþþþþþþþþþþ»
 009708 1B00/41F0 B050_            39278                       TCR
 009714 4110 7E0B/4100_      0A357 39303                       TSEG  'Wings: '
 009726 58F0 C170            00170 39321                       L     R15,CVWGRDOP
 00972A 5AF0 C16C            0016C 39322                       A     R15,CVWGWROP
 00972E 181F/1B00/41F0_            39323                       TNUM  (R15)
 00973C 4110 7E12/4100_      0A35E 39345                       TSEG  ' file opens ('
 00974E 5810 C16C/1B00_      0016C 39363                       TNUM  L:CVWGWROP
 00975E 4110 7E1F/4100_      0A36B 39385                       TSEG  ' were writes)',,CR
                                   39403                       ¿þþþþþþþþþþþþþþþþþþþþþþÜ
                                   39404                       Ÿ  Query information.  Ÿ
                                   39405                       ¾þþþþþþþþþþþþþþþþþþþþþþ»
 009770 1B00/41F0 B050_            39406                       TCR
 00977C 4110 7E2C/4100_      0A378 39431                       TSEG  'Query: '
 00978E 5810 C238/1B00_      00238 39449                       TNUM  L:CVCSCONN
 00979E 4110 7CEE/4100_      0A23A 39471                       TSEG  ' connections, '
 0097B0 5810 C23C/1B00_      0023C 39489                       TNUM  L:CVCSREQ
 0097C0 4110 7E33/4100_      0A37F 39511                       TSEG  ' requests, '
 0097D2 5810 C240/1B00_      00240 39529                       TNUM  L:CVCSNIO
 0097E2 4110 7CFC/4100_      0A248 39551                       TSEG  ' I/O''s',,CR
                                   39569                       ¿þþþþþþþþþþþþþþþþþþþþþþÜ
                                   39570                       Ÿ  QSERV information.  Ÿ
                                   39571                       ¾þþþþþþþþþþþþþþþþþþþþþþ»
                                   39572                       AGO   .NOQSERV
                                   39573              .NOQSERV ANOP
                                   39574                       ¿þþþþþþþþþþþþþþþþþþþþþþþþþÜ
                                   39575                       Ÿ  CPU time information.  Ÿ
                                   39576                       ¾þþþþþþþþþþþþþþþþþþþþþþþþþ»
 0097F4 1B00/41F0 B050_            39577                       TCR
 009800 182D/41D0 D020             39602                       XPUSH ,,32,PTR=R2
 009806 4110 7E3E/4100_      0A38A 39605                       TSEG  ' User Charged CPU time = '
 009818 1B00                       39623                       CLEAR R0
 00981A 5810 C700            00700 39627                       L     R1,CVTIME           Charged time in tu's
 00981E 5C00 7C3C            0A188 39628                       M     R0,=A((40960000+(384/2))/384)  Convert to clck
 009822 18F2                       39629                       LR    R15,R2
 009824 58E0 7C40/0DEE       0A18C 39630                       VCALL FMTTIME             Hh:mm:ss.hh
 00982A 4100 0008/41F0_      00008 39634                       TSEG  (R1),8,B
 009838 1B00/41F0 B050_            39661                       TCR
                                   39686
 009844 4110 7E57/4100_      0A3A3 39687                       TSEG  '   Task Total CPU time = '
 009856 58E0 7C48/0DEE       0A194 39705                       VCALL GETCPU              Get cpu time in tu's
 00985C 1B00                       39709                       CLEAR R0
1MODE     (MODE4072) (12:48) (15MAR04) SHOW WINFO Command                                                                   Page  100
0Current Usings:  (*,R7) (CP,R11) (CV,R12)
0Loc    Object Code    Addr1 Addr2  Stmt Lv Lineno    Source Statement           (Hibal 5, Asmedit 3.3)  HLASM R4.0  2004/03/15 12.48
+___    ______ ____    _____ _____  ____ __ ______    ______ _________
000985E 5C00 7C3C            0A188 39713                       M     R0,=A((40960000+(384/2))/384)  Convert to clck
 009862 18F2                       39714                       LR    R15,R2
 009864 58E0 7C40/0DEE       0A18C 39715                       VCALL FMTTIME             Hh:mm:ss.hh
 00986A 4100 0008/41F0_      00008 39719                       TSEG  (R1),8
 009878 1B00/41F0 B050_            39746                       TCR
                                   39771
 009884 4110 7E70/4100_      0A3BC 39772                       TSEG  '          SRB CPU time = '
 009896 58F0 C718            00718 39790                       L     R15,CVASCBP
 00989A 9801 F0C8            000C8 39791                       WITH  (ASCB,R15),'LM R0,R1,ASCBSRBT'
 USING  ASCB,R15
 DROP   ASCB,R15
 00989E 1200/4770 7362_            39815                       IF    ((R0,Z),AND,(R1,Z)),'LA R1,1'
 0098AE 18F2                       39848                       LR    R15,R2
 0098B0 58E0 7C40/0DEE       0A18C 39849                       VCALL FMTTIME             Hh:mm:ss.hh
 0098B6 4100 0008/41F0_      00008 39853                       TSEG  (R1),8
 0098C4 1B00/41F0 B050_            39880                       TCR
                                   39905
 0098D0 4110 7E89/4100_      0A3D5 39906                       TSEG  'Address Space CPU time = '
 0098E2 58F0 C718            00718 39924                       L     R15,CVASCBP
 0098E6 9801 F040            00040 39925                       WITH  (ASCB,R15),'LM R0,R1,ASCBEJST'  MVS total CPU time
 USING  ASCB,R15
 DROP   ASCB,R15
 0098EA 18F2                       39949                       LR    R15,R2
 0098EC 58E0 7C40/0DEE       0A18C 39950                       VCALL FMTTIME             Hh:mm:ss.hh
 0098F2 4100 0008/41F0_      00008 39954                       TSEG  (R1),8
 009900 1B00/41F0 B050_            39981                       TCR
 00990C 1B00/41F0 B050_            40006                       TCR
 009918 4110 7EA2/4100_      0A3EE 40031                       TSEG  'Capture ratio is '
                                   40049                       ¿þþþþþþþþþþþþþþþþþþþþþþþþþþþþþþþÜ
                                   40050                       Ÿ  Total CPU time (from ASCB).  Ÿ
                                   40051                       ¾þþþþþþþþþþþþþþþþþþþþþþþþþþþþþþþ»
 00992A 58F0 C718            00718 40052                       L     R15,CVASCBP
 00992E 9823 F040            00040 40053                       WITH  (ASCB,R15),'LM R2,R3,ASCBEJST'  MVS total CPU time
 USING  ASCB,R15
 DROP   ASCB,R15
 009932 8D20 0008            00008 40077                       SLDL  R2,8                Only take middle bits
 009936 1832                       40078                       LR    R3,R2
 009938 1B22                       40079                       CLEAR R2
                                   40083                       ¿þþþþþþþþþþþþþþþþþþþþþþþþþþÜ
                                   40084                       Ÿ  Total billed CPU time.  Ÿ
                                   40085                       ¾þþþþþþþþþþþþþþþþþþþþþþþþþþ»
 00993A 1B00                       40086                       CLEAR R0
 00993C 5810 C700            00700 40090                       L     R1,CVTIME           Charged time in tu's
 009940 5C00 7C3C            0A188 40091                       M     R0,=A((40960000+(384/2))/384)  Convert to clck
 009944 8D00 0008            00008 40092                       SLDL  R0,8                Only take middle bits
                                   40093                       ¿þþþþþþþþþþþþþþþþþþþþþþþþþþþþþþþþþþþþÜ
                                   40094                       Ÿ  Display ratio of "total/billed".  Ÿ
                                   40095                       ¾þþþþþþþþþþþþþþþþþþþþþþþþþþþþþþþþþþþþ»
 009948 1200/4770 7406_            40096                       IF    (R0,Z),'LA R3,100'  Dummy capture ratio
                                   40116
 009952 740A/47F0 7410 09952 0994C 40117                       ELSE  BEGIN               Calculate it...
 009956 5C20 7C4C            0A198 40128  1                      M     R2,=F'100'          We want ratio*100
 00995A 1D20                       40129  1                      DR    R2,R0
 00995C                            40130                       END
1MODE     (MODE4072) (12:48) (15MAR04) SHOW WINFO Command                                                                   Page  101
0Current Usings:  (*,R7) (CP,R11) (CV,R12)
0Loc    Object Code    Addr1 Addr2  Stmt Lv Lineno    Source Statement           (Hibal 5, Asmedit 3.3)  HLASM R4.0  2004/03/15 12.48
+___    ______ ____    _____ _____  ____ __ ______    ______ _________
0                                  40134
 00995C 5930 7C50/47B0_      0A19C 40135                       IF    (R3,LT,100),'SETMSG "not available."'  (Overflow)
 00996C 7424/47F0 7434 0996C 09962 40161                       ELSE  BEGIN               Normal...
 009970 18F3/4100 0002_            40172  1                      BTR   CPDOUB,(0,2),(R3)   Format as "n.nn"
 009980                            40195                       END
 009980 41F0 B050/58E0_      00050 40199                       TSEG  (R1),(R0)
 00998A 1B00/41F0 B050_            40223                       TCR
 009996 1B00/41F0 B050_            40248                       TCR
 0099A2 4BD0 7D10            0A25C 40273                       XPOP  ,,32
                                   40275
 0099A6 5810 C8DC/1B00_      008DC 40276                       TNUM  L:CVNCOM
 0099B6 4110 7EB3/4100_      0A3FF 40298                       TSEG  ' commands total, '
 0099C8 5810 C8E0/1B00_      008E0 40316                       TNUM  L:CVNCOME
 0099D8 4110 7D12/4100_      0A25E 40338                       TSEG  ' exec '
 0099EA 5800 C8E0            008E0 40356                       L     R0,CVNCOME
 0099EE 5810 C8DC            008DC 40357                       L     R1,CVNCOM
 0099F2 58E0 7C54/0DEE       0A1A0 40358                       ACALL PRCT                Nn.n%
 0099F8 1B00/41F0 B050_            40362                       TCR
 009A04 1B00/41F0 B050_            40387                       TCR
 009A10 4810 C0E4/1B00_      000E4 40412                       TNUM  LH:CVNFAIL
 009A20 4110 7D18/4100_      0A264 40433                       TSEG  ' failsoft recoveries ('
 009A32 4810 C0E6/1B00_      000E6 40451                       TNUM  LH:CVNDISPF
 009A42 4110 7EC4/4100_      0A410 40472                       TSEG  ' dispatcher, '
 009A54 4810 C0E8/1B00_      000E8 40490                       TNUM  LH:CVNSUBF
 009A64 4110 7ED1/4100_      0A41D 40511                       TSEG  ' subtask)',,CR
                                   40529
 009A76 D603 C0EC C0EC_000EC 000EC 40530                       IF    (CVFCLCK,NZ),BEGIN  Last failsoft info...
 009A80 4110 C4D8/4100_      004D8 40546  1                      TSEG  CVBLANKS,2
 009A92 58E0 7C20/0DEE       0A16C 40576  1                      VCALL LOCALTOD
 009A98 1820                       40580  1                      LR    R2,R0
 009A9A 5800 C0EC            000EC 40581  1                      L     R0,CVFCLCK
 009A9E 1B11/1B33                  40582  1                      CLEAR R1,R3
 009AA2 18FD/41D0 D020             40588  1                      XPUSH ,,30,PTR=R15
 009AA8 58E0 7C24/0DEE       0A170 40591  1                      VCALL FMTRCLCK            "hh:mm" or "hh:mm mm/dd/yyyy"
 009AAE 41F0 B050/58E0_      00050 40595  1                      TSEG  (R1),(R0),B
 009AB8 4BD0 7CCC            0A218 40619  1                      XPOP  ,,30
 009ABC 4110 C0F0/4100_      000F0 40621  1                      SETMSG CVFINFO
 009AC4 58E0 7C58/0DEE       0A1A4 40635  1                      VCALL LRTRIM
 009ACA 41F0 B050/58E0_      00050 40639  1                      TSEG  (R1),(R0),CR
 009AD4                            40663                       END
                                   40667              ¿þþþþþþÜ
                                   40668              Ÿ      Ÿ
                                   40669              ¾þþþþþþ»
 009AD4 9140 C4C8/47E0_004C8       40670                       IF    CVFMEMPAGE,BEGIN    Memory paging only...
 009ADC 1B00/41F0 B050_            40685  1                      TCR
 009AE8 4110 7EDA/4100_      0A426 40710  1                      TSEG  'No paging (memory paging only).',,CR
 009AFA                            40728                       END
                                   40732                       ¿þþþþþþþþþþþþþþþþþþþþþþþþþþþþþþþþþþþþþþþþþþþþþþþþþÜ
                                   40733                       Ÿ  One minute summary (from statistics subtask).  Ÿ
                                   40734                       ¾þþþþþþþþþþþþþþþþþþþþþþþþþþþþþþþþþþþþþþþþþþþþþþþþþ»
 009AFA 75B2/47F0 772C 09AFA 09ADA 40735                       ELSE  BEGIN               Paging information...
 009AFE 1B00/41F0 B050_            40746  1                      TCR
 009B0A 4110 7C5C/4100_      0A1A8 40771  1                      TSEG  'Summary for the last minute:',,CR
                                   40789  1
1MODE     (MODE4072) (12:48) (15MAR04) SHOW WINFO Command                                                                   Page  102
0Current Usings:  (*,R7) (CP,R11) (CV,R12)
0Loc    Object Code    Addr1 Addr2  Stmt Lv Lineno    Source Statement           (Hibal 5, Asmedit 3.3)  HLASM R4.0  2004/03/15 12.48
+___    ______ ____    _____ _____  ____ __ ______    ______ _________
0009B1C 5800 C65C            0065C 40790  1                      L     R0,CV#CPU
 009B20 5810 C658            00658 40791  1                      L     R1,CV#INTVL
 009B24 58E0 7C54/0DEE       0A1A0 40792  1                      ACALL PRCT                Percent CPU used
 009B2A 4110 7C78/4100_      0A1C4 40796  1                      TSEG  ' CPU used (single processor)',,CR
                                   40814  1
 009B3C 4810 C660/4100_      00660 40815  1                      TNUM  LH:CV#IOSEC,5       Page I/O's per second
 009B4E 4110 7EF9/4100_      0A445 40839  1                      TSEG  '  page I/O''s per second ('
 009B60 58E0 7C20/0DEE       0A16C 40857  1                      VCALL LOCALTOD
 009B66 1820                       40861  1                      LR    R2,R0
 009B68 5800 C664            00664 40862  1                      L     R0,CV#IOCLK         Clock at calculation
 009B6C 1B11/1B33                  40863  1                      CLEAR R1,R3
 009B70 18FD/41D0 D020             40869  1                      XPUSH ,,30,PTR=R15
 009B76 58E0 7C24/0DEE       0A170 40872  1                      VCALL FMTRCLCK            "hh:mm" or "hh:mm mm/dd/yyyy"
 009B7C 41F0 B050/58E0_      00050 40876  1                      TSEG  (R1),(R0)
 009B86 4BD0 7CCC            0A218 40900  1                      XPOP  ,,30
 009B8A 4110 7F12/4100_      0A45E 40902  1                      TSEG  ')',,CR
                                   40920  1
 009B9C 1B00/41F0 B050_            40921  1                      TCR
 009BA8 5850 C1D0            001D0 40946  1                      L     R5,CVFPFCB
 009BAC                            40947  1                      LOOP  BEGIN
 USING  PFCB,R5                    40953  2                        WITH  (PFCB,R5)
 009BAC D603 5008 5008_00008 00008 40966  2                        IF    (PFCBNP,NZ),BEGIN   Some pages...
 009BB6 5810 5004/4100_      00004 40982  3                          TNUM  L:PFCBNO,5          Page file no.
 009BC8 5820 5018            00018 41007  3                          L     R2,PFCBUCBP         UCB ptr
 009BCC 4110 7D2E/4100_      0A27A 41008  3                          TSEG  ' ('
 009BDE 4110 200D/4100_      0000D 41026  3                          TSEG  @R2+13,3            Unit address (UCBNAME)
 009BF0 4110 7F12/4100_      0A45E 41056  3                          TSEG  ')',,B
 009C02 4110 201C/4100_      0001C 41074  3                          TSEG  @R2+28,6,B          Volume serial (UCBVOLI)
 009C14 4810 5048/4100_      00048 41104  3                          TNUM  LH:PFCB#IOS,5       Page I/O's per second
 009C26 4110 7C94/4100_      0A1E0 41128  3                          TSEG  'p/s '
 009C38 4810 504A/4100_      0004A 41146  3                          TNUM  LH:PFCB#IOT,5       Milliseconds per page I/O
 009C4A 4110 7F13/4100_      0A45F 41170  3                          TSEG  'ms '
 009C5C 1B00/41F0 B050_            41188  3                          TCR
 009C68                            41213  2                        END
 009C68 4150 50A4            000A4 41217  2                        LA    R5,PFCBNEXT
 009C6C 5950 C1D4/47A0_      001D4 41218  2                        UNTIL (R5,GE,CVLPFCB)
 009C74 47F0 7660            09BAC 41239  1                      END
 DROP   PFCB,R5
 009C78                            41249                       END
                                   41253
 009C78 1266/4770 7754             41254                       IF    (R6,Z),BEGIN        Short form...
 009C7E 1B00/41F0 B050_            41268  1                      TCR
 009C8A 4110 7B84/4100_      0A0D0 41293  1                      TSEG  '[SHOW WINFO ALL will give you more information.]'
 009C9C 47F0 C7DE            007DE 41311  1                      B     CVNEXT
 009CA0                            41312                       END
                                   41316                       ¿þþþþþþþþþþþþþþþþþþþþþþþþþþþÜ
                                   41317                       Ÿ  Dispatcher information.  Ÿ
                                   41318                       ¾þþþþþþþþþþþþþþþþþþþþþþþþþþþ»
 009CA0 1B00/41F0 B050_            41319                       TCR
 009CAC 4110 7F16/4100_      0A462 41344                       TSEG  'Dispatcher:  '
 009CBE 5810 C8F8/1B00_      008F8 41362                       TNUM  L:CVNDISP
 009CCE 4110 7F23/4100_      0A46F 41384                       TSEG  ' dispatches, '
 009CE0 5810 C8F4/1B00_      008F4 41402                       TNUM  L:CVNSLICE
 009CF0 4110 7D30/4100_      0A27C 41424                       TSEG  ' timeslice expirations',,CR
1MODE     (MODE4072) (12:48) (15MAR04) SHOW WINFO Command                                                                   Page  103
0Current Usings:  (*,R7) (CP,R11) (CV,R12)
0Loc    Object Code    Addr1 Addr2  Stmt Lv Lineno    Source Statement           (Hibal 5, Asmedit 3.3)  HLASM R4.0  2004/03/15 12.48
+___    ______ ____    _____ _____  ____ __ ______    ______ _________
0                                  41442
 009D02 5810 C92C/1B00_      0092C 41443                       TNUM  L:CVNTIDLE
 009D12 4110 7F30/4100_      0A47C 41465                       TSEG  ' terminal I/O''s after max idle time',,CR
                                   41483                       ¿þþþþþþþþþþþþþþþþþþþþþþþþþþÜ
                                   41484                       Ÿ  Autopilot information.  Ÿ
                                   41485                       ¾þþþþþþþþþþþþþþþþþþþþþþþþþþ»
 009D24 1B00/41F0 B050_            41486                       TCR
 009D30 4110 7F53/4100_      0A49F 41511                       TSEG  'Autopilot recommends:',,CR
                                   41529
 009D42 4110 C4D8/4100_      004D8 41530                       TSEG  CVBLANKS,2
 009D54 58F0 C0D0            000D0 41560                       L     R15,CVSLICE
 009D58 88F0 000C            0000C 41561                       SRL   R15,12              Convert to .000001 sec (mics)
 009D5C 181F/1B00/41F0_            41562                       TNUM  (R15)
 009D6A 4110 7F68/4100_      0A4B4 41584                       TSEG  ' microseconds maximum timeslice',,CR
                                   41602
 009D7C 4110 C4D8/4100_      004D8 41603                       TSEG  CVBLANKS,2
 009D8E 5810 C29C/1B00_      0029C 41633                       TNUM  L:CVPCSEC
 009D9E 4110 7BB4/4100_      0A100 41655                       TSEG  ' seconds before checkpoint write',,CR
                                   41673
 009DB0 4110 C4D8/4100_      004D8 41674                       TSEG  CVBLANKS,2
 009DC2 4810 C0D8/1B00_      000D8 41704                       TNUM  LH:CVRUNMAX
 009DD2 4110 7BD4/4100_      0A120 41725                       TSEG  ' max run queue allowed ('
 009DE4 4810 C0D6/1B00_      000D6 41743                       TNUM  LH:CVRUNCUR
 009DF4 4110 7F87/4100_      0A4D3 41764                       TSEG  ' current depth)',,CR
                                   41782                       ¿þþþþþþþþþþþþþþþþþþþþþþþþþþþþþþþþþþþþþþÜ
                                   41783                       Ÿ  Display paging/memory information.  Ÿ
                                   41784                       ¾þþþþþþþþþþþþþþþþþþþþþþþþþþþþþþþþþþþþþþ»
 009E06 1B00/41F0 B050_            41785                       TCR
 009E12 4110 7F96/4100_      0A4E2 41810                       TSEG  'Memory usage:',,CR
 009E24 4820 C13E            0013E 41828                       LH    R2,CVNPG
 009E28 18F2                       41829                       LR    R15,R2
 009E2A 4CF0 7D46            0A292 41830                       MH    R15,=AL2((CVPSZ+4095)/4096*4)  Memory in K
 009E2E 181F/4100 0009_            41831                       TNUM  (R15),9
 009E3E 4110 7BEC/4100_      0A138 41856                       TSEG  'K paging space ('
 009E50 1812/1B00/41F0_            41874                       TNUM  (R2)
 009E5E 4110 7FA3/4100_      0A4EF 41896                       TSEG  ' buffers)',,CR
                                   41914
 009E70 58F0 C6A8            006A8 41915                       L     R15,CVCPMEM         Memory used for CPs
 009E74 88F0 000A            0000A 41916                       SRL   R15,10              Convert to kilobytes
 009E78 181F/4100 0009_            41917                       TNUM  (R15),9
 009E88 4110 7D48/4100_      0A294 41942                       TSEG  'K CP     space',,CR
                                   41960
 009E9A 58F0 C6AC            006AC 41961                       L     R15,CVSTKMEM        Memory use for STACK/HEAP
 009E9E 88F0 000A            0000A 41962                       SRL   R15,10              Convert to kilobytes
 009EA2 181F/4100 0009_            41963                       TNUM  (R15),9
 009EB2 4110 7D56/4100_      0A2A2 41988                       TSEG  'K STACK  space',,CR
                                   42006
 009EC4 58F0 C6C4            006C4 42007                       L     R15,CVMPGMEM        Memory used for memory pages
 009EC8 88F0 000A            0000A 42008                       SRL   R15,10              Convert to kilobytes
 009ECC 181F/4100 0009_            42009                       TNUM  (R15),9
 009EDC 4110 7D64/4100_      0A2B0 42034                       TSEG  'K public space',,CR
                                   42052
 009EEE 1B00/41F0 B050_            42053                       TCR
 009EFA 4110 7D72/4100_      0A2BE 42078                       TSEG  'GETCORE has allocated '
1MODE     (MODE4072) (12:48) (15MAR04) SHOW WINFO Command                                                                   Page  104
0Current Usings:  (*,R7) (CP,R11) (CV,R12)
0Loc    Object Code    Addr1 Addr2  Stmt Lv Lineno    Source Statement           (Hibal 5, Asmedit 3.3)  HLASM R4.0  2004/03/15 12.48
+___    ______ ____    _____ _____  ____ __ ______    ______ _________
0009F0C 58F0 C6C8            006C8 42096                       L     R15,CVMEMTOT        Memory GETCORE allocated
 009F10 88F0 000A            0000A 42097                       SRL   R15,10              Convert to kilobytes
 009F14 181F/1B00/41F0_            42098                       TNUM  (R15)
 009F22 4110 7BFC/4100_      0A148 42120                       TSEG  'K bytes.',,CR
                                   42138                       ¿þþþþþþþþþþþþþþþþþþþþþþþÜ
                                   42139                       Ÿ  General statistics.  Ÿ
                                   42140                       ¾þþþþþþþþþþþþþþþþþþþþþþþ»
 009F34 1B00/41F0 B050_            42141                       TCR
 009F40 5810 C8E8/1B00_      008E8 42166                       TNUM  L:CVNDIO
 009F50 4110 7FAC/4100_      0A4F8 42188                       TSEG  ' disk I/O''s, '
                                   42206
 009F62 5810 C8EC/1B00_      008EC 42207                       TNUM  L:CVNRJE
 009F72 4110 7FB9/4100_      0A505 42229                       TSEG  ' jobs submitted, '
 009F84 5810 C8F0/1B00_      008F0 42247                       TNUM  L:CVNPRINT
 009F94 4110 7FCA/4100_      0A516 42269                       TSEG  ' prints',,CR
                                   42287
 009FA6 5810 C0DC/1B00_      000DC 42288                       TNUM  L:CVNSMF
 009FB6 4110 7D88/4100_      0A2D4 42310                       TSEG  ' SMF records written, '
 009FC8 5810 C0E0/1B00_      000E0 42328                       TNUM  L:CVNASMF
 009FD8 4110 7FD1/4100_      0A51D 42350                       TSEG  ' accounting',,CR
                                   42368
 009FEA 4110 7C04/4100_      0A150 42369                       SETMSG 'No checkpointing'
 009FF2 9140 C4C7/4710_004C7       42373                       IF    ~CVFNCHK,BEGIN
 009FFA 5810 C9E8/1B00_      009E8 42388  1                      TNUM  L:CVCHKNIO
 00A00A 4110 7FDC/4100_      0A528 42410  1                      SETMSG ' checkpoint I/O''s'
 00A012                            42414                       END
 00A012 41F0 B050/58E0_      00050 42418                       TSEG  (R1),(R0),CR
                                   42442
 00A01C 1B00/41F0 B050_            42443                       TCR
 00A028 5810 C8E4/1B00_      008E4 42468                       TNUM  L:CVNPIO            Total page I/O's
 00A038 4110 7FED/4100_      0A539 42490                       TSEG  ' page I/O''s ('
 00A04A 5810 C6B4/1B00_      006B4 42508                       TNUM  L:CV#COUT           Number of checkpoint I/O writes
 00A05A 4110 7C98/4100_      0A1E4 42530                       TSEG  ' checkpoint '
 00A06C 5800 C6B4            006B4 42548                       L     R0,CV#COUT
 00A070 5810 C8E4            008E4 42549                       L     R1,CVNPIO
 00A074 58E0 7C54/0DEE       0A1A0 42550                       ACALL PRCT                Nn.n%
 00A07A 4110 7F12/4100_      0A45E 42554                       TSEG  ')',,CR
                                   42572              *
                                   42573              *dont    TCR
                                   42574              *dont    L     R2,CV#SNEM
                                   42575              *dont    AL    R2,CV#SNB
                                   42576              *dont    TNUM  (R2)
                                   42577              *dont    TSEG  ' page snatches',,CR
                                   42578              *
                                   42579              *dont    TNUM  L:CV#SNEM,9
                                   42580              *dont    TSEG  ' empty      '
                                   42581              *dont    L     R0,CV#SNEM
                                   42582              *dont    LR    R1,R2
                                   42583              *dont    ACALL PRCT                Nn.n%
                                   42584              *dont    TCR
                                   42585              *
                                   42586              *dont    TNUM  L:CV#SNB,9
                                   42587              *dont    TSEG  ' unchanged  '
                                   42588              *dont    L     R0,CV#SNB
1MODE     (MODE4072) (12:48) (15MAR04) SHOW WINFO Command                                                                   Page  105
0Current Usings:  (*,R7) (CP,R11) (CV,R12)
0Loc    Object Code    Addr1 Addr2  Stmt Lv Lineno    Source Statement           (Hibal 5, Asmedit 3.3)  HLASM R4.0  2004/03/15 12.48
+___    ______ ____    _____ _____  ____ __ ______    ______ _________
0                                  42589              *dont    LR    R1,R2
                                   42590              *dont    ACALL PRCT                Nn.n%
                                   42591              *dont    TCR
                                   42592              *
 00A08C 5810 C6C0/1B00_      006C0 42593                       TNUM  L:CV#SNC
 00A09C 4110 7FFA/4100_      0A546 42615                       TSEG  ' running with max ready',,CR
                                   42633                       ¿þþþþþþþþþþþþþþþþþþþþþþþþþþþþþþþÜ
                                   42634                       Ÿ  Display paging information.  Ÿ
                                   42635                       ¾þþþþþþþþþþþþþþþþþþþþþþþþþþþþþþþ»
 00A0AE 1B00/41F0 B050_            42636                       TCR
 00A0BA 58E0 7CA4/0DEE       0A1F0 42661                       ACALL WINFPDIS            Display paging information
                                   42665
 00A0C0 18D8/9808 D004_            42666              WINFEXIT PEND
 DROP   *,R7
                                   42687
                                   42688                       QLTORG
1MODE     (MODE4072) (12:48) (15MAR04) SHOW WINFO Command                                                                   Page  106
0Current Usings:  (CP,R11) (CV,R12)
0Loc    Object Code    Addr1 Addr2  Stmt Lv Lineno    Source Statement           (Hibal 5, Asmedit 3.3)  HLASM R4.0  2004/03/15 12.48
+___    ______ ____    _____ _____  ____ __ ______    ______ _________
0                                  42788              ¿þþþþþþþþþþþþþþþþþþþþþþþþþþþþþþþþþþþþþþþþþþþþþþþþþþþþþþþþþþþþþþþþþþþþþÜ
                                   42789              Ÿ                                                                     Ÿ
                                   42790              Ÿ  WINFPDIS -- Local routine to display paging information.           Ÿ
                                   42791              Ÿ                                                                     Ÿ
                                                      ¾þþþþþþþþþþþþþþþþþþþþþþþþþþþþþþþþþþþþþþþþþþþþþþþþþþþþþþþþþþþþþþþþþþþþþ»
000A55E 50E0 D000/9008_      00000 42792              WINFPDIS PROC
 USING  *,R7
                                   42831                       ¿þþþþþþþþþþþþþþþþþþþþþþþþÜ
                                   42832                       Ÿ  Paging by page type.  Ÿ
                                   42833                       ¾þþþþþþþþþþþþþþþþþþþþþþþþ»
 00A578 4110 72AA/4100_      0A822 42834                       TSEG  'Paging by page type',,CR
 00A58A 4110 72BD/4100_      0A835 42852                       TSEG  '-------------------',,CR
                                   42870
 00A59C 4160 C668            00668 42871                       LA    R6,CV#PAT           Start of paging statistics
 00A5A0                            42872                       LOOP  BEGIN
 USING  PAT,R6                     42878  1                      WITH  (PAT,R6)
 00A5A0 D603 6000 6000_00000 00000 42891  1                      WHILE (PATNAME,NZ)        Go through page types...
 00A5AA 1B00                       42908  1                      CLEAR R0
 00A5AC D503 727C 6000_0A7F4 00000 42912  1                      IF    (PATNAME,EQ,'MISC'),'SETMSG "(other)  "'
 00A5BE 1200/4770 7078             42938  1                      IF    (R0,Z),BEGIN
 00A5C4 4110 C4D8/4100_      004D8 42952  2                        TSEG  CVBLANKS,1
 00A5D6 4110 6000/4100_      00000 42982  2                        TSEG  PATNAME             Page type name
 00A5E8 4110 C4D8/4100_      004D8 43010  2                        SETMSG CVBLANKS,4
 00A5F0                            43026  1                      END
 00A5F0 41F0 B050/58E0_      00050 43030  1                      TSEG  (R1),(R0)
                                   43054  1
 00A5FA 5800 6004            00004 43055  1                      L     R0,PATIO            Page I/O's for this type
 00A5FE 5810 C8E4            008E4 43056  1                      L     R1,CVNPIO           Total page I/O's
 00A602 58E0 7284/0DEE       0A7FC 43057  1                      ACALL PRCT                Nn.n%
                                   43061  1
 00A608 5810 6004/4100_      00004 43062  1                      TNUM  L:PATIO,8
 00A61A 4110 7298/4100_      0A810 43087  1                      TSEG  ' I/O''s   ('
 00A62C 5800 6008            00008 43105  1                      L     R0,PATWR            Page writes for this type
 00A630 5810 6004            00004 43106  1                      L     R1,PATIO            Page I/O's for this type
 00A634 58E0 7284/0DEE       0A7FC 43107  1                      ACALL PRCT                Nn.n%
 00A63A 4110 72D9/4100_      0A851 43111  1                      TSEG  ' write)',,CR
                                   43129  1
 00A64C 4160 600C            0000C 43130  1                      LA    R6,PATNEXT          Next PAT entry
 00A650 47F0 7028            0A5A0 43131                       END
 DROP   PAT,R6
                                   43141                       ¿þþþþþþþþþþþþþþþþþþþþþÜ
                                   43142                       Ÿ  Paging by device.  Ÿ
                                   43143                       ¾þþþþþþþþþþþþþþþþþþþþþ»
 00A654 1B00/41F0 B050_            43144                       TCR
 00A660 4110 7258/4100_      0A7D0 43169                       TSEG  'Paging by device',,CR
 00A672 4110 7268/4100_      0A7E0 43187                       TSEG  '----------------',,CR
                                   43205
 00A684 9140 C4C8/47E0_004C8       43206                       IF    CVFMEMPAGE,BEGIN
 00A68C 4110 72E0/4100_      0A858 43221  1                      TSEG  'Memory paging is in effect.',,CR
 00A69E 712A/47F0 7244 0A69E 0A68A 43239                       END   ELSE,BEGIN
 00A6A2 5860 C1D0            001D0 43254  1                      L     R6,CVFPFCB
 00A6A6                            43255  1                      LOOP  BEGIN
 USING  PFCB,R6                    43261  2                        WITH  (PFCB,R6)
1MODE     (MODE4072) (12:48) (15MAR04) SHOW WINFO Command                                                                   Page  107
0Current Usings:  (PFCB,R6) (*,R7) (CP,R11) (CV,R12)
0Loc    Object Code    Addr1 Addr2  Stmt Lv Lineno    Source Statement           (Hibal 5, Asmedit 3.3)  HLASM R4.0  2004/03/15 12.48
+___    ______ ____    _____ _____  ____ __ ______    ______ _________
000A6A6 D603 6008 6008_00008 00008 43274  2                        IF    (PFCBNP,NZ),BEGIN   Some pages...
 00A6B0 5810 6004/4100_      00004 43290  3                          TNUM  L:PFCBNO,2          Page file no.
 00A6C2 5820 6018            00018 43315  3                          L     R2,PFCBUCBP         UCB ptr
 00A6C6 4110 72A2/4100_      0A81A 43316  3                          TSEG  ' ('
 00A6D8 4110 200D/4100_      0000D 43334  3                          TSEG  @R2+13,3            Unit address (UCBNAME)
 00A6EA 4110 72FB/4100_      0A873 43364  3                          TSEG  ')',,B
 00A6FC 4110 201C/4100_      0001C 43382  3                          TSEG  @R2+28,6,B          Volume serial (UCBVOLI)
 00A70E 5810 6030/4100_      00030 43412  3                          TNUM  L:PFCBNIO,8
 00A720 4110 72FC/4100_      0A874 43437  3                          TSEG  ' I/O''s '
 00A732 5800 6030            00030 43455  3                          L     R0,PFCBNIO
 00A736 5810 C8E4            008E4 43456  3                          L     R1,CVNPIO
 00A73A 58E0 7284/0DEE       0A7FC 43457  3                          ACALL PRCT                Nn.n%
 00A740 5810 6008/4100_      00008 43461  3                          TNUM  L:PFCBNP,8          Total no. of pages
 00A752 4110 72A4/4100_      0A81C 43486  3                          TSEG  ' pages'
 00A764 5810 600C/4100_      0000C 43504  3                          TNUM  L:PFCBMP,8          Max no. of pages
 00A776 4110 7290/4100_      0A808 43529  3                          TSEG  ' max'
 00A788 5810 6010/4100_      00010 43547  3                          TNUM  L:PFCBCP,8          Current no. of pages
 00A79A 4110 7294/4100_      0A80C 43572  3                          TSEG  ' cur',,CR
 00A7AC                            43590  2                        END
 00A7AC 4160 60A4            000A4 43594  2                        LA    R6,PFCBNEXT
 00A7B0 5960 C1D4/47A0_      001D4 43595  2                        UNTIL (R6,GE,CVLPFCB)
 00A7B8 47F0 712E            0A6A6 43616  1                      END
 DROP   PFCB,R6
 00A7BC                            43626                       END   ,
                                   43630
 00A7BC 18D8/9808 D004_            43631                       PEND
 DROP   *,R7
                                   43651
                                   43652                       QLTORG
                                   43684                       AIF   (&$PCODE).NULWCAP
1MODE     (MODE4072) (12:48) (15MAR04) SHOW WINFO Command                                                                   Page  108
0Current Usings:  (CP,R11) (CV,R12)
0Loc    Object Code    Addr1 Addr2  Stmt Lv Lineno    Source Statement           (Hibal 5, Asmedit 3.3)  HLASM R4.0  2004/03/15 12.48
+___    ______ ____    _____ _____  ____ __ ______    ______ _________
0                                  43686              ¿þþþþþþþþþþþþþþþþþþþþþþþþþþþþþþþþþþþþþþþþþþþþþþþþþþþþþþþþþþþþþþþþþþþþþÜ
                                   43687              Ÿ                                                                     Ÿ
                                   43688              Ÿ  SHOWWCAP -- SHOW WCAPTURE Command.                                 Ÿ
                                   43689              Ÿ     Show global CPU overhead values.                                Ÿ
                                   43690              Ÿ                                                                     Ÿ
                                                      ¾þþþþþþþþþþþþþþþþþþþþþþþþþþþþþþþþþþþþþþþþþþþþþþþþþþþþþþþþþþþþþþþþþþþþþ»
000A87C 50E0 D000/9008_      00000 43691              SHOWWCAP PROC
 USING  *,R7
 00A896 D607 729A 729A_0AB30 0AB30 43730                       IF    (WCAPSCLK,Z),'MVC WCAPSCLK,CVSCLCK'  Init field
                                   43752
 00A8A6 5810 B08C/1B00_      0008C 43753                       SCAN  WCAPPRT             Options
 00A8F8 58E0 74F2/0DEE       0AD88 43785                       SCANCHK
                                   43790                       ¿þþþþþþþþþþþþþþþþþþþþþþþþþÜ
                                   43791                       Ÿ  Display capture info.  Ÿ
                                   43792                       ¾þþþþþþþþþþþþþþþþþþþþþþþþþ»
 00A8FE D604 7294 7294_0AB2A 0AB2A 43793                       IF    (WCAPACCT,NZ),BEGIN  Restarted...
 00A908 4110 7586/4100_      0AE1C 43809  1                      TSEG  'Restarted by '
 00A91A 4110 7297/4100_      0AB2D 43827  1                      TSEG  WCAPACCT+3,2
 00A92C 4110 7593/4100_      0AE29 43857  1                      TSEG  '.'
 00A93E 4110 7294/4100_      0AB2A 43875  1                      TSEG  WCAPACCT,3
 00A950 4110 74FA/4100_      0AD90 43905  1                      TSEG  '... '
 00A962                            43923                       END
                                   43927
 00A962 4110 C028/4100_      00028 43928                       TSEG  CVWYLSSN,,T
 00A974 4110 7534/4100_      0ADCA 43956                       TSEG  ' capture ratio is '
                                   43974                       ¿þþþþþþþþþþþþþþþþþþþþþþþþþþþþþþþÜ
                                   43975                       Ÿ  Total CPU time (from ASCB).  Ÿ
                                   43976                       ¾þþþþþþþþþþþþþþþþþþþþþþþþþþþþþþþ»
 00A986 58F0 C718            00718 43977                       L     R15,CVASCBP
 00A98A 9823 F040            00040 43978                       WITH  (ASCB,R15),'LM R2,R3,ASCBEJST'  MVS total CPU time
 USING  ASCB,R15
 DROP   ASCB,R15
 00A98E 5F30 72A6/47B0_      0AB3C 44002                       SDL   R2,R3,WCAPTOTC      Deduct time before RESET
 00A99C 8D20 000C            0000C 44007                       SLDL  R2,12               Only take middle bits
 00A9A0 1832                       44008                       LR    R3,R2
 00A9A2 1B22                       44009                       CLEAR R2
                                   44013                       ¿þþþþþþþþþþþþþþþþþþþþþþþþþþÜ
                                   44014                       Ÿ  Total billed CPU time.  Ÿ
                                   44015                       ¾þþþþþþþþþþþþþþþþþþþþþþþþþþ»
 00A9A4 1B00                       44016                       CLEAR R0
 00A9A6 5810 C700            00700 44020                       L     R1,CVTIME           Charged time in tu's
 00A9AA 5F10 72AA            0AB40 44021                       SL    R1,WCAPCPU          Deduct time before RESET
 00A9AE 5C00 7502            0AD98 44022                       M     R0,=A((40960000+(384/2))/384)  Convert to clck
 00A9B2 8D00 000C            0000C 44023                       SLDL  R0,12               Only take middle bits
                                   44024                       ¿þþþþþþþþþþþþþþþþþþþþþþþþþþþþþþþþþþþþÜ
                                   44025                       Ÿ  Display ratio of "total/billed".  Ÿ
                                   44026                       ¾þþþþþþþþþþþþþþþþþþþþþþþþþþþþþþþþþþþþ»
 00A9B6 5900 7506/47B0_      0AD9C 44027                       IF    (R0,LT,1000),'SETMSG "???"'  (not significant)
 00A9C6 7134/47F0 714A 0A9C6 0A9BC 44053                       ELSE  BEGIN
 00A9CA 5C20 750A            0ADA0 44064  1                      M     R2,=F'100'          We want ratio*100
 00A9CE 1D20                       44065  1                      DR    R2,R0
 00A9D0 18F3/4100 0002_            44066  1                      BTR   CPDOUB,(0,2),(R3)   Format as "n.nn"
 00A9E0                            44089                       END
1MODE     (MODE4072) (12:48) (15MAR04) SHOW WINFO Command                                                                   Page  109
0Current Usings:  (*,R7) (CP,R11) (CV,R12)
0Loc    Object Code    Addr1 Addr2  Stmt Lv Lineno    Source Statement           (Hibal 5, Asmedit 3.3)  HLASM R4.0  2004/03/15 12.48
+___    ______ ____    _____ _____  ____ __ ______    ______ _________
000A9E0 41F0 B050/58E0_      00050 44093                       TSEG  (R1),(R0)
                                   44117                       ¿þþþþþþþþþþþþþþþþþþþþþþþþþþþþþþþþþþþþþþþþþþþþþþþþþþþþÜ
                                   44118                       Ÿ  Display number of hours WYLBUR has been running.  Ÿ
                                   44119                       ¾þþþþþþþþþþþþþþþþþþþþþþþþþþþþþþþþþþþþþþþþþþþþþþþþþþþþ»
 00A9EA 4110 7597/4100_      0AE2D 44120                       TSEG  '  (average for '
 00A9FC B205 D000      00000       44138                       STCK  @R13
 00AA00 9823 D000            00000 44139                       LM    R2,R3,@R13          Current time
 00AA04 5F30 729E/47B0_      0AB34 44140                       SDL   R2,R3,WCAPSCLK      Calculate elapsed time
 00AA12 8C20 000C            0000C 44145                       SRDL  R2,12               .000001 of a sec
 00AA16 5D20 7512            0ADA8 44146                       D     R2,=A(10000*60*60)  Number of hours * 100
 00AA1A 5920 7516/4750_      0ADAC 44147                       IF    (R2,GE,=A(10000*60*60/2)),'INCR R3'  Round
 00AA26 18F3/4100 0002_            44171                       BTR   CPDOUB,(0,2),(R3)   Format as "n.nn"
 00AA36 41F0 B050/58E0_      00050 44194                       TSEG  (R1),(R0)
 00AA40 4110 75A6/4100_      0AE3C 44218                       TSEG  ' hours)'
                                   44236
 00AA52 47F0 C7DE            007DE 44237                       B     CVNEXT
 00AA56 18D8/9808 D004_            44238                       PEND
 DROP   *,R7
                                   44258                       ¿þþþþþþþþþþþþþþþþþþþþþþþþþþÜ
                                   44259                       Ÿ  SHOW WCAPTURE options.  Ÿ
                                   44260                       ¾þþþþþþþþþþþþþþþþþþþþþþþþþþ»
 00AA64 D9C5E2C5E3404040_          44261              WCAPPRT  SCKW  RESET,WCAPRES,A
 00AA8C 4040404040404040_          44276                       SCKW  ,V(COLLPSH),PUSH
 00AAB4 4040404040404040_          44291                       SCKW  ,V(SCNINVAL)
                                   44306
 00AADC 50E0 D000/9008_      00000 44307              WCAPRES  PROC
 USING  *,R7
 00AAF6 D204 7034 B3B4 0AB2A 003B4 44346                       MVC   WCAPACCT,CPSACCT    Our account
 00AAFC 58F0 C718            00718 44347                       L     R15,CVASCBP
 00AB00 D207 7042 F040 0AB38 00040 44348                       WITH  (ASCB,R15),'MVC WCAPTOTC,ASCBEJST'  Total CPU
 USING  ASCB,R15
 DROP   ASCB,R15
 00AB06 D203 704A C700 0AB40 00700 44372                       MVC   WCAPCPU,CVTIME      Billed CPU
 00AB0C B205 703A      0AB30       44373                       STCK  WCAPSCLK            Now
 00AB10 4110 734D/4100_      0AE43 44374                       SETMSG 'Done.'
 00AB18 47F0 C7D0            007D0 44378                       B     CVNXTMSG
 00AB1C 18D8/9808 D004_            44379                       PEND
 DROP   *,R7
                                   44399
 00AB2A 0000000000                 44400              WCAPACCT DC    XL5'00'             Account
 00AB2F 00
 00AB30 0000000000000000           44401              WCAPSCLK DC    D'0'                Time/date at start
 00AB38 0000000000000000           44402              WCAPTOTC DC    D'0'                Total CPU when restarted
 00AB40 00000000                   44403              WCAPCPU  DC    F'0'                Billed CPU when restarted
                                   44404
                                   44405                       AGO   .ENDWCAP
                                   44406              .ENDWCAP ANOP  ,
1MODE     (MODE4072) (12:48) (15MAR04) SHOW WINFO Command                                                                   Page  110
0Current Usings:  (CP,R11) (CV,R12)
0Loc    Object Code    Addr1 Addr2  Stmt Lv Lineno    Source Statement           (Hibal 5, Asmedit 3.3)  HLASM R4.0  2004/03/15 12.48
+___    ______ ____    _____ _____  ____ __ ______    ______ _________
0                                  44408              ¿þþþþþþþþþþþþþþþþþþþþþþþþþþþþþþþþþþþþþþþþþþþþþþþþþþþþþþþþþþþþþþþþþþþþþÜ
                                   44409              Ÿ                                                                     Ÿ
                                   44410              Ÿ  SHOWWMAI -- SHOW WMAIL Command.                                    Ÿ
                                   44411              Ÿ                                                                     Ÿ
                                                      ¾þþþþþþþþþþþþþþþþþþþþþþþþþþþþþþþþþþþþþþþþþþþþþþþþþþþþþþþþþþþþþþþþþþþþþ»
000AB44 50E0 D000/9008_      00000 44412              SHOWWMAI PROC
 USING  *,R7
 00AB5E 58E0 7256/0DEE       0ADB4 44451                       VCALL COLLOPTS
                                   44455
 00AB64 4110 C028/4100_      00028 44456                       TSEG  CVWYLSSN,,T
 00AB76 4110 72EA/4100_      0AE48 44484                       TSEG  ' Mail Statistics:'
 00AB88 1B00/41F0 B050_            44502                       TCR
 00AB94 1B00/41F0 B050_            44527                       TCR
                                   44552              *
                                   44553              *
 00ABA0 4110 72FB/4100_      0AE59 44554                       TSEG  'Started at '
 00ABB2 58E0 725E/0DEE       0ADBC 44572                       VCALL LOCALTOD
 00ABB8 1820                       44576                       LR    R2,R0
 00ABBA 1831                       44577                       LR    R3,R1
 00ABBC 9801 C090            00090 44578                       LM    R0,R1,CVSCLCK
 00ABC0 18FD/41D0 D020             44579                       XPUSH ,,30,PTR=R15
 00ABC6 58E0 7262/0DEE       0ADC0 44582                       VCALL FMTRCLCK            "hh:mm" or "hh:mm mm/dd/yyyy"
 00ABCC 41F0 B050/58E0_      00050 44586                       TSEG  (R1),(R0)
 00ABD6 4BD0 727E            0ADDC 44610                       XPOP  ,,30
 00ABDA 1B00/41F0 B050_            44612                       TCR
 00ABE6 1B00/41F0 B050_            44637                       TCR
                                   44662              *
                                   44663              *
 00ABF2 5810 C184/4100_      00184 44664                       TNUM  L:CVMSENT,6
 00AC04 4110 7306/4100_      0AE64 44689                       TSEG  ' mail items sent; breakdown is:',,CR
                                   44707
 00AC16 58F0 C184            00184 44708                       L     R15,CVMSENT
 00AC1A 5BF0 C188            00188 44709                       S     R15,CVMSEND
 00AC1E 5BF0 C19C            0019C 44710                       S     R15,CVMEMS
 00AC22 181F/4100 000C_            44711                       TNUM  (R15),12
 00AC32 4110 7280/4100_      0ADDE 44736                       TSEG  ' were from WYLBUR mail',,CR
                                   44754
 00AC44 5810 C19C/4100_      0019C 44755                       TNUM  L:CVMEMS,12
 00AC56 4110 7296/4100_      0ADF4 44780                       TSEG  ' were from EMS',,CR
                                   44798
 00AC68 5810 C188/4100_      00188 44799                       TNUM  L:CVMSEND,12
 00AC7A 4110 7325/4100_      0AE83 44824                       TSEG  ' were SEND commands',,CR
 00AC8C 1B00/41F0 B050_            44842                       TCR
                                   44867
 00AC98 5810 C18C/4100_      0018C 44868                       TNUM  L:CVMBIT,12
 00ACAA 4110 72A4/4100_      0AE02 44893                       TSEG  ' were to BITNET recipients',,CR
 00ACBC 1B00/41F0 B050_            44911                       TCR
                                   44936              *
                                   44937              *
 00ACC8 5810 C190/4100_      00190 44938                       TNUM  L:CVMSHML,6
 00ACDA 4110 7338/4100_      0AE96 44963                       TSEG  ' SHOW/DUMP MAIL commands; breakdown is:',,CR
                                   44981
 00ACEC 58F0 C190            00190 44982                       L     R15,CVMSHML
1MODE     (MODE4072) (12:48) (15MAR04) SHOW WINFO Command                                                                   Page  111
0Current Usings:  (*,R7) (CP,R11) (CV,R12)
0Loc    Object Code    Addr1 Addr2  Stmt Lv Lineno    Source Statement           (Hibal 5, Asmedit 3.3)  HLASM R4.0  2004/03/15 12.48
+___    ______ ____    _____ _____  ____ __ ______    ______ _________
000ACF0 5BF0 C194            00194 44983                       S     R15,CVMSHMLD
 00ACF4 181F/4100 000C_            44984                       TNUM  (R15),12
 00AD04 4110 71F2/4100_      0AD50 45009                       TSEG  ' were SHOW MAIL commands',,CR
                                   45027
 00AD16 5810 C194/4100_      00194 45028                       TNUM  L:CVMSHMLD,12
 00AD28 4110 720A/4100_      0AD68 45053                       TSEG  ' were DUMP MAIL commands',,CR
                                   45071
 00AD3A 47F0 C7DE            007DE 45072                       B     CVNEXT
 00AD3E 18D8/9808 D004_            45073                       PEND
 DROP   *,R7
                                   45093
                                   45094                       QLTORG
1MODE     (MODE4072) (12:48) (15MAR04) SHOW WINFO Command                                                                   Page  112
0Current Usings:  (CP,R11) (CV,R12)
0Loc    Object Code    Addr1 Addr2  Stmt Lv Lineno    Source Statement           (Hibal 5, Asmedit 3.3)  HLASM R4.0  2004/03/15 12.48
+___    ______ ____    _____ _____  ____ __ ______    ______ _________
0                                  45144              ¿þþþþþþþþþþþþþþþþþþþþþþþþþþþþþþþþþþþþþþþþþþþþþþþþþþþþþþþþþþþþþþþþþþþþþÜ
                                   45145              Ÿ                                                                     Ÿ
                                   45146              Ÿ  SETWREL -- SET WRELOAD/WNORELOAD Commands (Priv'd).                Ÿ
                                   45147              Ÿ                                                                     Ÿ
                                                      ¾þþþþþþþþþþþþþþþþþþþþþþþþþþþþþþþþþþþþþþþþþþþþþþþþþþþþþþþþþþþþþþþþþþþþþ»
000AEBE 50E0 D000/9008_      00000 45148              SETWREL  PROC
 USING  *,R7
 00AED8 9120 B3BE/4710_003BE       45187                       IF    ~CPSFSPR,'VCALL NOTVALID'  Not priv'd, sorry
                                   45211
 00AEE6 9620 C4C4      004C4       45212                       SET   CVFRLOAD
 00AEEA D502 7474 BD24_0B34C 00D24 45218                       IF    (CPCMNM,EQ,'WNO'),'CLEAR CVFRLOAD'  No reload
 00AEF8 47F0 C7DE            007DE 45247                       B     CVNEXT
 00AEFC 18D8/9808 D004_            45248                       PEND
 DROP   *,R7
-                                  45269              ¿þþþþþþþþþþþþþþþþþþþþþþþþþþþþþþþþþþþþþþþþþþþþþþþþþþþþþþþþþþþþþþþþþþþþþÜ
                                   45270              Ÿ                                                                     Ÿ
                                   45271              Ÿ  SETWTRC -- SET WTRACE/WNOTRACE Commands (Priv'd).                  Ÿ
                                   45272              Ÿ                                                                     Ÿ
                                                      ¾þþþþþþþþþþþþþþþþþþþþþþþþþþþþþþþþþþþþþþþþþþþþþþþþþþþþþþþþþþþþþþþþþþþþþ»
000AF0A 50E0 D000/9008_      00000 45273              SETWTRC  PROC
 USING  *,R7
 00AF24 9120 B3BE/4710_003BE       45312                       IF    ~CPSFSPR,'VCALL NOTVALID'  Not priv'd, sorry
                                   45336
 00AF32 940F C751      00751       45337                       SET   CVENTON
 00AF36 D502 7428 BD24_0B34C 00D24 45343                       IF    (CPCMNM,EQ,'WNO'),'SET CVENTOFF'  No tracing
 00AF44 47F0 C7DE            007DE 45371                       B     CVNEXT
 00AF48 18D8/9808 D004_            45372                       PEND
 DROP   *,R7
-                                  45393              ¿þþþþþþþþþþþþþþþþþþþþþþþþþþþþþþþþþþþþþþþþþþþþþþþþþþþþþþþþþþþþþþþþþþþþþÜ
                                   45394              Ÿ                                                                     Ÿ
                                   45395              Ÿ  SETWROT -- SET WROTATE/WNOROTATE Commands (Priv'd).                Ÿ
                                   45396              Ÿ                                                                     Ÿ
                                                      ¾þþþþþþþþþþþþþþþþþþþþþþþþþþþþþþþþþþþþþþþþþþþþþþþþþþþþþþþþþþþþþþþþþþþþþ»
000AF56 50E0 D000/9008_      00000 45397              SETWROT  PROC
 USING  *,R7
 00AF70 9120 B3BE/4710_003BE       45436                       IF    ~CPSFSPR,'VCALL NOTVALID'  Not priv'd, sorry
                                   45460
 00AF7E 94BF C4C4      004C4       45461                       CLEAR CVFPGROT
 00AF82 4110 73DF/4100_      0B34F 45468                       ERROR 'WROTATE cleared.  WROTATE currently bombs wylbur.'
 00AF8E 47F0 C7DE            007DE 45475                       B     CVNEXT
 00AF92 18D8/9808 D004_            45476                       PEND
 DROP   *,R7
-                                  45497              ¿þþþþþþþþþþþþþþþþþþþþþþþþþþþþþþþþþþþþþþþþþþþþþþþþþþþþþþþþþþþþþþþþþþþþþÜ
                                   45498              Ÿ                                                                     Ÿ
                                   45499              Ÿ  SETRACF -- SET RACF/NORACF Commands (Priv'd).                      Ÿ
1MODE     (MODE4072) (12:48) (15MAR04) SHOW WINFO Command                                                                   Page  113
0Current Usings:  (CP,R11) (CV,R12)
0Loc    Object Code    Addr1 Addr2  Stmt Lv Lineno    Source Statement           (Hibal 5, Asmedit 3.3)  HLASM R4.0  2004/03/15 12.48
+___    ______ ____    _____ _____  ____ __ ______    ______ _________
0                                  45500              Ÿ     This is a temporary command used to enable or disable           Ÿ
                                   45501              Ÿ     the RACF interface in Wylbur.                                   Ÿ
                                   45502              Ÿ                                                                     Ÿ
                                                      ¾þþþþþþþþþþþþþþþþþþþþþþþþþþþþþþþþþþþþþþþþþþþþþþþþþþþþþþþþþþþþþþþþþþþþþ»
000AFA0 50E0 D000/9008_      00000 45503              SETRACF  PROC
 USING  *,R7
 00AFBA 9120 B3BE/4710_003BE       45542                       IF    ~CPSFSPR,'VCALL NOTVALID'  Not priv'd, sorry
                                   45566
 00AFC8 94BF C4C6      004C6       45567                       CLEAR CVFNORACF
 00AFCC D502 7392 BD24_0B34C 00D24 45574                       IF    (CPCMNM,EQ,'WNO'),'SET CVFNORACF'  NO RACF
 00AFDA 47F0 C7DE            007DE 45602                       B     CVNEXT
 00AFDE 18D8/9808 D004_            45603                       PEND
 DROP   *,R7
-                                  45624              ¿þþþþþþþþþþþþþþþþþþþþþþþþþþþþþþþþþþþþþþþþþþþþþþþþþþþþþþþþþþþþþþþþþþþþþÜ
                                   45625              Ÿ                                                                     Ÿ
                                   45626              Ÿ  SETWTASK -- SET WTASK/WNOTASK Commands (Priv'd).                   Ÿ
                                   45627              Ÿ                                                                     Ÿ
                                                      ¾þþþþþþþþþþþþþþþþþþþþþþþþþþþþþþþþþþþþþþþþþþþþþþþþþþþþþþþþþþþþþþþþþþþþþ»
000AFEC 50E0 D000/9008_      00000 45628              SETWTASK PROC
 USING  *,R7
 00B006 9120 B3BE/4710_003BE       45667                       IF    ~CPSFSPR,'VCALL NOTVALID'  Not priv'd, sorry
                                   45691
 00B014 94F7 C4C4      004C4       45692                       CLEAR CVFNDSUB
 00B018 D502 7346 BD24_0B34C 00D24 45699                       IF    (CPCMNM,EQ,'WNO'),'SET CVFNDSUB'  No subtasking
 00B026 47F0 C7DE            007DE 45727                       B     CVNEXT
 00B02A 18D8/9808 D004_            45728                       PEND
 DROP   *,R7
1MODE     (MODE4072) (12:48) (15MAR04) SHOW WINFO Command                                                                   Page  114
0Current Usings:  (CP,R11) (CV,R12)
0Loc    Object Code    Addr1 Addr2  Stmt Lv Lineno    Source Statement           (Hibal 5, Asmedit 3.3)  HLASM R4.0  2004/03/15 12.48
+___    ______ ____    _____ _____  ____ __ ______    ______ _________
0000000                00000 00001 45749              WACCWA   RECORD BEGIN
 000000 00                         45757  1           WACCMACH   FLAG  ,                   ** Must match CVMACH/USEMACH defn
 WACCMACH.WACCFSYS 80 ONES         45761  1                      FLAG  WACCFSYSA           - SYSA access allowed
 WACCMACH.WACCFSYS 40 ONES         45766  1                      FLAG  WACCFSYSB           - SYSB access allowed
 WACCMACH.WACCFSYS 20 ONES         45771  1                      FLAG  WACCFSYSC           - SYSC access allowed
 WACCMACH.WACCFSYS 10 ONES         45776  1                      FLAG  WACCFSYSD           - SYSD access allowed
 WACCMACH.WACCFSYS 08 ONES         45781  1                      FLAG  WACCFSYSE           - SYSH access allowed
 WACCMACH.WACCFSYS 04 ONES         45786  1                      FLAG  WACCFSYSF           - SYSF access allowed
 WACCMACH.WACCFSYS 02 ONES         45791  1                      FLAG  WACCFSYSG           - SYSG access allowed
 000001                00001 00001 45796                       END
-                                  45806              ¿þþþþþþþþþþþþþþþþþþþþþþþþþþþþþþþþþþþþþþþþþþþþþþþþþþþþþþþþþþþþþþþþþþþþþÜ
                                   45807              Ÿ                                                                     Ÿ
                                   45808              Ÿ  SETWMACH -- SET WMACHINE Command (Priv'd).                         Ÿ
                                   45809              Ÿ                                                                     Ÿ
                                                      ¾þþþþþþþþþþþþþþþþþþþþþþþþþþþþþþþþþþþþþþþþþþþþþþþþþþþþþþþþþþþþþþþþþþþþþ»
000B038 50E0 D000/9008_      00000 45810              SETWMACH PROC  WACCWA
 USING  *,R7
 USING  WACCWA-(4+36),R8
 00B052 4160 8028            00000 45860                       LA    R6,WACCWA
 USING  WACCWA,R6                  45861                       USING WACCWA,R6
 00B056 9200 6000      00000       45870                       CLEAR WACCWA
                                   45877
 00B05A 5810 B08C/1B00_      0008C 45878                       SCAN  WACCPRT             Scan for allowable machines
 00B0AC 58E0 72E2/0DEE       0B334 45910                       SCANCHK
                                   45915
 00B0B2 D200 C067 6000 00067 00000 45916                       MVC   CVMACH,WACCMACH     Update CVMACH mask
 00B0B8 41F0 0001/4AF0_      00001 45917                       INCR  R15,CVCHKUC         Force checkpoint I/O
                                   45923
 00B0C4 47F0 C7DE            007DE 45924                       B     CVNEXT
 00B0C8 18D8/9808 D004_            45925                       PEND
 DROP   WACCWA-(4+36),R8
 DROP   *,R7
-                                  45951              ***
                                   45952              ***  SET WMACHINE machine
                                   45953              ***
 00B0D8 E2E8E2C140404040_          45954              WACCPRT  OPTION SYSA,SET,,WACCFSYSA
 00B100 E2E8E2C240404040_          45973                       OPTION SYSB,SET,,WACCFSYSB
 00B128 E2E8E2C340404040_          45992                       OPTION SYSC,SET,,WACCFSYSC
 00B150 E2E8E2C440404040_          46011                       OPTION SYSD,SET,,WACCFSYSD
 00B178 E2E8E2C840404040_          46030                       OPTION SYSH,SET,,WACCFSYSE
 00B1A0 E2E8E2C640404040_          46049                       OPTION SYSF,SET,,WACCFSYSF
 00B1C8 E2E8E2C740404040_          46068                       OPTION SYSG,SET,,WACCFSYSG
 00B1F0 4040404040404040_          46087                       SCKW  ,V(NOTVALID)
                                   46102
 DROP   WACCWA,R6                  46103                       DROP  R6
                                   46110              *
                                   46111              ¿þþþþþþþþþþþþþþþþþþþþþþþþþþþþþþþþþþþþþþþþþþþþþþþþþþþþþþþþþþþþþþþþþþþþþÜ
                                   46112              Ÿ                                                                     Ÿ
                                   46113              Ÿ  SHOWWMAC -- SHOW WMACHINE Command (Priv'd).                        Ÿ
1MODE     (MODE4072) (12:48) (15MAR04) SHOW WINFO Command                                                                   Page  115
0Current Usings:  (CP,R11) (CV,R12)
0Loc    Object Code    Addr1 Addr2  Stmt Lv Lineno    Source Statement           (Hibal 5, Asmedit 3.3)  HLASM R4.0  2004/03/15 12.48
+___    ______ ____    _____ _____  ____ __ ______    ______ _________
0                                  46114              Ÿ                                                                     Ÿ
                                                      ¾þþþþþþþþþþþþþþþþþþþþþþþþþþþþþþþþþþþþþþþþþþþþþþþþþþþþþþþþþþþþþþþþþþþþþ»
000B218 50E0 D000/9008_      00000 46115              SHOWWMAC PROC
 USING  *,R7
 00B232 58E0 7106/0DEE       0B338 46154                       VCALL COLLOPTS
                                   46158
 00B238 9500 C067/4770_00067       46159                       IF    (CVMACH,Z),BEGIN
 00B240 4110 714E/4100_      0B380 46175  1                      SETMSG 'No machine set (try SET WMACHINE SYSA).'
 00B248 47F0 C7D0            007D0 46179  1                      B     CVNXTMSG
 00B24C                            46180                       END
                                   46184
 00B24C 4110 7110/4100_      0B342 46185                       TSEG  'Machine is'
 00B25E 9180 C067/47E0_00067       46203                       IF    CVFSYSA,'TSEG " SYSA"'
 00B278 9140 C067/47E0_00067       46241                       IF    CVFSYSB,'TSEG " SYSB"'
 00B292 9120 C067/47E0_00067       46279                       IF    CVFSYSC,'TSEG " SYSC"'
 00B2AC 9110 C067/47E0_00067       46317                       IF    CVFSYSD,'TSEG " SYSD"'
 00B2C6 9108 C067/47E0_00067       46355                       IF    CVFSYSE,'TSEG " SYSH"'
 00B2E0 9104 C067/47E0_00067       46393                       IF    CVFSYSF,'TSEG " SYSF"'
 00B2FA 9102 C067/47E0_00067       46431                       IF    CVFSYSG,'TSEG " SYSG"'
 00B314 47F0 C7DE            007DE 46469                       B     CVNEXT
 00B318 18D8/9808 D004_            46470                       PEND
 DROP   *,R7
                                   46490
                                   46491                       QLTORG
1MODE     (MODE4072) (12:48) (15MAR04) SHOW WINFO Command                                                                   Page  116
0Current Usings:  (CP,R11) (CV,R12)
0Loc    Object Code    Addr1 Addr2  Stmt Lv Lineno    Source Statement           (Hibal 5, Asmedit 3.3)  HLASM R4.0  2004/03/15 12.48
+___    ______ ____    _____ _____  ____ __ ______    ______ _________
0                                  46522              ¿þþþþþþþþþþþþþþþþþþþþþþþþþþþþþþþþþþþþþþþþþþþþþþþþþþþþþþþþþþþþþþþþþþþþþÜ
                                   46523              Ÿ                                                                     Ÿ
                                   46524              Ÿ  SETWFACT -- SET WFACTOR Command (Priv'd).                          Ÿ
                                   46525              Ÿ                                                                     Ÿ
                                                      ¾þþþþþþþþþþþþþþþþþþþþþþþþþþþþþþþþþþþþþþþþþþþþþþþþþþþþþþþþþþþþþþþþþþþþþ»
000B3CA 50E0 D000/9008_      00000 46526              SETWFACT PROC
 USING  *,R7
 00B3E4 9120 B3BE/4710_003BE       46565                       IF    ~CPSFSPR,'VCALL NOTVALID'  Not priv'd, sorry
 00B3F2 5900 7468/47D0_      0B84C 46589                       IF    (R0,GT,=A(50*1000)),BEGIN
 00B3FA 4110 7490/4100_      0B874 46605  1                      ABORT 'CPU multiplier is too big!'
 00B406                            46612                       END
                                   46616
 00B406 5000 CDFC            00DFC 46617                       ST    R0,CVCPUMUL         CPU multiplication factor
 00B40A 41F0 0001/4AF0_      00001 46618                       INCR  R15,CVCHKUC         Force checkpoint I/O
 00B416 47F0 C7DE            007DE 46624                       B     CVNEXT
 00B41A 18D8/9808 D004_            46625                       PEND
 DROP   *,R7
-                                  46646              ¿þþþþþþþþþþþþþþþþþþþþþþþþþþþþþþþþþþþþþþþþþþþþþþþþþþþþþþþþþþþþþþþþþþþþþÜ
                                   46647              Ÿ                                                                     Ÿ
                                   46648              Ÿ  SHOWWFAC -- SHOW WFACTOR Command.                                  Ÿ
                                   46649              Ÿ                                                                     Ÿ
                                                      ¾þþþþþþþþþþþþþþþþþþþþþþþþþþþþþþþþþþþþþþþþþþþþþþþþþþþþþþþþþþþþþþþþþþþþþ»
000B428 50E0 D000/9008_      00000 46650              SHOWWFAC PROC
 USING  *,R7
 00B442 58E0 740E/0DEE       0B850 46689                       VCALL COLLOPTS
                                   46693
 00B448 D603 CDFC CDFC_00DFC 00DFC 46694                       IF    (CVCPUMUL,Z),BEGIN
 00B452 4110 744C/4100_      0B88E 46710  1                      SETMSG 'No CPU multiplier.'
 00B45A 47F0 C7D0            007D0 46714  1                      B     CVNXTMSG
 00B45E                            46715                       END
                                   46719
 00B45E 4110 7484/4100_      0B8C6 46720                       TSEG  'CPU multiplication factor is '
 00B470 5800 CDFC            00DFC 46738                       L     R0,CVCPUMUL
 00B474 58E0 7416/0DEE       0B858 46739                       VCALL CVEXNO
 00B47A 41F0 B050/58E0_      00050 46743                       TSEG  (R1),(R0)
 00B484 47F0 C7DE            007DE 46767                       B     CVNEXT
 00B488 18D8/9808 D004_            46768                       PEND
 DROP   *,R7
1MODE     (MODE4072) (12:48) (15MAR04) SHOW WINFO Command                                                                   Page  117
0Current Usings:  (CP,R11) (CV,R12)
0Loc    Object Code    Addr1 Addr2  Stmt Lv Lineno    Source Statement           (Hibal 5, Asmedit 3.3)  HLASM R4.0  2004/03/15 12.48
+___    ______ ____    _____ _____  ____ __ ______    ______ _________
0                                  46789              ¿þþþþþþþþþþþþþþþþþþþþþþþþþþþþþþþþþþþþþþþþþþþþþþþþþþþþþþþþþþþþþþþþþþþþþÜ
                                   46790              Ÿ                                                                     Ÿ
                                   46791              Ÿ  SETWFDEF - SET WYLBUR FILE SYSTEM DEFAULT                          Ÿ
                                   46792              Ÿ                                                                     Ÿ
                                                      ¾þþþþþþþþþþþþþþþþþþþþþþþþþþþþþþþþþþþþþþþþþþþþþþþþþþþþþþþþþþþþþþþþþþþþþ»
000B496 50E0 D000/9008_      00000 46793              SETWFDEF PROC
 USING  *,R7
 00B4B0 9120 B3BE/4710_003BE       46832                       IF    ~CPSFSPR,'VCALL NOTVALID'  Not priv'd, sorry
                                   46856
 00B4BE 5810 B08C/1B00_      0008C 46857                       SCAN  SWFDPRT
 00B510 58E0 73B4/0DEE       0B864 46889                       SCANCHK
                                   46894
 00B516 58E0 73B8/0DEE       0B868 46895                       ACALL SHOWWFD
                                   46899
 00B51C 47F0 C7DE            007DE 46900                       B     CVNEXT
 00B520 18D8/9808 D004_            46901                       PEND
 DROP   *,R7
                                   46921              *
                                   46922              *
 00B530 4040404040404040_          46923              SWFDPRT  SCKW  ,SWFDNULL,NULL
 00B558 E6C9D5C7E2404040_          46938                       OPTION WINGS,SET,,CVFWINGS,CVFOLDIBM
 00B580 D6D3C4C9C2D44040_          46963                       OPTION OLDIBM,SET,,CVFOLDIBM,CVFWINGS
 00B5A8 4040404040404040_          46988                       SCKW  ,V(NOTVALID)
                                   47003
 00B5D0 50E0 D000/9008_      00000 47004              SWFDNULL PROC
 USING  *,R7
 00B5EA 4110 72F9/4100_      0B8E3 47043                       ERROR 'Missing file system type.'
 00B5F6 18D8/9808 D004_            47050                       PEND
 DROP   *,R7
1MODE     (MODE4072) (12:48) (15MAR04) SHOW WINFO Command                                                                   Page  118
0Current Usings:  (CP,R11) (CV,R12)
0Loc    Object Code    Addr1 Addr2  Stmt Lv Lineno    Source Statement           (Hibal 5, Asmedit 3.3)  HLASM R4.0  2004/03/15 12.48
+___    ______ ____    _____ _____  ____ __ ______    ______ _________
0                                  47071              ¿þþþþþþþþþþþþþþþþþþþþþþþþþþþþþþþþþþþþþþþþþþþþþþþþþþþþþþþþþþþþþþþþþþþþþÜ
                                   47072              Ÿ                                                                     Ÿ
                                   47073              Ÿ  SHOWWFD - SHOW WYLBUR FILE SYSTEM DEFAULT                          Ÿ
                                   47074              Ÿ                                                                     Ÿ
                                                      ¾þþþþþþþþþþþþþþþþþþþþþþþþþþþþþþþþþþþþþþþþþþþþþþþþþþþþþþþþþþþþþþþþþþþþþ»
000B604 50E0 D000/9008_      00000 47075              SHOWWFD  PROC
 USING  *,R7
 00B61E 4110 7284/4100_      0B8A2 47114                       TSEG  'Wylbur default file system is '
                                   47132
 00B630 9120 C4C8/47E0_004C8       47133                       IF    CVFWINGS,BEGIN
 00B638 4110 72A2/4100_      0B8C0 47148  1                      SETMSG 'Wings.'
 00B640                            47152                       END
 00B640 9110 C4C8/47E0_004C8       47156                       IF    CVFOLDIBM,BEGIN
 00B648 4110 72DE/4100_      0B8FC 47171  1                      SETMSG 'OLDIBM.'
 00B650                            47175                       END
 00B650 9110 C4C8/4710_004C8       47179                       IF    (~CVFOLDIBM,AND,~CVFWINGS),BEGIN
 00B660 4110 72DE/4100_      0B8FC 47208  1                      SETMSG 'OLDIBM.'
 00B668                            47212                       END
 00B668 41F0 B050/58E0_      00050 47216                       TSEG  (R1),(R0)
                                   47240
 00B672 47F0 C7DE            007DE 47241                       B     CVNEXT
                                   47242
 00B676 18D8/9808 D004_            47243                       PEND
 DROP   *,R7
1MODE     (MODE4072) (12:48) (15MAR04) SHOW WINFO Command                                                                   Page  119
0Current Usings:  (CP,R11) (CV,R12)
0Loc    Object Code    Addr1 Addr2  Stmt Lv Lineno    Source Statement           (Hibal 5, Asmedit 3.3)  HLASM R4.0  2004/03/15 12.48
+___    ______ ____    _____ _____  ____ __ ______    ______ _________
0                                  47264              ¿þþþþþþþþþþþþþþþþþþþþþþþþþþþþþþþþþþþþþþþþþþþþþþþþþþþþþþþþþþþþþþþþþþþþþÜ
                                   47265              Ÿ                                                                     Ÿ
                                   47266              Ÿ  SETWFPAT - SET WYLBUR DEFAULT WINGS PATH NAME                      Ÿ
                                   47267              Ÿ                                                                     Ÿ
                                                      ¾þþþþþþþþþþþþþþþþþþþþþþþþþþþþþþþþþþþþþþþþþþþþþþþþþþþþþþþþþþþþþþþþþþþþþ»
000B684 50E0 D000/9008_      00000 47268              SETWFPAT PROC
 USING  *,R7
 00B69E 9120 B3BE/4710_003BE       47307                       IF    ~CPSFSPR,'VCALL NOTVALID'  Not priv'd, sorry
                                   47331
 00B6AC 5810 B08C/1B00_      0008C 47332                       SCAN  SWFPPRT
 00B6FE 58E0 71C6/0DEE       0B864 47364                       SCANCHK
                                   47369
 00B704 47F0 C7DE            007DE 47370                       B     CVNEXT
 00B708 18D8/9808 D004_            47371                       PEND
 DROP   *,R7
                                   47391              *
                                   47392              *
 00B718 4040404040404040_          47393              SWFPPRT  SCKW  ,SWFPNULL,NULL
 00B740 4040404040404040_          47408                       SCKW  ,SWFPNAME
                                   47423
 00B768 50E0 D000/9008_      00000 47424              SWFPNULL PROC
 USING  *,R7
 00B782 D207 C244 70B6 00244 0B838 47463                       MVC   CVWPATH,=CL8'WINGSV00'
 00B788 18D8/9808 D004_            47464                       PEND
 DROP   *,R7
                                   47484
 00B796 50E0 D000/9008_      00000 47485              SWFPNAME PROC
 USING  *,R7
 00B7B0 58F0 B08C/4110_      0008C 47524                       SCUPCASE CVWPATH
 00B7C2 18D8/9808 D004_            47545                       PEND
 DROP   *,R7
1MODE     (MODE4072) (12:48) (15MAR04) SHOW WINFO Command                                                                   Page  120
0Current Usings:  (CP,R11) (CV,R12)
0Loc    Object Code    Addr1 Addr2  Stmt Lv Lineno    Source Statement           (Hibal 5, Asmedit 3.3)  HLASM R4.0  2004/03/15 12.48
+___    ______ ____    _____ _____  ____ __ ______    ______ _________
0                                  47566              ¿þþþþþþþþþþþþþþþþþþþþþþþþþþþþþþþþþþþþþþþþþþþþþþþþþþþþþþþþþþþþþþþþþþþþþÜ
                                   47567              Ÿ                                                                     Ÿ
                                   47568              Ÿ SHOWWFPA - SHOW WFPATH, WINGS PATH                                  Ÿ
                                   47569              Ÿ                                                                     Ÿ
                                   47570              Ÿ                                                                     Ÿ
                                                      ¾þþþþþþþþþþþþþþþþþþþþþþþþþþþþþþþþþþþþþþþþþþþþþþþþþþþþþþþþþþþþþþþþþþþþþ»
000B7D0 50E0 D000/9008_      00000 47571              SHOWWFPA PROC
 USING  *,R7
 00B7EA D507 7046 C244_0B830 00244 47610                       IF    (CVWPATH,EQ,0),BEGIN
 00B7F4 4110 7056/4100_      0B840 47628  1                      TSEG  'WINGSV00'
 00B806                            47646                       END
 00B806 7020/47F0 7032 0B806 0B7F2 47650                       ELSE  BEGIN
 00B80A 4110 C244/4100_      00244 47661  1                      TSEG  CVWPATH
 00B81C                            47689                       END
                                   47693
 00B81C 47F0 C7DE            007DE 47694                       B     CVNEXT
                                   47695
 00B820 18D8/9808 D004_            47696                       PEND
 DROP   *,R7
-                                  47717                       QLTORG ,
1MODE     (MODE4072) (12:48) (15MAR04) SHOW WINFO Command                                                                   Page  121
0Current Usings:  (CP,R11) (CV,R12)
0Loc    Object Code    Addr1 Addr2  Stmt Lv Lineno    Source Statement           (Hibal 5, Asmedit 3.3)  HLASM R4.0  2004/03/15 12.48
+___    ______ ____    _____ _____  ____ __ ______    ______ _________
0                                  47752              ¿þþþþþþþþþþþþþþþþþþþþþþþþþþþþþþþþþþþþþþþþþþþþþþþþþþþþþþþþþþþþþþþþþþþþþÜ
                                   47753              Ÿ                                                                     Ÿ
                                   47754              Ÿ  SET FNOTIMEOUT - DO NOT LET WINGS TIMEOUT,                         Ÿ
                                   47755              Ÿ                                                                     Ÿ
                                   47756              Ÿ  THIS IS A PATCH FOR TESTING WINGS FOR PJ, CH, NIZ                  Ÿ
                                   47757              Ÿ  ETC.                                                               Ÿ
                                   47758              Ÿ                                                                     Ÿ
                                                      ¾þþþþþþþþþþþþþþþþþþþþþþþþþþþþþþþþþþþþþþþþþþþþþþþþþþþþþþþþþþþþþþþþþþþþþ»
000B904 50E0 D000/9008_      00000 47759              SETFNTMO PROC
 USING  *,R7
 00B91E 9120 B3BE/4710_003BE       47798                       IF    ~CPSFSPR,'VCALL NOTVALID'  Not priv'd, sorry
 00B92C 9620 B47F      0047F       47822                       SET   CPFNTMO
 00B930 47F0 C7DE            007DE 47828                       B     CVNEXT
 00B934 18D8/9808 D004_            47829                       PEND
 DROP   *,R7
                                   47849              *
                                   47850              ¿þþþþþþþþþþþþþþþþþþþþþþþþþþþþþþþþþþþþþþþþþþþþþþþþþþþþþþþþþþþþþþþþþþþþþÜ
                                   47851              Ÿ                                                                     Ÿ
                                   47852              Ÿ  SET FTIMEOUT - LET WINGS TIMEOUT,  THE NORM                        Ÿ
                                   47853              Ÿ                                                                     Ÿ
                                   47854              Ÿ  THIS IS A PATCH FOR TESTING WINGS FOR PJ, CH, NIZ                  Ÿ
                                   47855              Ÿ  ETC.                                                               Ÿ
                                   47856              Ÿ                                                                     Ÿ
                                                      ¾þþþþþþþþþþþþþþþþþþþþþþþþþþþþþþþþþþþþþþþþþþþþþþþþþþþþþþþþþþþþþþþþþþþþþ»
000B942 50E0 D000/9008_      00000 47857              SETFTMO  PROC
 USING  *,R7
 00B95C 9120 B3BE/4710_003BE       47896                       IF    ~CPSFSPR,'VCALL NOTVALID'  Not priv'd, sorry
 00B96A 94DF B47F      0047F       47920                       CLEAR CPFNTMO
 00B96E 47F0 C7DE            007DE 47927                       B     CVNEXT
 00B972 18D8/9808 D004_            47928                       PEND
 DROP   *,R7
1MODE     (MODE4072) (12:48) (15MAR04) SHOW WINFO Command                                                                   Page  122
0Current Usings:  (CP,R11) (CV,R12)
0Loc    Object Code    Addr1 Addr2  Stmt Lv Lineno    Source Statement           (Hibal 5, Asmedit 3.3)  HLASM R4.0  2004/03/15 12.48
+___    ______ ____    _____ _____  ____ __ ______    ______ _________
0                                  47949              ¿þþþþþþþþþþþþþþþþþþþþþþþþþþþþþþþþþþþþþþþþþþþþþþþþþþþþþþþþþþþþþþþþþþþþþÜ
                                   47950              Ÿ                                                                     Ÿ
                                   47951              Ÿ  SETWPGS -- SET WPAGES Command (Priv'd).                            Ÿ
                                   47952              Ÿ                                                                     Ÿ
                                                      ¾þþþþþþþþþþþþþþþþþþþþþþþþþþþþþþþþþþþþþþþþþþþþþþþþþþþþþþþþþþþþþþþþþþþþþ»
0000000                00000 00020 47953              WPGWA    RECORD BEGIN
 000000 00                         47961  1           WPGFLAG    FLAG
 WPGFLAG.WPGFREAL  80 ONES         47965  1                      FLAG  WPGFREAL            - Page fix page buffers
 WPGFLAG.WPGFVIRT  40 ONES         47970  1                      FLAG  WPGFVIRT            - Don't page fix page buffers
 WPGFLAG.WPGFAUTO  20 ONES         47975  1                      FLAG  WPGFAUTO            - Auto switch between real/virt
 000002                            47980  1           WPGHI      DS    H                   High paging rate
 000004                            47981  1           WPGLO      DS    H                   Low paging rate
 000006                            47982  1           WPGMEG     DS    H                   If tot mach is <= megs then small
 000008                            47983  1           WPGLMIN    DS    H                   Large config: min pages allowed
 00000A                            47984  1           WPGLMAX    DS    H                   Large config: max pages allowed
 00000C                            47985  1           WPGSMIN    DS    H                   Small config: min pages allowed
 00000E                            47986  1           WPGSMAX    DS    H                   Small config: max pages allowed
 000010                            47987  1           WPGSECS    DS    H                   Seconds between adjustments
 000012                            47988  1           WPGNEW     DS    H                   Current number of pages
                                   47989  1
 000018                            47990  1           WPGWORK    DS    D                   Working area (for formatting)
 000020                00020 00020 47991                       END
                                   48000              þþþþ
 00B980 50E0 D000/9008_      00000 48001              SETWPGS  PROC  WPGWA
 USING  *,R7
 USING  WPGWA-(4+36),R8
 00B99A 4160 8028            00000 48051                       LA    R6,WPGWA
 USING  WPGWA,R6                   48052                       USING WPGWA,R6
 00B99E D71F 6000 6000 00000 00000 48061                       CLEAR WPGWA
                                   48068
 00B9A4 9130 B3BE/4770_003BE       48069                       IF    (CPSFSPR+CPSFOPR,Z),'VCALL NOTVALID'  Not priv'd
                                   48098                       ¿þþþþþþþþþþþþþþþþþþþþþþþþþþþþþþþþþþþÜ
                                   48099                       Ÿ  Start off with existing values.  Ÿ
                                   48100                       ¾þþþþþþþþþþþþþþþþþþþþþþþþþþþþþþþþþþþ»
 00B9B2 9180 CA01/47E0_00A01       48101                       IF    CVPGFREAL,'SET WPGFREAL'
 00B9BE 9140 CA01/47E0_00A01       48127                       IF    CVPGFVIRT,'SET WPGFVIRT'
 00B9CA 9120 CA01/47E0_00A01       48153                       IF    CVPGFAUTO,'SET WPGFAUTO'
 00B9D6 91E0 6000/4770_00000       48179                       IF    (WPGFREAL+WPGFVIRT+WPGFAUTO,Z),BEGIN
 00B9DE 9660 6000      00000       48203  1                      SET   WPGFAUTO+WPGFVIRT
 00B9E2                            48212                       END
                                   48216
 00B9E2 D201 6002 CA0A 00002 00A0A 48217                       MVC   WPGHI,CVPGHI        High rate
 00B9E8 D201 6004 CA08 00004 00A08 48218                       MVC   WPGLO,CVPGLO        Low rate
 00B9EE D201 6006 CA0C 00006 00A0C 48219                       MVC   WPGMEG,CVPGMEG      Meg (small/large config switch)
 00B9F4 D201 6008 CA04 00008 00A04 48220                       MVC   WPGLMIN,CVPGLMIN    Min pages
 00B9FA D201 600A CA06 0000A 00A06 48221                       MVC   WPGLMAX,CVPGLMAX    Max pages
 00BA00 D201 600C CA0E 0000C 00A0E 48222                       MVC   WPGSMIN,CVPGSMIN    Min pages
 00BA06 D201 600E CA10 0000E 00A10 48223                       MVC   WPGSMAX,CVPGSMAX    Max pages
 00BA0C D201 6010 CA02 00010 00A02 48224                       MVC   WPGSECS,CVPGSECS    Seconds between adjustments
 00BA12 D201 6012 C13E 00012 0013E 48225                       MVC   WPGNEW,CVNPG        Cur pages
1MODE     (MODE4072) (12:48) (15MAR04) SHOW WINFO Command                                                                   Page  123
0Current Usings:  (WPGWA,R6) (*,R7) (WPGWA-(4+36),R8) (CP,R11) (CV,R12)
0Loc    Object Code    Addr1 Addr2  Stmt Lv Lineno    Source Statement           (Hibal 5, Asmedit 3.3)  HLASM R4.0  2004/03/15 12.48
+___    ______ ____    _____ _____  ____ __ ______    ______ _________
0                                  48226                       ¿þþþþþþþþþþþþþþþþþþþÜ
                                   48227                       Ÿ  Get new values.  Ÿ
                                   48228                       ¾þþþþþþþþþþþþþþþþþþþ»
 00BA18 5810 B08C/1B00_      0008C 48229                       SCAN  WPGPRT              Wpages options
 00BA6A 58E0 787A/0DEE       0C214 48261                       SCANCHK
                                   48266                       ¿þþþþþþþþþþþþþþþþþþÜ
                                   48267                       Ÿ  Just checking.  Ÿ
                                   48268                       ¾þþþþþþþþþþþþþþþþþþ»
 00BA70 4850 6012            00012 48269                       LH    R5,WPGNEW           New current
 00BA74 5950 787E/47D0_      0C218 48270                       IF    (R5,GT,4000),BEGIN
 00BA7C 4110 78C8/4100_      0C262 48287  1                      TSEG  'Wow!!  That''s a lot of memory Niz!',,CR
 00BA8E 4110 78EA/4100_      0C284 48305  1                      SETMSG 'Should we go for it'
 00BA96 58E0 7886/0DEE       0C220 48309  1                      VCALL YESREQ
 00BA9C                            48313                       END
                                   48317                       ¿þþþþþþþþþþþþþþþþþþþþþþþþþþþþþþþþþþþþþþþþþÜ
                                   48318                       Ÿ  Update paging performance parameters.  Ÿ
                                   48319                       ¾þþþþþþþþþþþþþþþþþþþþþþþþþþþþþþþþþþþþþþþþþ»
 00BA9C 941F CA01      00A01       48320                       CLEAR CVPGFAUTO+CVPGFREAL+CVPGFVIRT
                                   48334
 00BAA0 9120 6000/47E0_00000       48335                       IF    WPGFAUTO,BEGIN      Automatic real/virtual...
 00BAA8 9620 CA01      00A01       48350  1                      SET   CVPGFAUTO
                                   48356  1                      ¿þþþþþþþþþþþþþþþþþþþþþþþþþþþþþþþþþþþþþþþþþþþþþþþþþþþþþþþþþþÜ
                                   48357  1                      Ÿ  Automatic means:  REAL during DAY and PEAK timeblocks;  Ÿ
                                   48358  1                      Ÿ                    VIRTUAL during other timeblocks       Ÿ
                                   48359  1                      ¾þþþþþþþþþþþþþþþþþþþþþþþþþþþþþþþþþþþþþþþþþþþþþþþþþþþþþþþþþþ»
 00BAAC 4120 0063            00063 48360  1                      LA    R2,99               Assume non-day setting
 00BAB0 9102 C4C5/4710_004C5       48361  1                      IF    ~CVFTEST,BEGIN      Only check for day if prod...
 00BAB8 58F0 0010            00010 48376  2                        L     R15,CVTPTR
 00BABC 58F0 F0CC            000CC 48377  2                        WITH  (CVT,R15),'L R15,CVTUSER'
 USING  CVT,R15
 DROP   CVT,R15
 00BAC0 12FF/4780 713C_            48401  2                        IF    ((R15,NZ),AND,(@R15,EQ,'SCIP')),BEGIN
 00BAD0 1F22/4320 F00F             48430  3                          WITH  (USERCVT,R15),'LC R2,USEBLOCK'  Current time-block
 USING  USERCVT,R15
 DROP   USERCVT,R15
 00BAD6                            48460  2                        END
 00BAD6                            48464  1                      END
                                   48468  1
 00BAD6 1222/4780 714A_            48469  1                      IF    ((R2,Z),OR,(R2,EQ,4)),'SET WPGFREAL'  Day/peak blocks
 00BAE8 7152/47F0 7156_0BAE8 0BAE2 48510  1                      ELSE  'SET WPGFVIRT'      All other blocks
 00BAF0                            48532                       END
                                   48536
 00BAF0 9180 6000/47E0_00000       48537                       IF    WPGFREAL,'SET CVPGFREAL'
 00BAFC 7166/47F0 716A_0BAFC 0BAF6 48563                       ELSE  'SET CVPGFVIRT'
                                   48585
 00BB04 D201 CA0A 6002 00A0A 00002 48586                       MVC   CVPGHI,WPGHI        High rate
 00BB0A D201 CA08 6004 00A08 00004 48587                       MVC   CVPGLO,WPGLO        Low rate
 00BB10 D201 CA0C 6006 00A0C 00006 48588                       MVC   CVPGMEG,WPGMEG      Meg value
 00BB16 D201 CA04 6008 00A04 00008 48589                       MVC   CVPGLMIN,WPGLMIN    Large config: min pages
 00BB1C D201 CA06 600A 00A06 0000A 48590                       MVC   CVPGLMAX,WPGLMAX    Large config: max pages
 00BB22 D201 CA0E 600C 00A0E 0000C 48591                       MVC   CVPGSMIN,WPGSMIN    Small config: min pages
 00BB28 D201 CA10 600E 00A10 0000E 48592                       MVC   CVPGSMAX,WPGSMAX    Small config: max pages
 00BB2E D201 CA02 6010 00A02 00010 48593                       MVC   CVPGSECS,WPGSECS    Seconds between adjustments
                                   48594
1MODE     (MODE4072) (12:48) (15MAR04) SHOW WINFO Command                                                                   Page  124
0Current Usings:  (WPGWA,R6) (*,R7) (WPGWA-(4+36),R8) (CP,R11) (CV,R12)
0Loc    Object Code    Addr1 Addr2  Stmt Lv Lineno    Source Statement           (Hibal 5, Asmedit 3.3)  HLASM R4.0  2004/03/15 12.48
+___    ______ ____    _____ _____  ____ __ ______    ______ _________
000BB34 41F0 0001/4AF0_      00001 48595                       INCR  R15,CVCHKUC         Update the checkpoint record
                                   48601
 00BB40 58E0 7892/0DEE       0C22C 48602                       VCALL CALCPGC             Calculate page min/max values
                                   48606                       ¿þþþþþþþþþþþþþþþþþþþþþþþþþþþþþþþþþþþþþþþþþþþþþþþþþþþÜ
                                   48607                       Ÿ  Increase/decrease the number of pages by slowly  Ÿ
                                   48608                       Ÿ    adding/deleting the number of pages.           Ÿ
                                   48609                       ¾þþþþþþþþþþþþþþþþþþþþþþþþþþþþþþþþþþþþþþþþþþþþþþþþþþþ»
 00BB46 4B50 C13E            0013E 48610                       SH    R5,CVNPG            Signed change in no of pages
 00BB4A 4780 C7DE            007DE 48611                       BZ    CVNEXT              Nothing to do, scram
                                   48612
 00BB4E 1255/47D0 72DA             48613                       IF    (R5,POS),BEGIN      Add page buffers...
                                   48627  1                      ¿þþþþþþþþþþþþþþþþþþþþþÜ
                                   48628  1                      Ÿ  Add page buffers.  Ÿ
                                   48629  1                      ¾þþþþþþþþþþþþþþþþþþþþþ»
 00BB54 4110 78FD/4100_      0C297 48630  1                      TSEG  'Adding pages buffers...'
 00BB66 4810 C13E/4100_      0013E 48648  1                      TNUM  LH:CVNPG,4
 00BB78 4110 783E/4100_      0C1D8 48672  1                      TSEG  ' buffers'
 00BB8A 4110 7846/4100_      0C1E0 48690  1                      TSEG  =8X'16',8           (backspaces)
 00BB9C 41F0 B050/58E0_      00050 48720  1                      TMARK
 00BBA6 1B00/41F0 B050_            48734  1                      TWRITE
                                   48759  1
 00BBB2 1255/47D0 72AA             48760  1                      WHILE (R5,POS),BEGIN      Add a page at a time...
 00BBB8 58E0 78A6/0DEE       0C240 48776  2                        VCALL GETPCB              Add a page
 00BBBE 0650                       48780  2                        DECR  R5
 00BBC0 48F0 C13E/4100_      0013E 48782  2                        BTD   WPGWORK,4,LH:CVNPG
 00BBD2 95F0 601B/4770_0001B       48804  2                        IF    (WPGWORK+3,EQ,'0'),BEGIN
 00BBDA 4110 78AE/4100_      0C248 48821  3                          TSEG  X'16161616'
 00BBEC 4110 6018/4100_      00018 48839  3                          TSEG  WPGWORK,4
 00BBFE 41F0 B050/58E0_      00050 48869  3                          TMARK
 00BC08 1B00/41F0 B050_            48883  3                          TWRITE
                                   48908  3
 00BC14 41F0 0032            00032 48909  3                          LA    R15,50              1/2 second
 00BC18 58E0 78B2/0DEE       0C24C 48910  3                          VCALL WAITER              Wait a bit
 00BC1E                            48914  2                        END
                                   48918  2
 00BC1E 58E0 78B6/0DEE       0C250 48919  2                        TSTAT
 00BC24 4780 72A6/1B00_      0BC40 48924  2                        IF    NZ,'TCR; ABORT "Stopped."'
 00BC40 47F0 7218            0BBB2 48972  1                      END
                                   48977  1
 00BC44 4110 78AE/4100_      0C248 48978  1                      TSEG  X'16161616'
 00BC56 4810 C13E/4100_      0013E 48996  1                      TNUM  LH:CVNPG,4
 00BC68 4110 783E/4100_      0C1D8 49020  1                      SETMSG ' buffers'
 00BC70 47F0 C7D0            007D0 49024  1                      B     CVNXTMSG
 00BC74                            49025                       END
                                   49029                       ¿þþþþþþþþþþþþþþþþþþþþþþþþþþÜ
                                   49030                       Ÿ  Deleting page buffers.  Ÿ
                                   49031                       ¾þþþþþþþþþþþþþþþþþþþþþþþþþþ»
 00BC74 4110 7856/4100_      0C1F0 49032                       TSEG  'Deleting page buffers...'
 00BC86 4810 C13E/4100_      0013E 49050                       TNUM  LH:CVNPG,4
 00BC98 4110 783E/4100_      0C1D8 49074                       TSEG  ' buffers'
 00BCAA 4110 7846/4100_      0C1E0 49092                       TSEG  =8X'16',8           (backspaces)
 00BCBC 41F0 B050/58E0_      00050 49122                       TMARK
 00BCC6 1B00/41F0 B050_            49136                       TWRITE
                                   49161
1MODE     (MODE4072) (12:48) (15MAR04) SHOW WINFO Command                                                                   Page  125
0Current Usings:  (WPGWA,R6) (*,R7) (WPGWA-(4+36),R8) (CP,R11) (CV,R12)
0Loc    Object Code    Addr1 Addr2  Stmt Lv Lineno    Source Statement           (Hibal 5, Asmedit 3.3)  HLASM R4.0  2004/03/15 12.48
+___    ______ ____    _____ _____  ____ __ ______    ______ _________
000BCD2 1055                       49162                       LPR   R5,R5               Number of pages to delete
 00BCD4 1255/47D0 73E4             49163                       WHILE (R5,POS),BEGIN      Delete a page at a time...
 00BCDA 58E0 78BA/0DEE       0C254 49179  1                      VCALL FREEPCB             Free a page
 00BCE0 4780 735A            0BCF4 49183  1                      IF    NZ,BEGIN            No empty pages...
 00BCE4 58E0 78BE/0DEE       0C258 49194  2                        VCALL PGETNEW             Get a new page
 00BCEA 4770 735A/58E0_      0BCF4 49198  2                        IF    Z,'PFREE PAR,EMPTY'  Free it and put page on emptyQ
 00BCF4                            49220  1                      END
 00BCF4 735E/47F0 73E0 0BCF4 0BCE2 49224  1                      ELSE  BEGIN               Deleted...
 00BCF8 0650                       49235  2                        DECR  R5
 00BCFA 48F0 C13E/4100_      0013E 49237  2                        BTD   WPGWORK,4,LH:CVNPG
 00BD0C 95F0 601B/4770_0001B       49259  2                        IF    (WPGWORK+3,EQ,'0'),BEGIN
 00BD14 4110 78AE/4100_      0C248 49276  3                          TSEG  X'16161616'
 00BD26 4110 6018/4100_      00018 49294  3                          TSEG  WPGWORK,4
 00BD38 41F0 B050/58E0_      00050 49324  3                          TMARK
 00BD42 1B00/41F0 B050_            49338  3                          TWRITE
                                   49363  3
 00BD4E 41F0 0032            00032 49364  3                          LA    R15,50              1/2 second
 00BD52 58E0 78B2/0DEE       0C24C 49365  3                          VCALL WAITER              Wait a bit
 00BD58                            49369  2                        END
                                   49373  2
 00BD58 58E0 78B6/0DEE       0C250 49374  2                        TSTAT
 00BD5E 4780 73E0/1B00_      0BD7A 49379  2                        IF    NZ,'TCR; ABORT "Stopped."'
 00BD7A                            49427  1                      END
 00BD7A 47F0 733A            0BCD4 49431                       END
                                   49436
 00BD7E 4110 78AE/4100_      0C248 49437                       TSEG  X'16161616'
 00BD90 4810 C13E/4100_      0013E 49455                       TNUM  LH:CVNPG,4
 00BDA2 4110 783E/4100_      0C1D8 49479                       SETMSG ' buffers'
 00BDAA 47F0 C7D0            007D0 49483                       B     CVNXTMSG
 00BDAE 18D8/9808 D004_            49484                       PEND
 DROP   WPGWA-(4+36),R8
 DROP   *,R7
1MODE     (MODE4072) (12:48) (15MAR04) SHOW WINFO Command                                                                   Page  126
0Current Usings:  (WPGWA,R6) (CP,R11) (CV,R12)
0Loc    Object Code    Addr1 Addr2  Stmt Lv Lineno    Source Statement           (Hibal 5, Asmedit 3.3)  HLASM R4.0  2004/03/15 12.48
+___    ______ ____    _____ _____  ____ __ ______    ______ _________
0                                  49510              ***
                                   49511              ***  SET WPAGES Options.
                                   49512              ***
 00BDBC D9C5C1D340404040_          49513              WPGPRT   OPTION REAL,SET,A,WPGFREAL,WPGFVIRT+WPGFAUTO
 00BDE4 E5C9D9E3E4C1D340_          49541                       OPTION VIRTUAL,SET,A,WPGFVIRT,WPGFREAL+WPGFAUTO
 00BE0C C1E4E3D6D4C1E3C9_          49569                       OPTION AUTOMATIC,SET,A,WPGFAUTO,WPGFREAL+WPGFVIRT
 00BE34 E2C5C3D6D5C4E240_          49597                       SCKW  SECONDS,XSECS,(A,P,PI),99999
 00BE5C C8C9C7C840404040_          49612                       SCKW  HIGH,XHI,(A,P,PI),99999
 00BE84 D3D6E64040404040_          49627                       SCKW  LOW,XLOW,(A,P,PI),99999
 00BEAC D4C5C7E240404040_          49642                       SCKW  MEGS,XMEGS,(A,P,PI),999
 00BED4 D3D4C9D5C9D4E4D4_          49657                       SCKW  LMINIMUM,XLMIN,(A,P,PI),99999
 00BEFC D3D4C1E7C9D4E4D4_          49672                       SCKW  LMAXIMUM,XLMAX,(A,P,PI),99999
 00BF24 E2D4C9D5C9D4E4D4_          49687                       SCKW  SMINIMUM,XSMIN,(A,P,PI),99999
 00BF4C E2D4C1E7C9D4E4D4_          49702                       SCKW  SMAXIMUM,XSMAX,(A,P,PI),99999
 00BF74 D4C9D5C9D4E4D440_          49717                       SCKW  MINIMUM,XOLDERR,A
 00BF9C D4C1E7C9D4E4D440_          49732                       SCKW  MAXIMUM,XOLDERR,A
 00BFC4 4040404040404040_          49747                       SCKW  ,XNUM,PI,99999
 00BFEC 4040404040404040_          49762                       SCKW  ,V(NOTVALID)
1MODE     (MODE4072) (12:48) (15MAR04) SHOW WINFO Command                                                                   Page  127
0Current Usings:  (WPGWA,R6) (CP,R11) (CV,R12)
0Loc    Object Code    Addr1 Addr2  Stmt Lv Lineno    Source Statement           (Hibal 5, Asmedit 3.3)  HLASM R4.0  2004/03/15 12.48
+___    ______ ____    _____ _____  ____ __ ______    ______ _________
0                                  49778              þþþþ
 00C014 50E0 D000/9008_      00000 49779              XSECS    PROC
 USING  *,R7
 00C02E 4000 6010            00010 49818                       STH   R0,WPGSECS
 00C032 18D8/9808 D004_            49819                       PEND
 DROP   *,R7
                                   49839
 00C040 50E0 D000/9008_      00000 49840              XHI      PROC
 USING  *,R7
 00C05A 4000 6002            00002 49879                       STH   R0,WPGHI
 00C05E 18D8/9808 D004_            49880                       PEND
 DROP   *,R7
                                   49900
 00C06C 50E0 D000/9008_      00000 49901              XLOW     PROC
 USING  *,R7
 00C086 4000 6004            00004 49940                       STH   R0,WPGLO
 00C08A 18D8/9808 D004_            49941                       PEND
 DROP   *,R7
                                   49961
 00C098 50E0 D000/9008_      00000 49962              XMEGS    PROC
 USING  *,R7
 00C0B2 4000 6006            00006 50001                       STH   R0,WPGMEG
 00C0B6 18D8/9808 D004_            50002                       PEND
 DROP   *,R7
                                   50022
 00C0C4 50E0 D000/9008_      00000 50023              XOLDERR  PROC
 USING  *,R7
 00C0DE 4110 71D0/4100_      0C2AE 50062                       ABORT 'Use LMIN/LMAX and SMIN/SMAX; look at SHOW WPAGES.'
 00C0EA 18D8/9808 D004_            50069                       PEND
 DROP   *,R7
                                   50089
 00C0F8 50E0 D000/9008_      00000 50090              XLMIN    PROC
 USING  *,R7
 00C112 4000 6008            00008 50129                       STH   R0,WPGLMIN
 00C116 18D8/9808 D004_            50130                       PEND
 DROP   *,R7
                                   50150
 00C124 50E0 D000/9008_      00000 50151              XLMAX    PROC
 USING  *,R7
 00C13E 4000 600A            0000A 50190                       STH   R0,WPGLMAX
 00C142 18D8/9808 D004_            50191                       PEND
 DROP   *,R7
                                   50211
 00C150 50E0 D000/9008_      00000 50212              XSMIN    PROC
 USING  *,R7
 00C16A 4000 600C            0000C 50251                       STH   R0,WPGSMIN
 00C16E 18D8/9808 D004_            50252                       PEND
 DROP   *,R7
                                   50272
 00C17C 50E0 D000/9008_      00000 50273              XSMAX    PROC
 USING  *,R7
 00C196 4000 600E            0000E 50312                       STH   R0,WPGSMAX
 00C19A 18D8/9808 D004_            50313                       PEND
 DROP   *,R7
1MODE     (MODE4072) (12:48) (15MAR04) SHOW WINFO Command                                                                   Page  128
0Current Usings:  (WPGWA,R6) (CP,R11) (CV,R12)
0Loc    Object Code    Addr1 Addr2  Stmt Lv Lineno    Source Statement           (Hibal 5, Asmedit 3.3)  HLASM R4.0  2004/03/15 12.48
+___    ______ ____    _____ _____  ____ __ ______    ______ _________
0                                  50333
 00C1A8 50E0 D000/9008_      00000 50334              XNUM     PROC
 USING  *,R7
 00C1C2 4000 6012            00012 50373                       STH   R0,WPGNEW
 00C1C6 18D8/9808 D004_            50374                       PEND
 DROP   *,R7
                                   50394
 DROP   WPGWA,R6                   50395                       DROP  R6
1MODE     (MODE4072) (12:48) (15MAR04) SHOW WINFO Command                                                                   Page  129
0Current Usings:  (CP,R11) (CV,R12)
0Loc    Object Code    Addr1 Addr2  Stmt Lv Lineno    Source Statement           (Hibal 5, Asmedit 3.3)  HLASM R4.0  2004/03/15 12.48
+___    ______ ____    _____ _____  ____ __ ______    ______ _________
0                                  50403                       QLTORG
1MODE     (MODE4072) (12:48) (15MAR04) SHOW WINFO Command                                                                   Page  130
0Current Usings:  (CP,R11) (CV,R12)
0Loc    Object Code    Addr1 Addr2  Stmt Lv Lineno    Source Statement           (Hibal 5, Asmedit 3.3)  HLASM R4.0  2004/03/15 12.48
+___    ______ ____    _____ _____  ____ __ ______    ______ _________
0                                  50447              ¿þþþþþþþþþþþþþþþþþþþþþþþþþþþþþþþþþþþþþþþþþþþþþþþþþþþþþþþþþþþþþþþþþþþþþÜ
                                   50448              Ÿ                                                                     Ÿ
                                   50449              Ÿ  SHOWWPGS -- SHOW WPAGES Command.                                   Ÿ
                                   50450              Ÿ                                                                     Ÿ
                                                      ¾þþþþþþþþþþþþþþþþþþþþþþþþþþþþþþþþþþþþþþþþþþþþþþþþþþþþþþþþþþþþþþþþþþþþþ»
000C2E0 50E0 D000/9008_      00000 50451              SHOWWPGS PROC
 USING  *,R7
 00C2FA 4110 769E/4100_      0C998 50490                       TSEG  'Pages = '
 00C30C 4810 C13E/1B00_      0013E 50508                       TNUM  LH:CVNPG            Current number of pages
 00C31C 4110 7776/4100_      0CA70 50529                       TSEG  ' ('
 00C32E 4810 C140/1B00_      00140 50547                       TNUM  LH:CVNPG16M         Number of pages below 16M line)
 00C33E 4110 76A6/4100_      0C9A0 50568                       TSEG  ' are below the 16M line)',,CR
 00C350 1B00/41F0 B050_            50586                       TCR
                                   50611
 00C35C 4110 77E2/4100_      0CADC 50612                       TSEG  'Page buffers are '
                                   50630
 00C36E 9120 CA01/47E0_00A01       50631                       IF    CVPGFAUTO,BEGIN     Automatic...
 00C376 4110 7722/4100_      0CA1C 50646  1                      TSEG  'AUTO'
 00C388 4110 77F3/4100_      0CAED 50664  1                      SETMSG ', currently VIRTUAL'
 00C390 9180 CA01/47E0_00A01       50668  1                      IF    CVPGFREAL,'SETMSG ", currently REAL"'
 00C3A0 41F0 B050/58E0_      00050 50692  1                      TSEG  (R1),(R0)
 00C3AA                            50716                       END
                                   50720
 00C3AA 70B4/47F0 70D6 0C3AA 0C374 50721                       ELSE  BEGIN               Static...
 00C3AE 4110 7806/4100_      0CB00 50732  1                      SETMSG 'VIRTUAL'
 00C3B6 9180 CA01/47E0_00A01       50736  1                      IF    CVPGFREAL,'SETMSG "REAL"'
 00C3C6 41F0 B050/58E0_      00050 50760  1                      TSEG  (R1),(R0)
 00C3D0                            50784                       END
                                   50788
 00C3D0 4110 780D/4100_      0CB07 50789                       TSEG  ' (choices: REAL, VIRTUAL, AUTO)'
 00C3E2 1B00/41F0 B050_            50807                       TCR
 00C3EE 1B00/41F0 B050_            50832                       TCR
                                   50857
 00C3FA 4110 782C/4100_      0CB26 50858                       TSEG  'Buffers: '
 00C40C 48F0 C13E            0013E 50876                       LH    R15,CVNPG
 00C410 58E0 772A/0DEE       0CA24 50877                       ACALL SEGPGNUM
 00C416 4110 7778/4100_      0CA72 50881                       TSEG  ', '
 00C428 4810 C660/1B00_      00660 50899                       TNUM  LH:CV#IOSEC
 00C438 4110 7835/4100_      0CB2F 50920                       TSEG  ' pages/second',,CR
 00C44A 1B00/41F0 B050_            50938                       TCR
 00C456 4110 777A/4100_      0CA74 50963                       TSEG  'Autopilot '
 00C468 4820 C14E/1222       0014E 50981                       LTH   R2,CVPGADJ
 00C46E 4770 718A/4110_      0C484 50985                       IF    Z,'TSEG "has not changed this value."'
 00C484 718E/47F0 71FC 0C484 0C470 51019                       ELSE  BEGIN
 00C488 4110 7784/4100_      0CA7E 51030  1                      SETMSG 'added '
 00C490 1222/47B0 71A6_            51034  1                      IF    (R2,NEG),'SETMSG "released "; LCR R2,R2'
 00C4A0 41F0 B050/58E0_      00050 51058  1                      TSEG  (R1),(R0)
 00C4AA 18F2                       51082  1                      LR    R15,R2
 00C4AC 58E0 772A/0DEE       0CA24 51083  1                      ACALL SEGPGNUM
 00C4B2 4110 772E/4100_      0CA28 51087  1                      TSEG  ' at '
 00C4C4 18FD/41D0 D020             51105  1                      XPUSH ,,32,PTR=R15
 00C4CA 5800 C150            00150 51108  1                      L     R0,CVPGCLK
 00C4CE 1B11                       51109  1                      CLEAR R1
1MODE     (MODE4072) (12:48) (15MAR04) SHOW WINFO Command                                                                   Page  131
0Current Usings:  (*,R7) (CP,R11) (CV,R12)
0Loc    Object Code    Addr1 Addr2  Stmt Lv Lineno    Source Statement           (Hibal 5, Asmedit 3.3)  HLASM R4.0  2004/03/15 12.48
+___    ______ ____    _____ _____  ____ __ ______    ______ _________
000C4D0 58E0 7732/0DEE       0CA2C 51113  1                      VCALL FMTTIME             Get "hh:mm:ss.hh"
 00C4D6 4100 0005/41F0_      00005 51117  1                      TSEG  (R1),5
 00C4E4 4110 7866/4100_      0CB60 51144  1                      TSEG  '.'
 00C4F6                            51162                       END
 00C4F6 1B00/41F0 B050_            51166                       TCR
 00C502 1B00/41F0 B050_            51191                       TCR
                                   51216                       ¿þþþþþþþþþþþþþþþþþþþþþþþþþþþþþþþþþÜ
                                   51217                       Ÿ  Also show tuning information.  Ÿ
                                   51218                       ¾þþþþþþþþþþþþþþþþþþþþþþþþþþþþþþþþþ»
 00C50E 4110 7736/4100_      0CA30 51219                       TSEG  '<.U+>Tuning information<.U->',,CR
 00C520 4810 CA02/1B00_      00A02 51237                       TNUM  LH:CVPGSECS
 00C530 4110 7867/4100_      0CB61 51258                       TSEG  ' seconds between adjustments.',,CR
                                   51276
 00C542 4110 7884/4100_      0CB7E 51277                       TSEG  'Under'
 00C554 4810 CA08/4100_      00A08 51295                       TNUM  LH:CVPGLO,3
 00C566 4110 7889/4100_      0CB83 51319                       TSEG  ' pages/second is too low.',,CR
                                   51337
 00C578 4110 7752/4100_      0CA4C 51338                       TSEG  'Over'
 00C58A 4810 CA0A/4100_      00A0A 51356                       TNUM  LH:CVPGHI,4
 00C59C 4110 778A/4100_      0CA84 51380                       TSEG  ' pages/second is too high.',,CR
                                   51398
 00C5AE 48F0 C142            00142 51399                       LH    R15,CVPGMIN
 00C5B2 58E0 772A/0DEE       0CA24 51400                       ACALL SEGPGNUM
 00C5B8 4110 76CE/4100_      0C9C8 51404                       TSEG  ' is the minimum allowed.',,CR
                                   51422
 00C5CA 48F0 C144            00144 51423                       LH    R15,CVPGMAX
 00C5CE 58E0 772A/0DEE       0CA24 51424                       ACALL SEGPGNUM
 00C5D4 4110 76E6/4100_      0C9E0 51428                       TSEG  ' is the maximum allowed.',,CR
 00C5E6 1B00/41F0 B050_            51446                       TCR
                                   51471
 00C5F2 4110 76FE/4100_      0C9F8 51472                       TSEG  'Small if real memory <= '
 00C604 4810 CA0C/1B00_      00A0C 51490                       TNUM  LH:CVPGMEG
 00C614 4110 78A2/4100_      0CB9C 51511                       TSEG  'M, currently '
 00C626 58F0 0010            00010 51529                       L     R15,CVTPTR
 00C62A 58F0 F490            00490 51530                       WITH  (CVT,R15),'L R15,CVTRCEP'  SRM RCE ptr
 USING  CVT,R15
 DROP   CVT,R15
 00C62E 58F0 F004            00004 51554                       L     R15,@R15+4          RCEPOOL = memory online & avail
 00C632 88F0 0008            00008 51555                       SRL   R15,8               Amount in megabytes
 00C636 181F/1B00/41F0_            51556                       TNUM  (R15)
 00C644 4110 78AF/4100_      0CBA9 51578                       TSEG  'M',,CR
                                   51596
 00C656 4110 78B0/4100_      0CBAA 51597                       TSEG  'Small configuration: '
 00C668 4110 78C5/4100_      0CBBF 51615                       TSEG  'SMIN='
 00C67A 4810 CA0E/1B00_      00A0E 51633                       TNUM  LH:CVPGSMIN
 00C68A 4110 78CA/4100_      0CBC4 51654                       TSEG  ', SMAX='
 00C69C 4810 CA10/1B00_      00A10 51672                       TNUM  LH:CVPGSMAX
 00C6AC 1B00/41F0 B050_            51693                       TCR
                                   51718
 00C6B8 4110 78D1/4100_      0CBCB 51719                       TSEG  'Large configuration: '
 00C6CA 4110 78E6/4100_      0CBE0 51737                       TSEG  'LMIN='
 00C6DC 4810 CA04/1B00_      00A04 51755                       TNUM  LH:CVPGLMIN
 00C6EC 4110 78EB/4100_      0CBE5 51776                       TSEG  ', LMAX='
 00C6FE 4810 CA06/1B00_      00A06 51794                       TNUM  LH:CVPGLMAX
1MODE     (MODE4072) (12:48) (15MAR04) SHOW WINFO Command                                                                   Page  132
0Current Usings:  (*,R7) (CP,R11) (CV,R12)
0Loc    Object Code    Addr1 Addr2  Stmt Lv Lineno    Source Statement           (Hibal 5, Asmedit 3.3)  HLASM R4.0  2004/03/15 12.48
+___    ______ ____    _____ _____  ____ __ ______    ______ _________
000C70E 1B00/41F0 B050_            51815                       TCR
                                   51840
 00C71A 18D8/9808 D004_            51841                       PEND
 DROP   *,R7
1MODE     (MODE4072) (12:48) (15MAR04) SHOW WINFO Command                                                                   Page  133
0Current Usings:  (CP,R11) (CV,R12)
0Loc    Object Code    Addr1 Addr2  Stmt Lv Lineno    Source Statement           (Hibal 5, Asmedit 3.3)  HLASM R4.0  2004/03/15 12.48
+___    ______ ____    _____ _____  ____ __ ______    ______ _________
0                                  51862              *
                                   51863              *  SHOW WYLPAGES <lno>
                                   51864              *
                                   51865              *
 00C728 50E0 D000/9008_      00000 51866              SHOWWYLP PROC
 USING  *,R7
                                   51905
 00C742 1B55                       51906                       CLEAR R5                  R5 - JCB OF OPTIONAL LINE NUMBER
 00C744 5810 B08C/1B00_      0008C 51910                       SCAN SWYLPPRT
 00C796 58E0 7316/0DEE       0CA58 51942                       SCANCHK
                                   51947
                                   51948                       COMMENT                   DEFAULT LINE NUMBER IS SELF
 00C79C 1255/4770 7064             51949                       IF    (R5,Z),BEGIN
 00C7A2 5850 C1C8            001C8 51963  1                      L     R5,CVCURJCB
 00C7A6                            51964                       END
                                   51968
 USING  JCB,R5                     51969                       USING JCB,R5
 00C7A6 9180 5060/47E0_00060       51978                       IF    JCBWFSO,BEGIN
 00C7AE 4110 74AA/4100_      0CBEC 51993  1                      TSEG  'Line '
 00C7C0 4810 5048/1B00_      00048 52011  1                      TNUM  LH:JCBSEQ
 00C7D0 4110 735E/4100_      0CAA0 52032  1                      TSEG  ' is not logged on (or not in this WYLBUR).'
 00C7E2 47F0 C7DE            007DE 52050  1                      B     CVNEXT
 00C7E6                            52051                       END
                                   52055
 00C7E6 4810 5030/1B00_      00030 52056                       TNUM  LH:JCBNPG
 00C7F6 4110 7388/4100_      0CACA 52077                       TSEG  ' pages'
                                   52095
 00C808 47F0 C7DE            007DE 52096                       B     CVNEXT
                                   52097
 00C80C 18D8/9808 D004_            52098                       PEND
 DROP   *,R7
 DROP   JCB,R5                     52118                       DROP  R5
                                   52125              *
                                   52126              *
                                   52127              *
 00C81C 4040404040404040_          52128              SWYLPPRT SCKW ,SWYLPLIN,PI,5000
 00C844 4040404040404040_          52143                       SCKW ,V(NOTVALID)
                                   52158              *
                                   52159              *
 00C86C 50E0 D000/9008_      00000 52160              SWYLPLIN PROC ,
 USING  *,R7
 00C886 1255/4780 700C_            52199                       IF    (R5,NZ),'VCALL NOTVALID'  NO 2ND LINE NO
 00C892 1850                       52222                       LR    R5,R0
 00C894 4C50 724A            0CAD0 52223                       MH    R5,=AL2(L'JCB)
 00C898 5A50 C1C0            001C0 52224                       A     R5,CVFJCB
 00C89C 5950 C1C4/47D0_      001C4 52225                       IF    (R5,GT,CVLJCB),'VCALL NOTVALID'  LINE NO TOO BIG
 00C8AA 5058 0018            00018 52251                       PRETURN (R5)
 00C8AE 1BFF                       52253                       CLEAR R15
 00C8B0 18D8/9808 D004_            52257                       PEND
 DROP   *,R7
1MODE     (MODE4072) (12:48) (15MAR04) SHOW WINFO Command                                                                   Page  134
0Current Usings:  (CP,R11) (CV,R12)
0Loc    Object Code    Addr1 Addr2  Stmt Lv Lineno    Source Statement           (Hibal 5, Asmedit 3.3)  HLASM R4.0  2004/03/15 12.48
+___    ______ ____    _____ _____  ____ __ ______    ______ _________
0                                  52278              ¿þþþþþþþþþþþþþþþþþþþþþþþþþþþþþþþþþþþþþþþþþþþþþþþþþþþþþþþþþþþþþþþþþþþþþÜ
                                   52279              Ÿ                                                                     Ÿ
                                   52280              Ÿ  SEGPGNUM -- Local routine to seg page number followed by           Ÿ
                                   52281              Ÿ    by the corresponding value in kilobytes.                         Ÿ
                                   52282              Ÿ                                                                     Ÿ
                                   52283              Ÿ    On entry:                                                        Ÿ
                                   52284              Ÿ       R15 - number of pages                                         Ÿ
                                   52285              Ÿ                                                                     Ÿ
                                                      ¾þþþþþþþþþþþþþþþþþþþþþþþþþþþþþþþþþþþþþþþþþþþþþþþþþþþþþþþþþþþþþþþþþþþþþ»
000C8BE 50E0 D000/9008_      00000 52286              SEGPGNUM PROC
 USING  *,R7
 00C8D8 50F0 D000/41D0_      00000 52325                       XPUSH R15
 00C8E0 4CF0 71FA            0CAD2 52328                       MH    R15,=AL2((CVPSZ+4095)/4096*4)  Memory in K
 00C8E4 181F/1B00/41F0_            52329                       TNUM  (R15)
 00C8F2 4110 7319/4100_      0CBF1 52351                       TSEG  'K ('
 00C904 4BD0 71FC/58F0_      0CAD4 52369                       XPOP  R15
                                   52372
 00C90C 50F0 D000/41D0_      00000 52373                       XPUSH R15
 00C914 181F/1B00/41F0_            52376                       TNUM  (R15)
 00C922 4BD0 71FC/58F0_      0CAD4 52398                       XPOP  R15
 00C92A 4110 71FE/4100_      0CAD6 52401                       SETMSG ' page)'
 00C932 59F0 7188/4780_      0CA60 52405                       IF    (R15,NE,1),'SETMSG " pages)"'
 00C942 41F0 B050/58E0_      00050 52431                       TSEG  (R1),(R0)
 00C94C 18D8/9808 D004_            52455                       PEND
 DROP   *,R7
1MODE     (MODE4072) (12:48) (15MAR04) SHOW WINFO Command                                                                   Page  135
0Current Usings:  (CP,R11) (CV,R12)
0Loc    Object Code    Addr1 Addr2  Stmt Lv Lineno    Source Statement           (Hibal 5, Asmedit 3.3)  HLASM R4.0  2004/03/15 12.48
+___    ______ ____    _____ _____  ____ __ ______    ______ _________
0                                  52476              ¿þþþþþþþþþþþþþþþþþþþþþþþþþþþþþþþþþþþþþþþþþþþþþþþþþþþþþþþþþþþþþþþþþþþþþÜ
                                   52477              Ÿ                                                                     Ÿ
                                   52478              Ÿ  SHOWWBUF -- SHOW WBUFFER command.                                  Ÿ
                                   52479              Ÿ                                                                     Ÿ
                                                      ¾þþþþþþþþþþþþþþþþþþþþþþþþþþþþþþþþþþþþþþþþþþþþþþþþþþþþþþþþþþþþþþþþþþþþþ»
000C95A 50E0 D000/9008_      00000 52480              SHOWWBUF PROC
 USING  *,R7
 00C974 58E0 70F0/0DEE       0CA64 52519                       VCALL COLLOPTS
                                   52523
 00C97A 58F0 70F4            0CA68 52524                       L     R15,=F'4000'
 00C97E 58E0 70F8/0DEE       0CA6C 52525                       VCALL FMTWBUF             Do SHOW WBUF (see DISP)
                                   52529
 00C984 47F0 C7DE            007DE 52530                       B     CVNEXT
 00C988 18D8/9808 D004_            52531                       PEND
 DROP   *,R7
                                   52551
                                   52552                       QLTORG
                                   52623                       AIF   (&$PCODE).NULWLRA
1MODE     (MODE4072) (12:48) (15MAR04) SHOW WINFO Command                                                                   Page  136
0Current Usings:  (CP,R11) (CV,R12)
0Loc    Object Code    Addr1 Addr2  Stmt Lv Lineno    Source Statement           (Hibal 5, Asmedit 3.3)  HLASM R4.0  2004/03/15 12.48
+___    ______ ____    _____ _____  ____ __ ______    ______ _________
0                                  52625              ¿þþþþþþþþþþþþþþþþþþþþþþþþþþþþþþþþþþþþþþþþþþþþþþþþþþþþþþþþþþþþþþþþþþþþþÜ
                                   52626              Ÿ                                                                     Ÿ
                                   52627              Ÿ  SHOWWLRA -- SHOW WLRA Command (Priv'd).                            Ÿ
                                   52628              Ÿ                                                                     Ÿ
                                                      ¾þþþþþþþþþþþþþþþþþþþþþþþþþþþþþþþþþþþþþþþþþþþþþþþþþþþþþþþþþþþþþþþþþþþþþ»
000CBFC 50E0 D000/9008_      00000 52629              SHOWWLRA PROC
 USING  *,R7
                                   52668                     ¿þþþþþþþþþþþþþþþþþþþþþþþþþþþþþþþþþþþþþþþþþþþþþþþþþþþþþþþþþþþþþÜ
                                   52669                     Ÿ  Command to get a page and then find out how long it takes  Ÿ
                                   52670                     Ÿ      for it to be paged out.                                Ÿ
                                   52671                     ¾þþþþþþþþþþþþþþþþþþþþþþþþþþþþþþþþþþþþþþþþþþþþþþþþþþþþþþþþþþþþþ»
 00CC16 9120 B3BE/4710_003BE       52672                       IF    ~CPSFSPR,'VCALL NOTVALID'  Not priv'd, sorry
 00CC24 47F0 701A/0000_      0CC30 52696                       GETMAIN RU,LV=4096,BNDRY=PAGE,LOC=ANY  One MVS page
 00CC3C 1851                       52710                       LR    R5,R1
 00CC3E 9200 5000      00000       52711                       MVI   @R5,0               Mark page as changed
                                   52712
 00CC42                            52713                       LOOP  BEGIN
 00CC42 0700/4510 7036_            52719  1                      MODESET MODE=SUP          ********
 00CC52 1B22                       52726  1                      CLEAR R2                  Flag: assume paged in
 00CC54 B1F0 5000            00000 52730  1                      LRA   R15,@R5             Is page still valid?
 00CC58 4780 704A/4120_      0CC60 52731  1                      IF    NZ,'LA R2,1'        No, it's been paged out
 00CC60 4510 7052/0000_      0CC68 52748  1                      MODESET MODE=PROB         ********
                                   52755  1
 00CC6E 4110 7784/4100_      0D39A 52756  1                      SETMSG '+'                 In
 00CC76 1222/4780 706E_            52760  1                      IF    (R2,NZ),'SETMSG "-"'   Out
 00CC84 41F0 B050/58E0_      00050 52783  1                      TSEG  (R1),(R0)
 00CC8E 41F0 B050/58E0_      00050 52807  1                      TMARK
 00CC98 1B00/41F0 B050_            52821  1                      TWRITE
 00CCA4 4770 70A4            0CCBA 52846  1                      IF    NZ,EXIT             Scram
                                   52860  1
 00CCA8 41F0 01F4            001F4 52861  1                      LA    R15,5*100
 00CCAC 58E0 7722/0DEE       0D338 52862  1                      VCALL WAITER              Wait 5 seconds
 00CCB2 4770 70A4            0CCBA 52866  1                      IF    NZ,EXIT             Scram
 00CCB6 47F0 702C            0CC42 52880                       END
                                   52885                       ¿þþþþþþþþþþþþþþþþþþþþþþþþþþþþþþþþÜ
                                   52886                       Ÿ  All done, now free the page.  Ÿ
                                   52887                       ¾þþþþþþþþþþþþþþþþþþþþþþþþþþþþþþþþ»
 00CCBA 1815                       52888                       LR    R1,R5               Page ptr
 00CCBC 47F0 70B2/0000_      0CCC8 52889                       FREEMAIN RU,A=(5),LV=4096  Free MVS page
 00CCD4 47F0 C7DE            007DE 52902                       B     CVNEXT
 00CCD8 18D8/9808 D004_            52903                       PEND
 DROP   *,R7
                                   52923                       AGO   .ENDWLRA
                                   52924              .ENDWLRA ANOP  ,
1MODE     (MODE4072) (12:48) (15MAR04) SHOW WINFO Command                                                                   Page  137
0Current Usings:  (CP,R11) (CV,R12)
0Loc    Object Code    Addr1 Addr2  Stmt Lv Lineno    Source Statement           (Hibal 5, Asmedit 3.3)  HLASM R4.0  2004/03/15 12.48
+___    ______ ____    _____ _____  ____ __ ______    ______ _________
0                                  52926              ¿þþþþþþþþþþþþþþþþþþþþþþþþþþþþþþþþþþþþþþþþþþþþþþþþþþþþþþþþþþþþþþþþþþþþþÜ
                                   52927              Ÿ                                                                     Ÿ
                                   52928              Ÿ  SETWSL -- SET WSLICE Command (Priv'd).                             Ÿ
                                   52929              Ÿ                                                                     Ÿ
                                                      ¾þþþþþþþþþþþþþþþþþþþþþþþþþþþþþþþþþþþþþþþþþþþþþþþþþþþþþþþþþþþþþþþþþþþþþ»
000CCE6 50E0 D000/9008_      00000 52930              SETWSL   PROC
 USING  *,R7
 00CD00 9120 B3BE/4710_003BE       52969                       IF    ~CPSFSPR,'VCALL NOTVALID'  Not priv'd, sorry
                                   52993
 00CD0E 8900 000C            0000C 52994                       SLL   R0,12               Convert to low order STCK
 00CD12 5000 C0D0            000D0 52995                       ST    R0,CVSLICE          Set new timeslice interval
 00CD16 47F0 C7DE            007DE 52996                       B     CVNEXT
 00CD1A 18D8/9808 D004_            52997                       PEND
 DROP   *,R7
1MODE     (MODE4072) (12:48) (15MAR04) SHOW WINFO Command                                                                   Page  138
0Current Usings:  (CP,R11) (CV,R12)
0Loc    Object Code    Addr1 Addr2  Stmt Lv Lineno    Source Statement           (Hibal 5, Asmedit 3.3)  HLASM R4.0  2004/03/15 12.48
+___    ______ ____    _____ _____  ____ __ ______    ______ _________
0                                  53018              ¿þþþþþþþþþþþþþþþþþþþþþþþþþþþþþþþþþþþþþþþþþþþþþþþþþþþþþþþþþþþþþþþþþþþþþÜ
                                   53019              Ÿ                                                                     Ÿ
                                   53020              Ÿ  SHOWWSL -- SHOW WSLICE Command.                                    Ÿ
                                   53021              Ÿ                                                                     Ÿ
                                                      ¾þþþþþþþþþþþþþþþþþþþþþþþþþþþþþþþþþþþþþþþþþþþþþþþþþþþþþþþþþþþþþþþþþþþþþ»
000CD28 50E0 D000/9008_      00000 53022              SHOWWSL  PROC
 USING  *,R7
 00CD42 58F0 C0D0            000D0 53061                       L     R15,CVSLICE
 00CD46 88F0 000C            0000C 53062                       SRL   R15,12              .000001 of a sec (mics)
 00CD4A 181F/1B00/41F0_            53063                       TNUM  (R15)
 00CD58 4110 7526/4100_      0D268 53085                       SETMSG ' microseconds maximum timeslice.'
 00CD60 47F0 C7D0            007D0 53089                       B     CVNXTMSG
 00CD64 18D8/9808 D004_            53090                       PEND
 DROP   *,R7
1MODE     (MODE4072) (12:48) (15MAR04) SHOW WINFO Command                                                                   Page  139
0Current Usings:  (CP,R11) (CV,R12)
0Loc    Object Code    Addr1 Addr2  Stmt Lv Lineno    Source Statement           (Hibal 5, Asmedit 3.3)  HLASM R4.0  2004/03/15 12.48
+___    ______ ____    _____ _____  ____ __ ______    ______ _________
0                                  53111              ¿þþþþþþþþþþþþþþþþþþþþþþþþþþþþþþþþþþþþþþþþþþþþþþþþþþþþþþþþþþþþþþþþþþþþþÜ
                                   53112              Ÿ                                                                     Ÿ
                                   53113              Ÿ  PRCT -- Local routine to do percentage.                            Ÿ
                                   53114              Ÿ                                                                     Ÿ
                                                      ¾þþþþþþþþþþþþþþþþþþþþþþþþþþþþþþþþþþþþþþþþþþþþþþþþþþþþþþþþþþþþþþþþþþþþþ»
000CD72 50E0 D000/9008_      00000 53115              PRCT     PROC
 USING  *,R7
 00CD8C 1BEE/1BFF                  53154                       CLEAR R14,R15
 00CD90 1211/4780 7012             53160                       IF    (R1,NZ),BEGIN
 00CD96 18F0                       53174  1                      LR    R15,R0
 00CD98 5CE0 75B4            0D340 53175  1                      M     R14,=A(1000)
 00CD9C 1DE1                       53176  1                      DR    R14,R1
 00CD9E                            53177                       END
 00CD9E 4100 0501/4110_      00501 53181                       BTR   CPDOUB,(5,1),(R15)  Percentage -- nnn.n
 00CDAC 41F0 B050/58E0_      00050 53203                       TSEG  (R1),(R0)
 00CDB6 4110 7610/4100_      0D39C 53227                       TSEG  '%'
 00CDC8 18D8/9808 D004_            53245                       PEND
 DROP   *,R7
1MODE     (MODE4072) (12:48) (15MAR04) SHOW DATE Command                                                                    Page  140
0Current Usings:  (CP,R11) (CV,R12)
0Loc    Object Code    Addr1 Addr2  Stmt Lv Lineno    Source Statement           (Hibal 5, Asmedit 3.3)  HLASM R4.0  2004/03/15 12.48
+___    ______ ____    _____ _____  ____ __ ______    ______ _________
0000000                00000 00030 53266              SHDTWA   RECORD BEGIN
 000000                            53274  1           SHDTCLCK   DS    D                   Time of day clock
 000008                            53275  1           SHDTMSG    DS    CL40                Message area
 000030                00030 00030 53276                       END
-                                  53286              ¿þþþþþþþþþþþþþþþþþþþþþþþþþþþþþþþþþþþþþþþþþþþþþþþþþþþþþþþþþþþþþþþþþþþþþÜ
                                   53287              Ÿ                                                                     Ÿ
                                   53288              Ÿ  SHOWDATE -- SHOW DATE command.                                     Ÿ
                                   53289              Ÿ                                                                     Ÿ
                                                      ¾þþþþþþþþþþþþþþþþþþþþþþþþþþþþþþþþþþþþþþþþþþþþþþþþþþþþþþþþþþþþþþþþþþþþþ»
000CDD6 50E0 D000/9008_      00000 53290              SHOWDATE PROC  SHDTWA
 USING  *,R7
 USING  SHDTWA-(4+36),R8
 00CDF0 4160 8028            00000 53340                       LA    R6,SHDTWA
 USING  SHDTWA,R6                  53341                       USING SHDTWA,R6
 00CDF4 D72F 6000 6000 00000 00000 53350                       CLEAR SHDTWA
                                   53357
 00CDFA 58E0 7558/0DEE       0D348 53358                       VCALL LOCALTOD
 00CE00 9001 6000            00000 53362                       STM   R0,R1,SHDTCLCK      Current time/date
                                   53363
 00CE04 1B55                       53364                       CLEAR R5                  Zero (for error checking below)
 00CE06 5810 B08C/1B00_      0008C 53368                       SCAN  DATEPRT             Look for options
 00CE58 58E0 7564/0DEE       0D354 53400                       SCANCHK
                                   53405
 00CE5E 5950 7568/47D0_      0D358 53406                       IF    (R5,GT,1),BEGIN
 00CE66 4110 75AD/4100_      0D39D 53423  1                      ABORT 'You can only specify one alternate time zone.'
 00CE72                            53430                       END
                                   53434                       ¿þþþþþþþþþþþþþþþþþþþþþþþþþþþþþþÜ
                                   53435                       Ÿ  Display the time and date.  Ÿ
                                   53436                       ¾þþþþþþþþþþþþþþþþþþþþþþþþþþþþþþ»
 00CE72 9801 6000            00000 53437                       LM    R0,R1,SHDTCLCK      Time and date to display
 00CE76 18FD/41D0 D040             53438                       XPUSH ,,64,PTR=R15
 00CE7C D502 75DA BD24_0D3CA 00D24 53441                       IF    (CPCMNM,NE,'XDA'),BEGIN  (SHOW DATE)
 00CE86 58E0 756C/0DEE       0D35C 53458  1                      VCALL FMTCLCK
 00CE8C D20C 100F 1011 0000F 00011 53462  1                      MVC   15(13,R1),17(R1)    Eliminate the century
 00CE92 D206 1013 1015 00013 00015 53463  1                      MVC   19(7,R1),21(R1)      for now
 00CE98 5B00 7570            0D360 53464  1                      S     R0,=F'4'
 00CE9C                            53465                       END
                                   53469
 00CE9C 70B0/47F0 70CA 0CE9C 0CE84 53470                       ELSE  BEGIN
 00CEA0 58E0 7574/0DEE       0D364 53481  1                      VCALL FMTXDATE            SHOW XDATE style
 00CEA6 D20E 100C 100E 0000C 0000E 53485  1                      MVC   12(15,R1),14(R1)    Squeeze out century
 00CEAC 5B00 7578            0D368 53486  1                      S     R0,=F'2'
 00CEB0 1255/4780 70CA_            53487  1                      IF    (R5,NZ),'SH R0,=H"4"'  We don't know the timezone
 00CEBA                            53507                       END
                                   53511
 00CEBA 41F0 B050/58E0_      00050 53512                       TSEG  (R1),(R0)           Show time/date
 00CEC4 4BD0 75A4            0D394 53536                       XPOP  ,,64
                                   53538
 00CEC8 D627 6008 6008_00008 00008 53539                       IF    (SHDTMSG,NZ),'TSEG SHDTMSG'  Added message (if any)
                                   53588
 00CEE4 47F0 C7DE            007DE 53589                       B     CVNEXT
1MODE     (MODE4072) (12:48) (15MAR04) SHOW DATE Command                                                                    Page  141
0Current Usings:  (SHDTWA,R6) (CP,R11) (CV,R12)
0Loc    Object Code    Addr1 Addr2  Stmt Lv Lineno    Source Statement           (Hibal 5, Asmedit 3.3)  HLASM R4.0  2004/03/15 12.48
+___    ______ ____    _____ _____  ____ __ ______    ______ _________
000CEE8 18D8/9808 D004_            53590                       PEND
 DROP   SHDTWA-(4+36),R8
 DROP   *,R7
                                   53615              ***
                                   53616              ***  SHOW DATE/XDATE options
                                   53617              ***
 00CEF8 C2C1D5C7D2D6D240_          53618              DATEPRT  SCKW  BANGKOK,DTBANG,A
 00CF20 D4D6E2C3D6E64040_          53633                       SCKW  MOSCOW,DTMOSCOW,A
 00CF48 E6C1E2C8C9D5C7E3_          53648                       SCKW  WASHINGTON,DTWASH,A
 00CF70 4040404040404040_          53663                       SCKW  ,V(COLLPSH),PUSH
 00CF98 4040404040404040_          53678                       SCKW  ,DTCLCK
                                   53693              *
                                   53694              *
                                   53695              $1HOUR   EQU   3433,,C'N'          Number of 2**31 ticks in an hr
                                   53696              *
                                   53697              *
 00CFC0 50E0 D000/9008_      00000 53698              DTBANG   PROC
 USING  *,R7
 00CFDA 58E0 736E/0DEE       0D348 53737                       VCALL LOCALTOD            Current time/date
 00CFE0 18FD/41D0 D040             53741                       XPUSH ,,64,PTR=R15
 00CFE6 58E0 738A/0DEE       0D364 53744                       VCALL FMTXDATE            SHOW XDATE for our timezone
 00CFEC 1A10                       53748                       AR    R1,R0
 00CFEE 4B10 73BC            0D396 53749                       SH    R1,=H'2'
 00CFF2 95C4 1000/4770_00000       53750                       IF    (@R1,EQ,'D'),'L R15,=A(14*$1HOUR)'  Offset if PDT
 00CFFE 7028/47F0 702C_0CFFE 0CFF8 53772                       ELSE  'L R15,=A(15*$1HOUR)'               Offset if PST
 00D006 4BD0 73BA            0D394 53789                       XPOP  ,,64
                                   53791
 00D00A D227 6008 72AE 00008 0D288 53792                       MVC   SHDTMSG,=CL(L'SHDTMSG)' (Bangkok time)'
 00D010 5EF0 6000            00000 53793                       AL    R15,SHDTCLCK        +15 hours (or +14 if PDT)
 00D014 50F0 6000            00000 53794                       ST    R15,SHDTCLCK
 00D018 5058 0018            00018 53795                       PRETURN (R5)
 00D01C 1BFF                       53797                       CLEAR R15
 00D01E 18D8/9808 D004_            53801                       PEND
 DROP   *,R7
                                   53821
 00D02C 50E0 D000/9008_      00000 53822              DTWASH   PROC
 USING  *,R7
 00D046 4150 5001            00001 53861                       LA    R5,@R5+1            Number of zones specified
 00D04A D227 6008 726A 00008 0D2B0 53862                       MVC   SHDTMSG,=CL(L'SHDTMSG)' (Washington D.C. time)'
 00D050 58F0 6000            00000 53863                       L     R15,SHDTCLCK
 00D054 5EF0 732E            0D374 53864                       AL    R15,=A(3*$1HOUR)    +3 hours
 00D058 50F0 6000            00000 53865                       ST    R15,SHDTCLCK
 00D05C 5058 0018            00018 53866                       PRETURN (R5)
 00D060 1BFF                       53868                       CLEAR R15
 00D062 18D8/9808 D004_            53872                       PEND
 DROP   *,R7
                                   53892
 00D070 50E0 D000/9008_      00000 53893              DTMOSCOW PROC
 USING  *,R7
 00D08A 4150 5001            00001 53932                       LA    R5,@R5+1            Number of zones specified
 00D08E D227 6008 724E 00008 0D2D8 53933                       MVC   SHDTMSG,=CL(L'SHDTMSG)' (Moscow time)'
 00D094 58F0 6000            00000 53934                       L     R15,SHDTCLCK
 00D098 5EF0 72EE            0D378 53935                       AL    R15,=A(11*$1HOUR)   +11 hours
 00D09C 50F0 6000            00000 53936                       ST    R15,SHDTCLCK
1MODE     (MODE4072) (12:48) (15MAR04) SHOW DATE Command                                                                    Page  142
0Current Usings:  (SHDTWA,R6) (*,R7) (CP,R11) (CV,R12)
0Loc    Object Code    Addr1 Addr2  Stmt Lv Lineno    Source Statement           (Hibal 5, Asmedit 3.3)  HLASM R4.0  2004/03/15 12.48
+___    ______ ____    _____ _____  ____ __ ______    ______ _________
000D0A0 5058 0018            00018 53937                       PRETURN (R5)
 00D0A4 1BFF                       53939                       CLEAR R15
 00D0A6 18D8/9808 D004_            53943                       PEND
 DROP   *,R7
                                   53963
 00D0B4 50E0 D000/9008_      00000 53964              DTCLCK   PROC
 USING  *,R7
 00D0CE 5900 72AE/4780_      0D37C 54003                       IF    (R0,NE,16),'VCALL NOTVALID'
 00D0DC 4150 5001            00001 54029                       LA    R5,@R5+1            Specific zone specified
 00D0E0 D227 6008 7232 00008 0D300 54030                       MVC   SHDTMSG,=CL(L'SHDTMSG)' (STCK time)'
 00D0E6 1821                       54031                       LR    R2,R1
 00D0E8 4100 0008/58E0_      00008 54032                       XTB   (R1),8              First word
 00D0F2 4780 702E/58E0_      0D0FC 54050                       IF    NZ,'VCALL NOTVALID'
 00D0FC 50F0 6000            00000 54070                       ST    R15,SHDTCLCK
 00D100 4110 2008/4100_      00008 54071                       XTB   @R2+8,8             Second word
 00D10E 4780 704A/58E0_      0D118 54092                       IF    NZ,'VCALL NOTVALID'
 00D118 50F0 6004            00004 54112                       ST    R15,SHDTCLCK+4
 00D11C 5058 0018            00018 54113                       PRETURN (R5)
 00D120 1BFF                       54115                       CLEAR R15
 00D122 18D8/9808 D004_            54119                       PEND
 DROP   *,R7
                                   54139              *
                                   54140              *
 DROP   SHDTWA,R6                  54141                       DROP  R6
-                                  54149                       ¿þþþþþþþþþþþþþþþþþþþþþþþþþþþþþþþþþÜ
                                   54150                       Ÿ  DATEDISP:                      Ÿ
                                   54151                       Ÿ    On entry: R0,R1 - TOD clock  Ÿ
                                   54152                       ¾þþþþþþþþþþþþþþþþþþþþþþþþþþþþþþþþþ»
 00D130 50E0 D000/9008_      00000 54153              DATEDISP PROC
 USING  *,R7
 00D14A 18FD/41D0 D040             54192                       XPUSH ,,64,PTR=R15
 00D150 41F0 B050/58E0_      00050 54195                       TSEG  (R1),(R0),CR
 00D15A 4BD0 724A            0D394 54219                       XPOP  ,,64
 00D15E 18D8/9808 D004_            54221                       PEND
 DROP   *,R7
1MODE     (MODE4072) (12:48) (15MAR04) SHOW GETSTACK Command                                                                Page  143
0Current Usings:  (CP,R11) (CV,R12)
0Loc    Object Code    Addr1 Addr2  Stmt Lv Lineno    Source Statement           (Hibal 5, Asmedit 3.3)  HLASM R4.0  2004/03/15 12.48
+___    ______ ____    _____ _____  ____ __ ______    ______ _________
0                                  54242              ¿þþþþþþþþþþþþþþþþþþþþþþþþþþþþþþþþþþþþþþþþþþþþþþþþþþþþþþþþþþþþþþþþþþþþþÜ
                                   54243              Ÿ                                                                     Ÿ
                                   54244              Ÿ  SHOWGETS -- SHOW GETSTACK Command                                  Ÿ
                                   54245              Ÿ                                                                     Ÿ
                                                      ¾þþþþþþþþþþþþþþþþþþþþþþþþþþþþþþþþþþþþþþþþþþþþþþþþþþþþþþþþþþþþþþþþþþþþþ»
000D16C 50E0 D000/9008_      00000 54246              SHOWGETS PROC
 USING  *,R7
 00D186 D601 B868 B868_00868 00868 54285                       IF    (CPGETLN,Z),'TSEG "No text in GET stack.",,WR'
 00D1A2 7020/47F0 7058 0D1A2 0D18E 54324                       ELSE  BEGIN
 00D1A6 5820 B864            00864 54335  1                      L     R2,CPGETSTK         Load pointer to GET stack
 00D1AA 4110 725C/4100_      0D3E2 54336  1                      TSEG  ''''
 00D1BC 1812/4800 B868_            54354  1                      TSEG  @R2,LH:CPGETLN
 00D1CC 4110 725D/4100_      0D3E3 54381  1                      TSEG  ''' - GET stack text.',,WR
 00D1DE                            54399                       END
 00D1DE 47F0 C7DE            007DE 54403                       B     CVNEXT
 00D1E2 18D8/9808 D004_            54404                       PEND
 DROP   *,R7
1MODE     (MODE4072) (12:48) (15MAR04) SHOW WVOLUME command                                                                 Page  144
0Current Usings:  (CP,R11) (CV,R12)
0Loc    Object Code    Addr1 Addr2  Stmt Lv Lineno    Source Statement           (Hibal 5, Asmedit 3.3)  HLASM R4.0  2004/03/15 12.48
+___    ______ ____    _____ _____  ____ __ ______    ______ _________
0                                  54425              ¿þþþþþþþþþþþþþþþþþþþþþþþþþþþþþþþþþþþþþþþþþþþþþþþþþþþþþþþþþþþþþþþþþþþþþÜ
                                   54426              Ÿ                                                                     Ÿ
                                   54427              Ÿ  SHOWWVOL -- SHOW WVOLUME command.                                  Ÿ
                                   54428              Ÿ                                                                     Ÿ
                                                      ¾þþþþþþþþþþþþþþþþþþþþþþþþþþþþþþþþþþþþþþþþþþþþþþþþþþþþþþþþþþþþþþþþþþþþþ»
000D1F0 50E0 D000/9008_      00000 54429              SHOWWVOL PROC
 USING  *,R7
 00D20A 58E0 717E/0DEE       0D388 54468                       VCALL COLLOPTS       Allow collect options
                                   54472
 00D210 D601 CDDA CDDA_00DDA 00DDA 54473                       IF    (CVVOLMAX,Z),BEGIN
 00D21A 4110 71EC/4100_      0D3F6 54489  1                      SETMSG 'No volumes.'
 00D222 47F0 C7D0            007D0 54493  1                      B     CVNXTMSG
 00D226                            54494                       END
                                   54498
 00D226 1B22                       54499                       CLEAR R2
 00D228 4920 CDDA/47B0_      00DDA 54503                       WHILE (R2,LT,CVVOLMAX),BEGIN
 00D230 18F2                       54522  1                      LR    R15,R2
 00D232 4CF0 718E            0D398 54523  1                      MH    R15,=H'6'
 00D236 411F CDDC/4100_      00DDC 54524  1                      TSEG  CVVOL(R15),6,B
 00D248 4120 2001            00001 54554  1                      LA    R2,@R2+1
 00D24C 47F0 701E            0D228 54555                       END
                                   54560
 00D250 47F0 C7DE            007DE 54561                       B     CVNEXT
 00D254 18D8/9808 D004_            54562                       PEND
 DROP   *,R7
                                   54582
                                   54583                       QLTORG
1MODE     (MODE4072) (12:48) (15MAR04) SHOW VOLUMES Command                                                                 Page  145
0Current Usings:  (CP,R11) (CV,R12)
0Loc    Object Code    Addr1 Addr2  Stmt Lv Lineno    Source Statement           (Hibal 5, Asmedit 3.3)  HLASM R4.0  2004/03/15 12.48
+___    ______ ____    _____ _____  ____ __ ______    ______ _________
0                                  54641              ¿þþþþþþþþþþþþþþþþþþþþþþþþþþþþþþþþþþþþþþþþþþþþþþþþþþþþþþþþþþþþþþþþþþþþþÜ
                                   54642              Ÿ                                                                     Ÿ
                                   54643              Ÿ  SHOWVOLS -- SHOW VOLUMES command.                                  Ÿ
                                   54644              Ÿ                                                                     Ÿ
                                                      ¾þþþþþþþþþþþþþþþþþþþþþþþþþþþþþþþþþþþþþþþþþþþþþþþþþþþþþþþþþþþþþþþþþþþþþ»
000D402 50E0 D000/9008_      00000 54645              SHOWVOLS PROC
 USING  *,R7
 00D41C 58E0 7764/0DEE       0DB80 54684                       VCALL EXIT1               LOCAL exit - Show vols
 00D422 47F0 C7DE            007DE 54688                       B     CVNEXT
 00D426 18D8/9808 D004_            54689                       PEND
 DROP   *,R7
1MODE     (MODE4072) (12:48) (15MAR04) SET/SHOW MESSAGE Commands                                                            Page  146
0Current Usings:  (CP,R11) (CV,R12)
0Loc    Object Code    Addr1 Addr2  Stmt Lv Lineno    Source Statement           (Hibal 5, Asmedit 3.3)  HLASM R4.0  2004/03/15 12.48
+___    ______ ____    _____ _____  ____ __ ______    ______ _________
0                                  54710              ¿þþþþþþþþþþþþþþþþþþþþþþþþþþþþþþþþþþþþþþþþþþþþþþþþþþþþþþþþþþþþþþþþþþþþþÜ
                                   54711              Ÿ                                                                     Ÿ
                                   54712              Ÿ  SETMSG -- SET MESSAGE command  (priv'd).                           Ÿ
                                   54713              Ÿ                                                                     Ÿ
                                                      ¾þþþþþþþþþþþþþþþþþþþþþþþþþþþþþþþþþþþþþþþþþþþþþþþþþþþþþþþþþþþþþþþþþþþþþ»
000D434 50E0 D000/9008_      00000 54714              SETMSG   PROC
 USING  *,R7
 00D44E 58E0 7736/0DEE       0DB84 54753                       VCALL ORVCPASS            (Allow SPIRES to intercept)
                                   54757
 00D454 1B66                       54758                       CLEAR R6
                                   54762
 00D456 95D4 BD24/4770_00D24       54763                       IF    (CPCMNM,EQ,'M'),BEGIN  Set message...
 00D45E 4160 CA18            00A18 54780  1                      LA    R6,CVMSGCK
 00D462 9130 B3BE/4770_003BE       54781  1                      IF    (CPSFSPR+CPSFOPR,NZ),EXIT
 00D46A 58E0 773A/0DEE       0DB88 54804  1                      VCALL NOTVALID
 00D470                            54808                       END
                                   54812
 00D470 95C1 BD24/4770_00D24       54813                       IF    (CPCMNM,EQ,'A'),BEGIN  Set amessage...
 00D478 4160 CBF8            00BF8 54830  1                      LA    R6,CVAMSGCK
 00D47C 9160 B3BE/4770_003BE       54831  1                      IF    (CPSFSPR+CPSFAPR,NZ),EXIT
 00D484 58E0 773A/0DEE       0DB88 54854  1                      VCALL NOTVALID
 00D48A                            54858                       END
                                   54862
 00D48A 95E4 BD24/4770_00D24       54863                       IF    (CPCMNM,EQ,'U'),BEGIN  Set umessage...
 00D492 4160 CB08            00B08 54880  1                      LA    R6,CVUMSGCK
 00D496 9130 B3BE/4770_003BE       54881  1                      IF    (CPSFSPR+CPSFOPR,NZ),EXIT
 00D49E 9102 B3BE/47E0_003BE       54904  1                      IF    (CPSFADM,AND,(CPSGRP,EQ,'GA')),EXIT
 00D4B0 58E0 773A/0DEE       0DB88 54938  1                      VCALL NOTVALID
 00D4B6                            54942                       END
                                   54946
 00D4B6 95E5 BD24/4770_00D24       54947                       IF    (CPCMNM,EQ,'V'),BEGIN  Set vmessage...
 00D4BE 4160 CCE8            00CE8 54964  1                      LA    R6,CVVMSGCK
 00D4C2 9130 B3BE/4770_003BE       54965  1                      IF    (CPSFSPR+CPSFOPR,Z),'VCALL NOTVALID'
 00D4D0                            54994                       END
                                   54998
 00D4D0 1266/4770 708E_            54999                       IF    (R6,Z),'VCALL NOTVALID'
                                   55022
 00D4DC 58E0 B08C/581E_      0008C 55023                       SCINFO
 00D4EA 58E0 773E/0DEE       0DB8C 55032                       VCALL LRTRIM
 00D4F0 58E0 7742/0DEE       0DB90 55036                       VCALL DEQUOTE             Dequote, if needed
 00D4F6 58E0 773E/0DEE       0DB8C 55040                       VCALL LRTRIM
                                   55044
 00D4FC 9001 D000/41D0_      00000 55045                       XPUSH R0,R1
 00D504 58E0 7746/0DEE       0DB94 55048                       VCALL LOCALTOD            Current time of day
 00D50A 5000 6000            00000 55052                       ST    R0,0(,R6)
 00D50E D7EA 6004 6004 00004 00004 55053                       CLEAR (@R6+4,L'CVMSG)
 00D514 4BD0 7788/9801_      0DBD6 55060                       XPOP  R0,R1
                                   55063
 00D51C 1200/47D0 70F4             55064                       IF    (R0,POS),BEGIN      New message...
 00D522 D2EA 6004 C4D8 00004 004D8 55078  1                      MVC   @R6+4(L'CVMSG),CVBLANKS
 00D528 5900 774A/47D0_      0DB98 55079  1                      CEIL  R0,L'CVMSG
 00D534 18F0                       55098  1                      LR    R15,R0
 00D536 06F0/12FF/4740_            55099  1                      MOVE  R15,@R6+4,@R1
1MODE     (MODE4072) (12:48) (15MAR04) SET/SHOW MESSAGE Commands                                                            Page  147
0Current Usings:  (*,R7) (CP,R11) (CV,R12)
0Loc    Object Code    Addr1 Addr2  Stmt Lv Lineno    Source Statement           (Hibal 5, Asmedit 3.3)  HLASM R4.0  2004/03/15 12.48
+___    ______ ____    _____ _____  ____ __ ______    ______ _________
000D542                            55137                       END
                                   55141
 00D542 41F0 0001/4AF0_      00001 55142                       INCR  R15,CVCHKUC         Checkpointing needed
 00D54E 47F0 C7DE            007DE 55148                       B     CVNEXT
                                   55149
 00D552 18D8/9808 D004_            55150                       PEND
 DROP   *,R7
1MODE     (MODE4072) (12:48) (15MAR04) SET/SHOW MESSAGE Commands                                                            Page  148
0Current Usings:  (CP,R11) (CV,R12)
0Loc    Object Code    Addr1 Addr2  Stmt Lv Lineno    Source Statement           (Hibal 5, Asmedit 3.3)  HLASM R4.0  2004/03/15 12.48
+___    ______ ____    _____ _____  ____ __ ______    ______ _________
0                                  55171              ¿þþþþþþþþþþþþþþþþþþþþþþþþþþþþþþþþþþþþþþþþþþþþþþþþþþþþþþþþþþþþþþþþþþþþþÜ
                                   55172              Ÿ                                                                     Ÿ
                                   55173              Ÿ  SHOWMSG -- SHOW MESSAGE command.                                   Ÿ
                                   55174              Ÿ                                                                     Ÿ
                                                      ¾þþþþþþþþþþþþþþþþþþþþþþþþþþþþþþþþþþþþþþþþþþþþþþþþþþþþþþþþþþþþþþþþþþþþþ»
000D560 50E0 D000/9008_      00000 55175              SHOWMSG  PROC
 USING  *,R7
 00D57A 58E0 7622/0DEE       0DB9C 55214                       VCALL COLLOPTS
 00D580 4160 CA18            00A18 55218                       LA    R6,CVMSGCK
 00D584 4110 7678/4100_      0DBF2 55219                       SETMSG 'No message.'
                                   55223
 00D58C 95C1 BD24/4770_00D24       55224                       IF    (CPCMNM,EQ,'A'),BEGIN  Show amessage...
 00D594 4160 CBF8            00BF8 55241  1                      LA    R6,CVAMSGCK
 00D598 4110 765E/4100_      0DBD8 55242  1                      SETMSG 'No accounting message.'
 00D5A0                            55246                       END
                                   55250
 00D5A0 95E4 BD24/4770_00D24       55251                       IF    (CPCMNM,EQ,'U'),BEGIN  Show umessage...
 00D5A8 4160 CB08            00B08 55268  1                      LA    R6,CVUMSGCK
 00D5AC 4110 75D6/4100_      0DB50 55269  1                      SETMSG 'No user message.'
 00D5B4                            55273                       END
                                   55277
 00D5B4 95E5 BD24/4770_00D24       55278                       IF    (CPCMNM,EQ,'V'),BEGIN  Show vmessage...
 00D5BC 4160 CCE8            00CE8 55295  1                      LA    R6,CVVMSGCK
 00D5C0 4110 75E6/4100_      0DB60 55296  1                      SETMSG 'No View message.'
 00D5C8                            55300                       END
                                   55304
 00D5C8 D6EA 6004 6004 00004 00004 55305                       OC    @R6+4(L'CVMSG),@R6+4
 00D5CE 4770 7076            0D5F0 55306                       IF    Z,BEGIN
 00D5D2 95D4 BD24/4770_00D24       55317  1                      IF    ((CPCMNM,EQ,'M'),AND,(CVUMSG,NZ)),SHOWUMSG
 00D5E4 9110 B477/4710_00477       55352  1                      IF    CPFTYPED,CVNXTMSG
 00D5EC 47F0 C7DE            007DE 55370  1                      B     CVNEXT
 00D5F0                            55371                       END
                                   55375
 00D5F0 58E0 761A/0DEE       0DB94 55376                       VCALL LOCALTOD
 00D5F6 1820                       55380                       LR    R2,R0
 00D5F8 5800 6000            00000 55381                       L     R0,@R6
 00D5FC 1B11/1B33                  55382                       CLEAR R1,R3
 00D600 18FD/41D0 D020             55388                       XPUSH ,,30,PTR=R15
 00D606 58E0 7626/0DEE       0DBA0 55391                       VCALL FMTRCLCK            "hh:mm" or "hh:mm mm/dd/yyyy"
 00D60C 41F0 B050/58E0_      00050 55395                       TSEG  (R1),(R0)
 00D616 4BD0 7674            0DBEE 55419                       XPOP  ,,30
 00D61A 4110 C4D8/4100_      004D8 55421                       TSEG  CVBLANKS,2
 00D62C 4110 6004/4100_      00004 55451                       SETMSG @R6+4,L'CVMSG
 00D634 58E0 7612/0DEE       0DB8C 55467                       VCALL LRTRIM
 00D63A 41F0 B050/58E0_      00050 55471                       TSEG  (R1),(R0),WR
 00D644 4770 C7DA            007DA 55495                       BNZ   CVABORT
                                   55496
 00D648 95D4 BD24/4770_00D24       55497                       IF    ((CPCMNM,EQ,'M'),AND,(CVUMSG,NZ)),BEGIN
 00D65A 58E0 761A/0DEE       0DB94 55529  1           SHOWUMSG   VCALL LOCALTOD
 00D660 1820                       55533  1                      LR    R2,R0
 00D662 5800 CB08            00B08 55534  1                      L     R0,CVUMSGCK
 00D666 1B11/1B33                  55535  1                      CLEAR R1,R3
 00D66A 18FD/41D0 D020             55541  1                      XPUSH ,,30,PTR=R15
1MODE     (MODE4072) (12:48) (15MAR04) SET/SHOW MESSAGE Commands                                                            Page  149
0Current Usings:  (*,R7) (CP,R11) (CV,R12)
0Loc    Object Code    Addr1 Addr2  Stmt Lv Lineno    Source Statement           (Hibal 5, Asmedit 3.3)  HLASM R4.0  2004/03/15 12.48
+___    ______ ____    _____ _____  ____ __ ______    ______ _________
000D670 58E0 7626/0DEE       0DBA0 55544  1                      VCALL FMTRCLCK            "hh:mm" or "hh:mm mm/dd/yyyy"
 00D676 41F0 B050/58E0_      00050 55548  1                      TSEG  (R1),(R0)
 00D680 4BD0 7674            0DBEE 55572  1                      XPOP  ,,30
 00D684 4110 C4D8/4100_      004D8 55574  1                      TSEG  CVBLANKS,2
 00D696 4110 CB0C/4100_      00B0C 55604  1                      SETMSG CVUMSG
 00D69E 58E0 7612/0DEE       0DB8C 55618  1                      VCALL LRTRIM
 00D6A4 41F0 B050/58E0_      00050 55622  1                      TSEG  (R1),(R0),WR        Also give user message
 00D6AE                            55646                       END
 00D6AE 47F0 C7DE            007DE 55650                       B     CVNEXT
 00D6B2 18D8/9808 D004_            55651                       PEND
 DROP   *,R7
1MODE     (MODE4072) (12:48) (15MAR04) SET/SHOW WORD Commands                                                               Page  150
0Current Usings:  (CP,R11) (CV,R12)
0Loc    Object Code    Addr1 Addr2  Stmt Lv Lineno    Source Statement           (Hibal 5, Asmedit 3.3)  HLASM R4.0  2004/03/15 12.48
+___    ______ ____    _____ _____  ____ __ ______    ______ _________
0000000                00000 00009 55672              WORDWA   RECORD BEGIN
 000000 00                         55680  1           WORDFLAG   FLAG
 WORDFLAG.WORDFSYS 80 ONES         55684  1                      FLAG  WORDFSYS            - Allow systems account
                                   55689  1
 000001                            55690  1           WORDNAME   DS    CL8                 Word
 000009                00009 00009 55691                       END
-                                  55701              ¿þþþþþþþþþþþþþþþþþþþþþþþþþþþþþþþþþþþþþþþþþþþþþþþþþþþþþþþþþþþþþþþþþþþþþÜ
                                   55702              Ÿ                                                                     Ÿ
                                   55703              Ÿ  SETWORD -- SET WORD command  (priv'd).                             Ÿ
                                   55704              Ÿ                                                                     Ÿ
                                                      ¾þþþþþþþþþþþþþþþþþþþþþþþþþþþþþþþþþþþþþþþþþþþþþþþþþþþþþþþþþþþþþþþþþþþþþ»
000D6C0 50E0 D000/9008_      00000 55705              SETWORD  PROC  WORDWA
 USING  *,R7
 USING  WORDWA-(4+36),R8
 00D6DA 4160 8028            00000 55755                       LA    R6,WORDWA
 USING  WORDWA,R6                  55756                       USING WORDWA,R6
 00D6DE D708 6000 6000 00000 00000 55765                       CLEAR WORDWA
                                   55772
 00D6E4 9130 B3BE/4770_003BE       55773                       IF    (CPSFSPR+CPSFOPR,Z),'VCALL NOTVALID'  Priv'd
                                   55802
 00D6F2 5810 B08C/1B00_      0008C 55803                       SCAN  ,
 00D740 58E0 74D6/0DEE       0DBB0 55834                       SCANCHK ,
 00D746 1200/4780 7104             55839                       IF    (R0,NZ),BEGIN            Word given...
 00D74C 957D 1000/4780_00000       55853  1                      IF    ((@R1,EQ,''''),OR,(@R1,EQ,'"')),'VCALL NOTVALID'
 00D762 954D 1000/4770_00000       55893  1                      IF    (@R1,EQ,'('),'VCALL NOTVALID'
 00D770 58F0 B08C/4110_      0008C 55918  1                      SCUPCASE WORDNAME         Save upper cased token
                                   55939  1
 00D782 9680 6000      00000       55940  1                      SET   WORDFSYS            Assume systems allowed
 00D786 5810 B08C/1B00_      0008C 55946  1                      SCAN  WORDPRT
 00D7D8 58E0 74D6/0DEE       0DBB0 55978  1                      SCANCHK
 00D7DE                            55983                       END
                                   55987
 00D7DE 1B22                       55988                       CLEAR R2                  Assume breaks not needed
 00D7E0 D607 C050 C050_00050 00050 55992                       IF    ((CVWORD,Z),AND,(WORDNAME,NZ)),'LA R2,1'
 00D7F8 D607 C050 C050_00050 00050 56029                       IF    ((CVWORD,NZ),AND,(WORDNAME,Z)),'LA R2,1'
 00D810 9110 C4C7/47E0_004C7       56066                       IF    (CVFSYST,AND,~WORDFSYS),'LA R2,1'
 00D824 9110 C4C7/4710_004C7       56101                       IF    (~CVFSYST,AND,WORDFSYS),'LA R2,1'
                                   56136
 00D838 D207 C050 6001 00050 00001 56137                       MVC   CVWORD,WORDNAME     Set word
 00D83E 94EF C4C7      004C7       56138                       CLEAR CVFSYST
 00D842 9180 6000/47E0_00000       56145                       IF    WORDFSYS,'SET CVFSYST'
 00D84E 58E0 74E2/0DEE       0DBBC 56171                       ACALL UPDWORD             Update word in SCIPCVT
                                   56175
 00D854 1222/4780 7186_            56176                       IF    (R2,NZ),'ACALL BRKLGN'  halt logon reads if needed
 00D860 47F0 C7DE            007DE 56199                       B     CVNEXT
 00D864 18D8/9808 D004_            56200                       PEND
 DROP   WORDWA-(4+36),R8
 DROP   *,R7
                                   56225              *
                                   56226              *
 00D874 E2E8E2E3C5D4E240_          56227              WORDPRT  OPTION SYSTEMS,SET,A,WORDFSYS
1MODE     (MODE4072) (12:48) (15MAR04) SET/SHOW WORD Commands                                                               Page  151
0Current Usings:  (WORDWA,R6) (CP,R11) (CV,R12)
0Loc    Object Code    Addr1 Addr2  Stmt Lv Lineno    Source Statement           (Hibal 5, Asmedit 3.3)  HLASM R4.0  2004/03/15 12.48
+___    ______ ____    _____ _____  ____ __ ______    ______ _________
000D89C D5D6E2E8E2E3C5D4_          56246                       OPTION NOSYSTEMS,CLEAR,A,WORDFSYS
 00D8C4 4040404040404040_          56266                       SCKW  ,V(NOTVALID)
                                   56281
 DROP   WORDWA,R6                  56282                       DROP  R6
                                   56289                       AIF   (&$PCODE).NULWORD
1MODE     (MODE4072) (12:48) (15MAR04) SET/SHOW WORD Commands                                                               Page  152
0Current Usings:  (CP,R11) (CV,R12)
0Loc    Object Code    Addr1 Addr2  Stmt Lv Lineno    Source Statement           (Hibal 5, Asmedit 3.3)  HLASM R4.0  2004/03/15 12.48
+___    ______ ____    _____ _____  ____ __ ______    ______ _________
0                                  56291              ¿þþþþþþþþþþþþþþþþþþþþþþþþþþþþþþþþþþþþþþþþþþþþþþþþþþþþþþþþþþþþþþþþþþþþþÜ
                                   56292              Ÿ                                                                     Ÿ
                                   56293              Ÿ  UPDWORD -- Local routine to update the word in the SCIPCVT,        Ÿ
                                   56294              Ÿ    if possible.                                                     Ÿ
                                   56295              Ÿ                                                                     Ÿ
                                                      ¾þþþþþþþþþþþþþþþþþþþþþþþþþþþþþþþþþþþþþþþþþþþþþþþþþþþþþþþþþþþþþþþþþþþþþ»
000D8EC 50E0 D000/9008_      00000 56296              UPDWORD  PROC
 USING  *,R7
 00D906 9102 C4C5/4710_004C5       56335                       IF    ~CVFTEST,BEGIN      Only for production...
 00D90E 5860 0010            00010 56350  1                      L     R6,CVTPTR
 00D912 5850 60CC            000CC 56351  1                      WITH  (CVT,R6),'L R5,CVTUSER'
 USING  CVT,R6
 DROP   CVT,R6
 00D916 1255/4780 7050             56375  1                      IF    (R5,NZ),BEGIN
 USING  USERCVT,R5                 56389  2                        WITH  (USERCVT,R5)
 00D91C D503 72BE 5000_0DBC4 00000 56402  2                        IF    (USERCVT,EQ,'SCIP'),BEGIN
 00D926 0700/4510 702A_            56419  3                          MODESET KEY=ZERO          ********
 00D936 D207 5074 C050 00074 00050 56426  3                          MVC   USEWORD,CVWORD      Update system WORD
 00D93C 9110 C4C7/47E0_004C7       56427  3                          IF    CVFSYST,'SET USEHSPFL.HSPFSYST'  allow systems
 00D948 4510 704A/0000_      0D950 56454  3                          MODESET KEY=NZERO         ********
 00D956                            56461  2                        END
 DROP   USERCVT,R5                 56465  1                      END
 00D956                            56474                       END
 00D956 18D8/9808 D004_            56478                       PEND
 DROP   *,R7
                                   56498                       AGO   .ENDWORD
                                   56499              .ENDWORD ANOP
1MODE     (MODE4072) (12:48) (15MAR04) SET/SHOW WORD Commands                                                               Page  153
0Current Usings:  (CP,R11) (CV,R12)
0Loc    Object Code    Addr1 Addr2  Stmt Lv Lineno    Source Statement           (Hibal 5, Asmedit 3.3)  HLASM R4.0  2004/03/15 12.48
+___    ______ ____    _____ _____  ____ __ ______    ______ _________
0                                  56501              ¿þþþþþþþþþþþþþþþþþþþþþþþþþþþþþþþþþþþþþþþþþþþþþþþþþþþþþþþþþþþþþþþþþþþþþÜ
                                   56502              Ÿ                                                                     Ÿ
                                   56503              Ÿ  BRKLGN -- Local routine to halt logon reads because something      Ÿ
                                   56504              Ÿ    has changed.                                                     Ÿ
                                   56505              Ÿ                                                                     Ÿ
                                                      ¾þþþþþþþþþþþþþþþþþþþþþþþþþþþþþþþþþþþþþþþþþþþþþþþþþþþþþþþþþþþþþþþþþþþþþ»
000D964 50E0 D000/9008_      00000 56506              BRKLGN   PROC
 USING  *,R7
 00D97E 5860 C1C0            001C0 56545                       L     R6,CVFJCB
 00D982                            56546                       LOOP  BEGIN
 USING  JCB,R6                     56552  1                      WITH  (JCB,R6)
 00D982 D604 604A 604A_0004A 0004A 56565  1                      IF    (JCBACCT,Z),BEGIN   In logon process...
 00D98C 9180 6060/4710_00060       56581  2                        IF    JCBWFSO,EXIT        Not logged on, scram
 00D994 9120 6063/4710_00063       56599  2                        IF    JCBBFPS,EXIT        psuedo sessions don't count
 00D99C 4800 6048            00048 56617  2                        LH    R0,JCBSEQ           Session number
 00D9A0 58E0 724A/0DEE       0DBC8 56618  2                        VCALL TBREAK              Halt read
 00D9A6                            56622  1                      END
 00D9A6 4160 60D0            000D0 56626  1                      LA    R6,JCBNEXT
 00D9AA 5960 C1C4/4750_      001C4 56627                       UNTIL (R6,GE,CVLJCB),END
 DROP   JCB,R6
 00D9B2 18D8/9808 D004_            56657                       PEND
 DROP   *,R7
1MODE     (MODE4072) (12:48) (15MAR04) SET/SHOW WORD Commands                                                               Page  154
0Current Usings:  (CP,R11) (CV,R12)
0Loc    Object Code    Addr1 Addr2  Stmt Lv Lineno    Source Statement           (Hibal 5, Asmedit 3.3)  HLASM R4.0  2004/03/15 12.48
+___    ______ ____    _____ _____  ____ __ ______    ______ _________
0                                  56678              ¿þþþþþþþþþþþþþþþþþþþþþþþþþþþþþþþþþþþþþþþþþþþþþþþþþþþþþþþþþþþþþþþþþþþþþÜ
                                   56679              Ÿ                                                                     Ÿ
                                   56680              Ÿ  SHOWWORD -- SHOW WORD command  (priv'd).                           Ÿ
                                   56681              Ÿ                                                                     Ÿ
                                                      ¾þþþþþþþþþþþþþþþþþþþþþþþþþþþþþþþþþþþþþþþþþþþþþþþþþþþþþþþþþþþþþþþþþþþþþ»
000D9C0 50E0 D000/9008_      00000 56682              SHOWWORD PROC
 USING  *,R7
 00D9DA 9130 B3BE/4770_003BE       56721                       IF    (CPSFSPR+CPSFOPR,Z),'VCALL NOTVALID'  priv'd
                                   56750
 00D9E8 5810 B08C/1B00_      0008C 56751                       SCAN  SWORDPRT
 00DA3A 58E0 71D6/0DEE       0DBB0 56783                       SCANCHK
                                   56788
 00DA40 D607 C050 C050_00050 00050 56789                       IF    (CVWORD,Z),'SETMSG "No word."'
                                   56814
 00DA52 707C/47F0 70C2 0DA52 0DA48 56815                       ELSE  BEGIN
 00DA56 4110 C050/4100_      00050 56826  1                      TSEG  CVWORD,,TB
 00DA68 4110 7223/4100_      0DBFD 56854  1                      TSEG  'is the word'
 00DA7A 9110 C4C7/4710_004C7       56872  1                      IF    ~CVFSYST,'TSEG " (Nosys)"'
 00DA94 4110 722E/4100_      0DC08 56910  1                      SETMSG '.'
 00DA9C                            56914                       END
                                   56918
 00DA9C 47F0 C7D0            007D0 56919                       B     CVNXTMSG
 00DAA0 18D8/9808 D004_            56920                       PEND
 DROP   *,R7
                                   56940              *
                                   56941              *
                                   56942              *
 00DAB0 D4C9D3E3C5D54040_          56943              SWORDPRT SCKW  MILTEN,V(SCNNOOP)
 00DAD8 E6E8D3C2E4D94040_          56958                       SCKW  WYLBUR,V(SCNNOOP)
 00DB00 4040404040404040_          56973                       SCKW  ,V(COLLPSH),PUSH
 00DB28 4040404040404040_          56988                       SCKW  ,V(NOTVALID)
                                   57003
                                   57004                       QLTORG
1MODE     (MODE4072) (12:48) (15MAR04) SET WBACKUP -- Set volume backup status                                              Page  155
0Current Usings:  (CP,R11) (CV,R12)
0Loc    Object Code    Addr1 Addr2  Stmt Lv Lineno    Source Statement           (Hibal 5, Asmedit 3.3)  HLASM R4.0  2004/03/15 12.48
+___    ______ ____    _____ _____  ____ __ ______    ______ _________
0000000                00000 00020 57050              SETWBWRK RECORD BEGIN
 000000                            57058  1           SETWBONT   DS    CL5                 - Online time
 000005                            57059  1                      DS    CL21                - Pad SETWBONT to 26 chars
 00001A                            57060  1                      DS    CL6                 - Add another 6 for new FMTCLCK
 000020                00020 00020 57061                       END
-                                  57071              ¿þþþþþþþþþþþþþþþþþþþþþþþþþþþþþþþþþþþþþþþþþþþþþþþþþþþþþþþþþþþþþþþþþþþþþÜ
                                   57072              Ÿ                                                                     Ÿ
                                   57073              Ÿ SET WBACKUP -- Set WYLBUR volume(s) for backup                      Ÿ
                                   57074              Ÿ                                                                     Ÿ
                                                      ¾þþþþþþþþþþþþþþþþþþþþþþþþþþþþþþþþþþþþþþþþþþþþþþþþþþþþþþþþþþþþþþþþþþþþþ»
000DC10 50E0 D000/9008_      00000 57075              SETWBKUP PROC  SETWBWRK
 USING  *,R7
 USING  SETWBWRK-(4+36),R8
 00DC2A 4160 8028            00000 57125                       LA    R6,SETWBWRK
 USING  SETWBWRK,R6                57126                       USING SETWBWRK,R6
 00DC2E 9120 B3BE/4710_003BE       57135                       IF    (~CPSFSPR,AND,~CPSFOPR),'VCALL NOTVALID'   Naugty
 00DC44 D71F 6000 6000 00000 00000 57173                       CLEAR SETWBWRK            Clear work area
 00DC4A 1B44                       57180                       CLEAR R4                  Clear volume count
                                   57184
 00DC4C                            57185                       LOOP  BEGIN
 00DC4C 5810 B08C/1B00_      0008C 57191  1                      SCAN  ,                   Pick up a volser
 00DC9A 58E0 74B6/0DEE       0E0E0 57222  1                      SCANCHK ,
 00DCA0 1200/4770 7086             57227  1                      IF    (R0,Z),BEGIN
 00DCA6 1244/4780 C7F0             57241  2                        IF    (R4,Z),CVABSENT     Nothing
 00DCAC 47F0 C7DE            007DE 57258  2                        B     CVNEXT              End of list
 00DCB0                            57259  1                      END
 00DCB0 95F0 F000/4750_00000       57263  1                      IF    ((@R15,GE,'0'),AND,(@R15,LE,'9')),BEGIN
 00DCC0 58E0 74BA/0DEE       0E0E4 57294  2                        VCALL DTB                 Convert minutes to binary
 00DCC6 1200/4780 70BE             57298  2                        IF    (R0,NZ),BEGIN       Invalid number ...
 00DCCC 41F0 B050/58E0_      00050 57312  3                          TSEG  (R1),(R0)
 00DCD6 4110 74F8/4100_      0E122 57336  3                          TSEG  ': Invalid digit -- Operand ignored.',,WR
 00DCE8 70C2/47F0 70EA 0DCE8 0DCCA 57354  2                        END   ELSE,BEGIN
 00DCEC 12FF/4770 70CE             57369  3                          IF    (R15,Z),BEGIN       Zero - clear the time
 00DCF2 D704 6000 6000 00000 00000 57383  4                            CLEAR SETWBONT            Clear back-online time
 00DCF8 70D2/47F0 70EA 0DCF8 0DCF0 57390  3                          END   ELSE,BEGIN          Non-zero value ...
 00DCFC 185F                       57405  4                            LR    R5,R15              Copy value into work reg
 00DCFE 4C50 74E4            0E10E 57406  4                            MH    R5,=H'60'           Convert minutes to seconds
 00DD02 58E0 74C6/0DEE       0E0F0 57407  4                            VCALL LOCALTOD            Get TOD clock value
 00DD08 1A05                       57411  4                            AR    R0,R5               Add in minutes specified
 00DD0A 41F0 6000            00000 57412  4                            LA    R15,SETWBONT        R15 -> String format area
 00DD0E 58E0 74CA/0DEE       0E0F4 57413  4                            VCALL FMTCLCK             Format HH:MM
 00DD14                            57417  3                          END
 00DD14                            57421  2                        END
 00DD14 70EE/70EE/47F0_0DD14 0DCB6 57425  1                      END   ELSE,BEGIN          Assume its a volser ...
 00DD18 4140 4001            00001 57442  2                        LA    R4,@R4+1            Count the volume
 00DD1C 58E0 74CE/0DEE       0E0F8 57443  2                        ACALL TAGBKUP             Tag the backup volume
 00DD22                            57447  1                      END
 00DD22 47F0 7022            0DC4C 57451                       END
 00DD26 47F0 C7DE            007DE 57456                       B     CVNEXT              Just to be safe ...
 00DD2A 18D8/9808 D004_            57457                       PEND
 DROP   SETWBWRK-(4+36),R8
1MODE     (MODE4072) (12:48) (15MAR04) SET WBACKUP -- Set volume backup status                                              Page  156
0Current Usings:  (SETWBWRK,R6) (CP,R11) (CV,R12)
0Loc    Object Code    Addr1 Addr2  Stmt Lv Lineno    Source Statement           (Hibal 5, Asmedit 3.3)  HLASM R4.0  2004/03/15 12.48
+___    ______ ____    _____ _____  ____ __ ______    ______ _________
0DROP   *,R7
                                   57482
 00DD38 50E0 D000/9008_      00000 57483              TAGBKUP  PROC
 USING  *,R7
 00DD52 5830 C740            00740 57522                       L     R3,CVVOLIST         Load pointer to volume table
 USING  VOLDSECT,R3                57523                       USING VOLDSECT,R3
 00DD56 D505 3002 F000_00002 00000 57532                       WHILE (VNAME,NE,@R15),BEGIN
 00DD60 4133 0044            00044 57551  1                      LA    R3,VOLENTSZ(R3)     Skip to next entry ...
 00DD64 95FF 3000/4770_00000       57552  1                      IF    (VOLDSECT,EQ,X'FF'),BEGIN
 00DD6C 41F0 B050/58E0_      00050 57569  2                        TSEG  (R1),(R0),B
 00DD76 4110 73F3/4100_      0E145 57593  2                        TSEG  ': Ignored -- volume not found',,WR
 00DD88 47F0 707C            0DDCE 57611  2                        B     TAGBKUPX            Return with no action
 00DD8C                            57612  1                      END
 00DD8C 47F0 7004            0DD56 57616                       END
 00DD90 9140 300A/4710_0000A       57621                       IF    ~VFLG3.VF3BKUP,BEGIN
 00DD98 9640 300A      0000A       57637  1                      SET   VFLG3.VF3BKUP
 00DD9C D204 300B 6000 0000B 00000 57644  1                      MVC   VOLONTIM,SETWBONT   Move in current back-online time
 00DDA2 4110 0001/4A10_      00001 57645  1                      INCR  R1,CVBKUPCT         Increment global backup count
 00DDAE 7060/47F0 707C 0DDAE 0DD96 57651                       END   ELSE,BEGIN
 00DDB2 41F0 B050/58E0_      00050 57666  1                      TSEG  (R1),(R0)
 00DDBC 4110 7410/4100_      0E162 57690  1                      TSEG  ': Ignored -- volume already marked for backup',,WR
 00DDCE                            57708                       END
 00DDCE 18D8/9808 D004_            57712              TAGBKUPX PEND
 DROP   *,R7
                                   57733
 DROP   VOLDSECT,R3                57734                       DROP  R3
 DROP   SETWBWRK,R6                57741                       DROP  R6
1MODE     (MODE4072) (12:48) (15MAR04) CLEAR WBACKUP -- Clear volume backup status                                          Page  157
0Current Usings:  (CP,R11) (CV,R12)
0Loc    Object Code    Addr1 Addr2  Stmt Lv Lineno    Source Statement           (Hibal 5, Asmedit 3.3)  HLASM R4.0  2004/03/15 12.48
+___    ______ ____    _____ _____  ____ __ ______    ______ _________
0                                  57749              ¿þþþþþþþþþþþþþþþþþþþþþþþþþþþþþþþþþþþþþþþþþþþþþþþþþþþþþþþþþþþþþþþþþþþþþÜ
                                   57750              Ÿ                                                                     Ÿ
                                   57751              Ÿ CLEAR WBACKUP -- Reset WYLBUR volume(s) backup status               Ÿ
                                   57752              Ÿ                                                                     Ÿ
                                                      ¾þþþþþþþþþþþþþþþþþþþþþþþþþþþþþþþþþþþþþþþþþþþþþþþþþþþþþþþþþþþþþþþþþþþþþ»
000DDDC 50E0 D000/9008_      00000 57753              CLRWBKUP PROC
 USING  *,R7
 00DDF6 9120 B3BE/4710_003BE       57792                       IF    (~CPSFSPR,AND,~CPSFOPR),'VCALL NOTVALID'   Naugty
 00DE0C 1B44                       57830                       CLEAR R4                  Clear volume count
                                   57834
 00DE0E                            57835                       LOOP  BEGIN
 00DE0E 5810 B08C/1B00_      0008C 57841  1                      SCAN  ,                   Pick up a volser
 00DE5C 58E0 72EA/0DEE       0E0E0 57872  1                      SCANCHK
 00DE62 1200/4770 707C             57877  1                      IF    (R0,Z),BEGIN
 00DE68 1244/4780 C7F0             57891  2                        IF    (R4,Z),CVABSENT     Nothing
 00DE6E 47F0 C7DE            007DE 57908  2                        B     CVNEXT              End of list
 00DE72                            57909  1                      END
 00DE72 4140 4001            00001 57913  1                      LA    R4,@R4+1            Count the volume
 00DE76 58E0 730A/0DEE       0E100 57914  1                      ACALL UTAGBKUP            Un-Tag the backup volume
 00DE7C 47F0 7018            0DE0E 57918                       END
 00DE80 47F0 C7DE            007DE 57923                       B     CVNEXT              Just to be safe ...
 00DE84 18D8/9808 D004_            57924                       PEND
 DROP   *,R7
                                   57944
 00DE92 50E0 D000/9008_      00000 57945              UTAGBKUP PROC
 USING  *,R7
 00DEAC 5830 C740            00740 57984                       L     R3,CVVOLIST         Load pointer to volume table
 USING  VOLDSECT,R3                57985                       USING VOLDSECT,R3
 00DEB0 D505 3002 F000_00002 00000 57994                       WHILE (VNAME,NE,@R15),BEGIN
 00DEBA 4133 0044            00044 58013  1                      LA    R3,VOLENTSZ(R3)     Skip to next entry ...
 00DEBE 95FF 3000/4770_00000       58014  1                      IF    (VOLDSECT,EQ,X'FF'),BEGIN
 00DEC6 41F0 B050/58E0_      00050 58031  2                        TSEG  (R1),(R0),B
 00DED0 4110 7299/4100_      0E145 58055  2                        TSEG  ': Ignored -- volume not found',,WR
 00DEE2 47F0 707A            0DF26 58073  2                        B     UTAGBKPX            Return with no action
 00DEE6                            58074  1                      END
 00DEE6 47F0 7004            0DEB0 58078                       END
 00DEEA 9140 300A/47E0_0000A       58083                       IF    VFLG3.VF3BKUP,BEGIN
 00DEF2 94BF 300A      0000A       58099  1                      CLEAR VFLG3.VF3BKUP       Reset backup status
 00DEF6 D704 300B 300B 0000B 0000B 58107  1                      CLEAR VOLONTIM            Reset back-online time
 00DEFC 4810 C158/0610_      00158 58114  1                      DECR  R1,CVBKUPCT         Decrement global backup count
 00DF06 705E/47F0 707A 0DF06 0DEF0 58119                       END   ELSE,BEGIN
 00DF0A 41F0 B050/58E0_      00050 58134  1                      TSEG  (R1),(R0)
 00DF14 4110 72E3/4100_      0E18F 58158  1                      TSEG  ': Ignored -- volume not marked for backup',,WR
 00DF26                            58176                       END
 00DF26 18D8/9808 D004_            58180              UTAGBKPX PEND
 DROP   *,R7
                                   58201
 DROP   VOLDSECT,R3                58202                       DROP  R3
1MODE     (MODE4072) (12:48) (15MAR04) SHOWBKUP -- Show volumes in backup status                                            Page  158
0Current Usings:  (CP,R11) (CV,R12)
0Loc    Object Code    Addr1 Addr2  Stmt Lv Lineno    Source Statement           (Hibal 5, Asmedit 3.3)  HLASM R4.0  2004/03/15 12.48
+___    ______ ____    _____ _____  ____ __ ______    ______ _________
0                                  58210              ¿þþþþþþþþþþþþþþþþþþþþþþþþþþþþþþþþþþþþþþþþþþþþþþþþþþþþþþþþþþþþþþþþþþþþþÜ
                                   58211              Ÿ                                                                     Ÿ
                                   58212              Ÿ SHOWBKUP -- Display volumes in backup status                        Ÿ
                                   58213              Ÿ                                                                     Ÿ
                                                      ¾þþþþþþþþþþþþþþþþþþþþþþþþþþþþþþþþþþþþþþþþþþþþþþþþþþþþþþþþþþþþþþþþþþþþþ»
000DF34 50E0 D000/9008_      00000 58214              SHOWBKUP XPROC
 USING  *,R7
 00DF4E D601 C158 C158_00158 00158 58254                       IF    (CVBKUPCT,NZ),BEGIN
 00DF58 1B44                       58270  1                      CLEAR R4                  Clear heading flag
 00DF5A 5830 C740            00740 58274  1                      L     R3,CVVOLIST         Load pointer to volume table
 USING  VOLDSECT,R3                58275  1                      USING VOLDSECT,R3
 00DF5E 95FF 3000/4780_00000       58284  1                      WHILE (VOLDSECT,NE,X'FF'),BEGIN
 00DF66 9140 300A/47E0_0000A       58303  2                        IF    ~VFLG3.VF3BKUP,SHOBKNXT
 00DF6E D603 3024 3024_00024 00024 58322  2                        IF    (VOLUCBAD,Z),SHOBKNXT
 00DF78 9120 3008/4710_00008       58341  2                        IF    (VFLG1.VF1PRIV,OR,~VFLG3.VF3SHOW),BEGIN
 00DF88 9130 B3BE/4780_003BE       58372  3                          IF    (CPSFSPR+CPSFOPR,Z),SHOBKNXT
 00DF90                            58395  2                        END
 00DF90 9140 3008/47E0_00008       58399  2                        IF    ~VFLG1.VF1AVAIL,SHOBKNXT
 00DF98 1244/4770 706E             58418  2                        IF    (R4,Z),BEGIN        Need heading ...
 00DF9E 4110 726A/4100_      0E1B8 58432  3                          TSEG  'The following online volumes are being backed up:'
 00DFB0 1B00/41F0 B050_            58450  3                          TCR
 00DFBC                            58475  2                        END
 00DFBC 4110 C4D8/4100_      004D8 58479  2                        TSEG  CVBLANKS,4          Indent volsers
 00DFCE 4110 3002/4100_      00002 58509  2                        TSEG  VNAME,,B            Plant the volser
 00DFE0 D604 300B 300B_0000B 0000B 58537  2                        IF    (VOLONTIM,NZ),BEGIN
 00DFEA 4110 71C2/4100_      0E110 58553  3                          TSEG  '   (Back online by',,B
 00DFFC 4110 300B/4100_      0000B 58571  3                          TSEG  VOLONTIM
 00E00E 4110 729B/4100_      0E1E9 58599  3                          TSEG  ')'
 00E020                            58617  2                        END   ,
 00E020 1B00/41F0 B050_            58621  2                        TCR                       Add a carriage return
 00E02C 5E40 71BA            0E108 58646  2                        INCR  R4                  We put out one volume
 00E030 4133 0044            00044 58649  2           SHOBKNXT     LA    R3,VOLENTSZ(R3)     Skip to next entry ...
 00E034 47F0 7010            0DF5E 58650  1                      END
 00E038 1244/4780 7132             58655  1                      IF    (R4,NZ),BEGIN       Double check ...
 00E03E 4110 7142/4100_      0E090 58669  2                        TSEG  'Datasets on these volumes are inaccessible until',,B
 00E050 4110 7172/4100_      0E0C0 58687  2                        TSEG  'the backup process ends.'
 00E062 1B00/41F0 B050_            58705  2                        TCR
 00E06E 4110 729C/4100_      0E1EA 58730  2                        TSEG  ' ',,WR             Add a blank line for readability
 00E080                            58748  1                      END
 00E080                            58752                       END
 00E080 18D8/9808 D004_            58756                       PEND
 DROP   *,R7
                                   58776
 DROP   VOLDSECT,R3                58777                       DROP  R3
                                   58784
                                   58785                       VLTORG
 00E090                            58793                       END   .
 00E090 C481A381A285A3A2           58796                             =C'Datasets on these volumes are inaccessible until'
 00E0C0 A388854082818392           58797                             =C'the backup process ends.'
 00E0D8 00000000                   58798                             =V(NOTVALID)
 00E0DC 00000000                   58799                             =V(NSCAN)
 00E0E0 00000000                   58800                             =V(SCANCHK)
 00E0E4 00000000                   58801                             =V(DTB)
1MODE     (MODE4072) (12:48) (15MAR04) SHOWBKUP -- Show volumes in backup status                                            Page  159
0Current Usings:  (CP,R11) (CV,R12)
0Loc    Object Code    Addr1 Addr2  Stmt Lv Lineno    Source Statement           (Hibal 5, Asmedit 3.3)  HLASM R4.0  2004/03/15 12.48
+___    ______ ____    _____ _____  ____ __ ______    ______ _________
000E0E8 00000000                   58802                             =V(SEG)
 00E0EC 00000000                   58803                             =V(SEGWR)
 00E0F0 00000000                   58804                             =V(LOCALTOD)
 00E0F4 00000000                   58805                             =V(FMTCLCK)
 00E0F8 0000DD38                   58806                             =A(TAGBKUP)
 00E0FC 00000000                   58807                             =V(SEGB)
 00E100 0000DE92                   58808                             =A(UTAGBKUP)
 00E104 00000000                   58809                             =V(SEGCR)
 00E108 00000001                   58810                             =A(1)
 00E10C 000C                       58811                             =Y((12+3)/4*4)
 00E10E 003C                       58812                             =H'60'
 00E110 4040404DC2818392           58813                             =C'   (Back online by'
 00E122 7A40C995A5819389           58814                             =C': Invalid digit -- Operand ignored.'
 00E145 7A40C98795969985           58815                             =C': Ignored -- volume not found'
 00E162 7A40C98795969985           58816                             =C': Ignored -- volume already marked for backup'
 00E18F 7A40C98795969985           58817                             =C': Ignored -- volume not marked for backup'
 00E1B8 E388854086969393           58818                             =C'The following online volumes are being backed up:'
 00E1E9 5D                         58819                             =C')'
 00E1EA 40                         58820                             =C' '

1MODE     (MODE4072) (12:48) (15MAR04) Relocation Dictionary                                                                Page  160
-   Pos.Id   Rel.Id   Flags    Address                                                       HLASM R4.0  2004/03/15 12.48
0  00000001 00000001    0C    00000878
   00000001 00000001    0C    00000880
   00000001 00000001    0C    0000089C
   00000001 00000001    0C    000008A4
   00000001 00000001    0C    00000E94
   00000001 00000001    0C    00000EBC
   00000001 00000001    0C    00000EE4
   00000001 00000001    0C    00001080
   00000001 00000001    0C    000010A8
   00000001 00000001    0C    000010EC
   00000001 00000001    0C    00001118
   00000001 00000001    0C    0000111C
   00000001 00000001    0C    00001120
   00000001 00000001    0C    00001294
   00000001 00000001    0C    000012BC
   00000001 00000001    0C    000012E8
   00000001 00000001    0C    00001A08
   00000001 00000001    0C    00001A14
   00000001 00000001    0C    00001A28
   00000001 00000001    0C    00001AA4
   00000001 00000001    0C    00001AF4
   00000001 00000001    0C    00001B1C
   00000001 00000001    0C    00001B44
   00000001 00000001    0C    00001B6C
   00000001 00000001    0C    00001C84
   00000001 00000001    0C    00001DC4
   00000001 00000001    0C    00001E3C
   00000001 00000001    0C    00001E64
   00000001 00000001    0C    00001EB4
   00000001 00000001    0C    00001EDC
   00000001 00000001    0C    00001F04
   00000001 00000001    0C    00001F2C
   00000001 00000001    0C    00001F54
   00000001 00000001    0C    00001FCC
   00000001 00000001    0C    00002094
   00000001 00000001    0C    000020BC
   00000001 00000001    0C    000020E4
   00000001 00000001    0C    0000210C
   00000001 00000001    0C    00002134
   00000001 00000001    0C    0000215C
   00000001 00000001    0C    00002184
   00000001 00000001    0C    000021AC
   00000001 00000001    0C    000021D4
   00000001 00000001    0C    000021FC
   00000001 00000001    0C    00002224
   00000001 00000001    0C    000022EC
   00000001 00000001    0C    000023DC
   00000001 00000001    0C    00002404
   00000001 00000001    0C    0000247C
   00000001 00000001    0C    000026AC
   00000001 00000001    0C    000026D4
   00000001 00000001    0C    000026FC
   00000001 00000001    0C    0000274C
   00000001 00000001    0C    00002774
   00000001 00000001    0C    000027C4
1MODE     (MODE4072) (12:48) (15MAR04) Relocation Dictionary                                                                Page  161
   00000001 00000001    0C    000027EC
   00000001 00000001    0C    0000283C
   00000001 00000001    0C    00002864
   00000001 00000001    0C    0000288C
   00000001 00000001    0C    000028B4
   00000001 00000001    0C    000028DC
   00000001 00000001    0C    00002904
   00000001 00000001    0C    0000292C
   00000001 00000001    0C    0000297C
   00000001 00000001    0C    000029A4
   00000001 00000001    0C    000029CC
   00000001 00000001    0C    00002AE4
   00000001 00000001    0C    00002B0C
   00000001 00000001    0C    00002B34
   00000001 00000001    0C    00002B5C
   00000001 00000001    0C    00002BD4
   00000001 00000001    0C    00002BFC
   00000001 00000001    0C    00002C24
   00000001 00000001    0C    00002C4C
   00000001 00000001    0C    00002C74
   00000001 00000001    0C    00002C9C
   00000001 00000001    0C    00002CC4
   00000001 00000001    0C    00002CEC
   00000001 00000001    0C    00002D14
   00000001 00000001    0C    00002D3C
   00000001 00000001    0C    00002D64
   00000001 00000001    0C    00002D8C
   00000001 00000001    0C    00002DB4
   00000001 00000001    0C    00002DDC
   00000001 00000001    0C    00003354
   00000001 00000001    0C    0000337C
   00000001 00000001    0C    000033A4
   00000001 00000001    0C    000033F4
   00000001 00000001    0C    0000341C
   00000001 00000001    0C    00003494
   00000001 00000001    0C    000034BC
   00000001 00000001    0C    000034E4
   00000001 00000001    0C    0000350C
   00000001 00000001    0C    00003534
   00000001 00000001    0C    0000355C
   00000001 00000001    0C    00003584
   00000001 00000001    0C    00003720
   00000001 00000001    0C    00003748
   00000001 00000001    0C    00003770
   00000001 00000001    0C    00003838
   00000001 00000001    0C    00003A68
   00000001 00000001    0C    00003A90
   00000001 00000001    0C    00003C58
   00000001 00000001    0C    00003C88
   00000001 00000001    0C    00003CB0
   00000001 00000001    0C    00003CD8
   00000001 00000001    0C    00003D00
   00000001 00000001    0C    00003D28
   00000001 00000001    0C    00003D50
   00000001 00000001    0C    00003D78
   00000001 00000001    0C    00003DA0
   00000001 00000001    0C    00003DC8
   00000001 00000001    0C    00003DF0
   00000001 00000001    0C    00003E18
1MODE     (MODE4072) (12:48) (15MAR04) Relocation Dictionary                                                                Page  162
   00000001 00000001    0C    00003E40
   00000001 00000001    0C    00003E68
   00000001 00000001    0C    00003E90
   00000001 00000001    0C    00003EB8
   00000001 00000001    0C    00003EE0
   00000001 00000001    0C    00003F08
   00000001 00000001    0C    00003F30
   00000001 00000001    0C    00003F58
   00000001 00000001    0C    00003F80
   00000001 00000001    0C    00003FA8
   00000001 00000001    0C    00003FD0
   00000001 00000001    0C    00003FF8
   00000001 00000001    0C    00004070
   00000001 00000001    0C    00004098
   00000001 00000001    0C    000040C0
   00000001 00000001    0C    000040E8
   00000001 00000001    0C    00004110
   00000001 00000001    0C    00004138
   00000001 00000001    0C    00004160
   00000001 00000001    0C    0000458C
   00000001 00000001    0C    00004714
   00000001 00000001    0C    00004918
   00000001 00000001    0C    000049F0
   00000001 00000001    0C    00004A00
   00000001 00000001    0C    00004A04
   00000001 00000001    0C    00004A10
   00000001 00000001    0C    00004A14
   00000001 00000001    0C    00004D60
   00000001 00000001    0C    00004F18
   00000001 00000001    0C    00004F90
   00000001 00000001    0C    00004F98
   00000001 00000001    0C    00004F9C
   00000001 00000001    0C    00004FA0
   00000001 00000001    0C    00005ED8
   00000001 00000001    0C    00005F24
   00000001 00000001    0C    000065E4
   00000001 00000001    0C    0000660C
   00000001 00000001    0C    00006634
   00000001 00000001    0C    0000665C
   00000001 00000001    0C    00006684
   00000001 00000001    0C    000066AC
   00000001 00000001    0C    000066D4
   00000001 00000001    0C    000066FC
   00000001 00000001    0C    00006724
   00000001 00000001    0C    0000674C
   00000001 00000001    0C    00006774
   00000001 00000001    0C    00006DB4
   00000001 00000001    0C    00006DE0
   00000001 00000001    0C    00006DF0
   00000001 00000001    0C    00006DF8
   00000001 00000001    0C    00006E14
   00000001 00000001    0C    00006FCC
   00000001 00000001    0C    00006FF4
   00000001 00000001    0C    0000701C
   00000001 00000001    0C    000070E4
   00000001 00000001    0C    000071AC
   00000001 00000001    0C    00007224
   00000001 00000001    0C    0000729C
   00000001 00000001    0C    000072C4
1MODE     (MODE4072) (12:48) (15MAR04) Relocation Dictionary                                                                Page  163
   00000001 00000001    0C    000072EC
   00000001 00000001    0C    00007314
   00000001 00000001    0C    000074CC
   00000001 00000001    0C    000075BC
   00000001 00000001    0C    000075E4
   00000001 00000001    0C    00007814
   00000001 00000001    0C    00007A1C
   00000001 00000001    0C    00007A44
   00000001 00000001    0C    00007A6C
   00000001 00000001    0C    00007A94
   00000001 00000001    0C    00007ABC
   00000001 00000001    0C    00007AE4
   00000001 00000001    0C    00007D14
   00000001 00000001    0C    00007D64
   00000001 00000001    0C    00007E2C
   00000001 00000001    0C    00007E54
   00000001 00000001    0C    00007E7C
   00000001 00000001    0C    00007EA4
   00000001 00000001    0C    00007FE4
   00000001 00000001    0C    00008034
   00000001 00000001    0C    0000805C
   00000001 00000001    0C    00008084
   00000001 00000001    0C    000080AC
   00000001 00000001    0C    000080FC
   00000001 00000001    0C    00008124
   00000001 00000001    0C    0000814C
   00000001 00000001    0C    00008174
   00000001 00000001    0C    0000819C
   00000001 00000001    0C    000081C4
   00000001 00000001    0C    000082DC
   00000001 00000001    0C    000083F4
   00000001 00000001    0C    00008444
   00000001 00000001    0C    00008494
   00000001 00000001    0C    000084BC
   00000001 00000001    0C    0000850C
   00000001 00000001    0C    00008534
   00000001 00000001    0C    0000855C
   00000001 00000001    0C    00008584
   00000001 00000001    0C    00008944
   00000001 00000001    0C    0000896C
   00000001 00000001    0C    00008994
   00000001 00000001    0C    000089E4
   00000001 00000001    0C    00008A0C
   00000001 00000001    0C    00008A5C
   00000001 00000001    0C    00008A84
   00000001 00000001    0C    00008AD4
   00000001 00000001    0C    00008AFC
   00000001 00000001    0C    00008B74
   00000001 00000001    0C    00008E74
   00000001 00000001    0C    00008E9C
   00000001 00000001    0C    00008EC4
   00000001 00000001    0C    00008EEC
   00000001 00000001    0C    00009100
   00000001 00000001    0C    0000910C
   00000001 00000001    0C    000093DC
   00000001 00000001    0C    00009498
   00000001 00000001    0C    00009520
   00000001 00000001    0C    0000952C
   00000001 00000001    0C    0000A1A0
1MODE     (MODE4072) (12:48) (15MAR04) Relocation Dictionary                                                                Page  164
   00000001 00000001    0C    0000A1F0
   00000001 00000001    0C    0000A7FC
   00000001 00000001    0C    0000AA88
   00000001 00000001    0C    0000AD80
   00000001 00000001    0C    0000B32C
   00000001 00000001    0C    0000B554
   00000001 00000001    0C    0000B73C
   00000001 00000001    0C    0000B764
   00000001 00000001    0C    0000B85C
   00000001 00000001    0C    0000B868
   00000001 00000001    0C    0000B86C
   00000001 00000001    0C    0000BE58
   00000001 00000001    0C    0000BE80
   00000001 00000001    0C    0000BEA8
   00000001 00000001    0C    0000BED0
   00000001 00000001    0C    0000BEF8
   00000001 00000001    0C    0000BF20
   00000001 00000001    0C    0000BF48
   00000001 00000001    0C    0000BF70
   00000001 00000001    0C    0000BF98
   00000001 00000001    0C    0000BFC0
   00000001 00000001    0C    0000BFE8
   00000001 00000001    0C    0000C20C
   00000001 00000001    0C    0000C840
   00000001 00000001    0C    0000CA24
   00000001 00000001    0C    0000CA50
   00000001 00000001    0C    0000CF1C
   00000001 00000001    0C    0000CF44
   00000001 00000001    0C    0000CF6C
   00000001 00000001    0C    0000CFBC
   00000001 00000001    0C    0000D34C
   00000001 00000001    0C    0000DBB8
   00000001 00000001    0C    0000DBBC
   00000001 00000001    0C    0000DBC0
   00000001 00000001    0C    0000DBCC
   00000001 00000001    0C    0000E0F8
   00000001 00000001    0C    0000E100
   00000001 00000002    1C    00000870
   00000001 00000002    1C    000010E0
   00000001 00000002    1C    000012EC
   00000001 00000002    1C    000019C0
   00000001 00000002    1C    00003C50
   00000001 00000002    1C    000049DC
   00000001 00000002    1C    00004F60
   00000001 00000002    1C    000057E8
   00000001 00000002    1C    00005EDC
   00000001 00000002    1C    00006DE4
   00000001 00000002    1C    00009104
   00000001 00000002    1C    00009524
   00000001 00000002    1C    0000AD84
   00000001 00000002    1C    0000B330
   00000001 00000002    1C    0000B860
   00000001 00000002    1C    0000C210
   00000001 00000002    1C    0000CA54
   00000001 00000002    1C    0000D350
   00000001 00000002    1C    0000DBAC
   00000001 00000002    1C    0000E0DC
   00000001 00000003    1C    00000874
   00000001 00000003    1C    00003C54
1MODE     (MODE4072) (12:48) (15MAR04) Relocation Dictionary                                                                Page  165
   00000001 00000003    1C    00006DE8
   00000001 00000004    1C    0000087C
   00000001 00000004    1C    000010E4
   00000001 00000004    1C    000012F0
   00000001 00000004    1C    000019C4
   00000001 00000004    1C    00003C5C
   00000001 00000004    1C    000049E0
   00000001 00000004    1C    00004F64
   00000001 00000004    1C    000057EC
   00000001 00000004    1C    00005EE0
   00000001 00000004    1C    00006DF4
   00000001 00000004    1C    00009108
   00000001 00000004    1C    00009528
   00000001 00000004    1C    0000AD88
   00000001 00000004    1C    0000B334
   00000001 00000004    1C    0000B864
   00000001 00000004    1C    0000C214
   00000001 00000004    1C    0000CA58
   00000001 00000004    1C    0000D354
   00000001 00000004    1C    0000DBB0
   00000001 00000004    1C    0000E0E0
   00000001 00000005    1C    00000884
   00000001 00000005    1C    000019FC
   00000001 00000006    1C    00000888
   00000001 00000006    1C    00004F88
   00000001 00000007    1C    0000088C
   00000001 00000007    1C    00002E04
   00000001 00000008    1C    00000890
   00000001 00000008    1C    000010D0
   00000001 00000008    1C    000010F4
   00000001 00000008    1C    000012E4
   00000001 00000008    1C    00001A34
   00000001 00000008    1C    000033CC
   00000001 00000008    1C    00003444
   00000001 00000008    1C    000035AC
   00000001 00000008    1C    00003810
   00000001 00000008    1C    00003AB8
   00000001 00000008    1C    00005EB0
   00000001 00000008    1C    00008F64
   00000001 00000008    1C    00009110
   00000001 00000008    1C    000094E8
   00000001 00000008    1C    0000B214
   00000001 00000008    1C    0000B328
   00000001 00000008    1C    0000B5CC
   00000001 00000008    1C    0000B848
   00000001 00000008    1C    0000C010
   00000001 00000008    1C    0000C208
   00000001 00000008    1C    0000C868
   00000001 00000008    1C    0000CA5C
   00000001 00000008    1C    0000D328
   00000001 00000008    1C    0000D8E8
   00000001 00000008    1C    0000DB4C
   00000001 00000008    1C    0000DB88
   00000001 00000008    1C    0000E0D8
   00000001 00000009    1C    00000898
   00000001 0000000A    1C    00000E90
   00000001 0000000A    1C    00001AA0
   00000001 0000000A    1C    00002DD8
   00000001 0000000A    1C    00003C84
1MODE     (MODE4072) (12:48) (15MAR04) Relocation Dictionary                                                                Page  166
   00000001 0000000A    1C    000065E0
   00000001 0000000A    1C    00006FC8
   00000001 0000000A    1C    000082D8
   00000001 0000000A    1C    0000B550
   00000001 0000000A    1C    0000B738
   00000001 0000000B    1C    00000EB8
   00000001 0000000B    1C    00008E70
   00000001 0000000B    1C    0000BFE4
   00000001 0000000B    1C    0000C83C
   00000001 0000000C    1C    00000EE0
   00000001 0000000C    1C    000010CC
   00000001 0000000C    1C    000012E0
   00000001 0000000C    1C    000032D8
   00000001 0000000C    1C    000033C8
   00000001 0000000C    1C    00003440
   00000001 0000000C    1C    000035A8
   00000001 0000000C    1C    0000376C
   00000001 0000000C    1C    0000380C
   00000001 0000000C    1C    00003AB4
   00000001 0000000C    1C    0000415C
   00000001 0000000C    1C    00004588
   00000001 0000000C    1C    00004710
   00000001 0000000C    1C    00004914
   00000001 0000000C    1C    00004D5C
   00000001 0000000C    1C    00004F14
   00000001 0000000C    1C    00005EAC
   00000001 0000000C    1C    00006770
   00000001 0000000C    1C    00008B98
   00000001 0000000C    1C    00008F60
   00000001 0000000C    1C    000094E4
   00000001 0000000C    1C    0000AAD4
   00000001 0000000C    1C    0000B210
   00000001 0000000C    1C    0000B5C8
   00000001 0000000C    1C    0000B760
   00000001 0000000C    1C    0000C00C
   00000001 0000000C    1C    0000C864
   00000001 0000000C    1C    0000CFB8
   00000001 0000000C    1C    0000D8E4
   00000001 0000000C    1C    0000DB48
   00000001 0000000D    1C    0000107C
   00000001 0000000D    1C    000010A4
   00000001 0000000D    1C    00001290
   00000001 0000000D    1C    000012B8
   00000001 0000000D    1C    00001AC8
   00000001 0000000D    1C    00001AF0
   00000001 0000000D    1C    00001B18
   00000001 0000000D    1C    00001B90
   00000001 0000000D    1C    00001BB8
   00000001 0000000D    1C    00001BE0
   00000001 0000000D    1C    00001C08
   00000001 0000000D    1C    00001C30
   00000001 0000000D    1C    00001C58
   00000001 0000000D    1C    00001C80
   00000001 0000000D    1C    00001CA8
   00000001 0000000D    1C    00001CD0
   00000001 0000000D    1C    00001CF8
   00000001 0000000D    1C    00001D20
   00000001 0000000D    1C    00001D48
   00000001 0000000D    1C    00001D70
1MODE     (MODE4072) (12:48) (15MAR04) Relocation Dictionary                                                                Page  167
   00000001 0000000D    1C    00001D98
   00000001 0000000D    1C    00001DC0
   00000001 0000000D    1C    00001DE8
   00000001 0000000D    1C    00001E10
   00000001 0000000D    1C    00001E38
   00000001 0000000D    1C    00001E60
   00000001 0000000D    1C    00001E88
   00000001 0000000D    1C    00001EB0
   00000001 0000000D    1C    00001ED8
   00000001 0000000D    1C    00001F00
   00000001 0000000D    1C    00001F28
   00000001 0000000D    1C    00001F50
   00000001 0000000D    1C    00001F78
   00000001 0000000D    1C    00001FA0
   00000001 0000000D    1C    00001FC8
   00000001 0000000D    1C    00001FF0
   00000001 0000000D    1C    00002018
   00000001 0000000D    1C    00002040
   00000001 0000000D    1C    00002068
   00000001 0000000D    1C    00002090
   00000001 0000000D    1C    000020B8
   00000001 0000000D    1C    000020E0
   00000001 0000000D    1C    00002108
   00000001 0000000D    1C    00002130
   00000001 0000000D    1C    00002158
   00000001 0000000D    1C    00002180
   00000001 0000000D    1C    000021A8
   00000001 0000000D    1C    000021F8
   00000001 0000000D    1C    00002220
   00000001 0000000D    1C    00002248
   00000001 0000000D    1C    00002298
   00000001 0000000D    1C    000022C0
   00000001 0000000D    1C    000022E8
   00000001 0000000D    1C    00002310
   00000001 0000000D    1C    00002338
   00000001 0000000D    1C    00002360
   00000001 0000000D    1C    00002388
   00000001 0000000D    1C    000023B0
   00000001 0000000D    1C    000023D8
   00000001 0000000D    1C    00002400
   00000001 0000000D    1C    00002428
   00000001 0000000D    1C    00002450
   00000001 0000000D    1C    00002478
   00000001 0000000D    1C    000024A0
   00000001 0000000D    1C    000024C8
   00000001 0000000D    1C    000024F0
   00000001 0000000D    1C    00002518
   00000001 0000000D    1C    00002540
   00000001 0000000D    1C    00002568
   00000001 0000000D    1C    00002590
   00000001 0000000D    1C    000025B8
   00000001 0000000D    1C    000025E0
   00000001 0000000D    1C    00002608
   00000001 0000000D    1C    00002630
   00000001 0000000D    1C    00002658
   00000001 0000000D    1C    00002680
   00000001 0000000D    1C    000026A8
   00000001 0000000D    1C    000026D0
   00000001 0000000D    1C    000026F8
1MODE     (MODE4072) (12:48) (15MAR04) Relocation Dictionary                                                                Page  168
   00000001 0000000D    1C    00002720
   00000001 0000000D    1C    00002748
   00000001 0000000D    1C    00002770
   00000001 0000000D    1C    00002798
   00000001 0000000D    1C    000027C0
   00000001 0000000D    1C    000027E8
   00000001 0000000D    1C    00002810
   00000001 0000000D    1C    00002838
   00000001 0000000D    1C    00002860
   00000001 0000000D    1C    00002888
   00000001 0000000D    1C    000028B0
   00000001 0000000D    1C    000028D8
   00000001 0000000D    1C    00002900
   00000001 0000000D    1C    00002928
   00000001 0000000D    1C    00002950
   00000001 0000000D    1C    00002978
   00000001 0000000D    1C    000029A0
   00000001 0000000D    1C    000029C8
   00000001 0000000D    1C    000029F0
   00000001 0000000D    1C    00002A18
   00000001 0000000D    1C    00002A40
   00000001 0000000D    1C    00002A68
   00000001 0000000D    1C    00002A90
   00000001 0000000D    1C    00002AB8
   00000001 0000000D    1C    00002AE0
   00000001 0000000D    1C    00002B30
   00000001 0000000D    1C    00002B58
   00000001 0000000D    1C    00002B80
   00000001 0000000D    1C    00002BA8
   00000001 0000000D    1C    00002BD0
   00000001 0000000D    1C    00002BF8
   00000001 0000000D    1C    00002C20
   00000001 0000000D    1C    00002C48
   00000001 0000000D    1C    00002C70
   00000001 0000000D    1C    00002C98
   00000001 0000000D    1C    00002CC0
   00000001 0000000D    1C    00002CE8
   00000001 0000000D    1C    00002D10
   00000001 0000000D    1C    00002D38
   00000001 0000000D    1C    00002D60
   00000001 0000000D    1C    00002D88
   00000001 0000000D    1C    00002E00
   00000001 0000000D    1C    00002E28
   00000001 0000000D    1C    00002E50
   00000001 0000000D    1C    00002E78
   00000001 0000000D    1C    00002EA0
   00000001 0000000D    1C    00002EC8
   00000001 0000000D    1C    00002EF0
   00000001 0000000D    1C    00002F18
   00000001 0000000D    1C    00002F40
   00000001 0000000D    1C    00002F68
   00000001 0000000D    1C    00002F90
   00000001 0000000D    1C    00002FB8
   00000001 0000000D    1C    00002FE0
   00000001 0000000D    1C    00003008
   00000001 0000000D    1C    00003030
   00000001 0000000D    1C    00003058
   00000001 0000000D    1C    00003080
   00000001 0000000D    1C    000030A8
1MODE     (MODE4072) (12:48) (15MAR04) Relocation Dictionary                                                                Page  169
   00000001 0000000D    1C    000030D0
   00000001 0000000D    1C    000030F8
   00000001 0000000D    1C    00003120
   00000001 0000000D    1C    00003148
   00000001 0000000D    1C    00003170
   00000001 0000000D    1C    00003198
   00000001 0000000D    1C    000031C0
   00000001 0000000D    1C    000031E8
   00000001 0000000D    1C    00003210
   00000001 0000000D    1C    00003238
   00000001 0000000D    1C    00003260
   00000001 0000000D    1C    00003288
   00000001 0000000D    1C    000032B0
   00000001 0000000D    1C    00003300
   00000001 0000000D    1C    00003328
   00000001 0000000D    1C    00003350
   00000001 0000000D    1C    00003490
   00000001 0000000D    1C    000034B8
   00000001 0000000D    1C    000034E0
   00000001 0000000D    1C    00003508
   00000001 0000000D    1C    00003530
   00000001 0000000D    1C    00003558
   00000001 0000000D    1C    00003580
   00000001 0000000D    1C    000037BC
   00000001 0000000D    1C    000037E4
   00000001 0000000D    1C    00003834
   00000001 0000000D    1C    00003A64
   00000001 0000000D    1C    00003A8C
   00000001 0000000D    1C    00003CAC
   00000001 0000000D    1C    00003CD4
   00000001 0000000D    1C    00003CFC
   00000001 0000000D    1C    00003D24
   00000001 0000000D    1C    00003D4C
   00000001 0000000D    1C    00003D74
   00000001 0000000D    1C    00003D9C
   00000001 0000000D    1C    00003DC4
   00000001 0000000D    1C    00003DEC
   00000001 0000000D    1C    00003E14
   00000001 0000000D    1C    00003E3C
   00000001 0000000D    1C    00003E64
   00000001 0000000D    1C    00003E8C
   00000001 0000000D    1C    00003EB4
   00000001 0000000D    1C    00003EDC
   00000001 0000000D    1C    00003F04
   00000001 0000000D    1C    00003F2C
   00000001 0000000D    1C    00003F54
   00000001 0000000D    1C    00003F7C
   00000001 0000000D    1C    00003FA4
   00000001 0000000D    1C    00003FCC
   00000001 0000000D    1C    00003FF4
   00000001 0000000D    1C    0000401C
   00000001 0000000D    1C    00004044
   00000001 0000000D    1C    0000406C
   00000001 0000000D    1C    00004094
   00000001 0000000D    1C    000040BC
   00000001 0000000D    1C    000040E4
   00000001 0000000D    1C    0000410C
   00000001 0000000D    1C    00004134
   00000001 0000000D    1C    00004538
1MODE     (MODE4072) (12:48) (15MAR04) Relocation Dictionary                                                                Page  170
   00000001 0000000D    1C    00004560
   00000001 0000000D    1C    000048C4
   00000001 0000000D    1C    000048EC
   00000001 0000000D    1C    00004EC4
   00000001 0000000D    1C    00004EEC
   00000001 0000000D    1C    00006608
   00000001 0000000D    1C    00006630
   00000001 0000000D    1C    00006658
   00000001 0000000D    1C    00006680
   00000001 0000000D    1C    000066A8
   00000001 0000000D    1C    000066D0
   00000001 0000000D    1C    000066F8
   00000001 0000000D    1C    00006720
   00000001 0000000D    1C    00006748
   00000001 0000000D    1C    00006FF0
   00000001 0000000D    1C    00007018
   00000001 0000000D    1C    00007040
   00000001 0000000D    1C    00007068
   00000001 0000000D    1C    00007090
   00000001 0000000D    1C    000070B8
   00000001 0000000D    1C    000070E0
   00000001 0000000D    1C    00007108
   00000001 0000000D    1C    00007130
   00000001 0000000D    1C    00007158
   00000001 0000000D    1C    00007180
   00000001 0000000D    1C    000071A8
   00000001 0000000D    1C    000071D0
   00000001 0000000D    1C    000071F8
   00000001 0000000D    1C    00007220
   00000001 0000000D    1C    00007248
   00000001 0000000D    1C    00007270
   00000001 0000000D    1C    00007298
   00000001 0000000D    1C    000072C0
   00000001 0000000D    1C    000072E8
   00000001 0000000D    1C    00007310
   00000001 0000000D    1C    00007338
   00000001 0000000D    1C    00007360
   00000001 0000000D    1C    00007388
   00000001 0000000D    1C    000073B0
   00000001 0000000D    1C    000073D8
   00000001 0000000D    1C    00007400
   00000001 0000000D    1C    00007428
   00000001 0000000D    1C    00007450
   00000001 0000000D    1C    00007478
   00000001 0000000D    1C    000074A0
   00000001 0000000D    1C    000074C8
   00000001 0000000D    1C    000074F0
   00000001 0000000D    1C    00007518
   00000001 0000000D    1C    00007540
   00000001 0000000D    1C    00007568
   00000001 0000000D    1C    00007590
   00000001 0000000D    1C    000075B8
   00000001 0000000D    1C    000075E0
   00000001 0000000D    1C    00007608
   00000001 0000000D    1C    00007630
   00000001 0000000D    1C    00007658
   00000001 0000000D    1C    00007680
   00000001 0000000D    1C    000076A8
   00000001 0000000D    1C    000076D0
1MODE     (MODE4072) (12:48) (15MAR04) Relocation Dictionary                                                                Page  171
   00000001 0000000D    1C    000076F8
   00000001 0000000D    1C    00007720
   00000001 0000000D    1C    00007748
   00000001 0000000D    1C    00007770
   00000001 0000000D    1C    00007798
   00000001 0000000D    1C    000077C0
   00000001 0000000D    1C    000077E8
   00000001 0000000D    1C    00007810
   00000001 0000000D    1C    00007838
   00000001 0000000D    1C    00007860
   00000001 0000000D    1C    00007888
   00000001 0000000D    1C    000078B0
   00000001 0000000D    1C    000078D8
   00000001 0000000D    1C    00007900
   00000001 0000000D    1C    00007928
   00000001 0000000D    1C    00007950
   00000001 0000000D    1C    00007978
   00000001 0000000D    1C    000079A0
   00000001 0000000D    1C    000079C8
   00000001 0000000D    1C    000079F0
   00000001 0000000D    1C    00007A18
   00000001 0000000D    1C    00007A40
   00000001 0000000D    1C    00007A68
   00000001 0000000D    1C    00007A90
   00000001 0000000D    1C    00007AB8
   00000001 0000000D    1C    00007AE0
   00000001 0000000D    1C    00007B08
   00000001 0000000D    1C    00007B30
   00000001 0000000D    1C    00007B58
   00000001 0000000D    1C    00007B80
   00000001 0000000D    1C    00007BA8
   00000001 0000000D    1C    00007BD0
   00000001 0000000D    1C    00007BF8
   00000001 0000000D    1C    00007C20
   00000001 0000000D    1C    00007C48
   00000001 0000000D    1C    00007C70
   00000001 0000000D    1C    00007C98
   00000001 0000000D    1C    00007CC0
   00000001 0000000D    1C    00007CE8
   00000001 0000000D    1C    00007D10
   00000001 0000000D    1C    00007D38
   00000001 0000000D    1C    00007D60
   00000001 0000000D    1C    00007D88
   00000001 0000000D    1C    00007DB0
   00000001 0000000D    1C    00007DD8
   00000001 0000000D    1C    00007E00
   00000001 0000000D    1C    00007E28
   00000001 0000000D    1C    00007E50
   00000001 0000000D    1C    00007E78
   00000001 0000000D    1C    00007EA0
   00000001 0000000D    1C    00007EC8
   00000001 0000000D    1C    00007EF0
   00000001 0000000D    1C    00007F18
   00000001 0000000D    1C    00007F40
   00000001 0000000D    1C    00007F68
   00000001 0000000D    1C    00007F90
   00000001 0000000D    1C    00007FB8
   00000001 0000000D    1C    00007FE0
   00000001 0000000D    1C    00008008
1MODE     (MODE4072) (12:48) (15MAR04) Relocation Dictionary                                                                Page  172
   00000001 0000000D    1C    00008030
   00000001 0000000D    1C    00008058
   00000001 0000000D    1C    00008080
   00000001 0000000D    1C    000080A8
   00000001 0000000D    1C    000080D0
   00000001 0000000D    1C    000080F8
   00000001 0000000D    1C    00008120
   00000001 0000000D    1C    00008148
   00000001 0000000D    1C    00008170
   00000001 0000000D    1C    00008198
   00000001 0000000D    1C    000081C0
   00000001 0000000D    1C    000081E8
   00000001 0000000D    1C    00008210
   00000001 0000000D    1C    00008238
   00000001 0000000D    1C    00008260
   00000001 0000000D    1C    00008288
   00000001 0000000D    1C    000082B0
   00000001 0000000D    1C    00008300
   00000001 0000000D    1C    00008328
   00000001 0000000D    1C    00008350
   00000001 0000000D    1C    00008378
   00000001 0000000D    1C    000083A0
   00000001 0000000D    1C    000083C8
   00000001 0000000D    1C    000083F0
   00000001 0000000D    1C    00008418
   00000001 0000000D    1C    00008440
   00000001 0000000D    1C    00008468
   00000001 0000000D    1C    00008490
   00000001 0000000D    1C    000084B8
   00000001 0000000D    1C    000084E0
   00000001 0000000D    1C    00008508
   00000001 0000000D    1C    00008530
   00000001 0000000D    1C    00008558
   00000001 0000000D    1C    00008580
   00000001 0000000D    1C    000085A8
   00000001 0000000D    1C    000085D0
   00000001 0000000D    1C    000085F8
   00000001 0000000D    1C    00008620
   00000001 0000000D    1C    00008648
   00000001 0000000D    1C    00008670
   00000001 0000000D    1C    00008698
   00000001 0000000D    1C    000086C0
   00000001 0000000D    1C    000086E8
   00000001 0000000D    1C    00008710
   00000001 0000000D    1C    00008738
   00000001 0000000D    1C    00008760
   00000001 0000000D    1C    00008788
   00000001 0000000D    1C    000087B0
   00000001 0000000D    1C    000087D8
   00000001 0000000D    1C    00008800
   00000001 0000000D    1C    00008828
   00000001 0000000D    1C    00008850
   00000001 0000000D    1C    00008878
   00000001 0000000D    1C    000088A0
   00000001 0000000D    1C    000088C8
   00000001 0000000D    1C    000088F0
   00000001 0000000D    1C    00008918
   00000001 0000000D    1C    00008940
   00000001 0000000D    1C    00008968
1MODE     (MODE4072) (12:48) (15MAR04) Relocation Dictionary                                                                Page  173
   00000001 0000000D    1C    00008990
   00000001 0000000D    1C    000089B8
   00000001 0000000D    1C    000089E0
   00000001 0000000D    1C    00008A08
   00000001 0000000D    1C    00008A30
   00000001 0000000D    1C    00008A58
   00000001 0000000D    1C    00008A80
   00000001 0000000D    1C    00008AA8
   00000001 0000000D    1C    00008AD0
   00000001 0000000D    1C    00008AF8
   00000001 0000000D    1C    00008B20
   00000001 0000000D    1C    00008B48
   00000001 0000000D    1C    00009494
   00000001 0000000D    1C    0000AA84
   00000001 0000000D    1C    0000BF94
   00000001 0000000D    1C    0000BFBC
   00000001 0000000D    1C    0000CF18
   00000001 0000000D    1C    0000CF40
   00000001 0000000D    1C    0000CF68
   00000001 0000000D    1C    0000DAD0
   00000001 0000000D    1C    0000DAF8
   00000001 0000000E    1C    000010E8
   00000001 0000000E    1C    000019F8
   00000001 0000000F    1C    000010F8
   00000001 0000000F    1C    00005EEC
   00000001 0000000F    1C    00006DC0
   00000001 0000000F    1C    00008D60
   00000001 0000000F    1C    000092EC
   00000001 0000000F    1C    0000A190
   00000001 0000000F    1C    0000A804
   00000001 0000000F    1C    0000D38C
   00000001 0000000F    1C    0000E0FC
   00000001 00000010    1C    000019C8
   00000001 00000010    1C    00003B08
   00000001 00000010    1C    000049E4
   00000001 00000010    1C    00004F68
   00000001 00000010    1C    000057F0
   00000001 00000010    1C    00005EE8
   00000001 00000010    1C    00006DB8
   00000001 00000010    1C    00008D64
   00000001 00000010    1C    00009118
   00000001 00000010    1C    000092F4
   00000001 00000010    1C    0000A168
   00000001 00000010    1C    0000A7F8
   00000001 00000010    1C    0000AD8C
   00000001 00000010    1C    0000B33C
   00000001 00000010    1C    0000B854
   00000001 00000010    1C    0000C230
   00000001 00000010    1C    0000CA10
   00000001 00000010    1C    0000D32C
   00000001 00000010    1C    0000DBA4
   00000001 00000010    1C    0000E0E8
   00000001 00000011    1C    00001A00
   00000001 00000012    1C    00001A04
   00000001 00000013    1C    00001A0C
   00000001 00000014    1C    00001A10
   00000001 00000015    1C    00001A38
   00000001 00000016    1C    00001ACC
   00000001 00000017    1C    00001B40
1MODE     (MODE4072) (12:48) (15MAR04) Relocation Dictionary                                                                Page  174
   00000001 00000017    1C    000021D0
   00000001 00000017    1C    00002270
   00000001 00000017    1C    00002DB0
   00000001 00000017    1C    00008E98
   00000001 00000017    1C    00008EC0
   00000001 00000017    1C    00008EE8
   00000001 00000017    1C    0000BE54
   00000001 00000017    1C    0000BE7C
   00000001 00000017    1C    0000BEA4
   00000001 00000017    1C    0000BECC
   00000001 00000017    1C    0000BEF4
   00000001 00000017    1C    0000BF1C
   00000001 00000017    1C    0000BF44
   00000001 00000017    1C    0000BF6C
   00000001 00000018    1C    00001B68
   00000001 00000018    1C    00002B08
   00000001 00000018    1C    000033A0
   00000001 00000018    1C    00003418
   00000001 00000019    1C    00001B94
   00000001 0000001A    1C    00001BBC
   00000001 0000001B    1C    00001BE4
   00000001 0000001B    1C    00001C0C
   00000001 0000001C    1C    00001C34
   00000001 0000001C    1C    00001C5C
   00000001 0000001D    1C    00001CAC
   00000001 0000001E    1C    00001CD4
   00000001 0000001F    1C    00001CFC
   00000001 0000001F    1C    00001D24
   00000001 00000020    1C    00001D4C
   00000001 00000020    1C    00001D74
   00000001 00000021    1C    00001D9C
   00000001 00000022    1C    00001DEC
   00000001 00000023    1C    00001E14
   00000001 00000024    1C    00001E8C
   00000001 00000025    1C    00001F7C
   00000001 00000025    1C    00001FA4
   00000001 00000026    1C    00001FF4
   00000001 00000027    1C    0000201C
   00000001 00000027    1C    00002724
   00000001 00000027    1C    0000279C
   00000001 00000027    1C    00002814
   00000001 00000027    1C    000032DC
   00000001 00000027    1C    000049D8
   00000001 00000027    1C    00006DD4
   00000001 00000027    1C    000076AC
   00000001 00000027    1C    0000783C
   00000001 00000027    1C    00007D8C
   00000001 00000027    1C    000089BC
   00000001 00000027    1C    00008A34
   00000001 00000027    1C    00008AAC
   00000001 00000027    1C    00008B9C
   00000001 00000028    1C    00002044
   00000001 00000028    1C    0000206C
   00000001 00000028    1C    00002314
   00000001 00000029    1C    0000224C
   00000001 0000002A    1C    00002274
   00000001 0000002B    1C    0000229C
   00000001 0000002C    1C    000022C4
   00000001 0000002C    1C    00007D3C
1MODE     (MODE4072) (12:48) (15MAR04) Relocation Dictionary                                                                Page  175
   00000001 0000002D    1C    0000233C
   00000001 0000002E    1C    00002364
   00000001 0000002F    1C    0000238C
   00000001 0000002F    1C    00007DDC
   00000001 00000030    1C    000023B4
   00000001 00000031    1C    0000242C
   00000001 00000032    1C    00002454
   00000001 00000033    1C    000024A4
   00000001 00000034    1C    000024CC
   00000001 00000035    1C    000024F4
   00000001 00000036    1C    0000251C
   00000001 00000037    1C    00002544
   00000001 00000038    1C    0000256C
   00000001 00000039    1C    00002594
   00000001 0000003A    1C    000025BC
   00000001 0000003B    1C    000025E4
   00000001 0000003C    1C    0000260C
   00000001 0000003C    1C    00002634
   00000001 0000003D    1C    0000265C
   00000001 0000003D    1C    00002684
   00000001 0000003E    1C    00002954
   00000001 0000003F    1C    000029F4
   00000001 00000040    1C    00002A1C
   00000001 00000041    1C    00002A44
   00000001 00000042    1C    00002A6C
   00000001 00000043    1C    00002A94
   00000001 00000044    1C    00002ABC
   00000001 00000045    1C    00002B84
   00000001 00000046    1C    00002BAC
   00000001 00000047    1C    00002E2C
   00000001 00000048    1C    00002E54
   00000001 00000049    1C    00002E7C
   00000001 00000049    1C    00002EA4
   00000001 00000049    1C    00002ECC
   00000001 00000049    1C    00002EF4
   00000001 00000049    1C    00002F1C
   00000001 00000049    1C    00002F44
   00000001 00000049    1C    00002F6C
   00000001 00000049    1C    00002F94
   00000001 00000049    1C    00002FBC
   00000001 00000049    1C    00002FE4
   00000001 00000049    1C    0000300C
   00000001 00000049    1C    00003034
   00000001 00000049    1C    0000305C
   00000001 00000049    1C    00003084
   00000001 00000049    1C    000030AC
   00000001 00000049    1C    000030D4
   00000001 00000049    1C    000030FC
   00000001 00000049    1C    00003124
   00000001 00000049    1C    0000314C
   00000001 00000049    1C    00003174
   00000001 00000049    1C    000031EC
   00000001 00000049    1C    00003214
   00000001 00000049    1C    0000323C
   00000001 00000049    1C    00003264
   00000001 00000049    1C    0000328C
   00000001 00000049    1C    000032B4
   00000001 0000004A    1C    0000319C
   00000001 0000004B    1C    000031C4
1MODE     (MODE4072) (12:48) (15MAR04) Relocation Dictionary                                                                Page  176
   00000001 0000004B    1C    00003304
   00000001 0000004B    1C    0000332C
   00000001 0000004B    1C    000037C0
   00000001 0000004B    1C    000037E8
   00000001 0000004B    1C    0000453C
   00000001 0000004B    1C    00004564
   00000001 0000004B    1C    000048C8
   00000001 0000004B    1C    000048F0
   00000001 0000004B    1C    00004EC8
   00000001 0000004B    1C    00004EF0
   00000001 0000004B    1C    0000DAD4
   00000001 0000004B    1C    0000DAFC
   00000001 0000004C    1C    00003378
   00000001 0000004C    1C    000033F0
   00000001 0000004C    1C    00008B70
   00000001 0000004D    1C    0000346C
   00000001 0000004E    1C    0000371C
   00000001 0000004E    1C    00003744
   00000001 0000004F    1C    00003798
   00000001 00000050    1C    0000385C
   00000001 00000050    1C    00003884
   00000001 00000050    1C    000038AC
   00000001 00000050    1C    000038D4
   00000001 00000050    1C    000038FC
   00000001 00000050    1C    00003924
   00000001 00000050    1C    0000394C
   00000001 00000050    1C    00003974
   00000001 00000050    1C    0000399C
   00000001 00000050    1C    000039C4
   00000001 00000050    1C    000039EC
   00000001 00000050    1C    00003A14
   00000001 00000050    1C    00003A3C
   00000001 00000050    1C    00004448
   00000001 00000050    1C    00004470
   00000001 00000050    1C    00004498
   00000001 00000050    1C    000044C0
   00000001 00000050    1C    000044E8
   00000001 00000050    1C    00004510
   00000001 00000050    1C    00004698
   00000001 00000050    1C    000046C0
   00000001 00000050    1C    000046E8
   00000001 00000050    1C    00004824
   00000001 00000050    1C    0000484C
   00000001 00000050    1C    00004874
   00000001 00000050    1C    0000489C
   00000001 00000050    1C    00004C94
   00000001 00000050    1C    00004CBC
   00000001 00000050    1C    00004CE4
   00000001 00000050    1C    00004D0C
   00000001 00000050    1C    00004D34
   00000001 00000050    1C    00004E74
   00000001 00000050    1C    00004E9C
   00000001 00000050    1C    0000B0F8
   00000001 00000050    1C    0000B120
   00000001 00000050    1C    0000B148
   00000001 00000050    1C    0000B170
   00000001 00000050    1C    0000B198
   00000001 00000050    1C    0000B1C0
   00000001 00000050    1C    0000B1E8
1MODE     (MODE4072) (12:48) (15MAR04) Relocation Dictionary                                                                Page  177
   00000001 00000050    1C    0000B578
   00000001 00000050    1C    0000B5A0
   00000001 00000050    1C    0000BDDC
   00000001 00000050    1C    0000BE04
   00000001 00000050    1C    0000BE2C
   00000001 00000050    1C    0000D894
   00000001 00000050    1C    0000D8BC
   00000001 00000051    1C    00003860
   00000001 00000051    1C    00003888
   00000001 00000051    1C    000038B0
   00000001 00000051    1C    000038D8
   00000001 00000051    1C    00003900
   00000001 00000051    1C    00003928
   00000001 00000051    1C    00003950
   00000001 00000051    1C    00003978
   00000001 00000051    1C    000039A0
   00000001 00000051    1C    000039C8
   00000001 00000051    1C    000039F0
   00000001 00000051    1C    00003A18
   00000001 00000051    1C    00003A40
   00000001 00000051    1C    0000444C
   00000001 00000051    1C    00004474
   00000001 00000051    1C    0000449C
   00000001 00000051    1C    000044C4
   00000001 00000051    1C    000044EC
   00000001 00000051    1C    00004514
   00000001 00000051    1C    0000469C
   00000001 00000051    1C    000046C4
   00000001 00000051    1C    000046EC
   00000001 00000051    1C    00004828
   00000001 00000051    1C    00004850
   00000001 00000051    1C    00004878
   00000001 00000051    1C    000048A0
   00000001 00000051    1C    00004C98
   00000001 00000051    1C    00004CC0
   00000001 00000051    1C    00004CE8
   00000001 00000051    1C    00004D10
   00000001 00000051    1C    00004D38
   00000001 00000051    1C    00004E78
   00000001 00000051    1C    00004EA0
   00000001 00000051    1C    0000B0FC
   00000001 00000051    1C    0000B124
   00000001 00000051    1C    0000B14C
   00000001 00000051    1C    0000B174
   00000001 00000051    1C    0000B19C
   00000001 00000051    1C    0000B1C4
   00000001 00000051    1C    0000B1EC
   00000001 00000051    1C    0000B57C
   00000001 00000051    1C    0000B5A4
   00000001 00000051    1C    0000BDE0
   00000001 00000051    1C    0000BE08
   00000001 00000051    1C    0000BE30
   00000001 00000051    1C    0000D898
   00000001 00000051    1C    0000D8C0
   00000001 00000052    1C    00004020
   00000001 00000053    1C    00004048
   00000001 00000054    1C    000049E8
   00000001 00000054    1C    0000C238
   00000001 00000054    1C    0000D330
1MODE     (MODE4072) (12:48) (15MAR04) Relocation Dictionary                                                                Page  178
   00000001 00000055    1C    000049EC
   00000001 00000055    1C    00005F20
   00000001 00000055    1C    00006DC8
   00000001 00000055    1C    00008D74
   00000001 00000055    1C    00009124
   00000001 00000055    1C    000093E0
   00000001 00000055    1C    0000C23C
   00000001 00000055    1C    0000D334
   00000001 00000055    1C    0000DBA8
   00000001 00000055    1C    0000E0EC
   00000001 00000056    1C    000049F4
   00000001 00000056    1C    00004FA4
   00000001 00000057    1C    000049F8
   00000001 00000057    1C    00005EF4
   00000001 00000057    1C    00006DCC
   00000001 00000057    1C    000093D4
   00000001 00000057    1C    0000A164
   00000001 00000057    1C    0000A7F0
   00000001 00000057    1C    0000ADB8
   00000001 00000057    1C    0000C21C
   00000001 00000057    1C    0000CA18
   00000001 00000057    1C    0000D384
   00000001 00000057    1C    0000E104
   00000001 00000058    1C    000049FC
   00000001 00000058    1C    00004F94
   00000001 00000059    1C    00004A08
   00000001 0000005A    1C    00004A0C
   00000001 0000005B    1C    00004A34
   00000001 0000005C    1C    00004A38
   00000001 0000005D    1C    00004A3C
   00000001 0000005E    1C    00004F8C
   00000001 0000005F    1C    000057F4
   00000001 00000060    1C    000057F8
   00000001 00000061    1C    000057FC
   00000001 00000062    1C    00005800
   00000001 00000063    1C    00005804
   00000001 00000064    1C    00005808
   00000001 00000065    1C    00005828
   00000001 00000066    1C    0000582C
   00000001 00000067    1C    00005E60
   00000001 00000068    1C    00005E88
   00000001 00000068    1C    00008F3C
   00000001 00000068    1C    000094C0
   00000001 00000068    1C    0000AAB0
   00000001 00000068    1C    0000CF94
   00000001 00000068    1C    0000DB24
   00000001 00000069    1C    00005EE4
   00000001 0000006A    1C    00005EF0
   00000001 0000006A    1C    00009308
   00000001 0000006A    1C    0000A160
   00000001 0000006A    1C    0000AD94
   00000001 0000006B    1C    00005EF8
   00000001 0000006C    1C    00005EFC
   00000001 0000006D    1C    00005F00
   00000001 0000006E    1C    00005F04
   00000001 0000006F    1C    00005F08
   00000001 0000006F    1C    00006E24
   00000001 0000006F    1C    0000A1A4
   00000001 0000006F    1C    0000DB8C
1MODE     (MODE4072) (12:48) (15MAR04) Relocation Dictionary                                                                Page  179
   00000001 00000070    1C    00005F0C
   00000001 00000070    1C    00006E20
   00000001 00000070    1C    0000A184
   00000001 00000070    1C    0000A800
   00000001 00000070    1C    0000ADC4
   00000001 00000070    1C    0000C234
   00000001 00000070    1C    0000CA14
   00000001 00000070    1C    0000D33C
   00000001 00000071    1C    00005F10
   00000001 00000071    1C    00006E10
   00000001 00000071    1C    0000B858
   00000001 00000072    1C    00005F14
   00000001 00000072    1C    00008D68
   00000001 00000073    1C    00005F18
   00000001 00000073    1C    00008D6C
   00000001 00000074    1C    00005F28
   00000001 00000075    1C    00005F2C
   00000001 00000076    1C    00005F30
   00000001 00000077    1C    00005F34
   00000001 00000077    1C    00006DC4
   00000001 00000077    1C    0000C244
   00000001 00000078    1C    00005F38
   00000001 00000079    1C    00006DB0
   00000001 00000079    1C    00008D5C
   00000001 00000079    1C    000092E8
   00000001 00000079    1C    000093C8
   00000001 00000079    1C    0000ADB4
   00000001 00000079    1C    0000B338
   00000001 00000079    1C    0000B850
   00000001 00000079    1C    0000CA64
   00000001 00000079    1C    0000D388
   00000001 00000079    1C    0000DB9C
   00000001 0000007A    1C    00006DDC
   00000001 0000007A    1C    000081EC
   00000001 0000007A    1C    00008214
   00000001 0000007A    1C    0000823C
   00000001 0000007A    1C    00008264
   00000001 0000007A    1C    0000828C
   00000001 0000007A    1C    000082B4
   00000001 0000007B    1C    00006DEC
   00000001 0000007C    1C    00006E18
   00000001 0000007C    1C    00009304
   00000001 0000007C    1C    0000DBD0
   00000001 0000007D    1C    00007044
   00000001 0000007E    1C    0000706C
   00000001 0000007E    1C    00007094
   00000001 0000007F    1C    000070BC
   00000001 00000080    1C    0000710C
   00000001 00000081    1C    00007134
   00000001 00000082    1C    0000715C
   00000001 00000083    1C    00007184
   00000001 00000084    1C    000071D4
   00000001 00000084    1C    000071FC
   00000001 00000085    1C    0000724C
   00000001 00000086    1C    00007274
   00000001 00000087    1C    0000733C
   00000001 00000088    1C    00007364
   00000001 00000089    1C    0000738C
   00000001 0000008A    1C    000073B4
1MODE     (MODE4072) (12:48) (15MAR04) Relocation Dictionary                                                                Page  180
   00000001 0000008B    1C    000073DC
   00000001 0000008C    1C    00007404
   00000001 0000008C    1C    0000742C
   00000001 0000008C    1C    00007454
   00000001 0000008C    1C    000077C4
   00000001 0000008D    1C    0000747C
   00000001 0000008E    1C    000074A4
   00000001 0000008E    1C    00008B24
   00000001 0000008F    1C    000074F4
   00000001 00000090    1C    0000751C
   00000001 00000090    1C    00007544
   00000001 00000091    1C    0000756C
   00000001 00000092    1C    00007594
   00000001 00000093    1C    0000760C
   00000001 00000094    1C    00007634
   00000001 00000095    1C    0000765C
   00000001 00000096    1C    00007684
   00000001 00000097    1C    000076D4
   00000001 00000098    1C    000076FC
   00000001 00000099    1C    00007724
   00000001 0000009A    1C    0000774C
   00000001 0000009B    1C    00007774
   00000001 0000009B    1C    0000779C
   00000001 0000009C    1C    000077EC
   00000001 0000009D    1C    00007864
   00000001 0000009D    1C    0000788C
   00000001 0000009D    1C    00007DB4
   00000001 0000009E    1C    000078B4
   00000001 0000009F    1C    000078DC
   00000001 0000009F    1C    00007904
   00000001 000000A0    1C    0000792C
   00000001 000000A0    1C    00007954
   00000001 000000A0    1C    0000797C
   00000001 000000A1    1C    000079A4
   00000001 000000A2    1C    000079CC
   00000001 000000A3    1C    000079F4
   00000001 000000A4    1C    00007B0C
   00000001 000000A5    1C    00007B34
   00000001 000000A6    1C    00007B5C
   00000001 000000A7    1C    00007B84
   00000001 000000A8    1C    00007BAC
   00000001 000000A8    1C    00007BD4
   00000001 000000A9    1C    00007BFC
   00000001 000000AA    1C    00007C24
   00000001 000000AB    1C    00007C4C
   00000001 000000AC    1C    00007C74
   00000001 000000AD    1C    00007C9C
   00000001 000000AE    1C    00007CC4
   00000001 000000AF    1C    00007CEC
   00000001 000000B0    1C    00007E04
   00000001 000000B1    1C    00007ECC
   00000001 000000B2    1C    00007EF4
   00000001 000000B3    1C    00007F1C
   00000001 000000B4    1C    00007F44
   00000001 000000B5    1C    00007F6C
   00000001 000000B6    1C    00007F94
   00000001 000000B7    1C    00007FBC
   00000001 000000B8    1C    0000800C
   00000001 000000B9    1C    000080D4
1MODE     (MODE4072) (12:48) (15MAR04) Relocation Dictionary                                                                Page  181
   00000001 000000BA    1C    00008304
   00000001 000000BB    1C    0000832C
   00000001 000000BC    1C    00008354
   00000001 000000BD    1C    0000837C
   00000001 000000BE    1C    000083A4
   00000001 000000BF    1C    000083CC
   00000001 000000C0    1C    0000841C
   00000001 000000C1    1C    0000846C
   00000001 000000C2    1C    000084E4
   00000001 000000C3    1C    000085AC
   00000001 000000C3    1C    000085D4
   00000001 000000C3    1C    0000869C
   00000001 000000C3    1C    000086C4
   00000001 000000C3    1C    00008764
   00000001 000000C3    1C    0000878C
   00000001 000000C3    1C    000087B4
   00000001 000000C3    1C    00008804
   00000001 000000C3    1C    0000882C
   00000001 000000C3    1C    00008854
   00000001 000000C3    1C    0000887C
   00000001 000000C4    1C    000085FC
   00000001 000000C5    1C    00008624
   00000001 000000C6    1C    0000864C
   00000001 000000C7    1C    00008674
   00000001 000000C8    1C    000086EC
   00000001 000000C8    1C    00008714
   00000001 000000C8    1C    0000873C
   00000001 000000C9    1C    000087DC
   00000001 000000CA    1C    000088A4
   00000001 000000CB    1C    000088CC
   00000001 000000CC    1C    000088F4
   00000001 000000CD    1C    0000891C
   00000001 000000CE    1C    00008B4C
   00000001 000000CF    1C    00008D58
   00000001 000000D0    1C    00008F14
   00000001 000000D1    1C    000092F8
   00000001 000000D1    1C    000093CC
   00000001 000000D1    1C    0000A16C
   00000001 000000D1    1C    0000ADBC
   00000001 000000D1    1C    0000D348
   00000001 000000D1    1C    0000DB94
   00000001 000000D1    1C    0000E0F0
   00000001 000000D2    1C    000092FC
   00000001 000000D2    1C    0000A170
   00000001 000000D2    1C    0000ADC0
   00000001 000000D2    1C    0000DBA0
   00000001 000000D3    1C    00009300
   00000001 000000D4    1C    000093D0
   00000001 000000D4    1C    0000D364
   00000001 000000D5    1C    000093D8
   00000001 000000D6    1C    0000A180
   00000001 000000D6    1C    0000ADA4
   00000001 000000D6    1C    0000D344
   00000001 000000D7    1C    0000A18C
   00000001 000000D7    1C    0000CA2C
   00000001 000000D8    1C    0000A194
   00000001 000000D9    1C    0000AAD8
   00000001 000000DA    1C    0000B870
   00000001 000000DA    1C    0000DBB4
1MODE     (MODE4072) (12:48) (15MAR04) Relocation Dictionary                                                                Page  182
   00000001 000000DB    1C    0000C220
   00000001 000000DC    1C    0000C22C
   00000001 000000DD    1C    0000C240
   00000001 000000DE    1C    0000C24C
   00000001 000000DE    1C    0000D338
   00000001 000000DF    1C    0000C250
   00000001 000000E0    1C    0000C254
   00000001 000000E1    1C    0000C258
   00000001 000000E2    1C    0000C25C
   00000001 000000E3    1C    0000CA6C
   00000001 000000E4    1C    0000D35C
   00000001 000000E4    1C    0000E0F4
   00000001 000000E5    1C    0000D380
   00000001 000000E6    1C    0000DB80
   00000001 000000E7    1C    0000DB84
   00000001 000000E8    1C    0000DB90
   00000001 000000E9    1C    0000DBC8
   00000001 000000EA    1C    0000E0E4

1MODE     (MODE4072) (12:48) (15MAR04) Ordinary Symbol and Literal Cross Reference                                          Page  183
-Symbol   Length   Value     Id    R Type   Defn References                                  HLASM R4.0  2004/03/15 12.48
0$$$@R0        1 00000000 FFFFFFFE     J     705  1019
 $$$@R10       1 00000000 FFFFFFF4     J     835  1083
 $$$@R11       1 00000000 FFFFFFF3     J     848  1096
 $$$@R12       1 00000000 FFFFFFF2     J     861  1109
 $$$@R13       1 00000000 FFFFFFF1     J     874  1122
 $$$@R14       1 00000000 FFFFFFF0     J     887  1135
 $$$@R7        1 00000000 FFFFFFF7     J     796  1032
 $$$@R8        1 00000000 FFFFFFF6     J     809  1045   1057
 $$$@R9        1 00000000 FFFFFFF5     J     822  1070
 $$$C1WYLMODE
               1 000008CB 00000001     J   13162 13164  13185  13473
 $$$C10WYLMODE
               1 00005FCF 00000001     J   29168 29170
 $$$C11WYLMODE
               1 00006FA7 00000001     J   33190 33192
 $$$C12WYLMODE
               1 00008DA8 00000001     J   36555 36557
 $$$C13WYLMODE
               1 00009133 00000001     J   37409 37411
 $$$C14WYLMODE
               1 00009331 00000001     J   38072 38074
 $$$C15WYLMODE
               1 000093E6 00000001     J   38302 38304  38331
 $$$C16WYLMODE
               1 00009532 00000001     J   38567 38569
 $$$C17WYLMODE
               1 0000A55D 00000001     J   42782 42784
 $$$C18WYLMODE
               1 0000A87B 00000001     J   43679 43681
 $$$C19WYLMODE
               1 0000AEBD 00000001     J   45138 45140  45803
 $$$C2WYLMODE
               1 00001194 00000001     J   15294 15296
 $$$C20WYLMODE
               1 0000B3CA 00000001     J   46516 46518
 $$$C21WYLMODE
               1 0000B903 00000001     J   47746 47748  47998
 $$$C22WYLMODE
               1 0000C2DF 00000001     J   50441 50443
 $$$C23WYLMODE
               1 0000CBFB 00000001     J   52618 52620  53283
 $$$C24WYLMODE
               1 0000D401 00000001     J   54635 54637  55131  55698
 $$$C25WYLMODE
               1 0000DC10 00000001     J   57044 57046  57068
 $$$C26WYLMODE
               1 0000E1EB 00000001     J   58821 58823
 $$$C3WYLMODE
               1 000012F6 00000001     J   15594 15596  16668  16879
 $$$C4WYLMODE
               1 00001A80 00000001     J   17643 17645
 $$$C5WYLMODE
               1 00003B4C 00000001     J   21329 21331
 $$$C6WYLMODE
               1 00003C64 00000001     J   21523 21525  22692  23264  23646
1MODE     (MODE4072) (12:48) (15MAR04) Ordinary Symbol and Literal Cross Reference                                          Page  184
 $$$C7WYLMODE
               1 00004AF6 00000001     J   24260 24262  24493  24964
 $$$C8WYLMODE
               1 00004FE9 00000001     J   25372 25374
 $$$C9WYLMODE
               1 00005930 00000001     J   27310 27312
 $$$D24WYLMODE
               1 0000DC09 00000001     J   54636 55120
 $$$D3WYLMODE
               1 00001A73 00000001     J   15595 16657  16868
 $$$RCACTSWA
               1 00000000 FFFFFFD3     J   23242 23263  23263
 $$$RCACTWA
               1 00000000 FFFFFFD4     J   22665 22691  22691
 $$$RCEXECWA
               1 00000000 FFFFFFD2     J   23619 23645  23645
 $$$RCP        1 00000000 FFFFFFDD     J    6538  8798  10272  10272
 $$$RCPREFWA
               1 00000000 FFFFFFD1     J   24461 24492  24492
 $$$RCV        1 00000000 FFFFFFDF     J    5263  6448   6448
 $$$RCVARSWA
               1 00000000 FFFFFFD0     J   24937 24963  24963
 $$$RDEV       1 00000000 FFFFFFDC     J    8752  8797   8797
 $$$RESCWA
               1 00000000 FFFFFFD6     J   13171 13184  13184
 $$$RFFINFO
               1 00000000 FFFFFFD8     J   10776 10985  10985
 $$$RJCB       1 00000000 FFFFFFD9     J   10480 10754  10754
 $$$RKWR       1 00000000 FFFFFFE0     J    5024  5229   5229
 $$$RNSCNCB
               1 00000000 FFFFFFDE     J    6459  6532   6532
 $$$RPAT       1 00000000 FFFFFFCF     J   38313 38330  38330
 $$$RPFCB      1 00000000 FFFFFFDA     J   10390 10474  10474
 $$$RSETWBWRK
               1 00000000 FFFFFFCA     J   57052 57067  57067
 $$$RSHDTWA
               1 00000000 FFFFFFCC     J   53268 53282  53282
 $$$RSKIPWA
               1 00000000 FFFFFFD5     J   13459 13472  13472
 $$$RTTYPE
               1 00000000 FFFFFFDB     J   10283 10384  10384
 $$$RUSERCVT
               1 00000000 FFFFFFEE     J    1150  1233   1233
 $$$RWACCWA
               1 00000000 FFFFFFCE     J   45751 45802  45802
 $$$RWORDWA
               1 00000000 FFFFFFCB     J   55674 55697  55697
 $$$RWPGWA
               1 00000000 FFFFFFCD     J   47955 47997  47997
 $$$SEGCB0
               4 00000050 FFFFFFDD     F    6569  6655   6655
 $$$Z11        4 00008D54 00000001     F   36538 36128
 $$$Z20        4 0000B830 00000001     F   47723 47622
 $$$Z3         4 000019BC 00000001     F   17613 16534
 $$$Z9         4 00005EB4 00000001     F   29119 28284  28483
 $$$100B       1 0000042C 00000001     X   12162 12169U
 $$$1000E      2 0000DA56 00000001     H   56824 56818
 $$$1000F      2 0000DA9C 00000001     H   56917 56820B
 $$$1001F      2 0000DA94 00000001     H   56909 56882B
1MODE     (MODE4072) (12:48) (15MAR04) Ordinary Symbol and Literal Cross Reference                                          Page  185
 $$$1002       1 00000050 00000001 A   U   56937 56934  56936
 $$$1004B      1 0000DC2A 00000001     X   57100 57107U
 $$$1005F      2 0000DC44 00000001     H   57172 57147B 57159B
 $$$1007S      2 0000DC4C 00000001     H   57189 57454B
 $$$1008F      2 0000DCB0 00000001     H   57262 57236B
 $$$101F       2 00000438 00000001     H   12200 12187B
 $$$1010B      4 0000DCBC 00000001     I   57289 57433
 $$$1010F      2 0000DD14 00000001     H   57428 57276B 57289B 57430
 $$$1011B      4 0000DCB4 00000001     I   57276 57431
 $$$1012B      4 0000DCC8 00000001     I   57307 57360
 $$$1012F      2 0000DCE8 00000001     H   57357 57307B 57359
 $$$1013E      2 0000DCEC 00000001     H   57367 57361
 $$$1013F      2 0000DD14 00000001     H   57424 57363B
 $$$1014B      4 0000DCEE 00000001     I   57378 57396
 $$$1014F      2 0000DCF8 00000001     H   57393 57378B 57395
 $$$1015E      2 0000DCFC 00000001     H   57403 57397
 $$$1015F      2 0000DD14 00000001     H   57420 57399B
 $$$1016E      2 0000DD18 00000001     H   57440 57432  57434
 $$$1016F      2 0000DD22 00000001     H   57450 57436B
 $$$1017       1 00000070 00000001 A   U   57479 57476  57478
 $$$1019B      1 0000DD52 00000001     X   57506 57513U
 $$$102        1 00000050 00000001 A   U   12220 12217  12219
 $$$1020F      2 0000DD90 00000001     H   57620 57546B
 $$$1020S      2 0000DD56 00000001     H   57537 57619B
 $$$1022F      2 0000DD8C 00000001     H   57615 57564B
 $$$1023B      4 0000DD94 00000001     I   57632 57657
 $$$1023F      2 0000DDAE 00000001     H   57654 57632B 57656
 $$$1026E      2 0000DDB2 00000001     H   57664 57658
 $$$1026F      2 0000DDCE 00000001     H   57711 57660B
 $$$1027       1 00000050 00000001 A   U   57730 57727  57729
 $$$1029B      1 0000DDF6 00000001     X   57776 57783U
 $$$1030F      2 0000DE0C 00000001     H   57829 57804B 57816B
 $$$1032S      2 0000DE0E 00000001     H   57839 57921B
 $$$1033F      2 0000DE72 00000001     H   57912 57886B
 $$$1035       1 00000050 00000001 A   U   57941 57938  57940
 $$$1037B      1 0000DEAC 00000001     X   57968 57975U
 $$$1038F      2 0000DEEA 00000001     H   58082 58008B
 $$$1038S      2 0000DEB0 00000001     H   57999 58081B
 $$$104B       1 00000468 00000001     X   12247 12254U
 $$$1040F      2 0000DEE6 00000001     H   58077 58026B
 $$$1041B      4 0000DEEE 00000001     I   58094 58125
 $$$1041F      2 0000DF06 00000001     H   58122 58094B 58124
 $$$1044E      2 0000DF0A 00000001     H   58132 58126
 $$$1044F      2 0000DF26 00000001     H   58179 58128B
 $$$1045       1 00000050 00000001 A   U   58198 58195  58197
 $$$1047B      1 0000DF4E 00000001     X   58238 58245U
 $$$1048F      2 0000E080 00000001     H   58755 58265B
 $$$1049F      2 0000E038 00000001     H   58654 58298B
 $$$1049S      2 0000DF5E 00000001     H   58289 58653B
 $$$105F       2 000004CC 00000001     H   12325 12308B
 $$$1054F      2 0000DF90 00000001     H   58398 58367B
 $$$1054T      2 0000DF88 00000001     H   58370 58356B
 $$$106F       2 000004EA 00000001     H   12358 12342B
 $$$1061F      2 0000DFBC 00000001     H   58478 58427B
 $$$1062F      2 0000E020 00000001     H   58620 58548B
 $$$1063F      2 0000E080 00000001     H   58751 58664B
 $$$1064       1 00000050 00000001 A   U   58773 58770  58772
 $$$107        1 00000050 00000001 A   U   12381 12378  12380
 $$$109B       1 0000051C 00000001     X   12408 12415U
1MODE     (MODE4072) (12:48) (15MAR04) Ordinary Symbol and Literal Cross Reference                                          Page  186
 $$$110F       2 00000598 00000001     H   12508 12465B
 $$$111F       2 00000584 00000001     H   12495 12482B
 $$$112        1 00000050 00000001 A   U   12528 12525  12527
 $$$114B       1 000005CA 00000001     X   12555 12562U
 $$$115        1 00000050 00000001 A   U   12641 12638  12640
 $$$117B       1 0000065E 00000001     X   12668 12675U
 $$$118B       4 000006BC 00000001     I   12735 12747
 $$$118F       2 000006C4 00000001     H   12744 12735B 12746
 $$$119E       2 000006C8 00000001     H   12754 12748
 $$$119F       2 000006CC 00000001     H   12760 12750B
 $$$120        1 00000050 00000001 A   U   12779 12776  12778
 $$$122B       1 000006F8 00000001     X   12807 12814U
 $$$124        1 00000050 00000001 A   U   12905 12902  12904
 $$$126B       1 00000796 00000001     X   12932 12939U
 $$$127        1 00000050 00000001 A   U   12968 12965  12967
 $$$129B       1 000007C4 00000001     X   12995 13002U
 $$$130        1 00000050 00000001 A   U   13031 13028  13030
 $$$132B       1 000007F4 00000001     X   13058 13065U
 $$$133        1 00000050 00000001 A   U   13129 13126  13128
 $$$135B       1 000008E6 00000001     X   13213 13220U
 $$$136F       2 00000960 00000001     H   13326 13306B
 $$$137F       2 0000096E 00000001     H   13351 13339B
 $$$138F       2 00000988 00000001     H   13379 13363B
 $$$139F       2 000009A6 00000001     H   13424 13395B 13409B
 $$$141        1 00000054 00000001 A   U   13453 13450  13452
 $$$143B       1 000009DE 00000001     X   13501 13508U
 $$$144F       2 00000A58 00000001     H   13614 13594B
 $$$145F       2 00000A66 00000001     H   13639 13627B
 $$$146F       2 00000A84 00000001     H   13684 13655B 13669B
 $$$148        1 00000054 00000001 A   U   13713 13710  13712
 $$$150B       1 00000ABC 00000001     X   13741 13748U
 $$$151        1 00000050 00000001 A   U   13779 13776  13778
 $$$153B       1 00000AEE 00000001     X   13806 13813U
 $$$155S       2 00000B48 00000001     H   13879 13952B
 $$$158        1 00000050 00000001 A   U   13980 13977  13979
 $$$160B       1 00000BDA 00000001     X   14007 14014U
 $$$161F       2 00000BEC 00000001     H   14051 14035B
 $$$162F       2 00000C8A 00000001     H   14201 14102B
 $$$163F       2 00000C5E 00000001     H   14128 14118B
 $$$164F       2 00000C8A 00000001     H   14197 14154B
 $$$165F       2 00000C98 00000001     H   14227 14214B
 $$$166F       2 00000CCE 00000001     H   14329 14240B 14258B 14277B 14296B
 $$$170F       2 00000CCE 00000001     H   14325 14312B
 $$$171F       2 00000CE8 00000001     H   14371 14359B
 $$$171T       2 00000CE2 00000001     H   14362 14347B
 $$$173        1 00000050 00000001 A   U   14392 14389  14391
 $$$175B       1 00000D1A 00000001     X   14419 14426U
 $$$176        1 00000050 00000001 A   U   14490 14487  14489
 $$$177F       2 00000DAA 00000001     H   14566 14545B
 $$$178B       1 00000D9E 00000001     X   14517 14524U
 $$$181        1 00000050 00000001 A   U   14575 14572  14574
 $$$183B       1 00000DD2 00000001     X   14602 14609U
 $$$184        1 00000050 00000001 A   U   14677 14674  14676
 $$$186B       1 00000E5A 00000001     X   14704 14711U
 $$$187        1 00000050 00000001 A   U   14744 14741  14743
 $$$189B       1 00000F02 00000001     X   14819 14826U
 $$$190F       2 00000F36 00000001     H   14888 14856B
 $$$191F       2 00000F36 00000001     H   14884 14871B
 $$$192        1 00000050 00000001 A   U   14916 14913  14915
1MODE     (MODE4072) (12:48) (15MAR04) Ordinary Symbol and Literal Cross Reference                                          Page  187
 $$$194B       1 00000F6A 00000001     X   14943 14950U
 $$$195        1 00000050 00000001 A   U   14978 14975  14977
 $$$197B       1 00000F9A 00000001     X   15009 15016U
 $$$198        1 00000050 00000001 A   U   15080 15077  15079
 $$$200B       1 0000101E 00000001     X   15107 15114U
 $$$201        1 00000050 00000001 A   U   15147 15144  15146
 $$$203B       1 0000104A 00000001     X   15174 15181U
 $$$204        1 00000050 00000001 A   U   15213 15210  15212
 $$$206B       1 000011AE 00000001     X   15327 15334U
 $$$207        1 00000050 00000001 A   U   15398 15395  15397
 $$$209B       1 00001232 00000001     X   15425 15432U
 $$$210        1 00000050 00000001 A   U   15464 15461  15463
 $$$212B       1 0000125E 00000001     X   15491 15498U
 $$$213        1 00000050 00000001 A   U   15531 15528  15530
 $$$215B       1 00001310 00000001     X   15627 15634U
 $$$216B       4 00001366 00000001     I   15689 15720
 $$$216F       2 0000137A 00000001     H   15716 15689B 15719
 $$$217E       2 0000137E 00000001     H   15727 15721
 $$$217F       2 000013BE 00000001     H   15829 15723B
 $$$218F       2 000013A4 00000001     H   15794 15742B 15755B
 $$$220        1 00000050 00000001 A   U   15854 15851  15853
 $$$222B       1 000013F0 00000001     X   15885 15892U
 $$$223        1 00000050 00000001 A   U   15931 15928  15930
 $$$225B       1 00001426 00000001     X   15961 15968U
 $$$226        1 00000050 00000001 A   U   16008 16005  16007
 $$$228B       1 0000145C 00000001     X   16038 16045U
 $$$229        1 00000050 00000001 A   U   16084 16081  16083
 $$$231B       1 00001492 00000001     X   16114 16121U
 $$$232        1 00000050 00000001 A   U   16161 16158  16160
 $$$234B       1 000014C8 00000001     X   16193 16200U
 $$$235        1 00000050 00000001 A   U   16231 16228  16230
 $$$237B       1 000014FA 00000001     X   16265 16272U
 $$$238F       2 0000157C 00000001     H   16355 16334B
 $$$239        1 00000050 00000001 A   U   16433 16430  16432
 $$$241B       1 00001626 00000001     X   16474 16481U
 $$$242B       4 00001646 00000001     I   16547 16602
 $$$242F       2 00001676 00000001     H   16594 16520B 16535B 16547B 16597
 $$$243B       4 00001634 00000001     I   16520 16598
 $$$244B       4 0000163E 00000001     I   16535 16600
 $$$245F       2 00001676 00000001     H   16583 16567B
 $$$246E       2 0000167A 00000001     H   16609 16599  16601  16603
 $$$246F       2 0000177A 00000001     H   17002 16605B
 $$$247F       2 0000168A 00000001     H   16632 16623B
 $$$248F       2 000016A0 00000001     H   16673 16649B
 $$$249        6 00001A74 00000001     I   16663 16655X
 $$$250        6 00001A74 00000001     I   16662 16663  16663
 $$$251F       2 000016F4 00000001     H   16756 16690B 16703B
 $$$253F       2 000016DE 00000001     H   16742 16731B
 $$$253S       2 000016D0 00000001     H   16723 16741B
 $$$255F       2 00001716 00000001     H   16802 16778B 16791B
 $$$255S       2 00001702 00000001     H   16769 16801B
 $$$258F       2 0000172A 00000001     H   16841 16817B 16830B
 $$$258S       2 00001716 00000001     H   16808 16840B
 $$$261F       2 00001740 00000001     H   16884 16860B
 $$$262        6 00001A7A 00000001     I   16874 16866X
 $$$263        6 00001A7A 00000001     I   16873 16874  16874
 $$$264F       2 00001754 00000001     H   16930 16905B
 $$$265F       2 00001760 00000001     H   16951 16942B
 $$$266F       2 0000177A 00000001     H   16998 16968B 16983B
1MODE     (MODE4072) (12:48) (15MAR04) Ordinary Symbol and Literal Cross Reference                                          Page  188
 $$$268F       2 0000178A 00000001     H   17036 17020B
 $$$269        1 00000050 00000001 A   U   17064 17061  17063
 $$$271B       1 000017BE 00000001     X   17092 17099U
 $$$272        1 00000050 00000001 A   U   17164 17161  17163
 $$$274B       1 00001846 00000001     X   17191 17198U
 $$$275F       2 00001864 00000001     H   17251 17239B
 $$$275T       2 0000185E 00000001     H   17242 17227B
 $$$277F       2 00001872 00000001     H   17276 17263B
 $$$278        1 00000050 00000001 A   U   17337 17334  17336
 $$$280B       1 000018D8 00000001     X   17369 17376U
 $$$281F       2 000018E6 00000001     H   17408 17395B
 $$$283S       2 000018F6 00000001     H   17430 17583B
 $$$284F       2 0000197E 00000001     H   17522 17481B
 $$$286F       2 0000199C 00000001     H   17575 17536B
 $$$287        1 00000050 00000001 A   U   17603 17600  17602
 $$$289B       1 000035CA 00000001     X   20301 20308U
 $$$290        1 00000050 00000001 A   U   20340 20337  20339
 $$$292B       1 000035F6 00000001     X   20367 20374U
 $$$293        1 00000050 00000001 A   U   20407 20404  20406
 $$$294F       2 0000362E 00000001     H   20482 20462B
 $$$295B       1 00003622 00000001     X   20434 20441U
 $$$297        1 00000050 00000001 A   U   20491 20488  20490
 $$$298F       2 00003662 00000001     H   20567 20546B
 $$$299B       1 00003656 00000001     X   20518 20525U
 $$$301        1 00000050 00000001 A   U   20576 20573  20575
 $$$303B       1 0000368A 00000001     X   20603 20610U
 $$$304        1 00000050 00000001 A   U   20642 20639  20641
 $$$305F       2 000036C2 00000001     H   20718 20697B
 $$$306B       1 000036B6 00000001     X   20669 20676U
 $$$308        1 00000050 00000001 A   U   20727 20724  20726
 $$$310B       1 000036EA 00000001     X   20754 20761U
 $$$311        1 00000050 00000001 A   U   20796 20793  20795
 $$$318B       1 00003AD6 00000001     X   21259 21266U
 $$$319        1 00000050 00000001 A   U   21315 21312  21314
 $$$321B       1 00003B66 00000001     X   21363 21370U
 $$$322        1 00000050 00000001 A   U   21506 21503  21505
 $$$324B       1 0000417E 00000001     X   22038 22045U
 $$$325        1 00000050 00000001 A   U   22079 22076  22078
 $$$327B       1 000041B8 00000001     X   22106 22113U
 $$$328        1 00000050 00000001 A   U   22144 22141  22143
 $$$330B       1 000041EA 00000001     X   22174 22181U
 $$$331F       2 0000425A 00000001     H   22274 22235B
 $$$332F       2 000042F4 00000001     H   22532 22297B 22316B 22336B
 $$$335B       4 00004284 00000001     I   22355 22372
 $$$335F       2 00004290 00000001     H   22368 22355B 22371
 $$$336B       4 0000429A 00000001     I   22390 22407
 $$$336E       2 00004294 00000001     H   22379 22373
 $$$336F       2 000042A6 00000001     H   22403 22375B 22390B 22406
 $$$338B       4 000042B0 00000001     I   22425 22442
 $$$338E       2 000042AA 00000001     H   22414 22408
 $$$338F       2 000042BC 00000001     H   22438 22410B 22425B 22441
 $$$340B       4 000042C6 00000001     I   22460 22477
 $$$340E       2 000042C0 00000001     H   22449 22443
 $$$340F       2 000042D2 00000001     H   22473 22445B 22460B 22476
 $$$342B       4 000042DC 00000001     I   22495 22511
 $$$342E       2 000042D6 00000001     H   22484 22478
 $$$342F       2 000042E8 00000001     H   22508 22480B 22495B 22510
 $$$344E       2 000042EC 00000001     H   22518 22512
 $$$344F       2 000042F4 00000001     H   22528 22514B
1MODE     (MODE4072) (12:48) (15MAR04) Ordinary Symbol and Literal Cross Reference                                          Page  189
 $$$345F       2 00004328 00000001     H   22635 22583B
 $$$346        1 00000050 00000001 A   U   22656 22653  22655
 $$$348B       1 00004354 00000001     X   22720 22727U
 $$$349B       4 000043BA 00000001     I   22812 22834
 $$$349F       2 000043C8 00000001     H   22830 22812B 22833
 $$$350E       2 000043CC 00000001     H   22841 22835
 $$$350F       2 000043F8 00000001     H   22896 22837B
 $$$351F       2 000043F8 00000001     H   22892 22866B
 $$$352F       2 00004406 00000001     H   22923 22910B
 $$$353F       2 00004414 00000001     H   22948 22935B
 $$$354        1 00000054 00000001 A   U   22973 22970  22972
 $$$356B       1 000045AA 00000001     X   23164 23171U
 $$$357        1 00000050 00000001 A   U   23228 23225  23227
 $$$359B       1 000045E8 00000001     X   23295 23302U
 $$$360F       2 0000465A 00000001     H   23401 23388B
 $$$361        1 00000054 00000001 A   U   23438 23435  23437
 $$$363B       1 00004732 00000001     X   23541 23548U
 $$$364        1 00000050 00000001 A   U   23605 23602  23604
 $$$366B       1 00004770 00000001     X   23677 23684U
 $$$367F       2 000047E4 00000001     H   23788 23775B
 $$$368F       2 000047F2 00000001     H   23813 23800B
 $$$369        1 00000054 00000001 A   U   23838 23835  23837
 $$$371B       1 00004936 00000001     X   23990 23997U
 $$$372        1 00000050 00000001 A   U   24054 24051  24053
 $$$374B       1 00004974 00000001     X   24093 24100U
 $$$375B       4 0000497A 00000001     I   24119 24138
 $$$375F       2 0000498A 00000001     H   24135 24119B 24137
 $$$376E       2 0000498E 00000001     H   24145 24139
 $$$376F       2 000049AE 00000001     H   24188 24141B
 $$$377F       2 000049AE 00000001     H   24184 24158B
 $$$378        1 00000050 00000001 A   U   24206 24203  24205
 $$$380B       1 00004B10 00000001     X   24292 24299U
 $$$381F       2 00004B80 00000001     H   24392 24353B
 $$$382F       2 00004B94 00000001     H   24430 24421B
 $$$382S       2 00004B80 00000001     H   24398 24429B
 $$$385        1 00000050 00000001 A   U   24455 24452  24454
 $$$387B       1 00004BC6 00000001     X   24524 24531U
 $$$388F       2 00004C46 00000001     H   24644 24631B
 $$$389F       2 00004C54 00000001     H   24669 24656B
 $$$390F       2 00004C62 00000001     H   24694 24681B
 $$$391        1 00000054 00000001 A   U   24719 24716  24718
 $$$393B       1 00004D7E 00000001     X   24859 24866U
 $$$394        1 00000050 00000001 A   U   24923 24920  24922
 $$$396B       1 00004DBC 00000001     X   24995 25002U
 $$$397F       2 00004E34 00000001     H   25111 25093B
 $$$398F       2 00004E42 00000001     H   25136 25123B
 $$$399        1 00000054 00000001 A   U   25161 25158  25160
 $$$401B       1 00004F36 00000001     X   25274 25281U
 $$$402        1 00000050 00000001 A   U   25338 25335  25337
 $$$404B       1 00005004 00000001     X   25404 25411U
 $$$405F       2 00005074 00000001     H   25504 25465B
 $$$406        1 00000050 00000001 A   U   25529 25526  25528
 $$$408B       1 000050A6 00000001     X   25559 25566U
 $$$409F       2 00005116 00000001     H   25659 25620B
 $$$410        1 00000050 00000001 A   U   25684 25681  25683
 $$$412B       1 00005148 00000001     X   25714 25721U
 $$$413F       2 000051B8 00000001     H   25814 25775B
 $$$414        1 00000050 00000001 A   U   25839 25836  25838
 $$$416B       1 000051EA 00000001     X   25869 25876U
1MODE     (MODE4072) (12:48) (15MAR04) Ordinary Symbol and Literal Cross Reference                                          Page  190
 $$$417F       2 00005260 00000001     H   25980 25930B
 $$$418        1 00000050 00000001 A   U   26006 26003  26005
 $$$420B       1 00005292 00000001     X   26036 26043U
 $$$421F       2 00005308 00000001     H   26147 26097B
 $$$422        1 00000050 00000001 A   U   26173 26170  26172
 $$$424B       1 0000533A 00000001     X   26203 26210U
 $$$425F       2 000053B0 00000001     H   26304 26264B
 $$$426        1 00000050 00000001 A   U   26331 26328  26330
 $$$428B       1 000053E0 00000001     X   26361 26368U
 $$$429F       2 00005456 00000001     H   26462 26422B
 $$$430        1 00000050 00000001 A   U   26489 26486  26488
 $$$432B       1 00005486 00000001     X   26519 26526U
 $$$433F       2 000054F6 00000001     H   26619 26580B
 $$$434        1 00000050 00000001 A   U   26645 26642  26644
 $$$436B       1 00005528 00000001     X   26679 26686U
 $$$437F       2 00005598 00000001     H   26779 26740B
 $$$438        1 00000050 00000001 A   U   26805 26802  26804
 $$$440B       1 000055CA 00000001     X   26835 26842U
 $$$441F       2 00005646 00000001     H   26942 26903B
 $$$442        1 00000050 00000001 A   U   26963 26960  26962
 $$$444B       1 00005672 00000001     X   26993 27000U
 $$$445F       2 000056E2 00000001     H   27093 27054B
 $$$446        1 00000050 00000001 A   U   27117 27114  27116
 $$$448B       1 00005714 00000001     X   27147 27154U
 $$$449F       2 00005784 00000001     H   27247 27208B
 $$$450        1 00000050 00000001 A   U   27274 27271  27273
 $$$452B       1 0000594A 00000001     X   27345 27352U
 $$$453F       2 00005A48 00000001     H   27597 27525B
 $$$454F       2 00005AF2 00000001     H   27825 27807B
 $$$455F       2 00005B90 00000001     H   28039 28012B
 $$$457F       2 00005BBC 00000001     H   28100 28056B
 $$$458B       4 00005C3E 00000001     I   28285 28315
 $$$458F       2 00005C54 00000001     H   28312 28285B 28314
 $$$459E       2 00005C58 00000001     H   28322 28316
 $$$459F       2 00005CF0 00000001     H   28542 28318B
 $$$460F       2 00005CC2 00000001     H   28469 28413B
 $$$461F       2 00005CF0 00000001     H   28538 28484B
 $$$462B       4 00005D76 00000001     I   28750 28766
 $$$462F       2 00005D82 00000001     H   28763 28750B 28765
 $$$463E       2 00005D86 00000001     H   28773 28767
 $$$463F       2 00005DA0 00000001     H   28811 28769B
 $$$464B       4 00005DAE 00000001     I   28847 28863
 $$$464F       2 00005DBA 00000001     H   28860 28847B 28862
 $$$465E       2 00005DBE 00000001     H   28870 28864
 $$$465F       2 00005DD8 00000001     H   28908 28866B
 $$$466        1 00000248 00000001 A   U   29054 29051  29053
 $$$468B       1 00005FEA 00000001     X   29202 29209U
 $$$469        1 00000050 00000001 A   U   29244 29241  29243
 $$$471B       1 00006022 00000001     X   29271 29278U
 $$$472F       2 0000603C 00000001     H   29325 29298B
 $$$474F       2 00006066 00000001     H   29373 29360B
 $$$476F       2 0000608A 00000001     H   29436 29409B
 $$$477F       2 000060B6 00000001     H   29493 29466B
 $$$478F       2 000060E2 00000001     H   29551 29524B
 $$$480F       2 0000610E 00000001     H   29608 29581B
 $$$481B       4 00006126 00000001     I   29639 29655
 $$$481F       2 00006132 00000001     H   29652 29639B 29654
 $$$482E       2 00006136 00000001     H   29662 29656
 $$$482F       2 00006158 00000001     H   29704 29658B
1MODE     (MODE4072) (12:48) (15MAR04) Ordinary Symbol and Literal Cross Reference                                          Page  191
 $$$483        1 00000050 00000001 A   U   29846 29843  29845
 $$$485B       1 000061DE 00000001     X   29877 29884U
 $$$486F       2 000061FE 00000001     H   29934 29907B
 $$$487        1 00000050 00000001 A   U   29997 29994  29996
 $$$489B       1 00006248 00000001     X   30028 30035U
 $$$490F       2 00006268 00000001     H   30086 30059B
 $$$491        1 00000050 00000001 A   U   30128 30125  30127
 $$$493B       1 000062AE 00000001     X   30165 30172U
 $$$494F       2 000062C4 00000001     H   30222 30195B 30209B
 $$$496F       2 000062E0 00000001     H   30256 30243B
 $$$497        1 00000050 00000001 A   U   30280 30277  30279
 $$$499B       1 00006318 00000001     X   30312 30319U
 $$$500B       4 000063AA 00000001     I   30432 30482
 $$$500F       2 00006406 00000001     H   30477 30420B 30432B 30479
 $$$501B       4 000063A2 00000001     I   30420 30480
 $$$502E       2 0000640A 00000001     H   30489 30481  30483
 $$$502F       2 00006462 00000001     H   30531 30485B
 $$$503        1 00000050 00000001 A   U   30551 30548  30550
 $$$505B       1 0000648E 00000001     X   30578 30585U
 $$$506B       4 00006492 00000001     I   30604 30623
 $$$506F       2 000064A8 00000001     H   30620 30604B 30622
 $$$507E       2 000064AC 00000001     H   30630 30624
 $$$507F       2 000064BE 00000001     H   30643 30626B
 $$$508        1 00000050 00000001 A   U   30661 30658  30660
 $$$510B       1 000064E6 00000001     X   30692 30699U
 $$$511F       2 00006532 00000001     H   30792 30760B
 $$$512F       2 00006532 00000001     H   30788 30775B
 $$$513F       2 000065A6 00000001     H   30872 30846B
 $$$514        1 00000050 00000001 A   U   30897 30894  30896
 $$$516B       1 00006792 00000001     X   31092 31099U
 $$$517        1 00000050 00000001 A   U   31144 31141  31143
 $$$519B       1 000067D0 00000001     X   31171 31178U
 $$$520        1 00000050 00000001 A   U   31223 31220  31222
 $$$522B       1 0000680E 00000001     X   31250 31257U
 $$$523        1 00000050 00000001 A   U   31302 31299  31301
 $$$525B       1 0000684C 00000001     X   31329 31336U
 $$$526        1 00000050 00000001 A   U   31381 31378  31380
 $$$528B       1 0000688A 00000001     X   31408 31415U
 $$$529        1 00000050 00000001 A   U   31460 31457  31459
 $$$531B       1 000068C8 00000001     X   31487 31494U
 $$$532        1 00000050 00000001 A   U   31539 31536  31538
 $$$534B       1 00006906 00000001     X   31566 31573U
 $$$535        1 00000050 00000001 A   U   31618 31615  31617
 $$$537B       1 00006944 00000001     X   31647 31654U
 $$$538        1 00000050 00000001 A   U   31732 31729  31731
 $$$540B       1 0000699C 00000001     X   31759 31766U
 $$$541        1 00000050 00000001 A   U   31843 31840  31842
 $$$543B       1 000069F2 00000001     X   31871 31878U
 $$$544B       4 000069FC 00000001     I   31898 31927
 $$$544F       2 00006A12 00000001     H   31924 31898B 31926
 $$$545E       2 00006A16 00000001     H   31934 31928
 $$$545F       2 00006A5E 00000001     H   32031 31930B
 $$$546        1 00000050 00000001 A   U   32050 32047  32049
 $$$548B       1 00006A8A 00000001     X   32078 32085U
 $$$549B       4 00006A98 00000001     I   32111 32140
 $$$549F       2 00006AAE 00000001     H   32137 32111B 32139
 $$$550E       2 00006AB2 00000001     H   32147 32141
 $$$550F       2 00006AD4 00000001     H   32191 32143B
 $$$551        1 00000050 00000001 A   U   32210 32207  32209
1MODE     (MODE4072) (12:48) (15MAR04) Ordinary Symbol and Literal Cross Reference                                          Page  192
 $$$553B       1 00006B00 00000001     X   32237 32244U
 $$$554B       4 00006B0C 00000001     I   32268 32297
 $$$554F       2 00006B22 00000001     H   32294 32268B 32296
 $$$555E       2 00006B26 00000001     H   32304 32298
 $$$555F       2 00006B4A 00000001     H   32355 32300B
 $$$556        1 00000050 00000001 A   U   32374 32371  32373
 $$$558B       1 00006B76 00000001     X   32401 32408U
 $$$559B       4 00006B82 00000001     I   32432 32461
 $$$559F       2 00006B98 00000001     H   32458 32432B 32460
 $$$560E       2 00006B9C 00000001     H   32468 32462
 $$$560F       2 00006BC6 00000001     H   32533 32464B
 $$$561        1 00000050 00000001 A   U   32552 32549  32551
 $$$563B       1 00006BF2 00000001     X   32579 32586U
 $$$564B       4 00006BFC 00000001     I   32610 32639
 $$$564F       2 00006C12 00000001     H   32636 32610B 32638
 $$$565E       2 00006C16 00000001     H   32646 32640
 $$$565F       2 00006C3A 00000001     H   32697 32642B
 $$$566        1 00000050 00000001 A   U   32716 32713  32715
 $$$568B       1 00006C66 00000001     X   32743 32750U
 $$$569B       4 00006C70 00000001     I   32774 32803
 $$$569F       2 00006C86 00000001     H   32800 32774B 32802
 $$$57B        1 00000032 00000001     X   11077 11084U
 $$$570E       2 00006C8A 00000001     H   32810 32804
 $$$570F       2 00006CAE 00000001     H   32861 32806B
 $$$571        1 00000050 00000001 A   U   32880 32877  32879
 $$$573B       1 00006CDA 00000001     X   32907 32914U
 $$$574        1 00000050 00000001 A   U   32980 32977  32979
 $$$576B       1 00006D28 00000001     X   33007 33014U
 $$$577        1 00000050 00000001 A   U   33108 33105  33107
 $$$579B       1 00008BBA 00000001     X   35920 35927U
 $$$58B        4 000000BE 00000001     I   11190 11240
 $$$58F        2 0000011A 00000001     H   11235 11178B 11190B 11237
 $$$580        1 00000050 00000001 A   U   35960 35957  35959
 $$$582B       1 00008BEC 00000001     X   35991 35998U
 $$$583        1 00000050 00000001 A   U   36063 36060  36062
 $$$585B       1 00008C38 00000001     X   36095 36102U
 $$$586B       4 00008C44 00000001     I   36129 36159
 $$$586F       2 00008C5A 00000001     H   36156 36129B 36158
 $$$587E       2 00008C5E 00000001     H   36166 36160
 $$$587F       2 00008D34 00000001     H   36483 36162B
 $$$588F       2 00008CC8 00000001     H   36313 36257B
 $$$589F       2 00008CF6 00000001     H   36380 36326B
 $$$59B        4 000000B6 00000001     I   11178 11238
 $$$590F       2 00008D34 00000001     H   36479 36393B
 $$$591F       2 00008D1A 00000001     H   36436 36410B
 $$$592F       2 00008D34 00000001     H   36475 36449B
 $$$593        1 00000050 00000001 A   U   36528 36525  36527
 $$$595B       1 00008DC2 00000001     X   36588 36595U
 $$$596F       2 00008E32 00000001     H   36695 36659B
 $$$597F       2 00008E32 00000001     H   36691 36675B
 $$$60E        2 0000011E 00000001     H   11247 11239  11241
 $$$60F        2 00000176 00000001     H   11289 11243B
 $$$600        1 00000050 00000001 A   U   36720 36717  36719
 $$$602B       1 00008F82 00000001     X   36853 36860U
 $$$603F       2 00008F8E 00000001     H   36891 36878B
 $$$604        1 00000050 00000001 A   U   36912 36909  36911
 $$$606B       1 00008FBC 00000001     X   36939 36946U
 $$$607        1 00000050 00000001 A   U   36975 36972  36974
 $$$609B       1 00008FEA 00000001     X   37009 37016U
1MODE     (MODE4072) (12:48) (15MAR04) Ordinary Symbol and Literal Cross Reference                                          Page  193
 $$$61         1 00000050 00000001 A   U   11308 11305  11307
 $$$610F       2 00008FF4 00000001     H   37044 37034B
 $$$611F       2 00008FFE 00000001     H   37067 37056B
 $$$612F       2 0000900C 00000001     H   37088 37079B
 $$$613F       2 00009026 00000001     H   37140 37101B
 $$$615F       2 00009062 00000001     H   37222 37157B
 $$$617F       2 000090A6 00000001     H   37336 37235B 37295B
 $$$617S       2 00009062 00000001     H   37229 37335B
 $$$619F       2 00009076 00000001     H   37259 37250B
 $$$621        1 00000050 00000001 A   U   37379 37376  37378
 $$$623B       1 0000914E 00000001     X   37442 37449U
 $$$624F       2 000091C2 00000001     H   37623 37501B 37533B 37551B
 $$$627F       2 00009246 00000001     H   37823 37785B
 $$$628F       2 0000926E 00000001     H   37880 37842B
 $$$63B        1 000001A2 00000001     X   11335 11342U
 $$$630F       2 0000926E 00000001     H   37876 37863B
 $$$631        1 00000050 00000001 A   U   38023 38020  38022
 $$$633B       1 0000934C 00000001     X   38105 38112U
 $$$634        1 00000050 00000001 A   U   38282 38279  38281
 $$$636B       1 00009400 00000001     X   38361 38368U
 $$$637        1 00000050 00000001 A   U   38442 38439  38441
 $$$639B       1 00009506 00000001     X   38515 38522U
 $$$64         1 00000050 00000001 A   U   11376 11373  11375
 $$$640        1 00000050 00000001 A   U   38551 38548  38550
 $$$642B       1 0000954C 00000001     X   38604 38611U
 $$$643F       2 000095A4 00000001     H   38755 38704B
 $$$644F       2 000095CA 00000001     H   38819 38767B
 $$$645F       2 00009618 00000001     H   38971 38845B 38913B
 $$$645T       2 000095DA 00000001     H   38848 38835B
 $$$647F       2 000095EC 00000001     H   38877 38864B
 $$$648F       2 000095FC 00000001     H   38901 38888B
 $$$650F       2 00009690 00000001     H   39086 39074B
 $$$651F       2 000096FE 00000001     H   39250 39237B
 $$$652F       2 000098AE 00000001     H   39847 39826B 39837B
 $$$654B       4 0000994A 00000001     I   40105 40119
 $$$654F       2 00009952 00000001     H   40115 40105B 40118
 $$$655E       2 00009956 00000001     H   40126 40120
 $$$655F       2 0000995C 00000001     H   40133 40122B
 $$$656B       4 00009960 00000001     I   40147 40163
 $$$656F       2 0000996C 00000001     H   40160 40147B 40162
 $$$657E       2 00009970 00000001     H   40170 40164
 $$$657F       2 00009980 00000001     H   40198 40166B
 $$$658F       2 00009AD4 00000001     H   40666 40541B
 $$$659B       4 00009AD8 00000001     I   40680 40737
 $$$659F       2 00009AFA 00000001     H   40731 40680B 40736
 $$$66B        1 000001DC 00000001     X   11403 11410U
 $$$660E       2 00009AFE 00000001     H   40744 40738
 $$$660F       2 00009C78 00000001     H   41252 40740B
 $$$661F       2 00009C78 00000001     H   41248 41234B
 $$$661S       2 00009BAC 00000001     H   40951 41247B
 $$$662F       2 00009C68 00000001     H   41216 40977B
 $$$665F       2 00009CA0 00000001     H   41315 41263B
 $$$666F       2 0000A012 00000001     H   42417 42383B
 $$$667        1 00000050 00000001 A   U   42684 42681  42683
 $$$669B       1 0000A578 00000001     X   42815 42822U
 $$$67F        2 00000208 00000001     H   11496 11433B
 $$$670F       2 0000A654 00000001     H   43140 42903B
 $$$670S       2 0000A5A0 00000001     H   42876 43139B
 $$$673F       2 0000A5BE 00000001     H   42937 42924B
1MODE     (MODE4072) (12:48) (15MAR04) Ordinary Symbol and Literal Cross Reference                                          Page  194
 $$$674F       2 0000A5F0 00000001     H   43029 42947B
 $$$675B       4 0000A688 00000001     I   43216 43245
 $$$675F       2 0000A69E 00000001     H   43242 43216B 43244
 $$$676E       2 0000A6A2 00000001     H   43252 43246
 $$$676F       2 0000A7BC 00000001     H   43629 43248B
 $$$677F       2 0000A7BC 00000001     H   43625 43611B
 $$$677S       2 0000A6A6 00000001     H   43259 43624B
 $$$678F       2 0000A7AC 00000001     H   43593 43285B
 $$$68F        2 00000208 00000001     H   11492 11463B 11482B
 $$$68S        2 000001EE 00000001     H   11443 11491B
 $$$681        1 00000050 00000001 A   U   43648 43645  43647
 $$$683B       1 0000A896 00000001     X   43714 43721U
 $$$684F       2 0000A8A6 00000001     H   43751 43741B
 $$$685F       2 0000A962 00000001     H   43926 43804B
 $$$686B       4 0000A9BA 00000001     I   44039 44055
 $$$686F       2 0000A9C6 00000001     H   44052 44039B 44054
 $$$687E       2 0000A9CA 00000001     H   44062 44056
 $$$687F       2 0000A9E0 00000001     H   44092 44058B
 $$$688F       2 0000AA26 00000001     H   44170 44158B
 $$$689        1 00000050 00000001 A   U   44255 44252  44254
 $$$691B       1 0000AAF6 00000001     X   44330 44337U
 $$$692        1 00000050 00000001 A   U   44396 44393  44395
 $$$694B       1 0000AB5E 00000001     X   44435 44442U
 $$$695        1 00000050 00000001 A   U   45090 45087  45089
 $$$697B       1 0000AED8 00000001     X   45171 45178U
 $$$698F       2 0000AEE6 00000001     H   45210 45197B
 $$$699F       2 0000AEF8 00000001     H   45246 45230B
 $$$700        1 00000050 00000001 A   U   45265 45262  45264
 $$$702B       1 0000AF24 00000001     X   45296 45303U
 $$$703F       2 0000AF32 00000001     H   45335 45322B
 $$$704F       2 0000AF44 00000001     H   45370 45355B
 $$$705        1 00000050 00000001 A   U   45389 45386  45388
 $$$707B       1 0000AF70 00000001     X   45420 45427U
 $$$708F       2 0000AF7E 00000001     H   45459 45446B
 $$$709        1 00000050 00000001 A   U   45493 45490  45492
 $$$71         1 00000050 00000001 A   U   11515 11512  11514
 $$$711B       1 0000AFBA 00000001     X   45526 45533U
 $$$712F       2 0000AFC8 00000001     H   45565 45552B
 $$$713F       2 0000AFDA 00000001     H   45601 45586B
 $$$714        1 00000050 00000001 A   U   45620 45617  45619
 $$$716B       1 0000B006 00000001     X   45651 45658U
 $$$717F       2 0000B014 00000001     H   45690 45677B
 $$$718F       2 0000B026 00000001     H   45726 45711B
 $$$719        1 00000050 00000001 A   U   45745 45742  45744
 $$$721B       1 0000B052 00000001     X   45835 45842U
 $$$722        1 00000054 00000001 A   U   45947 45944  45946
 $$$724B       1 0000B232 00000001     X   46138 46145U
 $$$725F       2 0000B24C 00000001     H   46183 46170B
 $$$726F       2 0000B278 00000001     H   46240 46213B
 $$$727F       2 0000B292 00000001     H   46278 46251B
 $$$728F       2 0000B2AC 00000001     H   46316 46289B
 $$$729F       2 0000B2C6 00000001     H   46354 46327B
 $$$73B        1 00000234 00000001     X   11542 11549U
 $$$730F       2 0000B2E0 00000001     H   46392 46365B
 $$$731F       2 0000B2FA 00000001     H   46430 46403B
 $$$732F       2 0000B314 00000001     H   46468 46441B
 $$$733        1 00000050 00000001 A   U   46487 46484  46486
 $$$735B       1 0000B3E4 00000001     X   46549 46556U
 $$$736F       2 0000B3F2 00000001     H   46588 46575B
1MODE     (MODE4072) (12:48) (15MAR04) Ordinary Symbol and Literal Cross Reference                                          Page  195
 $$$737F       2 0000B406 00000001     H   46615 46600B
 $$$738        1 00000050 00000001 A   U   46642 46639  46641
 $$$74F        2 00000260 00000001     H   11636 11572B
 $$$740B       1 0000B442 00000001     X   46673 46680U
 $$$741F       2 0000B45E 00000001     H   46718 46705B
 $$$742        1 00000050 00000001 A   U   46785 46782  46784
 $$$744B       1 0000B4B0 00000001     X   46816 46823U
 $$$745F       2 0000B4BE 00000001     H   46855 46842B
 $$$746        1 00000050 00000001 A   U   46918 46915  46917
 $$$748B       1 0000B5EA 00000001     X   47027 47034U
 $$$749        1 00000050 00000001 A   U   47067 47064  47066
 $$$75F        2 00000260 00000001     H   11632 11603B 11622B
 $$$75S        2 00000246 00000001     H   11582 11631B
 $$$751B       1 0000B61E 00000001     X   47098 47105U
 $$$752F       2 0000B640 00000001     H   47155 47143B
 $$$753F       2 0000B650 00000001     H   47178 47166B
 $$$754F       2 0000B668 00000001     H   47215 47191B 47203B
 $$$756        1 00000050 00000001 A   U   47260 47257  47259
 $$$758B       1 0000B69E 00000001     X   47291 47298U
 $$$759F       2 0000B6AC 00000001     H   47330 47317B
 $$$760        1 00000050 00000001 A   U   47388 47385  47387
 $$$762B       1 0000B782 00000001     X   47447 47454U
 $$$763        1 00000050 00000001 A   U   47481 47478  47480
 $$$765B       1 0000B7B0 00000001     X   47508 47515U
 $$$766        1 00000050 00000001 A   U   47562 47559  47561
 $$$768B       1 0000B7EA 00000001     X   47594 47601U
 $$$769B       4 0000B7F0 00000001     I   47623 47652
 $$$769F       2 0000B806 00000001     H   47649 47623B 47651
 $$$770E       2 0000B80A 00000001     H   47659 47653
 $$$770F       2 0000B81C 00000001     H   47692 47655B
 $$$771        1 00000050 00000001 A   U   47713 47710  47712
 $$$773B       1 0000B91E 00000001     X   47782 47789U
 $$$774F       2 0000B92C 00000001     H   47821 47808B
 $$$775        1 00000050 00000001 A   U   47846 47843  47845
 $$$777B       1 0000B95C 00000001     X   47880 47887U
 $$$778F       2 0000B96A 00000001     H   47919 47906B
 $$$779        1 00000050 00000001 A   U   47945 47942  47944
 $$$78         1 00000050 00000001 A   U   11655 11652  11654
 $$$781B       1 0000B99A 00000001     X   48026 48033U
 $$$782F       2 0000B9B2 00000001     H   48097 48084B
 $$$783F       2 0000B9BE 00000001     H   48126 48111B
 $$$784F       2 0000B9CA 00000001     H   48152 48137B
 $$$785F       2 0000B9D6 00000001     H   48178 48163B
 $$$786F       2 0000B9E2 00000001     H   48215 48198B
 $$$787F       2 0000BA9C 00000001     H   48316 48282B
 $$$788F       2 0000BAF0 00000001     H   48535 48345B
 $$$789F       2 0000BAD6 00000001     H   48467 48371B
 $$$790F       2 0000BAD6 00000001     H   48463 48412B 48425B
 $$$792B       4 0000BAE0 00000001     I   48494 48512
 $$$792F       2 0000BAE8 00000001     H   48509 48494B 48511
 $$$792T       2 0000BAE4 00000001     H   48497 48482B
 $$$794E       2 0000BAEC 00000001     H   48519 48513
 $$$794F       2 0000BAF0 00000001     H   48531 48515B
 $$$795B       4 0000BAF4 00000001     I   48547 48565
 $$$795F       2 0000BAFC 00000001     H   48562 48547B 48564
 $$$796E       2 0000BB00 00000001     H   48572 48566
 $$$796F       2 0000BB04 00000001     H   48584 48568B
 $$$797F       2 0000BC74 00000001     H   49028 48622B
 $$$798F       2 0000BC44 00000001     H   48976 48771B
1MODE     (MODE4072) (12:48) (15MAR04) Ordinary Symbol and Literal Cross Reference                                          Page  196
 $$$798S       2 0000BBB2 00000001     H   48765 48975B
 $$$80B        1 0000028C 00000001     X   11682 11689U
 $$$800F       2 0000BC1E 00000001     H   48917 48816B
 $$$801F       2 0000BC40 00000001     H   48971 48930B
 $$$802F       2 0000BD7E 00000001     H   49435 49174B
 $$$802S       2 0000BCD4 00000001     H   49168 49434B
 $$$804B       4 0000BCE0 00000001     I   49189 49226
 $$$804F       2 0000BCF4 00000001     H   49223 49189B 49225
 $$$805F       2 0000BCF4 00000001     H   49219 49204B
 $$$806E       2 0000BCF8 00000001     H   49233 49227
 $$$806F       2 0000BD7A 00000001     H   49430 49229B
 $$$807F       2 0000BD58 00000001     H   49372 49271B
 $$$808F       2 0000BD7A 00000001     H   49426 49385B
 $$$809        1 00000070 00000001 A   U   49506 49503  49505
 $$$81F        2 00000322 00000001     H   11812 11743B
 $$$811B       1 0000C02E 00000001     X   49802 49809U
 $$$812        1 00000050 00000001 A   U   49836 49833  49835
 $$$814B       1 0000C05A 00000001     X   49863 49870U
 $$$815        1 00000050 00000001 A   U   49897 49894  49896
 $$$817B       1 0000C086 00000001     X   49924 49931U
 $$$818        1 00000050 00000001 A   U   49958 49955  49957
 $$$82F        2 00000314 00000001     H   11795 11763B
 $$$820B       1 0000C0B2 00000001     X   49985 49992U
 $$$821        1 00000050 00000001 A   U   50019 50016  50018
 $$$823B       1 0000C0DE 00000001     X   50046 50053U
 $$$824        1 00000050 00000001 A   U   50086 50083  50085
 $$$826B       1 0000C112 00000001     X   50113 50120U
 $$$827        1 00000050 00000001 A   U   50147 50144  50146
 $$$829B       1 0000C13E 00000001     X   50174 50181U
 $$$83F        2 00000314 00000001     H   11791 11778B
 $$$830        1 00000050 00000001 A   U   50208 50205  50207
 $$$832B       1 0000C16A 00000001     X   50235 50242U
 $$$833        1 00000050 00000001 A   U   50269 50266  50268
 $$$835B       1 0000C196 00000001     X   50296 50303U
 $$$836        1 00000050 00000001 A   U   50330 50327  50329
 $$$838B       1 0000C1C2 00000001     X   50357 50364U
 $$$839        1 00000050 00000001 A   U   50391 50388  50390
 $$$841B       1 0000C2FA 00000001     X   50474 50481U
 $$$842B       4 0000C372 00000001     I   50641 50723
 $$$842F       2 0000C3AA 00000001     H   50719 50641B 50722
 $$$843F       2 0000C3A0 00000001     H   50691 50678B
 $$$844E       2 0000C3AE 00000001     H   50730 50724
 $$$844F       2 0000C3D0 00000001     H   50787 50726B
 $$$845F       2 0000C3C6 00000001     H   50759 50746B
 $$$846B       4 0000C46E 00000001     I   50991 51021
 $$$846F       2 0000C484 00000001     H   51018 50991B 51020
 $$$847E       2 0000C488 00000001     H   51028 51022
 $$$847F       2 0000C4F6 00000001     H   51165 51024B
 $$$848F       2 0000C4A0 00000001     H   51057 51043B
 $$$849        1 00000050 00000001 A   U   51858 51855  51857
 $$$85         1 00000050 00000001 A   U   11857 11854  11856
 $$$851B       1 0000C742 00000001     X   51889 51896U
 $$$852F       2 0000C7A6 00000001     H   51967 51958B
 $$$853F       2 0000C7E6 00000001     H   52054 51988B
 $$$854        1 00000050 00000001 A   U   52115 52112  52114
 $$$856B       1 0000C886 00000001     X   52183 52190U
 $$$857F       2 0000C892 00000001     H   52221 52208B
 $$$858F       2 0000C8AA 00000001     H   52250 52237B
 $$$859        1 00000050 00000001 A   U   52274 52271  52273
1MODE     (MODE4072) (12:48) (15MAR04) Ordinary Symbol and Literal Cross Reference                                          Page  197
 $$$861B       1 0000C8D8 00000001     X   52309 52316U
 $$$862F       2 0000C942 00000001     H   52430 52417B
 $$$863        1 00000050 00000001 A   U   52472 52469  52471
 $$$865B       1 0000C974 00000001     X   52503 52510U
 $$$866        1 00000050 00000001 A   U   52548 52545  52547
 $$$868B       1 0000CC16 00000001     X   52652 52659U
 $$$869F       2 0000CC24 00000001     H   52695 52682B
 $$$87B        1 0000035C 00000001     X   11884 11891U
 $$$870F       2 0000CCBA 00000001     H   52884 52854B 52874B
 $$$870S       2 0000CC42 00000001     H   52717 52883B
 $$$871F       2 0000CC60 00000001     H   52747 52737B
 $$$872F       2 0000CC84 00000001     H   52782 52769B
 $$$875        1 00000050 00000001 A   U   52920 52917  52919
 $$$877B       1 0000CD00 00000001     X   52953 52960U
 $$$878F       2 0000CD0E 00000001     H   52992 52979B
 $$$879        1 00000050 00000001 A   U   53014 53011  53013
 $$$881B       1 0000CD42 00000001     X   53045 53052U
 $$$882        1 00000050 00000001 A   U   53107 53104  53106
 $$$884B       1 0000CD8C 00000001     X   53138 53145U
 $$$885F       2 0000CD9E 00000001     H   53180 53169B
 $$$886        1 00000050 00000001 A   U   53262 53259  53261
 $$$888B       1 0000CDF0 00000001     X   53315 53322U
 $$$889F       2 0000CE72 00000001     H   53433 53418B
 $$$89         1 00000050 00000001 A   U   11938 11935  11937
 $$$890B       4 0000CE82 00000001     I   53453 53472
 $$$890F       2 0000CE9C 00000001     H   53468 53453B 53471
 $$$891E       2 0000CEA0 00000001     H   53479 53473
 $$$891F       2 0000CEBA 00000001     H   53510 53475B
 $$$892F       2 0000CEBA 00000001     H   53506 53496B
 $$$893F       2 0000CEE4 00000001     H   53587 53550B
 $$$894        1 00000080 00000001 A   U   53612 53609  53611
 $$$896B       1 0000CFDA 00000001     X   53721 53728U
 $$$897B       4 0000CFF6 00000001     I   53761 53774
 $$$897F       2 0000CFFE 00000001     H   53771 53761B 53773
 $$$898E       2 0000D002 00000001     H   53781 53775
 $$$898F       2 0000D006 00000001     H   53788 53777B
 $$$899        1 00000050 00000001 A   U   53818 53815  53817
 $$$901B       1 0000D046 00000001     X   53845 53852U
 $$$902        1 00000050 00000001 A   U   53889 53886  53888
 $$$904B       1 0000D08A 00000001     X   53916 53923U
 $$$905        1 00000050 00000001 A   U   53960 53957  53959
 $$$907B       1 0000D0CE 00000001     X   53987 53994U
 $$$908F       2 0000D0DC 00000001     H   54028 54015B
 $$$909F       2 0000D0FC 00000001     H   54069 54056B
 $$$91B        1 0000039C 00000001     X   11965 11972U
 $$$910F       2 0000D118 00000001     H   54111 54098B
 $$$911        1 00000050 00000001 A   U   54136 54133  54135
 $$$913B       1 0000D14A 00000001     X   54176 54183U
 $$$914        1 00000050 00000001 A   U   54238 54235  54237
 $$$916B       1 0000D186 00000001     X   54269 54276U
 $$$917B       4 0000D18C 00000001     I   54296 54326
 $$$917F       2 0000D1A2 00000001     H   54323 54296B 54325
 $$$918E       2 0000D1A6 00000001     H   54333 54327
 $$$918F       2 0000D1DE 00000001     H   54402 54329B
 $$$919        1 00000050 00000001 A   U   54421 54418  54420
 $$$92         1 00000050 00000001 A   U   12000 11997  11999
 $$$921B       1 0000D20A 00000001     X   54452 54459U
 $$$922F       2 0000D226 00000001     H   54497 54484B
 $$$923F       2 0000D250 00000001     H   54559 54517B
1MODE     (MODE4072) (12:48) (15MAR04) Ordinary Symbol and Literal Cross Reference                                          Page  198
 $$$923S       2 0000D228 00000001     H   54508 54558B
 $$$925        1 00000050 00000001 A   U   54579 54576  54578
 $$$927B       1 0000D41C 00000001     X   54668 54675U
 $$$928        1 00000050 00000001 A   U   54706 54703  54705
 $$$930B       1 0000D44E 00000001     X   54737 54744U
 $$$931F       2 0000D470 00000001     H   54811 54775B 54798B
 $$$933F       2 0000D48A 00000001     H   54861 54825B 54848B
 $$$935F       2 0000D4B6 00000001     H   54945 54875B 54898B 54932B
 $$$937F       2 0000D4B0 00000001     H   54935 54916B
 $$$939F       2 0000D4D0 00000001     H   54997 54959B
 $$$94B        1 000003CC 00000001     X   12027 12034U
 $$$940F       2 0000D4D0 00000001     H   54993 54980B
 $$$941F       2 0000D4DC 00000001     H   55021 55008B
 $$$943F       2 0000D542 00000001     H   55140 55073B
 $$$944F       2 0000D534 00000001     H   55097 55088B
 $$$945F       2 0000D542 00000001     H   55136 55112B
 $$$946        6 0000DC0A 00000001     I   55126 55118X
 $$$947        6 0000DC0A 00000001     I   55125 55126  55126
 $$$948        1 00000050 00000001 A   U   55167 55164  55166
 $$$95         1 00000050 00000001 A   U   12068 12065  12067
 $$$950B       1 0000D57A 00000001     X   55198 55205U
 $$$951F       2 0000D5A0 00000001     H   55249 55236B
 $$$952F       2 0000D5B4 00000001     H   55276 55263B
 $$$953F       2 0000D5C8 00000001     H   55303 55290B
 $$$954F       2 0000D5F0 00000001     H   55374 55312B
 $$$955F       2 0000D5E4 00000001     H   55349 55331B
 $$$958F       2 0000D6AE 00000001     H   55649 55511B 55524B
 $$$960        1 00000050 00000001 A   U   55668 55665  55667
 $$$962B       1 0000D6DA 00000001     X   55730 55737U
 $$$963F       2 0000D6F2 00000001     H   55801 55788B
 $$$964F       2 0000D7DE 00000001     H   55986 55848B
 $$$965F       2 0000D762 00000001     H   55892 55879B
 $$$965T       2 0000D75C 00000001     H   55882 55868B
 $$$967F       2 0000D770 00000001     H   55917 55904B
 $$$968F       2 0000D7F8 00000001     H   56028 56005B 56018B
 $$$97B        1 000003FC 00000001     X   12095 12102U
 $$$970F       2 0000D810 00000001     H   56065 56042B 56055B
 $$$972F       2 0000D824 00000001     H   56100 56078B 56090B
 $$$974F       2 0000D838 00000001     H   56135 56113B 56125B
 $$$976F       2 0000D84E 00000001     H   56170 56155B
 $$$977F       2 0000D860 00000001     H   56198 56185B
 $$$978        1 0000005C 00000001 A   U   56222 56219  56221
 $$$98         1 00000050 00000001 A   U   12135 12132  12134
 $$$980B       1 0000D906 00000001     X   56319 56326U
 $$$981F       2 0000D956 00000001     H   56477 56345B
 $$$982F       2 0000D956 00000001     H   56473 56384B
 $$$983F       2 0000D956 00000001     H   56464 56414B
 $$$984F       2 0000D948 00000001     H   56453 56437B
 $$$986        1 00000050 00000001 A   U   56495 56492  56494
 $$$988B       1 0000D97E 00000001     X   56529 56536U
 $$$989S       2 0000D982 00000001     H   56550 56646B
 $$$990F       2 0000D9A6 00000001     H   56625 56576B 56593B 56611B
 $$$995        1 00000050 00000001 A   U   56674 56671  56673
 $$$997B       1 0000D9DA 00000001     X   56705 56712U
 $$$998F       2 0000D9E8 00000001     H   56749 56736B
 $$$999B       4 0000DA46 00000001     I   56800 56817
 $$$999F       2 0000DA52 00000001     H   56813 56800B 56816
 $1HOUR        1 00000D69 00000001 A   N   53695 54612  54613  54614  54615
 @RAR          0 00000000 FFFFFFF0     @    1136  6246   6254B
1MODE     (MODE4072) (12:48) (15MAR04) Ordinary Symbol and Literal Cross Reference                                          Page  199
 @R0           0 00000000 FFFFFFFE     @     706   982U
 @R1           0 00000000 FFFFFFFD     @     719   978U  6252   6253  12330  12341  12500  13362  13408  13668  15741
                                                 15754  17262  17297  17298  17577  37182  37800  53760  55125  55865
                                                 55878  55903
 @R10          0 00000000 FFFFFFF4     @     836   942U
 @R11          0 00000000 FFFFFFF3     @     849   938U
 @R12          0 00000000 FFFFFFF2     @     862   934U
 @R13          0 00000000 FFFFFFF1     @     875   930U 11163  12887  16361  21449  30398  44138M 44139
 @R14          0 00000000 FFFFFFF0     @     888   926U
 @R15          0 00000000 FFFFFFEF     @     901   922U 14153  14239  14255  14274  14293  14344  14358  14373  37710U
                                                 39813U 39947U 40075U 44000U 44370U 48399U 48424  48458U 51552U 51554
                                                 57275  57288  57545  58007
 @R2           0 00000000 FFFFFFFC     @     732   974U 41036  41084  43344  43392  48451U 54080  54554
 @R3           0 00000000 FFFFFFFB     @     745   970U 16710M 16714M 16730  16746M 16790  16829  57739U 58207U 58782U
 @R4           0 00000000 FFFFFFFA     @     758   966U 16689  16702  17308  17309  17579  37620U 38033U 57442  57913
 @R5           0 00000000 FFFFFFF9     @     771   962U 17317U 17577M 17578  29064U 37331  38040U 41244U 52123U 52711M
                                                 52730  53861  53932  54029  56470U
 @R6           0 00000000 FFFFFFF8     @     784   958U 16589U 16925U 17419M 17419  17503  23237U 23614U 24063U 24932U
                                                 25347U 43136U 43621U 46108U 50400U 54146U 55059M 55059  55078M 55125M
                                                 55305M 55305  55381  55459  56287U 56373U 56655U 57746U
 @R7           0 00000000 FFFFFFF7     @     797   954U 11297U 11365U 11504U 11644U 11846U 11927U 11989U 12057U 12124U
                                                 12209U 12370U 12517U 12630U 12768U 12894U 12957U 13020U 13118U 13442U
                                                 13702U 13768U 13969U 14381U 14479U 14564U 14666U 14733U 14905U 14967U
                                                 15069U 15136U 15202U 15387U 15453U 15520U 15843U 15920U 15997U 16073U
                                                 16150U 16220U 16422U 17053U 17153U 17326U 17592U 20329U 20396U 20480U
                                                 20565U 20631U 20716U 20785U 21304U 21495U 22068U 22133U 22645U 22962U
                                                 23217U 23427U 23594U 23827U 24043U 24195U 24444U 24708U 24912U 25150U
                                                 25327U 25518U 25673U 25828U 25995U 26162U 26320U 26478U 26634U 26794U
                                                 26952U 27106U 27263U 29043U 29233U 29835U 29986U 30117U 30269U 30540U
                                                 30650U 30886U 31133U 31212U 31291U 31370U 31449U 31528U 31607U 31721U
                                                 31832U 32039U 32199U 32363U 32541U 32705U 32869U 32969U 33097U 35949U
                                                 36052U 36517U 36709U 36901U 36964U 37368U 38012U 38271U 38431U 38540U
                                                 42673U 43637U 44244U 44385U 45079U 45254U 45378U 45482U 45609U 45734U
                                                 45936U 46476U 46631U 46774U 46907U 47056U 47249U 47377U 47470U 47551U
                                                 47702U 47835U 47934U 49495U 49825U 49886U 49947U 50008U 50075U 50136U
                                                 50197U 50258U 50319U 50380U 51847U 52104U 52263U 52461U 52537U 52909U
                                                 53003U 53096U 53251U 53601U 53807U 53878U 53949U 54125U 54227U 54410U
                                                 54568U 54695U 55156U 55657U 56211U 56484U 56663U 56926U 57468U 57719U
                                                 57930U 58187U 58762U
 @R8           0 00000000 FFFFFFF6     @     810   950U 13437U 13697U 22957U 23422U 23822U 24703U 25145U 29038U 45931U
                                                 49490U 53596U 56206U 57463U
 @R9           0 00000000 FFFFFFF5     @     823   946U
 ABSCENT       1 00000000 00000000 A   T    6262  6262
 ACCTPSHC      1 00000000 00000067     T   29081 29081
 ACTRESET      1 00000000 00000059     T   24232 24232
 AHLHEAD       1 00000000 00000000 A   T    1643  1643
 AHLVCCR8      1 00000000 00000000 A   T    2134  2134
 ASCB          1 00000000 FFFFFFE9     J    2676 39800U 39934U 40062U 43987U 44357U
 ASCBEJST      8 00000040 FFFFFFE9     D    2752 39940  40068  43993  44363
 ASCBSRBT      8 000000C8 FFFFFFE9     D    2979 39806
 ASCTBL        1 00000000 00000000 A   T    6270  6270
 ASMVT         1 00000000 00000000 A   T    2023  2023
 AUTHPRT       4 000036FC 00000001     F   20805 17631
 AUTODISP      1 00000000 0000006B     T   29132 29132
 BLTBL         1 00000000 00000000 A   T    6272  6272
 BR            7 00000007 00000001 A   #    1026 11072M 11330M 11398M 11537M 11677M 11879M 11960M 12022M 12090M 12157M
                                                 12242M 12403M 12550M 12663M 12802M 12927M 12990M 13053M 13208M 13496M
                                                 13736M 13801M 14002M 14414M 14512M 14597M 14699M 14814M 14938M 15004M
                                                 15102M 15169M 15322M 15420M 15486M 15622M 15880M 15956M 16033M 16109M
1MODE     (MODE4072) (12:48) (15MAR04) Ordinary Symbol and Literal Cross Reference                                          Page  200
                                                 16188M 16260M 16469M 17087M 17186M 17364M 20296M 20362M 20429M 20513M
                                                 20598M 20664M 20749M 21254M 21358M 22033M 22101M 22169M 22715M 23159M
                                                 23290M 23536M 23672M 23985M 24088M 24287M 24519M 24854M 24990M 25269M
                                                 25399M 25554M 25709M 25864M 26031M 26198M 26356M 26514M 26674M 26830M
                                                 26988M 27142M 27340M 29197M 29266M 29872M 30023M 30160M 30307M 30573M
                                                 30687M 31087M 31166M 31245M 31324M 31403M 31482M 31561M 31642M 31754M
                                                 31866M 32073M 32232M 32396M 32574M 32738M 32902M 33002M 35915M 35986M
                                                 36090M 36583M 36848M 36934M 37004M 37437M 38100M 38356M 38510M 38599M
                                                 42810M 43709M 44325M 44430M 45166M 45291M 45415M 45521M 45646M 45830M
                                                 46133M 46544M 46668M 46811M 47022M 47093M 47286M 47442M 47503M 47589M
                                                 47777M 47875M 48021M 49797M 49858M 49919M 49980M 50041M 50108M 50169M
                                                 50230M 50291M 50352M 50469M 51884M 52178M 52304M 52498M 52647M 52948M
                                                 53040M 53133M 53310M 53716M 53840M 53911M 53982M 54171M 54264M 54447M
                                                 54663M 54732M 55193M 55725M 56314M 56524M 56700M 57095M 57501M 57771M
                                                 57963M 58233M
 BRKLGN        2 0000D964 00000001     H   56510 57031
 BTD           1 00000000 00000077     T   29147 29147  33128  50429
 BTR           1 00000000 000000D6     T   42709 42709  45112  54602
 BTX           1 00000000 000000D3     T   38057 38057
 CACT          2 0000433A 00000001     H   22699 21561  21606  24235  25366
 CACTERR       2 00004590 00000001     H   23145 23139
 CACTFEXE    128 00000000 FFFFFFD4        22677 22934  23034M
 CACTFLAG      1 00000000 FFFFFFD4     R   22673 22677  22682
 CACTFVAR     64 00000000 FFFFFFD4        22682 22909  23053M 23072M 23091M
 CACTPRT       4 00004428 00000001     F   22981 24226
 CACTS         2 000045CE 00000001     H   23274 21576  21591
 CACTSERR      2 00004718 00000001     H   23522 23516
 CACTSFL       1 00000000 FFFFFFD3     R   23250 23254
 CACTSFR     128 00000000 FFFFFFD3        23254 23387  23498M
 CACTSPRT      4 00004678 00000001     F   23445 24231
 CACTSWA       1 00000000 FFFFFFD3     J   23263 23287  23316U 23320  23328U 23336M 23435  23437  23438
 CACTWA        1 00000000 FFFFFFD4     J   22691 22712  22741U 22745  22753U 22761M 22970  22972  22973
 CALCPGC       1 00000000 000000DC     T   50423 50423
 CATTN         2 0000550E 00000001     H   26660 21846  21861
 CBBRANCH      1 00000000 00000000 A   T    2179  2179
 CDEF          2 00004FEA 00000001     H   25385 21726
 CDEV          2 000055B0 00000001     H   26816 21921
 CERROR        2 0000546C 00000001     H   26500 21831
 CEXEC         2 00004756 00000001     H   23656 21621
 CEXECERR      2 0000491C 00000001     H   23971 23965
 CEXECPRT      4 00004804 00000001     F   23846 24234
 CEXECSUB      2 0000495A 00000001     H   24074 24230  25365
 CEXECWA       1 00000000 FFFFFFD2     J   23645 23669  23698U 23702  23710U 23718M 23835  23837  23838
 CEXEFACT    128 00000000 FFFFFFD2        23631 23799  23860M
 CEXEFLAG      1 00000000 FFFFFFD2     R   23627 23631  23636
 CEXEFVAR     64 00000000 FFFFFFD2        23636 23774  23879M 23898M 23917M
 CGETSTK       2 000056FA 00000001     H   27128 21876
 CHECKIOB      1 00000000 00000000 A   T    6318  6318
 CHIST         2 0000512E 00000001     H   25695 21741
 CHKKW         1 00000000 00000015     T   17635 17635
 CHKXOLD       1 00000000 0000005B     T   24237 24237
 CLEAR         2 00003B4C 00000001     H   21344 21340
 CLEARN        2 0000508C 00000001     H   25540 21936
 CLEARPRT      4 00003C64 00000001     F   21534 21519
 CLRACTS       1 00000000 0000005A     T   24233 24233
 CLRATTN       1 00000000 00000065     T   27298 27298
 CLRDEBUG      1 00000000 00000066     T   27299 27299
 CLRDEF        1 00000000 0000005F     T   27291 27291
 CLRERROR      1 00000000 00000064     T   27296 27296
1MODE     (MODE4072) (12:48) (15MAR04) Ordinary Symbol and Literal Cross Reference                                          Page  201
 CLREX         1 00000000 0000005C     T   24238 24238
 CLRFTP        1 00000000 00000053     T   21906 21906
 CLRHCMDS      1 00000000 00000061     T   27293 27293
 CLRHOSTS      1 00000000 00000052     T   21891 21891
 CLRLRN        1 00000000 00000060     T   27292 27292
 CLRNULL       2 00004164 00000001     H   22019 21546
 CLRTEXT       1 00000000 00000056     T   24227 24227  25368
 CLRVARS       1 00000000 00000058     T   24229 24229  25364
 CLRWBKUP      2 0000DDDC 00000001     H   57757 19124
 CMDFIN        1 00000000 00000027     T   18192 18192  18869  18914  18959  19998  24220  33132  33873  34023  34535
                                                 35710  35755  35800  35890
 COLLOPTS      1 00000000 00000079     T   33123 33123  36541  38051  38294  45116  46502  47729  52580  54619  57022
 COLLPSH       1 00000000 00000068     T   29096 29096  36813  38475  44290  53677  56987
 COLSDISP     35 000090C0 00000001     C   37383 37311
 COMMAND       1 00000000 00000000 A   T    6258  6258
 COMMSEG       1 00000000 00000000 A   T    6259  6259
 CP         4096 00000000 FFFFFFDD     J   10272  5247U
 CP#XSTK       1 00000010 FFFFFFDD A   U    8004  8005
 CPACCTSV      5 000001B8 FFFFFFDD     C    6790 24617M
 CPACFLG       1 000005D5 FFFFFFDD     R    8107  8111   8116   8121   8126   8131
 CPACFLN       4 000005C4 FFFFFFDD     F    8099  8134   8134
 CPACHCT       4 000005B4 FFFFFFDD     F    8064 29751
 CPACLNO       4 000005A8 FFFFFFDD     F    8061 12756M 30224M
 CPAFLAG       1 000005C3 FFFFFFDD     R    8071  8075   8080   8085   8090
 CPAFNAME    128 0000062C FFFFFFDD     C    8145 16553M 16662M 16708  16750  17627  28351  28394  36195  36238
 CPAFNAMEL
               4 00000628 FFFFFFDD     F    8144 16345M 16345  16552M 16633M 16709  16752M 22849M 22849  24611M 24611
                                                 28284  28356  28399  36128  36200  36243
 CPAFTYPE      1 00000626 FFFFFFDD     R    8142 16556M 16894M 16919M 16941  16947M 36409  36448
 CPAHOST     128 000006B0 FFFFFFDD     C    8147 16555M 16873M 28517  36359
 CPAHOSTL      4 000006AC FFFFFFDD     F    8146 16350M 16350  16554M 16579M 16579  16846M 16994M 16994  22854M 22854
                                                 24616M 24616  28483  28522  36325M 36325  36364  36392M 36392
 CPALNCT       4 000005AC FFFFFFDD     F    8062 22811M 22811
 CPANAME       8 00000588 FFFFFFDD     C    8053  8149   8149
 CPATITL      80 000005D6 FFFFFFDD     C    8139 17019  17032M 17032
 CPAUTFLG      1 000008A9 FFFFFFDD     R    8417  8421   8426   8431   8436
 CPAUTHGP      2 000008A7 FFFFFFDD     C    8413 17309M 31946  31951
 CPAUTHUS      3 000008A4 FFFFFFDD     C    8412 17308M 31992  31997
 CPCACCT       5 00000C48 FFFFFFDD     C    9082 27389M
 CPCGRP        2 00000C4B FFFFFFDD     C    9084 27428  27447
 CPCHFLAG      1 00000B68 FFFFFFDD     R    9044  9048
 CPCMNM        3 00000D24 FFFFFFDD     C    9370 14034  16281M 16967  30194  30242  30257M 45229  45354  45585  45710
                                                 53452  54774  54824  54874  54958  55235  55262  55289  55330  55510
 CPCPLEN       2 000007FE FFFFFFDD     H    8288 11838M 11838  11918M 15700M 15700  15819M 33059
 CPCPRMT      62 00000800 FFFFFFDD     C    8289 11919M 15705M 15705  15807  15814  33055
 CPCUSER       3 00000C48 FFFFFFDD     C    9083 27429  27495  27500
 CPDELTA       4 00000738 FFFFFFDD     F    8156 12201M 28182  31667
 CPDFLG        1 0000084C FFFFFFDD     R    8304  8308   8313   8318   8323   8328
 CPDFLG2       1 0000084D FFFFFFDD     R    8333  8337   8342   8347   8352   8357   8362
 CPDMPLST      4 00000C68 FFFFFFDD     F    9094 30223M
 CPDOUB        8 00000C88 FFFFFFDD     D    9290 12424M 12500M 12509  28965  29696  29762  37725  39105  40190  44084
                                                 44189  53198
 CPERRID       8 00000886 FFFFFFDD     C    8403 11353M 13370M 22056M 22855M 24147M 26295M 26453M 30611M 30634M
 CPESCAPE      1 000008BA FFFFFFDD     C    8479 13317M 13425M 13654  13668  28749  28802  28807  32609  32658  32663
 CPEXFLG       1 00000758 FFFFFFDD     R    8173  8177
 CPEXFLG2      1 00000759 FFFFFFDD     R    8183  8192   8202
 CPEXFLG3      1 0000075A FFFFFFDD     R    8209  8213   8218
 CPEXLINE      4 0000075C FFFFFFDD     F    8226 12740M
 CPEXTFLG      1 00000E28 FFFFFFDD     R    9855  9859   9864   9869   9874   9879   9884
1MODE     (MODE4072) (12:48) (15MAR04) Ordinary Symbol and Literal Cross Reference                                          Page  202
 CPFABORT    128 00000D5A FFFFFFDD         9621  6222M  6222   6227M  6227
 CPFAUSET      1 00000040 FFFFFFDD A   U    7670 17145  17310  31891
 CPFCLEAR     16 00000D55 FFFFFFDD         9501 22822M 23410M 25103M
 CPFCMDED      1 00000020 FFFFFFDD A   U    7658 20964  20984  29357
 CPFCMDFX      1 00000040 FFFFFFDD A   U    7657 14555  20943  29295
 CPFDISP      16 00000C7B FFFFFFDD         9189 22593M 22626M
 CPFDSNMS      1 00000020 FFFFFFDD A   U    9397 16282
 CPFDUMP     128 00000D55 FFFFFFDD         9486 30230M 30603  36658
 CPFERROR     64 00000D5A FFFFFFDD         9626  6221M  6221   6226M  6226
 CPFEXEC     128 00000758 FFFFFFDD         8177 11189  30431
 CPFFOPT       1 00000010 FFFFFFDD A   U    9476 36672
 CPFINFOP      4 00000E54 FFFFFFDD     A    9903 16499  16895
 CPFKWENT      1 00000080 FFFFFFDD A   U    7656 28009
 CPFNTEX       1 00000040 FFFFFFDD A   U    9473  9474
 CPFNTMO      32 0000047F FFFFFFDD         7915 47827M 47926M
 CPFNWARN      4 00000D55 FFFFFFDD         9511 22996M 23015M 23460M 23479M
 CPFRDEXE      2 00000D89 FFFFFFDD         9799 12576M 12734
 CPFRDRNG      1 00000D88 FFFFFFDD     R    9741  9745   9750   9755   9760   9765   9770   9775
 CPFRDSRC      1 00000D89 FFFFFFDD     R    9780  9789   9799   9809
 CPFSEC       32 00000474 FFFFFFDD         7628 20624M 20709M 20777  20777  20778M
 CPFSETP     128 00000D56 FFFFFFDD         9521 17043M
 CPFSLOCK     16 00000474 FFFFFFDD         7633 20694  20777  20777
 CPFTYPED     16 00000477 FFFFFFDD         7678 22865  24157  55361
 CPFUNUM       1 00000080 FFFFFFDD A   U    9472  9474  36685  37098
 CPFXAUTH     64 0000075A FFFFFFDD         8218 20473M 20558M
 CPFXAUTHLIB
             128 0000075A FFFFFFDD         8213 20459  20543
 CPFXDFLG      1 000007E4 FFFFFFDD     R    8251  8255   8260
 CPFXDUMP    128 000007E4 FFFFFFDD         8255 15912M 15989M 26311M
 CPFXERR       2 00004D64 00000001     H   24840 24834
 CPFXFACT    128 00000000 FFFFFFD1        24473 24680  24740M
 CPFXFEXE     64 00000000 FFFFFFD1        24478 24655  24759M
 CPFXFLAG      1 00000000 FFFFFFD1     R   24469 24473  24478  24483
 CPFXFVAR     32 00000000 FFFFFFD1        24483 24630  24778M 24797M 24816M
 CPFXOVER    128 000007FD FFFFFFDD         8283 20322M 20389M
 CPFXPRT       4 00004C74 00000001     F   24726 25363
 CPFXQT       64 000007E4 FFFFFFDD         8260 16065M 16142M 26469M
 CPF3IMED      1 00000008 FFFFFFDD A   U    7660 21004  21025  29521
 CPGETLN       2 00000868 FFFFFFDD     H    8389 27255M 27255  54295M 54295  54368
 CPGETSTK      4 00000864 FFFFFFDD     F    8388 54335
 CPGFCLR      64 00000478 FFFFFFDD         7729 21085M 21104M 21124M 21144M 29465
 CPGFCPR     128 00000474 FFFFFFDD         7618 11823  11909  15712M 15825M
 CPGFLG1       1 00000474 FFFFFFDD     R    7614  7618   7623   7628   7633   7638   7968   7968
 CPGFLG10      1 0000047D FFFFFFDD     R    7851  7855   7860   7865   7870   7875   7880
 CPGFLG11      1 0000047E FFFFFFDD     R    7886  7890   7895
 CPGFLG12      1 0000047F FFFFFFDD     R    7901  7905   7910   7915
 CPGFLG13      1 00000480 FFFFFFDD     R    7921  7925
 CPGFLG14      1 00000481 FFFFFFDD     R    7931  7935   7940   7945   7950   7955
 CPGFLG3       1 00000476 FFFFFFDD     R    7654 14557M 20945M 20966M 20986M 21006M 21027M 28011  29297  29359  29523
 CPGFLG4       1 00000477 FFFFFFDD     R    7667  7678   7687   7696   7705   7714  17145M 17310M 31891
 CPGFLG5       1 00000478 FFFFFFDD     R    7720  7724   7729   7734   7739   7744   7749   7754   7759
 CPGFLG6       1 00000479 FFFFFFDD     R    7765  7769   7774   7779
 CPGFLG7       1 0000047A FFFFFFDD     R    7785  7789   7794   7799   7804
 CPGFLG8       1 0000047B FFFFFFDD     R    7810  7814   7819   7824   7829
 CPGFLG9       1 0000047C FFFFFFDD     R    7835  7839   7845
 CPGFMULT    128 00000478 FFFFFFDD         7724 12049M 12116M
 CPGFNATN      8 00000478 FFFFFFDD         7744 21164M 21183M 29580
 CPGFNLST      1 00000477 FFFFFFDD         7714 21047M 21066M 29408
 CPGFNOSPIEDIT
1MODE     (MODE4072) (12:48) (15MAR04) Ordinary Symbol and Literal Cross Reference                                          Page  203
             128 00000480 FFFFFFDD         7925 15446M 15513M 30058
 CPGRPSV       2 000001BB FFFFFFDD     C    6792 27937  27942
 CPINIT        1 00000174 FFFFFFDD     U    6784 10241
 CPJESFLG      1 000009E1 FFFFFFDD     R    8516  8520   8525   8530   8535   8540   8545   8550   8555
 CPJESFLY      1 000009FD FFFFFFDD     R    8566  8570   8575   8580
 CPJESHFL      1 000009E0 FFFFFFDD     R    8501  8505   8510   8589   8589
 CPLENGTH      2 0000087E FFFFFFDD     H    8401 11981M 28147  32098  32153
 CPLFLG10      1 00000D59 FFFFFFDD     R    9607  9611
 CPLFLG11      1 00000D5A FFFFFFDD     R    9617  9621   9626   9631   9636
 CPLFLG12      1 00000D5B FFFFFFDD     R    9642  9646
 CPLFLG14      1 00000D5C FFFFFFDD     R    9652  9656   9661   9666   9671   9676
 CPLFLG2       1 00000D51 FFFFFFDD     R    9394 16282M
 CPLFLG5       1 00000D54 FFFFFFDD     R    9469 36674  36687M 37100
 CPLFLG6       1 00000D55 FFFFFFDD     R    9482  9486   9491   9496   9501   9506   9511
 CPLFLG7       1 00000D56 FFFFFFDD     R    9517  9521   9526   9531   9536   9541
 CPLFLG8       1 00000D57 FFFFFFDD     R    9547  9551   9556   9561   9566
 CPLFLG9       1 00000D58 FFFFFFDD     R    9572  9576   9581   9586   9591   9596   9601
 CPLIB         8 000008AB FFFFFFDD     C    8475 12509M 13151  28238  28243  36022  36027
 CPLOCALZ      1 00000C48 FFFFFFDD     U    9074 10235  10235
 CPMFLG        1 0000084F FFFFFFDD     R    8371  8375
 CPMODFLG      1 00000C78 FFFFFFDD     R    9102  9106   9111   9116   9121   9126
 CPNAMELN      1 00000010 FFFFFFDD A   U    7997  8244
 CPNEDPFX     10 00000E29 FFFFFFDD     X    9888  9889   9890
 CPNSCANP      4 0000008C FFFFFFDD     A    6657 11098  11104  11111  11126  11135  11160  11197  11204  11220  11251
                                                 11258  11274  11700  11707  11722  11752  12265  12272  12287  12328
                                                 12427  12434  12449  12498  12587  12594  12610  12694  12701  12717
                                                 12825  12831  12838  12853  12884  13076  13083  13099  13240  13247
                                                 13262  13276  13528  13535  13550  13564  13824  13831  13846  13907
                                                 13914  13929  14055  14062  14077  14091  14437  14444  14460  14621
                                                 14628  14644  14845  15027  15034  15050  15345  15352  15368  15646
                                                 15653  15668  15798  16285  16291  16298  16313  16358  16368  16375
                                                 16391  17110  17117  17133  17209  17434  17441  17456  17470  21384
                                                 21390  21397  21412  21421  21446  21453  21460  21476  22192  22199
                                                 22214  22765  22772  22788  23340  23347  23363  23722  23729  23745
                                                 24310  24317  24332  24569  24576  24592  25040  25047  25063  25422
                                                 25429  25444  25577  25584  25599  25732  25739  25754  25887  25894
                                                 25909  26054  26061  26076  26221  26228  26243  26379  26386  26401
                                                 26537  26544  26559  26697  26704  26719  26860  26867  26882  27011
                                                 27018  27033  27165  27172  27187  27392  27399  27415  30333  30339
                                                 30346  30361  30370  30395  30439  30446  30462  30493  30500  30516
                                                 30742  30749  30804  30811  30827  36614  36621  36637  38383  38390
                                                 38406  43755  43762  43778  45880  45887  45903  46859  46866  46882
                                                 47334  47341  47357  47526  48231  48238  48254  51912  51919  51935
                                                 53370  53377  53393  55025  55805  55812  55827  55920  55948  55955
                                                 55971  56753  56760  56776  57193  57200  57215  57843  57850  57865
 CPNUMFLG      1 00000C79 FFFFFFDD     R    9132  9144
 CPORVCMD      1 00000140 FFFFFFDD     R    6666  6670   6675   6680   6685   6690   6695   6700   6705   6710   6710
                                                  6761   6761
 CPORVFLG      1 00000149 FFFFFFDD     R    6717  6721   6726   6731   6736   6741   6746   6751   6756
 CPORVWF       1 00000150 FFFFFFDD     R    6769  6773
 CPORVYL       8 000008BC FFFFFFDD     C    8481 14046M 14046  14373M 32431M 32431  32478  32483
 CPOSCANX      4 00000CA8 FFFFFFDD     F    9301  9368   9368
 CPR          11 0000000B 00000001 A   #    1090  5247U
 CPRACBAD     16 000001FC FFFFFFDD         6835  6869   6869   6870   6870
 CPRACF1       1 000001FC FFFFFFDD     R    6816  6820   6825   6830   6835   6840   6845   6850   6855   6871
 CPRACPSW     32 000001FC FFFFFFDD         6830  6868   6868   6870   6870
 CPRACUND     64 000001FC FFFFFFDD         6825  6868   6868   6869   6869
 CPRCVCUR      4 00000730 FFFFFFDD     A    8152  8154   8154
 CPREF         2 00004BAC 00000001     H   24503 21651  21666
1MODE     (MODE4072) (12:48) (15MAR04) Ordinary Symbol and Literal Cross Reference                                          Page  204
 CPREFWA       1 00000000 FFFFFFD1     J   24492 24516  24545U 24549  24557U 24565M 24716  24718  24719
 CPRETURN      4 00000764 FFFFFFDD     F    8228 12622M
 CPRFLG        1 000008AA FFFFFFDD     R    8442  8446   8451   8456   8461   8466   8471
 CPRSCNVL      2 000008B8 FFFFFFDD     H    8478 13757M 28954  32927
 CPS         254 00000344 FFFFFFDD     X    7586  7589   7590   7592   7592
 CPSACCT       5 000003B4 FFFFFFDD     C    7185  7348   7348  11177M 11177  24617  27389  27806  30419M 30419  44346
 CPSAMCOD      1 00000A22 FFFFFFDD     R    8638  8646   8656   8666   8675   8684   8693   8703   8712   8721
 CPSAMFLG      1 00000A21 FFFFFFDD     R    8598  8602   8607   8612   8617   8622   8627   8632   8743   8743
 CPSCNFLG      1 00000CD0 FFFFFFDD     R    9314  9325   9334   9345
 CPSCNF2       1 00000CD1 FFFFFFDD     R    9350  9354
 CPSCNMAX      1 00000014 FFFFFFDD A   U    9366  9367
 CPSCRI        2 00000434 FFFFFFDD     H    7575  7580   7580
 CPSEG        60 00000050 FFFFFFDD     X    6655 13900  14172  15779  17560  21288  22259  22553  22567  22614  22884
                                                 23199  23576  24025  24176  24377  24894  25309  25489  25644  25799
                                                 25954  25972  26121  26139  26288  26446  26604  26764  26927  27078
                                                 27232  27462  27480  27508  27543  27571  27589  27612  27637  27662
                                                 27681  27712  27748  27784  27855  27885  27903  27922  27950  27968
                                                 27996  28031  28074  28120  28138  28159  28177  28206  28225  28267
                                                 28304  28337  28380  28434  28461  28502  28530  28563  28595  28630
                                                 28665  28699  28734  28789  28831  28886  28928  28946  28989  29021
                                                 29317  29339  29393  29428  29450  29485  29507  29543  29565  29600
                                                 29622  29677  29724  29742  29786  29804  29823  29926  29948  29974
                                                 30078  30100  30733  30864  31121  31200  31279  31358  31437  31516
                                                 31595  31691  31709  31802  31820  31916  31959  31977  32005  32023
                                                 32129  32165  32183  32286  32329  32347  32450  32507  32525  32628
                                                 32671  32689  32792  32835  32853  32939  32957  33040  33067  33085
                                                 36035  36148  36181  36224  36278  36305  36344  36372  36428  36467
                                                 36504  37132  37194  37280  37326  37357  37486  37570  37608  37650
                                                 37680  37698  37749  37767  37815  37900  37932  37951  37982  38000
                                                 38156  38181  38218  38258  38645  38663  38688  38722  38747  38786
                                                 38811  38938  38963  38986  39024  39045  39129  39147  39172  39200
                                                 39218  39270  39298  39316  39340  39358  39380  39398  39426  39444
                                                 39466  39484  39506  39524  39546  39564  39597  39618  39656  39681
                                                 39700  39741  39766  39785  39875  39900  39919  39976  40001  40026
                                                 40044  40218  40243  40268  40293  40311  40333  40351  40382  40407
                                                 40428  40446  40467  40485  40506  40524  40571  40614  40658  40705
                                                 40723  40766  40784  40809  40834  40852  40895  40915  40941  41002
                                                 41021  41051  41069  41099  41123  41141  41165  41183  41208  41288
                                                 41306  41339  41357  41379  41397  41419  41437  41460  41478  41506
                                                 41524  41555  41579  41597  41628  41650  41668  41699  41720  41738
                                                 41759  41777  41805  41823  41851  41869  41891  41909  41937  41955
                                                 41983  42001  42029  42047  42073  42091  42115  42133  42161  42183
                                                 42201  42224  42242  42264  42282  42305  42323  42345  42363  42405
                                                 42437  42463  42485  42503  42525  42543  42567  42610  42628  42656
                                                 42847  42865  42977  43005  43049  43082  43100  43124  43164  43182
                                                 43200  43234  43310  43329  43359  43377  43407  43432  43450  43481
                                                 43499  43524  43542  43567  43585  43822  43852  43870  43900  43918
                                                 43951  43969  44112  44133  44213  44231  44479  44497  44522  44547
                                                 44567  44605  44632  44657  44684  44702  44731  44749  44775  44793
                                                 44819  44837  44862  44888  44906  44931  44958  44976  45004  45022
                                                 45048  45066  46198  46232  46270  46308  46346  46384  46422  46460
                                                 46733  46762  47127  47235  47641  47684  48300  48643  48667  48685
                                                 48715  48729  48754  48834  48864  48878  48903  48956  48991  49015
                                                 49045  49069  49087  49117  49131  49156  49289  49319  49333  49358
                                                 49411  49450  49474  50503  50524  50542  50563  50581  50606  50625
                                                 50659  50711  50779  50802  50827  50852  50871  50894  50915  50933
                                                 50958  50976  51010  51077  51100  51139  51157  51186  51211  51232
                                                 51253  51271  51290  51314  51332  51351  51375  51393  51417  51441
                                                 51466  51485  51506  51524  51573  51591  51610  51628  51649  51667
1MODE     (MODE4072) (12:48) (15MAR04) Ordinary Symbol and Literal Cross Reference                                          Page  205
                                                 51688  51713  51732  51750  51771  51789  51810  51835  52006  52027
                                                 52045  52072  52090  52346  52364  52393  52450  52802  52816  52841
                                                 53080  53222  53240  53531  53579  54214  54315  54349  54376  54394
                                                 54549  55414  55446  55490  55567  55599  55641  56849  56867  56901
                                                 57331  57349  57588  57606  57685  57703  58050  58068  58153  58171
                                                 58445  58470  58504  58532  58566  58594  58612  58641  58682  58700
                                                 58725  58743
 CPSEGCOD      1 00000050 FFFFFFDD     R    6572  6581   6591   6601   6611   6621   6631   6641
 CPSFADM       2 000003BE FFFFFFDD         7308 54915
 CPSFAPR      64 000003BE FFFFFFDD         7283 54844  54844
 CPSFDUMB      8 00000384 FFFFFFDD         6947 22296
 CPSFL         1 00000384 FFFFFFDD     R    6923  6927   6932   6937   6942   6947
 CPSFLG        1 000003F8 FFFFFFDD     R    7463  7467   7472   7477   7482   7487   7492   7497   7502
 CPSFLG2       1 000003F9 FFFFFFDD     R    7508  7512   7517   7522
 CPSFL2        1 00000385 FFFFFFDD     R    6953  6957   6962   6967   6972
 CPSFL3        1 00000386 FFFFFFDD     R    6978  6982   6987   6992
 CPSFL4        1 00000387 FFFFFFDD     R    6998  7002   7007   7012
 CPSFL5        1 00000388 FFFFFFDD     R    7018  7022   7027   7032
 CPSFOPR      16 000003BE FFFFFFDD         7293 48082  48082  54794  54794  54894  54894  54978  54978  55786  55786
                                                 56734  56734  57158  57815  58385  58385
 CPSFPERM      2 000003EE FFFFFFDD         7431 11432  11450M 11571  11590M
 CPSFSPR      32 000003BE FFFFFFDD         7288 14311  17394  45196  45321  45445  45551  45676  46574  46841  47316
                                                 47807  47905  48082  48082  48083  52681  52978  54794  54794  54795
                                                 54844  54844  54845  54894  54894  54895  54978  54978  54979  55786
                                                 55786  55787  56734  56734  56735  57146  57803  58385  58385  58386
 CPSGRP        2 000003B7 FFFFFFDD     C    7187 54929
 CPSKAFL       1 000003BF FFFFFFDD     R    7319  7323   7328   7333   7338   7343
 CPSKIFL       1 000003BE FFFFFFDD     R    7274  7278   7283   7288   7293   7298   7303   7308   7313
 CPSKIP        1 000008BB FFFFFFDD     C    8480 13394  13408  13605M 13685M 28846  28899  28904  32773  32822  32827
 CPSOF         1 000001F8 FFFFFFDD     X    6806  6808   6808
 CPSOFLAG      1 00000416 FFFFFFDD     R    7533  7537   7542   7547   7552   7557
 CPSOPST       4 000003C4 FFFFFFDD     F    7353  7582   7582
 CPSPORT       8 00000354 FFFFFFDD     C    6917  7037   7037
 CPSQFLG       1 000003EC FFFFFFDD     R    7382  7386
 CPSSFLG       1 000003BB FFFFFFDD     R    7192  7196   7201   7206   7211   7216   7221
 CPSSTART      4 00000344 FFFFFFDD     F    6909  6913   6913   7349   7349   7454   7454   7586   7586
 CPSSTAT       1 0000038F FFFFFFDD     R    7129  7133   7138   7143   7148   7153   7158   7163
 CPSTABS      16 00000406 FFFFFFDD     X    7529 24406M 24406
 CPSTACF       1 000003BC FFFFFFDD     R    7227  7231   7236   7241   7246   7251   7256   7261   7266
 CPSTART       4 00000000 FFFFFFDD     C    6545 10239  10243
 CPSTCLS       8 000003E2 FFFFFFDD     C    7357 22313  22333  22354  22389  22424  22459  22494
 CPSTCONS      1 0000038C FFFFFFDD         7051 14542
 CPSTFLAG      1 000003EA FFFFFFDD     R    7360  7364   7369   7374
 CPSTYPE       1 0000038C FFFFFFDD     R    7042  7051   7061   7071   7081   7091   7101   7111   7121
 CPSUFLG       1 000003EE FFFFFFDD     R    7397  7401   7406   7411   7416   7421   7426   7431   7436
 CPSUFLG2      1 000003EF FFFFFFDD     R    7442  7446   7451
 CPSVPGM       8 0000039C FFFFFFDD     C    7175  7181   7181
 CPS1ST        4 0000038C FFFFFFDD     F    7039  7584   7584
 CPTEMPP#      1 0000005F FFFFFFDD A   U    8492  8494
 CPTRMFL1      1 00000C7A FFFFFFDD     R    9150  9154   9159   9164   9288   9288
 CPTRMFL2      1 00000C7B FFFFFFDD     R    9170  9174   9179   9184   9189   9194   9199
 CPTRMFL3      1 00000C7C FFFFFFDD     R    9205  9209   9214   9219   9224   9229   9234   9239
 CPTRMFL4      1 00000C7D FFFFFFDD     R    9245  9249   9254   9259   9264   9269   9274   9279
 CPUSED        1 00000FBC FFFFFFDD A   U   10239 10240
 CPUSERSV      3 000001B8 FFFFFFDD     C    6791 27983  27988
 CPVACURS      8 00000AF0 FFFFFFDD     D    9017  9018   9019
 CPVCURS       8 00000AE0 FFFFFFDD     D    9011  9012   9013
 CPVFLAG       1 00000AC8 FFFFFFDD     R    8812  8816   8821   8826   8831   8836
 CPVFLAG2      1 00000AC9 FFFFFFDD     R    8842  8846   8851   8856   8861   8866   8871
1MODE     (MODE4072) (12:48) (15MAR04) Ordinary Symbol and Literal Cross Reference                                          Page  206
 CPVFLAG3      1 00000ACA FFFFFFDD     R    8877  8881   8886   8891   8896   8901   8906
 CPVFLAG4      1 00000ACB FFFFFFDD     R    8912  8916   8921   8926
 CPVFPAGE    128 00000AC8 FFFFFFDD         8816 22582  22631M
 CPVLFLAG      1 00000ACE FFFFFFDD     R    8981  8985   8990   8995
 CPVMODE       1 00000ACC FFFFFFDD     R    8934  8938   8943   8948   8953   8958   8963   8968   8973
 CPVOLUME      6 00000880 FFFFFFDD     C    8402 12320M 12320  12330M 12354M 12354  28055M 28055  28087  28092  32267M
                                                 32267  32316  32321
 CPVTWID       2 00000AD0 FFFFFFDD     H    9001  9004   9004
 CPWK1         4 00000D60 FFFFFFDD     F    9685  9700   9723
 CPWK2         4 00000D64 FFFFFFDD     F    9686  9701   9715
 CPWK3         4 00000D68 FFFFFFDD     F    9687  9702   9716
 CPWK4         4 00000D6C FFFFFFDD     F    9688  9703   9717
 CPWK5         4 00000D70 FFFFFFDD     F    9689  9705   9710   9718
 CPWK6         4 00000D74 FFFFFFDD     F    9690  9706   9711   9719   9726   9728
 CPWK7         4 00000D78 FFFFFFDD     F    9691  9704   9720
 CPWRNCNT      2 000008B6 FFFFFFDD     H    8477 14618M 14726M 14726  14841M 14841  14959M 29638M 29638  29685
 CPXFLAG       1 000007FD FFFFFFDD     R    8279  8283
 CPXSTATE      4 000007F8 FFFFFFDD     F    8273  8286   8286
 CRBRANCH      1 00000000 00000000 A   T    1920  1920
 CSCREEN       2 000041D0 00000001     H   22155 21951  21966
 CSRTABLE      1 00000000 00000000 A   T    1940  1940
 CSVARMGR      1 00000000 00000000 A   T    1988  1988
 CSVEXIT       1 00000000 00000000 A   T    1861  1861
 CSVLLCB       1 00000000 00000000 A   T    1461  1461
 CSVLLTRM      1 00000000 00000000 A   T    1462  1462
 CSVMEM        1 00000000 00000000 A   T    1689  1689
 CSVVFGET      1 00000000 00000000 A   T    2253  2253
 CSVVFIND      1 00000000 00000000 A   T    2251  2251
 CTABS         2 00004AF6 00000001     H   24273 21636
 CUNREC        2 0000419E 00000001     H   22087 22011
 CURLINE       2 0000077C 00000001     H   12913 20062  20108
 CURMIN        2 000007AA 00000001     H   12976 20077  20123
 CURRPRT1      4 000032E0 00000001     F   20005 13153
 CURRTO        2 000006DE 00000001     H   12788 20047
 CV         4016 00000000 FFFFFFDF     J    6448  5256U
 CV#COUT       4 000006B4 FFFFFFDF     F    6102 42513  42548
 CV#CPU        4 0000065C FFFFFFDF     F    6080 40790
 CV#INTVL      4 00000658 FFFFFFDF     F    6079 40791
 CV#IOCLK      4 00000664 FFFFFFDF     F    6083 40862
 CV#IOSEC      2 00000660 FFFFFFDF     H    6082 40819  50903
 CV#PAT        1 00000668 FFFFFFDF     U    6086 42871
 CV#SNC        4 000006C0 FFFFFFDF     F    6106 42598
 CVABORT       4 000007DA FFFFFFDF     I    6227 28568B 28994B 29828B 38263B 55495B
 CVABSENT      4 000007F0 FFFFFFDF     I    6237 12876B 17497B 57252B 57902B
 CVABSRTN      4 0000088C FFFFFFDF     V    6262  6237
 CVABTMSG      4 000007CC FFFFFFDF     I    6222 17571B 21297B 22270B 24036B 24388B 24905B 25320B 25500B 25655B 25810B
                                                 26615B 26775B 26938B 27089B 27243B 46611B 48967B 49422B 50068B 53429B
 CVAMSGCK      4 00000BF8 FFFFFFDF     F    6408 54830  55241
 CVARERR       2 00004F1C 00000001     H   25255 25249
 CVARFACT    128 00000000 FFFFFFD0        24949 25092  25182M
 CVARFEXE     64 00000000 FFFFFFD0        24954 25122  25201M
 CVARFLAG      1 00000000 FFFFFFD0     R   24945 24949  24954
 CVARS         2 00004DA2 00000001     H   24974 21681  21696  21711
 CVARSPRT      4 00004E54 00000001     F   25168 25367
 CVARSWA       1 00000000 FFFFFFD0     J   24963 24987  25016U 25020  25028U 25036M 25158  25160  25161
 CVASCBP       4 00000718 FFFFFFDF     A    6147 39790  39924  40052  43977  44347
 CVBKUPCT      2 00000158 FFFFFFDF     H    5488 57649  57650M 58116  58118M 58264M 58264
 CVBLANKS    235 000004D8 FFFFFFDF     C    6042 27697  27733  27769  28580  28615  28650  28684  28719  29006  37117
                                                 38203  38243  40556  41540  41613  41684  42962  43018  55078  55431
1MODE     (MODE4072) (12:48) (15MAR04) Ordinary Symbol and Literal Cross Reference                                          Page  207
                                                 55584  58489
 CVBRMSK       1 00000751 FFFFFFDF     X    6178  6179   6180
 CVCFLAG       1 00000A00 FFFFFFDF     R    6343  6347   6352   6357   6362   6367
 CVCHKNIO      4 000009E8 FFFFFFDF     F    6330 42393
 CVCHKST       8 000009F0 FFFFFFDF     D    6333  6423   6423
 CVCHKST2      8 00000E28 FFFFFFDF     D    6426  6429   6429
 CVCHKUC       2 000009F4 FFFFFFDF     H    6336 17516  17517M 45921  45922M 46622  46623M 48599  48600M 55146  55147M
 CVCOMRTN      4 0000087C FFFFFFDF     V    6258  6228
 CVCPMEM       4 000006A8 FFFFFFDF     F    6098 41915
 CVCPUMUL      4 00000DFC FFFFFFDF     F    6419 46617M 46704M 46704  46738
 CVCSCONN      4 00000238 FFFFFFDF     F    5581 39454
 CVCSNIO       4 00000240 FFFFFFDF     F    5583 39534
 CVCSREQ       4 0000023C FFFFFFDF     F    5582 39494
 CVCURJCB      4 000001C8 FFFFFFDF     A    5527 51963
 CVDBGFLG      1 000004CC FFFFFFDF     R    6032  6036
 CVENT         4 0000074C FFFFFFDF     I    6176 11072B 11330B 11398B 11537B 11677B 11879B 11960B 12022B 12090B 12157B
                                                 12242B 12403B 12550B 12663B 12802B 12927B 12990B 13053B 13208B 13496B
                                                 13736B 13801B 14002B 14414B 14512B 14597B 14699B 14814B 14938B 15004B
                                                 15102B 15169B 15322B 15420B 15486B 15622B 15880B 15956B 16033B 16109B
                                                 16188B 16260B 16469B 17087B 17186B 17364B 20296B 20362B 20429B 20513B
                                                 20598B 20664B 20749B 21254B 21358B 22033B 22101B 22169B 22715B 23159B
                                                 23290B 23536B 23672B 23985B 24088B 24287B 24519B 24854B 24990B 25269B
                                                 25399B 25554B 25709B 25864B 26031B 26198B 26356B 26514B 26674B 26830B
                                                 26988B 27142B 27340B 29197B 29266B 29872B 30023B 30160B 30307B 30573B
                                                 30687B 31087B 31166B 31245B 31324B 31403B 31482B 31561B 31642B 31754B
                                                 31866B 32073B 32232B 32396B 32574B 32738B 32902B 33002B 35915B 35986B
                                                 36090B 36583B 36848B 36934B 37004B 37437B 38100B 38356B 38510B 38599B
                                                 42810B 43709B 44325B 44430B 45166B 45291B 45415B 45521B 45646B 45830B
                                                 46133B 46544B 46668B 46811B 47022B 47093B 47286B 47442B 47503B 47589B
                                                 47777B 47875B 48021B 49797B 49858B 49919B 49980B 50041B 50108B 50169B
                                                 50230B 50291B 50352B 50469B 51884B 52178B 52304B 52498B 52647B 52948B
                                                 53040B 53133B 53310B 53716B 53840B 53911B 53982B 54171B 54264B 54447B
                                                 54663B 54732B 55193B 55725B 56314B 56524B 56700B 57095B 57501B 57771B
                                                 57963B 58233B
 CVENTBR       2 00000750 FFFFFFDF     I    6177  6178
 CVENTOFF    240 00000751 FFFFFFDF         6180 45366M
 CVENTON     240 00000751 FFFFFFDF         6179 38832  38863  45342M
 CVERRMSG      4 000007C8 FFFFFFDF     I    6221 11358B 13375B 13420B 13680B 14193B 15790B 22061B 23210B 23587B 26300B
                                                 26458B 26857B 30616B 30639B 45474B 47049B
 CVERROR       4 000007D6 FFFFFFDF     I    6226  6242B
 CVEXIRTN      4 0000077C FFFFFFDF     V    6206  6202
 CVEXNO        1 00000000 00000071     T   29138 29138  33143  47731
 CVFCHRKBPR
               8 000004C9 FFFFFFDF         5947  5963   5963
 CVFCHRKBSE
               4 000004C9 FFFFFFDF         5952  5963   5963
 CVFCHRKCPR
               2 000004C9 FFFFFFDF         5969  5985   5985
 CVFCHRKCSE
               1 000004C9 FFFFFFDF         5974  5985   5985
 CVFCHRUBPR
             128 000004C9 FFFFFFDF         5903  5919   5919
 CVFCHRUBSE
              64 000004C9 FFFFFFDF         5908  5919   5919
 CVFCHRUCPR
              32 000004C9 FFFFFFDF         5925  5941   5941
 CVFCHRUCSE
              16 000004C9 FFFFFFDF         5930  5941   5941
 CVFCLCK       4 000000EC FFFFFFDF     F    5457 40540M 40540  40581
1MODE     (MODE4072) (12:48) (15MAR04) Ordinary Symbol and Literal Cross Reference                                          Page  208
 CVFINFO      64 000000F0 FFFFFFDF     X    5458 40629  40634
 CVFJCB        4 000001C0 FFFFFFDF     A    5525 52224  56545
 CVFL          1 000004C4 FFFFFFDF     R    5699  5703   5708   5713   5718   5723   5728   5733   5738
 CVFL2         1 000004C5 FFFFFFDF     R    5744  5748   5753   5758   5763   5768   5773   5778   5783
 CVFL3         1 000004C6 FFFFFFDF     R    5789  5793   5798   5803   5808   5813   5818   5823   5828
 CVFL4         1 000004C7 FFFFFFDF     R    5834  5838   5843   5848   5853   5858   5863   5868
 CVFL5         1 000004C8 FFFFFFDF     R    5874  5878   5883   5888   5893
 CVFL6         1 000004C9 FFFFFFDF     R    5899  5903   5908   5920   5925   5930   5942   5947   5952   5964   5969
                                                  5974   5986
 CVFMEMPAGE
              64 000004C8 FFFFFFDF         5883 40679  43215
 CVFNCHK      64 000004C7 FFFFFFDF         5843 42382
 CVFNDSUB      8 000004C4 FFFFFFDF         5723 45698M 45722M
 CVFNORACF
              64 000004C6 FFFFFFDF         5798 45573M 45597M
 CVFNOSMF     32 00000A00 FFFFFFDF         6357 38703
 CVFOLDIBM
              16 000004C8 FFFFFFDF         5893 46960M 46978M 47165  47190
 CVFPFCB       4 000001D0 FFFFFFDF     A    5530 40946  43254
 CVFPGROT     64 000004C4 FFFFFFDF         5708 38844  38887  45467M
 CVFRLG       16 000004C4 FFFFFFDF         5718 14117
 CVFRLOAD     32 000004C4 FFFFFFDF         5713 38766  45217M 45242M
 CVFSYSA     128 00000067 FFFFFFDF         5301 46212
 CVFSYSB      64 00000067 FFFFFFDF         5306 46250
 CVFSYSC      32 00000067 FFFFFFDF         5311 46288
 CVFSYSD      16 00000067 FFFFFFDF         5316 46326
 CVFSYSE       8 00000067 FFFFFFDF         5321 46364
 CVFSYSF       4 00000067 FFFFFFDF         5326 46402
 CVFSYSG       2 00000067 FFFFFFDF         5331 46440
 CVFSYST      16 000004C7 FFFFFFDF         5853 56077  56112  56144M 56166M 56436  56881
 CVFTEST       2 000004C5 FFFFFFDF         5778 48370  56344
 CVFWINGS     32 000004C8 FFFFFFDF         5888 39236  46953M 46985M 47142  47202
 CVHEAP#       1 00000200 FFFFFFDF A   U    5605  5606
 CVINSTAL      8 00000004 FFFFFFDF     C    5276 31789  31794
 CVINVRTN      4 00000888 FFFFFFDF     V    6261  6231
 CVJESFLG      1 000004CA FFFFFFDF     R    5992  5996
 CVLGPATH    128 00000068 FFFFFFDF         5341 15129M 15195M
 CVLJCB        4 000001C4 FFFFFFDF     A    5526 52236  56643
 CVLNKRGS      4 00000780 FFFFFFDF     F    6208  6183M  6209
 CVLNKRTN      4 000007B0 FFFFFFDF     U    6209  6198M
 CVLOCK1       1 00000088 FFFFFFDF     R    5350  5354   5359
 CVLOCK2       1 00000089 FFFFFFDF     R    5364  5368
 CVLOCK3       1 0000008A FFFFFFDF     R    5373  5377
 CVLOCK4       1 0000008B FFFFFFDF     R    5382  5386
 CVLOGMOD      1 00000068 FFFFFFDF     R    5337  5341  29906
 CVLPFCB       4 000001D4 FFFFFFDF     A    5531 41233  43610
 CVMACH        1 00000067 FFFFFFDF     R    5297  5301   5306   5311   5316   5321   5326   5331  45916M 46169
 CVMBIT        4 0000018C FFFFFFDF     F    5510 44873
 CVMEMS        4 0000019C FFFFFFDF     F    5514 44710  44760
 CVMEMTOT      4 000006C8 FFFFFFDF     F    6109 42096
 CVMILRTN      4 00000884 FFFFFFDF     V    6260  6240
 CVMILSSN      8 00000020 FFFFFFDF     C    5281 14344
 CVMPGMEM      4 000006C4 FFFFFFDF     F    6108 42007
 CVMSEND       4 00000188 FFFFFFDF     F    5509 44709  44804
 CVMSENT       4 00000184 FFFFFFDF     F    5508 44669  44708
 CVMSG       235 00000A1C FFFFFFDF     X    6403 55058  55078  55305  55466  57021
 CVMSGCK       4 00000A18 FFFFFFDF     F    6402 54780  55218
 CVMSHML       4 00000190 FFFFFFDF     F    5511 44943  44982
 CVMSHMLD      4 00000194 FFFFFFDF     F    5512 44983  45033
1MODE     (MODE4072) (12:48) (15MAR04) Ordinary Symbol and Literal Cross Reference                                          Page  209
 CVNASMF       4 000000E0 FFFFFFDF     F    5451 42333
 CVNCOM        4 000008DC FFFFFFDF     F    6281 40281  40357
 CVNCOME       4 000008E0 FFFFFFDF     F    6282 40321  40356
 CVNDIO        4 000008E8 FFFFFFDF     F    6284 42171
 CVNDISP       4 000008F8 FFFFFFDF     F    6288 41367
 CVNDISPF      2 000000E6 FFFFFFDF     H    5455 40455
 CVNEXT        4 000007DE FFFFFFDF     I    6228 11290B 11497B 11637B 11826B 11839B 11912B 11920B 11982B 12050B 12117B
                                                 12202B 12321B 12363B 12510B 12623B 12761B 13111B 13322B 13430B 13610B
                                                 13690B 13869B 14047B 14374B 14472B 15062B 15380B 15836B 15913B 15990B
                                                 16066B 16143B 16213B 16351B 16415B 17146B 17319B 17518B 21488B 22126B
                                                 22637B 22950B 23397B 23415B 23815B 24437B 24696B 25138B 25511B 25666B
                                                 25821B 25988B 26155B 26313B 26471B 26627B 26787B 26945B 27099B 27256B
                                                 27821B 29031B 29226B 29979B 30262B 30533B 30879B 31714B 31825B 32032B
                                                 32192B 32356B 32534B 32698B 32862B 32962B 33090B 35941B 36509B 36702B
                                                 37210B 38005B 38264B 38424B 41311B 44237B 45072B 45247B 45371B 45475B
                                                 45602B 45727B 45924B 46469B 46624B 46767B 46900B 47241B 47370B 47694B
                                                 47828B 47927B 48611B 52050B 52096B 52530B 52902B 52996B 53589B 54403B
                                                 54561B 54688B 55148B 55370B 55650B 56199B 57258B 57456B 57908B 57923B
 CVNFAIL       2 000000E4 FFFFFFDF     H    5453 40416
 CVNOARTN      4 00000890 FFFFFFDF     V    6263  6234
 CVNPG         2 0000013E FFFFFFDF     H    5476 41828  48225  48610  48652  48785  49000  49054  49240  49459  50512
                                                 50876
 CVNPG16M      2 00000140 FFFFFFDF     H    5477 50551
 CVNPIO        4 000008E4 FFFFFFDF     F    6283 42473  42549  43056  43456
 CVNPRINT      4 000008F0 FFFFFFDF     F    6286 42252
 CVNRJE        4 000008EC FFFFFFDF     F    6285 42212
 CVNSLICE      4 000008F4 FFFFFFDF     F    6287 41407
 CVNSMF        4 000000DC FFFFFFDF     F    5450 42293
 CVNSUBF       2 000000E8 FFFFFFDF     H    5456 40494
 CVNTIDLE      4 0000092C FFFFFFDF     F    6305 41448
 CVNWDATE      4 00000608 FFFFFFDF     F    6065  6069   6069
 CVNWMPG#      1 00000008 FFFFFFDF A   U    6067  6068
 CVNXTMSG      4 000007D0 FFFFFFDF     I    6223 13962B 30110B 36044B 44378B 46179B 46714B 49024B 49483B 53089B 54493B
                                                 55364B 56919B
 CVORVSSN      8 00000030 FFFFFFDF     C    5283 14107
 CVPCSEC       4 0000029C FFFFFFDF     F    5618 41638
 CVPFXRTN      1 00000000 00000000 A   T    6206  6206
 CVPGADJ       2 0000014E FFFFFFDF     H    5483 50983
 CVPGCLK       4 00000150 FFFFFFDF     F    5484 51108
 CVPGFAUTO
              32 00000A01 FFFFFFDF         6387 48162  48330  48330  48331  48331  48333M 48355M 50640
 CVPGFLAG      1 00000A01 FFFFFFDF     R    6373  6377   6382   6387
 CVPGFREAL
             128 00000A01 FFFFFFDF         6377 48110  48330  48330  48332  48332  48558M 50677  50745
 CVPGFVIRT
              64 00000A01 FFFFFFDF         6382 48136  48331  48331  48332  48332  48580M
 CVPGHI        2 00000A0A FFFFFFDF     H    6395 48217  48586M 51360
 CVPGLMAX      2 00000A06 FFFFFFDF     H    6393 48221  48590M 51798
 CVPGLMIN      2 00000A04 FFFFFFDF     H    6392 48220  48589M 51759
 CVPGLO        2 00000A08 FFFFFFDF     H    6394 48218  48587M 51299
 CVPGMAX       2 00000144 FFFFFFDF     H    5479 51423
 CVPGMEG       2 00000A0C FFFFFFDF     H    6397 48219  48588M 51494
 CVPGMIN       2 00000142 FFFFFFDF     H    5478 51399
 CVPGSECS      2 00000A02 FFFFFFDF     H    6391 48224  48593M 51241
 CVPGSMAX      2 00000A10 FFFFFFDF     H    6399 48223  48592M 51676
 CVPGSMIN      2 00000A0E FFFFFFDF     H    6398 48222  48591M 51637
 CVPIOSZ       1 00004F80 FFFFFFDF A   U    5436  5438
 CVPPDBQH      4 0000009C FFFFFFDF     A    5394  5395
 CVPSFNO       1 000003E9 FFFFFFDF A   N    5558  5560
1MODE     (MODE4072) (12:48) (15MAR04) Ordinary Symbol and Literal Cross Reference                                          Page  210
 CVPSLNO       1 000007CF FFFFFFDF A   N    5559  5560
 CVPSZ         1 00004F78 FFFFFFDF A   U    5438 42737  52592
 CVPXSZ        1 00000008 FFFFFFDF A   U    5437  5438
 CVR          12 0000000C 00000001 A   #    1103  5256U
 CVRKEY        1 00000008 FFFFFFDF A   U    6131  6132
 CVRLGSSN      8 00000038 FFFFFFDF     C    5284 14124
 CVRUNCUR      2 000000D6 FFFFFFDF     H    5446 41747
 CVRUNMAX      2 000000D8 FFFFFFDF     H    5447 41708
 CVSCLCK       8 00000090 FFFFFFDF     X    5391 38997  39057  39060  43747  44578
 CVSEGRTN      4 00000880 FFFFFFDF     V    6259  6223
 CVSLICE       4 000000D0 FFFFFFDF     A    5420 41560  52995M 53061
 CVSTACK#      1 00000080 FFFFFFDF A   U    5597  5598
 CVSTART       4 00000000 FFFFFFDF     C    5270  6441
 CVSTKMEM      4 000006AC FFFFFFDF     F    6099 41961
 CVT           1 00000000 FFFFFFED     J    1431 37471U 37906  37956  48386U 51539U 56360U
 CVTBRET       2 00000052 FFFFFFED     H    1486  1999   2078
 CVTDCB        1 00000074 FFFFFFED     X    1501 37841  37862
 CVTIME        4 00000700 FFFFFFDF     A    6142 39627  40090  44020  44372
 CVTMVSE       1 00000080 FFFFFFED A   U    1505 37839
 CVTPTR        1 00000010 00000001 A   U    1427 37463  48376  51529  56350
 CVTRC         4 00000768 FFFFFFDF     I    6198  6184B
 CVTRCEP       4 00000490 FFFFFFED     V    2292 51545
 CVTRCRTN      4 00000778 FFFFFFDF     V    6205  6199
 CVTSMCA       4 000000C4 FFFFFFED     A    1605 37777
 CVTSYSAD      4 00000030 FFFFFFED     A    1467 37627
 CVTUSER       4 000000CC FFFFFFED     A    1611 37493  48392  56366
 CVTVSTGX      1 00000000 FFFFFFEC     J    2451  2315
 CVTXTNT1      1 00000000 FFFFFFEB     J    2490  1658
 CVTXTNT2      1 00000000 FFFFFFEA     J    2498  1728
 CVT4MS1       1 00000010 FFFFFFED A   U    1511  1519
 CVT6DAT       1 00000002 FFFFFFED A   U    1515  1519
 CVUMSG      235 00000B0C FFFFFFDF     X    6406 55343M 55343  55523M 55523  55612  55617
 CVUMSGCK      4 00000B08 FFFFFFDF     F    6405 54880  55268  55534
 CVUSFNO       1 00000001 FFFFFFDF A   N    5565  5567
 CVUSLNO       1 000003E7 FFFFFFDF A   N    5566  5567
 CVVMSGCK      4 00000CE8 FFFFFFDF     F    6411 54964  55295
 CVVOL        30 00000DDC FFFFFFDF     X    6417 17412  17418  17503M 54534
 CVVOL#        1 00000005 FFFFFFDF A   U    6416  6417  17636
 CVVOLCUR      2 00000DD8 FFFFFFDF     H    6414 17511M 17511
 CVVOLIST      4 00000740 FFFFFFDF     A    6162 57522  57984  58274
 CVVOLMAX      2 00000DDA FFFFFFDF     H    6415 17504M 54483M 54483  54516
 CVWGRDOP      4 00000170 FFFFFFDF     F    5498 39321
 CVWGWROP      4 0000016C FFFFFFDF     F    5497 39322  39368
 CVWORD        8 00000050 FFFFFFDF     X    5287 56004M 56004  56041M 56041  56137M 56426  56799M 56799  56836  56841
 CVWPATH       8 00000244 FFFFFFDF     C    5585 47463M 47535  47540  47622  47671  47676
 CVWTOFLG      1 000004CB FFFFFFDF     R    6002  6006   6011   6016   6021   6026
 CVWYLSSN      8 00000028 FFFFFFDF     C    5282 14187  14192  14358  38632  38637  43938  43943  44466  44471
 CWDEBUG       2 00005658 00000001     H   26974 21981  21996
 CXDEBUG       2 000051D0 00000001     H   25850 21756  21771
 CXDUMP        2 00005320 00000001     H   26184 21801
 CXMON         2 00005278 00000001     H   26017 21786
 CXQUIET       2 000053C6 00000001     H   26342 21816
 DATEPRT       4 0000CEF8 00000001     F   53620 54604
 DBCLEAR       1 00000000 00000062     T   27294 27294
 DEBUGSG       1 00000000 00000000 A   T    6159  6159
 DELTAX        2 00000412 00000001     H   12143 17742
 DEQUOTE       1 00000000 000000E8     T   57019 57019
 DEV          12 00000000 FFFFFFDC     J    8797  8805
 DEVMAX#       1 00000002 FFFFFFDD A   U    8748  8805
1MODE     (MODE4072) (12:48) (15MAR04) Ordinary Symbol and Literal Cross Reference                                          Page  211
 DEVTYPE       1 00000001 FFFFFFDC     R    8765  8774   8784
 DFAIDTAB      1 00000000 00000000 A   T    2328  2328
 DOFNAME       1 00000000 00000012     T   17622 17622
 DOSHCOLS      2 00008FD0 00000001     H   36990 36986  37400
 DOSHCX        4 0000908C 00000001     I   37311 37218B
 DOTTBL        1 00000000 00000000 A   T    6275  6275
 DRENCFLG      1 00000F9F FFFFFFDD     R   10203 10207  10212  10217  10222  10227
 DRENPROT      1 00000F9E FFFFFFDD     R   10190 10198
 DSHOW         1 00000000 000000A8     T   34353 34353  34368
 DSNCATV       6 00000EB8 FFFFFFDD     C    9925 16982
 DSNON        40 00000E90 FFFFFFDD     C    9923  9924  16759  16760  16873  17630
 DSNON6        6 00000E90 FFFFFFDD     X    9924 16982
 DSNWADSN     44 00000E5C FFFFFFDD     C    9910  9911   9912   9913   9922   9930  10161  10167  10169  10175  10178
                                                 10180  10183  10232  16634  16662
 DSNWAF4       1 00000F37 FFFFFFDD     R    9978  9982   9987   9992   9997  10002  10007  10012  10017
 DSNWAF5       1 00000F38 FFFFFFDD     R   10023 10027  10032  10037  10042  10047  10052  10057  10062
 DSNWAF6       1 00000F39 FFFFFFDD     R   10068 10072  10077  10082  10087  10092  10097  10102  10107
 DSNWAF7       1 00000F3A FFFFFFDD     R   10113 10117  10122  10127  10132
 DSNWAMBR      8 00000E88 FFFFFFDD     C    9921 16676  16714
 DSNWANL       2 00000F06 FFFFFFDD     H    9931 16613
 DSNXG         1 00000004 FFFFFFDD A   U    9915  9917
 DSNXGL        1 00000003 FFFFFFDD A   U    9916  9917
 DSNXU         1 00000007 FFFFFFDD A   U    9917  9919
 DSNXUL        1 00000004 FFFFFFDD A   U    9918  9919
 DSSIZ         1 00000108 FFFFFFDD A   U   10161 10169  10178  10183
 DTB           1 00000000 000000EA     T   58801 58801
 DTBANG        2 0000CFC0 00000001     H   53702 53632
 DTCLCK        2 0000D0B4 00000001     H   53968 53692
 DTMOSCOW      2 0000D070 00000001     H   53897 53647
 DTWASH        2 0000D02C 00000001     H   53826 53662
 DUMP          2 00006294 00000001     H   30146 30142
 EBCTBL        1 00000000 00000000 A   T    6271  6271
 EBCTBL7       1 00000000 00000000 A   T    6274  6274
 ECBLIST       1 00000000 00000000 A   T    6134  6134
 EPARTBL       1 00000000 00000000 A   T    6266  6266
 ESCCH         2 00000000 FFFFFFD6     C   13177 13285  13292  13425
 ESCWA         2 00000000 FFFFFFD6     J   13184 13205  13234U 13450  13452  13453
 EXECDISP      1 00000000 00000076     T   29146 29146
 EXIT1         1 00000000 000000E6     T   57015 57015
 EXIT12        1 00000000 00000011     T   17621 17621
 EXIT13        1 00000000 000000CF     T   36540 36540
 FFFNET        4 00000000 FFFFFFD8        10823 36448
 FFFOLD        5 00000000 FFFFFFD8        10833 16546  16947
 FFFSAM        3 00000000 FFFFFFD8        10813 16566  36409
 FFHOST      128 00000090 FFFFFFD8     C   10970 16555
 FFHOSTL       4 0000008C FFFFFFD8     F   10969 16554
 FFINFO      928 00000000 FFFFFFD8     J   10985 16507U 16917U
 FFMISC        1 00000002 FFFFFFD8     R   10882 10886  10891  10896  10901  10906
 FFPTYPE       1 00000003 FFFFFFD8     R   10911 10920  10930  10940  10950  10960
 FFRNAME     128 00000218 FFFFFFD8     C   10974 16553
 FFRNAMEL      4 00000214 FFFFFFD8     F   10973 16534  16552
 FFRQTYPE      1 00000001 FFFFFFD8     R   10838 10847  10857  10867  10877
 FFTYPE        1 00000000 FFFFFFD8     R   10784 10793  10803  10813  10823  10833  16556  16919
 FMBRANCH      1 00000000 00000000 A   T    2104  2104
 FMTCLCK       1 00000000 000000E4     T   54608 54608  58805
 FMTRCLCK      1 00000000 000000D2     T   38056 38056  42705  45119  57023
 FMTTIME       1 00000000 000000D7     T   42712 42712  52572
 FMTWBUF       1 00000000 000000E3     T   52582 52582
 FMTXDATE      1 00000000 000000D4     T   38296 38296  54610
1MODE     (MODE4072) (12:48) (15MAR04) Ordinary Symbol and Literal Cross Reference                                          Page  212
 FNAMEFIN      1 00000000 00000013     T   17624 17624
 FNAMPSH       1 00000000 0000004F     T   20864 20864
 FREEPCB       1 00000000 000000E0     T   50433 50433
 FSR           0 00000000 00000001 A   #    1013 11067  11305M 11325  11373M 11393  11512M 11532  11652M 11672  11854M
                                                 11874  11935M 11955  11997M 12017  12065M 12085  12132M 12152  12217M
                                                 12237  12378M 12398  12525M 12545  12638M 12658  12776M 12797  12902M
                                                 12922  12950M 12965M 12985  13013M 13028M 13048  13126M 13202  13450M
                                                 13490  13710M 13731  13776M 13796  13977M 13997  14389M 14409  14487M
                                                 14507  14572M 14592  14674M 14694  14741M 14809  14913M 14933  14975M
                                                 14999  15077M 15097  15144M 15164  15210M 15317  15395M 15415  15461M
                                                 15481  15528M 15617  15851M 15875  15928M 15951  16005M 16028  16081M
                                                 16104  16158M 16183  16228M 16255  16430M 16464  17061M 17082  17161M
                                                 17181  17334M 17359  17600M 20291  20337M 20357  20404M 20424  20488M
                                                 20508  20573M 20593  20639M 20659  20724M 20744  20793M 21249  21312M
                                                 21353  21503M 22028  22076M 22096  22141M 22164  22653M 22709  22970M
                                                 23154  23225M 23284  23435M 23531  23602M 23666  23835M 23980  24051M
                                                 24083  24203M 24282  24452M 24513  24716M 24849  24920M 24984  25158M
                                                 25264  25335M 25394  25526M 25549  25681M 25704  25836M 25859  26003M
                                                 26026  26170M 26193  26328M 26351  26486M 26509  26642M 26669  26802M
                                                 26825  26960M 26983  27114M 27137  27271M 27334  29051M 29192  29241M
                                                 29261  29843M 29867  29994M 30018  30125M 30155  30277M 30302  30548M
                                                 30568  30658M 30682  30894M 31082  31141M 31161  31220M 31240  31299M
                                                 31319  31378M 31398  31457M 31477  31536M 31556  31615M 31637  31729M
                                                 31749  31840M 31861  32047M 32068  32207M 32227  32371M 32391  32549M
                                                 32569  32713M 32733  32877M 32897  32977M 32997  33105M 35910  35957M
                                                 35981  36060M 36085  36525M 36578  36717M 36843  36894M 36909M 36929
                                                 36957M 36972M 36999  37376M 37432  38020M 38095  38279M 38351  38439M
                                                 38505  38533M 38548M 38594  42681M 42805  43645M 43704  44252M 44320
                                                 44393M 44425  45087M 45161  45262M 45286  45386M 45410  45490M 45516
                                                 45617M 45641  45742M 45824  45944M 46128  46484M 46539  46639M 46663
                                                 46782M 46806  46915M 47017  47064M 47088  47257M 47281  47385M 47437
                                                 47478M 47498  47559M 47584  47710M 47772  47843M 47870  47942M 48015
                                                 49503M 49792  49833M 49853  49894M 49914  49955M 49975  50016M 50036
                                                 50083M 50103  50144M 50164  50205M 50225  50266M 50286  50327M 50347
                                                 50388M 50464  51855M 51879  52112M 52173  52252M 52271M 52299  52469M
                                                 52493  52545M 52642  52917M 52943  53011M 53035  53104M 53128  53259M
                                                 53304  53609M 53711  53796M 53815M 53835  53867M 53886M 53906  53938M
                                                 53957M 53977  54114M 54133M 54166  54235M 54259  54418M 54442  54576M
                                                 54658  54703M 54727  55164M 55188  55665M 55719  56219M 56309  56492M
                                                 56519  56671M 56695  56934M 57089  57476M 57496  57727M 57766  57938M
                                                 57958  58195M 58228  58770M
 GETCPU        1 00000000 000000D8     T   42714 42714
 GETKWR        1 00000000 00000069     T   29127 29127
 GETPCB        1 00000000 000000DD     T   50428 50428
 GLBRANCH      1 00000000 00000000 A   T    2010  2010
 GMBRANCH      1 00000000 00000000 A   T    2106  2106
 GOTACCT       2 0000182C 00000001     H   17172 20817  20832  20847
 GVT           1 00000000 00000000 A   T    1872  1872
 HIBAL         1 00000000 FFFFFFFF     J     691   707    720    733    746    759    772    785    798    811    824
                                                   837    850    863    876    889    902
 HSPFMIL       1 00000080 FFFFFFEE A   U    1162  1166   1167
 HSPFORV       1 00000020 FFFFFFEE A   U    1164  1166
 HSPFORVR      1 00000010 FFFFFFEE A   U    1165  1167
 HSPFSYST      1 00000001 FFFFFFEE A   U    1169 56447
 HSPFWYL       1 00000040 FFFFFFEE A   U    1163  1166   1167
 IARMPVT       1 00000000 00000000 A   T    1747  1747
 IARMRRCE      1 00000000 00000000 A   T    2292  2292
 IARPIBR       1 00000000 00000000 A   T    2262  2262
 IARPSIV       1 00000000 00000000 A   T    2086  2086
1MODE     (MODE4072) (12:48) (15MAR04) Ordinary Symbol and Literal Cross Reference                                          Page  213
 IARPSXM       1 00000000 00000000 A   T    2235  2235
 IARXKEY       1 00000000 00000000 A   T    2193  2193
 IARXVIO       1 00000000 00000000 A   T    2087  2087
 ICYMMVTC      1 00000000 00000000 A   T    2518  2518
 IDA121CV      1 00000000 00000000 A   T    2025  2025
 IEABEND       1 00000000 00000000 A   T    1609  1609
 IEADQIQE      1 00000000 00000000 A   T    2005  2005
 IEAECVT       1 00000000 00000000 A   T    1534  1534
 IEAGSMQ       1 00000000 00000000 A   T    1982  1982
 IEAIHASU      1 00000000 00000000 A   T    2222  2222
 IEALSMQ       1 00000000 00000000 A   T    1984  1984
 IEAMASCB      1 00000000 00000000 A   T    1952  1952   1956
 IEAPATCH      1 00000000 00000000 A   T    1617  1617
 IEAPDSRT      1 00000000 00000000 A   T    1880  1880
 IEAPTRV       1 00000000 00000000 A   T    1696  1696
 IEAQCDSR      1 00000000 00000000 A   T    1600  1600
 IEAQCS01      1 00000000 00000000 A   T    1992  1992
 IEAQLPAQ      1 00000000 00000000 A   T    1601  1601
 IEAQTD00      1 00000000 00000000 A   T    1497  1497
 IEAQTE00      1 00000000 00000000 A   T    1495  1495
 IEARPOST      1 00000000 00000000 A   T    2007  2007
 IEASMFEX      1 00000000 00000000 A   T    1884  1884
 IEASMFSP      1 00000000 00000000 A   T    2230  2230
 IEASPOST      1 00000000 00000000 A   T    2027  2027
 IEASVDCB      1 00000000 00000000 A   T    1488  1488
 IEATCBP       1 00000000 00000000 A   T    1438  1438
 IEATPC        1 00000000 00000000 A   T    1490  1490
 IEATRSCN      1 00000000 00000000 A   T    1848  1848
 IEAVAR02      1 00000000 00000000 A   T    1932  1932
 IEAVBLDP      1 00000000 00000000 A   T    1916  1916
 IEAVDELP      1 00000000 00000000 A   T    1919  1919
 IEAVEAC0      1 00000000 00000000 A   T    2009  2009
 IEAVEADV      1 00000000 00000000 A   T    2167  2167
 IEAVEDR1      1 00000000 00000000 A   T    2052  2052
 IEAVELRM      1 00000000 00000000 A   T    2001  2001
 IEAVENLU      1 00000000 00000000 A   T    2348  2348
 IEAVENQ2      1 00000000 00000000 A   T    1998  1998
 IEAVEQV1      1 00000000 00000000 A   T    2155  2155
 IEAVEQV2      1 00000000 00000000 A   T    2158  2158
 IEAVEQV3      1 00000000 00000000 A   T    2161  2161
 IEAVERI1      1 00000000 00000000 A   T    2054  2054
 IEAVERP1      1 00000000 00000000 A   T    2056  2056
 IEAVERX1      1 00000000 00000000 A   T    2244  2244
 IEAVESC1      1 00000000 00000000 A   T    2183  2183
 IEAVESPR      1 00000000 00000000 A   T    2112  2112
 IEAVESTU      1 00000000 00000000 A   T    2346  2346
 IEAVESVT      1 00000000 00000000 A   T    2118  2118
 IEAVET6E      1 00000000 00000000 A   T    2218  2218
 IEAVEVT2      1 00000000 00000000 A   T    2172  2172
 IEAVEXPR      1 00000000 00000000 A   T    1980  1980
 IEAVEXP1      1 00000000 00000000 A   T    2149  2149
 IEAVFRCL      1 00000000 00000000 A   T    1918  1918
 IEAVGSDA      1 00000000 00000000 A   T    2163  2163
 IEAVGTCL      1 00000000 00000000 A   T    1917  1917
 IEAVGWSA      1 00000000 00000000 A   T    2012  2012
 IEAVLKRM      1 00000000 00000000 A   T    1719  1719
 IEAVMFRM      1 00000000 00000000 A   T    2097  2097
 IEAVMSGS      1 00000000 00000000 A   T    1666  1666
 IEAVNVT0      1 00000000 00000000 A   T    2331  2331
1MODE     (MODE4072) (12:48) (15MAR04) Ordinary Symbol and Literal Cross Reference                                          Page  214
 IEAVRSUH      1 00000000 00000000 A   T    2210  2210
 IEAVRT03      1 00000000 00000000 A   T    1824  1824
 IEAVSPND      1 00000000 00000000 A   T    2220  2220
 IEAVSTAG      1 00000000 00000000 A   T    1960  1960
 IEAVTCTL      1 00000000 00000000 A   T    2212  2212
 IEAVTEST      1 00000000 00000000 A   T    1723  1723
 IEAVTRGR      1 00000000 00000000 A   T    2020  2020
 IEAVTRG1      1 00000000 00000000 A   T    1469  1469
 IEAVTRV3      1 00000000 00000000 A   T    1716  1716
 IEAVTSBP      1 00000000 00000000 A   T    1966  1966
 IEAVTSFR      1 00000000 00000000 A   T    1687  1687
 IEAVTSGL      1 00000000 00000000 A   T    1964  1964
 IEAVVMSR      1 00000000 00000000 A   T    1745  1745
 IEAVWAIT      1 00000000 00000000 A   T    1987  1987
 IEAVWSAC      1 00000000 00000000 A   T    2018  2018
 IEAVWSAG      1 00000000 00000000 A   T    2016  2016
 IEAVWSAL      1 00000000 00000000 A   T    2014  2014
 IEAVXEXT      1 00000000 00000000 A   T    2095  2095
 IEAVXSFT      1 00000000 00000000 A   T    2062  2062
 IEAVXSTN      1 00000000 00000000 A   T    2068  2068
 IEAVXSTS      1 00000000 00000000 A   T    2066  2066
 IEAVXUNN      1 00000000 00000000 A   T    2091  2091
 IEAVXUNS      1 00000000 00000000 A   T    2070  2070
 IEAWTCB       1 00000000 00000000 A   T    2127  2127
 IEA0DS        1 00000000 00000000 A   T    1533  1533
 IEA0EF00      1 00000000 00000000 A   T    1439  1439
 IEA0EF01      1 00000000 00000000 A   T    1479  1479
 IEA0PT0E      1 00000000 00000000 A   T    2199  2199
 IEA0PT01      1 00000000 00000000 A   T    1540  1540
 IEA0PT02      1 00000000 00000000 A   T    2124  2124
 IEA0PT03      1 00000000 00000000 A   T    2201  2201
 IEA0VL00      1 00000000 00000000 A   T    1450  1450
 IEA0VL01      1 00000000 00000000 A   T    1857  1857
 IECIXAVL      1 00000000 00000000 A   T    1525  1525
 IECPCNVT      1 00000000 00000000 A   T    1453  1453
 IECPRLTV      1 00000000 00000000 A   T    1457  1457
 IECVEXCL      1 00000000 00000000 A   T    2089  2089
 IECXAPG       1 00000000 00000000 A   T    1448  1448
 IECXITP       1 00000000 00000000 A   T    1478  1478
 IECXTLER      1 00000000 00000000 A   T    1464  1464
 IEC0SCR1      1 00000000 00000000 A   T    1623  1623
 IEECUCB       1 00000000 00000000 A   T    1494  1494
 IEEMSER       1 00000000 00000000 A   T    1472  1472   1538
 IEEVEXSN      1 00000000 00000000 A   T    1827  1827
 IEEVSTOP      1 00000000 00000000 A   T    2137  2137
 IEFAQTOP      1 00000000 00000000 A   T    1944  1944
 IEFAUSDM      1 00000000 00000000 A   T    1444  1444
 IEFENFDM      1 00000000 00000000 A   T    1603  1603
 IEFJESCT      1 00000000 00000000 A   T    1703  1703
 IEFLINK       1 00000000 00000000 A   T    1441  1441
 IEFQMWR       1 00000000 00000000 A   T    1554  1554
 IEWFBOSV      1 00000000 00000000 A   T    1531  1531
 IEWMSEPT      1 00000000 00000000 A   T    2036  2036
 IFBDCB        1 00000000 00000000 A   T    1520  1520
 IFDOLT0A      1 00000000 00000000 A   T    1882  1882
 IFGDEBVR      1 00000000 00000000 A   T    2513  2513
 IGC043BR      1 00000000 00000000 A   T    1928  1928
 IGC044R2      1 00000000 00000000 A   T    2038  2038
 IGC062R1      1 00000000 00000000 A   T    2008  2008
1MODE     (MODE4072) (12:48) (15MAR04) Ordinary Symbol and Literal Cross Reference                                          Page  215
 IGC07903      1 00000000 00000000 A   T    2153  2153
 IGC124        1 00000000 00000000 A   T    2169  2169
 IGFRVT        1 00000000 00000000 A   T    1618  1618
 IGVCPBDB      1 00000000 00000000 A   T    2284  2284
 IGVCPDLB      1 00000000 00000000 A   T    2286  2286
 IGVCPFRE      1 00000000 00000000 A   T    2276  2276
 IGVCPGTC      1 00000000 00000000 A   T    2274  2274
 IGVCPGUB      1 00000000 00000000 A   T    2268  2268
 IGVCPGUP      1 00000000 00000000 A   T    2271  2271
 IGVCPGUS      1 00000000 00000000 A   T    2294  2294
 IGVGCAS       1 00000000 00000000 A   T    1922  1922
 IGVGFAS       1 00000000 00000000 A   T    1926  1926
 IGVGRRGN      1 00000000 00000000 A   T    2298  2298
 IGVGVRGN      1 00000000 00000000 A   T    2300  2300
 IGVQSPET      1 00000000 00000000 A   T    1924  1924
 IGVSLIST      1 00000000 00000000 A   T    2278  2278
 IGVSLOC       1 00000000 00000000 A   T    2282  2282
 IGVSREGN      1 00000000 00000000 A   T    2280  2280
 IGVSTSKI      1 00000000 00000000 A   T    2265  2265
 IHB22950C
               2 0000CC30 00000001     H   52705 52699B
 IHB22950F
               1 0000CC2C 00000001     B   52701 52707
 IHB22950L
               4 0000CC28 00000001     A   52700 52706
 IHB23065F
               1 0000CCC4 00000001     B   52894 52900
 ILRJTERM      1 00000000 00000000 A   T    2207  2207
 INSTALN       2 00006982 00000001     H   31740 34596
 INVALID       1 00000000 00000000 A   T    6261  6261
 IOSVDEVN      1 00000000 00000000 A   T    2224  2224
 IOSVHID       1 00000000 00000000 A   T    2234  2234
 IOSVSUCB      1 00000000 00000000 A   T    2237  2237
 IRARMCNS      1 00000000 00000000 A   T    1978  1978
 IRARMEPS      1 00000000 00000000 A   T    2196  2196
 IRARMI00      1 00000000 00000000 A   T    1935  1935
 ISNBRNCH      1 00000000 00000000 A   T    2093  2093
 JCB         208 00000000 FFFFFFD9     J   10754 51976U 52591  56561U
 JCBACCT       5 0000004A FFFFFFD9     C   10516 56575M 56575
 JCBAFL        1 00000062 FFFFFFD9     R   10599 10603  10608  10613  10618  10623  10628  10633  10638
 JCBBFL        1 00000063 FFFFFFD9     R   10644 10648  10653  10658  10663  10668  10673  10678
 JCBBFPS      32 00000063 FFFFFFD9        10658 56608
 JCBBILLX      8 00000088 FFFFFFD9     D   10729 10737  10737
 JCBNEXT       4 000000D0 FFFFFFD9     F   10747 56626
 JCBNPG        2 00000030 FFFFFFD9     H   10502 52060
 JCBRSCF1      1 00000064 FFFFFFD9     R   10684 10688  10693  10698
 JCBSEQ        2 00000048 FFFFFFD9     H   10515 52015  56617
 JCBSFLG1      1 00000065 FFFFFFD9     R   10704 10708  10713
 JCBWFL        1 00000060 FFFFFFD9     R   10528 10532  10537  10542  10547  10552  10557  10562  10567  10595
 JCBWFSO     128 00000060 FFFFFFD9        10532 51987  56590
 JCBWWFL       1 00000061 FFFFFFD9     R   10573 10577  10582  10587  10592
 JESCMD        1 00000000 0000007A     T   33134 33134  34956  34971  34986  35001  35016  35031
 JESDISP       1 00000000 00000074     T   29144 29144
 JESDISP2      1 00000000 00000075     T   29145 29145
 JOBDISP       1 00000000 0000006C     T   29133 29133
 KWR         504 00000000 FFFFFFE0     J    5229 17287U 17295M 17295  17296M 17296  27337  27366U 27370  27378U 27386M
                                                 27386  27387M 27387  27431  27717  27753  27789  27819M 27819  27820M
                                                 27820  27832M 27832  27833M 27833  29051  29053  29054
 KWRDSTRT      1 00000005 FFFFFFE0     U    5040  5202   5202
1MODE     (MODE4072) (12:48) (15MAR04) Ordinary Symbol and Literal Cross Reference                                          Page  216
 KWRGRP        2 00000003 FFFFFFE0     C    5037 17297M 27428M
 KWRNAME      20 00000078 FFFFFFE0     X    5171 27524M 27524  27558  27563
 KWRSIZE       1 000001F8 FFFFFFE0 A   U    5216 17279
 KWRSTART      4 00000000 FFFFFFE0     F    5035  5216
 KWRUSER       3 00000000 FFFFFFE0     C    5036  5038   5038  17298M 27429M 27806
 LMODEPRT      4 0000105C 00000001     F   15221 15285
 LOCALTOD      1 00000000 000000D1     T   38055 38055  38295  42704  45118  54603  57020  58804
 LOWTBL        1 00000000 00000000 A   T    6269  6269
 LPRDISP       1 00000000 00000078     T   29148 29148
 LRTRIM        1 00000000 0000006F     T   29136 29136  33148  42718  57018
 LSR           8 00000008 00000001 A   #    1051 11067  11305M 11325  11373M 11393  11512M 11532  11652M 11672  11854M
                                                 11874  11935M 11955  11997M 12017  12065M 12085  12132M 12152  12217M
                                                 12237  12378M 12398  12525M 12545  12638M 12658  12776M 12797  12902M
                                                 12922  12965M 12985  13028M 13048  13126M 13202  13450M 13490  13710M
                                                 13731  13776M 13796  13977M 13997  14389M 14409  14487M 14507  14572M
                                                 14592  14674M 14694  14741M 14809  14913M 14933  14975M 14999  15077M
                                                 15097  15144M 15164  15210M 15317  15395M 15415  15461M 15481  15528M
                                                 15617  15851M 15875  15928M 15951  16005M 16028  16081M 16104  16158M
                                                 16183  16228M 16255  16430M 16464  17061M 17082  17161M 17181  17334M
                                                 17359  17600M 20291  20337M 20357  20404M 20424  20488M 20508  20573M
                                                 20593  20639M 20659  20724M 20744  20793M 21249  21312M 21353  21503M
                                                 22028  22076M 22096  22141M 22164  22653M 22709  22970M 23154  23225M
                                                 23284  23435M 23531  23602M 23666  23835M 23980  24051M 24083  24203M
                                                 24282  24452M 24513  24716M 24849  24920M 24984  25158M 25264  25335M
                                                 25394  25526M 25549  25681M 25704  25836M 25859  26003M 26026  26170M
                                                 26193  26328M 26351  26486M 26509  26642M 26669  26802M 26825  26960M
                                                 26983  27114M 27137  27271M 27334  29051M 29192  29241M 29261  29843M
                                                 29867  29994M 30018  30125M 30155  30277M 30302  30548M 30568  30658M
                                                 30682  30894M 31082  31141M 31161  31220M 31240  31299M 31319  31378M
                                                 31398  31457M 31477  31536M 31556  31615M 31637  31729M 31749  31840M
                                                 31861  32047M 32068  32207M 32227  32371M 32391  32549M 32569  32713M
                                                 32733  32877M 32897  32977M 32997  33105M 35910  35957M 35981  36060M
                                                 36085  36525M 36578  36717M 36843  36909M 36929  36972M 36999  37376M
                                                 37432  38020M 38095  38279M 38351  38439M 38505  38548M 38594  42681M
                                                 42805  43645M 43704  44252M 44320  44393M 44425  45087M 45161  45262M
                                                 45286  45386M 45410  45490M 45516  45617M 45641  45742M 45824  45944M
                                                 46128  46484M 46539  46639M 46663  46782M 46806  46915M 47017  47064M
                                                 47088  47257M 47281  47385M 47437  47478M 47498  47559M 47584  47710M
                                                 47772  47843M 47870  47942M 48015  49503M 49792  49833M 49853  49894M
                                                 49914  49955M 49975  50016M 50036  50083M 50103  50144M 50164  50205M
                                                 50225  50266M 50286  50327M 50347  50388M 50464  51855M 51879  52112M
                                                 52173  52271M 52299  52469M 52493  52545M 52642  52917M 52943  53011M
                                                 53035  53104M 53128  53259M 53304  53609M 53711  53815M 53835  53886M
                                                 53906  53957M 53977  54133M 54166  54235M 54259  54418M 54442  54576M
                                                 54658  54703M 54727  55164M 55188  55665M 55719  56219M 56309  56492M
                                                 56519  56671M 56695  56934M 57089  57476M 57496  57727M 57766  57938M
                                                 57958  58195M 58228  58770M
 MALL          1 00000000 0000000C     T   14793 14793  15262  15580  19997  20091  20137  20275  20846  20908  21230
                                                 22010  23138  23515  23964  24833  25248  29110  31066  35889  36827
                                                 38489  44304  46100  47001  47421  49775  52156  53691  56279  57001
 MCLEAR        1 00000000 00000063     T   27295 27295
 MILERR        1 00000000 00000000 A   T    6260  6260
 MINFDISP      1 00000000 000000D5     T   38298 38298
 MINT          1 00000000 0000000B     T   14778 14778  36737  49760  52141
 MISSSHOW      2 00006474 00000001     H   30559 33213  35050
 MNULL         1 00000000 0000000A     T   14763 14763  17666  19517  21545  30916  33212  35049  46936  47406
 MODEDISP      2 00006008 00000001     H   29252 29143  33124
 MODE4072      1 00000000 00000001     R    1002  1000
 MOPTION       1 00000000 00000050     T   20947 20947  20968  20988  21008  21029  21049  21068  21087  21106  21126
1MODE     (MODE4072) (12:48) (15MAR04) Ordinary Symbol and Literal Cross Reference                                          Page  217
                                                 21146  21166  21185  22998  23017  23036  23055  23074  23093  23462
                                                 23481  23500  23862  23881  23900  23919  24742  24761  24780  24799
                                                 24818  25184  25203  45971  45990  46009  46028  46047  46066  46085
                                                 46961  46986  49539  49567  49595  56244  56264
 MPARM         1 00000000 0000004E     T   20816 20816  20831
 MPINT         1 00000000 00000017     T   17726 17726  18356  18416  19498  36752  36767  36782  49610  49625  49640
                                                 49655  49670  49685  49700  49715
 MPLNO         1 00000000 00000018     T   17741 17741  19243  20076  20122
 MSYMLN        1 00000000 0000004C     T   20061 20061  20107  35874
 MTOKEN        1 00000000 0000000D     T   15232 15232  15247  15550  15565  17681  17696  17711  17756  17771  17786
                                                 17801  17816  17831  17846  17861  17876  17891  17906  17921  17936
                                                 17951  17966  17981  17996  18011  18026  18041  18056  18071  18086
                                                 18101  18116  18131  18146  18161  18176  18191  18206  18221  18236
                                                 18251  18266  18281  18296  18311  18326  18341  18371  18386  18401
                                                 18431  18446  18461  18476  18491  18506  18521  18536  18551  18566
                                                 18581  18596  18612  18628  18643  18658  18673  18688  18703  18718
                                                 18733  18748  18763  18778  18793  18808  18823  18838  18853  18868
                                                 18883  18898  18913  18928  18943  18958  18973  18988  19003  19018
                                                 19033  19048  19063  19078  19093  19108  19123  19138  19153  19168
                                                 19183  19198  19213  19228  19258  19273  19288  19303  19318  19333
                                                 19348  19363  19378  19393  19408  19423  19438  19453  19468  19483
                                                 19532  19547  19562  19577  19592  19607  19622  19637  19652  19667
                                                 19682  19697  19712  19727  19742  19757  19772  19787  19802  19817
                                                 19832  19847  19862  19877  19892  19907  19922  19937  19952  19967
                                                 19982  20016  20031  20046  20170  20185  20200  20215  20230  20245
                                                 20260  20878  20893  20926  21200  21215  21560  21575  21590  21605
                                                 21620  21635  21650  21665  21680  21695  21710  21725  21740  21755
                                                 21770  21785  21800  21815  21830  21845  21860  21875  21890  21905
                                                 21920  21935  21950  21965  21980  21995  23108  23123  23934  23949
                                                 25218  25233  30931  30946  30961  30976  30991  31006  31021  31036
                                                 31051  33227  33242  33257  33272  33287  33302  33317  33332  33347
                                                 33362  33377  33392  33407  33422  33437  33452  33467  33482  33497
                                                 33512  33527  33542  33557  33572  33587  33602  33617  33632  33647
                                                 33662  33677  33692  33707  33722  33737  33752  33767  33782  33797
                                                 33812  33827  33842  33857  33872  33887  33902  33917  33932  33947
                                                 33962  33977  33992  34007  34022  34037  34052  34067  34082  34097
                                                 34112  34127  34142  34157  34172  34187  34202  34217  34232  34247
                                                 34262  34277  34292  34307  34322  34337  34352  34367  34382  34397
                                                 34412  34427  34442  34457  34472  34488  34504  34519  34534  34549
                                                 34565  34580  34595  34610  34625  34640  34655  34670  34685  34700
                                                 34715  34730  34745  34760  34775  34790  34805  34820  34835  34850
                                                 34865  34880  34895  34910  34925  34940  34955  34970  34985  35000
                                                 35015  35030  35064  35079  35094  35109  35124  35139  35154  35169
                                                 35184  35199  35214  35229  35244  35259  35274  35289  35304  35319
                                                 35334  35349  35364  35379  35394  35409  35424  35439  35454  35469
                                                 35484  35499  35514  35529  35544  35559  35574  35589  35604  35619
                                                 35634  35649  35664  35679  35694  35709  35724  35739  35754  35769
                                                 35784  35799  35814  35829  35844  35859  38459  44274  49730  49745
                                                 53631  53646  53661  56956  56971
 NAMEPRT       4 00003774 00000001     F   20852 17623
 NBLTBL        1 00000000 00000000 A   T    6273  6273
 NOACTION      1 00000000 00000000 A   T    6263  6263
 NOOPTS        1 00000000 00000005     T   13147 13147  17620
 NOTVALID      1 00000000 00000008     T   13150 13150  15263  15278  15581  17634  20092  20138  20276  20909  21231
                                                 29111  36828  37401  38490  46101  46498  47002  47727  49776  50414
                                                 52157  52578  54595  56280  57002  57017  58798
 NPARTBL       1 00000000 00000000 A   T    6267  6267
 NRESOLVE      1 00000000 00000014     T   17625 17625
 NSCAN         1 00000000 00000002     T   13142 13142  15273  15591  17615  21517  24221  25357  27288  29125  33136
1MODE     (MODE4072) (12:48) (15MAR04) Ordinary Symbol and Literal Cross Reference                                          Page  218
                                                 37398  38563  45104  46500  47733  50416  52576  54605  57026  58799
 NSCNCB      176 00000000 FFFFFFDE     J    6532  6658  11099  11101  11112  11113  11114  11117M 11118M 11119M 11129M
                                                 11130M 11131M 11136  11137  11163  11205  11206  11207  11210M 11211M
                                                 11213M 11223M 11224M 11225M 11259  11260  11261  11264M 11265M 11267M
                                                 11277M 11278M 11279M 11708  11709  11710  11713M 11714M 11715M 11725M
                                                 11726M 11727M 11753  11768  11783  11784  11785M 11785  11786  11787M
                                                 11800M 12273  12274  12275  12278M 12279M 12280M 12290M 12291M 12292M
                                                 12329  12435  12436  12437  12440M 12441M 12442M 12452M 12453M 12454M
                                                 12499  12595  12596  12597  12600M 12601M 12603M 12613M 12614M 12615M
                                                 12702  12703  12704  12707M 12708M 12710M 12720M 12721M 12722M 12826
                                                 12828  12839  12840  12841  12844M 12845M 12846M 12856M 12857M 12858M
                                                 12887  13084  13085  13086  13089M 13090M 13092M 13102M 13103M 13104M
                                                 13157  13248  13249  13250  13253M 13254M 13255M 13265M 13266M 13267M
                                                 13536  13537  13538  13541M 13542M 13543M 13553M 13554M 13555M 13832
                                                 13833  13834  13837M 13838M 13839M 13849M 13850M 13851M 13915  13916
                                                 13917  13920M 13921M 13922M 13932M 13933M 13934M 14063  14064  14065
                                                 14068M 14069M 14070M 14080M 14081M 14082M 14092  14445  14446  14447
                                                 14450M 14451M 14453M 14463M 14464M 14465M 14629  14630  14631  14634M
                                                 14635M 14637M 14647M 14648M 14649M 14846  14861  14876  14877  14878M
                                                 14878  14879  14880M 14893M 15035  15036  15037  15040M 15041M 15043M
                                                 15053M 15054M 15055M 15353  15354  15355  15358M 15359M 15361M 15371M
                                                 15372M 15373M 15654  15655  15656  15659M 15660M 15661M 15671M 15672M
                                                 15673M 16286  16288  16299  16300  16301  16304M 16305M 16306M 16316M
                                                 16317M 16318M 16361  16376  16377  16378  16381M 16382M 16384M 16394M
                                                 16395M 16396M 17118  17119  17120  17123M 17124M 17126M 17136M 17137M
                                                 17138M 17210  17442  17443  17444  17447M 17448M 17449M 17459M 17460M
                                                 17461M 17471  17638  21385  21387  21398  21399  21400  21403M 21404M
                                                 21405M 21415M 21416M 21417M 21422  21423  21449  21461  21462  21463
                                                 21466M 21467M 21469M 21479M 21480M 21481M 21522  22200  22201  22202
                                                 22205M 22206M 22207M 22217M 22218M 22219M 22773  22774  22775  22778M
                                                 22779M 22781M 22791M 22792M 22793M 23348  23349  23350  23353M 23354M
                                                 23356M 23366M 23367M 23368M 23730  23731  23732  23735M 23736M 23738M
                                                 23748M 23749M 23750M 24318  24319  24320  24323M 24324M 24325M 24335M
                                                 24336M 24337M 24577  24578  24579  24582M 24583M 24585M 24595M 24596M
                                                 24597M 25048  25049  25050  25053M 25054M 25056M 25066M 25067M 25068M
                                                 25430  25431  25432  25435M 25436M 25437M 25447M 25448M 25449M 25585
                                                 25586  25587  25590M 25591M 25592M 25602M 25603M 25604M 25740  25741
                                                 25742  25745M 25746M 25747M 25757M 25758M 25759M 25895  25896  25897
                                                 25900M 25901M 25902M 25912M 25913M 25914M 26062  26063  26064  26067M
                                                 26068M 26069M 26079M 26080M 26081M 26229  26230  26231  26234M 26235M
                                                 26236M 26246M 26247M 26248M 26387  26388  26389  26392M 26393M 26394M
                                                 26404M 26405M 26406M 26545  26546  26547  26550M 26551M 26552M 26562M
                                                 26563M 26564M 26705  26706  26707  26710M 26711M 26712M 26722M 26723M
                                                 26724M 26868  26869  26870  26873M 26874M 26875M 26885M 26886M 26887M
                                                 27019  27020  27021  27024M 27025M 27026M 27036M 27037M 27038M 27173
                                                 27174  27175  27178M 27179M 27180M 27190M 27191M 27192M 27400  27401
                                                 27402  27405M 27406M 27408M 27418M 27419M 27420M 30334  30336  30347
                                                 30348  30349  30352M 30353M 30354M 30364M 30365M 30366M 30371  30372
                                                 30398  30447  30448  30449  30452M 30453M 30455M 30465M 30466M 30467M
                                                 30501  30502  30503  30506M 30507M 30509M 30519M 30520M 30521M 30743
                                                 30745  30750  30765  30780  30781  30782M 30782  30783  30784M 30797M
                                                 30812  30813  30814  30817M 30818M 30820M 30830M 30831M 30832M 33159
                                                 36622  36623  36624  36627M 36628M 36630M 36640M 36641M 36642M 38391
                                                 38392  38393  38396M 38397M 38399M 38409M 38410M 38411M 43763  43764
                                                 43765  43768M 43769M 43771M 43781M 43782M 43783M 45888  45889  45890
                                                 45893M 45894M 45896M 45906M 45907M 45908M 46867  46868  46869  46872M
                                                 46873M 46875M 46885M 46886M 46887M 47342  47343  47344  47347M 47348M
                                                 47350M 47360M 47361M 47362M 48239  48240  48241  48244M 48245M 48247M
                                                 48257M 48258M 48259M 51920  51921  51922  51925M 51926M 51928M 51938M
1MODE     (MODE4072) (12:48) (15MAR04) Ordinary Symbol and Literal Cross Reference                                          Page  219
                                                 51939M 51940M 53378  53379  53380  53383M 53384M 53386M 53396M 53397M
                                                 53398M 55026  55027  55813  55814  55815  55818M 55819M 55820M 55830M
                                                 55831M 55832M 55956  55957  55958  55961M 55962M 55964M 55974M 55975M
                                                 55976M 56761  56762  56763  56766M 56767M 56769M 56779M 56780M 56781M
                                                 57201  57202  57203  57206M 57207M 57208M 57218M 57219M 57220M 57851
                                                 57852  57853  57856M 57857M 57858M 57868M 57869M 57870M
 NSCNFLGS      1 00000008 FFFFFFDE     R    6469  6473   6478
 NSCNKWS       4 00000028 FFFFFFDE     A    6518 11112  11119M 11129M 11205  11213M 11223M 11259  11267M 11277M 11708
                                                 11715M 11725M 12273  12280M 12290M 12435  12442M 12452M 12595  12603M
                                                 12613M 12702  12710M 12720M 12839  12846M 12856M 13084  13092M 13102M
                                                 13248  13255M 13265M 13536  13543M 13553M 13832  13839M 13849M 13915
                                                 13922M 13932M 14063  14070M 14080M 14445  14453M 14463M 14629  14637M
                                                 14647M 15035  15043M 15053M 15353  15361M 15371M 15654  15661M 15671M
                                                 16299  16306M 16316M 16376  16384M 16394M 17118  17126M 17136M 17442
                                                 17449M 17459M 21398  21405M 21415M 21461  21469M 21479M 22200  22207M
                                                 22217M 22773  22781M 22791M 23348  23356M 23366M 23730  23738M 23748M
                                                 24318  24325M 24335M 24577  24585M 24595M 25048  25056M 25066M 25430
                                                 25437M 25447M 25585  25592M 25602M 25740  25747M 25757M 25895  25902M
                                                 25912M 26062  26069M 26079M 26229  26236M 26246M 26387  26394M 26404M
                                                 26545  26552M 26562M 26705  26712M 26722M 26868  26875M 26885M 27019
                                                 27026M 27036M 27173  27180M 27190M 27400  27408M 27418M 30347  30354M
                                                 30364M 30447  30455M 30465M 30501  30509M 30519M 30812  30820M 30830M
                                                 36622  36630M 36640M 38391  38399M 38409M 43763  43771M 43781M 45888
                                                 45896M 45906M 46867  46875M 46885M 47342  47350M 47360M 48239  48247M
                                                 48257M 51920  51928M 51938M 53378  53386M 53396M 55813  55820M 55830M
                                                 55956  55964M 55974M 56761  56769M 56779M 57201  57208M 57218M 57851
                                                 57858M 57868M
 NSCNLEN       4 00000004 FFFFFFDE     F    6466 11137  11786  11787M 14879  14880M 21423  30372  30783  30784M 55027
 NSCNLOC       4 00000000 FFFFFFDE     A    6465 11136  11783  11785M 14876  14878M 21422  30371  30780  30782M 55026
 NSCNSKIP      4 00000024 FFFFFFDE     A    6517 11113  11117M 11130M 11206  11210M 11224M 11260  11264M 11278M 11709
                                                 11713M 11726M 12274  12278M 12291M 12436  12440M 12453M 12596  12600M
                                                 12614M 12703  12707M 12721M 12840  12844M 12857M 13085  13089M 13103M
                                                 13249  13253M 13266M 13537  13541M 13554M 13833  13837M 13850M 13916
                                                 13920M 13933M 14064  14068M 14081M 14446  14450M 14464M 14630  14634M
                                                 14648M 15036  15040M 15054M 15354  15358M 15372M 15655  15659M 15672M
                                                 16300  16304M 16317M 16377  16381M 16395M 17119  17123M 17137M 17443
                                                 17447M 17460M 21399  21403M 21416M 21462  21466M 21480M 22201  22205M
                                                 22218M 22774  22778M 22792M 23349  23353M 23367M 23731  23735M 23749M
                                                 24319  24323M 24336M 24578  24582M 24596M 25049  25053M 25067M 25431
                                                 25435M 25448M 25586  25590M 25603M 25741  25745M 25758M 25896  25900M
                                                 25913M 26063  26067M 26080M 26230  26234M 26247M 26388  26392M 26405M
                                                 26546  26550M 26563M 26706  26710M 26723M 26869  26873M 26886M 27020
                                                 27024M 27037M 27174  27178M 27191M 27401  27405M 27419M 30348  30352M
                                                 30365M 30448  30452M 30466M 30502  30506M 30520M 30813  30817M 30831M
                                                 36623  36627M 36641M 38392  38396M 38410M 43764  43768M 43782M 45889
                                                 45893M 45907M 46868  46872M 46886M 47343  47347M 47361M 48240  48244M
                                                 48258M 51921  51925M 51939M 53379  53383M 53397M 55814  55818M 55831M
                                                 55957  55961M 55975M 56762  56766M 56780M 57202  57206M 57219M 57852
                                                 57856M 57869M
 NSCNSTOP      4 00000020 FFFFFFDE     A    6516 11114  11118M 11131M 11207  11211M 11225M 11261  11265M 11279M 11710
                                                 11714M 11727M 12275  12279M 12292M 12437  12441M 12454M 12597  12601M
                                                 12615M 12704  12708M 12722M 12841  12845M 12858M 13086  13090M 13104M
                                                 13250  13254M 13267M 13538  13542M 13555M 13834  13838M 13851M 13917
                                                 13921M 13934M 14065  14069M 14082M 14447  14451M 14465M 14631  14635M
                                                 14649M 15037  15041M 15055M 15355  15359M 15373M 15656  15660M 15673M
                                                 16301  16305M 16318M 16378  16382M 16396M 17120  17124M 17138M 17444
                                                 17448M 17461M 21400  21404M 21417M 21463  21467M 21481M 22202  22206M
                                                 22219M 22775  22779M 22793M 23350  23354M 23368M 23732  23736M 23750M
                                                 24320  24324M 24337M 24579  24583M 24597M 25050  25054M 25068M 25432
1MODE     (MODE4072) (12:48) (15MAR04) Ordinary Symbol and Literal Cross Reference                                          Page  220
                                                 25436M 25449M 25587  25591M 25604M 25742  25746M 25759M 25897  25901M
                                                 25914M 26064  26068M 26081M 26231  26235M 26248M 26389  26393M 26406M
                                                 26547  26551M 26564M 26707  26711M 26724M 26870  26874M 26887M 27021
                                                 27025M 27038M 27175  27179M 27192M 27402  27406M 27420M 30349  30353M
                                                 30366M 30449  30453M 30467M 30503  30507M 30521M 30814  30818M 30832M
                                                 36624  36628M 36642M 38393  38397M 38411M 43765  43769M 43783M 45890
                                                 45894M 45908M 46869  46873M 46887M 47344  47348M 47362M 48241  48245M
                                                 48259M 51922  51926M 51940M 53380  53384M 53398M 55815  55819M 55832M
                                                 55958  55962M 55976M 56763  56767M 56781M 57203  57207M 57220M 57853
                                                 57857M 57870M
 NSCNTLEN      4 00000014 FFFFFFDE     F    6484 11753  11800M 14846  14893M 30750  30797M
 NSCNTLOC      4 00000010 FFFFFFDE     A    6483 11768  11784  11785  14861  14877  14878  30765  30781  30782
 NSCNTOK      16 00000030 FFFFFFDE     C    6520 12329  12499  14092  17210  17471
 NSCNTYPE      1 00000018 FFFFFFDE     R    6487  6491   6496   6501   6506   6511
 NUMPSH        1 00000000 000000D0     T   36798 36798
 OLDSETV       1 00000000 00000016     T   17682 17682
 OPTPRT        4 00005E3C 00000001     F   29069 29124
 ORVCPASS      1 00000000 000000E7     T   57016 57016
 OUTDISP       1 00000000 0000006D     T   29134 29134
 PAGETABS      1 00000000 0000005E     T   25362 25362
 PAT          12 00000000 FFFFFFCF     J   38330 42887U
 PATIO         4 00000004 FFFFFFCF     F   38320 43055  43067  43106
 PATNAME       4 00000000 FFFFFFCF     C   38319 42902M 42902  42923  42992  42997
 PATNEXT       1 0000000C FFFFFFCF     U   38323 43130
 PATWR         4 00000008 FFFFFFCF     F   38321 43105
 PFCB        164 00000000 FFFFFFDA     J   10474 40962U 43270U
 PFCB#IOS      2 00000048 FFFFFFDA     H   10415 41108
 PFCB#IOT      2 0000004A FFFFFFDA     H   10416 41150
 PFCBCP        4 00000010 FFFFFFDA     A   10402 43552
 PFCBFL        1 00000058 FFFFFFDA     R   10422 10426  10431
 PFCBMP        4 0000000C FFFFFFDA     A   10401 43509
 PFCBNEXT      4 000000A4 FFFFFFDA     F   10467 41217  43594
 PFCBNIO       4 00000030 FFFFFFDA     F   10409 43417  43455
 PFCBNO        4 00000004 FFFFFFDA     F   10399 40987  43295
 PFCBNP        4 00000008 FFFFFFDA     A   10400 40976M 40976  43284M 43284  43466
 PFCBSECM      1 00000013 FFFFFFDA A   U   10437 10438
 PFCBUCBP      4 00000018 FFFFFFDA     A   10404 41007  43315
 PGETNEW       1 00000000 000000E1     T   50434 50434
 PJUNKA        1 00000000 000000E2     T   50435 50435
 PRCT          2 0000CD72 00000001     H   53119 42717  43664
 PROTECT       1 00000000 0000002F     T   18522 18522  34566
 RAR          14 0000000E 00000001 A   #    1129  6198   6199M  6200B  6202M  6203B  6223M  6224B  6228M  6229B  6231M
                                                  6232B  6234M  6235B  6237M  6238B  6240M  6241M  6241B  6247  11064
                                                 11122M 11123M 11123B 11156M 11157M 11157B 11216M 11217M 11217B 11230M
                                                 11231M 11231B 11270M 11271M 11271B 11284M 11285M 11285B 11307M 11310B
                                                 11322  11375M 11378B 11390  11421M 11422M 11422B 11453M 11454M 11454B
                                                 11514M 11517B 11529  11560M 11561M 11561B 11593M 11594M 11594B 11654M
                                                 11657B 11669  11718M 11719M 11719B 11732M 11733M 11733B 11807M 11808M
                                                 11808B 11856M 11859B 11871  11937M 11940B 11952  11999M 12002B 12014
                                                 12067M 12070B 12082  12134M 12137B 12149  12195M 12196M 12196B 12219M
                                                 12222B 12234  12283M 12284M 12284B 12297M 12298M 12298B 12361M 12362M
                                                 12362B 12380M 12383B 12395  12445M 12446M 12446B 12490M 12491M 12491B
                                                 12503M 12504M 12504B 12527M 12530B 12542  12579M 12580M 12580B 12606M
                                                 12607M 12607B 12620M 12621M 12621B 12640M 12643B 12655  12686M 12687M
                                                 12687B 12713M 12714M 12714B 12778M 12781B 12794  12849M 12850M 12850B
                                                 12863M 12864M 12864B 12904M 12907B 12919  12967M 12970B 12982  13030M
                                                 13033B 13045  13095M 13096M 13096B 13109M 13110M 13110B 13128M 13131B
                                                 13199  13258M 13259M 13259B 13272M 13273M 13273B 13295M 13296M 13296B
                                                 13320M 13321M 13321B 13346M 13347M 13347B 13428M 13429M 13429B 13452M
1MODE     (MODE4072) (12:48) (15MAR04) Ordinary Symbol and Literal Cross Reference                                          Page  221
                                                 13455B 13487  13546M 13547M 13547B 13560M 13561M 13561B 13583M 13584M
                                                 13584B 13608M 13609M 13609B 13634M 13635M 13635B 13688M 13689M 13689B
                                                 13712M 13715B 13728  13760M 13761M 13761B 13778M 13781B 13793  13842M
                                                 13843M 13843B 13856M 13857M 13857B 13903M 13904M 13904B 13925M 13926M
                                                 13926B 13979M 13982B 13994  14073M 14074M 14074B 14087M 14088M 14088B
                                                 14175M 14176M 14176B 14222M 14223M 14223B 14320M 14321M 14321B 14366M
                                                 14367M 14367B 14391M 14394B 14406  14456M 14457M 14457B 14470M 14471M
                                                 14471B 14489M 14492B 14504  14574M 14577B 14589  14640M 14641M 14641B
                                                 14654M 14655M 14655B 14676M 14679B 14691  14743M 14746B 14806  14915M
                                                 14918B 14930  14977M 14980B 14996  15046M 15047M 15047B 15060M 15061M
                                                 15061B 15079M 15082B 15094  15146M 15149B 15161  15212M 15215B 15314
                                                 15364M 15365M 15365B 15378M 15379M 15379B 15397M 15400B 15412  15463M
                                                 15466B 15478  15530M 15533B 15614  15664M 15665M 15665B 15678M 15679M
                                                 15679B 15782M 15783M 15783B 15817M 15818M 15818B 15833M 15834M 15834B
                                                 15853M 15856B 15872  15905M 15906M 15906B 15930M 15933B 15948  15981M
                                                 15982M 15982B 16007M 16010B 16025  16058M 16059M 16059B 16083M 16086B
                                                 16101  16134M 16135M 16135B 16160M 16163B 16180  16211M 16212M 16212B
                                                 16230M 16233B 16252  16309M 16310M 16310B 16323M 16324M 16324B 16364M
                                                 16365M 16365B 16387M 16388M 16388B 16401M 16402M 16402B 16405M 16406M
                                                 16406B 16409M 16410M 16410B 16413M 16414M 16414B 16432M 16435B 16461
                                                 17063M 17066B 17079  17129M 17130M 17130B 17143M 17144M 17144B 17163M
                                                 17166B 17178  17246M 17247M 17247B 17271M 17272M 17272B 17306M 17307M
                                                 17307B 17336M 17339B 17356  17403M 17404M 17404B 17452M 17453M 17453B
                                                 17466M 17467M 17467B 17563M 17564M 17564B 17602M 17605B 20288  20339M
                                                 20342B 20354  20406M 20409B 20421  20490M 20493B 20505  20575M 20578B
                                                 20590  20641M 20644B 20656  20726M 20729B 20741  20795M 20798B 21246
                                                 21291M 21292M 21292B 21314M 21317B 21350  21408M 21409M 21409B 21442M
                                                 21443M 21443B 21472M 21473M 21473B 21486M 21487M 21487B 21505M 21508B
                                                 22025  22078M 22081B 22093  22124M 22125M 22125B 22143M 22146B 22161
                                                 22210M 22211M 22211B 22224M 22225M 22225B 22262M 22263M 22263B 22556M
                                                 22557M 22557B 22570M 22571M 22571B 22617M 22618M 22618B 22655M 22658B
                                                 22706  22784M 22785M 22785B 22798M 22799M 22799B 22825M 22826M 22826B
                                                 22887M 22888M 22888B 22918M 22919M 22919B 22943M 22944M 22944B 22972M
                                                 22975B 23151  23202M 23203M 23203B 23227M 23230B 23281  23359M 23360M
                                                 23360B 23373M 23374M 23374B 23395M 23396M 23396B 23413M 23414M 23414B
                                                 23437M 23440B 23528  23579M 23580M 23580B 23604M 23607B 23663  23741M
                                                 23742M 23742B 23755M 23756M 23756B 23760M 23761M 23761B 23783M 23784M
                                                 23784B 23808M 23809M 23809B 23837M 23840B 23977  24028M 24029M 24029B
                                                 24053M 24056B 24080  24111M 24112M 24112B 24126M 24127M 24127B 24130M
                                                 24131M 24131B 24179M 24180M 24180B 24205M 24208B 24279  24328M 24329M
                                                 24329B 24342M 24343M 24343B 24380M 24381M 24381B 24409M 24410M 24410B
                                                 24434M 24435M 24435B 24454M 24457B 24510  24588M 24589M 24589B 24602M
                                                 24603M 24603B 24639M 24640M 24640B 24664M 24665M 24665B 24689M 24690M
                                                 24690B 24718M 24721B 24846  24897M 24898M 24898B 24922M 24925B 24981
                                                 25059M 25060M 25060B 25073M 25074M 25074B 25078M 25079M 25079B 25106M
                                                 25107M 25107B 25131M 25132M 25132B 25160M 25163B 25261  25312M 25313M
                                                 25313B 25337M 25340B 25391  25440M 25441M 25441B 25454M 25455M 25455B
                                                 25492M 25493M 25493B 25508M 25509M 25509B 25528M 25531B 25546  25595M
                                                 25596M 25596B 25609M 25610M 25610B 25647M 25648M 25648B 25663M 25664M
                                                 25664B 25683M 25686B 25701  25750M 25751M 25751B 25764M 25765M 25765B
                                                 25802M 25803M 25803B 25818M 25819M 25819B 25838M 25841B 25856  25905M
                                                 25906M 25906B 25919M 25920M 25920B 25957M 25958M 25958B 25975M 25976M
                                                 25976B 25985M 25986M 25986B 26005M 26008B 26023  26072M 26073M 26073B
                                                 26086M 26087M 26087B 26124M 26125M 26125B 26142M 26143M 26143B 26152M
                                                 26153M 26153B 26172M 26175B 26190  26239M 26240M 26240B 26253M 26254M
                                                 26254B 26291M 26292M 26292B 26330M 26333B 26348  26397M 26398M 26398B
                                                 26411M 26412M 26412B 26449M 26450M 26450B 26488M 26491B 26506  26555M
                                                 26556M 26556B 26569M 26570M 26570B 26607M 26608M 26608B 26624M 26625M
                                                 26625B 26644M 26647B 26666  26715M 26716M 26716B 26729M 26730M 26730B
1MODE     (MODE4072) (12:48) (15MAR04) Ordinary Symbol and Literal Cross Reference                                          Page  222
                                                 26767M 26768M 26768B 26784M 26785M 26785B 26804M 26807B 26822  26878M
                                                 26879M 26879B 26892M 26893M 26893B 26930M 26931M 26931B 26962M 26965B
                                                 26980  27029M 27030M 27030B 27043M 27044M 27044B 27081M 27082M 27082B
                                                 27097M 27098M 27098B 27116M 27119B 27134  27183M 27184M 27184B 27197M
                                                 27198M 27198B 27235M 27236M 27236B 27273M 27276B 27331  27411M 27412M
                                                 27412B 27425M 27426M 27426B 27434M 27435M 27435B 27465M 27466M 27466B
                                                 27483M 27484M 27484B 27511M 27512M 27512B 27546M 27547M 27547B 27574M
                                                 27575M 27575B 27592M 27593M 27593B 27615M 27616M 27616B 27640M 27641M
                                                 27641B 27665M 27666M 27666B 27684M 27685M 27685B 27715M 27716M 27716B
                                                 27720M 27721M 27721B 27751M 27752M 27752B 27756M 27757M 27757B 27787M
                                                 27788M 27788B 27792M 27793M 27793B 27858M 27859M 27859B 27862M 27863M
                                                 27863B 27888M 27889M 27889B 27906M 27907M 27907B 27925M 27926M 27926B
                                                 27953M 27954M 27954B 27971M 27972M 27972B 27999M 28000M 28000B 28034M
                                                 28035M 28035B 28077M 28078M 28078B 28095M 28096M 28096B 28123M 28124M
                                                 28124B 28141M 28142M 28142B 28162M 28163M 28163B 28180M 28181M 28181B
                                                 28185M 28186M 28186B 28209M 28210M 28210B 28228M 28229M 28229B 28246M
                                                 28247M 28247B 28270M 28271M 28271B 28307M 28308M 28308B 28340M 28341M
                                                 28341B 28359M 28360M 28360B 28383M 28384M 28384B 28402M 28403M 28403B
                                                 28437M 28438M 28438B 28464M 28465M 28465B 28505M 28506M 28506B 28533M
                                                 28534M 28534B 28566M 28567M 28567B 28598M 28599M 28599B 28602M 28603M
                                                 28603B 28633M 28634M 28634B 28637M 28638M 28638B 28668M 28669M 28669B
                                                 28672M 28673M 28673B 28702M 28703M 28703B 28706M 28707M 28707B 28737M
                                                 28738M 28738B 28792M 28793M 28793B 28834M 28835M 28835B 28889M 28890M
                                                 28890B 28931M 28932M 28932B 28949M 28950M 28950B 28968M 28969M 28969B
                                                 28992M 28993M 28993B 29024M 29025M 29025B 29028M 29029M 29029B 29053M
                                                 29056B 29189  29220M 29221M 29221B 29224M 29225M 29225B 29243M 29246B
                                                 29258  29320M 29321M 29321B 29342M 29343M 29343B 29396M 29397M 29397B
                                                 29431M 29432M 29432B 29453M 29454M 29454B 29488M 29489M 29489B 29510M
                                                 29511M 29511B 29546M 29547M 29547B 29568M 29569M 29569B 29603M 29604M
                                                 29604B 29625M 29626M 29626B 29680M 29681M 29681B 29699M 29700M 29700B
                                                 29727M 29728M 29728B 29745M 29746M 29746B 29765M 29766M 29766B 29789M
                                                 29790M 29790B 29807M 29808M 29808B 29826M 29827M 29827B 29845M 29848B
                                                 29864  29895M 29896M 29896B 29929M 29930M 29930B 29951M 29952M 29952B
                                                 29977M 29978M 29978B 29996M 29999B 30015  30046M 30047M 30047B 30081M
                                                 30082M 30082B 30103M 30104M 30104B 30127M 30130B 30152  30217M 30218M
                                                 30218B 30251M 30252M 30252B 30260M 30261M 30261B 30279M 30282B 30299
                                                 30357M 30358M 30358B 30391M 30392M 30392B 30403M 30404M 30404B 30458M
                                                 30459M 30459B 30472M 30473M 30473B 30512M 30513M 30513B 30526M 30527M
                                                 30527B 30550M 30553B 30565  30660M 30663B 30679  30712M 30713M 30713B
                                                 30736M 30737M 30737B 30823M 30824M 30824B 30867M 30868M 30868B 30876M
                                                 30877M 30877B 30896M 30899B 31079  31124M 31125M 31125B 31143M 31146B
                                                 31158  31203M 31204M 31204B 31222M 31225B 31237  31282M 31283M 31283B
                                                 31301M 31304B 31316  31361M 31362M 31362B 31380M 31383B 31395  31440M
                                                 31441M 31441B 31459M 31462B 31474  31519M 31520M 31520B 31538M 31541B
                                                 31553  31598M 31599M 31599B 31617M 31620B 31634  31665M 31666M 31666B
                                                 31670M 31671M 31671B 31694M 31695M 31695B 31712M 31713M 31713B 31731M
                                                 31734B 31746  31777M 31778M 31778B 31805M 31806M 31806B 31823M 31824M
                                                 31824B 31842M 31845B 31858  31889M 31890M 31890B 31919M 31920M 31920B
                                                 31962M 31963M 31963B 31980M 31981M 31981B 32008M 32009M 32009B 32026M
                                                 32027M 32027B 32049M 32052B 32065  32096M 32097M 32097B 32132M 32133M
                                                 32133B 32168M 32169M 32169B 32186M 32187M 32187B 32209M 32212B 32224
                                                 32255M 32256M 32256B 32289M 32290M 32290B 32332M 32333M 32333B 32350M
                                                 32351M 32351B 32373M 32376B 32388  32419M 32420M 32420B 32453M 32454M
                                                 32454B 32486M 32487M 32487B 32510M 32511M 32511B 32528M 32529M 32529B
                                                 32551M 32554B 32566  32597M 32598M 32598B 32631M 32632M 32632B 32674M
                                                 32675M 32675B 32692M 32693M 32693B 32715M 32718B 32730  32761M 32762M
                                                 32762B 32795M 32796M 32796B 32838M 32839M 32839B 32856M 32857M 32857B
                                                 32879M 32882B 32894  32942M 32943M 32943B 32960M 32961M 32961B 32979M
                                                 32982B 32994  33025M 33026M 33026B 33043M 33044M 33044B 33070M 33071M
1MODE     (MODE4072) (12:48) (15MAR04) Ordinary Symbol and Literal Cross Reference                                          Page  223
                                                 33071B 33088M 33089M 33089B 33107M 33110B 35907  35939M 35940M 35940B
                                                 35959M 35962B 35978  36009M 36010M 36010B 36038M 36039M 36039B 36062M
                                                 36065B 36082  36113M 36114M 36114B 36151M 36152M 36152B 36184M 36185M
                                                 36185B 36203M 36204M 36204B 36227M 36228M 36228B 36246M 36247M 36247B
                                                 36281M 36282M 36282B 36308M 36309M 36309B 36347M 36348M 36348B 36375M
                                                 36376M 36376B 36431M 36432M 36432B 36470M 36471M 36471B 36507M 36508M
                                                 36508B 36527M 36530B 36575  36633M 36634M 36634B 36647M 36648M 36648B
                                                 36700M 36701M 36701B 36719M 36722B 36840  36886M 36887M 36887B 36911M
                                                 36914B 36926  36974M 36977B 36996  37135M 37136M 37136B 37197M 37198M
                                                 37198B 37283M 37284M 37284B 37329M 37330M 37330B 37360M 37361M 37361B
                                                 37378M 37381B 37429  37460M 37461M 37461B 37489M 37490M 37490B 37573M
                                                 37574M 37574B 37577M 37578M 37578B 37587M 37588M 37588B 37611M 37612M
                                                 37612B 37653M 37654M 37654B 37683M 37684M 37684B 37701M 37702M 37702B
                                                 37728M 37729M 37729B 37752M 37753M 37753B 37770M 37771M 37771B 37818M
                                                 37819M 37819B 37903M 37904M 37904B 37935M 37936M 37936B 37954M 37955M
                                                 37955B 37985M 37986M 37986B 38003M 38004M 38004B 38022M 38025B 38092
                                                 38123M 38124M 38124B 38128M 38129M 38129B 38135M 38136M 38136B 38159M
                                                 38160M 38160B 38184M 38185M 38185B 38191M 38192M 38192B 38221M 38222M
                                                 38222B 38230M 38231M 38231B 38261M 38262M 38262B 38281M 38284B 38348
                                                 38402M 38403M 38403B 38416M 38417M 38417B 38422M 38423M 38423B 38441M
                                                 38444B 38502  38550M 38553B 38591  38648M 38649M 38649B 38666M 38667M
                                                 38667B 38691M 38692M 38692B 38725M 38726M 38726B 38750M 38751M 38751B
                                                 38789M 38790M 38790B 38814M 38815M 38815B 38941M 38942M 38942B 38966M
                                                 38967M 38967B 38989M 38990M 38990B 38993M 38994M 38994B 39003M 39004M
                                                 39004B 39027M 39028M 39028B 39048M 39049M 39049B 39052M 39053M 39053B
                                                 39108M 39109M 39109B 39132M 39133M 39133B 39150M 39151M 39151B 39175M
                                                 39176M 39176B 39203M 39204M 39204B 39221M 39222M 39222B 39273M 39274M
                                                 39274B 39301M 39302M 39302B 39319M 39320M 39320B 39343M 39344M 39344B
                                                 39361M 39362M 39362B 39383M 39384M 39384B 39401M 39402M 39402B 39429M
                                                 39430M 39430B 39447M 39448M 39448B 39469M 39470M 39470B 39487M 39488M
                                                 39488B 39509M 39510M 39510B 39527M 39528M 39528B 39549M 39550M 39550B
                                                 39567M 39568M 39568B 39600M 39601M 39601B 39621M 39622M 39622B 39632M
                                                 39633M 39633B 39659M 39660M 39660B 39684M 39685M 39685B 39703M 39704M
                                                 39704B 39707M 39708M 39708B 39717M 39718M 39718B 39744M 39745M 39745B
                                                 39769M 39770M 39770B 39788M 39789M 39789B 39851M 39852M 39852B 39878M
                                                 39879M 39879B 39903M 39904M 39904B 39922M 39923M 39923B 39952M 39953M
                                                 39953B 39979M 39980M 39980B 40004M 40005M 40005B 40029M 40030M 40030B
                                                 40047M 40048M 40048B 40193M 40194M 40194B 40221M 40222M 40222B 40246M
                                                 40247M 40247B 40271M 40272M 40272B 40296M 40297M 40297B 40314M 40315M
                                                 40315B 40336M 40337M 40337B 40354M 40355M 40355B 40360M 40361M 40361B
                                                 40385M 40386M 40386B 40410M 40411M 40411B 40431M 40432M 40432B 40449M
                                                 40450M 40450B 40470M 40471M 40471B 40488M 40489M 40489B 40509M 40510M
                                                 40510B 40527M 40528M 40528B 40574M 40575M 40575B 40578M 40579M 40579B
                                                 40593M 40594M 40594B 40617M 40618M 40618B 40637M 40638M 40638B 40661M
                                                 40662M 40662B 40708M 40709M 40709B 40726M 40727M 40727B 40769M 40770M
                                                 40770B 40787M 40788M 40788B 40794M 40795M 40795B 40812M 40813M 40813B
                                                 40837M 40838M 40838B 40855M 40856M 40856B 40859M 40860M 40860B 40874M
                                                 40875M 40875B 40898M 40899M 40899B 40918M 40919M 40919B 40944M 40945M
                                                 40945B 41005M 41006M 41006B 41024M 41025M 41025B 41054M 41055M 41055B
                                                 41072M 41073M 41073B 41102M 41103M 41103B 41126M 41127M 41127B 41144M
                                                 41145M 41145B 41168M 41169M 41169B 41186M 41187M 41187B 41211M 41212M
                                                 41212B 41291M 41292M 41292B 41309M 41310M 41310B 41342M 41343M 41343B
                                                 41360M 41361M 41361B 41382M 41383M 41383B 41400M 41401M 41401B 41422M
                                                 41423M 41423B 41440M 41441M 41441B 41463M 41464M 41464B 41481M 41482M
                                                 41482B 41509M 41510M 41510B 41527M 41528M 41528B 41558M 41559M 41559B
                                                 41582M 41583M 41583B 41600M 41601M 41601B 41631M 41632M 41632B 41653M
                                                 41654M 41654B 41671M 41672M 41672B 41702M 41703M 41703B 41723M 41724M
                                                 41724B 41741M 41742M 41742B 41762M 41763M 41763B 41780M 41781M 41781B
                                                 41808M 41809M 41809B 41826M 41827M 41827B 41854M 41855M 41855B 41872M
1MODE     (MODE4072) (12:48) (15MAR04) Ordinary Symbol and Literal Cross Reference                                          Page  224
                                                 41873M 41873B 41894M 41895M 41895B 41912M 41913M 41913B 41940M 41941M
                                                 41941B 41958M 41959M 41959B 41986M 41987M 41987B 42004M 42005M 42005B
                                                 42032M 42033M 42033B 42050M 42051M 42051B 42076M 42077M 42077B 42094M
                                                 42095M 42095B 42118M 42119M 42119B 42136M 42137M 42137B 42164M 42165M
                                                 42165B 42186M 42187M 42187B 42204M 42205M 42205B 42227M 42228M 42228B
                                                 42245M 42246M 42246B 42267M 42268M 42268B 42285M 42286M 42286B 42308M
                                                 42309M 42309B 42326M 42327M 42327B 42348M 42349M 42349B 42366M 42367M
                                                 42367B 42408M 42409M 42409B 42440M 42441M 42441B 42466M 42467M 42467B
                                                 42488M 42489M 42489B 42506M 42507M 42507B 42528M 42529M 42529B 42546M
                                                 42547M 42547B 42552M 42553M 42553B 42570M 42571M 42571B 42613M 42614M
                                                 42614B 42631M 42632M 42632B 42659M 42660M 42660B 42663M 42664M 42664B
                                                 42683M 42686B 42802  42850M 42851M 42851B 42868M 42869M 42869B 42980M
                                                 42981M 42981B 43008M 43009M 43009B 43052M 43053M 43053B 43059M 43060M
                                                 43060B 43085M 43086M 43086B 43103M 43104M 43104B 43109M 43110M 43110B
                                                 43127M 43128M 43128B 43167M 43168M 43168B 43185M 43186M 43186B 43203M
                                                 43204M 43204B 43237M 43238M 43238B 43313M 43314M 43314B 43332M 43333M
                                                 43333B 43362M 43363M 43363B 43380M 43381M 43381B 43410M 43411M 43411B
                                                 43435M 43436M 43436B 43453M 43454M 43454B 43459M 43460M 43460B 43484M
                                                 43485M 43485B 43502M 43503M 43503B 43527M 43528M 43528B 43545M 43546M
                                                 43546B 43570M 43571M 43571B 43588M 43589M 43589B 43647M 43650B 43701
                                                 43774M 43775M 43775B 43788M 43789M 43789B 43825M 43826M 43826B 43855M
                                                 43856M 43856B 43873M 43874M 43874B 43903M 43904M 43904B 43921M 43922M
                                                 43922B 43954M 43955M 43955B 43972M 43973M 43973B 44087M 44088M 44088B
                                                 44115M 44116M 44116B 44136M 44137M 44137B 44192M 44193M 44193B 44216M
                                                 44217M 44217B 44234M 44235M 44235B 44254M 44257B 44317  44395M 44398B
                                                 44422  44453M 44454M 44454B 44482M 44483M 44483B 44500M 44501M 44501B
                                                 44525M 44526M 44526B 44550M 44551M 44551B 44570M 44571M 44571B 44574M
                                                 44575M 44575B 44584M 44585M 44585B 44608M 44609M 44609B 44635M 44636M
                                                 44636B 44660M 44661M 44661B 44687M 44688M 44688B 44705M 44706M 44706B
                                                 44734M 44735M 44735B 44752M 44753M 44753B 44778M 44779M 44779B 44796M
                                                 44797M 44797B 44822M 44823M 44823B 44840M 44841M 44841B 44865M 44866M
                                                 44866B 44891M 44892M 44892B 44909M 44910M 44910B 44934M 44935M 44935B
                                                 44961M 44962M 44962B 44979M 44980M 44980B 45007M 45008M 45008B 45025M
                                                 45026M 45026B 45051M 45052M 45052B 45069M 45070M 45070B 45089M 45092B
                                                 45158  45205M 45206M 45206B 45264M 45267B 45283  45330M 45331M 45331B
                                                 45388M 45391B 45407  45454M 45455M 45455B 45492M 45495B 45513  45560M
                                                 45561M 45561B 45619M 45622B 45638  45685M 45686M 45686B 45744M 45747B
                                                 45821  45899M 45900M 45900B 45913M 45914M 45914B 45946M 45949B 46125
                                                 46156M 46157M 46157B 46201M 46202M 46202B 46235M 46236M 46236B 46273M
                                                 46274M 46274B 46311M 46312M 46312B 46349M 46350M 46350B 46387M 46388M
                                                 46388B 46425M 46426M 46426B 46463M 46464M 46464B 46486M 46489B 46536
                                                 46583M 46584M 46584B 46641M 46644B 46660  46691M 46692M 46692B 46736M
                                                 46737M 46737B 46741M 46742M 46742B 46765M 46766M 46766B 46784M 46787B
                                                 46803  46850M 46851M 46851B 46878M 46879M 46879B 46892M 46893M 46893B
                                                 46897M 46898M 46898B 46917M 46920B 47014  47066M 47069B 47085  47130M
                                                 47131M 47131B 47238M 47239M 47239B 47259M 47262B 47278  47325M 47326M
                                                 47326B 47353M 47354M 47354B 47367M 47368M 47368B 47387M 47390B 47434
                                                 47480M 47483B 47495  47543M 47544M 47544B 47561M 47564B 47581  47644M
                                                 47645M 47645B 47687M 47688M 47688B 47712M 47715B 47769  47816M 47817M
                                                 47817B 47845M 47848B 47867  47914M 47915M 47915B 47944M 47947B 48012
                                                 48092M 48093M 48093B 48250M 48251M 48251B 48264M 48265M 48265B 48303M
                                                 48304M 48304B 48311M 48312M 48312B 48604M 48605M 48605B 48646M 48647M
                                                 48647B 48670M 48671M 48671B 48688M 48689M 48689B 48718M 48719M 48719B
                                                 48732M 48733M 48733B 48757M 48758M 48758B 48778M 48779M 48779B 48802M
                                                 48803M 48803B 48837M 48838M 48838B 48867M 48868M 48868B 48881M 48882M
                                                 48882B 48906M 48907M 48907B 48912M 48913M 48913B 48922M 48923M 48923B
                                                 48959M 48960M 48960B 48994M 48995M 48995B 49018M 49019M 49019B 49048M
                                                 49049M 49049B 49072M 49073M 49073B 49090M 49091M 49091B 49120M 49121M
                                                 49121B 49134M 49135M 49135B 49159M 49160M 49160B 49181M 49182M 49182B
1MODE     (MODE4072) (12:48) (15MAR04) Ordinary Symbol and Literal Cross Reference                                          Page  225
                                                 49196M 49197M 49197B 49214M 49215M 49215B 49257M 49258M 49258B 49292M
                                                 49293M 49293B 49322M 49323M 49323B 49336M 49337M 49337B 49361M 49362M
                                                 49362B 49367M 49368M 49368B 49377M 49378M 49378B 49414M 49415M 49415B
                                                 49453M 49454M 49454B 49477M 49478M 49478B 49505M 49508B 49789  49835M
                                                 49838B 49850  49896M 49899B 49911  49957M 49960B 49972  50018M 50021B
                                                 50033  50085M 50088B 50100  50146M 50149B 50161  50207M 50210B 50222
                                                 50268M 50271B 50283  50329M 50332B 50344  50390M 50393B 50461  50506M
                                                 50507M 50507B 50527M 50528M 50528B 50545M 50546M 50546B 50566M 50567M
                                                 50567B 50584M 50585M 50585B 50609M 50610M 50610B 50628M 50629M 50629B
                                                 50662M 50663M 50663B 50714M 50715M 50715B 50782M 50783M 50783B 50805M
                                                 50806M 50806B 50830M 50831M 50831B 50855M 50856M 50856B 50874M 50875M
                                                 50875B 50879M 50880M 50880B 50897M 50898M 50898B 50918M 50919M 50919B
                                                 50936M 50937M 50937B 50961M 50962M 50962B 50979M 50980M 50980B 51013M
                                                 51014M 51014B 51080M 51081M 51081B 51085M 51086M 51086B 51103M 51104M
                                                 51104B 51115M 51116M 51116B 51142M 51143M 51143B 51160M 51161M 51161B
                                                 51189M 51190M 51190B 51214M 51215M 51215B 51235M 51236M 51236B 51256M
                                                 51257M 51257B 51274M 51275M 51275B 51293M 51294M 51294B 51317M 51318M
                                                 51318B 51335M 51336M 51336B 51354M 51355M 51355B 51378M 51379M 51379B
                                                 51396M 51397M 51397B 51402M 51403M 51403B 51420M 51421M 51421B 51426M
                                                 51427M 51427B 51444M 51445M 51445B 51469M 51470M 51470B 51488M 51489M
                                                 51489B 51509M 51510M 51510B 51527M 51528M 51528B 51576M 51577M 51577B
                                                 51594M 51595M 51595B 51613M 51614M 51614B 51631M 51632M 51632B 51652M
                                                 51653M 51653B 51670M 51671M 51671B 51691M 51692M 51692B 51716M 51717M
                                                 51717B 51735M 51736M 51736B 51753M 51754M 51754B 51774M 51775M 51775B
                                                 51792M 51793M 51793B 51813M 51814M 51814B 51838M 51839M 51839B 51857M
                                                 51860B 51876  51931M 51932M 51932B 51945M 51946M 51946B 52009M 52010M
                                                 52010B 52030M 52031M 52031B 52048M 52049M 52049B 52075M 52076M 52076B
                                                 52093M 52094M 52094B 52114M 52117B 52170  52216M 52217M 52217B 52245M
                                                 52246M 52246B 52273M 52276B 52296  52349M 52350M 52350B 52367M 52368M
                                                 52368B 52396M 52397M 52397B 52453M 52454M 52454B 52471M 52474B 52490
                                                 52521M 52522M 52522B 52527M 52528M 52528B 52547M 52550B 52639  52690M
                                                 52691M 52691B 52805M 52806M 52806B 52819M 52820M 52820B 52844M 52845M
                                                 52845B 52864M 52865M 52865B 52919M 52922B 52940  52987M 52988M 52988B
                                                 53013M 53016B 53032  53083M 53084M 53084B 53106M 53109B 53125  53201M
                                                 53202M 53202B 53225M 53226M 53226B 53243M 53244M 53244B 53261M 53264B
                                                 53301  53360M 53361M 53361B 53389M 53390M 53390B 53403M 53404M 53404B
                                                 53460M 53461M 53461B 53483M 53484M 53484B 53534M 53535M 53535B 53582M
                                                 53583M 53583B 53611M 53614B 53708  53739M 53740M 53740B 53746M 53747M
                                                 53747B 53817M 53820B 53832  53888M 53891B 53903  53959M 53962B 53974
                                                 54023M 54024M 54024B 54048M 54049M 54049B 54064M 54065M 54065B 54090M
                                                 54091M 54091B 54106M 54107M 54107B 54135M 54138B 54163  54217M 54218M
                                                 54218B 54237M 54240B 54256  54318M 54319M 54319B 54352M 54353M 54353B
                                                 54379M 54380M 54380B 54397M 54398M 54398B 54420M 54423B 54439  54470M
                                                 54471M 54471B 54552M 54553M 54553B 54578M 54581B 54655  54686M 54687M
                                                 54687B 54705M 54708B 54724  54755M 54756M 54756B 54806M 54807M 54807B
                                                 54856M 54857M 54857B 54940M 54941M 54941B 54988M 54989M 54989B 55016M
                                                 55017M 55017B 55034M 55035M 55035B 55038M 55039M 55039B 55042M 55043M
                                                 55043B 55050M 55051M 55051B 55166M 55169B 55185  55216M 55217M 55217B
                                                 55378M 55379M 55379B 55393M 55394M 55394B 55417M 55418M 55418B 55449M
                                                 55450M 55450B 55469M 55470M 55470B 55493M 55494M 55494B 55531M 55532M
                                                 55532B 55546M 55547M 55547B 55570M 55571M 55571B 55602M 55603M 55603B
                                                 55620M 55621M 55621B 55644M 55645M 55645B 55667M 55670B 55716  55796M
                                                 55797M 55797B 55823M 55824M 55824B 55837M 55838M 55838B 55887M 55888M
                                                 55888B 55912M 55913M 55913B 55937M 55938M 55938B 55967M 55968M 55968B
                                                 55981M 55982M 55982B 56173M 56174M 56174B 56193M 56194M 56194B 56221M
                                                 56224B 56306  56494M 56497B 56516  56620M 56621M 56621B 56673M 56676B
                                                 56692  56744M 56745M 56745B 56772M 56773M 56773B 56786M 56787M 56787B
                                                 56852M 56853M 56853B 56870M 56871M 56871B 56904M 56905M 56905B 56936M
                                                 56939B 57086  57167M 57168M 57168B 57211M 57212M 57212B 57225M 57226M
1MODE     (MODE4072) (12:48) (15MAR04) Ordinary Symbol and Literal Cross Reference                                          Page  226
                                                 57226B 57296M 57297M 57297B 57334M 57335M 57335B 57352M 57353M 57353B
                                                 57409M 57410M 57410B 57415M 57416M 57416B 57445M 57446M 57446B 57478M
                                                 57481B 57493  57591M 57592M 57592B 57609M 57610M 57610B 57688M 57689M
                                                 57689B 57706M 57707M 57707B 57729M 57732B 57763  57824M 57825M 57825B
                                                 57861M 57862M 57862B 57875M 57876M 57876B 57916M 57917M 57917B 57940M
                                                 57943B 57955  58053M 58054M 58054B 58071M 58072M 58072B 58156M 58157M
                                                 58157B 58174M 58175M 58175B 58197M 58200B 58225  58448M 58449M 58449B
                                                 58473M 58474M 58474B 58507M 58508M 58508B 58535M 58536M 58536B 58569M
                                                 58570M 58570B 58597M 58598M 58598B 58615M 58616M 58616B 58644M 58645M
                                                 58645B 58685M 58686M 58686B 58703M 58704M 58704B 58728M 58729M 58729B
                                                 58746M 58747M 58747B 58772M 58775B
 RETFMEM       1 00000000 00000073     T   29140 29140  36545
 RETFNAME      1 00000000 00000072     T   29139 29139  36544
 RMBRANCH      1 00000000 00000000 A   T    2103  2103
 R0            0 00000000 FFFFFFFF A   #     699  6183   6252M 11108M 11108  11117  11118  11119  11137M 11201M 11201
                                                 11210  11211  11255M 11255  11264  11265  11357M 11704M 11704  11713
                                                 11714  11715  11742M 11742  11981  12186M 12186  12201  12269M 12269
                                                 12278  12279  12280  12307M 12307  12431M 12431  12440  12441  12442
                                                 12464M 12464  12481  12591M 12591  12600  12601  12698M 12698  12707
                                                 12708  12835M 12835  12844  12845  12846  12873M 12873  12948  13080M
                                                 13080  13089  13090  13244M 13244  13253  13254  13255  13292M 13305M
                                                 13305  13338  13374M 13419M 13532M 13532  13541  13542  13543  13580M
                                                 13593M 13593  13626  13679M 13757  13828M 13828  13837  13838  13839
                                                 13866M 13866  13911M 13911  13920  13921  13922  13949M 13949  13961M
                                                 14059M 14059  14068  14069  14070  14101M 14101  14142M 14164M 14192M
                                                 14213  14441M 14441  14450  14451  14625M 14625  14634  14635  14959
                                                 15031M 15031  15040  15041  15349M 15349  15358  15359  15650M 15650
                                                 15659  15660  15661  15688M 15688  15789M 15814M 15819  16295M 16295
                                                 16304  16305  16306  16333M 16333  16372M 16372  16381  16382  16613M
                                                 16616  16628M 16633  16635  17114M 17114  17123  17124  17224  17238
                                                 17303M 17303  17438M 17438  17447  17448  17449  17480M 17480  17570M
                                                 21280M 21296M 21394M 21394  21403  21404  21405  21423M 21457M 21457
                                                 21466  21467  22060M 22196M 22196  22205  22206  22207  22234M 22234
                                                 22269M 22281M 22364M 22399M 22434M 22469M 22504M 22524M 22606M 22606
                                                 22769M 22769  22778  22779  22876M 23209M 23344M 23344  23353  23354
                                                 23586M 23726M 23726  23735  23736  24035M 24168M 24314M 24314  24323
                                                 24324  24325  24352M 24352  24387M 24573M 24573  24582  24583  24904M
                                                 25044M 25044  25053  25054  25319M 25426M 25426  25435  25436  25437
                                                 25464M 25464  25499M 25581M 25581  25590  25591  25592  25619M 25619
                                                 25654M 25736M 25736  25745  25746  25747  25774M 25774  25809M 25891M
                                                 25891  25900  25901  25902  25929M 25929  25964M 26058M 26058  26067
                                                 26068  26069  26096M 26096  26131M 26225M 26225  26234  26235  26236
                                                 26263M 26263  26299M 26383M 26383  26392  26393  26394  26421M 26421
                                                 26457M 26541M 26541  26550  26551  26552  26579M 26579  26614M 26701M
                                                 26701  26710  26711  26712  26739M 26739  26774M 26856M 26864M 26864
                                                 26873  26874  26875  26902M 26902  26937M 27015M 27015  27024  27025
                                                 27026  27053M 27053  27088M 27169M 27169  27178  27179  27180  27207M
                                                 27207  27242M 27396M 27396  27405  27406  27430M 27454M 27472M 27500M
                                                 27535M 27563M 27581M 27604M 27629M 27629  27654M 27654  27673M 27704M
                                                 27740M 27776M 27847M 27847  27877M 27877  27895M 27914M 27942M 27960M
                                                 27988M 28023M 28044M 28044  28066M 28092M 28130M 28151M 28151  28169M
                                                 28182M 28217M 28243M 28296M 28329M 28356M 28399M 28412M 28412  28419
                                                 28420  28420  28420  28426M 28441M 28494M 28522M 28555M 28555  28587M
                                                 28622M 28657M 28691M 28726M 28759M 28781M 28807M 28856M 28878M 28904M
                                                 28938M 28958M 28958  29013M 29154  29154  29154  29309M 29331M 29348M
                                                 29369M 29420M 29442M 29477M 29499M 29535M 29557M 29592M 29614M 29648M
                                                 29669M 29689M 29689  29734M 29755M 29755  29796M 29815M 29918M 29940M
                                                 29966M 29966  30070M 30092M 30109M 30208  30343M 30343  30352  30353
                                                 30354  30372M 30443M 30443  30452  30453  30497M 30497  30506  30507
1MODE     (MODE4072) (12:48) (15MAR04) Ordinary Symbol and Literal Cross Reference                                          Page  227
                                                 30615M 30638M 30808M 30808  30817  30818  30856M 31113M 31192M 31271M
                                                 31350M 31429M 31508M 31587M 31667M 31701M 31794M 31812M 31908M 31951M
                                                 31969M 31997M 32015M 32098M 32110  32121M 32157M 32157  32175M 32278M
                                                 32321M 32339M 32442M 32483M 32517M 32620M 32663M 32681M 32784M 32827M
                                                 32845M 32931M 32931  32949M 33032M 33059M 33077M 36027M 36043M 36140M
                                                 36173M 36200M 36243M 36256M 36256  36263  36264  36264  36264  36270M
                                                 36285M 36336M 36364M 36420M 36459M 36496M 36496  36549  36549  36549
                                                 36618M 36618  36627  36628  36696M 36892  36955  37033M 37033  37040M
                                                 37069  37124M 37162M 37163M 37167  37169M 37170  37240M 37243  37255M
                                                 37318M 37349M 37349  37478M 37539M 37548M 37548  37562M 37579  37581M
                                                 37642M 37672M 37690M 37718M 37718  37759M 37807M 37830M 37850M 37872M
                                                 37924M 37943M 37974M 37992M 38173M 38173  38210M 38227M 38227  38250M
                                                 38387M 38387  38396  38397  38419M 38620  38637M 38655M 38680M 38680
                                                 38714M 38739M 38739  38778M 38803M 38803  38853M 38853  38873M 38897M
                                                 38910M 38910  38955M 38955  38978M 38995  38997M 39037M 39054  39098M
                                                 39139M 39164M 39164  39192M 39192  39210M 39226M 39246M 39290M 39290
                                                 39308M 39332M 39332  39350M 39372M 39372  39390M 39418M 39418  39436M
                                                 39458M 39458  39476M 39498M 39498  39516M 39538M 39538  39556M 39589M
                                                 39589  39610M 39626M 39626  39628M 39648M 39673M 39673  39692M 39712M
                                                 39712  39713M 39733M 39758M 39758  39777M 39806M 39825M 39825  39867M
                                                 39892M 39892  39911M 39940M 39968M 39993M 39993  40018M 40018  40036M
                                                 40089M 40089  40091M 40092M 40104M 40104  40129  40156M 40183M 40235M
                                                 40235  40260M 40260  40285M 40285  40303M 40325M 40325  40343M 40356M
                                                 40374M 40374  40399M 40399  40420M 40420  40438M 40459M 40459  40477M
                                                 40498M 40498  40516M 40563M 40580  40581M 40634M 40697M 40697  40715M
                                                 40758M 40758  40776M 40790M 40801M 40826M 40844M 40861  40862M 40907M
                                                 40933M 40933  40994M 41013M 41043M 41061M 41091M 41115M 41133M 41157M
                                                 41175M 41200M 41200  41280M 41280  41298M 41331M 41331  41349M 41371M
                                                 41371  41389M 41411M 41411  41429M 41452M 41452  41470M 41498M 41498
                                                 41516M 41547M 41571M 41571  41589M 41620M 41642M 41642  41660M 41691M
                                                 41712M 41712  41730M 41751M 41751  41769M 41797M 41797  41815M 41843M
                                                 41861M 41883M 41883  41901M 41929M 41947M 41975M 41993M 42021M 42039M
                                                 42065M 42065  42083M 42107M 42107  42125M 42153M 42153  42175M 42175
                                                 42193M 42216M 42216  42234M 42256M 42256  42274M 42297M 42297  42315M
                                                 42337M 42337  42355M 42372M 42397M 42397  42413M 42455M 42455  42477M
                                                 42477  42495M 42517M 42517  42535M 42548M 42559M 42602M 42602  42620M
                                                 42648M 42648  42839M 42857M 42911M 42911  42933M 42946M 42946  42969M
                                                 42997M 43025M 43055M 43074M 43092M 43105M 43116M 43156M 43156  43174M
                                                 43192M 43226M 43302M 43321M 43351M 43369M 43399M 43424M 43442M 43455M
                                                 43473M 43491M 43516M 43534M 43559M 43577M 43759M 43759  43768  43769
                                                 43814M 43844M 43862M 43892M 43910M 43943M 43961M 44019M 44019  44022M
                                                 44023M 44038  44048M 44065  44077M 44125M 44182M 44223M 44377M 44471M
                                                 44489M 44514M 44514  44539M 44539  44559M 44576  44578M 44624M 44624
                                                 44649M 44649  44676M 44694M 44723M 44741M 44767M 44785M 44811M 44829M
                                                 44854M 44854  44880M 44898M 44923M 44923  44950M 44968M 44996M 45014M
                                                 45040M 45058M 45473M 45884M 45884  45893  45894  46178M 46190M 46224M
                                                 46262M 46300M 46338M 46376M 46414M 46452M 46599  46610M 46617  46713M
                                                 46725M 46738M 46863M 46863  46872  46873  47048M 47119M 47151M 47174M
                                                 47211M 47338M 47338  47347  47348  47540M 47633M 47676M 48235M 48235
                                                 48244  48245  48292M 48308M 48635M 48659M 48677M 48707M 48746M 48746
                                                 48792M 48826M 48856M 48895M 48895  48948M 48948  48966M 48983M 49007M
                                                 49023M 49037M 49061M 49079M 49109M 49148M 49148  49247M 49281M 49311M
                                                 49350M 49350  49403M 49403  49421M 49442M 49466M 49482M 49818  49879
                                                 49940  50001  50067M 50129  50190  50251  50312  50373  50495M 50516M
                                                 50516  50534M 50555M 50555  50573M 50598M 50598  50617M 50651M 50667M
                                                 50687M 50735M 50755M 50794M 50819M 50819  50844M 50844  50863M 50886M
                                                 50907M 50907  50925M 50950M 50950  50968M 51002M 51033M 51052M 51092M
                                                 51108M 51131M 51149M 51178M 51178  51203M 51203  51224M 51245M 51245
                                                 51263M 51282M 51306M 51324M 51343M 51367M 51385M 51409M 51433M 51458M
1MODE     (MODE4072) (12:48) (15MAR04) Ordinary Symbol and Literal Cross Reference                                          Page  228
                                                 51458  51477M 51498M 51498  51516M 51565M 51565  51583M 51602M 51620M
                                                 51641M 51641  51659M 51680M 51680  51705M 51705  51724M 51742M 51763M
                                                 51763  51781M 51802M 51802  51827M 51827  51916M 51916  51925  51926
                                                 51998M 52019M 52019  52037M 52064M 52064  52082M 52222  52338M 52338
                                                 52356M 52385M 52385  52404M 52426M 52759M 52778M 52833M 52833  52994M
                                                 52995  53072M 53072  53088M 53174  53191M 53232M 53362  53374M 53374
                                                 53383  53384  53428M 53437M 53464M 53486M 53502M 53571M 53748  54014
                                                 54045M 54087M 54307M 54341M 54368M 54386M 54492M 54541M 55027M 55046
                                                 55047  55047  55047  55052  55062M 55072M 55072  55081  55093M 55098
                                                 55222M 55245M 55272M 55299M 55380  55381M 55438M 55466M 55533  55534M
                                                 55591M 55617M 55809M 55809  55818  55819  55820  55847M 55847  55934M
                                                 55952M 55952  55961  55962  56617M 56757M 56757  56766  56767  56809M
                                                 56841M 56859M 56893M 56913M 57037  57037  57037  57197M 57197  57206
                                                 57207  57208  57235M 57235  57306M 57306  57341M 57411M 57598M 57695M
                                                 57847M 57847  57856  57857  57858  57885M 57885  58060M 58163M 58437M
                                                 58462M 58462  58496M 58524M 58558M 58586M 58604M 58633M 58633  58674M
                                                 58692M 58717M 58717  58735M
 R1            1 00000001 FFFFFFFF A   #     712  6246M  6247M  6253M 11104M 11117  11118  11119  11136M 11197M 11210
                                                 11211  11213  11251M 11264  11265  11267  11356M 11700M 11713  11714
                                                 11715  12265M 12278  12279  12280  12328M 12329M 12329  12427M 12440
                                                 12441  12442  12498M 12499M 12499  12587M 12600  12601  12603  12694M
                                                 12707  12708  12710  12831M 12844  12845  12846  13076M 13089  13090
                                                 13092  13240M 13253  13254  13255  13285M 13373M 13418M 13528M 13541
                                                 13542  13543  13573M 13678M 13824M 13837  13838  13839  13907M 13920
                                                 13921  13922  13960M 14055M 14068  14069  14070  14135M 14163M 14187M
                                                 14437M 14450  14451  14453  14621M 14634  14635  14637  15027M 15040
                                                 15041  15043  15345M 15358  15359  15361  15646M 15659  15660  15661
                                                 15788M 15807M 16291M 16304  16305  16306  16368M 16381  16382  16384
                                                 16634M 17110M 17123  17124  17126  17209M 17210M 17210  17277  17299M
                                                 17434M 17447  17448  17449  17470M 17471M 17471  17569M 21279M 21295M
                                                 21390M 21403  21404  21405  21422M 21453M 21466  21467  21469  22059M
                                                 22192M 22205  22206  22207  22268M 22280M 22363M 22398M 22433M 22468M
                                                 22503M 22523M 22765M 22778  22779  22781  22875M 23208M 23340M 23353
                                                 23354  23356  23585M 23722M 23735  23736  23738  24034M 24167M 24310M
                                                 24323  24324  24325  24386M 24569M 24582  24583  24585  24903M 25040M
                                                 25053  25054  25056  25318M 25422M 25435  25436  25437  25498M 25577M
                                                 25590  25591  25592  25653M 25732M 25745  25746  25747  25808M 25887M
                                                 25900  25901  25902  25963M 26054M 26067  26068  26069  26130M 26221M
                                                 26234  26235  26236  26298M 26379M 26392  26393  26394  26456M 26537M
                                                 26550  26551  26552  26613M 26697M 26710  26711  26712  26773M 26855M
                                                 26860M 26873  26874  26875  26936M 27011M 27024  27025  27026  27087M
                                                 27165M 27178  27179  27180  27241M 27392M 27405  27406  27408  27431M
                                                 27447M 27471M 27495M 27534M 27558M 27580M 27603M 27672M 27697M 27717M
                                                 27733M 27753M 27769M 27789M 27894M 27913M 27937M 27959M 27983M 28022M
                                                 28065M 28087M 28129M 28147M 28168M 28216M 28238M 28295M 28328M 28351M
                                                 28394M 28419  28420  28420  28420  28425M 28441M 28493M 28517M 28580M
                                                 28615M 28650M 28684M 28719M 28758M 28780M 28802M 28855M 28877M 28899M
                                                 28937M 28965M 29006M 29154  29154  29154  29308M 29330M 29347M 29368M
                                                 29419M 29441M 29476M 29498M 29534M 29556M 29591M 29613M 29647M 29668M
                                                 29696M 29733M 29762M 29795M 29814M 29917M 29939M 30069M 30091M 30108M
                                                 30339M 30352  30353  30354  30371M 30439M 30452  30453  30455  30493M
                                                 30506  30507  30509  30614M 30637M 30804M 30817  30818  30820  30855M
                                                 31112M 31191M 31270M 31349M 31428M 31507M 31586M 31700M 31789M 31811M
                                                 31907M 31946M 31968M 31992M 32014M 32120M 32153M 32174M 32277M 32316M
                                                 32338M 32441M 32478M 32516M 32619M 32658M 32680M 32783M 32822M 32844M
                                                 32927M 32948M 33031M 33055M 33076M 36022M 36042M 36139M 36172M 36195M
                                                 36238M 36263  36264  36264  36264  36269M 36285M 36335M 36359M 36419M
                                                 36458M 36549  36549  36549  36614M 36627  36628  36630  37117M 37171M
                                                 37182M 37268M 37311M 37477M 37561M 37580  37581M 37641M 37665M 37689M
1MODE     (MODE4072) (12:48) (15MAR04) Ordinary Symbol and Literal Cross Reference                                          Page  229
                                                 37725M 37758M 37777M 37778M 37778  37800M 37829M 37849M 37871M 37906M
                                                 37907M 37942M 37956M 37957M 37991M 38203M 38243M 38383M 38396  38397
                                                 38399  38632M 38654M 38713M 38777M 38872M 38896M 38977M 38996  38997M
                                                 39036M 39055  39105M 39138M 39209M 39225M 39245M 39307M 39328M 39349M
                                                 39368M 39389M 39435M 39454M 39475M 39494M 39515M 39534M 39555M 39609M
                                                 39627M 39691M 39776M 39806M 39836M 39836  39843M 39910M 39940M 40035M
                                                 40090M 40155M 40190M 40281M 40302M 40321M 40342M 40357M 40416M 40437M
                                                 40455M 40476M 40494M 40515M 40556M 40585M 40585  40629M 40714M 40775M
                                                 40791M 40800M 40819M 40843M 40866M 40866  40906M 40987M 41012M 41036M
                                                 41060M 41084M 41108M 41132M 41150M 41174M 41297M 41348M 41367M 41388M
                                                 41407M 41428M 41448M 41469M 41515M 41540M 41567M 41588M 41613M 41638M
                                                 41659M 41684M 41708M 41729M 41747M 41768M 41814M 41836M 41860M 41879M
                                                 41900M 41922M 41946M 41968M 41992M 42014M 42038M 42082M 42103M 42124M
                                                 42171M 42192M 42212M 42233M 42252M 42273M 42293M 42314M 42333M 42354M
                                                 42371M 42393M 42412M 42473M 42494M 42513M 42534M 42549M 42558M 42598M
                                                 42619M 42838M 42856M 42932M 42962M 42992M 43018M 43056M 43067M 43091M
                                                 43106M 43115M 43173M 43191M 43225M 43295M 43320M 43344M 43368M 43392M
                                                 43417M 43441M 43456M 43466M 43490M 43509M 43533M 43552M 43576M 43755M
                                                 43768  43769  43771  43813M 43837M 43861M 43885M 43909M 43938M 43960M
                                                 44020M 44021M 44047M 44084M 44124M 44189M 44222M 44376M 44466M 44488M
                                                 44558M 44577  44578M 44669M 44693M 44716M 44740M 44760M 44784M 44804M
                                                 44828M 44873M 44897M 44943M 44967M 44989M 45013M 45033M 45057M 45472M
                                                 45880M 45893  45894  45896  46177M 46189M 46223M 46261M 46299M 46337M
                                                 46375M 46413M 46451M 46609M 46712M 46724M 46859M 46872  46873  46875
                                                 47047M 47118M 47150M 47173M 47210M 47334M 47347  47348  47350  47535M
                                                 47632M 47671M 48231M 48244  48245  48247  48291M 48307M 48634M 48652M
                                                 48676M 48700M 48799M 48825M 48849M 48965M 48982M 49000M 49022M 49036M
                                                 49054M 49078M 49102M 49254M 49280M 49304M 49420M 49441M 49459M 49481M
                                                 50066M 50494M 50512M 50533M 50551M 50572M 50616M 50650M 50666M 50686M
                                                 50734M 50754M 50793M 50862M 50885M 50903M 50924M 50967M 51001M 51032M
                                                 51051M 51091M 51112M 51112  51148M 51223M 51241M 51262M 51281M 51299M
                                                 51323M 51342M 51360M 51384M 51408M 51432M 51476M 51494M 51515M 51561M
                                                 51582M 51601M 51619M 51637M 51658M 51676M 51723M 51741M 51759M 51780M
                                                 51798M 51912M 51925  51926  51928  51997M 52015M 52036M 52060M 52081M
                                                 52334M 52355M 52381M 52403M 52425M 52710  52758M 52777M 52888M 53068M
                                                 53087M 53168M 53168  53176  53198M 53231M 53362  53370M 53383  53384
                                                 53386  53427M 53437M 53462  53462  53463  53463  53485  53485  53566M
                                                 53748M 53749M 54031  54080M 54306M 54340M 54364M 54385M 54491M 54534M
                                                 55026M 55046  55047  55047  55047  55062M 55221M 55244M 55271M 55298M
                                                 55385M 55385  55431M 55459M 55538M 55538  55584M 55612M 55805M 55818
                                                 55819  55820  55929M 55948M 55961  55962  55964  56753M 56766  56767
                                                 56769  56808M 56836M 56858M 56892M 56912M 57037  57037  57037  57193M
                                                 57206  57207  57208  57340M 57597M 57648M 57649M 57650  57694M 57843M
                                                 57856  57857  57858  58059M 58116M 58117M 58118  58162M 58436M 58489M
                                                 58519M 58557M 58581M 58603M 58673M 58691M 58734M
 R12          12 0000000C FFFFFFFF A   #     855  6209
 R13          13 0000000D FFFFFFFF A   #     868 11099  11112  11113  11114  11129  11130  11131  11205  11206  11207
                                                 11223  11224  11225  11259  11260  11261  11277  11278  11279  11708
                                                 11709  11710  11725  11726  11727  12273  12274  12275  12290  12291
                                                 12292  12435  12436  12437  12452  12453  12454  12595  12596  12597
                                                 12613  12614  12615  12702  12703  12704  12720  12721  12722  12826
                                                 12839  12840  12841  12856  12857  12858  13084  13085  13086  13102
                                                 13103  13104  13248  13249  13250  13265  13266  13267  13536  13537
                                                 13538  13553  13554  13555  13832  13833  13834  13849  13850  13851
                                                 13915  13916  13917  13932  13933  13934  14063  14064  14065  14080
                                                 14081  14082  14445  14446  14447  14463  14464  14465  14629  14630
                                                 14631  14647  14648  14649  15035  15036  15037  15053  15054  15055
                                                 15353  15354  15355  15371  15372  15373  15654  15655  15656  15671
                                                 15672  15673  16286  16299  16300  16301  16316  16317  16318  16376
1MODE     (MODE4072) (12:48) (15MAR04) Ordinary Symbol and Literal Cross Reference                                          Page  230
                                                 16377  16378  16394  16395  16396  17118  17119  17120  17136  17137
                                                 17138  17278  17279M 17279  17442  17443  17444  17459  17460  17461
                                                 21385  21398  21399  21400  21415  21416  21417  21461  21462  21463
                                                 21479  21480  21481  22200  22201  22202  22217  22218  22219  22773
                                                 22774  22775  22791  22792  22793  23348  23349  23350  23366  23367
                                                 23368  23730  23731  23732  23748  23749  23750  24318  24319  24320
                                                 24335  24336  24337  24577  24578  24579  24595  24596  24597  25048
                                                 25049  25050  25066  25067  25068  25430  25431  25432  25447  25448
                                                 25449  25585  25586  25587  25602  25603  25604  25740  25741  25742
                                                 25757  25758  25759  25895  25896  25897  25912  25913  25914  26062
                                                 26063  26064  26079  26080  26081  26229  26230  26231  26246  26247
                                                 26248  26387  26388  26389  26404  26405  26406  26545  26546  26547
                                                 26562  26563  26564  26705  26706  26707  26722  26723  26724  26868
                                                 26869  26870  26885  26886  26887  27019  27020  27021  27036  27037
                                                 27038  27173  27174  27175  27190  27191  27192  27400  27401  27402
                                                 27418  27419  27420  30334  30347  30348  30349  30364  30365  30366
                                                 30447  30448  30449  30465  30466  30467  30501  30502  30503  30519
                                                 30520  30521  30743  30812  30813  30814  30830  30831  30832  36622
                                                 36623  36624  36640  36641  36642  38391  38392  38393  38409  38410
                                                 38411  43763  43764  43765  43781  43782  43783  45888  45889  45890
                                                 45906  45907  45908  46867  46868  46869  46885  46886  46887  47342
                                                 47343  47344  47360  47361  47362  48239  48240  48241  48257  48258
                                                 48259  51920  51921  51922  51938  51939  51940  53378  53379  53380
                                                 53396  53397  53398  55813  55814  55815  55830  55831  55832  55956
                                                 55957  55958  55974  55975  55976  56761  56762  56763  56779  56780
                                                 56781  57201  57202  57203  57218  57219  57220  57851  57852  57853
                                                 57868  57869  57870
 R14          14 0000000E FFFFFFFF A   #     881  6184M 11098M 11099  11111M 11112  11113  11114  11126M 11129  11130
                                                 11131  11135M 11136  11137  11141M 11141  11160M 11163  11204M 11205
                                                 11206  11207  11212M 11213  11220M 11223  11224  11225  11258M 11259
                                                 11260  11261  11266M 11267  11274M 11277  11278  11279  11707M 11708
                                                 11709  11710  11722M 11725  11726  11727  11752M 11753  11768  11783
                                                 11784  11785  11785  11786  11787  11800  11804M 11804  12272M 12273
                                                 12274  12275  12287M 12290  12291  12292  12434M 12435  12436  12437
                                                 12449M 12452  12453  12454  12594M 12595  12596  12597  12602M 12603
                                                 12610M 12613  12614  12615  12701M 12702  12703  12704  12709M 12710
                                                 12717M 12720  12721  12722  12825M 12826  12838M 12839  12840  12841
                                                 12853M 12856  12857  12858  12884M 12887  13083M 13084  13085  13086
                                                 13091M 13092  13099M 13102  13103  13104  13247M 13248  13249  13250
                                                 13262M 13265  13266  13267  13535M 13536  13537  13538  13550M 13553
                                                 13554  13555  13831M 13832  13833  13834  13846M 13849  13850  13851
                                                 13914M 13915  13916  13917  13929M 13932  13933  13934  14062M 14063
                                                 14064  14065  14077M 14080  14081  14082  14444M 14445  14446  14447
                                                 14452M 14453  14460M 14463  14464  14465  14628M 14629  14630  14631
                                                 14636M 14637  14644M 14647  14648  14649  14845M 14846  14861  14876
                                                 14877  14878  14878  14879  14880  14893  14897M 14897  15034M 15035
                                                 15036  15037  15042M 15043  15050M 15053  15054  15055  15352M 15353
                                                 15354  15355  15360M 15361  15368M 15371  15372  15373  15653M 15654
                                                 15655  15656  15668M 15671  15672  15673  16285M 16286  16298M 16299
                                                 16300  16301  16313M 16316  16317  16318  16358M 16361  16375M 16376
                                                 16377  16378  16383M 16384  16391M 16394  16395  16396  17117M 17118
                                                 17119  17120  17125M 17126  17133M 17136  17137  17138  17441M 17442
                                                 17443  17444  17456M 17459  17460  17461  21384M 21385  21397M 21398
                                                 21399  21400  21412M 21415  21416  21417  21421M 21422  21423  21427M
                                                 21427  21446M 21449  21460M 21461  21462  21463  21468M 21469  21476M
                                                 21479  21480  21481  22199M 22200  22201  22202  22214M 22217  22218
                                                 22219  22772M 22773  22774  22775  22780M 22781  22788M 22791  22792
                                                 22793  23347M 23348  23349  23350  23355M 23356  23363M 23366  23367
                                                 23368  23729M 23730  23731  23732  23737M 23738  23745M 23748  23749
1MODE     (MODE4072) (12:48) (15MAR04) Ordinary Symbol and Literal Cross Reference                                          Page  231
                                                 23750  24317M 24318  24319  24320  24332M 24335  24336  24337  24576M
                                                 24577  24578  24579  24584M 24585  24592M 24595  24596  24597  25047M
                                                 25048  25049  25050  25055M 25056  25063M 25066  25067  25068  25429M
                                                 25430  25431  25432  25444M 25447  25448  25449  25584M 25585  25586
                                                 25587  25599M 25602  25603  25604  25739M 25740  25741  25742  25754M
                                                 25757  25758  25759  25894M 25895  25896  25897  25909M 25912  25913
                                                 25914  26061M 26062  26063  26064  26076M 26079  26080  26081  26228M
                                                 26229  26230  26231  26243M 26246  26247  26248  26386M 26387  26388
                                                 26389  26401M 26404  26405  26406  26544M 26545  26546  26547  26559M
                                                 26562  26563  26564  26704M 26705  26706  26707  26719M 26722  26723
                                                 26724  26867M 26868  26869  26870  26882M 26885  26886  26887  27018M
                                                 27019  27020  27021  27033M 27036  27037  27038  27172M 27173  27174
                                                 27175  27187M 27190  27191  27192  27399M 27400  27401  27402  27407M
                                                 27408  27415M 27418  27419  27420  30333M 30334  30346M 30347  30348
                                                 30349  30361M 30364  30365  30366  30370M 30371  30372  30376M 30376
                                                 30395M 30398  30446M 30447  30448  30449  30454M 30455  30462M 30465
                                                 30466  30467  30500M 30501  30502  30503  30508M 30509  30516M 30519
                                                 30520  30521  30742M 30743  30749M 30750  30765  30780  30781  30782
                                                 30782  30783  30784  30797  30801M 30801  30811M 30812  30813  30814
                                                 30819M 30820  30827M 30830  30831  30832  36621M 36622  36623  36624
                                                 36629M 36630  36637M 36640  36641  36642  38390M 38391  38392  38393
                                                 38398M 38399  38406M 38409  38410  38411  43762M 43763  43764  43765
                                                 43770M 43771  43778M 43781  43782  43783  45887M 45888  45889  45890
                                                 45895M 45896  45903M 45906  45907  45908  46866M 46867  46868  46869
                                                 46874M 46875  46882M 46885  46886  46887  47341M 47342  47343  47344
                                                 47349M 47350  47357M 47360  47361  47362  48238M 48239  48240  48241
                                                 48246M 48247  48254M 48257  48258  48259  51919M 51920  51921  51922
                                                 51927M 51928  51935M 51938  51939  51940  53157M 53157  53175M 53176M
                                                 53377M 53378  53379  53380  53385M 53386  53393M 53396  53397  53398
                                                 55025M 55026  55027  55031M 55031  55812M 55813  55814  55815  55827M
                                                 55830  55831  55832  55955M 55956  55957  55958  55963M 55964  55971M
                                                 55974  55975  55976  56760M 56761  56762  56763  56768M 56769  56776M
                                                 56779  56780  56781  57200M 57201  57202  57203  57215M 57218  57219
                                                 57220  57850M 57851  57852  57853  57865M 57868  57869  57870
 R15          15 0000000F FFFFFFFF A   #     894  6183  11132M 11132  11226M 11226  11280M 11280  11309M 11309  11377M
                                                 11377  11516M 11516  11656M 11656  11728M 11728  11753M 11762M 11762
                                                 11768M 11777M 11777  11783M 11784M 11786M 11787  11799M 11799  11800
                                                 11858M 11858  11939M 11939  12001M 12001  12069M 12069  12136M 12136
                                                 12221M 12221  12293M 12293  12382M 12382  12455M 12455  12529M 12529
                                                 12616M 12616  12642M 12642  12723M 12723  12780M 12780  12859M 12859
                                                 12906M 12906  12969M 12969  13032M 13032  13105M 13105  13130M 13130
                                                 13268M 13268  13276M 13454M 13454  13556M 13556  13564M 13714M 13714
                                                 13780M 13780  13852M 13852  13900M 13935M 13935  13981M 13981  14083M
                                                 14083  14091M 14092M 14092  14107M 14124M 14135  14172M 14393M 14393
                                                 14466M 14466  14491M 14491  14576M 14576  14650M 14650  14659M 14659
                                                 14678M 14678  14745M 14745  14846M 14855M 14855  14861M 14870M 14870
                                                 14876M 14877M 14879M 14880  14892M 14892  14893  14898M 14917M 14917
                                                 14960M 14979M 14979  15056M 15056  15081M 15081  15148M 15148  15214M
                                                 15214  15374M 15374  15399M 15399  15465M 15465  15532M 15532  15674M
                                                 15674  15779M 15798M 15855M 15855  15932M 15932  16009M 16009  16085M
                                                 16085  16162M 16162  16232M 16232  16319M 16319  16397M 16397  16434M
                                                 16434  16491  17046M 17065M 17065  17139M 17139  17165M 17165  17338M
                                                 17338  17462M 17462  17515M 17516M 17517  17560M 17604M 17604  20341M
                                                 20341  20408M 20408  20492M 20492  20577M 20577  20643M 20643  20728M
                                                 20728  20797M 20797  21288M 21316M 21316  21418M 21418  21482M 21482
                                                 21507M 21507  22080M 22080  22145M 22145  22220M 22220  22259M 22553M
                                                 22567M 22614M 22657M 22657  22794M 22794  22884M 22974M 22974  23199M
                                                 23229M 23229  23369M 23369  23439M 23439  23576M 23606M 23606  23751M
                                                 23751  23839M 23839  24025M 24055M 24055  24176M 24207M 24207  24338M
1MODE     (MODE4072) (12:48) (15MAR04) Ordinary Symbol and Literal Cross Reference                                          Page  232
                                                 24338  24377M 24456M 24456  24598M 24598  24720M 24720  24894M 24924M
                                                 24924  25069M 25069  25162M 25162  25309M 25339M 25339  25450M 25450
                                                 25489M 25530M 25530  25605M 25605  25644M 25685M 25685  25760M 25760
                                                 25799M 25840M 25840  25915M 25915  25954M 25972M 26007M 26007  26082M
                                                 26082  26121M 26139M 26174M 26174  26249M 26249  26288M 26332M 26332
                                                 26407M 26407  26446M 26490M 26490  26565M 26565  26604M 26646M 26646
                                                 26725M 26725  26764M 26806M 26806  26888M 26888  26927M 26964M 26964
                                                 27039M 27039  27078M 27118M 27118  27193M 27193  27232M 27275M 27275
                                                 27421M 27421  27462M 27480M 27508M 27543M 27571M 27589M 27612M 27637M
                                                 27662M 27681M 27712M 27748M 27784M 27855M 27885M 27903M 27922M 27950M
                                                 27968M 27996M 28031M 28074M 28120M 28138M 28159M 28177M 28206M 28225M
                                                 28267M 28304M 28337M 28380M 28434M 28461M 28502M 28530M 28563M 28595M
                                                 28630M 28665M 28699M 28734M 28789M 28831M 28886M 28928M 28946M 28954M
                                                 28989M 29021M 29055M 29055  29245M 29245  29317M 29339M 29393M 29428M
                                                 29450M 29485M 29507M 29543M 29565M 29600M 29622M 29677M 29685M 29724M
                                                 29742M 29751M 29786M 29804M 29823M 29847M 29847  29926M 29948M 29974M
                                                 29998M 29998  30078M 30100M 30129M 30129  30281M 30281  30367M 30367
                                                 30468M 30468  30522M 30522  30552M 30552  30662M 30662  30733M 30750M
                                                 30759M 30759  30765M 30774M 30774  30780M 30781M 30783M 30784  30796M
                                                 30796  30797  30833M 30833  30845  30864M 30898M 30898  31121M 31126M
                                                 31145M 31145  31200M 31205M 31224M 31224  31279M 31284M 31303M 31303
                                                 31358M 31363M 31382M 31382  31437M 31442M 31461M 31461  31516M 31521M
                                                 31540M 31540  31595M 31600M 31619M 31619  31691M 31709M 31733M 31733
                                                 31802M 31820M 31844M 31844  31916M 31959M 31977M 32005M 32023M 32051M
                                                 32051  32129M 32165M 32183M 32211M 32211  32286M 32329M 32347M 32375M
                                                 32375  32450M 32507M 32525M 32553M 32553  32628M 32671M 32689M 32717M
                                                 32717  32792M 32835M 32853M 32881M 32881  32939M 32957M 32981M 32981
                                                 33040M 33067M 33085M 33109M 33109  35961M 35961  36035M 36064M 36064
                                                 36148M 36181M 36224M 36278M 36305M 36344M 36372M 36428M 36467M 36504M
                                                 36529M 36529  36643M 36643  36697M 36721M 36721  36913M 36913  36976M
                                                 36976  37046  37132M 37194M 37280M 37326M 37357M 37380M 37380  37486M
                                                 37570M 37583M 37608M 37650M 37680M 37698M 37709M 37749M 37767M 37815M
                                                 37900M 37932M 37951M 37982M 38000M 38024M 38024  38131M 38156M 38181M
                                                 38218M 38258M 38283M 38283  38412M 38412  38443M 38443  38552M 38552
                                                 38645M 38663M 38688M 38722M 38747M 38786M 38811M 38938M 38963M 38986M
                                                 38999M 39024M 39045M 39091M 39129M 39147M 39172M 39200M 39218M 39270M
                                                 39298M 39316M 39321M 39322M 39328  39340M 39358M 39380M 39398M 39426M
                                                 39444M 39466M 39484M 39506M 39524M 39546M 39564M 39597M 39618M 39629M
                                                 39656M 39681M 39700M 39714M 39741M 39766M 39785M 39790M 39800U 39848M
                                                 39875M 39900M 39919M 39924M 39934U 39949M 39976M 40001M 40026M 40044M
                                                 40052M 40062U 40176M 40218M 40243M 40268M 40293M 40311M 40333M 40351M
                                                 40382M 40407M 40428M 40446M 40467M 40485M 40506M 40524M 40571M 40589M
                                                 40614M 40658M 40705M 40723M 40766M 40784M 40809M 40834M 40852M 40870M
                                                 40895M 40915M 40941M 41002M 41021M 41051M 41069M 41099M 41123M 41141M
                                                 41165M 41183M 41208M 41288M 41306M 41339M 41357M 41379M 41397M 41419M
                                                 41437M 41460M 41478M 41506M 41524M 41555M 41560M 41561M 41567  41579M
                                                 41597M 41628M 41650M 41668M 41699M 41720M 41738M 41759M 41777M 41805M
                                                 41823M 41829M 41830M 41836  41851M 41869M 41891M 41909M 41915M 41916M
                                                 41922  41937M 41955M 41961M 41962M 41968  41983M 42001M 42007M 42008M
                                                 42014  42029M 42047M 42073M 42091M 42096M 42097M 42103  42115M 42133M
                                                 42161M 42183M 42201M 42224M 42242M 42264M 42282M 42305M 42323M 42345M
                                                 42363M 42405M 42437M 42463M 42485M 42503M 42525M 42543M 42567M 42610M
                                                 42628M 42656M 42685M 42685  42847M 42865M 42977M 43005M 43049M 43082M
                                                 43100M 43124M 43164M 43182M 43200M 43234M 43310M 43329M 43359M 43377M
                                                 43407M 43432M 43450M 43481M 43499M 43524M 43542M 43567M 43585M 43649M
                                                 43649  43784M 43784  43822M 43852M 43870M 43900M 43918M 43951M 43969M
                                                 43977M 43987U 44070M 44112M 44133M 44175M 44213M 44231M 44256M 44256
                                                 44347M 44357U 44397M 44397  44479M 44497M 44522M 44547M 44567M 44580M
                                                 44605M 44632M 44657M 44684M 44702M 44708M 44709M 44710M 44716  44731M
1MODE     (MODE4072) (12:48) (15MAR04) Ordinary Symbol and Literal Cross Reference                                          Page  233
                                                 44749M 44775M 44793M 44819M 44837M 44862M 44888M 44906M 44931M 44958M
                                                 44976M 44982M 44983M 44989  45004M 45022M 45048M 45066M 45091M 45091
                                                 45266M 45266  45390M 45390  45494M 45494  45621M 45621  45746M 45746
                                                 45909M 45909  45920M 45921M 45922  45948M 45948  46198M 46232M 46270M
                                                 46308M 46346M 46384M 46422M 46460M 46488M 46488  46621M 46622M 46623
                                                 46643M 46643  46733M 46762M 46786M 46786  46888M 46888  46919M 46919
                                                 47068M 47068  47127M 47235M 47261M 47261  47363M 47363  47389M 47389
                                                 47482M 47482  47526M 47563M 47563  47641M 47684M 47714M 47714  47847M
                                                 47847  47946M 47946  48260M 48260  48300M 48376M 48386U 48392M 48411M
                                                 48411  48439U 48598M 48599M 48600  48643M 48667M 48685M 48715M 48729M
                                                 48754M 48785M 48834M 48864M 48878M 48903M 48909M 48956M 48991M 49015M
                                                 49045M 49069M 49087M 49117M 49131M 49156M 49240M 49289M 49319M 49333M
                                                 49358M 49364M 49411M 49450M 49474M 49507M 49507  49837M 49837  49898M
                                                 49898  49959M 49959  50020M 50020  50087M 50087  50148M 50148  50209M
                                                 50209  50270M 50270  50331M 50331  50392M 50392  50503M 50524M 50542M
                                                 50563M 50581M 50606M 50625M 50659M 50711M 50779M 50802M 50827M 50852M
                                                 50871M 50876M 50894M 50915M 50933M 50958M 50976M 51010M 51077M 51082M
                                                 51100M 51106M 51139M 51157M 51186M 51211M 51232M 51253M 51271M 51290M
                                                 51314M 51332M 51351M 51375M 51393M 51399M 51417M 51423M 51441M 51466M
                                                 51485M 51506M 51524M 51529M 51539U 51545M 51554M 51555M 51561  51573M
                                                 51591M 51610M 51628M 51649M 51667M 51688M 51713M 51732M 51750M 51771M
                                                 51789M 51810M 51835M 51859M 51859  51941M 51941  52006M 52027M 52045M
                                                 52072M 52090M 52116M 52116  52256M 52256  52275M 52275  52326  52328M
                                                 52334  52346M 52364M 52371M 52374  52381  52393M 52400M 52416  52450M
                                                 52473M 52473  52524M 52549M 52549  52730M 52802M 52816M 52841M 52861M
                                                 52921M 52921  53015M 53015  53061M 53062M 53068  53080M 53108M 53108
                                                 53159M 53159  53174M 53222M 53240M 53263M 53263  53399M 53399  53439M
                                                 53531M 53579M 53613M 53613  53742M 53767M 53784M 53793M 53794  53800M
                                                 53800  53819M 53819  53863M 53864M 53865  53871M 53871  53890M 53890
                                                 53934M 53935M 53936  53942M 53942  53961M 53961  54070  54112  54118M
                                                 54118  54137M 54137  54193M 54214M 54239M 54239  54315M 54349M 54376M
                                                 54394M 54422M 54422  54522M 54523M 54534  54549M 54580M 54580  54707M
                                                 54707  55098M 55102M 55111M 55111  55118  55145M 55146M 55147  55168M
                                                 55168  55389M 55414M 55446M 55490M 55542M 55567M 55599M 55641M 55669M
                                                 55669  55833M 55833  55920M 55977M 55977  56223M 56223  56496M 56496
                                                 56675M 56675  56782M 56782  56849M 56867M 56901M 56938M 56938  57221M
                                                 57221  57331M 57349M 57377M 57377  57405  57412M 57480M 57480  57588M
                                                 57606M 57685M 57703M 57731M 57731  57871M 57871  57942M 57942  58050M
                                                 58068M 58153M 58171M 58199M 58199  58445M 58470M 58504M 58532M 58566M
                                                 58594M 58612M 58641M 58682M 58700M 58725M 58743M 58774M 58774
 R2            2 00000002 FFFFFFFF A   #     725 11438M 11470M 11479M 11479  11577M 11610M 11619M 11619  16635M 16639M
                                                 16648M 16648  16655  16750M 16751  16759M 16777  16816  16845  37579M
                                                 38995M 39054M 39059M 39060M 39061M 39062M 39073  39603M 39629  39714
                                                 39848  39949  40068M 40077M 40078  40082M 40082  40128M 40129M 40580M
                                                 40861M 41007M 41828M 41829  41879  43315M 43993M 44005M 44006M 44007M
                                                 44008  44012M 44012  44064M 44065M 44139M 44143M 44144M 44145M 44146M
                                                 44157  44576M 48360M 48450M 48479M 48479  48493  50983M 50984M 50984
                                                 51042M 51042  51053M 51053  51082  52729M 52729  52743M 52768M 52768
                                                 54031M 54335M 54502M 54502  54516  54522  54554M 55380M 55533M 55991M
                                                 55991  56024M 56061M 56096M 56131M 56184M 56184
 R3            3 00000003 FFFFFFFF A   #     738 16708M 16709M 16713M 16715M 16717M 16737M 16745M 16749M 16751M 16752
                                                 16760M 16761M 16763M 16777  16797M 16816  16836M 16844M 16845M 16846
                                                 16850M 16859M 16859  16866  36607M 36607  36696  36877M 36877  36892M
                                                 36894  36894M 37046M 37055M 37055  37063M 37146  37580M 38996M 39055M
                                                 39057M 39082M 39091  40068M 40078M 40111M 40146  40176  40587M 40587
                                                 40868M 40868  43993M 44003M 44008M 44070  44139M 44141M 44166M 44175
                                                 44577M 55387M 55387  55540M 55540  57522M 57530U 57551M 57551  57984M
                                                 57992U 58013M 58013  58274M 58282U 58649M 58649
 R4            4 00000004 FFFFFFFF A   #     751 16676M 17277M 17424M 17424  17494M 17494  17504  17535  17579M 36611M
1MODE     (MODE4072) (12:48) (15MAR04) Ordinary Symbol and Literal Cross Reference                                          Page  234
                                                 36611  36697  36955M 36957  36957M 37145M 37145  37147M 37156M 37156
                                                 37163  37182  37493M 37494M 37494  37515U 37627M 37635U 57183M 57183
                                                 57249M 57249  57442M 57833M 57833  57899M 57899  57913M 58273M 58273
                                                 58426M 58426  58648M 58663M 58663
 R5            5 00000005 FFFFFFFF A   #     764 12584M 12584  12622  12691M 12691  12740  12756  12948M 12950  12950M
                                                 13011M 13013  13013M 17278M 17287U 17299  17420M 17578M 27370M 27378U
                                                 37146M 37311  37331M 37463M 37471U 40946M 40962U 41217M 41233  48269M
                                                 48281  48610M 48621M 48621  48770M 48770  48781M 49162M 49162  49173M
                                                 49173  49236M 51909M 51909  51957M 51957  51963M 51976U 52207M 52207
                                                 52222M 52223M 52224M 52236  52252  52252M 52710M 52888  53367M 53367
                                                 53417  53495M 53495  53796  53796M 53861M 53867  53867M 53932M 53938
                                                 53938M 54029M 54114  54114M 56366M 56383M 56383  56398U 57405M 57406M
                                                 57411
 R6            6 00000006 FFFFFFFF A   #     777 16499M 16507U 16519M 16519  16895M 16904M 16904  16917U 17411M 17420
                                                 22745M 22753U 23320M 23328U 23702M 23710U 24549M 24557U 25020M 25028U
                                                 37069M 37072  37084M 37167  37169  37170M 37207M 37207  37217M 37234M
                                                 37234  37240  37292M 38380M 38380  38419  38531M 38533  38533M 38620M
                                                 41262M 41262  42871M 42887U 43130M 43254M 43270U 43594M 43610  45860M
                                                 45868U 48051M 48059U 53340M 53348U 54761M 54761  54780M 54830M 54880M
                                                 54964M 55007M 55007  55052  55218M 55241M 55268M 55295M 55755M 55763U
                                                 56350M 56360U 56545M 56561U 56626M 56643  57125M 57133U
 R7            7 00000007 FFFFFFFF A   #     790  6176M  6176   6177B  6189B
 R8            8 00000008 FFFFFFFF A   #     803 13234U 13522U 22741U 23316U 23698U 24545U 25016U 27366U 45856U 48047U
                                                 53336U 55751U 57121U
 SBUF          8 00000000 FFFFFFE1     D    4991  5007   5009
 SCANCHK       1 00000000 00000004     T   13145 13145  15274  15592  17616  21520  24222  25358  27289  29126  33140
                                                 37399  38564  45105  46501  47734  50417  52577  54606  57027  58800
 SCBUF         8 00000000 FFFFFFE1     D    5010  5020
 SCDQUOTE      1 00000000 0000000E     T   15275 15275  17619
 SCINIT        1 00000000 00000003     T   13143 13143  21518  33137
 SCNEX         1 00000000 0000007B     T   33138 33138
 SCNEXFR       1 00000000 00000009     T   13152 13152
 SCNINVAL      1 00000000 000000D9     T   44305 44305
 SCNNOOP       1 00000000 0000004B     T   19893 19893  20017  20032  20879  20894  23109  23124  23935  23950  25219
                                                 25234  56957  56972
 SCNSCFLG      1 00000000 00000051     T   20948 20948  20969  20989  21009  21030  21050  21069  21088  21107  21127
                                                 21147  21167  21186  22999  23018  23037  23056  23075  23094  23463
                                                 23482  23501  23863  23882  23901  23920  24743  24762  24781  24800
                                                 24819  25185  25204  45972  45991  46010  46029  46048  46067  46086
                                                 46962  46987  49540  49568  49596  56245  56265
 SCUPCASE      1 00000000 000000DA     T   47737 47737  57028
 SDSNBUF       1 00000000 FFFFFFE1     J    4989  5230   6449   6533  10273  10385  10475  10755  10986
 SDSNQSZ       1 0000002C FFFFFFDD A   U   10164 10165  10166
 SEG           1 00000000 00000010     T   17617 17617  21326  24223  25359  27290  29128  33125  36543  37403  38054
                                                 42703  43663  45106  46503  47730  50424  52565  54596  57024  58802
 SEGB          1 00000000 0000000F     T   15279 15279  29129  33127  36542  38052  42713  43666  54620  58807
 SEGCR         1 00000000 00000057     T   24228 24228  29131  33130  38297  42702  43661  45117  50419  52567  54618
                                                 58809
 SEGDC         1 00000000 00000070     T   29137 29137  33147  42710  43665  45120  50425  52566  54600
 SEGMARK       1 00000000 00000054     T   24224 24224  50426  54597
 SEGPGNUM      2 0000C8BE 00000001     H   52290 52570
 SEGT          1 00000000 0000006A     T   29130 29130  38059  42701  45108
 SEGTB         1 00000000 0000007C     T   33145 33145  38058  57035
 SEGWR         1 00000000 00000055     T   24225 24225  29142  33129  36547  37406  38300  50427  54598  57025  58803
 SET           2 00000018 00000001     H   11058 11054
 SETACCT       2 000014AE 00000001     H   16174 18057  18072  18087  18102  18117
 SETACT        1 00000000 00000021     T   17952 17952
 SETAUTH       2 000017A4 00000001     H   17073 18613
 SETAUTO       1 00000000 0000001D     T   17862 17862
1MODE     (MODE4072) (12:48) (15MAR04) Ordinary Symbol and Literal Cross Reference                                          Page  235
 SETCHR        1 00000000 00000045     T   19289 19289
 SETCHRU       1 00000000 00000046     T   19304 19304
 SETCOST       1 00000000 00000033     T   18629 18629
 SETCPR        2 000012F6 00000001     H   15608 19004
 SETCURR       2 00000644 00000001     H   12649 18267  18282
 SETDEBUG      1 00000000 00000039     T   18719 18719
 SETESCAP      2 000008CC 00000001     H   13192 18327
 SETEXEC       2 000007DA 00000001     H   13039 18312
 SETEXPRT      4 00003448 00000001     F   20144 13155
 SETFDEF       1 00000000 00000022     T   17982 17982
 SETFNTMO      2 0000B904 00000001     H   47763 18012
 SETFPAT       1 00000000 00000023     T   17997 17997
 SETFTMO       2 0000B942 00000001     H   47861 18027
 SETHIST       1 00000000 0000002A     T   18417 18417
 SETHOST       1 00000000 0000003A     T   18734 18734
 SETIGNOR      2 00000AD4 00000001     H   13787 15276
 SETJES        1 00000000 0000002B     T   18432 18432
 SETJOB        1 00000000 00000034     T   18644 18644
 SETLEN        2 00000382 00000001     H   11946 17727
 SETLIB        2 00000502 00000001     H   12389 18162
 SETLINE       1 00000000 00000029     T   18402 18402
 SETLMODE      2 00000F80 00000001     H   14990 19364
 SETLOGON      1 00000000 00000030     T   18537 18537
 SETLPR        1 00000000 00000047     T   19548 19548
 SETMAIL       1 00000000 0000001F     T   17892 17892  17907
 SETMAST       1 00000000 0000001A     T   17772 17772
 SETMIL        1 00000000 00000049     T   19578 19578  19593  19608  19623  19638  19653  19668  19683  19698  19713
                                                 19728  19743  19758  19773  19788  19803  19818  19833  19848  19863
                                                 19908  19923  19938  19953  19968  19983
 SETMSG        2 0000D434 00000001     H   54718 18839  18854  18884  18899  18929  18944  18974  18989
 SETMST        1 00000000 0000001E     T   17877 17877
 SETNAME       1 00000000 00000024     T   18042 18042
 SETNAUTH      2 0000363C 00000001     H   20499 20186
 SETNOSEC      2 0000369C 00000001     H   20650 20246
 SETNOTM       1 00000000 0000004A     T   19878 19878
 SETNOVER      2 000035DC 00000001     H   20348 20216
 SETNPLOG      2 0000021A 00000001     H   11523 18567
 SETNULL       2 00000188 00000001     H   11316 17667  19518
 SETOPER       1 00000000 0000003C     T   18764 18764  18779
 SETORVYL      2 00000BC0 00000001     H   13988 18372  18387
 SETOUT        1 00000000 00000035     T   18659 18659
 SETOVER       2 000035B0 00000001     H   20282 20201
 SETPACCT      1 00000000 00000025     T   18132 18132  18147
 SETPASS       1 00000000 0000001B     T   17787 17787  17802
 SETPAUSE      1 00000000 0000005D     T   24239 24239
 SETPFX        2 000014E0 00000001     H   16246 17967
 SETPFXNS      2 0000160C 00000001     H   16455 16451  17626
 SETPLOG       2 000001C2 00000001     H   11384 18552
 SETPRIV       1 00000000 0000003D     T   18794 18794  18809
 SETPRO        2 00003ABC 00000001     H   21240 18462
 SETPROJ       1 00000000 00000028     T   18207 18207  18222  18477
 SETPRT        4 00001A80 00000001     F   17655 13146
 SETPRTL       4 00002DB8 00000001     F   19506 13144
 SETQUERY      1 00000000 0000003B     T   18749 18749
 SETRACF       2 0000AFA0 00000001     H   45507 19439  19454
 SETRETRN      2 000005B0 00000001     H   12536 18297
 SETRSCN       2 00000AA2 00000001     H   13722 18357
 SETSAM        1 00000000 00000026     T   18177 18177
 SETSEC        2 00003670 00000001     H   20584 20231
1MODE     (MODE4072) (12:48) (15MAR04) Ordinary Symbol and Literal Cross Reference                                          Page  236
 SETSKIP       2 000009C4 00000001     H   13480 18342
 SETSLOCK      2 000036D0 00000001     H   20735 20261
 SETSMF        1 00000000 0000001C     T   17817 17817  17832
 SETTABS       1 00000000 00000019     T   17757 17757
 SETTER        2 00000272 00000001     H   11663 17697
 SETTERM       1 00000000 00000007     T   13149 13149  19533
 SETVER        2 00000342 00000001     H   11865 17712
 SETVIEW       1 00000000 00000048     T   19563 19563
 SETVMODE      2 00001194 00000001     H   15308 18252
 SETVOL        2 0000044E 00000001     H   12228 17847
 SETVOPT       1 00000000 00000032     T   18597 18597
 SETVSES       1 00000000 00000031     T   18582 18582
 SETWAPP       1 00000000 0000002E     T   18507 18507
 SETWBKUP      2 0000DC10 00000001     H   57079 19109
 SETWBONT      5 00000000 FFFFFFCA     C   57058 57389M 57389  57412  57644
 SETWBWRK     32 00000000 FFFFFFCA     J   57067 57092  57121U 57125  57133U 57179M 57179  57476  57478  57479
 SETWCH        1 00000000 00000036     T   18674 18674
 SETWCIN       1 00000000 00000038     T   18704 18704
 SETWCTR       1 00000000 00000037     T   18689 18689
 SETWDICT      1 00000000 00000044     T   19214 19214
 SETWFACT      2 0000B3CA 00000001     H   46530 19244
 SETWFDEF      2 0000B496 00000001     H   46797 19259
 SETWFPAT      2 0000B684 00000001     H   47272 19274
 SETWHELP      1 00000000 00000040     T   19154 19154
 SETWHOST      1 00000000 00000041     T   19169 19169
 SETWMACH      2 0000B038 00000001     H   45814 19229
 SETWNET       1 00000000 0000003E     T   19079 19079
 SETWNEWS      1 00000000 0000003F     T   19139 19139
 SETWORD       2 0000D6C0 00000001     H   55709 18824
 SETWPGS       2 0000B980 00000001     H   48005 19319
 SETWPROJ      1 00000000 0000002D     T   18492 18492
 SETWPRT       1 00000000 00000043     T   19199 19199
 SETWREL       2 0000AEBE 00000001     H   45152 19334  19349
 SETWROT       2 0000AF56 00000001     H   45401 19409  19424
 SETWSL        2 0000CCE6 00000001     H   52934 19499
 SETWTASK      2 0000AFEC 00000001     H   45632 19469  19484
 SETWTERM      1 00000000 00000042     T   19184 19184
 SETWTRC       2 0000AF0A 00000001     H   45277 19379  19394
 SETWVOL       2 000018BE 00000001     H   17350 19094
 SETXAUTH      2 00003608 00000001     H   20415 20171
 SETXMAIL      1 00000000 00000020     T   17922 17922  17937
 SHCOLPRT      4 00008E50 00000001     F   36726 37397
 SHDTCLCK      8 00000000 FFFFFFCC     D   53274 53362M 53437  53793  53794M 53863  53865M 53934  53936M 54070M 54112M
 SHDTMSG      40 00000008 FFFFFFCC     C   53275 53549M 53549  53566  53571  53792M 53862M 53933M 54030M 54591  54592
                                                 54593  54594
 SHDTWA       48 00000000 FFFFFFCC     J   53282 53307  53336U 53340  53348U 53356M 53356  53609  53611  53612
 SHNUM         2 00008F68 00000001     H   36834 36738  36753  36768
 SHOAUTH       2 000069D8 00000001     H   31852 34489
 SHOBKNXT      4 0000E030 00000001     I   58649 58316B 58335B 58389B 58412B
 SHODELTA      2 0000692A 00000001     H   31628 34248
 SHODSN        1 00000000 00000080     T   33333 33333
 SHOESCAP      2 00006BD8 00000001     H   32560 34203
 SHOLEN        2 00006A70 00000001     H   32059 33318
 SHOLMODE      2 000061C4 00000001     H   29858 34761
 SHOMODE       2 00005FD0 00000001     H   29183 34263
 SHORSCN       2 00006CC0 00000001     H   32888 34233
 SHOSIZ        1 00000000 0000008F     T   33708 33708
 SHOSKIP       2 00006C4C 00000001     H   32724 34218
 SHOVMODE      2 0000622E 00000001     H   30009 34278
1MODE     (MODE4072) (12:48) (15MAR04) Ordinary Symbol and Literal Cross Reference                                          Page  237
 SHOW          2 000062FE 00000001     H   30293 30289  33135
 SHOWACCT      2 00008BA0 00000001     H   35901 33483  33498  33513  33528  34008
 SHOWACT       1 00000000 0000007D     T   33258 33258
 SHOWACTS      1 00000000 0000007E     T   33273 33273  33288
 SHOWAINF      1 00000000 0000007F     T   33303 33303
 SHOWARRY      1 00000000 000000A1     T   34158 34158
 SHOWAUTO      1 00000000 00000081     T   33348 33348
 SHOWBKUP      2 0000DF34 00000001     H   58219 58215
 SHOWCASE      1 00000000 000000C8     T   35440 35440  35455  35470
 SHOWCAT       1 00000000 00000090     T   33723 33723  33738
 SHOWCHAR      1 00000000 000000CA     T   35605 35605
 SHOWCHR       1 00000000 000000B9     T   34851 34851
 SHOWCNT       1 00000000 000000BF     T   35140 35140
 SHOWCOLS      2 00008DA8 00000001     H   36569 35260  35275
 SHOWCOST      1 00000000 000000CB     T   35620 35620
 SHOWCPR       2 00006D0E 00000001     H   32988 34611
 SHOWDATE      2 0000CDD6 00000001     H   53294 35290  35305
 SHOWDBUG      1 00000000 000000AF     T   34473 34473
 SHOWDEF       1 00000000 000000A2     T   34173 34173
 SHOWDIR       1 00000000 00000083     T   33378 33378
 SHOWEXEC      1 00000000 00000095     T   33843 33843
 SHOWFDEF      1 00000000 00000085     T   33453 33453
 SHOWFPAT      1 00000000 00000086     T   33468 33468
 SHOWFTP       1 00000000 0000008B     T   33603 33603
 SHOWGETS      2 0000D16C 00000001     H   54250 33243
 SHOWHIST      1 00000000 000000A4     T   34293 34293
 SHOWHOST      1 00000000 00000088     T   33558 33558
 SHOWHSTS      1 00000000 00000089     T   33573 33573
 SHOWIDLE      1 00000000 000000BD     T   35110 35110
 SHOWILIN      1 00000000 0000008D     T   33663 33663
 SHOWINFO      2 00009332 00000001     H   38086 35155
 SHOWIPL       2 00009134 00000001     H   37423 35665
 SHOWJCB       1 00000000 000000B6     T   34731 34731
 SHOWJES       1 00000000 000000A5     T   34308 34308
 SHOWJOB       1 00000000 000000A6     T   34323 34323
 SHOWKINF      1 00000000 000000C1     T   35200 35200
 SHOWKTIM      1 00000000 0000009B     T   33948 33948  33963
 SHOWLCUR      2 000067B6 00000001     H   31152 30947  30962
 SHOWLEND      2 000068AE 00000001     H   31468 31052
 SHOWLFIR      2 00006870 00000001     H   31389 31022  31037
 SHOWLIB       2 00008BD2 00000001     H   35972 33693
 SHOWLINE      1 00000000 0000008C     T   33618 33618  33633  33648  33978
 SHOWLLAS      2 00006832 00000001     H   31310 30992  31007
 SHOWLLNO      2 000068EC 00000001     H   31547 30917  31067
 SHOWLNEX      2 000067F4 00000001     H   31231 30977
 SHOWLNO       2 000064CC 00000001     H   30673 35875
 SHOWLPR       1 00000000 000000BB     T   35080 35080
 SHOWLPRE      2 00006778 00000001     H   31073 30932
 SHOWLPRT      4 000065C0 00000001     F   30905 33144
 SHOWLRN       1 00000000 000000A3     T   34188 34188
 SHOWLTIM      1 00000000 0000009A     T   33933 33933
 SHOWMAIL      1 00000000 00000094     T   33828 33828
 SHOWMAST      1 00000000 00000098     T   33903 33903
 SHOWMDEV      1 00000000 000000C4     T   35350 35350
 SHOWMIL       1 00000000 000000C3     T   35320 35320  35335  35410  35425  35485  35500  35515  35545  35560  35575
                                                 35590
 SHOWMINF      1 00000000 000000C0     T   35170 35170
 SHOWMON       1 00000000 000000A9     T   34383 34383
 SHOWMSG       2 0000D560 00000001     H   55179 35680  35695  35725  35740  35770  35785  35815  35830
1MODE     (MODE4072) (12:48) (15MAR04) Ordinary Symbol and Literal Cross Reference                                          Page  238
 SHOWMST       1 00000000 00000082     T   33363 33363
 SHOWMVER      1 00000000 000000B2     T   34671 34671
 SHOWNAME      1 00000000 00000084     T   33408 33408  33423
 SHOWNET       1 00000000 0000008E     T   33678 33678  35845
 SHOWNEWS      1 00000000 00000093     T   33813 33813
 SHOWNOTM      1 00000000 000000C9     T   35530 35530
 SHOWOPTS      2 00005930 00000001     H   27324 33228
 SHOWORV       2 00006B5C 00000001     H   32382 34520
 SHOWOUT       1 00000000 000000A7     T   34338 34338
 SHOWPORT      1 00000000 000000CE     T   35860 35860
 SHOWPREF      2 00008C1E 00000001     H   36076 33438
 SHOWPRIV      1 00000000 0000009C     T   33993 33993
 SHOWPROJ      1 00000000 0000009D     T   34038 34038  34053  34550
 SHOWPRT       4 00006FA8 00000001     F   33201 33141
 SHOWPRTL      4 000082B8 00000001     F   35038 33139
 SHOWQRY       1 00000000 0000008A     T   33588 33588
 SHOWSAM       1 00000000 0000009E     T   34068 34068
 SHOWSCOS      1 00000000 000000CC     T   35635 35635
 SHOWSCS       1 00000000 000000CD     T   35650 35650
 SHOWSMF       1 00000000 00000099     T   33918 33918
 SHOWSPCE      1 00000000 00000091     T   33753 33753
 SHOWSYM       1 00000000 000000B5     T   34716 34716
 SHOWSYS       1 00000000 000000C7     T   35395 35395
 SHOWTABS      1 00000000 000000C2     T   35245 35245
 SHOWTERM      1 00000000 000000BA     T   35065 35065
 SHOWTIME      1 00000000 000000BE     T   35125 35125
 SHOWTRKS      1 00000000 00000092     T   33768 33768
 SHOWUMSG      4 0000D65A 00000001     I   55531 55346B
 SHOWUSRS      1 00000000 00000087     T   33543 33543
 SHOWVAL       1 00000000 0000009F     T   34083 34083  34098
 SHOWVARS      1 00000000 000000A0     T   34113 34113  34128  34143
 SHOWVERS      1 00000000 000000B1     T   34656 34656
 SHOWVIEW      1 00000000 000000BC     T   35095 35095
 SHOWVOLS      2 0000D402 00000001     H   54649 33783  33798
 SHOWVOPT      1 00000000 000000AB     T   34413 34413
 SHOWVSES      1 00000000 000000AA     T   34398 34398
 SHOWWBUF      2 0000C95A 00000001     H   52484 34866
 SHOWWCAP      2 0000A87C 00000001     H   43695 35230
 SHOWWCH       1 00000000 000000AC     T   34428 34428
 SHOWWCIN      1 00000000 000000AE     T   34458 34458
 SHOWWCTR      1 00000000 000000AD     T   34443 34443
 SHOWWFAC      2 0000B428 00000001     H   46654 34806
 SHOWWFD       2 0000B604 00000001     H   47079 34821  47735
 SHOWWFPA      2 0000B7D0 00000001     H   47575 34836
 SHOWWINF      2 000093E6 00000001     H   38342 35185
 SHOWWLIN      1 00000000 000000B3     T   34686 34686
 SHOWWLNS      1 00000000 000000B4     T   34701 34701
 SHOWWLOG      1 00000000 000000B8     T   34776 34776
 SHOWWLRA      2 0000CBFC 00000001     H   52633 34941
 SHOWWMAC      2 0000B218 00000001     H   46119 34791
 SHOWWMAI      2 0000AB44 00000001     H   44416 35215
 SHOWWMON      1 00000000 000000B7     T   34746 34746
 SHOWWNET      1 00000000 000000C6     T   35380 35380
 SHOWWORD      2 0000D9C0 00000001     H   56686 34626
 SHOWWPAT      1 00000000 000000C5     T   35365 35365
 SHOWWPGS      2 0000C2E0 00000001     H   50455 34881
 SHOWWPRJ      1 00000000 000000B0     T   34581 34581
 SHOWWSL       2 0000CD28 00000001     H   53026 34926
 SHOWWVOL      2 0000D1F0 00000001     H   54433 34641
1MODE     (MODE4072) (12:48) (15MAR04) Ordinary Symbol and Literal Cross Reference                                          Page  239
 SHOWWYLP      2 0000C728 00000001     H   51870 34896  34911
 SHPBLOAD      1 00000000 00000097     T   33888 33888
 SHSTART       2 00008FA2 00000001     H   36920 36783
 SHXLOAD       1 00000000 00000096     T   33858 33858
 SKIPCH        2 00000000 FFFFFFD5     C   13465 13573  13580  13685
 SKIPWA        2 00000000 FFFFFFD5     J   13472 13493  13522U 13710  13712  13713
 SNOXDUMP      2 0000140C 00000001     H   15942 19034
 SNOXQT        2 00001478 00000001     H   16095 19064
 SPR          13 0000000D 00000001 A   #    1116 11064  11067  11068  11069M 11069  11301M 11305  11307  11322  11325
                                                 11326  11327M 11327  11369M 11373  11375  11390  11393  11394  11395M
                                                 11395  11508M 11512  11514  11529  11532  11533  11534M 11534  11648M
                                                 11652  11654  11669  11672  11673  11674M 11674  11850M 11854  11856
                                                 11871  11874  11875  11876M 11876  11931M 11935  11937  11952  11955
                                                 11956  11957M 11957  11993M 11997  11999  12014  12017  12018  12019M
                                                 12019  12061M 12065  12067  12082  12085  12086  12087M 12087  12128M
                                                 12132  12134  12149  12152  12153  12154M 12154  12213M 12217  12219
                                                 12234  12237  12238  12239M 12239  12374M 12378  12380  12395  12398
                                                 12399  12400M 12400  12521M 12525  12527  12542  12545  12546  12547M
                                                 12547  12634M 12638  12640  12655  12658  12659  12660M 12660  12772M
                                                 12776  12778  12794  12797  12798  12799M 12799  12898M 12902  12904
                                                 12919  12922  12923  12924M 12924  12961M 12965  12967  12982  12985
                                                 12986  12987M 12987  13024M 13028  13030  13045  13048  13049  13050M
                                                 13050  13122M 13126  13128  13199  13202  13204  13205M 13205  13446M
                                                 13450  13452  13487  13490  13492  13493M 13493  13706M 13710  13712
                                                 13728  13731  13732  13733M 13733  13772M 13776  13778  13793  13796
                                                 13797  13798M 13798  13973M 13977  13979  13994  13997  13998  13999M
                                                 13999  14385M 14389  14391  14406  14409  14410  14411M 14411  14483M
                                                 14487  14489  14504  14507  14508  14509M 14509  14568M 14572  14574
                                                 14589  14592  14593  14594M 14594  14670M 14674  14676  14691  14694
                                                 14695  14696M 14696  14737M 14741  14743  14806  14809  14810  14811M
                                                 14811  14909M 14913  14915  14930  14933  14934  14935M 14935  14971M
                                                 14975  14977  14996  14999  15000  15001M 15001  15073M 15077  15079
                                                 15094  15097  15098  15099M 15099  15140M 15144  15146  15161  15164
                                                 15165  15166M 15166  15206M 15210  15212  15314  15317  15318  15319M
                                                 15319  15391M 15395  15397  15412  15415  15416  15417M 15417  15457M
                                                 15461  15463  15478  15481  15482  15483M 15483  15524M 15528  15530
                                                 15614  15617  15618  15619M 15619  15847M 15851  15853  15872  15875
                                                 15876  15877M 15877  15924M 15928  15930  15948  15951  15952  15953M
                                                 15953  16001M 16005  16007  16025  16028  16029  16030M 16030  16077M
                                                 16081  16083  16101  16104  16105  16106M 16106  16154M 16158  16160
                                                 16180  16183  16184  16185M 16185  16224M 16228  16230  16252  16255
                                                 16256  16257M 16257  16426M 16430  16432  16461  16464  16465  16466M
                                                 16466  17057M 17061  17063  17079  17082  17083  17084M 17084  17157M
                                                 17161  17163  17178  17181  17182  17183M 17183  17330M 17334  17336
                                                 17356  17359  17360  17361M 17361  17596M 17600  17602  20288  20291
                                                 20292  20293M 20293  20333M 20337  20339  20354  20357  20358  20359M
                                                 20359  20400M 20404  20406  20421  20424  20425  20426M 20426  20484M
                                                 20488  20490  20505  20508  20509  20510M 20510  20569M 20573  20575
                                                 20590  20593  20594  20595M 20595  20635M 20639  20641  20656  20659
                                                 20660  20661M 20661  20720M 20724  20726  20741  20744  20745  20746M
                                                 20746  20789M 20793  20795  21246  21249  21250  21251M 21251  21308M
                                                 21312  21314  21350  21353  21354  21355M 21355  21499M 21503  21505
                                                 22025  22028  22029  22030M 22030  22072M 22076  22078  22093  22096
                                                 22097  22098M 22098  22137M 22141  22143  22161  22164  22165  22166M
                                                 22166  22649M 22653  22655  22706  22709  22711  22712M 22712  22966M
                                                 22970  22972  23151  23154  23155  23156M 23156  23221M 23225  23227
                                                 23281  23284  23286  23287M 23287  23431M 23435  23437  23528  23531
                                                 23532  23533M 23533  23598M 23602  23604  23663  23666  23668  23669M
                                                 23669  23831M 23835  23837  23977  23980  23981  23982M 23982  24047M
1MODE     (MODE4072) (12:48) (15MAR04) Ordinary Symbol and Literal Cross Reference                                          Page  240
                                                 24051  24053  24080  24083  24084  24085M 24085  24199M 24203  24205
                                                 24279  24282  24283  24284M 24284  24448M 24452  24454  24510  24513
                                                 24515  24516M 24516  24712M 24716  24718  24846  24849  24850  24851M
                                                 24851  24916M 24920  24922  24981  24984  24986  24987M 24987  25154M
                                                 25158  25160  25261  25264  25265  25266M 25266  25331M 25335  25337
                                                 25391  25394  25395  25396M 25396  25522M 25526  25528  25546  25549
                                                 25550  25551M 25551  25677M 25681  25683  25701  25704  25705  25706M
                                                 25706  25832M 25836  25838  25856  25859  25860  25861M 25861  25999M
                                                 26003  26005  26023  26026  26027  26028M 26028  26166M 26170  26172
                                                 26190  26193  26194  26195M 26195  26324M 26328  26330  26348  26351
                                                 26352  26353M 26353  26482M 26486  26488  26506  26509  26510  26511M
                                                 26511  26638M 26642  26644  26666  26669  26670  26671M 26671  26798M
                                                 26802  26804  26822  26825  26826  26827M 26827  26956M 26960  26962
                                                 26980  26983  26984  26985M 26985  27110M 27114  27116  27134  27137
                                                 27138  27139M 27139  27267M 27271  27273  27331  27334  27336  27337M
                                                 27337  29047M 29051  29053  29189  29192  29193  29194M 29194  29237M
                                                 29241  29243  29258  29261  29262  29263M 29263  29839M 29843  29845
                                                 29864  29867  29868  29869M 29869  29990M 29994  29996  30015  30018
                                                 30019  30020M 30020  30121M 30125  30127  30152  30155  30156  30157M
                                                 30157  30273M 30277  30279  30299  30302  30303  30304M 30304  30544M
                                                 30548  30550  30565  30568  30569  30570M 30570  30654M 30658  30660
                                                 30679  30682  30683  30684M 30684  30890M 30894  30896  31079  31082
                                                 31083  31084M 31084  31137M 31141  31143  31158  31161  31162  31163M
                                                 31163  31216M 31220  31222  31237  31240  31241  31242M 31242  31295M
                                                 31299  31301  31316  31319  31320  31321M 31321  31374M 31378  31380
                                                 31395  31398  31399  31400M 31400  31453M 31457  31459  31474  31477
                                                 31478  31479M 31479  31532M 31536  31538  31553  31556  31557  31558M
                                                 31558  31611M 31615  31617  31634  31637  31638  31639M 31639  31725M
                                                 31729  31731  31746  31749  31750  31751M 31751  31836M 31840  31842
                                                 31858  31861  31862  31863M 31863  32043M 32047  32049  32065  32068
                                                 32069  32070M 32070  32203M 32207  32209  32224  32227  32228  32229M
                                                 32229  32367M 32371  32373  32388  32391  32392  32393M 32393  32545M
                                                 32549  32551  32566  32569  32570  32571M 32571  32709M 32713  32715
                                                 32730  32733  32734  32735M 32735  32873M 32877  32879  32894  32897
                                                 32898  32899M 32899  32973M 32977  32979  32994  32997  32998  32999M
                                                 32999  33101M 33105  33107  35907  35910  35911  35912M 35912  35953M
                                                 35957  35959  35978  35981  35982  35983M 35983  36056M 36060  36062
                                                 36082  36085  36086  36087M 36087  36521M 36525  36527  36575  36578
                                                 36579  36580M 36580  36713M 36717  36719  36840  36843  36844  36845M
                                                 36845  36905M 36909  36911  36926  36929  36930  36931M 36931  36968M
                                                 36972  36974  36996  36999  37000  37001M 37001  37372M 37376  37378
                                                 37429  37432  37433  37434M 37434  38016M 38020  38022  38092  38095
                                                 38096  38097M 38097  38275M 38279  38281  38348  38351  38352  38353M
                                                 38353  38435M 38439  38441  38502  38505  38506  38507M 38507  38544M
                                                 38548  38550  38591  38594  38595  38596M 38596  42677M 42681  42683
                                                 42802  42805  42806  42807M 42807  43641M 43645  43647  43701  43704
                                                 43705  43706M 43706  44248M 44252  44254  44317  44320  44321  44322M
                                                 44322  44389M 44393  44395  44422  44425  44426  44427M 44427  45083M
                                                 45087  45089  45158  45161  45162  45163M 45163  45258M 45262  45264
                                                 45283  45286  45287  45288M 45288  45382M 45386  45388  45407  45410
                                                 45411  45412M 45412  45486M 45490  45492  45513  45516  45517  45518M
                                                 45518  45613M 45617  45619  45638  45641  45642  45643M 45643  45738M
                                                 45742  45744  45821  45824  45826  45827M 45827  45940M 45944  45946
                                                 46125  46128  46129  46130M 46130  46480M 46484  46486  46536  46539
                                                 46540  46541M 46541  46635M 46639  46641  46660  46663  46664  46665M
                                                 46665  46778M 46782  46784  46803  46806  46807  46808M 46808  46911M
                                                 46915  46917  47014  47017  47018  47019M 47019  47060M 47064  47066
                                                 47085  47088  47089  47090M 47090  47253M 47257  47259  47278  47281
                                                 47282  47283M 47283  47381M 47385  47387  47434  47437  47438  47439M
1MODE     (MODE4072) (12:48) (15MAR04) Ordinary Symbol and Literal Cross Reference                                          Page  241
                                                 47439  47474M 47478  47480  47495  47498  47499  47500M 47500  47555M
                                                 47559  47561  47581  47584  47585  47586M 47586  47706M 47710  47712
                                                 47769  47772  47773  47774M 47774  47839M 47843  47845  47867  47870
                                                 47871  47872M 47872  47938M 47942  47944  48012  48015  48017  48018M
                                                 48018  49499M 49503  49505  49789  49792  49793  49794M 49794  49829M
                                                 49833  49835  49850  49853  49854  49855M 49855  49890M 49894  49896
                                                 49911  49914  49915  49916M 49916  49951M 49955  49957  49972  49975
                                                 49976  49977M 49977  50012M 50016  50018  50033  50036  50037  50038M
                                                 50038  50079M 50083  50085  50100  50103  50104  50105M 50105  50140M
                                                 50144  50146  50161  50164  50165  50166M 50166  50201M 50205  50207
                                                 50222  50225  50226  50227M 50227  50262M 50266  50268  50283  50286
                                                 50287  50288M 50288  50323M 50327  50329  50344  50347  50348  50349M
                                                 50349  50384M 50388  50390  50461  50464  50465  50466M 50466  51851M
                                                 51855  51857  51876  51879  51880  51881M 51881  52108M 52112  52114
                                                 52170  52173  52174  52175M 52175  52267M 52271  52273  52296  52299
                                                 52300  52301M 52301  52465M 52469  52471  52490  52493  52494  52495M
                                                 52495  52541M 52545  52547  52639  52642  52643  52644M 52644  52913M
                                                 52917  52919  52940  52943  52944  52945M 52945  53007M 53011  53013
                                                 53032  53035  53036  53037M 53037  53100M 53104  53106  53125  53128
                                                 53129  53130M 53130  53255M 53259  53261  53301  53304  53306  53307M
                                                 53307  53605M 53609  53611  53708  53711  53712  53713M 53713  53811M
                                                 53815  53817  53832  53835  53836  53837M 53837  53882M 53886  53888
                                                 53903  53906  53907  53908M 53908  53953M 53957  53959  53974  53977
                                                 53978  53979M 53979  54129M 54133  54135  54163  54166  54167  54168M
                                                 54168  54231M 54235  54237  54256  54259  54260  54261M 54261  54414M
                                                 54418  54420  54439  54442  54443  54444M 54444  54572M 54576  54578
                                                 54655  54658  54659  54660M 54660  54699M 54703  54705  54724  54727
                                                 54728  54729M 54729  55160M 55164  55166  55185  55188  55189  55190M
                                                 55190  55661M 55665  55667  55716  55719  55721  55722M 55722  56215M
                                                 56219  56221  56306  56309  56310  56311M 56311  56488M 56492  56494
                                                 56516  56519  56520  56521M 56521  56667M 56671  56673  56692  56695
                                                 56696  56697M 56697  56930M 56934  56936  57086  57089  57091  57092M
                                                 57092  57472M 57476  57478  57493  57496  57497  57498M 57498  57723M
                                                 57727  57729  57763  57766  57767  57768M 57768  57934M 57938  57940
                                                 57955  57958  57959  57960M 57960  58191M 58195  58197  58225  58228
                                                 58229  58230M 58230  58766M 58770  58772
 SRTEASCI      1 00000004 FFFFFFE8 A   U    4260  4261
 SRTEBSTR      1 00000004 FFFFFFE8 A   U    4259  4262
 STEXEPSH      1 00000000 0000004D     T   20156 20156
 STLPATH       2 00001030 00000001     H   15155 15248
 STMODE        2 00000D00 00000001     H   14400 18237
 STMODPRT      4 00003814 00000001     F   20915 15283
 STNOLPAT      2 00001004 00000001     H   15088 15233
 STNOSPI       2 00001218 00000001     H   15406 15551
 STNOWA        2 00000E40 00000001     H   14685 21216
 STRTRY        2 00000D84 00000001     H   14498 20927
 STSPI         2 00001244 00000001     H   15472 15566
 STWARN        2 00000DB8 00000001     H   14583 21201
 SWFDNULL      2 0000B5D0 00000001     H   47008 46937
 SWFDPRT       4 0000B530 00000001     F   46925 47732
 SWFPNAME      2 0000B796 00000001     H   47489 47422
 SWFPNULL      2 0000B768 00000001     H   47428 47407
 SWFPPRT       4 0000B718 00000001     F   47395 47736
 SWORDPRT      4 0000DAB0 00000001     F   56945 57034
 SWYLPLIN      2 0000C86C 00000001     H   52164 52142
 SWYLPPRT      4 0000C81C 00000001     F   52130 52575
 SXDUMP        2 000013D6 00000001     H   15866 19019
 SXQUIET       2 00001442 00000001     H   16019 19049
 TAGBKUP       2 0000DD38 00000001     H   57487 58806
1MODE     (MODE4072) (12:48) (15MAR04) Ordinary Symbol and Literal Cross Reference                                          Page  242
 TAGBKUPX      2 0000DDCE 00000001     H   57715 57611B
 TAPE          1 00000000 0000002C     T   18447 18447  34505
 TBREAK        1 00000000 000000E9     T   57033 57033
 TERMDISP      1 00000000 0000006E     T   29135 29135
 TRC           1 00000000 00000000 A   T    6205  6205
 TSTAT         1 00000000 000000DF     T   50432 50432
 TTYFLAG       1 00000004 FFFFFFDB     R   10293 10297
 TTYMAX#       1 00000006 FFFFFFDB A   U   10349 10350
 TTYTFLAG      1 00000005 FFFFFFDB     R   10303 10307  10312  10317  10322  10327  10332  10337
 UCBALOC       1 00000008 FFFFFFE8 A   U    3802  3989
 UCBBALB       1 00000020 FFFFFFE8 A   U    4175  4256
 UCBBNUL       1 00000001 FFFFFFE8 A   U    4184  4263
 UCBBPRV       1 00000010 FFFFFFE8 A   U    4177  4257
 UCBBPUB       1 00000008 FFFFFFE8 A   U    4178  4258
 UCBBSTR       1 00000004 FFFFFFE8 A   U    4179  4259   4260
 UCBBSVL       1 00000080 FFFFFFE8 A   U    4161  4255
 UCBCHAN       2 00000004 FFFFFFE8     G    3823 37709
 UCBCHGS       1 00000040 FFFFFFE8 A   U    3792  3986
 UCBDADI       1 00000001 FFFFFFE8 A   U    3816  3992
 UCBDEV        1 00000018 FFFFFFE8     U    4000  4156   4382   4542   4558   4766   4788   4880   4910
 UCBDMCT       1 00000023 FFFFFFE8     X    4193  4264
 UCBDSECT      1 00000000 FFFFFFE8     J    3300  4155   4381   4541   4765   4879   4909
 UCBFLA        1 00000006 FFFFFFE8     B    3828  3829
 UCBFL1        1 00000006 FFFFFFE8     U    3829  3993
 UCBFSCT       2 00000018 FFFFFFE8     H    4383  4387
 UCBFSEQ       2 0000001A FFFFFFE8     H    4384  4388
 UCBJBNR       1 00000000 FFFFFFE8     B    3723  3982
 UCBMONT       1 00000001 FFFFFFE8 A   U    3744  3983
 UCBNRY        1 00000040 FFFFFFE8 A   U    3833  3834
 UCBOB         4 00000000 FFFFFFE8     F    3717 37635U
 UCBONLI       1 00000080 FFFFFFE8 A   U    3791  3985
 UCBPRES       1 00000004 FFFFFFE8 A   U    3812  3990
 UCBRESV       1 00000020 FFFFFFE8 A   U    3797  3987
 UCBSTAB       1 00000022 FFFFFFE8     B    4160  4254
 UCBSTAT       1 00000003 FFFFFFE8     B    3790  3984
 UCBSYSR       1 00000002 FFFFFFE8 A   U    3814  3991
 UCBTR         1 00000034 FFFFFFE8     G    4456  4458
 UCBUNLD       1 00000010 FFFFFFE8 A   U    3799  3988
 UCBUSER       2 00000026 FFFFFFE8     G    4234  4235
 UCBVOLI       6 0000001C FFFFFFE8     C    4159  4253  37665
 UPDCPSIB      1 00000000 00000006     T   13148 13148  25361
 UPDWORD       2 0000D8EC 00000001     H   56300 57030
 UPPTBL        1 00000000 00000000 A   T    6268  6268
 USEBLOCK      1 0000000F FFFFFFEE     X    1189 48450
 USEHSPFL      1 00000004 FFFFFFEE     X    1161 56449M
 USEIPLTM      8 0000001C FFFFFFEE     X    1193 37539  37581
 USERCVT     863 00000000 FFFFFFEE     J    1233 37515U 37530  48439U 56398U 56413
 USEWORD       8 00000074 FFFFFFEE     X    1216 56426M
 UTAGBKPX      2 0000DF26 00000001     H   58183 58073B
 UTAGBKUP      2 0000DE92 00000001     H   57949 58808
 VFLG1         1 00000008 FFFFFFD7     X   10994 58353  58409
 VFLG3         1 0000000A FFFFFFD7     X   11012 57631  57643M 58093  58106M 58313  58366
 VF1AVAIL      1 00000040 FFFFFFD7 A   U   10997 58407
 VF1PRIV       1 00000020 FFFFFFD7 A   U   10998 58351
 VF3BKUP       1 00000040 FFFFFFD7 A   U   11015 57629  57641  58091  58104  58311
 VF3SHOW       1 00000080 FFFFFFD7 A   U   11014 58364
 VMODEPRT      4 00001270 00000001     F   15539 15590
 VNAME         6 00000002 FFFFFFD7     C   10992 57545  58007  58519  58524
 VOLDSECT      1 00000000 FFFFFFD7     J   10990 11043  57530U 57563  57992U 58025  58282U 58297
1MODE     (MODE4072) (12:48) (15MAR04) Ordinary Symbol and Literal Cross Reference                                          Page  243
 VOLENTSZ      1 00000044 FFFFFFD7 A   U   11043 57551  58013  58649
 VOLONTIM      5 0000000B FFFFFFD7     C   11017 57644M 58113M 58113  58547M 58547  58581  58586
 VOLOPNS       2 00000010 FFFFFFD7     H   11020 11027  11027
 VOLOWNF1      1 00000030 FFFFFFD7     X   11038 11042  11042
 VOLSHOW       2 00006AE6 00000001     H   32218 33393
 VOLUCBAD      4 00000024 FFFFFFD7     A   11031 58332M 58332
 WACCFSYSA
             128 00000000 FFFFFFCE        45763 45969M
 WACCFSYSB
              64 00000000 FFFFFFCE        45768 45988M
 WACCFSYSC
              32 00000000 FFFFFFCE        45773 46007M
 WACCFSYSD
              16 00000000 FFFFFFCE        45778 46026M
 WACCFSYSE
               8 00000000 FFFFFFCE        45783 46045M
 WACCFSYSF
               4 00000000 FFFFFFCE        45788 46064M
 WACCFSYSG
               2 00000000 FFFFFFCE        45793 46083M
 WACCMACH      1 00000000 FFFFFFCE     R   45759 45763  45768  45773  45778  45783  45788  45793  45916
 WACCPRT       4 0000B0D8 00000001     F   45955 46499
 WACCWA        1 00000000 FFFFFFCE     J   45802 45827  45856U 45860  45868U 45876M 45944  45946  45947
 WAITER        1 00000000 000000DE     T   50431 50431  54599
 WAR           8 00000008 00000001 A   #    1039 11068M 11301  11326M 11369  11394M 11508  11533M 11648  11673M 11850
                                                 11875M 11931  11956M 11993  12018M 12061  12086M 12128  12153M 12213
                                                 12238M 12374  12399M 12521  12546M 12634  12659M 12772  12798M 12898
                                                 12923M 12950  12961  12986M 13013  13024  13049M 13122  13204M 13446
                                                 13492M 13706  13732M 13772  13797M 13973  13998M 14385  14410M 14483
                                                 14508M 14568  14593M 14670  14695M 14737  14810M 14909  14934M 14971
                                                 15000M 15073  15098M 15140  15165M 15206  15318M 15391  15416M 15457
                                                 15482M 15524  15618M 15847  15876M 15924  15952M 16001  16029M 16077
                                                 16105M 16154  16184M 16224  16256M 16426  16465M 17057  17083M 17157
                                                 17182M 17330  17360M 17596  20292M 20333  20358M 20400  20425M 20484
                                                 20509M 20569  20594M 20635  20660M 20720  20745M 20789  21250M 21308
                                                 21354M 21499  22029M 22072  22097M 22137  22165M 22649  22711M 22966
                                                 23155M 23221  23286M 23431  23532M 23598  23668M 23831  23981M 24047
                                                 24084M 24199  24283M 24448  24515M 24712  24850M 24916  24986M 25154
                                                 25265M 25331  25395M 25522  25550M 25677  25705M 25832  25860M 25999
                                                 26027M 26166  26194M 26324  26352M 26482  26510M 26638  26670M 26798
                                                 26826M 26956  26984M 27110  27138M 27267  27336M 29047  29193M 29237
                                                 29262M 29839  29868M 29990  30019M 30121  30156M 30273  30303M 30544
                                                 30569M 30654  30683M 30890  31083M 31137  31162M 31216  31241M 31295
                                                 31320M 31374  31399M 31453  31478M 31532  31557M 31611  31638M 31725
                                                 31750M 31836  31862M 32043  32069M 32203  32228M 32367  32392M 32545
                                                 32570M 32709  32734M 32873  32898M 32973  32998M 33101  35911M 35953
                                                 35982M 36056  36086M 36521  36579M 36713  36844M 36894  36905  36930M
                                                 36957  36968  37000M 37372  37433M 38016  38096M 38275  38352M 38435
                                                 38506M 38533  38544  38595M 42677  42806M 43641  43705M 44248  44321M
                                                 44389  44426M 45083  45162M 45258  45287M 45382  45411M 45486  45517M
                                                 45613  45642M 45738  45826M 45940  46129M 46480  46540M 46635  46664M
                                                 46778  46807M 46911  47018M 47060  47089M 47253  47282M 47381  47438M
                                                 47474  47499M 47555  47585M 47706  47773M 47839  47871M 47938  48017M
                                                 49499  49793M 49829  49854M 49890  49915M 49951  49976M 50012  50037M
                                                 50079  50104M 50140  50165M 50201  50226M 50262  50287M 50323  50348M
                                                 50384  50465M 51851  51880M 52108  52174M 52252  52267  52300M 52465
                                                 52494M 52541  52643M 52913  52944M 53007  53036M 53100  53129M 53255
                                                 53306M 53605  53712M 53796  53811  53836M 53867  53882  53907M 53938
                                                 53953  53978M 54114  54129  54167M 54231  54260M 54414  54443M 54572
1MODE     (MODE4072) (12:48) (15MAR04) Ordinary Symbol and Literal Cross Reference                                          Page  244
                                                 54659M 54699  54728M 55160  55189M 55661  55721M 56215  56310M 56488
                                                 56520M 56667  56696M 56930  57091M 57472  57497M 57723  57767M 57934
                                                 57959M 58191  58229M 58766
 WARNPRT       4 00000E70 00000001     F   14752 15284
 WCAPACCT      5 0000AB2A 00000001     X   44400 43803M 43803  43837  43885  44346M
 WCAPCPU       4 0000AB40 00000001     F   44403 44021  44372M
 WCAPPRT       4 0000AA64 00000001     F   44263 45103
 WCAPRES       2 0000AADC 00000001     H   44311 44275
 WCAPSCLK      8 0000AB30 00000001     D   44401 43740M 43740  43747M 44141  44144  44373M
 WCAPTOTC      8 0000AB38 00000001     D   44402 44003  44006  44363M
 WINFALL       2 000094EC 00000001     H   38496 38460
 WINFDISP      2 00009532 00000001     H   38585 38299  38565
 WINFOPRT      4 00009474 00000001     F   38448 38562
 WINFPDIS      2 0000A55E 00000001     H   42796 42723
 WORDFLAG      1 00000000 FFFFFFCB     R   55682 55686
 WORDFSYS    128 00000000 FFFFFFCB        55686 55945M 56089  56124  56154  56242M 56262M
 WORDNAME      8 00000001 FFFFFFCB     C   55690 55929  55934  56017M 56017  56054M 56054  56137
 WORDPRT       4 0000D874 00000001     F   56228 57029
 WORDWA        9 00000000 FFFFFFCB     J   55697 55722  55751U 55755  55763U 55771M 55771  56219  56221  56222
 WPGFAUTO     32 00000000 FFFFFFCD        47977 48174M 48195  48195  48196  48196  48210  48210  48211M 48344  49537
                                                 49537  49565  49565  49584M
 WPGFLAG       1 00000000 FFFFFFCD     R   47963 47967  47972  47977
 WPGFREAL    128 00000000 FFFFFFCD        47967 48122M 48194  48194  48195  48195  48197  48505M 48546  49528M 49565
                                                 49565  49566M 49593  49593  49594M
 WPGFVIRT     64 00000000 FFFFFFCD        47972 48148M 48194  48194  48196  48196  48210  48210  48527M 49537  49537
                                                 49538M 49556M 49593  49593
 WPGHI         2 00000002 FFFFFFCD     H   47980 48217M 48586  49879M
 WPGLMAX       2 0000000A FFFFFFCD     H   47984 48221M 48590  50190M
 WPGLMIN       2 00000008 FFFFFFCD     H   47983 48220M 48589  50129M
 WPGLO         2 00000004 FFFFFFCD     H   47981 48218M 48587  49940M
 WPGMEG        2 00000006 FFFFFFCD     H   47982 48219M 48588  50001M
 WPGNEW        2 00000012 FFFFFFCD     H   47988 48225M 48269  50373M
 WPGPRT        4 0000BDBC 00000001     F   49514 50415
 WPGSECS       2 00000010 FFFFFFCD     H   47987 48224M 48593  49818M
 WPGSMAX       2 0000000E FFFFFFCD     H   47986 48223M 48592  50312M
 WPGSMIN       2 0000000C FFFFFFCD     H   47985 48222M 48591  50251M
 WPGWA        32 00000000 FFFFFFCD     J   47997 48018  48047U 48051  48059U 48067M 48067  49503  49505  49506
 WPGWORK       8 00000018 FFFFFFCD     D   47990 48799  48815  48849  49254  49270  49304
 WRNINT        2 00000F50 00000001     H   14924 14779
 WRNNOINT      2 00000EE8 00000001     H   14800 14764  14794
 WTOSG         1 00000000 00000000 A   T    6165  6165
 WYLMODE       1 00000000 00000001     J     993   995   1021   1034   1047   1059   1072   1085   1098   1111   1124
                                                  1137   1234  11046
 XHI           2 0000C040 00000001     H   49844 49626
 XLMAX         2 0000C124 00000001     H   50155 49686
 XLMIN         2 0000C0F8 00000001     H   50094 49671
 XLOW          2 0000C06C 00000001     H   49905 49641
 XMEGS         2 0000C098 00000001     H   49966 49656
 XNUM          2 0000C1A8 00000001     H   50338 49761
 XOLDERR       2 0000C0C4 00000001     H   50027 49731  49746
 XSECS         2 0000C014 00000001     H   49783 49611
 XSMAX         2 0000C17C 00000001     H   50277 49716
 XSMIN         2 0000C150 00000001     H   50216 49701
 XTB           1 00000000 000000E5     T   54617 54617
 YESREQ        1 00000000 000000DB     T   50420 50420
 =A((40960000+(384/2))/384)
               4 0000A188 00000001     A   42711 39628  39713  40091
 =A((40960000+(384/2))/384)
               4 0000AD98 00000001     A   45109 44022
1MODE     (MODE4072) (12:48) (15MAR04) Ordinary Symbol and Literal Cross Reference                                          Page  245
 =A(AUTHPRT)
               4 00001A28 00000001     A   17631 17125
 =A(BRKLGN)
               4 0000DBC0 00000001     A   57031 56193
 =A(CACT)      4 00004A14 00000001     A   24235 23808
 =A(CACT)      4 00004F9C 00000001     A   25366 24689
 =A(CACTPRT)
               4 000049F0 00000001     A   24226 22780
 =A(CACTSPRT)
               4 00004A04 00000001     A   24231 23355
 =A(CEXECPRT)
               4 00004A10 00000001     A   24234 23737
 =A(CEXECSUB)
               4 00004A00 00000001     A   24230 22943  23760
 =A(CEXECSUB)
               4 00004F98 00000001     A   25365 24664  25131
 =A(CLEARPRT)
               4 00003C58 00000001     A   21519 21468
 =A(CPFXPRT)
               4 00004F90 00000001     A   25363 24584
 =A(CURRPRT1)
               4 0000089C 00000001     A   13153 12602  12709
 =A(CVARSPRT)
               4 00004FA0 00000001     A   25367 25055
 =A(CVVOL#)
               4 00001A3C 00000001     A   17636 17535
 =A(DATEPRT)
               4 0000D34C 00000001     A   54604 53385
 =A(DOSHCOLS)
               4 0000910C 00000001     A   37400 36700
 =A(L'CPAFNAME)
               4 00001A18 00000001     A   17627 16616  16628
 =A(L'CPLIB)
               4 00000894 00000001     A   13151 12481
 =A(L'CVMSG)
               4 0000DB98 00000001     A   57021 55081  55093
 =A(L'DSNON)
               4 00001A24 00000001     A   17630 16761
 =A(LMODEPRT)
               4 00001120 00000001     A   15285 15042
 =A(MODEDISP)
               4 00005F24 00000001     A   29143 28602
 =A(MODEDISP)
               4 00006DB4 00000001     A   33124 29224
 =A(NAMEPRT)
               4 00001A08 00000001     A   17623 16383
 =A(OPTPRT)
               4 00005ED8 00000001     A   29124 27407
 =A(PRCT)      4 0000A1A0 00000001     A   42717 40360  40794  42552
 =A(PRCT)      4 0000A7FC 00000001     A   43664 43059  43109  43459
 =A(SEGPGNUM)
               4 0000CA24 00000001     A   52570 50879  51085  51402  51426
 =A(SETEXPRT)
               4 000008A4 00000001     A   13155 13091
 =A(SETIGNOR)
               4 000010EC 00000001     A   15276 13320  13428  13608  13688  13760
 =A(SETPFXNS)
               4 00001A14 00000001     A   17626 16413
 =A(SETPRT)
1MODE     (MODE4072) (12:48) (15MAR04) Ordinary Symbol and Literal Cross Reference                                          Page  246
               4 00000880 00000001     A   13146 11266
 =A(SETPRTL)
               4 00000878 00000001     A   13144 11212
 =A(SHCOLPRT)
               4 00009100 00000001     A   37397 36629
 =A(SHOW)      4 00006DE0 00000001     A   33135 30260
 =A(SHOWLPRT)
               4 00006E14 00000001     A   33144 30819
 =A(SHOWPRT)
               4 00006DF8 00000001     A   33141 30508
 =A(SHOWPRTL)
               4 00006DF0 00000001     A   33139 30454
 =A(SHOWWFD)
               4 0000B868 00000001     A   47735 46897
 =A(STMODPRT)
               4 00001118 00000001     A   15283 14452
 =A(SWFDPRT)
               4 0000B85C 00000001     A   47732 46874
 =A(SWFPPRT)
               4 0000B86C 00000001     A   47736 47349
 =A(SWORDPRT)
               4 0000DBCC 00000001     A   57034 56768
 =A(SWYLPPRT)
               4 0000CA50 00000001     A   52575 51927
 =A(TAGBKUP)
               4 0000E0F8 00000001     A   58806 57445
 =A(UPDWORD)
               4 0000DBBC 00000001     A   57030 56173
 =A(UTAGBKUP)
               4 0000E100 00000001     A   58808 57916
 =A(VMODEPRT)
               4 000012E8 00000001     A   15590 15360
 =A(WACCPRT)
               4 0000B32C 00000001     A   46499 45895
 =A(WARNPRT)
               4 0000111C 00000001     A   15284 14636
 =A(WCAPPRT)
               4 0000AD80 00000001     A   45103 43770
 =A(WINFDISP)
               4 000093DC 00000001     A   38299 38230
 =A(WINFDISP)
               4 0000952C 00000001     A   38565 38422
 =A(WINFOPRT)
               4 00009520 00000001     A   38562 38398
 =A(WINFPDIS)
               4 0000A1F0 00000001     A   42723 42663
 =A(WORDPRT)
               4 0000DBB8 00000001     A   57029 55963
 =A(WPGPRT)
               4 0000C20C 00000001     A   50415 48246
 =A(1)         4 000010F0 00000001     A   15277 13338  13626
 =A(1)         4 00001A1C 00000001     A   17628 16713  16745  16749  16844
 =A(1)         4 0000A17C 00000001     A   42708 39082
 =A(1)         4 0000ADB0 00000001     A   45115 44166
 =A(1)         4 0000CA60 00000001     A   52579 52416
 =A(1)         4 0000D358 00000001     A   54607 53417
 =A(1)         4 0000E108 00000001     A   58810 58648
 =A(100)       4 0000A19C 00000001     A   42716 40146
 =A(1000)      4 0000AD9C 00000001     A   45110 44038
1MODE     (MODE4072) (12:48) (15MAR04) Ordinary Symbol and Literal Cross Reference                                          Page  247
 =A(1000)      4 0000D340 00000001     A   54601 53175
 =A(10000*60*60)
               4 0000ADA8 00000001     A   45113 44146
 =A(10000*60*60/2)
               4 0000A178 00000001     A   42707 39073
 =A(10000*60*60/2)
               4 0000ADAC 00000001     A   45114 44157
 =A(100000*60*60)
               4 0000A174 00000001     A   42706 39062
 =A(11*$1HOUR)
               4 0000D378 00000001     A   54615 53935
 =A(14*$1HOUR)
               4 0000D36C 00000001     A   54612 53767
 =A(15*$1HOUR)
               4 0000D370 00000001     A   54613 53784
 =A(16)        4 0000D37C 00000001     A   54616 54014
 =A(235)       4 00006E1C 00000001     A   33146 32110
 =A(235)       4 00009114 00000001     A   37402 37072  37084
 =A(3*$1HOUR)
               4 0000D374 00000001     A   54614 53864
 =A(4)         4 00006DD0 00000001     A   33131 30208  30845
 =A(4)         4 0000C228 00000001     A   50422 48493
 =A(4000)      4 0000C218 00000001     A   50418 48281
 =A(50*1000)
               4 0000B84C 00000001     A   47728 46599
 =A(6)         4 00001A2C 00000001     A   17632 17224
 =A(8)         4 00001110 00000001     A   15281 14213
 =A(8)         4 00001A30 00000001     A   17633 17238
 =A(9)         4 00009120 00000001     A   37405 37243  37255
 =AL2((CVPSZ+4095)/4096*4)
               2 0000A292 00000001     R   42737 41830
 =AL2((CVPSZ+4095)/4096*4)
               2 0000CAD2 00000001     R   52592 52328
 =AL2(L'JCB)
               2 0000CAD0 00000001     R   52591 52223
 =C'          SRB CPU time = '
              25 0000A3BC 00000001     C   42757 39776
 =C'   (Back online by'
              18 0000E110 00000001     C   58813 58557
 =C'   Task Total CPU time = '
              25 0000A3A3 00000001     C   42756 39691
 =C'  (average for '
              15 0000AE2D 00000001     C   45130 44124
 =C'  page I/O''s per second ('
              25 0000A445 00000001     C   42764 40843
 =C'  ACCOUNT='
              10 00005F52 00000001     C   29152 27913
 =C'  LIBRARY='
              10 00005F5C 00000001     C   29153 28216
 =C' ('        2 00009316 00000001     C   38063 37942
 =C' ('        2 0000A27A 00000001     C   42735 41012
 =C' ('        2 0000A81A 00000001     C   43670 43320
 =C' ('        2 0000CA70 00000001     C   52583 50533
 =C' (choices: REAL, VIRTUAL, AUTO)'
              31 0000CB07 00000001     C   52598 50793
 =C' (network)'
              10 00008D84 00000001     C   36550 36458
 =C' (running for '
              14 0000A21A 00000001     C   42727 39036
1MODE     (MODE4072) (12:48) (15MAR04) Ordinary Symbol and Literal Cross Reference                                          Page  248
 =C' (samson)'
               9 00008D9F 00000001     C   36554 36419
 =C' (Nosys)'
               8 0000DB78 00000001     C   57014 56892
 =C' (Password)'
              11 00005F86 00000001     C   29159 28022
 =C' - rescan count'
              15 00006F78 00000001     C   33187 32948
 =C' - skip character.'
              18 00006EB8 00000001     C   33166 32844
 =C' - LENGTH'
               9 00006F53 00000001     C   33184 32174
 =C' - Orvyl modes'
              14 00006E5E 00000001     C   33157 30108
 =C' '         1 0000E1EA 00000001     C   58820 58734
 =C' accounting'
              11 0000A51D 00000001     C   42778 42354
 =C' are below the 16M line)'
              24 0000C9A0 00000001     C   52560 50572
 =C' at '      4 0000CA28 00000001     C   52571 51091
 =C' buffers)'
               9 0000A4EF 00000001     C   42774 41900
 =C' buffers'
               8 0000C1D8 00000001     C   50410 48676  49022  49078  49481
 =C' capture ratio is '
              18 0000ADCA 00000001     C   45122 43960
 =C' checkpoint '
              12 0000A1E4 00000001     C   42722 42534
 =C' checkpoint I/O''s'
              17 0000A528 00000001     C   42779 42412
 =C' commands total, '
              17 0000A3FF 00000001     C   42760 40302
 =C' connections, '
              14 0000A23A 00000001     C   42729 39475
 =C' cur'      4 0000A80C 00000001     C   43668 43576
 =C' current depth)'
              15 0000A4D3 00000001     C   42772 41768
 =C' disk I/O''s, '
              13 0000A4F8 00000001     C   42775 42192
 =C' dispatcher, '
              13 0000A410 00000001     C   42761 40476
 =C' dispatches, '
              13 0000A46F 00000001     C   42768 41388
 =C' exec '
               6 0000A25E 00000001     C   42733 40342
 =C' failsoft recoveries ('
              22 0000A264 00000001     C   42734 40437
 =C' file opens ('
              13 0000A35E 00000001     C   42751 39349
 =C' hours)'
               7 0000A32C 00000001     C   42747 39138
 =C' hours)'
               7 0000AE3C 00000001     C   45131 44222
 =C' is not logged on (or not in this WYLBUR).'
              42 0000CAA0 00000001     C   52589 52036
 =C' is the maximum allowed.'
              24 0000C9E0 00000001     C   52563 51432
 =C' is the minimum allowed.'
              24 0000C9C8 00000001     C   52562 51408
1MODE     (MODE4072) (12:48) (15MAR04) Ordinary Symbol and Literal Cross Reference                                          Page  249
 =C' jobs submitted, '
              17 0000A505 00000001     C   42776 42233
 =C' mail items sent; breakdown is:'
              31 0000AE64 00000001     C   45135 44693
 =C' max run queue allowed ('
              24 0000A120 00000001     C   42697 41729
 =C' max'      4 0000A808 00000001     C   43667 43533
 =C' microseconds maximum timeslice.'
              32 0000D268 00000001     C   54590 53087
 =C' microseconds maximum timeslice'
              31 0000A4B4 00000001     C   42771 41588
 =C' on '      4 00005F1C 00000001     C   29141 28493
 =C' on '      4 00008D70 00000001     C   36546 36335
 =C' page I/O''s ('
              13 0000A539 00000001     C   42780 42494
 =C' page)'
               6 0000CAD6 00000001     C   52594 52403
 =C' pages)'
               7 0000CBF4 00000001     C   52617 52425
 =C' pages/second is too high.'
              26 0000CA84 00000001     C   52587 51384
 =C' pages/second is too low.'
              25 0000CB83 00000001     C   52606 51323
 =C' pages/second'
              13 0000CB2F 00000001     C   52600 50924
 =C' pages'
               6 0000A81C 00000001     C   43671 43490
 =C' pages'
               6 0000CACA 00000001     C   52590 52081
 =C' prints'
               7 0000A516 00000001     C   42777 42273
 =C' requests, '
              11 0000A37F 00000001     C   42754 39515
 =C' running with max ready'
              23 0000A546 00000001     C   42781 42619
 =C' seconds before checkpoint write'
              32 0000A100 00000001     C   42696 41659
 =C' seconds between adjustments.'
              29 0000CB61 00000001     C   52604 51262
 =C' subtask)'
               9 0000A41D 00000001     C   42762 40515
 =C' terminal I/O''s after max idle time'
              35 0000A47C 00000001     C   42769 41469
 =C' timeslice expirations'
              22 0000A27C 00000001     C   42736 41428
 =C' were from EMS'
              14 0000ADF4 00000001     C   45125 44784
 =C' were from WYLBUR mail'
              22 0000ADDE 00000001     C   45124 44740
 =C' were to BITNET recipients'
              26 0000AE02 00000001     C   45126 44897
 =C' were writes)'
              13 0000A36B 00000001     C   42752 39389
 =C' were DUMP MAIL commands'
              24 0000AD68 00000001     C   45102 45057
 =C' were SEND commands'
              19 0000AE83 00000001     C   45136 44828
 =C' were SHOW MAIL commands'
              24 0000AD50 00000001     C   45101 45013
1MODE     (MODE4072) (12:48) (15MAR04) Ordinary Symbol and Literal Cross Reference                                          Page  250
 =C' write)'
               7 0000A851 00000001     C   43675 43115
 =C' CPU used (single processor)'
              28 0000A1C4 00000001     C   42720 40800
 =C' I/O''s   ('
              10 0000A810 00000001     C   43669 43091
 =C' I/O''s '
               7 0000A874 00000001     C   43678 43441
 =C' I/O''s'
               6 0000A248 00000001     C   42730 39555
 =C' Mail Statistics:'
              17 0000AE48 00000001     C   45133 44488
 =C' SHOW/DUMP MAIL commands; breakdown is:'
              39 0000AE96 00000001     C   45137 44967
 =C' SMF records written, '
              22 0000A2D4 00000001     C   42742 42314
 =C' SYSA'
               5 0000B3A7 00000001     C   46509 46223
 =C' SYSB'
               5 0000B3AC 00000001     C   46510 46261
 =C' SYSC'
               5 0000B3B1 00000001     C   46511 46299
 =C' SYSD'
               5 0000B3B6 00000001     C   46512 46337
 =C' SYSF'
               5 0000B3C0 00000001     C   46514 46413
 =C' SYSG'
               5 0000B3C5 00000001     C   46515 46451
 =C' SYSH'
               5 0000B3BB 00000001     C   46513 46375
 =C' User Charged CPU time = '
              25 0000A38A 00000001     C   42755 39609
 =C'... '      4 0000AD90 00000001     C   45107 43909
 =C'....v....'
               9 0000912A 00000001     C   37408 37171  37268
 =C'.'         1 00005F84 00000001     C   29157 27471  27959
 =C'.'         1 00006F3E 00000001     C   33181 31968
 =C'.'         1 0000AE29 00000001     C   45128 43861
 =C'.'         1 0000CB60 00000001     C   52603 51148
 =C'.'         1 0000DC08 00000001     C   57043 56912
 =C'<.U+>Tuning information<.U->'
              28 0000CA30 00000001     C   52573 51223
 =C'('         1 00009322 00000001     C   38067 37689
 =C'(other)  '
               9 0000A848 00000001     C   43674 42932
 =C'(CHANGES='
               9 00006ED9 00000001     C   33170 29733
 =C'+'         1 0000D39A 00000001     C   54626 52758
 =C'*** Reload pending ***'
              22 0000A1F4 00000001     C   42724 38777
 =C'*** Rotate ***'
              14 0000A20A 00000001     C   42725 38896
 =C'*** SMF charging records turned off ***'
              39 0000A2EB 00000001     C   42744 38713
 =C'*** Tracing ***'
              15 0000A312 00000001     C   42745 38872
 =C') '        2 00006E5C 00000001     C   33156 29795
 =C'), '       3 00009323 00000001     C   38068 37758
 =C')'         1 00009330 00000001     C   38071 37991
1MODE     (MODE4072) (12:48) (15MAR04) Ordinary Symbol and Literal Cross Reference                                          Page  251
 =C')'         1 0000A45E 00000001     C   42765 40906  41060  42558
 =C')'         1 0000A873 00000001     C   43677 43368
 =C')'         1 0000E1E9 00000001     C   58819 58603
 =C'- escape character.'
              19 00006F65 00000001     C   33186 32680
 =C'- AUTHORITY'
              11 00006F3F 00000001     C   33182 32014
 =C'- CURRENT'
               9 00006F1E 00000001     C   33177 31191
 =C'- DELTA'
               7 00006F37 00000001     C   33180 31700
 =C'- FIRST'
               7 00006F27 00000001     C   33178 31428
 =C'- INSTALLATION'
              14 00006E86 00000001     C   33163 31811
 =C'- Library.'
              10 00008D78 00000001     C   36548 36042
 =C'- LAST'
               6 00006E80 00000001     C   33162 31349
 =C'- LINE NUMBER'
              13 00006F11 00000001     C   33176 30855  31586
 =C'- MODES'
               7 00006EE2 00000001     C   33171 29814
 =C'- NEXT'
               6 00006E7A 00000001     C   33161 31270
 =C'- PEND  ,'
               9 00006F2E 00000001     C   33179 31507
 =C'- PREVIOUS'
              10 00006E70 00000001     C   33160 31112
 =C'- VOLUME'
               8 00006D90 00000001     C   33121 32338
 =C'-- IGNORED'
              10 0000117A 00000001     C   15289 13960
 =C'-------------------'
              19 0000A835 00000001     C   43673 42856
 =C'----------------'
              16 0000A7E0 00000001     C   43660 43191
 =C'-'         1 0000D39B 00000001     C   54627 52777
 =C', '        2 0000CA72 00000001     C   52584 50885
 =C', currently REAL'
              16 0000C9B8 00000001     C   52561 50686
 =C', currently VIRTUAL'
              19 0000CAED 00000001     C   52596 50666
 =C', DELTA='
               8 00005ED0 00000001     C   29123 28168
 =C', LENGTH='
               9 00005F9A 00000001     C   29161 28129
 =C', LMAX='
               7 0000CBE5 00000001     C   52614 51780
 =C', NO PREFIX'
              11 00005FA3 00000001     C   29162 28295
 =C', NO SKIP CHAR'
              14 00005F76 00000001     C   29156 28855
 =C', PREFIX='
               9 00005FAE 00000001     C   29163 28328
 =C', RESCAN='
               9 00005FC6 00000001     C   29167 28937
 =C', SKIP='
               7 00005FBF 00000001     C   29166 28877
1MODE     (MODE4072) (12:48) (15MAR04) Ordinary Symbol and Literal Cross Reference                                          Page  252
 =C', SMAX='
               7 0000CBC4 00000001     C   52611 51658
 =C', VOLUME='
               9 00005F91 00000001     C   29160 28065
 =C'%'         1 0000D39C 00000001     C   54628 53231
 =C'???'       3 0000AE2A 00000001     C   45129 44047
 =C': invalid CLEAR ACTIVE option.'
              30 00004A66 00000001     C   24245 23208
 =C': invalid CLEAR ACTIVES option.'
              31 00004ACA 00000001     C   24258 23585
 =C': invalid CLEAR ATTN option.'
              28 0000580C 00000001     C   27297 26773
 =C': invalid CLEAR DEFINES option.'
              31 0000588C 00000001     C   27304 25498
 =C': invalid CLEAR DEVICES option.'
              31 00005911 00000001     C   27309 26936
 =C': invalid CLEAR ERROR option.'
              29 000058F4 00000001     C   27308 26613
 =C': invalid CLEAR EXEC option.'
              28 00004A18 00000001     C   24236 24034
 =C': invalid CLEAR GETSTACK option.'
              32 000057C8 00000001     C   27287 27241
 =C': invalid CLEAR HISTORY option.'
              31 000058CA 00000001     C   27306 25808
 =C': invalid CLEAR LEARNED option.'
              31 000058AB 00000001     C   27305 25653
 =C': invalid CLEAR PREFIX option.'
              30 00004FAA 00000001     C   25370 24903
 =C': invalid CLEAR SCREEN option.'
              30 00004A42 00000001     C   24241 22268
 =C': invalid CLEAR TABS option.'
              28 00004F6C 00000001     C   25360 24386
 =C': invalid CLEAR VARIABLES option.'
              33 00004FC8 00000001     C   25371 25318
 =C': invalid CLEAR WDEBUG option.'
              30 0000586E 00000001     C   27303 27087
 =C': invalid CLEAR XDEBUG option.'
              30 00005832 00000001     C   27301 25963
 =C': invalid CLEAR XMONITOR option.'
              32 000057A0 00000001     C   27285 26130
 =C': invalid. '
              11 000058E9 00000001     C   27307 26298  26456
 =C': invalid; too many volumes'
              27 00001A58 00000001     C   17642 17569
 =C': Command prompt string not properly quoted.'
              44 000019CC 00000001     C   17618 15788
 =C': Ignored -- volume already marked for backup'
              45 0000E162 00000001     C   58816 57694
 =C': Ignored -- volume not found'
              29 0000E145 00000001     C   58815 57597  58059
 =C': Ignored -- volume not marked for backup'
              41 0000E18F 00000001     C   58817 58162
 =C': Invalid digit -- Operand ignored.'
              35 0000E122 00000001     C   58814 57340
 =C':'         1 0000A2EA 00000001     C   42743 38654
 =C'#'         1 00005FB7 00000001     C   29164 28425
 =C'#'         1 00008D9E 00000001     C   36553 36269
 =C''' - GET stack text.'
              19 0000D3E3 00000001     C   54633 54385
1MODE     (MODE4072) (12:48) (15MAR04) Ordinary Symbol and Literal Cross Reference                                          Page  253
 =C''''        1 0000D3E2 00000001     C   54632 54340
 =C'" is the command prompt string.'
              31 00006F88 00000001     C   33189 33076
 =C'"'         1 00005F85 00000001     C   29158 27534  27580
 =C'"'         1 00006F87 00000001     C   33188 33031
 =C'access is allowed.'
              18 00006E94 00000001     C   33164 32516
 =C'added '
               6 0000CA7E 00000001     C   52586 51032
 =C'at '       3 0000931A 00000001     C   38065 37561
 =C'from '
               5 0000931D 00000001     C   38066 37641
 =C'has not changed this value.'
              27 0000CB3C 00000001     C   52601 51001
 =C'is the word'
              11 0000DBFD 00000001     C   57042 56858
 =C'ms '       3 0000A45F 00000001     C   42766 41174
 =C'not available.'
              14 0000A24E 00000001     C   42731 40155
 =C'p/s '      4 0000A1E0 00000001     C   42721 41132
 =C'released '
               9 0000CB57 00000001     C   52602 51051
 =C'the backup process ends.'
              24 0000E0C0 00000001     C   58797 58691
 =C'[SHOW WINFO ALL will give you more information.]'
              48 0000A0D0 00000001     C   42695 41297
 =C'Adding pages buffers...'
              23 0000C297 00000001     C   50439 48634
 =C'Address Space CPU time = '
              25 0000A3D5 00000001     C   42758 39910
 =C'Autopilot '
              10 0000CA74 00000001     C   52585 50967
 =C'Autopilot recommends:'
              21 0000A49F 00000001     C   42770 41515
 =C'ADM'       3 00004AB1 00000001     C   24253 22459
 =C'ATTN '
               5 00006ECF 00000001     C   33168 29613
 =C'AUTO'      4 0000CA1C 00000001     C   52568 50650
 =C'Buffers: '
               9 0000CB26 00000001     C   52599 50862
 =C'Capture ratio is '
              17 0000A3EE 00000001     C   42759 40035
 =C'Command'
               7 000008C1 00000001     C   13160 11919
 =C'CAT'       3 000008C8 00000001     C   13161 12341
 =C'CLEAR '
               6 00006E4A 00000001     C   33153 29498
 =C'CPU multiplication factor is '
              29 0000B8C6 00000001     C   47743 46724
 =C'CPU multiplier is too big!'
              26 0000B874 00000001     C   47738 46609
 =C'Datasets on these volumes are inaccessible until'
              48 0000E090 00000001     C   58796 58673
 =C'Default file system access is: '
              31 0000A333 00000001     C   42748 39209
 =C'Deleting page buffers...'
              24 0000C1F0 00000001     C   50413 49036
 =C'Devices: invalid clear option.'
              30 00005850 00000001     C   27302 26855
1MODE     (MODE4072) (12:48) (15MAR04) Ordinary Symbol and Literal Cross Reference                                          Page  254
 =C'Dispatcher:  '
              13 0000A462 00000001     C   42767 41348
 =C'Done.'
               5 0000AE43 00000001     C   45132 44376
 =C'EDIT'      4 00006DBC 00000001     C   33126 29368
 =C'ESCAPE AND SKIP CHAR CAN''T BE THE SAME'
              38 00001154 00000001     C   15288 13418  13678
 =C'ESCAPE='
               7 00005FB8 00000001     C   29165 28780
 =C'GA'        2 0000DBD4 00000001     C   57036 54929
 =C'GETCORE has allocated '
              22 0000A2BE 00000001     C   42741 42082
 =C'K ('       3 0000CBF1 00000001     C   52616 52355
 =C'K bytes.'
               8 0000A148 00000001     C   42699 42124
 =C'K paging space ('
              16 0000A138 00000001     C   42698 41860
 =C'K public space'
              14 0000A2B0 00000001     C   42740 42038
 =C'K CP     space'
              14 0000A294 00000001     C   42738 41946
 =C'K STACK  space'
              14 0000A2A2 00000001     C   42739 41992
 =C'Large configuration: '
              21 0000CBCB 00000001     C   52612 51723
 =C'Last IPL'
               8 000092E0 00000001     C   38050 37477
 =C'Line '
               5 0000CBEC 00000001     C   52615 51997
 =C'LIST '
               5 00006ECA 00000001     C   33167 29441
 =C'LMIN='
               5 0000CBE0 00000001     C   52613 51741
 =C'M, currently '
              13 0000CB9C 00000001     C   52607 51515
 =C'M'         1 0000CBA9 00000001     C   52608 51582
 =C'Machine is'
              10 0000B342 00000001     C   46505 46189
 =C'Memory paging is in effect.'
              27 0000A858 00000001     C   43676 43225
 =C'Memory usage:'
              13 0000A4E2 00000001     C   42773 41814
 =C'Missing file system type.'
              25 0000B8E3 00000001     C   47744 47047
 =C'Missing CLEAR option.'
              21 00004A84 00000001     C   24246 22059
 =C'Missing DUMP/SHOW option.'
              25 00006EF8 00000001     C   33175 30614
 =C'Missing SET option.'
              19 000008AE 00000001     C   13159 11356
 =C'Missing SHOW option.'
              20 00006DFC 00000001     C   33142 30637
 =C'MISC'      4 0000A7F4 00000001     C   43662 42923
 =C'MODIFY'
               6 00006E44 00000001     C   33152 29347
 =C'MVS/ESA'
               7 00009329 00000001     C   38070 37849
 =C'MVS/XA'
               6 0000930E 00000001     C   38061 37871
1MODE     (MODE4072) (12:48) (15MAR04) Ordinary Symbol and Literal Cross Reference                                          Page  255
 =C'MVS'       3 00009326 00000001     C   38069 37829
 =C'No accounting message.'
              22 0000DBD8 00000001     C   57038 55244
 =C'No checkpointing'
              16 0000A150 00000001     C   42700 42371
 =C'No default ORVYL for'
              20 000010FC 00000001     C   15280 14163
 =C'No escape character.'
              20 00006E28 00000001     C   33149 32619
 =C'No machine set (try SET WMACHINE SYSA).'
              39 0000B380 00000001     C   46508 46177
 =C'No message.'
              11 0000DBF2 00000001     C   57041 55221
 =C'No paging (memory paging only).'
              31 0000A426 00000001     C   42763 40714
 =C'No skip character.'
              18 00006EA6 00000001     C   33165 32783
 =C'No text in GET stack.'
              21 0000D3CD 00000001     C   54631 54306
 =C'No user message.'
              16 0000DB50 00000001     C   57011 55271
 =C'No volumes.'
              11 0000D3F6 00000001     C   54634 54491
 =C'No word.'
               8 0000DB70 00000001     C   57013 56808
 =C'No ACTIVE file.'
              15 00004ABB 00000001     C   24257 22875
 =C'No CPU multiplier.'
              18 0000B88E 00000001     C   47739 46712
 =C'No EXEC file.'
              13 00004AE9 00000001     C   24259 24167
 =C'No View message.'
              16 0000DB60 00000001     C   57012 55298
 =C'NIZ'       3 00001191 00000001     C   15293 14293
 =C'NO AUTHORITY SET'
              16 00006D80 00000001     C   33120 31907
 =C'NO ESCAPE CHAR'
              14 00005F68 00000001     C   29155 28758
 =C'NO LENGTH'
               9 00006F4A 00000001     C   33183 32120
 =C'NO PREFIX'
               9 00008D8E 00000001     C   36551 36139
 =C'NO VOLUME'
               9 00006F5C 00000001     C   33185 32277
 =C'NO'        2 00006E3C 00000001     C   33150 29308  29419  29476  29534  29591  29917  30069
 =C'NOWARN'
               6 00006E56 00000001     C   33155 29647
 =C'Options:'
               8 00005EB8 00000001     C   29121 27603
 =C'Over'      4 0000CA4C 00000001     C   52574 51342
 =C'OLDIBM (not Wings)'
              18 0000A228 00000001     C   42728 39225
 =C'OLDIBM.'
               7 0000B8FC 00000001     C   47745 47173  47210
 =C'ORVYL access is blocked.'
              24 00006D98 00000001     C   33122 32441
 =C'ORVYL'
               5 0000118C 00000001     C   15292 14239
 =C'Page buffers are '
1MODE     (MODE4072) (12:48) (15MAR04) Ordinary Symbol and Literal Cross Reference                                          Page  256
              17 0000CADC 00000001     C   52595 50616
 =C'Pages = '
               8 0000C998 00000001     C   52559 50494
 =C'Paging by device'
              16 0000A7D0 00000001     C   43659 43173
 =C'Paging by page type'
              19 0000A822 00000001     C   43672 42838
 =C'Permanent Options:'
              18 00005F40 00000001     C   29151 27672
 =C'PATH '
               5 00006EE9 00000001     C   33172 29939
 =C'PFX'       3 00001A46 00000001     C   17640 16281  16967
 =C'PREFIX='
               7 00008D97 00000001     C   36552 36172
 =C'PRO is ambiguous.  Specify PROT for PROTECT or '
              47 00003B0C 00000001     C   21327 21279
 =C'PROJ for PROJECT.'
              17 00003B3B 00000001     C   21328 21295
 =C'Query: '
               7 0000A378 00000001     C   42753 39435
 =C'Restarted by '
              13 0000AE1C 00000001     C   45127 43813
 =C'REAL'      4 0000CA20 00000001     C   52569 50754
 =C'RETRY '
               6 00006E3E 00000001     C   33151 29330
 =C'RLG'       3 00004AB5 00000001     C   24255 22494
 =C'Session Options:'
              16 00005EC0 00000001     C   29122 27894
 =C'Should we go for it'
              19 0000C284 00000001     C   50438 48307
 =C'Small configuration: '
              21 0000CBAA 00000001     C   52609 51601
 =C'Small if real memory <= '
              24 0000C9F8 00000001     C   52564 51476
 =C'Started at '
              11 0000A321 00000001     C   42746 38977
 =C'Started at '
              11 0000AE59 00000001     C   45134 44558
 =C'Stopped.'
               8 0000C1E8 00000001     C   50412 48965  49420
 =C'Summary for the last minute:'
              28 0000A1A8 00000001     C   42719 40775
 =C'Supplied character is not valid for escape use'
              46 00001126 00000001     C   15287 13373
 =C'SAM'       3 00004AA0 00000001     C   24248 22333
 =C'SCIP'      4 000092F0 00000001     C   38053 37530
 =C'SCIP'      4 0000C224 00000001     C   50421 48424
 =C'SCIP'      4 0000DBC4 00000001     C   57032 56413
 =C'SHO'       3 00006EF5 00000001     C   33174 30257
 =C'SHORT '
               6 00006E50 00000001     C   33154 29556
 =C'SMIN='
               5 0000CBBF 00000001     C   52610 51619
 =C'SPIEDIT'
               7 00006EEE 00000001     C   33173 30091
 =C'Text from ORVYL'
              15 00001A49 00000001     C   17641 17019
 =C'The following online volumes are being backed up:'
              49 0000E1B8 00000001     C   58818 58436
1MODE     (MODE4072) (12:48) (15MAR04) Ordinary Symbol and Literal Cross Reference                                          Page  257
 =C'TEK4023'
               7 00004AA3 00000001     C   24249 22354
 =C'TEST'      4 00001114 00000001     C   15282 14274
 =C'TORVYL'
               6 00001184 00000001     C   15290 14255
 =C'TVI'       3 00004AAD 00000001     C   24251 22424
 =C'Under'
               5 0000CB7E 00000001     C   52605 51281
 =C'Use LMIN/LMAX and SMIN/SMAX; look at SHOW WPAGES.'
              49 0000C2AE 00000001     C   50440 50066
 =C'VIRTUAL'
               7 0000CB00 00000001     C   52597 50734
 =C'VT'        2 00004A60 00000001     C   24242 22313
 =C'Wings.'
               6 0000B8C0 00000001     C   47742 47150
 =C'Wings: '
               7 0000A357 00000001     C   42750 39307
 =C'Wings'
               5 0000A352 00000001     C   42749 39245
 =C'Wow!!  That''s a lot of memory Niz!'
              34 0000C262 00000001     C   50437 48291
 =C'Wylbur default file system is '
              30 0000B8A2 00000001     C   47741 47118
 =C'WARN='
               5 00006ED4 00000001     C   33169 29668
 =C'WINGSV00'
               8 0000B840 00000001     C   47726 47632
 =C'WNO'       3 0000B34C 00000001     C   46506 45229  45354  45585  45710
 =C'WROTATE cleared.  WROTATE currently bombs wylbur.'
              49 0000B34F 00000001     C   46507 45472
 =C'XDA'       3 0000D3CA 00000001     C   54630 53452
 =C'You can only specify one alternate time zone.'
              45 0000D39D 00000001     C   54629 53427
 =C'Z19'       3 00004AAA 00000001     C   24250 22389
 =CL(L'SHDTMSG)' (Bangkok time)'
              40 0000D288 00000001     C   54591 53792
 =CL(L'SHDTMSG)' (Moscow time)'
              40 0000D2D8 00000001     C   54593 53933
 =CL(L'SHDTMSG)' (STCK time)'
              40 0000D300 00000001     C   54594 54030
 =CL(L'SHDTMSG)' (Washington D.C. time)'
              40 0000D2B0 00000001     C   54592 53862
 =CL8'INVESC'
               8 000010D8 00000001     C   15272 13370
 =CL8'LIB'
               8 00000868 00000001     C   13141 12424
 =CL8'MISSCLR'
               8 000049C0 00000001     C   24217 22056
 =CL8'MISSSET'
               8 00000860 00000001     C   13140 11353
 =CL8'NOACTIVE'
               8 000049C8 00000001     C   24218 22855
 =CL8'NOEXEC'
               8 000049D0 00000001     C   24219 24147
 =CL8'SYNTAX'
               8 000057C0 00000001     C   27286 26295  26453
 =CL8'SYNTAX'
               8 00006D78 00000001     C   33119 30611  30634
 =CL8'WINGSV00'
1MODE     (MODE4072) (12:48) (15MAR04) Ordinary Symbol and Literal Cross Reference                                          Page  258
               8 0000B838 00000001     C   47725 47463
 =F'-1'        4 000008A0 00000001     F   13154 13011
 =F'-1000'
               4 00006DD8 00000001     F   33133 30224
 =F'10'        4 0000911C 00000001     F   37404 37147  37292
 =F'100'       4 0000A198 00000001     F   42715 40128
 =F'100'       4 0000ADA0 00000001     F   45111 44064
 =F'2'         4 0000D368 00000001     F   54611 53486
 =F'4'         4 0000D360 00000001     F   54609 53464
 =F'4000'      4 0000CA68 00000001     F   52581 52524
 =F'8'         4 00001A20 00000001     F   17629 16715
 =H'-1'        2 00005F3E 00000001     H   29150 27430
 =H'2'         2 0000D396 00000001     H   54624 53749
 =H'30'        2 0000118A 00000001     H   15291 14618
 =H'32'        2 00009318 00000001     H   38064 37957
 =H'4'         2 0000D392 00000001     H   54622 53502
 =H'40'        2 00009314 00000001     H   38062 37907
 =H'6'         2 0000D398 00000001     H   54625 54523
 =H'60'        2 0000E10E 00000001     H   58812 57406
 =H'7'         2 000008AC 00000001     H   13158 11918
 =V(ACTRESET)
               4 00004A08 00000001     V   24232 23395
 =V(AUTODISP)
               4 00005EF8 00000001     V   29132 27720
 =V(BTD)       4 00005F34 00000001     V   29147 28968
 =V(BTD)       4 00006DC4 00000001     V   33128 29699  29765
 =V(BTD)       4 0000C244 00000001     V   50429 48802  49257
 =V(BTR)       4 0000A180 00000001     V   42709 39108  40193
 =V(BTR)       4 0000ADA4 00000001     V   45112 44087  44192
 =V(BTR)       4 0000D344 00000001     V   54602 53201
 =V(BTX)       4 00009300 00000001     V   38057 37728
 =V(CALCPGC)
               4 0000C22C 00000001     V   50423 48604
 =V(CHKKW)
               4 00001A38 00000001     V   17635 17306
 =V(CHKXOLD)
               4 00004A34 00000001     V   24237 24111
 =V(CLRACTS)
               4 00004A0C 00000001     V   24233 23413
 =V(CLRATTN)
               4 00005828 00000001     V   27298 26784
 =V(CLRDEBUG)
               4 0000582C 00000001     V   27299 27097
 =V(CLRDEF)
               4 000057F4 00000001     V   27291 25508
 =V(CLRERROR)
               4 00005808 00000001     V   27296 26624
 =V(CLREX)
               4 00004A38 00000001     V   24238 24126
 =V(CLRHCMDS)
               4 000057FC 00000001     V   27293 25818
 =V(CLRLRN)
               4 000057F8 00000001     V   27292 25663
 =V(CLRTEXT)
               4 000049F4 00000001     V   24227 22825
 =V(CLRTEXT)
               4 00004FA4 00000001     V   25368 25106
 =V(CLRVARS)
               4 000049FC 00000001     V   24229 22918  23783
1MODE     (MODE4072) (12:48) (15MAR04) Ordinary Symbol and Literal Cross Reference                                          Page  259
 =V(CLRVARS)
               4 00004F94 00000001     V   25364 24639  25078
 =V(CMDFIN)
               4 000049D8 00000001     V   24220 22124
 =V(CMDFIN)
               4 00006DD4 00000001     V   33132 30217
 =V(COLLOPTS)
               4 00006DB0 00000001     V   33123 29220  29895  30046  30876  31665  31777  31889  32096  32255  32419
                                                 32597  32761  33025
 =V(COLLOPTS)
               4 00008D5C 00000001     V   36541 36009  36113
 =V(COLLOPTS)
               4 000092E8 00000001     V   38051 37460
 =V(COLLOPTS)
               4 000093C8 00000001     V   38294 38123
 =V(COLLOPTS)
               4 0000ADB4 00000001     V   45116 44453
 =V(COLLOPTS)
               4 0000B338 00000001     V   46502 46156
 =V(COLLOPTS)
               4 0000B850 00000001     V   47729 46691
 =V(COLLOPTS)
               4 0000CA64 00000001     V   52580 52521
 =V(COLLOPTS)
               4 0000D388 00000001     V   54619 54470
 =V(COLLOPTS)
               4 0000DB9C 00000001     V   57022 55216
 =V(CVEXNO)
               4 00005F10 00000001     V   29138 28185
 =V(CVEXNO)
               4 00006E10 00000001     V   33143 30712  31670
 =V(CVEXNO)
               4 0000B858 00000001     V   47731 46741
 =V(DBCLEAR)
               4 00005800 00000001     V   27294 25985
 =V(DEQUOTE)
               4 0000DB90 00000001     V   57019 55038
 =V(DOFNAME)
               4 00001A04 00000001     V   17622 16364
 =V(DTB)       4 0000E0E4 00000001     V   58801 57296
 =V(EXECDISP)
               4 00005F30 00000001     V   29146 28706
 =V(EXIT1)
               4 0000DB80 00000001     V   57015 54686
 =V(EXIT12)
               4 00001A00 00000001     V   17621 16211
 =V(EXIT13)
               4 00008D58 00000001     V   36540 35939
 =V(FMTCLCK)
               4 0000D35C 00000001     V   54608 53460
 =V(FMTCLCK)
               4 0000E0F4 00000001     V   58805 57415
 =V(FMTRCLCK)
               4 000092FC 00000001     V   38056 37587
 =V(FMTRCLCK)
               4 0000A170 00000001     V   42705 39003  40593  40874
 =V(FMTRCLCK)
               4 0000ADC0 00000001     V   45119 44584
 =V(FMTRCLCK)
1MODE     (MODE4072) (12:48) (15MAR04) Ordinary Symbol and Literal Cross Reference                                          Page  260
               4 0000DBA0 00000001     V   57023 55393  55546
 =V(FMTTIME)
               4 0000A18C 00000001     V   42712 39632  39717  39851  39952
 =V(FMTTIME)
               4 0000CA2C 00000001     V   52572 51115
 =V(FMTWBUF)
               4 0000CA6C 00000001     V   52582 52527
 =V(FMTXDATE)
               4 000093D0 00000001     V   38296 38135
 =V(FMTXDATE)
               4 0000D364 00000001     V   54610 53483  53746
 =V(FNAMEFIN)
               4 00001A0C 00000001     V   17624 16405
 =V(FREEPCB)
               4 0000C254 00000001     V   50433 49181
 =V(GETCPU)
               4 0000A194 00000001     V   42714 39707
 =V(GETKWR)
               4 00005EE4 00000001     V   29127 27434
 =V(GETPCB)
               4 0000C240 00000001     V   50428 48778
 =V(JESCMD)
               4 00006DDC 00000001     V   33134 30251
 =V(JESDISP)
               4 00005F28 00000001     V   29144 28637
 =V(JESDISP2)
               4 00005F2C 00000001     V   29145 28672
 =V(JOBDISP)
               4 00005EFC 00000001     V   29133 27756
 =V(LOCALTOD)
               4 000092F8 00000001     V   38055 37577
 =V(LOCALTOD)
               4 000093CC 00000001     V   38295 38128
 =V(LOCALTOD)
               4 0000A16C 00000001     V   42704 38993  39052  40578  40859
 =V(LOCALTOD)
               4 0000ADBC 00000001     V   45118 44574
 =V(LOCALTOD)
               4 0000D348 00000001     V   54603 53360  53739
 =V(LOCALTOD)
               4 0000DB94 00000001     V   57020 55050  55378  55531
 =V(LOCALTOD)
               4 0000E0F0 00000001     V   58804 57409
 =V(LPRDISP)
               4 00005F38 00000001     V   29148 29028
 =V(LRTRIM)
               4 00005F08 00000001     V   29136 28095  28246
 =V(LRTRIM)
               4 00006E24 00000001     V   33148 32486
 =V(LRTRIM)
               4 0000A1A4 00000001     V   42718 40637
 =V(LRTRIM)
               4 0000DB8C 00000001     V   57018 55034  55042  55469  55620
 =V(MCLEAR)
               4 00005804 00000001     V   27295 26152
 =V(MINFDISP)
               4 000093D8 00000001     V   38298 38191
 =V(NOOPTS)
               4 00000884 00000001     V   13147 11421  11560  12361  12503
1MODE     (MODE4072) (12:48) (15MAR04) Ordinary Symbol and Literal Cross Reference                                          Page  261
 =V(NOOPTS)
               4 000019FC 00000001     V   17620 15833  15905  15981  16058  16134
 =V(NOTVALID)
               4 00000890 00000001     V   13150 12195  12490
 =V(NOTVALID)
               4 000010F4 00000001     V   15278 13346  13634  14222  14320  14366
 =V(NOTVALID)
               4 00001A34 00000001     V   17634 17246  17271  17403
 =V(NOTVALID)
               4 00009110 00000001     V   37401 36886
 =V(NOTVALID)
               4 0000B328 00000001     V   46498 45205  45330  45454  45560  45685
 =V(NOTVALID)
               4 0000B848 00000001     V   47727 46583  46850  47325
 =V(NOTVALID)
               4 0000C208 00000001     V   50414 47816  47914  48092
 =V(NOTVALID)
               4 0000CA5C 00000001     V   52578 52216  52245
 =V(NOTVALID)
               4 0000D328 00000001     V   54595 52690  52987  54023  54064  54106
 =V(NOTVALID)
               4 0000DB88 00000001     V   57017 54806  54856  54940  54988  55016  55796  55887  55912  56744
 =V(NOTVALID)
               4 0000E0D8 00000001     V   58798 57167  57824
 =V(NRESOLVE)
               4 00001A10 00000001     V   17625 16409
 =V(NSCAN)
               4 00000870 00000001     V   13142 11122  11216  11270  11718  12283  12445  12606  12713  12849  13095
 =V(NSCAN)
               4 000010E0 00000001     V   15273 13258  13546  13842  13925  14073  14456  14640  15046
 =V(NSCAN)
               4 000012EC 00000001     V   15591 15364
 =V(NSCAN)
               4 000019C0 00000001     V   17615 15664  16309  16387  17129  17452
 =V(NSCAN)
               4 00003C50 00000001     V   21517 21408  21472
 =V(NSCAN)
               4 000049DC 00000001     V   24221 22210  22784  23359  23741
 =V(NSCAN)
               4 00004F60 00000001     V   25357 24328  24588  25059
 =V(NSCAN)
               4 000057E8 00000001     V   27288 25440  25595  25750  25905  26072  26239  26397  26555  26715  26878
                                                 27029  27183
 =V(NSCAN)
               4 00005EDC 00000001     V   29125 27411
 =V(NSCAN)
               4 00006DE4 00000001     V   33136 30357  30458  30512  30823
 =V(NSCAN)
               4 00009104 00000001     V   37398 36633
 =V(NSCAN)
               4 00009524 00000001     V   38563 38402
 =V(NSCAN)
               4 0000AD84 00000001     V   45104 43774
 =V(NSCAN)
               4 0000B330 00000001     V   46500 45899
 =V(NSCAN)
               4 0000B860 00000001     V   47733 46878  47353
 =V(NSCAN)
               4 0000C210 00000001     V   50416 48250
1MODE     (MODE4072) (12:48) (15MAR04) Ordinary Symbol and Literal Cross Reference                                          Page  262
 =V(NSCAN)
               4 0000CA54 00000001     V   52576 51931
 =V(NSCAN)
               4 0000D350 00000001     V   54605 53389
 =V(NSCAN)
               4 0000DBAC 00000001     V   57026 55823  55967  56772
 =V(NSCAN)
               4 0000E0DC 00000001     V   58799 57211  57861
 =V(ORVCPASS)
               4 0000DB84 00000001     V   57016 54755
 =V(OUTDISP)
               4 00005F00 00000001     V   29134 27792
 =V(PAGETABS)
               4 00004F8C 00000001     V   25362 24434
 =V(PGETNEW)
               4 0000C258 00000001     V   50434 49196
 =V(PJUNKA)
               4 0000C25C 00000001     V   50435 49214
 =V(RETFMEM)
               4 00005F18 00000001     V   29140 28402
 =V(RETFMEM)
               4 00008D6C 00000001     V   36545 36246
 =V(RETFNAME)
               4 00005F14 00000001     V   29139 28359
 =V(RETFNAME)
               4 00008D68 00000001     V   36544 36203
 =V(SCANCHK)
               4 0000087C 00000001     V   13145 11230  11284  11732  12297  12620  12863  13109
 =V(SCANCHK)
               4 000010E4 00000001     V   15274 13272  13560  13856  14087  14470  14654  15060
 =V(SCANCHK)
               4 000012F0 00000001     V   15592 15378
 =V(SCANCHK)
               4 000019C4 00000001     V   17616 15678  16323  16401  17143  17466
 =V(SCANCHK)
               4 00003C5C 00000001     V   21520 21486
 =V(SCANCHK)
               4 000049E0 00000001     V   24222 22224  22798  23373  23755
 =V(SCANCHK)
               4 00004F64 00000001     V   25358 24342  24602  25073
 =V(SCANCHK)
               4 000057EC 00000001     V   27289 25454  25609  25764  25919  26086  26253  26411  26569  26729  26892
                                                 27043  27197
 =V(SCANCHK)
               4 00005EE0 00000001     V   29126 27425
 =V(SCANCHK)
               4 00006DF4 00000001     V   33140 30472  30526
 =V(SCANCHK)
               4 00009108 00000001     V   37399 36647
 =V(SCANCHK)
               4 00009528 00000001     V   38564 38416
 =V(SCANCHK)
               4 0000AD88 00000001     V   45105 43788
 =V(SCANCHK)
               4 0000B334 00000001     V   46501 45913
 =V(SCANCHK)
               4 0000B864 00000001     V   47734 46892  47367
 =V(SCANCHK)
               4 0000C214 00000001     V   50417 48264
1MODE     (MODE4072) (12:48) (15MAR04) Ordinary Symbol and Literal Cross Reference                                          Page  263
 =V(SCANCHK)
               4 0000CA58 00000001     V   52577 51945
 =V(SCANCHK)
               4 0000D354 00000001     V   54606 53403
 =V(SCANCHK)
               4 0000DBB0 00000001     V   57027 55837  55981  56786
 =V(SCANCHK)
               4 0000E0E0 00000001     V   58800 57225  57875
 =V(SCDQUOTE)
               4 000010E8 00000001     V   15275 13295  13583
 =V(SCDQUOTE)
               4 000019F8 00000001     V   17619 15817
 =V(SCINIT)
               4 00000874 00000001     V   13143 11156
 =V(SCINIT)
               4 00003C54 00000001     V   21518 21442
 =V(SCINIT)
               4 00006DE8 00000001     V   33137 30391
 =V(SCNEX)
               4 00006DEC 00000001     V   33138 30403
 =V(SCNEXFR)
               4 00000898 00000001     V   13152 12579  12686
 =V(SCUPCASE)
               4 0000B870 00000001     V   47737 47543
 =V(SCUPCASE)
               4 0000DBB4 00000001     V   57028 55937
 =V(SEG)       4 000019C8 00000001     V   17617 15782  17563
 =V(SEG)       4 00003B08 00000001     V   21326 21291
 =V(SEG)       4 000049E4 00000001     V   24223 22262  22556  23202  23579  24028
 =V(SEG)       4 00004F68 00000001     V   25359 24380  24897  25312
 =V(SEG)       4 000057F0 00000001     V   27290 25492  25647  25802  25957  25975  26124  26142  26291  26449  26607
                                                 26767  26930  27081  27235
 =V(SEG)       4 00005EE8 00000001     V   29128 27465  27483  27546  27615  27715  27751  27787  27925  27953  27971
                                                 27999  28034  28077  28123  28141  28180  28228  28270  28307  28340
                                                 28383  28437  28464  28505  28533  28598  28633  28668  28702  28737
                                                 28792  28834  28889  28931  28949  29024
 =V(SEG)       4 00006DB8 00000001     V   33125 29320  29342  29431  29453  29488  29510  29546  29568  29603  29625
                                                 29680  29745  29789  29807  29929  29951  30081  30103  30867  31124
                                                 31203  31282  31361  31440  31519  31598  31712  31823  31919  31962
                                                 31980  32008  32026  32132  32186  32289  32350  32453  32528  32631
                                                 32692  32795  32838  32856  32960  33043  33070  33088
 =V(SEG)       4 00008D64 00000001     V   36543 36151  36184  36227  36281  36308  36347  36375  36431  36470
 =V(SEG)       4 00009118 00000001     V   37403 37135  37197  37283  37329
 =V(SEG)       4 000092F4 00000001     V   38054 37573  37653  37701  37752  37770  37954  38003
 =V(SEG)       4 0000A168 00000001     V   42703 38989  39027  39048  39132  39150  39221  39319  39361  39447  39487
                                                 39527  39621  39703  39744  39788  39878  39922  39979  40047  40221
                                                 40314  40354  40449  40488  40574  40855  40898  41024  41054  41144
                                                 41186  41309  41360  41400  41558  41631  41702  41741  41872  42094
                                                 42204  42245  42326  42506  42546
 =V(SEG)       4 0000A7F8 00000001     V   43663 42980  43008  43052  43103  43332  43362  43453  43502  43545
 =V(SEG)       4 0000AD8C 00000001     V   45106 43825  43855  43873  43903  43921  43972  44115  44136  44216  44234
                                                 44500  44570  44608
 =V(SEG)       4 0000B33C 00000001     V   46503 46201  46235  46273  46311  46349  46387  46425  46463
 =V(SEG)       4 0000B854 00000001     V   47730 46736  46765  47130  47238  47644  47687
 =V(SEG)       4 0000C230 00000001     V   50424 48646  48688  48718  48837  48867  48994  49048  49090  49120  49292
                                                 49322  49453
 =V(SEG)       4 0000CA10 00000001     V   52565 50506  50545  50628  50662  50714  50782  50805  50874  50897  50979
                                                 51013  51080  51103  51142  51160  51293  51354  51488  51527  51613
                                                 51631  51670  51735  51753  51792  52009  52048  52093  52367  52453
1MODE     (MODE4072) (12:48) (15MAR04) Ordinary Symbol and Literal Cross Reference                                          Page  264
 =V(SEG)       4 0000D32C 00000001     V   54596 52805  53225  53243  53534  53582  54352  54379
 =V(SEG)       4 0000DBA4 00000001     V   57024 55417  55449  55570  55602  56870  56904
 =V(SEG)       4 0000E0E8 00000001     V   58802 57334  57688  58156  58448  58507  58597  58615  58703
 =V(SEGB)      4 000010F8 00000001     V   15279 13903  14175
 =V(SEGB)      4 00005EEC 00000001     V   29129 27511  27592
 =V(SEGB)      4 00006DC0 00000001     V   33127 29396  29727  30736  31694  32332  32510  32674
 =V(SEGB)      4 00008D60 00000001     V   36542 36038
 =V(SEGB)      4 000092EC 00000001     V   38052 37489  37611  37683  37903
 =V(SEGB)      4 0000A190 00000001     V   42713 39659  40617  41072  41102
 =V(SEGB)      4 0000A804 00000001     V   43666 43380  43410
 =V(SEGB)      4 0000D38C 00000001     V   54620 54552
 =V(SEGB)      4 0000E0FC 00000001     V   58807 57591  58053  58535  58569  58685
 =V(SEGCR)
               4 000049F8 00000001     V   24228 22887  24179
 =V(SEGCR)
               4 00005EF4 00000001     V   29131 27640  27665  27684  27858  27888  27906  28209
 =V(SEGCR)
               4 00006DCC 00000001     V   33130 29977
 =V(SEGCR)
               4 000093D4 00000001     V   38297 38159  38184  38221
 =V(SEGCR)
               4 0000A164 00000001     V   42702 38666  38691  38725  38750  38789  38814  38941  38966  39175  39203
                                                 39273  39301  39401  39429  39567  39600  39684  39769  39903  40004
                                                 40029  40246  40271  40385  40410  40527  40661  40708  40726  40769
                                                 40787  40812  40918  40944  41211  41291  41342  41440  41481  41509
                                                 41527  41600  41671  41780  41808  41826  41912  41958  42004  42050
                                                 42076  42136  42164  42285  42366  42440  42466  42570  42631  42659
 =V(SEGCR)
               4 0000A7F0 00000001     V   43661 42850  42868  43127  43167  43185  43203  43237  43588
 =V(SEGCR)
               4 0000ADB8 00000001     V   45117 44525  44550  44635  44660  44705  44752  44796  44840  44865  44909
                                                 44934  44979  45025  45069
 =V(SEGCR)
               4 0000C21C 00000001     V   50419 48303  48959  49414
 =V(SEGCR)
               4 0000CA18 00000001     V   52567 50584  50609  50830  50855  50936  50961  51189  51214  51235  51274
                                                 51335  51396  51420  51444  51469  51594  51716  51838
 =V(SEGCR)
               4 0000D384 00000001     V   54618 54217
 =V(SEGCR)
               4 0000E104 00000001     V   58809 58473  58644  58728
 =V(SEGDC)
               4 00005F0C 00000001     V   29137 28162
 =V(SEGDC)
               4 00006E20 00000001     V   33147 32168  32942
 =V(SEGDC)
               4 0000A184 00000001     V   42710 39343  39383  39469  39509  39549  40296  40336  40431  40470  40509
                                                 40837  41005  41126  41168  41382  41422  41463  41582  41653  41723
                                                 41762  41854  41894  41940  41986  42032  42118  42186  42227  42267
                                                 42308  42348  42408  42488  42528  42613
 =V(SEGDC)
               4 0000A800 00000001     V   43665 43085  43313  43435  43484  43527  43570
 =V(SEGDC)
               4 0000ADC4 00000001     V   45120 44687  44734  44778  44822  44891  44961  45007  45051
 =V(SEGDC)
               4 0000C234 00000001     V   50425 48670  49018  49072  49477
 =V(SEGDC)
               4 0000CA14 00000001     V   52566 50527  50566  50918  51256  51317  51378  51509  51576  51652  51691
                                                 51774  51813  52030  52075  52349  52396
1MODE     (MODE4072) (12:48) (15MAR04) Ordinary Symbol and Literal Cross Reference                                          Page  265
 =V(SEGDC)
               4 0000D33C 00000001     V   54600 53083
 =V(SEGMARK)
               4 000049E8 00000001     V   24224 22570
 =V(SEGMARK)
               4 0000C238 00000001     V   50426 48732  48881  49134  49336
 =V(SEGMARK)
               4 0000D330 00000001     V   54597 52819
 =V(SEGT)      4 00005EF0 00000001     V   29130 27574
 =V(SEGT)      4 00009308 00000001     V   38059 37935  37985
 =V(SEGT)      4 0000A160 00000001     V   42701 38648
 =V(SEGT)      4 0000AD94 00000001     V   45108 43954  44482
 =V(SEGTB)
               4 00006E18 00000001     V   33145 31805
 =V(SEGTB)
               4 00009304 00000001     V   38058 37818
 =V(SEGTB)
               4 0000DBD0 00000001     V   57035 56852
 =V(SEGWR)
               4 000049EC 00000001     V   24225 22617
 =V(SEGWR)
               4 00005F20 00000001     V   29142 28566  28992
 =V(SEGWR)
               4 00006DC8 00000001     V   33129 29826
 =V(SEGWR)
               4 00008D74 00000001     V   36547 36507
 =V(SEGWR)
               4 00009124 00000001     V   37406 37360
 =V(SEGWR)
               4 000093E0 00000001     V   38300 38261
 =V(SEGWR)
               4 0000C23C 00000001     V   50427 48757  48906  49159  49361
 =V(SEGWR)
               4 0000D334 00000001     V   54598 52844  54318  54397
 =V(SEGWR)
               4 0000DBA8 00000001     V   57025 55493  55644
 =V(SEGWR)
               4 0000E0EC 00000001     V   58803 57352  57609  57706  58071  58174  58746
 =V(SETPAUSE)
               4 00004A3C 00000001     V   24239 24130
 =V(SETTERM)
               4 0000088C 00000001     V   13149 11807
 =V(TBREAK)
               4 0000DBC8 00000001     V   57033 56620
 =V(TERMDISP)
               4 00005F04 00000001     V   29135 27862
 =V(TSTAT)
               4 0000C250 00000001     V   50432 48922  49377
 =V(UPDCPSIB)
               4 00000888 00000001     V   13148 11453  11593
 =V(UPDCPSIB)
               4 00004F88 00000001     V   25361 24409
 =V(WAITER)
               4 0000C24C 00000001     V   50431 48912  49367
 =V(WAITER)
               4 0000D338 00000001     V   54599 52864
 =V(XTB)       4 0000D380 00000001     V   54617 54048  54090
 =V(YESREQ)
               4 0000C220 00000001     V   50420 48311
1MODE     (MODE4072) (12:48) (15MAR04) Ordinary Symbol and Literal Cross Reference                                          Page  266
 =X'0C'        1 00004AB4 00000001     X   24254 22468  22503
 =X'151515'
               3 00004AB8 00000001     X   24256 22523
 =X'16161616'
               4 0000C248 00000001     X   50430 48825  48982  49280  49441
 =X'27ADF2D127AD86'
               7 00004A99 00000001     X   24247 22280
 =X'270C'      2 00004A62 00000001     X   24243 22363
 =X'2745'      2 00004A64 00000001     X   24244 22398
 =X'3F'        1 00004AB0 00000001     X   24252 22433
 =Y((L'NSCNCB+3)/4*4)
               2 000008AA 00000001     Y   13157 11162  12886
 =Y((L'NSCNCB+3)/4*4)
               2 00001A42 00000001     Y   17638 16360
 =Y((L'NSCNCB+3)/4*4)
               2 00003C62 00000001     Y   21522 21448
 =Y((L'NSCNCB+3)/4*4)
               2 00006E6E 00000001     Y   33159 30397
 =Y((R1+1-(R0)+16*((R0)/(R1+1))/((R0)/(R1+1)))*4)
               2 00005F66 00000001     Y   29154 28440
 =Y((R1+1-(R0)+16*((R0)/(R1+1))/((R0)/(R1+1)))*4)
               2 00008D82 00000001     Y   36549 36284
 =Y((R1+1-(R0)+16*((R0)/(R1+1))/((R0)/(R1+1)))*4)
               2 0000DBD6 00000001     Y   57037 55061
 =Y((12+3)/4*4)
               2 000008A8 00000001     Y   13156 11128  11222  11276  11724  12289  12451  12612  12719  12855  13101
 =Y((12+3)/4*4)
               2 00001124 00000001     Y   15286 13264  13552  13848  13931  14079  14462  14646  15052
 =Y((12+3)/4*4)
               2 000012F4 00000001     Y   15593 15370
 =Y((12+3)/4*4)
               2 00001A40 00000001     Y   17637 15670  16315  16393  17135  17458
 =Y((12+3)/4*4)
               2 00003C60 00000001     Y   21521 21414  21478
 =Y((12+3)/4*4)
               2 00004A40 00000001     Y   24240 22216  22790  23365  23747
 =Y((12+3)/4*4)
               2 00004FA8 00000001     Y   25369 24334  24594  25065
 =Y((12+3)/4*4)
               2 00005830 00000001     Y   27300 25446  25601  25756  25911  26078  26245  26403  26561  26721  26884
                                                 27035  27189
 =Y((12+3)/4*4)
               2 00005F3C 00000001     Y   29149 27417
 =Y((12+3)/4*4)
               2 00006E6C 00000001     Y   33158 30363  30464  30518  30829
 =Y((12+3)/4*4)
               2 00009128 00000001     Y   37407 36639
 =Y((12+3)/4*4)
               2 00009530 00000001     Y   38566 38408
 =Y((12+3)/4*4)
               2 0000ADC8 00000001     Y   45121 43780
 =Y((12+3)/4*4)
               2 0000B340 00000001     Y   46504 45905
 =Y((12+3)/4*4)
               2 0000B8A0 00000001     Y   47740 46884  47359
 =Y((12+3)/4*4)
               2 0000C260 00000001     Y   50436 48256
 =Y((12+3)/4*4)
               2 0000CA9E 00000001     Y   52588 51937
1MODE     (MODE4072) (12:48) (15MAR04) Ordinary Symbol and Literal Cross Reference                                          Page  267
 =Y((12+3)/4*4)
               2 0000D390 00000001     Y   54621 53395
 =Y((12+3)/4*4)
               2 0000DBF0 00000001     Y   57040 55829  55973  56778
 =Y((12+3)/4*4)
               2 0000E10C 00000001     Y   58811 57217  57867
 =Y((30+3)/4*4)
               2 0000930C 00000001     Y   38060 37614
 =Y((30+3)/4*4)
               2 0000A218 00000001     Y   42726 39030  40620  40901
 =Y((30+3)/4*4)
               2 0000ADDC 00000001     Y   45123 44611
 =Y((30+3)/4*4)
               2 0000DBEE 00000001     Y   57039 55420  55573
 =Y((32+3)/4*4)
               2 0000A25C 00000001     Y   42732 40274
 =Y((64+3)/4*4)
               2 000093E4 00000001     Y   38301 38187
 =Y((64+3)/4*4)
               2 0000D394 00000001     Y   54623 53537  53790  54220
 =Y(4)         2 00001A44 00000001     Y   17639 17045
 =Y(4)         2 0000CAD4 00000001     Y   52593 52370  52399
 =8X'16'       1 0000C1E0 00000001     X   50411 48700  49102

1MODE     (MODE4072) (12:48) (15MAR04) Macro and Copy Code Source Summary                                                   Page  268
- Con Source                                        Volume    Members                        HLASM R4.0  2004/03/15 12.48
0     PRIMARY INPUT                                           CSECT    DROP     END      EX       LTORG    POP
                                                              PRINT    PUSH     START    USING
   L1 WYL.GS.WYL.WYLBUR.MACLIB                      SYSB05    ABORT    AINFO    BASE     BTD      BTR      BTX
                                                              COLINFO  COMMENT  CONTROL  CP       CPLOCAL  CV
                                                              CVLOCAL  ERROR    FFINFO   JCB      OPTION   OSCINIT  PFCB
                                                              PFREE    RG       RTNCODES SCAN     SCANCB   SCANCHK
                                                              SCATBUF  SCBKUP   SCCBADR  SCDQUOTE SCINFO   SCKW
                                                              SCPOP    SCPUSH   SCUPCASE SCUPTOK  SDSNBUF  TCR
                                                              TMARK    TNUM     TSEG     TSTAT    TTYPE    TWRITE
                                                              VLTORG   VOLUME   XTB      XTRACE
   L2 WYL.GG.SYS.MACLIB                             SYSB05    $BC      $BFLKUP  $BV      $CCLKUP  $CRS     $CSS     $L
                                                              $LA      $LBLAD   $LEXP    $LOR     $REL     $RGLKUP
                                                              $USLKUP  ACALL    BEGIN    CEIL     CLEAR    COMPROC
                                                              CSECT    DATA     DECR     DEFCC    DROP     DTEX     ELSE
                                                              ELSEIF   END      EX       FLAG     GEN      HIBAL
                                                              IDENT    IF       INCR     LABEL    LC       LCM      LOOP
                                                              LS       LT       LTH      LTORG    L2       MOVE     PEND
                                                              POP      PRETURN  PRINT    PROC     PUSH     QLTORG
                                                              RECORD   REG      REGS     SDL      SET      SETMSG
                                                              START    UNTIL    USING    VCALL    WHILE    WITH
                                                              XPROC
   L3 SYS3.IS.MACLIB                                SYSB05    KWR      SEG      SEGCB    SEGCR    SEGDC    SEGLD
                                                              SEGMARK  SEGWR    SIB      SYSDEFN  XPOP     XPUSH
   L4 SYS3.MACLIB                                   SYSB02    SCIPCVT  USERCVT
   L5 SYS1.MACLIB                                   MVSBR9    CVT      DCB      FREEMAIN GETMAIN  IEFUCBOB IHAASCB
                                                              IHB01    MODESET  SYSSTATE
   L6 SYS1.MODGEN                                   MVSBR9    IECDUCBC IECDUCBD IECDUCBE IECDUCBG IECDUCBT IECDUCBU
                                                              IOSDUCBC

1MODE     (MODE4072) (12:48) (15MAR04) Dsect Cross Reference                                                                Page  269
-Dsect     Length      Id       Defn                                                         HLASM R4.0  2004/03/15 12.48
0$$$@R0   00000000  FFFFFFFE     705
 $$$@R1   00000000  FFFFFFFD     718
 $$$@R10  00000000  FFFFFFF4     835
 $$$@R11  00000000  FFFFFFF3     848
 $$$@R12  00000000  FFFFFFF2     861
 $$$@R13  00000000  FFFFFFF1     874
 $$$@R14  00000000  FFFFFFF0     887
 $$$@R15  00000000  FFFFFFEF     900
 $$$@R2   00000000  FFFFFFFC     731
 $$$@R3   00000000  FFFFFFFB     744
 $$$@R4   00000000  FFFFFFFA     757
 $$$@R5   00000000  FFFFFFF9     770
 $$$@R6   00000000  FFFFFFF8     783
 $$$@R7   00000000  FFFFFFF7     796
 $$$@R8   00000000  FFFFFFF6     809
 $$$@R9   00000000  FFFFFFF5     822
 $$$RCACTSWA
          00000001  FFFFFFD3   23242
 $$$RCACTWA
          00000001  FFFFFFD4   22665
 $$$RCEXECWA
          00000001  FFFFFFD2   23619
 $$$RCP   00001000  FFFFFFDD    6538
 $$$RCPREFWA
          00000001  FFFFFFD1   24461
 $$$RCV   00000FB0  FFFFFFDF    5263
 $$$RCVARSWA
          00000001  FFFFFFD0   24937
 $$$RDEV  0000000C  FFFFFFDC    8752
 $$$RESCWA
          00000002  FFFFFFD6   13171
 $$$RFFINFO
          000003A0  FFFFFFD8   10776
 $$$RJCB  000000D0  FFFFFFD9   10480
 $$$RKWR  000001F8  FFFFFFE0    5024
 $$$RNSCNCB
          000000B0  FFFFFFDE    6459
 $$$RPAT  0000000C  FFFFFFCF   38313
 $$$RPFCB 000000A4  FFFFFFDA   10390
 $$$RSETWBWRK
          00000020  FFFFFFCA   57052
 $$$RSHDTWA
          00000030  FFFFFFCC   53268
 $$$RSKIPWA
          00000002  FFFFFFD5   13459
 $$$RTTYPE
          0000010C  FFFFFFDB   10283
 $$$RUSERCVT
          0000035F  FFFFFFEE    1150
 $$$RWACCWA
          00000001  FFFFFFCE   45751
 $$$RWORDWA
          00000009  FFFFFFCB   55674
 $$$RWPGWA
          00000020  FFFFFFCD   47955
1MODE     (MODE4072) (12:48) (15MAR04) Dsect Cross Reference                                                                Page  270
 ASCB     00000180  FFFFFFE9    2676
 CVT      00000500  FFFFFFED    1431
 CVTVSTGX 00000050  FFFFFFEC    2451
 CVTXTNT1 0000000C  FFFFFFEB    2490
 CVTXTNT2 00000084  FFFFFFEA    2498
 HIBAL    00000000  FFFFFFFF     691
 SDSNBUF  00000044  FFFFFFE1    4989
 UCBCMEXT 00000020  FFFFFFE7    4019
 UCBDSECT 00000040  FFFFFFE8    3300
 UCBOCR   00000008  FFFFFFE6    4575
 UCBPDCTA 00000010  FFFFFFE2    4726
 UCBUCS   00000014  FFFFFFE3    4684
 UCB3540X 00000008  FFFFFFE5    4591
 UCB3800X 00000028  FFFFFFE4    4621
 VOLDSECT 00000044  FFFFFFD7   10990

1MODE     (MODE4072) (12:48) (15MAR04) Using Map                                                                            Page  271
-                                                                                            HLASM R4.0  2004/03/15 12.48
   Stmt  -----Location----- Action ----------------Using----------------- Reg Max    Last  Label and Using Text
           Count      Id           Type          Value    Range     Id        Disp   Stmt
0   922  00000000  FFFFFFFF USING  ORDINARY    00000000 00001000 FFFFFFEF  15 000   14373  @R15,15
    926  00000000  FFFFFFFF USING  ORDINARY    00000000 00001000 FFFFFFF0  14 002    6254  @R14,14
    930  00000000  FFFFFFFF USING  ORDINARY    00000000 00001000 FFFFFFF1  13 000   44139  @R13,13
    934  00000000  FFFFFFFF USING  ORDINARY    00000000 00001000 FFFFFFF2  12 000          @R12,12
    938  00000000  FFFFFFFF USING  ORDINARY    00000000 00001000 FFFFFFF3  11 000          @R11,11
    942  00000000  FFFFFFFF USING  ORDINARY    00000000 00001000 FFFFFFF4  10 000          @R10,10
    946  00000000  FFFFFFFF USING  ORDINARY    00000000 00001000 FFFFFFF5   9 000          @R9,9
    950  00000000  FFFFFFFF USING  ORDINARY    00000000 00001000 FFFFFFF6   8 000          @R8,8
    954  00000000  FFFFFFFF USING  ORDINARY    00000000 00001000 FFFFFFF7   7 000          @R7,7
    958  00000000  FFFFFFFF USING  ORDINARY    00000000 00001000 FFFFFFF8   6 000          @R6,6
    962  00000000  FFFFFFFF USING  ORDINARY    00000000 00001000 FFFFFFF9   5 000          @R5,5
    966  00000000  FFFFFFFF USING  ORDINARY    00000000 00001000 FFFFFFFA   4 004   17579  @R4,4
    970  00000000  FFFFFFFF USING  ORDINARY    00000000 00001000 FFFFFFFB   3 000   16829  @R3,3
    974  00000000  FFFFFFFF USING  ORDINARY    00000000 00001000 FFFFFFFC   2 01C   43392  @R2,2
    978  00000000  FFFFFFFF USING  ORDINARY    00000000 00001000 FFFFFFFD   1 010   55903  @R1,1
    982  00000000  FFFFFFFF USING  ORDINARY    00000000 00001000 FFFFFFFE   0 000          @R0,0
    983  00000000  FFFFFFFF DROP                                            0              0
   5247  00000018  FFFFFFE1 USING  ORDINARY    00000000 00001000 FFFFFFDD  11 F06   58743  CP,CPR
   5256  00000018  FFFFFFE1 USING  ORDINARY    00000000 00001000 FFFFFFDF  12 DFC   58489  CV,CVR
  11084  00000032  00000001 USING  ORDINARY    00000032 00001000 00000001   7 878   11284  $$$57B,7
  11297  0000017A  00000001 USING  ORDINARY    00000000 00001000 FFFFFFF7   7 000          @R7,7
  11342  000001A2  00000001 USING  ORDINARY    000001A2 00001000 00000001   7 70C   11356  $$$63B,7
  11365  000001B4  00000001 USING  ORDINARY    00000000 00001000 FFFFFFF7   7 000          @R7,7
  11410  000001DC  00000001 USING  ORDINARY    000001DC 00001000 00000001   7 6AC   11491  $$$66B,7
  11504  0000020C  00000001 USING  ORDINARY    00000000 00001000 FFFFFFF7   7 000          @R7,7
  11549  00000234  00000001 USING  ORDINARY    00000234 00001000 00000001   7 654   11631  $$$73B,7
  11644  00000264  00000001 USING  ORDINARY    00000000 00001000 FFFFFFF7   7 000          @R7,7
  11689  0000028C  00000001 USING  ORDINARY    0000028C 00001000 00000001   7 61C   11807  $$$80B,7
  11846  00000334  00000001 USING  ORDINARY    00000000 00001000 FFFFFFF7   7 000          @R7,7
  11891  0000035C  00000001 USING  ORDINARY    0000035C 00001000 00000001   7 565   11919  $$$87B,7
  11927  00000374  00000001 USING  ORDINARY    00000000 00001000 FFFFFFF7   7 000          @R7,7
  11972  0000039C  00000001 USING  ORDINARY    0000039C 00001000 00000001   7 000          $$$91B,7
  11989  000003A4  00000001 USING  ORDINARY    00000000 00001000 FFFFFFF7   7 000          @R7,7
  12034  000003CC  00000001 USING  ORDINARY    000003CC 00001000 00000001   7 000          $$$94B,7
  12057  000003D4  00000001 USING  ORDINARY    00000000 00001000 FFFFFFF7   7 000          @R7,7
  12102  000003FC  00000001 USING  ORDINARY    000003FC 00001000 00000001   7 000          $$$97B,7
  12124  00000404  00000001 USING  ORDINARY    00000000 00001000 FFFFFFF7   7 000          @R7,7
  12169  0000042C  00000001 USING  ORDINARY    0000042C 00001000 00000001   7 464   12195  $$$100B,7
  12209  00000440  00000001 USING  ORDINARY    00000000 00001000 FFFFFFF7   7 000          @R7,7
  12254  00000468  00000001 USING  ORDINARY    00000468 00001000 00000001   7 460   12361  $$$104B,7
  12370  000004F4  00000001 USING  ORDINARY    00000000 00001000 FFFFFFF7   7 000          @R7,7
  12415  0000051C  00000001 USING  ORDINARY    0000051C 00001000 00000001   7 38C   12503  $$$109B,7
  12517  000005A2  00000001 USING  ORDINARY    00000000 00001000 FFFFFFF7   7 000          @R7,7
  12562  000005CA  00000001 USING  ORDINARY    000005CA 00001000 00000001   7 2DE   12620  $$$114B,7
  12630  00000636  00000001 USING  ORDINARY    00000000 00001000 FFFFFFF7   7 000          @R7,7
  12675  0000065E  00000001 USING  ORDINARY    0000065E 00001000 00000001   7 24A   12750  $$$117B,7
  12768  000006D0  00000001 USING  ORDINARY    00000000 00001000 FFFFFFF7   7 000          @R7,7
  12814  000006F8  00000001 USING  ORDINARY    000006F8 00001000 00000001   7 1B2   12886  $$$122B,7
  12894  0000076E  00000001 USING  ORDINARY    00000000 00001000 FFFFFFF7   7 000          @R7,7
  12939  00000796  00000001 USING  ORDINARY    00000796 00001000 00000001   7 000          $$$126B,7
  12957  0000079C  00000001 USING  ORDINARY    00000000 00001000 FFFFFFF7   7 000          @R7,7
  13002  000007C4  00000001 USING  ORDINARY    000007C4 00001000 00000001   7 0DC   13011  $$$129B,7
  13020  000007CC  00000001 USING  ORDINARY    00000000 00001000 FFFFFFF7   7 000          @R7,7
1MODE     (MODE4072) (12:48) (15MAR04) Using Map                                                                            Page  272
  13065  000007F4  00000001 USING  ORDINARY    000007F4 00001000 00000001   7 0B4   13109  $$$132B,7
  13118  00000850  00000001 USING  ORDINARY    00000000 00001000 FFFFFFF7   7 000          @R7,7
  13220  000008E6  00000001 USING  ORDINARY    000008E6 00001000 00000001   7 86E   13428  $$$135B,7
  13234  000008E6  00000001 USING  ORDINARY    FFFFFFD8 00001000 FFFFFFD6   8 028   13425  ESCWA-(4+36),R8
  13437  000009B6  00000001 USING  ORDINARY    00000000 00001000 FFFFFFF6   8 000          @R8,8
  13442  000009B6  00000001 USING  ORDINARY    00000000 00001000 FFFFFFF7   7 000          @R7,7
  13508  000009DE  00000001 USING  ORDINARY    000009DE 00001000 00000001   7 776   13688  $$$143B,7
  13522  000009DE  00000001 USING  ORDINARY    FFFFFFD8 00001000 FFFFFFD5   8 028   13685  SKIPWA-(4+36),R8
  13697  00000A94  00000001 USING  ORDINARY    00000000 00001000 FFFFFFF6   8 000          @R8,8
  13702  00000A94  00000001 USING  ORDINARY    00000000 00001000 FFFFFFF7   7 000          @R7,7
  13748  00000ABC  00000001 USING  ORDINARY    00000ABC 00001000 00000001   7 630   13760  $$$150B,7
  13768  00000AC6  00000001 USING  ORDINARY    00000000 00001000 FFFFFFF7   7 000          @R7,7
  13813  00000AEE  00000001 USING  ORDINARY    00000AEE 00001000 00000001   7 68C   13960  $$$153B,7
  13969  00000BB2  00000001 USING  ORDINARY    00000000 00001000 FFFFFFF7   7 000          @R7,7
  14014  00000BDA  00000001 USING  ORDINARY    00000BDA 00001000 00000001   7 5B7   14366  $$$160B,7
  14381  00000CF2  00000001 USING  ORDINARY    00000000 00001000 FFFFFFF7   7 000          @R7,7
  14426  00000D1A  00000001 USING  ORDINARY    00000D1A 00001000 00000001   7 40A   14470  $$$175B,7
  14479  00000D76  00000001 USING  ORDINARY    00000000 00001000 FFFFFFF7   7 000          @R7,7
  14524  00000D9E  00000001 USING  ORDINARY    00000D9E 00001000 00000001   7 00C   14545  $$$178B,7
  14564  00000DAA  00000001 USING  ORDINARY    00000000 00001000 FFFFFFF7   7 000          @R7,7
  14609  00000DD2  00000001 USING  ORDINARY    00000DD2 00001000 00000001   7 3B8   14654  $$$183B,7
  14666  00000E32  00000001 USING  ORDINARY    00000000 00001000 FFFFFFF7   7 000          @R7,7
  14711  00000E5A  00000001 USING  ORDINARY    00000E5A 00001000 00000001   7 000          $$$186B,7
  14733  00000E60  00000001 USING  ORDINARY    00000000 00001000 FFFFFFF7   7 000          @R7,7
  14826  00000F02  00000001 USING  ORDINARY    00000F02 00001000 00000001   7 034   14871  $$$189B,7
  14905  00000F42  00000001 USING  ORDINARY    00000000 00001000 FFFFFFF7   7 000          @R7,7
  14950  00000F6A  00000001 USING  ORDINARY    00000F6A 00001000 00000001   7 000          $$$194B,7
  14967  00000F72  00000001 USING  ORDINARY    00000000 00001000 FFFFFFF7   7 000          @R7,7
  15016  00000F9A  00000001 USING  ORDINARY    00000F9A 00001000 00000001   7 18A   15060  $$$197B,7
  15069  00000FF6  00000001 USING  ORDINARY    00000000 00001000 FFFFFFF7   7 000          @R7,7
  15114  0000101E  00000001 USING  ORDINARY    0000101E 00001000 00000001   7 000          $$$200B,7
  15136  00001022  00000001 USING  ORDINARY    00000000 00001000 FFFFFFF7   7 000          @R7,7
  15181  0000104A  00000001 USING  ORDINARY    0000104A 00001000 00000001   7 000          $$$203B,7
  15202  0000104E  00000001 USING  ORDINARY    00000000 00001000 FFFFFFF7   7 000          @R7,7
  15334  000011AE  00000001 USING  ORDINARY    000011AE 00001000 00000001   7 146   15378  $$$206B,7
  15387  0000120A  00000001 USING  ORDINARY    00000000 00001000 FFFFFFF7   7 000          @R7,7
  15432  00001232  00000001 USING  ORDINARY    00001232 00001000 00000001   7 000          $$$209B,7
  15453  00001236  00000001 USING  ORDINARY    00000000 00001000 FFFFFFF7   7 000          @R7,7
  15498  0000125E  00000001 USING  ORDINARY    0000125E 00001000 00000001   7 000          $$$212B,7
  15520  00001262  00000001 USING  ORDINARY    00000000 00001000 FFFFFFF7   7 000          @R7,7
  15634  00001310  00000001 USING  ORDINARY    00001310 00001000 00000001   7 730   15833  $$$215B,7
  15843  000013C8  00000001 USING  ORDINARY    00000000 00001000 FFFFFFF7   7 000          @R7,7
  15892  000013F0  00000001 USING  ORDINARY    000013F0 00001000 00000001   7 60C   15905  $$$222B,7
  15920  000013FE  00000001 USING  ORDINARY    00000000 00001000 FFFFFFF7   7 000          @R7,7
  15968  00001426  00000001 USING  ORDINARY    00001426 00001000 00000001   7 5D6   15981  $$$225B,7
  15997  00001434  00000001 USING  ORDINARY    00000000 00001000 FFFFFFF7   7 000          @R7,7
  16045  0000145C  00000001 USING  ORDINARY    0000145C 00001000 00000001   7 5A0   16058  $$$228B,7
  16073  0000146A  00000001 USING  ORDINARY    00000000 00001000 FFFFFFF7   7 000          @R7,7
  16121  00001492  00000001 USING  ORDINARY    00001492 00001000 00000001   7 56A   16134  $$$231B,7
  16150  000014A0  00000001 USING  ORDINARY    00000000 00001000 FFFFFFF7   7 000          @R7,7
  16200  000014C8  00000001 USING  ORDINARY    000014C8 00001000 00000001   7 538   16211  $$$234B,7
  16220  000014D2  00000001 USING  ORDINARY    00000000 00001000 FFFFFFF7   7 000          @R7,7
  16272  000014FA  00000001 USING  ORDINARY    000014FA 00001000 00000001   7 54C   16413  $$$237B,7
  16422  000015FE  00000001 USING  ORDINARY    00000000 00001000 FFFFFFF7   7 000          @R7,7
  16481  00001626  00000001 USING  ORDINARY    00001626 00001000 00000001   7 454   17045  $$$241B,7
  16507  00001632  00000001 USING  ORDINARY    00000000 00001000 FFFFFFD8   6 218   16566  FFINFO,R6
  16589  00001676  00000001 USING  ORDINARY    00000000 00001000 FFFFFFF8   6 000          @R6,6
  16917  0000174E  00000001 USING  ORDINARY    00000000 00001000 FFFFFFD8   6 000   16919  FFINFO,R6
  16925  00001754  00000001 USING  ORDINARY    00000000 00001000 FFFFFFF8   6 000   17503  @R6,6
1MODE     (MODE4072) (12:48) (15MAR04) Using Map                                                                            Page  273
  17053  00001796  00000001 USING  ORDINARY    00000000 00001000 FFFFFFF7   7 000          @R7,7
  17099  000017BE  00000001 USING  ORDINARY    000017BE 00001000 00000001   7 282   17143  $$$271B,7
  17153  0000181E  00000001 USING  ORDINARY    00000000 00001000 FFFFFFF7   7 000          @R7,7
  17198  00001846  00000001 USING  ORDINARY    00001846 00001000 00000001   7 1F2   17306  $$$274B,7
  17287  0000187A  00000001 USING  ORDINARY    00000000 00001000 FFFFFFE0   5 100   17298  KWR,R5
  17317  000018AC  00000001 USING  ORDINARY    00000000 00001000 FFFFFFF9   5 006   17578  @R5,5
  17326  000018B0  00000001 USING  ORDINARY    00000000 00001000 FFFFFFF7   7 000          @R7,7
  17376  000018D8  00000001 USING  ORDINARY    000018D8 00001000 00000001   7 180   17583  $$$280B,7
  17592  000019AE  00000001 USING  ORDINARY    00000000 00001000 FFFFFFF7   7 000          @R7,7
  20308  000035CA  00000001 USING  ORDINARY    000035CA 00001000 00000001   7 000          $$$289B,7
  20329  000035CE  00000001 USING  ORDINARY    00000000 00001000 FFFFFFF7   7 000          @R7,7
  20374  000035F6  00000001 USING  ORDINARY    000035F6 00001000 00000001   7 000          $$$292B,7
  20396  000035FA  00000001 USING  ORDINARY    00000000 00001000 FFFFFFF7   7 000          @R7,7
  20441  00003622  00000001 USING  ORDINARY    00003622 00001000 00000001   7 00C   20462  $$$295B,7
  20480  0000362E  00000001 USING  ORDINARY    00000000 00001000 FFFFFFF7   7 000          @R7,7
  20525  00003656  00000001 USING  ORDINARY    00003656 00001000 00000001   7 00C   20546  $$$299B,7
  20565  00003662  00000001 USING  ORDINARY    00000000 00001000 FFFFFFF7   7 000          @R7,7
  20610  0000368A  00000001 USING  ORDINARY    0000368A 00001000 00000001   7 000          $$$303B,7
  20631  0000368E  00000001 USING  ORDINARY    00000000 00001000 FFFFFFF7   7 000          @R7,7
  20676  000036B6  00000001 USING  ORDINARY    000036B6 00001000 00000001   7 00C   20697  $$$306B,7
  20716  000036C2  00000001 USING  ORDINARY    00000000 00001000 FFFFFFF7   7 000          @R7,7
  20761  000036EA  00000001 USING  ORDINARY    000036EA 00001000 00000001   7 000          $$$310B,7
  20785  000036EE  00000001 USING  ORDINARY    00000000 00001000 FFFFFFF7   7 000          @R7,7
  21266  00003AD6  00000001 USING  ORDINARY    00003AD6 00001000 00000001   7 065   21295  $$$318B,7
  21304  00003AF4  00000001 USING  ORDINARY    00000000 00001000 FFFFFFF7   7 000          @R7,7
  21370  00003B66  00000001 USING  ORDINARY    00003B66 00001000 00000001   7 0FC   21486  $$$321B,7
  21495  00003C40  00000001 USING  ORDINARY    00000000 00001000 FFFFFFF7   7 000          @R7,7
  22045  0000417E  00000001 USING  ORDINARY    0000417E 00001000 00000001   7 906   22059  $$$324B,7
  22068  00004190  00000001 USING  ORDINARY    00000000 00001000 FFFFFFF7   7 000          @R7,7
  22113  000041B8  00000001 USING  ORDINARY    000041B8 00001000 00000001   7 820   22124  $$$327B,7
  22133  000041C2  00000001 USING  ORDINARY    00000000 00001000 FFFFFFF7   7 000          @R7,7
  22181  000041EA  00000001 USING  ORDINARY    000041EA 00001000 00000001   7 8CE   22617  $$$330B,7
  22645  0000432C  00000001 USING  ORDINARY    00000000 00001000 FFFFFFF7   7 000          @R7,7
  22727  00004354  00000001 USING  ORDINARY    00004354 00001000 00000001   7 767   22943  $$$348B,7
  22741  00004354  00000001 USING  ORDINARY    FFFFFFD8 00001000 FFFFFFD4   8 028   22745  CACTWA-(4+36),R8
  22753  00004358  00000001 USING  ORDINARY    00000000 00001000 FFFFFFD4   6 000   23091  CACTWA,R6
  22957  00004418  00000001 USING  ORDINARY    00000000 00001000 FFFFFFF6   8 000          @R8,8
  22962  00004418  00000001 USING  ORDINARY    00000000 00001000 FFFFFFF7   7 000          @R7,7
  23171  000045AA  00000001 USING  ORDINARY    000045AA 00001000 00000001   7 4BC   23208  $$$356B,7
  23217  000045C0  00000001 USING  ORDINARY    00000000 00001000 FFFFFFF7   7 000          @R7,7
  23237  000045CE  00000001 USING  ORDINARY    00000000 00001000 FFFFFFF8   6 000          @R6,6
  23302  000045E8  00000001 USING  ORDINARY    000045E8 00001000 00000001   7 458   23413  $$$359B,7
  23316  000045E8  00000001 USING  ORDINARY    FFFFFFD8 00001000 FFFFFFD3   8 028   23320  CACTSWA-(4+36),R8
  23328  000045EC  00000001 USING  ORDINARY    00000000 00001000 FFFFFFD3   6 000   23498  CACTSWA,R6
  23422  00004668  00000001 USING  ORDINARY    00000000 00001000 FFFFFFF6   8 000          @R8,8
  23427  00004668  00000001 USING  ORDINARY    00000000 00001000 FFFFFFF7   7 000          @R7,7
  23548  00004732  00000001 USING  ORDINARY    00004732 00001000 00000001   7 398   23585  $$$363B,7
  23594  00004748  00000001 USING  ORDINARY    00000000 00001000 FFFFFFF7   7 000          @R7,7
  23614  00004756  00000001 USING  ORDINARY    00000000 00001000 FFFFFFF8   6 000          @R6,6
  23684  00004770  00000001 USING  ORDINARY    00004770 00001000 00000001   7 2D0   23808  $$$366B,7
  23698  00004770  00000001 USING  ORDINARY    FFFFFFD8 00001000 FFFFFFD2   8 028   23702  CEXECWA-(4+36),R8
  23710  00004774  00000001 USING  ORDINARY    00000000 00001000 FFFFFFD2   6 000   23917  CEXECWA,R6
  23822  000047F6  00000001 USING  ORDINARY    00000000 00001000 FFFFFFF6   8 000          @R8,8
  23827  000047F6  00000001 USING  ORDINARY    00000000 00001000 FFFFFFF7   7 000          @R7,7
  23997  00004936  00000001 USING  ORDINARY    00004936 00001000 00000001   7 0E2   24034  $$$371B,7
  24043  0000494C  00000001 USING  ORDINARY    00000000 00001000 FFFFFFF7   7 000          @R7,7
  24063  0000495A  00000001 USING  ORDINARY    00000000 00001000 FFFFFFF8   6 000          @R6,6
  24100  00004974  00000001 USING  ORDINARY    00004974 00001000 00000001   7 175   24179  $$$374B,7
  24195  000049AE  00000001 USING  ORDINARY    00000000 00001000 FFFFFFF7   7 000          @R7,7
1MODE     (MODE4072) (12:48) (15MAR04) Using Map                                                                            Page  274
  24299  00004B10  00000001 USING  ORDINARY    00004B10 00001000 00000001   7 498   24434  $$$380B,7
  24444  00004B9E  00000001 USING  ORDINARY    00000000 00001000 FFFFFFF7   7 000          @R7,7
  24531  00004BC6  00000001 USING  ORDINARY    00004BC6 00001000 00000001   7 3E2   24689  $$$387B,7
  24545  00004BC6  00000001 USING  ORDINARY    FFFFFFD8 00001000 FFFFFFD1   8 028   24549  CPREFWA-(4+36),R8
  24557  00004BCA  00000001 USING  ORDINARY    00000000 00001000 FFFFFFD1   6 000   24816  CPREFWA,R6
  24703  00004C66  00000001 USING  ORDINARY    00000000 00001000 FFFFFFF6   8 000          @R8,8
  24708  00004C66  00000001 USING  ORDINARY    00000000 00001000 FFFFFFF7   7 000          @R7,7
  24866  00004D7E  00000001 USING  ORDINARY    00004D7E 00001000 00000001   7 22C   24903  $$$393B,7
  24912  00004D94  00000001 USING  ORDINARY    00000000 00001000 FFFFFFF7   7 000          @R7,7
  24932  00004DA2  00000001 USING  ORDINARY    00000000 00001000 FFFFFFF8   6 000          @R6,6
  25002  00004DBC  00000001 USING  ORDINARY    00004DBC 00001000 00000001   7 1EC   25131  $$$396B,7
  25016  00004DBC  00000001 USING  ORDINARY    FFFFFFD8 00001000 FFFFFFD0   8 028   25020  CVARSWA-(4+36),R8
  25028  00004DC0  00000001 USING  ORDINARY    00000000 00001000 FFFFFFD0   6 000   25201  CVARSWA,R6
  25145  00004E46  00000001 USING  ORDINARY    00000000 00001000 FFFFFFF6   8 000          @R8,8
  25150  00004E46  00000001 USING  ORDINARY    00000000 00001000 FFFFFFF7   7 000          @R7,7
  25281  00004F36  00000001 USING  ORDINARY    00004F36 00001000 00000001   7 092   25318  $$$401B,7
  25327  00004F4C  00000001 USING  ORDINARY    00000000 00001000 FFFFFFF7   7 000          @R7,7
  25347  00004F5A  00000001 USING  ORDINARY    00000000 00001000 FFFFFFF8   6 000          @R6,6
  25411  00005004  00000001 USING  ORDINARY    00005004 00001000 00000001   7 888   25508  $$$404B,7
  25518  0000507E  00000001 USING  ORDINARY    00000000 00001000 FFFFFFF7   7 000          @R7,7
  25566  000050A6  00000001 USING  ORDINARY    000050A6 00001000 00000001   7 805   25663  $$$408B,7
  25673  00005120  00000001 USING  ORDINARY    00000000 00001000 FFFFFFF7   7 000          @R7,7
  25721  00005148  00000001 USING  ORDINARY    00005148 00001000 00000001   7 782   25818  $$$412B,7
  25828  000051C2  00000001 USING  ORDINARY    00000000 00001000 FFFFFFF7   7 000          @R7,7
  25876  000051EA  00000001 USING  ORDINARY    000051EA 00001000 00000001   7 648   25985  $$$416B,7
  25995  0000526A  00000001 USING  ORDINARY    00000000 00001000 FFFFFFF7   7 000          @R7,7
  26043  00005292  00000001 USING  ORDINARY    00005292 00001000 00000001   7 59E   26152  $$$420B,7
  26162  00005312  00000001 USING  ORDINARY    00000000 00001000 FFFFFFF7   7 000          @R7,7
  26210  0000533A  00000001 USING  ORDINARY    0000533A 00001000 00000001   7 5AF   26298  $$$424B,7
  26320  000053B8  00000001 USING  ORDINARY    00000000 00001000 FFFFFFF7   7 000          @R7,7
  26368  000053E0  00000001 USING  ORDINARY    000053E0 00001000 00000001   7 509   26456  $$$428B,7
  26478  0000545E  00000001 USING  ORDINARY    00000000 00001000 FFFFFFF7   7 000          @R7,7
  26526  00005486  00000001 USING  ORDINARY    00005486 00001000 00000001   7 46E   26624  $$$432B,7
  26634  00005500  00000001 USING  ORDINARY    00000000 00001000 FFFFFFF7   7 000          @R7,7
  26686  00005528  00000001 USING  ORDINARY    00005528 00001000 00000001   7 308   26784  $$$436B,7
  26794  000055A2  00000001 USING  ORDINARY    00000000 00001000 FFFFFFF7   7 000          @R7,7
  26842  000055CA  00000001 USING  ORDINARY    000055CA 00001000 00000001   7 347   26936  $$$440B,7
  26952  0000564A  00000001 USING  ORDINARY    00000000 00001000 FFFFFFF7   7 000          @R7,7
  27000  00005672  00000001 USING  ORDINARY    00005672 00001000 00000001   7 1FC   27097  $$$444B,7
  27106  000056EC  00000001 USING  ORDINARY    00000000 00001000 FFFFFFF7   7 000          @R7,7
  27154  00005714  00000001 USING  ORDINARY    00005714 00001000 00000001   7 11C   27241  $$$448B,7
  27263  0000578E  00000001 USING  ORDINARY    00000000 00001000 FFFFFFF7   7 000          @R7,7
  27352  0000594A  00000001 USING  ORDINARY    0000594A 00001000 00000001   7 67C   29028  $$$452B,7
  27366  0000594A  00000001 USING  ORDINARY    FFFFFFD8 00001000 FFFFFFE0   8 028   27370  KWR-(4+36),R8
  27378  0000594E  00000001 USING  ORDINARY    00000000 00001000 FFFFFFE0   5 100   27833  KWR,R5
  29038  00005E2E  00000001 USING  ORDINARY    00000000 00001000 FFFFFFF6   8 000          @R8,8
  29043  00005E2E  00000001 USING  ORDINARY    00000000 00001000 FFFFFFF7   7 000          @R7,7
  29064  00005E3C  00000001 USING  ORDINARY    00000000 00001000 FFFFFFF9   5 001   37331  @R5,5
  29209  00005FEA  00000001 USING  ORDINARY    00005FEA 00001000 00000001   7 DCA   29224  $$$468B,7
  29233  00005FFA  00000001 USING  ORDINARY    00000000 00001000 FFFFFFF7   7 000          @R7,7
  29278  00006022  00000001 USING  ORDINARY    00006022 00001000 00000001   7 EC0   29826  $$$471B,7
  29835  000061B6  00000001 USING  ORDINARY    00000000 00001000 FFFFFFF7   7 000          @R7,7
  29884  000061DE  00000001 USING  ORDINARY    000061DE 00001000 00000001   7 D0B   29977  $$$485B,7
  29986  00006220  00000001 USING  ORDINARY    00000000 00001000 FFFFFFF7   7 000          @R7,7
  30035  00006248  00000001 USING  ORDINARY    00006248 00001000 00000001   7 CA6   30108  $$$489B,7
  30117  00006286  00000001 USING  ORDINARY    00000000 00001000 FFFFFFF7   7 000          @R7,7
  30172  000062AE  00000001 USING  ORDINARY    000062AE 00001000 00000001   7 C47   30260  $$$493B,7
  30269  000062F0  00000001 USING  ORDINARY    00000000 00001000 FFFFFFF7   7 000          @R7,7
  30319  00006318  00000001 USING  ORDINARY    00006318 00001000 00000001   7 B56   30526  $$$499B,7
1MODE     (MODE4072) (12:48) (15MAR04) Using Map                                                                            Page  275
  30540  00006466  00000001 USING  ORDINARY    00000000 00001000 FFFFFFF7   7 000          @R7,7
  30585  0000648E  00000001 USING  ORDINARY    0000648E 00001000 00000001   7 A6A   30637  $$$505B,7
  30650  000064BE  00000001 USING  ORDINARY    00000000 00001000 FFFFFFF7   7 000          @R7,7
  30699  000064E6  00000001 USING  ORDINARY    000064E6 00001000 00000001   7 A2B   30876  $$$510B,7
  30886  000065B0  00000001 USING  ORDINARY    00000000 00001000 FFFFFFF7   7 000          @R7,7
  31099  00006792  00000001 USING  ORDINARY    00006792 00001000 00000001   7 6DE   31124  $$$516B,7
  31133  000067A8  00000001 USING  ORDINARY    00000000 00001000 FFFFFFF7   7 000          @R7,7
  31178  000067D0  00000001 USING  ORDINARY    000067D0 00001000 00000001   7 74E   31203  $$$519B,7
  31212  000067E6  00000001 USING  ORDINARY    00000000 00001000 FFFFFFF7   7 000          @R7,7
  31257  0000680E  00000001 USING  ORDINARY    0000680E 00001000 00000001   7 66C   31282  $$$522B,7
  31291  00006824  00000001 USING  ORDINARY    00000000 00001000 FFFFFFF7   7 000          @R7,7
  31336  0000684C  00000001 USING  ORDINARY    0000684C 00001000 00000001   7 634   31361  $$$525B,7
  31370  00006862  00000001 USING  ORDINARY    00000000 00001000 FFFFFFF7   7 000          @R7,7
  31415  0000688A  00000001 USING  ORDINARY    0000688A 00001000 00000001   7 69D   31440  $$$528B,7
  31449  000068A0  00000001 USING  ORDINARY    00000000 00001000 FFFFFFF7   7 000          @R7,7
  31494  000068C8  00000001 USING  ORDINARY    000068C8 00001000 00000001   7 666   31519  $$$531B,7
  31528  000068DE  00000001 USING  ORDINARY    00000000 00001000 FFFFFFF7   7 000          @R7,7
  31573  00006906  00000001 USING  ORDINARY    00006906 00001000 00000001   7 60B   31598  $$$534B,7
  31607  0000691C  00000001 USING  ORDINARY    00000000 00001000 FFFFFFF7   7 000          @R7,7
  31654  00006944  00000001 USING  ORDINARY    00006944 00001000 00000001   7 5F3   31712  $$$537B,7
  31721  00006974  00000001 USING  ORDINARY    00000000 00001000 FFFFFFF7   7 000          @R7,7
  31766  0000699C  00000001 USING  ORDINARY    0000699C 00001000 00000001   7 4EA   31823  $$$540B,7
  31832  000069CA  00000001 USING  ORDINARY    00000000 00001000 FFFFFFF7   7 000          @R7,7
  31878  000069F2  00000001 USING  ORDINARY    000069F2 00001000 00000001   7 54D   32026  $$$543B,7
  32039  00006A62  00000001 USING  ORDINARY    00000000 00001000 FFFFFFF7   7 000          @R7,7
  32085  00006A8A  00000001 USING  ORDINARY    00006A8A 00001000 00000001   7 4C9   32186  $$$548B,7
  32199  00006AD8  00000001 USING  ORDINARY    00000000 00001000 FFFFFFF7   7 000          @R7,7
  32244  00006B00  00000001 USING  ORDINARY    00006B00 00001000 00000001   7 45C   32350  $$$553B,7
  32363  00006B4E  00000001 USING  ORDINARY    00000000 00001000 FFFFFFF7   7 000          @R7,7
  32408  00006B76  00000001 USING  ORDINARY    00006B76 00001000 00000001   7 31E   32528  $$$558B,7
  32541  00006BCA  00000001 USING  ORDINARY    00000000 00001000 FFFFFFF7   7 000          @R7,7
  32586  00006BF2  00000001 USING  ORDINARY    00006BF2 00001000 00000001   7 373   32692  $$$563B,7
  32705  00006C3E  00000001 USING  ORDINARY    00000000 00001000 FFFFFFF7   7 000          @R7,7
  32750  00006C66  00000001 USING  ORDINARY    00006C66 00001000 00000001   7 252   32856  $$$568B,7
  32869  00006CB2  00000001 USING  ORDINARY    00000000 00001000 FFFFFFF7   7 000          @R7,7
  32914  00006CDA  00000001 USING  ORDINARY    00006CDA 00001000 00000001   7 29E   32960  $$$573B,7
  32969  00006D00  00000001 USING  ORDINARY    00000000 00001000 FFFFFFF7   7 000          @R7,7
  33014  00006D28  00000001 USING  ORDINARY    00006D28 00001000 00000001   7 260   33088  $$$576B,7
  33097  00006D68  00000001 USING  ORDINARY    00000000 00001000 FFFFFFF7   7 000          @R7,7
  35927  00008BBA  00000001 USING  ORDINARY    00008BBA 00001000 00000001   7 19E   35939  $$$579B,7
  35949  00008BC4  00000001 USING  ORDINARY    00000000 00001000 FFFFFFF7   7 000          @R7,7
  35998  00008BEC  00000001 USING  ORDINARY    00008BEC 00001000 00000001   7 18C   36042  $$$582B,7
  36052  00008C10  00000001 USING  ORDINARY    00000000 00001000 FFFFFFF7   7 000          @R7,7
  36102  00008C38  00000001 USING  ORDINARY    00008C38 00001000 00000001   7 167   36507  $$$585B,7
  36517  00008D44  00000001 USING  ORDINARY    00000000 00001000 FFFFFFF7   7 000          @R7,7
  36595  00008DC2  00000001 USING  ORDINARY    00008DC2 00001000 00000001   7 366   36700  $$$595B,7
  36709  00008E40  00000001 USING  ORDINARY    00000000 00001000 FFFFFFF7   7 000          @R7,7
  36860  00008F82  00000001 USING  ORDINARY    00008F82 00001000 00000001   7 18E   36886  $$$602B,7
  36901  00008F94  00000001 USING  ORDINARY    00000000 00001000 FFFFFFF7   7 000          @R7,7
  36946  00008FBC  00000001 USING  ORDINARY    00008FBC 00001000 00000001   7 000          $$$606B,7
  36964  00008FC2  00000001 USING  ORDINARY    00000000 00001000 FFFFFFF7   7 000          @R7,7
  37016  00008FEA  00000001 USING  ORDINARY    00008FEA 00001000 00000001   7 140   37360  $$$609B,7
  37368  000090B2  00000001 USING  ORDINARY    00000000 00001000 FFFFFFF7   7 000          @R7,7
  37449  0000914E  00000001 USING  ORDINARY    0000914E 00001000 00000001   7 1E2   38003  $$$623B,7
  37471  00009158  00000001 USING  ORDINARY    00000000 00001000 FFFFFFED   5 0CC   37956  CVT,R5
  37515  00009174  00000001 USING  ORDINARY    00000000 00001000 FFFFFFEE   4 01C   37581  USERCVT,R4
  37620  000091C2  00000001 USING  ORDINARY    00000000 00001000 FFFFFFFA   4 000          @R4,4
  37635  000091C6  00000001 USING  ORDINARY    00000000 00001000 FFFFFFE8   4 01C   37709  UCBOB,R4
  37706  000091FC  00000001 DROP                                           15              15
1MODE     (MODE4072) (12:48) (15MAR04) Using Map                                                                            Page  276
  37710  00009202  00000001 USING  ORDINARY    00000000 00001000 FFFFFFEF  15 000          @R15,15
  38012  000092CC  00000001 USING  ORDINARY    00000000 00001000 FFFFFFF7   7 000          @R7,7
  38033  000092DA  00000001 USING  ORDINARY    00000000 00001000 FFFFFFFA   4 001   57913  @R4,4
  38040  000092DA  00000001 USING  ORDINARY    00000000 00001000 FFFFFFF9   5 000          @R5,5
  38112  0000934C  00000001 USING  ORDINARY    0000934C 00001000 00000001   7 098   38261  $$$633B,7
  38271  000093B8  00000001 USING  ORDINARY    00000000 00001000 FFFFFFF7   7 000          @R7,7
  38368  00009400  00000001 USING  ORDINARY    00009400 00001000 00000001   7 130   38422  $$$636B,7
  38431  00009466  00000001 USING  ORDINARY    00000000 00001000 FFFFFFF7   7 000          @R7,7
  38522  00009506  00000001 USING  ORDINARY    00009506 00001000 00000001   7 000          $$$639B,7
  38540  0000950E  00000001 USING  ORDINARY    00000000 00001000 FFFFFFF7   7 000          @R7,7
  38611  0000954C  00000001 USING  ORDINARY    0000954C 00001000 00000001   7 FFA   42663  $$$642B,7
  39800  0000989A  00000001 USING  ORDINARY    00000000 00001000 FFFFFFE9  15 0C8   39806  ASCB,R15
  39813  0000989E  00000001 USING  ORDINARY    00000000 00001000 FFFFFFEF  15 000          @R15,15
  39934  000098E6  00000001 USING  ORDINARY    00000000 00001000 FFFFFFE9  15 040   39940  ASCB,R15
  39947  000098EA  00000001 USING  ORDINARY    00000000 00001000 FFFFFFEF  15 000          @R15,15
  40062  0000992E  00000001 USING  ORDINARY    00000000 00001000 FFFFFFE9  15 040   40068  ASCB,R15
  40075  00009932  00000001 USING  ORDINARY    00000000 00001000 FFFFFFEF  15 000          @R15,15
  40962  00009BAC  00000001 USING  ORDINARY    00000000 00001000 FFFFFFDA   5 0A4   41217  PFCB,R5
  41244  00009C74  00000001 USING  ORDINARY    00000000 00001000 FFFFFFF9   5 000          @R5,5
  42673  0000A0C0  00000001 USING  ORDINARY    00000000 00001000 FFFFFFF7   7 000          @R7,7
  42822  0000A578  00000001 USING  ORDINARY    0000A578 00001000 00000001   7 2FC   43624  $$$669B,7
  42887  0000A5A0  00000001 USING  ORDINARY    00000000 00001000 FFFFFFCF   6 00C   43130  PAT,R6
  43136  0000A650  00000001 USING  ORDINARY    00000000 00001000 FFFFFFF8   6 000          @R6,6
  43270  0000A6A6  00000001 USING  ORDINARY    00000000 00001000 FFFFFFDA   6 0A4   43594  PFCB,R6
  43621  0000A7B8  00000001 USING  ORDINARY    00000000 00001000 FFFFFFF8   6 000          @R6,6
  43637  0000A7BC  00000001 USING  ORDINARY    00000000 00001000 FFFFFFF7   7 000          @R7,7
  43721  0000A896  00000001 USING  ORDINARY    0000A896 00001000 00000001   7 5A6   44234  $$$683B,7
  43987  0000A98A  00000001 USING  ORDINARY    00000000 00001000 FFFFFFE9  15 040   43993  ASCB,R15
  44000  0000A98E  00000001 USING  ORDINARY    00000000 00001000 FFFFFFEF  15 000          @R15,15
  44244  0000AA56  00000001 USING  ORDINARY    00000000 00001000 FFFFFFF7   7 000          @R7,7
  44337  0000AAF6  00000001 USING  ORDINARY    0000AAF6 00001000 00000001   7 34D   44376  $$$691B,7
  44357  0000AB00  00000001 USING  ORDINARY    00000000 00001000 FFFFFFE9  15 040   44363  ASCB,R15
  44370  0000AB06  00000001 USING  ORDINARY    00000000 00001000 FFFFFFEF  15 000          @R15,15
  44385  0000AB1C  00000001 USING  ORDINARY    00000000 00001000 FFFFFFF7   7 000          @R7,7
  44442  0000AB5E  00000001 USING  ORDINARY    0000AB5E 00001000 00000001   7 338   45069  $$$694B,7
  45079  0000AD3E  00000001 USING  ORDINARY    00000000 00001000 FFFFFFF7   7 000          @R7,7
  45178  0000AED8  00000001 USING  ORDINARY    0000AED8 00001000 00000001   7 474   45230  $$$697B,7
  45254  0000AEFC  00000001 USING  ORDINARY    00000000 00001000 FFFFFFF7   7 000          @R7,7
  45303  0000AF24  00000001 USING  ORDINARY    0000AF24 00001000 00000001   7 428   45355  $$$702B,7
  45378  0000AF48  00000001 USING  ORDINARY    00000000 00001000 FFFFFFF7   7 000          @R7,7
  45427  0000AF70  00000001 USING  ORDINARY    0000AF70 00001000 00000001   7 3DF   45472  $$$707B,7
  45482  0000AF92  00000001 USING  ORDINARY    00000000 00001000 FFFFFFF7   7 000          @R7,7
  45533  0000AFBA  00000001 USING  ORDINARY    0000AFBA 00001000 00000001   7 392   45586  $$$711B,7
  45609  0000AFDE  00000001 USING  ORDINARY    00000000 00001000 FFFFFFF7   7 000          @R7,7
  45658  0000B006  00000001 USING  ORDINARY    0000B006 00001000 00000001   7 346   45711  $$$716B,7
  45734  0000B02A  00000001 USING  ORDINARY    00000000 00001000 FFFFFFF7   7 000          @R7,7
  45842  0000B052  00000001 USING  ORDINARY    0000B052 00001000 00000001   7 2EE   45913  $$$721B,7
  45856  0000B052  00000001 USING  ORDINARY    FFFFFFD8 00001000 FFFFFFCE   8 028   45860  WACCWA-(4+36),R8
  45868  0000B056  00000001 USING  ORDINARY    00000000 00001000 FFFFFFCE   6 000   46083  WACCWA,R6
  45931  0000B0C8  00000001 USING  ORDINARY    00000000 00001000 FFFFFFF6   8 000          @R8,8
  45936  0000B0C8  00000001 USING  ORDINARY    00000000 00001000 FFFFFFF7   7 000          @R7,7
  46108  0000B218  00000001 USING  ORDINARY    00000000 00001000 FFFFFFF8   6 000          @R6,6
  46145  0000B232  00000001 USING  ORDINARY    0000B232 00001000 00000001   7 193   46463  $$$724B,7
  46476  0000B318  00000001 USING  ORDINARY    00000000 00001000 FFFFFFF7   7 000          @R7,7
  46556  0000B3E4  00000001 USING  ORDINARY    0000B3E4 00001000 00000001   7 490   46609  $$$735B,7
  46631  0000B41A  00000001 USING  ORDINARY    00000000 00001000 FFFFFFF7   7 000          @R7,7
  46680  0000B442  00000001 USING  ORDINARY    0000B442 00001000 00000001   7 484   46765  $$$740B,7
  46774  0000B488  00000001 USING  ORDINARY    00000000 00001000 FFFFFFF7   7 000          @R7,7
  46823  0000B4B0  00000001 USING  ORDINARY    0000B4B0 00001000 00000001   7 3F0   46897  $$$744B,7
1MODE     (MODE4072) (12:48) (15MAR04) Using Map                                                                            Page  277
  46907  0000B520  00000001 USING  ORDINARY    00000000 00001000 FFFFFFF7   7 000          @R7,7
  47034  0000B5EA  00000001 USING  ORDINARY    0000B5EA 00001000 00000001   7 2F9   47047  $$$748B,7
  47056  0000B5F6  00000001 USING  ORDINARY    00000000 00001000 FFFFFFF7   7 000          @R7,7
  47105  0000B61E  00000001 USING  ORDINARY    0000B61E 00001000 00000001   7 2DE   47238  $$$751B,7
  47249  0000B676  00000001 USING  ORDINARY    00000000 00001000 FFFFFFF7   7 000          @R7,7
  47298  0000B69E  00000001 USING  ORDINARY    0000B69E 00001000 00000001   7 202   47367  $$$758B,7
  47377  0000B708  00000001 USING  ORDINARY    00000000 00001000 FFFFFFF7   7 000          @R7,7
  47454  0000B782  00000001 USING  ORDINARY    0000B782 00001000 00000001   7 0B6   47463  $$$762B,7
  47470  0000B788  00000001 USING  ORDINARY    00000000 00001000 FFFFFFF7   7 000          @R7,7
  47515  0000B7B0  00000001 USING  ORDINARY    0000B7B0 00001000 00000001   7 0C0   47543  $$$765B,7
  47551  0000B7C2  00000001 USING  ORDINARY    00000000 00001000 FFFFFFF7   7 000          @R7,7
  47601  0000B7EA  00000001 USING  ORDINARY    0000B7EA 00001000 00000001   7 06A   47687  $$$768B,7
  47702  0000B820  00000001 USING  ORDINARY    00000000 00001000 FFFFFFF7   7 000          @R7,7
  47789  0000B91E  00000001 USING  ORDINARY    0000B91E 00001000 00000001   7 8EA   47816  $$$773B,7
  47835  0000B934  00000001 USING  ORDINARY    00000000 00001000 FFFFFFF7   7 000          @R7,7
  47887  0000B95C  00000001 USING  ORDINARY    0000B95C 00001000 00000001   7 8AC   47914  $$$777B,7
  47934  0000B972  00000001 USING  ORDINARY    00000000 00001000 FFFFFFF7   7 000          @R7,7
  48033  0000B99A  00000001 USING  ORDINARY    0000B99A 00001000 00000001   7 8FD   49481  $$$781B,7
  48047  0000B99A  00000001 USING  ORDINARY    FFFFFFD8 00001000 FFFFFFCD   8 028   48051  WPGWA-(4+36),R8
  48059  0000B99E  00000001 USING  ORDINARY    00000000 00001000 FFFFFFCD   6 01B   50373  WPGWA,R6
  48386  0000BABC  00000001 USING  ORDINARY    00000000 00001000 FFFFFFED  15 0CC   48392  CVT,R15
  48399  0000BAC0  00000001 USING  ORDINARY    00000000 00001000 FFFFFFEF  15 000   48424  @R15,15
  48439  0000BAD0  00000001 USING  ORDINARY    00000000 00001000 FFFFFFEE  15 00F   48450  USERCVT,R15
  48447  0000BAD0  00000001 DROP                                            2              2
  48451  0000BAD6  00000001 USING  ORDINARY    00000000 00001000 FFFFFFFC   2 008   54554  @R2,2
  48458  0000BAD6  00000001 USING  ORDINARY    00000000 00001000 FFFFFFEF  15 000          @R15,15
  49490  0000BDAE  00000001 USING  ORDINARY    00000000 00001000 FFFFFFF6   8 000          @R8,8
  49495  0000BDAE  00000001 USING  ORDINARY    00000000 00001000 FFFFFFF7   7 000          @R7,7
  49809  0000C02E  00000001 USING  ORDINARY    0000C02E 00001000 00000001   7 000          $$$811B,7
  49825  0000C032  00000001 USING  ORDINARY    00000000 00001000 FFFFFFF7   7 000          @R7,7
  49870  0000C05A  00000001 USING  ORDINARY    0000C05A 00001000 00000001   7 000          $$$814B,7
  49886  0000C05E  00000001 USING  ORDINARY    00000000 00001000 FFFFFFF7   7 000          @R7,7
  49931  0000C086  00000001 USING  ORDINARY    0000C086 00001000 00000001   7 000          $$$817B,7
  49947  0000C08A  00000001 USING  ORDINARY    00000000 00001000 FFFFFFF7   7 000          @R7,7
  49992  0000C0B2  00000001 USING  ORDINARY    0000C0B2 00001000 00000001   7 000          $$$820B,7
  50008  0000C0B6  00000001 USING  ORDINARY    00000000 00001000 FFFFFFF7   7 000          @R7,7
  50053  0000C0DE  00000001 USING  ORDINARY    0000C0DE 00001000 00000001   7 1D0   50066  $$$823B,7
  50075  0000C0EA  00000001 USING  ORDINARY    00000000 00001000 FFFFFFF7   7 000          @R7,7
  50120  0000C112  00000001 USING  ORDINARY    0000C112 00001000 00000001   7 000          $$$826B,7
  50136  0000C116  00000001 USING  ORDINARY    00000000 00001000 FFFFFFF7   7 000          @R7,7
  50181  0000C13E  00000001 USING  ORDINARY    0000C13E 00001000 00000001   7 000          $$$829B,7
  50197  0000C142  00000001 USING  ORDINARY    00000000 00001000 FFFFFFF7   7 000          @R7,7
  50242  0000C16A  00000001 USING  ORDINARY    0000C16A 00001000 00000001   7 000          $$$832B,7
  50258  0000C16E  00000001 USING  ORDINARY    00000000 00001000 FFFFFFF7   7 000          @R7,7
  50303  0000C196  00000001 USING  ORDINARY    0000C196 00001000 00000001   7 000          $$$835B,7
  50319  0000C19A  00000001 USING  ORDINARY    00000000 00001000 FFFFFFF7   7 000          @R7,7
  50364  0000C1C2  00000001 USING  ORDINARY    0000C1C2 00001000 00000001   7 000          $$$838B,7
  50380  0000C1C6  00000001 USING  ORDINARY    00000000 00001000 FFFFFFF7   7 000          @R7,7
  50400  0000C1D4  00000001 USING  ORDINARY    00000000 00001000 FFFFFFF8   6 000          @R6,6
  50481  0000C2FA  00000001 USING  ORDINARY    0000C2FA 00001000 00000001   7 8EB   51838  $$$841B,7
  51539  0000C62A  00000001 USING  ORDINARY    00000000 00001000 FFFFFFED  15 490   51545  CVT,R15
  51552  0000C62E  00000001 USING  ORDINARY    00000000 00001000 FFFFFFEF  15 004   58007  @R15,15
  51847  0000C71A  00000001 USING  ORDINARY    00000000 00001000 FFFFFFF7   7 000          @R7,7
  51896  0000C742  00000001 USING  ORDINARY    0000C742 00001000 00000001   7 4AA   52093  $$$851B,7
  51976  0000C7A6  00000001 USING  ORDINARY    00000000 00001000 FFFFFFD9   5 060   52060  JCB,R5
  52104  0000C80C  00000001 USING  ORDINARY    00000000 00001000 FFFFFFF7   7 000          @R7,7
  52123  0000C81A  00000001 USING  ORDINARY    00000000 00001000 FFFFFFF9   5 001   54029  @R5,5
  52190  0000C886  00000001 USING  ORDINARY    0000C886 00001000 00000001   7 24A   52245  $$$856B,7
  52263  0000C8B0  00000001 USING  ORDINARY    00000000 00001000 FFFFFFF7   7 000          @R7,7
1MODE     (MODE4072) (12:48) (15MAR04) Using Map                                                                            Page  278
  52316  0000C8D8  00000001 USING  ORDINARY    0000C8D8 00001000 00000001   7 31C   52453  $$$861B,7
  52461  0000C94C  00000001 USING  ORDINARY    00000000 00001000 FFFFFFF7   7 000          @R7,7
  52510  0000C974  00000001 USING  ORDINARY    0000C974 00001000 00000001   7 0F8   52527  $$$865B,7
  52537  0000C988  00000001 USING  ORDINARY    00000000 00001000 FFFFFFF7   7 000          @R7,7
  52659  0000CC16  00000001 USING  ORDINARY    0000CC16 00001000 00000001   7 785   52900  $$$868B,7
  52909  0000CCD8  00000001 USING  ORDINARY    00000000 00001000 FFFFFFF7   7 000          @R7,7
  52960  0000CD00  00000001 USING  ORDINARY    0000CD00 00001000 00000001   7 628   52987  $$$877B,7
  53003  0000CD1A  00000001 USING  ORDINARY    00000000 00001000 FFFFFFF7   7 000          @R7,7
  53052  0000CD42  00000001 USING  ORDINARY    0000CD42 00001000 00000001   7 5FA   53087  $$$881B,7
  53096  0000CD64  00000001 USING  ORDINARY    00000000 00001000 FFFFFFF7   7 000          @R7,7
  53145  0000CD8C  00000001 USING  ORDINARY    0000CD8C 00001000 00000001   7 610   53243  $$$884B,7
  53251  0000CDC8  00000001 USING  ORDINARY    00000000 00001000 FFFFFFF7   7 000          @R7,7
  53322  0000CDF0  00000001 USING  ORDINARY    0000CDF0 00001000 00000001   7 5DA   53582  $$$888B,7
  53336  0000CDF0  00000001 USING  ORDINARY    FFFFFFD8 00001000 FFFFFFCC   8 028   53340  SHDTWA-(4+36),R8
  53348  0000CDF4  00000001 USING  ORDINARY    00000000 00001000 FFFFFFCC   6 008   54112  SHDTWA,R6
  53596  0000CEE8  00000001 USING  ORDINARY    00000000 00001000 FFFFFFF6   8 000          @R8,8
  53601  0000CEE8  00000001 USING  ORDINARY    00000000 00001000 FFFFFFF7   7 000          @R7,7
  53728  0000CFDA  00000001 USING  ORDINARY    0000CFDA 00001000 00000001   7 3BC   53792  $$$896B,7
  53807  0000D01E  00000001 USING  ORDINARY    00000000 00001000 FFFFFFF7   7 000          @R7,7
  53852  0000D046  00000001 USING  ORDINARY    0000D046 00001000 00000001   7 32E   53864  $$$901B,7
  53878  0000D062  00000001 USING  ORDINARY    00000000 00001000 FFFFFFF7   7 000          @R7,7
  53923  0000D08A  00000001 USING  ORDINARY    0000D08A 00001000 00000001   7 2EE   53935  $$$904B,7
  53949  0000D0A6  00000001 USING  ORDINARY    00000000 00001000 FFFFFFF7   7 000          @R7,7
  53994  0000D0CE  00000001 USING  ORDINARY    0000D0CE 00001000 00000001   7 2B2   54106  $$$907B,7
  54125  0000D122  00000001 USING  ORDINARY    00000000 00001000 FFFFFFF7   7 000          @R7,7
  54146  0000D130  00000001 USING  ORDINARY    00000000 00001000 FFFFFFF8   6 004   55459  @R6,6
  54183  0000D14A  00000001 USING  ORDINARY    0000D14A 00001000 00000001   7 24A   54220  $$$913B,7
  54227  0000D15E  00000001 USING  ORDINARY    00000000 00001000 FFFFFFF7   7 000          @R7,7
  54276  0000D186  00000001 USING  ORDINARY    0000D186 00001000 00000001   7 25D   54397  $$$916B,7
  54410  0000D1E2  00000001 USING  ORDINARY    00000000 00001000 FFFFFFF7   7 000          @R7,7
  54459  0000D20A  00000001 USING  ORDINARY    0000D20A 00001000 00000001   7 1EC   54558  $$$921B,7
  54568  0000D254  00000001 USING  ORDINARY    00000000 00001000 FFFFFFF7   7 000          @R7,7
  54675  0000D41C  00000001 USING  ORDINARY    0000D41C 00001000 00000001   7 764   54686  $$$927B,7
  54695  0000D426  00000001 USING  ORDINARY    00000000 00001000 FFFFFFF7   7 000          @R7,7
  54744  0000D44E  00000001 USING  ORDINARY    0000D44E 00001000 00000001   7 7BC   55118  $$$930B,7
  55156  0000D552  00000001 USING  ORDINARY    00000000 00001000 FFFFFFF7   7 000          @R7,7
  55205  0000D57A  00000001 USING  ORDINARY    0000D57A 00001000 00000001   7 678   55644  $$$950B,7
  55657  0000D6B2  00000001 USING  ORDINARY    00000000 00001000 FFFFFFF7   7 000          @R7,7
  55737  0000D6DA  00000001 USING  ORDINARY    0000D6DA 00001000 00000001   7 516   56193  $$$962B,7
  55751  0000D6DA  00000001 USING  ORDINARY    FFFFFFD8 00001000 FFFFFFCB   8 028   55755  WORDWA-(4+36),R8
  55763  0000D6DE  00000001 USING  ORDINARY    00000000 00001000 FFFFFFCB   6 001   56262  WORDWA,R6
  56206  0000D864  00000001 USING  ORDINARY    00000000 00001000 FFFFFFF6   8 000          @R8,8
  56211  0000D864  00000001 USING  ORDINARY    00000000 00001000 FFFFFFF7   7 000          @R7,7
  56287  0000D8EC  00000001 USING  ORDINARY    00000000 00001000 FFFFFFF8   6 000          @R6,6
  56326  0000D906  00000001 USING  ORDINARY    0000D906 00001000 00000001   7 2BE   56457  $$$980B,7
  56360  0000D912  00000001 USING  ORDINARY    00000000 00001000 FFFFFFED   6 0CC   56366  CVT,R6
  56373  0000D916  00000001 USING  ORDINARY    00000000 00001000 FFFFFFF8   6 000          @R6,6
  56398  0000D91C  00000001 USING  ORDINARY    00000000 00001000 FFFFFFEE   5 074   56449  USERCVT,R5
  56470  0000D956  00000001 USING  ORDINARY    00000000 00001000 FFFFFFF9   5 000          @R5,5
  56484  0000D956  00000001 USING  ORDINARY    00000000 00001000 FFFFFFF7   7 000          @R7,7
  56536  0000D97E  00000001 USING  ORDINARY    0000D97E 00001000 00000001   7 24A   56646  $$$988B,7
  56561  0000D982  00000001 USING  ORDINARY    00000000 00001000 FFFFFFD9   6 0D0   56626  JCB,R6
  56655  0000D9B2  00000001 USING  ORDINARY    00000000 00001000 FFFFFFF8   6 000          @R6,6
  56663  0000D9B2  00000001 USING  ORDINARY    00000000 00001000 FFFFFFF7   7 000          @R7,7
  56712  0000D9DA  00000001 USING  ORDINARY    0000D9DA 00001000 00000001   7 22E   56912  $$$997B,7
  56926  0000DAA0  00000001 USING  ORDINARY    00000000 00001000 FFFFFFF7   7 000          @R7,7
  57107  0000DC2A  00000001 USING  ORDINARY    0000DC2A 00001000 00000001   7 4F8   57454  $$$1004B,7
  57121  0000DC2A  00000001 USING  ORDINARY    FFFFFFD8 00001000 FFFFFFCA   8 028   57125  SETWBWRK-(4+36),R8
  57133  0000DC2E  00000001 USING  ORDINARY    00000000 00001000 FFFFFFCA   6 000   57644  SETWBWRK,R6
1MODE     (MODE4072) (12:48) (15MAR04) Using Map                                                                            Page  279
  57463  0000DD2A  00000001 USING  ORDINARY    00000000 00001000 FFFFFFF6   8 000          @R8,8
  57468  0000DD2A  00000001 USING  ORDINARY    00000000 00001000 FFFFFFF7   7 000          @R7,7
  57513  0000DD52  00000001 USING  ORDINARY    0000DD52 00001000 00000001   7 410   57706  $$$1019B,7
  57530  0000DD56  00000001 USING  ORDINARY    00000000 00001000 FFFFFFD7   3 00B   57644  VOLDSECT,R3
  57719  0000DDCE  00000001 USING  ORDINARY    00000000 00001000 FFFFFFF7   7 000          @R7,7
  57739  0000DDDC  00000001 USING  ORDINARY    00000000 00001000 FFFFFFFB   3 000          @R3,3
  57746  0000DDDC  00000001 USING  ORDINARY    00000000 00001000 FFFFFFF8   6 000          @R6,6
  57783  0000DDF6  00000001 USING  ORDINARY    0000DDF6 00001000 00000001   7 316   57921  $$$1029B,7
  57930  0000DE84  00000001 USING  ORDINARY    00000000 00001000 FFFFFFF7   7 000          @R7,7
  57975  0000DEAC  00000001 USING  ORDINARY    0000DEAC 00001000 00000001   7 2E3   58174  $$$1037B,7
  57992  0000DEB0  00000001 USING  ORDINARY    00000000 00001000 FFFFFFD7   3 00B   58113  VOLDSECT,R3
  58187  0000DF26  00000001 USING  ORDINARY    00000000 00001000 FFFFFFF7   7 000          @R7,7
  58207  0000DF34  00000001 USING  ORDINARY    00000000 00001000 FFFFFFFB   3 000          @R3,3
  58245  0000DF4E  00000001 USING  ORDINARY    0000DF4E 00001000 00000001   7 29C   58746  $$$1047B,7
  58282  0000DF5E  00000001 USING  ORDINARY    00000000 00001000 FFFFFFD7   3 024   58581  VOLDSECT,R3
  58762  0000E080  00000001 USING  ORDINARY    00000000 00001000 FFFFFFF7   7 000          @R7,7
  58782  0000E08E  00000001 USING  ORDINARY    00000000 00001000 FFFFFFFB   3 000          @R3,3

1         (MODE4072) (12:48) (15MAR04) General Purpose Register Cross Reference                                             Page  280
- Register  References (M=modified, B=branch, U=USING, D=DROP, N=index)                      HLASM R4.0  2004/03/15 12.48
0    0(0)      982U   983D  6183   6251M  6251   6252M 11067  11108M 11108  11117  11118  11119  11137M 11201M 11201
             11210  11211  11255M 11255  11264  11265  11305M 11325  11357M 11373M 11393  11512M 11532  11652M 11672
             11704M 11704  11713  11714  11715  11742M 11742  11854M 11874  11935M 11955  11981  11997M 12017  12065M
             12085  12132M 12152  12186M 12186  12201  12217M 12237  12269M 12269  12278  12279  12280  12307M 12307
             12378M 12398  12431M 12431  12440  12441  12442  12464M 12464  12481  12525M 12545  12591M 12591  12600
             12601  12638M 12658  12698M 12698  12707  12708  12776M 12797  12835M 12835  12844  12845  12846  12873M
             12873  12902M 12922  12948  12965M 12985  13028M 13048  13080M 13080  13089  13090  13126M 13202  13244M
             13244  13253  13254  13255  13292M 13305M 13305  13338  13374M 13419M 13450M 13490  13532M 13532  13541
             13542  13543  13580M 13593M 13593  13626  13679M 13710M 13731  13757  13776M 13796  13828M 13828  13837
             13838  13839  13866M 13866  13911M 13911  13920  13921  13922  13949M 13949  13961M 13977M 13997  14059M
             14059  14068  14069  14070  14101M 14101  14142M 14164M 14192M 14213  14389M 14409  14441M 14441  14450
             14451  14487M 14507  14572M 14592  14625M 14625  14634  14635  14674M 14694  14741M 14809  14913M 14933
             14959  14975M 14999  15031M 15031  15040  15041  15077M 15097  15144M 15164  15210M 15317  15349M 15349
             15358  15359  15395M 15415  15461M 15481  15528M 15617  15650M 15650  15659  15660  15661  15688M 15688
             15789M 15814M 15819  15851M 15875  15928M 15951  16005M 16028  16081M 16104  16158M 16183  16228M 16255
             16295M 16295  16304  16305  16306  16333M 16333  16372M 16372  16381  16382  16430M 16464  16613M 16616
             16628M 16633  16635  17061M 17082  17114M 17114  17123  17124  17161M 17181  17224  17238  17303M 17303
             17334M 17359  17438M 17438  17447  17448  17449  17480M 17480  17570M 17600M 20291  20337M 20357  20404M
             20424  20488M 20508  20573M 20593  20639M 20659  20724M 20744  20793M 21249  21280M 21296M 21312M 21353
             21394M 21394  21403  21404  21405  21423M 21457M 21457  21466  21467  21503M 22028  22060M 22076M 22096
             22141M 22164  22196M 22196  22205  22206  22207  22234M 22234  22269M 22281M 22364M 22399M 22434M 22469M
             22504M 22524M 22606M 22606  22653M 22709  22769M 22769  22778  22779  22876M 22970M 23154  23209M 23225M
             23284  23344M 23344  23353  23354  23435M 23531  23586M 23602M 23666  23726M 23726  23735  23736  23835M
             23980  24035M 24051M 24083  24168M 24203M 24282  24314M 24314  24323  24324  24325  24352M 24352  24387M
             24452M 24513  24573M 24573  24582  24583  24716M 24849  24904M 24920M 24984  25044M 25044  25053  25054
             25158M 25264  25319M 25335M 25394  25426M 25426  25435  25436  25437  25464M 25464  25499M 25526M 25549
             25581M 25581  25590  25591  25592  25619M 25619  25654M 25681M 25704  25736M 25736  25745  25746  25747
             25774M 25774  25809M 25836M 25859  25891M 25891  25900  25901  25902  25929M 25929  25964M 26003M 26026
             26058M 26058  26067  26068  26069  26096M 26096  26131M 26170M 26193  26225M 26225  26234  26235  26236
             26263M 26263  26299M 26328M 26351  26383M 26383  26392  26393  26394  26421M 26421  26457M 26486M 26509
             26541M 26541  26550  26551  26552  26579M 26579  26614M 26642M 26669  26701M 26701  26710  26711  26712
             26739M 26739  26774M 26802M 26825  26856M 26864M 26864  26873  26874  26875  26902M 26902  26937M 26960M
             26983  27015M 27015  27024  27025  27026  27053M 27053  27088M 27114M 27137  27169M 27169  27178  27179
             27180  27207M 27207  27242M 27271M 27334  27396M 27396  27405  27406  27430M 27454M 27472M 27500M 27535M
             27563M 27581M 27604M 27629M 27629  27654M 27654  27673M 27704M 27740M 27776M 27847M 27847  27877M 27877
             27895M 27914M 27942M 27960M 27988M 28023M 28044M 28044  28066M 28092M 28130M 28151M 28151  28169M 28182M
             28217M 28243M 28296M 28329M 28356M 28399M 28412M 28412  28419  28426M 28441M 28494M 28522M 28555M 28555
             28587M 28622M 28657M 28691M 28726M 28759M 28781M 28807M 28856M 28878M 28904M 28938M 28958M 28958  29013M
             29051M 29192  29241M 29261  29309M 29331M 29348M 29369M 29420M 29442M 29477M 29499M 29535M 29557M 29592M
             29614M 29648M 29669M 29689M 29689  29734M 29755M 29755  29796M 29815M 29843M 29867  29918M 29940M 29966M
             29966  29994M 30018  30070M 30092M 30109M 30125M 30155  30208  30277M 30302  30343M 30343  30352  30353
             30354  30372M 30443M 30443  30452  30453  30497M 30497  30506  30507  30548M 30568  30615M 30638M 30658M
             30682  30808M 30808  30817  30818  30856M 30894M 31082  31113M 31141M 31161  31192M 31220M 31240  31271M
             31299M 31319  31350M 31378M 31398  31429M 31457M 31477  31508M 31536M 31556  31587M 31615M 31637  31667M
             31701M 31729M 31749  31794M 31812M 31840M 31861  31908M 31951M 31969M 31997M 32015M 32047M 32068  32098M
             32110  32121M 32157M 32157  32175M 32207M 32227  32278M 32321M 32339M 32371M 32391  32442M 32483M 32517M
             32549M 32569  32620M 32663M 32681M 32713M 32733  32784M 32827M 32845M 32877M 32897  32931M 32931  32949M
             32977M 32997  33032M 33059M 33077M 33105M 35910  35957M 35981  36027M 36043M 36060M 36085  36140M 36173M
             36200M 36243M 36256M 36256  36263  36270M 36285M 36336M 36364M 36420M 36459M 36496M 36496  36525M 36578
             36618M 36618  36627  36628  36696M 36717M 36843  36892  36909M 36929  36955  36972M 36999  37033M 37033
             37040M 37069  37124M 37162M 37163M 37167  37169M 37170  37240M 37243  37255M 37318M 37349M 37349  37376M
             37432  37478M 37539M 37548M 37548  37562M 37579  37581M 37642M 37672M 37690M 37718M 37718  37759M 37807M
             37830M 37850M 37872M 37924M 37943M 37974M 37992M 38020M 38095  38173M 38173  38210M 38227M 38227  38250M
             38279M 38351  38387M 38387  38396  38397  38419M 38439M 38505  38548M 38594  38620  38637M 38655M 38680M
             38680  38714M 38739M 38739  38778M 38803M 38803  38853M 38853  38873M 38897M 38910M 38910  38955M 38955
1         (MODE4072) (12:48) (15MAR04) General Purpose Register Cross Reference                                             Page  281
             38978M 38995  38997M 39037M 39054  39098M 39139M 39164M 39164  39192M 39192  39210M 39226M 39246M 39290M
             39290  39308M 39332M 39332  39350M 39372M 39372  39390M 39418M 39418  39436M 39458M 39458  39476M 39498M
             39498  39516M 39538M 39538  39556M 39589M 39589  39610M 39626M 39626  39628M 39648M 39673M 39673  39692M
             39712M 39712  39713M 39733M 39758M 39758  39777M 39806M 39825M 39825  39867M 39892M 39892  39911M 39940M
             39968M 39993M 39993  40018M 40018  40036M 40089M 40089  40091M 40092M 40104M 40104  40129  40156M 40183M
             40235M 40235  40260M 40260  40285M 40285  40303M 40325M 40325  40343M 40356M 40374M 40374  40399M 40399
             40420M 40420  40438M 40459M 40459  40477M 40498M 40498  40516M 40563M 40580  40581M 40634M 40697M 40697
             40715M 40758M 40758  40776M 40790M 40801M 40826M 40844M 40861  40862M 40907M 40933M 40933  40994M 41013M
             41043M 41061M 41091M 41115M 41133M 41157M 41175M 41200M 41200  41280M 41280  41298M 41331M 41331  41349M
             41371M 41371  41389M 41411M 41411  41429M 41452M 41452  41470M 41498M 41498  41516M 41547M 41571M 41571
             41589M 41620M 41642M 41642  41660M 41691M 41712M 41712  41730M 41751M 41751  41769M 41797M 41797  41815M
             41843M 41861M 41883M 41883  41901M 41929M 41947M 41975M 41993M 42021M 42039M 42065M 42065  42083M 42107M
             42107  42125M 42153M 42153  42175M 42175  42193M 42216M 42216  42234M 42256M 42256  42274M 42297M 42297
             42315M 42337M 42337  42355M 42372M 42397M 42397  42413M 42455M 42455  42477M 42477  42495M 42517M 42517
             42535M 42548M 42559M 42602M 42602  42620M 42648M 42648  42681M 42805  42839M 42857M 42911M 42911  42933M
             42946M 42946  42969M 42997M 43025M 43055M 43074M 43092M 43105M 43116M 43156M 43156  43174M 43192M 43226M
             43302M 43321M 43351M 43369M 43399M 43424M 43442M 43455M 43473M 43491M 43516M 43534M 43559M 43577M 43645M
             43704  43759M 43759  43768  43769  43814M 43844M 43862M 43892M 43910M 43943M 43961M 44019M 44019  44022M
             44023M 44038  44048M 44065  44077M 44125M 44182M 44223M 44252M 44320  44377M 44393M 44425  44471M 44489M
             44514M 44514  44539M 44539  44559M 44576  44578M 44624M 44624  44649M 44649  44676M 44694M 44723M 44741M
             44767M 44785M 44811M 44829M 44854M 44854  44880M 44898M 44923M 44923  44950M 44968M 44996M 45014M 45040M
             45058M 45087M 45161  45262M 45286  45386M 45410  45473M 45490M 45516  45617M 45641  45742M 45824  45884M
             45884  45893  45894  45944M 46128  46178M 46190M 46224M 46262M 46300M 46338M 46376M 46414M 46452M 46484M
             46539  46599  46610M 46617  46639M 46663  46713M 46725M 46738M 46782M 46806  46863M 46863  46872  46873
             46915M 47017  47048M 47064M 47088  47119M 47151M 47174M 47211M 47257M 47281  47338M 47338  47347  47348
             47385M 47437  47478M 47498  47540M 47559M 47584  47633M 47676M 47710M 47772  47843M 47870  47942M 48015
             48235M 48235  48244  48245  48292M 48308M 48635M 48659M 48677M 48707M 48746M 48746  48792M 48826M 48856M
             48895M 48895  48948M 48948  48966M 48983M 49007M 49023M 49037M 49061M 49079M 49109M 49148M 49148  49247M
             49281M 49311M 49350M 49350  49403M 49403  49421M 49442M 49466M 49482M 49503M 49792  49818  49833M 49853
             49879  49894M 49914  49940  49955M 49975  50001  50016M 50036  50067M 50083M 50103  50129  50144M 50164
             50190  50205M 50225  50251  50266M 50286  50312  50327M 50347  50373  50388M 50464  50495M 50516M 50516
             50534M 50555M 50555  50573M 50598M 50598  50617M 50651M 50667M 50687M 50735M 50755M 50794M 50819M 50819
             50844M 50844  50863M 50886M 50907M 50907  50925M 50950M 50950  50968M 51002M 51033M 51052M 51092M 51108M
             51131M 51149M 51178M 51178  51203M 51203  51224M 51245M 51245  51263M 51282M 51306M 51324M 51343M 51367M
             51385M 51409M 51433M 51458M 51458  51477M 51498M 51498  51516M 51565M 51565  51583M 51602M 51620M 51641M
             51641  51659M 51680M 51680  51705M 51705  51724M 51742M 51763M 51763  51781M 51802M 51802  51827M 51827
             51855M 51879  51916M 51916  51925  51926  51998M 52019M 52019  52037M 52064M 52064  52082M 52112M 52173
             52222  52271M 52299  52338M 52338  52356M 52385M 52385  52404M 52426M 52469M 52493  52545M 52642  52706M
             52759M 52778M 52833M 52833  52898M 52917M 52943  52994M 52995  53011M 53035  53072M 53072  53088M 53104M
             53128  53174  53191M 53232M 53259M 53304  53362  53374M 53374  53383  53384  53428M 53437M 53464M 53486M
             53502M 53571M 53609M 53711  53748  53815M 53835  53886M 53906  53957M 53977  54014  54045M 54087M 54133M
             54166  54235M 54259  54307M 54341M 54368M 54386M 54418M 54442  54492M 54541M 54576M 54658  54703M 54727
             55027M 55046  55052  55062M 55072M 55072  55081  55093M 55098  55164M 55188  55222M 55245M 55272M 55299M
             55380  55381M 55438M 55466M 55533  55534M 55591M 55617M 55665M 55719  55809M 55809  55818  55819  55820
             55847M 55847  55934M 55952M 55952  55961  55962  56219M 56309  56492M 56519  56617M 56671M 56695  56757M
             56757  56766  56767  56809M 56841M 56859M 56893M 56913M 56934M 57089  57197M 57197  57206  57207  57208
             57235M 57235  57306M 57306  57341M 57411M 57476M 57496  57598M 57695M 57727M 57766  57847M 57847  57856
             57857  57858  57885M 57885  57938M 57958  58060M 58163M 58195M 58228  58437M 58462M 58462  58496M 58524M
             58558M 58586M 58604M 58633M 58633  58674M 58692M 58717M 58717  58735M 58770M
     1(1)      978U  6183   6246M  6247M  6253M 11067  11104M 11117N 11118N 11119N 11136M 11197M 11210N 11211N 11213N
             11251M 11264N 11265N 11267N 11305M 11325  11356M 11373M 11393  11512M 11532  11652M 11672  11700M 11713N
             11714N 11715N 11854M 11874  11935M 11955  11997M 12017  12065M 12085  12132M 12152  12217M 12237  12265M
             12278N 12279N 12280N 12328M 12329M 12329N 12378M 12398  12427M 12440N 12441N 12442N 12498M 12499M 12499N
             12525M 12545  12587M 12600N 12601N 12603N 12638M 12658  12694M 12707N 12708N 12710N 12776M 12797  12831M
             12844N 12845N 12846N 12902M 12922  12965M 12985  13028M 13048  13076M 13089N 13090N 13092N 13126M 13202
             13240M 13253N 13254N 13255N 13285M 13373M 13418M 13450M 13490  13528M 13541N 13542N 13543N 13573M 13678M
             13710M 13731  13776M 13796  13824M 13837N 13838N 13839N 13907M 13920N 13921N 13922N 13960M 13977M 13997
             14055M 14068N 14069N 14070N 14135M 14163M 14187M 14389M 14409  14437M 14450N 14451N 14453N 14487M 14507
             14572M 14592  14621M 14634N 14635N 14637N 14674M 14694  14741M 14809  14913M 14933  14975M 14999  15027M
1         (MODE4072) (12:48) (15MAR04) General Purpose Register Cross Reference                                             Page  282
             15040N 15041N 15043N 15077M 15097  15144M 15164  15210M 15317  15345M 15358N 15359N 15361N 15395M 15415
             15461M 15481  15528M 15617  15646M 15659N 15660N 15661N 15788M 15807M 15851M 15875  15928M 15951  16005M
             16028  16081M 16104  16158M 16183  16228M 16255  16291M 16304N 16305N 16306N 16368M 16381N 16382N 16384N
             16430M 16464  16634M 17061M 17082  17110M 17123N 17124N 17126N 17161M 17181  17209M 17210M 17210N 17277
             17299M 17334M 17359  17434M 17447N 17448N 17449N 17470M 17471M 17471N 17569M 17600M 20291  20337M 20357
             20404M 20424  20488M 20508  20573M 20593  20639M 20659  20724M 20744  20793M 21249  21279M 21295M 21312M
             21353  21390M 21403N 21404N 21405N 21422M 21453M 21466N 21467N 21469N 21503M 22028  22059M 22076M 22096
             22141M 22164  22192M 22205N 22206N 22207N 22268M 22280M 22363M 22398M 22433M 22468M 22503M 22523M 22653M
             22709  22765M 22778N 22779N 22781N 22875M 22970M 23154  23208M 23225M 23284  23340M 23353N 23354N 23356N
             23435M 23531  23585M 23602M 23666  23722M 23735N 23736N 23738N 23835M 23980  24034M 24051M 24083  24167M
             24203M 24282  24310M 24323N 24324N 24325N 24386M 24452M 24513  24569M 24582N 24583N 24585N 24716M 24849
             24903M 24920M 24984  25040M 25053N 25054N 25056N 25158M 25264  25318M 25335M 25394  25422M 25435N 25436N
             25437N 25498M 25526M 25549  25577M 25590N 25591N 25592N 25653M 25681M 25704  25732M 25745N 25746N 25747N
             25808M 25836M 25859  25887M 25900N 25901N 25902N 25963M 26003M 26026  26054M 26067N 26068N 26069N 26130M
             26170M 26193  26221M 26234N 26235N 26236N 26298M 26328M 26351  26379M 26392N 26393N 26394N 26456M 26486M
             26509  26537M 26550N 26551N 26552N 26613M 26642M 26669  26697M 26710N 26711N 26712N 26773M 26802M 26825
             26855M 26860M 26873N 26874N 26875N 26936M 26960M 26983  27011M 27024N 27025N 27026N 27087M 27114M 27137
             27165M 27178N 27179N 27180N 27241M 27271M 27334  27392M 27405N 27406N 27408N 27431M 27447M 27471M 27495M
             27534M 27558M 27580M 27603M 27672M 27697M 27717M 27733M 27753M 27769M 27789M 27894M 27913M 27937M 27959M
             27983M 28022M 28065M 28087M 28129M 28147M 28168M 28216M 28238M 28295M 28328M 28351M 28394M 28419  28425M
             28441M 28493M 28517M 28580M 28615M 28650M 28684M 28719M 28758M 28780M 28802M 28855M 28877M 28899M 28937M
             28965M 29006M 29051M 29192  29241M 29261  29308M 29330M 29347M 29368M 29419M 29441M 29476M 29498M 29534M
             29556M 29591M 29613M 29647M 29668M 29696M 29733M 29762M 29795M 29814M 29843M 29867  29917M 29939M 29994M
             30018  30069M 30091M 30108M 30125M 30155  30277M 30302  30339M 30352N 30353N 30354N 30371M 30439M 30452N
             30453N 30455N 30493M 30506N 30507N 30509N 30548M 30568  30614M 30637M 30658M 30682  30804M 30817N 30818N
             30820N 30855M 30894M 31082  31112M 31141M 31161  31191M 31220M 31240  31270M 31299M 31319  31349M 31378M
             31398  31428M 31457M 31477  31507M 31536M 31556  31586M 31615M 31637  31700M 31729M 31749  31789M 31811M
             31840M 31861  31907M 31946M 31968M 31992M 32014M 32047M 32068  32120M 32153M 32174M 32207M 32227  32277M
             32316M 32338M 32371M 32391  32441M 32478M 32516M 32549M 32569  32619M 32658M 32680M 32713M 32733  32783M
             32822M 32844M 32877M 32897  32927M 32948M 32977M 32997  33031M 33055M 33076M 33105M 35910  35957M 35981
             36022M 36042M 36060M 36085  36139M 36172M 36195M 36238M 36263  36269M 36285M 36335M 36359M 36419M 36458M
             36525M 36578  36614M 36627N 36628N 36630N 36717M 36843  36909M 36929  36972M 36999  37117M 37171M 37182M
             37268M 37311M 37376M 37432  37477M 37561M 37580  37581M 37641M 37665M 37689M 37725M 37758M 37777M 37778M
             37778  37800M 37829M 37849M 37871M 37906M 37907M 37942M 37956M 37957M 37991M 38020M 38095  38203M 38243M
             38279M 38351  38383M 38396N 38397N 38399N 38439M 38505  38548M 38594  38632M 38654M 38713M 38777M 38872M
             38896M 38977M 38996  38997M 39036M 39055  39105M 39138M 39209M 39225M 39245M 39307M 39328M 39349M 39368M
             39389M 39435M 39454M 39475M 39494M 39515M 39534M 39555M 39609M 39627M 39628M 39691M 39713M 39776M 39806M
             39836M 39836  39843M 39910M 39940M 40035M 40090M 40091M 40092M 40155M 40190M 40281M 40302M 40321M 40342M
             40357M 40416M 40437M 40455M 40476M 40494M 40515M 40556M 40585M 40585  40629M 40714M 40775M 40791M 40800M
             40819M 40843M 40866M 40866  40906M 40987M 41012M 41036M 41060M 41084M 41108M 41132M 41150M 41174M 41297M
             41348M 41367M 41388M 41407M 41428M 41448M 41469M 41515M 41540M 41567M 41588M 41613M 41638M 41659M 41684M
             41708M 41729M 41747M 41768M 41814M 41836M 41860M 41879M 41900M 41922M 41946M 41968M 41992M 42014M 42038M
             42082M 42103M 42124M 42171M 42192M 42212M 42233M 42252M 42273M 42293M 42314M 42333M 42354M 42371M 42393M
             42412M 42473M 42494M 42513M 42534M 42549M 42558M 42598M 42619M 42681M 42805  42838M 42856M 42932M 42962M
             42992M 43018M 43056M 43067M 43091M 43106M 43115M 43173M 43191M 43225M 43295M 43320M 43344M 43368M 43392M
             43417M 43441M 43456M 43466M 43490M 43509M 43533M 43552M 43576M 43645M 43704  43755M 43768N 43769N 43771N
             43813M 43837M 43861M 43885M 43909M 43938M 43960M 44020M 44021M 44022M 44023M 44047M 44084M 44124M 44189M
             44222M 44252M 44320  44376M 44393M 44425  44466M 44488M 44558M 44577  44578M 44669M 44693M 44716M 44740M
             44760M 44784M 44804M 44828M 44873M 44897M 44943M 44967M 44989M 45013M 45033M 45057M 45087M 45161  45262M
             45286  45386M 45410  45472M 45490M 45516  45617M 45641  45742M 45824  45880M 45893N 45894N 45896N 45944M
             46128  46177M 46189M 46223M 46261M 46299M 46337M 46375M 46413M 46451M 46484M 46539  46609M 46639M 46663
             46712M 46724M 46782M 46806  46859M 46872N 46873N 46875N 46915M 47017  47047M 47064M 47088  47118M 47150M
             47173M 47210M 47257M 47281  47334M 47347N 47348N 47350N 47385M 47437  47478M 47498  47535M 47559M 47584
             47632M 47671M 47710M 47772  47843M 47870  47942M 48015  48231M 48244N 48245N 48247N 48291M 48307M 48634M
             48652M 48676M 48700M 48799M 48825M 48849M 48965M 48982M 49000M 49022M 49036M 49054M 49078M 49102M 49254M
             49280M 49304M 49420M 49441M 49459M 49481M 49503M 49792  49833M 49853  49894M 49914  49955M 49975  50016M
             50036  50066M 50083M 50103  50144M 50164  50205M 50225  50266M 50286  50327M 50347  50388M 50464  50494M
             50512M 50533M 50551M 50572M 50616M 50650M 50666M 50686M 50734M 50754M 50793M 50862M 50885M 50903M 50924M
             50967M 51001M 51032M 51051M 51091M 51112M 51112  51148M 51223M 51241M 51262M 51281M 51299M 51323M 51342M
1         (MODE4072) (12:48) (15MAR04) General Purpose Register Cross Reference                                             Page  283
             51360M 51384M 51408M 51432M 51476M 51494M 51515M 51561M 51582M 51601M 51619M 51637M 51658M 51676M 51723M
             51741M 51759M 51780M 51798M 51855M 51879  51912M 51925N 51926N 51928N 51997M 52015M 52036M 52060M 52081M
             52112M 52173  52271M 52299  52334M 52355M 52381M 52403M 52425M 52469M 52493  52545M 52642  52708M 52708
             52710  52722M 52724M 52724  52751M 52753M 52753  52758M 52777M 52888M 52899M 52917M 52943  53011M 53035
             53068M 53087M 53104M 53128  53168M 53168  53176  53198M 53231M 53259M 53304  53362  53370M 53383N 53384N
             53386N 53427M 53437M 53462  53462  53463  53463  53485  53485  53566M 53609M 53711  53748M 53749M 53815M
             53835  53886M 53906  53957M 53977  54031  54080M 54133M 54166  54235M 54259  54306M 54340M 54364M 54385M
             54418M 54442  54491M 54534M 54576M 54658  54703M 54727  55026M 55046  55062M 55164M 55188  55221M 55244M
             55271M 55298M 55385M 55385  55431M 55459M 55538M 55538  55584M 55612M 55665M 55719  55805M 55818N 55819N
             55820N 55929M 55948M 55961N 55962N 55964N 56219M 56309  56422M 56424M 56424  56457M 56459M 56459  56492M
             56519  56671M 56695  56753M 56766N 56767N 56769N 56808M 56836M 56858M 56892M 56912M 56934M 57089  57193M
             57206N 57207N 57208N 57340M 57476M 57496  57597M 57648M 57649M 57650  57694M 57727M 57766  57843M 57856N
             57857N 57858N 57938M 57958  58059M 58116M 58117M 58118  58162M 58195M 58228  58436M 58489M 58519M 58557M
             58581M 58603M 58673M 58691M 58734M 58770M
     2(2)      974U  6183  11067  11305M 11325  11373M 11393  11438M 11470M 11479M 11479  11512M 11532  11577M 11610M
             11619M 11619  11652M 11672  11854M 11874  11935M 11955  11997M 12017  12065M 12085  12132M 12152  12217M
             12237  12378M 12398  12525M 12545  12638M 12658  12776M 12797  12902M 12922  12965M 12985  13028M 13048
             13126M 13202  13450M 13490  13710M 13731  13776M 13796  13977M 13997  14389M 14409  14487M 14507  14572M
             14592  14674M 14694  14741M 14809  14913M 14933  14975M 14999  15077M 15097  15144M 15164  15210M 15317
             15395M 15415  15461M 15481  15528M 15617  15851M 15875  15928M 15951  16005M 16028  16081M 16104  16158M
             16183  16228M 16255  16430M 16464  16635M 16639M 16648M 16648  16655  16750M 16751  16759M 16777  16816
             16845  17061M 17082  17161M 17181  17334M 17359  17600M 20291  20337M 20357  20404M 20424  20488M 20508
             20573M 20593  20639M 20659  20724M 20744  20793M 21249  21312M 21353  21503M 22028  22076M 22096  22141M
             22164  22653M 22709  22970M 23154  23225M 23284  23435M 23531  23602M 23666  23835M 23980  24051M 24083
             24203M 24282  24452M 24513  24716M 24849  24920M 24984  25158M 25264  25335M 25394  25526M 25549  25681M
             25704  25836M 25859  26003M 26026  26170M 26193  26328M 26351  26486M 26509  26642M 26669  26802M 26825
             26960M 26983  27114M 27137  27271M 27334  29051M 29192  29241M 29261  29843M 29867  29994M 30018  30125M
             30155  30277M 30302  30548M 30568  30658M 30682  30894M 31082  31141M 31161  31220M 31240  31299M 31319
             31378M 31398  31457M 31477  31536M 31556  31615M 31637  31729M 31749  31840M 31861  32047M 32068  32207M
             32227  32371M 32391  32549M 32569  32713M 32733  32877M 32897  32977M 32997  33105M 35910  35957M 35981
             36060M 36085  36525M 36578  36717M 36843  36909M 36929  36972M 36999  37376M 37432  37579M 38020M 38095
             38279M 38351  38439M 38505  38548M 38594  38995M 39054M 39059M 39060M 39061M 39062M 39073  39603M 39629
             39714  39848  39949  40068M 40077M 40078  40082M 40082  40128M 40129M 40580M 40861M 41007M 41828M 41829
             41879  42681M 42805  43315M 43645M 43704  43993M 44005M 44006M 44007M 44008  44012M 44012  44064M 44065M
             44139M 44143M 44144M 44145M 44146M 44157  44252M 44320  44393M 44425  44576M 45087M 45161  45262M 45286
             45386M 45410  45490M 45516  45617M 45641  45742M 45824  45944M 46128  46484M 46539  46639M 46663  46782M
             46806  46915M 47017  47064M 47088  47257M 47281  47385M 47437  47478M 47498  47559M 47584  47710M 47772
             47843M 47870  47942M 48015  48360M 48447D 48449M 48449  48450M 48451U 48479M 48479  48493  49503M 49792
             49833M 49853  49894M 49914  49955M 49975  50016M 50036  50083M 50103  50144M 50164  50205M 50225  50266M
             50286  50327M 50347  50388M 50464  50983M 50984M 50984  51042M 51042  51053M 51053  51082  51855M 51879
             52112M 52173  52271M 52299  52469M 52493  52545M 52642  52729M 52729  52743M 52768M 52768  52917M 52943
             53011M 53035  53104M 53128  53259M 53304  53609M 53711  53815M 53835  53886M 53906  53957M 53977  54031M
             54133M 54166  54235M 54259  54335M 54364  54418M 54442  54502M 54502  54516  54522  54554M 54576M 54658
             54703M 54727  55164M 55188  55380M 55533M 55665M 55719  55991M 55991  56024M 56061M 56096M 56131M 56184M
             56184  56219M 56309  56492M 56519  56671M 56695  56934M 57089  57476M 57496  57727M 57766  57938M 57958
             58195M 58228  58770M
     3(3)      970U  6183  11067  11305M 11325  11373M 11393  11512M 11532  11652M 11672  11854M 11874  11935M 11955
             11997M 12017  12065M 12085  12132M 12152  12217M 12237  12378M 12398  12525M 12545  12638M 12658  12776M
             12797  12902M 12922  12965M 12985  13028M 13048  13126M 13202  13450M 13490  13710M 13731  13776M 13796
             13977M 13997  14389M 14409  14487M 14507  14572M 14592  14674M 14694  14741M 14809  14913M 14933  14975M
             14999  15077M 15097  15144M 15164  15210M 15317  15395M 15415  15461M 15481  15528M 15617  15851M 15875
             15928M 15951  16005M 16028  16081M 16104  16158M 16183  16228M 16255  16430M 16464  16708M 16709M 16713M
             16715M 16717M 16737M 16745M 16749M 16751M 16752  16760M 16761M 16763M 16777  16797M 16816  16836M 16844M
             16845M 16846  16850M 16859M 16859  16866  17061M 17082  17161M 17181  17334M 17359  17600M 20291  20337M
             20357  20404M 20424  20488M 20508  20573M 20593  20639M 20659  20724M 20744  20793M 21249  21312M 21353
             21503M 22028  22076M 22096  22141M 22164  22653M 22709  22970M 23154  23225M 23284  23435M 23531  23602M
             23666  23835M 23980  24051M 24083  24203M 24282  24452M 24513  24716M 24849  24920M 24984  25158M 25264
             25335M 25394  25526M 25549  25681M 25704  25836M 25859  26003M 26026  26170M 26193  26328M 26351  26486M
             26509  26642M 26669  26802M 26825  26960M 26983  27114M 27137  27271M 27334  29051M 29192  29241M 29261
1         (MODE4072) (12:48) (15MAR04) General Purpose Register Cross Reference                                             Page  284
             29843M 29867  29994M 30018  30125M 30155  30277M 30302  30548M 30568  30658M 30682  30894M 31082  31141M
             31161  31220M 31240  31299M 31319  31378M 31398  31457M 31477  31536M 31556  31615M 31637  31729M 31749
             31840M 31861  32047M 32068  32207M 32227  32371M 32391  32549M 32569  32713M 32733  32877M 32897  32977M
             32997  33105M 35910  35957M 35981  36060M 36085  36525M 36578  36607M 36607  36696  36717M 36843  36877M
             36877  36892M 36894  36909M 36929  36972M 36999  37046M 37055M 37055  37063M 37146  37376M 37432  37580M
             38020M 38095  38279M 38351  38439M 38505  38548M 38594  38996M 39055M 39057M 39061M 39062M 39082M 39091
             40068M 40077M 40078M 40111M 40128M 40129M 40146  40176  40587M 40587  40868M 40868  42681M 42805  43645M
             43704  43993M 44003M 44007M 44008M 44064M 44065M 44070  44139M 44141M 44145M 44146M 44166M 44175  44252M
             44320  44393M 44425  44577M 45087M 45161  45262M 45286  45386M 45410  45490M 45516  45617M 45641  45742M
             45824  45944M 46128  46484M 46539  46639M 46663  46782M 46806  46915M 47017  47064M 47088  47257M 47281
             47385M 47437  47478M 47498  47559M 47584  47710M 47772  47843M 47870  47942M 48015  49503M 49792  49833M
             49853  49894M 49914  49955M 49975  50016M 50036  50083M 50103  50144M 50164  50205M 50225  50266M 50286
             50327M 50347  50388M 50464  51855M 51879  52112M 52173  52271M 52299  52469M 52493  52545M 52642  52917M
             52943  53011M 53035  53104M 53128  53259M 53304  53609M 53711  53815M 53835  53886M 53906  53957M 53977
             54133M 54166  54235M 54259  54418M 54442  54576M 54658  54703M 54727  55164M 55188  55387M 55387  55540M
             55540  55665M 55719  56219M 56309  56492M 56519  56671M 56695  56934M 57089  57476M 57496  57522M 57530U
             57551M 57551N 57727M 57739U 57766  57938M 57958  57984M 57992U 58013M 58013N 58195M 58207U 58228  58274M
             58282U 58649M 58649N 58770M 58782U
     4(4)      966U  6183  11067  11305M 11325  11373M 11393  11512M 11532  11652M 11672  11854M 11874  11935M 11955
             11997M 12017  12065M 12085  12132M 12152  12217M 12237  12378M 12398  12525M 12545  12638M 12658  12776M
             12797  12902M 12922  12965M 12985  13028M 13048  13126M 13202  13450M 13490  13710M 13731  13776M 13796
             13977M 13997  14389M 14409  14487M 14507  14572M 14592  14674M 14694  14741M 14809  14913M 14933  14975M
             14999  15077M 15097  15144M 15164  15210M 15317  15395M 15415  15461M 15481  15528M 15617  15851M 15875
             15928M 15951  16005M 16028  16081M 16104  16158M 16183  16228M 16255  16430M 16464  16676M 17061M 17082
             17161M 17181  17277M 17334M 17359  17424M 17424  17494M 17494  17504  17535  17579M 17600M 20291  20337M
             20357  20404M 20424  20488M 20508  20573M 20593  20639M 20659  20724M 20744  20793M 21249  21312M 21353
             21503M 22028  22076M 22096  22141M 22164  22653M 22709  22970M 23154  23225M 23284  23435M 23531  23602M
             23666  23835M 23980  24051M 24083  24203M 24282  24452M 24513  24716M 24849  24920M 24984  25158M 25264
             25335M 25394  25526M 25549  25681M 25704  25836M 25859  26003M 26026  26170M 26193  26328M 26351  26486M
             26509  26642M 26669  26802M 26825  26960M 26983  27114M 27137  27271M 27334  29051M 29192  29241M 29261
             29843M 29867  29994M 30018  30125M 30155  30277M 30302  30548M 30568  30658M 30682  30894M 31082  31141M
             31161  31220M 31240  31299M 31319  31378M 31398  31457M 31477  31536M 31556  31615M 31637  31729M 31749
             31840M 31861  32047M 32068  32207M 32227  32371M 32391  32549M 32569  32713M 32733  32877M 32897  32977M
             32997  33105M 35910  35957M 35981  36060M 36085  36525M 36578  36611M 36611  36697  36717M 36843  36909M
             36929  36955M 36957  36972M 36999  37145M 37145  37147M 37156M 37156  37163  37182N 37376M 37432  37493M
             37494M 37494  37515U 37620U 37627M 37635U 38020M 38033U 38095  38279M 38351  38439M 38505  38548M 38594
             42681M 42805  43645M 43704  44252M 44320  44393M 44425  45087M 45161  45262M 45286  45386M 45410  45490M
             45516  45617M 45641  45742M 45824  45944M 46128  46484M 46539  46639M 46663  46782M 46806  46915M 47017
             47064M 47088  47257M 47281  47385M 47437  47478M 47498  47559M 47584  47710M 47772  47843M 47870  47942M
             48015  49503M 49792  49833M 49853  49894M 49914  49955M 49975  50016M 50036  50083M 50103  50144M 50164
             50205M 50225  50266M 50286  50327M 50347  50388M 50464  51855M 51879  52112M 52173  52271M 52299  52469M
             52493  52545M 52642  52917M 52943  53011M 53035  53104M 53128  53259M 53304  53609M 53711  53815M 53835
             53886M 53906  53957M 53977  54133M 54166  54235M 54259  54418M 54442  54576M 54658  54703M 54727  55164M
             55188  55665M 55719  56219M 56309  56492M 56519  56671M 56695  56934M 57089  57183M 57183  57249M 57249
             57442M 57476M 57496  57727M 57766  57833M 57833  57899M 57899  57913M 57938M 57958  58195M 58228  58273M
             58273  58426M 58426  58648M 58663M 58663  58770M
     5(5)      962U  6183  11067  11305M 11325  11373M 11393  11512M 11532  11652M 11672  11854M 11874  11935M 11955
             11997M 12017  12065M 12085  12132M 12152  12217M 12237  12378M 12398  12525M 12545  12584M 12584  12622
             12638M 12658  12691M 12691  12740  12756  12776M 12797  12902M 12922  12948M 12950  12965M 12985  13011M
             13013  13028M 13048  13126M 13202  13450M 13490  13710M 13731  13776M 13796  13977M 13997  14389M 14409
             14487M 14507  14572M 14592  14674M 14694  14741M 14809  14913M 14933  14975M 14999  15077M 15097  15144M
             15164  15210M 15317  15395M 15415  15461M 15481  15528M 15617  15851M 15875  15928M 15951  16005M 16028
             16081M 16104  16158M 16183  16228M 16255  16430M 16464  17061M 17082  17161M 17181  17278M 17287U 17299
             17317U 17334M 17359  17420M 17578M 17600M 20291  20337M 20357  20404M 20424  20488M 20508  20573M 20593
             20639M 20659  20724M 20744  20793M 21249  21312M 21353  21503M 22028  22076M 22096  22141M 22164  22653M
             22709  22970M 23154  23225M 23284  23435M 23531  23602M 23666  23835M 23980  24051M 24083  24203M 24282
             24452M 24513  24716M 24849  24920M 24984  25158M 25264  25335M 25394  25526M 25549  25681M 25704  25836M
             25859  26003M 26026  26170M 26193  26328M 26351  26486M 26509  26642M 26669  26802M 26825  26960M 26983
             27114M 27137  27271M 27334  27370M 27378U 29051M 29064U 29192  29241M 29261  29843M 29867  29994M 30018
1         (MODE4072) (12:48) (15MAR04) General Purpose Register Cross Reference                                             Page  285
             30125M 30155  30277M 30302  30548M 30568  30658M 30682  30894M 31082  31141M 31161  31220M 31240  31299M
             31319  31378M 31398  31457M 31477  31536M 31556  31615M 31637  31729M 31749  31840M 31861  32047M 32068
             32207M 32227  32371M 32391  32549M 32569  32713M 32733  32877M 32897  32977M 32997  33105M 35910  35957M
             35981  36060M 36085  36525M 36578  36717M 36843  36909M 36929  36972M 36999  37146M 37147M 37311N 37331M
             37376M 37432  37463M 37471U 38020M 38040U 38095  38279M 38351  38439M 38505  38548M 38594  40946M 40962U
             41217M 41233  41244U 42681M 42805  43645M 43704  44252M 44320  44393M 44425  45087M 45161  45262M 45286
             45386M 45410  45490M 45516  45617M 45641  45742M 45824  45944M 46128  46484M 46539  46639M 46663  46782M
             46806  46915M 47017  47064M 47088  47257M 47281  47385M 47437  47478M 47498  47559M 47584  47710M 47772
             47843M 47870  47942M 48015  48269M 48281  48610M 48621M 48621  48770M 48770  48781M 49162M 49162  49173M
             49173  49236M 49503M 49792  49833M 49853  49894M 49914  49955M 49975  50016M 50036  50083M 50103  50144M
             50164  50205M 50225  50266M 50286  50327M 50347  50388M 50464  51855M 51879  51909M 51909  51957M 51957
             51963M 51976U 52112M 52123U 52173  52207M 52207  52222M 52223M 52224M 52236  52252  52271M 52299  52469M
             52493  52545M 52642  52710M 52888  52899  52917M 52943  53011M 53035  53104M 53128  53259M 53304  53367M
             53367  53417  53495M 53495  53609M 53711  53796  53815M 53835  53861M 53867  53886M 53906  53932M 53938
             53957M 53977  54029M 54114  54133M 54166  54235M 54259  54418M 54442  54576M 54658  54703M 54727  55164M
             55188  55665M 55719  56219M 56309  56366M 56383M 56383  56398U 56470U 56492M 56519  56671M 56695  56934M
             57089  57405M 57406M 57411  57476M 57496  57727M 57766  57938M 57958  58195M 58228  58770M
     6(6)      958U  6183  11067  11305M 11325  11373M 11393  11512M 11532  11652M 11672  11854M 11874  11935M 11955
             11997M 12017  12065M 12085  12132M 12152  12217M 12237  12378M 12398  12525M 12545  12638M 12658  12776M
             12797  12902M 12922  12965M 12985  13028M 13048  13126M 13202  13450M 13490  13710M 13731  13776M 13796
             13977M 13997  14389M 14409  14487M 14507  14572M 14592  14674M 14694  14741M 14809  14913M 14933  14975M
             14999  15077M 15097  15144M 15164  15210M 15317  15395M 15415  15461M 15481  15528M 15617  15851M 15875
             15928M 15951  16005M 16028  16081M 16104  16158M 16183  16228M 16255  16430M 16464  16499M 16507U 16519M
             16519  16589U 16895M 16904M 16904  16917U 16925U 17061M 17082  17161M 17181  17334M 17359  17411M 17420
             17600M 20291  20337M 20357  20404M 20424  20488M 20508  20573M 20593  20639M 20659  20724M 20744  20793M
             21249  21312M 21353  21503M 22028  22076M 22096  22141M 22164  22653M 22709  22745M 22753U 22970M 23154
             23225M 23237U 23284  23320M 23328U 23435M 23531  23602M 23614U 23666  23702M 23710U 23835M 23980  24051M
             24063U 24083  24203M 24282  24452M 24513  24549M 24557U 24716M 24849  24920M 24932U 24984  25020M 25028U
             25158M 25264  25335M 25347U 25394  25526M 25549  25681M 25704  25836M 25859  26003M 26026  26170M 26193
             26328M 26351  26486M 26509  26642M 26669  26802M 26825  26960M 26983  27114M 27137  27271M 27334  29051M
             29192  29241M 29261  29843M 29867  29994M 30018  30125M 30155  30277M 30302  30548M 30568  30658M 30682
             30894M 31082  31141M 31161  31220M 31240  31299M 31319  31378M 31398  31457M 31477  31536M 31556  31615M
             31637  31729M 31749  31840M 31861  32047M 32068  32207M 32227  32371M 32391  32549M 32569  32713M 32733
             32877M 32897  32977M 32997  33105M 35910  35957M 35981  36060M 36085  36525M 36578  36717M 36843  36909M
             36929  36972M 36999  37069M 37072  37084M 37167  37169  37170M 37207M 37207  37217M 37234M 37234  37240
             37292M 37376M 37432  38020M 38095  38279M 38351  38380M 38380  38419  38439M 38505  38531M 38533  38548M
             38594  38620M 41262M 41262  42681M 42805  42871M 42887U 43130M 43136U 43254M 43270U 43594M 43610  43621U
             43645M 43704  44252M 44320  44393M 44425  45087M 45161  45262M 45286  45386M 45410  45490M 45516  45617M
             45641  45742M 45824  45860M 45868U 45944M 46108U 46128  46484M 46539  46639M 46663  46782M 46806  46915M
             47017  47064M 47088  47257M 47281  47385M 47437  47478M 47498  47559M 47584  47710M 47772  47843M 47870
             47942M 48015  48051M 48059U 49503M 49792  49833M 49853  49894M 49914  49955M 49975  50016M 50036  50083M
             50103  50144M 50164  50205M 50225  50266M 50286  50327M 50347  50388M 50400U 50464  51855M 51879  52112M
             52173  52271M 52299  52469M 52493  52545M 52642  52917M 52943  53011M 53035  53104M 53128  53259M 53304
             53340M 53348U 53609M 53711  53815M 53835  53886M 53906  53957M 53977  54133M 54146U 54166  54235M 54259
             54418M 54442  54576M 54658  54703M 54727  54761M 54761  54780M 54830M 54880M 54964M 55007M 55007  55052
             55164M 55188  55218M 55241M 55268M 55295M 55665M 55719  55755M 55763U 56219M 56287U 56309  56350M 56360U
             56373U 56492M 56519  56545M 56561U 56626M 56643  56655U 56671M 56695  56934M 57089  57125M 57133U 57476M
             57496  57727M 57746U 57766  57938M 57958  58195M 58228  58770M
     7(7)      954U  6176M  6176   6177B  6183   6189B 11067  11072M 11084U 11297U 11305M 11325  11330M 11342U 11365U
             11373M 11393  11398M 11410U 11504U 11512M 11532  11537M 11549U 11644U 11652M 11672  11677M 11689U 11846U
             11854M 11874  11879M 11891U 11927U 11935M 11955  11960M 11972U 11989U 11997M 12017  12022M 12034U 12057U
             12065M 12085  12090M 12102U 12124U 12132M 12152  12157M 12169U 12209U 12217M 12237  12242M 12254U 12370U
             12378M 12398  12403M 12415U 12517U 12525M 12545  12550M 12562U 12630U 12638M 12658  12663M 12675U 12768U
             12776M 12797  12802M 12814U 12894U 12902M 12922  12927M 12939U 12957U 12965M 12985  12990M 13002U 13020U
             13028M 13048  13053M 13065U 13118U 13126M 13202  13208M 13220U 13442U 13450M 13490  13496M 13508U 13702U
             13710M 13731  13736M 13748U 13768U 13776M 13796  13801M 13813U 13969U 13977M 13997  14002M 14014U 14381U
             14389M 14409  14414M 14426U 14479U 14487M 14507  14512M 14524U 14564U 14572M 14592  14597M 14609U 14666U
             14674M 14694  14699M 14711U 14733U 14741M 14809  14814M 14826U 14905U 14913M 14933  14938M 14950U 14967U
             14975M 14999  15004M 15016U 15069U 15077M 15097  15102M 15114U 15136U 15144M 15164  15169M 15181U 15202U
1         (MODE4072) (12:48) (15MAR04) General Purpose Register Cross Reference                                             Page  286
             15210M 15317  15322M 15334U 15387U 15395M 15415  15420M 15432U 15453U 15461M 15481  15486M 15498U 15520U
             15528M 15617  15622M 15634U 15843U 15851M 15875  15880M 15892U 15920U 15928M 15951  15956M 15968U 15997U
             16005M 16028  16033M 16045U 16073U 16081M 16104  16109M 16121U 16150U 16158M 16183  16188M 16200U 16220U
             16228M 16255  16260M 16272U 16422U 16430M 16464  16469M 16481U 17053U 17061M 17082  17087M 17099U 17153U
             17161M 17181  17186M 17198U 17326U 17334M 17359  17364M 17376U 17592U 17600M 20291  20296M 20308U 20329U
             20337M 20357  20362M 20374U 20396U 20404M 20424  20429M 20441U 20480U 20488M 20508  20513M 20525U 20565U
             20573M 20593  20598M 20610U 20631U 20639M 20659  20664M 20676U 20716U 20724M 20744  20749M 20761U 20785U
             20793M 21249  21254M 21266U 21304U 21312M 21353  21358M 21370U 21495U 21503M 22028  22033M 22045U 22068U
             22076M 22096  22101M 22113U 22133U 22141M 22164  22169M 22181U 22645U 22653M 22709  22715M 22727U 22962U
             22970M 23154  23159M 23171U 23217U 23225M 23284  23290M 23302U 23427U 23435M 23531  23536M 23548U 23594U
             23602M 23666  23672M 23684U 23827U 23835M 23980  23985M 23997U 24043U 24051M 24083  24088M 24100U 24195U
             24203M 24282  24287M 24299U 24444U 24452M 24513  24519M 24531U 24708U 24716M 24849  24854M 24866U 24912U
             24920M 24984  24990M 25002U 25150U 25158M 25264  25269M 25281U 25327U 25335M 25394  25399M 25411U 25518U
             25526M 25549  25554M 25566U 25673U 25681M 25704  25709M 25721U 25828U 25836M 25859  25864M 25876U 25995U
             26003M 26026  26031M 26043U 26162U 26170M 26193  26198M 26210U 26320U 26328M 26351  26356M 26368U 26478U
             26486M 26509  26514M 26526U 26634U 26642M 26669  26674M 26686U 26794U 26802M 26825  26830M 26842U 26952U
             26960M 26983  26988M 27000U 27106U 27114M 27137  27142M 27154U 27263U 27271M 27334  27340M 27352U 29043U
             29051M 29192  29197M 29209U 29233U 29241M 29261  29266M 29278U 29835U 29843M 29867  29872M 29884U 29986U
             29994M 30018  30023M 30035U 30117U 30125M 30155  30160M 30172U 30269U 30277M 30302  30307M 30319U 30540U
             30548M 30568  30573M 30585U 30650U 30658M 30682  30687M 30699U 30886U 30894M 31082  31087M 31099U 31133U
             31141M 31161  31166M 31178U 31212U 31220M 31240  31245M 31257U 31291U 31299M 31319  31324M 31336U 31370U
             31378M 31398  31403M 31415U 31449U 31457M 31477  31482M 31494U 31528U 31536M 31556  31561M 31573U 31607U
             31615M 31637  31642M 31654U 31721U 31729M 31749  31754M 31766U 31832U 31840M 31861  31866M 31878U 32039U
             32047M 32068  32073M 32085U 32199U 32207M 32227  32232M 32244U 32363U 32371M 32391  32396M 32408U 32541U
             32549M 32569  32574M 32586U 32705U 32713M 32733  32738M 32750U 32869U 32877M 32897  32902M 32914U 32969U
             32977M 32997  33002M 33014U 33097U 33105M 35910  35915M 35927U 35949U 35957M 35981  35986M 35998U 36052U
             36060M 36085  36090M 36102U 36517U 36525M 36578  36583M 36595U 36709U 36717M 36843  36848M 36860U 36901U
             36909M 36929  36934M 36946U 36964U 36972M 36999  37004M 37016U 37368U 37376M 37432  37437M 37449U 38012U
             38020M 38095  38100M 38112U 38271U 38279M 38351  38356M 38368U 38431U 38439M 38505  38510M 38522U 38540U
             38548M 38594  38599M 38611U 42673U 42681M 42805  42810M 42822U 43637U 43645M 43704  43709M 43721U 44244U
             44252M 44320  44325M 44337U 44385U 44393M 44425  44430M 44442U 45079U 45087M 45161  45166M 45178U 45254U
             45262M 45286  45291M 45303U 45378U 45386M 45410  45415M 45427U 45482U 45490M 45516  45521M 45533U 45609U
             45617M 45641  45646M 45658U 45734U 45742M 45824  45830M 45842U 45936U 45944M 46128  46133M 46145U 46476U
             46484M 46539  46544M 46556U 46631U 46639M 46663  46668M 46680U 46774U 46782M 46806  46811M 46823U 46907U
             46915M 47017  47022M 47034U 47056U 47064M 47088  47093M 47105U 47249U 47257M 47281  47286M 47298U 47377U
             47385M 47437  47442M 47454U 47470U 47478M 47498  47503M 47515U 47551U 47559M 47584  47589M 47601U 47702U
             47710M 47772  47777M 47789U 47835U 47843M 47870  47875M 47887U 47934U 47942M 48015  48021M 48033U 49495U
             49503M 49792  49797M 49809U 49825U 49833M 49853  49858M 49870U 49886U 49894M 49914  49919M 49931U 49947U
             49955M 49975  49980M 49992U 50008U 50016M 50036  50041M 50053U 50075U 50083M 50103  50108M 50120U 50136U
             50144M 50164  50169M 50181U 50197U 50205M 50225  50230M 50242U 50258U 50266M 50286  50291M 50303U 50319U
             50327M 50347  50352M 50364U 50380U 50388M 50464  50469M 50481U 51847U 51855M 51879  51884M 51896U 52104U
             52112M 52173  52178M 52190U 52263U 52271M 52299  52304M 52316U 52461U 52469M 52493  52498M 52510U 52537U
             52545M 52642  52647M 52659U 52909U 52917M 52943  52948M 52960U 53003U 53011M 53035  53040M 53052U 53096U
             53104M 53128  53133M 53145U 53251U 53259M 53304  53310M 53322U 53601U 53609M 53711  53716M 53728U 53807U
             53815M 53835  53840M 53852U 53878U 53886M 53906  53911M 53923U 53949U 53957M 53977  53982M 53994U 54125U
             54133M 54166  54171M 54183U 54227U 54235M 54259  54264M 54276U 54410U 54418M 54442  54447M 54459U 54568U
             54576M 54658  54663M 54675U 54695U 54703M 54727  54732M 54744U 55156U 55164M 55188  55193M 55205U 55657U
             55665M 55719  55725M 55737U 56211U 56219M 56309  56314M 56326U 56484U 56492M 56519  56524M 56536U 56663U
             56671M 56695  56700M 56712U 56926U 56934M 57089  57095M 57107U 57468U 57476M 57496  57501M 57513U 57719U
             57727M 57766  57771M 57783U 57930U 57938M 57958  57963M 57975U 58187U 58195M 58228  58233M 58245U 58762U
             58770M
     8(8)      950U  6183  11067  11068M 11301  11305M 11325  11326M 11369  11373M 11393  11394M 11508  11512M 11532
             11533M 11648  11652M 11672  11673M 11850  11854M 11874  11875M 11931  11935M 11955  11956M 11993  11997M
             12017  12018M 12061  12065M 12085  12086M 12128  12132M 12152  12153M 12213  12217M 12237  12238M 12374
             12378M 12398  12399M 12521  12525M 12545  12546M 12634  12638M 12658  12659M 12772  12776M 12797  12798M
             12898  12902M 12922  12923M 12950N 12961  12965M 12985  12986M 13013N 13024  13028M 13048  13049M 13122
             13126M 13202  13204M 13234U 13437U 13446  13450M 13490  13492M 13522U 13697U 13706  13710M 13731  13732M
             13772  13776M 13796  13797M 13973  13977M 13997  13998M 14385  14389M 14409  14410M 14483  14487M 14507
             14508M 14568  14572M 14592  14593M 14670  14674M 14694  14695M 14737  14741M 14809  14810M 14909  14913M
1         (MODE4072) (12:48) (15MAR04) General Purpose Register Cross Reference                                             Page  287
             14933  14934M 14971  14975M 14999  15000M 15073  15077M 15097  15098M 15140  15144M 15164  15165M 15206
             15210M 15317  15318M 15391  15395M 15415  15416M 15457  15461M 15481  15482M 15524  15528M 15617  15618M
             15847  15851M 15875  15876M 15924  15928M 15951  15952M 16001  16005M 16028  16029M 16077  16081M 16104
             16105M 16154  16158M 16183  16184M 16224  16228M 16255  16256M 16426  16430M 16464  16465M 17057  17061M
             17082  17083M 17157  17161M 17181  17182M 17330  17334M 17359  17360M 17596  17600M 20291  20292M 20333
             20337M 20357  20358M 20400  20404M 20424  20425M 20484  20488M 20508  20509M 20569  20573M 20593  20594M
             20635  20639M 20659  20660M 20720  20724M 20744  20745M 20789  20793M 21249  21250M 21308  21312M 21353
             21354M 21499  21503M 22028  22029M 22072  22076M 22096  22097M 22137  22141M 22164  22165M 22649  22653M
             22709  22711M 22741U 22957U 22966  22970M 23154  23155M 23221  23225M 23284  23286M 23316U 23422U 23431
             23435M 23531  23532M 23598  23602M 23666  23668M 23698U 23822U 23831  23835M 23980  23981M 24047  24051M
             24083  24084M 24199  24203M 24282  24283M 24448  24452M 24513  24515M 24545U 24703U 24712  24716M 24849
             24850M 24916  24920M 24984  24986M 25016U 25145U 25154  25158M 25264  25265M 25331  25335M 25394  25395M
             25522  25526M 25549  25550M 25677  25681M 25704  25705M 25832  25836M 25859  25860M 25999  26003M 26026
             26027M 26166  26170M 26193  26194M 26324  26328M 26351  26352M 26482  26486M 26509  26510M 26638  26642M
             26669  26670M 26798  26802M 26825  26826M 26956  26960M 26983  26984M 27110  27114M 27137  27138M 27267
             27271M 27334  27336M 27366U 29038U 29047  29051M 29192  29193M 29237  29241M 29261  29262M 29839  29843M
             29867  29868M 29990  29994M 30018  30019M 30121  30125M 30155  30156M 30273  30277M 30302  30303M 30544
             30548M 30568  30569M 30654  30658M 30682  30683M 30890  30894M 31082  31083M 31137  31141M 31161  31162M
             31216  31220M 31240  31241M 31295  31299M 31319  31320M 31374  31378M 31398  31399M 31453  31457M 31477
             31478M 31532  31536M 31556  31557M 31611  31615M 31637  31638M 31725  31729M 31749  31750M 31836  31840M
             31861  31862M 32043  32047M 32068  32069M 32203  32207M 32227  32228M 32367  32371M 32391  32392M 32545
             32549M 32569  32570M 32709  32713M 32733  32734M 32873  32877M 32897  32898M 32973  32977M 32997  32998M
             33101  33105M 35910  35911M 35953  35957M 35981  35982M 36056  36060M 36085  36086M 36521  36525M 36578
             36579M 36713  36717M 36843  36844M 36894N 36905  36909M 36929  36930M 36957N 36968  36972M 36999  37000M
             37372  37376M 37432  37433M 38016  38020M 38095  38096M 38275  38279M 38351  38352M 38435  38439M 38505
             38506M 38533N 38544  38548M 38594  38595M 42677  42681M 42805  42806M 43641  43645M 43704  43705M 44248
             44252M 44320  44321M 44389  44393M 44425  44426M 45083  45087M 45161  45162M 45258  45262M 45286  45287M
             45382  45386M 45410  45411M 45486  45490M 45516  45517M 45613  45617M 45641  45642M 45738  45742M 45824
             45826M 45856U 45931U 45940  45944M 46128  46129M 46480  46484M 46539  46540M 46635  46639M 46663  46664M
             46778  46782M 46806  46807M 46911  46915M 47017  47018M 47060  47064M 47088  47089M 47253  47257M 47281
             47282M 47381  47385M 47437  47438M 47474  47478M 47498  47499M 47555  47559M 47584  47585M 47706  47710M
             47772  47773M 47839  47843M 47870  47871M 47938  47942M 48015  48017M 48047U 49490U 49499  49503M 49792
             49793M 49829  49833M 49853  49854M 49890  49894M 49914  49915M 49951  49955M 49975  49976M 50012  50016M
             50036  50037M 50079  50083M 50103  50104M 50140  50144M 50164  50165M 50201  50205M 50225  50226M 50262
             50266M 50286  50287M 50323  50327M 50347  50348M 50384  50388M 50464  50465M 51851  51855M 51879  51880M
             52108  52112M 52173  52174M 52252N 52267  52271M 52299  52300M 52465  52469M 52493  52494M 52541  52545M
             52642  52643M 52913  52917M 52943  52944M 53007  53011M 53035  53036M 53100  53104M 53128  53129M 53255
             53259M 53304  53306M 53336U 53596U 53605  53609M 53711  53712M 53796N 53811  53815M 53835  53836M 53867N
             53882  53886M 53906  53907M 53938N 53953  53957M 53977  53978M 54114N 54129  54133M 54166  54167M 54231
             54235M 54259  54260M 54414  54418M 54442  54443M 54572  54576M 54658  54659M 54699  54703M 54727  54728M
             55160  55164M 55188  55189M 55661  55665M 55719  55721M 55751U 56206U 56215  56219M 56309  56310M 56488
             56492M 56519  56520M 56667  56671M 56695  56696M 56930  56934M 57089  57091M 57121U 57463U 57472  57476M
             57496  57497M 57723  57727M 57766  57767M 57934  57938M 57958  57959M 58191  58195M 58228  58229M 58766
             58770M
     9(9)      946U  6183
    10(A)      942U  6183
    11(B)      938U  1846B  1847B  5247U  6183
    12(C)      934U  5256U  6183
    13(D)      930U  6183  11064  11067  11068  11069M 11069  11099  11101M 11101  11112  11113  11114  11116M 11116
             11128M 11129  11130  11131  11162M 11205  11206  11207  11209M 11209  11222M 11223  11224  11225  11259
             11260  11261  11263M 11263  11276M 11277  11278  11279  11301M 11305  11307  11322  11325  11326  11327M
             11327  11369M 11373  11375  11390  11393  11394  11395M 11395  11508M 11512  11514  11529  11532  11533
             11534M 11534  11648M 11652  11654  11669  11672  11673  11674M 11674  11708  11709  11710  11712M 11712
             11724M 11725  11726  11727  11850M 11854  11856  11871  11874  11875  11876M 11876  11931M 11935  11937
             11952  11955  11956  11957M 11957  11993M 11997  11999  12014  12017  12018  12019M 12019  12061M 12065
             12067  12082  12085  12086  12087M 12087  12128M 12132  12134  12149  12152  12153  12154M 12154  12213M
             12217  12219  12234  12237  12238  12239M 12239  12273  12274  12275  12277M 12277  12289M 12290  12291
             12292  12374M 12378  12380  12395  12398  12399  12400M 12400  12435  12436  12437  12439M 12439  12451M
             12452  12453  12454  12521M 12525  12527  12542  12545  12546  12547M 12547  12595  12596  12597  12599M
