1                        J E S 2  J O B  L O G  --  S Y S T E M  S Y S B  --  N O D E  R L G
0
 12.43.51 JOB03521 ---- MONDAY,    15 MAR 2004 ----
 12.43.51 JOB03521  ICH70001I GG$SLP   LAST ACCESS AT 12:43:28 ON MONDAY, MARCH 15, 2004
 12.43.51 JOB03521  $HASP373 WYL#EVAL STARTED - INIT 9    - CLASS B - SYS SYSB
 12.43.51 JOB03521  ***  HCMD      STEP $$QUIET
 12.43.51 JOB03521  PUR * Q OUT MUL
 12.43.51 JOB03521  JOB 5386 WYL#EVAL WILL BE PURGED
 12.43.52 JOB03521  WYL#EVAL.$$QUIET .         RC=Zero TapeIO=0000 DiskIO=0000 CPU=  .01s Elapsed=31.92s
 12.44.04 JOB03521  WYL#EVAL.ASM     .         RC=Zero TapeIO=0000 DiskIO=0745 CPU= 5.86s Elapsed=32.96s
 12.44.06 JOB03521  WYL#EVAL.EDIT    .         RC=Zero TapeIO=0000 DiskIO=0343 CPU= 1.09s Elapsed=44.61s
 12.44.06 JOB03521  WYL#EVAL Ended.  Name=Assemble EVAL                  Total CPU= 6.96s Elapsed=31.92s
 12.44.06 JOB03521
 12.44.06 JOB03521  Execution charges   Priority=Standard   Block=Day
 12.44.06 JOB03521
 12.44.06 JOB03521  CPU Usage         129.00          $79.98   Standard Processing Unit Equivalent
 12.44.06 JOB03521                                   =======
 12.44.06 JOB03521                                    $79.98   Total Job execution charge
 12.44.06 JOB03521
 12.44.06 JOB03521  See back separator page for print charges
 12.44.06 JOB03521
 12.44.06 JOB03521  $HASP395 WYL#EVAL ENDED  ASM=0, EDIT=0
1        1 //WYL#EVAL JOB SLP$GG,'Assemble EVAL',TIME=4,REGION=4M                  JOB03521
           //*
           /*JOBPARM LINES=99,COPIES=1
           /*JOBPARM FORMS=3HOL,PFORMAT=LAND,CHARS=BD13,DUPLEX=YES,FLASH=BAR4
           //*
           /*JOBPARM NOTIFY=GG.SLP,HOLD=OUTPUT                                     WYLGEN
         2 //$$QUIET EXEC PGM=HCMDX,PARM='PUR * Q OUT MUL'
           //*
         3 //ASM    EXEC PGM=ASMA90,REGION=8M,
           //            PARM=('NORENT,TERM,FLAG(NOCONT),US(MAP,WARN(10)),NODECK',
           //            'LC(32767),XREF(SHORT),ESD,DXREF,NOOBJECT')
         4 //STEPLIB DD DSN=SYS3.IS.TESTASM,DISP=SHR
         5 //SYSLIB   DD  DSN=WYL.GS.WYL.WYLBUR.MACLIB,DISP=SHR
         6 //         DD  DSN=WYL.GG.SYS.MACLIB,DISP=SHR
         7 //         DD  DSN=SYS3.IS.MACLIB,DISP=SHR
         8 //         DD  DSN=SYS3.MACLIB,DISP=SHR
         9 //         DD  DSN=SYS1.MACLIB,DISP=SHR
        10 //         DD  DSN=SYS1.MODGEN,DISP=SHR
        11 //SYSUT1   DD DSN=&&SYSUT1,UNIT=VIO,DISP=(,DELETE),
           //            SPACE=(4088,(500,250),,CONTIG,ROUND)
        12 //SYSTERM  DD SYSOUT=T
        13 //SYSPRINT DD DSN=&&PRINT,UNIT=SYSDA,DISP=(,PASS),
           //            SPACE=(6650,(250,250),RLSE),
           //            DCB=(BLKSIZE=6650,LRECL=133,RECFM=FB)
        14 //SYSUDUMP DD SYSOUT=A
        15 //SYSIN    DD  DSN=WYL.GS.WYL.WYLBUR.SOURCE(EVAL),DISP=SHR
           //*
        16 //EDIT    EXEC PGM=ASMEDIT,TIME=2,REGION=4000K,
           //             PARM='STMT'
        17 //STEPLIB  DD  DSN=WYL.GG.SYS.LINKLIB,DISP=SHR
        18 //ASMOUT   DD  DSN=&PRINT,DISP=(OLD,DELETE)
        19 //SYSPRINT DD  SYSOUT=A
1 STMT NO. MESSAGE
 -
        11 IGD01010I STORCLAS= TEMP STORGROUP =
        11 IGD01010I STORGRP=VIO ASSIGNED.
        13 IGD01010I STORCLAS= TEMP STORGROUP =
        13 IGD01010I STORGRP=VIO ASSIGNED.
 ICH70001I GG$SLP   LAST ACCESS AT 12:43:28 ON MONDAY, MARCH 15, 2004
 IEF142I WYL#EVAL $$QUIET - STEP WAS EXECUTED - COND CODE 0000
 *********************************************************************************
 *   WYL#EVAL/$$QUIET /                    Return Code      Zero                 *
 *   Region used      260K (16K user + 244K system)                              *
 *   Extended region  9464K (4K user + 9460K system)                             *
 *                                                                               *
 *   Paging              In      Out                                             *
 *   Private <-> Aux      0        0       CPU time (TCB)   00:00:00.01          *
 *   Private <-> Exp      0        0       CPU time (SRB)   00:00:00.00          *
 *   VIO                  0        0       Elapsed time    917:44:01.04          *
 *   Common               0      ---                                             *
 *                                                                               *
 *                                                                               *
 *   CPU Usage          0.18         $0.11  Standard Processing Unit Equivalent  *
 *                                   $0.11  Total Step execution charge          *
 *                                                                               *
 *    I/O count  DDname   Type Addr           I/O count  DDname   Type Addr      *
 *                         *** No I/O for this step ***                          *
 *********************************************************************************
 IEF373I STEP/$$QUIET /START 2004075.1243
 IEF374I STEP/$$QUIET /STOP  2004075.1243 CPU    0MIN 00.01SEC SRB    0MIN 00.00SEC VIRT    16K SYS   244K EXT       4K SYS    9460K
 IEF236I ALLOC. FOR WYL#EVAL ASM
 IEF237I 04DC ALLOCATED TO STEPLIB
 IEF237I 04DC ALLOCATED TO SYSLIB
 IEF237I 04DC ALLOCATED TO
 IEF237I 04DC ALLOCATED TO
 IEF237I 0402 ALLOCATED TO
 IEF237I 04A0 ALLOCATED TO
 IEF237I 04A0 ALLOCATED TO
 IGD101I SMS ALLOCATED TO DDNAME (SYSUT1  )
         DSN (SYS04075.T124351.RA000.WYL#EVAL.SYSUT1.H01  )
         STORCLAS (TEMP) MGMTCLAS (        ) DATACLAS (        )
         VOL SER NOS= VIO
 IEF237I JES2 ALLOCATED TO SYSTERM
 IGD101I SMS ALLOCATED TO DDNAME (SYSPRINT)
         DSN (SYS04075.T124351.RA000.WYL#EVAL.PRINT.H01   )
         STORCLAS (TEMP) MGMTCLAS (        ) DATACLAS (        )
         VOL SER NOS= SCR101
 IEF237I JES2 ALLOCATED TO SYSUDUMP
 IEF237I 04DC ALLOCATED TO SYSIN
 IEF142I WYL#EVAL ASM - STEP WAS EXECUTED - COND CODE 0000
 IEF285I   SYS3.IS.TESTASM                              KEPT
 IEF285I   VOL SER NOS= SYSB05.
 IEF285I   WYL.GS.WYL.WYLBUR.MACLIB                     KEPT
 IEF285I   VOL SER NOS= SYSB05.
 IEF285I   WYL.GG.SYS.MACLIB                            KEPT
 IEF285I   VOL SER NOS= SYSB05.
 IEF285I   SYS3.IS.MACLIB                               KEPT
 IEF285I   VOL SER NOS= SYSB05.
 IEF285I   SYS3.MACLIB                                  KEPT
 IEF285I   VOL SER NOS= SYSB02.
 IEF285I   SYS1.MACLIB                                  KEPT
 IEF285I   VOL SER NOS= MVSBR9.
 IEF285I   SYS1.MODGEN                                  KEPT
 IEF285I   VOL SER NOS= MVSBR9.
 IGD105I SYS04075.T124351.RA000.WYL#EVAL.SYSUT1.H01   DELETED,   DDNAME=SYSUT1
 IEF285I   GG$SLP.WYL#EVAL.JOB03521.D0000101.?          SYSOUT
 IGD106I SYS04075.T124351.RA000.WYL#EVAL.PRINT.H01    PASSED,    DDNAME=SYSPRINT
 IEF285I   GG$SLP.WYL#EVAL.JOB03521.D0000102.?          SYSOUT
 IEF285I   WYL.GS.WYL.WYLBUR.SOURCE                     KEPT
 IEF285I   VOL SER NOS= SYSB05.
 *********************************************************************************
 *   WYL#EVAL/ASM     /                    Return Code      Zero                 *
 *   Region used      4376K (4096K user + 280K system)                           *
 *   Extended region  10072K (412K user + 9660K system)                          *
 *                                                                               *
 *   Paging              In      Out                                             *
 *   Private <-> Aux      0        0       CPU time (TCB)   00:00:05.81          *
 *   Private <-> Exp      0        0       CPU time (SRB)   00:00:00.05          *
 *   VIO                  0        0       Elapsed time    917:44:00.00          *
 *   Common               0      ---                                             *
 *                                                                               *
 *                                                                               *
 *   CPU Usage        108.93        $67.53  Standard Processing Unit Equivalent  *
 *                                  $67.53  Total Step execution charge          *
 *                                                                               *
 *    I/O count  DDname   Type Addr           I/O count  DDname   Type Addr      *
 *           84  STEPLIB  Disk 04DC                 305  SYSLIB   Disk 04DC      *
 *            0  SYSLIB   Disk 04DC                   0  SYSLIB   Disk 04DC      *
 *            0  SYSLIB   Disk 0402                   0  SYSLIB   Disk 04A0      *
 *            0  SYSLIB   Disk 04A0                  15  SYSUT1   VIO  ----      *
 *            0  SYSTERM       ----                 340  SYSPRINT Disk 04E3      *
 *            0  SYSUDUMP      ----                  16  SYSIN    Disk 04DC      *
 *********************************************************************************
 IEF373I STEP/ASM     /START 2004075.1243
 IEF374I STEP/ASM     /STOP  2004075.1244 CPU    0MIN 05.81SEC SRB    0MIN 00.05SEC VIRT  4096K SYS   280K EXT     412K SYS    9660K
 IEF236I ALLOC. FOR WYL#EVAL EDIT
 IEF237I 0402 ALLOCATED TO STEPLIB
 IGD103I SMS ALLOCATED TO DDNAME ASMOUT
 IEF237I JES2 ALLOCATED TO SYSPRINT
 IEF142I WYL#EVAL EDIT - STEP WAS EXECUTED - COND CODE 0000
 IEF285I   WYL.GG.SYS.LINKLIB                           KEPT
 IEF285I   VOL SER NOS= SYSB02.
 IGD105I SYS04075.T124351.RA000.WYL#EVAL.PRINT.H01    DELETED,   DDNAME=ASMOUT
 IEF285I   GG$SLP.WYL#EVAL.JOB03521.D0000103.?          SYSOUT
 *********************************************************************************
 *   WYL#EVAL/EDIT    /                    Return Code      Zero                 *
 *   Region used      380K (116K user + 264K system)                             *
 *   Extended region  9588K (4K user + 9584K system)                             *
 *                                                                               *
 *   Paging              In      Out                                             *
 *   Private <-> Aux      0        0       CPU time (TCB)   00:00:01.06          *
 *   Private <-> Exp      0        0       CPU time (SRB)   00:00:00.03          *
 *   VIO                  0        0       Elapsed time    917:43:48.35          *
 *   Common               0      ---                                             *
 *                                                                               *
 *                                                                               *
 *   CPU Usage         19.87        $12.31  Standard Processing Unit Equivalent  *
 *                                  $12.31  Total Step execution charge          *
 *                                                                               *
 *    I/O count  DDname   Type Addr           I/O count  DDname   Type Addr      *
 *            2  STEPLIB  Disk 0402                 341  ASMOUT   Disk 04E3      *
 *            0  SYSPRINT      ----                                              *
 *********************************************************************************
 IEF373I STEP/EDIT    /START 2004075.1244
 IEF374I STEP/EDIT    /STOP  2004075.1244 CPU    0MIN 01.06SEC SRB    0MIN 00.03SEC VIRT   116K SYS   264K EXT       4K SYS    9584K
 *********************************************************************************
 *                                                                               *
 *                      S t a n f o r d   U n i v e r s i t y                    *
 *                                                                               *
 *                              *** Job Summary ***                              *
 *                                                                               *
 *   System Id      SYSB                   Input time     12:39:17  Mar 15, 2004 *
 *                                                                               *
 *   System Release SP6.1.0                Start time     12:43:51  Mar 15, 2004 *
 *                                                                               *
 *   Job name       WYL#EVAL               Stop  time     00:00:00  Mar 15, 2004 *
 *                                                                               *
 *   Account        SLP$GG                 Elapsed time  917:44:01.04            *
 *                                                                               *
 *   User Name      Assemble EVAL          CPU time       00:00:06.88            *
 *                                                                               *
 *   Job class      B                      SRB Time       00:00:00.08            *
 *                                                                               *
 *********************************************************************************
 IEF375I  JOB/WYL#EVAL/START 2004075.1243
 IEF376I  JOB/WYL#EVAL/STOP  2004075.1244 CPU    0MIN 06.88SEC SRB    0MIN 00.08SEC
1Assembler Done EVAL No Statements Flagged
1         High Level Assembler Option Summary                   (PTF P72483 )                                               Page    1
-                                                                                            HLASM R4.0  2004/03/15 12.43
0  No Overriding ASMAOPT Parameters
   Overriding Parameters-  NORENT,TERM,FLAG(NOCONT),US(MAP,WARN(10)),NODECK,LC(32767),XREF(SHORT),ESD,DXREF,NOOBJECT
   No Process Statements


   Options for this Assembly
0  NOADATA
     ALIGN
   NOASA
     BATCH
     CODEPAGE(047C)
   NOCOMPAT
   NODBCS
 3 NODECK
 3   DXREF
 3   ESD
   NOEXIT
 3   FLAG(0,ALIGN,NOCONT,NOIMPLEN,NOPAGE0,PUSH,RECORD,NOSUBSTR,USING0)
   NOFOLD
   NOGOFF
   NOINFO
     LANGUAGE(EN)
   NOLIBMAC
 3   LINECOUNT(32767)
     LIST(121)
     MXREF(SOURCE)
 3 NOOBJECT
     OPTABLE(UNI,NOLIST)
   NOPCONTROL
   NOPESTOP
   NOPROFILE
   NORA2
 3 NORENT
     RLD
     RXREF
     SIZE(MAX)
     SYSPARM()
 3   TERM(WIDE)
   NOTEST
     THREAD
   NOTRANSLATE
 3   USING(NOLIMIT,MAP,WARN(10))
 3   XREF(SHORT)

   No Overriding DD Names

1EVAL     External Symbol Dictionary                                                                                        Page    2
-Symbol   Type   Id     Address  Length     LD ID  Flags Alias-of                            HLASM R4.0  2004/03/15 12.43
0WYLEVAL   SD 00000001 00000000 00004A80             00
 EVAL9204  LD          00000000           00000001
 EVALEXPR  LD          00000022           00000001
 EVALSTR   LD          00000088           00000001
 EVALINT   LD          00000126           00000001
 SCANEXPR  LD          0000018A           00000001
 SEG       ER 00000002
 PKZERO    LD          0000120C           00000001
 PKONE     LD          00001218           00000001
 SEGT      ER 00000003
 SCNVNAME  LD          00001AE6           00000001
 GETARRAY  ER 00000004
 GETVAR    ER 00000005
 SEGVNAME  ER 00000006
 GETSVAR   ER 00000007
 CHECKEND  ER 00000008
 NSCAN     ER 00000009
 GTFNRTN   ER 0000000A
 MAKESTR   LD          00003896           00000001
 MAKEBOOL  LD          000039F2           00000001
 MAKENUMB  LD          00003AEC           00000001
 MAKEINT   LD          00003D1C           00000001
 MAKELNO   LD          00003D90           00000001
 MAKEITOD  LD          00003E1C           00000001
 MAKELTOD  LD          00003E64           00000001
 MAKEHEX   LD          00003EAC           00000001
 MAKECHAR  LD          00004182           00000001
 ZAPINTR6  LD          00004360           00000001
 ZAPOFFR6  LD          000043C0           00000001
 SEGCR     ER 0000000B
 SEGDC     ER 0000000C

1EVAL     WYLBUR's Expression Evaluator                                                                                     Page    3
0Loc    Object Code    Addr1 Addr2  Stmt Lv Lineno    Source Statement                    (Asmedit 3.3)  HLASM R4.0  2004/03/15 12.43
+___    ______ ____    _____ _____  ____ __ ______    ______ _________
0                                      2              *******************************************************************
                                       3              *                                                                 *
                                       4              *     WYLBUR/370 - Release VI - Class I - Stanford Proprietary    *
                                       5              *                                                                 *
                                       6              *******************************************************************
                                       7                       HIBAL
                                     988
1EVAL     WYLBUR's Expression Evaluator                                                                                     Page    4
0D-Loc  Object Code    Addr1 Addr2  Stmt Lv Lineno    Source Statement           (Hibal 5, Asmedit 3.3)  HLASM R4.0  2004/03/15 12.43
+_____  ______ ____    _____ _____  ____ __ ______    ______ _________
0000000                00000 04A80   990              WYLEVAL  CSECT
                                     994                       REGS  FSR,,,,,,,BR,(WAR,LSR),PAR,PBR,CPR,CVR,SPR,RAR
                                    1130
                                    1131              EVAL     IDENT 9204                08:22:11 07/23/99  (MPD)
                                    1134             +
                                    1135    01-IDENT +         ENTRY EVAL9204
                                    1136             +
 000000 16C5E5C1D3F9F2F0            1137    01-IDENT +EVAL9204 DC    AL1(22),C'EVAL9204,15MAR04,12:43'
                                    1138             +*
                                    1140              *
                                    1141                       SYSDEFN ,                 Define installation values
                                    1142
                                    1143                       PUSH  DSECTS
 USING  CP,R11                      1155             =         USING (CP),(CV)
 USING  CV,R12
 000017                00000 04A80  1174             =         POP   PRINT
 000017                00000 04A80  6587              WYLEVAL  CSECT
 000017 C796408696994089            6589                       DC    C'Go for it!!'
                                    6590
1EVAL     (EVAL9204) (12:43) (15MAR04) DSECTS                                                                               Page    5
0Current Usings:  (CP,R11) (CV,R12)
0Loc    Object Code    Addr1 Addr2  Stmt Lv Lineno    Source Statement           (Hibal 5, Asmedit 3.3)  HLASM R4.0  2004/03/15 12.43
+___    ______ ____    _____ _____  ____ __ ______    ______ _________
0                                   6592                       COPY  VNENTRY
                                    6593=            =¿þþþþþþþþþþþþþþþþþþþþþþþþþþþþþþþþþþþþþþþþþþþþþþþþþþþþþþþþþþþþþþþþþþþþþÜ
                                    6594=            =Ÿ                                                                     Ÿ
                                    6595=            =Ÿ                                                                     Ÿ
                                    6596=            =Ÿ  VARIABLE ENTRY (COMMON)                                            Ÿ
                                    6597=            =Ÿ                                                                     Ÿ
                                    6598=            =Ÿ                                                                     Ÿ
                                    6599=            =Ÿ                                                                     Ÿ
                                                      ¾þþþþþþþþþþþþþþþþþþþþþþþþþþþþþþþþþþþþþþþþþþþþþþþþþþþþþþþþþþþþþþþþþþþþþ»
0000000                00000 00050  6600             =VNENTRY  RECORD BEGIN ,            VARIABLE ENTRY
                                    6608= 1          =     ¿þþþþþþþþþþþþþþþþþþþþþþþþþþþþþþþþþþþþþþþþþþþþþþþþþþþþþþþþþþþþþþÜ
                                    6609= 1          =     Ÿ  VARIABLE NAME, DESCRIPTION      (ONLY NAME SAVED WITH VAR)  Ÿ
                                    6610= 1          =     ¾þþþþþþþþþþþþþþþþþþþþþþþþþþþþþþþþþþþþþþþþþþþþþþþþþþþþþþþþþþþþþþ»
 000000                             6611  1          =VNDESC     DS    XL32                VARIABLE DESCRIPTOR,
 000020                00020 00000  6612  1          =           ORG   VNDESC
 000000                             6613  1          =VNNAME     DS    CL16                VARIABLE NAME
 000010 00                          6614  1          =VNPREFIX   FLAG  ,                   NAME PREFIX FLAGS
 VNPREFIX.VNPFX    01 EQ            6618  1          =           FLAG  (VNPFX,1,EQ)        X.
 VNPREFIX.VNPFGBL  02 EQ            6628  1          =           FLAG  (VNPFGBL,2,EQ)      GBL.
 VNPREFIX.VNPFSYS  03 EQ            6638  1          =           FLAG  (VNPFSYS,3,EQ)      SYS.
 VNPREFIX.VNPFSES  04 EQ            6648  1          =           FLAG  (VNPFSES,4,EQ)      SES.
 VNPREFIX.VNPFPUB  05 EQ            6658  1          =           FLAG  (VNPFPUB,5,EQ)      PUB.
 000011 00                          6668  1          =VNAFLAGS   FLAG  ,                   ARRAY FLAGS
 VNAFLAGS.VNADESC  80 ONES          6672  1          =           FLAG  VNADESC             GENERIC ARRAY DESCRIPTOR
 000012                             6677  1          =VNASUB1    DS    H                   ARRAY SUBSCRIPTS
 000014                             6678  1          =VNASUB2    DS    H
 000016                             6679  1          =VNASUB3    DS    H
 000018                             6680  1          =           DS    0S(VNDESC+L'VNDESC-*)
 000018                00018 00020  6681  1          =           ORG
                                    6682= 1          =     ¿þþþþþþþþþþþþþþþþþþþþþþþþÜ
                                    6683= 1          =     Ÿ  VARIABLE TYPE, VALUE  Ÿ
                                    6684= 1          =     ¾þþþþþþþþþþþþþþþþþþþþþþþþ»
 000020                             6685  1          =VNDATA     DS    XL16                VARIABLE TYPE/VALUE
 000030                00030 00020  6686  1          =           ORG   VNDATA
 000020                             6687  1          =VNSDATA    DS    XL6                 VARIABLE TYPE/VALUE (STRING)
 000026                00026 00020  6688  1          =           ORG   VNDATA
 000020                             6689  1          =VNADATA    DS    XL48                VARIABLE TYPE/VALUE (ARRAY)
 000050                00050 00020  6690  1          =           ORG   VNDATA
                                    6691  1          =
 000020 00                          6692  1          =VNTYPE     FLAG  ,                   VARIABLE TYPE
 VNTYPE.VNSTRING   01 EQ            6696  1          =           FLAG  (VNSTRING,1,EQ)     STRING
 VNTYPE.VNNUMB     02 EQ            6706  1          =           FLAG  (VNNUMB,2,EQ)       NUMBER
 VNTYPE.VNBOOL     03 EQ            6716  1          =           FLAG  (VNBOOL,3,EQ)       BOOLEAN
 VNTYPE.VNARRAY    04 EQ            6726  1          =           FLAG  (VNARRAY,4,EQ)      ARRAY
 VNTYPE.VNFN       05 EQ            6736  1          =           FLAG  (VNFN,5,EQ)         FUNCTION
 VNTYPE.VNPROC     06 EQ            6746  1          =           FLAG  (VNPROC,6,EQ)       PROCEDURE
 VNTYPE.VNLABEL    07 EQ            6756  1          =           FLAG  (VNLABEL,7,EQ)      LABEL
 000021 00                          6766  1          =VNDEBUG    FLAG  ,                   DEBUG FLAGS
 VNDEBUG.VNDBGET   80 ONES          6770  1          =           FLAG  VNDBGET             DEBUG VARIABLE FETCH
 VNDEBUG.VNDBSAVE  40 ONES          6775  1          =           FLAG  VNDBSAVE            DEBUG VARIABLE STORE
 VNDEBUG.VNDBTRAC  20 ONES          6780  1          =           FLAG  VNDBTRAC            DEBUG TRACE THIS PROC/LABEL
 VNDEBUG.VNDBSTOP  10 ONES          6785  1          =           FLAG  VNDBSTOP            DEBUG STOP AT PROC/LABEL
 000022 00                          6790  1          =VNFLAGS1   FLAG  ,
1EVAL     (EVAL9204) (12:43) (15MAR04) DSECTS                                                                               Page    6
0Current Usings:  (CP,R11) (CV,R12)
0Loc    Object Code    Addr1 Addr2  Stmt Lv Lineno    Source Statement           (Hibal 5, Asmedit 3.3)  HLASM R4.0  2004/03/15 12.43
+___    ______ ____    _____ _____  ____ __ ______    ______ _________
0VNFLAGS1.VNINT    80 ONES          6794  1          =           FLAG  VNINT               ** INTEGER, OLD EXEC MODE !
 000023 00                          6799  1          =VNFLAGS2   FLAG  ,                   UNUSED
                                    6803= 1          =     ¿þþþþþþþþþþþþþþþÜ
                                    6804= 1          =     Ÿ  COMMON AREA  Ÿ
                                    6805= 1          =     ¾þþþþþþþþþþþþþþþ»
 000024                             6806  1          =           DS    0F
                                    6807  1          =VNAREA     EQU   *                   MULTI-USE AREA (COMMON)
                                    6808  1          =
 000024                00024 00024  6809  1          =           ORG   VNAREA
 000024                             6810  1          =           DS    0H                  (NUMBER), (BOOLEAN)
 000024                             6811  1          =VNVALUE    DS    XL12                ALL NUMBERS STORED AS PCKD DECIMAL
                                    6812  1          =
 000030                00030 00024  6813  1          =           ORG   VNAREA
 000024                             6814  1          =           DS    0H                  (STRING)
 000024                             6815  1          =VNSTRLEN   DS    H                   STRING LENGTH
                                    6816  1          =VNSTRLOC   EQU   *,1,C'C'            START OF STRING (IF ANY)
 000026                             6817  1          =           DS    0S(VNSDATA+L'VNSDATA-*)
                                    6818  1          =
 000026                00026 00024  6819  1          =           ORG   VNAREA
 000024                             6820  1          =           DS    0H                  (ARRAY)
 000024                             6821  1          =VNARG      DS    F                   ARRAY RECORD GROUP INFO POINTER
 000028                             6822  1          =VNASET     DS    F                   ARRAY SET NUMBER
 00002C                             6823  1          =VNAIDENT   DS    F                   ARRAY ID NUMBER
 000030 00                          6824  1          =VNATYPE    FLAG  ,                   ARRAY TYPE
 VNATYPE.VNASTR    01 EQ            6828  1          =           FLAG  (VNASTR,1,EQ)       STRINGS
 VNATYPE.VNANUMB   02 EQ            6838  1          =           FLAG  (VNANUMB,2,EQ)      NUMBERS
 VNATYPE.VNABOOL   03 EQ            6848  1          =           FLAG  (VNABOOL,3,EQ)      BOOLEANS
 000031 00                          6858  1          =VNAFLAG    FLAG  ,                   NOT USED
 000032                             6862  1          =VNADIM1    DS    H                   DIMENSION 1
 000034                             6863  1          =VNADIM2    DS    H                   DIMENSION 2
 000036                             6864  1          =VNADIM3    DS    H                   DIMENSION 3
 000038                             6865  1          =VNANAME    DS    CL(L'VNNAME)        ORIGINAL ARRAY NAME
 000048                             6866  1          =           DS    0S(VNADATA+L'VNADATA-*)
                                    6867  1          =
 000048                00048 00024  6868  1          =           ORG   VNAREA
 000024                             6869  1          =           DS    0H                  (PROCEDURE)
 000024                             6870  1          =VNPSTART   DS    F                   STARTING LINE NUMBER
 000028                             6871  1          =VNPEND     DS    F                   ENDING LINE NUMBER
 00002C                             6872  1          =           DS    0S(VNDATA+L'VNDATA-*)
                                    6873  1          =
 00002C                0002C 00024  6874  1          =           ORG   VNAREA
 000024                             6875  1          =           DS    0H                  (LABEL)
 000024                             6876  1          =VNLLINE    DS    F                   LABEL LINE NUMBER
 000028                             6877  1          =           DS    0S(VNDATA+L'VNDATA-*)
                                    6878  1          =
 000028                00028 00024  6879  1          =           ORG   VNAREA
 000024                             6880  1          =           DS    0H                  (FUNCTION)
 000024                             6881  1          =VNFSTART   DS    F                   STARTING LINE NUMBER
 000028                             6882  1          =VNFEND     DS    F                   ENDING LINE NUMBER
 00002C                             6883  1          =           DS    0S(VNDATA+L'VNDATA-*)
                                    6884  1          =
 00002C                0002C 00024  6885  1          =           ORG   VNAREA
 000024                             6886  1          =           DS    0H                  (SYSTEM VAR/FN/PROC)
 000024                             6887  1          =VNSYSRTN   DS    A                   ADDRESS OF SYSTEM ROUTINE
1EVAL     (EVAL9204) (12:43) (15MAR04) DSECTS                                                                               Page    7
0Current Usings:  (CP,R11) (CV,R12)
0Loc    Object Code    Addr1 Addr2  Stmt Lv Lineno    Source Statement           (Hibal 5, Asmedit 3.3)  HLASM R4.0  2004/03/15 12.43
+___    ______ ____    _____ _____  ____ __ ______    ______ _________
0000028                             6888  1          =           DS    0S(VNDATA+L'VNDATA-*)
 000028                00028 00050  6889  1          =           ORG
                                    6890  1          =*
                                    6891  1          =*
                                    6892  1          =NL         EQU   L'VNVALUE,,C'N'     NUMBER LENGTH
                                    6893  1          =MAXSTRLN   EQU   256,,C'N'           MAXIMUM STRING VAR LENGTH
                                    6894  1          =           DS    0S(MAXSTRLN-&LINESZ)
 000050                                   1          +           DS    0S(MAXSTRLN-235)
 000050                00050 00050  6895             =         END
                                    6904                       COPY  VPARM
                                    6905=            =¿þþþþþþþþþþþþþþþþþþþþþþþþþþþþþþþþþþþþþþþþþþþþþþþþþþþþþþþþþþþþþþþþþþþþþÜ
                                    6906=            =Ÿ                                                                     Ÿ
                                    6907=            =Ÿ                                                                     Ÿ
                                    6908=            =Ÿ  VARIABLE PARM AREA                                                 Ÿ
                                    6909=            =Ÿ                                                                     Ÿ
                                    6910=            =Ÿ                                                                     Ÿ
                                    6911=            =Ÿ                                                                     Ÿ
                                                      ¾þþþþþþþþþþþþþþþþþþþþþþþþþþþþþþþþþþþþþþþþþþþþþþþþþþþþþþþþþþþþþþþþþþþþþ»
0000000                00000 00150  6912             =VPARM    RECORD BEGIN ,            PARM AREA FOR VARIABLES
 000000                             6920  1          =           DS    (L'VNENTRY)X        IS A VARIABLE ENTRY
 000050                             6921  1          =           DS    (((MAXSTRLN-1)/16)*16+16)X  AND A STRING AREA
 000150                00150 00150  6922             =         END
1EVAL     (EVAL9204) (12:43) (15MAR04) DSECTS                                                                               Page    8
0Current Usings:  (CP,R11) (CV,R12)
0Loc    Object Code    Addr1 Addr2  Stmt Lv Lineno    Source Statement           (Hibal 5, Asmedit 3.3)  HLASM R4.0  2004/03/15 12.43
+___    ______ ____    _____ _____  ____ __ ______    ______ _________
0                                   6932                       COPY  XSENTRY
                                    6933=            =   ¿þþþþþþþþþþþþþþþþþþþþþþþþþþþþþþþþþþþþÜ
                                    6934=            =   Ÿ  GENERATE EQUIVALENT SYMBOL ENTRY  Ÿ
                                    6935=            =   ¾þþþþþþþþþþþþþþþþþþþþþþþþþþþþþþþþþþþþ»
                                    6936             =         MACRO
                                    6937             =&L       SAMEAS &SYMBOL,&DSECT=,&BASE=
                                    6938             =         LCLC  &TYPE
                                    6939             =&TYPE    SETC  T'&SYMBOL
                                    6940             =&L       EQU   &BASE+(&SYMBOL-&DSECT),L'&SYMBOL,C'&TYPE'
                                    6941             =         MEND
0                                   6943=            =¿þþþþþþþþþþþþþþþþþþþþþþþþþþþþþþþþþþþþþþþþþþþþþþþþþþþþþþþþþþþþþþþþþþþþþÜ
                                    6944=            =Ÿ                                                                     Ÿ
                                    6945=            =Ÿ                                                                     Ÿ
                                    6946=            =Ÿ  EXPRESSION STACK ENTRY                                             Ÿ
                                    6947=            =Ÿ                                                                     Ÿ
                                    6948=            =Ÿ  *** NOTE ***                                                       Ÿ
                                    6949=            =Ÿ  THIS DSECT IS THE SAME AS A VARIABLE ENTRY DSECT, WITH THE         Ÿ
                                    6950=            =Ÿ  EXCEPTION THAT THE VARIABLE NAME (DESCRIPTOR) FIELD IS REPLACE     Ÿ
                                    6951=            =Ÿ  WITH SPECIAL TYPE FLAGS AND OPERATOR STACK ENTRIES.                Ÿ
                                    6952=            =Ÿ                                                                     Ÿ
                                    6953=            =Ÿ  THE POINT OF THE COMPATIBILITY BETWEEN THIS DSECT AND THE          Ÿ
                                    6954=            =Ÿ  VARIABLE ENTRY DSECT, IS SO THAT THE RESULT OF THE EXPRESSION      Ÿ
                                    6955=            =Ÿ  EVALUATION (TYPE AND VALUE) IS COMPATIBLE.                         Ÿ
                                    6956=            =Ÿ                                                                     Ÿ
                                    6957=            =Ÿ                                                                     Ÿ
                                                      ¾þþþþþþþþþþþþþþþþþþþþþþþþþþþþþþþþþþþþþþþþþþþþþþþþþþþþþþþþþþþþþþþþþþþþþ»
0000000                00000 00050  6958             =XSENTRY  RECORD BEGIN ,            EXPRESSION STACK ENTRY
 000000                             6966  1          =XXSSTART   DS    0D
 000000                             6967  1          =           DS    (L'VNENTRY)X
                                    6968  1          =XSLENGTH   EQU   8192                STANDARD EXPRESSION STACK LEN
                                    6969  1          =XSLENTRY   EQU   XXSSTART,L'VPARM    ACTUAL LEN OF ENTRY (INCL. STR)
                                    6970  1          =*
                                    6971  1          =* EXPRESSION STACK ENTRIES,,,
                                    6972  1          =*
                                    6973  1          =*  ** CAUTION **
                                    6974  1          =* EXPRESSION STACK ENTRIES SHOULD ONLY OVERLAY VNDESC FIELD !
 000050                00050 00000  6975  1          =           ORG   XXSSTART+(VNDESC-VNENTRY)
 000000 00                          6976  1          =XSTYPE     FLAG  ,                   STACK ENTRY TYPE
 XSTYPE.XSSTART    01 EQ            6980  1          =           FLAG  (XSSTART,1,EQ)      START OF EXPRESSION
 XSTYPE.XSVAL      02 EQ            6990  1          =           FLAG  (XSVAL,2,EQ)        TERM, EVALUATED
 XSTYPE.XSOPER     03 EQ            7000  1          =           FLAG  (XSOPER,3,EQ)       OPERATOR
 XSTYPE.XSEND      04 EQ            7010  1          =           FLAG  (XSEND,4,EQ)        END OF EXPRESSION
 XSTYPE.XSNULL     05 EQ            7020  1          =           FLAG  (XSNULL,5,EQ)       NULL EXPRESSION
                                    7030  1          =
 000001                             7031  1          =XSUOPLVL   DS    X                   UNARY OPERATOR PRIORITY LEVEL
 000002                             7032  1          =XSBOPLVL   DS    X                   BINARY OPERATOR PRIORITY LEVEL
 000004                             7033  1          =XSUOPRTN   DS    A                   UNARY OPERATOR ROUTINE
 000008                             7034  1          =XSBOPRTN   DS    A                   BINARY OPERATOR ROUTINE
 00000C                             7035  1          =XSOPCHAR   DS    CL4                 OPERATOR
 000010                             7036  1          =           DS    0S(L'VNDESC-(*-(XXSSTART+(VNDESC-VNENTRY))))
1EVAL     (EVAL9204) (12:43) (15MAR04) DSECTS                                                                               Page    9
0Current Usings:  (CP,R11) (CV,R12)
0Loc    Object Code    Addr1 Addr2  Stmt Lv Lineno    Source Statement           (Hibal 5, Asmedit 3.3)  HLASM R4.0  2004/03/15 12.43
+___    ______ ____    _____ _____  ____ __ ______    ______ _________
0                                   7037= 1          =     ¿þþþþþþþþþþþþþþþþþþþþþþþþþþþþþþþþÜ
                                    7038= 1          =     Ÿ  STANDARD VARIABLE ENTRIES !!  Ÿ
                                    7039= 1          =     ¾þþþþþþþþþþþþþþþþþþþþþþþþþþþþþþþþ»
                                    7040  1          =XSNAME     SAMEAS VNNAME,DSECT=VNENTRY,BASE=XSENTRY     NAME AREA
                                    7041  1 01-06940 +XSNAME     EQU   XSENTRY+(VNNAME-VNENTRY),L'VNNAME,C'C'
                                    7042  1          =
                                    7043  1          =XSNUMB     SAMEAS VNNUMB,DSECT=VNENTRY,BASE=XSENTRY     TYPE: NUMBER
                                    7044  1 01-06940 +XSNUMB     EQU   XSENTRY+(VNNUMB-VNENTRY),L'VNNUMB,C''
                                    7045  1          =XSBOOL     SAMEAS VNBOOL,DSECT=VNENTRY,BASE=XSENTRY           BOOLEAN
                                    7046  1 01-06940 +XSBOOL     EQU   XSENTRY+(VNBOOL-VNENTRY),L'VNBOOL,C''
                                    7047  1          =XSSTRING   SAMEAS VNSTRING,DSECT=VNENTRY,BASE=XSENTRY         STRING
                                    7048  1 01-06940 +XSSTRING   EQU   XSENTRY+(VNSTRING-VNENTRY),L'VNSTRING,C''
                                    7049  1          =XSARRAY    SAMEAS VNARRAY,DSECT=VNENTRY,BASE,XSENTRY          ARRAY
                                    7050  1 01-06940 +XSARRAY    EQU   +(VNARRAY-VNENTRY),L'VNARRAY,C''
                                    7051  1          =
                                    7052  1          =XSVALUE    SAMEAS VNVALUE,DSECT=VNENTRY,BASE=XSENTRY     VALUE
                                    7053  1 01-06940 +XSVALUE    EQU   XSENTRY+(VNVALUE-VNENTRY),L'VNVALUE,C'X'
                                    7054  1          =XSSTRLOC   SAMEAS VNSTRLOC,DSECT=VNENTRY,BASE=XSENTRY    STRING LOC
                                    7055  1 01-06940 +XSSTRLOC   EQU   XSENTRY+(VNSTRLOC-VNENTRY),L'VNSTRLOC,C'C'
                                    7056  1          =XSSTRLEN   SAMEAS VNSTRLEN,DSECT=VNENTRY,BASE=XSENTRY    STRING LEN
                                    7057  1 01-06940 +XSSTRLEN   EQU   XSENTRY+(VNSTRLEN-VNENTRY),L'VNSTRLEN,C'H'
                                    7058  1          =
 000010                             7059  1          =           DS    0S(L'VPARM-L'XSLENTRY)
 000010                             7060  1          =           DS    0S(L'XSLENTRY-L'VPARM)
 000010                00010 00050  7061             =         END
1EVAL     (EVAL9204) (12:43) (15MAR04) DSECTS                                                                               Page   10
0Current Usings:  (CP,R11) (CV,R12)
0Loc    Object Code    Addr1 Addr2  Stmt Lv Lineno    Source Statement           (Hibal 5, Asmedit 3.3)  HLASM R4.0  2004/03/15 12.43
+___    ______ ____    _____ _____  ____ __ ______    ______ _________
0                                   7071                       ¿þþþþþþþþþþþþþþþþÜ
                                    7072                       Ÿ  LOCAL MACROS  Ÿ
                                    7073                       ¾þþþþþþþþþþþþþþþþ»
-                                   7075              *  CHECK FOR OVERFLOW,  F12.9 RIGHT JUSTFIED IN PACKED LEN 16
                                    7076                       MACRO
                                    7077                       OFLOW &NUM
                                    7078                       CLC   &NUM.(5),=X'0000000000'
                                    7079                       MEND
-                                   7081              *  CHECK FOR LONG (>F6.9 ) IN PACKED LEN 16
                                    7082                       MACRO
                                    7083                       LONG  &NUM
                                    7084                       CLC   &NUM.(8),=X'00000000000000000'
                                    7085                       MEND
1EVAL     (EVAL9204) (12:43) (15MAR04) EVALUATE EXPRESSION                                                                  Page   11
0Current Usings:  (CP,R11) (CV,R12)
0Loc    Object Code    Addr1 Addr2  Stmt Lv Lineno    Source Statement           (Hibal 5, Asmedit 3.3)  HLASM R4.0  2004/03/15 12.43
+___    ______ ____    _____ _____  ____ __ ______    ______ _________
0000022                00000 04A80  7087              WYLEVAL  CSECT
                                    7089              ¿þþþþþþþþþþþþþþþþþþþþþþþþþþþþþþþþþþþþþþþþþþþþþþþþþþþþþþþþþþþþþþþþþþþþþÜ
                                    7090              Ÿ                                                                     Ÿ
                                    7091              Ÿ                                                                     Ÿ
                                    7092              Ÿ  EVALEXPR - EVALUATE EXPRESSION  (CALLED EXTERNALLY)                Ÿ
                                    7093              Ÿ                                                                     Ÿ
                                    7094              Ÿ  ON ENTRY:                                                          Ÿ
                                    7095              Ÿ       R0 - EXPRESSION LENGTH                                        Ÿ
                                    7096              Ÿ       R1 - EXPRESSION LOCATION                                      Ÿ
                                    7097              Ÿ       R2 - RETURN AREA FOR EXPRESSION VALUE, TYPE                   Ÿ
                                    7098              Ÿ            (SEE VNENTRY DSECT.)                                     Ÿ
                                    7099              Ÿ                                                                     Ÿ
                                    7100              Ÿ  ON EXIT:                                                           Ÿ
                                    7101              Ÿ       R0 - LENGTH OF REMAINING STRING                               Ÿ
                                    7102              Ÿ       R1 - LOCATION OF REMAINING STRING                             Ÿ
                                    7103              Ÿ       R2 - EXPRESSION VALUE AND TYPE RETURNED.                      Ÿ
                                    7104              Ÿ            (OTHER FIELDS VALUES UNPREDICTABLE. SEE XSENTRY DSECT.)  Ÿ
                                    7105              Ÿ      R15 - CC=ZERO, ALL OK                                          Ÿ
                                    7106              Ÿ            CC=MINUS, NULL EXPRESSION                                Ÿ
                                    7107              Ÿ            CC=PLUS, ERROR, ERROR MSG TSEG'D.                        Ÿ
                                    7108              Ÿ                                                                     Ÿ
                                    7109              Ÿ  EXPRESSIONS ARE TERMINATED BY:                                     Ÿ
                                    7110              Ÿ       * ANOTHER EXPRESSION                                          Ÿ
                                    7111              Ÿ       * END OF LINE                                                 Ÿ
                                    7112              Ÿ       * TERMINATION CHARACTERS ';'  ','                             Ÿ
                                    7113              Ÿ                                                                     Ÿ
                                    7114              Ÿ  DOCUMENTATION ON ALLOWABLE EXPRESSIONS, AND THE MANNER             Ÿ
                                    7115              Ÿ  IN WHICH THEY ARE EVALUATED MAY BE FOUND IN WYLBUR EXEC            Ÿ
                                    7116              Ÿ  FILE MANUAL.                                                       Ÿ
                                    7117              Ÿ                                                                     Ÿ
                                    7118              Ÿ                                                                     Ÿ
                                    7119              Ÿ                                                                     Ÿ
                                                      ¾þþþþþþþþþþþþþþþþþþþþþþþþþþþþþþþþþþþþþþþþþþþþþþþþþþþþþþþþþþþþþþþþþþþþþ»
0000022 50E0 D000/9008_      00000  7120              EVALEXPR XPROC ,
 USING  *,R7
 00003C 9025 D000/412D_      00000  7160                       XSINIT XSLENGTH           SET UP EXPRESSION STACK (@R6)
 000062 58E0 74BC/0DEE       004F8  7173                       ACALL  XXXEVAL            CALL EXPRESSION EVALUATOR
                                    7177                       COMMENT
                                    7178                       COMMENT                     XXXEVAL IS INTERNAL ENTRY
                                    7179                       COMMENT                     POINT. IT IS CALLED RECURSIVELY
                                    7180                       COMMENT                     FROM WITHIN THE EVAL MODULE
                                    7181                       COMMENT
 000068 4130 0150            00150  7182                       LA    R3,L'XSLENTRY
 00006C 1846                        7183                       LR    R4,R6               MOVE VALUE FROM STACK TO RET AREA
 00006E 1853                        7184                       LR    R5,R3
 000070 0E24                        7185                       MVCL  R2,R4
 000072 5BD0 74B8            004F4  7186                       XSDONE XSLENGTH           FREE EXPRESSION STACK
 000076 9001 8004            00004  7189                       PRETURN (R0,R1)
 00007A 18D8/9808 D004_             7191                       PEND  ,
 DROP   *,R7
1EVAL     (EVAL9204) (12:43) (15MAR04) EVALUATE EXPRESSION                                                                  Page   12
0Current Usings:  (CP,R11) (CV,R12)
0Loc    Object Code    Addr1 Addr2  Stmt Lv Lineno    Source Statement           (Hibal 5, Asmedit 3.3)  HLASM R4.0  2004/03/15 12.43
+___    ______ ____    _____ _____  ____ __ ______    ______ _________
0                                   7212              ¿þþþþþþþþþþþþþþþþþþþþþþþþþþþþþþþþþþþþþþþþþþþþþþþþþþþþþþþþþþþþþþþþþþþþþÜ
                                    7213              Ÿ                                                                     Ÿ
                                    7214              Ÿ                                                                     Ÿ
                                    7215              Ÿ  EVALSTR - EVALUATE STRING EXPRESSION                               Ÿ
                                    7216              Ÿ                                                                     Ÿ
                                    7217              Ÿ  ON ENTRY:                                                          Ÿ
                                    7218              Ÿ       R0 - EXPRESSION LENGTH                                        Ÿ
                                    7219              Ÿ       R1 - EXPRESSION LOCATION                                      Ÿ
                                    7220              Ÿ       R2 - LOCATION OF RETURN AREA                                  Ÿ
                                    7221              Ÿ       R3 - LENGTH OF RETURN AREA                                    Ÿ
                                    7222              Ÿ                                                                     Ÿ
                                    7223              Ÿ  ON EXIT:                                                           Ÿ
                                    7224              Ÿ       R0 - LENGTH OF REMAINING STRING                               Ÿ
                                    7225              Ÿ       R1 - LOCATION OF REMAINING STRING                             Ÿ
                                    7226              Ÿ       R2 - STRING ADDRESS                                           Ÿ
                                    7227              Ÿ       R3 - STRING LENGTH                                            Ÿ
                                    7228              Ÿ      R15 - CC=ZERO, ALL OK                                          Ÿ
                                    7229              Ÿ            CC=MINUS, NULL EXPRESSION                                Ÿ
                                    7230              Ÿ            CC=PLUS, ERROR, ERROR MSG TSEG'D.                        Ÿ
                                    7231              Ÿ                                                                     Ÿ
                                    7232              Ÿ  NOTES: IF THE STRING LONGER THAN THE RETURN AREA IT WILL BE        Ÿ
                                    7233              Ÿ         TRUNCATED WITHOUT SETTING ERROR. ALSO ALL EXPRESSIONS       Ÿ
                                    7234              Ÿ         CAN BE CONVERTED TO STRING, SO THERE ARE NO ERRORS          Ÿ
                                    7235              Ÿ         THERE EITHER.                                               Ÿ
                                    7236              Ÿ                                                                     Ÿ
                                                      ¾þþþþþþþþþþþþþþþþþþþþþþþþþþþþþþþþþþþþþþþþþþþþþþþþþþþþþþþþþþþþþþþþþþþþþ»
0000000                00000 00150  7237              EVXWA    RECORD BEGIN
 000000                             7245  1           EVXVAR     DS    XL(L'VPARM)         EXPRESSION VALUE RETURN AREA
 000150                00150 00150  7246                       END
                                    7255              *
                                    7256              *
 000088 50E0 D000/9008_      00000  7257              EVALSTR  XPROC EVXWA
 USING  *,R7
 USING  EVXWA-(4+36),R8
 USING  XSENTRY,R6                  7308                       USING XSENTRY,R6
 0000A2 4160 8028            00000  7317                       LA    R6,EVXVAR
 0000A6 1842                        7318                       LR    R4,R2
 0000A8 1853                        7319                       LR    R5,R3
                                    7320
                                    7321                       COMMENT                   EVALUATE EXPRESSION
 0000AA 4120 6000            00000  7322                       LA    R2,XSENTRY
 0000AE 58E0 745A/0DEE       004FC  7323                       ACALL EVALEXPR
 0000B4 9001 D000/41D0_      00000  7327                       XPUSH R0,R1
 0000BC 12FF/4770 7060              7330                       IF    (R15,Z),BEGIN       GOOD EXPRESSION
 0000C2 4120 6000            00000  7344  1                      LA    R2,XSENTRY
 0000C6 58E0 745E/0DEE       00500  7345  1                      ACALL MAKESTR
 0000CC 4770 7058            000FA  7349  1                      IF    Z,BEGIN
 0000D0 1BFF                        7360  2                        CLEAR R15
 0000D2 4100 6026            00026  7364  2                        LA    R0,XSSTRLOC
 0000D6 4810 6024            00024  7365  2                        LH    R1,XSSTRLEN
 0000DA 1915/47D0 7040_             7366  2                        IF    (R1,GT,R5),'LR R1,R5'
 0000E2 1915/47B0 7048_             7387  2                        IF    (R1,LT,R5),'LR R5,R1'
 0000EA 1824                        7408  2                        LR    R2,R4
1EVAL     (EVAL9204) (12:43) (15MAR04) EVALUATE EXPRESSION                                                                  Page   13
0Current Usings:  (XSENTRY,R6) (*,R7) (EVXWA-(4+36),R8) (CP,R11) (CV,R12)
0Loc    Object Code    Addr1 Addr2  Stmt Lv Lineno    Source Statement           (Hibal 5, Asmedit 3.3)  HLASM R4.0  2004/03/15 12.43
+___    ______ ____    _____ _____  ____ __ ______    ______ _________
00000EC 1835                        7409  2                        LR    R3,R5
 0000EE 0E20                        7410  2                        MVCL  R2,R0
 0000F0 1701/1710/1701              7411  2                        FLIP  (R0,R1)             R1 = loc; R0 = len
 0000F6 1824                        7419  2                        LR    R2,R4
 0000F8 1835                        7420  2                        LR    R3,R5
 0000FA                             7421  1                      END
 0000FA 705C/47F0 7060 000FA 000CE  7425  1                      ELSE  BEGIN               NOT STRING EXPRESSION
 0000FE 41F0 0004            00004  7436  2                        LA    R15,4
 000102                             7437  1                      END
 000102                             7441                       END
                                    7445
 000102 12FF/4780 7068              7446                       IF    (R15,NZ),BEGIN      IF ERROR...
 000108 1B33                        7460  1                      CLEAR R3
 00010A                             7464                       END
                                    7468
 00010A 4BD0 7482/9801_      00524  7469                       XPOP  R0,R1               Restore remaining string loc, len
                                    7472
 000112 1824                        7473                       LR    R2,R4
 000114 9003 8004            00004  7474                       PRETURN (R0,R3)
 000118 18D8/9808 D004_             7476                       PEND  ,
 DROP   EVXWA-(4+36),R8
 DROP   *,R7
 DROP   XSENTRY,R6                  7501                       DROP  R6
1EVAL     (EVAL9204) (12:43) (15MAR04) EVALUATE EXPRESSION                                                                  Page   14
0Current Usings:  (CP,R11) (CV,R12)
0Loc    Object Code    Addr1 Addr2  Stmt Lv Lineno    Source Statement           (Hibal 5, Asmedit 3.3)  HLASM R4.0  2004/03/15 12.43
+___    ______ ____    _____ _____  ____ __ ______    ______ _________
0                                   7509              ¿þþþþþþþþþþþþþþþþþþþþþþþþþþþþþþþþþþþþþþþþþþþþþþþþþþþþþþþþþþþþþþþþþþþþþÜ
                                    7510              Ÿ                                                                     Ÿ
                                    7511              Ÿ                                                                     Ÿ
                                    7512              Ÿ  EVALINT - EVALUATE INTEGER EXPRESSION                              Ÿ
                                    7513              Ÿ                                                                     Ÿ
                                    7514              Ÿ  ON ENTRY:                                                          Ÿ
                                    7515              Ÿ       R0 - EXPRESSION LENGTH                                        Ÿ
                                    7516              Ÿ       R1 - EXPRESSION LOCATION                                      Ÿ
                                    7517              Ÿ                                                                     Ÿ
                                    7518              Ÿ  ON EXIT:                                                           Ÿ
                                    7519              Ÿ       R0 - LENGTH OF REMAINING STRING                               Ÿ
                                    7520              Ÿ       R1 - LOCATION OF REMAINING STRING                             Ÿ
                                    7521              Ÿ       R2 - INTEGER VALUE OF EXPRESSION                              Ÿ
                                    7522              Ÿ            (ANY FRACTIONAL PART IS TRUNCATED.)                      Ÿ
                                    7523              Ÿ      R15 - CC=ZERO, ALL OK                                          Ÿ
                                    7524              Ÿ            CC=MINUS, NULL EXPRESSION                                Ÿ
                                    7525              Ÿ            CC=PLUS, ERROR, ERROR MSG TSEG'D.                        Ÿ
                                    7526              Ÿ                                                                     Ÿ
                                    7527              Ÿ                                                                     Ÿ
                                                      ¾þþþþþþþþþþþþþþþþþþþþþþþþþþþþþþþþþþþþþþþþþþþþþþþþþþþþþþþþþþþþþþþþþþþþþ»
0000126 50E0 D000/9008_      00000  7528              EVALINT  XPROC EVXWA
 USING  *,R7
 USING  EVXWA-(4+36),R8
 USING  XSENTRY,R6                  7579                       USING XSENTRY,R6
 000140 4160 8028            00000  7588                       LA    R6,EVXVAR
                                    7589
                                    7590                       COMMENT                   EVALUATE EXPRESSION
 000144 4120 6000            00000  7591                       LA    R2,XSENTRY
 000148 58E0 73BC/0DEE       004FC  7592                       ACALL EVALEXPR
 00014E 12FF/4770 7030              7596                       IF    (R15,Z),BEGIN          GOOD EXPRESSION
 000154 4120 6000            00000  7610  1                      LA    R2,XSENTRY
 000158 58E0 73C4/0DEE       00504  7611  1                      ACALL MAKEINT
 00015E 4770 7028            00168  7615  1                      IF    Z,BEGIN
 000162 1BFF                        7626  2                        CLEAR R15
 000164 5820 6024            00024  7630  2                        L     R2,XSVALUE
 000168                             7631  1                      END
 000168 702C/47F0 7030 00168 00160  7635  1                      ELSE  BEGIN                  NOT INTEGER EXPRESSION
 00016C 41F0 0004            00004  7646  2                        LA    R15,4
 000170                             7647  1                      END
 000170                             7651                       END
 000170 12FF/4780 7038              7655                       IF    (R15,NZ),BEGIN         IF ERROR
 000176 1B22                        7669  1                      CLEAR R2
 000178                             7673                       END
                                    7677
 000178 9002 8004            00004  7678                       PRETURN (R0,R2)
 00017C 18D8/9808 D004_             7680                       PEND  ,
 DROP   EVXWA-(4+36),R8
 DROP   *,R7
 DROP   XSENTRY,R6                  7705                       DROP  R6
1EVAL     (EVAL9204) (12:43) (15MAR04) EVALUATE EXPRESSION                                                                  Page   15
0Current Usings:  (CP,R11) (CV,R12)
0Loc    Object Code    Addr1 Addr2  Stmt Lv Lineno    Source Statement           (Hibal 5, Asmedit 3.3)  HLASM R4.0  2004/03/15 12.43
+___    ______ ____    _____ _____  ____ __ ______    ______ _________
0                                   7713              ¿þþþþþþþþþþþþþþþþþþþþþþþþþþþþþþþþþþþþþþþþþþþþþþþþþþþþþþþþþþþþþþþþþþþþþÜ
                                    7714              Ÿ                                                                     Ÿ
                                    7715              Ÿ                                                                     Ÿ
                                    7716              Ÿ  SCANEXPR - SCAN (SKIP) EXPRESSION                                  Ÿ
                                    7717              Ÿ                                                                     Ÿ
                                    7718              Ÿ  THIS ROUTINE SCANS AND SKIPS AN EXPRESSION, AN ERROR WILL          Ÿ
                                    7719              Ÿ  BE RETURNED IF THE EXPRESSION IS INVALID.  (EG. DIVIDE BY          Ÿ
                                    7720              Ÿ  BY ZERO. UNDECLARED VARIABLE. ETC. ETC.)  THIS ROUTINE IS          Ÿ
                                    7721              Ÿ  ESSENTIALLY THE SAME AS EVALEXPR, TO WRITE A GENERAL               Ÿ
                                    7722              Ÿ  EXPRESSION SCANNER IS A LOT OF WORK, SO WE JUST EVALUATE IT.       Ÿ
                                    7723              Ÿ  THIS HAS ITS PITFALLS (EG. YESNO WILL BE EVALUATED (ASK)           Ÿ
                                    7724              Ÿ  TWICE IN XCALLS)  ANYWAY FOR NOW THIS WILL HAVE TO DO.             Ÿ
                                    7725              Ÿ                                                                     Ÿ
                                    7726              Ÿ  ON ENTRY:                                                          Ÿ
                                    7727              Ÿ       R0 - STRING LENGTH                                            Ÿ
                                    7728              Ÿ       R1 - STRING LOCATION                                          Ÿ
                                    7729              Ÿ                                                                     Ÿ
                                    7730              Ÿ  ON EXIT:                                                           Ÿ
                                    7731              Ÿ       R0 - LENGTH OF REMAINING STRING                               Ÿ
                                    7732              Ÿ       R1 - LOCATION OF REMAINING STRING                             Ÿ
                                    7733              Ÿ      R15 - CC=ZERO, ALL OK                                          Ÿ
                                    7734              Ÿ            CC=MINUS, NULL EXPRESSION                                Ÿ
                                    7735              Ÿ            CC=PLUS, ERROR, ERROR MSG TSEG'D.                        Ÿ
                                    7736              Ÿ                                                                     Ÿ
                                    7737              Ÿ  EXPRESSIONS ARE TERMINATED BY:                                     Ÿ
                                    7738              Ÿ       * ANOTHER EXPRESSION                                          Ÿ
                                    7739              Ÿ       * END OF LINE                                                 Ÿ
                                    7740              Ÿ       * TERMINATION CHARACTERS ';'  ','                             Ÿ
                                    7741              Ÿ                                                                     Ÿ
                                    7742              Ÿ  DOCUMENTATION ON ALLOWABLE EXPRESSIONS, AND THE MANNER             Ÿ
                                    7743              Ÿ  IN WHICH THEY ARE EVALUATED MAY BE FOUND IN WYLBUR EXEC            Ÿ
                                    7744              Ÿ  FILE MANUAL.                                                       Ÿ
                                    7745              Ÿ                                                                     Ÿ
                                    7746              Ÿ                                                                     Ÿ
                                                      ¾þþþþþþþþþþþþþþþþþþþþþþþþþþþþþþþþþþþþþþþþþþþþþþþþþþþþþþþþþþþþþþþþþþþþþ»
000018A 50E0 D000/9008_      00000  7747              SCANEXPR XPROC ,
 USING  *,R7
 0001A4 9025 D000/412D_      00000  7787                       XSINIT XSLENGTH           SET UP EXPRESSION STACK (@R6)
 0001CA 58E0 7354/0DEE       004F8  7800                       ACALL  XXXEVAL            CALL EXPRESSION EVALUATOR
                                    7804                       COMMENT
                                    7805                       COMMENT                     XXXEVAL IS INTERNAL ENTRY POINT
                                    7806                       COMMENT                     FOR EXPRESSION EVALUATION IT IS
                                    7807                       COMMENT                     CALLED RECURSIVELY FROM WITHIN
                                    7808                       COMMENT                     EVAL MODULE.
                                    7809                       COMMENT
 0001D0 5BD0 7350            004F4  7810                       XSDONE XSLENGTH           FREE EXPRESSION STACK
 0001D4 9001 8004            00004  7813                       PRETURN (R0,R1)
 0001D8 18D8/9808 D004_             7815                       PEND  ,
 DROP   *,R7
1EVAL     (EVAL9204) (12:43) (15MAR04) EVALUATE EXPRESSION                                                                  Page   16
0Current Usings:  (CP,R11) (CV,R12)
0Loc    Object Code    Addr1 Addr2  Stmt Lv Lineno    Source Statement           (Hibal 5, Asmedit 3.3)  HLASM R4.0  2004/03/15 12.43
+___    ______ ____    _____ _____  ____ __ ______    ______ _________
0                                   7836              ¿þþþþþþþþþþþþþþþþþþþþþþþþþþþþþþþþþþþþþþþþþþþþþþþþþþþþþþþþþþþþþþþþþþþþþÜ
                                    7837              Ÿ                                                                     Ÿ
                                    7838              Ÿ                                                                     Ÿ
                                    7839              Ÿ  XXXEVAL - EVALUATE EXPRESSION                                      Ÿ
                                    7840              Ÿ                                                                     Ÿ
                                    7841              Ÿ  ON ENTRY:                                                          Ÿ
                                    7842              Ÿ       R1,R0 - EXPRESSION LOC,LEN                                    Ÿ
                                    7843              Ÿ       R6    - EXPRESSION STACK AREA                                 Ÿ
                                    7844              Ÿ                                                                     Ÿ
                                    7845              Ÿ  ON EXIT:                                                           Ÿ
                                    7846              Ÿ       R1,R0 - LOC, LEN OF REMAINING STRING                          Ÿ
                                    7847              Ÿ       R6    - EXPRESSION VALUE AND TYPE RETURNED.  SEE XSENTRY      Ÿ
                                    7848              Ÿ               DSECT.  IF NULL EXPRESSION XSNULL FLAG SET.           Ÿ
                                    7849              Ÿ       R15   - CC=ZERO, ALL OK                                       Ÿ
                                    7850              Ÿ               CC=MINUS, NULL EXPRESSION                             Ÿ
                                    7851              Ÿ               CC=PLUS, ERROR, ERROR MSG TSEG'D.                     Ÿ
                                    7852              Ÿ                                                                     Ÿ
                                    7853              Ÿ                                                                     Ÿ
                                    7854              Ÿ  THIS ROUTINE IS CALLED FROM WITHIN THE EVAL MODULE. IT IS          Ÿ
                                    7855              Ÿ  CALLED RECURSIVELY.  EXTERNAL CALLS TO EVALUATE AN EXPRESSION      Ÿ
                                    7856              Ÿ  SHOULD BE MADE TO EVALEXPR ROUTINE.                                Ÿ
                                    7857              Ÿ                                                                     Ÿ
                                    7858              Ÿ                                                                     Ÿ
                                    7859              Ÿ                                                                     Ÿ
                                                      ¾þþþþþþþþþþþþþþþþþþþþþþþþþþþþþþþþþþþþþþþþþþþþþþþþþþþþþþþþþþþþþþþþþþþþþ»
0000000                00000 00008  7860              EVALWA   RECORD BEGIN ,
 000000                             7868  1           EXPRLEN    DS    F                   LENGTH OF REMAINING EXPRESSION
 000004                             7869  1           EXPRLOC    DS    A                   LOCATION OF REMAINING EXPRESSION
 000008                00008 00008  7870                       END
                                    7879              *
                                    7880              *
 0001E6 50E0 D000/9008_      00000  7881              XXXEVAL  PROC  EVALWA     EVALUATE EXPRESSION
 USING  *,R7
 USING  EVALWA-(4+36),R8
 USING  XSENTRY,R6                  7931                       USING XSENTRY,R6
 000200 5000 8028            00000  7940                       ST    R0,EXPRLEN
 000204 5010 802C            00004  7941                       ST    R1,EXPRLOC
 000208 D74F 6000 6000 00000 00000  7942                       CLEAR XSENTRY
 00020E 9201 6000      00000        7949                       SET   XSSTART             MARK START OF EXPRESSION STACK
 000212 1BFF/5A60 7308_             7955                       XSPUSH ,,
 00023A 4770 7164            00364  7994                       BNZ   EVALDONE
                                    7995              ***
 00023E                             7996                       LOOP  BEGIN ,             LOOP SCANNING, EVALUATING EXPR
                                    8002  1                      COMMENT
 00023E 5800 8028            00000  8003  1                      L     R0,EXPRLEN              R0 - LEN OF EXPR TO SCAN
 000242 5810 802C            00004  8004  1                      L     R1,EXPRLOC              R1 - LOC OF EXPR TO SCAN
                                    8005  1                      COMMENT                       R6 - EXPRESSION STACK PTR
                                    8006  1                      COMMENT
                                    8007  1                      COMMENT                   SCAN EXPRESSION
 000246 5B60 7308            00508  8008  1                      XSPOP ,
 00024A 9502 6000/4770_00000        8010  1                      IF    XSVAL,BEGIN
 000252 5A60 7308            00508  8025  2                        XSPUSH NOCHECK               IF VALUE IS LAST THING ON
 000256 58E0 7310/0DEE       00510  8027  2                        ACALL SCANOPER                  STACK, SCAN FOR OPERATOR
1EVAL     (EVAL9204) (12:43) (15MAR04) EVALUATE EXPRESSION                                                                  Page   17
0Current Usings:  (XSENTRY,R6) (*,R7) (EVALWA-(4+36),R8) (CP,R11) (CV,R12)
0Loc    Object Code    Addr1 Addr2  Stmt Lv Lineno    Source Statement           (Hibal 5, Asmedit 3.3)  HLASM R4.0  2004/03/15 12.43
+___    ______ ____    _____ _____  ____ __ ______    ______ _________
000025C                             8031  1                      END
 00025C 7060/47F0 706A 0025C 00250  8035  1                      ELSE  BEGIN ,
 000260 5A60 7308            00508  8046  2                        XSPUSH NOCHECK               OTHERWISE, SCAN FOR VALUE,
 000264 58E0 7314/0DEE       00514  8048  2                        ACALL XXXSCAN                   OPERATOR, OR ANYTHING
 00026A                             8052  1                      END
 00026A 4770 7164            00364  8056  1                      BNZ   EVALDONE
 00026E 5000 8028            00000  8057  1                      ST    R0,EXPRLEN
 000272 5010 802C            00004  8058  1                      ST    R1,EXPRLOC
                                    8059  1           ***                                IF OPERATOR SCANNED
 000276 9503 6000/4770_00000        8060  1                      IF    XSOPER,BEGIN        IF OPERATOR,,,
 00027E 1B00                        8075  2                        SR    R0,R0
 000280 4300 6002            00002  8076  2                        IC    R0,XSBOPLVL             GET OPERATOR PRECEDENCE
 000284 58E0 7318/0DEE       00518  8077  2                        ACALL EVLSTACK                EVALUATE STACK AS WE GO
 00028A 1821                        8081  2                        LR    R2,R1
 00028C 4130 0150            00150  8082  2                        LA    R3,L'XSLENTRY           MOVE OPERATOR JUST SCANNED TO
 000290 1846                        8083  2                        LR    R4,R6                   END OF STACK
 000292 1853                        8084  2                        LR    R5,R3
 000294 0E24                        8085  2                        MVCL  R2,R4
 000296 1861                        8086  2                        LR    R6,R1                   UPDATE STACK POINTER
 000298 1BFF/5A60 7308_             8087  2                        XSPUSH ,,                     PUSH STACK PAST OPERATOR
 0002C0 4770 7164            00364  8126  2                        BNZ   EVALDONE
 0002C4                             8127  1                      END
                                    8131  1           ***                                IF VALUE SCANNED
 0002C4 70C8/47F0 70FC_002C4 0027C  8132  1                      ELSEIF XSVAL,BEGIN        IF VALUE,
 0002D0 1BFF/5A60 7308_             8156  2                        XSPUSH ,,                     PUSH IT ONTO STACK
 0002F8 4770 7164            00364  8195  2                        BNZ   EVALDONE
 0002FC                             8196  1                      END
                                    8200  1           ***                                IF EXPRESSION END SCANNED
 0002FC 7100/47F0 7160_002FC 002CE  8201  1                      ELSEIF XSEND,BEGIN        IF EXPRESSION END, ,,,
 000308 4100 0020            00020  8225  2                        LA    R0,ENDLVL
 00030C 58E0 7318/0DEE       00518  8226  2                        ACALL EVLSTACK                FINISH EVALUATING STACK
 000312 4770 7164            00364  8230  2                        BNZ   EVALDONE
 000316 1861                        8231  2                        LR    R6,R1                   R1 - NEW END OF STACK
 000318 D74F 6000 6000 00000 00000  8232  2                        CLEAR XSENTRY                 MARK END OF STACK
 00031E 9204 6000      00000        8239  2                        SET   XSEND
 000322 1BFF/5A60 7308_             8245  2                        XSPUSH ,,
 00034A 4770 7164            00364  8284  2                        BNZ   EVALDONE
 00034E 58E0 731C/0DEE       0051C  8285  2                        ACALL EVLEND                  DO END OF EXPR. PROCESSING
 000354 4770 7164            00364  8289  2                        BNZ   EVALDONE
 000358 1861                        8290  2                        LR    R6,R1
 00035A 1BFF                        8291  2                        CLEAR R15
 00035C 47F0 7164            00364  8295  2                        B     EVALDONE
 000360                             8296  1                      END
 000360 47F0 703E            0023E  8300                       END   ,
                                    8305              ***                                END OF LOOP
                                    8306              *
 000364                             8307              EVALDONE LABEL ,
 000364 5800 8028            00000  8309                       L     R0,EXPRLEN          RETURN - R0,R1.. LOC LEN REMAINING
 000368 5810 802C            00004  8310                       L     R1,EXPRLOC
 00036C 12FF/4780 7176              8311                       IF    (R15,NZ),BEGIN      RETURN - R15.. CONDITION CODE
 000372 41F0 0004            00004  8325  1                      LA    R15,4
 000376                             8326                       END
 000376 717A/47F0 7186_00376 00370  8330                       ELSEIF XSNULL,BEGIN
 000382 58F0 7320            00520  8354  1                      L     R15,=F'-4'
1EVAL     (EVAL9204) (12:43) (15MAR04) EVALUATE EXPRESSION                                                                  Page   18
0Current Usings:  (XSENTRY,R6) (*,R7) (EVALWA-(4+36),R8) (CP,R11) (CV,R12)
0Loc    Object Code    Addr1 Addr2  Stmt Lv Lineno    Source Statement           (Hibal 5, Asmedit 3.3)  HLASM R4.0  2004/03/15 12.43
+___    ______ ____    _____ _____  ____ __ ______    ______ _________
0000386                             8355                       END
 000386 9001 8004            00004  8359                       PRETURN (R0,R1)
 00038A 18D8/9808 D004_             8361                       PEND  ,
 DROP   EVALWA-(4+36),R8
 DROP   *,R7
                                    8386                       DROP  R2
1EVAL     (EVAL9204) (12:43) (15MAR04) EVALUATE EXPRESSION                                                                  Page   19
0Current Usings:  (XSENTRY,R6) (CP,R11) (CV,R12)
0Loc    Object Code    Addr1 Addr2  Stmt Lv Lineno    Source Statement           (Hibal 5, Asmedit 3.3)  HLASM R4.0  2004/03/15 12.43
+___    ______ ____    _____ _____  ____ __ ______    ______ _________
0                                   8391                       ¿þþþþþþþþþþþþþþþþþþþþþþþþþþþþþþÜ
                                    8392                       Ÿ  OPERATOR PRECEDENCE         Ÿ
                                    8393                       Ÿ                              Ÿ
                                    8394                       Ÿ  (UP TO 128 LEVELS ALLOWED)  Ÿ
                                    8395                       ¾þþþþþþþþþþþþþþþþþþþþþþþþþþþþþþ»
                                    8396              LEVEL0   EQU   0                   LOWEST LEVEL IS
                                    8397              LEVEL1   EQU   4                     HIGHEST PRECEDENCE
                                    8398              LEVEL2   EQU   8
                                    8399              LEVEL3   EQU   12
                                    8400              LEVEL4   EQU   16
                                    8401              LEVEL5   EQU   20
                                    8402              LEVEL6   EQU   24
                                    8403              LEVEL7   EQU   28
                                    8404              LEVEL8   EQU   32
                                    8405
                                    8406              BADLVL   EQU   LEVEL1              ILLEGAL UNARY/BINARY OPERATOR
                                    8407              POSLVL   EQU   LEVEL1              UNARY +
                                    8408              NEGLVL   EQU   LEVEL1              UNARY -
                                    8409              NOTLVL   EQU   LEVEL1              UNARY NOT (~)
                                    8410              MULTLVL  EQU   LEVEL2              *
                                    8411              DIVLVL   EQU   LEVEL2              /
                                    8412              ADDLVL   EQU   LEVEL3              +
                                    8413              SUBTLVL  EQU   LEVEL3              -
                                    8414              CATLVL   EQU   LEVEL4              ||
                                    8415              EQLVL    EQU   LEVEL5              EQ
                                    8416              NELVL    EQU   LEVEL5              NE
                                    8417              LTLVL    EQU   LEVEL5              LT
                                    8418              LELVL    EQU   LEVEL5              LE
                                    8419              GTLVL    EQU   LEVEL5              GT
                                    8420              GELVL    EQU   LEVEL5              GE
                                    8421              ANDLVL   EQU   LEVEL6              AND
                                    8422              ORLVL    EQU   LEVEL6              OR
                                    8423              ENDLVL   EQU   LEVEL8              END OF STATMENT, PROCESS ALL
1EVAL     (EVAL9204) (12:43) (15MAR04) EVALUATE EXPRESSION                                                                  Page   20
0Current Usings:  (XSENTRY,R6) (CP,R11) (CV,R12)
0Loc    Object Code    Addr1 Addr2  Stmt Lv Lineno    Source Statement           (Hibal 5, Asmedit 3.3)  HLASM R4.0  2004/03/15 12.43
+___    ______ ____    _____ _____  ____ __ ______    ______ _________
0                                   8425              ¿þþþþþþþþþþþþþþþþþþþþþþþþþþþþþþþþþþþþþþþþþþþþþþþþþþþþþþþþþþþþþþþþþþþþþÜ
                                    8426              Ÿ                                                                     Ÿ
                                    8427              Ÿ                                                                     Ÿ
                                    8428              Ÿ  EVLSTACK - EVALUATE EXPRESSION STACK                               Ÿ
                                    8429              Ÿ                                                                     Ÿ
                                    8430              Ÿ  THIS ROUTINE SHOULD BE CALLED EACH TIME AN OPERATOR IS PLACED      Ÿ
                                    8431              Ÿ  ON THE EXPRESSION STACK.  RETURNED VALUE OF R1 MUST BE USED TO     Ÿ
                                    8432              Ÿ  UPDATE STACK.                                                      Ÿ
                                    8433              Ÿ                                                                     Ÿ
                                    8434              Ÿ  ON ENTRY:                                                          Ÿ
                                    8435              Ÿ       R0 - OPERATOR PRIORITY                                        Ÿ
                                    8436              Ÿ       R1 - NOT USED                                                 Ÿ
                                    8437              Ÿ       R6 - OPERATOR STACK, POINTS TO OPERATOR JUST SCANNED          Ÿ
                                    8438              Ÿ                                                                     Ÿ
                                    8439              Ÿ  ON EXIT:                                                           Ÿ
                                    8440              Ÿ       R0 - OPERATOR LEVEL (UNCHANGED)                               Ÿ
                                    8441              Ÿ       R1 - END OF STACK (UPDATED)                                   Ÿ
                                    8442              Ÿ      R15 - CC=ZERO, ALL OK                                          Ÿ
                                    8443              Ÿ          - CC=NZ, IF ERROR... ERROR MSG TSEG'D                      Ÿ
                                    8444              Ÿ                                                                     Ÿ
                                    8445              Ÿ  REGISTER USAGE:                                                    Ÿ
                                    8446              Ÿ       R2 - LAST ITEM IN STACK       EG. VALUE                       Ÿ
                                    8447              Ÿ       R3 - LAST-1 ITEM IN STACK     EG. OPERATOR                    Ÿ
                                    8448              Ÿ       R4 - LAST-2 ITEM IN STACK     EG. VALUE                       Ÿ
                                    8449              Ÿ                                                                     Ÿ
                                    8450              Ÿ                                                                     Ÿ
                                                      ¾þþþþþþþþþþþþþþþþþþþþþþþþþþþþþþþþþþþþþþþþþþþþþþþþþþþþþþþþþþþþþþþþþþþþþ»
0000398 50E0 D000/9008_      00000  8451              EVLSTACK PROC  ,
 USING  *,R7
                                    8490                       USING XSENTRY,R6
                                    8492                       COMMENT                   R0 - OPERATOR PRIORITY
 0003B2 1816                        8493                       LR    R1,R6               R1 - CURRENT STACK LEVEL
 0003B4 1BFF                        8494                       CLEAR R15                 R15 - ASSUME CC=ZERO
                                    8498                       COMMENT
 0003B6 5B60 7156            00508  8499                       XSPOP ,,                  POP STACK
 0003BA 1826                        8501                       LR    R2,R6
 0003BC 9501 6000/4770_00000        8502                       IF    XSSTART,BEGIN       IF STACK: START.
 0003C4 47F0 70F6            004A8  8517  1                      B     EVLSDONE                NOOP
 0003C8                             8518                       END
 0003C8 9503 6000/4770_00000        8522                       IF    XSOPER,BEGIN        IF STACK: OPERATOR, ...
 0003D0 47F0 70F6            004A8  8537  1                      B     EVLSDONE                NOOP
 0003D4                             8538                       END
 0003D4 9502 6000/4770_00000        8542                       IF    XSVAL,BEGIN         IF STACK: VALUE, ...
                                    8557  1                      COMMENT
 0003DC 5B60 7156            00508  8558  1                      XSPOP ,,
 0003E0 1836                        8560  1                      LR    R3,R6
 0003E2 9501 6000/4770_00000        8561  1                      IF    XSSTART,BEGIN       IF STACK: VALUE, START.
 0003EA 47F0 70F6            004A8  8576  2                        B     EVLSDONE                NOOP
 0003EE                             8577  1                      END
 0003EE 9502 6000/4770_00000        8581  1                      IF    XSVAL,BEGIN         IF STACK: VALUE, VALUE
                                    8596  2                        COMMENT                       ERR, 2 VALUES IN A ROW
 0003F6 4110 710E/4100_      004C0  8597  2                        TSEG  'Missing operator in expression. '
 000408 41F0 0004            00004  8615  2                        LA    R15,4
1EVAL     (EVAL9204) (12:43) (15MAR04) EVALUATE EXPRESSION                                                                  Page   21
0Current Usings:  (XSENTRY,R6) (*,R7) (CP,R11) (CV,R12)
0Loc    Object Code    Addr1 Addr2  Stmt Lv Lineno    Source Statement           (Hibal 5, Asmedit 3.3)  HLASM R4.0  2004/03/15 12.43
+___    ______ ____    _____ _____  ____ __ ______    ______ _________
000040C 47F0 70F6            004A8  8616  2                        B     EVLSDONE
 000410                             8617  1                      END
 000410 9503 6000/4770_00000        8621  1                      IF    XSOPER,BEGIN        IF STACK: VALUE, OPERATOR, ...
 000418 5B60 7156            00508  8636  2                        XSPOP ,,
 00041C 1846                        8638  2                        LR    R4,R6
 00041E 9501 6000/4770_00000        8639  2                        IF    XSSTART,BEGIN       IF STACK: VALUE, OPER, START.
 000426 1863                        8654  3                          LR    R6,R3
 000428 BD01 6001/4750_      00001  8655  3                          IF    (XSUOPLVL,LE,R0),BEGIN
 000430 1812                        8672  4                            LR    R1,R2
 000432 41E0 6004            00004  8673  4                            LA    R14,XSUOPRTN           "ACALL" UNARY OPERATOR ROUTINE
 000436 58E0 E000/0DEE       00000  8674  4                            CALLRTNP @R14
 00043C 4770 7096            00448  8678  4                            IF    Z,BEGIN
 000440 1861                        8689  5                              LR    R6,R1
 000442 58E0 7166/0DEE       00518  8690  5                              ACALL EVLSTACK               EVALUATE STACK RECURSIVELY
 000448                             8694  4                            END
 000448                             8698  3                          END
 000448 47F0 70F6            004A8  8702  3                          B     EVLSDONE
 00044C                             8703  2                        END
 00044C 9503 6000/4770_00000        8707  2                        IF    XSOPER,BEGIN        IF STACK: VALUE, OPER, OPER ...
 000454 1863                        8722  3                          LR    R6,R3
 000456 BD01 6001/4750_      00001  8723  3                          IF    (XSUOPLVL,LE,R0),BEGIN
 00045E 1812                        8740  4                            LR    R1,R2
 000460 41E0 6004            00004  8741  4                            LA    R14,XSUOPRTN           "ACALL" UNARY OPERATOR ROUTINE
 000464 58E0 E000/0DEE       00000  8742  4                            CALLRTNP @R14
 00046A 4770 70C4            00476  8746  4                            IF    Z,BEGIN
 00046E 1861                        8757  5                              LR    R6,R1
 000470 58E0 7166/0DEE       00518  8758  5                              ACALL EVLSTACK               EVALUATE STACK RECURSIVELY
 000476                             8762  4                            END
 000476                             8766  3                          END
 000476 47F0 70F6            004A8  8770  3                          B     EVLSDONE
 00047A                             8771  2                        END
 00047A 9502 6000/4770_00000        8775  2                        IF    XSVAL,BEGIN         IF STACK: VALUE, OPER, VALUE, ...
 000482 1863                        8790  3                          LR    R6,R3
 000484 BD01 6002/4750_      00002  8791  3                          IF    (XSBOPLVL,LE,R0),BEGIN
 00048C 1813                        8808  4                            LR    R1,R3
 00048E 41E0 6008            00008  8809  4                            LA    R14,XSBOPRTN
 000492 58E0 E000/0DEE       00000  8810  4                            CALLRTNP @R14                "ACALL" BINARY OPERATOR ROUTINE
 000498 4770 70F2            004A4  8814  4                            IF    Z,BEGIN
 00049C 1861                        8825  5                              LR    R6,R1
 00049E 58E0 7166/0DEE       00518  8826  5                              ACALL EVLSTACK               EVALUATE STACK RECURSIVELY
 0004A4                             8830  4                            END
 0004A4                             8834  3                          END
 0004A4 47F0 70F6            004A8  8838  3                          B     EVLSDONE
 0004A8                             8839  2                        END
 0004A8                             8843  1                      END
 0004A8                             8847                       END
                                    8851
 0004A8                             8852              EVLSDONE LABEL ,                   RETURN
 0004A8 9001 8004            00004  8854                       PRETURN (R0,R1)
 0004AC 18D8/9808 D004_             8856                       PEND  ,
 DROP   *,R7
 DROP   XSENTRY,R6                  8876                       DROP  R6
1EVAL     (EVAL9204) (12:43) (15MAR04) EVALUATE EXPRESSION                                                                  Page   22
0Current Usings:  (CP,R11) (CV,R12)
0Loc    Object Code    Addr1 Addr2  Stmt Lv Lineno    Source Statement           (Hibal 5, Asmedit 3.3)  HLASM R4.0  2004/03/15 12.43
+___    ______ ____    _____ _____  ____ __ ______    ______ _________
0                                   8884                       QLTORG
1EVAL     (EVAL9204) (12:43) (15MAR04) EVALUATE EXPRESSION                                                                  Page   23
0Current Usings:  (CP,R11) (CV,R12)
0Loc    Object Code    Addr1 Addr2  Stmt Lv Lineno    Source Statement           (Hibal 5, Asmedit 3.3)  HLASM R4.0  2004/03/15 12.43
+___    ______ ____    _____ _____  ____ __ ______    ______ _________
0                                   8915              ¿þþþþþþþþþþþþþþþþþþþþþþþþþþþþþþþþþþþþþþþþþþþþþþþþþþþþþþþþþþþþþþþþþþþþþÜ
                                    8916              Ÿ                                                                     Ÿ
                                    8917              Ÿ                                                                     Ÿ
                                    8918              Ÿ  EVLPOS - EVALUATE UNARY PLUS,                                      Ÿ
                                    8919              Ÿ                                                                     Ÿ
                                    8920              Ÿ  ALMOST A NOOP !!  STRINGS MUST BE CHECKED AS VALID NUMBER          Ÿ
                                    8921              Ÿ  REDUCES STACK HEIGHT BY 1, (R6 NOT UPDATED).                       Ÿ
                                    8922              Ÿ                                                                     Ÿ
                                    8923              Ÿ                                                                     Ÿ
                                    8924              Ÿ  ON ENTRY:                                                          Ÿ
                                    8925              Ÿ       R0 - NOT USED                                                 Ÿ
                                    8926              Ÿ       R1 - NOT USED                                                 Ÿ
                                    8927              Ÿ       R2 - VALUE ON STACK                                           Ÿ
                                    8928              Ÿ       R3 - OPERATOR ON STACK                                        Ÿ
                                    8929              Ÿ                                                                     Ÿ
                                    8930              Ÿ  ON ENTRY:                                                          Ÿ
                                    8931              Ÿ       R0 - MUST BE SAME AS ABOVE                                    Ÿ
                                    8932              Ÿ       R1 - MUST BE SAME AS ABOVE                                    Ÿ
                                    8933              Ÿ       R3 - PLACE FOR RESULT                                         Ÿ
                                    8934              Ÿ      R15 - CC=ZERO, IF ALL OK                                       Ÿ
                                    8935              Ÿ            CC=NZ, IF ERROR... ERROR MSG TSEG'D                      Ÿ
                                    8936              Ÿ                                                                     Ÿ
                                    8937              Ÿ                                                                     Ÿ
                                    8938              Ÿ                                                                     Ÿ
                                                      ¾þþþþþþþþþþþþþþþþþþþþþþþþþþþþþþþþþþþþþþþþþþþþþþþþþþþþþþþþþþþþþþþþþþþþþ»
0000540 50E0 D000/9008_      00000  8939              EVLPOS   PROC  ,
 USING  *,R7
 USING  XSENTRY,R2                  8978                       USING XSENTRY,R2
 00055A 58E0 7D36/0DEE       01290  8987                       ACALL MAKENUMB
 000560 4770 7010            0056A  8991                       IF    Z,BEGIN             IF NUMBER, MOVE LOWER IN STACK
 000564 D24F 3000 2000 00000 00000  9002  1                      MVC   0(L'XSENTRY,R3),0(R2)
 00056A                             9003                       END
 00056A 18D8/9808 D004_             9007                       PEND  ,
 DROP   *,R7
 DROP   XSENTRY,R2                  9027                       DROP  R2
1EVAL     (EVAL9204) (12:43) (15MAR04) EVALUATE EXPRESSION                                                                  Page   24
0Current Usings:  (CP,R11) (CV,R12)
0Loc    Object Code    Addr1 Addr2  Stmt Lv Lineno    Source Statement           (Hibal 5, Asmedit 3.3)  HLASM R4.0  2004/03/15 12.43
+___    ______ ____    _____ _____  ____ __ ______    ______ _________
0                                   9035              ¿þþþþþþþþþþþþþþþþþþþþþþþþþþþþþþþþþþþþþþþþþþþþþþþþþþþþþþþþþþþþþþþþþþþþþÜ
                                    9036              Ÿ                                                                     Ÿ
                                    9037              Ÿ                                                                     Ÿ
                                    9038              Ÿ  EVLNEG - EVALUATE UNARY MINUS,                                     Ÿ
                                    9039              Ÿ                                                                     Ÿ
                                    9040              Ÿ  ALMOST A NOOP !!  STRINGS MUST BE CHECKED AS VALID NUMBER          Ÿ
                                    9041              Ÿ  REDUCES STACK HEIGHT BY 1, (R6 NOT UPDATED).                       Ÿ
                                    9042              Ÿ                                                                     Ÿ
                                    9043              Ÿ                                                                     Ÿ
                                    9044              Ÿ  ON ENTRY:                                                          Ÿ
                                    9045              Ÿ       R0 - NOT USED                                                 Ÿ
                                    9046              Ÿ       R1 - NOT USED                                                 Ÿ
                                    9047              Ÿ       R2 - VALUE ON STACK                                           Ÿ
                                    9048              Ÿ       R3 - OPERATOR ON STACK                                        Ÿ
                                    9049              Ÿ                                                                     Ÿ
                                    9050              Ÿ  ON ENTRY:                                                          Ÿ
                                    9051              Ÿ       R0 - MUST BE SAME AS ABOVE                                    Ÿ
                                    9052              Ÿ       R1 - MUST BE SAME AS ABOVE                                    Ÿ
                                    9053              Ÿ       R3 - PLACE FOR RETURNED VALUE                                 Ÿ
                                    9054              Ÿ      R15 - CC=ZERO, IF ALL OK                                       Ÿ
                                    9055              Ÿ            CC=NZ, IF ERROR... ERROR MSG TSEG'D                      Ÿ
                                    9056              Ÿ                                                                     Ÿ
                                    9057              Ÿ                                                                     Ÿ
                                    9058              Ÿ                                                                     Ÿ
                                                      ¾þþþþþþþþþþþþþþþþþþþþþþþþþþþþþþþþþþþþþþþþþþþþþþþþþþþþþþþþþþþþþþþþþþþþþ»
0000578 50E0 D000/9008_      00000  9059              EVLNEG   PROC  ,
 USING  *,R7
 USING  XSENTRY,R2                  9098                       USING XSENTRY,R2
 000592 58E0 7CFE/0DEE       01290  9107                       ACALL MAKENUMB
 000598 4770 7032            005C4  9111                       IF    Z,BEGIN             IF NUMBER, NEGATE IT
 00059C 4140 7C7A            0120C  9122  1                      LA    R4,PKZERO
 0005A0 F9BB 2024 4000 00024 00000  9123  1                      CP    XSVALUE(NL),0(NL,R4)   COMPARE TO ZERO
 0005A6 4730 7020            005B2  9124  1                      IF    LE,BEGIN               NEGATIVE IS POSITIVE
 0005AA 94F0 202F      0002F        9135  2                        NI    XSVALUE+NL-1,X'F0'
 0005AE 960C 202F      0002F        9136  2                        OI    XSVALUE+NL-1,X'0C'
 0005B2                             9137  1                      END
 0005B2 7024/47F0 702C 005B2 005A8  9141  1                      ELSE  BEGIN ,,               POSITIVE IS NEGATIVE
 0005B6 94F0 202F      0002F        9152  2                        NI    XSVALUE+NL-1,X'F0'
 0005BA 960D 202F      0002F        9153  2                        OI    XSVALUE+NL-1,X'0D'
 0005BE                             9154  1                      END
 0005BE D24F 3000 2000 00000 00000  9158  1                      MVC   0(L'XSENTRY,R3),0(R2)
 0005C4                             9159                       END
 0005C4 18D8/9808 D004_             9163                       PEND  ,
 DROP   *,R7
 DROP   XSENTRY,R2                  9183                       DROP  R2
1EVAL     (EVAL9204) (12:43) (15MAR04) EVALUATE EXPRESSION                                                                  Page   25
0Current Usings:  (CP,R11) (CV,R12)
0Loc    Object Code    Addr1 Addr2  Stmt Lv Lineno    Source Statement           (Hibal 5, Asmedit 3.3)  HLASM R4.0  2004/03/15 12.43
+___    ______ ____    _____ _____  ____ __ ______    ______ _________
0                                   9191              ¿þþþþþþþþþþþþþþþþþþþþþþþþþþþþþþþþþþþþþþþþþþþþþþþþþþþþþþþþþþþþþþþþþþþþþÜ
                                    9192              Ÿ                                                                     Ÿ
                                    9193              Ÿ                                                                     Ÿ
                                    9194              Ÿ  EVLNOT - EVALUATE UNARY NOT, (BOOLEAN)                             Ÿ
                                    9195              Ÿ                                                                     Ÿ
                                    9196              Ÿ  ALMOST A NOOP !!  STRINGS MUST BE CHECKED AS VALID NUMBER          Ÿ
                                    9197              Ÿ  REDUCES STACK HEIGHT BY 1, (R6 NOT UPDATED).                       Ÿ
                                    9198              Ÿ                                                                     Ÿ
                                    9199              Ÿ                                                                     Ÿ
                                    9200              Ÿ  ON ENTRY:                                                          Ÿ
                                    9201              Ÿ       R0 - NOT USED                                                 Ÿ
                                    9202              Ÿ       R1 - NOT USED                                                 Ÿ
                                    9203              Ÿ       R2 - VALUE ON STACK                                           Ÿ
                                    9204              Ÿ       R3 - OPERATOR ON STACK                                        Ÿ
                                    9205              Ÿ                                                                     Ÿ
                                    9206              Ÿ  ON ENTRY:                                                          Ÿ
                                    9207              Ÿ       R0 - MUST BE SAME AS ABOVE                                    Ÿ
                                    9208              Ÿ       R1 - MUST BE SAME AS ABOVE                                    Ÿ
                                    9209              Ÿ       R3 - PLACE FOR RETURNED VALUE                                 Ÿ
                                    9210              Ÿ      R15 - CC=ZERO, IF ALL OK                                       Ÿ
                                    9211              Ÿ            CC=NZ, IF ERROR... ERROR MSG TSEG'D                      Ÿ
                                    9212              Ÿ                                                                     Ÿ
                                    9213              Ÿ                                                                     Ÿ
                                    9214              Ÿ                                                                     Ÿ
                                                      ¾þþþþþþþþþþþþþþþþþþþþþþþþþþþþþþþþþþþþþþþþþþþþþþþþþþþþþþþþþþþþþþþþþþþþþ»
00005D2 50E0 D000/9008_      00000  9215              EVLNOT   PROC  ,
 USING  *,R7
 USING  XSENTRY,R2                  9254                       USING XSENTRY,R2
 0005EC 58E0 7CA8/0DEE       01294  9263                       ACALL MAKEBOOL
 0005F2 4770 7030            0061C  9267                       IF    Z,BEGIN             IF BOOLEAN,  NOT IT
 0005F6 1862                        9278  1                      LR    R6,R2
 0005F8 4140 7C20            0120C  9279  1                      LA    R4,PKZERO
 0005FC F9BB 2024 4000 00024 00000  9280  1                      CP    XSVALUE(NL),0(NL,R4)     COMPARE TO ZERO
 000602 4770 7020            0060C  9281  1                      IF    EQ,BEGIN               FALSE IS TRUE
 000606 D20B 2024 7C2C 00024 01218  9292  2                        MVC   XSVALUE(NL),PKONE
 00060C                             9293  1                      END
 00060C 7024/47F0 702A 0060C 00604  9297  1                      ELSE  BEGIN ,,               TRUE IS FALSE
 000610 D20B 2024 7C20 00024 0120C  9308  2                        MVC   XSVALUE(NL),PKZERO
 000616                             9309  1                      END
 000616 D24F 3000 2000 00000 00000  9313  1                      MVC   0(L'XSENTRY,R3),0(R2)
 00061C                             9314                       END
 00061C 18D8/9808 D004_             9318                       PEND  ,
 DROP   *,R7
 DROP   XSENTRY,R2                  9338                       DROP  R2
1EVAL     (EVAL9204) (12:43) (15MAR04) EVALUATE EXPRESSION                                                                  Page   26
0Current Usings:  (CP,R11) (CV,R12)
0Loc    Object Code    Addr1 Addr2  Stmt Lv Lineno    Source Statement           (Hibal 5, Asmedit 3.3)  HLASM R4.0  2004/03/15 12.43
+___    ______ ____    _____ _____  ____ __ ______    ______ _________
0                                   9346              ¿þþþþþþþþþþþþþþþþþþþþþþþþþþþþþþþþþþþþþþþþþþþþþþþþþþþþþþþþþþþþþþþþþþþþþÜ
                                    9347              Ÿ                                                                     Ÿ
                                    9348              Ÿ                                                                     Ÿ
                                    9349              Ÿ  EVLADD - ADD TWO NUMBERS                                           Ÿ
                                    9350              Ÿ                                                                     Ÿ
                                    9351              Ÿ  ADD TWO NUMBERS, STACK HEIGHT IS REDUCED BY 2.                     Ÿ
                                    9352              Ÿ  (R6 NOT UPDATED).                                                  Ÿ
                                    9353              Ÿ                                                                     Ÿ
                                    9354              Ÿ  ON ENTRY:                                                          Ÿ
                                    9355              Ÿ       R0 - NOT USED                                                 Ÿ
                                    9356              Ÿ       R1 - NOT USED                                                 Ÿ
                                    9357              Ÿ       R2 - 2ND VALUE                                                Ÿ
                                    9358              Ÿ       R3 - OPERATOR ON STACK                                        Ÿ
                                    9359              Ÿ       R4 - 1ST VALUE                                                Ÿ
                                    9360              Ÿ                                                                     Ÿ
                                    9361              Ÿ  ON EXIT:                                                           Ÿ
                                    9362              Ÿ       R0 - MUST BE SAME AS ABOVE                                    Ÿ
                                    9363              Ÿ       R1 - MUST BE SAME AS ABOVE                                    Ÿ
                                    9364              Ÿ       R4 - PLACE FOR RESULT                                         Ÿ
                                    9365              Ÿ      R15 - CC=ZERO, IF ALL OK                                       Ÿ
                                    9366              Ÿ            CC=NZ, IF ERROR... ERROR MSG TSEG'D                      Ÿ
                                    9367              Ÿ                                                                     Ÿ
                                    9368              Ÿ                                                                     Ÿ
                                    9369              Ÿ                                                                     Ÿ
                                                      ¾þþþþþþþþþþþþþþþþþþþþþþþþþþþþþþþþþþþþþþþþþþþþþþþþþþþþþþþþþþþþþþþþþþþþþ»
0000000                00000 00020  9370              EVLWA    RECORD BEGIN ,,
 000000                             9378  1           EVNUMB1    DS    16X                 WORK AREAS
 000010                             9379  1           EVNUMB2    DS    16X
 000020                00020 00020  9380                       END
                                    9389              *
                                    9390              *
 00062A 50E0 D000/9008_      00000  9391              EVLADD   PROC  EVLWA
 USING  *,R7
 USING  EVLWA-(4+36),R8
 USING  XSENTRY,R2                  9441                       USING XSENTRY,R2
                                    9450                       COMMENT                   **** DO NOT DESTROY R0,R1 ***
                                    9451                       COMMENT                   R4 - 1ST NUMBER
 000644 1852                        9452                       LR    R5,R2               R5 - 2ND NUMBER
                                    9453                       COMMENT
 000646 1824                        9454                       LR    R2,R4
 000648 58E0 7C4C/0DEE       01290  9455                       ACALL MAKENUMB                          GET 1ST NUMBER
 00064E 4770 7050            00694  9459                       IF    Z,BEGIN
 000652 F8FB 8028 2024 00000 00024  9470  1                      ZAP   EVNUMB1(16),XSVALUE(NL)
 000658 1825                        9471  1                      LR    R2,R5
 00065A 58E0 7C4C/0DEE       01290  9472  1                      ACALL MAKENUMB                          GET 2ND NUMBER
 000660 4770 7050            00694  9476  1                      IF    Z,BEGIN
 000664 58E0 7C54/0DEE       01298  9487  2                        ACALL ZAPINT              *** ZAP INTEGER (** OLD N0-N9)
 00066A F8FB 8038 2024 00010 00024  9491  2                        ZAP   EVNUMB2(16),XSVALUE(NL)
 000670 FAFF 8028 8038 00000 00010  9492  2                        AP    EVNUMB1(16),EVNUMB2(16)           ADD
 000676 D504 8028 7D18_00000 0135C  9493  2                        IF    (' OFLOW EVNUMB1',Z),BEGIN        IF ALL OK
 000680 1824                        9507  3                          LR    R2,R4
 000682 F8BF 2024 8028 00024 00000  9508  3                          ZAP   XSVALUE(NL),EVNUMB1(16)              SAVE RESULT
 000688 1BFF                        9509  3                          CLEAR R15
1EVAL     (EVAL9204) (12:43) (15MAR04) EVALUATE EXPRESSION                                                                  Page   27
0Current Usings:  (XSENTRY,R2) (*,R7) (EVLWA-(4+36),R8) (CP,R11) (CV,R12)
0Loc    Object Code    Addr1 Addr2  Stmt Lv Lineno    Source Statement           (Hibal 5, Asmedit 3.3)  HLASM R4.0  2004/03/15 12.43
+___    ______ ____    _____ _____  ____ __ ______    ______ _________
000068A                             9513  2                        END
 00068A 704A/47F0 7050 0068A 0067E  9517  2                        ELSE  BEGIN ,,,                         IF OVERFLOW
 00068E 58E0 7C58/0DEE       0129C  9528  3                          ACALL OVERFLOW
 000694                             9532  2                        END
 000694                             9536  1                      END
 000694                             9540                       END
 000694 18D8/9808 D004_             9544                       PEND  ,
 DROP   EVLWA-(4+36),R8
 DROP   *,R7
 DROP   XSENTRY,R2                  9569                       DROP  R2
1EVAL     (EVAL9204) (12:43) (15MAR04) EVALUATE EXPRESSION                                                                  Page   28
0Current Usings:  (CP,R11) (CV,R12)
0Loc    Object Code    Addr1 Addr2  Stmt Lv Lineno    Source Statement           (Hibal 5, Asmedit 3.3)  HLASM R4.0  2004/03/15 12.43
+___    ______ ____    _____ _____  ____ __ ______    ______ _________
0                                   9577              ¿þþþþþþþþþþþþþþþþþþþþþþþþþþþþþþþþþþþþþþþþþþþþþþþþþþþþþþþþþþþþþþþþþþþþþÜ
                                    9578              Ÿ                                                                     Ÿ
                                    9579              Ÿ                                                                     Ÿ
                                    9580              Ÿ  EVLSUBT - SUBTRACT TWO NUMBERS                                     Ÿ
                                    9581              Ÿ                                                                     Ÿ
                                    9582              Ÿ  SUBTRACT TWO NUMBERS, STACK HEIGHT IS REDUCED BY 2.                Ÿ
                                    9583              Ÿ  (R6 NOT UPDATED).                                                  Ÿ
                                    9584              Ÿ                                                                     Ÿ
                                    9585              Ÿ  ON ENTRY:                                                          Ÿ
                                    9586              Ÿ       R0 - NOT USED                                                 Ÿ
                                    9587              Ÿ       R1 - NOT USED                                                 Ÿ
                                    9588              Ÿ       R2 - 2ND VALUE                                                Ÿ
                                    9589              Ÿ       R3 - OPERATOR ON STACK                                        Ÿ
                                    9590              Ÿ       R4 - 1ST VALUE                                                Ÿ
                                    9591              Ÿ                                                                     Ÿ
                                    9592              Ÿ  ON EXIT:                                                           Ÿ
                                    9593              Ÿ       R0 - MUST BE SAME AS ABOVE                                    Ÿ
                                    9594              Ÿ       R1 - MUST BE SAME AS ABOVE                                    Ÿ
                                    9595              Ÿ       R4 - PLACE FOR RESULT                                         Ÿ
                                    9596              Ÿ      R15 - CC=ZERO, IF ALL OK                                       Ÿ
                                    9597              Ÿ            CC=NZ, IF ERROR... ERROR MSG TSEG'D                      Ÿ
                                    9598              Ÿ                                                                     Ÿ
                                    9599              Ÿ                                                                     Ÿ
                                    9600              Ÿ                                                                     Ÿ
                                                      ¾þþþþþþþþþþþþþþþþþþþþþþþþþþþþþþþþþþþþþþþþþþþþþþþþþþþþþþþþþþþþþþþþþþþþþ»
00006A2 50E0 D000/9008_      00000  9601              EVLSUBT  PROC  EVLWA
 USING  *,R7
 USING  EVLWA-(4+36),R8
 USING  XSENTRY,R2                  9651                       USING XSENTRY,R2
                                    9660                       COMMENT                   **** DO NOT DESTROY R0,R1 ***
                                    9661                       COMMENT                   R4 - 1ST NUMBER
 0006BC 1852                        9662                       LR    R5,R2               R5 - 2ND NUMBER
                                    9663                       COMMENT
 0006BE 1824                        9664                       LR    R2,R4
 0006C0 58E0 7BD4/0DEE       01290  9665                       ACALL MAKENUMB                          GET 1ST NUMBER
 0006C6 4770 7050            0070C  9669                       IF    Z,BEGIN
 0006CA F8FB 8028 2024 00000 00024  9680  1                      ZAP   EVNUMB1(16),XSVALUE(NL)
 0006D0 1825                        9681  1                      LR    R2,R5
 0006D2 58E0 7BD4/0DEE       01290  9682  1                      ACALL MAKENUMB                          GET 2ND NUMBER
 0006D8 4770 7050            0070C  9686  1                      IF    Z,BEGIN
 0006DC 58E0 7BDC/0DEE       01298  9697  2                        ACALL ZAPINT              *** ZAP INTEGER (** OLD N0-N9)
 0006E2 F8FB 8038 2024 00010 00024  9701  2                        ZAP   EVNUMB2(16),XSVALUE(NL)
 0006E8 FBFF 8028 8038 00000 00010  9702  2                        SP    EVNUMB1(16),EVNUMB2(16)           SUBTRACT
 0006EE D504 8028 7CA0_00000 0135C  9703  2                        IF    (' OFLOW EVNUMB1',Z),BEGIN        IF ALL OK
 0006F8 1824                        9717  3                          LR    R2,R4
 0006FA F8BF 2024 8028 00024 00000  9718  3                          ZAP   XSVALUE(NL),EVNUMB1(16)              SAVE RESULT
 000700 1BFF                        9719  3                          CLEAR R15
 000702                             9723  2                        END
 000702 704A/47F0 7050 00702 006F6  9727  2                        ELSE  BEGIN ,,,                         IF OVERFLOW
 000706 58E0 7BE0/0DEE       0129C  9738  3                          ACALL OVERFLOW
 00070C                             9742  2                        END
 00070C                             9746  1                      END
 00070C                             9750                       END
1EVAL     (EVAL9204) (12:43) (15MAR04) EVALUATE EXPRESSION                                                                  Page   29
0Current Usings:  (XSENTRY,R2) (CP,R11) (CV,R12)
0Loc    Object Code    Addr1 Addr2  Stmt Lv Lineno    Source Statement           (Hibal 5, Asmedit 3.3)  HLASM R4.0  2004/03/15 12.43
+___    ______ ____    _____ _____  ____ __ ______    ______ _________
000070C 18D8/9808 D004_             9754                       PEND  ,
 DROP   EVLWA-(4+36),R8
 DROP   *,R7
 DROP   XSENTRY,R2                  9779                       DROP  R2
1EVAL     (EVAL9204) (12:43) (15MAR04) EVALUATE EXPRESSION                                                                  Page   30
0Current Usings:  (CP,R11) (CV,R12)
0Loc    Object Code    Addr1 Addr2  Stmt Lv Lineno    Source Statement           (Hibal 5, Asmedit 3.3)  HLASM R4.0  2004/03/15 12.43
+___    ______ ____    _____ _____  ____ __ ______    ______ _________
0                                   9787              ¿þþþþþþþþþþþþþþþþþþþþþþþþþþþþþþþþþþþþþþþþþþþþþþþþþþþþþþþþþþþþþþþþþþþþþÜ
                                    9788              Ÿ                                                                     Ÿ
                                    9789              Ÿ                                                                     Ÿ
                                    9790              Ÿ  EVLMULT - MULTIPLY TWO NUMBERS                                     Ÿ
                                    9791              Ÿ                                                                     Ÿ
                                    9792              Ÿ  MULTIPLY TWO NUMBERS, STACK HEIGHT IS REDUCED BY 2.                Ÿ
                                    9793              Ÿ  (R6 NOT UPDATED).                                                  Ÿ
                                    9794              Ÿ                                                                     Ÿ
                                    9795              Ÿ  ON ENTRY:                                                          Ÿ
                                    9796              Ÿ       R0 - NOT USED                                                 Ÿ
                                    9797              Ÿ       R1 - NOT USED                                                 Ÿ
                                    9798              Ÿ       R2 - 2ND VALUE                                                Ÿ
                                    9799              Ÿ       R3 - OPERATOR ON STACK                                        Ÿ
                                    9800              Ÿ       R4 - 1ST VALUE                                                Ÿ
                                    9801              Ÿ                                                                     Ÿ
                                    9802              Ÿ  ON EXIT:                                                           Ÿ
                                    9803              Ÿ       R0 - MUST BE SAME AS ABOVE                                    Ÿ
                                    9804              Ÿ       R1 - MUST BE SAME AS ABOVE                                    Ÿ
                                    9805              Ÿ       R4 - PLACE FOR RESULT                                         Ÿ
                                    9806              Ÿ      R15 - CC=ZERO, IF ALL OK                                       Ÿ
                                    9807              Ÿ            CC=NZ, IF ERROR... ERROR MSG TSEG'D                      Ÿ
                                    9808              Ÿ                                                                     Ÿ
                                    9809              Ÿ                                                                     Ÿ
                                    9810              Ÿ                                                                     Ÿ
                                                      ¾þþþþþþþþþþþþþþþþþþþþþþþþþþþþþþþþþþþþþþþþþþþþþþþþþþþþþþþþþþþþþþþþþþþþþ»
000071A 50E0 D000/9008_      00000  9811              EVLMULT  PROC  EVLWA
 USING  *,R7
 USING  EVLWA-(4+36),R8
 USING  XSENTRY,R2                  9861                       USING XSENTRY,R2
                                    9870                       COMMENT                   **** DO NOT DESTROY R0,R1 ***
                                    9871                       COMMENT                   R4 - 1ST NUMBER
 000734 1852                        9872                       LR    R5,R2               R5 - 2ND NUMBER
                                    9873                       COMMENT
 000736 1824                        9874                       LR    R2,R4
 000738 58E0 7B5C/0DEE       01290  9875                       ACALL MAKENUMB                          GET 1ST NUMBER
 00073E 4770 707C            007B0  9879                       IF    Z,BEGIN
 000742 F8FB 8028 2024 00000 00024  9890  1                      ZAP   EVNUMB1(16),XSVALUE(NL)
 000748 1825                        9891  1                      LR    R2,R5
 00074A 58E0 7B5C/0DEE       01290  9892  1                      ACALL MAKENUMB                          GET 2ND NUMBER
 000750 4770 707C            007B0  9896  1                      IF    Z,BEGIN
 000754 58E0 7B64/0DEE       01298  9907  2                        ACALL ZAPINT              *** ZAP INTEGER (** OLD N0-N9)
 00075A F8FB 8038 2024 00010 00024  9911  2                        ZAP   EVNUMB2(16),XSVALUE(NL)
 000760 D507 8028 7C2D_00000 01361  9912  2                        IF    ((' LONG EVNUMB1',NZ),OR,(' LONG EVNUMB2',NZ)),BEGIN
 000774 4100 8028            00000  9939  3                          LA    R0,EVNUMB1                        LONG MULTIPLY
 000778 4110 8038            00010  9940  3                          LA    R1,EVNUMB2
 00077C 58E0 7B6C/0DEE       012A0  9941  3                          ACALL LONGMULT
 000782                             9945  2                        END
 000782 7052/47F0 705E 00782 00772  9949  2                        ELSE  BEGIN ,
 000786 FCF7 8028 8040 00000 00018  9960  3                          MP    EVNUMB1(16),EVNUMB2+8(8)          SHORT MULTIPLY
 00078C F0F0 8028 0037 00000 00037  9961  3                          SRP   EVNUMB1(16),64-9,0                RESET DECIMAL PT
 000792                             9962  2                        END
 000792 D504 8028 7C28_00000 0135C  9966  2                        IF    (' OFLOW EVNUMB1',Z),BEGIN        IF ALL OK
 00079C 1824                        9980  3                          LR    R2,R4
1EVAL     (EVAL9204) (12:43) (15MAR04) EVALUATE EXPRESSION                                                                  Page   31
0Current Usings:  (XSENTRY,R2) (*,R7) (EVLWA-(4+36),R8) (CP,R11) (CV,R12)
0Loc    Object Code    Addr1 Addr2  Stmt Lv Lineno    Source Statement           (Hibal 5, Asmedit 3.3)  HLASM R4.0  2004/03/15 12.43
+___    ______ ____    _____ _____  ____ __ ______    ______ _________
000079E F8BF 2024 8028 00024 00000  9981  3                          ZAP   XSVALUE(NL),EVNUMB1(16)              SAVE RESULT
 0007A4 1BFF                        9982  3                          CLEAR R15
 0007A6                             9986  2                        END
 0007A6 7076/47F0 707C 007A6 0079A  9990  2                        ELSE  BEGIN ,,,                         IF OVERFLOW
 0007AA 58E0 7B68/0DEE       0129C 10001  3                          ACALL OVERFLOW
 0007B0                            10005  2                        END
 0007B0                            10009  1                      END
 0007B0                            10013                       END
 0007B0 18D8/9808 D004_            10017                       PEND  ,
 DROP   EVLWA-(4+36),R8
 DROP   *,R7
 DROP   XSENTRY,R2                 10042                       DROP  R2
1EVAL     (EVAL9204) (12:43) (15MAR04) EVALUATE EXPRESSION                                                                  Page   32
0Current Usings:  (CP,R11) (CV,R12)
0Loc    Object Code    Addr1 Addr2  Stmt Lv Lineno    Source Statement           (Hibal 5, Asmedit 3.3)  HLASM R4.0  2004/03/15 12.43
+___    ______ ____    _____ _____  ____ __ ______    ______ _________
0                                  10050              ¿þþþþþþþþþþþþþþþþþþþþþþþþþþþþþþþþþþþþþþþþþþþþþþþþþþþþþþþþþþþþþþþþþþþþþÜ
                                   10051              Ÿ                                                                     Ÿ
                                   10052              Ÿ                                                                     Ÿ
                                   10053              Ÿ  LONGMULT - MULTIPLY TO LONG NUMBERS                                Ÿ
                                   10054              Ÿ                                                                     Ÿ
                                   10055              Ÿ  ON ENTRY:                                                          Ÿ
                                   10056              Ÿ      @R0 - 1ST NUMBER (16 BYTES PACKED)  F12.9                      Ÿ
                                   10057              Ÿ      @R1 - 2ND NUMBER (16 BYTES PACKED)  F12.9                      Ÿ
                                   10058              Ÿ                                                                     Ÿ
                                   10059              Ÿ  ON EXIT:                                                           Ÿ
                                   10060              Ÿ      @R0 - RESULT   (MAY CONTAIN OVERFLOW)                          Ÿ
                                   10061              Ÿ                                                                     Ÿ
                                   10062              Ÿ                                                                     Ÿ
                                   10063              Ÿ                                                                     Ÿ
                                                      ¾þþþþþþþþþþþþþþþþþþþþþþþþþþþþþþþþþþþþþþþþþþþþþþþþþþþþþþþþþþþþþþþþþþþþþ»
0000000                00000 00070 10064              LMWA     RECORD BEGIN              LONG MULTIPLY
 000000                            10072  1           LMN1       DS    XL16                1ST NUMBER
 000010                            10073  1           LMN2       DS    XL16                2ND NUMBER
 000020                            10074  1           LMD1       DS    XL16                PART 1, 2ND NUMBER
 000030                            10075  1           LMD2       DS    XL16                PART 2, 2ND NUMBER
 000040                            10076  1           LMD3       DS    XL16                PART 3, 2ND NUMBER
 000050                            10077  1           LMD4       DS    XL16                PART 4, 2ND NUMBER
 000060                            10078  1           LMTEMP     DS    XL16                WORK AREA FOR PARTIAL PRODUCTS
 000070                00070 00070 10079                       END
                                   10088              *
                                   10089              *
 0007BE 50E0 D000/9008_      00000 10090              LONGMULT PROC  LMWA
 USING  *,R7
 USING  LMWA-(4+36),R8
 0007D8 1820                       10140                       LR    R2,R0               @R2 - 1ST NUMBER
                                   10141                       COMMENT ,                 @R1 - 2ND NUMBER
 0007DA D20F 8028 2000 00000 00000 10142                       MVC   LMN1(16),0(R2)
 0007E0 D20F 8038 1000 00010 00000 10143                       MVC   LMN2(16),0(R1)
 0007E6 D20F 8048 8038 00020 00010 10144                       MVC   LMD1(16),LMN2       DIVIDE 2ND NUMBER INTO 4 PARTS
 0007EC D20F 8058 8038 00030 00010 10145                       MVC   LMD2(16),LMN2
 0007F2 D20F 8068 8038 00040 00010 10146                       MVC   LMD3(16),LMN2
 0007F8 D20F 8078 8038 00050 00010 10147                       MVC   LMD4(16),LMN2
 0007FE D40F 8048 7A70 00020 01248 10148                       NC    LMD1(16),=X'0000000000000000000000000000FFFF'
 000804 D40F 8058 7A80 00030 01258 10149                       NC    LMD2(16),=X'0000000000000000000000FFFFFF000F'
 00080A D40F 8068 7A90 00040 01268 10150                       NC    LMD3(16),=X'0000000000000000FFFFFF000000000F'
 000810 D40F 8078 7AA0 00050 01278 10151                       NC    LMD4(16),=X'0000000000FFFFFF000000000000000F'
                                   10152              *        SRP   LMD1(16),0,0
 000816 F0F0 8058 003D 00030 0003D 10153                       SRP   LMD2(16),64-3,0
 00081C F0F0 8068 0037 00040 00037 10154                       SRP   LMD3(16),64-9,0
 000822 F0F0 8078 0031 00050 00031 10155                       SRP   LMD4(16),64-15,0
 000828 D20F 8088 8028 00060 00000 10156                       MVC   LMTEMP(16),LMN1     MULTIPLY ALL 4 PARTS
 00082E FCF3 8088 8054 00060 0002C 10157                       MP    LMTEMP(16),LMD1+12(4)
 000834 D20F 8048 8088 00020 00060 10158                       MVC   LMD1(16),LMTEMP
 00083A D20F 8088 8028 00060 00000 10159                       MVC   LMTEMP(16),LMN1
 000840 FCF3 8088 8064 00060 0003C 10160                       MP    LMTEMP(16),LMD2+12(4)
 000846 D20F 8058 8088 00030 00060 10161                       MVC   LMD2(16),LMTEMP
 00084C D20F 8088 8028 00060 00000 10162                       MVC   LMTEMP(16),LMN1
 000852 FCF3 8088 8074 00060 0004C 10163                       MP    LMTEMP(16),LMD3+12(4)
1EVAL     (EVAL9204) (12:43) (15MAR04) EVALUATE EXPRESSION                                                                  Page   33
0Current Usings:  (*,R7) (LMWA-(4+36),R8) (CP,R11) (CV,R12)
0Loc    Object Code    Addr1 Addr2  Stmt Lv Lineno    Source Statement           (Hibal 5, Asmedit 3.3)  HLASM R4.0  2004/03/15 12.43
+___    ______ ____    _____ _____  ____ __ ______    ______ _________
0000858 D20F 8068 8088 00040 00060 10164                       MVC   LMD3(16),LMTEMP
 00085E D20F 8088 8028 00060 00000 10165                       MVC   LMTEMP(16),LMN1
 000864 FCF3 8088 8084 00060 0005C 10166                       MP    LMTEMP(16),LMD4+12(4)
 00086A D20F 8078 8088 00050 00060 10167                       MVC   LMD4(16),LMTEMP
 000870 F0F0 8048 0037 00020 00037 10168                       SRP   LMD1(16),64-9,0     SCALE PARTIAL PRODUCTS
 000876 F0F0 8058 003A 00030 0003A 10169                       SRP   LMD2(16),64-6,0
                                   10170              *        SRP   LMD3(16),0,0
 00087C D504 8078 7B84_00050 0135C 10171                       IF    (' OFLOW LMD4',Z),BEGIN
 000886 F0F0 8078 0006 00050 00006 10185  1                      SRP   LMD4(16),6,0
 00088C                            10186                       END
 00088C FAFF 8048 8058 00020 00030 10190                       AP    LMD1(16),LMD2(16)   ADD PARTIAL PRODUCTS
 000892 FAFF 8048 8068 00020 00040 10191                       AP    LMD1(16),LMD3(16)
 000898 FAFF 8048 8078 00020 00050 10192                       AP    LMD1(16),LMD4(16)
 00089E D20F 2000 8048 00000 00020 10193                       MVC   0(16,R2),LMD1       STORE RESULT
 0008A4 1BFF                       10194                       CLEAR R15
 0008A6 18D8/9808 D004_            10198                       PEND
 DROP   LMWA-(4+36),R8
 DROP   *,R7
1EVAL     (EVAL9204) (12:43) (15MAR04) EVALUATE EXPRESSION                                                                  Page   34
0Current Usings:  (CP,R11) (CV,R12)
0Loc    Object Code    Addr1 Addr2  Stmt Lv Lineno    Source Statement           (Hibal 5, Asmedit 3.3)  HLASM R4.0  2004/03/15 12.43
+___    ______ ____    _____ _____  ____ __ ______    ______ _________
0                                  10224              ¿þþþþþþþþþþþþþþþþþþþþþþþþþþþþþþþþþþþþþþþþþþþþþþþþþþþþþþþþþþþþþþþþþþþþþÜ
                                   10225              Ÿ                                                                     Ÿ
                                   10226              Ÿ                                                                     Ÿ
                                   10227              Ÿ  EVLDIV - DIVIDE TWO NUMBERS                                        Ÿ
                                   10228              Ÿ                                                                     Ÿ
                                   10229              Ÿ  SUBTRACT TWO NUMBERS, STACK HEIGHT IS REDUCED BY 2.                Ÿ
                                   10230              Ÿ  (R6 NOT UPDATED).                                                  Ÿ
                                   10231              Ÿ                                                                     Ÿ
                                   10232              Ÿ  ON ENTRY:                                                          Ÿ
                                   10233              Ÿ       R0 - NOT USED                                                 Ÿ
                                   10234              Ÿ       R1 - NOT USED                                                 Ÿ
                                   10235              Ÿ       R2 - 2ND VALUE                                                Ÿ
                                   10236              Ÿ       R3 - OPERATOR ON STACK                                        Ÿ
                                   10237              Ÿ       R4 - 1ST VALUE                                                Ÿ
                                   10238              Ÿ                                                                     Ÿ
                                   10239              Ÿ  ON EXIT:                                                           Ÿ
                                   10240              Ÿ       R0 - MUST BE SAME AS ABOVE                                    Ÿ
                                   10241              Ÿ       R1 - MUST BE SAME AS ABOVE                                    Ÿ
                                   10242              Ÿ       R4 - PLACE FOR RESULT                                         Ÿ
                                   10243              Ÿ      R15 - CC=ZERO, IF ALL OK                                       Ÿ
                                   10244              Ÿ            CC=NZ, IF ERROR... ERROR MSG TSEG'D                      Ÿ
                                   10245              Ÿ                                                                     Ÿ
                                   10246              Ÿ                                                                     Ÿ
                                   10247              Ÿ                                                                     Ÿ
                                                      ¾þþþþþþþþþþþþþþþþþþþþþþþþþþþþþþþþþþþþþþþþþþþþþþþþþþþþþþþþþþþþþþþþþþþþþ»
00008B4 50E0 D000/9008_      00000 10248              EVLDIV   PROC  EVLWA
 USING  *,R7
 USING  EVLWA-(4+36),R8
 USING  XSENTRY,R2                 10298                       USING XSENTRY,R2
                                   10307                       COMMENT                   **** DO NOT DESTROY R0,R1 ***
                                   10308                       COMMENT                   R4 - 1ST NUMBER
 0008CE 1852                       10309                       LR    R5,R2               R5 - 2ND NUMBER
                                   10310                       COMMENT
 0008D0 1824                       10311                       LR    R2,R4
 0008D2 58E0 79C2/0DEE       01290 10312                       ACALL MAKENUMB                          GET 1ST NUMBER
 0008D8 4770 70F6            009C4 10316                       BNZ   EVLDDONE
 0008DC F8FB 8028 2024 00000 00024 10317                       ZAP   EVNUMB1(16),XSVALUE(NL)
 0008E2 1825                       10318                       LR    R2,R5
 0008E4 58E0 79C2/0DEE       01290 10319                       ACALL MAKENUMB                          GET 2ND NUMBER
 0008EA 4770 70F6            009C4 10323                       BNZ   EVLDDONE
 0008EE 58E0 79CA/0DEE       01298 10324                       ACALL ZAPINT              *** ZAP INTEGER (** OLD N0-N9)
 0008F4 F8FB 8038 2024 00010 00024 10328                       ZAP   EVNUMB2(16),XSVALUE(NL)
 0008FA F9BB 2024 793E 00024 0120C 10329                       CP    XSVALUE(NL),PKZERO(NL)            CHECK ZERO DIVIDE
 000900 4770 7050            0091E 10330                       IF    E,BEGIN
 000904 4110 7A52/4100_      01320 10341  1                      TSEG  'Divide by zero is illegal.'
 000916 41F0 0004            00004 10359  1                      LA    R15,4
 00091A 47F0 70F6            009C4 10360  1                      B     EVLDDONE
 00091E                            10361                       END
 00091E D507 8028 7A93_00000 01361 10365                       IF    ((' LONG EVNUMB1',NZ),OR,(' LONG EVNUMB2',NZ)),BEGIN
 000932 4100 8028            00000 10392  1                      LA    R0,EVNUMB1                        LONG DIVISION
 000936 4110 8038            00010 10393  1                      LA    R1,EVNUMB2
 00093A 58E0 79DA/0DEE       012A8 10394  1                      ACALL LONGDIV
 000940                            10398                       END
1EVAL     (EVAL9204) (12:43) (15MAR04) EVALUATE EXPRESSION                                                                  Page   35
0Current Usings:  (XSENTRY,R2) (*,R7) (EVLWA-(4+36),R8) (CP,R11) (CV,R12)
0Loc    Object Code    Addr1 Addr2  Stmt Lv Lineno    Source Statement           (Hibal 5, Asmedit 3.3)  HLASM R4.0  2004/03/15 12.43
+___    ______ ____    _____ _____  ____ __ ______    ______ _________
0000940 7076/47F0 70D2 00940 00930 10402                       ELSE  BEGIN                             TRY PRELIMINARY
 000944 FDF7 8028 8040 00000 00018 10413  1                      DP    EVNUMB1(16),EVNUMB2+8(8)          SHORT DEVIDE
 00094A D207 8030 8028 00008 00000 10414  1                      MVC   EVNUMB1+8(8),EVNUMB1
 000950 D207 8028 79BA 00000 01288 10415  1                      MVC   EVNUMB1(8),=X'0000000000000000'
 000956 F0F0 8028 0009 00000 00009 10416  1                      SRP   EVNUMB1(16),9,0
 00095C D507 8028 79BA 00000 01288 10417  1                      CLC   EVNUMB1(8),=X'0000000000000000'
 000962 4780 70AE            0097C 10418  1                      IF    NE,BEGIN                          IF SHORT DIVIDE NO
 000966 1824                       10429  2                        LR    R2,R4                             GOOD, TRY LONG DIV
 000968 F8FB 8028 2024 00000 00024 10430  2                        ZAP   EVNUMB1(16),XSVALUE(NL)
 00096E 4100 8028            00000 10431  2                        LA    R0,EVNUMB1
 000972 4110 8038            00010 10432  2                        LA    R1,EVNUMB2
 000976 58E0 79DA/0DEE       012A8 10433  2                        ACALL LONGDIV
 00097C                            10437  1                      END
 00097C 70B2/47F0 70D2 0097C 00964 10441  1                      ELSE  BEGIN                             IF SHORT DIVIDE
 000980 1824                       10452  2                        LR    R2,R4                                GOOD, DO IT
 000982 F8FB 8028 2024 00000 00024 10453  2                        ZAP   EVNUMB1(16),XSVALUE(NL)
 000988 F0F0 8028 0009 00000 00009 10454  2                        SRP   EVNUMB1(16),9,0                      SCALE IT
 00098E FDF7 8028 8040 00000 00018 10455  2                        DP    EVNUMB1(16),EVNUMB2+8(8)             DIVIDE IT
 000994 D207 8030 8028 00008 00000 10456  2                        MVC   EVNUMB1+8(8),EVNUMB1
 00099A D207 8028 79BA 00000 01288 10457  2                        MVC   EVNUMB1(8),=X'0000000000000000'
 0009A0                            10458  1                      END
 0009A0                            10462                       END
 0009A0 D504 8028 7A8E_00000 0135C 10466                       IF    (' OFLOW EVNUMB1',Z),BEGIN        IF ALL OK,
 0009AA 1824                       10480  1                      LR    R2,R4                                SAVE RESULT
 0009AC F8BF 2024 8028 00024 00000 10481  1                      ZAP   XSVALUE(NL),EVNUMB1(16)
 0009B2 1BFF                       10482  1                      CLEAR R15
 0009B4                            10486                       END
 0009B4 70EA/47F0 70F0 009B4 009A8 10490                       ELSE  BEGIN ,,,                         IF OVERFLOW
 0009B8 58E0 79CE/0DEE       0129C 10501  1                      ACALL OVERFLOW
 0009BE                            10505                       END
 0009BE 58E0 79DE/0DEE       012AC 10509                       ACALL ZAPINT2             *** ZAP INTEGER (** OLD N0-N9)
                                   10513
 0009C4                            10514              EVLDDONE LABEL ,
 0009C4 18D8/9808 D004_            10516                       PEND  ,
 DROP   EVLWA-(4+36),R8
 DROP   *,R7
 DROP   XSENTRY,R2                 10541                       DROP  R2
1EVAL     (EVAL9204) (12:43) (15MAR04) EVALUATE EXPRESSION                                                                  Page   36
0Current Usings:  (CP,R11) (CV,R12)
0Loc    Object Code    Addr1 Addr2  Stmt Lv Lineno    Source Statement           (Hibal 5, Asmedit 3.3)  HLASM R4.0  2004/03/15 12.43
+___    ______ ____    _____ _____  ____ __ ______    ______ _________
0                                  10549              ¿þþþþþþþþþþþþþþþþþþþþþþþþþþþþþþþþþþþþþþþþþþþþþþþþþþþþþþþþþþþþþþþþþþþþþÜ
                                   10550              Ÿ                                                                     Ÿ
                                   10551              Ÿ                                                                     Ÿ
                                   10552              Ÿ  LONGDIV - DIVIDE TWO LONG NUMBERS                                  Ÿ
                                   10553              Ÿ                                                                     Ÿ
                                   10554              Ÿ  ON ENTRY:                                                          Ÿ
                                   10555              Ÿ      @R0 - 1ST NUMBER (16 BYTES PACKED)  F12.9                      Ÿ
                                   10556              Ÿ      @R1 - 2ND NUMBER (16 BYTES PACKED)  F12.9                      Ÿ
                                   10557              Ÿ                                                                     Ÿ
                                   10558              Ÿ  ON EXIT:                                                           Ÿ
                                   10559              Ÿ      @R0 - RESULT   (MAY CONTAIN OVERFLOW)                          Ÿ
                                   10560              Ÿ                                                                     Ÿ
                                   10561              Ÿ  ALGORITHM: WE SUBTRACT POWERS OF TEN OF THE DIVISOR,               Ÿ
                                   10562              Ÿ      THE NUMBER OF SUBTRACTIONS (PROPERLY SCALED) IS                Ÿ
                                   10563              Ÿ      THE QUOTIENT.  WHATEVER IS LEFT IS THE REMAINDER.              Ÿ
                                   10564              Ÿ                                                                     Ÿ
                                   10565              Ÿ                                                                     Ÿ
                                                      ¾þþþþþþþþþþþþþþþþþþþþþþþþþþþþþþþþþþþþþþþþþþþþþþþþþþþþþþþþþþþþþþþþþþþþþ»
0000000                00000 00060 10566              LDWA     RECORD BEGIN              LONG MULTIPLY
 000000                            10574  1           LDN1       DS    XL16                1ST NUMBER
 000010                            10575  1           LDN2       DS    XL16                2ND NUMBER
 000020                            10576  1           LDREM      DS    XL16                WORK REMAINDER
 000030                            10577  1           LDDVSR     DS    XL16                WORK DIVISOR
 000040                            10578  1           LDCNT      DS    XL16                WORK SHIFT COUNT
 000050                            10579  1           LDACCM     DS    XL16                WORK ACCUMULATOR
 000060                00060 00060 10580                       END
                                   10589              *
                                   10590              *
 0009D2 50E0 D000/9008_      00000 10591              LONGDIV  PROC  LDWA
 USING  *,R7
 USING  LDWA-(4+36),R8
 0009EC 1820                       10641                       LR    R2,R0               @R2 - 1ST NUMBER
                                   10642                       COMMENT ,                 @R1 - 2ND NUMBER
                                   10643              *        MVC   LMN1(16),0(R2)
                                   10644              *        MVC   LMN2(16),0(R1)
 0009EE D20F 8048 2000 00020 00000 10645                       MVC   LDREM(16),0(R2)     INITIALIZE WORK AREAS
 0009F4 F0F0 8048 0009 00020 00009 10646                       SRP   LDREM(16),9,0
 0009FA D20F 8058 1000 00030 00000 10647                       MVC   LDDVSR(16),0(R1)
 000A00 D20F 8068 7838 00040 01224 10648                       MVC   LDCNT(16),PK16ZERO
 000A06 921C 8077      0004F       10649                       MVI   LDCNT+15,X'1C'
 000A0A D20F 8078 7838 00050 01224 10650                       MVC   LDACCM(16),PK16ZERO
 000A10 94F0 8057      0002F       10651                       NI    LDREM+15,X'F0'      UNSIGNED LONG DIVIDED
 000A14 960C 8057      0002F       10652                       OI    LDREM+15,X'0C'
 000A18 94F0 8067      0003F       10653                       NI    LDDVSR+15,X'F0'
 000A1C 960C 8067      0003F       10654                       OI    LDDVSR+15,X'0C'
 000A20 1B33                       10655                       CLEAR R3                  R3 - ITERATION COUNT
 000A22 F9FF 8058 8048_00030 00020 10659                       WHILE (' CP LDDVSR(16),LDREM(16)',LT),BEGIN
 000A2C F0F0 8058 0001 00030 00001 10674  1                      SRP   LDDVSR(16),1,0
 000A32 F0F0 8068 0001 00040 00001 10675  1                      SRP   LDCNT(16),1,0
 000A38 4133 0001            00001 10676  1                      LA    R3,1(R3)
 000A3C 47F0 7036            00A22 10677                       END
 000A40 1233/4740 708C             10682                       WHILE (R3,NL),BEGIN       LOOP SUBTRACTING FROM REMAINDER
 000A46 F9FF 8048 8058_00020 00030 10698  1                      WHILE (' CP LDREM(16),LDDVSR(16)',GE),BEGIN
1EVAL     (EVAL9204) (12:43) (15MAR04) EVALUATE EXPRESSION                                                                  Page   37
0Current Usings:  (*,R7) (LDWA-(4+36),R8) (CP,R11) (CV,R12)
0Loc    Object Code    Addr1 Addr2  Stmt Lv Lineno    Source Statement           (Hibal 5, Asmedit 3.3)  HLASM R4.0  2004/03/15 12.43
+___    ______ ____    _____ _____  ____ __ ______    ______ _________
0000A50 FBFF 8048 8058 00020 00030 10713  2                        SP    LDREM(16),LDDVSR(16)
 000A56 FAFF 8078 8068 00050 00040 10714  2                        AP    LDACCM(16),LDCNT(16)     KEEP COUNT OF SUBTRACTIONS
 000A5C 47F0 705A            00A46 10715  1                      END
 000A60 1233/47D0 7086             10720  1                      IF    (R3,POS),BEGIN
 000A66 F0F0 8058 003F 00030 0003F 10734  2                        SRP   LDDVSR(16),64-1,0        RESET POWER OF TEN
 000A6C F0F0 8068 003F 00040 0003F 10735  2                        SRP   LDCNT(16),64-1,0
 000A72                            10736  1                      END
 000A72 0630                       10740  1                      DECR  R3
 000A74 47F0 7054            00A40 10742                       END
 000A78 4332 000F            0000F 10747                       IC    R3,15(R2)           DO SIGN CALCULATION
 000A7C 4341 000F            0000F 10748                       IC    R4,15(R1)
 000A80 5430 78C4            012B0 10749                       N     R3,=X'00000001'
 000A84 5440 78C4            012B0 10750                       N     R4,=X'00000001'
 000A88 1943/4780 70AA             10751                       IF    (R4,NE,R3),BEGIN    IF UNEQUAL SIGNS, RESULT IS NEG
 000A8E 94F0 8087      0005F       10766  1                      NI    LDACCM+15,X'F0'
 000A92 960D 8087      0005F       10767  1                      OI    LDACCM+15,X'0D'
 000A96                            10768                       END
 000A96 D20F 2000 8078 00000 00050 10772                       MVC   0(16,R2),LDACCM
 000A9C 1BFF                       10773                       CLEAR R15
 000A9E 18D8/9808 D004_            10777                       PEND  ,
 DROP   LDWA-(4+36),R8
 DROP   *,R7
1EVAL     (EVAL9204) (12:43) (15MAR04) EVALUATE EXPRESSION                                                                  Page   38
0Current Usings:  (CP,R11) (CV,R12)
0Loc    Object Code    Addr1 Addr2  Stmt Lv Lineno    Source Statement           (Hibal 5, Asmedit 3.3)  HLASM R4.0  2004/03/15 12.43
+___    ______ ____    _____ _____  ____ __ ______    ______ _________
0                                  10803              ¿þþþþþþþþþþþþþþþþþþþþþþþþþþþþþþþþþþþþþþþþþþþþþþþþþþþþþþþþþþþþþþþþþþþþþÜ
                                   10804              Ÿ                                                                     Ÿ
                                   10805              Ÿ                                                                     Ÿ
                                   10806              Ÿ  EVLCAT - CONCATENATE TWO STRINGS                                   Ÿ
                                   10807              Ÿ                                                                     Ÿ
                                   10808              Ÿ  CONCATENATE TWO STRINGS, STACK HEIGHT IS REDUCED BY 2.             Ÿ
                                   10809              Ÿ  (R6 NOT UPDATED).                                                  Ÿ
                                   10810              Ÿ                                                                     Ÿ
                                   10811              Ÿ  ON ENTRY:                                                          Ÿ
                                   10812              Ÿ       R0 - NOT USED                                                 Ÿ
                                   10813              Ÿ       R1 - NOT USED                                                 Ÿ
                                   10814              Ÿ       R2 - 2ND VALUE                                                Ÿ
                                   10815              Ÿ       R3 - OPERATOR ON STACK                                        Ÿ
                                   10816              Ÿ       R4 - 1ST VALUE                                                Ÿ
                                   10817              Ÿ                                                                     Ÿ
                                   10818              Ÿ  ON EXIT:                                                           Ÿ
                                   10819              Ÿ       R0 - MUST BE SAME AS ABOVE                                    Ÿ
                                   10820              Ÿ       R1 - MUST BE SAME AS ABOVE                                    Ÿ
                                   10821              Ÿ       R4 - PLACE FOR RESULT                                         Ÿ
                                   10822              Ÿ      R15 - CC=ZERO, IF ALL OK                                       Ÿ
                                   10823              Ÿ            CC=NZ, IF ERROR... ERROR MSG TSEG'D                      Ÿ
                                   10824              Ÿ                                                                     Ÿ
                                   10825              Ÿ                                                                     Ÿ
                                   10826              Ÿ                                                                     Ÿ
                                                      ¾þþþþþþþþþþþþþþþþþþþþþþþþþþþþþþþþþþþþþþþþþþþþþþþþþþþþþþþþþþþþþþþþþþþþþ»
0000AAC 50E0 D000/9008_      00000 10827              EVLCAT   PROC  ,
 USING  *,R7
 USING  XSENTRY,R2                 10866                       USING XSENTRY,R2
                                   10875                       COMMENT                   **** DO NOT DESTROY R0,R1 ***
                                   10876                       COMMENT                   R4 - 1ST NUMBER
 000AC6 1852                       10877                       LR    R5,R2               R5 - 2ND NUMBER
                                   10878                       COMMENT
 000AC8 1824                       10879                       LR    R2,R4
 000ACA 58E0 77EE/0DEE       012B4 10880                       ACALL MAKESTR                           GET 1ST STRING
 000AD0 4770 705C            00B22 10884                       IF    Z,BEGIN
 000AD4 1825                       10895  1                      LR    R2,R5
 000AD6 58E0 77EE/0DEE       012B4 10896  1                      ACALL MAKESTR                           GET 2ND STRING
 000ADC 4770 705C            00B22 10900  1                      IF    Z,BEGIN
 000AE0 41F0 2026            00026 10911  2                        LA    R15,XSSTRLOC                          R15 - 2ND LOC
 000AE4 48E0 2024            00024 10912  2                        LH    R14,XSSTRLEN                          R14 - 2ND LEN
 000AE8 1824                       10913  2                        LR    R2,R4
 000AEA 4110 2026            00026 10914  2                        LA    R1,XSSTRLOC                           R1 - 1ST LOC
 000AEE 4800 2024            00024 10915  2                        LH    R0,XSSTRLEN                           R0 - 1ST LEN
 000AF2 1830                       10916  2                        LR    R3,R0
 000AF4 1A3E                       10917  2                        AR    R3,R14
 000AF6 5930 77F2/4730_      012B8 10918  2                        IF    (R3,LE,MAXSTRLN),BEGIN      IF NO STRING OVERFLOW
 000AFE 4030 2024            00024 10935  3                          STH   R3,XSSTRLEN
 000B02 1A10                       10936  3                          AR    R1,R0
 000B04 59E0 77F6/47D0_      012BC 10937  3                          IF    (R14,GT,0),BEGIN
 000B0C 06E0/44E0 78C6_            10954  4                            DEX   R14,' MVC 0(0,R1),0(R15) '  CONCATENATE
 000B12                            10973  3                          END
 000B12 1BFF                       10977  3                          CLEAR R15
 000B14                            10981  2                        END
1EVAL     (EVAL9204) (12:43) (15MAR04) EVALUATE EXPRESSION                                                                  Page   39
0Current Usings:  (XSENTRY,R2) (*,R7) (CP,R11) (CV,R12)
0Loc    Object Code    Addr1 Addr2  Stmt Lv Lineno    Source Statement           (Hibal 5, Asmedit 3.3)  HLASM R4.0  2004/03/15 12.43
+___    ______ ____    _____ _____  ____ __ ______    ______ _________
0000B14 5930 77F2/47D0_      012B8 10985  2                        IF    (R3,GT,MAXSTRLN),BEGIN      IF STRING OVERFLOW
 000B1C 58E0 77FA/0DEE       012C0 11002  3                          ACALL STROFLOW
 000B22                            11006  2                        END
 000B22                            11010  1                      END
 000B22                            11014                       END
 000B22 18D8/9808 D004_            11018                       PEND  ,
 DROP   *,R7
 DROP   XSENTRY,R2                 11038                       DROP  R2
1EVAL     (EVAL9204) (12:43) (15MAR04) EVALUATE EXPRESSION                                                                  Page   40
0Current Usings:  (CP,R11) (CV,R12)
0Loc    Object Code    Addr1 Addr2  Stmt Lv Lineno    Source Statement           (Hibal 5, Asmedit 3.3)  HLASM R4.0  2004/03/15 12.43
+___    ______ ____    _____ _____  ____ __ ______    ______ _________
0                                  11046              ¿þþþþþþþþþþþþþþþþþþþþþþþþþþþþþþþþþþþþþþþþþþþþþþþþþþþþþþþþþþþþþþþþþþþþþÜ
                                   11047              Ÿ                                                                     Ÿ
                                   11048              Ÿ                                                                     Ÿ
                                   11049              Ÿ  EVLEQ - COMPARE IF EQUAL                                           Ÿ
                                   11050              Ÿ                                                                     Ÿ
                                   11051              Ÿ  COMPARE IF EQUAL. STACK HEIGHT IS REDUCED BY 2.                    Ÿ
                                   11052              Ÿ  (R6 IS NOT UPDATED).                                               Ÿ
                                   11053              Ÿ                                                                     Ÿ
                                   11054              Ÿ                                                                     Ÿ
                                   11055              Ÿ  ON ENTRY:                                                          Ÿ
                                   11056              Ÿ       R0 - NOT USED                                                 Ÿ
                                   11057              Ÿ       R1 - NOT USED                                                 Ÿ
                                   11058              Ÿ       R2 - 2ND VALUE                                                Ÿ
                                   11059              Ÿ       R3 - OPERATOR ON STACK                                        Ÿ
                                   11060              Ÿ       R4 - 1ST VALUE, PLACE FOR RESULT                              Ÿ
                                   11061              Ÿ                                                                     Ÿ
                                   11062              Ÿ  ON EXIT:                                                           Ÿ
                                   11063              Ÿ       R4 - RESULT                                                   Ÿ
                                   11064              Ÿ      R15 - CC=ZERO, IF ALL OK                                       Ÿ
                                   11065              Ÿ            CC=NZ, IF ERROR... ERROR MSG TSEG'D                      Ÿ
                                   11066              Ÿ                                                                     Ÿ
                                   11067              Ÿ                                                                     Ÿ
                                   11068              Ÿ                                                                     Ÿ
                                                      ¾þþþþþþþþþþþþþþþþþþþþþþþþþþþþþþþþþþþþþþþþþþþþþþþþþþþþþþþþþþþþþþþþþþþþþ»
0000B30 50E0 D000/9008_      00000 11069              EVLEQ    PROC  ,
 USING  *,R7
 USING  XSENTRY,R2                 11108                       USING XSENTRY,R2
 000B4A 58E0 777A/0DEE       012C4 11117                       ACALL EVLCOMPR            COMPARE
 000B50 4770 7046            00B90 11121                       IF    Z,BEGIN
 000B54 5910 7772/4770_      012BC 11132  1                      IF    (R1,EQ,0),BEGIN
 000B5C 1824                       11149  2                        LR    R2,R4
 000B5E D74F 2000 2000 00000 00000 11150  2                        CLEAR XSENTRY
 000B64 9202 2000      00000       11157  2                        SET   XSVAL
 000B68 9203 2020      00020       11163  2                        SET   XSBOOL
 000B6C D20B 2024 76CE 00024 01218 11169  2                        MVC   XSVALUE(NL),PKONE   TRUE
 000B72                            11170  1                      END
 000B72 5910 7772/4780_      012BC 11174  1                      IF    (R1,NE,0),BEGIN
 000B7A 1824                       11191  2                        LR    R2,R4
 000B7C D74F 2000 2000 00000 00000 11192  2                        CLEAR XSENTRY
 000B82 9202 2000      00000       11199  2                        SET   XSVAL
 000B86 9203 2020      00020       11205  2                        SET   XSBOOL
 000B8A D20B 2024 76C2 00024 0120C 11211  2                        MVC   XSVALUE(NL),PKZERO  FLASE
 000B90                            11212  1                      END
 000B90                            11216                       END
 000B90 18D8/9808 D004_            11220                       PEND  ,
 DROP   *,R7
 DROP   XSENTRY,R2                 11240                       DROP  R2
1EVAL     (EVAL9204) (12:43) (15MAR04) EVALUATE EXPRESSION                                                                  Page   41
0Current Usings:  (CP,R11) (CV,R12)
0Loc    Object Code    Addr1 Addr2  Stmt Lv Lineno    Source Statement           (Hibal 5, Asmedit 3.3)  HLASM R4.0  2004/03/15 12.43
+___    ______ ____    _____ _____  ____ __ ______    ______ _________
0                                  11248              ¿þþþþþþþþþþþþþþþþþþþþþþþþþþþþþþþþþþþþþþþþþþþþþþþþþþþþþþþþþþþþþþþþþþþþþÜ
                                   11249              Ÿ                                                                     Ÿ
                                   11250              Ÿ                                                                     Ÿ
                                   11251              Ÿ  EVLNE - COMPARE IF NOT EQUAL                                       Ÿ
                                   11252              Ÿ                                                                     Ÿ
                                   11253              Ÿ  COMPARE IF NOT EQUAL. STACK HEIGHT IS REDUCED BY 2.                Ÿ
                                   11254              Ÿ  (R6 IS NOT UPDATED).                                               Ÿ
                                   11255              Ÿ                                                                     Ÿ
                                   11256              Ÿ                                                                     Ÿ
                                   11257              Ÿ  ON ENTRY:                                                          Ÿ
                                   11258              Ÿ       R0 - NOT USED                                                 Ÿ
                                   11259              Ÿ       R1 - NOT USED                                                 Ÿ
                                   11260              Ÿ       R2 - 2ND VALUE                                                Ÿ
                                   11261              Ÿ       R3 - OPERATOR ON STACK                                        Ÿ
                                   11262              Ÿ       R4 - 1ST VALUE, PLACE FOR RESULT                              Ÿ
                                   11263              Ÿ                                                                     Ÿ
                                   11264              Ÿ  ON EXIT:                                                           Ÿ
                                   11265              Ÿ       R4 - RESULT                                                   Ÿ
                                   11266              Ÿ      R15 - CC=ZERO, IF ALL OK                                       Ÿ
                                   11267              Ÿ            CC=NZ, IF ERROR... ERROR MSG TSEG'D                      Ÿ
                                   11268              Ÿ                                                                     Ÿ
                                   11269              Ÿ                                                                     Ÿ
                                   11270              Ÿ                                                                     Ÿ
                                                      ¾þþþþþþþþþþþþþþþþþþþþþþþþþþþþþþþþþþþþþþþþþþþþþþþþþþþþþþþþþþþþþþþþþþþþþ»
0000B9E 50E0 D000/9008_      00000 11271              EVLNE    PROC  ,
 USING  *,R7
 USING  XSENTRY,R2                 11310                       USING XSENTRY,R2
 000BB8 58E0 770C/0DEE       012C4 11319                       ACALL EVLCOMPR            COMPARE
 000BBE 4770 7046            00BFE 11323                       IF    Z,BEGIN
 000BC2 5910 7704/4780_      012BC 11334  1                      IF    (R1,NE,0),BEGIN
 000BCA 1824                       11351  2                        LR    R2,R4
 000BCC D74F 2000 2000 00000 00000 11352  2                        CLEAR XSENTRY
 000BD2 9202 2000      00000       11359  2                        SET   XSVAL
 000BD6 9203 2020      00020       11365  2                        SET   XSBOOL
 000BDA D20B 2024 7660 00024 01218 11371  2                        MVC   XSVALUE(NL),PKONE   TRUE
 000BE0                            11372  1                      END
 000BE0 5910 7704/4770_      012BC 11376  1                      IF    (R1,EQ,0),BEGIN
 000BE8 1824                       11393  2                        LR    R2,R4
 000BEA D74F 2000 2000 00000 00000 11394  2                        CLEAR XSENTRY
 000BF0 9202 2000      00000       11401  2                        SET   XSVAL
 000BF4 9203 2020      00020       11407  2                        SET   XSBOOL
 000BF8 D20B 2024 7654 00024 0120C 11413  2                        MVC   XSVALUE(NL),PKZERO  FALSE
 000BFE                            11414  1                      END
 000BFE                            11418                       END
 000BFE 18D8/9808 D004_            11422                       PEND  ,
 DROP   *,R7
 DROP   XSENTRY,R2                 11442                       DROP  R2
1EVAL     (EVAL9204) (12:43) (15MAR04) EVALUATE EXPRESSION                                                                  Page   42
0Current Usings:  (CP,R11) (CV,R12)
0Loc    Object Code    Addr1 Addr2  Stmt Lv Lineno    Source Statement           (Hibal 5, Asmedit 3.3)  HLASM R4.0  2004/03/15 12.43
+___    ______ ____    _____ _____  ____ __ ______    ______ _________
0                                  11450              ¿þþþþþþþþþþþþþþþþþþþþþþþþþþþþþþþþþþþþþþþþþþþþþþþþþþþþþþþþþþþþþþþþþþþþþÜ
                                   11451              Ÿ                                                                     Ÿ
                                   11452              Ÿ                                                                     Ÿ
                                   11453              Ÿ  EVLLT - COMPARE IF LESS THAN                                       Ÿ
                                   11454              Ÿ                                                                     Ÿ
                                   11455              Ÿ  COMPARE IF LESS. STACK HEIGHT IS REDUCED BY 2.                     Ÿ
                                   11456              Ÿ  (R6 IS NOT UPDATED).                                               Ÿ
                                   11457              Ÿ                                                                     Ÿ
                                   11458              Ÿ                                                                     Ÿ
                                   11459              Ÿ  ON ENTRY:                                                          Ÿ
                                   11460              Ÿ       R0 - NOT USED                                                 Ÿ
                                   11461              Ÿ       R1 - NOT USED                                                 Ÿ
                                   11462              Ÿ       R2 - 2ND VALUE                                                Ÿ
                                   11463              Ÿ       R3 - OPERATOR ON STACK                                        Ÿ
                                   11464              Ÿ       R4 - 1ST VALUE, PLACE FOR RESULT                              Ÿ
                                   11465              Ÿ                                                                     Ÿ
                                   11466              Ÿ  ON EXIT:                                                           Ÿ
                                   11467              Ÿ       R4 - RESULT                                                   Ÿ
                                   11468              Ÿ      R15 - CC=ZERO, IF ALL OK                                       Ÿ
                                   11469              Ÿ            CC=NZ, IF ERROR... ERROR MSG TSEG'D                      Ÿ
                                   11470              Ÿ                                                                     Ÿ
                                   11471              Ÿ                                                                     Ÿ
                                   11472              Ÿ                                                                     Ÿ
                                                      ¾þþþþþþþþþþþþþþþþþþþþþþþþþþþþþþþþþþþþþþþþþþþþþþþþþþþþþþþþþþþþþþþþþþþþþ»
0000C0C 50E0 D000/9008_      00000 11473              EVLLT    PROC  ,
 USING  *,R7
 USING  XSENTRY,R2                 11512                       USING XSENTRY,R2
 000C26 58E0 769E/0DEE       012C4 11521                       ACALL EVLCOMPR            COMPARE
 000C2C 4770 7064            00C8A 11525                       IF    Z,BEGIN
 000C30 5910 7696/47B0_      012BC 11536  1                      IF    (R1,LT,0),BEGIN
 000C38 1824                       11553  2                        LR    R2,R4
 000C3A D74F 2000 2000 00000 00000 11554  2                        CLEAR XSENTRY
 000C40 9202 2000      00000       11561  2                        SET   XSVAL
 000C44 9203 2020      00020       11567  2                        SET   XSBOOL
 000C48 D20B 2024 75F2 00024 01218 11573  2                        MVC   XSVALUE(NL),PKONE   TRUE
 000C4E                            11574  1                      END
 000C4E 5910 7696/4750_      012BC 11578  1                      IF    (R1,GE,0),BEGIN
 000C56 1824                       11595  2                        LR    R2,R4
 000C58 D74F 2000 2000 00000 00000 11596  2                        CLEAR XSENTRY
 000C5E 9202 2000      00000       11603  2                        SET   XSVAL
 000C62 9203 2020      00020       11609  2                        SET   XSBOOL
 000C66 D20B 2024 75E6 00024 0120C 11615  2                        MVC   XSVALUE(NL),PKZERO  FALSE
 000C6C                            11616  1                      END
 000C6C 5900 76A2/4770_      012C8 11620  1                      IF    (R0,EQ,1),BEGIN
 000C74 4110 76A6/4100_      012CC 11637  2                        TSEG  'Boolean does not convert to number. '
 000C86 41F0 0004            00004 11655  2                        LA    R15,4
 000C8A                            11656  1                      END
 000C8A                            11660                       END
 000C8A 18D8/9808 D004_            11664                       PEND  ,
 DROP   *,R7
 DROP   XSENTRY,R2                 11684                       DROP  R2
1EVAL     (EVAL9204) (12:43) (15MAR04) EVALUATE EXPRESSION                                                                  Page   43
0Current Usings:  (CP,R11) (CV,R12)
0Loc    Object Code    Addr1 Addr2  Stmt Lv Lineno    Source Statement           (Hibal 5, Asmedit 3.3)  HLASM R4.0  2004/03/15 12.43
+___    ______ ____    _____ _____  ____ __ ______    ______ _________
0                                  11692              ¿þþþþþþþþþþþþþþþþþþþþþþþþþþþþþþþþþþþþþþþþþþþþþþþþþþþþþþþþþþþþþþþþþþþþþÜ
                                   11693              Ÿ                                                                     Ÿ
                                   11694              Ÿ                                                                     Ÿ
                                   11695              Ÿ  EVLLE - COMPARE IF LESS THAN OR EQUAL                              Ÿ
                                   11696              Ÿ                                                                     Ÿ
                                   11697              Ÿ  COMPARE IF LESS OR EQUAL. STACK HEIGHT IS REDUCED BY 2.            Ÿ
                                   11698              Ÿ  (R6 IS NOT UPDATED).                                               Ÿ
                                   11699              Ÿ                                                                     Ÿ
                                   11700              Ÿ                                                                     Ÿ
                                   11701              Ÿ  ON ENTRY:                                                          Ÿ
                                   11702              Ÿ       R0 - NOT USED                                                 Ÿ
                                   11703              Ÿ       R1 - NOT USED                                                 Ÿ
                                   11704              Ÿ       R2 - 2ND VALUE                                                Ÿ
                                   11705              Ÿ       R3 - OPERATOR ON STACK                                        Ÿ
                                   11706              Ÿ       R4 - 1ST VALUE, PLACE FOR RESULT                              Ÿ
                                   11707              Ÿ                                                                     Ÿ
                                   11708              Ÿ  ON EXIT:                                                           Ÿ
                                   11709              Ÿ       R4 - RESULT                                                   Ÿ
                                   11710              Ÿ      R15 - CC=ZERO, IF ALL OK                                       Ÿ
                                   11711              Ÿ            CC=NZ, IF ERROR... ERROR MSG TSEG'D                      Ÿ
                                   11712              Ÿ                                                                     Ÿ
                                   11713              Ÿ                                                                     Ÿ
                                   11714              Ÿ                                                                     Ÿ
                                                      ¾þþþþþþþþþþþþþþþþþþþþþþþþþþþþþþþþþþþþþþþþþþþþþþþþþþþþþþþþþþþþþþþþþþþþþ»
0000C98 50E0 D000/9008_      00000 11715              EVLLE    PROC  ,
 USING  *,R7
 USING  XSENTRY,R2                 11754                       USING XSENTRY,R2
 000CB2 58E0 7612/0DEE       012C4 11763                       ACALL EVLCOMPR            COMPARE
 000CB8 4770 7064            00D16 11767                       IF    Z,BEGIN
 000CBC 5910 760A/4730_      012BC 11778  1                      IF    (R1,LE,0),BEGIN
 000CC4 1824                       11795  2                        LR    R2,R4
 000CC6 D74F 2000 2000 00000 00000 11796  2                        CLEAR XSENTRY
 000CCC 9202 2000      00000       11803  2                        SET   XSVAL
 000CD0 9203 2020      00020       11809  2                        SET   XSBOOL
 000CD4 D20B 2024 7566 00024 01218 11815  2                        MVC   XSVALUE(NL),PKONE   TRUE
 000CDA                            11816  1                      END
 000CDA 5910 760A/47D0_      012BC 11820  1                      IF    (R1,GT,0),BEGIN
 000CE2 1824                       11837  2                        LR    R2,R4
 000CE4 D74F 2000 2000 00000 00000 11838  2                        CLEAR XSENTRY
 000CEA 9202 2000      00000       11845  2                        SET   XSVAL
 000CEE 9203 2020      00020       11851  2                        SET   XSBOOL
 000CF2 D20B 2024 755A 00024 0120C 11857  2                        MVC   XSVALUE(NL),PKZERO  FALSE
 000CF8                            11858  1                      END
 000CF8 5900 7616/4770_      012C8 11862  1                      IF    (R0,EQ,1),BEGIN
 000D00 4110 761A/4100_      012CC 11879  2                        TSEG  'Boolean does not convert to number. '
 000D12 41F0 0004            00004 11897  2                        LA    R15,4
 000D16                            11898  1                      END
 000D16                            11902                       END
 000D16 18D8/9808 D004_            11906                       PEND  ,
 DROP   *,R7
 DROP   XSENTRY,R2                 11926                       DROP  R2
1EVAL     (EVAL9204) (12:43) (15MAR04) EVALUATE EXPRESSION                                                                  Page   44
0Current Usings:  (CP,R11) (CV,R12)
0Loc    Object Code    Addr1 Addr2  Stmt Lv Lineno    Source Statement           (Hibal 5, Asmedit 3.3)  HLASM R4.0  2004/03/15 12.43
+___    ______ ____    _____ _____  ____ __ ______    ______ _________
0                                  11934              ¿þþþþþþþþþþþþþþþþþþþþþþþþþþþþþþþþþþþþþþþþþþþþþþþþþþþþþþþþþþþþþþþþþþþþþÜ
                                   11935              Ÿ                                                                     Ÿ
                                   11936              Ÿ                                                                     Ÿ
                                   11937              Ÿ  EVLGT - COMPARE IF GREATER THAN                                    Ÿ
                                   11938              Ÿ                                                                     Ÿ
                                   11939              Ÿ  COMPARE IF GREATER. STACK HEIGHT IS REDUCED BY 2.                  Ÿ
                                   11940              Ÿ  (R6 IS NOT UPDATED).                                               Ÿ
                                   11941              Ÿ                                                                     Ÿ
                                   11942              Ÿ                                                                     Ÿ
                                   11943              Ÿ  ON ENTRY:                                                          Ÿ
                                   11944              Ÿ       R0 - NOT USED                                                 Ÿ
                                   11945              Ÿ       R1 - NOT USED                                                 Ÿ
                                   11946              Ÿ       R2 - 2ND VALUE                                                Ÿ
                                   11947              Ÿ       R3 - OPERATOR ON STACK                                        Ÿ
                                   11948              Ÿ       R4 - 1ST VALUE, PLACE FOR RESULT                              Ÿ
                                   11949              Ÿ                                                                     Ÿ
                                   11950              Ÿ  ON EXIT:                                                           Ÿ
                                   11951              Ÿ       R4 - RESULT                                                   Ÿ
                                   11952              Ÿ      R15 - CC=ZERO, IF ALL OK                                       Ÿ
                                   11953              Ÿ            CC=NZ, IF ERROR... ERROR MSG TSEG'D                      Ÿ
                                   11954              Ÿ                                                                     Ÿ
                                   11955              Ÿ                                                                     Ÿ
                                   11956              Ÿ                                                                     Ÿ
                                                      ¾þþþþþþþþþþþþþþþþþþþþþþþþþþþþþþþþþþþþþþþþþþþþþþþþþþþþþþþþþþþþþþþþþþþþþ»
0000D24 50E0 D000/9008_      00000 11957              EVLGT    PROC  ,
 USING  *,R7
 USING  XSENTRY,R2                 11996                       USING XSENTRY,R2
 000D3E 58E0 7586/0DEE       012C4 12005                       ACALL EVLCOMPR            COMPARE
 000D44 4770 7064            00DA2 12009                       IF    Z,BEGIN
 000D48 5910 757E/47D0_      012BC 12020  1                      IF    (R1,GT,0),BEGIN
 000D50 1824                       12037  2                        LR    R2,R4
 000D52 D74F 2000 2000 00000 00000 12038  2                        CLEAR XSENTRY
 000D58 9202 2000      00000       12045  2                        SET   XSVAL
 000D5C 9203 2020      00020       12051  2                        SET   XSBOOL
 000D60 D20B 2024 74DA 00024 01218 12057  2                        MVC   XSVALUE(NL),PKONE   TRUE
 000D66                            12058  1                      END
 000D66 5910 757E/4730_      012BC 12062  1                      IF    (R1,LE,0),BEGIN
 000D6E 1824                       12079  2                        LR    R2,R4
 000D70 D74F 2000 2000 00000 00000 12080  2                        CLEAR XSENTRY
 000D76 9202 2000      00000       12087  2                        SET   XSVAL
 000D7A 9203 2020      00020       12093  2                        SET   XSBOOL
 000D7E D20B 2024 74CE 00024 0120C 12099  2                        MVC   XSVALUE(NL),PKZERO  FALSE
 000D84                            12100  1                      END
 000D84 5900 758A/4770_      012C8 12104  1                      IF    (R0,EQ,1),BEGIN
 000D8C 4110 758E/4100_      012CC 12121  2                        TSEG  'Boolean does not convert to number. '
 000D9E 41F0 0004            00004 12139  2                        LA    R15,4
 000DA2                            12140  1                      END
 000DA2                            12144                       END
 000DA2 18D8/9808 D004_            12148                       PEND  ,
 DROP   *,R7
 DROP   XSENTRY,R2                 12168                       DROP  R2
1EVAL     (EVAL9204) (12:43) (15MAR04) EVALUATE EXPRESSION                                                                  Page   45
0Current Usings:  (CP,R11) (CV,R12)
0Loc    Object Code    Addr1 Addr2  Stmt Lv Lineno    Source Statement           (Hibal 5, Asmedit 3.3)  HLASM R4.0  2004/03/15 12.43
+___    ______ ____    _____ _____  ____ __ ______    ______ _________
0                                  12176              ¿þþþþþþþþþþþþþþþþþþþþþþþþþþþþþþþþþþþþþþþþþþþþþþþþþþþþþþþþþþþþþþþþþþþþþÜ
                                   12177              Ÿ                                                                     Ÿ
                                   12178              Ÿ                                                                     Ÿ
                                   12179              Ÿ  EVLGE - COMPARE IF GREATER OR EQUAL                                Ÿ
                                   12180              Ÿ                                                                     Ÿ
                                   12181              Ÿ  COMPARE IF GREATER OR EQUAL. STACK HEIGHT IS REDUCED BY 2.         Ÿ
                                   12182              Ÿ  (R6 IS NOT UPDATED).                                               Ÿ
                                   12183              Ÿ                                                                     Ÿ
                                   12184              Ÿ                                                                     Ÿ
                                   12185              Ÿ  ON ENTRY:                                                          Ÿ
                                   12186              Ÿ       R0 - NOT USED                                                 Ÿ
                                   12187              Ÿ       R1 - NOT USED                                                 Ÿ
                                   12188              Ÿ       R2 - 2ND VALUE                                                Ÿ
                                   12189              Ÿ       R3 - OPERATOR ON STACK                                        Ÿ
                                   12190              Ÿ       R4 - 1ST VALUE, PLACE FOR RESULT                              Ÿ
                                   12191              Ÿ                                                                     Ÿ
                                   12192              Ÿ  ON EXIT:                                                           Ÿ
                                   12193              Ÿ       R4 - RESULT                                                   Ÿ
                                   12194              Ÿ      R15 - CC=ZERO, IF ALL OK                                       Ÿ
                                   12195              Ÿ            CC=NZ, IF ERROR... ERROR MSG TSEG'D                      Ÿ
                                   12196              Ÿ                                                                     Ÿ
                                   12197              Ÿ                                                                     Ÿ
                                   12198              Ÿ                                                                     Ÿ
                                                      ¾þþþþþþþþþþþþþþþþþþþþþþþþþþþþþþþþþþþþþþþþþþþþþþþþþþþþþþþþþþþþþþþþþþþþþ»
0000DB0 50E0 D000/9008_      00000 12199              EVLGE    PROC  ,
 USING  *,R7
 USING  XSENTRY,R2                 12238                       USING XSENTRY,R2
 000DCA 58E0 74FA/0DEE       012C4 12247                       ACALL EVLCOMPR            COMPARE
 000DD0 4770 7064            00E2E 12251                       IF    Z,BEGIN
 000DD4 5910 74F2/4750_      012BC 12262  1                      IF    (R1,GE,0),BEGIN
 000DDC 1824                       12279  2                        LR    R2,R4
 000DDE D74F 2000 2000 00000 00000 12280  2                        CLEAR XSENTRY
 000DE4 9202 2000      00000       12287  2                        SET   XSVAL
 000DE8 9203 2020      00020       12293  2                        SET   XSBOOL
 000DEC D20B 2024 744E 00024 01218 12299  2                        MVC   XSVALUE(NL),PKONE   TRUE
 000DF2                            12300  1                      END
 000DF2 5910 74F2/47B0_      012BC 12304  1                      IF    (R1,LT,0),BEGIN
 000DFA 1824                       12321  2                        LR    R2,R4
 000DFC D74F 2000 2000 00000 00000 12322  2                        CLEAR XSENTRY
 000E02 9202 2000      00000       12329  2                        SET   XSVAL
 000E06 9203 2020      00020       12335  2                        SET   XSBOOL
 000E0A D20B 2024 7442 00024 0120C 12341  2                        MVC   XSVALUE(NL),PKZERO  FALSE
 000E10                            12342  1                      END
 000E10 5900 74FE/4770_      012C8 12346  1                      IF    (R0,EQ,1),BEGIN
 000E18 4110 7502/4100_      012CC 12363  2                        TSEG  'Boolean does not convert to number. '
 000E2A 41F0 0004            00004 12381  2                        LA    R15,4
 000E2E                            12382  1                      END
 000E2E                            12386                       END
 000E2E 18D8/9808 D004_            12390                       PEND  ,
 DROP   *,R7
 DROP   XSENTRY,R2                 12410                       DROP  R2
1EVAL     (EVAL9204) (12:43) (15MAR04) EVALUATE EXPRESSION                                                                  Page   46
0Current Usings:  (CP,R11) (CV,R12)
0Loc    Object Code    Addr1 Addr2  Stmt Lv Lineno    Source Statement           (Hibal 5, Asmedit 3.3)  HLASM R4.0  2004/03/15 12.43
+___    ______ ____    _____ _____  ____ __ ______    ______ _________
0                                  12418              ¿þþþþþþþþþþþþþþþþþþþþþþþþþþþþþþþþþþþþþþþþþþþþþþþþþþþþþþþþþþþþþþþþþþþþþÜ
                                   12419              Ÿ                                                                     Ÿ
                                   12420              Ÿ                                                                     Ÿ
                                   12421              Ÿ  EVLOR - BOOLEAN OR                                                 Ÿ
                                   12422              Ÿ                                                                     Ÿ
                                   12423              Ÿ  BOOLEAN OR TWO NUMBERS, STACK HEIGHT IS REDUCED BY 2.              Ÿ
                                   12424              Ÿ  (R6 NOT UPDATED).                                                  Ÿ
                                   12425              Ÿ                                                                     Ÿ
                                   12426              Ÿ  ON ENTRY:                                                          Ÿ
                                   12427              Ÿ       R0 - NOT USED                                                 Ÿ
                                   12428              Ÿ       R1 - NOT USED                                                 Ÿ
                                   12429              Ÿ       R2 - 2ND VALUE                                                Ÿ
                                   12430              Ÿ       R3 - OPERATOR ON STACK                                        Ÿ
                                   12431              Ÿ       R4 - 1ST VALUE                                                Ÿ
                                   12432              Ÿ                                                                     Ÿ
                                   12433              Ÿ  ON EXIT:                                                           Ÿ
                                   12434              Ÿ       R0 - MUST BE SAME AS ABOVE                                    Ÿ
                                   12435              Ÿ       R1 - MUST BE SAME AS ABOVE                                    Ÿ
                                   12436              Ÿ       R4 - PLACE FOR RESULT                                         Ÿ
                                   12437              Ÿ      R15 - CC=ZERO, IF ALL OK                                       Ÿ
                                   12438              Ÿ            CC=NZ, IF ERROR... ERROR MSG TSEG'D                      Ÿ
                                   12439              Ÿ                                                                     Ÿ
                                   12440              Ÿ                                                                     Ÿ
                                   12441              Ÿ                                                                     Ÿ
                                                      ¾þþþþþþþþþþþþþþþþþþþþþþþþþþþþþþþþþþþþþþþþþþþþþþþþþþþþþþþþþþþþþþþþþþþþþ»
0000E3C 50E0 D000/9008_      00000 12442              EVLOR    PROC  ,
 USING  *,R7
 USING  XSENTRY,R2                 12481                       USING XSENTRY,R2
                                   12490                       COMMENT                   **** DO NOT DESTROY R0,R1 ***
                                   12491                       COMMENT                   R4 - 1ST NUMBER
 000E56 1852                       12492                       LR    R5,R2               R5 - 2ND NUMBER
                                   12493                       COMMENT
 000E58 1824                       12494                       LR    R2,R4
 000E5A 58E0 743E/0DEE       01294 12495                       ACALL MAKEBOOL                          GET 1ST BOOLEAN
 000E60 4140 2024            00024 12499                       LA    R4,XSVALUE
 000E64 4770 7028            00E7E 12500                       IF    Z,BEGIN
 000E68 1825                       12511  1                      LR    R2,R5
 000E6A 58E0 743E/0DEE       01294 12512  1                      ACALL MAKEBOOL                          GET 2ND BOOLEAN
 000E70 4150 2024            00024 12516  1                      LA    R5,XSVALUE
 000E74 4770 7028            00E7E 12517  1                      IF    Z,BEGIN
 000E78 D60B 4000 5000 00000 00000 12528  2                        OC    0(NL,R4),0(R5)                     OR
 000E7E                            12529  1                      END
 000E7E                            12533                       END
 000E7E 18D8/9808 D004_            12537                       PEND  ,
 DROP   *,R7
 DROP   XSENTRY,R2                 12557                       DROP  R2
1EVAL     (EVAL9204) (12:43) (15MAR04) EVALUATE EXPRESSION                                                                  Page   47
0Current Usings:  (CP,R11) (CV,R12)
0Loc    Object Code    Addr1 Addr2  Stmt Lv Lineno    Source Statement           (Hibal 5, Asmedit 3.3)  HLASM R4.0  2004/03/15 12.43
+___    ______ ____    _____ _____  ____ __ ______    ______ _________
0                                  12565              ¿þþþþþþþþþþþþþþþþþþþþþþþþþþþþþþþþþþþþþþþþþþþþþþþþþþþþþþþþþþþþþþþþþþþþþÜ
                                   12566              Ÿ                                                                     Ÿ
                                   12567              Ÿ                                                                     Ÿ
                                   12568              Ÿ  EVLAND - BOOLEAN AND                                               Ÿ
                                   12569              Ÿ                                                                     Ÿ
                                   12570              Ÿ  BOOLEAN ANDTWO NUMBERS, STACK HEIGHT IS REDUCED BY 2.              Ÿ
                                   12571              Ÿ  (R6 NOT UPDATED).                                                  Ÿ
                                   12572              Ÿ                                                                     Ÿ
                                   12573              Ÿ  ON ENTRY:                                                          Ÿ
                                   12574              Ÿ       R0 - NOT USED                                                 Ÿ
                                   12575              Ÿ       R1 - NOT USED                                                 Ÿ
                                   12576              Ÿ       R2 - 2ND VALUE                                                Ÿ
                                   12577              Ÿ       R3 - OPERATOR ON STACK                                        Ÿ
                                   12578              Ÿ       R4 - 1ST VALUE                                                Ÿ
                                   12579              Ÿ                                                                     Ÿ
                                   12580              Ÿ  ON EXIT:                                                           Ÿ
                                   12581              Ÿ       R0 - MUST BE SAME AS ABOVE                                    Ÿ
                                   12582              Ÿ       R1 - MUST BE SAME AS ABOVE                                    Ÿ
                                   12583              Ÿ       R4 - PLACE FOR RESULT                                         Ÿ
                                   12584              Ÿ      R15 - CC=ZERO, IF ALL OK                                       Ÿ
                                   12585              Ÿ            CC=NZ, IF ERROR... ERROR MSG TSEG'D                      Ÿ
                                   12586              Ÿ                                                                     Ÿ
                                   12587              Ÿ                                                                     Ÿ
                                   12588              Ÿ                                                                     Ÿ
                                                      ¾þþþþþþþþþþþþþþþþþþþþþþþþþþþþþþþþþþþþþþþþþþþþþþþþþþþþþþþþþþþþþþþþþþþþþ»
0000E8C 50E0 D000/9008_      00000 12589              EVLAND   PROC  ,
 USING  *,R7
 USING  XSENTRY,R2                 12628                       USING XSENTRY,R2
                                   12637                       COMMENT                   **** DO NOT DESTROY R0,R1 ***
                                   12638                       COMMENT                   R4 - 1ST NUMBER
 000EA6 1852                       12639                       LR    R5,R2               R5 - 2ND NUMBER
                                   12640                       COMMENT
 000EA8 1824                       12641                       LR    R2,R4
 000EAA 58E0 73EE/0DEE       01294 12642                       ACALL MAKEBOOL                          GET 1ST BOOLEAN
 000EB0 4140 2024            00024 12646                       LA    R4,XSVALUE
 000EB4 4770 7028            00ECE 12647                       IF    Z,BEGIN
 000EB8 1825                       12658  1                      LR    R2,R5
 000EBA 58E0 73EE/0DEE       01294 12659  1                      ACALL MAKEBOOL                          GET 2ND BOOLEAN
 000EC0 4150 2024            00024 12663  1                      LA    R5,XSVALUE
 000EC4 4770 7028            00ECE 12664  1                      IF    Z,BEGIN
 000EC8 D40B 4000 5000 00000 00000 12675  2                        NC    0(NL,R4),0(R5)                     AND
 000ECE                            12676  1                      END
 000ECE                            12680                       END
 000ECE 18D8/9808 D004_            12684                       PEND  ,
 DROP   *,R7
 DROP   XSENTRY,R2                 12704                       DROP  R2
1EVAL     (EVAL9204) (12:43) (15MAR04) EVALUATE EXPRESSION                                                                  Page   48
0Current Usings:  (CP,R11) (CV,R12)
0Loc    Object Code    Addr1 Addr2  Stmt Lv Lineno    Source Statement           (Hibal 5, Asmedit 3.3)  HLASM R4.0  2004/03/15 12.43
+___    ______ ____    _____ _____  ____ __ ______    ______ _________
0                                  12712              ¿þþþþþþþþþþþþþþþþþþþþþþþþþþþþþþþþþþþþþþþþþþþþþþþþþþþþþþþþþþþþþþþþþþþþþÜ
                                   12713              Ÿ                                                                     Ÿ
                                   12714              Ÿ                                                                     Ÿ
                                   12715              Ÿ  EVLCOMPR - COMPARE TWO VALUES                                      Ÿ
                                   12716              Ÿ                                                                     Ÿ
                                   12717              Ÿ  NUMBERS, BOOLEANS, AND/OR STRINGS MAY BE COMPARED.                 Ÿ
                                   12718              Ÿ                                                                     Ÿ
                                   12719              Ÿ  ON ENTRY:                                                          Ÿ
                                   12720              Ÿ       R0,R1 - NOT USED                                              Ÿ
                                   12721              Ÿ       R2 - 2ND VALUE                                                Ÿ
                                   12722              Ÿ       R3 - OPERATOR                                                 Ÿ
                                   12723              Ÿ       R4 - 1ST VALUE                                                Ÿ
                                   12724              Ÿ                                                                     Ÿ
                                   12725              Ÿ  ON EXIT:                                                           Ÿ
                                   12726              Ÿ       R0 - 0 IF NUMBER OR STRING COMPARE, 1 IF BOOLEAN COMPARE      Ÿ
                                   12727              Ÿ       R1 - 0 IF EQ, 1 IF HIGH, -1 IF LOW                            Ÿ
                                   12728              Ÿ      R15 - CC=ZERO, IF COMPARE OK                                   Ÿ
                                   12729              Ÿ            CC=NZ, IF ERROR... ERROR MSG TSEG'D                      Ÿ
                                   12730              Ÿ                                                                     Ÿ
                                   12731              Ÿ                                                                     Ÿ
                                   12732              Ÿ                                                                     Ÿ
                                                      ¾þþþþþþþþþþþþþþþþþþþþþþþþþþþþþþþþþþþþþþþþþþþþþþþþþþþþþþþþþþþþþþþþþþþþþ»
0000EDC 50E0 D000/9008_      00000 12733              EVLCOMPR PROC  ,
 USING  *,R7
 USING  XSENTRY,R2                 12772                       USING  XSENTRY,R2
                                   12781                       COMMENT                   R4 - 1ST VALUE
 000EF6 1852                       12782                       LR    R5,R2               R5 - 2ND VALUE
                                   12783                       COMMENT
 000EF8 9502 2020/4770_00020       12784                       IF    XSNUMB,BEGIN        IF NUMBER,,
 000F00 58E0 73FA/0DEE       012F0 12799  1                      ACALL EVLCPNUM
 000F06 47F0 7056            00F4C 12803  1                      B     EVLCDONE
 000F0A                            12804                       END
 000F0A 9503 2020/4770_00020       12808                       IF    XSBOOL,BEGIN        IF BOOLEAN,,
 000F12 58E0 73FE/0DEE       012F4 12823  1                      ACALL EVLCPBOO
 000F18 47F0 7056            00F4C 12827  1                      B     EVLCDONE
 000F1C                            12828                       END
 000F1C 1824                       12832                       LR    R2,R4
 000F1E 9502 2020/4770_00020       12833                       IF    XSNUMB,BEGIN        IF NUMBER,,
 000F26 58E0 73FA/0DEE       012F0 12848  1                      ACALL EVLCPNUM
 000F2C 47F0 7056            00F4C 12852  1                      B     EVLCDONE
 000F30                            12853                       END
 000F30 9503 2020/4770_00020       12857                       IF    XSBOOL,BEGIN        IF BOOLEAN,,
 000F38 58E0 73FE/0DEE       012F4 12872  1                      ACALL EVLCPBOO
 000F3E 47F0 7056            00F4C 12876  1                      B     EVLCDONE
 000F42                            12877                       END
 000F42 58E0 7402/0DEE       012F8 12881                       ACALL EVLCPSTR            IF STRING
 000F48 47F0 7056            00F4C 12885                       B     EVLCDONE
                                   12886
 000F4C                            12887              EVLCDONE LABEL ,
 000F4C 9001 8004            00004 12889                       PRETURN (R0,R1)
 000F50 18D8/9808 D004_            12891                       PEND  ,
 DROP   *,R7
 DROP   XSENTRY,R2                 12911                       DROP  R2
1EVAL     (EVAL9204) (12:43) (15MAR04) EVALUATE EXPRESSION                                                                  Page   49
0Current Usings:  (CP,R11) (CV,R12)
0Loc    Object Code    Addr1 Addr2  Stmt Lv Lineno    Source Statement           (Hibal 5, Asmedit 3.3)  HLASM R4.0  2004/03/15 12.43
+___    ______ ____    _____ _____  ____ __ ______    ______ _________
0                                  12919                        ¿þþþþþþþþþþþþþþþþþþþþþþþþþþþþþþþþþþþþþþþþþþþþþþþþþþþÜ
                                   12920                        Ÿ   R4 - FIRST VALUE,  R5 - 2ND VALUE               Ÿ
                                   12921                        Ÿ                                                   Ÿ
                                   12922                        Ÿ   R0 - 0 IF NUMBER, STRING COMPARE, 1 IF BOOLEAN  Ÿ
                                   12923                        Ÿ   R1 - 0 IF EQUAL, 1 IF HIGH, -1 IF LOW           Ÿ
                                   12924                        Ÿ  R15 - CC=ZERO IF OK, CC=NZ IF ERROR              Ÿ
                                   12925                        ¾þþþþþþþþþþþþþþþþþþþþþþþþþþþþþþþþþþþþþþþþþþþþþþþþþþþ»
 000F5E 50E0 D000/9008_      00000 12926              EVLCPNUM PROC  ,                   COMPARE NUMBERS
 USING  *,R7
 USING  XSENTRY,R2                 12965                       USING XSENTRY,R2
 000F78 1824                       12974                       LR    R2,R4
 000F7A 58E0 7318/0DEE       01290 12975                       ACALL MAKENUMB            GET 1ST NUMBER
 000F80 4770 7040            00FB8 12979                       IF    Z,BEGIN
 000F84 1825                       12990  1                      LR    R2,R5
 000F86 58E0 7318/0DEE       01290 12991  1                      ACALL MAKENUMB            GET 2ND NUMBER
 000F8C 4150 2024            00024 12995  1                      LA    R5,XSVALUE              R5 - VALUE OF 2ND NUMBER
 000F90 4770 7040            00FB8 12996  1                      IF    Z,BEGIN
 000F94 1824                       13007  2                        LR    R2,R4
 000F96 F9BB 2024 5000 00024 00000 13008  2                        CP    XSVALUE(NL),0(NL,R5)
 000F9C 4770 702C            00FA4 13009  2                        IF    E,BEGIN             EQUAL
 000FA0 4110 0000            00000 13020  3                          LA    R1,0
 000FA4                            13021  2                        END
 000FA4 47D0 7034            00FAC 13025  2                        IF    H,BEGIN             HIGH
 000FA8 4110 0001            00001 13036  3                          LA    R1,1
 000FAC                            13037  2                        END
 000FAC 47B0 703C            00FB4 13041  2                        IF    L,BEGIN             LOW
 000FB0 5810 7384            012FC 13052  3                          L     R1,=F'-1'
 000FB4                            13053  2                        END
 000FB4 1B00                       13057  2                        SR    R0,R0
 000FB6 1BFF                       13058  2                        CLEAR R15
 000FB8                            13062  1                      END
 000FB8                            13066                       END
 000FB8 9001 8004            00004 13070                       PRETURN (R0,R1)
 000FBC 18D8/9808 D004_            13072                       PEND  ,
 DROP   *,R7
 DROP   XSENTRY,R2                 13092                       DROP  R2
1EVAL     (EVAL9204) (12:43) (15MAR04) EVALUATE EXPRESSION                                                                  Page   50
0Current Usings:  (CP,R11) (CV,R12)
0Loc    Object Code    Addr1 Addr2  Stmt Lv Lineno    Source Statement           (Hibal 5, Asmedit 3.3)  HLASM R4.0  2004/03/15 12.43
+___    ______ ____    _____ _____  ____ __ ______    ______ _________
0                                  13100                        ¿þþþþþþþþþþþþþþþþþþþþþþþþþþþþþþþþþþþþþþþþþþþþþþþþþþþÜ
                                   13101                        Ÿ   R4 - FIRST VALUE,  R5 - 2ND VALUE               Ÿ
                                   13102                        Ÿ                                                   Ÿ
                                   13103                        Ÿ   R0 - 0 IF NUMBER, STRING COMPARE, 1 IF BOOLEAN  Ÿ
                                   13104                        Ÿ   R1 - 0 IF EQUAL, 1 IF HIGH, -1 IF LOW           Ÿ
                                   13105                        Ÿ  R15 - CC=ZERO IF OK, CC=NZ IF ERROR              Ÿ
                                   13106                        ¾þþþþþþþþþþþþþþþþþþþþþþþþþþþþþþþþþþþþþþþþþþþþþþþþþþþ»
 000FCA 50E0 D000/9008_      00000 13107              EVLCPBOO PROC  ,                   COMPARE BOOLEANS
 USING  *,R7
 USING  XSENTRY,R2                 13146                       USING XSENTRY,R2
 000FE4 1824                       13155                       LR    R2,R4
 000FE6 58E0 72B0/0DEE       01294 13156                       ACALL MAKEBOOL            GET 1ST BOOLEAN
 000FEC 4770 703A            0101E 13160                       IF    Z,BEGIN
 000FF0 1825                       13171  1                      LR    R2,R5
 000FF2 58E0 72B0/0DEE       01294 13172  1                      ACALL MAKEBOOL            GET 2ND BOOLEAN
 000FF8 4150 2024            00024 13176  1                      LA    R5,XSVALUE              R5 - 2ND BOOLEAN VALUE
 000FFC 4770 703A            0101E 13177  1                      IF    Z,BEGIN
 001000 1824                       13188  2                        LR    R2,R4
 001002 D507 2024 5000 00024 00000 13189  2                        CLC   XSVALUE(8),0(R5)    COMPARE
 001008 4770 702C            01010 13190  2                        IF    EQ,BEGIN
 00100C 4110 0000            00000 13201  3                          LA    R1,0                EQUAL
 001010                            13202  2                        END
 001010 4780 7034            01018 13206  2                        IF    NE,BEGIN
 001014 4110 0001            00001 13217  3                          LA    R1,1                NOT EQUAL
 001018                            13218  2                        END
 001018 4100 0001            00001 13222  2                        LA    R0,1
 00101C 1BFF                       13223  2                        CLEAR R15
 00101E                            13227  1                      END
 00101E                            13231                       END
 00101E 9001 8004            00004 13235                       PRETURN (R0,R1)
 001022 18D8/9808 D004_            13237                       PEND  ,
 DROP   *,R7
 DROP   XSENTRY,R2                 13257                       DROP  R2
1EVAL     (EVAL9204) (12:43) (15MAR04) EVALUATE EXPRESSION                                                                  Page   51
0Current Usings:  (CP,R11) (CV,R12)
0Loc    Object Code    Addr1 Addr2  Stmt Lv Lineno    Source Statement           (Hibal 5, Asmedit 3.3)  HLASM R4.0  2004/03/15 12.43
+___    ______ ____    _____ _____  ____ __ ______    ______ _________
0                                  13265                        ¿þþþþþþþþþþþþþþþþþþþþþþþþþþþþþþþþþþþþþþþþþþþþþþþþþþþÜ
                                   13266                        Ÿ   R4 - FIRST VALUE,  R5 - 2ND VALUE               Ÿ
                                   13267                        Ÿ                                                   Ÿ
                                   13268                        Ÿ   R0 - 0 IF NUMBER, STRING COMPARE, 1 IF BOOLEAN  Ÿ
                                   13269                        Ÿ   R1 - 0 IF EQUAL, 1 IF HIGH, -1 IF LOW           Ÿ
                                   13270                        Ÿ  R15 - CC=ZERO IF OK, CC=NZ IF ERROR              Ÿ
                                   13271                        ¾þþþþþþþþþþþþþþþþþþþþþþþþþþþþþþþþþþþþþþþþþþþþþþþþþþþ»
 001030 50E0 D000/9008_      00000 13272              EVLCPSTR PROC  ,                   COMPARE STRINGS
 USING  *,R7
 USING  XSENTRY,R2                 13311                       USING XSENTRY,R2
 00104A 1824                       13320                       LR    R2,R4
 00104C 58E0 726A/0DEE       012B4 13321                       ACALL MAKESTR             GET 1ST STRING
 001052 4770 704E            01098 13325                       IF    Z,BEGIN
 001056 1825                       13336  1                      LR    R2,R5
 001058 58E0 726A/0DEE       012B4 13337  1                      ACALL MAKESTR             GET 2ND STRING
 00105E 4770 704E            01098 13341  1                      IF    Z,BEGIN
 001062 1824                       13352  2                        LR    R2,R4
 001064 41E0 2026            00026 13353  2                        LA    R14,XSSTRLOC        1ST STRING LOC, LEN
 001068 48F0 2024            00024 13354  2                        LH    R15,XSSTRLEN
 00106C 1825                       13355  2                        LR    R2,R5
 00106E 4100 2026            00026 13356  2                        LA    R0,XSSTRLOC         2ND STRING LOC, LEN
 001072 4810 2024            00024 13357  2                        LH    R1,XSSTRLEN
 001076 5610 72B6            01300 13358  2                        O     R1,=X'40000000'
 00107A 0FE0                       13359  2                        CLCL  R14,R0              COMPARE
 00107C 4770 703A            01084 13360  2                        IF    EQ,BEGIN
 001080 4110 0000            00000 13371  3                          LA    R1,0
 001084                            13372  2                        END
 001084 47D0 7042            0108C 13376  2                        IF    H,BEGIN
 001088 4110 0001            00001 13387  3                          LA    R1,1
 00108C                            13388  2                        END
 00108C 47B0 704A            01094 13392  2                        IF    L,BEGIN
 001090 5810 72B2            012FC 13403  3                          L     R1,=F'-1'
 001094                            13404  2                        END
 001094 1B00                       13408  2                        SR    R0,R0
 001096 1BFF                       13409  2                        CLEAR R15
 001098                            13413  1                      END
 001098                            13417                       END
 001098 9001 8004            00004 13421                       PRETURN (R0,R1)
 00109C 18D8/9808 D004_            13423                       PEND  ,
 DROP   *,R7
 DROP   XSENTRY,R2                 13443                       DROP  R2
1EVAL     (EVAL9204) (12:43) (15MAR04) EVALUATE EXPRESSION                                                                  Page   52
0Current Usings:  (CP,R11) (CV,R12)
0Loc    Object Code    Addr1 Addr2  Stmt Lv Lineno    Source Statement           (Hibal 5, Asmedit 3.3)  HLASM R4.0  2004/03/15 12.43
+___    ______ ____    _____ _____  ____ __ ______    ______ _________
0                                  13451              ¿þþþþþþþþþþþþþþþþþþþþþþþþþþþþþþþþþþþþþþþþþþþþþþþþþþþþþþþþþþþþþþþþþþþþþÜ
                                   13452              Ÿ                                                                     Ÿ
                                   13453              Ÿ                                                                     Ÿ
                                   13454              Ÿ  EVLEND - EVALUATE END OF EXPRESSION                                Ÿ
                                   13455              Ÿ                                                                     Ÿ
                                   13456              Ÿ  ON ENTRY:                                                          Ÿ
                                   13457              Ÿ       R0 - NOT USED                                                 Ÿ
                                   13458              Ÿ       R1 - NOT USED                                                 Ÿ
                                   13459              Ÿ       R6 - EXPRESSION STACK, POINTS 'EXPR END ENTRY'                Ÿ
                                   13460              Ÿ                                                                     Ÿ
                                   13461              Ÿ  ON EXIT:                                                           Ÿ
                                   13462              Ÿ       R1 - NEW STACK POINTER, POINTS TO VALUE OR NULL ENTRY         Ÿ
                                   13463              Ÿ      R15 - CC=ZERO, EXPRESSION RETURNED A VALUE                     Ÿ
                                   13464              Ÿ            CC=NZ, IF ERROR... ERROR MSG TSEG 'D                     Ÿ
                                   13465              Ÿ                                                                     Ÿ
                                   13466              Ÿ                                                                     Ÿ
                                   13467              Ÿ                                                                     Ÿ
                                                      ¾þþþþþþþþþþþþþþþþþþþþþþþþþþþþþþþþþþþþþþþþþþþþþþþþþþþþþþþþþþþþþþþþþþþþþ»
00010AA 50E0 D000/9008_      00000 13468              EVLEND   PROC  ,
 USING  *,R7
 USING  XSENTRY,R6                 13507                       USING XSENTRY,R6
 0010C4 5B60 7240            01304 13516                       XSPOP ,,                  POP EXPRESSION STACK
 0010C8 9504 6000/4770_00000       13518                       IF    XSEND,BEGIN
 0010D0 5B60 7240            01304 13533  1                      XSPOP ,,
 0010D4 9501 6000/4770_00000       13535  1                      IF    XSSTART,BEGIN       IF STACK: END, START.
 0010DC D74F 6000 6000 00000 00000 13550  2                        CLEAR XSENTRY
 0010E2 9205 6000      00000       13557  2                        SET   XSNULL                 RETURN NULL
 0010E6 1816                       13563  2                        LR    R1,R6
 0010E8 1BFF                       13564  2                        CLEAR R15
 0010EA 47F0 7068            0112C 13568  2                        B     EVLEDONE
 0010EE                            13569  1                      END
 0010EE 9502 6000/4770_00000       13573  1                      IF    XSVAL,BEGIN
 0010F6 1826                       13588  2                        LR    R2,R6
 0010F8 5B60 7240            01304 13589  2                        XSPOP ,,
 0010FC 9501 6000/4770_00000       13591  2                        IF    XSSTART,BEGIN       IF STACK: END, VAL, START.
 001104 1846                       13606  3                          LR    R4,R6
 001106 4150 0150            00150 13607  3                          LA    R5,L'XSLENTRY          MOVE VALUE TO START OF STACK
 00110A 1835                       13608  3                          LR    R3,R5
 00110C 0E42                       13609  3                          MVCL  R4,R2
 00110E 1816                       13610  3                          LR    R1,R6
 001110 1BFF                       13611  3                          CLEAR R15
 001112 47F0 7068            0112C 13615  3                          B     EVLEDONE
 001116                            13616  2                        END
 001116                            13620  1                      END
 001116                            13624                       END
                                   13628                       COMMENT                        ALL OTHERS ARE ERRORS
 001116 4110 7244/4100_      01308 13629                       TSEG  'Invalid expression. '   SHOULD NEVER OCCUR
 001128 41F0 0004            00004 13647                       LA    R15,4
                                   13648
 00112C                            13649              EVLEDONE LABEL ,
 00112C 9001 8004            00004 13651                       PRETURN (R0,R1)
 001130 18D8/9808 D004_            13653                       PEND  ,
 DROP   *,R7
1EVAL     (EVAL9204) (12:43) (15MAR04) EVALUATE EXPRESSION                                                                  Page   53
0Current Usings:  (XSENTRY,R6) (CP,R11) (CV,R12)
0Loc    Object Code    Addr1 Addr2  Stmt Lv Lineno    Source Statement           (Hibal 5, Asmedit 3.3)  HLASM R4.0  2004/03/15 12.43
+___    ______ ____    _____ _____  ____ __ ______    ______ _________
0                                  13674              ¿þþþþþþþþþþþþþþþþþþþþþþþþþþþþþþþþþþþþþþþþþþþþþþþþþþþþþþþþþþþþþþþþþþþþþÜ
                                   13675              Ÿ                                                                     Ÿ
                                   13676              Ÿ                                                                     Ÿ
                                   13677              Ÿ  BADUOP - INVALID UNARY OPERATOR                                    Ÿ
                                   13678              Ÿ                                                                     Ÿ
                                   13679              Ÿ  ON ENTRY:                                                          Ÿ
                                   13680              Ÿ       R6 - STACK ENTRY OF INVALID OPERATOR                          Ÿ
                                   13681              Ÿ                                                                     Ÿ
                                   13682              Ÿ  ON EXIT:                                                           Ÿ
                                   13683              Ÿ       R15 - CC=NZ, ERROR IS TSEG 'D                                 Ÿ
                                   13684              Ÿ                                                                     Ÿ
                                   13685              Ÿ  USED AS UNARY ROUTINE FOR OPERATORS THAT ARE INVALID AS            Ÿ
                                   13686              Ÿ  UNARY OPERATORS.  ROUTINE IS CALLED FROM EVLSTACK.                 Ÿ
                                   13687              Ÿ                                                                     Ÿ
                                   13688              Ÿ                                                                     Ÿ
                                   13689              Ÿ                                                                     Ÿ
                                                      ¾þþþþþþþþþþþþþþþþþþþþþþþþþþþþþþþþþþþþþþþþþþþþþþþþþþþþþþþþþþþþþþþþþþþþþ»
000113E 50E0 D000/9008_      00000 13690              BADUOP   PROC  ,
 USING  *,R7
                                   13729                       USING XSENTRY,R6
 001158 4110 7212/4100_      0136A 13731                       TSEG  '"'
 00116A 41F0 B050            00050 13749                       LA    R15,CPSEG
 00116E 4110 600C/4100_      0000C 13750                       SEGT  XSOPCHAR,4
 001180 4110 7213/4100_      0136B 13780                       TSEG  '" is not a valid unary operator. '
 001192 41F0 0004            00004 13798                       LA    R15,4
 001196 18D8/9808 D004_            13799                       PEND  ,
 DROP   *,R7
1EVAL     (EVAL9204) (12:43) (15MAR04) EVALUATE EXPRESSION                                                                  Page   54
0Current Usings:  (XSENTRY,R6) (CP,R11) (CV,R12)
0Loc    Object Code    Addr1 Addr2  Stmt Lv Lineno    Source Statement           (Hibal 5, Asmedit 3.3)  HLASM R4.0  2004/03/15 12.43
+___    ______ ____    _____ _____  ____ __ ______    ______ _________
0                                  13820              ¿þþþþþþþþþþþþþþþþþþþþþþþþþþþþþþþþþþþþþþþþþþþþþþþþþþþþþþþþþþþþþþþþþþþþþÜ
                                   13821              Ÿ                                                                     Ÿ
                                   13822              Ÿ                                                                     Ÿ
                                   13823              Ÿ  BADBOP - INVALID BINARY OPERATOR                                   Ÿ
                                   13824              Ÿ                                                                     Ÿ
                                   13825              Ÿ  ON ENTRY:                                                          Ÿ
                                   13826              Ÿ       R6 - STACK ENTRY OF INVALID OPERATOR                          Ÿ
                                   13827              Ÿ                                                                     Ÿ
                                   13828              Ÿ  ON EXIT:                                                           Ÿ
                                   13829              Ÿ       R15 - CC=NZ, ERROR IS TSEG 'D                                 Ÿ
                                   13830              Ÿ                                                                     Ÿ
                                   13831              Ÿ  USED AS BINARY ROUTINE FOR OPERATORS THAT ARE INVALID AS           Ÿ
                                   13832              Ÿ  BINARY OPERATORS.  ROUTINE IS CALLED FROM EVLSTACK.                Ÿ
                                   13833              Ÿ                                                                     Ÿ
                                   13834              Ÿ                                                                     Ÿ
                                   13835              Ÿ                                                                     Ÿ
                                                      ¾þþþþþþþþþþþþþþþþþþþþþþþþþþþþþþþþþþþþþþþþþþþþþþþþþþþþþþþþþþþþþþþþþþþþþ»
00011A4 50E0 D000/9008_      00000 13836              BADBOP   PROC  ,
 USING  *,R7
                                   13875                       USING XSENTRY,R6
 0011BE 4110 71AC/4100_      0136A 13877                       TSEG  '"'
 0011D0 41F0 B050            00050 13895                       LA    R15,CPSEG
 0011D4 4110 600C/4100_      0000C 13896                       SEGT  XSOPCHAR,4
 0011E6 4110 717C/4100_      0133A 13926                       TSEG  '" is not a valid binary operator. '
 0011F8 41F0 0004            00004 13944                       LA    R15,4
 0011FC 18D8/9808 D004_            13945                       PEND  ,
 DROP   *,R7
1EVAL     (EVAL9204) (12:43) (15MAR04) EVALUATE EXPRESSION                                                                  Page   55
0Current Usings:  (XSENTRY,R6) (CP,R11) (CV,R12)
0Loc    Object Code    Addr1 Addr2  Stmt Lv Lineno    Source Statement           (Hibal 5, Asmedit 3.3)  HLASM R4.0  2004/03/15 12.43
+___    ______ ____    _____ _____  ____ __ ______    ______ _________
0                                  13966                       ¿þþþþþþþþþþþþþþþþþþþþþþþþþþþþþþþþþþþþþþþþþþþþþþþþþþþþþþþþþþþþÜ
                                   13967                       Ÿ  NOTE:                                                     Ÿ
                                   13968                       Ÿ   USER MAY ONLY SPECIFY NUMBERS TO F12.8 ACCURACY.         Ÿ
                                   13969                       Ÿ   NUMBER IS STORED AS PACKED DECIMAL OF F14.9 ACCURACCY.   Ÿ
                                   13970                       Ÿ   THE HIGHEST 2 DIGITS (F14 AND F13) ARE ALWAYS ZERO.      Ÿ
                                   13971                       Ÿ   ALL CALCULATIONS ON NUMBERS ARE OF F12.9 ACCURACY.       Ÿ
                                   13972                       Ÿ   THE ACCURACY OF THE LAST DIGIT (F.9) IS HIDDEN TO USER.  Ÿ
                                   13973                       Ÿ                                                            Ÿ
                                   13974                       ¾þþþþþþþþþþþþþþþþþþþþþþþþþþþþþþþþþþþþþþþþþþþþþþþþþþþþþþþþþþþþ»
 00120C                            13975                       DS    0F
                                   13976                       ENTRY PKZERO,PKONE
 00120C 0000000000000000           13977              PKZERO   DC    X'00000000000000000000000C'         F14.9
 001218 0000000000000100           13978              PKONE    DC    X'00000000000001000000000C'         F14.9
 001224 0000000000000000           13979              PK16ZERO DC    X'0000000000000000000000000000000C'
 001234 0000000000000000           13980              PK16ONE  DC    X'0000000000000000000001000000000C' F14.9
1EVAL     (EVAL9204) (12:43) (15MAR04) EVALUATE EXPRESSION                                                                  Page   56
0Current Usings:  (XSENTRY,R6) (CP,R11) (CV,R12)
0Loc    Object Code    Addr1 Addr2  Stmt Lv Lineno    Source Statement           (Hibal 5, Asmedit 3.3)  HLASM R4.0  2004/03/15 12.43
+___    ______ ____    _____ _____  ____ __ ______    ______ _________
0                                  13982                       QLTORG
1EVAL     (EVAL9204) (12:43) (15MAR04) EXPRESSION SCAN ROUTINES                                                             Page   57
0Current Usings:  (XSENTRY,R6) (CP,R11) (CV,R12)
0Loc    Object Code    Addr1 Addr2  Stmt Lv Lineno    Source Statement           (Hibal 5, Asmedit 3.3)  HLASM R4.0  2004/03/15 12.43
+___    ______ ____    _____ _____  ____ __ ______    ______ _________
0                                  14030              ¿þþþþþþþþþþþþþþþþþþþþþþþþþþþþþþþþþþþþþþþþþþþþþþþþþþþþþþþþþþþþþþþþþþþþþÜ
                                   14031              Ÿ                                                                     Ÿ
                                   14032              Ÿ                                                                     Ÿ
                                   14033              Ÿ  XXXSCAN - SCAN EXPRESSION                                          Ÿ
                                   14034              Ÿ                                                                     Ÿ
                                   14035              Ÿ  THIS ROUTINE SCANS THE NEXT ITEM IN THE EXPRESSION.                Ÿ
                                   14036              Ÿ  IF THE NEXT ITEM IS A OPERATOR OR A TERM, AN APPROPRIATE           Ÿ
                                   14037              Ÿ  EXPRESSION STACK ENTRY FOR THE ITEM IS GENERATED AND               Ÿ
                                   14038              Ÿ  PLACED AT THE EXPRESSION STACK.                                    Ÿ
                                   14039              Ÿ                                                                     Ÿ
                                   14040              Ÿ  THIS ROUTINE RECURSIVELY CALLS XXXEVAL.                            Ÿ
                                   14041              Ÿ                                                                     Ÿ
                                   14042              Ÿ  ON ENTRY:                                                          Ÿ
                                   14043              Ÿ       R0 - EXPRESSION STRING LENGTH                                 Ÿ
                                   14044              Ÿ       R1 - EXPRESSION STRING LOCATION                               Ÿ
                                   14045              Ÿ       R6 - EXPRESSION STACK POINTER                                 Ÿ
                                   14046              Ÿ                                                                     Ÿ
                                   14047              Ÿ  ON EXIT:                                                           Ÿ
                                   14048              Ÿ       R0 - REMAINING STRING LENGTH                                  Ÿ
                                   14049              Ÿ       R1 - REMAINING STRING ADDRESS                                 Ÿ
                                   14050              Ÿ       R6 - EXPRESSION STACK ENTRY POINTER (NOT CHANGED)             Ÿ
                                   14051              Ÿ            EXPRESSION ENTRY MAY BE ONE OF THE FOLLOWING:            Ÿ
                                   14052              Ÿ               A) OPERATOR                                           Ÿ
                                   14053              Ÿ               B) VALUE OF TERM                                      Ÿ
                                   14054              Ÿ               C) END OF EXPRESSION                                  Ÿ
                                   14055              Ÿ      R15 - CC=ZERO, IF SCAN OK                                      Ÿ
                                   14056              Ÿ            CC=NZ, IF ERROR... ERROR MSG TSEG 'D                     Ÿ
                                   14057              Ÿ                                                                     Ÿ
                                   14058              Ÿ       IF END OF EXPRESSION THEN R0=0 OR R1 POINTS TO ';'            Ÿ
                                   14059              Ÿ                                                                     Ÿ
                                   14060              Ÿ                                                                     Ÿ
                                                      ¾þþþþþþþþþþþþþþþþþþþþþþþþþþþþþþþþþþþþþþþþþþþþþþþþþþþþþþþþþþþþþþþþþþþþþ»
0001392 50E0 D000/9008_      00000 14061              XXXSCAN  PROC  ,          SCAN EXPRESSION
 USING  *,R7
                                   14100                       USING XSENTRY,R6
 0013AC D74F 6000 6000 00000 00000 14102                       CLEAR XSENTRY
 0013B2 1830                       14109                       LR    R3,R0               R3 - SCAN STRING LEN
 0013B4 1A01                       14110                       AR    R0,R1               R0 - END OF SCAN STR
 0013B6 1B22                       14111                       SR    R2,R2
 0013B8 1233/47D0 7020             14112                       IF    (R3,POS),BEGIN
 0013BE 0630/4430 7DBA_            14126  1                      DEX   R3,' TRT 0(0,R1),SCNTABLE'    SCAN LINE
 0013C4 4770 7020            013CC 14145  1                      IF    Z,BEGIN
 0013C8 1810                       14156  2                        LR    R1,R0
 0013CA 1B22                       14157  2                        SR    R2,R2
 0013CC                            14158  1                      END
 0013CC                            14162                       END
 0013CC 1B01                       14166                       SR    R0,R1               R1,R0 - REMAINING STR LOC,LEN
                                   14167              *  BALR REMOVED BY CH 02/91
                                   14168              *        L     R14,SCNRTNS(R2)     GET APPROPRIATE SCAN ROUTINE
                                   14169              *        BALR  R14,R14             "ACALL" SCAN ROUTINE
 0013CE 5920 7C74/4770_      02020 14170                       IF     (R2,EQ,00),'ACALL SCNBLANK'
 0013DC 7034/47F0 7042_013DC 013D4 14196                       ELSEIF (R2,EQ,04),'ACALL SCNBAD'
 0013EE 7046/47F0 7054_013EE 013E6 14231                       ELSEIF (R2,EQ,08),'ACALL SCNALPHA'
1EVAL     (EVAL9204) (12:43) (15MAR04) EXPRESSION SCAN ROUTINES                                                             Page   58
0Current Usings:  (XSENTRY,R6) (*,R7) (CP,R11) (CV,R12)
0Loc    Object Code    Addr1 Addr2  Stmt Lv Lineno    Source Statement           (Hibal 5, Asmedit 3.3)  HLASM R4.0  2004/03/15 12.43
+___    ______ ____    _____ _____  ____ __ ______    ______ _________
0001400 7058/47F0 7066_01400 013F8 14266                       ELSEIF (R2,EQ,12),'ACALL SCNNUMB'
 001412 706A/47F0 7078_01412 0140A 14301                       ELSEIF (R2,EQ,16),'ACALL SCNDOT'
                                   14336              *        ELSEIF (R2,EQ,20),'ACALL SCNHEX'
 001424 707C/47F0 708A_01424 0141C 14337                       ELSEIF (R2,EQ,24),'ACALL SCNSQ'
 001436 708E/47F0 709C_01436 0142E 14372                       ELSEIF (R2,EQ,28),'ACALL SCNDQ'
 001448 70A0/47F0 70AE_01448 01440 14407                       ELSEIF (R2,EQ,32),'ACALL SCNPLUS'
 00145A 70B2/47F0 70C0_0145A 01452 14442                       ELSEIF (R2,EQ,36),'ACALL SCNMINUS'
 00146C 70C4/47F0 70D2_0146C 01464 14477                       ELSEIF (R2,EQ,40),'ACALL SCNMULT'
 00147E 70D6/47F0 70E4_0147E 01476 14512                       ELSEIF (R2,EQ,44),'ACALL SCNDIV'
 001490 70E8/47F0 70F6_01490 01488 14547                       ELSEIF (R2,EQ,48),'ACALL SCNCAT'
 0014A2 70FA/47F0 7108_014A2 0149A 14582                       ELSEIF (R2,EQ,52),'ACALL SCNTILDA'
 0014B4 710C/47F0 711A_014B4 014AC 14617                       ELSEIF (R2,EQ,56),'ACALL SCNOP'
 0014C6 711E/47F0 712C_014C6 014BE 14652                       ELSEIF (R2,EQ,60),'ACALL SCNCP'
 0014D8 7130/47F0 713E_014D8 014D0 14687                       ELSEIF (R2,EQ,64),'ACALL SCNCOMMA'
 0014EA 7142/47F0 7150_014EA 014E2 14722                       ELSEIF (R2,EQ,68),'ACALL SCNSIMI'
                                   14757                       ¿þþþþþþþþþþþþþþþþþþþþþþþþþþþþþþþþþþþþþþþþþþþþþþþþþþþþþþþþþÜ
                                   14758                       Ÿ  ALL SCAN ROUTINES ARE CALLED WITH THE SAME ENTRY/EXIT  Ÿ
                                   14759                       Ÿ  AS XXXSCAN ROUTINES ABOVE.                             Ÿ
                                   14760                       ¾þþþþþþþþþþþþþþþþþþþþþþþþþþþþþþþþþþþþþþþþþþþþþþþþþþþþþþþþþ»
 0014FC 9001 8004            00004 14761                       PRETURN (R0,R1)
 001500 18D8/9808 D004_            14763                       PEND  ,
 DROP   *,R7
 DROP   XSENTRY,R6                 14783                       DROP  R6
1EVAL     (EVAL9204) (12:43) (15MAR04) EXPRESSION SCAN ROUTINES                                                             Page   59
0Current Usings:  (CP,R11) (CV,R12)
0Loc    Object Code    Addr1 Addr2  Stmt Lv Lineno    Source Statement           (Hibal 5, Asmedit 3.3)  HLASM R4.0  2004/03/15 12.43
+___    ______ ____    _____ _____  ____ __ ______    ______ _________
0                                  14791              *
                                   14792              *
                                   14793              * EXPRESSION SCAN TRT TABLE
                                   14794              *
                                   14795              *
 001510                            14796              SCNTABLE DS    0F                  SCAN TRT TABLE
 001510 0000000000000000           14797                       DC    256X'00'
 001610                            14798              SCNRTNS  DS    0F
 001610                01610 01510 14799                       ORG   SCNTABLE            04 - DEFAULT IS ILLEGAL CHAR
 001510 0404040404040404           14800                       DC    256X'04'
 001610                01610 01550 14801                       ORG   SCNTABLE+C' '       00 - C' ' IS ONLY NON SPECIAL CHAR
 001550 00                         14802                       DC    X'00'
 001551                01551 01591 14803                       ORG   SCNTABLE+C'a'       08 - IS FOR ALL ALPHAS
 001591 0808080808080808           14804                       DC    9X'08'
 00159A                0159A 015A1 14805                       ORG   SCNTABLE+C'j'
 0015A1 0808080808080808           14806                       DC    9X'08'
 0015AA                015AA 015B2 14807                       ORG   SCNTABLE+C's'
 0015B2 0808080808080808           14808                       DC    8X'08'
 0015BA                015BA 015D1 14809                       ORG   SCNTABLE+C'A'
 0015D1 0808080808080808           14810                       DC    9X'08'
 0015DA                015DA 015E1 14811                       ORG   SCNTABLE+C'J'
 0015E1 0808080808080808           14812                       DC    9X'08'
 0015EA                015EA 015F2 14813                       ORG   SCNTABLE+C'S'
 0015F2 0808080808080808           14814                       DC    8X'08'
 0015FA                015FA 01600 14815                       ORG   SCNTABLE+C'0'       12 - IS FOR ALL NUMBERS
 001600 0C0C0C0C0C0C0C0C           14816                       DC    10X'0C'
 00160A                0160A 01610 14817                       ORG   SCNTABLE+256
                                   14818                       ¿þþþþþþþþþþþþþþÜ
                                   14819                       Ÿ  SCAN EQU'S  Ÿ
                                   14820                       ¾þþþþþþþþþþþþþþ»
                                   14821              NULL     EQU   0
                                   14822              ILLEGAL  EQU   4
                                   14823              ALPHA    EQU   8
                                   14824              NUMBER   EQU   12
                                   14825              * IF TESTING FOR OTHER MUST USE ... IF (RX,GE,OTHER)..
                                   14826              OTHER    EQU   16
                                   14827                       ¿þþþþþþþþþþþþþþþþþþþþþþþþþþþþþþþþþþþþþþþþþþþÜ
                                   14828                       Ÿ                                           Ÿ
                                   14829                       Ÿ  A SIMPLE SCAN CHAR/TABLE/ROUTINES MACRO  Ÿ
                                   14830                       ¾þþþþþþþþþþþþþþþþþþþþþþþþþþþþþþþþþþþþþþþþþþþ»
                                   14831                       MACRO
                                   14832                       SCNRTN &CHAR,&RTNOFF,&ROUTINE
                                   14833                       ORG   SCNTABLE+&CHAR
                                   14834                       DC    AL1(&RTNOFF)
                                   14835                       ORG   SCNRTNS+&RTNOFF
                                   14836                       DC    A(&ROUTINE)
                                   14837                       MEND
                                   14838                       ¿þþþþþþþþþþþþþþþþþÜ
                                   14839                       Ÿ  SCAN ROUTINES  Ÿ
                                   14840                       ¾þþþþþþþþþþþþþþþþþ»
 001610 00/000018A8    01610 01550 14841                       SCNRTN C' ',00,SCNBLANK    0 - BLANK
 001614 04/000018DA    01614 0157F 14846                       SCNRTN C'?',04,SCNBAD      4 - ILLEGALS
 001618 08/00001948    01618 015D1 14851                       SCNRTN C'A',08,SCNALPHA    8 - ALPHAS
 00161C 0C/00001C86    0161C 01600 14856                       SCNRTN C'0',12,SCNNUMB    12 - NUMBERS
1EVAL     (EVAL9204) (12:43) (15MAR04) EXPRESSION SCAN ROUTINES                                                             Page   60
0Current Usings:  (CP,R11) (CV,R12)
0Loc    Object Code    Addr1 Addr2  Stmt Lv Lineno    Source Statement           (Hibal 5, Asmedit 3.3)  HLASM R4.0  2004/03/15 12.43
+___    ______ ____    _____ _____  ____ __ ______    ______ _________
0001620 10/00001D92    01620 0155B 14861                       SCNRTN C'.',16,SCNDOT     .
                                   14866              *        SCNRTN C'#',20,SCNHEX     #
 001624 18/00001E66    01624 0158D 14867                       SCNRTN C'''',24,SCNSQ     '    STRINGS
 00162C 1C/00001F28    0162C 0158F 14872                       SCNRTN C'"',28,SCNDQ      "
 001630 20/00002210    01630 0155E 14877                       SCNRTN C'+',32,SCNPLUS    +    OPERATORS
 001634 24/00002270    01634 01570 14882                       SCNRTN C'-',36,SCNMINUS   -
 001638 28/000022D0    01638 0156C 14887                       SCNRTN C'*',40,SCNMULT    *    (THIS IS ALSO CURRENT LINE)
 00163C 2C/0000239C    0163C 01571 14892                       SCNRTN C'/',44,SCNDIV     /
 001640 30/000023FC    01640 0155F 14897                       SCNRTN C'|',48,SCNCAT     |
 001644 34/00002478    01644 0156F 14902                       SCNRTN C'~',52,SCNTILDA   ~
 001648 38/00002768    01648 0155D 14907                       SCNRTN C'(',56,SCNOP      (    PARENTHESIS
 00164C 3C/00002834    0164C 0156D 14912                       SCNRTN C')',60,SCNCP      )
 001650 40/00002866    01650 0157B 14917                       SCNRTN C',',64,SCNCOMMA   ,    TERMINATORS
 001654 44/00002898    01654 0156E 14922                       SCNRTN C';',68,SCNSIMI    ;
 001658                01658 01658 14927                       ORG   SCNRTNS+68+4
1EVAL     (EVAL9204) (12:43) (15MAR04) EXPRESSION SCAN ROUTINES                                                             Page   61
0Current Usings:  (CP,R11) (CV,R12)
0Loc    Object Code    Addr1 Addr2  Stmt Lv Lineno    Source Statement           (Hibal 5, Asmedit 3.3)  HLASM R4.0  2004/03/15 12.43
+___    ______ ____    _____ _____  ____ __ ______    ______ _________
0                                  14929                       ¿þþþþþþþþþþþþþþþþþþþÜ
                                   14930                       Ÿ  TRT SCAN TABLES  Ÿ
                                   14931                       ¾þþþþþþþþþþþþþþþþþþþ»
 001658 0404040404040404           14932              TRTNAME  DC    256X'04'            TRT SCAN TABLE FOR NAMES
 001758                01758 016D9 14933                       ORG   TRTNAME+C'a'        ALL ALPHAS AND NUMBERS AND "_"
 0016D9 0000000000000000           14934                       DC    9X'00'                  VALID IN NAMES
 0016E2                016E2 016E9 14935                       ORG   TRTNAME+C'j'
 0016E9 0000000000000000           14936                       DC    9X'00'
 0016F2                016F2 016FA 14937                       ORG   TRTNAME+C's'
 0016FA 0000000000000000           14938                       DC    8X'00'
 001702                01702 01719 14939                       ORG   TRTNAME+C'A'
 001719 0000000000000000           14940                       DC    9X'00'
 001722                01722 01729 14941                       ORG   TRTNAME+C'J'
 001729 0000000000000000           14942                       DC    9X'00'
 001732                01732 0173A 14943                       ORG   TRTNAME+C'S'
 00173A 0000000000000000           14944                       DC    8X'00'
 001742                01742 01748 14945                       ORG   TRTNAME+C'0'
 001748 0000000000000000           14946                       DC    10X'00'
 001752                01752 016C5 14947                       ORG   TRTNAME+C'_'
 0016C5 00                         14948                       DC    X'00'
 0016C6                016C6 01758 14949                       ORG   TRTNAME+256
                                   14950
 001758 0404040404040404           14951              TRTNUMB  DC    256X'04'            TRT SCAN TABLE FOR NUMBERS
 001858                01858 01848 14952                       ORG   TRTNUMB+C'0'        0-9 IS VALID
 001848 0000000000000000           14953                       DC    10X'00'
 001852                01852 01858 14954                       ORG   TRTNUMB+256
1EVAL     (EVAL9204) (12:43) (15MAR04) EXPRESSION SCAN ROUTINES                                                             Page   62
0Current Usings:  (CP,R11) (CV,R12)
0Loc    Object Code    Addr1 Addr2  Stmt Lv Lineno    Source Statement           (Hibal 5, Asmedit 3.3)  HLASM R4.0  2004/03/15 12.43
+___    ______ ____    _____ _____  ____ __ ______    ______ _________
0                                  14956              ¿þþþþþþþþþþþþþþþþþþþþþþþþþþþþþþþþþþþþþþþþþþþþþþþþþþþþþþþþþþþþþþþþþþþþþÜ
                                   14957              Ÿ                                                                     Ÿ
                                   14958              Ÿ                                                                     Ÿ
                                   14959              Ÿ  SCNTYPE - SCAN A STRING UNTIL NON-BLANK, RETURN CHAR TYPE          Ÿ
                                   14960              Ÿ                                                                     Ÿ
                                   14961              Ÿ  ON ENTRY:                                                          Ÿ
                                   14962              Ÿ       R0 - LENGTH OF STRING                                         Ÿ
                                   14963              Ÿ       R1 - LOCATION OF STRING                                       Ÿ
                                   14964              Ÿ                                                                     Ÿ
                                   14965              Ÿ  ON EXIT:                                                           Ÿ
                                   14966              Ÿ       R0 - LENGTH OF REMAINING STRING                               Ÿ
                                   14967              Ÿ       R1 - LOCATION OF FIRST NON BLANK CHAR                         Ÿ
                                   14968              Ÿ      R15 - CHARACTER TYPE,                                          Ÿ
                                   14969              Ÿ            R15=ZERO IF NO NON-BLANK CHARS IN STRING,                Ÿ
                                   14970              Ÿ            R15=TYPE OF FIRST NON-BLANK CHARACTER IN STRING,         Ÿ
                                   14971              Ÿ                (MAY BE ALPHA, NUMBER, ILLEGAL, OR OTHER ...IF       Ÿ
                                   14972              Ÿ                TESTING FOR OTHER MUST USE ... IF (R15,GE,OTHER))    Ÿ
                                   14973              Ÿ                                                                     Ÿ
                                   14974              Ÿ                                                                     Ÿ
                                   14975              Ÿ                                                                     Ÿ
                                                      ¾þþþþþþþþþþþþþþþþþþþþþþþþþþþþþþþþþþþþþþþþþþþþþþþþþþþþþþþþþþþþþþþþþþþþþ»
0001858 50E0 D000/9008_      00000 14976              SCNTYPE  PROC  ,
 USING  *,R7
 001872 1A01                       15015                       AR    R0,R1               R0 - END OF STRING
                                   15016                       COMMENT                   R1 - START OF STRING
 001874 1B22                       15017                       SR    R2,R2               R2 - FUNCTION BYTE
 001876 1830                       15018                       LR    R3,R0               R3 - LENGTH OF STRING
 001878 1B31                       15019                       SR    R3,R1
 00187A 5840 7836            020A8 15020                       L     R4,=A(SCNTABLE)     R4 - SCAN TRT TABLE
 00187E 1233/47D0 7020             15021                       IF    (R3,POS),BEGIN
 001884 0630/4430 78FA_            15035  1                      DEX   R3,' TRT 0(0,R1),0(R4) '  SCAN LINE
 00188A 4770 7020            01892 15054  1                      IF    Z,BEGIN
 00188E 1810                       15065  2                        LR    R1,R0
 001890 1B22                       15066  2                        SR    R2,R2
 001892                            15067  1                      END
 001892                            15071                       END
 001892 18F2                       15075                       LR    R15,R2              RETURN CHARACTER TYPE
 001894 1B01                       15076                       SR    R0,R1               RETURN NEW STRING LOC, LEN
 001896 9001 8004            00004 15077                       PRETURN (R0,R1)
 00189A 18D8/9808 D004_            15079                       PEND  ,
 DROP   *,R7
1EVAL     (EVAL9204) (12:43) (15MAR04) EXPRESSION SCAN ROUTINES                                                             Page   63
0Current Usings:  (CP,R11) (CV,R12)
0Loc    Object Code    Addr1 Addr2  Stmt Lv Lineno    Source Statement           (Hibal 5, Asmedit 3.3)  HLASM R4.0  2004/03/15 12.43
+___    ______ ____    _____ _____  ____ __ ______    ______ _________
0                                  15100              ¿þþþþþþþþþþþþþþþþþþþþþþþþþþþþþþþþþþþþþþþþþþþþþþþþþþþþþþþþþþþþþþþþþþþþþÜ
                                   15101              Ÿ                                                                     Ÿ
                                   15102              Ÿ                                                                     Ÿ
                                   15103              Ÿ  SCNBLANK - SCANNED END OF LINE                                     Ÿ
                                   15104              Ÿ                                                                     Ÿ
                                   15105              Ÿ  PUT 'END OF EXPRESSION' ENTRY ON STACK @R6                         Ÿ
                                   15106              Ÿ  R0 IS ZERO.  R1 LEFT AS IS.                                        Ÿ
                                   15107              Ÿ  RETURN ZERO CC, ROUTINE CALLED BY XXXSCAN                          Ÿ
                                   15108              Ÿ                                                                     Ÿ
                                   15109              Ÿ  DETAILED ENTRY/EXIT CONVENTIONS SAME AS FOR XXXSCAN                Ÿ
                                   15110              Ÿ                                                                     Ÿ
                                   15111              Ÿ                                                                     Ÿ
                                                      ¾þþþþþþþþþþþþþþþþþþþþþþþþþþþþþþþþþþþþþþþþþþþþþþþþþþþþþþþþþþþþþþþþþþþþþ»
00018A8 50E0 D000/9008_      00000 15112              SCNBLANK PROC  ,
 USING  *,R7
 USING  XSENTRY,R6                 15151                       USING XSENTRY,R6
 0018C2 9204 6000      00000       15160                       SET   XSEND               SCANNED END OF LINE
 0018C6 1BFF                       15166                       CLEAR R15
 0018C8 9001 8004            00004 15170                       PRETURN (R0,R1)
 0018CC 18D8/9808 D004_            15172                       PEND  ,
 DROP   *,R7
 DROP   XSENTRY,R6                 15192                       DROP  R6
1EVAL     (EVAL9204) (12:43) (15MAR04) EXPRESSION SCAN ROUTINES                                                             Page   64
0Current Usings:  (CP,R11) (CV,R12)
0Loc    Object Code    Addr1 Addr2  Stmt Lv Lineno    Source Statement           (Hibal 5, Asmedit 3.3)  HLASM R4.0  2004/03/15 12.43
+___    ______ ____    _____ _____  ____ __ ______    ______ _________
0                                  15200              ¿þþþþþþþþþþþþþþþþþþþþþþþþþþþþþþþþþþþþþþþþþþþþþþþþþþþþþþþþþþþþþþþþþþþþþÜ
                                   15201              Ÿ                                                                     Ÿ
                                   15202              Ÿ                                                                     Ÿ
                                   15203              Ÿ  SCNBAD - SCANNED ILLEGAL CHARACTER                                 Ÿ
                                   15204              Ÿ                                                                     Ÿ
                                   15205              Ÿ  TSEG ERROR MESSAGE, RETURN NON-ZERO CC.                            Ÿ
                                   15206              Ÿ  ROUTINE CALLED BY XXXSCAN                                          Ÿ
                                   15207              Ÿ                                                                     Ÿ
                                   15208              Ÿ  DETAILED ENTRY/EXIT CONVENTIONS SAME AS FOR XXXSCAN                Ÿ
                                   15209              Ÿ                                                                     Ÿ
                                   15210              Ÿ                                                                     Ÿ
                                                      ¾þþþþþþþþþþþþþþþþþþþþþþþþþþþþþþþþþþþþþþþþþþþþþþþþþþþþþþþþþþþþþþþþþþþþþ»
00018DA 50E0 D000/9008_      00000 15211              SCNBAD   PROC  ,
 USING  *,R7
 0018F4 9001 D000/41D0_      00000 15250                       XPUSH R0,R1
 0018FC 4110 784E/4100_      02142 15253                       TSEG  'Invalid character "'
 00190E 4BD0 7834/9801_      02128 15271                       XPOP  R0,R1
 001916 4100 0001/41F0_      00001 15274                       TSEG  (R1),1
 001924 4110 7861/4100_      02155 15301                       TSEG  '" in expression. '
 001936 41F0 0004            00004 15319                       LA    R15,4
 00193A 18D8/9808 D004_            15320                       PEND  ,
 DROP   *,R7
1EVAL     (EVAL9204) (12:43) (15MAR04) EXPRESSION SCAN ROUTINES                                                             Page   65
0Current Usings:  (CP,R11) (CV,R12)
0Loc    Object Code    Addr1 Addr2  Stmt Lv Lineno    Source Statement           (Hibal 5, Asmedit 3.3)  HLASM R4.0  2004/03/15 12.43
+___    ______ ____    _____ _____  ____ __ ______    ______ _________
0                                  15341              ¿þþþþþþþþþþþþþþþþþþþþþþþþþþþþþþþþþþþþþþþþþþþþþþþþþþþþþþþþþþþþþþþþþþþþþÜ
                                   15342              Ÿ                                                                     Ÿ
                                   15343              Ÿ                                                                     Ÿ
                                   15344              Ÿ  SCNALPHA - SCANNED ALPHA CHARACTER                                 Ÿ
                                   15345              Ÿ                                                                     Ÿ
                                   15346              Ÿ  THIS ROUTINE IS A WORK HORSE !!                                    Ÿ
                                   15347              Ÿ  IT HANDLES ALL NAMES IN EXPRESSIONS. CASES HANDLED ARE AS          Ÿ
                                   15348              Ÿ  FOLLOWS:                                                           Ÿ
                                   15349              Ÿ       1. WORD OPERATORS (LT, GT, ..)                                Ÿ
                                   15350              Ÿ       2. RESERVED WORDS                                             Ÿ
                                   15351              Ÿ       3. VARIABLES (LOCAL/GLOBAL/SYSTEM)                            Ÿ
                                   15352              Ÿ       4. SYSTEM VARIABLES                                           Ÿ
                                   15353              Ÿ       5. SYSTEM FUNCTIONS                                           Ÿ
                                   15354              Ÿ       6. ETC.. ETC..                                                Ÿ
                                   15355              Ÿ  EACH NAME IS EVALUATED, AND A VALUE IS PLACED ON THE               Ÿ
                                   15356              Ÿ  EXPRESSION STACK.  THIS ROUTINE ESSENTIALLY JUST FIGURES           Ÿ
                                   15357              Ÿ  OUT WHAT THE NAME IS (EG. VARIABLE, FUNCTION, ETC ,,,)             Ÿ
                                   15358              Ÿ  AND THEN CALLS A ROUTINE TO GET THE VALUE OF THE SPECIFIED         Ÿ
                                   15359              Ÿ  NAME.                                                              Ÿ
                                   15360              Ÿ                                                                     Ÿ
                                   15361              Ÿ  THIS ROUTINE IS CALLED FROM XXXSCAN, AND CALLS SEVERAL             Ÿ
                                   15362              Ÿ  ROUTINES.                                                          Ÿ
                                   15363              Ÿ                                                                     Ÿ
                                   15364              Ÿ  ON ENTRY:                                                          Ÿ
                                   15365              Ÿ       R0 - LENGTH OF STRING                                         Ÿ
                                   15366              Ÿ       R1 - LOCATION OF STRING (R1 POINTS TO ALPHA)                  Ÿ
                                   15367              Ÿ       R6 - EXPRESSION STACK POINTER                                 Ÿ
                                   15368              Ÿ                                                                     Ÿ
                                   15369              Ÿ  ON EXIT:                                                           Ÿ
                                   15370              Ÿ       R0 - LENGTH OF REMAINING STRING                               Ÿ
                                   15371              Ÿ       R1 - LOCATION OF REMAINING STRING                             Ÿ
                                   15372              Ÿ       R6 - STACK ENTRY FOR NAME (A VALUE)                           Ÿ
                                   15373              Ÿ      R15 - CC=ZERO, IF OK                                           Ÿ
                                   15374              Ÿ            CC=NZ, IF ERROR,,, ERROR MSG TSEG'D                      Ÿ
                                   15375              Ÿ                                                                     Ÿ
                                   15376              Ÿ                                                                     Ÿ
                                   15377              Ÿ                                                                     Ÿ
                                                      ¾þþþþþþþþþþþþþþþþþþþþþþþþþþþþþþþþþþþþþþþþþþþþþþþþþþþþþþþþþþþþþþþþþþþþþ»
0000000                00000 00008 15378              SCNAWA   RECORD BEGIN
 000000                            15386  1           SCNAINFO   DS    2F                  LEN,LOC OF REMAINING SCAN STRING
 000008                00008 00008 15387                       END
                                   15396              ¿þþþþþþÜ
                                   15397              Ÿ      Ÿ
                                   15398              ¾þþþþþþ»
 001948 50E0 D000/9008_      00000 15399              SCNALPHA PROC  SCNAWA     SCAN A NAME
 USING  *,R7
 USING  SCNAWA-(4+36),R8
 USING  VNENTRY,R6                 15449                       USING VNENTRY,R6
 001962 1826                       15458                       LR    R2,R6
                                   15459
                                   15460                       COMMENT                   SCAN NAME
 001964 58E0 774E/0DEE       020B0 15461                       ACALL SCNVNAME
 00196A 9001 8028            00000 15465                       STM   R0,R1,SCNAINFO
1EVAL     (EVAL9204) (12:43) (15MAR04) EXPRESSION SCAN ROUTINES                                                             Page   66
0Current Usings:  (VNENTRY,R6) (*,R7) (SCNAWA-(4+36),R8) (CP,R11) (CV,R12)
0Loc    Object Code    Addr1 Addr2  Stmt Lv Lineno    Source Statement           (Hibal 5, Asmedit 3.3)  HLASM R4.0  2004/03/15 12.43
+___    ______ ____    _____ _____  ____ __ ______    ______ _________
0                                  15466                       COMMENT
 00196E 59F0 7752/4780_      020B4 15467                       IF    (R15,NE,0),BEGIN
 001976 4110 6000/4100_      00000 15484  1                      TSEG  VNNAME,L'VNNAME,T
 001988 4110 768E/4100_      01FF0 15514  1                      TSEG  ': invalid variable name.'
 00199A 41F0 0004            00004 15532  1                      LA    R15,4
 00199E 47F0 716E            01AD0 15533  1                      B     SCNADONE
 0019A2                            15534                       END
                                   15538
                                   15539                       COMMENT                   SCAN SUBSCRIPTS, IF ANY
 0019A2 9801 8028            00000 15540                       LM    R0,R1,SCNAINFO
 0019A6 4120 6000            00000 15541                       LA    R2,VNENTRY
 0019AA 58E0 775A/0DEE       020BC 15542                       ACALL XVLSUBS
 0019B0 4770 716E            01AD0 15546                       BNZ   SCNADONE
 0019B4 9001 8028            00000 15547                       STM   R0,R1,SCNAINFO
                                   15548
                                   15549                       COMMENT                   CHECK FOR/PROCESS RESERVED WORDS
 0019B8 9500 6010/4770_00010       15550                       IF    ((VNPREFIX,EQ,0),AND,(VNASUB1,EQ,0)),BEGIN
 0019CA 4120 6000            00000 15585  1                      LA    R2,VNENTRY
 0019CE 58E0 775E/0DEE       020C0 15586  1                      ACALL SCNWOPER            SCAN FOR OPERATORS (EG. LE, EQ..)
 0019D4 4780 716E            01AD0 15590  1                      BZ    SCNADONE
 0019D8 1BFF                       15591  1                      CLEAR R15
 0019DA 9801 8028            00000 15595  1                      LM    R0,R1,SCNAINFO      SCAN FOR EXCEPTIONS,
 0019DE 4120 6000            00000 15596  1                      LA    R2,VNENTRY           (IE. HEX CONSTANTS, EG.  S'E6C4')
 0019E2 58E0 7762/0DEE       020C4 15597  1                      ACALL SCNEXCPN
                                   15601  1                      COMMENT ,
 0019E8 4720 716E            01AD0 15602  1                      BP    SCNADONE
 0019EC 4770 7096            019F8 15603  1                      IF    Z,BEGIN
 0019F0 9001 8028            00000 15614  2                        STM   R0,R1,SCNAINFO
 0019F4 47F0 7160            01AC2 15615  2                        B     GOTXSVAL
 0019F8                            15616  1                      END
 0019F8 1BFF                       15620  1                      CLEAR R15
 0019FA                            15624                       END
                                   15628
                                   15629                       COMMENT                   CHECK FOR/PROCESS ARRAY ELEMENT
 0019FA D501 768A 6012_01FEC 00012 15630                       IF    (VNASUB1,NE,0),BEGIN
 001A04 1B00                       15648  1                      CLEAR R0
 001A06 4110 6000            00000 15652  1                      LA    R1,VNENTRY
 001A0A 4120 6000            00000 15653  1                      LA    R2,VNENTRY
 001A0E 58E0 7766/0DEE       020C8 15654  1                      VCALL GETARRAY
 001A14 4770 716E            01AD0 15658  1                      BNZ   SCNADONE
 001A18 47F0 7160            01AC2 15659  1                      B     GOTXSVAL
 001A1C                            15660                       END
                                   15664
                                   15665                       COMMENT ,                 CHECK FOR/PROCESS VARIABLE
                                   15666                       COMMENT ,                   (CHECKS LOCAL/GLOBAL/SYS VARS)
 001A1C 4110 6000            00000 15667                       LA    R1,VNENTRY
 001A20 4120 6000            00000 15668                       LA    R2,VNENTRY
 001A24 58E0 776A/0DEE       020CC 15669                       VCALL GETVAR              GET VARIABLE VALUE
 001A2A 4770 710A            01A6C 15673                       IF    Z,BEGIN             VARIABLE EXISTS !
 001A2E 58E0 776E/0DEE       020D0 15684  1                      ACALL ZAPINT3             *** ZAP INTEGER (** OLD N0-N9)
 001A34 9504 6020/4780_00020       15688  1                      IF    ~VNARRAY,BEGIN
 001A3C 47F0 7160            01AC2 15703  2                        B     GOTXSVAL
 001A40                            15704  1                      END
 001A40 9504 6020/4770_00020       15708  1                      IF    VNARRAY,BEGIN       IF ARRAY, OH NO !!
1EVAL     (EVAL9204) (12:43) (15MAR04) EXPRESSION SCAN ROUTINES                                                             Page   67
0Current Usings:  (VNENTRY,R6) (*,R7) (SCNAWA-(4+36),R8) (CP,R11) (CV,R12)
0Loc    Object Code    Addr1 Addr2  Stmt Lv Lineno    Source Statement           (Hibal 5, Asmedit 3.3)  HLASM R4.0  2004/03/15 12.43
+___    ______ ____    _____ _____  ____ __ ______    ______ _________
0001A48 4120 6000            00000 15723  2                        LA    R2,VNENTRY
 001A4C 58E0 7772/0DEE       020D4 15724  2                        VCALL SEGVNAME
 001A52 4110 77C8/4100_      0212A 15728  2                        TSEG  ': missing subscripts. '
 001A64 41F0 0004            00004 15746  2                        LA    R15,4
 001A68 47F0 716E            01AD0 15747  2                        B     SCNADONE
 001A6C                            15748  1                      END
 001A6C                            15752                       END
                                   15756
                                   15757                       COMMENT                   CHECK EXPLICITLY IF SYSTEM VAR
                                   15758                       COMMENT ,                 (THIS IS A DEFAULT CASE)
 001A6C 4110 6000            00000 15759                       LA    R1,VNENTRY
 001A70 4120 6000            00000 15760                       LA    R2,VNENTRY
 001A74 58E0 7776/0DEE       020D8 15761                       VCALL GETSVAR
 001A7A 4780 7160            01AC2 15765                       BZ    GOTXSVAL
                                   15766
                                   15767                       COMMENT                   IF NOT VARIABLE,
                                   15768                       COMMENT                      CHECK IF FUNCTION
 001A7E 9500 6010/4780_00010       15769                       IF    (VNPREFIX,NE,0),BEGIN
 001A86 58E0 777A/0DEE       020DC 15787  1                      ACALL UNDEFD
 001A8C 47F0 716E            01AD0 15791  1                      B     SCNADONE            PREFIXES INVALID FOR FUNCTIONS
 001A90                            15792                       END
                                   15796
                                   15797                       COMMENT                   CHECK IF USER FUNCTION
                                   15798                       COMMENT
                                   15799                       COMMENT ,                 (NOT YET IMPLEMENTED)
                                   15800                       COMMENT
                                   15801
                                   15802                       COMMENT                   CHECK IF SYSTEM FUNCTION
 001A90 4110 6000            00000 15803                       LA    R1,VNENTRY
 001A94 4120 6000            00000 15804                       LA    R2,VNENTRY
 001A98 58E0 777E/0DEE       020E0 15805                       ACALL GETSYSFN
 001A9E 4770 7156            01AB8 15809                       IF    Z,BEGIN
 001AA2 9801 8028            00000 15820  1                      LM    R0,R1,SCNAINFO
 001AA6 58E0 7782/0DEE       020E4 15821  1                      ACALL XVLSYSFN
 001AAC 4770 716E            01AD0 15825  1                      BNZ   SCNADONE
 001AB0 9001 8028            00000 15826  1                      STM   R0,R1,SCNAINFO
 001AB4 47F0 7160            01AC2 15827  1                      B     GOTXSVAL
 001AB8                            15828                       END
                                   15832                       ¿þþþþþþþþþþþþþþþþþþþþþþþþþþþþþþþþþÜ
                                   15833                       Ÿ  ANYTHING ELSE IS UNDEFINED !!  Ÿ
                                   15834                       ¾þþþþþþþþþþþþþþþþþþþþþþþþþþþþþþþþþ»
 001AB8 58E0 777A/0DEE       020DC 15835                       ACALL UNDEFD
 001ABE 47F0 716E            01AD0 15839                       B     SCNADONE
0                                  15841                       ¿þþþþþþþþþþþþþþþþþþþþþÜ
                                   15842                       Ÿ  SCANNED A VALUE !  Ÿ
                                   15843                       ¾þþþþþþþþþþþþþþþþþþþþþ»
 001AC2                            15844              GOTXSVAL LABEL ,                   GOT VALUE, SET STACK FLAGS
 001AC2 D70F 6000 6000 00000 00000 15846                       CLEAR VNNAME              CLEAR NAME FIELD
 DROP   VNENTRY,R6                 15853                       WITH  (XSENTRY,R6),BEGIN
 USING  XSENTRY,R6
 001AC8 9202 6000      00000       15870  1                      SET   XSVAL               WE PUT A VALUE ON EXPR STACK
 DROP   XSENTRY,R6                 15876                       END   , WITH (XSENTRY,R6)
 USING  VNENTRY,R6
1EVAL     (EVAL9204) (12:43) (15MAR04) EXPRESSION SCAN ROUTINES                                                             Page   68
0Current Usings:  (VNENTRY,R6) (*,R7) (SCNAWA-(4+36),R8) (CP,R11) (CV,R12)
0Loc    Object Code    Addr1 Addr2  Stmt Lv Lineno    Source Statement           (Hibal 5, Asmedit 3.3)  HLASM R4.0  2004/03/15 12.43
+___    ______ ____    _____ _____  ____ __ ______    ______ _________
0001ACC 47F0 716E            01AD0 15891                       B     SCNADONE
0                                  15893                       ¿þþþþþþþþþÜ
                                   15894                       Ÿ  DONE.  Ÿ
                                   15895                       ¾þþþþþþþþþ»
 001AD0                            15896              SCNADONE LABEL ,                   DONE, RETURN TO CALLER
 001AD0 9801 8028            00000 15898                       LM    R0,R1,SCNAINFO
 001AD4 9001 8004            00004 15899                       PRETURN (R0,R1)
 001AD8 18D8/9808 D004_            15901                       PEND  ,
 DROP   SCNAWA-(4+36),R8
 DROP   *,R7
 DROP   VNENTRY,R6                 15926                       DROP  R6
1EVAL     (EVAL9204) (12:43) (15MAR04) EXPRESSION SCAN ROUTINES                                                             Page   69
0Current Usings:  (CP,R11) (CV,R12)
0Loc    Object Code    Addr1 Addr2  Stmt Lv Lineno    Source Statement           (Hibal 5, Asmedit 3.3)  HLASM R4.0  2004/03/15 12.43
+___    ______ ____    _____ _____  ____ __ ______    ______ _________
0                                  15934              ¿þþþþþþþþþþþþþþþþþþþþþþþþþþþþþþþþþþþþþþþþþþþþþþþþþþþþþþþþþþþþþþþþþþþþþÜ
                                   15935              Ÿ                                                                     Ÿ
                                   15936              Ÿ                                                                     Ÿ
                                   15937              Ÿ  SCNVNAME - SCAN VARIABLE NAME                                      Ÿ
                                   15938              Ÿ                                                                     Ÿ
                                   15939              Ÿ  ON ENTRY:                                                          Ÿ
                                   15940              Ÿ       R0 - STRING LENGTH                                            Ÿ
                                   15941              Ÿ       R1 - STRING START                                             Ÿ
                                   15942              Ÿ       R2 - VARIABLE NAME (DESCRIPTOR) FIELD.  SEE VNENTRY DSECT.    Ÿ
                                   15943              Ÿ                                                                     Ÿ
                                   15944              Ÿ  ON EXIT:                                                           Ÿ
                                   15945              Ÿ       R0 - LENGTH OF REMAINING STRING                               Ÿ
                                   15946              Ÿ       R1 - ADDRESS OF REMAINING STRING                              Ÿ
                                   15947              Ÿ       R2 - VARIABLE ENTRY AREA, CONTAINING NAME                     Ÿ
                                   15948              Ÿ            IN UPPER CASE LEFT JUSTIFIED WITH BLANKS                 Ÿ
                                   15949              Ÿ      R15 - 0 IF NAME OK,  CC IS SET BASED ON R15                    Ÿ
                                   15950              Ÿ           -4 BLANK STRING (NO NAME)                                 Ÿ
                                   15951              Ÿ            4 IF NAME INVALID, (INVALID NAME @R2)                    Ÿ
                                   15952              Ÿ                                                                     Ÿ
                                   15953              Ÿ                                                                     Ÿ
                                   15954              Ÿ  NOTE: THIS ROUTINE CLEARS ALL VARIABLE NAME (DESCRIPTOR)           Ÿ
                                   15955              Ÿ        FIELDS.  THEN SETS THE VARIABLE NAME AND PREFIX              Ÿ
                                   15956              Ÿ        FLAG FIELDS.                                                 Ÿ
                                   15957              Ÿ                                                                     Ÿ
                                   15958              Ÿ                                                                     Ÿ
                                   15959              Ÿ                                                                     Ÿ
                                                      ¾þþþþþþþþþþþþþþþþþþþþþþþþþþþþþþþþþþþþþþþþþþþþþþþþþþþþþþþþþþþþþþþþþþþþþ»
0001AE6 50E0 D000/9008_      00000 15960              SCNVNAME XPROC ,
 USING  *,R7
 USING  VNENTRY,R6                 16000                       USING VNENTRY,R6
 001B00 1862                       16009                       LR    R6,R2
 001B02 D71F 6000 6000 00000 00000 16010                       CLEAR VNDESC              ZERO OUT VARIABLE ENTRY
 001B08 D20F 6000 C4D8 00000 004D8 16017                       MVC   VNNAME(L'VNNAME),CVBLANKS      BLANK OUT NAME
                                   16018
                                   16019                       COMMENT                   SCAN FOR FIRST ALPHA CHAR
 001B0E 58E0 75E8/0DEE       020E8 16020                       ACALL SCNTYPE
 001B14 12FF/4770 701E             16024                       IF    (R15,Z),BEGIN
 001B1A 47F0 7164            01C64 16038  1                      B     NONAME
 001B1E                            16039                       END
 001B1E 955E 1000/4770_00000       16043                       IF    (@R1,EQ,';'),BEGIN
 001B26 47F0 7164            01C64 16059  1                      B     NONAME
 001B2A                            16060                       END
 001B2A 59F0 75EC/4780_      020EC 16064                       IF    (R15,NE,ALPHA),BEGIN
 001B32 D200 6000 1000 00000 00000 16081  1                      MVC   VNNAME(1),0(R1)
 001B38 47F0 716C            01C6C 16082  1                      B     BADNAME
 001B3C                            16083                       END
                                   16087              *
                                   16088              *
                                   16089                       COMMENT                   SCAN FOR NAME
                                   16090                       COMMENT
 001B3C 1841                       16091                       LR    R4,R1               R4 - START OF NAME
 001B3E 1830                       16092                       LR    R3,R0               R3 - LENGTH TO SCAN
 001B40 1B22                       16093                       SR    R2,R2               R2 - FUNCTION BYTE
1EVAL     (EVAL9204) (12:43) (15MAR04) EXPRESSION SCAN ROUTINES                                                             Page   70
0Current Usings:  (VNENTRY,R6) (*,R7) (CP,R11) (CV,R12)
0Loc    Object Code    Addr1 Addr2  Stmt Lv Lineno    Source Statement           (Hibal 5, Asmedit 3.3)  HLASM R4.0  2004/03/15 12.43
+___    ______ ____    _____ _____  ____ __ ______    ______ _________
0                                  16094                       COMMENT                   R1 - START OF STRING (NAME)
 001B42 1A01                       16095                       AR    R0,R1               R0 - END OF STRING
 001B44 58E0 75F0            020F0 16096                       L     R14,=A(TRTNAME)     R14 - NAME TRT SCAN TABLE
                                   16097                       COMMENT
 001B48 1233/47D0 705C             16098                       IF    (R3,POS),BEGIN
 001B4E 0630/4430 7672_            16112  1                      DEX   R3,' TRT 0(0,R1),0(R14) '   SCAN TO END OF NAME
 001B54 4770 705C            01B5C 16131  1                      IF    Z,BEGIN
 001B58 1810                       16142  2                        LR    R1,R0
 001B5A 1B22                       16143  2                        SR    R2,R2
 001B5C                            16144  1                      END
 001B5C                            16148                       END
                                   16152
                                   16153                       COMMENT                   SAVE VARIABLE NAME IN UPPER CASE
                                   16154                       COMMENT
 001B5C 1831                       16155                       LR    R3,R1               CALC VARIABLE NAME LENGTH (IN R3)
 001B5E 1B34                       16156                       SR    R3,R4
 001B60 5930 75F4            020F4 16157                       C     R3,=AL4(L'VNNAME)
 001B64 47D0 707C            01B7C 16158                       IF    GT,BEGIN            IF NAME TOO LONG, ...
 001B68 D20F 6000 4000 00000 00000 16169  1                      MVC   VNNAME(L'VNNAME),0(R4)
 001B6E 5820 C8A8            008A8 16170  1                      L     R2,CVUPPTBL
 001B72 DC0F 6000 2000 00000 00000 16171  1                      TR    VNNAME(L'VNNAME),0(R2)
 001B78 47F0 716C            01C6C 16172  1                      B     BADNAME
 001B7C                            16173                       END
 001B7C 1233/4770 7084             16177                       IF    (R3,Z),BEGIN        IF NAME TOO SHORT, ..IMPOSIBLE
 001B82 0000                       16191  1                      BOMB
 001B84                            16193                       END
                                   16197                       COMMENT                   NAME OK, SAVE IT IN UPPER CASE
 001B84 0630/4430 7678_            16198                       DEX   R3,' MVC VNNAME(0),0(R4) '
 001B8A 5820 C8A8            008A8 16217                       L     R2,CVUPPTBL
 001B8E 4430 767E/DC00_      0217E 16218                       EX    R3,' TR VNNAME(0),0(R2) '
                                   16234
                                   16235                       COMMENT                   CHECK IF NAME PREFIX
                                   16236                       COMMENT
 001B92 1B01                       16237                       SR    R0,R1               RETURN R1,R0 REMAINING LOC, LEN
 001B94 1BFF                       16238                       CLEAR R15                 RETURN R15 CC
 001B96 1200/4780 7174_            16242                       IF    ((R0,Z),OR,(@R1,NE,'.')),NAMEDONE     IF NONE, DONE
                                   16274              *
                                   16275              *
                                   16276                       COMMENT                   PROCESS NAME PREFIX
 001BA4 1831                       16277                       LR    R3,R1
 001BA6 1B34                       16278                       SR    R3,R4
 001BA8 4133 6000            00000 16279                       LA    R3,VNNAME(R3)
 001BAC 924B 3000      00000       16280                       MVI   0(R3),C'.'          STICK '.' AT END OF NAME
 001BB0 4111 0001            00001 16281                       LA    R1,1(R1)
 001BB4 0600                       16282                       BCTR  R0,0                SKIP '.'
 001BB6 4120 6000            00000 16283                       LA    R2,VNNAME
 001BBA D501 7640 2000_02140 00000 16284                       IF    (@R2,EQ,'X.'),BEGIN
 001BC4 9201 6010      00010       16300  1                      SET   VNPFX
 001BC8                            16306                       END
 001BC8 D503 75F8 2000_020F8 00000 16310                       IF    (@R2,EQ,'GBL.'),BEGIN
 001BD2 9202 6010      00010       16326  1                      SET   VNPFGBL
 001BD6                            16332                       END
 001BD6 D503 75FC 2000_020FC 00000 16336                       IF    (@R2,EQ,'SYS.'),BEGIN
 001BE0 9203 6010      00010       16352  1                      SET   VNPFSYS
1EVAL     (EVAL9204) (12:43) (15MAR04) EXPRESSION SCAN ROUTINES                                                             Page   71
0Current Usings:  (VNENTRY,R6) (*,R7) (CP,R11) (CV,R12)
0Loc    Object Code    Addr1 Addr2  Stmt Lv Lineno    Source Statement           (Hibal 5, Asmedit 3.3)  HLASM R4.0  2004/03/15 12.43
+___    ______ ____    _____ _____  ____ __ ______    ______ _________
0001BE4                            16358                       END
 001BE4 D503 7600 2000_02100 00000 16362                       IF    (@R2,EQ,'SES.'),BEGIN
 001BEE 9204 6010      00010       16378  1                      SET   VNPFSES
 001BF2                            16384                       END
 001BF2 D503 7604 2000_02104 00000 16388                       IF    (@R2,EQ,'PUB.'),BEGIN
 001BFC 9205 6010      00010       16404  1                      SET   VNPFPUB
 001C00                            16410                       END
 001C00 9500 6010/4780_00010       16414                       IF    (VNPREFIX,EQ,0),BADNAME    IF NO VALID PREXIX --> ERR
                                   16435
                                   16436                       COMMENT                   RESCAN VARIABLE NAME
                                   16437                       COMMENT
 001C08 1841                       16438                       LR    R4,R1               R4 - START OF NAME
 001C0A 1830                       16439                       LR    R3,R0               R3 - LENGTH TO SCAN
 001C0C 1B22                       16440                       SR    R2,R2               R2 - FUNCTION BYTE
                                   16441                       COMMENT                   R1 - START OF STRING (NAME)
 001C0E 1A01                       16442                       AR    R0,R1               R0 - END OF STRING
 001C10 58E0 75F0            020F0 16443                       L     R14,=A(TRTNAME)     R14 - NAME TRT SCAN TABLE
                                   16444                       COMMENT
 001C14 1233/47D0 716C             16445                       IF    (R3,NP),BADNAME
 001C1A 0630/4430 7684_            16462                       DEX   R3,' TRT 0(0,R1),0(R14) '   SCAN TO END OF NAME
 001C20 4770 7128            01C28 16481                       IF    Z,BEGIN
 001C24 1810                       16492  1                      LR    R1,R0
 001C26 1B22                       16493  1                      SR    R2,R2
 001C28                            16494                       END
                                   16498
                                   16499                       COMMENT                   SAVE VARIABLE NAME IN UPPER CASE
                                   16500                       COMMENT
 001C28 1831                       16501                       LR    R3,R1               CALC VARIABLE NAME LENGTH (IN R3)
 001C2A 1B34                       16502                       SR    R3,R4
 001C2C 5930 75F4            020F4 16503                       C     R3,=AL4(L'VNNAME)
 001C30 47D0 713E            01C3E 16504                       IF    GT,BEGIN            IF NAME TOO LONG, ...
 001C34 D20F 6000 4000 00000 00000 16515  1                      MVC   VNNAME(L'VNNAME),0(R4)
 001C3A 47F0 716C            01C6C 16516  1                      B     BADNAME
 001C3E                            16517                       END
 001C3E 1233/4770 7148             16521                       IF    (R3,Z),BEGIN        IF NAME TOO SHORT, BARE PREFIX
 001C44 47F0 716C            01C6C 16535  1                      B     BADNAME
 001C48                            16536                       END
                                   16540                       COMMENT                   NAME OK, SAVE IT IN UPPER CASE
 001C48 D20F 6000 C4D8 00000 004D8 16541                       MVC   VNNAME,CVBLANKS
 001C4E 0630/4430 768A_            16542                       DEX   R3,' MVC VNNAME(0),0(R4) '
 001C54 5820 C8A8            008A8 16561                       L     R2,CVUPPTBL
 001C58 4430 7690/DC00_      02190 16562                       EX    R3,' TR VNNAME(0),0(R2) '
 001C5C 1B01                       16578                       SR    R0,R1               RETURN R1,R0 REMAINING LOC, LEN
 001C5E 1BFF                       16579                       CLEAR R15                 RETURN R15 CC
 001C60 47F0 7174            01C74 16583                       B     NAMEDONE
                                   16584              *
                                   16585              * EXITS
                                   16586              *
 001C64                            16587              NONAME   LABEL ,
 001C64 58F0 7608            02108 16589                       L     R15,=F'-4'
 001C68 47F0 7174            01C74 16590                       B     NAMEDONE
                                   16591
 001C6C                            16592              BADNAME  LABEL ,
 001C6C 41F0 0004            00004 16594                       LA    R15,4
1EVAL     (EVAL9204) (12:43) (15MAR04) EXPRESSION SCAN ROUTINES                                                             Page   72
0Current Usings:  (VNENTRY,R6) (*,R7) (CP,R11) (CV,R12)
0Loc    Object Code    Addr1 Addr2  Stmt Lv Lineno    Source Statement           (Hibal 5, Asmedit 3.3)  HLASM R4.0  2004/03/15 12.43
+___    ______ ____    _____ _____  ____ __ ______    ______ _________
0001C70 47F0 7174            01C74 16595                       B     NAMEDONE
                                   16596
 001C74                            16597              NAMEDONE LABEL ,
 001C74 9001 8004            00004 16599                       PRETURN (R0,R1)
 001C78 18D8/9808 D004_            16601                       PEND  ,
 DROP   *,R7
 DROP   VNENTRY,R6                 16621                       DROP  R6
1EVAL     (EVAL9204) (12:43) (15MAR04) EXPRESSION SCAN ROUTINES                                                             Page   73
0Current Usings:  (CP,R11) (CV,R12)
0Loc    Object Code    Addr1 Addr2  Stmt Lv Lineno    Source Statement           (Hibal 5, Asmedit 3.3)  HLASM R4.0  2004/03/15 12.43
+___    ______ ____    _____ _____  ____ __ ______    ______ _________
0                                  16629              ¿þþþþþþþþþþþþþþþþþþþþþþþþþþþþþþþþþþþþþþþþþþþþþþþþþþþþþþþþþþþþþþþþþþþþþÜ
                                   16630              Ÿ                                                                     Ÿ
                                   16631              Ÿ                                                                     Ÿ
                                   16632              Ÿ  SCNNUMB - SCAN A NUMBER                                            Ÿ
                                   16633              Ÿ                                                                     Ÿ
                                   16634              Ÿ                                                                     Ÿ
                                   16635              Ÿ  ON ENTRY:                                                          Ÿ
                                   16636              Ÿ       R0 - LENGTH OF STRING                                         Ÿ
                                   16637              Ÿ       R1 - LOCATION OF STRING (R1 MUST POINT AT NUMERIC)            Ÿ
                                   16638              Ÿ       R6 - EXPRESSION STACK POINTER                                 Ÿ
                                   16639              Ÿ                                                                     Ÿ
                                   16640              Ÿ  ON EXIT:                                                           Ÿ
                                   16641              Ÿ       R0 - LENGTH OF REMAINING STRING                               Ÿ
                                   16642              Ÿ       R1 - LOCATION OF REMAINING STRING                             Ÿ
                                   16643              Ÿ       R6 - POINTS TO NEW EXPRESSION STACK ENTRY                     Ÿ
                                   16644              Ÿ                                                                     Ÿ
                                   16645              Ÿ  NOTE: USER MAY ONLY SPECIFY NUMBERS TO F12.8 ACCURACY.             Ÿ
                                   16646              Ÿ  NUMBER IS STORED AS PACKED DECIMAL OF F14.9 ACCURACCY.             Ÿ
                                   16647              Ÿ                                                                     Ÿ
                                   16648              Ÿ                                                                     Ÿ
                                                      ¾þþþþþþþþþþþþþþþþþþþþþþþþþþþþþþþþþþþþþþþþþþþþþþþþþþþþþþþþþþþþþþþþþþþþþ»
0000000                00000 00018 16649              SCNNWA   RECORD BEGIN ,,
 000000                            16657  1           SCNNWORK   DS    CL24                WORK AREA
 000018                00018 00018 16658                       END
                                   16667              *
                                   16668              *
 001C86 50E0 D000/9008_      00000 16669              SCNNUMB  PROC  SCNNWA
 USING  *,R7
 USING  SCNNWA-(4+36),R8
 USING  XSENTRY,R6                 16719                       USING XSENTRY,R6
 001CA0 D217 8028 7368 00000 02008 16728                       MVC   SCNNWORK(24),=C'000000000000000000000000'
 001CA6 9202 6000      00000       16729                       SET   XSVAL
 001CAA 9202 6020      00020       16735                       SET   XSNUMB
                                   16741                       ¿þþþþþþþþþþþþþþþþþþþþþþþþþþþþþþþþÜ
                                   16742                       Ÿ  PROCESS WHOLE PART OF NUMBER  Ÿ
                                   16743                       ¾þþþþþþþþþþþþþþþþþþþþþþþþþþþþþþþþ»
 001CAE 1841                       16744                       LR    R4,R1               R4 - START OF NUMBER
 001CB0 1830                       16745                       LR    R3,R0               R3 - LENGTH TO SCAN
 001CB2 1B22                       16746                       SR    R2,R2               R2 - FUNCTION BYTE
                                   16747                       COMMENT                   R1 - ADDRESS OF STRING TO SCAN
 001CB4 1A01                       16748                       AR    R0,R1               R0 - END OF STRING TO SCAN
 001CB6 58E0 746C            0210C 16749                       L     R14,=A(TRTNUMB)     R14 - NUMBER TRT SCAN TABLE
                                   16750                       COMMENT
 001CBA 1233/47D0 702E             16751                       IF    (R3,POS),BEGIN
 001CC0 0630/4430 74F6_            16765  1                      DEX   R3,' TRT 0(0,R1),0(R14)  '    SCAN WHOLE PART
 001CC6 4770 702E            01CCE 16784  1                      IF    Z,BEGIN
 001CCA 1810                       16795  2                        LR    R1,R0
 001CCC 1B22                       16796  2                        SR    R2,R2
 001CCE                            16797  1                      END
 001CCE                            16801                       END
 001CCE 1851                       16805                       LR    R5,R1               R5 - ADDR OF POSSIBLE DECIMAL PART
 001CD0 1B14                       16806                       SR    R1,R4               R1 - LENGTH OF WHOLE PART
 001CD2 5910 7398/47D0_      02038 16807                       IF    (R1,GT,12),BEGIN
1EVAL     (EVAL9204) (12:43) (15MAR04) EXPRESSION SCAN ROUTINES                                                             Page   74
0Current Usings:  (XSENTRY,R6) (*,R7) (SCNNWA-(4+36),R8) (CP,R11) (CV,R12)
0Loc    Object Code    Addr1 Addr2  Stmt Lv Lineno    Source Statement           (Hibal 5, Asmedit 3.3)  HLASM R4.0  2004/03/15 12.43
+___    ______ ____    _____ _____  ____ __ ______    ______ _________
0001CDA 58E0 7470/0DEE       02110 16824  1                      ACALL OVERFLOW
 001CE0 47F0 70E0            01D80 16828  1                      B     SCNNDONE
 001CE4                            16829                       END
 001CE4 4130 000E            0000E 16833                       LA    R3,14
 001CE8 1B31                       16834                       SR    R3,R1
 001CEA 4133 8028            00000 16835                       LA    R3,SCNNWORK(R3)
 001CEE 0610/4410 74FC_            16836                       DEX   R1,' MVC 0(0,R3),0(R4) '     MOVE WHOLE NUMBER PART
 001CF4 1815                       16855                       LR    R1,R5
 001CF6 1B01                       16856                       SR    R0,R1               R1,R0 - LOC,LEN OF REMAINDER
                                   16857                       ¿þþþþþþþþþþþþþþþþþþþþþþþþþþþþþþþþþþþþþþþþþþþþþÜ
                                   16858                       Ÿ  PROCESS FRACTIONAL PART OF NUMBER, IF ANY  Ÿ
                                   16859                       ¾þþþþþþþþþþþþþþþþþþþþþþþþþþþþþþþþþþþþþþþþþþþþþ»
                                   16860                       COMMENT                   R1 - DECIMAL PART, IF ANY
                                   16861                       COMMENT                   R0 - LENGTH LEFT TO SCAN
                                   16862                       COMMENT
 001CF8 58E0 7474/0DEE       02114 16863                       ACALL ZAPINT4             ** INTEGER ZAP (** OLD EXEC)
                                   16867                       COMMENT
 001CFE 954B 1000/4770_00000       16868                       IF    ((@R1,EQ,'.'),AND,(R0,POS)),BEGIN   IF FRACTIONAL PART
 001D0C 4111 0001            00001 16897  1                      LA    R1,1(R1)            SKIP DECIMAL POINT
 001D10 0600                       16898  1                      BCTR  R0,0
 001D12 1841                       16899  1                      LR    R4,R1               R4 - START OF NUMBER
 001D14 1830                       16900  1                      LR    R3,R0               R3 - LENGTH TO SCAN
 001D16 1B22                       16901  1                      SR    R2,R2               R2 - FUNCTION BYTE
                                   16902  1                      COMMENT                   R1 - ADDRESS OF STRING TO SCAN
 001D18 1A01                       16903  1                      AR    R0,R1               R0 - END OF STRING TO SCAN
 001D1A 58E0 746C            0210C 16904  1                      L     R14,=A(TRTNUMB)     R14 - NUMBER TRT SCAN TABLE
                                   16905  1                      COMMENT
 001D1E 1233/47D0 7092             16906  1                      IF    (R3,POS),BEGIN
 001D24 0630/4430 7502_            16920  2                        DEX   R3,' TRT 0(0,R1),0(R14)  '     SCAN DECIMAL PART
 001D2A 4770 7092            01D32 16939  2                        IF    Z,BEGIN
 001D2E 1810                       16950  3                          LR    R1,R0
 001D30 1B22                       16951  3                          SR    R2,R2
 001D32                            16952  2                        END
 001D32                            16956  1                      END
 001D32 1851                       16960  1                      LR    R5,R1               R5 - END OF NUMBER
 001D34 1B14                       16961  1                      SR    R1,R4               R1 - LENGTH OF NUMBER
 001D36 5910 7478/47D0_      02118 16962  1                      IF    (R1,GT,8),BEGIN
 001D3E 58E0 7470/0DEE       02110 16979  2                        ACALL OVERFLOW                   FRACTIONAL PART TOO BIG !!
 001D44 47F0 70E0            01D80 16983  2                        B     SCNNDONE
 001D48                            16984  1                      END
                                   16988  1                      COMMENT
 001D48 1211/47D0 70B4             16989  1                      IF    (R1,POS),BEGIN
 001D4E 0610/4410 7508_            17003  2                        DEX   R1,' MVC SCNNWORK+14(0),0(R4) '
 001D54                            17022  1                      END
 001D54 1815                       17026  1                      LR    R1,R5               R1,R0 - LOC,LEN OF REMAINDER
 001D56 1B01                       17027  1                      SR    R0,R1
 001D58                            17028                       END
 001D58 9001 D000/41D0_      00000 17032                       XPUSH R0,R1
 001D60 4100 0016            00016 17035                       LA    R0,22
 001D64 4110 8028            00000 17036                       LA    R1,SCNNWORK         PACK NUMBER INTO XSVALUE
 001D68 4120 6024            00024 17037                       LA    R2,XSVALUE
 001D6C 58E0 747C/0DEE       0211C 17038                       ACALL MAKEHEX
 001D72 920C 602F      0002F       17042                       MVI   XSVALUE+NL-1,X'0C'  SET CORRECT SIGN
                                   17043                       COMMENT ,                 (ALSO 9 OF F14.9 IS ZERO)
1EVAL     (EVAL9204) (12:43) (15MAR04) EXPRESSION SCAN ROUTINES                                                             Page   75
0Current Usings:  (XSENTRY,R6) (*,R7) (SCNNWA-(4+36),R8) (CP,R11) (CV,R12)
0Loc    Object Code    Addr1 Addr2  Stmt Lv Lineno    Source Statement           (Hibal 5, Asmedit 3.3)  HLASM R4.0  2004/03/15 12.43
+___    ______ ____    _____ _____  ____ __ ______    ______ _________
0001D76 4BD0 7488/9801_      02128 17044                       XPOP  R0,R1
 001D7E 1BFF                       17047                       CLEAR R15
                                   17051
 001D80                            17052              SCNNDONE LABEL ,
 001D80 9001 8004            00004 17054                       PRETURN (R0,R1)
 001D84 18D8/9808 D004_            17056                       PEND  ,
 DROP   SCNNWA-(4+36),R8
 DROP   *,R7
 DROP   XSENTRY,R6                 17081                       DROP  R6
1EVAL     (EVAL9204) (12:43) (15MAR04) EXPRESSION SCAN ROUTINES                                                             Page   76
0Current Usings:  (CP,R11) (CV,R12)
0Loc    Object Code    Addr1 Addr2  Stmt Lv Lineno    Source Statement           (Hibal 5, Asmedit 3.3)  HLASM R4.0  2004/03/15 12.43
+___    ______ ____    _____ _____  ____ __ ______    ______ _________
0                                  17089              ¿þþþþþþþþþþþþþþþþþþþþþþþþþþþþþþþþþþþþþþþþþþþþþþþþþþþþþþþþþþþþþþþþþþþþþÜ
                                   17090              Ÿ                                                                     Ÿ
                                   17091              Ÿ                                                                     Ÿ
                                   17092              Ÿ  SCNDOT - SCAN A DECIMAL NUMBER                                     Ÿ
                                   17093              Ÿ                                                                     Ÿ
                                   17094              Ÿ                                                                     Ÿ
                                   17095              Ÿ  ON ENTRY:                                                          Ÿ
                                   17096              Ÿ       R0 - LENGTH OF STRING                                         Ÿ
                                   17097              Ÿ       R1 - LOCATION OF STRING (R1 MUST POINT AT NUMERIC)            Ÿ
                                   17098              Ÿ       R6 - EXPRESSION STACK POINTER                                 Ÿ
                                   17099              Ÿ                                                                     Ÿ
                                   17100              Ÿ  ON EXIT:                                                           Ÿ
                                   17101              Ÿ       R0 - LENGTH OF REMAINING STRING                               Ÿ
                                   17102              Ÿ       R1 - LOCATION OF REMAINING STRING                             Ÿ
                                   17103              Ÿ       R6 - POINTS TO NEW EXPRESSION STACK ENTRY                     Ÿ
                                   17104              Ÿ                                                                     Ÿ
                                   17105              Ÿ  NOTE: USER MAY ONLY SPECIFY NUMBERS TO F12.8 ACCURACY.             Ÿ
                                   17106              Ÿ  NUMBER IS STORED AS PACKED DECIMAL OF F14.9 ACCURACCY.             Ÿ
                                   17107              Ÿ                                                                     Ÿ
                                   17108              Ÿ                                                                     Ÿ
                                                      ¾þþþþþþþþþþþþþþþþþþþþþþþþþþþþþþþþþþþþþþþþþþþþþþþþþþþþþþþþþþþþþþþþþþþþþ»
0001D92 50E0 D000/9008_      00000 17109              SCNDOT   PROC  SCNNWA
 USING  *,R7
 USING  SCNNWA-(4+36),R8
 USING  XSENTRY,R6                 17159                       USING XSENTRY,R6
 001DAC 5900 7374/4750_      02120 17168                       IF ((R0,GE,2),AND,(@R1+1,GE,'0'),AND,(@R1+1,LE,'9')),BEGIN
 001DC4 D217 8028 725C 00000 02008 17213  1                      MVC   SCNNWORK(24),=C'000000000000000000000000'
 001DCA 9202 6000      00000       17214  1                      SET   XSVAL
 001DCE 9202 6020      00020       17220  1                      SET   XSNUMB
 001DD2 4111 0001            00001 17226  1                      LA    R1,1(R1)            SKIP '.'
 001DD6 0600                       17227  1                      BCTR  R0,0
                                   17228  1                      COMMENT
 001DD8 1841                       17229  1                      LR    R4,R1               R4 - START OF NUMBER
 001DDA 1830                       17230  1                      LR    R3,R0               R3 - LENGTH TO SCAN
 001DDC 1B22                       17231  1                      SR    R2,R2               R2 - FUNCTION BYTE
                                   17232  1                      COMMENT                   R1 - NUMBER TO SCAN
 001DDE 1A01                       17233  1                      AR    R0,R1               R0 - END OF EXPRESSION
 001DE0 58E0 7360            0210C 17234  1                      L     R14,=A(TRTNUMB)     R14 - NUMBER TRT SCAN TABLE
                                   17235  1                      COMMENT
 001DE4 1233/47D0 704C             17236  1                      IF    (R3,POS),BEGIN
 001DEA 0630/4430 7402_            17250  2                        DEX   R3,' TRT 0(0,R1),0(R14)  '     SCAN DECIMAL PART
 001DF0 4770 704C            01DF8 17269  2                        IF    Z,BEGIN
 001DF4 1810                       17280  3                          LR    R1,R0
 001DF6 1B22                       17281  3                          SR    R2,R2
 001DF8                            17282  2                        END
 001DF8                            17286  1                      END
 001DF8 1851                       17290  1                      LR    R5,R1               R5 - END OF NUMBER
 001DFA 1B14                       17291  1                      SR    R1,R4               R1 - LENGTH OF NUMBER
 001DFC 5910 736C/47D0_      02118 17292  1                      IF    (R1,GT,8),BEGIN
 001E04 58E0 7364/0DEE       02110 17309  2                        ACALL OVERFLOW                   FRACTIONAL PART TOO BIG !!
 001E0A 47F0 70A8            01E54 17313  2                        B     SCNDDONE
 001E0E                            17314  1                      END
                                   17318  1                      COMMENT
1EVAL     (EVAL9204) (12:43) (15MAR04) EXPRESSION SCAN ROUTINES                                                             Page   77
0Current Usings:  (XSENTRY,R6) (*,R7) (SCNNWA-(4+36),R8) (CP,R11) (CV,R12)
0Loc    Object Code    Addr1 Addr2  Stmt Lv Lineno    Source Statement           (Hibal 5, Asmedit 3.3)  HLASM R4.0  2004/03/15 12.43
+___    ______ ____    _____ _____  ____ __ ______    ______ _________
0001E0E 1211/47D0 706E             17319  1                      IF    (R1,POS),BEGIN
 001E14 0610/4410 7408_            17333  2                        DEX   R1,' MVC SCNNWORK+14(0),0(R4) '
 001E1A                            17352  1                      END
                                   17356  1                      COMMENT
 001E1A 9001 D000/41D0_      00000 17357  1                      XPUSH R0,R1
 001E22 4100 0016            00016 17360  1                      LA    R0,22
 001E26 4110 8028            00000 17361  1                      LA    R1,SCNNWORK         PACK NUMBER INTO XSVALUE
 001E2A 4120 6024            00024 17362  1                      LA    R2,XSVALUE
 001E2E 58E0 7370/0DEE       0211C 17363  1                      ACALL MAKEHEX
 001E34 920C 602F      0002F       17367  1                      MVI   XSVALUE+NL-1,X'0C'  SET CORRECT SIGN
                                   17368  1                      COMMENT ,                 (ALSO 9 OF F14.9 IS ZERO)
 001E38 4BD0 737C/9801_      02128 17369  1                      XPOP  R0,R1
                                   17372  1                      COMMENT
 001E40 1815                       17373  1                      LR    R1,R5               RETURN R1,R0 - LOC LEN OF STRING
 001E42 1B01                       17374  1                      SR    R0,R1
 001E44 1BFF                       17375  1                      CLEAR R15
 001E46                            17379                       END
 001E46 709E/709E/709E_01E46 01DB2 17383                       ELSE  BEGIN
 001E4A 58E0 7280/0DEE       0202C 17398  1                      ACALL SCNBAD
 001E50 47F0 70A8            01E54 17402  1                      B     SCNDDONE
 001E54                            17403                       END
                                   17407
 001E54                            17408              SCNDDONE LABEL ,
 001E54 9001 8004            00004 17410                       PRETURN (R0,R1)
 001E58 18D8/9808 D004_            17412                       PEND  ,
 DROP   SCNNWA-(4+36),R8
 DROP   *,R7
 DROP   XSENTRY,R6                 17437                       DROP  R6
1EVAL     (EVAL9204) (12:43) (15MAR04) EXPRESSION SCAN ROUTINES                                                             Page   78
0Current Usings:  (CP,R11) (CV,R12)
0Loc    Object Code    Addr1 Addr2  Stmt Lv Lineno    Source Statement           (Hibal 5, Asmedit 3.3)  HLASM R4.0  2004/03/15 12.43
+___    ______ ____    _____ _____  ____ __ ______    ______ _________
0                                  17445              *
                                   17446              **
                                   17447              **  SCNSQ - SCANNED A SINGLE QUOTE, SCAN A STRING
                                   17448              **
                                   17449              **  PUT STRING VALUE ON EXPRESSION STACK @R6,
                                   17450              **  UPDATE SCAN LOC, LEN IN R1,R0
                                   17451              **  RETURN ZERO CC, ROUTINE CALLED BY XXXSCAN
                                   17452              **
                                   17453              **  DETAILED ENTRY/EXIT CONVENTIONSSAME AS FOR XXXSCAN
                                   17454              **
 001E66 50E0 D000/9008_      00000 17455              SCNSQ    PROC  ,
 USING  *,R7
 USING  XSENTRY,R6                 17494                       USING XSENTRY,R6
 001E80 D74F 6000 6000 00000 00000 17503                       CLEAR XSENTRY             PUT STRING ON STACK
 001E86 9202 6000      00000       17510                       SET   XSVAL
 001E8A 9201 6020      00020       17516                       SET   XSSTRING
 001E8E 1841                       17522                       LR    R4,R1               R4 - START OF STRING
 001E90 1A01                       17523                       AR    R0,R1               R0 - END OF EXPRESSION
                                   17524                       COMMENT
 001E92 4111 0001            00001 17525                       LA    R1,1(R1)            R1 - INPUT SCAN STRING
 001E96 4130 6026            00026 17526                       LA    R3,XSSTRLOC         R3 - OUTPUT STACK STRING
 001E9A 4121 0001            00001 17527                       LA    R2,1(R1)
                                   17528            C          WHILE (((@R1,EQ,C''''),AND,(@R2,EQ,C''''),AND,(R2,LT,R0)),
 001E9E 957D 1000/4770_00000                                         OR,((@R1,NE,C''''),AND,(R1,LT,R0))),BEGIN
 001EC2 957D 1000/4780_00000       17602  1                      IF    (@R1,NE,C''''),BEGIN PROCESS TEXT
 001ECA D200 3000 1000 00000 00000 17618  2                        MVC   0(1,R3),0(R1)
 001ED0 4111 0001            00001 17619  2                        LA    R1,1(R1)
 001ED4 4133 0001            00001 17620  2                        LA    R3,1(R3)
 001ED8                            17621  1                      END
 001ED8 705C/47F0 706A 01ED8 01EC8 17625  1                      ELSE  BEGIN ,             PROCESS QUOTE PAIRS
 001EDC D200 3000 1000 00000 00000 17636  2                        MVC   0(1,R3),0(R1)
 001EE2 4111 0002            00002 17637  2                        LA    R1,2(R1)
 001EE6 4133 0001            00001 17638  2                        LA    R3,1(R3)
 001EEA                            17639  1                      END
 001EEA 4121 0001            00001 17643  1                      LA    R2,1(R1)
 001EEE 47F0 701E            01E9E 17644                       END
 001EF2 1910/47B0 708A             17649                       IF    (R1,LT,R0),BEGIN                  IF ALL OK
 001EF8 4120 6026            00026 17664  1                      LA    R2,XSSTRLOC                          SAVE STR LEN
 001EFC 1B32                       17665  1                      SR    R3,R2                                UPDATE EXPRESSION
 001EFE 4030 6024            00024 17666  1                      STH   R3,XSSTRLEN                          LOC, LEN AND
 001F02 4111 0001            00001 17667  1                      LA    R1,1(R1)                             SET CC
 001F06 1B01                       17668  1                      SR    R0,R1
 001F08 1BFF                       17669  1                      CLEAR R15
 001F0A                            17673                       END
 001F0A 708E/47F0 7096 01F0A 01EF6 17677                       ELSE  BEGIN  ,,,                       IF BAD QUOTE
 001F0E 1814                       17688  1                      LR    R1,R4
 001F10 58E0 72A4/0DEE       02124 17689  1                      ACALL BADQUOTE
 001F16                            17693                       END
 001F16 9001 8004            00004 17697                       PRETURN (R0,R1)
 001F1A 18D8/9808 D004_            17699                       PEND  ,
 DROP   *,R7
 DROP   XSENTRY,R6                 17719                       DROP  R6
1EVAL     (EVAL9204) (12:43) (15MAR04) EXPRESSION SCAN ROUTINES                                                             Page   79
0Current Usings:  (CP,R11) (CV,R12)
0Loc    Object Code    Addr1 Addr2  Stmt Lv Lineno    Source Statement           (Hibal 5, Asmedit 3.3)  HLASM R4.0  2004/03/15 12.43
+___    ______ ____    _____ _____  ____ __ ______    ______ _________
0                                  17727              *
                                   17728              **
                                   17729              **  SCNDQ - SCANNED A DOUBLE QUOTE, SCAN A STRING
                                   17730              **
                                   17731              **  PUT STRING VALUE ON EXPRESSION STACK @R6,
                                   17732              **  UPDATE SCAN LOC, LEN IN R1,R0
                                   17733              **  RETURN ZERO CC, ROUTINE CALLED BY XXXSCAN
                                   17734              **
                                   17735              **  DETAILED ENTRY/EXIT CONVENTIONSSAME AS FOR XXXSCAN
                                   17736              **
 001F28 50E0 D000/9008_      00000 17737              SCNDQ    PROC  ,
 USING  *,R7
 USING  XSENTRY,R6                 17776                       USING XSENTRY,R6
 001F42 D74F 6000 6000 00000 00000 17785                       CLEAR XSENTRY             PUT STRING ON STACK
 001F48 9202 6000      00000       17792                       SET   XSVAL
 001F4C 9201 6020      00020       17798                       SET   XSSTRING
 001F50 1841                       17804                       LR    R4,R1               R4 - START OF STRING
 001F52 1A01                       17805                       AR    R0,R1               R0 - END OF EXPRESSION
                                   17806                       COMMENT
 001F54 4111 0001            00001 17807                       LA    R1,1(R1)            R1 - INPUT SCAN STRING
 001F58 4130 6026            00026 17808                       LA    R3,XSSTRLOC         R3 - OUTPUT STACK STRING
 001F5C 4121 0001            00001 17809                       LA    R2,1(R1)
                                   17810            C          WHILE (((@R1,EQ,C'"'),AND,(@R2,EQ,C'"'),AND,(R2,LT,R0)),
 001F60 957F 1000/4770_00000                                         OR,((@R1,NE,C'"'),AND,(R1,LT,R0))),BEGIN
 001F84 957F 1000/4780_00000       17884  1                      IF    (@R1,NE,C'"'),BEGIN PROCESS TEXT
 001F8C D200 3000 1000 00000 00000 17900  2                        MVC   0(1,R3),0(R1)
 001F92 4111 0001            00001 17901  2                        LA    R1,1(R1)
 001F96 4133 0001            00001 17902  2                        LA    R3,1(R3)
 001F9A                            17903  1                      END
 001F9A 705C/47F0 706A 01F9A 01F8A 17907  1                      ELSE  BEGIN ,             PROCESS QUOTE PAIRS
 001F9E D200 3000 1000 00000 00000 17918  2                        MVC   0(1,R3),0(R1)
 001FA4 4111 0002            00002 17919  2                        LA    R1,2(R1)
 001FA8 4133 0001            00001 17920  2                        LA    R3,1(R3)
 001FAC                            17921  1                      END
 001FAC 4121 0001            00001 17925  1                      LA    R2,1(R1)
 001FB0 47F0 701E            01F60 17926                       END
 001FB4 1910/47B0 708A             17931                       IF    (R1,LT,R0),BEGIN                  IF ALL OK
 001FBA 4120 6026            00026 17946  1                      LA    R2,XSSTRLOC                          SAVE STR LEN
 001FBE 1B32                       17947  1                      SR    R3,R2                                UPDATE EXPRESSION
 001FC0 4030 6024            00024 17948  1                      STH   R3,XSSTRLEN                          LOC, LEN AND
 001FC4 4111 0001            00001 17949  1                      LA    R1,1(R1)                             SET CC
 001FC8 1B01                       17950  1                      SR    R0,R1
 001FCA 1BFF                       17951  1                      CLEAR R15
 001FCC                            17955                       END
 001FCC 708E/47F0 7096 01FCC 01FB8 17959                       ELSE  BEGIN  ,,,                       IF BAD QUOTE
 001FD0 1814                       17970  1                      LR    R1,R4
 001FD2 58E0 71E2/0DEE       02124 17971  1                      ACALL BADQUOTE
 001FD8                            17975                       END
 001FD8 9001 8004            00004 17979                       PRETURN (R0,R1)
 001FDC 18D8/9808 D004_            17981                       PEND  ,
 DROP   *,R7
 DROP   XSENTRY,R6                 18001                       DROP  R6
1EVAL     (EVAL9204) (12:43) (15MAR04) EXPRESSION SCAN ROUTINES                                                             Page   80
0Current Usings:  (CP,R11) (CV,R12)
0Loc    Object Code    Addr1 Addr2  Stmt Lv Lineno    Source Statement           (Hibal 5, Asmedit 3.3)  HLASM R4.0  2004/03/15 12.43
+___    ______ ____    _____ _____  ____ __ ______    ______ _________
0                                  18009                       QLTORG
1EVAL     (EVAL9204) (12:43) (15MAR04) EXPRESSION SCAN ROUTINES                                                             Page   81
0Current Usings:  (CP,R11) (CV,R12)
0Loc    Object Code    Addr1 Addr2  Stmt Lv Lineno    Source Statement           (Hibal 5, Asmedit 3.3)  HLASM R4.0  2004/03/15 12.43
+___    ______ ____    _____ _____  ____ __ ______    ______ _________
0                                  18096              ¿þþþþþþþþþþþþþþþþþþþþþþþþþþþþþþþþþþþþþþþþþþþþþþþþþþþþþþþþþþþþþþþþþþþþþÜ
                                   18097              Ÿ                                                                     Ÿ
                                   18098              Ÿ                                                                     Ÿ
                                   18099              Ÿ  SCNNOT - SCANNED A 'NOT'                                           Ÿ
                                   18100              Ÿ                                                                     Ÿ
                                   18101              Ÿ  PUT 'NOT' OPERATOR ON EXPRESSION STACK @R6,                        Ÿ
                                   18102              Ÿ  SCAN LOC LEN IN R1,R0 ALREADY SET BY CALLER                        Ÿ
                                   18103              Ÿ  CALLED BY XXXSCAN, ZERO CC RETURNED                                Ÿ
                                   18104              Ÿ                                                                     Ÿ
                                   18105              Ÿ  DETAILED ENTRY/EXIT CONVENTIONS SAME AS FOR XXXSCAN                Ÿ
                                   18106              Ÿ                                                                     Ÿ
                                   18107              Ÿ                                                                     Ÿ
                                                      ¾þþþþþþþþþþþþþþþþþþþþþþþþþþþþþþþþþþþþþþþþþþþþþþþþþþþþþþþþþþþþþþþþþþþþþ»
00021BA 50E0 D000/9008_      00000 18108              SCNNOT   PROC  ,
 USING  *,R7
 USING  XSENTRY,R6                 18147                       USING XSENTRY,R6
 0021D4 D74F 6000 6000 00000 00000 18156                       CLEAR XSENTRY             PUT OPERATOR ON STACK
 0021DA 9203 6000      00000       18163                       SET   XSOPER
 0021DE 9204 6001      00001       18169                       MVI   XSUOPLVL,NOTLVL
 0021E2 41E0 6004            00004 18170                       LA    R14,XSUOPRTN
 0021E6 D203 E000 770C 00000 028E0 18171                       SAVERTNP @R14,EVLNOT
 0021EC 9204 6002      00002       18174                       MVI   XSBOPLVL,BADLVL
 0021F0 41E0 6008            00008 18175                       LA    R14,XSBOPRTN
 0021F4 D203 E000 7710 00000 028E4 18176                       SAVERTNP @R14,BADBOP
 0021FA D203 600C 7714 0000C 028E8 18179                       MVC   XSOPCHAR(4),=CL4'NOT '
 002200 1BFF                       18180                       CLEAR R15                 ZERO CC
 002202 18D8/9808 D004_            18184                       PEND  ,
 DROP   *,R7
 DROP   XSENTRY,R6                 18204                       DROP  R6
1EVAL     (EVAL9204) (12:43) (15MAR04) EXPRESSION SCAN ROUTINES                                                             Page   82
0Current Usings:  (CP,R11) (CV,R12)
0Loc    Object Code    Addr1 Addr2  Stmt Lv Lineno    Source Statement           (Hibal 5, Asmedit 3.3)  HLASM R4.0  2004/03/15 12.43
+___    ______ ____    _____ _____  ____ __ ______    ______ _________
0                                  18212              *
                                   18213              **
                                   18214              **  SCNPLUS - SCANNED A '+'
                                   18215              **
                                   18216              **  PUT '+' OPERATOR ON EXPRESSION STACK @R6,
                                   18217              **  UPDATE SCAN LOC, LEN IN R1,R0
                                   18218              **  RETURN ZERO CC, ROUTINE CALLED BY XXXSCAN
                                   18219              **
                                   18220              **  DETAILED ENTRY/EXIT CONVENTIONSSAME AS FOR XXXSCAN
                                   18221              **
 002210 50E0 D000/9008_      00000 18222              SCNPLUS  PROC  ,
 USING  *,R7
 USING  XSENTRY,R6                 18261                       USING XSENTRY,R6
 00222A D74F 6000 6000 00000 00000 18270                       CLEAR XSENTRY             PUT OPERATOR ON STACK
 002230 9203 6000      00000       18277                       SET   XSOPER
 002234 9204 6001      00001       18283                       MVI   XSUOPLVL,POSLVL
 002238 41E0 6004            00004 18284                       LA    R14,XSUOPRTN
 00223C D203 E000 76C2 00000 028EC 18285                       SAVERTNP @R14,EVLPOS
 002242 920C 6002      00002       18288                       MVI   XSBOPLVL,ADDLVL
 002246 41E0 6008            00008 18289                       LA    R14,XSBOPRTN
 00224A D203 E000 76C6 00000 028F0 18290                       SAVERTNP @R14,EVLADD
 002250 D203 600C 76CA 0000C 028F4 18293                       MVC   XSOPCHAR(4),=CL4'+   '
 002256 4111 0001            00001 18294                       LA    R1,1(R1)            UPDATE POINTERS
 00225A 0600                       18295                       BCTR  R0,0
 00225C 1BFF                       18296                       CLEAR R15                 ZERO CC
 00225E 9001 8004            00004 18300                       PRETURN (R0,R1)
 002262 18D8/9808 D004_            18302                       PEND  ,
 DROP   *,R7
 DROP   XSENTRY,R6                 18322                       DROP  R6
1EVAL     (EVAL9204) (12:43) (15MAR04) EXPRESSION SCAN ROUTINES                                                             Page   83
0Current Usings:  (CP,R11) (CV,R12)
0Loc    Object Code    Addr1 Addr2  Stmt Lv Lineno    Source Statement           (Hibal 5, Asmedit 3.3)  HLASM R4.0  2004/03/15 12.43
+___    ______ ____    _____ _____  ____ __ ______    ______ _________
0                                  18330              *
                                   18331              **
                                   18332              **  SCNMINUS - SCANNED A '-'
                                   18333              **
                                   18334              **  PUT '-' OPERATOR ON EXPRESSION STACK @R6,
                                   18335              **  UPDATE SCAN LOC, LEN IN R1,R0
                                   18336              **  RETURN ZERO CC, ROUTINE CALLED BY XXXSCAN
                                   18337              **
                                   18338              **  DETAILED ENTRY/EXIT CONVENTIONSSAME AS FOR XXXSCAN
                                   18339              **
 002270 50E0 D000/9008_      00000 18340              SCNMINUS PROC  ,
 USING  *,R7
 USING  XSENTRY,R6                 18379                       USING XSENTRY,R6
 00228A D74F 6000 6000 00000 00000 18388                       CLEAR XSENTRY             PUT OPERATOR ON STACK
 002290 9203 6000      00000       18395                       SET   XSOPER
 002294 9204 6001      00001       18401                       MVI   XSUOPLVL,NEGLVL
 002298 41E0 6004            00004 18402                       LA    R14,XSUOPRTN
 00229C D203 E000 766E 00000 028F8 18403                       SAVERTNP @R14,EVLNEG
 0022A2 920C 6002      00002       18406                       MVI   XSBOPLVL,SUBTLVL
 0022A6 41E0 6008            00008 18407                       LA    R14,XSBOPRTN
 0022AA D203 E000 7672 00000 028FC 18408                       SAVERTNP @R14,EVLSUBT
 0022B0 D203 600C 7676 0000C 02900 18411                       MVC   XSOPCHAR(4),=CL4'-   '
 0022B6 4111 0001            00001 18412                       LA    R1,1(R1)            UPDATE POINTERS
 0022BA 0600                       18413                       BCTR  R0,0
 0022BC 1BFF                       18414                       CLEAR R15                 ZERO CC
 0022BE 9001 8004            00004 18418                       PRETURN (R0,R1)
 0022C2 18D8/9808 D004_            18420                       PEND  ,
 DROP   *,R7
 DROP   XSENTRY,R6                 18440                       DROP  R6
1EVAL     (EVAL9204) (12:43) (15MAR04) EXPRESSION SCAN ROUTINES                                                             Page   84
0Current Usings:  (CP,R11) (CV,R12)
0Loc    Object Code    Addr1 Addr2  Stmt Lv Lineno    Source Statement           (Hibal 5, Asmedit 3.3)  HLASM R4.0  2004/03/15 12.43
+___    ______ ____    _____ _____  ____ __ ______    ______ _________
0                                  18448              ¿þþþþþþþþþþþþþþþþþþþþþþþþþþþþþþþþþþþþþþþþþþþþþþþþþþþþþþþþþþþþþþþþþþþþþÜ
                                   18449              Ÿ                                                                     Ÿ
                                   18450              Ÿ                                                                     Ÿ
                                   18451              Ÿ  SCNMULT - SCANNED A '*'                                            Ÿ
                                   18452              Ÿ                                                                     Ÿ
                                   18453              Ÿ  WE HAVE TWO CASES:                                                 Ÿ
                                   18454              Ÿ       1. MULTIPLY OPERATOR                                          Ÿ
                                   18455              Ÿ       2. CURRENT LINE NUMBER SYMBOL                                 Ÿ
                                   18456              Ÿ                                                                     Ÿ
                                   18457              Ÿ  WE DO THE FOLLOWING:                                               Ÿ
                                   18458              Ÿ  PUT OPERATOR OR VALUE ON STACK @R6                                 Ÿ
                                   18459              Ÿ  UPDATE SCAN LOC, LEN IN R1,R0                                      Ÿ
                                   18460              Ÿ  SET RETURN CC, ROUTINE CALLED BY XXXSCAN                           Ÿ
                                   18461              Ÿ                                                                     Ÿ
                                   18462              Ÿ  DETAILED ENTRY/EXIT CONVENTIONSSAME AS FOR XXXSCAN                 Ÿ
                                   18463              Ÿ                                                                     Ÿ
                                   18464              Ÿ                                                                     Ÿ
                                                      ¾þþþþþþþþþþþþþþþþþþþþþþþþþþþþþþþþþþþþþþþþþþþþþþþþþþþþþþþþþþþþþþþþþþþþþ»
0                                  18465              SETMULT  EQU   4                   PUT MULTIPLY OPERATOR ON STACK
                                   18466              SETCURR  EQU   8                   PUT CURRENT LINE NO ON STACK
                                   18467              *
                                   18468              *
 0022D0 50E0 D000/9008_      00000 18469              SCNMULT  PROC  ,
 USING  *,R7
 USING  XSENTRY,R6                 18508                       USING XSENTRY,R6
 0022EA 5B60 761A            02904 18517                       XSPOP ,,
 0022EE 9502 6000/4770_00000       18519                       IF    XSVAL,'LA R5,SETMULT '
 0022FA 7014/47F0 7018_022FA 022F4 18540                       ELSE  'LA R5,SETCURR '
 002302 1BFF/5A60 761A_            18557                       XSPUSH ,,
                                   18596
 00232A 5950 762E/4770_      02918 18597                       IF    (R5,EQ,SETMULT),BEGIN    PUT MULT OPERATOR ON STACK
 002332 D74F 6000 6000 00000 00000 18614  1                      CLEAR XSENTRY
 002338 9203 6000      00000       18621  1                      SET   XSOPER
 00233C 9204 6001      00001       18627  1                      MVI   XSUOPLVL,BADLVL
 002340 41E0 6004            00004 18628  1                      LA    R14,XSUOPRTN
 002344 D203 E000 7632 00000 0291C 18629  1                      SAVERTNP @R14,BADUOP
 00234A 9208 6002      00002       18632  1                      MVI   XSBOPLVL,MULTLVL
 00234E 41E0 6008            00008 18633  1                      LA    R14,XSBOPRTN
 002352 D203 E000 7636 00000 02920 18634  1                      SAVERTNP @R14,EVLMULT
 002358 D203 600C 763A 0000C 02924 18637  1                      MVC   XSOPCHAR(4),=CL4'*   '
 00235E 1BFF                       18638  1                      CLEAR R15
 002360                            18642                       END
                                   18646
 002360 5950 763E/4770_      02928 18647                       IF    (R5,EQ,SETCURR),BEGIN    PUT CURRNET LINENO ON STACK
 002368 D74F 6000 6000 00000 00000 18664  1                      CLEAR XSENTRY
 00236E 9202 6000      00000       18671  1                      SET   XSVAL
 002372 9202 6020      00020       18677  1                      SET   XSNUMB
 002376 D203 6024 B5A8 00024 005A8 18683  1                      MVC   XSVALUE(4),CPACLNO
 00237C 1826                       18684  1                      LR    R2,R6
 00237E 58E0 7642/0DEE       0292C 18685  1                      ACALL MAKELTOD
 002384                            18689                       END
 002384 4111 0001            00001 18693                       LA    R1,1(R1)            UPDATE POINTERS
 002388 0600                       18694                       BCTR  R0,0
1EVAL     (EVAL9204) (12:43) (15MAR04) EXPRESSION SCAN ROUTINES                                                             Page   85
0Current Usings:  (XSENTRY,R6) (*,R7) (CP,R11) (CV,R12)
0Loc    Object Code    Addr1 Addr2  Stmt Lv Lineno    Source Statement           (Hibal 5, Asmedit 3.3)  HLASM R4.0  2004/03/15 12.43
+___    ______ ____    _____ _____  ____ __ ______    ______ _________
000238A 9001 8004            00004 18695                       PRETURN (R0,R1)
 00238E 18D8/9808 D004_            18697                       PEND  ,
 DROP   *,R7
 DROP   XSENTRY,R6                 18717                       DROP  R6
1EVAL     (EVAL9204) (12:43) (15MAR04) EXPRESSION SCAN ROUTINES                                                             Page   86
0Current Usings:  (CP,R11) (CV,R12)
0Loc    Object Code    Addr1 Addr2  Stmt Lv Lineno    Source Statement           (Hibal 5, Asmedit 3.3)  HLASM R4.0  2004/03/15 12.43
+___    ______ ____    _____ _____  ____ __ ______    ______ _________
0                                  18725              *
                                   18726              **
                                   18727              **  SCNDIV - SCANNED A '/'
                                   18728              **
                                   18729              **  PUT '/' OPERATOR ON EXPRESSION STACK @R6,
                                   18730              **  UPDATE SCAN LOC, LEN IN R1,R0
                                   18731              **  RETURN ZERO CC, ROUTINE CALLED BY XXXSCAN
                                   18732              **
                                   18733              **  DETAILED ENTRY/EXIT CONVENTIONSSAME AS FOR XXXSCAN
                                   18734              **
 00239C 50E0 D000/9008_      00000 18735              SCNDIV   PROC  ,
 USING  *,R7
 USING  XSENTRY,R6                 18774                       USING XSENTRY,R6
 0023B6 D74F 6000 6000 00000 00000 18783                       CLEAR XSENTRY             PUT OPERATOR ON STACK
 0023BC 9203 6000      00000       18790                       SET   XSOPER
 0023C0 9204 6001      00001       18796                       MVI   XSUOPLVL,BADLVL
 0023C4 41E0 6004            00004 18797                       LA    R14,XSUOPRTN
 0023C8 D203 E000 7566 00000 0291C 18798                       SAVERTNP @R14,BADUOP
 0023CE 9208 6002      00002       18801                       MVI   XSBOPLVL,DIVLVL
 0023D2 41E0 6008            00008 18802                       LA    R14,XSBOPRTN
 0023D6 D203 E000 757A 00000 02930 18803                       SAVERTNP @R14,EVLDIV
 0023DC D203 600C 757E 0000C 02934 18806                       MVC   XSOPCHAR(4),=CL4'/   '
 0023E2 4111 0001            00001 18807                       LA    R1,1(R1)            UPDATE POINTERS
 0023E6 0600                       18808                       BCTR  R0,0
 0023E8 1BFF                       18809                       CLEAR R15                 ZERO CC
 0023EA 9001 8004            00004 18813                       PRETURN (R0,R1)
 0023EE 18D8/9808 D004_            18815                       PEND  ,
 DROP   *,R7
 DROP   XSENTRY,R6                 18835                       DROP  R6
1EVAL     (EVAL9204) (12:43) (15MAR04) EXPRESSION SCAN ROUTINES                                                             Page   87
0Current Usings:  (CP,R11) (CV,R12)
0Loc    Object Code    Addr1 Addr2  Stmt Lv Lineno    Source Statement           (Hibal 5, Asmedit 3.3)  HLASM R4.0  2004/03/15 12.43
+___    ______ ____    _____ _____  ____ __ ______    ______ _________
0                                  18843              *
                                   18844              **
                                   18845              **  SCNCAT - SCANNED A '|'
                                   18846              **
                                   18847              **  PUT '||' OPERATOR ON EXPRESSION STACK @R6,
                                   18848              **  UPDATE SCAN LOC, LEN IN R1,R0
                                   18849              **  RETURN ZERO CC, ROUTINE CALLED BY XXXSCAN
                                   18850              **
                                   18851              **  DETAILED ENTRY/EXIT CONVENTIONSSAME AS FOR XXXSCAN
                                   18852              **
 0023FC 50E0 D000/9008_      00000 18853              SCNCAT   PROC  ,
 USING  *,R7
 USING  XSENTRY,R6                 18892                       USING XSENTRY,R6
 002416 954F 1001/4770_00001       18901                       IF    ((@R1+1,EQ,'|'),AND,(R0,GE,2)),BEGIN     IF '||'
 002426 D74F 6000 6000 00000 00000 18933  1                      CLEAR XSENTRY             PUT OPERATOR ON STACK
 00242C 9203 6000      00000       18940  1                      SET   XSOPER
 002430 9204 6001      00001       18946  1                      MVI   XSUOPLVL,BADLVL
 002434 41E0 6004            00004 18947  1                      LA    R14,XSUOPRTN
 002438 D203 E000 7506 00000 0291C 18948  1                      SAVERTNP @R14,BADUOP
 00243E 9210 6002      00002       18951  1                      MVI   XSBOPLVL,CATLVL
 002442 41E0 6008            00008 18952  1                      LA    R14,XSBOPRTN
 002446 D203 E000 7526 00000 0293C 18953  1                      SAVERTNP @R14,EVLCAT
 00244C D203 600C 752A 0000C 02940 18956  1                      MVC   XSOPCHAR(4),=CL4'||  '
 002452 4111 0002            00002 18957  1                      LA    R1,2(R1)            UPDATE POINTERS
 002456 0600                       18958  1                      BCTR  R0,0
 002458 0600                       18959  1                      BCTR  R0,0
 00245A 1BFF                       18960  1                      CLEAR R15                 ZERO CC
 00245C                            18964                       END
 00245C 704A/704A/47F0_0245C 0241C 18968                       ELSE  BEGIN
 002460 58E0 752E/0DEE       02944 18981  1                      ACALL SCNBAD              IF NOT '||', THEN '|' IS INVALID
 002466                            18985                       END
 002466 9001 8004            00004 18989                       PRETURN (R0,R1)
 00246A 18D8/9808 D004_            18991                       PEND  ,
 DROP   *,R7
 DROP   XSENTRY,R6                 19011                       DROP  R6
1EVAL     (EVAL9204) (12:43) (15MAR04) EXPRESSION SCAN ROUTINES                                                             Page   88
0Current Usings:  (CP,R11) (CV,R12)
0Loc    Object Code    Addr1 Addr2  Stmt Lv Lineno    Source Statement           (Hibal 5, Asmedit 3.3)  HLASM R4.0  2004/03/15 12.43
+___    ______ ____    _____ _____  ____ __ ______    ______ _________
0                                  19019              ¿þþþþþþþþþþþþþþþþþþþþþþþþþþþþþþþþþþþþþþþþþþþþþþþþþþþþþþþþþþþþþþþþþþþþþÜ
                                   19020              Ÿ                                                                     Ÿ
                                   19021              Ÿ                                                                     Ÿ
                                   19022              Ÿ  SCNTILDA - SCANNED A '~'                                           Ÿ
                                   19023              Ÿ                                                                     Ÿ
                                   19024              Ÿ  TREAT A '~' AS 'NOT'.   THAT IS WE BUMB PAST THE '~'               Ÿ
                                   19025              Ÿ  AND THEN CALL THE SCAN 'NOT' ROUTINE.                              Ÿ
                                   19026              Ÿ                                                                     Ÿ
                                   19027              Ÿ  DETAILED ENTRY/EXIT CONVENTIONS SAME AS FOR XXXSCAN                Ÿ
                                   19028              Ÿ                                                                     Ÿ
                                   19029              Ÿ                                                                     Ÿ
                                                      ¾þþþþþþþþþþþþþþþþþþþþþþþþþþþþþþþþþþþþþþþþþþþþþþþþþþþþþþþþþþþþþþþþþþþþþ»
0002478 50E0 D000/9008_      00000 19030              SCNTILDA PROC  ,
 USING  *,R7
 USING  XSENTRY,R6                 19069                       USING XSENTRY,R6
 002492 58E0 74B6/0DEE       02948 19078                       ACALL SCNNOT
 002498 4111 0001            00001 19082                       LA    R1,1(R1)
 00249C 0600                       19083                       DECR  R0
 00249E D203 600C 74BA 0000C 0294C 19085                       MVC   XSOPCHAR,=CL4'~   '
 0024A4 1BFF                       19086                       CLEAR R15
 0024A6 9001 8004            00004 19090                       PRETURN (R0,R1)
 0024AA 18D8/9808 D004_            19092                       PEND  ,
 DROP   *,R7
 DROP   XSENTRY,R6                 19112                       DROP  R6
1EVAL     (EVAL9204) (12:43) (15MAR04) EXPRESSION SCAN ROUTINES                                                             Page   89
0Current Usings:  (CP,R11) (CV,R12)
0Loc    Object Code    Addr1 Addr2  Stmt Lv Lineno    Source Statement           (Hibal 5, Asmedit 3.3)  HLASM R4.0  2004/03/15 12.43
+___    ______ ____    _____ _____  ____ __ ______    ______ _________
0                                  19120              ¿þþþþþþþþþþþþþþþþþþþþþþþþþþþþþþþþþþþþþþþþþþþþþþþþþþþþþþþþþþþþþþþþþþþþþÜ
                                   19121              Ÿ                                                                     Ÿ
                                   19122              Ÿ                                                                     Ÿ
                                   19123              Ÿ  SCNEQ - SCANNED A 'EQ'                                             Ÿ
                                   19124              Ÿ                                                                     Ÿ
                                   19125              Ÿ  PUT 'EQ' OPERATOR ON EXPRESSION STACK @R6,                         Ÿ
                                   19126              Ÿ  SCAN LOC LEN IN R1,R0 ALREADY SET BY CALLER                        Ÿ
                                   19127              Ÿ  CALLED BY XXXSCAN, ZERO CC RETURNED                                Ÿ
                                   19128              Ÿ                                                                     Ÿ
                                   19129              Ÿ  DETAILED ENTRY/EXIT CONVENTIONS SAME AS FOR XXXSCAN                Ÿ
                                   19130              Ÿ                                                                     Ÿ
                                   19131              Ÿ                                                                     Ÿ
                                                      ¾þþþþþþþþþþþþþþþþþþþþþþþþþþþþþþþþþþþþþþþþþþþþþþþþþþþþþþþþþþþþþþþþþþþþþ»
00024B8 50E0 D000/9008_      00000 19132              SCNEQ    PROC  ,
 USING  *,R7
 USING  XSENTRY,R6                 19171                       USING XSENTRY,R6
 0024D2 D74F 6000 6000 00000 00000 19180                       CLEAR XSENTRY             PUT OPERATOR ON STACK
 0024D8 9203 6000      00000       19187                       SET   XSOPER
 0024DC 9204 6001      00001       19193                       MVI   XSUOPLVL,BADLVL
 0024E0 41E0 6004            00004 19194                       LA    R14,XSUOPRTN
 0024E4 D203 E000 744A 00000 0291C 19195                       SAVERTNP @R14,BADUOP
 0024EA 9214 6002      00002       19198                       MVI   XSBOPLVL,EQLVL
 0024EE 41E0 6008            00008 19199                       LA    R14,XSBOPRTN
 0024F2 D203 E000 747E 00000 02950 19200                       SAVERTNP @R14,EVLEQ
 0024F8 D203 600C 7482 0000C 02954 19203                       MVC   XSOPCHAR(4),=CL4'EQ  '
 0024FE 1BFF                       19204                       CLEAR R15                 ZERO CC
 002500 18D8/9808 D004_            19208                       PEND  ,
 DROP   *,R7
 DROP   XSENTRY,R6                 19228                       DROP  R6
1EVAL     (EVAL9204) (12:43) (15MAR04) EXPRESSION SCAN ROUTINES                                                             Page   90
0Current Usings:  (CP,R11) (CV,R12)
0Loc    Object Code    Addr1 Addr2  Stmt Lv Lineno    Source Statement           (Hibal 5, Asmedit 3.3)  HLASM R4.0  2004/03/15 12.43
+___    ______ ____    _____ _____  ____ __ ______    ______ _________
0                                  19236              ¿þþþþþþþþþþþþþþþþþþþþþþþþþþþþþþþþþþþþþþþþþþþþþþþþþþþþþþþþþþþþþþþþþþþþþÜ
                                   19237              Ÿ                                                                     Ÿ
                                   19238              Ÿ                                                                     Ÿ
                                   19239              Ÿ  SCNNE - SCANNED A 'NE'                                             Ÿ
                                   19240              Ÿ                                                                     Ÿ
                                   19241              Ÿ  PUT 'NE' OPERATOR ON EXPRESSION STACK @R6,                         Ÿ
                                   19242              Ÿ  SCAN LOC LEN IN R1,R0 ALREADY SET BY CALLER                        Ÿ
                                   19243              Ÿ  CALLED BY XXXSCAN, ZERO CC RETURNED                                Ÿ
                                   19244              Ÿ                                                                     Ÿ
                                   19245              Ÿ  DETAILED ENTRY/EXIT CONVENTIONS SAME AS FOR XXXSCAN                Ÿ
                                   19246              Ÿ                                                                     Ÿ
                                   19247              Ÿ                                                                     Ÿ
                                                      ¾þþþþþþþþþþþþþþþþþþþþþþþþþþþþþþþþþþþþþþþþþþþþþþþþþþþþþþþþþþþþþþþþþþþþþ»
000250E 50E0 D000/9008_      00000 19248              SCNNE    PROC  ,
 USING  *,R7
 USING  XSENTRY,R6                 19287                       USING XSENTRY,R6
 002528 D74F 6000 6000 00000 00000 19296                       CLEAR XSENTRY             PUT OPERATOR ON STACK
 00252E 9203 6000      00000       19303                       SET   XSOPER
 002532 9204 6001      00001       19309                       MVI   XSUOPLVL,BADLVL
 002536 41E0 6004            00004 19310                       LA    R14,XSUOPRTN
 00253A D203 E000 73F4 00000 0291C 19311                       SAVERTNP @R14,BADUOP
 002540 9214 6002      00002       19314                       MVI   XSBOPLVL,NELVL
 002544 41E0 6008            00008 19315                       LA    R14,XSBOPRTN
 002548 D203 E000 7430 00000 02958 19316                       SAVERTNP @R14,EVLNE
 00254E D203 600C 7434 0000C 0295C 19319                       MVC   XSOPCHAR(4),=CL4'NE  '
 002554 1BFF                       19320                       CLEAR R15                 ZERO CC
 002556 18D8/9808 D004_            19324                       PEND  ,
 DROP   *,R7
 DROP   XSENTRY,R6                 19344                       DROP  R6
1EVAL     (EVAL9204) (12:43) (15MAR04) EXPRESSION SCAN ROUTINES                                                             Page   91
0Current Usings:  (CP,R11) (CV,R12)
0Loc    Object Code    Addr1 Addr2  Stmt Lv Lineno    Source Statement           (Hibal 5, Asmedit 3.3)  HLASM R4.0  2004/03/15 12.43
+___    ______ ____    _____ _____  ____ __ ______    ______ _________
0                                  19352              ¿þþþþþþþþþþþþþþþþþþþþþþþþþþþþþþþþþþþþþþþþþþþþþþþþþþþþþþþþþþþþþþþþþþþþþÜ
                                   19353              Ÿ                                                                     Ÿ
                                   19354              Ÿ                                                                     Ÿ
                                   19355              Ÿ  SCNLT - SCANNED A 'LT'                                             Ÿ
                                   19356              Ÿ                                                                     Ÿ
                                   19357              Ÿ  PUT 'LT' OPERATOR ON EXPRESSION STACK @R6,                         Ÿ
                                   19358              Ÿ  SCAN LOC LEN IN R1,R0 ALREADY SET BY CALLER                        Ÿ
                                   19359              Ÿ  CALLED BY XXXSCAN, ZERO CC RETURNED                                Ÿ
                                   19360              Ÿ                                                                     Ÿ
                                   19361              Ÿ  DETAILED ENTRY/EXIT CONVENTIONS SAME AS FOR XXXSCAN                Ÿ
                                   19362              Ÿ                                                                     Ÿ
                                   19363              Ÿ                                                                     Ÿ
                                                      ¾þþþþþþþþþþþþþþþþþþþþþþþþþþþþþþþþþþþþþþþþþþþþþþþþþþþþþþþþþþþþþþþþþþþþþ»
0002564 50E0 D000/9008_      00000 19364              SCNLT    PROC  ,
 USING  *,R7
 USING  XSENTRY,R6                 19403                       USING XSENTRY,R6
 00257E D74F 6000 6000 00000 00000 19412                       CLEAR XSENTRY             PUT OPERATOR ON STACK
 002584 9203 6000      00000       19419                       SET   XSOPER
 002588 9204 6001      00001       19425                       MVI   XSUOPLVL,BADLVL
 00258C 41E0 6004            00004 19426                       LA    R14,XSUOPRTN
 002590 D203 E000 739E 00000 0291C 19427                       SAVERTNP @R14,BADUOP
 002596 9214 6002      00002       19430                       MVI   XSBOPLVL,LTLVL
 00259A 41E0 6008            00008 19431                       LA    R14,XSBOPRTN
 00259E D203 E000 73E2 00000 02960 19432                       SAVERTNP @R14,EVLLT
 0025A4 D203 600C 73E6 0000C 02964 19435                       MVC   XSOPCHAR(4),=CL4'LT  '
 0025AA 1BFF                       19436                       CLEAR R15                 ZERO CC
 0025AC 18D8/9808 D004_            19440                       PEND  ,
 DROP   *,R7
 DROP   XSENTRY,R6                 19460                       DROP  R6
1EVAL     (EVAL9204) (12:43) (15MAR04) EXPRESSION SCAN ROUTINES                                                             Page   92
0Current Usings:  (CP,R11) (CV,R12)
0Loc    Object Code    Addr1 Addr2  Stmt Lv Lineno    Source Statement           (Hibal 5, Asmedit 3.3)  HLASM R4.0  2004/03/15 12.43
+___    ______ ____    _____ _____  ____ __ ______    ______ _________
0                                  19468              ¿þþþþþþþþþþþþþþþþþþþþþþþþþþþþþþþþþþþþþþþþþþþþþþþþþþþþþþþþþþþþþþþþþþþþþÜ
                                   19469              Ÿ                                                                     Ÿ
                                   19470              Ÿ                                                                     Ÿ
                                   19471              Ÿ  SCNLE - SCANNED A 'LE'                                             Ÿ
                                   19472              Ÿ                                                                     Ÿ
                                   19473              Ÿ  PUT 'LE' OPERATOR ON EXPRESSION STACK @R6,                         Ÿ
                                   19474              Ÿ  SCAN LOC LEN IN R1,R0 ALREADY SET BY CALLER                        Ÿ
                                   19475              Ÿ  CALLED BY XXXSCAN, ZERO CC RETURNED                                Ÿ
                                   19476              Ÿ                                                                     Ÿ
                                   19477              Ÿ  DETAILED ENTRY/EXIT CONVENTIONS SAME AS FOR XXXSCAN                Ÿ
                                   19478              Ÿ                                                                     Ÿ
                                   19479              Ÿ                                                                     Ÿ
                                                      ¾þþþþþþþþþþþþþþþþþþþþþþþþþþþþþþþþþþþþþþþþþþþþþþþþþþþþþþþþþþþþþþþþþþþþþ»
00025BA 50E0 D000/9008_      00000 19480              SCNLE    PROC  ,
 USING  *,R7
 USING  XSENTRY,R6                 19519                       USING XSENTRY,R6
 0025D4 D74F 6000 6000 00000 00000 19528                       CLEAR XSENTRY             PUT OPERATOR ON STACK
 0025DA 9203 6000      00000       19535                       SET   XSOPER
 0025DE 9204 6001      00001       19541                       MVI   XSUOPLVL,BADLVL
 0025E2 41E0 6004            00004 19542                       LA    R14,XSUOPRTN
 0025E6 D203 E000 7348 00000 0291C 19543                       SAVERTNP @R14,BADUOP
 0025EC 9214 6002      00002       19546                       MVI   XSBOPLVL,LELVL
 0025F0 41E0 6008            00008 19547                       LA    R14,XSBOPRTN
 0025F4 D203 E000 7394 00000 02968 19548                       SAVERTNP @R14,EVLLE
 0025FA D203 600C 7398 0000C 0296C 19551                       MVC   XSOPCHAR(4),=CL4'LE  '
 002600 1BFF                       19552                       CLEAR R15                 ZERO CC
 002602 18D8/9808 D004_            19556                       PEND  ,
 DROP   *,R7
 DROP   XSENTRY,R6                 19576                       DROP  R6
1EVAL     (EVAL9204) (12:43) (15MAR04) EXPRESSION SCAN ROUTINES                                                             Page   93
0Current Usings:  (CP,R11) (CV,R12)
0Loc    Object Code    Addr1 Addr2  Stmt Lv Lineno    Source Statement           (Hibal 5, Asmedit 3.3)  HLASM R4.0  2004/03/15 12.43
+___    ______ ____    _____ _____  ____ __ ______    ______ _________
0                                  19584              ¿þþþþþþþþþþþþþþþþþþþþþþþþþþþþþþþþþþþþþþþþþþþþþþþþþþþþþþþþþþþþþþþþþþþþþÜ
                                   19585              Ÿ                                                                     Ÿ
                                   19586              Ÿ                                                                     Ÿ
                                   19587              Ÿ  SCNGT - SCANNED A 'GT'                                             Ÿ
                                   19588              Ÿ                                                                     Ÿ
                                   19589              Ÿ  PUT 'GT' OPERATOR ON EXPRESSION STACK @R6,                         Ÿ
                                   19590              Ÿ  SCAN LOC LEN IN R1,R0 ALREADY SET BY CALLER                        Ÿ
                                   19591              Ÿ  CALLED BY XXXSCAN, ZERO CC RETURNED                                Ÿ
                                   19592              Ÿ                                                                     Ÿ
                                   19593              Ÿ  DETAILED ENTRY/EXIT CONVENTIONS SAME AS FOR XXXSCAN                Ÿ
                                   19594              Ÿ                                                                     Ÿ
                                   19595              Ÿ                                                                     Ÿ
                                                      ¾þþþþþþþþþþþþþþþþþþþþþþþþþþþþþþþþþþþþþþþþþþþþþþþþþþþþþþþþþþþþþþþþþþþþþ»
0002610 50E0 D000/9008_      00000 19596              SCNGT    PROC  ,
 USING  *,R7
 USING  XSENTRY,R6                 19635                       USING XSENTRY,R6
 00262A D74F 6000 6000 00000 00000 19644                       CLEAR XSENTRY             PUT OPERATOR ON STACK
 002630 9203 6000      00000       19651                       SET   XSOPER
 002634 9204 6001      00001       19657                       MVI   XSUOPLVL,BADLVL
 002638 41E0 6004            00004 19658                       LA    R14,XSUOPRTN
 00263C D203 E000 72F2 00000 0291C 19659                       SAVERTNP @R14,BADUOP
 002642 9214 6002      00002       19662                       MVI   XSBOPLVL,GTLVL
 002646 41E0 6008            00008 19663                       LA    R14,XSBOPRTN
 00264A D203 E000 7346 00000 02970 19664                       SAVERTNP @R14,EVLGT
 002650 D203 600C 734A 0000C 02974 19667                       MVC   XSOPCHAR(4),=CL4'GT  '
 002656 1BFF                       19668                       CLEAR R15                 ZERO CC
 002658 18D8/9808 D004_            19672                       PEND  ,
 DROP   *,R7
 DROP   XSENTRY,R6                 19692                       DROP  R6
1EVAL     (EVAL9204) (12:43) (15MAR04) EXPRESSION SCAN ROUTINES                                                             Page   94
0Current Usings:  (CP,R11) (CV,R12)
0Loc    Object Code    Addr1 Addr2  Stmt Lv Lineno    Source Statement           (Hibal 5, Asmedit 3.3)  HLASM R4.0  2004/03/15 12.43
+___    ______ ____    _____ _____  ____ __ ______    ______ _________
0                                  19700              ¿þþþþþþþþþþþþþþþþþþþþþþþþþþþþþþþþþþþþþþþþþþþþþþþþþþþþþþþþþþþþþþþþþþþþþÜ
                                   19701              Ÿ                                                                     Ÿ
                                   19702              Ÿ                                                                     Ÿ
                                   19703              Ÿ  SCNGE - SCANNED A 'GE'                                             Ÿ
                                   19704              Ÿ                                                                     Ÿ
                                   19705              Ÿ  PUT 'GE' OPERATOR ON EXPRESSION STACK @R6,                         Ÿ
                                   19706              Ÿ  SCAN LOC LEN IN R1,R0 ALREADY SET BY CALLER                        Ÿ
                                   19707              Ÿ  CALLED BY XXXSCAN, ZERO CC RETURNED                                Ÿ
                                   19708              Ÿ                                                                     Ÿ
                                   19709              Ÿ  DETAILED ENTRY/EXIT CONVENTIONS SAME AS FOR XXXSCAN                Ÿ
                                   19710              Ÿ                                                                     Ÿ
                                   19711              Ÿ                                                                     Ÿ
                                                      ¾þþþþþþþþþþþþþþþþþþþþþþþþþþþþþþþþþþþþþþþþþþþþþþþþþþþþþþþþþþþþþþþþþþþþþ»
0002666 50E0 D000/9008_      00000 19712              SCNGE    PROC  ,
 USING  *,R7
 USING  XSENTRY,R6                 19751                       USING XSENTRY,R6
 002680 D74F 6000 6000 00000 00000 19760                       CLEAR XSENTRY             PUT OPERATOR ON STACK
 002686 9203 6000      00000       19767                       SET   XSOPER
 00268A 9204 6001      00001       19773                       MVI   XSUOPLVL,BADLVL
 00268E 41E0 6004            00004 19774                       LA    R14,XSUOPRTN
 002692 D203 E000 729C 00000 0291C 19775                       SAVERTNP @R14,BADUOP
 002698 9214 6002      00002       19778                       MVI   XSBOPLVL,GELVL
 00269C 41E0 6008            00008 19779                       LA    R14,XSBOPRTN
 0026A0 D203 E000 72F8 00000 02978 19780                       SAVERTNP @R14,EVLGE
 0026A6 D203 600C 72FC 0000C 0297C 19783                       MVC   XSOPCHAR(4),=CL4'GE  '
 0026AC 1BFF                       19784                       CLEAR R15                 ZERO CC
 0026AE 18D8/9808 D004_            19788                       PEND  ,
 DROP   *,R7
 DROP   XSENTRY,R6                 19808                       DROP  R6
1EVAL     (EVAL9204) (12:43) (15MAR04) EXPRESSION SCAN ROUTINES                                                             Page   95
0Current Usings:  (CP,R11) (CV,R12)
0Loc    Object Code    Addr1 Addr2  Stmt Lv Lineno    Source Statement           (Hibal 5, Asmedit 3.3)  HLASM R4.0  2004/03/15 12.43
+___    ______ ____    _____ _____  ____ __ ______    ______ _________
0                                  19816              ¿þþþþþþþþþþþþþþþþþþþþþþþþþþþþþþþþþþþþþþþþþþþþþþþþþþþþþþþþþþþþþþþþþþþþþÜ
                                   19817              Ÿ                                                                     Ÿ
                                   19818              Ÿ                                                                     Ÿ
                                   19819              Ÿ  SCNOR - SCANNED A 'OR'                                             Ÿ
                                   19820              Ÿ                                                                     Ÿ
                                   19821              Ÿ  PUT 'OR' OPERATOR ON EXPRESSION STACK @R6,                         Ÿ
                                   19822              Ÿ  SCAN LOC LEN IN R1,R0 ALREADY SET BY CALLER                        Ÿ
                                   19823              Ÿ  CALLED BY XXXSCAN, ZERO CC RETURNED                                Ÿ
                                   19824              Ÿ                                                                     Ÿ
                                   19825              Ÿ  DETAILED ENTRY/EXIT CONVENTIONS SAME AS FOR XXXSCAN                Ÿ
                                   19826              Ÿ                                                                     Ÿ
                                   19827              Ÿ                                                                     Ÿ
                                                      ¾þþþþþþþþþþþþþþþþþþþþþþþþþþþþþþþþþþþþþþþþþþþþþþþþþþþþþþþþþþþþþþþþþþþþþ»
00026BC 50E0 D000/9008_      00000 19828              SCNOR    PROC  ,
 USING  *,R7
 USING  XSENTRY,R6                 19867                       USING XSENTRY,R6
 0026D6 D74F 6000 6000 00000 00000 19876                       CLEAR XSENTRY             PUT OPERATOR ON STACK
 0026DC 9203 6000      00000       19883                       SET   XSOPER
 0026E0 9204 6001      00001       19889                       MVI   XSUOPLVL,BADLVL
 0026E4 41E0 6004            00004 19890                       LA    R14,XSUOPRTN
 0026E8 D203 E000 7246 00000 0291C 19891                       SAVERTNP @R14,BADUOP
 0026EE 9218 6002      00002       19894                       MVI   XSBOPLVL,ORLVL
 0026F2 41E0 6008            00008 19895                       LA    R14,XSBOPRTN
 0026F6 D203 E000 72AA 00000 02980 19896                       SAVERTNP @R14,EVLOR
 0026FC D203 600C 72AE 0000C 02984 19899                       MVC   XSOPCHAR(4),=CL4'OR  '
 002702 1BFF                       19900                       CLEAR R15                 ZERO CC
 002704 18D8/9808 D004_            19904                       PEND  ,
 DROP   *,R7
 DROP   XSENTRY,R6                 19924                       DROP  R6
1EVAL     (EVAL9204) (12:43) (15MAR04) EXPRESSION SCAN ROUTINES                                                             Page   96
0Current Usings:  (CP,R11) (CV,R12)
0Loc    Object Code    Addr1 Addr2  Stmt Lv Lineno    Source Statement           (Hibal 5, Asmedit 3.3)  HLASM R4.0  2004/03/15 12.43
+___    ______ ____    _____ _____  ____ __ ______    ______ _________
0                                  19932              ¿þþþþþþþþþþþþþþþþþþþþþþþþþþþþþþþþþþþþþþþþþþþþþþþþþþþþþþþþþþþþþþþþþþþþþÜ
                                   19933              Ÿ                                                                     Ÿ
                                   19934              Ÿ                                                                     Ÿ
                                   19935              Ÿ  SCNAND - SCANNED A 'AND'                                           Ÿ
                                   19936              Ÿ                                                                     Ÿ
                                   19937              Ÿ  PUT 'AND' OPERATOR ON EXPRESSION STACK @R6,                        Ÿ
                                   19938              Ÿ  SCAN LOC LEN IN R1,R0 ALREADY SET BY CALLER                        Ÿ
                                   19939              Ÿ  CALLED BY XXXSCAN, ZERO CC RETURNED                                Ÿ
                                   19940              Ÿ                                                                     Ÿ
                                   19941              Ÿ  DETAILED ENTRY/EXIT CONVENTIONS SAME AS FOR XXXSCAN                Ÿ
                                   19942              Ÿ                                                                     Ÿ
                                   19943              Ÿ                                                                     Ÿ
                                                      ¾þþþþþþþþþþþþþþþþþþþþþþþþþþþþþþþþþþþþþþþþþþþþþþþþþþþþþþþþþþþþþþþþþþþþþ»
0002712 50E0 D000/9008_      00000 19944              SCNAND   PROC  ,
 USING  *,R7
 USING  XSENTRY,R6                 19983                       USING XSENTRY,R6
 00272C D74F 6000 6000 00000 00000 19992                       CLEAR XSENTRY             PUT OPERATOR ON STACK
 002732 9203 6000      00000       19999                       SET   XSOPER
 002736 9204 6001      00001       20005                       MVI   XSUOPLVL,BADLVL
 00273A 41E0 6004            00004 20006                       LA    R14,XSUOPRTN
 00273E D203 E000 71F0 00000 0291C 20007                       SAVERTNP @R14,BADUOP
 002744 9218 6002      00002       20010                       MVI   XSBOPLVL,ANDLVL
 002748 41E0 6008            00008 20011                       LA    R14,XSBOPRTN
 00274C D203 E000 725C 00000 02988 20012                       SAVERTNP @R14,EVLAND
 002752 D203 600C 7260 0000C 0298C 20015                       MVC   XSOPCHAR(4),=CL4'AND '
 002758 1BFF                       20016                       CLEAR R15                 ZERO CC
 00275A 18D8/9808 D004_            20020                       PEND  ,
 DROP   *,R7
 DROP   XSENTRY,R6                 20040                       DROP  R6
1EVAL     (EVAL9204) (12:43) (15MAR04) EXPRESSION SCAN ROUTINES                                                             Page   97
0Current Usings:  (CP,R11) (CV,R12)
0Loc    Object Code    Addr1 Addr2  Stmt Lv Lineno    Source Statement           (Hibal 5, Asmedit 3.3)  HLASM R4.0  2004/03/15 12.43
+___    ______ ____    _____ _____  ____ __ ______    ______ _________
0                                  20048              ¿þþþþþþþþþþþþþþþþþþþþþþþþþþþþþþþþþþþþþþþþþþþþþþþþþþþþþþþþþþþþþþþþþþþþþÜ
                                   20049              Ÿ                                                                     Ÿ
                                   20050              Ÿ                                                                     Ÿ
                                   20051              Ÿ  SCNOP - SCANNED AN OPEN PARENTHESIS "("                            Ÿ
                                   20052              Ÿ                                                                     Ÿ
                                   20053              Ÿ  "(" INDICATES THE START OF A NEW EXPRESSION.  WE EVALUATE IT       Ÿ
                                   20054              Ÿ  BY RECURSIVELY CALLING XXXEVAL .                                   Ÿ
                                   20055              Ÿ                                                                     Ÿ
                                   20056              Ÿ                                                                     Ÿ
                                   20057              Ÿ  ON ENTRY:                                                          Ÿ
                                   20058              Ÿ       R1 - ADDRESS OF "(" IN EXPRESSION                             Ÿ
                                   20059              Ÿ       R0 - LENGTH OF EXPRESSION REMAINING                           Ÿ
                                   20060              Ÿ       R6 - EXPRESION STACK                                          Ÿ
                                   20061              Ÿ                                                                     Ÿ
                                   20062              Ÿ  ON EXIT:                                                           Ÿ
                                   20063              Ÿ       R0 - LENGTH OF REMAINING EXPRESSION (UPDATED)                 Ÿ
                                   20064              Ÿ       R1 - ADDRESS OF REMAINING EXPRESSION (POINTS PAST ")")        Ÿ
                                   20065              Ÿ       R6 - VALUE OF PARENTHESIZED EXPRESSION PUT ON STACK           Ÿ
                                   20066              Ÿ      R15 - CC=ZERO, IF ALL OK                                       Ÿ
                                   20067              Ÿ            CC=NZ, IF ERROR... ERROR MSG TSEG 'D                     Ÿ
                                   20068              Ÿ                                                                     Ÿ
                                   20069              Ÿ                                                                     Ÿ
                                   20070              Ÿ                                                                     Ÿ
                                   20071              Ÿ                                                                     Ÿ
                                                      ¾þþþþþþþþþþþþþþþþþþþþþþþþþþþþþþþþþþþþþþþþþþþþþþþþþþþþþþþþþþþþþþþþþþþþþ»
0002768 50E0 D000/9008_      00000 20072              SCNOP    PROC  ,
 USING  *,R7
 USING  XSENTRY,R6                 20111                       USING XSENTRY,R6
                                   20120              *$ DELETE NEXT LINE IF NEVER HAPPENS ! ,,, SHOULD NEVER HAPPEN !!!
 002782 5900 720E/4730_      02990 20121                       IF    (R0,LE,0),' BOMB '
 00278C 4111 0001            00001 20145                       LA    R1,1(R1)            BUMP PAST "("
 002790 0600                       20146                       BCTR  R0,0
                                   20147
                                   20148                       COMMENT                   EVALUATE PARENTHESIZED EXPRESSION
 002792 58E0 7212/0DEE       02994 20149                       ACALL XXXEVAL
                                   20153
                                   20154                       COMMENT                   IF EXEPRESSION OK
 002798 4770 7076            027F8 20155                       IF    Z,BEGIN
 00279C 1200/47D0 7030_            20166  1                      IF    ((R0,POS),AND,(@R1,EQ,')')),BEGIN
 0027AA 4111 0001            00001 20195  2                        LA    R1,1(R1)
 0027AE 0600                       20196  2                        BCTR  R0,0                EVALUATED OK, SKIP ")", CC=ZERO
 0027B0 1BFF                       20197  2                        CLEAR R15
 0027B2                            20201  1                      END
                                   20205  1
 0027B2 7034/7034/47F0_027B2 027A0 20206  1                      ELSE  BEGIN               IF NO MATCHING ")"
 0027B6 9001 D000/41D0_      00000 20219  2                        XPUSH R0,R1
 0027BE 4110 714E/4100_      028D0 20222  2                        TSEG  'Expecting ")".  '
 0027D0 4BD0 7234/9801_      029B6 20240  2                        XPOP  R0,R1
 0027D8 58E0 7216/0DEE       02998 20243  2                        VCALL CHECKEND
 0027DE 4770 7072            027F4 20247  2                        IF    Z,BEGIN
 0027E2 4110 7258/4100_      029DA 20258  3                          TSEG  'Unmatched parenthesis in expression. '
 0027F4                            20276  2                        END
 0027F4 41F0 0004            00004 20280  2                        LA    R15,4
1EVAL     (EVAL9204) (12:43) (15MAR04) EXPRESSION SCAN ROUTINES                                                             Page   98
0Current Usings:  (XSENTRY,R6) (*,R7) (CP,R11) (CV,R12)
0Loc    Object Code    Addr1 Addr2  Stmt Lv Lineno    Source Statement           (Hibal 5, Asmedit 3.3)  HLASM R4.0  2004/03/15 12.43
+___    ______ ____    _____ _____  ____ __ ______    ______ _________
00027F8                            20281  1                      END
 0027F8                            20285                       END
                                   20289
 0027F8 707A/47F0 70A0_027F8 0279A 20290                       ELSEIF (R15,NEG),BEGIN    IF NULL EXPRESSION
 002802 58E0 7216/0DEE       02998 20313  1                      VCALL CHECKEND
 002808 4770 709C            0281E 20317  1                      IF    Z,BEGIN
 00280C 4110 7236/4100_      029B8 20328  2                        TSEG  'Missing operand(s) in expression. '
 00281E                            20346  1                      END
 00281E 41F0 0004            00004 20350  1                      LA    R15,4
 002822                            20351                       END
                                   20355
 002822 9001 8004            00004 20356                       PRETURN (R0,R1)
 002826 18D8/9808 D004_            20358                       PEND  ,
 DROP   *,R7
 DROP   XSENTRY,R6                 20378                       DROP  R6
1EVAL     (EVAL9204) (12:43) (15MAR04) EXPRESSION SCAN ROUTINES                                                             Page   99
0Current Usings:  (CP,R11) (CV,R12)
0Loc    Object Code    Addr1 Addr2  Stmt Lv Lineno    Source Statement           (Hibal 5, Asmedit 3.3)  HLASM R4.0  2004/03/15 12.43
+___    ______ ____    _____ _____  ____ __ ______    ______ _________
0                                  20386              ¿þþþþþþþþþþþþþþþþþþþþþþþþþþþþþþþþþþþþþþþþþþþþþþþþþþþþþþþþþþþþþþþþþþþþþÜ
                                   20387              Ÿ                                                                     Ÿ
                                   20388              Ÿ                                                                     Ÿ
                                   20389              Ÿ  SCNCP - SCANNED A CLOSE PARENTHESIS ")"                            Ÿ
                                   20390              Ÿ                                                                     Ÿ
                                   20391              Ÿ  ")" INDICATES THE END OF AN EXPRESSION                             Ÿ
                                   20392              Ÿ                                                                     Ÿ
                                   20393              Ÿ  PUT 'END OF EXPRESSION' ENTRY ON STACK @R6                         Ÿ
                                   20394              Ÿ  LEAVE R1 POINTING TO ")"                                           Ÿ
                                   20395              Ÿ  RETURN ZERO CC, ROUTINE CALLED BY XXXSCAN                          Ÿ
                                   20396              Ÿ                                                                     Ÿ
                                   20397              Ÿ  DETAILED ENTRY/EXIT CONVENTIONS SAME AS FOR XXXSCAN                Ÿ
                                   20398              Ÿ                                                                     Ÿ
                                   20399              Ÿ                                                                     Ÿ
                                                      ¾þþþþþþþþþþþþþþþþþþþþþþþþþþþþþþþþþþþþþþþþþþþþþþþþþþþþþþþþþþþþþþþþþþþþþ»
0002834 50E0 D000/9008_      00000 20400              SCNCP    PROC  ,
 USING  *,R7
 USING  XSENTRY,R6                 20439                       USING XSENTRY,R6
 00284E 9204 6000      00000       20448                       SET   XSEND
 002852 1BFF                       20454                       CLEAR R15
 002854 9001 8004            00004 20458                       PRETURN (R0,R1)
 002858 18D8/9808 D004_            20460                       PEND  ,
 DROP   *,R7
 DROP   XSENTRY,R6                 20480                       DROP  R6
1EVAL     (EVAL9204) (12:43) (15MAR04) EXPRESSION SCAN ROUTINES                                                             Page  100
0Current Usings:  (CP,R11) (CV,R12)
0Loc    Object Code    Addr1 Addr2  Stmt Lv Lineno    Source Statement           (Hibal 5, Asmedit 3.3)  HLASM R4.0  2004/03/15 12.43
+___    ______ ____    _____ _____  ____ __ ______    ______ _________
0                                  20488              ¿þþþþþþþþþþþþþþþþþþþþþþþþþþþþþþþþþþþþþþþþþþþþþþþþþþþþþþþþþþþþþþþþþþþþþÜ
                                   20489              Ÿ                                                                     Ÿ
                                   20490              Ÿ                                                                     Ÿ
                                   20491              Ÿ  SCNCOMMA - SCANNED A COMMA                                         Ÿ
                                   20492              Ÿ                                                                     Ÿ
                                   20493              Ÿ  A COMMA INDICATES THE END OF AN EXPRESSION                         Ÿ
                                   20494              Ÿ                                                                     Ÿ
                                   20495              Ÿ  PUT 'END OF EXPRESSION' ENTRY ON STACK @R6                         Ÿ
                                   20496              Ÿ  POINT R1 PAST COMMA.                                               Ÿ
                                   20497              Ÿ  RETURN ZERO CC, ROUTINE CALLED BY XXXSCAN                          Ÿ
                                   20498              Ÿ                                                                     Ÿ
                                   20499              Ÿ  DETAILED ENTRY/EXIT CONVENTIONS SAME AS FOR XXXSCAN                Ÿ
                                   20500              Ÿ                                                                     Ÿ
                                   20501              Ÿ                                                                     Ÿ
                                                      ¾þþþþþþþþþþþþþþþþþþþþþþþþþþþþþþþþþþþþþþþþþþþþþþþþþþþþþþþþþþþþþþþþþþþþþ»
0002866 50E0 D000/9008_      00000 20502              SCNCOMMA PROC  ,
 USING  *,R7
 USING  XSENTRY,R6                 20541                       USING XSENTRY,R6
 002880 9204 6000      00000       20550                       SET   XSEND
 002884 1BFF                       20556                       CLEAR R15
 002886 9001 8004            00004 20560                       PRETURN (R0,R1)
 00288A 18D8/9808 D004_            20562                       PEND  ,
 DROP   *,R7
 DROP   XSENTRY,R6                 20582                       DROP  R6
1EVAL     (EVAL9204) (12:43) (15MAR04) EXPRESSION SCAN ROUTINES                                                             Page  101
0Current Usings:  (CP,R11) (CV,R12)
0Loc    Object Code    Addr1 Addr2  Stmt Lv Lineno    Source Statement           (Hibal 5, Asmedit 3.3)  HLASM R4.0  2004/03/15 12.43
+___    ______ ____    _____ _____  ____ __ ______    ______ _________
0                                  20590              ¿þþþþþþþþþþþþþþþþþþþþþþþþþþþþþþþþþþþþþþþþþþþþþþþþþþþþþþþþþþþþþþþþþþþþþÜ
                                   20591              Ÿ                                                                     Ÿ
                                   20592              Ÿ                                                                     Ÿ
                                   20593              Ÿ  SCNCP - SCANNED A SIMI-COLON                                       Ÿ
                                   20594              Ÿ                                                                     Ÿ
                                   20595              Ÿ  A ";" INDICATES THE END OF AN EXPRESSION                           Ÿ
                                   20596              Ÿ                                                                     Ÿ
                                   20597              Ÿ  PUT 'END OF EXPRESSION' ENTRY ON STACK @R6                         Ÿ
                                   20598              Ÿ  LEAVE R1 POINTING TO ";"                                           Ÿ
                                   20599              Ÿ  RETURN ZERO CC, ROUTINE CALLED BY XXXSCAN                          Ÿ
                                   20600              Ÿ                                                                     Ÿ
                                   20601              Ÿ  DETAILED ENTRY/EXIT CONVENTIONS SAME AS FOR XXXSCAN                Ÿ
                                   20602              Ÿ                                                                     Ÿ
                                   20603              Ÿ                                                                     Ÿ
                                                      ¾þþþþþþþþþþþþþþþþþþþþþþþþþþþþþþþþþþþþþþþþþþþþþþþþþþþþþþþþþþþþþþþþþþþþþ»
0002898 50E0 D000/9008_      00000 20604              SCNSIMI  PROC  ,
 USING  *,R7
 USING  XSENTRY,R6                 20643                       USING XSENTRY,R6
 0028B2 9204 6000      00000       20652                       SET   XSEND
 0028B6 1BFF                       20658                       CLEAR R15
 0028B8 9001 8004            00004 20662                       PRETURN (R0,R1)
 0028BC 18D8/9808 D004_            20664                       PEND  ,
 DROP   *,R7
 DROP   XSENTRY,R6                 20684                       DROP  R6
1EVAL     (EVAL9204) (12:43) (15MAR04) EXPRESSION SCAN ROUTINES                                                             Page  102
0Current Usings:  (CP,R11) (CV,R12)
0Loc    Object Code    Addr1 Addr2  Stmt Lv Lineno    Source Statement           (Hibal 5, Asmedit 3.3)  HLASM R4.0  2004/03/15 12.43
+___    ______ ____    _____ _____  ____ __ ______    ______ _________
0                                  20692                       QLTORG
1EVAL     (EVAL9204) (12:43) (15MAR04) EXPRESSION SCAN ROUTINES                                                             Page  103
0Current Usings:  (CP,R11) (CV,R12)
0Loc    Object Code    Addr1 Addr2  Stmt Lv Lineno    Source Statement           (Hibal 5, Asmedit 3.3)  HLASM R4.0  2004/03/15 12.43
+___    ______ ____    _____ _____  ____ __ ______    ______ _________
0                                  20755              ¿þþþþþþþþþþþþþþþþþþþþþþþþþþþþþþþþþþþþþþþþþþþþþþþþþþþþþþþþþþþþþþþþþþþþþÜ
                                   20756              Ÿ                                                                     Ÿ
                                   20757              Ÿ                                                                     Ÿ
                                   20758              Ÿ  SCANOPER - SCAN FOR AN OPERATOR                                    Ÿ
                                   20759              Ÿ                                                                     Ÿ
                                   20760              Ÿ  THIS ROUTINE IS ALMOST IDENTICAL TO XXXSCAN.  IT IS CALLED         Ÿ
                                   20761              Ÿ  WHENEVER WE HAVE JUST SCANNED A TERM (IE. VALUE).  IF NO           Ÿ
                                   20762              Ÿ  OPERATOR IS FOUND THEN WE RETURN, AN END OF EXPRESSION AND         Ÿ
                                   20763              Ÿ  RETURN R1,R0 AS THEY WERE ON ENTRY.                                Ÿ
                                   20764              Ÿ                                                                     Ÿ
                                   20765              Ÿ  ON ENTRY:                                                          Ÿ
                                   20766              Ÿ       R0 - EXPRESSION STRING LENGTH                                 Ÿ
                                   20767              Ÿ       R1 - EXPRESSION STRING LOCATION                               Ÿ
                                   20768              Ÿ       R6 - EXPRESSION STACK POINTER                                 Ÿ
                                   20769              Ÿ                                                                     Ÿ
                                   20770              Ÿ  ON EXIT:                                                           Ÿ
                                   20771              Ÿ       R0 - REMAINING STRING LENGTH                                  Ÿ
                                   20772              Ÿ       R1 - REMAINING STRING ADDRESS                                 Ÿ
                                   20773              Ÿ       R6 - EXPRESSION STACK ENTRY POINTER (NOT CHANGED)             Ÿ
                                   20774              Ÿ            EXPRESSION ENTRY MAY BE ONE OF THE FOLLOWING:            Ÿ
                                   20775              Ÿ               A) OPERATOR                                           Ÿ
                                   20776              Ÿ               B) END OF EXPRESSION                                  Ÿ
                                   20777              Ÿ      R15 - CC=ZERO, IF OPER FOUND, OR NOT FOUND                     Ÿ
                                   20778              Ÿ            CC=NZ, IF INVALID OPERATOR FOUND,, ERR MSG IS T'SEGD     Ÿ
                                   20779              Ÿ                                                                     Ÿ
                                   20780              Ÿ                                                                     Ÿ
                                                      ¾þþþþþþþþþþþþþþþþþþþþþþþþþþþþþþþþþþþþþþþþþþþþþþþþþþþþþþþþþþþþþþþþþþþþþ»
0002A00 50E0 D000/9008_      00000 20781              SCANOPER PROC  ,          SCAN EXPRESSION
 USING  *,R7
 USING  XSENTRY,R6                 20820                       USING XSENTRY,R6
 002A1A D74F 6000 6000 00000 00000 20829                       CLEAR XSENTRY
 002A20 1830                       20836                       LR    R3,R0               R3 - SCAN STRING LEN
 002A22 1A01                       20837                       AR    R0,R1               R0 - END OF SCAN STR
 002A24 1B22                       20838                       SR    R2,R2
 002A26 1233/47D0 7020             20839                       IF    (R3,POS),BEGIN
 002A2C 0630/4430 76FC_            20853  1                      DEX   R3,' TRT 0(0,R1),SCNOPTBL'    SCAN LINE
 002A32 4770 7020            02A3A 20872  1                      IF    Z,BEGIN
 002A36 1810                       20883  2                        LR    R1,R0
 002A38 1B22                       20884  2                        SR    R2,R2
 002A3A                            20885  1                      END
 002A3A                            20889                       END
 002A3A 1B01                       20893                       SR    R0,R1               R1,R0 - REMAINING STR LOC,LEN
                                   20894              *  BALR REMOVED BY CH 02/91
                                   20895              *        L     R14,SCNOPRTN(R2)    GET APPROPRIATE SCAN ROUTINE
                                   20896              *        BALR  R14,R14             "ACALL" SCAN ROUTINE
 002A3C 5920 762E/4770_      03048 20897                       IF     (R2,EQ,00),'ACALL SCNBLANK'
 002A4A 7034/47F0 7042_02A4A 02A42 20923                       ELSEIF (R2,EQ,04),'ACALL SCNNOOP'
 002A5C 7046/47F0 7054_02A5C 02A54 20958                       ELSEIF (R2,EQ,08),'ACALL SCNOWORD'
 002A6E 7058/47F0 7066_02A6E 02A66 20993                       ELSEIF (R2,EQ,12),'ACALL SCNPLUS'
 002A80 706A/47F0 7078_02A80 02A78 21028                       ELSEIF (R2,EQ,16),'ACALL SCNMINUS'
 002A92 707C/47F0 708A_02A92 02A8A 21063                       ELSEIF (R2,EQ,20),'ACALL SCNMULT'
 002AA4 708E/47F0 709C_02AA4 02A9C 21098                       ELSEIF (R2,EQ,24),'ACALL SCNDIV'
 002AB6 70A0/47F0 70AE_02AB6 02AAE 21133                       ELSEIF (R2,EQ,28),'ACALL SCNCAT'
1EVAL     (EVAL9204) (12:43) (15MAR04) EXPRESSION SCAN ROUTINES                                                             Page  104
0Current Usings:  (XSENTRY,R6) (*,R7) (CP,R11) (CV,R12)
0Loc    Object Code    Addr1 Addr2  Stmt Lv Lineno    Source Statement           (Hibal 5, Asmedit 3.3)  HLASM R4.0  2004/03/15 12.43
+___    ______ ____    _____ _____  ____ __ ______    ______ _________
0002AC8 70B2/47F0 70C0_02AC8 02AC0 21168                       ELSEIF (R2,EQ,32),'ACALL SCNTILDA'
 002ADA 70C4/47F0 70D2_02ADA 02AD2 21203                       ELSEIF (R2,EQ,36),'ACALL SCNCOMMA'
 002AEC 70D6/47F0 70E4_02AEC 02AE4 21238                       ELSEIF (R2,EQ,40),'ACALL SCNSIMI'
                                   21273                       ¿þþþþþþþþþþþþþþþþþþþþþþþþþþþþþþþþþþþþþþþþþþþþþþþþþþþþþþþþþÜ
                                   21274                       Ÿ  ALL SCAN ROUTINES ARE CALLED WITH THE SAME ENTRY/EXIT  Ÿ
                                   21275                       Ÿ  AS XXXSCAN ROUTINES ABOVE.                             Ÿ
                                   21276                       ¾þþþþþþþþþþþþþþþþþþþþþþþþþþþþþþþþþþþþþþþþþþþþþþþþþþþþþþþþþ»
 002AFE 9001 8004            00004 21277                       PRETURN (R0,R1)
 002B02 18D8/9808 D004_            21279                       PEND  ,
 DROP   *,R7
 DROP   XSENTRY,R6                 21299                       DROP  R6
1EVAL     (EVAL9204) (12:43) (15MAR04) EXPRESSION SCAN ROUTINES                                                             Page  105
0Current Usings:  (CP,R11) (CV,R12)
0Loc    Object Code    Addr1 Addr2  Stmt Lv Lineno    Source Statement           (Hibal 5, Asmedit 3.3)  HLASM R4.0  2004/03/15 12.43
+___    ______ ____    _____ _____  ____ __ ______    ______ _________
0                                  21307              *
                                   21308              * OPERATOR SCAN TRT TABLE
                                   21309              *
 002B10                            21310              SCNOPTBL DS    0F                  SCAN TRT TABLE
 002B10 0000000000000000           21311                       DC    256X'00'
 002C10                            21312              SCNOPRTN DS    0F
 002C10                02C10 02B10 21313                       ORG   SCNOPTBL            04 - DEFAULT IS ILLEGAL CHAR
 002B10 0404040404040404           21314                       DC    256X'04'
 002C10                02C10 02B50 21315                       ORG   SCNOPTBL+C' '       00 - C' ' IS ONLY NON SPECIAL CHAR
 002B50 00                         21316                       DC    X'00'
 002B51                02B51 02B91 21317                       ORG   SCNOPTBL+C'a'       08 - IS FOR ALL ALPHAS
 002B91 0808080808080808           21318                       DC    9X'08'
 002B9A                02B9A 02BA1 21319                       ORG   SCNOPTBL+C'j'
 002BA1 0808080808080808           21320                       DC    9X'08'
 002BAA                02BAA 02BB2 21321                       ORG   SCNOPTBL+C's'
 002BB2 0808080808080808           21322                       DC    8X'08'
 002BBA                02BBA 02BD1 21323                       ORG   SCNOPTBL+C'A'
 002BD1 0808080808080808           21324                       DC    9X'08'
 002BDA                02BDA 02BE1 21325                       ORG   SCNOPTBL+C'J'
 002BE1 0808080808080808           21326                       DC    9X'08'
 002BEA                02BEA 02BF2 21327                       ORG   SCNOPTBL+C'S'
 002BF2 0808080808080808           21328                       DC    8X'08'
 002BFA                02BFA 02C10 21329                       ORG   SCNOPTBL+256
                                   21330                       ¿þþþþþþþþþþþþþþþþþþþþþþþþþþþþþþþþþþþþþþþþþþþÜ
                                   21331                       Ÿ  A SIMPLE SCAN CHAR/TABLE/ROUTINES MACRO  Ÿ
                                   21332                       ¾þþþþþþþþþþþþþþþþþþþþþþþþþþþþþþþþþþþþþþþþþþþ»
                                   21333                       MACRO
                                   21334                       SCNOP &CHAR,&RTNOFF,&ROUTINE
                                   21335                       ORG   SCNOPTBL+&CHAR
                                   21336                       DC    AL1(&RTNOFF)
                                   21337                       ORG   SCNOPRTN+&RTNOFF
                                   21338                       DC    A(&ROUTINE)
                                   21339                       MEND
                                   21340                       ¿þþþþþþþþþþþþþþþþþÜ
                                   21341                       Ÿ  SCAN ROUTINES  Ÿ
                                   21342                       ¾þþþþþþþþþþþþþþþþþ»
 002C10 00/000018A8    02C10 02B50 21343                       SCNOP  C' ',00,SCNBLANK    0 - BLANK
 002C14 04/00002C3C    02C14 02B7F 21348                       SCNOP  C'?',04,SCNNOOP     4 - ILLEGALS, NO OPERATOR FOUND
 002C18 08/00002C6E    02C18 02BD1 21353                       SCNOP  C'A',08,SCNOWORD    8 - ALPHAS
 002C1C 0C/00002210    02C1C 02B5E 21358                       SCNOP  C'+',12,SCNPLUS     +   OPERATORS
 002C20 10/00002270    02C20 02B70 21363                       SCNOP  C'-',16,SCNMINUS    -
 002C24 14/000022D0    02C24 02B6C 21368                       SCNOP  C'*',20,SCNMULT     *   (THIS IS ALSO CURRENT LINE)
 002C28 18/0000239C    02C28 02B71 21373                       SCNOP  C'/',24,SCNDIV      /
 002C2C 1C/000023FC    02C2C 02B5F 21378                       SCNOP  C'|',28,SCNCAT      |
 002C30 20/00002478    02C30 02B6F 21383                       SCNOP  C'~',32,SCNTILDA    ~   (USED AS NOT)
 002C34 24/00002866    02C34 02B7B 21388                       SCNOP  C',',36,SCNCOMMA    ,   TERMINATORS
 002C38 28/00002898    02C38 02B6E 21393                       SCNOP  C';',40,SCNSIMI     ;
 002C3C                02C3C 02C3C 21398                       ORG   SCNOPRTN+40+4
1EVAL     (EVAL9204) (12:43) (15MAR04) EXPRESSION SCAN ROUTINES                                                             Page  106
0Current Usings:  (CP,R11) (CV,R12)
0Loc    Object Code    Addr1 Addr2  Stmt Lv Lineno    Source Statement           (Hibal 5, Asmedit 3.3)  HLASM R4.0  2004/03/15 12.43
+___    ______ ____    _____ _____  ____ __ ______    ______ _________
0                                  21400              ¿þþþþþþþþþþþþþþþþþþþþþþþþþþþþþþþþþþþþþþþþþþþþþþþþþþþþþþþþþþþþþþþþþþþþþÜ
                                   21401              Ÿ                                                                     Ÿ
                                   21402              Ÿ                                                                     Ÿ
                                   21403              Ÿ  SCNNOOP - NO OPERATOR SCANNED                                      Ÿ
                                   21404              Ÿ                                                                     Ÿ
                                   21405              Ÿ  ANY THING THAT IS NOT AN OPERATOR, IS RETURNED AS END OF EXPR      Ÿ
                                   21406              Ÿ                                                                     Ÿ
                                   21407              Ÿ  PUT 'END OF EXPRESSION' ENTRY ON STACK                             Ÿ
                                   21408              Ÿ  LEAVE R1 POINTING TO NON-OPERATOR                                  Ÿ
                                   21409              Ÿ  RETURN ZERO CC,  ROUTINE CALLED BY SCANOPER                        Ÿ
                                   21410              Ÿ                                                                     Ÿ
                                   21411              Ÿ  DETAILED ENTRY/EXIT CONVENTIONS SAME AS SCANOPER                   Ÿ
                                   21412              Ÿ                                                                     Ÿ
                                   21413              Ÿ                                                                     Ÿ
                                                      ¾þþþþþþþþþþþþþþþþþþþþþþþþþþþþþþþþþþþþþþþþþþþþþþþþþþþþþþþþþþþþþþþþþþþþþ»
0002C3C 50E0 D000/9008_      00000 21414              SCNNOOP  PROC  ,
 USING  *,R7
 USING  XSENTRY,R6                 21453                       USING XSENTRY,R6
 002C56 9204 6000      00000       21462                       SET   XSEND
 002C5A 1BFF                       21468                       CLEAR R15
 002C5C 9001 8004            00004 21472                       PRETURN (R0,R1)
 002C60 18D8/9808 D004_            21474                       PEND  ,
 DROP   *,R7
 DROP   XSENTRY,R6                 21494                       DROP  R6
1EVAL     (EVAL9204) (12:43) (15MAR04) EXPRESSION SCAN ROUTINES                                                             Page  107
0Current Usings:  (CP,R11) (CV,R12)
0Loc    Object Code    Addr1 Addr2  Stmt Lv Lineno    Source Statement           (Hibal 5, Asmedit 3.3)  HLASM R4.0  2004/03/15 12.43
+___    ______ ____    _____ _____  ____ __ ______    ______ _________
0                                  21502              ¿þþþþþþþþþþþþþþþþþþþþþþþþþþþþþþþþþþþþþþþþþþþþþþþþþþþþþþþþþþþþþþþþþþþþþÜ
                                   21503              Ÿ                                                                     Ÿ
                                   21504              Ÿ                                                                     Ÿ
                                   21505              Ÿ  SCNOWORD - SCAN WORD,  BUT ONLY ACCEPT OPERATORS                   Ÿ
                                   21506              Ÿ             (EG. NE,OR,AND, ...)                                    Ÿ
                                   21507              Ÿ                                                                     Ÿ
                                   21508              Ÿ  IF AN OPERATOR IS SCANNED, WE CALL THE APPROPRIATE ROUTINE         Ÿ
                                   21509              Ÿ  TO PUT THE OPERATOR ON THE STACK,,, AND UPDATE THE EXPR            Ÿ
                                   21510              Ÿ  LOC, LEN POINTERS (R1,R0).                                         Ÿ
                                   21511              Ÿ                                                                     Ÿ
                                   21512              Ÿ  IF NO OPERATOR IS SCANNED,  WE PUT AN END ON THE STACK AND         Ÿ
                                   21513              Ÿ  RETURN THE EXPR LOC,LEN POINTERS (R1,R0) UNCHANGED.                Ÿ
                                   21514              Ÿ                                                                     Ÿ
                                   21515              Ÿ  RETURN ZERO CC,  ROUTINE CALLED BY SCANOPER.                       Ÿ
                                   21516              Ÿ  DETAILED ENTRY/EXIT CONVENTIONS SAME AS SCANOPER                   Ÿ
                                   21517              Ÿ                                                                     Ÿ
                                   21518              Ÿ                                                                     Ÿ
                                                      ¾þþþþþþþþþþþþþþþþþþþþþþþþþþþþþþþþþþþþþþþþþþþþþþþþþþþþþþþþþþþþþþþþþþþþþ»
0000000                00000 00008 21519              SCNWWA   RECORD BEGIN
 000000                            21527  1           SCNWLEN    DS    F                   LENGTH
 000004                            21528  1           SCNWLOC    DS    F                   LOCATION
 000008                00008 00008 21529                       END
                                   21538              *
                                   21539              *
 002C6E 50E0 D000/9008_      00000 21540              SCNOWORD PROC  SCNWWA
 USING  *,R7
 USING  SCNWWA-(4+36),R8
 USING  XSENTRY,R6                 21590                       USING XSENTRY,R6
 002C88 5000 8028            00000 21599                       ST    R0,SCNWLEN          SAVE LOC, LEN AT ENTRY
 002C8C 5010 802C            00004 21600                       ST    R1,SCNWLOC
 002C90 1826                       21601                       LR    R2,R6
 002C92 58E0 7418/0DEE       030A0 21602                       ACALL SCNVNAME            SCAN NAME
 002C98 4780 7026            02CAE 21606                       IF    NZ,BEGIN
 002C9C D74F 6000 6000 00000 00000 21617  1                      CLEAR XSENTRY             IF BAD NAME, RETURN END OF EXPR
 002CA2 9204 6000      00000       21624  1                      SET   XSEND
 002CA6 5800 8028            00000 21630  1                      L     R0,SCNWLEN
 002CAA 5810 802C            00004 21631  1                      L     R1,SCNWLOC
 002CAE                            21632                       END
 002CAE 702A/47F0 7046 02CAE 02C9A 21636                       ELSE  BEGIN ,             IF GOOD NAME
                                   21647  1                      COMMENT
 002CB2 58E0 741C/0DEE       030A4 21648  1                      ACALL SCNWOPER            CHECK IF OPER, PROCESS IF SO
 002CB8 4780 7046            02CCE 21652  1                      IF    NZ,BEGIN
 002CBC D74F 6000 6000 00000 00000 21663  2                        CLEAR XSENTRY             IF NOT OPER, RETURN END OF EXPR
 002CC2 9204 6000      00000       21670  2                        SET   XSEND
 002CC6 5800 8028            00000 21676  2                        L     R0,SCNWLEN
 002CCA 5810 802C            00004 21677  2                        L     R1,SCNWLOC
 002CCE                            21678  1                      END
 002CCE                            21682                       END
 002CCE 1BFF                       21686                       CLEAR R15
 002CD0 9001 8004            00004 21690                       PRETURN (R0,R1)
 002CD4 18D8/9808 D004_            21692                       PEND  ,
 DROP   SCNWWA-(4+36),R8
 DROP   *,R7
1EVAL     (EVAL9204) (12:43) (15MAR04) EXPRESSION SCAN ROUTINES                                                             Page  108
0Current Usings:  (CP,R11) (CV,R12)
0Loc    Object Code    Addr1 Addr2  Stmt Lv Lineno    Source Statement           (Hibal 5, Asmedit 3.3)  HLASM R4.0  2004/03/15 12.43
+___    ______ ____    _____ _____  ____ __ ______    ______ _________
0DROP   XSENTRY,R6                 21717                       DROP  R6
1EVAL     (EVAL9204) (12:43) (15MAR04) EXPRESSION SCAN ROUTINES                                                             Page  109
0Current Usings:  (CP,R11) (CV,R12)
0Loc    Object Code    Addr1 Addr2  Stmt Lv Lineno    Source Statement           (Hibal 5, Asmedit 3.3)  HLASM R4.0  2004/03/15 12.43
+___    ______ ____    _____ _____  ____ __ ______    ______ _________
0                                  21725              ¿þþþþþþþþþþþþþþþþþþþþþþþþþþþþþþþþþþþþþþþþþþþþþþþþþþþþþþþþþþþþþþþþþþþþþÜ
                                   21726              Ÿ                                                                     Ÿ
                                   21727              Ÿ                                                                     Ÿ
                                   21728              Ÿ  SCNWOPER- CHECK FOR 'OPERATOR' WORDS                               Ÿ
                                   21729              Ÿ                                                                     Ÿ
                                   21730              Ÿ  CHECK FOR OPERATORS LIKE  EQ,, LT,, GT,,   IF FOUND,               Ÿ
                                   21731              Ÿ  PROCESS THE OPERATOR.  THAT IS, PUT IT ON THE STACK.               Ÿ
                                   21732              Ÿ                                                                     Ÿ
                                   21733              Ÿ  ON ENTRY:                                                          Ÿ
                                   21734              Ÿ       R2 - VNENTRY, NAME AND PREFIX FIELDS SET                      Ÿ
                                   21735              Ÿ                                                                     Ÿ
                                   21736              Ÿ  ON EXIT:                                                           Ÿ
                                   21737              Ÿ       RESERVE WORD STACK ENTRY SET, OH YEAH !                       Ÿ
                                   21738              Ÿ       R15 - CC=ZERO, IF RESERVED WORD FOUND                         Ÿ
                                   21739              Ÿ             CC=NZ, NOT A RESERVED WORD                              Ÿ
                                   21740              Ÿ                                                                     Ÿ
                                   21741              Ÿ                                                                     Ÿ
                                   21742              Ÿ                                                                     Ÿ
                                                      ¾þþþþþþþþþþþþþþþþþþþþþþþþþþþþþþþþþþþþþþþþþþþþþþþþþþþþþþþþþþþþþþþþþþþþþ»
0002CE2 50E0 D000/9008_      00000 21743              SCNWOPER PROC  ,
 USING  *,R7
 USING  VNENTRY,R2                 21782                       USING VNENTRY,R2
 002CFC 9500 2010/4780_00010       21791                       IF    (VNPREFIX,NE,0),BEGIN
 002D04 41F0 0004            00004 21809  1                      LA    R15,4
 002D08 47F0 70C8            02DC4 21810  1                      B     SCNWDONE
 002D0C                            21811                       END
 002D0C D503 2000 73AC 00000 030A8 21815                       CLC   VNNAME(4),=CL4'NOT '
 002D12 4770 7024            02D20 21816                       IF    E,BEGIN
 002D16 58E0 73B0/0DEE       030AC 21827  1                      ACALL SCNNOT
 002D1C 47F0 70C8            02DC4 21831  1                      B     SCNWDONE
 002D20                            21832                       END
 002D20 D503 2000 73B4 00000 030B0 21836                       CLC   VNNAME(4),=CL4'EQ  '
 002D26 4770 7038            02D34 21837                       IF    E,BEGIN
 002D2A 58E0 73B8/0DEE       030B4 21848  1                      ACALL SCNEQ
 002D30 47F0 70C8            02DC4 21852  1                      B     SCNWDONE
 002D34                            21853                       END
 002D34 D503 2000 73BC 00000 030B8 21857                       CLC   VNNAME(4),=CL4'NE  '
 002D3A 4770 704C            02D48 21858                       IF    E,BEGIN
 002D3E 58E0 73C0/0DEE       030BC 21869  1                      ACALL SCNNE
 002D44 47F0 70C8            02DC4 21873  1                      B     SCNWDONE
 002D48                            21874                       END
 002D48 D503 2000 73C4 00000 030C0 21878                       CLC   VNNAME(4),=CL4'OR  '
 002D4E 4770 7060            02D5C 21879                       IF    E,BEGIN
 002D52 58E0 73C8/0DEE       030C4 21890  1                      ACALL SCNOR
 002D58 47F0 70C8            02DC4 21894  1                      B     SCNWDONE
 002D5C                            21895                       END
 002D5C D503 2000 73CC 00000 030C8 21899                       CLC   VNNAME(4),=CL4'AND '
 002D62 4770 7074            02D70 21900                       IF    E,BEGIN
 002D66 58E0 73D0/0DEE       030CC 21911  1                      ACALL SCNAND
 002D6C 47F0 70C8            02DC4 21915  1                      B     SCNWDONE
 002D70                            21916                       END
 002D70 D503 2000 73D4 00000 030D0 21920                       CLC   VNNAME(4),=CL4'LT  '
 002D76 4770 7088            02D84 21921                       IF    E,BEGIN
1EVAL     (EVAL9204) (12:43) (15MAR04) EXPRESSION SCAN ROUTINES                                                             Page  110
0Current Usings:  (VNENTRY,R2) (*,R7) (CP,R11) (CV,R12)
0Loc    Object Code    Addr1 Addr2  Stmt Lv Lineno    Source Statement           (Hibal 5, Asmedit 3.3)  HLASM R4.0  2004/03/15 12.43
+___    ______ ____    _____ _____  ____ __ ______    ______ _________
0002D7A 58E0 73D8/0DEE       030D4 21932  1                      ACALL SCNLT
 002D80 47F0 70C8            02DC4 21936  1                      B     SCNWDONE
 002D84                            21937                       END
 002D84 D503 2000 73DC 00000 030D8 21941                       CLC   VNNAME(4),=CL4'LE  '
 002D8A 4770 709C            02D98 21942                       IF    E,BEGIN
 002D8E 58E0 73E0/0DEE       030DC 21953  1                      ACALL SCNLE
 002D94 47F0 70C8            02DC4 21957  1                      B     SCNWDONE
 002D98                            21958                       END
 002D98 D503 2000 73E4 00000 030E0 21962                       CLC   VNNAME(4),=CL4'GT  '
 002D9E 4770 70B0            02DAC 21963                       IF    E,BEGIN
 002DA2 58E0 73E8/0DEE       030E4 21974  1                      ACALL SCNGT
 002DA8 47F0 70C8            02DC4 21978  1                      B     SCNWDONE
 002DAC                            21979                       END
 002DAC D503 2000 73EC 00000 030E8 21983                       CLC   VNNAME(4),=CL4'GE  '
 002DB2 4770 70C4            02DC0 21984                       IF    E,BEGIN
 002DB6 58E0 73F0/0DEE       030EC 21995  1                      ACALL SCNGE
 002DBC 47F0 70C8            02DC4 21999  1                      B     SCNWDONE
 002DC0                            22000                       END
 002DC0 41F0 0004            00004 22004                       LA    R15,4               IF NONE OF THE ABOVE, CC=NZ
                                   22005
 002DC4                            22006              SCNWDONE LABEL ,
 002DC4 18D8/9808 D004_            22008                       PEND  ,
 DROP   *,R7
 DROP   VNENTRY,R2                 22028                       DROP  R2
1EVAL     (EVAL9204) (12:43) (15MAR04) EXPRESSION SCAN ROUTINES                                                             Page  111
0Current Usings:  (CP,R11) (CV,R12)
0Loc    Object Code    Addr1 Addr2  Stmt Lv Lineno    Source Statement           (Hibal 5, Asmedit 3.3)  HLASM R4.0  2004/03/15 12.43
+___    ______ ____    _____ _____  ____ __ ______    ______ _________
0                                  22036              ¿þþþþþþþþþþþþþþþþþþþþþþþþþþþþþþþþþþþþþþþþþþþþþþþþþþþþþþþþþþþþþþþþþþþþþÜ
                                   22037              Ÿ                                                                     Ÿ
                                   22038              Ÿ                                                                     Ÿ
                                   22039              Ÿ  SCNEXCPN - PROCESS EXCEPTION, IF ANY                               Ÿ
                                   22040              Ÿ                                                                     Ÿ
                                   22041              Ÿ  PROCESS HEX STRINGS.   (EG. S'5C40'  N'C2A' OR W'3E8')             Ÿ
                                   22042              Ÿ  SEE WYLBUR EXEC MANUAL FOR DETAILS.                                Ÿ
                                   22043              Ÿ                                                                     Ÿ
                                   22044              Ÿ  ON ENTRY:                                                          Ÿ
                                   22045              Ÿ       R0 - LENGTH OF REMAINING STRING                               Ÿ
                                   22046              Ÿ       R1 - LOCATION OF REMAINING STRING (AT ' OR " PAST S,N,W)      Ÿ
                                   22047              Ÿ       R2 - STACK ENTRY CONTAINING NAME ONLY                         Ÿ
                                   22048              Ÿ                                                                     Ÿ
                                   22049              Ÿ  ON EXIT:                                                           Ÿ
                                   22050              Ÿ    IF EXCEPTION FOUND,                                              Ÿ
                                   22051              Ÿ       R0 - REMAINING STRING LENGTH                                  Ÿ
                                   22052              Ÿ       R1 - REMAINING STRING LOCATION                                Ÿ
                                   22053              Ÿ       R2 - STACK ENTRY FOR VALUE                                    Ÿ
                                   22054              Ÿ      R15 - CC=ZERO,  IF S'..', N'..', OR W'..' FOUND                Ÿ
                                   22055              Ÿ            CC=POS, IF INVALID HEX STRING,, ERROR MSG TSEG'D         Ÿ
                                   22056              Ÿ    IF EXCEPTION NOT FOUND                                           Ÿ
                                   22057              Ÿ       R0,R1,@R2 - UNCHANGED                                         Ÿ
                                   22058              Ÿ       R15 - CC=NEG,  IF NOT S'..' N'..' OR W'..'                    Ÿ
                                   22059              Ÿ                                                                     Ÿ
                                   22060              Ÿ                                                                     Ÿ
                                                      ¾þþþþþþþþþþþþþþþþþþþþþþþþþþþþþþþþþþþþþþþþþþþþþþþþþþþþþþþþþþþþþþþþþþþþþ»
0000000                00000 000F7 22061              EXCPWA   RECORD BEGIN
 000000                            22069  1           EXCPLOC    DS    F                   STRING LOC AT ENTRY
 000004                            22070  1           EXCPLEN    DS    F                   STRING LEN AT ENTRY
 000008                            22071  1           EXCPHEXL   DS    F                   TOTAL HEX STRING LEN (INCL. "s)
                                   22072  1           EXCPTEMP   DS    CL(&LINESZ)
 00000C                                   1          +EXCPTEMP   DS    CL(235)
 0000F7                000F7 000F7 22073                       END
                                   22082              *
                                   22083              *
 002DD2 50E0 D000/9008_      00000 22084              SCNEXCPN PROC  EXCPWA
 USING  *,R7
 USING  EXCPWA-(4+36),R8
 USING  VNENTRY,R6                 22134                       USING VNENTRY,R6
 002DEC 1862                       22143                       LR    R6,R2
 002DEE 58F0 7304            030F0 22144                       L     R15,=F'-4'          ASSUME NOT FOUND
 002DF2 1200/47D0 7182             22145                       IF    (R0,POS),BEGIN
 002DF8 957D 1000/4780_00000       22159  1                      IF    ((@R1,EQ,''''),OR,(@R1,EQ,'"')),BEGIN
                                   22190  2         C              IF    ((VNNAME,EQ,'S '),OR,(VNNAME,EQ,'N '),OR,
 002E08 D501 7320 6000_0310C 00000        2                              (VNNAME,EQ,'W ')),BEGIN
                                   22237  3                          COMMENT                   WE HAVE FOUND S'..' ,,, ETC.
 002E26 5010 8028            00000 22238  3                          ST    R1,EXCPLOC
 002E2A 5000 802C            00004 22239  3                          ST    R0,EXCPLEN
 002E2E 1841                       22240  3                          LR    R4,R1               R4 - START OF STRING
 002E30 1850                       22241  3                          LR    R5,R0               R5 - END OF STRING
 002E32 1A54                       22242  3                          AR    R5,R4
 002E34 4144 0001            00001 22243  3                          LA    R4,1(R4)
 002E38 957D 1000/4770_00000       22244  3                          IF    (@R1,EQ,''''),BEGIN
1EVAL     (EVAL9204) (12:43) (15MAR04) EXPRESSION SCAN ROUTINES                                                             Page  112
0Current Usings:  (VNENTRY,R6) (*,R7) (EXCPWA-(4+36),R8) (CP,R11) (CV,R12)
0Loc    Object Code    Addr1 Addr2  Stmt Lv Lineno    Source Statement           (Hibal 5, Asmedit 3.3)  HLASM R4.0  2004/03/15 12.43
+___    ______ ____    _____ _____  ____ __ ______    ______ _________
0002E40 957D 4000/4780_00000       22260  4                            WHILE ((@R4,NE,''''),AND,(R4,LT,R5)),BEGIN  FIND END QUOTE
 002E4E 4144 0001            00001 22292  5                              LA    R4,1(R4)
 002E52 47F0 7054            02E40 22293  4                            END
 002E56                            22298  3                          END
 002E56 957F 1000/4770_00000       22302  3                          IF    (@R1,EQ,'"'),BEGIN
 002E5E 957F 4000/4780_00000       22318  4                            WHILE ((@R4,NE,'"'),AND,(R4,LT,R5)),BEGIN  FIND END QUOTE
 002E6C 4144 0001            00001 22350  5                              LA    R4,1(R4)
 002E70 47F0 7072            02E5E 22351  4                            END
 002E74                            22356  3                          END
 002E74 1945/4780 7186             22360  3                          IF    (R4,EQ,R5),BADEXCPN R4 - END OF HEX (AT ")
 002E7A 4131 0001            00001 22378  3                          LA    R3,1(R1)            R3 - START OF HEX (JUST PAST")
 002E7E 1B43                       22379  3                          SR    R4,R3               R4 - LENGTH OF HEX
 002E80 1244/47D0 7186             22380  3                          IF    (R4,NP),BADEXCPN
 002E86 4134 0002            00002 22397  3                          LA    R3,2(R4)
 002E8A 5030 8030            00008 22398  3                          ST    R3,EXCPHEXL
 002E8E 1804                       22399  3                          LR    R0,R4               R0 - HEX STRING LEN (W/O "s)
 002E90 4111 0001            00001 22400  3                          LA    R1,1(R1)            R1 - HEX STRING START
 002E94 4120 8034            0000C 22401  3                          LA    R2,EXCPTEMP         R2 - WORK AREA
 002E98 58E0 7308/0DEE       030F4 22402  3                          ACALL MAKEHEX             CONVERT HEX STRING TO HEX
 002E9E 4770 7186            02F72 22406  3                          IF    NZ,BADEXCPN
                                   22420  3                          COMMENT                   R2,R0 - HEX LOC, LEN
                                   22421  3                          COMMENT
 002EA2 D501 7320 6000_0310C 00000 22422  3                          IF    (VNNAME,EQ,'S '),BEGIN     IF S'....',
 002EAC D74F 6000 6000 00000 00000 22439  4                            CLEAR VNENTRY
 002EB2 9201 6020      00020       22446  4                            SET   VNSTRING
 002EB6 4000 6024            00024 22452  4                            STH   R0,VNSTRLEN
 002EBA 1830                       22453  4                            LR    R3,R0
 002EBC 0630/1233/4740_            22454  4                            MOVE  R3,VNSTRLOC,EXCPTEMP
 002EC8                            22492  3                          END
 002EC8 70E0/47F0 7126_02EC8 02EAA 22496  3                          ELSEIF (VNNAME,EQ,'N '),BEGIN   IF N'....',
 002ED6 5900 730C/4720_      030F8 22522  4                            IF    (R0,GT,4),BADEXCPN
 002EDE D74F 6000 6000 00000 00000 22542  4                            CLEAR VNENTRY
 002EE4 9202 6020      00020       22549  4                            SET   VNNUMB
 002EE8 5810 8034            0000C 22555  4                            L     R1,EXCPTEMP
 002EEC 1830                       22556  4                            LR    R3,R0
 002EEE 5930 730C/47B0_      030F8 22557  4                            WHILE (R3,LT,4),BEGIN               SHIFT INTO 4 BYTE HEX
 002EF6 8810 0008            00008 22576  5                              SRL   R1,8
 002EFA 4133 0001            00001 22577  5                              LA    R3,1(R3)
 002EFE 47F0 7102            02EEE 22578  4                            END
 002F02 5010 6024            00024 22583  4                            ST    R1,VNVALUE
 002F06 1826                       22584  4                            LR    R2,R6
 002F08 58E0 7310/0DEE       030FC 22585  4                            ACALL MAKEITOD                      CONVERT TO NUMBER
 002F0E 4770 7186            02F72 22589  4                            BNZ   BADEXCPN
 002F12                            22590  3                          END
 002F12 712A/47F0 7170_02F12 02ED4 22594  3                          ELSEIF (VNNAME,EQ,'W '),BEGIN   IF W'....',
 002F20 5900 730C/4720_      030F8 22620  4                            IF    (R0,GT,4),BADEXCPN
 002F28 D74F 6000 6000 00000 00000 22640  4                            CLEAR VNENTRY
 002F2E 9202 6020      00020       22647  4                            SET   VNNUMB
 002F32 5810 8034            0000C 22653  4                            L     R1,EXCPTEMP
 002F36 1830                       22654  4                            LR    R3,R0
 002F38 5930 730C/47B0_      030F8 22655  4                            WHILE (R3,LT,4),BEGIN               SHIFT INTO 4 BYTE HEX
 002F40 8810 0008            00008 22674  5                              SRL   R1,8
 002F44 4133 0001            00001 22675  5                              LA    R3,1(R3)
 002F48 47F0 714C            02F38 22676  4                            END
1EVAL     (EVAL9204) (12:43) (15MAR04) EXPRESSION SCAN ROUTINES                                                             Page  113
0Current Usings:  (VNENTRY,R6) (*,R7) (EXCPWA-(4+36),R8) (CP,R11) (CV,R12)
0Loc    Object Code    Addr1 Addr2  Stmt Lv Lineno    Source Statement           (Hibal 5, Asmedit 3.3)  HLASM R4.0  2004/03/15 12.43
+___    ______ ____    _____ _____  ____ __ ______    ______ _________
0002F4C 5010 6024            00024 22681  4                            ST    R1,VNVALUE
 002F50 1826                       22682  4                            LR    R2,R6
 002F52 58E0 7314/0DEE       03100 22683  4                            ACALL MAKELTOD                      CONVERT TO NUMBER
 002F58 4770 7186            02F72 22687  4                            BNZ   BADEXCPN
 002F5C                            22688  3                          END
 002F5C 5810 8028            00000 22692  3                          L     R1,EXCPLOC          UPDATE R1,R0 - LOC LENGTH
 002F60 5800 802C            00004 22693  3                          L     R0,EXCPLEN
 002F64 5820 8030            00008 22694  3                          L     R2,EXCPHEXL
 002F68 1A12                       22695  3                          AR    R1,R2
 002F6A 1B02                       22696  3                          SR    R0,R2
 002F6C 1BFF                       22697  3                          CLEAR R15                 ZERO CC (WE FOUND S',N',OR W')
 002F6E                            22701  2                        END
 002F6E                            22705  1                      END
 002F6E                            22709                       END
                                   22713
 002F6E 47F0 7232            0301E 22714                       B     EXCPDONE
                                   22715
 002F72                            22716              BADEXCPN LABEL ,                   INVALID HEX CONSTANT
 002F72 58E0 B08C/D2AF_      0008C 22718                       SCPUSH ,
 002F80 5810 8028/5800_      00000 22724                       SCINIT L:EXCPLOC,L:EXCPLEN        scan invalid hex string
 002F96 5810 B08C/1B00_      0008C 22746                       SCAN ,
 002FE4 58E0 B08C/4BD0_      0008C 22777                       SCPOP ,
 002FF2 41F0 B050/58E0_      00050 22783                       TSEG (R1),(R0)
 002FFC 4110 7244/4100_      03030 22807                       TSEG ': invalid hex constant. '
 00300E 5810 8028            00000 22825                       L     R1,EXCPLOC
 003012 5800 802C            00004 22826                       L     R0,EXCPLEN
 003016 41F0 0004            00004 22827                       LA    R15,4
 00301A 47F0 7232            0301E 22828                       B     EXCPDONE
                                   22829
 00301E                            22830              EXCPDONE LABEL ,
 00301E 9001 8004            00004 22832                       PRETURN (R0,R1)
 003022 18D8/9808 D004_            22834                       PEND  ,
 DROP   EXCPWA-(4+36),R8
 DROP   *,R7
 DROP   VNENTRY,R6                 22859                       DROP  R6
1EVAL     (EVAL9204) (12:43) (15MAR04) EXPRESSION SCAN ROUTINES                                                             Page  114
0Current Usings:  (CP,R11) (CV,R12)
0Loc    Object Code    Addr1 Addr2  Stmt Lv Lineno    Source Statement           (Hibal 5, Asmedit 3.3)  HLASM R4.0  2004/03/15 12.43
+___    ______ ____    _____ _____  ____ __ ______    ______ _________
0                                  22867                       QLTORG
1EVAL     (EVAL9204) (12:43) (15MAR04) SYSTEM FUNCTION EVAUATION ROUTINES                                                   Page  115
0Current Usings:  (CP,R11) (CV,R12)
0Loc    Object Code    Addr1 Addr2  Stmt Lv Lineno    Source Statement           (Hibal 5, Asmedit 3.3)  HLASM R4.0  2004/03/15 12.43
+___    ______ ____    _____ _____  ____ __ ______    ______ _________
0                                  22935              ¿þþþþþþþþþþþþþþþþþþþþþþþþþþþþþþþþþþþþþþþþþþþþþþþþþþþþþþþþþþþþþþþþþþþþþÜ
                                   22936              Ÿ                                                                     Ÿ
                                   22937              Ÿ                                                                     Ÿ
                                   22938              Ÿ  GETSYSFN - GET SYSTEM FUNCTION                                     Ÿ
                                   22939              Ÿ                                                                     Ÿ
                                   22940              Ÿ  ON ENTRY:                                                          Ÿ
                                   22941              Ÿ      @R1 - VARIABLE PARM AREA.  SEE VNENTRY DSECT                   Ÿ
                                   22942              Ÿ      @R2 - FUNCTION NAME                                            Ÿ
                                   22943              Ÿ                                                                     Ÿ
                                   22944              Ÿ  ON EXIT:                                                           Ÿ
                                   22945              Ÿ      @R1 - VARIABLE PARM AREA RETURNED (CONTAINS FUNCTION INFO)     Ÿ
                                   22946              Ÿ      R15 - CC=ZERO, RECORD FOUND                                    Ÿ
                                   22947              Ÿ            CC=NZ, RECORD DOES NOT EXIST                             Ÿ
                                   22948              Ÿ                                                                     Ÿ
                                   22949              Ÿ                                                                     Ÿ
                                                      ¾þþþþþþþþþþþþþþþþþþþþþþþþþþþþþþþþþþþþþþþþþþþþþþþþþþþþþþþþþþþþþþþþþþþþþ»
0003122 50E0 D000/9008_      00000 22950              GETSYSFN PROC  ,
 USING  *,R7
 USING  VNENTRY,R6                 22989                       USING VNENTRY,R6
 00313C 1861                       22998                       LR    R6,R1
 00313E D20F 6000 2000 00000 00000 22999                       MVC   VNNAME,0(R2)
                                   23000
                                   23001                       COMMENT                   SEARCH FOR SYSTEM FUNCTION RTN
 003144 4100 6024            00024 23002                       LA    R0,VNSYSRTN
 003148 1812                       23003                       LR    R1,R2
 00314A 58E0 7654/0DEE       03790 23004                       VCALL GTFNRTN
                                   23008
                                   23009                       COMMENT                   IF SYSTEM FUNCTION, GET IT
 003150 4770 7024            03160 23010                       IF    Z,BEGIN
 003154 D71F 6000 6000 00000 00000 23021  1                      CLEAR VNDESC
 00315A D20F 6000 1000 00000 00000 23028  1                      MVC   VNNAME,@R1
 003160                            23029                       END
                                   23033
 003160 18D8/9808 D004_            23034                       PEND  ,
 DROP   *,R7
 DROP   VNENTRY,R6                 23054                       DROP  R6
1EVAL     (EVAL9204) (12:43) (15MAR04) SYSTEM FUNCTION EVAUATION ROUTINES                                                   Page  116
0Current Usings:  (CP,R11) (CV,R12)
0Loc    Object Code    Addr1 Addr2  Stmt Lv Lineno    Source Statement           (Hibal 5, Asmedit 3.3)  HLASM R4.0  2004/03/15 12.43
+___    ______ ____    _____ _____  ____ __ ______    ______ _________
0                                  23062              ¿þþþþþþþþþþþþþþþþþþþþþþþþþþþþþþþþþþþþþþþþþþþþþþþþþþþþþþþþþþþþþþþþþþþþþÜ
                                   23063              Ÿ                                                                     Ÿ
                                   23064              Ÿ                                                                     Ÿ
                                   23065              Ÿ  XVLSYSFN - EVALUATE SYSTEM FUNCTION                                Ÿ
                                   23066              Ÿ                                                                     Ÿ
                                   23067              Ÿ  ON ENTRY:                                                          Ÿ
                                   23068              Ÿ       R0 - LENGTH OF REMAINING EXPRESSION                           Ÿ
                                   23069              Ÿ       R1 - LOC OF EXPRESSION (IE. ARG LIST) @R1 IS '('              Ÿ
                                   23070              Ÿ       R6 - EXPRESSION STACK, POINTS TO ENTRY FOR SYSTEM FUNCTION    Ÿ
                                   23071              Ÿ                                                                     Ÿ
                                   23072              Ÿ  ON EXIT:                                                           Ÿ
                                   23073              Ÿ       R0 - LENGTH OF REMAINING STRING                               Ÿ
                                   23074              Ÿ       R1 - REMAINING EXPRESSION, (JUST PAST ")")                    Ÿ
                                   23075              Ÿ       R6 - EXPRESSION STACK, POINTS TO VALUE OF FUNCTION            Ÿ
                                   23076              Ÿ                                                                     Ÿ
                                   23077              Ÿ                                                                     Ÿ
                                                      ¾þþþþþþþþþþþþþþþþþþþþþþþþþþþþþþþþþþþþþþþþþþþþþþþþþþþþþþþþþþþþþþþþþþþþþ»
000316E 50E0 D000/9008_      00000 23078              XVLSYSFN PROC  ,
 USING  *,R7
 USING  VNENTRY,R6                 23117                       USING VNENTRY,R6
 003188 1826                       23126                       LR    R2,R6               R2 - MARK EXPR STACK, FUNCTN ENTRY
 00318A 1BFF/5A60 760C_            23127                       XSPUSH ,,                 PUSH EXPRESSION STACK
 0031B2 4770 705E            031E6 23166                       IF    Z,BEGIN
 0031B6 58E0 7620/0DEE       037A8 23177  1                      ACALL SCNTYPE             SCAN PAST ANY BLANKS PRECEDING '('
 0031BC 58E0 7624/0DEE       037AC 23181  1                      ACALL XVLARGS             EVALUATE ARGUMENTS
 0031C2 4740 705E            031E6 23185  1                      IF    NM,BEGIN            IF ARGS OK, CALL FUNCTION
 0031C6 9001 D000/41D0_      00000 23196  2                        XPUSH R0,R1
 0031CE 180F                       23199  2                        LR    R0,R15              R0 - ARG COUNT
 0031D0 1816                       23200  2                        LR    R1,R6               R1 - ARGUMENT LIST
 0031D2 1862                       23201  2                        LR    R6,R2               R6 - FUNCTION ENTRY/RETURN AREA
 0031D4 41E0 6024            00024 23202  2                        LA    R14,VNSYSRTN
 0031D8 58E0 E000/0DEE       00000 23203  2                        CALLRTNP @R14             "ACALL" FUNCTION
 0031DE 4BD0 7692/9801_      0381A 23207  2                        XPOP  R0,R1
 0031E6                            23210  1                      END
 0031E6                            23214                       END
 0031E6 12FF/4780 7068_            23218                       IF    (R15,NZ),' LA R15,4 '
 0031F0 9001 8004            00004 23238                       PRETURN (R0,R1)
 0031F4 18D8/9808 D004_            23240                       PEND  ,
 DROP   *,R7
 DROP   VNENTRY,R6                 23260                       DROP  R6
1EVAL     (EVAL9204) (12:43) (15MAR04) SYSTEM FUNCTION EVAUATION ROUTINES                                                   Page  117
0Current Usings:  (CP,R11) (CV,R12)
0Loc    Object Code    Addr1 Addr2  Stmt Lv Lineno    Source Statement           (Hibal 5, Asmedit 3.3)  HLASM R4.0  2004/03/15 12.43
+___    ______ ____    _____ _____  ____ __ ______    ______ _________
0                                  23268              ¿þþþþþþþþþþþþþþþþþþþþþþþþþþþþþþþþþþþþþþþþþþþþþþþþþþþþþþþþþþþþþþþþþþþþþÜ
                                   23269              Ÿ   XVLGNRC - evaluate a generic array reference (TEST[])             G
                                   23270              Ÿ                                                                     G
                                   23271              Ÿ   ON ENTRY:                                                         G
                                   23272              Ÿ        R0 - LENGTH OF STRING REMAINING                              G
                                   23273              Ÿ        R1 - START OF AN ARGUMENT                                    G
                                   23274              Ÿ        R6 - VNENTRY AREA                                            G
                                   23275              Ÿ                                                                     G
                                   23276              Ÿ   ON EXIT:                                                          G
                                   23277              Ÿ        R0 - LENGTH OF REMAINDER OF STRING                           G
                                   23278              Ÿ        R1 - JUST PAST ']' (OR NOT MOVED AT ALL)                     G
                                   23279              Ÿ       @R6 - VNENTRY FILLED IN                                       G
                                   23280              Ÿ       R15 - 0 FOUND A GENERIC ARRAY, ELSE DIDN'T                    G
                                   23281              Ÿ                                                                     G
                                   23282              Ÿ                                                                     G
                                                      ¾þþþþþþþþþþþþþþþþþþþþþþþþþþþþþþþþþþþþþþþþþþþþþþþþþþþþþþþþþþþþþþþþþþþþþ»
0003202 50E0 D000/9008_      00000 23283              XVLGNRC  PROC  ,
 USING  *,R7
 00321C 1830                       23322                       LR      R3,R0             Save R0&R1 in case we backtrack    G
 00321E 1841                       23323                       LR      R4,R1                                                G
 003220 1826                       23324                       LR      R2,R6                                                G
 003222 58E0 7594/0DEE       037B0 23325                       ACALL   SCNVNAME                                             G
 003228 4770 7096            032B2 23329                       IF      NZ,XGBACK         Didn't find a variable name, scram G
 00322C 1851                       23343                       LR      R5,R1             Save away R1                       G
 00322E 1812                       23344                       LR      R1,R2             R1 & R2 point at VNENTRY           G
 003230 58E0 7598/0DEE       037B4 23345                       VCALL   GETVAR                                               G
 003236 4770 7096            032B2 23349                       IF      NZ,XGBACK         Didn't find a variable by that nameG
 00323A 1815                       23363                       LR      R1,R5             Bring back R1                      G
                                   23364              *                                                                     G
 00323C 1200/47D0 7038_            23365                       WHILE   ((R0,POS),AND,(@R1,EQ,' ')),'DECR R0;INCR R1'  blanks?
 003254 1200/47D0 7096_            23407                       IF      ((R0,NP),OR,(@R1,NE,'[')),XGBACK  no '[', scram      G
 003262 0600                       23439                       DECR    R0                                                   G
 003264 5E10 759C            037B8 23441                       INCR    R1                Bump past the '['                  G
 003268 1200/47D0 7064_            23444                       WHILE   ((R0,POS),AND,(@R1,EQ,' ')),'DECR R0;INCR R1'  blks? G
 003280 1200/47D0 7096_            23486                       IF      ((R0,NP),OR,(@R1,NE,']')),XGBACK  no ']', scram      G
 00328E 0600                       23518                       DECR    R0                                                   G
 003290 5E10 759C            037B8 23520                       INCR    R1                                                   G
 003294 1200/47D0 7090_            23523                       WHILE   ((R0,POS),AND,(@R1,EQ,' ')),'DECR R0;INCR R1'  blks? G
                                   23565              *                                                                     G
 0032AC 17FF                       23566                       XR      R15,R15           all is cool                        G
 0032AE 47F0 70A2            032BE 23567                       B       XGXIT                                                G
                                   23568              *                                                                     G
 0032B2 58F0 75A0            037BC 23569              XGBACK   L       R15,=F'-4'        all is not cool                    G
 0032B6 1803                       23570                       LR      R0,R3             backtrack to where we started      G
 0032B8 1814                       23571                       LR      R1,R4                                                G
 0032BA 9001 8004            00004 23572                       PRETURN (R0,R1)
 0032BE 18D8/9808 D004_            23574              XGXIT    PEND  ,                                              G
 DROP   *,R7
1EVAL     (EVAL9204) (12:43) (15MAR04) SYSTEM FUNCTION EVAUATION ROUTINES                                                   Page  118
0Current Usings:  (CP,R11) (CV,R12)
0Loc    Object Code    Addr1 Addr2  Stmt Lv Lineno    Source Statement           (Hibal 5, Asmedit 3.3)  HLASM R4.0  2004/03/15 12.43
+___    ______ ____    _____ _____  ____ __ ______    ______ _________
0                                  23596              *
                                   23597              **
                                   23598              **  XVLARGS - EVALUATE FUNCTION/PROCEDURE ARGUMENTS
                                   23599              **
                                   23600              **
                                   23601              **  ON ENTRY:
                                   23602              **       R0 - LENGTH OF REMAINING EXPRESSION
                                   23603              **       R1 - START OF ARG LIST, (STARTS WITH "(")
                                   23604              **       R2 - VARIABLE ENTRY CONTAINING FUNCTION NAME
                                   23605              **       R6 - EXPRESSION STACK, ARG STACK
                                   23606              **
                                   23607              **  ON EXIT:
                                   23608              **       R0 - LENGTH OF REMAINING EXPRESSION
                                   23609              **       R1 - REMAINING EXPRESSION, (JUST PAST ")")
                                   23610              **      R15 - IF OK, NUMBER OF ARGS (0-ARGLIMIT)
                                   23611              **            IF ERROR CC=NEG, R1,R0 - LOC LEN OF ERR MSG
                                   23612              **
                                   23613              **
                                   23614              **
                                   23615              ARGLIMIT EQU   8                   LIMIT OF 8 ARGUMENTS
                                   23616              *
                                   23617              *
 0032CC 50E0 D000/9008_      00000 23618              XVLARGS  PROC  ,
 USING  *,R7
 USING  XSENTRY,R6                 23657                       USING XSENTRY,R6
                                   23666
                                   23667                       COMMENT                   CHECK, SKIP '('
 0032E6 954D 1000/4770_00000       23668                       IF    ((@R1,NE,'('),OR,(R0,NP)),BEGIN
 0032F4 58E0 74DA/0DEE       037C0 23697  1                      ACALL NOARGS
 0032FA 47F0 7146            0342C 23701  1                      B     ARGSDONE
 0032FE                            23702                       END
 0032FE 4111 0001            00001 23706                       LA    R1,1(R1)
 003302 0600                       23707                       BCTR  R0,0
                                   23708
                                   23709                       COMMENT                   CHECK FOR (),   EMPTY ARGS
 003304 9540 1000/4770_00000       23710                       WHILE ((@R1,EQ,' '),AND,(R0,POS)),BEGIN
 003312 4111 0001            00001 23741  1                      LA    R1,1(R1)
 003316 0600                       23742  1                      DECR  R0
 003318 47F0 701E            03304 23744                       END
 00331C 955D 1000/4770_00000       23749                       IF    ((@R1,EQ,')'),AND,(R0,POS)),BEGIN
 00332A 4111 0001            00001 23778  1                      LA    R1,1(R1)
 00332E 0600                       23779  1                      DECR  R0
 003330 1BFF                       23781  1                      CLEAR R15
 003332 47F0 7146            0342C 23785  1                      B     ARGSDONE
 003336                            23786                       END
                                   23790
 003336 1B33                       23791                       SR    R3,R3
 003338                            23792                       LOOP  BEGIN,,             LOOP EVALUATING ARGUMENTS
                                   23798  1                      COMMENT
 003338 58E0 74DE/0DEE       037C4 23799  1                      ACALL   XVLGNRC           check for an array generic         G
 00333E 4780 7062/58E0_      03348 23803  1                      IF      NZ,'ACALL XXXEVAL'  then it must be an expression    G
                                   23823  1                      COMMENT
 003348 4133 0001            00001 23824  1                      LA    R3,1(R3)
 00334C 5930 74E6/47D0_      037CC 23825  1                      IF    (R3,GT,ARGLIMIT),BEGIN    ERROR: TOO MANY ARGS
1EVAL     (EVAL9204) (12:43) (15MAR04) SYSTEM FUNCTION EVAUATION ROUTINES                                                   Page  119
0Current Usings:  (XSENTRY,R6) (*,R7) (CP,R11) (CV,R12)
0Loc    Object Code    Addr1 Addr2  Stmt Lv Lineno    Source Statement           (Hibal 5, Asmedit 3.3)  HLASM R4.0  2004/03/15 12.43
+___    ______ ____    _____ _____  ____ __ ______    ______ _________
0003354 58E0 74EA/0DEE       037D0 23842  2                        ACALL MANYARGS
 00335A 47F0 7146            0342C 23846  2                        B     ARGSDONE
 00335E                            23847  1                      END
 00335E 12FF/47D0 7088             23851  1                      IF    (R15,POS),BEGIN           ERROR: BAD ARG EXPRESSION
 003364 58E0 74EE/0DEE       037D4 23865  2                        ACALL ARGERROR
 00336A 47F0 7146            0342C 23869  2                        B     ARGSDONE
 00336E                            23870  1                      END
 00336E 12FF/47B0 7098             23874  1                      IF    (R15,NEG),BEGIN           ERROR: NULL ARGUMENT
 003374 58E0 74EE/0DEE       037D4 23888  2                        ACALL ARGERROR
 00337A 47F0 7146            0342C 23892  2                        B     ARGSDONE
 00337E                            23893  1                      END
 00337E 1200/4720 70A8             23897  1                      IF    (R0,NP),BEGIN
 003384 58E0 74EE/0DEE       037D4 23911  2                        ACALL ARGERROR                 ERROR: PREMATURE END OF ARGS
 00338A 47F0 7146            0342C 23915  2                        B     ARGSDONE
 00338E                            23916  1                      END
 00338E 955E 1000/4770_00000       23920  1                      IF    (@R1,EQ,';'),BEGIN
 003396 58E0 74EE/0DEE       037D4 23936  2                        ACALL ARGERROR                 ERROR: PREMATURE END OF ARGS
 00339C 47F0 7146            0342C 23940  2                        B     ARGSDONE
 0033A0                            23941  1                      END
 0033A0 955D 1000/4770_00000       23945  1                      IF    (@R1,EQ,')'),BEGIN       END OF LIST: WE ARE DONE
 0033A8 18F3                       23961  2                        LR    R15,R3
 0033AA 4111 0001            00001 23962  2                        LA    R1,1(R1)
 0033AE 0600                       23963  2                        BCTR  R0,0
 0033B0 47F0 7146            0342C 23964  2                        B     ARGSDONE
 0033B4                            23965  1                      END
                                   23969  1                      COMMENT                         ARG SEPARATOR REQUIRED
                                   23970  1                      COMMENT                            UNLESS OLD EXEC
 0033B4 9502 B759/4780_00759       23971  1                      IF    (~CPFXOLD,AND,(@R1,NE,',')),BEGIN
 0033C4 58E0 74F2/0DEE       037D8 24001  2                        VCALL CHECKEND
 0033CA 4110 746A/4100_      03750 24005  2                        TSEG  'Function arguments must be separated by commas. '
 0033DC 58E0 74EE/0DEE       037D4 24023  2                        ACALL ARGERROR
 0033E2 47F0 7146            0342C 24027  2                        B     ARGSDONE
 0033E6                            24028  1                      END
 0033E6 956B 1000/4770_00000       24032  1                      IF    (@R1,EQ,','),BEGIN
 0033EE 4111 0001            00001 24048  2                        LA    R1,1(R1)                 IF ARG SEPARATOR, SKIP
 0033F2 0600                       24049  2                        DECR  R0
 0033F4                            24051  1                      END
 0033F4 1BFF/5A60 74AE_            24055  1                      XSPUSH ,,                 PUT NEXT ARG ON STACK
 00341C 4780 7142            03428 24094  1                      IF    NZ,BEGIN            IF STACK FULL, RETURN NEG CC
 003420 58F0 74D6            037BC 24105  2                        L     R15,=F'-4'
 003424 47F0 7146            0342C 24106  2                        B     ARGSDONE
 003428                            24107  1                      END
 003428 47F0 7052            03338 24111                       END   ,,                  LOOP EVALUATING ARGUMENTS
                                   24116
 00342C                            24117              ARGSDONE LABEL ,
 00342C 9001 8004            00004 24119                       PRETURN (R0,R1)
 003430 18D8/9808 D004_            24121                       PEND  ,
 DROP   *,R7
 DROP   XSENTRY,R6                 24141                       DROP  R6
1EVAL     (EVAL9204) (12:43) (15MAR04) SYSTEM FUNCTION EVAUATION ROUTINES                                                   Page  120
0Current Usings:  (CP,R11) (CV,R12)
0Loc    Object Code    Addr1 Addr2  Stmt Lv Lineno    Source Statement           (Hibal 5, Asmedit 3.3)  HLASM R4.0  2004/03/15 12.43
+___    ______ ____    _____ _____  ____ __ ______    ______ _________
0                                  24149              ¿þþþþþþþþþþþþþþþþþþþþþþþþþþþþþþþþþþþþþþþþþþþþþþþþþþþþþþþþþþþþþþþþþþþþþÜ
                                   24150              Ÿ                                                                     Ÿ
                                   24151              Ÿ                                                                     Ÿ
                                   24152              Ÿ  XVLSUBS - GET SUBSCRIPTS, IF ANY                                   Ÿ
                                   24153              Ÿ                                                                     Ÿ
                                   24154              Ÿ  ON ENTRY:                                                          Ÿ
                                   24155              Ÿ       R0 - LENGTH OF STRING                                         Ÿ
                                   24156              Ÿ       R1 - LOCATION OF STRING (POINTS TO BLANK OR '[')              Ÿ
                                   24157              Ÿ      @R2 - VARIABLE NAME DESCRIPTOR,  SEE VNENTRY DSECT.            Ÿ
                                   24158              Ÿ                                                                     Ÿ
                                   24159              Ÿ  ON EXIT:                                                           Ÿ
                                   24160              Ÿ       R0 - LENGTH OF REMAINING STRING                               Ÿ
                                   24161              Ÿ       R1 - LOCATION OF REMANING STRING                              Ÿ
                                   24162              Ÿ      @R2 - VARIABLE NAME DESCRIPTOR W/SUBSCRIPT FIELDS SET          Ÿ
                                   24163              Ÿ      R15 - CC=ZERO, IF ALL OK                                       Ÿ
                                   24164              Ÿ            CC=NZ, IF INVALID SUBSCRIPT, ERR MSG IS TSEG'D           Ÿ
                                   24165              Ÿ                                                                     Ÿ
                                   24166              Ÿ  NOTE: 3 SUBSCRIPTS ARE SET.  NO OTHER FIELDS IN THE VARIABLE       Ÿ
                                   24167              Ÿ        AREA (SEE VNENTRY DSECT) ARE MODIFIED.   IF A SUBSCRIPT      Ÿ
                                   24168              Ÿ        IS NOT SPECIFIED, IT IS SET TO ZERO.                         Ÿ
                                   24169              Ÿ                                                                     Ÿ
                                   24170              Ÿ                                                                     Ÿ
                                                      ¾þþþþþþþþþþþþþþþþþþþþþþþþþþþþþþþþþþþþþþþþþþþþþþþþþþþþþþþþþþþþþþþþþþþþþ»
0000000                00000 00006 24171              XBWA     RECORD BEGIN
 000000                            24179  1           XBSUB1     DS    H                   ARRAY SUBSCRIPTS
 000002                            24180  1           XBSUB2     DS    H
 000004                            24181  1           XBSUB3     DS    H
 000006                00006 00006 24182                       END
                                   24191              SUBLIMIT EQU   3                   1 DIMESION FOR STARTERS
 00343E                            24192                       DS    0S(3-CPSLIMIT)      3 DIMENSIONS MAX !!
                                   24193              *
                                   24194              *
 00343E 50E0 D000/9008_      00000 24195              XVLSUBS  PROC  XBWA
 USING  *,R7
 USING  XBWA-(4+36),R8
 USING  VNENTRY,R6                 24245                       USING VNENTRY,R6
 003458 1862                       24254                       LR    R6,R2
 00345A D701 8028 8028 00000 00000 24255                       CLEAR XBSUB1
 003460 D701 802A 802A 00002 00002 24262                       CLEAR XBSUB2
 003466 D701 802C 802C 00004 00004 24269                       CLEAR XBSUB3
                                   24276
                                   24277                       COMMENT                   SKIP BLANKS, SKIP LEADING '['
 00346C 9540 1000/4770_00000       24278                       WHILE ((@R1,EQ,' '),AND,(R0,POS)),BEGIN
 00347A 4111 0001            00001 24309  1                      LA    R1,1(R1)
 00347E 0600                       24310  1                      DECR  R0
 003480 47F0 7014            0346C 24312                       END
 003484 95AD 1000/4770_00000       24317                       IF    ((@R1,NE,'['),OR,(R0,NP)),BEGIN
 003492 1BFF                       24346  1                      CLEAR R15
 003494 47F0 725E            036B6 24350  1                      B     SUBSDONE
 003498                            24351                       END
 003498 4111 0001            00001 24355                       LA    R1,1(R1)            SKIP '['
 00349C 0600                       24356                       DECR  R0
                                   24358
1EVAL     (EVAL9204) (12:43) (15MAR04) SYSTEM FUNCTION EVAUATION ROUTINES                                                   Page  121
0Current Usings:  (VNENTRY,R6) (*,R7) (XBWA-(4+36),R8) (CP,R11) (CV,R12)
0Loc    Object Code    Addr1 Addr2  Stmt Lv Lineno    Source Statement           (Hibal 5, Asmedit 3.3)  HLASM R4.0  2004/03/15 12.43
+___    ______ ____    _____ _____  ____ __ ______    ______ _________
0                                  24359                       COMMENT                   CHECK FOR NULL SUBS (IE. [])
 00349E 9540 1000/4770_00000       24360                       WHILE ((@R1,EQ,' '),AND,(R0,POS)),BEGIN
 0034AC 4111 0001            00001 24391  1                      LA    R1,1(R1)
 0034B0 0600                       24392  1                      DECR  R0
 0034B2 47F0 7046            0349E 24394                       END
 0034B6 95BD 1000/4770_00000       24399                       IF    ((@R1,EQ,']'),AND,(R0,POS)),BEGIN
 0034C4 58E0 7384/0DEE       037DC 24428  1                      VCALL SEGVNAME
 0034CA 4110 73C4/4100_      0381C 24432  1                      TSEG  ': missing subscripts. '
 0034DC 41F0 0004            00004 24450  1                      LA    R15,4
 0034E0 47F0 725E            036B6 24451  1                      B     SUBSDONE
 0034E4                            24452                       END
                                   24456                       ¿þþþþþþþþþþþþþþþþþþþþþþþþþþþþþþþþÜ
                                   24457                       Ÿ  LOOP EVALUATING SUBSCRIPTS !  Ÿ
                                   24458                       ¾þþþþþþþþþþþþþþþþþþþþþþþþþþþþþþþþ»
                                   24459                       COMMENT                   LOOP EVALUATING SUBSCRIPTS
 0034E4 1B33                       24460                       CLEAR R3
 0034E6 4140 8028            00000 24464                       LA    R4,XBSUB1           R3,R4 - SUBSCRIPT #, INDEX
 0034EA 95BD 1000/4780_00000       24465                       WHILE (@R1,NE,']'),BEGIN  LOOP UNTIL END OF SUBSCRIPTS
 0034F2 4133 0001            00001 24483  1                      LA    R3,1(R3)
                                   24484  1
                                   24485  1                      COMMENT                   SPECIAL PROCESSING FOR ']'
 0034F6 9540 1000/4770_00000       24486  1                      WHILE ((@R1,EQ,' '),AND,(R0,POS)),BEGIN
 003504 4111 0001            00001 24517  2                        LA    R1,1(R1)
 003508 0600                       24518  2                        DECR  R0
 00350A 47F0 709E            034F6 24520  1                      END
 00350E 95BD 1000/4770_00000       24525  1                      IF    ((@R1,EQ,']'),AND,(R0,POS)),BEGIN
 00351C 58F0 7388            037E0 24554  2                        L     R15,=F'-1'          IF ']', TREAT LIKE NULL EXPR
 003520                            24555  1                      END
                                   24559  1           *
                                   24560  1           *
 003520 95BD 1000/4770_00000       24561  1                      IF    ((@R1,NE,']'),OR,(R0,NP)),BEGIN     SPECIAL ']' CHECK
                                   24590  2                        COMMENT
                                   24591  2                        COMMENT                   EVALUATE INTEGER EXPRESSION
                                   24592  2                        COMMENT                   EVALUATE INTEGER EXPRESSION
                                   24593  2                        COMMENT
 00352E 58E0 738C/0DEE       037E4 24594  2                        ACALL XVLINT              *******  !!!!
 003534                            24598  1                      END
                                   24602  1           *
                                   24603  1           *
                                   24604  1                      COMMENT                   IF GOOD EXPRESSION,,
 003534 12FF/4770 7114             24605  1                      IF    (R15,Z),BEGIN
 00353A 4024 0000            00000 24619  2                        STH   R2,0(R4)            SAVE SUBSCRIPT
 00353E 4144 0002            00002 24620  2                        LA    R4,L'XBSUB1(R4)
 003542 1222/4720 70FE             24621  2                        IF    (R2,NP),BEGIN
 003548 4120 6000            00000 24635  3                          LA    R2,VNENTRY
 00354C 58E0 7390/0DEE       037E8 24636  3                          ACALL SMALLSUB
 003552 47F0 725E            036B6 24640  3                          B     SUBSDONE
 003556                            24641  2                        END
 003556 5920 7394/47D0_      037EC 24645  2                        IF    (R2,GT,32000),BEGIN
 00355E 4120 6000            00000 24662  3                          LA    R2,VNENTRY
 003562 58E0 7398/0DEE       037F0 24663  3                          ACALL BIGSUB
 003568 47F0 725E            036B6 24667  3                          B     SUBSDONE
 00356C                            24668  2                        END
 00356C                            24672  1                      END
1EVAL     (EVAL9204) (12:43) (15MAR04) SYSTEM FUNCTION EVAUATION ROUTINES                                                   Page  122
0Current Usings:  (VNENTRY,R6) (*,R7) (XBWA-(4+36),R8) (CP,R11) (CV,R12)
0Loc    Object Code    Addr1 Addr2  Stmt Lv Lineno    Source Statement           (Hibal 5, Asmedit 3.3)  HLASM R4.0  2004/03/15 12.43
+___    ______ ____    _____ _____  ____ __ ______    ______ _________
0                                  24676  1
                                   24677  1                      COMMENT                   IF NULL EXPRESSION
 00356C 7118/47F0 712C_0356C 03538 24678  1                      ELSEIF (R15,NEG),BEGIN
 003576 4120 6000            00000 24701  2                        LA    R2,VNENTRY
 00357A 58E0 739C/0DEE       037F4 24702  2                        ACALL BADSUB
 003580 47F0 725E            036B6 24706  2                        B     SUBSDONE
 003584                            24707  1                      END
                                   24711  1
                                   24712  1                      COMMENT                   IF ERROR IN EXPRESSION
 003584 7130/47F0 7144_03584 03574 24713  1                      ELSEIF (R15,POS),BEGIN
 00358E 4120 6000            00000 24736  2                        LA    R2,VNENTRY
 003592 58E0 739C/0DEE       037F4 24737  2                        ACALL BADSUB
 003598 47F0 725E            036B6 24741  2                        B     SUBSDONE
 00359C                            24742  1                      END
                                   24746  1
                                   24747  1                      COMMENT                   GET SET TO EVALUATE
                                   24748  1                      COMMENT                   NEXT SUBSCRIPT,  R1,R0=LOC,LEN
                                   24749  1                      COMMENT
 00359C 1200/4720 716A             24750  1                      IF    (R0,NP),BEGIN           IF NO NEXT,,
 0035A2 4120 6000            00000 24764  2                        LA    R2,VNENTRY
 0035A6 4110 73DA/4100_      03832 24765  2                        TSEG  'Expecting "]". '
 0035B8 58E0 739C/0DEE       037F4 24783  2                        ACALL BADSUB
 0035BE 47F0 725E            036B6 24787  2                        B     SUBSDONE
 0035C2                            24788  1                      END
 0035C2 955E 1000/4770_00000       24792  1                      IF    (@R1,EQ,';'),BEGIN      IF ';' INVALID
 0035CA 4120 6000            00000 24808  2                        LA    R2,VNENTRY
 0035CE 58E0 739C/0DEE       037F4 24809  2                        ACALL BADSUB
 0035D4 47F0 725E            036B6 24813  2                        B     SUBSDONE
 0035D8                            24814  1                      END
 0035D8 955D 1000/4770_00000       24818  1                      IF    (@R1,EQ,')'),BEGIN      IF ')' INVALID
 0035E0 4120 6000            00000 24834  2                        LA    R2,VNENTRY
 0035E4 4110 7328/4100_      03780 24835  2                        TSEG  ')   -- invalid. '
 0035F6 58E0 739C/0DEE       037F4 24853  2                        ACALL BADSUB
 0035FC 47F0 725E            036B6 24857  2                        B     SUBSDONE
 003600                            24858  1                      END
 003600 956B 1000/4780_00000       24862  1                      IF    ((@R1,NE,','),AND,(@R1,NE,']')),BEGIN
 003610 58E0 7380/0DEE       037D8 24893  2                        VCALL CHECKEND
 003616 4110 73E9/4100_      03841 24897  2                        TSEG  'Subscripts must be separated by commas.  '
 003628 4120 6000            00000 24915  2                        LA    R2,VNENTRY
 00362C 58E0 739C/0DEE       037F4 24916  2                        ACALL BADSUB
 003632 47F0 725E            036B6 24920  2                        B     SUBSDONE
 003636                            24921  1                      END
 003636 956B 1000/4770_00000       24925  1                      IF    (@R1,EQ,','),BEGIN      IF ',' SKIP
 00363E 4111 0001            00001 24941  2                        LA    R1,1(R1)
 003642 0600                       24942  2                        DECR  R0
 003644 95BD 1000/4770_00000       24944  2                        IF    ((@R1,EQ,']'),AND,(R0,POS)),BEGIN  IF '... ,]' ERROR
 003652 4133 0001            00001 24973  3                          LA    R3,1(R3)
 003656 4120 6000            00000 24974  3                          LA    R2,VNENTRY
 00365A 58E0 739C/0DEE       037F4 24975  3                          ACALL BADSUB
 003660 47F0 725E            036B6 24979  3                          B     SUBSDONE
 003664                            24980  2                        END
 003664                            24984  1                      END
 003664 5930 73A0/4750_      037F8 24988  1                      IF    ((R3,GE,SUBLIMIT),AND,(@R1,NE,']')),BEGIN
 003674 4120 6000            00000 25020  2                        LA    R2,VNENTRY
1EVAL     (EVAL9204) (12:43) (15MAR04) SYSTEM FUNCTION EVAUATION ROUTINES                                                   Page  123
0Current Usings:  (VNENTRY,R6) (*,R7) (XBWA-(4+36),R8) (CP,R11) (CV,R12)
0Loc    Object Code    Addr1 Addr2  Stmt Lv Lineno    Source Statement           (Hibal 5, Asmedit 3.3)  HLASM R4.0  2004/03/15 12.43
+___    ______ ____    _____ _____  ____ __ ______    ______ _________
0003678 58E0 7384/0DEE       037DC 25021  2                        VCALL SEGVNAME
 00367E 4110 7412/4100_      0386A 25025  2                        TSEG  ': too many subscripts specified for array. '
 003690 41F0 0004            00004 25043  2                        LA    R15,4
 003694 47F0 725E            036B6 25044  2                        B     SUBSDONE
 003698                            25045  1                      END
                                   25049  1
                                   25050  1                      COMMENT                   LOOP EVALUATING SUBSCRIPTS,,
 003698 47F0 7092            034EA 25051                       END
                                   25056              *
                                   25057              *
                                   25058                       COMMENT                   GOT SUBSCRIPTS
 00369C 5E10 7360            037B8 25059                       INCR  R1                  SKIP FINAL ']'
 0036A0 0600                       25062                       DECR  R0
 0036A2 D201 6012 8028 00012 00000 25064                       MVC   VNASUB1,XBSUB1
 0036A8 D201 6014 802A 00014 00002 25065                       MVC   VNASUB2,XBSUB2
 0036AE D201 6016 802C 00016 00004 25066                       MVC   VNASUB3,XBSUB3
 0036B4 1BFF                       25067                       CLEAR R15
                                   25071
 0036B6                            25072              SUBSDONE LABEL ,
 0036B6 9001 8004            00004 25074                       PRETURN (R0,R1)
 0036BA 18D8/9808 D004_            25076                       PEND  ,
 DROP   XBWA-(4+36),R8
 DROP   *,R7
 DROP   VNENTRY,R6                 25101                       DROP  R6
1EVAL     (EVAL9204) (12:43) (15MAR04) SYSTEM FUNCTION EVAUATION ROUTINES                                                   Page  124
0Current Usings:  (CP,R11) (CV,R12)
0Loc    Object Code    Addr1 Addr2  Stmt Lv Lineno    Source Statement           (Hibal 5, Asmedit 3.3)  HLASM R4.0  2004/03/15 12.43
+___    ______ ____    _____ _____  ____ __ ______    ______ _________
0                                  25109              ¿þþþþþþþþþþþþþþþþþþþþþþþþþþþþþþþþþþþþþþþþþþþþþþþþþþþþþþþþþþþþþþþþþþþþþÜ
                                   25110              Ÿ                                                                     Ÿ
                                   25111              Ÿ                                                                     Ÿ
                                   25112              Ÿ  XVLINT - EVALUATE INTEGER EXPRESSION                               Ÿ
                                   25113              Ÿ                                                                     Ÿ
                                   25114              Ÿ  THIS ROUTINE IS CALLED BY XVLSUBS TO EVALUATE SUBSCRIPTS.          Ÿ
                                   25115              Ÿ                                                                     Ÿ
                                   25116              Ÿ  ON ENTRY:                                                          Ÿ
                                   25117              Ÿ    R1,R0 - LOC, LENGTH OF STRING CONTAINING EXPRESSION              Ÿ
                                   25118              Ÿ       R6 - EXPRESSION STACK POINTER                                 Ÿ
                                   25119              Ÿ                                                                     Ÿ
                                   25120              Ÿ  ON EXIT:                                                           Ÿ
                                   25121              Ÿ    R1,R0 - LOC, LENGTH OF REMAINING STRING                          Ÿ
                                   25122              Ÿ       R2 - INTEGER VALUE (ANY FRACTIONAL PART TRUNCATED)            Ÿ
                                   25123              Ÿ      R15 - CC=ZERO, ALL OK                                          Ÿ
                                   25124              Ÿ            CC=MINUS, NULL EXPRESSION                                Ÿ
                                   25125              Ÿ            CC=POS, ERROR, ERROR MSG TSEG'D                          Ÿ
                                   25126              Ÿ                                                                     Ÿ
                                   25127              Ÿ                                                                     Ÿ
                                                      ¾þþþþþþþþþþþþþþþþþþþþþþþþþþþþþþþþþþþþþþþþþþþþþþþþþþþþþþþþþþþþþþþþþþþþþ»
00036C8 50E0 D000/9008_      00000 25128              XVLINT   PROC
 USING  *,R7
 USING  XSENTRY,R6                 25167                       USING XSENTRY,R6
 0036E2 1BFF/5A60 70B2_            25176                       XSPUSH ,,                 PUSH EXPRESSION STACK POINTER (R6)
 00370A 4770 705A            0373C 25215                       IF    Z,BEGIN
 00370E 58E0 70E6/0DEE       037C8 25226  1                      ACALL XXXEVAL             RECURSIVELY CALL EVALUATE
 003714 4770 7052            03734 25230  1                      IF    Z,BEGIN             IF GOOD EXPRESSION
 003718 4120 6000            00000 25241  2                        LA    R2,XSENTRY
 00371C 58E0 711A/0DEE       037FC 25242  2                        ACALL MAKEINT
 003722 4770 704A            0372C 25246  2                        IF    Z,BEGIN
 003726 1BFF                       25257  3                          CLEAR R15
 003728 5820 6024            00024 25261  3                          L     R2,XSVALUE          R2 = VALUE
 00372C                            25262  2                        END
 00372C 704E/47F0 7052 0372C 03724 25266  2                        ELSE  BEGIN               IF NOT INTEGER EXPRESSION
 003730 41F0 0004            00004 25277  3                          LA    R15,4
 003734                            25278  2                        END
 003734                            25282  1                      END
 003734 12FF/4780 705A             25286  1                      IF    (R15,NZ),BEGIN      IF ERROR
 00373A 1B22                       25300  2                        CLEAR R2
 00373C                            25304  1                      END
 00373C                            25308                       END
 00373C 9002 8004            00004 25312                       PRETURN (R0,R2)
 003740 18D8/9808 D004_            25314                       PEND ,                    NOTE: THIS ALSO POPS EXPR STACK
 DROP   *,R7
 DROP   XSENTRY,R6                 25334                       DROP  R6
1EVAL     (EVAL9204) (12:43) (15MAR04) SYSTEM FUNCTION EVAUATION ROUTINES                                                   Page  125
0Current Usings:  (CP,R11) (CV,R12)
0Loc    Object Code    Addr1 Addr2  Stmt Lv Lineno    Source Statement           (Hibal 5, Asmedit 3.3)  HLASM R4.0  2004/03/15 12.43
+___    ______ ____    _____ _____  ____ __ ______    ______ _________
0                                  25342                       QLTORG
1EVAL     (EVAL9204) (12:43) (15MAR04) VARIABLE TYPE CONVERSIONS                                                            Page  126
0Current Usings:  (CP,R11) (CV,R12)
0Loc    Object Code    Addr1 Addr2  Stmt Lv Lineno    Source Statement           (Hibal 5, Asmedit 3.3)  HLASM R4.0  2004/03/15 12.43
+___    ______ ____    _____ _____  ____ __ ______    ______ _________
0                                  25389              ¿þþþþþþþþþþþþþþþþþþþþþþþþþþþþþþþþþþþþþþþþþþþþþþþþþþþþþþþþþþþþþþþþþþþþþÜ
                                   25390              Ÿ                                                                     Ÿ
                                   25391              Ÿ                                                                     Ÿ
                                   25392              Ÿ  MAKESTR - CONVERT TO STRING                                        Ÿ
                                   25393              Ÿ                                                                     Ÿ
                                   25394              Ÿ                                                                     Ÿ
                                   25395              Ÿ  ON ENTRY:                                                          Ÿ
                                   25396              Ÿ       R2 - VARIABLE ENTRY                                           Ÿ
                                   25397              Ÿ                                                                     Ÿ
                                   25398              Ÿ  ON EXIT:                                                           Ÿ
                                   25399              Ÿ       R2 - VARIABLE ENTRY CONVERTED TO STRING FORMAT                Ÿ
                                   25400              Ÿ      R15 - CC=ZERO, IF CONVERTED OK                                 Ÿ
                                   25401              Ÿ            CC=NZ, IF UNABLE TO CONVERT,,, ERROR IS TSEG'D           Ÿ
                                   25402              Ÿ                                                                     Ÿ
                                   25403              Ÿ  NOTE: IF CONVERTING NUMBER, THE NUMBER IS STORED AS A 8 BYTE       Ÿ
                                   25404              Ÿ        PACKED DECIMAL NUMBER, VNNFORMT DESCRIBES HOW NUMBER         Ÿ
                                   25405              Ÿ        SHOULD BE DISPLAYED.                                         Ÿ
                                   25406              Ÿ                                                                     Ÿ
                                   25407              Ÿ                                                                     Ÿ
                                                      ¾þþþþþþþþþþþþþþþþþþþþþþþþþþþþþþþþþþþþþþþþþþþþþþþþþþþþþþþþþþþþþþþþþþþþþ»
0000000                00000 00150 25408              MAKEWA   RECORD BEGIN ,,
 000000                            25416  1           MAKETEMP   DS    XL(L'VPARM)
 000150                00150 00150 25417                       END
                                   25426              *
                                   25427              *
 003896 50E0 D000/9008_      00000 25428              MAKESTR  XPROC MAKEWA
 USING  *,R7
 USING  MAKEWA-(4+36),R8
 USING  VNENTRY,R2                 25479                       USING VNENTRY,R2
 0038B0 9501 2020/4770_00020       25488                       IF    VNSTRING,BEGIN      IF STRING, NO NEED TO CONVERT,,
 0038B8 1BFF                       25503  1                      CLEAR R15
 0038BA                            25507                       END
 0038BA 700E/47F0 704A_038BA 038B6 25511                       ELSEIF VNBOOL,BEGIN       IF BOOLEAN, CANNOT CONVERT,,
 0038C6 9200 2020      00020       25535  1                      CLEAR VNBOOL
 0038CA 9201 2020      00020       25542  1                      SET   VNSTRING
 0038CE 5810 7980            04230 25548  1                      L     R1,=A(PKZERO)
 0038D2 F9BB 2024 1000 00024 00000 25549  1                      CP    VNVALUE(NL),0(NL,R1)
 0038D8 4770 7038            038E8 25550  1                      IF    E,BEGIN
 0038DC D204 2026 7A64 00026 04314 25561  2                        MVC   VNSTRLOC(5),=CL5'FALSE'  (Niz)
 0038E2 D201 2024 7A50 00024 04300 25562  2                        MVC   VNSTRLEN(2),=H'5'
 0038E8                            25563  1                      END
 0038E8 703C/47F0 7048 038E8 038DA 25567  1                      ELSE  BEGIN
 0038EC D203 2026 7984 00026 04234 25578  2                        MVC   VNSTRLOC(4),=CL4'TRUE'  (Niz)
 0038F2 D201 2024 7A52 00024 04302 25579  2                        MVC   VNSTRLEN(2),=H'4'
 0038F8                            25580  1                      END
 0038F8 1BFF                       25584  1                      CLEAR R15
 0038FA                            25588                       END
 0038FA 704E/47F0 7128_038FA 038C4 25592                       ELSEIF VNNUMB,BEGIN       IF NUMBER, CONVERT TO STRING
 003906 5020 D000/41D0_      00000 25616  1                      XPUSH R2 ,                DO NOT DESTROY R2
 00390E 4100 000B            0000B 25619  1                      LA    R0,11
 003912 4110 2024            00024 25620  1                      LA    R1,VNVALUE
 003916 4120 8028            00000 25621  1                      LA    R2,MAKETEMP
 00391A 58E0 7988/0DEE       04238 25622  1                      ACALL MAKECHAR            UNPACK NUMBER
1EVAL     (EVAL9204) (12:43) (15MAR04) VARIABLE TYPE CONVERSIONS                                                            Page  127
0Current Usings:  (VNENTRY,R2) (*,R7) (MAKEWA-(4+36),R8) (CP,R11) (CV,R12)
0Loc    Object Code    Addr1 Addr2  Stmt Lv Lineno    Source Statement           (Hibal 5, Asmedit 3.3)  HLASM R4.0  2004/03/15 12.43
+___    ______ ____    _____ _____  ____ __ ______    ______ _________
0003920 4BD0 7A54/5820_      04304 25626  1                      XPOP  R2
 003928 4100 8036            0000E 25629  1                      LA    R0,MAKETEMP+14      R0 - END OF WHOLE PART OF NUMBER
 00392C 4110 8028            00000 25630  1                      LA    R1,MAKETEMP         R1 - START OF NUMBER
 003930 4130 803D            00015 25631  1                      LA    R3,MAKETEMP+21      R3 - END OF NUMBER-1
 003934 4140 2026            00026 25632  1                      LA    R4,VNSTRLOC         R4 - PLACE FOR FORMATTED NUMBER
 003938 4150 000D            0000D 25633  1                      LA    R5,13
 00393C 95F0 1000/4770_00000       25634  1                      WHILE ((@R1,EQ,C'0'),AND,(R5,POS)),BEGIN
 00394A 4111 0001            00001 25665  2                        LA    R1,1(R1)            SKIP LEADING ZEROS
 00394E 0650                       25666  2                        DECR  R5
 003950 47F0 708C            0393C 25668  1                      END
 003954 4150 0008            00008 25673  1                      LA    R5,8
 003958 95F0 3000/4770_00000       25674  1                      WHILE ((@R3,EQ,C'0'),AND,(R5,POS)),BEGIN
 003966 0630                       25705  2                        DECR  R3                  SKIP TRAILING ZEROS
 003968 0650                       25707  2                        DECR  R5
 00396A 47F0 70A8            03958 25709  1                      END
 00396E 9101 202F      0002F       25714  1                      TM    VNVALUE+NL-1,X'01'     PROCESS SIGN
 003972 47E0 70CE            0397E 25715  1                      IF    O,BEGIN
 003976 9260 4000      00000       25726  2                        MVI   0(R4),C'-'
 00397A 4144 0001            00001 25727  2                        LA    R4,1(R4)
 00397E                            25728  1                      END
 00397E 1910/47B0 70E6             25732  1                      WHILE (R1,LT,R0),BEGIN    OUTPUT WHOLE PART
 003984 D200 4000 1000 00000 00000 25749  2                        MVC   0(1,R4),0(R1)
 00398A 4111 0001            00001 25750  2                        LA    R1,1(R1)
 00398E 4144 0001            00001 25751  2                        LA    R4,1(R4)
 003992 47F0 70CE            0397E 25752  1                      END
 003996 1930/4750 710E             25757  1                      IF    (R3,GE,R0),BEGIN    IF FRACTIONAL PART
 00399C 924B 4000      00000       25772  2                        MVI   0(R4),C'.'          DO DECIMAL POINT
 0039A0 4144 0001            00001 25773  2                        LA    R4,1(R4)
 0039A4 1810                       25774  2                        LR    R1,R0
 0039A6 1913/4730 710E             25775  2                        WHILE (R1,LE,R3),BEGIN    DO FRACTIONAL PART
 0039AC D200 4000 1000 00000 00000 25792  3                          MVC   0(1,R4),0(R1)
 0039B2 4111 0001            00001 25793  3                          LA    R1,1(R1)
 0039B6 4144 0001            00001 25794  3                          LA    R4,1(R4)
 0039BA 47F0 70F6            039A6 25795  2                        END
 0039BE                            25800  1                      END
 0039BE 9200 2020      00020       25804  1                      CLEAR VNNUMB
 0039C2 58E0 798C/0DEE       0423C 25811  1                      ACALL ZAPOFFR2            ** ZAP INTEGER (** OLD N0-N9)
 0039C8 9201 2020      00020       25815  1                      SET   VNSTRING
 0039CC 4130 2026            00026 25821  1                      LA    R3,VNSTRLOC
 0039D0 1B43                       25822  1                      SR    R4,R3
 0039D2 4040 2024            00024 25823  1                      STH   R4,VNSTRLEN
 0039D6 1BFF                       25824  1                      CLEAR R15
 0039D8                            25828                       END
 0039D8 712C/47F0 7134_039D8 03904 25832                       ELSEIF (R0,EQ,R0),BEGIN   IF NOT BOOL,NUMB,STR, THEN BOMB
 0039E2 0000                       25856  1                      BOMB   ,,                 THIS SHOULD NEVER OCCUR
 0039E4                            25858                       END
 0039E4 18D8/9808 D004_            25862                       PEND  ,
 DROP   MAKEWA-(4+36),R8
 DROP   *,R7
 DROP   VNENTRY,R2                 25887                       DROP  R2
1EVAL     (EVAL9204) (12:43) (15MAR04) VARIABLE TYPE CONVERSIONS                                                            Page  128
0Current Usings:  (CP,R11) (CV,R12)
0Loc    Object Code    Addr1 Addr2  Stmt Lv Lineno    Source Statement           (Hibal 5, Asmedit 3.3)  HLASM R4.0  2004/03/15 12.43
+___    ______ ____    _____ _____  ____ __ ______    ______ _________
0                                  25895              ¿þþþþþþþþþþþþþþþþþþþþþþþþþþþþþþþþþþþþþþþþþþþþþþþþþþþþþþþþþþþþþþþþþþþþþÜ
                                   25896              Ÿ                                                                     Ÿ
                                   25897              Ÿ                                                                     Ÿ
                                   25898              Ÿ  MAKEBOOL - CONVERT TO BOOLEAN                                      Ÿ
                                   25899              Ÿ                                                                     Ÿ
                                   25900              Ÿ                                                                     Ÿ
                                   25901              Ÿ  ON ENTRY:                                                          Ÿ
                                   25902              Ÿ       R2 - VARIABLE ENTRY                                           Ÿ
                                   25903              Ÿ                                                                     Ÿ
                                   25904              Ÿ  ON EXIT:                                                           Ÿ
                                   25905              Ÿ       R2 - VARIABLE ENTRY CONVERTED TO NUMBER FORMAT                Ÿ
                                   25906              Ÿ      R15 - CC=ZERO, IF CONVERTED OK                                 Ÿ
                                   25907              Ÿ            CC=NZ, IF UNABLE TO CONVERT,,, ERROR IS TSEG'D           Ÿ
                                   25908              Ÿ                                                                     Ÿ
                                   25909              Ÿ                                                                     Ÿ
                                                      ¾þþþþþþþþþþþþþþþþþþþþþþþþþþþþþþþþþþþþþþþþþþþþþþþþþþþþþþþþþþþþþþþþþþþþþ»
00039F2 50E0 D000/9008_      00000 25910              MAKEBOOL XPROC MAKEWA
 USING  *,R7
 USING  MAKEWA-(4+36),R8
 USING  VNENTRY,R2                 25961                       USING VNENTRY,R2
 003A0C 9503 2020/4770_00020       25970                       IF    VNBOOL,BEGIN        IF BOOLEAN, NO NEED TO CONVERT,,
 003A14 1BFF                       25985  1                      CLEAR R15
 003A16                            25989                       END
 003A16 700E/47F0 702C_03A16 03A12 25993                       ELSEIF VNNUMB,BEGIN       IF NUMBER, CANNOT CONVERT,,
 003A22 4110 7834/4100_      04240 26017  1                      TSEG  'Number does not convert to boolean. '
 003A34 41F0 0004            00004 26035  1                      LA    R15,4
 003A38                            26036                       END
 003A38 7030/47F0 70C6_03A38 03A20 26040                       ELSEIF VNSTRING,BEGIN     IF STRING, CONVERT IF POSSIBLE
 003A44 4110 2026            00026 26064  1                      LA    R1,VNSTRLOC
 003A48 4830 2024            00024 26065  1                      LH    R3,VNSTRLEN         R1,R3 - STRING LOC LENGTH
 003A4C 5930 785C/4770_      04268 26066  1                      IF    (R3,EQ,4),BEGIN     IF STRING LEN=4
 003A54 D203 8028 1000 00000 00000 26083  2                        MVC   MAKETEMP(4),0(R1)   CHECK FOR TRUE
 003A5A 5840 C8A8            008A8 26084  2                        L     R4,CVUPPTBL
 003A5E DC03 8028 4000 00000 00000 26085  2                        TR    MAKETEMP(4),0(R4)
 003A64 D503 8028 7828 00000 04234 26086  2                        CLC   MAKETEMP(4),=CL4'TRUE'
 003A6A 4770 7074            03A80 26087  2                        IF    E,BEGIN
 003A6E 9200 2020      00020       26098  3                          CLEAR VNSTRING
 003A72 9203 2020      00020       26105  3                          SET   VNBOOL
 003A76 5840 7860            0426C 26111  3                          L     R4,=A(PKONE)
 003A7A D20B 2024 4000 00024 00000 26112  3                          MVC   VNVALUE(NL),0(R4)
 003A80                            26113  2                        END
 003A80                            26117  1                      END
 003A80 5930 7864/4770_      04270 26121  1                      IF    (R3,EQ,5),BEGIN     IF STRING LEN=5
 003A88 D204 8028 1000 00000 00000 26138  2                        MVC   MAKETEMP(5),0(R1)   CHECK FOR FALSE
 003A8E 5840 C8A8            008A8 26139  2                        L     R4,CVUPPTBL
 003A92 DC04 8028 4000 00000 00000 26140  2                        TR    MAKETEMP(5),0(R4)
 003A98 D504 8028 7908 00000 04314 26141  2                        CLC   MAKETEMP(5),=CL5'FALSE'
 003A9E 4770 70A8            03AB4 26142  2                        IF    E,BEGIN
 003AA2 9200 2020      00020       26153  3                          CLEAR VNSTRING
 003AA6 9203 2020      00020       26160  3                          SET   VNBOOL
 003AAA 5840 7824            04230 26166  3                          L     R4,=A(PKZERO)
 003AAE D20B 2024 4000 00024 00000 26167  3                          MVC   VNVALUE(NL),0(R4)
 003AB4                            26168  2                        END
1EVAL     (EVAL9204) (12:43) (15MAR04) VARIABLE TYPE CONVERSIONS                                                            Page  129
0Current Usings:  (VNENTRY,R2) (*,R7) (MAKEWA-(4+36),R8) (CP,R11) (CV,R12)
0Loc    Object Code    Addr1 Addr2  Stmt Lv Lineno    Source Statement           (Hibal 5, Asmedit 3.3)  HLASM R4.0  2004/03/15 12.43
+___    ______ ____    _____ _____  ____ __ ______    ______ _________
0003AB4                            26172  1                      END
 003AB4 9501 2020/4770_00020       26176  1                      IF    VNSTRING,BEGIN
 003ABC 4110 7868/4100_      04274 26191  2                        TSEG  'String does not convert to boolean. '
 003ACE 41F0 0004            00004 26209  2                        LA    R15,4               string does not convert to boolean
 003AD2                            26210  1                      END
 003AD2                            26214                       END
 003AD2 70CA/47F0 70D2_03AD2 03A42 26218                       ELSEIF (R0,EQ,R0),BEGIN   IF NOT BOOL,NUMB,STR, THEN BOMB
 003ADC 0000                       26242  1                      BOMB                      THIS SHOULD NEVER OCCUR
 003ADE                            26244                       END
 003ADE 18D8/9808 D004_            26248                       PEND  ,
 DROP   MAKEWA-(4+36),R8
 DROP   *,R7
 DROP   VNENTRY,R2                 26273                       DROP  R2
1EVAL     (EVAL9204) (12:43) (15MAR04) VARIABLE TYPE CONVERSIONS                                                            Page  130
0Current Usings:  (CP,R11) (CV,R12)
0Loc    Object Code    Addr1 Addr2  Stmt Lv Lineno    Source Statement           (Hibal 5, Asmedit 3.3)  HLASM R4.0  2004/03/15 12.43
+___    ______ ____    _____ _____  ____ __ ______    ______ _________
0                                  26281              ¿þþþþþþþþþþþþþþþþþþþþþþþþþþþþþþþþþþþþþþþþþþþþþþþþþþþþþþþþþþþþþþþþþþþþþÜ
                                   26282              Ÿ                                                                     Ÿ
                                   26283              Ÿ                                                                     Ÿ
                                   26284              Ÿ  MAKENUMB - CONVERT TO NUMBER                                       Ÿ
                                   26285              Ÿ                                                                     Ÿ
                                   26286              Ÿ                                                                     Ÿ
                                   26287              Ÿ  ON ENTRY:                                                          Ÿ
                                   26288              Ÿ       R2 - VARIABLE ENTRY                                           Ÿ
                                   26289              Ÿ                                                                     Ÿ
                                   26290              Ÿ  ON EXIT:                                                           Ÿ
                                   26291              Ÿ       R2 - VARIABLE ENTRY CONVERTED TO NUMBER FORMAT                Ÿ
                                   26292              Ÿ      R15 - CC=ZERO, IF CONVERTED OK                                 Ÿ
                                   26293              Ÿ            CC=NZ, IF UNABLE TO CONVERT,,, ERROR IS TSEG'D           Ÿ
                                   26294              Ÿ                                                                     Ÿ
                                   26295              Ÿ                                                                     Ÿ
                                                      ¾þþþþþþþþþþþþþþþþþþþþþþþþþþþþþþþþþþþþþþþþþþþþþþþþþþþþþþþþþþþþþþþþþþþþþ»
0003AEC 50E0 D000/9008_      00000 26296              MAKENUMB XPROC MAKEWA
 USING  *,R7
 USING  MAKEWA-(4+36),R8
 USING  VNENTRY,R2                 26347                       USING VNENTRY,R2
 003B06 D7FF 8028 8028_00000 00000 26356                       CLEAR MAKETEMP
 003B12 9502 2020/4770_00020       26364                       IF    VNNUMB,BEGIN        IF NUMBER, NO NEED TO CONVERT,,
 003B1A 1BFF                       26379  1                      CLEAR R15
 003B1C                            26383                       END
 003B1C 701A/47F0 7038_03B1C 03B18 26387                       ELSEIF VNBOOL,BEGIN       IF BOOLEAN, CANNOT CONVERT,,
 003B28 4110 7792/4100_      04298 26411  1                      TSEG  'Boolean does not convert to number. '
 003B3A 41F0 0004            00004 26429  1                      LA    R15,4
 003B3E                            26430                       END
 003B3E 703C/47F0 71FC_03B3E 03B26 26434                       ELSEIF VNSTRING,BEGIN     IF STRING, CONVERT IF POSSIBLE
 003B4A 4110 2026            00026 26458  1                      LA    R1,VNSTRLOC
 003B4E 4800 2024            00024 26459  1                      LH    R0,VNSTRLEN         R1,R0 - STRING LOC LENGTH
 003B52 4160 8028            00000 26460  1                      LA    R6,MAKETEMP         R6 - WORK AREA
                                   26461  1                      COMMENT
 003B56 58E0 77B6/0DEE       042BC 26462  1                      ACALL SCNTYPE             SCAN STRING
                                   26466  1                      COMMENT
                                   26467  1           * number
 003B5C 59F0 77BA/4770_      042C0 26468  1                      IF    (R15,EQ,NUMBER),BEGIN          IF NUMBER, DO IT
 003B64 58E0 77BE/0DEE       042C4 26485  2                        ACALL SCNNUMB
 003B6A                            26489  1                      END
                                   26493  1           * blanks or null = 0
 003B6A 7068/47F0 7086_03B6A 03B62 26494  1                      ELSEIF (R15,EQ,0),BEGIN              IF BLANK STRING,
 USING  XSENTRY,R6                 26520  2                        USING XSENTRY,R6                        TREAT AS ZERO
 003B76 D74F 6000 6000 00000 00000 26529  2                        CLEAR XSENTRY
 003B7C 9202 6020      00020       26536  2                        SET   XSNUMB
 003B80 5830 772A            04230 26542  2                        L     R3,=A(PKZERO)
 003B84 D20B 6024 3000 00024 00000 26543  2                        MVC   XSVALUE(NL),0(R3)
 003B8A 1BFF                       26544  2                        CLEAR R15
 003B8C                            26548  1                      END
 003B8C 708A/47F0 7194_03B8C 03B74 26552  1                      ELSEIF (R15,GE,OTHER),BEGIN          IF OTHER NUMBER
                                   26578  2                        COMMENT
                                   26579  2           * + number
 003B98 D501 7800 1000_04306 00000 26580  2                        IF    ((@R1,GE,'+0'),AND,(@R1,LE,'+9'),AND,(R0,GE,2)),BEGIN
 003BB4 4111 0001            00001 26625  3                          LA    R1,1(R1)
1EVAL     (EVAL9204) (12:43) (15MAR04) VARIABLE TYPE CONVERSIONS                                                            Page  131
0Current Usings:  (VNENTRY,R2) (XSENTRY,R6) (*,R7) (MAKEWA-(4+36),R8) (CP,R11) (CV,R12)
0Loc    Object Code    Addr1 Addr2  Stmt Lv Lineno    Source Statement           (Hibal 5, Asmedit 3.3)  HLASM R4.0  2004/03/15 12.43
+___    ______ ____    _____ _____  ____ __ ______    ______ _________
0003BB8 0600                       26626  3                          DECR  R0
 003BBA 58E0 77BE/0DEE       042C4 26628  3                          ACALL SCNNUMB
 003BC0                            26632  2                        END
                                   26636  2           * - number
 003BC0 70BE/70BE/70BE_03BC0 03BA0 26637  2                        ELSEIF ((@R1,GE,'-0'),AND,(@R1,LE,'-9'),AND,(R0,GE,2)),BEGIN
 003BE0 4111 0001            00001 26695  3                          LA    R1,1(R1)
 003BE4 0600                       26696  3                          DECR  R0
 003BE6 58E0 77BE/0DEE       042C4 26698  3                          ACALL SCNNUMB
                                   26702  3                          USING XSENTRY,R6
 003BEC 94F0 602F      0002F       26704  3                          NI    XSVALUE+NL-1,X'F0'
 003BF0 960D 602F      0002F       26705  3                          OI    XSVALUE+NL-1,X'0D'
 DROP   XSENTRY,R6                 26706  3                          DROP  R6
 003BF4                            26713  2                        END
                                   26717  2           * .number
 003BF4 70F2/70F2/70F2_03BF4 03BCC 26718  2                        ELSEIF ((@R1,GE,'.0'),AND,(@R1,LE,'.9'),AND,(R0,GE,2)),BEGIN
 003C14 58E0 77CE/0DEE       042D4 26776  3                          ACALL SCNDOT
 003C1A                            26780  2                        END
                                   26784  2           * + .number
                                   26785  2         C              ELSEIF ((@R1,GE,'+.0'),AND,(@R1,LE,'+.9'),
 003C1A 7118/7118/7118_03C1A 03C00        2                              AND,(R0,GE,3)),BEGIN
 003C3A 4111 0001            00001 26843  3                          LA    R1,1(R1)
 003C3E 0600                       26844  3                          DECR  R0
 003C40 58E0 77CE/0DEE       042D4 26846  3                          ACALL SCNDOT
 003C46                            26850  2                        END
                                   26854  2           * - .number
                                   26855  2         C              ELSEIF ((@R1,GE,'-.0'),AND,(@R1,LE,'-.9'),
 003C46 7144/7144/7144_03C46 03C26        2                              AND,(R0,GE,3)),BEGIN
 003C66 4111 0001            00001 26913  3                          LA    R1,1(R1)
 003C6A 0600                       26914  3                          DECR  R0
 003C6C 58E0 77CE/0DEE       042D4 26916  3                          ACALL SCNDOT
 USING  XSENTRY,R6                 26920  3                          USING XSENTRY,R6
 003C72 94F0 602F      0002F       26929  3                          NI    XSVALUE+NL-1,X'F0'
 003C76 960D 602F      0002F       26930  3                          OI    XSVALUE+NL-1,X'0D'
 DROP   XSENTRY,R6                 26931  3                          DROP  R6
 003C7A                            26938  2                        END
                                   26942  2           * all other others, invalid
 003C7A 7178/7178/7178_03C7A 03C52 26943  2                        ELSEIF (R0,EQ,R0),BEGIN              IF NONE OF THE ABOVE,
 003C84 4110 781F/4100_      04325 26971  3                          TSEG  'String does not convert to number. '
 003C96 41F0 0004            00004 26989  3                          LA    R15,4
 003C9A                            26990  2                        END
 003C9A                            26994  1                      END
                                   26998  1           * and all others, invalid
 003C9A 7198/47F0 71B4_03C9A 03B96 26999  1                      ELSEIF (R0,EQ,R0),BEGIN              IF NONE OF THE ABOVE,
 003CA4 4110 781F/4100_      04325 27023  2                        TSEG  'String does not convert to number. '
 003CB6 41F0 0004            00004 27041  2                        LA    R15,4
 003CBA                            27042  1                      END
                                   27046  1           * final conversion processing
 003CBA 12FF/4770 71E0_            27047  1                      IF    ((R15,Z),AND,(R0,POS)),BEGIN   IF SOMETHING AFTER #,,
 003CC6 58E0 77B6/0DEE       042BC 27074  2                        ACALL SCNTYPE
 003CCC 4780 71E0            03CE6 27078  2                        IF    NZ,BEGIN
 003CD0 4110 781F/4100_      04325 27089  3                          TSEG  'String does not convert to number. '
 003CE2 41F0 0004            00004 27107  3                          LA    R15,4
 003CE6                            27108  2                        END
 003CE6                            27112  1                      END
1EVAL     (EVAL9204) (12:43) (15MAR04) VARIABLE TYPE CONVERSIONS                                                            Page  132
0Current Usings:  (VNENTRY,R2) (*,R7) (MAKEWA-(4+36),R8) (CP,R11) (CV,R12)
0Loc    Object Code    Addr1 Addr2  Stmt Lv Lineno    Source Statement           (Hibal 5, Asmedit 3.3)  HLASM R4.0  2004/03/15 12.43
+___    ______ ____    _____ _____  ____ __ ______    ______ _________
0003CE6 59F0 77C2/4770_      042C8 27116  1                      IF    (R15,EQ,0),BEGIN            IF CONVERSION SUCCESSFUL,,
 USING  XSENTRY,R6                 27133  2                        USING XSENTRY,R6                    MOVE IT
 003CEE 9200 2020      00020       27142  2                        CLEAR VNSTRING
 003CF2 9202 2020      00020       27149  2                        SET   VNNUMB
 003CF6 58E0 7736/0DEE       0423C 27155  2                        ACALL ZAPOFFR2            ** ZAP INTEGER (**OLD N0-N9)
 003CFC D20B 2024 6024 00024 00024 27159  2                        MVC   VNVALUE(NL),XSVALUE
 DROP   XSENTRY,R6                 27160  2                        DROP  R6
 003D02                            27167  1                      END
 003D02                            27171                       END
 003D02 7200/47F0 7208_03D02 03B48 27175                       ELSEIF (R0,EQ,R0),BEGIN   IF NOT BOOL,NUMB,STR, THEN BOMB
 003D0C 0000                       27199  1                      BOMB   ,,                 THIS SHOULD NEVER OCCUR
 003D0E                            27201                       END
 003D0E 18D8/9808 D004_            27205                       PEND  ,
 DROP   MAKEWA-(4+36),R8
 DROP   *,R7
 DROP   VNENTRY,R2                 27230                       DROP  R2
1EVAL     (EVAL9204) (12:43) (15MAR04) VARIABLE TYPE CONVERSIONS                                                            Page  133
0Current Usings:  (CP,R11) (CV,R12)
0Loc    Object Code    Addr1 Addr2  Stmt Lv Lineno    Source Statement           (Hibal 5, Asmedit 3.3)  HLASM R4.0  2004/03/15 12.43
+___    ______ ____    _____ _____  ____ __ ______    ______ _________
0                                  27238              ¿þþþþþþþþþþþþþþþþþþþþþþþþþþþþþþþþþþþþþþþþþþþþþþþþþþþþþþþþþþþþþþþþþþþþþÜ
                                   27239              Ÿ                                                                     Ÿ
                                   27240              Ÿ                                                                     Ÿ
                                   27241              Ÿ  MAKEINT - CONVERT TO INTEGER                                       Ÿ
                                   27242              Ÿ                                                                     Ÿ
                                   27243              Ÿ  *** HEY *** ... ALL NUMBERS ARE STORED IN PACKED DECIMAL FORMAT.   Ÿ
                                   27244              Ÿ  IF YOU CONVERT A NUMBER TO INTEGER FORMAT, YOU ARE RESPONSIBLE     Ÿ
                                   27245              Ÿ  FOR RETURNING IT TO PACKED DECIMAL FORMAT.                         Ÿ
                                   27246              Ÿ                                                                     Ÿ
                                   27247              Ÿ                                                                     Ÿ
                                   27248              Ÿ  ON ENTRY:                                                          Ÿ
                                   27249              Ÿ       R2 - VARIABLE ENTRY                                           Ÿ
                                   27250              Ÿ                                                                     Ÿ
                                   27251              Ÿ  ON EXIT:                                                           Ÿ
                                   27252              Ÿ       R2 - VARIABLE ENTRY CONVERTED TO INTEGER FORMAT               Ÿ
                                   27253              Ÿ      R15 - CC=ZERO, IF CONVERTED OK                                 Ÿ
                                   27254              Ÿ            CC=NZ, IF UNABLE TO CONVERT,,, ERROR IS TSEG'D           Ÿ
                                   27255              Ÿ                                                                     Ÿ
                                   27256              Ÿ                                                                     Ÿ
                                                      ¾þþþþþþþþþþþþþþþþþþþþþþþþþþþþþþþþþþþþþþþþþþþþþþþþþþþþþþþþþþþþþþþþþþþþþ»
0003D1C 50E0 D000/9008_      00000 27257              MAKEINT  XPROC MAKEWA
 USING  *,R7
 USING  MAKEWA-(4+36),R8
 USING  VNENTRY,R2                 27308                       USING VNENTRY,R2
 003D36 58E0 75A6/0DEE       042DC 27317                       ACALL MAKENUMB            FIRST CONVERT TO NUMBER
 003D3C 4770 704C            03D82 27321                       IF    Z,BEGIN
 003D40 F0B0 2024 0037 00024 00037 27332  1                      SRP   VNVALUE(NL),64-9,0      CHANGE TO F14.0
 003D46 F9BB 2024 70CE_00024 03E04 27333  1                      IF    (' CP VNVALUE,MAXNUMB',H),BEGIN   CHECK FOR OVERFLOW
 003D50 58E0 75AA/0DEE       042E0 27346  2                        ACALL OVERFLOW
 003D56                            27350  1                      END
 003D56 7024/47F0 7034_03D56 03D4E 27354  1                      ELSEIF (' CP VNVALUE,MINNUMB',L),BEGIN  CHECK FOR OVERFLOW
 003D64 58E0 75AA/0DEE       042E0 27376  2                        ACALL OVERFLOW
 003D6A                            27380  1                      END
 003D6A 7038/47F0 704C 03D6A 03D62 27384  1                      ELSE  BEGIN
 003D6E D207 8028 2028 00000 00028 27395  2                        MVC   MAKETEMP(8),VNVALUE+NL-8
 003D74 4F10 8028            00000 27396  2                        CVB   R1,MAKETEMP         CONVERT TO BINARY !
 003D78 5010 2024            00024 27397  2                        ST    R1,VNVALUE
 003D7C D203 202C 75AE 0002C 042E4 27398  2                        MVC   VNVALUE+NL-4(4),=CL4'INT '
 003D82                            27399  1                      END
 003D82                            27403                       END
 003D82 18D8/9808 D004_            27407                       PEND  ,
 DROP   MAKEWA-(4+36),R8
 DROP   *,R7
 DROP   VNENTRY,R2                 27432                       DROP  R2
1EVAL     (EVAL9204) (12:43) (15MAR04) VARIABLE TYPE CONVERSIONS                                                            Page  134
0Current Usings:  (CP,R11) (CV,R12)
0Loc    Object Code    Addr1 Addr2  Stmt Lv Lineno    Source Statement           (Hibal 5, Asmedit 3.3)  HLASM R4.0  2004/03/15 12.43
+___    ______ ____    _____ _____  ____ __ ______    ______ _________
0                                  27440              ¿þþþþþþþþþþþþþþþþþþþþþþþþþþþþþþþþþþþþþþþþþþþþþþþþþþþþþþþþþþþþþþþþþþþþþÜ
                                   27441              Ÿ                                                                     Ÿ
                                   27442              Ÿ                                                                     Ÿ
                                   27443              Ÿ  MAKELNO - CONVERT TO WYLBUR LINE NUMBER                            Ÿ
                                   27444              Ÿ                                                                     Ÿ
                                   27445              Ÿ  *** HEY *** ... ALL NUMBERS ARE STORED IN PACKED DECIMAL FORMAT.   Ÿ
                                   27446              Ÿ  IF YOU CONVERT A NUMBER INTO A LINE NUMBER, YOU ARE RESPONSIBLE    Ÿ
                                   27447              Ÿ  FOR RETURNING IT TO PACKED DECIMAL FORMAT.                         Ÿ
                                   27448              Ÿ                                                                     Ÿ
                                   27449              Ÿ                                                                     Ÿ
                                   27450              Ÿ  ON ENTRY:                                                          Ÿ
                                   27451              Ÿ       R2 - VARIABLE ENTRY                                           Ÿ
                                   27452              Ÿ                                                                     Ÿ
                                   27453              Ÿ  ON EXIT:                                                           Ÿ
                                   27454              Ÿ       R2 - VARIABLE ENTRY CONVERTED TO WYLBUR LINE NUMBER           Ÿ
                                   27455              Ÿ      R15 - CC=ZERO, IF CONVERTED OK                                 Ÿ
                                   27456              Ÿ            CC=NZ, IF UNABLE TO CONVERT,,, ERROR IS TSEG'D           Ÿ
                                   27457              Ÿ                                                                     Ÿ
                                   27458              Ÿ                                                                     Ÿ
                                                      ¾þþþþþþþþþþþþþþþþþþþþþþþþþþþþþþþþþþþþþþþþþþþþþþþþþþþþþþþþþþþþþþþþþþþþþ»
0003D90 50E0 D000/9008_      00000 27459              MAKELNO  XPROC MAKEWA
 USING  *,R7
 USING  MAKEWA-(4+36),R8
 USING  VNENTRY,R2                 27510                       USING VNENTRY,R2
 003DAA 58E0 7532/0DEE       042DC 27519                       ACALL MAKENUMB            FIRST CONVERT TO NUMBER
 003DB0 4770 704C            03DF6 27523                       IF    Z,BEGIN
 003DB4 F0B0 2024 003A 00024 0003A 27534  1                      SRP   VNVALUE(NL),64-6,0        CHANGE TO F14.3
 003DBA F9BB 2024 705A_00024 03E04 27535  1                      IF    (' CP VNVALUE,MAXNUMB',H),BEGIN   CHECK FOR OVERFLOW
 003DC4 58E0 7536/0DEE       042E0 27548  2                        ACALL OVERFLOW
 003DCA                            27552  1                      END
 003DCA 7024/47F0 7034_03DCA 03DC2 27556  1                      ELSEIF (' CP VNVALUE,MINNUMB',L),BEGIN  CHECK FOR OVERFLOW
 003DD8 58E0 7536/0DEE       042E0 27578  2                        ACALL OVERFLOW
 003DDE                            27582  1                      END
 003DDE 7038/47F0 704C 03DDE 03DD6 27586  1                      ELSE  BEGIN
 003DE2 D207 8028 2028 00000 00028 27597  2                        MVC   MAKETEMP(8),VNVALUE+NL-8
 003DE8 4F10 8028            00000 27598  2                        CVB   R1,MAKETEMP         CONVERT TO BINARY !
 003DEC 5010 2024            00024 27599  2                        ST    R1,VNVALUE
 003DF0 D203 202C 753E 0002C 042E8 27600  2                        MVC   VNVALUE+NL-4(4),=CL4'LNO '
 003DF6                            27601  1                      END
 003DF6                            27605                       END
 003DF6 18D8/9808 D004_            27609                       PEND  ,
 DROP   MAKEWA-(4+36),R8
 DROP   *,R7
 DROP   VNENTRY,R2                 27634                       DROP  R2
-                                  27642              * MAXIMUM, MINIMUM FULLWORD VALUES
 003E04 0000000000000214           27643              MAXNUMB  DC    PL12'+2147483647'
 003E10 0000000000000214           27644              MINNUMB  DC    PL12'-2147483648'
1EVAL     (EVAL9204) (12:43) (15MAR04) VARIABLE TYPE CONVERSIONS                                                            Page  135
0Current Usings:  (CP,R11) (CV,R12)
0Loc    Object Code    Addr1 Addr2  Stmt Lv Lineno    Source Statement           (Hibal 5, Asmedit 3.3)  HLASM R4.0  2004/03/15 12.43
+___    ______ ____    _____ _____  ____ __ ______    ______ _________
0                                  27646              ¿þþþþþþþþþþþþþþþþþþþþþþþþþþþþþþþþþþþþþþþþþþþþþþþþþþþþþþþþþþþþþþþþþþþþþÜ
                                   27647              Ÿ                                                                     Ÿ
                                   27648              Ÿ                                                                     Ÿ
                                   27649              Ÿ  MAKEITOD - CONVERT INTEGER TO PACKED DECIMAL                       Ÿ
                                   27650              Ÿ                                                                     Ÿ
                                   27651              Ÿ                                                                     Ÿ
                                   27652              Ÿ  ON ENTRY:                                                          Ÿ
                                   27653              Ÿ       R2 - VARIABLE ENTRY                                           Ÿ
                                   27654              Ÿ                                                                     Ÿ
                                   27655              Ÿ  ON EXIT:                                                           Ÿ
                                   27656              Ÿ       R2 - VARIABLE ENTRY CONVERTED TO PACKED DECIMAL               Ÿ
                                   27657              Ÿ      R15 - CC=ZERO, IF CONVERTED OK                                 Ÿ
                                   27658              Ÿ            CC=NZ, IF UNABLE TO CONVERT,,, ERROR IS TSEG'D           Ÿ
                                   27659              Ÿ                                                                     Ÿ
                                   27660              Ÿ                                                                     Ÿ
                                                      ¾þþþþþþþþþþþþþþþþþþþþþþþþþþþþþþþþþþþþþþþþþþþþþþþþþþþþþþþþþþþþþþþþþþþþþ»
0003E1C 50E0 D000/9008_      00000 27661              MAKEITOD XPROC MAKEWA
 USING  *,R7
 USING  MAKEWA-(4+36),R8
 USING  VNENTRY,R2                 27712                       USING VNENTRY,R2
 003E36 5810 2024            00024 27721                       L     R1,VNVALUE
 003E3A 4E10 8028            00000 27722                       CVD   R1,MAKETEMP         CONVERT TO PACKED DECIMAL
 003E3E 5810 73FA            04230 27723                       L     R1,=A(PKZERO)
 003E42 D20B 2024 1000 00024 00000 27724                       MVC   VNVALUE(NL),0(R1)
 003E48 D207 2028 8028 00028 00000 27725                       MVC   VNVALUE+NL-8(8),MAKETEMP
 003E4E F0B0 2024 0009 00024 00009 27726                       SRP   VNVALUE(NL),9,0     CHANGE TO F14.9
 003E54 1BFF                       27727                       CLEAR R15
 003E56 18D8/9808 D004_            27731                       PEND  ,
 DROP   MAKEWA-(4+36),R8
 DROP   *,R7
 DROP   VNENTRY,R2                 27756                       DROP  R2
1EVAL     (EVAL9204) (12:43) (15MAR04) VARIABLE TYPE CONVERSIONS                                                            Page  136
0Current Usings:  (CP,R11) (CV,R12)
0Loc    Object Code    Addr1 Addr2  Stmt Lv Lineno    Source Statement           (Hibal 5, Asmedit 3.3)  HLASM R4.0  2004/03/15 12.43
+___    ______ ____    _____ _____  ____ __ ______    ______ _________
0                                  27764              ¿þþþþþþþþþþþþþþþþþþþþþþþþþþþþþþþþþþþþþþþþþþþþþþþþþþþþþþþþþþþþþþþþþþþþþÜ
                                   27765              Ÿ                                                                     Ÿ
                                   27766              Ÿ                                                                     Ÿ
                                   27767              Ÿ  MAKELTOD - CONVERT WYLBUR LINE NUMBER TO PACKED DECIMAL            Ÿ
                                   27768              Ÿ                                                                     Ÿ
                                   27769              Ÿ                                                                     Ÿ
                                   27770              Ÿ  ON ENTRY:                                                          Ÿ
                                   27771              Ÿ       R2 - VARIABLE ENTRY                                           Ÿ
                                   27772              Ÿ                                                                     Ÿ
                                   27773              Ÿ  ON EXIT:                                                           Ÿ
                                   27774              Ÿ       R2 - VARIABLE ENTRY CONVERTED TO PACKED DECIMAL               Ÿ
                                   27775              Ÿ      R15 - CC=ZERO, IF CONVERTED OK                                 Ÿ
                                   27776              Ÿ            CC=NZ, IF UNABLE TO CONVERT,,, ERROR IS TSEG'D           Ÿ
                                   27777              Ÿ                                                                     Ÿ
                                   27778              Ÿ                                                                     Ÿ
                                                      ¾þþþþþþþþþþþþþþþþþþþþþþþþþþþþþþþþþþþþþþþþþþþþþþþþþþþþþþþþþþþþþþþþþþþþþ»
0003E64 50E0 D000/9008_      00000 27779              MAKELTOD XPROC MAKEWA
 USING  *,R7
 USING  MAKEWA-(4+36),R8
 USING  VNENTRY,R2                 27830                       USING VNENTRY,R2
 003E7E 5810 2024            00024 27839                       L     R1,VNVALUE
 003E82 4E10 8028            00000 27840                       CVD   R1,MAKETEMP         CONVERT TO PACKED DECIMAL
 003E86 5810 73B2            04230 27841                       L     R1,=A(PKZERO)
 003E8A D20B 2024 1000 00024 00000 27842                       MVC   VNVALUE(NL),0(R1)
 003E90 D207 2028 8028 00028 00000 27843                       MVC   VNVALUE+NL-8(8),MAKETEMP
                                   27844                       COMMENT                   SCALE DECIMAL POINT
 003E96 F0B0 2024 0006 00024 00006 27845                       SRP   VNVALUE(NL),6,0     CHANGE TO F14.9
 003E9C 1BFF                       27846                       CLEAR R15
 003E9E 18D8/9808 D004_            27850                       PEND  ,
 DROP   MAKEWA-(4+36),R8
 DROP   *,R7
 DROP   VNENTRY,R2                 27875                       DROP  R2
1EVAL     (EVAL9204) (12:43) (15MAR04) VARIABLE TYPE CONVERSIONS                                                            Page  137
0Current Usings:  (CP,R11) (CV,R12)
0Loc    Object Code    Addr1 Addr2  Stmt Lv Lineno    Source Statement           (Hibal 5, Asmedit 3.3)  HLASM R4.0  2004/03/15 12.43
+___    ______ ____    _____ _____  ____ __ ______    ______ _________
0                                  27883              ¿þþþþþþþþþþþþþþþþþþþþþþþþþþþþþþþþþþþþþþþþþþþþþþþþþþþþþþþþþþþþþþþþþþþþþÜ
                                   27884              Ÿ                                                                     Ÿ
                                   27885              Ÿ                                                                     Ÿ
                                   27886              Ÿ  MAKEHEX  - CONVERT HEX CHARS TO HEX                                Ÿ
                                   27887              Ÿ                                                                     Ÿ
                                   27888              Ÿ  ON ENTRY:                                                          Ÿ
                                   27889              Ÿ       R0 - LENGTH OF HEX CHARS TO CONVERT (<512)                    Ÿ
                                   27890              Ÿ       R1 - LOCATION OF HEX CHARS TO CONVERT                         Ÿ
                                   27891              Ÿ       R2 - PLACE TO PUT HEX (MAY = R1)                              Ÿ
                                   27892              Ÿ                                                                     Ÿ
                                   27893              Ÿ  ON EXIT:                                                           Ÿ
                                   27894              Ÿ       R0 - NEW LENGTH (= APROX. 1/2 OF ENTRY VALUE)                 Ÿ
                                   27895              Ÿ       R1 - UNCHANGED                                                Ÿ
                                   27896              Ÿ       R2 - UNCHANGED                                                Ÿ
                                   27897              Ÿ      R15 - CC=0, IF OK ;; CC=NZ IF NOT VALID HEX CHARS              Ÿ
                                   27898              Ÿ                                                                     Ÿ
                                                      ¾þþþþþþþþþþþþþþþþþþþþþþþþþþþþþþþþþþþþþþþþþþþþþþþþþþþþþþþþþþþþþþþþþþþþþ»
0000000                00000 00210 27899              MHWA     RECORD BEGIN
 000000                            27907  1           MHTEMP     DS    XL264               TEMP BUFFER - HEX CHARS
 000108                            27908  1           MHTEMP2    DS    XL264               TEMP BUFFER - HEX NUMBER
 000210                00210 00210 27909                       END
                                   27918              *
                                   27919              *
 003EAC 50E0 D000/9008_      00000 27920              MAKEHEX  XPROC MHWA
 USING  *,R7
 USING  MHWA-(4+36),R8
 003EC6 1200/47B0 7008_            27971                       IF    (R0,NEG),' CLEAR R0 '
 003ECE 5900 7426/47D0_      042EC 27994                       IF    (R0,GT,255),' LA R0,255 '
 003EDA 1200/47D0 70AA             28017                       IF    (R0,POS),BEGIN
 003EE0 5830 742A            042F0 28031  1                      L     R3,=X'00000001'
 003EE4 1430                       28032  1                      NR    R3,R0
 003EE6 1233/4780 703C             28033  1                      IF    (R3,NZ),BEGIN       IF ODD NUMBER OF HEX CHARS
 003EEC 92F0 8028      00000       28047  2                        MVI   MHTEMP,C'0'
 003EF0 1830                       28048  2                        LR    R3,R0
 003EF2 0630/1233/4740_            28049  2                        MOVE  R3,MHTEMP+1,@R1
 003EFE 5A00 742E            042F4 28087  2                        A     R0,=F'1'
 003F02                            28088  1                      END
 003F02 7040/47F0 704E 03F02 03EEA 28092  1                      ELSE  BEGIN ,             IF EVEN NUMBER OF HEX CHARS
 003F06 1830                       28103  2                        LR    R3,R0
 003F08 0630/1233/4740_            28104  2                        MOVE  R3,MHTEMP,@R1
 003F14                            28142  1                      END
 003F14 9002 D000/41D0_      00000 28146  1                      XPUSH R0,R2
 003F1C 1830                       28149  1                      LR    R3,R0
 003F1E 0630                       28150  1                      DECR  R3
 003F20 4430 748E/DD00_      04354 28152  1                      EX    R3,' TRT MHTEMP(0),TRTCKHEX '
 003F24 4780 7066            03F2C 28168  1                      IF    NZ,BEGIN                       IF INVALID HEX CHARS
 003F28 41F0 0004            00004 28179  2                        LA    R15,4
 003F2C                            28180  1                      END
 003F2C 4770 7094            03F5A 28184  1                      IF    Z,BEGIN                        IF VALID HEX CHARS,
 003F30 4430 7494/DC00_      0435A 28195  2                        EX    R3,' TR  MHTEMP(0),TRHEXCHR '     WE CONVERT TO HEX
 003F34 4140 8130            00108 28211  2                        LA    R4,MHTEMP2
 003F38 4150 8028            00000 28212  2                        LA    R5,MHTEMP
 003F3C 1200/47D0 7092             28213  2                        WHILE (R0,POS),BEGIN
1EVAL     (EVAL9204) (12:43) (15MAR04) VARIABLE TYPE CONVERSIONS                                                            Page  138
0Current Usings:  (*,R7) (MHWA-(4+36),R8) (CP,R11) (CV,R12)
0Loc    Object Code    Addr1 Addr2  Stmt Lv Lineno    Source Statement           (Hibal 5, Asmedit 3.3)  HLASM R4.0  2004/03/15 12.43
+___    ______ ____    _____ _____  ____ __ ______    ______ _________
0003F42 F248 4000 5000 00000 00000 28229  3                          PACK  0(5,R4),0(9,R5)
 003F48 4144 0004            00004 28230  3                          LA    R4,4(R4)
 003F4C 4155 0008            00008 28231  3                          LA    R5,8(R5)
 003F50 5B00 7432            042F8 28232  3                          S     R0,=F'8'
 003F54 47F0 7076            03F3C 28233  2                        END
 003F58 1BFF                       28238  2                        CLEAR R15
 003F5A                            28242  1                      END
 003F5A 4BD0 744C/9802_      04312 28246  1                      XPOP  R0,R2
 003F62 8800 0001            00001 28249  1                      SRL   R0,1                R0 - OUTPUT LENGTH
                                   28250  1                      COMMENT                   R2 - OUTPUT BUFFER
 003F66 1830                       28251  1                      LR    R3,R0               R3 - OUTPUT LENGTH
 003F68 4140 8130            00108 28252  1                      LA    R4,MHTEMP2          R4 - HEX STRING
 003F6C 1850                       28253  1                      LR    R5,R0
 003F6E 0E24                       28254  1                      MVCL  R2,R4               MOVE STRING TO OUTPUT BUFFER
 003F70                            28255                       END
 003F70 5008 0004            00004 28259                       PRETURN (R0)
 003F74 18D8/9808 D004_            28261                       PEND  ,
 DROP   MHWA-(4+36),R8
 DROP   *,R7
                                   28286
 003F82 0404040404040404           28287              TRTCKHEX DC    256X'04'            VALID HEX CHARACTERS
 004082                04082 04072 28288                       ORG   TRTCKHEX+C'0'
 004072 0000000000000000           28289                       DC    10X'00'
 00407C                0407C 04043 28290                       ORG   TRTCKHEX+C'A'
 004043 000000000000               28291                       DC    6X'00'
 004049                04049 04003 28292                       ORG   TRTCKHEX+C'a'
 004003 000000000000               28293                       DC    6X'00'
 004009                04009 04082 28294                       ORG   TRTCKHEX+256
                                   28295
 004082 0000000000000000           28296              TRHEXCHR DC    256X'00'            TRANSLATE HEX CHARS TO HEX NUMBERS
 004182                04182 04172 28297                       ORG   TRHEXCHR+C'0'
 004172 0001020304050607           28298                       DC    X'00010203040506070809'
 00417C                0417C 04143 28299                       ORG   TRHEXCHR+C'A'
 004143 0A0B0C0D0E0F               28300                       DC    X'0A0B0C0D0E0F'
 004149                04149 04103 28301                       ORG   TRHEXCHR+C'a'
 004103 0A0B0C0D0E0F               28302                       DC    X'0A0B0C0D0E0F'
 004109                04109 04182 28303                       ORG   TRHEXCHR+256
                                   28304
1EVAL     (EVAL9204) (12:43) (15MAR04) VARIABLE TYPE CONVERSIONS                                                            Page  139
0Current Usings:  (CP,R11) (CV,R12)
0Loc    Object Code    Addr1 Addr2  Stmt Lv Lineno    Source Statement           (Hibal 5, Asmedit 3.3)  HLASM R4.0  2004/03/15 12.43
+___    ______ ____    _____ _____  ____ __ ______    ______ _________
0                                  28306              ¿þþþþþþþþþþþþþþþþþþþþþþþþþþþþþþþþþþþþþþþþþþþþþþþþþþþþþþþþþþþþþþþþþþþþþÜ
                                   28307              Ÿ                                                                     Ÿ
                                   28308              Ÿ                                                                     Ÿ
                                   28309              Ÿ  MAKECHAR - CONVERT HEX TO HEX STRING                               Ÿ
                                   28310              Ÿ                                                                     Ÿ
                                   28311              Ÿ  ON ENTRY:                                                          Ÿ
                                   28312              Ÿ       R0 - LENGTH OF HEX TO CONVERT (<256)                          Ÿ
                                   28313              Ÿ       R1 - LOCATION OF HEX TO CONVERT                               Ÿ
                                   28314              Ÿ       R2 - PLACE TO HEX STRING (MAY = R1)                           Ÿ
                                   28315              Ÿ                                                                     Ÿ
                                   28316              Ÿ  ON EXIT:                                                           Ÿ
                                   28317              Ÿ       R0 - NEW LENGTH (= 2*R0 AT ENTRY)                             Ÿ
                                   28318              Ÿ       R1 - UNCHANGED                                                Ÿ
                                   28319              Ÿ       R2 - UNCHANGED                                                Ÿ
                                   28320              Ÿ                                                                     Ÿ
                                   28321              Ÿ                                                                     Ÿ
                                                      ¾þþþþþþþþþþþþþþþþþþþþþþþþþþþþþþþþþþþþþþþþþþþþþþþþþþþþþþþþþþþþþþþþþþþþþ»
0000000                00000 00200 28322              MCWA     RECORD BEGIN
 000000                            28330  1           MCTEMP     DS    XL512
 000200                00200 00200 28331                       END
                                   28340              *
                                   28341              *
 004182 50E0 D000/9008_      00000 28342              MAKECHAR XPROC MCWA
 USING  *,R7
 USING  MCWA-(4+36),R8
 00419C 1200/47B0 7008_            28393                       IF    (R0,NEG),' CLEAR R0 '
 0041A4 5900 7150/47D0_      042EC 28416                       IF    (R0,GT,255),' LA R0,255 '
 0041B0 1200/47D0 7066             28439                       IF    (R0,POS),BEGIN
 0041B6 9002 D000/41D0_      00000 28453  1                      XPUSH R0,R2
 0041BE 4140 8028            00000 28456  1                      LA    R4,MCTEMP
 0041C2 1851                       28457  1                      LR    R5,R1
 0041C4 1200/47D0 7050             28458  1                      WHILE (R0,POS),BEGIN
 0041CA F384 4000 5000 00000 00000 28474  2                        UNPK  0(9,R4),0(5,R5)     UNPACK HEX INTO CHARS
 0041D0 D407 4000 708A 00000 04226 28475  2                        NC    0(8,R4),HEXMASK     MASK OUT HIGH ORDER BITS
 0041D6 DC07 4000 707A 00000 04216 28476  2                        TR    0(8,R4),HEXCHARS    CONVERT HEX TO HEX CHAR
 0041DC 4144 0008            00008 28477  2                        LA    R4,8(R4)
 0041E0 4155 0004            00004 28478  2                        LA    R5,4(R5)
 0041E4 5B00 7160            042FC 28479  2                        S     R0,=F'4'
 0041E8 47F0 7028            041C4 28480  1                      END
 0041EC 4BD0 7176/9802_      04312 28485  1                      XPOP  R0,R2
 0041F4 8900 0001            00001 28488  1                      SLL   R0,1                R0 - OUTPUT LENGTH
                                   28489  1                      COMMENT                   R2 - OUTPUT BUFFER
 0041F8 1830                       28490  1                      LR    R3,R0               R3 - OUTPUT LENGTH
 0041FA 4140 8028            00000 28491  1                      LA    R4,MCTEMP           R4 - HEX STRING
 0041FE 1850                       28492  1                      LR    R5,R0
 004200 0E24                       28493  1                      MVCL  R2,R4               MOVE STRING TO OUTPUT BUFFER
 004202                            28494                       END
 004202 1BFF                       28498                       CLEAR R15
 004204 5008 0004            00004 28502                       PRETURN (R0)
 004208 18D8/9808 D004_            28504                       PEND  ,
 DROP   MCWA-(4+36),R8
 DROP   *,R7
                                   28529
1EVAL     (EVAL9204) (12:43) (15MAR04) VARIABLE TYPE CONVERSIONS                                                            Page  140
0Current Usings:  (CP,R11) (CV,R12)
0Loc    Object Code    Addr1 Addr2  Stmt Lv Lineno    Source Statement           (Hibal 5, Asmedit 3.3)  HLASM R4.0  2004/03/15 12.43
+___    ______ ____    _____ _____  ____ __ ______    ______ _________
0004216 F0F1F2F3F4F5F6F7           28530              HEXCHARS DC    C'0123456789ABCDEF'
 004226 0F0F0F0F0F0F0F0F           28531              HEXMASK  DC    X'0F0F0F0F0F0F0F0F'
                                   28532
1EVAL     (EVAL9204) (12:43) (15MAR04) VARIABLE TYPE CONVERSIONS                                                            Page  141
0Current Usings:  (CP,R11) (CV,R12)
0Loc    Object Code    Addr1 Addr2  Stmt Lv Lineno    Source Statement           (Hibal 5, Asmedit 3.3)  HLASM R4.0  2004/03/15 12.43
+___    ______ ____    _____ _____  ____ __ ______    ______ _________
0                                  28534                       QLTORG
1EVAL     (EVAL9204) (12:43) (15MAR04) ZAP INTEGER NUMBER ROUTINES                                                          Page  142
0Current Usings:  (CP,R11) (CV,R12)
0Loc    Object Code    Addr1 Addr2  Stmt Lv Lineno    Source Statement           (Hibal 5, Asmedit 3.3)  HLASM R4.0  2004/03/15 12.43
+___    ______ ____    _____ _____  ____ __ ______    ______ _________
0                                  28591              *
                                   28592              **
                                   28593              **  ZAP ROUTINES ---     for N0-N9
                                   28594              **
                                   28595              **  ZAP FOR OLD STYLE N0-N9.  THESE ZAPS ALLOW FOR INTEGER
                                   28596              **  VARIABLES IN EXPRESSIONS AND IN N0 THRU N9...  THESE
                                   28597              **  ZAPS ARE APPLIED ONLY IN OLD EXEC MODE.... SEE OLD EXEC
                                   28598              **  GUIDE FOR DETAILS...  HURRAH FOR BACKWARDS
                                   28599              **  COMPATABILITY !
                                   28600              **
                                   28601              **  ALL REQUIRED ZAPS ARE FOUND IN VARS, FUNC, AND EVAL MODULES !!
                                   28602              ** ----------------------------------------------------------------
                                   28603              **
                                   28604              **  RULES FOR INTEGER ZAPS:
                                   28605              **    1. MUST BE IN OLD EXEC MODE
                                   28606              **    2. N0-N9 ARE INTEGERS
                                   28607              **    3. LITTERALS ARE INTEGERS 2, 8, 12328, ETC.
                                   28608              **       (NUMBERS CONTAINING DECIMAL POINT ARE NOT !! EG 4.0 2. )
                                   28609              **    4. IF 2 INTEGERS ARE + - * OR /, THE RESULT IS AN INTEGER.
                                   28610              **    5. THE RESULT OF THE INT(..), NCONVERT(..), AND NHEX(..)
                                   28611              **       FUNCTIONS ARE INTEGERS.
                                   28612              **    6. IF NONE OF THE ABOVE RULES APPLY, THE NUMBER IS A NUMBER
                                   28613              **       AND NOT AN INTEGER.  (IE.  123.482 1.000 ETC)
                                   28614              **    7. SPECIFICALLY, ALL VARIABLES OTHER THAT N0-9 ARE NUMBERS.
                                   28615              **    8. AND, ALL FUNCTIONS OTHER THAN (RULE 4) RETURN NUMBERS.
                                   28616              **    9. NUMBERS MAY BE INTEGER VALUES, BUT ARE NOT CLOSED UNDER
                                   28617              **       DIVISION.
                                   28618              **   10. NOTE: IN NEW EXEC MODE ALL NUMBERS ARE NUMBERS AND !!
                                   28619              **             1/3 = 0.3333333
                                   28620              **   11. OH YEAH !
                                   28621              **
                                   28622              **  ZAPINTR6 - TURN ON INTEGER FLAG, VAR ENTRY @R6
 004360 50E0 D000/9008_      00000 28623              ZAPINTR6 XPROC ,        ***  THIS ZAP USED IN FUNC !!
 USING  *,R7
 00437A 9502 B759/4770_00759       28663                       IF    CPFXOLD,BEGIN
 USING  VNENTRY,R6                 28678  1                      USING VNENTRY,R6
 004382 9680 6022      00022       28687  1                      SET   VNINT
 DROP   VNENTRY,R6                 28693  1                      DROP  R6
 004386                            28700                       END
 004386 18D8/9808 D004_            28704                       PEND  ,
 DROP   *,R7
-                                  28725              **  ZAPOFFR2 - TURN OFF INTEGER FLAG, VAR ENTRY @R2
 004394 50E0 D000/9008_      00000 28726              ZAPOFFR2 PROC  ,
 USING  *,R7
 USING  VNENTRY,R2                 28765                       USING VNENTRY,R2
 0043AE 947F 2022      00022       28774                       CLEAR VNINT
 DROP   VNENTRY,R2                 28781                       DROP  R2
 0043B2 18D8/9808 D004_            28788                       PEND  ,
 DROP   *,R7
-                                  28809              **  ZAPOFFR6 - TURN OFF INTEGER FLAG, VAR ENTRY @R6
1EVAL     (EVAL9204) (12:43) (15MAR04) ZAP INTEGER NUMBER ROUTINES                                                          Page  143
0Current Usings:  (*,R7) (CP,R11) (CV,R12)
0Loc    Object Code    Addr1 Addr2  Stmt Lv Lineno    Source Statement           (Hibal 5, Asmedit 3.3)  HLASM R4.0  2004/03/15 12.43
+___    ______ ____    _____ _____  ____ __ ______    ______ _________
00043C0 50E0 D000/9008_      00000 28810              ZAPOFFR6 XPROC ,        *** THIS ZAP USED IN VARS !!
 USING  *,R7
 USING  VNENTRY,R6                 28850                       USING VNENTRY,R6
 0043DA 947F 6022      00022       28859                       CLEAR VNINT
 DROP   VNENTRY,R6                 28866                       DROP  R6
 0043DE 18D8/9808 D004_            28873                       PEND  ,
 DROP   *,R7
-                                  28894              **  ZAPINT - ON ENTRY: R4,R5 ,,, 1ST, 2ND OPERANDS
                                   28895              **           ON EXIT: IF BOTH INTEGERS, 1ST OPERAND SET TO INTEGER
 0043EC 50E0 D000/9008_      00000 28896              ZAPINT   PROC  ,
 USING  *,R7
 004406 9502 B759/4770_00759       28935                       IF    CPFXOLD,BEGIN
 USING  VNENTRY,R2                 28950  1                      USING VNENTRY,R2
 00440E 1825                       28959  1                      LR    R2,R5
 004410 9180 2022/4710_00022       28960  1                      IF    ~VNINT,BEGIN        A LITTLE REVERSE LOGIC
 004418 1824                       28975  2                        LR    R2,R4
 00441A 947F 2022      00022       28976  2                        CLEAR VNINT
 00441E                            28983  1                      END
 DROP   VNENTRY,R2                 28987  1                      DROP  R2
 00441E                            28994                       END
 00441E 18D8/9808 D004_            28998                       PEND  ,
 DROP   *,R7
-                                  29019              **  ZAPINT2 - IF INTEGER, FORCE TO INTEGER VALUE, CALLED FROM DIVIDE
                                   29020              **  ZAPINT2 - ON ENTRY: R2 - VARIABLE ENTRY
                                   29021              **            ON EXIT: ENTRY FORCED TO INTEGER
 00442C 50E0 D000/9008_      00000 29022              ZAPINT2  PROC  ,
 USING  *,R7
 004446 9502 B759/4770_00759       29061                       IF    CPFXOLD,BEGIN
 USING  VNENTRY,R2                 29076  1                      USING VNENTRY,R2
 00444E 9180 2022/47E0_00022       29085  1                      IF    VNINT,BEGIN
 004456 D404 202B 758E 0002B 049D4 29100  2                        NC    VNVALUE+NL-5(5),=X'000000000F'
 00445C                            29101  1                      END
 DROP   VNENTRY,R2                 29105  1                      DROP  R2
 00445C                            29112                       END
 00445C 18D8/9808 D004_            29116                       PEND  ,
 DROP   *,R7
-                                  29137              **  ZAPINT3 - FORCE TO INTEGER,,, CALLED FOR VARS N0-N9
                                   29138              **       ON ENTRY: R2 - VARIABLE ENTRY
 00446A 50E0 D000/9008_      00000 29139              ZAPINT3  PROC  ,
 USING  *,R7
 004484 9502 B759/4770_00759       29178                       IF    CPFXOLD,BEGIN
 USING  VNENTRY,R2                 29193  1                      USING VNENTRY,R2
 00448C D50F 7474 2000_048F8 00000 29202  1                      IF    (VNNAME,EQ,0),BEGIN
 004496 0000                       29220  2                        BOMB
 004498                            29222  1                      END
                                   29226  1                      COMMENT                   IF N0-N9
                                   29227  1         C            IF    ((VNNAME,EQ,'N'),
                                          1         C                  AND,(VNNAME+1,GE,'0'),AND,(VNNAME+1,LE,'9'),
1EVAL     (EVAL9204) (12:43) (15MAR04) ZAP INTEGER NUMBER ROUTINES                                                          Page  144
0Current Usings:  (VNENTRY,R2) (*,R7) (CP,R11) (CV,R12)
0Loc    Object Code    Addr1 Addr2  Stmt Lv Lineno    Source Statement           (Hibal 5, Asmedit 3.3)  HLASM R4.0  2004/03/15 12.43
+___    ______ ____    _____ _____  ____ __ ______    ______ _________
0                                         1         C                  AND,(VNNAME+2,EQ,' '),
 004498 95D5 2000/4770_00000              1                            AND,(VNPREFIX,EQ,0)),BEGIN
 0044C0 9502 2020/4780_00020       29303  2                        IF    ~VNNUMB,BEGIN
 0044C8 0000                       29318  3                          BOMB
 0044CA                            29320  2                        END
 0044CA 9680 2022      00022       29324  2                        SET   VNINT
 0044CE D404 202B 7550 0002B 049D4 29330  2                        NC    VNVALUE+NL-5(5),=X'000000000F'
 0044D4                            29331  1                      END
 0044D4 7054/7054/7054_044D4 0449E 29335  1                      ELSE  BEGIN
 0044D8 947F 2022      00022       29354  2                        CLEAR VNINT
 0044DC                            29361  1                      END
 DROP   VNENTRY,R2                 29365  1                      DROP  R2
 0044DC                            29372                       END
 0044DC 18D8/9808 D004_            29376                       PEND  ,
 DROP   *,R7
-                                  29397              **  ZAPINT4 - CHECK IF SCANNED NUMBER IS INTEGER
                                   29398              **       ON ENTRY, R1,R0 - POINT TO "." IF NON-INTEGER,
                                   29399              **                 R6 - VARIABLE ENTRY
 0044EA 50E0 D000/9008_      00000 29400              ZAPINT4  PROC  ,
 USING  *,R7
 004504 9502 B759/4770_00759       29439                       IF    CPFXOLD,BEGIN
 USING  VNENTRY,R6                 29454  1                      USING VNENTRY,R6
 00450C 954B 1000/4770_00000       29463  1                      IF    ((@R1,EQ,'.'),AND,(R0,POS)),BEGIN
 00451A 947F 6022      00022       29492  2                        CLEAR VNINT
 00451E                            29499  1                      END
 00451E 701E/701E/47F0_0451E 04512 29503  1                      ELSE  BEGIN
 004522 9680 6022      00022       29516  2                        SET   VNINT
 004526                            29522  1                      END
 DROP   VNENTRY,R6                 29526  1                      DROP  R6
 004526                            29533                       END
 004526 18D8/9808 D004_            29537                       PEND  ,
 DROP   *,R7
1EVAL     (EVAL9204) (12:43) (15MAR04) ERROR ROUTINES                                                                       Page  145
0Current Usings:  (CP,R11) (CV,R12)
0Loc    Object Code    Addr1 Addr2  Stmt Lv Lineno    Source Statement           (Hibal 5, Asmedit 3.3)  HLASM R4.0  2004/03/15 12.43
+___    ______ ____    _____ _____  ____ __ ______    ______ _________
0                                  29558              ¿þþþþþþþþþþþþþþþþþþþþþþþþþþþþþþþþþþþþþþþþþþþþþþþþþþþþþþþþþþþþþþþþþþþþþÜ
                                   29559              Ÿ                                                                     Ÿ
                                   29560              Ÿ                                                                     Ÿ
                                   29561              Ÿ  OVERFLOW - ARITHMETIC OVERFLOW                                     Ÿ
                                   29562              Ÿ                                                                     Ÿ
                                   29563              Ÿ  TSEG ERROR MSG AND RETURN CC=NZ                                    Ÿ
                                   29564              Ÿ                                                                     Ÿ
                                   29565              Ÿ                                                                     Ÿ
                                                      ¾þþþþþþþþþþþþþþþþþþþþþþþþþþþþþþþþþþþþþþþþþþþþþþþþþþþþþþþþþþþþþþþþþþþþþ»
0004534 50E0 D000/9008_      00000 29566              OVERFLOW PROC  ,
 USING  *,R7
 00454E 4110 748B/4100_      049D9 29605                       TSEG  'Arithmetic overflow. '
 004560 41F0 0004            00004 29623                       LA    R15,4
 004564 18D8/9808 D004_            29624                       PEND  ,
 DROP   *,R7
1EVAL     (EVAL9204) (12:43) (15MAR04) ERROR ROUTINES                                                                       Page  146
0Current Usings:  (CP,R11) (CV,R12)
0Loc    Object Code    Addr1 Addr2  Stmt Lv Lineno    Source Statement           (Hibal 5, Asmedit 3.3)  HLASM R4.0  2004/03/15 12.43
+___    ______ ____    _____ _____  ____ __ ______    ______ _________
0                                  29645              ¿þþþþþþþþþþþþþþþþþþþþþþþþþþþþþþþþþþþþþþþþþþþþþþþþþþþþþþþþþþþþþþþþþþþþþÜ
                                   29646              Ÿ                                                                     Ÿ
                                   29647              Ÿ                                                                     Ÿ
                                   29648              Ÿ  STROFLOW - STRING OVERFLOW                                         Ÿ
                                   29649              Ÿ                                                                     Ÿ
                                   29650              Ÿ  TSEG ERROR MSG AND RETURN CC=NZ                                    Ÿ
                                   29651              Ÿ                                                                     Ÿ
                                   29652              Ÿ                                                                     Ÿ
                                                      ¾þþþþþþþþþþþþþþþþþþþþþþþþþþþþþþþþþþþþþþþþþþþþþþþþþþþþþþþþþþþþþþþþþþþþþ»
0004572 50E0 D000/9008_      00000 29653              STROFLOW PROC  ,
 USING  *,R7
 00458C 4110 7462/4100_      049EE 29692                       TSEG  'String overflow in expression. '
 00459E 41F0 0004            00004 29710                       LA    R15,4
 0045A2 18D8/9808 D004_            29711                       PEND  ,
 DROP   *,R7
1EVAL     (EVAL9204) (12:43) (15MAR04) ERROR ROUTINES                                                                       Page  147
0Current Usings:  (CP,R11) (CV,R12)
0Loc    Object Code    Addr1 Addr2  Stmt Lv Lineno    Source Statement           (Hibal 5, Asmedit 3.3)  HLASM R4.0  2004/03/15 12.43
+___    ______ ____    _____ _____  ____ __ ______    ______ _________
0                                  29732              ¿þþþþþþþþþþþþþþþþþþþþþþþþþþþþþþþþþþþþþþþþþþþþþþþþþþþþþþþþþþþþþþþþþþþþþÜ
                                   29733              Ÿ                                                                     Ÿ
                                   29734              Ÿ                                                                     Ÿ
                                   29735              Ÿ  UNDEF - UNDEFINED VARIABLE NAME                                    Ÿ
                                   29736              Ÿ                                                                     Ÿ
                                   29737              Ÿ  ON ENTRY:                                                          Ÿ
                                   29738              Ÿ       R6 - VARIABLE ENTRY CONTAINING UNDEFINED NAME !!              Ÿ
                                   29739              Ÿ                                                                     Ÿ
                                   29740              Ÿ                                                                     Ÿ
                                   29741              Ÿ  WE TSEG ERROR MSG AND RETURN CC=NZ                                 Ÿ
                                   29742              Ÿ                                                                     Ÿ
                                   29743              Ÿ                                                                     Ÿ
                                                      ¾þþþþþþþþþþþþþþþþþþþþþþþþþþþþþþþþþþþþþþþþþþþþþþþþþþþþþþþþþþþþþþþþþþþþþ»
00045B0 50E0 D000/9008_      00000 29744              UNDEFD   PROC  ,
 USING  *,R7
 USING  VNENTRY,R6                 29783                       USING VNENTRY,R6
 0045CA 4110 7443/4100_      04A0D 29792                       TSEG  '"'
 0045DC 4120 6000            00000 29810                       LA    R2,VNENTRY
 0045E0 58E0 7342/0DEE       0490C 29811                       VCALL SEGVNAME
 0045E6 4110 7382/4100_      0494C 29815                       TSEG  '" is undefined in expression. '
 0045F8 41F0 0004            00004 29833                       LA    R15,4
 0045FC 18D8/9808 D004_            29834                       PEND  ,
 DROP   *,R7
 DROP   VNENTRY,R6                 29854                       DROP  R6
1EVAL     (EVAL9204) (12:43) (15MAR04) ERROR ROUTINES                                                                       Page  148
0Current Usings:  (CP,R11) (CV,R12)
0Loc    Object Code    Addr1 Addr2  Stmt Lv Lineno    Source Statement           (Hibal 5, Asmedit 3.3)  HLASM R4.0  2004/03/15 12.43
+___    ______ ____    _____ _____  ____ __ ______    ______ _________
0                                  29862              ¿þþþþþþþþþþþþþþþþþþþþþþþþþþþþþþþþþþþþþþþþþþþþþþþþþþþþþþþþþþþþþþþþþþþþþÜ
                                   29863              Ÿ                                                                     Ÿ
                                   29864              Ÿ                                                                     Ÿ
                                   29865              Ÿ  BADQUOTE - MISSMATCHED QUOTES                                      Ÿ
                                   29866              Ÿ                                                                     Ÿ
                                   29867              Ÿ  TSEG ERROR MSG AND RETURN CC=NZ                                    Ÿ
                                   29868              Ÿ                                                                     Ÿ
                                   29869              Ÿ                                                                     Ÿ
                                                      ¾þþþþþþþþþþþþþþþþþþþþþþþþþþþþþþþþþþþþþþþþþþþþþþþþþþþþþþþþþþþþþþþþþþþþþ»
000460A 50E0 D000/9008_      00000 29870              BADQUOTE PROC  ,
 USING  *,R7
 004624 4110 73EA/4100_      04A0E 29909                       TSEG  'Mismatched quotes in expression. '
 004636 41F0 0004            00004 29927                       LA    R15,4
 00463A 18D8/9808 D004_            29928                       PEND  ,
 DROP   *,R7
1EVAL     (EVAL9204) (12:43) (15MAR04) ERROR ROUTINES                                                                       Page  149
0Current Usings:  (CP,R11) (CV,R12)
0Loc    Object Code    Addr1 Addr2  Stmt Lv Lineno    Source Statement           (Hibal 5, Asmedit 3.3)  HLASM R4.0  2004/03/15 12.43
+___    ______ ____    _____ _____  ____ __ ______    ______ _________
0                                  29949              ¿þþþþþþþþþþþþþþþþþþþþþþþþþþþþþþþþþþþþþþþþþþþþþþþþþþþþþþþþþþþþþþþþþþþþþÜ
                                   29950              Ÿ                                                                     Ÿ
                                   29951              Ÿ                                                                     Ÿ
                                   29952              Ÿ  NOPROCS - NO PROCEDURES ALLOWED IN EXPRESSIONS                     Ÿ
                                   29953              Ÿ                                                                     Ÿ
                                   29954              Ÿ  ON ENTRY:                                                          Ÿ
                                   29955              Ÿ       R6 - VARIABLE ENTRY CONTAINING PROCEDURE NAME !!              Ÿ
                                   29956              Ÿ                                                                     Ÿ
                                   29957              Ÿ                                                                     Ÿ
                                   29958              Ÿ  TSEG ERROR MSG AND RETURN CC=NZ                                    Ÿ
                                   29959              Ÿ                                                                     Ÿ
                                   29960              Ÿ                                                                     Ÿ
                                                      ¾þþþþþþþþþþþþþþþþþþþþþþþþþþþþþþþþþþþþþþþþþþþþþþþþþþþþþþþþþþþþþþþþþþþþþ»
0004648 50E0 D000/9008_      00000 29961              NOPROCS  PROC  ,
 USING  *,R7
 USING  VNENTRY,R6                 30000                       USING VNENTRY,R6
 004662 4110 7308/4100_      0496A 30009                       TSEG  'Procedure calls ("'
 004674 4120 6000            00000 30027                       LA    R2,VNENTRY
 004678 58E0 72AA/0DEE       0490C 30028                       VCALL SEGVNAME
 00467E 4110 73CD/4100_      04A2F 30032                       TSEG  '") are not allowed in an expression. '
 004690 41F0 0004            00004 30050                       LA    R15,4
 004694 18D8/9808 D004_            30051                       PEND  ,
 DROP   *,R7
 DROP   VNENTRY,R6                 30071                       DROP  R6
1EVAL     (EVAL9204) (12:43) (15MAR04) ERROR ROUTINES                                                                       Page  150
0Current Usings:  (CP,R11) (CV,R12)
0Loc    Object Code    Addr1 Addr2  Stmt Lv Lineno    Source Statement           (Hibal 5, Asmedit 3.3)  HLASM R4.0  2004/03/15 12.43
+___    ______ ____    _____ _____  ____ __ ______    ______ _________
0                                  30079              ¿þþþþþþþþþþþþþþþþþþþþþþþþþþþþþþþþþþþþþþþþþþþþþþþþþþþþþþþþþþþþþþþþþþþþþÜ
                                   30080              Ÿ                                                                     Ÿ
                                   30081              Ÿ                                                                     Ÿ
                                   30082              Ÿ  BADARGS - INVALID ARGUMENTS                                        Ÿ
                                   30083              Ÿ                                                                     Ÿ
                                   30084              Ÿ  ON ENTRY:                                                          Ÿ
                                   30085              Ÿ       R2 - VARIABLE ENTRY FOR FUNCTION NAME !                       Ÿ
                                   30086              Ÿ  ON EXIT:                                                           Ÿ
                                   30087              Ÿ       ERROR TSEG'D.                                                 Ÿ
                                   30088              Ÿ       R15 - CC=NEG, R15=-4, DO NOT CHANGE FROM -4.                  Ÿ
                                   30089              Ÿ                                                                     Ÿ
                                   30090              Ÿ  CALLED BY XVLARGS                                                  Ÿ
                                   30091              Ÿ                                                                     Ÿ
                                   30092              Ÿ                                                                     Ÿ
                                                      ¾þþþþþþþþþþþþþþþþþþþþþþþþþþþþþþþþþþþþþþþþþþþþþþþþþþþþþþþþþþþþþþþþþþþþþ»
00046A2 50E0 D000/9008_      00000 30093              NOARGS   PROC  ,
 USING  *,R7
 0046BC 4110 7254/4100_      04910 30132                       TSEG  'No arguments specified for "'
                                   30150                       COMMENT @R2 - VAR ENTRY
 0046CE 58E0 7250/0DEE       0490C 30151                       VCALL SEGVNAME
 0046D4 4110 7398/4100_      04A54 30155                       TSEG  '". '
 0046E6 58F0 7270            0492C 30173                       L     R15,=F'-4'
 0046EA 18D8/9808 D004_            30174                       PEND  ,
 DROP   *,R7
1EVAL     (EVAL9204) (12:43) (15MAR04) ERROR ROUTINES                                                                       Page  151
0Current Usings:  (CP,R11) (CV,R12)
0Loc    Object Code    Addr1 Addr2  Stmt Lv Lineno    Source Statement           (Hibal 5, Asmedit 3.3)  HLASM R4.0  2004/03/15 12.43
+___    ______ ____    _____ _____  ____ __ ______    ______ _________
0                                  30195              ¿þþþþþþþþþþþþþþþþþþþþþþþþþþþþþþþþþþþþþþþþþþþþþþþþþþþþþþþþþþþþþþþþþþþþþÜ
                                   30196              Ÿ                                                                     Ÿ
                                   30197              Ÿ                                                                     Ÿ
                                   30198              Ÿ  MANYARGS - TOO MANY ARGUMENTS                                      Ÿ
                                   30199              Ÿ                                                                     Ÿ
                                   30200              Ÿ  ON ENTRY:                                                          Ÿ
                                   30201              Ÿ       R2 - VARIABLE ENTRY FOR FUNCTION NAME !                       Ÿ
                                   30202              Ÿ  ON EXIT:                                                           Ÿ
                                   30203              Ÿ       ERROR TSEG'D.                                                 Ÿ
                                   30204              Ÿ       R15 - CC=NEG, R15=-4, DO NOT CHANGE FROM -4.                  Ÿ
                                   30205              Ÿ                                                                     Ÿ
                                   30206              Ÿ  CALLED BY XVLARGS                                                  Ÿ
                                   30207              Ÿ                                                                     Ÿ
                                   30208              Ÿ                                                                     Ÿ
                                                      ¾þþþþþþþþþþþþþþþþþþþþþþþþþþþþþþþþþþþþþþþþþþþþþþþþþþþþþþþþþþþþþþþþþþþþþ»
00046F8 50E0 D000/9008_      00000 30209              MANYARGS PROC  ,
 USING  *,R7
 004712 4110 726A/4100_      0497C 30248                       TSEG  'Too many arguments specified for "'
                                   30266                       COMMENT @R2 - VAR ENTRY
 004724 58E0 71FA/0DEE       0490C 30267                       VCALL SEGVNAME
 00472A 4110 7345/4100_      04A57 30271                       TSEG  '" .'
 00473C 58F0 721A            0492C 30289                       L     R15,=F'-4'
 004740 18D8/9808 D004_            30290                       PEND  ,
 DROP   *,R7
1EVAL     (EVAL9204) (12:43) (15MAR04) ERROR ROUTINES                                                                       Page  152
0Current Usings:  (CP,R11) (CV,R12)
0Loc    Object Code    Addr1 Addr2  Stmt Lv Lineno    Source Statement           (Hibal 5, Asmedit 3.3)  HLASM R4.0  2004/03/15 12.43
+___    ______ ____    _____ _____  ____ __ ______    ______ _________
0                                  30311              ¿þþþþþþþþþþþþþþþþþþþþþþþþþþþþþþþþþþþþþþþþþþþþþþþþþþþþþþþþþþþþþþþþþþþþþÜ
                                   30312              Ÿ                                                                     Ÿ
                                   30313              Ÿ                                                                     Ÿ
                                   30314              Ÿ  ARGERROR -  INVALID ARGUMENT                                       Ÿ
                                   30315              Ÿ                                                                     Ÿ
                                   30316              Ÿ  ON ENTRY:                                                          Ÿ
                                   30317              Ÿ       R2 - VARIABLE ENTRY FOR FUNCTION NAME !                       Ÿ
                                   30318              Ÿ       R3 - NUMBER OF ARGUMENT                                       Ÿ
                                   30319              Ÿ  ON EXIT:                                                           Ÿ
                                   30320              Ÿ       ERROR TSEG'D.                                                 Ÿ
                                   30321              Ÿ       R15 - CC=NEG, R15=-4, DO NOT CHANGE FROM -4.                  Ÿ
                                   30322              Ÿ                                                                     Ÿ
                                   30323              Ÿ  CALLED BY XVLARGS                                                  Ÿ
                                   30324              Ÿ                                                                     Ÿ
                                   30325              Ÿ                                                                     Ÿ
                                                      ¾þþþþþþþþþþþþþþþþþþþþþþþþþþþþþþþþþþþþþþþþþþþþþþþþþþþþþþþþþþþþþþþþþþþþþ»
000474E 50E0 D000/9008_      00000 30326              ARGERROR PROC  ,
 USING  *,R7
 004768 D603 B05C B05C_0005C 0005C 30365                       TCCR
 004788 4110 7236/4100_      0499E 30427                       TSEG  'Argument #'
 00479A 1813/1B00/41F0_            30445                       TNUM  (R3)
 0047A8 4110 72F2/4100_      04A5A 30467                       TSEG  ' of "'
                                   30485                       COMMENT @R2 - VAR ENTRY
 0047BA 58E0 71A4/0DEE       0490C 30486                       VCALL SEGVNAME
 0047C0 4110 7240/4100_      049A8 30490                       TSEG  '" is invalid. '
 0047D2 58F0 71C4            0492C 30508                       L     R15,=F'-4'
 0047D6 18D8/9808 D004_            30509                       PEND  ,
 DROP   *,R7
1EVAL     (EVAL9204) (12:43) (15MAR04) ERROR ROUTINES                                                                       Page  153
0Current Usings:  (CP,R11) (CV,R12)
0Loc    Object Code    Addr1 Addr2  Stmt Lv Lineno    Source Statement           (Hibal 5, Asmedit 3.3)  HLASM R4.0  2004/03/15 12.43
+___    ______ ____    _____ _____  ____ __ ______    ______ _________
0                                  30530              ¿þþþþþþþþþþþþþþþþþþþþþþþþþþþþþþþþþþþþþþþþþþþþþþþþþþþþþþþþþþþþþþþþþþþþþÜ
                                   30531              Ÿ                                                                     Ÿ
                                   30532              Ÿ                                                                     Ÿ
                                   30533              Ÿ  BADSUB - TSEG (OUTPUT) BAD SUBSCRIPT MESSAGE                       Ÿ
                                   30534              Ÿ                                                                     Ÿ
                                   30535              Ÿ  ON ENTRY:                                                          Ÿ
                                   30536              Ÿ       R2 - VARIABLE (ARRAY) NAME.  SEE VNENTRY DSECT.               Ÿ
                                   30537              Ÿ       R3 - SUBSCRIPT NUMBER (L TO R)                                Ÿ
                                   30538              Ÿ                                                                     Ÿ
                                   30539              Ÿ  ON EXIT:                                                           Ÿ
                                   30540              Ÿ       ERROR MESSAGE TSEG'D                                          Ÿ
                                   30541              Ÿ                                                                     Ÿ
                                   30542              Ÿ                                                                     Ÿ
                                   30543              Ÿ                                                                     Ÿ
                                                      ¾þþþþþþþþþþþþþþþþþþþþþþþþþþþþþþþþþþþþþþþþþþþþþþþþþþþþþþþþþþþþþþþþþþþþþ»
00047E4 50E0 D000/9008_      00000 30544              BADSUB   PROC  ,
 USING  *,R7
 0047FE D603 B05C B05C_0005C 0005C 30583                       TCCR
 00481E 4110 7261/4100_      04A5F 30645                       TSEG  'Subscript #'
 004830 1813/1B00/41F0_            30663                       TNUM  (R3)
 00483E 4110 713A/4100_      04938 30685                       TSEG  ' of '
 004850 58E0 710E/0DEE       0490C 30703                       VCALL SEGVNAME
 004856 4110 713E/4100_      0493C 30707                       TSEG  ' is invalid.'
 004868 1BFF                       30725                       CLEAR R15
 00486A 18D8/9808 D004_            30729                       PEND  ,
 DROP   *,R7
1EVAL     (EVAL9204) (12:43) (15MAR04) ERROR ROUTINES                                                                       Page  154
0Current Usings:  (CP,R11) (CV,R12)
0Loc    Object Code    Addr1 Addr2  Stmt Lv Lineno    Source Statement           (Hibal 5, Asmedit 3.3)  HLASM R4.0  2004/03/15 12.43
+___    ______ ____    _____ _____  ____ __ ______    ______ _________
0                                  30750              ¿þþþþþþþþþþþþþþþþþþþþþþþþþþþþþþþþþþþþþþþþþþþþþþþþþþþþþþþþþþþþþþþþþþþþþÜ
                                   30751              Ÿ                                                                     Ÿ
                                   30752              Ÿ                                                                     Ÿ
                                   30753              Ÿ  SMALLSUB - TSEG (OUTPUT) ERROR MESSAGE                             Ÿ
                                   30754              Ÿ                                                                     Ÿ
                                   30755              Ÿ  ON ENTRY:                                                          Ÿ
                                   30756              Ÿ       R2 - VARIABLE (ARRAY) NAME.  SEE VNENTRY DSECT.               Ÿ
                                   30757              Ÿ       R3 - SUBSCRIPT NUMBER (L TO R)                                Ÿ
                                   30758              Ÿ                                                                     Ÿ
                                   30759              Ÿ  ON EXIT:                                                           Ÿ
                                   30760              Ÿ      ERROR MSG TSEG'S                                               Ÿ
                                   30761              Ÿ                                                                     Ÿ
                                   30762              Ÿ                                                                     Ÿ
                                                      ¾þþþþþþþþþþþþþþþþþþþþþþþþþþþþþþþþþþþþþþþþþþþþþþþþþþþþþþþþþþþþþþþþþþþþþ»
0004878 50E0 D000/9008_      00000 30763              SMALLSUB PROC  ,
 USING  *,R7
 004892 4110 7124/4100_      049B6 30802                       TSEG  'Array subscripts must be > 0. '
 0048A4 58E0 70B6/0DEE       04948 30820                       ACALL BADSUB
 0048AA 18D8/9808 D004_            30824                       PEND  ,
 DROP   *,R7
1EVAL     (EVAL9204) (12:43) (15MAR04) ERROR ROUTINES                                                                       Page  155
0Current Usings:  (CP,R11) (CV,R12)
0Loc    Object Code    Addr1 Addr2  Stmt Lv Lineno    Source Statement           (Hibal 5, Asmedit 3.3)  HLASM R4.0  2004/03/15 12.43
+___    ______ ____    _____ _____  ____ __ ______    ______ _________
0                                  30845              ¿þþþþþþþþþþþþþþþþþþþþþþþþþþþþþþþþþþþþþþþþþþþþþþþþþþþþþþþþþþþþþþþþþþþþþÜ
                                   30846              Ÿ                                                                     Ÿ
                                   30847              Ÿ                                                                     Ÿ
                                   30848              Ÿ  BIGSUB - TSEG (OUTPUT) ERROR MESSAGE                               Ÿ
                                   30849              Ÿ                                                                     Ÿ
                                   30850              Ÿ  ON ENTRY:                                                          Ÿ
                                   30851              Ÿ       R2 - VARIABLE (ARRAY) NAME.  SEE VNENTRY DSECT.               Ÿ
                                   30852              Ÿ       R3 - SUBSCRIPT NUMBER (L TO R)                                Ÿ
                                   30853              Ÿ                                                                     Ÿ
                                   30854              Ÿ  ON EXIT:                                                           Ÿ
                                   30855              Ÿ      ERROR MSG TSEG'S                                               Ÿ
                                   30856              Ÿ                                                                     Ÿ
                                   30857              Ÿ                                                                     Ÿ
                                                      ¾þþþþþþþþþþþþþþþþþþþþþþþþþþþþþþþþþþþþþþþþþþþþþþþþþþþþþþþþþþþþþþþþþþþþþ»
00048B8 50E0 D000/9008_      00000 30858              BIGSUB   PROC  ,
 USING  *,R7
 0048D2 4110 7198/4100_      04A6A 30897                       TSEG  'Subscript too big. '
 0048E4 58E0 7076/0DEE       04948 30915                       ACALL BADSUB
 0048EA 18D8/9808 D004_            30919                       PEND  ,
 DROP   *,R7
1EVAL     (EVAL9204) (12:43) (15MAR04) ERROR ROUTINES                                                                       Page  156
0Current Usings:  (CP,R11) (CV,R12)
0Loc    Object Code    Addr1 Addr2  Stmt Lv Lineno    Source Statement           (Hibal 5, Asmedit 3.3)  HLASM R4.0  2004/03/15 12.43
+___    ______ ____    _____ _____  ____ __ ______    ______ _________
0                                  30941                       QLTORG
                                   30980                       VLTORG
 004A80                04A80 04A80 30988                       END   .

1EVAL     (EVAL9204) (12:43) (15MAR04) Relocation Dictionary                                                                Page  157
-   Pos.Id   Rel.Id   Flags    Address                                                       HLASM R4.0  2004/03/15 12.43
0  00000001 00000001    0C    000004F8
   00000001 00000001    0C    000004FC
   00000001 00000001    0C    00000500
   00000001 00000001    0C    00000504
   00000001 00000001    0C    00000510
   00000001 00000001    0C    00000514
   00000001 00000001    0C    00000518
   00000001 00000001    0C    0000051C
   00000001 00000001    0C    00001290
   00000001 00000001    0C    00001294
   00000001 00000001    0C    00001298
   00000001 00000001    0C    0000129C
   00000001 00000001    0C    000012A0
   00000001 00000001    0C    000012A8
   00000001 00000001    0C    000012AC
   00000001 00000001    0C    000012B4
   00000001 00000001    0C    000012C0
   00000001 00000001    0C    000012C4
   00000001 00000001    0C    000012F0
   00000001 00000001    0C    000012F4
   00000001 00000001    0C    000012F8
   00000001 00000001    0C    00001610
   00000001 00000001    0C    00001614
   00000001 00000001    0C    00001618
   00000001 00000001    0C    0000161C
   00000001 00000001    0C    00001620
   00000001 00000001    0C    00001628
   00000001 00000001    0C    0000162C
   00000001 00000001    0C    00001630
   00000001 00000001    0C    00001634
   00000001 00000001    0C    00001638
   00000001 00000001    0C    0000163C
   00000001 00000001    0C    00001640
   00000001 00000001    0C    00001644
   00000001 00000001    0C    00001648
   00000001 00000001    0C    0000164C
   00000001 00000001    0C    00001650
   00000001 00000001    0C    00001654
   00000001 00000001    0C    00002024
   00000001 00000001    0C    0000202C
   00000001 00000001    0C    00002034
   00000001 00000001    0C    0000203C
   00000001 00000001    0C    00002044
   00000001 00000001    0C    0000204C
   00000001 00000001    0C    00002054
   00000001 00000001    0C    0000205C
   00000001 00000001    0C    00002064
   00000001 00000001    0C    0000206C
   00000001 00000001    0C    00002074
   00000001 00000001    0C    0000207C
   00000001 00000001    0C    00002084
   00000001 00000001    0C    0000208C
   00000001 00000001    0C    00002094
   00000001 00000001    0C    0000209C
   00000001 00000001    0C    000020A4
1EVAL     (EVAL9204) (12:43) (15MAR04) Relocation Dictionary                                                                Page  158
   00000001 00000001    0C    000020A8
   00000001 00000001    0C    000020B0
   00000001 00000001    0C    000020BC
   00000001 00000001    0C    000020C0
   00000001 00000001    0C    000020C4
   00000001 00000001    0C    000020D0
   00000001 00000001    0C    000020DC
   00000001 00000001    0C    000020E0
   00000001 00000001    0C    000020E4
   00000001 00000001    0C    000020E8
   00000001 00000001    0C    000020F0
   00000001 00000001    0C    0000210C
   00000001 00000001    0C    00002110
   00000001 00000001    0C    00002114
   00000001 00000001    0C    0000211C
   00000001 00000001    0C    00002124
   00000001 00000001    0C    000028E0
   00000001 00000001    0C    000028E4
   00000001 00000001    0C    000028EC
   00000001 00000001    0C    000028F0
   00000001 00000001    0C    000028F8
   00000001 00000001    0C    000028FC
   00000001 00000001    0C    0000291C
   00000001 00000001    0C    00002920
   00000001 00000001    0C    0000292C
   00000001 00000001    0C    00002930
   00000001 00000001    0C    0000293C
   00000001 00000001    0C    00002944
   00000001 00000001    0C    00002948
   00000001 00000001    0C    00002950
   00000001 00000001    0C    00002958
   00000001 00000001    0C    00002960
   00000001 00000001    0C    00002968
   00000001 00000001    0C    00002970
   00000001 00000001    0C    00002978
   00000001 00000001    0C    00002980
   00000001 00000001    0C    00002988
   00000001 00000001    0C    00002994
   00000001 00000001    0C    00002C10
   00000001 00000001    0C    00002C14
   00000001 00000001    0C    00002C18
   00000001 00000001    0C    00002C1C
   00000001 00000001    0C    00002C20
   00000001 00000001    0C    00002C24
   00000001 00000001    0C    00002C28
   00000001 00000001    0C    00002C2C
   00000001 00000001    0C    00002C30
   00000001 00000001    0C    00002C34
   00000001 00000001    0C    00002C38
   00000001 00000001    0C    0000304C
   00000001 00000001    0C    00003054
   00000001 00000001    0C    0000305C
   00000001 00000001    0C    00003064
   00000001 00000001    0C    0000306C
   00000001 00000001    0C    00003074
   00000001 00000001    0C    0000307C
   00000001 00000001    0C    00003084
   00000001 00000001    0C    0000308C
   00000001 00000001    0C    00003094
1EVAL     (EVAL9204) (12:43) (15MAR04) Relocation Dictionary                                                                Page  159
   00000001 00000001    0C    0000309C
   00000001 00000001    0C    000030A0
   00000001 00000001    0C    000030A4
   00000001 00000001    0C    000030AC
   00000001 00000001    0C    000030B4
   00000001 00000001    0C    000030BC
   00000001 00000001    0C    000030C4
   00000001 00000001    0C    000030CC
   00000001 00000001    0C    000030D4
   00000001 00000001    0C    000030DC
   00000001 00000001    0C    000030E4
   00000001 00000001    0C    000030EC
   00000001 00000001    0C    000030F4
   00000001 00000001    0C    000030FC
   00000001 00000001    0C    00003100
   00000001 00000001    0C    000037A8
   00000001 00000001    0C    000037AC
   00000001 00000001    0C    000037B0
   00000001 00000001    0C    000037C0
   00000001 00000001    0C    000037C4
   00000001 00000001    0C    000037C8
   00000001 00000001    0C    000037D0
   00000001 00000001    0C    000037D4
   00000001 00000001    0C    000037E4
   00000001 00000001    0C    000037E8
   00000001 00000001    0C    000037F0
   00000001 00000001    0C    000037F4
   00000001 00000001    0C    000037FC
   00000001 00000001    0C    00004230
   00000001 00000001    0C    00004238
   00000001 00000001    0C    0000423C
   00000001 00000001    0C    0000426C
   00000001 00000001    0C    000042BC
   00000001 00000001    0C    000042C4
   00000001 00000001    0C    000042D4
   00000001 00000001    0C    000042DC
   00000001 00000001    0C    000042E0
   00000001 00000001    0C    00004948
   00000001 00000002    1C    0000050C
   00000001 00000002    1C    000012A4
   00000001 00000002    1C    000020AC
   00000001 00000002    1C    00002914
   00000001 00000002    1C    00003108
   00000001 00000002    1C    000037A4
   00000001 00000002    1C    00004264
   00000001 00000002    1C    00004908
   00000001 00000003    1C    0000131C
   00000001 00000003    1C    000020B8
   00000001 00000004    1C    000020C8
   00000001 00000005    1C    000020CC
   00000001 00000005    1C    000037B4
   00000001 00000006    1C    000020D4
   00000001 00000006    1C    000037DC
   00000001 00000006    1C    0000490C
   00000001 00000007    1C    000020D8
   00000001 00000008    1C    00002998
   00000001 00000008    1C    000037D8
   00000001 00000009    1C    00003104
   00000001 0000000A    1C    00003790
1EVAL     (EVAL9204) (12:43) (15MAR04) Relocation Dictionary                                                                Page  160
   00000001 0000000B    1C    00004930
   00000001 0000000C    1C    00004934

1EVAL     (EVAL9204) (12:43) (15MAR04) Ordinary Symbol and Literal Cross Reference                                          Page  161
-Symbol   Length   Value     Id    R Type   Defn References                                  HLASM R4.0  2004/03/15 12.43
0$$$@R0        1 00000000 FFFFFFFE     J     705  1007
 $$$@R10       1 00000000 FFFFFFF4     J     835  1071
 $$$@R11       1 00000000 FFFFFFF3     J     848  1084
 $$$@R12       1 00000000 FFFFFFF2     J     861  1097
 $$$@R13       1 00000000 FFFFFFF1     J     874  1110
 $$$@R14       1 00000000 FFFFFFF0     J     887  1123
 $$$@R7        1 00000000 FFFFFFF7     J     796  1020
 $$$@R8        1 00000000 FFFFFFF6     J     809  1033   1045
 $$$@R9        1 00000000 FFFFFFF5     J     822  1058
 $$$C1WYLEVAL
               1 00000540 00000001     J    8909  8911   9387  10086  10587  10971
 $$$C2WYLEVAL
               1 00001392 00000001     J   14024 14026  14143  15052  15394  16129  16215  16232  16479  16559  16576
                                                 16665  16782  16853  16937  17020  17267  17350
 $$$C3WYLEVAL
               1 000021BA 00000001     J   18090 18092
 $$$C4WYLEVAL
               1 000029FF 00000001     J   20749 20751  20870  21536  22080  22486
 $$$C5WYLEVAL
               1 00003122 00000001     J   22929 22931  24189
 $$$C6WYLEVAL
               1 00003895 00000001     J   25383 25385  25424  27916  28081  28136  28166  28209  28338
 $$$C7WYLEVAL
               1 00004360 00000001     J   28585 28587
 $$$C8WYLEVAL
               1 00004A7D 00000001     J   30975 30977
 $$$C9WYLEVAL
               1 00004A80 00000001     J   30991 30993
 $$$D1WYLEVAL
               1 0000138C 00000001     J    8910 10960
 $$$D2WYLEVAL
               1 00002166 00000001     J   14025 14132  15041  16118  16204  16221  16468  16548  16565  16771  16842
                                                 16926  17009  17256  17339
 $$$D4WYLEVAL
               1 00003116 00000001     J   20750 20859  22475
 $$$D6WYLEVAL
               1 00004348 00000001     J   25384 28070  28125  28155  28198
 $$$RCP        1 00000000 FFFFFFEC     J    2454  4714   6188   6188
 $$$RCV        1 00000000 FFFFFFEE     J    1179  2364   2364
 $$$RDEV       1 00000000 FFFFFFEB     J    4668  4713   4713
 $$$REVALWA
               1 00000000 FFFFFFE4     J    7862  7876   7876
 $$$REVLWA
               1 00000000 FFFFFFE3     J    9372  9386   9386
 $$$REVXWA
               1 00000000 FFFFFFE5     J    7239  7252   7252
 $$$REXCPWA
               1 00000000 FFFFFFDD     J   22063 22079  22079
 $$$RJCB       1 00000000 FFFFFFE9     J    6306  6580   6580
 $$$RLDWA      1 00000000 FFFFFFE1     J   10568 10586  10586
 $$$RLMWA      1 00000000 FFFFFFE2     J   10066 10085  10085
 $$$RMAKEWA
               1 00000000 FFFFFFDB     J   25410 25423  25423
 $$$RMCWA      1 00000000 FFFFFFD9     J   28324 28337  28337
 $$$RMHWA      1 00000000 FFFFFFDA     J   27901 27915  27915
1EVAL     (EVAL9204) (12:43) (15MAR04) Ordinary Symbol and Literal Cross Reference                                          Page  162
 $$$RNSCNCB
               1 00000000 FFFFFFED     J    2375  2448   2448
 $$$RSCNAWA
               1 00000000 FFFFFFE0     J   15380 15393  15393
 $$$RSCNNWA
               1 00000000 FFFFFFDF     J   16651 16664  16664
 $$$RSCNWWA
               1 00000000 FFFFFFDE     J   21521 21535  21535
 $$$RTTYPE
               1 00000000 FFFFFFEA     J    6199  6300   6300
 $$$RVNENTRY
               1 00000000 FFFFFFE8     J    6602  6901   6901
 $$$RVPARM
               1 00000000 FFFFFFE7     J    6914  6928   6928
 $$$RXBWA      1 00000000 FFFFFFDC     J   24173 24188  24188
 $$$RXSENTRY
               1 00000000 FFFFFFE6     J    6960  7067   7067
 $$$SEGCB0
               4 00000050 FFFFFFEC     F    2485  2571   2571
 $$$Z2         4 00001FEC 00000001     F   18015 15579  15642
 $$$Z7         4 000048F8 00000001     F   30947 29214
 $$$101        1 00000058 00000001 A   U    8383  8380   8382
 $$$103B       1 000003B2 00000001     X    8474  8481U
 $$$104F       2 000003C8 00000001     H    8521  8512B
 $$$105F       2 000003D4 00000001     H    8541  8532B
 $$$106F       2 000004A8 00000001     H    8850  8552B
 $$$107F       2 000003EE 00000001     H    8580  8571B
 $$$108F       2 00000410 00000001     H    8620  8591B
 $$$109F       2 000004A8 00000001     H    8846  8631B
 $$$110F       2 0000044C 00000001     H    8706  8649B
 $$$111F       2 00000448 00000001     H    8701  8667B
 $$$112F       2 00000448 00000001     H    8697  8684B
 $$$113F       2 0000047A 00000001     H    8774  8717B
 $$$114F       2 00000476 00000001     H    8769  8735B
 $$$115F       2 00000476 00000001     H    8765  8752B
 $$$116F       2 000004A8 00000001     H    8842  8785B
 $$$117F       2 000004A4 00000001     H    8837  8803B
 $$$118F       2 000004A4 00000001     H    8833  8820B
 $$$119        1 00000050 00000001 A   U    8873  8870   8872
 $$$121B       1 0000055A 00000001     X    8962  8969U
 $$$122F       2 0000056A 00000001     H    9006  8997B
 $$$123        1 00000050 00000001 A   U    9024  9021   9023
 $$$125B       1 00000592 00000001     X    9082  9089U
 $$$126F       2 000005C4 00000001     H    9162  9117B
 $$$127B       4 000005A6 00000001     I    9130  9143
 $$$127F       2 000005B2 00000001     H    9140  9130B  9142
 $$$128E       2 000005B6 00000001     H    9150  9144
 $$$128F       2 000005BE 00000001     H    9157  9146B
 $$$129        1 00000050 00000001 A   U    9180  9177   9179
 $$$131B       1 000005EC 00000001     X    9238  9245U
 $$$132F       2 0000061C 00000001     H    9317  9273B
 $$$133B       4 00000602 00000001     I    9287  9299
 $$$133F       2 0000060C 00000001     H    9296  9287B  9298
 $$$134E       2 00000610 00000001     H    9306  9300
 $$$134F       2 00000616 00000001     H    9312  9302B
 $$$135        1 00000050 00000001 A   U    9335  9332   9334
 $$$137B       1 00000644 00000001     X    9416  9423U
 $$$138F       2 00000694 00000001     H    9543  9465B
 $$$139F       2 00000694 00000001     H    9539  9482B
1EVAL     (EVAL9204) (12:43) (15MAR04) Ordinary Symbol and Literal Cross Reference                                          Page  163
 $$$140B       4 0000067C 00000001     I    9502  9519
 $$$140F       2 0000068A 00000001     H    9516  9502B  9518
 $$$141E       2 0000068E 00000001     H    9526  9520
 $$$141F       2 00000694 00000001     H    9535  9522B
 $$$142        1 00000070 00000001 A   U    9566  9563   9565
 $$$144B       1 000006BC 00000001     X    9626  9633U
 $$$145F       2 0000070C 00000001     H    9753  9675B
 $$$146F       2 0000070C 00000001     H    9749  9692B
 $$$147B       4 000006F4 00000001     I    9712  9729
 $$$147F       2 00000702 00000001     H    9726  9712B  9728
 $$$148E       2 00000706 00000001     H    9736  9730
 $$$148F       2 0000070C 00000001     H    9745  9732B
 $$$149        1 00000070 00000001 A   U    9776  9773   9775
 $$$151B       1 00000734 00000001     X    9836  9843U
 $$$152F       2 000007B0 00000001     H   10016  9885B
 $$$153F       2 000007B0 00000001     H   10012  9902B
 $$$154B       4 00000770 00000001     I    9934  9951
 $$$154F       2 00000782 00000001     H    9948  9934B  9950
 $$$154T       2 00000774 00000001     H    9937  9925B
 $$$156E       2 00000786 00000001     H    9958  9952
 $$$156F       2 00000792 00000001     H    9965  9954B
 $$$157B       4 00000798 00000001     I    9975  9992
 $$$157F       2 000007A6 00000001     H    9989  9975B  9991
 $$$158E       2 000007AA 00000001     H    9999  9993
 $$$158F       2 000007B0 00000001     H   10008  9995B
 $$$159        1 00000070 00000001 A   U   10039 10036  10038
 $$$161B       1 000007D8 00000001     X   10115 10122U
 $$$162F       2 0000088C 00000001     H   10189 10180B
 $$$163        1 000000C0 00000001 A   U   10220 10217  10219
 $$$165B       1 000008CE 00000001     X   10273 10280U
 $$$166F       2 0000091E 00000001     H   10364 10336B
 $$$167B       4 0000092E 00000001     I   10387 10404
 $$$167F       2 00000940 00000001     H   10401 10387B 10403
 $$$167T       2 00000932 00000001     H   10390 10378B
 $$$169E       2 00000944 00000001     H   10411 10405
 $$$169F       2 000009A0 00000001     H   10465 10407B
 $$$170B       4 00000962 00000001     I   10424 10443
 $$$170F       2 0000097C 00000001     H   10440 10424B 10442
 $$$171E       2 00000980 00000001     H   10450 10444
 $$$171F       2 000009A0 00000001     H   10461 10446B
 $$$172B       4 000009A6 00000001     I   10475 10492
 $$$172F       2 000009B4 00000001     H   10489 10475B 10491
 $$$173E       2 000009B8 00000001     H   10499 10493
 $$$173F       2 000009BE 00000001     H   10508 10495B
 $$$174        1 00000070 00000001 A   U   10538 10535  10537
 $$$176B       1 000009EC 00000001     X   10616 10623U
 $$$177F       2 00000A40 00000001     H   10681 10669B
 $$$177S       2 00000A22 00000001     H   10664 10680B
 $$$179F       2 00000A78 00000001     H   10746 10693B
 $$$179S       2 00000A40 00000001     H   10687 10745B
 $$$181F       2 00000A60 00000001     H   10719 10708B
 $$$181S       2 00000A46 00000001     H   10703 10718B
 $$$183F       2 00000A72 00000001     H   10739 10729B
 $$$184F       2 00000A96 00000001     H   10771 10761B
 $$$185        1 000000B0 00000001 A   U   10799 10796  10798
 $$$187B       1 00000AC6 00000001     X   10850 10857U
 $$$188F       2 00000B22 00000001     H   11017 10890B
 $$$189F       2 00000B22 00000001     H   11013 10906B
 $$$190F       2 00000B14 00000001     H   10984 10930B
1EVAL     (EVAL9204) (12:43) (15MAR04) Ordinary Symbol and Literal Cross Reference                                          Page  164
 $$$191F       2 00000B12 00000001     H   10976 10949B
 $$$192        6 0000138C 00000001     I   10966 10958X
 $$$193        6 0000138C 00000001     I   10965 10966  10966
 $$$194F       2 00000B22 00000001     H   11009 10997B
 $$$195        1 00000050 00000001 A   U   11035 11032  11034
 $$$197B       1 00000B4A 00000001     X   11092 11099U
 $$$198F       2 00000B90 00000001     H   11219 11127B
 $$$199F       2 00000B72 00000001     H   11173 11144B
 $$$200F       2 00000B90 00000001     H   11215 11186B
 $$$201        1 00000050 00000001 A   U   11237 11234  11236
 $$$203B       1 00000BB8 00000001     X   11294 11301U
 $$$204F       2 00000BFE 00000001     H   11421 11329B
 $$$205F       2 00000BE0 00000001     H   11375 11346B
 $$$206F       2 00000BFE 00000001     H   11417 11388B
 $$$207        1 00000050 00000001 A   U   11439 11436  11438
 $$$209B       1 00000C26 00000001     X   11496 11503U
 $$$210F       2 00000C8A 00000001     H   11663 11531B
 $$$211F       2 00000C4E 00000001     H   11577 11548B
 $$$212F       2 00000C6C 00000001     H   11619 11590B
 $$$213F       2 00000C8A 00000001     H   11659 11632B
 $$$214        1 00000050 00000001 A   U   11681 11678  11680
 $$$216B       1 00000CB2 00000001     X   11738 11745U
 $$$217F       2 00000D16 00000001     H   11905 11773B
 $$$218F       2 00000CDA 00000001     H   11819 11790B
 $$$219F       2 00000CF8 00000001     H   11861 11832B
 $$$220F       2 00000D16 00000001     H   11901 11874B
 $$$221        1 00000050 00000001 A   U   11923 11920  11922
 $$$223B       1 00000D3E 00000001     X   11980 11987U
 $$$224F       2 00000DA2 00000001     H   12147 12015B
 $$$225F       2 00000D66 00000001     H   12061 12032B
 $$$226F       2 00000D84 00000001     H   12103 12074B
 $$$227F       2 00000DA2 00000001     H   12143 12116B
 $$$228        1 00000050 00000001 A   U   12165 12162  12164
 $$$230B       1 00000DCA 00000001     X   12222 12229U
 $$$231F       2 00000E2E 00000001     H   12389 12257B
 $$$232F       2 00000DF2 00000001     H   12303 12274B
 $$$233F       2 00000E10 00000001     H   12345 12316B
 $$$234F       2 00000E2E 00000001     H   12385 12358B
 $$$235        1 00000050 00000001 A   U   12407 12404  12406
 $$$237B       1 00000E56 00000001     X   12465 12472U
 $$$238F       2 00000E7E 00000001     H   12536 12506B
 $$$239F       2 00000E7E 00000001     H   12532 12523B
 $$$240        1 00000050 00000001 A   U   12554 12551  12553
 $$$242B       1 00000EA6 00000001     X   12612 12619U
 $$$243F       2 00000ECE 00000001     H   12683 12653B
 $$$244F       2 00000ECE 00000001     H   12679 12670B
 $$$245        1 00000050 00000001 A   U   12701 12698  12700
 $$$247B       1 00000EF6 00000001     X   12756 12763U
 $$$248F       2 00000F0A 00000001     H   12807 12794B
 $$$249F       2 00000F1C 00000001     H   12831 12818B
 $$$250F       2 00000F30 00000001     H   12856 12843B
 $$$251F       2 00000F42 00000001     H   12880 12867B
 $$$252        1 00000050 00000001 A   U   12908 12905  12907
 $$$254B       1 00000F78 00000001     X   12949 12956U
 $$$255F       2 00000FB8 00000001     H   13069 12985B
 $$$256F       2 00000FB8 00000001     H   13065 13002B
 $$$257F       2 00000FA4 00000001     H   13024 13015B
 $$$258F       2 00000FAC 00000001     H   13040 13031B
 $$$259F       2 00000FB4 00000001     H   13056 13047B
1EVAL     (EVAL9204) (12:43) (15MAR04) Ordinary Symbol and Literal Cross Reference                                          Page  165
 $$$260        1 00000050 00000001 A   U   13089 13086  13088
 $$$262B       1 00000FE4 00000001     X   13130 13137U
 $$$263F       2 0000101E 00000001     H   13234 13166B
 $$$264F       2 0000101E 00000001     H   13230 13183B
 $$$265F       2 00001010 00000001     H   13205 13196B
 $$$266F       2 00001018 00000001     H   13221 13212B
 $$$267        1 00000050 00000001 A   U   13254 13251  13253
 $$$269B       1 0000104A 00000001     X   13295 13302U
 $$$270F       2 00001098 00000001     H   13420 13331B
 $$$271F       2 00001098 00000001     H   13416 13347B
 $$$272F       2 00001084 00000001     H   13375 13366B
 $$$273F       2 0000108C 00000001     H   13391 13382B
 $$$274F       2 00001094 00000001     H   13407 13398B
 $$$275        1 00000050 00000001 A   U   13440 13437  13439
 $$$277B       1 000010C4 00000001     X   13491 13498U
 $$$278F       2 00001116 00000001     H   13627 13528B
 $$$279F       2 000010EE 00000001     H   13572 13545B
 $$$280F       2 00001116 00000001     H   13623 13583B
 $$$281F       2 00001116 00000001     H   13619 13601B
 $$$282        1 00000050 00000001 A   U   13670 13667  13669
 $$$284B       1 00001158 00000001     X   13713 13720U
 $$$285        1 00000050 00000001 A   U   13816 13813  13815
 $$$287B       1 000011BE 00000001     X   13859 13866U
 $$$288        1 00000050 00000001 A   U   13962 13959  13961
 $$$290B       1 000013AC 00000001     X   14084 14091U
 $$$291F       2 000013CC 00000001     H   14165 14121B
 $$$292        6 00002166 00000001     I   14138 14130X
 $$$293        6 00002166 00000001     I   14137 14138  14138
 $$$294F       2 000013CC 00000001     H   14161 14151B
 $$$295B       4 000013D2 00000001     I   14182 14199
 $$$295F       2 000013DC 00000001     H   14195 14182B 14198
 $$$296B       4 000013E4 00000001     I   14217 14234
 $$$296E       2 000013E0 00000001     H   14206 14200
 $$$296F       2 000013EE 00000001     H   14230 14202B 14217B 14233
 $$$298B       4 000013F6 00000001     I   14252 14269
 $$$298E       2 000013F2 00000001     H   14241 14235
 $$$298F       2 00001400 00000001     H   14265 14237B 14252B 14268
 $$$300B       4 00001408 00000001     I   14287 14304
 $$$300E       2 00001404 00000001     H   14276 14270
 $$$300F       2 00001412 00000001     H   14300 14272B 14287B 14303
 $$$302B       4 0000141A 00000001     I   14322 14340
 $$$302E       2 00001416 00000001     H   14311 14305
 $$$302F       2 00001424 00000001     H   14335 14307B 14322B 14339
 $$$304B       4 0000142C 00000001     I   14358 14375
 $$$304E       2 00001428 00000001     H   14347 14341
 $$$304F       2 00001436 00000001     H   14371 14343B 14358B 14374
 $$$306B       4 0000143E 00000001     I   14393 14410
 $$$306E       2 0000143A 00000001     H   14382 14376
 $$$306F       2 00001448 00000001     H   14406 14378B 14393B 14409
 $$$308B       4 00001450 00000001     I   14428 14445
 $$$308E       2 0000144C 00000001     H   14417 14411
 $$$308F       2 0000145A 00000001     H   14441 14413B 14428B 14444
 $$$310B       4 00001462 00000001     I   14463 14480
 $$$310E       2 0000145E 00000001     H   14452 14446
 $$$310F       2 0000146C 00000001     H   14476 14448B 14463B 14479
 $$$312B       4 00001474 00000001     I   14498 14515
 $$$312E       2 00001470 00000001     H   14487 14481
 $$$312F       2 0000147E 00000001     H   14511 14483B 14498B 14514
 $$$314B       4 00001486 00000001     I   14533 14550
1EVAL     (EVAL9204) (12:43) (15MAR04) Ordinary Symbol and Literal Cross Reference                                          Page  166
 $$$314E       2 00001482 00000001     H   14522 14516
 $$$314F       2 00001490 00000001     H   14546 14518B 14533B 14549
 $$$316B       4 00001498 00000001     I   14568 14585
 $$$316E       2 00001494 00000001     H   14557 14551
 $$$316F       2 000014A2 00000001     H   14581 14553B 14568B 14584
 $$$318B       4 000014AA 00000001     I   14603 14620
 $$$318E       2 000014A6 00000001     H   14592 14586
 $$$318F       2 000014B4 00000001     H   14616 14588B 14603B 14619
 $$$320B       4 000014BC 00000001     I   14638 14655
 $$$320E       2 000014B8 00000001     H   14627 14621
 $$$320F       2 000014C6 00000001     H   14651 14623B 14638B 14654
 $$$322B       4 000014CE 00000001     I   14673 14690
 $$$322E       2 000014CA 00000001     H   14662 14656
 $$$322F       2 000014D8 00000001     H   14686 14658B 14673B 14689
 $$$324B       4 000014E0 00000001     I   14708 14725
 $$$324E       2 000014DC 00000001     H   14697 14691
 $$$324F       2 000014EA 00000001     H   14721 14693B 14708B 14724
 $$$326E       2 000014EE 00000001     H   14732 14726
 $$$326F       2 000014FC 00000001     H   14756 14728B 14743B
 $$$328        1 00000050 00000001 A   U   14780 14777  14779
 $$$330B       1 00001872 00000001     X   14999 15006U
 $$$331F       2 00001892 00000001     H   15074 15030B
 $$$332        6 0000216C 00000001     I   15047 15039X
 $$$333        6 0000216C 00000001     I   15046 15047  15047
 $$$334F       2 00001892 00000001     H   15070 15060B
 $$$335        1 00000050 00000001 A   U   15096 15093  15095
 $$$337B       1 000018C2 00000001     X   15135 15142U
 $$$338        1 00000050 00000001 A   U   15189 15186  15188
 $$$340B       1 000018F4 00000001     X   15234 15241U
 $$$341        1 00000050 00000001 A   U   15337 15334  15336
 $$$343B       1 00001962 00000001     X   15424 15431U
 $$$344F       2 000019A2 00000001     H   15537 15479B
 $$$345F       2 000019FA 00000001     H   15627 15565B 15580B
 $$$347F       2 000019F8 00000001     H   15619 15609B
 $$$348F       2 00001A1C 00000001     H   15663 15643B
 $$$349F       2 00001A6C 00000001     H   15755 15679B
 $$$350F       2 00001A40 00000001     H   15707 15698B
 $$$351F       2 00001A6C 00000001     H   15751 15718B
 $$$352F       2 00001A90 00000001     H   15795 15782B
 $$$353F       2 00001AB8 00000001     H   15831 15815B
 $$$354        1 00000058 00000001 A   U   15923 15920  15922
 $$$356B       1 00001B00 00000001     X   15984 15991U
 $$$357F       2 00001B1E 00000001     H   16042 16033B
 $$$358F       2 00001B2A 00000001     H   16063 16054B
 $$$359F       2 00001B3C 00000001     H   16086 16076B
 $$$360F       2 00001B5C 00000001     H   16151 16107B
 $$$361        6 00002172 00000001     I   16124 16116X
 $$$362        6 00002172 00000001     I   16123 16124  16124
 $$$363F       2 00001B5C 00000001     H   16147 16137B
 $$$364F       2 00001B7C 00000001     H   16176 16164B
 $$$365F       2 00001B84 00000001     H   16196 16186B
 $$$366        6 00002178 00000001     I   16210 16202X
 $$$367        6 00002178 00000001     I   16209 16210  16210
 $$$368        6 0000217E 00000001     I   16227 16219X
 $$$369        6 0000217E 00000001     I   16226 16227  16227
 $$$372F       2 00001BC8 00000001     H   16309 16295B
 $$$373F       2 00001BD6 00000001     H   16335 16321B
 $$$374F       2 00001BE4 00000001     H   16361 16347B
 $$$375F       2 00001BF2 00000001     H   16387 16373B
1EVAL     (EVAL9204) (12:43) (15MAR04) Ordinary Symbol and Literal Cross Reference                                          Page  167
 $$$376F       2 00001C00 00000001     H   16413 16399B
 $$$379        6 00002184 00000001     I   16474 16466X
 $$$380        6 00002184 00000001     I   16473 16474  16474
 $$$381F       2 00001C28 00000001     H   16497 16487B
 $$$382F       2 00001C3E 00000001     H   16520 16510B
 $$$383F       2 00001C48 00000001     H   16539 16530B
 $$$384        6 0000218A 00000001     I   16554 16546X
 $$$385        6 0000218A 00000001     I   16553 16554  16554
 $$$386        6 00002190 00000001     I   16571 16563X
 $$$387        6 00002190 00000001     I   16570 16571  16571
 $$$388        1 00000050 00000001 A   U   16618 16615  16617
 $$$390B       1 00001CA0 00000001     X   16694 16701U
 $$$391F       2 00001CCE 00000001     H   16804 16760B
 $$$392        6 00002196 00000001     I   16777 16769X
 $$$393        6 00002196 00000001     I   16776 16777  16777
 $$$394F       2 00001CCE 00000001     H   16800 16790B
 $$$395F       2 00001CE4 00000001     H   16832 16819B
 $$$396        6 0000219C 00000001     I   16848 16840X
 $$$397        6 0000219C 00000001     I   16847 16848  16848
 $$$398F       2 00001D58 00000001     H   17031 16881B 16892B
 $$$400F       2 00001D32 00000001     H   16959 16915B
 $$$401        6 000021A2 00000001     I   16932 16924X
 $$$402        6 000021A2 00000001     I   16931 16932  16932
 $$$403F       2 00001D32 00000001     H   16955 16945B
 $$$404F       2 00001D48 00000001     H   16987 16974B
 $$$405F       2 00001D54 00000001     H   17025 16998B
 $$$406        6 000021A8 00000001     I   17015 17007X
 $$$407        6 000021A8 00000001     I   17014 17015  17015
 $$$408        1 00000068 00000001 A   U   17078 17075  17077
 $$$410B       1 00001DAC 00000001     X   17134 17141U
 $$$411B       4 00001DC0 00000001     I   17208 17389
 $$$411F       2 00001E46 00000001     H   17382 17182B 17195B 17208B 17384
 $$$412B       4 00001DB0 00000001     I   17182 17385
 $$$413B       4 00001DB8 00000001     I   17195 17387
 $$$414F       2 00001DF8 00000001     H   17289 17245B
 $$$415        6 000021AE 00000001     I   17262 17254X
 $$$416        6 000021AE 00000001     I   17261 17262  17262
 $$$417F       2 00001DF8 00000001     H   17285 17275B
 $$$418F       2 00001E0E 00000001     H   17317 17304B
 $$$419F       2 00001E1A 00000001     H   17355 17328B
 $$$420        6 000021B4 00000001     I   17345 17337X
 $$$421        6 000021B4 00000001     I   17344 17345  17345
 $$$422E       2 00001E4A 00000001     H   17396 17386  17388  17390
 $$$422F       2 00001E54 00000001     H   17406 17392B
 $$$423        1 00000068 00000001 A   U   17434 17431  17433
 $$$425B       1 00001E80 00000001     X   17478 17485U
 $$$426F       2 00001EF2 00000001     H   17648 17585B 17597B
 $$$426S       2 00001E9E 00000001     H   17533 17647B
 $$$426T       2 00001EC2 00000001     H   17600 17572B
 $$$428F       2 00001EB4 00000001     H   17575 17545B 17558B
 $$$432B       4 00001EC6 00000001     I   17613 17627
 $$$432F       2 00001ED8 00000001     H   17624 17613B 17626
 $$$433E       2 00001EDC 00000001     H   17634 17628
 $$$433F       2 00001EEA 00000001     H   17642 17630B
 $$$434B       4 00001EF4 00000001     I   17659 17679
 $$$434F       2 00001F0A 00000001     H   17676 17659B 17678
 $$$435E       2 00001F0E 00000001     H   17686 17680
 $$$435F       2 00001F16 00000001     H   17696 17682B
 $$$436        1 00000050 00000001 A   U   17716 17713  17715
1EVAL     (EVAL9204) (12:43) (15MAR04) Ordinary Symbol and Literal Cross Reference                                          Page  168
 $$$438B       1 00001F42 00000001     X   17760 17767U
 $$$439F       2 00001FB4 00000001     H   17930 17867B 17879B
 $$$439S       2 00001F60 00000001     H   17815 17929B
 $$$439T       2 00001F84 00000001     H   17882 17854B
 $$$441F       2 00001F76 00000001     H   17857 17827B 17840B
 $$$445B       4 00001F88 00000001     I   17895 17909
 $$$445F       2 00001F9A 00000001     H   17906 17895B 17908
 $$$446E       2 00001F9E 00000001     H   17916 17910
 $$$446F       2 00001FAC 00000001     H   17924 17912B
 $$$447B       4 00001FB6 00000001     I   17941 17961
 $$$447F       2 00001FCC 00000001     H   17958 17941B 17960
 $$$448E       2 00001FD0 00000001     H   17968 17962
 $$$448F       2 00001FD8 00000001     H   17978 17964B
 $$$449        1 00000050 00000001 A   U   17998 17995  17997
 $$$451B       1 000021D4 00000001     X   18131 18138U
 $$$452        1 00000050 00000001 A   U   18201 18198  18200
 $$$454B       1 0000222A 00000001     X   18245 18252U
 $$$455        1 00000050 00000001 A   U   18319 18316  18318
 $$$457B       1 0000228A 00000001     X   18363 18370U
 $$$458        1 00000050 00000001 A   U   18437 18434  18436
 $$$460B       1 000022EA 00000001     X   18492 18499U
 $$$461B       4 000022F2 00000001     I   18529 18542
 $$$461F       2 000022FA 00000001     H   18539 18529B 18541
 $$$462E       2 000022FE 00000001     H   18549 18543
 $$$462F       2 00002302 00000001     H   18556 18545B
 $$$463F       2 00002328 00000001     H   18594 18567B
 $$$464F       2 00002360 00000001     H   18645 18609B
 $$$465F       2 00002384 00000001     H   18692 18659B
 $$$466        1 00000050 00000001 A   U   18714 18711  18713
 $$$468B       1 000023B6 00000001     X   18758 18765U
 $$$469        1 00000050 00000001 A   U   18832 18829  18831
 $$$471B       1 00002416 00000001     X   18876 18883U
 $$$472B       4 00002422 00000001     I   18928 18972
 $$$472F       2 0000245C 00000001     H   18967 18914B 18928B 18969
 $$$473B       4 0000241A 00000001     I   18914 18970
 $$$474E       2 00002460 00000001     H   18979 18971  18973
 $$$474F       2 00002466 00000001     H   18988 18975B
 $$$475        1 00000050 00000001 A   U   19008 19005  19007
 $$$477B       1 00002492 00000001     X   19053 19060U
 $$$478        1 00000050 00000001 A   U   19109 19106  19108
 $$$480B       1 000024D2 00000001     X   19155 19162U
 $$$481        1 00000050 00000001 A   U   19225 19222  19224
 $$$483B       1 00002528 00000001     X   19271 19278U
 $$$484        1 00000050 00000001 A   U   19341 19338  19340
 $$$486B       1 0000257E 00000001     X   19387 19394U
 $$$487        1 00000050 00000001 A   U   19457 19454  19456
 $$$489B       1 000025D4 00000001     X   19503 19510U
 $$$490        1 00000050 00000001 A   U   19573 19570  19572
 $$$492B       1 0000262A 00000001     X   19619 19626U
 $$$493        1 00000050 00000001 A   U   19689 19686  19688
 $$$495B       1 00002680 00000001     X   19735 19742U
 $$$496        1 00000050 00000001 A   U   19805 19802  19804
 $$$498B       1 000026D6 00000001     X   19851 19858U
 $$$499        1 00000050 00000001 A   U   19921 19918  19920
 $$$501B       1 0000272C 00000001     X   19967 19974U
 $$$502        1 00000050 00000001 A   U   20037 20034  20036
 $$$504B       1 00002782 00000001     X   20095 20102U
 $$$505F       2 0000278C 00000001     H   20144 20133B
 $$$506B       4 00002798 00000001     I   20161 20293
1EVAL     (EVAL9204) (12:43) (15MAR04) Ordinary Symbol and Literal Cross Reference                                          Page  169
 $$$506F       2 000027F8 00000001     H   20288 20161B 20292
 $$$507B       4 000027A6 00000001     I   20190 20210
 $$$507F       2 000027B2 00000001     H   20204 20177B 20190B 20207
 $$$508B       4 0000279E 00000001     I   20177 20208
 $$$509E       2 000027B6 00000001     H   20217 20209  20211
 $$$509F       2 000027F8 00000001     H   20284 20213B
 $$$510F       2 000027F4 00000001     H   20279 20253B
 $$$511E       2 000027FC 00000001     H   20300 20294
 $$$511F       2 00002822 00000001     H   20354 20296B 20308B
 $$$513F       2 0000281E 00000001     H   20349 20323B
 $$$514        1 00000050 00000001 A   U   20375 20372  20374
 $$$516B       1 0000284E 00000001     X   20423 20430U
 $$$517        1 00000050 00000001 A   U   20477 20474  20476
 $$$519B       1 00002880 00000001     X   20525 20532U
 $$$520        1 00000050 00000001 A   U   20579 20576  20578
 $$$522B       1 000028B2 00000001     X   20627 20634U
 $$$523        1 00000050 00000001 A   U   20681 20678  20680
 $$$525B       1 00002A1A 00000001     X   20804 20811U
 $$$526F       2 00002A3A 00000001     H   20892 20848B
 $$$527        6 00003116 00000001     I   20865 20857X
 $$$528        6 00003116 00000001     I   20864 20865  20865
 $$$529F       2 00002A3A 00000001     H   20888 20878B
 $$$530B       4 00002A40 00000001     I   20909 20926
 $$$530F       2 00002A4A 00000001     H   20922 20909B 20925
 $$$531B       4 00002A52 00000001     I   20944 20961
 $$$531E       2 00002A4E 00000001     H   20933 20927
 $$$531F       2 00002A5C 00000001     H   20957 20929B 20944B 20960
 $$$533B       4 00002A64 00000001     I   20979 20996
 $$$533E       2 00002A60 00000001     H   20968 20962
 $$$533F       2 00002A6E 00000001     H   20992 20964B 20979B 20995
 $$$535B       4 00002A76 00000001     I   21014 21031
 $$$535E       2 00002A72 00000001     H   21003 20997
 $$$535F       2 00002A80 00000001     H   21027 20999B 21014B 21030
 $$$537B       4 00002A88 00000001     I   21049 21066
 $$$537E       2 00002A84 00000001     H   21038 21032
 $$$537F       2 00002A92 00000001     H   21062 21034B 21049B 21065
 $$$539B       4 00002A9A 00000001     I   21084 21101
 $$$539E       2 00002A96 00000001     H   21073 21067
 $$$539F       2 00002AA4 00000001     H   21097 21069B 21084B 21100
 $$$541B       4 00002AAC 00000001     I   21119 21136
 $$$541E       2 00002AA8 00000001     H   21108 21102
 $$$541F       2 00002AB6 00000001     H   21132 21104B 21119B 21135
 $$$543B       4 00002ABE 00000001     I   21154 21171
 $$$543E       2 00002ABA 00000001     H   21143 21137
 $$$543F       2 00002AC8 00000001     H   21167 21139B 21154B 21170
 $$$545B       4 00002AD0 00000001     I   21189 21206
 $$$545E       2 00002ACC 00000001     H   21178 21172
 $$$545F       2 00002ADA 00000001     H   21202 21174B 21189B 21205
 $$$547B       4 00002AE2 00000001     I   21224 21241
 $$$547E       2 00002ADE 00000001     H   21213 21207
 $$$547F       2 00002AEC 00000001     H   21237 21209B 21224B 21240
 $$$549E       2 00002AF0 00000001     H   21248 21242
 $$$549F       2 00002AFE 00000001     H   21272 21244B 21259B
 $$$551        1 00000050 00000001 A   U   21296 21293  21295
 $$$553B       1 00002C56 00000001     X   21437 21444U
 $$$554        1 00000050 00000001 A   U   21491 21488  21490
 $$$556B       1 00002C88 00000001     X   21565 21572U
 $$$557B       4 00002C98 00000001     I   21612 21638
 $$$557F       2 00002CAE 00000001     H   21635 21612B 21637
1EVAL     (EVAL9204) (12:43) (15MAR04) Ordinary Symbol and Literal Cross Reference                                          Page  170
 $$$558E       2 00002CB2 00000001     H   21645 21639
 $$$558F       2 00002CCE 00000001     H   21685 21641B
 $$$559F       2 00002CCE 00000001     H   21681 21658B
 $$$560        1 00000058 00000001 A   U   21714 21711  21713
 $$$562B       1 00002CFC 00000001     X   21766 21773U
 $$$563F       2 00002D0C 00000001     H   21814 21804B
 $$$564F       2 00002D20 00000001     H   21835 21822B
 $$$565F       2 00002D34 00000001     H   21856 21843B
 $$$566F       2 00002D48 00000001     H   21877 21864B
 $$$567F       2 00002D5C 00000001     H   21898 21885B
 $$$568F       2 00002D70 00000001     H   21919 21906B
 $$$569F       2 00002D84 00000001     H   21940 21927B
 $$$570F       2 00002D98 00000001     H   21961 21948B
 $$$571F       2 00002DAC 00000001     H   21982 21969B
 $$$572F       2 00002DC0 00000001     H   22003 21990B
 $$$573        1 00000050 00000001 A   U   22025 22022  22024
 $$$575B       1 00002DEC 00000001     X   22109 22116U
 $$$576F       2 00002F6E 00000001     H   22712 22154B
 $$$577F       2 00002F6E 00000001     H   22708 22185B
 $$$577T       2 00002E08 00000001     H   22188 22174B
 $$$579F       2 00002F6E 00000001     H   22704 22232B
 $$$579T       2 00002E26 00000001     H   22235 22206B 22220B
 $$$582F       2 00002E56 00000001     H   22301 22255B
 $$$583F       2 00002E56 00000001     H   22297 22275B 22287B
 $$$583S       2 00002E40 00000001     H   22265 22296B
 $$$586F       2 00002E74 00000001     H   22359 22313B
 $$$587F       2 00002E74 00000001     H   22355 22333B 22345B
 $$$587S       2 00002E5E 00000001     H   22323 22354B
 $$$593B       4 00002EA8 00000001     I   22434 22499
 $$$593F       2 00002EC8 00000001     H   22495 22434B 22498
 $$$594F       2 00002EC8 00000001     H   22491 22467B
 $$$595        6 0000311C 00000001     I   22481 22473X
 $$$596        6 0000311C 00000001     I   22480 22481  22481
 $$$597B       4 00002ED2 00000001     I   22517 22597
 $$$597E       2 00002ECC 00000001     H   22506 22500
 $$$597F       2 00002F12 00000001     H   22593 22502B 22517B 22596
 $$$600F       2 00002F02 00000001     H   22582 22571B
 $$$600S       2 00002EEE 00000001     H   22562 22581B
 $$$602E       2 00002F16 00000001     H   22604 22598
 $$$602F       2 00002F5C 00000001     H   22691 22600B 22615B
 $$$605F       2 00002F4C 00000001     H   22680 22669B
 $$$605S       2 00002F38 00000001     H   22660 22679B
 $$$607        1 00000148 00000001 A   U   22856 22853  22855
 $$$609B       1 0000313C 00000001     X   22973 22980U
 $$$610F       2 00003160 00000001     H   23032 23016B
 $$$611        1 00000050 00000001 A   U   23051 23048  23050
 $$$613B       1 00003188 00000001     X   23101 23108U
 $$$614F       2 000031B0 00000001     H   23164 23137B
 $$$615F       2 000031E6 00000001     H   23217 23172B
 $$$616F       2 000031E6 00000001     H   23213 23191B
 $$$617F       2 000031F0 00000001     H   23237 23227B
 $$$618        1 00000050 00000001 A   U   23257 23254  23256
 $$$620B       1 0000321C 00000001     X   23306 23313U
 $$$623F       2 00003254 00000001     H   23406 23378B 23391B
 $$$623S       2 0000323C 00000001     H   23370 23405B
 $$$628F       2 00003280 00000001     H   23485 23457B 23470B
 $$$628S       2 00003268 00000001     H   23449 23484B
 $$$63B        1 0000003C 00000001     X    7144  7151U
 $$$633F       2 000032AC 00000001     H   23564 23536B 23549B
1EVAL     (EVAL9204) (12:43) (15MAR04) Ordinary Symbol and Literal Cross Reference                                          Page  171
 $$$633S       2 00003294 00000001     H   23528 23563B
 $$$636        1 00000050 00000001 A   U   23592 23589  23591
 $$$638B       1 000032E6 00000001     X   23641 23648U
 $$$639F       2 000032FE 00000001     H   23705 23692B
 $$$639T       2 000032F4 00000001     H   23695 23683B
 $$$64         1 00000050 00000001 A   U    7208  7205   7207
 $$$641F       2 0000331C 00000001     H   23748 23725B 23736B
 $$$641S       2 00003304 00000001     H   23715 23747B
 $$$644F       2 00003336 00000001     H   23789 23762B 23773B
 $$$646S       2 00003338 00000001     H   23796 24114B
 $$$647F       2 00003348 00000001     H   23822 23809B
 $$$648F       2 0000335E 00000001     H   23850 23837B
 $$$649F       2 0000336E 00000001     H   23873 23860B
 $$$650F       2 0000337E 00000001     H   23896 23883B
 $$$651F       2 0000338E 00000001     H   23919 23906B
 $$$652F       2 000033A0 00000001     H   23944 23931B
 $$$653F       2 000033B4 00000001     H   23968 23956B
 $$$654F       2 000033E6 00000001     H   24031 23983B 23996B
 $$$656F       2 000033F4 00000001     H   24054 24043B
 $$$657F       2 0000341A 00000001     H   24092 24065B
 $$$658F       2 00003428 00000001     H   24110 24100B
 $$$659        1 00000050 00000001 A   U   24138 24135  24137
 $$$66B        1 000000A2 00000001     X    7283  7290U
 $$$661B       1 00003458 00000001     X   24220 24227U
 $$$662F       2 00003484 00000001     H   24316 24293B 24304B
 $$$662S       2 0000346C 00000001     H   24283 24315B
 $$$665F       2 00003498 00000001     H   24354 24341B
 $$$665T       2 00003492 00000001     H   24344 24332B
 $$$667F       2 000034B6 00000001     H   24398 24375B 24386B
 $$$667S       2 0000349E 00000001     H   24365 24397B
 $$$67F        2 00000102 00000001     H    7444  7339B
 $$$670F       2 000034E4 00000001     H   24455 24412B 24423B
 $$$672F       2 0000369C 00000001     H   25055 24478B
 $$$672S       2 000034EA 00000001     H   24470 25054B
 $$$674F       2 0000350E 00000001     H   24524 24501B 24512B
 $$$674S       2 000034F6 00000001     H   24491 24523B
 $$$677F       2 00003520 00000001     H   24558 24538B 24549B
 $$$679F       2 00003534 00000001     H   24601 24585B
 $$$679T       2 0000352E 00000001     H   24588 24576B
 $$$68B        4 000000CC 00000001     I    7355  7427
 $$$68F        2 000000FA 00000001     H    7424  7355B  7426
 $$$681B       4 00003536 00000001     I   24614 24681
 $$$681F       2 0000356C 00000001     H   24675 24614B 24680
 $$$682F       2 00003556 00000001     H   24644 24630B
 $$$683F       2 0000356C 00000001     H   24671 24657B
 $$$684B       4 00003572 00000001     I   24696 24716
 $$$684E       2 00003570 00000001     H   24688 24682
 $$$684F       2 00003584 00000001     H   24710 24684B 24696B 24715
 $$$686E       2 00003588 00000001     H   24723 24717
 $$$686F       2 0000359C 00000001     H   24745 24719B 24731B
 $$$688F       2 000035C2 00000001     H   24791 24759B
 $$$689F       2 000035D8 00000001     H   24817 24803B
 $$$69F        2 000000E2 00000001     H    7386  7376B
 $$$690F       2 00003600 00000001     H   24861 24829B
 $$$691F       2 00003636 00000001     H   24924 24875B 24888B
 $$$693F       2 00003664 00000001     H   24987 24936B
 $$$694F       2 00003664 00000001     H   24983 24957B 24968B
 $$$696F       2 00003698 00000001     H   25048 25002B 25015B
 $$$698        1 00000058 00000001 A   U   25098 25095  25097
1EVAL     (EVAL9204) (12:43) (15MAR04) Ordinary Symbol and Literal Cross Reference                                          Page  172
 $$$70F        2 000000EA 00000001     H    7407  7397B
 $$$700B       1 000036E2 00000001     X   25151 25158U
 $$$701F       2 00003708 00000001     H   25213 25186B
 $$$702F       2 0000373C 00000001     H   25311 25221B
 $$$703F       2 00003734 00000001     H   25285 25236B
 $$$704B       4 00003722 00000001     I   25252 25268
 $$$704F       2 0000372C 00000001     H   25265 25252B 25267
 $$$705E       2 00003730 00000001     H   25275 25269
 $$$705F       2 00003734 00000001     H   25281 25271B
 $$$706F       2 0000373C 00000001     H   25307 25295B
 $$$707        1 00000050 00000001 A   U   25331 25328  25330
 $$$709B       1 000038B0 00000001     X   25454 25461U
 $$$71E        2 000000FE 00000001     H    7434  7428
 $$$71F        2 00000102 00000001     H    7440  7430B
 $$$710B       4 000038B4 00000001     I   25498 25514
 $$$710F       2 000038BA 00000001     H   25510 25498B 25513
 $$$711B       4 000038C2 00000001     I   25530 25595
 $$$711E       2 000038BE 00000001     H   25521 25515
 $$$711F       2 000038FA 00000001     H   25591 25517B 25530B 25594
 $$$713B       4 000038D8 00000001     I   25556 25569
 $$$713F       2 000038E8 00000001     H   25566 25556B 25568
 $$$714E       2 000038EC 00000001     H   25576 25570
 $$$714F       2 000038F8 00000001     H   25583 25572B
 $$$715B       4 00003902 00000001     I   25611 25835
 $$$715E       2 000038FE 00000001     H   25602 25596
 $$$715F       2 000039D8 00000001     H   25831 25598B 25611B 25834
 $$$717F       2 00003954 00000001     H   25672 25649B 25660B
 $$$717S       2 0000393C 00000001     H   25639 25671B
 $$$72F        2 0000010A 00000001     H    7467  7455B
 $$$720F       2 0000396E 00000001     H   25713 25689B 25700B
 $$$720S       2 00003958 00000001     H   25679 25712B
 $$$723F       2 0000397E 00000001     H   25731 25721B
 $$$724F       2 00003996 00000001     H   25756 25744B
 $$$724S       2 0000397E 00000001     H   25737 25755B
 $$$726F       2 000039BE 00000001     H   25803 25767B
 $$$727F       2 000039BE 00000001     H   25799 25787B
 $$$727S       2 000039A6 00000001     H   25780 25798B
 $$$729E       2 000039DC 00000001     H   25842 25836
 $$$729F       2 000039E4 00000001     H   25861 25838B 25851B
 $$$73         1 000001A0 00000001 A   U    7498  7495   7497
 $$$731        1 000001A0 00000001 A   U   25884 25881  25883
 $$$733B       1 00003A0C 00000001     X   25936 25943U
 $$$734B       4 00003A10 00000001     I   25980 25996
 $$$734F       2 00003A16 00000001     H   25992 25980B 25995
 $$$735B       4 00003A1E 00000001     I   26012 26043
 $$$735E       2 00003A1A 00000001     H   26003 25997
 $$$735F       2 00003A38 00000001     H   26039 25999B 26012B 26042
 $$$737B       4 00003A40 00000001     I   26059 26221
 $$$737E       2 00003A3C 00000001     H   26050 26044
 $$$737F       2 00003AD2 00000001     H   26217 26046B 26059B 26220
 $$$739F       2 00003A80 00000001     H   26120 26078B
 $$$740F       2 00003A80 00000001     H   26116 26093B
 $$$741F       2 00003AB4 00000001     H   26175 26133B
 $$$742F       2 00003AB4 00000001     H   26171 26148B
 $$$743F       2 00003AD2 00000001     H   26213 26186B
 $$$744E       2 00003AD6 00000001     H   26228 26222
 $$$744F       2 00003ADE 00000001     H   26247 26224B 26237B
 $$$746        1 000001A0 00000001 A   U   26270 26267  26269
 $$$748B       1 00003B06 00000001     X   26322 26329U
1EVAL     (EVAL9204) (12:43) (15MAR04) Ordinary Symbol and Literal Cross Reference                                          Page  173
 $$$749B       4 00003B16 00000001     I   26374 26390
 $$$749F       2 00003B1C 00000001     H   26386 26374B 26389
 $$$75B        1 00000140 00000001     X    7554  7561U
 $$$750B       4 00003B24 00000001     I   26406 26437
 $$$750E       2 00003B20 00000001     H   26397 26391
 $$$750F       2 00003B3E 00000001     H   26433 26393B 26406B 26436
 $$$752B       4 00003B46 00000001     I   26453 27178
 $$$752E       2 00003B42 00000001     H   26444 26438
 $$$752F       2 00003D02 00000001     H   27174 26440B 26453B 27177
 $$$754B       4 00003B60 00000001     I   26480 26497
 $$$754F       2 00003B6A 00000001     H   26492 26480B 26496
 $$$755B       4 00003B72 00000001     I   26515 26555
 $$$755E       2 00003B6E 00000001     H   26504 26498
 $$$755F       2 00003B8C 00000001     H   26551 26500B 26515B 26554
 $$$757B       4 00003B94 00000001     I   26573 27002
 $$$757E       2 00003B90 00000001     H   26562 26556
 $$$757F       2 00003C9A 00000001     H   26997 26558B 26573B 27001
 $$$759B       4 00003BB0 00000001     I   26620 26644
 $$$759F       2 00003BC0 00000001     H   26635 26593B 26606B 26620B 26639
 $$$76F        2 00000170 00000001     H    7654  7605B
 $$$760B       4 00003B9E 00000001     I   26593 26640
 $$$761B       4 00003BA8 00000001     I   26606 26642
 $$$762B       4 00003BDC 00000001     I   26690 26725
 $$$762E       2 00003BC4 00000001     H   26651 26641  26643  26645
 $$$762F       2 00003BF4 00000001     H   26716 26647B 26663B 26676B 26690B 26720
 $$$764B       4 00003BCA 00000001     I   26663 26721
 $$$765B       4 00003BD4 00000001     I   26676 26723
 $$$766B       4 00003C10 00000001     I   26771 26792
 $$$766E       2 00003BF8 00000001     H   26732 26722  26724  26726
 $$$766F       2 00003C1A 00000001     H   26783 26728B 26744B 26757B 26771B 26787
 $$$768B       4 00003BFE 00000001     I   26744 26788
 $$$769B       4 00003C08 00000001     I   26757 26790
 $$$77B        4 0000015E 00000001     I    7621  7637
 $$$77F        2 00000168 00000001     H    7634  7621B  7636
 $$$770B       4 00003C36 00000001     I   26838 26862
 $$$770E       2 00003C1E 00000001     H   26799 26789  26791  26793
 $$$770F       2 00003C46 00000001     H   26853 26795B 26811B 26824B 26838B 26857
 $$$772B       4 00003C24 00000001     I   26811 26858
 $$$773B       4 00003C2E 00000001     I   26824 26860
 $$$774B       4 00003C62 00000001     I   26908 26950
 $$$774E       2 00003C4A 00000001     H   26869 26859  26861  26863
 $$$774F       2 00003C7A 00000001     H   26941 26865B 26881B 26894B 26908B 26945
 $$$776B       4 00003C50 00000001     I   26881 26946
 $$$777B       4 00003C5A 00000001     I   26894 26948
 $$$778E       2 00003C7E 00000001     H   26957 26947  26949  26951
 $$$778F       2 00003C9A 00000001     H   26993 26953B 26966B
 $$$78E        2 0000016C 00000001     H    7644  7638
 $$$78F        2 00000170 00000001     H    7650  7640B
 $$$780E       2 00003C9E 00000001     H   27009 27003
 $$$780F       2 00003CBA 00000001     H   27045 27005B 27018B
 $$$782F       2 00003CE6 00000001     H   27115 27058B 27069B
 $$$784F       2 00003CE6 00000001     H   27111 27084B
 $$$785F       2 00003D02 00000001     H   27170 27128B
 $$$786E       2 00003D06 00000001     H   27185 27179
 $$$786F       2 00003D0E 00000001     H   27204 27181B 27194B
 $$$788        1 000001A0 00000001 A   U   27227 27224  27226
 $$$79F        2 00000178 00000001     H    7676  7664B
 $$$790B       1 00003D36 00000001     X   27283 27290U
 $$$791F       2 00003D82 00000001     H   27406 27327B
1EVAL     (EVAL9204) (12:43) (15MAR04) Ordinary Symbol and Literal Cross Reference                                          Page  174
 $$$792B       4 00003D4C 00000001     I   27341 27357
 $$$792F       2 00003D56 00000001     H   27353 27341B 27356
 $$$793B       4 00003D60 00000001     I   27371 27386
 $$$793E       2 00003D5A 00000001     H   27364 27358
 $$$793F       2 00003D6A 00000001     H   27383 27360B 27371B 27385
 $$$795E       2 00003D6E 00000001     H   27393 27387
 $$$795F       2 00003D82 00000001     H   27402 27389B
 $$$796        1 000001A0 00000001 A   U   27429 27426  27428
 $$$798B       1 00003DAA 00000001     X   27485 27492U
 $$$799F       2 00003DF6 00000001     H   27608 27529B
 $$$80         1 000001A0 00000001 A   U    7702  7699   7701
 $$$800B       4 00003DC0 00000001     I   27543 27559
 $$$800F       2 00003DCA 00000001     H   27555 27543B 27558
 $$$801B       4 00003DD4 00000001     I   27573 27588
 $$$801E       2 00003DCE 00000001     H   27566 27560
 $$$801F       2 00003DDE 00000001     H   27585 27562B 27573B 27587
 $$$803E       2 00003DE2 00000001     H   27595 27589
 $$$803F       2 00003DF6 00000001     H   27604 27591B
 $$$804        1 000001A0 00000001 A   U   27631 27628  27630
 $$$806B       1 00003E36 00000001     X   27687 27694U
 $$$807        1 000001A0 00000001 A   U   27753 27750  27752
 $$$809B       1 00003E7E 00000001     X   27805 27812U
 $$$810        1 000001A0 00000001 A   U   27872 27869  27871
 $$$812B       1 00003EC6 00000001     X   27946 27953U
 $$$813F       2 00003ECE 00000001     H   27993 27980B
 $$$814F       2 00003EDA 00000001     H   28016 28006B
 $$$815F       2 00003F70 00000001     H   28258 28026B
 $$$816B       4 00003EE8 00000001     I   28042 28094
 $$$816F       2 00003F02 00000001     H   28091 28042B 28093
 $$$817F       2 00003EFE 00000001     H   28086 28062B
 $$$818        6 00004348 00000001     I   28076 28068X
 $$$819        6 00004348 00000001     I   28075 28076  28076
 $$$82B        1 000001A4 00000001     X    7771  7778U
 $$$820E       2 00003F06 00000001     H   28101 28095
 $$$820F       2 00003F14 00000001     H   28145 28097B
 $$$821F       2 00003F14 00000001     H   28141 28117B
 $$$822        6 0000434E 00000001     I   28131 28123X
 $$$823        6 0000434E 00000001     I   28130 28131  28131
 $$$824        6 00004354 00000001     I   28161 28153X
 $$$825        6 00004354 00000001     I   28160 28161  28161
 $$$826F       2 00003F2C 00000001     H   28183 28174B
 $$$827F       2 00003F5A 00000001     H   28245 28190B
 $$$828        6 0000435A 00000001     I   28204 28196X
 $$$829        6 0000435A 00000001     I   28203 28204  28204
 $$$83         1 00000050 00000001 A   U    7832  7829   7831
 $$$830F       2 00003F58 00000001     H   28237 28224B
 $$$830S       2 00003F3C 00000001     H   28218 28236B
 $$$832        1 00000260 00000001 A   U   28283 28280  28282
 $$$834B       1 0000419C 00000001     X   28368 28375U
 $$$835F       2 000041A4 00000001     H   28415 28402B
 $$$836F       2 000041B0 00000001     H   28438 28428B
 $$$837F       2 00004202 00000001     H   28497 28448B
 $$$838F       2 000041EC 00000001     H   28484 28469B
 $$$838S       2 000041C4 00000001     H   28463 28483B
 $$$840        1 00000250 00000001 A   U   28526 28523  28525
 $$$842B       1 0000437A 00000001     X   28647 28654U
 $$$843F       2 00004386 00000001     H   28703 28673B
 $$$844        1 00000050 00000001 A   U   28721 28718  28720
 $$$846B       1 000043AE 00000001     X   28749 28756U
1EVAL     (EVAL9204) (12:43) (15MAR04) Ordinary Symbol and Literal Cross Reference                                          Page  175
 $$$847        1 00000050 00000001 A   U   28805 28802  28804
 $$$849B       1 000043DA 00000001     X   28834 28841U
 $$$85B        1 00000200 00000001     X    7906  7913U
 $$$850        1 00000050 00000001 A   U   28890 28887  28889
 $$$852B       1 00004406 00000001     X   28919 28926U
 $$$853F       2 0000441E 00000001     H   28997 28945B
 $$$854F       2 0000441E 00000001     H   28986 28970B
 $$$855        1 00000050 00000001 A   U   29015 29012  29014
 $$$857B       1 00004446 00000001     X   29045 29052U
 $$$858F       2 0000445C 00000001     H   29115 29071B
 $$$859F       2 0000445C 00000001     H   29104 29095B
 $$$86F        2 00000238 00000001     H    7992  7965B
 $$$860        1 00000050 00000001 A   U   29133 29130  29132
 $$$862B       1 00004484 00000001     X   29162 29169U
 $$$863F       2 000044DC 00000001     H   29375 29188B
 $$$864F       2 00004498 00000001     H   29225 29215B
 $$$865B       4 000044BC 00000001     I   29298 29345
 $$$865F       2 000044D4 00000001     H   29334 29241B 29255B 29269B 29283B 29298B 29336
 $$$866B       4 0000449C 00000001     I   29241 29337
 $$$867B       4 000044A4 00000001     I   29255 29339
 $$$868B       4 000044AC 00000001     I   29269 29341
 $$$869B       4 000044B4 00000001     I   29283 29343
 $$$87S        2 0000023E 00000001     H    8000  8303B
 $$$870F       2 000044CA 00000001     H   29323 29313B
 $$$871E       2 000044D8 00000001     H   29352 29338  29340  29342  29344  29346
 $$$871F       2 000044DC 00000001     H   29364 29348B
 $$$872        1 00000050 00000001 A   U   29393 29390  29392
 $$$874B       1 00004504 00000001     X   29423 29430U
 $$$875F       2 00004526 00000001     H   29536 29449B
 $$$876B       4 00004516 00000001     I   29487 29507
 $$$876F       2 0000451E 00000001     H   29502 29476B 29487B 29504
 $$$877B       4 00004510 00000001     I   29476 29505
 $$$878E       2 00004522 00000001     H   29514 29506  29508
 $$$878F       2 00004526 00000001     H   29525 29510B
 $$$879        1 00000050 00000001 A   U   29554 29551  29553
 $$$88B        4 0000024E 00000001     I    8020  8037
 $$$88F        2 0000025C 00000001     H    8034  8020B  8036
 $$$881B       1 0000454E 00000001     X   29589 29596U
 $$$882        1 00000050 00000001 A   U   29641 29638  29640
 $$$884B       1 0000458C 00000001     X   29676 29683U
 $$$885        1 00000050 00000001 A   U   29728 29725  29727
 $$$887B       1 000045CA 00000001     X   29767 29774U
 $$$888        1 00000050 00000001 A   U   29851 29848  29850
 $$$89E        2 00000260 00000001     H    8044  8038
 $$$89F        2 0000026A 00000001     H    8055  8040B
 $$$890B       1 00004624 00000001     X   29893 29900U
 $$$891        1 00000050 00000001 A   U   29945 29942  29944
 $$$893B       1 00004662 00000001     X   29984 29991U
 $$$894        1 00000050 00000001 A   U   30068 30065  30067
 $$$896B       1 000046BC 00000001     X   30116 30123U
 $$$897        1 00000050 00000001 A   U   30191 30188  30190
 $$$899B       1 00004712 00000001     X   30232 30239U
 $$$90B        4 0000027A 00000001     I    8070  8135
 $$$90F        2 000002C4 00000001     H    8130  8070B  8134
 $$$900        1 00000050 00000001 A   U   30307 30304  30306
 $$$902B       1 00004768 00000001     X   30349 30356U
 $$$903F       2 00004788 00000001     H   30426 30379B 30394B
 $$$905        1 00000050 00000001 A   U   30526 30523  30525
 $$$907B       1 000047FE 00000001     X   30567 30574U
1EVAL     (EVAL9204) (12:43) (15MAR04) Ordinary Symbol and Literal Cross Reference                                          Page  176
 $$$908F       2 0000481E 00000001     H   30644 30597B 30612B
 $$$91F        2 000002BE 00000001     H    8124  8097B
 $$$910        1 00000050 00000001 A   U   30746 30743  30745
 $$$912B       1 00004892 00000001     X   30786 30793U
 $$$913        1 00000050 00000001 A   U   30841 30838  30840
 $$$915B       1 000048D2 00000001     X   30881 30888U
 $$$916        1 00000050 00000001 A   U   30936 30933  30935
 $$$92B        4 000002CC 00000001     I    8151  8204
 $$$92E        2 000002C8 00000001     H    8142  8136
 $$$92F        2 000002FC 00000001     H    8199  8138B  8151B  8203
 $$$94F        2 000002F6 00000001     H    8193  8166B
 $$$95E        2 00000300 00000001     H    8211  8205
 $$$95F        2 00000360 00000001     H    8299  8207B  8220B
 $$$97F        2 00000348 00000001     H    8282  8255B
 $$$98B        4 0000036E 00000001     I    8320  8333
 $$$98F        2 00000376 00000001     H    8329  8320B  8332
 $$$99E        2 0000037A 00000001     H    8340  8334
 $$$99F        2 00000386 00000001     H    8358  8336B  8349B
 @RAR          0 00000000 FFFFFFF0     @    1124  2162   2170B
 @R0           0 00000000 FFFFFFFE     @     706   982U
 @R1           0 00000000 FFFFFFFD     @     719   978U  2168   2169  16053  16265  16880  17194  17207  17544  17584
                                                 17612  17826  17866  17894  18913  20189  22171  22184  22254  22312
                                                 23028  23390  23430  23469  23509  23548  23680  23724  23761  23930
                                                 23955  23995  24042  24292  24329  24374  24411  24477  24500  24537
                                                 24573  24802  24828  24874  24887  24935  24956  25014  25648  26592
                                                 26605  26662  26675  26743  26756  26810  26823  26880  26893  28075
                                                 28130  29475
 @R10          0 00000000 FFFFFFF4     @     836   942U
 @R11          0 00000000 FFFFFFF3     @     849   938U
 @R12          0 00000000 FFFFFFF2     @     862   934U
 @R13          0 00000000 FFFFFFF1     @     875   930U 22782
 @R14          0 00000000 FFFFFFF0     @     888   926U  8676   8744   8812  18173M 18178M 18287M 18292M 18405M 18410M
                                                 18631M 18636M 18800M 18805M 18950M 18955M 19197M 19202M 19313M 19318M
                                                 19429M 19434M 19545M 19550M 19661M 19666M 19777M 19782M 19893M 19898M
                                                 20009M 20014M 23205
 @R15          0 00000000 FFFFFFEF     @     901   922U
 @R2           0 00000000 FFFFFFFC     @     732   974U  9032U  9188U  9343U  9574U  9784U 10047U 10546U 11043U 11245U
                                                 11447U 11689U 11931U 12173U 12415U 12562U 12709U 12916U 13097U 13262U
                                                 13448U 16294  16320  16346  16372  16398  17557  17839  22033U 25892U
                                                 26278U 27235U 27437U 27639U 27761U 27880U 28786U 28992U 29110U 29370U
 @R3           0 00000000 FFFFFFFB     @     745   970U 25688
 @R4           0 00000000 FFFFFFFA     @     758   966U 22274  22332
 @R5           0 00000000 FFFFFFF9     @     771   962U
 @R6           0 00000000 FFFFFFF8     @     784   958U  7506U  7710U  8881U 14788U 15197U 15862U 15886U 15931U 16626U
                                                 17086U 17442U 17724U 18006U 18209U 18327U 18445U 18722U 18840U 19016U
                                                 19117U 19233U 19349U 19465U 19581U 19697U 19813U 19929U 20045U 20383U
                                                 20485U 20587U 20689U 21304U 21499U 21722U 22864U 23059U 23265U 24146U
                                                 25106U 25339U 26711U 26936U 27165U 28698U 28871U 29531U 29859U 30076U
 @R7           0 00000000 FFFFFFF7     @     797   954U  7197U  7487U  7691U  7821U  8372U  8862U  9013U  9169U  9324U
                                                  9555U  9765U 10028U 10209U 10527U 10788U 11024U 11226U 11428U 11670U
                                                 11912U 12154U 12396U 12543U 12690U 12897U 13078U 13243U 13429U 13659U
                                                 13805U 13951U 14769U 15085U 15178U 15326U 15912U 16607U 17067U 17423U
                                                 17705U 17987U 18190U 18308U 18426U 18703U 18821U 18997U 19098U 19214U
                                                 19330U 19446U 19562U 19678U 19794U 19910U 20026U 20364U 20466U 20568U
                                                 20670U 21285U 21480U 21703U 22014U 22845U 23040U 23246U 23581U 24127U
                                                 25087U 25320U 25873U 26259U 27216U 27418U 27620U 27742U 27861U 28272U
                                                 28515U 28710U 28794U 28879U 29004U 29122U 29382U 29543U 29630U 29717U
                                                 29840U 29934U 30057U 30180U 30296U 30515U 30735U 30830U 30925U
 @R8           0 00000000 FFFFFFF6     @     810   950U  7482U  7686U  8367U  9550U  9760U 10023U 10204U 10522U 10783U
1EVAL     (EVAL9204) (12:43) (15MAR04) Ordinary Symbol and Literal Cross Reference                                          Page  177
                                                 15907U 17062U 17418U 21698U 22840U 25082U 25868U 26254U 27211U 27413U
                                                 27615U 27737U 27856U 28267U 28510U
 @R9           0 00000000 FFFFFFF5     @     823   946U
 ABSCENT       1 00000000 00000000 A   T    2178  2178
 ADDLVL        1 0000000C 00000001 A   U    8412 18288
 ALPHA         1 00000008 00000001 A   U   14823 18070
 ANDLVL        1 00000018 00000001 A   U    8421 20010
 ARGERROR      2 0000474E 00000001     H   30330 25366
 ARGLIMIT      1 00000008 00000001 A   U   23615 25364
 ARGSDONE      2 0000342C 00000001     H   24118 23701B 23785B 23846B 23869B 23892B 23915B 23940B 23964B 24027B 24106B
 ASCTBL        1 00000000 00000000 A   T    2186  2186
 BADBOP        2 000011A4 00000001     H   13840 20701
 BADEXCPN      2 00002F72 00000001     H   22717 22372B 22391B 22414B 22536B 22589B 22634B 22687B
 BADLVL        1 00000004 00000001 A   U    8406 18174  18627  18796  18946  19193  19309  19425  19541  19657  19773
                                                 19889  20005
 BADNAME       2 00001C6C 00000001     H   16593 16082B 16172B 16429B 16456B 16516B 16535B
 BADQUOTE      2 0000460A 00000001     H   29874 18084
 BADSUB        2 000047E4 00000001     H   30548 25374  30957
 BADUOP        2 0000113E 00000001     H   13694 20713
 BIGSUB        2 000048B8 00000001     H   30862 25373
 BLTBL         1 00000000 00000000 A   T    2188  2188
 BR            7 00000007 00000001 A   #    1014  7139M  7278M  7549M  7766M  7901M  8469M  8957M  9077M  9233M  9411M
                                                  9621M  9831M 10110M 10268M 10611M 10845M 11087M 11289M 11491M 11733M
                                                 11975M 12217M 12460M 12607M 12751M 12944M 13125M 13290M 13486M 13708M
                                                 13854M 14079M 14994M 15130M 15229M 15419M 15979M 16689M 17129M 17473M
                                                 17755M 18126M 18240M 18358M 18487M 18753M 18871M 19048M 19150M 19266M
                                                 19382M 19498M 19614M 19730M 19846M 19962M 20090M 20418M 20520M 20622M
                                                 20799M 21432M 21560M 21761M 22104M 22968M 23096M 23301M 23636M 24215M
                                                 25146M 25449M 25931M 26317M 27278M 27480M 27682M 27800M 27941M 28363M
                                                 28642M 28744M 28829M 28914M 29040M 29157M 29418M 29584M 29671M 29762M
                                                 29888M 29979M 30111M 30227M 30344M 30562M 30781M 30876M
 CATLVL        1 00000010 00000001 A   U    8414 18951
 CHECKEND      1 00000000 00000008     T   20744 20744  25367
 CHECKIOB      1 00000000 00000000 A   T    2234  2234
 COMMAND       1 00000000 00000000 A   T    2174  2174
 COMMSEG       1 00000000 00000000 A   T    2175  2175
 CP         4096 00000000 FFFFFFEC     J    6188  1163U
 CP#XSTK       1 00000010 FFFFFFEC A   U    3920  3921
 CPACFLG       1 000005D5 FFFFFFEC     R    4023  4027   4032   4037   4042   4047
 CPACFLN       4 000005C4 FFFFFFEC     F    4015  4050   4050
 CPACLNO       4 000005A8 FFFFFFEC     F    3977 18683
 CPAFLAG       1 000005C3 FFFFFFEC     R    3987  3991   3996   4001   4006
 CPANAME       8 00000588 FFFFFFEC     C    3969  4065   4065
 CPAUTFLG      1 000008A9 FFFFFFEC     R    4333  4337   4342   4347   4352
 CPCHFLAG      1 00000B68 FFFFFFEC     R    4960  4964
 CPDFLG        1 0000084C FFFFFFEC     R    4220  4224   4229   4234   4239   4244
 CPDFLG2       1 0000084D FFFFFFEC     R    4249  4253   4258   4263   4268   4273   4278
 CPEXFLG       1 00000758 FFFFFFEC     R    4089  4093
 CPEXFLG2      1 00000759 FFFFFFEC     R    4099  4108   4118
 CPEXFLG3      1 0000075A FFFFFFEC     R    4125  4129   4134
 CPEXTFLG      1 00000E28 FFFFFFEC     R    5771  5775   5780   5785   5790   5795   5800
 CPFABORT    128 00000D5A FFFFFFEC         5537  2138M  2138   2143M  2143
 CPFERROR     64 00000D5A FFFFFFEC         5542  2137M  2137   2142M  2142
 CPFNTEX       1 00000040 FFFFFFEC A   U    5389  5390
 CPFRDRNG      1 00000D88 FFFFFFEC     R    5657  5661   5666   5671   5676   5681   5686   5691
 CPFRDSRC      1 00000D89 FFFFFFEC     R    5696  5705   5715   5725
 CPFUNUM       1 00000080 FFFFFFEC A   U    5388  5390
 CPFXDFLG      1 000007E4 FFFFFFEC     R    4167  4171   4176
 CPFXOLD       2 00000759 FFFFFFEC         4118 23982  28672  28944  29070  29187  29448
1EVAL     (EVAL9204) (12:43) (15MAR04) Ordinary Symbol and Literal Cross Reference                                          Page  178
 CPGFLG1       1 00000474 FFFFFFEC     R    3530  3534   3539   3544   3549   3554   3884   3884
 CPGFLG10      1 0000047D FFFFFFEC     R    3767  3771   3776   3781   3786   3791   3796
 CPGFLG11      1 0000047E FFFFFFEC     R    3802  3806   3811
 CPGFLG12      1 0000047F FFFFFFEC     R    3817  3821   3826   3831
 CPGFLG13      1 00000480 FFFFFFEC     R    3837  3841
 CPGFLG14      1 00000481 FFFFFFEC     R    3847  3851   3856   3861   3866   3871
 CPGFLG4       1 00000477 FFFFFFEC     R    3583  3594   3603   3612   3621   3630
 CPGFLG5       1 00000478 FFFFFFEC     R    3636  3640   3645   3650   3655   3660   3665   3670   3675
 CPGFLG6       1 00000479 FFFFFFEC     R    3681  3685   3690   3695
 CPGFLG7       1 0000047A FFFFFFEC     R    3701  3705   3710   3715   3720
 CPGFLG8       1 0000047B FFFFFFEC     R    3726  3730   3735   3740   3745
 CPGFLG9       1 0000047C FFFFFFEC     R    3751  3755   3761
 CPINIT        1 00000174 FFFFFFEC     U    2700  6157
 CPJESFLG      1 000009E1 FFFFFFEC     R    4432  4436   4441   4446   4451   4456   4461   4466   4471
 CPJESFLY      1 000009FD FFFFFFEC     R    4482  4486   4491   4496
 CPJESHFL      1 000009E0 FFFFFFEC     R    4417  4421   4426   4505   4505
 CPLFLG10      1 00000D59 FFFFFFEC     R    5523  5527
 CPLFLG11      1 00000D5A FFFFFFEC     R    5533  5537   5542   5547   5552
 CPLFLG12      1 00000D5B FFFFFFEC     R    5558  5562
 CPLFLG14      1 00000D5C FFFFFFEC     R    5568  5572   5577   5582   5587   5592
 CPLFLG6       1 00000D55 FFFFFFEC     R    5398  5402   5407   5412   5417   5422   5427
 CPLFLG7       1 00000D56 FFFFFFEC     R    5433  5437   5442   5447   5452   5457
 CPLFLG8       1 00000D57 FFFFFFEC     R    5463  5467   5472   5477   5482
 CPLFLG9       1 00000D58 FFFFFFEC     R    5488  5492   5497   5502   5507   5512   5517
 CPLOCALZ      1 00000C48 FFFFFFEC     U    4990  6151   6151
 CPMFLG        1 0000084F FFFFFFEC     R    4287  4291
 CPMODFLG      1 00000C78 FFFFFFEC     R    5018  5022   5027   5032   5037   5042
 CPNAMELN      1 00000010 FFFFFFEC A   U    3913  4160
 CPNEDPFX     10 00000E29 FFFFFFEC     X    5804  5805   5806
 CPNSCANP      4 0000008C FFFFFFEC     A    2573 22720  22739  22748  22755  22770  22779
 CPNUMFLG      1 00000C79 FFFFFFEC     R    5048  5060
 CPORVCMD      1 00000140 FFFFFFEC     R    2582  2586   2591   2596   2601   2606   2611   2616   2621   2626   2626
                                                  2677   2677
 CPORVFLG      1 00000149 FFFFFFEC     R    2633  2637   2642   2647   2652   2657   2662   2667   2672
 CPORVWF       1 00000150 FFFFFFEC     R    2685  2689
 CPOSCANX      4 00000CA8 FFFFFFEC     F    5217  5284   5284
 CPR          11 0000000B 00000001 A   #    1078  1163U
 CPRACBAD     16 000001FC FFFFFFEC         2751  2785   2785   2786   2786
 CPRACF1       1 000001FC FFFFFFEC     R    2732  2736   2741   2746   2751   2756   2761   2766   2771   2787
 CPRACPSW     32 000001FC FFFFFFEC         2746  2784   2784   2786   2786
 CPRACUND     64 000001FC FFFFFFEC         2741  2784   2784   2785   2785
 CPRCVCUR      4 00000730 FFFFFFEC     A    4068  4070   4070
 CPRFLG        1 000008AA FFFFFFEC     R    4358  4362   4367   4372   4377   4382   4387
 CPS         254 00000344 FFFFFFEC     X    3502  3505   3506   3508   3508
 CPSACCT       5 000003B4 FFFFFFEC     C    3101  3264   3264
 CPSAMCOD      1 00000A22 FFFFFFEC     R    4554  4562   4572   4582   4591   4600   4609   4619   4628   4637
 CPSAMFLG      1 00000A21 FFFFFFEC     R    4514  4518   4523   4528   4533   4538   4543   4548   4659   4659
 CPSCNFLG      1 00000CD0 FFFFFFEC     R    5230  5241   5250   5261
 CPSCNF2       1 00000CD1 FFFFFFEC     R    5266  5270
 CPSCNMAX      1 00000014 FFFFFFEC A   U    5282  5283
 CPSCRI        2 00000434 FFFFFFEC     H    3491  3496   3496
 CPSEG        60 00000050 FFFFFFEC     X    2571  7983   8115   8184   8273   8610  10354  11650  11892  12134  12376
                                                 13642  13744  13749  13775  13793  13890  13895  13921  13939  15266
                                                 15296  15314  15509  15527  15741  18585  20235  20271  20341  22802
                                                 22820  23155  24018  24083  24445  24778  24848  24910  25038  25204
                                                 26030  26204  26424  26984  27036  27102  29618  29705  29805  29828
                                                 29922  30022  30045  30145  30168  30261  30284  30418  30440  30462
                                                 30480  30503  30636  30658  30680  30698  30720  30815  30910
 CPSEGCOD      1 00000050 FFFFFFEC     R    2488  2497   2507   2517   2527   2537   2547   2557
1EVAL     (EVAL9204) (12:43) (15MAR04) Ordinary Symbol and Literal Cross Reference                                          Page  179
 CPSEGLENF
               4 0000005C FFFFFFEC     A    2563 30378M 30378  30393  30596M 30596  30611
 CPSEGMRKF
               4 00000058 FFFFFFEC     A    2562 30393  30611
 CPSFL         1 00000384 FFFFFFEC     R    2839  2843   2848   2853   2858   2863
 CPSFLG        1 000003F8 FFFFFFEC     R    3379  3383   3388   3393   3398   3403   3408   3413   3418
 CPSFLG2       1 000003F9 FFFFFFEC     R    3424  3428   3433   3438
 CPSFL2        1 00000385 FFFFFFEC     R    2869  2873   2878   2883   2888
 CPSFL3        1 00000386 FFFFFFEC     R    2894  2898   2903   2908
 CPSFL4        1 00000387 FFFFFFEC     R    2914  2918   2923   2928
 CPSFL5        1 00000388 FFFFFFEC     R    2934  2938   2943   2948
 CPSKAFL       1 000003BF FFFFFFEC     R    3235  3239   3244   3249   3254   3259
 CPSKIFL       1 000003BE FFFFFFEC     R    3190  3194   3199   3204   3209   3214   3219   3224   3229
 CPSLIMIT      1 00000003 FFFFFFEC A   U    4214 24192
 CPSOF         1 000001F8 FFFFFFEC     X    2722  2724   2724
 CPSOFLAG      1 00000416 FFFFFFEC     R    3449  3453   3458   3463   3468   3473
 CPSOPST       4 000003C4 FFFFFFEC     F    3269  3498   3498
 CPSPORT       8 00000354 FFFFFFEC     C    2833  2953   2953
 CPSQFLG       1 000003EC FFFFFFEC     R    3298  3302
 CPSSFLG       1 000003BB FFFFFFEC     R    3108  3112   3117   3122   3127   3132   3137
 CPSSTART      4 00000344 FFFFFFEC     F    2825  2829   2829   3265   3265   3370   3370   3502   3502
 CPSSTAT       1 0000038F FFFFFFEC     R    3045  3049   3054   3059   3064   3069   3074   3079
 CPSTACF       1 000003BC FFFFFFEC     R    3143  3147   3152   3157   3162   3167   3172   3177   3182
 CPSTART       4 00000000 FFFFFFEC     C    2461  6155   6159
 CPSTFLAG      1 000003EA FFFFFFEC     R    3276  3280   3285   3290
 CPSTYPE       1 0000038C FFFFFFEC     R    2958  2967   2977   2987   2997   3007   3017   3027   3037
 CPSUFLG       1 000003EE FFFFFFEC     R    3313  3317   3322   3327   3332   3337   3342   3347   3352
 CPSUFLG2      1 000003EF FFFFFFEC     R    3358  3362   3367
 CPSVPGM       8 0000039C FFFFFFEC     C    3091  3097   3097
 CPS1ST        4 0000038C FFFFFFEC     F    2955  3500   3500
 CPTEMPP#      1 0000005F FFFFFFEC A   U    4408  4410
 CPTRMFL1      1 00000C7A FFFFFFEC     R    5066  5070   5075   5080   5204   5204
 CPTRMFL2      1 00000C7B FFFFFFEC     R    5086  5090   5095   5100   5105   5110   5115
 CPTRMFL3      1 00000C7C FFFFFFEC     R    5121  5125   5130   5135   5140   5145   5150   5155
 CPTRMFL4      1 00000C7D FFFFFFEC     R    5161  5165   5170   5175   5180   5185   5190   5195
 CPUSED        1 00000FBC FFFFFFEC A   U    6155  6156
 CPVACURS      8 00000AF0 FFFFFFEC     D    4933  4934   4935
 CPVCURS       8 00000AE0 FFFFFFEC     D    4927  4928   4929
 CPVFLAG       1 00000AC8 FFFFFFEC     R    4728  4732   4737   4742   4747   4752
 CPVFLAG2      1 00000AC9 FFFFFFEC     R    4758  4762   4767   4772   4777   4782   4787
 CPVFLAG3      1 00000ACA FFFFFFEC     R    4793  4797   4802   4807   4812   4817   4822
 CPVFLAG4      1 00000ACB FFFFFFEC     R    4828  4832   4837   4842
 CPVLFLAG      1 00000ACE FFFFFFEC     R    4897  4901   4906   4911
 CPVMODE       1 00000ACC FFFFFFEC     R    4850  4854   4859   4864   4869   4874   4879   4884   4889
 CPVTWID       2 00000AD0 FFFFFFEC     H    4917  4920   4920
 CPWK1         4 00000D60 FFFFFFEC     F    5601  5616   5639
 CPWK2         4 00000D64 FFFFFFEC     F    5602  5617   5631
 CPWK3         4 00000D68 FFFFFFEC     F    5603  5618   5632
 CPWK4         4 00000D6C FFFFFFEC     F    5604  5619   5633
 CPWK5         4 00000D70 FFFFFFEC     F    5605  5621   5626   5634
 CPWK6         4 00000D74 FFFFFFEC     F    5606  5622   5627   5635   5642   5644
 CPWK7         4 00000D78 FFFFFFEC     F    5607  5620   5636
 CPXFLAG       1 000007FD FFFFFFEC     R    4195  4199
 CPXSTATE      4 000007F8 FFFFFFEC     F    4189  4202   4202
 CV         4016 00000000 FFFFFFEE     J    2364  1172U
 CVABSRTN      4 0000088C FFFFFFEE     V    2178  2153
 CVBLANKS    235 000004D8 FFFFFFEE     C    1958 16017  16541
 CVBRMSK       1 00000751 FFFFFFEE     X    2094  2095   2096
 CVCFLAG       1 00000A00 FFFFFFEE     R    2259  2263   2268   2273   2278   2283
1EVAL     (EVAL9204) (12:43) (15MAR04) Ordinary Symbol and Literal Cross Reference                                          Page  180
 CVCHKST       8 000009F0 FFFFFFEE     D    2249  2339   2339
 CVCHKST2      8 00000E28 FFFFFFEE     D    2342  2345   2345
 CVCOMRTN      4 0000087C FFFFFFEE     V    2174  2144
 CVDBGFLG      1 000004CC FFFFFFEE     R    1948  1952
 CVENT         4 0000074C FFFFFFEE     I    2092  7139B  7278B  7549B  7766B  7901B  8469B  8957B  9077B  9233B  9411B
                                                  9621B  9831B 10110B 10268B 10611B 10845B 11087B 11289B 11491B 11733B
                                                 11975B 12217B 12460B 12607B 12751B 12944B 13125B 13290B 13486B 13708B
                                                 13854B 14079B 14994B 15130B 15229B 15419B 15979B 16689B 17129B 17473B
                                                 17755B 18126B 18240B 18358B 18487B 18753B 18871B 19048B 19150B 19266B
                                                 19382B 19498B 19614B 19730B 19846B 19962B 20090B 20418B 20520B 20622B
                                                 20799B 21432B 21560B 21761B 22104B 22968B 23096B 23301B 23636B 24215B
                                                 25146B 25449B 25931B 26317B 27278B 27480B 27682B 27800B 27941B 28363B
                                                 28642B 28744B 28829B 28914B 29040B 29157B 29418B 29584B 29671B 29762B
                                                 29888B 29979B 30111B 30227B 30344B 30562B 30781B 30876B
 CVENTBR       2 00000750 FFFFFFEE     I    2093  2094
 CVERROR       4 000007D6 FFFFFFEE     I    2142  2158B
 CVEXIRTN      4 0000077C FFFFFFEE     V    2122  2118
 CVFCHRKBPR
               8 000004C9 FFFFFFEE         1863  1879   1879
 CVFCHRKBSE
               4 000004C9 FFFFFFEE         1868  1879   1879
 CVFCHRKCPR
               2 000004C9 FFFFFFEE         1885  1901   1901
 CVFCHRKCSE
               1 000004C9 FFFFFFEE         1890  1901   1901
 CVFCHRUBPR
             128 000004C9 FFFFFFEE         1819  1835   1835
 CVFCHRUBSE
              64 000004C9 FFFFFFEE         1824  1835   1835
 CVFCHRUCPR
              32 000004C9 FFFFFFEE         1841  1857   1857
 CVFCHRUCSE
              16 000004C9 FFFFFFEE         1846  1857   1857
 CVFL          1 000004C4 FFFFFFEE     R    1615  1619   1624   1629   1634   1639   1644   1649   1654
 CVFL2         1 000004C5 FFFFFFEE     R    1660  1664   1669   1674   1679   1684   1689   1694   1699
 CVFL3         1 000004C6 FFFFFFEE     R    1705  1709   1714   1719   1724   1729   1734   1739   1744
 CVFL4         1 000004C7 FFFFFFEE     R    1750  1754   1759   1764   1769   1774   1779   1784
 CVFL5         1 000004C8 FFFFFFEE     R    1790  1794   1799   1804   1809
 CVFL6         1 000004C9 FFFFFFEE     R    1815  1819   1824   1836   1841   1846   1858   1863   1868   1880   1885
                                                  1890   1902
 CVHEAP#       1 00000200 FFFFFFEE A   U    1521  1522
 CVINVRTN      4 00000888 FFFFFFEE     V    2177  2147
 CVJESFLG      1 000004CA FFFFFFEE     R    1908  1912
 CVLNKRGS      4 00000780 FFFFFFEE     F    2124  2099M  2125
 CVLNKRTN      4 000007B0 FFFFFFEE     U    2125  2114M
 CVLOCK1       1 00000088 FFFFFFEE     R    1266  1270   1275
 CVLOCK2       1 00000089 FFFFFFEE     R    1280  1284
 CVLOCK3       1 0000008A FFFFFFEE     R    1289  1293
 CVLOCK4       1 0000008B FFFFFFEE     R    1298  1302
 CVLOGMOD      1 00000068 FFFFFFEE     R    1253  1257
 CVMACH        1 00000067 FFFFFFEE     R    1213  1217   1222   1227   1232   1237   1242   1247
 CVMILRTN      4 00000884 FFFFFFEE     V    2176  2156
 CVNOARTN      4 00000890 FFFFFFEE     V    2179  2150
 CVNWDATE      4 00000608 FFFFFFEE     F    1981  1985   1985
 CVNWMPG#      1 00000008 FFFFFFEE A   U    1983  1984
 CVPFXRTN      1 00000000 00000000 A   T    2122  2122
 CVPGFLAG      1 00000A01 FFFFFFEE     R    2289  2293   2298   2303
 CVPIOSZ       1 00004F80 FFFFFFEE A   U    1352  1354
 CVPPDBQH      4 0000009C FFFFFFEE     A    1310  1311
1EVAL     (EVAL9204) (12:43) (15MAR04) Ordinary Symbol and Literal Cross Reference                                          Page  181
 CVPSFNO       1 000003E9 FFFFFFEE A   N    1474  1476
 CVPSLNO       1 000007CF FFFFFFEE A   N    1475  1476
 CVPXSZ        1 00000008 FFFFFFEE A   U    1353  1354
 CVR          12 0000000C 00000001 A   #    1091  1172U
 CVRKEY        1 00000008 FFFFFFEE A   U    2047  2048
 CVSEGRTN      4 00000880 FFFFFFEE     V    2175  2139
 CVSTACK#      1 00000080 FFFFFFEE A   U    1513  1514
 CVSTART       4 00000000 FFFFFFEE     C    1186  2357
 CVTRC         4 00000768 FFFFFFEE     I    2114  2100B
 CVTRCRTN      4 00000778 FFFFFFEE     V    2121  2115
 CVUPPTBL      4 000008A8 FFFFFFEE     V    2184 16170  16217  16561  26084  26139
 CVUSFNO       1 00000001 FFFFFFEE A   N    1481  1483
 CVUSLNO       1 000003E7 FFFFFFEE A   N    1482  1483
 CVVOL#        1 00000005 FFFFFFEE A   U    2332  2333
 CVWTOFLG      1 000004CB FFFFFFEE     R    1918  1922   1927   1932   1937   1942
 DEBUGSG       1 00000000 00000000 A   T    2075  2075
 DEV          12 00000000 FFFFFFEB     J    4713  4721
 DEVMAX#       1 00000002 FFFFFFEC A   U    4664  4721
 DEVTYPE       1 00000001 FFFFFFEB     R    4681  4690   4700
 DIVLVL        1 00000008 00000001 A   U    8411 18801
 DOTTBL        1 00000000 00000000 A   T    2191  2191
 DRENCFLG      1 00000F9F FFFFFFEC     R    6119  6123   6128   6133   6138   6143
 DRENPROT      1 00000F9E FFFFFFEC     R    6106  6114
 DSNON        40 00000E90 FFFFFFEC     C    5839  5840
 DSNWADSN     44 00000E5C FFFFFFEC     C    5826  5827   5828   5829   5838   5846   6077   6083   6085   6091   6094
                                                  6096   6099   6148
 DSNWAF4       1 00000F37 FFFFFFEC     R    5894  5898   5903   5908   5913   5918   5923   5928   5933
 DSNWAF5       1 00000F38 FFFFFFEC     R    5939  5943   5948   5953   5958   5963   5968   5973   5978
 DSNWAF6       1 00000F39 FFFFFFEC     R    5984  5988   5993   5998   6003   6008   6013   6018   6023
 DSNWAF7       1 00000F3A FFFFFFEC     R    6029  6033   6038   6043   6048
 DSNXG         1 00000004 FFFFFFEC A   U    5831  5833
 DSNXGL        1 00000003 FFFFFFEC A   U    5832  5833
 DSNXU         1 00000007 FFFFFFEC A   U    5833  5835
 DSNXUL        1 00000004 FFFFFFEC A   U    5834  5835
 DSSIZ         1 00000108 FFFFFFEC A   U    6077  6085   6094   6099
 EBCTBL        1 00000000 00000000 A   T    2187  2187
 EBCTBL7       1 00000000 00000000 A   T    2190  2190
 ECBLIST       1 00000000 00000000 A   T    2050  2050
 ENDLVL        1 00000020 00000001 A   U    8423  8225
 EPARTBL       1 00000000 00000000 A   T    2182  2182
 EQLVL         1 00000014 00000001 A   U    8415 19198
 EVALDONE      2 00000364 00000001     H    8308  7994B  8056B  8126B  8195B  8230B  8284B  8289B  8295B
 EVALEXPR      2 00000022 00000001     H    7125  7121   8897
 EVALINT       2 00000126 00000001     H    7533  7529
 EVALSTR       2 00000088 00000001     H    7262  7258
 EVALWA        8 00000000 FFFFFFE4     J    7876  7898   7927U  8380   8382   8383
 EVAL9204      1 00000000 00000001     R    1137  1135
 EVLADD        2 0000062A 00000001     H    9395 20704
 EVLAND        2 00000E8C 00000001     H   12593 20740
 EVLCAT        2 00000AAC 00000001     H   10831 20721
 EVLCDONE      2 00000F4C 00000001     H   12888 12803B 12827B 12852B 12876B 12885B
 EVLCOMPR      2 00000EDC 00000001     H   12737 14007
 EVLCPBOO      2 00000FCA 00000001     H   13111 14011
 EVLCPNUM      2 00000F5E 00000001     H   12930 14010
 EVLCPSTR      2 00001030 00000001     H   13276 14012
 EVLDDONE      2 000009C4 00000001     H   10515 10316B 10323B 10360B
 EVLDIV        2 000008B4 00000001     H   10252 20718
 EVLEDONE      2 0000112C 00000001     H   13650 13568B 13615B
 EVLEND        2 000010AA 00000001     H   13472  8905
1EVAL     (EVAL9204) (12:43) (15MAR04) Ordinary Symbol and Literal Cross Reference                                          Page  182
 EVLEQ         2 00000B30 00000001     H   11073 20726
 EVLGE         2 00000DB0 00000001     H   12203 20736
 EVLGT         2 00000D24 00000001     H   11961 20734
 EVLLE         2 00000C98 00000001     H   11719 20732
 EVLLT         2 00000C0C 00000001     H   11477 20730
 EVLMULT       2 0000071A 00000001     H    9815 20714
 EVLNE         2 00000B9E 00000001     H   11275 20728
 EVLNEG        2 00000578 00000001     H    9063 20706
 EVLNOT        2 000005D2 00000001     H    9219 20700
 EVLOR         2 00000E3C 00000001     H   12446 20738
 EVLPOS        2 00000540 00000001     H    8943 20703
 EVLSDONE      2 000004A8 00000001     H    8853  8517B  8537B  8576B  8616B  8702B  8770B  8838B
 EVLSTACK      2 00000398 00000001     H    8455  8904
 EVLSUBT       2 000006A2 00000001     H    9605 20707
 EVLWA        32 00000000 FFFFFFE3     J    9386  9408   9437U  9563   9565   9566   9618   9647U  9773   9775   9776
                                                  9828   9857U 10036  10038  10039  10265  10294U 10535  10537  10538
 EVNUMB1       1 00000000 FFFFFFE3     X    9378  9470M  9492M  9501   9508   9680M  9702M  9711   9718   9890M  9922
                                                  9939   9960M  9961M  9974   9981  10317M 10375  10392  10413M 10414M
                                                 10414  10415M 10416M 10417  10430M 10431  10453M 10454M 10455M 10456M
                                                 10456  10457M 10474  10481
 EVNUMB2       1 00000010 FFFFFFE3     X    9379  9491M  9492   9701M  9702   9911M  9933   9940   9960  10328M 10386
                                                 10393  10413  10432  10455
 EVXVAR      336 00000000 FFFFFFE5     X    7245  7317   7588
 EVXWA       336 00000000 FFFFFFE5     J    7252  7275   7304U  7495   7497   7498   7546   7575U  7699   7701   7702
 EXCPDONE      2 0000301E 00000001     H   22831 22714B 22828B
 EXCPHEXL      4 00000008 FFFFFFDD     F   22071 22398M 22694
 EXCPLEN       4 00000004 FFFFFFDD     F   22070 22239M 22693  22737  22826
 EXCPLOC       4 00000000 FFFFFFDD     F   22069 22238M 22692  22732  22825
 EXCPTEMP    235 0000000C FFFFFFDD     C   22072 22401  22480  22555  22653
 EXCPWA      247 00000000 FFFFFFDD     J   22079 22101  22130U 22853  22855  22856
 EXPRLEN       4 00000000 FFFFFFE4     F    7868  7940M  8003   8057M  8309
 EXPRLOC       4 00000004 FFFFFFE4     A    7869  7941M  8004   8058M  8310
 FSR           0 00000000 00000001 A   #    1001  7134   7190M  7205M  7272   7475M  7495M  7543   7679M  7699M  7761
                                                  7814M  7829M  7895   8360M  8380M  8464   8855M  8870M  8952   9021M
                                                  9072   9177M  9228   9332M  9405   9563M  9615   9773M  9825  10036M
                                                 10104  10217M 10262  10535M 10605  10796M 10840  11032M 11082  11234M
                                                 11284  11436M 11486  11678M 11728  11920M 11970  12162M 12212  12404M
                                                 12455  12551M 12602  12698M 12746  12890M 12905M 12939  13071M 13086M
                                                 13120  13236M 13251M 13285  13422M 13437M 13481  13652M 13667M 13703
                                                 13813M 13849  13959M 14074  14762M 14777M 14989  15078M 15093M 15125
                                                 15171M 15186M 15224  15334M 15413  15900M 15920M 15974  16600M 16615M
                                                 16683  17055M 17075M 17123  17411M 17431M 17468  17698M 17713M 17750
                                                 17980M 17995M 18121  18198M 18235  18301M 18316M 18353  18419M 18434M
                                                 18482  18696M 18711M 18748  18814M 18829M 18866  18990M 19005M 19043
                                                 19091M 19106M 19145  19222M 19261  19338M 19377  19454M 19493  19570M
                                                 19609  19686M 19725  19802M 19841  19918M 19957  20034M 20085  20357M
                                                 20372M 20413  20459M 20474M 20515  20561M 20576M 20617  20663M 20678M
                                                 20794  21278M 21293M 21427  21473M 21488M 21554  21691M 21711M 21756
                                                 22022M 22098  22833M 22853M 22963  23048M 23091  23239M 23254M 23296
                                                 23573M 23589M 23631  24120M 24135M 24209  25075M 25095M 25141  25313M
                                                 25328M 25443  25881M 25925  26267M 26311  27224M 27272  27426M 27474
                                                 27628M 27676  27750M 27794  27869M 27935  28260M 28280M 28357  28503M
                                                 28523M 28637  28718M 28739  28802M 28824  28887M 28909  29012M 29035
                                                 29130M 29152  29390M 29413  29551M 29579  29638M 29666  29725M 29757
                                                 29848M 29883  29942M 29974  30065M 30106  30188M 30222  30304M 30339
                                                 30523M 30557  30743M 30776  30838M 30871  30933M
 GELVL         1 00000014 00000001 A   U    8420 19778
 GETARRAY      1 00000000 00000004     T   18061 18061
 GETSVAR       1 00000000 00000007     T   18065 18065
1EVAL     (EVAL9204) (12:43) (15MAR04) Ordinary Symbol and Literal Cross Reference                                          Page  183
 GETSYSFN      2 00003122 00000001     H   22954 18067
 GETVAR        1 00000000 00000005     T   18062 18062  25358
 GOTXSVAL      2 00001AC2 00000001     H   15845 15615B 15659B 15703B 15765B 15827B
 GTFNRTN       1 00000000 0000000A     T   25351 25351
 GTLVL         1 00000014 00000001 A   U    8419 19662
 HEXCHARS     16 00004216 00000001     C   28530 28476
 HEXMASK       8 00004226 00000001     X   28531 28475
 HIBAL         1 00000000 FFFFFFFF     J     691   707    720    733    746    759    772    785    798    811    824
                                                   837    850    863    876    889    902
 INVALID       1 00000000 00000000 A   T    2177  2177
 JCBAFL        1 00000062 FFFFFFE9     R    6425  6429   6434   6439   6444   6449   6454   6459   6464
 JCBBFL        1 00000063 FFFFFFE9     R    6470  6474   6479   6484   6489   6494   6499   6504
 JCBBILLX      8 00000088 FFFFFFE9     D    6555  6563   6563
 JCBRSCF1      1 00000064 FFFFFFE9     R    6510  6514   6519   6524
 JCBSFLG1      1 00000065 FFFFFFE9     R    6530  6534   6539
 JCBWFL        1 00000060 FFFFFFE9     R    6354  6358   6363   6368   6373   6378   6383   6388   6393   6421
 JCBWWFL       1 00000061 FFFFFFE9     R    6399  6403   6408   6413   6418
 LDACCM       16 00000050 FFFFFFE1     X   10579 10650M 10714M 10766M 10767M 10772
 LDCNT        16 00000040 FFFFFFE1     X   10578 10648M 10649M 10675M 10714  10735M
 LDDVSR       16 00000030 FFFFFFE1     X   10577 10647M 10653M 10654M 10668  10674M 10707  10713  10734M
 LDREM        16 00000020 FFFFFFE1     X   10576 10645M 10646M 10651M 10652M 10668  10707  10713M
 LDWA         96 00000000 FFFFFFE1     J   10586 10608  10637U 10796  10798  10799
 LELVL         1 00000014 00000001 A   U    8418 19546
 LEVEL1        1 00000004 00000001 A   U    8397  8406   8407   8408   8409
 LEVEL2        1 00000008 00000001 A   U    8398  8410   8411
 LEVEL3        1 0000000C 00000001 A   U    8399  8412   8413
 LEVEL4        1 00000010 00000001 A   U    8400  8414
 LEVEL5        1 00000014 00000001 A   U    8401  8415   8416   8417   8418   8419   8420
 LEVEL6        1 00000018 00000001 A   U    8402  8421   8422
 LEVEL8        1 00000020 00000001 A   U    8404  8423
 LMD1         16 00000020 FFFFFFE2     X   10074 10144M 10148M 10157  10158M 10168M 10190M 10191M 10192M 10193
 LMD2         16 00000030 FFFFFFE2     X   10075 10145M 10149M 10153M 10160  10161M 10169M 10190
 LMD3         16 00000040 FFFFFFE2     X   10076 10146M 10150M 10154M 10163  10164M 10191
 LMD4         16 00000050 FFFFFFE2     X   10077 10147M 10151M 10155M 10166  10167M 10179  10185M 10192
 LMN1         16 00000000 FFFFFFE2     X   10072 10142M 10156  10159  10162  10165
 LMN2         16 00000010 FFFFFFE2     X   10073 10143M 10144  10145  10146  10147
 LMTEMP       16 00000060 FFFFFFE2     X   10078 10156M 10157M 10158  10159M 10160M 10161  10162M 10163M 10164  10165M
                                                 10166M 10167
 LMWA        112 00000000 FFFFFFE2     J   10085 10107  10136U 10217  10219  10220
 LONGDIV       2 000009D2 00000001     H   10595 14000
 LONGMULT      2 000007BE 00000001     H   10094 13998
 LOWTBL        1 00000000 00000000 A   T    2185  2185
 LSR           8 00000008 00000001 A   #    1039  7134   7205M  7272   7495M  7543   7699M  7761   7829M  7895   8380M
                                                  8464   8870M  8952   9021M  9072   9177M  9228   9332M  9405   9563M
                                                  9615   9773M  9825  10036M 10104  10217M 10262  10535M 10605  10796M
                                                 10840  11032M 11082  11234M 11284  11436M 11486  11678M 11728  11920M
                                                 11970  12162M 12212  12404M 12455  12551M 12602  12698M 12746  12905M
                                                 12939  13086M 13120  13251M 13285  13437M 13481  13667M 13703  13813M
                                                 13849  13959M 14074  14777M 14989  15093M 15125  15186M 15224  15334M
                                                 15413  15920M 15974  16615M 16683  17075M 17123  17431M 17468  17713M
                                                 17750  17995M 18121  18198M 18235  18316M 18353  18434M 18482  18711M
                                                 18748  18829M 18866  19005M 19043  19106M 19145  19222M 19261  19338M
                                                 19377  19454M 19493  19570M 19609  19686M 19725  19802M 19841  19918M
                                                 19957  20034M 20085  20372M 20413  20474M 20515  20576M 20617  20678M
                                                 20794  21293M 21427  21488M 21554  21711M 21756  22022M 22098  22853M
                                                 22963  23048M 23091  23254M 23296  23589M 23631  24135M 24209  25095M
                                                 25141  25328M 25443  25881M 25925  26267M 26311  27224M 27272  27426M
                                                 27474  27628M 27676  27750M 27794  27869M 27935  28280M 28357  28523M
                                                 28637  28718M 28739  28802M 28824  28887M 28909  29012M 29035  29130M
1EVAL     (EVAL9204) (12:43) (15MAR04) Ordinary Symbol and Literal Cross Reference                                          Page  184
                                                 29152  29390M 29413  29551M 29579  29638M 29666  29725M 29757  29848M
                                                 29883  29942M 29974  30065M 30106  30188M 30222  30304M 30339  30523M
                                                 30557  30743M 30776  30838M 30871  30933M
 LTLVL         1 00000014 00000001 A   U    8417 19430
 MAKEBOOL      2 000039F2 00000001     H   25915 13995  25911
 MAKECHAR      2 00004182 00000001     H   28347 28343  28543
 MAKEHEX       2 00003EAC 00000001     H   27925 18082  22918  27921
 MAKEINT       2 00003D1C 00000001     H   27262  8899  25376  27258
 MAKEITOD      2 00003E1C 00000001     H   27666 22920  27662
 MAKELNO       2 00003D90 00000001     H   27464 27460
 MAKELTOD      2 00003E64 00000001     H   27784 20717  22921  27780
 MAKENUMB      2 00003AEC 00000001     H   26301 13994  26297  28560
 MAKESTR       2 00003896 00000001     H   25433  8898  14003  25429
 MAKETEMP    336 00000000 FFFFFFDB     X   25416 25621  25629  25630  25631  26083M 26085M 26086  26138M 26140M 26141
                                                 26362M 26362  26363M 26363  26460  27395M 27396  27597M 27598  27722M
                                                 27725  27840M 27843
 MAKEWA      336 00000000 FFFFFFDB     J   25423 25446  25475U 25881  25883  25884  25928  25957U 26267  26269  26270
                                                 26314  26343U 27224  27226  27227  27275  27304U 27426  27428  27429
                                                 27477  27506U 27628  27630  27631  27679  27708U 27750  27752  27753
                                                 27797  27826U 27869  27871  27872
 MANYARGS      2 000046F8 00000001     H   30213 25365
 MAXNUMB      12 00003E04 00000001     P   27643 27340  27542
 MAXSTRLN      1 00000100 FFFFFFE8 A   N    6893  6894   6921  14004
 MCTEMP      512 00000000 FFFFFFD9     X   28330 28456  28491
 MCWA        512 00000000 FFFFFFD9     J   28337 28360  28389U 28523  28525  28526
 MHTEMP      264 00000000 FFFFFFDA     X   27907 28047M 28075M 28130M 28160  28203M 28212
 MHTEMP2     264 00000108 FFFFFFDA     X   27908 28211  28252
 MHWA        528 00000000 FFFFFFDA     J   27915 27938  27967U 28280  28282  28283
 MILERR        1 00000000 00000000 A   T    2176  2176
 MINNUMB      12 00003E10 00000001     P   27644 27370  27572
 MULTLVL       1 00000008 00000001 A   U    8410 18632
 NAMEDONE      2 00001C74 00000001     H   16598 16255B 16268B 16583B 16590B 16595B
 NBLTBL        1 00000000 00000000 A   T    2189  2189
 NEGLVL        1 00000004 00000001 A   U    8408 18401
 NELVL         1 00000014 00000001 A   U    8416 19314
 NL            1 0000000C FFFFFFE8 A   N    6892  9123   9123   9135M  9136M  9152M  9153M  9280   9280   9292   9308
                                                  9470   9491   9508   9680   9701   9718   9890   9911   9981  10317
                                                 10328  10329  10329  10430  10453  10481  11169  11211  11371  11413
                                                 11573  11615  11815  11857  12057  12099  12299  12341  12528  12675
                                                 13008  13008  17042M 17367M 25549  25549  25714  26112  26167  26543
                                                 26704M 26705M 26929M 26930M 27159  27332  27395  27398M 27534  27597
                                                 27600M 27724  27725M 27726  27842  27843M 27845  29100M 29330M
 NOACTION      1 00000000 00000000 A   T    2179  2179
 NOARGS        2 000046A2 00000001     H   30097 25361
 NONAME        2 00001C64 00000001     H   16588 16038B 16059B
 NOTLVL        1 00000004 00000001 A   U    8409 18169
 NPARTBL       1 00000000 00000000 A   T    2183  2183
 NSCAN         1 00000000 00000009     T   22922 22922
 NSCNCB      176 00000000 FFFFFFED     J    2448  2574  22721  22723  22740M 22741M 22756  22757  22758  22761M 22762M
                                                 22763M 22773M 22774M 22775M 22782  22928
 NSCNFLGS      1 00000008 FFFFFFED     R    2385  2389   2394
 NSCNKWS       4 00000028 FFFFFFED     A    2434 22756  22763M 22773M
 NSCNLEN       4 00000004 FFFFFFED     F    2382 22741M
 NSCNLOC       4 00000000 FFFFFFED     A    2381 22740M
 NSCNSKIP      4 00000024 FFFFFFED     A    2433 22757  22761M 22774M
 NSCNSTOP      4 00000020 FFFFFFED     A    2432 22758  22762M 22775M
 NSCNTYPE      1 00000018 FFFFFFED     R    2403  2407   2412   2417   2422   2427
 NUMBER        1 0000000C 00000001 A   U   14824 28553
 ORLVL         1 00000018 00000001 A   U    8422 19894
1EVAL     (EVAL9204) (12:43) (15MAR04) Ordinary Symbol and Literal Cross Reference                                          Page  185
 OTHER         1 00000010 00000001 A   U   14826 28556
 OVERFLOW      2 00004534 00000001     H   29570 13997  18079  28561
 PKONE        12 00001218 00000001     X   13978  9292  11169  11371  11573  11815  12057  12299  13976  28548
 PKZERO       12 0000120C 00000001     X   13977  9122   9279   9308  10329  11211  11413  11615  11857  12099  12341
                                                 13976  28541
 PK16ZERO     16 00001224 00000001     X   13979 10648  10650
 POSLVL        1 00000004 00000001 A   U    8407 18283
 RAR          14 0000000E 00000001 A   #    1117  2114   2115M  2116B  2118M  2119B  2139M  2140B  2144M  2145B  2147M
                                                  2148B  2150M  2151B  2153M  2154B  2156M  2157M  2157B  2163   7131
                                                  7175M  7176M  7176B  7207M  7210B  7269   7325M  7326M  7326B  7347M
                                                  7348M  7348B  7497M  7500B  7540   7594M  7595M  7595B  7613M  7614M
                                                  7614B  7701M  7704B  7758   7802M  7803M  7803B  7831M  7834B  7892
                                                  7986M  7987M  7987B  8029M  8030M  8030B  8050M  8051M  8051B  8079M
                                                  8080M  8080B  8118M  8119M  8119B  8187M  8188M  8188B  8228M  8229M
                                                  8229B  8276M  8277M  8277B  8287M  8288M  8288B  8382M  8385B  8461
                                                  8613M  8614M  8614B  8692M  8693M  8693B  8760M  8761M  8761B  8828M
                                                  8829M  8829B  8872M  8875B  8949   8989M  8990M  8990B  9023M  9026B
                                                  9069   9109M  9110M  9110B  9179M  9182B  9225   9265M  9266M  9266B
                                                  9334M  9337B  9402   9457M  9458M  9458B  9474M  9475M  9475B  9489M
                                                  9490M  9490B  9530M  9531M  9531B  9565M  9568B  9612   9667M  9668M
                                                  9668B  9684M  9685M  9685B  9699M  9700M  9700B  9740M  9741M  9741B
                                                  9775M  9778B  9822   9877M  9878M  9878B  9894M  9895M  9895B  9909M
                                                  9910M  9910B  9943M  9944M  9944B 10003M 10004M 10004B 10038M 10041B
                                                 10101  10219M 10222B 10259  10314M 10315M 10315B 10321M 10322M 10322B
                                                 10326M 10327M 10327B 10357M 10358M 10358B 10396M 10397M 10397B 10435M
                                                 10436M 10436B 10503M 10504M 10504B 10511M 10512M 10512B 10537M 10540B
                                                 10602  10798M 10801B 10837  10882M 10883M 10883B 10898M 10899M 10899B
                                                 11004M 11005M 11005B 11034M 11037B 11079  11119M 11120M 11120B 11236M
                                                 11239B 11281  11321M 11322M 11322B 11438M 11441B 11483  11523M 11524M
                                                 11524B 11653M 11654M 11654B 11680M 11683B 11725  11765M 11766M 11766B
                                                 11895M 11896M 11896B 11922M 11925B 11967  12007M 12008M 12008B 12137M
                                                 12138M 12138B 12164M 12167B 12209  12249M 12250M 12250B 12379M 12380M
                                                 12380B 12406M 12409B 12452  12497M 12498M 12498B 12514M 12515M 12515B
                                                 12553M 12556B 12599  12644M 12645M 12645B 12661M 12662M 12662B 12700M
                                                 12703B 12743  12801M 12802M 12802B 12825M 12826M 12826B 12850M 12851M
                                                 12851B 12874M 12875M 12875B 12883M 12884M 12884B 12907M 12910B 12936
                                                 12977M 12978M 12978B 12993M 12994M 12994B 13088M 13091B 13117  13158M
                                                 13159M 13159B 13174M 13175M 13175B 13253M 13256B 13282  13323M 13324M
                                                 13324B 13339M 13340M 13340B 13439M 13442B 13478  13645M 13646M 13646B
                                                 13669M 13672B 13700  13747M 13748M 13748B 13778M 13779M 13779B 13796M
                                                 13797M 13797B 13815M 13818B 13846  13893M 13894M 13894B 13924M 13925M
                                                 13925B 13942M 13943M 13943B 13961M 13964B 14071  14190M 14191M 14191B
                                                 14225M 14226M 14226B 14260M 14261M 14261B 14295M 14296M 14296B 14330M
                                                 14331M 14331B 14366M 14367M 14367B 14401M 14402M 14402B 14436M 14437M
                                                 14437B 14471M 14472M 14472B 14506M 14507M 14507B 14541M 14542M 14542B
                                                 14576M 14577M 14577B 14611M 14612M 14612B 14646M 14647M 14647B 14681M
                                                 14682M 14682B 14716M 14717M 14717B 14751M 14752M 14752B 14779M 14782B
                                                 14986  15095M 15098B 15122  15188M 15191B 15221  15269M 15270M 15270B
                                                 15299M 15300M 15300B 15317M 15318M 15318B 15336M 15339B 15410  15463M
                                                 15464M 15464B 15512M 15513M 15513B 15530M 15531M 15531B 15544M 15545M
                                                 15545B 15588M 15589M 15589B 15599M 15600M 15600B 15656M 15657M 15657B
                                                 15671M 15672M 15672B 15686M 15687M 15687B 15726M 15727M 15727B 15744M
                                                 15745M 15745B 15763M 15764M 15764B 15789M 15790M 15790B 15807M 15808M
                                                 15808B 15823M 15824M 15824B 15837M 15838M 15838B 15922M 15925B 15971
                                                 16022M 16023M 16023B 16617M 16620B 16680  16826M 16827M 16827B 16865M
                                                 16866M 16866B 16981M 16982M 16982B 17040M 17041M 17041B 17077M 17080B
                                                 17120  17311M 17312M 17312B 17365M 17366M 17366B 17400M 17401M 17401B
                                                 17433M 17436B 17465  17691M 17692M 17692B 17715M 17718B 17747  17973M
                                                 17974M 17974B 17997M 18000B 18118  18200M 18203B 18232  18318M 18321B
1EVAL     (EVAL9204) (12:43) (15MAR04) Ordinary Symbol and Literal Cross Reference                                          Page  186
                                                 18350  18436M 18439B 18479  18588M 18589M 18589B 18687M 18688M 18688B
                                                 18713M 18716B 18745  18831M 18834B 18863  18983M 18984M 18984B 19007M
                                                 19010B 19040  19080M 19081M 19081B 19108M 19111B 19142  19224M 19227B
                                                 19258  19340M 19343B 19374  19456M 19459B 19490  19572M 19575B 19606
                                                 19688M 19691B 19722  19804M 19807B 19838  19920M 19923B 19954  20036M
                                                 20039B 20082  20151M 20152M 20152B 20238M 20239M 20239B 20245M 20246M
                                                 20246B 20274M 20275M 20275B 20315M 20316M 20316B 20344M 20345M 20345B
                                                 20374M 20377B 20410  20476M 20479B 20512  20578M 20581B 20614  20680M
                                                 20683B 20791  20917M 20918M 20918B 20952M 20953M 20953B 20987M 20988M
                                                 20988B 21022M 21023M 21023B 21057M 21058M 21058B 21092M 21093M 21093B
                                                 21127M 21128M 21128B 21162M 21163M 21163B 21197M 21198M 21198B 21232M
                                                 21233M 21233B 21267M 21268M 21268B 21295M 21298B 21424  21490M 21493B
                                                 21551  21604M 21605M 21605B 21650M 21651M 21651B 21713M 21716B 21753
                                                 21829M 21830M 21830B 21850M 21851M 21851B 21871M 21872M 21872B 21892M
                                                 21893M 21893B 21913M 21914M 21914B 21934M 21935M 21935B 21955M 21956M
                                                 21956B 21976M 21977M 21977B 21997M 21998M 21998B 22024M 22027B 22095
                                                 22404M 22405M 22405B 22587M 22588M 22588B 22685M 22686M 22686B 22766M
                                                 22767M 22767B 22805M 22806M 22806B 22823M 22824M 22824B 22855M 22858B
                                                 22960  23006M 23007M 23007B 23050M 23053B 23088  23158M 23159M 23159B
                                                 23179M 23180M 23180B 23183M 23184M 23184B 23256M 23259B 23293  23327M
                                                 23328M 23328B 23347M 23348M 23348B 23591M 23594B 23628  23699M 23700M
                                                 23700B 23801M 23802M 23802B 23817M 23818M 23818B 23844M 23845M 23845B
                                                 23867M 23868M 23868B 23890M 23891M 23891B 23913M 23914M 23914B 23938M
                                                 23939M 23939B 24003M 24004M 24004B 24021M 24022M 24022B 24025M 24026M
                                                 24026B 24086M 24087M 24087B 24137M 24140B 24206  24430M 24431M 24431B
                                                 24448M 24449M 24449B 24596M 24597M 24597B 24638M 24639M 24639B 24665M
                                                 24666M 24666B 24704M 24705M 24705B 24739M 24740M 24740B 24781M 24782M
                                                 24782B 24785M 24786M 24786B 24811M 24812M 24812B 24851M 24852M 24852B
                                                 24855M 24856M 24856B 24895M 24896M 24896B 24913M 24914M 24914B 24918M
                                                 24919M 24919B 24977M 24978M 24978B 25023M 25024M 25024B 25041M 25042M
                                                 25042B 25097M 25100B 25138  25207M 25208M 25208B 25228M 25229M 25229B
                                                 25244M 25245M 25245B 25330M 25333B 25440  25624M 25625M 25625B 25813M
                                                 25814M 25814B 25883M 25886B 25922  26033M 26034M 26034B 26207M 26208M
                                                 26208B 26269M 26272B 26308  26427M 26428M 26428B 26464M 26465M 26465B
                                                 26487M 26488M 26488B 26630M 26631M 26631B 26700M 26701M 26701B 26778M
                                                 26779M 26779B 26848M 26849M 26849B 26918M 26919M 26919B 26987M 26988M
                                                 26988B 27039M 27040M 27040B 27076M 27077M 27077B 27105M 27106M 27106B
                                                 27157M 27158M 27158B 27226M 27229B 27269  27319M 27320M 27320B 27348M
                                                 27349M 27349B 27378M 27379M 27379B 27428M 27431B 27471  27521M 27522M
                                                 27522B 27550M 27551M 27551B 27580M 27581M 27581B 27630M 27633B 27673
                                                 27752M 27755B 27791  27871M 27874B 27932  28282M 28285B 28354  28525M
                                                 28528B 28634  28720M 28723B 28736  28804M 28807B 28821  28889M 28892B
                                                 28906  29014M 29017B 29032  29132M 29135B 29149  29392M 29395B 29410
                                                 29553M 29556B 29576  29621M 29622M 29622B 29640M 29643B 29663  29708M
                                                 29709M 29709B 29727M 29730B 29754  29808M 29809M 29809B 29813M 29814M
                                                 29814B 29831M 29832M 29832B 29850M 29853B 29880  29925M 29926M 29926B
                                                 29944M 29947B 29971  30025M 30026M 30026B 30030M 30031M 30031B 30048M
                                                 30049M 30049B 30067M 30070B 30103  30148M 30149M 30149B 30153M 30154M
                                                 30154B 30171M 30172M 30172B 30190M 30193B 30219  30264M 30265M 30265B
                                                 30269M 30270M 30270B 30287M 30288M 30288B 30306M 30309B 30336  30421M
                                                 30422M 30422B 30443M 30444M 30444B 30465M 30466M 30466B 30483M 30484M
                                                 30484B 30488M 30489M 30489B 30506M 30507M 30507B 30525M 30528B 30554
                                                 30639M 30640M 30640B 30661M 30662M 30662B 30683M 30684M 30684B 30701M
                                                 30702M 30702B 30705M 30706M 30706B 30723M 30724M 30724B 30745M 30748B
                                                 30773  30818M 30819M 30819B 30822M 30823M 30823B 30840M 30843B 30868
                                                 30913M 30914M 30914B 30917M 30918M 30918B 30935M 30938B
 R0            0 00000000 FFFFFFFF A   #     699  2099   2168M  7190   7190M  7328   7329   7329   7329   7364M  7410M
                                                  7416M  7417   7418M  7471M  7475   7475M  7679   7679M  7814   7814M
                                                  7940   7975M  8003M  8057   8075M  8075   8076M  8107M  8176M  8225M
1EVAL     (EVAL9204) (12:43) (15MAR04) Ordinary Symbol and Literal Cross Reference                                          Page  187
                                                  8265M  8309M  8360   8360M  8602M  8666   8734   8802   8855   8855M
                                                  8907   8907   8907   9939M 10140  10346M 10392M 10431M 10641  10915M
                                                 10916  10936  11631  11642M 11873  11884M 12115  12126M 12357  12368M
                                                 12890  12890M 13057M 13057  13071  13071M 13222M 13236  13236M 13356M
                                                 13359M 13408M 13408  13422  13422M 13634M 13652  13652M 13736M 13767M
                                                 13785M 13882M 13913M 13931M 14109  14110M 14156  14166M 14762  14762M
                                                 15015M 15018  15065  15076M 15078  15078M 15171  15171M 15251  15252
                                                 15252  15252  15258M 15273M 15288M 15306M 15465  15501M 15519M 15540M
                                                 15547  15595M 15614  15651M 15651  15733M 15820M 15826  15898M 15900
                                                 15900M 16092  16095M 16142  16237M 16252M 16252  16282M 16439  16442M
                                                 16492  16578M 16600  16600M 16745  16748M 16795  16856M 16891M 16891
                                                 16898M 16900  16903M 16950  17027M 17033  17034  17034  17034  17035M
                                                 17046M 17055  17055M 17181  17227M 17230  17233M 17280  17358  17359
                                                 17359  17359  17360M 17371M 17374M 17411  17411M 17523M 17569  17596
                                                 17658  17668M 17698  17698M 17805M 17851  17878  17940  17950M 17980
                                                 17980M 18085  18085  18085  18295M 18301  18301M 18413M 18419  18419M
                                                 18577M 18694M 18696  18696M 18808M 18814  18814M 18927  18958M 18959M
                                                 18990  18990M 19084M 19091  19091M 20132  20146M 20176M 20176  20196M
                                                 20220  20221  20221  20221  20227M 20242M 20263M 20333M 20357  20357M
                                                 20459  20459M 20561  20561M 20663  20663M 20746  20746  20746  20836
                                                 20837M 20883  20893M 21278  21278M 21473  21473M 21599  21630M 21676M
                                                 21691  21691M 22153M 22153  22239  22241  22399M 22452  22453  22533
                                                 22556  22631  22654  22693M 22696M 22737M 22741  22752M 22752  22761
                                                 22762  22763  22812M 22826M 22833  22833M 23002M 23147M 23197  23198
                                                 23198  23198  23199M 23209M 23239  23239M 23322  23377M 23377  23398M
                                                 23417M 23417  23440M 23456M 23456  23477M 23496M 23496  23519M 23535M
                                                 23535  23556M 23570M 23573  23573M 23691M 23691  23707M 23735M 23735
                                                 23743M 23772M 23772  23780M 23905M 23905  23963M 24010M 24050M 24075M
                                                 24120  24120M 24303M 24303  24311M 24340M 24340  24357M 24385M 24385
                                                 24393M 24422M 24422  24437M 24511M 24511  24519M 24548M 24548  24584M
                                                 24584  24758M 24758  24770M 24840M 24902M 24943M 24967M 24967  25030M
                                                 25063M 25075  25075M 25196M 25313  25313M 25378  25378  25378  25619M
                                                 25629M 25743  25766  25774  25850  25850  26022M 26196M 26236  26236
                                                 26416M 26459M 26619  26627M 26689  26697M 26770  26837  26845M 26907
                                                 26915M 26965  26965  26976M 27017  27017  27028M 27068M 27068  27094M
                                                 27193  27193  27979M 27979  27989M 27989  28005  28012M 28025M 28025
                                                 28032  28048  28087M 28103  28147  28148  28148  28148  28149  28223M
                                                 28223  28232M 28248M 28249M 28251  28253  28260  28260M 28401M 28401
                                                 28411M 28411  28427  28434M 28447M 28447  28454  28455  28455  28455
                                                 28468M 28468  28479M 28487M 28488M 28490  28492  28503  28503M 28578
                                                 28578  28578  29486M 29486  29610M 29697M 29797M 29820M 29914M 30014M
                                                 30037M 30137M 30160M 30253M 30276M 30410M 30410  30432M 30454M 30454
                                                 30472M 30495M 30628M 30628  30650M 30672M 30672  30690M 30712M 30807M
                                                 30902M
 R1            1 00000001 FFFFFFFF A   #     712  2162M  2163M  2169M  7190   7328   7329   7329   7329   7365M  7375
                                                  7382M  7396   7403   7416   7417M  7418   7471M  7814   7941   7974M
                                                  8004M  8058   8081   8086   8106M  8175M  8231   8264M  8290   8310M
                                                  8360   8493M  8601M  8672M  8689   8740M  8757   8808M  8825   8855
                                                  8907   8907   8907   9940M 10143  10345M 10393M 10432M 10647  10748
                                                 10914M 10936M 10965  11143  11185  11345  11387  11547  11589  11641M
                                                 11789  11831  11883M 12031  12073  12125M 12273  12315  12367M 12890
                                                 13020M 13036M 13052M 13071  13201M 13217M 13236  13357M 13358M 13371M
                                                 13387M 13403M 13422  13563M 13610M 13633M 13652  13735M 13760M 13784M
                                                 13881M 13906M 13930M 14110  14137  14156M 14166  14762  15015  15019
                                                 15046  15065M 15076  15078  15171  15251  15252  15252  15252  15257M
                                                 15273M 15305M 15465  15494M 15518M 15540M 15547  15595M 15614  15652M
                                                 15667M 15732M 15759M 15803M 15820M 15826  15898M 15900  16081  16091
                                                 16095  16123  16142M 16155  16237  16277  16281M 16281  16438  16442
                                                 16473  16492M 16501  16578  16600  16744  16748  16776  16795M 16805
1EVAL     (EVAL9204) (12:43) (15MAR04) Ordinary Symbol and Literal Cross Reference                                          Page  188
                                                 16806M 16818  16834  16838M 16840  16855M 16856  16897M 16897  16899
                                                 16903  16931  16950M 16960  16961M 16973  16997M 16997  17005M 17007
                                                 17026M 17027  17033  17034  17034  17034  17036M 17046M 17055  17226M
                                                 17226  17229  17233  17261  17280M 17290  17291M 17303  17327M 17327
                                                 17335M 17337  17358  17359  17359  17359  17361M 17371M 17373M 17374
                                                 17411  17522  17523  17525M 17525  17527  17596  17618  17619M 17619
                                                 17636  17637M 17637  17643  17658  17667M 17667  17668  17688M 17698
                                                 17804  17805  17807M 17807  17809  17878  17900  17901M 17901  17918
                                                 17919M 17919  17925  17940  17949M 17949  17950  17970M 17980  18085
                                                 18085  18085  18294M 18294  18301  18412M 18412  18419  18576M 18693M
                                                 18693  18696  18807M 18807  18814  18957M 18957  18990  19082M 19082
                                                 19091  20145M 20145  20195M 20195  20220  20221  20221  20221  20226M
                                                 20242M 20262M 20332M 20357  20459  20561  20663  20746  20746  20746
                                                 20837  20864  20883M 20893  21278  21473  21600  21631M 21677M 21691
                                                 22238  22240  22378  22400M 22400  22555M 22576M 22583  22653M 22674M
                                                 22681  22692M 22695M 22732M 22740  22748M 22761  22762  22763  22811M
                                                 22825M 22833  22998  23003M 23146M 23197  23198  23198  23198  23200M
                                                 23209M 23239  23323  23343  23344M 23363M 23401M 23443M 23480M 23522M
                                                 23559M 23571M 23573  23706M 23706  23741M 23741  23778M 23778  23962M
                                                 23962  24009M 24048M 24048  24074M 24120  24309M 24309  24355M 24355
                                                 24391M 24391  24436M 24517M 24517  24769M 24839M 24901M 24941M 24941
                                                 25029M 25061M 25075  25195M 25378  25378  25378  25548M 25549  25620M
                                                 25630M 25665M 25665  25743  25749  25750M 25750  25774M 25786  25792
                                                 25793M 25793  26021M 26064M 26083  26138  26195M 26415M 26458M 26625M
                                                 26625  26695M 26695  26843M 26843  26913M 26913  26975M 27027M 27093M
                                                 27396M 27397  27598M 27599  27721M 27722  27723M 27724  27839M 27840
                                                 27841M 27842  28457  29609M 29696M 29796M 29819M 29913M 30013M 30036M
                                                 30136M 30159M 30252M 30275M 30431M 30450M 30471M 30494M 30649M 30668M
                                                 30689M 30711M 30806M 30901M
 R12          12 0000000C FFFFFFFF A   #     855  2125
 R13          13 0000000D FFFFFFFF A   #     868  7162   7163   7167   7169   7171   7172M  7188M  7789   7790   7794
                                                  7796   7798   7799M  7812M 22721  22756  22757  22758  22773  22774
                                                 22775
 R14          14 0000000E FFFFFFFF A   #     881  2100M  8673M  8676M  8677M  8677B  8741M  8744M  8745M  8745B  8809M
                                                  8812M  8813M  8813B 10912M 10917  10948  10956M 10958  13353M 13359M
                                                 16096M 16123  16443M 16473  16749M 16776  16904M 16931  17234M 17261
                                                 18170M 18175M 18284M 18289M 18402M 18407M 18628M 18633M 18797M 18802M
                                                 18947M 18952M 19194M 19199M 19310M 19315M 19426M 19431M 19542M 19547M
                                                 19658M 19663M 19774M 19779M 19890M 19895M 20006M 20011M 22720M 22721
                                                 22739M 22740  22741  22745M 22745  22755M 22756  22757  22758  22770M
                                                 22773  22774  22775  22779M 22782  23202M 23205M 23206M 23206B
 R15          15 0000000F FFFFFFFF A   #     894  2099   7209M  7209   7338M  7338   7363M  7363   7436M  7454M  7454
                                                  7499M  7499   7604M  7604   7629M  7629   7646M  7663M  7663   7703M
                                                  7703   7833M  7833   7956M  7956   7983M  7988M  7993M  7993   8088M
                                                  8088   8115M  8120M  8125M  8125   8157M  8157   8184M  8189M  8194M
                                                  8194   8246M  8246   8273M  8278M  8283M  8283   8294M  8294   8319M
                                                  8319   8325M  8354M  8384M  8384   8497M  8497   8610M  8615M  8874M
                                                  8874   9025M  9025   9181M  9181   9336M  9336   9512M  9512   9567M
                                                  9567   9722M  9722   9777M  9777   9985M  9985  10040M 10040  10197M
                                                 10197  10221M 10221  10354M 10359M 10485M 10485  10539M 10539  10776M
                                                 10776  10800M 10800  10911M 10965  10980M 10980  11036M 11036  11238M
                                                 11238  11440M 11440  11650M 11655M 11682M 11682  11892M 11897M 11924M
                                                 11924  12134M 12139M 12166M 12166  12376M 12381M 12408M 12408  12555M
                                                 12555  12702M 12702  12909M 12909  13061M 13061  13090M 13090  13226M
                                                 13226  13255M 13255  13354M 13412M 13412  13441M 13441  13567M 13567
                                                 13614M 13614  13642M 13647M 13671M 13671  13744M 13749M 13775M 13793M
                                                 13798M 13817M 13817  13890M 13895M 13921M 13939M 13944M 13963M 13963
                                                 14781M 14781  15075M 15097M 15097  15169M 15169  15190M 15190  15266M
                                                 15296M 15314M 15319M 15338M 15338  15478  15509M 15527M 15532M 15594M
1EVAL     (EVAL9204) (12:43) (15MAR04) Ordinary Symbol and Literal Cross Reference                                          Page  189
                                                 15594  15623M 15623  15741M 15746M 15924M 15924  16032M 16032  16075
                                                 16241M 16241  16582M 16582  16589M 16594M 16619M 16619  17050M 17050
                                                 17079M 17079  17378M 17378  17435M 17435  17672M 17672  17717M 17717
                                                 17954M 17954  17999M 17999  18183M 18183  18202M 18202  18299M 18299
                                                 18320M 18320  18417M 18417  18438M 18438  18558M 18558  18585M 18590M
                                                 18595M 18595  18641M 18641  18715M 18715  18812M 18812  18833M 18833
                                                 18963M 18963  19009M 19009  19089M 19089  19110M 19110  19207M 19207
                                                 19226M 19226  19323M 19323  19342M 19342  19439M 19439  19458M 19458
                                                 19555M 19555  19574M 19574  19671M 19671  19690M 19690  19787M 19787
                                                 19806M 19806  19903M 19903  19922M 19922  20019M 20019  20038M 20038
                                                 20200M 20200  20235M 20271M 20280M 20307M 20307  20341M 20350M 20376M
                                                 20376  20457M 20457  20478M 20478  20559M 20559  20580M 20580  20661M
                                                 20661  20682M 20682  21297M 21297  21471M 21471  21492M 21492  21689M
                                                 21689  21715M 21715  21809M 22004M 22026M 22026  22144M 22700M 22700
                                                 22776M 22776  22802M 22820M 22827M 22857M 22857  23052M 23052  23128M
                                                 23128  23155M 23160M 23165M 23165  23199  23226M 23226  23233M 23258M
                                                 23258  23566M 23566  23569M 23593M 23593  23784M 23784  23859M 23859
                                                 23882M 23882  23961M 24018M 24056M 24056  24083M 24088M 24093M 24093
                                                 24105M 24139M 24139  24349M 24349  24445M 24450M 24554M 24613M 24613
                                                 24695M 24695  24730M 24730  24778M 24848M 24910M 25038M 25043M 25070M
                                                 25070  25099M 25099  25177M 25177  25204M 25209M 25214M 25214  25260M
                                                 25260  25277M 25294M 25294  25332M 25332  25506M 25506  25587M 25587
                                                 25827M 25827  25885M 25885  25988M 25988  26030M 26035M 26204M 26209M
                                                 26271M 26271  26382M 26382  26424M 26429M 26479  26514  26547M 26547
                                                 26572  26984M 26989M 27036M 27041M 27057M 27057  27102M 27107M 27127
                                                 27228M 27228  27430M 27430  27632M 27632  27730M 27730  27754M 27754
                                                 27849M 27849  27873M 27873  28179M 28241M 28241  28284M 28284  28501M
                                                 28501  28527M 28527  28722M 28722  28806M 28806  28891M 28891  29016M
                                                 29016  29134M 29134  29394M 29394  29555M 29555  29618M 29623M 29642M
                                                 29642  29705M 29710M 29729M 29729  29805M 29828M 29833M 29852M 29852
                                                 29922M 29927M 29946M 29946  30022M 30045M 30050M 30069M 30069  30145M
                                                 30168M 30173M 30192M 30192  30261M 30284M 30289M 30308M 30308  30418M
                                                 30440M 30462M 30480M 30503M 30508M 30527M 30527  30636M 30658M 30680M
                                                 30698M 30720M 30728M 30728  30747M 30747  30815M 30842M 30842  30910M
                                                 30937M 30937
 R2            2 00000002 FFFFFFFF A   #     725  7162   7163M  7166M  7167M  7185M  7318   7322M  7344M  7408M  7410M
                                                  7419M  7473M  7591M  7610M  7630M  7672M  7672   7679   7789   7790M
                                                  7793M  7794M  8081M  8085M  8501M  8672   8740   8985U  9002   9105U
                                                  9158   9261U  9278   9313   9448U  9452   9454M  9471M  9507M  9658U
                                                  9662   9664M  9681M  9717M  9868U  9872   9874M  9891M  9980M 10140M
                                                 10142  10193  10305U 10309  10311M 10318M 10429M 10452M 10480M 10641M
                                                 10645  10747  10772  10873U 10877  10879M 10895M 10913M 11115U 11149M
                                                 11191M 11317U 11351M 11393M 11519U 11553M 11595M 11761U 11795M 11837M
                                                 12003U 12037M 12079M 12245U 12279M 12321M 12488U 12492  12494M 12511M
                                                 12635U 12639  12641M 12658M 12779U 12782  12832M 12972U 12974M 12990M
                                                 13007M 13153U 13155M 13171M 13188M 13318U 13320M 13336M 13352M 13355M
                                                 13588M 13609M 14111M 14111  14157M 14157  14181  14216  14251  14286
                                                 14321  14357  14392  14427  14462  14497  14532  14567  14602  14637
                                                 14672  14707  14742  15017M 15017  15066M 15066  15075  15458M 15541M
                                                 15585M 15596M 15653M 15668M 15723M 15760M 15804M 16009  16093M 16093
                                                 16143M 16143  16170M 16171  16217M 16226  16283M 16440M 16440  16493M
                                                 16493  16561M 16570  16746M 16746  16796M 16796  16901M 16901  16951M
                                                 16951  17037M 17231M 17231  17281M 17281  17362M 17527M 17569  17643M
                                                 17664M 17665  17809M 17851  17925M 17946M 17947  18684M 20838M 20838
                                                 20884M 20884  20908  20943  20978  21013  21048  21083  21118  21153
                                                 21188  21223  21258  21601M 21789U 22143  22401M 22584M 22682M 22694M
                                                 22695  22696  22999  23003  23126M 23201  23324M 23344  24254  24619
                                                 24629M 24629  24635M 24656  24662M 24701M 24736M 24764M 24808M 24834M
                                                 24915M 24974M 25020M 25241M 25261M 25303M 25303  25313  25486U 25617
1EVAL     (EVAL9204) (12:43) (15MAR04) Ordinary Symbol and Literal Cross Reference                                          Page  190
                                                 25621M 25628M 25968U 26354U 27315U 27517U 27719U 27837U 28147  28148
                                                 28148  28148  28248M 28254M 28454  28455  28455  28455  28487M 28493M
                                                 28578  28578  28578  28772U 28957U 28959M 28975M 29083U 29200U 29810M
                                                 30027M
 R3            3 00000003 FFFFFFFF A   #     738  7164M  7182M  7184   7319   7409M  7420M  7463M  7463   7475   7791M
                                                  8082M  8084   8560M  8654   8722   8790   8808   9002   9158   9313
                                                 10658M 10658  10676M 10676  10692M 10692  10728M 10728  10741M 10747M
                                                 10749M 10760  10916M 10917M 10929  10935  10996  13608M 14109M 14120M
                                                 14120  14128M 14130  15018M 15019M 15029M 15029  15037M 15039  16092M
                                                 16106M 16106  16114M 16116  16155M 16156M 16157  16185M 16185  16200M
                                                 16202  16219  16277M 16278M 16279M 16279  16280  16439M 16453M 16453
                                                 16464M 16466  16501M 16502M 16503  16529M 16529  16544M 16546  16563
                                                 16745M 16759M 16759  16767M 16769  16833M 16834M 16835M 16835  16847
                                                 16900M 16914M 16914  16922M 16924  17230M 17244M 17244  17252M 17254
                                                 17526M 17618  17620M 17620  17636  17638M 17638  17665M 17666  17808M
                                                 17900  17902M 17902  17918  17920M 17920  17947M 17948  20836M 20847M
                                                 20847  20855M 20857  22378M 22379  22397M 22398  22453M 22457M 22466M
                                                 22466  22473  22556M 22570  22577M 22577  22654M 22668  22675M 22675
                                                 23322M 23570  23791M 23791  23824M 23824  23836  23961  24463M 24463
                                                 24483M 24483  24973M 24973  25001  25631M 25706M 25766  25786  25821M
                                                 25822  26065M 26077  26132  26542M 26543  28031M 28032M 28041M 28041
                                                 28048M 28052M 28061M 28061  28068  28103M 28107M 28116M 28116  28123
                                                 28149M 28151M 28153  28196  28251M 28490M 30450  30668
 R4            4 00000004 FFFFFFFF A   #     751  7166M  7183M  7185M  7318M  7408   7419   7473   7793M  8083M  8085M
                                                  8638M  9122M  9123   9279M  9280   9454   9507   9664   9717   9874
                                                  9980  10311  10429  10452  10480  10748M 10750M 10760  10879  10913
                                                 11149  11191  11351  11393  11553  11595  11795  11837  12037  12079
                                                 12279  12321  12494  12499M 12528  12641  12646M 12675  12832  12974
                                                 13007  13155  13188  13320  13352  13606M 13609M 15020M 15046  16091M
                                                 16156  16169  16209  16278  16438M 16502  16515  16553  16744M 16806
                                                 16847  16899M 16961  17014  17229M 17291  17344  17522M 17688  17804M
                                                 17970  22240M 22242  22243M 22243  22286  22292M 22292  22344  22350M
                                                 22350  22369  22379M 22388M 22388  22397  22399  23323M 23571  24464M
                                                 24619  24620M 24620  25632M 25726  25727M 25727  25749  25751M 25751
                                                 25772  25773M 25773  25792  25794M 25794  25822M 25823  26084M 26085
                                                 26111M 26112  26139M 26140  26166M 26167  28211M 28229  28230M 28230
                                                 28252M 28254M 28456M 28474  28475  28476  28477M 28477  28491M 28493M
                                                 28975
 R5            5 00000005 FFFFFFFF A   #     764  7162   7165M  7165   7167M  7184M  7319M  7375   7382   7396   7403M
                                                  7409   7420   7789   7792M  7792   7794M  8084M  9452M  9471   9662M
                                                  9681   9872M  9891  10309M 10318  10877M 10895  12492M 12511  12516M
                                                 12528  12639M 12658  12663M 12675  12782M 12990  12995M 13008  13171
                                                 13176M 13189  13336  13355  13607M 13608  16805M 16855  16960M 17026
                                                 17290M 17373  18535M 18552M 18608  18658  22241M 22242M 22286  22344
                                                 22369  23343M 23363  25633M 25659M 25659  25667M 25673M 25699M 25699
                                                 25708M 28212M 28229  28231M 28231  28253M 28457M 28474  28478M 28478
                                                 28492M 28959
 R6            6 00000006 FFFFFFFF A   #     777  7168M  7169M  7170   7171M  7183   7315U  7317M  7586U  7588M  7795M
                                                  7796M  7797   7798M  7938U  7957M  7958   8009M  8026M  8047M  8083
                                                  8086M  8089M  8090   8158M  8159   8231M  8247M  8248   8290M  8493
                                                  8500M  8501   8559M  8560   8637M  8638   8654M  8689M  8722M  8757M
                                                  8790M  8825M  9278M 13514U 13517M 13534M 13563  13588  13590M 13606
                                                 13610  15158U 15456U 15458  15865U 16007U 16009M 16726U 17166U 17501U
                                                 17783U 18154U 18268U 18386U 18515U 18518M 18559M 18560  18684  18781U
                                                 18899U 19076U 19178U 19294U 19410U 19526U 19642U 19758U 19874U 19990U
                                                 20118U 20446U 20548U 20650U 20827U 21460U 21597U 21601  22141U 22143M
                                                 22584  22682  22996U 22998M 23124U 23126  23129M 23130  23200  23201M
                                                 23324  23664U 24057M 24058  24252U 24254M 25174U 25178M 25179  26460M
                                                 26527U 26927U 27140U 28685U 28857U 29461U 29790U 30007U
1EVAL     (EVAL9204) (12:43) (15MAR04) Ordinary Symbol and Literal Cross Reference                                          Page  191
 R7            7 00000007 FFFFFFFF A   #     790  2092M  2092   2093B  2105B
 R8            8 00000008 FFFFFFFF A   #     803  7304U  7575U  7927U  9437U  9647U  9857U 10136U 10294U 10637U 15445U
                                                 16715U 17155U 21586U 22130U 24241U 25475U 25957U 26343U 27304U 27506U
                                                 27708U 27826U 27967U 28389U
 SCANEXPR      2 0000018A 00000001     H    7752  7748
 SCANOPER      2 00002A00 00000001     H   20785  8902
 SCNADONE      2 00001AD0 00000001     H   15897 15533B 15546B 15590B 15602B 15658B 15747B 15791B 15825B 15839B 15891B
 SCNAINFO      4 00000000 FFFFFFE0     F   15386 15465M 15540  15547M 15595  15614M 15820  15826M 15898
 SCNALPHA      2 00001948 00000001     H   15403 14855  18024
 SCNAND        2 00002712 00000001     H   19948 22908
 SCNAWA        8 00000000 FFFFFFE0     J   15393 15416  15445U 15920  15922  15923
 SCNBAD        2 000018DA 00000001     H   15215 14850  18022  20723
 SCNBLANK      2 000018A8 00000001     H   15116 14845  18020  21347  22876
 SCNCAT        2 000023FC 00000001     H   18857 14901  18042  21382  22890
 SCNCOMMA      2 00002866 00000001     H   20506 14921  18050  21392  22894
 SCNCP         2 00002834 00000001     H   20404 14916  18048
 SCNDDONE      2 00001E54 00000001     H   17409 17313B 17402B
 SCNDIV        2 0000239C 00000001     H   18739 14896  18040  21377  22888
 SCNDOT        2 00001D92 00000001     H   17113 14865  18028  28558
 SCNDQ         2 00001F28 00000001     H   17741 14876  18032
 SCNEQ         2 000024B8 00000001     H   19136 22902
 SCNEXCPN      2 00002DD2 00000001     H   22088 18060
 SCNGE         2 00002666 00000001     H   19716 22916
 SCNGT         2 00002610 00000001     H   19600 22914
 SCNLE         2 000025BA 00000001     H   19484 22912
 SCNLT         2 00002564 00000001     H   19368 22910
 SCNMINUS      2 00002270 00000001     H   18344 14886  18036  21367  22884
 SCNMULT       2 000022D0 00000001     H   18473 14891  18038  21372  22886
 SCNNDONE      2 00001D80 00000001     H   17053 16828B 16983B
 SCNNE         2 0000250E 00000001     H   19252 22904
 SCNNOOP       2 00002C3C 00000001     H   21418 21352  22878
 SCNNOT        2 000021BA 00000001     H   18112 20724  22900
 SCNNUMB       2 00001C86 00000001     H   16673 14860  18026  28554
 SCNNWA       24 00000000 FFFFFFDF     J   16664 16686  16715U 17075  17077  17078  17126  17155U 17431  17433  17434
 SCNNWORK     24 00000000 FFFFFFDF     C   16657 16728M 16835  17014M 17036  17213M 17344M 17361
 SCNOP         2 00002768 00000001     H   20076 14911  18046
 SCNOPRTN      4 00002C10 00000001     F   21312 21346  21351  21356  21361  21366  21371  21376  21381  21386  21391
                                                 21396  21398
 SCNOPTBL      4 00002B10 00000001     F   21310 20864  21313  21315  21317  21319  21321  21323  21325  21327  21329
                                                 21344  21349  21354  21359  21364  21369  21374  21379  21384  21389
                                                 21394
 SCNOR         2 000026BC 00000001     H   19832 22906
 SCNOWORD      2 00002C6E 00000001     H   21544 21357  22880
 SCNPLUS       2 00002210 00000001     H   18226 14881  18034  21362  22882
 SCNRTNS       4 00001610 00000001     F   14798 14844  14849  14854  14859  14864  14870  14875  14880  14885  14890
                                                 14895  14900  14905  14910  14915  14920  14925  14927
 SCNSIMI       2 00002898 00000001     H   20608 14926  18052  21397  22896
 SCNSQ         2 00001E66 00000001     H   17459 14871  18030
 SCNTABLE      4 00001510 00000001     F   14796 14137  14799  14801  14803  14805  14807  14809  14811  14813  14815
                                                 14817  14842  14847  14852  14857  14862  14868  14873  14878  14883
                                                 14888  14893  14898  14903  14908  14913  14918  14923  18053
 SCNTILDA      2 00002478 00000001     H   19034 14906  18044  21387  22892
 SCNTYPE       2 00001858 00000001     H   14980 18069  25355  28552
 SCNVNAME      2 00001AE6 00000001     H   15965 15961  18055  22897  25357
 SCNWDONE      2 00002DC4 00000001     H   22007 21810B 21831B 21852B 21873B 21894B 21915B 21936B 21957B 21978B 21999B
 SCNWLEN       4 00000000 FFFFFFDE     F   21527 21599M 21630  21676
 SCNWLOC       4 00000004 FFFFFFDE     F   21528 21600M 21631  21677
 SCNWOPER      2 00002CE2 00000001     H   21747 18059  22898
 SCNWWA        8 00000000 FFFFFFDE     J   21535 21557  21586U 21711  21713  21714
1EVAL     (EVAL9204) (12:43) (15MAR04) Ordinary Symbol and Literal Cross Reference                                          Page  192
 SDSNQSZ       1 0000002C FFFFFFEC A   U    6080  6081   6082
 SEG           1 00000000 00000002     T    8901  8901  13999  18054  20711  22923  25354  28546  30949
 SEGCR         1 00000000 0000000B     T   30953 30953
 SEGDC         1 00000000 0000000C     T   30954 30954
 SEGT          1 00000000 00000003     T   14017 14017  18057
 SEGVNAME      1 00000000 00000006     T   18064 18064  25368  30950
 SETCURR       1 00000008 00000001 A   U   18466 18552  20716
 SETMULT       1 00000004 00000001 A   U   18465 18535  20712
 SMALLSUB      2 00004878 00000001     H   30767 25371
 SPR          13 0000000D 00000001 A   #    1104  7131   7134   7135   7136M  7136   7201M  7205   7207   7269   7272
                                                  7274   7275M  7275   7491M  7495   7497   7540   7543   7545   7546M
                                                  7546   7695M  7699   7701   7758   7761   7762   7763M  7763   7825M
                                                  7829   7831   7892   7895   7897   7898M  7898   8376M  8380   8382
                                                  8461   8464   8465   8466M  8466   8866M  8870   8872   8949   8952
                                                  8953   8954M  8954   9017M  9021   9023   9069   9072   9073   9074M
                                                  9074   9173M  9177   9179   9225   9228   9229   9230M  9230   9328M
                                                  9332   9334   9402   9405   9407   9408M  9408   9559M  9563   9565
                                                  9612   9615   9617   9618M  9618   9769M  9773   9775   9822   9825
                                                  9827   9828M  9828  10032M 10036  10038  10101  10104  10106  10107M
                                                 10107  10213M 10217  10219  10259  10262  10264  10265M 10265  10531M
                                                 10535  10537  10602  10605  10607  10608M 10608  10792M 10796  10798
                                                 10837  10840  10841  10842M 10842  11028M 11032  11034  11079  11082
                                                 11083  11084M 11084  11230M 11234  11236  11281  11284  11285  11286M
                                                 11286  11432M 11436  11438  11483  11486  11487  11488M 11488  11674M
                                                 11678  11680  11725  11728  11729  11730M 11730  11916M 11920  11922
                                                 11967  11970  11971  11972M 11972  12158M 12162  12164  12209  12212
                                                 12213  12214M 12214  12400M 12404  12406  12452  12455  12456  12457M
                                                 12457  12547M 12551  12553  12599  12602  12603  12604M 12604  12694M
                                                 12698  12700  12743  12746  12747  12748M 12748  12901M 12905  12907
                                                 12936  12939  12940  12941M 12941  13082M 13086  13088  13117  13120
                                                 13121  13122M 13122  13247M 13251  13253  13282  13285  13286  13287M
                                                 13287  13433M 13437  13439  13478  13481  13482  13483M 13483  13663M
                                                 13667  13669  13700  13703  13704  13705M 13705  13809M 13813  13815
                                                 13846  13849  13850  13851M 13851  13955M 13959  13961  14071  14074
                                                 14075  14076M 14076  14773M 14777  14779  14986  14989  14990  14991M
                                                 14991  15089M 15093  15095  15122  15125  15126  15127M 15127  15182M
                                                 15186  15188  15221  15224  15225  15226M 15226  15330M 15334  15336
                                                 15410  15413  15415  15416M 15416  15916M 15920  15922  15971  15974
                                                 15975  15976M 15976  16611M 16615  16617  16680  16683  16685  16686M
                                                 16686  17071M 17075  17077  17120  17123  17125  17126M 17126  17427M
                                                 17431  17433  17465  17468  17469  17470M 17470  17709M 17713  17715
                                                 17747  17750  17751  17752M 17752  17991M 17995  17997  18118  18121
                                                 18122  18123M 18123  18194M 18198  18200  18232  18235  18236  18237M
                                                 18237  18312M 18316  18318  18350  18353  18354  18355M 18355  18430M
                                                 18434  18436  18479  18482  18483  18484M 18484  18707M 18711  18713
                                                 18745  18748  18749  18750M 18750  18825M 18829  18831  18863  18866
                                                 18867  18868M 18868  19001M 19005  19007  19040  19043  19044  19045M
                                                 19045  19102M 19106  19108  19142  19145  19146  19147M 19147  19218M
                                                 19222  19224  19258  19261  19262  19263M 19263  19334M 19338  19340
                                                 19374  19377  19378  19379M 19379  19450M 19454  19456  19490  19493
                                                 19494  19495M 19495  19566M 19570  19572  19606  19609  19610  19611M
                                                 19611  19682M 19686  19688  19722  19725  19726  19727M 19727  19798M
                                                 19802  19804  19838  19841  19842  19843M 19843  19914M 19918  19920
                                                 19954  19957  19958  19959M 19959  20030M 20034  20036  20082  20085
                                                 20086  20087M 20087  20368M 20372  20374  20410  20413  20414  20415M
                                                 20415  20470M 20474  20476  20512  20515  20516  20517M 20517  20572M
                                                 20576  20578  20614  20617  20618  20619M 20619  20674M 20678  20680
                                                 20791  20794  20795  20796M 20796  21289M 21293  21295  21424  21427
                                                 21428  21429M 21429  21484M 21488  21490  21551  21554  21556  21557M
1EVAL     (EVAL9204) (12:43) (15MAR04) Ordinary Symbol and Literal Cross Reference                                          Page  193
                                                 21557  21707M 21711  21713  21753  21756  21757  21758M 21758  22018M
                                                 22022  22024  22095  22098  22100  22101M 22101  22849M 22853  22855
                                                 22960  22963  22964  22965M 22965  23044M 23048  23050  23088  23091
                                                 23092  23093M 23093  23250M 23254  23256  23293  23296  23297  23298M
                                                 23298  23585M 23589  23591  23628  23631  23632  23633M 23633  24131M
                                                 24135  24137  24206  24209  24211  24212M 24212  25091M 25095  25097
                                                 25138  25141  25142  25143M 25143  25324M 25328  25330  25440  25443
                                                 25445  25446M 25446  25877M 25881  25883  25922  25925  25927  25928M
                                                 25928  26263M 26267  26269  26308  26311  26313  26314M 26314  27220M
                                                 27224  27226  27269  27272  27274  27275M 27275  27422M 27426  27428
                                                 27471  27474  27476  27477M 27477  27624M 27628  27630  27673  27676
                                                 27678  27679M 27679  27746M 27750  27752  27791  27794  27796  27797M
                                                 27797  27865M 27869  27871  27932  27935  27937  27938M 27938  28276M
                                                 28280  28282  28354  28357  28359  28360M 28360  28519M 28523  28525
                                                 28634  28637  28638  28639M 28639  28714M 28718  28720  28736  28739
                                                 28740  28741M 28741  28798M 28802  28804  28821  28824  28825  28826M
                                                 28826  28883M 28887  28889  28906  28909  28910  28911M 28911  29008M
                                                 29012  29014  29032  29035  29036  29037M 29037  29126M 29130  29132
                                                 29149  29152  29153  29154M 29154  29386M 29390  29392  29410  29413
                                                 29414  29415M 29415  29547M 29551  29553  29576  29579  29580  29581M
                                                 29581  29634M 29638  29640  29663  29666  29667  29668M 29668  29721M
                                                 29725  29727  29754  29757  29758  29759M 29759  29844M 29848  29850
                                                 29880  29883  29884  29885M 29885  29938M 29942  29944  29971  29974
                                                 29975  29976M 29976  30061M 30065  30067  30103  30106  30107  30108M
                                                 30108  30184M 30188  30190  30219  30222  30223  30224M 30224  30300M
                                                 30304  30306  30336  30339  30340  30341M 30341  30519M 30523  30525
                                                 30554  30557  30558  30559M 30559  30739M 30743  30745  30773  30776
                                                 30777  30778M 30778  30834M 30838  30840  30868  30871  30872  30873M
                                                 30873  30929M 30933  30935
 STROFLOW      2 00004572 00000001     H   29657 14006
 SUBLIMIT      1 00000003 00000001 A   U   24191 25375
 SUBSDONE      2 000036B6 00000001     H   25073 24350B 24451B 24640B 24667B 24706B 24741B 24787B 24813B 24857B 24920B
                                                 24979B 25044B
 SUBTLVL       1 0000000C 00000001 A   U    8413 18406
 TRC           1 00000000 00000000 A   T    2121  2121
 TRHEXCHR      1 00004082 00000001     X   28296 28203  28297  28299  28301  28303
 TRTCKHEX      1 00003F82 00000001     X   28287 28160  28288  28290  28292  28294
 TRTNAME       1 00001658 00000001     X   14932 14933  14935  14937  14939  14941  14943  14945  14947  14949  18071
 TRTNUMB       1 00001758 00000001     X   14951 14952  14954  18078
 TTYFLAG       1 00000004 FFFFFFEA     R    6209  6213
 TTYMAX#       1 00000006 FFFFFFEA A   U    6265  6266
 TTYTFLAG      1 00000005 FFFFFFEA     R    6219  6223   6228   6233   6238   6243   6248   6253
 UNDEFD        2 000045B0 00000001     H   29748 18066
 UPPTBL        1 00000000 00000000 A   T    2184  2184
 VNADATA      48 00000020 FFFFFFE8     X    6689  6866   6866
 VNAFLAGS      1 00000011 FFFFFFE8     R    6670  6674
 VNAREA        1 00000024 FFFFFFE8     U    6807  6809   6813   6819   6868   6874   6879   6885
 VNARRAY       4 00000020 FFFFFFE8         6733  7050   7050  15697  15717
 VNASUB1       2 00000012 FFFFFFE8     H    6677 15579  15642  25064M
 VNASUB2       2 00000014 FFFFFFE8     H    6678 25065M
 VNASUB3       2 00000016 FFFFFFE8     H    6679 25066M
 VNATYPE       1 00000030 FFFFFFE8     R    6826  6835   6845   6855
 VNBOOL        3 00000020 FFFFFFE8         6723  7046   7046  25529  25541M 25979  26110M 26165M 26405
 VNDATA       16 00000020 FFFFFFE8     X    6685  6686   6688   6690   6872   6872   6877   6877   6883   6883   6888
                                                  6888
 VNDEBUG       1 00000021 FFFFFFE8     R    6768  6772   6777   6782   6787
 VNDESC       32 00000000 FFFFFFE8     X    6611  6612   6680   6680   6975   7036   7036  16016M 16016  23027M 23027
 VNENTRY      80 00000000 FFFFFFE8     J    6901  6920   6967   6975   7036   7041   7044   7046   7048   7050   7053
                                                  7055   7057  15456U 15541  15585  15596  15652  15653  15667  15668
1EVAL     (EVAL9204) (12:43) (15MAR04) Ordinary Symbol and Literal Cross Reference                                          Page  194
                                                 15723  15759  15760  15803  15804  15889U 16007U 21789U 22141U 22445M
                                                 22445  22548M 22548  22646M 22646  22996U 23124U 24252U 24635  24662
                                                 24701  24736  24764  24808  24834  24915  24974  25020  25486U 25968U
                                                 26354U 27315U 27517U 27719U 27837U 28685U 28772U 28857U 28957U 29083U
                                                 29200U 29461U 29790U 29810  30007U 30027
 VNFLAGS1      1 00000022 FFFFFFE8     R    6792  6796
 VNINT       128 00000022 FFFFFFE8         6796 28692M 28780M 28865M 28969  28982M 29094  29329M 29360M 29498M 29521M
 VNNAME       16 00000000 FFFFFFE8     C    6613  6865   7041   7041  15494  15501  15852M 15852  16017  16017M 16081M
                                                 16169  16169M 16171  16171M 16209M 16226M 16279  16283  16515  16515M
                                                 16541M 16553M 16570M 18072  21815  21836  21857  21878  21899  21920
                                                 21941  21962  21983  22203  22217  22231  22433  22516  22614  22999M
                                                 23028M 29214  29240  29254  29268  29282
 VNNUMB        2 00000020 FFFFFFE8         6713  7044   7044  22554M 22652M 25610  25810M 26011  26373  27154M 29312
 VNPFGBL       2 00000010 FFFFFFE8         6635 16331M
 VNPFPUB       5 00000010 FFFFFFE8         6665 16409M
 VNPFSES       4 00000010 FFFFFFE8         6655 16383M
 VNPFSYS       3 00000010 FFFFFFE8         6645 16357M
 VNPFX         1 00000010 FFFFFFE8         6625 16305M
 VNPREFIX      1 00000010 FFFFFFE8     R    6616  6625   6635   6645   6655   6665  15564  15781  16426  21803  29297
 VNSDATA       6 00000020 FFFFFFE8     X    6687  6817   6817
 VNSTRING      1 00000020 FFFFFFE8         6703  7048   7048  22451M 25497  25547M 25820M 26058  26104M 26159M 26185
                                                 26452  27148M
 VNSTRLEN      2 00000024 FFFFFFE8     H    6815  7057   7057  22452M 25562M 25579M 25823M 26065  26459
 VNSTRLOC      1 00000026 FFFFFFE8     C    6816  7055   7055  22480M 25561M 25578M 25632  25821  26064  26458
 VNSYSRTN      4 00000024 FFFFFFE8     A    6887 23002  23202
 VNTYPE        1 00000020 FFFFFFE8     R    6694  6703   6713   6723   6733   6743   6753   6763
 VNVALUE      12 00000024 FFFFFFE8     X    6811  6892   7053   7053  22583M 22681M 25549  25620  25714  26112M 26167M
                                                 27159M 27332M 27340  27370  27395  27397M 27398M 27534M 27542  27572
                                                 27597  27599M 27600M 27721  27724M 27725M 27726M 27839  27842M 27843M
                                                 27845M 29100M 29330M
 VPARM       336 00000000 FFFFFFE7     J    6928  6969   7059   7060   7245  25416
 WAR           8 00000008 00000001 A   #    1027  7135M  7190   7201   7274M  7475   7491   7545M  7679   7695   7762M
                                                  7814   7825   7897M  8360   8376   8465M  8855   8866   8953M  9017
                                                  9073M  9173   9229M  9328   9407M  9559   9617M  9769   9827M 10032
                                                 10106M 10213  10264M 10531  10607M 10792  10841M 11028  11083M 11230
                                                 11285M 11432  11487M 11674  11729M 11916  11971M 12158  12213M 12400
                                                 12456M 12547  12603M 12694  12747M 12890  12901  12940M 13071  13082
                                                 13121M 13236  13247  13286M 13422  13433  13482M 13652  13663  13704M
                                                 13809  13850M 13955  14075M 14762  14773  14990M 15078  15089  15126M
                                                 15171  15182  15225M 15330  15415M 15900  15916  15975M 16600  16611
                                                 16685M 17055  17071  17125M 17411  17427  17469M 17698  17709  17751M
                                                 17980  17991  18122M 18194  18236M 18301  18312  18354M 18419  18430
                                                 18483M 18696  18707  18749M 18814  18825  18867M 18990  19001  19044M
                                                 19091  19102  19146M 19218  19262M 19334  19378M 19450  19494M 19566
                                                 19610M 19682  19726M 19798  19842M 19914  19958M 20030  20086M 20357
                                                 20368  20414M 20459  20470  20516M 20561  20572  20618M 20663  20674
                                                 20795M 21278  21289  21428M 21473  21484  21556M 21691  21707  21757M
                                                 22018  22100M 22833  22849  22964M 23044  23092M 23239  23250  23297M
                                                 23573  23585  23632M 24120  24131  24211M 25075  25091  25142M 25313
                                                 25324  25445M 25877  25927M 26263  26313M 27220  27274M 27422  27476M
                                                 27624  27678M 27746  27796M 27865  27937M 28260  28276  28359M 28503
                                                 28519  28638M 28714  28740M 28798  28825M 28883  28910M 29008  29036M
                                                 29126  29153M 29386  29414M 29547  29580M 29634  29667M 29721  29758M
                                                 29844  29884M 29938  29975M 30061  30107M 30184  30223M 30300  30340M
                                                 30519  30558M 30739  30777M 30834  30872M 30929
 WTOSG         1 00000000 00000000 A   T    2081  2081
 WYLEVAL       1 00000000 00000001     J     991   993   1009   1022   1035   1047   1060   1073   1086   1099   1112
                                                  1125   2365   2449   6189   6301   6581   6585   6588   6902   6929
                                                  7068   7088   7253   7877
1EVAL     (EVAL9204) (12:43) (15MAR04) Ordinary Symbol and Literal Cross Reference                                          Page  195
 XBSUB1        2 00000000 FFFFFFDC     H   24179 24261M 24261  24464  24620  25064
 XBSUB2        2 00000002 FFFFFFDC     H   24180 24268M 24268  25065
 XBSUB3        2 00000004 FFFFFFDC     H   24181 24275M 24275  25066
 XBWA          6 00000000 FFFFFFDC     J   24188 24212  24241U 25095  25097  25098
 XGBACK        4 000032B2 00000001     I   23569 23337B 23357B 23420B 23433B 23499B 23512B
 XGXIT         2 000032BE 00000001     H   23577 23567B
 XSBOOL        3 00000020 FFFFFFE6 C       7046 11168M 11210M 11370M 11412M 11572M 11614M 11814M 11856M 12056M 12098M
                                                 12298M 12340M 12817  12866
 XSBOPLVL      1 00000002 FFFFFFE6     X    7032  8076   8802  18174M 18288M 18406M 18632M 18801M 18951M 19198M 19314M
                                                 19430M 19546M 19662M 19778M 19894M 20010M
 XSBOPRTN      4 00000008 FFFFFFE6     A    7034  8809  18175  18289  18407  18633  18802  18952  19199  19315  19431
                                                 19547  19663  19779  19895  20011
 XSEND         4 00000000 FFFFFFE6         7017  8219   8244M 13527  15165M 20453M 20555M 20657M 21467M 21629M 21675M
 XSENTRY      80 00000000 FFFFFFE6     J    7067  7041   7044   7046   7048   7053   7055   7057   7315U  7322   7344
                                                  7586U  7591   7610   7938U  7948M  7948   8238M  8238   8985U  9002
                                                  9105U  9158   9261U  9313   9448U  9658U  9868U 10305U 10873U 11115U
                                                 11156M 11156  11198M 11198  11317U 11358M 11358  11400M 11400  11519U
                                                 11560M 11560  11602M 11602  11761U 11802M 11802  11844M 11844  12003U
                                                 12044M 12044  12086M 12086  12245U 12286M 12286  12328M 12328  12488U
                                                 12635U 12779U 12972U 13153U 13318U 13514U 13556M 13556  14108M 14108
                                                 15158U 15865U 16726U 17166U 17501U 17509M 17509  17783U 17791M 17791
                                                 18154U 18162M 18162  18268U 18276M 18276  18386U 18394M 18394  18515U
                                                 18620M 18620  18670M 18670  18781U 18789M 18789  18899U 18939M 18939
                                                 19076U 19178U 19186M 19186  19294U 19302M 19302  19410U 19418M 19418
                                                 19526U 19534M 19534  19642U 19650M 19650  19758U 19766M 19766  19874U
                                                 19882M 19882  19990U 19998M 19998  20118U 20446U 20548U 20650U 20827U
                                                 20835M 20835  21460U 21597U 21623M 21623  21669M 21669  23664U 25174U
                                                 25241  26527U 26535M 26535  26927U 27140U
 XSLENGTH      1 00002000 FFFFFFE6 A   U    6968  8892   8893   8895
 XSLENTRY    336 00000000 FFFFFFE6     U    6969  7059   7060   7182   8082   8893   8893   8900  13607  14015  20709
                                                 25352
 XSNULL        5 00000000 FFFFFFE6         7027  8348  13562M
 XSNUMB        2 00000020 FFFFFFE6 C       7044 12793  12842  16740M 17225M 18682M 26541M
 XSOPCHAR      4 0000000C FFFFFFE6     C    7035 13760  13906  18179M 18293M 18411M 18637M 18806M 18956M 19085M 19203M
                                                 19319M 19435M 19551M 19667M 19783M 19899M 20015M
 XSOPER        3 00000000 FFFFFFE6         7007  8069   8531   8630   8716  18168M 18282M 18400M 18626M 18795M 18945M
                                                 19192M 19308M 19424M 19540M 19656M 19772M 19888M 20004M
 XSSTART       1 00000000 FFFFFFE6         6987  7954M  8511   8570   8648  13544  13600
 XSSTRING      1 00000020 FFFFFFE6 C       7048 17521M 17803M
 XSSTRLEN      2 00000024 FFFFFFE6 C   H    7057  7365  10912  10915  10935M 13354  13357  17666M 17948M
 XSSTRLOC      1 00000026 FFFFFFE6 C   C    7055  7364  10911  10914  13353  13356  17526  17664  17808  17946
 XSTYPE        1 00000000 FFFFFFE6     R    6978  6987   6997   7007   7017   7027
 XSUOPLVL      1 00000001 FFFFFFE6     X    7031  8666   8734  18169M 18283M 18401M 18627M 18796M 18946M 19193M 19309M
                                                 19425M 19541M 19657M 19773M 19889M 20005M
 XSUOPRTN      4 00000004 FFFFFFE6     A    7033  8673   8741  18170  18284  18402  18628  18797  18947  19194  19310
                                                 19426  19542  19658  19774  19890  20006
 XSVAL         2 00000000 FFFFFFE6         6997  8019   8150   8551   8590   8784  11162M 11204M 11364M 11406M 11566M
                                                 11608M 11808M 11850M 12050M 12092M 12292M 12334M 13582  15875M 16734M
                                                 17219M 17515M 17797M 18528  18676M
 XSVALUE      12 00000024 FFFFFFE6 C   X    7053  7630   9123   9135M  9136M  9152M  9153M  9280   9292M  9308M  9470
                                                  9491   9508M  9680   9701   9718M  9890   9911   9981M 10317  10328
                                                 10329  10430  10453  10481M 11169M 11211M 11371M 11413M 11573M 11615M
                                                 11815M 11857M 12057M 12099M 12299M 12341M 12499  12516  12646  12663
                                                 12995  13008  13176  13189  17037  17042M 17362  17367M 18683M 25261
                                                 26543M 26704M 26705M 26929M 26930M 27159
 XVLARGS       2 000032CC 00000001     H   23622 25356
 XVLGNRC       2 00003202 00000001     H   23287 25362
 XVLINT        2 000036C8 00000001     H   25132 25370
 XVLSUBS       2 0000343E 00000001     H   24199 18058
1EVAL     (EVAL9204) (12:43) (15MAR04) Ordinary Symbol and Literal Cross Reference                                          Page  196
 XVLSYSFN      2 0000316E 00000001     H   23082 18068
 XXSSTART      8 00000000 FFFFFFE6     D    6966  6969   6975   7036
 XXXEVAL       2 000001E6 00000001     H    7885  8896  20743  25363
 XXXSCAN       2 00001392 00000001     H   14065  8903
 ZAPINT        2 000043EC 00000001     H   28900 13996
 ZAPINTR6      2 00004360 00000001     H   28628 28624
 ZAPINT2       2 0000442C 00000001     H   29026 14001
 ZAPINT3       2 0000446A 00000001     H   29143 18063
 ZAPINT4       2 000044EA 00000001     H   29404 18080
 ZAPOFFR2      2 00004394 00000001     H   28730 28544
 ZAPOFFR6      2 000043C0 00000001     H   28815 28811
 =A(ALPHA)
               4 000020EC 00000001     A   18070 16075
 =A(ARGERROR)
               4 000037D4 00000001     A   25366 23867  23890  23913  23938  24025
 =A(ARGLIMIT)
               4 000037CC 00000001     A   25364 23836
 =A(BADBOP)
               4 000028E4 00000001     A   20701 18178
 =A(BADQUOTE)
               4 00002124 00000001     A   18084 17691  17973
 =A(BADSUB)
               4 000037F4 00000001     A   25374 24704  24739  24785  24811  24855  24918  24977
 =A(BADSUB)
               4 00004948 00000001     A   30957 30822  30917
 =A(BADUOP)
               4 0000291C 00000001     A   20713 18631  18800  18950  19197  19313  19429  19545  19661  19777  19893
                                                 20009
 =A(BIGSUB)
               4 000037F0 00000001     A   25373 24665
 =A(EVALEXPR)
               4 000004FC 00000001     A    8897  7325   7594
 =A(EVLADD)
               4 000028F0 00000001     A   20704 18292
 =A(EVLAND)
               4 00002988 00000001     A   20740 20014
 =A(EVLCAT)
               4 0000293C 00000001     A   20721 18955
 =A(EVLCOMPR)
               4 000012C4 00000001     A   14007 11119  11321  11523  11765  12007  12249
 =A(EVLCPBOO)
               4 000012F4 00000001     A   14011 12825  12874
 =A(EVLCPNUM)
               4 000012F0 00000001     A   14010 12801  12850
 =A(EVLCPSTR)
               4 000012F8 00000001     A   14012 12883
 =A(EVLDIV)
               4 00002930 00000001     A   20718 18805
 =A(EVLEND)
               4 0000051C 00000001     A    8905  8287
 =A(EVLEQ)
               4 00002950 00000001     A   20726 19202
 =A(EVLGE)
               4 00002978 00000001     A   20736 19782
 =A(EVLGT)
               4 00002970 00000001     A   20734 19666
 =A(EVLLE)
               4 00002968 00000001     A   20732 19550
 =A(EVLLT)
1EVAL     (EVAL9204) (12:43) (15MAR04) Ordinary Symbol and Literal Cross Reference                                          Page  197
               4 00002960 00000001     A   20730 19434
 =A(EVLMULT)
               4 00002920 00000001     A   20714 18636
 =A(EVLNE)
               4 00002958 00000001     A   20728 19318
 =A(EVLNEG)
               4 000028F8 00000001     A   20706 18405
 =A(EVLNOT)
               4 000028E0 00000001     A   20700 18173
 =A(EVLOR)
               4 00002980 00000001     A   20738 19898
 =A(EVLPOS)
               4 000028EC 00000001     A   20703 18287
 =A(EVLSTACK)
               4 00000518 00000001     A    8904  8079   8228   8692   8760   8828
 =A(EVLSUBT)
               4 000028FC 00000001     A   20707 18410
 =A(GETSYSFN)
               4 000020E0 00000001     A   18067 15807
 =A(LONGDIV)
               4 000012A8 00000001     A   14000 10396  10435
 =A(LONGMULT)
               4 000012A0 00000001     A   13998  9943
 =A(MAKEBOOL)
               4 00001294 00000001     A   13995  9265  12497  12514  12644  12661  13158  13174
 =A(MAKECHAR)
               4 00004238 00000001     A   28543 25624
 =A(MAKEHEX)
               4 0000211C 00000001     A   18082 17040  17365
 =A(MAKEHEX)
               4 000030F4 00000001     A   22918 22404
 =A(MAKEINT)
               4 00000504 00000001     A    8899  7613
 =A(MAKEINT)
               4 000037FC 00000001     A   25376 25244
 =A(MAKEITOD)
               4 000030FC 00000001     A   22920 22587
 =A(MAKELTOD)
               4 0000292C 00000001     A   20717 18687
 =A(MAKELTOD)
               4 00003100 00000001     A   22921 22685
 =A(MAKENUMB)
               4 00001290 00000001     A   13994  8989   9109   9457   9474   9667   9684   9877   9894  10314  10321
                                                 12977  12993
 =A(MAKENUMB)
               4 000042DC 00000001     A   28560 27319  27521
 =A(MAKESTR)
               4 00000500 00000001     A    8898  7347
 =A(MAKESTR)
               4 000012B4 00000001     A   14003 10882  10898  13323  13339
 =A(MANYARGS)
               4 000037D0 00000001     A   25365 23844
 =A(MAXSTRLN)
               4 000012B8 00000001     A   14004 10929  10996
 =A(NOARGS)
               4 000037C0 00000001     A   25361 23699
 =A(NUMBER)
               4 000042C0 00000001     A   28553 26479
 =A(OTHER)
1EVAL     (EVAL9204) (12:43) (15MAR04) Ordinary Symbol and Literal Cross Reference                                          Page  198
               4 000042CC 00000001     A   28556 26572
 =A(OVERFLOW)
               4 0000129C 00000001     A   13997  9530   9740  10003  10503
 =A(OVERFLOW)
               4 00002110 00000001     A   18079 16826  16981  17311
 =A(OVERFLOW)
               4 000042E0 00000001     A   28561 27348  27378  27550  27580
 =A(PKONE)
               4 0000426C 00000001     A   28548 26111
 =A(PKZERO)
               4 00004230 00000001     A   28541 25548  26166  26542  27723  27841
 =A(SCANOPER)
               4 00000510 00000001     A    8902  8029
 =A(SCNALPHA)
               4 00002034 00000001     A   18024 14260
 =A(SCNAND)
               4 000030CC 00000001     A   22908 21913
 =A(SCNBAD)
               4 0000202C 00000001     A   18022 14225  17400
 =A(SCNBAD)
               4 00002944 00000001     A   20723 18983
 =A(SCNBLANK)
               4 00002024 00000001     A   18020 14190
 =A(SCNBLANK)
               4 0000304C 00000001     A   22876 20917
 =A(SCNCAT)
               4 0000207C 00000001     A   18042 14576
 =A(SCNCAT)
               4 00003084 00000001     A   22890 21162
 =A(SCNCOMMA)
               4 0000209C 00000001     A   18050 14716
 =A(SCNCOMMA)
               4 00003094 00000001     A   22894 21232
 =A(SCNCP)
               4 00002094 00000001     A   18048 14681
 =A(SCNDIV)
               4 00002074 00000001     A   18040 14541
 =A(SCNDIV)
               4 0000307C 00000001     A   22888 21127
 =A(SCNDOT)
               4 00002044 00000001     A   18028 14330
 =A(SCNDOT)
               4 000042D4 00000001     A   28558 26778  26848  26918
 =A(SCNDQ)
               4 00002054 00000001     A   18032 14401
 =A(SCNEQ)
               4 000030B4 00000001     A   22902 21850
 =A(SCNEXCPN)
               4 000020C4 00000001     A   18060 15599
 =A(SCNGE)
               4 000030EC 00000001     A   22916 21997
 =A(SCNGT)
               4 000030E4 00000001     A   22914 21976
 =A(SCNLE)
               4 000030DC 00000001     A   22912 21955
 =A(SCNLT)
               4 000030D4 00000001     A   22910 21934
 =A(SCNMINUS)
               4 00002064 00000001     A   18036 14471
1EVAL     (EVAL9204) (12:43) (15MAR04) Ordinary Symbol and Literal Cross Reference                                          Page  199
 =A(SCNMINUS)
               4 0000306C 00000001     A   22884 21057
 =A(SCNMULT)
               4 0000206C 00000001     A   18038 14506
 =A(SCNMULT)
               4 00003074 00000001     A   22886 21092
 =A(SCNNE)
               4 000030BC 00000001     A   22904 21871
 =A(SCNNOOP)
               4 00003054 00000001     A   22878 20952
 =A(SCNNOT)
               4 00002948 00000001     A   20724 19080
 =A(SCNNOT)
               4 000030AC 00000001     A   22900 21829
 =A(SCNNUMB)
               4 0000203C 00000001     A   18026 14295
 =A(SCNNUMB)
               4 000042C4 00000001     A   28554 26487  26630  26700
 =A(SCNOP)
               4 0000208C 00000001     A   18046 14646
 =A(SCNOR)
               4 000030C4 00000001     A   22906 21892
 =A(SCNOWORD)
               4 0000305C 00000001     A   22880 20987
 =A(SCNPLUS)
               4 0000205C 00000001     A   18034 14436
 =A(SCNPLUS)
               4 00003064 00000001     A   22882 21022
 =A(SCNSIMI)
               4 000020A4 00000001     A   18052 14751
 =A(SCNSIMI)
               4 0000309C 00000001     A   22896 21267
 =A(SCNSQ)
               4 0000204C 00000001     A   18030 14366
 =A(SCNTABLE)
               4 000020A8 00000001     A   18053 15020
 =A(SCNTILDA)
               4 00002084 00000001     A   18044 14611
 =A(SCNTILDA)
               4 0000308C 00000001     A   22892 21197
 =A(SCNTYPE)
               4 000020E8 00000001     A   18069 16022
 =A(SCNTYPE)
               4 000037A8 00000001     A   25355 23179
 =A(SCNTYPE)
               4 000042BC 00000001     A   28552 26464  27076
 =A(SCNVNAME)
               4 000020B0 00000001     A   18055 15463
 =A(SCNVNAME)
               4 000030A0 00000001     A   22897 21604
 =A(SCNVNAME)
               4 000037B0 00000001     A   25357 23327
 =A(SCNWOPER)
               4 000020C0 00000001     A   18059 15588
 =A(SCNWOPER)
               4 000030A4 00000001     A   22898 21650
 =A(SETCURR)
               4 00002928 00000001     A   20716 18658
 =A(SETMULT)
1EVAL     (EVAL9204) (12:43) (15MAR04) Ordinary Symbol and Literal Cross Reference                                          Page  200
               4 00002918 00000001     A   20712 18608
 =A(SMALLSUB)
               4 000037E8 00000001     A   25371 24638
 =A(STROFLOW)
               4 000012C0 00000001     A   14006 11004
 =A(SUBLIMIT)
               4 000037F8 00000001     A   25375 25001
 =A(TRTNAME)
               4 000020F0 00000001     A   18071 16096  16443
 =A(TRTNUMB)
               4 0000210C 00000001     A   18078 16749  16904  17234
 =A(UNDEFD)
               4 000020DC 00000001     A   18066 15789  15837
 =A(XVLARGS)
               4 000037AC 00000001     A   25356 23183
 =A(XVLGNRC)
               4 000037C4 00000001     A   25362 23801
 =A(XVLINT)
               4 000037E4 00000001     A   25370 24596
 =A(XVLSUBS)
               4 000020BC 00000001     A   18058 15544
 =A(XVLSYSFN)
               4 000020E4 00000001     A   18068 15823
 =A(XXXEVAL)
               4 000004F8 00000001     A    8896  7175   7802
 =A(XXXEVAL)
               4 00002994 00000001     A   20743 20151
 =A(XXXEVAL)
               4 000037C8 00000001     A   25363 23817  25228
 =A(XXXSCAN)
               4 00000514 00000001     A    8903  8050
 =A(ZAPINT)
               4 00001298 00000001     A   13996  9489   9699   9909  10326
 =A(ZAPINT2)
               4 000012AC 00000001     A   14001 10511
 =A(ZAPINT3)
               4 000020D0 00000001     A   18063 15686
 =A(ZAPINT4)
               4 00002114 00000001     A   18080 16865
 =A(ZAPOFFR2)
               4 0000423C 00000001     A   28544 25813  27157
 =A(0)         4 000012BC 00000001     A   14005 10948  11143  11185  11345  11387  11547  11589  11789  11831  12031
                                                 12073  12273  12315
 =A(0)         4 000020B4 00000001     A   18056 15478
 =A(0)         4 00002990 00000001     A   20742 20132
 =A(0)         4 000042C8 00000001     A   28555 26514  27127
 =A(00)        4 00002020 00000001     A   18019 14181
 =A(00)        4 00003048 00000001     A   22875 20908
 =A(04)        4 00002028 00000001     A   18021 14216
 =A(04)        4 00003050 00000001     A   22877 20943
 =A(08)        4 00002030 00000001     A   18023 14251
 =A(08)        4 00003058 00000001     A   22879 20978
 =A(1)         4 000012C8 00000001     A   14008 11631  11873  12115  12357
 =A(1)         4 000037B8 00000001     A   25359 23401  23443  23480  23522  23559  25061
 =A(12)        4 00002038 00000001     A   18025 14286  16818
 =A(12)        4 00003060 00000001     A   22881 21013
 =A(16)        4 00002040 00000001     A   18027 14321
 =A(16)        4 00003068 00000001     A   22883 21048
 =A(2)         4 00002120 00000001     A   18083 17181
1EVAL     (EVAL9204) (12:43) (15MAR04) Ordinary Symbol and Literal Cross Reference                                          Page  201
 =A(2)         4 00002938 00000001     A   20720 18927
 =A(2)         4 000042D0 00000001     A   28557 26619  26689  26770
 =A(20)        4 00003070 00000001     A   22885 21083
 =A(24)        4 00002048 00000001     A   18029 14357
 =A(24)        4 00003078 00000001     A   22887 21118
 =A(255)       4 000042EC 00000001     A   28564 28005  28427
 =A(28)        4 00002050 00000001     A   18031 14392
 =A(28)        4 00003080 00000001     A   22889 21153
 =A(3)         4 000042D8 00000001     A   28559 26837  26907
 =A(32)        4 00002058 00000001     A   18033 14427
 =A(32)        4 00003088 00000001     A   22891 21188
 =A(32000)
               4 000037EC 00000001     A   25372 24656
 =A(36)        4 00002060 00000001     A   18035 14462
 =A(36)        4 00003090 00000001     A   22893 21223
 =A(4)         4 000030F8 00000001     A   22919 22533  22570  22631  22668
 =A(4)         4 00004268 00000001     A   28547 26077
 =A(40)        4 00002068 00000001     A   18037 14497
 =A(40)        4 00003098 00000001     A   22895 21258
 =A(44)        4 00002070 00000001     A   18039 14532
 =A(48)        4 00002078 00000001     A   18041 14567
 =A(5)         4 00004270 00000001     A   28549 26132
 =A(52)        4 00002080 00000001     A   18043 14602
 =A(56)        4 00002088 00000001     A   18045 14637
 =A(60)        4 00002090 00000001     A   18047 14672
 =A(64)        4 00002098 00000001     A   18049 14707
 =A(68)        4 000020A0 00000001     A   18051 14742
 =A(8)         4 00002118 00000001     A   18081 16973  17303
 =AL4(L'VNNAME)
               4 000020F4 00000001     R   18072 16157  16503
 =AL4(L'XSLENTRY*((XSLENGTH/L'XSLENTRY)-1))
               4 000004E4 00000001     R    8893  7168   7795
 =AL4(L'XSLENTRY)
               4 00000508 00000001     R    8900  7957   8009   8026   8047   8089   8158   8247   8500   8559   8637
 =AL4(L'XSLENTRY)
               4 00001304 00000001     R   14015 13517  13534  13590
 =AL4(L'XSLENTRY)
               4 00002904 00000001     R   20709 18518  18559
 =AL4(L'XSLENTRY)
               4 00003794 00000001     R   25352 23129  24057  25178
 =AL4(XSLENGTH)
               4 000004F4 00000001     R    8895  7172   7188   7799   7812
 =AL4(XSLENGTH-16)
               4 000004E0 00000001     R    8892  7164   7791
 =C' is invalid.'
              12 0000493C 00000001     C   30956 30711
 =C' of '      4 00004938 00000001     C   30955 30689
 =C' of "'
               5 00004A5A 00000001     C   30972 30471
 =C'.0'        2 0000430E 00000001     C   28576 26743
 =C'.9'        2 00004310 00000001     C   28577 26756
 =C'+.0'       3 00004319 00000001     C   28580 26810
 =C'+.9'       3 0000431C 00000001     C   28581 26823
 =C'+0'        2 00004306 00000001     C   28572 26592
 =C'+9'        2 00004308 00000001     C   28573 26605
 =C')   -- invalid. '
              16 00003780 00000001     C   25350 24839
 =C'-.0'       3 0000431F 00000001     C   28582 26880
 =C'-.9'       3 00004322 00000001     C   28583 26893
1EVAL     (EVAL9204) (12:43) (15MAR04) Ordinary Symbol and Literal Cross Reference                                          Page  202
 =C'-0'        2 0000430A 00000001     C   28574 26662
 =C'-9'        2 0000430C 00000001     C   28575 26675
 =C': invalid hex constant. '
              24 00003030 00000001     C   22874 22811
 =C': invalid variable name.'
              24 00001FF0 00000001     C   18017 15518
 =C': missing subscripts. '
              22 0000212A 00000001     C   18086 15732
 =C': missing subscripts. '
              22 0000381C 00000001     C   25379 24436
 =C': too many subscripts specified for array. '
              43 0000386A 00000001     C   25382 25029
 =C'" .'       3 00004A57 00000001     C   30971 30275
 =C'" in expression. '
              17 00002155 00000001     C   18089 15305
 =C'" is invalid. '
              14 000049A8 00000001     C   30962 30494
 =C'" is not a valid binary operator. '
              34 0000133A 00000001     C   14019 13930
 =C'" is not a valid unary operator. '
              33 0000136B 00000001     C   14023 13784
 =C'" is undefined in expression. '
              30 0000494C 00000001     C   30958 29819
 =C'". '       3 00004A54 00000001     C   30970 30159
 =C'") are not allowed in an expression. '
              37 00004A2F 00000001     C   30969 30036
 =C'"'         1 0000136A 00000001     C   14022 13735  13881
 =C'"'         1 00004A0D 00000001     C   30967 29796
 =C'Argument #'
              10 0000499E 00000001     C   30961 30431
 =C'Arithmetic overflow. '
              21 000049D9 00000001     C   30965 29609
 =C'Array subscripts must be > 0. '
              30 000049B6 00000001     C   30963 30806
 =C'Boolean does not convert to number. '
              36 000012CC 00000001     C   14009 11641  11883  12125  12367
 =C'Boolean does not convert to number. '
              36 00004298 00000001     C   28551 26415
 =C'Divide by zero is illegal.'
              26 00001320 00000001     C   14018 10345
 =C'Expecting ")".  '
              16 000028D0 00000001     C   20699 20226
 =C'Expecting "]". '
              15 00003832 00000001     C   25380 24769
 =C'Expression stack overflow.'
              26 00000526 00000001     C    8908  7974   8106   8175   8264
 =C'Expression stack overflow.'
              26 0000299C 00000001     C   20745 18576
 =C'Expression stack overflow.'
              26 00003800 00000001     C   25377 23146  24074  25195
 =C'Function arguments must be separated by commas. '
              48 00003750 00000001     C   25349 24009
 =C'GBL.'      4 000020F8 00000001     C   18073 16320
 =C'Invalid character "'
              19 00002142 00000001     C   18088 15257
 =C'Invalid expression. '
              20 00001308 00000001     C   14016 13633
 =C'Mismatched quotes in expression. '
              33 00004A0E 00000001     C   30968 29913
1EVAL     (EVAL9204) (12:43) (15MAR04) Ordinary Symbol and Literal Cross Reference                                          Page  203
 =C'Missing operand(s) in expression. '
              34 000029B8 00000001     C   20747 20332
 =C'Missing operator in expression. '
              32 000004C0 00000001     C    8891  8601
 =C'N '        2 0000310E 00000001     C   22925 22217  22516
 =C'No arguments specified for "'
              28 00004910 00000001     C   30951 30136
 =C'Number does not convert to boolean. '
              36 00004240 00000001     C   28545 26021
 =C'Procedure calls ("'
              18 0000496A 00000001     C   30959 30013
 =C'PUB.'      4 00002104 00000001     C   18076 16398
 =C'S '        2 0000310C 00000001     C   22924 22203  22433
 =C'String does not convert to boolean. '
              36 00004274 00000001     C   28550 26195
 =C'String does not convert to number. '
              35 00004325 00000001     C   28584 26975  27027  27093
 =C'String overflow in expression. '
              31 000049EE 00000001     C   30966 29696
 =C'Subscript #'
              11 00004A5F 00000001     C   30973 30649
 =C'Subscript too big. '
              19 00004A6A 00000001     C   30974 30901
 =C'Subscripts must be separated by commas.  '
              41 00003841 00000001     C   25381 24901
 =C'SES.'      4 00002100 00000001     C   18075 16372
 =C'SYS.'      4 000020FC 00000001     C   18074 16346
 =C'Too many arguments specified for "'
              34 0000497C 00000001     C   30960 30252
 =C'Unmatched parenthesis in expression. '
              37 000029DA 00000001     C   20748 20262
 =C'W '        2 00003110 00000001     C   22926 22231  22614
 =C'X.'        2 00002140 00000001     C   18087 16294
 =C'000000000000000000000000'
              24 00002008 00000001     C   18018 16728  17213
 =CL12'SYS.STACKEND'
              12 000004E8 00000001     C    8894  7170   7797   7958   8090   8159   8248
 =CL12'SYS.STACKEND'
              12 00002908 00000001     C   20710 18560
 =CL12'SYS.STACKEND'
              12 00003798 00000001     C   25353 23130  24058  25179
 =CL4'+   '
               4 000028F4 00000001     C   20705 18293
 =CL4'||  '
               4 00002940 00000001     C   20722 18956
 =CL4'*   '
               4 00002924 00000001     C   20715 18637
 =CL4'~   '
               4 0000294C 00000001     C   20725 19085
 =CL4'-   '
               4 00002900 00000001     C   20708 18411
 =CL4'/   '
               4 00002934 00000001     C   20719 18806
 =CL4'AND '
               4 0000298C 00000001     C   20741 20015
 =CL4'AND '
               4 000030C8 00000001     C   22907 21899
 =CL4'EQ  '
               4 00002954 00000001     C   20727 19203
1EVAL     (EVAL9204) (12:43) (15MAR04) Ordinary Symbol and Literal Cross Reference                                          Page  204
 =CL4'EQ  '
               4 000030B0 00000001     C   22901 21836
 =CL4'GE  '
               4 0000297C 00000001     C   20737 19783
 =CL4'GE  '
               4 000030E8 00000001     C   22915 21983
 =CL4'GT  '
               4 00002974 00000001     C   20735 19667
 =CL4'GT  '
               4 000030E0 00000001     C   22913 21962
 =CL4'INT '
               4 000042E4 00000001     C   28562 27398
 =CL4'LE  '
               4 0000296C 00000001     C   20733 19551
 =CL4'LE  '
               4 000030D8 00000001     C   22911 21941
 =CL4'LNO '
               4 000042E8 00000001     C   28563 27600
 =CL4'LT  '
               4 00002964 00000001     C   20731 19435
 =CL4'LT  '
               4 000030D0 00000001     C   22909 21920
 =CL4'NE  '
               4 0000295C 00000001     C   20729 19319
 =CL4'NE  '
               4 000030B8 00000001     C   22903 21857
 =CL4'NOT '
               4 000028E8 00000001     C   20702 18179
 =CL4'NOT '
               4 000030A8 00000001     C   22899 21815
 =CL4'OR  '
               4 00002984 00000001     C   20739 19899
 =CL4'OR  '
               4 000030C0 00000001     C   22905 21878
 =CL4'TRUE'
               4 00004234 00000001     C   28542 25578  26086
 =CL5'FALSE'
               5 00004314 00000001     C   28579 25561  26141
 =F'-1'        4 000012FC 00000001     F   14013 13052  13403
 =F'-1'        4 000037E0 00000001     F   25369 24554
 =F'-4'        4 00000520 00000001     F    8906  8354
 =F'-4'        4 00002108 00000001     F   18077 16589
 =F'-4'        4 000030F0 00000001     F   22917 22144
 =F'-4'        4 000037BC 00000001     F   25360 23569  24105
 =F'-4'        4 0000492C 00000001     F   30952 30173  30289  30508
 =F'1'         4 000042F4 00000001     F   28566 28087
 =F'4'         4 000042FC 00000001     F   28568 28479
 =F'8'         4 000042F8 00000001     F   28567 28232
 =H'4'         2 00004302 00000001     H   28570 25579
 =H'5'         2 00004300 00000001     H   28569 25562
 =V(CHECKEND)
               4 00002998 00000001     V   20744 20245  20315
 =V(CHECKEND)
               4 000037D8 00000001     V   25367 24003  24895
 =V(GETARRAY)
               4 000020C8 00000001     V   18061 15656
 =V(GETSVAR)
               4 000020D8 00000001     V   18065 15763
 =V(GETVAR)
1EVAL     (EVAL9204) (12:43) (15MAR04) Ordinary Symbol and Literal Cross Reference                                          Page  205
               4 000020CC 00000001     V   18062 15671
 =V(GETVAR)
               4 000037B4 00000001     V   25358 23347
 =V(GTFNRTN)
               4 00003790 00000001     V   25351 23006
 =V(NSCAN)
               4 00003104 00000001     V   22922 22766
 =V(SEG)       4 0000050C 00000001     V    8901  7986   8118   8187   8276   8613
 =V(SEG)       4 000012A4 00000001     V   13999 10357  11653  11895  12137  12379  13645  13747  13796  13893  13942
 =V(SEG)       4 000020AC 00000001     V   18054 15269  15299  15317  15530  15744
 =V(SEG)       4 00002914 00000001     V   20711 18588  20238  20274  20344
 =V(SEG)       4 00003108 00000001     V   22923 22805  22823
 =V(SEG)       4 000037A4 00000001     V   25354 23158  24021  24086  24448  24781  24851  24913  25041  25207
 =V(SEG)       4 00004264 00000001     V   28546 26033  26207  26427  26987  27039  27105
 =V(SEG)       4 00004908 00000001     V   30949 29621  29708  29808  29831  29925  30025  30048  30148  30171  30264
                                                 30287  30443  30483  30506  30661  30701  30723  30818  30913
 =V(SEGCR)
               4 00004930 00000001     V   30953 30421  30639
 =V(SEGDC)
               4 00004934 00000001     V   30954 30465  30683
 =V(SEGT)      4 0000131C 00000001     V   14017 13778  13924
 =V(SEGT)      4 000020B8 00000001     V   18057 15512
 =V(SEGVNAME)
               4 000020D4 00000001     V   18064 15726
 =V(SEGVNAME)
               4 000037DC 00000001     V   25368 24430  25023
 =V(SEGVNAME)
               4 0000490C 00000001     V   30950 29813  30030  30153  30269  30488  30705
 =X'000000000F'
               5 000049D4 00000001     X   30964 29100  29330
 =X'0000000000'
               5 0000135C 00000001     X   14020  9501   9711   9974  10179  10474
 =X'0000000000FFFFFF000000000000000F'
              16 00001278 00000001     X   13992 10151
 =X'0000000000000000'
               8 00001288 00000001     X   13993 10415  10417  10457
 =X'0000000000000000FFFFFF000000000F'
              16 00001268 00000001     X   13991 10150
 =X'00000000000000000'
               9 00001361 00000001     X   14021  9922   9933  10375  10386
 =X'0000000000000000000000FFFFFF000F'
              16 00001258 00000001     X   13990 10149
 =X'0000000000000000000000000000FFFF'
              16 00001248 00000001     X   13989 10148
 =X'00000001'
               4 000012B0 00000001     X   14002 10749  10750
 =X'00000001'
               4 000042F0 00000001     X   28565 28031
 =X'40000000'
               4 00001300 00000001     X   14014 13358
 =Y((L'NSCNCB+3)/4*4)
               2 00003114 00000001     Y   22928 22781
 =Y((R1+1-(R0)+16*((R0)/(R1+1))/((R0)/(R1+1)))*4)
               2 00000524 00000001     Y    8907  7470
 =Y((R1+1-(R0)+16*((R0)/(R1+1))/((R0)/(R1+1)))*4)
               2 00002128 00000001     Y   18085 15272  17045  17370
 =Y((R1+1-(R0)+16*((R0)/(R1+1))/((R0)/(R1+1)))*4)
               2 000029B6 00000001     Y   20746 20241
 =Y((R1+1-(R0)+16*((R0)/(R1+1))/((R0)/(R1+1)))*4)
1EVAL     (EVAL9204) (12:43) (15MAR04) Ordinary Symbol and Literal Cross Reference                                          Page  206
               2 0000381A 00000001     Y   25378 23208
 =Y((R2+1-(R0)+16*((R0)/(R2+1))/((R0)/(R2+1)))*4)
               2 00004312 00000001     Y   28578 28247  28486
 =Y((12+3)/4*4)
               2 00003112 00000001     Y   22927 22772
 =Y(4)         2 00004304 00000001     Y   28571 25627

1EVAL     (EVAL9204) (12:43) (15MAR04) Macro and Copy Code Source Summary                                                   Page  207
- Con Source                                        Volume    Members                        HLASM R4.0  2004/03/15 12.43
0     PRIMARY INPUT                                           CSECT    DROP     END      EX       LONG     LTORG
                                                              OFLOW    POP      PRINT    PUSH     SAMEAS   SCNOP
                                                              SCNRTN   START    USING
   L1 WYL.GS.WYL.WYLBUR.MACLIB                      SYSB05    AINFO    BASE     BOMB     CALLRTNP COLINFO  COMMENT
                                                              CONTROL  CP       CPLOCAL  CV       CVLOCAL  JCB      RG
                                                              SAVERTNP SCAN     SCANCB   SCCBADR  SCINIT   SCPOP
                                                              SCPUSH   TCCR     TNUM     TSEG     TTYPE    VLTORG
                                                              VNENTRY  VPARM    XSDONE   XSENTRY  XSINIT   XSPOP
                                                              XSPUSH   XTRACE
   L2 WYL.GG.SYS.MACLIB                             SYSB05    $BC      $BFLKUP  $BV      $CCLKUP  $CRS     $CSS     $L
                                                              $LA      $LBLAD   $LEXP    $LOR     $REL     $RGLKUP
                                                              $USLKUP  ACALL    BEGIN    CLEAR    COMPROC  CSECT    DATA
                                                              DECR     DEFCC    DEX      DROP     DTEX     ELSE
                                                              ELSEIF   END      EX       FLAG     FLIP     GEN
                                                              HIBAL    IDENT    IF       INCR     LABEL    LC       LOOP
                                                              LS       LTORG    MOVE     PEND     POP      PRETURN
                                                              PRINT    PROC     PUSH     QLTORG   RECORD   REG      REGS
                                                              SET      SETMSG   START    USING    VCALL    WHILE    WITH
                                                              XPROC
   L3 SYS3.IS.MACLIB                                SYSB05    SEG      SEGCB    SEGCR    SEGDC    SEGLD    SEGT     SIB
                                                              SYSDEFN  XPOP     XPUSH

1EVAL     (EVAL9204) (12:43) (15MAR04) Dsect Cross Reference                                                                Page  208
-Dsect     Length      Id       Defn                                                         HLASM R4.0  2004/03/15 12.43
0$$$@R0   00000000  FFFFFFFE     705
 $$$@R1   00000000  FFFFFFFD     718
 $$$@R10  00000000  FFFFFFF4     835
 $$$@R11  00000000  FFFFFFF3     848
 $$$@R12  00000000  FFFFFFF2     861
 $$$@R13  00000000  FFFFFFF1     874
 $$$@R14  00000000  FFFFFFF0     887
 $$$@R15  00000000  FFFFFFEF     900
 $$$@R2   00000000  FFFFFFFC     731
 $$$@R3   00000000  FFFFFFFB     744
 $$$@R4   00000000  FFFFFFFA     757
 $$$@R5   00000000  FFFFFFF9     770
 $$$@R6   00000000  FFFFFFF8     783
 $$$@R7   00000000  FFFFFFF7     796
 $$$@R8   00000000  FFFFFFF6     809
 $$$@R9   00000000  FFFFFFF5     822
 $$$RCP   00001000  FFFFFFEC    2454
 $$$RCV   00000FB0  FFFFFFEE    1179
 $$$RDEV  0000000C  FFFFFFEB    4668
 $$$REVALWA
          00000008  FFFFFFE4    7862
 $$$REVLWA
          00000020  FFFFFFE3    9372
 $$$REVXWA
          00000150  FFFFFFE5    7239
 $$$REXCPWA
          000000F7  FFFFFFDD   22063
 $$$RJCB  000000D0  FFFFFFE9    6306
 $$$RLDWA 00000060  FFFFFFE1   10568
 $$$RLMWA 00000070  FFFFFFE2   10066
 $$$RMAKEWA
          00000150  FFFFFFDB   25410
 $$$RMCWA 00000200  FFFFFFD9   28324
 $$$RMHWA 00000210  FFFFFFDA   27901
 $$$RNSCNCB
          000000B0  FFFFFFED    2375
 $$$RSCNAWA
          00000008  FFFFFFE0   15380
 $$$RSCNNWA
          00000018  FFFFFFDF   16651
 $$$RSCNWWA
          00000008  FFFFFFDE   21521
 $$$RTTYPE
          0000010C  FFFFFFEA    6199
 $$$RVNENTRY
          00000050  FFFFFFE8    6602
 $$$RVPARM
          00000150  FFFFFFE7    6914
 $$$RXBWA 00000006  FFFFFFDC   24173
 $$$RXSENTRY
          00000050  FFFFFFE6    6960
 HIBAL    00000000  FFFFFFFF     691

1EVAL     (EVAL9204) (12:43) (15MAR04) Using Map                                                                            Page  209
-                                                                                            HLASM R4.0  2004/03/15 12.43
   Stmt  -----Location----- Action ----------------Using----------------- Reg Max    Last  Label and Using Text
           Count      Id           Type          Value    Range     Id        Disp   Stmt
0   922  00000000  FFFFFFFF USING  ORDINARY    00000000 00001000 FFFFFFEF  15 000          @R15,15
    926  00000000  FFFFFFFF USING  ORDINARY    00000000 00001000 FFFFFFF0  14 002   23205  @R14,14
    930  00000000  FFFFFFFF USING  ORDINARY    00000000 00001000 FFFFFFF1  13 000   22782  @R13,13
    934  00000000  FFFFFFFF USING  ORDINARY    00000000 00001000 FFFFFFF2  12 000          @R12,12
    938  00000000  FFFFFFFF USING  ORDINARY    00000000 00001000 FFFFFFF3  11 000          @R11,11
    942  00000000  FFFFFFFF USING  ORDINARY    00000000 00001000 FFFFFFF4  10 000          @R10,10
    946  00000000  FFFFFFFF USING  ORDINARY    00000000 00001000 FFFFFFF5   9 000          @R9,9
    950  00000000  FFFFFFFF USING  ORDINARY    00000000 00001000 FFFFFFF6   8 000          @R8,8
    954  00000000  FFFFFFFF USING  ORDINARY    00000000 00001000 FFFFFFF7   7 000          @R7,7
    958  00000000  FFFFFFFF USING  ORDINARY    00000000 00001000 FFFFFFF8   6 000          @R6,6
    962  00000000  FFFFFFFF USING  ORDINARY    00000000 00001000 FFFFFFF9   5 000          @R5,5
    966  00000000  FFFFFFFF USING  ORDINARY    00000000 00001000 FFFFFFFA   4 000   22332  @R4,4
    970  00000000  FFFFFFFF USING  ORDINARY    00000000 00001000 FFFFFFFB   3 000   25688  @R3,3
    974  00000000  FFFFFFFF USING  ORDINARY    00000000 00001000 FFFFFFFC   2 000          @R2,2
    978  00000000  FFFFFFFF USING  ORDINARY    00000000 00001000 FFFFFFFD   1 001   29475  @R1,1
    982  00000000  FFFFFFFF USING  ORDINARY    00000000 00001000 FFFFFFFE   0 000          @R0,0
    983  00000000  FFFFFFFF DROP                                            0              0
   1163  00000017  00000001 USING  ORDINARY    00000000 00001000 FFFFFFEC  11 D5A   30910  CP,CPR
   1172  00000017  00000001 USING  ORDINARY    00000000 00001000 FFFFFFEE  12 8A8   30876  CV,CVR
   7151  0000003C  00000001 USING  ORDINARY    0000003C 00001000 00000001   7 4BC    7188  $$$63B,7
   7197  0000007A  00000001 USING  ORDINARY    00000000 00001000 FFFFFFF7   7 000          @R7,7
   7290  000000A2  00000001 USING  ORDINARY    000000A2 00001000 00000001   7 482    7470  $$$66B,7
   7304  000000A2  00000001 USING  ORDINARY    FFFFFFD8 00001000 FFFFFFE5   8 028    7317  EVXWA-(4+36),R8
   7315  000000A2  00000001 USING  ORDINARY    00000000 00001000 FFFFFFE6   6 026    7365  XSENTRY,R6
   7482  00000118  00000001 USING  ORDINARY    00000000 00001000 FFFFFFF6   8 000          @R8,8
   7487  00000118  00000001 USING  ORDINARY    00000000 00001000 FFFFFFF7   7 000          @R7,7
   7506  00000126  00000001 USING  ORDINARY    00000000 00001000 FFFFFFF8   6 000          @R6,6
   7561  00000140  00000001 USING  ORDINARY    00000140 00001000 00000001   7 3C4    7664  $$$75B,7
   7575  00000140  00000001 USING  ORDINARY    FFFFFFD8 00001000 FFFFFFE5   8 028    7588  EVXWA-(4+36),R8
   7586  00000140  00000001 USING  ORDINARY    00000000 00001000 FFFFFFE6   6 024    7630  XSENTRY,R6
   7686  0000017C  00000001 USING  ORDINARY    00000000 00001000 FFFFFFF6   8 000          @R8,8
   7691  0000017C  00000001 USING  ORDINARY    00000000 00001000 FFFFFFF7   7 000          @R7,7
   7710  0000018A  00000001 USING  ORDINARY    00000000 00001000 FFFFFFF8   6 000          @R6,6
   7778  000001A4  00000001 USING  ORDINARY    000001A4 00001000 00000001   7 354    7812  $$$82B,7
   7821  000001D8  00000001 USING  ORDINARY    00000000 00001000 FFFFFFF7   7 000          @R7,7
   7913  00000200  00000001 USING  ORDINARY    00000200 00001000 00000001   7 326    8354  $$$85B,7
   7927  00000200  00000001 USING  ORDINARY    FFFFFFD8 00001000 FFFFFFE4   8 02C    8310  EVALWA-(4+36),R8
   7938  00000200  00000001 USING  ORDINARY    00000000 00001000 FFFFFFE6   6 008    8809  XSENTRY,R6
   8367  0000038A  00000001 USING  ORDINARY    00000000 00001000 FFFFFFF6   8 000          @R8,8
   8372  0000038A  00000001 USING  ORDINARY    00000000 00001000 FFFFFFF7   7 000          @R7,7
   8481  000003B2  00000001 USING  ORDINARY    000003B2 00001000 00000001   7 166    8838  $$$103B,7
   8862  000004AC  00000001 USING  ORDINARY    00000000 00001000 FFFFFFF7   7 000          @R7,7
   8881  000004BA  00000001 USING  ORDINARY    00000000 00001000 FFFFFFF8   6 000          @R6,6
   8969  0000055A  00000001 USING  ORDINARY    0000055A 00001000 00000001   7 D36    8997  $$$121B,7
   8985  0000055A  00000001 USING  ORDINARY    00000000 00001000 FFFFFFE6   2 000          XSENTRY,R2
   9013  0000056A  00000001 USING  ORDINARY    00000000 00001000 FFFFFFF7   7 000          @R7,7
   9032  00000578  00000001 USING  ORDINARY    00000000 00001000 FFFFFFFC   2 000          @R2,2
   9089  00000592  00000001 USING  ORDINARY    00000592 00001000 00000001   7 CFE    9146  $$$125B,7
   9105  00000592  00000001 USING  ORDINARY    00000000 00001000 FFFFFFE6   2 02F    9153  XSENTRY,R2
   9169  000005C4  00000001 USING  ORDINARY    00000000 00001000 FFFFFFF7   7 000          @R7,7
   9188  000005D2  00000001 USING  ORDINARY    00000000 00001000 FFFFFFFC   2 000          @R2,2
   9245  000005EC  00000001 USING  ORDINARY    000005EC 00001000 00000001   7 CA8    9308  $$$131B,7
   9261  000005EC  00000001 USING  ORDINARY    00000000 00001000 FFFFFFE6   2 024    9308  XSENTRY,R2
1EVAL     (EVAL9204) (12:43) (15MAR04) Using Map                                                                            Page  210
   9324  0000061C  00000001 USING  ORDINARY    00000000 00001000 FFFFFFF7   7 000          @R7,7
   9343  0000062A  00000001 USING  ORDINARY    00000000 00001000 FFFFFFFC   2 000          @R2,2
   9423  00000644  00000001 USING  ORDINARY    00000644 00001000 00000001   7 D18    9530  $$$137B,7
   9437  00000644  00000001 USING  ORDINARY    FFFFFFD8 00001000 FFFFFFE3   8 038    9508  EVLWA-(4+36),R8
   9448  00000644  00000001 USING  ORDINARY    00000000 00001000 FFFFFFE6   2 024    9508  XSENTRY,R2
   9550  00000694  00000001 USING  ORDINARY    00000000 00001000 FFFFFFF6   8 000          @R8,8
   9555  00000694  00000001 USING  ORDINARY    00000000 00001000 FFFFFFF7   7 000          @R7,7
   9574  000006A2  00000001 USING  ORDINARY    00000000 00001000 FFFFFFFC   2 000          @R2,2
   9633  000006BC  00000001 USING  ORDINARY    000006BC 00001000 00000001   7 CA0    9740  $$$144B,7
   9647  000006BC  00000001 USING  ORDINARY    FFFFFFD8 00001000 FFFFFFE3   8 038    9718  EVLWA-(4+36),R8
   9658  000006BC  00000001 USING  ORDINARY    00000000 00001000 FFFFFFE6   2 024    9718  XSENTRY,R2
   9760  0000070C  00000001 USING  ORDINARY    00000000 00001000 FFFFFFF6   8 000          @R8,8
   9765  0000070C  00000001 USING  ORDINARY    00000000 00001000 FFFFFFF7   7 000          @R7,7
   9784  0000071A  00000001 USING  ORDINARY    00000000 00001000 FFFFFFFC   2 000          @R2,2
   9843  00000734  00000001 USING  ORDINARY    00000734 00001000 00000001   7 C2D   10003  $$$151B,7
   9857  00000734  00000001 USING  ORDINARY    FFFFFFD8 00001000 FFFFFFE3   8 040    9981  EVLWA-(4+36),R8
   9868  00000734  00000001 USING  ORDINARY    00000000 00001000 FFFFFFE6   2 024    9981  XSENTRY,R2
  10023  000007B0  00000001 USING  ORDINARY    00000000 00001000 FFFFFFF6   8 000          @R8,8
  10028  000007B0  00000001 USING  ORDINARY    00000000 00001000 FFFFFFF7   7 000          @R7,7
  10047  000007BE  00000001 USING  ORDINARY    00000000 00001000 FFFFFFFC   2 000          @R2,2
  10122  000007D8  00000001 USING  ORDINARY    000007D8 00001000 00000001   7 B84   10180  $$$161B,7
  10136  000007D8  00000001 USING  ORDINARY    FFFFFFD8 00001000 FFFFFFE2   8 088   10193  LMWA-(4+36),R8
  10204  000008A6  00000001 USING  ORDINARY    00000000 00001000 FFFFFFF6   8 000          @R8,8
  10209  000008A6  00000001 USING  ORDINARY    00000000 00001000 FFFFFFF7   7 000          @R7,7
  10280  000008CE  00000001 USING  ORDINARY    000008CE 00001000 00000001   7 A93   10511  $$$165B,7
  10294  000008CE  00000001 USING  ORDINARY    FFFFFFD8 00001000 FFFFFFE3   8 040   10481  EVLWA-(4+36),R8
  10305  000008CE  00000001 USING  ORDINARY    00000000 00001000 FFFFFFE6   2 024   10481  XSENTRY,R2
  10522  000009C4  00000001 USING  ORDINARY    00000000 00001000 FFFFFFF6   8 000          @R8,8
  10527  000009C4  00000001 USING  ORDINARY    00000000 00001000 FFFFFFF7   7 000          @R7,7
  10546  000009D2  00000001 USING  ORDINARY    00000000 00001000 FFFFFFFC   2 000          @R2,2
  10623  000009EC  00000001 USING  ORDINARY    000009EC 00001000 00000001   7 8C4   10761  $$$176B,7
  10637  000009EC  00000001 USING  ORDINARY    FFFFFFD8 00001000 FFFFFFE1   8 087   10772  LDWA-(4+36),R8
  10783  00000A9E  00000001 USING  ORDINARY    00000000 00001000 FFFFFFF6   8 000          @R8,8
  10788  00000A9E  00000001 USING  ORDINARY    00000000 00001000 FFFFFFF7   7 000          @R7,7
  10857  00000AC6  00000001 USING  ORDINARY    00000AC6 00001000 00000001   7 8C6   11004  $$$187B,7
  10873  00000AC6  00000001 USING  ORDINARY    00000000 00001000 FFFFFFE6   2 026   10935  XSENTRY,R2
  11024  00000B22  00000001 USING  ORDINARY    00000000 00001000 FFFFFFF7   7 000          @R7,7
  11043  00000B30  00000001 USING  ORDINARY    00000000 00001000 FFFFFFFC   2 000          @R2,2
  11099  00000B4A  00000001 USING  ORDINARY    00000B4A 00001000 00000001   7 77A   11211  $$$197B,7
  11115  00000B4A  00000001 USING  ORDINARY    00000000 00001000 FFFFFFE6   2 024   11211  XSENTRY,R2
  11226  00000B90  00000001 USING  ORDINARY    00000000 00001000 FFFFFFF7   7 000          @R7,7
  11245  00000B9E  00000001 USING  ORDINARY    00000000 00001000 FFFFFFFC   2 000          @R2,2
  11301  00000BB8  00000001 USING  ORDINARY    00000BB8 00001000 00000001   7 70C   11413  $$$203B,7
  11317  00000BB8  00000001 USING  ORDINARY    00000000 00001000 FFFFFFE6   2 024   11413  XSENTRY,R2
  11428  00000BFE  00000001 USING  ORDINARY    00000000 00001000 FFFFFFF7   7 000          @R7,7
  11447  00000C0C  00000001 USING  ORDINARY    00000000 00001000 FFFFFFFC   2 000          @R2,2
  11503  00000C26  00000001 USING  ORDINARY    00000C26 00001000 00000001   7 6A6   11653  $$$209B,7
  11519  00000C26  00000001 USING  ORDINARY    00000000 00001000 FFFFFFE6   2 024   11615  XSENTRY,R2
  11670  00000C8A  00000001 USING  ORDINARY    00000000 00001000 FFFFFFF7   7 000          @R7,7
  11689  00000C98  00000001 USING  ORDINARY    00000000 00001000 FFFFFFFC   2 000          @R2,2
  11745  00000CB2  00000001 USING  ORDINARY    00000CB2 00001000 00000001   7 61A   11895  $$$216B,7
  11761  00000CB2  00000001 USING  ORDINARY    00000000 00001000 FFFFFFE6   2 024   11857  XSENTRY,R2
  11912  00000D16  00000001 USING  ORDINARY    00000000 00001000 FFFFFFF7   7 000          @R7,7
  11931  00000D24  00000001 USING  ORDINARY    00000000 00001000 FFFFFFFC   2 000          @R2,2
  11987  00000D3E  00000001 USING  ORDINARY    00000D3E 00001000 00000001   7 58E   12137  $$$223B,7
  12003  00000D3E  00000001 USING  ORDINARY    00000000 00001000 FFFFFFE6   2 024   12099  XSENTRY,R2
  12154  00000DA2  00000001 USING  ORDINARY    00000000 00001000 FFFFFFF7   7 000          @R7,7
  12173  00000DB0  00000001 USING  ORDINARY    00000000 00001000 FFFFFFFC   2 000          @R2,2
  12229  00000DCA  00000001 USING  ORDINARY    00000DCA 00001000 00000001   7 502   12379  $$$230B,7
1EVAL     (EVAL9204) (12:43) (15MAR04) Using Map                                                                            Page  211
  12245  00000DCA  00000001 USING  ORDINARY    00000000 00001000 FFFFFFE6   2 024   12341  XSENTRY,R2
  12396  00000E2E  00000001 USING  ORDINARY    00000000 00001000 FFFFFFF7   7 000          @R7,7
  12415  00000E3C  00000001 USING  ORDINARY    00000000 00001000 FFFFFFFC   2 000          @R2,2
  12472  00000E56  00000001 USING  ORDINARY    00000E56 00001000 00000001   7 43E   12523  $$$237B,7
  12488  00000E56  00000001 USING  ORDINARY    00000000 00001000 FFFFFFE6   2 024   12516  XSENTRY,R2
  12543  00000E7E  00000001 USING  ORDINARY    00000000 00001000 FFFFFFF7   7 000          @R7,7
  12562  00000E8C  00000001 USING  ORDINARY    00000000 00001000 FFFFFFFC   2 000          @R2,2
  12619  00000EA6  00000001 USING  ORDINARY    00000EA6 00001000 00000001   7 3EE   12670  $$$242B,7
  12635  00000EA6  00000001 USING  ORDINARY    00000000 00001000 FFFFFFE6   2 024   12663  XSENTRY,R2
  12690  00000ECE  00000001 USING  ORDINARY    00000000 00001000 FFFFFFF7   7 000          @R7,7
  12709  00000EDC  00000001 USING  ORDINARY    00000000 00001000 FFFFFFFC   2 000          @R2,2
  12763  00000EF6  00000001 USING  ORDINARY    00000EF6 00001000 00000001   7 402   12885  $$$247B,7
  12779  00000EF6  00000001 USING  ORDINARY    00000000 00001000 FFFFFFE6   2 020   12866  XSENTRY,R2
  12897  00000F50  00000001 USING  ORDINARY    00000000 00001000 FFFFFFF7   7 000          @R7,7
  12916  00000F5E  00000001 USING  ORDINARY    00000000 00001000 FFFFFFFC   2 000          @R2,2
  12956  00000F78  00000001 USING  ORDINARY    00000F78 00001000 00000001   7 384   13052  $$$254B,7
  12972  00000F78  00000001 USING  ORDINARY    00000000 00001000 FFFFFFE6   2 024   13008  XSENTRY,R2
  13078  00000FBC  00000001 USING  ORDINARY    00000000 00001000 FFFFFFF7   7 000          @R7,7
  13097  00000FCA  00000001 USING  ORDINARY    00000000 00001000 FFFFFFFC   2 000          @R2,2
  13137  00000FE4  00000001 USING  ORDINARY    00000FE4 00001000 00000001   7 2B0   13212  $$$262B,7
  13153  00000FE4  00000001 USING  ORDINARY    00000000 00001000 FFFFFFE6   2 024   13189  XSENTRY,R2
  13243  00001022  00000001 USING  ORDINARY    00000000 00001000 FFFFFFF7   7 000          @R7,7
  13262  00001030  00000001 USING  ORDINARY    00000000 00001000 FFFFFFFC   2 000          @R2,2
  13302  0000104A  00000001 USING  ORDINARY    0000104A 00001000 00000001   7 2B6   13403  $$$269B,7
  13318  0000104A  00000001 USING  ORDINARY    00000000 00001000 FFFFFFE6   2 026   13357  XSENTRY,R2
  13429  0000109C  00000001 USING  ORDINARY    00000000 00001000 FFFFFFF7   7 000          @R7,7
  13448  000010AA  00000001 USING  ORDINARY    00000000 00001000 FFFFFFFC   2 000   17839  @R2,2
  13498  000010C4  00000001 USING  ORDINARY    000010C4 00001000 00000001   7 244   13645  $$$277B,7
  13514  000010C4  00000001 USING  ORDINARY    00000000 00001000 FFFFFFE6   6 00C   14108  XSENTRY,R6
  13659  00001130  00000001 USING  ORDINARY    00000000 00001000 FFFFFFF7   7 000          @R7,7
  13720  00001158  00000001 USING  ORDINARY    00001158 00001000 00000001   7 213   13796  $$$284B,7
  13805  00001196  00000001 USING  ORDINARY    00000000 00001000 FFFFFFF7   7 000          @R7,7
  13866  000011BE  00000001 USING  ORDINARY    000011BE 00001000 00000001   7 1AC   13942  $$$287B,7
  13951  000011FC  00000001 USING  ORDINARY    00000000 00001000 FFFFFFF7   7 000          @R7,7
  14091  000013AC  00000001 USING  ORDINARY    000013AC 00001000 00000001   7 DBA   14751  $$$290B,7
  14769  00001500  00000001 USING  ORDINARY    00000000 00001000 FFFFFFF7   7 000          @R7,7
  14788  0000150E  00000001 USING  ORDINARY    00000000 00001000 FFFFFFF8   6 000          @R6,6
  15006  00001872  00000001 USING  ORDINARY    00001872 00001000 00000001   7 8FA   15060  $$$330B,7
  15085  0000189A  00000001 USING  ORDINARY    00000000 00001000 FFFFFFF7   7 000          @R7,7
  15142  000018C2  00000001 USING  ORDINARY    000018C2 00001000 00000001   7 000          $$$337B,7
  15158  000018C2  00000001 USING  ORDINARY    00000000 00001000 FFFFFFE6   6 000   15165  XSENTRY,R6
  15178  000018CC  00000001 USING  ORDINARY    00000000 00001000 FFFFFFF7   7 000          @R7,7
  15197  000018DA  00000001 USING  ORDINARY    00000000 00001000 FFFFFFF8   6 000          @R6,6
  15241  000018F4  00000001 USING  ORDINARY    000018F4 00001000 00000001   7 861   15317  $$$340B,7
  15326  0000193A  00000001 USING  ORDINARY    00000000 00001000 FFFFFFF7   7 000          @R7,7
  15431  00001962  00000001 USING  ORDINARY    00001962 00001000 00000001   7 7C8   15891  $$$343B,7
  15445  00001962  00000001 USING  ORDINARY    FFFFFFD8 00001000 FFFFFFE0   8 028   15898  SCNAWA-(4+36),R8
  15456  00001962  00000001 USING  ORDINARY    00000000 00001000 FFFFFFE8   6 020   15852  VNENTRY,R6
  15862  00001AC8  00000001 USING  ORDINARY    00000000 00001000 FFFFFFF8   6 000          @R6,6
  15865  00001AC8  00000001 USING  ORDINARY    00000000 00001000 FFFFFFE6   6 000   15875  XSENTRY,R6
  15886  00001ACC  00000001 USING  ORDINARY    00000000 00001000 FFFFFFF8   6 000          @R6,6
  15889  00001ACC  00000001 USING  ORDINARY    00000000 00001000 FFFFFFE8   6 000          VNENTRY,6
  15907  00001AD8  00000001 USING  ORDINARY    00000000 00001000 FFFFFFF6   8 000          @R8,8
  15912  00001AD8  00000001 USING  ORDINARY    00000000 00001000 FFFFFFF7   7 000          @R7,7
  15931  00001AE6  00000001 USING  ORDINARY    00000000 00001000 FFFFFFF8   6 000          @R6,6
  15991  00001B00  00000001 USING  ORDINARY    00001B00 00001000 00000001   7 690   16595  $$$356B,7
  16007  00001B00  00000001 USING  ORDINARY    00000000 00001000 FFFFFFE8   6 010   16570  VNENTRY,R6
  16607  00001C78  00000001 USING  ORDINARY    00000000 00001000 FFFFFFF7   7 000          @R7,7
  16626  00001C86  00000001 USING  ORDINARY    00000000 00001000 FFFFFFF8   6 000          @R6,6
1EVAL     (EVAL9204) (12:43) (15MAR04) Using Map                                                                            Page  212
  16701  00001CA0  00000001 USING  ORDINARY    00001CA0 00001000 00000001   7 508   17045  $$$390B,7
  16715  00001CA0  00000001 USING  ORDINARY    FFFFFFD8 00001000 FFFFFFDF   8 036   17036  SCNNWA-(4+36),R8
  16726  00001CA0  00000001 USING  ORDINARY    00000000 00001000 FFFFFFE6   6 02F   17042  XSENTRY,R6
  17062  00001D84  00000001 USING  ORDINARY    00000000 00001000 FFFFFFF6   8 000          @R8,8
  17067  00001D84  00000001 USING  ORDINARY    00000000 00001000 FFFFFFF7   7 000          @R7,7
  17086  00001D92  00000001 USING  ORDINARY    00000000 00001000 FFFFFFF8   6 000          @R6,6
  17141  00001DAC  00000001 USING  ORDINARY    00001DAC 00001000 00000001   7 408   17402  $$$410B,7
  17155  00001DAC  00000001 USING  ORDINARY    FFFFFFD8 00001000 FFFFFFDF   8 036   17361  SCNNWA-(4+36),R8
  17166  00001DAC  00000001 USING  ORDINARY    00000000 00001000 FFFFFFE6   6 02F   17367  XSENTRY,R6
  17418  00001E58  00000001 USING  ORDINARY    00000000 00001000 FFFFFFF6   8 000          @R8,8
  17423  00001E58  00000001 USING  ORDINARY    00000000 00001000 FFFFFFF7   7 000          @R7,7
  17442  00001E66  00000001 USING  ORDINARY    00000000 00001000 FFFFFFF8   6 000          @R6,6
  17485  00001E80  00000001 USING  ORDINARY    00001E80 00001000 00000001   7 2A4   17691  $$$425B,7
  17501  00001E80  00000001 USING  ORDINARY    00000000 00001000 FFFFFFE6   6 026   17666  XSENTRY,R6
  17705  00001F1A  00000001 USING  ORDINARY    00000000 00001000 FFFFFFF7   7 000          @R7,7
  17724  00001F28  00000001 USING  ORDINARY    00000000 00001000 FFFFFFF8   6 000          @R6,6
  17767  00001F42  00000001 USING  ORDINARY    00001F42 00001000 00000001   7 1E2   17973  $$$438B,7
  17783  00001F42  00000001 USING  ORDINARY    00000000 00001000 FFFFFFE6   6 026   17948  XSENTRY,R6
  17987  00001FDC  00000001 USING  ORDINARY    00000000 00001000 FFFFFFF7   7 000          @R7,7
  18006  00001FEA  00000001 USING  ORDINARY    00000000 00001000 FFFFFFF8   6 000          @R6,6
  18138  000021D4  00000001 USING  ORDINARY    000021D4 00001000 00000001   7 714   18179  $$$451B,7
  18154  000021D4  00000001 USING  ORDINARY    00000000 00001000 FFFFFFE6   6 00C   18179  XSENTRY,R6
  18190  00002202  00000001 USING  ORDINARY    00000000 00001000 FFFFFFF7   7 000          @R7,7
  18209  00002210  00000001 USING  ORDINARY    00000000 00001000 FFFFFFF8   6 000          @R6,6
  18252  0000222A  00000001 USING  ORDINARY    0000222A 00001000 00000001   7 6CA   18293  $$$454B,7
  18268  0000222A  00000001 USING  ORDINARY    00000000 00001000 FFFFFFE6   6 00C   18293  XSENTRY,R6
  18308  00002262  00000001 USING  ORDINARY    00000000 00001000 FFFFFFF7   7 000          @R7,7
  18327  00002270  00000001 USING  ORDINARY    00000000 00001000 FFFFFFF8   6 000          @R6,6
  18370  0000228A  00000001 USING  ORDINARY    0000228A 00001000 00000001   7 676   18411  $$$457B,7
  18386  0000228A  00000001 USING  ORDINARY    00000000 00001000 FFFFFFE6   6 00C   18411  XSENTRY,R6
  18426  000022C2  00000001 USING  ORDINARY    00000000 00001000 FFFFFFF7   7 000          @R7,7
  18445  000022D0  00000001 USING  ORDINARY    00000000 00001000 FFFFFFF8   6 000          @R6,6
  18499  000022EA  00000001 USING  ORDINARY    000022EA 00001000 00000001   7 6B2   18687  $$$460B,7
  18515  000022EA  00000001 USING  ORDINARY    00000000 00001000 FFFFFFE6   6 024   18683  XSENTRY,R6
  18703  0000238E  00000001 USING  ORDINARY    00000000 00001000 FFFFFFF7   7 000          @R7,7
  18722  0000239C  00000001 USING  ORDINARY    00000000 00001000 FFFFFFF8   6 000          @R6,6
  18765  000023B6  00000001 USING  ORDINARY    000023B6 00001000 00000001   7 57E   18806  $$$468B,7
  18781  000023B6  00000001 USING  ORDINARY    00000000 00001000 FFFFFFE6   6 00C   18806  XSENTRY,R6
  18821  000023EE  00000001 USING  ORDINARY    00000000 00001000 FFFFFFF7   7 000          @R7,7
  18840  000023FC  00000001 USING  ORDINARY    00000000 00001000 FFFFFFF8   6 000          @R6,6
  18883  00002416  00000001 USING  ORDINARY    00002416 00001000 00000001   7 52E   18983  $$$471B,7
  18899  00002416  00000001 USING  ORDINARY    00000000 00001000 FFFFFFE6   6 00C   18956  XSENTRY,R6
  18997  0000246A  00000001 USING  ORDINARY    00000000 00001000 FFFFFFF7   7 000          @R7,7
  19016  00002478  00000001 USING  ORDINARY    00000000 00001000 FFFFFFF8   6 000          @R6,6
  19060  00002492  00000001 USING  ORDINARY    00002492 00001000 00000001   7 4BA   19085  $$$477B,7
  19076  00002492  00000001 USING  ORDINARY    00000000 00001000 FFFFFFE6   6 00C   19085  XSENTRY,R6
  19098  000024AA  00000001 USING  ORDINARY    00000000 00001000 FFFFFFF7   7 000          @R7,7
  19117  000024B8  00000001 USING  ORDINARY    00000000 00001000 FFFFFFF8   6 000          @R6,6
  19162  000024D2  00000001 USING  ORDINARY    000024D2 00001000 00000001   7 482   19203  $$$480B,7
  19178  000024D2  00000001 USING  ORDINARY    00000000 00001000 FFFFFFE6   6 00C   19203  XSENTRY,R6
  19214  00002500  00000001 USING  ORDINARY    00000000 00001000 FFFFFFF7   7 000          @R7,7
  19233  0000250E  00000001 USING  ORDINARY    00000000 00001000 FFFFFFF8   6 000          @R6,6
  19278  00002528  00000001 USING  ORDINARY    00002528 00001000 00000001   7 434   19319  $$$483B,7
  19294  00002528  00000001 USING  ORDINARY    00000000 00001000 FFFFFFE6   6 00C   19319  XSENTRY,R6
  19330  00002556  00000001 USING  ORDINARY    00000000 00001000 FFFFFFF7   7 000          @R7,7
  19349  00002564  00000001 USING  ORDINARY    00000000 00001000 FFFFFFF8   6 000          @R6,6
  19394  0000257E  00000001 USING  ORDINARY    0000257E 00001000 00000001   7 3E6   19435  $$$486B,7
  19410  0000257E  00000001 USING  ORDINARY    00000000 00001000 FFFFFFE6   6 00C   19435  XSENTRY,R6
  19446  000025AC  00000001 USING  ORDINARY    00000000 00001000 FFFFFFF7   7 000          @R7,7
1EVAL     (EVAL9204) (12:43) (15MAR04) Using Map                                                                            Page  213
  19465  000025BA  00000001 USING  ORDINARY    00000000 00001000 FFFFFFF8   6 000          @R6,6
  19510  000025D4  00000001 USING  ORDINARY    000025D4 00001000 00000001   7 398   19551  $$$489B,7
  19526  000025D4  00000001 USING  ORDINARY    00000000 00001000 FFFFFFE6   6 00C   19551  XSENTRY,R6
  19562  00002602  00000001 USING  ORDINARY    00000000 00001000 FFFFFFF7   7 000          @R7,7
  19581  00002610  00000001 USING  ORDINARY    00000000 00001000 FFFFFFF8   6 000          @R6,6
  19626  0000262A  00000001 USING  ORDINARY    0000262A 00001000 00000001   7 34A   19667  $$$492B,7
  19642  0000262A  00000001 USING  ORDINARY    00000000 00001000 FFFFFFE6   6 00C   19667  XSENTRY,R6
  19678  00002658  00000001 USING  ORDINARY    00000000 00001000 FFFFFFF7   7 000          @R7,7
  19697  00002666  00000001 USING  ORDINARY    00000000 00001000 FFFFFFF8   6 000          @R6,6
  19742  00002680  00000001 USING  ORDINARY    00002680 00001000 00000001   7 2FC   19783  $$$495B,7
  19758  00002680  00000001 USING  ORDINARY    00000000 00001000 FFFFFFE6   6 00C   19783  XSENTRY,R6
  19794  000026AE  00000001 USING  ORDINARY    00000000 00001000 FFFFFFF7   7 000          @R7,7
  19813  000026BC  00000001 USING  ORDINARY    00000000 00001000 FFFFFFF8   6 000          @R6,6
  19858  000026D6  00000001 USING  ORDINARY    000026D6 00001000 00000001   7 2AE   19899  $$$498B,7
  19874  000026D6  00000001 USING  ORDINARY    00000000 00001000 FFFFFFE6   6 00C   19899  XSENTRY,R6
  19910  00002704  00000001 USING  ORDINARY    00000000 00001000 FFFFFFF7   7 000          @R7,7
  19929  00002712  00000001 USING  ORDINARY    00000000 00001000 FFFFFFF8   6 000          @R6,6
  19974  0000272C  00000001 USING  ORDINARY    0000272C 00001000 00000001   7 260   20015  $$$501B,7
  19990  0000272C  00000001 USING  ORDINARY    00000000 00001000 FFFFFFE6   6 00C   20015  XSENTRY,R6
  20026  0000275A  00000001 USING  ORDINARY    00000000 00001000 FFFFFFF7   7 000          @R7,7
  20045  00002768  00000001 USING  ORDINARY    00000000 00001000 FFFFFFF8   6 000          @R6,6
  20102  00002782  00000001 USING  ORDINARY    00002782 00001000 00000001   7 258   20344  $$$504B,7
  20118  00002782  00000001 USING  ORDINARY    00000000 00001000 FFFFFFE6   6 000          XSENTRY,R6
  20364  00002826  00000001 USING  ORDINARY    00000000 00001000 FFFFFFF7   7 000          @R7,7
  20383  00002834  00000001 USING  ORDINARY    00000000 00001000 FFFFFFF8   6 000          @R6,6
  20430  0000284E  00000001 USING  ORDINARY    0000284E 00001000 00000001   7 000          $$$516B,7
  20446  0000284E  00000001 USING  ORDINARY    00000000 00001000 FFFFFFE6   6 000   20453  XSENTRY,R6
  20466  00002858  00000001 USING  ORDINARY    00000000 00001000 FFFFFFF7   7 000          @R7,7
  20485  00002866  00000001 USING  ORDINARY    00000000 00001000 FFFFFFF8   6 000          @R6,6
  20532  00002880  00000001 USING  ORDINARY    00002880 00001000 00000001   7 000          $$$519B,7
  20548  00002880  00000001 USING  ORDINARY    00000000 00001000 FFFFFFE6   6 000   20555  XSENTRY,R6
  20568  0000288A  00000001 USING  ORDINARY    00000000 00001000 FFFFFFF7   7 000          @R7,7
  20587  00002898  00000001 USING  ORDINARY    00000000 00001000 FFFFFFF8   6 000          @R6,6
  20634  000028B2  00000001 USING  ORDINARY    000028B2 00001000 00000001   7 000          $$$522B,7
  20650  000028B2  00000001 USING  ORDINARY    00000000 00001000 FFFFFFE6   6 000   20657  XSENTRY,R6
  20670  000028BC  00000001 USING  ORDINARY    00000000 00001000 FFFFFFF7   7 000          @R7,7
  20689  000028CA  00000001 USING  ORDINARY    00000000 00001000 FFFFFFF8   6 000          @R6,6
  20811  00002A1A  00000001 USING  ORDINARY    00002A1A 00001000 00000001   7 6FC   21267  $$$525B,7
  20827  00002A1A  00000001 USING  ORDINARY    00000000 00001000 FFFFFFE6   6 000   20835  XSENTRY,R6
  21285  00002B02  00000001 USING  ORDINARY    00000000 00001000 FFFFFFF7   7 000          @R7,7
  21304  00002B10  00000001 USING  ORDINARY    00000000 00001000 FFFFFFF8   6 000          @R6,6
  21444  00002C56  00000001 USING  ORDINARY    00002C56 00001000 00000001   7 000          $$$553B,7
  21460  00002C56  00000001 USING  ORDINARY    00000000 00001000 FFFFFFE6   6 000   21467  XSENTRY,R6
  21480  00002C60  00000001 USING  ORDINARY    00000000 00001000 FFFFFFF7   7 000          @R7,7
  21499  00002C6E  00000001 USING  ORDINARY    00000000 00001000 FFFFFFF8   6 000          @R6,6
  21572  00002C88  00000001 USING  ORDINARY    00002C88 00001000 00000001   7 41C   21658  $$$556B,7
  21586  00002C88  00000001 USING  ORDINARY    FFFFFFD8 00001000 FFFFFFDE   8 02C   21677  SCNWWA-(4+36),R8
  21597  00002C88  00000001 USING  ORDINARY    00000000 00001000 FFFFFFE6   6 000   21675  XSENTRY,R6
  21698  00002CD4  00000001 USING  ORDINARY    00000000 00001000 FFFFFFF6   8 000          @R8,8
  21703  00002CD4  00000001 USING  ORDINARY    00000000 00001000 FFFFFFF7   7 000          @R7,7
  21722  00002CE2  00000001 USING  ORDINARY    00000000 00001000 FFFFFFF8   6 000          @R6,6
  21773  00002CFC  00000001 USING  ORDINARY    00002CFC 00001000 00000001   7 3F0   21999  $$$562B,7
  21789  00002CFC  00000001 USING  ORDINARY    00000000 00001000 FFFFFFE8   2 010   21983  VNENTRY,R2
  22014  00002DC4  00000001 USING  ORDINARY    00000000 00001000 FFFFFFF7   7 000          @R7,7
  22033  00002DD2  00000001 USING  ORDINARY    00000000 00001000 FFFFFFFC   2 000          @R2,2
  22116  00002DEC  00000001 USING  ORDINARY    00002DEC 00001000 00000001   7 330   22828  $$$575B,7
  22130  00002DEC  00000001 USING  ORDINARY    FFFFFFD8 00001000 FFFFFFDD   8 034   22826  EXCPWA-(4+36),R8
  22141  00002DEC  00000001 USING  ORDINARY    00000000 00001000 FFFFFFE8   6 026   22681  VNENTRY,R6
  22840  00003022  00000001 USING  ORDINARY    00000000 00001000 FFFFFFF6   8 000          @R8,8
1EVAL     (EVAL9204) (12:43) (15MAR04) Using Map                                                                            Page  214
  22845  00003022  00000001 USING  ORDINARY    00000000 00001000 FFFFFFF7   7 000          @R7,7
  22864  00003030  00000001 USING  ORDINARY    00000000 00001000 FFFFFFF8   6 000          @R6,6
  22980  0000313C  00000001 USING  ORDINARY    0000313C 00001000 00000001   7 654   23016  $$$609B,7
  22996  0000313C  00000001 USING  ORDINARY    00000000 00001000 FFFFFFE8   6 024   23028  VNENTRY,R6
  23040  00003160  00000001 USING  ORDINARY    00000000 00001000 FFFFFFF7   7 000          @R7,7
  23059  0000316E  00000001 USING  ORDINARY    00000000 00001000 FFFFFFF8   6 000          @R6,6
  23108  00003188  00000001 USING  ORDINARY    00003188 00001000 00000001   7 692   23227  $$$613B,7
  23124  00003188  00000001 USING  ORDINARY    00000000 00001000 FFFFFFE8   6 024   23202  VNENTRY,R6
  23246  000031F4  00000001 USING  ORDINARY    00000000 00001000 FFFFFFF7   7 000          @R7,7
  23265  00003202  00000001 USING  ORDINARY    00000000 00001000 FFFFFFF8   6 000          @R6,6
  23313  0000321C  00000001 USING  ORDINARY    0000321C 00001000 00000001   7 5A0   23569  $$$620B,7
  23581  000032BE  00000001 USING  ORDINARY    00000000 00001000 FFFFFFF7   7 000          @R7,7
  23648  000032E6  00000001 USING  ORDINARY    000032E6 00001000 00000001   7 51A   24114  $$$638B,7
  23664  000032E6  00000001 USING  ORDINARY    00000000 00001000 FFFFFFE6   6 000          XSENTRY,R6
  24127  00003430  00000001 USING  ORDINARY    00000000 00001000 FFFFFFF7   7 000          @R7,7
  24146  0000343E  00000001 USING  ORDINARY    00000000 00001000 FFFFFFF8   6 000          @R6,6
  24227  00003458  00000001 USING  ORDINARY    00003458 00001000 00000001   7 412   25061  $$$661B,7
  24241  00003458  00000001 USING  ORDINARY    FFFFFFD8 00001000 FFFFFFDC   8 02C   25066  XBWA-(4+36),R8
  24252  00003458  00000001 USING  ORDINARY    00000000 00001000 FFFFFFE8   6 016   25066  VNENTRY,R6
  25082  000036BA  00000001 USING  ORDINARY    00000000 00001000 FFFFFFF6   8 000          @R8,8
  25087  000036BA  00000001 USING  ORDINARY    00000000 00001000 FFFFFFF7   7 000          @R7,7
  25106  000036C8  00000001 USING  ORDINARY    00000000 00001000 FFFFFFF8   6 000          @R6,6
  25158  000036E2  00000001 USING  ORDINARY    000036E2 00001000 00000001   7 11E   25295  $$$700B,7
  25174  000036E2  00000001 USING  ORDINARY    00000000 00001000 FFFFFFE6   6 024   25261  XSENTRY,R6
  25320  00003740  00000001 USING  ORDINARY    00000000 00001000 FFFFFFF7   7 000          @R7,7
  25339  0000374E  00000001 USING  ORDINARY    00000000 00001000 FFFFFFF8   6 000          @R6,6
  25461  000038B0  00000001 USING  ORDINARY    000038B0 00001000 00000001   7 A64   25851  $$$709B,7
  25475  000038B0  00000001 USING  ORDINARY    FFFFFFD8 00001000 FFFFFFDB   8 03D   25631  MAKEWA-(4+36),R8
  25486  000038B0  00000001 USING  ORDINARY    00000000 00001000 FFFFFFE8   2 02F   25823  VNENTRY,R2
  25868  000039E4  00000001 USING  ORDINARY    00000000 00001000 FFFFFFF6   8 000          @R8,8
  25873  000039E4  00000001 USING  ORDINARY    00000000 00001000 FFFFFFF7   7 000          @R7,7
  25892  000039F2  00000001 USING  ORDINARY    00000000 00001000 FFFFFFFC   2 000          @R2,2
  25943  00003A0C  00000001 USING  ORDINARY    00003A0C 00001000 00000001   7 908   26237  $$$733B,7
  25957  00003A0C  00000001 USING  ORDINARY    FFFFFFD8 00001000 FFFFFFDB   8 028   26141  MAKEWA-(4+36),R8
  25968  00003A0C  00000001 USING  ORDINARY    00000000 00001000 FFFFFFE8   2 026   26185  VNENTRY,R2
  26254  00003ADE  00000001 USING  ORDINARY    00000000 00001000 FFFFFFF6   8 000          @R8,8
  26259  00003ADE  00000001 USING  ORDINARY    00000000 00001000 FFFFFFF7   7 000          @R7,7
  26278  00003AEC  00000001 USING  ORDINARY    00000000 00001000 FFFFFFFC   2 000          @R2,2
  26329  00003B06  00000001 USING  ORDINARY    00003B06 00001000 00000001   7 81F   27194  $$$748B,7
  26343  00003B06  00000001 USING  ORDINARY    FFFFFFD8 00001000 FFFFFFDB   8 128   26460  MAKEWA-(4+36),R8
  26354  00003B06  00000001 USING  ORDINARY    00000000 00001000 FFFFFFE8   2 026   27159  VNENTRY,R2
  26527  00003B76  00000001 USING  ORDINARY    00000000 00001000 FFFFFFE6   6 02F   26705  XSENTRY,R6
  26711  00003BF4  00000001 USING  ORDINARY    00000000 00001000 FFFFFFF8   6 000          @R6,6
  26927  00003C72  00000001 USING  ORDINARY    00000000 00001000 FFFFFFE6   6 02F   26930  XSENTRY,R6
  26936  00003C7A  00000001 USING  ORDINARY    00000000 00001000 FFFFFFF8   6 000          @R6,6
  27140  00003CEE  00000001 USING  ORDINARY    00000000 00001000 FFFFFFE6   6 024   27159  XSENTRY,R6
  27165  00003D02  00000001 USING  ORDINARY    00000000 00001000 FFFFFFF8   6 000          @R6,6
  27211  00003D0E  00000001 USING  ORDINARY    00000000 00001000 FFFFFFF6   8 000          @R8,8
  27216  00003D0E  00000001 USING  ORDINARY    00000000 00001000 FFFFFFF7   7 000          @R7,7
  27235  00003D1C  00000001 USING  ORDINARY    00000000 00001000 FFFFFFFC   2 000          @R2,2
  27290  00003D36  00000001 USING  ORDINARY    00003D36 00001000 00000001   7 5AE   27398  $$$790B,7
  27304  00003D36  00000001 USING  ORDINARY    FFFFFFD8 00001000 FFFFFFDB   8 028   27396  MAKEWA-(4+36),R8
  27315  00003D36  00000001 USING  ORDINARY    00000000 00001000 FFFFFFE8   2 02C   27398  VNENTRY,R2
  27413  00003D82  00000001 USING  ORDINARY    00000000 00001000 FFFFFFF6   8 000          @R8,8
  27418  00003D82  00000001 USING  ORDINARY    00000000 00001000 FFFFFFF7   7 000          @R7,7
  27437  00003D90  00000001 USING  ORDINARY    00000000 00001000 FFFFFFFC   2 000          @R2,2
  27492  00003DAA  00000001 USING  ORDINARY    00003DAA 00001000 00000001   7 53E   27600  $$$798B,7
  27506  00003DAA  00000001 USING  ORDINARY    FFFFFFD8 00001000 FFFFFFDB   8 028   27598  MAKEWA-(4+36),R8
  27517  00003DAA  00000001 USING  ORDINARY    00000000 00001000 FFFFFFE8   2 02C   27600  VNENTRY,R2
1EVAL     (EVAL9204) (12:43) (15MAR04) Using Map                                                                            Page  215
  27615  00003DF6  00000001 USING  ORDINARY    00000000 00001000 FFFFFFF6   8 000          @R8,8
  27620  00003DF6  00000001 USING  ORDINARY    00000000 00001000 FFFFFFF7   7 000          @R7,7
  27639  00003E04  00000001 USING  ORDINARY    00000000 00001000 FFFFFFFC   2 000          @R2,2
  27694  00003E36  00000001 USING  ORDINARY    00003E36 00001000 00000001   7 3FA   27723  $$$806B,7
  27708  00003E36  00000001 USING  ORDINARY    FFFFFFD8 00001000 FFFFFFDB   8 028   27725  MAKEWA-(4+36),R8
  27719  00003E36  00000001 USING  ORDINARY    00000000 00001000 FFFFFFE8   2 028   27726  VNENTRY,R2
  27737  00003E56  00000001 USING  ORDINARY    00000000 00001000 FFFFFFF6   8 000          @R8,8
  27742  00003E56  00000001 USING  ORDINARY    00000000 00001000 FFFFFFF7   7 000          @R7,7
  27761  00003E64  00000001 USING  ORDINARY    00000000 00001000 FFFFFFFC   2 000          @R2,2
  27812  00003E7E  00000001 USING  ORDINARY    00003E7E 00001000 00000001   7 3B2   27841  $$$809B,7
  27826  00003E7E  00000001 USING  ORDINARY    FFFFFFD8 00001000 FFFFFFDB   8 028   27843  MAKEWA-(4+36),R8
  27837  00003E7E  00000001 USING  ORDINARY    00000000 00001000 FFFFFFE8   2 028   27845  VNENTRY,R2
  27856  00003E9E  00000001 USING  ORDINARY    00000000 00001000 FFFFFFF6   8 000          @R8,8
  27861  00003E9E  00000001 USING  ORDINARY    00000000 00001000 FFFFFFF7   7 000          @R7,7
  27880  00003EAC  00000001 USING  ORDINARY    00000000 00001000 FFFFFFFC   2 000          @R2,2
  27953  00003EC6  00000001 USING  ORDINARY    00003EC6 00001000 00000001   7 494   28247  $$$812B,7
  27967  00003EC6  00000001 USING  ORDINARY    FFFFFFD8 00001000 FFFFFFDA   8 130   28252  MHWA-(4+36),R8
  28267  00003F74  00000001 USING  ORDINARY    00000000 00001000 FFFFFFF6   8 000          @R8,8
  28272  00003F74  00000001 USING  ORDINARY    00000000 00001000 FFFFFFF7   7 000          @R7,7
  28375  0000419C  00000001 USING  ORDINARY    0000419C 00001000 00000001   7 176   28486  $$$834B,7
  28389  0000419C  00000001 USING  ORDINARY    FFFFFFD8 00001000 FFFFFFD9   8 028   28491  MCWA-(4+36),R8
  28510  00004208  00000001 USING  ORDINARY    00000000 00001000 FFFFFFF6   8 000          @R8,8
  28515  00004208  00000001 USING  ORDINARY    00000000 00001000 FFFFFFF7   7 000          @R7,7
  28654  0000437A  00000001 USING  ORDINARY    0000437A 00001000 00000001   7 00C   28673  $$$842B,7
  28685  00004382  00000001 USING  ORDINARY    00000000 00001000 FFFFFFE8   6 022   28692  VNENTRY,R6
  28698  00004386  00000001 USING  ORDINARY    00000000 00001000 FFFFFFF8   6 000          @R6,6
  28710  00004386  00000001 USING  ORDINARY    00000000 00001000 FFFFFFF7   7 000          @R7,7
  28756  000043AE  00000001 USING  ORDINARY    000043AE 00001000 00000001   7 000          $$$846B,7
  28772  000043AE  00000001 USING  ORDINARY    00000000 00001000 FFFFFFE8   2 022   28780  VNENTRY,R2
  28786  000043B2  00000001 USING  ORDINARY    00000000 00001000 FFFFFFFC   2 000          @R2,2
  28794  000043B2  00000001 USING  ORDINARY    00000000 00001000 FFFFFFF7   7 000          @R7,7
  28841  000043DA  00000001 USING  ORDINARY    000043DA 00001000 00000001   7 000          $$$849B,7
  28857  000043DA  00000001 USING  ORDINARY    00000000 00001000 FFFFFFE8   6 022   28865  VNENTRY,R6
  28871  000043DE  00000001 USING  ORDINARY    00000000 00001000 FFFFFFF8   6 000          @R6,6
  28879  000043DE  00000001 USING  ORDINARY    00000000 00001000 FFFFFFF7   7 000          @R7,7
  28926  00004406  00000001 USING  ORDINARY    00004406 00001000 00000001   7 018   28970  $$$852B,7
  28957  0000440E  00000001 USING  ORDINARY    00000000 00001000 FFFFFFE8   2 022   28982  VNENTRY,R2
  28992  0000441E  00000001 USING  ORDINARY    00000000 00001000 FFFFFFFC   2 000          @R2,2
  29004  0000441E  00000001 USING  ORDINARY    00000000 00001000 FFFFFFF7   7 000          @R7,7
  29052  00004446  00000001 USING  ORDINARY    00004446 00001000 00000001   7 58E   29100  $$$857B,7
  29083  0000444E  00000001 USING  ORDINARY    00000000 00001000 FFFFFFE8   2 02B   29100  VNENTRY,R2
  29110  0000445C  00000001 USING  ORDINARY    00000000 00001000 FFFFFFFC   2 000          @R2,2
  29122  0000445C  00000001 USING  ORDINARY    00000000 00001000 FFFFFFF7   7 000          @R7,7
  29169  00004484  00000001 USING  ORDINARY    00004484 00001000 00000001   7 550   29348  $$$862B,7
  29200  0000448C  00000001 USING  ORDINARY    00000000 00001000 FFFFFFE8   2 02B   29360  VNENTRY,R2
  29370  000044DC  00000001 USING  ORDINARY    00000000 00001000 FFFFFFFC   2 000          @R2,2
  29382  000044DC  00000001 USING  ORDINARY    00000000 00001000 FFFFFFF7   7 000          @R7,7
  29430  00004504  00000001 USING  ORDINARY    00004504 00001000 00000001   7 022   29510  $$$874B,7
  29461  0000450C  00000001 USING  ORDINARY    00000000 00001000 FFFFFFE8   6 022   29521  VNENTRY,R6
  29531  00004526  00000001 USING  ORDINARY    00000000 00001000 FFFFFFF8   6 000          @R6,6
  29543  00004526  00000001 USING  ORDINARY    00000000 00001000 FFFFFFF7   7 000          @R7,7
  29596  0000454E  00000001 USING  ORDINARY    0000454E 00001000 00000001   7 48B   29621  $$$881B,7
  29630  00004564  00000001 USING  ORDINARY    00000000 00001000 FFFFFFF7   7 000          @R7,7
  29683  0000458C  00000001 USING  ORDINARY    0000458C 00001000 00000001   7 462   29708  $$$884B,7
  29717  000045A2  00000001 USING  ORDINARY    00000000 00001000 FFFFFFF7   7 000          @R7,7
  29774  000045CA  00000001 USING  ORDINARY    000045CA 00001000 00000001   7 443   29831  $$$887B,7
  29790  000045CA  00000001 USING  ORDINARY    00000000 00001000 FFFFFFE8   6 000   29810  VNENTRY,R6
  29840  000045FC  00000001 USING  ORDINARY    00000000 00001000 FFFFFFF7   7 000          @R7,7
  29859  0000460A  00000001 USING  ORDINARY    00000000 00001000 FFFFFFF8   6 000          @R6,6
1EVAL     (EVAL9204) (12:43) (15MAR04) Using Map                                                                            Page  216
  29900  00004624  00000001 USING  ORDINARY    00004624 00001000 00000001   7 3EA   29925  $$$890B,7
  29934  0000463A  00000001 USING  ORDINARY    00000000 00001000 FFFFFFF7   7 000          @R7,7
  29991  00004662  00000001 USING  ORDINARY    00004662 00001000 00000001   7 3CD   30048  $$$893B,7
  30007  00004662  00000001 USING  ORDINARY    00000000 00001000 FFFFFFE8   6 000   30027  VNENTRY,R6
  30057  00004694  00000001 USING  ORDINARY    00000000 00001000 FFFFFFF7   7 000          @R7,7
  30076  000046A2  00000001 USING  ORDINARY    00000000 00001000 FFFFFFF8   6 000          @R6,6
  30123  000046BC  00000001 USING  ORDINARY    000046BC 00001000 00000001   7 398   30173  $$$896B,7
  30180  000046EA  00000001 USING  ORDINARY    00000000 00001000 FFFFFFF7   7 000          @R7,7
  30239  00004712  00000001 USING  ORDINARY    00004712 00001000 00000001   7 345   30289  $$$899B,7
  30296  00004740  00000001 USING  ORDINARY    00000000 00001000 FFFFFFF7   7 000          @R7,7
  30356  00004768  00000001 USING  ORDINARY    00004768 00001000 00000001   7 2F2   30508  $$$902B,7
  30515  000047D6  00000001 USING  ORDINARY    00000000 00001000 FFFFFFF7   7 000          @R7,7
  30574  000047FE  00000001 USING  ORDINARY    000047FE 00001000 00000001   7 261   30723  $$$907B,7
  30735  0000486A  00000001 USING  ORDINARY    00000000 00001000 FFFFFFF7   7 000          @R7,7
  30793  00004892  00000001 USING  ORDINARY    00004892 00001000 00000001   7 124   30822  $$$912B,7
  30830  000048AA  00000001 USING  ORDINARY    00000000 00001000 FFFFFFF7   7 000          @R7,7
  30888  000048D2  00000001 USING  ORDINARY    000048D2 00001000 00000001   7 198   30917  $$$915B,7
  30925  000048EA  00000001 USING  ORDINARY    00000000 00001000 FFFFFFF7   7 000          @R7,7

1         (EVAL9204) (12:43) (15MAR04) General Purpose Register Cross Reference                                             Page  217
- Register  References (M=modified, B=branch, U=USING, D=DROP, N=index)                      HLASM R4.0  2004/03/15 12.43
0    0(0)      982U   983D  2099   2167M  2167   2168M  7134   7190   7205M  7272   7328   7364M  7410M  7416M  7417
              7418M  7471M  7475   7495M  7543   7679   7699M  7761   7814   7829M  7895   7940   7975M  8003M  8057
              8075M  8075   8076M  8107M  8176M  8225M  8265M  8309M  8360   8380M  8464   8602M  8666   8734   8802
              8855   8870M  8952   9021M  9072   9177M  9228   9332M  9405   9563M  9615   9773M  9825   9939M 10036M
             10104  10140  10217M 10262  10346M 10392M 10431M 10535M 10605  10641  10796M 10840  10915M 10916  10936
             11032M 11082  11234M 11284  11436M 11486  11631  11642M 11678M 11728  11873  11884M 11920M 11970  12115
             12126M 12162M 12212  12357  12368M 12404M 12455  12551M 12602  12698M 12746  12890  12905M 12939  13057M
             13057  13071  13086M 13120  13222M 13236  13251M 13285  13356M 13359M 13408M 13408  13422  13437M 13481
             13634M 13652  13667M 13703  13736M 13767M 13785M 13813M 13849  13882M 13913M 13931M 13959M 14074  14109
             14110M 14156  14166M 14762  14777M 14989  15015M 15018  15065  15076M 15078  15093M 15125  15171  15186M
             15224  15251  15258M 15273M 15288M 15306M 15334M 15413  15465  15501M 15519M 15540M 15547  15595M 15614
             15651M 15651  15733M 15820M 15826  15898M 15900  15920M 15974  16092  16095M 16142  16237M 16252M 16252
             16282M 16439  16442M 16492  16578M 16600  16615M 16683  16745  16748M 16795  16856M 16891M 16891  16898M
             16900  16903M 16950  17027M 17033  17035M 17046M 17055  17075M 17123  17181  17227M 17230  17233M 17280
             17358  17360M 17371M 17374M 17411  17431M 17468  17523M 17569  17596  17658  17668M 17698  17713M 17750
             17805M 17851  17878  17940  17950M 17980  17995M 18121  18198M 18235  18295M 18301  18316M 18353  18413M
             18419  18434M 18482  18577M 18694M 18696  18711M 18748  18808M 18814  18829M 18866  18927  18958M 18959M
             18990  19005M 19043  19084M 19091  19106M 19145  19222M 19261  19338M 19377  19454M 19493  19570M 19609
             19686M 19725  19802M 19841  19918M 19957  20034M 20085  20132  20146M 20176M 20176  20196M 20220  20227M
             20242M 20263M 20333M 20357  20372M 20413  20459  20474M 20515  20561  20576M 20617  20663  20678M 20794
             20836  20837M 20883  20893M 21278  21293M 21427  21473  21488M 21554  21599  21630M 21676M 21691  21711M
             21756  22022M 22098  22153M 22153  22239  22241  22399M 22452  22453  22533  22556  22631  22654  22693M
             22696M 22737M 22741  22752M 22752  22761  22762  22763  22812M 22826M 22833  22853M 22963  23002M 23048M
             23091  23147M 23197  23199M 23209M 23239  23254M 23296  23322  23377M 23377  23398M 23417M 23417  23440M
             23456M 23456  23477M 23496M 23496  23519M 23535M 23535  23556M 23570M 23573  23589M 23631  23691M 23691
             23707M 23735M 23735  23743M 23772M 23772  23780M 23905M 23905  23963M 24010M 24050M 24075M 24120  24135M
             24209  24303M 24303  24311M 24340M 24340  24357M 24385M 24385  24393M 24422M 24422  24437M 24511M 24511
             24519M 24548M 24548  24584M 24584  24758M 24758  24770M 24840M 24902M 24943M 24967M 24967  25030M 25063M
             25075  25095M 25141  25196M 25313  25328M 25443  25619M 25629M 25743  25766  25774  25850  25850  25881M
             25925  26022M 26196M 26236  26236  26267M 26311  26416M 26459M 26619  26627M 26689  26697M 26770  26837
             26845M 26907  26915M 26965  26965  26976M 27017  27017  27028M 27068M 27068  27094M 27193  27193  27224M
             27272  27426M 27474  27628M 27676  27750M 27794  27869M 27935  27979M 27979  27989M 27989  28005  28012M
             28025M 28025  28032  28048  28087M 28103  28147  28149  28223M 28223  28232M 28248M 28249M 28251  28253
             28260  28280M 28357  28401M 28401  28411M 28411  28427  28434M 28447M 28447  28454  28468M 28468  28479M
             28487M 28488M 28490  28492  28503  28523M 28637  28718M 28739  28802M 28824  28887M 28909  29012M 29035
             29130M 29152  29390M 29413  29486M 29486  29551M 29579  29610M 29638M 29666  29697M 29725M 29757  29797M
             29820M 29848M 29883  29914M 29942M 29974  30014M 30037M 30065M 30106  30137M 30160M 30188M 30222  30253M
             30276M 30304M 30339  30410M 30410  30432M 30454M 30454  30472M 30495M 30523M 30557  30628M 30628  30650M
             30672M 30672  30690M 30712M 30743M 30776  30807M 30838M 30871  30902M 30933M
     1(1)      978U  2099   2162M  2163M  2169M  7134   7190   7205M  7272   7328   7365M  7375   7382M  7396   7403
              7410M  7416   7417M  7418   7471M  7475   7495M  7543   7679   7699M  7761   7814   7829M  7895   7941
              7974M  8004M  8058   8081   8086   8106M  8175M  8231   8264M  8290   8310M  8360   8380M  8464   8493M
              8601M  8672M  8689   8740M  8757   8808M  8825   8855   8870M  8952   9021M  9072   9177M  9228   9332M
              9405   9563M  9615   9773M  9825   9940M 10036M 10104  10143  10217M 10262  10345M 10393M 10432M 10535M
             10605  10647  10748N 10796M 10840  10914M 10936M 10965  11032M 11082  11143  11185  11234M 11284  11345
             11387  11436M 11486  11547  11589  11641M 11678M 11728  11789  11831  11883M 11920M 11970  12031  12073
             12125M 12162M 12212  12273  12315  12367M 12404M 12455  12551M 12602  12698M 12746  12890  12905M 12939
             13020M 13036M 13052M 13071  13086M 13120  13201M 13217M 13236  13251M 13285  13357M 13358M 13359M 13371M
             13387M 13403M 13422  13437M 13481  13563M 13610M 13633M 13652  13667M 13703  13735M 13760M 13784M 13813M
             13849  13881M 13906M 13930M 13959M 14074  14110  14137  14137M 14156M 14166  14762  14777M 14989  15015
             15019  15046  15046M 15065M 15076  15078  15093M 15125  15171  15186M 15224  15251  15257M 15273M 15305M
             15334M 15413  15465  15494M 15518M 15540M 15547  15595M 15614  15652M 15667M 15732M 15759M 15803M 15820M
             15826  15898M 15900  15920M 15974  16081  16091  16095  16123  16123M 16142M 16155  16237  16277  16281M
             16281N 16438  16442  16473  16473M 16492M 16501  16578  16600  16615M 16683  16744  16748  16776  16776M
             16795M 16805  16806M 16818  16834  16838M 16840  16855M 16856  16897M 16897N 16899  16903  16931  16931M
1         (EVAL9204) (12:43) (15MAR04) General Purpose Register Cross Reference                                             Page  218
             16950M 16960  16961M 16973  16997M 16997  17005M 17007  17026M 17027  17033  17036M 17046M 17055  17075M
             17123  17226M 17226N 17229  17233  17261  17261M 17280M 17290  17291M 17303  17327M 17327  17335M 17337
             17358  17361M 17371M 17373M 17374  17411  17431M 17468  17522  17523  17525M 17525N 17527N 17596  17618
             17619M 17619N 17636  17637M 17637N 17643N 17658  17667M 17667N 17668  17688M 17698  17713M 17750  17804
             17805  17807M 17807N 17809N 17878  17900  17901M 17901N 17918  17919M 17919N 17925N 17940  17949M 17949N
             17950  17970M 17980  17995M 18121  18198M 18235  18294M 18294N 18301  18316M 18353  18412M 18412N 18419
             18434M 18482  18576M 18693M 18693N 18696  18711M 18748  18807M 18807N 18814  18829M 18866  18957M 18957N
             18990  19005M 19043  19082M 19082N 19091  19106M 19145  19222M 19261  19338M 19377  19454M 19493  19570M
             19609  19686M 19725  19802M 19841  19918M 19957  20034M 20085  20145M 20145N 20195M 20195N 20220  20226M
             20242M 20262M 20332M 20357  20372M 20413  20459  20474M 20515  20561  20576M 20617  20663  20678M 20794
             20837  20864  20864M 20883M 20893  21278  21293M 21427  21473  21488M 21554  21600  21631M 21677M 21691
             21711M 21756  22022M 22098  22238  22240  22378N 22400M 22400N 22555M 22576M 22583  22653M 22674M 22681
             22692M 22695M 22732M 22740  22748M 22761N 22762N 22763N 22811M 22825M 22833  22853M 22963  22998  23003M
             23048M 23091  23146M 23197  23200M 23209M 23239  23254M 23296  23323  23343  23344M 23363M 23401M 23443M
             23480M 23522M 23559M 23571M 23573  23589M 23631  23706M 23706N 23741M 23741N 23778M 23778N 23962M 23962N
             24009M 24048M 24048N 24074M 24120  24135M 24209  24309M 24309N 24355M 24355N 24391M 24391N 24436M 24517M
             24517N 24769M 24839M 24901M 24941M 24941N 25029M 25061M 25075  25095M 25141  25195M 25313  25328M 25443
             25548M 25549  25620M 25630M 25665M 25665N 25743  25749  25750M 25750N 25774M 25786  25792  25793M 25793N
             25881M 25925  26021M 26064M 26083  26138  26195M 26267M 26311  26415M 26458M 26625M 26625N 26695M 26695N
             26843M 26843N 26913M 26913N 26975M 27027M 27093M 27224M 27272  27396M 27397  27426M 27474  27598M 27599
             27628M 27676  27721M 27722  27723M 27724  27750M 27794  27839M 27840  27841M 27842  27869M 27935  28147
             28160M 28248M 28280M 28357  28454  28457  28487M 28523M 28637  28718M 28739  28802M 28824  28887M 28909
             29012M 29035  29130M 29152  29390M 29413  29551M 29579  29609M 29638M 29666  29696M 29725M 29757  29796M
             29819M 29848M 29883  29913M 29942M 29974  30013M 30036M 30065M 30106  30136M 30159M 30188M 30222  30252M
             30275M 30304M 30339  30431M 30450M 30471M 30494M 30523M 30557  30649M 30668M 30689M 30711M 30743M 30776
             30806M 30838M 30871  30901M 30933M
     2(2)      974U  2099   7134   7162   7163M  7166M  7167M  7185M  7205M  7272   7318   7322M  7344M  7408M  7410M
              7419M  7473M  7475   7495M  7543   7591M  7610M  7630M  7672M  7672   7679   7699M  7761   7789   7790M
              7793M  7794M  7829M  7895   8081M  8085M  8380M  8464   8501M  8672   8740   8870M  8952   8985U  9002
              9021M  9032U  9072   9105U  9158   9177M  9188U  9228   9261U  9278   9313   9332M  9343U  9405   9448U
              9452   9454M  9471M  9507M  9563M  9574U  9615   9658U  9662   9664M  9681M  9717M  9773M  9784U  9825
              9868U  9872   9874M  9891M  9980M 10036M 10047U 10104  10140M 10142  10193  10217M 10262  10305U 10309
             10311M 10318M 10429M 10452M 10480M 10535M 10546U 10605  10641M 10645  10747N 10772  10796M 10840  10873U
             10877  10879M 10895M 10913M 11032M 11043U 11082  11115U 11149M 11191M 11234M 11245U 11284  11317U 11351M
             11393M 11436M 11447U 11486  11519U 11553M 11595M 11678M 11689U 11728  11761U 11795M 11837M 11920M 11931U
             11970  12003U 12037M 12079M 12162M 12173U 12212  12245U 12279M 12321M 12404M 12415U 12455  12488U 12492
             12494M 12511M 12551M 12562U 12602  12635U 12639  12641M 12658M 12698M 12709U 12746  12779U 12782  12832M
             12905M 12916U 12939  12972U 12974M 12990M 13007M 13086M 13097U 13120  13153U 13155M 13171M 13188M 13251M
             13262U 13285  13318U 13320M 13336M 13352M 13355M 13437M 13448U 13481  13588M 13609M 13667M 13703  13813M
             13849  13959M 14074  14111M 14111  14137M 14157M 14157  14181  14216  14251  14286  14321  14357  14392
             14427  14462  14497  14532  14567  14602  14637  14672  14707  14742  14777M 14989  15017M 15017  15046M
             15066M 15066  15075  15093M 15125  15186M 15224  15334M 15413  15458M 15541M 15585M 15596M 15653M 15668M
             15723M 15760M 15804M 15920M 15974  16009  16093M 16093  16123M 16143M 16143  16170M 16171  16217M 16226
             16283M 16440M 16440  16473M 16493M 16493  16561M 16570  16615M 16683  16746M 16746  16776M 16796M 16796
             16901M 16901  16931M 16951M 16951  17037M 17075M 17123  17231M 17231  17261M 17281M 17281  17362M 17431M
             17468  17527M 17569  17643M 17664M 17665  17713M 17750  17809M 17851  17925M 17946M 17947  17995M 18121
             18198M 18235  18316M 18353  18434M 18482  18684M 18711M 18748  18829M 18866  19005M 19043  19106M 19145
             19222M 19261  19338M 19377  19454M 19493  19570M 19609  19686M 19725  19802M 19841  19918M 19957  20034M
             20085  20372M 20413  20474M 20515  20576M 20617  20678M 20794  20838M 20838  20864M 20884M 20884  20908
             20943  20978  21013  21048  21083  21118  21153  21188  21223  21258  21293M 21427  21488M 21554  21601M
             21711M 21756  21789U 22022M 22033U 22098  22143  22401M 22584M 22682M 22694M 22695  22696  22853M 22963
             22999  23003  23048M 23091  23126M 23201  23254M 23296  23324M 23344  23589M 23631  24135M 24209  24254
             24619  24629M 24629  24635M 24656  24662M 24701M 24736M 24764M 24808M 24834M 24915M 24974M 25020M 25095M
             25141  25241M 25261M 25303M 25303  25313  25328M 25443  25486U 25617  25621M 25628M 25881M 25892U 25925
             25968U 26267M 26278U 26311  26354U 27224M 27235U 27272  27315U 27426M 27437U 27474  27517U 27628M 27639U
             27676  27719U 27750M 27761U 27794  27837U 27869M 27880U 27935  28147  28160M 28248M 28254M 28280M 28357
             28454  28487M 28493M 28523M 28637  28718M 28739  28772U 28786U 28802M 28824  28887M 28909  28957U 28959M
             28975M 28992U 29012M 29035  29083U 29110U 29130M 29152  29200U 29370U 29390M 29413  29551M 29579  29638M
             29666  29725M 29757  29810M 29848M 29883  29942M 29974  30027M 30065M 30106  30188M 30222  30304M 30339
1         (EVAL9204) (12:43) (15MAR04) General Purpose Register Cross Reference                                             Page  219
             30523M 30557  30743M 30776  30838M 30871  30933M
     3(3)      970U  2099   7134   7162   7164M  7166M  7167M  7182M  7184   7185M  7205M  7272   7319   7409M  7410M
              7420M  7463M  7463   7475   7495M  7543   7699M  7761   7789   7791M  7793M  7794M  7829M  7895   8082M
              8084   8085M  8380M  8464   8560M  8654   8722   8790   8808   8870M  8952   9002   9021M  9072   9158
              9177M  9228   9313   9332M  9405   9563M  9615   9773M  9825  10036M 10104  10217M 10262  10535M 10605
             10658M 10658  10676M 10676N 10692M 10692  10728M 10728  10741M 10747M 10749M 10760  10796M 10840  10916M
             10917M 10929  10935  10996  11032M 11082  11234M 11284  11436M 11486  11678M 11728  11920M 11970  12162M
             12212  12404M 12455  12551M 12602  12698M 12746  12905M 12939  13086M 13120  13251M 13285  13437M 13481
             13608M 13609M 13667M 13703  13813M 13849  13959M 14074  14109M 14120M 14120  14128M 14130  14777M 14989
             15018M 15019M 15029M 15029  15037M 15039  15093M 15125  15186M 15224  15334M 15413  15920M 15974  16092M
             16106M 16106  16114M 16116  16155M 16156M 16157  16185M 16185  16200M 16202  16219  16277M 16278M 16279M
             16279N 16280  16439M 16453M 16453  16464M 16466  16501M 16502M 16503  16529M 16529  16544M 16546  16563
             16615M 16683  16745M 16759M 16759  16767M 16769  16833M 16834M 16835M 16835N 16847  16900M 16914M 16914
             16922M 16924  17075M 17123  17230M 17244M 17244  17252M 17254  17431M 17468  17526M 17618  17620M 17620N
             17636  17638M 17638N 17665M 17666  17713M 17750  17808M 17900  17902M 17902N 17918  17920M 17920N 17947M
             17948  17995M 18121  18198M 18235  18316M 18353  18434M 18482  18711M 18748  18829M 18866  19005M 19043
             19106M 19145  19222M 19261  19338M 19377  19454M 19493  19570M 19609  19686M 19725  19802M 19841  19918M
             19957  20034M 20085  20372M 20413  20474M 20515  20576M 20617  20678M 20794  20836M 20847M 20847  20855M
             20857  21293M 21427  21488M 21554  21711M 21756  22022M 22098  22378M 22379  22397M 22398  22453M 22457M
             22466M 22466  22473  22556M 22570  22577M 22577N 22654M 22668  22675M 22675N 22853M 22963  23048M 23091
             23254M 23296  23322M 23570  23589M 23631  23791M 23791  23824M 23824N 23836  23961  24135M 24209  24463M
             24463  24483M 24483N 24973M 24973N 25001  25095M 25141  25328M 25443  25631M 25706M 25766  25786  25821M
             25822  25881M 25925  26065M 26077  26132  26267M 26311  26542M 26543  27224M 27272  27426M 27474  27628M
             27676  27750M 27794  27869M 27935  28031M 28032M 28041M 28041  28048M 28052M 28061M 28061  28068  28103M
             28107M 28116M 28116  28123  28149M 28151M 28153  28196  28251M 28254M 28280M 28357  28490M 28493M 28523M
             28637  28718M 28739  28802M 28824  28887M 28909  29012M 29035  29130M 29152  29390M 29413  29551M 29579
             29638M 29666  29725M 29757  29848M 29883  29942M 29974  30065M 30106  30188M 30222  30304M 30339  30450
             30523M 30557  30668  30743M 30776  30838M 30871  30933M
     4(4)      966U  2099   7134   7162   7166M  7167M  7183M  7185M  7205M  7272   7318M  7408   7419   7473   7495M
              7543   7699M  7761   7789   7793M  7794M  7829M  7895   8083M  8085M  8380M  8464   8638M  8870M  8952
              9021M  9072   9122M  9123   9177M  9228   9279M  9280   9332M  9405   9454   9507   9563M  9615   9664
              9717   9773M  9825   9874   9980  10036M 10104  10217M 10262  10311  10429  10452  10480  10535M 10605
             10748M 10750M 10760  10796M 10840  10879  10913  11032M 11082  11149  11191  11234M 11284  11351  11393
             11436M 11486  11553  11595  11678M 11728  11795  11837  11920M 11970  12037  12079  12162M 12212  12279
             12321  12404M 12455  12494  12499M 12528  12551M 12602  12641  12646M 12675  12698M 12746  12832  12905M
             12939  12974  13007  13086M 13120  13155  13188  13251M 13285  13320  13352  13437M 13481  13606M 13609M
             13667M 13703  13813M 13849  13959M 14074  14777M 14989  15020M 15046  15093M 15125  15186M 15224  15334M
             15413  15920M 15974  16091M 16156  16169  16209  16278  16438M 16502  16515  16553  16615M 16683  16744M
             16806  16847  16899M 16961  17014  17075M 17123  17229M 17291  17344  17431M 17468  17522M 17688  17713M
             17750  17804M 17970  17995M 18121  18198M 18235  18316M 18353  18434M 18482  18711M 18748  18829M 18866
             19005M 19043  19106M 19145  19222M 19261  19338M 19377  19454M 19493  19570M 19609  19686M 19725  19802M
             19841  19918M 19957  20034M 20085  20372M 20413  20474M 20515  20576M 20617  20678M 20794  21293M 21427
             21488M 21554  21711M 21756  22022M 22098  22240M 22242  22243M 22243N 22286  22292M 22292N 22344  22350M
             22350N 22369  22379M 22388M 22388  22397N 22399  22853M 22963  23048M 23091  23254M 23296  23323M 23571
             23589M 23631  24135M 24209  24464M 24619N 24620M 24620N 25095M 25141  25328M 25443  25632M 25726  25727M
             25727N 25749  25751M 25751N 25772  25773M 25773N 25792  25794M 25794N 25822M 25823  25881M 25925  26084M
             26085  26111M 26112  26139M 26140  26166M 26167  26267M 26311  27224M 27272  27426M 27474  27628M 27676
             27750M 27794  27869M 27935  28211M 28229  28230M 28230N 28252M 28254M 28280M 28357  28456M 28474  28475
             28476  28477M 28477N 28491M 28493M 28523M 28637  28718M 28739  28802M 28824  28887M 28909  28975  29012M
             29035  29130M 29152  29390M 29413  29551M 29579  29638M 29666  29725M 29757  29848M 29883  29942M 29974
             30065M 30106  30188M 30222  30304M 30339  30523M 30557  30743M 30776  30838M 30871  30933M
     5(5)      962U  2099   7134   7162   7165M  7165   7166M  7167M  7184M  7185M  7205M  7272   7319M  7375   7382
              7396   7403M  7409   7420   7495M  7543   7699M  7761   7789   7792M  7792   7793M  7794M  7829M  7895
              8084M  8085M  8380M  8464   8870M  8952   9021M  9072   9177M  9228   9332M  9405   9452M  9471   9563M
              9615   9662M  9681   9773M  9825   9872M  9891  10036M 10104  10217M 10262  10309M 10318  10535M 10605
             10796M 10840  10877M 10895  11032M 11082  11234M 11284  11436M 11486  11678M 11728  11920M 11970  12162M
             12212  12404M 12455  12492M 12511  12516M 12528  12551M 12602  12639M 12658  12663M 12675  12698M 12746
             12782M 12905M 12939  12990  12995M 13008  13086M 13120  13171  13176M 13189  13251M 13285  13336  13355
             13437M 13481  13607M 13608  13609M 13667M 13703  13813M 13849  13959M 14074  14777M 14989  15093M 15125
1         (EVAL9204) (12:43) (15MAR04) General Purpose Register Cross Reference                                             Page  220
             15186M 15224  15334M 15413  15920M 15974  16615M 16683  16805M 16855  16960M 17026  17075M 17123  17290M
             17373  17431M 17468  17713M 17750  17995M 18121  18198M 18235  18316M 18353  18434M 18482  18535M 18552M
             18608  18658  18711M 18748  18829M 18866  19005M 19043  19106M 19145  19222M 19261  19338M 19377  19454M
             19493  19570M 19609  19686M 19725  19802M 19841  19918M 19957  20034M 20085  20372M 20413  20474M 20515
             20576M 20617  20678M 20794  21293M 21427  21488M 21554  21711M 21756  22022M 22098  22241M 22242M 22286
             22344  22369  22853M 22963  23048M 23091  23254M 23296  23343M 23363  23589M 23631  24135M 24209  25095M
             25141  25328M 25443  25633M 25659M 25659  25667M 25673M 25699M 25699  25708M 25881M 25925  26267M 26311
             27224M 27272  27426M 27474  27628M 27676  27750M 27794  27869M 27935  28212M 28229  28231M 28231N 28253M
             28254M 28280M 28357  28457M 28474  28478M 28478N 28492M 28493M 28523M 28637  28718M 28739  28802M 28824
             28887M 28909  28959  29012M 29035  29130M 29152  29390M 29413  29551M 29579  29638M 29666  29725M 29757
             29848M 29883  29942M 29974  30065M 30106  30188M 30222  30304M 30339  30523M 30557  30743M 30776  30838M
             30871  30933M
     6(6)      958U  2099   7134   7168M  7169M  7170   7171M  7183   7205M  7272   7315U  7317M  7495M  7506U  7543
              7586U  7588M  7699M  7710U  7761   7795M  7796M  7797   7798M  7829M  7895   7938U  7957M  7958   8009M
              8026M  8047M  8083   8086M  8089M  8090   8158M  8159   8231M  8247M  8248   8290M  8380M  8464   8493
              8500M  8501   8559M  8560   8637M  8638   8654M  8689M  8722M  8757M  8790M  8825M  8870M  8881U  8952
              9021M  9072   9177M  9228   9278M  9332M  9405   9563M  9615   9773M  9825  10036M 10104  10217M 10262
             10535M 10605  10796M 10840  11032M 11082  11234M 11284  11436M 11486  11678M 11728  11920M 11970  12162M
             12212  12404M 12455  12551M 12602  12698M 12746  12905M 12939  13086M 13120  13251M 13285  13437M 13481
             13514U 13517M 13534M 13563  13588  13590M 13606  13610  13667M 13703  13813M 13849  13959M 14074  14777M
             14788U 14989  15093M 15125  15158U 15186M 15197U 15224  15334M 15413  15456U 15458  15862U 15865U 15886U
             15889U 15920M 15931U 15974  16007U 16009M 16615M 16626U 16683  16726U 17075M 17086U 17123  17166U 17431M
             17442U 17468  17501U 17713M 17724U 17750  17783U 17995M 18006U 18121  18154U 18198M 18209U 18235  18268U
             18316M 18327U 18353  18386U 18434M 18445U 18482  18515U 18518M 18559M 18560  18684  18711M 18722U 18748
             18781U 18829M 18840U 18866  18899U 19005M 19016U 19043  19076U 19106M 19117U 19145  19178U 19222M 19233U
             19261  19294U 19338M 19349U 19377  19410U 19454M 19465U 19493  19526U 19570M 19581U 19609  19642U 19686M
             19697U 19725  19758U 19802M 19813U 19841  19874U 19918M 19929U 19957  19990U 20034M 20045U 20085  20118U
             20372M 20383U 20413  20446U 20474M 20485U 20515  20548U 20576M 20587U 20617  20650U 20678M 20689U 20794
             20827U 21293M 21304U 21427  21460U 21488M 21499U 21554  21597U 21601  21711M 21722U 21756  22022M 22098
             22141U 22143M 22584  22682  22853M 22864U 22963  22996U 22998M 23048M 23059U 23091  23124U 23126  23129M
             23130  23200  23201M 23254M 23265U 23296  23324  23589M 23631  23664U 24057M 24058  24135M 24146U 24209
             24252U 24254M 25095M 25106U 25141  25174U 25178M 25179  25328M 25339U 25443  25881M 25925  26267M 26311
             26460M 26527U 26711U 26927U 26936U 27140U 27165U 27224M 27272  27426M 27474  27628M 27676  27750M 27794
             27869M 27935  28280M 28357  28523M 28637  28685U 28698U 28718M 28739  28802M 28824  28857U 28871U 28887M
             28909  29012M 29035  29130M 29152  29390M 29413  29461U 29531U 29551M 29579  29638M 29666  29725M 29757
             29790U 29848M 29859U 29883  29942M 29974  30007U 30065M 30076U 30106  30188M 30222  30304M 30339  30523M
             30557  30743M 30776  30838M 30871  30933M
     7(7)      954U  2092M  2092   2093B  2099   2105B  7134   7139M  7151U  7197U  7205M  7272   7278M  7290U  7487U
              7495M  7543   7549M  7561U  7691U  7699M  7761   7766M  7778U  7821U  7829M  7895   7901M  7913U  8372U
              8380M  8464   8469M  8481U  8862U  8870M  8952   8957M  8969U  9013U  9021M  9072   9077M  9089U  9169U
              9177M  9228   9233M  9245U  9324U  9332M  9405   9411M  9423U  9555U  9563M  9615   9621M  9633U  9765U
              9773M  9825   9831M  9843U 10028U 10036M 10104  10110M 10122U 10209U 10217M 10262  10268M 10280U 10527U
             10535M 10605  10611M 10623U 10788U 10796M 10840  10845M 10857U 11024U 11032M 11082  11087M 11099U 11226U
             11234M 11284  11289M 11301U 11428U 11436M 11486  11491M 11503U 11670U 11678M 11728  11733M 11745U 11912U
             11920M 11970  11975M 11987U 12154U 12162M 12212  12217M 12229U 12396U 12404M 12455  12460M 12472U 12543U
             12551M 12602  12607M 12619U 12690U 12698M 12746  12751M 12763U 12897U 12905M 12939  12944M 12956U 13078U
             13086M 13120  13125M 13137U 13243U 13251M 13285  13290M 13302U 13429U 13437M 13481  13486M 13498U 13659U
             13667M 13703  13708M 13720U 13805U 13813M 13849  13854M 13866U 13951U 13959M 14074  14079M 14091U 14769U
             14777M 14989  14994M 15006U 15085U 15093M 15125  15130M 15142U 15178U 15186M 15224  15229M 15241U 15326U
             15334M 15413  15419M 15431U 15912U 15920M 15974  15979M 15991U 16607U 16615M 16683  16689M 16701U 17067U
             17075M 17123  17129M 17141U 17423U 17431M 17468  17473M 17485U 17705U 17713M 17750  17755M 17767U 17987U
             17995M 18121  18126M 18138U 18190U 18198M 18235  18240M 18252U 18308U 18316M 18353  18358M 18370U 18426U
             18434M 18482  18487M 18499U 18703U 18711M 18748  18753M 18765U 18821U 18829M 18866  18871M 18883U 18997U
             19005M 19043  19048M 19060U 19098U 19106M 19145  19150M 19162U 19214U 19222M 19261  19266M 19278U 19330U
             19338M 19377  19382M 19394U 19446U 19454M 19493  19498M 19510U 19562U 19570M 19609  19614M 19626U 19678U
             19686M 19725  19730M 19742U 19794U 19802M 19841  19846M 19858U 19910U 19918M 19957  19962M 19974U 20026U
             20034M 20085  20090M 20102U 20364U 20372M 20413  20418M 20430U 20466U 20474M 20515  20520M 20532U 20568U
             20576M 20617  20622M 20634U 20670U 20678M 20794  20799M 20811U 21285U 21293M 21427  21432M 21444U 21480U
             21488M 21554  21560M 21572U 21703U 21711M 21756  21761M 21773U 22014U 22022M 22098  22104M 22116U 22845U
1         (EVAL9204) (12:43) (15MAR04) General Purpose Register Cross Reference                                             Page  221
             22853M 22963  22968M 22980U 23040U 23048M 23091  23096M 23108U 23246U 23254M 23296  23301M 23313U 23581U
             23589M 23631  23636M 23648U 24127U 24135M 24209  24215M 24227U 25087U 25095M 25141  25146M 25158U 25320U
             25328M 25443  25449M 25461U 25873U 25881M 25925  25931M 25943U 26259U 26267M 26311  26317M 26329U 27216U
             27224M 27272  27278M 27290U 27418U 27426M 27474  27480M 27492U 27620U 27628M 27676  27682M 27694U 27742U
             27750M 27794  27800M 27812U 27861U 27869M 27935  27941M 27953U 28272U 28280M 28357  28363M 28375U 28515U
             28523M 28637  28642M 28654U 28710U 28718M 28739  28744M 28756U 28794U 28802M 28824  28829M 28841U 28879U
             28887M 28909  28914M 28926U 29004U 29012M 29035  29040M 29052U 29122U 29130M 29152  29157M 29169U 29382U
             29390M 29413  29418M 29430U 29543U 29551M 29579  29584M 29596U 29630U 29638M 29666  29671M 29683U 29717U
             29725M 29757  29762M 29774U 29840U 29848M 29883  29888M 29900U 29934U 29942M 29974  29979M 29991U 30057U
             30065M 30106  30111M 30123U 30180U 30188M 30222  30227M 30239U 30296U 30304M 30339  30344M 30356U 30515U
             30523M 30557  30562M 30574U 30735U 30743M 30776  30781M 30793U 30830U 30838M 30871  30876M 30888U 30925U
             30933M
     8(8)      950U  2099   7134   7135M  7190   7201   7205M  7272   7274M  7304U  7475   7482U  7491   7495M  7543
              7545M  7575U  7679   7686U  7695   7699M  7761   7762M  7814   7825   7829M  7895   7897M  7927U  8360
              8367U  8376   8380M  8464   8465M  8855   8866   8870M  8952   8953M  9017   9021M  9072   9073M  9173
              9177M  9228   9229M  9328   9332M  9405   9407M  9437U  9550U  9559   9563M  9615   9617M  9647U  9760U
              9769   9773M  9825   9827M  9857U 10023U 10032  10036M 10104  10106M 10136U 10204U 10213  10217M 10262
             10264M 10294U 10522U 10531  10535M 10605  10607M 10637U 10783U 10792  10796M 10840  10841M 11028  11032M
             11082  11083M 11230  11234M 11284  11285M 11432  11436M 11486  11487M 11674  11678M 11728  11729M 11916
             11920M 11970  11971M 12158  12162M 12212  12213M 12400  12404M 12455  12456M 12547  12551M 12602  12603M
             12694  12698M 12746  12747M 12890  12901  12905M 12939  12940M 13071  13082  13086M 13120  13121M 13236
             13247  13251M 13285  13286M 13422  13433  13437M 13481  13482M 13652  13663  13667M 13703  13704M 13809
             13813M 13849  13850M 13955  13959M 14074  14075M 14762  14773  14777M 14989  14990M 15078  15089  15093M
             15125  15126M 15171  15182  15186M 15224  15225M 15330  15334M 15413  15415M 15445U 15900  15907U 15916
             15920M 15974  15975M 16600  16611  16615M 16683  16685M 16715U 17055  17062U 17071  17075M 17123  17125M
             17155U 17411  17418U 17427  17431M 17468  17469M 17698  17709  17713M 17750  17751M 17980  17991  17995M
             18121  18122M 18194  18198M 18235  18236M 18301  18312  18316M 18353  18354M 18419  18430  18434M 18482
             18483M 18696  18707  18711M 18748  18749M 18814  18825  18829M 18866  18867M 18990  19001  19005M 19043
             19044M 19091  19102  19106M 19145  19146M 19218  19222M 19261  19262M 19334  19338M 19377  19378M 19450
             19454M 19493  19494M 19566  19570M 19609  19610M 19682  19686M 19725  19726M 19798  19802M 19841  19842M
             19914  19918M 19957  19958M 20030  20034M 20085  20086M 20357  20368  20372M 20413  20414M 20459  20470
             20474M 20515  20516M 20561  20572  20576M 20617  20618M 20663  20674  20678M 20794  20795M 21278  21289
             21293M 21427  21428M 21473  21484  21488M 21554  21556M 21586U 21691  21698U 21707  21711M 21756  21757M
             22018  22022M 22098  22100M 22130U 22833  22840U 22849  22853M 22963  22964M 23044  23048M 23091  23092M
             23239  23250  23254M 23296  23297M 23573  23585  23589M 23631  23632M 24120  24131  24135M 24209  24211M
             24241U 25075  25082U 25091  25095M 25141  25142M 25313  25324  25328M 25443  25445M 25475U 25868U 25877
             25881M 25925  25927M 25957U 26254U 26263  26267M 26311  26313M 26343U 27211U 27220  27224M 27272  27274M
             27304U 27413U 27422  27426M 27474  27476M 27506U 27615U 27624  27628M 27676  27678M 27708U 27737U 27746
             27750M 27794  27796M 27826U 27856U 27865  27869M 27935  27937M 27967U 28260N 28267U 28276  28280M 28357
             28359M 28389U 28503N 28510U 28519  28523M 28637  28638M 28714  28718M 28739  28740M 28798  28802M 28824
             28825M 28883  28887M 28909  28910M 29008  29012M 29035  29036M 29126  29130M 29152  29153M 29386  29390M
             29413  29414M 29547  29551M 29579  29580M 29634  29638M 29666  29667M 29721  29725M 29757  29758M 29844
             29848M 29883  29884M 29938  29942M 29974  29975M 30061  30065M 30106  30107M 30184  30188M 30222  30223M
             30300  30304M 30339  30340M 30519  30523M 30557  30558M 30739  30743M 30776  30777M 30834  30838M 30871
             30872M 30929  30933M
     9(9)      946U  2099
    10(A)      942U  2099
    11(B)      938U  1163U  2099
    12(C)      934U  1172U  2099
    13(D)      930U  2099   7131   7134   7135   7136M  7136   7162   7163N  7167   7169   7171   7172M  7188M  7201M
              7205   7207   7269   7272   7274   7275M  7275   7328   7329M  7329   7470M  7471   7491M  7495   7497
              7540   7543   7545   7546M  7546   7695M  7699   7701   7758   7761   7762   7763M  7763   7789   7790N
              7794   7796   7798   7799M  7812M  7825M  7829   7831   7892   7895   7897   7898M  7898   8376M  8380
              8382   8461   8464   8465   8466M  8466   8866M  8870   8872   8949   8952   8953   8954M  8954   9017M
              9021   9023   9069   9072   9073   9074M  9074   9173M  9177   9179   9225   9228   9229   9230M  9230
              9328M  9332   9334   9402   9405   9407   9408M  9408   9559M  9563   9565   9612   9615   9617   9618M
              9618   9769M  9773   9775   9822   9825   9827   9828M  9828  10032M 10036  10038  10101  10104  10106
             10107M 10107  10213M 10217  10219  10259  10262  10264  10265M 10265  10531M 10535  10537  10602  10605
             10607  10608M 10608  10792M 10796  10798  10837  10840  10841  10842M 10842  11028M 11032  11034  11079
1         (EVAL9204) (12:43) (15MAR04) General Purpose Register Cross Reference                                             Page  222
             11082  11083  11084M 11084  11230M 11234  11236  11281  11284  11285  11286M 11286  11432M 11436  11438
             11483  11486  11487  11488M 11488  11674M 11678  11680  11725  11728  11729  11730M 11730  11916M 11920
             11922  11967  11970  11971  11972M 11972  12158M 12162  12164  12209  12212  12213  12214M 12214  12400M
             12404  12406  12452  12455  12456  12457M 12457  12547M 12551  12553  12599  12602  12603  12604M 12604
             12694M 12698  12700  12743  12746  12747  12748M 12748  12901M 12905  12907  12936  12939  12940  12941M
             12941  13082M 13086  13088  13117  13120  13121  13122M 13122  13247M 13251  13253  13282  13285  13286
             13287M 13287  13433M 13437  13439  13478  13481  13482  13483M 13483  13663M 13667  13669  13700  13703
             13704  13705M 13705  13809M 13813  13815  13846  13849  13850  13851M 13851  13955M 13959  13961  14071
             14074  14075  14076M 14076  14773M 14777  14779  14986  14989  14990  14991M 14991  15089M 15093  15095
             15122  15125  15126  15127M 15127  15182M 15186  15188  15221  15224  15225  15226M 15226  15251  15252M
             15252  15272M 15273  15330M 15334  15336  15410  15413  15415  15416M 15416  15916M 15920  15922  15971
             15974  15975  15976M 15976  16611M 16615  16617  16680  16683  16685  16686M 16686  17033  17034M 17034
             17045M 17046  17071M 17075  17077  17120  17123  17125  17126M 17126  17358  17359M 17359  17370M 17371
             17427M 17431  17433  17465  17468  17469  17470M 17470  17709M 17713  17715  17747  17750  17751  17752M
             17752  17991M 17995  17997  18118  18121  18122  18123M 18123  18194M 18198  18200  18232  18235  18236
             18237M 18237  18312M 18316  18318  18350  18353  18354  18355M 18355  18430M 18434  18436  18479  18482
             18483  18484M 18484  18707M 18711  18713  18745  18748  18749  18750M 18750  18825M 18829  18831  18863
             18866  18867  18868M 18868  19001M 19005  19007  19040  19043  19044  19045M 19045  19102M 19106  19108
             19142  19145  19146  19147M 19147  19218M 19222  19224  19258  19261  19262  19263M 19263  19334M 19338
             19340  19374  19377  19378  19379M 19379  19450M 19454  19456  19490  19493  19494  19495M 19495  19566M
             19570  19572  19606  19609  19610  19611M 19611  19682M 19686  19688  19722  19725  19726  19727M 19727
             19798M 19802  19804  19838  19841  19842  19843M 19843  19914M 19918  19920  19954  19957  19958  19959M
             19959  20030M 20034  20036  20082  20085  20086  20087M 20087  20220  20221M 20221  20241M 20242  20368M
             20372  20374  20410  20413  20414  20415M 20415  20470M 20474  20476  20512  20515  20516  20517M 20517
             20572M 20576  20578  20614  20617  20618  20619M 20619  20674M 20678  20680  20791  20794  20795  20796M
             20796  21289M 21293  21295  21424  21427  21428  21429M 21429  21484M 21488  21490  21551  21554  21556
             21557M 21557  21707M 21711  21713  21753  21756  21757  21758M 21758  22018M 22022  22024  22095  22098
             22100  22101M 22101  22721  22723M 22723  22756  22757  22758  22760M 22760  22772M 22773  22774  22775
             22781M 22849M 22853  22855  22960  22963  22964  22965M 22965  23044M 23048  23050  23088  23091  23092
             23093M 23093  23197  23198M 23198  23208M 23209  23250M 23254  23256  23293  23296  23297  23298M 23298
             23585M 23589  23591  23628  23631  23632  23633M 23633  24131M 24135  24137  24206  24209  24211  24212M
             24212  25091M 25095  25097  25138  25141  25142  25143M 25143  25324M 25328  25330  25440  25443  25445
             25446M 25446  25617  25618M 25618  25627M 25628  25877M 25881  25883  25922  25925  25927  25928M 25928
             26263M 26267  26269  26308  26311  26313  26314M 26314  27220M 27224  27226  27269  27272  27274  27275M
             27275  27422M 27426  27428  27471  27474  27476  27477M 27477  27624M 27628  27630  27673  27676  27678
             27679M 27679  27746M 27750  27752  27791  27794  27796  27797M 27797  27865M 27869  27871  27932  27935
             27937  27938M 27938  28147  28148M 28148  28247M 28248  28276M 28280  28282  28354  28357  28359  28360M
             28360  28454  28455M 28455  28486M 28487  28519M 28523  28525  28634  28637  28638  28639M 28639  28714M
             28718  28720  28736  28739  28740  28741M 28741  28798M 28802  28804  28821  28824  28825  28826M 28826
             28883M 28887  28889  28906  28909  28910  28911M 28911  29008M 29012  29014  29032  29035  29036  29037M
             29037  29126M 29130  29132  29149  29152  29153  29154M 29154  29386M 29390  29392  29410  29413  29414
             29415M 29415  29547M 29551  29553  29576  29579  29580  29581M 29581  29634M 29638  29640  29663  29666
             29667  29668M 29668  29721M 29725  29727  29754  29757  29758  29759M 29759  29844M 29848  29850  29880
             29883  29884  29885M 29885  29938M 29942  29944  29971  29974  29975  29976M 29976  30061M 30065  30067
             30103  30106  30107  30108M 30108  30184M 30188  30190  30219  30222  30223  30224M 30224  30300M 30304
             30306  30336  30339  30340  30341M 30341  30519M 30523  30525  30554  30557  30558  30559M 30559  30739M
             30743  30745  30773  30776  30777  30778M 30778  30834M 30838  30840  30868  30871  30872  30873M 30873
             30929M 30933  30935
    14(E)      926U  2099   2100M  2114   2115M  2116B  2118M  2119B  2139M  2140B  2144M  2145B  2147M  2148B  2150M
              2151B  2153M  2154B  2156M  2157M  2157B  2163   7131   7175M  7176M  7176B  7207M  7210B  7269   7325M
              7326M  7326B  7347M  7348M  7348B  7497M  7500B  7540   7594M  7595M  7595B  7613M  7614M  7614B  7701M
              7704B  7758   7802M  7803M  7803B  7831M  7834B  7892   7986M  7987M  7987B  8029M  8030M  8030B  8050M
              8051M  8051B  8079M  8080M  8080B  8118M  8119M  8119B  8187M  8188M  8188B  8228M  8229M  8229B  8276M
              8277M  8277B  8287M  8288M  8288B  8382M  8385B  8461   8613M  8614M  8614B  8673M  8676M  8677M  8677B
              8692M  8693M  8693B  8741M  8744M  8745M  8745B  8760M  8761M  8761B  8809M  8812M  8813M  8813B  8828M
              8829M  8829B  8872M  8875B  8949   8989M  8990M  8990B  9023M  9026B  9069   9109M  9110M  9110B  9179M
              9182B  9225   9265M  9266M  9266B  9334M  9337B  9402   9457M  9458M  9458B  9474M  9475M  9475B  9489M
              9490M  9490B  9530M  9531M  9531B  9565M  9568B  9612   9667M  9668M  9668B  9684M  9685M  9685B  9699M
              9700M  9700B  9740M  9741M  9741B  9775M  9778B  9822   9877M  9878M  9878B  9894M  9895M  9895B  9909M
1         (EVAL9204) (12:43) (15MAR04) General Purpose Register Cross Reference                                             Page  223
              9910M  9910B  9943M  9944M  9944B 10003M 10004M 10004B 10038M 10041B 10101  10219M 10222B 10259  10314M
             10315M 10315B 10321M 10322M 10322B 10326M 10327M 10327B 10357M 10358M 10358B 10396M 10397M 10397B 10435M
             10436M 10436B 10503M 10504M 10504B 10511M 10512M 10512B 10537M 10540B 10602  10798M 10801B 10837  10882M
             10883M 10883B 10898M 10899M 10899B 10912M 10917  10948  10956M 10958  11004M 11005M 11005B 11034M 11037B
             11079  11119M 11120M 11120B 11236M 11239B 11281  11321M 11322M 11322B 11438M 11441B 11483  11523M 11524M
             11524B 11653M 11654M 11654B 11680M 11683B 11725  11765M 11766M 11766B 11895M 11896M 11896B 11922M 11925B
             11967  12007M 12008M 12008B 12137M 12138M 12138B 12164M 12167B 12209  12249M 12250M 12250B 12379M 12380M
             12380B 12406M 12409B 12452  12497M 12498M 12498B 12514M 12515M 12515B 12553M 12556B 12599  12644M 12645M
             12645B 12661M 12662M 12662B 12700M 12703B 12743  12801M 12802M 12802B 12825M 12826M 12826B 12850M 12851M
             12851B 12874M 12875M 12875B 12883M 12884M 12884B 12907M 12910B 12936  12977M 12978M 12978B 12993M 12994M
             12994B 13088M 13091B 13117  13158M 13159M 13159B 13174M 13175M 13175B 13253M 13256B 13282  13323M 13324M
             13324B 13339M 13340M 13340B 13353M 13359M 13439M 13442B 13478  13645M 13646M 13646B 13669M 13672B 13700
             13747M 13748M 13748B 13778M 13779M 13779B 13796M 13797M 13797B 13815M 13818B 13846  13893M 13894M 13894B
             13924M 13925M 13925B 13942M 13943M 13943B 13961M 13964B 14071  14190M 14191M 14191B 14225M 14226M 14226B
             14260M 14261M 14261B 14295M 14296M 14296B 14330M 14331M 14331B 14366M 14367M 14367B 14401M 14402M 14402B
             14436M 14437M 14437B 14471M 14472M 14472B 14506M 14507M 14507B 14541M 14542M 14542B 14576M 14577M 14577B
             14611M 14612M 14612B 14646M 14647M 14647B 14681M 14682M 14682B 14716M 14717M 14717B 14751M 14752M 14752B
             14779M 14782B 14986  15095M 15098B 15122  15188M 15191B 15221  15269M 15270M 15270B 15299M 15300M 15300B
             15317M 15318M 15318B 15336M 15339B 15410  15463M 15464M 15464B 15512M 15513M 15513B 15530M 15531M 15531B
             15544M 15545M 15545B 15588M 15589M 15589B 15599M 15600M 15600B 15656M 15657M 15657B 15671M 15672M 15672B
             15686M 15687M 15687B 15726M 15727M 15727B 15744M 15745M 15745B 15763M 15764M 15764B 15789M 15790M 15790B
             15807M 15808M 15808B 15823M 15824M 15824B 15837M 15838M 15838B 15922M 15925B 15971  16022M 16023M 16023B
             16096M 16123  16443M 16473  16617M 16620B 16680  16749M 16776  16826M 16827M 16827B 16865M 16866M 16866B
             16904M 16931  16981M 16982M 16982B 17040M 17041M 17041B 17077M 17080B 17120  17234M 17261  17311M 17312M
             17312B 17365M 17366M 17366B 17400M 17401M 17401B 17433M 17436B 17465  17691M 17692M 17692B 17715M 17718B
             17747  17973M 17974M 17974B 17997M 18000B 18118  18170M 18175M 18200M 18203B 18232  18284M 18289M 18318M
             18321B 18350  18402M 18407M 18436M 18439B 18479  18588M 18589M 18589B 18628M 18633M 18687M 18688M 18688B
             18713M 18716B 18745  18797M 18802M 18831M 18834B 18863  18947M 18952M 18983M 18984M 18984B 19007M 19010B
             19040  19080M 19081M 19081B 19108M 19111B 19142  19194M 19199M 19224M 19227B 19258  19310M 19315M 19340M
             19343B 19374  19426M 19431M 19456M 19459B 19490  19542M 19547M 19572M 19575B 19606  19658M 19663M 19688M
             19691B 19722  19774M 19779M 19804M 19807B 19838  19890M 19895M 19920M 19923B 19954  20006M 20011M 20036M
             20039B 20082  20151M 20152M 20152B 20238M 20239M 20239B 20245M 20246M 20246B 20274M 20275M 20275B 20315M
             20316M 20316B 20344M 20345M 20345B 20374M 20377B 20410  20476M 20479B 20512  20578M 20581B 20614  20680M
             20683B 20791  20917M 20918M 20918B 20952M 20953M 20953B 20987M 20988M 20988B 21022M 21023M 21023B 21057M
             21058M 21058B 21092M 21093M 21093B 21127M 21128M 21128B 21162M 21163M 21163B 21197M 21198M 21198B 21232M
             21233M 21233B 21267M 21268M 21268B 21295M 21298B 21424  21490M 21493B 21551  21604M 21605M 21605B 21650M
             21651M 21651B 21713M 21716B 21753  21829M 21830M 21830B 21850M 21851M 21851B 21871M 21872M 21872B 21892M
             21893M 21893B 21913M 21914M 21914B 21934M 21935M 21935B 21955M 21956M 21956B 21976M 21977M 21977B 21997M
             21998M 21998B 22024M 22027B 22095  22404M 22405M 22405B 22587M 22588M 22588B 22685M 22686M 22686B 22720M
             22721  22739M 22740N 22741N 22745M 22745  22755M 22756  22757  22758  22766M 22767M 22767B 22770M 22773
             22774  22775  22779M 22782  22805M 22806M 22806B 22823M 22824M 22824B 22855M 22858B 22960  23006M 23007M
             23007B 23050M 23053B 23088  23158M 23159M 23159B 23179M 23180M 23180B 23183M 23184M 23184B 23202M 23205M
             23206M 23206B 23256M 23259B 23293  23327M 23328M 23328B 23347M 23348M 23348B 23591M 23594B 23628  23699M
             23700M 23700B 23801M 23802M 23802B 23817M 23818M 23818B 23844M 23845M 23845B 23867M 23868M 23868B 23890M
             23891M 23891B 23913M 23914M 23914B 23938M 23939M 23939B 24003M 24004M 24004B 24021M 24022M 24022B 24025M
             24026M 24026B 24086M 24087M 24087B 24137M 24140B 24206  24430M 24431M 24431B 24448M 24449M 24449B 24596M
             24597M 24597B 24638M 24639M 24639B 24665M 24666M 24666B 24704M 24705M 24705B 24739M 24740M 24740B 24781M
             24782M 24782B 24785M 24786M 24786B 24811M 24812M 24812B 24851M 24852M 24852B 24855M 24856M 24856B 24895M
             24896M 24896B 24913M 24914M 24914B 24918M 24919M 24919B 24977M 24978M 24978B 25023M 25024M 25024B 25041M
             25042M 25042B 25097M 25100B 25138  25207M 25208M 25208B 25228M 25229M 25229B 25244M 25245M 25245B 25330M
             25333B 25440  25624M 25625M 25625B 25813M 25814M 25814B 25883M 25886B 25922  26033M 26034M 26034B 26207M
             26208M 26208B 26269M 26272B 26308  26427M 26428M 26428B 26464M 26465M 26465B 26487M 26488M 26488B 26630M
             26631M 26631B 26700M 26701M 26701B 26778M 26779M 26779B 26848M 26849M 26849B 26918M 26919M 26919B 26987M
             26988M 26988B 27039M 27040M 27040B 27076M 27077M 27077B 27105M 27106M 27106B 27157M 27158M 27158B 27226M
             27229B 27269  27319M 27320M 27320B 27348M 27349M 27349B 27378M 27379M 27379B 27428M 27431B 27471  27521M
             27522M 27522B 27550M 27551M 27551B 27580M 27581M 27581B 27630M 27633B 27673  27752M 27755B 27791  27871M
             27874B 27932  28282M 28285B 28354  28525M 28528B 28634  28720M 28723B 28736  28804M 28807B 28821  28889M
             28892B 28906  29014M 29017B 29032  29132M 29135B 29149  29392M 29395B 29410  29553M 29556B 29576  29621M
             29622M 29622B 29640M 29643B 29663  29708M 29709M 29709B 29727M 29730B 29754  29808M 29809M 29809B 29813M
1         (EVAL9204) (12:43) (15MAR04) General Purpose Register Cross Reference                                             Page  224
             29814M 29814B 29831M 29832M 29832B 29850M 29853B 29880  29925M 29926M 29926B 29944M 29947B 29971  30025M
             30026M 30026B 30030M 30031M 30031B 30048M 30049M 30049B 30067M 30070B 30103  30148M 30149M 30149B 30153M
             30154M 30154B 30171M 30172M 30172B 30190M 30193B 30219  30264M 30265M 30265B 30269M 30270M 30270B 30287M
             30288M 30288B 30306M 30309B 30336  30421M 30422M 30422B 30443M 30444M 30444B 30465M 30466M 30466B 30483M
             30484M 30484B 30488M 30489M 30489B 30506M 30507M 30507B 30525M 30528B 30554  30639M 30640M 30640B 30661M
             30662M 30662B 30683M 30684M 30684B 30701M 30702M 30702B 30705M 30706M 30706B 30723M 30724M 30724B 30745M
             30748B 30773  30818M 30819M 30819B 30822M 30823M 30823B 30840M 30843B 30868  30913M 30914M 30914B 30917M
             30918M 30918B 30935M 30938B
    15(F)      922U  2099   7209M  7209   7338M  7338   7363M  7363   7436M  7454M  7454   7499M  7499   7604M  7604
              7629M  7629   7646M  7663M  7663   7703M  7703   7833M  7833   7956M  7956   7983M  7988M  7993M  7993
              8088M  8088   8115M  8120M  8125M  8125   8157M  8157   8184M  8189M  8194M  8194   8246M  8246   8273M
              8278M  8283M  8283   8294M  8294   8319M  8319   8325M  8354M  8384M  8384   8497M  8497   8610M  8615M
              8874M  8874   9025M  9025   9181M  9181   9336M  9336   9512M  9512   9567M  9567   9722M  9722   9777M
              9777   9985M  9985  10040M 10040  10197M 10197  10221M 10221  10354M 10359M 10485M 10485  10539M 10539
             10776M 10776  10800M 10800  10911M 10965  10980M 10980  11036M 11036  11238M 11238  11440M 11440  11650M
             11655M 11682M 11682  11892M 11897M 11924M 11924  12134M 12139M 12166M 12166  12376M 12381M 12408M 12408
             12555M 12555  12702M 12702  12909M 12909  13061M 13061  13090M 13090  13226M 13226  13255M 13255  13354M
             13359M 13412M 13412  13441M 13441  13567M 13567  13614M 13614  13642M 13647M 13671M 13671  13744M 13749M
             13775M 13793M 13798M 13817M 13817  13890M 13895M 13921M 13939M 13944M 13963M 13963  14781M 14781  15075M
             15097M 15097  15169M 15169  15190M 15190  15266M 15296M 15314M 15319M 15338M 15338  15478  15509M 15527M
             15532M 15594M 15594  15623M 15623  15741M 15746M 15924M 15924  16032M 16032  16075  16241M 16241  16582M
             16582  16589M 16594M 16619M 16619  17050M 17050  17079M 17079  17378M 17378  17435M 17435  17672M 17672
             17717M 17717  17954M 17954  17999M 17999  18183M 18183  18202M 18202  18299M 18299  18320M 18320  18417M
             18417  18438M 18438  18558M 18558  18585M 18590M 18595M 18595  18641M 18641  18715M 18715  18812M 18812
             18833M 18833  18963M 18963  19009M 19009  19089M 19089  19110M 19110  19207M 19207  19226M 19226  19323M
             19323  19342M 19342  19439M 19439  19458M 19458  19555M 19555  19574M 19574  19671M 19671  19690M 19690
             19787M 19787  19806M 19806  19903M 19903  19922M 19922  20019M 20019  20038M 20038  20200M 20200  20235M
             20271M 20280M 20307M 20307  20341M 20350M 20376M 20376  20457M 20457  20478M 20478  20559M 20559  20580M
             20580  20661M 20661  20682M 20682  21297M 21297  21471M 21471  21492M 21492  21689M 21689  21715M 21715
             21809M 22004M 22026M 22026  22144M 22700M 22700  22776M 22776  22802M 22820M 22827M 22857M 22857  23052M
             23052  23128M 23128  23155M 23160M 23165M 23165  23199  23226M 23226  23233M 23258M 23258  23566M 23566
             23569M 23593M 23593  23784M 23784  23859M 23859  23882M 23882  23961M 24018M 24056M 24056  24083M 24088M
             24093M 24093  24105M 24139M 24139  24349M 24349  24445M 24450M 24554M 24613M 24613  24695M 24695  24730M
             24730  24778M 24848M 24910M 25038M 25043M 25070M 25070  25099M 25099  25177M 25177  25204M 25209M 25214M
             25214  25260M 25260  25277M 25294M 25294  25332M 25332  25506M 25506  25587M 25587  25827M 25827  25885M
             25885  25988M 25988  26030M 26035M 26204M 26209M 26271M 26271  26382M 26382  26424M 26429M 26479  26514
             26547M 26547  26572  26984M 26989M 27036M 27041M 27057M 27057  27102M 27107M 27127  27228M 27228  27430M
             27430  27632M 27632  27730M 27730  27754M 27754  27849M 27849  27873M 27873  28179M 28241M 28241  28284M
             28284  28501M 28501  28527M 28527  28722M 28722  28806M 28806  28891M 28891  29016M 29016  29134M 29134
             29394M 29394  29555M 29555  29618M 29623M 29642M 29642  29705M 29710M 29729M 29729  29805M 29828M 29833M
             29852M 29852  29922M 29927M 29946M 29946  30022M 30045M 30050M 30069M 30069  30145M 30168M 30173M 30192M
             30192  30261M 30284M 30289M 30308M 30308  30418M 30440M 30462M 30480M 30503M 30508M 30527M 30527  30636M
             30658M 30680M 30698M 30720M 30728M 30728  30747M 30747  30815M 30842M 30842  30910M 30937M 30937

1EVAL     (EVAL9204) (12:43) (15MAR04) Diagnostic Cross Reference and Assembler Summary                                     Page  225
-                                                                                            HLASM R4.0  2004/03/15 12.43
0     No Statements Flagged in this Assembly
 HIGH LEVEL ASSEMBLER, 5696-234, RELEASE 4.0, PTF P72483
0SYSTEM: OS/390 02.10.00            JOBNAME: WYL#EVAL    STEPNAME: ASM        PROCSTEP: (NOPROC)
0Datasets Allocated for this Assembly
  Con DDname   Dataset Name                                 Volume  Member
   P1 SYSIN    WYL.GS.WYL.WYLBUR.SOURCE                     SYSB05  EVAL
   L1 SYSLIB   WYL.GS.WYL.WYLBUR.MACLIB                     SYSB05
   L2          WYL.GG.SYS.MACLIB                            SYSB05
   L3          SYS3.IS.MACLIB                               SYSB05
   L4          SYS3.MACLIB                                  SYSB02
   L5          SYS1.MACLIB                                  MVSBR9
   L6          SYS1.MODGEN                                  MVSBR9
      SYSPRINT SYS04075.T124351.RA000.WYL#EVAL.PRINT.H01    SCR101
      SYSTERM  GG$SLP.WYL#EVAL.JOB03521.D0000101.?

    3668K allocated to Buffer Pool,         3713K would be required for this to be an In-Storage Assembly
    4925 Primary Input Records Read         6791 Library Records Read                  0 Work File Reads
       0 ASMAOPT Records Read              16993 Primary Print Records Written        15 Work File Writes
       0 Punch Records Written                 0 ADATA Records Written
0Assembly Start Time: 12.43.53 Stop Time: 12.44.04 Processor Time: 00.00.05.7039
 Return Code 000
