1                        J E S 2  J O B  L O G  --  S Y S T E M  S Y S B  --  N O D E  R L G
0
 12.56.50 JOB03568 ---- MONDAY,    15 MAR 2004 ----
 12.56.50 JOB03568  ICH70001I GG$SLP   LAST ACCESS AT 12:56:28 ON MONDAY, MARCH 15, 2004
 12.56.50 JOB03568  $HASP373 WYL#TERM STARTED - INIT 9    - CLASS B - SYS SYSB
 12.56.50 JOB03568  ***  HCMD      STEP $$QUIET
 12.56.50 JOB03568  PUR * Q OUT MUL
 12.56.50 JOB03568  JOB 5430 WYL#TERM WILL BE PURGED
 12.56.51 JOB03568  WYL#TERM.$$QUIET .         RC=Zero TapeIO=0000 DiskIO=0000 CPU=  .01s Elapsed=10.39s
 12.57.11 JOB03568  WYL#TERM.ASM     .         RC=Zero TapeIO=0000 DiskIO=0807 CPU= 4.71s Elapsed=12.16s
 12.57.12 JOB03568  WYL#TERM.EDIT    .         RC=Zero TapeIO=0000 DiskIO=0197 CPU=  .62s Elapsed=31.21s
 12.57.12 JOB03568  WYL#TERM Ended.  Name=Assemble TERM                  Total CPU= 5.34s Elapsed=10.39s
 12.57.12 JOB03568
 12.57.12 JOB03568  Execution charges   Priority=Standard   Block=Day
 12.57.12 JOB03568
 12.57.12 JOB03568  CPU Usage          98.25          $60.91   Standard Processing Unit Equivalent
 12.57.12 JOB03568                                   =======
 12.57.12 JOB03568                                    $60.91   Total Job execution charge
 12.57.12 JOB03568
 12.57.12 JOB03568  See back separator page for print charges
 12.57.12 JOB03568
 12.57.12 JOB03568  $HASP395 WYL#TERM ENDED  ASM=0, EDIT=0
1        1 //WYL#TERM JOB SLP$GG,'Assemble TERM',TIME=4,REGION=4M                  JOB03568
           //*
           /*JOBPARM LINES=99,COPIES=1
           /*JOBPARM FORMS=3HOL,PFORMAT=LAND,CHARS=BD13,DUPLEX=YES,FLASH=BAR4
           //*
           /*JOBPARM NOTIFY=GG.SLP,HOLD=OUTPUT                                     WYLGEN
         2 //$$QUIET EXEC PGM=HCMDX,PARM='PUR * Q OUT MUL'
           //*
         3 //ASM    EXEC PGM=ASMA90,REGION=8M,
           //            PARM=('NORENT,TERM,FLAG(NOCONT),US(MAP,WARN(10)),NODECK',
           //            'LC(32767),XREF(SHORT),ESD,DXREF,NOOBJECT')
         4 //STEPLIB DD DSN=SYS3.IS.TESTASM,DISP=SHR
         5 //SYSLIB   DD  DSN=WYL.GS.WYL.WYLBUR.MACLIB,DISP=SHR
         6 //         DD  DSN=WYL.GG.SYS.MACLIB,DISP=SHR
         7 //         DD  DSN=SYS3.IS.MACLIB,DISP=SHR
         8 //         DD  DSN=SYS3.MACLIB,DISP=SHR
         9 //         DD  DSN=SYS1.MACLIB,DISP=SHR
        10 //         DD  DSN=SYS1.MODGEN,DISP=SHR
        11 //SYSUT1   DD DSN=&&SYSUT1,UNIT=VIO,DISP=(,DELETE),
           //            SPACE=(4088,(500,250),,CONTIG,ROUND)
        12 //SYSTERM  DD SYSOUT=T
        13 //SYSPRINT DD DSN=&&PRINT,UNIT=SYSDA,DISP=(,PASS),
           //            SPACE=(6650,(250,250),RLSE),
           //            DCB=(BLKSIZE=6650,LRECL=133,RECFM=FB)
        14 //SYSUDUMP DD SYSOUT=A
        15 //SYSIN    DD  DSN=WYL.GS.WYL.WYLBUR.SOURCE(TERM),DISP=SHR
           //*
        16 //EDIT    EXEC PGM=ASMEDIT,TIME=2,REGION=4000K,
           //             PARM='STMT'
        17 //STEPLIB  DD  DSN=WYL.GG.SYS.LINKLIB,DISP=SHR
        18 //ASMOUT   DD  DSN=&PRINT,DISP=(OLD,DELETE)
        19 //SYSPRINT DD  SYSOUT=A
1 STMT NO. MESSAGE
 -
        11 IGD01010I STORCLAS= TEMP STORGROUP =
        11 IGD01010I STORGRP=VIO ASSIGNED.
        13 IGD01010I STORCLAS= TEMP STORGROUP =
        13 IGD01010I STORGRP=VIO ASSIGNED.
 ICH70001I GG$SLP   LAST ACCESS AT 12:56:28 ON MONDAY, MARCH 15, 2004
 IEF142I WYL#TERM $$QUIET - STEP WAS EXECUTED - COND CODE 0000
 *********************************************************************************
 *   WYL#TERM/$$QUIET /                    Return Code      Zero                 *
 *   Region used      260K (16K user + 244K system)                              *
 *   Extended region  9464K (4K user + 9460K system)                             *
 *                                                                               *
 *   Paging              In      Out                                             *
 *   Private <-> Aux      0        0       CPU time (TCB)   00:00:00.01          *
 *   Private <-> Exp      0        0       CPU time (SRB)   00:00:00.00          *
 *   VIO                  0        0       Elapsed time    917:31:02.57          *
 *   Common               0      ---                                             *
 *                                                                               *
 *                                                                               *
 *   CPU Usage          0.18         $0.11  Standard Processing Unit Equivalent  *
 *                                   $0.11  Total Step execution charge          *
 *                                                                               *
 *    I/O count  DDname   Type Addr           I/O count  DDname   Type Addr      *
 *                         *** No I/O for this step ***                          *
 *********************************************************************************
 IEF373I STEP/$$QUIET /START 2004075.1256
 IEF374I STEP/$$QUIET /STOP  2004075.1256 CPU    0MIN 00.01SEC SRB    0MIN 00.00SEC VIRT    16K SYS   244K EXT       4K SYS    9460K
 IEF236I ALLOC. FOR WYL#TERM ASM
 IEF237I 04DC ALLOCATED TO STEPLIB
 IEF237I 04DC ALLOCATED TO SYSLIB
 IEF237I 04DC ALLOCATED TO
 IEF237I 04DC ALLOCATED TO
 IEF237I 0402 ALLOCATED TO
 IEF237I 04A0 ALLOCATED TO
 IEF237I 04A0 ALLOCATED TO
 IGD101I SMS ALLOCATED TO DDNAME (SYSUT1  )
         DSN (SYS04075.T125650.RA000.WYL#TERM.SYSUT1.H01  )
         STORCLAS (TEMP) MGMTCLAS (        ) DATACLAS (        )
         VOL SER NOS= VIO
 IEF237I JES2 ALLOCATED TO SYSTERM
 IGD101I SMS ALLOCATED TO DDNAME (SYSPRINT)
         DSN (SYS04075.T125650.RA000.WYL#TERM.PRINT.H01   )
         STORCLAS (TEMP) MGMTCLAS (        ) DATACLAS (        )
         VOL SER NOS= SCR100
 IEF237I JES2 ALLOCATED TO SYSUDUMP
 IEF237I 04DC ALLOCATED TO SYSIN
 IEF142I WYL#TERM ASM - STEP WAS EXECUTED - COND CODE 0000
 IEF285I   SYS3.IS.TESTASM                              KEPT
 IEF285I   VOL SER NOS= SYSB05.
 IEF285I   WYL.GS.WYL.WYLBUR.MACLIB                     KEPT
 IEF285I   VOL SER NOS= SYSB05.
 IEF285I   WYL.GG.SYS.MACLIB                            KEPT
 IEF285I   VOL SER NOS= SYSB05.
 IEF285I   SYS3.IS.MACLIB                               KEPT
 IEF285I   VOL SER NOS= SYSB05.
 IEF285I   SYS3.MACLIB                                  KEPT
 IEF285I   VOL SER NOS= SYSB02.
 IEF285I   SYS1.MACLIB                                  KEPT
 IEF285I   VOL SER NOS= MVSBR9.
 IEF285I   SYS1.MODGEN                                  KEPT
 IEF285I   VOL SER NOS= MVSBR9.
 IGD105I SYS04075.T125650.RA000.WYL#TERM.SYSUT1.H01   DELETED,   DDNAME=SYSUT1
 IEF285I   GG$SLP.WYL#TERM.JOB03568.D0000101.?          SYSOUT
 IGD106I SYS04075.T125650.RA000.WYL#TERM.PRINT.H01    PASSED,    DDNAME=SYSPRINT
 IEF285I   GG$SLP.WYL#TERM.JOB03568.D0000102.?          SYSOUT
 IEF285I   WYL.GS.WYL.WYLBUR.SOURCE                     KEPT
 IEF285I   VOL SER NOS= SYSB05.
 *********************************************************************************
 *   WYL#TERM/ASM     /                    Return Code      Zero                 *
 *   Region used      4376K (4096K user + 280K system)                           *
 *   Extended region  10064K (412K user + 9652K system)                          *
 *                                                                               *
 *   Paging              In      Out                                             *
 *   Private <-> Aux      0        0       CPU time (TCB)   00:00:04.63          *
 *   Private <-> Exp      0        0       CPU time (SRB)   00:00:00.08          *
 *   VIO                  0        0       Elapsed time    917:31:00.80          *
 *   Common               0      ---                                             *
 *                                                                               *
 *                                                                               *
 *   CPU Usage         86.81        $53.82  Standard Processing Unit Equivalent  *
 *                                  $53.82  Total Step execution charge          *
 *                                                                               *
 *    I/O count  DDname   Type Addr           I/O count  DDname   Type Addr      *
 *           83  STEPLIB  Disk 04DC                 357  SYSLIB   Disk 04DC      *
 *            0  SYSLIB   Disk 04DC                   0  SYSLIB   Disk 04DC      *
 *            9  SYSLIB   Disk 0402                 155  SYSLIB   Disk 04A0      *
 *            0  SYSLIB   Disk 04A0                   4  SYSUT1   VIO  ----      *
 *            0  SYSTERM       ----                 194  SYSPRINT Disk 038B      *
 *            0  SYSUDUMP      ----                   9  SYSIN    Disk 04DC      *
 *********************************************************************************
 IEF373I STEP/ASM     /START 2004075.1256
 IEF374I STEP/ASM     /STOP  2004075.1257 CPU    0MIN 04.63SEC SRB    0MIN 00.08SEC VIRT  4096K SYS   280K EXT     412K SYS    9652K
 IEF236I ALLOC. FOR WYL#TERM EDIT
 IEF237I 0402 ALLOCATED TO STEPLIB
 IGD103I SMS ALLOCATED TO DDNAME ASMOUT
 IEF237I JES2 ALLOCATED TO SYSPRINT
 IEF142I WYL#TERM EDIT - STEP WAS EXECUTED - COND CODE 0000
 IEF285I   WYL.GG.SYS.LINKLIB                           KEPT
 IEF285I   VOL SER NOS= SYSB02.
 IGD105I SYS04075.T125650.RA000.WYL#TERM.PRINT.H01    DELETED,   DDNAME=ASMOUT
 IEF285I   GG$SLP.WYL#TERM.JOB03568.D0000103.?          SYSOUT
 *********************************************************************************
 *   WYL#TERM/EDIT    /                    Return Code      Zero                 *
 *   Region used      380K (116K user + 264K system)                             *
 *   Extended region  9588K (4K user + 9584K system)                             *
 *                                                                               *
 *   Paging              In      Out                                             *
 *   Private <-> Aux      0        0       CPU time (TCB)   00:00:00.60          *
 *   Private <-> Exp      0        0       CPU time (SRB)   00:00:00.02          *
 *   VIO                  0        0       Elapsed time    917:30:41.75          *
 *   Common               0      ---                                             *
 *                                                                               *
 *                                                                               *
 *   CPU Usage         11.25         $6.97  Standard Processing Unit Equivalent  *
 *                                   $6.97  Total Step execution charge          *
 *                                                                               *
 *    I/O count  DDname   Type Addr           I/O count  DDname   Type Addr      *
 *            2  STEPLIB  Disk 0402                 195  ASMOUT   Disk 038B      *
 *            0  SYSPRINT      ----                                              *
 *********************************************************************************
 IEF373I STEP/EDIT    /START 2004075.1257
 IEF374I STEP/EDIT    /STOP  2004075.1257 CPU    0MIN 00.60SEC SRB    0MIN 00.02SEC VIRT   116K SYS   264K EXT       4K SYS    9584K
 *********************************************************************************
 *                                                                               *
 *                      S t a n f o r d   U n i v e r s i t y                    *
 *                                                                               *
 *                              *** Job Summary ***                              *
 *                                                                               *
 *   System Id      SYSB                   Input time     12:39:27  Mar 15, 2004 *
 *                                                                               *
 *   System Release SP6.1.0                Start time     12:56:50  Mar 15, 2004 *
 *                                                                               *
 *   Job name       WYL#TERM               Stop  time     00:00:00  Mar 15, 2004 *
 *                                                                               *
 *   Account        SLP$GG                 Elapsed time  917:31:02.57            *
 *                                                                               *
 *   User Name      Assemble TERM          CPU time       00:00:05.24            *
 *                                                                               *
 *   Job class      B                      SRB Time       00:00:00.10            *
 *                                                                               *
 *********************************************************************************
 IEF375I  JOB/WYL#TERM/START 2004075.1256
 IEF376I  JOB/WYL#TERM/STOP  2004075.1257 CPU    0MIN 05.24SEC SRB    0MIN 00.10SEC
1Assembler Done TERM No Statements Flagged
1         High Level Assembler Option Summary                   (PTF P72483 )                                               Page    1
-                                                                                            HLASM R4.0  2004/03/15 12.56
0  No Overriding ASMAOPT Parameters
   Overriding Parameters-  NORENT,TERM,FLAG(NOCONT),US(MAP,WARN(10)),NODECK,LC(32767),XREF(SHORT),ESD,DXREF,NOOBJECT
   No Process Statements


   Options for this Assembly
0  NOADATA
     ALIGN
   NOASA
     BATCH
     CODEPAGE(047C)
   NOCOMPAT
   NODBCS
 3 NODECK
 3   DXREF
 3   ESD
   NOEXIT
 3   FLAG(0,ALIGN,NOCONT,NOIMPLEN,NOPAGE0,PUSH,RECORD,NOSUBSTR,USING0)
   NOFOLD
   NOGOFF
   NOINFO
     LANGUAGE(EN)
   NOLIBMAC
 3   LINECOUNT(32767)
     LIST(121)
     MXREF(SOURCE)
 3 NOOBJECT
     OPTABLE(UNI,NOLIST)
   NOPCONTROL
   NOPESTOP
   NOPROFILE
   NORA2
 3 NORENT
     RLD
     RXREF
     SIZE(MAX)
     SYSPARM()
 3   TERM(WIDE)
   NOTEST
     THREAD
   NOTRANSLATE
 3   USING(NOLIMIT,MAP,WARN(10))
 3   XREF(SHORT)

   No Overriding DD Names

1TERM     External Symbol Dictionary                                                                                        Page    2
-Symbol   Type   Id     Address  Length     LD ID  Flags Alias-of                            HLASM R4.0  2004/03/15 12.56
0WYLTERM   SD 00000001 00000000 00002AA8             00
 TERM2193  LD          00000000           00000001
 TSEGPLIN  LD          00000094           00000001
 TERMINIT  LD          00000144           00000001
 SEGWR     ER 00000002
 TSEG      LD          0000028A           00000001
 SEG       ER 00000003
 TERMSEG   LD          000002B0           00000001
 TSTAT     ER 00000004
 SEGINIT   ER 00000005
 SEGT      ER 00000006
 PAGERES   ER 00000007
 TCURS     LD          00000784           00000001
 TREND     LD          00000822           00000001
 TREADQ    LD          000008B2           00000001
 TREAD     LD          000008E8           00000001
 TIDLEWR   LD          00000D58           00000001
 TASWRITE  LD          00000DBC           00000001
 TCNTL     LD          00000E42           00000001
 TXCTL     LD          00000EC2           00000001
 TBREAK    LD          00000FB6           00000001
 TSTAT     LD          00000FFE           00000001
 TSUBOFF   LD          00001044           00000001
 TLOGOFF   LD          000010A2           00000001
 SEGDC     ER 00000008
 SEGCLR    ER 00000009
 PATHQ     ER 0000000A
 NPATQ     ER 0000000B
 PATHDEQ   ER 0000000C
 TIMERDQ   ER 0000000D
 NPATDEQ   ER 0000000E
 SEGCR     ER 0000000F
 INITXDMP  LD          0000164A           00000001
 CLRTEXT   ER 00000010
 ENDLNO    ER 00000011
 LOCATE    ER 00000012
 PRESS     ER 00000013
 STOW      ER 00000014
 ADDER     ER 00000015
 SEGB      ER 00000016
 CVEXNO    ER 00000017
 GTNEXTLN  ER 00000018
 GTFRSTLN  ER 00000019
 INSLINE   ER 0000001A
 TSGBUFGT  LD          00001AA0           00000001
 DISPATCH  ER 0000001B
 GETPOOL   ER 0000001C
 TSGBUFRE  LD          00001B36           00000001
 FREEPOOL  ER 0000001D
 TSEGBUF   LD          00001B94           00000001
 INITUSER  LD          00001C28           00000001
 FREEBILL  ER 0000001E
 INITCMD   ER 0000001F
 INITPUSR  ER 00000020
 SIGNON    ER 00000021
1TERM     External Symbol Dictionary                                                                                        Page    3
 GETCORE   ER 00000022
 FREECORE  ER 00000023
 MILPOST   LD          00001EDE           00000001
 QSETUP    LD          000021CA           00000001
 SHUTDOWN  ER 00000024
 DQJCB     ER 00000025
 GETRSC    ER 00000026
 WAITER    LD          00002284           00000001
 TIMRINIT  LD          000023E0           00000001
 TIMRSTOP  LD          00002470           00000001
 TIMERQ    LD          000024C8           00000001
 TIMERDQ   LD          000025D4           00000001
 CV        ER 00000027
 AMODE31   ER 00000028

1TERM     WYLBUR's Terminal Routines                                                                                        Page    4
0Loc    Object Code    Addr1 Addr2  Stmt Lv Lineno    Source Statement                    (Asmedit 3.3)  HLASM R4.0  2004/03/15 12.56
+___    ______ ____    _____ _____  ____ __ ______    ______ _________
0                                      2              *******************************************************************
                                       3              *                                                                 *
                                       4              *     WYLBUR/370 - Release VI - Class I - Stanford Proprietary    *
                                       5              *                                                                 *
                                       6              *******************************************************************
                                       7                       HIBAL
                                     988
 000000                00000 02AA8   989              WYLTERM  CSECT
                                     993              TERM     IDENT 2193                15:11:57 07/12/02  (SLP)
                                     996             +
                                     997    01-IDENT +         ENTRY TERM2193
                                     998             +
 000000 16E3C5D9D4F2F1F9             999    01-IDENT +TERM2193 DC    AL1(22),C'TERM2193,15MAR04,12:56'
                                    1000             +*
                                    1002              *
                                    1003                       REGS  FSR,,,,,JCBR,,BR,(WAR,LSR),PAR,PBR,CPR,CVR,SPR,RAR
                                    1152
                                    1153                       SYSDEFN
                                    1154
                                    1155                       PUSH  DSECTS
 USING  CP,R11                      1166             =         USING (CP),(CV)
 USING  CV,R12
 000017                00000 02AA8  1185             =         POP   PRINT
 000000                00000 0003C  7318              SEGCB    RECORD 'SEGCB'
 000000 00                          7328  1 03-SEGCB +$$$SEGCB43   DS  0F
 SEGCBCOD.SEGCBSEG 01 EQ
 SEGCBCOD.SEGCBWR  02 EQ
 SEGCBCOD.SEGCBCLR 03 EQ
 SEGCBCOD.SEGCBSPP 04 EQ
 SEGCBCOD.SEGCBOVF 05 EQ
 SEGCBCOD.SEGCBCR  06 EQ
 SEGCBCOD.SEGCBMAR 07 EQ
 000001 00                          7403  1 03-SEGCB +           DC    X'00'               Reserved
 000002 0000                              1          +
 000004 00000000                    7404  1 03-SEGCB +SEGCBMAXF   DC   A(0)                Maximum buffer length
 000008 00000000                    7405  1 03-SEGCB +SEGCBMRKF   DC   A(0)                Length at last mark
 00000C 00000000                    7406  1 03-SEGCB +SEGCBLENF   DC   A(0)                Current length
 000010 00000000                    7407  1 03-SEGCB +SEGCBINDF   DC   A(0)                Overflow/indent count
 000014 00000000                    7408  1 03-SEGCB +SEGCBERR   DC    A(0)                Address of error recovery routine
 000018 0000000000000000            7409  1 03-SEGCB +           DC    2F'0'               Reserved
 000020 00000000                    7410  1 03-SEGCB +SEGCBLOC   DC    A(0)                Location of buffer
 000024 00000000                    7411  1 03-SEGCB +SEGCBRTN   DC    A(0)                Processing routine
 000028 0000000000000000            7412  1 03-SEGCB +           DC    4F'0'               Reserved
 000038 00000000                    7413    03-SEGCB +SEGCBUSR DC    A(0)                USER field
1TERM     (TERM2193) (12:56) (15MAR04) DSECTS                                                                               Page    5
0Current Usings:  (CP,R11) (CV,R12)
0Loc    Object Code    Addr1 Addr2  Stmt Lv Lineno    Source Statement           (Hibal 5, Asmedit 3.3)  HLASM R4.0  2004/03/15 12.56
+___    ______ ____    _____ _____  ____ __ ______    ______ _________
0000017                00000 02AA8  7424              WYLTERM  CSECT
                                    7426              ***
                                    7427              ***  MILTEN Information.
                                    7428              ***
 000018                             7429              MILINFO  DS    0D
                                    7430                       PDB   TYPE=FORMAT,PFX=MQR
                                    7431+            +         ¿þþþþþþþþþþþþþþþþþþþþþþÜ
                                    7432+            +         Ÿ  Passed Data Buffer  Ÿ
                                    7433+            +         ¾þþþþþþþþþþþþþþþþþþþþþþ»
 000018 0000/0000/0000_             7434    01-PDB   +MQRSTRT  DC    0F'0'
                                    7481+            +         ¿þþþþþþþþþþþþþþþþþþþþþþþþþþþþÜ
                                    7482+            +         Ÿ  Control PDB information.  Ÿ
                                    7483+            +         ¾þþþþþþþþþþþþþþþþþþþþþþþþþþþþ»
                                    7484    01-PDB   +MQRCNO   EQU   MQRCMDFL,1,C'X'     Control number (to MILTEN)
                                    7493
                                    7494            C MILPATH  PATH  VERSION=2,MYTAG=WYLBUR,YOURTAG=MILTEN,BUFSIZE=*-*,
 000050 00000000/0000000_                                            ECB=*-*,FLAG=MILSFLAG,PFX=MILP
                                    7556
 000088 00                          7557              MILFLAG  DC    X'00'               WYLBUR's copy of path post flags
 000089 00                          7558              MILSFLAG DC    X'00'               SUZAN's copy of path post flags
 00008A 00                          7559              MILZFLAG DC    X'00'               Zero constant to zero post flags
 00008B 00                          7560                       DC    X'00'               Extra byte to round out zero byte
                                    7561
 00008C                             7562              MILPTRS  DS    2A                  Retreive/free Suzan ptrs
                                    7563              *
                                    7564              * Terminal seg buffer quantum
                                    7565              *
                                    7566              TSEGBQNT EQU   2048                TSEG buffer allocation quantum
                                    7567
1TERM     (TERM2193) (12:56) (15MAR04) DSECTS                                                                               Page    6
0Current Usings:  (CP,R11) (CV,R12)
0Loc    Object Code    Addr1 Addr2  Stmt Lv Lineno    Source Statement           (Hibal 5, Asmedit 3.3)  HLASM R4.0  2004/03/15 12.56
+___    ______ ____    _____ _____  ____ __ ______    ______ _________
0                                   7569                       AIF   (&$PCODE).NOINIT    *** PCODE
 000000                00000 00040  7570              TINITWA  RECORD BEGIN
 000000                             7578  1           TINPDB     DS    XL(L'PDBHDR)        PDB work area
                                    7579  1
 000038                             7580  1           TINSENDX   DS    D                   Suzan send loc, len
 000040                00040 00040  7581                       END
-                                   7591              ¿þþþþþþþþþþþþþþþþþþþþþþþþþþþþþþþþþþþþþþþþþþþþþþþþþþþþþþþþþþþþþþþþþþþþþÜ
                                    7592              Ÿ                                                                     Ÿ
                                    7593              Ÿ  TSEGPLIN -- Routine to initialize the TSEG buffer pool.            Ÿ
                                    7594              Ÿ              Called by the INIT module.                             Ÿ
                                    7595              Ÿ                                                                     Ÿ
                                                      ¾þþþþþþþþþþþþþþþþþþþþþþþþþþþþþþþþþþþþþþþþþþþþþþþþþþþþþþþþþþþþþþþþþþþþþ»
0000094 50E0 D000/9008_      00000  7596              TSEGPLIN XPROC
 USING  *,R7
                                    7636              *
                                    7637              *  Initialize the terminal seg buffer pool
                                    7638              *
 0000AE 5810 708A            00138  7639                       L     R1,=A(CPSEGMX#)     Max buffer size (bytes)
 0000B2 1B00                        7640                       CLEAR R0
 0000B4 4120 0800            00800  7644                       LA    R2,TSEGBQNT         Allocation mult (bytes)
 0000B8 1D02                        7645                       DR    R0,R2               Number of cell blocks needed
 0000BA 1200/4780 7016_             7646                       IF    (R0,NZ),'LA R1,1(,R1)'
 0000C4 1831                        7666                       LR    R3,R1               Save for loop
 0000C6 5C00 708E            0013C  7667                       M     R0,=A(L'CELLBLOK)
 0000CA 0700/47F0 7026_             7668                       GETMAIN RU,LV=(1),LOC=ANY Get cell blocks
 0000DE 5010 C5EC            005EC  7681                       ST    R1,CVTSEGPL         Save it
 0000E2 5930 7092/47D0_      00140  7682                       WHILE (R3,GT,0),BEGIN
 USING  CELLBLOK,R1                 7701  1                      WITH  (CELLBLOK,R1)
 0000EA D227 1000 7062 00000 00110  7714  1                      MVC   CELLBLOK,MODLCELL
 0000F0 5020 101C            0001C  7715  1                      ST    R2,CELSIZE
 0000F4 4120 2800            00800  7716  1                      LA    R2,TSEGBQNT(,R2)
 0000F8 0630                        7717  1                      BCTR  R3,0
 0000FA 4110 1028            00028  7718  1                      LA    R1,L'CELLBLOK(,R1)
 0000FE 47F0 7034            000E2  7719                       END
 DROP   CELLBLOK,R1
 000102 18D8/9808 D004_             7729                       PEND
 DROP   *,R7
 000110 C3C5D3D3C2D3D6D2_           7749              MODLCELL CELLBLOK SIZE=1
                                    7760                       QLTORG
1TERM     (TERM2193) (12:56) (15MAR04) DSECTS                                                                               Page    7
0Current Usings:  (CP,R11) (CV,R12)
0Loc    Object Code    Addr1 Addr2  Stmt Lv Lineno    Source Statement           (Hibal 5, Asmedit 3.3)  HLASM R4.0  2004/03/15 12.56
+___    ______ ____    _____ _____  ____ __ ______    ______ _________
0                                   7776              ¿þþþþþþþþþþþþþþþþþþþþþþþþþþþþþþþþþþþþþþþþþþþþþþþþþþþþþþþþþþþþþþþþþþþþþÜ
                                    7777              Ÿ                                                                     Ÿ
                                    7778              Ÿ  TERMINIT -- Routine to initialize the path to MILTEN.              Ÿ
                                    7779              Ÿ      Called by the INIT module.                                     Ÿ
                                    7780              Ÿ                                                                     Ÿ
                                                      ¾þþþþþþþþþþþþþþþþþþþþþþþþþþþþþþþþþþþþþþþþþþþþþþþþþþþþþþþþþþþþþþþþþþþþþ»
0000144 50E0 D000/9008_      00000  7781              TERMINIT XPROC TINITWA
 USING  *,R7
 USING  TINITWA-(4+36),R8
                                    7832
 00015E 5860 710A            00268  7833                       L     R6,=A(MILINFO)      Resource entry
 USING  MILINFO,R6                  7834                       WITH  (MILINFO,R6)
                                    7847                       ¿þþþþþþþþþþþþþþþþþþþþþþþþþþþþþþþÜ
                                    7848                       Ÿ  Setup Suzan path to MILTEN.  Ÿ
                                    7849                       ¾þþþþþþþþþþþþþþþþþþþþþþþþþþþþþþþ»
 000162 4130 6038            00050  7850                       LA    R3,MILPATH          Suzan path
 USING  PATHD,R3                    7851                       WITH  (PATHD,R3),BEGIN
 000166 41F0 C720            00720  7865  1                      LA    R15,CVECB
 00016A 50F0 3028            00028  7866  1                      ST    R15,PATHECB         Save ECB ptr
 00016E D207 3008 70FA 00008 00258  7867  1                      MVC   PATHMY,=CL8'SUBSYS'
 000174 D203 3024 710E 00024 0026C  7868  1                      MVC   PATHPASS,=CL4'PSUB'
 00017A 9180 C4C4/47E0_004C4        7869  1                      IF    CVFTMIL,'MVI PATHPASS,C"T"'
 000186 D207 3010 7102 00010 00260  7890  1                      MVC   PATHYOU,=CL8'MILTEN'
 00018C D203 301C C138 0001C 00138  7891  1                      MVC   PATHBUF,CVMBUFF     Set MILTEN buffer size
 DROP   PATHD,R3                    7892                       END
                                    7900                       ¿þþþþþþþþþþþþþþþþþþþþÜ
                                    7901                       Ÿ  Open Suzan path.  Ÿ
                                    7902                       ¾þþþþþþþþþþþþþþþþþþþþ»
 000192 5030 D000            00000  7903                       ST    R3,@R13             A(MILPATH)
 000196 9680 D000      00000        7904                       SET   @R13.X'80'          End of Suzan parm list
 00019A 1B00/1BFF/181D_             7911                       SCOM  OPEN,(R13)          Open path
 0001A2 12FF/4780 7062_             7926                       FAIL  (R15,NZ),MILPBAD,'MILTEN Path init error.'
 0001C0 9108 6071/4710_00089        7952                       IF    ~MILSFLAG.PATHFOPN,BEGIN  Path not yet open...
 0001C8 4110 7118/4100_      00276  7968  1                      XWTO  'Waiting for MILTEN.'
 0001DA                             7985                       END
 0001DA 4100 0001/4110_      00001  7989                       WAIT  ECB=CVECB
 0001E4 D703 C720 C720 00720 00720  7996                       CLEAR CVECB               Clear ECB
 0001EA 94F7 6071      00089        8003                       CLEAR MILSFLAG.PATHFOPN   Turn off path open flag
                                    8011                       ¿þþþþþþþþþþþþþþþþþþþþþþþþþþþþþþþþþþþþþþþÜ
                                    8012                       Ÿ  Send subsystem initialization call.  Ÿ
                                    8013                       ¾þþþþþþþþþþþþþþþþþþþþþþþþþþþþþþþþþþþþþþþ»
 0001EE 4150 8028            00000  8014                       LA    R5,TINPDB
 USING  PDB,R5                      8015                       WITH  (PDB,R5),BEGIN
 0001F2 D737 5000 5000 00000 00000  8029  1                      CLEAR PDBHDR
 0001F8 9221 5006      00006        8036  1                      MVI   PDBCMD,TMILINIT     Set to init call
 0001FC 9280 5007      00007        8037  1                      MVI   PDBCMDFL,INITFPRV   Priv'd subsystem
 000200 D207 5024 C028 00024 00028  8038  1                      MVC   PDBSYSNM,CVWYLSSN   Set subsystem name
 000206 D201 5000 7116 00000 00274  8039  1                      MVC   PDBLENG,=AL2(L'PDBHDR)  Set PDB length
 DROP   PDB,R5                      8040                       END
                                    8048
 00020C D707 8060 8060 00038 00038  8049                       CLEAR TINSENDX            Suzan loc,len parm list
 000212 5050 8060            00038  8056                       ST    R5,TINSENDX         Transaction loc
 000216 9680 8060      00038        8057                       SET   TINSENDX.X'80'      Last parameter
1TERM     (TERM2193) (12:56) (15MAR04) DSECTS                                                                               Page    8
0Current Usings:  (MILINFO,R6) (*,R7) (TINITWA-(4+36),R8) (CP,R11) (CV,R12)
0Loc    Object Code    Addr1 Addr2  Stmt Lv Lineno    Source Statement           (Hibal 5, Asmedit 3.3)  HLASM R4.0  2004/03/15 12.56
+___    ______ ____    _____ _____  ____ __ ______    ______ _________
000021A 41F0 0008/5800_      00008  8064                       SCOM  SEND,TINSENDX,MILPMGC  Announce ourselves
 000228 12FF/4780 70E8_             8085                       FAIL  (R15,NZ),MILTBAD,'MILTEN is not active.'
 000246 18D8/9808 D004_             8111                       PEND
 DROP   MILINFO,R6
 DROP   TINITWA-(4+36),R8
 DROP   *,R7
                                    8141                       QLTORG
1TERM     (TERM2193) (12:56) (15MAR04) WYLBUR's Terminal Routines                                                           Page    9
0Current Usings:  (CP,R11) (CV,R12)
0Loc    Object Code    Addr1 Addr2  Stmt Lv Lineno    Source Statement           (Hibal 5, Asmedit 3.3)  HLASM R4.0  2004/03/15 12.56
+___    ______ ____    _____ _____  ____ __ ______    ______ _________
0                                   8162              ¿þþþþþþþþþþþþþþþþþþþþþþþþþþþþþþþþþþþþþþþþþþþþþþþþþþþþþþþþþþþþþþþþþþþþþÜ
                                    8163              Ÿ                                                                     Ÿ
                                    8164              Ÿ  TSEG -- Routine to do TSEG with no special options.  Right now     Ÿ
                                    8165              Ÿ    all this routine does is load the default CPSEG SEGCB pointer    Ÿ
                                    8166              Ÿ    and then call the general seg routine.  A special optimized      Ÿ
                                    8167              Ÿ    seg routine could be added here.  (See seg routines in           Ÿ
                                    8168              Ÿ    &WYL.CR.)                                                        Ÿ
                                    8169              Ÿ                                                                     Ÿ
                                    8170              Ÿ    On entry:                                                        Ÿ
                                    8171              Ÿ      R1,R0 - text loc, len                                          Ÿ
                                    8172              Ÿ                                                                     Ÿ
                                    8173              Ÿ    On exit:                                                         Ÿ
                                    8174              Ÿ      same as general seg routine                                    Ÿ
                                    8175              Ÿ                                                                     Ÿ
                                                      ¾þþþþþþþþþþþþþþþþþþþþþþþþþþþþþþþþþþþþþþþþþþþþþþþþþþþþþþþþþþþþþþþþþþþþþ»
0                                   8176                       ENTRY TSEG
                                    8177                      ¿þþþþþþþþþþþþþþþþþþþþþþþþþþþþþþþþþþþþþþþþþþþþþþþþþþþþþþþþþþþþþþþþÜ
                                    8178                      Ÿ  Standard PROC/PEND entry/exit macros are not used to try and  Ÿ
                                    8179                      Ÿ   reduce the number of instructions needed for this preamble   Ÿ
                                    8180                      Ÿ   caller code.  It could be changed; it's not a big deal.      Ÿ
                                    8181                      ¾þþþþþþþþþþþþþþþþþþþþþþþþþþþþþþþþþþþþþþþþþþþþþþþþþþþþþþþþþþþþþþþþ»
 000289 00
 00028A 50E0 D000            00000  8182              TSEG     ST    RAR,@R13            Save return addr
 00028E 41D0 D004            00004  8183                       LA    R13,@R13+4          Kick stack
                                    8184
 000292 0DF0                        8185                       BASR  R15,0
 000294 58E0 F018            002AC  8186                       WITH  (*,R15),'L RAR,TSEGX'
 USING  *,R15
 DROP   *,R15
 000298 41F0 B050            00050  8211                       LA    R15,CPSEG           Default SEGCB ptr
 00029C 0DEE                        8212                       BASR  RAR,RAR             Call general seg routine
                                    8213
 00029E 06D0                        8214                       DECR  R13                 (No addressability)
 0002A0 06D0                        8216                       DECR  R13                 (No changing the cond code)
 0002A2 06D0                        8218                       DECR  R13
 0002A4 06D0                        8220                       DECR  R13
 0002A6 58E0 D000            00000  8222                       L     RAR,@R13            Original return addr
 0002AA 07FE                        8223                       BR    RAR
                                    8224
 0002AC 00000000                    8225              TSEGX    DC    V(SEG)              General seg routine
                                    8226              .NOINIT  ANOP  .                   *** PCODE
1TERM     (TERM2193) (12:56) (15MAR04) WYLBUR's Terminal Routines                                                           Page   10
0Current Usings:  (CP,R11) (CV,R12)
0Loc    Object Code    Addr1 Addr2  Stmt Lv Lineno    Source Statement           (Hibal 5, Asmedit 3.3)  HLASM R4.0  2004/03/15 12.56
+___    ______ ____    _____ _____  ____ __ ______    ______ _________
0000000                00000 00060  8228              TWA      RECORD BEGIN
                                    8236  1                      XSA   R2,R8
 000000 0000000000000000            8237  1 01-XSA   +           DC    (R8+2-(R2))A(0)
                                    8238  1
 000020 00                          8239  1           TWALFLAG   FLAG
 TWALFLAG.TWAFQUI  80 ONES          8243  1                      FLAG  TWAFQUI             - QUIET was in effect
                                    8248  1
 000024                             8249  1           TWATMOUT   DS    F                   Timeout value
                                    8250  1           TWAINIT    EQU   TWALFLAG,*-TWALFLAG,C'X'
                                    8251  1
 000028                             8252  1           TWAPDB     DS    0F
                                    8253  1                      PDB   PFX=TWA,TYPE=FORMAT
                                    8254+ 1          +           ¿þþþþþþþþþþþþþþþþþþþþþþÜ
                                    8255+ 1          +           Ÿ  Passed Data Buffer  Ÿ
                                    8256+ 1          +           ¾þþþþþþþþþþþþþþþþþþþþþþ»
 000028                             8257  1 01-PDB   +TWASTRT    DC    0F'0'
 000028 0000                        8258  1 01-PDB   +TWALENG    DC    H'0'                (Suzan RDW) Total PDB length
 00002A 0000                        8259  1 01-PDB   +           DC    XL2'00'             (Suzan RDW)
                                    8260  1          +
 00002C                             8261  1 01-PDB   +TWADATA    DC    0F'0'               Start of PDB data
                                    8262  1          +
 00002C 0000                        8263  1 01-PDB   +TWALIN#    DC    H'0'                Session number
 00002E 00                          8264  1 01-PDB   +TWACMD     DC    X'00'               Command code
 00002F 00                          8265  1 01-PDB   +TWACMDFL   DC    X'00'               Command code modifier flags
                                    8266  1          +
 000030                             8267  1 01-PDB   +TWAMOD     DS    0XL4                Mode flags
 000030 00                          8268  1 01-PDB   +TWAMODA    DC    X'00'               .a  (see moda)
 000031 00                          8269  1 01-PDB   +TWAMODB    DC    X'00'               .b  (see modb)
 000032 00                          8270  1 01-PDB   +TWAMODC    DC    X'00'               .c  (see modc)
 000033 00                          8271  1 01-PDB   +TWAMODD    DC    X'00'               .d  (see modd)
                                    8272  1          +
 000034                             8273  1 01-PDB   +TWACPL     DS    0XL2                Completion flags
 000034 00                          8274  1 01-PDB   +TWACPLA    DC    X'00'               .a  (see cpla)
 000035 00                          8275  1 01-PDB   +TWACPLB    DC    X'00'               .b  (see cplb)
                                    8276  1          +
 000036 00                          8277  1 01-PDB   +TWABYT1    DC    X'00'               Byte 1: used by control PDB
 000037 00                          8278  1 01-PDB   +TWABYT2    DC    X'00'               Byte 2: used by control PDB
                                    8279  1          +
 000038 00000000                    8280  1 01-PDB   +TWASINP    DC    A(0)                Session info ptr (in CSA)
                                    8281  1 01-PDB   +TWAAWID    EQU   TWASINP,4,C'F'      Session id for async write
                                    8282  1          +
 00003C 4040404040404040            8283  1 01-PDB   +TWAVPGM    DC    CL8' '              ORVYL program name
 000044 00000000                    8284  1 01-PDB   +TWAVCPU    DC    F'0'                ORVYL CPU time used
 000048 00                          8285  1 01-PDB   +TWAVFLAG   DC    X'00'               ORVYL flags
                                    8286  1 01-PDB   +TWAVFRUN   EQU   X'80'               - Program is running (not paused)
                                    8287  1 01-PDB   +TWAVFATH   EQU   X'40'               - Program is authorized
 000049 000000                      8288  1 01-PDB   +TWAVDIO    DC    XL3'00'             ORVYL Disk I/O
                                    8289  1 01-PDB   +TWAVINFO   EQU   TWAVPGM,*-TWAVPGM,C'X'
                                    8290  1          +
 00004C 4040404040404040            8291  1 01-PDB   +TWASYSNM   DC    CL8' '              New/old subsys name (xctl, init)
                                    8292  1          +
 000054 0000                        8293  1 01-PDB   +TWASUC     DC    H'0'                SIB update count
 000056 0000                        8294  1 01-PDB   +TWAOUTCT   DC    H'0'                Output text count
 000058 0000                        8295  1 01-PDB   +TWAINCT    DC    H'0'                Maximum input allowed
1TERM     (TERM2193) (12:56) (15MAR04) WYLBUR's Terminal Routines                                                           Page   11
0Current Usings:  (CP,R11) (CV,R12)
0Loc    Object Code    Addr1 Addr2  Stmt Lv Lineno    Source Statement           (Hibal 5, Asmedit 3.3)  HLASM R4.0  2004/03/15 12.56
+___    ______ ____    _____ _____  ____ __ ______    ______ _________
000005A 0000                        8296  1 01-PDB   +TWAWC      DC    H'0'                Write count
 00005C 0000                        8297  1 01-PDB   +TWAPC      DC    H'0'                Prompt count
 00005E 0000                        8298  1 01-PDB   +TWARC      DC    H'0'                Read count
                                    8299  1 01-PDB   +TWAORV     EQU   TWAINCT,*-TWAINCT,C'X'  Control info for ORVYL XCTLs
                                    8300  1 01-PDB   +TWAVRCTL   EQU   X'01'               - ORVYL "read control" (SIFT)
                                    8301  1 01-PDB   +TWAOPT     EQU   TWACMDFL,*-TWACMDFL,C'X'  Option flags
                                    8302  1 01-PDB   +TWAHDR     EQU   TWASTRT,*-TWASTRT,C'X'  PDB header
 000060                             8303  1 01-PDB   +TWATEXT    DS    0C                  Text field (variable length)
                                    8304+ 1          +           ¿þþþþþþþþþþþþþþþþþþþþþþþþþþþþÜ
                                    8305+ 1          +           Ÿ  Control PDB information.  Ÿ
                                    8306+ 1          +           ¾þþþþþþþþþþþþþþþþþþþþþþþþþþþþ»
                                    8307  1 01-PDB   +TWACNO     EQU   TWACMDFL,1,C'X'     Control number (to MILTEN)
                                    8308  1          +
                                    8309  1 01-PDB   +TWACRET    EQU   TWABYT1,1,C'X'      Return code (from MILTEN)
                                    8310  1 01-PDB   +TWACROK    EQU   0                   - OK
                                    8311  1 01-PDB   +TWACRPRV   EQU   4                   - Privileged
                                    8312  1 01-PDB   +TWACRBF    EQU   8                   - Bad format
                                    8313  1 01-PDB   +TWACRBAD   EQU   12                  - Unknown control
                                    8314  1          +
                                    8315  1 01-PDB   +TWACMOD    EQU   TWABYT2,1,C'X'      Rc modifier (depends on control)
 000060                00060 00060  8316                       END
1TERM     (TERM2193) (12:56) (15MAR04) WYLBUR's Terminal Routines                                                           Page   12
0Current Usings:  (CP,R11) (CV,R12)
0Loc    Object Code    Addr1 Addr2  Stmt Lv Lineno    Source Statement           (Hibal 5, Asmedit 3.3)  HLASM R4.0  2004/03/15 12.56
+___    ______ ____    _____ _____  ____ __ ______    ______ _________
0                                   8326              ¿þþþþþþþþþþþþþþþþþþþþþþþþþþþþþþþþþþþþþþþþþþþþþþþþþþþþþþþþþþþþþþþþþþþþþÜ
                                    8327              Ÿ                                                                     Ÿ
                                    8328              Ÿ  TERMSEG -- Routine to do the processing of TSEG/TWRITE.  It is     Ÿ
                                    8329              Ÿ    entered as a SEG exit routine, with the SEGCB containing         Ÿ
                                    8330              Ÿ    a flag indicating what kind of action is desired.                Ÿ
                                    8331              Ÿ                                                                     Ÿ
                                    8332              Ÿ    On entry:                                                        Ÿ
                                    8333              Ÿ      R15 - SEGCB ptr                                                Ÿ
                                    8334              Ÿ                                                                     Ÿ
                                    8335              Ÿ    On exit:                                                         Ÿ
                                    8336              Ÿ      R0 - complemented; amount of text processed (for OVF)          Ÿ
                                    8337              Ÿ                                                                     Ÿ
                                                      ¾þþþþþþþþþþþþþþþþþþþþþþþþþþþþþþþþþþþþþþþþþþþþþþþþþþþþþþþþþþþþþþþþþþþþþ»
00002B0 50E0 D000/9008_      00000  8338              TERMSEG  XPROC TWA
 USING  *,R7
 USING  TWA-(4+36),R8
 USING  SEGCB,R15                   8389                       WITH  (SEGCB,R15),BEGIN
 0002CA 9501 F000/4770_00000        8403  1                      IF    SEGCBSEG,'EXIT TERMSEG'  Quickly, scram
 DROP   SEGCB,R15                   8426                       END
                                    8434
 0002D6 4150 8028            00000  8435                       LA    R5,TWA
 USING  TWA,R5                      8436                       USING TWA,R5
 0002DA 186F                        8445                       LR    R6,R15
 USING  SEGCB,R6                    8446                       USING SEGCB,R6
                                    8455                       ¿þþþþþþþþþþþþþþþþþþþþþþþþÜ
                                    8456                       Ÿ  Seg post-processing.  Ÿ
                                    8457                       ¾þþþþþþþþþþþþþþþþþþþþþþþþ»
 0002DC 9504 6000/4770_00000        8458                       IF    SEGCBSPP,BEGIN      Post-processing...
 0002E4 5850 C1C8            001C8  8473  1                      L     JCBR,CVCURJCB       Our JCB
 DROP   TWA,R5                      8474  1                      WITH  JCB,BEGIN
 USING  JCB,R5
 0002E8 1B00                        8490  2                        CLEAR R0                  Return code goes in R0
 0002EA 9102 5062/47E0_00062        8494  2                        IF    JCBFATTN,'LA R0,1'  Break return code
 0002F6 9180 5062/47E0_00062        8515  2                        IF    JCBAFALO,'LH R0,=H"-4"'  logging off
 DROP   JCB,R5                      8536  1                      END
 USING  TWA,R5
 000302 47F0 71C4            0048E  8551  1                      B     TSEXIT
 000306                             8552                       END
                                    8556                       ¿þþþþþþþþþÜ
                                    8557                       Ÿ  SEGCR  Ÿ
                                    8558                       ¾þþþþþþþþþ»
 000306 9506 6000/4770_00000        8559                       IF    SEGCBCR,BEGIN       Add CR to buffer...
                                    8574  1
 00030E 9140 BC7A/4710_00C7A        8575  1                      IF    (CPFWTO,OR,CVFINIT),BEGIN  WTO text now...
 00031E 9180 BD55/4710_00D55        8604  2                        IF    CPFDUMP,EXIT        Don't do it if DUMP
                                    8622  2
 000326 5840 600C            0000C  8623  2                        L     R4,SEGCBLENF        Buffer length
 00032A 58E0 741E/0DEE       006E8  8624  2                        ACALL TERMWTO             WTO text
 000330 D703 B05C B05C_0005C 0005C  8628  2                        CLEAR CPSEGLENF,CPSEGMRKF Text has been processed
 00033C 47F0 71C4            0048E  8640  2                        B     TSEXIT
 000340                             8641  1                      END
                                    8645  1
 000340 4110 7466/4100_      00730  8646  1                      SEG   X'15',,SEGCB        Add CR
1TERM     (TERM2193) (12:56) (15MAR04) WYLBUR's Terminal Routines                                                           Page   13
0Current Usings:  (TWA,R5) (SEGCB,R6) (*,R7) (TWA-(4+36),R8) (CP,R11) (CV,R12)
0Loc    Object Code    Addr1 Addr2  Stmt Lv Lineno    Source Statement           (Hibal 5, Asmedit 3.3)  HLASM R4.0  2004/03/15 12.56
+___    ______ ____    _____ _____  ____ __ ______    ______ _________
0000350 47F0 71C4            0048E  8663  1                      B     TSEXIT
 000354                             8664                       END
                                    8668                       ¿þþþþþþþþþþþþþþþþþþþþþþþÜ
                                    8669                       Ÿ  SEGWR (or overflow)  Ÿ
                                    8670                       ¾þþþþþþþþþþþþþþþþþþþþþþþ»
 000354 9502 6000/4780_00000        8671                       IF    (SEGCBWR,OR,SEGCBOVF),BEGIN  Segwr...
                                    8700  1
 000364 9120 BC7A/47E0_00C7A        8701  1                      IF    CPFIATTN,BEGIN      Intermediate attn...
 00036C D703 B05C B05C_0005C 0005C  8716  2                        CLEAR CPSEGLENF,CPSEGMRKF  Ignore text
 000378 9502 6000/4770_00000        8728  2                        IF    SEGCBWR,'CLEAR CPFIATTN'
 000384                             8755  1                      END
                                    8759  1
 000384 9502 6000/4770_00000        8760  1                      IF    SEGCBWR,BEGIN       Add a final CR...
 00038C D603 600C 600C_0000C 0000C  8775  2                        IF    (SEGCBLENF,Z),'CLEAR R4,R3; B TWRDONE'  Nothing
 00039E 9140 BC7A/4710_00C7A        8803  2                        IF    (CPFWTO,OR,CVFINIT),EXIT  No CR if WTO mode
 0003AE D503 600C 6008_0000C 00008  8835  2                        IF    (SEGCBLENF,EQ,SEGCBMRKF),EXIT  Just marked, forget it
 0003B8 9110 BC7B/4710_00C7B        8856  2                        IF    (~CPFDISP,AND,~CPFNONL),'SEG X"15",,SEGCB'
 0003D8                             8907  1                      END
                                    8911  1
 0003D8 5830 600C            0000C  8912  1                      L     R3,SEGCBLENF        Buffer length (for later)
 0003DC 1843                        8913  1                      LR    R4,R3
                                    8914  1
 0003DE 9505 6000/4770_00000        8915  1                      IF    SEGCBOVF,BEGIN      Back up if overflow...
 0003E6 58F0 6008/12FF       00008  8930  2                        LT    R15,SEGCBMRKF       Length at last mark
 0003EC 47D0 712C/184F_      003F6  8934  2                        IF    POS,'LR R4,R15; ST R4,SEGCBLENF'  Last marked spot
 0003F6                             8952  1                      END
                                    8956  1
 0003F6 1233/4780 71B4              8957  1                      IF    (R3,NZ),BEGIN       Something to write...
 0003FC 9180 BD55/47E0_00D55        8971  2                        IF    CPFDUMP,'ACALL TWSTOW'  Write text to ACTIVE file
 00040A 7144/47F0 714E_0040A 00402  8995  2                        ELSEIF CPFQUIET,'CLEAR R15'   Don't do anything
 000418 7152/47F0 7168_00418 00414  9028  2                        ELSEIF (CPFWTO,OR,CVFINIT),'ACALL TERMWTO'  WTO text
 000432 716C/47F0 7182_00432 0042A  9075  2                        ELSEIF (CPFXDUMP,AND,CPFEXEC),' ACALL TXDUMP '
 00044C 7186/7186/47F0_0044C 0043C  9122  2                        ELSEIF CPFXQT,' CLEAR R15 '
 00045A 7194/47F0 71AA_0045A 00456  9157  2                        ELSEIF (CPFWTO,OR,CVFINIT),'ACALL TERMWTO'  WTO text
 000474 71AE/47F0 71B4_00474 0046C  9204  2                        ELSE  'ACALL TERMWR'      Write text to the terminal
 00047E                             9224  1                      END
                                    9228  1
 00047E 58E0 7432/0DEE       006FC  9229  1           TWRDONE    TSTAT
                                    9234  1
 000484 5030 600C            0000C  9235  1                      ST    R3,SEGCBLENF        Restore length
 000488 1304                        9236  1                      LCR   R0,R4               Amount of text processed
 00048A 47F0 71C4            0048E  9237  1                      B     TSEXIT
 00048E                             9238                       END
                                    9242
 00048E                             9243              TSEXIT   LABEL ,
 00048E 5008 0004            00004  9245                       PRETURN (R0)
 000492 18D8/9808 D004_             9247                       PEND  ,
 DROP   TWA-(4+36),R8
 DROP   *,R7
1TERM     (TERM2193) (12:56) (15MAR04) WYLBUR's Terminal Routines                                                           Page   14
0Current Usings:  (TWA,R5) (SEGCB,R6) (CP,R11) (CV,R12)
0Loc    Object Code    Addr1 Addr2  Stmt Lv Lineno    Source Statement           (Hibal 5, Asmedit 3.3)  HLASM R4.0  2004/03/15 12.56
+___    ______ ____    _____ _____  ____ __ ______    ______ _________
0                                   9273                       AIF   (&$PCODE).NOTRMWTO  *** PCODE
 000000                00000 0007E  9274              TWTOWA   RECORD BEGIN
 000000                             9282  1           TWTOPARM   DS    X                   MILSERV: Must be zero
 000001                             9283  1           TWTOACCT   DS    CL5                 MILSERV: Account (uuugg)
                                    9284  1           TWTOPFX    EQU   TWTOPARM,*-TWTOPARM,C'X'
 000006                             9285  1           TWTOBUF    DS    CL120               Working text buffer
 00007E                0007E 0007E  9286                       END
-                                   9296              ¿þþþþþþþþþþþþþþþþþþþþþþþþþþþþþþþþþþþþþþþþþþþþþþþþþþþþþþþþþþþþþþþþþþþþþÜ
                                    9297              Ÿ                                                                     Ÿ
                                    9298              Ÿ  TERMWTO -- Local routine to WTO the current seg buffer.            Ÿ
                                    9299              Ÿ                                                                     Ÿ
                                                      ¾þþþþþþþþþþþþþþþþþþþþþþþþþþþþþþþþþþþþþþþþþþþþþþþþþþþþþþþþþþþþþþþþþþþþþ»
00004A0 50E0 D000/9008_      00000  9300              TERMWTO  PROC  ,
 USING  *,R7
 0004BA 5940 7246/47D0_      00700  9339                       CEIL  R4,80
 0004C6 181D/41D0 D05C              9358                       XPUSH ,,90,PTR=R1
 0004CC 4120 4004            00004  9361                       LA    R2,@R4+4
 0004D0 4020 1000            00000  9362                       STH   R2,@R1              Length
 0004D4 D201 1002 726C 00002 00726  9363                       MVC   @R1+2(2),=X'8000'   MCS header
 0004DA 5830 B070            00070  9364                       L     R3,CPSEGLOC
 0004DE 18F4                        9365                       LR    R15,R4
 0004E0 06F0/12FF/4740_             9366                       MOVE  R15,@R1+4,@R3       WTO text
 0004EC 4122 1000            00000  9404                       LA    R2,@R1(R2)
 0004F0 D203 2000 724A 00000 00704  9405                       MVC   @R2(4),=X'00004000'  Routcde=2
                                    9406              *         IF    CVFTEST,BEGIN
 0004F6 D203 2000 724E 00000 00708  9407                       MVC   @R2(4),=X'00000020'  Routcde=11 (wtp)
                                    9408              *         END
 0004FC 0A23                        9409                       WTO   MF=(E,(1))
 0004FE 4BD0 726E            00728  9412                       XPOP  ,,90
                                    9414                       ¿þþþþþþþþþþþþþþþþþþþþþþþþþþþþþþþþþþþþþþþþþÜ
                                    9415                       Ÿ  Do MILSERV NOTIFY (for test systems).  Ÿ
                                    9416                       ¾þþþþþþþþþþþþþþþþþþþþþþþþþþþþþþþþþþþþþþþþþ»
 000502 D604 C061 C061_00061 00061  9417                       IF    (CVNOTIFY,NZ),BEGIN  We have an account to notify...
 00050C 183D/41D0 D03C              9433  1                      XPUSH ,,L'SEGCB,PTR=R3
 000512 182D/41D0 D080              9436  1                      XPUSH ,,L'TWTOWA,PTR=R2
                                    9439  1
 USING  TWTOWA,R2                   9440  1                      WITH  (TWTOWA,R2)
 000518 4110 2006/4100_      00006  9453  1                      SEGINIT TWTOBUF,,(R3)     Initialize working seg buffer
 000528 4110 7277/4100_      00731  9478  1                      SEG   'From '
 000538 4110 C028/4100_      00028  9493  1                      SEGT  CVWYLSSN            (WYLBUR)
 000548 4110 7270/4100_      0072A  9519  1                      SEG   ': '
 000558 5810 6020/5800_      00020  9534  1                      SEGT  L:SEGCBLOC,L:SEGCBLENF
                                    9558  1
 000568 9200 2000      00000        9559  1                      CLEAR TWTOPARM            Clear MILSERV parm
 00056C D204 2001 C061 00001 00061  9566  1                      MVC   TWTOACCT,CVNOTIFY   Set notification account
                                    9567  1
 000572 4100 0006            00006  9568  1                      LA    R0,L'TWTOPFX        MILSERV prefix
 000576 5A03 000C            0000C  9569  1                      A     R0,SEGCBLENF-SEGCB(R3)  MILSERV parm length
 00057A 4110 2000/41F0_      00000  9570  1                      MILSERV TWTOPARM,(R0),LA:2  Send message to the owner
                                    9591  1
 000586 4BD0 7272            0072C  9592  1                      XPOP  ,,L'TWTOWA
1TERM     (TERM2193) (12:56) (15MAR04) WYLBUR's Terminal Routines                                                           Page   15
0Current Usings:  (TWTOWA,R2) (TWA,R5) (SEGCB,R6) (*,R7) (CP,R11) (CV,R12)
0Loc    Object Code    Addr1 Addr2  Stmt Lv Lineno    Source Statement           (Hibal 5, Asmedit 3.3)  HLASM R4.0  2004/03/15 12.56
+___    ______ ____    _____ _____  ____ __ ______    ______ _________
000058A 4BD0 7274            0072E  9594  1                      XPOP  ,,L'SEGCB
 DROP   TWTOWA,R2                   9596                       END
                                    9605
 00058E 18D8/9808 D004_             9606                       PEND
 DROP   *,R7
                                    9626              .NOTRMWTO ANOP  ,                  *** PCODE
1TERM     (TERM2193) (12:56) (15MAR04) WYLBUR's Terminal Routines                                                           Page   16
0Current Usings:  (TWA,R5) (SEGCB,R6) (CP,R11) (CV,R12)
0Loc    Object Code    Addr1 Addr2  Stmt Lv Lineno    Source Statement           (Hibal 5, Asmedit 3.3)  HLASM R4.0  2004/03/15 12.56
+___    ______ ____    _____ _____  ____ __ ______    ______ _________
0                                   9628              ¿þþþþþþþþþþþþþþþþþþþþþþþþþþþþþþþþþþþþþþþþþþþþþþþþþþþþþþþþþþþþþþþþþþþþþÜ
                                    9629              Ÿ                                                                     Ÿ
                                    9630              Ÿ  TERMWR -- Local routine to write the current seg buffer to         Ÿ
                                    9631              Ÿ    the terminal.                                                    Ÿ
                                    9632              Ÿ                                                                     Ÿ
                                                      ¾þþþþþþþþþþþþþþþþþþþþþþþþþþþþþþþþþþþþþþþþþþþþþþþþþþþþþþþþþþþþþþþþþþþþþ»
000059C 50E0 D000/9008_      00000  9633              TERMWR   PROC  ,
 USING  *,R7
 0005B6 9180 BAC8/47E0_00AC8        9672                       IF    (CPVFPAGE,AND,~CPFDISP),BEGIN  Reset page mode...
 0005C6 58E0 715E/0DEE       00714  9701  1                      VCALL PAGERES             Switch back to line mode
 0005CC                             9705                       END
 0005CC 94BF BAC8      00AC8        9709                       CLEAR CPVFPEND            Don't return to page mode
                                    9716
 0005D0 9620 B478      00478        9717                       SET   CPGFWR
 0005D4 D701 B8B4 B8B4 008B4 008B4  9723                       CLEAR CPEXCMCT            Zero exec command count
 0005DA 4110 5028            00028  9730                       LA    R1,TWAPDB
 0005DE 58E0 7162/0DEE       00718  9731                       ACALL BUILDPDB            Build PDB header
                                    9735
 0005E4 9241 502E      0002E        9736                       MVI   TWACMD,TMILWRIT     Set I/O code
 0005E8 4110 5028            00028  9737                       LA    R1,TWAPDB
 0005EC 58E0 7166/0DEE       0071C  9738                       ACALL TIO                 Send PDB
                                    9742                    ¿þþþþþþþþþþþþþþþþþþþþþþþþþþþþþþþþþþþþþþþþþþþþþþþþþþþþþþþþþþþþþþþþþþÜ
                                    9743                    Ÿ  After doing terminal I/O we may not know the current rendition  Ÿ
                                    9744                    Ÿ      because an attention might have stopped the I/O before the  Ÿ
                                    9745                    Ÿ       final SET GRAPHIC RENDITION was sent, so we must clear     Ÿ
                                    9746                    Ÿ       CPREND now.                                                Ÿ
                                    9747                    ¾þþþþþþþþþþþþþþþþþþþþþþþþþþþþþþþþþþþþþþþþþþþþþþþþþþþþþþþþþþþþþþþþþþ»
 0005F2 9180 5034/47E0_00034        9748                       IF    TWACPLA.CPLAATTN,'CLEAR CPREND'  Reset current rend
                                    9776              ***
                                    9777              ***  Process terminal write completion.
                                    9778              ***
                                    9779                       ¿þþþþþþþþþþþþþþþþþþþþþþþþþþþþþþþþþþþþþþþþþþþþþþþþþþþþþþþþþþþþþþþÜ
                                    9780                       Ÿ  This terminal can not handle this request.                   Ÿ
                                    9781                       Ÿ  This usually happens when a display mode request is sent to  Ÿ
                                    9782                       Ÿ     a terminal or front-end which is not capable of handling  Ÿ
                                    9783                       Ÿ     full screen I/O's.                                        Ÿ
                                    9784                       ¾þþþþþþþþþþþþþþþþþþþþþþþþþþþþþþþþþþþþþþþþþþþþþþþþþþþþþþþþþþþþþþþ»
 000600 9140 5035/47E0_00035        9785                       IF    TWACPLB.CPLBILT,BEGIN  Terminal can't do this...
 000608 9110 BC7B/47E0_00C7B        9801  1                      IF    CPFDISP,BEGIN       Display mode on non-display fe...
 000610 94EF BC7B      00C7B        9816  2                        CLEAR CPFDISP             Reset display mode I/O
 000614 943F BAC8      00AC8        9823  2                        CLEAR CPVFPAGE+CPVFPEND   Try not to do this again
 000618 4110 7180/4100_      00736  9833  2                        TSEG  'This terminal or controller does not support '
 00062A 4110 71AD/4100_      00763  9851  2                        TSEG  'full screen requests.'
 00063C                             9869  1                      END
                                    9873  1
 00063C 47F0 C7DA            007DA  9874  1                      B     CVABORT             Scram
 000640                             9875                       END
                                    9879
 000640 9505 6000/4770_00000        9880                       IF    (SEGCBOVF,AND,TWACPLA.CPLAATTN),'SET CPFIATTN'
                                    9921
 000654 58F0 B05C/12FF_      0005C  9922                       IF    ('LT R15,CPSEGLENF',POS),BEGIN  Maybe a new cmd...
 00065E 9180 B758/47E0_00758        9938  1                      IF    CPFEXEC,BEGIN
 000666 D603 B89C B89C_0089C 0089C  9953  2                        IF    ((CPEXATTN,Z),AND,(CPEXABRT,Z)),EXIT
1TERM     (TERM2193) (12:56) (15MAR04) WYLBUR's Terminal Routines                                                           Page   17
0Current Usings:  (TWA,R5) (SEGCB,R6) (*,R7) (CP,R11) (CV,R12)
0Loc    Object Code    Addr1 Addr2  Stmt Lv Lineno    Source Statement           (Hibal 5, Asmedit 3.3)  HLASM R4.0  2004/03/15 12.56
+___    ______ ____    _____ _____  ____ __ ______    ______ _________
000067A 9680 BD5A      00D5A        9987  2                        SET   CPFABORT            Always ABORT
 00067E 47F0 7120            006D6  9993  2                        B     PUNTCMD             Skip command processing
 000682                             9994  1                      END
 000682 59F0 716A/47D0_      00720  9998  1                      CEIL  R15,L'CPCMD
 00068E 94FB B478      00478       10017  1                      CLEAR CPGFCMDA            Assume line didn't end with attn
 000692 9180 5034/47E0_00034       10024  1                      IF    TWACPLA.CPLAATTN,'SET CPGFCMDA'  Ended with attn
 00069E 40F0 B240            00240 10051  1                      STH   R15,CPCMDLEN
 0006A2 5810 B070            00070 10052  1                      L     R1,CPSEGLOC
 0006A6 06F0/12FF/4740_            10053  1                      MOVE  R15,CPCMD,@R1       Save new command
                                   10091  1
 0006B2 5820 C1C8            001C8 10092  1                      L     R2,CVCURJCB
 USING  JCB,R2                     10093  1                      WITH  (JCB,R2),BEGIN
 0006B6 9140 2062/47E0_00062       10107  2                        IF    JCBFNATN,'SET JCBFPATN'  Set pending attn
 0006C2 7110/47F0 7114_006C2 006BC 10133  2                        ELSE  'SET JCBFATTN'      Regular attn
 DROP   JCB,R2                     10155  1                      END
 0006CA 9620 BC7A      00C7A       10163  1                      SET   CPFIATTN            Ignore following writes
                                   10169  1
 0006CE 9680 BD5A      00D5A       10170  1                      SET   CPFABORT            Abort any exec file
 0006D2 9610 B478      00478       10176  1                      SET   CPGFNCMD            New command is waiting
 0006D6                            10182                       END
 0006D6 18D8/9808 D004_            10186              PUNTCMD  PEND  ,
 DROP   *,R7
 DROP   SEGCB,R6                   10207                       DROP  SEGCB,TWA
 DROP   TWA,R5
                                   10222
                                   10223                       QLTORG
                                   10260
1TERM     (TERM2193) (12:56) (15MAR04) WYLBUR's Terminal Routines                                                           Page   18
0Current Usings:  (CP,R11) (CV,R12)
0Loc    Object Code    Addr1 Addr2  Stmt Lv Lineno    Source Statement           (Hibal 5, Asmedit 3.3)  HLASM R4.0  2004/03/15 12.56
+___    ______ ____    _____ _____  ____ __ ______    ______ _________
0                                  10262              ¿þþþþþþþþþþþþþþþþþþþþþþþþþþþþþþþþþþþþþþþþþþþþþþþþþþþþþþþþþþþþþþþþþþþþþÜ
                                   10263              Ÿ                                                                     Ÿ
                                   10264              Ÿ  TCURS -- Routine to seg cursor addressing characters.              Ÿ
                                   10265              Ÿ                                                                     Ÿ
                                   10266              Ÿ    On entry:                                                        Ÿ
                                   10267              Ÿ      R0 - row                                                       Ÿ
                                   10268              Ÿ      R1 - column                                                    Ÿ
                                   10269              Ÿ                                                                     Ÿ
                                   10270              Ÿ  Note: Row and columns are relative to one (not zero).              Ÿ
                                   10271              Ÿ                                                                     Ÿ
                                                      ¾þþþþþþþþþþþþþþþþþþþþþþþþþþþþþþþþþþþþþþþþþþþþþþþþþþþþþþþþþþþþþþþþþþþþþ»
0000784 50E0 D000/9008_      00000 10272              TCURS    XPROC
 USING  *,R7
 00079E 1250                       10312                       LTR   R5,R0               Save row...
 0007A0 4720 700A/4150_      007A8 10313                       IF    NP,'LA R5,1'
                                   10330
 0007A8 1241                       10331                       LTR   R4,R1               ...and column
 0007AA 4720 7014/4140_      007B2 10332                       IF    NP,'LA R4,1'
                                   10349
 0007B2 4110 79EE/4100_      0118C 10350                       TSEG  X'27AD'             CSI (ESC [)
 0007C4 5950 797E/4780_      0111C 10368                       IF    (R5,NE,1),'TNUM (R5)'  Row (horizontal)
 0007DA 5940 797E/4780_      0111C 10412                       IF    (R4,NE,1),'TSEG ";"; TNUM (R4)'  Column (vertical)
 000802 4110 7A2B/4100_      011C9 10474                       TSEG  'f'                 Position cursor verb
 000814 18D8/9808 D004_            10492                       PEND
 DROP   *,R7
1TERM     (TERM2193) (12:56) (15MAR04) WYLBUR's Terminal Routines                                                           Page   19
0Current Usings:  (CP,R11) (CV,R12)
0Loc    Object Code    Addr1 Addr2  Stmt Lv Lineno    Source Statement           (Hibal 5, Asmedit 3.3)  HLASM R4.0  2004/03/15 12.56
+___    ______ ____    _____ _____  ____ __ ______    ______ _________
0                                  10513              ¿þþþþþþþþþþþþþþþþþþþþþþþþþþþþþþþþþþþþþþþþþþþþþþþþþþþþþþþþþþþþþþþþþþþþþÜ
                                   10514              Ÿ                                                                     Ÿ
                                   10515              Ÿ  TREND -- Routine to set the rendition for text which follows.      Ÿ
                                   10516              Ÿ                                                                     Ÿ
                                   10517              Ÿ    On entry:                                                        Ÿ
                                   10518              Ÿ      R15 - offset in TTYPE entry for rendition text                 Ÿ
                                   10519              Ÿ                                                                     Ÿ
                                                      ¾þþþþþþþþþþþþþþþþþþþþþþþþþþþþþþþþþþþþþþþþþþþþþþþþþþþþþþþþþþþþþþþþþþþþþ»
0000000                00000 00008 10520              TRENDWA  RECORD BEGIN
 000000                            10528  1           TRENDNEW   DS    CL(L'CPREND)        New rendition to set
 000008                00008 00008 10529                       END
                                   10538              þþþþ
 000822 50E0 D000/9008_      00000 10539              TREND    XPROC TRENDWA
 USING  *,R7
 USING  TRENDWA-(4+36),R8
 00083C D207 8028 C4D8 00000 004D8 10590                       MVC   TRENDNEW,CVBLANKS
                                   10591
 000842 5810 B468/1211       00468 10592                       LT    R1,CPTTYPEP         Our TTYPE entry
 000848 4780 7018            00854 10596                       IF    NZ,BEGIN
 00084C 1A1F                       10607  1                      AR    R1,R15              Ptr to rendition text
 00084E D207 8028 1000 00000 00000 10608  1                      MVC   TRENDNEW,@R1
 000854                            10609                       END
                                   10613
 000854 D507 B46C 8028_0046C 00000 10614                       IF    (CPREND,NE,TRENDNEW),BEGIN  Changing renditions...
 00085E 4110 7950/4100_      0118C 10632  1                      TSEG  X'27AD'             CSI sequence
 000870 D607 8028 8028_00000 00000 10650  1                      IF    (TRENDNEW,NZ),'TSEG TRENDNEW,,T'
 00088C 4110 798E/4100_      011CA 10699  1                      TSEG  'm'                 Set graphic rendition
                                   10717  1
 00089E D207 B46C 8028 0046C 00000 10718  1                      MVC   CPREND,TRENDNEW     Save new rendition
 0008A4                            10719                       END
                                   10723
 0008A4 18D8/9808 D004_            10724                       PEND
 DROP   TRENDWA-(4+36),R8
 DROP   *,R7
1TERM     (TERM2193) (12:56) (15MAR04) WYLBUR's Terminal Routines                                                           Page   20
0Current Usings:  (CP,R11) (CV,R12)
0Loc    Object Code    Addr1 Addr2  Stmt Lv Lineno    Source Statement           (Hibal 5, Asmedit 3.3)  HLASM R4.0  2004/03/15 12.56
+___    ______ ____    _____ _____  ____ __ ______    ______ _________
0                                  10750              ¿þþþþþþþþþþþþþþþþþþþþþþþþþþþþþþþþþþþþþþþþþþþþþþþþþþþþþþþþþþþþþþþþþþþþþÜ
                                   10751              Ÿ                                                                     Ÿ
                                   10752              Ÿ  TREAD -- Routine to do a read from the terminal.                   Ÿ
                                   10753              Ÿ                                                                     Ÿ
                                   10754              Ÿ    On entry:                                                        Ÿ
                                   10755              Ÿ      R1,R0 - prompt text loc, len                                   Ÿ
                                   10756              Ÿ      CPSEG - contains prompt text                                   Ÿ
                                   10757              Ÿ      R15 - timeout value in .01 seconds (0=no timeout)              Ÿ
                                   10758              Ÿ                                                                     Ÿ
                                   10759              Ÿ    On exit:                                                         Ÿ
                                   10760              Ÿ      R1,R0 - input text (in the CPSEG buffer)                       Ÿ
                                   10761              Ÿ      R15 (and cc) - return code:                                    Ÿ
                                   10762              Ÿ                       0 = ok                                        Ÿ
                                   10763              Ÿ                      -4 = logging off                               Ÿ
                                   10764              Ÿ                     pos = ended by PFn                              Ÿ
                                   10765              Ÿ                     101 = ended by reverse break                    Ÿ
                                   10766              Ÿ                                                                     Ÿ
                                                      ¾þþþþþþþþþþþþþþþþþþþþþþþþþþþþþþþþþþþþþþþþþþþþþþþþþþþþþþþþþþþþþþþþþþþþþ»
00008B2 50E0 D000/9008_      00000 10767              TREADQ   XPROC ,                   READ WITH PROMPT QUESTION MARK
 USING  *,R7
 0008CC 4120 0001            00001 10807                       LA    R2,1                TREADQ
 0008D0 58E0 785C/0DEE       01128 10808                       ACALL TREADCOM
 0008D6 9001 8004            00004 10812                       PRETURN (R0,R1)
 0008DA 18D8/9808 D004_            10814                       PEND  ,
 DROP   *,R7
                                   10834              *
                                   10835              *
                                   10836              *
 0008E8 50E0 D000/9008_      00000 10837              TREAD    XPROC ,
 USING  *,R7
 000902 1B22                       10877                       CLEAR R2                  TREAD
 000904 58E0 7826/0DEE       01128 10881                       ACALL TREADCOM
 00090A 9001 8004            00004 10885                       PRETURN (R0,R1)
 00090E 18D8/9808 D004_            10887                       PEND  ,
 DROP   *,R7
                                   10907              *
                                   10908              * COMMON TREAD CODE
                                   10909              *
                                   10910              *
 00091C 50E0 D000/9008_      00000 10911              TREADCOM PROC  TWA
 USING  *,R7
 USING  TWA-(4+36),R8
                                   10961
 000936 D707 8048 8048 00020 00020 10962                       CLEAR TWAINIT
 00093C 50F0 804C            00024 10969                       ST    R15,TWATMOUT        Save timeout value
 000940 9140 BD55/47E0_00D55       10970                       IF    CPFQUIET,'SET TWAFQUI; CLEAR CPFQUIET'
 000950 41F0 B050/58E0_      00050 11003                       TSEG  (R1),(R0)           Prompt text
                                   11027
                                   11028                       COMMENT                   IF TREADQ, APPEND '?'
 00095A 5920 77E6/4770_      0111C 11029                       IF    (R2,EQ,1),BEGIN
 000962 4110 7858/4100_      0118E 11046  1                      TSEG  '? '                Append "? " text
 000974                            11064                       END
                                   11068
1TERM     (TERM2193) (12:56) (15MAR04) WYLBUR's Terminal Routines                                                           Page   21
0Current Usings:  (*,R7) (TWA-(4+36),R8) (CP,R11) (CV,R12)
0Loc    Object Code    Addr1 Addr2  Stmt Lv Lineno    Source Statement           (Hibal 5, Asmedit 3.3)  HLASM R4.0  2004/03/15 12.56
+___    ______ ____    _____ _____  ____ __ ______    ______ _________
0000974 D701 B8B4 B8B4 008B4 008B4 11069                       CLEAR CPEXCMCT            Zero exec command count
                                   11076                       ¿þþþþþþþþþþþþþþþþþþþþþþþþþþþþþþþþþþþþþþþþþþþþþþþþÜ
                                   11077                       Ÿ  A write attention has occurred, report that.  Ÿ
                                   11078                       ¾þþþþþþþþþþþþþþþþþþþþþþþþþþþþþþþþþþþþþþþþþþþþþþþþ»
 00097A 9120 BC7A/47E0_00C7A       11079                       IF    CPFIATTN,BEGIN      Intermediate attn...
 000982 94DF BC7A      00C7A       11094  1                      CLEAR CPFIATTN
 000986 41F0 B050/58E0_      00050 11101  1                      TCLEAR
 000990 41F0 0001            00001 11115  1                      LA    R15,1               Break return code
 000994 47F0 73E2            00D18 11116  1                      B     TRDEXIT
 000998                            11117                       END
                                   11121
 000998 9180 BAC8/47E0_00AC8       11122                       IF    (CPVFPAGE,AND,~CPFDISP),BEGIN  Reset page mode...
 0009A8 58E0 77FA/0DEE       01130 11151  1                      VCALL PAGERES             Switch back to line mode
 0009AE 9640 BAC8      00AC8       11155  1                      SET   CPVFPEND            Return to page mode later
 0009B2                            11161                       END
                                   11165                       ¿þþþþþþþþþþþþþþþþþþþþþþþþþþþþþþþþþþþþþþþþþþþþþþþþþþþþþþÜ
                                   11166                       Ÿ  Save the prompt text in case we have to re-prompt.  Ÿ
                                   11167                       ¾þþþþþþþþþþþþþþþþþþþþþþþþþþþþþþþþþþþþþþþþþþþþþþþþþþþþþþ»
 0009B2 5850 B05C            0005C 11168                       L     R5,CPSEGLENF
 0009B6 5B50 B058            00058 11169                       S     R5,CPSEGMRKF
 0009BA 4720 708C/5850_      009C2 11170                       IF    NP,'L R5,CPSEGLENF'
 0009C2 5950 77FE/47D0_      01134 11187                       CEIL  R5,255
                                   11206
 0009CE 186D/1AD5/41D0_            11207                       XPUSH ,,(R5),PTR=R6       Room for last line (the prompt)
 0009DA 18F5                       11212                       LR    R15,R5
 0009DC 5810 B070            00070 11213                       L     R1,CPSEGLOC
 0009E0 5A10 B05C            0005C 11214                       A     R1,CPSEGLENF
 0009E4 1B1F                       11215                       SR    R1,R15
 0009E6 06F0/12FF/4740_            11216                       MOVE  R15,@R6,@R1         Save prompt text
                                   11254
 0009F2 58F0 C1C8            001C8 11255              TRDDO    L     R15,CVCURJCB
 0009F6 94FD F062      00062       11256                       WITH  (JCB,R15),'CLEAR JCBFATTN'
 USING  JCB,R15
 DROP   JCB,R15
 0009FA 94DF BC7A      00C7A       11286                       CLEAR CPFIATTN
                                   11293                       ¿þþþþþþþþþþþþþþþþþþþþþþþþþþþþþþþþþþþþþþþþþþþþþþþþþþþþþþþþþþÜ
                                   11294                       Ÿ  Don't do terminal read if user is already logging off.  Ÿ
                                   11295                       ¾þþþþþþþþþþþþþþþþþþþþþþþþþþþþþþþþþþþþþþþþþþþþþþþþþþþþþþþþþþ»
 0009FE 58E0 7806/0DEE_      0113C 11296                       IF    ('TSTAT',NEG),TRDLGF  logging off
                                   11316                       ¿þþþþþþþþþþþþþþþþþþþþþþþþþþþþþþþþþþþþþþþþþþþþþþþþþþþþþþþþþþþþþþþÜ
                                   11317                       Ÿ  If we are in initialization (running the pseudo-user), then  Ÿ
                                   11318                       Ÿ    return ATTN to the terminal read request.                  Ÿ
                                   11319                       ¾þþþþþþþþþþþþþþþþþþþþþþþþþþþþþþþþþþþþþþþþþþþþþþþþþþþþþþþþþþþþþþþ»
 000A08 9108 C4C5/47E0_004C5       11320                       IF    CVFINIT,BEGIN       In initialization...
 000A10 4110 785A/4100_      01190 11335  1                      TSEG  '<ATTN>'
 000A22 1B00/41F0 B050_            11353  1                      TWRITE
                                   11378  1
 000A2E 41F0 B050/58E0_      00050 11379  1                      TCLEAR ,                  Nothing in the seg buffer
 000A38 41F0 0001            00001 11393  1                      LA    R15,1               Read ended by BREAK (faked)
 000A3C 47F0 73E2            00D18 11394  1                      B     TRDEXIT
 000A40                            11395                       END
1TERM     (TERM2193) (12:56) (15MAR04) WYLBUR's Terminal Routines                                                           Page   22
0Current Usings:  (*,R7) (TWA-(4+36),R8) (CP,R11) (CV,R12)
0Loc    Object Code    Addr1 Addr2  Stmt Lv Lineno    Source Statement           (Hibal 5, Asmedit 3.3)  HLASM R4.0  2004/03/15 12.56
+___    ______ ____    _____ _____  ____ __ ______    ______ _________
0                                  11399                       ¿þþþþþþþþþþþþþþþþþþþþþþþþþþþþþþþþþþþþþþþþþþþþþÜ
                                   11400                       Ÿ  Send the terminal read request to MILTEN.  Ÿ
                                   11401                       ¾þþþþþþþþþþþþþþþþþþþþþþþþþþþþþþþþþþþþþþþþþþþþþ»
 000A40 4110 8050            00028 11402                       LA    R1,TWAPDB
 000A44 58E0 780E/0DEE       01144 11403                       ACALL BUILDPDB
                                   11407
 000A4A 9242 8056      0002E       11408                       MVI   TWACMD,TMILREAD
 000A4E 9110 BC7B/4710_00C7B       11409                       IF    (~CPFDISP,AND,~CPFTRAN),'MVC TWAINCT,=H"256"'
 000A64 D601 BC80 BC80_00C80 00C80 11444                       IF    (CPTRMIN,NZ),'MVC TWAINCT,CPTRMIN'  Set input length
 000A74 5820 B05C            0005C 11466                       L     R2,CPSEGLENF
 000A78 58F0 B058            00058 11467                       L     R15,CPSEGMRKF
 000A7C 1B2F                       11468                       SR    R2,R15
 000A7E 40F0 8082            0005A 11469                       STH   R15,TWAWC           Set write count
 000A82 4020 8084            0005C 11470                       STH   R2,TWAPC            Set prompt count
                                   11471
                                   11472                       AIF   (&$PCODE).NEWREAD   *** PCODE
 000A86 5820 C1C8            001C8 11473                       L     R2,CVCURJCB
 USING  JCB,R2                     11474                       WITH  (JCB,R2),BEGIN
                                   11488  1                  ¿þþþþþþþþþþþþþþþþþþþþþþþþþþþþþþþþþþþþþþþþþþþþþþþþþþþþþþþþþþþþþþþþþþþÜ
                                   11489  1                  Ÿ  Put user paths on active queue if they can interrupt a terminal  Ÿ
                                   11490  1                  Ÿ        read.                                                      Ÿ
                                   11491  1                  ¾þþþþþþþþþþþþþþþþþþþþþþþþþþþþþþþþþþþþþþþþþþþþþþþþþþþþþþþþþþþþþþþþþþþ»
 000A8A 9120 BC7D/47E0_00C7D       11492  1                      IF    CPFTINT,BEGIN       Terminal read is interruptible...
 000A92 58E0 7812/0DEE       01148 11507  2                        VCALL PATHQ               Put paths on active queue
 000A98 4780 7178            00AAE 11511  2                        IF    NZ,BEGIN            Path already posted...
 000A9C 41F0 B050/58E0_      00050 11522  3                          TCLEAR
 000AA6 41F0 0065            00065 11536  3                          LA    R15,101             Reverse break return code
 000AAA 47F0 73E2            00D18 11537  3                          B     TRDEXIT
 000AAE                            11538  2                        END
                                   11542  2
 000AAE 58E0 7816/0DEE       0114C 11543  2                        VCALL NPATQ               Ditto for net paths
 000AB4 4780 719A            00AD0 11547  2                        IF    NZ,BEGIN            Path already posted...
 000AB8 58E0 781A/0DEE       01150 11558  3                          VCALL PATHDEQ             Dequeue user paths
 000ABE 41F0 B050/58E0_      00050 11562  3                          TCLEAR
 000AC8 41F0 0065            00065 11576  3                          LA    R15,101             Reverse break return code
 000ACC 47F0 73E2            00D18 11577  3                          B     TRDEXIT
 000AD0                            11578  2                        END
                                   11582  2
 000AD0 9601 2062      00062       11583  2                        SET   JCBFTINT            Doing interruptible read now
 000AD4                            11589  1                      END
                                   11593  1                      ¿þþþþþþþþþþþþþþþþþþþþþþþþþþþþþþþþþþþþþþþþþþþþþþþÜ
                                   11594  1                      Ÿ  Set up a timer if there is a timeout value.  Ÿ
                                   11595  1                      ¾þþþþþþþþþþþþþþþþþþþþþþþþþþþþþþþþþþþþþþþþþþþþþþþ»
 000AD4 D603 200C 200C_0000C 0000C 11596  1                      FAIL  (JCBTIMID,NZ),TRDERR,'Read timer logic error.'
                                   11624  1
 000AF6 58F0 804C/12FF       00024 11625  1                      LT    R15,TWATMOUT        Timeout value in .01 secs
 000AFC 47D0 71E0            00B16 11629  1                      IF    POS,BEGIN           We have a timeout...
 000B00 9608 2063      00063       11640  2                        SET   JCBFTBRK            Send TBREAK when timeout occurs
 000B04 5800 781E            01154 11646  2                        L     R0,=A(WAITEXIT)     Exit routine
 000B08 4110 2000            00000 11647  2                        LA    R1,JCB              JCB is the param for exit routine
 000B0C 58E0 7822/0DEE       01158 11648  2                        ACALL TIMERQ              Queue the timer
 000B12 50F0 200C            0000C 11652  2                        ST    R15,JCBTIMID        Save our timer ID
 000B16                            11653  1                      END
1TERM     (TERM2193) (12:56) (15MAR04) WYLBUR's Terminal Routines                                                           Page   23
0Current Usings:  (JCB,R2) (*,R7) (TWA-(4+36),R8) (CP,R11) (CV,R12)
0Loc    Object Code    Addr1 Addr2  Stmt Lv Lineno    Source Statement           (Hibal 5, Asmedit 3.3)  HLASM R4.0  2004/03/15 12.56
+___    ______ ____    _____ _____  ____ __ ______    ______ _________
0                                  11657  1                      ¿þþþþþþþþþþþþþþþþþþþþþþþþþþþþþþþþþþþþþÜ
                                   11658  1                      Ÿ  Send terminal read PDB to Milten.  Ÿ
                                   11659  1                      ¾þþþþþþþþþþþþþþþþþþþþþþþþþþþþþþþþþþþþþ»
 000B16 4110 8050            00028 11660  1                      LA    R1,TWAPDB
 000B1A 58E0 7826/0DEE       0115C 11661  1                      ACALL TIO                 Send PDB
                                   11665  1                      ¿þþþþþþþþþþþþþþþþþþþþþþþþþþÜ
                                   11666  1                      Ÿ  Cleanup timeout timer.  Ÿ
                                   11667  1                      ¾þþþþþþþþþþþþþþþþþþþþþþþþþþ»
 000B20 94F7 2063      00063       11668  1                      CLEAR JCBFTBRK            Reset timer means tbreak flag
 000B24 58F0 200C/12FF       0000C 11675  1                      LT    R15,JCBTIMID        Do we have a timeout timer?
 000B2A 4780 7204            00B3A 11679  1                      IF    NZ,BEGIN            Yes, dequeue it...
 000B2E D703 200C 200C 0000C 0000C 11690  2                        CLEAR JCBTIMID            Clear timer ID
 000B34 58E0 782A/0DEE       01160 11697  2                        VCALL TIMERDQ             Dequeue timer
 000B3A                            11701  1                      END
                                   11705  1                      ¿þþþþþþþþþþþþþþþþþþþþþþþþþþþþþþþþþþþþþþþþþþþþþþþþÜ
                                   11706  1                      Ÿ  Cleanup after interruptible read completion.  Ÿ
                                   11707  1                      ¾þþþþþþþþþþþþþþþþþþþþþþþþþþþþþþþþþþþþþþþþþþþþþþþþ»
 000B3A 9120 BC7D/47E0_00C7D       11708  1                      IF    CPFTINT,BEGIN       Dequeue paths...
 000B42 94FE 2062      00062       11723  2                        CLEAR JCBFTINT            Not doing interruptible read
 000B46 58E0 781A/0DEE       01150 11730  2                        VCALL PATHDEQ             Dequeue paths from disp queue
 000B4C 58E0 782E/0DEE       01164 11734  2                        VCALL NPATDEQ             Dequeue net paths too
 000B52                            11738  1                      END
 DROP   JCB,R2                     11742                       END
                                   11750                       AGO   .ENDREAD            *** PCODE
                                   11751              .ENDREAD ANOP ,                    *** PCODE
                                   11752                    ¿þþþþþþþþþþþþþþþþþþþþþþþþþþþþþþþþþþþþþþþþþþþþþþþþþþþþþþþþþþþþþþþþþþÜ
                                   11753                    Ÿ  After doing terminal I/O we may not know the current rendition  Ÿ
                                   11754                    Ÿ      because an attention might have stopped the I/O before the  Ÿ
                                   11755                    Ÿ       final SET GRAPHIC RENDITION was sent, so we must clear     Ÿ
                                   11756                    Ÿ       CPREND now.                                                Ÿ
                                   11757                    ¾þþþþþþþþþþþþþþþþþþþþþþþþþþþþþþþþþþþþþþþþþþþþþþþþþþþþþþþþþþþþþþþþþþ»
 000B52 9180 805C/47E0_00034       11758                       IF    TWACPLA.CPLAATTN,'CLEAR CPREND'  Reset current rend
                                   11786              ***
                                   11787              ***  Process terminal read completion.
                                   11788              ***
 000B60 4820 8084/1222_      0005C 11789                       IF    ('LTH R2,TWAPC',NZ),BEGIN  MILTEN returns the prompt...
 000B6A 58F0 B05C            0005C 11805  1                      L     R15,CPSEGLENF
 000B6E 1BF2                       11806  1                      SR    R15,R2              Amount of actual read text
 000B70 50F0 B05C            0005C 11807  1                      ST    R15,CPSEGLENF
 000B74 5830 B070            00070 11808  1                      L     R3,CPSEGLOC
 000B78 18E3/18FF/4102_            11809  1                      MOVEL (R3),@R3(R2),(R15)  Remove the prompt
 000B84                            11829                       END
                                   11833                       ¿þþþþþþþþþþþþþþþþþþþþþþþþþþþþþþþþþþþþþþþÜ
                                   11834                       Ÿ  Read ended with logging off status.  Ÿ
                                   11835                       ¾þþþþþþþþþþþþþþþþþþþþþþþþþþþþþþþþþþþþþþþ»
 000B84 9180 805D/47E0_00035       11836                       IF    TWACPLB.CPLBLGF,BEGIN  logging off...
 000B8C D703 B05C B05C 0005C 0005C 11852  1           TRDLGF     CLEAR CPSEGLENF           No input text
 000B92 48F0 7862            01198 11860  1                      LH    R15,=H'-8'
 000B96 47F0 73E2            00D18 11861  1                      B     TRDEXIT
 000B9A                            11862                       END
1TERM     (TERM2193) (12:56) (15MAR04) WYLBUR's Terminal Routines                                                           Page   24
0Current Usings:  (*,R7) (TWA-(4+36),R8) (CP,R11) (CV,R12)
0Loc    Object Code    Addr1 Addr2  Stmt Lv Lineno    Source Statement           (Hibal 5, Asmedit 3.3)  HLASM R4.0  2004/03/15 12.56
+___    ______ ____    _____ _____  ____ __ ______    ______ _________
0                                  11866                       ¿þþþþþþþþþþþþþþþþþþþþþþþþþþþþþþþþþþþþþþþþþþþþþþþþþþþþþþþþþþþþþþþÜ
                                   11867                       Ÿ  Read ended because front-end can not do it.                  Ÿ
                                   11868                       Ÿ  This usually happens when a display mode request is sent to  Ÿ
                                   11869                       Ÿ     a terminal or front-end which is not capable of handling  Ÿ
                                   11870                       Ÿ     full screen I/O's.                                        Ÿ
                                   11871                       ¾þþþþþþþþþþþþþþþþþþþþþþþþþþþþþþþþþþþþþþþþþþþþþþþþþþþþþþþþþþþþþþþ»
 000B9A 9140 805D/47E0_00035       11872                       IF    TWACPLB.CPLBILT,BEGIN  Terminal can't do this...
 000BA2 9110 BC7B/47E0_00C7B       11888  1                      IF    CPFDISP,BEGIN       Display mode on non-display fe...
 000BAA 94EF BC7B      00C7B       11903  2                        CLEAR CPFDISP             Reset display mode I/O
 000BAE 943F BAC8      00AC8       11910  2                        CLEAR CPVFPAGE+CPVFPEND   Try not to do this again
 000BB2 4110 7895/4100_      011CB 11920  2                        TSEG  'This terminal or controller does not support '
 000BC4 4110 78C2/4100_      011F8 11938  2                        TSEG  'full screen requests.'
 000BD6                            11956  1                      END
                                   11960  1
 000BD6 47F0 C7DA            007DA 11961  1                      B     CVABORT             Scram
 000BDA                            11962                       END
                                   11966                       ¿þþþþþþþþþþþþþþþþþþþþþþþþþþþþþþþþþþÜ
                                   11967                       Ÿ  Read ended with reverse break.  Ÿ
                                   11968                       ¾þþþþþþþþþþþþþþþþþþþþþþþþþþþþþþþþþþ»
 000BDA 9110 805C/47E0_00034       11969                       IF    TWACPLA.CPLABRK,BEGIN  Ended by reverse break...
 000BE2 41F0 0065            00065 11985  1                      LA    R15,101             Ended with break from system
 000BE6 47F0 73E2            00D18 11986  1                      B     TRDEXIT             Scram
 000BEA                            11987                       END
                                   11991
 000BEA 9180 BC7C/47E0_00C7C       11992                       IF    CPFTRAN,BEGIN       Transparent read completion...
 000BF2 1BFF                       12007  1                      CLEAR R15                 Normal completion
 000BF4 9180 805C/47E0_00034       12011  1                      IF    TWACPLA.CPLAATTN,'LA R15,1'  Attn
 000C00 47F0 73E2            00D18 12033  1                      B     TRDEXIT
 000C04                            12034                       END
                                   12038
 000C04 9140 805C/47E0_00034       12039                       IF    TWACPLA.CPLAIOE,BEGIN  I/O error...
 000C0C 41F0 B050/58E0_      00050 12055  1                      TCLEAR
 000C16 4110 78D7/4100_      0120D 12069  1                      TSEG  'Transmission error.  '
 000C28 4110 78EC/4100_      01222 12087  1                      SETMSG 'Re-enter.'
 000C30 D604 B3B4 B3B4_003B4 003B4 12091  1                      IF    (CPSACCT,Z),BEGIN
 000C3A 4110 7864/4100_      0119A 12107  2                        SETMSG 'Expecting terminal parity setting of even.'
 000C42                            12111  1                      END
 000C42 47F0 732A            00C60 12115  1                      B     TRDLOOP
 000C46                            12116                       END
                                   12120
 000C46 9120 805C/47E0_00034       12121                       IF    TWACPLA.CPLAUST,BEGIN  unset tabs...
 000C4E 41F0 B050/58E0_      00050 12137  1                      TCLEAR
 000C58 4110 7832/4100_      01168 12151  1                      SETMSG 'Tabs are not set.  Re-enter.'
 000C60 41F0 B050/58E0_      00050 12155  1           TRDLOOP    TSEG  (R1),(R0),CR
 000C6A 1816/1805/41F0_            12180  1                      TSEG  (R6),(R5)           Original prompt line
 000C78 47F0 70BC            009F2 12206  1                      B     TRDDO
 000C7C                            12207                       END
                                   12211
 000C7C 9180 805C/47E0_00034       12212                       IF    TWACPLA.CPLAATTN,BEGIN  Break/attn...
 000C84 D603 B05C B05C_0005C 0005C 12228  1                      IF    (CPSEGLENF,Z),'LA R15,1; B TRDEXIT'
 000C96 9110 BC7B/47E0_00C7B       12251  1                      IF    CPFDISP,'LA R15,1; B TRDEXIT'
 000CA6 9110 BC7D/47E0_00C7D       12273  1                      IF    CPFNSTAR,'LA R15,1; B TRDEXIT'
                                   12295  1
 000CB6 58F0 C1C8            001C8 12296  1                      L     R15,CVCURJCB
1TERM     (TERM2193) (12:56) (15MAR04) WYLBUR's Terminal Routines                                                           Page   25
0Current Usings:  (*,R7) (TWA-(4+36),R8) (CP,R11) (CV,R12)
0Loc    Object Code    Addr1 Addr2  Stmt Lv Lineno    Source Statement           (Hibal 5, Asmedit 3.3)  HLASM R4.0  2004/03/15 12.56
+___    ______ ____    _____ _____  ____ __ ______    ______ _________
0000CBA 94F5 F062      00062       12297  1                      WITH  (JCB,R15),'CLEAR JCBFATTN+JCBFPATN'
 USING  JCB,R15
 DROP   JCB,R15
                                   12330  1
 000CBE 58F0 B05C            0005C 12331  1                      L     R15,CPSEGLENF
 000CC2 06F0                       12332  1                      DECR  R15
 000CC4 5810 B070            00070 12334  1                      L     R1,CPSEGLOC
 000CC8 411F 1000            00000 12335  1                      LA    R1,@R1(R15)
 000CCC 956F 1000/4770_00000       12336  1                      IF    (@R1,EQ,'?'),BEGIN  ?break...
 000CD4 12FF/4770 73B0             12352  2                        IF    (R15,NZ),EXIT
 000CDA 50F0 B05C            0005C 12369  2                        ST    R15,CPSEGLENF
 000CDE 41F0 0002            00002 12370  2                        LA    R15,2               Equivalent to PF2
 000CE2 47F0 73E2            00D18 12371  2                        B     TRDEXIT
 000CE6                            12372  1                      END
                                   12376  1
 000CE6 957C 1000/4770_00000       12377  1                      IF    (@R1,EQ,'@'),BEGIN  @break...
 000CEE 50F0 B05C            0005C 12393  2                        ST    R15,CPSEGLENF
 000CF2 41F0 0003            00003 12394  2                        LA    R15,3               Equivalent to PF3
 000CF6 47F0 73E2            00D18 12395  2                        B     TRDEXIT
 000CFA                            12396  1                      END
                                   12400  1
 000CFA 41F0 B050/58E0_      00050 12401  1                      TCLEAR
 000D04 1816/1805/41F0_            12415  1                      TSEG  (R6),(R5)           Re-prompt
 000D12 47F0 70BC            009F2 12441  1                      B     TRDDO
 000D16                            12442                       END
                                   12446
 000D16 1BFF                       12447                       CLEAR R15
 000D18 5810 B070/5800_      00070 12451              TRDEXIT  SETMSG L:CPSEGLOC,L:CPSEGLENF
                                   12463
 000D20 90F1 D000/41D0_      00000 12464                       XPUSH R15,R1
 000D28 41F0 B050/58E0_      00050 12467                       TCLEAR
 000D32 9180 8048/47E0_00020       12481                       IF    TWAFQUI,'SET CPFQUIET'  Restore QUIET setting
 000D3E 4BD0 788E/98F1_      011C4 12507                       XPOP  R15,R1
                                   12510
 000D46 9001 8004            00004 12511                       PRETURN (R0,R1)
 000D4A 18D8/9808 D004_            12513                       PEND  ,
 DROP   TWA-(4+36),R8
 DROP   *,R7
1TERM     (TERM2193) (12:56) (15MAR04) WYLBUR's Terminal Routines                                                           Page   26
0Current Usings:  (CP,R11) (CV,R12)
0Loc    Object Code    Addr1 Addr2  Stmt Lv Lineno    Source Statement           (Hibal 5, Asmedit 3.3)  HLASM R4.0  2004/03/15 12.56
+___    ______ ____    _____ _____  ____ __ ______    ______ _________
0                                  12539              ¿þþþþþþþþþþþþþþþþþþþþþþþþþþþþþþþþþþþþþþþþþþþþþþþþþþþþþþþþþþþþþþþþþþþþþÜ
                                   12540              Ÿ                                                                     Ÿ
                                   12541              Ÿ  TIDLEWR -- Routine to do a TWRITE if there has been more than      Ÿ
                                   12542              Ÿ    a little bit of elapsed time since the last terminal I/O.        Ÿ
                                   12543              Ÿ                                                                     Ÿ
                                   12544              Ÿ    This is used for commands like LIST that want to build large     Ÿ
                                   12545              Ÿ    write buffers, but also want partial buffers to be written       Ÿ
                                   12546              Ÿ    if more than a little time has gone by.                          Ÿ
                                   12547              Ÿ                                                                     Ÿ
                                                      ¾þþþþþþþþþþþþþþþþþþþþþþþþþþþþþþþþþþþþþþþþþþþþþþþþþþþþþþþþþþþþþþþþþþþþþ»
0000D58 50E0 D000/9008_      00000 12548              TIDLEWR  XPROC
 USING  *,R7
 000D72 1BFF                       12588                       CLEAR R15                 Preset good return code
                                   12592
 000D74 D603 B05C B05C_0005C 0005C 12593                       IF    (CPSEGLENF,NZ),BEGIN  Only if stuff to write...
 000D7E B205 D000      00000       12609  1                      STCK  @R13                Current TOD
 000D82 5820 D000            00000 12610  1                      L     R2,@R13             Pick up time
 000D86 5F20 B8CC            008CC 12611  1                      SL    R2,CPTIOCLK         Number of seconds since last I/O
 000D8A 5920 7046/47C0_      00DB8 12612  1                      IF    (R2,LE,TSECS),EXIT  Not enough time, forget it
 000D92 41F0 0001/5EF0_      00001 12632  1                      INCR  R15,CVNTIDLE        Count TIDLE writes
 000D9E 1B00/41F0 B050_            12638  1                      TWRITE
 000DAA                            12663                       END
 000DAA 18D8/9808 D004_            12667                       PEND
 DROP   *,R7
                                   12687
 000DB8 0000000A                   12688              TSECS    DC    F'10'               Over 10 seconds is too long
                                   12689                       AIF   (&$PCODE).NOTMISC   *** PCODE
1TERM     (TERM2193) (12:56) (15MAR04) WYLBUR's Terminal Routines                                                           Page   27
0Current Usings:  (CP,R11) (CV,R12)
0Loc    Object Code    Addr1 Addr2  Stmt Lv Lineno    Source Statement           (Hibal 5, Asmedit 3.3)  HLASM R4.0  2004/03/15 12.56
+___    ______ ____    _____ _____  ____ __ ______    ______ _________
0                                  12691              ¿þþþþþþþþþþþþþþþþþþþþþþþþþþþþþþþþþþþþþþþþþþþþþþþþþþþþþþþþþþþþþþþþþþþþþÜ
                                   12692              Ÿ                                                                     Ÿ
                                   12693              Ÿ  TASWRITE -- Routine to send asynchronous write to another          Ÿ
                                   12694              Ÿ    session.                                                         Ÿ
                                   12695              Ÿ                                                                     Ÿ
                                   12696              Ÿ    On entry:                                                        Ÿ
                                   12697              Ÿ      R1 - session id                                                Ÿ
                                   12698              Ÿ                                                                     Ÿ
                                   12699              Ÿ    On exit, R15 (and CC):                                           Ÿ
                                   12700              Ÿ      -4 - invalid session no.                                       Ÿ
                                   12701              Ÿ       0 - ok                                                        Ÿ
                                   12702              Ÿ       4 - can't write                                               Ÿ
                                   12703              Ÿ                                                                     Ÿ
                                                      ¾þþþþþþþþþþþþþþþþþþþþþþþþþþþþþþþþþþþþþþþþþþþþþþþþþþþþþþþþþþþþþþþþþþþþþ»
0000DBC 50E0 D000/9008_      00000 12704              TASWRITE XPROC TWA
 USING  *,R7
 USING  TWA-(4+36),R8
 000DD6 1821                       12755                       LR    R2,R1
                                   12756
 000DD8 D603 B05C B05C_0005C 0005C 12757                       TCCR
                                   12819
 000DF8 4110 8050            00028 12820                       LA    R1,TWAPDB
 000DFC 58E0 736E/0DEE       01144 12821                       ACALL BUILDPDB            Build PDB header
                                   12825
 000E02 9246 8056      0002E       12826                       MVI   TWACMD,MILAWR       Async write
 000E06 5020 8060            00038 12827                       ST    R2,TWAAWID          Save session id
                                   12828
 000E0A 9620 8059      00031       12829                       SET   TWAMODB.MODBDWAT    Disable write attns
 000E0E 9601 805A      00032       12836                       SET   TWAMODC.MODCSTOB
                                   12843
 000E12 4110 8050            00028 12844                       LA    R1,TWAPDB
 000E16 58E0 7386/0DEE       0115C 12845                       ACALL TIO                 Send PDB
                                   12849
 000E1C 41F0 B050/58E0_      00050 12850                       TCLEAR
 000E26 1BFF                       12864                       CLEAR R15                 Rc
 000E28 9140 805D/47E0_00035       12868                       IF    TWACPLB.CPLBILT,'LA R15,4'
 000E34 18D8/9808 D004_            12890              TASWEXIT PEND  ,
 DROP   TWA-(4+36),R8
 DROP   *,R7
1TERM     (TERM2193) (12:56) (15MAR04) WYLBUR's Terminal Routines                                                           Page   28
0Current Usings:  (CP,R11) (CV,R12)
0Loc    Object Code    Addr1 Addr2  Stmt Lv Lineno    Source Statement           (Hibal 5, Asmedit 3.3)  HLASM R4.0  2004/03/15 12.56
+___    ______ ____    _____ _____  ____ __ ______    ______ _________
0                                  12917              ¿þþþþþþþþþþþþþþþþþþþþþþþþþþþþþþþþþþþþþþþþþþþþþþþþþþþþþþþþþþþþþþþþþþþþþÜ
                                   12918              Ÿ                                                                     Ÿ
                                   12919              Ÿ  TCNTL -- Routine to send "control" PDB to MILTEN.                  Ÿ
                                   12920              Ÿ    The parameters for the control are already in PDBTEXT.           Ÿ
                                   12921              Ÿ                                                                     Ÿ
                                   12922              Ÿ    On entry:                                                        Ÿ
                                   12923              Ÿ      R0 - control number                                            Ÿ
                                   12924              Ÿ                                                                     Ÿ
                                   12925              Ÿ    On exit:                                                         Ÿ
                                   12926              Ÿ      R1,R0 - response loc,len                                       Ÿ
                                   12927              Ÿ      R15 (and CC):                                                  Ÿ
                                   12928              Ÿ        neg - serious error (PDBCRET complimented)                   Ÿ
                                   12929              Ÿ          0 - ok                                                     Ÿ
                                   12930              Ÿ        pos - depends on control (PDBCMOD)                           Ÿ
                                   12931              Ÿ                                                                     Ÿ
                                                      ¾þþþþþþþþþþþþþþþþþþþþþþþþþþþþþþþþþþþþþþþþþþþþþþþþþþþþþþþþþþþþþþþþþþþþþ»
0000E42 50E0 D000/9008_      00000 12932              TCNTL    XPROC TWA
 USING  *,R7
 USING  TWA-(4+36),R8
 000E5C 1820                       12983                       LR    R2,R0
                                   12984
 000E5E 4110 8050            00028 12985                       LA    R1,TWAPDB
 000E62 58E0 72E8/0DEE       01144 12986                       ACALL BUILDPDB            Build PDB header
                                   12990
 000E68 9249 8056      0002E       12991                       MVI   TWACMD,MILCNTL      Control
 000E6C 4220 8057            0002F 12992                       STC   R2,TWACMDFL         Control number
                                   12993
 000E70 4110 8050            00028 12994                       LA    R1,TWAPDB
 000E74 58E0 7300/0DEE       0115C 12995                       ACALL TIO                 Send PDB
                                   12999
 000E7A 5810 B070/5800_      00070 13000                       SETMSG L:CPSEGLOC,L:CPSEGLENF
 000E82 1FFF/43F0 805E             13012                       LC    R15,TWACRET
 000E88 13FF                       13019                       LCR   R15,R15
 000E8A 12FF/4770 703A_            13020                       IF    (R15,Z),'LC R15,TWACMOD'
                                   13046
 000E96 90F1 D000/41D0_      00000 13047                       XPUSH R15,R1
 000E9E 41F0 B050/58E0_      00050 13050                       TCLEAR
 000EA8 4BD0 7368/98F1_      011C4 13064                       XPOP  R15,R1
 000EB0 9001 8004            00004 13067                       PRETURN (R0,R1)
 000EB4 18D8/9808 D004_            13069                       PEND  ,
 DROP   TWA-(4+36),R8
 DROP   *,R7
1TERM     (TERM2193) (12:56) (15MAR04) WYLBUR's Terminal Routines                                                           Page   29
0Current Usings:  (CP,R11) (CV,R12)
0Loc    Object Code    Addr1 Addr2  Stmt Lv Lineno    Source Statement           (Hibal 5, Asmedit 3.3)  HLASM R4.0  2004/03/15 12.56
+___    ______ ____    _____ _____  ____ __ ______    ______ _________
0                                  13095              ¿þþþþþþþþþþþþþþþþþþþþþþþþþþþþþþþþþþþþþþþþþþþþþþþþþþþþþþþþþþþþþþþþþþþþþÜ
                                   13096              Ÿ                                                                     Ÿ
                                   13097              Ÿ  TXCTL -- Transfer control to another subsystem.                    Ÿ
                                   13098              Ÿ                                                                     Ÿ
                                   13099              Ÿ    On entry:                                                        Ÿ
                                   13100              Ÿ      R1 - 8 char subsystem name                                     Ÿ
                                   13101              Ÿ      R15- 8 char information area (ORVYL only)                      Ÿ
                                   13102              Ÿ                                                                     Ÿ
                                   13103              Ÿ    On exit, R15 (and cc):                                           Ÿ
                                   13104              Ÿ      0 - subsystem returned control (normal);                       Ÿ
                                   13105              Ÿ            R1,R0 = loc, len of return info from other subsystem     Ÿ
                                   13106              Ÿ     -4 - subsystem not active                                       Ÿ
                                   13107              Ÿ                                                                     Ÿ
                                   13108              Ÿ                                                                     Ÿ
                                                      ¾þþþþþþþþþþþþþþþþþþþþþþþþþþþþþþþþþþþþþþþþþþþþþþþþþþþþþþþþþþþþþþþþþþþþþ»
0000EC2 50E0 D000/9008_      00000 13109              TXCTL    XPROC TWA
 USING  *,R7
 USING  TWA-(4+36),R8
                                   13160
 000EDC 1211/4780 700C_            13161                       IF    (R1,NZ),'MVC CPSYS,@R1'  Save new subsystem name
 000EE8 185F                       13181                       LR    R5,R15              Save information area ptr
                                   13182
 000EEA 4110 8050            00028 13183                       LA    R1,TWAPDB
 000EEE 58E0 7268/0DEE       01144 13184                       ACALL BUILDPDB            Build PDB header
                                   13188
 000EF4 9247 8056      0002E       13189                       MVI   TWACMD,TMILXCTL     Set code to xctl
 000EF8 D207 8074 B154 0004C 00154 13190                       MVC   TWASYSNM,CPSYS      Set system to get control
                                   13191                       ¿þþþþþþþþþþþþþþþþþþþþþþþþþþþþþþþþþþþþþþþþþþþþþþþþþþþþþþÜ
                                   13192                       Ÿ  Transferring control to Orvyl is a little special.  Ÿ
                                   13193                       ¾þþþþþþþþþþþþþþþþþþþþþþþþþþþþþþþþþþþþþþþþþþþþþþþþþþþþþþ»
 000EFE D507 B154 B8BC_00154 008BC 13194                       IF    (CPSYS,EQ,CPORVYL),BEGIN  Going to ORVYL...
 000F08 9108 C4C5/4710_004C5       13212  1                      IF    (CVFINIT,OR,(CPSACCT,Z),OR,(CPSYS,Z)),BEGIN  No way
 000F24 D707 B154 B154 00154 00154 13255  2                        CLEAR CPSYS               No subsystem
 000F2A D70F B140 B140 00140 00140 13262  2                        CLEAR CPORV               Reset ORVYL info
 000F30 41F0 B050/58E0_      00050 13269  2                        TCLEAR
 000F3A 48F0 72EA            011C6 13283  2                        LH    R15,=H'-4'          Subsystem isn't active
 000F3E 47F0 70B2            00F8E 13284  2                        B     TXEXIT
 000F42                            13285  1                      END
                                   13289  1
 000F42 1255/4780 7072_            13290  1                      IF    (R5,NZ),'MVC TWAORV,@R5'  Set ORVYL info
 000F4E                            13310                       END
                                   13314                       ¿þþþþþþþþþþþþþþþþþþþþþþþþþþþþþþþþþþþþþþþþþþþþþþþþþþþþþþÜ
                                   13315                       Ÿ  Now go send Milten the transfer subsystem request.  Ÿ
                                   13316                       ¾þþþþþþþþþþþþþþþþþþþþþþþþþþþþþþþþþþþþþþþþþþþþþþþþþþþþþþ»
 000F4E 4110 8050            00028 13317                       LA    R1,TWAPDB
 000F52 58E0 7280/0DEE       0115C 13318                       ACALL TIO                 Send PDB
                                   13322
 000F58 1BFF                       13323                       CLEAR R15                 Assume A-ok
 000F5A D507 8074 B154_0004C 00154 13327                       IF    (TWASYSNM,NE,CPSYS),BEGIN  Subsystem not active...
 000F64 D507 B154 B8BC_00154 008BC 13345  1                      IF    (CPSYS,EQ,CPORVYL),'CLEAR CPORV'  Reset ORVYL info
 000F74 D707 B154 B154 00154 00154 13375  1                      CLEAR CPSYS               No subsystem
 000F7A 48F0 72EA            011C6 13382  1                      LH    R15,=H'-4'          Subsystem isn't active
 000F7E                            13383                       END
1TERM     (TERM2193) (12:56) (15MAR04) WYLBUR's Terminal Routines                                                           Page   30
0Current Usings:  (*,R7) (TWA-(4+36),R8) (CP,R11) (CV,R12)
0Loc    Object Code    Addr1 Addr2  Stmt Lv Lineno    Source Statement           (Hibal 5, Asmedit 3.3)  HLASM R4.0  2004/03/15 12.56
+___    ______ ____    _____ _____  ____ __ ______    ______ _________
0                                  13387
 000F7E D507 B154 B8BC_00154 008BC 13388                       IF    (CPSYS,EQ,CPORVYL),'MVC CPORVINF,TWAORV'  ORVYL info
                                   13412
 000F8E 5810 B070/5800_      00070 13413              TXEXIT   SETMSG L:CPSEGLOC,L:CPSEGLENF
 000F96 9001 8004            00004 13425                       PRETURN (R0,R1)           Return parameter information
 000F9A 182F                       13427                       LR    R2,R15
 000F9C 41F0 B050/58E0_      00050 13428                       TCLEAR
 000FA6 18F2                       13442                       LR    R15,R2              RC
 000FA8 18D8/9808 D004_            13443                       PEND
 DROP   TWA-(4+36),R8
 DROP   *,R7
1TERM     (TERM2193) (12:56) (15MAR04) WYLBUR's Terminal Routines                                                           Page   31
0Current Usings:  (CP,R11) (CV,R12)
0Loc    Object Code    Addr1 Addr2  Stmt Lv Lineno    Source Statement           (Hibal 5, Asmedit 3.3)  HLASM R4.0  2004/03/15 12.56
+___    ______ ____    _____ _____  ____ __ ______    ______ _________
0                                  13469              ¿þþþþþþþþþþþþþþþþþþþþþþþþþþþþþþþþþþþþþþþþþþþþþþþþþþþþþþþþþþþþþþþþþþþþþÜ
                                   13470              Ÿ                                                                     Ÿ
                                   13471              Ÿ  TWTO -- Routine to WTO the terminal seg buffer.                    Ÿ
                                   13472              Ÿ                                                                     Ÿ
                                   13473              Ÿ    On entry:                                                        Ÿ
                                   13474              Ÿ      R1,R0 - message loc, len                                       Ÿ
                                   13475              Ÿ                                                                     Ÿ
                                   13476              ŸTWTO     XPROC                                                       Ÿ
                                   13477              Ÿ         SET   CPFWTO                                                Ÿ
                                   13478              Ÿ         IF    (CPSEGLENF,Z),BEGIN  Add jobname prefix...            Ÿ
                                   13479              Ÿ         XPUSH R0,R1                                                 Ÿ
                                   13480              Ÿ         TSEG  '*** '                                                Ÿ
                                   13481              Ÿ         TSEG  CVWYLSSN,,TB                                          Ÿ
                                   13482              Ÿ         TSEG  '*** '                                                Ÿ
                                   13483              Ÿ         XPOP  R0,R1                                                 Ÿ
                                   13484              Ÿ         END                                                         Ÿ
                                   13485              Ÿ         TSEG  (R1),(R0),WR        WTO (see TERMSEG)                 Ÿ
                                   13486              Ÿ         CLEAR CPFWTO                                                Ÿ
                                   13487              Ÿ         PEND  ,                                                     Ÿ
                                                      ¾þþþþþþþþþþþþþþþþþþþþþþþþþþþþþþþþþþþþþþþþþþþþþþþþþþþþþþþþþþþþþþþþþþþþþ»
1TERM     (TERM2193) (12:56) (15MAR04) WYLBUR's Terminal Routines                                                           Page   32
0Current Usings:  (CP,R11) (CV,R12)
0Loc    Object Code    Addr1 Addr2  Stmt Lv Lineno    Source Statement           (Hibal 5, Asmedit 3.3)  HLASM R4.0  2004/03/15 12.56
+___    ______ ____    _____ _____  ____ __ ______    ______ _________
0000000                00000 000C6 13489              TNOTWA   RECORD BEGIN
                                   13497  1                      XSA   R2,R8
 000000 0000000000000000           13498  1 01-XSA   +           DC    (R8+2-(R2))A(0)
                                   13499  1
                                   13500  1           TNOTX      SEGCB
 000020 00                         13501  1 01-SEGCB +$$$SEGCB243   DS 0F
 TNOTXCOD.TNOTXSEG 01 EQ
 TNOTXCOD.TNOTXWR  02 EQ
 TNOTXCOD.TNOTXCLR 03 EQ
 TNOTXCOD.TNOTXSPP 04 EQ
 TNOTXCOD.TNOTXOVF 05 EQ
 TNOTXCOD.TNOTXCR  06 EQ
 TNOTXCOD.TNOTXMAR 07 EQ
 000021 00                         13576  1 01-SEGCB +           DC    X'00'               Reserved
 000022 0000                              1          +
 000024 00000000                   13577  1 01-SEGCB +TNOTXMAXF   DC   A(0)                Maximum buffer length
 000028 00000000                   13578  1 01-SEGCB +TNOTXMRKF   DC   A(0)                Length at last mark
 00002C 00000000                   13579  1 01-SEGCB +TNOTXLENF   DC   A(0)                Current length
 000030 00000000                   13580  1 01-SEGCB +TNOTXINDF   DC   A(0)                Overflow/indent count
 000034 00000000                   13581  1 01-SEGCB +TNOTXERR   DC    A(0)                Address of error recovery routine
 000038 0000000000000000           13582  1 01-SEGCB +           DC    2F'0'               Reserved
 000040 00000000                   13583  1 01-SEGCB +TNOTXLOC   DC    A(0)                Location of buffer
 000044 00000000                   13584  1 01-SEGCB +TNOTXRTN   DC    A(0)                Processing routine
 000048 0000000000000000           13585  1 01-SEGCB +           DC    4F'0'               Reserved
 000058 00000000                   13586  1 01-SEGCB +TNOTXUSR   DC    A(0)                USER field
                                   13587  1 01-SEGCB +TNOTX      EQU   $$$SEGCB243,*-$$$SEGCB243,C'X'
                                   13588  1
 00005C                            13589  1           TNOTPARM   DS    X                   MILSERV: must be zero
 00005D                            13590  1           TNOTACC    DS    CL5                 MILSERV: account (uuugg)
                                   13591  1           TNOTPFX    EQU   TNOTPARM,*-TNOTPARM,C'X'
 000062                            13592  1           TNOTMSG    DS    CL100               MILSERV: message text
                                   13593  1
                                   13594  1           TNOTINIT   EQU   TNOTX,*-TNOTX,C'X'
 0000C6                000C6 000C6 13595                       END
-                                  13605              ¿þþþþþþþþþþþþþþþþþþþþþþþþþþþþþþþþþþþþþþþþþþþþþþþþþþþþþþþþþþþþþþþþþþþþþÜ
                                   13606              Ÿ                                                                     Ÿ
                                   13607              Ÿ  TNOTIFY -- Routine to send a notify message to the WYLBUR job's    Ÿ
                                   13608              Ÿ    owner (for test systems).                                        Ÿ
                                   13609              Ÿ                                                                     Ÿ
                                   13610              Ÿ    On entry:                                                        Ÿ
                                   13611              Ÿ      R1,R0 - msg loc, len                                           Ÿ
                                   13612              Ÿ                                                                     Ÿ
                                   13613              ŸTNOTIFY  XPROC TNOTWA                                                Ÿ
                                   13614              Ÿ         CLEAR TNOTINIT                                              Ÿ
                                   13615              Ÿ*                                                                    Ÿ
                                   13616              Ÿ         IF    (CVNOTIFY,NZ),BEGIN  We have a notify account...      Ÿ
                                   13617              Ÿ         XPUSH R0,R1               Save msg ptrs                     Ÿ
                                   13618              Ÿ*                                                                    Ÿ
                                   13619              Ÿ         MVC   TNOTACC,CVNOTIFY    Set account                       Ÿ
                                   13620              Ÿ         SEGINIT TNOTMSG,,TNOTX                                      Ÿ
                                   13621              Ÿ         SEG   'From '                                               Ÿ
                                   13622              Ÿ         SEGT  CVWYLSSN            Subsystem name                    Ÿ
1TERM     (TERM2193) (12:56) (15MAR04) WYLBUR's Terminal Routines                                                           Page   33
0Current Usings:  (CP,R11) (CV,R12)
0Loc    Object Code    Addr1 Addr2  Stmt Lv Lineno    Source Statement           (Hibal 5, Asmedit 3.3)  HLASM R4.0  2004/03/15 12.56
+___    ______ ____    _____ _____  ____ __ ______    ______ _________
0                                  13623              Ÿ         SEG   ': '                                                  Ÿ
                                   13624              Ÿ         XPOP  R0,R1                                                 Ÿ
                                   13625              Ÿ         SEG   (R1),(R0)           Message text                      Ÿ
                                   13626              Ÿ*                                                                    Ÿ
                                   13627              Ÿ         LA    R0,L'TNOTPFX        MILSERV prefix                    Ÿ
                                   13628              Ÿ         A     R0,TNOTXLENF        Add in message length             Ÿ
                                   13629              Ÿ*                                                                    Ÿ
                                   13630              Ÿ         MILSERV TNOTPARM,(R0),LA:2  Send message to the owner       Ÿ
                                   13631              Ÿ         END                                                         Ÿ
                                   13632              Ÿ*                                                                    Ÿ
                                   13633              Ÿ         PEND  ,                                                     Ÿ
                                                      ¾þþþþþþþþþþþþþþþþþþþþþþþþþþþþþþþþþþþþþþþþþþþþþþþþþþþþþþþþþþþþþþþþþþþþþ»
1TERM     (TERM2193) (12:56) (15MAR04) WYLBUR's Terminal Routines                                                           Page   34
0Current Usings:  (CP,R11) (CV,R12)
0Loc    Object Code    Addr1 Addr2  Stmt Lv Lineno    Source Statement           (Hibal 5, Asmedit 3.3)  HLASM R4.0  2004/03/15 12.56
+___    ______ ____    _____ _____  ____ __ ______    ______ _________
0                                  13635              ¿þþþþþþþþþþþþþþþþþþþþþþþþþþþþþþþþþþþþþþþþþþþþþþþþþþþþþþþþþþþþþþþþþþþþþÜ
                                   13636              Ÿ                                                                     Ÿ
                                   13637              Ÿ  TBREAK -- Routine to halt terminal I/O.                            Ÿ
                                   13638              Ÿ                                                                     Ÿ
                                   13639              Ÿ    Note that this routine is called by the dispatcher to halt       Ÿ
                                   13640              Ÿ    a user's current terminal I/O; this routine can not assume       Ÿ
                                   13641              Ÿ    addressability to the user's CP.                                 Ÿ
                                   13642              Ÿ                                                                     Ÿ
                                   13643              Ÿ    On entry:                                                        Ÿ
                                   13644              Ÿ      R0 - session number                                            Ÿ
                                   13645              Ÿ                                                                     Ÿ
                                                      ¾þþþþþþþþþþþþþþþþþþþþþþþþþþþþþþþþþþþþþþþþþþþþþþþþþþþþþþþþþþþþþþþþþþþþþ»
0000FB6 50E0 D000/9008_      00000 13646              TBREAK   XPROC TWA
 USING  *,R7
 USING  TWA-(4+36),R8
 000FD0 186B                       13697                       LR    R6,CPR              Save CPR register
 000FD2 1BBB                       13698                       CLEAR CPR                 No CP addressibility (neatness)
                                   13702                       ¿þþþþþþþþþþþþþþþþþþþþþþþþþþþþþþþþþþþþþþþþþþþþþþþþþþþþþþþþþþþþþþþÜ
                                   13703                       Ÿ  We can not call "BUILDPDB" to make the standard PDB header   Ÿ
                                   13704                       Ÿ  because we don't have CP addressibility.  All we need to do  Ÿ
                                   13705                       Ÿ  is clear out the PDBHDR anyway.                              Ÿ
                                   13706                       ¾þþþþþþþþþþþþþþþþþþþþþþþþþþþþþþþþþþþþþþþþþþþþþþþþþþþþþþþþþþþþþþþ»
 000FD4 D737 8050 8050 00028 00028 13707                       CLEAR TWAHDR              Initialize PDB header
 000FDA 9250 8056      0002E       13714                       MVI   TWACMD,TMILBRK      Halt I/O
 000FDE 4000 8054            0002C 13715                       STH   R0,TWALIN#          Set session number
                                   13716
 000FE2 4110 8050            00028 13717                       LA    R1,TWAPDB
 000FE6 58E0 71B8/0DEE       01188 13718                       ACALL SENDPDB             Send PDB to MILTEN
                                   13722
 000FEC 18B6                       13723                       LR    CPR,R6              Restore CPR
                                   13724
 000FEE 1BFF                       13725                       CLEAR R15                 A-ok
 000FF0 18D8/9808 D004_            13729                       PEND
 DROP   TWA-(4+36),R8
 DROP   *,R7
                                   13754              .NOTMISC ANOP  ,                   *** PCODE
                                   13755              * NOTE: TPUSH,TPOP NOW ARE MACROS ONLY, ROUTINES AIF'D OUT.
                                   13756                       AIF   ('ALWAYS' EQ 'ALWAYS').NOTPUSH   *** PCODE LIKE
                                   13757              .NOTPUSH ANOP  ,                   *** PCODE LIKE
1TERM     (TERM2193) (12:56) (15MAR04) WYLBUR's Terminal Routines                                                           Page   35
0Current Usings:  (CP,R11) (CV,R12)
0Loc    Object Code    Addr1 Addr2  Stmt Lv Lineno    Source Statement           (Hibal 5, Asmedit 3.3)  HLASM R4.0  2004/03/15 12.56
+___    ______ ____    _____ _____  ____ __ ______    ______ _________
0                                  13759              ¿þþþþþþþþþþþþþþþþþþþþþþþþþþþþþþþþþþþþþþþþþþþþþþþþþþþþþþþþþþþþþþþþþþþþþÜ
                                   13760              Ÿ                                                                     Ÿ
                                   13761              Ÿ  TSTAT -- Routine to return terminal status information.            Ÿ
                                   13762              Ÿ                                                                     Ÿ
                                   13763              Ÿ    On exit, R15 (and cc):                                           Ÿ
                                   13764              Ÿ      0 - ok                                                         Ÿ
                                   13765              Ÿ     -4 - logging off                                                Ÿ
                                   13766              Ÿ      1 - break typed                                                Ÿ
                                   13767              Ÿ                                                                     Ÿ
                                                      ¾þþþþþþþþþþþþþþþþþþþþþþþþþþþþþþþþþþþþþþþþþþþþþþþþþþþþþþþþþþþþþþþþþþþþþ»
0000FFE 50E0 D000/9008_      00000 13768              TSTAT    XPROC
 USING  *,R7
 001018 5850 C1C8            001C8 13808                       L     JCBR,CVCURJCB       Our JCB
 USING  JCB,R5                     13809                       WITH  JCB,BEGIN
 00101C 1BFF                       13822  1                      CLEAR R15                 Assume ok
 00101E 9102 5062/47E0_00062       13826  1                      IF    JCBFATTN,'LA R15,1'  Break return code
 00102A 9180 5062/47E0_00062       13847  1                      IF    JCBAFALO,'LH R15,=H"-4"'  logging off
 DROP   JCB,R5                     13868                       END
 001036 18D8/9808 D004_            13876                       PEND
 DROP   *,R7
                                   13896                       AIF   (&$PCODE).NOTSUB    *** PCODE
1TERM     (TERM2193) (12:56) (15MAR04) WYLBUR's Terminal Routines                                                           Page   36
0Current Usings:  (CP,R11) (CV,R12)
0Loc    Object Code    Addr1 Addr2  Stmt Lv Lineno    Source Statement           (Hibal 5, Asmedit 3.3)  HLASM R4.0  2004/03/15 12.56
+___    ______ ____    _____ _____  ____ __ ______    ______ _________
0                                  13898              ¿þþþþþþþþþþþþþþþþþþþþþþþþþþþþþþþþþþþþþþþþþþþþþþþþþþþþþþþþþþþþþþþþþþþþþÜ
                                   13899              Ÿ                                                                     Ÿ
                                   13900              Ÿ  TSUBOFF -- Routine to force logoff of all other subsystems.        Ÿ
                                   13901              Ÿ                                                                     Ÿ
                                                      ¾þþþþþþþþþþþþþþþþþþþþþþþþþþþþþþþþþþþþþþþþþþþþþþþþþþþþþþþþþþþþþþþþþþþþþ»
0001044 50E0 D000/9008_      00000 13902              TSUBOFF  XPROC TWA
 USING  *,R7
 USING  TWA-(4+36),R8
                                   13953
 00105E                            13954                       LOOP  BEGIN
 00105E 4110 8050            00028 13960  1                      LA    R1,TWAPDB
 001062 58E0 70E6/0DEE       01144 13961  1                      ACALL BUILDPDB            Build PDB header
 001068 924A 8056      0002E       13965  1                      MVI   TWACMD,MILSOF       Subsys off code
                                   13966  1
 00106C 4110 8050            00028 13967  1                      LA    R1,TWAPDB
 001070 58E0 70FE/0DEE       0115C 13968  1                      ACALL TIO                 Send PDB
 001076 D507 70B2 8074_01110 0004C 13972  1                      UNTIL (TWASYSNM,EQ,'MILTEN  ')
 001080 47F0 7000            0105E 13993                       END
                                   13998                       ¿þþþþþþþþþþþþþþþþþþþþþþþþþþþþþþþþþþþþþþþþþþþþÜ
                                   13999                       Ÿ  Clear any saved ORVYL state information.  Ÿ
                                   14000                       ¾þþþþþþþþþþþþþþþþþþþþþþþþþþþþþþþþþþþþþþþþþþþþ»
 001084 D70F B140 B140 00140 00140 14001                       CLEAR CPORV
                                   14008
 00108A 41F0 B050/58E0_      00050 14009                       TCLEAR
 001094 18D8/9808 D004_            14023                       PEND  ,
 DROP   TWA-(4+36),R8
 DROP   *,R7
1TERM     (TERM2193) (12:56) (15MAR04) WYLBUR's Terminal Routines                                                           Page   37
0Current Usings:  (CP,R11) (CV,R12)
0Loc    Object Code    Addr1 Addr2  Stmt Lv Lineno    Source Statement           (Hibal 5, Asmedit 3.3)  HLASM R4.0  2004/03/15 12.56
+___    ______ ____    _____ _____  ____ __ ______    ______ _________
0                                  14049              ¿þþþþþþþþþþþþþþþþþþþþþþþþþþþþþþþþþþþþþþþþþþþþþþþþþþþþþþþþþþþþþþþþþþþþþÜ
                                   14050              Ÿ                                                                     Ÿ
                                   14051              Ÿ  TLOGOFF -- Routine to send end-of-session notification             Ÿ
                                   14052              Ÿ    to MILTEN.                                                       Ÿ
                                   14053              Ÿ                                                                     Ÿ
                                                      ¾þþþþþþþþþþþþþþþþþþþþþþþþþþþþþþþþþþþþþþþþþþþþþþþþþþþþþþþþþþþþþþþþþþþþþ»
00010A2 50E0 D000/9008_      00000 14054              TLOGOFF  XPROC TWA
 USING  *,R7
 USING  TWA-(4+36),R8
                                   14105
 0010BC 41F0 B050/58E0_      00050 14106                       TCLEAR
                                   14120
 0010C6 4110 8050            00028 14121                       LA    R1,TWAPDB
 0010CA 58E0 7088/0DEE       01144 14122                       ACALL BUILDPDB            Build PDB header
 0010D0 9240 8056      0002E       14126                       MVI   TWACMD,TMILEOS      End of session
 0010D4 9240 8057      0002F       14127                       MVI   TWACMDFL,EOSALL     Logoff terminal
                                   14128                       ¿þþþþþþþþþþþþþþþþþþþþþþþþþþþþþþþþþþþþþþþþþþþþþþþþþþþÜ
                                   14129                       Ÿ  Logoff and transfer control to a new subsystem.  Ÿ
                                   14130                       ¾þþþþþþþþþþþþþþþþþþþþþþþþþþþþþþþþþþþþþþþþþþþþþþþþþþþ»
 0010D8 D607 B164 B164_00164 00164 14131                       IF    (CPLGFSYS,NZ),BEGIN  Xctl to new subsys...
 0010E2 9220 8057      0002F       14147  1                      MVI   TWACMDFL,EOSXCTL
 0010E6 D207 8074 B164 0004C 00164 14148  1                      MVC   TWASYSNM,CPLGFSYS   New subsys name
 0010EC                            14149                       END
                                   14153
 0010EC 4110 8050            00028 14154                       LA    R1,TWAPDB
 0010F0 58E0 70A0/0DEE       0115C 14155                       ACALL TIO                 Send PDB
                                   14159
 0010F6 41F0 B050/58E0_      00050 14160                       TCLEAR
 001100 18D8/9808 D004_            14174                       PEND  ,
 DROP   TWA-(4+36),R8
 DROP   *,R7
                                   14199              .NOTSUB  ANOP  ,                   *** PCODE
                                   14200
                                   14201                       QLTORG
1TERM     (TERM2193) (12:56) (15MAR04) WYLBUR's Terminal Routines                                                           Page   38
0Current Usings:  (CP,R11) (CV,R12)
0Loc    Object Code    Addr1 Addr2  Stmt Lv Lineno    Source Statement           (Hibal 5, Asmedit 3.3)  HLASM R4.0  2004/03/15 12.56
+___    ______ ____    _____ _____  ____ __ ______    ______ _________
0000000                00000 00100 14253              TWSWA    RECORD BEGIN
                                   14261  1           TWSLINE    DS    CL(&PRESSZ)
 000000                                   1          +TWSLINE    DS    CL(256)
 000100                00100 00100 14262                       END
-                                  14272              ¿þþþþþþþþþþþþþþþþþþþþþþþþþþþþþþþþþþþþþþþþþþþþþþþþþþþþþþþþþþþþþþþþþþþþþÜ
                                   14273              Ÿ                                                                     Ÿ
                                   14274              Ÿ  TWSTOW -- Take contents of PDB and put in active file.             Ÿ
                                   14275              Ÿ                                                                     Ÿ
                                                      ¾þþþþþþþþþþþþþþþþþþþþþþþþþþþþþþþþþþþþþþþþþþþþþþþþþþþþþþþþþþþþþþþþþþþþþ»
0001232 50E0 D000/9008_      00000 14276              TWSTOW   PROC  TWSWA
 USING  *,R7
 USING  TWSWA-(4+36),R8
 00124C 947F BD55      00D55       14326                       CLEAR CPFDUMP             Turn off stow flag in here
                                   14333
 001250 9118 BD55/4780_00D55       14334                       IF    CPFCLEAR+CPFKEEP,'VCALL CLRTEXT'
                                   14361
 00125E 9640 BD53      00D53       14362                       SET   CPLFLG4.CPFSTINS    Stow flags
                                   14369
 001262 9180 BC68/47E0_00C68       14370                       IF    CPDMPLST.X'80',BEGIN  If no collect line then
 00126A 58E0 7458/0DEE       016A4 14386  1                      VCALL ENDLNO              Get END line-number
 001270 47B0 7034            01280 14390  1                      IF    NEG,BEGIN           No room...
 001274 5820 B070            00070 14401  2                        L     R2,CPSEGLOC
 001278 5830 B05C            0005C 14402  2                        L     R3,CPSEGLENF
 00127C 47F0 7138            01384 14403  2                        B     TWSHUGE             Go give err msg
 001280                            14404  1                      END
 001280 5000 BC68            00C68 14408  1                      ST    R0,CPDMPLST         Save collect lineno
 001284 D203 BC6C B738 00C6C 00738 14409  1                      MVC   CPDMPDLT,CPDELTA    ...and delta
 00128A 9220 BD54      00D54       14410  1                      MVI   CPLFLG5,CPFNLST     Set default nolist
 00128E D203 BC70 745C 00C70 016A8 14411  1                      MVC   CPDMPMAX,=F'100000000'  Set max line
 001294                            14412                       END
 001294 4110 BC68            00C68 14416                       LA    R1,CPDMPLST         Point at line number
 001298 58E0 7460/0DEE       016AC 14417                       VCALL LOCATE              Go find it
 00129E 9108 BD84/4710_00D84       14421                       IF    CPDRPT.CPFMTCH,TWSTYPE
 0012A6 91C0 BD84/4780_00D84       14440                       IF    (CPDRPT.CPFNTYT+CPFHIGH,NZ),BEGIN
 0012AE D203 BC70 745C 00C70 016A8 14461  1                      MVC   CPDMPMAX,=F'100000000'
 0012B4 706C/47F0 7072 012B4 012AC 14462                       END   ELSE,BEGIN
 0012B8 D203 BC70 B73C 00C70 0073C 14477  1                      MVC   CPDMPMAX,CPLCNO     Use hi line as stopper
 0012BE                            14478                       END
 0012BE 5820 B070            00070 14482                       L     R2,CPSEGLOC         Point at the line(s)
 0012C2 5830 B05C/1233_      0005C 14483                       IF    ('LT R3,CPSEGLENF',NP),BEGIN
 0012CC 9240 2000      00000       14499  1                      MVI   @R2,C' '            Set a blank
 0012D0 4130 0001            00001 14500  1                      LA    R3,1                Set length
 0012D4                            14501                       END
 0012D4 1233/47D0 712A             14505                       WHILE (R3,P),BEGIN        Do all text
 0012DA 1842                       14521  1                      LR    R4,R2               Save start pointer
 0012DC 9515 2000/4780_00000       14522  1                      WHILE ((@R2,NE,X'15'),AND,(R3,P)),'LA R2,@R2+1; DECR R3'
 0012F4 1852                       14562  1                      LR    R5,R2               Get end point for count
 0012F6 1B54/47D0 70C2             14563  1                      IF    ('SR R5,R4',P),BEGIN  get length
 0012FC 5950 7464/47D0_      016B0 14576  2                        CEIL  R5,&LINESZ          Not too much
 001308 0650/4450 75D4_            14595  2                        DEX   R5,'MVC TWSLINE(0),@R4'  move in text
 00130E 70C6/47F0 70CC 0130E 012FA 14614  1                      END   ELSE,BEGIN          Create a blank line
1TERM     (TERM2193) (12:56) (15MAR04) WYLBUR's Terminal Routines                                                           Page   39
0Current Usings:  (*,R7) (TWSWA-(4+36),R8) (CP,R11) (CV,R12)
0Loc    Object Code    Addr1 Addr2  Stmt Lv Lineno    Source Statement           (Hibal 5, Asmedit 3.3)  HLASM R4.0  2004/03/15 12.56
+___    ______ ____    _____ _____  ____ __ ______    ______ _________
0001312 9240 8028      00000       14629  2                        MVI   TWSLINE,C' '        Insert a blank
 001316 1B55                       14630  2                        CLEAR R5                  Make it a one
 001318                            14634  1                      END
 001318 4100 5001            00001 14638  1                      LA    R0,@R5+1            Bump back to original
 00131C 4110 8028            00000 14639  1                      LA    R1,TWSLINE          Point at unpress text
 001320 58F0 BC68            00C68 14640  1                      L     R15,CPDMPLST        Get the line number
 001324 58E0 7468/0DEE       016B4 14641  1                      VCALL PRESS               Press the line
 00132A 58E0 746C/0DEE       016B8 14645  1                      VCALL STOW                Go put in file
 001330 4770 71D8            01424 14649  1                      BNZ   TWSATTN             Br if no success
 001334 9680 BD58      00D58       14650  1                      SET   CPLSTOWD            (flag for last line msg)
 001338 9801 BC68            00C68 14656  1                      LM    R0,R1,CPDMPLST      Get pointers
 00133C 5000 B5A8            005A8 14657  1                      ST    R0,CPACLNO          Update current line ptr
 001340 58E0 7470/0DEE       016BC 14658  1                      VCALL ADDER               Go get next line number
 001346 5000 BC68            00C68 14662  1                      ST    R0,CPDMPLST         Save it
 00134A 9515 2000/4770_00000       14663  1                      IF    (@R2,EQ,X'15'),'LA R2,@R2+1; DECR R3'
 001358 1200/47B0 7118_            14687  1                      IF    ((R0,M),AND,(R3,P)),TWSHUGE  br if no fit
 001364 5900 BC70/4750_      00C70 14717  1                      IF    ((R0,GE,CPDMPMAX),AND,(R3,P)),TWSLOST
 001372 47F0 7088            012D4 14750                       END
 001376 9680 BD55      00D55       14755                       SET   CPFDUMP             Restore stow flag
 00137A 94DF BD54      00D54       14761                       CLEAR CPLFLG5.CPFNLST     Restore stow flags
 00137E 1BFF                       14769                       CLEAR R15                 Clear flag
 001380 47F0 71E4            01430 14773                       EXIT  TWSTOW
                                   14776
 001384 41F0 B050/58E0_      00050 14777              TWSHUGE  TCLEAR
 00138E 1812/1803/41F0_            14791                       TSEG  (R2),(R3),CR
 00139C 4110 74E4/4100_      01730 14817                       TSEG  'Above lost -- line &MAXLNO exceeded.',,WR
 0013AE 47F0 71D8            01424 14835                       B     TWSATTN
                                   14836
 0013B2 41F0 B050/58E0_      00050 14837              TWSLOST  TCLEAR
 0013BC 1812/1803/41F0_            14851                       TSEG  (R2),(R3),CR
 0013CA 4110 7574/4100_      017C0 14877                       TSEG  'Above lost -- no replace or interleave.',,WR
 0013DC 47F0 71D8            01424 14895                       B     TWSATTN
                                   14896
 0013E0 1B00/41F0 B050_            14897              TWSTYPE  TWRITE
 0013EC 4110 750A/4100_      01756 14923                       TSEG  'Above lost -- line',,B
 0013FE 5800 BC68            00C68 14941                       L     R0,CPDMPLST
 001402 58E0 7484/0DEE       016D0 14942                       VCALL CVEXNO
 001408 41F0 B050/58E0_      00050 14946                       TSEG  (R1),(R0)
 001412 4110 759B/4100_      017E7 14970                       TSEG  ' already in file.',,WR
 001424 41F0 0004            00004 14988              TWSATTN  LA    R15,4               Set attn return
 001428 5850 C1C8/9602_      001C8 14989                       WITH  JCB,'L JCBR,CVCURJCB; SET JCBFATTN'
 USING  JCB,R5
 DROP   JCB,R5
                                   15018              *
                                   15019              *
 001430 18D8/9808 D004_            15020                       PEND
 DROP   TWSWA-(4+36),R8
 DROP   *,R7
1TERM     (TERM2193) (12:56) (15MAR04) WYLBUR's Terminal Routines                                                           Page   40
0Current Usings:  (CP,R11) (CV,R12)
0Loc    Object Code    Addr1 Addr2  Stmt Lv Lineno    Source Statement           (Hibal 5, Asmedit 3.3)  HLASM R4.0  2004/03/15 12.56
+___    ______ ____    _____ _____  ____ __ ______    ______ _________
0                                  15046              ¿þþþþþþþþþþþþþþþþþþþþþþþþþþþþþþþþþþþþþþþþþþþþþþþþþþþþþþþþþþþþþþþþþþþþþÜ
                                   15047              Ÿ                                                                     Ÿ
                                   15048              Ÿ        TXDUMP -                                                     Ÿ
                                   15049              Ÿ                                                                     Ÿ
                                   15050              Ÿ  EXEC DUMP MODE ON, WRITE STUFF IN TSEG BUFFER TO ACTIVE            Ÿ
                                   15051              Ÿ  FILE INSTEAD OF TO THE TERMINAL.                                   Ÿ
                                   15052              Ÿ                                                                     Ÿ
                                   15053              Ÿ  NOTE: TO CHECK FOR REPLACE OR INTERLEAVING OF LINES,, WE           Ÿ
                                   15054              Ÿ  GET THE NEXT LINE IN THE RANGE AFTER THE LAST LINE WRITTEN.        Ÿ
                                   15055              Ÿ  IF THE NEXT LINE TO WRITE WILL NOT FIT IN BEFOR THE NEXT           Ÿ
                                   15056              Ÿ  WRITTEN LINE, WE HAVE THE INTERL  VE/REPLACE ERROR.                Ÿ
                                   15057              Ÿ                                                                     Ÿ
                                   15058              Ÿ  NOTE2: WE MUST ALSO SAVE SOME STUFF (CPLCNO) WHEN CALLING          Ÿ
                                   15059              Ÿ  GTFRSTLN ROUTINE,,, THIS IS BECAUSE DUMP MAY OCCUR IN THE          Ÿ
                                   15060              Ÿ  MIDDLE OF OTHER COMMANDS THAT ARE MANIPULATING THE ACTIVE          Ÿ
                                   15061              Ÿ  FILE.  TO THE BEST OF MY KNOWLEDGE, PUT AND GET CAN BE             Ÿ
                                   15062              Ÿ  CALLED (INTERLEAVED) IN ANY ORDER WITHOUT ANY SIDE AFFECTS         Ÿ
                                   15063              Ÿ  THIS IS NOT TRUE OF SOME OF THE CP FLAGS, CP WORDS SET UP          Ÿ
                                   15064              Ÿ  BY GETLINE CALLS.                                                  Ÿ
                                   15065              Ÿ                                                                     Ÿ
                                                      ¾þþþþþþþþþþþþþþþþþþþþþþþþþþþþþþþþþþþþþþþþþþþþþþþþþþþþþþþþþþþþþþþþþþþþþ»
0000000                00000 00008 15066              TXDWA    RECORD BEGIN
 000000                            15074  1           TXDMAX     DS    F
 000004                            15075  1           TXDLCNO    DS    F
 000008                00008 00008 15076                       END
                                   15085              *
                                   15086              *        TXDUMP -
                                   15087              *
                                   15088              *
 00143E 50E0 D000/9008_      00000 15089              TXDUMP   PROC  TXDWA
 USING  *,R7
 USING  TXDWA-(4+36),R8
                                   15139              *
                                   15140              * Turn off CPFXDUMP (there's a similar reset done in TWSTOW)
                                   15141              * in case of an 'out of pages' (either for the user or WYLBUR
                                   15142              * as a whole) occurs. This would send WYLBUR into a loop, writing
                                   15143              * messages destined for the terminal which we would try storing in
                                   15144              * the ACTIVE file which would result in messages being issued...
                                   15145              *
                                   15146              * This isn't really the best way to fix all this. The command
                                   15147              * processing (and all commands) need to be reworked to direct their
                                   15148              * output to a SEG buffer which by default is the terminal but could
                                   15149              * be redirected (by DUMP, for example or the COLLECT options).
                                   15150              *
 001458 947F B7E4      007E4       15151                       CLEAR CPFXDUMP
                                   15158                       COMMENT                   CHECK XDUMP INFO
 00145C D503 7238 B7F0_01690 007F0 15159                       IF    ((CPXDPACT,EQ,0),OR,(CPXDPDLT,EQ,0)),TXDNOINF
                                   15197
                                   15198                       COMMENT                   GET NEXT LINE IN RANGE
 001470 5800 B7E8            007E8 15199                       L     R0,CPXDPLN
 001474 1200/4740 7050             15200                       IF    (R0,NL),BEGIN       IF THERE IS A DUMPED LAST LINE
 00147A 5900 C15C/4720_      0015C 15214  1                      IF    (R0,GT,CVMAXLNO),TXDHUGE
 001482 5810 B7F0            007F0 15234  1                      L     R1,CPXDPACT
1TERM     (TERM2193) (12:56) (15MAR04) WYLBUR's Terminal Routines                                                           Page   41
0Current Usings:  (*,R7) (TXDWA-(4+36),R8) (CP,R11) (CV,R12)
0Loc    Object Code    Addr1 Addr2  Stmt Lv Lineno    Source Statement           (Hibal 5, Asmedit 3.3)  HLASM R4.0  2004/03/15 12.56
+___    ______ ____    _____ _____  ____ __ ______    ______ _________
0001486 D203 802C B73C 00004 0073C 15235  1                      MVC   TXDLCNO,CPLCNO        ...  (DON'T CLOBBER CPLCNO)
 00148C 58E0 7280/0DEE       016D8 15236  1                      VCALL GTNEXTLN            FIND NEXT LINE IN RANGE, IF ANY
 001492 D203 B73C 802C 0073C 00004 15240  1                      MVC   CPLCNO,TXDLCNO
 001498 5000 8028            00000 15241  1                      ST    R0,TXDMAX           SAVE NEXT LINE IN RANGE
 00149C 12FF/4780 7050             15242  1                      IF    (R15,NZ),BEGIN
 0014A2 D203 8028 C160 00000 00160 15256  2                        MVC   TXDMAX,CVHILNO
 0014A8                            15257  1                      END
 0014A8                            15261                       END
                                   15265
                                   15266                       COMMENT                   IF NO DUMPED LINES, GET 1ST LINE
                                   15267                       COMMENT                   IN RANGE
 0014A8 7054/47F0 708C 014A8 01478 15268                       ELSE  BEGIN
 0014AC 5800 B7EC            007EC 15279  1                      L     R0,CPXDPNLN
 0014B0 1200/4740 713E_            15280  1                      IF    ((R0,NEG),OR,(R0,GT,CVMAXLNO)),TXDHUGE
 0014BE 5810 B7F0            007F0 15313  1                      L     R1,CPXDPACT
 0014C2 D203 802C B73C 00004 0073C 15314  1                      MVC   TXDLCNO,CPLCNO        ...  (DON'T CLOBBER CPLCNO)
 0014C8 58E0 7284/0DEE       016DC 15315  1                      VCALL GTFRSTLN            FIND NEXT LINE IN RANGE, IF ANY
 0014CE D203 B73C 802C 0073C 00004 15319  1                      MVC   CPLCNO,TXDLCNO
 0014D4 5000 8028            00000 15320  1                      ST    R0,TXDMAX           SAVE NEXT LINE IN RANGE
 0014D8 12FF/4780 708C             15321  1                      IF    (R15,NZ),BEGIN
 0014DE D203 8028 C160 00000 00160 15335  2                        MVC   TXDMAX,CVHILNO
 0014E4                            15336  1                      END
 0014E4                            15340                       END
                                   15344
                                   15345                       COMMENT                   CHECK TO BE SURE NEXT DUMP LINE
                                   15346                       COMMENT                   FITS
 0014E4 5820 B7EC            007EC 15347                       L     R2,CPXDPNLN
 0014E8 1222/4740 713E_            15348                       IF    ((R2,NEG),OR,(R2,GT,CVMAXLNO)),TXDHUGE
 0014F6 5920 8028/47A0_      00000 15381                       IF    (R2,GE,TXDMAX),TXDNOREP
                                   15401
                                   15402                       COMMENT                   DUMP ALL LINES IN BUFFER
 0014FE 5840 B070            00070 15403                       L     R4,CPSEGLOC         R4 - INDEX INTO BUFFER
 001502 5850 B05C            0005C 15404                       L     R5,CPSEGLENF        R5 - LENGTH LEFT IN BUFFER
 001506 1255/4720 70BC             15405                       IF    (R5,NP),BEGIN
 00150C 4140 7288            016E0 15419  1                      LA    R4,=C'    '
 001510 4150 0001            00001 15420  1                      LA    R5,1
 001514                            15421                       END
 001514 1255/47D0 7134             15425                       WHILE (R5,P),BEGIN        LOOP
 00151A 1814                       15441  1                      LR    R1,R4               GET LINE LOC,LEN IN R1,R0
 00151C 9515 4000/4780_00000       15442  1                      WHILE ((@R4,NE,X'15'),AND,(R5,P)),BEGIN
 00152A 5E40 728C            016E4 15473  2                        INCR  R4
 00152E 0650                       15476  2                        DECR  R5
 001530 47F0 70C4            0151C 15478  1                      END
 001534 1804                       15483  1                      LR    R0,R4
 001536 1B01                       15484  1                      SR    R0,R1               R1,R0 - LINE LOC, LEN
 001538 5820 B7EC            007EC 15485  1                      L     R2,CPXDPNLN         CHECK LINE NUMBER
 00153C 1222/4740 713E_            15486  1                      IF    ((R2,NEG),OR,(R2,GT,CVMAXLNO)),TXDHUGE
 00154A 5920 8028/47A0_      00000 15519  1                      IF    (R2,GE,TXDMAX),TXDNOREP
 001552 4120 B7EC            007EC 15539  1                      LA    R2,CPXDPNLN
 001556 5830 B7F0            007F0 15540  1                      L     R3,CPXDPACT
 00155A 58E0 7290/0DEE       016E8 15541  1                      VCALL INSLINE             INSERT LINE
 001560 4770 71C4            0161C 15545  1                      BNZ   TXDBOMB
                                   15546  1           *        VCALL ADDER               POOR MANS LINE INCR BELOW
 001564 5820 B7EC            007EC 15547  1                      L     R2,CPXDPNLN
1TERM     (TERM2193) (12:56) (15MAR04) WYLBUR's Terminal Routines                                                           Page   42
0Current Usings:  (*,R7) (TXDWA-(4+36),R8) (CP,R11) (CV,R12)
0Loc    Object Code    Addr1 Addr2  Stmt Lv Lineno    Source Statement           (Hibal 5, Asmedit 3.3)  HLASM R4.0  2004/03/15 12.56
+___    ______ ____    _____ _____  ____ __ ______    ______ _________
0001568 5020 B7E8            007E8 15548  1                      ST    R2,CPXDPLN          SAVE LAST LINE DUMPED AND
 00156C 5A20 B7F4            007F4 15549  1                      A     R2,CPXDPDLT         INCREMENT NEXT LINE TO DUMP
 001570 5020 B7EC            007EC 15550  1                      ST    R2,CPXDPNLN
 001574 9515 4000/4770_00000       15551  1                      IF    ((@R4,EQ,X'15'),AND,(R5,P)),BEGIN  SKIP <CR>
 001582 5E40 728C            016E4 15580  2                        INCR  R4
 001586 0650                       15583  2                        DECR  R5
 001588                            15585  1                      END
 001588 47F0 70BC            01514 15589                       END
                                   15594
 00158C 9680 B7E4      007E4       15595                       SET   CPFXDUMP            Safe to turn it back on now
 001590 1BFF                       15601                       CLEAR R15
 001592 47F0 71E4            0163C 15605                       EXIT  TXDUMP
                                   15608
 001596 947F B7E4      007E4       15609              TXDHUGE  CLEAR CPFXDUMP
 00159A 41F0 B050/58E0_      00050 15617                       TCLEAR
                                   15631            C          ERROR 'Unable to dump text; line &MAXLNO exceeded. ',,
 0015A4 D207 B886 7240_00886 01698                                   BADXDUMP
                                   15639
 0015B6 947F B7E4      007E4       15640              TXDNOREP CLEAR CPFXDUMP
 0015BA 41F0 B050/58E0_      00050 15648                       TCLEAR
 0015C4 4110 7294/4100_      016EC 15662                       TSEG  'Unable to dump text at line '
 0015D6 5800 B7EC            007EC 15680                       L     R0,CPXDPNLN
 0015DA 58E0 7278/0DEE       016D0 15681                       VCALL CVEXNO
 0015E0 41F0 B050/58E0_      00050 15685                       TSEG  (R1),(R0)
 0015EA D207 B886 7240_00886 01698 15709                       ERROR '; can''t replace or interleave lines.',,BADXDUMP
                                   15717
 0015FC 947F B7E4      007E4       15718              TXDNOINF CLEAR CPFXDUMP
 001600 41F0 B050/58E0_      00050 15726                       TCLEAR
 00160A D207 B886 7240_00886 01698 15740                       ERROR 'Unable to dump text; invalid dump info.',,BADXDUMP
                                   15748
 00161C 947F B7E4      007E4       15749              TXDBOMB  CLEAR CPFXDUMP
 001620 41F0 B050/58E0_      00050 15757                       TCLEAR
 00162A D207 B886 7240_00886 01698 15771                       ERROR 'Unable to dump text; invalid dump options.',,BADXDUMP
                                   15779
 00163C 18D8/9808 D004_            15780                       PEND
 DROP   TXDWA-(4+36),R8
 DROP   *,R7
1TERM     (TERM2193) (12:56) (15MAR04) WYLBUR's Terminal Routines                                                           Page   43
0Current Usings:  (CP,R11) (CV,R12)
0Loc    Object Code    Addr1 Addr2  Stmt Lv Lineno    Source Statement           (Hibal 5, Asmedit 3.3)  HLASM R4.0  2004/03/15 12.56
+___    ______ ____    _____ _____  ____ __ ______    ______ _________
0                                  15806              ¿þþþþþþþþþþþþþþþþþþþþþþþþþþþþþþþþþþþþþþþþþþþþþþþþþþþþþþþþþþþþþþþþþþþþþÜ
                                   15807              Ÿ                                                                     Ÿ
                                   15808              Ÿ        INITXDMP -- INIT EXEC DUMP INFO TO ZERO                      Ÿ
                                   15809              Ÿ                                                                     Ÿ
                                   15810              Ÿ                                                                     Ÿ
                                                      ¾þþþþþþþþþþþþþþþþþþþþþþþþþþþþþþþþþþþþþþþþþþþþþþþþþþþþþþþþþþþþþþþþþþþþþ»
000164A 50E0 D000/9008_      00000 15811              INITXDMP XPROC
 USING  *,R7
 001664 947F B7E4      007E4       15851                       CLEAR CPFXDUMP
 001668 D203 B7E8 70C8 007E8 0172C 15858                       MVC   CPXDPLN,=F'-1000'   -1.000
 00166E D703 B7EC B7EC 007EC 007EC 15859                       CLEAR CPXDPNLN
 001674 D703 B7F0 B7F0 007F0 007F0 15866                       CLEAR CPXDPACT
 00167A D703 B7F4 B7F4 007F4 007F4 15873                       CLEAR CPXDPDLT
 001680 18D8/9808 D004_            15880                       PEND
 DROP   *,R7
                                   15900                       QLTORG
1TERM     (TERM2193) (12:56) (15MAR04) WYLBUR's Terminal Routines                                                           Page   44
0Current Usings:  (CP,R11) (CV,R12)
0Loc    Object Code    Addr1 Addr2  Stmt Lv Lineno    Source Statement           (Hibal 5, Asmedit 3.3)  HLASM R4.0  2004/03/15 12.56
+___    ______ ____    _____ _____  ____ __ ______    ______ _________
0                                  15944              ¿þþþþþþþþþþþþþþþþþþþþþþþþþþþþþþþþþþþþþþþþþþþþþþþþþþþþþþþþþþþþþþþþþþþþþÜ
                                   15945              Ÿ                                                                     Ÿ
                                   15946              Ÿ  BUILDPDB -- Local routine to build a PDB header from the           Ÿ
                                   15947              Ÿ    information in the SEG buffer.                                   Ÿ
                                   15948              Ÿ                                                                     Ÿ
                                   15949              Ÿ    On entry:                                                        Ÿ
                                   15950              Ÿ      R1 - PDB header area (to be filled in)                         Ÿ
                                   15951              Ÿ                                                                     Ÿ
                                   15952              Ÿ    On exit:                                                         Ÿ
                                   15953              Ÿ      R1 - PDB header area filled in                                 Ÿ
                                   15954              Ÿ                                                                     Ÿ
                                                      ¾þþþþþþþþþþþþþþþþþþþþþþþþþþþþþþþþþþþþþþþþþþþþþþþþþþþþþþþþþþþþþþþþþþþþþ»
0001826 50E0 D000/9008_      00000 15955              BUILDPDB PROC  TRACE=NO
 USING  *,R7
 001836 1861                       15993                       LR    R6,R1
 USING  PDB,R6                     15994                       USING PDB,R6
 001838 D737 6000 6000 00000 00000 16003                       CLEAR PDBHDR
 00183E 5850 C1C8            001C8 16010                       L     R5,CVCURJCB
 USING  JCB,R5                     16011                       USING JCB,R5
 001842 D201 6004 5048 00004 00048 16020                       MVC   PDBLIN#,JCBSEQ      Set line number
                                   16021
 001848 D201 6030 B056 00030 00056 16022                       MVC   PDBINCT,CPSEGMAXF+2  Set maximum response length
 00184E D603 B070 B070_00070 00070 16023                       IF    ((CPSEGLOC,Z),OR,(CPSEGLOC,EQ,CPSEGBP)),BEGIN
 001862 D201 6030 72FE 00030 01B34 16056  1                      MVC   PDBINCT,=AL2(CPSEGMX#) Set maximum response length
 001868                            16057                       END
                                   16061
 001868 58F0 B05C            0005C 16062                       L     R15,CPSEGLENF
 00186C 40F0 6032            00032 16063                       STH   R15,PDBWC           Write data count
 001870 41F0 F006            00006 16064                       LA    R15,@R15+6
 001874 40F0 602E            0002E 16065                       STH   R15,PDBOUTCT        Set data count
                                   16066
 001878 9104 BC7B/4710_00C7B       16067                       IF    ~CPFNOUTTRIM,BEGIN  Trim trailing blanks...
 001880 9180 BC7A/4710_00C7A       16082  1                      IF    CPFNONL,EXIT        Always skip if NONL
 001888 9601 600A      0000A       16100  1                      SET   PDBMODC.MODCSTOB    Suppress trailing blanks
 00188C                            16107                       END
                                   16111
 00188C 9110 BC7B/47E0_00C7B       16112                       IF    CPFDISP,BEGIN       Display mode...
 001894 9660 600A      0000A       16127  1                      SET   PDBMODC.MODCDSPL+MODCSTIB
 001898 9608 6009      00009       16137  1                      SET   PDBMODB.MODBSLOL
 00189C 9680 600B      0000B       16144  1                      SET   PDBMODD.MODDNPAU
 0018A0                            16151                       END
                                   16155
 0018A0 9180 5062/47E0_00062       16156                       IF    JCBAFALO,'SET PDBMODD.MODDNPAU'   Don't pause
 0018AC 9140 BC7B/47E0_00C7B       16183                       IF    CPFNECHO,'SET PDBMODC.MODCNECH'   Noecho
 0018B8 9180 BC7C/47E0_00C7C       16210                       IF    CPFTRAN,'SET PDBMODD.MODDTRAN+MODDNMOD'  Transparent
 0018C4 9120 BC7C/47E0_00C7C       16240                       IF    CPFRUND,'SET PDBMODD.MODDRUND'    Count rundown I/O
 0018D0 9102 BC7C/47E0_00C7C       16267                       IF    CPFBUFIO,'SET PDBMODA.MODABUF'    Buffered I/O
 0018DC 9110 BC7C/47E0_00C7C       16294                       IF    CPFNMOD,'SET PDBMODD.MODDNMOD'    Nomodel
 0018E8 9140 BC7C/47E0_00C7C       16321                       IF    CPFNTYPE,'SET PDBMODD.MODDNTYP'   Notypeahead
 0018F4 9108 BC7C/47E0_00C7C       16348                       IF    CPFUFMT,'SET PDBMODB.MODBUFMT'    Unformatted
 001900 9104 BC7C/47E0_00C7C       16375                       IF    CPFFORCE,'SET PDBMODB.MODBFOR'    Force
 00190C 9120 BC7B/47E0_00C7B       16402                       IF    CPFSLOW,'SET PDBMODB.MODBSLOL'    Slow list
 001918 9180 BC7D/47E0_00C7D       16429                       IF    CPFNPAU,'SET PDBMODD.MODDNPAU'    Don't pause
1TERM     (TERM2193) (12:56) (15MAR04) WYLBUR's Terminal Routines                                                           Page   45
0Current Usings:  (JCB,R5) (PDB,R6) (*,R7) (CP,R11) (CV,R12)
0Loc    Object Code    Addr1 Addr2  Stmt Lv Lineno    Source Statement           (Hibal 5, Asmedit 3.3)  HLASM R4.0  2004/03/15 12.56
+___    ______ ____    _____ _____  ____ __ ______    ______ _________
0001924 9140 BC7D/47E0_00C7D       16456                       IF    CPFNPT,'SET PDBMODD.MODDNPT'      Don't allow P/P text
 001930 9180 BC7B/47E0_00C7B       16483                       IF    CPFCLEAN,'SET PDBMODA.MODACL'     Set clean
 00193C 9110 BC7D/47E0_00C7D       16510                       IF    CPFNSTAR,'SET PDBMODB.MODBNNLA'   No stars on read
 001948 9102 BC7D/47E0_00C7D       16537                       IF    CPFDATTN,'SET PDBMODA.MODADRAT'   Disallow read attns
 001954 9104 BC7D/47E0_00C7D       16564                       IF    CPFNLF,'SET PDBMODB.MODBNLF'      No LF on read CR
 001960 9108 BC7B/47E0_00C7B       16591                       IF    CPFNOCURS,'SET PDBMODC.MODCNCRS'  No move inp cursor
 00196C 9120 BD57/47E0_00D57       16618                       IF    CPFCASE,BEGIN
 001974 9110 BD57/47E0_00D57       16633  1                      IF    CPFUPPER,'SET PDBMODB.MODBUPPR'
 001980 714E/47F0 7152_01980 0197A 16660  1                      ELSE  'SET PDBMODB.MODBUPLO'
 001988                            16683                       END
                                   16687
 001988 4110 6000            00000 16688                       LA    R1,PDB
 00198C 18D8/9808 D004_            16689                       PEND
 DROP   *,R7
 DROP   JCB,R5                     16709                       DROP  JCB,PDB
 DROP   PDB,R6
                                   16724                       AIF   (&$PCODE).NOMISC2   *** PCODE
1TERM     (TERM2193) (12:56) (15MAR04) WYLBUR's Terminal Routines                                                           Page   46
0Current Usings:  (CP,R11) (CV,R12)
0Loc    Object Code    Addr1 Addr2  Stmt Lv Lineno    Source Statement           (Hibal 5, Asmedit 3.3)  HLASM R4.0  2004/03/15 12.56
+___    ______ ____    _____ _____  ____ __ ______    ______ _________
0                                  16726              ¿þþþþþþþþþþþþþþþþþþþþþþþþþþþþþþþþþþþþþþþþþþþþþþþþþþþþþþþþþþþþþþþþþþþþþÜ
                                   16727              Ÿ                                                                     Ÿ
                                   16728              Ÿ  TIO -- Routine to send a PDB to MILTEN and (if it's a              Ÿ
                                   16729              Ÿ    synchronous PDB) wait for the completion.                        Ÿ
                                   16730              Ÿ                                                                     Ÿ
                                   16731              Ÿ    On entry:                                                        Ÿ
                                   16732              Ÿ      R1 - PDB header ptr                                            Ÿ
                                   16733              Ÿ      CPSEG - contains PDBTEXT data (if any)                         Ÿ
                                   16734              Ÿ                                                                     Ÿ
                                   16735              Ÿ                                                                     Ÿ
                                                      ¾þþþþþþþþþþþþþþþþþþþþþþþþþþþþþþþþþþþþþþþþþþþþþþþþþþþþþþþþþþþþþþþþþþþþþ»
000199A 50E0 D000/9008_      00000 16736              TIO      PROC  TRACE=NO
 USING  *,R7
 0019AA 1861                       16774                       LR    R6,R1
 USING  PDB,R6                     16775                       USING PDB,R6
 0019AC 5850 C1C8            001C8 16784                       L     JCBR,CVCURJCB       Get current JCB
 USING  JCB,R5                     16785                       USING JCB
                                   16794
 0019B0 4110 6000            00000 16795                       LA    R1,PDB
 0019B4 58E0 715E/0DEE       01B08 16796                       ACALL SENDPDB             Go do the terminal I/O
                                   16800
 0019BA 9540 6006/4780_00006       16801                       IF    (PDBCMD,NE,TMILEOS),BEGIN  Not end of session...
 0019C2 9640 5060/41E0_00060       16819  1                      PAUSE JCBWFT              Wait for terminal
 0019D4 5840 5058            00058 16832  1                      L     R4,JCBPDBXL         Save xact ptr (for free later)
                                   16833  1
 0019D8 4110 6004/4100_      00004 16834  1                      SETMSG PDBHDR+4,L'PDBHDR-4
 0019E0 58E0 7166/0DEE       01B10 16850  1                      ACALL MOVEX               Move in PDBHDR
                                   16854  1
 0019E6 5800 505C            0005C 16855  1                      L     R0,JCBPDBXL+4
                                   16856  1                      ¿þþþþþþþþþþþþþþþþþþþþþþþþþþþþþþþþþþþþþþþþþþþþþþþþþþþþþþþþþþþþþþþÜ
                                   16857  1                      Ÿ  If the response is being moved into the default seg buffer,  Ÿ
                                   16858  1                      Ÿ    then it can be expanded if necessary.                      Ÿ
                                   16859  1                      ¾þþþþþþþþþþþþþþþþþþþþþþþþþþþþþþþþþþþþþþþþþþþþþþþþþþþþþþþþþþþþþþþ»
 0019EA D503 B048 B070_00048 00070 16860  1                      IF    (CPSEGBP,EQ,CPSEGLOC),BEGIN  Default buffer...
 0019F4 4900 B04C/47D0_      0004C 16878  2                        IF    (R0,GT,CPSEGBSZ),'ACALL TSEGBUF'  Expand seg buffer
 001A02 4900 B04C/47D0_      0004C 16904  2                        CEIL  R0,CPSEGBSZ         Not too much
 001A0E                            16910  1                      END
                                   16914  1
 001A0E 7068/47F0 7074_01A0E 019F2 16915  1                      ELSE  'CEIL R0,CPSEGMAXF'  Not too much
                                   16937  1
 001A1E 5000 B05C            0005C 16938  1                      ST    R0,CPSEGLENF        Save accurate length
 001A22 5810 B070            00070 16939  1                      SETMSG L:CPSEGLOC,(R0)     Put data here
 001A26 58E0 7166/0DEE       01B10 16950  1                      ACALL MOVEX               Move data into SEG buffer
                                   16954  1
 001A2C 1814                       16955  1                      LR    R1,R4               Xact ptr
 001A2E 58E0 716E/0DEE       01B18 16956  1                      ACALL FREELOC             Go free up
 001A34 4780 70A6/900F_      01A50 16960  1                      FAIL  NZ,MIL2,'MILTEN/WYLBUR interface error.'
                                   16983  1
 001A50 9180 600C/47E0_0000C       16984  1                      IF    PDBCPLA.CPLAATTN,BEGIN  Set ATTN flag...
 001A58 9140 5062/47E0_00062       17000  2                        IF    JCBFNATN,'SET JCBFPATN'
 001A64 70BE/47F0 70C2_01A64 01A5E 17026  2                        ELSE  'SET JCBFATTN'
 001A6C                            17048  1                      END
                                   17052  1
1TERM     (TERM2193) (12:56) (15MAR04) WYLBUR's Terminal Routines                                                           Page   47
0Current Usings:  (JCB,R5) (PDB,R6) (*,R7) (CP,R11) (CV,R12)
0Loc    Object Code    Addr1 Addr2  Stmt Lv Lineno    Source Statement           (Hibal 5, Asmedit 3.3)  HLASM R4.0  2004/03/15 12.56
+___    ______ ____    _____ _____  ____ __ ______    ______ _________
0001A6C 9180 600D/47E0_0000D       17053  1                      IF    PDBCPLB.CPLBLGF,'SET JCBAFALO'  Logoff
                                   17080  1
 001A78 D501 B3C4 602C_003C4 0002C 17081  1                      IF    (CPSUC,NE,PDBSUC),BEGIN
 001A82 9640 5063      00063       17099  2                        SET   JCBBFSIB            SIB has changed (COMM will update)
 001A86                            17105  1                      END
                                   17109  1
 001A86 D20F B39C 6014 0039C 00014 17110  1                      MVC   CPSVINFO,PDBVINFO   Keep ORVYL charging info current
                                   17111  1
 001A8C D203 B8CC B338 008CC 00338 17112  1                      MVC   CPTIOCLK,CPCLCK     Save time of last terminal I/O
 001A92                            17113                       END
                                   17117
 001A92 18D8/9808 D004_            17118                       PEND  ,
 DROP   *,R7
 DROP   JCB,R5                     17138                       DROP  JCB,PDB
 DROP   PDB,R6
1TERM     (TERM2193) (12:56) (15MAR04) WYLBUR's Terminal Routines                                                           Page   48
0Current Usings:  (CP,R11) (CV,R12)
0Loc    Object Code    Addr1 Addr2  Stmt Lv Lineno    Source Statement           (Hibal 5, Asmedit 3.3)  HLASM R4.0  2004/03/15 12.56
+___    ______ ____    _____ _____  ____ __ ______    ______ _________
0                                  17154              ¿þþþþþþþþþþþþþþþþþþþþþþþþþþþþþþþþþþþþþþþþþþþþþþþþþþþþþþþþþþþþþþþþþþþþþÜ
                                   17155              Ÿ                                                                     Ÿ
                                   17156              Ÿ  TSGBUFGT -- Routine to get a new TSEG buffer                       Ÿ
                                   17157              Ÿ                                                                     Ÿ
                                   17158              Ÿ    On entry:                                                        Ÿ
                                   17159              Ÿ      R0 - new seg buffer size                                       Ÿ
                                   17160              Ÿ                                                                     Ÿ
                                   17161              Ÿ    On exit:                                                         Ÿ
                                   17162              Ÿ      R0 - Length of buffer obtained                                 Ÿ
                                   17163              Ÿ      R1 - Address of buffer obtained                                Ÿ
                                   17164              Ÿ                                                                     Ÿ
                                   17165              Ÿ    Note: This is a routine used only by GETCP (in the               Ÿ
                                   17166              Ÿ          SIGN module) and TSEGBUF below. It gets                    Ÿ
                                   17167              Ÿ          the requested buffer from a cell pool.                     Ÿ
                                   17168              Ÿ                                                                     Ÿ
                                                      ¾þþþþþþþþþþþþþþþþþþþþþþþþþþþþþþþþþþþþþþþþþþþþþþþþþþþþþþþþþþþþþþþþþþþþþ»
0001AA0 50E0 D000/9008_      00000 17169              TSGBUFGT XPROC
 USING  *,R7
 001ABA 5A00 7062            01B1C 17209                       A     R0,=A(TSEGBQNT-1)
 001ABE 5400 7066            01B20 17210                       N     R0,=A(-TSEGBQNT)    Quantize to 2K blocks
 001AC2 5900 706A/47D0_      01B24 17211                       IF    (R0,GT,=A(CPSEGMX#)),'L R0,=A(CPSEGMX#)'  Max allowed
                                   17233              *
                                   17234              *  Using the size, calculate the address of the appropriate
                                   17235              *  cell pool allocation block.
                                   17236              *
 001ACE 18F0                       17237                       LR    R15,R0
 001AD0 1BEE                       17238                       CLEAR R14
 001AD2 5DE0 706E            01B28 17242                       D     R14,=A(TSEGBQNT)
 001AD6 06F0                       17243                       BCTR  R15,0               Array index relative to 0
 001AD8 5CE0 7072            01B2C 17244                       M     R14,=A(L'CELLBLOK)  Convert index to offset
 001ADC 5AF0 C5EC            005EC 17245                       A     R15,CVTSEGPL
 001AE0 58E0 7076/0DEE       01B30 17246                       VCALL GETPOOL             Allocate the buffer
                                   17250
 001AE6 58F0 C6A8            006A8 17251                       L     R15,CVCPMEM         Update statistics
 001AEA 1AF0                       17252                       AR    R15,R0              New total memory used
 001AEC 50F0 C6A8            006A8 17253                       ST    R15,CVCPMEM         Save new total
                                   17254
 001AF0 9001 8004            00004 17255                       PRETURN (R0,R1)           Return address and length
 001AF4 18D8/9808 D004_            17257                       PEND
 DROP   *,R7
                                   17277                       QLTORG ,
1TERM     (TERM2193) (12:56) (15MAR04) WYLBUR's Terminal Routines                                                           Page   49
0Current Usings:  (CP,R11) (CV,R12)
0Loc    Object Code    Addr1 Addr2  Stmt Lv Lineno    Source Statement           (Hibal 5, Asmedit 3.3)  HLASM R4.0  2004/03/15 12.56
+___    ______ ____    _____ _____  ____ __ ______    ______ _________
0                                  17302              ¿þþþþþþþþþþþþþþþþþþþþþþþþþþþþþþþþþþþþþþþþþþþþþþþþþþþþþþþþþþþþþþþþþþþþþÜ
                                   17303              Ÿ                                                                     Ÿ
                                   17304              Ÿ  TSGBUFRE -- Routine to free a TSEG buffer                          Ÿ
                                   17305              Ÿ                                                                     Ÿ
                                   17306              Ÿ    On entry:                                                        Ÿ
                                   17307              Ÿ      R0 - TSEG buffer size                                          Ÿ
                                   17308              Ÿ      R1 - TSEG buffer address                                       Ÿ
                                   17309              Ÿ                                                                     Ÿ
                                   17310              Ÿ    Note: This is a routine used only by GETCP (in the               Ÿ
                                   17311              Ÿ          SIGN module) and TSEGBUF below. It gets                    Ÿ
                                   17312              Ÿ          the requested buffer from a cell pool.                     Ÿ
                                   17313              Ÿ                                                                     Ÿ
                                                      ¾þþþþþþþþþþþþþþþþþþþþþþþþþþþþþþþþþþþþþþþþþþþþþþþþþþþþþþþþþþþþþþþþþþþþþ»
0001B36 50E0 D000/9008_      00000 17314              TSGBUFRE XPROC
 USING  *,R7
                                   17354              *
                                   17355              *  Using the size, calculate the address of the appropriate
                                   17356              *  cell pool allocation block.
                                   17357              *
 001B50 18F0                       17358                       LR    R15,R0
 001B52 1830                       17359                       LR    R3,R0               Save here for later
 001B54 1BEE                       17360                       CLEAR R14
 001B56 5DE0 7038            01B88 17364                       D     R14,=A(TSEGBQNT)
 001B5A 06F0                       17365                       BCTR  R15,0               Array index relative to 0
 001B5C 5CE0 703C            01B8C 17366                       M     R14,=A(L'CELLBLOK)  Convert index to offset
 001B60 5AF0 C5EC            005EC 17367                       A     R15,CVTSEGPL
 001B64 58E0 7040/0DEE       01B90 17368                       VCALL FREEPOOL            Release the buffer
                                   17372
 001B6A 58F0 C6A8            006A8 17373                       L     R15,CVCPMEM
 001B6E 1BF3                       17374                       SR    R15,R3              Deduct seg buffer space
 001B70 50F0 C6A8            006A8 17375                       ST    R15,CVCPMEM         Save new total
                                   17376
 001B74 18D8/9808 D004_            17377                       PEND
 DROP   *,R7
                                   17397                       QLTORG ,
1TERM     (TERM2193) (12:56) (15MAR04) WYLBUR's Terminal Routines                                                           Page   50
0Current Usings:  (CP,R11) (CV,R12)
0Loc    Object Code    Addr1 Addr2  Stmt Lv Lineno    Source Statement           (Hibal 5, Asmedit 3.3)  HLASM R4.0  2004/03/15 12.56
+___    ______ ____    _____ _____  ____ __ ______    ______ _________
0                                  17413              ¿þþþþþþþþþþþþþþþþþþþþþþþþþþþþþþþþþþþþþþþþþþþþþþþþþþþþþþþþþþþþþþþþþþþþþÜ
                                   17414              Ÿ                                                                     Ÿ
                                   17415              Ÿ  TSEGBUF -- Routine to expand the size of the seg buffer.           Ÿ
                                   17416              Ÿ                                                                     Ÿ
                                   17417              Ÿ    On entry:                                                        Ÿ
                                   17418              Ÿ      R0 - new seg buffer size                                       Ÿ
                                   17419              Ÿ                                                                     Ÿ
                                                      ¾þþþþþþþþþþþþþþþþþþþþþþþþþþþþþþþþþþþþþþþþþþþþþþþþþþþþþþþþþþþþþþþþþþþþþ»
0001B94 50E0 D000/9008_      00000 17420              TSEGBUF  XPROC
 USING  *,R7
 001BAE 1820                       17460                       LR    R2,R0               Save requested buffer size
 001BB0 5920 B054/47D0_      00054 17461                       IF    (R2,GT,CPSEGMAXF),BEGIN  Need a bigger buffer...
                                   17478  1                      ¿þþþþþþþþþþþþþþþþþþþþþþþþþþþþþþþþþþþþþþþþþþþþþþþþþþþþþþþþþþþþþÜ
                                   17479  1                      Ÿ  We can only free and re-allocate the default terminal      Ÿ
                                   17480  1                      Ÿ    seg buffer pointed to by CPSEGBP.  If another buffer is  Ÿ
                                   17481  1                      Ÿ    being used then don't do anything.                       Ÿ
                                   17482  1                      ¾þþþþþþþþþþþþþþþþþþþþþþþþþþþþþþþþþþþþþþþþþþþþþþþþþþþþþþþþþþþþþ»
 001BB8 D603 B070 B070_00070 00070 17483  1                      IF    ((CPSEGLOC,NZ),AND,(CPSEGBP,NE,CPSEGLOC)),EXIT
                                   17519  1                      ¿þþþþþþþþþþþþþþþþþþþþþþþþþþþþÜ
                                   17520  1                      Ÿ  Free the old seg buffer.  Ÿ
                                   17521  1                      ¾þþþþþþþþþþþþþþþþþþþþþþþþþþþþ»
 001BCC 5810 B048/1211       00048 17522  1                      LT    R1,CPSEGBP
 001BD2 4780 704A            01BF8 17526  1                      IF    NZ,BEGIN
 001BD6 4800 B04C            0004C 17537  2                        LH    R0,CPSEGBSZ
 001BDA 58E0 7072/0DEE       01C20 17538  2                        ACALL TSGBUFRE            Free old buffer
 001BE0 D703 B048 B048_00048 00048 17542  2                        CLEAR CPSEGBP,CPSEGBSZ    Tidy
 001BEC D703 B070 B070_00070 00070 17554  2                        CLEAR CPSEGLOC,CPSEGLENF  (Zot current seg buffer length)
 001BF8                            17566  1                      END
                                   17570  1                      ¿þþþþþþþþþþþþþþþþþþþþþÜ
                                   17571  1                      Ÿ  Get a new buffer.  Ÿ
                                   17572  1                      ¾þþþþþþþþþþþþþþþþþþþþþ»
 001BF8 1802                       17573  1                      LR    R0,R2               Get size back
 001BFA 58E0 7076/0DEE       01C24 17574  1                      ACALL TSGBUFGT            Get a bigger buffer
 001C00 5010 B048            00048 17578  1                      ST    R1,CPSEGBP          Save default buffer ptr
 001C04 4000 B04C            0004C 17579  1                      STH   R0,CPSEGBSZ         Buffer size
 001C08 5010 B070            00070 17580  1                      ST    R1,CPSEGLOC         Ditto
 001C0C 5000 B054            00054 17581  1                      ST    R0,CPSEGMAXF
 001C10                            17582                       END
                                   17586
 001C10 1BFF                       17587                       CLEAR R15                 RC
 001C12 18D8/9808 D004_            17591                       PEND
 DROP   *,R7
                                   17611                       QLTORG ,
1TERM     (TERM2193) (12:56) (15MAR04) WYLBUR's Terminal Routines                                                           Page   51
0Current Usings:  (CP,R11) (CV,R12)
0Loc    Object Code    Addr1 Addr2  Stmt Lv Lineno    Source Statement           (Hibal 5, Asmedit 3.3)  HLASM R4.0  2004/03/15 12.56
+___    ______ ____    _____ _____  ____ __ ______    ______ _________
0                                  17626              ¿þþþþþþþþþþþþþþþþþþþþþþþþþþþþþþþþþþþþþþþþþþþþþþþþþþþþþþþþþþþþþþþþþþþþþÜ
                                   17627              Ÿ                                                                     Ÿ
                                   17628              Ÿ  INITUSER -- This is the first entry from the dispatcher for a      Ÿ
                                   17629              Ÿ    user who has logged on.  This routine saves the relevant         Ÿ
                                   17630              Ÿ    information from the logon PDB from MILTEN and then frees        Ÿ
                                   17631              Ÿ    that transaction and goes to the main signon code in the         Ÿ
                                   17632              Ÿ    COMM module.                                                     Ÿ
                                   17633              Ÿ                                                                     Ÿ
                                                      ¾þþþþþþþþþþþþþþþþþþþþþþþþþþþþþþþþþþþþþþþþþþþþþþþþþþþþþþþþþþþþþþþþþþþþþ»
0001C28 188D/4570 C74C_            17634              INITUSER GENTER ,
 USING  *,R7
                                   17651              * WE DO NOT HAVE STACK ADDRESSIBILITY YET !! NO XPROC ALLOWED
 001C36 5850 C1C8            001C8 17652                       L     JCBR,CVCURJCB
 USING  JCB,R5                     17653                       USING JCB
                                   17662                       ¿þþþþþþþþþþþþþþþþþþþþþþþþþþþþþþþþþþþþþþþþþþþþþþþþþþþþþþþþþÜ
                                   17663                       Ÿ  Reset JCB fields left over from the previous session.  Ÿ
                                   17664                       ¾þþþþþþþþþþþþþþþþþþþþþþþþþþþþþþþþþþþþþþþþþþþþþþþþþþþþþþþþþ»
 001C3A D703 507C 507C 0007C 0007C 17665                       CLEAR JCBWCPU             Used for SHOW WJCB
 001C40 D603 5074 5074_00074 00074 17672                       IF    ((JCBUCEQH,NZ),OR,(JCBUCEP,NZ)),'VCALL FREEBILL'
                                   17712
 001C5A 58E0 7276/0DEE       01EAC 17713                       VCALL INITCMD             Initialize
                                   17717
 001C60 9120 C4C6/47E0_004C6       17718                       IF    CVFPUSR,'VCALL INITPUSR'  Pseudo-user initialization
                                   17742
 001C6E 188D/41D0 D060             17743                       XPUSH ,,L'TWA,PTR=WAR
 USING  TWA,R8                     17746                       USING TWA,WAR
                                   17755
 001C74 5840 5058            00058 17756                       L     R4,JCBPDBXL         Save xact loc (for free later)
 001C78 4110 802C/4100_      0002C 17757                       SETMSG TWAHDR+4,L'TWAHDR-4
 001C80 58E0 727E/0DEE       01EB4 17773                       ACALL MOVEX               Get the PDB header
 001C86 5810 B070/5800_      00070 17777                       SETMSG L:CPSEGLOC,L:CPSEGMAXF
 001C8E 58E0 727E/0DEE       01EB4 17789                       ACALL MOVEX               Get the PDB text
                                   17793
 001C94 1814                       17794                       LR    R1,R4
 001C96 58E0 7282/0DEE       01EB8 17795                       ACALL FREELOC             Free the logon PDB
                                   17799
 001C9C D203 5038 8038 00038 00038 17800                       MVC   JCBSINP,TWASINP     Save our SIN ptr
 001CA2 D207 B154 804C 00154 0004C 17801                       MVC   CPSYS,TWASYSNM      Save originating subsystem name
 001CA8 4800 805A            0005A 17802                       LH    R0,TWAWC            Write count
 001CAC 4A00 805E            0005E 17803                       AH    R0,TWARC            ...plus read count
 001CB0 5810 B070            00070 17804                       SETMSG L:CPSEGLOC,(R0)     Initial command text
                                   17815
 001CB4 4BD0 72A2            01ED8 17816                       XPOP  ,,L'TWA
 001CB8 9001 D000/41D0_      00000 17818                       XPUSH R0,R1
 001CC0 41F0 B050/58E0_      00050 17821                       TCLEAR
 001CCA 4BD0 72A4/9801_      01EDA 17835                       XPOP  R0,R1
                                   17838
 001CD2 58E0 728A/0DEE       01EC0 17839                       VCALL SIGNON              Start signon sequence (in SIGN)
 001CD8 0000                       17843                       BOMB                      No return (honest)
                                   17845
 DROP   JCB,R5                     17846                       DROP  JCB,TWA
 DROP   TWA,R8
1TERM     (TERM2193) (12:56) (15MAR04) WYLBUR's Terminal Routines                                                           Page   52
0Current Usings:  (*,R7) (CP,R11) (CV,R12)
0Loc    Object Code    Addr1 Addr2  Stmt Lv Lineno    Source Statement           (Hibal 5, Asmedit 3.3)  HLASM R4.0  2004/03/15 12.56
+___    ______ ____    _____ _____  ____ __ ______    ______ _________
0000000                00000 00010 17862              SPDBWA   RECORD BEGIN
 000000                            17870  1           SPDBLOC1   DS    A                   Buffer location (part 1)
 000004                            17871  1           SPDBLEN1   DS    F                   Buffer length   (part 1)
 000008                            17872  1           SPDBLOC2   DS    A                   Buffer location (part 2)
 00000C                            17873  1           SPDBLEN2   DS    F                   Buffer length   (part 2)
 000010                00010 00010 17874                       END
-                                  17884              ¿þþþþþþþþþþþþþþþþþþþþþþþþþþþþþþþþþþþþþþþþþþþþþþþþþþþþþþþþþþþþþþþþþþþþþÜ
                                   17885              Ÿ                                                                     Ÿ
                                   17886              Ÿ  SENDPDB -- Local routine to send a PDB to MILTEN.  The routine     Ÿ
                                   17887              Ÿ    sends the local copy of the PDBHDR combined with text            Ÿ
                                   17888              Ÿ    from the SEG buffer as the PDBTEXT.                              Ÿ
                                   17889              Ÿ                                                                     Ÿ
                                   17890              Ÿ    On entry:                                                        Ÿ
                                   17891              Ÿ      R1 - PDB (header) ptr                                          Ÿ
                                   17892              Ÿ                                                                     Ÿ
                                                      ¾þþþþþþþþþþþþþþþþþþþþþþþþþþþþþþþþþþþþþþþþþþþþþþþþþþþþþþþþþþþþþþþþþþþþþ»
0001CDA 50E0 D000/9008_      00000 17893              SENDPDB  PROC  SPDBWA,TRACE=NO
 DROP   *,R7
 USING  *,R7
 USING  SPDBWA-(4+36),R8
 001CEA D70F 8028 8028 00000 00000 17945                       CLEAR SPDBWA
                                   17952
 001CF0 5860 71DA            01EC4 17953                       L     R6,=A(MILINFO)
 USING  MILINFO,R6                 17954                       WITH  (MILINFO,R6)
                                   17967
 001CF4 1851                       17968                       LR    R5,R1
 USING  PDB,R5                     17969                       WITH  (PDB,R5)
                                   17982
 001CF6 41F0 5004            00004 17983                       LA    R15,PDB+4           Skip past RDW
 001CFA 50F0 8028            00000 17984                       ST    R15,SPDBLOC1        Save buffer ptr
 001CFE D203 802C 71DE 00004 01EC8 17985                       MVC   SPDBLEN1,=A(L'PDBHDR-4)  Buffer length
                                   17986
 001D04 4130 8028            00000 17987                       LA    R3,SPDBLOC1         Preset end of parm list
 001D08 4820 502E            0002E 17988                       LH    R2,PDBOUTCT
 001D0C 4B20 71F2            01EDC 17989                       SH    R2,=H'6'            Actual data count
 001D10 47D0 7038            01D22 17990                       IF    POS,BEGIN           We have some data...
 001D14 D203 8030 B070 00008 00070 18001  1                      MVC   SPDBLOC2,CPSEGLOC   Buffer ptr (part 2)
 001D1A 5020 8034            0000C 18002  1                      ST    R2,SPDBLEN2         Buffer length (part 2)
 001D1E 4130 8030            00008 18003  1                      LA    R3,SPDBLOC2         End of parm list
 001D22                            18004                       END
 001D22 9680 3000      00000       18008                       SET   @R3.X'80'           End of suzan parm list
                                   18015                       ¿þþþþþþþþþþþþþþþþþþþþþþþÜ
                                   18016                       Ÿ  Send PDB to MILTEN.  Ÿ
                                   18017                       ¾þþþþþþþþþþþþþþþþþþþþþþþ»
 001D26 41F0 0008/5800_      00008 18018                       SCOM  SEND,SPDBLOC1,MILPMGC  Send transaction
 001D34 12FF/4780 70E4             18039                       IF    (R15,NZ),BEGIN      Trouble...
 001D3A 59F0 71E2/4780_      01ECC 18053  1                      FAIL  (R15,NE,PATHRBAF),MIL3,'MILTEN interface error.'
1TERM     (TERM2193) (12:56) (15MAR04) WYLBUR's Terminal Routines                                                           Page   53
0Current Usings:  (PDB,R5) (MILINFO,R6) (*,R7) (SPDBWA-(4+36),R8) (CP,R11) (CV,R12)
0Loc    Object Code    Addr1 Addr2  Stmt Lv Lineno    Source Statement           (Hibal 5, Asmedit 3.3)  HLASM R4.0  2004/03/15 12.56
+___    ______ ____    _____ _____  ____ __ ______    ______ _________
0                                  18082  1                      ¿þþþþþþþþþþþþþþþþþþþþþþþþþþþþþþþþþþþþþþþþþþþþþþþþþþþþþþþþþþþÜ
                                   18083  1                      Ÿ  MILTEN's Suzan buffer is full so we queue it ourselves.  Ÿ
                                   18084  1                      ¾þþþþþþþþþþþþþþþþþþþþþþþþþþþþþþþþþþþþþþþþþþþþþþþþþþþþþþþþþþþ»
 001D5A 5840 802C            00004 18085  1                      L     R4,SPDBLEN1         PDB header
 001D5E 5A40 8034            0000C 18086  1                      A     R4,SPDBLEN2         Plus PDB data
                                   18087  1
 001D62 4100 0008            00008 18088  1                      LA    R0,8                Space for link ptr...
 001D66 1A04                       18089  1                      AR    R0,R4               ...plus PDB
 001D68 58E0 71E6/0DEE       01ED0 18090  1                      VCALL GETCORE             Get space to queue it
 001D6E 1821                       18094  1                      LR    R2,R1
                                   18095  1
 001D70 D703 2000 2000 00000 00000 18096  1                      CLEAR (@R2,4)             Zero our link ptr
 001D76 5040 2004            00004 18103  1                      ST    R4,@R2+4            Total PDB length
 001D7A 41E0 2008/58F0_      00008 18104  1                      MOVEL @R2+8,L:SPDBLOC1,L:SPDBLEN1  Save PDB header
 001D8A 4130 2008            00008 18124  1                      LA    R3,@R2+8
 001D8E 5A30 802C            00004 18125  1                      A     R3,SPDBLEN1
 001D92 18E3/58F0 8034_            18126  1                      MOVEL @R3,L:SPDBLOC2,L:SPDBLEN2  Save PDB data
                                   18146  1
 001DA0 5830 C0A0            000A0 18147  1                      L     R3,CVPPDBQT         Previous queue tail
 001DA4 58F0 3000            00000 18148  1                      L     R15,@R3             Expecting zero
 001DA8 12FF/4780 70DC_            18149  1                      FAIL  (R15,NZ),SPDBERR,'MILTEN interface error.'
 001DC6 5020 3000            00000 18175  1                      ST    R2,@R3              Link us to previous tail
 001DCA 5020 C0A0            000A0 18176  1                      ST    R2,CVPPDBQT         New queue tail
 001DCE                            18177                       END
                                   18181
 001DCE 1BFF                       18182                       CLEAR R15                 (Tidy)
 001DD0 18D8/9808 D004_            18186                       PEND
 DROP   PDB,R5
 DROP   MILINFO,R6
 DROP   SPDBWA-(4+36),R8
 DROP   *,R7
 USING  *,R7
1TERM     (TERM2193) (12:56) (15MAR04) WYLBUR's Terminal Routines                                                           Page   54
0Current Usings:  (*,R7) (CP,R11) (CV,R12)
0Loc    Object Code    Addr1 Addr2  Stmt Lv Lineno    Source Statement           (Hibal 5, Asmedit 3.3)  HLASM R4.0  2004/03/15 12.56
+___    ______ ____    _____ _____  ____ __ ______    ______ _________
0000000                00000 00008 18229              SPENDWA  RECORD BEGIN
 000000                            18237  1           SPENDLOC   DS    A                   Pending PDB location
 000004                            18238  1           SPENDLEN   DS    A                   Pending PDB length
 000008                00008 00008 18239                       END
-                                  18249              ¿þþþþþþþþþþþþþþþþþþþþþþþþþþþþþþþþþþþþþþþþþþþþþþþþþþþþþþþþþþþþþþþþþþþþþÜ
                                   18250              Ÿ                                                                     Ÿ
                                   18251              Ÿ  SENDQPDB -- Local routine to send any pending PDBs to MILTEN.      Ÿ
                                   18252              Ÿ    PDBs are put on our pending queue when MILTEN's Suzan buffer     Ÿ
                                   18253              Ÿ    is full (this is a rare situation).                              Ÿ
                                   18254              Ÿ                                                                     Ÿ
                                                      ¾þþþþþþþþþþþþþþþþþþþþþþþþþþþþþþþþþþþþþþþþþþþþþþþþþþþþþþþþþþþþþþþþþþþþþ»
0001DDE 50E0 D000/9008_      00000 18255              SENDQPDB PROC SPENDWA
 DROP   *,R7
 USING  *,R7
 USING  SPENDWA-(4+36),R8
 001DF8 5860 70CC            01EC4 18308                       L     R6,=A(MILINFO)
 USING  MILINFO,R6                 18309                       WITH  (MILINFO,R6)
                                   18322                       ¿þþþþþþþþþþþþþþþþþþþþþþþþþþþþþþþþþþþþþþþþþþþþþþÜ
                                   18323                       Ÿ  Go through and send all PDBs on our queue.  Ÿ
                                   18324                       ¾þþþþþþþþþþþþþþþþþþþþþþþþþþþþþþþþþþþþþþþþþþþþþþ»
 001DFC 5850 C09C/1255_      0009C 18325                       WHILE ('LT R5,CVPPDBQH',NZ),BEGIN  Take first entry...
 001E06 4110 5008/5800_      00008 18343  1                      SETMSG @R5+8,L:@R5+4       PDB location and length
 001E0E 5010 8028            00000 18357  1                      ST    R1,SPENDLOC
 001E12 5000 802C            00004 18358  1                      ST    R0,SPENDLEN
 001E16 9680 8028      00000       18359  1                      SET   SPENDLOC.X'80'      Set bit for Suzan SVC
                                   18366  1                      ¿þþþþþþþþþþþþþþþþþþþþþþþþþþþþþþþþÜ
                                   18367  1                      Ÿ  Try to send the pending PDB.  Ÿ
                                   18368  1                      ¾þþþþþþþþþþþþþþþþþþþþþþþþþþþþþþþþ»
 001E1A 41F0 0008/5800_      00008 18369  1                      SCOM  SEND,SPENDLOC,MILPMGC
 001E28 12FF/4770 705A             18390  1                      IF    (R15,NZ),EXIT       Trouble, forget it
                                   18407  1                      ¿þþþþþþþþþþþþþþþþþþþþþþþþþþþþþþþþþþþþþþþþþþþþþþÜ
                                   18408  1                      Ÿ  Dequeue and free the sucessfully sent PDB.  Ÿ
                                   18409  1                      ¾þþþþþþþþþþþþþþþþþþþþþþþþþþþþþþþþþþþþþþþþþþþþþþ»
 001E2E D203 C09C 5000 0009C 00000 18410  1                      MVC   CVPPDBQH,@R5        Take entry off queue
 001E34 1815                       18411  1                      LR    R1,R5
 001E36 58E0 70DC/0DEE       01ED4 18412  1                      VCALL FREECORE
 001E3C D603 C09C C09C_0009C 0009C 18416  1                      IF    (CVPPDBQH,Z),BEGIN  Fix up queue tail...
 001E46 4110 C09C            0009C 18432  2                        LA    R1,CVPPDBQH         Dummy first entry addr
 001E4A 5010 C0A0            000A0 18433  2                        ST    R1,CVPPDBQT         Fix up tail
 001E4E                            18434  1                      END
 001E4E 47F0 7004            01DFC 18438                       END
 001E52 18D8/9808 D004_            18443                       PEND
 DROP   MILINFO,R6
 DROP   SPENDWA-(4+36),R8
 DROP   *,R7
 USING  *,R7
1TERM     (TERM2193) (12:56) (15MAR04) WYLBUR's Terminal Routines                                                           Page   55
0Current Usings:  (*,R7) (CP,R11) (CV,R12)
0Loc    Object Code    Addr1 Addr2  Stmt Lv Lineno    Source Statement           (Hibal 5, Asmedit 3.3)  HLASM R4.0  2004/03/15 12.56
+___    ______ ____    _____ _____  ____ __ ______    ______ _________
0                                  18481              ¿þþþþþþþþþþþþþþþþþþþþþþþþþþþþþþþþþþþþþþþþþþþþþþþþþþþþþþþþþþþþþþþþþþþþþÜ
                                   18482              Ÿ                                                                     Ÿ
                                   18483              Ÿ  MOVEX -- Local routine to move transaction to buffer area.         Ÿ
                                   18484              Ÿ                                                                     Ÿ
                                   18485              Ÿ    On entry:                                                        Ÿ
                                   18486              Ÿ      R1,R0 - location & length of TO buffer                         Ÿ
                                   18487              Ÿ                                                                     Ÿ
                                                      ¾þþþþþþþþþþþþþþþþþþþþþþþþþþþþþþþþþþþþþþþþþþþþþþþþþþþþþþþþþþþþþþþþþþþþþ»
0001E60 50E0 D000/9008_      00000 18488              MOVEX    PROC  TRACE=NO
 DROP   *,R7
 USING  *,R7
 USING  JCB,R5                     18529                       WITH  JCB                 (Entry assumption)
                                   18541
 001E70 5830 505C            0005C 18542                       L     R3,JCBPDBXL+4
 001E74 1200/4770 700C_            18543                       IF    (R0,Z),'LR R0,R3'   Zero means everything
 001E7C 1903/47D0 7014_            18563                       CEIL  R0,R3               Not too much
 001E84 5820 5058            00058 18569                       L     R2,JCBPDBXL         Addr in Suzan buffer
 001E88 18F3                       18570                       LR    R15,R3
 001E8A 19F0/47D0 7022_            18571                       CEIL  R15,R0              Don't move too much
 001E92 18E1                       18577                       LR    R14,R1
 001E94 0EE2                       18578                       MVCL  R14,R2              Move first part
                                   18579
 001E96 9023 5058            00058 18580                       STM   R2,R3,JCBPDBXL      Save updated loc,len ptrs
 001E9A 18D8/9808 D004_            18581                       PEND
 DROP   JCB,R5
 DROP   *,R7
 USING  *,R7
                                   18613
                                   18614                       QLTORG
1TERM     (TERM2193) (12:56) (15MAR04) WYLBUR's Terminal Routines                                                           Page   56
0Current Usings:  (*,R7) (CP,R11) (CV,R12)
0Loc    Object Code    Addr1 Addr2  Stmt Lv Lineno    Source Statement           (Hibal 5, Asmedit 3.3)  HLASM R4.0  2004/03/15 12.56
+___    ______ ____    _____ _____  ____ __ ______    ______ _________
0                                  18642              ¿þþþþþþþþþþþþþþþþþþþþþþþþþþþþþþþþþþþþþþþþþþþþþþþþþþþþþþþþþþþþþþþþþþþþþÜ
                                   18643              Ÿ                                                                     Ÿ
                                   18644              Ÿ  MILPOST -- Routine to process posts from MILTEN.  This             Ÿ
                                   18645              Ÿ    routine is entered by the dispatcher.                            Ÿ
                                   18646              Ÿ                                                                     Ÿ
                                                      ¾þþþþþþþþþþþþþþþþþþþþþþþþþþþþþþþþþþþþþþþþþþþþþþþþþþþþþþþþþþþþþþþþþþþþþ»
0001EDE 50E0 D000/9008_      00000 18647              MILPOST  XPROC
 DROP   *,R7
 USING  *,R7
 001EF8 5860 7358            02250 18690                       L     R6,=A(MILINFO)      Get MILINFO ptr
 USING  MILINFO,R6                 18691                       USING MILINFO,R6
 001EFC D201 6070 6071 00088 00089 18700                       MVC   MILFLAG(2),MILSFLAG  Save and clear status
                                   18701                       ¿þþþþþþþþþþþþþþþþþþþþþþþþþþþþþþþþþþþþþþþþþþþþþþþÜ
                                   18702                       Ÿ  Check to see if the MILTEN path has closed.  Ÿ
                                   18703                       ¾þþþþþþþþþþþþþþþþþþþþþþþþþþþþþþþþþþþþþþþþþþþþþþþ»
 001F02 9180 6070/47E0_00088       18704                       IF    MILFLAG.PATHFCLS,BEGIN  Path closed...
 001F0A 1BFF                       18720  1                      CLEAR R15                 Rc=0
 001F0C 58E0 735C/0DEE       02254 18724  1                      VCALL SHUTDOWN            Terminate normally
 001F12                            18728                       END
                                   18732                       ¿þþþþþþþþþþþþþþþþþþþþþþþþþþþþþþþþþþþþþþþþÜ
                                   18733                       Ÿ  Process new information from MILTEN.  Ÿ
                                   18734                       ¾þþþþþþþþþþþþþþþþþþþþþþþþþþþþþþþþþþþþþþþþ»
 001F12 9120 6070/47E0_00088       18735                       IF    MILFLAG.PATHFNI,BEGIN  New info...
 001F1A 41F0 0010/5800_      00010 18751  1           MILQLOOP   SCOM  LOCATE,MILPTRS,MILPMGC    Do read locate
 001F28 12FF/4780 704E_            18773  1                      FAIL  (R15,NZ),MIL5,'WYLBUR/MILTEN interface error.'
 001F46 5810 6074            0008C 18799  1                      L     R1,MILPTRS          Transaction loc
 001F4A 5800 6078            00090 18800  1                      L     R0,MILPTRS+4        Transaction length
 001F4E 1200/47D0 70F4             18801  1                      IF    (R0,NP),MILFQCHK    Nothing left, scram
                                   18818  1
 001F54 D737 6000 6000 00018 00018 18819  1                      CLEAR MQRHDR
 001F5A 18F0                       18826  1                      LR    R15,R0              Total tranaction length
 001F5C 59F0 7360/47D0_      02258 18827  1                      CEIL  R15,L'MQRHDR-4      Not more than the header
 001F68 06F0/12FF/4740_            18846  1                      MOVE  R15,MQRHDR+4,@R1    Save PDB header
                                   18884  1
 001F74 9541 6006      0001E       18885  1                      CLI   MQRCMD,FMILWRIT     Response to a write?
 001F78 4780 71A0            02098 18886  1                      BE    DOSOME              Br if so
 001F7C 9542 6006      0001E       18887  1                      CLI   MQRCMD,FMILREAD     Response to a read?
 001F80 4780 71A0            02098 18888  1                      BE    DOSOME              Br if so
 001F84 9547 6006      0001E       18889  1                      CLI   MQRCMD,FMILXCTL     Response to xctl?
 001F88 4780 71A0            02098 18890  1                      BE    DOSOME              Br if so
 001F8C 9546 6006/4780_0001E       18891  1                      IF    (MQRCMD,EQ,MILAWR),DOSOME  Async write completion
 001F94 9549 6006/4780_0001E       18912  1                      IF    (MQRCMD,EQ,MILCNTL),DOSOME  Response to control
 001F9C 954A 6006/4780_0001E       18933  1                      IF    (MQRCMD,EQ,MILSOF),DOSOME   Response to subsys/off
 001FA4 9540 6006/4780_0001E       18954  1                      IF    (MQRCMD,EQ,FMILSOS),STARTSES  Logon request
 001FAC 9550 6006      0001E       18975  1                      CLI   MQRCMD,FMILASYN     Asynchronous post?
 001FB0 4780 7164            0205C 18976  1                      BE    ASYNCH              Br if so
 001FB4 9530 6006      0001E       18977  1                      CLI   MQRCMD,FMILSTOP     Stop request?
 001FB8 4780 71BA            020B2 18978  1                      BE    CLEANUP             Br if so
 001FBC 9531 6006      0001E       18979  1                      CLI   MQRCMD,FMILDUMP     Dump request?
 001FC0 4780 71C2            020BA 18980  1                      BE    DUMP                Br if so
 001FC4 9524 6006      0001E       18981  1                      CLI   MQRCMD,FMILERR      MILTEN junk last request?
 001FC8 4780 71C2            020BA 18982  1                      BE    DUMP                Br if so
 001FCC 9521 6006      0001E       18983  1                      CLI   MQRCMD,FMILINIT     Response to our init call?
1TERM     (TERM2193) (12:56) (15MAR04) WYLBUR's Terminal Routines                                                           Page   57
0Current Usings:  (MILINFO,R6) (*,R7) (CP,R11) (CV,R12)
0Loc    Object Code    Addr1 Addr2  Stmt Lv Lineno    Source Statement           (Hibal 5, Asmedit 3.3)  HLASM R4.0  2004/03/15 12.56
+___    ______ ____    _____ _____  ____ __ ______    ______ _________
0001FD0 4780 7142            0203A 18984  1                      BE    INIT                Br if so
                                   18985  1
 001FD4 900F C780/4DE0_      00780 18986  1                      KAPUT PDBERR,'MILTEN/WYLBUR PDB command error.'
 001FEC                            18993                       END
                                   18997                       ¿þþþþþþþþþþþþþþþþþþþþþþþþþþþþþþþþþÜ
                                   18998                       Ÿ  Previous full queue has room.  Ÿ
                                   18999                       ¾þþþþþþþþþþþþþþþþþþþþþþþþþþþþþþþþþ»
 001FEC D603 C09C C09C_0009C 0009C 19000              MILFQCHK IF    (CVPPDBQH,NZ),'ACALL SENDQPDB'  Send pending PDBs
                                   19026
 001FFC 47F0 71D6            020CE 19027                       B     MILXEXIT
1TERM     (TERM2193) (12:56) (15MAR04) WYLBUR's Terminal Routines                                                           Page   58
0Current Usings:  (MILINFO,R6) (*,R7) (CP,R11) (CV,R12)
0Loc    Object Code    Addr1 Addr2  Stmt Lv Lineno    Source Statement           (Hibal 5, Asmedit 3.3)  HLASM R4.0  2004/03/15 12.56
+___    ______ ____    _____ _____  ____ __ ______    ______ _________
0USING  JCB,R5                     19029                       USING JCB
                                   19038                       ¿þþþþþþþþþþþþþþþþþþþþþþþþþþþþþþþþþÜ
                                   19039                       Ÿ  Process signon requests here.  Ÿ
                                   19040                       ¾þþþþþþþþþþþþþþþþþþþþþþþþþþþþþþþþþ»
 002000 58E0 7368/0DEE       02260 19041              STARTSES ACALL SETJCB              Go find JCB address
 002006 D207 5058 6074 00058 0008C 19045                       MVC   JCBPDBXL,MILPTRS    Save PDB loc, len ptrs
                                   19046
 00200C 9180 5060/4710_00060       19047                       IF    ~JCBWFSO,BEGIN      Not a real signon (???)...
 002014 94BF 5060      00060       19062  1                      CLEAR JCBWFT              No longer waiting for terminal
 002018 58E0 736C/0DEE       02264 19069  1                      ACALL QSETUP              Go see if can be setup
 00201E 47F0 7022            01F1A 19073  1                      B     MILQLOOP            Go process next
 002022                            19074                       END
                                   19078
 002022 947F 5060      00060       19079                       CLEAR JCBWFSO             No longer waiting for signon
 002026 94FD 5063      00063       19086                       CLEAR JCBFBILLED          Reset previous billed flag
 00202A D701 5034 5034 00034 00034 19093                       CLEAR JCBFCNT             Reset failsoft counter
 002030 58E0 736C/0DEE       02264 19100                       ACALL QSETUP              Go put on setup queue
 002036 47F0 7022            01F1A 19104                       B     MILQLOOP            Go get next
1TERM     (TERM2193) (12:56) (15MAR04) WYLBUR's Terminal Routines                                                           Page   59
0Current Usings:  (JCB,R5) (MILINFO,R6) (*,R7) (CP,R11) (CV,R12)
0Loc    Object Code    Addr1 Addr2  Stmt Lv Lineno    Source Statement           (Hibal 5, Asmedit 3.3)  HLASM R4.0  2004/03/15 12.56
+___    ______ ____    _____ _____  ____ __ ______    ______ _________
0                                  19106                       ¿þþþþþþþþþþþþþþþþþþþþþþþþþþþþþþþþþþþþÜ
                                   19107                       Ÿ  Response to initialization call.  Ÿ
                                   19108                       ¾þþþþþþþþþþþþþþþþþþþþþþþþþþþþþþþþþþþþ»
 00203A 5850 C1C4            001C4 19109              INIT     L     R5,CVLJCB           Point at last JCB
 00203E D207 5058 6074 00058 0008C 19110                       MVC   JCBPDBXL,MILPTRS    Save PDB loc, len ptrs
                                   19111
 002044 5810 5058            00058 19112                       L     R1,JCBPDBXL
 USING  PDBDATA,R1                 19113                       WITH  (PDBDATA,R1),BEGIN
 002048 D203 C0BC 100C 000BC 00010 19127  1                      MVC   CVSITP,PDBSINP      Save SIT ptr (in CSA)
 DROP   PDBDATA,R1                 19128                       END
                                   19136
 00204E 5810 5058            00058 19137                       L     R1,JCBPDBXL
 002052 58E0 7370/0DEE       02268 19138                       ACALL FREELOC             Go free the PDB
 002058 47F0 7022            01F1A 19142                       B     MILQLOOP            Go back for more
                                   19143                       ¿þþþþþþþþþþþþþþþþþþþþþþþþþþþþþþþþþþþþþþþþþþþþþþþþþþþþþþþþþþþþþþþÜ
                                   19144                       Ÿ  An asynchronous post has been sent by MILTEN for this line.  Ÿ
                                   19145                       Ÿ                                                               Ÿ
                                   19146                       Ÿ  The post code can be the result of an idle attention on the  Ÿ
                                   19147                       Ÿ  line which in reflected in the completion flag byte in the   Ÿ
                                   19148                       Ÿ  PDB.  It can also be the result of an operator kill of a     Ÿ
                                   19149                       Ÿ  line.                                                        Ÿ
                                   19150                       ¾þþþþþþþþþþþþþþþþþþþþþþþþþþþþþþþþþþþþþþþþþþþþþþþþþþþþþþþþþþþþþþþ»
 00205C 58E0 7368/0DEE       02260 19151              ASYNCH   ACALL SETJCB
 002062 58E0 736C/0DEE       02264 19155                       ACALL QSETUP              Go attempt to set it up
 002068 5850 C1C4            001C4 19159                       L     R5,CVLJCB           Get "last" JCB to free PDB
 00206C D207 5058 6074 00058 0008C 19160                       MVC   JCBPDBXL,MILPTRS    Save PDB loc, len ptrs
 002072 5810 5058            00058 19161                       L     R1,JCBPDBXL
 002076 58E0 7370/0DEE       02268 19162                       ACALL FREELOC
 00207C 4780 7022            01F1A 19166                       BZ    MILQLOOP
 002080 900F C780/4DE0_      00780 19167                       KAPUT MIL6,'WYLBUR/MILTEN interface error'
                                   19174                       ¿þþþþþþþþþþþþþþþþþþþþþþþþþþþþþþþþþþþþþþþþþþþþþþþþþþþþþþþÜ
                                   19175                       Ÿ  We received a response to a terminal read or write.  Ÿ
                                   19176                       ¾þþþþþþþþþþþþþþþþþþþþþþþþþþþþþþþþþþþþþþþþþþþþþþþþþþþþþþþ»
 002098 58E0 7368/0DEE       02260 19177              DOSOME   ACALL SETJCB              Go find JCB
 00209E D207 5058 6074 00058 0008C 19181                       MVC   JCBPDBXL,MILPTRS    Save PDB loc, len ptrs
 0020A4 94BF 5060      00060       19182                       CLEAR JCBWFT  no longer waiting for terminal
 0020A8 58E0 736C/0DEE       02264 19189                       ACALL QSETUP              Go see if can go yet
 0020AE 47F0 7022            01F1A 19193                       B     MILQLOOP
                                   19194                       ¿þþþþþþþþþþþþþþþþþþþþþþþþþþþþþþþþþþþþþþþþþþþþþþþþþþþþþþÜ
                                   19195                       Ÿ  A request by MILTEN to shutdown has been received.  Ÿ
                                   19196                       ¾þþþþþþþþþþþþþþþþþþþþþþþþþþþþþþþþþþþþþþþþþþþþþþþþþþþþþþ»
 0020B2 1BFF                       19197              CLEANUP  CLEAR R15                 Return code
 0020B4 58E0 735C/0DEE       02254 19202                       VCALL SHUTDOWN            Terminate normally
                                   19206                       ¿þþþþþþþþþþþþþþþþþþþþþþþþþþþþþþþþþþþþþþþþþþþþþþþþþþþþþþþþþÜ
                                   19207                       Ÿ  A request to terminate with a dump has been received.  Ÿ
                                   19208                       ¾þþþþþþþþþþþþþþþþþþþþþþþþþþþþþþþþþþþþþþþþþþþþþþþþþþþþþþþþþ»
 0020BA 900F C780/4DE0_      00780 19209              DUMP     KAPUT MCANCEL
                                   19216
 0020CE 18D8/9808 D004_            19217              MILXEXIT PEND
 DROP   *,R7
 USING  *,R7
1TERM     (TERM2193) (12:56) (15MAR04) WYLBUR's Terminal Routines                                                           Page   60
0Current Usings:  (JCB,R5) (MILINFO,R6) (*,R7) (CP,R11) (CV,R12)
0Loc    Object Code    Addr1 Addr2  Stmt Lv Lineno    Source Statement           (Hibal 5, Asmedit 3.3)  HLASM R4.0  2004/03/15 12.56
+___    ______ ____    _____ _____  ____ __ ______    ______ _________
0                                  19246                       ¿þþþþþþþþþþþþþþþþþþþþþþþþþþþþþþþþþþþþþþþþþþþþþþþþþþþÜ
                                   19247                       Ÿ                                                   Ÿ
                                   19248                       Ÿ  Find JCB address and setup terminal I/O status.  Ÿ
                                   19249                       Ÿ                                                   Ÿ
                                   19250                       Ÿ                                                   Ÿ
                                   19251                       ¾þþþþþþþþþþþþþþþþþþþþþþþþþþþþþþþþþþþþþþþþþþþþþþþþþþþ»
 0020DC 50E0 D000/9008_      00000 19252              SETJCB   PROC  ,
 DROP   *,R7
 USING  *,R7
 0020F6 4850 6004            0001C 19294                       LH    R5,MQRLIN#          Get JCB line number
 0020FA 4C50 7186            0227C 19295                       MH    R5,=AL2(L'JCB)      Get offset into table
 0020FE 5E50 C1C0            001C0 19296                       AL    R5,CVFJCB           Point at entry
 002102 5950 C1C4/4750_      001C4 19297                       FAIL  (R5,GE,CVLJCB),MAXUSERS,'Too many users.'
                                   19326                       ¿þþþþþþþþþþþþþþþþþþþþþþþþþþþþþþþþÜ
                                   19327                       Ÿ  Asychronous logoff happened.  Ÿ
                                   19328                       ¾þþþþþþþþþþþþþþþþþþþþþþþþþþþþþþþþ»
 002122 9180 600D/47E0_00025       19329                       IF    MQRCPLB.CPLBLGF,BEGIN  Logoff...
 00212A 9608 5062/9602_00062       19345  1                      SET   JCBFPATN,JCBFATTN,JCBAFALO  Set attn and auto logoff
 002136                            19359                       END
                                   19363                       ¿þþþþþþþþþþþþþþþþþþþþþþþþþþþþþþþþþþþþþþþþþþþþÜ
                                   19364                       Ÿ  Asychronous ("Idle") attention happened.  Ÿ
                                   19365                       ¾þþþþþþþþþþþþþþþþþþþþþþþþþþþþþþþþþþþþþþþþþþþþ»
 002136 9120 600D/47E0_00025       19366                       IF    MQRCPLB.CPLBIA,BEGIN  Idle attn set...
 00213E 9140 5062/47E0_00062       19382  1                      IF    JCBFNATN,'SET JCBFPATN'
 00214A 7058/47F0 705C_0214A 02144 19408  1                      ELSE  'SET JCBFATTN'      Set appropriate ATTN flag
 002152                            19430                       END
                                   19434                       ¿þþþþþþþþþþþþþþþþþþþþþþþþþþþþþþþþþþþþþþþþþþþþþþþþþþþþþþþþÜ
                                   19435                       Ÿ  Release resource wait if either idle attn or logoff.  Ÿ
                                   19436                       ¾þþþþþþþþþþþþþþþþþþþþþþþþþþþþþþþþþþþþþþþþþþþþþþþþþþþþþþþþ»
 002152 91A0 600D/4780_00025       19437                       IF    MQRCPLB.CPLBIA+CPLBLGF,BEGIN  Idle attn/logoff...
 00215A 9130 5062/4770_00062       19456  1                      IF    JCBFARB+JCBAPDSP,EXIT  Can't release JCB, scram
                                   19477  1
 002162 94EF 5060      00060       19478  1                      CLEAR JCBWFRSC            Clear any resource wait
 002166 9200 5061      00061       19485  1                      CLEAR JCBWWFL             Reset any weak wait flags
 00216A 9604 5063      00063       19492  1                      SET   JCBFATTNFREE        Remember ATTN freed us
 00216E                            19498                       END
                                   19502
 00216E 5058 0018            00018 19503                       PRETURN (R5)
 002172 18D8/9808 D004_            19505                       PEND
 DROP   *,R7
 USING  *,R7
 DROP   JCB,R5                     19532                       DROP  JCB
1TERM     (TERM2193) (12:56) (15MAR04) WYLBUR's Terminal Routines                                                           Page   61
0Current Usings:  (MILINFO,R6) (*,R7) (CP,R11) (CV,R12)
0Loc    Object Code    Addr1 Addr2  Stmt Lv Lineno    Source Statement           (Hibal 5, Asmedit 3.3)  HLASM R4.0  2004/03/15 12.56
+___    ______ ____    _____ _____  ____ __ ______    ______ _________
0                                  19541              ¿þþþþþþþþþþþþþþþþþþþþþþþþþþþþþþþþþþþþþþþþþþþþþþþþþþþþþþþþþþþþþþþþþþþþþÜ
                                   19542              Ÿ                                                                     Ÿ
                                   19543              Ÿ  FREELOC -- Routine to free a located PDB in Suzan buffer.          Ÿ
                                   19544              Ÿ                                                                     Ÿ
                                   19545              Ÿ    On entry:                                                        Ÿ
                                   19546              Ÿ      R1 - transaction ptr (as returned by LOCATE)                   Ÿ
                                   19547              Ÿ                                                                     Ÿ
                                                      ¾þþþþþþþþþþþþþþþþþþþþþþþþþþþþþþþþþþþþþþþþþþþþþþþþþþþþþþþþþþþþþþþþþþþþþ»
0002180 50E0 D000/9008_      00000 19548              FREELOC  PROC  TRACE=NO
 DROP   *,R7
 USING  *,R7
 002190 5860 70C0            02250 19589                       L     R6,=A(MILINFO)
                                   19590                       WITH  (MILINFO,R6)
 002194 41F0 0018/5800_      00018 19594                       SCOM  FREE,(R1),MILPMGC   Free previous transaction
 00219E 12FF/4780 702C_            19612                       FAIL  (R15,NZ),MIL9,'MILTEN interface error.'
 0021BC 18D8/9808 D004_            19638                       PEND
 DROP   *,R7
 USING  *,R7
1TERM     (TERM2193) (12:56) (15MAR04) WYLBUR's Terminal Routines                                                           Page   62
0Current Usings:  (MILINFO,R6) (*,R7) (CP,R11) (CV,R12)
0Loc    Object Code    Addr1 Addr2  Stmt Lv Lineno    Source Statement           (Hibal 5, Asmedit 3.3)  HLASM R4.0  2004/03/15 12.56
+___    ______ ____    _____ _____  ____ __ ______    ______ _________
0                                  19666                      ¿þþþþþþþþþþþþþþþþþþþþþþþþþþþþþþþþþþþþþþþþþþþþþþþþþþþþþþþþþþþþþþþþÜ
                                   19667                      Ÿ  Routine to check for dispatchability and put the user on the  Ÿ
                                   19668                      Ÿ     setup queue if dispatchable.                               Ÿ
                                   19669                      ¾þþþþþþþþþþþþþþþþþþþþþþþþþþþþþþþþþþþþþþþþþþþþþþþþþþþþþþþþþþþþþþþþ»
 0021CA 50E0 D000/9078_      00000 19670              QSETUP   XENTER R7,R8
 DROP   *,R7
 USING  *,R7
                                   19692                       ¿þþþþþþþþþþþþþþþþþþþþþþþþþþþþþÜ
                                   19693                       Ÿ  Cancel any pending timer.  Ÿ
                                   19694                       ¾þþþþþþþþþþþþþþþþþþþþþþþþþþþþþ»
 USING  JCB,R5                     19695                       USING JCB
 0021E4 58F0 500C/12FF_      0000C 19704                       IF    ('LT R15,JCBTIMID',NZ),BEGIN  A timer is going...
 0021EE 58E0 7088/0DEE       0226C 19720  1                      ACALL TIMERDQ             Purge timer
 0021F4 4770 705E            02242 19724  1                      BNZ   QSETEXIT            Timer has fired, scram
                                   19725  1
 0021F8 D703 500C 500C 0000C 0000C 19726  1                      CLEAR JCBTIMID            Reset timer id
 0021FE D203 5010 708C 00010 02270 19733  1                      MVC   JCBTIMQL,=F'-1'     Reser timer queue link ptr
                                   19734  1
 002204 94FD 5060      00060       19735  1                      CLEAR JCBWFTM             No longer waiting for timer
 002208                            19742                       END
                                   19746                       ¿þþþþþþþþþþþþþþþþþþþþþþþþþþþþþþþþþþþþÜ
                                   19747                       Ÿ  Add the user to the setup queue.  Ÿ
                                   19748                       ¾þþþþþþþþþþþþþþþþþþþþþþþþþþþþþþþþþþþþ»
 002208 4800 5060/1200_      00060 19749                       IF    (('LTH R0,JCBWFL',Z),AND,~JCBAPDSP),BEGIN
 00221A 5800 5000/1200_      00000 19779  1                      IF    ('LT R0,JCBQF',NZ),'DQJCB JCB'  Dequeue if queued
 00222C 18F5/9610 F062_            19812  1                      SETUP JCB                 Setup the JCB
 002242                            19840                       END
 002242 18D8/58E0 D000_            19844              QSETEXIT XEXIT R7,R8
 DROP   JCB,R5                     19849                       DROP  JCB,BR
 DROP   *,R7
                                   19863
                                   19864                       QLTORG
1TERM     (TERM2193) (12:56) (15MAR04) WYLBUR's Terminal Routines                                                           Page   63
0Current Usings:  (MILINFO,R6) (CP,R11) (CV,R12)
0Loc    Object Code    Addr1 Addr2  Stmt Lv Lineno    Source Statement           (Hibal 5, Asmedit 3.3)  HLASM R4.0  2004/03/15 12.56
+___    ______ ____    _____ _____  ____ __ ______    ______ _________
0                                  19889              ¿þþþþþþþþþþþþþþþþþþþþþþþþþþþþþþþþþþþþþþþþþþþþþþþþþþþþþþþþþþþþþþþþþþþþþÜ
                                   19890              Ÿ                                                                     Ÿ
                                   19891              Ÿ  WAITER -- Routine to wait a fixed amount of elapsed time.          Ÿ
                                   19892              Ÿ                                                                     Ÿ
                                   19893              Ÿ    On entry:                                                        Ÿ
                                   19894              Ÿ      R15 - no. of seconds to wait in .01 second units               Ÿ
                                   19895              Ÿ            (complimented if the wait is interruptable by            Ÿ
                                   19896              Ÿ            path posts)                                              Ÿ
                                   19897              Ÿ                                                                     Ÿ
                                   19898              Ÿ    On exit, R15 (and cc):                                           Ÿ
                                   19899              Ÿ      0 - ok                                                         Ÿ
                                   19900              Ÿ      4 - attn or logoff                                             Ÿ
                                   19901              Ÿ                                                                     Ÿ
                                                      ¾þþþþþþþþþþþþþþþþþþþþþþþþþþþþþþþþþþþþþþþþþþþþþþþþþþþþþþþþþþþþþþþþþþþþþ»
0002284 50E0 D000/9008_      00000 19902              WAITER   XPROC
 USING  *,R7
 00229E 5850 C1C8            001C8 19942                       L     JCBR,CVCURJCB
 USING  JCB,R5                     19943                       USING JCB
 0022A2 D603 500C 500C_0000C 0000C 19952                       FAIL  (JCBTIMID,NZ),TIMERQ,'Timer queue logic error'
                                   19980
 0022C4 184F                       19981                       LR    R4,R15              Save interruptible flag
 0022C6 10FF                       19982                       LPR   R15,R15             Force pos value
 0022C8 4780 70B4            02352 19983                       BZ    WAITDONE            Zero, return w/o waiting
                                   19984
 0022CC 4100 70D0            0236E 19985                       LA    R0,WAITEXIT         Post routine
 0022D0 4110 5000            00000 19986                       LA    R1,JCB              Post routine's parm
 0022D4 58E0 74A2/0DEE       02740 19987                       ACALL TIMERQ              Queue the event
 0022DA 50F0 500C            0000C 19991                       ST    R15,JCBTIMID        Save our timer id
                                   19992                       ¿þþþþþþþþþþþþþþþþþþþþþþþþþþþÜ
                                   19993                       Ÿ  Wait for timer to fire.  Ÿ
                                   19994                       ¾þþþþþþþþþþþþþþþþþþþþþþþþþþþ»
 0022DE 1244/47B0 708C             19995                       IF    (R4,NEG),BEGIN
 0022E4 58E0 74A6/0DEE       02744 20009  1                      VCALL PATHQ               Put paths that can interrupt on Q
 0022EA 4780 7064            02302 20013  1                      IF    NZ,BEGIN            Already posted...
 0022EE 58F0 500C            0000C 20024  2                        L     R15,JCBTIMID        Our timed id
 0022F2 58E0 74AA/0DEE       02748 20025  2                        ACALL TIMERDQ             Dequeue timer just queued
 0022F8 D703 500C 500C 0000C 0000C 20029  2                        CLEAR JCBTIMID            Clear timer id
 0022FE 47F0 70B4            02352 20036  2                        B     WAITDONE            Scram
 002302                            20037  1                      END
                                   20041  1
 002302 58E0 74AE/0DEE       0274C 20042  1                      VCALL NPATQ               Ditto for net paths
 002308 4780 7088            02326 20046  1                      IF    NZ,BEGIN            Already posted...
 00230C 58F0 500C            0000C 20057  2                        L     R15,JCBTIMID        Our timed id
 002310 58E0 74AA/0DEE       02748 20058  2                        ACALL TIMERDQ             Dequeue timer just queued
 002316 D703 500C 500C 0000C 0000C 20062  2                        CLEAR JCBTIMID            Clear timer id
 00231C 58E0 74B2/0DEE       02750 20069  2                        VCALL PATHDEQ             Dequeue user paths
 002322 47F0 70B4            02352 20073  2                        B     WAITDONE            Scram
 002326                            20074  1                      END
                                   20078  1
 002326 9610 5063      00063       20079  1                      SET   JCBFWINT            Interruptible
 00232A                            20085                       END
                                   20089
 00232A 9602 5060/41E0_00060       20090                       PAUSE JCBWFTM             Wait for timer
1TERM     (TERM2193) (12:56) (15MAR04) WYLBUR's Terminal Routines                                                           Page   64
0Current Usings:  (JCB,R5) (MILINFO,R6) (*,R7) (CP,R11) (CV,R12)
0Loc    Object Code    Addr1 Addr2  Stmt Lv Lineno    Source Statement           (Hibal 5, Asmedit 3.3)  HLASM R4.0  2004/03/15 12.56
+___    ______ ____    _____ _____  ____ __ ______    ______ _________
0                                  20103
 00233C 1244/47B0 70B4             20104                       IF    (R4,NEG),BEGIN      Must de-queue interruptibles...
 002342 58E0 74B2/0DEE       02750 20118  1                      VCALL PATHDEQ             De-queue interruptible paths
 002348 58E0 74BA/0DEE       02758 20122  1                      VCALL NPATDEQ             Ditto for net paths
 00234E 94EF 5063      00063       20126  1                      CLEAR JCBFWINT            Reset
 002352                            20133                       END
                                   20137                       ¿þþþþþþþþþþþþþþþþþþþþþþþþþþþþþþþþþþþþÜ
                                   20138                       Ÿ  Timer has fired, return to user.  Ÿ
                                   20139                       ¾þþþþþþþþþþþþþþþþþþþþþþþþþþþþþþþþþþþþ»
 002352 1BFF                       20140              WAITDONE CLEAR R15                 Assume A-ok
 002354 9102 5062/47E0_00062       20145                       IF    JCBFATTN,'LA R15,4'  Attn
 002360 18D8/9808 D004_            20166                       PEND  ,
 DROP   *,R7
 DROP   JCB,R5                     20186                       DROP  JCB
1TERM     (TERM2193) (12:56) (15MAR04) WYLBUR's Terminal Routines                                                           Page   65
0Current Usings:  (MILINFO,R6) (CP,R11) (CV,R12)
0Loc    Object Code    Addr1 Addr2  Stmt Lv Lineno    Source Statement           (Hibal 5, Asmedit 3.3)  HLASM R4.0  2004/03/15 12.56
+___    ______ ____    _____ _____  ____ __ ______    ______ _________
0                                  20195              ¿þþþþþþþþþþþþþþþþþþþþþþþþþþþþþþþþþþþþþþþþþþþþþþþþþþþþþþþþþþþþþþþþþþþþþÜ
                                   20196              Ÿ                                                                     Ÿ
                                   20197              Ÿ  WAITEXIT -- WAITER's timer exit routine.  This routine is          Ÿ
                                   20198              Ÿ    entered when the wait time interval has expired.                 Ÿ
                                   20199              Ÿ                                                                     Ÿ
                                   20200              Ÿ    On entry:                                                        Ÿ
                                   20201              Ÿ      R1 - JCB ptr                                                   Ÿ
                                   20202              Ÿ                                                                     Ÿ
                                   20203              Ÿ    Note:  This routine is entered under the TIMER subtask.          Ÿ
                                   20204              Ÿ           No CP or user stack addressability can be assumed!        Ÿ
                                   20205              Ÿ                                                                     Ÿ
                                                      ¾þþþþþþþþþþþþþþþþþþþþþþþþþþþþþþþþþþþþþþþþþþþþþþþþþþþþþþþþþþþþþþþþþþþþþ»
0DROP   CP,R11                     20206                       DROP  CP                  (Keeps us honest)
                                   20214
 00236E 50E0 D000/9008_      00000 20215              WAITEXIT PROC  TRACE=NO
 USING  *,R7
 00237E 1821                       20253                       LR    R2,R1
 USING  JCB,R2                     20254                       WITH  (JCB,R2),BEGIN
 002380 58F0 C088/4110_      00088 20268  1                      SET   CVLOCK1.CVL1TQJ,MODE=LOCKED,REF=CV   Lock to run q
 002398                            20282  1           WAITPLP    DS    0H
 002398 58F0 C294            00294 20283  1                      L     R15,CVTIMRQ         Current timer post run queue
 00239C 50F0 2010            00010 20284  1                      ST    R15,JCBTIMQL        Link up posted queue
 0023A0 BAF2 C294            00294 20285  1                      CS    R15,R2,CVTIMRQ      Add us to head of posted queue
 0023A4 4770 701A            02398 20286  1                      BNZ   WAITPLP             Something changed, try it again
 DROP   JCB,R2                     20287                       END
 002784 BF/41F0 0001/1_02784 02AA8 20295                       CLEAR CVLOCK1.CVL1TQJ,MODE=LOCKED,REF=CV   Unlock when done
                                   20340                       ¿þþþþþþþþþþþþþþþþþþþþþþþþþÜ
                                   20341                       Ÿ  Post the mother task.  Ÿ
                                   20342                       ¾þþþþþþþþþþþþþþþþþþþþþþþþþ»
 0023C6 4110 C720            00720 20343                       LA    R1,CVECB
 0023CA 1B00/4110 1000_            20344                       POST  (1)                 Post main ECB
 0023D2 18D8/9808 D004_            20350                       PEND  ,
 DROP   *,R7
                                   20370                       DROP  BR
                                   20374
 USING  CP,R11                     20375                       USING CP                  (Re-establish CP addressability)
1TERM     (TERM2193) (12:56) (15MAR04) WYLBUR's Terminal Routines                                                           Page   66
0Current Usings:  (MILINFO,R6) (CP,R11) (CV,R12)
0Loc    Object Code    Addr1 Addr2  Stmt Lv Lineno    Source Statement           (Hibal 5, Asmedit 3.3)  HLASM R4.0  2004/03/15 12.56
+___    ______ ____    _____ _____  ____ __ ______    ______ _________
0                                  20385              ¿þþþþþþþþþþþþþþþþþþþþþþþþþþþþþþþþþþþþþþþþþþþþþþþþþþþþþþþþþþþþþþþþþþþþþÜ
                                   20386              Ÿ                                                                     Ÿ
                                   20387              Ÿ  TIMRINIT -- Routine to start up real-time timer task.              Ÿ
                                   20388              Ÿ    Called from the INIT module.                                     Ÿ
                                   20389              Ÿ                                                                     Ÿ
                                   20390              Ÿ    Note:  Since WYLBUR is link-edited with an addressing mode       Ÿ
                                   20391              Ÿ           of 24 the TIMER subtask must manually switch to           Ÿ
                                   20392              Ÿ           31 bit mode to insure that its exit routines are          Ÿ
                                   20393              Ÿ           scheduled in 31 bit mode.                                 Ÿ
                                   20394              Ÿ                                                                     Ÿ
                                                      ¾þþþþþþþþþþþþþþþþþþþþþþþþþþþþþþþþþþþþþþþþþþþþþþþþþþþþþþþþþþþþþþþþþþþþþ»
00023E0 50E0 D000/9008_      00000 20395              TIMRINIT XPROC
 USING  *,R7
 0023FA 4500 700C/E3C9_      02406 20435                       IDENTIFY EP=TIMER,ENTRY=TIMER
 00240C 41F0 701A/47F0_      02414 20441                       ATTACH EP=TIMER,ECB=TIMRECB
 00245E 5010 70C6            024C0 20471                       ST    R1,TIMRTCB          Save TIMER task TCB addr
 002462 18D8/9808 D004_            20472                       PEND  ,
 DROP   *,R7
1TERM     (TERM2193) (12:56) (15MAR04) WYLBUR's Terminal Routines                                                           Page   67
0Current Usings:  (MILINFO,R6) (CP,R11) (CV,R12)
0Loc    Object Code    Addr1 Addr2  Stmt Lv Lineno    Source Statement           (Hibal 5, Asmedit 3.3)  HLASM R4.0  2004/03/15 12.56
+___    ______ ____    _____ _____  ____ __ ______    ______ _________
0                                  20493              ¿þþþþþþþþþþþþþþþþþþþþþþþþþþþþþþþþþþþþþþþþþþþþþþþþþþþþþþþþþþþþþþþþþþþþþÜ
                                   20494              Ÿ                                                                     Ÿ
                                   20495              Ÿ  TIMRSTOP -- Routine to terminate real-time timer task.             Ÿ
                                   20496              Ÿ    Called from the FAIL module.                                     Ÿ
                                   20497              Ÿ                                                                     Ÿ
                                                      ¾þþþþþþþþþþþþþþþþþþþþþþþþþþþþþþþþþþþþþþþþþþþþþþþþþþþþþþþþþþþþþþþþþþþþþ»
0002470 50E0 D000/9008_      00000 20498              TIMRSTOP XPROC
 USING  *,R7
 00248A D603 7036 7036_024C0 024C0 20538                       IF    (TIMRTCB,NZ),BEGIN
 002494 4110 7036/0A3E       024C0 20554  1                      DETACH TIMRTCB            Terminate subtask
 00249A 4100 0001/4110_      00001 20559  1                      WAIT  ECB=TIMRECB         Wait for completion
 0024A4 D703 7036 7036_024C0 024C0 20566  1                      CLEAR TIMRTCB,TIMRECB
 0024B0                            20578                       END
 0024B0 18D8/9808 D004_            20582                       PEND  ,
 DROP   *,R7
                                   20602
 0024BE 0000
 0024C0 00000000                   20603              TIMRTCB  DC    F'0'
 0024C4 00000000                   20604              TIMRECB  DC    F'0'
1TERM     (TERM2193) (12:56) (15MAR04) WYLBUR's Terminal Routines                                                           Page   68
0Current Usings:  (MILINFO,R6) (CP,R11) (CV,R12)
0Loc    Object Code    Addr1 Addr2  Stmt Lv Lineno    Source Statement           (Hibal 5, Asmedit 3.3)  HLASM R4.0  2004/03/15 12.56
+___    ______ ____    _____ _____  ____ __ ______    ______ _________
0000000                00000 0001C 20606              TQE      RECORD BEGIN
 000000                            20614  1                      DS    CL4'TQE'
 000004                            20615  1           TQELINK    DS    A                   Next TQE ptr (or zero)
 000008                            20616  1           TQEID      DS    F                   This TQE's identification number
 00000C                            20617  1           TQECLCK    DS    XL8                 Expiration TOD clock
 000014                            20618  1           TQERTN     DS    A                   Exit routine addr
 000018                            20619  1           TQEPARM    DS    A                   Exit routine parm
 00001C                0001C 0001C 20620                       END
-000000                00000 00028 20630              TIMRQWA  RECORD BEGIN
                                   20638  1                      XSA   R2,R8
 000000 0000000000000000           20639  1 01-XSA   +           DC    (R8+2-(R2))A(0)
                                   20640  1
 000020                            20641  1           TIMRQVAL   DS    2A                  Saved exit routine, parm
 000028                00028 00028 20642                       END
-                                  20652              ¿þþþþþþþþþþþþþþþþþþþþþþþþþþþþþþþþþþþþþþþþþþþþþþþþþþþþþþþþþþþþþþþþþþþþþÜ
                                   20653              Ÿ                                                                     Ÿ
                                   20654              Ÿ  TIMERQ -- Routine to queue timer entry.                            Ÿ
                                   20655              Ÿ                                                                     Ÿ
                                   20656              Ÿ    On entry:                                                        Ÿ
                                   20657              Ÿ      R15- timer interval in .01 sec                                 Ÿ
                                   20658              Ÿ      R0 - exit routine addr                                         Ÿ
                                   20659              Ÿ      R1 - parm ptr                                                  Ÿ
                                   20660              Ÿ                                                                     Ÿ
                                   20661              Ÿ    On exit:                                                         Ÿ
                                   20662              Ÿ      R15- timer id for dequeue                                      Ÿ
                                   20663              Ÿ                                                                     Ÿ
                                                      ¾þþþþþþþþþþþþþþþþþþþþþþþþþþþþþþþþþþþþþþþþþþþþþþþþþþþþþþþþþþþþþþþþþþþþþ»
00024C8 50E0 D000/9008_      00000 20664              TIMERQ   XPROC TIMRQWA
 USING  *,R7
 USING  TIMRQWA-(4+36),R8
                                   20715
 0024E2 183F                       20716                       LR    R3,R15
 0024E4 5930 727A/47B0_      0275C 20717                       FLOOR R3,0
 0024F0 9001 8048            00020 20736                       STM   R0,R1,TIMRQVAL      Save exit routine, parm ptrs
                                   20737
 0024F4 4510 701A/0000_      024FC 20738                       GETMAIN R,LV=L'TQE        Get storage for a TQE
 002502 1861                       20745                       LR    R6,R1
 DROP   MILINFO,R6                 20746                       USING TQE,R6
 USING  TQE,R6
                                   20758
 002504 D71B 6000 6000 00000 00000 20759                       CLEAR TQE
 00250A D203 6000 727E 00000 02760 20766                       MVC   TQE(4),=CL4'TQE'
 002510 5C20 7282            02764 20767                       M     R2,=F'40960000'     Convert to tod clock units
 002514 B205 D000      00000       20768                       STCK  @R13
 002518 5E30 D004/47C0_      00004 20769                       ADL   R2,@R13
 002528 9023 600C            0000C 20790                       STM   R2,R3,TQECLCK       Tod clock at expiration
 00252C D207 6014 8048 00014 00020 20791                       MVC   TQERTN(8),TIMRQVAL  Exit routine addr, parm ptr
1TERM     (TERM2193) (12:56) (15MAR04) WYLBUR's Terminal Routines                                                           Page   69
0Current Usings:  (TQE,R6) (*,R7) (TIMRQWA-(4+36),R8) (CP,R11) (CV,R12)
0Loc    Object Code    Addr1 Addr2  Stmt Lv Lineno    Source Statement           (Hibal 5, Asmedit 3.3)  HLASM R4.0  2004/03/15 12.56
+___    ______ ____    _____ _____  ____ __ ______    ______ _________
0                                  20792                       ¿þþþþþþþþþþþþþþþþþþþþþþþþþþþþþþþþþþþþþþþþþþÜ
                                   20793                       Ÿ  Generate a timer id (used in TIMERDQ).  Ÿ
                                   20794                       ¾þþþþþþþþþþþþþþþþþþþþþþþþþþþþþþþþþþþþþþþþþþ»
 002532                            20795                       LOOP  BEGIN
 002532 5800 C1FC            001FC 20801  1                      L     R0,CVTQEID          Last timer id
 002536 41F0 0001            00001 20802  1                      LA    R15,1
 00253A 1AF0                       20803  1                      AR    R15,R0              Increment id number
 00253C 50F0 6008            00008 20804  1                      ST    R15,TQEID           Save id in our TQE
 002540 BA0F C1FC            001FC 20805  1                      CS    R0,R15,CVTQEID
 002544 4780 706A            0254C 20806  1                      UNTIL Z
 002548 47F0 7050            02532 20821                       END
                                   20826                       ¿þþþþþþþþþþþþþþþþþþþþþþþþþþþþþþþþþþþþþþþþþþþþþþþÜ
                                   20827                       Ÿ  Add our TQE (in sorted order) to the queue.  Ÿ
                                   20828                       ¾þþþþþþþþþþþþþþþþþþþþþþþþþþþþþþþþþþþþþþþþþþþþþþþ»
 00254C 58F0 C088/4110_      00088 20829                       SET   CVLOCK1.CVL1TQ,MODE=LOCKED,REF=CV   Lock to run q
 002564                            20843                       LOOP  BEGIN
 002564 41F0 C1F4            001F4 20849  1                      LA    R15,CVTQEQH-(TQELINK-TQE)  Dummy first entry
 002568 182F                       20850  1                      LR    R2,R15
                                   20851  1
 00256A                            20852  1                      LOOP  BEGIN
 00256A 185F                       20858  2                        LR    R5,R15              Save prev ptr
 USING  TQE,R15                    20859  2                        WITH  (TQE,R15)
 00256C 58F0 F004/12FF_      00004 20872  2                        WHILE ('LT R15,TQELINK',NZ)
 002576 D507 F00C 600C 0000C 0000C 20889  2                        CLC   TQECLCK,TQECLCK-TQE(R6)  Add entry before this one?
 00257C 4720 70A2            02584 20890  2                        IF    GT,EXIT             Yes
 002580 47F0 7088            0256A 20904  1                      END
 DROP   TQE,R15
                                   20914  1
 002584 D203 6004 5004 00004 00004 20915  1                      MVC   TQELINK,TQELINK-TQE(R5)  Our link ptr
 00258A BAF6 5004            00004 20916  1                      CS    R15,R6,TQELINK-TQE(R5)  Add us to the TQE queue
 00258E 4780 70B4            02596 20917  1                      UNTIL Z
 002592 47F0 7082            02564 20932                       END
 00278A 7F/41F0 0001/1_02784 02AA8 20937                       CLEAR CVLOCK1.CVL1TQ,MODE=LOCKED,REF=CV   Unlock when done
                                   20982                       ¿þþþþþþþþþþþþþþþþþþþþþþþþþþþþþþþþþþþþþþþþþþþþþþþþþþþþþþþþÜ
                                   20983                       Ÿ  Post timer subtask if this is the smallest interval.  Ÿ
                                   20984                       ¾þþþþþþþþþþþþþþþþþþþþþþþþþþþþþþþþþþþþþþþþþþþþþþþþþþþþþþþþ»
 0025B4 1952/4770 70E0             20985                       IF    (R5,EQ,R2),BEGIN    Set a new timer...
 0025BA 1B00/4110 72C2_            21000  1                      POST  TSUBECB             Subtask actually sets the timer
 0025C2                            21006                       END
                                   21010
 0025C2 58F0 C1FC            001FC 21011                       L     R15,CVTQEID         Return the timer id
 0025C6 18D8/9808 D004_            21012                       PEND  ,
 DROP   TIMRQWA-(4+36),R8
 DROP   *,R7
 DROP   TQE,R6                     21037                       DROP  TQE
1TERM     (TERM2193) (12:56) (15MAR04) WYLBUR's Terminal Routines                                                           Page   70
0Current Usings:  (CP,R11) (CV,R12)
0Loc    Object Code    Addr1 Addr2  Stmt Lv Lineno    Source Statement           (Hibal 5, Asmedit 3.3)  HLASM R4.0  2004/03/15 12.56
+___    ______ ____    _____ _____  ____ __ ______    ______ _________
0                                  21046              ¿þþþþþþþþþþþþþþþþþþþþþþþþþþþþþþþþþþþþþþþþþþþþþþþþþþþþþþþþþþþþþþþþþþþþþÜ
                                   21047              Ÿ                                                                     Ÿ
                                   21048              Ÿ  TIMERDQ -- Routine to dequeue a timer entry.                       Ÿ
                                   21049              Ÿ                                                                     Ÿ
                                   21050              Ÿ    On entry:                                                        Ÿ
                                   21051              Ÿ      R15 - timer id                                                 Ÿ
                                   21052              Ÿ                                                                     Ÿ
                                   21053              Ÿ    On exit, R15 (and cc):                                           Ÿ
                                   21054              Ÿ      0 - entry has been dequeued                                    Ÿ
                                   21055              Ÿ      nz- no such entry                                              Ÿ
                                   21056              Ÿ                                                                     Ÿ
                                                      ¾þþþþþþþþþþþþþþþþþþþþþþþþþþþþþþþþþþþþþþþþþþþþþþþþþþþþþþþþþþþþþþþþþþþþþ»
0DROP   CP,R11                     21057                       DROP  CP                  (No CP addressability)
                                   21065
 0025D4 50E0 D000/9008_      00000 21066              TIMERDQ  XPROC TRACE=NO
 USING  *,R7
                                   21105                       ¿þþþþþþþþþþþþþþþþþÜ
                                   21106                       Ÿ  Find our TQE.  Ÿ
                                   21107                       ¾þþþþþþþþþþþþþþþþþ»
 0025E4 182F                       21108                       LR    R2,R15              Save timer id
 0025E6 58F0 C088/4110_      00088 21109                       SET   CVLOCK1.CVL1TQ,MODE=LOCKED,REF=CV   Lock to run q
 0025FE                            21123                       LOOP  BEGIN
 0025FE 4160 C1F4            001F4 21129  1                      LA    R6,CVTQEQH-(TQELINK-TQE)  Dummy first queue entry
 USING  TQE,R6                     21130  1                      USING TQE,R6
                                   21139  1
 002602                            21140  1                      LOOP  BEGIN               Find TQE in queue...
 002602 1856                       21146  2                        LR    R5,R6               Save previous ptr
 002604 5860 6004/1266_      00004 21147  2                        IF    ('LT R6,TQELINK',Z),TDQEXIT
 00260E 5920 6008/4780_      00008 21166  2                        UNTIL (TQEID,EQ,R2)       Found our TQE, scram
 002616 47F0 701E            02602 21187  1                      END
                                   21192  1
 00261A 5820 6004            00004 21193  1                      L     R2,TQELINK          Our forward ptr
 00261E BA62 5004            00004 21194  1                      CS    R6,R2,TQELINK-TQE(R5)  Unlink our entry
 002622 4780 7046            0262A 21195  1                      UNTIL Z
 002626 47F0 701A            025FE 21210                       END
 002790 7F/41F0 0001/1_02784 02AA8 21215                       CLEAR CVLOCK1.CVL1TQ,MODE=LOCKED,REF=CV   Unlock when done
                                   21260                       ¿þþþþþþþþþþþþþþþþþþþþÜ
                                   21261                       Ÿ  Release our TQE.  Ÿ
                                   21262                       ¾þþþþþþþþþþþþþþþþþþþþ»
 002648 D203 6000 7188 00000 0276C 21263                       MVC   TQE(4),=C'OTQE'
 00264E D203 6004 718C 00004 02770 21264                       MVC   TQELINK,=F'-1'      Safety
 002654 D703 6008 6008 00008 00008 21265                       CLEAR TQEID
 00265A 1816/4100 001C             21272                       SETMSG TQE
 002660 4110 1000/0A0A       00000 21286                       FREEMAIN R,A=(1),LV=(0)   Release entry
1TERM     (TERM2193) (12:56) (15MAR04) WYLBUR's Terminal Routines                                                           Page   71
0Current Usings:  (TQE,R6) (*,R7) (CV,R12)
0Loc    Object Code    Addr1 Addr2  Stmt Lv Lineno    Source Statement           (Hibal 5, Asmedit 3.3)  HLASM R4.0  2004/03/15 12.56
+___    ______ ____    _____ _____  ____ __ ______    ______ _________
0                                  21290                  ¿þþþþþþþþþþþþþþþþþþþþþþþþþþþþþþþþþþþþþþþþþþþþþþþþþþþþþþþþþþþþþþþþþþþþÜ
                                   21291                  Ÿ   We don't need to recalculate the STIMER interval here.  Even if  Ÿ
                                   21292                  Ÿ       the event we are removing is the first in the queue (and     Ÿ
                                   21293                  Ÿ    therefore the shortest amount of time), the current timer will  Ÿ
                                   21294                  Ÿ   fire and the subtask will determine that there is no work to do  Ÿ
                                   21295                  Ÿ    and then recalculate the time until the new first event.  (Why  Ÿ
                                   21296                  Ÿ  didn't I think about that when doing these routines for MILTEN!)  Ÿ
                                   21297                  ¾þþþþþþþþþþþþþþþþþþþþþþþþþþþþþþþþþþþþþþþþþþþþþþþþþþþþþþþþþþþþþþþþþþþþ»
 002666 1BFF                       21298                       CLEAR R15                 Return A-ok
 002668 18D8/9808 D004_            21302              TDQEXIT  PEND  ,
 DROP   *,R7
 DROP   TQE,R6                     21323                       DROP  TQE,BR
                                   21334
 USING  CP,R11                     21335                       USING CP                  (CP addressability restored)
1TERM     (TERM2193) (12:56) (15MAR04) WYLBUR's Terminal Routines                                                           Page   72
0Current Usings:  (CP,R11) (CV,R12)
0Loc    Object Code    Addr1 Addr2  Stmt Lv Lineno    Source Statement           (Hibal 5, Asmedit 3.3)  HLASM R4.0  2004/03/15 12.56
+___    ______ ____    _____ _____  ____ __ ______    ______ _________
0                                  21345              ***
                                   21346              ***  Real-Time Timing Subtask.
                                   21347              ***
                                   21348              ***  The mother task maintains a linked list of timer events
                                   21349              ***  (sorted with the shortest interval first).
                                   21350              ***
                                   21351              ***  This subtask is responsible for calling the timer event's
                                   21352              ***  exit routine when it's time has come.  Note that the exit
                                   21353              ***  routine is run under the subtask, and no CP or user stack
                                   21354              ***  addressability can be assumed.
                                   21355              ***
                                   21356              ***  The subtask can be posted because an event is ready or
                                   21357              ***  because a new event was added by the mother task.  The
                                   21358              ***  subtask doesn't care why it was posted, it simply processes
                                   21359              ***  ready events (if any) and then calculates the amount of time
                                   21360              ***  to sleep until the first event happens.
                                   21361              ***
 DROP   CP,R11                     21362                       DROP  CP                  No user addressability
                                   21370
 002676 0D70                       21371              TIMER    BASE
 USING  *,R7
 002678 58C0 70FC            02774 21385                       L     CVR,=V(CV)
 00267C 1BBB                       21386                       CLEAR CPR                 Safety
 00267E 58E0 7100/0DEE       02778 21390                       VCALL AMODE31             **** Set default 31-bit mode ****
 002684 41D0 7130            027A8 21394                       LA    R13,TSUBSTK         Timer task...
 002688 188D                       21395                       LR    R8,R13              ...stack
                                   21396
 00268A 1B11/4100 0001_            21397                       CHAP  +1                  We should be above main task
                                   21401                       ¿þþþþþþþþþþþþþþþþþþþþþþÜ
                                   21402                       Ÿ  Main subtask loop.  Ÿ
                                   21403                       ¾þþþþþþþþþþþþþþþþþþþþþþ»
 002692                            21404              TSUBLOOP LOOP  BEGIN               A subtask's work is never done...
 002692 D703 712C 712C 027A4 027A4 21411  1                      CLEAR TSUBECB             Reset ecb
 002698 B205 7120      02798       21418  1                      STCK  TSUBCLCK            Current clock
 00269C 1B22                       21419  1                      CLEAR R2
 00269E 4130 00C8            000C8 21423  1                      LA    R3,2*100            Default timer is 2 seconds
                                   21424  1                      ¿þþþþþþþþþþþþþþþþþþþþþþþþþþþþþÜ
                                   21425  1                      Ÿ  Process all ready events.  Ÿ
                                   21426  1                      ¾þþþþþþþþþþþþþþþþþþþþþþþþþþþþþ»
 0026A2 5860 C1F8            001F8 21427  1                      L     R6,CVTQEQH          First entry
 0026A6 1266/4780 7070             21428  1           TSUBQLP    IF    (R6,NZ),BEGIN       Process timer entry...
 USING  TQE,R6                     21443  2                        WITH  (TQE,R6)
 0026AC 58F0 6008            00008 21456  2                        L     R15,TQEID           This TQE's timer id
 0026B0 9823 600C            0000C 21457  2                        LM    R2,R3,TQECLCK       Time when event happens
 0026B4 5F30 7124/47B0_      0279C 21458  2                        SDL   R2,TSUBCLCK         Amount of time until event happens
 0026C2 5D20 70EC            02764 21463  2                        D     R2,=F'40960000'     Convert to .01 seconds
 0026C6 1222/4780 7058_            21464  2                        IF    (R2,NZ),'INCR R3'   To next .01 second
                                   21486  2
 0026D0 1233/4720 7070             21487  2                        IF    (R3,NP),BEGIN       Event is complete...
 0026D6 9823 6014            00014 21501  3                          LM    R2,R3,TQERTN        Get information from TQE
 0026DA 58E0 70D0/0DEE       02748 21502  3                          ACALL TIMERDQ             Take TQE off queue (frees TQE)
 0026E0 1813                       21506  3                          LR    R1,R3               Parm ptr
 0026E2 0DE2                       21507  3                          BASR  RAR,R2              Go to exit routine
 0026E4 47F0 701A            02692 21508  3                          B     TSUBLOOP
1TERM     (TERM2193) (12:56) (15MAR04) WYLBUR's Terminal Routines                                                           Page   73
0Current Usings:  (TQE,R6) (*,R7) (CV,R12)
0Loc    Object Code    Addr1 Addr2  Stmt Lv Lineno    Source Statement           (Hibal 5, Asmedit 3.3)  HLASM R4.0  2004/03/15 12.56
+___    ______ ____    _____ _____  ____ __ ______    ______ _________
00026E8                            21509  2                        END
 DROP   TQE,R6                     21513  1                      END
                                   21522  1                      ¿þþþþþþþþþþþþþþþþþþþþþþþþþþþþþþþþþþþþþþþþþþþþþþþþþþþþþþþþþÜ
                                   21523  1                      Ÿ  Set a timer for the shortest interval (or 2 seconds).  Ÿ
                                   21524  1                      ¾þþþþþþþþþþþþþþþþþþþþþþþþþþþþþþþþþþþþþþþþþþþþþþþþþþþþþþþþþ»
 0026E8 5030 7128            027A0 21525  1                      ST    R3,TSUBWORK         Interval to wait
                                   21526  1
 0026EC 5800 7104            0277C 21527  1                      L     R0,=A(TSUBEXIT)
 0026F0 4110 7128/18F0_      027A0 21528  1                      STIMER REAL,(0),BINTVL=TSUBWORK  Set interval timer
                                   21536  1                      ¿þþþþþþþþþþþþþþþþþþþþþþþþþþþþþþþþþþþþþþþþþþþþþþþþþþþÜ
                                   21537  1                      Ÿ  Post mother task at least once every 2 seconds.  Ÿ
                                   21538  1                      ¾þþþþþþþþþþþþþþþþþþþþþþþþþþþþþþþþþþþþþþþþþþþþþþþþþþþ»
 002700 58F0 7120            02798 21539  1                      L     R15,TSUBCLCK
 002704 5FF0 C630            00630 21540  1                      SL    R15,CVDSPCLK
 002708 59F0 7108/4750_      02780 21541  1                      IF    (R15,GE,2),BEGIN    Better post mother...
 002710 4110 C720            00720 21558  2                        LA    R1,CVECB
 002714 1B00/4110 1000_            21559  2                        POST  (1)                 Post main ECB
 00271C                            21565  1                      END
                                   21569  1           *
                                   21570  1           * Wait for something to happen.
                                   21571  1           *
 00271C 4100 0001/4110_      00001 21572  1                      WAIT  ECB=TSUBECB         Wait for event/mother's post
 002726 47F0 701A            02692 21579                       END
                                   21584
 DROP   *,R7                       21585                       DROP  BR
1TERM     (TERM2193) (12:56) (15MAR04) WYLBUR's Terminal Routines                                                           Page   74
0Current Usings:  (CV,R12)
0Loc    Object Code    Addr1 Addr2  Stmt Lv Lineno    Source Statement           (Hibal 5, Asmedit 3.3)  HLASM R4.0  2004/03/15 12.56
+___    ______ ____    _____ _____  ____ __ ______    ______ _________
0                                  21593              ¿þþþþþþþþþþþþþþþþþþþþþþþþþþþþþþþþþþþþþþþþþþþþþþþþþþþþþþþþþþþþþþþþþþþþþÜ
                                   21594              Ÿ                                                                     Ÿ
                                   21595              Ÿ  STIMER exit routine (Called from OS and runs as an IRB).           Ÿ
                                   21596              Ÿ    Post subtask and return.                                         Ÿ
                                   21597              Ÿ                                                                     Ÿ
                                                      ¾þþþþþþþþþþþþþþþþþþþþþþþþþþþþþþþþþþþþþþþþþþþþþþþþþþþþþþþþþþþþþþþþþþþþþ»
0USING  TSUBEXIT,R15               21598              TSUBEXIT WITH  (TSUBEXIT,R15),BEGIN
 00272A 900F D000            00000 21613  1                      STM   R0,R15,@R13         Save regs
 00272E 1B00/4110 F07A_            21614  1                      POST  TSUBECB             Post subtask
 002736 980F D000            00000 21620  1                      LM    R0,R15,@R13
 00273A 07FE                       21621  1                      BR    R14                 Return to OS
 DROP   TSUBEXIT,R15               21622                       END
                                   21630
                                   21631                       QLTORG
                                   21660              *
                                   21661              * Subtask work cells.
                                   21662              *
 002798                            21663              TSUBCLCK DS    D                   Current clock
 0027A0                            21664              TSUBWORK DS    F
 0027A4                            21665              TSUBECB  DS    F
                                   21666
 0027A8                            21667              TSUBSTK  DS    XL512               Timer subtask's stack area
                                   21668
                                   21669              .NOMISC2 ANOP  ,                   *** PCODE
                                   21670                       AIF   (NOT &$PCODE).NONEWTIO
                                   21671              .NONEWTIO ANOP
1TERM     (TERM2193) (12:56) (15MAR04) WYLBUR's Terminal Routines                                                           Page   75
0Current Usings:  (CV,R12)
0Loc    Object Code    Addr1 Addr2  Stmt Lv Lineno    Source Statement           (Hibal 5, Asmedit 3.3)  HLASM R4.0  2004/03/15 12.56
+___    ______ ____    _____ _____  ____ __ ______    ______ _________
0                                  21673              *
                                   21674                       QLTORG
                                   21686
                                   21687                       VLTORG
 002AA8                02AA8 02AA8 21705                       END   .

1TERM     (TERM2193) (12:56) (15MAR04) Relocation Dictionary                                                                Page   76
-   Pos.Id   Rel.Id   Flags    Address                                                       HLASM R4.0  2004/03/15 12.56
0  00000001 00000001    0C    00000070
   00000001 00000001    08    000001BD
   00000001 00000001    08    00000243
   00000001 00000001    0C    00000268
   00000001 00000001    0C    000006E8
   00000001 00000001    0C    000006F0
   00000001 00000001    0C    000006F4
   00000001 00000001    0C    000006F8
   00000001 00000001    0C    00000718
   00000001 00000001    0C    0000071C
   00000001 00000001    08    00000AF3
   00000001 00000001    0C    00001128
   00000001 00000001    0C    00001144
   00000001 00000001    0C    00001154
   00000001 00000001    0C    00001158
   00000001 00000001    0C    0000115C
   00000001 00000001    0C    00001188
   00000001 00000001    08    00001A4D
   00000001 00000001    0C    00001B08
   00000001 00000001    0C    00001B10
   00000001 00000001    0C    00001B14
   00000001 00000001    0C    00001B18
   00000001 00000001    0C    00001C20
   00000001 00000001    0C    00001C24
   00000001 00000001    08    00001D57
   00000001 00000001    08    00001DC3
   00000001 00000001    0C    00001EB4
   00000001 00000001    0C    00001EB8
   00000001 00000001    0C    00001EC4
   00000001 00000001    08    00001F43
   00000001 00000001    08    00001FE9
   00000001 00000001    08    00002095
   00000001 00000001    08    0000211F
   00000001 00000001    08    000021B9
   00000001 00000001    0C    00002250
   00000001 00000001    0C    0000225C
   00000001 00000001    0C    00002260
   00000001 00000001    0C    00002264
   00000001 00000001    0C    00002268
   00000001 00000001    0C    0000226C
   00000001 00000001    08    000022C1
   00000001 00000001    0C    00002414
   00000001 00000001    0C    0000241C
   00000001 00000001    0C    00002740
   00000001 00000001    0C    00002748
   00000001 00000001    0C    0000277C
   00000001 00000002    1C    00000270
   00000001 00000002    1C    00001140
   00000001 00000002    1C    000016C8
   00000001 00000003    1C    000002AC
   00000001 00000003    1C    000006EC
   00000001 00000003    1C    00001118
   00000001 00000003    1C    000016D4
   00000001 00000004    1C    000006FC
   00000001 00000004    1C    0000113C
1TERM     (TERM2193) (12:56) (15MAR04) Relocation Dictionary                                                                Page   77
   00000001 00000005    1C    0000070C
   00000001 00000006    1C    00000710
   00000001 00000006    1C    00001124
   00000001 00000007    1C    00000714
   00000001 00000007    1C    00001130
   00000001 00000008    1C    00001120
   00000001 00000009    1C    0000112C
   00000001 00000009    1C    000016C0
   00000001 00000009    1C    00001EBC
   00000001 0000000A    1C    00001148
   00000001 0000000A    1C    00002744
   00000001 0000000B    1C    0000114C
   00000001 0000000B    1C    0000274C
   00000001 0000000C    1C    00001150
   00000001 0000000C    1C    00002750
   00000001 0000000D    1C    00001160
   00000001 0000000E    1C    00001164
   00000001 0000000E    1C    00002758
   00000001 0000000F    1C    00001184
   00000001 0000000F    1C    000016C4
   00000001 00000010    1C    000016A0
   00000001 00000011    1C    000016A4
   00000001 00000012    1C    000016AC
   00000001 00000013    1C    000016B4
   00000001 00000014    1C    000016B8
   00000001 00000015    1C    000016BC
   00000001 00000016    1C    000016CC
   00000001 00000017    1C    000016D0
   00000001 00000018    1C    000016D8
   00000001 00000019    1C    000016DC
   00000001 0000001A    1C    000016E8
   00000001 0000001B    1C    00001B0C
   00000001 0000001B    1C    00002754
   00000001 0000001C    1C    00001B30
   00000001 0000001D    1C    00001B90
   00000001 0000001E    1C    00001EA8
   00000001 0000001F    1C    00001EAC
   00000001 00000020    1C    00001EB0
   00000001 00000021    1C    00001EC0
   00000001 00000022    1C    00001ED0
   00000001 00000023    1C    00001ED4
   00000001 00000024    1C    00002254
   00000001 00000025    1C    00002274
   00000001 00000026    1C    00002278
   00000001 00000027    1C    00002774
   00000001 00000028    1C    00002778

1TERM     (TERM2193) (12:56) (15MAR04) Ordinary Symbol and Literal Cross Reference                                          Page   78
-Symbol   Length   Value     Id    R Type   Defn References                                  HLASM R4.0  2004/03/15 12.56
0$$$@R0        1 00000000 FFFFFFFE     J     705  1016
 $$$@R10       1 00000000 FFFFFFF4     J     835  1093
 $$$@R11       1 00000000 FFFFFFF3     J     848  1106
 $$$@R12       1 00000000 FFFFFFF2     J     861  1119
 $$$@R13       1 00000000 FFFFFFF1     J     874  1132
 $$$@R14       1 00000000 FFFFFFF0     J     887  1145
 $$$@R5        1 00000000 FFFFFFF9     J     770  1029
 $$$@R7        1 00000000 FFFFFFF7     J     796  1042
 $$$@R8        1 00000000 FFFFFFF6     J     809  1055   1067
 $$$@R9        1 00000000 FFFFFFF5     J     822  1080
 $$$C1WYLTERM
               1 00000144 00000001     J    7770  7772
 $$$C10WYLTERM
               1 00002284 00000001     J   19883 19885  20313  20332  20627  20649  20955  20974  21233  21252
 $$$C11WYLTERM
               1 00002796 00000001     J   21655 21657
 $$$C12WYLTERM
               1 000029A8 00000001     J   21681 21683
 $$$C13WYLTERM
               1 00002AA8 00000001     J   21708 21710
 $$$C2WYLTERM
               1 00000289 00000001     J    8155  8157   8323   9293   9398  10085
 $$$C3WYLTERM
               1 00000784 00000001     J   10255 10257  10536  11248  13602
 $$$C4WYLTERM
               1 00001232 00000001     J   14247 14249  14269  14612  15083
 $$$C5WYLTERM
               1 00001826 00000001     J   15938 15940
 $$$C6WYLTERM
               1 00001B36 00000001     J   17296 17298
 $$$C7WYLTERM
               1 00001B94 00000001     J   17407 17409
 $$$C8WYLTERM
               1 00001C28 00000001     J   17620 17622  17881  18246
 $$$C9WYLTERM
               1 00001EDE 00000001     J   18636 18638  18878
 $$$D10WYLTERM
               1 00002784 00000001     J   19884 20303  20321  20945  20963  21223  21241
 $$$D2WYLTERM
               1 00000778 00000001     J    8156  9387  10074
 $$$D3WYLTERM
               1 0000122B 00000001     J   10256 11237
 $$$D4WYLTERM
               1 0000181F 00000001     J   14248 14601
 $$$D9WYLTERM
               1 0000227E 00000001     J   18637 18867
 $$$RCELLBLOK
               1 00000000 FFFFFFE1     J    7287  7310   7310
 $$$RCP        1 00000000 FFFFFFEC     J    2465  4725   6199   6199
 $$$RCV        1 00000000 FFFFFFEE     J    1190  2375   2375
 $$$RDEV       1 00000000 FFFFFFEB     J    4679  4724   4724
 $$$RJCB       1 00000000 FFFFFFE2     J    7008  7282   7282
 $$$RKWRRSC
               1 00000000 FFFFFFE8     J    6328  6575   6575
 $$$RNSCNCB
1TERM     (TERM2193) (12:56) (15MAR04) Ordinary Symbol and Literal Cross Reference                                          Page   79
               1 00000000 FFFFFFED     J    2386  2459   2459
 $$$RPATHD
               1 00000000 FFFFFFE7     J    6589  6662   6662
 $$$RPDB       1 00000000 FFFFFFE3     J    6811  7002   7002
 $$$RRDWD      1 00000000 FFFFFFE4     J    6777  6805   6805
 $$$RRESOURCE
               1 00000000 FFFFFFE5     J    6730  6771   6771
 $$$RRSCGROUP
               1 00000000 FFFFFFE6     J    6669  6724   6724
 $$$RSEGCB
               1 00000000 FFFFFFE0     J    7320  7420   7420
 $$$RSPDBWA
               1 00000000 FFFFFFD8     J   17864 17880  17880
 $$$RSPENDWA
               1 00000000 FFFFFFD7     J   18231 18245  18245
 $$$RTIMRQWA
               1 00000000 FFFFFFD5     J   20632 20648  20648
 $$$RTINITWA
               1 00000000 FFFFFFDF     J    7572  7587   7587
 $$$RTNOTWA
               1 00000000 FFFFFFDB     J   13491 13601  13601
 $$$RTQE       1 00000000 FFFFFFD6     J   20608 20626  20626
 $$$RTRENDWA
               1 00000000 FFFFFFDC     J   10522 10535  10535
 $$$RTTYPE
               1 00000000 FFFFFFEA     J    6210  6311   6311
 $$$RTWA       1 00000000 FFFFFFDE     J    8230  8322   8322
 $$$RTWSWA
               1 00000000 FFFFFFDA     J   14255 14268  14268
 $$$RTWTOWA
               1 00000000 FFFFFFDD     J    9276  9292   9292
 $$$RTXDWA
               1 00000000 FFFFFFD9     J   15068 15082  15082
 $$$R42        1 00000000 FFFFFFE9     J    6318  6576
 $$$SEGCB0
               4 00000050 FFFFFFEC     F    2496  2582   2582
 $$$SEGCB243
               4 00000020 FFFFFFDB     F   13501 13587  13587
 $$$V01       23 000029A8 00000001     C   21693  7947
 $$$V010      23 00002A8A 00000001     C   21702 19975
 $$$V02       21 000029BF 00000001     C   21694  8106
 $$$V03       23 000029D4 00000001     C   21695 11619
 $$$V04       30 000029EB 00000001     C   21696 16978
 $$$V05       23 00002A09 00000001     C   21697 18077  18170  19633
 $$$V06       30 00002A20 00000001     C   21698 18794
 $$$V07       32 00002A3E 00000001     C   21699 18992
 $$$V08       29 00002A5E 00000001     C   21700 19173
 $$$V09       15 00002A7B 00000001     C   21701 19321
 $$$Z4         4 00001690 00000001     F   15906 15173  15188
 $$$101B       4 0000043A 00000001     I    9096  9125
 $$$102B       4 00000454 00000001     I    9143  9160
 $$$102E       2 00000450 00000001     H    9134  9126   9128
 $$$102F       2 0000045A 00000001     H    9156  9130B  9143B  9159
 $$$104B       4 0000046A 00000001     I    9190  9206
 $$$104E       2 0000045E 00000001     H    9167  9161
 $$$104F       2 00000474 00000001     H    9203  9163B  9190B  9205
 $$$104T       2 0000046E 00000001     H    9193  9180B
 $$$107E       2 00000478 00000001     H    9213  9207
 $$$107F       2 0000047E 00000001     H    9223  9209B
1TERM     (TERM2193) (12:56) (15MAR04) Ordinary Symbol and Literal Cross Reference                                          Page   80
 $$$108        1 000000B0 00000001 A   U    9269  9266   9268
 $$$110B       1 000004BA 00000001     X    9323  9330U
 $$$111F       2 000004C6 00000001     H    9357  9348B
 $$$112F       2 000004EC 00000001     H    9403  9379B
 $$$113        6 00000778 00000001     I    9393  9385X
 $$$114        6 00000778 00000001     I    9392  9393   9393
 $$$115F       2 0000058E 00000001     H    9604  9428B
 $$$116        1 00000050 00000001 A   U    9623  9620   9622
 $$$118B       1 000005B6 00000001     X    9656  9663U
 $$$119F       2 000005CC 00000001     H    9708  9684B  9696B
 $$$121F       2 00000600 00000001     H    9775  9759B
 $$$123F       2 00000640 00000001     H    9878  9796B
 $$$125F       2 0000063C 00000001     H    9872  9811B
 $$$126F       2 00000654 00000001     H    9920  9892B  9905B
 $$$129F       2 000006D6 00000001     H   10185  9933B
 $$$130F       2 00000682 00000001     H    9997  9948B  9981B
 $$$131F       2 0000067A 00000001     H    9984  9966B
 $$$133F       2 0000068E 00000001     H   10016 10007B
 $$$134F       2 0000069E 00000001     H   10050 10035B
 $$$136F       2 000006B2 00000001     H   10090 10066B
 $$$137        6 0000077E 00000001     I   10080 10072X
 $$$138        6 0000077E 00000001     I   10079 10080  10080
 $$$139B       4 000006BA 00000001     I   10117 10135
 $$$139F       2 000006C2 00000001     H   10132 10117B 10134
 $$$140E       2 000006C6 00000001     H   10142 10136
 $$$140F       2 000006CA 00000001     H   10154 10138B
 $$$141        1 00000050 00000001 A   U   10204 10201  10203
 $$$143B       1 0000079E 00000001     X   10296 10303U
 $$$144F       2 000007A8 00000001     H   10329 10319B
 $$$145F       2 000007B2 00000001     H   10348 10338B
 $$$146F       2 000007DA 00000001     H   10411 10380B
 $$$147F       2 00000802 00000001     H   10473 10424B
 $$$148        1 00000050 00000001 A   U   10509 10506  10508
 $$$150B       1 0000083C 00000001     X   10565 10572U
 $$$151F       2 00000854 00000001     H   10612 10602B
 $$$152F       2 000008A4 00000001     H   10722 10627B
 $$$153F       2 0000088C 00000001     H   10698 10661B
 $$$154        1 00000058 00000001 A   U   10746 10743  10745
 $$$156B       1 000008CC 00000001     X   10791 10798U
 $$$157        1 00000050 00000001 A   U   10831 10828  10830
 $$$159B       1 00000902 00000001     X   10861 10868U
 $$$160        1 00000050 00000001 A   U   10904 10901  10903
 $$$162B       1 00000936 00000001     X   10936 10943U
 $$$163F       2 00000950 00000001     H   11002 10980B
 $$$164F       2 00000974 00000001     H   11067 11041B
 $$$165F       2 00000998 00000001     H   11120 11089B
 $$$166F       2 000009B2 00000001     H   11164 11134B 11146B
 $$$168F       2 000009C2 00000001     H   11186 11176B
 $$$169F       2 000009CE 00000001     H   11205 11196B
 $$$170F       2 000009F2 00000001     H   11253 11229B
 $$$171        6 0000122C 00000001     I   11243 11235X
 $$$172        6 0000122C 00000001     I   11242 11243  11243
 $$$174F       2 00000A40 00000001     H   11398 11330B
 $$$175F       2 00000A64 00000001     H   11443 11421B 11433B
 $$$177F       2 00000A74 00000001     H   11465 11455B
 $$$178F       2 00000AD4 00000001     H   11592 11502B
 $$$179F       2 00000AAE 00000001     H   11541 11517B
 $$$180F       2 00000AD0 00000001     H   11581 11553B
 $$$181F       2 00000AF6 00000001     H   11623 11608B
1TERM     (TERM2193) (12:56) (15MAR04) Ordinary Symbol and Literal Cross Reference                                          Page   81
 $$$182F       2 00000B16 00000001     H   11656 11635B
 $$$183F       2 00000B3A 00000001     H   11704 11685B
 $$$184F       2 00000B52 00000001     H   11741 11718B
 $$$185F       2 00000B60 00000001     H   11785 11769B
 $$$187F       2 00000B84 00000001     H   11832 11800B
 $$$188F       2 00000B9A 00000001     H   11865 11847B
 $$$190F       2 00000BDA 00000001     H   11965 11883B
 $$$192F       2 00000BD6 00000001     H   11959 11898B
 $$$193F       2 00000BEA 00000001     H   11990 11980B
 $$$195F       2 00000C04 00000001     H   12037 12002B
 $$$196F       2 00000C00 00000001     H   12032 12022B
 $$$198F       2 00000C46 00000001     H   12119 12050B
 $$$200F       2 00000C42 00000001     H   12114 12102B
 $$$201F       2 00000C7C 00000001     H   12210 12132B
 $$$203F       2 00000D16 00000001     H   12445 12223B
 $$$205F       2 00000C96 00000001     H   12250 12239B
 $$$206F       2 00000CA6 00000001     H   12272 12261B
 $$$207F       2 00000CB6 00000001     H   12294 12283B
 $$$208F       2 00000CE6 00000001     H   12375 12347B 12363B
 $$$210F       2 00000CFA 00000001     H   12399 12388B
 $$$211F       2 00000D3E 00000001     H   12506 12491B
 $$$212        1 000000B0 00000001 A   U   12535 12532  12534
 $$$214B       1 00000D72 00000001     X   12572 12579U
 $$$215F       2 00000DAA 00000001     H   12666 12604B 12626B
 $$$217        1 00000050 00000001 A   U   12684 12681  12683
 $$$219B       1 00000DD6 00000001     X   12730 12737U
 $$$220F       2 00000DF8 00000001     H   12818 12771B 12786B
 $$$224F       2 00000E34 00000001     H   12889 12879B
 $$$226        1 000000B0 00000001 A   U   12913 12910  12912
 $$$228B       1 00000E5C 00000001     X   12958 12965U
 $$$229F       2 00000E96 00000001     H   13045 13029B
 $$$230        1 000000B0 00000001 A   U   13091 13088  13090
 $$$232B       1 00000EDC 00000001     X   13135 13142U
 $$$233F       2 00000EE8 00000001     H   13180 13170B
 $$$234F       2 00000F4E 00000001     H   13313 13207B
 $$$235F       2 00000F42 00000001     H   13288 13250B
 $$$235T       2 00000F24 00000001     H   13253 13226B 13239B
 $$$238F       2 00000F4E 00000001     H   13309 13299B
 $$$239F       2 00000F7E 00000001     H   13386 13340B
 $$$240F       2 00000F74 00000001     H   13374 13358B
 $$$241F       2 00000F8E 00000001     H   13411 13401B
 $$$242        1 000000B0 00000001 A   U   13465 13462  13464
 $$$252B       1 00000FD0 00000001     X   13672 13679U
 $$$253        1 000000B0 00000001 A   U   13751 13748  13750
 $$$255B       1 00001018 00000001     X   13792 13799U
 $$$256F       2 0000102A 00000001     H   13846 13836B
 $$$257F       2 00001036 00000001     H   13867 13857B
 $$$258        1 00000050 00000001 A   U   13893 13890  13892
 $$$260B       1 0000105E 00000001     X   13928 13935U
 $$$261F       2 00001084 00000001     H   13997 13988B
 $$$261S       2 0000105E 00000001     H   13958 13996B
 $$$264        1 000000B0 00000001 A   U   14045 14042  14044
 $$$266B       1 000010BC 00000001     X   14080 14087U
 $$$267F       2 000010EC 00000001     H   14152 14142B
 $$$268        1 000000B0 00000001 A   U   14196 14193  14195
 $$$269F       2 00001430 00000001     H   15033 14775B
 $$$270B       1 0000124C 00000001     X   14301 14308U
 $$$271F       2 0000125E 00000001     H   14360 14347B
 $$$273F       2 00001294 00000001     H   14415 14381B
1TERM     (TERM2193) (12:56) (15MAR04) Ordinary Symbol and Literal Cross Reference                                          Page   82
 $$$275F       2 00001280 00000001     H   14407 14396B
 $$$278B       4 000012AA 00000001     I   14456 14468
 $$$278F       2 000012B4 00000001     H   14465 14456B 14467
 $$$281E       2 000012B8 00000001     H   14475 14469
 $$$281F       2 000012BE 00000001     H   14481 14471B
 $$$282F       2 000012D4 00000001     H   14504 14494B
 $$$283F       2 00001376 00000001     H   14754 14516B
 $$$283S       2 000012D4 00000001     H   14510 14753B
 $$$285F       2 000012F4 00000001     H   14561 14537B 14548B
 $$$285S       2 000012DC 00000001     H   14527 14560B
 $$$288B       4 000012F8 00000001     I   14571 14620
 $$$288F       2 0000130E 00000001     H   14617 14571B 14619
 $$$289F       2 00001308 00000001     H   14594 14585B
 $$$290        6 00001820 00000001     I   14607 14599X
 $$$291        6 00001820 00000001     I   14606 14607  14607
 $$$292E       2 00001312 00000001     H   14627 14621
 $$$292F       2 00001318 00000001     H   14637 14623B
 $$$293F       2 00001358 00000001     H   14686 14674B
 $$$294F       2 00001364 00000001     H   14714 14698B
 $$$296F       2 00001372 00000001     H   14747 14731B
 $$$299        1 00000150 00000001 A   U   15042 15039  15041
 $$$300F       2 0000163C 00000001     H   15793 15607B
 $$$301B       1 00001458 00000001     X   15114 15121U
 $$$304B       4 00001476 00000001     I   15209 15270
 $$$304F       2 000014A8 00000001     H   15264 15209B 15269
 $$$306F       2 000014A8 00000001     H   15260 15251B
 $$$307E       2 000014AC 00000001     H   15277 15271
 $$$307F       2 000014E4 00000001     H   15343 15273B
 $$$310F       2 000014E4 00000001     H   15339 15330B
 $$$314F       2 00001514 00000001     H   15424 15414B
 $$$315F       2 0000158C 00000001     H   15593 15436B
 $$$315S       2 00001514 00000001     H   15430 15592B
 $$$317F       2 00001534 00000001     H   15482 15457B 15468B
 $$$317S       2 0000151C 00000001     H   15447 15481B
 $$$323F       2 00001588 00000001     H   15588 15564B 15575B
 $$$325        1 00000058 00000001 A   U   15802 15799  15801
 $$$327B       1 00001664 00000001     X   15835 15842U
 $$$328        1 00000050 00000001 A   U   15897 15894  15896
 $$$330B       1 00001836 00000001     X   15977 15984U
 $$$331F       2 00001868 00000001     H   16060 16051B
 $$$331T       2 00001862 00000001     H   16054 16038B
 $$$333F       2 0000188C 00000001     H   16110 16077B 16094B
 $$$336F       2 000018A0 00000001     H   16154 16122B
 $$$341F       2 000018AC 00000001     H   16182 16166B
 $$$343F       2 000018B8 00000001     H   16209 16193B
 $$$345F       2 000018C4 00000001     H   16239 16220B
 $$$348F       2 000018D0 00000001     H   16266 16250B
 $$$350F       2 000018DC 00000001     H   16293 16277B
 $$$352F       2 000018E8 00000001     H   16320 16304B
 $$$354F       2 000018F4 00000001     H   16347 16331B
 $$$356F       2 00001900 00000001     H   16374 16358B
 $$$358F       2 0000190C 00000001     H   16401 16385B
 $$$360F       2 00001918 00000001     H   16428 16412B
 $$$362F       2 00001924 00000001     H   16455 16439B
 $$$364F       2 00001930 00000001     H   16482 16466B
 $$$366F       2 0000193C 00000001     H   16509 16493B
 $$$368F       2 00001948 00000001     H   16536 16520B
 $$$370F       2 00001954 00000001     H   16563 16547B
 $$$372F       2 00001960 00000001     H   16590 16574B
1TERM     (TERM2193) (12:56) (15MAR04) Ordinary Symbol and Literal Cross Reference                                          Page   83
 $$$374F       2 0000196C 00000001     H   16617 16601B
 $$$376F       2 00001988 00000001     H   16686 16628B
 $$$377B       4 00001978 00000001     I   16643 16662
 $$$377F       2 00001980 00000001     H   16659 16643B 16661
 $$$379E       2 00001984 00000001     H   16669 16663
 $$$379F       2 00001988 00000001     H   16682 16665B
 $$$381        1 00000050 00000001 A   U   16706 16703  16705
 $$$383B       1 000019AA 00000001     X   16758 16765U
 $$$384F       2 00001A92 00000001     H   17116 16814B
 $$$385B       4 000019F0 00000001     I   16873 16917
 $$$385F       2 00001A0E 00000001     H   16913 16873B 16916
 $$$386F       2 00001A02 00000001     H   16903 16890B
 $$$387E       2 00001A12 00000001     H   16924 16918
 $$$387F       2 00001A1E 00000001     H   16936 16920B
 $$$388F       2 00001A50 00000001     H   16982 16967B
 $$$389F       2 00001A6C 00000001     H   17051 16995B
 $$$391B       4 00001A5C 00000001     I   17010 17028
 $$$391F       2 00001A64 00000001     H   17025 17010B 17027
 $$$392E       2 00001A68 00000001     H   17035 17029
 $$$392F       2 00001A6C 00000001     H   17047 17031B
 $$$393F       2 00001A78 00000001     H   17079 17064B
 $$$395F       2 00001A86 00000001     H   17108 17094B
 $$$396        1 00000050 00000001 A   U   17135 17132  17134
 $$$398B       1 00001ABA 00000001     X   17193 17200U
 $$$399F       2 00001ACE 00000001     H   17232 17222B
 $$$400        1 00000050 00000001 A   U   17274 17271  17273
 $$$402B       1 00001B50 00000001     X   17338 17345U
 $$$403        1 00000050 00000001 A   U   17394 17391  17393
 $$$405B       1 00001BAE 00000001     X   17444 17451U
 $$$406F       2 00001C10 00000001     H   17585 17473B 17513B
 $$$407F       2 00001BCC 00000001     H   17516 17496B
 $$$409F       2 00001BF8 00000001     H   17569 17532B
 $$$410        1 00000050 00000001 A   U   17608 17605  17607
 $$$411B       1 00001C36 00000001     X   17642 17649U 18214U 18466U 18599U 19231U 19518U 19651U
 $$$412F       2 00001C5A 00000001     H   17711 17698B
 $$$412T       2 00001C54 00000001     H   17701 17687B
 $$$414F       2 00001C6E 00000001     H   17741 17728B
 $$$416B       1 00001CEA 00000001     X   17917 17927U
 $$$417F       2 00001D22 00000001     H   18007 17996B
 $$$419F       2 00001DCE 00000001     H   18180 18048B
 $$$420F       2 00001D5A 00000001     H   18081 18066B
 $$$422F       2 00001DC6 00000001     H   18174 18159B
 $$$423        1 00000060 00000001 A   U   18225 18222  18224
 $$$425B       1 00001DF8 00000001     X   18280 18290U
 $$$426F       2 00001E52 00000001     H   18442 18338B 18401B
 $$$426S       2 00001DFC 00000001     H   18330 18441B
 $$$430F       2 00001E4E 00000001     H   18437 18427B
 $$$431        1 00000058 00000001 A   U   18477 18474  18476
 $$$433B       1 00001E70 00000001     X   18510 18520U
 $$$434F       2 00001E7C 00000001     H   18562 18552B
 $$$435        1 00000050 00000001 A   U   18610 18607  18609
 $$$437B       1 00001EF8 00000001     X   18671 18681U
 $$$438F       2 00001F12 00000001     H   18731 18715B
 $$$440F       2 00001FEC 00000001     H   18996 18746B
 $$$442F       2 00001F46 00000001     H   18798 18783B
 $$$444F       2 00001F68 00000001     H   18845 18836B
 $$$445F       2 00001F74 00000001     H   18883 18859B
 $$$446        6 0000227E 00000001     I   18873 18865X
 $$$447        6 0000227E 00000001     I   18872 18873  18873
1TERM     (TERM2193) (12:56) (15MAR04) Ordinary Symbol and Literal Cross Reference                                          Page   84
 $$$452F       2 00001FFC 00000001     H   19025 19012B
 $$$453F       2 00002022 00000001     H   19077 19057B
 $$$454        1 00000050 00000001 A   U   19242 19239  19241
 $$$456B       1 000020F6 00000001     X   19275 19285U
 $$$457F       2 00002122 00000001     H   19325 19310B
 $$$458F       2 00002136 00000001     H   19362 19340B
 $$$460F       2 00002152 00000001     H   19433 19377B
 $$$462B       4 00002142 00000001     I   19392 19410
 $$$462F       2 0000214A 00000001     H   19407 19392B 19409
 $$$463E       2 0000214E 00000001     H   19417 19411
 $$$463F       2 00002152 00000001     H   19429 19413B
 $$$464F       2 0000216E 00000001     H   19501 19451B 19471B
 $$$468        1 00000050 00000001 A   U   19529 19526  19528
 $$$470B       1 00002190 00000001     X   19570 19580U
 $$$471F       2 000021BC 00000001     H   19637 19622B
 $$$472        1 00000050 00000001 A   U   19662 19659  19661
 $$$473B       1 000021E4 00000001     X   19680 19690U
 $$$474F       2 00002208 00000001     H   19745 19715B
 $$$475F       2 00002242 00000001     H   19843 19762B 19774B
 $$$477F       2 0000222C 00000001     H   19811 19790B
 $$$479B       1 0000229E 00000001     X   19926 19933U
 $$$480F       2 000022C4 00000001     H   19979 19964B
 $$$481F       2 0000232A 00000001     H   20088 20004B
 $$$482F       2 00002302 00000001     H   20040 20019B
 $$$483F       2 00002326 00000001     H   20077 20052B
 $$$484F       2 00002352 00000001     H   20136 20113B
 $$$485F       2 00002360 00000001     H   20165 20155B
 $$$486        1 00000050 00000001 A   U   20183 20180  20182
 $$$488B       1 0000237E 00000001     X   20237 20244U
 $$$489        4 00002786 00000001     I   20327 20319X
 $$$490        4 00002786 00000001     I   20326 20327  20327
 $$$491        1 00000050 00000001 A   U   20367 20364  20366
 $$$493B       1 000023FA 00000001     X   20419 20426U
 $$$494        1 00000050 00000001 A   U   20489 20486  20488
 $$$496B       1 0000248A 00000001     X   20522 20529U
 $$$497F       2 000024B0 00000001     H   20581 20549B
 $$$498        1 00000050 00000001 A   U   20599 20596  20598
 $$$500B       1 000024E2 00000001     X   20690 20697U
 $$$501F       2 000024F0 00000001     H   20735 20726B
 $$$502F       2 00002524 00000001     H   20788 20778B
 $$$503F       2 0000254C 00000001     H   20825 20816B
 $$$503S       2 00002532 00000001     H   20799 20824B
 $$$506F       2 00002596 00000001     H   20936 20927B
 $$$506S       2 00002564 00000001     H   20847 20935B
 $$$507F       2 00002584 00000001     H   20913 20884B 20898B
 $$$507S       2 0000256A 00000001     H   20856 20912B
 $$$513        4 0000278C 00000001     I   20969 20961X
 $$$514        4 0000278C 00000001     I   20968 20969  20969
 $$$515F       2 000025C2 00000001     H   21009 20995B
 $$$516        1 00000078 00000001 A   U   21034 21031  21033
 $$$518B       1 000025E4 00000001     X   21089 21096U
 $$$519F       2 0000262A 00000001     H   21214 21205B
 $$$519S       2 000025FE 00000001     H   21127 21213B
 $$$52B        1 000000AE 00000001     X    7620  7627U
 $$$520F       2 0000261A 00000001     H   21191 21182B
 $$$520S       2 00002602 00000001     H   21144 21190B
 $$$526        4 00002792 00000001     I   21247 21239X
 $$$527        4 00002792 00000001     I   21246 21247  21247
 $$$528        1 00000050 00000001 A   U   21320 21317  21319
1TERM     (TERM2193) (12:56) (15MAR04) Ordinary Symbol and Literal Cross Reference                                          Page   85
 $$$529B       1 00002678 00000001     X   21376 21383U
 $$$53F        2 000000C4 00000001     H    7665  7655B
 $$$530S       2 00002692 00000001     H   21409 21582B
 $$$531F       2 000026E8 00000001     H   21521 21438B
 $$$532F       2 000026D0 00000001     H   21485 21473B
 $$$533F       2 000026E8 00000001     H   21512 21496B
 $$$534F       2 0000271C 00000001     H   21568 21553B
 $$$54F        2 00000102 00000001     H    7728  7696B
 $$$54S        2 000000E2 00000001     H    7687  7727B
 $$$56         1 00000050 00000001 A   U    7746  7743   7745
 $$$58B        1 0000015E 00000001     X    7807  7814U
 $$$59F        2 00000186 00000001     H    7889  7879B
 $$$61F        2 000001C0 00000001     H    7951  7936B
 $$$62F        2 000001DA 00000001     H    7988  7963B
 $$$66F        2 00000246 00000001     H    8110  8095B
 $$$67         1 00000090 00000001 A   U    8138  8135   8137
 $$$68B        1 00000294 00000001     X    8189  8196U
 $$$69F        2 00000492 00000001     H    9260  8421B
 $$$70B        1 000002CA 00000001     X    8364  8371U
 $$$71F        2 000002D6 00000001     H    8425  8413B
 $$$72F        2 00000306 00000001     H    8555  8468B
 $$$73F        2 000002F6 00000001     H    8514  8504B
 $$$74F        2 00000302 00000001     H    8535  8525B
 $$$75F        2 00000354 00000001     H    8667  8569B
 $$$76F        2 00000340 00000001     H    8644  8599B  8616B
 $$$76T        2 0000031E 00000001     H    8602  8589B
 $$$79F        2 0000048E 00000001     H    9241  8695B
 $$$79T        2 00000364 00000001     H    8698  8685B
 $$$81F        2 00000384 00000001     H    8758  8711B
 $$$82F        2 00000384 00000001     H    8754  8738B
 $$$83F        2 000003D8 00000001     H    8910  8770B  8817B  8829B  8850B
 $$$84F        2 0000039E 00000001     H    8802  8786B
 $$$88F        2 000003D8 00000001     H    8906  8868B  8880B
 $$$90F        2 000003F6 00000001     H    8955  8925B
 $$$91F        2 000003F6 00000001     H    8951  8940B
 $$$92F        2 0000047E 00000001     H    9227  8966B
 $$$93B        4 00000400 00000001     I    8981  8998
 $$$93F        2 0000040A 00000001     H    8994  8981B  8997
 $$$94B        4 00000412 00000001     I    9014  9031
 $$$94E        2 0000040E 00000001     H    9005  8999
 $$$94F        2 00000418 00000001     H    9027  9001B  9014B  9030
 $$$96B        4 00000428 00000001     I    9061  9078
 $$$96E        2 0000041C 00000001     H    9038  9032
 $$$96F        2 00000432 00000001     H    9074  9034B  9061B  9077
 $$$96T        2 0000042C 00000001     H    9064  9051B
 $$$99B        4 00000442 00000001     I    9108  9127
 $$$99E        2 00000436 00000001     H    9085  9079
 $$$99F        2 0000044C 00000001     H    9121  9081B  9096B  9108B  9124
 $NLL8792      2 000023BA 00000001     I   20335 20339B
 $NLL9122      2 000025A8 00000001     I   20977 20981B
 $NLL9278      2 0000263C 00000001     I   21255 21259B
 $NLM8792      1 00002784 00000001     R   20308 20326
 $NLM9122      1 0000278A 00000001     R   20950 20968
 $NLM9278      1 00002790 00000001     R   21228 21246
 $OLL8780      2 0000238C 00000001     I   20277 20281B
 $OLL9054      2 00002558 00000001     I   20838 20842B
 $OLL9209      2 000025F2 00000001     I   21118 21122B
 @RAR          0 00000000 FFFFFFF0     @    1146  2173   2181B
 @R0           0 00000000 FFFFFFFE     @     706   982U
1TERM     (TERM2193) (12:56) (15MAR04) Ordinary Symbol and Literal Cross Reference                                          Page   86
 @R1           0 00000000 FFFFFFFD     @     719   978U  2179   2180   7724U  9362M  9363M  9392M  9404  10079  10608
                                                 11242  12335  12346  12387  13176  18872  19134U
 @R10          0 00000000 FFFFFFF4     @     836   942U
 @R11          0 00000000 FFFFFFF3     @     849   938U 20212U 21063U 21368U
 @R12          0 00000000 FFFFFFF2     @     862   934U
 @R13          0 00000000 FFFFFFF1     @     875   930U  7903M  7910M  8182M  8183   8222  12609M 12610  19672M 20768M
                                                 20777  20789  21613M 21620
 @R14          0 00000000 FFFFFFF0     @     888   926U
 @R15          0 00000000 FFFFFFEF     @     901   922U  8209U  8432U 11284U 12328U 13018U 13041U 16064  20909U 21628U
 @R2           0 00000000 FFFFFFFC     @     732   974U  9405M  9407M  9601U 10161U 11748U 14499M 14536  14554  14673
                                                 14680  18102M 18102  18103M 18111  18124  20293U
 @R3           0 00000000 FFFFFFFB     @     745   970U  7898U  9392  11826  18014M 18148  18175M
 @R4           0 00000000 FFFFFFFA     @     758   966U  9361  14606  15456  15563
 @R5           0 00000000 FFFFFFF9     @     771   962U  8046U  8482U  8546U 10220U 13305  13874U 14638  15016U 16715U
                                                 17144U 17852U 18192U 18351  18356  18410  18587U 19538U 19855U 20192U
 @R6           0 00000000 FFFFFFF8     @     784   958U  8117U 10213U 11242M 16722U 17151U 18197U 18449U 20753U 21043U
                                                 21329U 21518U
 @R7           0 00000000 FFFFFFF7     @     797   954U  7735U  8127U  9258U  9612U 10193U 10498U 10735U 10820U 10893U
                                                 12524U 12673U 12902U 13080U 13454U 13740U 13882U 14034U 14185U 15031U
                                                 15791U 15886U 16695U 17124U 17263U 17383U 17597U 17924U 18211U 18287U
                                                 18463U 18517U 18596U 18678U 19228U 19282U 19515U 19577U 19648U 19687U
                                                 19861U 20172U 20356U 20478U 20588U 21023U 21309U 21590U
 @R8           0 00000000 FFFFFFF6     @     810   950U  8122U  9253U 10730U 12519U 12897U 13075U 13449U 13735U 14029U
                                                 14180U 15026U 15786U 17859U 18202U 18454U 21018U
 @R9           0 00000000 FFFFFFF5     @     823   946U
 ABSCENT       1 00000000 00000000 A   T    2189  2189
 ADDER         1 00000000 00000015     T   15916 15916
 AMODE31       1 00000000 00000028     T   21652 21652
 ASCTBL        1 00000000 00000000 A   T    2197  2197
 ASYNCH        4 0000205C 00000001     I   19153 18976B
 BLTBL         1 00000000 00000000 A   T    2199  2199
 BR            7 00000007 00000001 A   #    1036  7615M  7802M  8359M  9318M  9651M 10291M 10560M 10786M 10856M 10931M
                                                 12567M 12725M 12953M 13130M 13667M 13787M 13923M 14075M 14296M 15109M
                                                 15830M 17188M 17333M 17439M 18275M 18666M 19270M 19677M 19690U 19921M
                                                 20414M 20517M 20685M
 BUILDPDB      2 00001826 00000001     H   15959 10242  14220
 CELLBLOK     40 00000000 FFFFFFE1     J    7310  7710U  7714M  7718   7768  17293  17405
 CELSIZE       4 0000001C FFFFFFE1     F    7300  7715M
 CHECKIOB      1 00000000 00000000 A   T    2245  2245
 CLEANUP       2 000020B2 00000001     H   19199 18978B
 CLRTEXT       1 00000000 00000010     T   15909 15909
 COMMAND       1 00000000 00000000 A   T    2185  2185
 COMMSEG       1 00000000 00000000 A   T    2186  2186
 CP         4096 00000000 FFFFFFEC     J    6199  1174U 20382U 21342U
 CP#XSTK       1 00000010 FFFFFFEC A   U    3931  3932
 CPACFLG       1 000005D5 FFFFFFEC     R    4034  4038   4043   4048   4053   4058
 CPACFLN       4 000005C4 FFFFFFEC     F    4026  4061   4061
 CPACLNO       4 000005A8 FFFFFFEC     F    3988 14657M
 CPAFLAG       1 000005C3 FFFFFFEC     R    3998  4002   4007   4012   4017
 CPANAME       8 00000588 FFFFFFEC     C    3980  4076   4076
 CPAUTFLG      1 000008A9 FFFFFFEC     R    4344  4348   4353   4358   4363
 CPCHFLAG      1 00000B68 FFFFFFEC     R    4971  4975
 CPCLCK        8 00000338 FFFFFFEC     D    2828 17112
 CPCMD       235 00000242 FFFFFFEC     C    2824 10079M 10244
 CPCMDLEN      2 00000240 FFFFFFEC     H    2823 10051M
 CPDELTA       4 00000738 FFFFFFEC     F    4083 14409
 CPDFLG        1 0000084C FFFFFFEC     R    4231  4235   4240   4245   4250   4255
 CPDFLG2       1 0000084D FFFFFFEC     R    4260  4264   4269   4274   4279   4284   4289
 CPDMPDLT      4 00000C6C FFFFFFEC     F    5022 14409M
1TERM     (TERM2193) (12:56) (15MAR04) Ordinary Symbol and Literal Cross Reference                                          Page   87
 CPDMPLST      4 00000C68 FFFFFFEC     F    5021 14380  14408M 14416  14640  14656  14662M 14941
 CPDMPMAX      4 00000C70 FFFFFFEC     F    5023 14411M 14461M 14477M 14730
 CPDRPT        4 00000D84 FFFFFFEC     F    5659 14431  14455
 CPERRID       8 00000886 FFFFFFEC     C    4330 15633M 15711M 15742M 15773M
 CPEXABRT      4 00000898 FFFFFFEC     F    4333  9978M  9978
 CPEXATTN      4 0000089C FFFFFFEC     F    4334  9965M  9965
 CPEXCMCT      2 000008B4 FFFFFFEC     H    4403  9729M  9729  11075M 11075
 CPEXFLG       1 00000758 FFFFFFEC     R    4100  4104
 CPEXFLG2      1 00000759 FFFFFFEC     R    4110  4119   4129
 CPEXFLG3      1 0000075A FFFFFFEC     R    4136  4140   4145
 CPEXTFLG      1 00000E28 FFFFFFEC     R    5782  5786   5791   5796   5801   5806   5811
 CPFABORT    128 00000D5A FFFFFFEC         5548  2149M  2149   2154M  2154   9992M 10175M
 CPFBUFIO      2 00000C7C FFFFFFEC         5166 16276
 CPFCASE      32 00000D57 FFFFFFEC         5488 16627
 CPFCLEAN    128 00000C7B FFFFFFEC         5101 16492
 CPFCLEAR     16 00000D55 FFFFFFEC         5428 14345  14345  14346
 CPFDATTN      2 00000C7D FFFFFFEC         5206 16546
 CPFDISP      16 00000C7B FFFFFFEC         5116  8867   9695   9810   9822M 11145  11420  11897  11909M 12260  16121
 CPFDUMP     128 00000D55 FFFFFFEC         5413  8613   8980  14332M 14760M
 CPFERROR     64 00000D5A FFFFFFEC         5553  2148M  2148   2153M  2153
 CPFEXEC     128 00000758 FFFFFFEC         4104  9107   9947
 CPFFORCE      4 00000C7C FFFFFFEC         5161 16384
 CPFHIGH       1 00000040 FFFFFFEC A   U    5662 14453
 CPFIATTN     32 00000C7A FFFFFFEC         5091  8710   8750M  9916M 10168M 11088  11100M 11292M
 CPFKEEP       8 00000D55 FFFFFFEC         5433 14345  14345
 CPFMTCH       1 00000008 FFFFFFEC A   U    5663 14429
 CPFNECHO     64 00000C7B FFFFFFEC         5106 16192
 CPFNLF        4 00000C7D FFFFFFEC         5201 16573
 CPFNLST       1 00000020 FFFFFFEC A   U    5402 14410  14766
 CPFNMOD      16 00000C7C FFFFFFEC         5151 16303
 CPFNOCURS
               8 00000C7B FFFFFFEC         5121 16600
 CPFNONL     128 00000C7A FFFFFFEC         5081  8879  16091
 CPFNOUTTRIM
               4 00000C7B FFFFFFEC         5126 16076
 CPFNPAU     128 00000C7D FFFFFFEC         5176 16438
 CPFNPT       64 00000C7D FFFFFFEC         5181 16465
 CPFNSTAR     16 00000C7D FFFFFFEC         5191 12282  16519
 CPFNTEX       1 00000040 FFFFFFEC A   U    5400  5401
 CPFNTYPE     64 00000C7C FFFFFFEC         5141 16330
 CPFNTYT       1 00000080 FFFFFFEC A   U    5661 14450
 CPFQUIET     64 00000D55 FFFFFFEC         5418  9013  10979  10998M 12502M
 CPFRDRNG      1 00000D88 FFFFFFEC     R    5668  5672   5677   5682   5687   5692   5697   5702
 CPFRDSRC      1 00000D89 FFFFFFEC     R    5707  5716   5726   5736
 CPFRUND      32 00000C7C FFFFFFEC         5146 16249
 CPFSLOW      32 00000C7B FFFFFFEC         5111 16411
 CPFSTINS      1 00000040 FFFFFFEC A   U    5379 14366
 CPFTINT      32 00000C7D FFFFFFEC         5186 11501  11717
 CPFTRAN     128 00000C7C FFFFFFEC         5136 11432  12001  16219
 CPFUFMT       8 00000C7C FFFFFFEC         5156 16357
 CPFUNUM       1 00000080 FFFFFFEC A   U    5399  5401
 CPFUPPER     16 00000D57 FFFFFFEC         5493 16642
 CPFWTO       64 00000C7A FFFFFFEC         5086  8586   8814   9048   9177
 CPFXDFLG      1 000007E4 FFFFFFEC     R    4178  4182   4187
 CPFXDUMP    128 000007E4 FFFFFFEC         4182  9095  15157M 15600M 15616M 15647M 15725M 15756M 15857M
 CPFXQT       64 000007E4 FFFFFFEC         4187  9142
 CPGFCMDA      4 00000478 FFFFFFEC         3676 10023M 10046M
 CPGFLG1       1 00000474 FFFFFFEC     R    3541  3545   3550   3555   3560   3565   3895   3895
 CPGFLG10      1 0000047D FFFFFFEC     R    3778  3782   3787   3792   3797   3802   3807
1TERM     (TERM2193) (12:56) (15MAR04) Ordinary Symbol and Literal Cross Reference                                          Page   88
 CPGFLG11      1 0000047E FFFFFFEC     R    3813  3817   3822
 CPGFLG12      1 0000047F FFFFFFEC     R    3828  3832   3837   3842
 CPGFLG13      1 00000480 FFFFFFEC     R    3848  3852
 CPGFLG14      1 00000481 FFFFFFEC     R    3858  3862   3867   3872   3877   3882
 CPGFLG4       1 00000477 FFFFFFEC     R    3594  3605   3614   3623   3632   3641
 CPGFLG5       1 00000478 FFFFFFEC     R    3647  3651   3656   3661   3666   3671   3676   3681   3686
 CPGFLG6       1 00000479 FFFFFFEC     R    3692  3696   3701   3706
 CPGFLG7       1 0000047A FFFFFFEC     R    3712  3716   3721   3726   3731
 CPGFLG8       1 0000047B FFFFFFEC     R    3737  3741   3746   3751   3756
 CPGFLG9       1 0000047C FFFFFFEC     R    3762  3766   3772
 CPGFNCMD     16 00000478 FFFFFFEC         3666 10181M
 CPGFWR       32 00000478 FFFFFFEC         3661  9722M
 CPINIT        1 00000174 FFFFFFEC     U    2711  6168
 CPJESFLG      1 000009E1 FFFFFFEC     R    4443  4447   4452   4457   4462   4467   4472   4477   4482
 CPJESFLY      1 000009FD FFFFFFEC     R    4493  4497   4502   4507
 CPJESHFL      1 000009E0 FFFFFFEC     R    4428  4432   4437   4516   4516
 CPLAATTN      1 00000080 FFFFFFE3 A   U    6987  9756   9902  10032  11766  12019  12220  16992
 CPLABRK       1 00000010 FFFFFFE3 A   U    6990 11977
 CPLAIOE       1 00000040 FFFFFFE3 A   U    6988 12047
 CPLAUST       1 00000020 FFFFFFE3 A   U    6989 12129
 CPLBIA        1 00000020 FFFFFFE3 A   U    6994 19374  19445
 CPLBILT       1 00000040 FFFFFFE3 A   U    6993  9793  11880  12876
 CPLBLGF       1 00000080 FFFFFFE3 A   U    6992 11844  17061  19337  19448
 CPLCNO        4 0000073C FFFFFFEC     F    4085 14477  15235  15240M 15314  15319M
 CPLFLG10      1 00000D59 FFFFFFEC     R    5534  5538
 CPLFLG11      1 00000D5A FFFFFFEC     R    5544  5548   5553   5558   5563
 CPLFLG12      1 00000D5B FFFFFFEC     R    5569  5573
 CPLFLG14      1 00000D5C FFFFFFEC     R    5579  5583   5588   5593   5598   5603
 CPLFLG4       1 00000D53 FFFFFFEC     R    5377 14368M
 CPLFLG5       1 00000D54 FFFFFFEC     R    5396 14410M 14768M
 CPLFLG6       1 00000D55 FFFFFFEC     R    5409  5413   5418   5423   5428   5433   5438
 CPLFLG7       1 00000D56 FFFFFFEC     R    5444  5448   5453   5458   5463   5468
 CPLFLG8       1 00000D57 FFFFFFEC     R    5474  5478   5483   5488   5493
 CPLFLG9       1 00000D58 FFFFFFEC     R    5499  5503   5508   5513   5518   5523   5528
 CPLGFSYS      8 00000164 FFFFFFEC     C    2708 14141M 14141  14148
 CPLOCALZ      1 00000C48 FFFFFFEC     U    5001  6162   6162
 CPLSTOWD    128 00000D58 FFFFFFEC         5503 14655M
 CPMFLG        1 0000084F FFFFFFEC     R    4298  4302
 CPMODFLG      1 00000C78 FFFFFFEC     R    5029  5033   5038   5043   5048   5053
 CPNAMELN      1 00000010 FFFFFFEC A   U    3924  4171
 CPNEDPFX     10 00000E29 FFFFFFEC     X    5815  5816   5817
 CPNUMFLG      1 00000C79 FFFFFFEC     R    5059  5071
 CPORV        16 00000140 FFFFFFEC     X    2688 13268M 13268  13370M 13370  14007M 14007
 CPORVCMD      1 00000140 FFFFFFEC     R    2593  2597   2602   2607   2612   2617   2622   2627   2632   2637   2637
                                                  2688   2688
 CPORVFLG      1 00000149 FFFFFFEC     R    2644  2648   2653   2658   2663   2668   2673   2678   2683
 CPORVINF      8 00000140 FFFFFFEC     X    2637 13407M
 CPORVWF       1 00000150 FFFFFFEC     R    2696  2700
 CPORVYL       8 000008BC FFFFFFEC     C    4408 13206  13357  13400
 CPOSCANX      4 00000CA8 FFFFFFEC     F    5228  5295   5295
 CPR          11 0000000B 00000001 A   #    1100  1174U 13697  13701M 13701  13723M 20382U 21342U 21389M 21389
 CPRACBAD     16 000001FC FFFFFFEC         2762  2796   2796   2797   2797
 CPRACF1       1 000001FC FFFFFFEC     R    2743  2747   2752   2757   2762   2767   2772   2777   2782   2798
 CPRACPSW     32 000001FC FFFFFFEC         2757  2795   2795   2797   2797
 CPRACUND     64 000001FC FFFFFFEC         2752  2795   2795   2796   2796
 CPRCVCUR      4 00000730 FFFFFFEC     A    4079  4081   4081
 CPREGS        4 00000004 FFFFFFEC     A    2474 16828M 20099M
 CPREND        8 0000046C FFFFFFEC     C    3534  9771M  9771  10528  10626  10718M 11781M 11781
 CPRFLG        1 000008AA FFFFFFEC     R    4369  4373   4378   4383   4388   4393   4398
1TERM     (TERM2193) (12:56) (15MAR04) Ordinary Symbol and Literal Cross Reference                                          Page   89
 CPS         254 00000344 FFFFFFEC     X    3513  3516   3517   3519   3519
 CPSACCT       5 000003B4 FFFFFFEC     C    3112  3275   3275  12101M 12101  13236M 13236
 CPSAMCOD      1 00000A22 FFFFFFEC     R    4565  4573   4583   4593   4602   4611   4620   4630   4639   4648
 CPSAMFLG      1 00000A21 FFFFFFEC     R    4525  4529   4534   4539   4544   4549   4554   4559   4670   4670
 CPSCNFLG      1 00000CD0 FFFFFFEC     R    5241  5252   5261   5272
 CPSCNF2       1 00000CD1 FFFFFFEC     R    5277  5281
 CPSCNMAX      1 00000014 FFFFFFEC A   U    5293  5294
 CPSCRI        2 00000434 FFFFFFEC     H    3502  3507   3507
 CPSEG        60 00000050 FFFFFFEC     X    2582  8211   9846   9864  10363  10403  10443  10465  10487  10645  10690
                                                 10712  11022  11059  11110  11348  11373  11388  11531  11571  11933
                                                 11951  12064  12082  12146  12175  12201  12410  12436  12476  12658
                                                 12810  12859  13059  13278  13437  14018  14115  14169  14786  14812
                                                 14830  14846  14872  14890  14918  14936  14965  14983  15626  15657
                                                 15675  15704  15735  15766  17830
 CPSEGBP       4 00000048 FFFFFFEC     A    2491 16050  16872  17510  17524  17548M 17548  17578M
 CPSEGBSZ      2 0000004C FFFFFFEC     H    2492 16889  16907  16909  17537  17553M 17553  17579M
 CPSEGCOD      1 00000050 FFFFFFEC     R    2499  2508   2518   2528   2538   2548   2558   2568
 CPSEGLENF
               4 0000005C FFFFFFEC     A    2574  8634M  8634   8722M  8722   9931  11168  11182  11214  11466  11805
                                                 11807M 11859M 11859  12238M 12238  12331  12369M 12393M 12462  12603M
                                                 12603  12770M 12770  12785  13011  13424  14402  14492  15404  16062
                                                 16938M 17565M 17565
 CPSEGLOC      4 00000070 FFFFFFEC     A    2578  9364  10052  11213  11808  12334  12457  13006  13419  14401  14482
                                                 15403  16035M 16035  16050  16872  16945  17495M 17495  17510  17560M
                                                 17560  17580M 17783  17810  18001
 CPSEGMAXF
               4 00000054 FFFFFFEC     A    2572 16022  16930  16932  17472  17581M 17788
 CPSEGMRKF
               4 00000058 FFFFFFEC     A    2573  8639M  8639   8727M  8727  11169  11467  12785
 CPSEGMX#      1 00004000 FFFFFFEC A   U    2490  7767  17291  17295
 CPSFL         1 00000384 FFFFFFEC     R    2850  2854   2859   2864   2869   2874
 CPSFLG        1 000003F8 FFFFFFEC     R    3390  3394   3399   3404   3409   3414   3419   3424   3429
 CPSFLG2       1 000003F9 FFFFFFEC     R    3435  3439   3444   3449
 CPSFL2        1 00000385 FFFFFFEC     R    2880  2884   2889   2894   2899
 CPSFL3        1 00000386 FFFFFFEC     R    2905  2909   2914   2919
 CPSFL4        1 00000387 FFFFFFEC     R    2925  2929   2934   2939
 CPSFL5        1 00000388 FFFFFFEC     R    2945  2949   2954   2959
 CPSKAFL       1 000003BF FFFFFFEC     R    3246  3250   3255   3260   3265   3270
 CPSKIFL       1 000003BE FFFFFFEC     R    3201  3205   3210   3215   3220   3225   3230   3235   3240
 CPSOF         1 000001F8 FFFFFFEC     X    2733  2735   2735
 CPSOFLAG      1 00000416 FFFFFFEC     R    3460  3464   3469   3474   3479   3484
 CPSOPST       4 000003C4 FFFFFFEC     F    3280  3509   3509
 CPSPORT       8 00000354 FFFFFFEC     C    2844  2964   2964
 CPSQFLG       1 000003EC FFFFFFEC     R    3309  3313
 CPSSFLG       1 000003BB FFFFFFEC     R    3119  3123   3128   3133   3138   3143   3148
 CPSSTART      4 00000344 FFFFFFEC     F    2836  2840   2840   3276   3276   3381   3381   3513   3513
 CPSSTAT       1 0000038F FFFFFFEC     R    3056  3060   3065   3070   3075   3080   3085   3090
 CPSTACF       1 000003BC FFFFFFEC     R    3154  3158   3163   3168   3173   3178   3183   3188   3193
 CPSTART       4 00000000 FFFFFFEC     C    2472  6166   6170
 CPSTFLAG      1 000003EA FFFFFFEC     R    3287  3291   3296   3301
 CPSTYPE       1 0000038C FFFFFFEC     R    2969  2978   2988   2998   3008   3018   3028   3038   3048
 CPSUC         2 000003C4 FFFFFFEC     H    3281 17093
 CPSUFLG       1 000003EE FFFFFFEC     R    3324  3328   3333   3338   3343   3348   3353   3358   3363
 CPSUFLG2      1 000003EF FFFFFFEC     R    3369  3373   3378
 CPSVINFO     16 0000039C FFFFFFEC     X    3108 17110M
 CPSVPGM       8 0000039C FFFFFFEC     C    3102  3108   3108
 CPSYS         8 00000154 FFFFFFEC     C    2706 13176M 13190  13206  13249M 13249  13261M 13261  13339  13357  13381M
                                                 13381  13400  17801M
 CPS1ST        4 0000038C FFFFFFEC     F    2966  3511   3511
1TERM     (TERM2193) (12:56) (15MAR04) Ordinary Symbol and Literal Cross Reference                                          Page   90
 CPTEMPP#      1 0000005F FFFFFFEC A   U    4419  4421
 CPTIOCLK      4 000008CC FFFFFFEC     F    4411 12611  17112M
 CPTRMFL1      1 00000C7A FFFFFFEC     R    5077  5081   5086   5091   5215   5215
 CPTRMFL2      1 00000C7B FFFFFFEC     R    5097  5101   5106   5111   5116   5121   5126
 CPTRMFL3      1 00000C7C FFFFFFEC     R    5132  5136   5141   5146   5151   5156   5161   5166
 CPTRMFL4      1 00000C7D FFFFFFEC     R    5172  5176   5181   5186   5191   5196   5201   5206
 CPTRMIN       2 00000C80 FFFFFFEC     H    5212 11454M 11454  11461
 CPTTYPEP      4 00000468 FFFFFFEC     A    3532 10594
 CPUSED        1 00000FBC FFFFFFEC A   U    6166  6167
 CPVACURS      8 00000AF0 FFFFFFEC     D    4944  4945   4946
 CPVCURS       8 00000AE0 FFFFFFEC     D    4938  4939   4940
 CPVFLAG       1 00000AC8 FFFFFFEC     R    4739  4743   4748   4753   4758   4763
 CPVFLAG2      1 00000AC9 FFFFFFEC     R    4769  4773   4778   4783   4788   4793   4798
 CPVFLAG3      1 00000ACA FFFFFFEC     R    4804  4808   4813   4818   4823   4828   4833
 CPVFLAG4      1 00000ACB FFFFFFEC     R    4839  4843   4848   4853
 CPVFPAGE    128 00000AC8 FFFFFFEC         4743  9683   9831   9831   9832M 11133  11918  11918  11919M
 CPVFPEND     64 00000AC8 FFFFFFEC         4748  9715M  9831   9831  11160M 11918  11918
 CPVLFLAG      1 00000ACE FFFFFFEC     R    4908  4912   4917   4922
 CPVMODE       1 00000ACC FFFFFFEC     R    4861  4865   4870   4875   4880   4885   4890   4895   4900
 CPVTWID       2 00000AD0 FFFFFFEC     H    4928  4931   4931
 CPWK1         4 00000D60 FFFFFFEC     F    5612  5627   5650
 CPWK2         4 00000D64 FFFFFFEC     F    5613  5628   5642
 CPWK3         4 00000D68 FFFFFFEC     F    5614  5629   5643
 CPWK4         4 00000D6C FFFFFFEC     F    5615  5630   5644
 CPWK5         4 00000D70 FFFFFFEC     F    5616  5632   5637   5645
 CPWK6         4 00000D74 FFFFFFEC     F    5617  5633   5638   5646   5653   5655
 CPWK7         4 00000D78 FFFFFFEC     F    5618  5631   5647
 CPXDPACT      4 000007F0 FFFFFFEC     F    4192 15173  15234  15313  15540  15872M 15872
 CPXDPDLT      4 000007F4 FFFFFFEC     F    4193 15188  15549  15879M 15879
 CPXDPLN       4 000007E8 FFFFFFEC     F    4190 15199  15548M 15858M
 CPXDPNLN      4 000007EC FFFFFFEC     F    4191 15279  15347  15485  15539  15547  15550M 15680  15865M 15865
 CPXFLAG       1 000007FD FFFFFFEC     R    4206  4210
 CPXSTATE      4 000007F8 FFFFFFEC     F    4200  4213   4213
 CV         4016 00000000 FFFFFFEE     J    2375  1183U 20274  20274  20276  20276  20280M 20280M 20317  20317  20334
                                                 20334  20338M 20338M 20835  20835  20837  20837  20841M 20841M 20959
                                                 20959  20976  20976  20980M 20980M 21115  21115  21117  21117  21121M
                                                 21121M 21237  21237  21254  21254  21258M 21258M
 CV            1 00000000 00000027     T   21651 21651
 CVABORT       4 000007DA FFFFFFEE     I    2154  9874B 11961B
 CVABSRTN      4 0000088C FFFFFFEE     V    2189  2164
 CVBLANKS    235 000004D8 FFFFFFEE     C    1969 10590
 CVBRMSK       1 00000751 FFFFFFEE     X    2105  2106   2107
 CVCFLAG       1 00000A00 FFFFFFEE     R    2270  2274   2279   2284   2289   2294
 CVCHKST       8 000009F0 FFFFFFEE     D    2260  2350   2350
 CVCHKST2      8 00000E28 FFFFFFEE     D    2353  2356   2356
 CVCOMRTN      4 0000087C FFFFFFEE     V    2185  2155
 CVCPMEM       4 000006A8 FFFFFFEE     F    2025 17251  17253M 17373  17375M
 CVCURJCB      4 000001C8 FFFFFFEE     A    1454  8473  10092  11255  11473  12296  13808  15003  16010  16784  17652
                                                 19942
 CVDBGFLG      1 000004CC FFFFFFEE     R    1959  1963
 CVDSPCLK      8 00000630 FFFFFFEE     D    1998 21540
 CVECB         4 00000720 FFFFFFEE     F    2077  7865   7994   8002M  8002  20343  21558
 CVENT         4 0000074C FFFFFFEE     I    2103  7615B  7802B  8359B  9318B  9651B 10291B 10560B 10786B 10856B 10931B
                                                 12567B 12725B 12953B 13130B 13667B 13787B 13923B 14075B 14296B 15109B
                                                 15830B 17188B 17333B 17439B 17639B 18275B 18666B 19270B 19677B 19921B
                                                 20414B 20517B 20685B
 CVENTBR       2 00000750 FFFFFFEE     I    2104  2105
 CVERRMSG      4 000007C8 FFFFFFEE     I    2148 15638B 15716B 15747B 15778B
 CVERROR       4 000007D6 FFFFFFEE     I    2153  2169B
1TERM     (TERM2193) (12:56) (15MAR04) Ordinary Symbol and Literal Cross Reference                                          Page   91
 CVEXIRTN      4 0000077C FFFFFFEE     V    2133  2129
 CVEXNO        1 00000000 00000017     T   15921 15921
 CVFCHRKBPR
               8 000004C9 FFFFFFEE         1874  1890   1890
 CVFCHRKBSE
               4 000004C9 FFFFFFEE         1879  1890   1890
 CVFCHRKCPR
               2 000004C9 FFFFFFEE         1896  1912   1912
 CVFCHRKCSE
               1 000004C9 FFFFFFEE         1901  1912   1912
 CVFCHRUBPR
             128 000004C9 FFFFFFEE         1830  1846   1846
 CVFCHRUBSE
              64 000004C9 FFFFFFEE         1835  1846   1846
 CVFCHRUCPR
              32 000004C9 FFFFFFEE         1852  1868   1868
 CVFCHRUCSE
              16 000004C9 FFFFFFEE         1857  1868   1868
 CVFINIT       8 000004C5 FFFFFFEE         1695  8598   8826   9060   9189  11329  13223
 CVFJCB        4 000001C0 FFFFFFEE     A    1452 19296
 CVFL          1 000004C4 FFFFFFEE     R    1626  1630   1635   1640   1645   1650   1655   1660   1665
 CVFL2         1 000004C5 FFFFFFEE     R    1671  1675   1680   1685   1690   1695   1700   1705   1710
 CVFL3         1 000004C6 FFFFFFEE     R    1716  1720   1725   1730   1735   1740   1745   1750   1755
 CVFL4         1 000004C7 FFFFFFEE     R    1761  1765   1770   1775   1780   1785   1790   1795
 CVFL5         1 000004C8 FFFFFFEE     R    1801  1805   1810   1815   1820
 CVFL6         1 000004C9 FFFFFFEE     R    1826  1830   1835   1847   1852   1857   1869   1874   1879   1891   1896
                                                  1901   1913
 CVFPUSR      32 000004C6 FFFFFFEE         1730 17727
 CVFTMIL     128 000004C4 FFFFFFEE         1630  7878
 CVHEAP#       1 00000200 FFFFFFEE A   U    1532  1533
 CVHILNO       4 00000160 FFFFFFEE     A    1419 15256  15335
 CVINVRTN      4 00000888 FFFFFFEE     V    2188  2158
 CVJESFLG      1 000004CA FFFFFFEE     R    1919  1923
 CVLJCB        4 000001C4 FFFFFFEE     A    1453 19109  19159  19309
 CVLNKRGS      4 00000780 FFFFFFEE     F    2135  2110M  2136   7944M  8103M 11616M 16975M 18074M 18167M 18791M 18989M
                                                 19170M 19213M 19318M 19630M 19972M
 CVLNKRTN      4 000007B0 FFFFFFEE     U    2136  2125M
 CVLOCK1       1 00000088 FFFFFFEE     R    1277  1281   1286  20274  20276  20276  20280M 20317  20317  20334  20338M
                                                 20835  20837  20837  20841M 20959  20959  20976  20980M 21115  21117
                                                 21117  21121M 21237  21237  21254  21258M
 CVLOCK2       1 00000089 FFFFFFEE     R    1291  1295
 CVLOCK3       1 0000008A FFFFFFEE     R    1300  1304
 CVLOCK4       1 0000008B FFFFFFEE     R    1309  1313
 CVLOGMOD      1 00000068 FFFFFFEE     R    1264  1268
 CVMACH        1 00000067 FFFFFFEE     R    1224  1228   1233   1238   1243   1248   1253   1258
 CVMAXLNO      4 0000015C FFFFFFEE     A    1418 15225  15304  15372  15510
 CVMBUFF       4 00000138 FFFFFFEE     A    1400  7891
 CVMILRTN      4 00000884 FFFFFFEE     V    2187  2167
 CVNOARTN      4 00000890 FFFFFFEE     V    2190  2161
 CVNOTIFY      5 00000061 FFFFFFEE     X    1218  9427M  9427   9566
 CVNTIDLE      4 0000092C FFFFFFEE     F    2232 12636  12637M
 CVNWDATE      4 00000608 FFFFFFEE     F    1992  1996   1996
 CVNWMPG#      1 00000008 FFFFFFEE A   U    1994  1995
 CVPFXRTN      1 00000000 00000000 A   T    2133  2133
 CVPGFLAG      1 00000A01 FFFFFFEE     R    2300  2304   2309   2314
 CVPIOSZ       1 00004F80 FFFFFFEE A   U    1363  1365
 CVPPDBQH      4 0000009C FFFFFFEE     A    1321  1322  18336  18410M 18426M 18426  18432  19011M 19011
 CVPPDBQT      4 000000A0 FFFFFFEE     A    1322 18147  18176M 18433M
 CVPSFNO       1 000003E9 FFFFFFEE A   N    1485  1487
1TERM     (TERM2193) (12:56) (15MAR04) Ordinary Symbol and Literal Cross Reference                                          Page   92
 CVPSLNO       1 000007CF FFFFFFEE A   N    1486  1487
 CVPXSZ        1 00000008 FFFFFFEE A   U    1364  1365
 CVR          12 0000000C 00000001 A   #    1113  1183U 21385M
 CVRKEY        1 00000008 FFFFFFEE A   U    2058  2059
 CVRSET        1 00000002 FFFFFFEE A   U    2052 19828
 CVSEGRTN      4 00000880 FFFFFFEE     V    2186  2150
 CVSITP        4 000000BC FFFFFFEE     A    1338 19127M
 CVSTACK#      1 00000080 FFFFFFEE A   U    1524  1525
 CVSTART       4 00000000 FFFFFFEE     C    1197  2368
 CVTIMRQ       4 00000294 FFFFFFEE     A    1542 20283  20285M
 CVTQEID       4 000001FC FFFFFFEE     A    1471 20801  20805M 21011
 CVTQEQH       4 000001F8 FFFFFFEE     A    1470 20849  21129  21427
 CVTRC         4 00000768 FFFFFFEE     I    2125  2111B  7945B  8104B 11617B 16976B 18075B 18168B 18792B 18990B 19171B
                                                 19214B 19319B 19631B 19973B
 CVTRCRTN      4 00000778 FFFFFFEE     V    2132  2126
 CVTSEGPL      4 000005EC FFFFFFEE     A    1979  7681M 17245  17367
 CVUSFNO       1 00000001 FFFFFFEE A   N    1492  1494
 CVUSLNO       1 000003E7 FFFFFFEE A   N    1493  1494
 CVVOL#        1 00000005 FFFFFFEE A   U    2343  2344
 CVWTOFLG      1 000004CB FFFFFFEE     R    1929  1933   1938   1943   1948   1953
 CVWTOSGP      4 00000748 FFFFFFEE     V    2092  7980
 CVWYLSSN      8 00000028 FFFFFFEE     C    1209  8038   9503   9508
 DEBUGSG       1 00000000 00000000 A   T    2086  2086
 DEV          12 00000000 FFFFFFEB     J    4724  4732
 DEVMAX#       1 00000002 FFFFFFEC A   U    4675  4732
 DEVTYPE       1 00000001 FFFFFFEB     R    4692  4701   4711
 DISPATCH      1 00000000 0000001B     T   17285 17285  21643
 DOSOME        4 00002098 00000001     I   19179 18886B 18888B 18890B 18906B 18927B 18948B
 DOTTBL        1 00000000 00000000 A   T    2202  2202
 DQJCB         1 00000000 00000025     T   19880 19880
 DRENCFLG      1 00000F9F FFFFFFEC     R    6130  6134   6139   6144   6149   6154
 DRENPROT      1 00000F9E FFFFFFEC     R    6117  6125
 DSNON        40 00000E90 FFFFFFEC     C    5850  5851
 DSNWADSN     44 00000E5C FFFFFFEC     C    5837  5838   5839   5840   5849   5857   6088   6094   6096   6102   6105
                                                  6107   6110   6159
 DSNWAF4       1 00000F37 FFFFFFEC     R    5905  5909   5914   5919   5924   5929   5934   5939   5944
 DSNWAF5       1 00000F38 FFFFFFEC     R    5950  5954   5959   5964   5969   5974   5979   5984   5989
 DSNWAF6       1 00000F39 FFFFFFEC     R    5995  5999   6004   6009   6014   6019   6024   6029   6034
 DSNWAF7       1 00000F3A FFFFFFEC     R    6040  6044   6049   6054   6059
 DSNXG         1 00000004 FFFFFFEC A   U    5842  5844
 DSNXGL        1 00000003 FFFFFFEC A   U    5843  5844
 DSNXU         1 00000007 FFFFFFEC A   U    5844  5846
 DSNXUL        1 00000004 FFFFFFEC A   U    5845  5846
 DSSIZ         1 00000108 FFFFFFEC A   U    6088  6096   6105   6110
 DUMP          2 000020BA 00000001     H   19212 18980B 18982B
 EBCTBL        1 00000000 00000000 A   T    2198  2198
 EBCTBL7       1 00000000 00000000 A   T    2201  2201
 ECBLIST       1 00000000 00000000 A   T    2061  2061
 ENDLNO        1 00000000 00000011     T   15910 15910
 EOSALL        1 00000040 FFFFFFE3 A   U    6891 14127
 EOSXCTL       1 00000020 FFFFFFE3 A   U    6892 14147
 EPARTBL       1 00000000 00000000 A   T    2193  2193
 FMILASYN      1 00000050 FFFFFFE3 A   U    6922 18975
 FMILDUMP      1 00000031 FFFFFFE3 A   U    6915 18979
 FMILERR       1 00000024 FFFFFFE3 A   U    6912 18981
 FMILINIT      1 00000021 FFFFFFE3 A   U    6910 18983
 FMILREAD      1 00000042 FFFFFFE3 A   U    6919 18887
 FMILSOS       1 00000040 FFFFFFE3 A   U    6917 18966
 FMILSTOP      1 00000030 FFFFFFE3 A   U    6914 18977
1TERM     (TERM2193) (12:56) (15MAR04) Ordinary Symbol and Literal Cross Reference                                          Page   93
 FMILWRIT      1 00000041 FFFFFFE3 A   U    6918 18885
 FMILXCTL      1 00000047 FFFFFFE3 A   U    6920 18889
 FREEBILL      1 00000000 0000001E     T   18621 18621
 FREECORE      1 00000000 00000023     T   18632 18632
 FREELOC       2 00002180 00000001     H   19552 17288  18625  19877
 FREEPOOL      1 00000000 0000001D     T   17406 17406
 FSR           0 00000000 00000001 A   #    1010  7610   7743M  7796   8135M  8353   9246M  9266M  9313   9620M  9646
                                                 10201M 10286  10506M 10554  10743M 10781  10813M 10828M 10851  10886M
                                                 10901M 10925  12512M 12532M 12562  12681M 12719  12910M 12947  13068M
                                                 13088M 13124  13426M 13462M 13661  13748M 13782  13890M 13917  14042M
                                                 14069  14193M 14290  15039M 15103  15799M 15825  15894M 15968  16703M
                                                 16749  17132M 17183  17256M 17271M 17328  17391M 17434  17605M 17907
                                                 18222M 18269  18474M 18501  18607M 18661  19239M 19265  19504M 19526M
                                                 19561  19659M 19916  20180M 20228  20364M 20409  20486M 20512  20596M
                                                 20679  21031M 21080  21317M
 GETCORE       1 00000000 00000022     T   18631 18631
 GETPOOL       1 00000000 0000001C     T   17294 17294
 GETRSC        1 00000000 00000026     T   19881 19881
 GTFRSTLN      1 00000000 00000019     T   15924 15924
 GTNEXTLN      1 00000000 00000018     T   15923 15923
 HIBAL         1 00000000 FFFFFFFF     J     691   707    720    733    746    759    772    785    798    811    824
                                                   837    850    863    876    889    902
 IHB1315C      2 000000D4 00000001     H    7676  7671B
 IHB1315F      1 000000D0 00000001     B    7672  7678
 IHB8860       4 00002414 00000001     F   20448 20446
 INIT          4 0000203A 00000001     I   19109 18984B
 INITCMD       1 00000000 0000001F     T   18622 18622
 INITFPRV      1 00000080 FFFFFFE3 A   U    6885  8037
 INITPUSR      1 00000000 00000020     T   18623 18623
 INITUSER      2 00001C28 00000001     H   17637 17635
 INITXDMP      2 0000164A 00000001     H   15816 15812
 INSLINE       1 00000000 0000001A     T   15927 15927
 INVALID       1 00000000 00000000 A   T    2188  2188
 JCB         208 00000000 FFFFFFE2     J    7282  8485U 10102U 11265U 11483U 11647  12306U 13817U 14997U 16018U 16792U
                                                 17660U 18537U 19036U 19702U 19820M 19882  19950U 19986  20263U
 JCBAFALO    128 00000062 FFFFFFE2         7131  8524  13856  16165  17075M 19358M
 JCBAFL        1 00000062 FFFFFFE2     R    7127  7131   7136   7141   7146   7151   7156   7161   7166
 JCBAPDSP     16 00000062 FFFFFFE2         7146 19467  19467  19773  19820M 19820
 JCBBFL        1 00000063 FFFFFFE2     R    7172  7176   7181   7186   7191   7196   7201   7206
 JCBBFSIB     64 00000063 FFFFFFE2         7181 17104M
 JCBBILLX      8 00000088 FFFFFFE2     D    7257  7265   7265
 JCBFARB      32 00000062 FFFFFFE2         7141 19467  19467  19468
 JCBFATTN      2 00000062 FFFFFFE2         7161  8503  10150M 11277M 12320  12320  12321M 13835  15009M 17043M 19354M
                                                 19425M 20154
 JCBFATTNFREE
               4 00000063 FFFFFFE2         7201 19497M
 JCBFBILLED
               2 00000063 FFFFFFE2         7206 19092M
 JCBFCNT       2 00000034 FFFFFFE2     H    7034 19099M 19099
 JCBFNATN     64 00000062 FFFFFFE2         7136 10116  17009  19391
 JCBFPATN      8 00000062 FFFFFFE2         7151 10128M 12320  12320  17021M 19350M 19403M
 JCBFTBRK      8 00000063 FFFFFFE2         7196 11645M 11674M
 JCBFTINT      1 00000062 FFFFFFE2         7166 11588M 11729M
 JCBFWINT     16 00000063 FFFFFFE2         7191 20084M 20132M
 JCBPDBXL      8 00000058 FFFFFFE2     D    7050 16832  16855  17756  18542  18569  18580M 19045M 19110M 19112  19137
                                                 19160M 19161  19181M
 JCBQF         4 00000000 FFFFFFE2     A    7016 19788
 JCBR          5 00000005 00000001 A   #    1023  8473M  8485U 13808M 13817U 14997U 15003M 16784M 16792U 17652M 17660U
                                                 18537U 19036U 19702U 19942M 19950U
1TERM     (TERM2193) (12:56) (15MAR04) Ordinary Symbol and Literal Cross Reference                                          Page   94
 JCBRSCF1      1 00000064 FFFFFFE2     R    7212  7216   7221   7226
 JCBSEQ        2 00000048 FFFFFFE2     H    7043 16020
 JCBSFLG1      1 00000065 FFFFFFE2     R    7232  7236   7241
 JCBSINP       4 00000038 FFFFFFE2     A    7037 17800M
 JCBTIMID      4 0000000C FFFFFFE2     A    7021 11607M 11607  11652M 11677  11696M 11696  19713  19732M 19732  19963M
                                                 19963  19991M 20024  20035M 20035  20057  20068M 20068
 JCBTIMQL      4 00000010 FFFFFFE2     A    7022 19733M 20284M
 JCBUCEP       4 00000070 FFFFFFE2     A    7249 17697M 17697
 JCBUCEQH      4 00000074 FFFFFFE2     A    7250 17684M 17684
 JCBWCPU       4 0000007C FFFFFFE2     F    7253 17671M 17671
 JCBWFL        1 00000060 FFFFFFE2     R    7056  7060   7065   7070   7075   7080   7085   7090   7095   7123  19760
 JCBWFRSC     16 00000060 FFFFFFE2         7075 19484M
 JCBWFSO     128 00000060 FFFFFFE2         7060 19056  19085M
 JCBWFT       64 00000060 FFFFFFE2         7065 16826M 19068M 19188M
 JCBWFTM       2 00000060 FFFFFFE2         7090 19741M 20097M
 JCBWWFL       1 00000061 FFFFFFE2     R    7101  7105   7110   7115   7120  19491M
 KIOFLAGS      1 00000014 FFFFFFE8     R    6347  6351   6356   6361
 KWLIST        4 0000001C FFFFFFE8     A    6370  6371
 KWR         504 00000024 FFFFFFE8     X    6568  6370
 KWRDSTRT      1 00000029 FFFFFFE8     U    6385  6547   6547
 KWRST         4 00000024 FFFFFFE8     F    6375  6568   6568
 KWRSTART      4 00000024 FFFFFFE8     F    6380  6561
 KWRUSER       3 00000024 FFFFFFE8     C    6381  6383   6383
 LOCATE        1 00000000 00000012     T   15912 15912
 LOWTBL        1 00000000 00000000 A   T    2196  2196
 LSR           8 00000008 00000001 A   #    1061  7610   7743M  7796   8135M  8353   9266M  9313   9620M  9646  10201M
                                                 10286  10506M 10554  10743M 10781  10828M 10851  10901M 10925  12532M
                                                 12562  12681M 12719  12910M 12947  13088M 13124  13462M 13661  13748M
                                                 13782  13890M 13917  14042M 14069  14193M 14290  15039M 15103  15799M
                                                 15825  15894M 15968  16703M 16749  17132M 17183  17271M 17328  17391M
                                                 17434  17605M 17907  18222M 18269  18474M 18501  18607M 18661  19239M
                                                 19265  19526M 19561  19659M 19916  20180M 20228  20364M 20409  20486M
                                                 20512  20596M 20679  21031M 21080  21317M
 MILAWR        1 00000046 FFFFFFE3 A   U    6898 12826  18903
 MILCNTL       1 00000049 FFFFFFE3 A   U    6901 12991  18924
 MILERR        1 00000000 00000000 A   T    2187  2187
 MILFLAG       1 00000088 00000001     X    7557 18700M 18714  18745
 MILFQCHK      2 00001FEC 00000001     H   19002 18812B
 MILINFO       8 00000018 00000001     D    7429  7843U  8150  17963U 18318U 18628  18698U 19871
 MILP          4 00000050 00000001     F    7496  7555
 MILPATH       4 00000050 00000001     F    7495  7850
 MILPMGC       4 00000050 00000001     R    7498  8076  18030  18381  18764  19606
 MILPOST       2 00001EDE 00000001     H   18652 18648
 MILPTRS       4 0000008C 00000001     A    7562 18771  18799  18800  19045  19110  19160  19181
 MILQLOOP      2 00001F1A 00000001     H   18752 19073B 19104B 19142B 19166B 19193B
 MILSFLAG      1 00000089 00000001     X    7558  7519   7962   8010M 18700
 MILSOF        1 0000004A FFFFFFE3 A   U    6902 13965  18945
 MILXEXIT      2 000020CE 00000001     H   19220 19027B
 MODABUF       1 00000008 FFFFFFE3 A   U    6931 16287
 MODACL        1 00000010 FFFFFFE3 A   U    6930 16503
 MODADRAT      1 00000004 FFFFFFE3 A   U    6932 16557
 MODBDWAT      1 00000020 FFFFFFE3 A   U    6936 12833
 MODBFOR       1 00000001 FFFFFFE3 A   U    6941 16395
 MODBNLF       1 00000004 FFFFFFE3 A   U    6939 16584
 MODBNNLA      1 00000010 FFFFFFE3 A   U    6937 16530
 MODBSLOL      1 00000008 FFFFFFE3 A   U    6938 16141  16422
 MODBUFMT      1 00000002 FFFFFFE3 A   U    6940 16368
 MODBUPLO      1 00000040 FFFFFFE3 A   U    6935 16676
 MODBUPPR      1 00000080 FFFFFFE3 A   U    6934 16653
1TERM     (TERM2193) (12:56) (15MAR04) Ordinary Symbol and Literal Cross Reference                                          Page   95
 MODCDSPL      1 00000040 FFFFFFE3 A   U    6944 16131
 MODCNCRS      1 00000080 FFFFFFE3 A   U    6943 16611
 MODCNECH      1 00000004 FFFFFFE3 A   U    6948 16203
 MODCSTIB      1 00000020 FFFFFFE3 A   U    6945 16134
 MODCSTOB      1 00000001 FFFFFFE3 A   U    6950 12840  16104
 MODDNMOD      1 00000010 FFFFFFE3 A   U    6955 16233  16314
 MODDNPAU      1 00000080 FFFFFFE3 A   U    6952 16148  16176  16449
 MODDNPT       1 00000040 FFFFFFE3 A   U    6953 16476
 MODDNTYP      1 00000001 FFFFFFE3 A   U    6959 16341
 MODDRUND      1 00000002 FFFFFFE3 A   U    6958 16260
 MODDTRAN      1 00000020 FFFFFFE3 A   U    6954 16230
 MODLCELL      8 00000110 00000001     D    7750  7714
 MOVEX         2 00001E60 00000001     H   18492 17286  18624
 MQRBYT1       1 00000026 00000001     X    7454  7486
 MQRBYT2       1 00000027 00000001     X    7455  7492
 MQRCMD        1 0000001E 00000001     X    7441 18885  18887  18889  18903  18924  18945  18966  18975  18977  18979
                                                 18981  18983
 MQRCMDFL      1 0000001F 00000001     X    7442  7478   7478   7484
 MQRCPLB       1 00000025 00000001     X    7452 19339  19376  19450
 MQRHDR       56 00000018 00000001     X    7479 18825M 18825  18872M 19873
 MQRINCT       2 00000048 00000001     H    7472  7476   7476
 MQRLIN#       2 0000001C 00000001     H    7440 19294
 MQRSINP       4 00000028 00000001     A    7457  7458
 MQRSTRT       4 00000018 00000001     F    7434  7479   7479
 MQRVPGM       8 0000002C 00000001     C    7460  7466   7466
 NBLTBL        1 00000000 00000000 A   T    2200  2200
 NOACTION      1 00000000 00000000 A   T    2190  2190
 NPARTBL       1 00000000 00000000 A   T    2194  2194
 NPATDEQ       1 00000000 0000000E     T   14228 14228  21644
 NPATQ         1 00000000 0000000B     T   14222 14222  21641
 NSCNCB      176 00000000 FFFFFFED     J    2459  2585
 NSCNFLGS      1 00000008 FFFFFFED     R    2396  2400   2405
 NSCNTYPE      1 00000018 FFFFFFED     R    2414  2418   2423   2428   2433   2438
 PAGERES       1 00000000 00000007     T   10241 10241  14215
 PATH          4 00000000 FFFFFFE7     F    6596  6655
 PATHBUF       4 0000001C FFFFFFE7     R    6617  7891M
 PATHD        56 00000000 FFFFFFE7     J    6662  7860U
 PATHDEQ       1 00000000 0000000C     T   14223 14223  21642
 PATHECB       4 00000028 FFFFFFE7     R    6631  7866M
 PATHFCLS      1 00000080 FFFFFFE7 A   U    6621 18712
 PATHFNI       1 00000020 FFFFFFE7 A   U    6623 18743
 PATHFOPN      1 00000008 FFFFFFE7 A   U    6625  7960   8008
 PATHMY        8 00000008 FFFFFFE7     X    6602  7867M
 PATHPASS      4 00000024 FFFFFFE7     X    6629  7868M  7885M
 PATHQ         1 00000000 0000000A     T   14221 14221  21639
 PATHRBAF      1 0000000C FFFFFFE7 A   U    6644 18630
 PATHYOU       8 00000010 FFFFFFE7     X    6604  7890M
 PDB          56 00000000 FFFFFFE3     J    7002  8024U 16001U 16688  16782U 16795  17978U 17983
 PDBBYT1       1 0000000E FFFFFFE3     X    6841  6873
 PDBBYT2       1 0000000F FFFFFFE3     X    6842  6879
 PDBCMD        1 00000006 FFFFFFE3     X    6828  8036M 16813
 PDBCMDFL      1 00000007 FFFFFFE3     X    6829  6865   6865   6871   8037M
 PDBCPLA       1 0000000C FFFFFFE3     X    6838 16994
 PDBCPLB       1 0000000D FFFFFFE3     X    6839 17063
 PDBDATA       4 00000004 FFFFFFE3     F    6825 19122U
 PDBHDR       56 00000000 FFFFFFE3     X    6866  7578   8035M  8035   8153  16009M 16009  16842  16849  18629
 PDBINCT       2 00000030 FFFFFFE3     H    6859  6863   6863  16022M 16056M
 PDBLENG       2 00000000 FFFFFFE3     H    6822  8039M
 PDBLIN#       2 00000004 FFFFFFE3     H    6827 16020M
1TERM     (TERM2193) (12:56) (15MAR04) Ordinary Symbol and Literal Cross Reference                                          Page   96
 PDBMODA       1 00000008 FFFFFFE3     X    6832 16289M 16505M 16559M
 PDBMODB       1 00000009 FFFFFFE3     X    6833 16143M 16370M 16397M 16424M 16532M 16586M 16655M 16678M
 PDBMODC       1 0000000A FFFFFFE3     X    6834 16106M 16136M 16205M 16613M
 PDBMODD       1 0000000B FFFFFFE3     X    6835 16150M 16178M 16235M 16262M 16316M 16343M 16451M 16478M
 PDBOUTCT      2 0000002E FFFFFFE3     H    6858 16065M 17988
 PDBSINP       4 00000010 FFFFFFE3     A    6844  6845  19127
 PDBSTRT       4 00000000 FFFFFFE3     F    6821  6866   6866
 PDBSUC        2 0000002C FFFFFFE3     H    6857 17093
 PDBSYSNM      8 00000024 FFFFFFE3     C    6855  8038M
 PDBVINFO     16 00000014 FFFFFFE3     X    6853 17110
 PDBVPGM       8 00000014 FFFFFFE3     C    6847  6853   6853
 PDBWC         2 00000032 FFFFFFE3     H    6860 16063M
 PRESS         1 00000000 00000013     T   15914 15914
 PUNTCMD       2 000006D6 00000001     H   10189  9993B
 QSETEXIT      2 00002242 00000001     I   19845 19724B
 QSETUP        4 000021CA 00000001     I   19672 19671  19876
 RAR          14 0000000E 00000001 A   #    1139  2125   2126M  2127B  2129M  2130B  2150M  2151B  2155M  2156B  2158M
                                                  2159B  2161M  2162B  2164M  2165B  2167M  2168M  2168B  2174   7607
                                                  7745M  7748B  7793   7983M  7984M  7984B  8137M  8140B  8182   8202M
                                                  8212M  8212B  8222M  8223B  8350   8626M  8627M  8627B  8661M  8662M
                                                  8662B  8901M  8902M  8902B  8989M  8990M  8990B  9069M  9070M  9070B
                                                  9116M  9117M  9117B  9198M  9199M  9199B  9218M  9219M  9219B  9232M
                                                  9233M  9233B  9268M  9271B  9310   9476M  9477M  9477B  9491M  9492M
                                                  9492B  9517M  9518M  9518B  9532M  9533M  9533B  9556M  9557M  9557B
                                                  9622M  9625B  9643   9703M  9704M  9704B  9733M  9734M  9734B  9740M
                                                  9741M  9741B  9849M  9850M  9850B  9867M  9868M  9868B 10203M 10206B
                                                 10283  10366M 10367M 10367B 10406M 10407M 10407B 10446M 10447M 10447B
                                                 10468M 10469M 10469B 10490M 10491M 10491B 10508M 10511B 10551  10648M
                                                 10649M 10649B 10693M 10694M 10694B 10715M 10716M 10716B 10745M 10748B
                                                 10778  10810M 10811M 10811B 10830M 10833B 10848  10883M 10884M 10884B
                                                 10903M 10906B 10922  11025M 11026M 11026B 11062M 11063M 11063B 11113M
                                                 11114M 11114B 11153M 11154M 11154B 11306M 11307M 11307B 11351M 11352M
                                                 11352B 11376M 11377M 11377B 11391M 11392M 11392B 11405M 11406M 11406B
                                                 11509M 11510M 11510B 11534M 11535M 11535B 11545M 11546M 11546B 11560M
                                                 11561M 11561B 11574M 11575M 11575B 11650M 11651M 11651B 11663M 11664M
                                                 11664B 11699M 11700M 11700B 11732M 11733M 11733B 11736M 11737M 11737B
                                                 11936M 11937M 11937B 11954M 11955M 11955B 12067M 12068M 12068B 12085M
                                                 12086M 12086B 12149M 12150M 12150B 12178M 12179M 12179B 12204M 12205M
                                                 12205B 12413M 12414M 12414B 12439M 12440M 12440B 12479M 12480M 12480B
                                                 12534M 12537B 12559  12661M 12662M 12662B 12683M 12686B 12716  12813M
                                                 12814M 12814B 12823M 12824M 12824B 12847M 12848M 12848B 12862M 12863M
                                                 12863B 12912M 12915B 12944  12988M 12989M 12989B 12997M 12998M 12998B
                                                 13062M 13063M 13063B 13090M 13093B 13121  13186M 13187M 13187B 13281M
                                                 13282M 13282B 13320M 13321M 13321B 13440M 13441M 13441B 13464M 13467B
                                                 13658  13720M 13721M 13721B 13750M 13753B 13779  13892M 13895B 13914
                                                 13963M 13964M 13964B 13970M 13971M 13971B 14021M 14022M 14022B 14044M
                                                 14047B 14066  14118M 14119M 14119B 14124M 14125M 14125B 14157M 14158M
                                                 14158B 14172M 14173M 14173B 14195M 14198B 14287  14355M 14356M 14356B
                                                 14388M 14389M 14389B 14419M 14420M 14420B 14643M 14644M 14644B 14647M
                                                 14648M 14648B 14660M 14661M 14661B 14789M 14790M 14790B 14815M 14816M
                                                 14816B 14833M 14834M 14834B 14849M 14850M 14850B 14875M 14876M 14876B
                                                 14893M 14894M 14894B 14921M 14922M 14922B 14939M 14940M 14940B 14944M
                                                 14945M 14945B 14968M 14969M 14969B 14986M 14987M 14987B 15041M 15044B
                                                 15100  15238M 15239M 15239B 15317M 15318M 15318B 15543M 15544M 15544B
                                                 15629M 15630M 15630B 15660M 15661M 15661B 15678M 15679M 15679B 15683M
                                                 15684M 15684B 15707M 15708M 15708B 15738M 15739M 15739B 15769M 15770M
                                                 15770B 15801M 15804B 15822  15896M 15899B 15965  16705M 16708B 16746
                                                 16798M 16799M 16799B 16852M 16853M 16853B 16898M 16899M 16899B 16952M
                                                 16953M 16953B 16958M 16959M 16959B 17134M 17137B 17180  17248M 17249M
1TERM     (TERM2193) (12:56) (15MAR04) Ordinary Symbol and Literal Cross Reference                                          Page   97
                                                 17249B 17273M 17276B 17325  17370M 17371M 17371B 17393M 17396B 17431
                                                 17540M 17541M 17541B 17576M 17577M 17577B 17607M 17610B 17706M 17707M
                                                 17707B 17715M 17716M 17716B 17736M 17737M 17737B 17775M 17776M 17776B
                                                 17791M 17792M 17792B 17797M 17798M 17798B 17833M 17834M 17834B 17841M
                                                 17842M 17842B 17904  18092M 18093M 18093B 18224M 18227B 18266  18414M
                                                 18415M 18415B 18476M 18479B 18498  18609M 18612B 18658  18726M 18727M
                                                 18727B 19020M 19021M 19021B 19043M 19044M 19044B 19071M 19072M 19072B
                                                 19102M 19103M 19103B 19140M 19141M 19141B 19153M 19154M 19154B 19157M
                                                 19158M 19158B 19164M 19165M 19165B 19179M 19180M 19180B 19191M 19192M
                                                 19192B 19204M 19205M 19205B 19241M 19244B 19262  19528M 19531B 19558
                                                 19661M 19664B 19722M 19723M 19723B 19806M 19807M 19807B 19838M 19839M
                                                 19839B 19913  19989M 19990M 19990B 20011M 20012M 20012B 20027M 20028M
                                                 20028B 20044M 20045M 20045B 20060M 20061M 20061B 20071M 20072M 20072B
                                                 20120M 20121M 20121B 20124M 20125M 20125B 20182M 20185B 20225  20366M
                                                 20369B 20406  20488M 20491B 20509  20598M 20601B 20676  21033M 21036B
                                                 21077  21319M 21322B 21392M 21393M 21393B 21504M 21505M 21505B 21507M
 RDW           4 00000000 FFFFFFE4     F    6785  6798
 RSCFLAGS      1 00000014 FFFFFFE5     R    6747  6751   6756   6761
 RSGFLG1       1 0000003B FFFFFFE6     R    6699  6703   6708   6713   6716
 R0            0 00000000 FFFFFFFF A   #     699  2110   2179M  7643M  7643   7645M  7654M  7654   7667M  7944   7974M
                                                  8103   8493M  8493   8510M  8531M  8650M  8890M  9236M  9246   9246M
                                                  9467M  9482M  9508M  9523M  9547M  9568M  9569M  9838M  9856M 10312
                                                 10355M 10395M 10395  10435M 10457M 10457  10479M 10637M 10682M 10704M
                                                 10813  10813M 10886  10886M 11051M 11340M 11365M 11365  11616  11646M
                                                 11826M 11827M 11828M 11925M 11943M 12074M 12090M 12110M 12154M 12193M
                                                 12428M 12462M 12512  12512M 12650M 12650  12802M 12802  12983  13011M
                                                 13068  13068M 13424M 13426  13426M 13715  14408  14638M 14656M 14657
                                                 14662  14697M 14697  14730  14804M 14822M 14864M 14882M 14910M 14910
                                                 14928M 14941M 14975M 15199M 15208M 15208  15225  15241  15279M 15290M
                                                 15290  15304  15320  15483M 15484M 15637M 15667M 15680M 15715M 15746M
                                                 15777M 16828  16849M 16855M 16889  16907  16909M 16930  16932M 16938
                                                 16975  17209M 17210M 17221  17228M 17237  17252  17256  17256M 17358
                                                 17359  17460  17537M 17573M 17579  17581  17772M 17788M 17802M 17803M
                                                 17819  17820  17820  17820  17837M 18074  18088M 18089M 18121M 18122M
                                                 18123M 18143M 18144M 18145M 18167  18356M 18358  18551M 18551  18558M
                                                 18566  18568M 18574  18576  18634  18634  18634  18791  18800M 18809M
                                                 18809  18826  18989  19170  19213  19318  19630  19760M 19761M 19761
                                                 19788M 19789M 19789  19834M 19972  19985M 20099  20277M 20278M 20280
                                                 20335M 20336M 20338  20736  20801M 20803  20805M 20838M 20839M 20841
                                                 20977M 20978M 20980  21118M 21119M 21121  21255M 21256M 21258  21285M
                                                 21527M 21613  21620M
 R1            1 00000001 FFFFFFFF A   #     712  2173M  2174M  2180M  7639M  7661M  7661   7666   7681   7710U  7718M
                                                  7718   7973M  8649M  8889M  9359M  9462M  9481M  9503M  9522M  9542M
                                                  9579M  9730M  9737M  9837M  9855M 10052M 10331  10354M 10391M 10434M
                                                 10453M 10478M 10594M 10595M 10595  10607M 10636M 10677M 10703M 10813
                                                 10886  11050M 11213M 11214M 11215M 11339M 11402M 11647M 11660M 11924M
                                                 11942M 12073M 12089M 12109M 12153M 12188M 12334M 12335M 12423M 12457M
                                                 12465  12466  12466  12466  12509M 12512  12755  12820M 12844M 12985M
                                                 12994M 13006M 13048  13049  13049  13049  13066M 13068  13169M 13169
                                                 13183M 13317M 13419M 13426  13717M 13960M 13967M 14121M 14154M 14238
                                                 14238  14238  14416M 14639M 14656M 14799M 14821M 14859M 14881M 14927M
                                                 14974M 15234M 15313M 15441M 15484  15636M 15666M 15714M 15745M 15776M
                                                 15993  16688M 16774  16795M 16842M 16945M 16955M 17256  17524M 17525M
                                                 17525  17578  17580  17765M 17783M 17794M 17810M 17819  17820  17820
                                                 17820  17837M 17968  18094  18351M 18357  18411M 18432M 18433  18577
                                                 18634  18634  18634  18799M 19112M 19122U 19137M 19161M 19803M 19828M
                                                 19986M 20253  20275M 20276M 20278  20316M 20326M 20336  20343M 20471
                                                 20736  20745  20836M 20837M 20839  20958M 20968M 20978  21116M 21117M
                                                 21119  21236M 21246M 21256  21280M 21506M 21558M
1TERM     (TERM2193) (12:56) (15MAR04) Ordinary Symbol and Literal Cross Reference                                          Page   98
 R12          12 0000000C FFFFFFFF A   #     855  2136
 R13          13 0000000D FFFFFFFF A   #     868  7924   8183M  8215M  8217M  8219M  8221M 17638  21394M 21395
 R14          14 0000000E FFFFFFFF A   #     881  2111M  7945M  8104M 11617M 11814M 11819M 11827  11828M 16827M 16976M
                                                 17241M 17241  17242M 17244M 17363M 17363  17364M 17366M 18075M 18111M
                                                 18116M 18122  18123M 18133M 18138M 18144  18145M 18168M 18577M 18578M
                                                 18792M 18990M 19171M 19214M 19319M 19631M 19672  19973M 20098M 21621B
 R15          15 0000000F FFFFFFFF A   #     894  2110   7747M  7747   7865M  7866   7935M  7935   7944   7980M  8094M
                                                  8094   8103   8139M  8139   8185M  8196U  8211M  8398U  8445   8658M
                                                  8898M  8932M  8933M  8933   8946   9023M  9023   9152M  9152   9270M
                                                  9270   9365M  9369M  9378M  9378   9385   9473M  9488M  9514M  9529M
                                                  9553M  9588M  9590M  9590   9624M  9624   9846M  9864M  9931M  9932M
                                                  9932  10000  10012M 10051  10056M 10065M 10065  10072  10205M 10205
                                                 10363M 10403M 10443M 10465M 10487M 10510M 10510  10607  10645M 10690M
                                                 10712M 10747M 10747  10832M 10832  10905M 10905  10969  11022M 11059M
                                                 11110M 11115M 11212M 11215  11219M 11228M 11228  11235  11255M 11265U
                                                 11348M 11373M 11388M 11393M 11467M 11468  11469  11531M 11536M 11571M
                                                 11576M 11616  11627M 11628M 11628  11652  11677M 11678M 11678  11805M
                                                 11806M 11807  11819  11860M 11933M 11951M 11985M 12010M 12010  12028M
                                                 12064M 12082M 12146M 12175M 12201M 12245M 12267M 12289M 12296M 12306U
                                                 12331M 12333M 12335  12360M 12360  12369  12370M 12393  12394M 12410M
                                                 12436M 12450M 12450  12465  12466  12466  12466  12476M 12509M 12536M
                                                 12536  12591M 12591  12635M 12636M 12637  12658M 12685M 12685  12810M
                                                 12859M 12867M 12867  12885M 12914M 12914  13017M 13019M 13019  13028M
                                                 13028  13040M 13048  13049  13049  13049  13059M 13066M 13092M 13092
                                                 13181  13278M 13283M 13326M 13326  13382M 13427  13437M 13442M 13466M
                                                 13466  13728M 13728  13752M 13752  13825M 13825  13842M 13863M 13894M
                                                 13894  14018M 14046M 14046  14115M 14169M 14197M 14197  14238  14238
                                                 14238  14640M 14772M 14772  14786M 14812M 14830M 14846M 14872M 14890M
                                                 14918M 14936M 14965M 14983M 14988M 15043M 15043  15250M 15250  15329M
                                                 15329  15604M 15604  15626M 15657M 15675M 15704M 15735M 15766M 15803M
                                                 15803  15898M 15898  16062M 16063  16064M 16065  16707M 16707  16828
                                                 16829M 16830B 16975  17136M 17136  17237M 17243M 17245M 17251M 17252M
                                                 17253  17275M 17275  17358M 17365M 17367M 17373M 17374M 17375  17395M
                                                 17395  17590M 17590  17609M 17609  17830M 17983M 17984  18047M 18047
                                                 18065  18074  18148M 18158M 18158  18167  18185M 18185  18226M 18226
                                                 18398M 18398  18478M 18478  18570M 18574  18576M 18611M 18611  18723M
                                                 18723  18782M 18782  18791  18826M 18829  18841M 18849M 18858M 18858
                                                 18865  18989  19170  19201M 19201  19213  19243M 19243  19318  19530M
                                                 19530  19621M 19621  19630  19663M 19663  19713M 19714M 19714  19819M
                                                 19820  19835M 19972  19981  19982M 19982  19991  20024M 20057M 20099
                                                 20100M 20101B 20144M 20144  20161M 20184M 20184  20274M 20277  20280M
                                                 20283M 20284  20285M 20315M 20316  20317M 20319  20334M 20335  20338M
                                                 20368M 20368  20490M 20490  20600M 20600  20716  20802M 20803M 20804
                                                 20805  20835M 20838  20841M 20849M 20850  20858  20868U 20882M 20883M
                                                 20883  20916M 20957M 20958  20959M 20961  20976M 20977  20980M 21011M
                                                 21035M 21035  21108  21115M 21118  21121M 21235M 21236  21237M 21239
                                                 21254M 21255  21258M 21301M 21301  21321M 21321  21456M 21539M 21540M
                                                 21552  21607U 21613  21620M
 R2            2 00000002 FFFFFFFF A   #     725  7644M  7645   7715   7716M  7716   8237   9361M  9362   9404M  9404
                                                  9437M  9449U 10092M 10102U 10807M 10880M 10880  11040  11466M 11468M
                                                 11470  11473M 11483U 11798M 11799M 11799  11806  11826  12610M 12611M
                                                 12623  12755M 12827  12983M 12992  13427M 13442  13498  14401M 14482M
                                                 14521  14554M 14562  14680M 14799  14859  15347M 15358M 15358  15372
                                                 15392  15485M 15496M 15496  15510  15530  15539M 15547M 15548  15549M
                                                 15550  17460M 17472  17573  17988M 17989M 18002  18094M 18175  18176
                                                 18569M 18578M 18580  20253M 20263U 20285  20639  20767M 20777M 20784M
                                                 20789M 20790  20850M 20994  21108M 21181  21193M 21194  21422M 21422
                                                 21457M 21459M 21461M 21462M 21463M 21472M 21472  21501M 21507B
 R3            3 00000003 FFFFFFFF A   #     738  7666M  7695   7717M  7850M  7860U  7903   8797M  8797   8912M  8913
1TERM     (TERM2193) (12:56) (15MAR04) Ordinary Symbol and Literal Cross Reference                                          Page   99
                                                  8965M  8965   9235   9364M  9434M  9473   9488   9514   9529   9553
                                                  9569  11808M 11814  14402M 14492M 14493M 14493  14500M 14515M 14515
                                                 14547M 14547  14556M 14682M 14708M 14708  14741M 14741  14804  14864
                                                 15540M 17359M 17374  17987M 18003M 18124M 18125M 18147M 18542M 18558
                                                 18566  18568  18570  18580  20716M 20719  20731M 20790  21423M 21457M
                                                 21481M 21495M 21495  21501M 21506  21525
 R4            4 00000004 FFFFFFFF A   #     751  8623M  8795M  8795   8913M  8946M  8947   9236   9341   9353M  9365
                                                 10331M 10344M 10423  10453  14521M 14570  15403M 15419M 15441  15475M
                                                 15483  15582M 16832M 16955  17756M 17794  18085M 18086M 18089  18103
                                                 19981M 20003M 20003  20112M 20112
 R5            5 00000005 FFFFFFFF A   #     764  8014M  8024U  8056   8435M  8443U 10312M 10325M 10379  10391  11168M
                                                 11169M 11182M 11189  11201M 11209  11212  12193  12428  13181M 13298M
                                                 13298  14562M 14570M 14578  14590M 14597M 14599  14633M 14633  15404M
                                                 15413M 15413  15420M 15435M 15435  15467M 15467  15477M 15574M 15574
                                                 15584M 16010M 16018U 17968M 17978U 18336M 18337M 18337  18411  19109M
                                                 19159M 19294M 19295M 19296M 19309  19504  19504M 20858M 20915  20916
                                                 20994  21146M 21194
 R6            6 00000006 FFFFFFFF A   #     777  7833M  7843U  8445M  8453U 11208M 12188  12423  13697M 13723  15993M
                                                 16001U 16774M 16782U 17953M 17963U 18308M 18318U 18690M 18698U 19589M
                                                 20745M 20756U 20889  20916  21129M 21137U 21146  21156M 21157M 21157
                                                 21194M 21427M 21437M 21437  21452U
 R7            7 00000007 FFFFFFFF A   #     790  2103M  2103   2104B  2116B 17639M 17649U 19674  19676  19676  19676
                                                 19847M
 R8            8 00000008 FFFFFFFF A   #     803  7828U  8237   8385U 10586U 10957U 12751U 12979U 13156U 13498  13693U
                                                 13949U 14101U 14322U 15135U 17638M 17941U 18304U 19674  19675M 19676
                                                 19676  19676  19847M 20639  20711U 21395M
 SDSNQSZ       1 0000002C FFFFFFEC A   U    6091  6092   6093
 SEG           1 00000000 00000003     T    8225  8225  10231  14209  15922
 SEGB          1 00000000 00000016     T   15920 15920
 SEGCB        60 00000000 FFFFFFE0     J    7420  8398U  8453U  9435   9569  10250
 SEGCBCOD      1 00000000 FFFFFFE0     R    7331  7340   7350   7360   7370   7380   7390   7400
 SEGCBCR       6 00000000 FFFFFFE0         7390  8568
 SEGCBLENF
               4 0000000C FFFFFFE0     A    7406  8623   8785M  8785   8847   8912   8947M  9235M  9547   9569
 SEGCBLOC      4 00000020 FFFFFFE0     A    7410  9542
 SEGCBMRKF
               4 00000008 FFFFFFE0     A    7405  8847   8932
 SEGCBOVF      5 00000000 FFFFFFE0         7380  8694   8924   9891
 SEGCBSEG      1 00000000 FFFFFFE0         7340  8412
 SEGCBSPP      4 00000000 FFFFFFE0         7370  8467
 SEGCBWR       2 00000000 FFFFFFE0         7350  8682   8737   8769
 SEGCLR        1 00000000 00000009     T   14214 14214  15917  18626
 SEGCR         1 00000000 0000000F     T   14230 14230  15918
 SEGDC         1 00000000 00000008     T   14211 14211
 SEGINIT       1 00000000 00000005     T   10239 10239
 SEGT          1 00000000 00000006     T   10240 10240  14212
 SEGWR         1 00000000 00000002     T    8152  8152  14219  15919
 SENDPDB       2 00001CDA 00000001     H   17897 14231  17284
 SENDQPDB      2 00001DDE 00000001     H   18259 19874
 SETJCB        2 000020DC 00000001     H   19256 19875
 SHUTDOWN      1 00000000 00000024     T   19872 19872
 SIGNON        1 00000000 00000021     T   18627 18627
 SPDBLEN1      4 00000004 FFFFFFD8     F   17871 17985M 18085  18116  18125
 SPDBLEN2      4 0000000C FFFFFFD8     F   17873 18002M 18086  18138
 SPDBLOC1      4 00000000 FFFFFFD8     A   17870 17984M 17987  18037  18121
 SPDBLOC2      4 00000008 FFFFFFD8     A   17872 18001M 18003  18143
 SPDBWA       16 00000000 FFFFFFD8     J   17880 17910  17941U 17951M 17951  18222  18224  18225
 SPENDLEN      4 00000004 FFFFFFD7     A   18238 18358M
 SPENDLOC      4 00000000 FFFFFFD7     A   18237 18357M 18365M 18388
1TERM     (TERM2193) (12:56) (15MAR04) Ordinary Symbol and Literal Cross Reference                                          Page  100
 SPENDWA       8 00000000 FFFFFFD7     J   18245 18272  18304U 18474  18476  18477
 SPR          13 0000000D 00000001 A   #    1126  7607   7610   7611   7612M  7612   7739M  7743   7745   7793   7796
                                                  7798   7799M  7799   8131M  8135   8137   8350   8353   8355   8356M
                                                  8356   9262M  9266   9268   9310   9313   9314   9315M  9315   9616M
                                                  9620   9622   9643   9646   9647   9648M  9648  10197M 10201  10203
                                                 10283  10286  10287  10288M 10288  10502M 10506  10508  10551  10554
                                                 10556  10557M 10557  10739M 10743  10745  10778  10781  10782  10783M
                                                 10783  10824M 10828  10830  10848  10851  10852  10853M 10853  10897M
                                                 10901  10903  10922  10925  10927  10928M 10928  12528M 12532  12534
                                                 12559  12562  12563  12564M 12564  12677M 12681  12683  12716  12719
                                                 12721  12722M 12722  12906M 12910  12912  12944  12947  12949  12950M
                                                 12950  13084M 13088  13090  13121  13124  13126  13127M 13127  13458M
                                                 13462  13464  13658  13661  13663  13664M 13664  13744M 13748  13750
                                                 13779  13782  13783  13784M 13784  13886M 13890  13892  13914  13917
                                                 13919  13920M 13920  14038M 14042  14044  14066  14069  14071  14072M
                                                 14072  14189M 14193  14195  14287  14290  14292  14293M 14293  15035M
                                                 15039  15041  15100  15103  15105  15106M 15106  15795M 15799  15801
                                                 15822  15825  15826  15827M 15827  15890M 15894  15896  15965  15968
                                                 15969  15970M 15970  16699M 16703  16705  16746  16749  16750  16751M
                                                 16751  17128M 17132  17134  17180  17183  17184  17185M 17185  17267M
                                                 17271  17273  17325  17328  17329  17330M 17330  17387M 17391  17393
                                                 17431  17434  17435  17436M 17436  17601M 17605  17607  17904  17907
                                                 17909  17910M 17910  18218M 18222  18224  18266  18269  18271  18272M
                                                 18272  18470M 18474  18476  18498  18501  18502  18503M 18503  18603M
                                                 18607  18609  18658  18661  18662  18663M 18663  19235M 19239  19241
                                                 19262  19265  19266  19267M 19267  19522M 19526  19528  19558  19561
                                                 19562  19563M 19563  19655M 19659  19661  19913  19916  19917  19918M
                                                 19918  20176M 20180  20182  20225  20228  20229  20230M 20230  20360M
                                                 20364  20366  20406  20409  20410  20411M 20411  20482M 20486  20488
                                                 20509  20512  20513  20514M 20514  20592M 20596  20598  20676  20679
                                                 20681  20682M 20682  21027M 21031  21033  21077  21080  21081  21082M
                                                 21082  21313M 21317  21319
 STARTSES      4 00002000 00000001     I   19043 18969B
 STOW          1 00000000 00000014     T   15915 15915
 TASWRITE      2 00000DBC 00000001     H   12709 12705
 TBREAK        2 00000FB6 00000001     H   13651 13647
 TCNTL         2 00000E42 00000001     H   12937 12933
 TCURS         2 00000784 00000001     H   10277 10273
 TDQEXIT       2 00002668 00000001     H   21305 21160B
 TERMINIT      2 00000144 00000001     H    7786  7782
 TERMSEG       2 000002B0 00000001     H    8343  8339
 TERMWR        2 0000059C 00000001     H    9637 10234
 TERMWTO       2 000004A0 00000001     H    9304 10230
 TERM2193      1 00000000 00000001     R     999   997
 TIDLEWR       2 00000D58 00000001     H   12553 12549
 TIMER         2 00002676 00000001     I   21373 20439
 TIMERDQ       2 000025D4 00000001     H   21071 19878  21067  21640
 TIMERDQ       1 00000000 0000000D     T   14227 14227
 TIMERQ        2 000024C8 00000001     H   20669 14225  20665  21638
 TIMRECB       4 000024C4 00000001     F   20604 20451  20564  20577M 20577
 TIMRINIT      2 000023E0 00000001     H   20400 20396
 TIMRQVAL      4 00000020 FFFFFFD5     A   20641 20736M 20791
 TIMRQWA      40 00000000 FFFFFFD5     J   20648 20682  20711U 21031  21033  21034
 TIMRSTOP      2 00002470 00000001     H   20503 20499
 TIMRTCB       4 000024C0 00000001     F   20603 20471M 20548M 20548  20557  20572M 20572
 TINITWA      64 00000000 FFFFFFDF     J    7587  7799   7828U  8135   8137   8138
 TINPDB       56 00000000 FFFFFFDF     X    7578  8014
 TINSENDX      8 00000038 FFFFFFDF     D    7580  8055M  8055   8056M  8063M  8083
 TIO           2 0000199A 00000001     H   16740 10243  14226
1TERM     (TERM2193) (12:56) (15MAR04) Ordinary Symbol and Literal Cross Reference                                          Page  101
 TLOGOFF       2 000010A2 00000001     H   14059 14055
 TMILBRK       1 00000050 FFFFFFE3 A   U    6904 13714
 TMILEOS       1 00000040 FFFFFFE3 A   U    6890 14126  16813
 TMILINIT      1 00000021 FFFFFFE3 A   U    6884  8036
 TMILREAD      1 00000042 FFFFFFE3 A   U    6894 11408
 TMILWRIT      1 00000041 FFFFFFE3 A   U    6893  9736
 TMILXCTL      1 00000047 FFFFFFE3 A   U    6899 13189
 TNOTPARM      1 0000005C FFFFFFDB     X   13589 13591  13591
 TNOTX        60 00000020 FFFFFFDB     X   13587 13594  13594
 TNOTXCOD      1 00000020 FFFFFFDB     R   13504 13513  13523  13533  13543  13553  13563  13573
 TQE          28 00000000 FFFFFFD6     J   20626 20742  20756U 20765M 20765  20766M 20849  20868U 20889  20915  20916M
                                                 21129  21137U 21194M 21263M 21285  21452U
 TQECLCK       8 0000000C FFFFFFD6     X   20617 20790M 20889  20889  21457
 TQEID         4 00000008 FFFFFFD6     F   20616 20804M 21181  21271M 21271  21456
 TQELINK       4 00000004 FFFFFFD6     A   20615 20849  20882  20915M 20915  20916M 21129  21156  21193  21194M 21264M
 TQERTN        4 00000014 FFFFFFD6     A   20618 20791M 21501
 TRC           1 00000000 00000000 A   T    2132  2132
 TRDDO         4 000009F2 00000001     I   11255 12206B 12441B
 TRDEXIT       4 00000D18 00000001     I   12457 11116B 11394B 11537B 11577B 11861B 11986B 12033B 12246B 12268B 12290B
                                                 12371B 12395B
 TRDLGF        2 00000B8C 00000001     H   11854 11310B
 TRDLOOP       2 00000C60 00000001     H   12163 12115B
 TREAD         2 000008E8 00000001     H   10842 10838
 TREADCOM      2 0000091C 00000001     H   10915 14213
 TREADQ        2 000008B2 00000001     H   10772 10768
 TREND         2 00000822 00000001     H   10544 10540
 TRENDNEW      8 00000000 FFFFFFDC     C   10528 10590M 10608M 10626  10660M 10660  10677  10682  10718
 TRENDWA       8 00000000 FFFFFFDC     J   10535 10557  10586U 10743  10745  10746
 TSECS         4 00000DB8 00000001     F   12688 12623
 TSEG          4 0000028A 00000001     I    8182  8176
 TSEGBQNT      1 00000800 00000001 A   U    7566  7644   7716  17289  17290  17292  17404
 TSEGBUF       2 00001B94 00000001     H   17425 17287  17421
 TSEGPLIN      2 00000094 00000001     H    7601  7597
 TSEGX         4 000002AC 00000001     V    8225  8202
 TSEXIT        2 0000048E 00000001     H    9244  8551B  8640B  8663B  9237B
 TSGBUFGT      2 00001AA0 00000001     H   17174 17170  17619
 TSGBUFRE      2 00001B36 00000001     H   17319 17315  17618
 TSTAT         2 00000FFE 00000001     H   13773 13769
 TSTAT         1 00000000 00000004     T   10235 10235  14218
 TSUBCLCK      8 00002798 00000001     D   21663 21418M 21459  21462  21539
 TSUBECB       4 000027A4 00000001     F   21665 21004  21417M 21417  21577  21618
 TSUBEXIT      2 0000272A 00000001     H   21611 21607U 21653
 TSUBLOOP      2 00002692 00000001     H   21406 21508B
 TSUBOFF       2 00001044 00000001     H   13907 13903
 TSUBSTK     512 000027A8 00000001     X   21667 21394
 TSUBWORK      4 000027A0 00000001     F   21664 21525M 21531
 TTYFLAG       1 00000004 FFFFFFEA     R    6220  6224
 TTYMAX#       1 00000006 FFFFFFEA A   U    6276  6277
 TTYTFLAG      1 00000005 FFFFFFEA     R    6230  6234   6239   6244   6249   6254   6259   6264
 TWA          96 00000000 FFFFFFDE     J    8322  8356   8385U  8435   8443U  8549U  9266   9268   9269  10928  10957U
                                                 12532  12534  12535  12722  12751U 12910  12912  12913  12950  12979U
                                                 13088  13090  13091  13127  13156U 13462  13464  13465  13664  13693U
                                                 13748  13750  13751  13920  13949U 14042  14044  14045  14072  14101U
                                                 14193  14195  14196  17745  17753U 18633
 TWAAWID       4 00000038 FFFFFFDE     F    8281 12827M
 TWABYT1       1 00000036 FFFFFFDE     X    8277  8309
 TWABYT2       1 00000037 FFFFFFDE     X    8278  8315
 TWACMD        1 0000002E FFFFFFDE     X    8264  9736M 11408M 12826M 12991M 13189M 13714M 13965M 14126M
 TWACMDFL      1 0000002F FFFFFFDE     X    8265  8301   8301   8307  12992M 14127M 14147M
1TERM     (TERM2193) (12:56) (15MAR04) Ordinary Symbol and Literal Cross Reference                                          Page  102
 TWACMOD       1 00000037 FFFFFFDE     X    8315 13040
 TWACPLA       1 00000034 FFFFFFDE     X    8274  9758   9904  10034  11768  11979  12021  12049  12131  12222
 TWACPLB       1 00000035 FFFFFFDE     X    8275  9795  11846  11882  12878
 TWACRET       1 00000036 FFFFFFDE     X    8309 13017
 TWAFQUI     128 00000020 FFFFFFDE         8245 10991M 12490
 TWAHDR       56 00000028 FFFFFFDE     X    8302 13713M 13713  17765  17772
 TWAINCT       2 00000058 FFFFFFDE     H    8295  8299   8299  11439M 11461M
 TWAINIT       8 00000020 FFFFFFDE     X    8250 10968M 10968
 TWALFLAG      1 00000020 FFFFFFDE     R    8241  8245   8250   8250
 TWALIN#       2 0000002C FFFFFFDE     H    8263 13715M
 TWAMODB       1 00000031 FFFFFFDE     X    8269 12835M
 TWAMODC       1 00000032 FFFFFFDE     X    8270 12842M
 TWAORV        8 00000058 FFFFFFDE     X    8299 13305M 13407
 TWAPC         2 0000005C FFFFFFDE     H    8297 11470M 11798
 TWAPDB        4 00000028 FFFFFFDE     F    8252  9730   9737  11402  11660  12820  12844  12985  12994  13183  13317
                                                 13717  13960  13967  14121  14154
 TWARC         2 0000005E FFFFFFDE     H    8298 17803
 TWASINP       4 00000038 FFFFFFDE     A    8280  8281  17800
 TWASTRT       4 00000028 FFFFFFDE     F    8257  8302   8302
 TWASYSNM      8 0000004C FFFFFFDE     C    8291 13190M 13339  13987  14148M 17801
 TWATMOUT      4 00000024 FFFFFFDE     F    8249 10969M 11627
 TWAVPGM       8 0000003C FFFFFFDE     C    8283  8289   8289
 TWAWC         2 0000005A FFFFFFDE     H    8296 11469M 17802
 TWRDONE       4 0000047E 00000001     I    9232  8798B
 TWSATTN       4 00001424 00000001     I   14988 14649B 14835B 14895B
 TWSHUGE       4 00001384 00000001     I   14786 14403B 14711B
 TWSLINE     256 00000000 FFFFFFDA     C   14261 14606M 14629M 14639
 TWSLOST       4 000013B2 00000001     I   14846 14744B
 TWSTOW        2 00001232 00000001     H   14280 10232
 TWSTYPE       2 000013E0 00000001     H   14906 14434B
 TWSWA       256 00000000 FFFFFFDA     J   14268 14293  14322U 15039  15041  15042
 TWTOACCT      5 00000001 FFFFFFDD     C    9283  9566M
 TWTOBUF     120 00000006 FFFFFFDD     C    9285  9462   9467
 TWTOPARM      1 00000000 FFFFFFDD     X    9282  9284   9284   9565M  9579
 TWTOPFX       6 00000000 FFFFFFDD     X    9284  9568
 TWTOWA      126 00000000 FFFFFFDD     J    9292  9438   9449U 10249
 TXCTL         2 00000EC2 00000001     H   13114 13110
 TXDBOMB       2 0000161C 00000001     H   15751 15545B
 TXDHUGE       2 00001596 00000001     H   15611 15228B 15293B 15307B 15361B 15375B 15499B 15513B
 TXDLCNO       4 00000004 FFFFFFD9     F   15075 15235M 15240  15314M 15319
 TXDMAX        4 00000000 FFFFFFD9     F   15074 15241M 15256M 15320M 15335M 15392  15530
 TXDNOINF      2 000015FC 00000001     H   15720 15176B 15191B
 TXDNOREP      2 000015B6 00000001     H   15642 15395B 15533B
 TXDUMP        2 0000143E 00000001     H   15093 10233
 TXDWA         8 00000000 FFFFFFD9     J   15082 15106  15135U 15799  15801  15802
 TXEXIT        4 00000F8E 00000001     I   13419 13284B
 UPPTBL        1 00000000 00000000 A   T    2195  2195
 WAITDONE      2 00002352 00000001     H   20142 19983B 20036B 20073B
 WAITER        2 00002284 00000001     H   19907 19903
 WAITEXIT      2 0000236E 00000001     H   20219 14224  19985
 WAITPLP       2 00002398 00000001     H   20282 20286B
 WAR           8 00000008 00000001 A   #    1049  7611M  7739   7798M  8131   8355M  9246   9262   9314M  9616   9647M
                                                 10197  10287M 10502  10556M 10739  10782M 10813  10824  10852M 10886
                                                 10897  10927M 12512  12528  12563M 12677  12721M 12906  12949M 13068
                                                 13084  13126M 13426  13458  13663M 13744  13783M 13886  13919M 14038
                                                 14071M 14189  14292M 15035  15105M 15795  15826M 15890  15969M 16699
                                                 16750M 17128  17184M 17256  17267  17329M 17387  17435M 17601  17744M
                                                 17753U 17909M 18218  18271M 18470  18502M 18603  18662M 19235  19266M
                                                 19504  19522  19562M 19655  19917M 20176  20229M 20360  20410M 20482
1TERM     (TERM2193) (12:56) (15MAR04) Ordinary Symbol and Literal Cross Reference                                          Page  103
                                                 20513M 20592  20681M 21027  21081M 21313
 WTOSG         1 00000000 00000000 A   T    2092  2092
 WYLTERM       1 00000000 00000001     J     990   992   1018   1031   1044   1057   1069   1082   1095   1108   1121
                                                  1134   1147   2376   2460   6200   6312   6584   6663   6725   6772
                                                  6806   7003   7283   7311   7316   7421   7425   7588
 =A(-TSEGBQNT)
               4 00001B20 00000001     A   17290 17210
 =A(BUILDPDB)
               4 00000718 00000001     A   10242  9733
 =A(BUILDPDB)
               4 00001144 00000001     A   14220 11405  12823  12988  13186  13963  14124
 =A(CPSEGMX#)
               4 00000138 00000001     A    7767  7639
 =A(CPSEGMX#)
               4 00001B24 00000001     A   17291 17221  17228
 =A(FREELOC)
               4 00001B18 00000001     A   17288 16958
 =A(FREELOC)
               4 00001EB8 00000001     A   18625 17797
 =A(FREELOC)
               4 00002268 00000001     A   19877 19140  19164
 =A(L'CELLBLOK)
               4 0000013C 00000001     A    7768  7667
 =A(L'CELLBLOK)
               4 00001B2C 00000001     A   17293 17244
 =A(L'CELLBLOK)
               4 00001B8C 00000001     A   17405 17366
 =A(L'CPCMD)
               4 00000720 00000001     A   10244 10000  10012
 =A(L'MQRHDR-4)
               4 00002258 00000001     A   19873 18829  18841
 =A(L'PDBHDR-4)
               4 00001EC8 00000001     A   18629 17985
 =A(MILINFO)
               4 00000268 00000001     A    8150  7833
 =A(MILINFO)
               4 00001EC4 00000001     A   18628 17953  18308
 =A(MILINFO)
               4 00002250 00000001     A   19871 18690  19589
 =A(MOVEX)
               4 00001B10 00000001     A   17286 16852  16952
 =A(MOVEX)
               4 00001EB4 00000001     A   18624 17775  17791
 =A(PATHRBAF)
               4 00001ECC 00000001     A   18630 18065
 =A(QSETUP)
               4 00002264 00000001     A   19876 19071  19102  19157  19191
 =A(SENDPDB)
               4 00001188 00000001     A   14231 13720
 =A(SENDPDB)
               4 00001B08 00000001     A   17284 16798
 =A(SENDQPDB)
               4 0000225C 00000001     A   19874 19020
 =A(SETJCB)
               4 00002260 00000001     A   19875 19043  19153  19179
 =A(TERMWR)
               4 000006F8 00000001     A   10234  9218
 =A(TERMWTO)
               4 000006E8 00000001     A   10230  8626   9069   9198
1TERM     (TERM2193) (12:56) (15MAR04) Ordinary Symbol and Literal Cross Reference                                          Page  104
 =A(TIMERDQ)
               4 0000226C 00000001     A   19878 19722
 =A(TIMERDQ)
               4 00002748 00000001     A   21640 20027  20060  21504
 =A(TIMERQ)
               4 00001158 00000001     A   14225 11650
 =A(TIMERQ)
               4 00002740 00000001     A   21638 19989
 =A(TIO)       4 0000071C 00000001     A   10243  9740
 =A(TIO)       4 0000115C 00000001     A   14226 11663  12847  12997  13320  13970  14157
 =A(TREADCOM)
               4 00001128 00000001     A   14213 10810  10883
 =A(TSEGBQNT)
               4 00001B28 00000001     A   17292 17242
 =A(TSEGBQNT)
               4 00001B88 00000001     A   17404 17364
 =A(TSEGBQNT-1)
               4 00001B1C 00000001     A   17289 17209
 =A(TSEGBUF)
               4 00001B14 00000001     A   17287 16898
 =A(TSGBUFGT)
               4 00001C24 00000001     A   17619 17576
 =A(TSGBUFRE)
               4 00001C20 00000001     A   17618 17540
 =A(TSUBEXIT)
               4 0000277C 00000001     A   21653 21527
 =A(TWSTOW)
               4 000006F0 00000001     A   10232  8989
 =A(TXDUMP)
               4 000006F4 00000001     A   10233  9116
 =A(WAITEXIT)
               4 00001154 00000001     A   14224 11646
 =A(0)         4 00000140 00000001     A    7769  7695
 =A(0)         4 0000275C 00000001     A   21645 20719  20731
 =A(1)         4 0000111C 00000001     A   14210 10379  10423  11040
 =A(1)         4 000016E4 00000001     A   15926 15475  15582
 =A(1)         4 00002768 00000001     A   21648 20784  21481
 =A(2)         4 00002780 00000001     A   21654 21552
 =A(235)       4 000016B0 00000001     A   15913 14578  14590
 =A(255)       4 00001134 00000001     A   14216 11189  11201
 =A(80)        4 00000700 00000001     A   10236  9341   9353
 =AL2(CPSEGMX#)
               2 00001B34 00000001     R   17295 16056
 =AL2(L'JCB)
               2 0000227C 00000001     R   19882 19295
 =AL2(L'PDBHDR)
               2 00000274 00000001     R    8153  8039
 =C'    '      4 000016E0 00000001     C   15925 15419
 =C' already in file.'
              17 000017E7 00000001     C   15936 14974
 =C'<ATTN>'
               6 00001190 00000001     C   14234 11339
 =C'; can''t replace or interleave lines.'
              36 00001708 00000001     C   15929 15714
 =C';'         1 000011C8 00000001     C   14240 10434
 =C'? '        2 0000118E 00000001     C   14233 11050
 =C': '        2 0000072A 00000001     C   10248  9522
 =C'f'         1 000011C9 00000001     C   14241 10478
 =C'full screen requests.'
1TERM     (TERM2193) (12:56) (15MAR04) Ordinary Symbol and Literal Cross Reference                                          Page  105
              21 00000763 00000001     C   10254  9855
 =C'full screen requests.'
              21 000011F8 00000001     C   14244 11942
 =C'm'         1 000011CA 00000001     C   14242 10703
 =C'Above lost -- line 99999.999 exceeded.'
              38 00001730 00000001     C   15931 14821
 =C'Above lost -- line'
              18 00001756 00000001     C   15932 14927
 =C'Above lost -- no replace or interleave.'
              39 000017C0 00000001     C   15935 14881
 =C'Expecting terminal parity setting of even.'
              42 0000119A 00000001     C   14237 12109
 =C'From '
               5 00000731 00000001     C   10252  9481
 =C'MILTEN  '
               8 00001110 00000001     C   14208 13987
 =C'OTQE'      4 0000276C 00000001     C   21649 21263
 =C'Re-enter.'
               9 00001222 00000001     C   14246 12089
 =C'Tabs are not set.  Re-enter.'
              28 00001168 00000001     C   14229 12153
 =C'This terminal or controller does not support '
              45 00000736 00000001     C   10253  9837
 =C'This terminal or controller does not support '
              45 000011CB 00000001     C   14243 11924
 =C'Transmission error.  '
              21 0000120D 00000001     C   14245 12073
 =C'Unable to dump text at line '
              28 000016EC 00000001     C   15928 15666
 =C'Unable to dump text; invalid dump info.'
              39 000017F8 00000001     C   15937 15745
 =C'Unable to dump text; invalid dump options.'
              42 00001796 00000001     C   15934 15776
 =C'Unable to dump text; line 99999.999 exceeded. '
              46 00001768 00000001     C   15933 15636
 =C'Waiting for MILTEN.'
              19 00000276 00000001     C    8154  7973
 =CL4'PSUB'
               4 0000026C 00000001     C    8151  7868
 =CL4'TQE'
               4 00002760 00000001     C   21646 20766
 =CL8'BADXDUMP'
               8 00001698 00000001     C   15908 15633  15711  15742  15773
 =CL8'MILTEN'
               8 00000260 00000001     C    8149  7890
 =CL8'SUBSYS'
               8 00000258 00000001     C    8148  7867
 =F'-1'        4 00002270 00000001     F   19879 19733
 =F'-1'        4 00002770 00000001     F   21650 21264
 =F'-1000'
               4 0000172C 00000001     F   15930 15858
 =F'-4'        4 00001138 00000001     F   14217 11211
 =F'100000000'
               4 000016A8 00000001     F   15911 14411  14461
 =F'40960000'
               4 00002764 00000001     F   21647 20767  21463
 =H'-4'        2 00000724 00000001     H   10245  8531
 =H'-4'        2 000011C6 00000001     H   14239 13283  13382  13863
 =H'-8'        2 00001198 00000001     H   14236 11860
1TERM     (TERM2193) (12:56) (15MAR04) Ordinary Symbol and Literal Cross Reference                                          Page  106
 =H'256'       2 00001196 00000001     H   14235 11439
 =H'6'         2 00001EDC 00000001     H   18635 17989
 =V(ADDER)
               4 000016BC 00000001     V   15916 14660
 =V(AMODE31)
               4 00002778 00000001     V   21652 21392
 =V(CLRTEXT)
               4 000016A0 00000001     V   15909 14355
 =V(CV)        4 00002774 00000001     V   21651 21385
 =V(CVEXNO)
               4 000016D0 00000001     V   15921 14944  15683
 =V(DISPATCH)
               4 00001B0C 00000001     V   17285 16829
 =V(DISPATCH)
               4 00002754 00000001     V   21643 20100
 =V(DQJCB)
               4 00002274 00000001     V   19880 19806
 =V(ENDLNO)
               4 000016A4 00000001     V   15910 14388
 =V(FREEBILL)
               4 00001EA8 00000001     V   18621 17706
 =V(FREECORE)
               4 00001ED4 00000001     V   18632 18414
 =V(FREEPOOL)
               4 00001B90 00000001     V   17406 17370
 =V(GETCORE)
               4 00001ED0 00000001     V   18631 18092
 =V(GETPOOL)
               4 00001B30 00000001     V   17294 17248
 =V(GETRSC)
               4 00002278 00000001     V   19881 19838
 =V(GTFRSTLN)
               4 000016DC 00000001     V   15924 15317
 =V(GTNEXTLN)
               4 000016D8 00000001     V   15923 15238
 =V(INITCMD)
               4 00001EAC 00000001     V   18622 17715
 =V(INITPUSR)
               4 00001EB0 00000001     V   18623 17736
 =V(INSLINE)
               4 000016E8 00000001     V   15927 15543
 =V(LOCATE)
               4 000016AC 00000001     V   15912 14419
 =V(NPATDEQ)
               4 00001164 00000001     V   14228 11736
 =V(NPATDEQ)
               4 00002758 00000001     V   21644 20124
 =V(NPATQ)
               4 0000114C 00000001     V   14222 11545
 =V(NPATQ)
               4 0000274C 00000001     V   21641 20044
 =V(PAGERES)
               4 00000714 00000001     V   10241  9703
 =V(PAGERES)
               4 00001130 00000001     V   14215 11153
 =V(PATHDEQ)
               4 00001150 00000001     V   14223 11560  11732
 =V(PATHDEQ)
               4 00002750 00000001     V   21642 20071  20120
1TERM     (TERM2193) (12:56) (15MAR04) Ordinary Symbol and Literal Cross Reference                                          Page  107
 =V(PATHQ)
               4 00001148 00000001     V   14221 11509
 =V(PATHQ)
               4 00002744 00000001     V   21639 20011
 =V(PRESS)
               4 000016B4 00000001     V   15914 14643
 =V(SEG)       4 000006EC 00000001     V   10231  8661   8901   9491   9532   9849   9867
 =V(SEG)       4 00001118 00000001     V   14209 10366  10446  10490  10648  10715  11025  11062  11351  11936  11954
                                                 12085  12204  12439
 =V(SEG)       4 000016D4 00000001     V   15922 14968  15678  15707
 =V(SEGB)      4 000016CC 00000001     V   15920 14939
 =V(SEGCLR)
               4 0000112C 00000001     V   14214 11113  11391  11534  11574  12067  12149  12413  12479  12862  13062
                                                 13281  13440  14021  14118  14172
 =V(SEGCLR)
               4 000016C0 00000001     V   15917 14789  14849  15629  15660  15738  15769
 =V(SEGCLR)
               4 00001EBC 00000001     V   18626 17833
 =V(SEGCR)
               4 00001184 00000001     V   14230 12178  12813
 =V(SEGCR)
               4 000016C4 00000001     V   15918 14815  14875
 =V(SEGDC)
               4 00001120 00000001     V   14211 10406  10468
 =V(SEGINIT)
               4 0000070C 00000001     V   10239  9476
 =V(SEGT)      4 00000710 00000001     V   10240  9517   9556
 =V(SEGT)      4 00001124 00000001     V   14212 10693
 =V(SEGWR)
               4 00000270 00000001     V    8152  7983
 =V(SEGWR)
               4 00001140 00000001     V   14219 11376  12661
 =V(SEGWR)
               4 000016C8 00000001     V   15919 14833  14893  14921  14986
 =V(SHUTDOWN)
               4 00002254 00000001     V   19872 18726  19204
 =V(SIGNON)
               4 00001EC0 00000001     V   18627 17841
 =V(STOW)      4 000016B8 00000001     V   15915 14647
 =V(TIMERDQ)
               4 00001160 00000001     V   14227 11699
 =V(TSTAT)
               4 000006FC 00000001     V   10235  9232
 =V(TSTAT)
               4 0000113C 00000001     V   14218 11306
 =X'00000020'
               4 00000708 00000001     X   10238  9407
 =X'00004000'
               4 00000704 00000001     X   10237  9405
 =X'15'        1 00000730 00000001     X   10251  8649   8889
 =X'27AD'      2 0000118C 00000001     X   14232 10354  10636
 =X'8000'      2 00000726 00000001     X   10246  9363
 =Y((L'SEGCB+3)/4*4)
               2 0000072E 00000001     Y   10250  9595
 =Y((L'TWA+3)/4*4)
               2 00001ED8 00000001     Y   18633 17817
 =Y((L'TWTOWA+3)/4*4)
               2 0000072C 00000001     Y   10249  9593
 =Y((R1+1-(R0)+16*((R0)/(R1+1))/((R0)/(R1+1)))*4)
1TERM     (TERM2193) (12:56) (15MAR04) Ordinary Symbol and Literal Cross Reference                                          Page  108
               2 00001EDA 00000001     Y   18634 17836
 =Y((R1+1-(R15)+16*((R15)/(R1+1))/((R15)/(R1+1)))*4)
               2 000011C4 00000001     Y   14238 12508  13065
 =Y((90+3)/4*4)
               2 00000728 00000001     Y   10247  9413

1TERM     (TERM2193) (12:56) (15MAR04) Macro and Copy Code Source Summary                                                   Page  109
- Con Source                                        Volume    Members                        HLASM R4.0  2004/03/15 12.56
0     PRIMARY INPUT                                           CSECT    DROP     END      EX       LTORG    POP
                                                              PRINT    PUSH     START    USING
   L1 WYL.GS.WYL.WYLBUR.MACLIB                      SYSB05    AINFO    BASE     BOMB     CELLBLOK COLINFO  COMMENT
                                                              CONTROL  CP       CPLOCAL  CV       CVLOCAL  DQJCB
                                                              ERROR    FAIL     GENTER   GETRSC   JCB      KAPUT
                                                              KWRRSC   PAUSE    RG       RSCGROUP RSCHDR   SCANCB
                                                              SEGINIT  SETUP    TCCR     TCLEAR   TNUM     TSEG
                                                              TSTAT    TTYPE    TWRITE   VLTORG   XENTER   XEXIT    XSA
                                                              XTRACE   XWTO
   L2 WYL.GG.SYS.MACLIB                             SYSB05    $BC      $BFLKUP  $BV      $CCLKUP  $CRS     $CSS     $L
                                                              $LA      $LBLAD   $LEXP    $LOR     $NIL     $OIL     $REL
                                                              $RGLKUP  $USLKUP  ACALL    ADL      BEGIN    CEIL
                                                              CLEAR    COMPROC  CSECT    DATA     DECR     DEFCC    DEX
                                                              DROP     DTEX     ELSE     ELSEIF   END      EX       EXIT
                                                              FLAG     FLOOR    GEN      HIBAL    IDENT    IF       INCR
                                                              LABEL    LC       LOOP     LS       LT       LTH
                                                              LTORG    MOVE     MOVEL    PEND     POP      PRETURN
                                                              PRINT    PROC     PUSH     QLTORG   RECORD   REG      REGS
                                                              SDL      SET      SETMSG   START    SYSLR    SYSQS
                                                              UNTIL    USING    VCALL    WHILE    WITH     XPROC
   L3 SYS3.IS.MACLIB                                SYSB05    DEFINE   KWR      MILSERV  PDB      SEG      SEGCB
                                                              SEGCLR   SEGCR    SEGDC    SEGLD    SEGT     SEGWR    SIB
                                                              SYSDEFN  XPOP     XPUSH
   L4 SYS3.MACLIB                                   SYSB02    PATH     RDW      SCOM
   L5 SYS1.MACLIB                                   MVSBR9    ATTACH   CHAP     DETACH   FREEMAIN GETMAIN  IDENTIFY
                                                              IHBINNRA POST     SPLEVEL  STIMER   SYSSTATE WAIT     WTO

1TERM     (TERM2193) (12:56) (15MAR04) Dsect Cross Reference                                                                Page  110
-Dsect     Length      Id       Defn                                                         HLASM R4.0  2004/03/15 12.56
0$$$@R0   00000000  FFFFFFFE     705
 $$$@R1   00000000  FFFFFFFD     718
 $$$@R10  00000000  FFFFFFF4     835
 $$$@R11  00000000  FFFFFFF3     848
 $$$@R12  00000000  FFFFFFF2     861
 $$$@R13  00000000  FFFFFFF1     874
 $$$@R14  00000000  FFFFFFF0     887
 $$$@R15  00000000  FFFFFFEF     900
 $$$@R2   00000000  FFFFFFFC     731
 $$$@R3   00000000  FFFFFFFB     744
 $$$@R4   00000000  FFFFFFFA     757
 $$$@R5   00000000  FFFFFFF9     770
 $$$@R6   00000000  FFFFFFF8     783
 $$$@R7   00000000  FFFFFFF7     796
 $$$@R8   00000000  FFFFFFF6     809
 $$$@R9   00000000  FFFFFFF5     822
 $$$RCELLBLOK
          00000028  FFFFFFE1    7287
 $$$RCP   00001000  FFFFFFEC    2465
 $$$RCV   00000FB0  FFFFFFEE    1190
 $$$RDEV  0000000C  FFFFFFEB    4679
 $$$RJCB  000000D0  FFFFFFE2    7008
 $$$RKWRRSC
          0000021C  FFFFFFE8    6328
 $$$RNSCNCB
          000000B0  FFFFFFED    2386
 $$$RPATHD
          00000038  FFFFFFE7    6589
 $$$RPDB  00000038  FFFFFFE3    6811
 $$$RRDWD 00000004  FFFFFFE4    6777
 $$$RRESOURCE
          00000018  FFFFFFE5    6730
 $$$RRSCGROUP
          0000003C  FFFFFFE6    6669
 $$$RSEGCB
          0000003C  FFFFFFE0    7320
 $$$RSPDBWA
          00000010  FFFFFFD8   17864
 $$$RSPENDWA
          00000008  FFFFFFD7   18231
 $$$RTIMRQWA
          00000028  FFFFFFD5   20632
 $$$RTINITWA
          00000040  FFFFFFDF    7572
 $$$RTNOTWA
          000000C6  FFFFFFDB   13491
 $$$RTQE  0000001C  FFFFFFD6   20608
 $$$RTRENDWA
          00000008  FFFFFFDC   10522
 $$$RTTYPE
          0000010C  FFFFFFEA    6210
 $$$RTWA  00000060  FFFFFFDE    8230
 $$$RTWSWA
          00000100  FFFFFFDA   14255
 $$$RTWTOWA
1TERM     (TERM2193) (12:56) (15MAR04) Dsect Cross Reference                                                                Page  111
          0000007E  FFFFFFDD    9276
 $$$RTXDWA
          00000008  FFFFFFD9   15068
 $$$R42   00000000  FFFFFFE9    6318
 HIBAL    00000000  FFFFFFFF     691

1TERM     (TERM2193) (12:56) (15MAR04) Using Map                                                                            Page  112
-                                                                                            HLASM R4.0  2004/03/15 12.56
   Stmt  -----Location----- Action ----------------Using----------------- Reg Max    Last  Label and Using Text
           Count      Id           Type          Value    Range     Id        Disp   Stmt
0   922  00000000  FFFFFFFF USING  ORDINARY    00000000 00001000 FFFFFFEF  15 000          @R15,15
    926  00000000  FFFFFFFF USING  ORDINARY    00000000 00001000 FFFFFFF0  14 002    2181  @R14,14
    930  00000000  FFFFFFFF USING  ORDINARY    00000000 00001000 FFFFFFF1  13 004   21620  @R13,13
    934  00000000  FFFFFFFF USING  ORDINARY    00000000 00001000 FFFFFFF2  12 000          @R12,12
    938  00000000  FFFFFFFF USING  ORDINARY    00000000 00001000 FFFFFFF3  11 000          @R11,11
    942  00000000  FFFFFFFF USING  ORDINARY    00000000 00001000 FFFFFFF4  10 000          @R10,10
    946  00000000  FFFFFFFF USING  ORDINARY    00000000 00001000 FFFFFFF5   9 000          @R9,9
    950  00000000  FFFFFFFF USING  ORDINARY    00000000 00001000 FFFFFFF6   8 000          @R8,8
    954  00000000  FFFFFFFF USING  ORDINARY    00000000 00001000 FFFFFFF7   7 000          @R7,7
    958  00000000  FFFFFFFF USING  ORDINARY    00000000 00001000 FFFFFFF8   6 000          @R6,6
    962  00000000  FFFFFFFF USING  ORDINARY    00000000 00001000 FFFFFFF9   5 000          @R5,5
    966  00000000  FFFFFFFF USING  ORDINARY    00000000 00001000 FFFFFFFA   4 004   15563  @R4,4
    970  00000000  FFFFFFFF USING  ORDINARY    00000000 00001000 FFFFFFFB   3 000          @R3,3
    974  00000000  FFFFFFFF USING  ORDINARY    00000000 00001000 FFFFFFFC   2 000    9407  @R2,2
    978  00000000  FFFFFFFF USING  ORDINARY    00000000 00001000 FFFFFFFD   1 001    2180  @R1,1
    982  00000000  FFFFFFFF USING  ORDINARY    00000000 00001000 FFFFFFFE   0 000          @R0,0
    983  00000000  FFFFFFFF DROP                                            0              0
   1174  00000017  00000001 USING  ORDINARY    00000000 00001000 FFFFFFEC  11 D84   20099  CP,CPR
   1183  00000017  00000001 USING  ORDINARY    00000000 00001000 FFFFFFEE  12 92C   21558  CV,CVR
   7627  000000AE  00000001 USING  ORDINARY    000000AE 00001000 00000001   7 092    7727  $$$52B,7
   7710  000000EA  00000001 USING  ORDINARY    00000000 00001000 FFFFFFE1   1 01C    7715  CELLBLOK,R1
   7724  000000FE  00000001 USING  ORDINARY    00000000 00001000 FFFFFFFD   1 004   18872  @R1,1
   7735  00000102  00000001 USING  ORDINARY    00000000 00001000 FFFFFFF7   7 000          @R7,7
   7814  0000015E  00000001 USING  ORDINARY    0000015E 00001000 00000001   7 118    8095  $$$58B,7
   7828  0000015E  00000001 USING  ORDINARY    FFFFFFD8 00001000 FFFFFFDF   8 060    8083  TINITWA-(4+36),R8
   7843  00000162  00000001 USING  ORDINARY    00000018 00001000 00000001   6 071    8076  MILINFO,R6
   7860  00000166  00000001 USING  ORDINARY    00000000 00001000 FFFFFFE7   3 028    7891  PATHD,R3
   7898  00000192  00000001 USING  ORDINARY    00000000 00001000 FFFFFFFB   3 000   18175  @R3,3
   8024  000001F2  00000001 USING  ORDINARY    00000000 00001000 FFFFFFE3   5 024    8039  PDB,R5
   8046  0000020C  00000001 USING  ORDINARY    00000000 00001000 FFFFFFF9   5 000          @R5,5
   8117  00000246  00000001 USING  ORDINARY    00000000 00001000 FFFFFFF8   6 000          @R6,6
   8122  00000246  00000001 USING  ORDINARY    00000000 00001000 FFFFFFF6   8 000          @R8,8
   8127  00000246  00000001 USING  ORDINARY    00000000 00001000 FFFFFFF7   7 000          @R7,7
   8196  00000294  00000001 USING  ORDINARY    00000294 00001000 00000001  15 018    8202  $$$68B,R15
   8209  00000298  00000001 USING  ORDINARY    00000000 00001000 FFFFFFEF  15 000          @R15,15
   8371  000002CA  00000001 USING  ORDINARY    000002CA 00001000 00000001   7 466    9237  $$$70B,7
   8385  000002CA  00000001 USING  ORDINARY    FFFFFFD8 00001000 FFFFFFDE   8 028    8435  TWA-(4+36),R8
   8398  000002CA  00000001 USING  ORDINARY    00000000 00001000 FFFFFFE0  15 000    8412  SEGCB,R15
   8432  000002D6  00000001 USING  ORDINARY    00000000 00001000 FFFFFFEF  15 000          @R15,15
   8443  000002DA  00000001 USING  ORDINARY    00000000 00001000 FFFFFFDE   5 000          TWA,R5
   8453  000002DC  00000001 USING  ORDINARY    00000000 00001000 FFFFFFE0   6 020    9891  SEGCB,R6
   8482  000002E8  00000001 USING  ORDINARY    00000000 00001000 FFFFFFF9   5 000          @R5,5
   8485  000002E8  00000001 USING  ORDINARY    00000000 00001000 FFFFFFE2   5 062    8524  JCB,JCBR
   8546  00000302  00000001 USING  ORDINARY    00000000 00001000 FFFFFFF9   5 000          @R5,5
   8549  00000302  00000001 USING  ORDINARY    00000000 00001000 FFFFFFDE   5 035   10034  TWA,5
   9253  00000492  00000001 USING  ORDINARY    00000000 00001000 FFFFFFF6   8 000          @R8,8
   9258  00000492  00000001 USING  ORDINARY    00000000 00001000 FFFFFFF7   7 000          @R7,7
   9330  000004BA  00000001 USING  ORDINARY    000004BA 00001000 00000001   7 2BE    9595  $$$110B,7
   9449  00000518  00000001 USING  ORDINARY    00000000 00001000 FFFFFFDD   2 006    9579  TWTOWA,R2
   9601  0000058E  00000001 USING  ORDINARY    00000000 00001000 FFFFFFFC   2 000          @R2,2
   9612  0000058E  00000001 USING  ORDINARY    00000000 00001000 FFFFFFF7   7 000          @R7,7
   9663  000005B6  00000001 USING  ORDINARY    000005B6 00001000 00000001   7 1C8   10138  $$$118B,7
  10102  000006B6  00000001 USING  ORDINARY    00000000 00001000 FFFFFFE2   2 062   10150  JCB,R2
1TERM     (TERM2193) (12:56) (15MAR04) Using Map                                                                            Page  113
  10161  000006CA  00000001 USING  ORDINARY    00000000 00001000 FFFFFFFC   2 000          @R2,2
  10193  000006D6  00000001 USING  ORDINARY    00000000 00001000 FFFFFFF7   7 000          @R7,7
  10213  000006E4  00000001 USING  ORDINARY    00000000 00001000 FFFFFFF8   6 000   11242  @R6,6
  10220  000006E4  00000001 USING  ORDINARY    00000000 00001000 FFFFFFF9   5 000   13305  @R5,5
  10303  0000079E  00000001 USING  ORDINARY    0000079E 00001000 00000001   7 A2B   10490  $$$143B,7
  10498  00000814  00000001 USING  ORDINARY    00000000 00001000 FFFFFFF7   7 000          @R7,7
  10572  0000083C  00000001 USING  ORDINARY    0000083C 00001000 00000001   7 98E   10715  $$$150B,7
  10586  0000083C  00000001 USING  ORDINARY    FFFFFFD8 00001000 FFFFFFDC   8 028   10718  TRENDWA-(4+36),R8
  10730  000008A4  00000001 USING  ORDINARY    00000000 00001000 FFFFFFF6   8 000          @R8,8
  10735  000008A4  00000001 USING  ORDINARY    00000000 00001000 FFFFFFF7   7 000          @R7,7
  10798  000008CC  00000001 USING  ORDINARY    000008CC 00001000 00000001   7 85C   10810  $$$156B,7
  10820  000008DA  00000001 USING  ORDINARY    00000000 00001000 FFFFFFF7   7 000          @R7,7
  10868  00000902  00000001 USING  ORDINARY    00000902 00001000 00000001   7 826   10883  $$$159B,7
  10893  0000090E  00000001 USING  ORDINARY    00000000 00001000 FFFFFFF7   7 000          @R7,7
  10943  00000936  00000001 USING  ORDINARY    00000936 00001000 00000001   7 8F6   12508  $$$162B,7
  10957  00000936  00000001 USING  ORDINARY    FFFFFFD8 00001000 FFFFFFDE   8 084   12490  TWA-(4+36),R8
  11265  000009F6  00000001 USING  ORDINARY    00000000 00001000 FFFFFFE2  15 062   11277  JCB,R15
  11284  000009FA  00000001 USING  ORDINARY    00000000 00001000 FFFFFFEF  15 000          @R15,15
  11483  00000A8A  00000001 USING  ORDINARY    00000000 00001000 FFFFFFE2   2 063   11729  JCB,R2
  11748  00000B52  00000001 USING  ORDINARY    00000000 00001000 FFFFFFFC   2 008   18124  @R2,2
  12306  00000CBA  00000001 USING  ORDINARY    00000000 00001000 FFFFFFE2  15 062   12321  JCB,R15
  12328  00000CBE  00000001 USING  ORDINARY    00000000 00001000 FFFFFFEF  15 000          @R15,15
  12519  00000D4A  00000001 USING  ORDINARY    00000000 00001000 FFFFFFF6   8 000          @R8,8
  12524  00000D4A  00000001 USING  ORDINARY    00000000 00001000 FFFFFFF7   7 000          @R7,7
  12579  00000D72  00000001 USING  ORDINARY    00000D72 00001000 00000001   7 3CE   12661  $$$214B,7
  12673  00000DAA  00000001 USING  ORDINARY    00000000 00001000 FFFFFFF7   7 000          @R7,7
  12737  00000DD6  00000001 USING  ORDINARY    00000DD6 00001000 00000001   7 3AE   12879  $$$219B,7
  12751  00000DD6  00000001 USING  ORDINARY    FFFFFFD8 00001000 FFFFFFDE   8 060   12878  TWA-(4+36),R8
  12897  00000E34  00000001 USING  ORDINARY    00000000 00001000 FFFFFFF6   8 000          @R8,8
  12902  00000E34  00000001 USING  ORDINARY    00000000 00001000 FFFFFFF7   7 000          @R7,7
  12965  00000E5C  00000001 USING  ORDINARY    00000E5C 00001000 00000001   7 368   13065  $$$228B,7
  12979  00000E5C  00000001 USING  ORDINARY    FFFFFFD8 00001000 FFFFFFDE   8 05F   13040  TWA-(4+36),R8
  13014  00000E82  00000001 DROP                                           15              15
  13018  00000E88  00000001 USING  ORDINARY    00000000 00001000 FFFFFFEF  15 000          @R15,15
  13037  00000E90  00000001 DROP                                           15              15
  13041  00000E96  00000001 USING  ORDINARY    00000000 00001000 FFFFFFEF  15 006   16064  @R15,15
  13075  00000EB4  00000001 USING  ORDINARY    00000000 00001000 FFFFFFF6   8 000          @R8,8
  13080  00000EB4  00000001 USING  ORDINARY    00000000 00001000 FFFFFFF7   7 000          @R7,7
  13142  00000EDC  00000001 USING  ORDINARY    00000EDC 00001000 00000001   7 2EA   13440  $$$232B,7
  13156  00000EDC  00000001 USING  ORDINARY    FFFFFFD8 00001000 FFFFFFDE   8 080   13407  TWA-(4+36),R8
  13449  00000FA8  00000001 USING  ORDINARY    00000000 00001000 FFFFFFF6   8 000          @R8,8
  13454  00000FA8  00000001 USING  ORDINARY    00000000 00001000 FFFFFFF7   7 000          @R7,7
  13679  00000FD0  00000001 USING  ORDINARY    00000FD0 00001000 00000001   7 1B8   13720  $$$252B,7
  13693  00000FD0  00000001 USING  ORDINARY    FFFFFFD8 00001000 FFFFFFDE   8 056   13717  TWA-(4+36),R8
  13735  00000FF0  00000001 USING  ORDINARY    00000000 00001000 FFFFFFF6   8 000          @R8,8
  13740  00000FF0  00000001 USING  ORDINARY    00000000 00001000 FFFFFFF7   7 000          @R7,7
  13799  00001018  00000001 USING  ORDINARY    00001018 00001000 00000001   7 1AE   13863  $$$255B,7
  13817  0000101C  00000001 USING  ORDINARY    00000000 00001000 FFFFFFE2   5 062   13856  JCB,JCBR
  13874  00001036  00000001 USING  ORDINARY    00000000 00001000 FFFFFFF9   5 001   14638  @R5,5
  13882  00001036  00000001 USING  ORDINARY    00000000 00001000 FFFFFFF7   7 000          @R7,7
  13935  0000105E  00000001 USING  ORDINARY    0000105E 00001000 00000001   7 0FE   14021  $$$260B,7
  13949  0000105E  00000001 USING  ORDINARY    FFFFFFD8 00001000 FFFFFFDE   8 074   13987  TWA-(4+36),R8
  14029  00001094  00000001 USING  ORDINARY    00000000 00001000 FFFFFFF6   8 000          @R8,8
  14034  00001094  00000001 USING  ORDINARY    00000000 00001000 FFFFFFF7   7 000          @R7,7
  14087  000010BC  00000001 USING  ORDINARY    000010BC 00001000 00000001   7 0A0   14172  $$$266B,7
  14101  000010BC  00000001 USING  ORDINARY    FFFFFFD8 00001000 FFFFFFDE   8 074   14154  TWA-(4+36),R8
  14180  00001100  00000001 USING  ORDINARY    00000000 00001000 FFFFFFF6   8 000          @R8,8
  14185  00001100  00000001 USING  ORDINARY    00000000 00001000 FFFFFFF7   7 000          @R7,7
  14308  0000124C  00000001 USING  ORDINARY    0000124C 00001000 00000001   7 5D4   14986  $$$270B,7
1TERM     (TERM2193) (12:56) (15MAR04) Using Map                                                                            Page  114
  14322  0000124C  00000001 USING  ORDINARY    FFFFFFD8 00001000 FFFFFFDA   8 028   14639  TWSWA-(4+36),R8
  14997  00001428  00000001 USING  ORDINARY    00000000 00001000 FFFFFFE2   5 062   15009  JCB,JCBR
  15016  00001430  00000001 USING  ORDINARY    00000000 00001000 FFFFFFF9   5 000          @R5,5
  15026  00001430  00000001 USING  ORDINARY    00000000 00001000 FFFFFFF6   8 000          @R8,8
  15031  00001430  00000001 USING  ORDINARY    00000000 00001000 FFFFFFF7   7 000          @R7,7
  15121  00001458  00000001 USING  ORDINARY    00001458 00001000 00000001   7 3A0   15776  $$$301B,7
  15135  00001458  00000001 USING  ORDINARY    FFFFFFD8 00001000 FFFFFFD9   8 02C   15530  TXDWA-(4+36),R8
  15786  0000163C  00000001 USING  ORDINARY    00000000 00001000 FFFFFFF6   8 000          @R8,8
  15791  0000163C  00000001 USING  ORDINARY    00000000 00001000 FFFFFFF7   7 000          @R7,7
  15842  00001664  00000001 USING  ORDINARY    00001664 00001000 00000001   7 0C8   15858  $$$327B,7
  15886  00001680  00000001 USING  ORDINARY    00000000 00001000 FFFFFFF7   7 000          @R7,7
  15984  00001836  00000001 USING  ORDINARY    00001836 00001000 00000001   7 2FE   16665  $$$330B,7
  16001  00001838  00000001 USING  ORDINARY    00000000 00001000 FFFFFFE3   6 032   16688  PDB,R6
  16018  00001842  00000001 USING  ORDINARY    00000000 00001000 FFFFFFE2   5 062   16165  JCB,R5
  16695  0000198C  00000001 USING  ORDINARY    00000000 00001000 FFFFFFF7   7 000          @R7,7
  16715  0000199A  00000001 USING  ORDINARY    00000000 00001000 FFFFFFF9   5 000          @R5,5
  16722  0000199A  00000001 USING  ORDINARY    00000000 00001000 FFFFFFF8   6 000          @R6,6
  16765  000019AA  00000001 USING  ORDINARY    000019AA 00001000 00000001   7 16E   17094  $$$383B,7
  16782  000019AC  00000001 USING  ORDINARY    00000000 00001000 FFFFFFE3   6 02C   17110  PDB,R6
  16792  000019B0  00000001 USING  ORDINARY    00000000 00001000 FFFFFFE2   5 063   17104  JCB,JCBR
  17124  00001A92  00000001 USING  ORDINARY    00000000 00001000 FFFFFFF7   7 000          @R7,7
  17144  00001AA0  00000001 USING  ORDINARY    00000000 00001000 FFFFFFF9   5 000          @R5,5
  17151  00001AA0  00000001 USING  ORDINARY    00000000 00001000 FFFFFFF8   6 000          @R6,6
  17200  00001ABA  00000001 USING  ORDINARY    00001ABA 00001000 00000001   7 076   17248  $$$398B,7
  17263  00001AF4  00000001 USING  ORDINARY    00000000 00001000 FFFFFFF7   7 000          @R7,7
  17345  00001B50  00000001 USING  ORDINARY    00001B50 00001000 00000001   7 040   17370  $$$402B,7
  17383  00001B74  00000001 USING  ORDINARY    00000000 00001000 FFFFFFF7   7 000          @R7,7
  17451  00001BAE  00000001 USING  ORDINARY    00001BAE 00001000 00000001   7 076   17576  $$$405B,7
  17597  00001C12  00000001 USING  ORDINARY    00000000 00001000 FFFFFFF7   7 000          @R7,7
  17649  00001C36  00000001 USING  ORDINARY    00001C36 00001000 00000001   7 2A4   17841  $$$411B,R7
  17660  00001C3A  00000001 USING  ORDINARY    00000000 00001000 FFFFFFE2   5 07C   17800  JCB,JCBR
  17753  00001C74  00000001 USING  ORDINARY    00000000 00001000 FFFFFFDE   8 05E   17803  TWA,WAR
  17852  00001CDA  00000001 USING  ORDINARY    00000000 00001000 FFFFFFF9   5 000          @R5,5
  17859  00001CDA  00000001 USING  ORDINARY    00000000 00001000 FFFFFFF6   8 000          @R8,8
  17924  00001CEA  00000001 USING  ORDINARY    00000000 00001000 FFFFFFF7   7 000          @R7,7
  17927  00001CEA  00000001 USING  ORDINARY    00001CEA 00001000 00000001   7 1F2   18159  $$$416B,7
  17941  00001CEA  00000001 USING  ORDINARY    FFFFFFD8 00001000 FFFFFFD8   8 034   18143  SPDBWA-(4+36),R8
  17963  00001CF4  00000001 USING  ORDINARY    00000018 00001000 00000001   6 038   18030  MILINFO,R6
  17978  00001CF6  00000001 USING  ORDINARY    00000000 00001000 FFFFFFE3   5 02E   17988  PDB,R5
  18192  00001DD0  00000001 USING  ORDINARY    00000000 00001000 FFFFFFF9   5 008   18410  @R5,5
  18197  00001DD0  00000001 USING  ORDINARY    00000000 00001000 FFFFFFF8   6 000          @R6,6
  18202  00001DD0  00000001 USING  ORDINARY    00000000 00001000 FFFFFFF6   8 000          @R8,8
  18211  00001DD0  00000001 USING  ORDINARY    00000000 00001000 FFFFFFF7   7 000          @R7,7
  18214  00001DD0  00000001 USING  ORDINARY    00001C36 00001000 00000001   7 000          $$$411B,7
  18287  00001DF8  00000001 USING  ORDINARY    00000000 00001000 FFFFFFF7   7 000          @R7,7
  18290  00001DF8  00000001 USING  ORDINARY    00001DF8 00001000 00000001   7 0DC   18441  $$$425B,7
  18304  00001DF8  00000001 USING  ORDINARY    FFFFFFD8 00001000 FFFFFFD7   8 02C   18388  SPENDWA-(4+36),R8
  18318  00001DFC  00000001 USING  ORDINARY    00000018 00001000 00000001   6 038   18381  MILINFO,R6
  18449  00001E52  00000001 USING  ORDINARY    00000000 00001000 FFFFFFF8   6 000          @R6,6
  18454  00001E52  00000001 USING  ORDINARY    00000000 00001000 FFFFFFF6   8 000          @R8,8
  18463  00001E52  00000001 USING  ORDINARY    00000000 00001000 FFFFFFF7   7 000          @R7,7
  18466  00001E52  00000001 USING  ORDINARY    00001C36 00001000 00000001   7 000          $$$411B,7
  18517  00001E70  00000001 USING  ORDINARY    00000000 00001000 FFFFFFF7   7 000          @R7,7
  18520  00001E70  00000001 USING  ORDINARY    00001E70 00001000 00000001   7 022   18575  $$$433B,7
  18537  00001E70  00000001 USING  ORDINARY    00000000 00001000 FFFFFFE2   5 05C   18580  JCB,JCBR
  18587  00001E9A  00000001 USING  ORDINARY    00000000 00001000 FFFFFFF9   5 000          @R5,5
  18596  00001E9A  00000001 USING  ORDINARY    00000000 00001000 FFFFFFF7   7 000          @R7,7
  18599  00001E9A  00000001 USING  ORDINARY    00001C36 00001000 00000001   7 000          $$$411B,7
  18678  00001EF8  00000001 USING  ORDINARY    00000000 00001000 FFFFFFF7   7 000          @R7,7
1TERM     (TERM2193) (12:56) (15MAR04) Using Map                                                                            Page  115
  18681  00001EF8  00000001 USING  ORDINARY    00001EF8 00001000 00000001   7 386   19204  $$$437B,7
  18698  00001EFC  00000001 USING  ORDINARY    00000018 00001000 00000001   6 078   19606  MILINFO,R6
  19036  00002000  00000001 USING  ORDINARY    00000000 00001000 FFFFFFE2   5 063   19497  JCB,JCBR
  19122  00002048  00000001 USING  ORDINARY    00000004 00001000 FFFFFFE3   1 00C   19127  PDBDATA,R1
  19134  0000204E  00000001 USING  ORDINARY    00000000 00001000 FFFFFFFD   1 000          @R1,1
  19228  000020CE  00000001 USING  ORDINARY    00000000 00001000 FFFFFFF7   7 000          @R7,7
  19231  000020CE  00000001 USING  ORDINARY    00001C36 00001000 00000001   7 000          $$$411B,7
  19282  000020F6  00000001 USING  ORDINARY    00000000 00001000 FFFFFFF7   7 000          @R7,7
  19285  000020F6  00000001 USING  ORDINARY    000020F6 00001000 00000001   7 186   19471  $$$456B,7
  19515  00002172  00000001 USING  ORDINARY    00000000 00001000 FFFFFFF7   7 000          @R7,7
  19518  00002172  00000001 USING  ORDINARY    00001C36 00001000 00000001   7 000          $$$411B,7
  19538  00002180  00000001 USING  ORDINARY    00000000 00001000 FFFFFFF9   5 000          @R5,5
  19577  00002190  00000001 USING  ORDINARY    00000000 00001000 FFFFFFF7   7 000          @R7,7
  19580  00002190  00000001 USING  ORDINARY    00002190 00001000 00000001   7 0C0   19622  $$$470B,7
  19648  000021BC  00000001 USING  ORDINARY    00000000 00001000 FFFFFFF7   7 000          @R7,7
  19651  000021BC  00000001 USING  ORDINARY    00001C36 00001000 00000001   7 000          $$$411B,7
  19687  000021E4  00000001 USING  ORDINARY    00000000 00001000 FFFFFFF7   7 000          @R7,7
  19690  000021E4  00000001 USING  ORDINARY    000021E4 00001000 00000001   7 094   19838  $$$473B,BR
  19702  000021E4  00000001 USING  ORDINARY    00000000 00001000 FFFFFFE2   5 062   19788  JCB,JCBR
  19855  0000224E  00000001 USING  ORDINARY    00000000 00001000 FFFFFFF9   5 000          @R5,5
  19861  0000224E  00000001 USING  ORDINARY    00000000 00001000 FFFFFFF7   7 000          @R7,7
  19933  0000229E  00000001 USING  ORDINARY    0000229E 00001000 00000001   7 4BA   20155  $$$479B,7
  19950  000022A2  00000001 USING  ORDINARY    00000000 00001000 FFFFFFE2   5 063   20154  JCB,JCBR
  20172  00002360  00000001 USING  ORDINARY    00000000 00001000 FFFFFFF7   7 000          @R7,7
  20192  0000236E  00000001 USING  ORDINARY    00000000 00001000 FFFFFFF9   5 000          @R5,5
  20212  0000236E  00000001 USING  ORDINARY    00000000 00001000 FFFFFFF3  11 000          @R11,11
  20244  0000237E  00000001 USING  ORDINARY    0000237E 00001000 00000001   7 408   20339  $$$488B,7
  20263  00002380  00000001 USING  ORDINARY    00000000 00001000 FFFFFFE2   2 010   20284  JCB,R2
  20293  000023A8  00000001 USING  ORDINARY    00000000 00001000 FFFFFFFC   2 000          @R2,2
  20356  000023D2  00000001 USING  ORDINARY    00000000 00001000 FFFFFFF7   7 000          @R7,7
  20382  000023E0  00000001 USING  ORDINARY    00000000 00001000 FFFFFFEC  11 000          CP,CPR
  20426  000023FA  00000001 USING  ORDINARY    000023FA 00001000 00000001   7 27C   20471  $$$493B,7
  20478  00002462  00000001 USING  ORDINARY    00000000 00001000 FFFFFFF7   7 000          @R7,7
  20529  0000248A  00000001 USING  ORDINARY    0000248A 00001000 00000001   7 03A   20577  $$$496B,7
  20588  000024B0  00000001 USING  ORDINARY    00000000 00001000 FFFFFFF7   7 000          @R7,7
  20697  000024E2  00000001 USING  ORDINARY    000024E2 00001000 00000001   7 2C2   21004  $$$500B,7
  20711  000024E2  00000001 USING  ORDINARY    FFFFFFD8 00001000 FFFFFFD5   8 048   20791  TIMRQWA-(4+36),R8
  20753  00002504  00000001 USING  ORDINARY    00000000 00001000 FFFFFFF8   6 000          @R6,6
  20756  00002504  00000001 USING  ORDINARY    00000000 00001000 FFFFFFD6   6 014   20915  TQE,R6
  20868  0000256C  00000001 USING  ORDINARY    00000000 00001000 FFFFFFD6  15 00C   20889  TQE,R15
  20909  00002580  00000001 USING  ORDINARY    00000000 00001000 FFFFFFEF  15 000          @R15,15
  21018  000025C6  00000001 USING  ORDINARY    00000000 00001000 FFFFFFF6   8 000          @R8,8
  21023  000025C6  00000001 USING  ORDINARY    00000000 00001000 FFFFFFF7   7 000          @R7,7
  21043  000025D4  00000001 USING  ORDINARY    00000000 00001000 FFFFFFF8   6 000          @R6,6
  21063  000025D4  00000001 USING  ORDINARY    00000000 00001000 FFFFFFF3  11 000          @R11,11
  21096  000025E4  00000001 USING  ORDINARY    000025E4 00001000 00000001   7 1AE   21264  $$$518B,7
  21137  00002602  00000001 USING  ORDINARY    00000000 00001000 FFFFFFD6   6 008   21271  TQE,R6
  21309  00002668  00000001 USING  ORDINARY    00000000 00001000 FFFFFFF7   7 000          @R7,7
  21329  00002676  00000001 USING  ORDINARY    00000000 00001000 FFFFFFF8   6 000          @R6,6
  21342  00002676  00000001 USING  ORDINARY    00000000 00001000 FFFFFFEC  11 000          CP,CPR
  21368  00002676  00000001 USING  ORDINARY    00000000 00001000 FFFFFFF3  11 000          @R11,11
  21383  00002678  00000001 USING  ORDINARY    00002678 00001000 00000001   7 130   21582  $$$529B,7
  21452  000026AC  00000001 USING  ORDINARY    00000000 00001000 FFFFFFD6   6 014   21501  TQE,R6
  21518  000026E8  00000001 USING  ORDINARY    00000000 00001000 FFFFFFF8   6 000          @R6,6
  21590  0000272A  00000001 USING  ORDINARY    00000000 00001000 FFFFFFF7   7 000          @R7,7
  21607  0000272A  00000001 USING  ORDINARY    0000272A 00001000 00000001  15 07A   21618  TSUBEXIT,R15
  21628  0000273C  00000001 USING  ORDINARY    00000000 00001000 FFFFFFEF  15 000          @R15,15

1         (TERM2193) (12:56) (15MAR04) General Purpose Register Cross Reference                                             Page  116
- Register  References (M=modified, B=branch, U=USING, D=DROP, N=index)                      HLASM R4.0  2004/03/15 12.56
0    0(0)      982U   983D  2110   2178M  2178   2179M  7610   7643M  7643   7645M  7654M  7654   7667M  7677M  7743M
              7796   7915M  7915   7944   7974M  7992M  8076M  8103   8135M  8353   8493M  8493   8510M  8531M  8650M
              8890M  9236M  9246   9266M  9313   9467M  9482M  9508M  9523M  9547M  9568M  9569M  9620M  9646   9838M
              9856M 10201M 10286  10312  10355M 10395M 10395  10435M 10457M 10457  10479M 10506M 10554  10637M 10682M
             10704M 10743M 10781  10813  10828M 10851  10886  10901M 10925  11051M 11340M 11365M 11365  11616  11646M
             11826M 11828M 11925M 11943M 12074M 12090M 12110M 12154M 12193M 12428M 12462M 12465  12509M 12512  12532M
             12562  12650M 12650  12681M 12719  12802M 12802  12910M 12947  12983  13011M 13048  13066M 13068  13088M
             13124  13424M 13426  13462M 13661  13715  13748M 13782  13890M 13917  14042M 14069  14193M 14290  14408
             14638M 14656M 14657  14662  14697M 14697  14730  14804M 14822M 14864M 14882M 14910M 14910  14928M 14941M
             14975M 15039M 15103  15199M 15208M 15208  15225  15241  15279M 15290M 15290  15304  15320  15483M 15484M
             15637M 15667M 15680M 15715M 15746M 15777M 15799M 15825  15894M 15968  16703M 16749  16828  16849M 16855M
             16889  16907  16909M 16930  16932M 16938  16975  17132M 17183  17209M 17210M 17221  17228M 17237  17252
             17256  17271M 17328  17358  17359  17391M 17434  17460  17537M 17573M 17579  17581  17605M 17772M 17788M
             17802M 17803M 17819  17837M 17907  18030M 18074  18088M 18089M 18121M 18123M 18143M 18145M 18167  18222M
             18269  18356M 18358  18381M 18474M 18501  18551M 18551  18558M 18566  18568M 18574  18576  18607M 18661
             18764M 18791  18800M 18809M 18809  18826  18989  19170  19213  19239M 19265  19318  19526M 19561  19606M
             19630  19659M 19760M 19761M 19761  19788M 19789M 19789  19834M 19916  19972  19985M 20099  20180M 20228
             20277M 20278M 20280  20335M 20336M 20338  20347M 20347  20364M 20409  20436M 20486M 20512  20562M 20596M
             20679  20736  20743M 20801M 20803  20805M 20838M 20839M 20841  20977M 20978M 20980  21003M 21003  21031M
             21080  21118M 21119M 21121  21255M 21256M 21258  21285M 21317M 21399M 21527M 21532  21533M 21534M 21562M
             21562  21575M 21613  21617M 21617  21620M
     1(1)      978U  2110   2173M  2174M  2180M  7610   7639M  7645M  7661M  7661   7666   7667M  7677   7679M  7679
              7681   7710U  7718M  7718   7724U  7743M  7796   7924M  7944   7973M  7994M  8083M  8103   8135M  8353
              8649M  8889M  9266M  9313   9359M  9462M  9481M  9503M  9522M  9542M  9579M  9620M  9646   9730M  9737M
              9837M  9855M 10052M 10201M 10286  10331  10354M 10391M 10434M 10453M 10478M 10506M 10554  10594M 10595M
             10595  10607M 10636M 10677M 10703M 10743M 10781  10813  10828M 10851  10886  10901M 10925  11050M 11213M
             11214M 11215M 11339M 11402M 11616  11647M 11660M 11827M 11828M 11924M 11942M 12073M 12089M 12109M 12153M
             12188M 12334M 12335M 12423M 12457M 12465  12509M 12512  12532M 12562  12681M 12719  12755  12820M 12844M
             12910M 12947  12985M 12994M 13006M 13048  13066M 13068  13088M 13124  13169M 13169  13183M 13317M 13419M
             13426  13462M 13661  13717M 13748M 13782  13890M 13917  13960M 13967M 14042M 14069  14121M 14154M 14193M
             14290  14416M 14639M 14656M 14799M 14821M 14859M 14881M 14927M 14974M 15039M 15103  15234M 15313M 15441M
             15484  15636M 15666M 15714M 15745M 15776M 15799M 15825  15894M 15968  15993  16688M 16703M 16749  16774
             16795M 16828  16842M 16945M 16955M 16975  17132M 17183  17256  17271M 17328  17391M 17434  17524M 17525M
             17525  17578  17580  17605M 17765M 17783M 17794M 17810M 17819  17837M 17907  17968  18037M 18074  18094
             18122M 18123M 18144M 18145M 18167  18222M 18269  18351M 18357  18388M 18411M 18432M 18433  18474M 18501
             18577  18607M 18661  18771M 18791  18799M 18989  19112M 19122U 19134U 19137M 19161M 19170  19213  19239M
             19265  19318  19526M 19561  19630  19659M 19803M 19828M 19916  19972  19986M 20099  20180M 20228  20253
             20275M 20276M 20278  20316M 20326M 20336  20343M 20348M 20348  20364M 20409  20439M 20471  20486M 20512
             20557M 20564M 20596M 20679  20736  20741M 20743  20745  20836M 20837M 20839  20958M 20968M 20978  21004M
             21031M 21080  21116M 21117M 21119  21236M 21246M 21256  21280M 21288M 21288  21317M 21398M 21398  21506M
             21531M 21558M 21563M 21563  21577M 21613  21618M 21620M
     2(2)      974U  2110   7610   7644M  7645   7715   7716M  7716   7743M  7796   7944   8103   8135M  8353   9266M
              9313   9361M  9362   9404M  9404N  9437M  9449U  9601U  9620M  9646  10092M 10102U 10161U 10201M 10286
             10506M 10554  10743M 10781  10807M 10828M 10851  10880M 10880  10901M 10925  11040  11466M 11468M 11470
             11473M 11483U 11616  11748U 11798M 11799M 11799  11806  11826N 12532M 12562  12610M 12611M 12623  12681M
             12719  12755M 12827  12910M 12947  12983M 12992  13088M 13124  13427M 13442  13462M 13661  13748M 13782
             13890M 13917  14042M 14069  14193M 14290  14401M 14482M 14521  14554M 14562  14680M 14799  14859  15039M
             15103  15347M 15358M 15358  15372  15392  15485M 15496M 15496  15510  15530  15539M 15547M 15548  15549M
             15550  15799M 15825  15894M 15968  16703M 16749  16828  16975  17132M 17183  17271M 17328  17391M 17434
             17460M 17472  17573  17605M 17907  17988M 17989M 18002  18074  18094M 18167  18175  18176  18222M 18269
             18474M 18501  18569M 18578M 18580  18607M 18661  18791  18989  19170  19213  19239M 19265  19318  19526M
             19561  19630  19659M 19916  19972  20099  20180M 20228  20253M 20263U 20285  20293U 20364M 20409  20486M
             20512  20596M 20679  20767M 20784M 20789M 20790  20850M 20994  21031M 21080  21108M 21181  21193M 21194
             21317M 21422M 21422  21457M 21461M 21462M 21463M 21472M 21472  21501M 21507B 21613  21620M
     3(3)      970U  2110   7610   7666M  7695   7717M  7743M  7796   7850M  7860U  7898U  7903   7944   8103   8135M
1         (TERM2193) (12:56) (15MAR04) General Purpose Register Cross Reference                                             Page  117
              8353   8797M  8797   8912M  8913   8965M  8965   9235   9266M  9313   9364M  9434M  9473   9488   9514
              9529   9553   9569N  9620M  9646  10201M 10286  10506M 10554  10743M 10781  10828M 10851  10901M 10925
             11616  11808M 11814  12532M 12562  12681M 12719  12910M 12947  13088M 13124  13462M 13661  13748M 13782
             13890M 13917  14042M 14069  14193M 14290  14402M 14492M 14493M 14493  14500M 14515M 14515  14547M 14547
             14556M 14682M 14708M 14708  14741M 14741  14804  14864  15039M 15103  15540M 15799M 15825  15894M 15968
             16703M 16749  16828  16975  17132M 17183  17271M 17328  17359M 17374  17391M 17434  17605M 17907  17987M
             18003M 18074  18124M 18125M 18133  18147M 18167  18222M 18269  18474M 18501  18542M 18558  18566  18568
             18570  18578M 18580  18607M 18661  18791  18989  19170  19213  19239M 19265  19318  19526M 19561  19630
             19659M 19916  19972  20099  20180M 20228  20364M 20409  20486M 20512  20596M 20679  20716M 20719  20731M
             20767M 20777M 20790  21031M 21080  21317M 21423M 21457M 21459M 21463M 21481M 21495M 21495  21501M 21506
             21525  21613  21620M
     4(4)      966U  2110   7610   7743M  7796   7944   8103   8135M  8353   8623M  8795M  8795   8913M  8946M  8947
              9236   9266M  9313   9341   9353M  9365   9620M  9646  10201M 10286  10331M 10344M 10423  10453  10506M
             10554  10743M 10781  10828M 10851  10901M 10925  11616  12532M 12562  12681M 12719  12910M 12947  13088M
             13124  13462M 13661  13748M 13782  13890M 13917  14042M 14069  14193M 14290  14521M 14570  15039M 15103
             15403M 15419M 15441  15475M 15483  15582M 15799M 15825  15894M 15968  16703M 16749  16828  16832M 16955
             16975  17132M 17183  17271M 17328  17391M 17434  17605M 17756M 17794  17907  18074  18085M 18086M 18089
             18103  18167  18222M 18269  18474M 18501  18607M 18661  18791  18989  19170  19213  19239M 19265  19318
             19526M 19561  19630  19659M 19916  19972  19981M 20003M 20003  20099  20112M 20112  20180M 20228  20364M
             20409  20486M 20512  20596M 20679  21031M 21080  21317M 21613  21620M
     5(5)      962U  2110   7610   7743M  7796   7944   8014M  8024U  8046U  8056   8103   8135M  8353   8435M  8443U
              8473M  8482U  8485U  8546U  8549U  9266M  9313   9620M  9646  10201M 10220U 10286  10312M 10325M 10379
             10391  10506M 10554  10743M 10781  10828M 10851  10901M 10925  11168M 11169M 11182M 11189  11201M 11209
             11212  11616  12193  12428  12532M 12562  12681M 12719  12910M 12947  13088M 13124  13181M 13298M 13298
             13462M 13661  13748M 13782  13808M 13817U 13874U 13890M 13917  14042M 14069  14193M 14290  14562M 14570M
             14578  14590M 14597M 14599  14633M 14633  14997U 15003M 15016U 15039M 15103  15404M 15413M 15413  15420M
             15435M 15435  15467M 15467  15477M 15574M 15574  15584M 15799M 15825  15894M 15968  16010M 16018U 16703M
             16715U 16749  16784M 16792U 16828  16975  17132M 17144U 17183  17271M 17328  17391M 17434  17605M 17652M
             17660U 17852U 17907  17968M 17978U 18074  18167  18192U 18222M 18269  18336M 18337M 18337  18411  18474M
             18501  18537U 18587U 18607M 18661  18791  18989  19036U 19109M 19159M 19170  19213  19239M 19265  19294M
             19295M 19296M 19309  19318  19504  19526M 19538U 19561  19630  19659M 19702U 19803  19819  19855U 19916
             19942M 19950U 19972  20099  20180M 20192U 20228  20364M 20409  20486M 20512  20596M 20679  20858M 20915
             20916  20994  21031M 21080  21146M 21194  21317M 21613  21620M
     6(6)      958U  2110   7610   7743M  7796   7833M  7843U  7944   8103   8117U  8135M  8353   8445M  8453U  8658
              8898   9266M  9313   9620M  9646  10201M 10213U 10286  10506M 10554  10743M 10781  10828M 10851  10901M
             10925  11208M 11616  12188  12423  12532M 12562  12681M 12719  12910M 12947  13088M 13124  13462M 13661
             13697M 13723  13748M 13782  13890M 13917  14042M 14069  14193M 14290  15039M 15103  15799M 15825  15894M
             15968  15993M 16001U 16703M 16722U 16749  16774M 16782U 16828  16975  17132M 17151U 17183  17271M 17328
             17391M 17434  17605M 17907  17953M 17963U 18074  18167  18197U 18222M 18269  18308M 18318U 18449U 18474M
             18501  18607M 18661  18690M 18698U 18791  18989  19170  19213  19239M 19265  19318  19526M 19561  19589M
             19630  19659M 19916  19972  20099  20180M 20228  20364M 20409  20486M 20512  20596M 20679  20745M 20753U
             20756U 20889  20916  21031M 21043U 21080  21129M 21137U 21146  21156M 21157M 21157  21194M 21280  21317M
             21329U 21427M 21437M 21437  21452U 21518U 21613  21620M
     7(7)      954U  2103M  2103   2104B  2110   2116B  7610   7615M  7627U  7735U  7743M  7796   7802M  7814U  7944
              8103   8127U  8135M  8353   8359M  8371U  9258U  9266M  9313   9318M  9330U  9612U  9620M  9646   9651M
              9663U 10193U 10201M 10286  10291M 10303U 10498U 10506M 10554  10560M 10572U 10735U 10743M 10781  10786M
             10798U 10820U 10828M 10851  10856M 10868U 10893U 10901M 10925  10931M 10943U 11616  12524U 12532M 12562
             12567M 12579U 12673U 12681M 12719  12725M 12737U 12902U 12910M 12947  12953M 12965U 13080U 13088M 13124
             13130M 13142U 13454U 13462M 13661  13667M 13679U 13740U 13748M 13782  13787M 13799U 13882U 13890M 13917
             13923M 13935U 14034U 14042M 14069  14075M 14087U 14185U 14193M 14290  14296M 14308U 15031U 15039M 15103
             15109M 15121U 15791U 15799M 15825  15830M 15842U 15886U 15894M 15968  15973M 15984U 16695U 16703M 16749
             16754M 16765U 16828  16975  17124U 17132M 17183  17188M 17200U 17263U 17271M 17328  17333M 17345U 17383U
             17391M 17434  17439M 17451U 17597U 17605M 17639M 17649U 17907  17913M 17924U 17927U 18074  18167  18211U
             18214U 18222M 18269  18275M 18287U 18290U 18463U 18466U 18474M 18501  18506M 18517U 18520U 18596U 18599U
             18607M 18661  18666M 18678U 18681U 18791  18989  19170  19213  19228U 19231U 19239M 19265  19270M 19282U
             19285U 19318  19515U 19518U 19526M 19561  19566M 19577U 19580U 19630  19648U 19651U 19659M 19674  19677M
             19847M 19861U 19916  19921M 19933U 19972  20099  20172U 20180M 20228  20233M 20244U 20356U 20364M 20409
             20414M 20426U 20478U 20486M 20512  20517M 20529U 20588U 20596M 20679  20685M 20697U 21023U 21031M 21080
             21085M 21096U 21309U 21317M 21373M 21383U 21590U 21613  21620M
1         (TERM2193) (12:56) (15MAR04) General Purpose Register Cross Reference                                             Page  118
     8(8)      950U  2110   7610   7611M  7739   7743M  7796   7798M  7828U  7944   8103   8122U  8131   8135M  8353
              8355M  8385U  9246N  9253U  9262   9266M  9313   9314M  9616   9620M  9646   9647M 10197  10201M 10286
             10287M 10502  10506M 10554  10556M 10586U 10730U 10739  10743M 10781  10782M 10813  10824  10828M 10851
             10852M 10886  10897  10901M 10925  10927M 10957U 11616  12512  12519U 12528  12532M 12562  12563M 12677
             12681M 12719  12721M 12751U 12897U 12906  12910M 12947  12949M 12979U 13068  13075U 13084  13088M 13124
             13126M 13156U 13426  13449U 13458  13462M 13661  13663M 13693U 13735U 13744  13748M 13782  13783M 13886
             13890M 13917  13919M 13949U 14029U 14038  14042M 14069  14071M 14101U 14180U 14189  14193M 14290  14292M
             14322U 15026U 15035  15039M 15103  15105M 15135U 15786U 15795  15799M 15825  15826M 15890  15894M 15968
             15969M 16699  16703M 16749  16750M 16828  16975  17128  17132M 17183  17184M 17256  17267  17271M 17328
             17329M 17387  17391M 17434  17435M 17601  17605M 17638M 17744M 17753U 17859U 17907  17909M 17941U 18074
             18167  18202U 18218  18222M 18269  18271M 18304U 18454U 18470  18474M 18501  18502M 18603  18607M 18661
             18662M 18791  18989  19170  19213  19235  19239M 19265  19266M 19318  19504N 19522  19526M 19561  19562M
             19630  19655  19659M 19674  19675M 19845  19847M 19916  19917M 19972  20099  20176  20180M 20228  20229M
             20360  20364M 20409  20410M 20482  20486M 20512  20513M 20592  20596M 20679  20681M 20711U 21018U 21027
             21031M 21080  21081M 21313  21317M 21395M 21613  21620M
     9(9)      946U  2110   7944   8103  11616  16828  16975  18074  18167  18791  18989  19170  19213  19318  19630
             19972  20099  21613  21620M
    10(A)      942U  2110   7944   8103  11616  16828  16975  18074  18167  18791  18989  19170  19213  19318  19630
             19972  20099  21613  21620M
    11(B)      938U  1174U  2110   7944   8103  11616  13697  13701M 13701  13723M 16828  16975  18074  18167  18791
             18989  19170  19213  19318  19630  19972  20099  20212U 20382U 21063U 21342U 21368U 21389M 21389  21613
             21620M
    12(C)      934U  1183U  2110   7944   8103  11616  16828  16975  18074  18167  18791  18989  19170  19213  19318
             19630  19972  20099  21385M 21613  21620M
    13(D)      930U  2110   7607   7610   7611   7612M  7612   7739M  7743   7745   7793   7796   7798   7799M  7799
              7924   7944   8103   8131M  8135   8137   8183M  8215M  8217M  8219M  8221M  8350   8353   8355   8356M
              8356   9262M  9266   9268   9310   9313   9314   9315M  9315   9359   9360M  9360   9413M  9434   9435M
              9435   9437   9438M  9438   9593M  9595M  9616M  9620   9622   9643   9646   9647   9648M  9648  10197M
             10201  10203  10283  10286  10287  10288M 10288  10502M 10506  10508  10551  10554  10556  10557M 10557
             10739M 10743  10745  10778  10781  10782  10783M 10783  10824M 10828  10830  10848  10851  10852  10853M
             10853  10897M 10901  10903  10922  10925  10927  10928M 10928  11208  11209M 11210M 11210  11211M 11616
             12465  12466M 12466  12508M 12509  12528M 12532  12534  12559  12562  12563  12564M 12564  12677M 12681
             12683  12716  12719  12721  12722M 12722  12906M 12910  12912  12944  12947  12949  12950M 12950  13048
             13049M 13049  13065M 13066  13084M 13088  13090  13121  13124  13126  13127M 13127  13458M 13462  13464
             13658  13661  13663  13664M 13664  13744M 13748  13750  13779  13782  13783  13784M 13784  13886M 13890
             13892  13914  13917  13919  13920M 13920  14038M 14042  14044  14066  14069  14071  14072M 14072  14189M
             14193  14195  14287  14290  14292  14293M 14293  15035M 15039  15041  15100  15103  15105  15106M 15106
             15795M 15799  15801  15822  15825  15826  15827M 15827  15890M 15894  15896  15965  15968  15969  15970M
             15970  16699M 16703  16705  16746  16749  16750  16751M 16751  16828  16975  17128M 17132  17134  17180
             17183  17184  17185M 17185  17267M 17271  17273  17325  17328  17329  17330M 17330  17387M 17391  17393
             17431  17434  17435  17436M 17436  17601M 17605  17607  17638  17744  17745M 17745  17817M 17819  17820M
             17820  17836M 17837  17904  17907  17909  17910M 17910  18074  18167  18218M 18222  18224  18266  18269
             18271  18272M 18272  18470M 18474  18476  18498  18501  18502  18503M 18503  18603M 18607  18609  18658
             18661  18662  18663M 18663  18791  18989  19170  19213  19235M 19239  19241  19262  19265  19266  19267M
             19267  19318  19522M 19526  19528  19558  19561  19562  19563M 19563  19630  19655M 19659  19661  19674
             19675  19676M 19676  19845M 19846  19847  19913  19916  19917  19918M 19918  19972  20099  20176M 20180
             20182  20225  20228  20229  20230M 20230  20360M 20364  20366  20406  20409  20410  20411M 20411  20482M
             20486  20488  20509  20512  20513  20514M 20514  20592M 20596  20598  20676  20679  20681  20682M 20682
             21027M 21031  21033  21077  21080  21081  21082M 21082  21313M 21317  21319  21394M 21395  21613  21620M
    14(E)      926U  2110   2111M  2125   2126M  2127B  2129M  2130B  2150M  2151B  2155M  2156B  2158M  2159B  2161M
              2162B  2164M  2165B  2167M  2168M  2168B  2174   7607   7745M  7748B  7793   7944   7945M  7983M  7984M
              7984B  8103   8104M  8137M  8140B  8182   8202M  8212M  8212B  8222M  8223B  8350   8626M  8627M  8627B
              8661M  8662M  8662B  8901M  8902M  8902B  8989M  8990M  8990B  9069M  9070M  9070B  9116M  9117M  9117B
              9198M  9199M  9199B  9218M  9219M  9219B  9232M  9233M  9233B  9268M  9271B  9310   9476M  9477M  9477B
              9491M  9492M  9492B  9517M  9518M  9518B  9532M  9533M  9533B  9556M  9557M  9557B  9622M  9625B  9643
              9703M  9704M  9704B  9733M  9734M  9734B  9740M  9741M  9741B  9849M  9850M  9850B  9867M  9868M  9868B
             10203M 10206B 10283  10366M 10367M 10367B 10406M 10407M 10407B 10446M 10447M 10447B 10468M 10469M 10469B
             10490M 10491M 10491B 10508M 10511B 10551  10648M 10649M 10649B 10693M 10694M 10694B 10715M 10716M 10716B
             10745M 10748B 10778  10810M 10811M 10811B 10830M 10833B 10848  10883M 10884M 10884B 10903M 10906B 10922
1         (TERM2193) (12:56) (15MAR04) General Purpose Register Cross Reference                                             Page  119
             11025M 11026M 11026B 11062M 11063M 11063B 11113M 11114M 11114B 11153M 11154M 11154B 11306M 11307M 11307B
             11351M 11352M 11352B 11376M 11377M 11377B 11391M 11392M 11392B 11405M 11406M 11406B 11509M 11510M 11510B
             11534M 11535M 11535B 11545M 11546M 11546B 11560M 11561M 11561B 11574M 11575M 11575B 11616  11617M 11650M
             11651M 11651B 11663M 11664M 11664B 11699M 11700M 11700B 11732M 11733M 11733B 11736M 11737M 11737B 11814M
             11828M 11936M 11937M 11937B 11954M 11955M 11955B 12067M 12068M 12068B 12085M 12086M 12086B 12149M 12150M
             12150B 12178M 12179M 12179B 12204M 12205M 12205B 12413M 12414M 12414B 12439M 12440M 12440B 12479M 12480M
             12480B 12534M 12537B 12559  12661M 12662M 12662B 12683M 12686B 12716  12813M 12814M 12814B 12823M 12824M
             12824B 12847M 12848M 12848B 12862M 12863M 12863B 12912M 12915B 12944  12988M 12989M 12989B 12997M 12998M
             12998B 13062M 13063M 13063B 13090M 13093B 13121  13186M 13187M 13187B 13281M 13282M 13282B 13320M 13321M
             13321B 13440M 13441M 13441B 13464M 13467B 13658  13720M 13721M 13721B 13750M 13753B 13779  13892M 13895B
             13914  13963M 13964M 13964B 13970M 13971M 13971B 14021M 14022M 14022B 14044M 14047B 14066  14118M 14119M
             14119B 14124M 14125M 14125B 14157M 14158M 14158B 14172M 14173M 14173B 14195M 14198B 14287  14355M 14356M
             14356B 14388M 14389M 14389B 14419M 14420M 14420B 14643M 14644M 14644B 14647M 14648M 14648B 14660M 14661M
             14661B 14789M 14790M 14790B 14815M 14816M 14816B 14833M 14834M 14834B 14849M 14850M 14850B 14875M 14876M
             14876B 14893M 14894M 14894B 14921M 14922M 14922B 14939M 14940M 14940B 14944M 14945M 14945B 14968M 14969M
             14969B 14986M 14987M 14987B 15041M 15044B 15100  15238M 15239M 15239B 15317M 15318M 15318B 15543M 15544M
             15544B 15629M 15630M 15630B 15660M 15661M 15661B 15678M 15679M 15679B 15683M 15684M 15684B 15707M 15708M
             15708B 15738M 15739M 15739B 15769M 15770M 15770B 15801M 15804B 15822  15896M 15899B 15965  16705M 16708B
             16746  16798M 16799M 16799B 16827M 16828  16852M 16853M 16853B 16898M 16899M 16899B 16952M 16953M 16953B
             16958M 16959M 16959B 16975  16976M 17134M 17137B 17180  17241M 17241  17242M 17244M 17248M 17249M 17249B
             17273M 17276B 17325  17363M 17363  17364M 17366M 17370M 17371M 17371B 17393M 17396B 17431  17540M 17541M
             17541B 17576M 17577M 17577B 17607M 17610B 17706M 17707M 17707B 17715M 17716M 17716B 17736M 17737M 17737B
             17775M 17776M 17776B 17791M 17792M 17792B 17797M 17798M 17798B 17833M 17834M 17834B 17841M 17842M 17842B
             17904  18074  18075M 18092M 18093M 18093B 18111M 18123M 18133M 18145M 18167  18168M 18224M 18227B 18266
             18414M 18415M 18415B 18476M 18479B 18498  18577M 18578M 18609M 18612B 18658  18726M 18727M 18727B 18791
             18792M 18989  18990M 19020M 19021M 19021B 19043M 19044M 19044B 19071M 19072M 19072B 19102M 19103M 19103B
             19140M 19141M 19141B 19153M 19154M 19154B 19157M 19158M 19158B 19164M 19165M 19165B 19170  19171M 19179M
             19180M 19180B 19191M 19192M 19192B 19204M 19205M 19205B 19213  19214M 19241M 19244B 19262  19318  19319M
             19528M 19531B 19558  19630  19631M 19661M 19664B 19672  19722M 19723M 19723B 19806M 19807M 19807B 19838M
             19839M 19839B 19846M 19848B 19913  19972  19973M 19989M 19990M 19990B 20011M 20012M 20012B 20027M 20028M
             20028B 20044M 20045M 20045B 20060M 20061M 20061B 20071M 20072M 20072B 20098M 20099  20120M 20121M 20121B
             20124M 20125M 20125B 20182M 20185B 20225  20366M 20369B 20406  20488M 20491B 20509  20598M 20601B 20676
             21033M 21036B 21077  21319M 21322B 21392M 21393M 21393B 21504M 21505M 21505B 21507M 21613  21620M 21621B
    15(F)      922U  2110   7678M  7747M  7747   7865M  7866   7919M  7919   7935M  7935   7944   7980M  8071M  8094M
              8094   8103   8139M  8139   8185M  8196U  8209U  8211M  8398U  8432U  8445   8658M  8898M  8932M  8933M
              8933   8946   9023M  9023   9152M  9152   9270M  9270   9365M  9369M  9378M  9378   9385   9473M  9488M
              9514M  9529M  9553M  9588M  9590M  9590   9624M  9624   9846M  9864M  9931M  9932M  9932  10000  10012M
             10051  10056M 10065M 10065  10072  10205M 10205  10363M 10403M 10443M 10465M 10487M 10510M 10510  10607
             10645M 10690M 10712M 10747M 10747  10832M 10832  10905M 10905  10969  11022M 11059M 11110M 11115M 11212M
             11215  11219M 11228M 11228  11235  11255M 11265U 11284U 11348M 11373M 11388M 11393M 11467M 11468  11469
             11531M 11536M 11571M 11576M 11616  11627M 11628M 11628  11652  11677M 11678M 11678  11805M 11806M 11807
             11819M 11819  11827  11828M 11860M 11933M 11951M 11985M 12010M 12010  12028M 12064M 12082M 12146M 12175M
             12201M 12245M 12267M 12289M 12296M 12306U 12328U 12331M 12333M 12335N 12360M 12360  12369  12370M 12393
             12394M 12410M 12436M 12450M 12450  12465  12476M 12509M 12536M 12536  12591M 12591  12635M 12636M 12637
             12658M 12685M 12685  12810M 12859M 12867M 12867  12885M 12914M 12914  13014D 13016M 13016  13017M 13018U
             13019M 13019  13028M 13028  13037D 13039M 13039  13040M 13041U 13048  13059M 13066M 13092M 13092  13181
             13278M 13283M 13326M 13326  13382M 13427  13437M 13442M 13466M 13466  13728M 13728  13752M 13752  13825M
             13825  13842M 13863M 13894M 13894  14018M 14046M 14046  14115M 14169M 14197M 14197  14640M 14772M 14772
             14786M 14812M 14830M 14846M 14872M 14890M 14918M 14936M 14965M 14983M 14988M 15043M 15043  15250M 15250
             15329M 15329  15604M 15604  15626M 15657M 15675M 15704M 15735M 15766M 15803M 15803  15898M 15898  16062M
             16063  16064M 16065  16707M 16707  16828  16829M 16830B 16975  17136M 17136  17237M 17242M 17243M 17244M
             17245M 17251M 17252M 17253  17275M 17275  17358M 17364M 17365M 17366M 17367M 17373M 17374M 17375  17395M
             17395  17590M 17590  17609M 17609  17830M 17983M 17984  18025M 18047M 18047  18065  18074  18116M 18122
             18123M 18138M 18144  18145M 18148M 18158M 18158  18167  18185M 18185  18226M 18226  18376M 18398M 18398
             18478M 18478  18570M 18574  18576M 18578M 18611M 18611  18723M 18723  18759M 18782M 18782  18791  18826M
             18829  18841M 18849M 18858M 18858  18865  18989  19170  19201M 19201  19213  19243M 19243  19318  19530M
             19530  19601M 19621M 19621  19630  19663M 19663  19713M 19714M 19714  19819M 19820  19834  19835M 19972
             19981  19982M 19982  19991  20024M 20057M 20099  20100M 20101B 20144M 20144  20161M 20184M 20184  20274M
             20277  20280M 20283M 20284  20285M 20315M 20316  20317M 20319  20334M 20335  20338M 20368M 20368  20446M
1         (TERM2193) (12:56) (15MAR04) General Purpose Register Cross Reference                                             Page  120
             20447  20490M 20490  20600M 20600  20716  20802M 20803M 20804  20805  20835M 20838  20841M 20849M 20850
             20858  20868U 20882M 20883M 20883  20909U 20916M 20957M 20958  20959M 20961  20976M 20977  20980M 21011M
             21035M 21035  21108  21115M 21118  21121M 21235M 21236  21237M 21239  21254M 21255  21258M 21301M 21301
             21321M 21321  21456M 21532M 21539M 21540M 21552  21607U 21613  21620M 21628U

1TERM     (TERM2193) (12:56) (15MAR04) Diagnostic Cross Reference and Assembler Summary                                     Page  121
-                                                                                            HLASM R4.0  2004/03/15 12.56
0     No Statements Flagged in this Assembly
 HIGH LEVEL ASSEMBLER, 5696-234, RELEASE 4.0, PTF P72483
0SYSTEM: OS/390 02.10.00            JOBNAME: WYL#TERM    STEPNAME: ASM        PROCSTEP: (NOPROC)
0Datasets Allocated for this Assembly
  Con DDname   Dataset Name                                 Volume  Member
   P1 SYSIN    WYL.GS.WYL.WYLBUR.SOURCE                     SYSB05  TERM
   L1 SYSLIB   WYL.GS.WYL.WYLBUR.MACLIB                     SYSB05
   L2          WYL.GG.SYS.MACLIB                            SYSB05
   L3          SYS3.IS.MACLIB                               SYSB05
   L4          SYS3.MACLIB                                  SYSB02
   L5          SYS1.MACLIB                                  MVSBR9
   L6          SYS1.MODGEN                                  MVSBR9
      SYSPRINT SYS04075.T125650.RA000.WYL#TERM.PRINT.H01    SCR100
      SYSTERM  GG$SLP.WYL#TERM.JOB03568.D0000101.?

    3668K allocated to Buffer Pool,         3669K would be required for this to be an In-Storage Assembly
    2505 Primary Input Records Read        17964 Library Records Read                  0 Work File Reads
       0 ASMAOPT Records Read               9692 Primary Print Records Written         4 Work File Writes
       0 Punch Records Written                 0 ADATA Records Written
0Assembly Start Time: 12.56.52 Stop Time: 12.57.11 Processor Time: 00.00.04.5194
 Return Code 000
