1                        J E S 2  J O B  L O G  --  S Y S T E M  S Y S B  --  N O D E  R L G
0
 12.52.29 JOB03557 ---- MONDAY,    15 MAR 2004 ----
 12.52.29 JOB03557  ICH70001I GG$SLP   LAST ACCESS AT 12:52:18 ON MONDAY, MARCH 15, 2004
 12.52.29 JOB03557  $HASP373 WYL#QUER STARTED - INIT 9    - CLASS B - SYS SYSB
 12.52.29 JOB03557  ***  HCMD      STEP $$QUIET
 12.52.29 JOB03557  PUR * Q OUT MUL
 12.52.29 JOB03557  JOB 5420 WYL#QUER WILL BE PURGED
 12.52.30 JOB03557  WYL#QUER.$$QUIET .         RC=Zero TapeIO=0000 DiskIO=0000 CPU=  .01s Elapsed=49.54s
 12.53.02 JOB03557  WYL#QUER.ASM     .         RC=Zero TapeIO=0000 DiskIO=0914 CPU= 8.95s Elapsed=50.62s
 12.53.08 JOB03557  WYL#QUER.EDIT    .         RC=Zero TapeIO=0000 DiskIO=0445 CPU= 1.38s Elapsed=82.09s
 12.53.08 JOB03557  WYL#QUER Ended.  Name=Assemble QUERY                 Total CPU=10.34s Elapsed=49.54s
 12.53.08 JOB03557
 12.53.08 JOB03557  Execution charges   Priority=Standard   Block=Day
 12.53.08 JOB03557
 12.53.08 JOB03557  CPU Usage         191.81         $118.92   Standard Processing Unit Equivalent
 12.53.08 JOB03557                                   =======
 12.53.08 JOB03557                                   $118.92   Total Job execution charge
 12.53.08 JOB03557
 12.53.08 JOB03557  See back separator page for print charges
 12.53.08 JOB03557
 12.53.08 JOB03557  $HASP395 WYL#QUER ENDED  ASM=0, EDIT=0
1        1 //WYL#QUER JOB SLP$GG,'Assemble QUERY',TIME=4,REGION=4M                 JOB03557
           //*
           /*JOBPARM LINES=99,COPIES=1
           /*JOBPARM FORMS=3HOL,PFORMAT=LAND,CHARS=BD13,DUPLEX=YES,FLASH=BAR4
           //*
           /*JOBPARM NOTIFY=GG.SLP,HOLD=OUTPUT                                     WYLGEN
         2 //$$QUIET EXEC PGM=HCMDX,PARM='PUR * Q OUT MUL'
           //*
         3 //ASM    EXEC PGM=ASMA90,REGION=8M,
           //            PARM=('NORENT,TERM,FLAG(NOCONT),US(MAP,WARN(10)),NODECK',
           //            'LC(32767),XREF(SHORT),ESD,DXREF,NOOBJECT')
         4 //STEPLIB DD DSN=SYS3.IS.TESTASM,DISP=SHR
         5 //SYSLIB   DD  DSN=WYL.GS.WYL.WYLBUR.MACLIB,DISP=SHR
         6 //         DD  DSN=WYL.GG.SYS.MACLIB,DISP=SHR
         7 //         DD  DSN=SYS3.IS.MACLIB,DISP=SHR
         8 //         DD  DSN=SYS3.MACLIB,DISP=SHR
         9 //         DD  DSN=SYS1.MACLIB,DISP=SHR
        10 //         DD  DSN=SYS1.MODGEN,DISP=SHR
        11 //SYSUT1   DD DSN=&&SYSUT1,UNIT=VIO,DISP=(,DELETE),
           //            SPACE=(4088,(500,250),,CONTIG,ROUND)
        12 //SYSTERM  DD SYSOUT=T
        13 //SYSPRINT DD DSN=&&PRINT,UNIT=SYSDA,DISP=(,PASS),
           //            SPACE=(6650,(250,250),RLSE),
           //            DCB=(BLKSIZE=6650,LRECL=133,RECFM=FB)
        14 //SYSUDUMP DD SYSOUT=A
        15 //SYSIN    DD  DSN=WYL.GS.WYL.WYLBUR.SOURCE(QUERY),DISP=SHR
           //*
        16 //EDIT    EXEC PGM=ASMEDIT,TIME=2,REGION=4000K,
           //             PARM='STMT'
        17 //STEPLIB  DD  DSN=WYL.GG.SYS.LINKLIB,DISP=SHR
        18 //ASMOUT   DD  DSN=&PRINT,DISP=(OLD,DELETE)
        19 //SYSPRINT DD  SYSOUT=A
1 STMT NO. MESSAGE
 -
        11 IGD01010I STORCLAS= TEMP STORGROUP =
        11 IGD01010I STORGRP=VIO ASSIGNED.
        13 IGD01010I STORCLAS= TEMP STORGROUP =
        13 IGD01010I STORGRP=VIO ASSIGNED.
 ICH70001I GG$SLP   LAST ACCESS AT 12:52:18 ON MONDAY, MARCH 15, 2004
 IEF142I WYL#QUER $$QUIET - STEP WAS EXECUTED - COND CODE 0000
 *********************************************************************************
 *   WYL#QUER/$$QUIET /                    Return Code      Zero                 *
 *   Region used      260K (16K user + 244K system)                              *
 *   Extended region  9464K (4K user + 9460K system)                             *
 *                                                                               *
 *   Paging              In      Out                                             *
 *   Private <-> Aux      0        0       CPU time (TCB)   00:00:00.01          *
 *   Private <-> Exp      0        0       CPU time (SRB)   00:00:00.00          *
 *   VIO                  0        0       Elapsed time    917:35:23.42          *
 *   Common               0      ---                                             *
 *                                                                               *
 *                                                                               *
 *   CPU Usage          0.18         $0.11  Standard Processing Unit Equivalent  *
 *                                   $0.11  Total Step execution charge          *
 *                                                                               *
 *    I/O count  DDname   Type Addr           I/O count  DDname   Type Addr      *
 *                         *** No I/O for this step ***                          *
 *********************************************************************************
 IEF373I STEP/$$QUIET /START 2004075.1252
 IEF374I STEP/$$QUIET /STOP  2004075.1252 CPU    0MIN 00.01SEC SRB    0MIN 00.00SEC VIRT    16K SYS   244K EXT       4K SYS    9460K
 IEF236I ALLOC. FOR WYL#QUER ASM
 IEF237I 04DC ALLOCATED TO STEPLIB
 IEF237I 04DC ALLOCATED TO SYSLIB
 IEF237I 04DC ALLOCATED TO
 IEF237I 04DC ALLOCATED TO
 IEF237I 0402 ALLOCATED TO
 IEF237I 04A0 ALLOCATED TO
 IEF237I 04A0 ALLOCATED TO
 IGD101I SMS ALLOCATED TO DDNAME (SYSUT1  )
         DSN (SYS04075.T125229.RA000.WYL#QUER.SYSUT1.H01  )
         STORCLAS (TEMP) MGMTCLAS (        ) DATACLAS (        )
         VOL SER NOS= VIO
 IEF237I JES2 ALLOCATED TO SYSTERM
 IGD101I SMS ALLOCATED TO DDNAME (SYSPRINT)
         DSN (SYS04075.T125229.RA000.WYL#QUER.PRINT.H01   )
         STORCLAS (TEMP) MGMTCLAS (        ) DATACLAS (        )
         VOL SER NOS= SCR100
 IEF237I JES2 ALLOCATED TO SYSUDUMP
 IEF237I 04DC ALLOCATED TO SYSIN
 IEF142I WYL#QUER ASM - STEP WAS EXECUTED - COND CODE 0000
 IEF285I   SYS3.IS.TESTASM                              KEPT
 IEF285I   VOL SER NOS= SYSB05.
 IEF285I   WYL.GS.WYL.WYLBUR.MACLIB                     KEPT
 IEF285I   VOL SER NOS= SYSB05.
 IEF285I   WYL.GG.SYS.MACLIB                            KEPT
 IEF285I   VOL SER NOS= SYSB05.
 IEF285I   SYS3.IS.MACLIB                               KEPT
 IEF285I   VOL SER NOS= SYSB05.
 IEF285I   SYS3.MACLIB                                  KEPT
 IEF285I   VOL SER NOS= SYSB02.
 IEF285I   SYS1.MACLIB                                  KEPT
 IEF285I   VOL SER NOS= MVSBR9.
 IEF285I   SYS1.MODGEN                                  KEPT
 IEF285I   VOL SER NOS= MVSBR9.
 IGD105I SYS04075.T125229.RA000.WYL#QUER.SYSUT1.H01   DELETED,   DDNAME=SYSUT1
 IEF285I   GG$SLP.WYL#QUER.JOB03557.D0000101.?          SYSOUT
 IGD106I SYS04075.T125229.RA000.WYL#QUER.PRINT.H01    PASSED,    DDNAME=SYSPRINT
 IEF285I   GG$SLP.WYL#QUER.JOB03557.D0000102.?          SYSOUT
 IEF285I   WYL.GS.WYL.WYLBUR.SOURCE                     KEPT
 IEF285I   VOL SER NOS= SYSB05.
 *********************************************************************************
 *   WYL#QUER/ASM     /                    Return Code      Zero                 *
 *   Region used      4376K (4096K user + 280K system)                           *
 *   Extended region  10080K (412K user + 9668K system)                          *
 *                                                                               *
 *   Paging              In      Out                                             *
 *   Private <-> Aux      0        0       CPU time (TCB)   00:00:08.88          *
 *   Private <-> Exp      0        0       CPU time (SRB)   00:00:00.07          *
 *   VIO                  0        0       Elapsed time    917:35:22.34          *
 *   Common               0      ---                                             *
 *                                                                               *
 *                                                                               *
 *   CPU Usage        166.50       $103.23  Standard Processing Unit Equivalent  *
 *                                 $103.23  Total Step execution charge          *
 *                                                                               *
 *    I/O count  DDname   Type Addr           I/O count  DDname   Type Addr      *
 *           83  STEPLIB  Disk 04DC                 369  SYSLIB   Disk 04DC      *
 *            0  SYSLIB   Disk 04DC                   0  SYSLIB   Disk 04DC      *
 *            4  SYSLIB   Disk 0402                   0  SYSLIB   Disk 04A0      *
 *            0  SYSLIB   Disk 04A0                 727  SYSUT1   VIO  ----      *
 *            0  SYSTERM       ----                 442  SYSPRINT Disk 038B      *
 *            0  SYSUDUMP      ----                  16  SYSIN    Disk 04DC      *
 *********************************************************************************
 IEF373I STEP/ASM     /START 2004075.1252
 IEF374I STEP/ASM     /STOP  2004075.1253 CPU    0MIN 08.88SEC SRB    0MIN 00.07SEC VIRT  4096K SYS   280K EXT     412K SYS    9668K
 IEF236I ALLOC. FOR WYL#QUER EDIT
 IEF237I 0402 ALLOCATED TO STEPLIB
 IGD103I SMS ALLOCATED TO DDNAME ASMOUT
 IEF237I JES2 ALLOCATED TO SYSPRINT
 IEF142I WYL#QUER EDIT - STEP WAS EXECUTED - COND CODE 0000
 IEF285I   WYL.GG.SYS.LINKLIB                           KEPT
 IEF285I   VOL SER NOS= SYSB02.
 IGD105I SYS04075.T125229.RA000.WYL#QUER.PRINT.H01    DELETED,   DDNAME=ASMOUT
 IEF285I   GG$SLP.WYL#QUER.JOB03557.D0000103.?          SYSOUT
 *********************************************************************************
 *   WYL#QUER/EDIT    /                    Return Code      Zero                 *
 *   Region used      380K (116K user + 264K system)                             *
 *   Extended region  9588K (4K user + 9584K system)                             *
 *                                                                               *
 *   Paging              In      Out                                             *
 *   Private <-> Aux      0        0       CPU time (TCB)   00:00:01.34          *
 *   Private <-> Exp      0        0       CPU time (SRB)   00:00:00.04          *
 *   VIO                  0        0       Elapsed time    917:34:50.87          *
 *   Common               0      ---                                             *
 *                                                                               *
 *                                                                               *
 *   CPU Usage         25.12        $15.57  Standard Processing Unit Equivalent  *
 *                                  $15.57  Total Step execution charge          *
 *                                                                               *
 *    I/O count  DDname   Type Addr           I/O count  DDname   Type Addr      *
 *            2  STEPLIB  Disk 0402                 443  ASMOUT   Disk 038B      *
 *            0  SYSPRINT      ----                                              *
 *********************************************************************************
 IEF373I STEP/EDIT    /START 2004075.1253
 IEF374I STEP/EDIT    /STOP  2004075.1253 CPU    0MIN 01.34SEC SRB    0MIN 00.04SEC VIRT   116K SYS   264K EXT       4K SYS    9584K
 *********************************************************************************
 *                                                                               *
 *                      S t a n f o r d   U n i v e r s i t y                    *
 *                                                                               *
 *                              *** Job Summary ***                              *
 *                                                                               *
 *   System Id      SYSB                   Input time     12:39:25  Mar 15, 2004 *
 *                                                                               *
 *   System Release SP6.1.0                Start time     12:52:29  Mar 15, 2004 *
 *                                                                               *
 *   Job name       WYL#QUER               Stop  time     00:00:00  Mar 15, 2004 *
 *                                                                               *
 *   Account        SLP$GG                 Elapsed time  917:35:23.42            *
 *                                                                               *
 *   User Name      Assemble QUERY         CPU time       00:00:10.23            *
 *                                                                               *
 *   Job class      B                      SRB Time       00:00:00.11            *
 *                                                                               *
 *********************************************************************************
 IEF375I  JOB/WYL#QUER/START 2004075.1252
 IEF376I  JOB/WYL#QUER/STOP  2004075.1253 CPU    0MIN 10.23SEC SRB    0MIN 00.11SEC
1Assembler Done QUERY No Statements Flagged
1         High Level Assembler Option Summary                   (PTF P72483 )                                               Page    1
-                                                                                            HLASM R4.0  2004/03/15 12.52
0  No Overriding ASMAOPT Parameters
   Overriding Parameters-  NORENT,TERM,FLAG(NOCONT),US(MAP,WARN(10)),NODECK,LC(32767),XREF(SHORT),ESD,DXREF,NOOBJECT
   No Process Statements


   Options for this Assembly
0  NOADATA
     ALIGN
   NOASA
     BATCH
     CODEPAGE(047C)
   NOCOMPAT
   NODBCS
 3 NODECK
 3   DXREF
 3   ESD
   NOEXIT
 3   FLAG(0,ALIGN,NOCONT,NOIMPLEN,NOPAGE0,PUSH,RECORD,NOSUBSTR,USING0)
   NOFOLD
   NOGOFF
   NOINFO
     LANGUAGE(EN)
   NOLIBMAC
 3   LINECOUNT(32767)
     LIST(121)
     MXREF(SOURCE)
 3 NOOBJECT
     OPTABLE(UNI,NOLIST)
   NOPCONTROL
   NOPESTOP
   NOPROFILE
   NORA2
 3 NORENT
     RLD
     RXREF
     SIZE(MAX)
     SYSPARM()
 3   TERM(WIDE)
   NOTEST
     THREAD
   NOTRANSLATE
 3   USING(NOLIMIT,MAP,WARN(10))
 3   XREF(SHORT)

   No Overriding DD Names

1QUERY    External Symbol Dictionary                                                                                        Page    2
-Symbol   Type   Id     Address  Length     LD ID  Flags Alias-of                            HLASM R4.0  2004/03/15 12.52
0WYLQUERY  SD 00000001 00000000 00007368             00
 QUER2193  LD          00000000           00000001
 SETQUERY  LD          00000018           00000001
 MPARM     ER 00000002
 MPINT     ER 00000003
 MTOKEN    ER 00000004
 MALL      ER 00000005
 SCNINVAL  ER 00000006
 NSCAN     ER 00000007
 SCANCHK   ER 00000008
 SEG       ER 00000009
 SEGCR     ER 0000000A
 DEQUOTE   ER 0000000B
 SHOWQRY   LD          00000EB0           00000001
 MINT      ER 0000000C
 COLLPSH   ER 0000000D
 SEGHX     ER 0000000E
 SEGDC     ER 0000000F
 QUERY     LD          0000141A           00000001
 SEGT      ER 00000010
 LRTRIM    ER 00000011
 SEGWR     ER 00000012
 WAITER    ER 00000013
 QUERYFC   LD          00001AE8           00000001
 QOPEN     LD          00001C54           00000001
 QSEND     LD          00001FA4           00000001
 QEXEC     LD          0000207E           00000001
 QRUN      LD          00002170           00000001
 FNAMESCN  ER 00000014
 FNAMPSHF  ER 00000015
 COLSPSH   ER 00000016
 SEGCLR    ER 00000017
 GETCORE   ER 00000018
 SCNEXFR   ER 00000019
 NDETRNG   ER 0000001A
 MKFFINFO  ER 0000001B
 FNAMEFIN  ER 0000001C
 EXTOPEN   ER 0000001D
 RDRNG     ER 0000001E
 DTB       ER 0000001F
 QFETCH    LD          000028DA           00000001
 MPSYMLN   ER 00000020
 MPLNO     ER 00000021
 CLRPSH    ER 00000022
 QFETLINE  LD          00002F88           00000001
 CLRTEXT   ER 00000023
 ADDER     ER 00000024
 SEGINIT   ER 00000025
 SEGINITR  ER 00000026
 CVEXNO    ER 00000027
 PUTLINEX  ER 00000028
 QCLOSE    LD          0000315E           00000001
 QRESET    LD          0000323E           00000001
 QMONITOR  LD          00003468           00000001
 GETQINFO  LD          0000389C           00000001
1QUERY    External Symbol Dictionary                                                                                        Page    3
 GETQSTAT  LD          000038FE           00000001
 FREECORE  ER 00000029
 DISPATCH  ER 0000002A
 TSTAT     ER 0000002B
 RTRIM     ER 0000002C
 SEGBLANK  ER 0000002D
 YESREQ    ER 0000002E
 CHKKW     ER 0000002F
 SEGCOL    ER 00000030
 FMTTIME   ER 00000031
 SEGB      ER 00000032
 MIXFMT    ER 00000033
 SERVFREE  LD          00004EF2           00000001
 SERVOPEN  LD          00004FAA           00000001
 LOCALTOD  ER 00000034
 SEGTB     ER 00000035
 NPATALLO  ER 00000036
 NPATSETU  ER 00000037
 GETRSC    ER 00000038
 NPATOPEN  ER 00000039
 NPATCLRU  ER 0000003A
 NPATCLS   ER 0000003B
 NPATREAD  ER 0000003C
 SERVREAD  LD          00006796           00000001
 SERVCLS   LD          00006882           00000001
 SERVTRC   LD          00006AE2           00000001
 SERVPOST  LD          00006E0A           00000001
 NPATCTRL  ER 0000003D

1QUERY    WYLBUR's Query Commands                                                                                           Page    4
0Loc    Object Code    Addr1 Addr2  Stmt Lv Lineno    Source Statement                    (Asmedit 3.3)  HLASM R4.0  2004/03/15 12.52
+___    ______ ____    _____ _____  ____ __ ______    ______ _________
0                                      2              *******************************************************************
                                       3              *                                                                 *
                                       4              *     WYLBUR/370 - Release VI - Class I - Stanford Proprietary    *
                                       5              *                                                                 *
                                       6              *******************************************************************
                                       7                       HIBAL
                                     988
                                     989                       SYSDEFN
                                     990              *
                                     991              *
                                     992              *  Modification history:
                                     993              *
                                     994              *    21-April-1997 - M. Durket
                                     995              *
                                     996              *    Fixed a bug in the OPENSETU routine. If the server RPC EXEC
                                     997              *    fails to initialize at startup, then WYLBUR will subsequently
                                     998              *    undergo periodic failsofts in SERVPOST. This is because the
                                     999              *    UNETSVIB field fails to get cleared if the server doesn't
                                    1000              *    initialize. The SVIBUNET field is cleared, though, which
                                    1001              *    triggers the failsoft. One would think that the UNETSVIB
                                    1002              *    field would get closed, because NPATCLS is being called,
                                    1003              *    but there's a call in NPATCLS to check for Suzan posts on
                                    1004              *    the UNET, prior to freeing it - and this calls SERVPOST when
                                    1005              *    it finds that there's a TCP_EOF in the queue.
                                    1006              *
 000000                00000 07368  1007              WYLQUERY CSECT
                                    1011
                                    1012              QUER     IDENT 2193                15:11:48 07/12/02  (SLP)
                                    1015             +
                                    1016    01-IDENT +         ENTRY QUER2193
                                    1017             +
 000000 16D8E4C5D9F2F1F9            1018    01-IDENT +QUER2193 DC    AL1(22),C'QUER2193,15MAR04,12:52'
                                    1019             +*
                                    1021                       REGS  FSR,,,,,,,BR,(WAR,LSR),PAR,PBR,CPR,CVR,SPR,RAR
                                    1157
                                    1158                       PUSH  DSECTS
 USING  CP,R11                      1169             =         USING (CP),(CV)
 USING  CV,R12
 000017                00000 07368  1188             =         POP   PRINT
1QUERY    (QUER2193) (12:52) (15MAR04) Common Control Blocks                                                                Page    5
0Current Usings:  (CP,R11) (CV,R12)
0Loc    Object Code    Addr1 Addr2  Stmt Lv Lineno    Source Statement           (Hibal 5, Asmedit 3.3)  HLASM R4.0  2004/03/15 12.52
+___    ______ ____    _____ _____  ____ __ ______    ______ _________
0                                   7844              ¿þþþþþþþþþþþþþþþþþþþþþþþþþþþþþþþþþþþþþþþþþþþþþþþþþþþþþþþþþþþþþþþþþþþþþÜ
                                    7845              Ÿ                                                                     Ÿ
                                    7846              Ÿ        Field Descriptor Entry.                                      Ÿ
                                    7847              Ÿ                                                                     Ÿ
                                                      ¾þþþþþþþþþþþþþþþþþþþþþþþþþþþþþþþþþþþþþþþþþþþþþþþþþþþþþþþþþþþþþþþþþþþþþ»
0                                   7848              FDEMAX#  EQU   100,,C'N'           Maximum number of FDEs
                                    7849
 000000                00000 00004  7850              FDE      RECORD BEGIN
 000000 00                          7858  1           FDETYPE    FLAG
 FDETYPE.FDETLEFT  01 EQ            7862  1                      FLAG  (FDETLEFT,1,EQ)     - Left centered field
 FDETYPE.FDETRIGHT 02 EQ            7872  1                      FLAG  (FDETRIGHT,2,EQ)    - Right centered field
 FDETYPE.FDETCENTE 03 EQ            7882  1                      FLAG  (FDETCENTER,3,EQ)   - Middle centered field
                                    7892  1
 000001                             7893  1                      DS    X                   Reserved
                                    7894  1
 000002                             7895  1           FDELEN     DS    H                   Field length
                                    7896  1           FDENEXT    EQU   *,,C'X'             Next FDE goes here
 000004                00004 00004  7897                       END
                                    7906
 000000                00000 00194  7907              FDEMAP   RECORD BEGIN
 000000                             7915  1                      DS    (FDEMAX#)XL(L'FDE)  Field descriptor entries
 000190                             7916  1           FDEMAPE    DS    XL(L'FDE)           Zeroed FDE (end of map)
 000194                00194 00194  7917                       END
                                    7926              ¿þþþþþþþþþþþþþþþþþþþþþþþþþþþþþþþþþþþþþþþþþþþþþþþþþþþþþþþþþþþþþþþþþþþþþÜ
                                    7927              Ÿ                                                                     Ÿ
                                    7928              Ÿ        INENTRY:  A line of input from the Query server.             Ÿ
                                    7929              Ÿ                                                                     Ÿ
                                                      ¾þþþþþþþþþþþþþþþþþþþþþþþþþþþþþþþþþþþþþþþþþþþþþþþþþþþþþþþþþþþþþþþþþþþþþ»
0000000                00000 00006  7930              INENTRY  RECORD BEGIN
 000000                             7938  1           INLINK     DS    A                   Ptr to next INENTRY (or zero)
                                    7939  1           INMAXL#    EQU   4000,,C'N'          Maximum line length
 000004                             7940  1           INLEN      DS    H                   Length of data following
                                    7941  1           INTEXT     EQU   *,,C'X'             Line data
 000006                00006 00006  7942                       END
                                    7951              SVIBTRC# EQU   50,,C'X'            Max number of trace entries
                                    7952              ¿þþþþþþþþþþþþþþþþþþþþþþþþþþþþþþþþþþþþþþþþþþþþþþþþþþþþþþþþþþþþþþþþþþþþþÜ
                                    7953              Ÿ                                                                     Ÿ
                                    7954              Ÿ  STRC -- Server trace entry                                         Ÿ
                                    7955              Ÿ                                                                     Ÿ
                                                      ¾þþþþþþþþþþþþþþþþþþþþþþþþþþþþþþþþþþþþþþþþþþþþþþþþþþþþþþþþþþþþþþþþþþþþþ»
0000000                00000 0001E  7956              STRC     RECORD BEGIN
 000000                             7964  1           STRCSTRT   DS    CL4'STRC'           Self identification
 000004                             7965  1           STRCLINK   DS    A                   Next STRC ptr (or zero)
 000008                             7966  1           STRCCLCK   DS    D                   Time stamp
                                    7967  1
 000010 00                          7968  1           STRCFLAG   FLAG
 STRCFLAG.STRCFSHO 80 ONES          7972  1                      FLAG  STRCFSHOWN          - This entry has been displayed
 STRCFLAG.STRCFKEE 40 ONES          7977  1                      FLAG  STRCFKEEP           - Don't delete this entry
                                    7982  1
 000012                             7983  1           STRCLNO    DS    H                   Milten line number
 000014                             7984  1           STRCACCT   DS    CL5                 Session account (uuugg)
1QUERY    (QUER2193) (12:52) (15MAR04) Common Control Blocks                                                                Page    6
0Current Usings:  (CP,R11) (CV,R12)
0Loc    Object Code    Addr1 Addr2  Stmt Lv Lineno    Source Statement           (Hibal 5, Asmedit 3.3)  HLASM R4.0  2004/03/15 12.52
+___    ______ ____    _____ _____  ____ __ ______    ______ _________
0                                   7985  1
 000019                             7986  1           STRCTYPE   DS    CL3                 Trace type
                                    7987  1
 00001C                             7988  1           STRCDLEN   DS    H                   Data length
                                    7989  1           STRCHDR    EQU   STRCSTRT,*-STRCSTRT,C'X'
                                    7990  1
                                    7991  1           STRCMXDL   EQU   200,,C'N'           Max allowed trace data length
 00001E                             7992  1           STRCDATA   DS    0X                  Data starts here (variable len)
 00001E                0001E 0001E  7993                       END
                                    8002              ¿þþþþþþþþþþþþþþþþþþþþþþþþþþþþþþþþþþþþþþþþþþþþþþþþþþþþþþþþþþþþþþþþþþþþþÜ
                                    8003              Ÿ                                                                     Ÿ
                                    8004              Ÿ  QINFO -- Query information.                                        Ÿ
                                    8005              Ÿ                                                                     Ÿ
                                    8006              Ÿ    Each user has a linked list of QINFOs.  This is the control      Ÿ
                                    8007              Ÿ      block that resolves references to "*" as the current query     Ÿ
                                    8008              Ÿ      server number.                                                 Ÿ
                                    8009              Ÿ                                                                     Ÿ
                                                      ¾þþþþþþþþþþþþþþþþþþþþþþþþþþþþþþþþþþþþþþþþþþþþþþþþþþþþþþþþþþþþþþþþþþþþþ»
0000000                00000 00008  8010              QINFO    RECORD BEGIN
 000000                             8018  1           QINFLINK   DS    A                   Next QINFO ptr
 000004                             8019  1           QINFNO     DS    F                   Our server number
 000008                00008 00008  8020                       END
1QUERY    (QUER2193) (12:52) (15MAR04) Common Control Blocks                                                                Page    7
0Current Usings:  (CP,R11) (CV,R12)
0Loc    Object Code    Addr1 Addr2  Stmt Lv Lineno    Source Statement           (Hibal 5, Asmedit 3.3)  HLASM R4.0  2004/03/15 12.52
+___    ______ ____    _____ _____  ____ __ ______    ______ _________
0                                   8030                       ¿þþþþþþþþþþþþþþþþþþþþþþþþÜ
                                    8031                       Ÿ  Universal constants.  Ÿ
                                    8032                       ¾þþþþþþþþþþþþþþþþþþþþþþþþ»
                                    8033              $TAB     EQU   X'05',,C'N'         EBCDIC tab character
                                    8034                       ¿þþþþþþþþþþþþþþþþþþþþþþþÜ
                                    8035                       Ÿ  Well known sockets.  Ÿ
                                    8036                       ¾þþþþþþþþþþþþþþþþþþþþþþþ»
                                    8037              SQLPORT# EQU   201,,C'N'           RSQL socket number
-                                   8039                       COPY  SVIB
                                    8040=            =         ¿þþþþþþþþþþþþþþþþþþþþþþþþþþþþÜ
                                    8041=            =         Ÿ  Server Information Block  Ÿ
                                    8042=            =         ¾þþþþþþþþþþþþþþþþþþþþþþþþþþþþ»
 000000                00000 001AC  8043             =SVIB     RECORD BEGIN
 000000 E2E5C9C2                    8051  1          =           DC    CL4'SVIB'           Self identification
                                    8052  1          =
 000004                             8053  1          =SVIBNO     DS    F                   Server number
 000008                             8054  1          =SVIBNAME   DS    CL32                Server name
 000028                             8055  1          =SVIBPW     DS    CL16                Server password
 000038                             8056  1          =           DS    XL16                Reserved
                                    8057  1          =
 000048 00                          8058  1          =SVIBSTAT   FLAG  ,                   Service status
 SVIBSTAT.SVIB#MAS 01 EQ            8062  1          =           FLAG  (SVIB#MASTER,1,EQ)  - Master definition
 SVIBSTAT.SVIB#WAI 02 EQ            8072  1          =           FLAG  (SVIB#WAITING,2,EQ) - Waiting for server
 SVIBSTAT.SVIB#IDL 03 EQ            8082  1          =           FLAG  (SVIB#IDLE,3,EQ)    - Idle
 SVIBSTAT.SVIB#BUS 04 EQ            8092  1          =           FLAG  (SVIB#BUSY,4,EQ)    - Busy
                                    8102  1          =
 000049 00                          8103  1          =SVIBFLAG   FLAG
 SVIBFLAG.SVIBFINI 80 ONES          8107  1          =           FLAG  SVIBFINIT           - Initialized
 SVIBFLAG.SVIBFCLO 40 ONES          8112  1          =           FLAG  SVIBFCLOSING        - Closing
 SVIBFLAG.SVIBFPUB 20 ONES          8117  1          =           FLAG  SVIBFPUBLIC         - Public server
 SVIBFLAG.SVIBFREU 10 ONES          8122  1          =           FLAG  SVIBFREUSE          - Reusable
 SVIBFLAG.SVIBFTRC 08 ONES          8127  1          =           FLAG  SVIBFTRC            - Tracing is active
 SVIBFLAG.SVIBFMON 04 ONES          8132  1          =           FLAG  SVIBFMON            - Monitoring is active
                                    8137  1          =
 00004A 00                          8138  1          =SVIBSTATE   FLAG
 SVIBSTATE.SVIBSFN 00 EQ            8142  1          =           FLAG  (SVIBSFNORMAL,0,EQ)  - NORMAL state
 SVIBSTATE.SVIBSFD 01 EQ            8152  1          =           FLAG  (SVIBSFDATA,1,EQ)    - Sending DATA
 SVIBSTATE.SVIBSFF 02 EQ            8162  1          =           FLAG  (SVIBSFFETCH,2,EQ)   - Fetching results
                                    8172  1          =
 00004B 00                          8173  1          =SVIBLOCALF   FLAG ,                  Local flags
 SVIBLOCALF.SVIBFB 80 ONES          8177  1          =           FLAG  SVIBFBUFFER         - Buffer fetch responses
 SVIBLOCALF.SVIBFE 40 ONES          8182  1          =           FLAG  SVIBFENDTAB         - End of table reached
 SVIBLOCALF.SVIBFA 20 ONES          8187  1          =           FLAG  SVIBFABORT          - RSQL ABORT has been sent
                                    8192  1          =
 00004C                             8193  1          =SVIBRDB    DS    CL32                Remote database name
 00006C                             8194  1          =SVIBRHOST   DS   CL(L'UNETRNAME)     Remote host name
 0000BC                             8195  1          =SVIBRPORT   DS   F                   Remote port number
 0000C0                             8196  1          =SVIBRUSER   DS   CL32                Remote user name
 0000E0                             8197  1          =SVIBRPASS   DS   CL32                Remote user password
                                    8198  1          =
 000100                             8199  1          =SVIBINFO   DS    CL80                Server information from remote
                                    8200  1          =
1QUERY    (QUER2193) (12:52) (15MAR04) Common Control Blocks                                                                Page    8
0Current Usings:  (CP,R11) (CV,R12)
0Loc    Object Code    Addr1 Addr2  Stmt Lv Lineno    Source Statement           (Hibal 5, Asmedit 3.3)  HLASM R4.0  2004/03/15 12.52
+___    ______ ____    _____ _____  ____ __ ______    ______ _________
0000150                             8201  1          =SVIBNCON   DS    F                   No. of connections
 000154                             8202  1          =SVIBNCMD   DS    F                   No. of command lines sent
 000158                             8203  1          =SVIBNRSP   DS    F                   No. of response lines read
                                    8204  1          =
 00015C                             8205  1          =SVIBNTRC     DS  F                   Current number of trace entries
 000160                             8206  1          =SVIBTRCQH    DS  A                   Trace entry queue head
 000164                             8207  1          =SVIBTRCQT    DS  A                   Trace entry queue tail
                                    8208  1          =
 000168                             8209  1          =SVIBCRJCB    DS  A                   Creator's JCB ptr (0=public server)
 00016C                             8210  1          =SVIBCRACCT   DS  CL5                 Creator's account (uuugg)
                                    8211  1          =
 000174                             8212  1          =SVIBMJCB   DS    A                   Monitoring JCB ptr
                                    8213  1          =
 000178                             8214  1          =           DS    2F                  Reserved
                                    8215  1          =
 000180                             8216  1          =SVIBCLK    DS    XL8                 Last activity clock
                                    8217  1          =
 000188                             8218  1          =SVIBJCBP   DS    A                   JCB ptr of user doing work
 00018C                             8219  1          =SVIBUNET   DS    A                   UNET ptr
                                    8220  1          =
 000190                             8221  1          =SVIBFMAP   DS    A                   FDE map ptr (or zero)
                                    8222  1          =
                                    8223  1          =SVIBIN#    EQU   1000,,C'N'          Max number of buffered entries
 000194                             8224  1          =SVIBINCT   DS    F                   Number of lines queued
 000198                             8225  1          =SVIBINQH   DS    A                   Input line queue head
 00019C                             8226  1          =SVIBINQT   DS    A                   Input line queue tail
 0001A0                             8227  1          =           DS    2F                  Reserved
                                    8228= 1          =           ¿þþþþþþþþþþþþþþþþþþþþþþþþþþþþþþþþþþþþþþþþþþþþþþþþþþþþþþþþþÜ
                                    8229= 1          =           Ÿ  The following information is only relevant for master  Ÿ
                                    8230= 1          =           Ÿ     definitions.                                        Ÿ
                                    8231= 1          =           ¾þþþþþþþþþþþþþþþþþþþþþþþþþþþþþþþþþþþþþþþþþþþþþþþþþþþþþþþþþ»
 0001A8                             8232  1          =SVIBMAX    DS    F                   Maximum number of servers allowed
 0001AC                001AC 001AC  8233             =         END
                                    8242              ¿þþþþþþþþþþþþþþþþþþþþþþþþþþþþþþþþþþþþþþþþþþþþþþþþþþþþþþþþþþþþþþþþþþþþþÜ
                                    8243              Ÿ                                                                     Ÿ
                                    8244              Ÿ  QMW -- QMONITOR wait entry.                                        Ÿ
                                    8245              Ÿ                                                                     Ÿ
                                                      ¾þþþþþþþþþþþþþþþþþþþþþþþþþþþþþþþþþþþþþþþþþþþþþþþþþþþþþþþþþþþþþþþþþþþþþ»
0000000                00000 0002C  8246              QMW      RECORD BEGIN
 000000                             8254  1           QMWLINK    DS    A                   Next QMW ptr
 000004                             8255  1           QMWNO      DS    F                   Server number (filled in at post)
 000008                             8256  1           QMWNAME    DS    CL(L'SVIBNAME)      Waiting for this server name
 000028                             8257  1           QMWJCBP    DS    A                   Waiter's JCB ptr
 00002C                0002C 0002C  8258                       END
1QUERY    (QUER2193) (12:52) (15MAR04) SET QUERY Command                                                                    Page    9
0Current Usings:  (CP,R11) (CV,R12)
0Loc    Object Code    Addr1 Addr2  Stmt Lv Lineno    Source Statement           (Hibal 5, Asmedit 3.3)  HLASM R4.0  2004/03/15 12.52
+___    ______ ____    _____ _____  ____ __ ______    ______ _________
0                                   8268              ¿þþþþþþþþþþþþþþþþþþþþþþþþþþþþþþþþþþþþþþþþþþþþþþþþþþþþþþþþþþþþþþþþþþþþþÜ
                                    8269              Ÿ                                                                     Ÿ
                                    8270              Ÿ  SETQUERY -- SET QUERY Command.                                     Ÿ
                                    8271              Ÿ                                                                     Ÿ
                                                      ¾þþþþþþþþþþþþþþþþþþþþþþþþþþþþþþþþþþþþþþþþþþþþþþþþþþþþþþþþþþþþþþþþþþþþþ»
0000000                00000 00268  8272              SETQWA   RECORD BEGIN
 000000 00                          8280  1           SETQFLG1   FLAG
 SETQFLG1.SETQFDEL 80 ONES          8284  1                      FLAG  SETQFDEL            - DELETE
 SETQFLG1.SETQFCRE 40 ONES          8289  1                      FLAG  SETQFCRE            - CREATE
 SETQFLG1.SETQFPUB 20 ONES          8294  1                      FLAG  SETQFPUBLIC         - PUBLIC
                                    8299  1
 000001 00                          8300  1           SETQFLG2   FLAG
 SETQFLG2.SETQFREU 80 ONES          8304  1                      FLAG  SETQFREUSE          - REUSE
 SETQFLG2.SETQFNOR 40 ONES          8309  1                      FLAG  SETQFNOREUSE        - NOREUSE
                                    8314  1
 000002 00                          8315  1           SETQFLG3   FLAG
 SETQFLG3.SETQFTRA 80 ONES          8319  1                      FLAG  SETQFTRACE          - TRACE
 SETQFLG3.SETQFNOT 40 ONES          8324  1                      FLAG  SETQFNOTRACE        - NOTRACE
 SETQFLG3.SETQFTCL 20 ONES          8329  1                      FLAG  SETQFTCLEAR         - TCLEAR
                                    8334  1
 000003 00                          8335  1           SETQFOPT   FLAG
 SETQFOPT.SETQFSOM 80 ONES          8339  1                      FLAG  SETQFSOME           - We processed something
 SETQFOPT.SETQFPDE 40 ONES          8344  1                      FLAG  SETQFPDEF           - Private defn overrides public
                                    8349  1
 000004                             8350  1           SETQRDB    DS    CL32                Remote database name
 000024                             8351  1           SETQRHOST   DS   CL(L'UNETRNAME)     Remote host name
 000074                             8352  1           SETQRPORT   DS   F                   Remote port number
 000078                             8353  1           SETQRUSER   DS   CL32                Remote user name
 000098                             8354  1           SETQRPASS   DS   CL32                Remote user password
 0000B8                             8355  1           SETQMAX    DS    F                   Maximum number of servers allowed
                                    8356  1
 0000BC                             8357  1           SETQSVIB   DS    XL(L'SVIB)          Our working SVIB
 000268                00268 00268  8358                       END
                                    8367
 000018 50E0 D000/9008_      00000  8368              SETQUERY XPROC SETQWA
 USING  *,R7
 USING  SETQWA-(4+36),R8
 000032 D7FF 8028 8028_00000 00000  8419                       CLEAR SETQWA
 000044 4160 8028            00000  8428                       LA    R6,SETQWA
 USING  SETQWA,R6                   8429                       WITH  (SETQWA,R6)
                                    8442                       ¿þþþþþþþþþþþþþþþþþþþþþþþþþÜ
                                    8443                       Ÿ  Scan for server name.  Ÿ
                                    8444                       ¾þþþþþþþþþþþþþþþþþþþþþþþþþ»
 000048 4150 60BC            000BC  8445                       LA    R5,SETQSVIB
 USING  SVIB,R5                     8446                       WITH  (SVIB,R5)
 00004C D7FF 5000 5000_00000 00000  8459                       CLEAR SVIB
 000058 D203 5000 7C76 00000 00CA8  8467                       MVC   SVIB(4),=CL4'SVIB'
                                    8468
 00005E 41F0 5000            00000  8469                       LA    R15,SVIB
 000062 58E0 7C7A/0DEE       00CAC  8470                       ACALL SERVSCANPROTO       Scan server name
 000068 4770 C7D6            007D6  8474                       BNZ   CVERROR
1QUERY    (QUER2193) (12:52) (15MAR04) SET QUERY Command                                                                    Page   10
0Current Usings:  (SVIB,R5) (SETQWA,R6) (*,R7) (SETQWA-(4+36),R8) (CP,R11) (CV,R12)
0Loc    Object Code    Addr1 Addr2  Stmt Lv Lineno    Source Statement           (Hibal 5, Asmedit 3.3)  HLASM R4.0  2004/03/15 12.52
+___    ______ ____    _____ _____  ____ __ ______    ______ _________
0                                   8475                       ¿þþþþþþþþþþþþþþþþþþþþþþþþþþþÜ
                                    8476                       Ÿ  Scan SET QUERY options.  Ÿ
                                    8477                       ¾þþþþþþþþþþþþþþþþþþþþþþþþþþþ»
 00006C D203 51A8 7C7E 001A8 00CB0  8478                       MVC   SVIBMAX,=F'1'       Default MAXSERVERS
 000072 9608 5049      00049        8479                       SET   SVIBFTRC            Default is TRACE
                                    8485
 000076 5810 B08C/1B00_      0008C  8486                       SCAN  SETQPRT             SET QUERY options
 0000C8 58E0 7C8A/0DEE       00CBC  8518                       SCANCHK ,                 Complain if scanning error
                                    8523                       ¿þþþþþþþþþþþþþþþþþþþþþþþþþþþþþþþþþþþþþþþÜ
                                    8524                       Ÿ  Make model SVIB from options given.  Ÿ
                                    8525                       ¾þþþþþþþþþþþþþþþþþþþþþþþþþþþþþþþþþþþþþþþ»
 0000CE D24F 506C 6024 0006C 00024  8526                       MVC   SVIBRHOST,SETQRHOST
 0000D4 D203 50BC 6074 000BC 00074  8527                       MVC   SVIBRPORT,SETQRPORT
 0000DA D21F 50C0 6078 000C0 00078  8528                       MVC   SVIBRUSER,SETQRUSER
 0000E0 D21F 50E0 6098 000E0 00098  8529                       MVC   SVIBRPASS,SETQRPASS
 0000E6 D21F 504C 6004 0004C 00004  8530                       MVC   SVIBRDB,SETQRDB
 0000EC D603 60B8 60B8_000B8 000B8  8531                       IF    (SETQMAX,NZ),'MVC SVIBMAX,SETQMAX'
 0000FC 9180 6001/47E0_00001        8553                       IF    SETQFREUSE,'SET SVIBFREUSE'
 000108 9140 6001/47E0_00001        8579                       IF    SETQFNOREUSE,'CLEAR SVIBFREUSE'
 000114 9180 6002/47E0_00002        8606                       IF    SETQFTRACE,'SET SVIBFTRC'
 000120 9140 6002/47E0_00002        8632                       IF    SETQFNOTRACE,'CLEAR SVIBFTRC'
                                    8659                       ¿þþþþþþþþþþþþþþþþþþþþþÜ
                                    8660                       Ÿ  SET QUERY CREATE.  Ÿ
                                    8661                       ¾þþþþþþþþþþþþþþþþþþþþþ»
 00012C 9140 6000/47E0_00000        8662                       IF    SETQFCRE,BEGIN      SET QUERY CREATE...
 000134 58E0 7C8E/0DEE       00CC0  8677  1                      ACALL QSCREATE            Create a new server
 00013A 47F0 C7DE            007DE  8681  1                      B     CVNEXT
 00013E                             8682                       END
                                    8686                       ¿þþþþþþþþþþþþþþþþþþþþþÜ
                                    8687                       Ÿ  SET QUERY DELETE.  Ÿ
                                    8688                       ¾þþþþþþþþþþþþþþþþþþþþþ»
 00013E 9180 6000/47E0_00000        8689                       IF    SETQFDEL,BEGIN      SET QUERY DELETE...
 000146 58E0 7C92/0DEE       00CC4  8704  1                      ACALL QSDELETE            Delete existing server
 00014C 47F0 C7DE            007DE  8708  1                      B     CVNEXT
 000150                             8709                       END
                                    8713                       ¿þþþþþþþþþþþþþþþþþþþþþþþþþþþþþþþþþþþÜ
                                    8714                       Ÿ  SET QUERY number <new options>.  Ÿ
                                    8715                       ¾þþþþþþþþþþþþþþþþþþþþþþþþþþþþþþþþþþþ»
 000150 58F0 5004/12FF_      00004  8716                       IF    ('LT R15,SVIBNO',NZ),BEGIN  Server number...
 00015A 58E0 7C96/0DEE       00CC8  8732  1                      ACALL SERVGET             Get SVIB ptr
 000160 4780 7136/4DE0_      00168  8736  1                      IF    NZ,'LCALL QSUPDATE'  Update server info
 000168                             8754                       END
                                    8758                       ¿þþþþþþþþþþþþþþþþþþþþþþþþþþþþþþþþþÜ
                                    8759                       Ÿ  SET QUERY name <new options>.  Ÿ
                                    8760                       ¾þþþþþþþþþþþþþþþþþþþþþþþþþþþþþþþþþ»
 000168 713A/47F0 7184 00168 00158  8761                       ELSE  BEGIN               Server name...
 00016C                             8772  1           QUPDLOOP   LOOP  BEGIN
 00016C 9120 6000/47E0_00000        8779  2                        IF    SETQFPUBLIC,BEGIN   Search public servers...
 000174 41F0 5000            00000  8794  3                          LA    R15,SVIB
 000178 58E0 7C9A/0DEE       00CCC  8795  3                          ACALL SERVFINDPUBLIC      Find next matching public server
 00017E 4770 7184            001B6  8799  3                          IF    NZ,EXIT,QUPDLOOP    No more entries found
 000182                             8813  2                        END
                                    8817  2
 000182 7154/47F0 7180 00182 00172  8818  2                        ELSE  BEGIN               Otherwise, search user servers...
1QUERY    (QUER2193) (12:52) (15MAR04) SET QUERY Command                                                                    Page   11
0Current Usings:  (SVIB,R5) (SETQWA,R6) (*,R7) (SETQWA-(4+36),R8) (CP,R11) (CV,R12)
0Loc    Object Code    Addr1 Addr2  Stmt Lv Lineno    Source Statement           (Hibal 5, Asmedit 3.3)  HLASM R4.0  2004/03/15 12.52
+___    ______ ____    _____ _____  ____ __ ______    ______ _________
0000186 41F0 5000            00000  8829  3                          LA    R15,SVIB
 00018A 58E0 7C9E/0DEE       00CD0  8830  3                          ACALL SERVFINDPRIVATE     Find next matching private server
 000190 4780 7176            001A8  8834  3                          IF    NZ,BEGIN            No more entries found...
 000194 9180 6003/4710_00003        8845  4                            IF    SETQFSOME,EXIT,QUPDLOOP  We are done now
 00019C 9620 6000      00000        8863  4                            SET   SETQFPUBLIC         Nothing found, look through pubs
 0001A0 4150 60BC            000BC  8869  4                            LA    R5,SETQSVIB         Our working SVIB
 0001A4 47F0 713A            0016C  8870  4                            B     QUPDLOOP
 0001A8                             8871  3                          END
                                    8875  3
 0001A8 1851                        8876  3                          LR    R5,R1               Set our new current SVIB ptr
                                    8877  3
 0001AA 41F0 5000            00000  8878  3                          LA    R15,SVIB            SVIB ptr
 0001AE 4DE0 7502            00534  8879  3                          LCALL QSUPDATE            Update server info
 0001B2                             8881  2                        END
 0001B2 47F0 713A            0016C  8885  1                      END
 0001B6                             8890                       END
                                    8894                       ¿þþþþþþþþþþþþþþþþþþþþþþþþþþþÜ
                                    8895                       Ÿ  Server entry not found.  Ÿ
                                    8896                       ¾þþþþþþþþþþþþþþþþþþþþþþþþþþþ»
 0001B6 9180 6003/4710_00003        8897                       IF    ~SETQFSOME,BEGIN    No match...
 0001BE 4110 7D66/4100_      00D98  8912  1                      TSEG  'Server '
 0001D0 41F0 5000            00000  8930  1                      LA    R15,SVIB
 0001D4 58E0 7CA6/0DEE       00CD8  8931  1                      ACALL SERVSEGN
 0001DA 4110 7D6D/4100_      00D9F  8935  1                      TSEG  ' does not exist; '
 0001EC 4110 7D7E/4100_      00DB0  8953  1                      TSEG  'use CREATE option to create new server.'
 0001FE                             8971                       END
                                    8975
 0001FE 47F0 C7DE            007DE  8976                       B     CVNEXT
 000202 18D8/9808 D004_             8977                       PEND
 DROP   SVIB,R5
 DROP   SETQWA,R6
 DROP   SETQWA-(4+36),R8
 DROP   *,R7
1QUERY    (QUER2193) (12:52) (15MAR04) SET QUERY Command                                                                    Page   12
0Current Usings:  (CP,R11) (CV,R12)
0Loc    Object Code    Addr1 Addr2  Stmt Lv Lineno    Source Statement           (Hibal 5, Asmedit 3.3)  HLASM R4.0  2004/03/15 12.52
+___    ______ ____    _____ _____  ____ __ ______    ______ _________
0                                   9013              ¿þþþþþþþþþþþþþþþþþþþþþþþþþþþþþþþþþþþþþþþþþþþþþþþþþþþþþþþþþþþþþþþþþþþþþÜ
                                    9014              Ÿ                                                                     Ÿ
                                    9015              Ÿ  QSCREATE -- Local routine to create a new server.                  Ÿ
                                    9016              Ÿ    (part of the SET QUERY command).                                 Ÿ
                                    9017              Ÿ                                                                     Ÿ
                                                      ¾þþþþþþþþþþþþþþþþþþþþþþþþþþþþþþþþþþþþþþþþþþþþþþþþþþþþþþþþþþþþþþþþþþþþþ»
0000210 50E0 D000/9008_      00000  9018              QSCREATE PROC
 USING  *,R7
 USING  SVIB,R5                     9057                       WITH  (SVIB,R5),(SETQWA,R6)
 USING  SETQWA,R6
 00022A D64F 506C 506C_0006C 0006C  9080                       IF    (SVIBRHOST,Z),BEGIN  Set default host name...
 000234 4110 7BAD/4100_      00DD7  9096  1                      ERROR 'Missing "ON hostname" on SET QUERY command.'
 000240                             9103                       END
                                    9107
 000240 D61F 504C 504C_0004C 0004C  9108                       IF    (SVIBRDB,Z),BEGIN
 00024A 4110 7BD8/4100_      00E02  9124  1                      ERROR 'Missing "AS dbname" on SET QUERY command.'
 000256                             9131                       END
                                    9135
 000256 D603 50BC 50BC_000BC 000BC  9136                       IF    (SVIBRPORT,Z),BEGIN  Set default port...
 000260 D203 50BC 7AB2 000BC 00CDC  9152  1                      MVC   SVIBRPORT,=A(SQLPORT#)  Set default port number
 000266                             9153                       END
                                    9157
 000266 9120 6000/47E0_00000        9158                       IF    SETQFPUBLIC,BEGIN   Public server...
 00026E 41F0 5000            00000  9173  1                      LA    R15,SVIB
 000272 58E0 7AA2/0DEE       00CCC  9174  1                      ACALL SERVFINDPUBLIC      Find matching public server
 000278 4780 70FA            00324  9178  1                      BZ    QSEXISTS            Error if one already exists
 00027C                             9179                       END
                                    9183
 00027C 7056/47F0 7076 0027C 0026C  9184                       ELSE  BEGIN               User server...
 000280 41F0 5000            00000  9195  1                      LA    R15,SVIB
 000284 58E0 7AA6/0DEE       00CD0  9196  1                      ACALL SERVFINDPRIVATE     Find matching private server
 00028A 4780 70FA            00324  9200  1                      BZ    QSEXISTS            Error if one already exists
                                    9201  1
 00028E 41F0 5000            00000  9202  1                      LA    R15,SVIB
 000292 58E0 7AA2/0DEE       00CCC  9203  1                      ACALL SERVFINDPUBLIC      Is it also a public server?
 000298 4770 7076/9640_      002A0  9207  1                      IF    Z,'SET SETQFPDEF'   We are overriding public server
 0002A0                             9229                       END
                                    9233
 0002A0 9201 5048      00048        9234                       SET   SVIB#MASTER         This is the master definition
                                    9240
 0002A4 1B00                        9241                       CLEAR R0                  Private server
 0002A6 9120 6000/47E0_00000        9245                       IF    SETQFPUBLIC,BEGIN   Public server...
 0002AE 9120 B3BE/4710_003BE        9260  1                      IF    ~CPSFSPR,'ERROR "Privileged option."'
 0002C2 4100 0001            00001  9287  1                      LA    R0,1                Set public
 0002C6                             9288                       END
 0002C6 41F0 5000            00000  9292                       LA    R15,SVIB
 0002CA 58E0 7AB6/0DEE       00CE0  9293                       ACALL SERVALLO            Allocate new server info
                                    9297
 0002D0 4110 7B6E/4100_      00D98  9298                       TSEG  'Server '
 0002E2 41F0 5000            00000  9316                       LA    R15,SVIB
 0002E6 58E0 7AAE/0DEE       00CD8  9317                       ACALL SERVSEGN
 0002EC 4110 7C01/4100_      00E2B  9321                       TSEG  ' has been created'
 0002FE 9140 6003/47E0_00003        9339                       IF    SETQFPDEF,'TSEG " (overrides public server)"'
1QUERY    (QUER2193) (12:52) (15MAR04) SET QUERY Command                                                                    Page   13
0Current Usings:  (SVIB,R5) (SETQWA,R6) (*,R7) (CP,R11) (CV,R12)
0Loc    Object Code    Addr1 Addr2  Stmt Lv Lineno    Source Statement           (Hibal 5, Asmedit 3.3)  HLASM R4.0  2004/03/15 12.52
+___    ______ ____    _____ _____  ____ __ ______    ______ _________
0000318 4110 7C12/4100_      00E3C  9377                       SETMSG '.'
 000320 47F0 7122            0034C  9381                       EXIT  QSCREATE
                                    9384                       ¿þþþþþþþþþþþþþþþþþþþþþþþþþþþþþþþþþþþþþþþþÜ
                                    9385                       Ÿ  Server already exists error message.  Ÿ
                                    9386                       ¾þþþþþþþþþþþþþþþþþþþþþþþþþþþþþþþþþþþþþþþþ»
 000324 4110 7B6E/4100_      00D98  9387              QSEXISTS TSEG  'Server '
 000336 41F0 5000            00000  9405                       LA    R15,SVIB
 00033A 58E0 7AAE/0DEE       00CD8  9406                       ACALL SERVSEGN
 000340 4110 7C13/4100_      00E3D  9410                       ERROR ' already exists, no action taken.'
                                    9417
 00034C 18D8/9808 D004_             9418                       PEND
 DROP   SETQWA,R6
 DROP   SVIB,R5
 DROP   *,R7
1QUERY    (QUER2193) (12:52) (15MAR04) SET QUERY Command                                                                    Page   14
0Current Usings:  (CP,R11) (CV,R12)
0Loc    Object Code    Addr1 Addr2  Stmt Lv Lineno    Source Statement           (Hibal 5, Asmedit 3.3)  HLASM R4.0  2004/03/15 12.52
+___    ______ ____    _____ _____  ____ __ ______    ______ _________
0                                   9449              ¿þþþþþþþþþþþþþþþþþþþþþþþþþþþþþþþþþþþþþþþþþþþþþþþþþþþþþþþþþþþþþþþþþþþþþÜ
                                    9450              Ÿ                                                                     Ÿ
                                    9451              Ÿ  QSDELETE -- Local routine to delete the server specified           Ÿ
                                    9452              Ÿ    (part of the SET QUERY command).                                 Ÿ
                                    9453              Ÿ                                                                     Ÿ
                                                      ¾þþþþþþþþþþþþþþþþþþþþþþþþþþþþþþþþþþþþþþþþþþþþþþþþþþþþþþþþþþþþþþþþþþþþþ»
000035A 50E0 D000/9008_      00000  9454              QSDELETE PROC
 USING  *,R7
 USING  SVIB,R5                     9493                       WITH  (SVIB,R5),(SETQWA,R6)
 USING  SETQWA,R6
                                    9516                       ¿þþþþþþþþþþþþþþþþþþþþþþþþþþþþþþÜ
                                    9517                       Ÿ  Delete a server by number.  Ÿ
                                    9518                       ¾þþþþþþþþþþþþþþþþþþþþþþþþþþþþþþ»
 000374 58F0 5004/12FF       00004  9519                       LT    R15,SVIBNO          Was server number specified?
 00037A 4780 70AE            00422  9523                       IF    NZ,BEGIN            Yes...
 00037E 58E0 7954/0DEE       00CC8  9534  1                      ACALL SERVGET             Get SVIB ptr
 000384 58E0 7970/0DEE       00CE4  9538  1                      ACALL SERVCHK             Make sure we can use it
                                    9542  1
 00038A 182F                        9543  1                      LR    R2,R15
 00038C 18E5/41F0 01AC_             9544  1                      MOVEL SVIB,@R2            Save SVIB contents
                                    9568  1
 000398 9120 5049/47E0_00049        9569  1                      IF    SVIBFPUBLIC,BEGIN   Public server...
 0003A0 9120 B3BE/4710_003BE        9584  2                        IF ~CPSFSPR,'ERROR "Public server operation is privileged."'
 0003B4                             9611  1                      END
                                    9615  1
 0003B4 4110 7A24/4100_      00D98  9616  1                      TSEG  'Server '
 0003C6 41F0 5000            00000  9634  1                      LA    R15,SVIB
 0003CA 58E0 7964/0DEE       00CD8  9635  1                      ACALL SERVSEGN
                                    9639  1                      ¿þþþþþþþþþþþþþþþþþþþþþþþþþÜ
                                    9640  1                      Ÿ  Delete a busy server.  Ÿ
                                    9641  1                      ¾þþþþþþþþþþþþþþþþþþþþþþþþþ»
 0003D0 9504 5048/4770_00048        9642  1                      IF    SVIB#BUSY,BEGIN     Busy...
 0003D8 4110 7AEA/4100_      00E5E  9657  2                        TSEG  ' is busy (will delete server when current'
 0003EA 4110 79EC/4100_      00D60  9675  2                        TSEG  ' operation has completed).',,CR
                                    9693  2
 0003FC 9640 2049      00049        9694  2                        WITH  (SVIB,R2),'SET SVIBFCLOSING'  Close connection when done
 DROP   SVIB,R5
 USING  SVIB,R2
 USING  SVIB,R5
 DROP   SVIB,R2
 000400                             9740  1                      END
                                    9744  1                      ¿þþþþþþþþþþþþþþþþþþþþþþþþþþÜ
                                    9745  1                      Ÿ  Delete an idle server.  Ÿ
                                    9746  1                      ¾þþþþþþþþþþþþþþþþþþþþþþþþþþ»
 000400 7090/47F0 70AA 00400 003D6  9747  1                      ELSE  BEGIN               Delete server...
 000404 4110 7B13/4100_      00E87  9758  2                        TSEG  ' will be deleted.',,CR
                                    9776  2
 000416 18F2                        9777  2                        LR    R15,R2
 000418 58E0 7978/0DEE       00CEC  9778  2                        ACALL SERVDEL             Delete server entry
 00041E                             9782  1                      END
                                    9786  1
 00041E 47F0 C7DE            007DE  9787  1                      B     CVNEXT
 000422                             9788                       END
1QUERY    (QUER2193) (12:52) (15MAR04) SET QUERY Command                                                                    Page   15
0Current Usings:  (SVIB,R5) (SETQWA,R6) (*,R7) (CP,R11) (CV,R12)
0Loc    Object Code    Addr1 Addr2  Stmt Lv Lineno    Source Statement           (Hibal 5, Asmedit 3.3)  HLASM R4.0  2004/03/15 12.52
+___    ______ ____    _____ _____  ____ __ ______    ______ _________
0                                   9792                       ¿þþþþþþþþþþþþþþþþþþþþþþþþþþþþþþþþþþþþþþþþþþþþþþþÜ
                                    9793                       Ÿ  Delete all servers with the name specified.  Ÿ
                                    9794                       ¾þþþþþþþþþþþþþþþþþþþþþþþþþþþþþþþþþþþþþþþþþþþþþþþ»
 000422                             9795              QDELLOOP LOOP  BEGIN
                                    9802  1                      ¿þþþþþþþþþþþþþþþþþþþþþþþþþþþÜ
                                    9803  1                      Ÿ  Find first/next server.  Ÿ
                                    9804  1                      ¾þþþþþþþþþþþþþþþþþþþþþþþþþþþ»
 000422 9120 6000/47E0_00000        9805  1                      IF    SETQFPUBLIC,BEGIN   Search public servers...
 00042A 41F0 5000            00000  9820  2                        LA    R15,SVIB
 00042E 58E0 7958/0DEE       00CCC  9821  2                        ACALL SERVFINDPUBLIC      Find next matching public server
 000434 4770 7182            004F6  9825  2                        IF    NZ,EXIT,QDELLOOP    No more entries found
 000438                             9839  1                      END
                                    9843  1
 000438 70C8/47F0 70E6 00438 00428  9844  1                      ELSE  BEGIN               Otherwise, search user servers...
 00043C 41F0 5000            00000  9855  2                        LA    R15,SVIB
 000440 58E0 795C/0DEE       00CD0  9856  2                        ACALL SERVFINDPRIVATE     Find next matching private server
 000446 4780 70E6            0045A  9860  2                        IF    NZ,BEGIN            No more entries found...
 00044A 9180 6003/4710_00003        9871  3                          IF    SETQFSOME,EXIT,QDELLOOP  We are done now
 000452 9620 6000      00000        9889  3                          SET   SETQFPUBLIC         Nothing found, look through pubs
 000456 47F0 70AE            00422  9895  3                          B     QDELLOOP
 00045A                             9896  2                        END
 00045A                             9900  1                      END
                                    9904  1
 00045A 1821                        9905  1                      LR    R2,R1
 00045C 18E5/41F0 01AC_             9906  1                      MOVEL SVIB,@R2            Save SVIB (for next SERVFIND)
                                    9930  1
 000468 9120 5049/47E0_00049        9931  1                      IF    SVIBFPUBLIC,BEGIN   Public server...
 000470 9120 B3BE/4710_003BE        9946  2                        IF ~CPSFSPR,'ERROR "Public server operation is privileged."'
 000484                             9973  1                      END
                                    9977  1
 000484 9680 6003      00003        9978  1                      SET   SETQFSOME           We found something
                                    9984  1
 000488 4110 7A24/4100_      00D98  9985  1                      TSEG  'Server '
 00049A 41F0 5000            00000 10003  1                      LA    R15,SVIB
 00049E 58E0 7964/0DEE       00CD8 10004  1                      ACALL SERVSEGN
                                   10008  1                      ¿þþþþþþþþþþþþþþþþþþþþþþþþþÜ
                                   10009  1                      Ÿ  Delete a busy server.  Ÿ
                                   10010  1                      ¾þþþþþþþþþþþþþþþþþþþþþþþþþ»
 0004A4 9504 5048/4770_00048       10011  1                      IF    SVIB#BUSY,BEGIN     Busy...
 0004AC 4110 7AEA/4100_      00E5E 10026  2                        TSEG  ' is busy (will delete server when current'
 0004BE 4110 79EC/4100_      00D60 10044  2                        TSEG  ' operation has completed).',,CR
                                   10062  2
 0004D0 9640 5049      00049       10063  2                        SET   SVIBFCLOSING        Close connection when done
 0004D4                            10069  1                      END
                                   10073  1                      ¿þþþþþþþþþþþþþþþþþþþþþþþþþþÜ
                                   10074  1                      Ÿ  Delete an idle server.  Ÿ
                                   10075  1                      ¾þþþþþþþþþþþþþþþþþþþþþþþþþþ»
 0004D4 7164/47F0 717E 004D4 004AA 10076  1                      ELSE  BEGIN               Delete server...
 0004D8 4110 7B13/4100_      00E87 10087  2                        TSEG  ' will be deleted.',,CR
                                   10105  2
 0004EA 18F2                       10106  2                        LR    R15,R2
 0004EC 58E0 7978/0DEE       00CEC 10107  2                        ACALL SERVDEL             Delete server entry
 0004F2                            10111  1                      END
 0004F2 47F0 70AE            00422 10115                       END
1QUERY    (QUER2193) (12:52) (15MAR04) SET QUERY Command                                                                    Page   16
0Current Usings:  (SVIB,R5) (SETQWA,R6) (*,R7) (CP,R11) (CV,R12)
0Loc    Object Code    Addr1 Addr2  Stmt Lv Lineno    Source Statement           (Hibal 5, Asmedit 3.3)  HLASM R4.0  2004/03/15 12.52
+___    ______ ____    _____ _____  ____ __ ______    ______ _________
0                                  10120
 0004F6 9180 6003/4710_00003       10121                       IF    ~SETQFSOME,BEGIN    No such server found...
 0004FE 4110 7A24/4100_      00D98 10136  1                      TSEG  'Server '
 000510 41F0 5000            00000 10154  1                      LA    R15,SVIB
 000514 58E0 7964/0DEE       00CD8 10155  1                      ACALL SERVSEGN
 00051A 4110 7924/4100_      00C98 10159  1                      ERROR ' does not exist.'
 000526                            10166                       END
                                   10170
 000526 18D8/9808 D004_            10171                       PEND
 DROP   SETQWA,R6
 DROP   SVIB,R5
 DROP   *,R7
1QUERY    (QUER2193) (12:52) (15MAR04) SET QUERY Command                                                                    Page   17
0Current Usings:  (CP,R11) (CV,R12)
0Loc    Object Code    Addr1 Addr2  Stmt Lv Lineno    Source Statement           (Hibal 5, Asmedit 3.3)  HLASM R4.0  2004/03/15 12.52
+___    ______ ____    _____ _____  ____ __ ______    ______ _________
0                                  10202              ¿þþþþþþþþþþþþþþþþþþþþþþþþþþþþþþþþþþþþþþþþþþþþþþþþþþþþþþþþþþþþþþþþþþþþþÜ
                                   10203              Ÿ                                                                     Ÿ
                                   10204              Ÿ  QSUPDATE -- Local routine to update this SVIB with the SET QUERY   Ÿ
                                   10205              Ÿ    parameters specified.                                            Ÿ
                                   10206              Ÿ                                                                     Ÿ
                                   10207              Ÿ    On entry:                                                        Ÿ
                                   10208              Ÿ      R15 - SVIB ptr                                                 Ÿ
                                   10209              Ÿ                                                                     Ÿ
                                                      ¾þþþþþþþþþþþþþþþþþþþþþþþþþþþþþþþþþþþþþþþþþþþþþþþþþþþþþþþþþþþþþþþþþþþþþ»
0000534 50E0 D000/9008_      00000 10210              QSUPDATE PROC
 USING  *,R7
 USING  SETQWA,R6                  10249                       WITH  (SETQWA,R6)
                                   10262
 00054E 185F                       10263                       LR    R5,R15
 USING  SVIB,R5                    10264                       WITH  (SVIB,R5)
 000550 D503 77A2 5000_00CF0 00000 10277                       FAIL  (SVIB,NE,'SVIB'),QUPDSERV,'Bad SVIB ptr'
                                   10306
 000572 9120 5049/47E0_00049       10307                       IF    SVIBFPUBLIC,BEGIN   Public server...
 00057A 9120 B3BE/4710_003BE       10322  1                      IF ~CPSFSPR,'ERROR "Public server operation is privileged."'
 00058E                            10349                       END
                                   10353
 00058E 1B44                       10354                       CLEAR R4                  Flag: nothing updated
                                   10358                       ¿þþþþþþþþþþþþþþþþþþþþþþþþþþþþþþþþþþþþþþþþþþþþþþþþþþþþÜ
                                   10359                       Ÿ  Only update this information in the master copy.  Ÿ
                                   10360                       ¾þþþþþþþþþþþþþþþþþþþþþþþþþþþþþþþþþþþþþþþþþþþþþþþþþþþþ»
 000590 9501 5048/4770_00048       10361                       IF    SVIB#MASTER,BEGIN
 000598 D61F 6004 6004_00004 00004 10376  1                      IF    (SETQRDB,NZ),'MVC SVIBRDB,SETQRDB; LA R4,1'
 0005AC D64F 6024 6024_00024 00024 10399  1                      IF    (SETQRHOST,NZ),'MVC SVIBRHOST,SETQRHOST; LA R4,1'
 0005C0 D603 6074 6074_00074 00074 10422  1                      IF    (SETQRPORT,NZ),'MVC SVIBRPORT,SETQRPORT; LA R4,1'
 0005D4 D61F 6078 6078_00078 00078 10445  1                      IF    (SETQRUSER,NZ),'MVC SVIBRUSER,SETQRUSER; LA R4,1'
 0005E8 D61F 6098 6098_00098 00098 10468  1                      IF    (SETQRPASS,NZ),'MVC SVIBRPASS,SETQRPASS; LA R4,1'
 0005FC D603 60B8 60B8_000B8 000B8 10491  1                      IF    (SETQMAX,NZ),'MVC SVIBMAX,SETQMAX; LA R4,1'
 000610                            10514                       END
                                   10518                       ¿þþþþþþþþþþþþþþþþþþþþþþþþþþþþþþÜ
                                   10519                       Ÿ  Update server information.  Ÿ
                                   10520                       ¾þþþþþþþþþþþþþþþþþþþþþþþþþþþþþþ»
 000610 9180 6001/47E0_00001       10521                       IF    SETQFREUSE,'SET SVIBFREUSE; LA R4,1'
 000620 9140 6001/47E0_00001       10548                       IF    SETQFNOREUSE,'CLEAR SVIBFREUSE; LA R4,1'
 000630 9180 6002/47E0_00002       10576                       IF    SETQFTRACE,'SET SVIBFTRC; LA R4,1'
 000640 9140 6002/47E0_00002       10603                       IF    SETQFNOTRACE,'CLEAR SVIBFTRC; LA R4,1'
                                   10631
 000650 9120 6002/47E0_00002       10632                       IF    SETQFTCLEAR,BEGIN   Clear the trace table...
 000658 5810 5160/1211_      00160 10647  1                      WHILE ('LT R1,SVIBTRCQH',NZ),BEGIN  Free trace entries...
 000662 41F0 5000            00000 10665  2                        LA    R15,SVIB
 000666 58E0 77A6/0DEE       00CF4 10666  2                        ACALL FREESTRC            Free this entry
 00066C 47F0 710A            00658 10670  1                      END
 000670 4140 0001            00001 10675  1                      LA    R4,1
 000674                            10676                       END
                                   10680
 000674 1244/4780 715E             10681                       IF    (R4,NZ),BEGIN       Something was updated...
 00067A 4110 784A/4100_      00D98 10695  1                      TSEG  'Server '
 00068C 41F0 5000            00000 10713  1                      LA    R15,SVIB
 000690 58E0 778A/0DEE       00CD8 10714  1                      ACALL SERVSEGN
1QUERY    (QUER2193) (12:52) (15MAR04) SET QUERY Command                                                                    Page   18
0Current Usings:  (SVIB,R5) (SETQWA,R6) (*,R7) (CP,R11) (CV,R12)
0Loc    Object Code    Addr1 Addr2  Stmt Lv Lineno    Source Statement           (Hibal 5, Asmedit 3.3)  HLASM R4.0  2004/03/15 12.52
+___    ______ ____    _____ _____  ____ __ ______    ______ _________
0000696 4110 782C/4100_      00D7A 10718  1                      TSEG  ' information has been updated.',,CR
 0006A8 9680 6003      00003       10736  1                      SET   SETQFSOME           Something was updated
 0006AC                            10742                       END
                                   10746
 0006AC 18D8/9808 D004_            10747                       PEND
 DROP   SVIB,R5
 DROP   SETQWA,R6
 DROP   *,R7
1QUERY    (QUER2193) (12:52) (15MAR04) SET QUERY Command                                                                    Page   19
0Current Usings:  (CP,R11) (CV,R12)
0Loc    Object Code    Addr1 Addr2  Stmt Lv Lineno    Source Statement           (Hibal 5, Asmedit 3.3)  HLASM R4.0  2004/03/15 12.52
+___    ______ ____    _____ _____  ____ __ ______    ______ _________
0                                  10778                       ¿þþþþþþþþþþþþþþþþþþþþþÜ
                                   10779                       Ÿ  SET QUERY Options  Ÿ
                                   10780                       ¾þþþþþþþþþþþþþþþþþþþþþ»
 0006BC C1E2404040404040_          10781              SETQPRT  SCKW  AS,SSVAS,P
 0006E4 D6D5404040404040_          10796                       SCKW  ON,SSVON,P
 00070C D7D6D9E340404040_          10811                       SCKW  PORT,SSVPORT,(A,P,PI),99999
 000734 E4E2C5D940404040_          10826                       SCKW  USER,SSVUSER,(A,P)
 00075C D7C1E2E2E6D6D9C4_          10841                       SCKW  PASSWORD,SSVPASS,(A,P)
 000784 C3D9C5C1E3C54040_          10856                       SCKW  CREATE,SSVCRE,A
 0007AC C4C5D3C5E3C54040_          10871                       SCKW  DELETE,SSVDEL,A
 0007D4 D7E4C2D3C9C34040_          10886                       SCKW  PUBLIC,SSPUBLIC,A
 0007FC D4C1E7E2C5D9E5C5_          10901                       SCKW  MAXSERVERS,SSMAX,(A,P,PI)
 000824 D9C5E4E2C5404040_          10916                       SCKW  REUSE,SSVREUSE,A
 00084C D5D6D9C5E4E2C540_          10931                       SCKW  NOREUSE,SSVNOREU,A
 000874 D9C5E4E2C1C2D3C5_          10946                       SCKW  REUSABLE,SSVREUSE,A
 00089C D5D6D9C5E4E2C1C2_          10961                       SCKW  NOREUSABLE,SSVNOREU,A
 0008C4 D5D6E3D9C1C3C540_          10976                       SCKW  NOTRACE,SSVNTRC,A
 0008EC E3D9C1C3C5404040_          10991                       SCKW  TRACE,SSVTRC,A
 000914 D5D6E3D9C1C3C540_          11006                       SCKW  NOTRACE,SSVNTRC,A
 00093C E3C3D3C5C1D94040_          11021                       SCKW  TCLEAR,SSVTCLR,A
 000964 4040404040404040_          11036                       SCKW  ,V(SCNINVAL)
                                   11051
 00098C 50E0 D000/9008_      00000 11052              SSVAS    PROC
 USING  *,R7
 USING  SETQWA,R6                  11091                       WITH  (SETQWA,R6)
 0009A6 D21F 6004 C4D8 00004 004D8 11104                       MVC   SETQRDB,CVBLANKS
 0009AC 58E0 7352/0DEE       00CF8 11105                       VCALL DEQUOTE
 0009B2 18F0                       11109                       LR    R15,R0
 0009B4 59F0 7356/47D0_      00CFC 11110                       CEIL  R15,L'SETQRDB
 0009C0 06F0/12FF/4740_            11129                       MOVE  R15,SETQRDB,@R1
 0009CC 1BFF                       11167                       CLEAR R15
 0009CE 18D8/9808 D004_            11171                       PEND
 DROP   SETQWA,R6
 DROP   *,R7
                                   11196
 0009DC 50E0 D000/9008_      00000 11197              SSVON    PROC
 USING  *,R7
 USING  SETQWA,R6                  11236                       WITH  (SETQWA,R6)
 0009F6 D24F 6024 C4D8 00024 004D8 11249                       MVC   SETQRHOST,CVBLANKS
 0009FC 58E0 7302/0DEE       00CF8 11250                       VCALL DEQUOTE
 000A02 18F0                       11254                       LR    R15,R0
 000A04 59F0 730A/47D0_      00D00 11255                       CEIL  R15,L'SETQRHOST
 000A10 06F0/12FF/4740_            11274                       MOVE  R15,SETQRHOST,@R1
 000A1C 1BFF                       11312                       CLEAR R15
 000A1E 18D8/9808 D004_            11316                       PEND
 DROP   SETQWA,R6
 DROP   *,R7
                                   11341
 000A2C 50E0 D000/9008_      00000 11342              SSVPORT  PROC
 USING  *,R7
 USING  SETQWA,R6                  11381                       WITH  (SETQWA,R6)
 000A46 5000 6074            00074 11394                       ST    R0,SETQRPORT
 000A4A 18D8/9808 D004_            11395                       PEND
 DROP   SETQWA,R6
1QUERY    (QUER2193) (12:52) (15MAR04) SET QUERY Command                                                                    Page   20
0Current Usings:  (CP,R11) (CV,R12)
0Loc    Object Code    Addr1 Addr2  Stmt Lv Lineno    Source Statement           (Hibal 5, Asmedit 3.3)  HLASM R4.0  2004/03/15 12.52
+___    ______ ____    _____ _____  ____ __ ______    ______ _________
0DROP   *,R7
                                   11420
 000A58 50E0 D000/9008_      00000 11421              SSVUSER  PROC
 USING  *,R7
 USING  SETQWA,R6                  11460                       WITH  (SETQWA,R6)
 000A72 D21F 6078 C4D8 00078 004D8 11473                       MVC   SETQRUSER,CVBLANKS
 000A78 58E0 7286/0DEE       00CF8 11474                       VCALL DEQUOTE
 000A7E 18F0                       11478                       LR    R15,R0
 000A80 59F0 7292/47D0_      00D04 11479                       CEIL  R15,L'SETQRUSER
 000A8C 06F0/12FF/4740_            11498                       MOVE  R15,SETQRUSER,@R1
 000A98 1BFF                       11536                       CLEAR R15
 000A9A 18D8/9808 D004_            11540                       PEND
 DROP   SETQWA,R6
 DROP   *,R7
                                   11565
 000AA8 50E0 D000/9008_      00000 11566              SSVPASS  PROC
 USING  *,R7
 USING  SETQWA,R6                  11605                       WITH  (SETQWA,R6)
 000AC2 D21F 6098 C4D8 00098 004D8 11618                       MVC   SETQRPASS,CVBLANKS
 000AC8 58E0 7236/0DEE       00CF8 11619                       VCALL DEQUOTE
 000ACE 18F0                       11623                       LR    R15,R0
 000AD0 59F0 7246/47D0_      00D08 11624                       CEIL  R15,L'SETQRPASS
 000ADC 06F0/12FF/4740_            11643                       MOVE  R15,SETQRPASS,@R1
 000AE8 1BFF                       11681                       CLEAR R15
 000AEA 18D8/9808 D004_            11685                       PEND
 DROP   SETQWA,R6
 DROP   *,R7
                                   11710
 000AF8 50E0 D000/9008_      00000 11711              SSVCRE   PROC
 USING  *,R7
 USING  SETQWA,R6                  11750                       WITH  (SETQWA,R6)
 000B12 9640 6000      00000       11763                       SET   SETQFCRE
 000B16 18D8/9808 D004_            11769                       PEND
 DROP   SETQWA,R6
 DROP   *,R7
                                   11794
 000B24 50E0 D000/9008_      00000 11795              SSVDEL   PROC
 USING  *,R7
 USING  SETQWA,R6                  11834                       WITH  (SETQWA,R6)
 000B3E 9680 6000      00000       11847                       SET   SETQFDEL
 000B42 18D8/9808 D004_            11853                       PEND
 DROP   SETQWA,R6
 DROP   *,R7
                                   11878
 000B50 50E0 D000/9008_      00000 11879              SSPUBLIC PROC
 USING  *,R7
 USING  SETQWA,R6                  11918                       WITH  (SETQWA,R6)
 000B6A 9620 6000      00000       11931                       SET   SETQFPUBLIC
 000B6E 18D8/9808 D004_            11937                       PEND
 DROP   SETQWA,R6
 DROP   *,R7
                                   11962
 000B7C 50E0 D000/9008_      00000 11963              SSMAX    PROC
 USING  *,R7
1QUERY    (QUER2193) (12:52) (15MAR04) SET QUERY Command                                                                    Page   21
0Current Usings:  (SETQWA,R6) (*,R7) (CP,R11) (CV,R12)
0Loc    Object Code    Addr1 Addr2  Stmt Lv Lineno    Source Statement           (Hibal 5, Asmedit 3.3)  HLASM R4.0  2004/03/15 12.52
+___    ______ ____    _____ _____  ____ __ ______    ______ _________
0USING  SETQWA,R6                  12002                       WITH  (SETQWA,R6)
 000B96 5000 60B8            000B8 12015                       ST    R0,SETQMAX
 000B9A 18D8/9808 D004_            12016                       PEND
 DROP   SETQWA,R6
 DROP   *,R7
                                   12041
 000BA8 50E0 D000/9008_      00000 12042              SSVREUSE PROC
 USING  *,R7
 USING  SETQWA,R6                  12081                       WITH  (SETQWA,R6)
 000BC2 9680 6001/94BF_00001       12094                       SET   SETQFREUSE,(SETQFNOREUSE,OFF)
 000BCA 18D8/9808 D004_            12105                       PEND
 DROP   SETQWA,R6
 DROP   *,R7
                                   12130
 000BD8 50E0 D000/9008_      00000 12131              SSVNOREU PROC
 USING  *,R7
 USING  SETQWA,R6                  12170                       WITH  (SETQWA,R6)
 000BF2 9640 6001/947F_00001       12183                       SET   SETQFNOREUSE,(SETQFREUSE,OFF)
 000BFA 18D8/9808 D004_            12194                       PEND
 DROP   SETQWA,R6
 DROP   *,R7
                                   12219
 000C08 50E0 D000/9008_      00000 12220              SSVTRC   PROC
 USING  *,R7
 USING  SETQWA,R6                  12259                       WITH  (SETQWA,R6)
 000C22 9680 6002/94BF_00002       12272                       SET   SETQFTRACE,(SETQFNOTRACE,OFF)
 000C2A 18D8/9808 D004_            12283                       PEND
 DROP   SETQWA,R6
 DROP   *,R7
                                   12308
 000C38 50E0 D000/9008_      00000 12309              SSVNTRC  PROC
 USING  *,R7
 USING  SETQWA,R6                  12348                       WITH  (SETQWA,R6)
 000C52 9640 6002/947F_00002       12361                       SET   SETQFNOTRACE,(SETQFTRACE,OFF)
 000C5A 18D8/9808 D004_            12372                       PEND
 DROP   SETQWA,R6
 DROP   *,R7
                                   12397
 000C68 50E0 D000/9008_      00000 12398              SSVTCLR  PROC
 USING  *,R7
 USING  SETQWA,R6                  12437                       WITH  (SETQWA,R6)
 000C82 9620 6002      00002       12450                       SET   SETQFTCLEAR
 000C86 18D8/9808 D004_            12456                       PEND
 DROP   SETQWA,R6
 DROP   *,R7
                                   12481
                                   12482                       QLTORG
1QUERY    (QUER2193) (12:52) (15MAR04) SHOW QUERY Command                                                                   Page   22
0Current Usings:  (CP,R11) (CV,R12)
0Loc    Object Code    Addr1 Addr2  Stmt Lv Lineno    Source Statement           (Hibal 5, Asmedit 3.3)  HLASM R4.0  2004/03/15 12.52
+___    ______ ____    _____ _____  ____ __ ______    ______ _________
0                                  12537              ¿þþþþþþþþþþþþþþþþþþþþþþþþþþþþþþþþþþþþþþþþþþþþþþþþþþþþþþþþþþþþþþþþþþþþþÜ
                                   12538              Ÿ                                                                     Ÿ
                                   12539              Ÿ  SHOWQRY -- SHOW QUERY Command.                                     Ÿ
                                   12540              Ÿ                                                                     Ÿ
                                                      ¾þþþþþþþþþþþþþþþþþþþþþþþþþþþþþþþþþþþþþþþþþþþþþþþþþþþþþþþþþþþþþþþþþþþþþ»
0000000                00000 001D6 12541              SHOSWA   RECORD BEGIN
 000000 00                         12549  1           SHOSFLAG   FLAG
 SHOSFLAG.SHOSFDEB 80 ONES         12553  1                      FLAG  SHOSFDEBUG          - SHOW QUERY DEBUG
 SHOSFLAG.SHOSFTRA 40 ONES         12558  1                      FLAG  SHOSFTRACE          - SHOW QUERY TRACE
 SHOSFLAG.SHOSFALL 20 ONES         12563  1                      FLAG  SHOSFALL            - SHOW QUERY ALL
 SHOSFLAG.SHOSFSOM 10 ONES         12568  1                      FLAG  SHOSFSOME           - We found some servers
                                   12573  1
 000004                            12574  1           SHOSNO     DS    F                   Server number
                                   12575  1
 000008                            12576  1           SHOSMLEN   DS    H                   Match string length
 00000A                            12577  1           SHOSMAT    DS    CL(L'SVIBNAME)      String to match
                                   12578  1
 00002A                            12579  1           SHOSVIB    DS    XL(L'SVIB)          Working SVIB
 0001D6                001D6 001D6 12580                       END
                                   12589              þþþþ
 000EB0 50E0 D000/9008_      00000 12590              SHOWQRY  XPROC SHOSWA
 USING  *,R7
 USING  SHOSWA-(4+36),R8
 000ECA 4160 8028            00000 12641                       LA    R6,SHOSWA
 USING  SHOSWA,R6                  12642                       WITH  (SHOSWA,R6)
 000ECE D7FF 6000 6000_00000 00000 12655                       CLEAR SHOSWA
                                   12663                       ¿þþþþþþþþþþþþþþþþþþþþþþþþþþþþÜ
                                   12664                       Ÿ  Scan SHOW QUERY Options.  Ÿ
                                   12665                       ¾þþþþþþþþþþþþþþþþþþþþþþþþþþþþ»
 000EDA 5810 B08C/1B00_      0008C 12666                       SCAN  SHOSPRT
                                   12698                       ¿þþþþþþþþþþþþþþþþþþþþþþþþþþþÜ
                                   12699                       Ÿ  Show a specific server.  Ÿ
                                   12700                       ¾þþþþþþþþþþþþþþþþþþþþþþþþþþþ»
 000F2C 58F0 6004/12FF_      00004 12701                       IF    ('LT R15,SHOSNO',NZ),BEGIN   Show it...
 000F36 58E0 74CE/0DEE       01398 12717  1                      ACALL SERVGET             Get SVIB ptr
 000F3C 4780 7116            00FE0 12721  1                      IF    NZ,BEGIN
 000F40 185F                       12732  2                        LR    R5,R15              Save SVIB ptr
 USING  SVIB,R5                    12733  2                        WITH  (SVIB,R5)
                                   12746  2                        ¿þþþþþþþþþþþþþþþþþþþþþþþþþþþþþþþþþþþþþþþþþþþþþþþþþþþþþþþÜ
                                   12747  2                        Ÿ  Check authority if he wants to see the trace table.  Ÿ
                                   12748  2                        ¾þþþþþþþþþþþþþþþþþþþþþþþþþþþþþþþþþþþþþþþþþþþþþþþþþþþþþþþ»
 000F42 9140 6000/47E0_00000       12749  2                        IF    SHOSFTRACE,BEGIN    Trace option..
 000F4A 95C7 B3B7/4780_003B7       12764  3                          IF    (CPSGRP,NE,'G'),BEGIN  Disallow...
 000F52 D501 7504 B3B7_013CE 003B7 12781  4                            IF    (CPSGRP,EQ,'AN'),EXIT  Allow AN for now
 000F5C 4110 7510/4100_      013DA 12801  4                            ERROR 'TRACE option is privileged.'
 000F68                            12808  3                          END
 000F68                            12812  2                        END
                                   12816  2                        ¿þþþþþþþþþþþþþþþþþþþþþþþþþþþþþþþÜ
                                   12817  2                        Ÿ  Display server information.  Ÿ
                                   12818  2                        ¾þþþþþþþþþþþþþþþþþþþþþþþþþþþþþþþ»
 000F68 41F0 5000            00000 12819  2                        LA    R15,SVIB
 000F6C 58E0 74D2/0DEE       0139C 12820  2                        ACALL SERVDISP
1QUERY    (QUER2193) (12:52) (15MAR04) SHOW QUERY Command                                                                   Page   23
0Current Usings:  (SVIB,R5) (SHOSWA,R6) (*,R7) (SHOSWA-(4+36),R8) (CP,R11) (CV,R12)
0Loc    Object Code    Addr1 Addr2  Stmt Lv Lineno    Source Statement           (Hibal 5, Asmedit 3.3)  HLASM R4.0  2004/03/15 12.52
+___    ______ ____    _____ _____  ____ __ ______    ______ _________
0                                  12824  2                        ¿þþþþþþþþþþþþþþþþþþþþþþþþþþþþþþÜ
                                   12825  2                        Ÿ  Add debugging information.  Ÿ
                                   12826  2                        ¾þþþþþþþþþþþþþþþþþþþþþþþþþþþþþþ»
 000F72 9180 6000/47E0_00000       12827  2                        IF    SHOSFDEBUG,BEGIN    Debugging information...
 000F7A 4110 74D6/4100_      013A0 12842  3                          TSEG  'Debug info: SVIB at '
 000F8C 4110 5000/4100_      00000 12860  3                          THEX  LA:SVIB,8
 000F9E 4110 7506/4100_      013D0 12885  3                          TSEG  ', UNET at '
 000FB0 5810 518C/4100_      0018C 12903  3                          THEX  L:SVIBUNET,8
 000FC2 1B00/41F0 B050_            12928  3                          TCR
 000FCE                            12953  2                        END
                                   12957  2                        ¿þþþþþþþþþþþþþþþþþþþþþþþþÜ
                                   12958  2                        Ÿ  Display trace table.  Ÿ
                                   12959  2                        ¾þþþþþþþþþþþþþþþþþþþþþþþþ»
 000FCE 9140 6000/47E0_00000       12960  2                        IF    SHOSFTRACE,BEGIN    TRACE...
 000FD6 41F0 5000            00000 12975  3                          LA    R15,SVIB
 000FDA 58E0 74F6/0DEE       013C0 12976  3                          ACALL SERVDTRC            Display trace table
 000FE0                            12980  2                        END
 DROP   SVIB,R5                    12984  1                      END
                                   12993  1
 000FE0 711A/47F0 714E 00FE0 00F3E 12994  1                      ELSE  BEGIN               No such server...
 000FE4 4110 752B/4100_      013F5 13005  2                        TSEG  'Server '
 000FF6 5810 6004/1B00_      00004 13023  2                        TNUM  L:SHOSNO
 001006 4110 74B6/4100_      01380 13045  2                        TSEG  ' does not exist.'
 001018                            13063  1                      END
                                   13067  1
 001018 47F0 C7DE            007DE 13068  1                      B     CVNEXT
 00101C                            13069                       END
                                   13073                       ¿þþþþþþþþþþþþþþþþþþþþþþÜ
                                   13074                       Ÿ  Show user servers.  Ÿ
                                   13075                       ¾þþþþþþþþþþþþþþþþþþþþþþ»
 00101C 5800 C21C            0021C 13076                       L     R0,CVUSTAB          Start of SVIT
 001020 5810 C220            00220 13077                       L     R1,CVUSENDP         End of SVIT
 001024 4DE0 73BA            01284 13078                       LCALL DISPSVIT            Show user servers
                                   13080                       ¿þþþþþþþþþþþþþþþþþþþþþþþþÜ
                                   13081                       Ÿ  Show public servers.  Ÿ
                                   13082                       ¾þþþþþþþþþþþþþþþþþþþþþþþþ»
 001028 5800 C210            00210 13083                       L     R0,CVPSTAB          Start of SVIT
 00102C 5810 C214            00214 13084                       L     R1,CVPSENDP         End of SVIT
 001030 4DE0 73BA            01284 13085                       LCALL DISPSVIT            Show user servers
                                   13087
 001034 9110 6000/4710_00000       13088                       IF    ~SHOSFSOME,BEGIN    Nada...
 00103C 4110 7532/4100_      013FC 13103  1                      TSEG  'No query servers.'
 00104E                            13121                       END
                                   13125
 00104E 47F0 C7DE            007DE 13126                       B     CVNEXT
 001052 18D8/9808 D004_            13127                       PEND
 DROP   SHOSWA,R6
 DROP   SHOSWA-(4+36),R8
 DROP   *,R7
1QUERY    (QUER2193) (12:52) (15MAR04) SHOW QUERY Command                                                                   Page   24
0Current Usings:  (CP,R11) (CV,R12)
0Loc    Object Code    Addr1 Addr2  Stmt Lv Lineno    Source Statement           (Hibal 5, Asmedit 3.3)  HLASM R4.0  2004/03/15 12.52
+___    ______ ____    _____ _____  ____ __ ______    ______ _________
0                                  13158                       ¿þþþþþþþþþþþþþþþþþþþþþþþÜ
                                   13159                       Ÿ  SHOW QUERY Options.  Ÿ
                                   13160                       ¾þþþþþþþþþþþþþþþþþþþþþþþ»
 001060 D3C9D2C540404040_          13161              SHOSPRT  SCKW  LIKE,SHSLIKE,(A,P)
 001088 C4C5C2E4C7404040_          13176                       SCKW  DEBUG,SHSDEBUG,A
 0010B0 E3D9C1C3C5404040_          13191                       SCKW  TRACE,SHSTRACE,A
 0010D8 C1D3D34040404040_          13206                       SCKW  ALL,SHSALL,A
 001100 4040404040404040_          13221                       SCKW  ,SHSNUM,PI
 001128 4040404040404040_          13236                       SCKW  ,V(COLLPSH),PUSH
 001150 4040404040404040_          13251                       SCKW  ,V(SCNINVAL)
                                   13266              þþþþ
 001178 50E0 D000/9008_      00000 13267              SHSDEBUG PROC
 USING  *,R7
 USING  SHOSWA,R6                  13306                       WITH  (SHOSWA,R6)
 001192 9680 6000      00000       13319                       SET   SHOSFDEBUG
 001196 18D8/9808 D004_            13325                       PEND
 DROP   SHOSWA,R6
 DROP   *,R7
                                   13350
 0011A4 50E0 D000/9008_      00000 13351              SHSTRACE PROC
 USING  *,R7
 USING  SHOSWA,R6                  13390                       WITH  (SHOSWA,R6)
 0011BE 9640 6000      00000       13403                       SET   SHOSFTRACE
 0011C2 18D8/9808 D004_            13409                       PEND
 DROP   SHOSWA,R6
 DROP   *,R7
                                   13434
 0011D0 50E0 D000/9008_      00000 13435              SHSALL   PROC
 USING  *,R7
 USING  SHOSWA,R6                  13474                       WITH  (SHOSWA,R6)
 0011EA 9620 6000      00000       13487                       SET   SHOSFALL
 0011EE 18D8/9808 D004_            13493                       PEND
 DROP   SHOSWA,R6
 DROP   *,R7
                                   13518
 0011FC 50E0 D000/9008_      00000 13519              SHSLIKE  PROC
 USING  *,R7
 USING  SHOSWA,R6                  13558                       WITH  (SHOSWA,R6)
 001216 D21F 600A C4D8 0000A 004D8 13571                       MVC   SHOSMAT,CVBLANKS
 00121C 18F0                       13572                       LR    R15,R0
 00121E 59F0 71B2/47D0_      013C8 13573                       CEIL  R15,L'SHOSMAT
 00122A 40F0 6008            00008 13592                       STH   R15,SHOSMLEN
 00122E 06F0/12FF/4740_            13593                       MOVE  R15,SHOSMAT,@R1
 00123A 5820 C8A8            008A8 13631                       L     R2,CVUPPTBL
 00123E 12FF/4740 7032_            13632                       TEX   R15,'TR SHOSMAT,@R2'  Force caps
 001248 1BFF                       13667                       CLEAR R15
 00124A 18D8/9808 D004_            13671                       PEND
 DROP   SHOSWA,R6
 DROP   *,R7
                                   13696
 001258 50E0 D000/9008_      00000 13697              SHSNUM   PROC
 USING  *,R7
 USING  SHOSWA,R6                  13736                       WITH  (SHOSWA,R6)
 001272 5000 6004            00004 13749                       ST    R0,SHOSNO           Save server number
1QUERY    (QUER2193) (12:52) (15MAR04) SHOW QUERY Command                                                                   Page   25
0Current Usings:  (CP,R11) (CV,R12)
0Loc    Object Code    Addr1 Addr2  Stmt Lv Lineno    Source Statement           (Hibal 5, Asmedit 3.3)  HLASM R4.0  2004/03/15 12.52
+___    ______ ____    _____ _____  ____ __ ______    ______ _________
0001276 18D8/9808 D004_            13750                       PEND
 DROP   SHOSWA,R6
 DROP   *,R7
1QUERY    (QUER2193) (12:52) (15MAR04) SHOW QUERY Command                                                                   Page   26
0Current Usings:  (CP,R11) (CV,R12)
0Loc    Object Code    Addr1 Addr2  Stmt Lv Lineno    Source Statement           (Hibal 5, Asmedit 3.3)  HLASM R4.0  2004/03/15 12.52
+___    ______ ____    _____ _____  ____ __ ______    ______ _________
0                                  13776              ¿þþþþþþþþþþþþþþþþþþþþþþþþþþþþþþþþþþþþþþþþþþþþþþþþþþþþþþþþþþþþþþþþþþþþþÜ
                                   13777              Ÿ                                                                     Ÿ
                                   13778              Ÿ  DISPSVIT -- Local routine to display server information.           Ÿ
                                   13779              Ÿ                                                                     Ÿ
                                   13780              Ÿ    On entry:                                                        Ÿ
                                   13781              Ÿ      R0 - SVIT ptr                                                  Ÿ
                                   13782              Ÿ      R1 - END of SVIT ptr                                           Ÿ
                                   13783              Ÿ      R6 - SHOSWA ptr (for SHOW QUERY formatting options)            Ÿ
                                   13784              Ÿ                                                                     Ÿ
                                                      ¾þþþþþþþþþþþþþþþþþþþþþþþþþþþþþþþþþþþþþþþþþþþþþþþþþþþþþþþþþþþþþþþþþþþþþ»
0000000                00000 001C0 13785              DSWA     RECORD BEGIN
 000000                            13793  1           DSSVITP    DS    F                   Start of SVIT ptr
 000004                            13794  1           DSENDP     DS    F                   End of SVIT ptr
                                   13795  1
 000008                            13796  1           DSSERV     DS    CL(L'SVIB)          Server record
                                   13797  1
 0001B8                            13798  1           DSCLCK     DS    D                   Working clock
 0001C0                001C0 001C0 13799                       END
                                   13808              þþþþ
 001284 50E0 D000/9008_      00000 13809              DISPSVIT PROC  DSWA
 USING  *,R7
 USING  DSWA-(4+36),R8
 00129E D7FF 8028 8028_00000 00000 13859                       CLEAR DSWA
                                   13867
 USING  SHOSWA,R6                  13868                       WITH  (SHOSWA,R6)
                                   13881
 0012AA 5000 8028            00000 13882                       ST    R0,DSSVITP          Start of SVIT ptr
 0012AE 5010 802C            00004 13883                       ST    R1,DSENDP           End of SVIT ptr
                                   13884
 0012B2 5850 8028/1255       00000 13885                       LT    R5,DSSVITP          SVIT ptr
 0012B8 4780 70D2            01370 13889                       IF    Z,EXIT              No servers at all, scram
                                   13903                       ¿þþþþþþþþþþþþþþþþþþþþþþþþþþþþþþþþþþþþþþþþþþþþþþþþþþþþþþþÜ
                                   13904                       Ÿ  Go through server table and display active entries.  Ÿ
                                   13905                       ¾þþþþþþþþþþþþþþþþþþþþþþþþþþþþþþþþþþþþþþþþþþþþþþþþþþþþþþþ»
 0012BC 5950 802C/47B0_      00004 13906                       WHILE (R5,LT,DSENDP),BEGIN  Go through servers...
 0012C4 5840 5000/1244_      00000 13925  1                      IF    ('LT R4,@R5',NZ),BEGIN  Active server...
 USING  SVIB,R4                    13941  2                        WITH  (SVIB,R4)
                                   13954  2                        ¿þþþþþþþþþþþþþþþþþþþþþþþþþþþþþþþþþþþþþþþþþþþþþþþþþþþþþþþþÜ
                                   13955  2                        Ÿ  Only display private server we created unless ALL is  Ÿ
                                   13956  2                        Ÿ    specified.                                          Ÿ
                                   13957  2                        ¾þþþþþþþþþþþþþþþþþþþþþþþþþþþþþþþþþþþþþþþþþþþþþþþþþþþþþþþþ»
 0012CE D603 4168 4168_00168 00168 13958  2                        IF    (SVIBCRJCB,NZ),BEGIN  Private server...
 0012D8 D503 4168 C1C8_00168 001C8 13974  3                          IF    (SVIBCRJCB,EQ,CVCURJCB),EXIT  Ours, fine
 0012E2 9120 6000/47E0_00000       13995  3                          IF    ~SHOSFALL,DSVNEXT   Skip this one
 0012EA                            14013  2                        END
                                   14017  2                        ¿þþþþþþþþþþþþþþþþþþþþþþþþþþþþþþþÜ
                                   14018  2                        Ÿ  Display server information.  Ÿ
                                   14019  2                        ¾þþþþþþþþþþþþþþþþþþþþþþþþþþþþþþþ»
 0012EA 41F0 4000            00000 14020  2                        LA    R15,SVIB
 0012EE 58E0 70FE/0DEE       0139C 14021  2                        ACALL SERVDISP
1QUERY    (QUER2193) (12:52) (15MAR04) SHOW QUERY Command                                                                   Page   27
0Current Usings:  (SVIB,R4) (SHOSWA,R6) (*,R7) (DSWA-(4+36),R8) (CP,R11) (CV,R12)
0Loc    Object Code    Addr1 Addr2  Stmt Lv Lineno    Source Statement           (Hibal 5, Asmedit 3.3)  HLASM R4.0  2004/03/15 12.52
+___    ______ ____    _____ _____  ____ __ ______    ______ _________
0                                  14025  2                        ¿þþþþþþþþþþþþþþþþþþþþþþþþþþþþþþÜ
                                   14026  2                        Ÿ  Add debugging information.  Ÿ
                                   14027  2                        ¾þþþþþþþþþþþþþþþþþþþþþþþþþþþþþþ»
 0012F4 9180 6000/47E0_00000       14028  2                        IF    SHOSFDEBUG,BEGIN    Debugging information...
 0012FC 4110 7102/4100_      013A0 14043  3                          TSEG  'Debug info: SVIB at '
 00130E 4110 4000/4100_      00000 14061  3                          THEX  LA:SVIB,8
 001320 4110 7132/4100_      013D0 14086  3                          TSEG  ', UNET at '
 001332 5810 418C/4100_      0018C 14104  3                          THEX  L:SVIBUNET,8
 001344 1B00/41F0 B050_            14129  3                          TCR
 001350                            14154  2                        END
                                   14158  2                        ¿þþþþþþþþþþþþþþþþþþþþþþþþÜ
                                   14159  2                        Ÿ  Display trace table.  Ÿ
                                   14160  2                        ¾þþþþþþþþþþþþþþþþþþþþþþþþ»
 001350 9140 6000/47E0_00000       14161  2                        IF    SHOSFTRACE,BEGIN    TRACE...
 001358 41F0 4000            00000 14176  3                          LA    R15,SVIB
 00135C 58E0 7122/0DEE       013C0 14177  3                          ACALL SERVDTRC            Display trace table
 001362                            14181  2                        END
                                   14185  2
 001362 9610 6000      00000       14186  2                        SET   SHOSFSOME           We displayed something
 DROP   SVIB,R4                    14192  1                      END
                                   14201  1
 001366 4150 5004            00004 14202  1           DSVNEXT    LA    R5,@R5+4            Next SVIT entry
 00136A 47F0 701E            012BC 14203                       END
                                   14208
 00136E 1BFF                       14209                       CLEAR R15
 001370 18D8/9808 D004_            14213                       PEND
 DROP   SHOSWA,R6
 DROP   DSWA-(4+36),R8
 DROP   *,R7
                                   14243
                                   14244                       QLTORG
1QUERY    (QUER2193) (12:52) (15MAR04) QUERY Command                                                                        Page   28
0Current Usings:  (CP,R11) (CV,R12)
0Loc    Object Code    Addr1 Addr2  Stmt Lv Lineno    Source Statement           (Hibal 5, Asmedit 3.3)  HLASM R4.0  2004/03/15 12.52
+___    ______ ____    _____ _____  ____ __ ______    ______ _________
0                                  14275              ¿þþþþþþþþþþþþþþþþþþþþþþþþþþþþþþþþþþþþþþþþþþþþþþþþþþþþþþþþþþþþþþþþþþþþþÜ
                                   14276              Ÿ                                                                     Ÿ
                                   14277              Ÿ  QUERY -- QUERY Command.                                            Ÿ
                                   14278              Ÿ                                                                     Ÿ
                                                      ¾þþþþþþþþþþþþþþþþþþþþþþþþþþþþþþþþþþþþþþþþþþþþþþþþþþþþþþþþþþþþþþþþþþþþþ»
0000000                00000 001BC 14279              QWA      RECORD BEGIN
 000000                            14287  1           QTOKPTR    DS    2A                  QUERY token ptrs
                                   14288  1
 000008 00                         14289  1           QFLAG      FLAG
 QFLAG.QFOPEN      80 ONES         14293  1                      FLAG  QFOPEN              - Network connection is open
 QFLAG.QFABORT     40 ONES         14298  1                      FLAG  QFABORT             - ABORT sent
 QFLAG.QFENDTAB    20 ONES         14303  1                      FLAG  QFENDTAB            - End of table reached
                                   14308  1
 00000C                            14309  1           QUSG       DS    A                   Network output SEGCB ptr
                                   14310  1
 000010                            14311  1           QSVIB      DS    XL(L'SVIB)          Server information
 0001BC                001BC 001BC 14312                       END
                                   14321              þþþþ
 00141A 50E0 D000/9008_      00000 14322              QUERY    XPROC QWA
 USING  *,R7
 USING  QWA-(4+36),R8
 001434 D7FF 8028 8028_00000 00000 14373                       CLEAR QWA
 001440 9001 8028            00000 14381                       STM   R0,R1,QTOKPTR       Save scanned token loc, len
                                   14382
 001444 4150 8038            00010 14383                       LA    R5,QSVIB
 USING  SVIB,R5                    14384                       WITH  (SVIB,R5)
                                   14397                       ¿þþþþþþþþþþþþþþþþþþþþþþþþþÜ
                                   14398                       Ÿ  Scan for server name.  Ÿ
                                   14399                       ¾þþþþþþþþþþþþþþþþþþþþþþþþþ»
 001448 5810 B08C/1B00_      0008C 14400                       SCAN
 001496 58E0 7510/0DEE       01944 14431                       SCANCHK
 00149C 1200/4770 70C2             14436                       IF    (R0,Z),BEGIN        No options...
                                   14450  1                      ¿þþþþþþþþþþþþþþþþþþþþþþþþþþþþþþþþþþþþþþþþþþþþþþþþþþþþþþþþþþþþÜ
                                   14451  1                      Ÿ  This special hack is to try and give a message which      Ÿ
                                   14452  1                      Ÿ    isn't too confusing when the user accidently types "Q"  Ÿ
                                   14453  1                      Ÿ    with no other options as a command.                     Ÿ
                                   14454  1                      ¾þþþþþþþþþþþþþþþþþþþþþþþþþþþþþþþþþþþþþþþþþþþþþþþþþþþþþþþþþþþþ»
 0014A2 9801 8028            00000 14455  1                      LM    R0,R1,QTOKPTR       Pick up original verb
 0014A6 5900 7514/4770_      01948 14456  1                      IF    (R0,EQ,1),BEGIN     One character verb ("Q" form)...
 0014AE 41F0 B050/58E0_      00050 14473  2                        TSEG  (R1),(R0)
 0014B8 4110 75D4/4100_      01A08 14497  2                        TSEG  ': unrecognized command '
 0014CA 4110 7582/4100_      019B6 14515  2                        TSEG  '(or QUERY command with a missing server name).'
 0014DC                            14533  1                      END
                                   14537  1
 0014DC 70AC/47F0 70BE_014DC 014AC 14538  1                      ELSE  'TSEG "Missing server name on the QUERY command."'
                                   14572  1
 0014F2 47F0 C7D6            007D6 14573  1                      ERROR
 0014F6                            14576                       END
                                   14580
 0014F6 41F0 5000            00000 14581                       LA    R15,SVIB
 0014FA 58E0 751C/0DEE       01950 14582                       ACALL SERVSETPROTO        Set server name
1QUERY    (QUER2193) (12:52) (15MAR04) QUERY Command                                                                        Page   29
0Current Usings:  (SVIB,R5) (*,R7) (QWA-(4+36),R8) (CP,R11) (CV,R12)
0Loc    Object Code    Addr1 Addr2  Stmt Lv Lineno    Source Statement           (Hibal 5, Asmedit 3.3)  HLASM R4.0  2004/03/15 12.52
+___    ______ ____    _____ _____  ____ __ ______    ______ _________
0                                  14586                       ¿þþþþþþþþþþþþþþþþþþþþþþþþþþþþþþþþþþþþþþþþþþþþþþþþþþþþþþþþþþþþþþÜ
                                   14587                       Ÿ  If server number was specified then we are sending a query  Ÿ
                                   14588                       Ÿ    to a server which we have previously opened.              Ÿ
                                   14589                       ¾þþþþþþþþþþþþþþþþþþþþþþþþþþþþþþþþþþþþþþþþþþþþþþþþþþþþþþþþþþþþþþ»
 001500 D61F 5008 5008_00008 00008 14590                       IF    (SVIBNAME,Z),BEGIN  No server name specified...
 00150A 58F0 5004            00004 14606  1                      L     R15,SVIBNO          Server number
 00150E 58E0 7520/0DEE       01954 14607  1                      ACALL SERVGET             Get SVIB ptr
 001514 4770 7112            01546 14611  1                      IF    Z,BEGIN             No such server...
 001518 4110 7614/4100_      01A48 14622  2                        TSEG  'Server '
 00152A 5810 5004/1B00_      00004 14640  2                        TNUM  L:SVIBNO
 00153A 4110 7494/4100_      018C8 14662  2                        ERROR ' does not exist.'
 001546                            14669  1                      END
                                   14673  1
 001546 185F                       14674  1                      LR    R5,R15              SVIB ptr
                                   14675  1                      ¿þþþþþþþþþþþþþþþþþþþþþþþþþþþþþþþþþþþþþþþþþþþþþþþþÜ
                                   14676  1                      Ÿ  Make sure server has previously been opened.  Ÿ
                                   14677  1                      ¾þþþþþþþþþþþþþþþþþþþþþþþþþþþþþþþþþþþþþþþþþþþþþþþþ»
 001548 9504 5048/4780_00048       14678  1                      IF    ~SVIB#BUSY,BEGIN    Error of some sort...
 001550 D603 5168 5168_00168 00168 14693  2                        IF    ((SVIBCRJCB,NZ),AND,(SVIBCRJCB,NE,CVCURJCB)),BEGIN
 001564 4110 7614/4100_      01A48 14726  3                          TSEG  'Server '
 001576 41F0 5000            00000 14744  3                          LA    R15,SVIB
 00157A 58E0 7528/0DEE       0195C 14745  3                          ACALL SERVSEGN
 001580 4110 75B0/4100_      019E4 14749  3                          ERROR ' is not yours.'
 00158C                            14756  2                        END
                                   14760  2
 00158C 9501 5048/4770_00048       14761  2                        IF    SVIB#MASTER,BEGIN   Prototype definition...
 001594 4110 7614/4100_      01A48 14776  3                          TSEG  'Server '
 0015A6 41F0 5000            00000 14794  3                          LA    R15,SVIB
 0015AA 58E0 7528/0DEE       0195C 14795  3                          ACALL SERVSEGN
 0015B0 4110 761B/4100_      01A4F 14799  3                          ERROR ' is a definition, not a server.'
 0015BC                            14806  2                        END
                                   14810  2
 0015BC 4110 7614/4100_      01A48 14811  2                        TSEG  'Server '
 0015CE 41F0 5000            00000 14829  2                        LA    R15,SVIB
 0015D2 58E0 7528/0DEE       0195C 14830  2                        ACALL SERVSEGN
 0015D8 4110 74A4/4100_      018D8 14834  2                        ERROR ' has not been previously opened.'
 0015E4                            14841  1                      END
                                   14845  1                      ¿þþþþþþþþþþþþþþþþþþþþþþþþþþþþþþþþþþþþþþþþþþþþþþþþþþþþþþþþþþþþþÜ
                                   14846  1                      Ÿ  Make sure server is connected to us and not someone else.  Ÿ
                                   14847  1                      ¾þþþþþþþþþþþþþþþþþþþþþþþþþþþþþþþþþþþþþþþþþþþþþþþþþþþþþþþþþþþþþ»
 0015E4 D503 5188 C1C8_00188 001C8 14848  1                      IF    (SVIBJCBP,NE,CVCURJCB),BEGIN  Not our server...
 0015EE 4110 7614/4100_      01A48 14866  2                        TSEG  'Server '
 001600 41F0 5000            00000 14884  2                        LA    R15,SVIB
 001604 58E0 7528/0DEE       0195C 14885  2                        ACALL SERVSEGN
 00160A 4110 763A/4100_      01A6E 14889  2                        TSEG  ' is already busy with line '
 00161C 5820 5188            00188 14907  2                        L     R2,SVIBJCBP
 USING  JCB,R2                     14908  2                        WITH  (JCB,R2)
 001620 4810 2048/1B00_      00048 14921  2                        TNUM  LH:JCBSEQ
 001630 4110 7655/4100_      01A89 14942  2                        TSEG  ' '
 001642 4110 204D/4100_      0004D 14960  2                        TSEG  JCBGRP
 001654 4110 7656/4100_      01A8A 14988  2                        TSEG  '.'
 001666 4110 204A/4100_      0004A 15006  2                        TSEG  JCBUSER
 001678 4110 7656/4100_      01A8A 15034  2                        ERROR '.'
 DROP   JCB,R2                     15041  1                      END
1QUERY    (QUER2193) (12:52) (15MAR04) QUERY Command                                                                        Page   30
0Current Usings:  (SVIB,R5) (*,R7) (QWA-(4+36),R8) (CP,R11) (CV,R12)
0Loc    Object Code    Addr1 Addr2  Stmt Lv Lineno    Source Statement           (Hibal 5, Asmedit 3.3)  HLASM R4.0  2004/03/15 12.52
+___    ______ ____    _____ _____  ____ __ ______    ______ _________
0001684                            15050                       END
                                   15054                       ¿þþþþþþþþþþþþþþþþþþþþþþþþþþþþþþþþþþþþþþþþþþþþþþþþþþþþþþþþþþÜ
                                   15055                       Ÿ  If a server name was given then open the connection     Ÿ
                                   15056                       Ÿ    and set a flag so we will close it when we are done.  Ÿ
                                   15057                       ¾þþþþþþþþþþþþþþþþþþþþþþþþþþþþþþþþþþþþþþþþþþþþþþþþþþþþþþþþþþ»
 001684 7254/47F0 72D2 01684 01508 15058                       ELSE  BEGIN               Server name specified...
 001688 4110 5000            00000 15069  1                      LA    R1,SVIB             SVIBNAME or SVIBNO filled in
 00168C 58E0 752C/0DEE       01960 15070  1                      ACALL SERVOPEN            Open user server
 001692 4780 72CC            01700 15074  1                      IF    NZ,BEGIN            Can't open...
 001696 4740 734A            0177E 15085  2                        BM    QNETERR             Network error, scram
 00169A 59F0 7514/4780_      01948 15086  2                        IF    (R15,EQ,1),QERRSEG  Query error, call it quits
                                   15106  2
 0016A2 58F0 5004/12FF_      00004 15107  2                        IF    ('LT R15,SVIBNO',NZ),'TNUM (R15)'
 0016BA 728A/47F0 729C_016BA 016AA 15150  2                        ELSE  'TSEG SVIBNAME,,T'
 0016D0 4110 7657/4100_      01A8B 15194  2                        TSEG  ' is an unknown server'
 0016E2 4110 766C/4100_      01AA0 15212  2                        TSEG  ' (type SHOW QUERY for a'
 0016F4 4110 75BE/4100_      019F2 15230  2                        ERROR ' list of servers).'
 001700                            15237  1                      END
                                   15241  1
 001700 9680 8030      00008       15242  1                      SET   QFOPEN              Connection is now open
 001704 1851                       15248  1                      LR    R5,R1               Set our SVIB ptr
 001706                            15249                       END
                                   15253                       ¿þþþþþþþþþþþþþþþþþþþþþþþþþþþþþþþþþþþþþþþþþþþþþþþþþþþþþþÜ
                                   15254                       Ÿ  Connection to a query server has been established,  Ÿ
                                   15255                       Ÿ    now send the command and fetch the responses.     Ÿ
                                   15256                       ¾þþþþþþþþþþþþþþþþþþþþþþþþþþþþþþþþþþþþþþþþþþþþþþþþþþþþþþ»
 001706 9200 504B      0004B       15257                       CLEAR SVIBLOCALF
                                   15264
 00170A 58E0 B08C/581E_      0008C 15265                       SCINFO
 001718 58E0 7534/0DEE       01968 15274                       VCALL LRTRIM
 00171E 41F0 5000            00000 15278                       LA    R15,SVIB
 001722 58E0 7538/0DEE       0196C 15279                       ACALL SERVCMDL            Send command
 001728 4770 734A            0177E 15283                       BNZ   QNETERR             Trouble, scram
                                   15284
 00172C 9680 504B      0004B       15285                       SET   SVIBFBUFFER         Buffer responses
                                   15291                       ¿þþþþþþþþþþþþþþþþþþþþþþþþþþþþþþþþþþþþþþþþþþþþþþþþþþÜ
                                   15292                       Ÿ  Process responses and format them as table(s).  Ÿ
                                   15293                       ¾þþþþþþþþþþþþþþþþþþþþþþþþþþþþþþþþþþþþþþþþþþþþþþþþþþ»
 001730                            15294                       LOOP  BEGIN
 001730 41F0 5000            00000 15300  1                      LA    R15,SVIB
 001734 58E0 753C/0DEE       01970 15301  1                      ACALL SERVGETL            Get first/next response line
 00173A 4770 734A            0177E 15305  1                      BNZ   QNETERR             Trouble, scram
                                   15306  1
 00173E 41F0 5000            00000 15307  1                      LA    R15,SVIB
                                   15308  1                      SETMSG (R1),(R0)
 001742 4120 B050            00050 15318  1                      LA    R2,CPSEG
 001746 58E0 7540/0DEE       01974 15319  1                      ACALL SERVFMTL            Format response line
                                   15323  1
 00174C 95F2 1000/4780_00000       15324  1                      IF    (@R1,EQ,'2'),EXIT   Normal completion
 001754 95F4 1000/4780_00000       15343  1                      IF    (@R1,EQ,'4'),EXIT   Error completion
 00175C 95F5 1000/4780_00000       15362  1                      IF    (@R1,EQ,'5'),EXIT   Error completion
 001764 47F0 72FC            01730 15381                       END
1QUERY    (QUER2193) (12:52) (15MAR04) QUERY Command                                                                        Page   31
0Current Usings:  (SVIB,R5) (*,R7) (QWA-(4+36),R8) (CP,R11) (CV,R12)
0Loc    Object Code    Addr1 Addr2  Stmt Lv Lineno    Source Statement           (Hibal 5, Asmedit 3.3)  HLASM R4.0  2004/03/15 12.52
+___    ______ ____    _____ _____  ____ __ ______    ______ _________
0                                  15386                       ¿þþþþþþþþþþþþþþþþþþþþþþþþþþþþÜ
                                   15387                       Ÿ  Close server connection.  Ÿ
                                   15388                       ¾þþþþþþþþþþþþþþþþþþþþþþþþþþþþ»
 001768 9180 8030/47E0_00008       15389                       IF    QFOPEN,BEGIN        If we opened connection...
 001770 58F0 5004            00004 15404  1                      L     R15,SVIBNO          Server number
 001774 58E0 7544/0DEE       01978 15405  1                      ACALL SERVCLS             Close connection
 00177A                            15409                       END
                                   15413
 00177A 47F0 C7DE            007DE 15414                       B     CVNEXT
                                   15415                       ¿þþþþþþþþþþþþþþþþþþþÜ
                                   15416                       Ÿ  Error handling.  Ÿ
                                   15417                       ¾þþþþþþþþþþþþþþþþþþþ»
 00177E D504 7683 1000_01AB7 00000 15418              QNETERR  IF    (@R1,EQ,'RESET'),BEGIN
 001788 4110 7614/4100_      01A48 15435  1                      TSEG  'Server '
 00179A 41F0 5000            00000 15453  1                      LA    R15,SVIB
 00179E 58E0 7528/0DEE       0195C 15454  1                      ACALL SERVSEGN
 0017A4 4110 7688/4100_      01ABC 15458  1                      TSEG  ' is not currently accepting requests.',,CR
 0017B6 47F0 7452            01886 15476  1                      B     QERR
 0017BA                            15477                       END
                                   15481
 0017BA D506 76AD 1000_01AE1 00000 15482                       IF    (@R1,EQ,'TIMEOUT'),BEGIN
 0017C4 4110 74C4/4100_      018F8 15498  1                      TSEG  'No response from server '
 0017D6 4110 5008/4100_      00008 15516  1                      TSEG  SVIBNAME,,T
 0017E8 4110 7656/4100_      01A8A 15544  1                      TSEG  '.',,CR
 0017FA 47F0 7452            01886 15562  1                      B     QERR
 0017FE                            15563                       END
                                   15567
 0017FE 9001 D000/41D0_      00000 15568                       XPUSH R0,R1
 001806 4110 74DC/4100_      01910 15571                       TSEG  'Can''t connect to server '
 001818 41F0 5000            00000 15589                       LA    R15,SVIB
 00181C 58E0 7528/0DEE       0195C 15590                       ACALL SERVSEGN
 001822 4110 75D0/4100_      01A04 15594                       TSEG  ': '
 001834 4BD0 75D2/9801_      01A06 15612                       XPOP  R0,R1
 00183C 41F0 B050/58E0_      00050 15615                       TSEG  (R1),(R0),,CR       Reason
 001846 47F0 7452            01886 15639                       B     QERR
                                   15640
 00184A 9001 D000/41D0_      00000 15641              QERRSEG  XPUSH R0,R1
 001852 4110 74F4/4100_      01928 15644                       TSEG  'Query error completion: '
 001864 4BD0 75D2/9801_      01A06 15662                       XPOP  R0,R1
 00186C 9001 D000/41D0_      00000 15665                       XPUSH R0,R1
 001874 41F0 B050/58E0_      00050 15668                       TSEG  (R1),(R0),CR        Write out error message
 00187E 4BD0 75D2/9801_      01A06 15692                       XPOP  R0,R1
                                   15695
 001886 9505 B38C/4770_0038C       15696              QERR     IF    CPSTVIRT,BEGIN      Be persistent if virtual term...
 00188E 4110 754C/4100_      01980 15712  1                      TSEG  '(Will retry server operation in 30 seconds.)',,WR
 0018A0 4770 C7DA            007DA 15730  1                      BNZ   CVABORT
                                   15731  1
 0018A4 41F0 0BB8            00BB8 15732  1                      LA    R15,30*100
 0018A8 58E0 757C/0DEE       019B0 15733  1                      VCALL WAITER              Wait for 30 seconds
 0018AE 47F0 C7DA            007DA 15737  1                      B     CVABORT             ???????
                                   15738  1           *******  B     ???????
 0018B2                            15739                       END
 0018B2 47F0 C7DA            007DA 15743                       B     CVABORT
                                   15744
1QUERY    (QUER2193) (12:52) (15MAR04) QUERY Command                                                                        Page   32
0Current Usings:  (CP,R11) (CV,R12)
0Loc    Object Code    Addr1 Addr2  Stmt Lv Lineno    Source Statement           (Hibal 5, Asmedit 3.3)  HLASM R4.0  2004/03/15 12.52
+___    ______ ____    _____ _____  ____ __ ______    ______ _________
00018B6 18D8/9808 D004_            15745                       PEND
 DROP   SVIB,R5
 DROP   QWA-(4+36),R8
 DROP   *,R7
                                   15775
                                   15776                       QLTORG
                                   15830
                                   15831                       SEGDEF DUMMY
1QUERY    (QUER2193) (12:52) (15MAR04) QUERY Function                                                                       Page   33
0Current Usings:  (CP,R11) (CV,R12)
0Loc    Object Code    Addr1 Addr2  Stmt Lv Lineno    Source Statement           (Hibal 5, Asmedit 3.3)  HLASM R4.0  2004/03/15 12.52
+___    ______ ____    _____ _____  ____ __ ______    ______ _________
0                                  15833              ¿þþþþþþþþþþþþþþþþþþþþþþþþþþþþþþþþþþþþþþþþþþþþþþþþþþþþþþþþþþþþþþþþþþþþþÜ
                                   15834              Ÿ                                                                     Ÿ
                                   15835              Ÿ  QUERYFC -- QUERY function call.  This is called by the QUERY       Ÿ
                                   15836              Ÿ    function; so execute a simple query on the server specified.     Ÿ
                                   15837              Ÿ    All errors should be returned to the caller.                     Ÿ
                                   15838              Ÿ                                                                     Ÿ
                                   15839              Ÿ    On entry:                                                        Ÿ
                                   15840              Ÿ      R1,R0 - command text (loc, len)                                Ÿ
                                   15841              Ÿ      R3,R2 - server name (loc, len)                                 Ÿ
                                   15842              Ÿ      R5,R4 - response buffer area                                   Ÿ
                                   15843              Ÿ                                                                     Ÿ
                                   15844              Ÿ    On exit, R15 (and cc):                                           Ÿ
                                   15845              Ÿ      0 - ok;    R1,R0 = first data line loc, len                    Ÿ
                                   15846              Ÿ      nz- error; R1,R0 = error message loc, len                      Ÿ
                                   15847              Ÿ                                                                     Ÿ
                                                      ¾þþþþþþþþþþþþþþþþþþþþþþþþþþþþþþþþþþþþþþþþþþþþþþþþþþþþþþþþþþþþþþþþþþþþþ»
0000000                00000 001C0 15848              QFCWA    RECORD BEGIN
 000000 00                         15856  1           QFCFLAG    FLAG
 QFCFLAG.QFCFOPEN  80 ONES         15860  1                      FLAG  QFCFOPEN            - Server has been opened
 000004                            15865  1           QFCCMDP    DS    2A                  Query command ptrs
 00000C                            15866  1           QFCBUFP    DS    2A                  Buffer area ptrs
 000014                            15867  1           QFCSVIB    DS    XL(L'SVIB)          Working SVIB
 0001C0                001C0 001C0 15868                       END
                                   15877              þþþþ
 001AE8 50E0 D000/9008_      00000 15878              QUERYFC  XPROC QFCWA
 USING  *,R7
 USING  QFCWA-(4+36),R8
 001B02 D7FF 8028 8028_00000 00000 15929                       CLEAR QFCWA
 001B0E 9001 802C            00004 15937                       STM   R0,R1,QFCCMDP       Save working command ptrs
 001B12 9045 8034            0000C 15938                       STM   R4,R5,QFCBUFP       Save response buffer ptrs
                                   15939                       ¿þþþþþþþþþþþþþþþþþþþþþþþþþþþþþþþþÜ
                                   15940                       Ÿ  Parse server name or number.  Ÿ
                                   15941                       ¾þþþþþþþþþþþþþþþþþþþþþþþþþþþþþþþþ»
 001B16 4150 803C            00014 15942                       LA    R5,QFCSVIB
 USING  SVIB,R5                    15943                       WITH  (SVIB,R5)
                                   15956
 001B1A 41F0 5000            00000 15957                       LA    R15,SVIB
 001B1E 1813/1802                  15958                       SETMSG (R3),(R2)
 001B22 58E0 7BA6/0DEE       026A8 15970                       ACALL SERVSETPROTO        Build working SVIB
 001B28 4780 7040            01B42 15974                       IF    NZ,BEGIN            Bad server name/number...
 001B2C 41F0 B050/58E0_      00050 15985  1                      TCLEAR ,                  Get rid of error text
 001B36 4110 7D30/4100_      02832 15999  1                      SETMSG 'BAD SERVER NAME'
 001B3E 47F0 70F8            01BFA 16003  1                      B     QFCERR
 001B42                            16004                       END
                                   16008                       ¿þþþþþþþþþþþþþþþþþþþþþþþþþþþþþþþþþþþþþþþþþþþþþþþþþþþþþþþþþþþþþþÜ
                                   16009                       Ÿ  If server number was specified then we are sending a query  Ÿ
                                   16010                       Ÿ    to a server which we have previously opened.              Ÿ
                                   16011                       ¾þþþþþþþþþþþþþþþþþþþþþþþþþþþþþþþþþþþþþþþþþþþþþþþþþþþþþþþþþþþþþþ»
 001B42 D61F 5008 5008_00008 00008 16012                       IF    (SVIBNAME,Z),BEGIN  No server name specified...
 001B4C 58F0 5004            00004 16028  1                      L     R15,SVIBNO          Server number
 001B50 58E0 7BAE/0DEE       026B0 16029  1                      ACALL SERVGET             Get SVIB ptr
 001B56 4770 7064            01B66 16033  1                      IF    Z,BEGIN             No such server...
 001B5A 4110 7C8E/4100_      02790 16044  2                        SETMSG 'NO SUCH SERVER'
1QUERY    (QUER2193) (12:52) (15MAR04) QUERY Function                                                                       Page   34
0Current Usings:  (SVIB,R5) (*,R7) (QFCWA-(4+36),R8) (CP,R11) (CV,R12)
0Loc    Object Code    Addr1 Addr2  Stmt Lv Lineno    Source Statement           (Hibal 5, Asmedit 3.3)  HLASM R4.0  2004/03/15 12.52
+___    ______ ____    _____ _____  ____ __ ______    ______ _________
0001B62 47F0 70F8            01BFA 16048  2                        B     QFCERR
 001B66                            16049  1                      END
                                   16053  1
 001B66 185F                       16054  1                      LR    R5,R15              SVIB ptr
                                   16055  1                      ¿þþþþþþþþþþþþþþþþþþþþþþþþþþþþþþþþþþþþþþþþþþþþþþþþÜ
                                   16056  1                      Ÿ  Make sure server has previously been opened.  Ÿ
                                   16057  1                      ¾þþþþþþþþþþþþþþþþþþþþþþþþþþþþþþþþþþþþþþþþþþþþþþþþ»
 001B68 9504 5048/4780_00048       16058  1                      IF    ~SVIB#BUSY,BEGIN    Error of some sort...
 001B70 4110 7BB2/4100_      026B4 16073  2                        SETMSG 'SERVER NOT PREVIOUSLY OPENED'
 001B78 47F0 70F8            01BFA 16077  2                        B     QFCERR
 001B7C                            16078  1                      END
                                   16082  1                      ¿þþþþþþþþþþþþþþþþþþþþþþþþþþþþþþþþþþþþþþþþþþþþþþþþþþþþþþþþþþþþþÜ
                                   16083  1                      Ÿ  Make sure server is connected to us and not someone else.  Ÿ
                                   16084  1                      ¾þþþþþþþþþþþþþþþþþþþþþþþþþþþþþþþþþþþþþþþþþþþþþþþþþþþþþþþþþþþþþ»
 001B7C D503 5188 C1C8_00188 001C8 16085  1                      IF    (SVIBJCBP,NE,CVCURJCB),BEGIN  Not our server...
 001B86 4110 7B2E/4100_      02630 16103  2                        SETMSG 'SERVER NOT YOURS'
 001B8E 47F0 70F8            01BFA 16107  2                        B     QFCERR
 001B92                            16108  1                      END
 001B92                            16112                       END
                                   16116                       ¿þþþþþþþþþþþþþþþþþþþþþþþþþþþþþþþþþþþþþþþþþþþþþþþþþþþþþþþþþþÜ
                                   16117                       Ÿ  If a server name was given then open the connection     Ÿ
                                   16118                       Ÿ    and set a flag so we will close it when we are done.  Ÿ
                                   16119                       ¾þþþþþþþþþþþþþþþþþþþþþþþþþþþþþþþþþþþþþþþþþþþþþþþþþþþþþþþþþþ»
 001B92 7094/47F0 70A8 01B92 01B4A 16120                       ELSE  BEGIN               Server name specified...
 001B96 4110 5000            00000 16131  1                      LA    R1,SVIB             SVIBNAME or SVIBNO filled in
 001B9A 58E0 7BCE/0DEE       026D0 16132  1                      ACALL SERVOPEN            Open user server
 001BA0 4770 70F8            01BFA 16136  1                      BNZ   QFCERR              Error, scram
                                   16137  1
 001BA4 9680 8028      00000       16138  1                      SET   QFCFOPEN            Connection is now open
 001BA8 1851                       16144  1                      LR    R5,R1               Set our SVIB ptr
 001BAA                            16145                       END
                                   16149                       ¿þþþþþþþþþþþþþþþþþþþþþþþþþþþþþþþþþþþþþþþþþþþþþþþþþþþþþþÜ
                                   16150                       Ÿ  Connection to a query server has been established,  Ÿ
                                   16151                       Ÿ    now send the command and fetch the responses.     Ÿ
                                   16152                       ¾þþþþþþþþþþþþþþþþþþþþþþþþþþþþþþþþþþþþþþþþþþþþþþþþþþþþþþ»
 001BAA 9200 504B      0004B       16153                       CLEAR SVIBLOCALF
                                   16160
 001BAE 9801 802C            00004 16161                       LM    R0,R1,QFCCMDP       Get command ptrs
 001BB2 41F0 5000            00000 16162                       LA    R15,SVIB
 001BB6 58E0 7BD2/0DEE       026D4 16163                       ACALL SERVCMDL            Send command
 001BBC 4770 70F8            01BFA 16167                       BNZ   QFCERR              Trouble, scram
                                   16168                       ¿þþþþþþþþþþþþþþþþþþþþþþþþþþþþþþþþþþþþþþþþþþþþþþþþþþþþþþþÜ
                                   16169                       Ÿ  Keep processing responses until we get a data line.  Ÿ
                                   16170                       ¾þþþþþþþþþþþþþþþþþþþþþþþþþþþþþþþþþþþþþþþþþþþþþþþþþþþþþþþ»
 001BC0                            16171                       LOOP  BEGIN
 001BC0 41F0 5000            00000 16177  1                      LA    R15,SVIB
 001BC4 58E0 7BD6/0DEE       026D8 16178  1                      ACALL SERVGETL            Get first/next response line
 001BCA 4770 70F8            01BFA 16182  1                      BNZ   QFCERR              Trouble, scram
                                   16183  1
 001BCE 9505 1000/4780_00000       16184  1                      IF    (@R1,EQ,$TAB),QFCOK  We have a data line, scram
                                   16204  1
 001BD6 95F2 1000/4770_00000       16205  1                      IF    (@R1,EQ,'2'),'CLEAR R1,R0; B QFCOK'  Normal
 001BE6 95F4 1000/4780_00000       16233  1                      IF    (@R1,EQ,'4'),EXIT   Error completion
 001BEE 95F5 1000/4780_00000       16252  1                      IF    (@R1,EQ,'5'),EXIT   Error completion
1QUERY    (QUER2193) (12:52) (15MAR04) QUERY Function                                                                       Page   35
0Current Usings:  (SVIB,R5) (*,R7) (QFCWA-(4+36),R8) (CP,R11) (CV,R12)
0Loc    Object Code    Addr1 Addr2  Stmt Lv Lineno    Source Statement           (Hibal 5, Asmedit 3.3)  HLASM R4.0  2004/03/15 12.52
+___    ______ ____    _____ _____  ____ __ ______    ______ _________
0001BF6 47F0 70BE            01BC0 16271                       END
                                   16276                       ¿þþþþþþþþþþþþþþþþþþþþþÜ
                                   16277                       Ÿ  Error completion.  Ÿ
                                   16278                       ¾þþþþþþþþþþþþþþþþþþþþþ»
 001BFA 41F0 0004            00004 16279              QFCERR   LA    R15,4
 001BFE 47F0 7102            01C04 16280                       B     QFCDONE
                                   16281                       ¿þþþþþþþþþþþþþþþþþþþþþþÜ
                                   16282                       Ÿ  Normal completion.  Ÿ
                                   16283                       ¾þþþþþþþþþþþþþþþþþþþþþþ»
 001C02 1BFF                       16284              QFCOK    CLEAR R15                 A-ok
 001C04 9823 8034            0000C 16289              QFCDONE  LM    R2,R3,QFCBUFP       Response buffer loc, len
 001C08 18E0                       16290                       LR    R14,R0
 001C0A 19E2/47D0 7110_            16291                       CEIL  R14,R2              Not too long now
 001C12 06E0/12EE/4740_            16297                       MOVE  R14,@R3,@R1         Copy response
 001C1E 1813                       16335                       SETMSG (R3),(R0)           Our response (now in caller's buf)
                                   16346
 001C20 90F1 D000/41D0_      00000 16347                       XPUSH R15,R1              Save return code info
                                   16350                       ¿þþþþþþþþþþþþþþþþþþþþþþþþþþþþÜ
                                   16351                       Ÿ  Close server connection.  Ÿ
                                   16352                       ¾þþþþþþþþþþþþþþþþþþþþþþþþþþþþ»
 001C28 9180 8028/47E0_00000       16353                       IF    QFCFOPEN,BEGIN      If we opened connection...
 001C30 58F0 5004            00004 16368  1                      L     R15,SVIBNO          Server number
 001C34 58E0 7BDA/0DEE       026DC 16369  1                      ACALL SERVCLS             Close connection
 001C3A                            16373                       END
                                   16377
 001C3A 4BD0 7C9C/98F1_      0279E 16378                       XPOP  R15,R1
                                   16381
 001C42 9001 8004            00004 16382                       PRETURN (R0,R1)
 001C46 18D8/9808 D004_            16384                       PEND
 DROP   SVIB,R5
 DROP   QFCWA-(4+36),R8
 DROP   *,R7
1QUERY    (QUER2193) (12:52) (15MAR04) QOPEN Command                                                                        Page   36
0Current Usings:  (CP,R11) (CV,R12)
0Loc    Object Code    Addr1 Addr2  Stmt Lv Lineno    Source Statement           (Hibal 5, Asmedit 3.3)  HLASM R4.0  2004/03/15 12.52
+___    ______ ____    _____ _____  ____ __ ______    ______ _________
0                                  16415              ¿þþþþþþþþþþþþþþþþþþþþþþþþþþþþþþþþþþþþþþþþþþþþþþþþþþþþþþþþþþþþþþþþþþþþþÜ
                                   16416              Ÿ                                                                     Ÿ
                                   16417              Ÿ  QOPEN -- QOPEN Command.                                            Ÿ
                                   16418              Ÿ                                                                     Ÿ
                                                      ¾þþþþþþþþþþþþþþþþþþþþþþþþþþþþþþþþþþþþþþþþþþþþþþþþþþþþþþþþþþþþþþþþþþþþþ»
0000000                00000 001AC 16419              QOWA     RECORD BEGIN
 000000                            16427  1           QOSVIB     DS    XL(L'SVIB)          Server information
 0001AC                001AC 001AC 16428                       END
                                   16437              þþþþ
 001C54 50E0 D000/9008_      00000 16438              QOPEN    XPROC QOWA
 USING  *,R7
 USING  QOWA-(4+36),R8
 001C6E D7FF 8028 8028_00000 00000 16489                       CLEAR QOWA
                                   16497
 001C7A 4150 8028            00000 16498                       LA    R5,QOSVIB
 USING  SVIB,R5                    16499                       WITH  (SVIB,R5)
                                   16512                       ¿þþþþþþþþþþþþþþþþþþþþþþþþþÜ
                                   16513                       Ÿ  Scan for server name.  Ÿ
                                   16514                       ¾þþþþþþþþþþþþþþþþþþþþþþþþþ»
 001C7E 41F0 5000            00000 16515                       LA    R15,SVIB
 001C82 58E0 7A72/0DEE       026E0 16516                       ACALL SERVSCANPROTO       Scan server name
                                   16520
 001C88 D61F 5008 5008_00008 00008 16521                       IF    (SVIBNAME,Z),BEGIN  Don't allow servno here...
 001C92 4110 7BD3/4100_      02841 16537  1                      ERROR 'You must QOPEN server by name (not number).'
 001C9E                            16544                       END
                                   16548                       ¿þþþþþþþþþþþþþþþþþþþþþþþÜ
                                   16549                       Ÿ  Scan QOPEN options.  Ÿ
                                   16550                       ¾þþþþþþþþþþþþþþþþþþþþþþþ»
 001C9E 5810 B08C/1B00_      0008C 16551                       SCAN  QOPENPRT            QOPEN options
 001CF0 58E0 7A7E/0DEE       026EC 16583                       SCANCHK
                                   16588                       ¿þþþþþþþþþþþþþþþþþþþþþþþÜ
                                   16589                       Ÿ  Try opening server.  Ÿ
                                   16590                       ¾þþþþþþþþþþþþþþþþþþþþþþþ»
 001CF6 4110 5000            00000 16591                       LA    R1,SVIB             SVIBNAME or SVIBNO filled in
 001CFA 58E0 7A62/0DEE       026D0 16592                       ACALL SERVOPEN            Open user server
 001D00 4780 7100            01D6E 16596                       IF    NZ,BEGIN            Can't open...
 001D04 4740 7160            01DCE 16607  1                      BM    SONETERR            Network error, scram
 001D08 59F0 7A82/4780_      026F0 16608  1                      IF    (R15,EQ,1),SOERRSEG  Query error, call it quits
                                   16628  1
 001D10 58F0 5004/12FF_      00004 16629  1                      IF    ('LT R15,SVIBNO',NZ),'TNUM (R15)'
 001D28 70BE/47F0 70D0_01D28 01D18 16672  1                      ELSE  'TSEG SVIBNAME,,T'
 001D3E 4110 7BFE/4100_      0286C 16716  1                      TSEG  ' is an unknown server'
 001D50 4110 7B34/4100_      027A2 16734  1                      TSEG  ' (use the SHOW QUERY command for a'
 001D62 4110 7B56/4100_      027C4 16752  1                      ERROR ' list of servers).'
 001D6E                            16759                       END
                                   16763
 001D6E 1851                       16764                       LR    R5,R1               Set our SVIB ptr
                                   16765                       ¿þþþþþþþþþþþþþþþþþþþþþþþþþþþþþþþþþþþþþþþþþþþþþþþþþÜ
                                   16766                       Ÿ  Save server number in our active query queue.  Ÿ
                                   16767                       ¾þþþþþþþþþþþþþþþþþþþþþþþþþþþþþþþþþþþþþþþþþþþþþþþþþ»
 001D70 4100 0008            00008 16768                       LA    R0,L'QINFO
 001D74 58E0 7A92/0DEE       02700 16769                       VCALL GETCORE             Get room for QINFO
 USING  QINFO,R1                   16773                       WITH  (QINFO,R1),BEGIN
1QUERY    (QUER2193) (12:52) (15MAR04) QOPEN Command                                                                        Page   37
0Current Usings:  (QINFO,R1) (SVIB,R5) (*,R7) (QOWA-(4+36),R8) (CP,R11) (CV,R12)
0Loc    Object Code    Addr1 Addr2  Stmt Lv Lineno    Source Statement           (Hibal 5, Asmedit 3.3)  HLASM R4.0  2004/03/15 12.52
+___    ______ ____    _____ _____  ____ __ ______    ______ _________
0001D7A D707 1000 1000 00000 00000 16787  1                      CLEAR QINFO
 001D80 D203 1000 B22C 00000 0022C 16794  1                      MVC   QINFLINK,CPQINFOQ   Link everything to us
 001D86 D203 1004 5004 00004 00004 16795  1                      MVC   QINFNO,SVIBNO       Save server number
 001D8C 5010 B22C            0022C 16796  1                      ST    R1,CPQINFOQ         We are the new queue head
 DROP   QINFO,R1                   16797                       END
                                   16805                       ¿þþþþþþþþþþþþþþþþþþþþþþþþþþþþþþþþþþþþþþþþþþþþþþþþþþþþþþÜ
                                   16806                       Ÿ  Connection to a query server has been established.  Ÿ
                                   16807                       ¾þþþþþþþþþþþþþþþþþþþþþþþþþþþþþþþþþþþþþþþþþþþþþþþþþþþþþþ»
 001D90 4110 7C13/4100_      02881 16808                       TSEG  'Connection to server '
 001DA2 41F0 5000            00000 16826                       LA    R15,SVIB
 001DA6 58E0 7A96/0DEE       02704 16827                       ACALL SERVSEGN
 001DAC 4110 7B68/4100_      027D6 16831                       TSEG  ' has been established.'
 001DBE 1B00/41F0 B050_            16849                       TCR
                                   16874
 001DCA 47F0 C7DE            007DE 16875                       B     CVNEXT
                                   16876
 001DCE D504 7C28 1000_02896 00000 16877              SONETERR IF    (@R1,EQ,'RESET'),BEGIN
 001DD8 4110 7C2D/4100_      0289B 16894  1                      TSEG  'Server '
 001DEA 41F0 5000            00000 16912  1                      LA    R15,SVIB
 001DEE 58E0 7A96/0DEE       02704 16913  1                      ACALL SERVSEGN
 001DF4 4110 7C34/4100_      028A2 16917  1                      TSEG  ' is not currently accepting requests.',,CR
 001E06 41F0 79D2            02640 16935  1                      LA    R15,=CL8'NOSERVER'
 001E0A 47F0 72C8            01F36 16936  1                      B     SOERR
 001E0E                            16937                       END
                                   16941
 001E0E D506 7C59 1000_028C7 00000 16942                       IF    (@R1,EQ,'TIMEOUT'),BEGIN
 001E18 4110 79DA/4100_      02648 16958  1                      TSEG  'No response from server '
 001E2A 4110 5008/4100_      00008 16976  1                      TSEG  SVIBNAME,,T
 001E3C 4110 7C60/4100_      028CE 17004  1                      TSEG  '.',,CR
 001E4E 41F0 79F2            02660 17022  1                      LA    R15,=CL8'TIMEOUT'
 001E52 47F0 72C8            01F36 17023  1                      B     SOERR
 001E56                            17024                       END
                                   17028
 001E56 9001 D000/41D0_      00000 17029                       XPUSH R0,R1
 001E5E 4110 79FA/4100_      02668 17032                       TSEG  'Can''t connect to server '
 001E70 4110 5008/4100_      00008 17050                       TSEG  SVIBNAME,,T
 001E82 4110 7B7E/4100_      027EC 17078                       TSEG  ': '
 001E94 4BD0 7B80/9801_      027EE 17096                       XPOP  R0,R1
 001E9C 41F0 B050/58E0_      00050 17099                       TSEG  (R1),(R0),,CR       Reason
 001EA6 41F0 7A12            02680 17123                       LA    R15,=CL8'NETERROR'
 001EAA 47F0 72C8            01F36 17124                       B     SOERR
                                   17125
 001EAE 9001 D000/41D0_      00000 17126              SOERRSEG XPUSH R0,R1
 001EB6 4110 7B82/4100_      027F0 17129                       TSEG  'Error completion: '
 001EC8 4BD0 7B80/9801_      027EE 17147                       XPOP  R0,R1
                                   17150
 001ED0 9505 1003/4770_00003       17151                       IF    (@R1+3,EQ,X'05'),BEGIN  Display as "(nnn) message"...
 001ED8 9001 D000/41D0_      00000 17167  1                      XPUSH R0,R1
 001EE0 4110 7C61/4100_      028CF 17170  1                      TSEG  '('
 001EF2 4BD0 7B80/9801_      027EE 17188  1                      XPOP  R0,R1
 001EFA 9001 D000/41D0_      00000 17191  1                      XPUSH R0,R1
 001F02 4100 0003/41F0_      00003 17194  1                      TSEG  @R1,3
 001F10 4110 7B94/4100_      02802 17223  1                      TSEG  ') '
 001F22 4BD0 7B80/9801_      027EE 17241  1                      XPOP  R0,R1
1QUERY    (QUER2193) (12:52) (15MAR04) QOPEN Command                                                                        Page   38
0Current Usings:  (SVIB,R5) (*,R7) (QOWA-(4+36),R8) (CP,R11) (CV,R12)
0Loc    Object Code    Addr1 Addr2  Stmt Lv Lineno    Source Statement           (Hibal 5, Asmedit 3.3)  HLASM R4.0  2004/03/15 12.52
+___    ______ ____    _____ _____  ____ __ ______    ______ _________
0001F2A 4110 1004            00004 17244  1                      LA    R1,@R1+4
 001F2E 4B00 7B96            02804 17245  1                      SH    R0,=H'4'
 001F32                            17246                       END
                                   17250
 001F32 47F0 C7C8            007C8 17251                       ERROR (R1),(R0)
                                   17264
 001F36 9505 B38C/4770_0038C       17265              SOERR    IF    CPSTVIRT,BEGIN      Be persistent if virtual term...
 001F3E 4110 7A9E/4100_      0270C 17281  1                      TSEG  '(Will retry server operation in 30 seconds.)',,WR
 001F50 4770 C7DA            007DA 17299  1                      BNZ   CVABORT
                                   17300  1
 001F54 41F0 0BB8            00BB8 17301  1                      LA    R15,30*100
 001F58 58E0 7ACE/0DEE       0273C 17302  1                      VCALL WAITER              Wait for 30 seconds
 001F5E 47F0 C7DA            007DA 17306  1                      B     CVABORT             ???????
                                   17307  1           *******  B     ???????
 001F62                            17308                       END
                                   17312
 001F62 D207 B886 F000 00886 00000 17313                       MVC   CPERRID,@R15        Set error id
 001F68 47F0 C7D6            007D6 17314                       B     CVERROR
 001F6C 18D8/9808 D004_            17315                       PEND
 DROP   SVIB,R5
 DROP   QOWA-(4+36),R8
 DROP   *,R7
                                   17345                       ¿þþþþþþþþþþþþþþþþþÜ
                                   17346                       Ÿ  QOPEN Options  Ÿ
                                   17347                       ¾þþþþþþþþþþþþþþþþþ»
 001F7C 4040404040404040_          17348              QOPENPRT SCKW ,V(SCNINVAL)
                                   17363
                                   17364                       SEGDEF DUMMY              (Neatness)
1QUERY    (QUER2193) (12:52) (15MAR04) QSEND Command                                                                        Page   39
0Current Usings:  (CP,R11) (CV,R12)
0Loc    Object Code    Addr1 Addr2  Stmt Lv Lineno    Source Statement           (Hibal 5, Asmedit 3.3)  HLASM R4.0  2004/03/15 12.52
+___    ______ ____    _____ _____  ____ __ ______    ______ _________
0                                  17366              ¿þþþþþþþþþþþþþþþþþþþþþþþþþþþþþþþþþþþþþþþþþþþþþþþþþþþþþþþþþþþþþþþþþþþþþÜ
                                   17367              Ÿ                                                                     Ÿ
                                   17368              Ÿ  QSEND -- QSEND Command.                                            Ÿ
                                   17369              Ÿ                                                                     Ÿ
                                                      ¾þþþþþþþþþþþþþþþþþþþþþþþþþþþþþþþþþþþþþþþþþþþþþþþþþþþþþþþþþþþþþþþþþþþþþ»
0001FA4 50E0 D000/9008_      00000 17370              QSEND    XPROC
 USING  *,R7
                                   17410                       ¿þþþþþþþþþþþþþþþþþþþþþþþþþþþÜ
                                   17411                       Ÿ  Scan for server number.  Ÿ
                                   17412                       ¾þþþþþþþþþþþþþþþþþþþþþþþþþþþ»
 001FBE 58E0 7782/0DEE       02740 17413                       ACALL SERVSCANSVIB        Get SVIB ptr
 001FC4 185F                       17417                       LR    R5,R15
 USING  SVIB,R5                    17418                       WITH  (SVIB,R5)
                                   17431
 001FC6 41F0 5000            00000 17432                       LA    R15,SVIB
 001FCA 58E0 B08C/581E_      0008C 17433                       SCINFO
 001FD8 58E0 7786/0DEE       02744 17442                       VCALL LRTRIM
 001FDE 58E0 7716/0DEE       026D4 17446                       ACALL SERVCMDL            Send command line
 001FE4 4780 C7DE            007DE 17450                       BZ    CVNEXT              Normal completion, scram
                                   17451                       ¿þþþþþþþþþþþþþþþþþþþþþÜ
                                   17452                       Ÿ  Error completion.  Ÿ
                                   17453                       ¾þþþþþþþþþþþþþþþþþþþþþ»
 001FE8 9001 D000/41D0_      00000 17454              QSERRSEG XPUSH R0,R1
 001FF0 4110 7832/4100_      027F0 17457                       TSEG  'Error completion: '
 002002 4BD0 7830/9801_      027EE 17475                       XPOP  R0,R1
                                   17478
 00200A 9505 1003/4770_00003       17479                       IF    (@R1+3,EQ,X'05'),BEGIN  Display as "(nnn) message"...
 002012 9001 D000/41D0_      00000 17495  1                      XPUSH R0,R1
 00201A 4110 7911/4100_      028CF 17498  1                      TSEG  '('
 00202C 4BD0 7830/9801_      027EE 17516  1                      XPOP  R0,R1
 002034 9001 D000/41D0_      00000 17519  1                      XPUSH R0,R1
 00203C 4100 0003/41F0_      00003 17522  1                      TSEG  @R1,3
 00204A 4110 7844/4100_      02802 17551  1                      TSEG  ') '
 00205C 4BD0 7830/9801_      027EE 17569  1                      XPOP  R0,R1
 002064 4110 1004            00004 17572  1                      LA    R1,@R1+4
 002068 4B00 7846            02804 17573  1                      SH    R0,=H'4'
 00206C                            17574                       END
                                   17578              *
                                   17579              *debug:  IF    (@R1,EQ,':'),'CLEAR CVFNTRC'
 00206C 47F0 C7C8            007C8 17580                       ERROR (R1),(R0)           Write out error message
 002070 18D8/9808 D004_            17593                       PEND
 DROP   SVIB,R5
 DROP   *,R7
1QUERY    (QUER2193) (12:52) (15MAR04) QEXEC Command                                                                        Page   40
0Current Usings:  (CP,R11) (CV,R12)
0Loc    Object Code    Addr1 Addr2  Stmt Lv Lineno    Source Statement           (Hibal 5, Asmedit 3.3)  HLASM R4.0  2004/03/15 12.52
+___    ______ ____    _____ _____  ____ __ ______    ______ _________
0                                  17619              ¿þþþþþþþþþþþþþþþþþþþþþþþþþþþþþþþþþþþþþþþþþþþþþþþþþþþþþþþþþþþþþþþþþþþþþÜ
                                   17620              Ÿ                                                                     Ÿ
                                   17621              Ÿ  QEXEC -- QEXEC Command.                                            Ÿ
                                   17622              Ÿ                                                                     Ÿ
                                                      ¾þþþþþþþþþþþþþþþþþþþþþþþþþþþþþþþþþþþþþþþþþþþþþþþþþþþþþþþþþþþþþþþþþþþþþ»
000207E 50E0 D000/9008_      00000 17623              QEXEC    XPROC
 USING  *,R7
                                   17663                       ¿þþþþþþþþþþþþþþþþþþþþþþþþþþþÜ
                                   17664                       Ÿ  Scan for server number.  Ÿ
                                   17665                       ¾þþþþþþþþþþþþþþþþþþþþþþþþþþþ»
 002098 58E0 76A8/0DEE       02740 17666                       ACALL SERVSCANSVIB        Get SVIB ptr
 00209E 185F                       17670                       LR    R5,R15
 USING  SVIB,R5                    17671                       WITH  (SVIB,R5)
                                   17684
 0020A0 41F0 5000            00000 17685                       LA    R15,SVIB
 0020A4 58E0 B08C/581E_      0008C 17686                       SCINFO
 0020B2 58E0 76AC/0DEE       02744 17695                       VCALL LRTRIM
                                   17699                       ¿þþþþþþþþþþþþþþþþþþþþþþþþþþþþþþþþþþþþþþþþþþþþþþþþþþþþþþþþþÜ
                                   17700                       Ÿ  Send the remainder of the command line to the server.  Ÿ
                                   17701                       ¾þþþþþþþþþþþþþþþþþþþþþþþþþþþþþþþþþþþþþþþþþþþþþþþþþþþþþþþþþ»
 0020B8 1200/47D0 7030             17702                       IF    (R0,POS),BEGIN
 0020BE 58E0 763C/0DEE       026D4 17716  1                      ACALL SERVCMDL            Send command line
 0020C4 4770 7042            020DA 17720  1                      BNZ   QXERRSEG            Trouble, scram
 0020C8                            17721                       END
                                   17725                       ¿þþþþþþþþþþþþþþþþþþþþþþþþþþþþþþþþþþþþþþþþþþþþþþþþþþþþþþÜ
                                   17726                       Ÿ  Start fetching rows but don't wait for a response.  Ÿ
                                   17727                       ¾þþþþþþþþþþþþþþþþþþþþþþþþþþþþþþþþþþþþþþþþþþþþþþþþþþþþþþ»
 0020C8 41F0 5000            00000 17728                       LA    R15,SVIB
 0020CC 58E0 76B0/0DEE       02748 17729                       ACALL SERVFET             Start fetching response
 0020D2 4770 7042            020DA 17733                       BNZ   QXERRSEG            Trouble, scram
 0020D6 47F0 C7DE            007DE 17734                       B     CVNEXT              All done
                                   17735                       ¿þþþþþþþþþþþþþþþþþþþþþÜ
                                   17736                       Ÿ  Error completion.  Ÿ
                                   17737                       ¾þþþþþþþþþþþþþþþþþþþþþ»
 0020DA 9001 D000/41D0_      00000 17738              QXERRSEG XPUSH R0,R1
 0020E2 4110 7758/4100_      027F0 17741                       TSEG  'Error completion: '
 0020F4 4BD0 7756/9801_      027EE 17759                       XPOP  R0,R1
                                   17762
 0020FC 9505 1003/4770_00003       17763                       IF    (@R1+3,EQ,X'05'),BEGIN  Display as "(nnn) message"...
 002104 9001 D000/41D0_      00000 17779  1                      XPUSH R0,R1
 00210C 4110 7837/4100_      028CF 17782  1                      TSEG  '('
 00211E 4BD0 7756/9801_      027EE 17800  1                      XPOP  R0,R1
 002126 9001 D000/41D0_      00000 17803  1                      XPUSH R0,R1
 00212E 4100 0003/41F0_      00003 17806  1                      TSEG  @R1,3
 00213C 4110 776A/4100_      02802 17835  1                      TSEG  ') '
 00214E 4BD0 7756/9801_      027EE 17853  1                      XPOP  R0,R1
 002156 4110 1004            00004 17856  1                      LA    R1,@R1+4
 00215A 4B00 776C            02804 17857  1                      SH    R0,=H'4'
 00215E                            17858                       END
                                   17862
 00215E 47F0 C7C8            007C8 17863                       ERROR (R1),(R0)           Write out error message
 002162 18D8/9808 D004_            17876                       PEND
 DROP   SVIB,R5
1QUERY    (QUER2193) (12:52) (15MAR04) QEXEC Command                                                                        Page   41
0Current Usings:  (CP,R11) (CV,R12)
0Loc    Object Code    Addr1 Addr2  Stmt Lv Lineno    Source Statement           (Hibal 5, Asmedit 3.3)  HLASM R4.0  2004/03/15 12.52
+___    ______ ____    _____ _____  ____ __ ______    ______ _________
0DROP   *,R7
1QUERY    (QUER2193) (12:52) (15MAR04) QRUN Command                                                                         Page   42
0Current Usings:  (CP,R11) (CV,R12)
0Loc    Object Code    Addr1 Addr2  Stmt Lv Lineno    Source Statement           (Hibal 5, Asmedit 3.3)  HLASM R4.0  2004/03/15 12.52
+___    ______ ____    _____ _____  ____ __ ______    ______ _________
0                                  17902              ¿þþþþþþþþþþþþþþþþþþþþþþþþþþþþþþþþþþþþþþþþþþþþþþþþþþþþþþþþþþþþþþþþþþþþþÜ
                                   17903              Ÿ                                                                     Ÿ
                                   17904              Ÿ  QRUN -- QRUN Command.                                              Ÿ
                                   17905              Ÿ                                                                     Ÿ
                                                      ¾þþþþþþþþþþþþþþþþþþþþþþþþþþþþþþþþþþþþþþþþþþþþþþþþþþþþþþþþþþþþþþþþþþþþþ»
0000000                00000 00010 17906              QRWA     RECORD BEGIN
 000000                            17914  1           QRSNO      DS    F                   Server number
 000004                            17915  1           QRSVIBP    DS    A                   SVIB ptr
 000008                            17916  1           QRUSG      DS    A                   Network output SEGCB ptr
                                   17917  1
 00000C                            17918  1           QRLCNT     DS    F                   Working line count
 000010                00010 00010 17919                       END
                                   17928              þþþþ
 002170 50E0 D000/9008_      00000 17929              QRUN     XPROC QRWA
 USING  *,R7
 USING  QRWA-(4+36),R8
 00218A 4160 8028            00000 17980                       LA    R6,QRWA
 USING  QRWA,R6                    17981                       WITH  (QRWA,R6)
 00218E D70F 6000 6000 00000 00000 17994                       CLEAR QRWA
                                   18001
 002194 5060 BD6C            00D6C 18002                       ST    R6,CPWK4            Save QRWA ptr (for QRUNRTN)
                                   18003                       ¿þþþþþþþþþþþþþþþþþþþþÜ
                                   18004                       Ÿ  Scan line range.  Ÿ
                                   18005                       ¾þþþþþþþþþþþþþþþþþþþþ»
 002198 58E0 75C2/0DEE       0274C 18006                       VCALL SCNEXFR             Allow active/exec/from dsname
 00219E 9610 BD50      00D50       18010                       SET   CPLFLG1.CPFALL      Default is ALL
                                   18017
 0021A2 58E0 75C6/0DEE       02750 18018                       VCALL NDETRNG             Scan range
                                   18022                       ¿þþþþþþþþþþþþþþþþþþþþþþÜ
                                   18023                       Ÿ  Scan QRUN options.  Ÿ
                                   18024                       ¾þþþþþþþþþþþþþþþþþþþþþþ»
 0021A8 9503 BD89/4770_00D89       18025                       IF    CPFRDEXT,BEGIN      With dsn options
 0021B0 58E0 75CA/0DEE       02754 18040  1                      VCALL MKFFINFO
 0021B6 5810 B08C/1B00_      0008C 18044  1                      SCAN QRPRTX
 002208                            18076                       END
 002208 7082/47F0 70D4 02208 021AE 18080                       ELSE  BEGIN               Without dsn options
 00220C 5810 B08C/1B00_      0008C 18091  1                      SCAN QRPRT
 00225E                            18123                       END
 00225E 58E0 7562/0DEE       026EC 18127                       SCANCHK
                                   18132                       ¿þþþþþþþþþþþþþþþþþþþþþþþþþþþþþþþþþþþþÜ
                                   18133                       Ÿ  Get SVIB ptr from server number.  Ÿ
                                   18134                       ¾þþþþþþþþþþþþþþþþþþþþþþþþþþþþþþþþþþþþ»
 002264 58F0 6000/12FF       00000 18135                       LT    R15,QRSNO           Server number
 00226A 4770 7108            02292 18139                       IF    Z,BEGIN             Use default server...
 00226E 58F0 B22C/12FF       0022C 18150  1                      LT    R15,CPQINFOQ        Last query info entry (or zero)
 002274 4780 70F2/58F0_      0227C 18154  1                      IF    NZ,'L R15,QINFNO-QINFO(,R15)'  Current server number
 00227C 12FF/4770 7104             18171  1                      IF    (R15,Z),BEGIN       No connection...
 002282 4110 767C/4100_      02806 18185  2                        ERROR 'There is no current server connection.'
 00228E                            18192  1                      END
 00228E 50F0 6000            00000 18196  1                      ST    R15,QRSNO           Save server number
 002292                            18197                       END
                                   18201
 002292 58F0 6000            00000 18202                       L     R15,QRSNO           Server number
1QUERY    (QUER2193) (12:52) (15MAR04) QRUN Command                                                                         Page   43
0Current Usings:  (QRWA,R6) (*,R7) (QRWA-(4+36),R8) (CP,R11) (CV,R12)
0Loc    Object Code    Addr1 Addr2  Stmt Lv Lineno    Source Statement           (Hibal 5, Asmedit 3.3)  HLASM R4.0  2004/03/15 12.52
+___    ______ ____    _____ _____  ____ __ ______    ______ _________
0002296 58E0 7526/0DEE       026B0 18203                       ACALL SERVGET             Get SVIB ptr from server number
 00229C 4770 7144            022CE 18207                       IF    Z,BEGIN             No such server...
 0022A0 4110 7711/4100_      0289B 18218  1                      TSEG  'Server '
 0022B2 5810 6000/1B00_      00000 18236  1                      TNUM  L:QRSNO
 0022C2 4110 74FE/4100_      02688 18258  1                      ERROR ' does not exist.'
 0022CE                            18265                       END
                                   18269
 0022CE 185F                       18270                       LR    R5,R15
 USING  SVIB,R5                    18271                       WITH  (SVIB,R5)
 0022D0 5050 6004            00004 18284                       ST    R5,QRSVIBP          Save our SVIB ptr
                                   18285
 0022D4 58F0 518C            0018C 18286                       L     R15,SVIBUNET
 0022D8 4110 F10C            0010C 18287                       WITH  (UNET,R15),'LA R1,UNETOUTSG'
 USING  UNET,R15
 DROP   UNET,R15
 0022DC 5010 6008            00008 18311                       ST    R1,QRUSG            Save output SEGCB ptr
                                   18312                       SEGDEF L:QRUSG
                                   18313                       ¿þþþþþþþþþþþþþþþþþþþþþþþþþþþþþþþþþþþþþþþþþþþþþþþþþþþþþþþþÜ
                                   18314                       Ÿ  Send DATA command if this is the first line of data.  Ÿ
                                   18315                       ¾þþþþþþþþþþþþþþþþþþþþþþþþþþþþþþþþþþþþþþþþþþþþþþþþþþþþþþþþ»
 0022E0 9501 504A/4780_0004A       18316                       IF    ~SVIBSFDATA,BEGIN   Data...
 0022E8 4110 75D6/4100_      02760 18331  1                      SEG   'DATA'
 0022FA 1B00/58F0 6008_            18346  1                      SEGCR
 002306 1B00/58F0 6008_            18368  1                      SEGWR
                                   18390  1
 002312 4110 7746            028D0 18391  1                      LA    R1,=C'354'          Wait for intermediate response
 002316 58F0 518C            0018C 18392  1                      L     R15,SVIBUNET
 00231A 58E0 75DA/0DEE       02764 18393  1                      ACALL SERVREAD            Get "go ahead" response
 002320 4770 725E            023E8 18397  1                      BNZ   QRERRSEG
                                   18398  1
 002324 9201 504A      0004A       18399  1                      SET   SVIBSFDATA          DATA command has been sent
 002328                            18405                       END
                                   18409                       ¿þþþþþþþþþþþþþþþþþþþþþþþþÜ
                                   18410                       Ÿ  Send range of lines.  Ÿ
                                   18411                       ¾þþþþþþþþþþþþþþþþþþþþþþþþ»
 002328 9503 BD89/4770_00D89       18412                       IF    CPFRDEXT,BEGIN
 002330 58E0 75DE/0DEE       02768 18427  1                      VCALL FNAMEFIN
 002336 58E0 75E2/0DEE       0276C 18431  1                      VCALL EXTOPEN
 00233C 12FF/4770 C7DE             18435  1                      IF    (R15,NZ),CVNEXT
 002342                            18452                       END
                                   18456
 002342 9502 BD89/4770_00D89       18457                       IF    CPFRDEXE,BEGIN  Exec...
 00234A 5800 75E6/5810_      02770 18472  1                      RDRNG QRUNRTN,(LEXATRTN+DESRTRN+LOCATRTN+UNPRST+DESABORT)
 002358                            18479                       END
                                   18483
 002358 71D2/47F0 71E8_02358 02348 18484                       ELSEIF CPFRDEXT,BEGIN  External...
 002364 5800 75F2/5810_      0277C 18508  1                      RDRNG QRUNRTN,(LXCATRTN+DESRTRN+LOCATRTN+UNPRST+DESABORT)
 002372                            18515                       END
                                   18519
 002372 71EC/47F0 71FA_02372 02362 18520                       ELSE  'RDRNG QRUNRTN,(DESRTRN+LOCATRTN+UNPRST+DESABORT)'
                                   18543
 002384 1B00/58F0 6008_            18544                       SEGWR ,                   Force lines to be sent
1QUERY    (QUER2193) (12:52) (15MAR04) QRUN Command                                                                         Page   44
0Current Usings:  (SVIB,R5) (QRWA,R6) (*,R7) (QRWA-(4+36),R8) (CP,R11) (CV,R12)
0Loc    Object Code    Addr1 Addr2  Stmt Lv Lineno    Source Statement           (Hibal 5, Asmedit 3.3)  HLASM R4.0  2004/03/15 12.52
+___    ______ ____    _____ _____  ____ __ ______    ______ _________
0                                  18566                       ¿þþþþþþþþþþþþþþþþþþþþþþÜ
                                   18567                       Ÿ  Normal completion.  Ÿ
                                   18568                       ¾þþþþþþþþþþþþþþþþþþþþþþ»
 002390 D603 600C 600C_0000C 0000C 18569                       IF    (QRLCNT,NZ),BEGIN   Status message...
 00239A 5810 600C/1B00_      0000C 18585  1                      TNUM  L:QRLCNT
 0023AA 4110 76A2/4100_      0282C 18607  1                      SETMSG ' lines'
 0023B2 D503 75FA 600C_02784 0000C 18611  1                      IF    (QRLCNT,EQ,1),'DECR R0'  lines/line
 0023BE 41F0 B050/58E0_      00050 18636  1                      TSEG  (R1),(R0)
 0023C8 4110 750E/4100_      02698 18660  1                      TSEG  ' sent to server '
 0023DA 41F0 5000            00000 18678  1                      LA    R15,SVIB
 0023DE 58E0 757A/0DEE       02704 18679  1                      ACALL SERVSEGN
 0023E4                            18683                       END
                                   18687
 0023E4 47F0 C7DE            007DE 18688                       B     CVNEXT
                                   18689                       ¿þþþþþþþþþþþþþþþþþþþþþÜ
                                   18690                       Ÿ  Error completion.  Ÿ
                                   18691                       ¾þþþþþþþþþþþþþþþþþþþþþ»
 0023E8 9001 D000/41D0_      00000 18692              QRERRSEG XPUSH R0,R1
 0023F0 4110 7666/4100_      027F0 18695                       TSEG  'Error completion: '
 002402 4BD0 7664/9801_      027EE 18713                       XPOP  R0,R1
                                   18716
 00240A 9505 1003/4770_00003       18717                       IF    (@R1+3,EQ,X'05'),BEGIN  Display as "(nnn) message"...
 002412 9001 D000/41D0_      00000 18733  1                      XPUSH R0,R1
 00241A 4110 7745/4100_      028CF 18736  1                      TSEG  '('
 00242C 4BD0 7664/9801_      027EE 18754  1                      XPOP  R0,R1
 002434 9001 D000/41D0_      00000 18757  1                      XPUSH R0,R1
 00243C 4100 0003/41F0_      00003 18760  1                      TSEG  @R1,3
 00244A 4110 7678/4100_      02802 18789  1                      TSEG  ') '
 00245C 4BD0 7664/9801_      027EE 18807  1                      XPOP  R0,R1
 002464 4110 1004            00004 18810  1                      LA    R1,@R1+4
 002468 4B00 767A            02804 18811  1                      SH    R0,=H'4'
 00246C                            18812                       END
                                   18816
 00246C 47F0 C7C8            007C8 18817                       ERROR (R1),(R0)           Write out error message
 002470 18D8/9808 D004_            18830                       PEND
 DROP   SVIB,R5
 DROP   QRWA,R6
 DROP   QRWA-(4+36),R8
 DROP   *,R7
                                   18865                       ¿þþþþþþþþþþþþþþþþþÜ
                                   18866                       Ÿ  QRUN Options.  Ÿ
                                   18867                       ¾þþþþþþþþþþþþþþþþþ»
 002480 C6D9D6D440404040_          18868              QRPRTX   SCKW  FROM,V(FNAMESCN),A
 0024A8 4040404040404040_          18883                       SCKW  ,V(FNAMPSHF),PUSH
 0024D0 E2C5D9E5C5D94040_          18898              QRPRT    SCKW  SERVER,QRSERV,(A,P)
 0024F8 4040404040404040_          18913                       SCKW  ,V(COLSPSH),PUSH    Allow COLUMNS=n[/m]
 002520 4040404040404040_          18928                       SCKW  ,V(COLLPSH),PUSH
 002548 4040404040404040_          18943                       SCKW  ,V(SCNINVAL)
                                   18958              þþþþ
 002570 50E0 D000/9008_      00000 18959              QRSERV   PROC
 USING  *,R7
 USING  QRWA,R6                    18998                       WITH  (QRWA,R6)
 00258A 5900 7166/4770_      026F0 19011                       IF    ((R0,EQ,1),AND,(@R1,EQ,'*')),'CLEAR R15'
 00259C 7016/7016/47F0_0259C 02590 19052                       ELSE  BEGIN               Number...
1QUERY    (QUER2193) (12:52) (15MAR04) QRUN Command                                                                         Page   45
0Current Usings:  (QRWA,R6) (*,R7) (CP,R11) (CV,R12)
0Loc    Object Code    Addr1 Addr2  Stmt Lv Lineno    Source Statement           (Hibal 5, Asmedit 3.3)  HLASM R4.0  2004/03/15 12.52
+___    ______ ____    _____ _____  ____ __ ______    ______ _________
00025A0 58E0 71FE/0DEE       02788 19065  1                      DTB   (R1),(R0)           Convert to number
 0025A6 4770 C7E4            007E4 19080  1                      BNZ   CVNVALID            Not a server number
 0025AA                            19081                       END
 0025AA 50F0 6000            00000 19085                       ST    R15,QRSNO           Save server number
 0025AE 18D8/9808 D004_            19086                       PEND
 DROP   QRWA,R6
 DROP   *,R7
1QUERY    (QUER2193) (12:52) (15MAR04) QRUN Command                                                                         Page   46
0Current Usings:  (CP,R11) (CV,R12)
0Loc    Object Code    Addr1 Addr2  Stmt Lv Lineno    Source Statement           (Hibal 5, Asmedit 3.3)  HLASM R4.0  2004/03/15 12.52
+___    ______ ____    _____ _____  ____ __ ______    ______ _________
0                                  19112              ¿þþþþþþþþþþþþþþþþþþþþþþþþþþþþþþþþþþþþþþþþþþþþþþþþþþþþþþþþþþþþþþþþþþþþþÜ
                                   19113              Ÿ                                                                     Ÿ
                                   19114              Ÿ  QRUNRTN -- Range processor co-routine to send the lines selected   Ÿ
                                   19115              Ÿ    to the query server.                                             Ÿ
                                   19116              Ÿ                                                                     Ÿ
                                   19117              Ÿ    On entry:                                                        Ÿ
                                   19118              Ÿ      R1,R0 - line loc, len                                          Ÿ
                                   19119              Ÿ                                                                     Ÿ
                                                      ¾þþþþþþþþþþþþþþþþþþþþþþþþþþþþþþþþþþþþþþþþþþþþþþþþþþþþþþþþþþþþþþþþþþþþþ»
00025BC 50E0 D000/9008_      00000 19120              QRUNRTN  PROC
 USING  *,R7
 0025D6 5860 BD6C            00D6C 19159                       L     R6,CPWK4            QRWA ptr
 USING  QRWA,R6                    19160                       WITH  (QRWA,R6)
                                   19173                       ¿þþþþþþþþþþþþþþþþþþþþþþþþþþþþþþþþþþþþþþþþþþþþþþþþþþþþþþþÜ
                                   19174                       Ÿ  Only select specified columns (see COLSPSH in OPT).  Ÿ
                                   19175                       ¾þþþþþþþþþþþþþþþþþþþþþþþþþþþþþþþþþþþþþþþþþþþþþþþþþþþþþþþ»
 0025DA 4900 BC50/47D0_      00C50 19176                       CEIL  R0,CPLCOL           Don't go past last col
 0025E6 4A10 BC4E            00C4E 19182                       AH    R1,CPFCOL
 0025EA 4B00 BC4E            00C4E 19183                       SH    R0,CPFCOL
 0025EE 47B0 701E/1B00       025F4 19184                       IF    NEG,'CLEAR R0'
                                   19204
 0025F4 58F0 6008/58E0_      00008 19205                       SEG   (R1),(R0)           Write line
 0025FE 1B00/58F0 6008_            19226                       SEGCR
                                   19248
 00260A 41F0 0001/5EF0_      00001 19249                       INCR  R15,QRLCNT          Count number of lines sent
                                   19255                       ¿þþþþþþþþþþþþþþþþþþþþþþþþþþþþþþþþþþþþþþþþþþþþþþþþþþþþþþþþþþþþþþþÜ
                                   19256                       Ÿ  Check for incoming responses from the server (this normally  Ÿ
                                   19257                       Ÿ    should not happen, since the server is supposed to wait    Ÿ
                                   19258                       Ÿ    until we are done with the input before complaining).      Ÿ
                                   19259                       ¾þþþþþþþþþþþþþþþþþþþþþþþþþþþþþþþþþþþþþþþþþþþþþþþþþþþþþþþþþþþþþþþ»
 002616 58F0 6004            00004 19260                       L     R15,QRSVIBP         Get SVIB ptr
 00261A 58E0 71B6/0DEE       0278C 19261                       ACALL SERVCHKL            Check for incoming responses
                                   19265
 002620 18D8/9808 D004_            19266                       PEND
 DROP   QRWA,R6
 DROP   *,R7
                                   19291
                                   19292                       SEGDEF DUMMY              (Neatness)
                                   19293
                                   19294                       QLTORG
1QUERY    (QUER2193) (12:52) (15MAR04) QFETCH Command                                                                       Page   47
0Current Usings:  (CP,R11) (CV,R12)
0Loc    Object Code    Addr1 Addr2  Stmt Lv Lineno    Source Statement           (Hibal 5, Asmedit 3.3)  HLASM R4.0  2004/03/15 12.52
+___    ______ ____    _____ _____  ____ __ ______    ______ _________
0                                  19381              ¿þþþþþþþþþþþþþþþþþþþþþþþþþþþþþþþþþþþþþþþþþþþþþþþþþþþþþþþþþþþþþþþþþþþþþÜ
                                   19382              Ÿ                                                                     Ÿ
                                   19383              Ÿ  QFETCH -- QFETCH Command.                                          Ÿ
                                   19384              Ÿ                                                                     Ÿ
                                                      ¾þþþþþþþþþþþþþþþþþþþþþþþþþþþþþþþþþþþþþþþþþþþþþþþþþþþþþþþþþþþþþþþþþþþþþ»
0000000                00000 00258 19385              QFETWA   RECORD BEGIN
 000000 00                         19393  1           QFFLAG     FLAG
 QFFLAG.QFFDISPLAY 80 ONES         19397  1                      FLAG  QFFDISPLAY          - DISPLAY option
 QFFLAG.QFFAPPEND  40 ONES         19402  1                      FLAG  QFFAPPEND           - APPEND option
 QFFLAG.QFFUNFORMA 20 ONES         19407  1                      FLAG  QFFUNFORMATTED      - UNFORMATTED option
                                   19412  1
 000001                            19413  1           QFRC       DS    CL3                 Return code information
 000004                            19414  1           QFNLINES   DS    F                   Number of lines fetched
 000008                            19415  1           QFNTBLS    DS    F                   Number of tables fetched
                                   19416  1
 00000C                            19417  1           QFWRAP     DS    F                   WRAP length
 000010                            19418  1           QFTOLNO    DS    F                   TO line-number
 000014                            19419  1           QFBYLNO    DS    F                   BY delta
 000018                            19420  1           QFLASTLN   DS    F                   Last line-number added
                                   19421  1
                                   19422  1           QFSEGCB    SEGCB ,                   Output SEGCB
 00001C 00                         19423  1 01-SEGCB +$$$SEGCB358   DS 0F
 QFSEGCBCOD.QFSEGC 01 EQ
 QFSEGCBCOD.QFSEGC 02 EQ
 QFSEGCBCOD.QFSEGC 03 EQ
 QFSEGCBCOD.QFSEGC 04 EQ
 QFSEGCBCOD.QFSEGC 05 EQ
 QFSEGCBCOD.QFSEGC 06 EQ
 QFSEGCBCOD.QFSEGC 07 EQ
 00001D 00                         19498  1 01-SEGCB +           DC    X'00'               Reserved
 00001E 0000                              1          +
 000020 00000000                   19499  1 01-SEGCB +QFSEGCBMAXF   DC A(0)                Maximum buffer length
 000024 00000000                   19500  1 01-SEGCB +QFSEGCBMRKF   DC A(0)                Length at last mark
 000028 00000000                   19501  1 01-SEGCB +QFSEGCBLENF   DC A(0)                Current length
 00002C 00000000                   19502  1 01-SEGCB +QFSEGCBINDF   DC A(0)                Overflow/indent count
 000030 00000000                   19503  1 01-SEGCB +QFSEGCBERR   DC  A(0)                Address of error recovery routine
 000034 0000000000000000           19504  1 01-SEGCB +           DC    2F'0'               Reserved
 00003C 00000000                   19505  1 01-SEGCB +QFSEGCBLOC   DC  A(0)                Location of buffer
 000040 00000000                   19506  1 01-SEGCB +QFSEGCBRTN   DC  A(0)                Processing routine
 000044 0000000000000000           19507  1 01-SEGCB +           DC    4F'0'               Reserved
 000054 00000000                   19508  1 01-SEGCB +QFSEGCBUSR   DC  A(0)                USER field
                                   19509  1 01-SEGCB +QFSEGCB    EQU   $$$SEGCB358,*-$$$SEGCB358,C'X'
 000058                            19510  1           QFSEGBUF   DS    XL512               Working output buffer
 000258                00258 00258 19511                       END
                                   19520              þþþþ
 0028DA 50E0 D000/9008_      00000 19521              QFETCH   XPROC QFETWA
 USING  *,R7
 USING  QFETWA-(4+36),R8
 0028F4 4160 8028            00000 19572                       LA    R6,QFETWA
 USING  QFETWA,R6                  19573                       WITH  (QFETWA,R6)
 0028F8 D7FF 6000 6000_00000 00000 19586                       CLEAR QFETWA
                                   19595
 00290A D203 6010 7784 00010 03078 19596                       MVC   QFTOLNO,=F'-1'      Calculate TO lineno
1QUERY    (QUER2193) (12:52) (15MAR04) QFETCH Command                                                                       Page   48
0Current Usings:  (QFETWA,R6) (*,R7) (QFETWA-(4+36),R8) (CP,R11) (CV,R12)
0Loc    Object Code    Addr1 Addr2  Stmt Lv Lineno    Source Statement           (Hibal 5, Asmedit 3.3)  HLASM R4.0  2004/03/15 12.52
+___    ______ ____    _____ _____  ____ __ ______    ______ _________
0002910 D203 6014 B738 00014 00738 19597                       MVC   QFBYLNO,CPDELTA     Use default DELTA
 002916 D203 6018 7784 00018 03078 19598                       MVC   QFLASTLN,=F'-1'     Last lineno added
 00291C D203 600C 7788 0000C 0307C 19599                       MVC   QFWRAP,=F'230'      Default wrap length
                                   19600                       ¿þþþþþþþþþþþþþþþþþþþþþþþþþþþÜ
                                   19601                       Ÿ  Scan for server number.  Ÿ
                                   19602                       ¾þþþþþþþþþþþþþþþþþþþþþþþþþþþ»
 002922 58E0 778C/0DEE       03080 19603                       ACALL SERVSCANSVIB        Get SVIB ptr
 002928 185F                       19607                       LR    R5,R15
 USING  SVIB,R5                    19608                       WITH  (SVIB,R5)
                                   19621                       ¿þþþþþþþþþþþþþþþþþþþþþþþþÜ
                                   19622                       Ÿ  Scan QFETCH options.  Ÿ
                                   19623                       ¾þþþþþþþþþþþþþþþþþþþþþþþþ»
 00292A 5810 B08C/1B00_      0008C 19624                       SCAN  QFETPRT             QFETCH options
 00297C 58E0 7798/0DEE       0308C 19656                       SCANCHK
                                   19661                       ¿þþþþþþþþþþþþþþþþþþþþþþþþþþþþþþþþÜ
                                   19662                       Ÿ  First clear the Active file.  Ÿ
                                   19663                       ¾þþþþþþþþþþþþþþþþþþþþþþþþþþþþþþþþ»
 002982 9180 6000/4710_00000       19664                       IF    (~QFFDISPLAY,AND,~QFFAPPEND),BEGIN
 002992 58E0 779C/0DEE       03090 19693  1                      VCALL CLRTEXT             Clear/Keep
 002998 D207 B588 7714 00588 03008 19697  1                      MVC   CPANAME,=CL8'QFETCH'   Set Active name
 00299E D24F B5D6 771C 005D6 03010 19698  1                      MVC   CPATITL,=CL(L'CPATITL)'Query results'
 0029A4 9620 BD54      00D54       19699  1                      SET   CPLFLG5.CPFNLST     (In case LSLNMSGA abort)
 0029A8                            19706                       END
                                   19710                       ¿þþþþþþþþþþþþþþþþþþþþþþþþþþþþþþþþþþþþþþþþþþþþþÜ
                                   19711                       Ÿ  Calculate starting line-number and delta.  Ÿ
                                   19712                       ¾þþþþþþþþþþþþþþþþþþþþþþþþþþþþþþþþþþþþþþþþþþþþþ»
 0029A8 9180 6000/4710_00000       19713                       IF    ~QFFDISPLAY,BEGIN   Not DISPLAY...
 0029B0 5810 6010/1211_      00010 19728  1                      IF    ('LT R1,QFTOLNO',NEG),BEGIN  Figure it out...
 0029BA 5800 B5A4            005A4 19744  2                        L     R0,CPALLNO          Last line-number
 0029BE 5810 6014            00014 19745  2                        L     R1,QFBYLNO          Delta
 0029C2 58E0 77A0/0DEE       03094 19746  2                        VCALL ADDER               Get next lineno
 0029C8 47B0 70E4            029D8 19750  2                        IF    NEG,BEGIN           Trouble...
 0029CC 4110 77E2/4100_      030D6 19761  3                          ABORT 'Bad line-number, can''t APPEND.'
 0029D8                            19768  2                        END
 0029D8 5000 6010            00010 19772  2                        ST    R0,QFTOLNO          Save TO lineno
 0029DC                            19773  1                      END
 0029DC                            19777                       END
                                   19781                       ¿þþþþþþþþþþþþþþþþþþþþþþþþþþþþþþþþþþþþþÜ
                                   19782                       Ÿ  Initialize our output seg buffer.  Ÿ
                                   19783                       ¾þþþþþþþþþþþþþþþþþþþþþþþþþþþþþþþþþþþþþ»
 0029DC 4110 6058/4100_      00058 19784                       SEGINIT QFSEGBUF,,QFSEGCB,RTN=QFETSEG
 0029FC 5060 6054            00054 19826                       ST    R6,QFSEGCBUSR       Save QFETWA ptr in SEGCB
                                   19827                       ¿þþþþþþþþþþþþþþþþþþþþþþþþþþþþþþþÜ
                                   19828                       Ÿ  Display the response lines.  Ÿ
                                   19829                       ¾þþþþþþþþþþþþþþþþþþþþþþþþþþþþþþþ»
 002A00 9200 504B      0004B       19830                       CLEAR SVIBLOCALF          Reset local flags
 002A04 9120 6000/4710_00000       19837                       IF    ~QFFUNFORMATTED,'SET SVIBFBUFFER'  Must buffer
                                   19863
 002A10                            19864              QFETLOOP LOOP  BEGIN
 002A10 41F0 5000            00000 19871  1                      LA    R15,SVIB
 002A14 58E0 77B0/0DEE       030A4 19872  1                      ACALL SERVGETL            Get first/next response line
 002A1A 4770 71E4            02AD8 19876  1                      IF    NZ,EXIT             Trouble, scram
                                   19890  1
 002A1E D502 7816 1000_0310A 00000 19891  1                      IF    (@R1,EQ,'101'),'INCR R15,QFNTBLS'  Count table
1QUERY    (QUER2193) (12:52) (15MAR04) QFETCH Command                                                                       Page   49
0Current Usings:  (SVIB,R5) (QFETWA,R6) (*,R7) (QFETWA-(4+36),R8) (CP,R11) (CV,R12)
0Loc    Object Code    Addr1 Addr2  Stmt Lv Lineno    Source Statement           (Hibal 5, Asmedit 3.3)  HLASM R4.0  2004/03/15 12.52
+___    ______ ____    _____ _____  ____ __ ______    ______ _________
0                                  19918  1                      ¿þþþþþþþþþþþþþþþþþþþþþþþþþþþþþþþþþþþþþÜ
                                   19919  1                      Ÿ  Output unformatted response line.  Ÿ
                                   19920  1                      ¾þþþþþþþþþþþþþþþþþþþþþþþþþþþþþþþþþþþþþ»
 002A34 9120 6000/47E0_00000       19921  1                      IF    QFFUNFORMATTED,BEGIN  Unformatted...
 002A3C 9001 D000/41D0_      00000 19936  2                        XPUSH R0,R1
 002A44 1831                       19939  2                        LR    R3,R1
 002A46 1820                       19940  2                        LR    R2,R0
 002A48 5920 600C/47D0_      0000C 19941  2                        WHILE (R2,GT,QFWRAP),BEGIN  Wrap long response lines...
 002A50 1813/5800 600C_            19960  3                          SEG   @R3,L:QFWRAP        Add text segment
 002A60 4110 7819/4100_      0310D 19987  3                          SEGCR '\'                 Plus wrap indicator
 002A72 5A30 600C            0000C 20005  3                          A     R3,QFWRAP
 002A76 5B20 600C            0000C 20006  3                          S     R2,QFWRAP
 002A7A 47F0 7154            02A48 20007  2                        END
                                   20012  2
 002A7E 1813/1802/41F0_            20013  2                        SEG   (R3),(R2)           Unformatted response line
 002A8C 4110 781A/4100_      0310E 20038  2                        SEGCR ';'                 End line with semicolon
 002A9E 4770 C7DA            007DA 20056  2                        BNZ   CVABORT             Trouble, scram
 002AA2 4BD0 7800/9801_      030F4 20057  2                        XPOP  R0,R1
 002AAA                            20060  1                      END
                                   20064  1                      ¿þþþþþþþþþþþþþþþþþþþþþþþþþþþþþþþþþþþÜ
                                   20065  1                      Ÿ  Output formatted response line.  Ÿ
                                   20066  1                      ¾þþþþþþþþþþþþþþþþþþþþþþþþþþþþþþþþþþþ»
 002AAA 71BA/47F0 71C8 02AAA 02A3A 20067  1                      ELSE  BEGIN               Formatted...
 002AAE 41F0 5000            00000 20078  2                        LA    R15,SVIB
                                   20079  2                        SETMSG (R1),(R0)
 002AB2 4120 601C            0001C 20089  2                        LA    R2,QFSEGCB
 002AB6 58E0 77BC/0DEE       030B0 20090  2                        ACALL SERVFMTL            Format response line
 002ABC                            20094  1                      END
                                   20098  1                      ¿þþþþþþþþþþþþþþþþþþþþþþþþþþþþþþþþþþþþþþþþþþþþÜ
                                   20099  1                      Ÿ  Check for completion of response stream.  Ÿ
                                   20100  1                      ¾þþþþþþþþþþþþþþþþþþþþþþþþþþþþþþþþþþþþþþþþþþþþ»
 002ABC 95F2 1000/4780_00000       20101  1                      IF    (@R1,EQ,'2'),EXIT
 002AC4 95F4 1000/4780_00000       20120  1                      IF    (@R1,EQ,'4'),EXIT
 002ACC 95F5 1000/4780_00000       20139  1                      IF    (@R1,EQ,'5'),EXIT
 002AD4 47F0 711C            02A10 20158                       END
                                   20163                       ¿þþþþþþþþþþþþþþþþþþþþþþþþþþþþþþþþþÜ
                                   20164                       Ÿ  Write out completion message.  Ÿ
                                   20165                       ¾þþþþþþþþþþþþþþþþþþþþþþþþþþþþþþþþþ»
 002AD8 95F2 1000/4770_00000       20166                       IF    (@R1,EQ,'2'),BEGIN  Normal completion...
 002AE0 9110 B477/47E0_00477       20182  1                      IF    ~CPFTYPED,CVNEXT    Non-typed command, scram
 002AE8                            20200                       END
                                   20204
 002AE8 9001 D000/41D0_      00000 20205                       XPUSH R0,R1
 002AF0 95F2 1000/4770_00000       20208                       IF    (@R1,EQ,'2'),'TSEG "Normal completion"'
 002B0A 721A/47F0 722C_02B0A 02AF6 20247                       ELSE  'TSEG "Error completion"'
 002B20 4BD0 7800/9801_      030F4 20281                       XPOP  R0,R1
                                   20284
 002B28 95F2 1000/4780_00000       20285                       IF    ((@R1,EQ,'2'),OR,(@R1,EQ,'4'),OR,(@R1,EQ,'5')),BEGIN
 002B40 4110 1004            00004 20329  1                      LA    R1,@R1+4            Skip past error number
 002B44 4B00 7802            030F6 20330  1                      SH    R0,=H'4'
 002B48                            20331                       END
                                   20335
 002B48 58E0 77C0/0DEE       030B4 20336                       VCALL LRTRIM
 002B4E 1200/47D0 728C             20340                       IF    (R0,POS),BEGIN      Write out any message text...
1QUERY    (QUER2193) (12:52) (15MAR04) QFETCH Command                                                                       Page   50
0Current Usings:  (SVIB,R5) (QFETWA,R6) (*,R7) (QFETWA-(4+36),R8) (CP,R11) (CV,R12)
0Loc    Object Code    Addr1 Addr2  Stmt Lv Lineno    Source Statement           (Hibal 5, Asmedit 3.3)  HLASM R4.0  2004/03/15 12.52
+___    ______ ____    _____ _____  ____ __ ______    ______ _________
0002B54 9001 D000/41D0_      00000 20354  1                      XPUSH R0,R1
 002B5C 4110 7804/4100_      030F8 20357  1                      TSEG  ': '
 002B6E 4BD0 7800/9801_      030F4 20375  1                      XPOP  R0,R1
 002B76 41F0 B050/58E0_      00050 20378  1                      TSEG  (R1),(R0)
 002B80                            20402                       END
 002B80 1B00/41F0 B050_            20406                       TCR
                                   20431                       ¿þþþþþþþþþþþþþþþþþþþþþþþþþþþþþþþþþÜ
                                   20432                       Ÿ  And finally the summary line.  Ÿ
                                   20433                       ¾þþþþþþþþþþþþþþþþþþþþþþþþþþþþþþþþþ»
 002B8C 5810 6008/1B00_      00008 20434                       TNUM  L:QFNTBLS
 002B9C 4110 782C/4100_      03120 20456                       SETMSG ' tables'
 002BA4 D503 77C8 6008_030BC 00008 20460                       IF    (QFNTBLS,EQ,1),'DECR R0'
 002BB0 41F0 B050/58E0_      00050 20485                       TSEG  (R1),(R0)
 002BBA 4110 777C/4100_      03070 20509                       TSEG  ' fetched'
                                   20527
 002BCC D503 77CC 6018_030C0 00018 20528                       IF    (QFLASTLN,NE,-1),BEGIN
 002BD6 4110 7806/4100_      030FA 20546  1                      TSEG  ', '
 002BE8 5800 6018            00018 20564  1                      L     R0,QFLASTLN
 002BEC 58E0 77D0/0DEE       030C4 20565  1                      VCALL CVEXNO
 002BF2 41F0 B050/58E0_      00050 20569  1                      TSEG  (R1),(R0)
 002BFC 4110 7833/4100_      03127 20593  1                      TSEG  ' is the last line'
 002C0E                            20611                       END
                                   20615
 002C0E 4110 7844/4100_      03138 20616                       TSEG  '.'
                                   20634
 002C20 47F0 C7DE            007DE 20635                       B     CVNEXT
 002C24 18D8/9808 D004_            20636                       PEND
 DROP   SVIB,R5
 DROP   QFETWA,R6
 DROP   QFETWA-(4+36),R8
 DROP   *,R7
1QUERY    (QUER2193) (12:52) (15MAR04) QFETCH Command                                                                       Page   51
0Current Usings:  (CP,R11) (CV,R12)
0Loc    Object Code    Addr1 Addr2  Stmt Lv Lineno    Source Statement           (Hibal 5, Asmedit 3.3)  HLASM R4.0  2004/03/15 12.52
+___    ______ ____    _____ _____  ____ __ ______    ______ _________
0                                  20672                       ¿þþþþþþþþþþþþþþþþþþÜ
                                   20673                       Ÿ  QFETCH Options  Ÿ
                                   20674                       ¾þþþþþþþþþþþþþþþþþþ»
 002C34 C4C9E2D7D3C1E840_          20675              QFETPRT  SCKW  DISPLAY,QFETDISP,A
 002C5C E4D5C6D6D9D4C1E3_          20690                       SCKW  UNFORMATTED,QFETUNFM,A
 002C84 C6D6D9D4C1E3E3C5_          20705                       SCKW  FORMATTED,QFETFMT,A
 002CAC E6D9C1D740404040_          20720                       SCKW  WRAP,QFETWRAP,(A,P,PI),234
 002CD4 C1D7D7C5D5C44040_          20735                       SCKW  APPEND,QFETAPP,A
 002CFC E3D6404040404040_          20750                       SCKW  TO,QFETTO,V(MPSYMLN)
 002D24 C2E8404040404040_          20765                       SCKW  BY,QFETBY,(P,LN)
 002D4C 4040404040404040_          20780                       SCKW  ,V(CLRPSH),PUSH
 002D74 4040404040404040_          20795                       SCKW  ,V(SCNINVAL)
                                   20810              þþþþ
 002D9C 50E0 D000/9008_      00000 20811              QFETDISP PROC
 USING  *,R7
 USING  QFETWA,R6                  20850                       WITH  (QFETWA,R6)
 002DB6 9680 6000      00000       20863                       SET   QFFDISPLAY
 002DBA 18D8/9808 D004_            20869                       PEND
 DROP   QFETWA,R6
 DROP   *,R7
                                   20894
 002DC8 50E0 D000/9008_      00000 20895              QFETUNFM PROC
 USING  *,R7
 USING  QFETWA,R6                  20934                       WITH  (QFETWA,R6)
 002DE2 9620 6000      00000       20947                       SET   QFFUNFORMATTED
 002DE6 18D8/9808 D004_            20953                       PEND
 DROP   QFETWA,R6
 DROP   *,R7
                                   20978
 002DF4 50E0 D000/9008_      00000 20979              QFETFMT  PROC
 USING  *,R7
 USING  QFETWA,R6                  21018                       WITH  (QFETWA,R6)
 002E0E 94DF 6000      00000       21031                       CLEAR QFFUNFORMATTED
 002E12 18D8/9808 D004_            21038                       PEND
 DROP   QFETWA,R6
 DROP   *,R7
                                   21063
 002E20 50E0 D000/9008_      00000 21064              QFETAPP  PROC
 USING  *,R7
 USING  QFETWA,R6                  21103                       WITH  (QFETWA,R6)
 002E3A 9640 6000      00000       21116                       SET   QFFAPPEND
 002E3E 18D8/9808 D004_            21122                       PEND
 DROP   QFETWA,R6
 DROP   *,R7
                                   21147
 002E4C 50E0 D000/9008_      00000 21148              QFETTO   PROC
 USING  *,R7
 USING  QFETWA,R6                  21187                       WITH  (QFETWA,R6)
 002E66 5000 6010            00010 21200                       ST    R0,QFTOLNO
 002E6A 18D8/9808 D004_            21201                       PEND
 DROP   QFETWA,R6
 DROP   *,R7
                                   21226
 002E78 50E0 D000/9008_      00000 21227              QFETBY   PROC
1QUERY    (QUER2193) (12:52) (15MAR04) QFETCH Command                                                                       Page   52
0Current Usings:  (*,R7) (CP,R11) (CV,R12)
0Loc    Object Code    Addr1 Addr2  Stmt Lv Lineno    Source Statement           (Hibal 5, Asmedit 3.3)  HLASM R4.0  2004/03/15 12.52
+___    ______ ____    _____ _____  ____ __ ______    ______ _________
0USING  *,R7
 USING  QFETWA,R6                  21266                       WITH  (QFETWA,R6)
 002E92 5000 6014            00014 21279                       ST    R0,QFBYLNO
 002E96 18D8/9808 D004_            21280                       PEND
 DROP   QFETWA,R6
 DROP   *,R7
                                   21305
 002EA4 50E0 D000/9008_      00000 21306              QFETWRAP PROC
 USING  *,R7
 USING  QFETWA,R6                  21345                       WITH  (QFETWA,R6)
 002EBE 5000 600C            0000C 21358                       ST    R0,QFWRAP
 002EC2 18D8/9808 D004_            21359                       PEND
 DROP   QFETWA,R6
 DROP   *,R7
                                   21384
                                   21385                       SEGDEF DUMMY              (Neatness)
1QUERY    (QUER2193) (12:52) (15MAR04) QFETCH Command                                                                       Page   53
0Current Usings:  (CP,R11) (CV,R12)
0Loc    Object Code    Addr1 Addr2  Stmt Lv Lineno    Source Statement           (Hibal 5, Asmedit 3.3)  HLASM R4.0  2004/03/15 12.52
+___    ______ ____    _____ _____  ____ __ ______    ______ _________
0                                  21387              ¿þþþþþþþþþþþþþþþþþþþþþþþþþþþþþþþþþþþþþþþþþþþþþþþþþþþþþþþþþþþþþþþþþþþþþÜ
                                   21388              Ÿ                                                                     Ÿ
                                   21389              Ÿ  QFETSEG -- Routine to write the contents of our seg buffer to      Ÿ
                                   21390              Ÿ    the Active file (or to the terminal if DISPLAY was specified).   Ÿ
                                   21391              Ÿ                                                                     Ÿ
                                   21392              Ÿ    On entry:                                                        Ÿ
                                   21393              Ÿ      R15 - SEGCB ptr                                                Ÿ
                                   21394              Ÿ                                                                     Ÿ
                                                      ¾þþþþþþþþþþþþþþþþþþþþþþþþþþþþþþþþþþþþþþþþþþþþþþþþþþþþþþþþþþþþþþþþþþþþþ»
0002ED0 50E0 D000/9008_      00000 21395              QFETSEG  PROC
 USING  *,R7
 002EEA 185F                       21434                       LR    R5,R15
 USING  SEGCB,R5                   21435                       WITH  (SEGCB,R5)
                                   21448
 002EEC 5860 5038            00038 21449                       L     R6,SEGCBUSR         QFETWA ptr
 USING  QFETWA,R6                  21450                       WITH  (QFETWA,R6)
                                   21463                       ¿þþþþþþþþþþþþþþþþÜ
                                   21464                       Ÿ  SEGCR/SEGWR.  Ÿ
                                   21465                       ¾þþþþþþþþþþþþþþþþ»
 002EF0 9506 5000/4780_00000       21466                       IF    (SEGCBCR,OR,SEGCBWR),BEGIN  Write a line...
                                   21495  1                      ¿þþþþþþþþþþþþþþþþþþþþþþþþþþþþþÜ
                                   21496  1                      Ÿ  Display line to terminal.  Ÿ
                                   21497  1                      ¾þþþþþþþþþþþþþþþþþþþþþþþþþþþþþ»
 002F00 9180 6000/47E0_00000       21498  1                      IF    QFFDISPLAY,BEGIN    DISPLAY...
 002F08 41F0 B050/58E0_      00050 21513  2                        TSEG  (R1),(R0),CR
 002F12 4770 C7DA            007DA 21537  2                        BNZ   CVABORT
 002F16                            21538  1                      END
                                   21542  1                      ¿þþþþþþþþþþþþþþþþþþþþþþþþþþþþþþþþÜ
                                   21543  1                      Ÿ  Add line to the Active file.  Ÿ
                                   21544  1                      ¾þþþþþþþþþþþþþþþþþþþþþþþþþþþþþþþþ»
 002F16 7030/47F0 7084 02F16 02F06 21545  1                      ELSE  BEGIN               Add to the Active file...
 002F1A 58F0 6010            00010 21556  2                        L     R15,QFTOLNO         Get TO lineno
                                   21557  2                        SETMSG (R1),(R0)           Line text
 002F1E 4120 71DE            030C8 21567  2                        LA    R2,=C'I...'         Insert only
 002F22 58E0 71E2/0DEE       030CC 21568  2                        VCALL PUTLINEX            Add line to the Active file
 002F28 4780 7074            02F5E 21572  2                        IF    NZ,BEGIN            Can't insert...
 002F2C 4110 724F/4100_      03139 21583  3                          TSEG  'Line '
 002F3E 5800 6010            00010 21601  3                          L     R0,QFTOLNO
 002F42 58E0 71DA/0DEE       030C4 21602  3                          VCALL CVEXNO              Lineno
 002F48 41F0 B050/58E0_      00050 21606  3                          TSEG  (R1),(R0)
 002F52 4110 7254/4100_      0313E 21630  3                          ERROR ' already in file.'
 002F5E                            21637  2                        END
                                   21641  2
 002F5E 58F0 6010            00010 21642  2                        L     R15,QFTOLNO         Line-number we just added
 002F62 50F0 6018            00018 21643  2                        ST    R15,QFLASTLN        Save lineno of line just added
 002F66 5EF0 6014            00014 21644  2                        AL    R15,QFBYLNO         Add delta
 002F6A 50F0 6010            00010 21645  2                        ST    R15,QFTOLNO         Save next line-number to use
 002F6E                            21646  1                      END
                                   21650  1
 002F6E D703 500C 500C_0000C 0000C 21651  1                      CLEAR SEGCBLENF,SEGCBMRKF  Reset seg buffer
 002F7A                            21663                       END
                                   21667
 002F7A 18D8/9808 D004_            21668                       PEND
1QUERY    (QUER2193) (12:52) (15MAR04) QFETCH Command                                                                       Page   54
0Current Usings:  (CP,R11) (CV,R12)
0Loc    Object Code    Addr1 Addr2  Stmt Lv Lineno    Source Statement           (Hibal 5, Asmedit 3.3)  HLASM R4.0  2004/03/15 12.52
+___    ______ ____    _____ _____  ____ __ ______    ______ _________
0DROP   QFETWA,R6
 DROP   SEGCB,R5
 DROP   *,R7
1QUERY    (QUER2193) (12:52) (15MAR04) QFETLINE Routine (for SYSCALL QUERY_FETCH)                                           Page   55
0Current Usings:  (CP,R11) (CV,R12)
0Loc    Object Code    Addr1 Addr2  Stmt Lv Lineno    Source Statement           (Hibal 5, Asmedit 3.3)  HLASM R4.0  2004/03/15 12.52
+___    ______ ____    _____ _____  ____ __ ______    ______ _________
0                                  21699              ¿þþþþþþþþþþþþþþþþþþþþþþþþþþþþþþþþþþþþþþþþþþþþþþþþþþþþþþþþþþþþþþþþþþþþþÜ
                                   21700              Ÿ                                                                     Ÿ
                                   21701              Ÿ  QFETLINE -- Routine to fetch the next response line from the       Ÿ
                                   21702              Ÿ    server.  We are called by the QUERY_FETCH SYSCALL routine.       Ÿ
                                   21703              Ÿ                                                                     Ÿ
                                   21704              Ÿ      On entry:                                                      Ÿ
                                   21705              Ÿ        R15 - server number                                          Ÿ
                                   21706              Ÿ                                                                     Ÿ
                                   21707              Ÿ      On exit, R15 (and cc):                                         Ÿ
                                   21708              Ÿ        0 - OK; R1,R0 - response line loc, len                       Ÿ
                                   21709              Ÿ        4 - error; R1,R0 - error msg                                 Ÿ
                                   21710              Ÿ                                                                     Ÿ
                                                      ¾þþþþþþþþþþþþþþþþþþþþþþþþþþþþþþþþþþþþþþþþþþþþþþþþþþþþþþþþþþþþþþþþþþþþþ»
0002F88 50E0 D000/9008_      00000 21711              QFETLINE XPROC
 USING  *,R7
 002FA2 58E0 712E/0DEE       030D0 21751                       ACALL SERVGET             Get SVIB ptr from server no
 002FA8 4770 701A/4110_      02FBC 21755                       IF    Z,'SETMSG "NO SUCH SERVER"; LA R15,4; B QFLDONE'
 002FBC 185F                       21777                       LR    R5,R15
 USING  SVIB,R5                    21778                       WITH  (SVIB,R5)
                                   21791
 002FBE D603 5168 5168_00168 00168 21792                       IF    (SVIBCRJCB,NZ),BEGIN  Private server...
 002FC8 D503 5168 C1C8_00168 001C8 21808  1                      IF    (SVIBCRJCB,EQ,CVCURJCB),EXIT
 002FD2 4110 71AD/4100_      0314F 21829  1                      SETMSG 'NOT YOUR SERVER'
 002FDA 41F0 0004            00004 21833  1                      LA    R15,4
 002FDE 47F0 704E            02FF0 21834  1                      B     QFLDONE
 002FE2                            21835                       END
                                   21839                       ¿þþþþþþþþþþþþþþþþþþþþþþþþþþþþþþþþþþþþþþþÜ
                                   21840                       Ÿ  Get next response line from server.  Ÿ
                                   21841                       ¾þþþþþþþþþþþþþþþþþþþþþþþþþþþþþþþþþþþþþþþ»
 002FE2 9200 504B      0004B       21842                       CLEAR SVIBLOCALF          Reset local options
 002FE6 41F0 5000            00000 21849                       LA    R15,SVIB
 002FEA 58E0 7102/0DEE       030A4 21850                       ACALL SERVGETL            Get first/next response line
                                   21854
 002FF0 9001 8004            00004 21855              QFLDONE  PRETURN (R0,R1)           Return response (or errmsg)
 002FF4 18D8/9808 D004_            21857                       PEND
 DROP   SVIB,R5
 DROP   *,R7
                                   21882
                                   21883                       QLTORG
1QUERY    (QUER2193) (12:52) (15MAR04) QCLOSE Command                                                                       Page   56
0Current Usings:  (CP,R11) (CV,R12)
0Loc    Object Code    Addr1 Addr2  Stmt Lv Lineno    Source Statement           (Hibal 5, Asmedit 3.3)  HLASM R4.0  2004/03/15 12.52
+___    ______ ____    _____ _____  ____ __ ______    ______ _________
0                                  21940              ¿þþþþþþþþþþþþþþþþþþþþþþþþþþþþþþþþþþþþþþþþþþþþþþþþþþþþþþþþþþþþþþþþþþþþþÜ
                                   21941              Ÿ                                                                     Ÿ
                                   21942              Ÿ  QCLOSE -- QCLOSE Command.                                          Ÿ
                                   21943              Ÿ                                                                     Ÿ
                                                      ¾þþþþþþþþþþþþþþþþþþþþþþþþþþþþþþþþþþþþþþþþþþþþþþþþþþþþþþþþþþþþþþþþþþþþþ»
0000000                00000 00024 21944              QCLWA    RECORD BEGIN
 000000                            21952  1           QCLSNO     DS    F                   Server number
 000004                            21953  1           QCLSNAME   DS    CL(L'SVIBNAME)      Server name
 000024                00024 00024 21954                       END
                                   21963              þþþþ
 00315E 50E0 D000/9008_      00000 21964              QCLOSE   XPROC QCLWA
 USING  *,R7
 USING  QCLWA-(4+36),R8
                                   22015                       ¿þþþþþþþþþþþþþþþþþþþþþþþþþþþÜ
                                   22016                       Ÿ  Scan for server number.  Ÿ
                                   22017                       ¾þþþþþþþþþþþþþþþþþþþþþþþþþþþ»
 003178 58E0 7870/0DEE       039E8 22018                       ACALL SERVSCANSVIB        Get SVIB ptr
 00317E 185F                       22022                       LR    R5,R15
 USING  SVIB,R5                    22023                       WITH  (SVIB,R5)
                                   22036
 003180 D203 8028 5004 00000 00004 22037                       MVC   QCLSNO,SVIBNO       Save server number
 003186 D21F 802C 5008 00004 00008 22038                       MVC   QCLSNAME,SVIBNAME   Save server name
                                   22039                       ¿þþþþþþþþþþþþþþþþþþþþþþþþþþþþþþþþþþþþþþþþþþþþþþÜ
                                   22040                       Ÿ  Remove us from our list of active queries.  Ÿ
                                   22041                       ¾þþþþþþþþþþþþþþþþþþþþþþþþþþþþþþþþþþþþþþþþþþþþþþ»
 00318C 1B33                       22042                       CLEAR R3                  No previous entry ptr
 00318E 4140 B22C            0022C 22046                       LA    R4,CPQINFOQ-(QINFLINK-QINFO)  Dummy queue head
 003192                            22047              QCLINFO  LOOP  BEGIN
 USING  QINFO,R4                   22054  1                      WITH  (QINFO,R4)
 003192 5840 4000/1244_      00000 22067  1                      WHILE ('LT R4,QINFLINK',NZ)
 00319C D503 8028 4004_00000 00004 22084  1                      IF    (QCLSNO,EQ,QINFNO),BEGIN  We found us...
 0031A6 1233/4770 703A_            22102  2                        IF    (R3,Z),'MVC CPQINFOQ,QINFLINK'  Dequeue
 0031B2 703E/47F0 7044_031B2 031AA 22122  2                        ELSE  'MVC QINFLINK-QINFO(4,R3),QINFLINK'  Dequeue
 0031BC 4110 4000            00000 22139  2                        LA    R1,QINFO
 0031C0 58E0 7874/0DEE       039EC 22140  2                        VCALL FREECORE            Release QINFO entry
 0031C6 47F0 7058            031D0 22144  2                        EXIT  QCLINFO
 0031CA                            22147  1                      END
                                   22151  1
 0031CA 1834                       22152  1                      LR    R3,R4               Previous QINFO entry ptr
 0031CC 47F0 701A            03192 22153                       END
 DROP   QINFO,R4
                                   22163                       ¿þþþþþþþþþþþþþþþþþþþþþþþþþþþþþþþþþþþþþþþþÜ
                                   22164                       Ÿ  Close our connection to this server.  Ÿ
                                   22165                       ¾þþþþþþþþþþþþþþþþþþþþþþþþþþþþþþþþþþþþþþþþ»
 0031D0 58F0 5004            00004 22166                       L     R15,SVIBNO          Server number
 0031D4 58E0 7878/0DEE       039F0 22167                       ACALL SERVCLS             Close connection
                                   22171                       ¿þþþþþþþþþþþþþþþþþþþþþþþþÜ
                                   22172                       Ÿ  Give status message.  Ÿ
                                   22173                       ¾þþþþþþþþþþþþþþþþþþþþþþþþ»
 0031DA 4110 7970/4100_      03AE8 22174                       TSEG  'Connection to server '
 0031EC 5810 8028/1B00_      00000 22192                       TNUM  L:QCLSNO
 0031FC 4110 7985/4100_      03AFD 22214                       TSEG  ' '
 00320E 4110 802C/4100_      00004 22232                       TSEG  QCLSNAME,,T
1QUERY    (QUER2193) (12:52) (15MAR04) QCLOSE Command                                                                       Page   57
0Current Usings:  (SVIB,R5) (*,R7) (QCLWA-(4+36),R8) (CP,R11) (CV,R12)
0Loc    Object Code    Addr1 Addr2  Stmt Lv Lineno    Source Statement           (Hibal 5, Asmedit 3.3)  HLASM R4.0  2004/03/15 12.52
+___    ______ ____    _____ _____  ____ __ ______    ______ _________
0003220 4110 7986/4100_      03AFE 22260                       SETMSG ' has been closed.'
 003228 47F0 C7D0            007D0 22264                       B     CVNXTMSG
                                   22265
 00322C 47F0 C7DE            007DE 22266                       B     CVNEXT
 003230 18D8/9808 D004_            22267                       PEND
 DROP   SVIB,R5
 DROP   QCLWA-(4+36),R8
 DROP   *,R7
1QUERY    (QUER2193) (12:52) (15MAR04) QRESET Command                                                                       Page   58
0Current Usings:  (CP,R11) (CV,R12)
0Loc    Object Code    Addr1 Addr2  Stmt Lv Lineno    Source Statement           (Hibal 5, Asmedit 3.3)  HLASM R4.0  2004/03/15 12.52
+___    ______ ____    _____ _____  ____ __ ______    ______ _________
0                                  22298              ¿þþþþþþþþþþþþþþþþþþþþþþþþþþþþþþþþþþþþþþþþþþþþþþþþþþþþþþþþþþþþþþþþþþþþþÜ
                                   22299              Ÿ                                                                     Ÿ
                                   22300              Ÿ  QRESET -- QRESET Command.                                          Ÿ
                                   22301              Ÿ                                                                     Ÿ
                                                      ¾þþþþþþþþþþþþþþþþþþþþþþþþþþþþþþþþþþþþþþþþþþþþþþþþþþþþþþþþþþþþþþþþþþþþþ»
0000000                00000 00004 22302              QRESWA   RECORD BEGIN
 000000                            22310  1           QRESSGP    DS    A                   Network SEGCB ptr
 000004                00004 00004 22311                       END
                                   22320              þþþþ
 00323E 50E0 D000/9008_      00000 22321              QRESET   XPROC QRESWA
 USING  *,R7
 USING  QRESWA-(4+36),R8
                                   22372                       ¿þþþþþþþþþþþþþþþþþþþþþþþþþþþÜ
                                   22373                       Ÿ  Scan for server number.  Ÿ
                                   22374                       ¾þþþþþþþþþþþþþþþþþþþþþþþþþþþ»
 003258 58E0 7790/0DEE       039E8 22375                       ACALL SERVSCANSVIB        Get SVIB ptr
 00325E 185F                       22379                       LR    R5,R15
 USING  SVIB,R5                    22380                       WITH  (SVIB,R5)
 003260 58F0 518C            0018C 22393                       L     R15,SVIBUNET
 003264 4110 F10C            0010C 22394                       WITH  (UNET,R15),'LA R1,UNETOUTSG'
 USING  UNET,R15
 DROP   UNET,R15
 003268 5010 8028            00000 22418                       ST    R1,QRESSGP
                                   22419                       SEGDEF L:QRESSGP
                                   22420
 00326C 5810 B08C/1B00_      0008C 22421                       SCAN  QRESPRT             RESET options
 0032BE 58E0 77B0/0DEE       03A08 22453                       SCANCHK
                                   22458                       ¿þþþþþþþþþþþþþþþþþþþþþþþþþþþþþþþþþþþþþÜ
                                   22459                       Ÿ  If we are sending data then stop.  Ÿ
                                   22460                       ¾þþþþþþþþþþþþþþþþþþþþþþþþþþþþþþþþþþþþþ»
 0032C4 9501 504A/4770_0004A       22461                       IF    SVIBSFDATA,BEGIN    Currently sending data...
 0032CC 4110 78B7/4100_      03B0F 22476  1                      SEGCR '.'                 End of data
 0032DE 1B00/58F0 8028_            22492  1                      SEGWR
                                   22514  1
 0032EA 9200 504A      0004A       22515  1                      SET   SVIBSFNORMAL        Back to normal
                                   22521  1
 0032EE 4110 78B8            03B10 22522  1                      LA    R1,=C'...'
 0032F2 58F0 518C            0018C 22523  1                      L     R15,SVIBUNET
 0032F6 58E0 77BC/0DEE       03A14 22524  1                      ACALL SERVREAD            Wait for completion response
                                   22528  1           *  (Don't bother checking for errors here.)
 0032FC                            22529                       END
                                   22533                       ¿þþþþþþþþþþþþþþþþþþþþþþþþþþþþþþþþþþþþþþþþþþþþþþþþþÜ
                                   22534                       Ÿ  If we are fetching responses then send abort.  Ÿ
                                   22535                       ¾þþþþþþþþþþþþþþþþþþþþþþþþþþþþþþþþþþþþþþþþþþþþþþþþþ»
 0032FC 9502 504A/4770_0004A       22536                       IF    SVIBSFFETCH,BEGIN   Currently fetching responses...
 003304 41F0 5000            00000 22551  1                      LA    R15,SVIB
 003308 58E0 77C0/0DEE       03A18 22552  1                      ACALL SERVABRT            Send ABORT
                                   22556  1
 00330E 4110 78B8            03B10 22557  1                      LA    R1,=C'...'          Wait for completion response
 003312 58F0 518C            0018C 22558  1                      L     R15,SVIBUNET
 003316 58E0 77BC/0DEE       03A14 22559  1                      ACALL SERVREAD            Get completion
                                   22563  1           *  (Don't bother checking for errors here.)
 00331C 9200 504A      0004A       22564  1                      SET   SVIBSFNORMAL        Reset state to normal
1QUERY    (QUER2193) (12:52) (15MAR04) QRESET Command                                                                       Page   59
0Current Usings:  (SVIB,R5) (*,R7) (QRESWA-(4+36),R8) (CP,R11) (CV,R12)
0Loc    Object Code    Addr1 Addr2  Stmt Lv Lineno    Source Statement           (Hibal 5, Asmedit 3.3)  HLASM R4.0  2004/03/15 12.52
+___    ______ ____    _____ _____  ____ __ ______    ______ _________
0003320                            22570                       END
                                   22574                       ¿þþþþþþþþþþþþþþþþþþþþþþþþþþþþþþþþþþþþþþþþþþþþþþþþþþþÜ
                                   22575                       Ÿ  Don't attempt reset if we are in a funny state.  Ÿ
                                   22576                       ¾þþþþþþþþþþþþþþþþþþþþþþþþþþþþþþþþþþþþþþþþþþþþþþþþþþþ»
 003320 9500 504A/4780_0004A       22577                       IF    ~SVIBSFNORMAL,BEGIN  Trouble...
 003328 4110 78BB/4100_      03B13 22592  1                      TSEG  'Server '
 00333A 41F0 5000            00000 22610  1                      LA    R15,SVIB
 00333E 58E0 77C4/0DEE       03A1C 22611  1                      ACALL SERVSEGN
 003344 4110 78C2/4100_      03B1A 22615  1                      TSEG  ' can not be reset (state='
 003356 1FFF/43F0 504A             22633  1                      LC    R15,SVIBSFNORMAL
 00335C 181F/1B00/41F0_            22640  1                      TNUM  (R15)
 00336A 4110 782E/4100_      03A86 22662  1                      ERROR ').'
 003376                            22669                       END
                                   22673                       ¿þþþþþþþþþþþþþþþþþþþþþþþþþþþþþþþþþþþþþþÜ
                                   22674                       Ÿ  Finally, send RESET to the server.  Ÿ
                                   22675                       ¾þþþþþþþþþþþþþþþþþþþþþþþþþþþþþþþþþþþþþþ»
 003376 4110 78DB/4100_      03B33 22676                       SEGCR 'RESET'             RESET server info
 003388 1B00/58F0 8028_            22692                       SEGWR
                                   22714
 003394 4110 78B8            03B10 22715                       LA    R1,=C'...'
 003398 58F0 518C            0018C 22716                       L     R15,SVIBUNET
 00339C 58E0 77BC/0DEE       03A14 22717                       ACALL SERVREAD            Wait for completion response
 0033A2 4770 7152            033AA 22721                       BNZ   QRESERR             Trouble, scram
 0033A6 47F0 C7DE            007DE 22722                       B     CVNEXT
                                   22723                       ¿þþþþþþþþþþþþþþþþþþþþþÜ
                                   22724                       Ÿ  Error completion.  Ÿ
                                   22725                       ¾þþþþþþþþþþþþþþþþþþþþþ»
 0033AA 9001 D000/41D0_      00000 22726              QRESERR  XPUSH R0,R1
 0033B2 4110 7830/4100_      03A88 22729                       TSEG  'Error completion: '
 0033C4 4BD0 7842/9801_      03A9A 22747                       XPOP  R0,R1
                                   22750
 0033CC 9505 1003/4770_00003       22751                       IF    (@R1+3,EQ,X'05'),BEGIN  Display as "(nnn) message"...
 0033D4 9001 D000/41D0_      00000 22767  1                      XPUSH R0,R1
 0033DC 4110 78E0/4100_      03B38 22770  1                      TSEG  '('
 0033EE 4BD0 7842/9801_      03A9A 22788  1                      XPOP  R0,R1
 0033F6 9001 D000/41D0_      00000 22791  1                      XPUSH R0,R1
 0033FE 4100 0003/41F0_      00003 22794  1                      TSEG  @R1,3
 00340C 4110 7844/4100_      03A9C 22823  1                      TSEG  ') '
 00341E 4BD0 7842/9801_      03A9A 22841  1                      XPOP  R0,R1
 003426 4110 1004            00004 22844  1                      LA    R1,@R1+4
 00342A 4B00 7846            03A9E 22845  1                      SH    R0,=H'4'
 00342E                            22846                       END
                                   22850
 00342E 47F0 C7C8            007C8 22851                       ERROR (R1),(R0)           Write out error message
 003432 18D8/9808 D004_            22864                       PEND
 DROP   SVIB,R5
 DROP   QRESWA-(4+36),R8
 DROP   *,R7
                                   22894
                                   22895                       SEGDEF DUMMY              (Neatness)
1QUERY    (QUER2193) (12:52) (15MAR04) QRESET Command                                                                       Page   60
0Current Usings:  (CP,R11) (CV,R12)
0Loc    Object Code    Addr1 Addr2  Stmt Lv Lineno    Source Statement           (Hibal 5, Asmedit 3.3)  HLASM R4.0  2004/03/15 12.52
+___    ______ ____    _____ _____  ____ __ ______    ______ _________
0                                  22896                       ¿þþþþþþþþþþþþþþþþþþþÜ
                                   22897                       Ÿ  QRESET Options.  Ÿ
                                   22898                       ¾þþþþþþþþþþþþþþþþþþþ»
 003440 4040404040404040_          22899              QRESPRT  SCKW  ,V(SCNINVAL)
1QUERY    (QUER2193) (12:52) (15MAR04) QMONITOR Command                                                                     Page   61
0Current Usings:  (CP,R11) (CV,R12)
0Loc    Object Code    Addr1 Addr2  Stmt Lv Lineno    Source Statement           (Hibal 5, Asmedit 3.3)  HLASM R4.0  2004/03/15 12.52
+___    ______ ____    _____ _____  ____ __ ______    ______ _________
0                                  22915              ¿þþþþþþþþþþþþþþþþþþþþþþþþþþþþþþþþþþþþþþþþþþþþþþþþþþþþþþþþþþþþþþþþþþþþþÜ
                                   22916              Ÿ                                                                     Ÿ
                                   22917              Ÿ  QMONITOR -- QMONITOR Command.                                      Ÿ
                                   22918              Ÿ                                                                     Ÿ
                                                      ¾þþþþþþþþþþþþþþþþþþþþþþþþþþþþþþþþþþþþþþþþþþþþþþþþþþþþþþþþþþþþþþþþþþþþþ»
0000000                00000 001C4 22919              QMONWA   RECORD BEGIN
 000000 00                         22927  1           QMONFLAG   FLAG
 QMONFLAG.QMONFACT 80 ONES         22931  1                      FLAG  QMONFACT            - Add trace to end of Active file
                                   22936  1
 000004                            22937  1           QMONSNO    DS    F                   Server number we are monitoring
                                   22938  1
 000008                            22939  1           QMONINTX   DS    4F                  Always re-display last four entries
                                   22940  1           QMONTRCP   EQU   QMONINTX,*-QMONINTX,C'X'
                                   22941  1
 000018                            22942  1                      DS    0F
 000018                            22943  1           QMONSVIB   DS    XL(L'SVIB)          Working SVIB
 0001C4                001C4 001C4 22944                       END
                                   22953              þþþþ
 003468 50E0 D000/9008_      00000 22954              QMONITOR XPROC QMONWA
 USING  *,R7
 USING  QMONWA-(4+36),R8
 003482 4160 8028            00000 23005                       LA    R6,QMONWA
 USING  QMONWA,R6                  23006                       WITH  (QMONWA,R6)
 003486 D7FF 6000 6000_00000 00000 23019                       CLEAR QMONWA
                                   23027                       ¿þþþþþþþþþþþþþþþþþþþþþþþþþþþþþþþþþþþÜ
                                   23028                       Ÿ  Scan for server name or number.  Ÿ
                                   23029                       ¾þþþþþþþþþþþþþþþþþþþþþþþþþþþþþþþþþþþ»
 003492 4150 6018            00018 23030                       LA    R5,QMONSVIB
 USING  SVIB,R5                    23031                       WITH  (SVIB,R5)
                                   23044
 003496 41F0 5000            00000 23045                       LA    R15,SVIB
 00349A 58E0 759E/0DEE       03A20 23046                       ACALL SERVSCANPROTO       Get SVIB ptr
 0034A0 4770 C7D6            007D6 23050                       BNZ   CVERROR
                                   23051
 0034A4 5810 B08C/1B00_      0008C 23052                       SCAN  QMONPRT             QMONITOR options
 0034F6 58E0 7586/0DEE       03A08 23084                       SCANCHK
                                   23089                       ¿þþþþþþþþþþþþþþþþþþþþþþþþþþþþþþþþþþþþþþþþþþþþþþÜ
                                   23090                       Ÿ  Wait for a connection to the named server.  Ÿ
                                   23091                       ¾þþþþþþþþþþþþþþþþþþþþþþþþþþþþþþþþþþþþþþþþþþþþþþ»
 0034FC D603 5004 5004_00004 00004 23092                       IF    (SVIBNO,Z),BEGIN    No server number given...
                                   23108  1                      ¿þþþþþþþþþþþþþþþþþþþþþþþþþþþþþþþÜ
                                   23109  1                      Ÿ  Build a QMW entry and wait.  Ÿ
                                   23110  1                      ¾þþþþþþþþþþþþþþþþþþþþþþþþþþþþþþþ»
 003506 4100 002C            0002C 23111  1                      LA    R0,L'QMW
 00350A 58E0 75A6/0DEE       03A28 23112  1                      VCALL GETCORE
 003510 1841                       23116  1                      LR    R4,R1
 USING  QMW,R4                     23117  1                      WITH  (QMW,R4)
 003512 D72B 4000 4000 00000 00000 23130  1                      CLEAR QMW
 003518 D21F 4008 5008 00008 00008 23137  1                      MVC   QMWNAME,SVIBNAME    Save name of server
 00351E D203 4028 C1C8 00028 001C8 23138  1                      MVC   QMWJCBP,CVCURJCB    Save our JCB ptr
 003524 D203 4000 C228 00000 00228 23139  1                      MVC   QMWLINK,CVQMONQ     Copy old queue head
 00352A 5040 C228            00228 23140  1                      ST    R4,CVQMONQ          Save new queue head
                                   23141  1
1QUERY    (QUER2193) (12:52) (15MAR04) QMONITOR Command                                                                     Page   62
0Current Usings:  (QMW,R4) (SVIB,R5) (QMONWA,R6) (*,R7) (QMONWA-(4+36),R8) (CP,R11) (CV,R12)
0Loc    Object Code    Addr1 Addr2  Stmt Lv Lineno    Source Statement           (Hibal 5, Asmedit 3.3)  HLASM R4.0  2004/03/15 12.52
+___    ______ ____    _____ _____  ____ __ ______    ______ _________
000352E 4110 761E/4100_      03AA0 23142  1                      TSEG  'Waiting for an open of server '
 003540 4110 5008/4100_      00008 23160  1                      TSEG  SVIBNAME,,T
 003552 1B00/41F0 B050_            23188  1           QMONNWT    TWRITE
 00355E 4770 C7DA            007DA 23214  1                      BNZ   CVABORT
                                   23215  1                      ¿þþþþþþþþþþþþþþþþþþþþþþþþþþþþþþþþþþþþþþÜ
                                   23216  1                      Ÿ  Wait for someone to open a server.  Ÿ
                                   23217  1                      ¾þþþþþþþþþþþþþþþþþþþþþþþþþþþþþþþþþþþþþþ»
 003562 5820 C1C8            001C8 23218  1                      L     R2,CVCURJCB
 003566 9610 2061      00061       23219  1                      WITH  (JCB,R2),'SET JCBWWFGEN'  General wait
 USING  JCB,R2
 DROP   JCB,R2
 00356A 41E0 70F6/900F_      03578 23248  1                      PAUSE ,
                                   23255  1
 003578 58E0 75AE/0DEE       03A30 23256  1                      TSTAT
 00357E 4770 C7DA            007DA 23261  1                      BNZ   CVABORT             Attn means stop
                                   23262  1
 003582 5820 4004/1222_      00004 23263  1                      IF    ('LT R2,QMWNO',Z),BEGIN  This shouldn't happen...
 00358C 4110 76B7/4100_      03B39 23279  2                        TSEG  'Still waiting'
 00359E 47F0 70D0            03552 23297  2                        B     QMONNWT
 0035A2                            23298  1                      END
                                   23302  1                      ¿þþþþþþþþþþþþþþþþþþþþþþþþþþÜ
                                   23303  1                      Ÿ  Dequeue our QMW entry.  Ÿ
                                   23304  1                      ¾þþþþþþþþþþþþþþþþþþþþþþþþþþ»
 0035A2 4130 C228            00228 23305  1                      LA    R3,CVQMONQ-(QMWLINK-QMW)  Dummy queue head
 0035A6                            23306  1           QMONDQW    LOOP  BEGIN
 0035A6 1823                       23313  2                        LR    R2,R3               Previous entry
 DROP   QMW,R4                     23314  2                        WITH  (QMW,R3)
 USING  QMW,R3
 0035A8 5830 3000/1233_      00000 23335  2                        WHILE ('LT R3,QMWLINK',NZ)
 0035B2 1934/4770 714A             23352  2                        IF    (R3,EQ,R4),BEGIN    Our entry...
 0035B8 D203 2000 3000 00000 00000 23367  3                          MVC   QMWLINK-QMW(4,R2),QMWLINK  Dequeue
 0035BE 4110 3000            00000 23368  3                          LA    R1,QMW
 0035C2 58E0 756A/0DEE       039EC 23369  3                          VCALL FREECORE            Release memory
 0035C8 47F0 714E            035D0 23373  3                          EXIT  QMONDQW
 0035CC                            23376  2                        END
 0035CC 47F0 7124            035A6 23380  1                      END
 USING  QMW,R4
 DROP   QMW,R3
                                   23399  1
 0035D0 D203 5004 4004 00004 00004 23400  1                      MVC   SVIBNO,QMWNO        Set server number we want
 DROP   QMW,R4                     23401                       END
                                   23410                       ¿þþþþþþþþþþþþþþþþþþþþþþþþþþþþþþþþþþþþþþþþþþþþþþþþþþÜ
                                   23411                       Ÿ  Get the real SVIB ptr given the server number.  Ÿ
                                   23412                       ¾þþþþþþþþþþþþþþþþþþþþþþþþþþþþþþþþþþþþþþþþþþþþþþþþþþ»
 0035D6 58F0 5004            00004 23413                       L     R15,SVIBNO
 0035DA 58E0 75B2/0DEE       03A34 23414                       ACALL SERVGET
 0035E0 4770 7190            03612 23418                       IF    Z,BEGIN             No server...
 0035E4 4110 7691/4100_      03B13 23429  1                      TSEG  'Server '
 0035F6 5810 5004/1B00_      00004 23447  1                      TNUM  L:SVIBNO
 003606 4110 752E/4100_      039B0 23469  1                      ERROR ' does not exist.'
 003612                            23476                       END
                                   23480
 003612 185F                       23481                       LR    R5,R15              Real SVIB ptr
 003614 D203 6004 5004 00004 00004 23482                       MVC   QMONSNO,SVIBNO      Save server number for later
1QUERY    (QUER2193) (12:52) (15MAR04) QMONITOR Command                                                                     Page   63
0Current Usings:  (SVIB,R5) (QMONWA,R6) (*,R7) (QMONWA-(4+36),R8) (CP,R11) (CV,R12)
0Loc    Object Code    Addr1 Addr2  Stmt Lv Lineno    Source Statement           (Hibal 5, Asmedit 3.3)  HLASM R4.0  2004/03/15 12.52
+___    ______ ____    _____ _____  ____ __ ______    ______ _________
0                                  23483                       ¿þþþþþþþþþþþþþþþþþþþþþþþþþþþþþþþþþþþþþþþþþÜ
                                   23484                       Ÿ  We can't monitor a server definition.  Ÿ
                                   23485                       ¾þþþþþþþþþþþþþþþþþþþþþþþþþþþþþþþþþþþþþþþþþ»
 00361A 9501 5048/4770_00048       23486                       IF    SVIB#MASTER,BEGIN   Server definition...
 003622 4110 753E/4100_      039C0 23501  1                      TSEG  'You can''t monitor a definition; '
 003634 4110 763C/4100_      03ABE 23519  1                      TSEG  'try "QMONITOR '
 003646 4110 5008/4100_      00008 23537  1                      TSEG  SVIBNAME,,T
 003658 4110 764A/4100_      03ACC 23565  1                      ERROR '" instead.'
 003664                            23572                       END
                                   23576                       ¿þþþþþþþþþþþþþþþþþþþþþþþþþþþþþþþþþþþþþþþÜ
                                   23577                       Ÿ  Only one user can monitor a server.  Ÿ
                                   23578                       ¾þþþþþþþþþþþþþþþþþþþþþþþþþþþþþþþþþþþþþþþ»
 003664 5830 5174/1233_      00174 23579                       IF    ('LT R3,SVIBMJCB',NZ),BEGIN  Already monitored...
 USING  JCB,R3                     23595  1                      WITH  (JCB,R3)
 00366E 4110 7691/4100_      03B13 23608  1                      TSEG  'Server '
 003680 41F0 5000            00000 23626  1                      LA    R15,SVIB
 003684 58E0 759A/0DEE       03A1C 23627  1                      ACALL SERVSEGN
 00368A 4110 75B6/4100_      03A38 23631  1                      TSEG  ' is already being monitored by line '
 00369C 4810 3048/1B00_      00048 23649  1                      TNUM  LH:JCBSEQ
 0036AC 47F0 C7D6            007D6 23670  1                      ERROR
 DROP   JCB,R3                     23673                       END
                                   23682                       ¿þþþþþþþþþþþþþþþþþþþþþþþþþþþÜ
                                   23683                       Ÿ  Check user's authority.  Ÿ
                                   23684                       ¾þþþþþþþþþþþþþþþþþþþþþþþþþþþ»
 0036B0 95C7 B3B7/4780_003B7       23685                       IF    (CPSGRP,NE,'G'),BEGIN  Disallow...
 0036B8 4110 76C4/4100_      03B46 23702  1                      ERROR 'QMONITOR is privileged.'
 0036C4                            23709                       END
                                   23713
 0036C4 9604 5049      00049       23714                       SET   SVIBFMON            We are monitoring now
 0036C8 D203 5174 C1C8 00174 001C8 23720                       MVC   SVIBMJCB,CVCURJCB   Save our JCB ptr
                                   23721                       ¿þþþþþþþþþþþþþþþþþþþþþþþþþþþþþþþþþþþþþþþÜ
                                   23722                       Ÿ  Display general server information.  Ÿ
                                   23723                       ¾þþþþþþþþþþþþþþþþþþþþþþþþþþþþþþþþþþþþþþþ»
 0036CE 41F0 5000            00000 23724                       LA    R15,SVIB
 0036D2 58E0 75DA/0DEE       03A5C 23725                       ACALL SERVDISP            Display server info
                                   23729                       ¿þþþþþþþþþþþþþþþþþþþþþþþþþþþþþþþþþþþþþþþþþþþþþþþþþþþþþþþÜ
                                   23730                       Ÿ  Set the "shown" flag in all but the last four trace  Ÿ
                                   23731                       Ÿ    table entries.                                     Ÿ
                                   23732                       ¾þþþþþþþþþþþþþþþþþþþþþþþþþþþþþþþþþþþþþþþþþþþþþþþþþþþþþþþ»
 0036D8 D70F 6008 6008 00008 00008 23733                       CLEAR QMONTRCP            Reset ptrs
 0036DE 4140 515C            0015C 23740                       LA    R4,SVIBTRCQH-(STRCLINK-STRC)  Dummy first link
 0036E2                            23741                       LOOP  BEGIN               Go through trace table...
 USING  STRC,R4                    23747  1                      WITH  (STRC,R4)
 0036E2 5840 4004/1244_      00004 23760  1                      WHILE ('LT R4,STRCLINK',NZ)
 0036EC 9680 4010      00010       23777  1                      SET   STRCFSHOWN          Don't display this entry
 0036F0 D20B 6008 600C 00008 0000C 23783  1                      MVC   QMONTRCP(L'QMONTRCP-4),QMONTRCP+4  Shift
 0036F6 5040 6014            00014 23784  1                      ST    R4,QMONTRCP+L'QMONTRCP-4  Add our STRC ptr
 0036FA 47F0 7260            036E2 23785                       END
 DROP   STRC,R4
                                   23795
 0036FE 4130 6008            00008 23796                       LA    R3,QMONTRCP         First ptr
 003702 4140 6018            00018 23797                       LA    R4,QMONTRCP+L'QMONTRCP  End of list
 003706 1934/47B0 72A0             23798                       WHILE (R3,LT,R4),BEGIN    Reset last four entries...
 00370C 58F0 3000/12FF       00000 23815  1                      LT    R15,@R3             STRC ptr
1QUERY    (QUER2193) (12:52) (15MAR04) QMONITOR Command                                                                     Page   64
0Current Usings:  (SVIB,R5) (QMONWA,R6) (*,R7) (QMONWA-(4+36),R8) (CP,R11) (CV,R12)
0Loc    Object Code    Addr1 Addr2  Stmt Lv Lineno    Source Statement           (Hibal 5, Asmedit 3.3)  HLASM R4.0  2004/03/15 12.52
+___    ______ ____    _____ _____  ____ __ ______    ______ _________
0003712 4780 7298            0371A 23819  1                      IF    NZ,BEGIN            We have one...
 003716 947F F010      00010       23830  2                        WITH  (STRC,R15),'CLEAR STRCFSHOWN'  Reset shown flag
 USING  STRC,R15
 DROP   STRC,R15
 00371A                            23860  1                      END
 00371A 4130 3004            00004 23864  1                      LA    R3,@R3+4            Next trace entry
 00371E 47F0 7284            03706 23865                       END
                                   23870                       ¿þþþþþþþþþþþþþþþþþþþþþþþþþþþþþþþþþþþþþþþþþþþþþþþþþþÜ
                                   23871                       Ÿ  Main loop -- break out when user presses ATTN.  Ÿ
                                   23872                       ¾þþþþþþþþþþþþþþþþþþþþþþþþþþþþþþþþþþþþþþþþþþþþþþþþþþ»
 003722                            23873              QMONLOOP LOOP  BEGIN
 003722 4140 515C            0015C 23880  1                      LA    R4,SVIBTRCQH-(STRCLINK-STRC)  Dummy first link
 003726                            23881  1                      LOOP  BEGIN
 USING  STRC,R4                    23887  2                        WITH  (STRC,R4)
 003726 5840 4004/1244_      00004 23900  2                        WHILE ('LT R4,STRCLINK',NZ)
 003730 9180 4010/4710_00010       23917  2                        IF    ~STRCFSHOWN,BEGIN   Not shown yet...
                                   23932  3                          ¿þþþþþþþþþþþþþþþþþþþþþþþþþþþþþþþþþþþþþþþþþþþþþþþþþþþþþÜ
                                   23933  3                          Ÿ  Put a copy of the trace entry in the Active file.  Ÿ
                                   23934  3                          ¾þþþþþþþþþþþþþþþþþþþþþþþþþþþþþþþþþþþþþþþþþþþþþþþþþþþþþ»
 003738 9180 6000/47E0_00000       23935  3                          IF    QMONFACT,BEGIN      Copy to the Active file...
 003740 1B00/41F0 B050_            23950  4                            TWRITE
                                   23975  4
 00374C 9680 BD55      00D55       23976  4                            SET   CPFDUMP             Add to active file
 003750 41F0 4000            00000 23982  4                            LA    R15,STRC
 003754 58E0 75DE/0DEE       03A60 23983  4                            ACALL SERVDTRE
 00375A 1B00/41F0 B050_            23987  4                            TWRITE
 003766 947F BD55      00D55       24012  4                            CLEAR CPFDUMP             Reset
 00376A                            24019  3                          END
                                   24023  3                          ¿þþþþþþþþþþþþþþþþþþþþþþþþþþþþÜ
                                   24024  3                          Ÿ  Display the trace entry.  Ÿ
                                   24025  3                          ¾þþþþþþþþþþþþþþþþþþþþþþþþþþþþ»
 00376A 41F0 4000            00000 24026  3                          LA    R15,STRC
 00376E 58E0 75DE/0DEE       03A60 24027  3                          ACALL SERVDTRE            Display trace entry
 003774 9680 4010      00010       24031  3                          SET   STRCFSHOWN          Entry has been displayed
 003778 94BF 4010      00010       24037  3                          CLEAR STRCFKEEP           Don't keep this any more
 00377C                            24044  2                        END
 00377C 47F0 72A4            03726 24048  1                      END
 DROP   STRC,R4
                                   24058  1
 003780 1B00/41F0 B050_            24059  1                      TWRITE
 00378C 4770 7382            03804 24084  1                      IF    NZ,EXIT             Attn means stop
                                   24098  1                      ¿þþþþþþþþþþþþþþþþþþþþþþþþþþþþþþþþþþþþþþþþþþþÜ
                                   24099  1                      Ÿ  Wait for new trace entries to be added.  Ÿ
                                   24100  1                      ¾þþþþþþþþþþþþþþþþþþþþþþþþþþþþþþþþþþþþþþþþþþþ»
 003790 58F0 5164/12FF       00164 24101  1                      LT    R15,SVIBTRCQT       Newest trace entry
 003796 4780 7320            037A2 24105  1                      IF    NZ,BEGIN            We have something...
 USING  STRC,R15                   24116  2                        WITH  (STRC,R15)
 00379A 9180 F010/47E0_00010       24129  2                        IF    ~STRCFSHOWN,QMONLOOP  We have new entries, loop back
 DROP   STRC,R15                   24147  1                      END
                                   24156  1
 0037A2 5820 C1C8            001C8 24157  1                      L     R2,CVCURJCB
 0037A6 9610 2061      00061       24158  1                      WITH  (JCB,R2),'SET JCBWWFGEN'  General wait
 USING  JCB,R2
 DROP   JCB,R2
1QUERY    (QUER2193) (12:52) (15MAR04) QMONITOR Command                                                                     Page   65
0Current Usings:  (SVIB,R5) (QMONWA,R6) (*,R7) (QMONWA-(4+36),R8) (CP,R11) (CV,R12)
0Loc    Object Code    Addr1 Addr2  Stmt Lv Lineno    Source Statement           (Hibal 5, Asmedit 3.3)  HLASM R4.0  2004/03/15 12.52
+___    ______ ____    _____ _____  ____ __ ______    ______ _________
00037AA 41E0 7336/900F_      037B8 24187  1                      PAUSE ,
                                   24194  1
 0037B8 58E0 75AE/0DEE       03A30 24195  1                      TSTAT
 0037BE 4770 7382            03804 24200  1                      IF    NZ,EXIT             Attn means stop
                                   24214  1                      ¿þþþþþþþþþþþþþþþþþþþþþþþþþþþþþþþþþþþþþþþþþÜ
                                   24215  1                      Ÿ  Make sure the server is still around.  Ÿ
                                   24216  1                      ¾þþþþþþþþþþþþþþþþþþþþþþþþþþþþþþþþþþþþþþþþþ»
 0037C2 58F0 6004            00004 24217  1                      L     R15,QMONSNO         Our server number
 0037C6 58E0 75B2/0DEE       03A34 24218  1                      ACALL SERVGET             Get SVIB ptr
 0037CC 4770 737C            037FE 24222  1                      IF    Z,BEGIN             No server...
 0037D0 4110 7691/4100_      03B13 24233  2                        TSEG  'Server '
 0037E2 5810 5004/1B00_      00004 24251  2                        TNUM  L:SVIBNO
 0037F2 4110 75E2/4100_      03A64 24273  2                        ERROR ' connection has been closed.'
 0037FE                            24280  1                      END
                                   24284  1
 0037FE 185F                       24285  1                      LR    R5,R15              Copy SVIB ptr
 003800 47F0 72A0            03722 24286                       END
                                   24291                       ¿þþþþþþþþþþþþþþþþþþþþÜ
                                   24292                       Ÿ  Stop monitoring.  Ÿ
                                   24293                       ¾þþþþþþþþþþþþþþþþþþþþ»
 003804 94FB 5049      00049       24294                       CLEAR SVIBFMON            No longer monitoring
 003808 D703 5174 5174 00174 00174 24301                       CLEAR SVIBMJCB            Reset our JCB ptr
 00380E 47F0 C7DE            007DE 24308                       B     CVNEXT
 003812 18D8/9808 D004_            24309                       PEND
 DROP   SVIB,R5
 DROP   QMONWA,R6
 DROP   QMONWA-(4+36),R8
 DROP   *,R7
                                   24344                       ¿þþþþþþþþþþþþþþþþþþþþþÜ
                                   24345                       Ÿ  QMONITOR Options.  Ÿ
                                   24346                       ¾þþþþþþþþþþþþþþþþþþþþþ»
 003820 C1C3E3C9E5C54040_          24347              QMONPRT  SCKW  ACTIVE,QMONACT,A
 003848 4040404040404040_          24362                       SCKW  ,V(SCNINVAL)
                                   24377              þþþþ
 003870 50E0 D000/9008_      00000 24378              QMONACT  PROC
 USING  *,R7
 USING  QMONWA,R6                  24417                       WITH  (QMONWA,R6)
 00388A 9680 6000      00000       24430                       SET   QMONFACT
 00388E 18D8/9808 D004_            24436                       PEND
 DROP   QMONWA,R6
 DROP   *,R7
1QUERY    (QUER2193) (12:52) (15MAR04) Common Subroutines                                                                   Page   66
0Current Usings:  (CP,R11) (CV,R12)
0Loc    Object Code    Addr1 Addr2  Stmt Lv Lineno    Source Statement           (Hibal 5, Asmedit 3.3)  HLASM R4.0  2004/03/15 12.52
+___    ______ ____    _____ _____  ____ __ ______    ______ _________
0                                  24462              ¿þþþþþþþþþþþþþþþþþþþþþþþþþþþþþþþþþþþþþþþþþþþþþþþþþþþþþþþþþþþþþþþþþþþþþÜ
                                   24463              Ÿ                                                                     Ÿ
                                   24464              Ÿ  GETQINFO -- Routine to return information about the current        Ÿ
                                   24465              Ÿ    QUERY.                                                           Ÿ
                                   24466              Ÿ                                                                     Ÿ
                                   24467              Ÿ    On exit:                                                         Ÿ
                                   24468              Ÿ      R1,R0 - Current server name loc, len                           Ÿ
                                   24469              Ÿ      R15   - Current server number                                  Ÿ
                                   24470              Ÿ                                                                     Ÿ
                                                      ¾þþþþþþþþþþþþþþþþþþþþþþþþþþþþþþþþþþþþþþþþþþþþþþþþþþþþþþþþþþþþþþþþþþþþþ»
000389C 50E0 D000/9028_      00000 24471              GETQINFO XPROC (R2,LSR)
 USING  *,R7
 0038B6 1B00/1B11                  24511                       CLEAR R0,R1               Assume no name
 0038BA 48F0 7220            03AD6 24517                       LH    R15,=H'-1'          Assume no current server
                                   24518
 0038BE 5850 B22C/1255       0022C 24519                       LT    R5,CPQINFOQ         Current query info ptr
 0038C4 4780 703A            038F0 24523                       IF    NZ,BEGIN            We have one...
 USING  QINFO,R5                   24534  1                      WITH  (QINFO,R5)
 0038C8 58F0 5004            00004 24547  1                      L     R15,QINFNO          Server number
 0038CC 58E0 717E/0DEE       03A34 24548  1                      ACALL SERVGET             Get SVIB ptr
 0038D2 4780 702E            038E4 24552  1                      IF    NZ,BEGIN            We found the server...
 USING  SVIB,R15                   24563  2                        WITH  (SVIB,R15)
 0038D6 4110 F008/4100_      00008 24576  2                        SETMSG SVIBNAME            Server name
 0038DE 58E0 71CA/0DEE       03A80 24590  2                        VCALL RTRIM               Trim trailing blanks
 DROP   SVIB,R15                   24594  1                      END
 0038E4 7032/47F0 7036_038E4 038D4 24603  1                      ELSE  'CLEAR R0,R1'       No server name (unusual)
 0038EC 58F0 5004            00004 24625  1                      L     R15,QINFNO          Server number
 DROP   QINFO,R5                   24626                       END
                                   24635
 0038F0 18D8/9828 D004_            24636                       PEND
 DROP   *,R7
1QUERY    (QUER2193) (12:52) (15MAR04) Common Subroutines                                                                   Page   67
0Current Usings:  (CP,R11) (CV,R12)
0Loc    Object Code    Addr1 Addr2  Stmt Lv Lineno    Source Statement           (Hibal 5, Asmedit 3.3)  HLASM R4.0  2004/03/15 12.52
+___    ______ ____    _____ _____  ____ __ ______    ______ _________
0                                  24657              ¿þþþþþþþþþþþþþþþþþþþþþþþþþþþþþþþþþþþþþþþþþþþþþþþþþþþþþþþþþþþþþþþþþþþþþÜ
                                   24658              Ÿ                                                                     Ÿ
                                   24659              Ÿ  GETQSTAT -- Routine to return information about the state          Ÿ
                                   24660              Ÿ    of the server specified.                                         Ÿ
                                   24661              Ÿ                                                                     Ÿ
                                   24662              Ÿ    On entry:                                                        Ÿ
                                   24663              Ÿ      R15   - server number                                          Ÿ
                                   24664              Ÿ                                                                     Ÿ
                                   24665              Ÿ    On exit:                                                         Ÿ
                                   24666              Ÿ      R1,R0 - message with state (loc,len)                           Ÿ
                                   24667              Ÿ                                                                     Ÿ
                                                      ¾þþþþþþþþþþþþþþþþþþþþþþþþþþþþþþþþþþþþþþþþþþþþþþþþþþþþþþþþþþþþþþþþþþþþþ»
00038FE 50E0 D000/9028_      00000 24668              GETQSTAT XPROC (R2,LSR)
 USING  *,R7
 003918 58E0 711C/0DEE       03A34 24708                       ACALL SERVGET             Get SVIB ptr
                                   24712                       ¿þþþþþþþþþþþþþþþþþþþþþþþþÜ
                                   24713                       Ÿ  We found the server.  Ÿ
                                   24714                       ¾þþþþþþþþþþþþþþþþþþþþþþþþ»
 00391E 4780 707C            03994 24715                       IF    NZ,BEGIN            We found the server...
 USING  SVIB,R15                   24726  1                      WITH  (SVIB,R15)
 003922 4110 71C0/4100_      03AD8 24739  1                      SETMSG 'ACTIVE'
 00392A 9501 F04A/4770_0004A       24743  1                      IF    SVIBSFDATA,'SETMSG "SENDING"'
 00393A 9502 F04A/4770_0004A       24767  1                      IF    SVIBSFFETCH,'SETMSG "FETCHING"'
 00394A 9140 F049/47E0_00049       24791  1                      IF    SVIBFCLOSING,'SETMSG "CLOSING"'
                                   24815  1
 00395A 5850 F18C/1255       0018C 24816  1                      LT    R5,SVIBUNET         UNET ptr
 003960 4780 706C            03984 24820  1                      IF    NZ,BEGIN
 USING  UNET,R5                    24831  2                        WITH  (UNET,R5)
                                   24844  2         C              IF    (UNETFINEOF,OR,UNETFINABORT,OR,
 003964 9104 5164/4710_00164              2                              (UNETSTATE,GE,UNETSFABORT)),BEGIN  Close...
 00397C 4110 724C/4100_      03B64 24888  3                          SETMSG 'CLOSING'
 003984                            24892  2                        END
 DROP   UNET,R5                    24896  1                      END
                                   24905  1
 003984 9501 F048/4770_00048       24906  1                      IF    SVIB#MASTER,'SETMSG "DEFINITION"'
 DROP   SVIB,R15                   24930                       END
                                   24939                       ¿þþþþþþþþþþþþþþþþþþþÜ
                                   24940                       Ÿ  No such server.  Ÿ
                                   24941                       ¾þþþþþþþþþþþþþþþþþþþ»
 003994 7080/47F0 7088_03994 03920 24942                       ELSE  'SETMSG "NOT FOUND"'
                                   24962
 0039A0 18D8/9828 D004_            24963                       PEND
 DROP   *,R7
                                   24983
                                   24984                       QLTORG
1QUERY    (QUER2193) (12:52) (15MAR04) Common Subroutines                                                                   Page   68
0Current Usings:  (CP,R11) (CV,R12)
0Loc    Object Code    Addr1 Addr2  Stmt Lv Lineno    Source Statement           (Hibal 5, Asmedit 3.3)  HLASM R4.0  2004/03/15 12.52
+___    ______ ____    _____ _____  ____ __ ______    ______ _________
0                                  25051              ¿þþþþþþþþþþþþþþþþþþþþþþþþþþþþþþþþþþþþþþþþþþþþþþþþþþþþþþþþþþþþþþþþþþþþþÜ
                                   25052              Ÿ                                                                     Ÿ
                                   25053              Ÿ  SEGFLDS -- Routine to SEG an expanded field line from a            Ÿ
                                   25054              Ÿ    list of field descriptors and tab separated data.                Ÿ
                                   25055              Ÿ                                                                     Ÿ
                                   25056              Ÿ    On entry:                                                        Ÿ
                                   25057              Ÿ      R1,R0 - line location, length                                  Ÿ
                                   25058              Ÿ      R2    - FDEMAP ptr                                             Ÿ
                                   25059              Ÿ      R15   - SEGCB ptr                                              Ÿ
                                   25060              Ÿ                                                                     Ÿ
                                                      ¾þþþþþþþþþþþþþþþþþþþþþþþþþþþþþþþþþþþþþþþþþþþþþþþþþþþþþþþþþþþþþþþþþþþþþ»
0000000                00000 00014 25061              SEGFWA   RECORD BEGIN
 000000                            25069  1           SEGFCBP    DS    A                   SEGCB ptr
 000004                            25070  1           SEGFLNP    DS    2A                  Current data line ptrs
 00000C                            25071  1           SEGFFLDP   DS    2A                  Current field ptrs
 000014                00014 00014 25072                       END
                                   25081              þþþþ
 003B74 50E0 D000/9008_      00000 25082              SEGFLDS  PROC  SEGFWA
 USING  *,R7
 USING  SEGFWA-(4+36),R8
 003B8E 50F0 8028            00000 25132                       ST    R15,SEGFCBP         Save SEGCB ptr
                                   25133                       SEGDEF L:SEGFCBP
                                   25134
 003B92 9001 802C            00004 25135                       STM   R0,R1,SEGFLNP       Save input line ptr
                                   25136
 003B96 1862                       25137                       LR    R6,R2               Copy FDEMAP ptr
                                   25138                       ¿þþþþþþþþþþþþþþþþþþþþþþþÜ
                                   25139                       Ÿ  Display each field.  Ÿ
                                   25140                       ¾þþþþþþþþþþþþþþþþþþþþþþþ»
 003B98                            25141                       LOOP  BEGIN
 USING  FDE,R6                     25147  1                      WITH  (FDE,R6)
                                   25160  1
 003B98 9823 802C            00004 25161  1                      LM    R2,R3,SEGFLNP       Get line ptrs
 003B9C 4DE0 70F6            03C84 25162  1                      LCALL GETFIELD            Get next field
 003BA0 4770 70E8            03C76 25164  1                      IF    NZ,EXIT             All done, scram
 003BA4 9023 802C            00004 25178  1                      STM   R2,R3,SEGFLNP       Save updated line ptrs
 003BA8 9001 8034            0000C 25179  1                      STM   R0,R1,SEGFFLDP      Save field len, loc
                                   25180  1                      ¿þþþþþþþþþþþþþþþþþþþþþþþþÜ
                                   25181  1                      Ÿ  Left centered field.  Ÿ
                                   25182  1                      ¾þþþþþþþþþþþþþþþþþþþþþþþþ»
 003BAC 9501 6000/4770_00000       25183  1                      IF    FDETLEFT,BEGIN      Left centered...
 003BB4 9801 8034            0000C 25198  2                        LM    R0,R1,SEGFFLDP
 003BB8 58F0 8028/58E0_      00000 25199  2                        SEG   (R1),(R0)           Field data
                                   25220  2
 003BC2 4800 6002            00002 25221  2                        LH    R0,FDELEN
 003BC6 5B00 8034            0000C 25222  2                        S     R0,SEGFFLDP
 003BCA 58F0 8028/58E0_      00000 25223  2                        SEGBLANK (R0)             Trailing blank padding
 003BD4                            25238  1                      END
1QUERY    (QUER2193) (12:52) (15MAR04) Common Subroutines                                                                   Page   69
0Current Usings:  (FDE,R6) (*,R7) (SEGFWA-(4+36),R8) (CP,R11) (CV,R12)
0Loc    Object Code    Addr1 Addr2  Stmt Lv Lineno    Source Statement           (Hibal 5, Asmedit 3.3)  HLASM R4.0  2004/03/15 12.52
+___    ______ ____    _____ _____  ____ __ ______    ______ _________
0                                  25242  1                      ¿þþþþþþþþþþþþþþþþþþþþþþþþþÜ
                                   25243  1                      Ÿ  Right centered field.  Ÿ
                                   25244  1                      ¾þþþþþþþþþþþþþþþþþþþþþþþþþ»
 003BD4 704A/47F0 7072_03BD4 03BB2 25245  1                      ELSEIF FDETRIGHT,BEGIN    Right centered field...
 003BE0 4800 6002            00002 25269  2                        LH    R0,FDELEN
 003BE4 5B00 8034            0000C 25270  2                        S     R0,SEGFFLDP
 003BE8 58F0 8028/58E0_      00000 25271  2                        SEGBLANK (R0)             Leading blank padding
                                   25286  2
 003BF2 9801 8034            0000C 25287  2                        LM    R0,R1,SEGFFLDP
 003BF6 58F0 8028/58E0_      00000 25288  2                        SEG   (R1),(R0)           Field data
 003C00                            25309  1                      END
                                   25313  1                      ¿þþþþþþþþþþþþþþþþþþþþþþþþþþÜ
                                   25314  1                      Ÿ  Middle centered field.  Ÿ
                                   25315  1                      ¾þþþþþþþþþþþþþþþþþþþþþþþþþþ»
 003C00 7076/47F0 70B8_03C00 03BDE 25316  1                      ELSEIF FDETCENTER,BEGIN   Centered field...
 003C0C 4800 6002            00002 25340  2                        LH    R0,FDELEN
 003C10 5B00 8034            0000C 25341  2                        S     R0,SEGFFLDP
 003C14 8900 0001            00001 25342  2                        SLL   R0,1                Divided by two
 003C18 1820                       25343  2                        LR    R2,R0               Save leading blank count
 003C1A 58F0 8028/58E0_      00000 25344  2                        SEGBLANK (R0)             Leading blank padding
                                   25359  2
 003C24 9801 8034            0000C 25360  2                        LM    R0,R1,SEGFFLDP
 003C28 58F0 8028/58E0_      00000 25361  2                        SEG   (R1),(R0)           Field data
                                   25382  2
 003C32 4800 6002            00002 25383  2                        LH    R0,FDELEN
 003C36 1B02                       25384  2                        SR    R0,R2               Deduct leading blank count
 003C38 5B00 8034            0000C 25385  2                        S     R0,SEGFFLDP         Deduct field text count
 003C3C 58F0 8028/58E0_      00000 25386  2                        SEGBLANK (R0)             Trailing blank padding
 003C46                            25401  1                      END
                                   25405  1                      ¿þþþþþþþþþþþþþþþþþþþþþþþÜ
                                   25406  1                      Ÿ  Unknown field type.  Ÿ
                                   25407  1                      ¾þþþþþþþþþþþþþþþþþþþþþþþ»
 003C46 70BC/47F0 70C6 03C46 03C0A 25408  1                      ELSE  BEGIN               No field description...
 003C4A 58F0 8028/58E0_      00000 25419  2                        SEG   (R1),(R0)
 003C54                            25440  1                      END
                                   25444  1                      ¿þþþþþþþþþþþþþþþþþþþÜ
                                   25445  1                      Ÿ  Trailing blank.  Ÿ
                                   25446  1                      ¾þþþþþþþþþþþþþþþþþþþ»
 003C54 4110 716E/4100_      03CFC 25447  1                      SEG   '  '
                                   25462  1
 003C66 9500 6000/4780_00000       25463  1                      IF    (FDETYPE,NZ),'LA R6,FDENEXT'  Next FDE
 003C72 47F0 700A            03B98 25485                       END
 DROP   FDE,R6
                                   25495
 003C76 18D8/9808 D004_            25496                       PEND
 DROP   SEGFWA-(4+36),R8
 DROP   *,R7
                                   25521
                                   25522                       SEGDEF DUMMY              (Neatness)
1QUERY    (QUER2193) (12:52) (15MAR04) Common Subroutines                                                                   Page   70
0Current Usings:  (CP,R11) (CV,R12)
0Loc    Object Code    Addr1 Addr2  Stmt Lv Lineno    Source Statement           (Hibal 5, Asmedit 3.3)  HLASM R4.0  2004/03/15 12.52
+___    ______ ____    _____ _____  ____ __ ______    ______ _________
0                                  25524              ¿þþþþþþþþþþþþþþþþþþþþþþþþþþþþþþþþþþþþþþþþþþþþþþþþþþþþþþþþþþþþþþþþþþþþþÜ
                                   25525              Ÿ                                                                     Ÿ
                                   25526              Ÿ  GETFIELD -- Local routine to get the next tab separated field      Ÿ
                                   25527              Ÿ    in the line passed.                                              Ÿ
                                   25528              Ÿ                                                                     Ÿ
                                   25529              Ÿ    On entry:                                                        Ÿ
                                   25530              Ÿ      R3,R2 - line location, length                                  Ÿ
                                   25531              Ÿ                                                                     Ÿ
                                   25532              Ÿ    On exit, R15 (and cc):                                           Ÿ
                                   25533              Ÿ      0 - field returned:                                            Ÿ
                                   25534              Ÿ            R3,R2 = remaining line location, length                  Ÿ
                                   25535              Ÿ            R1,R0 = field loc, len                                   Ÿ
                                   25536              Ÿ                                                                     Ÿ
                                   25537              Ÿ      4 - no more fields                                             Ÿ
                                   25538              Ÿ                                                                     Ÿ
                                                      ¾þþþþþþþþþþþþþþþþþþþþþþþþþþþþþþþþþþþþþþþþþþþþþþþþþþþþþþþþþþþþþþþþþþþþþ»
0003C84 50E0 D000/9048_      00000 25539              GETFIELD PROC  (R4,LSR)
 USING  *,R7
 003C9E 1222/4720 700E_            25578                       IF    (R2,NP),'LA R15,4; EXIT GETFIELD'  Nothing left
                                   25601
 003CAC 1813                       25602                       LR    R1,R3               Set field loc
 003CAE 1B00                       25603                       CLEAR R0                  Initialize field len
 003CB0 1222/47D0 702E_            25607                       WHILE ((R2,POS),AND,(@R3,NE,$TAB)),BEGIN  Look for TAB...
 003CBE 5E00 705A            03CF8 25639  1                      INCR  R0                  Next char
 003CC2 4130 3001            00001 25642  1                      LA    R3,@R3+1
 003CC6 0620                       25643  1                      DECR  R2
 003CC8 47F0 7012            03CB0 25645                       END
                                   25650
 003CCC 1222/47D0 7042_            25651                       IF    ((R2,POS),AND,(@R3,EQ,$TAB)),BEGIN  Sep char...
 003CDA 4130 3001            00001 25681  1                      LA    R3,@R3+1            Skip sep char
 003CDE 0620                       25682  1                      DECR  R2
 003CE0                            25684                       END
                                   25688
 003CE0 1BFF                       25689                       CLEAR R15
 003CE2 18D8/9848 D004_            25693                       PEND
 DROP   *,R7
                                   25713
                                   25714                       QLTORG
1QUERY    (QUER2193) (12:52) (15MAR04) Utility Subroutines                                                                  Page   71
0Current Usings:  (CP,R11) (CV,R12)
0Loc    Object Code    Addr1 Addr2  Stmt Lv Lineno    Source Statement           (Hibal 5, Asmedit 3.3)  HLASM R4.0  2004/03/15 12.52
+___    ______ ____    _____ _____  ____ __ ______    ______ _________
0                                  25731              ¿þþþþþþþþþþþþþþþþþþþþþþþþþþþþþþþþþþþþþþþþþþþþþþþþþþþþþþþþþþþþþþþþþþþþþÜ
                                   25732              Ÿ                                                                     Ÿ
                                   25733              Ÿ  SERVGET -- Routine to get the SVIB given it's server number.       Ÿ
                                   25734              Ÿ                                                                     Ÿ
                                   25735              Ÿ    On entry:                                                        Ÿ
                                   25736              Ÿ      R15 - server number                                            Ÿ
                                   25737              Ÿ                                                                     Ÿ
                                   25738              Ÿ    On exit:                                                         Ÿ
                                   25739              Ÿ      R15 = SVIB ptr (or zero if no such server)                     Ÿ
                                   25740              Ÿ                                                                     Ÿ
                                                      ¾þþþþþþþþþþþþþþþþþþþþþþþþþþþþþþþþþþþþþþþþþþþþþþþþþþþþþþþþþþþþþþþþþþþþþ»
0003CFE 50E0 D000/9008_      00000 25741              SERVGET  PROC
 USING  *,R7
 003D18 185F                       25780                       LR    R5,R15              Server number
                                   25781                       ¿þþþþþþþþþþþþþþþþþþþþþþþþþþþþþþþþþþþþþþþþÜ
                                   25782                       Ÿ  User server (get SVIB from CVUSTAB).  Ÿ
                                   25783                       ¾þþþþþþþþþþþþþþþþþþþþþþþþþþþþþþþþþþþþþþþþ»
                                   25784            C          IF    ((CVUSTAB,NZ),AND,
 003D1A D603 C21C C21C_0021C 0021C                                   (R5,GE,CVUSFNO),AND,(R5,LE,CVUSLNO)),BEGIN
 003D34 5B50 7338            04050 25830  1                      S     R5,=A(CVUSFNO)
 003D38 8950 0002            00002 25831  1                      SLL   R5,2                Times 4 for word offset
 003D3C 5A50 C21C            0021C 25832  1                      A     R5,CVUSTAB          Index table entry ptr
 003D40 58F0 5000            00000 25833  1                      L     R15,@R5             Get SVIB ptr (or zero if none)
 003D44                            25834                       END
                                   25838                       ¿þþþþþþþþþþþþþþþþþþþþþþþþþþþþþþþþþþþþþþþþþþÜ
                                   25839                       Ÿ  Public server (get SVIB from CVPSTAB).  Ÿ
                                   25840                       ¾þþþþþþþþþþþþþþþþþþþþþþþþþþþþþþþþþþþþþþþþþþ»
                                   25841            C          ELSEIF ((CVPSTAB,NZ),AND,
 003D44 7030/7030/7030_03D44 03D22                                   (R5,GE,CVPSFNO),AND,(R5,LE,CVPSLNO)),BEGIN
 003D62 5B50 7340            04058 25900  1                      S     R5,=A(CVPSFNO)
 003D66 8950 0002            00002 25901  1                      SLL   R5,2                Times 4 for word offset
 003D6A 5A50 C210            00210 25902  1                      A     R5,CVPSTAB          Index table entry ptr
 003D6E 58F0 5000            00000 25903  1                      L     R15,@R5             Get SVIB ptr (or zero if none)
 003D72                            25904                       END
                                   25908                       ¿þþþþþþþþþþþþþþþþþþþÜ
                                   25909                       Ÿ  No such server.  Ÿ
                                   25910                       ¾þþþþþþþþþþþþþþþþþþþ»
 003D72 705E/705E/705E_03D72 03D50 25911                       ELSE  BEGIN
 003D76 1BFF                       25926  1                      CLEAR R15                 Sorry guy
 003D78                            25930                       END
                                   25934
 003D78 18D8/9808 D004_            25935                       PEND
 DROP   *,R7
1QUERY    (QUER2193) (12:52) (15MAR04) Utility Subroutines                                                                  Page   72
0Current Usings:  (CP,R11) (CV,R12)
0Loc    Object Code    Addr1 Addr2  Stmt Lv Lineno    Source Statement           (Hibal 5, Asmedit 3.3)  HLASM R4.0  2004/03/15 12.52
+___    ______ ____    _____ _____  ____ __ ______    ______ _________
0                                  25956              ¿þþþþþþþþþþþþþþþþþþþþþþþþþþþþþþþþþþþþþþþþþþþþþþþþþþþþþþþþþþþþþþþþþþþþþÜ
                                   25957              Ÿ                                                                     Ÿ
                                   25958              Ÿ  SERVCHK -- Routine to make sure that the server can be used.       Ÿ
                                   25959              Ÿ                                                                     Ÿ
                                   25960              Ÿ    On entry:                                                        Ÿ
                                   25961              Ÿ      R15 - SVIB ptr; 0 means no server (error)                      Ÿ
                                   25962              Ÿ                                                                     Ÿ
                                   25963              Ÿ    Returns only if OK (R15 = SVIB ptr).                             Ÿ
                                   25964              Ÿ                                                                     Ÿ
                                                      ¾þþþþþþþþþþþþþþþþþþþþþþþþþþþþþþþþþþþþþþþþþþþþþþþþþþþþþþþþþþþþþþþþþþþþþ»
0000000                00000 001F8 25965              SCWA     RECORD BEGIN
 000000                            25973  1           SCKWR      DS    XL(L'KWR)           Working KWR area
 0001F8                001F8 001F8 25974                       END
                                   25983              þþþþ
 003D86 50E0 D000/9008_      00000 25984              SERVCHK  PROC  SCWA
 USING  *,R7
 USING  SCWA-(4+36),R8
                                   26034                       ¿þþþþþþþþþþþþþþþþþþþþþþþþþþþþþþþþþþþþþþÜ
                                   26035                       Ÿ  Make sure we found a server entry.  Ÿ
                                   26036                       ¾þþþþþþþþþþþþþþþþþþþþþþþþþþþþþþþþþþþþþþ»
 003DA0 12FF/4770 7012             26037                       IF    (R15,Z),BEGIN       No server...
 003DA6 4110 72F0/4100_      04090 26051  1                      ERROR 'Server does not exist.'
 003DB2                            26058                       END
                                   26062                       ¿þþþþþþþþþþþþþþþþþþþþþþþþþþþþþþþþþþþþþþþþþþþÜ
                                   26063                       Ÿ  Private server belongs to another user.  Ÿ
                                   26064                       ¾þþþþþþþþþþþþþþþþþþþþþþþþþþþþþþþþþþþþþþþþþþþ»
 003DB2 185F                       26065                       LR    R5,R15
 USING  SVIB,R5                    26066                       WITH  (SVIB,R5)
 003DB4 D503 72C0 5000_04060 00000 26079                       FAIL  (SVIB,NE,'SVIB'),SERVCHK,'Bad SVIB ptr.'
 003DD6 D603 5168 5168_00168 00168 26108                       IF    (SVIBCRJCB,NZ),BEGIN  User server...
 003DE0 D503 5168 C1C8_00168 001C8 26124  1                      IF    (SVIBCRJCB,EQ,CVCURJCB),EXIT  Ours, fine
 003DEA 4110 736E/4100_      0410E 26145  1                      TSEG  'Server '
 003DFC 41F0 5000            00000 26163  1                      LA    R15,SVIB
 003E00 58E0 72C8/0DEE       04068 26164  1                      ACALL SERVSEGN
 003E06 4110 7306/4100_      040A6 26168  1                      TSEG  ' is not yours.',,CR
 003E18 D504 516C B3B4_0016C 003B4 26186  1                      IF    (SVIBCRACCT,EQ,CPSACCT),BEGIN  It's us...
 003E22 4110 7314/4100_      040B4 26204  2                        SETMSG 'OK'
 003E2A 58E0 72D0/0DEE       04070 26208  2                        VCALL YESREQ              Get verification
 003E30                            26212  1                      END
                                   26216  1
 003E30 7094/47F0 70A6 03E30 03E20 26217  1                      ELSE  BEGIN               Get password...
 003E34 4110 8028            00000 26228  2                        LA    R1,SCKWR            KWR area
 003E38 D204 1000 516C 00000 0016C 26229  2                        WITH  (KWR,R1),'MVC KWRACCT,SVIBCRACCT'  Creator's account
 USING  KWR,R1
 DROP   KWR,R1
 003E3E 1B00                       26253  2                        CLEAR R0                  0 = normal mode
 003E40 58E0 72D4/0DEE       04074 26257  2                        VCALL CHKKW               Make them supply password
 003E46                            26261  1                      END
 003E46                            26265                       END
                                   26269
 003E46 41F0 5000            00000 26270                       LA    R15,SVIB            Return SVIB ptr
 003E4A 18D8/9808 D004_            26271                       PEND
 DROP   SVIB,R5
1QUERY    (QUER2193) (12:52) (15MAR04) Utility Subroutines                                                                  Page   73
0Current Usings:  (CP,R11) (CV,R12)
0Loc    Object Code    Addr1 Addr2  Stmt Lv Lineno    Source Statement           (Hibal 5, Asmedit 3.3)  HLASM R4.0  2004/03/15 12.52
+___    ______ ____    _____ _____  ____ __ ______    ______ _________
0DROP   SCWA-(4+36),R8
 DROP   *,R7
1QUERY    (QUER2193) (12:52) (15MAR04) Utility Subroutines                                                                  Page   74
0Current Usings:  (CP,R11) (CV,R12)
0Loc    Object Code    Addr1 Addr2  Stmt Lv Lineno    Source Statement           (Hibal 5, Asmedit 3.3)  HLASM R4.0  2004/03/15 12.52
+___    ______ ____    _____ _____  ____ __ ______    ______ _________
0                                  26302              ¿þþþþþþþþþþþþþþþþþþþþþþþþþþþþþþþþþþþþþþþþþþþþþþþþþþþþþþþþþþþþþþþþþþþþþÜ
                                   26303              Ÿ                                                                     Ÿ
                                   26304              Ÿ  SERVSETPROTO -- Routine to fill in the server name and             Ÿ
                                   26305              Ÿ    number in the SVIB given a server name or server number.         Ÿ
                                   26306              Ÿ                                                                     Ÿ
                                   26307              Ÿ    On entry:                                                        Ÿ
                                   26308              Ÿ      R15 - SVIB ptr                                                 Ÿ
                                   26309              Ÿ      R1,R0 - text loc,len                                           Ÿ
                                   26310              Ÿ                                                                     Ÿ
                                   26311              Ÿ    On exit, R15 (and cc):                                           Ÿ
                                   26312              Ÿ       0 - OK; SVIB NAME/NO is filled in                             Ÿ
                                   26313              Ÿ       nz- error; error message is already TSEG'D                    Ÿ
                                   26314              Ÿ                                                                     Ÿ
                                                      ¾þþþþþþþþþþþþþþþþþþþþþþþþþþþþþþþþþþþþþþþþþþþþþþþþþþþþþþþþþþþþþþþþþþþþþ»
0003E58 50E0 D000/9008_      00000 26315              SERVSETPROTO PROC
 USING  *,R7
 003E72 185F                       26354                       LR    R5,R15
 USING  SVIB,R5                    26355                       WITH  (SVIB,R5)
                                   26368
 003E74 D71F 5008 5008_00008 00008 26369                       CLEAR SVIBNAME,SVIBNO
                                   26381
 003E80 957F 1000/4780_00000       26382                       IF    ((@R1,EQ,'"'),OR,(@R1,EQ,'''')),BEGIN
 003E90 41F0 B050/58E0_      00050 26413  1                      TSEG  (R1),(R0)
 003E9A 4110 72A3/4100_      04115 26437  1                      TSEG  ': quoted server name not allowed.'
 003EAC 47F0 7116            03F88 26455  1                      B     SCNSERR
 003EB0                            26456                       END
                                   26460
 003EB0 954D 1000/4770_00000       26461                       IF    (@R1,EQ,'('),BEGIN
 003EB8 41F0 B050/58E0_      00050 26477  1                      TSEG  (R1),(R0)
 003EC2 4110 7244/4100_      040B6 26501  1                      TSEG  ': invalid server name.'
 003ED4 47F0 7116            03F88 26519  1                      B     SCNSERR
 003ED8                            26520                       END
                                   26524
 003ED8 5900 7206/47D0_      04078 26525                       IF    (R0,GT,L'SVIBNAME),BEGIN  Too too much...
 003EE0 41F0 B050/58E0_      00050 26542  1                      TSEG  (R1),(R0)
 003EEA 4110 725A/4100_      040CC 26566  1                      TSEG  ': server name is too long.'
 003EFC 47F0 7116            03F88 26584  1                      B     SCNSERR
 003F00                            26585                       END
                                   26589
 003F00 1831                       26590                       LR    R3,R1
 003F02 1820                       26591                       LR    R2,R0
                                   26592                       ¿þþþþþþþþþþþþþþþþþþþþþþþþþþþþþþÜ
                                   26593                       Ÿ  Current server connection.  Ÿ
                                   26594                       ¾þþþþþþþþþþþþþþþþþþþþþþþþþþþþþþ»
 003F04 5900 720A/4770_      0407C 26595                       IF    ((R0,EQ,1),AND,(@R1,EQ,'*')),BEGIN
 003F14 58F0 B22C/12FF       0022C 26627  1                      LT    R15,CPQINFOQ        Last query info entry (or zero)
 003F1A 4780 70B0/58F0_      03F22 26631  1                      IF    NZ,'L R15,QINFNO-QINFO(,R15)'  Current server number
 003F22 12FF/4770 70CC             26648  1                      IF    (R15,Z),BEGIN
 003F28 4110 7274/4100_      040E6 26662  2                        TSEG  'There is no current server connection.'
 003F3A 47F0 7116            03F88 26680  2                        B     SCNSERR
 003F3E                            26681  1                      END
 003F3E 50F0 5004            00004 26685  1                      ST    R15,SVIBNO          Save server number
 003F42 1BFF                       26686  1                      CLEAR R15                 A-OK
1QUERY    (QUER2193) (12:52) (15MAR04) Utility Subroutines                                                                  Page   75
0Current Usings:  (SVIB,R5) (*,R7) (CP,R11) (CV,R12)
0Loc    Object Code    Addr1 Addr2  Stmt Lv Lineno    Source Statement           (Hibal 5, Asmedit 3.3)  HLASM R4.0  2004/03/15 12.52
+___    ______ ____    _____ _____  ____ __ ______    ______ _________
0003F44 47F0 7126            03F98 26690  1                      B     SCNSEXIT
 003F48                            26691                       END
                                   26695                       ¿þþþþþþþþþþþþþþþþþþÜ
                                   26696                       Ÿ  Server number.  Ÿ
                                   26697                       ¾þþþþþþþþþþþþþþþþþþ»
 003F48 58E0 720E/0DEE       04080 26698                       DTB   (R1),(R0)
 003F4E 4770 70E4            03F56 26713                       IF    Z,BEGIN             Numeric (server number)...
 003F52 50F0 5004            00004 26724  1                      ST    R15,SVIBNO          Save server number
 003F56                            26725                       END
                                   26729                       ¿þþþþþþþþþþþþþþþþÜ
                                   26730                       Ÿ  Server name.  Ÿ
                                   26731                       ¾þþþþþþþþþþþþþþþþ»
 003F56 70E8/47F0 7110 03F56 03F50 26732                       ELSE  BEGIN               Non-numeric (server name)...
 003F5A D21F 5008 C4D8 00008 004D8 26743  1                      MVC   SVIBNAME,CVBLANKS
 003F60 5920 7206/47D0_      04078 26744  1                      CEIL  R2,L'SVIBNAME
 003F6C 0620/1222/4740_            26763  1                      MOVE  R2,SVIBNAME,@R3     Save server name
 003F78 58F0 C8A8            008A8 26801  1                      L     R15,CVUPPTBL
 003F7C DC1F 5008 F000 00008 00000 26802  1                      TR    SVIBNAME,@R15       Convert to caps
 003F82                            26803                       END
                                   26807
 003F82 1BFF                       26808                       CLEAR R15                 A-ok
 003F84 47F0 7126            03F98 26812                       B     SCNSEXIT
                                   26813
 003F88 1B00/41F0 B050_            26814              SCNSERR  TCR
 003F94 41F0 0004            00004 26840                       LA    R15,4               Error
 003F98 18D8/9808 D004_            26841              SCNSEXIT PEND
 DROP   SVIB,R5
 DROP   *,R7
1QUERY    (QUER2193) (12:52) (15MAR04) Utility Subroutines                                                                  Page   76
0Current Usings:  (CP,R11) (CV,R12)
0Loc    Object Code    Addr1 Addr2  Stmt Lv Lineno    Source Statement           (Hibal 5, Asmedit 3.3)  HLASM R4.0  2004/03/15 12.52
+___    ______ ____    _____ _____  ____ __ ______    ______ _________
0                                  26868              ¿þþþþþþþþþþþþþþþþþþþþþþþþþþþþþþþþþþþþþþþþþþþþþþþþþþþþþþþþþþþþþþþþþþþþþÜ
                                   26869              Ÿ                                                                     Ÿ
                                   26870              Ÿ  SERVSCANPROTO -- Routine to scan the next token as a               Ÿ
                                   26871              Ÿ    server name/number.                                              Ÿ
                                   26872              Ÿ                                                                     Ÿ
                                   26873              Ÿ    On entry:                                                        Ÿ
                                   26874              Ÿ       R15 - SVIB ptr                                                Ÿ
                                   26875              Ÿ                                                                     Ÿ
                                   26876              Ÿ    On exit, R15 (and cc):                                           Ÿ
                                   26877              Ÿ       0 - OK; SVIB NAME/NO is filled in                             Ÿ
                                   26878              Ÿ       nz- error; error message is already TSEG'D                    Ÿ
                                   26879              Ÿ                                                                     Ÿ
                                                      ¾þþþþþþþþþþþþþþþþþþþþþþþþþþþþþþþþþþþþþþþþþþþþþþþþþþþþþþþþþþþþþþþþþþþþþ»
0003FA6 50E0 D000/9008_      00000 26880              SERVSCANPROTO PROC
 USING  *,R7
 003FC0 185F                       26919                       LR    R5,R15
 USING  SVIB,R5                    26920                       WITH  (SVIB,R5)
                                   26933
 003FC2 5810 B08C/1B00_      0008C 26934                       SCAN
 004010 58E0 70C8/0DEE       04088 26965                       SCANCHK
 004016 1200/4770 7076             26970                       IF    (R0,Z),BEGIN        Nothing...
 00401C 4110 7176/4100_      04136 26984  1                      TSEG  'Missing server name'
 00402E 41F0 0004            00004 27002  1                      LA    R15,4
 004032 47F0 7080            04040 27003  1                      B     SSCNEXIT
 004036                            27004                       END
                                   27008
 004036 41F0 5000            00000 27009                       LA    R15,SVIB
 00403A 58E0 70CC/0DEE       0408C 27010                       ACALL SERVSETPROTO        Set up SVIB NAME/NO
 004040 18D8/9808 D004_            27014              SSCNEXIT PEND
 DROP   SVIB,R5
 DROP   *,R7
                                   27040
                                   27041                       QLTORG
1QUERY    (QUER2193) (12:52) (15MAR04) Utility Subroutines                                                                  Page   77
0Current Usings:  (CP,R11) (CV,R12)
0Loc    Object Code    Addr1 Addr2  Stmt Lv Lineno    Source Statement           (Hibal 5, Asmedit 3.3)  HLASM R4.0  2004/03/15 12.52
+___    ______ ____    _____ _____  ____ __ ______    ______ _________
0                                  27080              ¿þþþþþþþþþþþþþþþþþþþþþþþþþþþþþþþþþþþþþþþþþþþþþþþþþþþþþþþþþþþþþþþþþþþþþÜ
                                   27081              Ÿ                                                                     Ÿ
                                   27082              Ÿ  SERVSCANSVIB -- Routine to scan for a server number and            Ÿ
                                   27083              Ÿ    then get it's SVIB ptr.  The server must already be              Ÿ
                                   27084              Ÿ    active and connected to the current user.                        Ÿ
                                   27085              Ÿ                                                                     Ÿ
                                   27086              Ÿ    On entry:                                                        Ÿ
                                   27087              Ÿ       Scanner is set up                                             Ÿ
                                   27088              Ÿ                                                                     Ÿ
                                   27089              Ÿ    On exit, returns only if OK:                                     Ÿ
                                   27090              Ÿ       R15 = SVIB ptr                                                Ÿ
                                   27091              Ÿ                                                                     Ÿ
                                                      ¾þþþþþþþþþþþþþþþþþþþþþþþþþþþþþþþþþþþþþþþþþþþþþþþþþþþþþþþþþþþþþþþþþþþþþ»
0004150 50E0 D000/9008_      00000 27092              SERVSCANSVIB PROC
 USING  *,R7
                                   27131                       ¿þþþþþþþþþþþþþþþþþþþþþþþþþþþþþþþþþþþþþþþþþþþþþþþþþþþþþþþþÜ
                                   27132                       Ÿ  Pick off server number ("*" as a server number means  Ÿ
                                   27133                       Ÿ     use the current server).                           Ÿ
                                   27134                       ¾þþþþþþþþþþþþþþþþþþþþþþþþþþþþþþþþþþþþþþþþþþþþþþþþþþþþþþþþ»
 00416A 5810 B08C/1B00_      0008C 27135                       SCAN  ,                   Look for optional server number
 0041B8 58E0 7332/0DEE       0449C 27166                       SCANCHK
 0041BE 1200/4720 7066_            27171                       IF    (R0,NP),'ERROR "Missing server number."'
 0041D0 58E0 7336/0DEE       044A0 27197                       DTB   (R1),(R0)           Convert to number
 0041D6 182F                       27212                       LR    R2,R15              Save number (if numeric)
 0041D8 4780 70A6            04210 27213                       IF    NZ,BEGIN            Not a number...
 0041DC 5900 733A/4770_      044A4 27224  1                      IF    ((R0,NE,1),OR,(@R1,NE,'*')),BEGIN  Not * either...
 0041EC 41F0 B050/58E0_      00050 27256  2                        TSEG  (R1),(R0)
 0041F6 4110 737A/4100_      044E4 27280  2                        ERROR ': invalid; expecting server number (or *).'
 004202                            27287  1                      END
 004202 5820 B22C/1222       0022C 27291  1                      LT    R2,CPQINFOQ         Last query info entry (or zero)
 004208 4780 70A6/5820_      04210 27295  1                      IF    NZ,'L R2,QINFNO-QINFO(,R2)'  Current server number
 004210                            27312                       END
                                   27316                       ¿þþþþþþþþþþþþþþþþþþþþþþþþþþþþþþþþþþþþþþþþþþÜ
                                   27317                       Ÿ  Get SVIB ptr given it's server number.  Ÿ
                                   27318                       ¾þþþþþþþþþþþþþþþþþþþþþþþþþþþþþþþþþþþþþþþþþþ»
 004210 1222/4770 70B8             27319                       IF    (R2,Z),BEGIN        No default server number...
 004216 4110 73A4/4100_      0450E 27333  1                      ERROR 'There is no current server connection.'
 004222                            27340                       END
                                   27344
 004222 18F2                       27345                       LR    R15,R2              Server number
 004224 58E0 7342/0DEE       044AC 27346                       ACALL SERVGET             Get SVIB ptr from server number
 00422A 4770 70F0            0425A 27350                       IF    Z,BEGIN             No such server...
 00422E 4110 73CA/4100_      04534 27361  1                      TSEG  'Server '
 004240 1812/1B00/41F0_            27379  1                      TNUM  (R2)
 00424E 4110 731E/4100_      04488 27401  1                      ERROR ' does not exist.'
 00425A                            27408                       END
                                   27412
 00425A 185F                       27413                       LR    R5,R15
 USING  SVIB,R5                    27414                       WITH  (SVIB,R5)
1QUERY    (QUER2193) (12:52) (15MAR04) Utility Subroutines                                                                  Page   78
0Current Usings:  (SVIB,R5) (*,R7) (CP,R11) (CV,R12)
0Loc    Object Code    Addr1 Addr2  Stmt Lv Lineno    Source Statement           (Hibal 5, Asmedit 3.3)  HLASM R4.0  2004/03/15 12.52
+___    ______ ____    _____ _____  ____ __ ______    ______ _________
0                                  27427                       ¿þþþþþþþþþþþþþþþþþþþþþþþþþþþþþþþþþþþþþþþþþþþþþþþþþþþþþþþþþþþþþþþÜ
                                   27428                       Ÿ  Make sure server has been opened and that it belongs to us.  Ÿ
                                   27429                       ¾þþþþþþþþþþþþþþþþþþþþþþþþþþþþþþþþþþþþþþþþþþþþþþþþþþþþþþþþþþþþþþþ»
 00425C 9504 5048/4770_00048       27430                       IF    (~SVIB#BUSY,OR,(SVIBJCBP,NE,CVCURJCB)),BEGIN
 00426E 4110 73D1/4100_      0453B 27462  1                      TSEG  'Connection to server '
 004280 41F0 5000            00000 27480  1                      LA    R15,SVIB
 004284 58E0 734A/0DEE       044B4 27481  1                      ACALL SERVSEGN
 00428A 4110 73E6/4100_      04550 27485  1                      ERROR ' has not been opened.'
 004296                            27492                       END
                                   27496
 004296 41F0 5000            00000 27497                       LA    R15,SVIB            Return SVIB ptr
 00429A 18D8/9808 D004_            27498                       PEND
 DROP   SVIB,R5
 DROP   *,R7
1QUERY    (QUER2193) (12:52) (15MAR04) Utility Subroutines                                                                  Page   79
0Current Usings:  (CP,R11) (CV,R12)
0Loc    Object Code    Addr1 Addr2  Stmt Lv Lineno    Source Statement           (Hibal 5, Asmedit 3.3)  HLASM R4.0  2004/03/15 12.52
+___    ______ ____    _____ _____  ____ __ ______    ______ _________
0                                  27524              ¿þþþþþþþþþþþþþþþþþþþþþþþþþþþþþþþþþþþþþþþþþþþþþþþþþþþþþþþþþþþþþþþþþþþþþÜ
                                   27525              Ÿ                                                                     Ÿ
                                   27526              Ÿ  SERVFINDPUBLIC -- Routine to find the first/next matching          Ÿ
                                   27527              Ÿ    public server entry (SVIB) given a "model" SVIB with             Ÿ
                                   27528              Ÿ    SVIBNAME set to the server name (zeros means match               Ÿ
                                   27529              Ÿ    everything) and SVIBNO set to the last matched server            Ÿ
                                   27530              Ÿ    found.                                                           Ÿ
                                   27531              Ÿ                                                                     Ÿ
                                   27532              Ÿ    On entry:                                                        Ÿ
                                   27533              Ÿ      R15 - model SVIB ptr                                           Ÿ
                                   27534              Ÿ                                                                     Ÿ
                                   27535              Ÿ    On exit, R15 (and cc):                                           Ÿ
                                   27536              Ÿ      0 - found next server; R1 = SVIB ptr                           Ÿ
                                   27537              Ÿ      4 - not found                                                  Ÿ
                                   27538              Ÿ                                                                     Ÿ
                                                      ¾þþþþþþþþþþþþþþþþþþþþþþþþþþþþþþþþþþþþþþþþþþþþþþþþþþþþþþþþþþþþþþþþþþþþþ»
00042A8 50E0 D000/9008_      00000 27539              SERVFINDPUBLIC PROC
 USING  *,R7
 0042C2 185F                       27578                       LR    R5,R15
 USING  SVIB,R5                    27579                       WITH  (SVIB,R5)
                                   27592                       ¿þþþþþþþþþþþþþþþþþþþþþþþþþþþþþþþþþþþþþþþþþþþþþþþþþþþþþþþÜ
                                   27593                       Ÿ  Start looking from the server number in model SVIB.  Ÿ
                                   27594                       ¾þþþþþþþþþþþþþþþþþþþþþþþþþþþþþþþþþþþþþþþþþþþþþþþþþþþþþþþ»
 0042C4 5840 5004            00004 27595                       L     R4,SVIBNO           Server number (or zero)
 0042C8 4140 4001            00001 27596                       LA    R4,@R4+1            Find next matching server
                                   27597                       ¿þþþþþþþþþþþþþþþþþþþþþþþþþþþþþþþþþþþþþþþþÜ
                                   27598                       Ÿ  Try to match the next public server.  Ÿ
                                   27599                       ¾þþþþþþþþþþþþþþþþþþþþþþþþþþþþþþþþþþþþþþþþ»
 0042CC 5940 71F6/47B0_      044B8 27600                       IF    (R4,LT,CVPSFNO),'LA R4,CVPSFNO'  Start at beginning
                                   27623
 0042D8 5940 71FA/4730_      044BC 27624                       IF    (R4,LE,CVPSLNO),BEGIN  In range of public servers...
 0042E0 D603 C210 C210_00210 00210 27641  1                      IF    (CVPSTAB,Z),EXIT     No public servers, scram
                                   27660  1
 0042EA 1834                       27661  1                      LR    R3,R4
 0042EC 5B30 71F6            044B8 27662  1                      S     R3,=A(CVPSFNO)      Relative to start of index table
 0042F0 8930 0002            00002 27663  1                      SLL   R3,2                Times 4 for word offset
 0042F4 5A30 C210            00210 27664  1                      A     R3,CVPSTAB          Index table entry ptr
                                   27665  1
 0042F8 5930 C214/47B0_      00214 27666  1                      WHILE (R3,LT,CVPSENDP),BEGIN  Go through index table...
 004300 5810 3000/1211       00000 27685  2                        LT    R1,@R3              Get SVIB ptr
 004306 4780 705C            0431E 27689  2                        IF    NZ,BEGIN            Server defined...
 00430A D61F 5008 5008_00008 00008 27700  3                          IF    (SVIBNAME,Z),FPUBMAT  Match everything
 004314 D51F 5008 1008 00008 00008 27719  3                          CLC   SVIBNAME,SVIBNAME-SVIB(R1)  Does name match?
 00431A 4780 706C            0432E 27720  3                          BE    FPUBMAT             Yes, we found it
 00431E                            27721  2                        END
                                   27725  2
 00431E 4130 3004            00004 27726  2                        LA    R3,@R3+4            Next SVIB ptr in index table
 004322 47F0 7036            042F8 27727  1                      END
 004326                            27732                       END
1QUERY    (QUER2193) (12:52) (15MAR04) Utility Subroutines                                                                  Page   80
0Current Usings:  (SVIB,R5) (*,R7) (CP,R11) (CV,R12)
0Loc    Object Code    Addr1 Addr2  Stmt Lv Lineno    Source Statement           (Hibal 5, Asmedit 3.3)  HLASM R4.0  2004/03/15 12.52
+___    ______ ____    _____ _____  ____ __ ______    ______ _________
0                                  27736                       ¿þþþþþþþþþþþþþÜ
                                   27737                       Ÿ  No match.  Ÿ
                                   27738                       ¾þþþþþþþþþþþþþ»
 004326 41F0 0004            00004 27739                       LA    R15,4               No match
 00432A 47F0 7072            04334 27740                       EXIT
                                   27743
 00432E 5018 0008            00008 27744              FPUBMAT  PRETURN (R1)              Return matching SVIB ptr
 004332 1BFF                       27746                       CLEAR R15                 A-ok
 004334 18D8/9808 D004_            27750                       PEND
 DROP   SVIB,R5
 DROP   *,R7
1QUERY    (QUER2193) (12:52) (15MAR04) Utility Subroutines                                                                  Page   81
0Current Usings:  (CP,R11) (CV,R12)
0Loc    Object Code    Addr1 Addr2  Stmt Lv Lineno    Source Statement           (Hibal 5, Asmedit 3.3)  HLASM R4.0  2004/03/15 12.52
+___    ______ ____    _____ _____  ____ __ ______    ______ _________
0                                  27776              ¿þþþþþþþþþþþþþþþþþþþþþþþþþþþþþþþþþþþþþþþþþþþþþþþþþþþþþþþþþþþþþþþþþþþþþÜ
                                   27777              Ÿ                                                                     Ÿ
                                   27778              Ÿ  SERVFINDPRIVATE -- Routine to find the first/next matching         Ÿ
                                   27779              Ÿ    private server entry (SVIB) given a "model" SVIB with            Ÿ
                                   27780              Ÿ    SVIBNAME set to the server name (zeros means match               Ÿ
                                   27781              Ÿ    everything) and SVIBNO set to the last matched server            Ÿ
                                   27782              Ÿ    found.                                                           Ÿ
                                   27783              Ÿ                                                                     Ÿ
                                   27784              Ÿ    On entry:                                                        Ÿ
                                   27785              Ÿ      R15 - model SVIB ptr                                           Ÿ
                                   27786              Ÿ                                                                     Ÿ
                                   27787              Ÿ    On exit, R15 (and cc):                                           Ÿ
                                   27788              Ÿ      0 - found next server; R1 = SVIB ptr                           Ÿ
                                   27789              Ÿ      4 - not found                                                  Ÿ
                                   27790              Ÿ                                                                     Ÿ
                                                      ¾þþþþþþþþþþþþþþþþþþþþþþþþþþþþþþþþþþþþþþþþþþþþþþþþþþþþþþþþþþþþþþþþþþþþþ»
0004342 50E0 D000/9008_      00000 27791              SERVFINDPRIVATE PROC
 USING  *,R7
 00435C 185F                       27830                       LR    R5,R15
 USING  SVIB,R5                    27831                       WITH  (SVIB,R5)
                                   27844                       ¿þþþþþþþþþþþþþþþþþþþþþþþþþþþþþþþþþþþþþþþþþþþþþþþþþþþþþþþÜ
                                   27845                       Ÿ  Start looking from the server number in model SVIB.  Ÿ
                                   27846                       ¾þþþþþþþþþþþþþþþþþþþþþþþþþþþþþþþþþþþþþþþþþþþþþþþþþþþþþþþ»
 00435E 5840 5004            00004 27847                       L     R4,SVIBNO           Server number (or zero)
 004362 4140 4001            00001 27848                       LA    R4,@R4+1            Find next matching server
                                   27849                       ¿þþþþþþþþþþþþþþþþþþþþþþþþþþþþþþþþþþþþþþþþÜ
                                   27850                       Ÿ  Try to match the next public server.  Ÿ
                                   27851                       ¾þþþþþþþþþþþþþþþþþþþþþþþþþþþþþþþþþþþþþþþþ»
 004366 5940 7164/47B0_      044C0 27852                       IF    (R4,LT,CVUSFNO),'LA R4,CVUSFNO'  Start at beginning
                                   27875
 004372 5940 7168/4730_      044C4 27876                       IF    (R4,LE,CVUSLNO),BEGIN  In range of user servers...
 00437A D603 C21C C21C_0021C 0021C 27893  1                      IF    (CVUSTAB,Z),EXIT     No user servers, scram
                                   27912  1
 004384 1834                       27913  1                      LR    R3,R4
 004386 5B30 7164            044C0 27914  1                      S     R3,=A(CVUSFNO)      Relative to start of index table
 00438A 8930 0002            00002 27915  1                      SLL   R3,2                Times 4 for word offset
 00438E 5A30 C21C            0021C 27916  1                      A     R3,CVUSTAB          Index table entry ptr
                                   27917  1
 004392 5930 C220/47B0_      00220 27918  1                      WHILE (R3,LT,CVUSENDP),BEGIN  Go through index table...
 00439A 5810 3000/1211       00000 27937  2                        LT    R1,@R3              Get SVIB ptr
 0043A0 4780 7066            043C2 27941  2                        IF    NZ,BEGIN            Server defined...
 0043A4 D503 C1C8 1168 001C8 00168 27952  3                          CLC   CVCURJCB,SVIBCRJCB-SVIB(R1)  Is it ours?
 0043AA 4770 7066            043C2 27953  3                          IF    NE,EXIT             No, ignore it
 0043AE D61F 5008 5008_00008 00008 27967  3                          IF    (SVIBNAME,Z),FUSRMAT  Match everything
 0043B8 D51F 5008 1008 00008 00008 27986  3                          CLC   SVIBNAME,SVIBNAME-SVIB(R1)  Does name match?
 0043BE 4780 7076            043D2 27987  3                          BE    FUSRMAT             Yes, we found it
 0043C2                            27988  2                        END
                                   27992  2
 0043C2 4130 3004            00004 27993  2                        LA    R3,@R3+4            Next SVIB ptr in index table
 0043C6 47F0 7036            04392 27994  1                      END
 0043CA                            27999                       END
1QUERY    (QUER2193) (12:52) (15MAR04) Utility Subroutines                                                                  Page   82
0Current Usings:  (SVIB,R5) (*,R7) (CP,R11) (CV,R12)
0Loc    Object Code    Addr1 Addr2  Stmt Lv Lineno    Source Statement           (Hibal 5, Asmedit 3.3)  HLASM R4.0  2004/03/15 12.52
+___    ______ ____    _____ _____  ____ __ ______    ______ _________
0                                  28003                       ¿þþþþþþþþþþþþþÜ
                                   28004                       Ÿ  No match.  Ÿ
                                   28005                       ¾þþþþþþþþþþþþþ»
 0043CA 41F0 0004            00004 28006                       LA    R15,4               No match
 0043CE 47F0 707C            043D8 28007                       EXIT
                                   28010
 0043D2 5018 0008            00008 28011              FUSRMAT  PRETURN (R1)              Return matching SVIB ptr
 0043D6 1BFF                       28013                       CLEAR R15                 A-ok
 0043D8 18D8/9808 D004_            28017                       PEND
 DROP   SVIB,R5
 DROP   *,R7
1QUERY    (QUER2193) (12:52) (15MAR04) Utility Subroutines                                                                  Page   83
0Current Usings:  (CP,R11) (CV,R12)
0Loc    Object Code    Addr1 Addr2  Stmt Lv Lineno    Source Statement           (Hibal 5, Asmedit 3.3)  HLASM R4.0  2004/03/15 12.52
+___    ______ ____    _____ _____  ____ __ ______    ______ _________
0                                  28043              ¿þþþþþþþþþþþþþþþþþþþþþþþþþþþþþþþþþþþþþþþþþþþþþþþþþþþþþþþþþþþþþþþþþþþþþÜ
                                   28044              Ÿ                                                                     Ÿ
                                   28045              Ÿ  SERVSEGN -- Routine to seg server number and name.                 Ÿ
                                   28046              Ÿ                                                                     Ÿ
                                   28047              Ÿ    On entry:                                                        Ÿ
                                   28048              Ÿ      R15 - SVIB ptr                                                 Ÿ
                                   28049              Ÿ                                                                     Ÿ
                                                      ¾þþþþþþþþþþþþþþþþþþþþþþþþþþþþþþþþþþþþþþþþþþþþþþþþþþþþþþþþþþþþþþþþþþþþþ»
00043E6 50E0 D000/9008_      00000 28050              SERVSEGN PROC
 USING  *,R7
 004400 185F                       28089                       LR    R5,R15
 USING  SVIB,R5                    28090                       WITH  (SVIB,R5)
 004402 58F0 5004/12FF       00004 28103                       LT    R15,SVIBNO          Server number
 004408 4780 7022/181F_      04422 28107                       IF    NZ,'TNUM (R15); SETMSG " "'
 004422 7026/47F0 7028_04422 0440A 28149                       ELSE  'CLEAR R0'
                                   28169
 004428 D61F 5008 5008_00008 00008 28170                       IF    (SVIBNAME,NZ),BEGIN  Server name...
 004432 41F0 B050/58E0_      00050 28186  1                      TSEG  (R1),(R0)
 00443C 4110 5008/4100_      00008 28210  1                      TSEG  SVIBNAME,,T
 00444E                            28238                       END
                                   28242
 00444E D603 5004 5004_00004 00004 28243                       IF    ((SVIBNO,Z),AND,(SVIBNAME,Z)),BEGIN  Strange...
 004462 4110 7166/4100_      04566 28274  1                      TSEG  '(no name)'
 004474                            28292                       END
 004474 18D8/9808 D004_            28296                       PEND
 DROP   SVIB,R5
 DROP   *,R7
                                   28321
                                   28322                       QLTORG
1QUERY    (QUER2193) (12:52) (15MAR04) Utility Subroutines                                                                  Page   84
0Current Usings:  (CP,R11) (CV,R12)
0Loc    Object Code    Addr1 Addr2  Stmt Lv Lineno    Source Statement           (Hibal 5, Asmedit 3.3)  HLASM R4.0  2004/03/15 12.52
+___    ______ ____    _____ _____  ____ __ ______    ______ _________
0                                  28358              ¿þþþþþþþþþþþþþþþþþþþþþþþþþþþþþþþþþþþþþþþþþþþþþþþþþþþþþþþþþþþþþþþþþþþþþÜ
                                   28359              Ÿ                                                                     Ÿ
                                   28360              Ÿ  SERVDISP -- Routine to format a SHOW QUERY response for the        Ÿ
                                   28361              Ÿ    server specified.                                                Ÿ
                                   28362              Ÿ                                                                     Ÿ
                                   28363              Ÿ    On entry:                                                        Ÿ
                                   28364              Ÿ       R15 - SVIB ptr                                                Ÿ
                                   28365              Ÿ                                                                     Ÿ
                                                      ¾þþþþþþþþþþþþþþþþþþþþþþþþþþþþþþþþþþþþþþþþþþþþþþþþþþþþþþþþþþþþþþþþþþþþþ»
0000000                00000 00008 28366              SDSWA    RECORD BEGIN
 000000                            28374  1           SDSCLCK    DS    D                   Working STCK area
 000008                00008 00008 28375                       END
                                   28384              þþþþ
 004570 50E0 D000/9008_      00000 28385              SERVDISP PROC  SDSWA
 USING  *,R7
 USING  SDSWA-(4+36),R8
 00458A 185F                       28435                       LR    R5,R15
 USING  SVIB,R5                    28436                       WITH  (SVIB,R5)
 00458C D503 7616 5000_04BA0 00000 28449                       FAIL  (SVIB,NE,'SVIB'),SERVDISP,'Bad SERVDISP options'
                                   28478
 0045AE 4110 7662/4100_      04BEC 28479                       TSEG  'Server'
 0045C0 5810 5004/4100_      00004 28497                       TNUM  L:SVIBNO,5
 0045D2 4110 76E8/4100_      04C72 28522                       TSEG  ' '
 0045E4 41F0 B050/58E0_      00050 28540                       TSEG  (R1),(R0)
 0045EE 4110 5008/4100_      00008 28564                       TSEG  SVIBNAME,,T         Server name
                                   28592
 004600 D64F 5100 5100_00100 00100 28593                       IF    (SVIBINFO,NZ),BEGIN
 00460A 4100 0019/41F0_      00019 28609  1                      TCOL  25
 004618 4110 5100/4100_      00100 28630  1                      TSEG  SVIBINFO,,T
 00462A                            28658                       END
 00462A 1B00/41F0 B050_            28662                       TCR
                                   28687                       ¿þþþþþþþþþþþþþþþþþþþþþþþþþþþþþÜ
                                   28688                       Ÿ  Server master definition.  Ÿ
                                   28689                       ¾þþþþþþþþþþþþþþþþþþþþþþþþþþþþþ»
 004636 9501 5048/4770_00048       28690                       IF    SVIB#MASTER,BEGIN
 00463E 4110 76E9/4100_      04C73 28705  1                      TSEG  '  Defined as '
 004650 4110 504C/4100_      0004C 28723  1                      TSEG  SVIBRDB,,T
 004662 D64F 506C 506C_0006C 0006C 28751  1                      IF    (SVIBRHOST,NZ),'TSEG " on "; TSEG SVIBRHOST,,T'
 004690 D61F 50C0 50C0_000C0 000C0 28818  1                      IF    (SVIBRUSER,NZ),'TSEG " user "; TSEG SVIBRUSER,,T'
 0046BE 4110 766E/4100_      04BF8 28885  1                      TSEG  ' port '
 0046D0 5810 50BC/1B00_      000BC 28903  1                      TNUM  L:SVIBRPORT
                                   28925  1
 0046E0 D603 51A8 51A8_001A8 001A8 28926  1                      IF    (SVIBMAX,NZ),BEGIN  Max number of servers allowed...
 0046EA 4110 7674/4100_      04BFE 28942  2                        TSEG  ' (Max='
 0046FC 5810 51A8/1B00_      001A8 28960  2                        TNUM  L:SVIBMAX
 00470C 4110 76F6/4100_      04C80 28982  2                        TSEG  ')'
 00471E                            29000  1                      END
 00471E                            29004                       END
1QUERY    (QUER2193) (12:52) (15MAR04) Utility Subroutines                                                                  Page   85
0Current Usings:  (SVIB,R5) (*,R7) (SDSWA-(4+36),R8) (CP,R11) (CV,R12)
0Loc    Object Code    Addr1 Addr2  Stmt Lv Lineno    Source Statement           (Hibal 5, Asmedit 3.3)  HLASM R4.0  2004/03/15 12.52
+___    ______ ____    _____ _____  ____ __ ______    ______ _________
0                                  29008                       ¿þþþþþþþþþþþþþþþþþþþþþþþþþþþþþþþþþþþþþþþÜ
                                   29009                       Ÿ  Server is waiting for a connection.  Ÿ
                                   29010                       ¾þþþþþþþþþþþþþþþþþþþþþþþþþþþþþþþþþþþþþþþ»
 00471E 7198/47F0 71B2_0471E 0463C 29011                       ELSEIF SVIB#WAITING,BEGIN
 00472A 4110 767A/4100_      04C04 29035  1                      TSEG  '  Waiting for connection to server'
 00473C                            29053                       END
                                   29057                       ¿þþþþþþþþþþþþþþþþþþþÜ
                                   29058                       Ÿ  Server is idle.  Ÿ
                                   29059                       ¾þþþþþþþþþþþþþþþþþþþ»
 00473C 71B6/47F0 71D0_0473C 04728 29060                       ELSEIF SVIB#IDLE,BEGIN
 004748 4110 769C/4100_      04C26 29084  1                      TSEG  '  Idle'
 00475A                            29102                       END
                                   29106                       ¿þþþþþþþþþþþþþþþþþþþÜ
                                   29107                       Ÿ  Server is busy.  Ÿ
                                   29108                       ¾þþþþþþþþþþþþþþþþþþþ»
 00475A 71D4/47F0 72D4_0475A 04746 29109                       ELSEIF SVIB#BUSY,BEGIN
 004766 4110 76F7/4100_      04C81 29133  1                      TSEG  '  Busy:  '
                                   29151  1
 004778 D607 5180 5180_00180 00180 29152  1                      IF    (SVIBCLK,NZ),BEGIN  Display elapsed time busy...
 004782 B205 8028      00000       29168  2                        STCK  SDSCLCK
 004786 58F0 8028            00000 29169  2                        L     R15,SDSCLCK
 00478A 5BF0 5180            00180 29170  2                        S     R15,SVIBCLK
 00478E 59F0 7632/47B0_      04BBC 29171  2                        IF    (R15,LT,60),BEGIN   Show as seconds...
 004796 181F/4100 0003_            29188  3                          TNUM  (R15),3
 0047A6 4110 7700/4100_      04C8A 29213  3                          TSEG  ' seconds '
 0047B8                            29231  2                        END
                                   29235  2
 0047B8 7232/47F0 7266 047B8 04794 29236  2                        ELSE  BEGIN               Show as minutes...
 0047BC 1BEE                       29247  3                          CLEAR R14
 0047BE 5DE0 7632            04BBC 29251  3                          D     R14,=A(60)          Divide by 60 for minutes
 0047C2 59E0 7636/4750_      04BC0 29252  3                          IF    (R14,GE,60/2),'INCR R15'  Round
 0047CE 181F/4100 0003_            29277  3                          TNUM  (R15),3
 0047DE 4110 7709/4100_      04C93 29302  3                          TSEG  ' minutes '
 0047F0                            29320  2                        END
 0047F0                            29324  1                      END
                                   29328  1
 0047F0 4110 76A2/4100_      04C2C 29329  1                      TSEG  'with line '        Display who we are busy with
 004802 5820 5188            00188 29347  1                      L     R2,SVIBJCBP
 USING  JCB,R2                     29348  1                      WITH  (JCB,R2)
 004806 4810 2048/1B00_      00048 29361  1                      TNUM  LH:JCBSEQ
 004816 4110 76E8/4100_      04C72 29382  1                      TSEG  ' '
 004828 4110 204D/4100_      0004D 29400  1                      TSEG  JCBGRP
 00483A 4110 7712/4100_      04C9C 29428  1                      TSEG  '.'
 00484C 4110 204A/4100_      0004A 29446  1                      TSEG  JCBUSER
 DROP   JCB,R2                     29474                       END
                                   29483
 00485E 72D8/47F0 72EA 0485E 04764 29484                       ELSE  BEGIN
 004862 4110 76AC/4100_      04C36 29495  1                      TSEG  'Unknown status'
 004874                            29513                       END
1QUERY    (QUER2193) (12:52) (15MAR04) Utility Subroutines                                                                  Page   86
0Current Usings:  (SVIB,R5) (*,R7) (SDSWA-(4+36),R8) (CP,R11) (CV,R12)
0Loc    Object Code    Addr1 Addr2  Stmt Lv Lineno    Source Statement           (Hibal 5, Asmedit 3.3)  HLASM R4.0  2004/03/15 12.52
+___    ______ ____    _____ _____  ____ __ ______    ______ _________
0                                  29517                       ¿þþþþþþþþþþþþþþþþþþþþþþþþþþþþþþþþþþþþþþþþþþþþþþþþþþþþÜ
                                   29518                       Ÿ  We are looking at another user's private server.  Ÿ
                                   29519                       ¾þþþþþþþþþþþþþþþþþþþþþþþþþþþþþþþþþþþþþþþþþþþþþþþþþþþþ»
 004874 5820 5168/1222_      00168 29520                       IF    ('LT R2,SVIBCRJCB',NZ),BEGIN  Private server...
 00487E 5920 C1C8/4780_      001C8 29536  1                      IF    (R2,EQ,CVCURJCB),EXIT  Ours, fine
 USING  JCB,R2                     29556  1                      WITH  (JCB,R2)
 004886 4110 75F6/4100_      04B80 29569  1                      TSEG  ' (Owned by line '
 004898 4810 2048/1B00_      00048 29587  1                      TNUM  LH:JCBSEQ
 0048A8 4110 76F6/4100_      04C80 29608  1                      TSEG  ')'
 DROP   JCB,R2                     29626                       END
                                   29635                       ¿þþþþþþþþþþÜ
                                   29636                       Ÿ  Flags.  Ÿ
                                   29637                       ¾þþþþþþþþþþ»
 0048BA 9500 504A/4780_0004A       29638                       IF    (SVIBSTATE,NZ),BEGIN  Special state...
 0048C2 4110 7606/4100_      04B90 29654  1                      SETMSG ' (Special state)'
 0048CA 9501 504A/4770_0004A       29658  1                      IF    SVIBSFDATA,'SETMSG " (Sending)"'
 0048DA 9502 504A/4770_0004A       29682  1                      IF    SVIBSFFETCH,'SETMSG " (Fetching)"'
 0048EA 41F0 B050/58E0_      00050 29706  1                      TSEG  (R1),(R0)
 0048F4                            29730                       END
                                   29734
 0048F4 9110 5049/47E0_00049       29735                       IF    SVIBFREUSE,'TSEG " (Reusable)"'
 00490E 9140 5049/47E0_00049       29773                       IF    SVIBFCLOSING,'TSEG " (Closing)"'
                                   29811
 004928 9104 5049/47E0_00049       29812                       IF    SVIBFMON,BEGIN
 004930 4110 763E/4100_      04BC8 29827  1                      TSEG  ' (Monitoring'
 004942 D503 5174 C1C8_00174 001C8 29845  1                      IF    (SVIBMJCB,NE,CVCURJCB),BEGIN
 00494C 4110 7729/4100_      04CB3 29863  2                        TSEG  ' by line '
 00495E 5820 5174            00174 29881  2                        L     R2,SVIBMJCB
 004962 48F0 2048            00048 29882  2                        WITH  (JCB,R2),'LH R15,JCBSEQ'
 USING  JCB,R2
 DROP   JCB,R2
 004966 181F/1B00/41F0_            29906  2                        TNUM  (R15)
 004974                            29928  1                      END
 004974 4110 76F6/4100_      04C80 29932  1                      TSEG  ')'
 004986                            29950                       END
                                   29954
 004986 1B00/41F0 B050_            29955                       TCR
 004992 18D8/9808 D004_            29980                       PEND
 DROP   SVIB,R5
 DROP   SDSWA-(4+36),R8
 DROP   *,R7
1QUERY    (QUER2193) (12:52) (15MAR04) Utility Subroutines                                                                  Page   87
0Current Usings:  (CP,R11) (CV,R12)
0Loc    Object Code    Addr1 Addr2  Stmt Lv Lineno    Source Statement           (Hibal 5, Asmedit 3.3)  HLASM R4.0  2004/03/15 12.52
+___    ______ ____    _____ _____  ____ __ ______    ______ _________
0                                  30011              ¿þþþþþþþþþþþþþþþþþþþþþþþþþþþþþþþþþþþþþþþþþþþþþþþþþþþþþþþþþþþþþþþþþþþþþÜ
                                   30012              Ÿ                                                                     Ÿ
                                   30013              Ÿ  SERVDTRC -- Routine to display the server trace table.             Ÿ
                                   30014              Ÿ                                                                     Ÿ
                                   30015              Ÿ    On entry:                                                        Ÿ
                                   30016              Ÿ      R15 - SVIB ptr                                                 Ÿ
                                   30017              Ÿ                                                                     Ÿ
                                                      ¾þþþþþþþþþþþþþþþþþþþþþþþþþþþþþþþþþþþþþþþþþþþþþþþþþþþþþþþþþþþþþþþþþþþþþ»
0                                  30018              þþþþ
 0049A0 50E0 D000/9008_      00000 30019              SERVDTRC PROC
 USING  *,R7
 0049BA 185F                       30058                       LR    R5,R15
 USING  SVIB,R5                    30059                       WITH  (SVIB,R5)
 0049BC D503 71E6 5000_04BA0 00000 30072                       FAIL  (SVIB,NE,'SVIB'),STRCDISP,'Bad SVIB ptr.'
                                   30101                       ¿þþþþþþþþþþþþþþþþþþþþþþþþþþþþþþþþþþþþþÜ
                                   30102                       Ÿ  Complain if trace table is empty.  Ÿ
                                   30103                       ¾þþþþþþþþþþþþþþþþþþþþþþþþþþþþþþþþþþþþþ»
 0049DE D603 5160 5160_00160 00160 30104                       IF    (SVIBTRCQH,Z),BEGIN   No trace entries...
 0049E8 4110 7302/4100_      04CBC 30120  1                      TSEG  'Trace table is empty.',,CR
 0049FA 47F0 705E            04A18 30138  1                      B     STRCEXIT
 0049FE                            30139                       END
                                   30143                       ¿þþþþþþþþþþþþþþþþþþþþþþþþþþþþþþþþþþþþþþþÜ
                                   30144                       Ÿ  Step through the trace entry queue.  Ÿ
                                   30145                       ¾þþþþþþþþþþþþþþþþþþþþþþþþþþþþþþþþþþþþþþþ»
 0049FE 4160 515C            0015C 30146                       LA    R6,SVIBTRCQH-(STRCLINK-STRC)  Dummy first link
 004A02                            30147                       LOOP  BEGIN
 USING  STRC,R6                    30153  1                      WITH  (STRC,R6)
 004A02 5860 6004/1266_      00004 30166  1                      WHILE ('LT R6,STRCLINK',NZ)  Go through buffers...
 004A0C 41F0 6000            00000 30183  1                      LA    R15,STRC
 004A10 4DE0 706C            04A26 30184  1                      LCALL SERVDTRE            Display this trace entry
 004A14 47F0 7048            04A02 30186                       END
 DROP   STRC,R6
                                   30196
 004A18 18D8/9808 D004_            30197              STRCEXIT PEND
 DROP   SVIB,R5
 DROP   *,R7
1QUERY    (QUER2193) (12:52) (15MAR04) Utility Subroutines                                                                  Page   88
0Current Usings:  (CP,R11) (CV,R12)
0Loc    Object Code    Addr1 Addr2  Stmt Lv Lineno    Source Statement           (Hibal 5, Asmedit 3.3)  HLASM R4.0  2004/03/15 12.52
+___    ______ ____    _____ _____  ____ __ ______    ______ _________
0                                  30224              ¿þþþþþþþþþþþþþþþþþþþþþþþþþþþþþþþþþþþþþþþþþþþþþþþþþþþþþþþþþþþþþþþþþþþþþÜ
                                   30225              Ÿ                                                                     Ÿ
                                   30226              Ÿ  SERVDTRE -- Routine to format a specific trace table entry.        Ÿ
                                   30227              Ÿ                                                                     Ÿ
                                   30228              Ÿ    On entry:                                                        Ÿ
                                   30229              Ÿ      R15 - STRC ptr                                                 Ÿ
                                   30230              Ÿ                                                                     Ÿ
                                                      ¾þþþþþþþþþþþþþþþþþþþþþþþþþþþþþþþþþþþþþþþþþþþþþþþþþþþþþþþþþþþþþþþþþþþþþ»
0000000                00000 00103 30231              SVDTWA   RECORD BEGIN
 000000                            30239  1           SVDTTYPE   DS    CL3                 Working trace type
 000003                            30240  1           SVDTMSG    DS    XL256               Message work area
 000103                00103 00103 30241                       END
                                   30250              þþþþ
 004A26 50E0 D000/9008_      00000 30251              SERVDTRE PROC  SVDTWA
 USING  *,R7
 USING  SVDTWA-(4+36),R8
 004A40 186F                       30301                       LR    R6,R15
 USING  STRC,R6                    30302                       WITH  (STRC,R6)
                                   30315                       ¿þþþþþþþþþþþþþþþþþþþþþþþþþþþÜ
                                   30316                       Ÿ  Format the trace entry.  Ÿ
                                   30317                       ¾þþþþþþþþþþþþþþþþþþþþþþþþþþþ»
 004A42 D503 7194 6000_04BD4 00000 30318                       IF    (STRC,NE,'STRC'),BEGIN  Shucks...
 004A4C 4110 7218/4100_      04C58 30335  1                      TSEG  'Bad trace entry queue!',,CR
 004A5E 47F0 7130            04B70 30353  1                      B     STREEXIT
 004A62                            30354                       END
                                   30358
 004A62 9801 6008            00008 30359                       LM    R0,R1,STRCCLCK      Get time stamp
 004A66 18FD/41D0 D00C             30360                       XPUSH ,,11,PTR=R15
 004A6C 58E0 7198/0DEE       04BD8 30363                       VCALL FMTTIME             Get "hh:mm:ss.th"
 004A72 41F0 B050/58E0_      00050 30367                       TSEG  (R1),(R0),B
 004A7C 4110 7291/4100_      04CD1 30391                       TSEG  'Line '
 004A8E 4810 6012/4100_      00012 30409                       TNUM  LH:STRCLNO,4        Session number
 004AA0 4110 C4D8/4100_      004D8 30433                       TSEG  CVBLANKS,1
 004AB2 4110 6017/4100_      00017 30463                       TSEG  STRCACCT+3,2        gg
 004AC4 4110 725C/4100_      04C9C 30493                       TSEG  '.'
 004AD6 4110 6014/4100_      00014 30511                       TSEG  STRCACCT,3,B          uuu
                                   30541
 004AE8 D202 8028 6019 00000 00019 30542                       MVC   SVDTTYPE,STRCTYPE
 004AEE D200 802A 8029 00002 00001 30543                       MVC   SVDTTYPE+2(1),SVDTTYPE+1
 004AF4 4110 8028/4100_      00000 30544                       TSEG  SVDTTYPE,,B         Trace type
                                   30572
 004B06 4110 601E/4800_      0001E 30573                       SETMSG STRCDATA,LH:STRCDLEN  Trace data
                                   30586                       ¿þþþþþþþþþþþþþþþþþþþþþþþþþþþþþþþþþþþþþþþþþþþþþþþþþþþþþÜ
                                   30587                       Ÿ  Make a copy of the trace data and convert it from  Ÿ
                                   30588                       Ÿ    ASCII to EBCDIC if necessary.                    Ÿ
                                   30589                       ¾þþþþþþþþþþþþþþþþþþþþþþþþþþþþþþþþþþþþþþþþþþþþþþþþþþþþþ»
 004B0E 95C1 601B/4770_0001B       30590                       IF    (STRCTYPE+2,EQ,'A'),BEGIN  ASCII...
 004B16 1820                       30607  1                      LR    R2,R0
 004B18 5920 71A0/47D0_      04BE0 30608  1                      CEIL  R2,L'SVDTMSG
 004B24 18F2                       30627  1                      LR    R15,R2
 004B26 06F0/12FF/4740_            30628  1                      MOVE  R15,SVDTMSG,@R1     Copy trace data
 004B32 5830 C8B4            008B4 30666  1                      L     R3,CVEBCTBL
 004B36 44F0 729C/DCFF_      04CDC 30667  1                      EX    R15,'TR SVDTMSG,@R3'  Convert to EBCDIC
1QUERY    (QUER2193) (12:52) (15MAR04) Utility Subroutines                                                                  Page   89
0Current Usings:  (STRC,R6) (*,R7) (SVDTWA-(4+36),R8) (CP,R11) (CV,R12)
0Loc    Object Code    Addr1 Addr2  Stmt Lv Lineno    Source Statement           (Hibal 5, Asmedit 3.3)  HLASM R4.0  2004/03/15 12.52
+___    ______ ____    _____ _____  ____ __ ______    ______ _________
0004B3A 4110 802B/1802       00003 30683  1                      SETMSG SVDTMSG,(R2)        EBCDIC trace data
 004B40                            30697                       END
                                   30701
                                   30702                       SETMSG (R1),(R0)           Trace data
 004B40 5900 71A4/4750_      04BE4 30712                       IF    (R0,GE,2),BEGIN     Check for trailing CR,LF...
 004B48 18F1                       30729  1                      LR    R15,R1
 004B4A 1AF0                       30730  1                      AR    R15,R0
 004B4C 4BF0 722E            04C6E 30731  1                      SH    R15,=H'2'
 004B50 D501 7230 F000_04C70 00000 30732  1                      IF    (@R15,EQ,X'0D25'),'SH R0,=H"2"'  Remove them
 004B5E                            30754                       END
                                   30758
 004B5E 58E0 71A8/0DEE       04BE8 30759                       VCALL MIXFMT              Write it in mixed format
 004B64 1B00/41F0 B050_            30763                       TCR
                                   30788
 004B70 18D8/9808 D004_            30789              STREEXIT PEND
 DROP   STRC,R6
 DROP   SVDTWA-(4+36),R8
 DROP   *,R7
                                   30820
                                   30821                       QLTORG
1QUERY    (QUER2193) (12:52) (15MAR04) Utility Subroutines                                                                  Page   90
0Current Usings:  (CP,R11) (CV,R12)
0Loc    Object Code    Addr1 Addr2  Stmt Lv Lineno    Source Statement           (Hibal 5, Asmedit 3.3)  HLASM R4.0  2004/03/15 12.52
+___    ______ ____    _____ _____  ____ __ ______    ______ _________
0                                  30878              ¿þþþþþþþþþþþþþþþþþþþþþþþþþþþþþþþþþþþþþþþþþþþþþþþþþþþþþþþþþþþþþþþþþþþþþÜ
                                   30879              Ÿ                                                                     Ÿ
                                   30880              Ÿ  SERVALLO -- Routine to allocate an SVIB control block.             Ÿ
                                   30881              Ÿ                                                                     Ÿ
                                   30882              Ÿ    On entry:                                                        Ÿ
                                   30883              Ÿ      R0  - 0 = user server                                          Ÿ
                                   30884              Ÿ            1 = public server                                        Ÿ
                                   30885              Ÿ      R15 - SVIB data (a new SVIB is created with this data)         Ÿ
                                   30886              Ÿ                                                                     Ÿ
                                   30887              Ÿ    On exit:                                                         Ÿ
                                   30888              Ÿ      R15 - New SVIB ptr                                             Ÿ
                                   30889              Ÿ                                                                     Ÿ
                                                      ¾þþþþþþþþþþþþþþþþþþþþþþþþþþþþþþþþþþþþþþþþþþþþþþþþþþþþþþþþþþþþþþþþþþþþþ»
0000000                00000 00020 30890              ALLOWA   RECORD BEGIN
 000000 00                         30898  1           ALLOFLAG   FLAG
 ALLOFLAG.ALLOFPUB 80 ONES         30902  1                      FLAG  ALLOFPUB            - Public server
                                   30907  1
 000004                            30908  1           ALLOMODP   DS    A                   Model SVIB ptr
 000008                            30909  1           ALLONO     DS    A                   Server number we allocated
                                   30910  1
 00000C                            30911  1           ALLOSVFN   DS    F                   First server number
 000010                            30912  1           ALLOSVLN   DS    F                   Last server number
 000014                            30913  1           ALLOSVIT   DS    A                   SVIT ptr
 000018                            30914  1           ALLOENDP   DS    A                   End of SVIT ptr
 00001C                            30915  1           ALLONXP    DS    A                   Next SVIT entry to use ptr
 000020                00020 00020 30916                       END
                                   30925              þþþþ
 004CE2 50E0 D000/9008_      00000 30926              SERVALLO PROC  ALLOWA
 USING  *,R7
 USING  ALLOWA-(4+36),R8
 004CFC D71F 8028 8028 00000 00000 30976                       CLEAR ALLOWA
 004D02 1200/4780 7010_            30983                       IF    (R0,NZ),'SET ALLOFPUB'  Public server
                                   31008
 USING  SVIB,R15                   31009                       WITH  (SVIB,R15),BEGIN
 004D0C D503 71BC F000_04EB8 00000 31023  1                      FAIL  (SVIB,NE,'SVIB'),SERVALLO,'Bad SERVALLO options'
 004D2E 9501 F048/4780_00048       31052  1                      FAIL  ~SVIB#MASTER,SERVALLO,'Bad SVIB type for SERVALLO'
 004D4E 50F0 802C            00004 31079  1                      ST    R15,ALLOMODP        Save model SVIB ptr
 DROP   SVIB,R15                   31080                       END
                                   31088
 004D52 9180 8028/47E0_00000       31089                       IF    ALLOFPUB,BEGIN      Public means allocate from CV...
 004D5A D203 8034 71C0 0000C 04EBC 31104  1                      MVC   ALLOSVFN,=A(CVPSFNO)  First server number
 004D60 D203 8038 71C4 00010 04EC0 31105  1                      MVC   ALLOSVLN,=A(CVPSLNO)  Last server number
 004D66 D203 803C C210 00014 00210 31106  1                      MVC   ALLOSVIT,CVPSTAB    SVIT ptr
 004D6C D203 8040 C214 00018 00214 31107  1                      MVC   ALLOENDP,CVPSENDP   End of SVIT ptr
 004D72 D203 8044 C218 0001C 00218 31108  1                      MVC   ALLONXP,CVPSNXP     Next SVIT entry to use ptr
 004D78                            31109                       END
                                   31113
 004D78 7080/47F0 709E 04D78 04D58 31114                       ELSE  BEGIN               User means allocate from CP...
 004D7C D203 8034 71C8 0000C 04EC4 31125  1                      MVC   ALLOSVFN,=A(CVUSFNO)  First server number
 004D82 D203 8038 71CC 00010 04EC8 31126  1                      MVC   ALLOSVLN,=A(CVUSLNO)  Last server number
 004D88 D203 803C C21C 00014 0021C 31127  1                      MVC   ALLOSVIT,CVUSTAB    SVIT ptr
 004D8E D203 8040 C220 00018 00220 31128  1                      MVC   ALLOENDP,CVUSENDP   End of SVIT ptr
 004D94 D203 8044 C224 0001C 00224 31129  1                      MVC   ALLONXP,CVUSNXP     Next SVIT entry to use ptr
1QUERY    (QUER2193) (12:52) (15MAR04) Utility Subroutines                                                                  Page   91
0Current Usings:  (*,R7) (ALLOWA-(4+36),R8) (CP,R11) (CV,R12)
0Loc    Object Code    Addr1 Addr2  Stmt Lv Lineno    Source Statement           (Hibal 5, Asmedit 3.3)  HLASM R4.0  2004/03/15 12.52
+___    ______ ____    _____ _____  ____ __ ______    ______ _________
0004D9A                            31130                       END
                                   31134                       ¿þþþþþþþþþþþþþþþþþþþþþþþþþþþþþþþþþþþþþþþþþþþþþþþþþþþþþþþþþþþþÜ
                                   31135                       Ÿ  If this is the first server to be allocated then we must  Ÿ
                                   31136                       Ÿ    allocate the server index table (SVIT).                 Ÿ
                                   31137                       ¾þþþþþþþþþþþþþþþþþþþþþþþþþþþþþþþþþþþþþþþþþþþþþþþþþþþþþþþþþþþþ»
 004D9A D603 803C 803C_00014 00014 31138                       IF    (ALLOSVIT,Z),BEGIN  Allocate SVIT...
 004DA4 5820 8038            00010 31154  1                      L     R2,ALLOSVLN
 004DA8 5B20 8034            0000C 31155  1                      S     R2,ALLOSVFN
 004DAC 4120 2001            00001 31156  1                      LA    R2,@R2+1            Number of server entries
 004DB0 8920 0002            00002 31157  1                      SLL   R2,2                Times 4
 004DB4 1802                       31158  1                      LR    R0,R2
 004DB6 58E0 71D0/0DEE       04ECC 31159  1                      VCALL GETCORE             Get memory for SVIT
 004DBC 5010 803C            00014 31163  1                      ST    R1,ALLOSVIT         Save SVIT ptr
 004DC0 5010 8044            0001C 31164  1                      ST    R1,ALLONXP          Next entry ptr
 004DC4 1831                       31165  1                      LR    R3,R1
 004DC6 18E3/18F2/1B11_            31166  1                      ZOT   @R3,(R2)            Zero SVIT
 004DCE 5810 803C            00014 31181  1                      L     R1,ALLOSVIT
 004DD2 1A12                       31182  1                      AR    R1,R2
 004DD4 5010 8040            00018 31183  1                      ST    R1,ALLOENDP         Save end of SVIT ptr
 004DD8                            31184                       END
                                   31188
 004DD8 5840 8044            0001C 31189                       L     R4,ALLONXP
 004DDC                            31190                       LOOP  BEGIN
 004DDC 5820 4000/1222_      00000 31196  1                      IF    ('LT R2,@R4',Z),EXIT
 004DE6 4140 4004            00004 31215  1                      LA    R4,@R4+4            Next entry
 004DEA 5940 8040/4750_      00018 31216  1                      IF    (R4,GE,ALLOENDP),'L R4,ALLOSVIT'  Wrap around
                                   31239  1
 004DF6 5940 8044/4770_      0001C 31240  1                      IF    (R4,EQ,ALLONXP),BEGIN  Should be very rare...
 004DFE 4110 71D4/4100_      04ED0 31257  2                        ABORT 'No more servers can be allocated.'
 004E0A                            31264  1                      END
 004E0A 47F0 70E0            04DDC 31268                       END
                                   31273                       ¿þþþþþþþþþþþþþþþþþþþþþþþþþþþþþþþþþþþþþþþþþþÜ
                                   31274                       Ÿ  R4 now points to our SVIT table entry.  Ÿ
                                   31275                       ¾þþþþþþþþþþþþþþþþþþþþþþþþþþþþþþþþþþþþþþþþþþ»
 004E0E 1804                       31276                       LR    R0,R4
 004E10 5B00 803C            00014 31277                       S     R0,ALLOSVIT         Offset in to table
 004E14 8800 0002            00002 31278                       SRL   R0,2                Divide by 4 (entry number)
 004E18 5A00 8034            0000C 31279                       A     R0,ALLOSVFN         Add first server number
 004E1C 5000 8030            00008 31280                       ST    R0,ALLONO           Save server number we assigned
                                   31281                       ¿þþþþþþþþþþþþþþþþþþþþþþþþþþþþÜ
                                   31282                       Ÿ  Update SVIT information.  Ÿ
                                   31283                       ¾þþþþþþþþþþþþþþþþþþþþþþþþþþþþ»
 004E20 4120 4004            00004 31284                       LA    R2,@R4+4
 004E24 5920 8040/4750_      00018 31285                       IF    (R2,GE,ALLOENDP),'L R2,ALLOSVIT'  Wrap around
 004E30 5020 8044            0001C 31308                       ST    R2,ALLONXP          Save updated new entry ptr
                                   31309
 004E34 9180 8028/47E0_00000       31310                       IF    ALLOFPUB,BEGIN      Update public server info...
 004E3C D203 C210 803C 00210 00014 31325  1                      MVC   CVPSTAB,ALLOSVIT    Save SVIT ptr
 004E42 D203 C214 8040 00214 00018 31326  1                      MVC   CVPSENDP,ALLOENDP   Save end of SVIT ptr
 004E48 D203 C218 8044 00218 0001C 31327  1                      MVC   CVPSNXP,ALLONXP     Save next SVIT entry ptr
 004E4E                            31328                       END
                                   31332
 004E4E 7156/47F0 7168 04E4E 04E3A 31333                       ELSE  BEGIN               Update private server info...
 004E52 D203 C21C 803C 0021C 00014 31344  1                      MVC   CVUSTAB,ALLOSVIT    Save SVIT ptr
1QUERY    (QUER2193) (12:52) (15MAR04) Utility Subroutines                                                                  Page   92
0Current Usings:  (*,R7) (ALLOWA-(4+36),R8) (CP,R11) (CV,R12)
0Loc    Object Code    Addr1 Addr2  Stmt Lv Lineno    Source Statement           (Hibal 5, Asmedit 3.3)  HLASM R4.0  2004/03/15 12.52
+___    ______ ____    _____ _____  ____ __ ______    ______ _________
0004E58 D203 C220 8040 00220 00018 31345  1                      MVC   CVUSENDP,ALLOENDP   Save end of SVIT ptr
 004E5E D203 C224 8044 00224 0001C 31346  1                      MVC   CVUSNXP,ALLONXP     Save next SVIT entry ptr
 004E64                            31347                       END
                                   31351                       ¿þþþþþþþþþþþþþþþþþþþþþþþþþþþþþþþþþþþþþþþþþþþþþþþþþþþþþþþþþÜ
                                   31352                       Ÿ  Create SVIB from the model passed to us and then save  Ÿ
                                   31353                       Ÿ    SVIB ptr in SVIT.                                    Ÿ
                                   31354                       ¾þþþþþþþþþþþþþþþþþþþþþþþþþþþþþþþþþþþþþþþþþþþþþþþþþþþþþþþþþ»
 004E64 4100 01AC            001AC 31355                       LA    R0,L'SVIB
 004E68 58E0 71D0/0DEE       04ECC 31356                       VCALL GETCORE             Get memory for SVIB
 004E6E 1851                       31360                       LR    R5,R1
 USING  SVIB,R5                    31361                       WITH  (SVIB,R5)
 004E70 18E5/41F0 01AC_            31374                       MOVEL SVIB,L:ALLOMODP,L'SVIB  Copy SVIB
                                   31396
 004E7E 9180 8028/47E0_00000       31397                       IF    ALLOFPUB,'SET SVIBFPUBLIC'  Set public server
 004E8A 7192/47F0 71A0 04E8A 04E84 31423                       ELSE  BEGIN               Private server...
 004E8E 58F0 C1C8            001C8 31434  1                      L     R15,CVCURJCB
 USING  JCB,R15                    31435  1                      WITH  (JCB,R15)
 004E92 50F0 5168            00168 31448  1                      ST    R15,SVIBCRJCB       Save creator's JCB ptr
 004E96 D204 516C F04A 0016C 0004A 31449  1                      MVC   SVIBCRACCT,JCBACCT  Save creator'a account
 DROP   JCB,R15                    31450                       END
                                   31459
 004E9C D203 5004 8030 00004 00008 31460                       MVC   SVIBNO,ALLONO       Set server number
                                   31461
 004EA2 5050 4000            00000 31462                       ST    R5,@R4              Set SVIB ptr in SVIT
                                   31463
 004EA6 41F0 5000            00000 31464                       LA    R15,SVIB            Return newly created SVIB ptr
 004EAA 18D8/9808 D004_            31465                       PEND
 DROP   SVIB,R5
 DROP   ALLOWA-(4+36),R8
 DROP   *,R7
                                   31495
                                   31496                       QLTORG
1QUERY    (QUER2193) (12:52) (15MAR04) Utility Subroutines                                                                  Page   93
0Current Usings:  (CP,R11) (CV,R12)
0Loc    Object Code    Addr1 Addr2  Stmt Lv Lineno    Source Statement           (Hibal 5, Asmedit 3.3)  HLASM R4.0  2004/03/15 12.52
+___    ______ ____    _____ _____  ____ __ ______    ______ _________
0                                  31516              ¿þþþþþþþþþþþþþþþþþþþþþþþþþþþþþþþþþþþþþþþþþþþþþþþþþþþþþþþþþþþþþþþþþþþþþÜ
                                   31517              Ÿ                                                                     Ÿ
                                   31518              Ÿ  SERVFREE -- Routine to free up all user connections.               Ÿ
                                   31519              Ÿ    This routine is called at the end of a user session.             Ÿ
                                   31520              Ÿ                                                                     Ÿ
                                                      ¾þþþþþþþþþþþþþþþþþþþþþþþþþþþþþþþþþþþþþþþþþþþþþþþþþþþþþþþþþþþþþþþþþþþþþ»
0004EF2 50E0 D000/9008_      00000 31521              SERVFREE XPROC
 USING  *,R7
                                   31561                       ¿þþþþþþþþþþþþþþþþþþþþþþþþþþþþþþþþþÜ
                                   31562                       Ÿ  Delete all our QINFO entries.  Ÿ
                                   31563                       ¾þþþþþþþþþþþþþþþþþþþþþþþþþþþþþþþþþ»
 004F0C 5850 B22C/1255_      0022C 31564                       WHILE ('LT R5,CPQINFOQ',NZ),BEGIN  Delete QINFO entries...
 USING  QINFO,R5                   31582  1                      WITH  (QINFO,R5)
 004F16 D203 B22C 5000 0022C 00000 31595  1                      MVC   CPQINFOQ,QINFLINK   Dequeue this entry
 004F1C 4110 5000            00000 31596  1                      LA    R1,QINFO
 004F20 58E0 7ADC/0DEE       059E8 31597  1                      VCALL FREECORE            Release QINFO entry
 004F26 47F0 7000            04F0C 31601                       END
 DROP   QINFO,R5
                                   31611                       ¿þþþþþþþþþþþþþþþþþþþþþþþþþþþþþþþÜ
                                   31612                       Ÿ  Delete all private servers.  Ÿ
                                   31613                       ¾þþþþþþþþþþþþþþþþþþþþþþþþþþþþþþþ»
 004F2A 5860 C21C/1266_      0021C 31614                       IF    ('LT R6,CVUSTAB',NZ),BEGIN   User servers...
 004F34 5960 C220/47B0_      00220 31630  1                      WHILE (R6,LT,CVUSENDP),BEGIN  Go through user servers...
 004F3C 5850 6000/1255       00000 31649  2                        LT    R5,@R6              Get SVIB ptr
 004F42 4780 704E            04F5A 31653  2                        IF    NZ,BEGIN            We have a server...
 USING  SVIB,R5                    31664  3                          WITH  (SVIB,R5)
 004F46 D503 5168 C1C8_00168 001C8 31677  3                          IF    (SVIBCRJCB,EQ,CVCURJCB),BEGIN  We created this one...
 004F50 41F0 5000            00000 31695  4                            LA    R15,SVIB
 004F54 58E0 7AE0/0DEE       059EC 31696  4                            ACALL SERVDEL             Delete this server
 004F5A                            31700  3                          END
 DROP   SVIB,R5                    31704  2                        END
                                   31713  2
 004F5A 4160 6004            00004 31714  2                        LA    R6,@R6+4            Next entry
 004F5E 47F0 7028            04F34 31715  1                      END
 004F62                            31720                       END
                                   31724                       ¿þþþþþþþþþþþþþþþþþþþþþþþþþþþþþþþþþþþÜ
                                   31725                       Ÿ  Disconnect from public servers.  Ÿ
                                   31726                       ¾þþþþþþþþþþþþþþþþþþþþþþþþþþþþþþþþþþþ»
 004F62 5860 C210/1266       00210 31727                       LT    R6,CVPSTAB           Public server table
 004F68 4780 708E            04F9A 31731                       IF    NZ,BEGIN
 004F6C 5960 C214/47B0_      00214 31742  1                      WHILE (R6,LT,CVPSENDP),BEGIN  Go through public servers...
 004F74 5850 6000/1255       00000 31761  2                        LT    R5,@R6              Get SVIB ptr
 004F7A 4780 7086            04F92 31765  2                        IF    NZ,BEGIN            We have a server...
 USING  SVIB,R5                    31776  3                          WITH  (SVIB,R5)
 004F7E D503 5188 C1C8_00188 001C8 31789  3                          IF    (SVIBJCBP,EQ,CVCURJCB),BEGIN  Belongs to us...
 004F88 58F0 5004            00004 31807  4                            L     R15,SVIBNO          Server number
 004F8C 58E0 7AE4/0DEE       059F0 31808  4                            ACALL SERVCLS             Close connection
 004F92                            31812  3                          END
 DROP   SVIB,R5                    31816  2                        END
                                   31825  2
 004F92 4160 6004            00004 31826  2                        LA    R6,@R6+4            Next entry
 004F96 47F0 7060            04F6C 31827  1                      END
 004F9A                            31832                       END
1QUERY    (QUER2193) (12:52) (15MAR04) Utility Subroutines                                                                  Page   94
0Current Usings:  (*,R7) (CP,R11) (CV,R12)
0Loc    Object Code    Addr1 Addr2  Stmt Lv Lineno    Source Statement           (Hibal 5, Asmedit 3.3)  HLASM R4.0  2004/03/15 12.52
+___    ______ ____    _____ _____  ____ __ ______    ______ _________
0                                  31836
 004F9A 1BFF                       31837                       CLEAR R15                 A-ok
 004F9C 18D8/9808 D004_            31841                       PEND
 DROP   *,R7
1QUERY    (QUER2193) (12:52) (15MAR04) Utility Subroutines                                                                  Page   95
0Current Usings:  (CP,R11) (CV,R12)
0Loc    Object Code    Addr1 Addr2  Stmt Lv Lineno    Source Statement           (Hibal 5, Asmedit 3.3)  HLASM R4.0  2004/03/15 12.52
+___    ______ ____    _____ _____  ____ __ ______    ______ _________
0                                  31862              ¿þþþþþþþþþþþþþþþþþþþþþþþþþþþþþþþþþþþþþþþþþþþþþþþþþþþþþþþþþþþþþþþþþþþþþÜ
                                   31863              Ÿ                                                                     Ÿ
                                   31864              Ÿ  SERVOPEN -- Routine to open a query connection to the server       Ÿ
                                   31865              Ÿ    specified.  This routine takes care of creating a new server     Ÿ
                                   31866              Ÿ    entry if none are idle.                                          Ÿ
                                   31867              Ÿ                                                                     Ÿ
                                   31868              Ÿ    On entry:                                                        Ÿ
                                   31869              Ÿ      R1 - model SVIB ptr (with SVIBNAME or SVIBNO filled in)        Ÿ
                                   31870              Ÿ                                                                     Ÿ
                                   31871              Ÿ    On exit, R15 (and cc):                                           Ÿ
                                   31872              Ÿ       0 - OK;                    R1 = SVIB ptr                      Ÿ
                                   31873              Ÿ      -1 - network error;         R1,R0 = error msg loc,len          Ÿ
                                   31874              Ÿ       1 - query error;           R1,R0 = error msg loc,len          Ÿ
                                   31875              Ÿ       2 - no such server                                            Ÿ
                                   31876              Ÿ                                                                     Ÿ
                                                      ¾þþþþþþþþþþþþþþþþþþþþþþþþþþþþþþþþþþþþþþþþþþþþþþþþþþþþþþþþþþþþþþþþþþþþþ»
0004FAA 50E0 D000/9028_      00000 31877              SERVOPEN XPROC (R2,LSR)
 USING  *,R7
 004FC4 1851                       31917                       LR    R5,R1               Save server name ptr
 USING  SVIB,R5                    31918                       WITH  (SVIB,R5)
                                   31931                       ¿þþþþþþþþþþþþþþþþþþþþþþþþþþþþþþþþþþþþþþþþþþþþþþþþþÜ
                                   31932                       Ÿ  Handle opening a server explicitly by number.  Ÿ
                                   31933                       ¾þþþþþþþþþþþþþþþþþþþþþþþþþþþþþþþþþþþþþþþþþþþþþþþþþ»
 004FC6 D61F 5008 5008_00008 00008 31934                       IF    (SVIBNAME,Z),BEGIN  No name...
 004FD0 58F0 5004            00004 31950  1                      L     R15,SVIBNO          Server number
 004FD4 58E0 7A30/0DEE       059F4 31951  1                      ACALL SERVGET             Get SVIB ptr
 004FDA 4770 702A            04FEE 31955  1                      IF    Z,BEGIN             No such server...
 004FDE 4110 7ABC/4100_      05A80 31966  2                        SETMSG 'NO SUCH SERVER'
 004FE6 41F0 0002            00002 31970  2                        LA    R15,2               No such server
 004FEA 47F0 7080            05044 31971  2                        B     SOPNEXIT            Scram
 004FEE                            31972  1                      END
                                   31976  1
 004FEE 185F                       31977  1                      LR    R5,R15              Our SVIB ptr
                                   31978  1
 004FF0 9503 5048/4780_00048       31979  1                      IF    ~SVIB#IDLE,BEGIN    Can't take this one...
 004FF8 4110 7A34/4100_      059F8 31994  2                        SETMSG 'SERVER NOT AVAILABLE'
 005000 41F0 0002            00002 31998  2                        LA    R15,2               Server is busy (probably)
 005004 47F0 7080            05044 31999  2                        B     SOPNEXIT            Scram
 005008                            32000  1                      END
                                   32004  1
 005008 4110 5000            00000 32005  1                      LA    R1,SVIB
 00500C 4DE0 7386            0534A 32006  1                      LCALL OPENSETU            Make SVIB ours
 005010 4770 7054/4110_      05018 32008  1                      IF    Z,'LA R1,SVIB'      Pass back SVIB ptr for caller
 005018 47F0 7080            05044 32025  1                      B     SOPNEXIT            All done
 00501C                            32026                       END
                                   32030                       ¿þþþþþþþþþþþþþþþþþþþþþþþþþþþþþþþþþÜ
                                   32031                       Ÿ  Try to open as a user server.  Ÿ
                                   32032                       ¾þþþþþþþþþþþþþþþþþþþþþþþþþþþþþþþþþ»
 00501C 5800 C21C            0021C 32033                       L     R0,CVUSTAB          Start of user SVIT
 005020 5810 C220            00220 32034                       L     R1,CVUSENDP         End of SVIT
 005024 41F0 5008            00008 32035                       LA    R15,SVIBNAME        Server name
 005028 4DE0 708E            05052 32036                       LCALL OPENFIND            Try to open a server connection
 00502C 59F0 7A48/4770_      05A0C 32038                       IF    (R15,EQ,2),BEGIN    No such server...
1QUERY    (QUER2193) (12:52) (15MAR04) Utility Subroutines                                                                  Page   96
0Current Usings:  (SVIB,R5) (*,R7) (CP,R11) (CV,R12)
0Loc    Object Code    Addr1 Addr2  Stmt Lv Lineno    Source Statement           (Hibal 5, Asmedit 3.3)  HLASM R4.0  2004/03/15 12.52
+___    ______ ____    _____ _____  ____ __ ______    ______ _________
0                                  32055  1                      ¿þþþþþþþþþþþþþþþþþþþþþþþþþþþþþþþþþþþÜ
                                   32056  1                      Ÿ  Try to open as a public server.  Ÿ
                                   32057  1                      ¾þþþþþþþþþþþþþþþþþþþþþþþþþþþþþþþþþþþ»
 005034 5800 C210            00210 32058  1                      L     R0,CVPSTAB          Start of public SVIT
 005038 5810 C214            00214 32059  1                      L     R1,CVPSENDP         End of SVIT
 00503C 41F0 5008            00008 32060  1                      LA    R15,SVIBNAME        Server name
 005040 4DE0 708E            05052 32061  1                      LCALL OPENFIND            Open a server connection
 005044                            32063                       END
                                   32067
 005044 18D8/9828 D004_            32068              SOPNEXIT PEND
 DROP   SVIB,R5
 DROP   *,R7
1QUERY    (QUER2193) (12:52) (15MAR04) Utility Subroutines                                                                  Page   97
0Current Usings:  (CP,R11) (CV,R12)
0Loc    Object Code    Addr1 Addr2  Stmt Lv Lineno    Source Statement           (Hibal 5, Asmedit 3.3)  HLASM R4.0  2004/03/15 12.52
+___    ______ ____    _____ _____  ____ __ ______    ______ _________
0                                  32095              ¿þþþþþþþþþþþþþþþþþþþþþþþþþþþþþþþþþþþþþþþþþþþþþþþþþþþþþþþþþþþþþþþþþþþþþÜ
                                   32096              Ÿ                                                                     Ÿ
                                   32097              Ÿ  OPENFIND -- Local routine to find a matching idle server from the  Ÿ
                                   32098              Ÿ    server list passed to it.  If there is a master definition       Ÿ
                                   32099              Ÿ    for the server, but no servers are currently idle then a new     Ÿ
                                   32100              Ÿ    server entry will be created.                                    Ÿ
                                   32101              Ÿ                                                                     Ÿ
                                   32102              Ÿ    On entry:                                                        Ÿ
                                   32103              Ÿ      R0 - Start of SVIT ptr (or zero)                               Ÿ
                                   32104              Ÿ      R1 - End of SVIT ptr                                           Ÿ
                                   32105              Ÿ      R15 - Server name (L'SVIBNAME)                                 Ÿ
                                   32106              Ÿ                                                                     Ÿ
                                   32107              Ÿ    On exit, R15 (and cc):                                           Ÿ
                                   32108              Ÿ       0 - OK;                    R1 = SVIB ptr                      Ÿ
                                   32109              Ÿ      -1 - network error;         R1,R0 = error msg loc,len          Ÿ
                                   32110              Ÿ       1 - query error;           R1,R0 = error msg loc,len          Ÿ
                                   32111              Ÿ       2 - no such server                                            Ÿ
                                   32112              Ÿ                                                                     Ÿ
                                                      ¾þþþþþþþþþþþþþþþþþþþþþþþþþþþþþþþþþþþþþþþþþþþþþþþþþþþþþþþþþþþþþþþþþþþþþ»
0000000                00000 00034 32113              OPENWA   RECORD BEGIN
 000000                            32121  1           OPENSVIT   DS    A                   Start of SVIT
 000004                            32122  1           OPENENDP   DS    A                   End of SVIT
                                   32123  1
 000008                            32124  1           OPENNAME   DS    CL(L'SVIBNAME)      Server name
                                   32125  1
 000028                            32126  1           OPENMASP   DS    A                   Master SVIB ptr
 00002C                            32127  1           OPENCURC   DS    F                   No. of connections active
 000030                            32128  1           OPENOURC   DS    F                   No. of our connections active
 000034                00034 00034 32129                       END
                                   32138              þþþþ
 005052 50E0 D000/9028_      00000 32139              OPENFIND PROC  (R2,LSR),OPENWA
 USING  *,R7
 USING  OPENWA-(4+28),R8
 00506C D733 8020 8020 00000 00000 32188                       CLEAR OPENWA
 005072 D21F 8028 F000 00008 00000 32195                       MVC   OPENNAME,@R15       Save server name
 005078 5000 8020            00000 32196                       ST    R0,OPENSVIT         Save start of SVIT ptr
 00507C 5010 8024            00004 32197                       ST    R1,OPENENDP         Save end of SVIT ptr
                                   32198
 005080 D703 8048 8048_00028 00028 32199              OPENRTRY CLEAR OPENMASP,OPENCURC,OPENOURC  Reset
 005092 5860 8020/1266       00000 32217                       LT    R6,OPENSVIT         Get user server index table ptr
 005098 4770 7040            050AC 32221                       IF    Z,BEGIN             No servers at all...
 00509C 4110 7A14/4100_      05A80 32232  1                      SETMSG 'NO SUCH SERVER'
 0050A4 41F0 0002            00002 32236  1                      LA    R15,2               No such server
 0050A8 47F0 72D0            0533C 32237  1                      B     OFINEXIT            Scram
 0050AC                            32238                       END
                                   32242                       ¿þþþþþþþþþþþþþþþþþþþþþþþþþþþþþþþþþþþþÜ
                                   32243                       Ÿ  Find all servers with this name.  Ÿ
                                   32244                       ¾þþþþþþþþþþþþþþþþþþþþþþþþþþþþþþþþþþþþ»
 0050AC 5960 8024/47B0_      00004 32245                       WHILE (R6,LT,OPENENDP),BEGIN  Go through user servers...
 0050B4 5850 6000/1255       00000 32264  1                      LT    R5,@R6              SVIB ptr
 0050BA 4780 70C6            05132 32268  1                      IF    NZ,BEGIN
 USING  SVIB,R5                    32279  2                        WITH  (SVIB,R5)
                                   32292  2
1QUERY    (QUER2193) (12:52) (15MAR04) Utility Subroutines                                                                  Page   98
0Current Usings:  (SVIB,R5) (*,R7) (OPENWA-(4+28),R8) (CP,R11) (CV,R12)
0Loc    Object Code    Addr1 Addr2  Stmt Lv Lineno    Source Statement           (Hibal 5, Asmedit 3.3)  HLASM R4.0  2004/03/15 12.52
+___    ______ ____    _____ _____  ____ __ ______    ______ _________
00050BE D603 5168 5168_00168 00168 32293  2                        IF    ((SVIBCRJCB,NZ),AND,(SVIBCRJCB,NE,CVCURJCB)),EXIT
                                   32329  2
 0050D2 D51F 8028 5008_00008 00008 32330  2                        IF    (OPENNAME,NE,SVIBNAME),EXIT  All done
                                   32351  2                        ¿þþþþþþþþþþþþþþþþþþþþþþþþþþþÜ
                                   32352  2                        Ÿ  Save master server ptr.  Ÿ
                                   32353  2                        ¾þþþþþþþþþþþþþþþþþþþþþþþþþþþ»
 0050DC 9501 5048/4770_00048       32354  2                        IF    SVIB#MASTER,BEGIN   Master definition for server...
 0050E4 5050 8048            00028 32369  3                          ST    R5,OPENMASP         Save master SVIB ptr
 0050E8                            32370  2                        END
                                   32374  2                        ¿þþþþþþþþþþþþþþþþÜ
                                   32375  2                        Ÿ  Idle server.  Ÿ
                                   32376  2                        ¾þþþþþþþþþþþþþþþþ»
 0050E8 7080/47F0 7098_050E8 050E2 32377  2                        ELSEIF SVIB#IDLE,BEGIN    Idle server...
 0050F4 4110 5000            00000 32401  3                          LA    R1,SVIB
 0050F8 4DE0 72DE            0534A 32402  3                          LCALL OPENSETU            Make SVIB ours
 0050FC 4770 72D0            0533C 32404  3                          BNZ   OFINEXIT            Trouble, scram
 005100 47F0 72CA            05336 32405  3                          B     OFINDONE            All done
 005104                            32406  2                        END
                                   32410  2                        ¿þþþþþþþþþþþþþþþþÜ
                                   32411  2                        Ÿ  Busy server.  Ÿ
                                   32412  2                        ¾þþþþþþþþþþþþþþþþ»
 005104 709C/47F0 70C6_05104 050F2 32413  2                        ELSEIF SVIB#BUSY,BEGIN    Busy server...
 005110 41F0 0001/5EF0_      00001 32437  3                          INCR  R15,OPENCURC        Count number of busy servers
 00511C D503 5188 C1C8_00188 001C8 32443  3                          IF    (SVIBJCBP,EQ,CVCURJCB),'INCR R15,OPENOURC'  Count
 005132                            32472  2                        END
 DROP   SVIB,R5                    32476  1                      END
                                   32485  1
 005132 4160 6004            00004 32486  1                      LA    R6,@R6+4            Next SVIT entry
 005136 47F0 7040            050AC 32487                       END
                                   32492                       ¿þþþþþþþþþþþþþþþþþþþþþþþþþþþþþþþþþþþþþþþþþþþþþþþþþþþþþþþþþþÜ
                                   32493                       Ÿ  No available server was found.  If we found the master  Ÿ
                                   32494                       Ÿ    definition then we can start a new server; otherwise  Ÿ
                                   32495                       Ÿ    it's an unknown server name.                          Ÿ
                                   32496                       ¾þþþþþþþþþþþþþþþþþþþþþþþþþþþþþþþþþþþþþþþþþþþþþþþþþþþþþþþþþþ»
 00513A D603 8048 8048_00028 00028 32497                       IF    (OPENMASP,Z),BEGIN  Not found...
 005144 4110 7A14/4100_      05A80 32513  1                      SETMSG 'NO SUCH SERVER'
 00514C 41F0 0002            00002 32517  1                      LA    R15,2               Not found
 005150 47F0 72D0            0533C 32518  1                      B     OFINEXIT
 005154                            32519                       END
                                   32523                       ¿þþþþþþþþþþþþþþþþþþþþþþþþþþþþþþþþþþþþþþþþþþþþþþþþþþþþþþþþþþþÜ
                                   32524                       Ÿ  Check to see if we are allowed to open another server    Ÿ
                                   32525                       Ÿ    connection.  If we already have the maximum number of  Ÿ
                                   32526                       Ÿ    connections active then wait for a connection to free  Ÿ
                                   32527                       Ÿ    up.                                                    Ÿ
                                   32528                       ¾þþþþþþþþþþþþþþþþþþþþþþþþþþþþþþþþþþþþþþþþþþþþþþþþþþþþþþþþþþþ»
 005154 58F0 8048            00028 32529                       L     R15,OPENMASP        Master SVIB ptr
 005158 5820 F1A8            001A8 32530                       WITH  (SVIB,R15),'L R2,SVIBMAX'  Max connections allowed
 USING  SVIB,R15
 DROP   SVIB,R15
 00515C 1222/4780 7272             32554                       IF    (R2,NZ),BEGIN       There is a limit...
 005162 5920 804C/4720_      0002C 32568  1                      IF    (OPENCURC,LT,R2),EXIT  OK to start a new one
 00516A D503 804C 8050_0002C 00030 32588  1                      IF    (OPENCURC,EQ,OPENOURC),BEGIN
 005174 4110 7A50/4100_      05ABC 32606  2                        TSEG  'You currently have '
 005186 D503 79A8 8050_05A14 00030 32624  2                        IF    (OPENOURC,EQ,1),'TSEG "an open connection "'
1QUERY    (QUER2193) (12:52) (15MAR04) Utility Subroutines                                                                  Page   99
0Current Usings:  (*,R7) (OPENWA-(4+28),R8) (CP,R11) (CV,R12)
0Loc    Object Code    Addr1 Addr2  Stmt Lv Lineno    Source Statement           (Hibal 5, Asmedit 3.3)  HLASM R4.0  2004/03/15 12.52
+___    ______ ____    _____ _____  ____ __ ______    ______ _________
00051A2 713A/47F0 715C_051A2 0518E 32665  2                        ELSE  'TNUM L:OPENOURC; TSEG " open connections "'
 0051C8 4110 7A34/4100_      05AA0 32721  2                        TSEG  'to server '
 0051DA 4110 8028/4100_      00008 32739  2                        TSEG  OPENNAME,,T
 0051EC 1B00/41F0 B050_            32767  2                        TCR
 0051F8 4110 790C/4100_      05978 32792  2                        TSEG  'Can''t open any more connections.'
 00520A 47F0 C7DA            007DA 32810  2                        B     CVABORT
 00520E                            32811  1                      END
                                   32815  1
 00520E 58E0 79B8/0DEE       05A24 32816  1                      VCALL LOCALTOD
 005214 18FD/41D0 D020             32820  1                      XPUSH ,,32,PTR=R15
 00521A 58E0 79BC/0DEE       05A28 32823  1                      VCALL FMTTIME
 005220 4100 0005/41F0_      00005 32827  1                      TSEG  (R1),5,B            Hh:mm
 00522E 4BD0 7A3E            05AAA 32854  1                      XPOP  ,,32
                                   32856  1
 005232 4110 79C4/4100_      05A30 32857  1                      TSEG  'Waiting for '
 005244 4110 8028/4100_      00008 32875  1                      TSEG  OPENNAME,,TB
 005256 4110 7A40/4100_      05AAC 32903  1                      TSEG  'server'
                                   32921  1
 005268 D503 79A8 804C_05A14 0002C 32922  1                      IF    (OPENCURC,EQ,1),BEGIN  Only one connection allowed...
 005272 4110 7A76/4100_      05AE2 32940  2                        TSEG  ' (currently in use by another user)'
 005284                            32958  1                      END
                                   32962  1
 005284 721C/47F0 7250 05284 05270 32963  1                      ELSE  BEGIN               Many connections but all in use...
 005288 4110 7A46/4100_      05AB2 32974  2                        TSEG  ' ('
 00529A 5810 804C/1B00_      0002C 32992  2                        TNUM  L:OPENCURC
 0052AA 4110 7A99/4100_      05B05 33014  2                        TSEG  ' connections currently in use by other users)'
 0052BC                            33032  1                      END
                                   33036  1
 0052BC 1B00/41F0 B050_            33037  1                      TWRITE
 0052C8 4770 C7DA            007DA 33062  1                      BNZ   CVABORT             Attn aborts
                                   33063  1
 0052CC 58F0 79D8            05A44 33064  1                      L     R15,=A(15*100)      15 seconds
 0052D0 58E0 79DC/0DEE       05A48 33065  1                      VCALL WAITER              Wait
 0052D6 4770 C7DA            007DA 33069  1                      BNZ   CVABORT             Attn aborts
                                   33070  1
 0052DA 47F0 7014            05080 33071  1                      B     OPENRTRY            Go try it again
 0052DE                            33072                       END
                                   33076                       ¿þþþþþþþþþþþþþþþþþþþþþþþþþþþþþþþþþþþþþþþþþþþþþþþþþþþþþþþþÜ
                                   33077                       Ÿ  We have the master definition, now create a new idle  Ÿ
                                   33078                       Ÿ    server entry from that definition.                  Ÿ
                                   33079                       ¾þþþþþþþþþþþþþþþþþþþþþþþþþþþþþþþþþþþþþþþþþþþþþþþþþþþþþþþþ»
 0052DE 58F0 8048            00028 33080                       L     R15,OPENMASP        Copy data from master definition
 USING  SVIB,R15                   33081                       WITH  (SVIB,R15),BEGIN
 0052E2 1B00                       33095  1                      CLEAR R0                  Assume user server
 0052E4 9120 F049/47E0_00049       33099  1                      IF    SVIBFPUBLIC,'LA R0,1'  Public server
 DROP   SVIB,R15                   33120                       END
                                   33128              *        R0 = server type; R15 = model SVIB ptr
 0052F0 58E0 79E0/0DEE       05A4C 33129                       ACALL SERVALLO            Allocate a new server entry
 0052F6 185F                       33133                       LR    R5,R15              Newly created SVIB ptr
 USING  SVIB,R5                    33134                       WITH  (SVIB,R5)
 0052F8 D503 79E4 5000_05A50 00000 33147                       FAIL  (SVIB,NE,'SVIB'),OFINERR,'OPENFIND error.'
                                   33176
 00531A 9203 5048      00048       33177                       SET   SVIB#IDLE           Server is idle
                                   33183
1QUERY    (QUER2193) (12:52) (15MAR04) Utility Subroutines                                                                  Page  100
0Current Usings:  (SVIB,R5) (*,R7) (OPENWA-(4+28),R8) (CP,R11) (CV,R12)
0Loc    Object Code    Addr1 Addr2  Stmt Lv Lineno    Source Statement           (Hibal 5, Asmedit 3.3)  HLASM R4.0  2004/03/15 12.52
+___    ______ ____    _____ _____  ____ __ ______    ______ _________
000531E 4110 5000            00000 33184                       LA    R1,SVIB
 005322 4DE0 72DE            0534A 33185                       LCALL OPENSETU            Make SVIB ours
 005326 4770 72D0            0533C 33187                       BNZ   OFINEXIT            Trouble, scram
 00532A 47F0 72CA            05336 33188                       B     OFINDONE            All done
                                   33189                       ¿þþþþþþþþþþþþþþþþþþþþþþþþþþþþþþþþþþþþþþþþþþþþÜ
                                   33190                       Ÿ  Open error; R15 return code already set.  Ÿ
                                   33191                       ¾þþþþþþþþþþþþþþþþþþþþþþþþþþþþþþþþþþþþþþþþþþþþ»
 00532E 48F0 7A48            05AB4 33192              OFINNERR LH    R15,=H'-1'          Network error return code
 005332 47F0 72D0            0533C 33193              OFINERR  B     OFINEXIT
                                   33194
 005336 4110 5000            00000 33195              OFINDONE LA    R1,SVIB             Return SVIB ptr
 00533A 1BFF                       33196                       CLEAR R15                 A-ok
 00533C 18D8/9828 D004_            33200              OFINEXIT PEND
 DROP   SVIB,R5
 DROP   OPENWA-(4+28),R8
 DROP   *,R7
1QUERY    (QUER2193) (12:52) (15MAR04) Utility Subroutines                                                                  Page  101
0Current Usings:  (CP,R11) (CV,R12)
0Loc    Object Code    Addr1 Addr2  Stmt Lv Lineno    Source Statement           (Hibal 5, Asmedit 3.3)  HLASM R4.0  2004/03/15 12.52
+___    ______ ____    _____ _____  ____ __ ______    ______ _________
0                                  33232              ¿þþþþþþþþþþþþþþþþþþþþþþþþþþþþþþþþþþþþþþþþþþþþþþþþþþþþþþþþþþþþþþþþþþþþþÜ
                                   33233              Ÿ                                                                     Ÿ
                                   33234              Ÿ  OPENSETU -- Local routine to make the SVIB belong to the current   Ÿ
                                   33235              Ÿ    user.                                                            Ÿ
                                   33236              Ÿ                                                                     Ÿ
                                   33237              Ÿ    On entry:                                                        Ÿ
                                   33238              Ÿ      R1 - SVIB ptr                                                  Ÿ
                                   33239              Ÿ                                                                     Ÿ
                                   33240              Ÿ    On exit, R15 (and cc):                                           Ÿ
                                   33241              Ÿ      0 - ok                                                         Ÿ
                                   33242              Ÿ     -1 - network error;       R1,R0 - error msg loc, len            Ÿ
                                   33243              Ÿ      1 - query error;         R1,R0 - error msg loc, len            Ÿ
                                   33244              Ÿ      2 - SVIB not available;  R1,R0 - error msg loc, len            Ÿ
                                   33245              Ÿ                                                                     Ÿ
                                                      ¾þþþþþþþþþþþþþþþþþþþþþþþþþþþþþþþþþþþþþþþþþþþþþþþþþþþþþþþþþþþþþþþþþþþþþ»
000534A 50E0 D000/9028_      00000 33246              OPENSETU PROC  (R2,LSR)
 USING  *,R7
 005364 1851                       33285                       LR    R5,R1
 USING  SVIB,R5                    33286                       WITH  (SVIB,R5)
 005366 D503 76EC 5000_05A50 00000 33299                       FAIL  (SVIB,NE,'SVIB'),OPENSETU,'Bad SVIB ptr.'
 005388 D603 5188 5188_00188 00188 33328                       FAIL  (SVIBJCBP,NZ),OPENSETU,'Bad SVIB owner.'
                                   33356
 0053AA 9503 5048/4780_00048       33357                       IF    ~SVIB#IDLE,BEGIN    SVIB not available...
 0053B2 4110 7694/4100_      059F8 33372  1                      SETMSG 'SERVER NOT AVAILABLE'
 0053BA 41F0 0002            00002 33376  1                      LA    R15,2
 0053BE 47F0 7546            058AA 33377  1                      B     SETUEXIT            Scram
 0053C2                            33378                       END
                                   33382
 0053C2 9204 5048      00048       33383                       SET   SVIB#BUSY           Server is doing work now
 0053C6 B205 5180      00180       33389                       STCK  SVIBCLK             Clock when server became busy
 0053CA D203 5188 C1C8 00188 001C8 33390                       MVC   SVIBJCBP,CVCURJCB   Our JCB ptr
                                   33391                       ¿þþþþþþþþþþþþþþþþþþþþþþþþþþþþÜ
                                   33392                       Ÿ  Allocate a network path.  Ÿ
                                   33393                       ¾þþþþþþþþþþþþþþþþþþþþþþþþþþþþ»
 0053D0 D603 518C 518C_0018C 0018C 33394                       IF    (SVIBUNET,Z),BEGIN  Allocate network path...
 0053DA 9180 5049/47E0_00049       33410  1                      FAIL  SVIBFINIT,OPENSETU,'NPATALLO SETU logic error.'
                                   33437  1
 0053FA 1B00                       33438  1                      CLEAR R0                  Assume user UNET
 0053FC 9120 5049/47E0_00049       33442  1                      IF    SVIBFPUBLIC,'LA R0,1'  Global UNET
 005408 58E0 76F0/0DEE       05A54 33463  1                      VCALL NPATALLO            Allocate a network path
 00540E 4780 70B6/48F0_      0541A 33467  1                      IF    NZ,'LH R15,=H"-1"; B SETUEXIT'  Can't allocate, scram
 00541A 5010 518C            0018C 33485  1                      ST    R1,SVIBUNET         Save UNET ptr
                                   33486  1                      ¿þþþþþþþþþþþþþþþþþþþþþþþþþþþþþþþþþþþþþþþþþþþþþþþþÜ
                                   33487  1                      Ÿ  Set host name, port number and UNET options.  Ÿ
                                   33488  1                      ¾þþþþþþþþþþþþþþþþþþþþþþþþþþþþþþþþþþþþþþþþþþþþþþþþ»
 00541E 5840 518C            0018C 33489  1                      L     R4,SVIBUNET
 USING  UNET,R4                    33490  1                      WITH  (UNET,R4),BEGIN
 005422 5050 4024            00024 33504  2                        ST    R5,UNETSVIB         Save SVIB ptr in UNET
 005426 D24F 417C 506C 0017C 0006C 33505  2                        MVC   UNETRNAME,SVIBRHOST Set server host name
 00542C D203 41D0 50BC 001D0 000BC 33506  2                        MVC   UNETRPORT,SVIBRPORT Set port number
 005432 9620 4165      00165       33507  2                        SET   UNETFKEEPTABS       Don't expand tabs
 005436 D201 4168 7752 00168 05AB6 33513  2                        MVC   UNETMAXL,=AL2(UNETBUF#-10)  Maximum allowed - slop
 00543C 94BF 4165      00165       33514  2                        CLEAR UNETFWRAP           Truncate very long lines
1QUERY    (QUER2193) (12:52) (15MAR04) Utility Subroutines                                                                  Page  102
0Current Usings:  (SVIB,R5) (*,R7) (CP,R11) (CV,R12)
0Loc    Object Code    Addr1 Addr2  Stmt Lv Lineno    Source Statement           (Hibal 5, Asmedit 3.3)  HLASM R4.0  2004/03/15 12.52
+___    ______ ____    _____ _____  ____ __ ______    ______ _________
0DROP   UNET,R4                    33521  1                      END
 005440                            33529                       END
                                   33533                       ¿þþþþþþþþþþþþþþþþþþþþþþþþþþþþþþþþþþþþþþþþþþþþþþþþþþþþÜ
                                   33534                       Ÿ  Mark this network connection as belonging to us.  Ÿ
                                   33535                       ¾þþþþþþþþþþþþþþþþþþþþþþþþþþþþþþþþþþþþþþþþþþþþþþþþþþþþ»
 005440 5840 518C            0018C 33536                       L     R4,SVIBUNET
 USING  UNET,R4                    33537                       WITH  (UNET,R4)
                                   33550                       SEGDEF LA:UNETOUTSG       Our network seg buffer
 005444 9120 5049/47E0_00049       33551                       IF    SVIBFPUBLIC,'LA R15,UNET; VCALL NPATSETU'  Take it
                                   33576
 005456 41F0 5000            00000 33577                       LA    R15,SVIB
 00545A 58E0 76F8/0DEE       05A5C 33578                       ACALL SERVFBUF            Free any old buffers
                                   33582                       ¿þþþþþþþþþþþþþþþþþþþþþþþþþþþþþþþþþþþþþþþþþþþþþþþÜ
                                   33583                       Ÿ  Post anyone waiting to monitor this server.  Ÿ
                                   33584                       ¾þþþþþþþþþþþþþþþþþþþþþþþþþþþþþþþþþþþþþþþþþþþþþþþ»
 005460 4130 C228            00228 33585                       LA    R3,CVQMONQ-(QMWLINK-QMW)  Dummy first entry
 005464                            33586              SETUQMON LOOP  BEGIN
 USING  QMW,R3                     33593  1                      WITH  (QMW,R3)
 005464 5830 3000/1233_      00000 33606  1                      WHILE ('LT R3,QMWLINK',NZ)
 00546E D51F 3008 5008_00008 00008 33623  1                      IF    (QMWNAME,EQ,SVIBNAME),BEGIN  We matched a server...
 005478 5820 3028/1222_      00028 33641  2                        IF    ('LT R2,QMWJCBP',NZ),BEGIN  Someone is waiting...
 005482 D203 3004 5004 00004 00004 33657  3                          MVC   QMWNO,SVIBNO        Save our server number in QMW
 USING  JCB,R2                     33658  3                          WITH  (JCB,R2)
 005488 9110 2061/47E0_00061       33671  3                          IF    JCBWWFGEN,BEGIN     Waiting for our post...
 005490 94EF 2061      00061       33686  4                            CLEAR JCBWWFGEN           Reset waiting
 005494 9110 2062/4710_00062       33693  4                            IF    ~JCBAPDSP,'SETUP (R2)'  Start up the monitoring user
 0054B2 47F0 7156            054BA 33739  4                            EXIT  SETUQMON            All done
 0054B6                            33742  3                          END
 DROP   JCB,R2                     33746  2                        END
 0054B6                            33755  1                      END
 0054B6 47F0 7100            05464 33759                       END
 DROP   QMW,R3
                                   33769                       ¿þþþþþþþþþþþþþþþþþþþþþþþþþþþþþþþþþþþþþþþþþþþþþþþþþþþÜ
                                   33770                       Ÿ  Open connection and wait for greetings message.  Ÿ
                                   33771                       ¾þþþþþþþþþþþþþþþþþþþþþþþþþþþþþþþþþþþþþþþþþþþþþþþþþþþ»
 0054BA 9180 5049/4710_00049       33772                       IF    ~SVIBFINIT,BEGIN    Initialize query connection...
 0054C2 41F0 4000            00000 33787  1                      LA    R15,UNET
 0054C6 58E0 7700/0DEE       05A64 33788  1                      VCALL NPATOPEN            Open network connection
 0054CC 4780 7174/48F0_      054D8 33792  1                      IF    NZ,'LH R15,=H"-1"; B SETUEXIT'  Net trouble, scram
                                   33810  1
 0054D8 4110 77CE            05B32 33811  1                      LA    R1,=C'...'          Wait for server ready message
 0054DC 41F0 4000            00000 33812  1                      LA    R15,UNET            UNET ptr
 0054E0 58E0 7704/0DEE       05A68 33813  1                      ACALL SERVREAD            Get response
 0054E6 4770 7546            058AA 33817  1                      BNZ   SETUEXIT            Trouble, go close connection
                                   33818  1
 0054EA 4110 1004            00004 33819  1                      LA    R1,@R1+4            Skip over numeric response code
 0054EE 4B00 7754            05AB8 33820  1                      SH    R0,=H'4'
 0054F2 47D0 71B2            05516 33821  1                      IF    POS,BEGIN           We have some text...
 0054F6 D24F 5100 C4D8 00100 004D8 33832  2                        MVC   SVIBINFO,CVBLANKS
 0054FC 5900 7708/47D0_      05A6C 33833  2                        CEIL  R0,L'SVIBINFO       Not too long now
 005508 18F0                       33852  2                        LR    R15,R0
 00550A 06F0/12FF/4740_            33853  2                        MOVE  R15,SVIBINFO,@R1    Save server info text
 005516                            33891  1                      END
1QUERY    (QUER2193) (12:52) (15MAR04) Utility Subroutines                                                                  Page  103
0Current Usings:  (UNET,R4) (SVIB,R5) (*,R7) (CP,R11) (CV,R12)
0Loc    Object Code    Addr1 Addr2  Stmt Lv Lineno    Source Statement           (Hibal 5, Asmedit 3.3)  HLASM R4.0  2004/03/15 12.52
+___    ______ ____    _____ _____  ____ __ ______    ______ _________
0                                  33895  1                      ¿þþþþþþþþþþþþþþþþþþþþþþþþþþþþþþþþþþþþþþþþþþþþþþþþþþþþþþþþþþþÜ
                                   33896  1                      Ÿ  INFO:  TAP command to give server information about us.  Ÿ
                                   33897  1                      ¾þþþþþþþþþþþþþþþþþþþþþþþþþþþþþþþþþþþþþþþþþþþþþþþþþþþþþþþþþþþ»
 005516 4110 77D1/4100_      05B35 33898  1                      SEG   'INFO '
 005528 4110 77D6/4100_      05B3A 33913  1                      SEG   'Line '
 00553A 5820 C1C8            001C8 33928  1                      L     R2,CVCURJCB
 00553E 4810 2048/1B00_      00048 33929  1                      WITH  (JCB,R2),'SEGDC LH:JCBSEQ'  Line number
 USING  JCB,R2
 DROP   JCB,R2
 00554E 4110 77DB/4100_      05B3F 33970  1                      SEG   ' '
 005560 4110 B3B7/4100_      003B7 33985  1                      SEG   CPSGRP
 005572 4110 77DC/4100_      05B40 34010  1                      SEG   '.'
 005584 4110 B3B4/4100_      003B4 34025  1                      SEG   CPSUSER
 005596 D613 B3C6 B3C6_003C6 003C6 34050  1                      IF    (CPSNAME,NZ),'SEG " "; SEGT CPSNAME'
 0055C4 4110 770C/4100_      05A70 34112  1                      SEG   ' -- '
 0055D6 4110 C00C/4100_      0000C 34127  1                      SEGT  CVMACHID
 0055E8 4110 77DD/4100_      05B41 34153  1                      SEG   '/'
 0055FA 4110 C028/4100_      00028 34168  1                      SEGT  CVWYLSSN
 00560C 1B00/41F0 410C_            34194  1                      SEGCR
 005618 1B00/41F0 410C_            34216  1                      SEGWR
                                   34238  1
 005624 4110 77CE            05B32 34239  1                      LA    R1,=C'...'          Wait for positive completion
 005628 41F0 4000            00000 34240  1                      LA    R15,UNET            UNET ptr
 00562C 58E0 7704/0DEE       05A68 34241  1                      ACALL SERVREAD            Get response
 005632 4770 7546            058AA 34245  1                      BNZ   SETUEXIT
                                   34246  1                      ¿þþþþþþþþþþþþþþþþþþþþþþþþþþþþþþþþþþþþþþþþþþþþþþþþþþþþþþþÜ
                                   34247  1                      Ÿ  USER:  TAP command to identify the database userid.  Ÿ
                                   34248  1                      ¾þþþþþþþþþþþþþþþþþþþþþþþþþþþþþþþþþþþþþþþþþþþþþþþþþþþþþþþ»
 005636 D61F 50C0 50C0_000C0 000C0 34249  1                      IF    (SVIBRUSER,NZ),BEGIN  Userid specified...
 005640 4110 77DE/4100_      05B42 34265  2                        SEG   'USER '
 005652 4110 50C0/4100_      000C0 34280  2                        SEGT  SVIBRUSER
 005664 1B00/41F0 410C_            34306  2                        SEGCR
 005670 1B00/41F0 410C_            34328  2                        SEGWR
                                   34350  2
 00567C 4110 77CE            05B32 34351  2                        LA    R1,=C'...'          Wait for positive completion
 005680 41F0 4000            00000 34352  2                        LA    R15,UNET            UNET ptr
 005684 58E0 7704/0DEE       05A68 34353  2                        ACALL SERVREAD            Get response
 00568A 4770 7546            058AA 34357  2                        BNZ   SETUEXIT            Trouble, go close connection
 00568E                            34358  1                      END
                                   34362  1                      ¿þþþþþþþþþþþþþþþþþþþþþþþþþþþþþþþþþþþþþþþþþþþþþþþþþþþþþþþþþþþÜ
                                   34363  1                      Ÿ  PASS:  TAP command to give the password for the userid.  Ÿ
                                   34364  1                      ¾þþþþþþþþþþþþþþþþþþþþþþþþþþþþþþþþþþþþþþþþþþþþþþþþþþþþþþþþþþþ»
 00568E D61F 50E0 50E0_000E0 000E0 34365  1                      IF    (SVIBRPASS,NZ),BEGIN  Password specified...
 005698 4110 77E3/4100_      05B47 34381  2                        SEG   'PASS '
 0056AA 4110 50E0/4100_      000E0 34396  2                        SEGT  SVIBRPASS
 0056BC 1B00/41F0 410C_            34422  2                        SEGCR
 0056C8 1B00/41F0 410C_            34444  2                        SEGWR
                                   34466  2
 0056D4 4110 77CE            05B32 34467  2                        LA    R1,=C'...'          Wait for positive completion
 0056D8 41F0 4000            00000 34468  2                        LA    R15,UNET            UNET ptr
 0056DC 58E0 7704/0DEE       05A68 34469  2                        ACALL SERVREAD            Get response
 0056E2 4770 7546            058AA 34473  2                        BNZ   SETUEXIT            Trouble, go close connection
 0056E6                            34474  1                      END
1QUERY    (QUER2193) (12:52) (15MAR04) Utility Subroutines                                                                  Page  104
0Current Usings:  (UNET,R4) (SVIB,R5) (*,R7) (CP,R11) (CV,R12)
0Loc    Object Code    Addr1 Addr2  Stmt Lv Lineno    Source Statement           (Hibal 5, Asmedit 3.3)  HLASM R4.0  2004/03/15 12.52
+___    ______ ____    _____ _____  ____ __ ______    ______ _________
0                                  34478  1                      ¿þþþþþþþþþþþþþþþþþþþþþþþþþþþþþþþþþþþþþþþþþþþþþþþþþþþþþþþþþÜ
                                   34479  1                      Ÿ  DATABASE:  TAP command to identify the database name.  Ÿ
                                   34480  1                      ¾þþþþþþþþþþþþþþþþþþþþþþþþþþþþþþþþþþþþþþþþþþþþþþþþþþþþþþþþþ»
 0056E6 4110 77E8/4100_      05B4C 34481  1                      SEG   'DATABASE '
 0056F8 4110 504C/4100_      0004C 34496  1                      SEGT  SVIBRDB
 00570A 1B00/41F0 410C_            34522  1                      SEGCR
 005716 1B00/41F0 410C_            34544  1                      SEGWR
                                   34566  1
 005722 4110 77CE            05B32 34567  1                      LA    R1,=C'...'          Wait for positive completion
 005726 41F0 4000            00000 34568  1                      LA    R15,UNET            UNET ptr
 00572A 58E0 7704/0DEE       05A68 34569  1                      ACALL SERVREAD            Get response
 005730 4770 7546            058AA 34573  1                      BNZ   SETUEXIT            Trouble, go close connection
                                   34574  1
 005734 9680 5049      00049       34575  1                      SET   SVIBFINIT           Connection initialized
                                   34581  1
 005738 41F0 0001/5EF0_      00001 34582  1                      INCR  R15,CVCSCONN        Count the new connection
 005744                            34588                       END
                                   34592                       ¿þþþþþþþþþþþþþþþþþþþþþþþþþþþþþþþþþþþþþþþþþþþþþþþþþþþþþþþþþÜ
                                   34593                       Ÿ  RESET:  TAP command to reset user controlled options.  Ÿ
                                   34594                       Ÿ          We send this command in an attempt to cleanup  Ÿ
                                   34595                       Ÿ          after the previous user of this server.        Ÿ
                                   34596                       ¾þþþþþþþþþþþþþþþþþþþþþþþþþþþþþþþþþþþþþþþþþþþþþþþþþþþþþþþþþ»
 005744 9110 5049/47E0_00049       34597                       IF    SVIBFREUSE,BEGIN    Must reset if reusable...
 00574C 4110 77F1/4100_      05B55 34612  1                      SEGCR 'RESET'             Reset the connection
 00575E 1B00/41F0 410C_            34628  1                      SEGWR
                                   34650  1
 00576A 4110 77CE            05B32 34651  1                      LA    R1,=C'...'          Wait for positive completion
 00576E 41F0 4000            00000 34652  1                      LA    R15,UNET            UNET ptr
 005772 58E0 7704/0DEE       05A68 34653  1                      ACALL SERVREAD            Get response
 005778 4770 7546            058AA 34657  1                      BNZ   SETUEXIT            Trouble, scram
                                   34658  1
 00577C 4110 77D1/4100_      05B35 34659  1                      SEG   'INFO '
 00578E 4110 77D6/4100_      05B3A 34674  1                      SEG   'Line '
 0057A0 5820 C1C8            001C8 34689  1                      L     R2,CVCURJCB
 0057A4 4810 2048/1B00_      00048 34690  1                      WITH  (JCB,R2),'SEGDC LH:JCBSEQ'  Line number
 USING  JCB,R2
 DROP   JCB,R2
 0057B4 4110 77DB/4100_      05B3F 34731  1                      SEG   ' '
 0057C6 4110 B3B7/4100_      003B7 34746  1                      SEG   CPSGRP
 0057D8 4110 77DC/4100_      05B40 34771  1                      SEG   '.'
 0057EA 4110 B3B4/4100_      003B4 34786  1                      SEG   CPSUSER
 0057FC D613 B3C6 B3C6_003C6 003C6 34811  1                      IF    (CPSNAME,NZ),'SEG " "; SEGT CPSNAME'
 00582A 4110 770C/4100_      05A70 34873  1                      SEG   ' -- '
 00583C 4110 C00C/4100_      0000C 34888  1                      SEGT  CVMACHID
 00584E 4110 77DD/4100_      05B41 34914  1                      SEG   '/'
 005860 4110 C028/4100_      00028 34929  1                      SEGT  CVWYLSSN
 005872 1B00/41F0 410C_            34955  1                      SEGCR
 00587E 1B00/41F0 410C_            34977  1                      SEGWR
                                   34999  1
 00588A 4110 77CE            05B32 35000  1                      LA    R1,=C'...'          Wait for positive completion
 00588E 41F0 4000            00000 35001  1                      LA    R15,UNET            UNET ptr
 005892 58E0 7704/0DEE       05A68 35002  1                      ACALL SERVREAD            Get response
 005898 4770 7546            058AA 35006  1                      BNZ   SETUEXIT
 00589C                            35007                       END
1QUERY    (QUER2193) (12:52) (15MAR04) Utility Subroutines                                                                  Page  105
0Current Usings:  (UNET,R4) (SVIB,R5) (*,R7) (CP,R11) (CV,R12)
0Loc    Object Code    Addr1 Addr2  Stmt Lv Lineno    Source Statement           (Hibal 5, Asmedit 3.3)  HLASM R4.0  2004/03/15 12.52
+___    ______ ____    _____ _____  ____ __ ______    ______ _________
0                                  35011
 00589C 41F0 0001/5EF0_      00001 35012                       INCR  R15,CVCSREQ         Count the server request
                                   35018
 0058A8 1BFF                       35019                       CLEAR R15                 A-ok
                                   35023                       ¿þþþþþþþþþþþþþþþþþþþþþþþþþþþþþþþþþþþþþþþþþþþþþþþþþþþþþþþþþþþþþÜ
                                   35024                       Ÿ  If we are going to return an error here, we have to clean  Ÿ
                                   35025                       Ÿ    up the connection since SERVCLS will not be called by    Ÿ
                                   35026                       Ÿ    our caller.                                              Ÿ
                                   35027                       ¾þþþþþþþþþþþþþþþþþþþþþþþþþþþþþþþþþþþþþþþþþþþþþþþþþþþþþþþþþþþþþ»
 0058AA 12FF/4780 7600             35028              SETUEXIT IF    (R15,NZ),BEGIN      Bad return code...
 0058B0 90F1 D000/41D0_      00000 35043  1                      XPUSH R15,R1              Save return code info
                                   35046  1                      ¿þþþþþþþþþþþþþþþþþþþþþþþþþþþþþþþþþþþþþþþþþþþþþþþþþþÜ
                                   35047  1                      Ÿ  We couldn't connect so make server idle again.  Ÿ
                                   35048  1                      ¾þþþþþþþþþþþþþþþþþþþþþþþþþþþþþþþþþþþþþþþþþþþþþþþþþþ»
 0058B8 9203 5048      00048       35049  1                      SET   SVIB#IDLE           Server is now idle
 0058BC D703 5188 5188 00188 00188 35055  1                      CLEAR SVIBJCBP            No current owner
                                   35062  1
 0058C2 9120 5049/47E0_00049       35063  1                      IF    SVIBFPUBLIC,BEGIN   Public server...
 0058CA 58F0 518C            0018C 35078  2                        L     R15,SVIBUNET
 0058CE 58E0 7710/0DEE       05A74 35079  2                        VCALL NPATCLRU            Clear owner fields
 0058D4                            35083  1                      END
                                   35087  1                      ¿þþþþþþþþþþþþþþþþþþþþþþþþþþþþþþþþþþþþþþþþþþþþþþþþþþþþÜ
                                   35088  1                      Ÿ  We didn't even initialize so release the network  Ÿ
                                   35089  1                      Ÿ    connection.                                     Ÿ
                                   35090  1                      ¾þþþþþþþþþþþþþþþþþþþþþþþþþþþþþþþþþþþþþþþþþþþþþþþþþþþþ»
 0058D4 9180 5049/4710_00049       35091  1                      IF    ~SVIBFINIT,BEGIN    We didn't initialize...
 0058DC D703 518C 518C 0018C 0018C 35106  2                        CLEAR SVIBUNET
 0058E2 D703 4024 4024 00024 00024 35113  2                        CLEAR UNETSVIB            Break this connection, too  MPD
 0058E8 D24F 5100 7634 00100 05998 35120  2                        MVC   SVIBINFO,=CL(L'SVIBINFO)'No network connection'
                                   35121  2
 0058EE 41F0 4000            00000 35122  2                        LA    R15,UNET
 0058F2 58E0 7714/0DEE       05A78 35123  2                        VCALL NPATCLS             Close connection (& free UNET)
 0058F8                            35127  1                      END
                                   35131  1                      ¿þþþþþþþþþþþþþþþþþþþþþþþþþþþþþþþþþþþþþþþþþþþþþþþþþþþþþþþþþþþþþþÜ
                                   35132  1                      Ÿ  Close our side of the network connection if the other side  Ÿ
                                   35133  1                      Ÿ    was closed.  We don't actually free the server entry,     Ÿ
                                   35134  1                      Ÿ    the next time the SVIB is used the network connection     Ÿ
                                   35135  1                      Ÿ    will be re-allocated.                                     Ÿ
                                   35136  1                      ¾þþþþþþþþþþþþþþþþþþþþþþþþþþþþþþþþþþþþþþþþþþþþþþþþþþþþþþþþþþþþþþ»
 0058F8 5820 518C/1222       0018C 35137  1                      LT    R2,SVIBUNET         UNET ptr
 0058FE 4780 75F8            0595C 35141  1                      IF    NZ,BEGIN            Active network connection...
 DROP   UNET,R4                    35152  2                        WITH  (UNET,R2)
 USING  UNET,R2
 005902 D503 7718 2000_05A7C 00000 35173  2                        FAIL  (UNET,NE,'UNET'),SERVCLS,'UNET error.'
                                   35202  2         C              IF    (UNETFINEOF,OR,UNETFINABORT,OR,
 005924 9104 2164/4710_00164              2                              (UNETSTATE,GE,UNETSFABORT)),BEGIN  Close...
 00593C D703 518C 518C 0018C 0018C 35246  3                          CLEAR SVIBUNET            No network connection
 005942 D703 2024 2024 00024 00024 35253  3                          CLEAR UNETSVIB            Break this connection, too  MPD
 005948 947F 5049      00049       35260  3                          CLEAR SVIBFINIT           Reset initialized flag
 00594C D24F 5100 7634 00100 05998 35267  3                          MVC   SVIBINFO,=CL(L'SVIBINFO)'No network connection'
                                   35268  3
 005952 41F0 2000            00000 35269  3                          LA    R15,UNET
 005956 58E0 7714/0DEE       05A78 35270  3                          VCALL NPATCLS             Close our side of net connection
 00595C                            35274  2                        END
1QUERY    (QUER2193) (12:52) (15MAR04) Utility Subroutines                                                                  Page  106
0Current Usings:  (UNET,R4) (SVIB,R5) (*,R7) (CP,R11) (CV,R12)
0Loc    Object Code    Addr1 Addr2  Stmt Lv Lineno    Source Statement           (Hibal 5, Asmedit 3.3)  HLASM R4.0  2004/03/15 12.52
+___    ______ ____    _____ _____  ____ __ ______    ______ _________
0USING  UNET,R4                    35278  1                      END
 DROP   UNET,R2
                                   35296  1
 00595C 4BD0 7756/98F1_      05ABA 35297  1                      XPOP  R15,R1              Restore original rc info
 005964                            35300                       END
                                   35304
 005964 18D8/9828 D004_            35305                       PEND
 DROP   UNET,R4
 DROP   SVIB,R5
 DROP   *,R7
                                   35335
                                   35336                       SEGDEF DUMMY              (Neatness)
                                   35337
                                   35338                       QLTORG
1QUERY    (QUER2193) (12:52) (15MAR04) Utility Subroutines                                                                  Page  107
0Current Usings:  (CP,R11) (CV,R12)
0Loc    Object Code    Addr1 Addr2  Stmt Lv Lineno    Source Statement           (Hibal 5, Asmedit 3.3)  HLASM R4.0  2004/03/15 12.52
+___    ______ ____    _____ _____  ____ __ ______    ______ _________
0                                  35409              ¿þþþþþþþþþþþþþþþþþþþþþþþþþþþþþþþþþþþþþþþþþþþþþþþþþþþþþþþþþþþþþþþþþþþþþÜ
                                   35410              Ÿ                                                                     Ÿ
                                   35411              Ÿ  SERVCMDL -- Routine to send a command to the query server.         Ÿ
                                   35412              Ÿ                                                                     Ÿ
                                   35413              Ÿ    On entry:                                                        Ÿ
                                   35414              Ÿ      R15   - SVIB ptr                                               Ÿ
                                   35415              Ÿ      R1,R0 - command loc, len                                       Ÿ
                                   35416              Ÿ                                                                     Ÿ
                                   35417              Ÿ    On exit, R15 (and cc):                                           Ÿ
                                   35418              Ÿ      0 - OK                                                         Ÿ
                                   35419              Ÿ      nz- error; R1,R0 - error message loc, len                      Ÿ
                                   35420              Ÿ                                                                     Ÿ
                                                      ¾þþþþþþþþþþþþþþþþþþþþþþþþþþþþþþþþþþþþþþþþþþþþþþþþþþþþþþþþþþþþþþþþþþþþþ»
0000000                00000 0000C 35421              SVCLWA   RECORD BEGIN
 000000                            35429  1           SVCLSGP    DS    A                   Network SEGCB ptr
 000004                            35430  1           SVCLPTRS   DS    2A                  Command len, loc
 00000C                0000C 0000C 35431                       END
                                   35440              þþþþ
 005B60 50E0 D000/9008_      00000 35441              SERVCMDL PROC  SVCLWA
 USING  *,R7
 USING  SVCLWA-(4+36),R8
 005B7A 185F                       35491                       LR    R5,R15
 USING  SVIB,R5                    35492                       WITH  (SVIB,R5)
 005B7C D503 70DE 5000_05C58 00000 35505                       FAIL  (SVIB,NE,'SVIB'),SERVCMDL,'Bad SVIB ptr.'
                                   35534
 005B9E 9001 802C            00004 35535                       STM   R0,R1,SVCLPTRS      Save command ptrs
                                   35536
 005BA2 58F0 518C            0018C 35537                       L     R15,SVIBUNET
 005BA6 4110 F10C            0010C 35538                       WITH  (UNET,R15),'LA R1,UNETOUTSG'
 USING  UNET,R15
 DROP   UNET,R15
 005BAA 5010 8028            00000 35562                       ST    R1,SVCLSGP          Network output SEGCB ptr
                                   35563                       SEGDEF L:SVCLSGP
                                   35564                       ¿þþþþþþþþþþþþþþþþþþþþþþþþþþþþþþþþþþþþþþþþþþþþþþþþþþþþþþþþþþþþþÜ
                                   35565                       Ÿ  First we need to wait for the previous FETCH to complete.  Ÿ
                                   35566                       ¾þþþþþþþþþþþþþþþþþþþþþþþþþþþþþþþþþþþþþþþþþþþþþþþþþþþþþþþþþþþþþ»
 005BAE 9502 504A/4770_0004A       35567                       IF    SVIBSFFETCH,BEGIN   We are fetching now...
 005BB6 41F0 5000            00000 35582  1                      LA    R15,SVIB
 005BBA 58E0 70E2/0DEE       05C5C 35583  1                      ACALL SERVABRT            Send ABORT
                                   35587  1
 005BC0 4110 70FA            05C74 35588  1                      LA    R1,=C'...'          Wait for completion response
 005BC4 58F0 518C            0018C 35589  1                      L     R15,SVIBUNET
 005BC8 58E0 70E6/0DEE       05C60 35590  1                      ACALL SERVREAD            Get completion
                                   35594  1           *  (Don't bother checking for errors on FETCH completion.)
 005BCE 9200 504A      0004A       35595  1                      SET   SVIBSFNORMAL        Reset state to normal
 005BD2                            35601                       END
                                   35605                       ¿þþþþþþþþþþþþþþþþþþþþþþþþþþþþþþþþþþþþþþþþþþþþþþþþþþþþþþþþþþþþÜ
                                   35606                       Ÿ  Send TAP DATA command if this is the first line of data.  Ÿ
                                   35607                       ¾þþþþþþþþþþþþþþþþþþþþþþþþþþþþþþþþþþþþþþþþþþþþþþþþþþþþþþþþþþþþ»
 005BD2 9501 504A/4780_0004A       35608                       IF    ~SVIBSFDATA,BEGIN   Data...
 005BDA 4110 70EA/4100_      05C64 35623  1                      SEG   'DATA'
 005BEC 1B00/58F0 8028_            35638  1                      SEGCR
 005BF8 1B00/58F0 8028_            35660  1                      SEGWR
1QUERY    (QUER2193) (12:52) (15MAR04) Utility Subroutines                                                                  Page  108
0Current Usings:  (SVIB,R5) (*,R7) (SVCLWA-(4+36),R8) (CP,R11) (CV,R12)
0Loc    Object Code    Addr1 Addr2  Stmt Lv Lineno    Source Statement           (Hibal 5, Asmedit 3.3)  HLASM R4.0  2004/03/15 12.52
+___    ______ ____    _____ _____  ____ __ ______    ______ _________
0                                  35682  1
 005C04 4110 70FD            05C77 35683  1                      LA    R1,=C'354'          Wait for intermediate response
 005C08 58F0 518C            0018C 35684  1                      L     R15,SVIBUNET
 005C0C 58E0 70E6/0DEE       05C60 35685  1                      ACALL SERVREAD            Get "go ahead" response
 005C12 4780 70A4            05C1E 35689  1                      IF    NZ,BEGIN            Trouble...
 005C16 9001 8004            00004 35700  2                        PRETURN (R0,R1)
 005C1A 47F0 70D0            05C4A 35702  2                        B     SCMDEXIT
 005C1E                            35703  1                      END
                                   35707  1
 005C1E 9201 504A      0004A       35708  1                      SET   SVIBSFDATA          DATA command has been sent
 005C22                            35714                       END
                                   35718                       ¿þþþþþþþþþþþþþþþþþþþþþþþþþþÜ
                                   35719                       Ÿ  Send the command line.  Ÿ
                                   35720                       ¾þþþþþþþþþþþþþþþþþþþþþþþþþþ»
 005C22 9801 802C            00004 35721                       LM    R0,R1,SVCLPTRS
 005C26 58F0 8028/58E0_      00000 35722                       SEG   (R1),(R0)           Command text
 005C30 1B00/58F0 8028_            35743                       SEGCR
 005C3C 1B00/58F0 8028_            35765                       SEGWR
                                   35787
 005C48 1BFF                       35788                       CLEAR R15                 A-ok
 005C4A 18D8/9808 D004_            35792              SCMDEXIT PEND
 DROP   SVIB,R5
 DROP   SVCLWA-(4+36),R8
 DROP   *,R7
                                   35823
                                   35824                       SEGDEF DUMMY              (Neatness)
                                   35825
                                   35826                       QLTORG
1QUERY    (QUER2193) (12:52) (15MAR04) Utility Subroutines                                                                  Page  109
0Current Usings:  (CP,R11) (CV,R12)
0Loc    Object Code    Addr1 Addr2  Stmt Lv Lineno    Source Statement           (Hibal 5, Asmedit 3.3)  HLASM R4.0  2004/03/15 12.52
+___    ______ ____    _____ _____  ____ __ ______    ______ _________
0                                  35848              ¿þþþþþþþþþþþþþþþþþþþþþþþþþþþþþþþþþþþþþþþþþþþþþþþþþþþþþþþþþþþþþþþþþþþþþÜ
                                   35849              Ÿ                                                                     Ÿ
                                   35850              Ÿ  SERVFET -- Routine to start fetching the responses from            Ÿ
                                   35851              Ÿ    the server.  If necessary this routine will end the data         Ÿ
                                   35852              Ÿ    stream.                                                          Ÿ
                                   35853              Ÿ                                                                     Ÿ
                                   35854              Ÿ    On entry:                                                        Ÿ
                                   35855              Ÿ      R15 - SVIB ptr                                                 Ÿ
                                   35856              Ÿ                                                                     Ÿ
                                   35857              Ÿ    On exit, R15 (and cc):                                           Ÿ
                                   35858              Ÿ      0 - ok                                                         Ÿ
                                   35859              Ÿ      nz- error; R1,R0 = error message                               Ÿ
                                   35860              Ÿ                                                                     Ÿ
                                                      ¾þþþþþþþþþþþþþþþþþþþþþþþþþþþþþþþþþþþþþþþþþþþþþþþþþþþþþþþþþþþþþþþþþþþþþ»
0005C7A 50E0 D000/9028_      00000 35861              SERVFET  PROC  (R2,LSR)
 USING  *,R7
 005C94 185F                       35900                       LR    R5,R15
 USING  SVIB,R5                    35901                       WITH  (SVIB,R5)
 005C96 D503 72F4 5000_05F88 00000 35914                       FAIL  (SVIB,NE,'SVIB'),SERVFET,'Bad SVIB ptr.'
                                   35943
 005CB8 58F0 518C            0018C 35944                       L     R15,SVIBUNET
 005CBC 4140 F10C            0010C 35945                       WITH  (UNET,R15),'LA R4,UNETOUTSG'
 USING  UNET,R15
 DROP   UNET,R15
                                   35969                       SEGDEF (R4)
                                   35970                       ¿þþþþþþþþþþþþþþþþþþþþþþþþþþþþþþþþþþÜ
                                   35971                       Ÿ  Send end of data if necessary.  Ÿ
                                   35972                       ¾þþþþþþþþþþþþþþþþþþþþþþþþþþþþþþþþþþ»
 005CC0 9501 504A/4770_0004A       35973                       IF    SVIBSFDATA,BEGIN    Send end of data sequence...
 005CC8 4110 7340/4100_      05FD4 35988  1                      SEGCR '.'                 End of data
 005CD8 1B00/18F4/58E0_            36004  1                      SEGWR
                                   36026  1
 005CE2 9200 504A      0004A       36027  1                      SET   SVIBSFNORMAL        Data mode has ended now
                                   36033  1
 005CE6 4110 7341            05FD5 36034  1           SFETLOOP   LA    R1,=C'1..'          Wait for completion response
 005CEA 58F0 518C            0018C 36035  1                      L     R15,SVIBUNET
 005CEE 58E0 7300/0DEE       05F94 36036  1                      ACALL SERVREAD            Get "go ahead" response
 005CF4 4770 7106            05D9A 36040  1                      BNZ   SVFTEXIT            Trouble
                                   36041  1
 005CF8 1200/47D0 70E6_            36042  1                      IF    ((R0,POS),AND,(@R1,EQ,'1')),BEGIN  Info...
 005D06 D501 7330 1000_05FC4 00000 36071  2                        IF    (@R1,EQ,'11'),BEGIN  11x messages...
 005D10 9001 D000/41D0_      00000 36087  3                          XPUSH R0,R1
 005D18 4110 7304/4100_      05F98 36090  3                          TSEG  '*** '
 005D2A 4BD0 7332/9801_      05FC6 36108  3                          XPOP  R0,R1
 005D32 41F0 B050/58E0_      00050 36111  3                          TSEG  (R1),(R0),WR
 005D3C 47F0 7052            05CE6 36135  3                          B     SFETLOOP
 005D40                            36136  2                        END
                                   36140  2
 005D40 D501 7334 1000_05FC8 00000 36141  2                        IF    (@R1,EQ,'15'),BEGIN  15x messages...
 005D4A 9001 D000/41D0_      00000 36157  3                          XPUSH R0,R1
 005D52 4110 7344/4100_      05FD8 36160  3                          TSEG  '*** Data info: '
 005D64 4BD0 7332/9801_      05FC6 36178  3                          XPOP  R0,R1
 005D6C 41F0 B050/58E0_      00050 36181  3                          TSEG  (R1),(R0),WR
1QUERY    (QUER2193) (12:52) (15MAR04) Utility Subroutines                                                                  Page  110
0Current Usings:  (SVIB,R5) (*,R7) (CP,R11) (CV,R12)
0Loc    Object Code    Addr1 Addr2  Stmt Lv Lineno    Source Statement           (Hibal 5, Asmedit 3.3)  HLASM R4.0  2004/03/15 12.52
+___    ______ ____    _____ _____  ____ __ ______    ______ _________
0005D76 47F0 7052            05CE6 36205  3                          B     SFETLOOP
 005D7A                            36206  2                        END
 005D7A                            36210  1                      END
                                   36214  1                      ¿þþþþþþþþþþþþþþþþþþþþþþþþþþþþþþþþÜ
                                   36215  1                      Ÿ  Now send FETCH ROWS command.  Ÿ
                                   36216  1                      ¾þþþþþþþþþþþþþþþþþþþþþþþþþþþþþþþþ»
 005D7A 4110 7336/4100_      05FCA 36217  1                      SEGCR 'FETCH ROWS'        Get all rows
 005D8A 1B00/18F4/58E0_            36233  1                      SEGWR
                                   36255  1
 005D94 9202 504A      0004A       36256  1                      SET   SVIBSFFETCH         Now doing FETCH ROWS command
 005D98                            36262                       END
                                   36266
 005D98 1BFF                       36267                       CLEAR R15                 A-ok
 005D9A 18D8/9828 D004_            36271              SVFTEXIT PEND
 DROP   SVIB,R5
 DROP   *,R7
                                   36297
                                   36298                       SEGDEF DUMMY              (Neatness)
1QUERY    (QUER2193) (12:52) (15MAR04) Utility Subroutines                                                                  Page  111
0Current Usings:  (CP,R11) (CV,R12)
0Loc    Object Code    Addr1 Addr2  Stmt Lv Lineno    Source Statement           (Hibal 5, Asmedit 3.3)  HLASM R4.0  2004/03/15 12.52
+___    ______ ____    _____ _____  ____ __ ______    ______ _________
0                                  36300              ¿þþþþþþþþþþþþþþþþþþþþþþþþþþþþþþþþþþþþþþþþþþþþþþþþþþþþþþþþþþþþþþþþþþþþþÜ
                                   36301              Ÿ                                                                     Ÿ
                                   36302              Ÿ  SERVGETL -- Routine to get the next line of response data from     Ÿ
                                   36303              Ÿ    the server.                                                      Ÿ
                                   36304              Ÿ                                                                     Ÿ
                                   36305              Ÿ    If SVIBFBUFFER is set then a table worth of data is locally      Ÿ
                                   36306              Ÿ    buffered (if possible) before the first line is returned.        Ÿ
                                   36307              Ÿ    This is so that we can intelligently format the responses.       Ÿ
                                   36308              Ÿ                                                                     Ÿ
                                   36309              Ÿ    On entry:                                                        Ÿ
                                   36310              Ÿ      R15   - SVIB ptr                                               Ÿ
                                   36311              Ÿ                                                                     Ÿ
                                   36312              Ÿ    On exit, R15 (and cc):                                           Ÿ
                                   36313              Ÿ      0 - next response line returned in R1,R0                       Ÿ
                                   36314              Ÿ      nz- error of some sort; R1,R0 - error message                  Ÿ
                                   36315              Ÿ                                                                     Ÿ
                                                      ¾þþþþþþþþþþþþþþþþþþþþþþþþþþþþþþþþþþþþþþþþþþþþþþþþþþþþþþþþþþþþþþþþþþþþþ»
0000000                00000 00004 36316              SVGLWA   RECORD BEGIN
 000000                            36324  1           SVGLSGP    DS    A                   Network SEGCB ptr
 000004                00004 00004 36325                       END
                                   36334              þþþþ
 005DA8 50E0 D000/9028_      00000 36335              SERVGETL PROC  (R2,LSR),SVGLWA
 USING  *,R7
 USING  SVGLWA-(4+28),R8
 005DC2 185F                       36384                       LR    R5,R15
 USING  SVIB,R5                    36385                       WITH  (SVIB,R5)
 005DC4 D503 71C6 5000_05F88 00000 36398                       FAIL  (SVIB,NE,'SVIB'),SERVGETL,'Bad SVIB ptr.'
                                   36427
 005DE6 58F0 518C            0018C 36428                       L     R15,SVIBUNET
 005DEA 4110 F10C            0010C 36429                       WITH  (UNET,R15),'LA R1,UNETOUTSG'
 USING  UNET,R15
 DROP   UNET,R15
 005DEE 5010 8020            00000 36453                       ST    R1,SVGLSGP          Network output SEGCB ptr
                                   36454                       SEGDEF L:SVGLSGP
                                   36455                       ¿þþþþþþþþþþþþþþþþþþþþþþþþþþþþþþþþþþþþþÜ
                                   36456                       Ÿ  Start fetching the responses now.  Ÿ
                                   36457                       ¾þþþþþþþþþþþþþþþþþþþþþþþþþþþþþþþþþþþþþ»
 005DF2 9502 504A/4780_0004A       36458                       IF    ~SVIBSFFETCH,BEGIN  Start fetching rows...
 005DFA 41F0 5000            00000 36473  1                      LA    R15,SVIB
 005DFE 58E0 71DE/0DEE       05FA0 36474  1                      ACALL SERVFET             Start fetching
 005E04 4770 7188            05F4A 36478  1                      BNZ   SVGLEXIT            Trouble, scram
 005E08                            36479                       END
                                   36483                       ¿þþþþþþþþþþþþþþþþþþþþþþþþþþþþþþþþþþþþþþþþþþþþþþþþþþþþþþþþþÜ
                                   36484                       Ÿ  Free top most buffered line (the one we processed the  Ÿ
                                   36485                       Ÿ    last time this routine was called).                  Ÿ
                                   36486                       ¾þþþþþþþþþþþþþþþþþþþþþþþþþþþþþþþþþþþþþþþþþþþþþþþþþþþþþþþþþ»
 005E08 5810 5198/1211_      00198 36487                       IF    ('LT R1,SVIBINQH',NZ),BEGIN  Take top entry...
 USING  INENTRY,R1                 36503  1                      WITH  (INENTRY,R1)
 005E12 5820 1000            00000 36516  1                      L     R2,INLINK           Get next INENTRY ptr
 005E16 D203 1000 71E2 00000 05FA4 36517  1                      MVC   INLINK,=F'-1'       Safety
 005E1C 58E0 71E6/0DEE       05FA8 36518  1                      VCALL FREECORE            Release entry
                                   36522  1
 005E22 5020 5198            00198 36523  1                      ST    R2,SVIBINQH         Update queue head
1QUERY    (QUER2193) (12:52) (15MAR04) Utility Subroutines                                                                  Page  112
0Current Usings:  (INENTRY,R1) (SVIB,R5) (*,R7) (SVGLWA-(4+28),R8) (CP,R11) (CV,R12)
0Loc    Object Code    Addr1 Addr2  Stmt Lv Lineno    Source Statement           (Hibal 5, Asmedit 3.3)  HLASM R4.0  2004/03/15 12.52
+___    ______ ____    _____ _____  ____ __ ______    ______ _________
0005E26 1222/4770 706E_            36524  1                      IF    (R2,Z),'ST R2,SVIBINQT'  Zero queue tail too
                                   36544  1
 005E30 58F0 5194/06F0_      00194 36545  1                      DECR  R15,SVIBINCT        One less entry now
 DROP   INENTRY,R1                 36550                       END
                                   36559
 005E3A D603 5198 5198_00198 00198 36560                       IF    (SVIBINQH,NZ),SVGLNEXT  Return next line
                                   36579                       ¿þþþþþþþþþþþþþþþþþþþþþþþþþþþþþþþþþþþþþþþþþþþþþþþþþþþþþþþÜ
                                   36580                       Ÿ  Attempt to fetch a line when we don't have any more  Ÿ
                                   36581                       Ÿ    data to return.                                    Ÿ
                                   36582                       ¾þþþþþþþþþþþþþþþþþþþþþþþþþþþþþþþþþþþþþþþþþþþþþþþþþþþþþþþ»
 005E44 9500 504A/4770_0004A       36583                       IF    SVIBSFNORMAL,BEGIN  In normal waiting state...
 005E4C 4110 7196/4100_      05F58 36598  1                      SETMSG SVGLNDAT            "570 NOTHING TO FETCH"
 005E54 41F0 0004            00004 36612  1                      LA    R15,4
 005E58 47F0 7188            05F4A 36613  1                      B     SVGLEXIT
 005E5C                            36614                       END
                                   36618                       ¿þþþþþþþþþþþþþþþþþþþþþþþþþþþþþþþþþþþþþþþþþþþþþþÜ
                                   36619                       Ÿ  Buffer the response lines from the server.  Ÿ
                                   36620                       ¾þþþþþþþþþþþþþþþþþþþþþþþþþþþþþþþþþþþþþþþþþþþþþþ»
 005E5C 9180 504B/47E0_0004B       36621                       IF    SVIBFBUFFER,BEGIN   Buffered mode...
 005E64                            36636  1                      LOOP  BEGIN
 005E64 58F0 518C            0018C 36642  2           SVGLATL1     L     R15,SVIBUNET
 005E68 58E0 71EA/0DEE       05FAC 36643  2                        VCALL NPATREAD            Get next line
 005E6E 4780 70CC            05E8E 36647  2                        IF    NZ,BEGIN            Trouble...
 005E72 D503 71EE 1000_05FB0 00000 36658  3                          IF    (@R1,EQ,'ATTN'),BEGIN  Send an ABORT request...
 005E7C 41F0 5000            00000 36674  4                            LA    R15,SVIB
 005E80 58E0 71F2/0DEE       05FB4 36675  4                            ACALL SERVABRT            Send ABORT
 005E86 47F0 70A2            05E64 36679  4                            B     SVGLATL1            Wait for completion
 005E8A                            36680  3                          END
                                   36684  3
 005E8A 47F0 7188            05F4A 36685  3                          B     SVGLEXIT            Error of some sort
 005E8E                            36686  2                        END
                                   36690  2
 005E8E 41F0 5000            00000 36691  2                        LA    R15,SVIB
 005E92 58E0 71F6/0DEE       05FB8 36692  2                        ACALL SERVFMAP            Update field descriptor info
                                   36696  2
 005E98 41F0 5000            00000 36697  2                        LA    R15,SVIB
 005E9C 58E0 71FA/0DEE       05FBC 36698  2                        ACALL SERVBUF             Buffer this line
 005EA2 4770 7124            05EE6 36702  2                        IF    NZ,EXIT             Can't buffer any more, scram
                                   36716  2
 005EA6 5900 71FE/4750_      05FC0 36717  2                        IF    ((R0,GE,3),AND,(@R1,EQ,'109')),EXIT  End of table
                                   36752  2
 005EB8 1200/47D0 7104_            36753  2                        IF    ((R0,POS),AND,(@R1,EQ,'2')),EXIT  Normal end
 005EC6 1200/47D0 7112_            36785  2                        IF    ((R0,POS),AND,(@R1,EQ,'4')),EXIT  Abnormal end
 005ED4 1200/47D0 7120_            36817  2                        IF    ((R0,POS),AND,(@R1,EQ,'5')),EXIT  Abnormal end
 005EE2 47F0 70A2            05E64 36849  1                      END
                                   36854  1                      ¿þþþþþþþþþþþþþþþþþþþþþþþþþþþþþþþþþþþþþþþþþþþþþþþþþþþþþþþÜ
                                   36855  1                      Ÿ  We are done buffering, return the first line in the  Ÿ
                                   36856  1                      Ÿ    buffer.                                            Ÿ
                                   36857  1                      ¾þþþþþþþþþþþþþþþþþþþþþþþþþþþþþþþþþþþþþþþþþþþþþþþþþþþþþþþ»
 005EE6 D603 5198 5198_00198 00198 36858  1                      IF    (SVIBINQH,NZ),SVGLNEXT  Return next line
 005EF0                            36877                       END
1QUERY    (QUER2193) (12:52) (15MAR04) Utility Subroutines                                                                  Page  113
0Current Usings:  (SVIB,R5) (*,R7) (SVGLWA-(4+28),R8) (CP,R11) (CV,R12)
0Loc    Object Code    Addr1 Addr2  Stmt Lv Lineno    Source Statement           (Hibal 5, Asmedit 3.3)  HLASM R4.0  2004/03/15 12.52
+___    ______ ____    _____ _____  ____ __ ______    ______ _________
0                                  36881                       ¿þþþþþþþþþþþþþþþþþþþþþþþþþþþþþþþþþþþþþþþþþþþþþþþþþþþþÜ
                                   36882                       Ÿ  Read the next response line (non-buffered mode).  Ÿ
                                   36883                       ¾þþþþþþþþþþþþþþþþþþþþþþþþþþþþþþþþþþþþþþþþþþþþþþþþþþþþ»
 005EF0 58F0 518C            0018C 36884              SVGLATL2 L     R15,SVIBUNET
 005EF4 58E0 71EA/0DEE       05FAC 36885                       VCALL NPATREAD            Get next line
 005EFA 4780 7154            05F16 36889                       IF    NZ,BEGIN            Trouble...
 005EFE D503 71EE 1000_05FB0 00000 36900  1                      IF    (@R1,EQ,'ATTN'),BEGIN  Send an ABORT request...
 005F08 41F0 5000            00000 36916  2                        LA    R15,SVIB
 005F0C 58E0 71F2/0DEE       05FB4 36917  2                        ACALL SERVABRT            Send ABORT
 005F12 47F0 712E            05EF0 36921  2                        B     SVGLATL2            Wait for completion
 005F16                            36922  1                      END
 005F16                            36926                       END
                                   36930
 005F16 47F0 7164            05F26 36931                       B     SVGLOK              Return this line
                                   36932                       ¿þþþþþþþþþþþþþþþþþþþþþþþþþþþþþþþþþþþþþþþþþþþþþþþÜ
                                   36933                       Ÿ  Return a pointer to the next line buffered.  Ÿ
                                   36934                       ¾þþþþþþþþþþþþþþþþþþþþþþþþþþþþþþþþþþþþþþþþþþþþþþþ»
 005F1A 5820 5198            00198 36935              SVGLNEXT L     R2,SVIBINQH         Take first entry on queue
 USING  INENTRY,R2                 36936                       WITH  (INENTRY,R2),BEGIN
 005F1E 4110 2006/4800_      00006 36950  1                      SETMSG INTEXT,LH:INLEN     Response line
 DROP   INENTRY,R2                 36963                       END
                                   36971
 005F26 1200/47D0 7186             36972              SVGLOK   IF    (R0,POS),BEGIN      Check for final response...
 005F2C 95F2 1000/4780_00000       36987  1                      IF    ((@R1,EQ,'2'),OR,(@R1,EQ,'4'),OR,(@R1,EQ,'5')),BEGIN
 005F44 9200 504A      0004A       37031  2                        SET   SVIBSFNORMAL        Reset state if final response
 005F48                            37037  1                      END
 005F48                            37041                       END
                                   37045
 005F48 1BFF                       37046                       CLEAR R15                 A-ok
 005F4A 18D8/9828 D004_            37050              SVGLEXIT PEND
 DROP   SVIB,R5
 DROP   SVGLWA-(4+28),R8
 DROP   *,R7
                                   37081
 005F58 F5F7F0                     37082              SVGLNDAX DC    C'570'
 005F5B 05                         37083                       DC    X'05'
 005F5C D596A38889958740           37084                       DC    C'Nothing to fetch, no command in progress.'
                                   37085              SVGLNDAT EQU   SVGLNDAX,*-SVGLNDAX,C'X'
                                   37086
                                   37087                       SEGDEF DUMMY              (Neatness)
                                   37088
                                   37089                       QLTORG
1QUERY    (QUER2193) (12:52) (15MAR04) Utility Subroutines                                                                  Page  114
0Current Usings:  (CP,R11) (CV,R12)
0Loc    Object Code    Addr1 Addr2  Stmt Lv Lineno    Source Statement           (Hibal 5, Asmedit 3.3)  HLASM R4.0  2004/03/15 12.52
+___    ______ ____    _____ _____  ____ __ ______    ______ _________
0                                  37125              ¿þþþþþþþþþþþþþþþþþþþþþþþþþþþþþþþþþþþþþþþþþþþþþþþþþþþþþþþþþþþþþþþþþþþþþÜ
                                   37126              Ÿ                                                                     Ÿ
                                   37127              Ÿ  SERVCHKL -- Routine to check for responses from the server.  This  Ÿ
                                   37128              Ÿ    routine is called when we are sending a lot of data to the       Ÿ
                                   37129              Ÿ    server to see if it wants us to stop.                            Ÿ
                                   37130              Ÿ                                                                     Ÿ
                                   37131              Ÿ    On entry:                                                        Ÿ
                                   37132              Ÿ      R15 - SVIB ptr                                                 Ÿ
                                   37133              Ÿ                                                                     Ÿ
                                                      ¾þþþþþþþþþþþþþþþþþþþþþþþþþþþþþþþþþþþþþþþþþþþþþþþþþþþþþþþþþþþþþþþþþþþþþ»
0005FEA 50E0 D000/9008_      00000 37134              SERVCHKL PROC
 USING  *,R7
 006004 185F                       37173                       LR    R5,R15
 USING  SVIB,R5                    37174                       WITH  (SVIB,R5)
 006006 D503 7CC4 5000_06CC8 00000 37187                       FAIL  (SVIB,NE,'SVIB'),SERVCHKL,'Bad SVIB ptr.'
                                   37216
 006028 5840 518C            0018C 37217                       L     R4,SVIBUNET
 USING  UNET,R4                    37218                       WITH  (UNET,R4)
 00602C D503 7CC8 4000_06CCC 00000 37231                       FAIL  (UNET,NE,'UNET'),SERVCHKL,'Bad UNET ptr.'
                                   37260                       ¿þþþþþþþþþþþþþþþþþþþþþþþþþþþþþþþþÜ
                                   37261                       Ÿ  Read in any input responses.  Ÿ
                                   37262                       ¾þþþþþþþþþþþþþþþþþþþþþþþþþþþþþþþþ»
 00604E                            37263                       LOOP  BEGIN
 00604E 9640 402C      0002C       37269  1                      SET   UNETFNOWAIT         Don't wait for data
 006052 41F0 4000            00000 37275  1                      LA    R15,UNET
 006056 58E0 7CCC/0DEE       06CD0 37276  1                      VCALL NPATREAD            Get any response lines
 00605C 94BF 402C      0002C       37280  1                      CLEAR UNETFNOWAIT         Reset
 006060 12FF/4770 70C0             37287  1                      IF    (R15,NZ),EXIT       No new data, fine
 006066 9001 D000/41D0_      00000 37304  1                      XPUSH R0,R1
 00606E 4110 7CD0/4100_      06CD4 37307  1                      TSEG  '*** Immediate info: '
 006080 4BD0 7D5C/9801_      06D60 37325  1                      XPOP  R0,R1
 006088 9001 D000/41D0_      00000 37328  1                      XPUSH R0,R1
 006090 41F0 B050/58E0_      00050 37331  1                      TSEG  (R1),(R0),WR
 00609A 4BD0 7D5C/9801_      06D60 37355  1                      XPOP  R0,R1
                                   37358  1
 0060A2 1200/47D0 70BC             37359  1                      IF    (R0,POS),BEGIN
 0060A8 95F2 1000/4780_00000       37373  2                        IF    (@R1,EQ,'2'),CVNEXT
 0060B0 95F4 1000/4780_00000       37392  2                        IF    (@R1,EQ,'4'),CVERROR
 0060B8 95F5 1000/4780_00000       37411  2                        IF    (@R1,EQ,'5'),CVERROR
 0060C0                            37430  1                      END
 0060C0 47F0 704A            0604E 37434                       END
                                   37439
 0060C4 1BFF                       37440                       CLEAR R15                 Neatness
 0060C6 18D8/9808 D004_            37444                       PEND
 DROP   UNET,R4
 DROP   SVIB,R5
 DROP   *,R7
1QUERY    (QUER2193) (12:52) (15MAR04) Utility Subroutines                                                                  Page  115
0Current Usings:  (CP,R11) (CV,R12)
0Loc    Object Code    Addr1 Addr2  Stmt Lv Lineno    Source Statement           (Hibal 5, Asmedit 3.3)  HLASM R4.0  2004/03/15 12.52
+___    ______ ____    _____ _____  ____ __ ______    ______ _________
0                                  37475              ¿þþþþþþþþþþþþþþþþþþþþþþþþþþþþþþþþþþþþþþþþþþþþþþþþþþþþþþþþþþþþþþþþþþþþþÜ
                                   37476              Ÿ                                                                     Ÿ
                                   37477              Ÿ  SERVFMTL -- Routine to format a response line.                     Ÿ
                                   37478              Ÿ                                                                     Ÿ
                                   37479              Ÿ    On entry:                                                        Ÿ
                                   37480              Ÿ      R15   - SVIB ptr                                               Ÿ
                                   37481              Ÿ      R2    - SEGCB ptr                                              Ÿ
                                   37482              Ÿ      R1,R0 - respone line loc, len                                  Ÿ
                                   37483              Ÿ                                                                     Ÿ
                                                      ¾þþþþþþþþþþþþþþþþþþþþþþþþþþþþþþþþþþþþþþþþþþþþþþþþþþþþþþþþþþþþþþþþþþþþþ»
0000000                00000 00004 37484              SVFMWA   RECORD BEGIN
 000000                            37492  1           SVFMSGP    DS    A                   SEGCB ptr
 000004                00004 00004 37493                       END
                                   37502              þþþþ
 0060D4 50E0 D000/9008_      00000 37503              SERVFMTL PROC  SVFMWA
 USING  *,R7
 USING  SVFMWA-(4+36),R8
 0060EE D703 8028 8028 00000 00000 37553                       CLEAR SVFMWA
 0060F4 5020 8028            00000 37560                       ST    R2,SVFMSGP          Save SEGCB ptr
                                   37561                       SEGDEF L:SVFMSGP
                                   37562
 0060F8 185F                       37563                       LR    R5,R15
 USING  SVIB,R5                    37564                       WITH  (SVIB,R5)
 0060FA D503 7BDA 5000_06CC8 00000 37577                       FAIL  (SVIB,NE,'SVIB'),SERVFMTL,'Bad SVIB ptr.'
                                   37606                       ¿þþþþþþþþþþþþþþþþþþþþþþÜ
                                   37607                       Ÿ  Display data line.  Ÿ
                                   37608                       ¾þþþþþþþþþþþþþþþþþþþþþþ»
 00611C 9505 1000/4770_00000       37609                       IF    (@R1,EQ,$TAB),BEGIN  Tab separated data line...
 006124 4110 1001            00001 37626  1                      LA    R1,@R1+1            Skip past leading TAB char
 006128 0600                       37627  1                      DECR  R0
 00612A 5820 5190            00190 37629  1                      L     R2,SVIBFMAP         Field descriptor map
 00612E 58F0 8028            00000 37630  1                      SEGLD ,                   Output SEGCB
 006132 58E0 7C02/0DEE       06CF0 37636  1                      ACALL SEGFLDS             Write our fields
 006138 1B00/58F0 8028_            37640  1                      SEGCR
 006144 4780 7064            06152 37662  1                      IF    NZ,BEGIN            Attn...
 006148 41F0 5000            00000 37673  2                        LA    R15,SVIB
 00614C 58E0 7C0A/0DEE       06CF8 37674  2                        ACALL SERVABRT            Send ABORT
 006152                            37678  1                      END
 006152                            37682                       END
                                   37686                       ¿þþþþþþþþþþþþþþþþþþþþþþþþþþþþþþþþþþþþþÜ
                                   37687                       Ÿ  Intermediate information message.  Ÿ
                                   37688                       ¾þþþþþþþþþþþþþþþþþþþþþþþþþþþþþþþþþþþþþ»
 006152 7068/47F0 7292_06152 06122 37689                       ELSEIF (@R1,EQ,'1'),BEGIN  Information message...
                                   37714  1                      ¿þþþþþþþþþþþþþþþþþþþþþþþþþþþþþþþþÜ
                                   37715  1                      Ÿ  Display start of table line.  Ÿ
                                   37716  1                      ¾þþþþþþþþþþþþþþþþþþþþþþþþþþþþþþþþ»
 00615E D502 7CBA 1000_06DA8 00000 37717  1                      IF    (@R1,EQ,'100'),BEGIN  Start of table line...
 006168 4110 1004            00004 37733  2                        LA    R1,@R1+4
 00616C 4B00 7C74            06D62 37734  2                        SH    R0,=H'4'
 006170 9001 D000/41D0_      00000 37735  2                        XPUSH R0,R1
 006178 4110 7C0E/4100_      06CFC 37738  2                        SEG   '*** '
 00618A 4BD0 7C72/9801_      06D60 37753  2                        XPOP  R0,R1
 006192 58E0 7C12/0DEE       06D00 37756  2                        VCALL LRTRIM
1QUERY    (QUER2193) (12:52) (15MAR04) Utility Subroutines                                                                  Page  116
0Current Usings:  (SVIB,R5) (*,R7) (SVFMWA-(4+36),R8) (CP,R11) (CV,R12)
0Loc    Object Code    Addr1 Addr2  Stmt Lv Lineno    Source Statement           (Hibal 5, Asmedit 3.3)  HLASM R4.0  2004/03/15 12.52
+___    ______ ____    _____ _____  ____ __ ______    ______ _________
0006198 1200/4720 70B8_            37760  2                        IF    (R0,NP),'SETMSG "Start of table"'
 0061A6 58F0 8028/58E0_      00000 37783  2                        SEGCR (R1),(R0)           Write out line
 0061B0                            37805  1                      END
                                   37809  1                      ¿þþþþþþþþþþþþþþþþþþþþþþþþþþþþþþþþþþÜ
                                   37810  1                      Ÿ  Display table column headings.  Ÿ
                                   37811  1                      ¾þþþþþþþþþþþþþþþþþþþþþþþþþþþþþþþþþþ»
 0061B0 70C6/47F0 718E_061B0 06166 37812  1                      ELSEIF (@R1,EQ,'101'),BEGIN  Table columns line...
 0061BE 9140 504B/47E0_0004B       37837  2                        IF    SVIBFENDTAB,'XPUSH R0,R1; SEGCR; XPOP R0,R1'
                                   37885  2
 0061E2 4110 1004            00004 37886  2                        LA    R1,@R1+4
 0061E6 4B00 7C74            06D62 37887  2                        SH    R0,=H'4'
 0061EA 47D0 718E            0627C 37888  2                        IF    POS,BEGIN           We have column titles...
 0061EE 5820 5190            00190 37899  3                          L     R2,SVIBFMAP         Field descriptors
 0061F2 58F0 8028            00000 37900  3                          SEGLD ,                   Output SEGCB
 0061F6 58E0 7C02/0DEE       06CF0 37906  3                          ACALL SEGFLDS             Write fields
 0061FC 1B00/58F0 8028_            37910  3                          SEGCR
                                   37932  3                          ¿þþþþþþþþþþþþþþþþþþþþþþþþþþþÜ
                                   37933  3                          Ÿ  Generate a dashed line.  Ÿ
                                   37934  3                          ¾þþþþþþþþþþþþþþþþþþþþþþþþþþþ»
 006208 5820 5190/1222       00190 37935  3                          LT    R2,SVIBFMAP         Get field descriptor map ptr
 00620E 4780 7182            06270 37939  3                          IF    NZ,BEGIN            We have some fields...
 USING  FDE,R2                     37950  4                            WITH  (FDE,R2)
 006212 9500 2000/4780_00000       37963  4                            WHILE (FDETYPE,NZ),BEGIN  Go through fields...
                                   37981  5
 00621A 5020 D000/41D0_      00000 37982  5                              XPUSH R2
 006222 4820 2002            00002 37985  5                              LH    R2,FDELEN           Total length for dashed line
 006226 1222/47D0 7160             37986  5                              WHILE (R2,POS),BEGIN      Write out dashed line...
 00622C 1802                       38002  6                                LR    R0,R2
 00622E 5900 7C16/47D0_      06D04 38003  6                                CEIL  R0,64
 00623A 1B20                       38022  6                                SR    R2,R0
 00623C 4110 7B4A/58F0_      06C38 38023  6                                SEG   =64C'-',(R0)        Dashed line
 00624A 47F0 7138            06226 38047  5                              END
 00624E 4BD0 7C84/5820_      06D72 38052  5                              XPOP  R2
                                   38055  5
 006256 4110 7C86/4100_      06D74 38056  5                              SEG   '  '
                                   38071  5
 006268 4120 2004            00004 38072  5                              LA    R2,FDENEXT          Next field
 00626C 47F0 7124            06212 38073  4                            END
 DROP   FDE,R2                     38078  3                          END
                                   38087  3
 006270 1B00/58F0 8028_            38088  3                          SEGCR
 00627C                            38110  2                        END
 00627C                            38114  1                      END
                                   38118  1                      ¿þþþþþþþþþþþþþþþþþþþþþþþþþþþþþþÜ
                                   38119  1                      Ÿ  Display end of table line.  Ÿ
                                   38120  1                      ¾þþþþþþþþþþþþþþþþþþþþþþþþþþþþþþ»
 00627C 7192/47F0 71F2_0627C 061BC 38121  1                      ELSEIF (@R1,EQ,'109'),BEGIN  End of table line...
 00628A 4110 1004            00004 38146  2                        LA    R1,@R1+4
 00628E 4B00 7C74            06D62 38147  2                        SH    R0,=H'4'
 006292 9001 D000/41D0_      00000 38148  2                        XPUSH R0,R1
 00629A 4110 7C0E/4100_      06CFC 38151  2                        SEG   '*** '
 0062AC 4BD0 7C72/9801_      06D60 38166  2                        XPOP  R0,R1
 0062B4 58E0 7C12/0DEE       06D00 38169  2                        VCALL LRTRIM
 0062BA 1200/4720 71DA_            38173  2                        IF    (R0,NP),'SETMSG "End of table"'
1QUERY    (QUER2193) (12:52) (15MAR04) Utility Subroutines                                                                  Page  117
0Current Usings:  (SVIB,R5) (*,R7) (SVFMWA-(4+36),R8) (CP,R11) (CV,R12)
0Loc    Object Code    Addr1 Addr2  Stmt Lv Lineno    Source Statement           (Hibal 5, Asmedit 3.3)  HLASM R4.0  2004/03/15 12.52
+___    ______ ____    _____ _____  ____ __ ______    ______ _________
00062C8 58F0 8028/58E0_      00000 38196  2                        SEGCR (R1),(R0)           Write out line
                                   38218  2
 0062D2 41F0 5000            00000 38219  2                        LA    R15,SVIB
 0062D6 58E0 7C26/0DEE       06D14 38220  2                        ACALL SERVFBUF            Free remaining buffered stuff
                                   38224  2
 0062DC 9640 504B      0004B       38225  2                        SET   SVIBFENDTAB         End of table reached
 0062E0                            38231  1                      END
                                   38235  1
 0062E0 71F6/47F0 728E_062E0 06288 38236  1                      ELSEIF (@R1,EQ,'15'),BEGIN  Info message...
 0062EE 9001 D000/41D0_      00000 38261  2                        XPUSH R0,R1
 0062F6 4110 7C8A/4100_      06D78 38264  2                        SEG   '*** Info: '
 006308 4BD0 7C72/9801_      06D60 38279  2                        XPOP  R0,R1
                                   38282  2
 006310 9505 1003/4770_00003       38283  2                        IF    (@R1+3,EQ,X'05'),BEGIN  Display as "(nnn) message"...
 006318 9001 D000/41D0_      00000 38299  3                          XPUSH R0,R1
 006320 4110 7CC3/4100_      06DB1 38302  3                          SEG   '('
 006332 4BD0 7C72/9801_      06D60 38317  3                          XPOP  R0,R1
 00633A 9001 D000/41D0_      00000 38320  3                          XPUSH R0,R1
 006342 4100 0003/58F0_      00003 38323  3                          SEG   @R1,3
 006350 4110 7C94/4100_      06D82 38349  3                          SEG   ') '
 006362 4BD0 7C72/9801_      06D60 38364  3                          XPOP  R0,R1
 00636A 4110 1004            00004 38367  3                          LA    R1,@R1+4
 00636E 4B00 7C74            06D62 38368  3                          SH    R0,=H'4'
 006372                            38369  2                        END
                                   38373  2
 006372 58F0 8028/58E0_      00000 38374  2                        SEGCR (R1),(R0)
 00637C                            38396  1                      END
                                   38400  1                      ¿þþþþþþþþþþþþþþþþþþþþþþþþþþþþþþþþþþþþþÜ
                                   38401  1                      Ÿ  All other informational messages.  Ÿ
                                   38402  1                      ¾þþþþþþþþþþþþþþþþþþþþþþþþþþþþþþþþþþþþþ»
 00637C 7292/47F0 7292 0637C 062EC 38403  1                      ELSE  BEGIN               Informational message...
                                   38414  2                        COMMENT ,                 Ignore other info msgs for now
 006380                            38415  1                      END
 006380                            38419                       END
                                   38423                       ¿þþþþþþþþþþþþþþþþþþþþþþþþþþÜ
                                   38424                       Ÿ  Normal end of command.  Ÿ
                                   38425                       ¾þþþþþþþþþþþþþþþþþþþþþþþþþþ»
 006380 7296/47F0 7330_06380 0615C 38426                       ELSEIF (@R1,EQ,'2'),BEGIN  Normal completion...
 00638C 9200 504A      0004A       38451  1                      SET   SVIBSFNORMAL        Normal state
 006390 9001 D000/41D0_      00000 38457  1                      XPUSH R0,R1
 006398 4110 7CC4/4100_      06DB2 38460  1                      SEG   '*** Normal completion: '
 0063AA 4BD0 7C72/9801_      06D60 38475  1                      XPOP  R0,R1
                                   38478  1
 0063B2 9505 1003/4770_00003       38479  1                      IF    (@R1+3,EQ,X'05'),BEGIN  Display as "(nnn) message"...
 0063BA 9001 D000/41D0_      00000 38495  2                        XPUSH R0,R1
 0063C2 4110 7CC3/4100_      06DB1 38498  2                        SEG   '('
 0063D4 4BD0 7C72/9801_      06D60 38513  2                        XPOP  R0,R1
 0063DC 9001 D000/41D0_      00000 38516  2                        XPUSH R0,R1
 0063E4 4100 0003/58F0_      00003 38519  2                        SEG   @R1,3
 0063F2 4110 7C94/4100_      06D82 38545  2                        SEG   ') '
 006404 4BD0 7C72/9801_      06D60 38560  2                        XPOP  R0,R1
 00640C 4110 1004            00004 38563  2                        LA    R1,@R1+4
 006410 4B00 7C74            06D62 38564  2                        SH    R0,=H'4'
 006414                            38565  1                      END
1QUERY    (QUER2193) (12:52) (15MAR04) Utility Subroutines                                                                  Page  118
0Current Usings:  (SVIB,R5) (*,R7) (SVFMWA-(4+36),R8) (CP,R11) (CV,R12)
0Loc    Object Code    Addr1 Addr2  Stmt Lv Lineno    Source Statement           (Hibal 5, Asmedit 3.3)  HLASM R4.0  2004/03/15 12.52
+___    ______ ____    _____ _____  ____ __ ______    ______ _________
0                                  38569  1
 006414 58F0 8028/58E0_      00000 38570  1                      SEGCR (R1),(R0)
 00641E                            38592                       END
                                   38596                       ¿þþþþþþþþþþþþþþþþþþþþþþþþþþþþÜ
                                   38597                       Ÿ  Abnormal end of command.  Ÿ
                                   38598                       ¾þþþþþþþþþþþþþþþþþþþþþþþþþþþþ»
 00641E 7334/47F0 73D6_0641E 0638A 38599                       ELSEIF ((@R1,EQ,'4'),OR,(@R1,EQ,'5')),BEGIN  Error...
 006432 9200 504A      0004A       38639  1                      SET   SVIBSFNORMAL        Normal state
 006436 9001 D000/41D0_      00000 38645  1                      XPUSH R0,R1
 00643E 4110 7C96/4100_      06D84 38648  1                      SEG   '*** Error completion: '
 006450 4BD0 7C72/9801_      06D60 38663  1                      XPOP  R0,R1
                                   38666  1
 006458 9505 1003/4770_00003       38667  1                      IF    (@R1+3,EQ,X'05'),BEGIN  Display as "(nnn) message"...
 006460 9001 D000/41D0_      00000 38683  2                        XPUSH R0,R1
 006468 4110 7CC3/4100_      06DB1 38686  2                        SEG   '('
 00647A 4BD0 7C72/9801_      06D60 38701  2                        XPOP  R0,R1
 006482 9001 D000/41D0_      00000 38704  2                        XPUSH R0,R1
 00648A 4100 0003/58F0_      00003 38707  2                        SEG   @R1,3
 006498 4110 7C94/4100_      06D82 38733  2                        SEG   ') '
 0064AA 4BD0 7C72/9801_      06D60 38748  2                        XPOP  R0,R1
 0064B2 4110 1004            00004 38751  2                        LA    R1,@R1+4
 0064B6 4B00 7C74            06D62 38752  2                        SH    R0,=H'4'
 0064BA                            38753  1                      END
                                   38757  1
 0064BA 58F0 8028/58E0_      00000 38758  1                      SEGCR (R1),(R0)
 0064C4                            38780                       END
                                   38784
 0064C4 73DA/47F0 7406 064C4 06430 38785                       ELSE  BEGIN               Something unexpected...
 0064C8 9001 D000/41D0_      00000 38796  1                      XPUSH R0,R1
 0064D0 4110 7CDB/4100_      06DC9 38799  1                      SEG   '*** Unexpected data: '
 0064E2 4BD0 7C72/9801_      06D60 38814  1                      XPOP  R0,R1
 0064EA 58F0 8028/58E0_      00000 38817  1                      SEGCR (R1),(R0)           Data
 0064F4                            38839                       END
                                   38843
 0064F4 1BFF                       38844                       CLEAR R15                 A-ok
 0064F6 18D8/9808 D004_            38848                       PEND
 DROP   SVIB,R5
 DROP   SVFMWA-(4+36),R8
 DROP   *,R7
                                   38878
                                   38879                       SEGDEF DUMMY              (Neatness)
1QUERY    (QUER2193) (12:52) (15MAR04) Utility Subroutines                                                                  Page  119
0Current Usings:  (CP,R11) (CV,R12)
0Loc    Object Code    Addr1 Addr2  Stmt Lv Lineno    Source Statement           (Hibal 5, Asmedit 3.3)  HLASM R4.0  2004/03/15 12.52
+___    ______ ____    _____ _____  ____ __ ______    ______ _________
0                                  38881              ¿þþþþþþþþþþþþþþþþþþþþþþþþþþþþþþþþþþþþþþþþþþþþþþþþþþþþþþþþþþþþþþþþþþþþþÜ
                                   38882              Ÿ                                                                     Ÿ
                                   38883              Ÿ  SERVABRT -- Routine to tell the server to stop sending data        Ÿ
                                   38884              Ÿ    (i.e., send a TAP ABORT).                                        Ÿ
                                   38885              Ÿ                                                                     Ÿ
                                   38886              Ÿ    On entry:                                                        Ÿ
                                   38887              Ÿ      R15 - SVIB ptr                                                 Ÿ
                                   38888              Ÿ                                                                     Ÿ
                                                      ¾þþþþþþþþþþþþþþþþþþþþþþþþþþþþþþþþþþþþþþþþþþþþþþþþþþþþþþþþþþþþþþþþþþþþþ»
0006504 50E0 D000/9008_      00000 38889              SERVABRT PROC
 USING  *,R7
 00651E 185F                       38928                       LR    R5,R15
 USING  SVIB,R5                    38929                       WITH  (SVIB,R5)
                                   38942
 006520 58F0 518C/12FF       0018C 38943                       LT    R15,SVIBUNET
 006526 4780 7036            06554 38947                       IF    NZ,BEGIN
 00652A 4140 F10C            0010C 38958  1                      WITH  (UNET,R15),'LA R4,UNETOUTSG'
 USING  UNET,R15
 DROP   UNET,R15
                                   38982  1                      SEGDEF (R4)               Network output SEGCB ptr
                                   38983  1                      ¿þþþþþþþþþþþþþþþþþþþþþþþþþþþþþþþþþþþþþþþÜ
                                   38984  1                      Ÿ  Only send TAP ABORT the first time.  Ÿ
                                   38985  1                      ¾þþþþþþþþþþþþþþþþþþþþþþþþþþþþþþþþþþþþþþþ»
 00652E 9120 504B/4710_0004B       38986  1                      IF    ~SVIBFABORT,BEGIN   Send an ABORT request...
 006536 4110 78C0/4100_      06DDE 39001  2                        SEGCR 'ABORT'
 006546 1B00/18F4/58E0_            39017  2                        SEGWR
 006550 9620 504B      0004B       39039  2                        SET   SVIBFABORT          Remember that we sent this
 006554                            39045  1                      END
 006554                            39049                       END
                                   39053
 006554 1BFF                       39054                       CLEAR R15                 Neatness
 006556 18D8/9808 D004_            39058                       PEND
 DROP   SVIB,R5
 DROP   *,R7
                                   39083
                                   39084                       SEGDEF DUMMY              (Neatness)
1QUERY    (QUER2193) (12:52) (15MAR04) Utility Subroutines                                                                  Page  120
0Current Usings:  (CP,R11) (CV,R12)
0Loc    Object Code    Addr1 Addr2  Stmt Lv Lineno    Source Statement           (Hibal 5, Asmedit 3.3)  HLASM R4.0  2004/03/15 12.52
+___    ______ ____    _____ _____  ____ __ ______    ______ _________
0                                  39086              ¿þþþþþþþþþþþþþþþþþþþþþþþþþþþþþþþþþþþþþþþþþþþþþþþþþþþþþþþþþþþþþþþþþþþþþÜ
                                   39087              Ÿ                                                                     Ÿ
                                   39088              Ÿ  SERVFMAP -- Routine to update field descriptors based on the       Ÿ
                                   39089              Ÿ     data line passed.                                               Ÿ
                                   39090              Ÿ                                                                     Ÿ
                                   39091              Ÿ     On entry:                                                       Ÿ
                                   39092              Ÿ       R15   - SVIB ptr                                              Ÿ
                                   39093              Ÿ       R1,R0 - data line loc, len                                    Ÿ
                                   39094              Ÿ                                                                     Ÿ
                                                      ¾þþþþþþþþþþþþþþþþþþþþþþþþþþþþþþþþþþþþþþþþþþþþþþþþþþþþþþþþþþþþþþþþþþþþþ»
0000000                00000 00008 39095              FMAPWA   RECORD BEGIN
 000000                            39103  1           FMAPTOK    DS    CL8                 Working token area
 000008                00008 00008 39104                       END
                                   39113              þþþþ
 006564 50E0 D000/9008_      00000 39114              SERVFMAP PROC  FMAPWA
 USING  *,R7
 USING  FMAPWA-(4+36),R8
 00657E 185F                       39164                       LR    R5,R15
 USING  SVIB,R5                    39165                       WITH  (SVIB,R5)
 006580 D503 774A 5000_06CC8 00000 39178                       FAIL  (SVIB,NE,'SVIB'),SERVFMAP,'Bad SVIB ptr.'
                                   39207
 0065A2 1831                       39208                       LR    R3,R1               Copy original line ptrs
 0065A4 1820                       39209                       LR    R2,R0
                                   39210                       ¿þþþþþþþþþþþþþþþþþþþþþþþþþþþþþþþþþþþþþþþþþþþþÜ
                                   39211                       Ÿ  Get field descriptor map addressibility.  Ÿ
                                   39212                       ¾þþþþþþþþþþþþþþþþþþþþþþþþþþþþþþþþþþþþþþþþþþþþ»
 0065A6 5860 5190            00190 39213                       L     R6,SVIBFMAP         Get FDEMAP ptr
 USING  FDEMAP,R6                  39214                       WITH  (FDEMAP,R6)
                                   39227
 0065AA 1266/4770 704E             39228                       IF    (R6,Z),BEGIN        No FDEMAP, allocate one...
 0065B0 4100 0194            00194 39242  1                      LA    R0,L'FDEMAP
 0065B4 58E0 779A/0DEE       06D18 39243  1                      VCALL GETCORE             Get room for FDEMAP
 0065BA 1861                       39247  1                      LR    R6,R1
 0065BC 5060 5190            00190 39248  1                      ST    R6,SVIBFMAP         Save FDEMAP ptr
 0065C0 D7FF 6000 6000_00000 00000 39249  1                      CLEAR FDEMAP              Init FDEMAP
 0065CC                            39257                       END
                                   39261                       ¿þþþþþþþþþþþþþþÜ
                                   39262                       Ÿ  Data line.  Ÿ
                                   39263                       ¾þþþþþþþþþþþþþþ»
 0065CC 1222/47D0 709A_            39264                       IF    ((R2,POS),AND,(@R3,EQ,$TAB)),BEGIN  Data line...
 0065DA 4130 3001            00001 39294  1                      LA    R3,@R3+1            Skip past leading tab
 0065DE 0620                       39295  1                      DECR  R2                  Keep length accurate
 0065E0 4140 6000            00000 39297  1                      LA    R4,FDEMAP
 0065E4 58E0 779E/0DEE_      06D1C 39298  1                      WHILE ('ACALL GETFIELD',Z),BEGIN  Step through fields...
 USING  FDE,R4                     39316  2                        WITH  (FDE,R4)
 0065EE 9500 4000/4770_00000       39329  2                        IF    (FDETYPE,Z),'SET FDETLEFT'  Assume left centered
 0065FA 4900 4002/47D0_      00002 39356  2                        IF    (R0,GT,FDELEN),'STH R0,FDELEN'  Max length so far
                                   39379  2
 006606 4140 4004            00004 39380  2                        LA    R4,FDENEXT          Next entry
 00660A 41F0 6190            00190 39381  2                        LA    R15,FDEMAPE
 00660E 194F/47A0 709A             39382  2                        IF    (R4,GE,R15),EXIT    Too many fields, scram
 006614 47F0 7066            065E4 39400  1                      END
 DROP   FDE,R4
1QUERY    (QUER2193) (12:52) (15MAR04) Utility Subroutines                                                                  Page  121
0Current Usings:  (SVIB,R5) (FDEMAP,R6) (*,R7) (FMAPWA-(4+36),R8) (CP,R11) (CV,R12)
0Loc    Object Code    Addr1 Addr2  Stmt Lv Lineno    Source Statement           (Hibal 5, Asmedit 3.3)  HLASM R4.0  2004/03/15 12.52
+___    ______ ____    _____ _____  ____ __ ______    ______ _________
0006618                            39410                       END
                                   39414                       ¿þþþþþþþþþþþþþþþþþþþþþþÜ
                                   39415                       Ÿ  101: Column names.  Ÿ
                                   39416                       ¾þþþþþþþþþþþþþþþþþþþþþþ»
 006618 709E/709E/47F0_06618 065D0 39417                       ELSEIF ((R2,GE,3),AND,(@R3,EQ,'101')),BEGIN  Col names...
 00662E 4130 3004            00004 39460  1                      LA    R3,@R3+4            Skip past numeric id
 006632 4B20 77E4            06D62 39461  1                      SH    R2,=H'4'            Keep length accurate
 006636 4140 6000            00000 39462  1                      LA    R4,FDEMAP
 00663A 58E0 779E/0DEE_      06D1C 39463  1                      WHILE ('ACALL GETFIELD',Z),BEGIN  Step through fields...
 USING  FDE,R4                     39481  2                        WITH  (FDE,R4)
 006644 9500 4000/4770_00000       39494  2                        IF    (FDETYPE,Z),'SET FDETLEFT'  Assume left centered
 006650 4900 4002/47D0_      00002 39521  2                        IF    (R0,GT,FDELEN),'STH R0,FDELEN'  Max length so far
                                   39544  2
 00665C 4140 4004            00004 39545  2                        LA    R4,FDENEXT          Next entry
 006660 41F0 6190            00190 39546  2                        LA    R15,FDEMAPE
 006664 194F/47A0 70F0             39547  2                        IF    (R4,GE,R15),EXIT    Too many fields, scram
 00666A 47F0 70BC            0663A 39565  1                      END
 DROP   FDE,R4
 00666E                            39575                       END
                                   39579                       ¿þþþþþþþþþþþþþþþþþþþþþþÜ
                                   39580                       Ÿ  102: Column types.  Ÿ
                                   39581                       ¾þþþþþþþþþþþþþþþþþþþþþþ»
 00666E 70F4/70F4/47F0_0666E 06622 39582                       ELSEIF ((R2,GE,3),AND,(@R3,EQ,'102')),BEGIN  Col types...
 006684 4130 3004            00004 39625  1                      LA    R3,@R3+4            Skip past numeric id
 006688 4B20 77E4            06D62 39626  1                      SH    R2,=H'4'            Keep length accurate
 00668C 4140 6000            00000 39627  1                      LA    R4,FDEMAP
 006690 58E0 779E/0DEE_      06D1C 39628  1                      WHILE ('ACALL GETFIELD',Z),BEGIN  Step through fields...
 USING  FDE,R4                     39646  2                        WITH  (FDE,R4)
 00669A 9500 4000/4770_00000       39659  2                        IF    (FDETYPE,Z),'SET FDETLEFT'  Assume left centered
 0066A6 5900 77A6/4750_      06D24 39686  2                        IF    (R0,GE,6),BEGIN     Type name is 6+ chars long...
 0066AE D207 8028 1000 00000 00000 39703  3                          MVC   FMAPTOK,@R1
 0066B4 D607 8028 C4D8 00000 004D8 39704  3                          OC    FMAPTOK,CVBLANKS    Convert to upper case
 0066BA D505 781C 8028_06D9A 00000 39705  3                          IF    (FMAPTOK,EQ,'NUMBER'),'SET FDETRIGHT'  Right centered
 0066C8                            39733  2                        END
                                   39737  2
 0066C8 4140 4004            00004 39738  2                        LA    R4,FDENEXT          Next entry
 0066CC 41F0 6190            00190 39739  2                        LA    R15,FDEMAPE
 0066D0 194F/47A0 715C             39740  2                        IF    (R4,GE,R15),EXIT    Too many fields, scram
 0066D6 47F0 7112            06690 39758  1                      END
 DROP   FDE,R4
 0066DA                            39768                       END
                                   39772
 0066DA 18D8/9808 D004_            39773                       PEND
 DROP   FDEMAP,R6
 DROP   SVIB,R5
 DROP   FMAPWA-(4+36),R8
 DROP   *,R7
1QUERY    (QUER2193) (12:52) (15MAR04) Utility Subroutines                                                                  Page  122
0Current Usings:  (CP,R11) (CV,R12)
0Loc    Object Code    Addr1 Addr2  Stmt Lv Lineno    Source Statement           (Hibal 5, Asmedit 3.3)  HLASM R4.0  2004/03/15 12.52
+___    ______ ____    _____ _____  ____ __ ______    ______ _________
0                                  39809              ¿þþþþþþþþþþþþþþþþþþþþþþþþþþþþþþþþþþþþþþþþþþþþþþþþþþþþþþþþþþþþþþþþþþþþþÜ
                                   39810              Ÿ                                                                     Ÿ
                                   39811              Ÿ  SERVBUF -- Routine to buffer an input line from the query          Ÿ
                                   39812              Ÿ    server.                                                          Ÿ
                                   39813              Ÿ                                                                     Ÿ
                                   39814              Ÿ      On entry:                                                      Ÿ
                                   39815              Ÿ        R1,R0 - line location, length                                Ÿ
                                   39816              Ÿ        R15   - SVIB ptr                                             Ÿ
                                   39817              Ÿ                                                                     Ÿ
                                   39818              Ÿ      On exit, R15 (and cc):                                         Ÿ
                                   39819              Ÿ        0 - OK                                                       Ÿ
                                   39820              Ÿ        4 - OK; but don't buffer any more                            Ÿ
                                   39821              Ÿ                                                                     Ÿ
                                                      ¾þþþþþþþþþþþþþþþþþþþþþþþþþþþþþþþþþþþþþþþþþþþþþþþþþþþþþþþþþþþþþþþþþþþþþ»
00066E8 50E0 D000/9008_      00000 39822              SERVBUF  PROC
 USING  *,R7
 006702 185F                       39861                       LR    R5,R15
 USING  SVIB,R5                    39862                       WITH  (SVIB,R5)
 006704 D503 75C6 5000_06CC8 00000 39875                       FAIL  (SVIB,NE,'SVIB'),SERVFMAP,'Bad SVIB ptr.'
                                   39904
 006726 1831                       39905                       LR    R3,R1
 006728 1820                       39906                       LR    R2,R0
                                   39907
 00672A 4A00 769E            06DA0 39908                       AH    R0,=AL2(L'INENTRY)
 00672E 58E0 7616/0DEE       06D18 39909                       VCALL GETCORE
 006734 1841                       39913                       LR    R4,R1
 USING  INENTRY,R4                 39914                       WITH  (INENTRY,R4)
 006736 D705 4000 4000 00000 00000 39927                       CLEAR INENTRY             Initialize new entry
 00673C 4020 4004            00004 39934                       STH   R2,INLEN            Save text length
 006740 41E0 4006/18F2_      00006 39935                       MOVEL INTEXT,@R3,(R2)     Copy in data
                                   39957
 00674C 5820 519C/1222       0019C 39958                       LT    R2,SVIBINQT         Old queue tail
 006752 4770 705C            0675E 39962                       IF    Z,BEGIN             Nothing on queue...
 006756 5040 5198            00198 39973  1                      ST    R4,SVIBINQH         We are the queue head
 00675A 5040 519C            0019C 39974  1                      ST    R4,SVIBINQT         ...and the queue tail
 00675E                            39975                       END
                                   39979
 00675E 7060/47F0 7068 0675E 06754 39980                       ELSE  BEGIN               Add us to the end of the queue...
 006762 5040 2000            00000 39991  1                      ST    R4,INLINK-INENTRY(,R2)  Link us to old last entry
 006766 5040 519C            0019C 39992  1                      ST    R4,SVIBINQT         We are the new queue tail
 00676A                            39993                       END
                                   39997
 00676A 41F0 0001/5EF0_      00001 39998                       INCR  R15,SVIBINCT        Kick count of entries
 006776 59F0 7626/47D0_      06D28 40004                       IF    (R15,GT,SVIBIN#),'LA R15,4'  Too many
 006782 7084/47F0 7086_06782 0677C 40027                       ELSE  'CLEAR R15'         OK
 006788 18D8/9808 D004_            40047                       PEND
 DROP   INENTRY,R4
 DROP   SVIB,R5
 DROP   *,R7
1QUERY    (QUER2193) (12:52) (15MAR04) Utility Subroutines                                                                  Page  123
0Current Usings:  (CP,R11) (CV,R12)
0Loc    Object Code    Addr1 Addr2  Stmt Lv Lineno    Source Statement           (Hibal 5, Asmedit 3.3)  HLASM R4.0  2004/03/15 12.52
+___    ______ ____    _____ _____  ____ __ ______    ______ _________
0                                  40078              ¿þþþþþþþþþþþþþþþþþþþþþþþþþþþþþþþþþþþþþþþþþþþþþþþþþþþþþþþþþþþþþþþþþþþþþÜ
                                   40079              Ÿ                                                                     Ÿ
                                   40080              Ÿ  SERVREAD -- Routine to get the next TAP control line from          Ÿ
                                   40081              Ÿ    the network path.                                                Ÿ
                                   40082              Ÿ                                                                     Ÿ
                                   40083              Ÿ    On entry:                                                        Ÿ
                                   40084              Ÿ      R15- UNET ptr                                                  Ÿ
                                   40085              Ÿ      R1 - "x.."   String (the first character is a code which       Ÿ
                                   40086              Ÿ                     will complete the read -- see TAP doc).         Ÿ
                                   40087              Ÿ                                                                     Ÿ
                                   40088              Ÿ    On exit, R15 (and cc):                                           Ÿ
                                   40089              Ÿ      0 - ok;              R1,R0 - data line loc, len                Ÿ
                                   40090              Ÿ     -1 - network error;   R1,R0 - error msg loc, len                Ÿ
                                   40091              Ÿ      1 - query error;     R1,R0 - error msg loc, len                Ÿ
                                   40092              Ÿ                                                                     Ÿ
                                                      ¾þþþþþþþþþþþþþþþþþþþþþþþþþþþþþþþþþþþþþþþþþþþþþþþþþþþþþþþþþþþþþþþþþþþþþ»
0000000                00000 00003 40093              READWA   RECORD BEGIN
 000000                            40101  1           READOPT    DS    CL3                 Option code from entry
                                   40102  1           READCOMP   EQU   READOPT,1,C'X'      Stop on this numeric code
 000003                00003 00003 40103                       END
                                   40112              þþþþ
 006796 50E0 D000/9028_      00000 40113              SERVREAD XPROC (R2,LSR),READWA
 USING  *,R7
 USING  READWA-(4+28),R8
 0067B0 D202 8020 1000 00000 00000 40163                       MVC   READOPT,@R1         Save option code
                                   40164
 0067B6 186F                       40165                       LR    R6,R15
 USING  UNET,R6                    40166                       WITH  (UNET,R6)
                                   40179                       SEGDEF UNETOUTSG          Network output seg buffer
                                   40180                       ¿þþþþþþþþþþþþþþþþþþþþþþþþþþþþþþþþþþþþþþþþþþþþþþþþþþþþþþþþþþÜ
                                   40181                       Ÿ  Keep reading lines until we get the response code that  Ÿ
                                   40182                       Ÿ    we are looking for.                                   Ÿ
                                   40183                       ¾þþþþþþþþþþþþþþþþþþþþþþþþþþþþþþþþþþþþþþþþþþþþþþþþþþþþþþþþþþ»
 0067B8                            40184              RRDLOOP  LOOP  BEGIN
 0067B8 41F0 6000            00000 40191  1                      LA    R15,UNET
 0067BC 58E0 7520/0DEE       06CD0 40192  1                      VCALL NPATREAD            Get next input line
 0067C2 4770 705E            0680E 40196  1                      BNZ   READNERR            Network error, scram
                                   40197  1                      ¿þþþþþþþþþþþþþþþþþþþþþþþþþþþþþþþþþþþþþþþþþþþþþþþþþþþþÜ
                                   40198  1                      Ÿ  Return if we get what we were waiting for, or if  Ÿ
                                   40199  1                      Ÿ    we get a final completion.                      Ÿ
                                   40200  1                      ¾þþþþþþþþþþþþþþþþþþþþþþþþþþþþþþþþþþþþþþþþþþþþþþþþþþþþ»
 0067C6 D500 8020 1000_00000 00000 40201  1                      IF    (@R1,EQ,READCOMP),EXIT  We got what we wanted
                                   40221  1
 0067D0 95F2 1000/4780_00000       40222  1                      IF    (@R1,EQ,'2'),EXIT   Positive completion
                                   40241  1                      ¿þþþþþþþþþþþþþþþþþþþþþþþþþþþþþþþþþþþþþþþþþþþþþþþþþþþþþþþþþþþþþþÜ
                                   40242  1                      Ÿ  Check out the response line to see if it is a fatal error.  Ÿ
                                   40243  1                      Ÿ    TAP control messages begin with a three digit code.       Ÿ
                                   40244  1                      ¾þþþþþþþþþþþþþþþþþþþþþþþþþþþþþþþþþþþþþþþþþþþþþþþþþþþþþþþþþþþþþþ»
 0067D8 95F4 1000/4780_00000       40245  1                      IF    ((@R1,EQ,'4'),OR,(@R1,EQ,'5')),BEGIN  Error...
 0067E8 4110 1004            00004 40276  2                        LA    R1,@R1+4            Skip past numeric ID
 0067EC 4B00 75B2            06D62 40277  2                        SH    R0,=H'4'
 0067F0 4720 704C/4110_      067FC 40278  2                        IF    NP,'SETMSG "ERROR"'    (No error message text)
 0067FC 41F0 0001            00001 40298  2                        LA    R15,1               Query error
1QUERY    (QUER2193) (12:52) (15MAR04) Utility Subroutines                                                                  Page  124
0Current Usings:  (UNET,R6) (*,R7) (READWA-(4+28),R8) (CP,R11) (CV,R12)
0Loc    Object Code    Addr1 Addr2  Stmt Lv Lineno    Source Statement           (Hibal 5, Asmedit 3.3)  HLASM R4.0  2004/03/15 12.52
+___    ______ ____    _____ _____  ____ __ ______    ______ _________
0006800 47F0 7062            06812 40299  2                        B     READEXIT
 006804                            40300  1                      END
 006804 47F0 7008            067B8 40304                       END
                                   40309
 006808 1BFF                       40310                       CLEAR R15                 A-ok
 00680A 47F0 7062            06812 40314                       B     READEXIT
                                   40315
 00680E 48F0 75F2            06DA2 40316              READNERR LH    R15,=H'-1'          Network error return code
 006812 90F4 D000/41D0_      00000 40317              READEXIT XPUSH R15,R4
 00681A 182F                       40320                       LR    R2,R15
 00681C 1831                       40321                       LR    R3,R1
 00681E 1840                       40322                       LR    R4,R0
 006820 4110 763B/4100_      06DEB 40323                       DEBUG 'SERVREAD returns ',R2,' -- ',(@R3,(R4))
 00686C 4BD0 75F4/98F4_      06DA4 40423                       XPOP  R15,R4
                                   40426
 006874 18D8/9828 D004_            40427                       PEND
 DROP   UNET,R6
 DROP   READWA-(4+28),R8
 DROP   *,R7
                                   40457
                                   40458                       SEGDEF DUMMY              (Neatness)
1QUERY    (QUER2193) (12:52) (15MAR04) Utility Subroutines                                                                  Page  125
0Current Usings:  (CP,R11) (CV,R12)
0Loc    Object Code    Addr1 Addr2  Stmt Lv Lineno    Source Statement           (Hibal 5, Asmedit 3.3)  HLASM R4.0  2004/03/15 12.52
+___    ______ ____    _____ _____  ____ __ ______    ______ _________
0                                  40460              ¿þþþþþþþþþþþþþþþþþþþþþþþþþþþþþþþþþþþþþþþþþþþþþþþþþþþþþþþþþþþþþþþþþþþþþÜ
                                   40461              Ÿ                                                                     Ÿ
                                   40462              Ÿ  SERVCLS -- Routine to close the server specified.  Actually,       Ÿ
                                   40463              Ÿ    all this routine currently does is send a RESET command to       Ÿ
                                   40464              Ÿ    the server and then mark the server entry as idle.               Ÿ
                                   40465              Ÿ                                                                     Ÿ
                                   40466              Ÿ    On entry:                                                        Ÿ
                                   40467              Ÿ      R15 - server number                                            Ÿ
                                   40468              Ÿ                                                                     Ÿ
                                   40469              Ÿ    On exit, R15 (and cc):                                           Ÿ
                                   40470              Ÿ      0 - closed                                                     Ÿ
                                   40471              Ÿ      4 - server not found                                           Ÿ
                                   40472              Ÿ                                                                     Ÿ
                                                      ¾þþþþþþþþþþþþþþþþþþþþþþþþþþþþþþþþþþþþþþþþþþþþþþþþþþþþþþþþþþþþþþþþþþþþþ»
0006882 50E0 D000/9008_      00000 40473              SERVCLS  XPROC
 USING  *,R7
 00689C 58E0 7498/0DEE       06D34 40513                       ACALL SERVGET             Get SVIB ptr
 0068A2 4770 7012/41F0_      068AE 40517                       IF    Z,'LA R15,4; B SCLSEXIT'  No such server
                                   40535
 0068AE 185F                       40536                       LR    R5,R15
 USING  SVIB,R5                    40537                       WITH  (SVIB,R5)
 0068B0 D503 742C 5000_06CC8 00000 40550                       FAIL  (SVIB,NE,'SVIB'),SERVCLS,'SVIB error.'
                                   40579
 0068D2 9504 5048/4780_00048       40580                       FAIL  ~SVIB#BUSY,SERVCLS,'SVIB status error.'
 0068F2 D503 5188 C1C8_00188 001C8 40607                       FAIL  (SVIBJCBP,NE,CVCURJCB),SERVCLS,'SVIB JCB error.'
                                   40637                       ¿þþþþþþþþþþþþþþþþþþþþþþþþþþþþþþþþþþþþþþþþþÜ
                                   40638                       Ÿ  Free up any remaining buffered lines.  Ÿ
                                   40639                       ¾þþþþþþþþþþþþþþþþþþþþþþþþþþþþþþþþþþþþþþþþþ»
 006914 41F0 5000            00000 40640                       LA    R15,SVIB
 006918 58E0 7478/0DEE       06D14 40641                       ACALL SERVFBUF            Free any buffered lines
                                   40645                       ¿þþþþþþþþþþþþþþþþþþþþþþþþþþþþþþþþþþþþþþþþþþþþþþþþþþþþþþþþþþþþþþÜ
                                   40646                       Ÿ  Close our side of the network connection if the other side  Ÿ
                                   40647                       Ÿ    was closed.  We don't actually free the server entry,     Ÿ
                                   40648                       Ÿ    the next time the SVIB is used the network connection     Ÿ
                                   40649                       Ÿ    will be re-allocated.                                     Ÿ
                                   40650                       ¾þþþþþþþþþþþþþþþþþþþþþþþþþþþþþþþþþþþþþþþþþþþþþþþþþþþþþþþþþþþþþþ»
 00691E 5820 518C/1222       0018C 40651                       LT    R2,SVIBUNET         UNET ptr
 006924 4780 70E0            0697C 40655                       IF    NZ,BEGIN            Active network connection...
 USING  UNET,R2                    40666  1                      WITH  (UNET,R2)
 006928 D503 7430 2000_06CCC 00000 40679  1                      FAIL  (UNET,NE,'UNET'),SERVCLS,'UNET error.'
                                   40708  1         C            IF    (UNETFINEOF,OR,UNETFINABORT,OR,
 00694A 9104 2164/4710_00164              1                            (UNETSTATE,GE,UNETSFABORT)),BEGIN  Close...
 006962 D703 518C 518C 0018C 0018C 40752  2                        CLEAR SVIBUNET            No network connection
 006968 947F 5049      00049       40759  2                        CLEAR SVIBFINIT           Reset initialized flag
 00696C D24F 5100 73DC 00100 06C78 40766  2                        MVC   SVIBINFO,=CL(L'SVIBINFO)'No network connection'
                                   40767  2
 006972 41F0 2000            00000 40768  2                        LA    R15,UNET
 006976 58E0 749C/0DEE       06D38 40769  2                        VCALL NPATCLS             Close our side of net connection
 00697C                            40773  1                      END
 DROP   UNET,R2                    40777                       END
1QUERY    (QUER2193) (12:52) (15MAR04) Utility Subroutines                                                                  Page  126
0Current Usings:  (SVIB,R5) (*,R7) (CP,R11) (CV,R12)
0Loc    Object Code    Addr1 Addr2  Stmt Lv Lineno    Source Statement           (Hibal 5, Asmedit 3.3)  HLASM R4.0  2004/03/15 12.52
+___    ______ ____    _____ _____  ____ __ ______    ______ _________
0                                  40786                       ¿þþþþþþþþþþþþþþþþþþþþþþþþþþþþþþþþþþþþþþþþþþþþþþþþþþþþÜ
                                   40787                       Ÿ  Free server entry if closing or not re-usable.    Ÿ
                                   40788                       Ÿ    We try to do it the nice way by sending a QUIT  Ÿ
                                   40789                       Ÿ    rather than just closing the path.              Ÿ
                                   40790                       ¾þþþþþþþþþþþþþþþþþþþþþþþþþþþþþþþþþþþþþþþþþþþþþþþþþþþþ»
 00697C 9110 5049/47E0_00049       40791                       IF    (~SVIBFREUSE,OR,SVIBFCLOSING),BEGIN  Closing...
 00698C 5840 518C/1244       0018C 40820  1                      LT    R4,SVIBUNET
 006992 4780 715E            069FA 40824  1                      IF    NZ,BEGIN            Network path is allocated...
 USING  UNET,R4                    40835  2                        WITH  (UNET,R4)
                                   40848  2                        ¿þþþþþþþþþþþþþþþþþþþþþþþþþþþþþþþþþÜ
                                   40849  2                        Ÿ  Terminate sending input data.  Ÿ
                                   40850  2                        ¾þþþþþþþþþþþþþþþþþþþþþþþþþþþþþþþþþ»
 006996 9501 504A/4770_0004A       40851  2                        IF    SVIBSFDATA,BEGIN    Sending data...
 00699E 4110 7560/4100_      06DFC 40866  3                          SEGCR '.',,UNETOUTSG      End of data
 0069B0 1B00/41F0 410C_            40884  3                          SEGWR
 0069BC 9200 504A      0004A       40908  3                          SET   SVIBSFNORMAL        Reset to normal
                                   40914  3
 0069C0 4110 7561            06DFD 40915  3                          LA    R1,=C'...'          Wait for completion response
 0069C4 58F0 518C            0018C 40916  3                          L     R15,SVIBUNET
 0069C8 58E0 74A0/0DEE       06D3C 40917  3                          ACALL SERVREAD            Get completion
                                   40921  3           *  (Don't bother checking for errors on QUIT completion.)
 0069CE                            40922  2                        END
                                   40926  2                        ¿þþþþþþþþþþþþþþþþþþþþþþþþþþþþþþþþþþþþþÜ
                                   40927  2                        Ÿ  Send QUIT and get acknowlegement.  Ÿ
                                   40928  2                        ¾þþþþþþþþþþþþþþþþþþþþþþþþþþþþþþþþþþþþþ»
 0069CE 4110 74A4/4100_      06D40 40929  2                        SEGCR 'QUIT',,UNETOUTSG
 0069E0 1B00/41F0 410C_            40947  2                        SEGWR
                                   40971  2
 0069EC 4110 7561            06DFD 40972  2                        LA    R1,=C'...'          Wait for completion response
 0069F0 58F0 518C            0018C 40973  2                        L     R15,SVIBUNET
 0069F4 58E0 74A0/0DEE       06D3C 40974  2                        ACALL SERVREAD            Get completion
                                   40978  2           *  (Don't bother checking for errors on QUIT completion.)
 DROP   UNET,R4                    40979  1                      END
                                   40988  1
 0069FA 41F0 5000            00000 40989  1                      LA    R15,SVIB
 0069FE 58E0 74A8/0DEE       06D44 40990  1                      ACALL SERVDEL
                                   40994  1
 006A04 1BFF                       40995  1                      CLEAR R15                 A-ok
 006A06 47F0 7238            06AD4 40999  1                      B     SCLSEXIT
 006A0A                            41000                       END
                                   41004                       ¿þþþþþþþþþþþþþþþþþþþþþþþþþþþþþþþþþþÜ
                                   41005                       Ÿ  Send end of data if necessary.  Ÿ
                                   41006                       ¾þþþþþþþþþþþþþþþþþþþþþþþþþþþþþþþþþþ»
 006A0A 9501 504A/4770_0004A       41007                       IF    SVIBSFDATA,BEGIN    Send end of data sequence...
 006A12 5840 518C/1244       0018C 41022  1                      LT    R4,SVIBUNET
 006A18 4780 71B0            06A4C 41026  1                      IF    NZ,BEGIN            Network connection is active...
 USING  UNET,R4                    41037  2                        WITH  (UNET,R4)
 006A1C 4110 7560/4100_      06DFC 41050  2                        SEGCR '.',,UNETOUTSG      End of data
 006A2E 1B00/41F0 410C_            41068  2                        SEGWR
                                   41092  2
 006A3A 9200 504A      0004A       41093  2                        SET   SVIBSFNORMAL        Reset to normal
                                   41099  2
 006A3E 4110 7561            06DFD 41100  2                        LA    R1,=C'...'          Wait for completion response
 006A42 58F0 518C            0018C 41101  2                        L     R15,SVIBUNET
1QUERY    (QUER2193) (12:52) (15MAR04) Utility Subroutines                                                                  Page  127
0Current Usings:  (UNET,R4) (SVIB,R5) (*,R7) (CP,R11) (CV,R12)
0Loc    Object Code    Addr1 Addr2  Stmt Lv Lineno    Source Statement           (Hibal 5, Asmedit 3.3)  HLASM R4.0  2004/03/15 12.52
+___    ______ ____    _____ _____  ____ __ ______    ______ _________
0006A46 58E0 74A0/0DEE       06D3C 41102  2                        ACALL SERVREAD            Get "go ahead" response
                                   41106  2           *  (Don't bother checking for errors on DATA completion.)
 DROP   UNET,R4                    41107  1                      END
 006A4C                            41116                       END
                                   41120                       ¿þþþþþþþþþþþþþþþþþþþþþþþþþþþþþþþÜ
                                   41121                       Ÿ  Wait for FETCH to complete.  Ÿ
                                   41122                       ¾þþþþþþþþþþþþþþþþþþþþþþþþþþþþþþþ»
 006A4C 9502 504A/4770_0004A       41123                       IF    SVIBSFFETCH,BEGIN   We are fetching now...
 006A54 5840 518C/1244       0018C 41138  1                      LT    R4,SVIBUNET
 006A5A 4780 71DA            06A76 41142  1                      IF    NZ,BEGIN
 006A5E 41F0 5000            00000 41153  2                        LA    R15,SVIB
 006A62 58E0 745C/0DEE       06CF8 41154  2                        ACALL SERVABRT            Send ABORT
                                   41158  2
 006A68 4110 7561            06DFD 41159  2                        LA    R1,=C'...'          Wait for completion response
 006A6C 58F0 518C            0018C 41160  2                        L     R15,SVIBUNET
 006A70 58E0 74A0/0DEE       06D3C 41161  2                        ACALL SERVREAD            Get completion
                                   41165  2           *  (Don't bother checking for errors on FETCH completion.)
 006A76                            41166  1                      END
 006A76 9200 504A      0004A       41170  1                      SET   SVIBSFNORMAL        Reset state to normal
 006A7A                            41176                       END
                                   41180                       ¿þþþþþþþþþþþþþþþþþþþþþþþþþþþþþþþþþþþþþþþþþþþþþþþþþþþþþþþþÜ
                                   41181                       Ÿ  Reset the server options so that it can be reused by  Ÿ
                                   41182                       Ÿ    the next user.                                      Ÿ
                                   41183                       ¾þþþþþþþþþþþþþþþþþþþþþþþþþþþþþþþþþþþþþþþþþþþþþþþþþþþþþþþþ»
 006A7A 5840 518C/1244       0018C 41184                       LT    R4,SVIBUNET
 006A80 4780 7214            06AB0 41188                       IF    NZ,BEGIN            Network path is allocated...
 USING  UNET,R4                    41199  1                      WITH  (UNET,R4)
 006A84 4110 7564/4100_      06E00 41212  1                      SEGCR 'RESET',,UNETOUTSG
 006A96 1B00/41F0 410C_            41230  1                      SEGWR
                                   41254  1
 006AA2 4110 7561            06DFD 41255  1                      LA    R1,=C'...'          Wait for completion response
 006AA6 58F0 518C            0018C 41256  1                      L     R15,SVIBUNET
 006AAA 58E0 74A0/0DEE       06D3C 41257  1                      ACALL SERVREAD            Get completion
                                   41261  1           *  (Don't bother checking for errors on RESET completion.)
 DROP   UNET,R4                    41262                       END
                                   41271                       ¿þþþþþþþþþþþþþþþþþþþþþþþþþþþþþþþþþþþþþþþþþþþþþþþþþþþþþþþþþÜ
                                   41272                       Ÿ  Network connection no longer belongs to us if this is  Ÿ
                                   41273                       Ÿ    a public server.                                     Ÿ
                                   41274                       ¾þþþþþþþþþþþþþþþþþþþþþþþþþþþþþþþþþþþþþþþþþþþþþþþþþþþþþþþþþ»
 006AB0 9120 5049/47E0_00049       41275                       IF    SVIBFPUBLIC,BEGIN   Public server...
 006AB8 58F0 518C/12FF       0018C 41290  1                      LT    R15,SVIBUNET
 006ABE 4780 722C            06AC8 41294  1                      IF    Z,EXIT              No network path, scram
 006AC2 58E0 74AC/0DEE       06D48 41308  1                      VCALL NPATCLRU            Clear owner fields
 006AC8                            41312                       END
                                   41316                       ¿þþþþþþþþþþþþþþþþþþþþþþþþÜ
                                   41317                       Ÿ  Mark server as idle.  Ÿ
                                   41318                       ¾þþþþþþþþþþþþþþþþþþþþþþþþ»
 006AC8 9203 5048      00048       41319                       SET   SVIB#IDLE           Server is now idle
 006ACC D703 5188 5188 00188 00188 41325                       CLEAR SVIBJCBP            Not owned by anyone now
                                   41332
 006AD2 1BFF                       41333                       CLEAR R15                 A-ok
 006AD4 18D8/9808 D004_            41337              SCLSEXIT PEND
 DROP   SVIB,R5
 DROP   *,R7
1QUERY    (QUER2193) (12:52) (15MAR04) Utility Subroutines                                                                  Page  128
0Current Usings:  (CP,R11) (CV,R12)
0Loc    Object Code    Addr1 Addr2  Stmt Lv Lineno    Source Statement           (Hibal 5, Asmedit 3.3)  HLASM R4.0  2004/03/15 12.52
+___    ______ ____    _____ _____  ____ __ ______    ______ _________
0                                  41363
                                   41364                       SEGDEF DUMMY              (Safety)
1QUERY    (QUER2193) (12:52) (15MAR04) Utility Subroutines                                                                  Page  129
0Current Usings:  (CP,R11) (CV,R12)
0Loc    Object Code    Addr1 Addr2  Stmt Lv Lineno    Source Statement           (Hibal 5, Asmedit 3.3)  HLASM R4.0  2004/03/15 12.52
+___    ______ ____    _____ _____  ____ __ ______    ______ _________
0                                  41366              ¿þþþþþþþþþþþþþþþþþþþþþþþþþþþþþþþþþþþþþþþþþþþþþþþþþþþþþþþþþþþþþþþþþþþþþÜ
                                   41367              Ÿ                                                                     Ÿ
                                   41368              Ÿ  SERVTRC -- Routine to queue a trace buffer for debugging           Ÿ
                                   41369              Ÿ    (if tracing or monitoring has been turned on).                   Ÿ
                                   41370              Ÿ                                                                     Ÿ
                                   41371              Ÿ    On entry:                                                        Ÿ
                                   41372              Ÿ      R15   - SVIB ptr                                               Ÿ
                                   41373              Ÿ      R1,R0 - trace data loc, len                                    Ÿ
                                   41374              Ÿ      R2    - address of 3 char trace type                           Ÿ
                                   41375              Ÿ                                                                     Ÿ
                                                      ¾þþþþþþþþþþþþþþþþþþþþþþþþþþþþþþþþþþþþþþþþþþþþþþþþþþþþþþþþþþþþþþþþþþþþþ»
0006AE2 50E0 D000/9008_      00000 41376              SERVTRC  XPROC
 USING  *,R7
 006AFC 185F                       41416                       LR    R5,R15
 USING  SVIB,R5                    41417                       WITH  (SVIB,R5)
 006AFE D503 71CC 5000_06CC8 00000 41430                       FAIL  (SVIB,NE,'SVIB'),SERVTRC,'Bad SVIB ptr'
                                   41459                       ¿þþþþþþþþþþþþþþþþþþþþþþþþþþþþþþþþþþþþþþþþþþþþþþþþþþþþþþþþþþþþþþþÜ
                                   41460                       Ÿ  Only save the buffer if tracing or monitoring is requested.  Ÿ
                                   41461                       ¾þþþþþþþþþþþþþþþþþþþþþþþþþþþþþþþþþþþþþþþþþþþþþþþþþþþþþþþþþþþþþþþ»
 006B20 910C 5049/4780_00049       41462                       IF    SVIBFTRC+SVIBFMON,BEGIN  Tracing/monitoring...
 006B28 5900 7250/47D0_      06D4C 41480  1                      CEIL  R0,STRCMXDL         Not too long now
                                   41499  1
 006B34 1841                       41500  1                      LR    R4,R1
 006B36 1830                       41501  1                      LR    R3,R0
                                   41502  1
 006B38 4A00 72AA            06DA6 41503  1                      AH    R0,=AL2(L'STRCHDR)
 006B3C 58E0 721C/0DEE       06D18 41504  1                      VCALL GETCORE             Get a new trace buffer
 006B42 1861                       41508  1                      LR    R6,R1
 USING  STRC,R6                    41509  1                      WITH  (STRC,R6)
 006B44 D71D 6000 6000 00000 00000 41522  1                      CLEAR STRCHDR
 006B4A D203 6000 7254 00000 06D50 41529  1                      MVC   STRC(4),=C'STRC'    Set self-identification
 006B50 58E0 7258/0DEE       06D54 41530  1                      VCALL LOCALTOD            Time stamp
 006B56 9001 6008            00008 41534  1                      STM   R0,R1,STRCCLCK
                                   41535  1
 006B5A D202 6019 2000 00019 00000 41536  1                      MVC   STRCTYPE,@R2        Save trace type
                                   41537  1
 006B60 D204 6014 7309 00014 06E05 41538  1                      MVC   STRCACCT,=C'?????'  Pre-set unknown account
 006B66 58F0 5188/12FF       00188 41539  1                      LT    R15,SVIBJCBP
 006B6C 4780 7080            06B7C 41543  1                      IF    NZ,BEGIN            A user is connected...
 USING  JCB,R15                    41554  2                        WITH  (JCB,R15)
 006B70 D201 6012 F048 00012 00048 41567  2                        MVC   STRCLNO,JCBSEQ      Milten line number
 006B76 D204 6014 F04A 00014 0004A 41568  2                        MVC   STRCACCT,JCBACCT    Save account
 DROP   JCB,R15                    41569  1                      END
                                   41578  1
 006B7C 5930 7250/47D0_      06D4C 41579  1                      CEIL  R3,STRCMXDL         Not too long now
 006B88 4030 601C            0001C 41598  1                      STH   R3,STRCDLEN         Save data length
 006B8C 41E0 601E/18F3_      0001E 41599  1                      MOVEL STRCDATA,(R4),(R3)  Save data
                                   41619  1
 006B98 9104 5049/47E0_00049       41620  1                      IF    SVIBFMON,'SET STRCFKEEP'  Must keep until displayed
1QUERY    (QUER2193) (12:52) (15MAR04) Utility Subroutines                                                                  Page  130
0Current Usings:  (SVIB,R5) (STRC,R6) (*,R7) (CP,R11) (CV,R12)
0Loc    Object Code    Addr1 Addr2  Stmt Lv Lineno    Source Statement           (Hibal 5, Asmedit 3.3)  HLASM R4.0  2004/03/15 12.52
+___    ______ ____    _____ _____  ____ __ ______    ______ _________
0                                  41646  1                      ¿þþþþþþþþþþþþþþþþþþþþþþþþþþþþþþþþþþþþþþþþþþþþþþþþþþÜ
                                   41647  1                      Ÿ  Link this trace entry to the end of the queue.  Ÿ
                                   41648  1                      ¾þþþþþþþþþþþþþþþþþþþþþþþþþþþþþþþþþþþþþþþþþþþþþþþþþþ»
 006BA4 5820 5164/1222       00164 41649  1                      LT    R2,SVIBTRCQT        Get last trace entry ptr
 006BAA 4770 70BA            06BB6 41653  1                      IF    Z,BEGIN             Empty trace table...
 006BAE 5060 5160            00160 41664  2                        ST    R6,SVIBTRCQH        We are the queue head
 006BB2 5060 5164            00164 41665  2                        ST    R6,SVIBTRCQT        And the queue tail
 006BB6                            41666  1                      END
                                   41670  1
 006BB6 70BE/47F0 70C6 06BB6 06BAC 41671  1                      ELSE  BEGIN               Add us to the end...
 006BBA 5060 2004            00004 41682  2                        ST    R6,STRCLINK-STRC(,R2)  Link us to last
 006BBE 5060 5164            00164 41683  2                        ST    R6,SVIBTRCQT        We are the new queue tail
 006BC2                            41684  1                      END
                                   41688  1
 006BC2 41F0 0001/5EF0_      00001 41689  1                      INCR  R15,SVIBNTRC        Keep count of number of entries
                                   41695  1                      ¿þþþþþþþþþþþþþþþþþþþþþþþþÜ
                                   41696  1                      Ÿ  Free oldest entries.  Ÿ
                                   41697  1                      ¾þþþþþþþþþþþþþþþþþþþþþþþþ»
 006BCE D503 725C 515C_06D58 0015C 41698  1                      WHILE (SVIBNTRC,GT,=A(SVIBTRC#)),BEGIN
 006BD8 5810 5160            00160 41717  2                        L     R1,SVIBTRCQH        Oldest STRC entry
 DROP   STRC,R6                    41718  2                        WITH  (STRC,R1)
 USING  STRC,R1
 006BDC 9140 1010/4710_00010       41739  2                        IF    STRCFKEEP,EXIT      We can't delete any more
 006BE4 41F0 5000            00000 41757  2                        LA    R15,SVIB
 006BE8 4DE0 75CE            070CA 41758  2                        LCALL FREESTRC            Free a trace entry
 006BEC 47F0 70D2            06BCE 41760  1                      END
 USING  STRC,R6
 DROP   STRC,R1
                                   41779  1                      ¿þþþþþþþþþþþþþþþþþþþþþþþþþþþþþþþþþþþþþþþþþþþþÜ
                                   41780  1                      Ÿ  Post user who is monitoring this server.  Ÿ
                                   41781  1                      ¾þþþþþþþþþþþþþþþþþþþþþþþþþþþþþþþþþþþþþþþþþþþþ»
 006BF0 5840 5174/1244_      00174 41782  1                      IF    ('LT R4,SVIBMJCB',NZ),BEGIN  Someone is monitoring...
 USING  JCB,R4                     41798  2                        WITH  (JCB,R4)
 006BFA 9110 4061/47E0_00061       41811  2                        IF    JCBWWFGEN,BEGIN     Waiting for our post...
 006C02 94EF 4061      00061       41826  3                          CLEAR JCBWWFGEN           Reset waiting
 006C06 9110 4062/4710_00062       41833  3                          IF    ~JCBAPDSP,'SETUP (R4)'  Start up the monitoring user
 006C24                            41879  2                        END
 DROP   JCB,R4                     41883  1                      END
 DROP   STRC,R6                    41892                       END
                                   41901
 006C24 18D8/9808 D004_            41902                       PEND
 DROP   SVIB,R5
 DROP   *,R7
                                   41927
                                   41928                       QLTORG
1QUERY    (QUER2193) (12:52) (15MAR04) Dispatcher Subroutines                                                               Page  131
0Current Usings:  (CP,R11) (CV,R12)
0Loc    Object Code    Addr1 Addr2  Stmt Lv Lineno    Source Statement           (Hibal 5, Asmedit 3.3)  HLASM R4.0  2004/03/15 12.52
+___    ______ ____    _____ _____  ____ __ ______    ______ _________
0                                  42003              ¿þþþþþþþþþþþþþþþþþþþþþþþþþþþþþþþþþþþþþþþþþþþþþþþþþþþþþþþþþþþþþþþþþþþþþÜ
                                   42004              Ÿ                                                                     Ÿ
                                   42005              Ÿ        The following routines can be called in dispatcher or        Ÿ
                                   42006              Ÿ        user mode.  As a result, no CP addressability can be         Ÿ
                                   42007              Ÿ        assumed.                                                     Ÿ
                                   42008              Ÿ                                                                     Ÿ
                                                      ¾þþþþþþþþþþþþþþþþþþþþþþþþþþþþþþþþþþþþþþþþþþþþþþþþþþþþþþþþþþþþþþþþþþþþþ»
0DROP   CP,R11                     42009                       DROP  CP                  No CP addressibility
-
0                                  42018              ¿þþþþþþþþþþþþþþþþþþþþþþþþþþþþþþþþþþþþþþþþþþþþþþþþþþþþþþþþþþþþþþþþþþþþþÜ
                                   42019              Ÿ                                                                     Ÿ
                                   42020              Ÿ  SERVPOST -- Routine to handle a noteworthy event on the network    Ÿ
                                   42021              Ÿ    connection for a server connection.  This routine is called      Ÿ
                                   42022              Ÿ    from NPAT in dispatcher mode.                                    Ÿ
                                   42023              Ÿ                                                                     Ÿ
                                   42024              Ÿ    On entry:                                                        Ÿ
                                   42025              Ÿ       R15 - SERV ptr                                                Ÿ
                                   42026              Ÿ                                                                     Ÿ
                                                      ¾þþþþþþþþþþþþþþþþþþþþþþþþþþþþþþþþþþþþþþþþþþþþþþþþþþþþþþþþþþþþþþþþþþþþþ»
0006E0A 50E0 D000/9008_      00000 42027              SERVPOST XPROC
 USING  *,R7
 006E24 186F                       42067                       LR    R6,R15
 USING  SVIB,R6                    42068                       WITH  (SVIB,R6)
 006E26 D503 73D4 6000_071F8 00000 42081                       FAIL  (SVIB,NE,'SVIB'),SERVPOST,'Bad SVIB ptr.'
 006E48 5850 618C            0018C 42110                       L     R5,SVIBUNET         UNET ptr
 USING  UNET,R5                    42111                       WITH  (UNET,R5)
 006E4C D503 73D8 5000_071FC 00000 42124                       FAIL  (UNET,NE,'UNET'),SERVPOST,'Bad UNET ptr.'
                                   42153                       ¿þþþþþþþþþþþþþþþþþþþþþþþþþþþþþþþþþþþþþþþþþþþþþþþþþþþþþþþÜ
                                   42154                       Ÿ  Get rid of a server which has died while no one was  Ÿ
                                   42155                       Ÿ    connected to it.                                   Ÿ
                                   42156                       ¾þþþþþþþþþþþþþþþþþþþþþþþþþþþþþþþþþþþþþþþþþþþþþþþþþþþþþþþ»
 006E6E 9503 6048/4770_00048       42157                       IF    SVIB#IDLE,BEGIN     Server is idle...
                                   42172  1         C            IF    (UNETFINEOF,OR,UNETFINABORT,OR,
 006E76 9104 5164/4710_00164              1                            (UNETSTATE,GE,UNETSFABORT)),BEGIN  Close...
 006E8E 41F0 6000            00000 42216  2                        LA    R15,SVIB
 006E92 58E0 73DC/0DEE       07200 42217  2                        ACALL SERVDEL             Delete the server
 006E98                            42221  1                      END
 006E98                            42225                       END
                                   42229
 006E98 18D8/9808 D004_            42230                       PEND
 DROP   UNET,R5
 DROP   SVIB,R6
 DROP   *,R7
1QUERY    (QUER2193) (12:52) (15MAR04) Dispatcher Common Routines                                                           Page  132
0Current Usings:  (CV,R12)
0Loc    Object Code    Addr1 Addr2  Stmt Lv Lineno    Source Statement           (Hibal 5, Asmedit 3.3)  HLASM R4.0  2004/03/15 12.52
+___    ______ ____    _____ _____  ____ __ ______    ______ _________
0                                  42261              ¿þþþþþþþþþþþþþþþþþþþþþþþþþþþþþþþþþþþþþþþþþþþþþþþþþþþþþþþþþþþþþþþþþþþþþÜ
                                   42262              Ÿ                                                                     Ÿ
                                   42263              Ÿ  SERVDEL -- Routine to free the SVIB control block.  This           Ÿ
                                   42264              Ÿ    also involves freeing control blocks currently attached          Ÿ
                                   42265              Ÿ    to the SVIB (e.g., UNET).                                        Ÿ
                                   42266              Ÿ                                                                     Ÿ
                                   42267              Ÿ    On entry:                                                        Ÿ
                                   42268              Ÿ      R15 - SVIB ptr                                                 Ÿ
                                   42269              Ÿ                                                                     Ÿ
                                                      ¾þþþþþþþþþþþþþþþþþþþþþþþþþþþþþþþþþþþþþþþþþþþþþþþþþþþþþþþþþþþþþþþþþþþþþ»
0006EA6 50E0 D000/9008_      00000 42270              SERVDEL  PROC
 USING  *,R7
 006EC0 185F                       42309                       LR    R5,R15
 USING  SVIB,R5                    42310                       WITH  (SVIB,R5)
 006EC2 D503 7338 5000_071F8 00000 42323                       FAIL  (SVIB,NE,'SVIB'),SERVDEL,'Bad SVIB ptr'
 006EE4 D603 5004 5004_00004 00004 42352                       FAIL  (SVIBNO,Z),SERVDEL,'SERVDEL SVIBNO error'
                                   42380
 006F06 5840 5004            00004 42381                       L     R4,SVIBNO           Server number
 006F0A 5940 7344/4750_      07204 42382                       IF    ((R4,GE,CVUSFNO),AND,(R4,LE,CVUSLNO)),BEGIN
 006F1A 5B40 7344            07204 42415  1                      S     R4,=A(CVUSFNO)      Entry index from SVIT start
 006F1E 8940 0002            00002 42416  1                      SLL   R4,2                Times 4 for byte index
 006F22 5A40 C21C            0021C 42417  1                      A     R4,CVUSTAB
 006F26                            42418                       END
                                   42422
 006F26 706A/706A/47F0_06F26 06F10 42423                       ELSEIF ((R4,GE,CVPSFNO),AND,(R4,LE,CVPSLNO)),BEGIN
 006F3A 5B40 734C            0720C 42467  1                      S     R4,=A(CVPSFNO)      Entry index from SVIT start
 006F3E 8940 0002            00002 42468  1                      SLL   R4,2                Times 4 for byte index
 006F42 5A40 C210            00210 42469  1                      A     R4,CVPSTAB
 006F46                            42470                       END
                                   42474
 006F46 708A/708A/47F0_06F46 06F30 42475                       ELSE  'KAPUT SIBFREE,"Bad SVIBNO value"'
                                   42500                       ¿þþþþþþþþþþþþþþþþþþþþþþþþþþþþþþþþþþþþÜ
                                   42501                       Ÿ  R4 now points to our SVIT entry.  Ÿ
                                   42502                       ¾þþþþþþþþþþþþþþþþþþþþþþþþþþþþþþþþþþþþ»
 006F62 58F0 4000            00000 42503                       L     R15,@R4             Get our SVIB ptr
 006F66 19F5/4780 70C4_            42504                       FAIL  (R15,NE,R5),SVITFREE,'Index table error'
                                   42531                       ¿þþþþþþþþþþþþþþþþþþþþþþþþþþþþþþþþþþþÜ
                                   42532                       Ÿ  Remove our entry from the SVIT.  Ÿ
                                   42533                       ¾þþþþþþþþþþþþþþþþþþþþþþþþþþþþþþþþþþþ»
 006F84 D703 4000 4000 00000 00000 42534                       CLEAR (@R4,4)             Remove ourselves from the list
                                   42541                       ¿þþþþþþþþþþþþþþþþþþþþþþþþþþþþÜ
                                   42542                       Ÿ  Free any buffered lines.  Ÿ
                                   42543                       ¾þþþþþþþþþþþþþþþþþþþþþþþþþþþþ»
 006F8A 41F0 5000            00000 42544                       LA    R15,SVIB
 006F8E 58E0 7354/0DEE       07214 42545                       ACALL SERVFBUF            Free buffered lines
                                   42549                       ¿þþþþþþþþþþþþþþþþþþþþþþþþþÜ
                                   42550                       Ÿ  Free the trace table.  Ÿ
                                   42551                       ¾þþþþþþþþþþþþþþþþþþþþþþþþþ»
 006F94 5810 5160/1211_      00160 42552                       WHILE ('LT R1,SVIBTRCQH',NZ),BEGIN  Free trace entries...
 006F9E 41F0 5000            00000 42570  1                      LA    R15,SVIB
 006FA2 58E0 7358/0DEE       07218 42571  1                      ACALL FREESTRC            Free this entry
 006FA8 47F0 70D4            06F94 42575                       END
                                   42580
1QUERY    (QUER2193) (12:52) (15MAR04) Dispatcher Common Routines                                                           Page  133
0Current Usings:  (SVIB,R5) (*,R7) (CV,R12)
0Loc    Object Code    Addr1 Addr2  Stmt Lv Lineno    Source Statement           (Hibal 5, Asmedit 3.3)  HLASM R4.0  2004/03/15 12.52
+___    ______ ____    _____ _____  ____ __ ______    ______ _________
0006FAC 94F7 5049      00049       42581                       CLEAR SVIBFTRC            Reset trace option
                                   42588                       ¿þþþþþþþþþþþþþþþþþþþþþþþþþþþþþþþþþþþþþÜ
                                   42589                       Ÿ  Reset the monitoring information.  Ÿ
                                   42590                       ¾þþþþþþþþþþþþþþþþþþþþþþþþþþþþþþþþþþþþþ»
 006FB0 5840 5174/1244_      00174 42591                       IF    ('LT R4,SVIBMJCB',NZ),BEGIN  Someone is monitoring...
 USING  JCB,R4                     42607  1                      WITH  (JCB,R4)
 006FBA 9110 4061/47E0_00061       42620  1                      IF    JCBWWFGEN,BEGIN     Waiting for our post...
 006FC2 94EF 4061      00061       42635  2                        CLEAR JCBWWFGEN           Reset waiting
 006FC6 9110 4062/4710_00062       42642  2                        IF    ~JCBAPDSP,'SETUP (R4)'  Start up the monitoring user
 006FE4                            42688  1                      END
                                   42692  1
 006FE4 D703 5174 5174 00174 00174 42693  1                      CLEAR SVIBMJCB            Reset trace monitor info
 DROP   JCB,R4                     42700                       END
                                   42709                       ¿þþþþþþþþþþþþþþÜ
                                   42710                       Ÿ  Free SVIB.  Ÿ
                                   42711                       ¾þþþþþþþþþþþþþþ»
 006FEA D203 5000 7360 00000 07220 42712                       MVC   SVIB(4),=C'OSVB'
                                   42713
 006FF0 5840 518C/1244       0018C 42714                       LT    R4,SVIBUNET
 006FF6 4780 715E            0701E 42718                       IF    NZ,BEGIN            Network path is allocated...
 USING  UNET,R4                    42729  1                      WITH  (UNET,R4)
 006FFA D703 4024 4024 00024 00024 42742  1                      CLEAR UNETSVIB            Not a server connection now
 007000 D703 518C 518C 0018C 0018C 42749  1                      CLEAR SVIBUNET            No network connection now
                                   42756  1
 007006 4110 737C            0723C 42757  1                      LA    R1,=C'EOF'
 00700A 41F0 4000            00000 42758  1                      LA    R15,UNET
 00700E 58E0 7364/0DEE       07224 42759  1                      VCALL NPATCTRL            Send normal EOF
                                   42763  1
 007014 41F0 4000            00000 42764  1                      LA    R15,UNET
 007018 58E0 7368/0DEE       07228 42765  1                      VCALL NPATCLS             Close network path
 DROP   UNET,R4                    42769                       END
                                   42778
 00701E 4110 5000            00000 42779                       LA    R1,SVIB
 007022 58E0 736C/0DEE       0722C 42780                       VCALL FREECORE            Free SVIB storage
                                   42784
 007028 1BFF                       42785                       CLEAR R15                 (Neatness)
 00702A 18D8/9808 D004_            42789                       PEND
 DROP   SVIB,R5
 DROP   *,R7
1QUERY    (QUER2193) (12:52) (15MAR04) Dispatcher Common Routines                                                           Page  134
0Current Usings:  (CV,R12)
0Loc    Object Code    Addr1 Addr2  Stmt Lv Lineno    Source Statement           (Hibal 5, Asmedit 3.3)  HLASM R4.0  2004/03/15 12.52
+___    ______ ____    _____ _____  ____ __ ______    ______ _________
0                                  42815              ¿þþþþþþþþþþþþþþþþþþþþþþþþþþþþþþþþþþþþþþþþþþþþþþþþþþþþþþþþþþþþþþþþþþþþþÜ
                                   42816              Ÿ                                                                     Ÿ
                                   42817              Ÿ  SERVFBUF -- Routine to free buffered lines and field descriptor    Ÿ
                                   42818              Ÿ    map (see FDEMAP dsect).                                          Ÿ
                                   42819              Ÿ                                                                     Ÿ
                                   42820              Ÿ    On entry:                                                        Ÿ
                                   42821              Ÿ      R15 - SVIB ptr                                                 Ÿ
                                   42822              Ÿ                                                                     Ÿ
                                                      ¾þþþþþþþþþþþþþþþþþþþþþþþþþþþþþþþþþþþþþþþþþþþþþþþþþþþþþþþþþþþþþþþþþþþþþ»
0007038 50E0 D000/9008_      00000 42823              SERVFBUF PROC
 USING  *,R7
 007052 185F                       42862                       LR    R5,R15
 USING  SVIB,R5                    42863                       WITH  (SVIB,R5)
 007054 D503 71A6 5000_071F8 00000 42876                       FAIL  (SVIB,NE,'SVIB'),SERVFBUF,'Bad SVIB ptr'
                                   42905                       ¿þþþþþþþþþþþþþþþþþþþþþþþþþþþþþþÜ
                                   42906                       Ÿ  Free field descriptor map.  Ÿ
                                   42907                       ¾þþþþþþþþþþþþþþþþþþþþþþþþþþþþþþ»
 007076 5810 5190/1211_      00190 42908                       IF    ('LT R1,SVIBFMAP',NZ),BEGIN  Free FDEMAP...
 007080 D703 5190 5190 00190 00190 42924  1                      CLEAR SVIBFMAP            Reset FDEMAP ptr
 007086 58E0 71DA/0DEE       0722C 42931  1                      VCALL FREECORE            Release FDEMAP
 00708C                            42935                       END
                                   42939                       ¿þþþþþþþþþþþþþþþþþþþþþþþþþþþþþþÜ
                                   42940                       Ÿ  Free buffered input lines.  Ÿ
                                   42941                       ¾þþþþþþþþþþþþþþþþþþþþþþþþþþþþþþ»
 00708C 5820 5198/1222_      00198 42942                       WHILE ('LT R2,SVIBINQH',NZ),BEGIN  Free input lines...
 USING  INENTRY,R2                 42960  1                      WITH  (INENTRY,R2)
 007096 58F0 2000            00000 42973  1                      L     R15,INLINK
 00709A 50F0 5198            00198 42974  1                      ST    R15,SVIBINQH        Save new queue head
 00709E 12FF/4770 7056_            42975  1                      IF    (R15,Z),'ST R15,SVIBINQT'  Zero queue tail too
                                   42995  1
 0070A8 4110 2000            00000 42996  1                      LA    R1,INENTRY
 0070AC 58E0 71DA/0DEE       0722C 42997  1                      VCALL FREECORE            Release INENTRY
 0070B2 47F0 703A            0708C 43001                       END
 DROP   INENTRY,R2
                                   43011
 0070B6 D703 5194 5194 00194 00194 43012                       CLEAR SVIBINCT            Reset queued entry count
 0070BC 18D8/9808 D004_            43019                       PEND
 DROP   SVIB,R5
 DROP   *,R7
1QUERY    (QUER2193) (12:52) (15MAR04) Dispatcher Common Routines                                                           Page  135
0Current Usings:  (CV,R12)
0Loc    Object Code    Addr1 Addr2  Stmt Lv Lineno    Source Statement           (Hibal 5, Asmedit 3.3)  HLASM R4.0  2004/03/15 12.52
+___    ______ ____    _____ _____  ____ __ ______    ______ _________
0                                  43045              ¿þþþþþþþþþþþþþþþþþþþþþþþþþþþþþþþþþþþþþþþþþþþþþþþþþþþþþþþþþþþþþþþþþþþþþÜ
                                   43046              Ÿ                                                                     Ÿ
                                   43047              Ÿ  FREESTRC -- Routine to free a trace entry.                         Ÿ
                                   43048              Ÿ                                                                     Ÿ
                                   43049              Ÿ    On entry:                                                        Ÿ
                                   43050              Ÿ      R15 - SVIB ptr                                                 Ÿ
                                   43051              Ÿ      R1  - STRC ptr of entry to free                                Ÿ
                                   43052              Ÿ                                                                     Ÿ
                                   43053              Ÿ    On exit, R15 (and cc):                                           Ÿ
                                   43054              Ÿ      0 - no entries left in trace queue                             Ÿ
                                   43055              Ÿ      nz- there are still entries in the trace queue                 Ÿ
                                   43056              Ÿ                                                                     Ÿ
                                                      ¾þþþþþþþþþþþþþþþþþþþþþþþþþþþþþþþþþþþþþþþþþþþþþþþþþþþþþþþþþþþþþþþþþþþþþ»
00070CA 50E0 D000/9008_      00000 43057              FREESTRC PROC
 USING  *,R7
 0070E4 185F                       43096                       LR    R5,R15
 USING  SVIB,R5                    43097                       WITH  (SVIB,R5)
 0070E6 D503 7114 5000_071F8 00000 43110                       FAIL  (SVIB,NE,'SVIB'),FREESTRC,'Bad SVIB ptr'
                                   43139
 007108 1861                       43140                       LR    R6,R1               STRC ptr
 00710A 1266/4770 7032_            43141                       IF    (R6,Z),'CLEAR R15; EXIT FREESTRC'  Nothing left
                                   43167                       ¿þþþþþþþþþþþþþþþþþþþþþþþþþþþþþþþþþþþþþþþþþþþþþþþþþþþþþþþþþþþþþÜ
                                   43168                       Ÿ  Find the previous STRC entry so we can unlink this entry.  Ÿ
                                   43169                       ¾þþþþþþþþþþþþþþþþþþþþþþþþþþþþþþþþþþþþþþþþþþþþþþþþþþþþþþþþþþþþþ»
 007116 1B44                       43170                       CLEAR R4                  Previous entry ptr
                                   43174
 007118 4130 515C            0015C 43175                       LA    R3,SVIBTRCQH-(STRCLINK-STRC)  Dummy queue head
 USING  STRC,R3                    43176                       WITH  (STRC,R3),BEGIN
 00711C 5830 3004/1233_      00004 43190  1                      WHILE ('LT R3,STRCLINK',NZ),BEGIN  Go through entries...
                                   43208  2
 007126 1936/4780 7066             43209  2                        IF    (R3,EQ,R6),FSTRCOM  Matched the entry, scram
                                   43227  2
 00712C 1843                       43228  2                        LR    R4,R3               Save previous entry ptr
 00712E 47F0 7038            0711C 43229  1                      END
 DROP   STRC,R3                    43234                       END
                                   43242
 007132 900F C780/4DE0_      00780 43243                       KAPUT STRCERR2,'Free STRC logic error.'
                                   43250                       ¿þþþþþþþþþþþþþþþþþþþþþþþþþþþÜ
                                   43251                       Ÿ  Dequeue our STRC entry.  Ÿ
                                   43252                       ¾þþþþþþþþþþþþþþþþþþþþþþþþþþþ»
 00714A 1244/4770 7082             43253              FSTRCOM  IF    (R4,Z),BEGIN        We are removing the 1st entry...
 007150 D203 5160 6004 00160 00004 43268  1                      MVC   SVIBTRCQH,STRCLINK-STRC(R6)  Set new queue head
 007156 D603 5160 5160_00160 00160 43269  1                      IF    (SVIBTRCQH,Z),'CLEAR SVIBTRCQT'  Nothing on queue
 007166                            43297                       END
                                   43301
 007166 7086/47F0 70BC 07166 0714E 43302                       ELSE  BEGIN               Dequeue...
 USING  STRC,R4                    43313  1                      WITH  (STRC,R4)
 00716A D503 714C 4000_07230 00000 43326  1                      FAIL  (STRC,NE,'STRC'),STRCERR3,'Free STRC logic error.'
 00718C D203 4004 6004 00004 00004 43355  1                      MVC   STRCLINK,STRCLINK-STRC(R6)  Dequeue our entry
 007192 D603 4004 4004_00004 00004 43356  1                      IF    (STRCLINK,Z),'ST R4,SVIBTRCQT'  Update queue tail
 DROP   STRC,R4                    43378                       END
1QUERY    (QUER2193) (12:52) (15MAR04) Dispatcher Common Routines                                                           Page  136
0Current Usings:  (SVIB,R5) (*,R7) (CV,R12)
0Loc    Object Code    Addr1 Addr2  Stmt Lv Lineno    Source Statement           (Hibal 5, Asmedit 3.3)  HLASM R4.0  2004/03/15 12.52
+___    ______ ____    _____ _____  ____ __ ______    ______ _________
0                                  43387                       ¿þþþþþþþþþþþþþþþþþþþþþþþþÜ
                                   43388                       Ÿ  Free the STRC entry.  Ÿ
                                   43389                       ¾þþþþþþþþþþþþþþþþþþþþþþþþ»
 USING  STRC,R6                    43390                       WITH  (STRC,R6),BEGIN
 0071A0 D503 714C 6000_07230 00000 43404  1                      FAIL  (STRC,NE,'STRC'),STRCERR4,'Free STRC logic error.'
 0071C2 D203 6000 7150 00000 07234 43433  1                      MVC   STRC(4),=C'OTRC'    Neatness
 0071C8 D203 6004 7154 00004 07238 43434  1                      MVC   STRCLINK,=F'-1'     (Ditto)
                                   43435  1
 0071CE 4110 6000            00000 43436  1                      LA    R1,STRC
 0071D2 58E0 7148/0DEE       0722C 43437  1                      VCALL FREECORE            Free trace entry
                                   43441  1
 0071D8 58F0 515C/06F0_      0015C 43442  1                      DECR  R15,SVIBNTRC        Decrement number of trace entries
 DROP   STRC,R6                    43447                       END
                                   43455
 0071E2 58F0 5160/12FF       00160 43456                       LT    R15,SVIBTRCQH       Set CC for caller
 0071E8 18D8/9808 D004_            43460                       PEND
 DROP   SVIB,R5
 DROP   *,R7
                                   43485
                                   43486                       QLTORG
                                   43516
                                   43517                       VLTORG
 007368                07368 07368 43542                       END   .

1QUERY    (QUER2193) (12:52) (15MAR04) Relocation Dictionary                                                                Page  137
-   Pos.Id   Rel.Id   Flags    Address                                                       HLASM R4.0  2004/03/15 12.52
0  00000001 00000001    08    0000056F
   00000001 00000001    0C    000006E0
   00000001 00000001    0C    00000708
   00000001 00000001    0C    00000730
   00000001 00000001    0C    00000758
   00000001 00000001    0C    00000780
   00000001 00000001    0C    000007A8
   00000001 00000001    0C    000007D0
   00000001 00000001    0C    000007F8
   00000001 00000001    0C    00000820
   00000001 00000001    0C    00000848
   00000001 00000001    0C    00000870
   00000001 00000001    0C    00000898
   00000001 00000001    0C    000008C0
   00000001 00000001    0C    000008E8
   00000001 00000001    0C    00000910
   00000001 00000001    0C    00000938
   00000001 00000001    0C    00000960
   00000001 00000001    0C    00000CAC
   00000001 00000001    0C    00000CB4
   00000001 00000001    0C    00000CC0
   00000001 00000001    0C    00000CC4
   00000001 00000001    0C    00000CC8
   00000001 00000001    0C    00000CCC
   00000001 00000001    0C    00000CD0
   00000001 00000001    0C    00000CD8
   00000001 00000001    0C    00000CE0
   00000001 00000001    0C    00000CE4
   00000001 00000001    0C    00000CEC
   00000001 00000001    0C    00000CF4
   00000001 00000001    0C    00001084
   00000001 00000001    0C    000010AC
   00000001 00000001    0C    000010D4
   00000001 00000001    0C    000010FC
   00000001 00000001    0C    00001124
   00000001 00000001    0C    00001390
   00000001 00000001    0C    00001398
   00000001 00000001    0C    0000139C
   00000001 00000001    0C    000013C0
   00000001 00000001    0C    00001950
   00000001 00000001    0C    00001954
   00000001 00000001    0C    0000195C
   00000001 00000001    0C    00001960
   00000001 00000001    0C    0000196C
   00000001 00000001    0C    00001970
   00000001 00000001    0C    00001974
   00000001 00000001    0C    00001978
   00000001 00000001    0C    000024F4
   00000001 00000001    0C    000026A8
   00000001 00000001    0C    000026B0
   00000001 00000001    0C    000026D0
   00000001 00000001    0C    000026D4
   00000001 00000001    0C    000026D8
   00000001 00000001    0C    000026DC
   00000001 00000001    0C    000026E0
1QUERY    (QUER2193) (12:52) (15MAR04) Relocation Dictionary                                                                Page  138
   00000001 00000001    0C    000026E4
   00000001 00000001    0C    00002704
   00000001 00000001    0C    00002740
   00000001 00000001    0C    00002748
   00000001 00000001    0C    00002758
   00000001 00000001    0C    0000275C
   00000001 00000001    0C    00002764
   00000001 00000001    0C    00002774
   00000001 00000001    0C    0000278C
   00000001 00000001    0C    00002C58
   00000001 00000001    0C    00002C80
   00000001 00000001    0C    00002CA8
   00000001 00000001    0C    00002CD0
   00000001 00000001    0C    00002CF8
   00000001 00000001    0C    00002D20
   00000001 00000001    0C    00002D48
   00000001 00000001    0C    00003080
   00000001 00000001    0C    00003084
   00000001 00000001    0C    0000309C
   00000001 00000001    0C    000030A4
   00000001 00000001    0C    000030B0
   00000001 00000001    0C    000030D0
   00000001 00000001    0C    00003844
   00000001 00000001    0C    000039E8
   00000001 00000001    0C    000039F0
   00000001 00000001    0C    00003A00
   00000001 00000001    0C    00003A14
   00000001 00000001    0C    00003A18
   00000001 00000001    0C    00003A1C
   00000001 00000001    0C    00003A20
   00000001 00000001    0C    00003A24
   00000001 00000001    0C    00003A34
   00000001 00000001    0C    00003A5C
   00000001 00000001    0C    00003A60
   00000001 00000001    08    00003DD3
   00000001 00000001    0C    00004068
   00000001 00000001    0C    0000408C
   00000001 00000001    0C    000044AC
   00000001 00000001    0C    000044B4
   00000001 00000001    08    000045AB
   00000001 00000001    08    000049DB
   00000001 00000001    08    00004D2B
   00000001 00000001    08    00004D4B
   00000001 00000001    08    00005317
   00000001 00000001    08    00005385
   00000001 00000001    08    000053A7
   00000001 00000001    08    000053F7
   00000001 00000001    08    00005921
   00000001 00000001    0C    000059EC
   00000001 00000001    0C    000059F0
   00000001 00000001    0C    000059F4
   00000001 00000001    0C    00005A4C
   00000001 00000001    0C    00005A5C
   00000001 00000001    0C    00005A68
   00000001 00000001    08    00005B9B
   00000001 00000001    0C    00005C5C
   00000001 00000001    0C    00005C60
   00000001 00000001    08    00005CB5
   00000001 00000001    08    00005DE3
1QUERY    (QUER2193) (12:52) (15MAR04) Relocation Dictionary                                                                Page  139
   00000001 00000001    0C    00005F94
   00000001 00000001    0C    00005FA0
   00000001 00000001    0C    00005FB4
   00000001 00000001    0C    00005FB8
   00000001 00000001    0C    00005FBC
   00000001 00000001    08    00006025
   00000001 00000001    08    0000604B
   00000001 00000001    08    00006119
   00000001 00000001    08    0000659F
   00000001 00000001    08    00006723
   00000001 00000001    08    000068CF
   00000001 00000001    08    000068EF
   00000001 00000001    08    00006911
   00000001 00000001    08    00006947
   00000001 00000001    08    00006B1D
   00000001 00000001    0C    00006CF0
   00000001 00000001    0C    00006CF8
   00000001 00000001    0C    00006D14
   00000001 00000001    0C    00006D1C
   00000001 00000001    0C    00006D34
   00000001 00000001    0C    00006D3C
   00000001 00000001    0C    00006D44
   00000001 00000001    08    00006E45
   00000001 00000001    08    00006E6B
   00000001 00000001    08    00006EE1
   00000001 00000001    08    00006F03
   00000001 00000001    08    00006F5F
   00000001 00000001    08    00006F81
   00000001 00000001    08    00007073
   00000001 00000001    08    00007105
   00000001 00000001    08    00007147
   00000001 00000001    08    00007189
   00000001 00000001    08    000071BF
   00000001 00000001    0C    00007200
   00000001 00000001    0C    00007214
   00000001 00000001    0C    00007218
   00000001 00000002    1C    000006DC
   00000001 00000002    1C    00000704
   00000001 00000002    1C    00000754
   00000001 00000002    1C    0000077C
   00000001 00000002    1C    00001080
   00000001 00000002    1C    000024F0
   00000001 00000003    1C    0000072C
   00000001 00000003    1C    0000081C
   00000001 00000003    1C    00002CCC
   00000001 00000004    1C    000007A4
   00000001 00000004    1C    000007CC
   00000001 00000004    1C    000007F4
   00000001 00000004    1C    00000844
   00000001 00000004    1C    0000086C
   00000001 00000004    1C    00000894
   00000001 00000004    1C    000008BC
   00000001 00000004    1C    000008E4
   00000001 00000004    1C    0000090C
   00000001 00000004    1C    00000934
   00000001 00000004    1C    0000095C
   00000001 00000004    1C    000010A8
   00000001 00000004    1C    000010D0
   00000001 00000004    1C    000010F8
1QUERY    (QUER2193) (12:52) (15MAR04) Relocation Dictionary                                                                Page  140
   00000001 00000004    1C    000024A0
   00000001 00000004    1C    00002C54
   00000001 00000004    1C    00002C7C
   00000001 00000004    1C    00002CA4
   00000001 00000004    1C    00002CF4
   00000001 00000004    1C    00003840
   00000001 00000005    1C    00000984
   00000001 00000005    1C    00001170
   00000001 00000005    1C    00001F9C
   00000001 00000005    1C    00002568
   00000001 00000005    1C    00002D94
   00000001 00000005    1C    00003460
   00000001 00000005    1C    00003868
   00000001 00000006    1C    00000988
   00000001 00000006    1C    00001174
   00000001 00000006    1C    00001FA0
   00000001 00000006    1C    0000256C
   00000001 00000006    1C    00002D98
   00000001 00000006    1C    00003464
   00000001 00000006    1C    0000386C
   00000001 00000007    1C    00000CB8
   00000001 00000007    1C    00001394
   00000001 00000007    1C    00001940
   00000001 00000007    1C    000026E8
   00000001 00000007    1C    00003088
   00000001 00000007    1C    00003A04
   00000001 00000007    1C    00004084
   00000001 00000007    1C    00004498
   00000001 00000008    1C    00000CBC
   00000001 00000008    1C    00001944
   00000001 00000008    1C    000026EC
   00000001 00000008    1C    0000308C
   00000001 00000008    1C    00003A08
   00000001 00000008    1C    00004088
   00000001 00000008    1C    0000449C
   00000001 00000009    1C    00000CD4
   00000001 00000009    1C    000013B4
   00000001 00000009    1C    0000194C
   00000001 00000009    1C    000026FC
   00000001 00000009    1C    000030A8
   00000001 00000009    1C    000039F4
   00000001 00000009    1C    00003CF0
   00000001 00000009    1C    00004064
   00000001 00000009    1C    000044A8
   00000001 00000009    1C    00004BA4
   00000001 00000009    1C    00005A10
   00000001 00000009    1C    00005C68
   00000001 00000009    1C    00005F9C
   00000001 00000009    1C    00006CE8
   00000001 0000000A    1C    00000CE8
   00000001 0000000A    1C    000013BC
   00000001 0000000A    1C    0000197C
   00000001 0000000A    1C    00002708
   00000001 0000000A    1C    000030AC
   00000001 0000000A    1C    00003A0C
   00000001 0000000A    1C    0000406C
   00000001 0000000A    1C    00004BB4
   00000001 0000000A    1C    00005A20
   00000001 0000000A    1C    00005C6C
1QUERY    (QUER2193) (12:52) (15MAR04) Relocation Dictionary                                                                Page  141
   00000001 0000000A    1C    00005F8C
   00000001 0000000A    1C    00006CF4
   00000001 0000000B    1C    00000CF8
   00000001 0000000C    1C    00001120
   00000001 0000000D    1C    0000114C
   00000001 0000000D    1C    00002544
   00000001 0000000E    1C    000013B8
   00000001 0000000F    1C    000013C4
   00000001 0000000F    1C    00001958
   00000001 0000000F    1C    000026F4
   00000001 0000000F    1C    000030B8
   00000001 0000000F    1C    000039F8
   00000001 0000000F    1C    000044B0
   00000001 0000000F    1C    00004BA8
   00000001 0000000F    1C    00005A18
   00000001 0000000F    1C    00006D2C
   00000001 00000010    1C    00001964
   00000001 00000010    1C    000026F8
   00000001 00000010    1C    000039FC
   00000001 00000010    1C    000044C8
   00000001 00000010    1C    00004BAC
   00000001 00000010    1C    00005A1C
   00000001 00000011    1C    00001968
   00000001 00000011    1C    00002744
   00000001 00000011    1C    000030B4
   00000001 00000011    1C    00006D00
   00000001 00000012    1C    000019AC
   00000001 00000012    1C    00002738
   00000001 00000012    1C    00003A10
   00000001 00000012    1C    00005A40
   00000001 00000012    1C    00005C70
   00000001 00000012    1C    00005F90
   00000001 00000012    1C    00006CEC
   00000001 00000013    1C    000019B0
   00000001 00000013    1C    0000273C
   00000001 00000013    1C    00005A48
   00000001 00000014    1C    000024A4
   00000001 00000015    1C    000024CC
   00000001 00000016    1C    0000251C
   00000001 00000017    1C    000026AC
   00000001 00000018    1C    00002700
   00000001 00000018    1C    00003A28
   00000001 00000018    1C    00004ECC
   00000001 00000018    1C    00006D18
   00000001 00000019    1C    0000274C
   00000001 0000001A    1C    00002750
   00000001 0000001B    1C    00002754
   00000001 0000001C    1C    00002768
   00000001 0000001D    1C    0000276C
   00000001 0000001E    1C    00002778
   00000001 0000001F    1C    00002788
   00000001 0000001F    1C    00004080
   00000001 0000001F    1C    000044A0
   00000001 00000020    1C    00002D1C
   00000001 00000021    1C    00002D44
   00000001 00000022    1C    00002D70
   00000001 00000023    1C    00003090
   00000001 00000024    1C    00003094
   00000001 00000025    1C    00003098
1QUERY    (QUER2193) (12:52) (15MAR04) Relocation Dictionary                                                                Page  142
   00000001 00000026    1C    000030A0
   00000001 00000027    1C    000030C4
   00000001 00000028    1C    000030CC
   00000001 00000029    1C    000039EC
   00000001 00000029    1C    000059E8
   00000001 00000029    1C    00005FA8
   00000001 00000029    1C    0000722C
   00000001 0000002A    1C    00003A2C
   00000001 0000002B    1C    00003A30
   00000001 0000002C    1C    00003A80
   00000001 0000002D    1C    00003CF4
   00000001 0000002E    1C    00004070
   00000001 0000002F    1C    00004074
   00000001 00000030    1C    00004BB0
   00000001 00000031    1C    00004BD8
   00000001 00000031    1C    00005A28
   00000001 00000032    1C    00004BDC
   00000001 00000032    1C    00005A2C
   00000001 00000033    1C    00004BE8
   00000001 00000034    1C    00005A24
   00000001 00000034    1C    00006D54
   00000001 00000035    1C    00005A3C
   00000001 00000036    1C    00005A54
   00000001 00000037    1C    00005A58
   00000001 00000038    1C    00005A60
   00000001 00000038    1C    00006D5C
   00000001 00000038    1C    0000721C
   00000001 00000039    1C    00005A64
   00000001 0000003A    1C    00005A74
   00000001 0000003A    1C    00006D48
   00000001 0000003B    1C    00005A78
   00000001 0000003B    1C    00006D38
   00000001 0000003B    1C    00007228
   00000001 0000003C    1C    00005FAC
   00000001 0000003C    1C    00006CD0
   00000001 0000003D    1C    00007224

1QUERY    (QUER2193) (12:52) (15MAR04) Ordinary Symbol and Literal Cross Reference                                          Page  143
-Symbol   Length   Value     Id    R Type   Defn References                                  HLASM R4.0  2004/03/15 12.52
0$$$@R0        1 00000000 FFFFFFFE     J     705  1034
 $$$@R10       1 00000000 FFFFFFF4     J     835  1098
 $$$@R11       1 00000000 FFFFFFF3     J     848  1111
 $$$@R12       1 00000000 FFFFFFF2     J     861  1124
 $$$@R13       1 00000000 FFFFFFF1     J     874  1137
 $$$@R14       1 00000000 FFFFFFF0     J     887  1150
 $$$@R7        1 00000000 FFFFFFF7     J     796  1047
 $$$@R8        1 00000000 FFFFFFF6     J     809  1060   1072
 $$$@R9        1 00000000 FFFFFFF5     J     822  1085
 $$$C1WYLQUERY
               1 00000EB0 00000001     J   12531 12533  12587  13625  13661  13806
 $$$C10WYLQUERY
               1 00004CE2 00000001     J   30872 30874  30923
 $$$C11WYLQUERY
               1 00004EF1 00000001     J   31510 31512  32136  33885
 $$$C12WYLQUERY
               1 00005B60 00000001     J   35403 35405  35438
 $$$C13WYLQUERY
               1 00005C7A 00000001     J   35842 35844  36332
 $$$C14WYLQUERY
               1 00005FEA 00000001     J   37119 37121  37500  39111  40110
 $$$C15WYLQUERY
               1 00006E0A 00000001     J   41997 41999
 $$$C16WYLQUERY
               1 0000723F 00000001     J   43511 43513
 $$$C17WYLQUERY
               1 00007368 00000001     J   43545 43547
 $$$C2WYLQUERY
               1 0000141A 00000001     J   14269 14271  14319
 $$$C3WYLQUERY
               1 00001AE8 00000001     J   15825 15827  15875  16329  16435  17926
 $$$C4WYLQUERY
               1 000028DA 00000001     J   19375 19377  19518
 $$$C5WYLQUERY
               1 0000315E 00000001     J   21934 21936  21961  22318  22951
 $$$C6WYLQUERY
               1 00003B74 00000001     J   25045 25047  25079
 $$$C7WYLQUERY
               1 00003CFE 00000001     J   25725 25727  25981  26795
 $$$C8WYLQUERY
               1 00004150 00000001     J   27074 27076
 $$$C9WYLQUERY
               1 0000456F 00000001     J   28352 28354  28382  30248  30660  30681
 $$$D0WYLQUERY
               1 00000E98 00000001     J    1009 11150  11295  11519  11664
 $$$D1WYLQUERY
               1 0000140D 00000001     J   12532 13614  13650
 $$$D11WYLQUERY
               1 00005B5A 00000001     J   31511 33874
 $$$D3WYLQUERY
               1 000028D3 00000001     J   15826 16318
 $$$D7WYLQUERY
               1 00004149 00000001     J   25726 26784
 $$$D9WYLQUERY
               1 00004CD6 00000001     J   28353 30649  30670
1QUERY    (QUER2193) (12:52) (15MAR04) Ordinary Symbol and Literal Cross Reference                                          Page  144
 $$$RALLOWA
               1 00000000 FFFFFFCD     J   30892 30922  30922
 $$$RCP        1 00000000 FFFFFFEC     J    2468  4728   6202   6202
 $$$RCV        1 00000000 FFFFFFEE     J    1193  2378   2378
 $$$RDEV       1 00000000 FFFFFFEB     J    4682  4727   4727
 $$$RDSWA      1 00000000 FFFFFFDA     J   13787 13805  13805
 $$$RFDE       1 00000000 FFFFFFE3     J    7852  7903   7903
 $$$RFDEMAP
               1 00000000 FFFFFFE2     J    7909  7923   7923
 $$$RFMAPWA
               1 00000000 FFFFFFC8     J   39097 39110  39110
 $$$RINENTRY
               1 00000000 FFFFFFE1     J    7932  7948   7948
 $$$RJCB       1 00000000 FFFFFFE9     J    6320  6594   6594
 $$$RKWR       1 00000000 FFFFFFE8     J    6600  6805   6805
 $$$RNSCNCB
               1 00000000 FFFFFFED     J    2389  2462   2462
 $$$ROPENWA
               1 00000000 FFFFFFCC     J   32115 32135  32135
 $$$RQCLWA
               1 00000000 FFFFFFD4     J   21946 21960  21960
 $$$RQFCWA
               1 00000000 FFFFFFD8     J   15850 15874  15874
 $$$RQFETWA
               1 00000000 FFFFFFD5     J   19387 19517  19517
 $$$RQINFO
               1 00000000 FFFFFFDF     J    8012  8026   8026
 $$$RQMONWA
               1 00000000 FFFFFFD2     J   22921 22950  22950
 $$$RQMW       1 00000000 FFFFFFDD     J    8248  8264   8264
 $$$RQOWA      1 00000000 FFFFFFD7     J   16421 16434  16434
 $$$RQRESWA
               1 00000000 FFFFFFD3     J   22304 22317  22317
 $$$RQRWA      1 00000000 FFFFFFD6     J   17908 17925  17925
 $$$RQWA       1 00000000 FFFFFFD9     J   14281 14318  14318
 $$$RREADWA
               1 00000000 FFFFFFC7     J   40095 40109  40109
 $$$RSCWA      1 00000000 FFFFFFD0     J   25967 25980  25980
 $$$RSDSWA
               1 00000000 FFFFFFCF     J   28368 28381  28381
 $$$RSEGCB
               1 00000000 FFFFFFE5     J    7422  7522   7522
 $$$RSEGFWA
               1 00000000 FFFFFFD1     J   25063 25078  25078
 $$$RSETQWA
               1 00000000 FFFFFFDC     J    8274  8364   8364
 $$$RSHOSWA
               1 00000000 FFFFFFDB     J   12543 12586  12586
 $$$RSTRC      1 00000000 FFFFFFE0     J    7958  7999   7999
 $$$RSVCLWA
               1 00000000 FFFFFFCB     J   35423 35437  35437
 $$$RSVDTWA
               1 00000000 FFFFFFCE     J   30233 30247  30247
 $$$RSVFMWA
               1 00000000 FFFFFFC9     J   37486 37499  37499
 $$$RSVGLWA
               1 00000000 FFFFFFCA     J   36318 36331  36331
 $$$RSVIB      1 00000000 FFFFFFDE     J    8045  8239   8239
 $$$RTTYPE
1QUERY    (QUER2193) (12:52) (15MAR04) Ordinary Symbol and Literal Cross Reference                                          Page  145
               1 00000000 FFFFFFEA     J    6213  6314   6314
 $$$RUNET      1 00000000 FFFFFFE6     J    6960  7416   7416
 $$$RUPATH
               1 00000000 FFFFFFE7     J    6811  6954   6954
 $$$RVNENTRY
               1 00000000 FFFFFFE4     J    7536  7835   7835
 $$$SEGCB0
               4 00000050 FFFFFFEC     F    2499  2585   2585
 $$$SEGCB358
               4 0000001C FFFFFFD5     F   19423 19509  19509
 $$$SEGCB42
               4 0000010C FFFFFFE6     F    7098  7184   7184
 $$$V01       12 0000723F 00000001     C   43523 10301  41454  42347  42900  43134
 $$$V010      13 000072DD 00000001     C   43532 37255  42148
 $$$V011      11 000072EA 00000001     C   43533 40574
 $$$V012      18 000072F5 00000001     C   43534 40602
 $$$V013      15 00007307 00000001     C   43535 40632
 $$$V014      20 00007316 00000001     C   43536 42375
 $$$V015      16 0000732A 00000001     C   43537 42495
 $$$V016      17 0000733A 00000001     C   43538 42526
 $$$V017      22 0000734B 00000001     C   43539 43249  43350  43428
 $$$V02       13 0000724B 00000001     C   43524 26103  30096  33323  35529  35938  36422  37211  37601  39202  39899
                                                 42105
 $$$V03       20 00007258 00000001     C   43525 28473
 $$$V04       20 0000726C 00000001     C   43526 31047
 $$$V05       26 00007280 00000001     C   43527 31074
 $$$V06       15 0000729A 00000001     C   43528 33171
 $$$V07       15 000072A9 00000001     C   43529 33351
 $$$V08       26 000072B8 00000001     C   43530 33432
 $$$V09       11 000072D2 00000001     C   43531 35197  40703
 $$$100B       4 00000170 00000001     I    8789  8820
 $$$100F       2 00000182 00000001     H    8816  8789B  8819
 $$$102E       2 00000186 00000001     H    8827  8821
 $$$102F       2 000001B2 00000001     H    8884  8823B
 $$$103F       2 000001A8 00000001     H    8874  8840B
 $$$105F       2 000001FE 00000001     H    8974  8907B
 $$$106        1 000002B8 00000001 A   U    9009  9006   9008
 $$$107F       2 0000034C 00000001     H    9436  9383B
 $$$108B       1 0000022A 00000001     X    9041  9048U
 $$$109F       2 00000240 00000001     H    9106  9091B
 $$$110F       2 00000256 00000001     H    9134  9119B
 $$$111F       2 00000266 00000001     H    9156  9147B
 $$$112B       4 0000026A 00000001     I    9168  9186
 $$$112F       2 0000027C 00000001     H    9182  9168B  9185
 $$$113E       2 00000280 00000001     H    9193  9187
 $$$113F       2 000002A0 00000001     H    9232  9189B
 $$$114F       2 000002A0 00000001     H    9228  9213B
 $$$115F       2 000002C6 00000001     H    9291  9255B
 $$$116F       2 000002C2 00000001     H    9286  9270B
 $$$117F       2 00000318 00000001     H    9376  9349B
 $$$118        1 00000050 00000001 A   U    9445  9442   9444
 $$$120B       1 00000374 00000001     X    9477  9484U
 $$$121F       2 00000422 00000001     H    9791  9529B
 $$$122F       2 000003B4 00000001     H    9614  9579B
 $$$123F       2 000003B4 00000001     H    9610  9594B
 $$$124B       4 000003D4 00000001     I    9652  9749
 $$$124F       2 00000400 00000001     H    9743  9652B  9748
 $$$125E       2 00000404 00000001     H    9756  9750
 $$$125F       2 0000041E 00000001     H    9785  9752B
1QUERY    (QUER2193) (12:52) (15MAR04) Ordinary Symbol and Literal Cross Reference                                          Page  146
 $$$126F       2 000004F6 00000001     H   10119  9833B  9883B
 $$$126S       2 00000422 00000001     H    9800 10118B
 $$$127B       4 00000426 00000001     I    9815  9846
 $$$127F       2 00000438 00000001     H    9842  9815B  9845
 $$$129E       2 0000043C 00000001     H    9853  9847
 $$$129F       2 0000045A 00000001     H    9903  9849B
 $$$130F       2 0000045A 00000001     H    9899  9866B
 $$$132F       2 00000484 00000001     H    9976  9941B
 $$$133F       2 00000484 00000001     H    9972  9956B
 $$$134B       4 000004A8 00000001     I   10021 10078
 $$$134F       2 000004D4 00000001     H   10072 10021B 10077
 $$$135E       2 000004D8 00000001     H   10085 10079
 $$$135F       2 000004F2 00000001     H   10114 10081B
 $$$136F       2 00000526 00000001     H   10169 10131B
 $$$137        1 00000050 00000001 A   U   10198 10195  10197
 $$$139B       1 0000054E 00000001     X   10233 10240U
 $$$140F       2 00000572 00000001     H   10305 10290B
 $$$141F       2 0000058E 00000001     H   10352 10317B
 $$$142F       2 0000058E 00000001     H   10348 10332B
 $$$143F       2 00000610 00000001     H   10517 10371B
 $$$144F       2 000005AC 00000001     H   10398 10387B
 $$$145F       2 000005C0 00000001     H   10421 10410B
 $$$146F       2 000005D4 00000001     H   10444 10433B
 $$$147F       2 000005E8 00000001     H   10467 10456B
 $$$148F       2 000005FC 00000001     H   10490 10479B
 $$$149F       2 00000610 00000001     H   10513 10502B
 $$$150F       2 00000620 00000001     H   10547 10531B
 $$$151F       2 00000630 00000001     H   10575 10558B
 $$$152F       2 00000640 00000001     H   10602 10586B
 $$$153F       2 00000650 00000001     H   10630 10613B
 $$$154F       2 00000674 00000001     H   10679 10642B
 $$$155F       2 00000670 00000001     H   10674 10660B
 $$$155S       2 00000658 00000001     H   10652 10673B
 $$$157F       2 000006AC 00000001     H   10745 10690B
 $$$158        1 00000050 00000001 A   U   10774 10771  10773
 $$$160B       1 000009A6 00000001     X   11075 11082U
 $$$161F       2 000009C0 00000001     H   11128 11119B
 $$$162F       2 000009CC 00000001     H   11166 11142B
 $$$163        6 00000E98 00000001     I   11156 11148X
 $$$164        6 00000E98 00000001     I   11155 11156  11156
 $$$165        1 00000050 00000001 A   U   11193 11190  11192
 $$$167B       1 000009F6 00000001     X   11220 11227U
 $$$168F       2 00000A10 00000001     H   11273 11264B
 $$$169F       2 00000A1C 00000001     H   11311 11287B
 $$$170        6 00000E9E 00000001     I   11301 11293X
 $$$171        6 00000E9E 00000001     I   11300 11301  11301
 $$$172        1 00000050 00000001 A   U   11338 11335  11337
 $$$174B       1 00000A46 00000001     X   11365 11372U
 $$$175        1 00000050 00000001 A   U   11417 11414  11416
 $$$177B       1 00000A72 00000001     X   11444 11451U
 $$$178F       2 00000A8C 00000001     H   11497 11488B
 $$$179F       2 00000A98 00000001     H   11535 11511B
 $$$180        6 00000EA4 00000001     I   11525 11517X
 $$$181        6 00000EA4 00000001     I   11524 11525  11525
 $$$182        1 00000050 00000001 A   U   11562 11559  11561
 $$$184B       1 00000AC2 00000001     X   11589 11596U
 $$$185F       2 00000ADC 00000001     H   11642 11633B
 $$$186F       2 00000AE8 00000001     H   11680 11656B
 $$$187        6 00000EAA 00000001     I   11670 11662X
1QUERY    (QUER2193) (12:52) (15MAR04) Ordinary Symbol and Literal Cross Reference                                          Page  147
 $$$188        6 00000EAA 00000001     I   11669 11670  11670
 $$$189        1 00000050 00000001 A   U   11707 11704  11706
 $$$191B       1 00000B12 00000001     X   11734 11741U
 $$$192        1 00000050 00000001 A   U   11791 11788  11790
 $$$194B       1 00000B3E 00000001     X   11818 11825U
 $$$195        1 00000050 00000001 A   U   11875 11872  11874
 $$$197B       1 00000B6A 00000001     X   11902 11909U
 $$$198        1 00000050 00000001 A   U   11959 11956  11958
 $$$200B       1 00000B96 00000001     X   11986 11993U
 $$$201        1 00000050 00000001 A   U   12038 12035  12037
 $$$203B       1 00000BC2 00000001     X   12065 12072U
 $$$204        1 00000050 00000001 A   U   12127 12124  12126
 $$$206B       1 00000BF2 00000001     X   12154 12161U
 $$$207        1 00000050 00000001 A   U   12216 12213  12215
 $$$209B       1 00000C22 00000001     X   12243 12250U
 $$$210        1 00000050 00000001 A   U   12305 12302  12304
 $$$212B       1 00000C52 00000001     X   12332 12339U
 $$$213        1 00000050 00000001 A   U   12394 12391  12393
 $$$215B       1 00000C82 00000001     X   12421 12428U
 $$$216        1 00000050 00000001 A   U   12478 12475  12477
 $$$218B       1 00000ECA 00000001     X   12616 12623U
 $$$219F       2 0000101C 00000001     H   13072 12712B
 $$$220B       4 00000F3C 00000001     I   12727 12996
 $$$220F       2 00000FE0 00000001     H   12992 12727B 12995
 $$$221F       2 00000F68 00000001     H   12815 12759B
 $$$222F       2 00000F68 00000001     H   12811 12776B 12795B
 $$$224F       2 00000FCE 00000001     H   12956 12837B
 $$$225F       2 00000FE0 00000001     H   12983 12970B
 $$$226E       2 00000FE4 00000001     H   13003 12997
 $$$226F       2 00001018 00000001     H   13066 12999B
 $$$227F       2 0000104E 00000001     H   13124 13098B
 $$$228        1 00000228 00000001 A   U   13154 13151  13153
 $$$230B       1 00001192 00000001     X   13290 13297U
 $$$231        1 00000050 00000001 A   U   13347 13344  13346
 $$$233B       1 000011BE 00000001     X   13374 13381U
 $$$234        1 00000050 00000001 A   U   13431 13428  13430
 $$$236B       1 000011EA 00000001     X   13458 13465U
 $$$237        1 00000050 00000001 A   U   13515 13512  13514
 $$$239B       1 00001216 00000001     X   13542 13549U
 $$$240F       2 0000122A 00000001     H   13591 13582B
 $$$241F       2 0000123A 00000001     H   13630 13606B
 $$$242        6 0000140E 00000001     I   13620 13612X
 $$$243        6 0000140E 00000001     I   13619 13620  13620
 $$$244F       2 00001248 00000001     H   13666 13642B
 $$$245        6 00001414 00000001     I   13656 13648X
 $$$246        6 00001414 00000001     I   13655 13656  13656
 $$$247        1 00000050 00000001 A   U   13693 13690  13692
 $$$249B       1 00001272 00000001     X   13720 13727U
 $$$250        1 00000050 00000001 A   U   13772 13769  13771
 $$$251F       2 00001370 00000001     H   14231 13897B
 $$$252B       1 0000129E 00000001     X   13834 13841U
 $$$254F       2 0000136E 00000001     H   14207 13920B
 $$$254S       2 000012BC 00000001     H   13911 14206B
 $$$256F       2 00001366 00000001     H   14200 13936B
 $$$257F       2 000012EA 00000001     H   14016 13969B 13989B
 $$$260F       2 00001350 00000001     H   14157 14038B
 $$$261F       2 00001362 00000001     H   14184 14171B
 $$$262        1 00000210 00000001 A   U   14240 14237  14239
 $$$264B       1 00001434 00000001     X   14348 14355U
1QUERY    (QUER2193) (12:52) (15MAR04) Ordinary Symbol and Literal Cross Reference                                          Page  148
 $$$265F       2 000014F6 00000001     H   14579 14445B
 $$$266B       4 000014AA 00000001     I   14468 14540
 $$$266F       2 000014DC 00000001     H   14536 14468B 14539
 $$$267E       2 000014E0 00000001     H   14547 14541
 $$$267F       2 000014F2 00000001     H   14571 14543B
 $$$268B       4 00001506 00000001     I   14601 15060
 $$$268F       2 00001684 00000001     H   15053 14601B 15059
 $$$269F       2 00001546 00000001     H   14672 14617B
 $$$270F       2 000015E4 00000001     H   14844 14688B
 $$$271F       2 0000158C 00000001     H   14759 14706B 14721B
 $$$273F       2 000015BC 00000001     H   14809 14771B
 $$$274F       2 00001684 00000001     H   15049 14861B
 $$$275E       2 00001688 00000001     H   15067 15061
 $$$275F       2 00001706 00000001     H   15252 15063B
 $$$276F       2 00001700 00000001     H   15240 15080B
 $$$278B       4 000016A8 00000001     I   15118 15152
 $$$278F       2 000016BA 00000001     H   15149 15118B 15151
 $$$279E       2 000016BE 00000001     H   15159 15153
 $$$279F       2 000016D0 00000001     H   15193 15155B
 $$$280F       2 00001768 00000001     H   15385 15337B 15356B 15375B
 $$$280S       2 00001730 00000001     H   15298 15384B
 $$$284F       2 0000177A 00000001     H   15412 15399B
 $$$285F       2 000017BA 00000001     H   15480 15430B
 $$$286F       2 000017FE 00000001     H   15566 15493B
 $$$287F       2 000018B2 00000001     H   15742 15707B
 $$$288        1 0000020C 00000001 A   U   15772 15769  15771
 $$$290B       1 00001B02 00000001     X   15904 15911U
 $$$291F       2 00001B42 00000001     H   16007 15980B
 $$$292B       4 00001B48 00000001     I   16023 16122
 $$$292F       2 00001B92 00000001     H   16115 16023B 16121
 $$$293F       2 00001B66 00000001     H   16052 16039B
 $$$294F       2 00001B7C 00000001     H   16081 16068B
 $$$295F       2 00001B92 00000001     H   16111 16098B
 $$$296E       2 00001B96 00000001     H   16129 16123
 $$$296F       2 00001BAA 00000001     H   16148 16125B
 $$$297F       2 00001BFA 00000001     H   16275 16246B 16265B
 $$$297S       2 00001BC0 00000001     H   16175 16274B
 $$$299F       2 00001BE6 00000001     H   16232 16216B
 $$$302F       2 00001C1E 00000001     H   16334 16310B
 $$$303        6 000028D4 00000001     I   16324 16316X
 $$$304        6 000028D4 00000001     I   16323 16324  16324
 $$$305F       2 00001C3A 00000001     H   16376 16363B
 $$$306        1 00000210 00000001 A   U   16411 16408  16410
 $$$308B       1 00001C6E 00000001     X   16464 16471U
 $$$309F       2 00001C9E 00000001     H   16547 16532B
 $$$310F       2 00001D6E 00000001     H   16762 16602B
 $$$312B       4 00001D16 00000001     I   16640 16674
 $$$312F       2 00001D28 00000001     H   16671 16640B 16673
 $$$313E       2 00001D2C 00000001     H   16681 16675
 $$$313F       2 00001D3E 00000001     H   16715 16677B
 $$$314F       2 00001E0E 00000001     H   16940 16889B
 $$$315F       2 00001E56 00000001     H   17027 16953B
 $$$316F       2 00001F32 00000001     H   17249 17162B
 $$$317F       2 00001F62 00000001     H   17311 17276B
 $$$318        1 000001FC 00000001 A   U   17342 17339  17341
 $$$320B       1 00001FBE 00000001     X   17394 17401U
 $$$321F       2 0000206C 00000001     H   17577 17490B
 $$$322        1 00000050 00000001 A   U   17615 17612  17614
 $$$324B       1 00002098 00000001     X   17647 17654U
1QUERY    (QUER2193) (12:52) (15MAR04) Ordinary Symbol and Literal Cross Reference                                          Page  149
 $$$325F       2 000020C8 00000001     H   17724 17711B
 $$$326F       2 0000215E 00000001     H   17861 17774B
 $$$327        1 00000050 00000001 A   U   17898 17895  17897
 $$$329B       1 0000218A 00000001     X   17955 17962U
 $$$331B       4 000021AC 00000001     I   18035 18082
 $$$331F       2 00002208 00000001     H   18079 18035B 18081
 $$$332E       2 0000220C 00000001     H   18089 18083
 $$$332F       2 0000225E 00000001     H   18126 18085B
 $$$333F       2 00002292 00000001     H   18200 18145B
 $$$334F       2 0000227C 00000001     H   18170 18160B
 $$$335F       2 0000228E 00000001     H   18195 18180B
 $$$336F       2 000022CE 00000001     H   18268 18213B
 $$$337F       2 00002328 00000001     H   18408 18326B
 $$$338F       2 00002342 00000001     H   18455 18422B
 $$$340B       4 00002346 00000001     I   18467 18487
 $$$340F       2 00002358 00000001     H   18482 18467B 18486
 $$$341B       4 00002360 00000001     I   18503 18522
 $$$341E       2 0000235C 00000001     H   18494 18488
 $$$341F       2 00002372 00000001     H   18518 18490B 18503B 18521
 $$$343E       2 00002376 00000001     H   18529 18523
 $$$343F       2 00002384 00000001     H   18542 18525B
 $$$344F       2 000023E4 00000001     H   18686 18580B
 $$$345F       2 000023BE 00000001     H   18635 18624B
 $$$346F       2 0000246C 00000001     H   18815 18728B
 $$$347        1 00000060 00000001 A   U   18862 18859  18861
 $$$349B       1 0000258A 00000001     X   18982 18989U
 $$$350B       4 00002596 00000001     I   19038 19056
 $$$350F       2 0000259C 00000001     H   19051 19025B 19038B 19053
 $$$351B       4 0000258E 00000001     I   19025 19054
 $$$352E       2 000025A0 00000001     H   19063 19055  19057
 $$$352F       2 000025AA 00000001     H   19084 19059B
 $$$353        1 00000050 00000001 A   U   19108 19105  19107
 $$$355B       1 000025D6 00000001     X   19143 19150U
 $$$356F       2 000025F4 00000001     H   19203 19190B
 $$$357        1 00000050 00000001 A   U   19288 19285  19287
 $$$367B       1 000028F4 00000001     X   19547 19554U
 $$$368F       2 000029A8 00000001     H   19709 19676B 19688B
 $$$371F       2 000029DC 00000001     H   19780 19723B
 $$$372F       2 000029DC 00000001     H   19776 19739B
 $$$373F       2 000029D8 00000001     H   19771 19756B
 $$$374F       2 00002A10 00000001     H   19862 19847B
 $$$375F       2 00002AD8 00000001     H   20162 19884B 20114B 20133B 20152B
 $$$375S       2 00002A10 00000001     H   19869 20161B
 $$$377F       2 00002A34 00000001     H   19917 19902B
 $$$378B       4 00002A38 00000001     I   19931 20069
 $$$378F       2 00002AAA 00000001     H   20063 19931B 20068
 $$$379F       2 00002A7E 00000001     H   20011 19955B
 $$$379S       2 00002A48 00000001     H   19946 20010B
 $$$381E       2 00002AAE 00000001     H   20076 20070
 $$$381F       2 00002ABC 00000001     H   20097 20072B
 $$$385F       2 00002AE8 00000001     H   20203 20177B
 $$$387B       4 00002AF4 00000001     I   20219 20249
 $$$387F       2 00002B0A 00000001     H   20246 20219B 20248
 $$$388E       2 00002B0E 00000001     H   20256 20250
 $$$388F       2 00002B20 00000001     H   20280 20252B
 $$$389F       2 00002B48 00000001     H   20334 20324B
 $$$389T       2 00002B40 00000001     H   20327 20300B 20313B
 $$$392F       2 00002B80 00000001     H   20405 20349B
 $$$393F       2 00002BB0 00000001     H   20484 20473B
1QUERY    (QUER2193) (12:52) (15MAR04) Ordinary Symbol and Literal Cross Reference                                          Page  150
 $$$394F       2 00002C0E 00000001     H   20614 20541B
 $$$395        1 000002A8 00000001 A   U   20668 20665  20667
 $$$397B       1 00002DB6 00000001     X   20834 20841U
 $$$398        1 00000050 00000001 A   U   20891 20888  20890
 $$$400B       1 00002DE2 00000001     X   20918 20925U
 $$$401        1 00000050 00000001 A   U   20975 20972  20974
 $$$403B       1 00002E0E 00000001     X   21002 21009U
 $$$404        1 00000050 00000001 A   U   21060 21057  21059
 $$$406B       1 00002E3A 00000001     X   21087 21094U
 $$$407        1 00000050 00000001 A   U   21144 21141  21143
 $$$409B       1 00002E66 00000001     X   21171 21178U
 $$$410        1 00000050 00000001 A   U   21223 21220  21222
 $$$412B       1 00002E92 00000001     X   21250 21257U
 $$$413        1 00000050 00000001 A   U   21302 21299  21301
 $$$415B       1 00002EBE 00000001     X   21329 21336U
 $$$416        1 00000050 00000001 A   U   21381 21378  21380
 $$$418B       1 00002EEA 00000001     X   21418 21425U
 $$$419F       2 00002F7A 00000001     H   21666 21490B
 $$$419T       2 00002F00 00000001     H   21493 21480B
 $$$421B       4 00002F04 00000001     I   21508 21547
 $$$421F       2 00002F16 00000001     H   21541 21508B 21546
 $$$422E       2 00002F1A 00000001     H   21554 21548
 $$$422F       2 00002F6E 00000001     H   21649 21550B
 $$$423F       2 00002F5E 00000001     H   21640 21578B
 $$$424        1 00000050 00000001 A   U   21695 21692  21694
 $$$426B       1 00002FA2 00000001     X   21735 21742U
 $$$427F       2 00002FBC 00000001     H   21776 21761B
 $$$428F       2 00002FE2 00000001     H   21838 21803B 21823B
 $$$430        1 00000050 00000001 A   U   21879 21876  21878
 $$$432B       1 00003178 00000001     X   21990 21997U
 $$$433F       2 000031D0 00000001     H   22162 22079B 22146B
 $$$433S       2 00003192 00000001     H   22052 22161B
 $$$436F       2 000031CA 00000001     H   22150 22097B
 $$$437B       4 000031A8 00000001     I   22111 22124
 $$$437F       2 000031B2 00000001     H   22121 22111B 22123
 $$$438E       2 000031B6 00000001     H   22131 22125
 $$$438F       2 000031BC 00000001     H   22138 22127B
 $$$439        1 00000074 00000001 A   U   22294 22291  22293
 $$$441B       1 00003258 00000001     X   22347 22354U
 $$$442F       2 000032FC 00000001     H   22532 22471B
 $$$443F       2 00003320 00000001     H   22573 22546B
 $$$444F       2 00003376 00000001     H   22672 22587B
 $$$445F       2 0000342E 00000001     H   22849 22762B
 $$$446        1 00000054 00000001 A   U   22891 22888  22890
 $$$448B       1 00003482 00000001     X   22980 22987U
 $$$449F       2 000035D6 00000001     H   23409 23103B
 $$$450F       2 000035A2 00000001     H   23301 23274B
 $$$451F       2 000035D0 00000001     H   23398 23347B 23375B
 $$$451S       2 000035A6 00000001     H   23311 23397B
 $$$454F       2 000035CC 00000001     H   23379 23362B
 $$$455F       2 00003612 00000001     H   23479 23424B
 $$$456F       2 00003664 00000001     H   23575 23496B
 $$$457F       2 000036B0 00000001     H   23681 23590B
 $$$458F       2 000036C4 00000001     H   23712 23697B
 $$$459F       2 000036FE 00000001     H   23794 23772B
 $$$459S       2 000036E2 00000001     H   23745 23793B
 $$$462F       2 00003722 00000001     H   23869 23810B
 $$$462S       2 00003706 00000001     H   23803 23868B
 $$$464F       2 0000371A 00000001     H   23863 23825B
1QUERY    (QUER2193) (12:52) (15MAR04) Ordinary Symbol and Literal Cross Reference                                          Page  151
 $$$465F       2 00003804 00000001     H   24290 24092B 24208B
 $$$465S       2 00003722 00000001     H   23878 24289B
 $$$466F       2 00003780 00000001     H   24057 23912B
 $$$466S       2 00003726 00000001     H   23885 24056B
 $$$469F       2 0000377C 00000001     H   24047 23927B
 $$$470F       2 0000376A 00000001     H   24022 23945B
 $$$472F       2 000037A2 00000001     H   24155 24111B
 $$$475F       2 000037FE 00000001     H   24283 24228B
 $$$476        1 00000214 00000001 A   U   24341 24338  24340
 $$$478B       1 0000388A 00000001     X   24401 24408U
 $$$479        1 00000050 00000001 A   U   24458 24455  24457
 $$$481B       1 000038B6 00000001     X   24495 24502U
 $$$482F       2 000038F0 00000001     H   24634 24529B
 $$$483B       4 000038D2 00000001     I   24558 24605
 $$$483F       2 000038E4 00000001     H   24602 24558B 24604
 $$$484E       2 000038E8 00000001     H   24612 24606
 $$$484F       2 000038EC 00000001     H   24624 24608B
 $$$485        1 00000040 00000001 A   U   24653 24650  24652
 $$$487B       1 00003918 00000001     X   24692 24699U
 $$$488B       4 0000391E 00000001     I   24721 24944
 $$$488F       2 00003994 00000001     H   24938 24721B 24943
 $$$489F       2 0000393A 00000001     H   24766 24753B
 $$$490F       2 0000394A 00000001     H   24790 24777B
 $$$491F       2 0000395A 00000001     H   24814 24801B
 $$$492F       2 00003984 00000001     H   24904 24826B
 $$$493F       2 00003984 00000001     H   24895 24883B
 $$$493T       2 0000397C 00000001     H   24886 24858B 24870B
 $$$496F       2 00003994 00000001     H   24929 24916B
 $$$497E       2 00003998 00000001     H   24951 24945
 $$$497F       2 000039A0 00000001     H   24961 24947B
 $$$498        1 00000040 00000001 A   U   24980 24977  24979
 $$$500B       1 00003B8E 00000001     X   25107 25114U
 $$$501F       2 00003C76 00000001     H   25494 25172B
 $$$501S       2 00003B98 00000001     H   25145 25493B
 $$$503B       4 00003BB0 00000001     I   25193 25248
 $$$503F       2 00003BD4 00000001     H   25241 25193B 25247
 $$$504B       4 00003BDC 00000001     I   25264 25319
 $$$504E       2 00003BD8 00000001     H   25255 25249
 $$$504F       2 00003C00 00000001     H   25312 25251B 25264B 25318
 $$$506B       4 00003C08 00000001     I   25335 25410
 $$$506E       2 00003C04 00000001     H   25326 25320
 $$$506F       2 00003C46 00000001     H   25404 25322B 25335B 25409
 $$$508E       2 00003C4A 00000001     H   25417 25411
 $$$508F       2 00003C54 00000001     H   25443 25413B
 $$$509F       2 00003C72 00000001     H   25484 25474B
 $$$510        1 00000064 00000001 A   U   25518 25515  25517
 $$$511F       2 00003CE2 00000001     H   25701 25596B
 $$$512B       1 00003C9E 00000001     X   25562 25569U
 $$$513F       2 00003CAC 00000001     H   25600 25587B
 $$$514F       2 00003CCC 00000001     H   25649 25620B 25634B
 $$$514S       2 00003CB0 00000001     H   25612 25648B
 $$$517F       2 00003CE0 00000001     H   25687 25662B 25676B
 $$$519        1 00000030 00000001 A   U   25710 25707  25709
 $$$521B       1 00003D18 00000001     X   25764 25771U
 $$$522B       4 00003D30 00000001     I   25825 25848
 $$$522F       2 00003D44 00000001     H   25837 25797B 25811B 25825B 25843
 $$$523B       4 00003D20 00000001     I   25797 25844
 $$$524B       4 00003D28 00000001     I   25811 25846
 $$$525B       4 00003D5E 00000001     I   25895 25917
1QUERY    (QUER2193) (12:52) (15MAR04) Ordinary Symbol and Literal Cross Reference                                          Page  152
 $$$525E       2 00003D48 00000001     H   25855 25845  25847  25849
 $$$525F       2 00003D72 00000001     H   25907 25851B 25867B 25881B 25895B 25912
 $$$527B       4 00003D4E 00000001     I   25867 25913
 $$$528B       4 00003D56 00000001     I   25881 25915
 $$$529E       2 00003D76 00000001     H   25924 25914  25916  25918
 $$$529F       2 00003D78 00000001     H   25933 25920B
 $$$530        1 00000050 00000001 A   U   25952 25949  25951
 $$$532B       1 00003DA0 00000001     X   26009 26016U
 $$$533F       2 00003DB2 00000001     H   26061 26046B
 $$$534F       2 00003DD6 00000001     H   26107 26092B
 $$$535F       2 00003E46 00000001     H   26268 26119B 26139B
 $$$537B       4 00003E1E 00000001     I   26199 26219
 $$$537F       2 00003E30 00000001     H   26215 26199B 26218
 $$$538E       2 00003E34 00000001     H   26226 26220
 $$$538F       2 00003E46 00000001     H   26264 26222B
 $$$539        1 00000248 00000001 A   U   26298 26295  26297
 $$$541B       1 00003E72 00000001     X   26338 26345U
 $$$542F       2 00003EB0 00000001     H   26459 26408B
 $$$542T       2 00003E90 00000001     H   26411 26397B
 $$$544F       2 00003ED8 00000001     H   26523 26472B
 $$$545F       2 00003F00 00000001     H   26588 26537B
 $$$546F       2 00003F48 00000001     H   26694 26609B 26622B
 $$$548F       2 00003F22 00000001     H   26647 26637B
 $$$549F       2 00003F3E 00000001     H   26684 26657B
 $$$550B       4 00003F4E 00000001     I   26719 26734
 $$$550F       2 00003F56 00000001     H   26728 26719B 26733
 $$$551E       2 00003F5A 00000001     H   26741 26735
 $$$551F       2 00003F82 00000001     H   26806 26737B
 $$$552F       2 00003F6C 00000001     H   26762 26753B
 $$$553F       2 00003F78 00000001     H   26800 26776B
 $$$554        6 0000414A 00000001     I   26790 26782X
 $$$555        6 0000414A 00000001     I   26789 26790  26790
 $$$556        1 00000050 00000001 A   U   26864 26861  26863
 $$$558B       1 00003FC0 00000001     X   26903 26910U
 $$$559F       2 00004036 00000001     H   27007 26979B
 $$$560        1 00000050 00000001 A   U   27037 27034  27036
 $$$562B       1 0000416A 00000001     X   27115 27122U
 $$$563F       2 000041D0 00000001     H   27196 27180B
 $$$564F       2 00004210 00000001     H   27315 27219B
 $$$565F       2 00004202 00000001     H   27290 27251B
 $$$565T       2 000041EC 00000001     H   27254 27240B
 $$$567F       2 00004210 00000001     H   27311 27301B
 $$$568F       2 00004222 00000001     H   27343 27328B
 $$$569F       2 0000425A 00000001     H   27411 27356B
 $$$570F       2 00004296 00000001     H   27495 27457B
 $$$570T       2 0000426E 00000001     H   27460 27444B
 $$$572        1 00000050 00000001 A   U   27520 27517  27519
 $$$573F       2 00004334 00000001     H   27763 27742B
 $$$574B       1 000042C2 00000001     X   27562 27569U
 $$$575F       2 000042D8 00000001     H   27622 27612B
 $$$576F       2 00004326 00000001     H   27735 27636B 27654B
 $$$578F       2 00004326 00000001     H   27731 27680B
 $$$578S       2 000042F8 00000001     H   27671 27730B
 $$$580F       2 0000431E 00000001     H   27724 27695B
 $$$582        1 00000050 00000001 A   U   27772 27769  27771
 $$$583F       2 000043D8 00000001     H   28030 28009B
 $$$584B       1 0000435C 00000001     X   27814 27821U
 $$$585F       2 00004372 00000001     H   27874 27864B
 $$$586F       2 000043CA 00000001     H   28002 27888B 27906B
1QUERY    (QUER2193) (12:52) (15MAR04) Ordinary Symbol and Literal Cross Reference                                          Page  153
 $$$588F       2 000043CA 00000001     H   27998 27932B
 $$$588S       2 00004392 00000001     H   27923 27997B
 $$$590F       2 000043C2 00000001     H   27991 27947B 27961B
 $$$593        1 00000050 00000001 A   U   28039 28036  28038
 $$$595B       1 00004400 00000001     X   28073 28080U
 $$$596B       4 00004408 00000001     I   28113 28151
 $$$596F       2 00004422 00000001     H   28148 28113B 28150
 $$$597E       2 00004426 00000001     H   28158 28152
 $$$597F       2 00004428 00000001     H   28168 28154B
 $$$598F       2 0000444E 00000001     H   28241 28181B
 $$$599F       2 00004474 00000001     H   28295 28256B 28269B
 $$$601        1 00000050 00000001 A   U   28318 28315  28317
 $$$603B       1 0000458A 00000001     X   28410 28417U
 $$$604F       2 000045AE 00000001     H   28477 28462B
 $$$605F       2 0000462A 00000001     H   28661 28604B
 $$$606B       4 0000463A 00000001     I   28700 29014
 $$$606F       2 0000471E 00000001     H   29007 28700B 29013
 $$$607F       2 00004690 00000001     H   28817 28762B
 $$$608F       2 000046BE 00000001     H   28884 28829B
 $$$609F       2 0000471E 00000001     H   29003 28937B
 $$$610B       4 00004726 00000001     I   29030 29063
 $$$610E       2 00004722 00000001     H   29021 29015
 $$$610F       2 0000473C 00000001     H   29056 29017B 29030B 29062
 $$$612B       4 00004744 00000001     I   29079 29112
 $$$612E       2 00004740 00000001     H   29070 29064
 $$$612F       2 0000475A 00000001     H   29105 29066B 29079B 29111
 $$$614B       4 00004762 00000001     I   29128 29486
 $$$614E       2 0000475E 00000001     H   29119 29113
 $$$614F       2 0000485E 00000001     H   29482 29115B 29128B 29485
 $$$616F       2 000047F0 00000001     H   29327 29163B
 $$$617B       4 00004792 00000001     I   29183 29238
 $$$617F       2 000047B8 00000001     H   29234 29183B 29237
 $$$618E       2 000047BC 00000001     H   29245 29239
 $$$618F       2 000047F0 00000001     H   29323 29241B
 $$$619F       2 000047CE 00000001     H   29276 29264B
 $$$620E       2 00004862 00000001     H   29493 29487
 $$$620F       2 00004874 00000001     H   29516 29489B
 $$$621F       2 000048BA 00000001     H   29634 29531B 29550B
 $$$623F       2 000048F4 00000001     H   29733 29649B
 $$$624F       2 000048DA 00000001     H   29681 29668B
 $$$625F       2 000048EA 00000001     H   29705 29692B
 $$$626F       2 0000490E 00000001     H   29772 29745B
 $$$627F       2 00004928 00000001     H   29810 29783B
 $$$628F       2 00004986 00000001     H   29953 29822B
 $$$629F       2 00004974 00000001     H   29931 29858B
 $$$630        1 00000058 00000001 A   U   30007 30004  30006
 $$$632B       1 000049BA 00000001     X   30042 30049U
 $$$633F       2 000049DE 00000001     H   30100 30085B
 $$$634F       2 000049FE 00000001     H   30142 30115B
 $$$635F       2 00004A18 00000001     H   30195 30178B
 $$$635S       2 00004A02 00000001     H   30151 30194B
 $$$638        1 00000050 00000001 A   U   30220 30217  30219
 $$$640B       1 00004A40 00000001     X   30276 30283U
 $$$641F       2 00004A62 00000001     H   30357 30330B
 $$$642F       2 00004B40 00000001     H   30700 30602B
 $$$643F       2 00004B24 00000001     H   30626 30617B
 $$$644F       2 00004B32 00000001     H   30665 30641B
 $$$645        6 00004CD6 00000001     I   30655 30647X
 $$$646        6 00004CD6 00000001     I   30654 30655  30655
1QUERY    (QUER2193) (12:52) (15MAR04) Ordinary Symbol and Literal Cross Reference                                          Page  154
 $$$647        6 00004CDC 00000001     I   30676 30668X
 $$$648        6 00004CDC 00000001     I   30675 30676  30676
 $$$649F       2 00004B5E 00000001     H   30757 30724B
 $$$650F       2 00004B5E 00000001     H   30753 30743B
 $$$651        1 00000154 00000001 A   U   30817 30814  30816
 $$$653B       1 00004CFC 00000001     X   30951 30958U
 $$$654F       2 00004D0C 00000001     H   31007 30992B
 $$$655F       2 00004D2E 00000001     H   31051 31036B
 $$$656F       2 00004D4E 00000001     H   31078 31063B
 $$$657B       4 00004D56 00000001     I   31099 31116
 $$$657F       2 00004D78 00000001     H   31112 31099B 31115
 $$$658E       2 00004D7C 00000001     H   31123 31117
 $$$658F       2 00004D9A 00000001     H   31133 31119B
 $$$659F       2 00004DD8 00000001     H   31187 31149B
 $$$660F       2 00004E0E 00000001     H   31272 31209B
 $$$660S       2 00004DDC 00000001     H   31194 31271B
 $$$662F       2 00004DF6 00000001     H   31238 31228B
 $$$663F       2 00004E0A 00000001     H   31267 31252B
 $$$664F       2 00004E30 00000001     H   31307 31297B
 $$$665B       4 00004E38 00000001     I   31320 31335
 $$$665F       2 00004E4E 00000001     H   31331 31320B 31334
 $$$666E       2 00004E52 00000001     H   31342 31336
 $$$666F       2 00004E64 00000001     H   31350 31338B
 $$$667B       4 00004E82 00000001     I   31407 31425
 $$$667F       2 00004E8A 00000001     H   31422 31407B 31424
 $$$668E       2 00004E8E 00000001     H   31432 31426
 $$$668F       2 00004E9C 00000001     H   31458 31428B
 $$$669        1 00000070 00000001 A   U   31492 31489  31491
 $$$671B       1 00004F0C 00000001     X   31545 31552U
 $$$672F       2 00004F2A 00000001     H   31610 31577B
 $$$672S       2 00004F0C 00000001     H   31569 31609B
 $$$674F       2 00004F62 00000001     H   31723 31625B
 $$$675F       2 00004F62 00000001     H   31719 31644B
 $$$675S       2 00004F34 00000001     H   31635 31718B
 $$$677F       2 00004F5A 00000001     H   31712 31659B
 $$$678F       2 00004F5A 00000001     H   31703 31690B
 $$$679F       2 00004F9A 00000001     H   31835 31737B
 $$$680F       2 00004F9A 00000001     H   31831 31756B
 $$$680S       2 00004F6C 00000001     H   31747 31830B
 $$$682F       2 00004F92 00000001     H   31824 31771B
 $$$683F       2 00004F92 00000001     H   31815 31802B
 $$$684        1 00000050 00000001 A   U   31858 31855  31857
 $$$686B       1 00004FC4 00000001     X   31901 31908U
 $$$687F       2 0000501C 00000001     H   32029 31945B
 $$$688F       2 00004FEE 00000001     H   31975 31961B
 $$$689F       2 00005008 00000001     H   32003 31989B
 $$$690F       2 00005018 00000001     H   32024 32014B
 $$$691F       2 00005044 00000001     H   32066 32050B
 $$$692        1 00000040 00000001 A   U   32091 32088  32090
 $$$694B       1 0000506C 00000001     X   32163 32170U
 $$$695F       2 000050AC 00000001     H   32241 32227B
 $$$696F       2 0000513A 00000001     H   32491 32259B
 $$$696S       2 000050AC 00000001     H   32250 32490B
 $$$698F       2 00005132 00000001     H   32484 32274B 32323B 32345B
 $$$699F       2 000050D2 00000001     H   32326 32306B
 $$$702B       4 000050E0 00000001     I   32364 32380
 $$$702F       2 000050E8 00000001     H   32373 32364B 32379
 $$$703B       4 000050F0 00000001     I   32396 32416
 $$$703E       2 000050EC 00000001     H   32387 32381
1QUERY    (QUER2193) (12:52) (15MAR04) Ordinary Symbol and Literal Cross Reference                                          Page  155
 $$$703F       2 00005104 00000001     H   32409 32383B 32396B 32415
 $$$705E       2 00005108 00000001     H   32423 32417
 $$$705F       2 00005132 00000001     H   32475 32419B 32432B
 $$$707F       2 00005132 00000001     H   32471 32456B
 $$$708F       2 00005154 00000001     H   32522 32508B
 $$$709F       2 000052DE 00000001     H   33075 32563B 32582B
 $$$711F       2 0000520E 00000001     H   32814 32601B
 $$$712B       4 0000518C 00000001     I   32637 32667
 $$$712F       2 000051A2 00000001     H   32664 32637B 32666
 $$$713E       2 000051A6 00000001     H   32674 32668
 $$$713F       2 000051C8 00000001     H   32720 32670B
 $$$714B       4 0000526E 00000001     I   32935 32965
 $$$714F       2 00005284 00000001     H   32961 32935B 32964
 $$$715E       2 00005288 00000001     H   32972 32966
 $$$715F       2 000052BC 00000001     H   33035 32968B
 $$$716F       2 000052F0 00000001     H   33119 33109B
 $$$717F       2 0000531A 00000001     H   33175 33160B
 $$$718        1 00000074 00000001 A   U   33228 33225  33227
 $$$720B       1 00005364 00000001     X   33269 33276U
 $$$721F       2 00005388 00000001     H   33327 33312B
 $$$722F       2 000053AA 00000001     H   33355 33340B
 $$$723F       2 000053C2 00000001     H   33381 33367B
 $$$724F       2 00005440 00000001     H   33532 33405B
 $$$725F       2 000053FA 00000001     H   33436 33421B
 $$$726F       2 00005408 00000001     H   33462 33452B
 $$$727F       2 0000541A 00000001     H   33484 33473B
 $$$728F       2 00005456 00000001     H   33575 33561B
 $$$729F       2 000054BA 00000001     H   33768 33618B 33741B
 $$$729S       2 00005464 00000001     H   33591 33767B
 $$$732F       2 000054B6 00000001     H   33758 33636B
 $$$733F       2 000054B6 00000001     H   33754 33652B
 $$$734F       2 000054B6 00000001     H   33745 33681B
 $$$735F       2 000054B2 00000001     H   33738 33703B
 $$$736F       2 00005744 00000001     H   34591 33782B
 $$$737F       2 000054D8 00000001     H   33809 33798B
 $$$738F       2 00005516 00000001     H   33894 33827B
 $$$739F       2 00005508 00000001     H   33851 33842B
 $$$740F       2 00005516 00000001     H   33890 33866B
 $$$741        6 00005B5A 00000001     I   33880 33872X
 $$$742        6 00005B5A 00000001     I   33879 33880  33880
 $$$743F       2 000055C4 00000001     H   34111 34061B
 $$$744F       2 0000568E 00000001     H   34361 34260B
 $$$745F       2 000056E6 00000001     H   34477 34376B
 $$$746F       2 0000589C 00000001     H   35010 34607B
 $$$747F       2 0000582A 00000001     H   34872 34822B
 $$$748F       2 00005964 00000001     H   35303 35038B
 $$$749F       2 000058D4 00000001     H   35086 35073B
 $$$750F       2 000058F8 00000001     H   35130 35101B
 $$$751F       2 0000595C 00000001     H   35295 35147B
 $$$752F       2 00005924 00000001     H   35201 35186B
 $$$753F       2 0000595C 00000001     H   35277 35241B
 $$$753T       2 0000593C 00000001     H   35244 35216B 35228B
 $$$756        1 00000040 00000001 A   U   35332 35329  35331
 $$$758B       1 00005B7A 00000001     X   35466 35473U
 $$$759F       2 00005B9E 00000001     H   35533 35518B
 $$$760F       2 00005BD2 00000001     H   35604 35577B
 $$$761F       2 00005C22 00000001     H   35717 35618B
 $$$762F       2 00005C1E 00000001     H   35706 35695B
 $$$763        1 0000005C 00000001 A   U   35820 35817  35819
1QUERY    (QUER2193) (12:52) (15MAR04) Ordinary Symbol and Literal Cross Reference                                          Page  156
 $$$765B       1 00005C94 00000001     X   35884 35891U
 $$$766F       2 00005CB8 00000001     H   35942 35927B
 $$$767F       2 00005D98 00000001     H   36265 35983B
 $$$768F       2 00005D7A 00000001     H   36213 36053B 36066B
 $$$770F       2 00005D40 00000001     H   36139 36082B
 $$$771F       2 00005D7A 00000001     H   36209 36152B
 $$$772        1 00000040 00000001 A   U   36294 36291  36293
 $$$774B       1 00005DC2 00000001     X   36359 36366U
 $$$775F       2 00005DE6 00000001     H   36426 36411B
 $$$776F       2 00005E08 00000001     H   36482 36468B
 $$$777F       2 00005E3A 00000001     H   36558 36498B
 $$$778F       2 00005E30 00000001     H   36543 36533B
 $$$780F       2 00005E5C 00000001     H   36617 36593B
 $$$781F       2 00005EF0 00000001     H   36880 36631B
 $$$782F       2 00005EE6 00000001     H   36853 36710B 36746B 36779B 36811B 36843B
 $$$782S       2 00005E64 00000001     H   36640 36852B
 $$$783F       2 00005E8E 00000001     H   36689 36653B
 $$$784F       2 00005E8A 00000001     H   36683 36669B
 $$$786F       2 00005EB8 00000001     H   36749 36731B
 $$$788F       2 00005EC6 00000001     H   36782 36764B
 $$$790F       2 00005ED4 00000001     H   36814 36796B
 $$$792F       2 00005EE2 00000001     H   36846 36828B
 $$$795F       2 00005F16 00000001     H   36929 36895B
 $$$796F       2 00005F16 00000001     H   36925 36911B
 $$$797F       2 00005F48 00000001     H   37044 36982B
 $$$798F       2 00005F48 00000001     H   37040 37026B
 $$$798T       2 00005F44 00000001     H   37029 37002B 37015B
 $$$801        1 00000044 00000001 A   U   37078 37075  37077
 $$$803B       1 00006004 00000001     X   37157 37164U
 $$$804F       2 00006028 00000001     H   37215 37200B
 $$$805F       2 0000604E 00000001     H   37259 37244B
 $$$806F       2 000060C4 00000001     H   37438 37298B
 $$$806S       2 0000604E 00000001     H   37267 37437B
 $$$808F       2 000060C0 00000001     H   37433 37368B
 $$$812        1 00000050 00000001 A   U   37471 37468  37470
 $$$814B       1 000060EE 00000001     X   37528 37535U
 $$$815F       2 0000611C 00000001     H   37605 37590B
 $$$816B       4 00006120 00000001     I   37621 37692
 $$$816F       2 00006152 00000001     H   37685 37621B 37691
 $$$817F       2 00006152 00000001     H   37681 37668B
 $$$818B       4 0000615A 00000001     I   37709 38429
 $$$818E       2 00006156 00000001     H   37699 37693
 $$$818F       2 00006380 00000001     H   38422 37695B 37709B 38428
 $$$820B       4 00006164 00000001     I   37728 37815
 $$$820F       2 000061B0 00000001     H   37808 37728B 37814
 $$$821F       2 000061A6 00000001     H   37782 37769B
 $$$822B       4 000061BA 00000001     I   37832 38124
 $$$822E       2 000061B4 00000001     H   37822 37816
 $$$822F       2 0000627C 00000001     H   38117 37818B 37832B 38123
 $$$824F       2 000061E2 00000001     H   37884 37847B
 $$$825F       2 0000627C 00000001     H   38113 37894B
 $$$826F       2 00006270 00000001     H   38086 37945B
 $$$827F       2 00006270 00000001     H   38077 37976B
 $$$827S       2 00006212 00000001     H   37968 38076B
 $$$829F       2 0000624E 00000001     H   38051 37997B
 $$$829S       2 00006226 00000001     H   37991 38050B
 $$$831F       2 0000623A 00000001     H   38021 38012B
 $$$832B       4 00006286 00000001     I   38141 38239
 $$$832E       2 00006280 00000001     H   38131 38125
1QUERY    (QUER2193) (12:52) (15MAR04) Ordinary Symbol and Literal Cross Reference                                          Page  157
 $$$832F       2 000062E0 00000001     H   38234 38127B 38141B 38238
 $$$834F       2 000062C8 00000001     H   38195 38182B
 $$$835B       4 000062EA 00000001     I   38256 38405
 $$$835E       2 000062E4 00000001     H   38246 38240
 $$$835F       2 0000637C 00000001     H   38399 38242B 38256B 38404
 $$$837F       2 00006372 00000001     H   38372 38294B
 $$$838E       2 00006380 00000001     H   38412 38406
 $$$838F       2 00006380 00000001     H   38418 38408B
 $$$839B       4 00006388 00000001     I   38446 38602
 $$$839E       2 00006384 00000001     H   38436 38430
 $$$839F       2 0000641E 00000001     H   38595 38432B 38446B 38601
 $$$841F       2 00006414 00000001     H   38568 38490B
 $$$842B       4 0000642E 00000001     I   38634 38787
 $$$842E       2 00006422 00000001     H   38609 38603
 $$$842F       2 000064C4 00000001     H   38783 38605B 38634B 38786
 $$$842T       2 00006432 00000001     H   38637 38623B
 $$$845F       2 000064BA 00000001     H   38756 38678B
 $$$846E       2 000064C8 00000001     H   38794 38788
 $$$846F       2 000064F4 00000001     H   38842 38790B
 $$$847        1 00000054 00000001 A   U   38875 38872  38874
 $$$849B       1 0000651E 00000001     X   38912 38919U
 $$$850F       2 00006554 00000001     H   39052 38953B
 $$$851F       2 00006554 00000001     H   39048 38996B
 $$$852        1 00000050 00000001 A   U   39080 39077  39079
 $$$854B       1 0000657E 00000001     X   39139 39146U
 $$$855F       2 000065A2 00000001     H   39206 39191B
 $$$856F       2 000065CC 00000001     H   39260 39237B
 $$$857B       4 000065D6 00000001     I   39289 39422
 $$$857F       2 00006618 00000001     H   39413 39275B 39289B 39419
 $$$858B       4 000065CE 00000001     I   39275 39420
 $$$859F       2 00006618 00000001     H   39409 39311B 39394B
 $$$859S       2 000065E4 00000001     H   39303 39408B
 $$$861F       2 000065FA 00000001     H   39355 39340B
 $$$862F       2 00006606 00000001     H   39378 39368B
 $$$864B       4 0000662A 00000001     I   39455 39587
 $$$864E       2 0000661C 00000001     H   39429 39421  39423
 $$$864F       2 0000666E 00000001     H   39578 39425B 39442B 39455B 39584
 $$$866B       4 00006620 00000001     I   39442 39585
 $$$867F       2 0000666E 00000001     H   39574 39476B 39559B
 $$$867S       2 0000663A 00000001     H   39468 39573B
 $$$869F       2 00006650 00000001     H   39520 39505B
 $$$870F       2 0000665C 00000001     H   39543 39533B
 $$$872E       2 00006672 00000001     H   39594 39586  39588
 $$$872F       2 000066DA 00000001     H   39771 39590B 39607B 39620B
 $$$875F       2 000066DA 00000001     H   39767 39641B 39752B
 $$$875S       2 00006690 00000001     H   39633 39766B
 $$$877F       2 000066A6 00000001     H   39685 39670B
 $$$878F       2 000066C8 00000001     H   39736 39698B
 $$$879F       2 000066C8 00000001     H   39732 39717B
 $$$88B        1 00000032 00000001     X    8394  8401U
 $$$881        1 00000058 00000001 A   U   39805 39802  39804
 $$$883B       1 00006702 00000001     X   39845 39852U
 $$$884F       2 00006726 00000001     H   39903 39888B
 $$$885B       4 00006752 00000001     I   39968 39982
 $$$885F       2 0000675E 00000001     H   39978 39968B 39981
 $$$886E       2 00006762 00000001     H   39989 39983
 $$$886F       2 0000676A 00000001     H   39996 39985B
 $$$887B       4 0000677A 00000001     I   40016 40029
 $$$887F       2 00006782 00000001     H   40026 40016B 40028
1QUERY    (QUER2193) (12:52) (15MAR04) Ordinary Symbol and Literal Cross Reference                                          Page  158
 $$$888E       2 00006786 00000001     H   40036 40030
 $$$888F       2 00006788 00000001     H   40046 40032B
 $$$889        1 00000050 00000001 A   U   40074 40071  40073
 $$$89F        2 000000FC 00000001     H    8552  8542B
 $$$891B       1 000067B0 00000001     X   40138 40145U
 $$$892F       2 00006808 00000001     H   40308 40215B 40235B
 $$$892S       2 000067B8 00000001     H   40189 40307B
 $$$895F       2 00006804 00000001     H   40303 40271B
 $$$895T       2 000067E8 00000001     H   40274 40260B
 $$$897F       2 000067FC 00000001     H   40297 40284B
 $$$898        1 00000044 00000001 A   U   40454 40451  40453
 $$$90F        2 00000108 00000001     H    8578  8563B
 $$$900B       1 0000689C 00000001     X   40497 40504U
 $$$901F       2 000068AE 00000001     H   40534 40523B
 $$$902F       2 000068D2 00000001     H   40578 40563B
 $$$903F       2 000068F2 00000001     H   40606 40591B
 $$$904F       2 00006914 00000001     H   40636 40621B
 $$$905F       2 0000697C 00000001     H   40785 40661B
 $$$906F       2 0000694A 00000001     H   40707 40692B
 $$$907F       2 0000697C 00000001     H   40776 40747B
 $$$907T       2 00006962 00000001     H   40750 40722B 40734B
 $$$91F        2 00000114 00000001     H    8605  8589B
 $$$910F       2 00006A0A 00000001     H   41003 40815B
 $$$910T       2 0000698C 00000001     H   40818 40805B
 $$$912F       2 000069FA 00000001     H   40987 40830B
 $$$913F       2 000069CE 00000001     H   40925 40861B
 $$$914F       2 00006A4C 00000001     H   41119 41017B
 $$$915F       2 00006A4C 00000001     H   41115 41032B
 $$$916F       2 00006A7A 00000001     H   41179 41133B
 $$$917F       2 00006A76 00000001     H   41169 41148B
 $$$918F       2 00006AB0 00000001     H   41270 41194B
 $$$919F       2 00006AC8 00000001     H   41315 41285B 41302B
 $$$92F        2 00000120 00000001     H    8631  8616B
 $$$921        1 00000050 00000001 A   U   41360 41357  41359
 $$$923B       1 00006AFC 00000001     X   41400 41407U
 $$$924F       2 00006B20 00000001     H   41458 41443B
 $$$925F       2 00006C24 00000001     H   41900 41475B
 $$$926F       2 00006B34 00000001     H   41498 41489B
 $$$927F       2 00006B7C 00000001     H   41577 41549B
 $$$928F       2 00006B88 00000001     H   41597 41588B
 $$$929F       2 00006BA4 00000001     H   41645 41630B
 $$$93F        2 0000012C 00000001     H    8658  8642B
 $$$930B       4 00006BAA 00000001     I   41659 41673
 $$$930F       2 00006BB6 00000001     H   41669 41659B 41672
 $$$931E       2 00006BBA 00000001     H   41680 41674
 $$$931F       2 00006BC2 00000001     H   41687 41676B
 $$$932F       2 00006BF0 00000001     H   41778 41712B 41751B
 $$$932S       2 00006BCE 00000001     H   41703 41777B
 $$$935F       2 00006C24 00000001     H   41891 41793B
 $$$936F       2 00006C24 00000001     H   41882 41821B
 $$$937F       2 00006C24 00000001     H   41878 41843B
 $$$938        1 00000050 00000001 A   U   41924 41921  41923
 $$$94F        2 0000013E 00000001     H    8685  8672B
 $$$940B       1 00006E24 00000001     X   42051 42058U
 $$$941F       2 00006E48 00000001     H   42109 42094B
 $$$942F       2 00006E6E 00000001     H   42152 42137B
 $$$943F       2 00006E98 00000001     H   42228 42167B
 $$$944F       2 00006E98 00000001     H   42224 42211B
 $$$944T       2 00006E8E 00000001     H   42214 42186B 42198B
1QUERY    (QUER2193) (12:52) (15MAR04) Ordinary Symbol and Literal Cross Reference                                          Page  159
 $$$947        1 00000050 00000001 A   U   42257 42254  42256
 $$$949B       1 00006EC0 00000001     X   42293 42300U
 $$$95F        2 00000150 00000001     H    8712  8699B
 $$$950F       2 00006EE4 00000001     H   42351 42336B
 $$$951F       2 00006F06 00000001     H   42379 42364B
 $$$952B       4 00006F16 00000001     I   42410 42428
 $$$952F       2 00006F26 00000001     H   42421 42396B 42410B 42425
 $$$953B       4 00006F0E 00000001     I   42396 42426
 $$$954B       4 00006F36 00000001     I   42462 42479
 $$$954E       2 00006F2A 00000001     H   42435 42427  42429
 $$$954F       2 00006F46 00000001     H   42473 42431B 42448B 42462B 42476
 $$$956B       4 00006F2E 00000001     I   42448 42477
 $$$957E       2 00006F4A 00000001     H   42486 42478  42480
 $$$957F       2 00006F62 00000001     H   42499 42482B
 $$$958F       2 00006F84 00000001     H   42530 42515B
 $$$96B        4 00000156 00000001     I    8727  8763
 $$$96F        2 00000168 00000001     H    8757  8727B  8762
 $$$960F       2 00006FAC 00000001     H   42579 42565B
 $$$960S       2 00006F94 00000001     H   42557 42578B
 $$$962F       2 00006FEA 00000001     H   42708 42602B
 $$$963F       2 00006FE4 00000001     H   42691 42630B
 $$$964F       2 00006FE4 00000001     H   42687 42652B
 $$$965F       2 0000701E 00000001     H   42777 42724B
 $$$966        1 00000050 00000001 A   U   42811 42808  42810
 $$$968B       1 00007052 00000001     X   42846 42853U
 $$$969F       2 00007076 00000001     H   42904 42889B
 $$$97F        2 00000168 00000001     H    8753  8742B
 $$$970F       2 0000708C 00000001     H   42938 42919B
 $$$971F       2 000070B6 00000001     H   43010 42955B
 $$$971S       2 0000708C 00000001     H   42947 43009B
 $$$973F       2 000070A8 00000001     H   42994 42984B
 $$$974        1 00000050 00000001 A   U   43041 43038  43040
 $$$975F       2 000071E8 00000001     H   43473 43162B
 $$$976B       1 000070E4 00000001     X   43080 43087U
 $$$977F       2 00007108 00000001     H   43138 43123B
 $$$978F       2 00007116 00000001     H   43166 43150B
 $$$979F       2 00007132 00000001     H   43233 43203B
 $$$979S       2 0000711C 00000001     H   43195 43232B
 $$$98E        2 0000016C 00000001     H    8770  8764
 $$$98F        2 000001B6 00000001     H    8893  8766B
 $$$982B       4 0000714C 00000001     I   43263 43304
 $$$982F       2 00007166 00000001     H   43300 43263B 43303
 $$$983F       2 00007166 00000001     H   43296 43280B
 $$$984E       2 0000716A 00000001     H   43311 43305
 $$$984F       2 000071A0 00000001     H   43386 43307B
 $$$985F       2 0000718C 00000001     H   43354 43339B
 $$$986F       2 000071A0 00000001     H   43377 43367B
 $$$987F       2 000071C2 00000001     H   43432 43417B
 $$$988        1 00000050 00000001 A   U   43482 43479  43481
 $$$99F        2 000001B6 00000001     H    8889  8807B  8857B
 $$$99S        2 0000016C 00000001     H    8777  8888B
 $TAB          1 00000005 00000001 A   N    8033 16195  25633  25675  37620  39288
 @RAR          0 00000000 FFFFFFF0     @    1151  2176   2184B
 @R0           0 00000000 FFFFFFFE     @     706   982U
 @R1           0 00000000 FFFFFFFD     @     719   978U  2182   2183  11155  11300  11524  11669  13619  15334  15353
                                                 15372  15429  15492  16195  16215  16243  16262  16323  16803U 16888
                                                 16952  17161  17244  17489  17572  17773  17856  18727  18810  19037
                                                 19901  20111  20130  20149  20176  20218  20297  20310  20323  20329
                                                 22761  22844  26251U 26394  26407  26471  26621  27250  30654  33819
1QUERY    (QUER2193) (12:52) (15MAR04) Ordinary Symbol and Literal Cross Reference                                          Page  160
                                                 33879  36065  36081  36151  36555U 36668  36743  36776  36808  36840
                                                 36910  36999  37012  37025  37383  37402  37421  37620  37626  37708
                                                 37727  37733  37831  37886  38140  38146  38255  38293  38367  38445
                                                 38489  38563  38620  38633  38677  38751  39703  40163  40212  40232
                                                 40257  40270  40276  41774U
 @R10          0 00000000 FFFFFFF4     @     836   942U
 @R11          0 00000000 FFFFFFF3     @     849   938U 42015U
 @R12          0 00000000 FFFFFFF2     @     862   934U
 @R13          0 00000000 FFFFFFF1     @     875   930U
 @R14          0 00000000 FFFFFFF0     @     888   926U
 @R15          0 00000000 FFFFFFEF     @     901   922U 17313  18309U 22416U 22639U 23858U 24152U 24599U 24935U 26802
                                                 30742  31086U 31455U 32195  32552U 33126U 35560U 35967U 36451U 38980U
                                                 41574U
 @R2           0 00000000 FFFFFFFC     @     732   974U  9738U 13655  15046U 23246U 24185U 29479U 29631U 29904U 31156
                                                 33751U 33968U 34729U 35292U 36969U 38083U 40782U 41536  43006U
 @R3           0 00000000 FFFFFFFB     @     745   970U 16323M 23394U 23678U 23817  23864  25633  25642  25675  25681
                                                 26789  27687  27726  27939  27993  30675  33764U 39288  39294  39454
                                                 39460  39619  39625  43240U
 @R4           0 00000000 FFFFFFFA     @     758   966U 14197U 22158U 23328U 23406U 23790U 24053U 27596  27848  31205
                                                 31215  31284  31462M 33527U 35166U 35311U 37450U 39405U 39570U 39763U
                                                 40053U 40984U 41112U 41267U 41888U 42503  42540M 42540  42705U 42774U
                                                 43383U
 @R5           0 00000000 FFFFFFF9     @     771   962U  8983U  9429U  9708U 10182U 10753U 12989U 13934  14202  15751U
                                                 16390U 17321U 17599U 17882U 18836U 20642U 21679U 21863U 22273U 22870U
                                                 24315U 24631U 24901U 25833  25903  26277U 26848U 27021U 27504U 27756U
                                                 28023U 28302U 29986U 30204U 31471U 31606U 31709U 31821U 32075U 32481U
                                                 33207U 35316U 35799U 36278U 37057U 37455U 38854U 39064U 39784U 40058U
                                                 41344U 41908U 42236U 42795U 43025U 43466U
 @R6           0 00000000 FFFFFFF8     @     784   958U  8988U  9424U 10177U 10758U 11177U 11322U 11401U 11546U 11691U
                                                 11775U 11859U 11943U 12022U 12111U 12200U 12289U 12378U 12462U 13133U
                                                 13331U 13415U 13499U 13677U 13756U 14219U 18841U 19092U 19272U 20647U
                                                 20875U 20959U 21044U 21128U 21207U 21286U 21365U 21674U 24320U 24442U
                                                 25490U 30191U 30796U 31651  31714  31763  31826  32266  32486  39779U
                                                 40433U 41732U 41897U 42241U 43453U
 @R7           0 00000000 FFFFFFF7     @     797   954U  8998U  9434U 10187U 10763U 11182U 11327U 11406U 11551U 11696U
                                                 11780U 11864U 11948U 12027U 12116U 12205U 12294U 12383U 12467U 13143U
                                                 13336U 13420U 13504U 13682U 13761U 14229U 15761U 16400U 17331U 17604U
                                                 17887U 18851U 19097U 19277U 20657U 20880U 20964U 21049U 21133U 21212U
                                                 21291U 21370U 21684U 21868U 22283U 22880U 24330U 24447U 24642U 24969U
                                                 25507U 25699U 25941U 26287U 26853U 27026U 27509U 27761U 28028U 28307U
                                                 29996U 30209U 30806U 31481U 31847U 32080U 33217U 35321U 35809U 36283U
                                                 37067U 37460U 38864U 39069U 39794U 40063U 40443U 41349U 41913U 42246U
                                                 42800U 43030U 43471U
 @R8           0 00000000 FFFFFFF6     @     810   950U  8993U 13138U 14224U 15756U 16395U 17326U 18846U 20652U 22278U
                                                 22875U 24325U 25502U 26282U 29991U 30801U 31476U 33212U 35804U 37062U
                                                 38859U 39789U 40438U
 @R9           0 00000000 FFFFFFF5     @     823   946U
 ABSCENT       1 00000000 00000000 A   T    2192  2192
 ADDER         1 00000000 00000024     T   21901 21901
 ALLOENDP      4 00000018 FFFFFFCD     A   30914 31107M 31128M 31183M 31227  31296  31326  31345
 ALLOFLAG      1 00000000 FFFFFFCD     R   30900 30904
 ALLOFPUB    128 00000000 FFFFFFCD        30904 31003M 31098  31319  31406
 ALLOMODP      4 00000004 FFFFFFCD     A   30908 31079M 31393
 ALLONO        4 00000008 FFFFFFCD     A   30909 31280M 31460
 ALLONXP       4 0000001C FFFFFFCD     A   30915 31108M 31129M 31164M 31189  31251  31308M 31327  31346
 ALLOSVFN      4 0000000C FFFFFFCD     F   30911 31104M 31125M 31155  31279
 ALLOSVIT      4 00000014 FFFFFFCD     A   30913 31106M 31127M 31148M 31148  31163M 31181  31234  31277  31303  31325
                                                 31344
 ALLOSVLN      4 00000010 FFFFFFCD     F   30912 31105M 31126M 31154
1QUERY    (QUER2193) (12:52) (15MAR04) Ordinary Symbol and Literal Cross Reference                                          Page  161
 ALLOWA       32 00000000 FFFFFFCD     J   30922 30943  30972U 30982M 30982  31489  31491  31492
 ASCTBL        1 00000000 00000000 A   T    2200  2200
 BLTBL         1 00000000 00000000 A   T    2202  2202
 BR            7 00000007 00000001 A   #    1041  8389M  9036M  9472M 10228M 11070M 11215M 11360M 11439M 11584M 11729M
                                                 11813M 11897M 11981M 12060M 12149M 12238M 12327M 12416M 12611M 13285M
                                                 13369M 13453M 13537M 13715M 13829M 14343M 15899M 16459M 17389M 17642M
                                                 17950M 18977M 19138M 19542M 20829M 20913M 20997M 21082M 21166M 21245M
                                                 21324M 21413M 21730M 21985M 22342M 22975M 24396M 24490M 24687M 25102M
                                                 25557M 25759M 26004M 26333M 26898M 27110M 27557M 27809M 28068M 28405M
                                                 30037M 30271M 30946M 31540M 31896M 32158M 33264M 35461M 35879M 36354M
                                                 37152M 37523M 38907M 39134M 39840M 40133M 40492M 41395M 42046M 42288M
                                                 42841M 43075M
 CHECKIOB      1 00000000 00000000 A   T    2248  2248
 CHKKW         1 00000000 0000002F     T   27057 27057
 CLRPSH        1 00000000 00000022     T   20794 20794
 CLRTEXT       1 00000000 00000023     T   21900 21900
 COLLPSH       1 00000000 0000000D     T   13250 13250  18942
 COLSPSH       1 00000000 00000016     T   18927 18927
 COMMAND       1 00000000 00000000 A   T    2188  2188
 COMMSEG       1 00000000 00000000 A   T    2189  2189
 CP         4096 00000000 FFFFFFEC     J    6202  1177U
 CP#XSTK       1 00000010 FFFFFFEC A   U    3934  3935
 CPACFLG       1 000005D5 FFFFFFEC     R    4037  4041   4046   4051   4056   4061
 CPACFLN       4 000005C4 FFFFFFEC     F    4029  4064   4064
 CPAFLAG       1 000005C3 FFFFFFEC     R    4001  4005   4010   4015   4020
 CPALLNO       4 000005A4 FFFFFFEC     F    3990 19744
 CPANAME       8 00000588 FFFFFFEC     C    3983  4079   4079  19697M
 CPATITL      80 000005D6 FFFFFFEC     C    4069 19698M 21891
 CPAUTFLG      1 000008A9 FFFFFFEC     R    4347  4351   4356   4361   4366
 CPCHFLAG      1 00000B68 FFFFFFEC     R    4974  4978
 CPDELTA       4 00000738 FFFFFFEC     F    4086 19597
 CPDFLG        1 0000084C FFFFFFEC     R    4234  4238   4243   4248   4253   4258
 CPDFLG2       1 0000084D FFFFFFEC     R    4263  4267   4272   4277   4282   4287   4292
 CPERRID       8 00000886 FFFFFFEC     C    4333 17313M
 CPEXFLG       1 00000758 FFFFFFEC     R    4103  4107
 CPEXFLG2      1 00000759 FFFFFFEC     R    4113  4122   4132
 CPEXFLG3      1 0000075A FFFFFFEC     R    4139  4143   4148
 CPEXTFLG      1 00000E28 FFFFFFEC     R    5785  5789   5794   5799   5804   5809   5814
 CPFABORT    128 00000D5A FFFFFFEC         5551  2152M  2152   2157M  2157
 CPFALL        1 00000010 FFFFFFEC A   U    5317 18014
 CPFCOL        2 00000C4E FFFFFFEC     H    5016 19182  19183
 CPFDUMP     128 00000D55 FFFFFFEC         5416 23981M 24018M
 CPFERROR     64 00000D5A FFFFFFEC         5556  2151M  2151   2156M  2156
 CPFNLST       1 00000020 FFFFFFEC A   U    5405 19703
 CPFNTEX       1 00000040 FFFFFFEC A   U    5403  5404
 CPFRDEXE      2 00000D89 FFFFFFEC         5729 18466
 CPFRDEXT      3 00000D89 FFFFFFEC         5739 18034  18421  18502
 CPFRDRNG      1 00000D88 FFFFFFEC     R    5671  5675   5680   5685   5690   5695   5700   5705
 CPFRDSRC      1 00000D89 FFFFFFEC     R    5710  5719   5729   5739
 CPFTYPED     16 00000477 FFFFFFEC         3608 20191
 CPFUNUM       1 00000080 FFFFFFEC A   U    5402  5404
 CPFXDFLG      1 000007E4 FFFFFFEC     R    4181  4185   4190
 CPGFLG1       1 00000474 FFFFFFEC     R    3544  3548   3553   3558   3563   3568   3898   3898
 CPGFLG10      1 0000047D FFFFFFEC     R    3781  3785   3790   3795   3800   3805   3810
 CPGFLG11      1 0000047E FFFFFFEC     R    3816  3820   3825
 CPGFLG12      1 0000047F FFFFFFEC     R    3831  3835   3840   3845
 CPGFLG13      1 00000480 FFFFFFEC     R    3851  3855
 CPGFLG14      1 00000481 FFFFFFEC     R    3861  3865   3870   3875   3880   3885
 CPGFLG4       1 00000477 FFFFFFEC     R    3597  3608   3617   3626   3635   3644
1QUERY    (QUER2193) (12:52) (15MAR04) Ordinary Symbol and Literal Cross Reference                                          Page  162
 CPGFLG5       1 00000478 FFFFFFEC     R    3650  3654   3659   3664   3669   3674   3679   3684   3689
 CPGFLG6       1 00000479 FFFFFFEC     R    3695  3699   3704   3709
 CPGFLG7       1 0000047A FFFFFFEC     R    3715  3719   3724   3729   3734
 CPGFLG8       1 0000047B FFFFFFEC     R    3740  3744   3749   3754   3759
 CPGFLG9       1 0000047C FFFFFFEC     R    3765  3769   3775
 CPINIT        1 00000174 FFFFFFEC     U    2714  6171
 CPJESFLG      1 000009E1 FFFFFFEC     R    4446  4450   4455   4460   4465   4470   4475   4480   4485
 CPJESFLY      1 000009FD FFFFFFEC     R    4496  4500   4505   4510
 CPJESHFL      1 000009E0 FFFFFFEC     R    4431  4435   4440   4519   4519
 CPLCOL        2 00000C50 FFFFFFEC     H    5017 19179  19181
 CPLFLG1       1 00000D50 FFFFFFEC     R    5314 18016M
 CPLFLG10      1 00000D59 FFFFFFEC     R    5537  5541
 CPLFLG11      1 00000D5A FFFFFFEC     R    5547  5551   5556   5561   5566
 CPLFLG12      1 00000D5B FFFFFFEC     R    5572  5576
 CPLFLG14      1 00000D5C FFFFFFEC     R    5582  5586   5591   5596   5601   5606
 CPLFLG5       1 00000D54 FFFFFFEC     R    5399 19705M
 CPLFLG6       1 00000D55 FFFFFFEC     R    5412  5416   5421   5426   5431   5436   5441
 CPLFLG7       1 00000D56 FFFFFFEC     R    5447  5451   5456   5461   5466   5471
 CPLFLG8       1 00000D57 FFFFFFEC     R    5477  5481   5486   5491   5496
 CPLFLG9       1 00000D58 FFFFFFEC     R    5502  5506   5511   5516   5521   5526   5531
 CPLOCALZ      1 00000C48 FFFFFFEC     U    5004  6165   6165
 CPMFLG        1 0000084F FFFFFFEC     R    4301  4305
 CPMODFLG      1 00000C78 FFFFFFEC     R    5032  5036   5041   5046   5051   5056
 CPNAMELN      1 00000010 FFFFFFEC A   U    3927  4174
 CPNEDPFX     10 00000E29 FFFFFFEC     X    5818  5819   5820
 CPNSCANP      4 0000008C FFFFFFEC     A    2587  8488   8495   8511  12668  12675  12691  14402  14409  14424  15267
                                                 16553  16560  16576  17435  17688  18046  18053  18069  18093  18100
                                                 18116  19626  19633  19649  22423  22430  22446  23054  23061  23077
                                                 26936  26943  26958  27137  27144  27159
 CPNUMFLG      1 00000C79 FFFFFFEC     R    5062  5074
 CPORVCMD      1 00000140 FFFFFFEC     R    2596  2600   2605   2610   2615   2620   2625   2630   2635   2640   2640
                                                  2691   2691
 CPORVFLG      1 00000149 FFFFFFEC     R    2647  2651   2656   2661   2666   2671   2676   2681   2686
 CPORVWF       1 00000150 FFFFFFEC     R    2699  2703
 CPOSCANX      4 00000CA8 FFFFFFEC     F    5231  5298   5298
 CPQINFOQ      4 0000022C FFFFFFEC     A    2821 16794  16796M 18152  22046  22117M 24521  26629  27293  31575  31595M
 CPR          11 0000000B 00000001 A   #    1105  1177U
 CPRACBAD     16 000001FC FFFFFFEC         2765  2799   2799   2800   2800
 CPRACF1       1 000001FC FFFFFFEC     R    2746  2750   2755   2760   2765   2770   2775   2780   2785   2801
 CPRACPSW     32 000001FC FFFFFFEC         2760  2798   2798   2800   2800
 CPRACUND     64 000001FC FFFFFFEC         2755  2798   2798   2799   2799
 CPRCVCUR      4 00000730 FFFFFFEC     A    4082  4084   4084
 CPREGS        4 00000004 FFFFFFEC     A    2477 23251M 24190M
 CPRFLG        1 000008AA FFFFFFEC     R    4372  4376   4381   4386   4391   4396   4401
 CPS         254 00000344 FFFFFFEC     X    3516  3519   3520   3522   3522
 CPSACCT       5 000003B4 FFFFFFEC     C    3115  3278   3278  26198
 CPSAMCOD      1 00000A22 FFFFFFEC     R    4568  4576   4586   4596   4605   4614   4623   4633   4642   4651
 CPSAMFLG      1 00000A21 FFFFFFEC     R    4528  4532   4537   4542   4547   4552   4557   4562   4673   4673
 CPSCNFLG      1 00000CD0 FFFFFFEC     R    5244  5255   5264   5275
 CPSCNF2       1 00000CD1 FFFFFFEC     R    5280  5284
 CPSCNMAX      1 00000014 FFFFFFEC A   U    5296  5297
 CPSCRI        2 00000434 FFFFFFEC     H    3505  3510   3510
 CPSEG        60 00000050 FFFFFFEC     X    2585  8925   8948   8966   9311   9334   9368   9400   9629   9670   9688
                                                  9771   9998  10039  10057  10100  10149  10708  10731  12855  12880
                                                 12898  12923  12948  13018  13040  13058  13116  14056  14081  14099
                                                 14124  14149  14492  14510  14528  14563  14635  14657  14739  14789
                                                 14824  14879  14902  14937  14955  14983  15001  15029  15141  15185
                                                 15207  15225  15318  15448  15471  15511  15539  15557  15584  15607
                                                 15634  15657  15687  15725  15994  16663  16707  16729  16747  16821
1QUERY    (QUER2193) (12:52) (15MAR04) Ordinary Symbol and Literal Cross Reference                                          Page  163
                                                 16844  16869  16907  16930  16971  16999  17017  17045  17073  17091
                                                 17118  17142  17183  17218  17236  17294  17470  17511  17546  17564
                                                 17754  17795  17830  17848  18231  18253  18602  18655  18673  18708
                                                 18749  18784  18802  20238  20272  20370  20397  20426  20451  20504
                                                 20522  20559  20588  20606  20629  21532  21596  21625  22187  22209
                                                 22227  22255  22605  22628  22657  22742  22783  22818  22836  23155
                                                 23183  23209  23292  23442  23464  23514  23532  23560  23621  23644
                                                 23665  23970  24007  24079  24246  24268  26158  26181  26432  26450
                                                 26496  26514  26561  26579  26675  26835  26997  27275  27374  27396
                                                 27475  28136  28205  28233  28287  28492  28517  28535  28559  28587
                                                 28625  28653  28682  28718  28746  28781  28809  28848  28876  28898
                                                 28920  28955  28977  28995  29048  29097  29146  29208  29226  29297
                                                 29315  29342  29377  29395  29423  29441  29469  29508  29582  29603
                                                 29621  29725  29764  29802  29840  29876  29923  29945  29975  30133
                                                 30348  30386  30404  30428  30458  30488  30506  30536  30567  30783
                                                 32619  32656  32694  32712  32734  32762  32787  32805  32849  32870
                                                 32898  32916  32953  32987  33009  33027  33057  36103  36130  36173
                                                 36200  37320  37350
 CPSEGCOD      1 00000050 FFFFFFEC     R    2502  2511   2521   2531   2541   2551   2561   2571
 CPSFL         1 00000384 FFFFFFEC     R    2853  2857   2862   2867   2872   2877
 CPSFLG        1 000003F8 FFFFFFEC     R    3393  3397   3402   3407   3412   3417   3422   3427   3432
 CPSFLG2       1 000003F9 FFFFFFEC     R    3438  3442   3447   3452
 CPSFL2        1 00000385 FFFFFFEC     R    2883  2887   2892   2897   2902
 CPSFL3        1 00000386 FFFFFFEC     R    2908  2912   2917   2922
 CPSFL4        1 00000387 FFFFFFEC     R    2928  2932   2937   2942
 CPSFL5        1 00000388 FFFFFFEC     R    2948  2952   2957   2962
 CPSFSPR      32 000003BE FFFFFFEC         3218  9269   9593   9955  10331
 CPSGRP        2 000003B7 FFFFFFEC     C    3117 12775  12792  23696  33994  33999  34755  34760
 CPSKAFL       1 000003BF FFFFFFEC     R    3249  3253   3258   3263   3268   3273
 CPSKIFL       1 000003BE FFFFFFEC     R    3204  3208   3213   3218   3223   3228   3233   3238   3243
 CPSNAME      20 000003C6 FFFFFFEC     C    3285 34060M 34060  34092  34097  34821M 34821  34853  34858
 CPSOF         1 000001F8 FFFFFFEC     X    2736  2738   2738
 CPSOFLAG      1 00000416 FFFFFFEC     R    3463  3467   3472   3477   3482   3487
 CPSOPST       4 000003C4 FFFFFFEC     F    3283  3512   3512
 CPSPORT       8 00000354 FFFFFFEC     C    2847  2967   2967
 CPSQFLG       1 000003EC FFFFFFEC     R    3312  3316
 CPSSFLG       1 000003BB FFFFFFEC     R    3122  3126   3131   3136   3141   3146   3151
 CPSSTART      4 00000344 FFFFFFEC     F    2839  2843   2843   3279   3279   3384   3384   3516   3516
 CPSSTAT       1 0000038F FFFFFFEC     R    3059  3063   3068   3073   3078   3083   3088   3093
 CPSTACF       1 000003BC FFFFFFEC     R    3157  3161   3166   3171   3176   3181   3186   3191   3196
 CPSTART       4 00000000 FFFFFFEC     C    2475  6169   6173
 CPSTFLAG      1 000003EA FFFFFFEC     R    3290  3294   3299   3304
 CPSTVIRT      5 0000038C FFFFFFEC         3021 15706  17275
 CPSTYPE       1 0000038C FFFFFFEC     R    2972  2981   2991   3001   3011   3021   3031   3041   3051
 CPSUFLG       1 000003EE FFFFFFEC     R    3327  3331   3336   3341   3346   3351   3356   3361   3366
 CPSUFLG2      1 000003EF FFFFFFEC     R    3372  3376   3381
 CPSUSER       3 000003B4 FFFFFFEC     C    3116 34034  34039  34795  34800
 CPSVPGM       8 0000039C FFFFFFEC     C    3105  3111   3111
 CPS1ST        4 0000038C FFFFFFEC     F    2969  3514   3514
 CPTEMPP#      1 0000005F FFFFFFEC A   U    4422  4424
 CPTRMFL1      1 00000C7A FFFFFFEC     R    5080  5084   5089   5094   5218   5218
 CPTRMFL2      1 00000C7B FFFFFFEC     R    5100  5104   5109   5114   5119   5124   5129
 CPTRMFL3      1 00000C7C FFFFFFEC     R    5135  5139   5144   5149   5154   5159   5164   5169
 CPTRMFL4      1 00000C7D FFFFFFEC     R    5175  5179   5184   5189   5194   5199   5204   5209
 CPUSED        1 00000FBC FFFFFFEC A   U    6169  6170
 CPVACURS      8 00000AF0 FFFFFFEC     D    4947  4948   4949
 CPVCURS       8 00000AE0 FFFFFFEC     D    4941  4942   4943
 CPVFLAG       1 00000AC8 FFFFFFEC     R    4742  4746   4751   4756   4761   4766
 CPVFLAG2      1 00000AC9 FFFFFFEC     R    4772  4776   4781   4786   4791   4796   4801
1QUERY    (QUER2193) (12:52) (15MAR04) Ordinary Symbol and Literal Cross Reference                                          Page  164
 CPVFLAG3      1 00000ACA FFFFFFEC     R    4807  4811   4816   4821   4826   4831   4836
 CPVFLAG4      1 00000ACB FFFFFFEC     R    4842  4846   4851   4856
 CPVLFLAG      1 00000ACE FFFFFFEC     R    4911  4915   4920   4925
 CPVMODE       1 00000ACC FFFFFFEC     R    4864  4868   4873   4878   4883   4888   4893   4898   4903
 CPVTWID       2 00000AD0 FFFFFFEC     H    4931  4934   4934
 CPWK1         4 00000D60 FFFFFFEC     F    5615  5630   5653
 CPWK2         4 00000D64 FFFFFFEC     F    5616  5631   5645
 CPWK3         4 00000D68 FFFFFFEC     F    5617  5632   5646
 CPWK4         4 00000D6C FFFFFFEC     F    5618  5633   5647  18002M 19159
 CPWK5         4 00000D70 FFFFFFEC     F    5619  5635   5640   5648
 CPWK6         4 00000D74 FFFFFFEC     F    5620  5636   5641   5649   5656   5658
 CPWK7         4 00000D78 FFFFFFEC     F    5621  5634   5650
 CPXFLAG       1 000007FD FFFFFFEC     R    4209  4213
 CPXSTATE      4 000007F8 FFFFFFEC     F    4203  4216   4216
 CV         4016 00000000 FFFFFFEE     J    2378  1186U
 CVABORT       4 000007DA FFFFFFEE     I    2157 15730B 15737B 15743B 17299B 17306B 20056B 21537B 23214B 23261B 32810B
                                                 33062B 33069B
 CVABSRTN      4 0000088C FFFFFFEE     V    2192  2167
 CVABTMSG      4 000007CC FFFFFFEE     I    2152 19767B 31263B
 CVBLANKS    235 000004D8 FFFFFFEE     C    1972 11104  11249  11473  11618  13571  26743  30443  33832  39704
 CVBRMSK       1 00000751 FFFFFFEE     X    2108  2109   2110
 CVCFLAG       1 00000A00 FFFFFFEE     R    2273  2277   2282   2287   2292   2297
 CVCHKST       8 000009F0 FFFFFFEE     D    2263  2353   2353
 CVCHKST2      8 00000E28 FFFFFFEE     D    2356  2359   2359
 CVCOMRTN      4 0000087C FFFFFFEE     V    2188  2158
 CVCSCONN      4 00000238 FFFFFFEE     F    1511 34586  34587M
 CVCSREQ       4 0000023C FFFFFFEE     F    1512 35016  35017M
 CVCURJCB      4 000001C8 FFFFFFEE     A    1457 13986  14720  14860  16097  21820  23138  23218  23720  24157  26136
                                                 27456  27952  29547  29857  31434  31689  31801  32320  32455  33390
                                                 33928  34689  40620
 CVDBGFLG      1 000004CC FFFFFFEE     R    1962  1966
 CVDEBUGP      4 00000734 FFFFFFEE     V    2089 40335  40355  40370  40396  40418
 CVEBCTBL      4 000008B4 FFFFFFEE     V    2201 30666
 CVENT         4 0000074C FFFFFFEE     I    2106  8389B  9036B  9472B 10228B 11070B 11215B 11360B 11439B 11584B 11729B
                                                 11813B 11897B 11981B 12060B 12149B 12238B 12327B 12416B 12611B 13285B
                                                 13369B 13453B 13537B 13715B 13829B 14343B 15899B 16459B 17389B 17642B
                                                 17950B 18977B 19138B 19542B 20829B 20913B 20997B 21082B 21166B 21245B
                                                 21324B 21413B 21730B 21985B 22342B 22975B 24396B 24490B 24687B 25102B
                                                 25557B 25759B 26004B 26333B 26898B 27110B 27557B 27809B 28068B 28405B
                                                 30037B 30271B 30946B 31540B 31896B 32158B 33264B 35461B 35879B 36354B
                                                 37152B 37523B 38907B 39134B 39840B 40133B 40492B 41395B 42046B 42288B
                                                 42841B 43075B
 CVENTBR       2 00000750 FFFFFFEE     I    2107  2108
 CVERRMSG      4 000007C8 FFFFFFEE     I    2151  9102B  9130B  9282B  9416B  9606B  9968B 10165B 10344B 12807B 14668B
                                                 14755B 14805B 14840B 15040B 15236B 16543B 16758B 17263B 17592B 17875B
                                                 18191B 18264B 18829B 21636B 22668B 22863B 23475B 23571B 23708B 24279B
                                                 26057B 27192B 27286B 27339B 27407B 27491B
 CVERROR       4 000007D6 FFFFFFEE     I    2156  2172B  8474B 14575B 17314B 23050B 23672B 37405B 37424B
 CVEXIRTN      4 0000077C FFFFFFEE     V    2136  2132
 CVEXNO        1 00000000 00000027     T   21913 21913
 CVFCHRKBPR
               8 000004C9 FFFFFFEE         1877  1893   1893
 CVFCHRKBSE
               4 000004C9 FFFFFFEE         1882  1893   1893
 CVFCHRKCPR
               2 000004C9 FFFFFFEE         1899  1915   1915
 CVFCHRKCSE
               1 000004C9 FFFFFFEE         1904  1915   1915
 CVFCHRUBPR
1QUERY    (QUER2193) (12:52) (15MAR04) Ordinary Symbol and Literal Cross Reference                                          Page  165
             128 000004C9 FFFFFFEE         1833  1849   1849
 CVFCHRUBSE
              64 000004C9 FFFFFFEE         1838  1849   1849
 CVFCHRUCPR
              32 000004C9 FFFFFFEE         1855  1871   1871
 CVFCHRUCSE
              16 000004C9 FFFFFFEE         1860  1871   1871
 CVFL          1 000004C4 FFFFFFEE     R    1629  1633   1638   1643   1648   1653   1658   1663   1668
 CVFL2         1 000004C5 FFFFFFEE     R    1674  1678   1683   1688   1693   1698   1703   1708   1713
 CVFL3         1 000004C6 FFFFFFEE     R    1719  1723   1728   1733   1738   1743   1748   1753   1758
 CVFL4         1 000004C7 FFFFFFEE     R    1764  1768   1773   1778   1783   1788   1793   1798
 CVFL5         1 000004C8 FFFFFFEE     R    1804  1808   1813   1818   1823
 CVFL6         1 000004C9 FFFFFFEE     R    1829  1833   1838   1850   1855   1860   1872   1877   1882   1894   1899
                                                  1904   1916
 CVHEAP#       1 00000200 FFFFFFEE A   U    1535  1536
 CVINVRTN      4 00000888 FFFFFFEE     V    2191  2161
 CVJESFLG      1 000004CA FFFFFFEE     R    1922  1926
 CVLNKRGS      4 00000780 FFFFFFEE     F    2138  2113M  2139  10298M 26100M 28470M 30093M 31044M 31071M 33168M 33320M
                                                 33348M 33429M 35194M 35526M 35935M 36419M 37208M 37252M 37598M 39199M
                                                 39896M 40571M 40599M 40629M 40700M 41451M 42102M 42145M 42344M 42372M
                                                 42492M 42523M 42897M 43131M 43246M 43347M 43425M
 CVLNKRTN      4 000007B0 FFFFFFEE     U    2139  2128M
 CVLOCK1       1 00000088 FFFFFFEE     R    1280  1284   1289
 CVLOCK2       1 00000089 FFFFFFEE     R    1294  1298
 CVLOCK3       1 0000008A FFFFFFEE     R    1303  1307
 CVLOCK4       1 0000008B FFFFFFEE     R    1312  1316
 CVLOGMOD      1 00000068 FFFFFFEE     R    1267  1271
 CVMACH        1 00000067 FFFFFFEE     R    1227  1231   1236   1241   1246   1251   1256   1261
 CVMACHID      8 0000000C FFFFFFEE     C    1207 34137  34142  34898  34903
 CVMILRTN      4 00000884 FFFFFFEE     V    2190  2170
 CVNEXT        4 000007DE FFFFFFEE     I    2158  8681B  8708B  8976B  9787B 13068B 13126B 15414B 16875B 17450B 17734B
                                                 18446B 18688B 20194B 20635B 22266B 22722B 24308B 37386B
 CVNOARTN      4 00000890 FFFFFFEE     V    2193  2164
 CVNVALID      4 000007E4 FFFFFFEE     I    2161 19080B
 CVNWDATE      4 00000608 FFFFFFEE     F    1995  1999   1999
 CVNWMPG#      1 00000008 FFFFFFEE A   U    1997  1998
 CVNXTMSG      4 000007D0 FFFFFFEE     I    2153 22264B
 CVPFXRTN      1 00000000 00000000 A   T    2136  2136
 CVPGFLAG      1 00000A01 FFFFFFEE     R    2303  2307   2312   2317
 CVPIOSZ       1 00004F80 FFFFFFEE A   U    1366  1368
 CVPPDBQH      4 0000009C FFFFFFEE     A    1324  1325
 CVPSENDP      4 00000214 FFFFFFEE     A    1492 13084  27679  31107  31326M 31755  32059
 CVPSFNO       1 000003E9 FFFFFFEE A   N    1488  1490  27050  27618  28338  31504  43498
 CVPSLNO       1 000007CF FFFFFFEE A   N    1489  1490  27051  28339  31505  43499
 CVPSNXP       4 00000218 FFFFFFEE     A    1493 31108  31327M
 CVPSTAB       4 00000210 FFFFFFEE     A    1491 13083  25866M 25866  25902  27651M 27651  27664  31106  31325M 31729
                                                 32058  42469
 CVPXSZ        1 00000008 FFFFFFEE A   U    1367  1368
 CVQMONQ       4 00000228 FFFFFFEE     A    1504 23139  23140M 23305  33585
 CVR          12 0000000C 00000001 A   #    1118  1186U
 CVRKEY        1 00000008 FFFFFFEE A   U    2061  2062
 CVRSET        1 00000002 FFFFFFEE A   U    2055 33723  41863  42672
 CVSEGRTN      4 00000880 FFFFFFEE     V    2189  2153
 CVSTACK#      1 00000080 FFFFFFEE A   U    1527  1528
 CVSTART       4 00000000 FFFFFFEE     C    1200  2371
 CVTRC         4 00000768 FFFFFFEE     I    2128  2114B 10299B 26101B 28471B 30094B 31045B 31072B 33169B 33321B 33349B
                                                 33430B 35195B 35527B 35936B 36420B 37209B 37253B 37599B 39200B 39897B
                                                 40572B 40600B 40630B 40701B 41452B 42103B 42146B 42345B 42373B 42493B
                                                 42524B 42898B 43132B 43247B 43348B 43426B
1QUERY    (QUER2193) (12:52) (15MAR04) Ordinary Symbol and Literal Cross Reference                                          Page  166
 CVTRCRTN      4 00000778 FFFFFFEE     V    2135  2129
 CVUPPTBL      4 000008A8 FFFFFFEE     V    2198 13631  26801
 CVUSENDP      4 00000220 FFFFFFEE     A    1499 13077  27931  31128  31345M 31643  32034
 CVUSFNO       1 00000001 FFFFFFEE A   N    1495  1497  27048  27870  28340  31506  43496
 CVUSLNO       1 000003E7 FFFFFFEE A   N    1496  1497  27049  28341  31507  43497
 CVUSNXP       4 00000224 FFFFFFEE     A    1500 31129  31346M
 CVUSTAB       4 0000021C FFFFFFEE     A    1498 13076  25796M 25796  25832  27903M 27903  27916  31127  31344M 31623
                                                 32033  42417
 CVVOL#        1 00000005 FFFFFFEE A   U    2346  2347
 CVWTOFLG      1 000004CB FFFFFFEE     R    1932  1936   1941   1946   1951   1956
 CVWYLSSN      8 00000028 FFFFFFEE     C    1212 34178  34183  34939  34944
 DEBUGSG       1 00000000 00000000 A   T    2089  2089
 DEQUOTE       1 00000000 0000000B     T   12510 12510
 DESABORT      1 00000004 FFFFFFEC A   U    6185 19343  19346  19347
 DESRTRN       1 00000080 FFFFFFEC A   U    6178 19343  19346  19347
 DEV          12 00000000 FFFFFFEB     J    4727  4735
 DEVMAX#       1 00000002 FFFFFFEC A   U    4678  4735
 DEVTYPE       1 00000001 FFFFFFEB     R    4695  4704   4714
 DISPATCH      1 00000000 0000002A     T   25011 25011
 DISPSVIT      2 00001284 00000001     H   13813 13079B 13086B
 DOTTBL        1 00000000 00000000 A   T    2205  2205
 DRENCFLG      1 00000F9F FFFFFFEC     R    6133  6137   6142   6147   6152   6157
 DRENPROT      1 00000F9E FFFFFFEC     R    6120  6128
 DSENDP        4 00000004 FFFFFFDA     F   13794 13883M 13919
 DSNON        40 00000E90 FFFFFFEC     C    5853  5854
 DSNWADSN     44 00000E5C FFFFFFEC     C    5840  5841   5842   5843   5852   5860   6091   6097   6099   6105   6108
                                                  6110   6113   6162
 DSNWAF4       1 00000F37 FFFFFFEC     R    5908  5912   5917   5922   5927   5932   5937   5942   5947
 DSNWAF5       1 00000F38 FFFFFFEC     R    5953  5957   5962   5967   5972   5977   5982   5987   5992
 DSNWAF6       1 00000F39 FFFFFFEC     R    5998  6002   6007   6012   6017   6022   6027   6032   6037
 DSNWAF7       1 00000F3A FFFFFFEC     R    6043  6047   6052   6057   6062
 DSNXG         1 00000004 FFFFFFEC A   U    5845  5847
 DSNXGL        1 00000003 FFFFFFEC A   U    5846  5847
 DSNXU         1 00000007 FFFFFFEC A   U    5847  5849
 DSNXUL        1 00000004 FFFFFFEC A   U    5848  5849
 DSSIZ         1 00000108 FFFFFFEC A   U    6091  6099   6108   6113
 DSSVITP       4 00000000 FFFFFFDA     F   13793 13882M 13887
 DSVNEXT       4 00001366 00000001     I   14202 14007B
 DSWA        448 00000000 FFFFFFDA     J   13805 13826  13855U 13865M 13865  13866M 13866  14237  14239  14240
 DTB           1 00000000 0000001F     T   19349 19349  27060  28332
 EBCTBL        1 00000000 00000000 A   T    2201  2201
 EBCTBL7       1 00000000 00000000 A   T    2204  2204
 ECBLIST       1 00000000 00000000 A   T    2064  2064
 EPARTBL       1 00000000 00000000 A   T    2196  2196
 EXTOPEN       1 00000000 0000001D     T   19342 19342
 FDE           4 00000000 FFFFFFE3     J    7903  7915   7916  25156U 37959U 39325U 39490U 39655U
 FDELEN        2 00000002 FFFFFFE3     H    7895 25221  25269  25340  25383  37985  39367  39374M 39532  39539M
 FDEMAP      404 00000000 FFFFFFE2     J    7923 39223U 39242  39255M 39255  39256M 39256  39297  39462  39627
 FDEMAPE       4 00000190 FFFFFFE2     X    7916 39381  39546  39739
 FDEMAX#       1 00000064 00000001 A   N    7848  7915
 FDENEXT       1 00000004 FFFFFFE3     X    7896 25480  38072  39380  39545  39738
 FDETCENTER
               3 00000000 FFFFFFE3         7889 25334
 FDETLEFT      1 00000000 FFFFFFE3         7869 25192  39351M 39516M 39681M
 FDETRIGHT
               2 00000000 FFFFFFE3         7879 25263  39728M
 FDETYPE       1 00000000 FFFFFFE3     R    7860  7869   7879   7889  25473  37975  39339  39504  39669
 FMAPTOK       8 00000000 FFFFFFC8     C   39103 39703M 39704M 39716
 FMAPWA        8 00000000 FFFFFFC8     J   39110 39131  39160U 39802  39804  39805
1QUERY    (QUER2193) (12:52) (15MAR04) Ordinary Symbol and Literal Cross Reference                                          Page  167
 FMTTIME       1 00000000 00000031     T   30842 30842  35359
 FNAMEFIN      1 00000000 0000001C     T   19341 19341
 FNAMESCN      1 00000000 00000014     T   18882 18882
 FNAMPSHF      1 00000000 00000015     T   18897 18897
 FPUBMAT       4 0000432E 00000001     I   27745 27713B 27720B
 FREECORE      1 00000000 00000029     T   24995 24995  35347  37104  43506
 FREESTRC      2 000070CA 00000001     H   43061 12509  41759B 43501
 FSR           0 00000000 00000001 A   #    1028  8383   9006M  9031   9442M  9467  10195M 10223  10771M 11065  11190M
                                                 11210  11335M 11355  11414M 11434  11559M 11579  11704M 11724  11788M
                                                 11808  11872M 11892  11956M 11976  12035M 12055  12124M 12144  12213M
                                                 12233  12302M 12322  12391M 12411  12475M 12605  13151M 13280  13344M
                                                 13364  13428M 13448  13512M 13532  13690M 13710  13769M 13823  14237M
                                                 14337  15769M 15893  16383M 16408M 16453  17339M 17384  17612M 17637
                                                 17895M 17944  18859M 18972  19105M 19133  19285M 19536  20665M 20824
                                                 20888M 20908  20972M 20992  21057M 21077  21141M 21161  21220M 21240
                                                 21299M 21319  21378M 21408  21692M 21725  21856M 21876M 21979  22291M
                                                 22336  22888M 22969  24338M 24391  24455M 25096  25515M 25754  25949M
                                                 25998  26295M 26328  26861M 26893  27034M 27105  27517M 27552  27745M
                                                 27769M 27804  28012M 28036M 28063  28315M 28399  30004M 30032  30217M
                                                 30265  30814M 30940  31489M 31535  31855M 35455  35701M 35817M 37147
                                                 37468M 37517  38872M 38902  39077M 39128  39802M 39835  40071M 40487
                                                 41357M 41390  41921M 42041  42254M 42283  42808M 42836  43038M 43070
                                                 43479M
 FSTRCOM       2 0000714A 00000001     H   43255 43221B
 FUSRMAT       4 000043D2 00000001     I   28012 27980B 27987B
 GETCORE       1 00000000 00000018     T   19325 19325  25010  31508  41951
 GETFIELD      2 00003C84 00000001     H   25543 25163B 41952
 GETQINFO      2 0000389C 00000001     H   24476 24472
 GETQSTAT      2 000038FE 00000001     H   24673 24669
 GETRSC        1 00000000 00000038     T   35371 35371  41968  43502
 HIBAL         1 00000000 FFFFFFFF     J     691   707    720    733    746    759    772    785    798    811    824
                                                   837    850    863    876    889    902
 INENTRY       6 00000000 FFFFFFE1     J    7948 36512U 36945U 39923U 39933M 39933  39991M 41979  42969U 42996
 INLEN         2 00000004 FFFFFFE1     H    7940 36962  39934M
 INLINK        4 00000000 FFFFFFE1     A    7938 36516  36517M 39991M 42973
 INTEXT        1 00000006 FFFFFFE1     X    7941 36958  39942
 INVALID       1 00000000 00000000 A   T    2191  2191
 JCB         208 00000000 FFFFFFE9     J    6594 14917U 23228U 23604U 24167U 29357U 29565U 29891U 31444U 33667U 33715M
                                                 33938U 34699U 41563U 41807U 41855M 42616U 42664M
 JCBACCT       5 0000004A FFFFFFE9     C    6356 31449  41568
 JCBAFL        1 00000062 FFFFFFE9     R    6439  6443   6448   6453   6458   6463   6468   6473   6478
 JCBAPDSP     16 00000062 FFFFFFE9         6458 33702  33715M 33715  41842  41855M 41855  42651  42664M 42664
 JCBBFL        1 00000063 FFFFFFE9     R    6484  6488   6493   6498   6503   6508   6513   6518
 JCBBILLX      8 00000088 FFFFFFE9     D    6569  6577   6577
 JCBGRP        2 0000004D FFFFFFE9     C    6358 14970  14975  29410  29415
 JCBRSCF1      1 00000064 FFFFFFE9     R    6524  6528   6533   6538
 JCBSEQ        2 00000048 FFFFFFE9     H    6355 14925  23653  29365  29591  29897  33947  34708  41567
 JCBSFLG1      1 00000065 FFFFFFE9     R    6544  6548   6553
 JCBUSER       3 0000004A FFFFFFE9     C    6357 15016  15021  29456  29461
 JCBWFL        1 00000060 FFFFFFE9     R    6368  6372   6377   6382   6387   6392   6397   6402   6407   6435
 JCBWWFGEN
              16 00000061 FFFFFFE9         6432 23239M 24178M 33680  33692M 41820  41832M 42629  42641M
 JCBWWFL       1 00000061 FFFFFFE9     R    6413  6417   6422   6427   6432
 KWR         504 00000000 FFFFFFE8     J    6805 25973  26238U
 KWRACCT       5 00000000 FFFFFFE8     X    6614 26244M
 KWRDSTRT      1 00000005 FFFFFFE8     U    6616  6778   6778
 KWRSTART      4 00000000 FFFFFFE8     F    6611  6792
 KWRUSER       3 00000000 FFFFFFE8     C    6612  6614   6614
 LEXATRTN      1 00000040 FFFFFFEC A   U    6180 19343
1QUERY    (QUER2193) (12:52) (15MAR04) Ordinary Symbol and Literal Cross Reference                                          Page  168
 LOCALTOD      1 00000000 00000034     T   35358 35358  41966
 LOCATRTN      1 00000000 FFFFFFEC A   U    6182 19343  19346  19347
 LOWTBL        1 00000000 00000000 A   T    2199  2199
 LRTRIM        1 00000000 00000011     T   15798 15798  19332  21909  41947
 LSR           8 00000008 00000001 A   #    1066  8383   9006M  9031   9442M  9467  10195M 10223  10771M 11065  11190M
                                                 11210  11335M 11355  11414M 11434  11559M 11579  11704M 11724  11788M
                                                 11808  11872M 11892  11956M 11976  12035M 12055  12124M 12144  12213M
                                                 12233  12302M 12322  12391M 12411  12475M 12605  13151M 13280  13344M
                                                 13364  13428M 13448  13512M 13532  13690M 13710  13769M 13823  14237M
                                                 14337  15769M 15893  16408M 16453  17339M 17384  17612M 17637  17895M
                                                 17944  18859M 18972  19105M 19133  19285M 19536  20665M 20824  20888M
                                                 20908  20972M 20992  21057M 21077  21141M 21161  21220M 21240  21299M
                                                 21319  21378M 21408  21692M 21725  21876M 21979  22291M 22336  22888M
                                                 22969  24338M 24391  24455M 24485  24650M 24682  24977M 25096  25515M
                                                 25552  25707M 25754  25949M 25998  26295M 26328  26861M 26893  27034M
                                                 27105  27517M 27552  27769M 27804  28036M 28063  28315M 28399  30004M
                                                 30032  30217M 30265  30814M 30940  31489M 31535  31855M 31891  32088M
                                                 32152  33225M 33259  35329M 35455  35817M 35874  36291M 36348  37075M
                                                 37147  37468M 37517  38872M 38902  39077M 39128  39802M 39835  40071M
                                                 40127  40451M 40487  41357M 41390  41921M 42041  42254M 42283  42808M
                                                 42836  43038M 43070  43479M
 LXCATRTN      1 00000060 FFFFFFEC A   U    6181 19346
 MALL          1 00000000 00000005     T   11049 11049  13264  17361  18956  20808  22912  24375
 MAXSTRLN      1 00000100 FFFFFFE4 A   N    7827  7828
 MILERR        1 00000000 00000000 A   T    2190  2190
 MINT          1 00000000 0000000C     T   13234 13234
 MIXFMT        1 00000000 00000033     T   30846 30846
 MKFFINFO      1 00000000 0000001B     T   19336 19336
 MPARM         1 00000000 00000002     T   10794 10794  10809  10839  10854  13174  18911
 MPINT         1 00000000 00000003     T   10824 10824  10914  20733
 MPLNO         1 00000000 00000021     T   20778 20778
 MPSYMLN       1 00000000 00000020     T   20763 20763
 MTOKEN        1 00000000 00000004     T   10869 10869  10884  10899  10929  10944  10959  10974  10989  11004  11019
                                                 11034  13189  13204  13219  18881  20688  20703  20718  20748  24360
 NBLTBL        1 00000000 00000000 A   T    2203  2203
 NDETRNG       1 00000000 0000001A     T   19335 19335
 NOACTION      1 00000000 00000000 A   T    2193  2193
 NPARTBL       1 00000000 00000000 A   T    2197  2197
 NPATALLO      1 00000000 00000036     T   35368 35368
 NPATCLRU      1 00000000 0000003A     T   35376 35376  41963
 NPATCLS       1 00000000 0000003B     T   35377 35377  41959  43505
 NPATCTRL      1 00000000 0000003D     T   43504 43504
 NPATOPEN      1 00000000 00000039     T   35372 35372
 NPATREAD      1 00000000 0000003C     T   37105 37105  41939
 NPATSETU      1 00000000 00000037     T   35369 35369
 NSCAN         1 00000000 00000007     T   12494 12494  14253  15788  19319  21898  25001  27061  28330
 NSCNCB      176 00000000 FFFFFFED     J    2462  2588   8496   8497   8498   8501M  8502M  8504M  8514M  8515M  8516M
                                                 12676  12677  12678  12681M 12682M 12684M 12694M 12695M 12696M 14410
                                                 14411  14412  14415M 14416M 14417M 14427M 14428M 14429M 15268  15269
                                                 16561  16562  16563  16566M 16567M 16569M 16579M 16580M 16581M 17436
                                                 17437  17689  17690  18054  18055  18056  18059M 18060M 18062M 18072M
                                                 18073M 18074M 18101  18102  18103  18106M 18107M 18109M 18119M 18120M
                                                 18121M 19634  19635  19636  19639M 19640M 19642M 19652M 19653M 19654M
                                                 22431  22432  22433  22436M 22437M 22439M 22449M 22450M 22451M 23062
                                                 23063  23064  23067M 23068M 23070M 23080M 23081M 23082M 26944  26945
                                                 26946  26949M 26950M 26951M 26961M 26962M 26963M 27145  27146  27147
                                                 27150M 27151M 27152M 27162M 27163M 27164M
 NSCNFLGS      1 00000008 FFFFFFED     R    2399  2403   2408
 NSCNKWS       4 00000028 FFFFFFED     A    2448  8496   8504M  8514M 12676  12684M 12694M 14410  14417M 14427M 16561
1QUERY    (QUER2193) (12:52) (15MAR04) Ordinary Symbol and Literal Cross Reference                                          Page  169
                                                 16569M 16579M 18054  18062M 18072M 18101  18109M 18119M 19634  19642M
                                                 19652M 22431  22439M 22449M 23062  23070M 23080M 26944  26951M 26961M
                                                 27145  27152M 27162M
 NSCNLEN       4 00000004 FFFFFFED     F    2396 15269  17437  17690
 NSCNLOC       4 00000000 FFFFFFED     A    2395 15268  17436  17689
 NSCNSKIP      4 00000024 FFFFFFED     A    2447  8497   8501M  8515M 12677  12681M 12695M 14411  14415M 14428M 16562
                                                 16566M 16580M 18055  18059M 18073M 18102  18106M 18120M 19635  19639M
                                                 19653M 22432  22436M 22450M 23063  23067M 23081M 26945  26949M 26962M
                                                 27146  27150M 27163M
 NSCNSTOP      4 00000020 FFFFFFED     A    2446  8498   8502M  8516M 12678  12682M 12696M 14412  14416M 14429M 16563
                                                 16567M 16581M 18056  18060M 18074M 18103  18107M 18121M 19636  19640M
                                                 19654M 22433  22437M 22451M 23064  23068M 23082M 26946  26950M 26963M
                                                 27147  27151M 27164M
 NSCNTYPE      1 00000018 FFFFFFED     R    2417  2421   2426   2431   2436   2441
 OFINDONE      4 00005336 00000001     I   33195 32405B 33188B
 OFINEXIT      2 0000533C 00000001     H   33203 32237B 32404B 32518B 33187B 33193B
 OPENCURC      4 0000002C FFFFFFCC     F   32127 32211M 32211  32441  32442M 32579  32600  32934  32997
 OPENENDP      4 00000004 FFFFFFCC     A   32122 32197M 32258
 OPENFIND      2 00005052 00000001     H   32143 32037B 32062B
 OPENMASP      4 00000028 FFFFFFCC     A   32126 32206M 32206  32369M 32507M 32507  32529  33080
 OPENNAME     32 00000008 FFFFFFCC     C   32124 32195M 32342  32749  32754  32885  32890
 OPENOURC      4 00000030 FFFFFFCC     F   32128 32216M 32216  32466  32467M 32600  32636  32682
 OPENRTRY      2 00005080 00000001     H   32201 33071B
 OPENSETU      2 0000534A 00000001     H   33250 32007B 32403B 33186B
 OPENSVIT      4 00000000 FFFFFFCC     A   32121 32196M 32219
 OPENWA       52 00000000 FFFFFFCC     J   32135 32155  32184U 32194M 32194  33225  33227  33228
 PUTLINEX      1 00000000 00000028     T   21915 21915
 QCLOSE        2 0000315E 00000001     H   21969 21965
 QCLSNAME     32 00000004 FFFFFFD4     C   21953 22038M 22242  22247
 QCLSNO        4 00000000 FFFFFFD4     F   21952 22037M 22096  22197
 QCLWA        36 00000000 FFFFFFD4     J   21960 21982  22011U 22291  22293  22294
 QDELLOOP      2 00000422 00000001     H    9797  9895B
 QERR          2 00001886 00000001     H   15698 15476B 15562B 15639B
 QERRSEG       4 0000184A 00000001     I   15642 15100B
 QEXEC         2 0000207E 00000001     H   17628 17624
 QFBYLNO       4 00000014 FFFFFFD5     F   19419 19597M 19745  21279M 21644
 QFCBUFP       4 0000000C FFFFFFD8     A   15866 15938M 16289
 QFCCMDP       4 00000004 FFFFFFD8     A   15865 15937M 16161
 QFCDONE       4 00001C04 00000001     I   16289 16280B
 QFCERR        4 00001BFA 00000001     I   16279 16003B 16048B 16077B 16107B 16136B 16167B 16182B
 QFCFLAG       1 00000000 FFFFFFD8     R   15858 15862
 QFCFOPEN    128 00000000 FFFFFFD8        15862 16143M 16362
 QFCOK         2 00001C02 00000001     H   16286 16198B 16228B
 QFCSVIB     428 00000014 FFFFFFD8     X   15867 15942
 QFCWA       448 00000000 FFFFFFD8     J   15874 15896  15925U 15935M 15935  15936M 15936  16408  16410  16411
 QFETAPP       2 00002E20 00000001     H   21068 20749
 QFETBY        2 00002E78 00000001     H   21231 20779
 QFETCH        2 000028DA 00000001     H   19526 19522
 QFETDISP      2 00002D9C 00000001     H   20815 20689
 QFETFMT       2 00002DF4 00000001     H   20983 20719
 QFETLINE      2 00002F88 00000001     H   21716 21712
 QFETPRT       4 00002C34 00000001     F   20677 21897
 QFETSEG       2 00002ED0 00000001     H   21399 21903
 QFETTO        2 00002E4C 00000001     H   21152 20764
 QFETUNFM      2 00002DC8 00000001     H   20899 20704
 QFETWA      600 00000000 FFFFFFD5     J   19517 19539  19568U 19572  19582U 19592M 19592  19593M 19593  19594M 19594
                                                 20665  20667  20668  20859U 20943U 21027U 21112U 21196U 21275U 21354U
                                                 21459U
 QFETWRAP      2 00002EA4 00000001     H   21310 20734
1QUERY    (QUER2193) (12:52) (15MAR04) Ordinary Symbol and Literal Cross Reference                                          Page  170
 QFFAPPEND
              64 00000000 FFFFFFD5        19404 19687  21121M
 QFFDISPLAY
             128 00000000 FFFFFFD5        19399 19675  19722  20868M 21507
 QFFLAG        1 00000000 FFFFFFD5     R   19395 19399  19404  19409
 QFFUNFORMATTED
              32 00000000 FFFFFFD5        19409 19846  19930  20952M 21037M
 QFLAG         1 00000008 FFFFFFD9     R   14291 14295  14300  14305
 QFLASTLN      4 00000018 FFFFFFD5     F   19420 19598M 20540  20564  21643M
 QFLDONE       4 00002FF0 00000001     I   21856 21772B 21834B
 QFNTBLS       4 00000008 FFFFFFD5     F   19415 19912  19913M 20439  20472
 QFOPEN      128 00000008 FFFFFFD9        14295 15247M 15398
 QFSEGBUF    512 00000058 FFFFFFD5     X   19510 19793  19798
 QFSEGCB      60 0000001C FFFFFFD5     X   19509 19806  19821  19982  20000  20033  20051  20089
 QFSEGCBCOD
               1 0000001C FFFFFFD5     R   19426 19435  19445  19455  19465  19475  19485  19495
 QFSEGCBUSR
               4 00000054 FFFFFFD5     A   19508 19826M
 QFTOLNO       4 00000010 FFFFFFD5     F   19418 19596M 19737  19772M 21200M 21556  21601  21642  21645M
 QFWRAP        4 0000000C FFFFFFD5     F   19417 19599M 19954  19974  20005  20006  21358M
 QINFLINK      4 00000000 FFFFFFDF     A    8018 16794M 22046  22077  22117  22134M 22134  31595
 QINFNO        4 00000004 FFFFFFDF     F    8019 16795M 18166  22096  24547  24625  26643  27307
 QINFO         8 00000000 FFFFFFDF     J    8026 16768  16782U 16793M 16793  18166  22046  22063U 22134M 22139  24543U
                                                 26643  27307  31591U 31596
 QMONACT       2 00003870 00000001     H   24382 24361
 QMONFACT    128 00000000 FFFFFFD2        22933 23944  24435M
 QMONFLAG      1 00000000 FFFFFFD2     R   22929 22933
 QMONINTX      4 00000008 FFFFFFD2     F   22939 22940  22940
 QMONITOR      2 00003468 00000001     H   22959 22955
 QMONLOOP      2 00003722 00000001     H   23875 24141B
 QMONNWT       2 00003552 00000001     H   23197 23297B
 QMONPRT       4 00003820 00000001     F   24349 25009
 QMONSNO       4 00000004 FFFFFFD2     F   22937 23482M 24217
 QMONSVIB    428 00000018 FFFFFFD2     X   22943 23030
 QMONTRCP     16 00000008 FFFFFFD2     X   22940 23739M 23739  23783  23783M 23783  23784M 23784M 23796  23797  23797
 QMONWA      452 00000000 FFFFFFD2     J   22950 22972  23001U 23005  23015U 23025M 23025  23026M 23026  24338  24340
                                                 24341  24426U
 QMW          44 00000000 FFFFFFDD     J    8264 23111  23126U 23136M 23136  23305  23331U 23367M 23368  23389U 33585
                                                 33602U
 QMWJCBP       4 00000028 FFFFFFDD     A    8257 23138M 33650
 QMWLINK       4 00000000 FFFFFFDD     A    8254 23139M 23305  23345  23367M 23367  33585  33616
 QMWNAME      32 00000008 FFFFFFDD     C    8256 23137M 33635
 QMWNO         4 00000004 FFFFFFDD     F    8255 23272  23400  33657M
 QNETERR       2 0000177E 00000001     H   15420 15085B 15283B 15305B
 QOPEN         2 00001C54 00000001     H   16443 16439
 QOPENPRT      4 00001F7C 00000001     F   17350 19318
 QOSVIB      428 00000000 FFFFFFD7     X   16427 16498
 QOWA        428 00000000 FFFFFFD7     J   16434 16456  16485U 16495M 16495  16496M 16496  17339  17341  17342
 QRERRSEG      4 000023E8 00000001     I   18693 18397B
 QRESERR       4 000033AA 00000001     I   22727 22721B
 QRESET        2 0000323E 00000001     H   22326 22322
 QRESPRT       4 00003440 00000001     F   22901 25000
 QRESSGP       4 00000000 FFFFFFD3     A   22310 22418M 22487  22509  22687  22709
 QRESWA        4 00000000 FFFFFFD3     J   22317 22339  22368U 22888  22890  22891
 QRLCNT        4 0000000C FFFFFFD6     F   17918 18579M 18579  18590  18623  19253  19254M
 QRPRT         4 000024D0 00000001     F   18900 19338
 QRPRTX        4 00002480 00000001     F   18870 19337
 QRSERV        2 00002570 00000001     H   18963 18912
 QRSNO         4 00000000 FFFFFFD6     F   17914 18137  18196M 18202  18241  19085M
1QUERY    (QUER2193) (12:52) (15MAR04) Ordinary Symbol and Literal Cross Reference                                          Page  171
 QRSVIBP       4 00000004 FFFFFFD6     A   17915 18284M 19260
 QRUN          2 00002170 00000001     H   17934 17930
 QRUNRTN       2 000025BC 00000001     H   19124 19344
 QRUSG         4 00000008 FFFFFFD6     A   17916 18311M 18341  18363  18385  18561  19221  19243
 QRWA         16 00000000 FFFFFFD6     J   17925 17947  17976U 17980  17990U 18000M 18000  18859  18861  18862  19007U
                                                 19169U
 QSCREATE      2 00000210 00000001     H    9022 12496
 QSDELETE      2 0000035A 00000001     H    9458 12497
 QSEND         2 00001FA4 00000001     H   17375 17371
 QSEXISTS      4 00000324 00000001     I    9391  9178B  9200B
 QSUPDATE      2 00000534 00000001     H   10214  8749B  8880B
 QSVIB       428 00000010 FFFFFFD9     X   14311 14383
 QTOKPTR       4 00000000 FFFFFFD9     A   14287 14381M 14455
 QUERY         2 0000141A 00000001     H   14327 14323
 QUERYFC       2 00001AE8 00000001     H   15883 15879
 QUER2193      1 00000000 00000001     R    1018  1016
 QUPDLOOP      2 0000016C 00000001     H    8774  8870B
 QWA         444 00000000 FFFFFFD9     J   14318 14340  14369U 14379M 14379  14380M 14380  15769  15771  15772
 QXERRSEG      4 000020DA 00000001     I   17739 17720B 17733B
 RAR          14 0000000E 00000001 A   #    1144  2128   2129M  2130B  2132M  2133B  2153M  2154B  2158M  2159B  2161M
                                                  2162B  2164M  2165B  2167M  2168B  2170M  2171M  2171B  2177   8380
                                                  8472M  8473M  8473B  8507M  8508M  8508B  8521M  8522M  8522B  8679M
                                                  8680M  8680B  8706M  8707M  8707B  8734M  8735M  8735B  8749M  8797M
                                                  8798M  8798B  8832M  8833M  8833B  8880M  8928M  8929M  8929B  8933M
                                                  8934M  8934B  8951M  8952M  8952B  8969M  8970M  8970B  9008M  9011B
                                                  9028   9176M  9177M  9177B  9198M  9199M  9199B  9205M  9206M  9206B
                                                  9295M  9296M  9296B  9314M  9315M  9315B  9319M  9320M  9320B  9337M
                                                  9338M  9338B  9371M  9372M  9372B  9403M  9404M  9404B  9408M  9409M
                                                  9409B  9444M  9447B  9464   9536M  9537M  9537B  9540M  9541M  9541B
                                                  9632M  9633M  9633B  9637M  9638M  9638B  9673M  9674M  9674B  9691M
                                                  9692M  9692B  9774M  9775M  9775B  9780M  9781M  9781B  9823M  9824M
                                                  9824B  9858M  9859M  9859B 10001M 10002M 10002B 10006M 10007M 10007B
                                                 10042M 10043M 10043B 10060M 10061M 10061B 10103M 10104M 10104B 10109M
                                                 10110M 10110B 10152M 10153M 10153B 10157M 10158M 10158B 10197M 10200B
                                                 10220  10668M 10669M 10669B 10711M 10712M 10712B 10716M 10717M 10717B
                                                 10734M 10735M 10735B 10773M 10776B 11062  11107M 11108M 11108B 11192M
                                                 11195B 11207  11252M 11253M 11253B 11337M 11340B 11352  11416M 11419B
                                                 11431  11476M 11477M 11477B 11561M 11564B 11576  11621M 11622M 11622B
                                                 11706M 11709B 11721  11790M 11793B 11805  11874M 11877B 11889  11958M
                                                 11961B 11973  12037M 12040B 12052  12126M 12129B 12141  12215M 12218B
                                                 12230  12304M 12307B 12319  12393M 12396B 12408  12477M 12480B 12602
                                                 12687M 12688M 12688B 12719M 12720M 12720B 12822M 12823M 12823B 12858M
                                                 12859M 12859B 12883M 12884M 12884B 12901M 12902M 12902B 12926M 12927M
                                                 12927B 12951M 12952M 12952B 12978M 12979M 12979B 13021M 13022M 13022B
                                                 13043M 13044M 13044B 13061M 13062M 13062B 13079M 13086M 13119M 13120M
                                                 13120B 13153M 13156B 13277  13346M 13349B 13361  13430M 13433B 13445
                                                 13514M 13517B 13529  13692M 13695B 13707  13771M 13774B 13820  14023M
                                                 14024M 14024B 14059M 14060M 14060B 14084M 14085M 14085B 14102M 14103M
                                                 14103B 14127M 14128M 14128B 14152M 14153M 14153B 14179M 14180M 14180B
                                                 14239M 14242B 14334  14420M 14421M 14421B 14434M 14435M 14435B 14495M
                                                 14496M 14496B 14513M 14514M 14514B 14531M 14532M 14532B 14566M 14567M
                                                 14567B 14584M 14585M 14585B 14609M 14610M 14610B 14638M 14639M 14639B
                                                 14660M 14661M 14661B 14742M 14743M 14743B 14747M 14748M 14748B 14792M
                                                 14793M 14793B 14797M 14798M 14798B 14827M 14828M 14828B 14832M 14833M
                                                 14833B 14882M 14883M 14883B 14887M 14888M 14888B 14905M 14906M 14906B
                                                 14940M 14941M 14941B 14958M 14959M 14959B 14986M 14987M 14987B 15004M
                                                 15005M 15005B 15032M 15033M 15033B 15072M 15073M 15073B 15144M 15145M
                                                 15145B 15188M 15189M 15189B 15210M 15211M 15211B 15228M 15229M 15229B
                                                 15276M 15277M 15277B 15281M 15282M 15282B 15303M 15304M 15304B 15321M
1QUERY    (QUER2193) (12:52) (15MAR04) Ordinary Symbol and Literal Cross Reference                                          Page  172
                                                 15322M 15322B 15407M 15408M 15408B 15451M 15452M 15452B 15456M 15457M
                                                 15457B 15474M 15475M 15475B 15514M 15515M 15515B 15542M 15543M 15543B
                                                 15560M 15561M 15561B 15587M 15588M 15588B 15592M 15593M 15593B 15610M
                                                 15611M 15611B 15637M 15638M 15638B 15660M 15661M 15661B 15690M 15691M
                                                 15691B 15728M 15729M 15729B 15735M 15736M 15736B 15771M 15774B 15890
                                                 15972M 15973M 15973B 15997M 15998M 15998B 16031M 16032M 16032B 16134M
                                                 16135M 16135B 16165M 16166M 16166B 16180M 16181M 16181B 16371M 16372M
                                                 16372B 16410M 16413B 16450  16518M 16519M 16519B 16572M 16573M 16573B
                                                 16586M 16587M 16587B 16594M 16595M 16595B 16666M 16667M 16667B 16710M
                                                 16711M 16711B 16732M 16733M 16733B 16750M 16751M 16751B 16771M 16772M
                                                 16772B 16824M 16825M 16825B 16829M 16830M 16830B 16847M 16848M 16848B
                                                 16872M 16873M 16873B 16910M 16911M 16911B 16915M 16916M 16916B 16933M
                                                 16934M 16934B 16974M 16975M 16975B 17002M 17003M 17003B 17020M 17021M
                                                 17021B 17048M 17049M 17049B 17076M 17077M 17077B 17094M 17095M 17095B
                                                 17121M 17122M 17122B 17145M 17146M 17146B 17186M 17187M 17187B 17221M
                                                 17222M 17222B 17239M 17240M 17240B 17297M 17298M 17298B 17304M 17305M
                                                 17305B 17341M 17344B 17381  17415M 17416M 17416B 17444M 17445M 17445B
                                                 17448M 17449M 17449B 17473M 17474M 17474B 17514M 17515M 17515B 17549M
                                                 17550M 17550B 17567M 17568M 17568B 17614M 17617B 17634  17668M 17669M
                                                 17669B 17697M 17698M 17698B 17718M 17719M 17719B 17731M 17732M 17732B
                                                 17757M 17758M 17758B 17798M 17799M 17799B 17833M 17834M 17834B 17851M
                                                 17852M 17852B 17897M 17900B 17941  18008M 18009M 18009B 18020M 18021M
                                                 18021B 18042M 18043M 18043B 18065M 18066M 18066B 18112M 18113M 18113B
                                                 18130M 18131M 18131B 18205M 18206M 18206B 18234M 18235M 18235B 18256M
                                                 18257M 18257B 18344M 18345M 18345B 18366M 18367M 18367B 18388M 18389M
                                                 18389B 18395M 18396M 18396B 18429M 18430M 18430B 18433M 18434M 18434B
                                                 18477M 18478M 18478B 18513M 18514M 18514B 18537M 18538M 18538B 18564M
                                                 18565M 18565B 18605M 18606M 18606B 18658M 18659M 18659B 18676M 18677M
                                                 18677B 18681M 18682M 18682B 18711M 18712M 18712B 18752M 18753M 18753B
                                                 18787M 18788M 18788B 18805M 18806M 18806B 18861M 18864B 18969  19078M
                                                 19079M 19079B 19107M 19110B 19130  19224M 19225M 19225B 19246M 19247M
                                                 19247B 19263M 19264M 19264B 19287M 19290B 19533  19605M 19606M 19606B
                                                 19645M 19646M 19646B 19659M 19660M 19660B 19695M 19696M 19696B 19748M
                                                 19749M 19749B 19809M 19810M 19810B 19824M 19825M 19825B 19874M 19875M
                                                 19875B 19985M 19986M 19986B 20003M 20004M 20004B 20036M 20037M 20037B
                                                 20054M 20055M 20055B 20092M 20093M 20093B 20241M 20242M 20242B 20275M
                                                 20276M 20276B 20338M 20339M 20339B 20373M 20374M 20374B 20400M 20401M
                                                 20401B 20429M 20430M 20430B 20454M 20455M 20455B 20507M 20508M 20508B
                                                 20525M 20526M 20526B 20562M 20563M 20563B 20567M 20568M 20568B 20591M
                                                 20592M 20592B 20609M 20610M 20610B 20632M 20633M 20633B 20667M 20670B
                                                 20821  20890M 20893B 20905  20974M 20977B 20989  21059M 21062B 21074
                                                 21143M 21146B 21158  21222M 21225B 21237  21301M 21304B 21316  21380M
                                                 21383B 21405  21535M 21536M 21536B 21570M 21571M 21571B 21599M 21600M
                                                 21600B 21604M 21605M 21605B 21628M 21629M 21629B 21694M 21697B 21722
                                                 21753M 21754M 21754B 21852M 21853M 21853B 21878M 21881B 21976  22020M
                                                 22021M 22021B 22142M 22143M 22143B 22169M 22170M 22170B 22190M 22191M
                                                 22191B 22212M 22213M 22213B 22230M 22231M 22231B 22258M 22259M 22259B
                                                 22293M 22296B 22333  22377M 22378M 22378B 22442M 22443M 22443B 22456M
                                                 22457M 22457B 22490M 22491M 22491B 22512M 22513M 22513B 22526M 22527M
                                                 22527B 22554M 22555M 22555B 22561M 22562M 22562B 22608M 22609M 22609B
                                                 22613M 22614M 22614B 22631M 22632M 22632B 22660M 22661M 22661B 22690M
                                                 22691M 22691B 22712M 22713M 22713B 22719M 22720M 22720B 22745M 22746M
                                                 22746B 22786M 22787M 22787B 22821M 22822M 22822B 22839M 22840M 22840B
                                                 22890M 22893B 22966  23048M 23049M 23049B 23073M 23074M 23074B 23087M
                                                 23088M 23088B 23114M 23115M 23115B 23158M 23159M 23159B 23186M 23187M
                                                 23187B 23212M 23213M 23213B 23259M 23260M 23260B 23295M 23296M 23296B
                                                 23371M 23372M 23372B 23416M 23417M 23417B 23445M 23446M 23446B 23467M
                                                 23468M 23468B 23517M 23518M 23518B 23535M 23536M 23536B 23563M 23564M
                                                 23564B 23624M 23625M 23625B 23629M 23630M 23630B 23647M 23648M 23648B
1QUERY    (QUER2193) (12:52) (15MAR04) Ordinary Symbol and Literal Cross Reference                                          Page  173
                                                 23668M 23669M 23669B 23727M 23728M 23728B 23973M 23974M 23974B 23985M
                                                 23986M 23986B 24010M 24011M 24011B 24029M 24030M 24030B 24082M 24083M
                                                 24083B 24198M 24199M 24199B 24220M 24221M 24221B 24249M 24250M 24250B
                                                 24271M 24272M 24272B 24340M 24343B 24388  24457M 24460B 24482  24550M
                                                 24551M 24551B 24592M 24593M 24593B 24652M 24655B 24679  24710M 24711M
                                                 24711B 24979M 24982B 25093  25163M 25218M 25219M 25219B 25236M 25237M
                                                 25237B 25284M 25285M 25285B 25307M 25308M 25308B 25357M 25358M 25358B
                                                 25380M 25381M 25381B 25399M 25400M 25400B 25438M 25439M 25439B 25460M
                                                 25461M 25461B 25517M 25520B 25549  25709M 25712B 25751  25951M 25954B
                                                 25995  26161M 26162M 26162B 26166M 26167M 26167B 26184M 26185M 26185B
                                                 26210M 26211M 26211B 26259M 26260M 26260B 26297M 26300B 26325  26435M
                                                 26436M 26436B 26453M 26454M 26454B 26499M 26500M 26500B 26517M 26518M
                                                 26518B 26564M 26565M 26565B 26582M 26583M 26583B 26678M 26679M 26679B
                                                 26711M 26712M 26712B 26838M 26839M 26839B 26863M 26866B 26890  26954M
                                                 26955M 26955B 26968M 26969M 26969B 27000M 27001M 27001B 27012M 27013M
                                                 27013B 27036M 27039B 27102  27155M 27156M 27156B 27169M 27170M 27170B
                                                 27210M 27211M 27211B 27278M 27279M 27279B 27348M 27349M 27349B 27377M
                                                 27378M 27378B 27399M 27400M 27400B 27478M 27479M 27479B 27483M 27484M
                                                 27484B 27519M 27522B 27549  27771M 27774B 27801  28038M 28041B 28060
                                                 28139M 28140M 28140B 28208M 28209M 28209B 28236M 28237M 28237B 28290M
                                                 28291M 28291B 28317M 28320B 28396  28495M 28496M 28496B 28520M 28521M
                                                 28521B 28538M 28539M 28539B 28562M 28563M 28563B 28590M 28591M 28591B
                                                 28628M 28629M 28629B 28656M 28657M 28657B 28685M 28686M 28686B 28721M
                                                 28722M 28722B 28749M 28750M 28750B 28784M 28785M 28785B 28812M 28813M
                                                 28813B 28851M 28852M 28852B 28879M 28880M 28880B 28901M 28902M 28902B
                                                 28923M 28924M 28924B 28958M 28959M 28959B 28980M 28981M 28981B 28998M
                                                 28999M 28999B 29051M 29052M 29052B 29100M 29101M 29101B 29149M 29150M
                                                 29150B 29211M 29212M 29212B 29229M 29230M 29230B 29300M 29301M 29301B
                                                 29318M 29319M 29319B 29345M 29346M 29346B 29380M 29381M 29381B 29398M
                                                 29399M 29399B 29426M 29427M 29427B 29444M 29445M 29445B 29472M 29473M
                                                 29473B 29511M 29512M 29512B 29585M 29586M 29586B 29606M 29607M 29607B
                                                 29624M 29625M 29625B 29728M 29729M 29729B 29767M 29768M 29768B 29805M
                                                 29806M 29806B 29843M 29844M 29844B 29879M 29880M 29880B 29926M 29927M
                                                 29927B 29948M 29949M 29949B 29978M 29979M 29979B 30006M 30009B 30029
                                                 30136M 30137M 30137B 30185M 30219M 30222B 30262  30351M 30352M 30352B
                                                 30365M 30366M 30366B 30389M 30390M 30390B 30407M 30408M 30408B 30431M
                                                 30432M 30432B 30461M 30462M 30462B 30491M 30492M 30492B 30509M 30510M
                                                 30510B 30539M 30540M 30540B 30570M 30571M 30571B 30761M 30762M 30762B
                                                 30786M 30787M 30787B 30816M 30819B 30937  31161M 31162M 31162B 31358M
                                                 31359M 31359B 31491M 31494B 31532  31599M 31600M 31600B 31698M 31699M
                                                 31699B 31810M 31811M 31811B 31857M 31860B 31888  31953M 31954M 31954B
                                                 32007M 32037M 32062M 32090M 32093B 32149  32403M 32622M 32623M 32623B
                                                 32659M 32660M 32660B 32697M 32698M 32698B 32715M 32716M 32716B 32737M
                                                 32738M 32738B 32765M 32766M 32766B 32790M 32791M 32791B 32808M 32809M
                                                 32809B 32818M 32819M 32819B 32825M 32826M 32826B 32852M 32853M 32853B
                                                 32873M 32874M 32874B 32901M 32902M 32902B 32919M 32920M 32920B 32956M
                                                 32957M 32957B 32990M 32991M 32991B 33012M 33013M 33013B 33030M 33031M
                                                 33031B 33060M 33061M 33061B 33067M 33068M 33068B 33131M 33132M 33132B
                                                 33186M 33227M 33230B 33256  33465M 33466M 33466B 33570M 33571M 33571B
                                                 33580M 33581M 33581B 33733M 33734M 33734B 33790M 33791M 33791B 33815M
                                                 33816M 33816B 33911M 33912M 33912B 33926M 33927M 33927B 33960M 33961M
                                                 33961B 33983M 33984M 33984B 34008M 34009M 34009B 34023M 34024M 34024B
                                                 34048M 34049M 34049B 34080M 34081M 34081B 34106M 34107M 34107B 34125M
                                                 34126M 34126B 34151M 34152M 34152B 34166M 34167M 34167B 34192M 34193M
                                                 34193B 34214M 34215M 34215B 34236M 34237M 34237B 34243M 34244M 34244B
                                                 34278M 34279M 34279B 34304M 34305M 34305B 34326M 34327M 34327B 34348M
                                                 34349M 34349B 34355M 34356M 34356B 34394M 34395M 34395B 34420M 34421M
                                                 34421B 34442M 34443M 34443B 34464M 34465M 34465B 34471M 34472M 34472B
                                                 34494M 34495M 34495B 34520M 34521M 34521B 34542M 34543M 34543B 34564M
1QUERY    (QUER2193) (12:52) (15MAR04) Ordinary Symbol and Literal Cross Reference                                          Page  174
                                                 34565M 34565B 34571M 34572M 34572B 34626M 34627M 34627B 34648M 34649M
                                                 34649B 34655M 34656M 34656B 34672M 34673M 34673B 34687M 34688M 34688B
                                                 34721M 34722M 34722B 34744M 34745M 34745B 34769M 34770M 34770B 34784M
                                                 34785M 34785B 34809M 34810M 34810B 34841M 34842M 34842B 34867M 34868M
                                                 34868B 34886M 34887M 34887B 34912M 34913M 34913B 34927M 34928M 34928B
                                                 34953M 34954M 34954B 34975M 34976M 34976B 34997M 34998M 34998B 35004M
                                                 35005M 35005B 35081M 35082M 35082B 35125M 35126M 35126B 35272M 35273M
                                                 35273B 35331M 35334B 35452  35585M 35586M 35586B 35592M 35593M 35593B
                                                 35636M 35637M 35637B 35658M 35659M 35659B 35680M 35681M 35681B 35687M
                                                 35688M 35688B 35741M 35742M 35742B 35763M 35764M 35764B 35785M 35786M
                                                 35786B 35819M 35822B 35871  36002M 36003M 36003B 36024M 36025M 36025B
                                                 36038M 36039M 36039B 36106M 36107M 36107B 36133M 36134M 36134B 36176M
                                                 36177M 36177B 36203M 36204M 36204B 36231M 36232M 36232B 36253M 36254M
                                                 36254B 36293M 36296B 36345  36476M 36477M 36477B 36520M 36521M 36521B
                                                 36645M 36646M 36646B 36677M 36678M 36678B 36694M 36695M 36695B 36700M
                                                 36701M 36701B 36887M 36888M 36888B 36919M 36920M 36920B 37077M 37080B
                                                 37144  37278M 37279M 37279B 37323M 37324M 37324B 37353M 37354M 37354B
                                                 37470M 37473B 37514  37638M 37639M 37639B 37660M 37661M 37661B 37676M
                                                 37677M 37677B 37751M 37752M 37752B 37758M 37759M 37759B 37803M 37804M
                                                 37804B 37876M 37877M 37877B 37908M 37909M 37909B 37930M 37931M 37931B
                                                 38045M 38046M 38046B 38069M 38070M 38070B 38108M 38109M 38109B 38164M
                                                 38165M 38165B 38171M 38172M 38172B 38216M 38217M 38217B 38222M 38223M
                                                 38223B 38277M 38278M 38278B 38315M 38316M 38316B 38347M 38348M 38348B
                                                 38362M 38363M 38363B 38394M 38395M 38395B 38473M 38474M 38474B 38511M
                                                 38512M 38512B 38543M 38544M 38544B 38558M 38559M 38559B 38590M 38591M
                                                 38591B 38661M 38662M 38662B 38699M 38700M 38700B 38731M 38732M 38732B
                                                 38746M 38747M 38747B 38778M 38779M 38779B 38812M 38813M 38813B 38837M
                                                 38838M 38838B 38874M 38877B 38899  39015M 39016M 39016B 39037M 39038M
                                                 39038B 39079M 39082B 39125  39245M 39246M 39246B 39309M 39310M 39310B
                                                 39474M 39475M 39475B 39639M 39640M 39640B 39804M 39807B 39832  39911M
                                                 39912M 39912B 40073M 40076B 40124  40194M 40195M 40195B 40338M 40339M
                                                 40339B 40358M 40359M 40359B 40373M 40374M 40374B 40399M 40400M 40400B
                                                 40421M 40422M 40422B 40453M 40456B 40484  40515M 40516M 40516B 40643M
                                                 40644M 40644B 40771M 40772M 40772B 40882M 40883M 40883B 40906M 40907M
                                                 40907B 40919M 40920M 40920B 40945M 40946M 40946B 40969M 40970M 40970B
                                                 40976M 40977M 40977B 40992M 40993M 40993B 41066M 41067M 41067B 41090M
                                                 41091M 41091B 41104M 41105M 41105B 41156M 41157M 41157B 41163M 41164M
                                                 41164B 41228M 41229M 41229B 41252M 41253M 41253B 41259M 41260M 41260B
                                                 41310M 41311M 41311B 41359M 41362B 41387  41506M 41507M 41507B 41532M
                                                 41533M 41533B 41759M 41873M 41874M 41874B 41923M 41926B 42038  42219M
                                                 42220M 42220B 42256M 42259B 42280  42547M 42548M 42548B 42573M 42574M
                                                 42574B 42682M 42683M 42683B 42761M 42762M 42762B 42767M 42768M 42768B
                                                 42782M 42783M 42783B 42810M 42813B 42833  42933M 42934M 42934B 42999M
                                                 43000M 43000B 43040M 43043B 43067  43439M 43440M 43440B 43481M 43484B
 RDRNG         1 00000000 0000001E     T   19345 19345
 READCOMP      1 00000000 FFFFFFC7     X   40102 40212
 READEXIT      4 00006812 00000001     I   40318 40299B 40314B
 READNERR      4 0000680E 00000001     I   40316 40196B
 READOPT       3 00000000 FFFFFFC7     C   40101 40102  40163M
 READWA        3 00000000 FFFFFFC7     J   40109 40130  40159U 40451  40453  40454
 RTRIM         1 00000000 0000002C     T   25018 25018
 R0            0 00000000 FFFFFFFF A   #     699  2113   2182M  8492M  8492   8501   8502   8917M  8940M  8958M  9101M
                                                  9129M  9244M  9244   9281M  9287M  9303M  9326M  9360M  9380M  9392M
                                                  9415M  9565M  9566M  9567M  9605M  9621M  9662M  9680M  9763M  9927M
                                                  9928M  9929M  9967M  9990M 10031M 10049M 10092M 10141M 10164M 10298
                                                 10343M 10700M 10723M 11109  11254  11394  11478  11623  12015  12672M
                                                 12672  12681  12682  12806M 12847M 12872M 12890M 12915M 12940M 12940
                                                 13010M 13032M 13032  13050M 13076M 13083M 13108M 13572  13749  13882
                                                 14048M 14073M 14091M 14116M 14141M 14141  14381  14406M 14406  14415
1QUERY    (QUER2193) (12:52) (15MAR04) Ordinary Symbol and Literal Cross Reference                                          Page  175
                                                 14416  14417  14444M 14444  14455M 14467  14502M 14520M 14555M 14627M
                                                 14649M 14649  14667M 14731M 14754M 14781M 14804M 14816M 14839M 14871M
                                                 14894M 14929M 14929  14947M 14975M 14993M 15021M 15039M 15133M 15133
                                                 15177M 15199M 15217M 15235M 15269M 15440M 15463M 15503M 15531M 15549M
                                                 15569  15570  15570  15570  15576M 15599M 15614M 15642  15643  15643
                                                 15643  15649M 15664M 15666  15667  15667  15667  15694M 15717M 15812
                                                 15812  15812  15937  15969M 16002M 16047M 16076M 16106M 16161M 16227M
                                                 16227  16290  16383  16383M 16542M 16557M 16557  16566  16567  16655M
                                                 16655  16699M 16721M 16739M 16757M 16768M 16813M 16836M 16861M 16861
                                                 16899M 16922M 16963M 16991M 17009M 17030  17031  17031  17031  17037M
                                                 17065M 17083M 17098M 17127  17128  17128  17128  17134M 17149M 17168
                                                 17169  17169  17169  17175M 17190M 17192  17193  17193  17193  17210M
                                                 17228M 17243M 17245M 17286M 17437M 17455  17456  17456  17456  17462M
                                                 17477M 17496  17497  17497  17497  17503M 17518M 17520  17521  17521
                                                 17521  17538M 17556M 17571M 17573M 17690M 17710M 17710  17739  17740
                                                 17740  17740  17746M 17761M 17780  17781  17781  17781  17787M 17802M
                                                 17804  17805  17805  17805  17822M 17840M 17855M 17857M 18050M 18050
                                                 18059  18060  18097M 18097  18106  18107  18190M 18223M 18245M 18245
                                                 18263M 18335M 18357M 18357  18379M 18379  18473M 18509M 18533M 18555M
                                                 18555  18594M 18594  18610M 18631M 18665M 18693  18694  18694  18694
                                                 18700M 18715M 18734  18735  18735  18735  18741M 18756M 18758  18759
                                                 18759  18759  18776M 18794M 18809M 18811M 19024  19179  19181M 19183M
                                                 19199M 19199  19237M 19237  19358  19358  19358  19630M 19630  19639
                                                 19640  19744M 19766M 19772  19798M 19813M 19937  19938  19938  19938
                                                 19940  19974M 19992M 20025M 20043M 20059M 20206  20207  20207  20207
                                                 20230M 20264M 20283M 20330M 20348M 20348  20355  20356  20356  20356
                                                 20362M 20377M 20418M 20418  20443M 20443  20459M 20480M 20514M 20551M
                                                 20564M 20598M 20621M 21200  21279  21358  21588M 21601M 21635M 21770M
                                                 21832M 21856  21856M 21919  21919  21919  22179M 22201M 22201  22219M
                                                 22247M 22263M 22427M 22427  22436  22437  22481M 22503M 22503  22597M
                                                 22620M 22649M 22649  22667M 22681M 22703M 22703  22727  22728  22728
                                                 22728  22734M 22749M 22768  22769  22769  22769  22775M 22790M 22792
                                                 22793  22793  22793  22810M 22828M 22843M 22845M 23058M 23058  23067
                                                 23068  23111M 23147M 23175M 23201M 23201  23251  23284M 23434M 23456M
                                                 23456  23474M 23506M 23524M 23552M 23570M 23613M 23636M 23657M 23657
                                                 23707M 23962M 23962  23999M 23999  24071M 24071  24190  24238M 24260M
                                                 24260  24278M 24514M 24514  24589M 24618M 24618  24742M 24762M 24786M
                                                 24810M 24891M 24925M 24957M 25022  25022  25022  25135  25179  25198M
                                                 25221M 25222M 25269M 25270M 25287M 25340M 25341M 25342M 25343  25360M
                                                 25383M 25384M 25385M 25451M 25606M 25606  25641M 26056M 26100  26150M
                                                 26173M 26207M 26256M 26256  26442M 26506M 26536  26571M 26591  26608
                                                 26667M 26827M 26827  26940M 26940  26949  26950  26951  26978M 26978
                                                 26989M 27141M 27141  27150  27151  27152  27179M 27179  27191M 27237
                                                 27285M 27338M 27366M 27388M 27388  27406M 27467M 27490M 28128M 28128
                                                 28144M 28164M 28164  28225M 28279M 28470  28484M 28509M 28527M 28579M
                                                 28617M 28645M 28674M 28674  28710M 28738M 28773M 28801M 28840M 28868M
                                                 28890M 28912M 28912  28947M 28969M 28969  28987M 29040M 29089M 29138M
                                                 29200M 29218M 29289M 29307M 29334M 29369M 29369  29387M 29415M 29433M
                                                 29461M 29500M 29574M 29595M 29595  29613M 29657M 29677M 29701M 29756M
                                                 29794M 29832M 29868M 29915M 29915  29937M 29967M 29967  30093  30125M
                                                 30340M 30359M 30396M 30420M 30450M 30480M 30498M 30528M 30559M 30585M
                                                 30607  30696M 30723  30730  30749M 30775M 30775  30991M 30991  31044
                                                 31071  31158M 31179M 31179  31180M 31262M 31276M 31277M 31278M 31279M
                                                 31280  31355M 31393M 31394M 31395M 31969M 31997M 32033M 32058M 32196
                                                 32235M 32516M 32611M 32648M 32686M 32686  32704M 32726M 32754M 32779M
                                                 32779  32797M 32841M 32862M 32890M 32908M 32945M 32979M 33001M 33001
                                                 33019M 33049M 33049  33098M 33098  33115M 33168  33320  33348  33375M
                                                 33429  33441M 33441  33458M 33729M 33820M 33835  33847M 33852  33902M
                                                 33917M 33951M 33951  33974M 33999M 34014M 34039M 34071M 34097M 34116M
1QUERY    (QUER2193) (12:52) (15MAR04) Ordinary Symbol and Literal Cross Reference                                          Page  176
                                                 34142M 34157M 34183M 34205M 34205  34227M 34227  34269M 34295M 34317M
                                                 34317  34339M 34339  34385M 34411M 34433M 34433  34455M 34455  34485M
                                                 34511M 34533M 34533  34555M 34555  34617M 34639M 34639  34663M 34678M
                                                 34712M 34712  34735M 34760M 34775M 34800M 34832M 34858M 34877M 34903M
                                                 34918M 34944M 34966M 34966  34988M 34988  35194  35526  35535  35627M
                                                 35649M 35649  35671M 35671  35701  35701M 35721M 35754M 35754  35776M
                                                 35776  35935  35993M 36015M 36015  36052M 36052  36088  36089  36089
                                                 36089  36095M 36110M 36158  36159  36159  36159  36165M 36180M 36222M
                                                 36244M 36244  36419  36611M 36730  36763M 36763  36795M 36795  36827M
                                                 36827  36962M 36981M 36981  37112  37112  37112  37208  37252  37305
                                                 37306  37306  37306  37312M 37327M 37329  37330  37330  37330  37357M
                                                 37367M 37367  37598  37628M 37651M 37651  37734M 37736  37737  37737
                                                 37737  37742M 37755M 37768M 37768  37778M 37854  37855  37855  37855
                                                 37867M 37867  37880M 37887M 37921M 37921  38002M 38005  38017M 38022
                                                 38060M 38099M 38099  38147M 38149  38150  38150  38150  38155M 38168M
                                                 38181M 38181  38191M 38262  38263  38263  38263  38268M 38281M 38300
                                                 38301  38301  38301  38306M 38319M 38321  38322  38322  38322  38338M
                                                 38353M 38366M 38368M 38458  38459  38459  38459  38464M 38477M 38496
                                                 38497  38497  38497  38502M 38515M 38517  38518  38518  38518  38534M
                                                 38549M 38562M 38564M 38646  38647  38647  38647  38652M 38665M 38684
                                                 38685  38685  38685  38690M 38703M 38705  38706  38706  38706  38722M
                                                 38737M 38750M 38752M 38797  38798  38798  38798  38803M 38816M 39006M
                                                 39028M 39028  39199  39209  39242M 39367  39374  39532  39539  39697
                                                 39896  39906  39908M 39954M 39955M 39956M 40277M 40293M 40322  40329M
                                                 40349M 40349  40364M 40390M 40412M 40412  40571  40599  40629  40700
                                                 40871M 40895M 40895  40934M 40958M 40958  41055M 41079M 41079  41217M
                                                 41241M 41241  41451  41482  41494M 41501  41503M 41534  41616M 41617M
                                                 41618M 41869M 41969  41969  41969  42102  42145  42344  42372  42492
                                                 42523  42678M 42897  43131  43246  43347  43425
 R1            1 00000001 FFFFFFFF A   #     712  2176M  2177M  2183M  8488M  8501   8502   8504   8876   8916M  8939M
                                                  8957M  9100M  9128M  9280M  9302M  9325M  9359M  9379M  9391M  9414M
                                                  9604M  9620M  9661M  9679M  9762M  9905   9966M  9989M 10030M 10048M
                                                 10091M 10140M 10163M 10342M 10658M 10659M 10659  10699M 10722M 12668M
                                                 12681  12682  12684  12805M 12846M 12865M 12889M 12908M 13009M 13028M
                                                 13049M 13077M 13084M 13107M 13883  14047M 14066M 14090M 14109M 14381
                                                 14402M 14415  14416  14417  14455M 14501M 14519M 14554M 14626M 14645M
                                                 14666M 14730M 14753M 14780M 14803M 14815M 14838M 14870M 14893M 14925M
                                                 14946M 14970M 14992M 15016M 15038M 15069M 15129M 15172M 15198M 15216M
                                                 15234M 15248  15268M 15439M 15462M 15502M 15526M 15548M 15569  15570
                                                 15570  15570  15575M 15598M 15614M 15642  15643  15643  15643  15648M
                                                 15664M 15666  15667  15667  15667  15694M 15716M 15812  15812  15812
                                                 15937  15964M 16001M 16046M 16075M 16105M 16131M 16144  16161M 16225M
                                                 16225  16341M 16348  16349  16349  16349  16380M 16383  16541M 16553M
                                                 16566  16567  16569  16591M 16651M 16694M 16720M 16738M 16756M 16764
                                                 16782U 16796  16812M 16835M 16898M 16921M 16962M 16986M 17008M 17030
                                                 17031  17031  17031  17036M 17060M 17082M 17098M 17127  17128  17128
                                                 17128  17133M 17149M 17168  17169  17169  17169  17174M 17190M 17192
                                                 17193  17193  17193  17227M 17243M 17244M 17285M 17436M 17455  17456
                                                 17456  17456  17461M 17477M 17496  17497  17497  17497  17502M 17518M
                                                 17520  17521  17521  17521  17555M 17571M 17572M 17689M 17739  17740
                                                 17740  17740  17745M 17761M 17780  17781  17781  17781  17786M 17802M
                                                 17804  17805  17805  17805  17839M 17855M 17856M 18046M 18059  18060
                                                 18062  18093M 18106  18107  18109  18189M 18222M 18241M 18262M 18302M
                                                 18311  18334M 18391M 18474M 18510M 18534M 18590M 18609M 18664M 18693
                                                 18694  18694  18694  18699M 18715M 18734  18735  18735  18735  18740M
                                                 18756M 18758  18759  18759  18759  18793M 18809M 18810M 19182M 19352
                                                 19352  19352  19358  19358  19358  19626M 19639  19640  19642  19737M
                                                 19738M 19738  19745M 19765M 19793M 19937  19938  19938  19938  19939
                                                 19969M 19991M 20020M 20042M 20059M 20206  20207  20207  20207  20229M
1QUERY    (QUER2193) (12:52) (15MAR04) Ordinary Symbol and Literal Cross Reference                                          Page  177
                                                 20263M 20283M 20329M 20355  20356  20356  20356  20361M 20377M 20439M
                                                 20458M 20513M 20550M 20597M 20620M 21587M 21634M 21769M 21831M 21856
                                                 21919  21919  21919  22139M 22178M 22197M 22218M 22242M 22262M 22409M
                                                 22418  22423M 22436  22437  22439  22480M 22522M 22557M 22596M 22619M
                                                 22645M 22666M 22680M 22715M 22727  22728  22728  22728  22733M 22749M
                                                 22768  22769  22769  22769  22774M 22790M 22792  22793  22793  22793
                                                 22827M 22843M 22844M 23054M 23067  23068  23070  23116  23146M 23170M
                                                 23283M 23368M 23433M 23452M 23473M 23505M 23523M 23547M 23569M 23612M
                                                 23635M 23653M 23706M 24237M 24256M 24277M 24516M 24516  24584M 24620M
                                                 24620  24741M 24761M 24785M 24809M 24890M 24924M 24956M 25022  25022
                                                 25022  25135  25179  25198M 25287M 25360M 25450M 25602M 26055M 26149M
                                                 26172M 26206M 26228M 26238U 26441M 26505M 26570M 26590  26666M 26936M
                                                 26949  26950  26951  26988M 27137M 27150  27151  27152  27190M 27284M
                                                 27337M 27365M 27384M 27405M 27466M 27489M 27687M 27688M 27688  27719
                                                 27745  27745M 27939M 27940M 27940  27952  27986  28012  28012M 28124M
                                                 28143M 28220M 28278M 28483M 28502M 28526M 28574M 28640M 28709M 28733M
                                                 28772M 28796M 28839M 28863M 28889M 28908M 28946M 28965M 28986M 29039M
                                                 29088M 29137M 29193M 29217M 29282M 29306M 29333M 29365M 29386M 29410M
                                                 29432M 29456M 29499M 29573M 29591M 29612M 29656M 29676M 29700M 29755M
                                                 29793M 29831M 29867M 29911M 29936M 30124M 30339M 30359M 30395M 30413M
                                                 30443M 30473M 30497M 30521M 30554M 30581M 30691M 30729  31163  31164
                                                 31165  31181M 31182M 31183  31261M 31360  31596M 31917  31968M 31996M
                                                 32005M 32020M 32034M 32059M 32197  32234M 32401M 32515M 32610M 32647M
                                                 32682M 32703M 32725M 32749M 32796M 32861M 32885M 32907M 32944M 32978M
                                                 32997M 33018M 33184M 33195M 33285  33374M 33485  33723M 33811M 33819M
                                                 33901M 33916M 33947M 33973M 33994M 34013M 34034M 34070M 34092M 34115M
                                                 34137M 34156M 34178M 34239M 34268M 34290M 34351M 34384M 34406M 34467M
                                                 34484M 34506M 34567M 34616M 34651M 34662M 34677M 34708M 34734M 34755M
                                                 34774M 34795M 34831M 34853M 34876M 34898M 34917M 34939M 35000M 35044
                                                 35045  35045  35045  35299M 35388  35388  35388  35535  35553M 35562
                                                 35588M 35626M 35683M 35701  35721M 35992M 36034M 36088  36089  36089
                                                 36089  36094M 36110M 36158  36159  36159  36159  36164M 36180M 36221M
                                                 36444M 36453  36496M 36497M 36497  36512U 36606M 36958M 37112  37112
                                                 37112  37305  37306  37306  37306  37311M 37327M 37329  37330  37330
                                                 37330  37357M 37626M 37733M 37736  37737  37737  37737  37741M 37755M
                                                 37777M 37854  37855  37855  37855  37880M 37886M 38032M 38059M 38146M
                                                 38149  38150  38150  38150  38154M 38168M 38190M 38262  38263  38263
                                                 38263  38267M 38281M 38300  38301  38301  38301  38305M 38319M 38321
                                                 38322  38322  38322  38352M 38366M 38367M 38458  38459  38459  38459
                                                 38463M 38477M 38496  38497  38497  38497  38501M 38515M 38517  38518
                                                 38518  38518  38548M 38562M 38563M 38646  38647  38647  38647  38651M
                                                 38665M 38684  38685  38685  38685  38689M 38703M 38705  38706  38706
                                                 38706  38736M 38750M 38751M 38797  38798  38798  38798  38802M 38816M
                                                 39005M 39208  39247  39905  39913  40276M 40292M 40321  40328M 40345M
                                                 40363M 40385M 40870M 40915M 40933M 40972M 41054M 41100M 41159M 41216M
                                                 41255M 41500  41508  41534  41717M 41735U 41863M 41969  41969  41969
                                                 42563M 42564M 42564  42672M 42757M 42779M 42917M 42918M 42918  42996M
                                                 43140  43436M
 R12          12 0000000C FFFFFFFF A   #     855  2139
 R13          13 0000000D FFFFFFFF A   #     868  8496   8497   8498   8514   8515   8516  12676  12677  12678  12694
                                                 12695  12696  14410  14411  14412  14427  14428  14429  16561  16562
                                                 16563  16579  16580  16581  18054  18055  18056  18072  18073  18074
                                                 18101  18102  18103  18119  18120  18121  19634  19635  19636  19652
                                                 19653  19654  22431  22432  22433  22449  22450  22451  23062  23063
                                                 23064  23080  23081  23082  26944  26945  26946  26961  26962  26963
                                                 27145  27146  27147  27162  27163  27164
 R14          14 0000000E FFFFFFFF A   #     881  2114M  8495M  8496   8497   8498   8503M  8504   8511M  8514   8515
                                                  8516   9551M  9558M  9566   9567M  9913M  9920M  9928   9929M 10299M
                                                 12675M 12676  12677  12678  12683M 12684  12691M 12694  12695  12696
1QUERY    (QUER2193) (12:52) (15MAR04) Ordinary Symbol and Literal Cross Reference                                          Page  178
                                                 14409M 14410  14411  14412  14424M 14427  14428  14429  15267M 15268
                                                 15269  15273M 15273  16290M 16294  16296M 16300M 16309M 16309  16316
                                                 16560M 16561  16562  16563  16568M 16569  16576M 16579  16580  16581
                                                 17435M 17436  17437  17441M 17441  17688M 17689  17690  17694M 17694
                                                 18053M 18054  18055  18056  18061M 18062  18069M 18072  18073  18074
                                                 18100M 18101  18102  18103  18108M 18109  18116M 18119  18120  18121
                                                 19633M 19634  19635  19636  19641M 19642  19649M 19652  19653  19654
                                                 22430M 22431  22432  22433  22438M 22439  22446M 22449  22450  22451
                                                 23061M 23062  23063  23064  23069M 23070  23077M 23080  23081  23082
                                                 23250M 24189M 26101M 26943M 26944  26945  26946  26958M 26961  26962
                                                 26963  27144M 27145  27146  27147  27159M 27162  27163  27164  28471M
                                                 29250M 29250  29251M 29263  30094M 31045M 31072M 31173M 31178M 31180M
                                                 31381M 31388M 31394  31395M 33169M 33321M 33349M 33430M 35195M 35527M
                                                 35936M 36420M 37209M 37253M 37599M 39200M 39897M 39942M 39947M 39955
                                                 39956M 40572M 40600M 40630M 40701M 41452M 41606M 41611M 41617  41618M
                                                 42103M 42146M 42345M 42373M 42493M 42524M 42898M 43132M 43247M 43348M
                                                 43426M
 R15          15 0000000F FFFFFFFF A   #     894  2113   8469M  8517M  8517   8725M  8726M  8726   8794M  8829M  8878M
                                                  8925M  8930M  8948M  8966M  9010M  9010   9173M  9195M  9202M  9292M
                                                  9311M  9316M  9334M  9368M  9400M  9405M  9446M  9446   9521M  9522M
                                                  9522   9543   9629M  9634M  9670M  9688M  9771M  9777M  9820M  9855M
                                                  9998M 10003M 10039M 10057M 10100M 10106M 10149M 10154M 10199M 10199
                                                 10263  10298  10665M 10708M 10713M 10731M 10775M 10775  11109M 11112
                                                 11124M 11132M 11141M 11141  11148  11170M 11170  11194M 11194  11254M
                                                 11257  11269M 11277M 11286M 11286  11293  11315M 11315  11339M 11339
                                                 11418M 11418  11478M 11481  11493M 11501M 11510M 11510  11517  11539M
                                                 11539  11563M 11563  11623M 11626  11638M 11646M 11655M 11655  11662
                                                 11684M 11684  11708M 11708  11792M 11792  11876M 11876  11960M 11960
                                                 12039M 12039  12128M 12128  12217M 12217  12306M 12306  12395M 12395
                                                 12479M 12479  12697M 12697  12710M 12711M 12711  12732  12819M 12855M
                                                 12880M 12898M 12923M 12948M 12975M 13018M 13040M 13058M 13116M 13155M
                                                 13155  13348M 13348  13432M 13432  13516M 13516  13572M 13575  13587M
                                                 13592  13596M 13605M 13605  13612  13641M 13641  13648  13670M 13670
                                                 13694M 13694  13773M 13773  14020M 14056M 14081M 14099M 14124M 14149M
                                                 14176M 14212M 14212  14241M 14241  14430M 14430  14492M 14510M 14528M
                                                 14563M 14581M 14606M 14635M 14657M 14674  14739M 14744M 14789M 14794M
                                                 14824M 14829M 14879M 14884M 14902M 14937M 14955M 14983M 15001M 15029M
                                                 15097  15116M 15117M 15117  15129  15141M 15185M 15207M 15225M 15278M
                                                 15300M 15307M 15404M 15448M 15453M 15471M 15511M 15539M 15557M 15584M
                                                 15589M 15607M 15634M 15657M 15687M 15725M 15732M 15773M 15773  15957M
                                                 15994M 16028M 16054  16162M 16177M 16279M 16288M 16288  16348  16349
                                                 16349  16349  16368M 16380M 16412M 16412  16515M 16582M 16582  16619
                                                 16638M 16639M 16639  16651  16663M 16707M 16729M 16747M 16821M 16826M
                                                 16844M 16869M 16907M 16912M 16930M 16935M 16971M 16999M 17017M 17022M
                                                 17045M 17073M 17091M 17118M 17123M 17142M 17183M 17218M 17236M 17294M
                                                 17301M 17343M 17343  17417  17432M 17470M 17511M 17546M 17564M 17616M
                                                 17616  17670  17685M 17728M 17754M 17795M 17830M 17848M 17899M 17899
                                                 18075M 18075  18122M 18122  18137M 18138M 18138  18152M 18153M 18153
                                                 18166M 18166  18179M 18179  18196  18202M 18231M 18253M 18270  18286M
                                                 18296U 18341M 18363M 18385M 18392M 18443M 18443  18561M 18602M 18655M
                                                 18673M 18678M 18708M 18749M 18784M 18802M 18863M 18863  19047M 19047
                                                 19085  19109M 19109  19221M 19243M 19252M 19253M 19254  19260M 19289M
                                                 19289  19352  19352  19352  19607  19655M 19655  19806M 19821M 19871M
                                                 19911M 19912M 19913  19982M 20000M 20033M 20051M 20078M 20238M 20272M
                                                 20370M 20397M 20426M 20451M 20504M 20522M 20559M 20588M 20606M 20629M
                                                 20669M 20669  20892M 20892  20976M 20976  21061M 21061  21145M 21145
                                                 21224M 21224  21303M 21303  21382M 21382  21434  21532M 21556M 21596M
                                                 21625M 21642M 21643  21644M 21645  21696M 21696  21771M 21777  21833M
                                                 21849M 21880M 21880  22022  22166M 22187M 22209M 22227M 22255M 22295M
1QUERY    (QUER2193) (12:52) (15MAR04) Ordinary Symbol and Literal Cross Reference                                          Page  179
                                                 22295  22379  22393M 22403U 22452M 22452  22487M 22509M 22523M 22551M
                                                 22558M 22605M 22610M 22628M 22638M 22645  22657M 22687M 22709M 22716M
                                                 22742M 22783M 22818M 22836M 22892M 22892  23045M 23083M 23083  23155M
                                                 23183M 23209M 23251  23252M 23253B 23292M 23413M 23442M 23464M 23481
                                                 23514M 23532M 23560M 23621M 23626M 23644M 23665M 23724M 23817M 23818M
                                                 23818  23839U 23970M 23982M 24007M 24026M 24079M 24103M 24104M 24104
                                                 24125U 24190  24191M 24192B 24217M 24246M 24268M 24285  24342M 24342
                                                 24459M 24459  24517M 24547M 24572U 24625M 24654M 24654  24735U 24981M
                                                 24981  25132  25215M 25233M 25281M 25304M 25354M 25377M 25396M 25435M
                                                 25457M 25519M 25519  25593M 25692M 25692  25711M 25711  25780  25833M
                                                 25903M 25929M 25929  25953M 25953  26045M 26045  26065  26100  26158M
                                                 26163M 26181M 26270M 26299M 26299  26354  26432M 26450M 26496M 26514M
                                                 26561M 26579M 26629M 26630M 26630  26643M 26643  26656M 26656  26675M
                                                 26685  26689M 26689  26724  26801M 26811M 26811  26835M 26840M 26865M
                                                 26865  26919  26964M 26964  26997M 27002M 27009M 27038M 27038  27165M
                                                 27165  27212  27275M 27345M 27374M 27396M 27413  27475M 27480M 27497M
                                                 27521M 27521  27578  27739M 27749M 27749  27773M 27773  27830  28006M
                                                 28016M 28016  28040M 28040  28089  28105M 28106M 28106  28124  28136M
                                                 28205M 28233M 28287M 28319M 28319  28435  28470  28492M 28517M 28535M
                                                 28559M 28587M 28625M 28653M 28682M 28718M 28746M 28781M 28809M 28848M
                                                 28876M 28898M 28920M 28955M 28977M 28995M 29048M 29097M 29146M 29169M
                                                 29170M 29182  29193  29208M 29226M 29272M 29282  29297M 29315M 29342M
                                                 29377M 29395M 29423M 29441M 29469M 29508M 29582M 29603M 29621M 29725M
                                                 29764M 29802M 29840M 29876M 29897M 29911  29923M 29945M 29975M 30008M
                                                 30008  30058  30093  30133M 30183M 30221M 30221  30301  30348M 30361M
                                                 30386M 30404M 30428M 30458M 30488M 30506M 30536M 30567M 30627M 30631M
                                                 30640M 30640  30647  30668  30729M 30730M 30731M 30783M 30818M 30818
                                                 31018U 31044  31071  31079  31434M 31444U 31448  31464M 31493M 31493
                                                 31695M 31807M 31840M 31840  31859M 31859  31950M 31970M 31977  31998M
                                                 32035M 32049  32060M 32092M 32092  32236M 32440M 32441M 32442  32465M
                                                 32466M 32467  32517M 32529M 32539U 32619M 32656M 32694M 32712M 32734M
                                                 32762M 32787M 32805M 32821M 32849M 32870M 32898M 32916M 32953M 32987M
                                                 33009M 33027M 33057M 33064M 33080M 33090U 33133  33168  33192M 33199M
                                                 33199  33229M 33229  33320  33348  33376M 33429  33479M 33567M 33577M
                                                 33714M 33715  33730M 33787M 33804M 33812M 33852M 33856M 33865M 33865
                                                 33872  33908M 33923M 33957M 33980M 34005M 34020M 34045M 34077M 34103M
                                                 34122M 34148M 34163M 34189M 34211M 34233M 34240M 34275M 34301M 34323M
                                                 34345M 34352M 34391M 34417M 34439M 34461M 34468M 34491M 34517M 34539M
                                                 34561M 34568M 34585M 34586M 34587  34623M 34645M 34652M 34669M 34684M
                                                 34718M 34741M 34766M 34781M 34806M 34838M 34864M 34883M 34909M 34924M
                                                 34950M 34972M 34994M 35001M 35015M 35016M 35017  35022M 35022  35037M
                                                 35037  35044  35045  35045  35045  35078M 35122M 35194  35269M 35299M
                                                 35333M 35333  35388  35388  35388  35491  35526  35537M 35547U 35582M
                                                 35589M 35633M 35655M 35677M 35684M 35738M 35760M 35782M 35791M 35791
                                                 35821M 35821  35900  35935  35944M 35954U 35999M 36021M 36035M 36103M
                                                 36130M 36173M 36200M 36228M 36250M 36270M 36270  36295M 36295  36384
                                                 36419  36428M 36438U 36473M 36547M 36548M 36549  36612M 36642M 36674M
                                                 36691M 36697M 36884M 36916M 37049M 37049  37079M 37079  37173  37208
                                                 37252  37275M 37295M 37295  37320M 37350M 37443M 37443  37472M 37472
                                                 37563  37598  37635M 37657M 37673M 37748M 37800M 37873M 37905M 37927M
                                                 38042M 38066M 38105M 38161M 38213M 38219M 38274M 38312M 38344M 38359M
                                                 38391M 38470M 38508M 38540M 38555M 38587M 38658M 38696M 38728M 38743M
                                                 38775M 38809M 38834M 38847M 38847  38876M 38876  38928  38945M 38946M
                                                 38946  38967U 39012M 39034M 39057M 39057  39081M 39081  39164  39199
                                                 39381M 39391  39546M 39556  39739M 39749  39806M 39806  39861  39896
                                                 40001M 40002M 40003  40015  40022M 40042M 40042  40075M 40075  40165
                                                 40191M 40298M 40313M 40313  40316M 40318  40319  40319  40319  40320
                                                 40335M 40355M 40370M 40396M 40418M 40425M 40455M 40455  40529M 40536
                                                 40571  40599  40629  40640M 40700  40768M 40879M 40903M 40916M 40942M
1QUERY    (QUER2193) (12:52) (15MAR04) Ordinary Symbol and Literal Cross Reference                                          Page  180
                                                 40966M 40973M 40989M 40998M 40998  41063M 41087M 41101M 41153M 41160M
                                                 41225M 41249M 41256M 41292M 41293M 41293  41336M 41336  41361M 41361
                                                 41416  41451  41541M 41542M 41542  41563U 41692M 41693M 41694  41757M
                                                 41854M 41855  41870M 41925M 41925  41981  41981  41981  42067  42102
                                                 42145  42216M 42258M 42258  42309  42344  42372  42492  42503M 42514
                                                 42523  42544M 42570M 42663M 42664  42679M 42758M 42764M 42788M 42788
                                                 42812M 42812  42862  42897  42973M 42974  42983M 42983  42990  43042M
                                                 43042  43096  43131  43159M 43159  43246  43347  43425  43444M 43445M
                                                 43446  43458M 43459M 43459  43483M 43483
 R2            2 00000002 FFFFFFFF A   #     725  9543M  9711U  9777   9905M 10106  13631M 14907M 14917U 15318M 15969
                                                 16289M 16294  16296  19940M 19954  20006M 20025  20089M 21567M 23218M
                                                 23228U 23272M 23273M 23273  23313M 23367  24157M 24167U 24485  24650M
                                                 24682  24977M 25137  25161M 25178  25343M 25384  25586M 25586  25619M
                                                 25619  25644M 25661M 25661  25683M 26591M 26746  26758M 26766M 26775M
                                                 26775  26782  27212M 27293M 27294M 27294  27307M 27307  27327M 27327
                                                 27345  27384  29347M 29357U 29529M 29530M 29530  29547  29565U 29881M
                                                 29891U 30607M 30610  30622M 30627  30696  31154M 31155M 31156M 31157M
                                                 31158  31178  31182  31205M 31206M 31206  31284M 31296  31303M 31308
                                                 31891  32088M 32152  32545M 32562M 32562  32579  33225M 33259  33650M
                                                 33651M 33651  33667U 33714  33928M 33938U 34689M 34699U 35139M 35140M
                                                 35140  35169U 35329M 35874  36291M 36348  36516M 36523  36532M 36532
                                                 36539  36935M 36945U 37075M 37560  37629M 37899M 37937M 37938M 37938
                                                 37959U 37983  37985M 37996M 37996  38002  38022M 38054M 38072M 39209M
                                                 39274M 39274  39296M 39441  39461M 39606  39626M 39906M 39934  39947
                                                 39960M 39961M 39961  39991  40127  40320M 40345  40451M 40653M 40654M
                                                 40654  40675U 41651M 41652M 41652  41682  42953M 42954M 42954  42969U
 R3            3 00000003 FFFFFFFF A   #     738 15964  16289M 16341  19939M 20005M 20020  22045M 22045  22110M 22110
                                                 22134  22152M 23305M 23313  23331U 23345M 23346M 23346  23361  23588M
                                                 23589M 23589  23604U 23796M 23809  23864M 25161M 25178  25602  25642M
                                                 25681M 26590M 27661M 27662M 27663M 27664M 27679  27726M 27913M 27914M
                                                 27915M 27916M 27931  27993M 30666M 31165M 33585M 33602U 33616M 33617M
                                                 33617  39208M 39294M 39460M 39625M 39905M 40321M 41501M 41581  41593M
                                                 41598  41611  43175M 43185U 43201M 43202M 43202  43218  43228
 R4            4 00000004 FFFFFFFF A   #     751 10357M 10357  10394M 10417M 10440M 10463M 10486M 10509M 10543M 10571M
                                                 10598M 10626M 10675M 10689M 10689  13934M 13935M 13935  13950U 15938
                                                 22046M 22063U 22077M 22078M 22078  22152  23116M 23126U 23140  23361
                                                 23740M 23756U 23770M 23771M 23771  23784  23797M 23809  23880M 23896U
                                                 23910M 23911M 23911  25552  25707M 27595M 27596M 27611  27618M 27635
                                                 27661  27847M 27848M 27863  27870M 27887  27913  31189M 31215M 31227
                                                 31234M 31251  31276  33489M 33499U 33536M 33546U 35960M 35999  36021
                                                 36228  36250  37217M 37227U 38973M 39012  39034  39297M 39325U 39380M
                                                 39391  39462M 39490U 39545M 39556  39627M 39655U 39738M 39749  39913M
                                                 39923U 39973  39974  39991  39992  40318  40319  40319  40319  40322M
                                                 40390  40425M 40822M 40823M 40823  40844U 41024M 41025M 41025  41046U
                                                 41140M 41141M 41141  41186M 41187M 41187  41208U 41500M 41616  41791M
                                                 41792M 41792  41807U 41854  41981  41981  41981  42381M 42395  42409
                                                 42415M 42416M 42417M 42447  42461  42467M 42468M 42469M 42600M 42601M
                                                 42601  42616U 42663  42716M 42717M 42717  42738U 43173M 43173  43228M
                                                 43262M 43262  43322U 43373
 R5            5 00000005 FFFFFFFF A   #     764  8445M  8455U  8869M  8876M  9066U  9502U 10263M 10273U 12732M 12742U
                                                 13887M 13888M 13888  13919  14202M 14383M 14393U 14674M 15248M 15938
                                                 15942M 15952U 16054M 16144M 16498M 16508U 16764M 17417M 17427U 17670M
                                                 17680U 18270M 18280U 18284  19607M 19617U 21434M 21444U 21777M 21787U
                                                 22022M 22032U 22379M 22389U 23030M 23040U 23481M 24285M 24521M 24522M
                                                 24522  24543U 24818M 24819M 24819  24840U 25780M 25810  25824  25830M
                                                 25831M 25832M 25880  25894  25900M 25901M 25902M 26065M 26075U 26354M
                                                 26364U 26919M 26929U 27413M 27423U 27578M 27588U 27830M 27840U 28089M
                                                 28099U 28435M 28445U 30058M 30068U 31360M 31370U 31462  31575M 31576M
                                                 31576  31591U 31651M 31652M 31652  31673U 31763M 31764M 31764  31785U
1QUERY    (QUER2193) (12:52) (15MAR04) Ordinary Symbol and Literal Cross Reference                                          Page  181
                                                 31917M 31927U 31977M 32266M 32267M 32267  32288U 32369  33133M 33143U
                                                 33285M 33295U 33504  35491M 35501U 35900M 35910U 36384M 36394U 37173M
                                                 37183U 37563M 37573U 38928M 38938U 39164M 39174U 39861M 39871U 40536M
                                                 40546U 41416M 41426U 42110M 42120U 42309M 42319U 42514  42862M 42872U
                                                 43096M 43106U
 R6            6 00000006 FFFFFFFF A   #     777  8428M  8438U  9076U  9512U 10258U 11100U 11245U 11390U 11469U 11614U
                                                 11759U 11843U 11927U 12011U 12090U 12179U 12268U 12357U 12446U 12641M
                                                 12651U 13315U 13399U 13483U 13567U 13745U 13877U 17980M 17990U 18002
                                                 19007U 19159M 19169U 19572M 19582U 19826  20859U 20943U 21027U 21112U
                                                 21196U 21275U 21354U 21449M 21459U 23005M 23015U 24426U 25137M 25156U
                                                 25480M 30146M 30162U 30176M 30177M 30177  30301M 30311U 31623M 31624M
                                                 31624  31643  31714M 31729M 31730M 31730  31755  31826M 32219M 32220M
                                                 32220  32258  32486M 39213M 39223U 39236M 39236  39247M 39248  40165M
                                                 40175U 41508M 41518U 41664  41665  41682  41683  42067M 42077U 43140M
                                                 43149M 43149  43218  43268  43355  43399U
 R7            7 00000007 FFFFFFFF A   #     790  2106M  2106   2107B  2119B
 R8            8 00000008 FFFFFFFF A   #     803  8415U 12637U 13855U 14369U 15925U 16485U 17976U 19568U 22011U 22368U
                                                 23001U 25128U 26030U 28431U 30297U 30972U 32184U 35487U 36380U 37549U
                                                 39160U 40159U
 SCANCHK       1 00000000 00000008     T   12495 12495  15789  19320  21899  25002  27062  28331
 SCKWR       504 00000000 FFFFFFD0     X   25973 26228
 SCLSEXIT      2 00006AD4 00000001     H   41340 40530B 40999B
 SCMDEXIT      2 00005C4A 00000001     H   35795 35702B
 SCNEXFR       1 00000000 00000019     T   19334 19334
 SCNINVAL      1 00000000 00000006     T   11050 11050  13265  17362  18957  20809  22913  24376
 SCNSERR       2 00003F88 00000001     H   26823 26455B 26519B 26584B 26680B
 SCNSEXIT      2 00003F98 00000001     H   26844 26690B 26812B
 SCWA        504 00000000 FFFFFFD0     J   25980 26001  26030U 26295  26297  26298
 SDSCLCK       8 00000000 FFFFFFCF     D   28374 29168M 29169
 SDSNQSZ       1 0000002C FFFFFFEC A   U    6094  6095   6096
 SDSWA         8 00000000 FFFFFFCF     J   28381 28402  28431U 30004  30006  30007
 SEG           1 00000000 00000009     T   12501 12501  14257  15791  19324  21906  24997  25721  27053  28334  30831
                                                 35353  35837  37101  41941
 SEGB          1 00000000 00000032     T   30843 30843  35360
 SEGBLANK      1 00000000 0000002D     T   25722 25722
 SEGCB        60 00000000 FFFFFFE5     J    7522 21444U
 SEGCBCOD      1 00000000 FFFFFFE5     R    7433  7442   7452   7462   7472   7482   7492   7502
 SEGCBCR       6 00000000 FFFFFFE5         7492 21477
 SEGCBLENF
               4 0000000C FFFFFFE5     A    7508 21657M 21657
 SEGCBMRKF
               4 00000008 FFFFFFE5     A    7507 21662M 21662
 SEGCBUSR      4 00000038 FFFFFFE5     A    7515 21449
 SEGCBWR       2 00000000 FFFFFFE5         7452 21489
 SEGCLR        1 00000000 00000017     T   19310 19310
 SEGCOL        1 00000000 00000030     T   30834 30834
 SEGCR         1 00000000 0000000A     T   12506 12506  14259  15803  19327  21907  25003  27055  30835  35357  35838
                                                 37097  41944
 SEGDC         1 00000000 0000000F     T   14261 14261  15794  19322  21910  24998  28336  30832  35355  41956
 SEGFCBP       4 00000000 FFFFFFD1     A   25069 25132M 25215  25233  25281  25304  25354  25377  25396  25435  25457
 SEGFFLDP      4 0000000C FFFFFFD1     A   25071 25179M 25198  25222  25270  25287  25341  25360  25385
 SEGFLDS       2 00003B74 00000001     H   25086 41943
 SEGFLNP       4 00000004 FFFFFFD1     A   25070 25135M 25161  25178M
 SEGFWA       20 00000000 FFFFFFD1     J   25078 25099  25128U 25515  25517  25518
 SEGHX         1 00000000 0000000E     T   14258 14258
 SEGINIT       1 00000000 00000025     T   21902 21902
 SEGINITR      1 00000000 00000026     T   21904 21904
 SEGT          1 00000000 00000010     T   15797 15797  19323  24999  28342  30833  35356
 SEGTB         1 00000000 00000035     T   35362 35362
1QUERY    (QUER2193) (12:52) (15MAR04) Ordinary Symbol and Literal Cross Reference                                          Page  182
 SEGWR         1 00000000 00000012     T   15805 15805  19329  25004  35363  35839  37098  41942
 SERVABRT      2 00006504 00000001     H   38893 25006  35834  37107  41945
 SERVALLO      2 00004CE2 00000001     H   30930 12504  35366
 SERVBUF       2 000066E8 00000001     H   39826 37109
 SERVCHK       2 00003D86 00000001     H   25988 12505
 SERVCHKL      2 00005FEA 00000001     H   37138 19350
 SERVCLS       2 00006882 00000001     H   40478 15802  19316  24996  35349  40474
 SERVCMDL      2 00005B60 00000001     H   35445 15799  19314
 SERVDEL       2 00006EA6 00000001     H   42274 12507  35348  41962  43495
 SERVDISP      2 00004570 00000001     H   28389 14255  25015
 SERVDTRC      2 000049A0 00000001     H   30023 14260
 SERVDTRE      2 00004A26 00000001     H   30255 25016  30185B
 SERVFBUF      2 00007038 00000001     H   42827 35370  41950  43500
 SERVFET       2 00005C7A 00000001     H   35865 19333  37102
 SERVFINDPRIVATE
               2 00004342 00000001     H   27795 12500
 SERVFINDPUBLIC
               2 000042A8 00000001     H   27543 12499
 SERVFMAP      2 00006564 00000001     H   39118 37108
 SERVFMTL      2 000060D4 00000001     H   37507 15801  21908
 SERVFREE      2 00004EF2 00000001     H   31526 31522
 SERVGET       2 00003CFE 00000001     H   25745 12498  14254  15793  19311  21916  25013  28335  35350  41958
 SERVGETL      2 00005DA8 00000001     H   36339 15800  19315  21905
 SERVOPEN      2 00004FAA 00000001     H   31882 15796  19313  31878
 SERVPOST      2 00006E0A 00000001     H   42032 42028
 SERVREAD      2 00006796 00000001     H   40118 19340  25005  35373  35835  37099  40114  41960
 SERVSCANPROTO
               2 00003FA6 00000001     H   26884 12491  19317  25008
 SERVSCANSVIB
               2 00004150 00000001     H   27096 19331  21896  24994
 SERVSEGN      2 000043E6 00000001     H   28054 12502  15795  19326  25007  27054  28337
 SERVSETPROTO
               2 00003E58 00000001     H   26319 15792  19309  27063
 SERVTRC       2 00006AE2 00000001     H   41381 41377
 SETQFCRE     64 00000000 FFFFFFDC         8291  8671  11768M
 SETQFDEL    128 00000000 FFFFFFDC         8286  8698  11852M
 SETQFLG1      1 00000000 FFFFFFDC     R    8282  8286   8291   8296
 SETQFLG2      1 00000001 FFFFFFDC     R    8302  8306   8311
 SETQFLG3      1 00000002 FFFFFFDC     R    8317  8321   8326   8331
 SETQFNOREUSE
              64 00000001 FFFFFFDC         8311  8588  10557  12104M 12188M
 SETQFNOTRACE
              64 00000002 FFFFFFDC         8326  8641  10612  12282M 12366M
 SETQFOPT      1 00000003 FFFFFFDC     R    8337  8341   8346
 SETQFPDEF
              64 00000003 FFFFFFDC         8346  9224M  9348
 SETQFPUBLIC
              32 00000000 FFFFFFDC         8296  8788   8868M  9167   9254   9814   9894M 11936M
 SETQFREUSE
             128 00000001 FFFFFFDC         8306  8562  10530  12099M 12193M
 SETQFSOME
             128 00000003 FFFFFFDC         8341  8854   8906   9880   9983M 10130  10741M
 SETQFTCLEAR
              32 00000002 FFFFFFDC         8331 10641  12455M
 SETQFTRACE
             128 00000002 FFFFFFDC         8321  8615  10585  12277M 12371M
 SETQMAX       4 000000B8 FFFFFFDC     F    8355  8541M  8541   8548  10501M 10501  10508  12015M
 SETQPRT       4 000006BC 00000001     F   10783 12493
 SETQRDB      32 00000004 FFFFFFDC     C    8350  8530  10386M 10386  10393  11104M 11155M 12511
1QUERY    (QUER2193) (12:52) (15MAR04) Ordinary Symbol and Literal Cross Reference                                          Page  183
 SETQRHOST
              80 00000024 FFFFFFDC     C    8351  8526  10409M 10409  10416  11249M 11300M 12512
 SETQRPASS
              32 00000098 FFFFFFDC     C    8354  8529  10478M 10478  10485  11618M 11669M 12514
 SETQRPORT
               4 00000074 FFFFFFDC     F    8352  8527  10432M 10432  10439  11394M
 SETQRUSER
              32 00000078 FFFFFFDC     C    8353  8528  10455M 10455  10462  11473M 11524M 12513
 SETQSVIB    428 000000BC FFFFFFDC     X    8357  8445   8869
 SETQUERY      2 00000018 00000001     H    8373  8369
 SETQWA      616 00000000 FFFFFFDC     J    8364  8386   8415U  8425M  8425   8426M  8426   8427M  8427   8428   8438U
                                                  9006   9008   9009   9076U  9512U 10258U 11100U 11245U 11390U 11469U
                                                 11614U 11759U 11843U 11927U 12011U 12090U 12179U 12268U 12357U 12446U
 SETUEXIT      2 000058AA 00000001     H   35030 33377B 33480B 33805B 33817B 34245B 34357B 34473B 34573B 34657B 35006B
 SFETLOOP      4 00005CE6 00000001     I   36034 36135B 36205B
 SHOSFALL     32 00000000 FFFFFFDB        12565 13492M 14004
 SHOSFDEBUG
             128 00000000 FFFFFFDB        12555 12836  13324M 14037
 SHOSFLAG      1 00000000 FFFFFFDB     R   12551 12555  12560  12565  12570
 SHOSFSOME
              16 00000000 FFFFFFDB        12570 13097  14191M
 SHOSFTRACE
              64 00000000 FFFFFFDB        12560 12758  12969  13408M 14170
 SHOSMAT      32 0000000A FFFFFFDB     C   12577 13571M 13619M 13655M 14262
 SHOSMLEN      2 00000008 FFFFFFDB     H   12576 13592M
 SHOSNO        4 00000004 FFFFFFDB     F   12574 12710  13028  13749M
 SHOSPRT       4 00001060 00000001     F   13163 14252
 SHOSWA      470 00000000 FFFFFFDB     J   12586 12608  12637U 12641  12651U 12661M 12661  12662M 12662  13151  13153
                                                 13154  13315U 13399U 13483U 13567U 13745U 13877U
 SHOWQRY       2 00000EB0 00000001     H   12595 12591
 SHSALL        2 000011D0 00000001     H   13439 13220
 SHSDEBUG      2 00001178 00000001     H   13271 13190
 SHSLIKE       2 000011FC 00000001     H   13523 13175
 SHSNUM        2 00001258 00000001     H   13701 13235
 SHSTRACE      2 000011A4 00000001     H   13355 13205
 SOERR         2 00001F36 00000001     H   17267 16936B 17023B 17124B
 SOERRSEG      4 00001EAE 00000001     I   17127 16622B
 SONETERR      2 00001DCE 00000001     H   16879 16607B
 SOPNEXIT      2 00005044 00000001     H   32071 31971B 31999B 32025B
 SPR          13 0000000D 00000001 A   #    1131  8380   8383   8385   8386M  8386   9002M  9006   9008   9028   9031
                                                  9032   9033M  9033   9438M  9442   9444   9464   9467   9468   9469M
                                                  9469  10191M 10195  10197  10220  10223  10224  10225M 10225  10767M
                                                 10771  10773  11062  11065  11066  11067M 11067  11186M 11190  11192
                                                 11207  11210  11211  11212M 11212  11331M 11335  11337  11352  11355
                                                 11356  11357M 11357  11410M 11414  11416  11431  11434  11435  11436M
                                                 11436  11555M 11559  11561  11576  11579  11580  11581M 11581  11700M
                                                 11704  11706  11721  11724  11725  11726M 11726  11784M 11788  11790
                                                 11805  11808  11809  11810M 11810  11868M 11872  11874  11889  11892
                                                 11893  11894M 11894  11952M 11956  11958  11973  11976  11977  11978M
                                                 11978  12031M 12035  12037  12052  12055  12056  12057M 12057  12120M
                                                 12124  12126  12141  12144  12145  12146M 12146  12209M 12213  12215
                                                 12230  12233  12234  12235M 12235  12298M 12302  12304  12319  12322
                                                 12323  12324M 12324  12387M 12391  12393  12408  12411  12412  12413M
                                                 12413  12471M 12475  12477  12602  12605  12607  12608M 12608  13147M
                                                 13151  13153  13277  13280  13281  13282M 13282  13340M 13344  13346
                                                 13361  13364  13365  13366M 13366  13424M 13428  13430  13445  13448
                                                 13449  13450M 13450  13508M 13512  13514  13529  13532  13533  13534M
                                                 13534  13686M 13690  13692  13707  13710  13711  13712M 13712  13765M
                                                 13769  13771  13820  13823  13825  13826M 13826  14233M 14237  14239
1QUERY    (QUER2193) (12:52) (15MAR04) Ordinary Symbol and Literal Cross Reference                                          Page  184
                                                 14334  14337  14339  14340M 14340  15765M 15769  15771  15890  15893
                                                 15895  15896M 15896  16404M 16408  16410  16450  16453  16455  16456M
                                                 16456  17335M 17339  17341  17381  17384  17385  17386M 17386  17608M
                                                 17612  17614  17634  17637  17638  17639M 17639  17891M 17895  17897
                                                 17941  17944  17946  17947M 17947  18855M 18859  18861  18969  18972
                                                 18973  18974M 18974  19101M 19105  19107  19130  19133  19134  19135M
                                                 19135  19281M 19285  19287  19533  19536  19538  19539M 19539  20661M
                                                 20665  20667  20821  20824  20825  20826M 20826  20884M 20888  20890
                                                 20905  20908  20909  20910M 20910  20968M 20972  20974  20989  20992
                                                 20993  20994M 20994  21053M 21057  21059  21074  21077  21078  21079M
                                                 21079  21137M 21141  21143  21158  21161  21162  21163M 21163  21216M
                                                 21220  21222  21237  21240  21241  21242M 21242  21295M 21299  21301
                                                 21316  21319  21320  21321M 21321  21374M 21378  21380  21405  21408
                                                 21409  21410M 21410  21688M 21692  21694  21722  21725  21726  21727M
                                                 21727  21872M 21876  21878  21976  21979  21981  21982M 21982  22287M
                                                 22291  22293  22333  22336  22338  22339M 22339  22884M 22888  22890
                                                 22966  22969  22971  22972M 22972  24334M 24338  24340  24388  24391
                                                 24392  24393M 24393  24451M 24455  24457  24482  24485  24486  24487M
                                                 24487  24646M 24650  24652  24679  24682  24683  24684M 24684  24973M
                                                 24977  24979  25093  25096  25098  25099M 25099  25511M 25515  25517
                                                 25549  25552  25553  25554M 25554  25703M 25707  25709  25751  25754
                                                 25755  25756M 25756  25945M 25949  25951  25995  25998  26000  26001M
                                                 26001  26291M 26295  26297  26325  26328  26329  26330M 26330  26857M
                                                 26861  26863  26890  26893  26894  26895M 26895  27030M 27034  27036
                                                 27102  27105  27106  27107M 27107  27513M 27517  27519  27549  27552
                                                 27553  27554M 27554  27765M 27769  27771  27801  27804  27805  27806M
                                                 27806  28032M 28036  28038  28060  28063  28064  28065M 28065  28311M
                                                 28315  28317  28396  28399  28401  28402M 28402  30000M 30004  30006
                                                 30029  30032  30033  30034M 30034  30213M 30217  30219  30262  30265
                                                 30267  30268M 30268  30810M 30814  30816  30937  30940  30942  30943M
                                                 30943  31485M 31489  31491  31532  31535  31536  31537M 31537  31851M
                                                 31855  31857  31888  31891  31892  31893M 31893  32084M 32088  32090
                                                 32149  32152  32154  32155M 32155  33221M 33225  33227  33256  33259
                                                 33260  33261M 33261  35325M 35329  35331  35452  35455  35457  35458M
                                                 35458  35813M 35817  35819  35871  35874  35875  35876M 35876  36287M
                                                 36291  36293  36345  36348  36350  36351M 36351  37071M 37075  37077
                                                 37144  37147  37148  37149M 37149  37464M 37468  37470  37514  37517
                                                 37519  37520M 37520  38868M 38872  38874  38899  38902  38903  38904M
                                                 38904  39073M 39077  39079  39125  39128  39130  39131M 39131  39798M
                                                 39802  39804  39832  39835  39836  39837M 39837  40067M 40071  40073
                                                 40124  40127  40129  40130M 40130  40447M 40451  40453  40484  40487
                                                 40488  40489M 40489  41353M 41357  41359  41387  41390  41391  41392M
                                                 41392  41917M 41921  41923  42038  42041  42042  42043M 42043  42250M
                                                 42254  42256  42280  42283  42284  42285M 42285  42804M 42808  42810
                                                 42833  42836  42837  42838M 42838  43034M 43038  43040  43067  43070
                                                 43071  43072M 43072  43475M 43479  43481
 SQLPORT#      1 000000C9 00000001 A   N    8037 12503
 SSCNEXIT      2 00004040 00000001     H   27017 27003B
 SSMAX         2 00000B7C 00000001     H   11967 10915
 SSPUBLIC      2 00000B50 00000001     H   11883 10900
 SSVAS         2 0000098C 00000001     H   11056 10795
 SSVCRE        2 00000AF8 00000001     H   11715 10870
 SSVDEL        2 00000B24 00000001     H   11799 10885
 SSVNOREU      2 00000BD8 00000001     H   12135 10945  10975
 SSVNTRC       2 00000C38 00000001     H   12313 10990  11020
 SSVON         2 000009DC 00000001     H   11201 10810
 SSVPASS       2 00000AA8 00000001     H   11570 10855
 SSVPORT       2 00000A2C 00000001     H   11346 10825
 SSVREUSE      2 00000BA8 00000001     H   12046 10930  10960
1QUERY    (QUER2193) (12:52) (15MAR04) Ordinary Symbol and Literal Cross Reference                                          Page  185
 SSVTCLR       2 00000C68 00000001     H   12402 11035
 SSVTRC        2 00000C08 00000001     H   12224 11005
 SSVUSER       2 00000A58 00000001     H   11425 10840
 STRC         30 00000000 FFFFFFE0     J    7999 23740  23756U 23839U 23880  23896U 23982  24026  24125U 30146  30162U
                                                 30183  30311U 30329  41518U 41529M 41682M 41735U 41769U 43175  43185U
                                                 43268  43322U 43338  43355  43399U 43416  43433M 43436
 STRCACCT      5 00000014 FFFFFFE0     C    7984 30473  30521  41538M 41568M
 STRCCLCK      8 00000008 FFFFFFE0     D    7966 30359  41534M
 STRCDATA      1 0000001E FFFFFFE0     X    7992 30581  41606
 STRCDLEN      2 0000001C FFFFFFE0     H    7988 30585  41598M
 STRCEXIT      2 00004A18 00000001     H   30200 30138B
 STRCFKEEP
              64 00000010 FFFFFFE0         7979 24043M 41641M 41748
 STRCFLAG      1 00000010 FFFFFFE0     R    7970  7974   7979
 STRCFSHOWN
             128 00000010 FFFFFFE0         7974 23782M 23851M 23926  24036M 24138
 STRCHDR      30 00000000 FFFFFFE0     X    7989 41528M 41528  41982
 STRCLINK      4 00000004 FFFFFFE0     A    7965 23740  23770  23880  23910  30146  30176  41682M 43175  43201  43268
                                                 43355M 43355  43366M 43366  43434M
 STRCLNO       2 00000012 FFFFFFE0     H    7983 30413  41567M
 STRCMXDL      1 000000C8 FFFFFFE0 A   N    7991 41964
 STRCSTRT      4 00000000 FFFFFFE0     C    7964  7989   7989
 STRCTYPE      3 00000019 FFFFFFE0     C    7986 30542  30601  41536M
 STREEXIT      2 00004B70 00000001     H   30792 30353B
 SVCLPTRS      4 00000004 FFFFFFCB     A   35430 35535M 35721
 SVCLSGP       4 00000000 FFFFFFCB     A   35429 35562M 35633  35655  35677  35738  35760  35782
 SVCLWA       12 00000000 FFFFFFCB     J   35437 35458  35487U 35817  35819  35820
 SVDTMSG     256 00000003 FFFFFFCE     X   30240 30654M 30675M 30691  30844
 SVDTTYPE      3 00000000 FFFFFFCE     C   30239 30542M 30543M 30543  30554  30559
 SVDTWA      259 00000000 FFFFFFCE     J   30247 30268  30297U 30814  30816  30817
 SVFMSGP       4 00000000 FFFFFFC9     A   37492 37560M 37635  37657  37748  37800  37873  37905  37927  38042  38066
                                                 38105  38161  38213  38274  38312  38344  38359  38391  38470  38508
                                                 38540  38555  38587  38658  38696  38728  38743  38775  38809  38834
 SVFMWA        4 00000000 FFFFFFC9     J   37499 37520  37549U 37559M 37559  38872  38874  38875
 SVFTEXIT      2 00005D9A 00000001     H   36274 36040B
 SVGLATL1      4 00005E64 00000001     I   36642 36679B
 SVGLATL2      4 00005EF0 00000001     I   36884 36921B
 SVGLEXIT      2 00005F4A 00000001     H   37053 36478B 36613B 36685B
 SVGLNDAT     45 00005F58 00000001     X   37085 36606  36611
 SVGLNDAX      3 00005F58 00000001     C   37082 37085  37085
 SVGLNEXT      4 00005F1A 00000001     I   36935 36573B 36871B
 SVGLOK        2 00005F26 00000001     H   36974 36931B
 SVGLSGP       4 00000000 FFFFFFCA     A   36324 36453M
 SVGLWA        4 00000000 FFFFFFCA     J   36331 36351  36380U 37075  37077  37078
 SVIB        428 00000000 FFFFFFDE     J    8239  8357   8455U  8465M  8465   8466M  8466   8467M  8469   8794   8829
                                                  8878   8930   9066U  9173   9195   9202   9292   9316   9405   9502U
                                                  9558   9634   9711U  9733U  9820   9855   9920  10003  10154  10273U
                                                 10289  10665  10713  12579  12742U 12819  12865  12975  13796  13950U
                                                 14020  14066  14176  14311  14393U 14581  14744  14794  14829  14884
                                                 15069  15278  15300  15307  15453  15589  15867  15952U 15957  16131
                                                 16162  16177  16427  16508U 16515  16591  16826  16912  17427U 17432
                                                 17680U 17685  17728  18280U 18678  19617U 19871  20078  21787U 21849
                                                 22032U 22389U 22551  22610  22943  23040U 23045  23626  23724  24572U
                                                 24735U 26075U 26091  26163  26270  26364U 26929U 27009  27423U 27480
                                                 27497  27588U 27719  27840U 27952  27986  28099U 28445U 28461  30068U
                                                 30084  31018U 31035  31355  31370U 31388  31464  31673U 31695  31785U
                                                 31927U 32005  32020  32288U 32401  32539U 33090U 33143U 33159  33184
                                                 33195  33295U 33311  33577  35501U 35517  35582  35910U 35926  36394U
                                                 36410  36473  36674  36691  36697  36916  37183U 37199  37573U 37589
1QUERY    (QUER2193) (12:52) (15MAR04) Ordinary Symbol and Literal Cross Reference                                          Page  186
                                                 37673  38219  38938U 39174U 39190  39871U 39887  40546U 40562  40640
                                                 40989  41153  41426U 41442  41757  42077U 42093  42216  42319U 42335
                                                 42544  42570  42712M 42779  42872U 42888  43106U 43122
 SVIB#BUSY
               4 00000048 FFFFFFDE         8099  9651  10020  14687  16067  27441  29127  32431  33388M 40590
 SVIB#IDLE
               3 00000048 FFFFFFDE         8089 29078  31988  32395  33182M 33366  35054M 41324M 42166
 SVIB#MASTER
               1 00000048 FFFFFFDE         8069  9239M 10370  14770  23495  24915  28699  31062  32363
 SVIB#WAITING
               2 00000048 FFFFFFDE         8079 29029
 SVIBCLK       8 00000180 FFFFFFDE     X    8216 29162M 29162  29170  33389M
 SVIBCRACCT
               5 0000016C FFFFFFDE     C    8210 26198  26244  31449M
 SVIBCRJCB
               4 00000168 FFFFFFDE     A    8209 13968M 13968  13986  14705M 14705  14720  21802M 21802  21820  26118M
                                                 26118  26136  27952  29529  31448M 31689  32305M 32305  32320
 SVIBFABORT
              32 0000004B FFFFFFDE         8189 38995  39044M
 SVIBFBUFFER
             128 0000004B FFFFFFDE         8179 15290M 19858M 36630
 SVIBFCLOSING
              64 00000049 FFFFFFDE         8114  9722M 10068M 24800  29782  40814
 SVIBFENDTAB
              64 0000004B FFFFFFDE         8184 37846  38230M
 SVIBFINIT
             128 00000049 FFFFFFDE         8109 33420  33781  34580M 35100  35266M 40765M
 SVIBFLAG      1 00000049 FFFFFFDE     R    8105  8109   8114   8119   8124   8129   8134
 SVIBFMAP      4 00000190 FFFFFFDE     A    8221 37629  37899  37937  39213  39248M 42917  42930M 42930
 SVIBFMON      4 00000049 FFFFFFDE         8134 23719M 24300M 29821  41473  41473  41629
 SVIBFPUBLIC
              32 00000049 FFFFFFDE         8119  9578   9940  10316  31418M 33108  33451  33560  35072  41284
 SVIBFREUSE
              16 00000049 FFFFFFDE         8124  8574M  8601M 10542M 10570M 29744  34606  40802
 SVIBFTRC      8 00000049 FFFFFFDE         8129  8484M  8627M  8654M 10597M 10625M 41473  41473  41474  42587M
 SVIBIN#       1 000003E8 FFFFFFDE A   N    8223 41955
 SVIBINCT      4 00000194 FFFFFFDE     F    8224 36547  36549M 40002  40003M 43018M 43018
 SVIBINFO     80 00000100 FFFFFFDE     C    8199 28603M 28603  28640  28645  33832M 33879M 35120M 35267M 35346  35374
                                                 40766M 41936
 SVIBINQH      4 00000198 FFFFFFDE     A    8225 36496  36523M 36570M 36570  36868M 36868  36935  39973M 42953  42974M
 SVIBINQT      4 0000019C FFFFFFDE     A    8226 36539M 39960  39974M 39992M 42990M
 SVIBJCBP      4 00000188 FFFFFFDE     A    8218 14860  14907  16097  27456  29347  31801  32455  33339M 33339  33390M
                                                 35061M 35061  40620  41331M 41331  41541
 SVIBLOCALF
               1 0000004B FFFFFFDE     R    8175  8179   8184   8189  15263M 16159M 19836M 21848M
 SVIBMAX       4 000001A8 FFFFFFDE     F    8232  8478M  8548M 10508M 28936M 28936  28965  32545
 SVIBMJCB      4 00000174 FFFFFFDE     A    8212 23588  23720M 24307M 24307  29857  29881  41791  42600  42699M 42699
 SVIBNAME     32 00000008 FFFFFFDE     C    8054  8256  12577  14600M 14600  15172  15177  15526  15531  16022M 16022
                                                 16531M 16531  16694  16699  16986  16991  17060  17065  21953  22038
                                                 23137  23170  23175  23547  23552  24584  24589  26375M 26375  26743M
                                                 26789M 26802M 27058  27710M 27710  27719  27719  27977M 27977  27986
                                                 27986  28180M 28180  28220  28225  28268M 28268  28574  28579  31944M
                                                 31944  32035  32060  32124  32342  33635
 SVIBNO        4 00000004 FFFFFFDE     F    8053  8725   9521  14606  14645  15116  15404  16028  16368  16638  16795
                                                 22037  22166  23102M 23102  23400M 23413  23452  23482  24256  26380M
                                                 26380  26685M 26724M 27595  27847  28105  28255M 28255  28502  31460M
                                                 31807  31950  33657  42363M 42363  42381
 SVIBNTRC      4 0000015C FFFFFFDE     F    8205 41693  41694M 41711  43444  43446M
 SVIBRDB      32 0000004C FFFFFFDE     C    8193  8530M  9118M  9118  10393M 28733  28738  34506  34511
1QUERY    (QUER2193) (12:52) (15MAR04) Ordinary Symbol and Literal Cross Reference                                          Page  187
 SVIBRHOST
              80 0000006C FFFFFFDE     C    8194  8526M  9090M  9090  10416M 28761M 28761  28796  28801  33505
 SVIBRPASS
              32 000000E0 FFFFFFDE     C    8197  8529M 10485M 34375M 34375  34406  34411
 SVIBRPORT
               4 000000BC FFFFFFDE     F    8195  8527M  9146M  9146   9152M 10439M 28908  33506
 SVIBRUSER
              32 000000C0 FFFFFFDE     C    8196  8528M 10462M 28828M 28828  28863  28868  34259M 34259  34290  34295
 SVIBSFDATA
               1 0000004A FFFFFFDE         8159 18325  18404M 22470  24752  29667  35617  35713M 35982  40860  41016
 SVIBSFFETCH
               2 0000004A FFFFFFDE         8169 22545  24776  29691  35576  36261M 36467  41132
 SVIBSFNORMAL
               0 0000004A FFFFFFDE         8149 22520M 22569M 22586  22638  35600M 36032M 36592  37036M 38456M 38644M
                                                 40913M 41098M 41175M
 SVIBSTAT      1 00000048 FFFFFFDE     R    8060  8069   8079   8089   8099
 SVIBSTATE
               1 0000004A FFFFFFDE     R    8140  8149   8159   8169  29648
 SVIBTRC#      1 00000032 00000001 A   X    7951 41967
 SVIBTRCQH
               4 00000160 FFFFFFDE     A    8206 10658  23740  23880  30114M 30114  30146  41664M 41717  42563  43175
                                                 43268M 43279M 43279  43458
 SVIBTRCQT
               4 00000164 FFFFFFDE     A    8207 24103  41651  41665M 41683M 43292M 43292  43373M
 SVIBUNET      4 0000018C FFFFFFDE     A    8219 12908  14109  18286  18392  22393  22523  22558  22716  24818  33404M
                                                 33404  33485M 33489  33536  35078  35112M 35112  35139  35252M 35252
                                                 35537  35589  35684  35944  36035  36428  36642  36884  37217  38945
                                                 40653  40758M 40758  40822  40916  40973  41024  41101  41140  41160
                                                 41186  41256  41292  42110  42716  42755M 42755
 TRC           1 00000000 00000000 A   T    2135  2135
 TSTAT         1 00000000 0000002B     T   25012 25012
 TTYFLAG       1 00000004 FFFFFFEA     R    6223  6227
 TTYMAX#       1 00000006 FFFFFFEA A   U    6279  6280
 TTYTFLAG      1 00000005 FFFFFFEA     R    6233  6237   6242   6247   6252   6257   6262   6267
 UNET        632 00000000 FFFFFFE6     J    7416 18296U 22403U 24840U 33499U 33546U 33567  33787  33812  34240  34352
                                                 34468  34568  34652  35001  35122  35169U 35185  35269  35287U 35547U
                                                 35954U 36438U 37227U 37243  37275  38967U 40175U 40191  40675U 40691
                                                 40768  40844U 41046U 41208U 42120U 42136  42738U 42758  42764
 UNETACCT      5 00000004 FFFFFFE6     C    6973  6974   6975
 UNETAFLG1
               1 00000163 FFFFFFE6     R    7218  7222   7227   7232
 UNETAFLG2
               1 00000164 FFFFFFE6     R    7238  7242   7247   7252   7257   7262   7267   7272   7277
 UNETAFLG3
               1 00000165 FFFFFFE6     R    7283  7287   7292   7297
 UNETBUF#      1 00000FA0 FFFFFFE6 A   N    7065 35386
 UNETFINABORT
               2 00000164 FFFFFFE6         7272 24867  35225  40731  42195
 UNETFINEOF
               4 00000164 FFFFFFE6         7267 24855  35213  40719  42183
 UNETFKEEPTABS
              32 00000165 FFFFFFE6         7297 33512M
 UNETFLG1      1 0000002C FFFFFFE6     R    6990  6994   6999   7004   7009   7014   7019   7024
 UNETFLG2      1 0000002D FFFFFFE6     R    7030  7034   7039   7044   7049
 UNETFNOWAIT
              64 0000002C FFFFFFE6         6999 37274M 37286M
 UNETFWRAP
              64 00000165 FFFFFFE6         7292 33520M
 UNETINMODE
1QUERY    (QUER2193) (12:52) (15MAR04) Ordinary Symbol and Literal Cross Reference                                          Page  188
               1 00000166 FFFFFFE6     R    7303  7312   7322
 UNETMAXL      2 00000168 FFFFFFE6     H    7351 33513M
 UNETOUTMODE
               1 00000167 FFFFFFE6     R    7328  7337   7347
 UNETOUTSG
              60 0000010C FFFFFFE6     X    7184 18302  22409  33908  33923  33957  33980  34005  34020  34045  34077
                                                 34103  34122  34148  34163  34189  34211  34233  34275  34301  34323
                                                 34345  34391  34417  34439  34461  34491  34517  34539  34561  34623
                                                 34645  34669  34684  34718  34741  34766  34781  34806  34838  34864
                                                 34883  34909  34924  34950  34972  34994  35553  35960  36444  38973
                                                 40879  40903  40942  40966  41063  41087  41225  41249
 UNETOUTSGCOD
               1 0000010C FFFFFFE6     R    7101  7110   7120   7130   7140   7150   7160   7170
 UNETRNAME
              80 0000017C FFFFFFE6     C    7360  8194   8351  33505M
 UNETRPORT
               4 000001D0 FFFFFFE6     F    7362 33506M
 UNETSFABORT
               1 00000007 FFFFFFE6 A   U    7204 24882  35240  40746  42210
 UNETSGFLG
               1 00000104 FFFFFFE6     R    7071  7075   7080   7085   7090   7093   7093
 UNETSTATE
               1 00000160 FFFFFFE6     X    7197 24882  35240  40746  42210
 UNETSVIB      4 00000024 FFFFFFE6     A    6984 33504M 35119M 35119  35259M 35259  42748M 42748
 UNETVFLG1
               1 0000021C FFFFFFE6     R    7376  7380
 UNPRST        1 00000001 FFFFFFEC A   U    6183 19343  19346  19347
 UPAT          4 00000074 FFFFFFE7     F    6884  6943
 UPATFLG1      1 00000018 FFFFFFE7     R    6833  6837   6842   6847   6852   6857   6862
 UPATSFLG      1 000000AC FFFFFFE7     X    6945  6907
 UPPTBL        1 00000000 00000000 A   T    2198  2198
 VNADATA      48 00000020 FFFFFFE4     X    7623  7800   7800
 VNAFLAGS      1 00000011 FFFFFFE4     R    7604  7608
 VNAREA        1 00000024 FFFFFFE4     U    7741  7743   7747   7753   7802   7808   7813   7819
 VNATYPE       1 00000030 FFFFFFE4     R    7760  7769   7779   7789
 VNDATA       16 00000020 FFFFFFE4     X    7619  7620   7622   7624   7806   7806   7811   7811   7817   7817   7822
                                                  7822
 VNDEBUG       1 00000021 FFFFFFE4     R    7702  7706   7711   7716   7721
 VNDESC       32 00000000 FFFFFFE4     X    7545  7546   7614   7614
 VNFLAGS1      1 00000022 FFFFFFE4     R    7726  7730
 VNNAME       16 00000000 FFFFFFE4     C    7547  7799
 VNPREFIX      1 00000010 FFFFFFE4     R    7550  7559   7569   7579   7589   7599
 VNSDATA       6 00000020 FFFFFFE4     X    7621  7751   7751
 VNTYPE        1 00000020 FFFFFFE4     R    7628  7637   7647   7657   7667   7677   7687   7697
 VNVALUE      12 00000024 FFFFFFE4     X    7745  7826
 WAITER        1 00000000 00000013     T   15806 15806  19330  35365
 WAR           8 00000008 00000001 A   #    1054  8385M  9002   9032M  9438   9468M 10191  10224M 10767  11066M 11186
                                                 11211M 11331  11356M 11410  11435M 11555  11580M 11700  11725M 11784
                                                 11809M 11868  11893M 11952  11977M 12031  12056M 12120  12145M 12209
                                                 12234M 12298  12323M 12387  12412M 12471  12607M 13147  13281M 13340
                                                 13365M 13424  13449M 13508  13533M 13686  13711M 13765  13825M 14233
                                                 14339M 15765  15895M 16383  16404  16455M 17335  17385M 17608  17638M
                                                 17891  17946M 18855  18973M 19101  19134M 19281  19538M 20661  20825M
                                                 20884  20909M 20968  20993M 21053  21078M 21137  21162M 21216  21241M
                                                 21295  21320M 21374  21409M 21688  21726M 21856  21872  21981M 22287
                                                 22338M 22884  22971M 24334  24392M 24451  24486M 24646  24683M 24973
                                                 25098M 25511  25553M 25703  25755M 25945  26000M 26291  26329M 26857
                                                 26894M 27030  27106M 27513  27553M 27745  27765  27805M 28012  28032
                                                 28064M 28311  28401M 30000  30033M 30213  30267M 30810  30942M 31485
1QUERY    (QUER2193) (12:52) (15MAR04) Ordinary Symbol and Literal Cross Reference                                          Page  189
                                                 31536M 31851  31892M 32084  32154M 33221  33260M 35325  35457M 35701
                                                 35813  35875M 36287  36350M 37071  37148M 37464  37519M 38868  38903M
                                                 39073  39130M 39798  39836M 40067  40129M 40447  40488M 41353  41391M
                                                 41917  42042M 42250  42284M 42804  42837M 43034  43071M 43475
 WTOSG         1 00000000 00000000 A   T    2095  2095
 WYLQUERY      1 00000000 00000001     J    1008  1010   1036   1049   1062   1074   1087   1100   1113   1126   1139
                                                  1152   2379   2463   6203   6315   6595   6806   6955   7417   7523
                                                  7836   7841   7904   7924   7949   8000   8027   8240   8265   8365
                                                 11161  11306  11530  11675
 YESREQ        1 00000000 0000002E     T   27056 27056
 =A((DESRTRN+LOCATRTN+UNPRST+DESABORT))
               4 00002780 00000001     A   19347 18533
 =A((LEXATRTN+DESRTRN+LOCATRTN+UNPRST+DESABORT))
               4 00002770 00000001     A   19343 18473
 =A((LXCATRTN+DESRTRN+LOCATRTN+UNPRST+DESABORT))
               4 0000277C 00000001     A   19346 18509
 =A(CVPSFNO)
               4 00004058 00000001     A   27050 25880  25900
 =A(CVPSFNO)
               4 000044B8 00000001     A   28338 27611  27662
 =A(CVPSFNO)
               4 00004EBC 00000001     A   31504 31104
 =A(CVPSFNO)
               4 0000720C 00000001     A   43498 42447  42467
 =A(CVPSLNO)
               4 0000405C 00000001     A   27051 25894
 =A(CVPSLNO)
               4 000044BC 00000001     A   28339 27635
 =A(CVPSLNO)
               4 00004EC0 00000001     A   31505 31105
 =A(CVPSLNO)
               4 00007210 00000001     A   43499 42461
 =A(CVUSFNO)
               4 00004050 00000001     A   27048 25810  25830
 =A(CVUSFNO)
               4 000044C0 00000001     A   28340 27863  27914
 =A(CVUSFNO)
               4 00004EC4 00000001     A   31506 31125
 =A(CVUSFNO)
               4 00007204 00000001     A   43496 42395  42415
 =A(CVUSLNO)
               4 00004054 00000001     A   27049 25824
 =A(CVUSLNO)
               4 000044C4 00000001     A   28341 27887
 =A(CVUSLNO)
               4 00004EC8 00000001     A   31507 31126
 =A(CVUSLNO)
               4 00007208 00000001     A   43497 42409
 =A(FREESTRC)
               4 00000CF4 00000001     A   12509 10668
 =A(FREESTRC)
               4 00007218 00000001     A   43501 42573
 =A(GETFIELD)
               4 00006D1C 00000001     A   41952 39309  39474  39639
 =A(L'SETQRDB)
               4 00000CFC 00000001     A   12511 11112  11124
 =A(L'SETQRHOST)
               4 00000D00 00000001     A   12512 11257  11269
 =A(L'SETQRPASS)
1QUERY    (QUER2193) (12:52) (15MAR04) Ordinary Symbol and Literal Cross Reference                                          Page  190
               4 00000D08 00000001     A   12514 11626  11638
 =A(L'SETQRUSER)
               4 00000D04 00000001     A   12513 11481  11493
 =A(L'SHOSMAT)
               4 000013C8 00000001     A   14262 13575  13587
 =A(L'SVDTMSG)
               4 00004BE0 00000001     A   30844 30610  30622
 =A(L'SVIBINFO)
               4 00005A6C 00000001     A   35374 33835  33847
 =A(L'SVIBNAME)
               4 00004078 00000001     A   27058 26536  26746  26758
 =A(QFETPRT)
               4 00003084 00000001     A   21897 19641
 =A(QFETSEG)
               4 0000309C 00000001     A   21903 19813
 =A(QMONPRT)
               4 00003A24 00000001     A   25009 23069
 =A(QOPENPRT)
               4 000026E4 00000001     A   19318 16568
 =A(QRESPRT)
               4 00003A00 00000001     A   25000 22438
 =A(QRPRT)
               4 0000275C 00000001     A   19338 18108
 =A(QRPRTX)
               4 00002758 00000001     A   19337 18061
 =A(QRUNRTN)
               4 00002774 00000001     A   19344 18474  18510  18534
 =A(QSCREATE)
               4 00000CC0 00000001     A   12496  8679
 =A(QSDELETE)
               4 00000CC4 00000001     A   12497  8706
 =A(SEGFLDS)
               4 00006CF0 00000001     A   41943 37638  37908
 =A(SERVABRT)
               4 00003A18 00000001     A   25006 22554
 =A(SERVABRT)
               4 00005C5C 00000001     A   35834 35585
 =A(SERVABRT)
               4 00005FB4 00000001     A   37107 36677  36919
 =A(SERVABRT)
               4 00006CF8 00000001     A   41945 37676  41156
 =A(SERVALLO)
               4 00000CE0 00000001     A   12504  9295
 =A(SERVALLO)
               4 00005A4C 00000001     A   35366 33131
 =A(SERVBUF)
               4 00005FBC 00000001     A   37109 36700
 =A(SERVCHK)
               4 00000CE4 00000001     A   12505  9540
 =A(SERVCHKL)
               4 0000278C 00000001     A   19350 19263
 =A(SERVCLS)
               4 00001978 00000001     A   15802 15407
 =A(SERVCLS)
               4 000026DC 00000001     A   19316 16371
 =A(SERVCLS)
               4 000039F0 00000001     A   24996 22169
 =A(SERVCLS)
               4 000059F0 00000001     A   35349 31810
1QUERY    (QUER2193) (12:52) (15MAR04) Ordinary Symbol and Literal Cross Reference                                          Page  191
 =A(SERVCMDL)
               4 0000196C 00000001     A   15799 15281
 =A(SERVCMDL)
               4 000026D4 00000001     A   19314 16165  17448  17718
 =A(SERVDEL)
               4 00000CEC 00000001     A   12507  9780  10109
 =A(SERVDEL)
               4 000059EC 00000001     A   35348 31698
 =A(SERVDEL)
               4 00006D44 00000001     A   41962 40992
 =A(SERVDEL)
               4 00007200 00000001     A   43495 42219
 =A(SERVDISP)
               4 0000139C 00000001     A   14255 12822  14023
 =A(SERVDISP)
               4 00003A5C 00000001     A   25015 23727
 =A(SERVDTRC)
               4 000013C0 00000001     A   14260 12978  14179
 =A(SERVDTRE)
               4 00003A60 00000001     A   25016 23985  24029
 =A(SERVFBUF)
               4 00005A5C 00000001     A   35370 33580
 =A(SERVFBUF)
               4 00006D14 00000001     A   41950 38222  40643
 =A(SERVFBUF)
               4 00007214 00000001     A   43500 42547
 =A(SERVFET)
               4 00002748 00000001     A   19333 17731
 =A(SERVFET)
               4 00005FA0 00000001     A   37102 36476
 =A(SERVFINDPRIVATE)
               4 00000CD0 00000001     A   12500  8832   9198   9858
 =A(SERVFINDPUBLIC)
               4 00000CCC 00000001     A   12499  8797   9176   9205   9823
 =A(SERVFMAP)
               4 00005FB8 00000001     A   37108 36694
 =A(SERVFMTL)
               4 00001974 00000001     A   15801 15321
 =A(SERVFMTL)
               4 000030B0 00000001     A   21908 20092
 =A(SERVGET)
               4 00000CC8 00000001     A   12498  8734   9536
 =A(SERVGET)
               4 00001398 00000001     A   14254 12719
 =A(SERVGET)
               4 00001954 00000001     A   15793 14609
 =A(SERVGET)
               4 000026B0 00000001     A   19311 16031  18205
 =A(SERVGET)
               4 000030D0 00000001     A   21916 21753
 =A(SERVGET)
               4 00003A34 00000001     A   25013 23416  24220  24550  24710
 =A(SERVGET)
               4 000044AC 00000001     A   28335 27348
 =A(SERVGET)
               4 000059F4 00000001     A   35350 31953
 =A(SERVGET)
               4 00006D34 00000001     A   41958 40515
 =A(SERVGETL)
1QUERY    (QUER2193) (12:52) (15MAR04) Ordinary Symbol and Literal Cross Reference                                          Page  192
               4 00001970 00000001     A   15800 15303
 =A(SERVGETL)
               4 000026D8 00000001     A   19315 16180
 =A(SERVGETL)
               4 000030A4 00000001     A   21905 19874  21852
 =A(SERVOPEN)
               4 00001960 00000001     A   15796 15072
 =A(SERVOPEN)
               4 000026D0 00000001     A   19313 16134  16594
 =A(SERVREAD)
               4 00002764 00000001     A   19340 18395
 =A(SERVREAD)
               4 00003A14 00000001     A   25005 22526  22561  22719
 =A(SERVREAD)
               4 00005A68 00000001     A   35373 33815  34243  34355  34471  34571  34655  35004
 =A(SERVREAD)
               4 00005C60 00000001     A   35835 35592  35687
 =A(SERVREAD)
               4 00005F94 00000001     A   37099 36038
 =A(SERVREAD)
               4 00006D3C 00000001     A   41960 40919  40976  41104  41163  41259
 =A(SERVSCANPROTO)
               4 00000CAC 00000001     A   12491  8472
 =A(SERVSCANPROTO)
               4 000026E0 00000001     A   19317 16518
 =A(SERVSCANPROTO)
               4 00003A20 00000001     A   25008 23048
 =A(SERVSCANSVIB)
               4 00002740 00000001     A   19331 17415  17668
 =A(SERVSCANSVIB)
               4 00003080 00000001     A   21896 19605
 =A(SERVSCANSVIB)
               4 000039E8 00000001     A   24994 22020  22377
 =A(SERVSEGN)
               4 00000CD8 00000001     A   12502  8933   9319   9408   9637  10006  10157  10716
 =A(SERVSEGN)
               4 0000195C 00000001     A   15795 14747  14797  14832  14887  15456  15592
 =A(SERVSEGN)
               4 00002704 00000001     A   19326 16829  16915  18681
 =A(SERVSEGN)
               4 00003A1C 00000001     A   25007 22613  23629
 =A(SERVSEGN)
               4 00004068 00000001     A   27054 26166
 =A(SERVSEGN)
               4 000044B4 00000001     A   28337 27483
 =A(SERVSETPROTO)
               4 00001950 00000001     A   15792 14584
 =A(SERVSETPROTO)
               4 000026A8 00000001     A   19309 15972
 =A(SERVSETPROTO)
               4 0000408C 00000001     A   27063 27012
 =A(SETQPRT)
               4 00000CB4 00000001     A   12493  8503
 =A(SHOSPRT)
               4 00001390 00000001     A   14252 12683
 =A(SQLPORT#)
               4 00000CDC 00000001     A   12503  9152
 =A(STRCMXDL)
               4 00006D4C 00000001     A   41964 41482  41494  41581  41593
1QUERY    (QUER2193) (12:52) (15MAR04) Ordinary Symbol and Literal Cross Reference                                          Page  193
 =A(SVIBIN#)
               4 00006D28 00000001     A   41955 40015
 =A(SVIBTRC#)
               4 00006D58 00000001     A   41967 41711
 =A(1)         4 00001948 00000001     A   15790 14467  15097
 =A(1)         4 000026F0 00000001     A   19321 16619  19024
 =A(1)         4 00003CF8 00000001     A   25723 25641
 =A(1)         4 0000407C 00000001     A   27059 26608
 =A(1)         4 000044A4 00000001     A   28333 27237
 =A(1)         4 00004BC4 00000001     A   30839 29272
 =A(15*100)
               4 00005A44 00000001     A   35364 33064
 =A(2)         4 00004BE4 00000001     A   30845 30723
 =A(2)         4 00005A0C 00000001     A   35352 32049
 =A(3)         4 00005FC0 00000001     A   37110 36730
 =A(3)         4 00006D20 00000001     A   41953 39441  39606
 =A(6)         4 00006D24 00000001     A   41954 39697
 =A(60)        4 00004BBC 00000001     A   30837 29182  29251
 =A(60/2)      4 00004BC0 00000001     A   30838 29263
 =A(64)        4 00006D04 00000001     A   41948 38005  38017
 =AL2(L'INENTRY)
               2 00006DA0 00000001     R   41979 39908
 =AL2(L'STRCHDR)
               2 00006DA6 00000001     R   41982 41503
 =AL2(UNETBUF#-10)
               2 00005AB6 00000001     R   35386 33513
 =AL4(-1)      4 000030C0 00000001     R   21912 20540
 =AL4(1)       4 00002784 00000001     R   19348 18623
 =AL4(1)       4 000030BC 00000001     R   21911 20472
 =AL4(1)       4 00005A14 00000001     R   35354 32636  32934
 =C'  '        2 00003CFC 00000001     C   25724 25450
 =C'  '        2 00006D74 00000001     C   41973 38059
 =C'  Busy:  '
               9 00004C81 00000001     C   30863 29137
 =C'  Defined as '
              13 00004C73 00000001     C   30861 28709
 =C'  Idle'
               6 00004C26 00000001     C   30852 29088
 =C'  Waiting for connection to server'
              34 00004C04 00000001     C   30851 29039
 =C' ('        2 00005AB2 00000001     C   35384 32978
 =C' (currently in use by another user)'
              35 00005AE2 00000001     C   35391 32944
 =C' (overrides public server)'
              26 00000D20 00000001     C   12517  9359
 =C' (type SHOW QUERY for a'
              23 00001AA0 00000001     C   15821 15216
 =C' (use the SHOW QUERY command for a'
              34 000027A2 00000001     C   19354 16738
 =C' (Closing)'
              10 00004C4E 00000001     C   30856 29793
 =C' (Fetching)'
              11 00004C9D 00000001     C   30867 29700
 =C' (Max='
               6 00004BFE 00000001     C   30850 28946
 =C' (Monitoring'
              12 00004BC8 00000001     C   30840 29831
 =C' (Owned by line '
              16 00004B80 00000001     C   30828 29573
1QUERY    (QUER2193) (12:52) (15MAR04) Ordinary Symbol and Literal Cross Reference                                          Page  194
 =C' (Reusable)'
              11 00004CA8 00000001     C   30868 29755
 =C' (Sending)'
              10 00004C44 00000001     C   30855 29676
 =C' (Special state)'
              16 00004B90 00000001     C   30829 29656
 =C' -- '      4 00005A70 00000001     C   35375 34115  34876
 =C' -- '      4 00006D30 00000001     C   41957 40363
 =C' '         1 00001A89 00000001     C   15818 14946
 =C' '         1 00003AFD 00000001     C   25032 22218
 =C' '         1 00004565 00000001     C   28350 28143
 =C' '         1 00004C72 00000001     C   30860 28526  29386
 =C' '         1 00005B3F 00000001     C   35396 33973  34070  34734  34831
 =C' already exists, no action taken.'
              33 00000E3D 00000001     C   12528  9414
 =C' already in file.'
              17 0000313E 00000001     C   21932 21634
 =C' by line '
               9 00004CB3 00000001     C   30869 29867
 =C' can not be reset (state='
              25 00003B1A 00000001     C   25037 22619
 =C' connection has been closed.'
              28 00003A64 00000001     C   25017 24277
 =C' connections currently in use by other users)'
              45 00005B05 00000001     C   35392 33018
 =C' does not exist.'
              16 00000C98 00000001     C   12489 10163
 =C' does not exist.'
              16 00001380 00000001     C   14251 13049
 =C' does not exist.'
              16 000018C8 00000001     C   15783 14666
 =C' does not exist.'
              16 00002688 00000001     C   19307 18262
 =C' does not exist.'
              16 000039B0 00000001     C   24991 23473
 =C' does not exist.'
              16 00004488 00000001     C   28329 27405
 =C' does not exist; '
              17 00000D9F 00000001     C   12522  8939
 =C' fetched'
               8 00003070 00000001     C   21893 20513
 =C' has been closed.'
              17 00003AFE 00000001     C   25033 22262
 =C' has been created'
              17 00000E2B 00000001     C   12526  9325
 =C' has been established.'
              22 000027D6 00000001     C   19356 16835
 =C' has not been opened.'
              21 00004550 00000001     C   28349 27489
 =C' has not been previously opened.'
              32 000018D8 00000001     C   15784 14838
 =C' information has been updated.'
              30 00000D7A 00000001     C   12520 10722
 =C' is a definition, not a server.'
              31 00001A4F 00000001     C   15816 14803
 =C' is already being monitored by line '
              36 00003A38 00000001     C   25014 23635
 =C' is already busy with line '
              27 00001A6E 00000001     C   15817 14893
1QUERY    (QUER2193) (12:52) (15MAR04) Ordinary Symbol and Literal Cross Reference                                          Page  195
 =C' is an unknown server'
              21 00001A8B 00000001     C   15820 15198
 =C' is an unknown server'
              21 0000286C 00000001     C   19366 16720
 =C' is busy (will delete server when current'
              41 00000E5E 00000001     C   12529  9661  10030
 =C' is not currently accepting requests.'
              37 00001ABC 00000001     C   15823 15462
 =C' is not currently accepting requests.'
              37 000028A2 00000001     C   19370 16921
 =C' is not yours.'
              14 000019E4 00000001     C   15809 14753
 =C' is not yours.'
              14 000040A6 00000001     C   27065 26172
 =C' is the last line'
              17 00003127 00000001     C   21929 20597
 =C' lines'
               6 0000282C 00000001     C   19363 18609
 =C' list of servers).'
              18 000019F2 00000001     C   15810 15234
 =C' list of servers).'
              18 000027C4 00000001     C   19355 16756
 =C' minutes '
               9 00004C93 00000001     C   30865 29306
 =C' on '      4 00004BB8 00000001     C   30836 28772
 =C' open connections '
              18 00005A8E 00000001     C   35380 32703
 =C' operation has completed).'
              26 00000D60 00000001     C   12519  9679  10048
 =C' port '
               6 00004BF8 00000001     C   30849 28889
 =C' seconds '
               9 00004C8A 00000001     C   30864 29217
 =C' sent to server '
              16 00002698 00000001     C   19308 18664
 =C' tables'
               7 00003120 00000001     C   21928 20458
 =C' user '
               6 00004BF2 00000001     C   30848 28839
 =C' will be deleted.'
              17 00000E87 00000001     C   12530  9762  10091
 =C'...'       3 00003B10 00000001     C   25035 22522  22557  22715
 =C'...'       3 00005B32 00000001     C   35393 33811  34239  34351  34467  34567  34651  35000
 =C'...'       3 00005C74 00000001     C   35840 35588
 =C'...'       3 00006DFD 00000001     C   41994 40915  40972  41100  41159  41255
 =C'.'         1 00000E3C 00000001     C   12527  9379
 =C'.'         1 00001A8A 00000001     C   15819 14992  15038  15548
 =C'.'         1 000028CE 00000001     C   19372 17008
 =C'.'         1 00003138 00000001     C   21930 20620
 =C'.'         1 00003B0F 00000001     C   25034 22480
 =C'.'         1 00004C9C 00000001     C   30866 29432  30497
 =C'.'         1 00005B40 00000001     C   35397 34013  34774
 =C'.'         1 00005FD4 00000001     C   37115 35992
 =C'.'         1 00006DFC 00000001     C   41993 40870  41054
 =C'('         1 000028CF 00000001     C   19373 17174  17502  17786  18740
 =C'('         1 00003B38 00000001     C   25039 22774
 =C'('         1 00006DB1 00000001     C   41986 38305  38501  38689
 =C'(no name)'
               9 00004566 00000001     C   28351 28278
1QUERY    (QUER2193) (12:52) (15MAR04) Ordinary Symbol and Literal Cross Reference                                          Page  196
 =C'(or QUERY command with a missing server name).'
              46 000019B6 00000001     C   15808 14519
 =C'(Will retry server operation in 30 seconds.)'
              44 00001980 00000001     C   15804 15716
 =C'(Will retry server operation in 30 seconds.)'
              44 0000270C 00000001     C   19328 17285
 =C'*** '      4 00005F98 00000001     C   37100 36094
 =C'*** '      4 00006CFC 00000001     C   41946 37741  38154
 =C'*** Data info: '
              15 00005FD8 00000001     C   37117 36164
 =C'*** Error completion: '
              22 00006D84 00000001     C   41977 38651
 =C'*** Immediate info: '
              20 00006CD4 00000001     C   41940 37311
 =C'*** Info: '
              10 00006D78 00000001     C   41975 38267
 =C'*** Normal completion: '
              23 00006DB2 00000001     C   41987 38463
 =C'*** Unexpected data: '
              21 00006DC9 00000001     C   41988 38802
 =C') '        2 00002802 00000001     C   19360 17227  17555  17839  18793
 =C') '        2 00003A9C 00000001     C   25023 22827
 =C') '        2 00006D82 00000001     C   41976 38352  38548  38736
 =C').'        2 00003A86 00000001     C   25020 22666
 =C')'         1 00004C80 00000001     C   30862 28986  29612  29936
 =C';'         1 0000310E 00000001     C   21926 20042
 =C'/'         1 00005B41 00000001     C   35398 34156  34917
 =C', '        2 000030FA 00000001     C   21922 20550
 =C', UNET at '
              10 000013D0 00000001     C   14265 12889  14090
 =C'?????'
               5 00006E05 00000001     C   41996 41538
 =C': '        2 00001A04 00000001     C   15811 15598
 =C': '        2 000027EC 00000001     C   19357 17082
 =C': '        2 000030F8 00000001     C   21921 20361
 =C': invalid server name.'
              22 000040B6 00000001     C   27067 26505
 =C': invalid; expecting server number (or *).'
              42 000044E4 00000001     C   28345 27284
 =C': quoted server name not allowed.'
              33 00004115 00000001     C   27072 26441
 =C': server name is too long.'
              26 000040CC 00000001     C   27068 26570
 =C': unrecognized command '
              23 00001A08 00000001     C   15813 14501
 =C'" instead.'
              10 00003ACC 00000001     C   25027 23569
 =C'an open connection '
              19 00005ACF 00000001     C   35390 32647
 =C'server'
               6 00005AAC 00000001     C   35383 32907
 =C'to server '
              10 00005AA0 00000001     C   35381 32725
 =C'try "QMONITOR '
              14 00003ABE 00000001     C   25026 23523
 =C'use CREATE option to create new server.'
              39 00000DB0 00000001     C   12523  8957
 =C'with line '
              10 00004C2C 00000001     C   30853 29333
1QUERY    (QUER2193) (12:52) (15MAR04) Ordinary Symbol and Literal Cross Reference                                          Page  197
 =C'ABORT'
               5 00006DDE 00000001     C   41989 39005
 =C'ACTIVE'
               6 00003AD8 00000001     C   25029 24741
 =C'AN'        2 000013CE 00000001     C   14264 12792
 =C'ATTN'      4 00005FB0 00000001     C   37106 36668  36910
 =C'Bad line-number, can''t APPEND.'
              30 000030D6 00000001     C   21918 19765
 =C'Bad trace entry queue!'
              22 00004C58 00000001     C   30857 30339
 =C'BAD SERVER NAME'
              15 00002832 00000001     C   19364 16001
 =C'Can''t connect to server '
              24 00001910 00000001     C   15786 15575
 =C'Can''t connect to server '
              24 00002668 00000001     C   19305 17036
 =C'Can''t open any more connections.'
              32 00005978 00000001     C   35345 32796
 =C'Connection to server '
              21 00002881 00000001     C   19367 16812
 =C'Connection to server '
              21 00003AE8 00000001     C   25031 22178
 =C'Connection to server '
              21 0000453B 00000001     C   28348 27466
 =C'CLOSING'
               7 00003B64 00000001     C   25043 24809  24890
 =C'Debug info: SVIB at '
              20 000013A0 00000001     C   14256 12846  14047
 =C'DATA'      4 00002760 00000001     C   19339 18334
 =C'DATA'      4 00005C64 00000001     C   35836 35626
 =C'DATABASE '
               9 00005B4C 00000001     C   35401 34484
 =C'DEFINITION'
              10 00003ADE 00000001     C   25030 24924
 =C'End of table'
              12 00006D08 00000001     C   41949 38190
 =C'Error completion: '
              18 000027F0 00000001     C   19359 17133  17461  17745  18699
 =C'Error completion: '
              18 00003A88 00000001     C   25021 22733
 =C'Error completion'
              16 00003060 00000001     C   21892 20263
 =C'EOF'       3 0000723C 00000001     C   43510 42757
 =C'ERROR'
               5 00006DE6 00000001     C   41991 40292
 =C'FETCH ROWS'
              10 00005FCA 00000001     C   37114 36221
 =C'FETCHING'
               8 000039E0 00000001     C   24993 24785
 =C'I...'      4 000030C8 00000001     C   21914 21567
 =C'INFO '
               5 00005B35 00000001     C   35394 33901  34662
 =C'Line '
               5 00003139 00000001     C   21931 21587
 =C'Line '
               5 00004CD1 00000001     C   30871 30395
 =C'Line '
               5 00005B3A 00000001     C   35395 33916  34677
 =C'Missing "AS dbname" on SET QUERY command.'
1QUERY    (QUER2193) (12:52) (15MAR04) Ordinary Symbol and Literal Cross Reference                                          Page  198
              41 00000E02 00000001     C   12525  9128
 =C'Missing "ON hostname" on SET QUERY command.'
              43 00000DD7 00000001     C   12524  9100
 =C'Missing server name on the QUERY command.'
              41 00001A1F 00000001     C   15814 14554
 =C'Missing server name'
              19 00004136 00000001     C   27073 26988
 =C'Missing server number.'
              22 000044CE 00000001     C   28344 27190
 =C'No more servers can be allocated.'
              33 00004ED0 00000001     C   31509 31261
 =C'No query servers.'
              17 000013FC 00000001     C   14268 13107
 =C'No response from server '
              24 000018F8 00000001     C   15785 15502
 =C'No response from server '
              24 00002648 00000001     C   19303 16962
 =C'Normal completion'
              17 0000310F 00000001     C   21927 20229
 =C'NO SUCH SERVER'
              14 00002790 00000001     C   19351 16046
 =C'NO SUCH SERVER'
              14 000030FC 00000001     C   21923 21769
 =C'NO SUCH SERVER'
              14 00005A80 00000001     C   35379 31968  32234  32515
 =C'NOT FOUND'
               9 00003B6B 00000001     C   25044 24956
 =C'NOT YOUR SERVER'
              15 0000314F 00000001     C   21933 21831
 =C'NUMBER'
               6 00006D9A 00000001     C   41978 39716
 =C'OK'        2 000040B4 00000001     C   27066 26206
 =C'OSVB'      4 00007220 00000001     C   43503 42712
 =C'OTRC'      4 00007234 00000001     C   43508 43433
 =C'Privileged option.'
              18 00000D0E 00000001     C   12516  9280
 =C'Public server operation is privileged.'
              38 00000D3A 00000001     C   12518  9604   9966  10342
 =C'PASS '
               5 00005B47 00000001     C   35400 34384
 =C'Query error completion: '
              24 00001928 00000001     C   15787 15648
 =C'QMONITOR is privileged.'
              23 00003B46 00000001     C   25041 23706
 =C'QUIT'      4 00006D40 00000001     C   41961 40933
 =C'RESET'
               5 00001AB7 00000001     C   15822 15429
 =C'RESET'
               5 00002896 00000001     C   19368 16888
 =C'RESET'
               5 00003B33 00000001     C   25038 22680
 =C'RESET'
               5 00005B55 00000001     C   35402 34616
 =C'RESET'
               5 00006E00 00000001     C   41995 41216
 =C'\'         1 0000310D 00000001     C   21925 19991
 =C'Server '
               7 00000D98 00000001     C   12521  8916   9302   9391   9620   9989  10140  10699
 =C'Server '
1QUERY    (QUER2193) (12:52) (15MAR04) Ordinary Symbol and Literal Cross Reference                                          Page  199
               7 000013F5 00000001     C   14267 13009
 =C'Server '
               7 00001A48 00000001     C   15815 14626  14730  14780  14815  14870  15439
 =C'Server '
               7 0000289B 00000001     C   19369 16898  18222
 =C'Server '
               7 00003B13 00000001     C   25036 22596  23433  23612  24237
 =C'Server '
               7 0000410E 00000001     C   27071 26149
 =C'Server '
               7 00004534 00000001     C   28347 27365
 =C'Server does not exist.'
              22 00004090 00000001     C   27064 26055
 =C'Server'
               6 00004BEC 00000001     C   30847 28483
 =C'Start of table'
              14 00006D64 00000001     C   41971 37777
 =C'Still waiting'
              13 00003B39 00000001     C   25040 23283
 =C'SENDING'
               7 00003B5D 00000001     C   25042 24761
 =C'SERVER NOT AVAILABLE'
              20 000059F8 00000001     C   35351 31996  33374
 =C'SERVER NOT PREVIOUSLY OPENED'
              28 000026B4 00000001     C   19312 16075
 =C'SERVER NOT YOURS'
              16 00002630 00000001     C   19301 16105
 =C'SERVREAD returns '
              17 00006DEB 00000001     C   41992 40328
 =C'STRC'      4 00004BD4 00000001     C   30841 30329
 =C'STRC'      4 00006D50 00000001     C   41965 41529
 =C'STRC'      4 00007230 00000001     C   43507 43338  43416
 =C'SVIB'      4 00000CF0 00000001     C   12508 10289
 =C'SVIB'      4 00004060 00000001     C   27052 26091
 =C'SVIB'      4 00004BA0 00000001     C   30830 28461  30084
 =C'SVIB'      4 00004EB8 00000001     C   31503 31035
 =C'SVIB'      4 00005A50 00000001     C   35367 33159  33311
 =C'SVIB'      4 00005C58 00000001     C   35833 35517
 =C'SVIB'      4 00005F88 00000001     C   37096 35926  36410
 =C'SVIB'      4 00006CC8 00000001     C   41937 37199  37589  39190  39887  40562  41442
 =C'SVIB'      4 000071F8 00000001     C   43493 42093  42335  42888  43122
 =C'There is no current server connection.'
              38 00002806 00000001     C   19362 18189
 =C'There is no current server connection.'
              38 000040E6 00000001     C   27069 26666
 =C'There is no current server connection.'
              38 0000450E 00000001     C   28346 27337
 =C'Trace table is empty.'
              21 00004CBC 00000001     C   30870 30124
 =C'TIMEOUT'
               7 00001AE1 00000001     C   15824 15492
 =C'TIMEOUT'
               7 000028C7 00000001     C   19371 16952
 =C'TRACE option is privileged.'
              27 000013DA 00000001     C   14266 12805
 =C'Unknown status'
              14 00004C36 00000001     C   30854 29499
 =C'UNET'      4 00005A7C 00000001     C   35378 35185
 =C'UNET'      4 00006CCC 00000001     C   41938 37243  40691
1QUERY    (QUER2193) (12:52) (15MAR04) Ordinary Symbol and Literal Cross Reference                                          Page  200
 =C'UNET'      4 000071FC 00000001     C   43494 42136
 =C'USER '
               5 00005B42 00000001     C   35399 34268
 =C'Waiting for '
              12 00005A30 00000001     C   35361 32861
 =C'Waiting for an open of server '
              30 00003AA0 00000001     C   25025 23146
 =C'You can''t monitor a definition; '
              32 000039C0 00000001     C   24992 23505
 =C'You currently have '
              19 00005ABC 00000001     C   35389 32610
 =C'You must QOPEN server by name (not number).'
              43 00002841 00000001     C   19365 16541
 =C'1..'       3 00005FD5 00000001     C   37116 36034
 =C'100'       3 00006DA8 00000001     C   41983 37727
 =C'101'       3 0000310A 00000001     C   21924 19901
 =C'101'       3 00006DAB 00000001     C   41984 37831  39454
 =C'102'       3 00006DE3 00000001     C   41990 39619
 =C'109'       3 00005FE7 00000001     C   37118 36743
 =C'109'       3 00006DAE 00000001     C   41985 38140
 =C'11'        2 00005FC4 00000001     C   37111 36081
 =C'15'        2 00005FC8 00000001     C   37113 36151
 =C'15'        2 00006D76 00000001     C   41974 38255
 =C'354'       3 000028D0 00000001     C   19374 18391
 =C'354'       3 00005C77 00000001     C   35841 35683
 =CL(L'CPATITL)'Query results'
              80 00003010 00000001     C   21891 19698
 =CL(L'SVIBINFO)'No network connection'
              80 00005998 00000001     C   35346 35120  35267
 =CL(L'SVIBINFO)'No network connection'
              80 00006C78 00000001     C   41936 40766
 =CL4'SVIB'
               4 00000CA8 00000001     C   12490  8467
 =CL8'NETERROR'
               8 00002680 00000001     C   19306 17123
 =CL8'NOSERVER'
               8 00002640 00000001     C   19302 16935
 =CL8'QFETCH'
               8 00003008 00000001     C   21890 19697
 =CL8'TIMEOUT'
               8 00002660 00000001     C   19304 17022
 =F'-1'        4 00003078 00000001     F   21894 19596  19598
 =F'-1'        4 00005FA4 00000001     F   37103 36517
 =F'-1'        4 00007238 00000001     F   43509 43434
 =F'1'         4 00000CB0 00000001     F   12492  8478
 =F'230'       4 0000307C 00000001     F   21895 19599
 =H'-1'        2 00003AD6 00000001     H   25028 24517
 =H'-1'        2 00005AB4 00000001     H   35385 33192  33479  33804
 =H'-1'        2 00006DA2 00000001     H   41980 40316
 =H'2'         2 00004C6E 00000001     H   30858 30731  30749
 =H'4'         2 00002804 00000001     H   19361 17245  17573  17857  18811
 =H'4'         2 000030F6 00000001     H   21920 20330
 =H'4'         2 00003A9E 00000001     H   25024 22845
 =H'4'         2 00005AB8 00000001     H   35387 33820
 =H'4'         2 00006D62 00000001     H   41970 37734  37887  38147  38368  38564  38752  39461  39626  40277
 =V(ADDER)
               4 00003094 00000001     V   21901 19748
 =V(CHKKW)
               4 00004074 00000001     V   27057 26259
1QUERY    (QUER2193) (12:52) (15MAR04) Ordinary Symbol and Literal Cross Reference                                          Page  201
 =V(CLRTEXT)
               4 00003090 00000001     V   21900 19695
 =V(CVEXNO)
               4 000030C4 00000001     V   21913 20567  21604
 =V(DEQUOTE)
               4 00000CF8 00000001     V   12510 11107  11252  11476  11621
 =V(DISPATCH)
               4 00003A2C 00000001     V   25011 23252  24191
 =V(DTB)       4 00002788 00000001     V   19349 19078
 =V(DTB)       4 00004080 00000001     V   27060 26711
 =V(DTB)       4 000044A0 00000001     V   28332 27210
 =V(EXTOPEN)
               4 0000276C 00000001     V   19342 18433
 =V(FMTTIME)
               4 00004BD8 00000001     V   30842 30365
 =V(FMTTIME)
               4 00005A28 00000001     V   35359 32825
 =V(FNAMEFIN)
               4 00002768 00000001     V   19341 18429
 =V(FREECORE)
               4 000039EC 00000001     V   24995 22142  23371
 =V(FREECORE)
               4 000059E8 00000001     V   35347 31599
 =V(FREECORE)
               4 00005FA8 00000001     V   37104 36520
 =V(FREECORE)
               4 0000722C 00000001     V   43506 42782  42933  42999  43439
 =V(GETCORE)
               4 00002700 00000001     V   19325 16771
 =V(GETCORE)
               4 00003A28 00000001     V   25010 23114
 =V(GETCORE)
               4 00004ECC 00000001     V   31508 31161  31358
 =V(GETCORE)
               4 00006D18 00000001     V   41951 39245  39911  41506
 =V(GETRSC)
               4 00005A60 00000001     V   35371 33733
 =V(GETRSC)
               4 00006D5C 00000001     V   41968 41873
 =V(GETRSC)
               4 0000721C 00000001     V   43502 42682
 =V(LOCALTOD)
               4 00005A24 00000001     V   35358 32818
 =V(LOCALTOD)
               4 00006D54 00000001     V   41966 41532
 =V(LRTRIM)
               4 00001968 00000001     V   15798 15276
 =V(LRTRIM)
               4 00002744 00000001     V   19332 17444  17697
 =V(LRTRIM)
               4 000030B4 00000001     V   21909 20338
 =V(LRTRIM)
               4 00006D00 00000001     V   41947 37758  38171
 =V(MIXFMT)
               4 00004BE8 00000001     V   30846 30761
 =V(MKFFINFO)
               4 00002754 00000001     V   19336 18042
 =V(NDETRNG)
               4 00002750 00000001     V   19335 18020
1QUERY    (QUER2193) (12:52) (15MAR04) Ordinary Symbol and Literal Cross Reference                                          Page  202
 =V(NPATALLO)
               4 00005A54 00000001     V   35368 33465
 =V(NPATCLRU)
               4 00005A74 00000001     V   35376 35081
 =V(NPATCLRU)
               4 00006D48 00000001     V   41963 41310
 =V(NPATCLS)
               4 00005A78 00000001     V   35377 35125  35272
 =V(NPATCLS)
               4 00006D38 00000001     V   41959 40771
 =V(NPATCLS)
               4 00007228 00000001     V   43505 42767
 =V(NPATCTRL)
               4 00007224 00000001     V   43504 42761
 =V(NPATOPEN)
               4 00005A64 00000001     V   35372 33790
 =V(NPATREAD)
               4 00005FAC 00000001     V   37105 36645  36887
 =V(NPATREAD)
               4 00006CD0 00000001     V   41939 37278  40194
 =V(NPATSETU)
               4 00005A58 00000001     V   35369 33570
 =V(NSCAN)
               4 00000CB8 00000001     V   12494  8507
 =V(NSCAN)
               4 00001394 00000001     V   14253 12687
 =V(NSCAN)
               4 00001940 00000001     V   15788 14420
 =V(NSCAN)
               4 000026E8 00000001     V   19319 16572  18065  18112
 =V(NSCAN)
               4 00003088 00000001     V   21898 19645
 =V(NSCAN)
               4 00003A04 00000001     V   25001 22442  23073
 =V(NSCAN)
               4 00004084 00000001     V   27061 26954
 =V(NSCAN)
               4 00004498 00000001     V   28330 27155
 =V(PUTLINEX)
               4 000030CC 00000001     V   21915 21570
 =V(RDRNG)
               4 00002778 00000001     V   19345 18477  18513  18537
 =V(RTRIM)
               4 00003A80 00000001     V   25018 24592
 =V(SCANCHK)
               4 00000CBC 00000001     V   12495  8521
 =V(SCANCHK)
               4 00001944 00000001     V   15789 14434
 =V(SCANCHK)
               4 000026EC 00000001     V   19320 16586  18130
 =V(SCANCHK)
               4 0000308C 00000001     V   21899 19659
 =V(SCANCHK)
               4 00003A08 00000001     V   25002 22456  23087
 =V(SCANCHK)
               4 00004088 00000001     V   27062 26968
 =V(SCANCHK)
               4 0000449C 00000001     V   28331 27169
 =V(SCNEXFR)
1QUERY    (QUER2193) (12:52) (15MAR04) Ordinary Symbol and Literal Cross Reference                                          Page  203
               4 0000274C 00000001     V   19334 18008
 =V(SEG)       4 00000CD4 00000001     V   12501  8928   8951   8969   9314   9337   9371   9403   9632   9673  10001
                                                 10042  10152  10711
 =V(SEG)       4 000013B4 00000001     V   14257 12858  12901  13021  13061  13119  14059  14102
 =V(SEG)       4 0000194C 00000001     V   15791 14495  14513  14531  14566  14638  14742  14792  14827  14882  14905
                                                 14958  14986  15004  15032  15210  15228  15451  15514  15587  15610
                                                 15637  15660
 =V(SEG)       4 000026FC 00000001     V   19324 16732  16750  16824  16847  16910  16974  17048  17094  17121  17145
                                                 17186  17221  17239  17473  17514  17549  17567  17757  17798  17833
                                                 17851  18234  18344  18658  18676  18711  18752  18787  18805  19224
 =V(SEG)       4 000030A8 00000001     V   21906 19985  20036  20241  20275  20373  20400  20507  20525  20562  20591
                                                 20609  20632  21599  21628
 =V(SEG)       4 000039F4 00000001     V   24997 22190  22230  22608  22631  22745  22786  22821  22839  23158  23295
                                                 23445  23517  23535  23624  23647  24249
 =V(SEG)       4 00003CF0 00000001     V   25721 25218  25307  25380  25438  25460
 =V(SEG)       4 00004064 00000001     V   27053 26161  26435  26453  26499  26517  26564  26582  26678  27000
 =V(SEG)       4 000044A8 00000001     V   28334 27278  27377  27478  28208  28290
 =V(SEG)       4 00004BA4 00000001     V   30831 28495  28538  28562  28721  28784  28851  28901  28958  28998  29051
                                                 29100  29149  29229  29318  29345  29398  29426  29444  29472  29511
                                                 29585  29624  29728  29767  29805  29843  29879  29948  30407  30461
                                                 30491  30509
 =V(SEG)       4 00005A10 00000001     V   35353 32622  32659  32715  32737  32808  32873  32919  32956  32990  33030
                                                 33911  33926  33983  34008  34023  34048  34080  34125  34166  34278
                                                 34394  34494  34672  34687  34744  34769  34784  34809  34841  34886
                                                 34927
 =V(SEG)       4 00005C68 00000001     V   35837 35636  35741
 =V(SEG)       4 00005F9C 00000001     V   37101 36106  36176
 =V(SEG)       4 00006CE8 00000001     V   41941 37323  37751  38045  38069  38164  38277  38315  38347  38362  38473
                                                 38511  38543  38558  38661  38699  38731  38746  38812  40338  40373
                                                 40399
 =V(SEGB)      4 00004BDC 00000001     V   30843 30389  30539  30570
 =V(SEGB)      4 00005A2C 00000001     V   35360 32852
 =V(SEGBLANK)
               4 00003CF4 00000001     V   25722 25236  25284  25357  25399
 =V(SEGCLR)
               4 000026AC 00000001     V   19310 15997
 =V(SEGCOL)
               4 00004BB0 00000001     V   30834 28628
 =V(SEGCR)
               4 00000CE8 00000001     V   12506  9691   9774  10060  10103  10734
 =V(SEGCR)
               4 000013BC 00000001     V   14259 12951  14152
 =V(SEGCR)
               4 0000197C 00000001     V   15803 15474  15560  15690
 =V(SEGCR)
               4 00002708 00000001     V   19327 16872  16933  17020  18366  19246
 =V(SEGCR)
               4 000030AC 00000001     V   21907 20003  20054  20429  21535
 =V(SEGCR)
               4 00003A0C 00000001     V   25003 22490  22690
 =V(SEGCR)
               4 0000406C 00000001     V   27055 26184  26838
 =V(SEGCR)
               4 00004BB4 00000001     V   30835 28685  29978  30136  30351  30786
 =V(SEGCR)
               4 00005A20 00000001     V   35357 32790  34214  34326  34442  34542  34626  34975
 =V(SEGCR)
               4 00005C6C 00000001     V   35838 35658  35763
 =V(SEGCR)
1QUERY    (QUER2193) (12:52) (15MAR04) Ordinary Symbol and Literal Cross Reference                                          Page  204
               4 00005F8C 00000001     V   37097 36002  36231
 =V(SEGCR)
               4 00006CF4 00000001     V   41944 37660  37803  37876  37930  38108  38216  38394  38590  38778  38837
                                                 39015  40882  40945  41066  41228
 =V(SEGDC)
               4 000013C4 00000001     V   14261 13043
 =V(SEGDC)
               4 00001958 00000001     V   15794 14660  14940  15144
 =V(SEGDC)
               4 000026F4 00000001     V   19322 16666  18256  18605
 =V(SEGDC)
               4 000030B8 00000001     V   21910 20454
 =V(SEGDC)
               4 000039F8 00000001     V   24998 22212  22660  23467  23668  24271
 =V(SEGDC)
               4 000044B0 00000001     V   28336 27399  28139
 =V(SEGDC)
               4 00004BA8 00000001     V   30832 28520  28923  28980  29211  29300  29380  29606  29926  30431
 =V(SEGDC)
               4 00005A18 00000001     V   35355 32697  33012  33960  34721
 =V(SEGDC)
               4 00006D2C 00000001     V   41956 40358
 =V(SEGHX)
               4 000013B8 00000001     V   14258 12883  12926  14084  14127
 =V(SEGINIT)
               4 00003098 00000001     V   21902 19809
 =V(SEGINITR)
               4 000030A0 00000001     V   21904 19824
 =V(SEGT)      4 00001964 00000001     V   15797 15188  15542
 =V(SEGT)      4 000026F8 00000001     V   19323 16710  17002  17076
 =V(SEGT)      4 000039FC 00000001     V   24999 22258  23186  23563
 =V(SEGT)      4 000044C8 00000001     V   28342 28236
 =V(SEGT)      4 00004BAC 00000001     V   30833 28590  28656  28749  28812  28879
 =V(SEGT)      4 00005A1C 00000001     V   35356 32765  34106  34151  34192  34304  34420  34520  34867  34912  34953
 =V(SEGTB)
               4 00005A3C 00000001     V   35362 32901
 =V(SEGWR)
               4 000019AC 00000001     V   15805 15728
 =V(SEGWR)
               4 00002738 00000001     V   19329 17297  18388  18564
 =V(SEGWR)
               4 00003A10 00000001     V   25004 22512  22712  23212  23973  24010  24082
 =V(SEGWR)
               4 00005A40 00000001     V   35363 33060  34236  34348  34464  34564  34648  34997
 =V(SEGWR)
               4 00005C70 00000001     V   35839 35680  35785
 =V(SEGWR)
               4 00005F90 00000001     V   37098 36024  36133  36203  36253
 =V(SEGWR)
               4 00006CEC 00000001     V   41942 37353  39037  40421  40906  40969  41090  41252
 =V(TSTAT)
               4 00003A30 00000001     V   25012 23259  24198
 =V(WAITER)
               4 000019B0 00000001     V   15806 15735
 =V(WAITER)
               4 0000273C 00000001     V   19330 17304
 =V(WAITER)
               4 00005A48 00000001     V   35365 33067
 =V(YESREQ)
1QUERY    (QUER2193) (12:52) (15MAR04) Ordinary Symbol and Literal Cross Reference                                          Page  205
               4 00004070 00000001     V   27056 26210
 =X'0D25'      2 00004C70 00000001     X   30859 30742
 =Y((R1+1-(R0)+16*((R0)/(R1+1))/((R0)/(R1+1)))*4)
               2 00001A06 00000001     Y   15812 15613  15663  15693
 =Y((R1+1-(R0)+16*((R0)/(R1+1))/((R0)/(R1+1)))*4)
               2 000027EE 00000001     Y   19358 17097  17148  17189  17242  17476  17517  17570  17760  17801  17854
                                                 18714  18755  18808
 =Y((R1+1-(R0)+16*((R0)/(R1+1))/((R0)/(R1+1)))*4)
               2 000030F4 00000001     Y   21919 20058  20282  20376
 =Y((R1+1-(R0)+16*((R0)/(R1+1))/((R0)/(R1+1)))*4)
               2 00003A9A 00000001     Y   25022 22748  22789  22842
 =Y((R1+1-(R0)+16*((R0)/(R1+1))/((R0)/(R1+1)))*4)
               2 00005FC6 00000001     Y   37112 36109  36179
 =Y((R1+1-(R0)+16*((R0)/(R1+1))/((R0)/(R1+1)))*4)
               2 00006D60 00000001     Y   41969 37326  37356  37754  37879  38167  38280  38318  38365  38476  38514
                                                 38561  38664  38702  38749  38815
 =Y((R1+1-(R15)+16*((R15)/(R1+1))/((R15)/(R1+1)))*4)
               2 0000279E 00000001     Y   19352 16379
 =Y((R1+1-(R15)+16*((R15)/(R1+1))/((R15)/(R1+1)))*4)
               2 00005ABA 00000001     Y   35388 35298
 =Y((R4+1-(R15)+16*((R15)/(R4+1))/((R15)/(R4+1)))*4)
               2 00006DA4 00000001     Y   41981 40424
 =Y((12+3)/4*4)
               2 00000D0C 00000001     Y   12515  8513
 =Y((12+3)/4*4)
               2 000013CC 00000001     Y   14263 12693
 =Y((12+3)/4*4)
               2 000019B4 00000001     Y   15807 14426
 =Y((12+3)/4*4)
               2 000027A0 00000001     Y   19353 16578  18071  18118
 =Y((12+3)/4*4)
               2 000030D4 00000001     Y   21917 19651
 =Y((12+3)/4*4)
               2 00003A84 00000001     Y   25019 22448  23079
 =Y((12+3)/4*4)
               2 0000410C 00000001     Y   27070 26960
 =Y((12+3)/4*4)
               2 000044CC 00000001     Y   28343 27161
 =Y((32+3)/4*4)
               2 00005AAA 00000001     Y   35382 32855
 =Y(4)         2 00006D72 00000001     Y   41972 38053
 =64C'-'       1 00006C38 00000001     C   41935 38032

1QUERY    (QUER2193) (12:52) (15MAR04) Macro and Copy Code Source Summary                                                   Page  206
- Con Source                                        Volume    Members                        HLASM R4.0  2004/03/15 12.52
0     PRIMARY INPUT                                           CSECT    DROP     END      EX       LTORG    POP
                                                              PRINT    PUSH     START    USING
   L1 WYL.GS.WYL.WYLBUR.MACLIB                      SYSB05    ABORT    AINFO    BASE     COLINFO  COMMENT  CONTROL  CP
                                                              CPLOCAL  CV       CVLOCAL  DEBUG    DTB      ERROR    FAIL
                                                              GETRSC   JCB      KAPUT    LOADRTNP PAUSE    RDRNG    RG
                                                              SCAN     SCANCB   SCANCHK  SCCBADR  SCINFO   SCKW
                                                              SCPOP    SCPUSH   SEGINIT  SETUP    SVIB     TCLEAR   TCOL
                                                              TCR      THEX     TNUM     TSEG     TSTAT    TTYPE
                                                              TWRITE   UNET     UPATH    VLTORG   VNENTRY  XTRACE
   L2 WYL.GG.SYS.MACLIB                             SYSB05    $BC      $BFLKUP  $BV      $CCLKUP  $CRS     $CSS     $L
                                                              $LA      $LBLAD   $LEXP    $LOR     $REL     $RGLKUP
                                                              $USLKUP  ACALL    BEGIN    CEIL     CLEAR    COMPROC
                                                              CSECT    DATA     DECR     DEFCC    DROP     DTEX     ELSE
                                                              ELSEIF   END      EX       EXIT     FLAG     GEN
                                                              HIBAL    IDENT    IF       INCR     LABEL    LC
                                                              LCALL    LOOP     LS       LT       LTORG    MOVE
                                                              MOVEL    PEND     POP      PRETURN  PRINT    PROC     PUSH
                                                              QLTORG   RECORD   REG      REGS     SET      SETMSG
                                                              START    TEX      USING    VCALL    WHILE    WITH
                                                              XPROC    ZOT
   L3 SYS3.IS.MACLIB                                SYSB05    DEFINE   KWR      SEG      SEGBLANK SEGCB    SEGCLR
                                                              SEGCOL   SEGCR    SEGDC    SEGDEF   SEGHX    SEGLD    SEGT
                                                              SEGWR    SIB      SYSDEFN  XPOP     XPUSH
   L4 SYS3.MACLIB                                   SYSB02    PATH

1QUERY    (QUER2193) (12:52) (15MAR04) Dsect Cross Reference                                                                Page  207
-Dsect     Length      Id       Defn                                                         HLASM R4.0  2004/03/15 12.52
0$$$@R0   00000000  FFFFFFFE     705
 $$$@R1   00000000  FFFFFFFD     718
 $$$@R10  00000000  FFFFFFF4     835
 $$$@R11  00000000  FFFFFFF3     848
 $$$@R12  00000000  FFFFFFF2     861
 $$$@R13  00000000  FFFFFFF1     874
 $$$@R14  00000000  FFFFFFF0     887
 $$$@R15  00000000  FFFFFFEF     900
 $$$@R2   00000000  FFFFFFFC     731
 $$$@R3   00000000  FFFFFFFB     744
 $$$@R4   00000000  FFFFFFFA     757
 $$$@R5   00000000  FFFFFFF9     770
 $$$@R6   00000000  FFFFFFF8     783
 $$$@R7   00000000  FFFFFFF7     796
 $$$@R8   00000000  FFFFFFF6     809
 $$$@R9   00000000  FFFFFFF5     822
 $$$RALLOWA
          00000020  FFFFFFCD   30892
 $$$RCP   00001000  FFFFFFEC    2468
 $$$RCV   00000FB0  FFFFFFEE    1193
 $$$RDEV  0000000C  FFFFFFEB    4682
 $$$RDSWA 000001C0  FFFFFFDA   13787
 $$$RFDE  00000004  FFFFFFE3    7852
 $$$RFDEMAP
          00000194  FFFFFFE2    7909
 $$$RFMAPWA
          00000008  FFFFFFC8   39097
 $$$RINENTRY
          00000006  FFFFFFE1    7932
 $$$RJCB  000000D0  FFFFFFE9    6320
 $$$RKWR  000001F8  FFFFFFE8    6600
 $$$RNSCNCB
          000000B0  FFFFFFED    2389
 $$$ROPENWA
          00000034  FFFFFFCC   32115
 $$$RQCLWA
          00000024  FFFFFFD4   21946
 $$$RQFCWA
          000001C0  FFFFFFD8   15850
 $$$RQFETWA
          00000258  FFFFFFD5   19387
 $$$RQINFO
          00000008  FFFFFFDF    8012
 $$$RQMONWA
          000001C4  FFFFFFD2   22921
 $$$RQMW  0000002C  FFFFFFDD    8248
 $$$RQOWA 000001AC  FFFFFFD7   16421
 $$$RQRESWA
          00000004  FFFFFFD3   22304
 $$$RQRWA 00000010  FFFFFFD6   17908
 $$$RQWA  000001BC  FFFFFFD9   14281
 $$$RREADWA
          00000003  FFFFFFC7   40095
 $$$RSCWA 000001F8  FFFFFFD0   25967
 $$$RSDSWA
1QUERY    (QUER2193) (12:52) (15MAR04) Dsect Cross Reference                                                                Page  208
          00000008  FFFFFFCF   28368
 $$$RSEGCB
          0000003C  FFFFFFE5    7422
 $$$RSEGFWA
          00000014  FFFFFFD1   25063
 $$$RSETQWA
          00000268  FFFFFFDC    8274
 $$$RSHOSWA
          000001D6  FFFFFFDB   12543
 $$$RSTRC 0000001E  FFFFFFE0    7958
 $$$RSVCLWA
          0000000C  FFFFFFCB   35423
 $$$RSVDTWA
          00000103  FFFFFFCE   30233
 $$$RSVFMWA
          00000004  FFFFFFC9   37486
 $$$RSVGLWA
          00000004  FFFFFFCA   36318
 $$$RSVIB 000001AC  FFFFFFDE    8045
 $$$RTTYPE
          0000010C  FFFFFFEA    6213
 $$$RUNET 00000278  FFFFFFE6    6960
 $$$RUPATH
          000000B0  FFFFFFE7    6811
 $$$RVNENTRY
          00000050  FFFFFFE4    7536
 HIBAL    00000000  FFFFFFFF     691

1QUERY    (QUER2193) (12:52) (15MAR04) Using Map                                                                            Page  209
-                                                                                            HLASM R4.0  2004/03/15 12.52
   Stmt  -----Location----- Action ----------------Using----------------- Reg Max    Last  Label and Using Text
           Count      Id           Type          Value    Range     Id        Disp   Stmt
0   922  00000000  FFFFFFFF USING  ORDINARY    00000000 00001000 FFFFFFEF  15 000   17313  @R15,15
    926  00000000  FFFFFFFF USING  ORDINARY    00000000 00001000 FFFFFFF0  14 002    2184  @R14,14
    930  00000000  FFFFFFFF USING  ORDINARY    00000000 00001000 FFFFFFF1  13 000          @R13,13
    934  00000000  FFFFFFFF USING  ORDINARY    00000000 00001000 FFFFFFF2  12 000          @R12,12
    938  00000000  FFFFFFFF USING  ORDINARY    00000000 00001000 FFFFFFF3  11 000          @R11,11
    942  00000000  FFFFFFFF USING  ORDINARY    00000000 00001000 FFFFFFF4  10 000          @R10,10
    946  00000000  FFFFFFFF USING  ORDINARY    00000000 00001000 FFFFFFF5   9 000          @R9,9
    950  00000000  FFFFFFFF USING  ORDINARY    00000000 00001000 FFFFFFF6   8 000          @R8,8
    954  00000000  FFFFFFFF USING  ORDINARY    00000000 00001000 FFFFFFF7   7 000          @R7,7
    958  00000000  FFFFFFFF USING  ORDINARY    00000000 00001000 FFFFFFF8   6 000          @R6,6
    962  00000000  FFFFFFFF USING  ORDINARY    00000000 00001000 FFFFFFF9   5 000          @R5,5
    966  00000000  FFFFFFFF USING  ORDINARY    00000000 00001000 FFFFFFFA   4 000          @R4,4
    970  00000000  FFFFFFFF USING  ORDINARY    00000000 00001000 FFFFFFFB   3 000   16323  @R3,3
    974  00000000  FFFFFFFF USING  ORDINARY    00000000 00001000 FFFFFFFC   2 000          @R2,2
    978  00000000  FFFFFFFF USING  ORDINARY    00000000 00001000 FFFFFFFD   1 001   16323  @R1,1
    982  00000000  FFFFFFFF USING  ORDINARY    00000000 00001000 FFFFFFFE   0 000          @R0,0
    983  00000000  FFFFFFFF DROP                                            0              0
   1177  00000017  00000001 USING  ORDINARY    00000000 00001000 FFFFFFEC  11 D89   37350  CP,CPR
   1186  00000017  00000001 USING  ORDINARY    00000000 00001000 FFFFFFEE  12 8B4   43426  CV,CVR
   8401  00000032  00000001 USING  ORDINARY    00000032 00001000 00000001   7 D7E    8969  $$$88B,7
   8415  00000032  00000001 USING  ORDINARY    FFFFFFD8 00001000 FFFFFFDC   8 228    8428  SETQWA-(4+36),R8
   8438  00000048  00000001 USING  ORDINARY    00000000 00001000 FFFFFFDC   6 0BC    8906  SETQWA,R6
   8455  0000004C  00000001 USING  ORDINARY    00000000 00001000 FFFFFFDE   5 1A8    8930  SVIB,R5
   8983  00000202  00000001 USING  ORDINARY    00000000 00001000 FFFFFFF9   5 000          @R5,5
   8988  00000202  00000001 USING  ORDINARY    00000000 00001000 FFFFFFF8   6 000          @R6,6
   8993  00000202  00000001 USING  ORDINARY    00000000 00001000 FFFFFFF6   8 000          @R8,8
   8998  00000202  00000001 USING  ORDINARY    00000000 00001000 FFFFFFF7   7 000          @R7,7
   9048  0000022A  00000001 USING  ORDINARY    0000022A 00001000 00000001   7 C13    9414  $$$108B,7
   9066  0000022A  00000001 USING  ORDINARY    00000000 00001000 FFFFFFDE   5 0BC    9405  SVIB,R5
   9076  0000022A  00000001 USING  ORDINARY    00000000 00001000 FFFFFFDC   6 003    9348  SETQWA,R6
   9424  0000034C  00000001 USING  ORDINARY    00000000 00001000 FFFFFFF8   6 000          @R6,6
   9429  0000034C  00000001 USING  ORDINARY    00000000 00001000 FFFFFFF9   5 000          @R5,5
   9434  0000034C  00000001 USING  ORDINARY    00000000 00001000 FFFFFFF7   7 000          @R7,7
   9484  00000374  00000001 USING  ORDINARY    00000374 00001000 00000001   7 B13   10163  $$$120B,7
   9502  00000374  00000001 USING  ORDINARY    00000000 00001000 FFFFFFDE   5 049    9651  SVIB,R5
   9512  00000374  00000001 USING  ORDINARY    00000000 00001000 FFFFFFDC   6 003   10130  SETQWA,R6
   9708  000003FC  00000001 USING  ORDINARY    00000000 00001000 FFFFFFF9   5 000          @R5,5
   9711  000003FC  00000001 USING  ORDINARY    00000000 00001000 FFFFFFDE   2 049    9722  SVIB,R2
   9733  00000400  00000001 USING  ORDINARY    00000000 00001000 FFFFFFDE   5 049   10154  SVIB,5
   9738  00000400  00000001 USING  ORDINARY    00000000 00001000 FFFFFFFC   2 000   13655  @R2,2
  10177  00000526  00000001 USING  ORDINARY    00000000 00001000 FFFFFFF8   6 000          @R6,6
  10182  00000526  00000001 USING  ORDINARY    00000000 00001000 FFFFFFF9   5 000          @R5,5
  10187  00000526  00000001 USING  ORDINARY    00000000 00001000 FFFFFFF7   7 000          @R7,7
  10240  0000054E  00000001 USING  ORDINARY    0000054E 00001000 00000001   7 84A   10734  $$$139B,7
  10258  0000054E  00000001 USING  ORDINARY    00000000 00001000 FFFFFFDC   6 0B8   10741  SETQWA,R6
  10273  00000550  00000001 USING  ORDINARY    00000000 00001000 FFFFFFDE   5 1A8   10713  SVIB,R5
  10753  000006AC  00000001 USING  ORDINARY    00000000 00001000 FFFFFFF9   5 000          @R5,5
  10758  000006AC  00000001 USING  ORDINARY    00000000 00001000 FFFFFFF8   6 000          @R6,6
  10763  000006AC  00000001 USING  ORDINARY    00000000 00001000 FFFFFFF7   7 000          @R7,7
  11082  000009A6  00000001 USING  ORDINARY    000009A6 00001000 00000001   7 4F2   11148  $$$160B,7
  11100  000009A6  00000001 USING  ORDINARY    00000000 00001000 FFFFFFDC   6 004   11155  SETQWA,R6
  11177  000009CE  00000001 USING  ORDINARY    00000000 00001000 FFFFFFF8   6 000          @R6,6
  11182  000009CE  00000001 USING  ORDINARY    00000000 00001000 FFFFFFF7   7 000          @R7,7
1QUERY    (QUER2193) (12:52) (15MAR04) Using Map                                                                            Page  210
  11227  000009F6  00000001 USING  ORDINARY    000009F6 00001000 00000001   7 4A8   11293  $$$167B,7
  11245  000009F6  00000001 USING  ORDINARY    00000000 00001000 FFFFFFDC   6 024   11300  SETQWA,R6
  11322  00000A1E  00000001 USING  ORDINARY    00000000 00001000 FFFFFFF8   6 000          @R6,6
  11327  00000A1E  00000001 USING  ORDINARY    00000000 00001000 FFFFFFF7   7 000          @R7,7
  11372  00000A46  00000001 USING  ORDINARY    00000A46 00001000 00000001   7 000          $$$174B,7
  11390  00000A46  00000001 USING  ORDINARY    00000000 00001000 FFFFFFDC   6 074   11394  SETQWA,R6
  11401  00000A4A  00000001 USING  ORDINARY    00000000 00001000 FFFFFFF8   6 000          @R6,6
  11406  00000A4A  00000001 USING  ORDINARY    00000000 00001000 FFFFFFF7   7 000          @R7,7
  11451  00000A72  00000001 USING  ORDINARY    00000A72 00001000 00000001   7 432   11517  $$$177B,7
  11469  00000A72  00000001 USING  ORDINARY    00000000 00001000 FFFFFFDC   6 078   11524  SETQWA,R6
  11546  00000A9A  00000001 USING  ORDINARY    00000000 00001000 FFFFFFF8   6 000          @R6,6
  11551  00000A9A  00000001 USING  ORDINARY    00000000 00001000 FFFFFFF7   7 000          @R7,7
  11596  00000AC2  00000001 USING  ORDINARY    00000AC2 00001000 00000001   7 3E8   11662  $$$184B,7
  11614  00000AC2  00000001 USING  ORDINARY    00000000 00001000 FFFFFFDC   6 098   11669  SETQWA,R6
  11691  00000AEA  00000001 USING  ORDINARY    00000000 00001000 FFFFFFF8   6 000          @R6,6
  11696  00000AEA  00000001 USING  ORDINARY    00000000 00001000 FFFFFFF7   7 000          @R7,7
  11741  00000B12  00000001 USING  ORDINARY    00000B12 00001000 00000001   7 000          $$$191B,7
  11759  00000B12  00000001 USING  ORDINARY    00000000 00001000 FFFFFFDC   6 000   11768  SETQWA,R6
  11775  00000B16  00000001 USING  ORDINARY    00000000 00001000 FFFFFFF8   6 000          @R6,6
  11780  00000B16  00000001 USING  ORDINARY    00000000 00001000 FFFFFFF7   7 000          @R7,7
  11825  00000B3E  00000001 USING  ORDINARY    00000B3E 00001000 00000001   7 000          $$$194B,7
  11843  00000B3E  00000001 USING  ORDINARY    00000000 00001000 FFFFFFDC   6 000   11852  SETQWA,R6
  11859  00000B42  00000001 USING  ORDINARY    00000000 00001000 FFFFFFF8   6 000          @R6,6
  11864  00000B42  00000001 USING  ORDINARY    00000000 00001000 FFFFFFF7   7 000          @R7,7
  11909  00000B6A  00000001 USING  ORDINARY    00000B6A 00001000 00000001   7 000          $$$197B,7
  11927  00000B6A  00000001 USING  ORDINARY    00000000 00001000 FFFFFFDC   6 000   11936  SETQWA,R6
  11943  00000B6E  00000001 USING  ORDINARY    00000000 00001000 FFFFFFF8   6 000          @R6,6
  11948  00000B6E  00000001 USING  ORDINARY    00000000 00001000 FFFFFFF7   7 000          @R7,7
  11993  00000B96  00000001 USING  ORDINARY    00000B96 00001000 00000001   7 000          $$$200B,7
  12011  00000B96  00000001 USING  ORDINARY    00000000 00001000 FFFFFFDC   6 0B8   12015  SETQWA,R6
  12022  00000B9A  00000001 USING  ORDINARY    00000000 00001000 FFFFFFF8   6 000          @R6,6
  12027  00000B9A  00000001 USING  ORDINARY    00000000 00001000 FFFFFFF7   7 000          @R7,7
  12072  00000BC2  00000001 USING  ORDINARY    00000BC2 00001000 00000001   7 000          $$$203B,7
  12090  00000BC2  00000001 USING  ORDINARY    00000000 00001000 FFFFFFDC   6 001   12104  SETQWA,R6
  12111  00000BCA  00000001 USING  ORDINARY    00000000 00001000 FFFFFFF8   6 000          @R6,6
  12116  00000BCA  00000001 USING  ORDINARY    00000000 00001000 FFFFFFF7   7 000          @R7,7
  12161  00000BF2  00000001 USING  ORDINARY    00000BF2 00001000 00000001   7 000          $$$206B,7
  12179  00000BF2  00000001 USING  ORDINARY    00000000 00001000 FFFFFFDC   6 001   12193  SETQWA,R6
  12200  00000BFA  00000001 USING  ORDINARY    00000000 00001000 FFFFFFF8   6 000          @R6,6
  12205  00000BFA  00000001 USING  ORDINARY    00000000 00001000 FFFFFFF7   7 000          @R7,7
  12250  00000C22  00000001 USING  ORDINARY    00000C22 00001000 00000001   7 000          $$$209B,7
  12268  00000C22  00000001 USING  ORDINARY    00000000 00001000 FFFFFFDC   6 002   12282  SETQWA,R6
  12289  00000C2A  00000001 USING  ORDINARY    00000000 00001000 FFFFFFF8   6 000          @R6,6
  12294  00000C2A  00000001 USING  ORDINARY    00000000 00001000 FFFFFFF7   7 000          @R7,7
  12339  00000C52  00000001 USING  ORDINARY    00000C52 00001000 00000001   7 000          $$$212B,7
  12357  00000C52  00000001 USING  ORDINARY    00000000 00001000 FFFFFFDC   6 002   12371  SETQWA,R6
  12378  00000C5A  00000001 USING  ORDINARY    00000000 00001000 FFFFFFF8   6 000          @R6,6
  12383  00000C5A  00000001 USING  ORDINARY    00000000 00001000 FFFFFFF7   7 000          @R7,7
  12428  00000C82  00000001 USING  ORDINARY    00000C82 00001000 00000001   7 000          $$$215B,7
  12446  00000C82  00000001 USING  ORDINARY    00000000 00001000 FFFFFFDC   6 002   12455  SETQWA,R6
  12462  00000C86  00000001 USING  ORDINARY    00000000 00001000 FFFFFFF8   6 000          @R6,6
  12467  00000C86  00000001 USING  ORDINARY    00000000 00001000 FFFFFFF7   7 000          @R7,7
  12623  00000ECA  00000001 USING  ORDINARY    00000ECA 00001000 00000001   7 532   13119  $$$218B,7
  12637  00000ECA  00000001 USING  ORDINARY    FFFFFFD8 00001000 FFFFFFDB   8 028   12641  SHOSWA-(4+36),R8
  12651  00000ECE  00000001 USING  ORDINARY    00000000 00001000 FFFFFFDB   6 100   13097  SHOSWA,R6
  12742  00000F42  00000001 USING  ORDINARY    00000000 00001000 FFFFFFDE   5 18C   12975  SVIB,R5
  12989  00000FE0  00000001 USING  ORDINARY    00000000 00001000 FFFFFFF9   5 004   14202  @R5,5
  13133  00001052  00000001 USING  ORDINARY    00000000 00001000 FFFFFFF8   6 000          @R6,6
  13138  00001052  00000001 USING  ORDINARY    00000000 00001000 FFFFFFF6   8 000          @R8,8
1QUERY    (QUER2193) (12:52) (15MAR04) Using Map                                                                            Page  211
  13143  00001052  00000001 USING  ORDINARY    00000000 00001000 FFFFFFF7   7 000          @R7,7
  13297  00001192  00000001 USING  ORDINARY    00001192 00001000 00000001   7 000          $$$230B,7
  13315  00001192  00000001 USING  ORDINARY    00000000 00001000 FFFFFFDB   6 000   13324  SHOSWA,R6
  13331  00001196  00000001 USING  ORDINARY    00000000 00001000 FFFFFFF8   6 000          @R6,6
  13336  00001196  00000001 USING  ORDINARY    00000000 00001000 FFFFFFF7   7 000          @R7,7
  13381  000011BE  00000001 USING  ORDINARY    000011BE 00001000 00000001   7 000          $$$233B,7
  13399  000011BE  00000001 USING  ORDINARY    00000000 00001000 FFFFFFDB   6 000   13408  SHOSWA,R6
  13415  000011C2  00000001 USING  ORDINARY    00000000 00001000 FFFFFFF8   6 000          @R6,6
  13420  000011C2  00000001 USING  ORDINARY    00000000 00001000 FFFFFFF7   7 000          @R7,7
  13465  000011EA  00000001 USING  ORDINARY    000011EA 00001000 00000001   7 000          $$$236B,7
  13483  000011EA  00000001 USING  ORDINARY    00000000 00001000 FFFFFFDB   6 000   13492  SHOSWA,R6
  13499  000011EE  00000001 USING  ORDINARY    00000000 00001000 FFFFFFF8   6 000          @R6,6
  13504  000011EE  00000001 USING  ORDINARY    00000000 00001000 FFFFFFF7   7 000          @R7,7
  13549  00001216  00000001 USING  ORDINARY    00001216 00001000 00000001   7 1FE   13648  $$$239B,7
  13567  00001216  00000001 USING  ORDINARY    00000000 00001000 FFFFFFDB   6 00A   13655  SHOSWA,R6
  13677  0000124A  00000001 USING  ORDINARY    00000000 00001000 FFFFFFF8   6 000          @R6,6
  13682  0000124A  00000001 USING  ORDINARY    00000000 00001000 FFFFFFF7   7 000          @R7,7
  13727  00001272  00000001 USING  ORDINARY    00001272 00001000 00000001   7 000          $$$249B,7
  13745  00001272  00000001 USING  ORDINARY    00000000 00001000 FFFFFFDB   6 004   13749  SHOSWA,R6
  13756  00001276  00000001 USING  ORDINARY    00000000 00001000 FFFFFFF8   6 000          @R6,6
  13761  00001276  00000001 USING  ORDINARY    00000000 00001000 FFFFFFF7   7 000          @R7,7
  13841  0000129E  00000001 USING  ORDINARY    0000129E 00001000 00000001   7 132   14206  $$$252B,7
  13855  0000129E  00000001 USING  ORDINARY    FFFFFFD8 00001000 FFFFFFDA   8 128   13919  DSWA-(4+36),R8
  13877  000012AA  00000001 USING  ORDINARY    00000000 00001000 FFFFFFDB   6 000   14191  SHOSWA,R6
  13950  000012CE  00000001 USING  ORDINARY    00000000 00001000 FFFFFFDE   4 18C   14176  SVIB,R4
  14197  00001366  00000001 USING  ORDINARY    00000000 00001000 FFFFFFFA   4 000          @R4,4
  14219  00001370  00000001 USING  ORDINARY    00000000 00001000 FFFFFFF8   6 000          @R6,6
  14224  00001370  00000001 USING  ORDINARY    00000000 00001000 FFFFFFF6   8 000          @R8,8
  14229  00001370  00000001 USING  ORDINARY    00000000 00001000 FFFFFFF7   7 000          @R7,7
  14355  00001434  00000001 USING  ORDINARY    00001434 00001000 00000001   7 6AD   15735  $$$264B,7
  14369  00001434  00000001 USING  ORDINARY    FFFFFFD8 00001000 FFFFFFD9   8 128   15398  QWA-(4+36),R8
  14393  00001448  00000001 USING  ORDINARY    00000000 00001000 FFFFFFDE   5 188   15589  SVIB,R5
  14917  00001620  00000001 USING  ORDINARY    00000000 00001000 FFFFFFE9   2 04D   15016  JCB,R2
  15046  00001684  00000001 USING  ORDINARY    00000000 00001000 FFFFFFFC   2 000          @R2,2
  15751  000018B6  00000001 USING  ORDINARY    00000000 00001000 FFFFFFF9   5 000          @R5,5
  15756  000018B6  00000001 USING  ORDINARY    00000000 00001000 FFFFFFF6   8 000          @R8,8
  15761  000018B6  00000001 USING  ORDINARY    00000000 00001000 FFFFFFF7   7 000          @R7,7
  15911  00001B02  00000001 USING  ORDINARY    00001B02 00001000 00000001   7 DD2   16379  $$$290B,7
  15925  00001B02  00000001 USING  ORDINARY    FFFFFFD8 00001000 FFFFFFD8   8 128   16362  QFCWA-(4+36),R8
  15952  00001B1A  00000001 USING  ORDINARY    00000000 00001000 FFFFFFDE   5 188   16368  SVIB,R5
  16390  00001C46  00000001 USING  ORDINARY    00000000 00001000 FFFFFFF9   5 000          @R5,5
  16395  00001C46  00000001 USING  ORDINARY    00000000 00001000 FFFFFFF6   8 000          @R8,8
  16400  00001C46  00000001 USING  ORDINARY    00000000 00001000 FFFFFFF7   7 000          @R7,7
  16471  00001C6E  00000001 USING  ORDINARY    00001C6E 00001000 00000001   7 C61   17304  $$$308B,7
  16485  00001C6E  00000001 USING  ORDINARY    FFFFFFD8 00001000 FFFFFFD7   8 128   16498  QOWA-(4+36),R8
  16508  00001C7E  00000001 USING  ORDINARY    00000000 00001000 FFFFFFDE   5 008   17060  SVIB,R5
  16782  00001D7A  00000001 USING  ORDINARY    00000000 00001000 FFFFFFDF   1 004   16795  QINFO,R1
  16803  00001D90  00000001 USING  ORDINARY    00000000 00001000 FFFFFFFD   1 004   22844  @R1,1
  17321  00001F6C  00000001 USING  ORDINARY    00000000 00001000 FFFFFFF9   5 000          @R5,5
  17326  00001F6C  00000001 USING  ORDINARY    00000000 00001000 FFFFFFF6   8 000          @R8,8
  17331  00001F6C  00000001 USING  ORDINARY    00000000 00001000 FFFFFFF7   7 000          @R7,7
  17401  00001FBE  00000001 USING  ORDINARY    00001FBE 00001000 00000001   7 911   17573  $$$320B,7
  17427  00001FC6  00000001 USING  ORDINARY    00000000 00001000 FFFFFFDE   5 000   17432  SVIB,R5
  17599  00002070  00000001 USING  ORDINARY    00000000 00001000 FFFFFFF9   5 000          @R5,5
  17604  00002070  00000001 USING  ORDINARY    00000000 00001000 FFFFFFF7   7 000          @R7,7
  17654  00002098  00000001 USING  ORDINARY    00002098 00001000 00000001   7 837   17857  $$$324B,7
  17680  000020A0  00000001 USING  ORDINARY    00000000 00001000 FFFFFFDE   5 000   17728  SVIB,R5
  17882  00002162  00000001 USING  ORDINARY    00000000 00001000 FFFFFFF9   5 000          @R5,5
  17887  00002162  00000001 USING  ORDINARY    00000000 00001000 FFFFFFF7   7 000          @R7,7
1QUERY    (QUER2193) (12:52) (15MAR04) Using Map                                                                            Page  212
  17962  0000218A  00000001 USING  ORDINARY    0000218A 00001000 00000001   7 746   18811  $$$329B,7
  17976  0000218A  00000001 USING  ORDINARY    FFFFFFD8 00001000 FFFFFFD6   8 028   17980  QRWA-(4+36),R8
  17990  0000218E  00000001 USING  ORDINARY    00000000 00001000 FFFFFFD6   6 00C   18623  QRWA,R6
  18280  000022D0  00000001 USING  ORDINARY    00000000 00001000 FFFFFFDE   5 18C   18678  SVIB,R5
  18296  000022D8  00000001 USING  ORDINARY    00000000 00001000 FFFFFFE6  15 10C   18302  UNET,R15
  18309  000022DC  00000001 USING  ORDINARY    00000000 00001000 FFFFFFEF  15 000          @R15,15
  18836  00002470  00000001 USING  ORDINARY    00000000 00001000 FFFFFFF9   5 000          @R5,5
  18841  00002470  00000001 USING  ORDINARY    00000000 00001000 FFFFFFF8   6 000          @R6,6
  18846  00002470  00000001 USING  ORDINARY    00000000 00001000 FFFFFFF6   8 000          @R8,8
  18851  00002470  00000001 USING  ORDINARY    00000000 00001000 FFFFFFF7   7 000          @R7,7
  18989  0000258A  00000001 USING  ORDINARY    0000258A 00001000 00000001   7 1FE   19078  $$$349B,7
  19007  0000258A  00000001 USING  ORDINARY    00000000 00001000 FFFFFFD6   6 000   19085  QRWA,R6
  19092  000025AE  00000001 USING  ORDINARY    00000000 00001000 FFFFFFF8   6 000          @R6,6
  19097  000025AE  00000001 USING  ORDINARY    00000000 00001000 FFFFFFF7   7 000          @R7,7
  19150  000025D6  00000001 USING  ORDINARY    000025D6 00001000 00000001   7 1B6   19263  $$$355B,7
  19169  000025DA  00000001 USING  ORDINARY    00000000 00001000 FFFFFFD6   6 00C   19260  QRWA,R6
  19272  00002620  00000001 USING  ORDINARY    00000000 00001000 FFFFFFF8   6 000          @R6,6
  19277  00002620  00000001 USING  ORDINARY    00000000 00001000 FFFFFFF7   7 000          @R7,7
  19554  000028F4  00000001 USING  ORDINARY    000028F4 00001000 00000001   7 844   20632  $$$367B,7
  19568  000028F4  00000001 USING  ORDINARY    FFFFFFD8 00001000 FFFFFFD5   8 028   19572  QFETWA-(4+36),R8
  19582  000028F8  00000001 USING  ORDINARY    00000000 00001000 FFFFFFD5   6 200   20564  QFETWA,R6
  19617  0000292A  00000001 USING  ORDINARY    00000000 00001000 FFFFFFDE   5 04B   20078  SVIB,R5
  20642  00002C24  00000001 USING  ORDINARY    00000000 00001000 FFFFFFF9   5 000          @R5,5
  20647  00002C24  00000001 USING  ORDINARY    00000000 00001000 FFFFFFF8   6 000          @R6,6
  20652  00002C24  00000001 USING  ORDINARY    00000000 00001000 FFFFFFF6   8 000          @R8,8
  20657  00002C24  00000001 USING  ORDINARY    00000000 00001000 FFFFFFF7   7 000          @R7,7
  20841  00002DB6  00000001 USING  ORDINARY    00002DB6 00001000 00000001   7 000          $$$397B,7
  20859  00002DB6  00000001 USING  ORDINARY    00000000 00001000 FFFFFFD5   6 000   20868  QFETWA,R6
  20875  00002DBA  00000001 USING  ORDINARY    00000000 00001000 FFFFFFF8   6 000          @R6,6
  20880  00002DBA  00000001 USING  ORDINARY    00000000 00001000 FFFFFFF7   7 000          @R7,7
  20925  00002DE2  00000001 USING  ORDINARY    00002DE2 00001000 00000001   7 000          $$$400B,7
  20943  00002DE2  00000001 USING  ORDINARY    00000000 00001000 FFFFFFD5   6 000   20952  QFETWA,R6
  20959  00002DE6  00000001 USING  ORDINARY    00000000 00001000 FFFFFFF8   6 000          @R6,6
  20964  00002DE6  00000001 USING  ORDINARY    00000000 00001000 FFFFFFF7   7 000          @R7,7
  21009  00002E0E  00000001 USING  ORDINARY    00002E0E 00001000 00000001   7 000          $$$403B,7
  21027  00002E0E  00000001 USING  ORDINARY    00000000 00001000 FFFFFFD5   6 000   21037  QFETWA,R6
  21044  00002E12  00000001 USING  ORDINARY    00000000 00001000 FFFFFFF8   6 000          @R6,6
  21049  00002E12  00000001 USING  ORDINARY    00000000 00001000 FFFFFFF7   7 000          @R7,7
  21094  00002E3A  00000001 USING  ORDINARY    00002E3A 00001000 00000001   7 000          $$$406B,7
  21112  00002E3A  00000001 USING  ORDINARY    00000000 00001000 FFFFFFD5   6 000   21121  QFETWA,R6
  21128  00002E3E  00000001 USING  ORDINARY    00000000 00001000 FFFFFFF8   6 000          @R6,6
  21133  00002E3E  00000001 USING  ORDINARY    00000000 00001000 FFFFFFF7   7 000          @R7,7
  21178  00002E66  00000001 USING  ORDINARY    00002E66 00001000 00000001   7 000          $$$409B,7
  21196  00002E66  00000001 USING  ORDINARY    00000000 00001000 FFFFFFD5   6 010   21200  QFETWA,R6
  21207  00002E6A  00000001 USING  ORDINARY    00000000 00001000 FFFFFFF8   6 000          @R6,6
  21212  00002E6A  00000001 USING  ORDINARY    00000000 00001000 FFFFFFF7   7 000          @R7,7
  21257  00002E92  00000001 USING  ORDINARY    00002E92 00001000 00000001   7 000          $$$412B,7
  21275  00002E92  00000001 USING  ORDINARY    00000000 00001000 FFFFFFD5   6 014   21279  QFETWA,R6
  21286  00002E96  00000001 USING  ORDINARY    00000000 00001000 FFFFFFF8   6 000          @R6,6
  21291  00002E96  00000001 USING  ORDINARY    00000000 00001000 FFFFFFF7   7 000          @R7,7
  21336  00002EBE  00000001 USING  ORDINARY    00002EBE 00001000 00000001   7 000          $$$415B,7
  21354  00002EBE  00000001 USING  ORDINARY    00000000 00001000 FFFFFFD5   6 00C   21358  QFETWA,R6
  21365  00002EC2  00000001 USING  ORDINARY    00000000 00001000 FFFFFFF8   6 000          @R6,6
  21370  00002EC2  00000001 USING  ORDINARY    00000000 00001000 FFFFFFF7   7 000          @R7,7
  21425  00002EEA  00000001 USING  ORDINARY    00002EEA 00001000 00000001   7 254   21634  $$$418B,7
  21444  00002EEC  00000001 USING  ORDINARY    00000000 00001000 FFFFFFE5   5 038   21662  SEGCB,R5
  21459  00002EF0  00000001 USING  ORDINARY    00000000 00001000 FFFFFFD5   6 018   21645  QFETWA,R6
  21674  00002F7A  00000001 USING  ORDINARY    00000000 00001000 FFFFFFF8   6 000          @R6,6
  21679  00002F7A  00000001 USING  ORDINARY    00000000 00001000 FFFFFFF9   5 000          @R5,5
1QUERY    (QUER2193) (12:52) (15MAR04) Using Map                                                                            Page  213
  21684  00002F7A  00000001 USING  ORDINARY    00000000 00001000 FFFFFFF7   7 000          @R7,7
  21742  00002FA2  00000001 USING  ORDINARY    00002FA2 00001000 00000001   7 1AD   21852  $$$426B,7
  21787  00002FBE  00000001 USING  ORDINARY    00000000 00001000 FFFFFFDE   5 168   21849  SVIB,R5
  21863  00002FF4  00000001 USING  ORDINARY    00000000 00001000 FFFFFFF9   5 000          @R5,5
  21868  00002FF4  00000001 USING  ORDINARY    00000000 00001000 FFFFFFF7   7 000          @R7,7
  21997  00003178  00000001 USING  ORDINARY    00003178 00001000 00000001   7 986   22262  $$$432B,7
  22011  00003178  00000001 USING  ORDINARY    FFFFFFD8 00001000 FFFFFFD4   8 02C   22242  QCLWA-(4+36),R8
  22032  00003180  00000001 USING  ORDINARY    00000000 00001000 FFFFFFDE   5 008   22166  SVIB,R5
  22063  00003192  00000001 USING  ORDINARY    00000000 00001000 FFFFFFDF   4 004   22139  QINFO,R4
  22158  000031CC  00000001 USING  ORDINARY    00000000 00001000 FFFFFFFA   4 000          @R4,4
  22273  00003230  00000001 USING  ORDINARY    00000000 00001000 FFFFFFF9   5 000          @R5,5
  22278  00003230  00000001 USING  ORDINARY    00000000 00001000 FFFFFFF6   8 000          @R8,8
  22283  00003230  00000001 USING  ORDINARY    00000000 00001000 FFFFFFF7   7 000          @R7,7
  22354  00003258  00000001 USING  ORDINARY    00003258 00001000 00000001   7 8E0   22845  $$$441B,7
  22368  00003258  00000001 USING  ORDINARY    FFFFFFD8 00001000 FFFFFFD3   8 028   22709  QRESWA-(4+36),R8
  22389  00003260  00000001 USING  ORDINARY    00000000 00001000 FFFFFFDE   5 18C   22716  SVIB,R5
  22403  00003264  00000001 USING  ORDINARY    00000000 00001000 FFFFFFE6  15 10C   22409  UNET,R15
  22416  00003268  00000001 USING  ORDINARY    00000000 00001000 FFFFFFEF  15 000          @R15,15
  22635  00003356  00000001 DROP                                           15              15
  22639  0000335C  00000001 USING  ORDINARY    00000000 00001000 FFFFFFEF  15 000          @R15,15
  22870  00003432  00000001 USING  ORDINARY    00000000 00001000 FFFFFFF9   5 000          @R5,5
  22875  00003432  00000001 USING  ORDINARY    00000000 00001000 FFFFFFF6   8 000          @R8,8
  22880  00003432  00000001 USING  ORDINARY    00000000 00001000 FFFFFFF7   7 000          @R7,7
  22987  00003482  00000001 USING  ORDINARY    00003482 00001000 00000001   7 6C4   24289  $$$448B,7
  23001  00003482  00000001 USING  ORDINARY    FFFFFFD8 00001000 FFFFFFD2   8 028   23005  QMONWA-(4+36),R8
  23015  00003486  00000001 USING  ORDINARY    00000000 00001000 FFFFFFD2   6 100   24217  QMONWA,R6
  23040  00003496  00000001 USING  ORDINARY    00000000 00001000 FFFFFFDE   5 174   24307  SVIB,R5
  23126  00003512  00000001 USING  ORDINARY    00000000 00001000 FFFFFFDD   4 028   23272  QMW,R4
  23228  00003566  00000001 USING  ORDINARY    00000000 00001000 FFFFFFE9   2 061   23239  JCB,R2
  23246  0000356A  00000001 USING  ORDINARY    00000000 00001000 FFFFFFFC   2 000          @R2,2
  23328  000035A8  00000001 USING  ORDINARY    00000000 00001000 FFFFFFFA   4 000          @R4,4
  23331  000035A8  00000001 USING  ORDINARY    00000000 00001000 FFFFFFDD   3 000   23368  QMW,R3
  23389  000035CC  00000001 USING  ORDINARY    00000000 00001000 FFFFFFDD   4 004   23400  QMW,4
  23394  000035CC  00000001 USING  ORDINARY    00000000 00001000 FFFFFFFB   3 000          @R3,3
  23406  000035D6  00000001 USING  ORDINARY    00000000 00001000 FFFFFFFA   4 000          @R4,4
  23604  0000366E  00000001 USING  ORDINARY    00000000 00001000 FFFFFFE9   3 048   23653  JCB,R3
  23678  000036B0  00000001 USING  ORDINARY    00000000 00001000 FFFFFFFB   3 004   30675  @R3,3
  23756  000036E2  00000001 USING  ORDINARY    00000000 00001000 FFFFFFE0   4 010   23782  STRC,R4
  23790  000036FA  00000001 USING  ORDINARY    00000000 00001000 FFFFFFFA   4 000          @R4,4
  23839  00003716  00000001 USING  ORDINARY    00000000 00001000 FFFFFFE0  15 010   23851  STRC,R15
  23858  0000371A  00000001 USING  ORDINARY    00000000 00001000 FFFFFFEF  15 000          @R15,15
  23896  00003726  00000001 USING  ORDINARY    00000000 00001000 FFFFFFE0   4 010   24043  STRC,R4
  24053  0000377C  00000001 USING  ORDINARY    00000000 00001000 FFFFFFFA   4 004   31462  @R4,4
  24125  0000379A  00000001 USING  ORDINARY    00000000 00001000 FFFFFFE0  15 010   24138  STRC,R15
  24152  000037A2  00000001 USING  ORDINARY    00000000 00001000 FFFFFFEF  15 000          @R15,15
  24167  000037A6  00000001 USING  ORDINARY    00000000 00001000 FFFFFFE9   2 061   24178  JCB,R2
  24185  000037AA  00000001 USING  ORDINARY    00000000 00001000 FFFFFFFC   2 000          @R2,2
  24315  00003812  00000001 USING  ORDINARY    00000000 00001000 FFFFFFF9   5 000          @R5,5
  24320  00003812  00000001 USING  ORDINARY    00000000 00001000 FFFFFFF8   6 000          @R6,6
  24325  00003812  00000001 USING  ORDINARY    00000000 00001000 FFFFFFF6   8 000          @R8,8
  24330  00003812  00000001 USING  ORDINARY    00000000 00001000 FFFFFFF7   7 000          @R7,7
  24408  0000388A  00000001 USING  ORDINARY    0000388A 00001000 00000001   7 000          $$$478B,7
  24426  0000388A  00000001 USING  ORDINARY    00000000 00001000 FFFFFFD2   6 000   24435  QMONWA,R6
  24442  0000388E  00000001 USING  ORDINARY    00000000 00001000 FFFFFFF8   6 000          @R6,6
  24447  0000388E  00000001 USING  ORDINARY    00000000 00001000 FFFFFFF7   7 000          @R7,7
  24502  000038B6  00000001 USING  ORDINARY    000038B6 00001000 00000001   7 220   24608  $$$481B,7
  24543  000038C8  00000001 USING  ORDINARY    00000000 00001000 FFFFFFDF   5 004   24625  QINFO,R5
  24572  000038D6  00000001 USING  ORDINARY    00000000 00001000 FFFFFFDE  15 008   24584  SVIB,R15
  24599  000038E4  00000001 USING  ORDINARY    00000000 00001000 FFFFFFEF  15 000          @R15,15
1QUERY    (QUER2193) (12:52) (15MAR04) Using Map                                                                            Page  214
  24631  000038F0  00000001 USING  ORDINARY    00000000 00001000 FFFFFFF9   5 000          @R5,5
  24642  000038F0  00000001 USING  ORDINARY    00000000 00001000 FFFFFFF7   7 000          @R7,7
  24699  00003918  00000001 USING  ORDINARY    00003918 00001000 00000001   7 253   24956  $$$487B,7
  24735  00003922  00000001 USING  ORDINARY    00000000 00001000 FFFFFFDE  15 18C   24915  SVIB,R15
  24840  00003964  00000001 USING  ORDINARY    00000000 00001000 FFFFFFE6   5 164   24882  UNET,R5
  24901  00003984  00000001 USING  ORDINARY    00000000 00001000 FFFFFFF9   5 000   25903  @R5,5
  24935  00003994  00000001 USING  ORDINARY    00000000 00001000 FFFFFFEF  15 000   30742  @R15,15
  24969  000039A0  00000001 USING  ORDINARY    00000000 00001000 FFFFFFF7   7 000          @R7,7
  25114  00003B8E  00000001 USING  ORDINARY    00003B8E 00001000 00000001   7 16E   25493  $$$500B,7
  25128  00003B8E  00000001 USING  ORDINARY    FFFFFFD8 00001000 FFFFFFD1   8 034   25457  SEGFWA-(4+36),R8
  25156  00003B98  00000001 USING  ORDINARY    00000000 00001000 FFFFFFE3   6 004   25480  FDE,R6
  25490  00003C72  00000001 USING  ORDINARY    00000000 00001000 FFFFFFF8   6 000          @R6,6
  25502  00003C76  00000001 USING  ORDINARY    00000000 00001000 FFFFFFF6   8 000          @R8,8
  25507  00003C76  00000001 USING  ORDINARY    00000000 00001000 FFFFFFF7   7 000          @R7,7
  25569  00003C9E  00000001 USING  ORDINARY    00003C9E 00001000 00000001   7 05A   25676  $$$512B,7
  25699  00003CE2  00000001 USING  ORDINARY    00000000 00001000 FFFFFFF7   7 000          @R7,7
  25771  00003D18  00000001 USING  ORDINARY    00003D18 00001000 00000001   7 344   25920  $$$521B,7
  25941  00003D78  00000001 USING  ORDINARY    00000000 00001000 FFFFFFF7   7 000          @R7,7
  26016  00003DA0  00000001 USING  ORDINARY    00003DA0 00001000 00000001   7 36E   26259  $$$532B,7
  26030  00003DA0  00000001 USING  ORDINARY    FFFFFFD8 00001000 FFFFFFD0   8 028   26228  SCWA-(4+36),R8
  26075  00003DB4  00000001 USING  ORDINARY    00000000 00001000 FFFFFFDE   5 16C   26270  SVIB,R5
  26238  00003E38  00000001 USING  ORDINARY    00000000 00001000 FFFFFFE8   1 000   26244  KWR,R1
  26251  00003E3E  00000001 USING  ORDINARY    00000000 00001000 FFFFFFFD   1 004   36151  @R1,1
  26277  00003E4A  00000001 USING  ORDINARY    00000000 00001000 FFFFFFF9   5 000          @R5,5
  26282  00003E4A  00000001 USING  ORDINARY    00000000 00001000 FFFFFFF6   8 000          @R8,8
  26287  00003E4A  00000001 USING  ORDINARY    00000000 00001000 FFFFFFF7   7 000          @R7,7
  26345  00003E72  00000001 USING  ORDINARY    00003E72 00001000 00000001   7 2D8   26838  $$$541B,7
  26364  00003E74  00000001 USING  ORDINARY    00000000 00001000 FFFFFFDE   5 008   26802  SVIB,R5
  26848  00003F98  00000001 USING  ORDINARY    00000000 00001000 FFFFFFF9   5 000          @R5,5
  26853  00003F98  00000001 USING  ORDINARY    00000000 00001000 FFFFFFF7   7 000          @R7,7
  26910  00003FC0  00000001 USING  ORDINARY    00003FC0 00001000 00000001   7 176   27012  $$$558B,7
  26929  00003FC2  00000001 USING  ORDINARY    00000000 00001000 FFFFFFDE   5 000   27009  SVIB,R5
  27021  00004040  00000001 USING  ORDINARY    00000000 00001000 FFFFFFF9   5 000          @R5,5
  27026  00004040  00000001 USING  ORDINARY    00000000 00001000 FFFFFFF7   7 000          @R7,7
  27122  0000416A  00000001 USING  ORDINARY    0000416A 00001000 00000001   7 3E6   27489  $$$562B,7
  27423  0000425C  00000001 USING  ORDINARY    00000000 00001000 FFFFFFDE   5 188   27497  SVIB,R5
  27504  0000429A  00000001 USING  ORDINARY    00000000 00001000 FFFFFFF9   5 000          @R5,5
  27509  0000429A  00000001 USING  ORDINARY    00000000 00001000 FFFFFFF7   7 000          @R7,7
  27569  000042C2  00000001 USING  ORDINARY    000042C2 00001000 00000001   7 1FA   27742  $$$574B,7
  27588  000042C4  00000001 USING  ORDINARY    00000000 00001000 FFFFFFDE   5 008   27719  SVIB,R5
  27756  00004334  00000001 USING  ORDINARY    00000000 00001000 FFFFFFF9   5 000          @R5,5
  27761  00004334  00000001 USING  ORDINARY    00000000 00001000 FFFFFFF7   7 000          @R7,7
  27821  0000435C  00000001 USING  ORDINARY    0000435C 00001000 00000001   7 168   28009  $$$584B,7
  27840  0000435E  00000001 USING  ORDINARY    00000000 00001000 FFFFFFDE   5 008   27986  SVIB,R5
  28023  000043D8  00000001 USING  ORDINARY    00000000 00001000 FFFFFFF9   5 000          @R5,5
  28028  000043D8  00000001 USING  ORDINARY    00000000 00001000 FFFFFFF7   7 000          @R7,7
  28080  00004400  00000001 USING  ORDINARY    00004400 00001000 00000001   7 166   28290  $$$595B,7
  28099  00004402  00000001 USING  ORDINARY    00000000 00001000 FFFFFFDE   5 008   28268  SVIB,R5
  28302  00004474  00000001 USING  ORDINARY    00000000 00001000 FFFFFFF9   5 000          @R5,5
  28307  00004474  00000001 USING  ORDINARY    00000000 00001000 FFFFFFF7   7 000          @R7,7
  28417  0000458A  00000001 USING  ORDINARY    0000458A 00001000 00000001   7 729   29978  $$$603B,7
  28431  0000458A  00000001 USING  ORDINARY    FFFFFFD8 00001000 FFFFFFCF   8 028   29169  SDSWA-(4+36),R8
  28445  0000458C  00000001 USING  ORDINARY    00000000 00001000 FFFFFFDE   5 1A8   29881  SVIB,R5
  29357  00004806  00000001 USING  ORDINARY    00000000 00001000 FFFFFFE9   2 04D   29456  JCB,R2
  29479  0000485E  00000001 USING  ORDINARY    00000000 00001000 FFFFFFFC   2 000          @R2,2
  29565  00004886  00000001 USING  ORDINARY    00000000 00001000 FFFFFFE9   2 048   29591  JCB,R2
  29631  000048BA  00000001 USING  ORDINARY    00000000 00001000 FFFFFFFC   2 000          @R2,2
  29891  00004962  00000001 USING  ORDINARY    00000000 00001000 FFFFFFE9   2 048   29897  JCB,R2
  29904  00004966  00000001 USING  ORDINARY    00000000 00001000 FFFFFFFC   2 001   31156  @R2,2
1QUERY    (QUER2193) (12:52) (15MAR04) Using Map                                                                            Page  215
  29986  00004992  00000001 USING  ORDINARY    00000000 00001000 FFFFFFF9   5 000          @R5,5
  29991  00004992  00000001 USING  ORDINARY    00000000 00001000 FFFFFFF6   8 000          @R8,8
  29996  00004992  00000001 USING  ORDINARY    00000000 00001000 FFFFFFF7   7 000          @R7,7
  30049  000049BA  00000001 USING  ORDINARY    000049BA 00001000 00000001   7 302   30194  $$$632B,7
  30068  000049BC  00000001 USING  ORDINARY    00000000 00001000 FFFFFFDE   5 160   30146  SVIB,R5
  30162  00004A02  00000001 USING  ORDINARY    00000000 00001000 FFFFFFE0   6 004   30183  STRC,R6
  30191  00004A14  00000001 USING  ORDINARY    00000000 00001000 FFFFFFF8   6 000          @R6,6
  30204  00004A18  00000001 USING  ORDINARY    00000000 00001000 FFFFFFF9   5 000          @R5,5
  30209  00004A18  00000001 USING  ORDINARY    00000000 00001000 FFFFFFF7   7 000          @R7,7
  30283  00004A40  00000001 USING  ORDINARY    00004A40 00001000 00000001   7 29C   30786  $$$640B,7
  30297  00004A40  00000001 USING  ORDINARY    FFFFFFD8 00001000 FFFFFFCE   8 02B   30691  SVDTWA-(4+36),R8
  30311  00004A42  00000001 USING  ORDINARY    00000000 00001000 FFFFFFE0   6 01E   30601  STRC,R6
  30796  00004B70  00000001 USING  ORDINARY    00000000 00001000 FFFFFFF8   6 004   32486  @R6,6
  30801  00004B70  00000001 USING  ORDINARY    00000000 00001000 FFFFFFF6   8 000          @R8,8
  30806  00004B70  00000001 USING  ORDINARY    00000000 00001000 FFFFFFF7   7 000          @R7,7
  30958  00004CFC  00000001 USING  ORDINARY    00004CFC 00001000 00000001   7 1D4   31428  $$$653B,7
  30972  00004CFC  00000001 USING  ORDINARY    FFFFFFD8 00001000 FFFFFFCD   8 044   31460  ALLOWA-(4+36),R8
  31018  00004D0C  00000001 USING  ORDINARY    00000000 00001000 FFFFFFDE  15 048   31062  SVIB,R15
  31086  00004D52  00000001 USING  ORDINARY    00000000 00001000 FFFFFFEF  15 000          @R15,15
  31370  00004E70  00000001 USING  ORDINARY    00000000 00001000 FFFFFFDE   5 16C   31464  SVIB,R5
  31444  00004E92  00000001 USING  ORDINARY    00000000 00001000 FFFFFFE9  15 04A   31449  JCB,R15
  31455  00004E9C  00000001 USING  ORDINARY    00000000 00001000 FFFFFFEF  15 000   32195  @R15,15
  31471  00004EAA  00000001 USING  ORDINARY    00000000 00001000 FFFFFFF9   5 000          @R5,5
  31476  00004EAA  00000001 USING  ORDINARY    00000000 00001000 FFFFFFF6   8 000          @R8,8
  31481  00004EAA  00000001 USING  ORDINARY    00000000 00001000 FFFFFFF7   7 000          @R7,7
  31552  00004F0C  00000001 USING  ORDINARY    00004F0C 00001000 00000001   7 AE4   31830  $$$671B,7
  31591  00004F16  00000001 USING  ORDINARY    00000000 00001000 FFFFFFDF   5 000   31596  QINFO,R5
  31606  00004F26  00000001 USING  ORDINARY    00000000 00001000 FFFFFFF9   5 000          @R5,5
  31673  00004F46  00000001 USING  ORDINARY    00000000 00001000 FFFFFFDE   5 168   31695  SVIB,R5
  31709  00004F5A  00000001 USING  ORDINARY    00000000 00001000 FFFFFFF9   5 000          @R5,5
  31785  00004F7E  00000001 USING  ORDINARY    00000000 00001000 FFFFFFDE   5 188   31807  SVIB,R5
  31821  00004F92  00000001 USING  ORDINARY    00000000 00001000 FFFFFFF9   5 000          @R5,5
  31847  00004F9C  00000001 USING  ORDINARY    00000000 00001000 FFFFFFF7   7 000          @R7,7
  31908  00004FC4  00000001 USING  ORDINARY    00004FC4 00001000 00000001   7 ABC   32062  $$$686B,7
  31927  00004FC6  00000001 USING  ORDINARY    00000000 00001000 FFFFFFDE   5 048   32060  SVIB,R5
  32075  00005044  00000001 USING  ORDINARY    00000000 00001000 FFFFFFF9   5 000          @R5,5
  32080  00005044  00000001 USING  ORDINARY    00000000 00001000 FFFFFFF7   7 000          @R7,7
  32170  0000506C  00000001 USING  ORDINARY    0000506C 00001000 00000001   7 A99   33193  $$$694B,7
  32184  0000506C  00000001 USING  ORDINARY    FFFFFFE0 00001000 FFFFFFCC   8 050   33080  OPENWA-(4+28),R8
  32288  000050BE  00000001 USING  ORDINARY    00000000 00001000 FFFFFFDE   5 188   32455  SVIB,R5
  32481  00005132  00000001 USING  ORDINARY    00000000 00001000 FFFFFFF9   5 000          @R5,5
  32539  00005158  00000001 USING  ORDINARY    00000000 00001000 FFFFFFDE  15 1A8   32545  SVIB,R15
  32552  0000515C  00000001 USING  ORDINARY    00000000 00001000 FFFFFFEF  15 000          @R15,15
  33090  000052E2  00000001 USING  ORDINARY    00000000 00001000 FFFFFFDE  15 049   33108  SVIB,R15
  33126  000052F0  00000001 USING  ORDINARY    00000000 00001000 FFFFFFEF  15 000          @R15,15
  33143  000052F8  00000001 USING  ORDINARY    00000000 00001000 FFFFFFDE   5 048   33195  SVIB,R5
  33207  0000533C  00000001 USING  ORDINARY    00000000 00001000 FFFFFFF9   5 000          @R5,5
  33212  0000533C  00000001 USING  ORDINARY    00000000 00001000 FFFFFFF6   8 000          @R8,8
  33217  0000533C  00000001 USING  ORDINARY    00000000 00001000 FFFFFFF7   7 000          @R7,7
  33276  00005364  00000001 USING  ORDINARY    00005364 00001000 00000001   7 7F6   35298  $$$720B,7
  33295  00005366  00000001 USING  ORDINARY    00000000 00001000 FFFFFFDE   5 18C   35267  SVIB,R5
  33499  00005422  00000001 USING  ORDINARY    00000000 00001000 FFFFFFE6   4 1D0   33520  UNET,R4
  33527  00005440  00000001 USING  ORDINARY    00000000 00001000 FFFFFFFA   4 000          @R4,4
  33546  00005444  00000001 USING  ORDINARY    00000000 00001000 FFFFFFE6   4 10C   35122  UNET,R4
  33602  00005464  00000001 USING  ORDINARY    00000000 00001000 FFFFFFDD   3 028   33657  QMW,R3
  33667  00005488  00000001 USING  ORDINARY    00000000 00001000 FFFFFFE9   2 062   33702  JCB,R2
  33751  000054B6  00000001 USING  ORDINARY    00000000 00001000 FFFFFFFC   2 000          @R2,2
  33764  000054B6  00000001 USING  ORDINARY    00000000 00001000 FFFFFFFB   3 004   39625  @R3,3
  33938  0000553E  00000001 USING  ORDINARY    00000000 00001000 FFFFFFE9   2 048   33947  JCB,R2
1QUERY    (QUER2193) (12:52) (15MAR04) Using Map                                                                            Page  216
  33968  0000554E  00000001 USING  ORDINARY    00000000 00001000 FFFFFFFC   2 000          @R2,2
  34699  000057A4  00000001 USING  ORDINARY    00000000 00001000 FFFFFFE9   2 048   34708  JCB,R2
  34729  000057B4  00000001 USING  ORDINARY    00000000 00001000 FFFFFFFC   2 000          @R2,2
  35166  00005902  00000001 USING  ORDINARY    00000000 00001000 FFFFFFFA   4 000          @R4,4
  35169  00005902  00000001 USING  ORDINARY    00000000 00001000 FFFFFFE6   2 164   35269  UNET,R2
  35287  0000595C  00000001 USING  ORDINARY    00000000 00001000 FFFFFFE6   4 000          UNET,4
  35292  0000595C  00000001 USING  ORDINARY    00000000 00001000 FFFFFFFC   2 000          @R2,2
  35311  00005964  00000001 USING  ORDINARY    00000000 00001000 FFFFFFFA   4 000          @R4,4
  35316  00005964  00000001 USING  ORDINARY    00000000 00001000 FFFFFFF9   5 000          @R5,5
  35321  00005964  00000001 USING  ORDINARY    00000000 00001000 FFFFFFF7   7 000          @R7,7
  35473  00005B7A  00000001 USING  ORDINARY    00005B7A 00001000 00000001   7 0FD   35785  $$$758B,7
  35487  00005B7A  00000001 USING  ORDINARY    FFFFFFD8 00001000 FFFFFFCB   8 02C   35782  SVCLWA-(4+36),R8
  35501  00005B7C  00000001 USING  ORDINARY    00000000 00001000 FFFFFFDE   5 18C   35713  SVIB,R5
  35547  00005BA6  00000001 USING  ORDINARY    00000000 00001000 FFFFFFE6  15 10C   35553  UNET,R15
  35560  00005BAA  00000001 USING  ORDINARY    00000000 00001000 FFFFFFEF  15 000          @R15,15
  35799  00005C4A  00000001 USING  ORDINARY    00000000 00001000 FFFFFFF9   5 000          @R5,5
  35804  00005C4A  00000001 USING  ORDINARY    00000000 00001000 FFFFFFF6   8 000          @R8,8
  35809  00005C4A  00000001 USING  ORDINARY    00000000 00001000 FFFFFFF7   7 000          @R7,7
  35891  00005C94  00000001 USING  ORDINARY    00005C94 00001000 00000001   7 344   36253  $$$765B,7
  35910  00005C96  00000001 USING  ORDINARY    00000000 00001000 FFFFFFDE   5 18C   36261  SVIB,R5
  35954  00005CBC  00000001 USING  ORDINARY    00000000 00001000 FFFFFFE6  15 10C   35960  UNET,R15
  35967  00005CC0  00000001 USING  ORDINARY    00000000 00001000 FFFFFFEF  15 000          @R15,15
  36278  00005D9A  00000001 USING  ORDINARY    00000000 00001000 FFFFFFF9   5 000          @R5,5
  36283  00005D9A  00000001 USING  ORDINARY    00000000 00001000 FFFFFFF7   7 000          @R7,7
  36366  00005DC2  00000001 USING  ORDINARY    00005DC2 00001000 00000001   7 225   37026  $$$774B,7
  36380  00005DC2  00000001 USING  ORDINARY    FFFFFFE0 00001000 FFFFFFCA   8 020   36453  SVGLWA-(4+28),R8
  36394  00005DC4  00000001 USING  ORDINARY    00000000 00001000 FFFFFFDE   5 19C   37036  SVIB,R5
  36438  00005DEA  00000001 USING  ORDINARY    00000000 00001000 FFFFFFE6  15 10C   36444  UNET,R15
  36451  00005DEE  00000001 USING  ORDINARY    00000000 00001000 FFFFFFEF  15 000          @R15,15
  36512  00005E12  00000001 USING  ORDINARY    00000000 00001000 FFFFFFE1   1 000   36517  INENTRY,R1
  36555  00005E3A  00000001 USING  ORDINARY    00000000 00001000 FFFFFFFD   1 004   40276  @R1,1
  36945  00005F1E  00000001 USING  ORDINARY    00000000 00001000 FFFFFFE1   2 006   36962  INENTRY,R2
  36969  00005F26  00000001 USING  ORDINARY    00000000 00001000 FFFFFFFC   2 000          @R2,2
  37057  00005F4A  00000001 USING  ORDINARY    00000000 00001000 FFFFFFF9   5 000          @R5,5
  37062  00005F4A  00000001 USING  ORDINARY    00000000 00001000 FFFFFFF6   8 000          @R8,8
  37067  00005F4A  00000001 USING  ORDINARY    00000000 00001000 FFFFFFF7   7 000          @R7,7
  37164  00006004  00000001 USING  ORDINARY    00006004 00001000 00000001   7 D5C   37437  $$$803B,7
  37183  00006006  00000001 USING  ORDINARY    00000000 00001000 FFFFFFDE   5 18C   37217  SVIB,R5
  37227  0000602C  00000001 USING  ORDINARY    00000000 00001000 FFFFFFE6   4 02C   37286  UNET,R4
  37450  000060C6  00000001 USING  ORDINARY    00000000 00001000 FFFFFFFA   4 000          @R4,4
  37455  000060C6  00000001 USING  ORDINARY    00000000 00001000 FFFFFFF9   5 000          @R5,5
  37460  000060C6  00000001 USING  ORDINARY    00000000 00001000 FFFFFFF7   7 000          @R7,7
  37535  000060EE  00000001 USING  ORDINARY    000060EE 00001000 00000001   7 CDB   38837  $$$814B,7
  37549  000060EE  00000001 USING  ORDINARY    FFFFFFD8 00001000 FFFFFFC9   8 028   38834  SVFMWA-(4+36),R8
  37573  000060FA  00000001 USING  ORDINARY    00000000 00001000 FFFFFFDE   5 190   38644  SVIB,R5
  37959  00006212  00000001 USING  ORDINARY    00000000 00001000 FFFFFFE3   2 004   38072  FDE,R2
  38083  00006270  00000001 USING  ORDINARY    00000000 00001000 FFFFFFFC   2 000          @R2,2
  38854  000064F6  00000001 USING  ORDINARY    00000000 00001000 FFFFFFF9   5 000          @R5,5
  38859  000064F6  00000001 USING  ORDINARY    00000000 00001000 FFFFFFF6   8 000          @R8,8
  38864  000064F6  00000001 USING  ORDINARY    00000000 00001000 FFFFFFF7   7 000          @R7,7
  38919  0000651E  00000001 USING  ORDINARY    0000651E 00001000 00000001   7 8C0   39037  $$$849B,7
  38938  00006520  00000001 USING  ORDINARY    00000000 00001000 FFFFFFDE   5 18C   39044  SVIB,R5
  38967  0000652A  00000001 USING  ORDINARY    00000000 00001000 FFFFFFE6  15 10C   38973  UNET,R15
  38980  0000652E  00000001 USING  ORDINARY    00000000 00001000 FFFFFFEF  15 000          @R15,15
  39064  00006556  00000001 USING  ORDINARY    00000000 00001000 FFFFFFF9   5 000          @R5,5
  39069  00006556  00000001 USING  ORDINARY    00000000 00001000 FFFFFFF7   7 000          @R7,7
  39146  0000657E  00000001 USING  ORDINARY    0000657E 00001000 00000001   7 865   39766  $$$854B,7
  39160  0000657E  00000001 USING  ORDINARY    FFFFFFD8 00001000 FFFFFFC8   8 028   39716  FMAPWA-(4+36),R8
  39174  00006580  00000001 USING  ORDINARY    00000000 00001000 FFFFFFDE   5 190   39248  SVIB,R5
1QUERY    (QUER2193) (12:52) (15MAR04) Using Map                                                                            Page  217
  39223  000065AA  00000001 USING  ORDINARY    00000000 00001000 FFFFFFE2   6 190   39739  FDEMAP,R6
  39325  000065EE  00000001 USING  ORDINARY    00000000 00001000 FFFFFFE3   4 004   39380  FDE,R4
  39405  00006614  00000001 USING  ORDINARY    00000000 00001000 FFFFFFFA   4 000          @R4,4
  39490  00006644  00000001 USING  ORDINARY    00000000 00001000 FFFFFFE3   4 004   39545  FDE,R4
  39570  0000666A  00000001 USING  ORDINARY    00000000 00001000 FFFFFFFA   4 000          @R4,4
  39655  0000669A  00000001 USING  ORDINARY    00000000 00001000 FFFFFFE3   4 004   39738  FDE,R4
  39763  000066D6  00000001 USING  ORDINARY    00000000 00001000 FFFFFFFA   4 000          @R4,4
  39779  000066DA  00000001 USING  ORDINARY    00000000 00001000 FFFFFFF8   6 000          @R6,6
  39784  000066DA  00000001 USING  ORDINARY    00000000 00001000 FFFFFFF9   5 000          @R5,5
  39789  000066DA  00000001 USING  ORDINARY    00000000 00001000 FFFFFFF6   8 000          @R8,8
  39794  000066DA  00000001 USING  ORDINARY    00000000 00001000 FFFFFFF7   7 000          @R7,7
  39852  00006702  00000001 USING  ORDINARY    00006702 00001000 00000001   7 69E   40032  $$$883B,7
  39871  00006704  00000001 USING  ORDINARY    00000000 00001000 FFFFFFDE   5 19C   40003  SVIB,R5
  39923  00006736  00000001 USING  ORDINARY    00000000 00001000 FFFFFFE1   4 006   39942  INENTRY,R4
  40053  00006788  00000001 USING  ORDINARY    00000000 00001000 FFFFFFFA   4 000          @R4,4
  40058  00006788  00000001 USING  ORDINARY    00000000 00001000 FFFFFFF9   5 000          @R5,5
  40063  00006788  00000001 USING  ORDINARY    00000000 00001000 FFFFFFF7   7 000          @R7,7
  40145  000067B0  00000001 USING  ORDINARY    000067B0 00001000 00000001   7 63B   40424  $$$891B,7
  40159  000067B0  00000001 USING  ORDINARY    FFFFFFE0 00001000 FFFFFFC7   8 020   40212  READWA-(4+28),R8
  40175  000067B8  00000001 USING  ORDINARY    00000000 00001000 FFFFFFE6   6 000   40191  UNET,R6
  40433  00006874  00000001 USING  ORDINARY    00000000 00001000 FFFFFFF8   6 000          @R6,6
  40438  00006874  00000001 USING  ORDINARY    00000000 00001000 FFFFFFF6   8 000          @R8,8
  40443  00006874  00000001 USING  ORDINARY    00000000 00001000 FFFFFFF7   7 000          @R7,7
  40504  0000689C  00000001 USING  ORDINARY    0000689C 00001000 00000001   7 564   41310  $$$900B,7
  40546  000068B0  00000001 USING  ORDINARY    00000000 00001000 FFFFFFDE   5 18C   41331  SVIB,R5
  40675  00006928  00000001 USING  ORDINARY    00000000 00001000 FFFFFFE6   2 164   40768  UNET,R2
  40782  0000697C  00000001 USING  ORDINARY    00000000 00001000 FFFFFFFC   2 000   41536  @R2,2
  40844  00006996  00000001 USING  ORDINARY    00000000 00001000 FFFFFFE6   4 10C   40966  UNET,R4
  40984  000069FA  00000001 USING  ORDINARY    00000000 00001000 FFFFFFFA   4 000          @R4,4
  41046  00006A1C  00000001 USING  ORDINARY    00000000 00001000 FFFFFFE6   4 10C   41087  UNET,R4
  41112  00006A4C  00000001 USING  ORDINARY    00000000 00001000 FFFFFFFA   4 000          @R4,4
  41208  00006A84  00000001 USING  ORDINARY    00000000 00001000 FFFFFFE6   4 10C   41249  UNET,R4
  41267  00006AB0  00000001 USING  ORDINARY    00000000 00001000 FFFFFFFA   4 000          @R4,4
  41344  00006AD4  00000001 USING  ORDINARY    00000000 00001000 FFFFFFF9   5 000          @R5,5
  41349  00006AD4  00000001 USING  ORDINARY    00000000 00001000 FFFFFFF7   7 000          @R7,7
  41407  00006AFC  00000001 USING  ORDINARY    00006AFC 00001000 00000001   7 5CE   41873  $$$923B,7
  41426  00006AFE  00000001 USING  ORDINARY    00000000 00001000 FFFFFFDE   5 188   41791  SVIB,R5
  41518  00006B44  00000001 USING  ORDINARY    00000000 00001000 FFFFFFE0   6 01E   41641  STRC,R6
  41563  00006B70  00000001 USING  ORDINARY    00000000 00001000 FFFFFFE9  15 04A   41568  JCB,R15
  41574  00006B7C  00000001 USING  ORDINARY    00000000 00001000 FFFFFFEF  15 000          @R15,15
  41732  00006BDC  00000001 USING  ORDINARY    00000000 00001000 FFFFFFF8   6 000          @R6,6
  41735  00006BDC  00000001 USING  ORDINARY    00000000 00001000 FFFFFFE0   1 010   41748  STRC,R1
  41769  00006BEC  00000001 USING  ORDINARY    00000000 00001000 FFFFFFE0   6 000          STRC,6
  41774  00006BEC  00000001 USING  ORDINARY    00000000 00001000 FFFFFFFD   1 000          @R1,1
  41807  00006BFA  00000001 USING  ORDINARY    00000000 00001000 FFFFFFE9   4 062   41842  JCB,R4
  41888  00006C24  00000001 USING  ORDINARY    00000000 00001000 FFFFFFFA   4 000   42540  @R4,4
  41897  00006C24  00000001 USING  ORDINARY    00000000 00001000 FFFFFFF8   6 000          @R6,6
  41908  00006C24  00000001 USING  ORDINARY    00000000 00001000 FFFFFFF9   5 000          @R5,5
  41913  00006C24  00000001 USING  ORDINARY    00000000 00001000 FFFFFFF7   7 000          @R7,7
  42015  00006E0A  00000001 USING  ORDINARY    00000000 00001000 FFFFFFF3  11 000          @R11,11
  42058  00006E24  00000001 USING  ORDINARY    00006E24 00001000 00000001   7 3DC   42219  $$$940B,7
  42077  00006E26  00000001 USING  ORDINARY    00000000 00001000 FFFFFFDE   6 18C   42216  SVIB,R6
  42120  00006E4C  00000001 USING  ORDINARY    00000000 00001000 FFFFFFE6   5 164   42210  UNET,R5
  42236  00006E98  00000001 USING  ORDINARY    00000000 00001000 FFFFFFF9   5 000          @R5,5
  42241  00006E98  00000001 USING  ORDINARY    00000000 00001000 FFFFFFF8   6 000          @R6,6
  42246  00006E98  00000001 USING  ORDINARY    00000000 00001000 FFFFFFF7   7 000          @R7,7
  42300  00006EC0  00000001 USING  ORDINARY    00006EC0 00001000 00000001   7 37C   42782  $$$949B,7
  42319  00006EC2  00000001 USING  ORDINARY    00000000 00001000 FFFFFFDE   5 18C   42779  SVIB,R5
  42616  00006FBA  00000001 USING  ORDINARY    00000000 00001000 FFFFFFE9   4 062   42651  JCB,R4
1QUERY    (QUER2193) (12:52) (15MAR04) Using Map                                                                            Page  218
  42705  00006FEA  00000001 USING  ORDINARY    00000000 00001000 FFFFFFFA   4 000          @R4,4
  42738  00006FFA  00000001 USING  ORDINARY    00000000 00001000 FFFFFFE6   4 024   42764  UNET,R4
  42774  0000701E  00000001 USING  ORDINARY    00000000 00001000 FFFFFFFA   4 000          @R4,4
  42795  0000702A  00000001 USING  ORDINARY    00000000 00001000 FFFFFFF9   5 000          @R5,5
  42800  0000702A  00000001 USING  ORDINARY    00000000 00001000 FFFFFFF7   7 000          @R7,7
  42853  00007052  00000001 USING  ORDINARY    00007052 00001000 00000001   7 1DA   43009  $$$968B,7
  42872  00007054  00000001 USING  ORDINARY    00000000 00001000 FFFFFFDE   5 19C   43018  SVIB,R5
  42969  00007096  00000001 USING  ORDINARY    00000000 00001000 FFFFFFE1   2 000   42996  INENTRY,R2
  43006  000070B2  00000001 USING  ORDINARY    00000000 00001000 FFFFFFFC   2 000          @R2,2
  43025  000070BC  00000001 USING  ORDINARY    00000000 00001000 FFFFFFF9   5 000          @R5,5
  43030  000070BC  00000001 USING  ORDINARY    00000000 00001000 FFFFFFF7   7 000          @R7,7
  43087  000070E4  00000001 USING  ORDINARY    000070E4 00001000 00000001   7 154   43439  $$$976B,7
  43106  000070E6  00000001 USING  ORDINARY    00000000 00001000 FFFFFFDE   5 164   43458  SVIB,R5
  43185  0000711C  00000001 USING  ORDINARY    00000000 00001000 FFFFFFE0   3 004   43201  STRC,R3
  43240  00007132  00000001 USING  ORDINARY    00000000 00001000 FFFFFFFB   3 000          @R3,3
  43322  0000716A  00000001 USING  ORDINARY    00000000 00001000 FFFFFFE0   4 004   43366  STRC,R4
  43383  000071A0  00000001 USING  ORDINARY    00000000 00001000 FFFFFFFA   4 000          @R4,4
  43399  000071A0  00000001 USING  ORDINARY    00000000 00001000 FFFFFFE0   6 004   43436  STRC,R6
  43453  000071E2  00000001 USING  ORDINARY    00000000 00001000 FFFFFFF8   6 000          @R6,6
  43466  000071E8  00000001 USING  ORDINARY    00000000 00001000 FFFFFFF9   5 000          @R5,5
  43471  000071E8  00000001 USING  ORDINARY    00000000 00001000 FFFFFFF7   7 000          @R7,7

1         (QUER2193) (12:52) (15MAR04) General Purpose Register Cross Reference                                             Page  219
- Register  References (M=modified, B=branch, U=USING, D=DROP, N=index)                      HLASM R4.0  2004/03/15 12.52
0    0(0)      982U   983D  2113   2181M  2181   2182M  8383   8492M  8492   8501   8502   8917M  8940M  8958M  9006M
              9031   9101M  9129M  9244M  9244   9281M  9287M  9303M  9326M  9360M  9380M  9392M  9415M  9442M  9467
              9565M  9567M  9605M  9621M  9662M  9680M  9763M  9927M  9929M  9967M  9990M 10031M 10049M 10092M 10141M
             10164M 10195M 10223  10298  10343M 10700M 10723M 10771M 11065  11109  11190M 11210  11254  11335M 11355
             11394  11414M 11434  11478  11559M 11579  11623  11704M 11724  11788M 11808  11872M 11892  11956M 11976
             12015  12035M 12055  12124M 12144  12213M 12233  12302M 12322  12391M 12411  12475M 12605  12672M 12672
             12681  12682  12806M 12847M 12872M 12890M 12915M 12940M 12940  13010M 13032M 13032  13050M 13076M 13083M
             13108M 13151M 13280  13344M 13364  13428M 13448  13512M 13532  13572  13690M 13710  13749  13769M 13823
             13882  14048M 14073M 14091M 14116M 14141M 14141  14237M 14337  14381  14406M 14406  14415  14416  14417
             14444M 14444  14455M 14467  14502M 14520M 14555M 14627M 14649M 14649  14667M 14731M 14754M 14781M 14804M
             14816M 14839M 14871M 14894M 14929M 14929  14947M 14975M 14993M 15021M 15039M 15133M 15133  15177M 15199M
             15217M 15235M 15269M 15440M 15463M 15503M 15531M 15549M 15569  15576M 15599M 15614M 15642  15649M 15664M
             15666  15694M 15717M 15769M 15893  15937  15969M 16002M 16047M 16076M 16106M 16161M 16227M 16227  16290
             16348  16380M 16383  16408M 16453  16542M 16557M 16557  16566  16567  16655M 16655  16699M 16721M 16739M
             16757M 16768M 16813M 16836M 16861M 16861  16899M 16922M 16963M 16991M 17009M 17030  17037M 17065M 17083M
             17098M 17127  17134M 17149M 17168  17175M 17190M 17192  17210M 17228M 17243M 17245M 17286M 17339M 17384
             17437M 17455  17462M 17477M 17496  17503M 17518M 17520  17538M 17556M 17571M 17573M 17612M 17637  17690M
             17710M 17710  17739  17746M 17761M 17780  17787M 17802M 17804  17822M 17840M 17855M 17857M 17895M 17944
             18050M 18050  18059  18060  18097M 18097  18106  18107  18190M 18223M 18245M 18245  18263M 18335M 18357M
             18357  18379M 18379  18473M 18509M 18533M 18555M 18555  18594M 18594  18610M 18631M 18665M 18693  18700M
             18715M 18734  18741M 18756M 18758  18776M 18794M 18809M 18811M 18859M 18972  19024  19105M 19133  19179
             19181M 19183M 19199M 19199  19237M 19237  19285M 19536  19630M 19630  19639  19640  19744M 19766M 19772
             19798M 19813M 19937  19940  19974M 19992M 20025M 20043M 20059M 20206  20230M 20264M 20283M 20330M 20348M
             20348  20355  20362M 20377M 20418M 20418  20443M 20443  20459M 20480M 20514M 20551M 20564M 20598M 20621M
             20665M 20824  20888M 20908  20972M 20992  21057M 21077  21141M 21161  21200  21220M 21240  21279  21299M
             21319  21358  21378M 21408  21588M 21601M 21635M 21692M 21725  21770M 21832M 21856  21876M 21979  22179M
             22201M 22201  22219M 22247M 22263M 22291M 22336  22427M 22427  22436  22437  22481M 22503M 22503  22597M
             22620M 22649M 22649  22667M 22681M 22703M 22703  22727  22734M 22749M 22768  22775M 22790M 22792  22810M
             22828M 22843M 22845M 22888M 22969  23058M 23058  23067  23068  23111M 23147M 23175M 23201M 23201  23251
             23284M 23434M 23456M 23456  23474M 23506M 23524M 23552M 23570M 23613M 23636M 23657M 23657  23707M 23962M
             23962  23999M 23999  24071M 24071  24190  24238M 24260M 24260  24278M 24338M 24391  24455M 24514M 24514
             24589M 24618M 24618  24742M 24762M 24786M 24810M 24891M 24925M 24957M 25096  25135  25179  25198M 25221M
             25222M 25269M 25270M 25287M 25340M 25341M 25342M 25343  25360M 25383M 25384M 25385M 25451M 25515M 25606M
             25606  25641M 25754  25949M 25998  26056M 26100  26150M 26173M 26207M 26256M 26256  26295M 26328  26442M
             26506M 26536  26571M 26591  26608  26667M 26827M 26827  26861M 26893  26940M 26940  26949  26950  26951
             26978M 26978  26989M 27034M 27105  27141M 27141  27150  27151  27152  27179M 27179  27191M 27237  27285M
             27338M 27366M 27388M 27388  27406M 27467M 27490M 27517M 27552  27769M 27804  28036M 28063  28128M 28128
             28144M 28164M 28164  28225M 28279M 28315M 28399  28470  28484M 28509M 28527M 28579M 28617M 28645M 28674M
             28674  28710M 28738M 28773M 28801M 28840M 28868M 28890M 28912M 28912  28947M 28969M 28969  28987M 29040M
             29089M 29138M 29200M 29218M 29289M 29307M 29334M 29369M 29369  29387M 29415M 29433M 29461M 29500M 29574M
             29595M 29595  29613M 29657M 29677M 29701M 29756M 29794M 29832M 29868M 29915M 29915  29937M 29967M 29967
             30004M 30032  30093  30125M 30217M 30265  30340M 30359M 30396M 30420M 30450M 30480M 30498M 30528M 30559M
             30585M 30607  30696M 30723  30730  30749M 30775M 30775  30814M 30940  30991M 30991  31044  31071  31158M
             31180M 31262M 31276M 31277M 31278M 31279M 31280  31355M 31393M 31395M 31489M 31535  31855M 31969M 31997M
             32033M 32058M 32196  32235M 32516M 32611M 32648M 32686M 32686  32704M 32726M 32754M 32779M 32779  32797M
             32841M 32862M 32890M 32908M 32945M 32979M 33001M 33001  33019M 33049M 33049  33098M 33098  33115M 33168
             33320  33348  33375M 33429  33441M 33441  33458M 33729M 33820M 33835  33847M 33852  33902M 33917M 33951M
             33951  33974M 33999M 34014M 34039M 34071M 34097M 34116M 34142M 34157M 34183M 34205M 34205  34227M 34227
             34269M 34295M 34317M 34317  34339M 34339  34385M 34411M 34433M 34433  34455M 34455  34485M 34511M 34533M
             34533  34555M 34555  34617M 34639M 34639  34663M 34678M 34712M 34712  34735M 34760M 34775M 34800M 34832M
             34858M 34877M 34903M 34918M 34944M 34966M 34966  34988M 34988  35044  35194  35299M 35455  35526  35535
             35627M 35649M 35649  35671M 35671  35701  35721M 35754M 35754  35776M 35776  35817M 35935  35993M 36015M
             36015  36052M 36052  36088  36095M 36110M 36158  36165M 36180M 36222M 36244M 36244  36419  36611M 36730
             36763M 36763  36795M 36795  36827M 36827  36962M 36981M 36981  37147  37208  37252  37305  37312M 37327M
             37329  37357M 37367M 37367  37468M 37517  37598  37628M 37651M 37651  37734M 37736  37742M 37755M 37768M
1         (QUER2193) (12:52) (15MAR04) General Purpose Register Cross Reference                                             Page  220
             37768  37778M 37854  37867M 37867  37880M 37887M 37921M 37921  38002M 38005  38017M 38022  38060M 38099M
             38099  38147M 38149  38155M 38168M 38181M 38181  38191M 38262  38268M 38281M 38300  38306M 38319M 38321
             38338M 38353M 38366M 38368M 38458  38464M 38477M 38496  38502M 38515M 38517  38534M 38549M 38562M 38564M
             38646  38652M 38665M 38684  38690M 38703M 38705  38722M 38737M 38750M 38752M 38797  38803M 38816M 38872M
             38902  39006M 39028M 39028  39077M 39128  39199  39209  39242M 39367  39374  39532  39539  39697  39802M
             39835  39896  39906  39908M 39954M 39956M 40071M 40277M 40293M 40318  40322  40329M 40349M 40349  40364M
             40390M 40412M 40412  40425M 40487  40571  40599  40629  40700  40871M 40895M 40895  40934M 40958M 40958
             41055M 41079M 41079  41217M 41241M 41241  41357M 41390  41451  41482  41494M 41501  41503M 41534  41616M
             41618M 41869M 41921M 42041  42102  42145  42254M 42283  42344  42372  42492  42523  42678M 42808M 42836
             42897  43038M 43070  43131  43246  43347  43425  43479M
     1(1)      978U  2113   2176M  2177M  2183M  8383   8488M  8501N  8502N  8504N  8876   8916M  8939M  8957M  9006M
              9031   9100M  9128M  9280M  9302M  9325M  9359M  9379M  9391M  9414M  9442M  9467   9566M  9567M  9604M
              9620M  9661M  9679M  9762M  9905   9928M  9929M  9966M  9989M 10030M 10048M 10091M 10140M 10163M 10195M
             10223  10298  10342M 10658M 10659M 10659  10699M 10722M 10771M 11065  11190M 11210  11335M 11355  11414M
             11434  11559M 11579  11704M 11724  11788M 11808  11872M 11892  11956M 11976  12035M 12055  12124M 12144
             12213M 12233  12302M 12322  12391M 12411  12475M 12605  12668M 12681N 12682N 12684N 12805M 12846M 12865M
             12889M 12908M 13009M 13028M 13049M 13077M 13084M 13107M 13151M 13280  13344M 13364  13428M 13448  13512M
             13532  13690M 13710  13769M 13823  13883  14047M 14066M 14090M 14109M 14237M 14337  14381  14402M 14415N
             14416N 14417N 14455M 14501M 14519M 14554M 14626M 14645M 14666M 14730M 14753M 14780M 14803M 14815M 14838M
             14870M 14893M 14925M 14946M 14970M 14992M 15016M 15038M 15069M 15129M 15172M 15198M 15216M 15234M 15248
             15268M 15439M 15462M 15502M 15526M 15548M 15569  15575M 15598M 15614M 15642  15648M 15664M 15666  15694M
             15716M 15769M 15893  15937  15964M 16001M 16046M 16075M 16105M 16131M 16144  16161M 16225M 16225  16341M
             16348  16380M 16383  16408M 16453  16541M 16553M 16566N 16567N 16569N 16591M 16651M 16694M 16720M 16738M
             16756M 16764  16782U 16796  16803U 16812M 16835M 16898M 16921M 16962M 16986M 17008M 17030  17036M 17060M
             17082M 17098M 17127  17133M 17149M 17168  17174M 17190M 17192  17227M 17243M 17244M 17285M 17339M 17384
             17436M 17455  17461M 17477M 17496  17502M 17518M 17520  17555M 17571M 17572M 17612M 17637  17689M 17739
             17745M 17761M 17780  17786M 17802M 17804  17839M 17855M 17856M 17895M 17944  18046M 18059N 18060N 18062N
             18093M 18106N 18107N 18109N 18189M 18222M 18241M 18262M 18302M 18311  18334M 18391M 18474M 18510M 18534M
             18590M 18609M 18664M 18693  18699M 18715M 18734  18740M 18756M 18758  18793M 18809M 18810M 18859M 18972
             19105M 19133  19182M 19285M 19536  19626M 19639N 19640N 19642N 19737M 19738M 19738  19745M 19765M 19793M
             19937  19939  19969M 19991M 20020M 20042M 20059M 20206  20229M 20263M 20283M 20329M 20355  20361M 20377M
             20439M 20458M 20513M 20550M 20597M 20620M 20665M 20824  20888M 20908  20972M 20992  21057M 21077  21141M
             21161  21220M 21240  21299M 21319  21378M 21408  21587M 21634M 21692M 21725  21769M 21831M 21856  21876M
             21979  22139M 22178M 22197M 22218M 22242M 22262M 22291M 22336  22409M 22418  22423M 22436N 22437N 22439N
             22480M 22522M 22557M 22596M 22619M 22645M 22666M 22680M 22715M 22727  22733M 22749M 22768  22774M 22790M
             22792  22827M 22843M 22844M 22888M 22969  23054M 23067N 23068N 23070N 23116  23146M 23170M 23251  23283M
             23368M 23433M 23452M 23473M 23505M 23523M 23547M 23569M 23612M 23635M 23653M 23706M 24190  24237M 24256M
             24277M 24338M 24391  24455M 24516M 24516  24584M 24620M 24620  24741M 24761M 24785M 24809M 24890M 24924M
             24956M 25096  25135  25179  25198M 25287M 25360M 25450M 25515M 25602M 25754  25949M 25998  26055M 26100
             26149M 26172M 26206M 26228M 26238U 26251U 26295M 26328  26441M 26505M 26570M 26590  26666M 26861M 26893
             26936M 26949N 26950N 26951N 26988M 27034M 27105  27137M 27150N 27151N 27152N 27190M 27284M 27337M 27365M
             27384M 27405M 27466M 27489M 27517M 27552  27687M 27688M 27688  27719  27745  27769M 27804  27939M 27940M
             27940  27952  27986  28012  28036M 28063  28124M 28143M 28220M 28278M 28315M 28399  28470  28483M 28502M
             28526M 28574M 28640M 28709M 28733M 28772M 28796M 28839M 28863M 28889M 28908M 28946M 28965M 28986M 29039M
             29088M 29137M 29193M 29217M 29282M 29306M 29333M 29365M 29386M 29410M 29432M 29456M 29499M 29573M 29591M
             29612M 29656M 29676M 29700M 29755M 29793M 29831M 29867M 29911M 29936M 30004M 30032  30093  30124M 30217M
             30265  30339M 30359M 30395M 30413M 30443M 30473M 30497M 30521M 30554M 30581M 30691M 30729  30814M 30940
             31044  31071  31163  31164  31165  31179M 31179  31180M 31181M 31182M 31183  31261M 31360  31394M 31395M
             31489M 31535  31596M 31855M 31917  31968M 31996M 32005M 32020M 32034M 32059M 32197  32234M 32401M 32515M
             32610M 32647M 32682M 32703M 32725M 32749M 32796M 32861M 32885M 32907M 32944M 32978M 32997M 33018M 33168
             33184M 33195M 33285  33320  33348  33374M 33429  33485  33723M 33811M 33819M 33901M 33916M 33947M 33973M
             33994M 34013M 34034M 34070M 34092M 34115M 34137M 34156M 34178M 34239M 34268M 34290M 34351M 34384M 34406M
             34467M 34484M 34506M 34567M 34616M 34651M 34662M 34677M 34708M 34734M 34755M 34774M 34795M 34831M 34853M
             34876M 34898M 34917M 34939M 35000M 35044  35194  35299M 35455  35526  35535  35553M 35562  35588M 35626M
             35683M 35701  35721M 35817M 35935  35992M 36034M 36088  36094M 36110M 36158  36164M 36180M 36221M 36419
             36444M 36453  36496M 36497M 36497  36512U 36555U 36606M 36958M 37147  37208  37252  37305  37311M 37327M
             37329  37357M 37468M 37517  37598  37626M 37733M 37736  37741M 37755M 37777M 37854  37880M 37886M 38032M
             38059M 38146M 38149  38154M 38168M 38190M 38262  38267M 38281M 38300  38305M 38319M 38321  38352M 38366M
             38367M 38458  38463M 38477M 38496  38501M 38515M 38517  38548M 38562M 38563M 38646  38651M 38665M 38684
1         (QUER2193) (12:52) (15MAR04) General Purpose Register Cross Reference                                             Page  221
             38689M 38703M 38705  38736M 38750M 38751M 38797  38802M 38816M 38872M 38902  39005M 39077M 39128  39199
             39208  39247  39802M 39835  39896  39905  39913  39955M 39956M 40071M 40276M 40292M 40318  40321  40328M
             40345M 40363M 40385M 40425M 40487  40571  40599  40629  40700  40870M 40915M 40933M 40972M 41054M 41100M
             41159M 41216M 41255M 41357M 41390  41451  41500  41508  41534  41617M 41618M 41717M 41735U 41774U 41863M
             41921M 42041  42102  42145  42254M 42283  42344  42372  42492  42523  42563M 42564M 42564  42672M 42757M
             42779M 42808M 42836  42897  42917M 42918M 42918  42996M 43038M 43070  43131  43140  43246  43347  43425
             43436M 43479M
     2(2)      974U  2113   8383   9006M  9031   9442M  9467   9543M  9565   9711U  9738U  9777   9905M  9927  10106
             10195M 10223  10298  10771M 11065  11190M 11210  11335M 11355  11414M 11434  11559M 11579  11704M 11724
             11788M 11808  11872M 11892  11956M 11976  12035M 12055  12124M 12144  12213M 12233  12302M 12322  12391M
             12411  12475M 12605  13151M 13280  13344M 13364  13428M 13448  13512M 13532  13631M 13690M 13710  13769M
             13823  14237M 14337  14907M 14917U 15046U 15318M 15769M 15893  15969  16289M 16294  16296  16408M 16453
             17339M 17384  17612M 17637  17895M 17944  18859M 18972  19105M 19133  19285M 19536  19940M 19954  20006M
             20025  20089M 20665M 20824  20888M 20908  20972M 20992  21057M 21077  21141M 21161  21220M 21240  21299M
             21319  21378M 21408  21567M 21692M 21725  21876M 21979  22291M 22336  22888M 22969  23218M 23228U 23246U
             23251  23272M 23273M 23273  23313M 23367  24157M 24167U 24185U 24190  24338M 24391  24455M 24485  24650M
             24682  24977M 25096  25137  25161M 25178  25343M 25384  25515M 25586M 25586  25619M 25619  25644M 25661M
             25661  25683M 25754  25949M 25998  26100  26295M 26328  26591M 26746  26758M 26766M 26775M 26775  26782
             26861M 26893  27034M 27105  27212M 27293M 27294M 27294  27307M 27307  27327M 27327  27345  27384  27517M
             27552  27769M 27804  28036M 28063  28315M 28399  28470  29347M 29357U 29479U 29529M 29530M 29530  29547
             29565U 29631U 29881M 29891U 29904U 30004M 30032  30093  30217M 30265  30607M 30610  30622M 30627  30696
             30814M 30940  31044  31071  31154M 31155M 31156M 31157M 31158  31178  31182  31205M 31206M 31206  31284M
             31296  31303M 31308  31489M 31535  31855M 31891  32088M 32152  32545M 32562M 32562  32579  33168  33225M
             33259  33320  33348  33429  33650M 33651M 33651  33667U 33714  33751U 33928M 33938U 33968U 34689M 34699U
             34729U 35139M 35140M 35140  35169U 35194  35292U 35329M 35455  35526  35817M 35874  35935  36291M 36348
             36419  36516M 36523  36532M 36532  36539  36935M 36945U 36969U 37075M 37147  37208  37252  37468M 37517
             37560  37598  37629M 37899M 37937M 37938M 37938  37959U 37983  37985M 37996M 37996  38002  38022M 38054M
             38072M 38083U 38872M 38902  39077M 39128  39199  39209M 39274M 39274  39296M 39441  39461M 39606  39626M
             39802M 39835  39896  39906M 39934  39947  39960M 39961M 39961  39991  40071M 40127  40318  40320M 40345
             40425M 40451M 40487  40571  40599  40629  40653M 40654M 40654  40675U 40700  40782U 41357M 41390  41451
             41651M 41652M 41652  41682  41921M 42041  42102  42145  42254M 42283  42344  42372  42492  42523  42808M
             42836  42897  42953M 42954M 42954  42969U 43006U 43038M 43070  43131  43246  43347  43425  43479M
     3(3)      970U  2113   8383   9006M  9031   9442M  9467  10195M 10223  10298  10771M 11065  11190M 11210  11335M
             11355  11414M 11434  11559M 11579  11704M 11724  11788M 11808  11872M 11892  11956M 11976  12035M 12055
             12124M 12144  12213M 12233  12302M 12322  12391M 12411  12475M 12605  13151M 13280  13344M 13364  13428M
             13448  13512M 13532  13690M 13710  13769M 13823  14237M 14337  15769M 15893  15964  16289M 16341  16408M
             16453  17339M 17384  17612M 17637  17895M 17944  18859M 18972  19105M 19133  19285M 19536  19939M 19969
             20005M 20020  20665M 20824  20888M 20908  20972M 20992  21057M 21077  21141M 21161  21220M 21240  21299M
             21319  21378M 21408  21692M 21725  21876M 21979  22045M 22045  22110M 22110  22134  22152M 22291M 22336
             22888M 22969  23251  23305M 23313  23331U 23345M 23346M 23346  23361  23394U 23588M 23589M 23589  23604U
             23678U 23796M 23809  23864M 24190  24338M 24391  24455M 24485  24650M 24682  24977M 25096  25161M 25178
             25515M 25602  25642M 25681M 25754  25949M 25998  26100  26295M 26328  26590M 26861M 26893  27034M 27105
             27517M 27552  27661M 27662M 27663M 27664M 27679  27726M 27769M 27804  27913M 27914M 27915M 27916M 27931
             27993M 28036M 28063  28315M 28399  28470  30004M 30032  30093  30217M 30265  30666M 30814M 30940  31044
             31071  31165M 31173  31489M 31535  31855M 31891  32088M 32152  33168  33225M 33259  33320  33348  33429
             33585M 33602U 33616M 33617M 33617  33764U 35194  35329M 35455  35526  35817M 35874  35935  36291M 36348
             36419  37075M 37147  37208  37252  37468M 37517  37598  38872M 38902  39077M 39128  39199  39208M 39294M
             39460M 39625M 39802M 39835  39896  39905M 39954  40071M 40127  40318  40321M 40385  40425M 40451M 40487
             40571  40599  40629  40700  41357M 41390  41451  41501M 41581  41593M 41598  41611  41921M 42041  42102
             42145  42254M 42283  42344  42372  42492  42523  42808M 42836  42897  43038M 43070  43131  43175M 43185U
             43201M 43202M 43202  43218  43228  43240U 43246  43347  43425  43479M
     4(4)      966U  2113   8383   9006M  9031   9442M  9467  10195M 10223  10298  10357M 10357  10394M 10417M 10440M
             10463M 10486M 10509M 10543M 10571M 10598M 10626M 10675M 10689M 10689  10771M 11065  11190M 11210  11335M
             11355  11414M 11434  11559M 11579  11704M 11724  11788M 11808  11872M 11892  11956M 11976  12035M 12055
             12124M 12144  12213M 12233  12302M 12322  12391M 12411  12475M 12605  13151M 13280  13344M 13364  13428M
             13448  13512M 13532  13690M 13710  13769M 13823  13934M 13935M 13935  13950U 14197U 14237M 14337  15769M
             15893  15938  16408M 16453  17339M 17384  17612M 17637  17895M 17944  18859M 18972  19105M 19133  19285M
             19536  20665M 20824  20888M 20908  20972M 20992  21057M 21077  21141M 21161  21220M 21240  21299M 21319
             21378M 21408  21692M 21725  21876M 21979  22046M 22063U 22077M 22078M 22078  22152  22158U 22291M 22336
1         (QUER2193) (12:52) (15MAR04) General Purpose Register Cross Reference                                             Page  222
             22888M 22969  23116M 23126U 23140  23251  23328U 23361  23389U 23406U 23740M 23756U 23770M 23771M 23771
             23784  23790U 23797M 23809  23880M 23896U 23910M 23911M 23911  24053U 24190  24338M 24391  24455M 24485
             24650M 24682  24977M 25096  25515M 25552  25707M 25754  25949M 25998  26100  26295M 26328  26861M 26893
             27034M 27105  27517M 27552  27595M 27596M 27611  27618M 27635  27661  27769M 27804  27847M 27848M 27863
             27870M 27887  27913  28036M 28063  28315M 28399  28470  30004M 30032  30093  30217M 30265  30814M 30940
             31044  31071  31189M 31215M 31227  31234M 31251  31276  31489M 31535  31855M 31891  32088M 32152  33168
             33225M 33259  33320  33348  33429  33489M 33499U 33527U 33536M 33546U 35166U 35194  35287U 35311U 35329M
             35455  35526  35817M 35874  35935  35960M 35999  36021  36228  36250  36291M 36348  36419  37075M 37147
             37208  37217M 37227U 37252  37450U 37468M 37517  37598  38872M 38902  38973M 39012  39034  39077M 39128
             39199  39297M 39325U 39380M 39391  39405U 39462M 39490U 39545M 39556  39570U 39627M 39655U 39738M 39749
             39763U 39802M 39835  39896  39913M 39923U 39973  39974  39991  39992  40053U 40071M 40127  40318  40322M
             40390  40425M 40451M 40487  40571  40599  40629  40700  40822M 40823M 40823  40844U 40984U 41024M 41025M
             41025  41046U 41112U 41140M 41141M 41141  41186M 41187M 41187  41208U 41267U 41357M 41390  41451  41500M
             41616  41791M 41792M 41792  41807U 41854  41888U 41921M 42041  42102  42145  42254M 42283  42344  42372
             42381M 42395  42409  42415M 42416M 42417M 42447  42461  42467M 42468M 42469M 42492  42523  42600M 42601M
             42601  42616U 42663  42705U 42716M 42717M 42717  42738U 42774U 42808M 42836  42897  43038M 43070  43131
             43173M 43173  43228M 43246  43262M 43262  43322U 43347  43373  43383U 43425  43479M
     5(5)      962U  2113   8383   8445M  8455U  8869M  8876M  8983U  9006M  9031   9066U  9429U  9442M  9467   9502U
              9551   9708U  9733U  9913  10182U 10195M 10223  10263M 10273U 10298  10753U 10771M 11065  11190M 11210
             11335M 11355  11414M 11434  11559M 11579  11704M 11724  11788M 11808  11872M 11892  11956M 11976  12035M
             12055  12124M 12144  12213M 12233  12302M 12322  12391M 12411  12475M 12605  12732M 12742U 12989U 13151M
             13280  13344M 13364  13428M 13448  13512M 13532  13690M 13710  13769M 13823  13887M 13888M 13888  13919
             14202M 14237M 14337  14383M 14393U 14674M 15248M 15751U 15769M 15893  15938  15942M 15952U 16054M 16144M
             16390U 16408M 16453  16498M 16508U 16764M 17321U 17339M 17384  17417M 17427U 17599U 17612M 17637  17670M
             17680U 17882U 17895M 17944  18270M 18280U 18284  18836U 18859M 18972  19105M 19133  19285M 19536  19607M
             19617U 20642U 20665M 20824  20888M 20908  20972M 20992  21057M 21077  21141M 21161  21220M 21240  21299M
             21319  21378M 21408  21434M 21444U 21679U 21692M 21725  21777M 21787U 21863U 21876M 21979  22022M 22032U
             22273U 22291M 22336  22379M 22389U 22870U 22888M 22969  23030M 23040U 23251  23481M 24190  24285M 24315U
             24338M 24391  24455M 24485  24521M 24522M 24522  24543U 24631U 24650M 24682  24818M 24819M 24819  24840U
             24901U 24977M 25096  25515M 25552  25707M 25754  25780M 25810  25824  25830M 25831M 25832M 25880  25894
             25900M 25901M 25902M 25949M 25998  26065M 26075U 26100  26277U 26295M 26328  26354M 26364U 26848U 26861M
             26893  26919M 26929U 27021U 27034M 27105  27413M 27423U 27504U 27517M 27552  27578M 27588U 27756U 27769M
             27804  27830M 27840U 28023U 28036M 28063  28089M 28099U 28302U 28315M 28399  28435M 28445U 28470  29986U
             30004M 30032  30058M 30068U 30093  30204U 30217M 30265  30814M 30940  31044  31071  31360M 31370U 31381
             31462  31471U 31489M 31535  31575M 31576M 31576  31591U 31606U 31651M 31652M 31652  31673U 31709U 31763M
             31764M 31764  31785U 31821U 31855M 31891  31917M 31927U 31977M 32075U 32088M 32152  32266M 32267M 32267
             32288U 32369  32481U 33133M 33143U 33168  33207U 33225M 33259  33285M 33295U 33320  33348  33429  33504
             35194  35316U 35329M 35455  35491M 35501U 35526  35799U 35817M 35874  35900M 35910U 35935  36278U 36291M
             36348  36384M 36394U 36419  37057U 37075M 37147  37173M 37183U 37208  37252  37455U 37468M 37517  37563M
             37573U 37598  38854U 38872M 38902  38928M 38938U 39064U 39077M 39128  39164M 39174U 39199  39784U 39802M
             39835  39861M 39871U 39896  40058U 40071M 40127  40451M 40487  40536M 40546U 40571  40599  40629  40700
             41344U 41357M 41390  41416M 41426U 41451  41908U 41921M 42041  42102  42110M 42120U 42145  42236U 42254M
             42283  42309M 42319U 42344  42372  42492  42514  42523  42795U 42808M 42836  42862M 42872U 42897  43025U
             43038M 43070  43096M 43106U 43131  43246  43347  43425  43466U 43479M
     6(6)      958U  2113   8383   8428M  8438U  8988U  9006M  9031   9076U  9424U  9442M  9467   9512U 10177U 10195M
             10223  10258U 10298  10758U 10771M 11065  11100U 11177U 11190M 11210  11245U 11322U 11335M 11355  11390U
             11401U 11414M 11434  11469U 11546U 11559M 11579  11614U 11691U 11704M 11724  11759U 11775U 11788M 11808
             11843U 11859U 11872M 11892  11927U 11943U 11956M 11976  12011U 12022U 12035M 12055  12090U 12111U 12124M
             12144  12179U 12200U 12213M 12233  12268U 12289U 12302M 12322  12357U 12378U 12391M 12411  12446U 12462U
             12475M 12605  12641M 12651U 13133U 13151M 13280  13315U 13331U 13344M 13364  13399U 13415U 13428M 13448
             13483U 13499U 13512M 13532  13567U 13677U 13690M 13710  13745U 13756U 13769M 13823  13877U 14219U 14237M
             14337  15769M 15893  16408M 16453  17339M 17384  17612M 17637  17895M 17944  17980M 17990U 18002  18841U
             18859M 18972  19007U 19092U 19105M 19133  19159M 19169U 19272U 19285M 19536  19572M 19582U 19826  20647U
             20665M 20824  20859U 20875U 20888M 20908  20943U 20959U 20972M 20992  21027U 21044U 21057M 21077  21112U
             21128U 21141M 21161  21196U 21207U 21220M 21240  21275U 21286U 21299M 21319  21354U 21365U 21378M 21408
             21449M 21459U 21674U 21692M 21725  21876M 21979  22291M 22336  22888M 22969  23005M 23015U 23251  24190
             24320U 24338M 24391  24426U 24442U 24455M 24485  24650M 24682  24977M 25096  25137M 25156U 25480M 25490U
             25515M 25552  25707M 25754  25949M 25998  26100  26295M 26328  26861M 26893  27034M 27105  27517M 27552
             27769M 27804  28036M 28063  28315M 28399  28470  30004M 30032  30093  30146M 30162U 30176M 30177M 30177
1         (QUER2193) (12:52) (15MAR04) General Purpose Register Cross Reference                                             Page  223
             30191U 30217M 30265  30301M 30311U 30796U 30814M 30940  31044  31071  31489M 31535  31623M 31624M 31624
             31643  31714M 31729M 31730M 31730  31755  31826M 31855M 31891  32088M 32152  32219M 32220M 32220  32258
             32486M 33168  33225M 33259  33320  33348  33429  35194  35329M 35455  35526  35817M 35874  35935  36291M
             36348  36419  37075M 37147  37208  37252  37468M 37517  37598  38872M 38902  39077M 39128  39199  39213M
             39223U 39236M 39236  39247M 39248  39779U 39802M 39835  39896  40071M 40127  40165M 40175U 40433U 40451M
             40487  40571  40599  40629  40700  41357M 41390  41451  41508M 41518U 41664  41665  41682  41683  41732U
             41769U 41897U 41921M 42041  42067M 42077U 42102  42145  42241U 42254M 42283  42344  42372  42492  42523
             42808M 42836  42897  43038M 43070  43131  43140M 43149M 43149  43218  43246  43268  43347  43355  43399U
             43425  43453U 43479M
     7(7)      954U  2106M  2106   2107B  2113   2119B  8383   8389M  8401U  8998U  9006M  9031   9036M  9048U  9434U
              9442M  9467   9472M  9484U 10187U 10195M 10223  10228M 10240U 10298  10763U 10771M 11065  11070M 11082U
             11182U 11190M 11210  11215M 11227U 11327U 11335M 11355  11360M 11372U 11406U 11414M 11434  11439M 11451U
             11551U 11559M 11579  11584M 11596U 11696U 11704M 11724  11729M 11741U 11780U 11788M 11808  11813M 11825U
             11864U 11872M 11892  11897M 11909U 11948U 11956M 11976  11981M 11993U 12027U 12035M 12055  12060M 12072U
             12116U 12124M 12144  12149M 12161U 12205U 12213M 12233  12238M 12250U 12294U 12302M 12322  12327M 12339U
             12383U 12391M 12411  12416M 12428U 12467U 12475M 12605  12611M 12623U 13143U 13151M 13280  13285M 13297U
             13336U 13344M 13364  13369M 13381U 13420U 13428M 13448  13453M 13465U 13504U 13512M 13532  13537M 13549U
             13682U 13690M 13710  13715M 13727U 13761U 13769M 13823  13829M 13841U 14229U 14237M 14337  14343M 14355U
             15761U 15769M 15893  15899M 15911U 16400U 16408M 16453  16459M 16471U 17331U 17339M 17384  17389M 17401U
             17604U 17612M 17637  17642M 17654U 17887U 17895M 17944  17950M 17962U 18851U 18859M 18972  18977M 18989U
             19097U 19105M 19133  19138M 19150U 19277U 19285M 19536  19542M 19554U 20657U 20665M 20824  20829M 20841U
             20880U 20888M 20908  20913M 20925U 20964U 20972M 20992  20997M 21009U 21049U 21057M 21077  21082M 21094U
             21133U 21141M 21161  21166M 21178U 21212U 21220M 21240  21245M 21257U 21291U 21299M 21319  21324M 21336U
             21370U 21378M 21408  21413M 21425U 21684U 21692M 21725  21730M 21742U 21868U 21876M 21979  21985M 21997U
             22283U 22291M 22336  22342M 22354U 22880U 22888M 22969  22975M 22987U 23251  24190  24330U 24338M 24391
             24396M 24408U 24447U 24455M 24485  24490M 24502U 24642U 24650M 24682  24687M 24699U 24969U 24977M 25096
             25102M 25114U 25507U 25515M 25552  25557M 25569U 25699U 25707M 25754  25759M 25771U 25941U 25949M 25998
             26004M 26016U 26100  26287U 26295M 26328  26333M 26345U 26853U 26861M 26893  26898M 26910U 27026U 27034M
             27105  27110M 27122U 27509U 27517M 27552  27557M 27569U 27761U 27769M 27804  27809M 27821U 28028U 28036M
             28063  28068M 28080U 28307U 28315M 28399  28405M 28417U 28470  29996U 30004M 30032  30037M 30049U 30093
             30209U 30217M 30265  30271M 30283U 30806U 30814M 30940  30946M 30958U 31044  31071  31481U 31489M 31535
             31540M 31552U 31847U 31855M 31891  31896M 31908U 32080U 32088M 32152  32158M 32170U 33168  33217U 33225M
             33259  33264M 33276U 33320  33348  33429  35194  35321U 35329M 35455  35461M 35473U 35526  35809U 35817M
             35874  35879M 35891U 35935  36283U 36291M 36348  36354M 36366U 36419  37067U 37075M 37147  37152M 37164U
             37208  37252  37460U 37468M 37517  37523M 37535U 37598  38864U 38872M 38902  38907M 38919U 39069U 39077M
             39128  39134M 39146U 39199  39794U 39802M 39835  39840M 39852U 39896  40063U 40071M 40127  40133M 40145U
             40443U 40451M 40487  40492M 40504U 40571  40599  40629  40700  41349U 41357M 41390  41395M 41407U 41451
             41913U 41921M 42041  42046M 42058U 42102  42145  42246U 42254M 42283  42288M 42300U 42344  42372  42492
             42523  42800U 42808M 42836  42841M 42853U 42897  43030U 43038M 43070  43075M 43087U 43131  43246  43347
             43425  43471U 43479M
     8(8)      950U  2113   8383   8385M  8415U  8993U  9002   9006M  9031   9032M  9438   9442M  9467   9468M 10191
             10195M 10223  10224M 10298  10767  10771M 11065  11066M 11186  11190M 11210  11211M 11331  11335M 11355
             11356M 11410  11414M 11434  11435M 11555  11559M 11579  11580M 11700  11704M 11724  11725M 11784  11788M
             11808  11809M 11868  11872M 11892  11893M 11952  11956M 11976  11977M 12031  12035M 12055  12056M 12120
             12124M 12144  12145M 12209  12213M 12233  12234M 12298  12302M 12322  12323M 12387  12391M 12411  12412M
             12471  12475M 12605  12607M 12637U 13138U 13147  13151M 13280  13281M 13340  13344M 13364  13365M 13424
             13428M 13448  13449M 13508  13512M 13532  13533M 13686  13690M 13710  13711M 13765  13769M 13823  13825M
             13855U 14224U 14233  14237M 14337  14339M 14369U 15756U 15765  15769M 15893  15895M 15925U 16383  16395U
             16404  16408M 16453  16455M 16485U 17326U 17335  17339M 17384  17385M 17608  17612M 17637  17638M 17891
             17895M 17944  17946M 17976U 18846U 18855  18859M 18972  18973M 19101  19105M 19133  19134M 19281  19285M
             19536  19538M 19568U 20652U 20661  20665M 20824  20825M 20884  20888M 20908  20909M 20968  20972M 20992
             20993M 21053  21057M 21077  21078M 21137  21141M 21161  21162M 21216  21220M 21240  21241M 21295  21299M
             21319  21320M 21374  21378M 21408  21409M 21688  21692M 21725  21726M 21856  21872  21876M 21979  21981M
             22011U 22278U 22287  22291M 22336  22338M 22368U 22875U 22884  22888M 22969  22971M 23001U 23251  24190
             24325U 24334  24338M 24391  24392M 24451  24455M 24485  24486M 24646  24650M 24682  24683M 24973  24977M
             25096  25098M 25128U 25502U 25511  25515M 25552  25553M 25703  25707M 25754  25755M 25945  25949M 25998
             26000M 26030U 26100  26282U 26291  26295M 26328  26329M 26857  26861M 26893  26894M 27030  27034M 27105
             27106M 27513  27517M 27552  27553M 27745N 27765  27769M 27804  27805M 28012N 28032  28036M 28063  28064M
             28311  28315M 28399  28401M 28431U 28470  29991U 30000  30004M 30032  30033M 30093  30213  30217M 30265
1         (QUER2193) (12:52) (15MAR04) General Purpose Register Cross Reference                                             Page  224
             30267M 30297U 30801U 30810  30814M 30940  30942M 30972U 31044  31071  31476U 31485  31489M 31535  31536M
             31851  31855M 31891  31892M 32084  32088M 32152  32154M 32184U 33168  33212U 33221  33225M 33259  33260M
             33320  33348  33429  35194  35325  35329M 35455  35457M 35487U 35526  35701  35804U 35813  35817M 35874
             35875M 35935  36287  36291M 36348  36350M 36380U 36419  37062U 37071  37075M 37147  37148M 37208  37252
             37464  37468M 37517  37519M 37549U 37598  38859U 38868  38872M 38902  38903M 39073  39077M 39128  39130M
             39160U 39199  39789U 39798  39802M 39835  39836M 39896  40067  40071M 40127  40129M 40159U 40438U 40447
             40451M 40487  40488M 40571  40599  40629  40700  41353  41357M 41390  41391M 41451  41917  41921M 42041
             42042M 42102  42145  42250  42254M 42283  42284M 42344  42372  42492  42523  42804  42808M 42836  42837M
             42897  43034  43038M 43070  43071M 43131  43246  43347  43425  43475  43479M
     9(9)      946U  2113  10298  23251  24190  26100  28470  30093  31044  31071  33168  33320  33348  33429  35194
             35526  35935  36419  37208  37252  37598  39199  39896  40571  40599  40629  40700  41451  42102  42145
             42344  42372  42492  42523  42897  43131  43246  43347  43425
    10(A)      942U  2113  10298  23251  24190  26100  28470  30093  31044  31071  33168  33320  33348  33429  35194
             35526  35935  36419  37208  37252  37598  39199  39896  40571  40599  40629  40700  41451  42102  42145
             42344  42372  42492  42523  42897  43131  43246  43347  43425
    11(B)      938U  1177U  2113  10298  23251  24190  26100  28470  30093  31044  31071  33168  33320  33348  33429
             35194  35526  35935  36419  37208  37252  37598  39199  39896  40571  40599  40629  40700  41451  42015U
             42102  42145  42344  42372  42492  42523  42897  43131  43246  43347  43425
    12(C)      934U  1186U  2113  10298  23251  24190  26100  28470  30093  31044  31071  33168  33320  33348  33429
             35194  35526  35935  36419  37208  37252  37598  39199  39896  40571  40599  40629  40700  41451  42102
             42145  42344  42372  42492  42523  42897  43131  43246  43347  43425
    13(D)      930U  2113   8380   8383   8385   8386M  8386   8496   8497   8498   8500M  8500   8513M  8514   8515
              8516   9002M  9006   9008   9028   9031   9032   9033M  9033   9438M  9442   9444   9464   9467   9468
              9469M  9469  10191M 10195  10197  10220  10223  10224  10225M 10225  10298  10767M 10771  10773  11062
             11065  11066  11067M 11067  11186M 11190  11192  11207  11210  11211  11212M 11212  11331M 11335  11337
             11352  11355  11356  11357M 11357  11410M 11414  11416  11431  11434  11435  11436M 11436  11555M 11559
             11561  11576  11579  11580  11581M 11581  11700M 11704  11706  11721  11724  11725  11726M 11726  11784M
             11788  11790  11805  11808  11809  11810M 11810  11868M 11872  11874  11889  11892  11893  11894M 11894
             11952M 11956  11958  11973  11976  11977  11978M 11978  12031M 12035  12037  12052  12055  12056  12057M
             12057  12120M 12124  12126  12141  12144  12145  12146M 12146  12209M 12213  12215  12230  12233  12234
             12235M 12235  12298M 12302  12304  12319  12322  12323  12324M 12324  12387M 12391  12393  12408  12411
             12412  12413M 12413  12471M 12475  12477  12602  12605  12607  12608M 12608  12676  12677  12678  12680M
             12680  12693M 12694  12695  12696  13147M 13151  13153  13277  13280  13281  13282M 13282  13340M 13344
             13346  13361  13364  13365  13366M 13366  13424M 13428  13430  13445  13448  13449  13450M 13450  13508M
             13512  13514  13529  13532  13533  13534M 13534  13686M 13690  13692  13707  13710  13711  13712M 13712
             13765M 13769  13771  13820  13823  13825  13826M 13826  14233M 14237  14239  14334  14337  14339  14340M
             14340  14410  14411  14412  14414M 14414  14426M 14427  14428  14429  15569  15570M 15570  15613M 15614
             15642  15643M 15643  15663M 15664  15666  15667M 15667  15693M 15694  15765M 15769  15771  15890  15893
             15895  15896M 15896  16348  16349M 16349  16379M 16380  16404M 16408  16410  16450  16453  16455  16456M
             16456  16561  16562  16563  16565M 16565  16578M 16579  16580  16581  17030  17031M 17031  17097M 17098
             17127  17128M 17128  17148M 17149  17168  17169M 17169  17189M 17190  17192  17193M 17193  17242M 17243
             17335M 17339  17341  17381  17384  17385  17386M 17386  17455  17456M 17456  17476M 17477  17496  17497M
             17497  17517M 17518  17520  17521M 17521  17570M 17571  17608M 17612  17614  17634  17637  17638  17639M
             17639  17739  17740M 17740  17760M 17761  17780  17781M 17781  17801M 17802  17804  17805M 17805  17854M
             17855  17891M 17895  17897  17941  17944  17946  17947M 17947  18054  18055  18056  18058M 18058  18071M
             18072  18073  18074  18101  18102  18103  18105M 18105  18118M 18119  18120  18121  18693  18694M 18694
             18714M 18715  18734  18735M 18735  18755M 18756  18758  18759M 18759  18808M 18809  18855M 18859  18861
             18969  18972  18973  18974M 18974  19101M 19105  19107  19130  19133  19134  19135M 19135  19281M 19285
             19287  19533  19536  19538  19539M 19539  19634  19635  19636  19638M 19638  19651M 19652  19653  19654
             19937  19938M 19938  20058M 20059  20206  20207M 20207  20282M 20283  20355  20356M 20356  20376M 20377
             20661M 20665  20667  20821  20824  20825  20826M 20826  20884M 20888  20890  20905  20908  20909  20910M
             20910  20968M 20972  20974  20989  20992  20993  20994M 20994  21053M 21057  21059  21074  21077  21078
             21079M 21079  21137M 21141  21143  21158  21161  21162  21163M 21163  21216M 21220  21222  21237  21240
             21241  21242M 21242  21295M 21299  21301  21316  21319  21320  21321M 21321  21374M 21378  21380  21405
             21408  21409  21410M 21410  21688M 21692  21694  21722  21725  21726  21727M 21727  21872M 21876  21878
             21976  21979  21981  21982M 21982  22287M 22291  22293  22333  22336  22338  22339M 22339  22431  22432
             22433  22435M 22435  22448M 22449  22450  22451  22727  22728M 22728  22748M 22749  22768  22769M 22769
             22789M 22790  22792  22793M 22793  22842M 22843  22884M 22888  22890  22966  22969  22971  22972M 22972
             23062  23063  23064  23066M 23066  23079M 23080  23081  23082  23251  24190  24334M 24338  24340  24388
1         (QUER2193) (12:52) (15MAR04) General Purpose Register Cross Reference                                             Page  225
             24391  24392  24393M 24393  24451M 24455  24457  24482  24485  24486  24487M 24487  24646M 24650  24652
             24679  24682  24683  24684M 24684  24973M 24977  24979  25093  25096  25098  25099M 25099  25511M 25515
             25517  25549  25552  25553  25554M 25554  25703M 25707  25709  25751  25754  25755  25756M 25756  25945M
             25949  25951  25995  25998  26000  26001M 26001  26100  26291M 26295  26297  26325  26328  26329  26330M
             26330  26857M 26861  26863  26890  26893  26894  26895M 26895  26944  26945  26946  26948M 26948  26960M
             26961  26962  26963  27030M 27034  27036  27102  27105  27106  27107M 27107  27145  27146  27147  27149M
             27149  27161M 27162  27163  27164  27513M 27517  27519  27549  27552  27553  27554M 27554  27765M 27769
             27771  27801  27804  27805  27806M 27806  28032M 28036  28038  28060  28063  28064  28065M 28065  28311M
             28315  28317  28396  28399  28401  28402M 28402  28470  30000M 30004  30006  30029  30032  30033  30034M
             30034  30093  30213M 30217  30219  30262  30265  30267  30268M 30268  30361  30362M 30362  30810M 30814
             30816  30937  30940  30942  30943M 30943  31044  31071  31485M 31489  31491  31532  31535  31536  31537M
             31537  31851M 31855  31857  31888  31891  31892  31893M 31893  32084M 32088  32090  32149  32152  32154
             32155M 32155  32821  32822M 32822  32855M 33168  33221M 33225  33227  33256  33259  33260  33261M 33261
             33320  33348  33429  35044  35045M 35045  35194  35298M 35299  35325M 35329  35331  35452  35455  35457
             35458M 35458  35526  35813M 35817  35819  35871  35874  35875  35876M 35876  35935  36088  36089M 36089
             36109M 36110  36158  36159M 36159  36179M 36180  36287M 36291  36293  36345  36348  36350  36351M 36351
             36419  37071M 37075  37077  37144  37147  37148  37149M 37149  37208  37252  37305  37306M 37306  37326M
             37327  37329  37330M 37330  37356M 37357  37464M 37468  37470  37514  37517  37519  37520M 37520  37598
             37736  37737M 37737  37754M 37755  37854  37855M 37855  37879M 37880  37983  37984M 37984  38053M 38054
             38149  38150M 38150  38167M 38168  38262  38263M 38263  38280M 38281  38300  38301M 38301  38318M 38319
             38321  38322M 38322  38365M 38366  38458  38459M 38459  38476M 38477  38496  38497M 38497  38514M 38515
             38517  38518M 38518  38561M 38562  38646  38647M 38647  38664M 38665  38684  38685M 38685  38702M 38703
             38705  38706M 38706  38749M 38750  38797  38798M 38798  38815M 38816  38868M 38872  38874  38899  38902
             38903  38904M 38904  39073M 39077  39079  39125  39128  39130  39131M 39131  39199  39798M 39802  39804
             39832  39835  39836  39837M 39837  39896  40067M 40071  40073  40124  40127  40129  40130M 40130  40318
             40319M 40319  40424M 40425  40447M 40451  40453  40484  40487  40488  40489M 40489  40571  40599  40629
             40700  41353M 41357  41359  41387  41390  41391  41392M 41392  41451  41917M 41921  41923  42038  42041
             42042  42043M 42043  42102  42145  42250M 42254  42256  42280  42283  42284  42285M 42285  42344  42372
             42492  42523  42804M 42808  42810  42833  42836  42837  42838M 42838  42897  43034M 43038  43040  43067
             43070  43071  43072M 43072  43131  43246  43347  43425  43475M 43479  43481
    14(E)      926U  2113   2114M  2128   2129M  2130B  2132M  2133B  2153M  2154B  2158M  2159B  2161M  2162B  2164M
              2165B  2167M  2168B  2170M  2171M  2171B  2177   8380   8472M  8473M  8473B  8495M  8496   8497   8498
              8503M  8504   8507M  8508M  8508B  8511M  8514   8515   8516   8521M  8522M  8522B  8679M  8680M  8680B
              8706M  8707M  8707B  8734M  8735M  8735B  8749M  8797M  8798M  8798B  8832M  8833M  8833B  8880M  8928M
              8929M  8929B  8933M  8934M  8934B  8951M  8952M  8952B  8969M  8970M  8970B  9008M  9011B  9028   9176M
              9177M  9177B  9198M  9199M  9199B  9205M  9206M  9206B  9295M  9296M  9296B  9314M  9315M  9315B  9319M
              9320M  9320B  9337M  9338M  9338B  9371M  9372M  9372B  9403M  9404M  9404B  9408M  9409M  9409B  9444M
              9447B  9464   9536M  9537M  9537B  9540M  9541M  9541B  9551M  9567M  9632M  9633M  9633B  9637M  9638M
              9638B  9673M  9674M  9674B  9691M  9692M  9692B  9774M  9775M  9775B  9780M  9781M  9781B  9823M  9824M
              9824B  9858M  9859M  9859B  9913M  9929M 10001M 10002M 10002B 10006M 10007M 10007B 10042M 10043M 10043B
             10060M 10061M 10061B 10103M 10104M 10104B 10109M 10110M 10110B 10152M 10153M 10153B 10157M 10158M 10158B
             10197M 10200B 10220  10298  10299M 10668M 10669M 10669B 10711M 10712M 10712B 10716M 10717M 10717B 10734M
             10735M 10735B 10773M 10776B 11062  11107M 11108M 11108B 11192M 11195B 11207  11252M 11253M 11253B 11337M
             11340B 11352  11416M 11419B 11431  11476M 11477M 11477B 11561M 11564B 11576  11621M 11622M 11622B 11706M
             11709B 11721  11790M 11793B 11805  11874M 11877B 11889  11958M 11961B 11973  12037M 12040B 12052  12126M
             12129B 12141  12215M 12218B 12230  12304M 12307B 12319  12393M 12396B 12408  12477M 12480B 12602  12675M
             12676  12677  12678  12683M 12684  12687M 12688M 12688B 12691M 12694  12695  12696  12719M 12720M 12720B
             12822M 12823M 12823B 12858M 12859M 12859B 12883M 12884M 12884B 12901M 12902M 12902B 12926M 12927M 12927B
             12951M 12952M 12952B 12978M 12979M 12979B 13021M 13022M 13022B 13043M 13044M 13044B 13061M 13062M 13062B
             13079M 13086M 13119M 13120M 13120B 13153M 13156B 13277  13346M 13349B 13361  13430M 13433B 13445  13514M
             13517B 13529  13692M 13695B 13707  13771M 13774B 13820  14023M 14024M 14024B 14059M 14060M 14060B 14084M
             14085M 14085B 14102M 14103M 14103B 14127M 14128M 14128B 14152M 14153M 14153B 14179M 14180M 14180B 14239M
             14242B 14334  14409M 14410  14411  14412  14420M 14421M 14421B 14424M 14427  14428  14429  14434M 14435M
             14435B 14495M 14496M 14496B 14513M 14514M 14514B 14531M 14532M 14532B 14566M 14567M 14567B 14584M 14585M
             14585B 14609M 14610M 14610B 14638M 14639M 14639B 14660M 14661M 14661B 14742M 14743M 14743B 14747M 14748M
             14748B 14792M 14793M 14793B 14797M 14798M 14798B 14827M 14828M 14828B 14832M 14833M 14833B 14882M 14883M
             14883B 14887M 14888M 14888B 14905M 14906M 14906B 14940M 14941M 14941B 14958M 14959M 14959B 14986M 14987M
             14987B 15004M 15005M 15005B 15032M 15033M 15033B 15072M 15073M 15073B 15144M 15145M 15145B 15188M 15189M
             15189B 15210M 15211M 15211B 15228M 15229M 15229B 15267M 15268N 15269N 15273M 15273  15276M 15277M 15277B
1         (QUER2193) (12:52) (15MAR04) General Purpose Register Cross Reference                                             Page  226
             15281M 15282M 15282B 15303M 15304M 15304B 15321M 15322M 15322B 15407M 15408M 15408B 15451M 15452M 15452B
             15456M 15457M 15457B 15474M 15475M 15475B 15514M 15515M 15515B 15542M 15543M 15543B 15560M 15561M 15561B
             15587M 15588M 15588B 15592M 15593M 15593B 15610M 15611M 15611B 15637M 15638M 15638B 15660M 15661M 15661B
             15690M 15691M 15691B 15728M 15729M 15729B 15735M 15736M 15736B 15771M 15774B 15890  15972M 15973M 15973B
             15997M 15998M 15998B 16031M 16032M 16032B 16134M 16135M 16135B 16165M 16166M 16166B 16180M 16181M 16181B
             16290M 16294  16296M 16300M 16309M 16309  16316  16371M 16372M 16372B 16410M 16413B 16450  16518M 16519M
             16519B 16560M 16561  16562  16563  16568M 16569  16572M 16573M 16573B 16576M 16579  16580  16581  16586M
             16587M 16587B 16594M 16595M 16595B 16666M 16667M 16667B 16710M 16711M 16711B 16732M 16733M 16733B 16750M
             16751M 16751B 16771M 16772M 16772B 16824M 16825M 16825B 16829M 16830M 16830B 16847M 16848M 16848B 16872M
             16873M 16873B 16910M 16911M 16911B 16915M 16916M 16916B 16933M 16934M 16934B 16974M 16975M 16975B 17002M
             17003M 17003B 17020M 17021M 17021B 17048M 17049M 17049B 17076M 17077M 17077B 17094M 17095M 17095B 17121M
             17122M 17122B 17145M 17146M 17146B 17186M 17187M 17187B 17221M 17222M 17222B 17239M 17240M 17240B 17297M
             17298M 17298B 17304M 17305M 17305B 17341M 17344B 17381  17415M 17416M 17416B 17435M 17436N 17437N 17441M
             17441  17444M 17445M 17445B 17448M 17449M 17449B 17473M 17474M 17474B 17514M 17515M 17515B 17549M 17550M
             17550B 17567M 17568M 17568B 17614M 17617B 17634  17668M 17669M 17669B 17688M 17689N 17690N 17694M 17694
             17697M 17698M 17698B 17718M 17719M 17719B 17731M 17732M 17732B 17757M 17758M 17758B 17798M 17799M 17799B
             17833M 17834M 17834B 17851M 17852M 17852B 17897M 17900B 17941  18008M 18009M 18009B 18020M 18021M 18021B
             18042M 18043M 18043B 18053M 18054  18055  18056  18061M 18062  18065M 18066M 18066B 18069M 18072  18073
             18074  18100M 18101  18102  18103  18108M 18109  18112M 18113M 18113B 18116M 18119  18120  18121  18130M
             18131M 18131B 18205M 18206M 18206B 18234M 18235M 18235B 18256M 18257M 18257B 18344M 18345M 18345B 18366M
             18367M 18367B 18388M 18389M 18389B 18395M 18396M 18396B 18429M 18430M 18430B 18433M 18434M 18434B 18477M
             18478M 18478B 18513M 18514M 18514B 18537M 18538M 18538B 18564M 18565M 18565B 18605M 18606M 18606B 18658M
             18659M 18659B 18676M 18677M 18677B 18681M 18682M 18682B 18711M 18712M 18712B 18752M 18753M 18753B 18787M
             18788M 18788B 18805M 18806M 18806B 18861M 18864B 18969  19078M 19079M 19079B 19107M 19110B 19130  19224M
             19225M 19225B 19246M 19247M 19247B 19263M 19264M 19264B 19287M 19290B 19533  19605M 19606M 19606B 19633M
             19634  19635  19636  19641M 19642  19645M 19646M 19646B 19649M 19652  19653  19654  19659M 19660M 19660B
             19695M 19696M 19696B 19748M 19749M 19749B 19809M 19810M 19810B 19824M 19825M 19825B 19874M 19875M 19875B
             19985M 19986M 19986B 20003M 20004M 20004B 20036M 20037M 20037B 20054M 20055M 20055B 20092M 20093M 20093B
             20241M 20242M 20242B 20275M 20276M 20276B 20338M 20339M 20339B 20373M 20374M 20374B 20400M 20401M 20401B
             20429M 20430M 20430B 20454M 20455M 20455B 20507M 20508M 20508B 20525M 20526M 20526B 20562M 20563M 20563B
             20567M 20568M 20568B 20591M 20592M 20592B 20609M 20610M 20610B 20632M 20633M 20633B 20667M 20670B 20821
             20890M 20893B 20905  20974M 20977B 20989  21059M 21062B 21074  21143M 21146B 21158  21222M 21225B 21237
             21301M 21304B 21316  21380M 21383B 21405  21535M 21536M 21536B 21570M 21571M 21571B 21599M 21600M 21600B
             21604M 21605M 21605B 21628M 21629M 21629B 21694M 21697B 21722  21753M 21754M 21754B 21852M 21853M 21853B
             21878M 21881B 21976  22020M 22021M 22021B 22142M 22143M 22143B 22169M 22170M 22170B 22190M 22191M 22191B
             22212M 22213M 22213B 22230M 22231M 22231B 22258M 22259M 22259B 22293M 22296B 22333  22377M 22378M 22378B
             22430M 22431  22432  22433  22438M 22439  22442M 22443M 22443B 22446M 22449  22450  22451  22456M 22457M
             22457B 22490M 22491M 22491B 22512M 22513M 22513B 22526M 22527M 22527B 22554M 22555M 22555B 22561M 22562M
             22562B 22608M 22609M 22609B 22613M 22614M 22614B 22631M 22632M 22632B 22660M 22661M 22661B 22690M 22691M
             22691B 22712M 22713M 22713B 22719M 22720M 22720B 22745M 22746M 22746B 22786M 22787M 22787B 22821M 22822M
             22822B 22839M 22840M 22840B 22890M 22893B 22966  23048M 23049M 23049B 23061M 23062  23063  23064  23069M
             23070  23073M 23074M 23074B 23077M 23080  23081  23082  23087M 23088M 23088B 23114M 23115M 23115B 23158M
             23159M 23159B 23186M 23187M 23187B 23212M 23213M 23213B 23250M 23251  23259M 23260M 23260B 23295M 23296M
             23296B 23371M 23372M 23372B 23416M 23417M 23417B 23445M 23446M 23446B 23467M 23468M 23468B 23517M 23518M
             23518B 23535M 23536M 23536B 23563M 23564M 23564B 23624M 23625M 23625B 23629M 23630M 23630B 23647M 23648M
             23648B 23668M 23669M 23669B 23727M 23728M 23728B 23973M 23974M 23974B 23985M 23986M 23986B 24010M 24011M
             24011B 24029M 24030M 24030B 24082M 24083M 24083B 24189M 24190  24198M 24199M 24199B 24220M 24221M 24221B
             24249M 24250M 24250B 24271M 24272M 24272B 24340M 24343B 24388  24457M 24460B 24482  24550M 24551M 24551B
             24592M 24593M 24593B 24652M 24655B 24679  24710M 24711M 24711B 24979M 24982B 25093  25163M 25218M 25219M
             25219B 25236M 25237M 25237B 25284M 25285M 25285B 25307M 25308M 25308B 25357M 25358M 25358B 25380M 25381M
             25381B 25399M 25400M 25400B 25438M 25439M 25439B 25460M 25461M 25461B 25517M 25520B 25549  25709M 25712B
             25751  25951M 25954B 25995  26100  26101M 26161M 26162M 26162B 26166M 26167M 26167B 26184M 26185M 26185B
             26210M 26211M 26211B 26259M 26260M 26260B 26297M 26300B 26325  26435M 26436M 26436B 26453M 26454M 26454B
             26499M 26500M 26500B 26517M 26518M 26518B 26564M 26565M 26565B 26582M 26583M 26583B 26678M 26679M 26679B
             26711M 26712M 26712B 26838M 26839M 26839B 26863M 26866B 26890  26943M 26944  26945  26946  26954M 26955M
             26955B 26958M 26961  26962  26963  26968M 26969M 26969B 27000M 27001M 27001B 27012M 27013M 27013B 27036M
             27039B 27102  27144M 27145  27146  27147  27155M 27156M 27156B 27159M 27162  27163  27164  27169M 27170M
             27170B 27210M 27211M 27211B 27278M 27279M 27279B 27348M 27349M 27349B 27377M 27378M 27378B 27399M 27400M
             27400B 27478M 27479M 27479B 27483M 27484M 27484B 27519M 27522B 27549  27771M 27774B 27801  28038M 28041B
1         (QUER2193) (12:52) (15MAR04) General Purpose Register Cross Reference                                             Page  227
             28060  28139M 28140M 28140B 28208M 28209M 28209B 28236M 28237M 28237B 28290M 28291M 28291B 28317M 28320B
             28396  28470  28471M 28495M 28496M 28496B 28520M 28521M 28521B 28538M 28539M 28539B 28562M 28563M 28563B
             28590M 28591M 28591B 28628M 28629M 28629B 28656M 28657M 28657B 28685M 28686M 28686B 28721M 28722M 28722B
             28749M 28750M 28750B 28784M 28785M 28785B 28812M 28813M 28813B 28851M 28852M 28852B 28879M 28880M 28880B
             28901M 28902M 28902B 28923M 28924M 28924B 28958M 28959M 28959B 28980M 28981M 28981B 28998M 28999M 28999B
             29051M 29052M 29052B 29100M 29101M 29101B 29149M 29150M 29150B 29211M 29212M 29212B 29229M 29230M 29230B
             29250M 29250  29251M 29263  29300M 29301M 29301B 29318M 29319M 29319B 29345M 29346M 29346B 29380M 29381M
             29381B 29398M 29399M 29399B 29426M 29427M 29427B 29444M 29445M 29445B 29472M 29473M 29473B 29511M 29512M
             29512B 29585M 29586M 29586B 29606M 29607M 29607B 29624M 29625M 29625B 29728M 29729M 29729B 29767M 29768M
             29768B 29805M 29806M 29806B 29843M 29844M 29844B 29879M 29880M 29880B 29926M 29927M 29927B 29948M 29949M
             29949B 29978M 29979M 29979B 30006M 30009B 30029  30093  30094M 30136M 30137M 30137B 30185M 30219M 30222B
             30262  30351M 30352M 30352B 30365M 30366M 30366B 30389M 30390M 30390B 30407M 30408M 30408B 30431M 30432M
             30432B 30461M 30462M 30462B 30491M 30492M 30492B 30509M 30510M 30510B 30539M 30540M 30540B 30570M 30571M
             30571B 30761M 30762M 30762B 30786M 30787M 30787B 30816M 30819B 30937  31044  31045M 31071  31072M 31161M
             31162M 31162B 31173M 31180M 31358M 31359M 31359B 31381M 31395M 31491M 31494B 31532  31599M 31600M 31600B
             31698M 31699M 31699B 31810M 31811M 31811B 31857M 31860B 31888  31953M 31954M 31954B 32007M 32037M 32062M
             32090M 32093B 32149  32403M 32622M 32623M 32623B 32659M 32660M 32660B 32697M 32698M 32698B 32715M 32716M
             32716B 32737M 32738M 32738B 32765M 32766M 32766B 32790M 32791M 32791B 32808M 32809M 32809B 32818M 32819M
             32819B 32825M 32826M 32826B 32852M 32853M 32853B 32873M 32874M 32874B 32901M 32902M 32902B 32919M 32920M
             32920B 32956M 32957M 32957B 32990M 32991M 32991B 33012M 33013M 33013B 33030M 33031M 33031B 33060M 33061M
             33061B 33067M 33068M 33068B 33131M 33132M 33132B 33168  33169M 33186M 33227M 33230B 33256  33320  33321M
             33348  33349M 33429  33430M 33465M 33466M 33466B 33570M 33571M 33571B 33580M 33581M 33581B 33733M 33734M
             33734B 33790M 33791M 33791B 33815M 33816M 33816B 33911M 33912M 33912B 33926M 33927M 33927B 33960M 33961M
             33961B 33983M 33984M 33984B 34008M 34009M 34009B 34023M 34024M 34024B 34048M 34049M 34049B 34080M 34081M
             34081B 34106M 34107M 34107B 34125M 34126M 34126B 34151M 34152M 34152B 34166M 34167M 34167B 34192M 34193M
             34193B 34214M 34215M 34215B 34236M 34237M 34237B 34243M 34244M 34244B 34278M 34279M 34279B 34304M 34305M
             34305B 34326M 34327M 34327B 34348M 34349M 34349B 34355M 34356M 34356B 34394M 34395M 34395B 34420M 34421M
             34421B 34442M 34443M 34443B 34464M 34465M 34465B 34471M 34472M 34472B 34494M 34495M 34495B 34520M 34521M
             34521B 34542M 34543M 34543B 34564M 34565M 34565B 34571M 34572M 34572B 34626M 34627M 34627B 34648M 34649M
             34649B 34655M 34656M 34656B 34672M 34673M 34673B 34687M 34688M 34688B 34721M 34722M 34722B 34744M 34745M
             34745B 34769M 34770M 34770B 34784M 34785M 34785B 34809M 34810M 34810B 34841M 34842M 34842B 34867M 34868M
             34868B 34886M 34887M 34887B 34912M 34913M 34913B 34927M 34928M 34928B 34953M 34954M 34954B 34975M 34976M
             34976B 34997M 34998M 34998B 35004M 35005M 35005B 35081M 35082M 35082B 35125M 35126M 35126B 35194  35195M
             35272M 35273M 35273B 35331M 35334B 35452  35526  35527M 35585M 35586M 35586B 35592M 35593M 35593B 35636M
             35637M 35637B 35658M 35659M 35659B 35680M 35681M 35681B 35687M 35688M 35688B 35741M 35742M 35742B 35763M
             35764M 35764B 35785M 35786M 35786B 35819M 35822B 35871  35935  35936M 36002M 36003M 36003B 36024M 36025M
             36025B 36038M 36039M 36039B 36106M 36107M 36107B 36133M 36134M 36134B 36176M 36177M 36177B 36203M 36204M
             36204B 36231M 36232M 36232B 36253M 36254M 36254B 36293M 36296B 36345  36419  36420M 36476M 36477M 36477B
             36520M 36521M 36521B 36645M 36646M 36646B 36677M 36678M 36678B 36694M 36695M 36695B 36700M 36701M 36701B
             36887M 36888M 36888B 36919M 36920M 36920B 37077M 37080B 37144  37208  37209M 37252  37253M 37278M 37279M
             37279B 37323M 37324M 37324B 37353M 37354M 37354B 37470M 37473B 37514  37598  37599M 37638M 37639M 37639B
             37660M 37661M 37661B 37676M 37677M 37677B 37751M 37752M 37752B 37758M 37759M 37759B 37803M 37804M 37804B
             37876M 37877M 37877B 37908M 37909M 37909B 37930M 37931M 37931B 38045M 38046M 38046B 38069M 38070M 38070B
             38108M 38109M 38109B 38164M 38165M 38165B 38171M 38172M 38172B 38216M 38217M 38217B 38222M 38223M 38223B
             38277M 38278M 38278B 38315M 38316M 38316B 38347M 38348M 38348B 38362M 38363M 38363B 38394M 38395M 38395B
             38473M 38474M 38474B 38511M 38512M 38512B 38543M 38544M 38544B 38558M 38559M 38559B 38590M 38591M 38591B
             38661M 38662M 38662B 38699M 38700M 38700B 38731M 38732M 38732B 38746M 38747M 38747B 38778M 38779M 38779B
             38812M 38813M 38813B 38837M 38838M 38838B 38874M 38877B 38899  39015M 39016M 39016B 39037M 39038M 39038B
             39079M 39082B 39125  39199  39200M 39245M 39246M 39246B 39309M 39310M 39310B 39474M 39475M 39475B 39639M
             39640M 39640B 39804M 39807B 39832  39896  39897M 39911M 39912M 39912B 39942M 39956M 40073M 40076B 40124
             40194M 40195M 40195B 40338M 40339M 40339B 40358M 40359M 40359B 40373M 40374M 40374B 40399M 40400M 40400B
             40421M 40422M 40422B 40453M 40456B 40484  40515M 40516M 40516B 40571  40572M 40599  40600M 40629  40630M
             40643M 40644M 40644B 40700  40701M 40771M 40772M 40772B 40882M 40883M 40883B 40906M 40907M 40907B 40919M
             40920M 40920B 40945M 40946M 40946B 40969M 40970M 40970B 40976M 40977M 40977B 40992M 40993M 40993B 41066M
             41067M 41067B 41090M 41091M 41091B 41104M 41105M 41105B 41156M 41157M 41157B 41163M 41164M 41164B 41228M
             41229M 41229B 41252M 41253M 41253B 41259M 41260M 41260B 41310M 41311M 41311B 41359M 41362B 41387  41451
             41452M 41506M 41507M 41507B 41532M 41533M 41533B 41606M 41618M 41759M 41873M 41874M 41874B 41923M 41926B
             42038  42102  42103M 42145  42146M 42219M 42220M 42220B 42256M 42259B 42280  42344  42345M 42372  42373M
             42492  42493M 42523  42524M 42547M 42548M 42548B 42573M 42574M 42574B 42682M 42683M 42683B 42761M 42762M
1         (QUER2193) (12:52) (15MAR04) General Purpose Register Cross Reference                                             Page  228
             42762B 42767M 42768M 42768B 42782M 42783M 42783B 42810M 42813B 42833  42897  42898M 42933M 42934M 42934B
             42999M 43000M 43000B 43040M 43043B 43067  43131  43132M 43246  43247M 43347  43348M 43425  43426M 43439M
             43440M 43440B 43481M 43484B
    15(F)      922U  2113   8469M  8517M  8517   8725M  8726M  8726   8794M  8829M  8878M  8925M  8930M  8948M  8966M
              9010M  9010   9173M  9195M  9202M  9292M  9311M  9316M  9334M  9368M  9400M  9405M  9446M  9446   9521M
              9522M  9522   9543   9558M  9566   9567M  9629M  9634M  9670M  9688M  9771M  9777M  9820M  9855M  9920M
              9928   9929M  9998M 10003M 10039M 10057M 10100M 10106M 10149M 10154M 10199M 10199  10263  10298  10665M
             10708M 10713M 10731M 10775M 10775  11109M 11112  11124M 11132M 11141M 11141  11148  11170M 11170  11194M
             11194  11254M 11257  11269M 11277M 11286M 11286  11293  11315M 11315  11339M 11339  11418M 11418  11478M
             11481  11493M 11501M 11510M 11510  11517  11539M 11539  11563M 11563  11623M 11626  11638M 11646M 11655M
             11655  11662  11684M 11684  11708M 11708  11792M 11792  11876M 11876  11960M 11960  12039M 12039  12128M
             12128  12217M 12217  12306M 12306  12395M 12395  12479M 12479  12697M 12697  12710M 12711M 12711  12732
             12819M 12855M 12880M 12898M 12923M 12948M 12975M 13018M 13040M 13058M 13116M 13155M 13155  13348M 13348
             13432M 13432  13516M 13516  13572M 13575  13587M 13592  13596M 13605M 13605  13612  13641M 13641  13648
             13670M 13670  13694M 13694  13773M 13773  14020M 14056M 14081M 14099M 14124M 14149M 14176M 14212M 14212
             14241M 14241  14430M 14430  14492M 14510M 14528M 14563M 14581M 14606M 14635M 14657M 14674  14739M 14744M
             14789M 14794M 14824M 14829M 14879M 14884M 14902M 14937M 14955M 14983M 15001M 15029M 15097  15116M 15117M
             15117  15129  15141M 15185M 15207M 15225M 15278M 15300M 15307M 15404M 15448M 15453M 15471M 15511M 15539M
             15557M 15584M 15589M 15607M 15634M 15657M 15687M 15725M 15732M 15773M 15773  15957M 15994M 16028M 16054
             16162M 16177M 16279M 16288M 16288  16348  16368M 16380M 16412M 16412  16515M 16582M 16582  16619  16638M
             16639M 16639  16651  16663M 16707M 16729M 16747M 16821M 16826M 16844M 16869M 16907M 16912M 16930M 16935M
             16971M 16999M 17017M 17022M 17045M 17073M 17091M 17118M 17123M 17142M 17183M 17218M 17236M 17294M 17301M
             17343M 17343  17417  17432M 17470M 17511M 17546M 17564M 17616M 17616  17670  17685M 17728M 17754M 17795M
             17830M 17848M 17899M 17899  18075M 18075  18122M 18122  18137M 18138M 18138  18152M 18153M 18153  18166M
             18166  18179M 18179  18196  18202M 18231M 18253M 18270  18286M 18296U 18309U 18341M 18363M 18385M 18392M
             18443M 18443  18561M 18602M 18655M 18673M 18678M 18708M 18749M 18784M 18802M 18863M 18863  19047M 19047
             19085  19109M 19109  19221M 19243M 19252M 19253M 19254  19260M 19289M 19289  19607  19655M 19655  19806M
             19821M 19871M 19911M 19912M 19913  19982M 20000M 20033M 20051M 20078M 20238M 20272M 20370M 20397M 20426M
             20451M 20504M 20522M 20559M 20588M 20606M 20629M 20669M 20669  20892M 20892  20976M 20976  21061M 21061
             21145M 21145  21224M 21224  21303M 21303  21382M 21382  21434  21532M 21556M 21596M 21625M 21642M 21643
             21644M 21645  21696M 21696  21771M 21777  21833M 21849M 21880M 21880  22022  22166M 22187M 22209M 22227M
             22255M 22295M 22295  22379  22393M 22403U 22416U 22452M 22452  22487M 22509M 22523M 22551M 22558M 22605M
             22610M 22628M 22635D 22637M 22637  22638M 22639U 22645  22657M 22687M 22709M 22716M 22742M 22783M 22818M
             22836M 22892M 22892  23045M 23083M 23083  23155M 23183M 23209M 23251  23252M 23253B 23292M 23413M 23442M
             23464M 23481  23514M 23532M 23560M 23621M 23626M 23644M 23665M 23724M 23817M 23818M 23818  23839U 23858U
             23970M 23982M 24007M 24026M 24079M 24103M 24104M 24104  24125U 24152U 24190  24191M 24192B 24217M 24246M
             24268M 24285  24342M 24342  24459M 24459  24517M 24547M 24572U 24599U 24625M 24654M 24654  24735U 24935U
             24981M 24981  25132  25215M 25233M 25281M 25304M 25354M 25377M 25396M 25435M 25457M 25519M 25519  25593M
             25692M 25692  25711M 25711  25780  25833M 25903M 25929M 25929  25953M 25953  26045M 26045  26065  26100
             26158M 26163M 26181M 26270M 26299M 26299  26354  26432M 26450M 26496M 26514M 26561M 26579M 26629M 26630M
             26630  26643M 26643  26656M 26656  26675M 26685  26689M 26689  26724  26801M 26811M 26811  26835M 26840M
             26865M 26865  26919  26964M 26964  26997M 27002M 27009M 27038M 27038  27165M 27165  27212  27275M 27345M
             27374M 27396M 27413  27475M 27480M 27497M 27521M 27521  27578  27739M 27749M 27749  27773M 27773  27830
             28006M 28016M 28016  28040M 28040  28089  28105M 28106M 28106  28124  28136M 28205M 28233M 28287M 28319M
             28319  28435  28470  28492M 28517M 28535M 28559M 28587M 28625M 28653M 28682M 28718M 28746M 28781M 28809M
             28848M 28876M 28898M 28920M 28955M 28977M 28995M 29048M 29097M 29146M 29169M 29170M 29182  29193  29208M
             29226M 29251M 29272M 29282  29297M 29315M 29342M 29377M 29395M 29423M 29441M 29469M 29508M 29582M 29603M
             29621M 29725M 29764M 29802M 29840M 29876M 29897M 29911  29923M 29945M 29975M 30008M 30008  30058  30093
             30133M 30183M 30221M 30221  30301  30348M 30361M 30386M 30404M 30428M 30458M 30488M 30506M 30536M 30567M
             30627M 30631M 30640M 30640  30647  30668  30729M 30730M 30731M 30783M 30818M 30818  31018U 31044  31071
             31079  31086U 31178M 31180M 31388M 31394  31395M 31434M 31444U 31448  31455U 31464M 31493M 31493  31695M
             31807M 31840M 31840  31859M 31859  31950M 31970M 31977  31998M 32035M 32049  32060M 32092M 32092  32236M
             32440M 32441M 32442  32465M 32466M 32467  32517M 32529M 32539U 32552U 32619M 32656M 32694M 32712M 32734M
             32762M 32787M 32805M 32821M 32849M 32870M 32898M 32916M 32953M 32987M 33009M 33027M 33057M 33064M 33080M
             33090U 33126U 33133  33168  33192M 33199M 33199  33229M 33229  33320  33348  33376M 33429  33479M 33567M
             33577M 33714M 33715  33729  33730M 33787M 33804M 33812M 33852M 33856M 33865M 33865  33872  33908M 33923M
             33957M 33980M 34005M 34020M 34045M 34077M 34103M 34122M 34148M 34163M 34189M 34211M 34233M 34240M 34275M
             34301M 34323M 34345M 34352M 34391M 34417M 34439M 34461M 34468M 34491M 34517M 34539M 34561M 34568M 34585M
             34586M 34587  34623M 34645M 34652M 34669M 34684M 34718M 34741M 34766M 34781M 34806M 34838M 34864M 34883M
1         (QUER2193) (12:52) (15MAR04) General Purpose Register Cross Reference                                             Page  229
             34909M 34924M 34950M 34972M 34994M 35001M 35015M 35016M 35017  35022M 35022  35037M 35037  35044  35078M
             35122M 35194  35269M 35299M 35333M 35333  35491  35526  35537M 35547U 35560U 35582M 35589M 35633M 35655M
             35677M 35684M 35738M 35760M 35782M 35791M 35791  35821M 35821  35900  35935  35944M 35954U 35967U 35999M
             36021M 36035M 36103M 36130M 36173M 36200M 36228M 36250M 36270M 36270  36295M 36295  36384  36419  36428M
             36438U 36451U 36473M 36547M 36548M 36549  36612M 36642M 36674M 36691M 36697M 36884M 36916M 37049M 37049
             37079M 37079  37173  37208  37252  37275M 37295M 37295  37320M 37350M 37443M 37443  37472M 37472  37563
             37598  37635M 37657M 37673M 37748M 37800M 37873M 37905M 37927M 38042M 38066M 38105M 38161M 38213M 38219M
             38274M 38312M 38344M 38359M 38391M 38470M 38508M 38540M 38555M 38587M 38658M 38696M 38728M 38743M 38775M
             38809M 38834M 38847M 38847  38876M 38876  38928  38945M 38946M 38946  38967U 38980U 39012M 39034M 39057M
             39057  39081M 39081  39164  39199  39381M 39391  39546M 39556  39739M 39749  39806M 39806  39861  39896
             39947M 39955  39956M 40001M 40002M 40003  40015  40022M 40042M 40042  40075M 40075  40165  40191M 40298M
             40313M 40313  40316M 40318  40320  40335M 40355M 40370M 40396M 40418M 40425M 40455M 40455  40529M 40536
             40571  40599  40629  40640M 40700  40768M 40879M 40903M 40916M 40942M 40966M 40973M 40989M 40998M 40998
             41063M 41087M 41101M 41153M 41160M 41225M 41249M 41256M 41292M 41293M 41293  41336M 41336  41361M 41361
             41416  41451  41541M 41542M 41542  41563U 41574U 41611M 41617  41618M 41692M 41693M 41694  41757M 41854M
             41855  41869  41870M 41925M 41925  42067  42102  42145  42216M 42258M 42258  42309  42344  42372  42492
             42503M 42514  42523  42544M 42570M 42663M 42664  42678  42679M 42758M 42764M 42788M 42788  42812M 42812
             42862  42897  42973M 42974  42983M 42983  42990  43042M 43042  43096  43131  43159M 43159  43246  43347
             43425  43444M 43445M 43446  43458M 43459M 43459  43483M 43483

1QUERY    (QUER2193) (12:52) (15MAR04) Diagnostic Cross Reference and Assembler Summary                                     Page  230
-                                                                                            HLASM R4.0  2004/03/15 12.52
0     No Statements Flagged in this Assembly
 HIGH LEVEL ASSEMBLER, 5696-234, RELEASE 4.0, PTF P72483
0SYSTEM: OS/390 02.10.00            JOBNAME: WYL#QUER    STEPNAME: ASM        PROCSTEP: (NOPROC)
0Datasets Allocated for this Assembly
  Con DDname   Dataset Name                                 Volume  Member
   P1 SYSIN    WYL.GS.WYL.WYLBUR.SOURCE                     SYSB05  QUERY
   L1 SYSLIB   WYL.GS.WYL.WYLBUR.MACLIB                     SYSB05
   L2          WYL.GG.SYS.MACLIB                            SYSB05
   L3          SYS3.IS.MACLIB                               SYSB05
   L4          SYS3.MACLIB                                  SYSB02
   L5          SYS1.MACLIB                                  MVSBR9
   L6          SYS1.MODGEN                                  MVSBR9
      SYSPRINT SYS04075.T125229.RA000.WYL#QUER.PRINT.H01    SCR100
      SYSTERM  GG$SLP.WYL#QUER.JOB03557.D0000101.?

    3668K allocated to Buffer Pool,         5209K would be required for this to be an In-Storage Assembly
    5042 Primary Input Records Read         8151 Library Records Read                338 Work File Reads
       0 ASMAOPT Records Read              22095 Primary Print Records Written       389 Work File Writes
       0 Punch Records Written                 0 ADATA Records Written
0Assembly Start Time: 12.52.31 Stop Time: 12.53.01 Processor Time: 00.00.08.7700
 Return Code 000
