1PROC     (PROC2193) (12:51) (15MAR04) Ordinary Symbol and Literal Cross Reference                                          Page  266
 $$$481F       2 00002C9C 00000001     H   22793 22777B
 $$$482B       4 00002CAE 00000001     I   22816 23061
 $$$482F       2 00002D24 00000001     H   23058 22816B 23060
 $$$483F       2 00002CD0 00000001     H   22896 22869B
 $$$484        6 00003068 00000001     I   22886 22878X
 $$$485        6 00003068 00000001     I   22885 22886  22886
 $$$486F       2 00002D24 00000001     H   23054 22967B
 $$$487F       2 00002D22 00000001     H   23041 23014B
 $$$488        6 0000306E 00000001     I   23031 23023X
 $$$489        6 0000306E 00000001     I   23030 23031  23031
 $$$490E       2 00002D28 00000001     H   23068 23062
 $$$490F       2 00002D9E 00000001     H   23315 23064B
 $$$491F       2 00002D6A 00000001     H   23201 23174B
 $$$492        6 00003074 00000001     I   23191 23183X
 $$$493        6 00003074 00000001     I   23190 23191  23191
 $$$494F       2 00002D9E 00000001     H   23311 23224B
 $$$495F       2 00002D9C 00000001     H   23298 23271B
 $$$496        6 0000307A 00000001     I   23288 23280X
 $$$497        6 0000307A 00000001     I   23287 23288  23288
 $$$498        1 0000014C 00000001 A   U   23343 23340  23342
 $$$499F       2 00002F1C 00000001     H   24062 23491B
 $$$500B       1 00002DC6 00000001     X   23381 23388U
 $$$501F       2 00002F1C 00000001     H   24048 23425B
 $$$502B       4 00002DEC 00000001     I   23456 23502
 $$$502F       2 00002E10 00000001     H   23499 23456B 23501
 $$$503F       2 00002E10 00000001     H   23495 23473B
 $$$504E       2 00002E14 00000001     H   23509 23503
 $$$504F       2 00002E1A 00000001     H   23521 23505B
 $$$505B       4 00002E2C 00000001     I   23544 23789
 $$$505F       2 00002EA2 00000001     H   23786 23544B 23788
 $$$506F       2 00002E4E 00000001     H   23624 23597B
 $$$507        6 00003080 00000001     I   23614 23606X
 $$$508        6 00003080 00000001     I   23613 23614  23614
 $$$509F       2 00002EA2 00000001     H   23782 23695B
 $$$510F       2 00002EA0 00000001     H   23769 23742B
 $$$511        6 00003086 00000001     I   23759 23751X
 $$$512        6 00003086 00000001     I   23758 23759  23759
 $$$513E       2 00002EA6 00000001     H   23796 23790
 $$$513F       2 00002F1C 00000001     H   24043 23792B
 $$$514F       2 00002EE8 00000001     H   23929 23902B
 $$$515        6 0000308C 00000001     I   23919 23911X
 $$$516        6 0000308C 00000001     I   23918 23919  23919
 $$$517F       2 00002F1C 00000001     H   24039 23952B
 $$$518F       2 00002F1A 00000001     H   24026 23999B
 $$$519        6 00003092 00000001     I   24016 24008X
 $$$520        6 00003092 00000001     I   24015 24016  24016
 $$$521        1 0000014C 00000001 A   U   24071 24068  24070
 $$$523B       1 00002F44 00000001     X   24107 24114U
 $$$524F       2 00002FB4 00000001     H   24339 24140B
 $$$525F       2 00002F6E 00000001     H   24187 24177B
 $$$526F       2 00002FB4 00000001     H   24335 24227B
 $$$527F       2 00002FB4 00000001     H   24331 24244B
 $$$528F       2 00002FB2 00000001     H   24318 24291B
 $$$529        6 00003098 00000001     I   24308 24300X
 $$$530        6 00003098 00000001     I   24307 24308  24308
 $$$531        1 00000050 00000001 A   U   24358 24355  24357
 $$$533B       1 000030B8 00000001     X   24462 24469U
 $$$534F       2 0000315C 00000001     H   24690 24501B
 $$$535F       2 000030F2 00000001     H   24560 24539B
1PROC     (PROC2193) (12:51) (15MAR04) Ordinary Symbol and Literal Cross Reference                                          Page  267
 $$$536F       2 00003146 00000001     H   24656 24576B
 $$$536S       2 000030F2 00000001     H   24568 24655B
 $$$538F       2 00003130 00000001     H   24617 24602B
 $$$538S       2 0000311A 00000001     H   24595 24616B
 $$$540F       2 00003142 00000001     H   24651 24630B
 $$$541F       2 0000315C 00000001     H   24685 24670B
 $$$542        1 00000064 00000001 A   U   24713 24710  24712
 $$$544B       1 00003184 00000001     X   24754 24761U
 $$$545F       2 000031A4 00000001     H   24798 24783B
 $$$546        1 00000050 00000001 A   U   24823 24820  24822
 $$$556B       1 000031DE 00000001     X   24970 24977U
 $$$557F       2 0000329C 00000001     H   25178 25027B
 $$$559        1 0000009C 00000001 A   U   25201 25198  25200
 $$$561B       1 000032C4 00000001     X   25272 25279U
 $$$562F       2 000032DE 00000001     H   25351 25327B
 $$$563        6 0000349A 00000001     I   25341 25333X
 $$$564        6 0000349A 00000001     I   25340 25341  25341
 $$$565        1 00000228 00000001 A   U   25429 25426  25428
 $$$567B       1 0000333E 00000001     X   25476 25483U
 $$$568F       2 00003394 00000001     H   25630 25545B 25559B
 $$$568T       2 00003354 00000001     H   25548 25535B
 $$$571F       2 00003370 00000001     H   25592 25577B
 $$$572F       2 0000338E 00000001     H   25622 25607B
 $$$573F       2 000033A2 00000001     H   25660 25644B
 $$$574        1 00000050 00000001 A   U   25688 25685  25687
 $$$576B       1 000034BA 00000001     X   25808 25815U
 $$$580        6 00003740 00000001     I   25948 25940X
 $$$581        6 00003740 00000001     I   25947 25948  25948
 $$$582F       2 0000352A 00000001     H   25991 25971B
 $$$583F       2 000035BE 00000001     H   26218 26007B
 $$$584F       2 000035A2 00000001     H   26175 26104B
 $$$584S       2 00003536 00000001     H   26020 26174B
 $$$585B       4 00003556 00000001     I   26054 26076
 $$$585F       2 00003566 00000001     H   26073 26054B 26075
 $$$586E       2 0000356A 00000001     H   26083 26077
 $$$586F       2 00003570 00000001     H   26092 26079B
 $$$588F       2 000035BA 00000001     H   26212 26186B
 $$$590F       2 00003602 00000001     H   26291 26281B
 $$$591F       2 0000366C 00000001     H   26412 26399B
 $$$592F       2 000036AE 00000001     H   26536 26443B
 $$$593F       2 000036AC 00000001     H   26523 26496B
 $$$594        6 00003746 00000001     I   26513 26505X
 $$$595        6 00003746 00000001     I   26512 26513  26513
 $$$596        1 00000170 00000001 A   U   26564 26561  26563
 $$$606B       1 00003766 00000001     X   26750 26757U
 $$$607F       2 000039C2 00000001     H   27674 26798B
 $$$610F       2 000037D4 00000001     H   26925 26915B
 $$$611F       2 00003820 00000001     H   27060 27016B 27029B 27047B
 $$$611S       2 00003800 00000001     H   27008 27059B
 $$$615F       2 000038B2 00000001     H   27233 27083B
 $$$616B       4 00003846 00000001     I   27099 27114
 $$$616F       2 00003850 00000001     H   27110 27099B 27113
 $$$617E       2 00003854 00000001     H   27121 27115
 $$$617F       2 000038B2 00000001     H   27229 27117B
 $$$618F       2 000038B2 00000001     H   27225 27138B
 $$$619F       2 00003884 00000001     H   27186 27160B 27173B
 $$$619S       2 0000386A 00000001     H   27152 27185B
 $$$622F       2 000038A2 00000001     H   27215 27206B
 $$$623F       2 000038C6 00000001     H   27258 27249B
1PROC     (PROC2193) (12:51) (15MAR04) Ordinary Symbol and Literal Cross Reference                                          Page  268
 $$$624F       2 0000398E 00000001     H   27529 27357B 27394B 27429B
 $$$624S       2 000038FE 00000001     H   27347 27528B
 $$$627F       2 0000393C 00000001     H   27432 27414B
 $$$629F       2 0000394C 00000001     H   27458 27446B
 $$$630F       2 000039A2 00000001     H   27563 27554B
 $$$631F       2 000039C0 00000001     H   27647 27620B
 $$$632        6 00003A10 00000001     I   27637 27629X
 $$$633        6 00003A10 00000001     I   27636 27637  27637
 $$$634        1 00000280 00000001 A   U   27698 27695  27697
 $$$635F       2 00003D5A 00000001     H   28486 27926B 27978B 28013B
 $$$636B       1 00003A30 00000001     X   27809 27816U
 $$$637F       2 00003A8E 00000001     H   27930 27890B
 $$$638F       2 00003AD6 00000001     H   28021 27943B
 $$$639F       2 00003AB6 00000001     H   27982 27960B
 $$$640F       2 00003AD6 00000001     H   28017 27995B
 $$$641F       2 00003B0C 00000001     H   28073 28045B
 $$$642F       2 00003B42 00000001     H   28116 28088B
 $$$643F       2 00003CD6 00000001     H   28324 28208B
 $$$644F       2 00003CD6 00000001     H   28320 28232B
 $$$645F       2 00003CD6 00000001     H   28316 28258B
 $$$646F       2 00003CE4 00000001     H   28346 28336B
 $$$647        1 000001A4 00000001 A   U   28495 28492  28494
 $$$657B       1 00003E0E 00000001     X   28726 28733U
 $$$658F       2 00003EFE 00000001     H   28927 28838B
 $$$660F       2 00003F14 00000001     H   28960 28946B
 $$$661F       2 00003F60 00000001     H   29105 28995B
 $$$662F       2 00003F5E 00000001     H   29083 29056B
 $$$663        6 00004AA4 00000001     I   29073 29065X
 $$$664        6 00004AA4 00000001     I   29072 29073  29073
 $$$665        1 00000240 00000001 A   U   29145 29142  29144
 $$$667B       1 00003FC2 00000001     X   29199 29206U
 $$$668        1 00000050 00000001 A   U   29233 29230  29232
 $$$670B       1 00003FEE 00000001     X   29282 29289U
 $$$675F       2 00004110 00000001     H   29560 29547B
 $$$676F       2 00004130 00000001     H   29592 29578B
 $$$677F       2 0000418A 00000001     H   29726 29654B
 $$$678F       2 000041CC 00000001     H   29827 29755B
 $$$679F       2 00004210 00000001     H   29966 29852B
 $$$680F       2 0000420E 00000001     H   29944 29917B
 $$$681        6 00004AAA 00000001     I   29934 29926X
 $$$682        6 00004AAA 00000001     I   29933 29934  29934
 $$$683F       2 00004246 00000001     H   30109 29987B
 $$$684F       2 00004244 00000001     H   30087 30060B
 $$$685        6 00004AB0 00000001     I   30077 30069X
 $$$686        6 00004AB0 00000001     I   30076 30077  30077
 $$$687        1 00000240 00000001 A   U   30149 30146  30148
 $$$689B       1 000045C6 00000001     X   30503 30510U
 $$$690        1 00000050 00000001 A   U   30543 30540  30542
 $$$692B       1 000045F8 00000001     X   30570 30577U
 $$$693        1 00000050 00000001 A   U   30610 30607  30609
 $$$695B       1 0000462A 00000001     X   30637 30644U
 $$$696        1 00000050 00000001 A   U   30676 30673  30675
 $$$697F       2 00004668 00000001     H   30758 30736B
 $$$698B       1 00004656 00000001     X   30703 30710U
 $$$700        1 00000050 00000001 A   U   30767 30764  30766
 $$$702B       1 00004690 00000001     X   30794 30801U
 $$$703        1 00000050 00000001 A   U   30833 30830  30832
 $$$705B       1 000046BC 00000001     X   30860 30867U
 $$$706        1 00000050 00000001 A   U   30900 30897  30899
1PROC     (PROC2193) (12:51) (15MAR04) Ordinary Symbol and Literal Cross Reference                                          Page  269
 $$$708B       1 000046E8 00000001     X   30927 30934U
 $$$709        1 00000050 00000001 A   U   30966 30963  30965
 $$$711B       1 00004714 00000001     X   30993 31000U
 $$$712        1 00000050 00000001 A   U   31033 31030  31032
 $$$714B       1 00004740 00000001     X   31060 31067U
 $$$715F       2 0000479E 00000001     H   31131 31122B
 $$$716F       2 000047AA 00000001     H   31169 31145B
 $$$717        6 00004AB6 00000001     I   31159 31151X
 $$$718        6 00004AB6 00000001     I   31158 31159  31159
 $$$719        1 00000050 00000001 A   U   31191 31188  31190
 $$$721B       1 000047D4 00000001     X   31218 31225U
 $$$722F       2 000047E8 00000001     H   31272 31259B
 $$$723        1 00000050 00000001 A   U   31292 31289  31291
 $$$725B       1 00004818 00000001     X   31319 31326U
 $$$726        1 00000050 00000001 A   U   31359 31356  31358
 $$$728B       1 00004848 00000001     X   31386 31393U
 $$$729        1 00000050 00000001 A   U   31426 31423  31425
 $$$731B       1 00004878 00000001     X   31453 31460U
 $$$732        1 00000050 00000001 A   U   31493 31490  31492
 $$$734B       1 000048A8 00000001     X   31520 31527U
 $$$735        1 00000050 00000001 A   U   31560 31557  31559
 $$$737B       1 000048D8 00000001     X   31587 31594U
 $$$738        1 00000050 00000001 A   U   31627 31624  31626
 $$$740B       1 00004908 00000001     X   31654 31661U
 $$$741        1 00000050 00000001 A   U   31690 31687  31689
 $$$743B       1 0000493C 00000001     X   31717 31724U
 $$$744        1 00000050 00000001 A   U   31751 31748  31750
 $$$746B       1 00004968 00000001     X   31778 31785U
 $$$747        1 00000050 00000001 A   U   31814 31811  31813
 $$$749B       1 0000499C 00000001     X   31841 31848U
 $$$750        1 00000050 00000001 A   U   31876 31873  31875
 $$$752B       1 000049CC 00000001     X   31903 31910U
 $$$753        1 00000050 00000001 A   U   31937 31934  31936
 $$$755B       1 000049F8 00000001     X   31964 31971U
 $$$756        1 00000050 00000001 A   U   31998 31995  31997
 $$$758B       1 00004AD6 00000001     X   32092 32099U
 $$$762F       2 00004BF2 00000001     H   32362 32352B
 $$$763F       2 00004C2C 00000001     H   32497 32387B
 $$$764F       2 00004C2A 00000001     H   32475 32448B
 $$$765        6 000054AC 00000001     I   32465 32457X
 $$$766        6 000054AC 00000001     I   32464 32465  32465
 $$$767F       2 00004C46 00000001     H   32542 32510B 32528B
 $$$769        1 00000240 00000001 A   U   32648 32645  32647
 $$$771B       1 00004F92 00000001     X   32972 32979U
 $$$772        1 00000050 00000001 A   U   33011 33008  33010
 $$$773F       2 00004FD0 00000001     H   33093 33071B
 $$$774B       1 00004FBE 00000001     X   33038 33045U
 $$$776        1 00000050 00000001 A   U   33102 33099  33101
 $$$778B       1 00004FF8 00000001     X   33151 33158U
 $$$779F       2 00005052 00000001     H   33225 33216B
 $$$780F       2 0000505E 00000001     H   33263 33239B
 $$$781        6 000054B2 00000001     I   33253 33245X
 $$$782        6 000054B2 00000001     I   33252 33253  33253
 $$$783        1 00000250 00000001 A   U   33290 33287  33289
 $$$785B       1 00005088 00000001     X   33317 33324U
 $$$786        1 00000050 00000001 A   U   33355 33352  33354
 $$$788B       1 000050B6 00000001     X   33382 33389U
 $$$789B       4 000050BE 00000001     I   33411 33429
 $$$789F       2 000050C6 00000001     H   33426 33411B 33428
1PROC     (PROC2193) (12:51) (15MAR04) Ordinary Symbol and Literal Cross Reference                                          Page  270
 $$$790E       2 000050CA 00000001     H   33436 33430
 $$$790F       2 000050CE 00000001     H   33449 33432B
 $$$791        1 00000050 00000001 A   U   33467 33464  33466
 $$$793B       1 000050F6 00000001     X   33494 33501U
 $$$794        1 00000050 00000001 A   U   33528 33525  33527
 $$$796B       1 00005122 00000001     X   33555 33562U
 $$$797        1 00000050 00000001 A   U   33589 33586  33588
 $$$799B       1 0000514E 00000001     X   33616 33623U
 $$$800        1 00000050 00000001 A   U   33650 33647  33649
 $$$802B       1 0000517A 00000001     X   33677 33684U
 $$$803        1 00000050 00000001 A   U   33716 33713  33715
 $$$805B       1 000051A6 00000001     X   33743 33750U
 $$$806        1 00000050 00000001 A   U   33783 33780  33782
 $$$808B       1 000051D2 00000001     X   33810 33817U
 $$$809        1 00000050 00000001 A   U   33849 33846  33848
 $$$811B       1 000051FE 00000001     X   33876 33883U
 $$$812        1 00000050 00000001 A   U   33916 33913  33915
 $$$814B       1 0000522A 00000001     X   33943 33950U
 $$$815F       2 00005284 00000001     H   34008 33999B
 $$$816F       2 00005290 00000001     H   34046 34022B
 $$$817        6 000054B8 00000001     I   34036 34028X
 $$$818        6 000054B8 00000001     I   34035 34036  34036
 $$$819        1 00000050 00000001 A   U   34068 34065  34067
 $$$821B       1 000052BA 00000001     X   34095 34102U
 $$$822F       2 000052CE 00000001     H   34150 34135B
 $$$822T       2 000052CA 00000001     H   34138 34125B
 $$$824        1 00000050 00000001 A   U   34168 34165  34167
 $$$826B       1 000052F6 00000001     X   34195 34202U
 $$$827        1 00000050 00000001 A   U   34234 34231  34233
 $$$829B       1 00005322 00000001     X   34261 34268U
 $$$83B        1 00000052 00000001     X    8546  8553U
 $$$830        1 00000050 00000001 A   U   34300 34297  34299
 $$$832B       1 0000534E 00000001     X   34327 34334U
 $$$833B       4 0000535C 00000001     I   34358 34377
 $$$833F       2 00005364 00000001     H   34373 34358B 34376
 $$$834B       4 0000536E 00000001     I   34394 34412
 $$$834E       2 00005368 00000001     H   34384 34378
 $$$834F       2 00005376 00000001     H   34409 34380B 34394B 34411
 $$$836E       2 0000537A 00000001     H   34419 34413
 $$$836F       2 00005386 00000001     H   34430 34415B
 $$$837        1 00000050 00000001 A   U   34448 34445  34447
 $$$839B       1 000053AE 00000001     X   34475 34482U
 $$$84         1 00000050 00000001 A   U    8603  8600   8602
 $$$840B       4 000053BC 00000001     I   34506 34525
 $$$840F       2 000053C4 00000001     H   34521 34506B 34524
 $$$841B       4 000053CE 00000001     I   34542 34560
 $$$841E       2 000053C8 00000001     H   34532 34526
 $$$841F       2 000053D6 00000001     H   34557 34528B 34542B 34559
 $$$843E       2 000053DA 00000001     H   34567 34561
 $$$843F       2 000053E6 00000001     H   34578 34563B
 $$$844        1 00000050 00000001 A   U   34596 34593  34595
 $$$846B       1 0000540E 00000001     X   34623 34630U
 $$$847        1 00000050 00000001 A   U   34657 34654  34656
 $$$849B       1 000054D8 00000001     X   34744 34751U
 $$$850F       2 00005548 00000001     H   34937 34827B
 $$$851F       2 00005546 00000001     H   34915 34888B
 $$$852        6 00005C7C 00000001     I   34905 34897X
 $$$853        6 00005C7C 00000001     I   34904 34905  34905
 $$$855F       2 00005620 00000001     H   35149 35122B
1PROC     (PROC2193) (12:51) (15MAR04) Ordinary Symbol and Literal Cross Reference                                          Page  271
 $$$856        6 00005C82 00000001     I   35139 35131X
 $$$857        6 00005C82 00000001     I   35138 35139  35139
 $$$858F       2 00005642 00000001     H   35201 35188B
 $$$859F       2 0000567C 00000001     H   35336 35226B
 $$$86B        1 000000A6 00000001     X    8649  8656U
 $$$860F       2 0000567A 00000001     H   35314 35287B
 $$$861        6 00005C88 00000001     I   35304 35296X
 $$$862        6 00005C88 00000001     I   35303 35304  35304
 $$$863        1 00000240 00000001 A   U   35376 35373  35375
 $$$865B       1 0000572E 00000001     X   35460 35467U
 $$$866        1 00000050 00000001 A   U   35499 35496  35498
 $$$867F       2 0000576C 00000001     H   35581 35559B
 $$$868B       1 0000575A 00000001     X   35526 35533U
 $$$87F        2 000000DE 00000001     H    8752  8689B
 $$$870        1 00000050 00000001 A   U   35590 35587  35589
 $$$872B       1 00005794 00000001     X   35617 35624U
 $$$873        1 00000050 00000001 A   U   35651 35648  35650
 $$$875B       1 000057C0 00000001     X   35700 35707U
 $$$876F       2 00005848 00000001     H   35850 35827B
 $$$878S       2 000058EA 00000001     H   35984 36186B
 $$$879F       2 00005938 00000001     H   36138 36032B 36052B
 $$$88B        4 000000C8 00000001     I    8715  8735
 $$$88F        2 000000D6 00000001     H    8732  8715B  8734
 $$$882F       2 00005928 00000001     H   36114 36090B
 $$$883        6 00005C8E 00000001     I   36104 36096X
 $$$884        6 00005C8E 00000001     I   36103 36104  36104
 $$$885F       2 00005938 00000001     H   36134 36121B
 $$$886F       2 00005950 00000001     H   36182 36172B
 $$$887F       2 0000598A 00000001     H   36321 36211B
 $$$888F       2 00005988 00000001     H   36299 36272B
 $$$889        6 00005C94 00000001     I   36289 36281X
 $$$89E        2 000000DA 00000001     H    8742  8736
 $$$89F        2 000000DE 00000001     H    8748  8738B
 $$$890        6 00005C94 00000001     I   36288 36289  36289
 $$$891F       2 000059B0 00000001     H   36411 36338B
 $$$892        1 00000240 00000001 A   U   36451 36448  36450
 $$$894B       1 00005ADA 00000001     X   36580 36587U
 $$$895        1 00000050 00000001 A   U   36619 36616  36618
 $$$896F       2 00005B18 00000001     H   36701 36679B
 $$$897B       1 00005B06 00000001     X   36646 36653U
 $$$899        1 00000050 00000001 A   U   36710 36707  36709
 $$$90         1 00000050 00000001 A   U    8773  8770   8772
 $$$901B       1 00005B40 00000001     X   36737 36744U
 $$$902        1 00000050 00000001 A   U   36771 36768  36770
 $$$904B       1 00005B6C 00000001     X   36798 36805U
 $$$905        1 00000050 00000001 A   U   36832 36829  36831
 $$$907B       1 00005B98 00000001     X   36859 36866U
 $$$908F       2 00005BBA 00000001     H   36922 36913B
 $$$909        1 00000050 00000001 A   U   36945 36942  36944
 $$$911B       1 00005BE8 00000001     X   36972 36979U
 $$$912        1 00000050 00000001 A   U   37006 37003  37005
 $$$914B       1 00005CB4 00000001     X   37098 37105U
 $$$915F       2 00005D3A 00000001     H   37310 37169B
 $$$915T       2 00005CCA 00000001     H   37172 37159B
 $$$917B       4 00005CD2 00000001     I   37187 37205
 $$$917F       2 00005CE6 00000001     H   37201 37187B 37204
 $$$918E       2 00005CEA 00000001     H   37212 37206
 $$$918F       2 00005D3A 00000001     H   37306 37208B
 $$$919B       4 00005D04 00000001     I   37242 37283
1PROC     (PROC2193) (12:51) (15MAR04) Ordinary Symbol and Literal Cross Reference                                          Page  272
 $$$919F       2 00005D28 00000001     H   37279 37242B 37282
 $$$92B        1 0000010A 00000001     X    8842  8849U
 $$$920F       2 00005D28 00000001     H   37275 37261B
 $$$921E       2 00005D2C 00000001     H   37290 37284
 $$$921F       2 00005D3A 00000001     H   37302 37286B
 $$$922        1 00000050 00000001 A   U   37339 37336  37338
 $$$924B       1 00005D62 00000001     X   37374 37381U
 $$$926F       2 00005E8A 00000001     H   37695 37585B
 $$$927F       2 00005E88 00000001     H   37673 37646B
 $$$928        6 00006C5C 00000001     I   37663 37655X
 $$$929        6 00006C5C 00000001     I   37662 37663  37663
 $$$93F        2 00000126 00000001     H    8889  8878B
 $$$930        1 00000240 00000001 A   U   37735 37732  37734
 $$$932B       1 00005EEA 00000001     X   37789 37796U
 $$$933        1 00000050 00000001 A   U   37823 37820  37822
 $$$935B       1 00005F16 00000001     X   37872 37879U
 $$$936F       2 0000600E 00000001     H   38094 37985B
 $$$939F       2 00006026 00000001     H   38126 38115B
 $$$94F        2 00000142 00000001     H    8911  8900B
 $$$940F       2 00006038 00000001     H   38149 38139B
 $$$941F       2 00006046 00000001     H   38171 38161B
 $$$942F       2 0000609A 00000001     H   38318 38208B
 $$$943F       2 00006098 00000001     H   38296 38269B
 $$$944        6 00006C62 00000001     I   38286 38278X
 $$$945        6 00006C62 00000001     I   38285 38286  38286
 $$$946        1 00000240 00000001 A   U   38358 38355  38357
 $$$948B       1 00006172 00000001     X   38457 38464U
 $$$949        1 00000050 00000001 A   U   38497 38494  38496
 $$$95F        2 00000162 00000001     H    8955  8931B  8944B
 $$$95S        2 0000014E 00000001     H    8922  8954B
 $$$951B       1 0000619E 00000001     X   38524 38531U
 $$$952        1 00000050 00000001 A   U   38563 38560  38562
 $$$954B       1 000061CA 00000001     X   38590 38597U
 $$$955B       4 000061E0 00000001     I   38647 38659
 $$$955F       2 000061E8 00000001     H   38656 38647B 38658
 $$$955T       2 000061E4 00000001     H   38650 38635B
 $$$957E       2 000061EC 00000001     H   38666 38660
 $$$957F       2 000061F2 00000001     H   38676 38662B
 $$$958        1 00000050 00000001 A   U   38694 38691  38693
 $$$960B       1 0000621A 00000001     X   38721 38728U
 $$$961        1 00000050 00000001 A   U   38755 38752  38754
 $$$963B       1 00006246 00000001     X   38805 38812U
 $$$964F       2 00006336 00000001     H   39007 38918B
 $$$966F       2 0000638A 00000001     H   39155 39045B
 $$$967F       2 00006388 00000001     H   39133 39106B
 $$$968        6 00006C68 00000001     I   39123 39115X
 $$$969        6 00006C68 00000001     I   39122 39123  39123
 $$$970        1 00000240 00000001 A   U   39195 39192  39194
 $$$972B       1 000063EA 00000001     X   39249 39256U
 $$$973        1 00000050 00000001 A   U   39283 39280  39282
 $$$975B       1 00006416 00000001     X   39332 39339U
 $$$977F       2 0000654C 00000001     H   39633 39620B
 $$$977T       2 00006544 00000001     H   39623 39609B
 $$$979F       2 00006586 00000001     H   39767 39657B
 $$$98         1 00000050 00000001 A   U    8988  8985   8987
 $$$980F       2 00006584 00000001     H   39745 39718B
 $$$981        6 00006C6E 00000001     I   39735 39727X
 $$$982        6 00006C6E 00000001     I   39734 39735  39735
 $$$983        1 00000240 00000001 A   U   39807 39804  39806
1PROC     (PROC2193) (12:51) (15MAR04) Ordinary Symbol and Literal Cross Reference                                          Page  273
 $$$985B       1 0000665E 00000001     X   39897 39904U
 $$$986        1 00000050 00000001 A   U   39936 39933  39935
 $$$987F       2 0000669C 00000001     H   40018 39996B
 $$$988B       1 0000668A 00000001     X   39963 39970U
 $$$990        1 00000050 00000001 A   U   40027 40024  40026
 $$$992B       1 000066C4 00000001     X   40054 40061U
 $$$993        1 00000050 00000001 A   U   40093 40090  40092
 $$$995B       1 000066F0 00000001     X   40120 40127U
 $$$996        1 00000050 00000001 A   U   40154 40151  40153
 $$$998B       1 0000671C 00000001     X   40201 40208U
 $$$999F       2 0000679A 00000001     H   40345 40322B
 $TAB          1 00000005 00000001 A   N    8498 51184
 @RAR          0 00000000 FFFFFFF0     @    1354  2392   2400B
 @R0           0 00000000 FFFFFFFE     @     706   982U
 @R1           0 00000000 FFFFFFFD     @     719   978U  2398   2399  10273  10502  10845  11103M 11194M 12371  12596
                                                 12707  13093  13308  13608  13936  14143  14358  14617  14840  15179
                                                 15394  15915  16230  16573  16710  16968  17759  17896  18418  18955
                                                 19250  19387  19652  19998  20358  20703  20848  21008  21105  21429
                                                 21574  21734  21831  22157  22302  22462  22559  22885  23030  23190
                                                 23287  23613  23758  23918  24015  24307  24575  24669  25104M 25340
                                                 25947  26512  26893  27028  27044  27053  27098  27104  27137  27143
                                                 27172  27179  27220  27413  27426  27445  27452  27636  29072  29933
                                                 30076  31158  32464  33252  34035  34357  34393  34505  34541  34904
                                                 35138  35303  36288  37662  38285  39122  39734  40664  42150  42859
                                                 43002  44746  45144  45222  45287  46106  46361  46501  47227  47461
                                                 48635  49300  50164  51184  51191  51209  51461  52525  52538  53190
                                                 53277  53382  53777  53864  53969  54816  55844  55868  55889  56686
                                                 56892  56903  56909  57127  57258  57363  57436  57524  57558  57591
                                                 57624  58255  59358  59675  59951  60201  60472  60722  60993  62874
                                                 62961  63066
 @R10          0 00000000 FFFFFFF4     @     836   942U
 @R11          0 00000000 FFFFFFF3     @     849   938U
 @R12          0 00000000 FFFFFFF2     @     862   934U
 @R13          0 00000000 FFFFFFF1     @     875   930U 13653  14885  15960  17013  18463  20043  25138  29117  30121
                                                 32620  35348  36423  37707  38330  39167  39779  40799  42195  43047
                                                 44885  46546  47596  48680  49345  50299  62046
 @R14          0 00000000 FFFFFFF0     @     888   926U 25117M 25117
 @R15          0 00000000 FFFFFFEF     @     901   922U 54422  55210  56261  58196  58227M 58255M
 @R2           0 00000000 FFFFFFFC     @     732   974U  9533U  9581U  9629U  9677U 10122  10169  10292U 10351  10394
                                                 10521U 10864U 12009U 12057U 12399U 12624U 12735U 13121U 13359U 13636U
                                                 13964U 14048U 14171U 14542U 14645U 14728U 14868U 15207U 15605U 15943U
                                                 16249U 16601U 16996U 17580U 17664U 17787U 18123U 18228U 18313U 18446U
                                                 18777U 18924U 19278U 19688U 20026U 20377U 20722U 20770U 20867U 20934U
                                                 21027U 21124U 21448U 21496U 21593U 21660U 21753U 21850U 22176U 22224U
                                                 22321U 22388U 22481U 22578U 22904U 22952U 23049U 23116U 23209U 23306U
                                                 23632U 23680U 23777U 23844U 23937U 24034U 24326U 26531U 27664U 28398U
                                                 28446U 29100U 29721U 29822U 29961U 30104U 32492U 32607U 34932U 35166U
                                                 35331U 36316U 36406U 37690U 38313U 39150U 39762U 40692U 40782U 42178U
                                                 42744U 42887U 43030U 44774U 44872U 46134U 46389U 46529U 47489U 47579U
                                                 48663U 49328U 50192U 50282U 52074  52128  53209U 53296U 53401U 53796U
                                                 53883U 53988U 54459  54472  54485  54498  54539  54552  54565  54604
                                                 54722U 54835U 59377U 59425U 59465U 59694U 59979U 60229U 60500U 60750U
                                                 61021U 61346  62029U 62893U 62980U 63085U 64597
 @R3           0 00000000 FFFFFFFB     @     745   970U  8943  15557  17940U 52589  52684  52690M 52696
 @R4           0 00000000 FFFFFFFA     @     758   966U  8720M 11228U 13769U 16289U 17049U 17229  18926M 18955M 20079U
                                                 29248U 32013U 34672U 35666U 37021U 37838U 38770U 39298U 40166U 41283U
                                                 42326U 44363U 45865U 46864U 48195U 48811U 49663U 50706U 52647  61982U
                                                 62053U
 @R5           0 00000000 FFFFFFF9     @     771   962U  9955U 11331U 11687U 12315U 12540U 12651U 12745U 12858U 13037U
1PROC     (PROC2193) (12:51) (15MAR04) Ordinary Symbol and Literal Cross Reference                                          Page  274
                                                 13552U 13660U 13880U 14001U 14087U 14561U 14681U 14784U 14892U 15123U
                                                 15859U 15967U 16517U 16912U 17020U 17287U 17533U 17617U 17703U 18181U
                                                 18266U 18362U 18470U 18655U 18710U 18858U 19194U 19942U 20050U 20261U
                                                 20617U 21343U 22071U 22799U 23527U 24209U 24721U 25209U 25340M 25672U
                                                 25900U 26382U 27580U 27671U 28027U 29016U 29124U 29675U 29776U 29877U
                                                 30020U 30128U 32408U 32560U 32627U 34848U 35082U 35247U 35355U 36232U
                                                 36359U 36430U 37323U 37606U 37714U 38229U 38337U 39066U 39174U 39678U
                                                 39786U 40608U 40735U 40806U 41545U 42094U 42202U 42698U 42803U 42946U
                                                 43054U 44690U 44825U 44892U 46050U 46305U 46445U 46553U 47405U 47532U
                                                 47603U 48579U 48687U 49244U 49352U 50108U 50235U 50306U 51261U 51490U
                                                 51749U 52806U 53041U 53628U 59895U 59990U 60145U 60236U 60416U 60511U
                                                 60666U 60757U 60937U 61032U 61505U 62058U 62420U 62725U
 @R6           0 00000000 FFFFFFF8     @     784   958U  8727U  8965U 25216U 25437U 25696U 29241U 32006U 34665U 35659U
                                                 37014U 37318U 37831U 38763U 39291U 41276U 41550U 42319U 44356U 45858U
                                                 46857U 48188U 48804U 49656U 50699U 50911U 51520U 59188U 64268U 64415U
 @R7           0 00000000 FFFFFFF7     @     797   954U  8592U  8762U  8977U  9690U 10967U 11118U 11209U 11344U 12096U
                                                 12755U 12863U 13670U 13750U 14902U 14982U 15977U 16057U 16270U 17030U
                                                 17297U 18480U 19028U 20060U 20398U 21150U 21876U 22604U 23332U 24060U
                                                 24347U 24702U 24812U 25190U 25418U 25677U 26553U 27687U 28484U 29134U
                                                 29222U 30138U 30532U 30599U 30665U 30756U 30822U 30889U 30955U 31022U
                                                 31180U 31281U 31348U 31415U 31482U 31549U 31616U 31679U 31740U 31803U
                                                 31865U 31926U 31987U 32637U 33000U 33091U 33279U 33344U 33456U 33517U
                                                 33578U 33639U 33705U 33772U 33838U 33905U 34057U 34157U 34223U 34289U
                                                 34437U 34585U 34646U 35365U 35488U 35579U 35640U 36440U 36608U 36699U
                                                 36760U 36821U 36934U 36995U 37328U 37724U 37812U 38347U 38486U 38552U
                                                 38683U 38744U 39184U 39272U 39796U 39925U 40016U 40082U 40143U 40816U
                                                 40969U 41060U 41130U 41196U 41257U 41555U 42212U 42300U 43064U 43370U
                                                 43484U 43598U 43712U 43826U 43902U 43978U 44044U 44111U 44177U 44268U
                                                 44337U 44902U 45151U 45229U 45294U 45355U 45421U 45512U 45578U 45645U
                                                 45711U 45778U 45839U 46563U 46686U 46777U 46838U 47613U 47782U 47873U
                                                 47934U 47995U 48108U 48169U 48697U 48785U 49362U 49485U 49576U 49637U
                                                 50316U 50454U 50545U 50619U 50680U 50921U 51271U 51525U 52413U 52811U
                                                 53428U 54015U 54848U 54998U 55912U 56152U 56383U 56584U 56706U 57282U
                                                 57684U 57760U 58064U 58134U 58273U 58364U 58666U 58831U 58958U 59024U
                                                 59090U 59169U 59477U 59714U 60006U 60252U 60527U 60773U 61048U 61521U
                                                 62068U 62206U 62272U 62338U 62399U 62481U 63112U 63538U 64024U 64249U
                                                 64396U 64798U
 @R8           0 00000000 FFFFFFF6     @     810   950U 10962U 12091U 12750U 13665U 14897U 15972U 16265U 17025U 17292U
                                                 18475U 19023U 20055U 21145U 21871U 22599U 23327U 24055U 24697U 25185U
                                                 25413U 26548U 27682U 28479U 29129U 30133U 32632U 33274U 35360U 36435U
                                                 37719U 38342U 39179U 39791U 40811U 42207U 43059U 44897U 46558U 47608U
                                                 48692U 49357U 50311U 50916U 51266U 52408U 53423U 54010U 54843U 60001U
                                                 60247U 60522U 60768U 61043U 61516U 62063U 63107U 63533U 64019U 64793U
 @R9           0 00000000 FFFFFFF5     @     823   946U
 ABSCENT       1 00000000 00000000 A   T    2408  2408
 ARG1          1 00000000 00000001 A   U    9369  9503   9936  10224  11516  11979  12408  12838  12999  13234  13860
                                                 14284  15085  15320  16479  16637  17823  19156  19314  20242  20531
                                                 20740  20904  21257  21466  21630  21985  22194  22358  22713  22922
                                                 23086  23441  23650  23814  24156  24515  25041  25866  26816  27856
                                                 28368  28793  29350  32568  34812  35769  37442  37940  38873  39400
                                                 40269  41868  42427  44833  46014  46966  48336  48912  49764  51098
                                                 51737  53140  53727  54297  59316  59633  59838  60095  60357  60616
                                                 60878  61281  61868  62824
 ARG2          1 00000150 00000001 A   U    9370  9551  10453  11316  11519  12027  12425  13130  13888  14569  15441
                                                 16525  16920  17400  18125  19434  20316  20655  20960  21381  21686
                                                 22109  22414  22837  23142  23565  23870  24190  26348  27588  27859
                                                 28416  28843  29380  32209  34970  35832  37473  37990  38923  39432
                                                 40327  41935  42451  44489  46160  47017  48355  48932  49808  51740
                                                 52979  53227  53566  53814  54298  54299  59395  59903  60153  60359
1PROC     (PROC2193) (12:51) (15MAR04) Ordinary Symbol and Literal Cross Reference                                          Page  275
                                                 60674  60880  61709  62663  62911
 ARG3          1 000002A0 00000001 A   U    9371  9599  10797  11319  11608  12442  13045  13560  14180  15216  16182
                                                 17541  18189  19402  20234  20806  21063  21532  21789  22260  22517
                                                 22988  23245  23716  23973  24265  26464  27948  29024  29683  29784
                                                 29885  32416  34856  35090  36367  37614  38120  39011  39516  40743
                                                 42102  42706  42811  44698  46058  46313  47540  48587  49024  50243
                                                 53332  53919  54692  59443  60424  60945  61990  63016
 ARG4          1 000003F0 00000001 A   U    9372  9647  11322  11643  12459  14009  14689  15410  17625  18274  19202
                                                 19950  20551  21277  22005  22733  23461  24182  27983  30028  35255
                                                 36240  38237  39074  39686  40616  42954  46453  47413  49252  50116
                                                 53001  53588  54768  62685
 ARG5          1 00000540 00000001 A   U    9373 12323  12548  14095  14792  15131  15867  17711  18370  53027  53614
                                                 62711
 ARG6          1 00000690 00000001 A   U    9374 12659
 ASCTBL        1 00000000 00000000 A   T    2416  2416
 BADARG        1 00000000 00000012     T   12122 12122  18503  20094  24374  28509  62520
 BLTBL         1 00000000 00000000 A   T    2418  2418
 BR            7 00000007 00000001 A   #    1244  8541M  8644M  8837M  9444M  9868M 11060M 11151M 11257M 11464M 12213M
                                                 12794M 12927M 13722M 13798M 14954M 15023M 16029M 16102M 16407M 17147M
                                                 17352M 18602M 19084M 20158M 20466M 21192M 21920M 22648M 23376M 24102M
                                                 24457M 24749M 24965M 25267M 25471M 25803M 26745M 27804M 28721M 29194M
                                                 29277M 30498M 30565M 30632M 30698M 30789M 30855M 30922M 30988M 31055M
                                                 31213M 31314M 31381M 31448M 31515M 31582M 31649M 31712M 31773M 31836M
                                                 31898M 31959M 32087M 32967M 33033M 33146M 33312M 33377M 33489M 33550M
                                                 33611M 33672M 33738M 33805M 33871M 33938M 34090M 34190M 34256M 34322M
                                                 34470M 34618M 34739M 35455M 35521M 35612M 35695M 36575M 36641M 36732M
                                                 36793M 36854M 36967M 37093M 37369M 37784M 37867M 38452M 38519M 38585M
                                                 38716M 38800M 39244M 39327M 39892M 39958M 40049M 40115M 40196M 40936M
                                                 41002M 41093M 41163M 41229M 41312M 41797M 42272M 42355M 43335M 43403M
                                                 43517M 43631M 43745M 43859M 43935M 44011M 44077M 44144M 44210M 44301M
                                                 44392M 45113M 45184M 45262M 45327M 45388M 45454M 45545M 45611M 45678M
                                                 45744M 45811M 45942M 46653M 46719M 46810M 46893M 47749M 47815M 47906M
                                                 47967M 48028M 48141M 48264M 48757M 48840M 49452M 49518M 49609M 49692M
                                                 50421M 50487M 50578M 50652M 50756M 51039M 51317M 51679M 52456M 52886M
                                                 53473M 54242M 54896M 55043M 55950M 56192M 56421M 56625M 56805M 57324M
                                                 57723M 57840M 58100M 58174M 58312M 58401M 58706M 58925M 58991M 59057M
                                                 59123M 59261M 59516M 59774M 60047M 60293M 60568M 60814M 61204M 61604M
                                                 62173M 62239M 62305M 62371M 62447M 62570M 63228M 63648M 64073M 64297M
                                                 64500M
 BSEARCH       1 00000000 00000004     T    9338  9338
 BSINFO       32 00000000 FFFFFFE2     J    7849  8511   8564
 BSINIT        1 00000000 00000003     T    9337  9337
 BTD           1 00000000 00000039     T   26588 26588  56751  59215
 BTDZEROS      1 00000000 0000002F     T   25728 25728
 BTR           1 00000000 0000005A     T   56750 56750
 CHECKIOB      1 00000000 00000000 A   T    2464  2464
 CLACTNO1      4 00000030 FFFFFFDB     F   11412 11530M 11530  11610M 11694  11845
 CLACTNO2      4 00000034 FFFFFFDB     F   11413 11537M 11537  11645M 11737  11867
 CLBUFSZ       1 00002000 FFFFFFDB A   U   11430 12126  12129
 CLBUF1        4 00000044 FFFFFFDB     F   11417 11785M 11837  11939
 CLBUF1A       4 00000048 FFFFFFDB     F   11418 11792M 11838  11943
 CLBUF2        4 00000058 FFFFFFDB     F   11422 11799M 11859  11941
 CLBUF2A       4 0000005C FFFFFFDB     F   11423 11806M 11860  11944
 CLCNT1        4 0000003C FFFFFFDB     F   11415 11852M
 CLCNT2        4 00000050 FFFFFFDB     F   11420 11874M
 CLDONE        2 00000EEC 00000001     H   12084 11503B 11729B 11772B
 CLLBUFSZ      1 00000200 FFFFFFDB A   U   11431 11432  12128
 CLLEN1        4 00000040 FFFFFFDB     F   11416 11851M 11896  11940
 CLLEN2        4 00000054 FFFFFFDB     F   11421 11873M 11911  11942
1PROC     (PROC2193) (12:51) (15MAR04) Ordinary Symbol and Literal Cross Reference                                          Page  276
 CLLNO1        4 00000028 FFFFFFDB     F   11410 11518M 11691  11812
 CLLNO2        4 0000002C FFFFFFDB     F   11411 11521M 11734  11813
 CLMAXCNT      1 00000064 FFFFFFDB A   U   11429 11432  11840  11862
 CLNDX1        4 00000038 FFFFFFDB     F   11414 11812M 11836  11855M
 CLNDX2        4 0000004C FFFFFFDB     F   11419 11813M 11858  11877M
 CLNOMAT1      4 00000154 FFFFFFDB     F   11427 11961M 11996
 CLNOMAT2      4 00000158 FFFFFFDB     F   11428 11962M 12044
 CLPSDIM       4 00000000 FFFFFFD6     F   18569 18648M 18681  18802M 18829
 CLPSHEAP      4 00000004 FFFFFFD6     A   18570 18809M 19002M 19002  19013
 CLPSHPSZ      4 00000008 FFFFFFD6     F   18571 18803M 18995M 18995  19012
 CLPSTEMP    336 0000000C FFFFFFD6     X   18572 18712  18741  18860  18889
 CLPSWA      348 00000000 FFFFFFD6     J   18579 18599  18628U 19036  19038  19039
 CLRETPTR      4 00000060 FFFFFFDB     F   11424 11504M 11960
 CLTEMPBF    235 00000068 FFFFFFDB     C   11426 11692  11735
 CLTEMPLN      4 00000064 FFFFFFDB     F   11425 11691M 11693  11734M 11736
 CLWA        348 00000000 FFFFFFDB     J   11439 11461  11490U 12104  12106  12107
 COLLAPSE      2 00002226 00000001     H   18586 20096
 COLLPSH       1 00000000 00000006     T   11016 11016
 COMMAND       1 00000000 00000000 A   T    2404  2404
 COMMSEG       1 00000000 00000000 A   T    2405  2405
 COMPRBUF      2 0000B1CC 00000001     H   63212 12135
 CP         4096 00000000 FFFFFFEC     J    6418  1393U
 CP#MAIL       1 00000014 FFFFFFEC A   U    4173 25977  26023  26245  26341
 CP#XSTK       1 00000010 FFFFFFEC A   U    4150  4151
 CPACFLG       1 000005D5 FFFFFFEC     R    4253  4257   4262   4267   4272   4277
 CPACFLN       4 000005C4 FFFFFFEC     F    4245  4280   4280
 CPACTNO       4 0000057C FFFFFFEC     F    4189 10898
 CPAFLAG       1 000005C3 FFFFFFEC     R    4217  4221   4226   4231   4236
 CPANAME       8 00000588 FFFFFFEC     C    4199  4295   4295
 CPAUTFLG      1 000008A9 FFFFFFEC     R    4563  4567   4572   4577   4582
 CPBBUF1       4 00000028 FFFFFFC3     F   63191 63260M 63268  63383  63385
 CPBBUF1A      4 00000038 FFFFFFC3     F   63195 63264M 63410
 CPBBUF2       4 00000030 FFFFFFC3     F   63193 63262M 63270  63402  63404
 CPBBUF2A      4 0000003C FFFFFFC3     F   63196 63265M 63411
 CPBLEN1       4 0000002C FFFFFFC3     F   63192 63261M 63269  63335  63377  63384
 CPBLEN2       4 00000034 FFFFFFC3     F   63194 63263M 63271  63335  63377  63403
 CPBWA        64 00000000 FFFFFFC3     J   63203 63225  63254U 63546  63548  63549
 CPCHAZ        4 000008D0 FFFFFFEC     F    4632 25012M 25297  25493
 CPCHFLAG      1 00000B68 FFFFFFEC     R    5190  5194
 CPCWA         4 00000CA4 FFFFFFEC     F    5442 12256M 28769M 29325M 32135M 34787M 35743M 37417M 37915M 38848M 39375M
                                                 40244M 41333  41844M 42402M 44439M 45989M 46940M 48311M 48887M 49739M
                                                 50786  51074M 51338
 CPDELTA       4 00000738 FFFFFFEC     F    4302 10931  37293  47358
 CPDFLG        1 0000084C FFFFFFEC     R    4450  4454   4459   4464   4469   4474
 CPDFLG2       1 0000084D FFFFFFEC     R    4479  4483   4488   4493   4498   4503   4508
 CPDMPDLT      4 00000C6C FFFFFFEC     F    5241 10897
 CPDMPLST      4 00000C68 FFFFFFEC     F    5240 10896  10909
 CPEXFLG       1 00000758 FFFFFFEC     R    4319  4323
 CPEXFLG2      1 00000759 FFFFFFEC     R    4329  4338   4348
 CPEXFLG3      1 0000075A FFFFFFEC     R    4355  4359   4364
 CPEXTFLG      1 00000E28 FFFFFFEC     R    6001  6005   6010   6015   6020   6025   6030
 CPFABORT    128 00000D5A FFFFFFEC         5767  2368M  2368   2373M  2373
 CPFALL        1 00000010 FFFFFFEC A   U    5533 25126  40371  49860
 CPFDUMP     128 00000D55 FFFFFFEC         5632 10567  10883
 CPFERROR     64 00000D5A FFFFFFEC         5772  2367M  2367   2372M  2372
 CPFFORCE      4 00000C7C FFFFFFEC         5380 51805M
 CPFNOUTTRIM
               4 00000C7B FFFFFFEC         5345 51811M
 CPFNTEX       1 00000040 FFFFFFEC A   U    5619  5620
1PROC     (PROC2193) (12:51) (15MAR04) Ordinary Symbol and Literal Cross Reference                                          Page  277
 CPFRDRNG      1 00000D88 FFFFFFEC     R    5887  5891   5896   5901   5906   5911   5916   5921
 CPFRDSRC      1 00000D89 FFFFFFEC     R    5926  5935   5945   5955
 CPFRTNER      1 00000040 FFFFFFEC A   U    5463 42481  48385  48962  49852
 CPFUNUM       1 00000080 FFFFFFEC A   U    5618  5620
 CPFXAUTH     64 0000075A FFFFFFEC         4364 13216  14266  15302  16619  17805  19296  34122  44611
 CPFXDFLG      1 000007E4 FFFFFFEC     R    4397  4401   4406
 CPFXDUMP    128 000007E4 FFFFFFEC         4401 10894M
 CPGFLG1       1 00000474 FFFFFFEC     R    3760  3764   3769   3774   3779   3784   4114   4114
 CPGFLG10      1 0000047D FFFFFFEC     R    3997  4001   4006   4011   4016   4021   4026
 CPGFLG11      1 0000047E FFFFFFEC     R    4032  4036   4041
 CPGFLG12      1 0000047F FFFFFFEC     R    4047  4051   4056   4061
 CPGFLG13      1 00000480 FFFFFFEC     R    4067  4071
 CPGFLG14      1 00000481 FFFFFFEC     R    4077  4081   4086   4091   4096   4101
 CPGFLG4       1 00000477 FFFFFFEC     R    3813  3824   3833   3842   3851   3860
 CPGFLG5       1 00000478 FFFFFFEC     R    3866  3870   3875   3880   3885   3890   3895   3900   3905
 CPGFLG6       1 00000479 FFFFFFEC     R    3911  3915   3920   3925
 CPGFLG7       1 0000047A FFFFFFEC     R    3931  3935   3940   3945   3950
 CPGFLG8       1 0000047B FFFFFFEC     R    3956  3960   3965   3970   3975
 CPGFLG9       1 0000047C FFFFFFEC     R    3981  3985   3991
 CPINIT        1 00000174 FFFFFFEC     U    2930  6387
 CPJESFLG      1 000009E1 FFFFFFEC     R    4662  4666   4671   4676   4681   4686   4691   4696   4701
 CPJESFLY      1 000009FD FFFFFFEC     R    4712  4716   4721   4726
 CPJESHFL      1 000009E0 FFFFFFEC     R    4647  4651   4656   4735   4735
 CPLCNO        4 0000073C FFFFFFEC     F    4304 25361  27400  51880  52389
 CPLFLG1       1 00000D50 FFFFFFEC     R    5530 25128M 40373M 49862M
 CPLFLG10      1 00000D59 FFFFFFEC     R    5753  5757
 CPLFLG11      1 00000D5A FFFFFFEC     R    5763  5767   5772   5777   5782
 CPLFLG12      1 00000D5B FFFFFFEC     R    5788  5792
 CPLFLG14      1 00000D5C FFFFFFEC     R    5798  5802   5807   5812   5817   5822
 CPLFLG6       1 00000D55 FFFFFFEC     R    5628  5632   5637   5642   5647   5652   5657
 CPLFLG7       1 00000D56 FFFFFFEC     R    5663  5667   5672   5677   5682   5687
 CPLFLG8       1 00000D57 FFFFFFEC     R    5693  5697   5702   5707   5712
 CPLFLG9       1 00000D58 FFFFFFEC     R    5718  5722   5727   5732   5737   5742   5747
 CPLOCALZ      1 00000C48 FFFFFFEC     U    5220  6381   6381
 CPMFLG        1 0000084F FFFFFFEC     R    4517  4521
 CPMODFLG      1 00000C78 FFFFFFEC     R    5248  5252   5257   5262   5267   5272
 CPNAMELN      1 00000010 FFFFFFEC A   U    4143  4390
 CPNEDPFX     10 00000E29 FFFFFFEC     X    6034  6035   6036
 CPNSCANP      4 0000008C FFFFFFEC     A    2803  9976   9985   9992  10008  10039  10048  10055  10071  12969  13148
                                                 13157  13164  13180  13650  13830  14198  14207  14214  14230  14882
                                                 15055  15234  15243  15250  15266  15957  16449  17010  17384  18460
                                                 19126  20040  25109  25116  25135  28762  28861  28874  28881  28897
                                                 29114  29318  29398  29419  29426  29442  30118  31084  31091  31104
                                                 32128  32227  32241  32248  32264  32617  33178  33185  33198  33961
                                                 33968  33981  34345  34493  34780  34988  35001  35008  35024  35345
                                                 35736  35865  35878  35885  35901  36420  36883  37410  37491  37504
                                                 37511  37527  37704  37908  38008  38021  38028  38044  38327  38608
                                                 38841  38941  38954  38961  38977  39164  39368  39450  39463  39470
                                                 39486  39776  40237  40359  40381  40388  40404  40796  41837  41953
                                                 41966  41973  41989  42192  42395  42469  42490  42497  42513  43044
                                                 43466  43580  43694  43808  43884  43960  44432  44507  44520  44527
                                                 44543  44882  45136  45207  45285  45982  46178  46191  46198  46214
                                                 46543  46933  47049  47062  47069  47085  47593  48057  48304  48373
                                                 48394  48401  48417  48677  48880  48950  48971  48978  48994  49342
                                                 49732  49840  49870  49877  49893  50296  58746  58763  58772  58779
                                                 58795  61658  61727  61736  61743  61759  62043
 CPNUMFLG      1 00000C79 FFFFFFEC     R    5278  5290
 CPORVCMD      1 00000140 FFFFFFEC     R    2812  2816   2821   2826   2831   2836   2841   2846   2851   2856   2856
                                                  2907   2907
1PROC     (PROC2193) (12:51) (15MAR04) Ordinary Symbol and Literal Cross Reference                                          Page  278
 CPORVFLG      1 00000149 FFFFFFEC     R    2863  2867   2872   2877   2882   2887   2892   2897   2902
 CPORVWF       1 00000150 FFFFFFEC     R    2915  2919
 CPOSCANX      4 00000CA8 FFFFFFEC     F    5447  5514   5514
 CPR          11 0000000B 00000001 A   #    1308  1393U
 CPRACBAD     16 000001FC FFFFFFEC         2981  3015   3015   3016   3016
 CPRACF1       1 000001FC FFFFFFEC     R    2962  2966   2971   2976   2981   2986   2991   2996   3001   3017
 CPRACPSW     32 000001FC FFFFFFEC         2976  3014   3014   3016   3016
 CPRACUND     64 000001FC FFFFFFEC         2971  3014   3014   3015   3015
 CPRCVCUR      4 00000730 FFFFFFEC     A    4298  4300   4300
 CPRFLG        1 000008AA FFFFFFEC     R    4588  4592   4597   4602   4607   4612   4617
 CPRG16       32 00000524 FFFFFFEC     X    4137 25976  25982  26022  26044  26244  26267  26342  26385
 CPS         254 00000344 FFFFFFEC     X    3732  3735   3736   3738   3738
 CPSACCT       5 000003B4 FFFFFFEC     C    3331  3494   3494  59557
 CPSAMCOD      1 00000A22 FFFFFFEC     R    4784  4792   4802   4812   4821   4830   4839   4849   4858   4867
 CPSAMFLG      1 00000A21 FFFFFFEC     R    4744  4748   4753   4758   4763   4768   4773   4778   4889   4889
 CPSCNERT      4 00000CC8 FFFFFFEC     A    5455 42476M 48380M 48957M 49847M
 CPSCNFLG      1 00000CD0 FFFFFFEC     R    5460  5471   5480   5491  42483M 48387M 48964M 49854M
 CPSCNF2       1 00000CD1 FFFFFFEC     R    5496  5500
 CPSCNMAX      1 00000014 FFFFFFEC A   U    5512  5513
 CPSCRI        2 00000434 FFFFFFEC     H    3721  3726   3726
 CPSEG        60 00000050 FFFFFFEC     X    2801 11568  11723  11766  26134  26162  26204  27908  28063  28106  40476
                                                 50009  51981  52003  52021  52039  52220  52238  52256  52274  52292
                                                 52311  52329  52347  52375  52728  52786  57047  57075  58049  58481
                                                 58514  58560  58594  58622  58651  59157
 CPSEGCOD      1 00000050 FFFFFFEC     R    2718  2727   2737   2747   2757   2767   2777   2787
 CPSEGLENF
               4 0000005C FFFFFFEC     A    2793 51941M 51941  51956  52746M 52746  52761
 CPSEGMRKF
               4 00000058 FFFFFFEC     A    2792 51956  52761
 CPSFL         1 00000384 FFFFFFEC     R    3069  3073   3078   3083   3088   3093
 CPSFLG        1 000003F8 FFFFFFEC     R    3609  3613   3618   3623   3628   3633   3638   3643   3648
 CPSFLG2       1 000003F9 FFFFFFEC     R    3654  3658   3663   3668
 CPSFL2        1 00000385 FFFFFFEC     R    3099  3103   3108   3113   3118
 CPSFL3        1 00000386 FFFFFFEC     R    3124  3128   3133   3138
 CPSFL4        1 00000387 FFFFFFEC     R    3144  3148   3153   3158
 CPSFL5        1 00000388 FFFFFFEC     R    3164  3168   3173   3178
 CPSFSPR      32 000003BE FFFFFFEC         3434 34134
 CPSKAFL       1 000003BF FFFFFFEC     R    3465  3469   3474   3479   3484   3489
 CPSKIFL       1 000003BE FFFFFFEC     R    3420  3424   3429   3434   3439   3444   3449   3454   3459
 CPSOF         1 000001F8 FFFFFFEC     X    2952  2954   2954
 CPSOFLAG      1 00000416 FFFFFFEC     R    3679  3683   3688   3693   3698   3703
 CPSOPST       4 000003C4 FFFFFFEC     F    3499  3728   3728
 CPSPORT       8 00000354 FFFFFFEC     C    3063  3183   3183
 CPSQFLG       1 000003EC FFFFFFEC     R    3528  3532
 CPSSFLG       1 000003BB FFFFFFEC     R    3338  3342   3347   3352   3357   3362   3367
 CPSSTART      4 00000344 FFFFFFEC     F    3055  3059   3059   3495   3495   3600   3600   3732   3732
 CPSSTAT       1 0000038F FFFFFFEC     R    3275  3279   3284   3289   3294   3299   3304   3309
 CPSTACF       1 000003BC FFFFFFEC     R    3373  3377   3382   3387   3392   3397   3402   3407   3412
 CPSTART       4 00000000 FFFFFFEC     C    2691  6385   6389
 CPSTFLAG      1 000003EA FFFFFFEC     R    3506  3510   3515   3520
 CPSTYPE       1 0000038C FFFFFFEC     R    3188  3197   3207   3217   3227   3237   3247   3257   3267
 CPSUFLG       1 000003EE FFFFFFEC     R    3543  3547   3552   3557   3562   3567   3572   3577   3582
 CPSUFLG2      1 000003EF FFFFFFEC     R    3588  3592   3597
 CPSVPGM       8 0000039C FFFFFFEC     C    3321  3327   3327
 CPS1ST        4 0000038C FFFFFFEC     F    3185  3730   3730
 CPTEMPP#      1 0000005F FFFFFFEC A   U    4638  4640
 CPTRMFL1      1 00000C7A FFFFFFEC     R    5296  5300   5305   5310   5434   5434
 CPTRMFL2      1 00000C7B FFFFFFEC     R    5316  5320   5325   5330   5335   5340   5345
 CPTRMFL3      1 00000C7C FFFFFFEC     R    5351  5355   5360   5365   5370   5375   5380   5385
1PROC     (PROC2193) (12:51) (15MAR04) Ordinary Symbol and Literal Cross Reference                                          Page  279
 CPTRMFL4      1 00000C7D FFFFFFEC     R    5391  5395   5400   5405   5410   5415   5420   5425
 CPUID        32 00000198 FFFFFFEC     C    2934 59566  59571  59594M 59594
 CPUSED        1 00000FBC FFFFFFEC A   U    6385  6386
 CPVACURS      8 00000AF0 FFFFFFEC     D    5163  5164   5165
 CPVCURS       8 00000AE0 FFFFFFEC     D    5157  5158   5159
 CPVFLAG       1 00000AC8 FFFFFFEC     R    4958  4962   4967   4972   4977   4982
 CPVFLAG2      1 00000AC9 FFFFFFEC     R    4988  4992   4997   5002   5007   5012   5017
 CPVFLAG3      1 00000ACA FFFFFFEC     R    5023  5027   5032   5037   5042   5047   5052
 CPVFLAG4      1 00000ACB FFFFFFEC     R    5058  5062   5067   5072
 CPVLFLAG      1 00000ACE FFFFFFEC     R    5127  5131   5136   5141
 CPVMODE       1 00000ACC FFFFFFEC     R    5080  5084   5089   5094   5099   5104   5109   5114   5119
 CPVTWID       2 00000AD0 FFFFFFEC     H    5147  5150   5150
 CPWK1         4 00000D60 FFFFFFEC     F    5831  5846   5869
 CPWK2         4 00000D64 FFFFFFEC     F    5832  5847   5861
 CPWK3         4 00000D68 FFFFFFEC     F    5833  5848   5862
 CPWK4         4 00000D6C FFFFFFEC     F    5834  5849   5863
 CPWK5         4 00000D70 FFFFFFEC     F    5835  5851   5856   5864
 CPWK6         4 00000D74 FFFFFFEC     F    5836  5852   5857   5865   5872   5874
 CPWK7         4 00000D78 FFFFFFEC     F    5837  5850   5866
 CPXDPACT      4 000007F0 FFFFFFEC     F    4411  9664  10743  10898M 11324M
 CPXDPDLT      4 000007F4 FFFFFFEC     F    4412  9616  10693  10897M 10931M 11321M
 CPXDPLN       4 000007E8 FFFFFFEC     F    4409  9520  10601  10895M 11315M
 CPXDPNLN      4 000007EC FFFFFFEC     F    4410  9568  10647  10896M 10930M 11318M
 CPXFLAG       1 000007FD FFFFFFEC     R    4425  4429
 CPXSTATE      4 000007F8 FFFFFFEC     F    4419  4432   4432
 CV         4016 00000000 FFFFFFEE     J    2594  1402U
 CVABSRTN      4 0000088C FFFFFFEE     V    2408  2383
 CVABTMSG      4 000007CC FFFFFFEE     I    2368 62474B
 CVBLANKS    235 000004D8 FFFFFFEE     C    2188 13280  14330  15366  25955  26286  26964  31111  33205  33988  55442
                                                 55805  56840  57273  57867  61319
 CVBRMSK       1 00000751 FFFFFFEE     X    2324  2325   2326
 CVCFLAG       1 00000A00 FFFFFFEE     R    2489  2493   2498   2503   2508   2513
 CVCHKST       8 000009F0 FFFFFFEE     D    2479  2569   2569
 CVCHKST2      8 00000E28 FFFFFFEE     D    2572  2575   2575
 CVCOMRTN      4 0000087C FFFFFFEE     V    2404  2374
 CVDBGFLG      1 000004CC FFFFFFEE     R    2178  2182
 CVENCMD       4 000002D0 FFFFFFEE     F    1789 32338  32339M
 CVENT         4 0000074C FFFFFFEE     I    2322  8541B  8644B  8837B  9444B  9868B 11060B 11151B 11257B 11464B 12213B
                                                 12794B 12927B 13722B 13798B 14954B 15023B 16029B 16102B 16407B 17147B
                                                 17352B 18602B 19084B 20158B 20466B 21192B 21920B 22648B 23376B 24102B
                                                 24457B 24749B 24965B 25267B 25471B 25803B 26745B 27804B 28721B 29194B
                                                 29277B 30498B 30565B 30632B 30698B 30789B 30855B 30922B 30988B 31055B
                                                 31213B 31314B 31381B 31448B 31515B 31582B 31649B 31712B 31773B 31836B
                                                 31898B 31959B 32087B 32967B 33033B 33146B 33312B 33377B 33489B 33550B
                                                 33611B 33672B 33738B 33805B 33871B 33938B 34090B 34190B 34256B 34322B
                                                 34470B 34618B 34739B 35455B 35521B 35612B 35695B 36575B 36641B 36732B
                                                 36793B 36854B 36967B 37093B 37369B 37784B 37867B 38452B 38519B 38585B
                                                 38716B 38800B 39244B 39327B 39892B 39958B 40049B 40115B 40196B 40936B
                                                 41002B 41093B 41163B 41229B 41312B 41797B 42272B 42355B 43335B 43403B
                                                 43517B 43631B 43745B 43859B 43935B 44011B 44077B 44144B 44210B 44301B
                                                 44392B 45113B 45184B 45262B 45327B 45388B 45454B 45545B 45611B 45678B
                                                 45744B 45811B 45942B 46653B 46719B 46810B 46893B 47749B 47815B 47906B
                                                 47967B 48028B 48141B 48264B 48757B 48840B 49452B 49518B 49609B 49692B
                                                 50421B 50487B 50578B 50652B 50756B 51039B 51317B 51679B 52456B 52886B
                                                 53473B 54242B 54896B 55043B 55950B 56192B 56421B 56625B 56805B 57324B
                                                 57723B 57840B 58100B 58174B 58312B 58401B 58706B 58925B 58991B 59057B
                                                 59123B 59261B 59516B 59774B 60047B 60293B 60568B 60814B 61204B 61604B
                                                 62173B 62239B 62305B 62371B 62447B 62570B 63228B 63648B 64073B 64297B
                                                 64500B
1PROC     (PROC2193) (12:51) (15MAR04) Ordinary Symbol and Literal Cross Reference                                          Page  280
 CVENTBR       2 00000750 FFFFFFEE     I    2323  2324
 CVERRMSG      4 000007C8 FFFFFFEE     I    2367 24556B 24647B 24681B 24794B 25588B 25618B 63515B
 CVERROR       4 000007D6 FFFFFFEE     I    2372  2388B
 CVEXIRTN      4 0000077C FFFFFFEE     V    2352  2348
 CVEXNO        1 00000000 0000000D     T   11377 11377
 CVFCHRKBPR
               8 000004C9 FFFFFFEE         2093  2109   2109
 CVFCHRKBSE
               4 000004C9 FFFFFFEE         2098  2109   2109
 CVFCHRKCPR
               2 000004C9 FFFFFFEE         2115  2131   2131
 CVFCHRKCSE
               1 000004C9 FFFFFFEE         2120  2131   2131
 CVFCHRUBPR
             128 000004C9 FFFFFFEE         2049  2065   2065
 CVFCHRUBSE
              64 000004C9 FFFFFFEE         2054  2065   2065
 CVFCHRUCPR
              32 000004C9 FFFFFFEE         2071  2087   2087
 CVFCHRUCSE
              16 000004C9 FFFFFFEE         2076  2087   2087
 CVFL          1 000004C4 FFFFFFEE     R    1845  1849   1854   1859   1864   1869   1874   1879   1884
 CVFL2         1 000004C5 FFFFFFEE     R    1890  1894   1899   1904   1909   1914   1919   1924   1929
 CVFL3         1 000004C6 FFFFFFEE     R    1935  1939   1944   1949   1954   1959   1964   1969   1974
 CVFL4         1 000004C7 FFFFFFEE     R    1980  1984   1989   1994   1999   2004   2009   2014
 CVFL5         1 000004C8 FFFFFFEE     R    2020  2024   2029   2034   2039
 CVFL6         1 000004C9 FFFFFFEE     R    2045  2049   2054   2066   2071   2076   2088   2093   2098   2110   2115
                                                  2120   2132
 CVHEAP#       1 00000200 FFFFFFEE A   U    1751  1752
 CVINVRTN      4 00000888 FFFFFFEE     V    2407  2377
 CVJESFLG      1 000004CA FFFFFFEE     R    2138  2142
 CVLNKRGS      4 00000780 FFFFFFEE     F    2354  2329M  2355  41368M 41411M 41906M 50821M
 CVLNKRTN      4 000007B0 FFFFFFEE     U    2355  2344M
 CVLOCK1       1 00000088 FFFFFFEE     R    1496  1500   1505
 CVLOCK2       1 00000089 FFFFFFEE     R    1510  1514
 CVLOCK3       1 0000008A FFFFFFEE     R    1519  1523
 CVLOCK4       1 0000008B FFFFFFEE     R    1528  1532
 CVLOGMOD      1 00000068 FFFFFFEE     R    1483  1487
 CVLOWTBL      4 000008AC FFFFFFEE     V    2415 54421  55209  56260
 CVMACH        1 00000067 FFFFFFEE     R    1443  1447   1452   1457   1462   1467   1472   1477
 CVMAXLNO      4 0000015C FFFFFFEE     A    1637 37186  47278
 CVMILRTN      4 00000884 FFFFFFEE     V    2406  2386
 CVNOARTN      4 00000890 FFFFFFEE     V    2409  2380
 CVNWDATE      4 00000608 FFFFFFEE     F    2211  2215   2215
 CVNWMPG#      1 00000008 FFFFFFEE A   U    2213  2214
 CVONE         4 000004D0 FFFFFFEE     F    2186 52355  52390
 CVPBINFO      4 00000268 FFFFFFEE     A    1739  8569M  8572   8670
 CVPFXRTN      1 00000000 00000000 A   T    2352  2352
 CVPGFLAG      1 00000A01 FFFFFFEE     R    2519  2523   2528   2533
 CVPIOSZ       1 00004F80 FFFFFFEE A   U    1582  1584
 CVPPDBQH      4 0000009C FFFFFFEE     A    1540  1541
 CVPSFNO       1 000003E9 FFFFFFEE A   N    1704  1706
 CVPSLNO       1 000007CF FFFFFFEE A   N    1705  1706
 CVPXSZ        1 00000008 FFFFFFEE A   U    1583  1584
 CVR          12 0000000C 00000001 A   #    1321  1402U
 CVRKEY        1 00000008 FFFFFFEE A   U    2277  2278
 CVSEGRTN      4 00000880 FFFFFFEE     V    2405  2369
 CVSTACK#      1 00000080 FFFFFFEE A   U    1743  1744
 CVSTART       4 00000000 FFFFFFEE     C    1416  2587
1PROC     (PROC2193) (12:51) (15MAR04) Ordinary Symbol and Literal Cross Reference                                          Page  281
 CVTRC         4 00000768 FFFFFFEE     I    2344  2330B 41369B 41412B 41907B 50822B
 CVTRCRTN      4 00000778 FFFFFFEE     V    2351  2345
 CVUSFNO       1 00000001 FFFFFFEE A   N    1711  1713
 CVUSLNO       1 000003E7 FFFFFFEE A   N    1712  1713
 CVVOL#        1 00000005 FFFFFFEE A   U    2562  2563
 CVWTOFACTION
              16 000004CB FFFFFFEE         2167 61808M
 CVWTOFLG      1 000004CB FFFFFFEE     R    2148  2152   2157   2162   2167   2172  61780M 61936M
 CVWTOFNOPFX
              64 000004CB FFFFFFEE         2157 61786M
 CVWTOFTAPE
               8 000004CB FFFFFFEE         2172 61860M
 CVWTOFWTL
             128 000004CB FFFFFFEE         2152 61834M
 CVWTOLID      4 00000730 FFFFFFEE     F    2304 61929
 CVWTOSGP      4 00000748 FFFFFFEE     V    2311 61924
 DEBUGSG       1 00000000 00000000 A   T    2305  2305
 DESRTRN       1 00000080 FFFFFFEC A   U    6394 25724  41599  50964
 DEV          12 00000000 FFFFFFEB     J    4943  4951
 DEVMAX#       1 00000002 FFFFFFEC A   U    4894  4951
 DEVTYPE       1 00000001 FFFFFFEB     R    4911  4920   4930
 DISREXIT      2 000090AE 00000001     H   52404 51719B
 DLGEXIT       2 000010C6 00000001     H   12741 12265B
 DOMEXIT       2 0000110C 00000001     H   12854 12823B
 DOTTBL        1 00000000 00000000 A   T    2421  2421
 DRBUFL#       1 00000FA0 FFFFFFC9 A   N   51648 51754  51771
 DRENCFLG      1 00000F9F FFFFFFEC     R    6349  6353   6358   6363   6368   6373
 DRENPROT      1 00000F9E FFFFFFEC     R    6336  6344
 DRLNO1        4 00000000 FFFFFFC9     F   51557 51739M 51815
 DRLNO2        4 00000004 FFFFFFC9     F   51558 51742M 51829  51880
 DRSEG         2 000090BC 00000001     H   52442 54046
 DRSG         60 000000F4 FFFFFFC9     X   51647 51779  51794  51923  52100  52153  52195
 DRSGCOD       1 000000F4 FFFFFFC9     R   51564 51573  51583  51593  51603  51613  51623  51633
 DRTEXT      235 00000008 FFFFFFC9     C   51559 51844  51849
 DRWA        304 00000000 FFFFFFC9     J   51655 51676  51705U 52421  52423  52424
 DSNON        40 00000E90 FFFFFFEC     C    6069  6070
 DSNWADSN     44 00000E5C FFFFFFEC     C    6056  6057   6058   6059   6068   6076   6307   6313   6315   6321   6324
                                                  6326   6329   6378
 DSNWAF4       1 00000F37 FFFFFFEC     R    6124  6128   6133   6138   6143   6148   6153   6158   6163
 DSNWAF5       1 00000F38 FFFFFFEC     R    6169  6173   6178   6183   6188   6193   6198   6203   6208
 DSNWAF6       1 00000F39 FFFFFFEC     R    6214  6218   6223   6228   6233   6238   6243   6248   6253
 DSNWAF7       1 00000F3A FFFFFFEC     R    6259  6263   6268   6273   6278
 DSNXG         1 00000004 FFFFFFEC A   U    6061  6063
 DSNXGL        1 00000003 FFFFFFEC A   U    6062  6063
 DSNXU         1 00000007 FFFFFFEC A   U    6063  6065
 DSNXUL        1 00000004 FFFFFFEC A   U    6064  6065
 DSSIZ         1 00000108 FFFFFFEC A   U    6307  6315   6324   6329
 DTB           1 00000000 00000038     T   26587 26587
 DWA         444 00000000 FFFFFFDA     J   12189 12210  12239U 12249M 12249  12250M 12250  12251M 12255  12763  12765
                                                 12766
 DWAARGP       4 00000004 FFFFFFDA     A   12168 12254M 12409  12426  12443  12460
 DWADPMSG      4 00000014 FFFFFFDA     A   12175 12440M
 DWADPOPT      4 00000024 FFFFFFDA     A   12177 12474M
 DWADPPRM      4 0000001C FFFFFFDA     A   12176 12457M
 DWADPRC       4 0000002C FFFFFFDA     A   12178 12490M
 DWADPRT       4 00000034 FFFFFFDA     A   12179 12506M
 DWADPTYP      4 0000000C FFFFFFDA     A   12174 12423M
 DWANARGS      4 00000008 FFFFFFDA     F   12169 12253M 12293
 DWAPARMS      4 0000000C FFFFFFDA     F   12173 12508
1PROC     (PROC2193) (12:51) (15MAR04) Ordinary Symbol and Literal Cross Reference                                          Page  282
 DWARC       128 0000003C FFFFFFDA     C   12181 12484  12489
 DWATEXT     256 000000BC FFFFFFDA     C   12182 12500  12505
 EBCTBL        1 00000000 00000000 A   T    2417  2417
 EBCTBL7       1 00000000 00000000 A   T    2420  2420
 ECBLIST       1 00000000 00000000 A   T    2280  2280
 ENDLNO        1 00000000 00000010     T   11381 11381  37039  48213
 EPARTBL       1 00000000 00000000 A   T    2412  2412
 FSR           0 00000000 00000001 A   #    1231  8536   8600M  8639   8755M  8770M  8832   8985M  9439   9698M  9862
                                                 10975M 11055  11126M 11146  11217M 11252  11352M 11458  12104M 12207
                                                 12763M 12789  12871M 12921  13678M 13717  13758M 13792  14910M 14949
                                                 14990M 15017  15985M 16024  16065M 16096  16278M 16401  17038M 17141
                                                 17280M 17305M 17346  18488M 18596  19016M 19036M 19078  20068M 20153
                                                 20406M 20460  21158M 21186  21884M 21914  22612M 22642  23340M 23370
                                                 24068M 24097  24355M 24451  24710M 24744  24820M 24959  25198M 25261
                                                 25426M 25466  25626M 25655M 25685M 25797  26561M 26739  27695M 27798
                                                 28492M 28715  29142M 29189  29230M 29271  30146M 30493  30540M 30560
                                                 30607M 30627  30673M 30693  30764M 30784  30830M 30850  30897M 30917
                                                 30963M 30983  31030M 31050  31188M 31208  31289M 31309  31356M 31376
                                                 31423M 31443  31490M 31510  31557M 31577  31624M 31644  31687M 31707
                                                 31748M 31768  31811M 31831  31873M 31893  31934M 31954  31995M 32081
                                                 32645M 32962  33008M 33028  33099M 33140  33287M 33307  33352M 33372
                                                 33464M 33484  33525M 33545  33586M 33606  33647M 33667  33713M 33733
                                                 33780M 33800  33846M 33866  33913M 33933  34065M 34085  34165M 34185
                                                 34231M 34251  34297M 34317  34445M 34465  34593M 34613  34654M 34733
                                                 35373M 35450  35496M 35516  35587M 35607  35648M 35689  36448M 36570
                                                 36616M 36636  36707M 36727  36768M 36788  36829M 36849  36942M 36962
                                                 37003M 37088  37336M 37363  37732M 37779  37820M 37861  38355M 38447
                                                 38494M 38514  38560M 38580  38691M 38711  38752M 38794  39192M 39239
                                                 39280M 39321  39804M 39887  39933M 39953  40024M 40044  40090M 40110
                                                 40151M 40190  40824M 40931  40977M 40997  41068M 41088  41138M 41158
                                                 41204M 41224  41265M 41307  41563M 41791  42220M 42267  42308M 42349
                                                 43072M 43330  43378M 43398  43492M 43512  43606M 43626  43720M 43740
                                                 43834M 43854  43910M 43930  43986M 44006  44052M 44072  44119M 44139
                                                 44185M 44205  44276M 44296  44329M 44345M 44386  44910M 45108  45159M
                                                 45179  45237M 45257  45302M 45322  45363M 45383  45429M 45449  45520M
                                                 45540  45586M 45606  45653M 45673  45719M 45739  45786M 45806  45847M
                                                 45936  46571M 46648  46694M 46714  46785M 46805  46846M 46887  47621M
                                                 47744  47790M 47810  47881M 47901  47942M 47962  48003M 48023  48116M
                                                 48136  48177M 48258  48705M 48752  48793M 48834  49370M 49447  49493M
                                                 49513  49584M 49604  49645M 49686  50324M 50416  50462M 50482  50553M
                                                 50573  50627M 50647  50688M 50750  50929M 51033  51279M 51312  51533M
                                                 51673  52421M 52451  52819M 52880  53436M 53467  54023M 54236  54856M
                                                 54891  55006M 55038  55920M 55945  56160M 56187  56391M 56416  56592M
                                                 56620  56714M 56800  57290M 57319  57677M 57692M 57718  57768M 57835
                                                 58072M 58095  58142M 58169  58281M 58307  58372M 58396  58674M 58701
                                                 58839M 58920  58966M 58986  59032M 59052  59098M 59118  59177M 59256
                                                 59485M 59511  59722M 59768  60014M 60041  60260M 60287  60535M 60562
                                                 60781M 60808  61056M 61198  61529M 61598  62076M 62168  62214M 62234
                                                 62280M 62300  62346M 62366  62407M 62442  62489M 62564  63120M 63222
                                                 63526M 63546M 63642  64012M 64032M 64068  64257M 64292  64389M 64404M
                                                 64494  64786M 64806M
 GETARRAY      1 00000000 00000020     T   19049 19049
 GETCORE       1 00000000 00000002     T    9334  9334
 GETHEAP       1 00000000 0000001E     T   18512 18512  19050  25718  50953
 GETLINE       1 00000000 0000003B     T   27712 27712  54048
 GETPROCP      2 0000008C 00000001     H    8630  8626
 GETUID        1 00000000 0000005B     T   62508 62508
 GTACTNO       4 00000008 FFFFFFD5     F   20432 20553M 20607M 20607  20623  21279M 21333M 21333  21349  22007M 22061M
                                                 22061  22077  22735M 22789M 22789  22805  23463M 23517M 23517  23533
1PROC     (PROC2193) (12:51) (15MAR04) Ordinary Symbol and Literal Cross Reference                                          Page  283
 GTFRST        1 00000000 00000013     T   12124 12124  24375  28511  64828
 GTINTVAL      1 00000000 00000029     T   25714 25714
 GTLAST        1 00000000 00000023     T   24380 24380
 GTLINE        1 00000000 00000022     T   24379 24379
 GTLNO         4 0000000C FFFFFFD5     F   20433 20533M 20622  20757  21259M 21348  21483  21987M 22076  22211  22715M
                                                 22804  22939  23443M 23532  23667
 GTNEXT        1 00000000 00000024     T   24381 24381  59212  64829
 GTPREV        1 00000000 00000025     T   24382 24382
 GTPRMCNT      4 00000000 FFFFFFD5     F   20430 20498M 20784  21041  21224M 21510  21767  21952M 22238  22495  22680M
                                                 22966  23223  23408M 23694  23951
 GTRETPTR      4 00000004 FFFFFFD5     F   20431 20499M 21225M 21953M 22681M 23409M
 GTTEXT      235 00000010 FFFFFFD5     C   20434 20621  21347  22075  22803  23531
 GTWA        251 00000000 FFFFFFD5     J   20441 20463  20492U 21158  21160  21161  21189  21218U 21884  21886  21887
                                                 21917  21946U 22612  22614  22615  22645  22674U 23340  23342  23343
                                                 23373  23402U 24068  24070  24071
 HIBAL         1 00000000 FFFFFFFF     J     691   707    720    733    746    759    772    785    798    811    824
                                                   837    850    863    876    889    902
 INITPROC      2 00000038 00000001     H    8527  8523
 INVALID       1 00000000 00000000 A   T    2407  2407
 JCBAFL        1 00000062 FFFFFFE9     R    6655  6659   6664   6669   6674   6679   6684   6689   6694
 JCBBFL        1 00000063 FFFFFFE9     R    6700  6704   6709   6714   6719   6724   6729   6734
 JCBBILLX      8 00000088 FFFFFFE9     D    6785  6793   6793
 JCBRSCF1      1 00000064 FFFFFFE9     R    6740  6744   6749   6754
 JCBSFLG1      1 00000065 FFFFFFE9     R    6760  6764   6769
 JCBWFL        1 00000060 FFFFFFE9     R    6584  6588   6593   6598   6603   6608   6613   6618   6623   6651
 JCBWWFL       1 00000061 FFFFFFE9     R    6629  6633   6638   6643   6648
 KEYADD        1 00000000 00000019     T   16324 16324  20098
 KEYDEL        1 00000000 00000016     T   16309 16309  17064
 KEYGET        1 00000000 00000017     T   16319 16319  18513
 KEYPUT        1 00000000 0000001A     T   16326 16326  20100
 KLGARGP       4 00000000 FFFFFFD8     A   16363 16454M 16638  17389M 17401  17824  18126  19131M 19315  19403  19435
 KLGCOUNT      4 0000000C FFFFFFD8     F   16367 18131M 18164
 KLGHEAP       4 00000008 FFFFFFD8     A   16366 17915M 18088  18143  18158  19538M 19692
 KLGKEY        6 00000018 FFFFFFD8     C   16370 16710M 16725  17063  17896M 17934  18510  19387M 19430  19603  20093
 KLGLEN        4 00000014 FFFFFFD8     F   16369 16725  16726M 16728
 KLGNARGS      4 00000004 FFFFFFD8     F   16364 16453M 16495  16890  17388M 17595  17678  18243  18340  19130M 19920
 KLGUPDCT      4 00000010 FFFFFFD8     F   16368 18114M 18249  19428M 19622M 19622  19651
 KLOGINWA     30 00000000 FFFFFFD8     J   16377 16404  16433U 16437  16445U 17038  17040  17041  17349  17378U 18488
                                                 18490  18491  19081  19110U 19114  20068  20070  20071
 KRBCLOCK      4 0000000C FFFFFFE6     F    7086 19608M
 KRBKEY        6 00000004 FFFFFFE6     C    7085 17932  17934M 19603M
 KRBKL#        1 00000006 FFFFFFE6 A   N    7081  7085
 KRBLEN        4 00000000 FFFFFFE6     F    7084 17932  17933M 18115  19602M
 KRBLIST       1 00000012 FFFFFFE6     C    7088 18117
 KRBMXDL#      1 00000C80 FFFFFFE6 A   N    7082 17916  17942  18519
 KRBREC       18 00000000 FFFFFFE6     J    7095 17916  17930U 17942  18111U 18519  18521  18801  18815  19600U
 KRBUC         2 00000010 FFFFFFE6     H    7087 18113  19628M 19671M
 KWA         404 00000000 FFFFFFD9     J   12897 12924  12953U 12957  12965U 13678  13680  13681  13795  13824U 14910
                                                 14912  14913  15020  15049U 15985  15987  15988  16099  16128U 16132
                                                 16140U 16278  16280  16281  19122U
 KWAARGP       4 00000000 FFFFFFD9     A   12886 12974M 13131  13235  13835M 14181  14285  15060M 15217  15321  15411
                                                 15442
 KWAKEY       64 00000008 FFFFFFD9     C   12889 13280M 13308M 13338  14330M 14358M 14388  15366M 15394M 15437  15499
                                                 16308
 KWANARGS      4 00000004 FFFFFFD9     F   12887 12973M 13015  13530  13834M 13979  14062  14659  14762  15059M 15101
                                                 15837  16142M 16160  19172
 KWAUREQ     332 00000048 FFFFFFD9     X   12890 13323  14373  14532  15456
 KWRDSTRT      1 00000005 FFFFFFE8     U    6831  6993   6993
 KWRSTART      4 00000000 FFFFFFE8     F    6826  7007
1PROC     (PROC2193) (12:51) (15MAR04) Ordinary Symbol and Literal Cross Reference                                          Page  284
 KWRUSER       3 00000000 FFFFFFE8     C    6827  6829   6829
 LFBLK         4 00000008 FFFFFFD4     F   24422 24581M
 LFLIM         4 00000010 FFFFFFD4     F   24424 24584M 24588
 LFNDX         4 0000000C FFFFFFD4     F   24423 24582M 24586M 24587
 LFPATHCB      4 00000004 FFFFFFD4     F   24421 24525M 24528  24619
 LFPATHNO      4 00000000 FFFFFFD4     F   24420 24517M 24520
 LFWA         20 00000000 FFFFFFD4     J   24431 24454  24483U 24710  24712  24713
 LOCALTOD      1 00000000 00000018     T   16323 16323  20097
 LOCATRTN      1 00000000 FFFFFFEC A   U    6398 25724  41599  50964
 LOWTBL        1 00000000 00000000 A   T    2415  2415
 LRTRIM        1 00000000 00000015     T   16307 16307  17062  18509  20092  27715  32039  45891  56752
 LSR           8 00000008 00000001 A   #    1269  8536   8600M  8639   8770M  8832   8985M  9439   9698M  9862  10975M
                                                 11055  11126M 11146  11217M 11252  11352M 11458  12104M 12207  12763M
                                                 12789  12871M 12921  13678M 13717  13758M 13792  14910M 14949  14990M
                                                 15017  15985M 16024  16065M 16096  16278M 16401  17038M 17141  17305M
                                                 17346  18488M 18596  19036M 19078  20068M 20153  20406M 20460  21158M
                                                 21186  21884M 21914  22612M 22642  23340M 23370  24068M 24097  24355M
                                                 24451  24710M 24744  24820M 24959  25198M 25261  25426M 25466  25685M
                                                 25797  26561M 26739  27695M 27798  28492M 28715  29142M 29189  29230M
                                                 29271  30146M 30493  30540M 30560  30607M 30627  30673M 30693  30764M
                                                 30784  30830M 30850  30897M 30917  30963M 30983  31030M 31050  31188M
                                                 31208  31289M 31309  31356M 31376  31423M 31443  31490M 31510  31557M
                                                 31577  31624M 31644  31687M 31707  31748M 31768  31811M 31831  31873M
                                                 31893  31934M 31954  31995M 32081  32645M 32962  33008M 33028  33099M
                                                 33140  33287M 33307  33352M 33372  33464M 33484  33525M 33545  33586M
                                                 33606  33647M 33667  33713M 33733  33780M 33800  33846M 33866  33913M
                                                 33933  34065M 34085  34165M 34185  34231M 34251  34297M 34317  34445M
                                                 34465  34593M 34613  34654M 34733  35373M 35450  35496M 35516  35587M
                                                 35607  35648M 35689  36448M 36570  36616M 36636  36707M 36727  36768M
                                                 36788  36829M 36849  36942M 36962  37003M 37088  37336M 37363  37732M
                                                 37779  37820M 37861  38355M 38447  38494M 38514  38560M 38580  38691M
                                                 38711  38752M 38794  39192M 39239  39280M 39321  39804M 39887  39933M
                                                 39953  40024M 40044  40090M 40110  40151M 40190  40824M 40931  40977M
                                                 40997  41068M 41088  41138M 41158  41204M 41224  41265M 41307  41563M
                                                 41791  42220M 42267  42308M 42349  43072M 43330  43378M 43398  43492M
                                                 43512  43606M 43626  43720M 43740  43834M 43854  43910M 43930  43986M
                                                 44006  44052M 44072  44119M 44139  44185M 44205  44276M 44296  44345M
                                                 44386  44910M 45108  45159M 45179  45237M 45257  45302M 45322  45363M
                                                 45383  45429M 45449  45520M 45540  45586M 45606  45653M 45673  45719M
                                                 45739  45786M 45806  45847M 45936  46571M 46648  46694M 46714  46785M
                                                 46805  46846M 46887  47621M 47744  47790M 47810  47881M 47901  47942M
                                                 47962  48003M 48023  48116M 48136  48177M 48258  48705M 48752  48793M
                                                 48834  49370M 49447  49493M 49513  49584M 49604  49645M 49686  50324M
                                                 50416  50462M 50482  50553M 50573  50627M 50647  50688M 50750  50929M
                                                 51033  51279M 51312  51533M 51673  52421M 52451  52819M 52880  53436M
                                                 53467  54023M 54236  54856M 54891  55006M 55038  55920M 55945  56160M
                                                 56187  56391M 56416  56592M 56620  56714M 56800  57290M 57319  57692M
                                                 57718  57768M 57835  58072M 58095  58142M 58169  58281M 58307  58372M
                                                 58396  58674M 58701  58839M 58920  58966M 58986  59032M 59052  59098M
                                                 59118  59177M 59256  59485M 59511  59722M 59768  60014M 60041  60260M
                                                 60287  60535M 60562  60781M 60808  61056M 61198  61529M 61598  62076M
                                                 62168  62214M 62234  62280M 62300  62346M 62366  62407M 62442  62489M
                                                 62564  63120M 63222  63546M 63642  64032M 64068  64257M 64292  64404M
                                                 64494  64806M
 LTBKLEN       4 0000000C FFFFFFD3     A   24845 25059M
 LTBKLOC       4 00000008 FFFFFFD3     A   24844 25060M 25103
 LTCSG        60 00000010 FFFFFFD3     X   24933 25081  25096  25169  25388  25401
 LTCSGCOD      1 00000010 FFFFFFD3     R   24850 24859  24869  24879  24889  24899  24909  24919
 LTOCLINE    470 00000000 FFFFFFD2     C   25235 25309
1PROC     (PROC2193) (12:51) (15MAR04) Ordinary Symbol and Literal Cross Reference                                          Page  285
 LTOCRTN       2 000032AA 00000001     H   25251 25725
 LTOCWA      470 00000000 FFFFFFD2     J   25242 25264  25293U 25426  25428  25429
 LTPATHCB      4 00000004 FFFFFFD3     A   24843 25051M 25567
 LTPATHNO      4 00000000 FFFFFFD3     F   24842 25043M 25046
 LTSEG         2 00003324 00000001     H   25457 25453  25721
 LTWA         76 00000000 FFFFFFD3     J   24940 24962  24991U 24995  25003U 25011M 25011  25198  25200  25201  25305U
                                                 25501U
 MAKEITOD      1 00000000 00000009     T   11368 11368  16316  18505  32037  34692  37047  41603  45890  48218  50968
                                                 62506
 MAKELTOD      1 00000000 00000008     T   11367 11367  12136  24376  28522  32038  56739
 MALL          1 00000000 00000005     T   10999 10999  11030  13700  14932  16007  29173  30477  32946  35434  36554
                                                 37763  38431  39223  39871  40915  42251  43298  43314  45091  46632
                                                 47727  48736  49431  50400  58904  62152
 MARKHEAP      1 00000000 0000001D     T   18511 18511  20095
 MATCHBUF      2 0000B2CE 00000001     H   63632 28520
 MATCHCHK      2 0000B434 00000001     H   64059 64821
 MATCHLNO      2 0000B4BA 00000001     H   64283 64822
 MAXSTRLN      1 00000100 FFFFFFE1 A   N    8154  8155   8182   9743   9745   9746   9747   9748  48211  54043
 MBBUF1        4 00000000 FFFFFFC2     F   63605 63687M 63696  63841  64153  64329
 MBBUF1A       4 00000010 FFFFFFC2     F   63609 63691M 64330
 MBBUF2        4 00000008 FFFFFFC2     F   63607 63689M 63768  63842  63989  64156  64359
 MBBUF2A       4 00000014 FFFFFFC2     F   63610 63692M 64360
 MBCNT1        4 0000001C FFFFFFC2     F   63612 63745M 63761M 63873
 MBCNT2        4 00000020 FFFFFFC2     F   63613 63817M 63833M 63893
 MBCOUNT       4 00000018 FFFFFFC2     F   63611 63693M 63739  63761  63811  63833
 MBDONE        2 0000B422 00000001     H   64010 63957B
 MBLEN1        4 00000004 FFFFFFC2     F   63606 63688M 63697  64154
 MBLEN2        4 0000000C FFFFFFC2     F   63608 63690M 63769  64157
 MBNDX1        4 00000024 FFFFFFC2     F   63614 63849M 63849  63873  63984  63988M
 MBNDX2        4 00000028 FFFFFFC2     F   63615 63856M 63856  63893  63972  63976M 63996M 63996
 MBWA         92 00000000 FFFFFFC2     J   63623 63645  63674U 63686M 63686  63927  63946  64032  64034  64035  64101U
                                                 64325U
 MILERR        1 00000000 00000000 A   T    2406  2406
 MINFARGC      4 00000000 FFFFFFD1     F   25768 25841M 26234  26442
 MINFARGP      4 00000004 FFFFFFD1     A   25769 25842M 26347
 MINFARG1      8 00000008 FFFFFFD1     C   25770 25947M 25955M 25970  26006  26287M 26301  26333  26338M 26339  26339
                                                 26576
 MINFDATA    256 00000020 FFFFFFD1     C   25772 26037  26042  26149  26261  26266
 MINFKEY      16 00000010 FFFFFFD1     C   25771 26043  26065M 26065  26121  26126  26251M 26252  26286M 26287M 26301
                                                 26333  26338M 26339M 26384
 MINFOWA     288 00000000 FFFFFFD1     J   25779 25800  25829U 25839M 25839  25840M 25840  26561  26563  26564
 MKLOGCNT      4 00000010 FFFFFFD7     F   17116 17199M 17199  17246  17247M 17277
 MKLOGLEN      4 00000000 FFFFFFD7     F   17112 17177M 17219
 MKLOGLST      2 00001DC2 00000001     H   17131 18522
 MKLOGTMP    336 00000014 FFFFFFD7     X   17117 17235  17240
 MKLOGWA     356 00000000 FFFFFFD7     J   17124 17144  17173U 17305  17307  17308
 MLACTNO1      4 00000030 FFFFFFCF     F   27754 27870M 27870  27950M 28034  28160  28272
 MLACTNO2      4 00000034 FFFFFFCF     F   27755 27877M 27877  27985M 28077  28179  28291
 MLBUFSZ       1 00006000 FFFFFFCF A   U   27770 28513  28516
 MLBUF1        4 00000040 FFFFFFCF     F   27758 28125M 28152  28189  28213  28237  28264  28301
 MLBUF1A       4 00000044 FFFFFFCF     F   27759 28132M 28153  28193  28217  28241  28265  28305
 MLBUF2        4 00000050 FFFFFFCF     F   27762 28139M 28171  28191  28215  28239  28283  28303
 MLBUF2A       4 00000054 FFFFFFCF     F   27763 28146M 28172  28194  28218  28242  28284  28306
 MLCNT1        4 00000038 FFFFFFCF     F   27756 28167M 28279M
 MLCNT2        4 00000048 FFFFFFCF     F   27760 28186M 28298M
 MLDONE        2 00003D5A 00000001     H   28472 27843B 28069B 28112B
 MLLBUFSZ      1 00001000 FFFFFFCF A   U   27771 27772  28515
 MLLEN1        4 0000003C FFFFFFCF     F   27757 28166M 28190  28214  28238  28278M 28302
 MLLEN2        4 0000004C FFFFFFCF     F   27761 28185M 28192  28216  28240  28297M 28304
1PROC     (PROC2193) (12:51) (15MAR04) Ordinary Symbol and Literal Cross Reference                                          Page  286
 MLLNO1        4 00000028 FFFFFFCF     F   27752 27858M 28031  28151  28263
 MLLNO2        4 0000002C FFFFFFCF     F   27753 27861M 28074  28170  28282
 MLMAXCNT      1 000003E8 FFFFFFCF A   U   27769 27772  28267  28286  28307
 MLNOMAT1      4 0000014C FFFFFFCF     F   27767 28350M 28385
 MLNOMAT2      4 00000150 FFFFFFCF     F   27768 28351M 28433
 MLRETPTR      4 00000058 FFFFFFCF     F   27764 27844M 28349
 MLTEMPBF    235 00000060 FFFFFFCF     C   27766 28032  28075
 MLTEMPLN      4 0000005C FFFFFFCF     F   27765 28031M 28033  28074M 28076
 MLWA        340 00000000 FFFFFFCF     J   27779 27801  27830U 28492  28494  28495
 MNULL         1 00000000 00000050     T   43103 43103
 MPARM         1 00000000 00000046     T   32856 32856  32871  36539  38416  44941  44956  44971  47712
 MPINT         1 00000000 00000040     T   30207 30207  30327  30342  30357  30372  30387  32691  32886  35419  36494
                                                 36509  39841  40870  43283  44986  45016  46617  47667  47682  49416
                                                 50370
 MPLNO         1 00000000 00000041     T   30417 30417  30447  36524  47697
 MSHBUF      235 00000144 FFFFFFD0     C   26707 26828  26833
 MSHDRWA     559 00000000 FFFFFFD0     J   26714 26742  26771U 26781M 26781  26782M 26782  26783M 26783  27695  27697
                                                 27698
 MSHLINE     235 00000008 FFFFFFD0     C   26614 26856  26861  26914  26921M 26935  26995  27002  27065  27376  27381
 MSHLNO        4 00000004 FFFFFFD0     F   26613 26817M 26847  27366  27367M 27400M
 MSHNAMEP      4 000000F4 FFFFFFD0     F   26615 27067M 27211M 27239
 MSHSEP        2 000000FC FFFFFFD0     C   26616 27340M 27480  27485  27498M
 MSHSG        60 00000108 FFFFFFD0     X   26706 26841  26950  26979  27277  27300  27332  27493  27520
 MSHSGCOD      1 00000108 FFFFFFD0     R   26623 26632  26642  26652  26662  26672  26682  26692
 MSHSGLENF
               4 00000114 FFFFFFD0     A   26698 27356  27544
 MSHSGLOC      4 00000128 FFFFFFD0     A   26702 27539
 MSHSUBJP      4 00000100 FFFFFFD0     F   26617 27235M 27305
 MTOKEN        1 00000000 0000003F     T   30177 30177  30192  30222  30237  30252  30267  30282  30297  30312  30402
                                                 30432  30462  32676  32706  32721  32736  32751  32766  32781  32796
                                                 32811  32826  32841  32901  32916  32931  35404  36479  38386  38401
                                                 39826  39856  40855  40885  40900  43118  43133  43148  43163  43178
                                                 43193  43208  43223  43238  43253  43268  45001  45031  45046  45061
                                                 45076  46602  47652  49401  50355  50385  58859  58874  58889  62107
                                                 62122  62137
 NBLTBL        1 00000000 00000000 A   T    2419  2419
 NCLSBAD       2 00003FA8 00000001     H   29180 29174
 NCLSERR       4 00003F2A 00000001     I   28975 28918B
 NCLSEXIT      4 00003F62 00000001     I   29114 28778B
 NCLSPRT       4 00003F80 00000001     F   29162 32028
 NCLSRET       2 00003F36 00000001     H   28983 28799B 28971B 28977B
 NCTLABRT      2 000045DE 00000001     H   30551 30193
 NCTLBAD       2 000049DE 00000001     H   31945 30478
 NCTLBSBS      2 000046FA 00000001     H   30974 30283
 NCTLBSD       2 000046CE 00000001     H   30908 30268
 NCTLCLRVT
               2 00004982 00000001     H   31822 30463
 NCTLCOM       2 00004218 00000001     H   29975 29731B 29832B
 NCTLEOF       2 000045AC 00000001     H   30484 30178
 NCTLERR       2 00004140 00000001     I   29613 29356B 29556B 29601B
 NCTLEXIT      4 00004248 00000001     I   30118 29334B
 NCTLGETM      2 000048EE 00000001     H   31635 30403
 NCTLGETT      2 000047BA 00000001     H   31199 30313
 NCTLGETVT
               2 0000494E 00000001     H   31759 30433
 NCTLIAC       2 00004676 00000001     H   30775 30238
 NCTLINV       4 00004138 00000001     I   29605 29464B 29484B
 NCTLLNOK      4 00004196 00000001     I   29736 29504B
 NCTLMKPF      2 0000485E 00000001     H   31434 30358
1PROC     (PROC2193) (12:51) (15MAR04) Ordinary Symbol and Literal Cross Reference                                          Page  287
 NCTLMSG       4 0000414C 00000001     I   29628 29524B
 NCTLNIAC      2 000046A2 00000001     H   30841 30253
 NCTLNWT       2 00004610 00000001     H   30618 30223
 NCTLNXPF      2 0000482E 00000001     H   31367 30343
 NCTLPRPF      2 000047FE 00000001     H   31300 30328
 NCTLPRT       4 00004264 00000001     F   30166 32033
 NCTLRET       4 000041D8 00000001     I   29837 29625B 29630B
 NCTLSETM      2 00004922 00000001     H   31698 30418
 NCTLSETT      2 00004726 00000001     H   31041 30298
 NCTLSETVT
               2 000049B2 00000001     H   31884 30448
 NCTLSNPF      2 0000488E 00000001     H   31501 30373
 NCTLWAIT      2 0000463C 00000001     H   30684 30208
 NCTLXXPF      2 000048BE 00000001     H   31568 30388
 NDETRNG       1 00000000 0000002C     T   25723 25723  41598  50963
 NOACTION      1 00000000 00000000 A   T    2409  2409
 NOPHOSWA    512 00000000 FFFFFFCD     J   33122 33143  33172U 33287  33289  33290
 NOPKEEPT      2 00005308 00000001     H   34242 32932
 NOPNASC8      2 000052DC 00000001     H   34176 32917
 NOPNBAD       2 000053F4 00000001     H   34604 32947
 NOPNBSBS      2 000051E4 00000001     H   33857 32797
 NOPNBSD       2 000051B8 00000001     H   33791 32782
 NOPNCHAR      2 000050DC 00000001     H   33475 32707
 NOPNERR       4 00004BF6 00000001     I   32367 32285B 32305B
 NOPNEXIT      4 00004C64 00000001     I   32617 32144B
 NOPNHOST      2 00004FDE 00000001     H   33130 32677
 NOPNIAC       2 00005160 00000001     H   33658 32752
 NOPNIN        2 00005334 00000001     H   34308 32857
 NOPNLINE      2 00005108 00000001     H   33536 32722
 NOPNNIAC      2 0000518C 00000001     H   33724 32767
 NOPNNWT       2 00004F78 00000001     H   32953 32902
 NOPNOUT       2 00005394 00000001     H   34456 32872
 NOPNPASS      2 0000506E 00000001     H   33298 32842
 NOPNPORT      2 0000509C 00000001     H   33363 32692
 NOPNPRIV      2 000052A0 00000001     H   34076 32827
 NOPNPRT       4 00004C80 00000001     F   32665 34685
 NOPNRET       2 00004C02 00000001     H   32375 32175B 32325B 32363B 32369B
 NOPNTERM      2 00005210 00000001     H   33924 32812
 NOPNVTAM      2 00005134 00000001     H   33597 32737
 NOPNWAIT      2 00004FA4 00000001     H   33019 32887
 NOWLOG        2 0000AC18 00000001     H   61494 61468B
 NPARTBL       1 00000000 00000000 A   T    2413  2413
 NPATALLO      1 00000000 00000047     T   34683 34683
 NPATCLS       1 00000000 00000044     T   32031 32031  34691
 NPATCTRL      1 00000000 00000043     T   32030 32030
 NPATGET       1 00000000 00000042     T   32026 32026  37033  41579
 NPATOPEN      1 00000000 00000048     T   34689 34689
 NPATREAD      1 00000000 00000049     T   37036 37036
 NPATTALK      1 00000000 0000004B     T   41587 41587
 NPATVIEW      1 00000000 0000004D     T   41592 41592
 NRDBAD        2 0000577A 00000001     H   35598 35435
 NRDERR        4 00005646 00000001     I   35206 35045B
 NRDEXIT       4 0000567E 00000001     I   35345 34796B
 NRDNWT        2 00005714 00000001     H   35441 35405
 NRDPRT        4 0000569C 00000001     F   35393 37034
 NRDRET        2 00005652 00000001     H   35214 34944B 35059B 35202B 35208B
 NRDWAIT       2 00005740 00000001     H   35507 35420
 NRFBAD        2 00005BCE 00000001     H   36953 36555
 NRFEOF        2 00005B7E 00000001     H   36840 36540
1PROC     (PROC2193) (12:51) (15MAR04) Ordinary Symbol and Literal Cross Reference                                          Page  288
 NRFEOFMA      4 0000592C 00000001     I   36128 36070B
 NRFERR        4 00005954 00000001     I   36191 35922B
 NRFEXIT       4 000059B2 00000001     I   36420 35752B
 NRFNWT        2 00005AC0 00000001     H   36561 36480
 NRFPRT        4 000059D0 00000001     F   36468 37041
 NRFREMCT      2 00005B26 00000001     H   36718 36510
 NRFRET        2 00005960 00000001     H   36199 35776B 35991B 36130B 36178B 36193B
 NRFSEG        2 00005C9A 00000001     H   37079 37043
 NRFSTART      2 00005B52 00000001     H   36779 36525
 NRFWAIT       2 00005AEC 00000001     H   36627 36495
 NSCAN         1 00000000 0000000A     T   11370 11370  16306  32029  34686  37035  41581  45880  48209  50947  59218
                                                 62527
 NSCANSTR      1 00000000 00000045     T   32041 32041  34693
 NSCNCB      176 00000000 FFFFFFED     J    2678  2804   9977M  9978M  9993   9994   9995   9998M  9999M 10001M 10011M
                                                 10012M 10013M 10040M 10041M 10056  10057  10058  10061M 10062M 10064M
                                                 10074M 10075M 10076M 12970  12972  13149M 13150M 13165  13166  13167
                                                 13170M 13171M 13173M 13183M 13184M 13185M 13653  13831  13833  14199M
                                                 14200M 14215  14216  14217  14220M 14221M 14223M 14233M 14234M 14235M
                                                 14885  15056  15058  15235M 15236M 15251  15252  15253  15256M 15257M
                                                 15259M 15269M 15270M 15271M 15960  16335  16450  16452  17013  17072
                                                 17385  17387  18463  18526  19127  19129  20043  20114  25110  25112
                                                 25117  25138  25732  28763  28765  28862M 28863M 28882  28883  28884
                                                 28887M 28888M 28890M 28900M 28901M 28902M 29117  29319  29321  29399M
                                                 29400M 29427  29428  29429  29432M 29433M 29435M 29445M 29446M 29447M
                                                 30121  31092  31093  31094  31097M 31107M 31108M 31109M 32048  32129
                                                 32131  32228M 32229M 32249  32250  32251  32254M 32255M 32257M 32267M
                                                 32268M 32269M 32620  33186  33187  33188  33191M 33201M 33202M 33203M
                                                 33969  33970  33971  33974M 33984M 33985M 33986M 34346  34494  34700
                                                 34781  34783  34989M 34990M 35009  35010  35011  35014M 35015M 35017M
                                                 35027M 35028M 35029M 35348  35737  35739  35866M 35867M 35886  35887
                                                 35888  35891M 35892M 35894M 35904M 35905M 35906M 36423  37055  37411
                                                 37413  37492M 37493M 37512  37513  37514  37517M 37518M 37520M 37530M
                                                 37531M 37532M 37707  37909  37911  38009M 38010M 38029  38030  38031
                                                 38034M 38035M 38037M 38047M 38048M 38049M 38330  38609  38842  38844
                                                 38942M 38943M 38962  38963  38964  38967M 38968M 38970M 38980M 38981M
                                                 38982M 39167  39369  39371  39451M 39452M 39471  39472  39473  39476M
                                                 39477M 39479M 39489M 39490M 39491M 39779  40238  40240  40360M 40361M
                                                 40389  40390  40391  40394M 40395M 40397M 40407M 40408M 40409M 40799
                                                 41610  41838  41840  41954M 41955M 41974  41975  41976  41979M 41980M
                                                 41982M 41992M 41993M 41994M 42195  42396  42398  42470M 42471M 42498
                                                 42499  42500  42503M 42504M 42506M 42516M 42517M 42518M 43047  43467M
                                                 43581M 43695M 43809M 43885M 43961M 44433  44435  44508M 44509M 44528
                                                 44529  44530  44533M 44534M 44536M 44546M 44547M 44548M 44885  45137
                                                 45208  45286  45902  45983  45985  46179M 46180M 46199  46200  46201
                                                 46204M 46205M 46207M 46217M 46218M 46219M 46546  46934  46936  47050M
                                                 47051M 47070  47071  47072  47075M 47076M 47078M 47088M 47089M 47090M
                                                 47596  48226  48305  48307  48374M 48375M 48402  48403  48404  48407M
                                                 48408M 48410M 48420M 48421M 48422M 48680  48881  48883  48951M 48952M
                                                 48979  48980  48981  48984M 48985M 48987M 48997M 48998M 48999M 49345
                                                 49733  49735  49841M 49842M 49878  49879  49880  49883M 49884M 49886M
                                                 49896M 49897M 49898M 50299  50976  58747  58749  58764M 58765M 58780
                                                 58781  58782  58785M 58786M 58788M 58798M 58799M 58800M 61659  61661
                                                 61728M 61729M 61744  61745  61746  61749M 61750M 61752M 61762M 61763M
                                                 61764M 62046  62532
 NSCNFLGS      1 00000008 FFFFFFED     R    2615  2619   2624
 NSCNKWS       4 00000028 FFFFFFED     A    2664  9993  10001M 10011M 10056  10064M 10074M 13165  13173M 13183M 14215
                                                 14223M 14233M 15251  15259M 15269M 28882  28890M 28900M 29427  29435M
                                                 29445M 31092  31097M 31107M 32249  32257M 32267M 33186  33191M 33201M
                                                 33969  33974M 33984M 35009  35017M 35027M 35886  35894M 35904M 37512
1PROC     (PROC2193) (12:51) (15MAR04) Ordinary Symbol and Literal Cross Reference                                          Page  289
                                                 37520M 37530M 38029  38037M 38047M 38962  38970M 38980M 39471  39479M
                                                 39489M 40389  40397M 40407M 41974  41982M 41992M 42498  42506M 42516M
                                                 43467  43467M 43581  43581M 43695  43695M 43809  43809M 43885  43885M
                                                 43961  43961M 44528  44536M 44546M 46199  46207M 46217M 47070  47078M
                                                 47088M 48402  48410M 48420M 48979  48987M 48997M 49878  49886M 49896M
                                                 58780  58788M 58798M 61744  61752M 61762M
 NSCNLEN       4 00000004 FFFFFFED     F    2612  9978M 10041M 13150M 14200M 15236M 28863M 29400M 32229M 34990M 35867M
                                                 37493M 38010M 38943M 39452M 40361M 41955M 42471M 44509M 46180M 47051M
                                                 48375M 48952M 49842M 58765M 61729M
 NSCNLOC       4 00000000 FFFFFFED     A    2611  9977M 10040M 13149M 14199M 15235M 28862M 29399M 32228M 34989M 35866M
                                                 37492M 38009M 38942M 39451M 40360M 41954M 42470M 44508M 46179M 47050M
                                                 48374M 48951M 49841M 58764M 61728M
 NSCNSKIP      4 00000024 FFFFFFED     A    2663  9994   9998M 10012M 10057  10061M 10075M 13166  13170M 13184M 14216
                                                 14220M 14234M 15252  15256M 15270M 28883  28887M 28901M 29428  29432M
                                                 29446M 31093  31108M 32250  32254M 32268M 33187  33202M 33970  33985M
                                                 35010  35014M 35028M 35887  35891M 35905M 37513  37517M 37531M 38030
                                                 38034M 38048M 38963  38967M 38981M 39472  39476M 39490M 40390  40394M
                                                 40408M 41975  41979M 41993M 42499  42503M 42517M 44529  44533M 44547M
                                                 46200  46204M 46218M 47071  47075M 47089M 48403  48407M 48421M 48980
                                                 48984M 48998M 49879  49883M 49897M 58781  58785M 58799M 61745  61749M
                                                 61763M
 NSCNSTOP      4 00000020 FFFFFFED     A    2662  9995   9999M 10013M 10058  10062M 10076M 13167  13171M 13185M 14217
                                                 14221M 14235M 15253  15257M 15271M 28884  28888M 28902M 29429  29433M
                                                 29447M 31094  31109M 32251  32255M 32269M 33188  33203M 33971  33986M
                                                 35011  35015M 35029M 35888  35892M 35906M 37514  37518M 37532M 38031
                                                 38035M 38049M 38964  38968M 38982M 39473  39477M 39491M 40391  40395M
                                                 40409M 41976  41980M 41994M 42500  42504M 42518M 44530  44534M 44548M
                                                 46201  46205M 46219M 47072  47076M 47090M 48404  48408M 48422M 48981
                                                 48985M 48999M 49880  49884M 49898M 58782  58786M 58800M 61746  61750M
                                                 61764M
 NSCNTOK      16 00000030 FFFFFFED     C    2666 34346  34494  38609  45137  45208  45286
 NSCNTYPE      1 00000018 FFFFFFED     R    2633  2637   2642   2647   2652   2657
 NSTBAD        2 00005ED0 00000001     H   37770 37764
 NSTERR        4 00005E54 00000001     I   37565 37548B
 NSTEXIT       4 00005E8C 00000001     I   37704 37426B
 NSTPRT        4 00005EA8 00000001     F   37752 41580
 NSTRET        2 00005E60 00000001     H   37573 37448B 37561B 37567B
 NTKATCH       2 000061B0 00000001     H   38571 38417
 NTKBAD        2 00006200 00000001     H   38702 38432
 NTKERR        4 00006058 00000001     I   38182 38085B
 NTKERR2       4 00006064 00000001     I   38188 38068B
 NTKEXIT       4 0000609C 00000001     I   38327 37924B
 NTKNPR        2 00006184 00000001     H   38505 38402
 NTKPR         2 00006158 00000001     H   38438 38387
 NTKPRT        4 000060B8 00000001     F   38375 41584
 NTKRET        2 00006070 00000001     H   38196 37946B 38178B 38184B 38190B
 NVWBAD        2 000063D0 00000001     H   39230 39224
 NVWERR        4 00006354 00000001     I   39025 38998B
 NVWEXIT       4 0000638C 00000001     I   39164 38857B
 NVWPRT        4 000063A8 00000001     F   39212 41591
 NVWRET        2 00006360 00000001     H   39033 38879B 39021B 39027B
 NWA         495 00000000 FFFFFFCE     J   28691 28718  28747U 28757M 28757  28758M 28758  28759M 28768  28871  29142
                                                 29144  29145  29158U 29274  29303U 29313M 29313  29314M 29314  29315M
                                                 29324  29416  30146  30148  30149  30162U 32084  32113U 32123M 32123
                                                 32124M 32124  32125M 32134  32238  32645  32647  32648  32661U 34736
                                                 34765U 34775M 34775  34776M 34776  34777M 34786  34998  35373  35375
                                                 35376  35389U 35692  35721U 35731M 35731  35732M 35732  35733M 35742
                                                 35875  35975  36448  36450  36451  36464U 37138U 37366  37395U 37405M
                                                 37405  37406M 37406  37407M 37416  37501  37732  37734  37735  37748U
1PROC     (PROC2193) (12:51) (15MAR04) Ordinary Symbol and Literal Cross Reference                                          Page  290
                                                 37864  37893U 37903M 37903  37904M 37904  37905M 37914  38018  38355
                                                 38357  38358  38371U 38797  38826U 38836M 38836  38837M 38837  38838M
                                                 38847  38951  39192  39194  39195  39208U 39324  39353U 39363M 39363
                                                 39364M 39364  39365M 39374  39460  39804  39806  39807  40193  40222U
                                                 40232M 40232  40233M 40233  40234M 40243  40378  40824  40826  40827
                                                 40840U 41343U 41359
 NWAARGP       4 00000008 FFFFFFCE     A   28578 28767M 28844  29323M 29381  32133M 32210  34785M 34971  35741M 35833
                                                 37415M 37474  37913M 37991  38121  38846M 38924  39012  39373M 39433
                                                 39517  40242M 40328
 NWAATCHR      1 00000004 FFFFFFCE     C   28576 38160  38167  38668M
 NWACOUNT      4 00000038 FFFFFFCE     F   28591 36384  37222  37223M 40760  41537  41538M
 NWACTRL       8 00000024 FFFFFFCE     C   28587 29412M 29412  29577M 29577  29583  30525M 30592M
 NWAEOF      128 0000003E FFFFFFCE     C   28593 36103  36892  36899  37049
 NWAEOFL       2 0000003C FFFFFFCE     H   28592 36037  36923M
 NWAFEOF      64 00000003 FFFFFFCE        28557 36031  36880M
 NWAFLAG       1 00000003 FFFFFFCE     R   28548 28552  28557  28562  28567  28572
 NWAFLINS     32 00000003 FFFFFFCE        28562 40441  41119M
 NWAFNONL     16 00000003 FFFFFFCE        28567 41189M 41458
 NWAFNPR       8 00000003 FFFFFFCE        28572 38138  38479M 38545M
 NWAFOPT     128 00000003 FFFFFFCE        28552 29546  30524M 30591M 31081M 31340M 31407M 31474M 31541M 31608M
 NWALINE     235 00000104 FFFFFFCE     C   28684 35942  35947  36103
 NWALNO        4 00000030 FFFFFFCE     F   28589 35806M 36814M 37174  37292  37294M
 NWANARGS      4 0000000C FFFFFFCE     F   28579 28766M 28837  28994  29322M 29336M 29653  29754  29851  29986  32132M
                                                 32386  34784M 34826  35225  35740M 35754M 35826  36210  36337  37414M
                                                 37584  37912M 37984  38114  38207  38845M 38917  39044  39372M 39656
                                                 40241M 40321  40586  40713
 NWAOPNO       4 00000014 FFFFFFCE     F   28582 32358M 32525M 32525  32585
 NWAOPT        4 0000002C FFFFFFCE     C   28588 38128M 38145M 38167M 38172
 NWAREMCT      4 00000034 FFFFFFCE     F   28590 36753M 37241M 37241  37249  37251M
 NWAR0R1       4 0000001C FFFFFFCE     F   28585 29452  31273M 31671M 31795M
 NWASG        60 000000C0 FFFFFFCE     X   28682 35955  35970  36014  36161
 NWASGCOD      1 000000C0 FFFFFFCE     R   28599 28608  28618  28628  28638  28648  28658  28668
 NWASGLENF
               4 000000CC FFFFFFCE     A   28674 36049
 NWASGRCP      4 000000FC FFFFFFCE     A   28683 36177  37196M 37270M
 NWASGUSR      4 000000F8 FFFFFFCE     A   28681 35976M
 NWAUNETP      4 00000018 FFFFFFCE     F   28584 40277M 41376
 NWFBAD        2 00006A7C 00000001     H   41215 40916
 NWFERR        4 00006874 00000001     I   40567 40425B
 NWFEXIT       4 000068D2 00000001     I   40796 40253B
 NWFLINES      2 00006A1E 00000001     H   41079 40886
 NWFNONL       2 00006A50 00000001     H   41149 40901
 NWFNWT        2 000069B8 00000001     H   40922 40856
 NWFPRT        4 000068F0 00000001     F   40844 41597
 NWFRET        2 00006880 00000001     H   40575 40275B 40562B 40569B
 NWFRTN        2 00006AA8 00000001     H   41298 41600
 NWFWAIT       2 000069E4 00000001     H   40988 40871
 NWRBAD        2 000066D6 00000001     H   40101 39872
 NWRERR        4 00006550 00000001     I   39637 39507B
 NWREXIT       4 00006588 00000001     I   39776 39384B
 NWRNWT        2 00006644 00000001     H   39878 39827
 NWRPRT        4 000065A4 00000001     F   39815 41593
 NWRRET        2 0000655C 00000001     H   39645 39406B 39634B 39639B
 NWRTRAN       2 000066AA 00000001     H   40035 39857
 NWRWAIT       2 00006670 00000001     H   39944 39842
 PATHALLO      1 00000000 00000053     T   45894 45894
 PATHCLS       1 00000000 00000051     T   45881 45881
 PATHGET       1 00000000 00000027     T   25711 25711  45876  48207  50944
 PATHINFO      1 00000000 00000052     T   45883 45883
1PROC     (PROC2193) (12:51) (15MAR04) Ordinary Symbol and Literal Cross Reference                                          Page  291
 PATHOPEN      1 00000000 00000054     T   45897 45897
 PATHRDCK      1 00000000 00000055     T   50948 50948
 PATHREAD      1 00000000 00000028     T   25712 25712  48210
 PATHSEG       1 00000000 00000056     T   50955 50955
 PATHWRIT      1 00000000 00000031     T   25731 25731
 PCCOLGET      2 00000648 00000001     H    9430  9030
 PCCOLSCN      2 000006FA 00000001     H    9852  9035
 PCCOLSET      2 00000B78 00000001     H   11243  9040
 PCCOMPL       2 00000C38 00000001     H   11448  9045
 PCDIALOG      2 00000F90 00000001     H   12197  9050
 PCDISROW      2 00008EB8 00000001     H   51663  9250
 PCDOM         2 000010D4 00000001     H   12780  9055
 PCKEYDEL      2 0000111A 00000001     H   12911  9060
 PCKEYGET      2 00001374 00000001     H   13782  9065
 PCKEYPUT      2 0000166C 00000001     H   15007  9070
 PCKEYREF      2 0000198C 00000001     H   16086  9075
 PCKLGDEL      2 00001B9E 00000001     H   16391  9080
 PCKLGGET      2 00001E58 00000001     H   17336  9085
 PCKLGPUT      2 00002348 00000001     H   19068  9090
 PCLFROMC      2 0000309E 00000001     H   24441  9130  24437
 PCLNAPND      2 00002724 00000001     H   20144  9095
 PCLNFRST      2 000027B4 00000001     H   20450  9100
 PCLNGET       2 00002932 00000001     H   21176  9105
 PCLNLAST      2 00002AB0 00000001     H   21904  9110
 PCLNNEXT      2 00002C2E 00000001     H   22632  9115
 PCLNPREV      2 00002DAC 00000001     H   23360  9120
 PCLNPUT       2 00002F2A 00000001     H   24088  9125
 PCLSBAD       2 00006E2C 00000001     H   42258 42252
 PCLSERR       4 00006DB0 00000001     I   42053 42010B
 PCLSEXIT      4 00006DE8 00000001     I   42192 41853B
 PCLSPRT       4 00006E04 00000001     F   42240 45879
 PCLSRET       2 00006DBC 00000001     H   42061 41874B 42048B 42055B
 PCLTOC        2 000031C4 00000001     H   24949  9135  24945
 PCMATCHL      2 00003A16 00000001     H   27788  9145
 PCMHDONE      4 0000398E 00000001     I   27539 26866B 26883B 26896B
 PCMINFO       2 000034A0 00000001     H   25787  9140
 PCMSHDR       2 0000374C 00000001     H   26729  9150
 PCNETCLS      2 00003DF4 00000001     H   28705  9155
 PCNETCTL      2 00003FD4 00000001     H   29261  9160
 PCNETOPN      2 00004ABC 00000001     H   32071  9165
 PCNETRD       2 000054BE 00000001     H   34723  9170
 PCNETRDF      2 000057A6 00000001     H   35679  9175
 PCNETST       2 00005D48 00000001     H   37353  9180
 PCNETTK       2 00005EFC 00000001     H   37851  9185
 PCNETVW       2 0000622C 00000001     H   38784  9190
 PCNETWR       2 000063FC 00000001     H   39311  9195
 PCNETWRF      2 00006702 00000001     H   40180  9200
 PCOLBUF1    256 0000020C FFFFFFDC     C    9746 10085  10314  11083  11174
 PCOLRET1    256 0000030C FFFFFFDC     C    9747 10088  10206
 PCOLRET2    256 0000040C FFFFFFDC     C    9748 10317  10435
 PCOLRET3     80 0000050C FFFFFFDC     C    9749 10582  10587  10769
 PCOLR0        4 00000000 FFFFFFDC     F    9741  9918M 10308  10545
 PCOLR6        4 00000004 FFFFFFDC     F    9742  9919M 10205  10434  10780
 PCOLSCNX      2 00000AE8 00000001     H   11046 11000
 PCOLSCNY      2 00000B30 00000001     H   11137 11031
 PCOLSG       60 0000055C FFFFFFDC     X    9837 10595  10624  10641  10670  10687  10716  10733  10755
 PCOLSGCOD
               1 0000055C FFFFFFDC     R    9754  9763   9773   9783   9793   9803   9813   9823
 PCOLSGLENF
1PROC     (PROC2193) (12:51) (15MAR04) Ordinary Symbol and Literal Cross Reference                                          Page  292
               4 00000568 FFFFFFDC     A    9829 10774
 PCOLSSTR    256 0000010C FFFFFFDC     C    9745  9944   9969  10032  11081  11172
 PCOLSTR     256 00000008 FFFFFFDC     C    9743  9939  10089  10318
 PCOLSTRL      4 00000108 FFFFFFDC     F    9744  9948M  9974  10037  10086  10315
 PCOLWA     1432 00000000 FFFFFFDC     J    9844  9865   9894U 10975  10977  10978  11040U
 PCOLXPRT      4 00000A70 00000001     F   10988 11369
 PCOLYPRT      4 00000A98 00000001     F   11004 11372
 PCPATCLS      2 00006C7A 00000001     H   41781  9205
 PCPATCTL      2 00006E58 00000001     H   42339  9210
 PCPATOPN      2 000075C6 00000001     H   44376  9215
 PCPATRD       2 00007C12 00000001     H   45926  9220
 PCPATRDF      2 00007EDE 00000001     H   46877  9225
 PCPATST       2 000083F0 00000001     H   48248  9230
 PCPATWR       2 000085DC 00000001     H   48824  9235
 PCPATWRF      2 000088B6 00000001     H   49676  9240
 PCQFETCH      2 00008D70 00000001     H   51023  9245
 PCSCAN        2 0000919C 00000001     H   52870  9255
 PCSCANP       2 00009330 00000001     H   53457  9265
 PCSCANWA     96 00000000 FFFFFFC8     J   52862 52883  52912U 53436  53438  53439  53470  53499U 54023  54025  54026
                                                 62567  62596U 63120  63122  63123
 PCSCCNT       4 00000028 FFFFFFC8     F   52842 52918M 53310  53505M 53897  62602M 62994
 PCSCREM       4 00000050 FFFFFFC8     F   52852 53117M 53247  53704M 53834  62801M 62931
 PCSCREML      4 00000054 FFFFFFC8     F   52853 53118M 53252  53705M 53839  62802M 62936
 PCSCRETP      4 0000002C FFFFFFC8     F   52843 52919M 53123  53506M 53710  62603M 62807
 PCSCSKIP      4 00000038 FFFFFFC8     F   52846 52926M 52926  53003M 53068M 53106  53513M 53513  53590M 53655M 53693
                                                 62610M 62610  62687M 62752M 62790
 PCSCSKPL      4 0000003C FFFFFFC8     F   52847 52933M 52933  53005M 53058  53069M 53107  53520M 53520  53592M 53645
                                                 53656M 53694  62617M 62617  62689M 62742  62753M 62791
 PCSCSTOP      4 00000040 FFFFFFC8     F   52848 52940M 52940  53029M 53096M 53108  53527M 53527  53616M 53683M 53695
                                                 62624M 62624  62713M 62780M 62792
 PCSCSTPL      4 00000044 FFFFFFC8     F   52849 52947M 52947  53031M 53086  53097M 53109  53534M 53534  53618M 53673
                                                 53684M 53696  62631M 62631  62715M 62770  62781M 62793
 PCSCSTR       4 00000030 FFFFFFC8     F   52844 52981M 53105  53568M 53692  62665M 62789
 PCSCSTRL      4 00000034 FFFFFFC8     F   52845 52983M 53104  53570M 53691  62667M 62788
 PCSCTOK       4 00000048 FFFFFFC8     F   52850 53116M 53160  53703M 53747  62800M 62844
 PCSCTOKL      4 0000004C FFFFFFC8     F   52851 53115M 53165  53702M 53752  62799M 62849
 PCSCTYP       4 00000058 FFFFFFC8     F   52854 53119M 53352  53706M 53939  62803M 63036
 PCSCTYPL      4 0000005C FFFFFFC8     F   52855 53120M 53357  53707M 53944  62804M 63041
 PCTEST        2 0000A7AE 00000001     H   59247  9270
 PCTLBAD       2 00007592 00000001     H   44287 43299  43315
 PCTLCOM       2 0000702E 00000001     H   42901 42754B
 PCTLEXIT      4 0000705E 00000001     I   43044 42411B
 PCTLINT       2 000074D4 00000001     H   43997 43239
 PCTLINV       4 00006F94 00000001     I   42633 42535B 42555B 45884
 PCTLMISS      2 00006F88 00000001     H   42624 42595B
 PCTLMSG       2 00006F9C 00000001     I   42641 42433B 42629B
 PCTLMSSN      2 000072D4 00000001     H   43321 43104
 PCTLNINT      2 00007500 00000001     H   44063 43254
 PCTLNOK       4 00006FA8 00000001     I   42658 42575B
 PCTLNWT       2 0000752C 00000001     H   44130 43269
 PCTLOK        4 00006FE6 00000001     I   42759 42615B 42621B
 PCTLPACT      2 0000735A 00000001     H   43503 43149  43164
 PCTLPASC      2 00007492 00000001     H   43921 43224
 PCTLPJOB      2 000073FE 00000001     H   43731 43194
 PCTLPLNO      2 00007450 00000001     H   43845 43209
 PCTLPNAM      2 000073AC 00000001     H   43617 43179
 PCTLPRT       4 0000707C 00000001     F   43092 45885
 PCTLPRTB      4 000072AC 00000001     F   43303 45893
 PCTLRET       4 00006FEE 00000001     I   42763 42653B
1PROC     (PROC2193) (12:51) (15MAR04) Ordinary Symbol and Literal Cross Reference                                          Page  293
 PCTLTAG       2 00007308 00000001     H   43389 43119  43134
 PCTLWAIT      2 00007558 00000001     H   44196 43284
 PCUIDREF      2 0000A83E 00000001     H   59502  9275
 PCVARGP       4 00000000 FFFFFFC6     A   59737 59805M 59873  60324M 60845M
 PCVBUF      235 00000008 FFFFFFC6     C   59739 59850  59855  60119  60124  60371  60376  60640  60645  60892  60897
 PCVCMD        2 0000A8C4 00000001     H   59758  9280
 PCVNARGS      4 00000004 FFFFFFC6     F   59738 59804M 60323M 60394  60844M 60915
 PCVRGET       2 0000A946 00000001     H   60031  9285
 PCVRPUT       2 0000A9B2 00000001     H   60277  9290
 PCVWA       243 00000000 FFFFFFC6     J   59746 59771  59800U 60014  60016  60017  60044  60073U 60260  60262  60263
                                                 60290  60319U 60535  60537  60538  60565  60594U 60781  60783  60784
                                                 60811  60840U 61056  61058  61059
 PCVWGET       2 0000AA3C 00000001     H   60552  9295
 PCVWPUT       2 0000AAA8 00000001     H   60798  9300
 PCWLOG        2 0000AB32 00000001     H   61188  9305
 PCWTO         2 0000AC28 00000001     H   61588  9310
 PCWTOR        2 0000AEE8 00000001     H   62433  9315
 PCXSCAN       2 0000AFFA 00000001     H   62554  9320
 PKDBAD        2 00001348 00000001     H   13708 13701
 PKDERR        4 000012CC 00000001     I   13511 13198B
 PKDPRT        4 00001320 00000001     F   13689 16305
 PKDRET        2 000012D8 00000001     H   13519 13226B 13274B 13507B 13513B
 PKGBAD        2 00001640 00000001     H   14940 14933
 PKGERR        4 000015C4 00000001     I   14743 14248B
 PKGEXIT       4 000015FC 00000001     I   14882 12983B 13844B
 PKGPRT        4 00001618 00000001     F   14921 16318
 PKGRET        2 000015D0 00000001     H   14751 14276B 14324B 14526B 14739B 14745B
 PKLGDRET      2 00001CCE 00000001     H   16879 16629B 16677B
 PKLGDXIT      4 00001CFA 00000001     I   17010 16463B
 PKLGGRET      2 000020CC 00000001     H   18329 17815B 17863B 18065B 18097B 18152B
 PKLGGXT       4 000020F8 00000001     I   18460 17398B
 PKLGPRET      2 00002594 00000001     H   19909 19306B 19354B 19423B 19562B 19585B
 PKLGPXIT      4 000025C0 00000001     I   20040 19140B
 PKPBAD        2 00001960 00000001     H   16015 16008
 PKPERR        4 000018E2 00000001     I   15818 15284B
 PKPEXIT       4 0000191A 00000001     I   15957 15069B
 PKPPRT        4 00001938 00000001     F   15996 16320
 PKPRET        2 000018EE 00000001     H   15826 15312B 15360B 15431B 15814B 15820B
 PMINVARG      4 00003670 00000001     I   26420 25859B 25915B 25929B 26237B
 PMIRETOK      4 0000367C 00000001     I   26426 25987B 26214B 26413B
 PMIRETRN      2 00003684 00000001     H   26431 26408B 26422B
 POPNBAD       2 00007B18 00000001     H   45797 45092
 POPNBUF       2 000079D6 00000001     H   45313 44987
 POPNERR       4 000076EA 00000001     I   44649 44564B
 POPNEXIT      4 00007752 00000001     I   44882 44448B
 POPNHDR       2 00007A68 00000001     H   45531 45032
 POPNINT       2 00007AC0 00000001     H   45664 45062
 POPNMY        2 00007928 00000001     H   45099 44942
 POPNNHDR      2 00007A94 00000001     H   45597 45047
 POPNNINT      2 00007AEC 00000001     H   45730 45077
 POPNNWT       2 00007A02 00000001     H   45374 45002
 POPNPASS      2 000079A0 00000001     H   45248 44972
 POPNPRT       4 00007770 00000001     F   44930 45895
 POPNRET       2 000076F6 00000001     H   44657 44474B 44590B 44645B 44651B
 POPNWAIT      2 00007A2E 00000001     H   45440 45017
 POPNYOU       2 00007962 00000001     H   45170 44957
 PRDBAD        2 00007EB2 00000001     H   46796 46633
 PRDERR        4 00007D80 00000001     I   46404 46235B
 PRDEXIT       4 00007DB8 00000001     I   46543 45998B
1PROC     (PROC2193) (12:51) (15MAR04) Ordinary Symbol and Literal Cross Reference                                          Page  294
 PRDNWT        2 00007E4C 00000001     H   46639 46603
 PRDPRT        4 00007DD4 00000001     F   46591 48208
 PRDRET        2 00007D8C 00000001     H   46412 46146B 46249B 46400B 46406B
 PRDWAIT       2 00007E78 00000001     H   46705 46618
 PRFBAD        2 00008316 00000001     H   48127 47728
 PRFEOF        2 000082C6 00000001     H   48014 47713
 PRFEOFMA      4 00008032 00000001     I   47252 47194B
 PRFERR        4 0000809E 00000001     I   47364 47106B
 PRFEXIT       4 000080FC 00000001     I   47593 46949B
 PRFMORE       4 00007FEA 00000001     I   47115 47360B
 PRFNWT        2 00008208 00000001     H   47735 47653
 PRFPRT        4 00008118 00000001     F   47641 48215
 PRFREMCT      2 0000826E 00000001     H   47892 47683
 PRFRET        2 000080AA 00000001     H   47372 46973B 47120B 47254B 47288B 47347B 47366B
 PRFSTART      2 0000829A 00000001     H   47953 47698
 PRFWAIT       2 00008234 00000001     H   47801 47668
 PROC2193      1 00000000 00000001     R    1367  1365
 PSTBAD        2 000085B0 00000001     H   48743 48737
 PSTERR        4 00008532 00000001     I   48538 48438B 50945
 PSTEXIT       4 0000856A 00000001     I   48677 48320B
 PSTPRT        4 00008588 00000001     F   48725 50946
 PSTRET        2 0000853E 00000001     H   48546 48342B 48534B 48540B
 PTAPPEND      1 00000000 00000021     T   24371 24371  59214
 PTLINE        1 00000000 00000026     T   24383 24383
 PUTLINE       1 00000000 0000002A     T   25716 25716  41577  48217
 PWA         232 00000000 FFFFFFCC     J   41767 41794  41823U 41833M 41833  41834M 41843  41963  42220  42222  42223
                                                 42236U 42352  42381U 42391M 42391  42392M 42401  42487  43072  43074
                                                 43075  43088U 44389  44418U 44428M 44428  44429M 44438  44517  44910
                                                 44912  44913  44926U 45939  45968U 45978M 45978  45979M 45988  46188
                                                 46571  46573  46574  46587U 46890  46919U 46929M 46929  46930M 46939
                                                 47059  47621  47623  47624  47637U 48261  48290U 48300M 48300  48301M
                                                 48310  48391  48705  48707  48708  48721U 48837  48866U 48876M 48876
                                                 48877M 48886  48968  49370  49372  49373  49386U 49689  49718U 49728M
                                                 49728  49729M 49738  49867  50324  50326  50327  50340U 50796U 50812
 PWAARGP       4 00000004 FFFFFFCC     A   41658 41842M 41936  42400M 42452  44437M 44490  45987M 46161  46938M 47018
                                                 48309M 48356  48885M 48933  49025  49737M 49809
 PWABUFLN      1 00000FA0 FFFFFFCC A   U   41760 49027  49948
 PWACOUNT      4 00000024 FFFFFFCC     F   41668 47302  47303M 47557  50260  50903  50904M
 PWAEOF      128 0000002A FFFFFFCC     C   41670 47227  48066  48073  48220
 PWAEOFL       2 00000028 FFFFFFCC     H   41669 47163  48097M
 PWAFEOF      64 00000003 FFFFFFCC        41649 47157  48054M
 PWAFLAG       1 00000003 FFFFFFCC     R   41640 41644  41649  41654
 PWAFLINS     32 00000003 FFFFFFCC        41654 49930  50604M
 PWAFTAG     128 00000003 FFFFFFCC        41644 44580  45143M 45214M
 PWALNO        4 0000001C FFFFFFCC     F   41666 46991M 47266  47357  47359M 47988M
 PWANARGS      4 00000008 FFFFFFCC     F   41659 41841M 41929  42072  42399M 42413M 42676  42777  42912  44436M 44668
                                                 45986M 46028  46283  46423  46937M 46951M 47011  47383  47510  48308M
                                                 48557  48884M 49222  49736M 49802  50086  50213
 PWAOPNO       4 00000010 FFFFFFCC     F   41662 44640M 44793M 44793  44850
 PWAREMCT      4 00000020 FFFFFFCC     F   41667 47317M 47317  47325  47327M 47927M
 PWAR0R1       4 00000014 FFFFFFCC     F   41664 42523  43362M 43476M 43590M 43704M 43818M 43894M 43970M
 PWASG        60 000000AC FFFFFFCC     X   41759 49050  49065  49111  49138  49170  49971  49986  50034  50855  50880
                                                 50893
 PWASGCOD      1 000000AC FFFFFFCC     R   41676 41685  41695  41705  41715  41725  41735  41745
 PWASGUSR      4 000000E4 FFFFFFCC     A   41758 49070M 49991M
 PWFBAD        2 00008BE6 00000001     H   50638 50401
 PWFERR        4 00008A30 00000001     I   50067 49914B 50961
 PWFEXIT       4 00008A8E 00000001     I   50296 49748B
 PWFLINES      2 00008BB2 00000001     H   50564 50386
1PROC     (PROC2193) (12:51) (15MAR04) Ordinary Symbol and Literal Cross Reference                                          Page  295
 PWFNWT        2 00008B4C 00000001     H   50407 50356
 PWFPRT        4 00008AAC 00000001     F   50344 50962
 PWFRET        2 00008A3C 00000001     H   50075 49770B 50063B 50069B
 PWFRTN        2 00008C12 00000001     H   50740 50965
 PWFWAIT       2 00008B78 00000001     H   50473 50371
 PWFXWA        4 00000000 FFFFFFCB     J   50732 50753  50782U 50929  50931  50932
 PWFXWORD      4 00000000 FFFFFFCB     F   50725 50832M 50842  50847
 PWRBAD        2 0000888A 00000001     H   49595 49432
 PWRERR        4 00008758 00000001     I   49203 49015B 50951
 PWREXIT       4 00008790 00000001     I   49342 48896B
 PWRNWT        2 00008824 00000001     H   49438 49402
 PWRPRT        4 000087AC 00000001     F   49390 50952
 PWRRET        2 00008764 00000001     H   49211 48918B 49199B 49205B
 PWRWAIT       2 00008850 00000001     H   49504 49417
 QFARGP        4 00000000 FFFFFFCA     A   51003 51070M
 QFCURARG      4 0000000C FFFFFFCA     F   51006 51072M 51137  51375  51478  51479M
 QFETLINE      1 00000000 00000057     T   54041 54041
 QFETSAVE      2 00008E38 00000001     H   51303 54042
 QFEXIT        2 00008E2A 00000001     H   51257 51083B 51151B
 QFNARGS       4 00000004 FFFFFFCA     F   51004 51069M 51137  51387
 QFPARMP       4 00000008 FFFFFFCA     A   51005 51071M 51396
 QFPTRS        4 00000010 FFFFFFCA     F   51008 51104M 51199M 51208
 QFWA         24 00000000 FFFFFFCA     J   51015 51036  51065U 51073  51279  51281  51282  51348U
 QSERVSEG      1 00000000 00000061     T   62522 62522
 RAR          14 0000000E 00000001 A   #    1347  2344   2345M  2346B  2348M  2349B  2369M  2370B  2374M  2375B  2377M
                                                  2378B  2380M  2381B  2383M  2384B  2386M  2387M  2387B  2393   8533
                                                  8567M  8568M  8568B  8583M  8584M  8584B  8602M  8605B  8636   8676M
                                                  8677M  8677B  8772M  8775B  8829   8987M  8990B  9436   9472M  9473M
                                                  9473B  9525M  9526M  9526B  9573M  9574M  9574B  9621M  9622M  9622B
                                                  9669M  9670M  9670B  9700M  9703B  9859   9905M  9906M  9906B 10004M
                                                 10005M 10005B 10018M 10019M 10019B 10067M 10068M 10068B 10081M 10082M
                                                 10082B 10598M 10599M 10599B 10604M 10605M 10605B 10627M 10628M 10628B
                                                 10644M 10645M 10645B 10650M 10651M 10651B 10673M 10674M 10674B 10690M
                                                 10691M 10691B 10696M 10697M 10697B 10719M 10720M 10720B 10736M 10737M
                                                 10737B 10758M 10759M 10759B 10917M 10918M 10918B 10977M 10980B 11052
                                                 11128M 11131B 11143  11219M 11222B 11249  11285M 11286M 11286B 11354M
                                                 11357B 11455  11501M 11502M 11502B 11571M 11572M 11572B 11582M 11583M
                                                 11583B 11634M 11635M 11635B 11669M 11670M 11670B 11697M 11698M 11698B
                                                 11726M 11727M 11727B 11740M 11741M 11741B 11769M 11770M 11770B 11849M
                                                 11850M 11850B 11871M 11872M 11872B 11947M 11948M 11948B 12001M 12002M
                                                 12002B 12049M 12050M 12050B 12106M 12109B 12204  12263M 12264M 12264B
                                                 12511M 12512M 12512B 12765M 12768B 12786  12821M 12822M 12822B 12873M
                                                 12876B 12918  12981M 12982M 12982B 13176M 13177M 13177B 13251M 13252M
                                                 13252B 13364M 13365M 13365B 13680M 13683B 13714  13760M 13763B 13789
                                                 13842M 13843M 13843B 14031M 14032M 14032B 14226M 14227M 14227B 14301M
                                                 14302M 14302B 14408M 14409M 14409B 14711M 14712M 14712B 14912M 14915B
                                                 14946  14992M 14995B 15014  15067M 15068M 15068B 15262M 15263M 15263B
                                                 15337M 15338M 15338B 15502M 15503M 15503B 15540M 15541M 15541B 15594M
                                                 15595M 15595B 15987M 15990B 16021  16067M 16070B 16093  16280M 16283B
                                                 16398  16461M 16462M 16462B 16654M 16655M 16655B 16732M 16733M 16733B
                                                 17040M 17043B 17138  17238M 17239M 17239B 17255M 17256M 17256B 17307M
                                                 17310B 17343  17396M 17397M 17397B 17471M 17472M 17472B 17504M 17505M
                                                 17505B 17563M 17564M 17564B 17647M 17648M 17648B 17840M 17841M 17841B
                                                 17913M 17914M 17914B 17919M 17920M 17920B 17947M 17948M 17948B 18091M
                                                 18092M 18092B 18129M 18130M 18130B 18146M 18147M 18147B 18161M 18162M
                                                 18162B 18211M 18212M 18212B 18296M 18297M 18297B 18490M 18493B 18593
                                                 18720M 18721M 18721B 18807M 18808M 18808B 18868M 18869M 18869B 19038M
                                                 19041B 19075  19138M 19139M 19139B 19331M 19332M 19332B 19491M 19492M
                                                 19492B 19524M 19525M 19525B 19536M 19537M 19537B 19542M 19543M 19543B
1PROC     (PROC2193) (12:51) (15MAR04) Ordinary Symbol and Literal Cross Reference                                          Page  296
                                                 19606M 19607M 19607B 19634M 19635M 19635B 19677M 19678M 19678B 19695M
                                                 19696M 19696B 20070M 20073B 20150  20188M 20189M 20189B 20270M 20271M
                                                 20271B 20408M 20411B 20457  20507M 20508M 20508B 20577M 20578M 20578B
                                                 20626M 20627M 20627B 20762M 20763M 20763B 20926M 20927M 20927B 21160M
                                                 21163B 21183  21233M 21234M 21234B 21303M 21304M 21304B 21352M 21353M
                                                 21353B 21488M 21489M 21489B 21652M 21653M 21653B 21886M 21889B 21911
                                                 21961M 21962M 21962B 22031M 22032M 22032B 22080M 22081M 22081B 22216M
                                                 22217M 22217B 22380M 22381M 22381B 22614M 22617B 22639  22689M 22690M
                                                 22690B 22759M 22760M 22760B 22808M 22809M 22809B 22944M 22945M 22945B
                                                 23108M 23109M 23109B 23342M 23345B 23367  23417M 23418M 23418B 23487M
                                                 23488M 23488B 23536M 23537M 23537B 23672M 23673M 23673B 23836M 23837M
                                                 23837B 24070M 24073B 24094  24132M 24133M 24133B 24219M 24220M 24220B
                                                 24357M 24360B 24448  24493M 24494M 24494B 24523M 24524M 24524B 24531M
                                                 24532M 24532B 24610M 24611M 24611B 24622M 24623M 24623B 24712M 24715B
                                                 24741  24775M 24776M 24776B 24804M 24805M 24805B 24822M 24825B 24956
                                                 25019M 25020M 25020B 25049M 25050M 25050B 25057M 25058M 25058B 25084M
                                                 25085M 25085B 25099M 25100M 25100B 25131M 25132M 25132B 25146M 25147M
                                                 25147B 25172M 25173M 25173B 25200M 25203B 25258  25364M 25365M 25365B
                                                 25391M 25392M 25392B 25404M 25405M 25405B 25428M 25431B 25463  25599M
                                                 25600M 25600B 25687M 25690B 25794  25849M 25850M 25850B 25980M 25981M
                                                 25981B 25985M 25986M 25986B 26026M 26027M 26027B 26068M 26069M 26069B
                                                 26087M 26088M 26088B 26137M 26138M 26138B 26165M 26166M 26166B 26207M
                                                 26208M 26208B 26248M 26249M 26249B 26270M 26271M 26271B 26311M 26312M
                                                 26312B 26336M 26337M 26337B 26345M 26346M 26346B 26388M 26389M 26389B
                                                 26563M 26566B 26736  26790M 26791M 26791B 26844M 26845M 26845B 26864M
                                                 26865M 26865B 26953M 26954M 26954B 26982M 26983M 26983B 27125M 27126M
                                                 27126B 27195M 27196M 27196B 27280M 27281M 27281B 27303M 27304M 27304B
                                                 27308M 27309M 27309B 27312M 27313M 27313B 27335M 27336M 27336B 27384M
                                                 27385M 27385B 27461M 27462M 27462B 27465M 27466M 27466B 27496M 27497M
                                                 27497B 27523M 27524M 27524B 27697M 27700B 27795  27841M 27842M 27842B
                                                 27911M 27912M 27912B 27922M 27923M 27923B 27974M 27975M 27975B 28009M
                                                 28010M 28010B 28037M 28038M 28038B 28066M 28067M 28067B 28080M 28081M
                                                 28081B 28109M 28110M 28110B 28164M 28165M 28165B 28183M 28184M 28184B
                                                 28198M 28199M 28199B 28222M 28223M 28223B 28246M 28247M 28247B 28276M
                                                 28277M 28277B 28295M 28296M 28296B 28310M 28311M 28311B 28390M 28391M
                                                 28391B 28438M 28439M 28439B 28494M 28497B 28712  28776M 28777M 28777B
                                                 28797M 28798M 28798B 28893M 28894M 28894B 28955M 28956M 28956B 28965M
                                                 28966M 28966B 29144M 29147B 29186  29232M 29235B 29268  29332M 29333M
                                                 29333B 29354M 29355M 29355B 29438M 29439M 29439B 29587M 29588M 29588B
                                                 29704M 29705M 29705B 29805M 29806M 29806B 29859M 29860M 29860B 30148M
                                                 30151B 30490  30542M 30545B 30557  30609M 30612B 30624  30675M 30678B
                                                 30690  30766M 30769B 30781  30832M 30835B 30847  30899M 30902B 30914
                                                 30965M 30968B 30980  31032M 31035B 31047  31100M 31101M 31101B 31190M
                                                 31193B 31205  31291M 31294B 31306  31358M 31361B 31373  31425M 31428B
                                                 31440  31492M 31495B 31507  31559M 31562B 31574  31626M 31629B 31641
                                                 31689M 31692B 31704  31750M 31753B 31765  31813M 31816B 31828  31875M
                                                 31878B 31890  31936M 31939B 31951  31997M 32000B 32078  32142M 32143M
                                                 32143B 32173M 32174M 32174B 32260M 32261M 32261B 32344M 32345M 32345B
                                                 32537M 32538M 32538B 32590M 32591M 32591B 32647M 32650B 32959  33010M
                                                 33013B 33025  33101M 33104B 33137  33194M 33195M 33195B 33289M 33292B
                                                 33304  33354M 33357B 33369  33466M 33469B 33481  33527M 33530B 33542
                                                 33588M 33591B 33603  33649M 33652B 33664  33715M 33718B 33730  33782M
                                                 33785B 33797  33848M 33851B 33863  33915M 33918B 33930  33977M 33978M
                                                 33978B 34067M 34070B 34082  34167M 34170B 34182  34233M 34236B 34248
                                                 34299M 34302B 34314  34447M 34450B 34462  34595M 34598B 34610  34656M
                                                 34659B 34730  34794M 34795M 34795B 34942M 34943M 34943B 35020M 35021M
                                                 35021B 35057M 35058M 35058B 35375M 35378B 35447  35498M 35501B 35513
                                                 35589M 35592B 35604  35650M 35653B 35686  35750M 35751M 35751B 35774M
                                                 35775M 35775B 35804M 35805M 35805B 35897M 35898M 35898B 35958M 35959M
1PROC     (PROC2193) (12:51) (15MAR04) Ordinary Symbol and Literal Cross Reference                                          Page  297
                                                 35959B 35973M 35974M 35974B 35989M 35990M 35990B 36017M 36018M 36018B
                                                 36164M 36165M 36165B 36389M 36390M 36390B 36450M 36453B 36567  36618M
                                                 36621B 36633  36709M 36712B 36724  36770M 36773B 36785  36831M 36834B
                                                 36846  36902M 36903M 36903B 36944M 36947B 36959  37005M 37008B 37085
                                                 37216M 37217M 37217B 37338M 37341B 37360  37424M 37425M 37425B 37446M
                                                 37447M 37447B 37523M 37524M 37524B 37734M 37737B 37776  37822M 37825B
                                                 37858  37922M 37923M 37923B 37944M 37945M 37945B 38040M 38041M 38041B
                                                 38176M 38177M 38177B 38357M 38360B 38444  38496M 38499B 38511  38562M
                                                 38565B 38577  38623M 38624M 38624B 38693M 38696B 38708  38754M 38757B
                                                 38791  38855M 38856M 38856B 38877M 38878M 38878B 38973M 38974M 38974B
                                                 39019M 39020M 39020B 39194M 39197B 39236  39282M 39285B 39318  39382M
                                                 39383M 39383B 39404M 39405M 39405B 39482M 39483M 39483B 39544M 39545M
                                                 39545B 39568M 39569M 39569B 39594M 39595M 39595B 39806M 39809B 39884
                                                 39935M 39938B 39950  40026M 40029B 40041  40092M 40095B 40107  40153M
                                                 40156B 40187  40251M 40252M 40252B 40273M 40274M 40274B 40400M 40401M
                                                 40401B 40450M 40451M 40451B 40465M 40466M 40466B 40479M 40480M 40480B
                                                 40504M 40505M 40505B 40522M 40523M 40523B 40765M 40766M 40766B 40826M
                                                 40829B 40928  40979M 40982B 40994  41070M 41073B 41085  41122M 41123M
                                                 41123B 41140M 41143B 41155  41206M 41209B 41221  41267M 41270B 41304
                                                 41447M 41448M 41448B 41513M 41514M 41514B 41530M 41531M 41531B 41565M
                                                 41568B 41788  41851M 41852M 41852B 41872M 41873M 41873B 41985M 41986M
                                                 41986B 42026M 42027M 42027B 42222M 42225B 42264  42310M 42313B 42346
                                                 42409M 42410M 42410B 42431M 42432M 42432B 42448M 42449M 42449B 42509M
                                                 42510M 42510B 42727M 42728M 42728B 42785M 42786M 42786B 43074M 43077B
                                                 43327  43380M 43383B 43395  43494M 43497B 43509  43608M 43611B 43623
                                                 43722M 43725B 43737  43836M 43839B 43851  43912M 43915B 43927  43988M
                                                 43991B 44003  44054M 44057B 44069  44121M 44124B 44136  44187M 44190B
                                                 44202  44278M 44281B 44293  44347M 44350B 44383  44446M 44447M 44447B
                                                 44472M 44473M 44473B 44539M 44540M 44540B 44626M 44627M 44627B 44802M
                                                 44803M 44803B 44855M 44856M 44856B 44912M 44915B 45105  45161M 45164B
                                                 45176  45239M 45242B 45254  45304M 45307B 45319  45365M 45368B 45380
                                                 45431M 45434B 45446  45522M 45525B 45537  45588M 45591B 45603  45655M
                                                 45658B 45670  45721M 45724B 45736  45788M 45791B 45803  45849M 45852B
                                                 45933  45996M 45997M 45997B 46144M 46145M 46145B 46210M 46211M 46211B
                                                 46247M 46248M 46248B 46573M 46576B 46645  46696M 46699B 46711  46787M
                                                 46790B 46802  46848M 46851B 46884  46947M 46948M 46948B 46971M 46972M
                                                 46972B 46989M 46990M 46990B 47081M 47082M 47082B 47118M 47119M 47119B
                                                 47145M 47146M 47146B 47296M 47297M 47297B 47562M 47563M 47563B 47623M
                                                 47626B 47741  47792M 47795B 47807  47883M 47886B 47898  47944M 47947B
                                                 47959  48005M 48008B 48020  48076M 48077M 48077B 48118M 48121B 48133
                                                 48179M 48182B 48255  48318M 48319M 48319B 48340M 48341M 48341B 48413M
                                                 48414M 48414B 48450M 48451M 48451B 48707M 48710B 48749  48795M 48798B
                                                 48831  48894M 48895M 48895B 48916M 48917M 48917B 48990M 48991M 48991B
                                                 49030M 49031M 49031B 49053M 49054M 49054B 49068M 49069M 49069B 49114M
                                                 49115M 49115B 49141M 49142M 49142B 49173M 49174M 49174B 49372M 49375B
                                                 49444  49495M 49498B 49510  49586M 49589B 49601  49647M 49650B 49683
                                                 49746M 49747M 49747B 49768M 49769M 49769B 49889M 49890M 49890B 49939M
                                                 49940M 49940B 49951M 49952M 49952B 49974M 49975M 49975B 49989M 49990M
                                                 49990B 49998M 49999M 49999B 50012M 50013M 50013B 50037M 50038M 50038B
                                                 50265M 50266M 50266B 50326M 50329B 50413  50464M 50467B 50479  50555M
                                                 50558B 50570  50607M 50608M 50608B 50629M 50632B 50644  50690M 50693B
                                                 50747  50858M 50859M 50859B 50883M 50884M 50884B 50896M 50897M 50897B
                                                 50931M 50934B 51030  51081M 51082M 51082B 51102M 51103M 51103B 51145M
                                                 51146M 51146B 51205M 51206M 51206B 51235M 51236M 51236B 51281M 51284B
                                                 51309  51535M 51538B 51670  51717M 51718M 51718B 51782M 51783M 51783B
                                                 51797M 51798M 51798B 51852M 51853M 51853B 51926M 51927M 51927B 51984M
                                                 51985M 51985B 52006M 52007M 52007B 52024M 52025M 52025B 52042M 52043M
                                                 52043B 52103M 52104M 52104B 52156M 52157M 52157B 52198M 52199M 52199B
                                                 52223M 52224M 52224B 52241M 52242M 52242B 52259M 52260M 52260B 52277M
1PROC     (PROC2193) (12:51) (15MAR04) Ordinary Symbol and Literal Cross Reference                                          Page  298
                                                 52278M 52278B 52295M 52296M 52296B 52314M 52315M 52315B 52332M 52333M
                                                 52333B 52350M 52351M 52351B 52378M 52379M 52379B 52423M 52426B 52448
                                                 52731M 52732M 52732B 52789M 52790M 52790B 52821M 52824B 52877  52955M
                                                 52956M 52956B 53112M 53113M 53113B 53438M 53441B 53464  53542M 53543M
                                                 53543B 53699M 53700M 53700B 54025M 54028B 54233  54278M 54279M 54279B
                                                 54302M 54303M 54303B 54329M 54330M 54330B 54350M 54351M 54351B 54376M
                                                 54377M 54377B 54413M 54414M 54414B 54512M 54513M 54513B 54579M 54580M
                                                 54580B 54612M 54613M 54613B 54642M 54643M 54643B 54714M 54715M 54715B
                                                 54858M 54861B 54888  54919M 54920M 54920B 54940M 54941M 54941B 54958M
                                                 54959M 54959B 54985M 54986M 54986B 55008M 55011B 55035  55109M 55110M
                                                 55110B 55166M 55167M 55167B 55251M 55252M 55252B 55273M 55274M 55274B
                                                 55377M 55378M 55378B 55413M 55414M 55414B 55446M 55447M 55447B 55457M
                                                 55458M 55458B 55462M 55463M 55463B 55497M 55498M 55498B 55532M 55533M
                                                 55533B 55536M 55537M 55537B 55558M 55559M 55559B 55591M 55592M 55592B
                                                 55679M 55680M 55680B 55753M 55754M 55754B 55781M 55782M 55782B 55826M
                                                 55827M 55827B 55847M 55848M 55848B 55871M 55872M 55872B 55892M 55893M
                                                 55893B 55899M 55900M 55900B 55922M 55925B 55942  55999M 56000M 56000B
                                                 56003M 56004M 56004B 56025M 56026M 56026B 56036M 56037M 56037B 56040M
                                                 56041M 56041B 56044M 56045M 56045B 56068M 56069M 56069B 56090M 56091M
                                                 56091B 56124M 56125M 56125B 56135M 56136M 56136B 56144M 56145M 56145B
                                                 56162M 56165B 56184  56232M 56233M 56233B 56244M 56245M 56245B 56257M
                                                 56258M 56258B 56305M 56306M 56306B 56309M 56310M 56310B 56331M 56332M
                                                 56332B 56342M 56343M 56343B 56393M 56396B 56413  56473M 56474M 56474B
                                                 56485M 56486M 56486B 56515M 56516M 56516B 56555M 56556M 56556B 56576M
                                                 56577M 56577B 56594M 56597B 56617  56654M 56655M 56655B 56698M 56699M
                                                 56699B 56716M 56719B 56797  56937M 56938M 56938B 57010M 57011M 57011B
                                                 57050M 57051M 57051B 57078M 57079M 57079B 57175M 57176M 57176B 57227M
                                                 57228M 57228B 57292M 57295B 57316  57467M 57468M 57468B 57471M 57472M
                                                 57472B 57490M 57491M 57491B 57674M 57675M 57675B 57694M 57697B 57715
                                                 57750M 57751M 57751B 57770M 57773B 57832  57876M 57877M 57877B 58052M
                                                 58053M 58053B 58074M 58077B 58092  58126M 58127M 58127B 58144M 58147B
                                                 58166  58218M 58219M 58219B 58283M 58286B 58304  58353M 58354M 58354B
                                                 58374M 58377B 58393  58484M 58485M 58485B 58517M 58518M 58518B 58539M
                                                 58540M 58540B 58563M 58564M 58564B 58597M 58598M 58598B 58625M 58626M
                                                 58626B 58654M 58655M 58655B 58676M 58679B 58698  58791M 58792M 58792B
                                                 58819M 58820M 58820B 58841M 58844B 58917  58968M 58971B 58983  59034M
                                                 59037B 59049  59100M 59103B 59115  59160M 59161M 59161B 59179M 59182B
                                                 59253  59287M 59288M 59288B 59417M 59418M 59418B 59487M 59490B 59508
                                                 59544M 59545M 59545B 59574M 59575M 59575B 59724M 59727B 59765  59812M
                                                 59813M 59813B 59858M 59859M 59859B 60016M 60019B 60038  60082M 60083M
                                                 60083B 60127M 60128M 60128B 60262M 60265B 60284  60331M 60332M 60332B
                                                 60379M 60380M 60380B 60537M 60540B 60559  60603M 60604M 60604B 60648M
                                                 60649M 60649B 60783M 60786B 60805  60852M 60853M 60853B 60900M 60901M
                                                 60901B 61058M 61061B 61195  61254M 61255M 61255B 61310M 61311M 61311B
                                                 61391M 61392M 61392B 61406M 61407M 61407B 61455M 61456M 61456B 61491M
                                                 61492M 61492B 61531M 61534B 61595  61671M 61672M 61672B 61755M 61756M
                                                 61756B 61885M 61886M 61886B 61927M 61928M 61928B 62012M 62013M 62013B
                                                 62078M 62081B 62165  62216M 62219B 62231  62282M 62285B 62297  62348M
                                                 62351B 62363  62409M 62412B 62439  62491M 62494B 62561  62639M 62640M
                                                 62640B 62796M 62797M 62797B 63122M 63125B 63219  63548M 63551B 63639
                                                 63930M 63931M 63931B 63949M 63950M 63950B 64034M 64037B 64065  64259M
                                                 64262B 64289  64406M 64409B 64491  64559M 64560M 64560B 64718M 64719M
                                                 64719B 64808M 64811B
 RDBACTNO      4 00000040 FFFFFFC1     F   64467 64538M 64556  64715
 RDBBUF        4 0000002C FFFFFFC1     F   64462 64533M 64544  64736  64743
 RDBBUFLN      4 00000034 FFFFFFC1     F   64464 64535M 64546  64737
 RDBDONE       2 0000B5F2 00000001     H   64729 64667B 64687B 64705B
 RDBFILL       4 00000044 FFFFFFC1     F   64468 64539M 64739
 RDBLNBUF      4 00000030 FFFFFFC1     F   64463 64534M 64542
1PROC     (PROC2193) (12:51) (15MAR04) Ordinary Symbol and Literal Cross Reference                                          Page  299
 RDBLNO        4 00000028 FFFFFFC1     F   64461 64532M 64543
 RDBMAXCT      4 00000038 FFFFFFC1     F   64465 64536M 64684
 RDBMAXLN      4 0000003C FFFFFFC1     F   64466 64537M 64597  64612
 RDBWA        72 00000000 FFFFFFC1     J   64475 64497  64526U 64806  64808  64809
 RDRNG         1 00000000 0000002D     T   25726 25726  41601  50966
 READBUF       2 0000B52A 00000001     H   64484 12131  28518
 RELHEAP       1 00000000 0000001F     T   18520 18520  20101
 RFC#CHAR      1 00000000 00000001 A   U   57778 57782
 RFC#DLIM      1 00000001 00000001 A   U   57779 57784  57786  57788  57790  57792  57794  57796  57798  57800  57802
                                                 59199
 RFC#QUOT      1 00000002 00000001 A   U   57780 57804
 RFCACOL1      4 00000010 FFFFFFC7     F   54115 55065M 55833  55972M
 RFCACOL2      4 00000018 FFFFFFC7     F   54117 55374M 55878  56254M
 RFCADDBF    120 000003B0 FFFFFFC7     C   54207 55248  55747  55747  56302  58123
 RFCADDLN      4 000003AC FFFFFFC7     F   54206 55072M 55072  55476M 55476  55749
 RFCADDR       2 000097D8 00000001     H   55029 56740
 RFCADDRS      2 00009B3C 00000001     H   56178 56742
 RFCADDRX      2 0000997C 00000001     H   55602 55111B 55168B 55419B
 RFCADDTK      2 0000A324 00000001     H   58086 56746
 RFCALIN1      4 0000000C FFFFFFC7     F   54114 55064M 55812  55971M
 RFCALIN2      4 00000014 FFFFFFC7     F   54116 55373M 55854  56253M
 RFCALIST      2 0000977E 00000001     H   54882 56736
 RFCBLKTR      1 0000A16E 00000001     X   57810 57127  57811  57813  57815  57817
 RFCCOMLN      4 000004A4 FFFFFFC7     F   54210 55583  56366  56832M 56832  57223M 57223
 RFCCOMM     120 000004A8 FFFFFFC7     C   54211 55584  56367  57224
 RFCCTAB       1 0000A06E 00000001     R   57782 56892  56909  57783  57785  57787  57789  57791  57793  57795  57797
                                                 57799  57801  57803  57805
 RFCENDLN      4 00000004 FFFFFFC7     F   54112 54709  57940M
 RFCERROR      2 0000A3F2 00000001     H   58387 56733  59210
 RFCEXIT       4 00009714 00000001     I   54675 54352B 54415B
 RFCFFLAG      1 0000005A FFFFFFC7     R   54164 54168  54173  54178  54183  54188  54193  54373M
 RFCFIELD     20 00000040 FFFFFFC7     C   54127 54420M 54422M 54423  54435  55724  56673  58462M 58462
 RFCFLAGS      1 00000059 FFFFFFC7     R   54134 54138  54143  54148  54153  54158
 RFCFLBAD      8 00000059 FFFFFFC7        54158 54737  58451M
 RFCFLDEB     64 00000059 FFFFFFC7        54143 57028  58951M
 RFCFLDOM      4 0000005A FFFFFFC7        54193 55086M 55372M 55712  56349M
 RFCFLEOD    128 00000059 FFFFFFC7        54138 54658  57920M
 RFCFLEOF      8 0000005A FFFFFFC7        54188 54634  54973  54973  54974  56856  56856  56857  57186  57482  57914M
                                                 57990M
 RFCFLERR     32 0000005A FFFFFFC7        54178 54973  54973  55694  56526  56856  56856  56948  57238  58431  58445M
 RFCFLFRM     64 0000005A FFFFFFC7        54173 54509M
 RFCFLGRP     16 0000005A FFFFFFC7        54183 55628  55670  56465  56492M 56573M
 RFCFLNOL     32 00000059 FFFFFFC7        54148 58007  59017M
 RFCFLNPT     16 00000059 FFFFFFC7        54153 55799  59083M
 RFCFLRCP    128 0000005A FFFFFFC7        54168 54576M 55735  56453
 RFCGETLN      2 0000A26E 00000001     H   57826 56732  59208
 RFCGROUP      2 00009C02 00000001     H   56407 56748
 RFCIBUF     236 0000005B FFFFFFC7     C   54199 54342  56874  57014  57867M 57868  57947  57965  57979  58036  58520
 RFCIEND       4 0000003C FFFFFFC7     F   54126 56650  57096  57409  57463  57950M
 RFCILEN       4 00000038 FFFFFFC7     F   54125 57946M 58020M 58020  58041
 RFCIPTR       4 00000034 FFFFFFC7     F   54124 56646  56873  56880  56992  57013  57089  57200  57216M 57257M 57499
                                                 57746  57747  57753M 57948M 58519
 RFCLINCT      4 00000030 FFFFFFC7     F   54123 57865  57866M
 RFCLINE       4 0000002C FFFFFFC7     F   54122 56872  57017  57869  57940
 RFCMAXLN      1 00000078 FFFFFFC7 A   U   54203 54205  54207  54209  54211  59213
 RFCNAME     120 0000042C FFFFFFC7     C   54209 55443  55454  55584M 55775  55775  56367M
 RFCNAMLN      4 00000428 FFFFFFC7     F   54208 55079M 55079  55366M 55366  55435M 55435  55577M 55577  55583M 55768M
                                                 55768  55777  56360M 56360  56366M
 RFCNEXTC      1 00000058 FFFFFFC7     X   54130 54405  55158  55293  55307  55321  57192M 57258M
1PROC     (PROC2193) (12:51) (15MAR04) Ordinary Symbol and Literal Cross Reference                                          Page  300
 RFCOPDEB      2 0000A600 00000001     H   58911 58860
 RFCOPERR      2 0000A684 00000001     H   59109 58905  59219
 RFCOPNOL      2 0000A62C 00000001     H   58977 58875
 RFCOPNPT      2 0000A658 00000001     H   59043 58890
 RFCOPPRT      4 0000A560 00000001     F   58848 59217
 RFCOUTNO      4 00000000 FFFFFFC7     F   54111 54297M 58333
 RFCPUTLN      2 0000A3BA 00000001     H   58298 56749
 RFCPUTS       2 0000A35E 00000001     H   58160 56745  59211
 RFCRETPT      4 00000008 FFFFFFC7     F   54113 54295M 54675
 RFCRTADD      2 00009A8A 00000001     H   55936 56741
 RFCSCAN       2 00009DAE 00000001     H   56791 56734
 RFCSCANH      2 000095D0 00000001     H   54226  9260
 RFCSCERR      2 00009F18 00000001     H   57267 56951B 57241B
 RFCSCNOP      2 0000A4B6 00000001     H   58692 56731
 RFCSCNQS      2 00009F38 00000001     H   57310 59200
 RFCSCSEG      2 0000A02E 00000001     H   57709 59204
 RFCSUBJ       2 00009C80 00000001     H   56611 56738
 RFCTCOL1      4 00000020 FFFFFFC7     F   54119 55065  55972  56876M
 RFCTCOL2      4 00000028 FFFFFFC7     F   54121 55374  56254  57016M
 RFCTEMP     232 00000147 FFFFFFC7     C   54200 55208M 55210M 55224  55724M 55725M 55742M 55747M 55750  55774M 55775M
                                                 55778  55805M 55806M 55807  55895  56259M 56261M 56275  56289  56673M
                                                 56686M 56695  58536
 RFCTLIN1      4 0000001C FFFFFFC7     F   54118 55064  55971  56872M
 RFCTLIN2      4 00000024 FFFFFFC7     F   54120 55373  56253  57017M
 RFCTOKEN    120 00000334 FFFFFFC7     C   54205 54420  54932  55101  55208  55453  55489  55524  55549  55616  55642
                                                 55658  55985  56057  56081  56115  56259  56507  56546  56840M 56934
                                                 57007  57062  57273M 58122  58609
 RFCTOKLN      4 00000330 FFFFFFC7     F   54204 55452  56839M 56839  56978M 56978  57067  57272M 57272  58121  58575M
                                                 58575  58614
 RFCTRT      256 0000022F FFFFFFC7     X   54201 57351M 57351  57352M 57369M 57385M 57386M 57436
 RFCTTYPE      4 00000054 FFFFFFC7     C   54128 54391  55140  55196  56016  56224  56322  56841M 56965M 56998M 57274M
 RFCWA      1312 00000000 FFFFFFC7     J   54218 54197  54239  54268U 54272M 54272  54296  54856  54858  54859  54869U
 RFCZLEN       1 0000005B FFFFFFC7 A   U   54197 54272
 ROWGET        1 00000000 0000005D     T   62514 62514
 ROWPUT        1 00000000 0000005E     T   62515 62515
 RTNENTRY     20 00000000 FFFFFFDE     J    8354  8578   8702U
 RTNNAME      16 00000000 FFFFFFDE     C    8345  8366   8367   8579   8721
 RTNPTR        4 00000010 FFFFFFDE     A    8347  8714M  8714   8720   8720
 RTRIM         1 00000000 0000004E     T   41596 41596  48216  62528
 R0            0 00000000 FFFFFFFF A   #     699  2329   2398M  8564M  8572M  8666   8670M  8883M  8883   8884   8905M
                                                  8905   8906   9390   9918   9974M  9978   9989M  9989   9998   9999
                                                 10037M 10041  10052M 10052  10061  10062  10248M 10249  10250  10477M
                                                 10478  10479  10554M 10554  10587M 10601M 10633M 10647M 10679M 10693M
                                                 10725M 10747M 10747  10774M 10821  10822  10930  11085M 11097  11176M
                                                 11188  11409  11549  11560M 11602  11715M 11758M 11836M 11851  11858M
                                                 11873  11917M 11939M 11961  12253  12346M 12346  12347  12348  12422M
                                                 12423  12439M 12440  12456M 12457  12473M 12474  12489M 12490  12505M
                                                 12506  12572  12573  12629M 12683  12684  12973  13068M 13068  13069
                                                 13070  13146M 13150  13161M 13161  13170  13171  13225M 13248M 13264
                                                 13273M 13281  13352M 13381M 13400M 13421M 13446M 13471M 13497M 13512M
                                                 13584  13585  13834  13911M 13911  13912  13913  14118M 14118  14119
                                                 14120  14196M 14200  14211M 14211  14220  14221  14275M 14298M 14314
                                                 14323M 14331  14402M 14403  14424M 14445M 14470M 14495M 14521M 14533M
                                                 14593  14594  14738M 14744M 14816  14817  15059  15154M 15154  15155
                                                 15156  15232M 15236  15247M 15247  15256  15257  15311M 15334M 15350
                                                 15359M 15367  15430M 15455M 15474  15496M 15498M 15504  15536M 15590M
                                                 15611M 15629M 15650M 15675M 15700M 15726M 15752M 15778M 15804M 15819M
                                                 15891  15892  16142  16146M 16206  16207  16453  16548M 16548  16549
                                                 16550  16628M 16651M 16667  16676M 16683  16727M 16749M 16768M 16789M
1PROC     (PROC2193) (12:51) (15MAR04) Ordinary Symbol and Literal Cross Reference                                          Page  301
                                                 16814M 16839M 16865M 16944  16945  17177  17229M 17232  17234  17252M
                                                 17252  17277M 17280  17280M 17388  17734M 17734  17735  17736  17814M
                                                 17837M 17853  17862M 17869  17916M 17921  17932M 17933  17942M 17943
                                                 17963M 17984M 18009M 18034M 18060M 18082  18096M 18115M 18116M 18131
                                                 18151M 18323M 18394  18395  18647M 18648  18717M 18717  18804M 18865M
                                                 18865  18917M 18926  18928  18967  19012M 19016  19016M 19130  19225M
                                                 19225  19226  19227  19305M 19328M 19344  19353M 19360  19422M 19561M
                                                 19575M 19575  19584M 19592  19608  19630M 19673M 19702M 19720M 19741M
                                                 19766M 19791M 19817M 19843M 19869M 19895M 19974  19975  20180  20228
                                                 20255M 20333M 20334  20335  20498  20545  20679  20680  20823M 20824
                                                 20825  20943M 20943  20984  20985  21080M 21081  21082  21224  21271
                                                 21405  21406  21549M 21550  21551  21669M 21669  21710  21711  21806M
                                                 21807  21808  21952  21999  22133  22134  22277M 22278  22279  22397M
                                                 22397  22438  22439  22534M 22535  22536  22680  22727  22861  22862
                                                 23005M 23006  23007  23125M 23125  23166  23167  23262M 23263  23264
                                                 23408  23455  23589  23590  23733M 23734  23735  23853M 23853  23894
                                                 23895  23990M 23991  23992  24124  24176  24203M 24282M 24283  24284
                                                 24520M 24583M 24584  24680M 24772M 24793M 24800M 24801M 25046M 25054M
                                                 25059  25062M 25088M 25142M 25161M 25161  25312  25354  25360M 25369M
                                                 25550  25587M 25596M 25617M 25624M 25626  25626M 25652M 25652  25655
                                                 25655M 25841  25893M 25912M 25912  25926  25935  25977M 26023M 26042M
                                                 26110  26126M 26154M 26196M 26245M 26266M 26308M 26326M 26341M 26375M
                                                 26407M 26421M 26427M 26488  26489  26833M 26861M 26880  26942M 26971M
                                                 27002M 27015M 27015  27055M 27062  27063  27063  27063  27064M 27066M
                                                 27067  27070M 27082M 27082  27106M 27145M 27159M 27159  27181M 27188
                                                 27189  27189  27189  27190M 27192M 27205M 27205  27211  27218M 27221M
                                                 27235  27239M 27242  27254M 27292M 27305M 27381M 27454M 27468  27469
                                                 27469  27469  27485M 27501M 27544M 27547  27559M 27612  27613  27722
                                                 27722  27722  27751  27889  27900M 27942  28055M 28098M 28151M 28166
                                                 28170M 28185  28189M 28213M 28237M 28263M 28278  28282M 28297  28301M
                                                 28341M 28350  28766  28794M 28859M 28863  28878M 28878  28887  28888
                                                 28970M 28976M 29048  29049  29322  29336  29351M 29396M 29400  29423M
                                                 29423  29432  29433  29452M 29555M 29565M 29606M 29618  29624M 29624
                                                 29909  29910  30003M 30052  30053  30733M 30733  30749  31088M 31088
                                                 31097  31112  31247M 31268M 31268  31273  31341  31408  31475  31542
                                                 31609  31671  31733  31795  31857M 31858  31919  32132  32170M 32170
                                                 32225M 32229  32245M 32245  32254  32255  32368M 32440  32441  33068M
                                                 33068  33084  33182M 33182  33191  33206  33336M 33336  33337  33398
                                                 33410  33965M 33965  33974  33989  34425M 34573M 34784  34879M 34879
                                                 34880  34881  34939M 34986M 34990  35005M 35005  35014  35015  35114
                                                 35115  35175M 35197M 35207M 35279  35280  35556M 35556  35572  35740
                                                 35754  35771M 35806  35811M 35811  35846M 35867  35882M 35882  35891
                                                 35892  35947M 35962M 36129M 36153M 36153  36177M 36192M 36264  36265
                                                 36676M 36676  36692  36753  36814  36899M 36906  36918M 36923  37195M
                                                 37196  37269M 37270  37414  37443M 37489M 37493  37508M 37508  37517
                                                 37518  37560M 37566M 37638  37639  37912  37941M 38006M 38010  38025M
                                                 38025  38034  38035  38101M 38101  38122M 38183M 38189M 38261  38262
                                                 38845  38874M 38939M 38943  38958M 38958  38967  38968  39013M 39026M
                                                 39098  39099  39372  39401M 39448M 39452  39467M 39467  39476  39477
                                                 39533M 39557M 39557  39591M 39606M 39606  39629M 39638M 39710  39711
                                                 39993M 39993  40009  40241  40270M 40308M 40308  40341M 40361  40385M
                                                 40385  40394  40395  40461M 40493M 40493  40519M 40534M 40534  40557M
                                                 40568M 40640  40641  41037M 41037  41053  41368  41411  41423  41436M
                                                 41467M 41487M 41841  41869M 41906  41951M 41955  41970M 41970  41979
                                                 41980  42043M 42054M 42126  42127  42399  42413  42428M 42467M 42471
                                                 42494M 42494  42503  42504  42523M 42628M 42634M 42646  42652M 42652
                                                 42835  42836  42929M 42978  42979  43361M 43361  43362  43437M 43458M
                                                 43458  43476  43551M 43572M 43572  43590  43665M 43686M 43686  43704
                                                 43779M 43800M 43800  43818  43894  43970  44245M 44245  44261  44327M
1PROC     (PROC2193) (12:51) (15MAR04) Ordinary Symbol and Literal Cross Reference                                          Page  302
                                                 44327  44329  44329M 44436  44469M 44469  44505M 44509  44524M 44524
                                                 44533  44534  44589M 44650M 44722  44723  45348  45489M 45489  45505
                                                 45986  46081M 46081  46082  46083  46141M 46176M 46180  46195M 46195
                                                 46204  46205  46253  46265M 46337  46338  46399M 46405M 46477  46478
                                                 46754M 46754  46770  46937  46951  46968M 46991  46996M 46996  47031M
                                                 47051  47066M 47066  47075  47076  47126  47138M 47173  47253M 47287M
                                                 47346M 47365M 47437  47438  47850M 47850  47866  47927  47988  48073M
                                                 48080  48092M 48097  48308  48337M 48371M 48375  48398M 48398  48407
                                                 48408  48458M 48478M 48503M 48528M 48539M 48611  48612  48884  48913M
                                                 48948M 48952  48975M 48975  48984  48985  49027M 49057M 49103M 49130M
                                                 49162M 49175M 49184M 49184  49194M 49204M 49276  49277  49553M 49553
                                                 49569  49736  49765M 49789M 49789  49822M 49842  49874M 49874  49883
                                                 49884  49948M 49978M 49994M 50026M 50026  50039M 50048M 50048  50058M
                                                 50068M 50140  50141  50522M 50522  50538  50821  50831  50832  50847M
                                                 50872M 51069  51104  51119M 51119  51170M 51170  51193M 51199  51200M
                                                 51201M 51208M 51211M 51232M 51232  51355  51367M 51433  51434  51771M
                                                 51786M 51849M 51898M 51898  51915M 51915  51973M 51973  51995M 52013M
                                                 52031M 52061M 52063  52174  52175  52175  52175  52187M 52187  52212M
                                                 52212  52230M 52248M 52266M 52284M 52303M 52321M 52339M 52354M 52355M
                                                 52545  52597  52598  52598  52598  52623M 52624M 52625M 52647M 52648M
                                                 52649M 52655M 52657M 52778M 52778  52841  52918  52995  53021  53067M
                                                 53069  53095M 53097  53104M 53115  53165M 53166  53167  53252M 53253
                                                 53254  53357M 53358  53359  53505  53582  53608  53654M 53656  53682M
                                                 53684  53691M 53702  53752M 53753  53754  53839M 53840  53841  53944M
                                                 53945  53946  54062  54062  54062  54298M 54727M 54747M 54792  54793
                                                 55247M 55441M 55452M 55748M 55749M 55776M 55777M 55819M 55828  55837M
                                                 55837  55849  55861M 55873  55882M 55882  55894M 55896M 56301M 56650M
                                                 56651M 56664M 56664  56674  56694M 56874M 56875  57014M 57015  57039M
                                                 57067M 57745M 57746M 57864M 57865M 57866  57899M 57899  57908M 57908
                                                 57934M 57934  57946  57949  58041M 58121M 58198  58229  58473M 58506M
                                                 58520M 58521  58529M 58529  58586M 58614M 58643M 58643  58735M 58735
                                                 58765  58776M 58776  58785  58786  59149M 59333M 59334  59335  59537
                                                 59571M 59650M 59651  59652  59804  59855M 59927  59928  60124M 60177
                                                 60178  60323  60376M 60448  60449  60645M 60698  60699  60844  60897M
                                                 60969  60970  61245  61380M 61395M 61444M 61480M 61480  61663  61725M
                                                 61729  61740M 61740  61749  61750  61882M 61889  61901M 62473M 62602
                                                 62679  62705  62751M 62753  62779M 62781  62788M 62799  62849M 62850
                                                 62851  62936M 62937  62938  63041M 63042  63043  63190  63260  63383M
                                                 63384M 63402M 63403M 63429M 63456  63490M 63514M 63526  63526M 63687
                                                 63697M 63698M 63714  63769M 63770M 63786  64005M 64012  64012M 64356M
                                                 64389  64389M 64460  64532  64618  64620  64735M 64738  64740M 64742M
                                                 64743M 64754M 64754  64786  64786M
 R1            1 00000001 FFFFFFFF A   #     712  2392M  2393M  2399M  8569   8574M  8577M  8580   8667   8672M  8694
                                                  8721M  8755   8755M  9520M  9521   9568M  9569   9616M  9617   9664M
                                                  9665   9936   9969M  9977   9985M  9998   9999  10001  10032M 10040
                                                 10048M 10061  10062  10064  10206M 10207  10435M 10436  10556M 10556
                                                 10582M 10632M 10678M 10724M 10743M 10769M 11082M 11084M 11085  11097
                                                 11106M 11173M 11175M 11176  11188  11197M 11316  11319  11322  11516
                                                 11519  11559M 11608  11643  11692M 11714M 11735M 11757M 11779M 11782
                                                 11786M 11789  11793M 11796  11800M 11803  11837M 11852  11859M 11874
                                                 11918M 11940M 11962  11996M 11997  12044M 12045  12065M 12067  12069M
                                                 12071  12073M 12075  12077M 12079  12254  12342M 12342  12418M 12423
                                                 12435M 12440  12452M 12457  12469M 12474  12484M 12490  12500M 12506
                                                 12508M 12628M 12838  12842M 12974  12999  13064M 13064  13142M 13149
                                                 13157M 13170  13171  13173  13224M 13244M 13272M 13347M 13380M 13399M
                                                 13420M 13445M 13470M 13496M 13511M 13835  13860  13907M 13907  14026M
                                                 14027  14114M 14114  14192M 14199  14207M 14220  14221  14223  14274M
                                                 14294M 14322M 14397M 14404  14423M 14444M 14469M 14494M 14520M 14534M
                                                 14706M 14707  14737M 14743M 15060  15085  15150M 15150  15228M 15235
1PROC     (PROC2193) (12:51) (15MAR04) Ordinary Symbol and Literal Cross Reference                                          Page  303
                                                 15243M 15256  15257  15259  15310M 15330M 15358M 15429M 15451M 15495
                                                 15497M 15531M 15557M 15558M 15571M 15576  15585M 15610M 15628M 15649M
                                                 15674M 15699M 15725M 15751M 15777M 15803M 15818M 16145M 16454  16479
                                                 16544M 16544  16627M 16647M 16675M 16728M 16748M 16767M 16788M 16813M
                                                 16838M 16864M 17204  17231M 17240M 17389  17558M 17559  17642M 17643
                                                 17730M 17730  17813M 17833M 17861M 17922  17962M 17983M 18008M 18033M
                                                 18059M 18095M 18103  18117M 18150M 18206M 18207  18291M 18292  18322M
                                                 18632  18687M 18703  18712M 18809  18815  18835M 18851  18860M 18913M
                                                 19013M 19016  19131  19156  19221M 19221  19304M 19324M 19352M 19421M
                                                 19539M 19560M 19583M 19591  19629M 19651M 19652M 19653M 19666M 19671
                                                 19672M 19701M 19719M 19740M 19765M 19790M 19816M 19842M 19868M 19894M
                                                 20234  20242  20251M 20332M 20531  20551  20621M 20757M 20758  20822M
                                                 20921M 20922  20939M 20939  21079M 21257  21277  21347M 21483M 21484
                                                 21548M 21647M 21648  21665M 21665  21805M 21985  22005  22075M 22211M
                                                 22212  22276M 22375M 22376  22393M 22393  22533M 22713  22733  22803M
                                                 22939M 22940  23004M 23103M 23104  23121M 23121  23261M 23441  23461
                                                 23531M 23667M 23668  23732M 23831M 23832  23849M 23849  23989M 24156
                                                 24182  24190  24199M 24281M 24515  24525  24581  24582  24583  24585M
                                                 24585  24586  24607M 24679M 24770  24771M 24792M 24799M 25041  25051
                                                 25060  25061M 25061  25103M 25143M 25359M 25368M 25586M 25595M 25616M
                                                 25842  25866  25889M 26037M 26121M 26149M 26195M 26261M 26301M 26333M
                                                 26371M 26406M 26420M 26426M 26816  26828M 26856M 26935M 26964M 26995M
                                                 27053M 27062  27063  27063  27063  27064  27065M 27066  27067  27070M
                                                 27104M 27143M 27146  27179M 27188  27189  27189  27189  27190  27191M
                                                 27192  27211  27218M 27220M 27235  27239M 27305M 27376M 27452M 27468
                                                 27469  27469  27469  27480M 27501M 27539M 27722  27722  27722  27856
                                                 27859  27899M 27948  27983  28032M 28054M 28075M 28097M 28119M 28122
                                                 28126M 28129  28133M 28136  28140M 28143  28152M 28167  28171M 28186
                                                 28190M 28214M 28238M 28264M 28279  28283M 28298  28302M 28342M 28351
                                                 28385M 28386  28433M 28434  28454M 28456  28458M 28460  28462M 28464
                                                 28466M 28468  28767  28793  28800  28855M 28862  28874M 28887  28888
                                                 28890  28951M 28969M 28975M 29323  29350  29357  29392M 29399  29419M
                                                 29432  29433  29435  29452M 29554M 29564M 29583M 29605M 29613  29622M
                                                 29622  29700  29801  29998M 31084M 31097  31242M 31273  31670M 31671
                                                 31794M 31795  32133  32177  32221M 32228  32241M 32254  32255  32257
                                                 32367M 32585M 32586  33178M 33191  33961M 33974  34345M 34346M 34346
                                                 34424M 34493M 34494M 34494  34572M 34785  34812  34875M 34875  34945
                                                 34982M 34989  35001M 35014  35015  35017  35174M 35196M 35206M 35741
                                                 35769  35777  35813M 35813  35842M 35866  35878M 35891  35892  35894
                                                 35942M 36128M 36177M 36191M 36384M 36385  36892M 37194M 37196  37268M
                                                 37270  37415  37442  37450  37485M 37492  37504M 37517  37518  37520
                                                 37559M 37565M 37913  37940  37947  38002M 38009  38021M 38034  38035
                                                 38037  38172M 38182M 38188M 38608M 38609M 38609  38846  38873  38880
                                                 38935M 38942  38954M 38967  38968  38970  39015M 39025M 39373  39400
                                                 39407  39444M 39451  39463M 39476  39477  39479  39529M 39586M 39628M
                                                 39637M 40242  40269  40276  40306M 40306  40337M 40360  40381M 40394
                                                 40395  40397  40462M 40514M 40556M 40567M 40760M 40761  41422  41431M
                                                 41466M 41486M 41842  41868  41875  41947M 41954  41966M 41979  41980
                                                 41982  42042M 42053M 42400  42427  42434  42463M 42470  42490M 42503
                                                 42504  42506  42523M 42627M 42633M 42641  42650M 42650  42723  42924M
                                                 43359M 43359  43362  43432M 43476  43546M 43590  43660M 43704  43774M
                                                 43818  43880M 43894  43956M 43970  44325M 44325  44329  44437  44476
                                                 44501M 44508  44520M 44533  44534  44536  44588M 44601M 44601  44618M
                                                 44649M 44850M 44851  45136M 45137M 45137  45207M 45208M 45208  45285M
                                                 45286M 45286  45987  46014  46077M 46077  46147  46172M 46179  46191M
                                                 46204  46205  46207  46398M 46404M 46938  46966  46974  46998M 46998
                                                 47027M 47050  47062M 47075  47076  47078  47252M 47286M 47345M 47364M
                                                 47557M 47558  48066M 48309  48336  48344  48367M 48374  48394M 48407
                                                 48408  48410  48457M 48477M 48502M 48527M 48538M 48885  48912  48919
1PROC     (PROC2193) (12:51) (15MAR04) Ordinary Symbol and Literal Cross Reference                                          Page  304
                                                 48944M 48951  48971M 48984  48985  48987  49096M 49125M 49158M 49175M
                                                 49193M 49203M 49737  49764  49771  49787M 49787  49818M 49841  49870M
                                                 49883  49884  49886  49995M 50039M 50057M 50067M 50260M 50261  50830
                                                 50842M 50867M 51070  51098  51104  51157  51191M 51199  51200  51202M
                                                 51208M 51209M 51737  51740  51764M 51844M 51994M 52012M 52030M 52062
                                                 52174  52175  52175  52175  52229M 52247M 52265M 52283M 52302M 52320M
                                                 52338M 52354M 52544  52597  52598  52598  52598  52655M 52979  53001
                                                 53027  53066M 53068  53094M 53096  53105M 53116  53160M 53247M 53352M
                                                 53566  53588  53614  53653M 53655  53681M 53683  53692M 53703  53747M
                                                 53834M 53939M 54062  54062  54062  54297  54298  54299M 54299  54709M
                                                 54710  54726M 54746M 55246M 55442M 55453M 55750M 55778M 55807M 55828M
                                                 55844M 55849M 55868M 55873M 55889M 55894  55895M 55896  56300M 56646M
                                                 56649M 56651  56695M 56873M 56875M 56876  56880M 56992  57001M 57013M
                                                 57015M 57016  57038M 57062M 57089M 57097  57200M 57216  57257  57396M
                                                 57410  57463M 57499M 57566M 57661M 57670M 57677  57677M 57744  57745
                                                 57747M 57752M 57753  57868M 57947M 57948  57949M 57950  58036M 58122M
                                                 58472M 58505M 58536M 58585M 58609M 58764  58772M 58785  58786  58788
                                                 59148M 59332M 59412M 59413  59566M 59649M 59805  59838  59850M 60095
                                                 60119M 60324  60357  60359  60371M 60616  60640M 60845  60878  60880
                                                 60892M 61281  61375M 61440M 61664  61721M 61728  61736M 61749  61750
                                                 61752  61878M 62007M 62008  62472M 62663  62685  62711  62750M 62752
                                                 62778M 62780  62789M 62800  62844M 62931M 63036M 63261  63385M 63404M
                                                 63423  63430M 63462M 63462  63463M 63463  63475  63481M 63481  63482M
                                                 63482  63491M 63513M 63526  63688  63696M 63698  63714  63720M 63720
                                                 63721M 63721  63768M 63770  63786  63792M 63792  63793M 63793  63841M
                                                 63899  63911  63912  63982M 63982  63983M 63983  64006M 64012  64103
                                                 64155  64202  64342  64386M 64389  64533  64554M 64713M 64736M 64737M
                                                 64738M 64744M
 R12          12 0000000C FFFFFFFF A   #     855  2355
 R13          13 0000000D FFFFFFFF A   #     868  9993   9994   9995  10011  10012  10013  10056  10057  10058  10074
                                                 10075  10076  12970  13165  13166  13167  13183  13184  13185  13831
                                                 14215  14216  14217  14233  14234  14235  15056  15251  15252  15253
                                                 15269  15270  15271  16450  17385  19127  25110  28763  28882  28883
                                                 28884  28900  28901  28902  29319  29427  29428  29429  29445  29446
                                                 29447  31092  31093  31094  31107  31108  31109  32129  32249  32250
                                                 32251  32267  32268  32269  33186  33187  33188  33201  33202  33203
                                                 33969  33970  33971  33984  33985  33986  34781  35009  35010  35011
                                                 35027  35028  35029  35737  35886  35887  35888  35904  35905  35906
                                                 37411  37512  37513  37514  37530  37531  37532  37909  38029  38030
                                                 38031  38047  38048  38049  38842  38962  38963  38964  38980  38981
                                                 38982  39369  39471  39472  39473  39489  39490  39491  40238  40389
                                                 40390  40391  40407  40408  40409  41838  41974  41975  41976  41992
                                                 41993  41994  42396  42498  42499  42500  42516  42517  42518  44433
                                                 44528  44529  44530  44546  44547  44548  45983  46199  46200  46201
                                                 46217  46218  46219  46934  47070  47071  47072  47088  47089  47090
                                                 48305  48402  48403  48404  48420  48421  48422  48881  48979  48980
                                                 48981  48997  48998  48999  49733  49878  49879  49880  49896  49897
                                                 49898  58747  58780  58781  58782  58798  58799  58800  61659  61744
                                                 61745  61746  61762  61763  61764
 R14          14 0000000E FFFFFFFF A   #     881  2330M  9939M  9941M  9944M  9946M  9976M  9977   9978   9982M  9982
                                                  9992M  9993   9994   9995  10000M 10001  10008M 10011  10012  10013
                                                 10039M 10040  10041  10045M 10045  10055M 10056  10057  10058  10063M
                                                 10064  10071M 10074  10075  10076  12969M 12970  13148M 13149  13150
                                                 13154M 13154  13164M 13165  13166  13167  13172M 13173  13180M 13183
                                                 13184  13185  13650M 13653  13830M 13831  14198M 14199  14200  14204M
                                                 14204  14214M 14215  14216  14217  14222M 14223  14230M 14233  14234
                                                 14235  14882M 14885  15055M 15056  15234M 15235  15236  15240M 15240
                                                 15250M 15251  15252  15253  15258M 15259  15266M 15269  15270  15271
                                                 15495M 15498M 15957M 15960  16449M 16450  17010M 17013  17384M 17385
1PROC     (PROC2193) (12:51) (15MAR04) Ordinary Symbol and Literal Cross Reference                                          Page  305
                                                 18460M 18463  19126M 19127  20040M 20043  25109M 25110  25116M 25121M
                                                 25121  25135M 25138  28762M 28763  28861M 28862  28863  28867M 28867
                                                 28881M 28882  28883  28884  28889M 28890  28897M 28900  28901  28902
                                                 29114M 29117  29318M 29319  29398M 29399  29400  29404M 29404  29426M
                                                 29427  29428  29429  29434M 29435  29442M 29445  29446  29447  30118M
                                                 30121  31091M 31092  31093  31094  31104M 31107  31108  31109  32128M
                                                 32129  32227M 32228  32229  32233M 32233  32248M 32249  32250  32251
                                                 32256M 32257  32264M 32267  32268  32269  32617M 32620  33185M 33186
                                                 33187  33188  33198M 33201  33202  33203  33968M 33969  33970  33971
                                                 33981M 33984  33985  33986  34780M 34781  34988M 34989  34990  34994M
                                                 34994  35008M 35009  35010  35011  35016M 35017  35024M 35027  35028
                                                 35029  35345M 35348  35736M 35737  35865M 35866  35867  35871M 35871
                                                 35885M 35886  35887  35888  35893M 35894  35901M 35904  35905  35906
                                                 36420M 36423  37410M 37411  37491M 37492  37493  37497M 37497  37511M
                                                 37512  37513  37514  37519M 37520  37527M 37530  37531  37532  37704M
                                                 37707  37908M 37909  38008M 38009  38010  38014M 38014  38028M 38029
                                                 38030  38031  38036M 38037  38044M 38047  38048  38049  38327M 38330
                                                 38841M 38842  38941M 38942  38943  38947M 38947  38961M 38962  38963
                                                 38964  38969M 38970  38977M 38980  38981  38982  39164M 39167  39368M
                                                 39369  39450M 39451  39452  39456M 39456  39470M 39471  39472  39473
                                                 39478M 39479  39486M 39489  39490  39491  39776M 39779  40237M 40238
                                                 40359M 40360  40361  40365M 40365  40388M 40389  40390  40391  40396M
                                                 40397  40404M 40407  40408  40409  40796M 40799  41369M 41412M 41837M
                                                 41838  41907M 41953M 41954  41955  41959M 41959  41973M 41974  41975
                                                 41976  41981M 41982  41989M 41992  41993  41994  42192M 42195  42395M
                                                 42396  42469M 42470  42471  42475M 42475  42497M 42498  42499  42500
                                                 42505M 42506  42513M 42516  42517  42518  43044M 43047  43466M 43467
                                                 43471M 43471  43580M 43581  43585M 43585  43694M 43695  43699M 43699
                                                 43808M 43809  43813M 43813  43884M 43885  43889M 43889  43960M 43961
                                                 43965M 43965  44432M 44433  44507M 44508  44509  44513M 44513  44527M
                                                 44528  44529  44530  44535M 44536  44543M 44546  44547  44548  44882M
                                                 44885  45982M 45983  46178M 46179  46180  46184M 46184  46198M 46199
                                                 46200  46201  46206M 46207  46214M 46217  46218  46219  46543M 46546
                                                 46933M 46934  47049M 47050  47051  47055M 47055  47069M 47070  47071
                                                 47072  47077M 47078  47085M 47088  47089  47090  47593M 47596  48304M
                                                 48305  48373M 48374  48375  48379M 48379  48401M 48402  48403  48404
                                                 48409M 48410  48417M 48420  48421  48422  48677M 48680  48880M 48881
                                                 48950M 48951  48952  48956M 48956  48978M 48979  48980  48981  48986M
                                                 48987  48994M 48997  48998  48999  49342M 49345  49732M 49733  49840M
                                                 49841  49842  49846M 49846  49877M 49878  49879  49880  49885M 49886
                                                 49893M 49896  49897  49898  50296M 50299  50822M 52611M 52616M 52624
                                                 52625M 52635M 52640M 52648  52649M 58229M 58232M 58241M 58241  58248
                                                 58746M 58747  58763M 58764  58765  58769M 58769  58779M 58780  58781
                                                 58782  58787M 58788  58795M 58798  58799  58800  61658M 61659  61727M
                                                 61728  61729  61733M 61733  61743M 61744  61745  61746  61751M 61752
                                                 61759M 61762  61763  61764  62043M 62046  63911M 63915M 63972M 63975M
                                                 63976  63984M 63987M 63988  64202M 64206M 64740M
 R15          15 0000000F FFFFFFFF A   #     894  2329   8604M  8604   8688M  8688   8744M  8774M  8774   8970M  8970
                                                  8989M  8989   9702M  9702   9940M  9945M 10014M 10014  10077M 10077
                                                 10250M 10264M 10266  10285M 10285  10479M 10493M 10495  10514M 10514
                                                 10595M 10624M 10641M 10670M 10687M 10716M 10733M 10755M 10822M 10836M
                                                 10838  10857M 10857  10949M 10949  10979M 10979  11130M 11130  11221M
                                                 11221  11356M 11356  11568M 11723M 11728M 11766M 11771M 11817M 11817
                                                 11828M 11828  11846M 11868M 11919M 12062M 12062  12108M 12108  12348M
                                                 12362M 12364  12383M 12383  12573M 12587M 12589  12608M 12608  12684M
                                                 12698M 12700  12719M 12719  12767M 12767  12850M 12850  12875M 12875
                                                 13070M 13084M 13086  13105M 13105  13186M 13186  13195M 13195  13411
                                                 13436  13461  13487  13585M 13599M 13601  13620M 13620  13646M 13646
                                                 13682M 13682  13743M 13762M 13762  13913M 13927M 13929  13948M 13948
1PROC     (PROC2193) (12:51) (15MAR04) Ordinary Symbol and Literal Cross Reference                                          Page  306
                                                 14120M 14134M 14136  14155M 14155  14236M 14236  14245M 14245  14435
                                                 14460  14485  14511  14594M 14608M 14610  14629M 14629  14817M 14831M
                                                 14833  14852M 14852  14878M 14878  14914M 14914  14975M 14994M 14994
                                                 15156M 15170M 15172  15191M 15191  15272M 15272  15281M 15281  15474M
                                                 15477  15489M 15494  15620M 15620  15640  15665  15690  15716  15742
                                                 15768  15794  15892M 15906M 15908  15927M 15927  15953M 15953  15989M
                                                 15989  16050M 16069M 16069  16207M 16221M 16223  16242M 16242  16258M
                                                 16258  16282M 16282  16550M 16564M 16566  16585M 16585  16779  16804
                                                 16829  16855  16945M 16959M 16961  16980M 16980  17006M 17006  17042M
                                                 17042  17245M 17246M 17247  17248  17309M 17309  17736M 17750M 17752
                                                 17771M 17771  17915  17974  17999  18024  18050  18088M 18143M 18158M
                                                 18395M 18409M 18411  18430M 18430  18456M 18456  18492M 18492  19011M
                                                 19011  19040M 19040  19227M 19241M 19243  19262M 19262  19538  19552M
                                                 19552  19691  19692M 19697M 19711M 19711  19731  19756  19781  19807
                                                 19833  19859  19885  19975M 19989M 19991  20010M 20010  20036M 20036
                                                 20072M 20072  20335M 20349M 20351  20370M 20370  20410M 20410  20680M
                                                 20694M 20696  20715M 20715  20825M 20839M 20841  20860M 20860  20985M
                                                 20999M 21001  21020M 21020  21082M 21096M 21098  21117M 21117  21162M
                                                 21162  21406M 21420M 21422  21441M 21441  21551M 21565M 21567  21586M
                                                 21586  21711M 21725M 21727  21746M 21746  21808M 21822M 21824  21843M
                                                 21843  21888M 21888  22134M 22148M 22150  22169M 22169  22279M 22293M
                                                 22295  22314M 22314  22439M 22453M 22455  22474M 22474  22536M 22550M
                                                 22552  22571M 22571  22616M 22616  22862M 22876M 22878  22897M 22897
                                                 23007M 23021M 23023  23042M 23042  23167M 23181M 23183  23202M 23202
                                                 23264M 23278M 23280  23299M 23299  23344M 23344  23590M 23604M 23606
                                                 23625M 23625  23735M 23749M 23751  23770M 23770  23895M 23909M 23911
                                                 23930M 23930  23992M 24006M 24008  24027M 24027  24072M 24072  24284M
                                                 24298M 24300  24319M 24319  24359M 24359  24528M 24619M 24714M 24714
                                                 24824M 24824  25081M 25096M 25169M 25202M 25202  25361M 25388M 25401M
                                                 25430M 25430  25504  25567M 25576M 25576  25665M 25665  25689M 25689
                                                 25935M 25938M 25940  25976M 25982M 26022M 26044M 26101M 26101  26134M
                                                 26162M 26204M 26244M 26267M 26280M 26280  26315M 26342M 26385M 26398M
                                                 26398  26489M 26503M 26505  26524M 26524  26541M 26541  26565M 26565
                                                 26841M 26847M 26950M 26979M 27277M 27300M 27332M 27365M 27366M 27367
                                                 27493M 27520M 27613M 27627M 27629  27648M 27648  27699M 27699  27908M
                                                 28063M 28068M 28106M 28111M 28161M 28180M 28273M 28292M 28335M 28335
                                                 28451M 28451  28496M 28496  28903M 28903  28915M 28915  28952M 28962M
                                                 29049M 29063M 29065  29084M 29084  29110M 29110  29146M 29146  29215M
                                                 29234M 29234  29448M 29448  29461M 29461  29481  29501  29521  29533M
                                                 29533  29584M 29910M 29924M 29926  29945M 29945  30053M 30067M 30069
                                                 30088M 30088  30114M 30114  30150M 30150  30544M 30544  30611M 30611
                                                 30677M 30677  30768M 30768  30834M 30834  30901M 30901  30967M 30967
                                                 31034M 31034  31110M 31110  31112M 31115  31127M 31135M 31144M 31144
                                                 31151  31173M 31173  31192M 31192  31274M 31293M 31293  31360M 31360
                                                 31427M 31427  31494M 31494  31561M 31561  31628M 31628  31672M 31691M
                                                 31691  31752M 31752  31796M 31815M 31815  31877M 31877  31938M 31938
                                                 31980M 31999M 31999  32270M 32270  32282M 32282  32302  32322  32337M
                                                 32338M 32339  32341M 32441M 32455M 32457  32476M 32476  32534M 32613M
                                                 32613  32649M 32649  33012M 33012  33103M 33103  33204M 33204  33206M
                                                 33209  33221M 33229M 33238M 33238  33245  33267M 33267  33291M 33291
                                                 33356M 33356  33468M 33468  33529M 33529  33590M 33590  33651M 33651
                                                 33717M 33717  33784M 33784  33850M 33850  33917M 33917  33987M 33987
                                                 33989M 33992  34004M 34012M 34021M 34021  34028  34050M 34050  34069M
                                                 34069  34169M 34169  34235M 34235  34301M 34301  34426M 34449M 34449
                                                 34574M 34597M 34597  34639M 34658M 34658  34881M 34895M 34897  34916M
                                                 34916  35030M 35030  35042M 35042  35054M 35064  35115M 35129M 35131
                                                 35150M 35150  35170M 35187  35280M 35294M 35296  35315M 35315  35341M
                                                 35341  35377M 35377  35500M 35500  35591M 35591  35633M 35652M 35652
                                                 35907M 35907  35919M 35919  35955M 35970M 35975M 35976  35986M 36014M
1PROC     (PROC2193) (12:51) (15MAR04) Ordinary Symbol and Literal Cross Reference                                          Page  307
                                                 36037M 36049  36067M 36067  36080M 36089M 36089  36096  36161M 36265M
                                                 36279M 36281  36300M 36300  36416M 36416  36452M 36452  36620M 36620
                                                 36711M 36711  36772M 36772  36833M 36833  36883M 36927M 36927  36946M
                                                 36946  36988M 37007M 37007  37114  37174M 37186  37197M 37221M 37222M
                                                 37223  37227M 37227  37249M 37250M 37251  37260M 37260  37271M 37292M
                                                 37293M 37294  37298M 37298  37340M 37340  37533M 37533  37545M 37545
                                                 37639M 37653M 37655  37674M 37674  37700M 37700  37736M 37736  37805M
                                                 37824M 37824  38050M 38050  38065  38082M 38082  38173M 38262M 38276M
                                                 38278  38297M 38297  38323M 38323  38359M 38359  38498M 38498  38564M
                                                 38564  38646  38652M 38668  38672M 38672  38695M 38695  38737M 38756M
                                                 38756  38983M 38983  38995M 38995  39016M 39099M 39113M 39115  39134M
                                                 39134  39160M 39160  39196M 39196  39265M 39284M 39284  39492M 39492
                                                 39504M 39504  39541M 39565M 39711M 39725M 39727  39746M 39746  39772M
                                                 39772  39808M 39808  39937M 39937  40028M 40028  40094M 40094  40136M
                                                 40155M 40155  40410M 40410  40422M 40422  40476M 40501M 40641M 40655M
                                                 40657  40676M 40676  40792M 40792  40828M 40828  40981M 40981  41072M
                                                 41072  41142M 41142  41208M 41208  41250M 41269M 41269  41368  41411
                                                 41444M 41510M 41527M 41536M 41537M 41538  41567M 41567  41906  41995M
                                                 41995  42007M 42007  42023M 42127M 42141M 42143  42162M 42162  42188M
                                                 42188  42224M 42224  42293M 42312M 42312  42445M 42519M 42519  42532M
                                                 42532  42552  42572  42592  42612  42836M 42850M 42852  42871M 42871
                                                 42979M 42993M 42995  43014M 43014  43040M 43040  43076M 43076  43363M
                                                 43382M 43382  43475M 43475  43477M 43496M 43496  43589M 43589  43591M
                                                 43610M 43610  43703M 43703  43705M 43724M 43724  43817M 43817  43819M
                                                 43838M 43838  43893M 43893  43895M 43914M 43914  43969M 43969  43971M
                                                 43990M 43990  44056M 44056  44123M 44123  44189M 44189  44280M 44280
                                                 44330M 44349M 44349  44549M 44549  44561M 44561  44623M 44723M 44737M
                                                 44739  44758M 44758  44799M 44878M 44878  44914M 44914  45163M 45163
                                                 45241M 45241  45306M 45306  45367M 45367  45433M 45433  45524M 45524
                                                 45590M 45590  45657M 45657  45723M 45723  45790M 45790  45832M 45851M
                                                 45851  46083M 46097M 46099  46118M 46118  46220M 46220  46232M 46232
                                                 46244M 46338M 46352M 46354  46373M 46373  46478M 46492M 46494  46513M
                                                 46513  46539M 46539  46575M 46575  46698M 46698  46789M 46789  46831M
                                                 46850M 46850  47091M 47091  47103M 47103  47115M 47163M 47173  47191M
                                                 47191  47204M 47213M 47213  47220  47266M 47278  47301M 47302M 47303
                                                 47325M 47326M 47327  47336M 47336  47357M 47358M 47359  47438M 47452M
                                                 47454  47473M 47473  47589M 47589  47625M 47625  47794M 47794  47885M
                                                 47885  47946M 47946  48007M 48007  48057M 48101M 48101  48120M 48120
                                                 48162M 48181M 48181  48423M 48423  48435M 48435  48447M 48612M 48626M
                                                 48628  48647M 48647  48673M 48673  48709M 48709  48778M 48797M 48797
                                                 49000M 49000  49012M 49012  49050M 49065M 49111M 49138M 49170M 49277M
                                                 49291M 49293  49312M 49312  49338M 49338  49374M 49374  49497M 49497
                                                 49588M 49588  49630M 49649M 49649  49899M 49899  49911M 49911  49971M
                                                 49986M 50009M 50034M 50141M 50155M 50157  50176M 50176  50292M 50292
                                                 50328M 50328  50466M 50466  50557M 50557  50612M 50612  50631M 50631
                                                 50673M 50692M 50692  50821  50855M 50880M 50893M 50902M 50903M 50904
                                                 50933M 50933  51099M 51150M 51150  51252M 51252  51283M 51283  51434M
                                                 51438M 51447M 51447  51454  51484M 51484  51508M 51537M 51537  51779M
                                                 51794M 51835M 51923M 51981M 52003M 52021M 52039M 52100M 52153M 52195M
                                                 52220M 52238M 52256M 52274M 52292M 52311M 52329M 52347M 52375M 52400M
                                                 52400  52425M 52425  52477  52728M 52786M 52823M 52823  53167M 53181M
                                                 53183  53202M 53202  53254M 53268M 53270  53289M 53289  53359M 53373M
                                                 53375  53394M 53394  53411M 53411  53440M 53440  53754M 53768M 53770
                                                 53789M 53789  53841M 53855M 53857  53876M 53876  53946M 53960M 53962
                                                 53981M 53981  53998M 53998  54027M 54027  54312M 54312  54421M 54793M
                                                 54807M 54809  54828M 54828  54860M 54860  55010M 55010  55209M 55248M
                                                 55443M 55454M 55812M 55833M 55854M 55878M 55924M 55924  56164M 56164
                                                 56260M 56302M 56395M 56395  56596M 56596  56674M 56677M 56679  56718M
                                                 56718  56934M 57007M 57047M 57075M 57096M 57097M 57104M 57113M 57113
1PROC     (PROC2193) (12:51) (15MAR04) Ordinary Symbol and Literal Cross Reference                                          Page  308
                                                 57120  57224M 57294M 57294  57393  57409M 57410M 57413M 57422M 57422
                                                 57429  57464M 57671M 57696M 57696  57772M 57772  57888M 57888  58049M
                                                 58076M 58076  58123M 58146M 58146  58195M 58228M 58228  58285M 58285
                                                 58376M 58376  58481M 58514M 58519M 58521M 58560M 58594M 58622M 58651M
                                                 58678M 58678  58801M 58801  58810M 58810  58843M 58843  58970M 58970
                                                 59036M 59036  59102M 59102  59157M 59162M 59181M 59181  59335M 59349M
                                                 59351  59370M 59370  59458M 59458  59489M 59489  59557M 59652M 59666M
                                                 59668  59687M 59687  59703M 59703  59726M 59726  59928M 59942M 59944
                                                 59963M 59963  60018M 60018  60109M 60178M 60192M 60194  60213M 60213
                                                 60264M 60264  60358M 60449M 60463M 60465  60484M 60484  60539M 60539
                                                 60630M 60699M 60713M 60715  60734M 60734  60785M 60785  60879M 60970M
                                                 60984M 60986  61005M 61005  61060M 61060  61360M 61361M 61362  61388M
                                                 61403M 61408M 61409  61452M 61488M 61499M 61499  61533M 61533  61765M
                                                 61765  61924M 62039M 62039  62080M 62080  62218M 62218  62284M 62284
                                                 62350M 62350  62392M 62411M 62411  62493M 62493  62851M 62865M 62867
                                                 62886M 62886  62938M 62952M 62954  62973M 62973  63043M 63057M 63059
                                                 63078M 63078  63095M 63095  63124M 63124  63344M 63344  63431M 63492M
                                                 63550M 63550  63912M 63914  63940M 63940  63956M 63956  64007M 64036M
                                                 64036  64203M 64221M 64221  64237M 64261M 64261  64408M 64408  64539
                                                 64581M 64581  64664M 64664  64739M 64760M 64779M 64779  64810M 64810
 R2            2 00000002 FFFFFFFF A   #     725  8576M  8577   8578M  8673M  8858   8868M  8871M  8890M  8893M  8912M
                                                  8914   8930   8957   9468M  9498U  9503M  9522M  9546U  9551M  9570M
                                                  9594U  9599M  9618M  9642U  9647M  9901M  9937M  9941M  9942M  9946M
                                                 10085M 10087  10102  10134  10143M 10181  10189M 10219U 10224M 10314M
                                                 10316  10331  10363  10371M 10406  10415M 10448U 10453M 10792U 10797M
                                                 11081M 11082  11083M 11084  11172M 11173  11174M 11175  11281M 11317M
                                                 11318  11320M 11321  11323M 11324  11497M 11517M 11518  11520M 11521
                                                 11579M 11609M 11610  11619M 11619  11631M 11644M 11645  11654M 11654
                                                 11666M 11693M 11736M 11781M 11785  11788M 11792  11795M 11799  11802M
                                                 11806  11838M 11853M 11855  11860M 11875M 11877  11941M 11974U 11979M
                                                 11998M 12022U 12027M 12046M 12255M 12256  12259M 12318U 12323M 12543U
                                                 12548M 12654U 12659M 12817M 12977M 13040U 13045M 13281M 13285M 13294M
                                                 13294  13301  13323M 13333U 13361M 13555U 13560M 13838M 13883U 13888M
                                                 14004U 14009M 14090U 14095M 14331M 14335M 14344M 14344  14351  14373M
                                                 14383U 14403M 14532M 14564U 14569M 14684U 14689M 14787U 14792M 15063M
                                                 15126U 15131M 15367M 15371M 15380M 15380  15387  15437M 15456M 15464U
                                                 15537M 15591M 15862U 15867M 16177U 16182M 16457M 16520U 16525M 16683M
                                                 16687M 16696M 16696  16703  16725M 16726  16727  16729M 16915U 16920M
                                                 17177  17178  17235M 17241M 17392M 17468M 17501M 17536U 17541M 17620U
                                                 17625M 17706U 17711M 17869M 17873M 17882M 17882  17889  17921M 17943M
                                                 18103M 18111U 18125M 18126M 18184U 18189M 18269U 18274M 18365U 18370M
                                                 18713M 18741M 18749U 18861M 18889M 18899U 18928M 18932M 18941M 18941
                                                 18948  19134M 19197U 19202M 19360M 19364M 19373M 19373  19380  19430M
                                                 19488M 19521M 19591M 19600U 19629  19631M 19672  19674M 19691M 19697
                                                 19945U 19950M 20184M 20311U 20316M 20503M 20532M 20533  20552M 20553
                                                 20562M 20562  20574M 20622M 20650U 20655M 20735U 20740M 20759M 20801U
                                                 20806M 20899U 20904M 20923M 20955U 20960M 21058U 21063M 21229M 21258M
                                                 21259  21278M 21279  21288M 21288  21300M 21348M 21376U 21381M 21461U
                                                 21466M 21485M 21527U 21532M 21625U 21630M 21649M 21681U 21686M 21784U
                                                 21789M 21957M 21986M 21987  22006M 22007  22016M 22016  22028M 22076M
                                                 22104U 22109M 22189U 22194M 22213M 22255U 22260M 22353U 22358M 22377M
                                                 22409U 22414M 22512U 22517M 22685M 22714M 22715  22734M 22735  22744M
                                                 22744  22756M 22804M 22832U 22837M 22917U 22922M 22941M 22983U 22988M
                                                 23081U 23086M 23105M 23137U 23142M 23240U 23245M 23413M 23442M 23443
                                                 23462M 23463  23472M 23472  23484M 23532M 23560U 23565M 23645U 23650M
                                                 23669M 23711U 23716M 23809U 23814M 23833M 23865U 23870M 23968U 23973M
                                                 24128M 24157M 24260U 24265M 24489M 24516M 24517  25015M 25042M 25043
                                                 25550M 25624  25845M 26043M 26110M 26154  26252M 26384M 26459U 26464M
                                                 26786M 27146M 27191  27583U 27588M 27837M 27857M 27858  27860M 27861
1PROC     (PROC2193) (12:51) (15MAR04) Ordinary Symbol and Literal Cross Reference                                          Page  309
                                                 27919M 27949M 27950  27959M 27959  27971M 27984M 27985  27994M 27994
                                                 28006M 28033M 28076M 28121M 28125  28128M 28132  28135M 28139  28142M
                                                 28146  28153M 28172M 28191M 28215M 28239M 28265M 28284M 28303M 28363U
                                                 28368M 28387M 28411U 28416M 28435M 28768M 28769  28772M 29019U 29024M
                                                 29324M 29325  29328M 29597M 29597  29618M 29629M 29636M 29639  29640
                                                 29640  29640  29678U 29683M 29729M 29737M 29740  29741  29741  29741
                                                 29779U 29784M 29802M 29830M 29837  29838  29838  29838  29880U 29885M
                                                 29969M 30003  30023U 30028M 32051  32051  32051  32134M 32135  32138M
                                                 32411U 32416M 32563U 32568M 34786M 34787  34790M 34851U 34856M 35085U
                                                 35090M 35250U 35255M 35742M 35743  35746M 36235U 36240M 36362U 36367M
                                                 37416M 37417  37420M 37609U 37614M 37914M 37915  37918M 38232U 38237M
                                                 38847M 38848  38851M 39069U 39074M 39374M 39375  39378M 39681U 39686M
                                                 40243M 40244  40247M 40611U 40616M 40738U 40743M 41423M 41436  41843M
                                                 41844  41847M 42097U 42102M 42401M 42402  42405M 42646M 42659M 42662
                                                 42663  42663  42663  42701U 42706M 42752M 42760M 42763  42764  42764
                                                 42764  42806U 42811M 42895M 42929  42949U 42954M 44438M 44439  44442M
                                                 44693U 44698M 44828U 44833M 45905  45905  45905  45988M 45989  45992M
                                                 46053U 46058M 46308U 46313M 46448U 46453M 46939M 46940  46943M 47408U
                                                 47413M 47535U 47540M 48310M 48311  48314M 48582U 48587M 48886M 48887
                                                 48890M 49247U 49252M 49738M 49739  49742M 50111U 50116M 50238U 50243M
                                                 50831M 50872  51073M 51074  51077M 51157M 51201  51202  51713M 51738M
                                                 51739  51741M 51742  51753M 52062M 52063M 52545M 52557M 52557  52576
                                                 52595  52616  52627M 52640  52698M 52951M 52980M 52981  52982M 52983
                                                 53002M 53003  53004M 53005  53028M 53029  53030M 53031  53106M 53117
                                                 53135U 53140M 53222U 53227M 53327U 53332M 53538M 53567M 53568  53569M
                                                 53570  53589M 53590  53591M 53592  53615M 53616  53617M 53618  53693M
                                                 53704  53722U 53727M 53809U 53814M 53914U 53919M 54274M 54423M 54442M
                                                 54442  54687U 54692M 54711M 54763U 54768M 55177M 55177  55207M 55238
                                                 55253  55340  55405  56884M 56884  56925  57101M 57101  57150  57167M
                                                 57167  57408M 57408  57457M 57457  57744M 57752  57869M 58196M 58197
                                                 58228  59283M 59311U 59316M 59390U 59395M 59438U 59443M 59540M 59628U
                                                 59633M 59808M 59840M 59898U 59903M 60078M 60148U 60153M 60327M 60361M
                                                 60419U 60424M 60599M 60669U 60674M 60848M 60882M 60940U 60945M 61250M
                                                 61282M 61307M 61667M 61985U 61990M 62635M 62664M 62665  62666M 62667
                                                 62686M 62687  62688M 62689  62712M 62713  62714M 62715  62790M 62801
                                                 62819U 62824M 62906U 62911M 63011U 63016M 63262  63268M 63310M 63405M
                                                 63423  63456  63475  63689  63842M 63899  63913  63970M 63970  63971M
                                                 63971  63989M 64158  64204  64372  64534  64542M 64543  64622  64623M
                                                 64623  64624  64646  64745M 64745  64786
 R3            3 00000003 FFFFFFFF A   #     738  8579M  8869M  8891M  8913M  8914M  8915M  8930   8950M  8956M  8956
                                                  8957M  8958   9938M  9940   9943M  9945   9947M  9948  10086M 10087M
                                                 10102  10134  10181  10315M 10316M 10331  10363  10406  11694M 11737M
                                                 11839M 11861M 11942M 14404M 14535M 14706  15414M 15415M 15415  15516M
                                                 15516  17203M 17203  17219  17232M 17233M 17233  17922M 17930U 18113M
                                                 18114  18164M 18206  18249M 18291  18667M 18667  18681  18687  18779M
                                                 18779  18800  18802  18814M 18814  18829  18835  18968M 18968  19406M
                                                 19407M 19407  19428  19592M 19602  19630  19673  20216M 20216  20235M
                                                 20623M 21349M 22077M 22805M 23533M 24164M 24164  24183M 25312M 25317M
                                                 25326M 25326  25333  25354M 25355M 25356  28034M 28077M 28154M 28173M
                                                 28192M 28216M 28240M 28266M 28285M 28304M 29599M 29599  29613M 29628M
                                                 29635M 29639  29640  29640  29640  29729M 29736M 29740  29741  29741
                                                 29741  29830M 29837  29838  29838  29838  29969M 29998  32051  32051
                                                 32051  41422M 41431  42641M 42658M 42662  42663  42663  42663  42752M
                                                 42759M 42763  42764  42764  42764  42895M 42924  45905  45905  45905
                                                 50830M 50867  52544M 52696M 53107M 53118  53694M 53705  55181M 55181
                                                 55253M 55354  57387M 57599M 57631M 57640M 57640  57873M 57873  58197M
                                                 58198M 58210  58227  58333M 58342M 58342  59839M 60360M 60881M 61283M
                                                 61295  61323M 61332M 61332  61339  61929M 61945M 61945  62007  62791M
                                                 62802  63263  63269M 63281  63288M 63305  63690  64103M 64104  64105M
1PROC     (PROC2193) (12:51) (15MAR04) Ordinary Symbol and Literal Cross Reference                                          Page  310
                                                 64106M 64118  64125M 64141  64148M 64189  64196M 64203  64205  64535
                                                 64556M 64622M 64624  64645M 64646  64715M
 R4            4 00000004 FFFFFFFF A   #     751  8580M  8666M  8871M  8893M 10088M 10140  10146M 10207M 10248  10317M
                                                 10412  10418M 10436M 10477  11040U 11840M 11862M 11943M 12957M 12965U
                                                 14405M 16132M 16140U 16437M 16445U 17204M 17230M 17230  17231  17234M
                                                 17944M 18663M 18663  18771M 18794M 18794  18800M 18801M 18801  18803
                                                 18804  18815M 18927M 18927  18967M 19114M 19122U 20180M 20294  24124M
                                                 24243  24587M 24601  24607  24612M 24612  24770M 24771  24799  24800
                                                 25309M 25313  25356  25359  25368  25369  28155M 28174M 28193M 28217M
                                                 28241M 28267M 28286M 28305M 28800M 28808U 29357M 29365U 32165M 32165
                                                 32177M 32185U 32509M 32509  34945M 34953U 35777M 35785U 37450M 37458U
                                                 37947M 37955U 38880M 38888U 39407M 39415U 40276M 40277  40286U 41875M
                                                 41883U 42434M 42442U 44476M 44484U 46147M 46155U 46974M 46982U 48344M
                                                 48352U 48919M 48927U 49070  49771M 49779U 49991  51815M 51829  51835
                                                 52389M 52390M 52600M 53108M 53119  53695M 53706  59537M 59610  61413M
                                                 61424M 61424  61459M 61684U 61709M 61710M 61868M 61869M 62792M 62803
                                                 63264  63270M 63310M 63405  63691  63702M 63702  63722M 63722  63739
                                                 63745  63774M 63774  63794M 63794  63811  63817  63913M 63915M 64104M
                                                 64105  64106  64153M 64154M 64155M 64168  64175M 64189  64196  64204M
                                                 64206M 64329M 64342  64348M 64348  64349M 64349  64359M 64372  64378M
                                                 64378  64379M 64379  64536  64544M 64545  64554  64618  64620M 64621M
                                                 64621  64702  64713  64735  64742
 R5            5 00000005 FFFFFFFF A   #     764  8667M  8673   8870M  8870   8892M  9931U  9936M 10089M 10140  10149M
                                                 10192M 10318M 10374M 10412  10421M 11309U 11316M 11319M 11322M 11514U
                                                 11516M 11519M 11608M 11643M 11844M 11844  11866M 11866  11944M 12276U
                                                 12408M 12409M 12425M 12426M 12442M 12443M 12459M 12460M 12834U 12838M
                                                 12994U 12999M 13130M 13131M 13234M 13235M 13855U 13860M 14180M 14181M
                                                 14284M 14285M 15080U 15085M 15216M 15217M 15320M 15321M 15410M 15411M
                                                 15441M 15442M 16474U 16479M 16637M 16638M 17178M 17188U 17241  17400M
                                                 17401M 17412U 17823M 17824M 18632M 18642U 18697U 18713  18845U 18861
                                                 19151U 19156M 19314M 19315M 19402M 19403M 19434M 19435M 19539  20208U
                                                 20234M 20242M 20529U 20531M 20551M 21255U 21257M 21277M 21983U 21985M
                                                 22005M 22711U 22713M 22733M 23439U 23441M 23461M 24152U 24156M 24182M
                                                 24190M 24513U 24515M 24588M 24601  25039U 25041M 25313M 25504M 25514U
                                                 25866M 25876U 26015M 26015  26053M 26053  26170M 26185M 26185  26347M
                                                 26348M 26348  26358U 26812U 26816M 27854U 27856M 27859M 27948M 27983M
                                                 28159M 28159  28178M 28178  28194M 28218M 28242M 28271M 28271  28290M
                                                 28290  28306M 28789U 28793M 28843M 28844M 29346U 29350M 29380M 29381M
                                                 32155U 32209M 32210M 34807U 34812M 34970M 34971M 35764U 35769M 35832M
                                                 35833M 37114M 37124U 37437U 37442M 37473M 37474M 37935U 37940M 37990M
                                                 37991M 38120M 38121M 38868U 38873M 38923M 38924M 39011M 39012M 39395U
                                                 39400M 39432M 39433M 39516M 39517M 40264U 40269M 40327M 40328M 41376M
                                                 41386U 41864U 41868M 41935M 41936M 42423U 42427M 42451M 42452M 44459U
                                                 44489M 44490M 46009U 46014M 46160M 46161M 46961U 46966M 47017M 47018M
                                                 48331U 48336M 48355M 48356M 48907U 48912M 48932M 48933M 49024M 49025M
                                                 49759U 49764M 49808M 49809M 51094U 51098M 51375M 51387  51394M 51395M
                                                 51396M 51406U 51477M 51478M 51479  51732U 51737M 51740M 52477M 52487U
                                                 52977U 52979M 53001M 53027M 53109M 53120  53564U 53566M 53588M 53614M
                                                 53696M 53707  57393M 57464  57671  59834U 59838M 60095M 60105U 60353U
                                                 60357M 60359M 60616M 60626U 60874U 60878M 60880M 61277U 61281M 61430M
                                                 61430  61634M 61644U 62092U 62661U 62663M 62685M 62711M 62793M 62804
                                                 63265  63271M 63281  63288  63305M 63410M 63429  63483M 63483  63490
                                                 63692  63914M 64156M 64157M 64158M 64168  64175  64205M 64330M 64350M
                                                 64350  64356  64360M 64380M 64380  64386  64537  64545M 64546M 64547M
                                                 64702
 R6            6 00000006 FFFFFFFF A   #     777  8694M  8702U  8858M  8866U  9503   9551   9599   9647   9919  10205M
                                                 10224  10434M 10453  10780M 10797  11504  11845M 11867M 11960M 11979
                                                 12027  12323  12548  12659  13045  13560  13888  14009  14095  14569
                                                 14689  14792  15131  15867  16182  16525  16920  17541  17625  17711
1PROC     (PROC2193) (12:51) (15MAR04) Ordinary Symbol and Literal Cross Reference                                          Page  311
                                                 18189  18274  18370  19202  19950  20316  20499  20655  20740  20806
                                                 20904  20960  21063  21225  21381  21466  21532  21630  21686  21789
                                                 21953  22109  22194  22260  22358  22414  22517  22681  22837  22922
                                                 22988  23086  23142  23245  23409  23565  23650  23716  23814  23870
                                                 23973  24265  24995M 25003U 25012  25297M 25305U 25493M 25501U 26464
                                                 27588  27844  28160M 28179M 28195M 28219M 28243M 28272M 28291M 28307M
                                                 28349M 28368  28416  28869  28871M 28906M 29024  29158U 29414  29416M
                                                 29451M 29683  29784  29885  30028  30162U 32236  32238M 32273M 32416
                                                 32568  32661U 34856  34996  34998M 35033M 35090  35255  35389U 35873
                                                 35875M 35910M 36240  36367  36464U 37128M 37138U 37499  37501M 37536M
                                                 37614  37748U 38016  38018M 38053M 38237  38371U 38949  38951M 38986M
                                                 39074  39208U 39458  39460M 39495M 39686  40376  40378M 40413M 40616
                                                 40743  40840U 41333M 41343U 41961  41963M 41998M 42102  42236U 42485
                                                 42487M 42522M 42706  42811  42954  43088U 44515  44517M 44552M 44698
                                                 44833  44926U 46058  46186  46188M 46223M 46313  46453  46587U 47057
                                                 47059M 47094M 47413  47540  47637U 48389  48391M 48426M 48587  48721U
                                                 48966  48968M 49003M 49252  49386U 49865  49867M 49902M 50116  50243
                                                 50340U 50786M 50796U 51071  51338M 51348U 52595M 52601  52651  52919
                                                 53123M 53140  53227  53332  53506  53710M 53727  53814  53919  54295
                                                 54296M 54675M 54692  54768  54869U 59316  59395  59443  59633  59903
                                                 60153  60424  60674  60945  61990  62603  62807M 62824  62911  63016
                                                 63411M 63430  63484M 63484  63491  63693  63927M 63946M 64101U 64325U
                                                 64538  64551M 64551  64625M 64625  64684  64744
 R7            7 00000007 FFFFFFFF A   #     790  2322M  2322   2323B  2335B
 R8            8 00000008 FFFFFFFF A   #     803  9390   9894U 11409  11490U 12239U 12953U 13824U 15049U 16128U 16433U
                                                 17173U 17378U 18628U 19110U 20492U 21218U 21946U 22674U 23402U 24483U
                                                 24991U 25293U 25829U 26771U 27751  27830U 28747U 29303U 32113U 33172U
                                                 34765U 35721U 37395U 37893U 38826U 39353U 40222U 41823U 42381U 44418U
                                                 45968U 46919U 48290U 48866U 49718U 50782U 51065U 51705U 52841  52912U
                                                 53499U 54268U 59800U 60073U 60319U 60594U 60840U 61230U 61630U 62596U
                                                 63190  63254U 63674U 64460  64526U
 SAMDIALG      1 00000000 00000014     T   16303 16303
 SAVEVAR       1 00000000 0000001C     T   17319 17319
 SCANCHK       1 00000000 0000000B     T   11371 11371
 SCANPARM      1 00000000 00000059     T   54059 54059
 SCANSTR       1 00000000 00000058     T   54057 54057
 SCDQUOTE      1 00000000 0000004A     T   37048 37048  48219
 SDSNQSZ       1 0000002C FFFFFFEC A   U    6310  6311   6312
 SEG           1 00000000 0000000E     T   11378 11378  12125  25729  27714  28512  41594  50957  54051  59205  62524
 SEGCB        60 00000000 FFFFFFE5     J    7201 25514U 37124U 52487U
 SEGCBCOD      1 00000000 FFFFFFE5     R    7112  7121   7131   7141   7151   7161   7171   7181
 SEGCBOVF      5 00000000 FFFFFFE5         7161 25544  37168
 SEGCBSPP      4 00000000 FFFFFFE5         7151 25643
 SEGCBUSR      4 00000038 FFFFFFE5     A    7194 37128
 SEGCBWR       2 00000000 FFFFFFE5         7131 25532  37156  52503
 SEGCLR        1 00000000 0000004F     T   41602 41602  50967
 SEGCOL        1 00000000 0000003C     T   27717 27717
 SEGCR         1 00000000 00000011     T   12121 12121  26582  28508  54050  59206
 SEGDC         1 00000000 0000000F     T   11379 11379
 SEGINIT       1 00000000 0000000C     T   11376 11376  25720  27711  37042  50954  54045  62521
 SEGINITR      1 00000000 0000002B     T   25722 25722  37044  50956  54047  62523
 SEGMARK       1 00000000 00000030     T   25730 25730  41605  50969
 SEGT          1 00000000 0000003E     T   27720 27720  37045
 SEGTB         1 00000000 00000036     T   26581 26581
 SEGWR         1 00000000 0000002E     T   25727 25727  37046  41595  50958  54049  62525
 SETARGS       1 00000000 00000007     T   11366 11366  12119  16301  17060  18502  20090  24369  25710  26575  27710
                                                 28506  32025  34682  37031  41578  45875  48205  50943  54040  56730
                                                 62504  63134
 SPR          13 0000000D 00000001 A   #    1334  8533   8536   8537   8538M  8538   8596M  8600   8602   8636   8639
1PROC     (PROC2193) (12:51) (15MAR04) Ordinary Symbol and Literal Cross Reference                                          Page  312
                                                  8640   8641M  8641   8766M  8770   8772   8829   8832   8833   8834M
                                                  8834   8981M  8985   8987   9436   9439   9440   9441M  9441   9694M
                                                  9698   9700   9859   9862   9864   9865M  9865  10971M 10975  10977
                                                 11052  11055  11056  11057M 11057  11122M 11126  11128  11143  11146
                                                 11147  11148M 11148  11213M 11217  11219  11249  11252  11253  11254M
                                                 11254  11348M 11352  11354  11455  11458  11460  11461M 11461  12100M
                                                 12104  12106  12204  12207  12209  12210M 12210  12759M 12763  12765
                                                 12786  12789  12790  12791M 12791  12867M 12871  12873  12918  12921
                                                 12923  12924M 12924  13674M 13678  13680  13714  13717  13718  13719M
                                                 13719  13754M 13758  13760  13789  13792  13794  13795M 13795  14906M
                                                 14910  14912  14946  14949  14950  14951M 14951  14986M 14990  14992
                                                 15014  15017  15019  15020M 15020  15981M 15985  15987  16021  16024
                                                 16025  16026M 16026  16061M 16065  16067  16093  16096  16098  16099M
                                                 16099  16274M 16278  16280  16398  16401  16403  16404M 16404  17034M
                                                 17038  17040  17138  17141  17143  17144M 17144  17301M 17305  17307
                                                 17343  17346  17348  17349M 17349  18484M 18488  18490  18593  18596
                                                 18598  18599M 18599  19032M 19036  19038  19075  19078  19080  19081M
                                                 19081  20064M 20068  20070  20150  20153  20154  20155M 20155  20402M
                                                 20406  20408  20457  20460  20462  20463M 20463  21154M 21158  21160
                                                 21183  21186  21188  21189M 21189  21880M 21884  21886  21911  21914
                                                 21916  21917M 21917  22608M 22612  22614  22639  22642  22644  22645M
                                                 22645  23336M 23340  23342  23367  23370  23372  23373M 23373  24064M
                                                 24068  24070  24094  24097  24098  24099M 24099  24351M 24355  24357
                                                 24448  24451  24453  24454M 24454  24706M 24710  24712  24741  24744
                                                 24745  24746M 24746  24816M 24820  24822  24956  24959  24961  24962M
                                                 24962  25194M 25198  25200  25258  25261  25263  25264M 25264  25422M
                                                 25426  25428  25463  25466  25467  25468M 25468  25681M 25685  25687
                                                 25794  25797  25799  25800M 25800  26557M 26561  26563  26736  26739
                                                 26741  26742M 26742  27691M 27695  27697  27795  27798  27800  27801M
                                                 27801  28488M 28492  28494  28712  28715  28717  28718M 28718  29138M
                                                 29142  29144  29186  29189  29190  29191M 29191  29226M 29230  29232
                                                 29268  29271  29273  29274M 29274  30142M 30146  30148  30490  30493
                                                 30494  30495M 30495  30536M 30540  30542  30557  30560  30561  30562M
                                                 30562  30603M 30607  30609  30624  30627  30628  30629M 30629  30669M
                                                 30673  30675  30690  30693  30694  30695M 30695  30760M 30764  30766
                                                 30781  30784  30785  30786M 30786  30826M 30830  30832  30847  30850
                                                 30851  30852M 30852  30893M 30897  30899  30914  30917  30918  30919M
                                                 30919  30959M 30963  30965  30980  30983  30984  30985M 30985  31026M
                                                 31030  31032  31047  31050  31051  31052M 31052  31184M 31188  31190
                                                 31205  31208  31209  31210M 31210  31285M 31289  31291  31306  31309
                                                 31310  31311M 31311  31352M 31356  31358  31373  31376  31377  31378M
                                                 31378  31419M 31423  31425  31440  31443  31444  31445M 31445  31486M
                                                 31490  31492  31507  31510  31511  31512M 31512  31553M 31557  31559
                                                 31574  31577  31578  31579M 31579  31620M 31624  31626  31641  31644
                                                 31645  31646M 31646  31683M 31687  31689  31704  31707  31708  31709M
                                                 31709  31744M 31748  31750  31765  31768  31769  31770M 31770  31807M
                                                 31811  31813  31828  31831  31832  31833M 31833  31869M 31873  31875
                                                 31890  31893  31894  31895M 31895  31930M 31934  31936  31951  31954
                                                 31955  31956M 31956  31991M 31995  31997  32078  32081  32083  32084M
                                                 32084  32641M 32645  32647  32959  32962  32963  32964M 32964  33004M
                                                 33008  33010  33025  33028  33029  33030M 33030  33095M 33099  33101
                                                 33137  33140  33142  33143M 33143  33283M 33287  33289  33304  33307
                                                 33308  33309M 33309  33348M 33352  33354  33369  33372  33373  33374M
                                                 33374  33460M 33464  33466  33481  33484  33485  33486M 33486  33521M
                                                 33525  33527  33542  33545  33546  33547M 33547  33582M 33586  33588
                                                 33603  33606  33607  33608M 33608  33643M 33647  33649  33664  33667
                                                 33668  33669M 33669  33709M 33713  33715  33730  33733  33734  33735M
                                                 33735  33776M 33780  33782  33797  33800  33801  33802M 33802  33842M
                                                 33846  33848  33863  33866  33867  33868M 33868  33909M 33913  33915
1PROC     (PROC2193) (12:51) (15MAR04) Ordinary Symbol and Literal Cross Reference                                          Page  313
                                                 33930  33933  33934  33935M 33935  34061M 34065  34067  34082  34085
                                                 34086  34087M 34087  34161M 34165  34167  34182  34185  34186  34187M
                                                 34187  34227M 34231  34233  34248  34251  34252  34253M 34253  34293M
                                                 34297  34299  34314  34317  34318  34319M 34319  34441M 34445  34447
                                                 34462  34465  34466  34467M 34467  34589M 34593  34595  34610  34613
                                                 34614  34615M 34615  34650M 34654  34656  34730  34733  34735  34736M
                                                 34736  35369M 35373  35375  35447  35450  35451  35452M 35452  35492M
                                                 35496  35498  35513  35516  35517  35518M 35518  35583M 35587  35589
                                                 35604  35607  35608  35609M 35609  35644M 35648  35650  35686  35689
                                                 35691  35692M 35692  36444M 36448  36450  36567  36570  36571  36572M
                                                 36572  36612M 36616  36618  36633  36636  36637  36638M 36638  36703M
                                                 36707  36709  36724  36727  36728  36729M 36729  36764M 36768  36770
                                                 36785  36788  36789  36790M 36790  36825M 36829  36831  36846  36849
                                                 36850  36851M 36851  36938M 36942  36944  36959  36962  36963  36964M
                                                 36964  36999M 37003  37005  37085  37088  37089  37090M 37090  37332M
                                                 37336  37338  37360  37363  37365  37366M 37366  37728M 37732  37734
                                                 37776  37779  37780  37781M 37781  37816M 37820  37822  37858  37861
                                                 37863  37864M 37864  38351M 38355  38357  38444  38447  38448  38449M
                                                 38449  38490M 38494  38496  38511  38514  38515  38516M 38516  38556M
                                                 38560  38562  38577  38580  38581  38582M 38582  38687M 38691  38693
                                                 38708  38711  38712  38713M 38713  38748M 38752  38754  38791  38794
                                                 38796  38797M 38797  39188M 39192  39194  39236  39239  39240  39241M
                                                 39241  39276M 39280  39282  39318  39321  39323  39324M 39324  39800M
                                                 39804  39806  39884  39887  39888  39889M 39889  39929M 39933  39935
                                                 39950  39953  39954  39955M 39955  40020M 40024  40026  40041  40044
                                                 40045  40046M 40046  40086M 40090  40092  40107  40110  40111  40112M
                                                 40112  40147M 40151  40153  40187  40190  40192  40193M 40193  40820M
                                                 40824  40826  40928  40931  40932  40933M 40933  40973M 40977  40979
                                                 40994  40997  40998  40999M 40999  41064M 41068  41070  41085  41088
                                                 41089  41090M 41090  41134M 41138  41140  41155  41158  41159  41160M
                                                 41160  41200M 41204  41206  41221  41224  41225  41226M 41226  41261M
                                                 41265  41267  41304  41307  41308  41309M 41309  41559M 41563  41565
                                                 41788  41791  41793  41794M 41794  42216M 42220  42222  42264  42267
                                                 42268  42269M 42269  42304M 42308  42310  42346  42349  42351  42352M
                                                 42352  43068M 43072  43074  43327  43330  43331  43332M 43332  43374M
                                                 43378  43380  43395  43398  43399  43400M 43400  43488M 43492  43494
                                                 43509  43512  43513  43514M 43514  43602M 43606  43608  43623  43626
                                                 43627  43628M 43628  43716M 43720  43722  43737  43740  43741  43742M
                                                 43742  43830M 43834  43836  43851  43854  43855  43856M 43856  43906M
                                                 43910  43912  43927  43930  43931  43932M 43932  43982M 43986  43988
                                                 44003  44006  44007  44008M 44008  44048M 44052  44054  44069  44072
                                                 44073  44074M 44074  44115M 44119  44121  44136  44139  44140  44141M
                                                 44141  44181M 44185  44187  44202  44205  44206  44207M 44207  44272M
                                                 44276  44278  44293  44296  44297  44298M 44298  44341M 44345  44347
                                                 44383  44386  44388  44389M 44389  44906M 44910  44912  45105  45108
                                                 45109  45110M 45110  45155M 45159  45161  45176  45179  45180  45181M
                                                 45181  45233M 45237  45239  45254  45257  45258  45259M 45259  45298M
                                                 45302  45304  45319  45322  45323  45324M 45324  45359M 45363  45365
                                                 45380  45383  45384  45385M 45385  45425M 45429  45431  45446  45449
                                                 45450  45451M 45451  45516M 45520  45522  45537  45540  45541  45542M
                                                 45542  45582M 45586  45588  45603  45606  45607  45608M 45608  45649M
                                                 45653  45655  45670  45673  45674  45675M 45675  45715M 45719  45721
                                                 45736  45739  45740  45741M 45741  45782M 45786  45788  45803  45806
                                                 45807  45808M 45808  45843M 45847  45849  45933  45936  45938  45939M
                                                 45939  46567M 46571  46573  46645  46648  46649  46650M 46650  46690M
                                                 46694  46696  46711  46714  46715  46716M 46716  46781M 46785  46787
                                                 46802  46805  46806  46807M 46807  46842M 46846  46848  46884  46887
                                                 46889  46890M 46890  47617M 47621  47623  47741  47744  47745  47746M
                                                 47746  47786M 47790  47792  47807  47810  47811  47812M 47812  47877M
1PROC     (PROC2193) (12:51) (15MAR04) Ordinary Symbol and Literal Cross Reference                                          Page  314
                                                 47881  47883  47898  47901  47902  47903M 47903  47938M 47942  47944
                                                 47959  47962  47963  47964M 47964  47999M 48003  48005  48020  48023
                                                 48024  48025M 48025  48112M 48116  48118  48133  48136  48137  48138M
                                                 48138  48173M 48177  48179  48255  48258  48260  48261M 48261  48701M
                                                 48705  48707  48749  48752  48753  48754M 48754  48789M 48793  48795
                                                 48831  48834  48836  48837M 48837  49366M 49370  49372  49444  49447
                                                 49448  49449M 49449  49489M 49493  49495  49510  49513  49514  49515M
                                                 49515  49580M 49584  49586  49601  49604  49605  49606M 49606  49641M
                                                 49645  49647  49683  49686  49688  49689M 49689  50320M 50324  50326
                                                 50413  50416  50417  50418M 50418  50458M 50462  50464  50479  50482
                                                 50483  50484M 50484  50549M 50553  50555  50570  50573  50574  50575M
                                                 50575  50623M 50627  50629  50644  50647  50648  50649M 50649  50684M
                                                 50688  50690  50747  50750  50752  50753M 50753  50925M 50929  50931
                                                 51030  51033  51035  51036M 51036  51275M 51279  51281  51309  51312
                                                 51313  51314M 51314  51529M 51533  51535  51670  51673  51675  51676M
                                                 51676  52417M 52421  52423  52448  52451  52452  52453M 52453  52815M
                                                 52819  52821  52877  52880  52882  52883M 52883  53432M 53436  53438
                                                 53464  53467  53469  53470M 53470  54019M 54023  54025  54233  54236
                                                 54238  54239M 54239  54852M 54856  54858  54888  54891  54892  54893M
                                                 54893  55002M 55006  55008  55035  55038  55039  55040M 55040  55916M
                                                 55920  55922  55942  55945  55946  55947M 55947  56156M 56160  56162
                                                 56184  56187  56188  56189M 56189  56387M 56391  56393  56413  56416
                                                 56417  56418M 56418  56588M 56592  56594  56617  56620  56621  56622M
                                                 56622  56710M 56714  56716  56797  56800  56801  56802M 56802  57286M
                                                 57290  57292  57316  57319  57320  57321M 57321  57688M 57692  57694
                                                 57715  57718  57719  57720M 57720  57764M 57768  57770  57832  57835
                                                 57836  57837M 57837  58068M 58072  58074  58092  58095  58096  58097M
                                                 58097  58138M 58142  58144  58166  58169  58170  58171M 58171  58277M
                                                 58281  58283  58304  58307  58308  58309M 58309  58368M 58372  58374
                                                 58393  58396  58397  58398M 58398  58670M 58674  58676  58698  58701
                                                 58702  58703M 58703  58835M 58839  58841  58917  58920  58921  58922M
                                                 58922  58962M 58966  58968  58983  58986  58987  58988M 58988  59028M
                                                 59032  59034  59049  59052  59053  59054M 59054  59094M 59098  59100
                                                 59115  59118  59119  59120M 59120  59173M 59177  59179  59253  59256
                                                 59257  59258M 59258  59481M 59485  59487  59508  59511  59512  59513M
                                                 59513  59718M 59722  59724  59765  59768  59770  59771M 59771  60010M
                                                 60014  60016  60038  60041  60043  60044M 60044  60256M 60260  60262
                                                 60284  60287  60289  60290M 60290  60531M 60535  60537  60559  60562
                                                 60564  60565M 60565  60777M 60781  60783  60805  60808  60810  60811M
                                                 60811  61052M 61056  61058  61195  61198  61200  61201M 61201  61525M
                                                 61529  61531  61595  61598  61600  61601M 61601  62072M 62076  62078
                                                 62165  62168  62169  62170M 62170  62210M 62214  62216  62231  62234
                                                 62235  62236M 62236  62276M 62280  62282  62297  62300  62301  62302M
                                                 62302  62342M 62346  62348  62363  62366  62367  62368M 62368  62403M
                                                 62407  62409  62439  62442  62443  62444M 62444  62485M 62489  62491
                                                 62561  62564  62566  62567M 62567  63116M 63120  63122  63219  63222
                                                 63224  63225M 63225  63542M 63546  63548  63639  63642  63644  63645M
                                                 63645  64028M 64032  64034  64065  64068  64069  64070M 64070  64253M
                                                 64257  64259  64289  64292  64293  64294M 64294  64400M 64404  64406
                                                 64491  64494  64496  64497M 64497  64802M 64806  64808
 SQSHRTN       1 00000000 0000003D     T   27718 27718
 SYSEND        4 0000061C 00000001     F    9323  9335
 SYSPINFO      2 00000018 00000001     H    8509  8510
 SYSPROCS      4 00000180 00000001     F    9028  9336
 TRC           1 00000000 00000000 A   T    2351  2351
 TRIMDONE      2 00000170 00000001     H    8969  8885B  8907B  8959B
 TTYFLAG       1 00000004 FFFFFFEA     R    6439  6443
 TTYMAX#       1 00000006 FFFFFFEA A   U    6495  6496
 TTYTFLAG      1 00000005 FFFFFFEA     R    6449  6453   6458   6463   6468   6473   6478   6483
1PROC     (PROC2193) (12:51) (15MAR04) Ordinary Symbol and Literal Cross Reference                                          Page  315
 UIDCLOCK      4 00000040 FFFFFFE7     F    7051 15504M
 UIDDATA     268 00000040 FFFFFFE7     C    7048  7050
 UIDDL#        1 0000010C FFFFFFE7 A   N    7039  7048   7054
 UIDEND        4 00000148 FFFFFFE7     C    7055 15473M
 UIDKEY       64 00000000 FFFFFFE7     C    7047 13338M 14388M 15499M
 UIDKL#        1 00000040 FFFFFFE7 A   N    7038  7047
 UIDREC      332 00000000 FFFFFFE7     J    7063 12890  13333U 13352  14383U 14402  15464U 15536  15590
 UIDUC         2 00000044 FFFFFFE7     H    7052 14535  15522M 15576M
 UIDUDATA    256 00000048 FFFFFFE7     X    7054 14534  15472M 15472  15496  15497  16322
 UIDULEN       2 00000046 FFFFFFE7     H    7053 14533  15494M
 UNET        632 00000000 FFFFFFE3     J    7818 28808U 28952  28962  29365U 29584  32185U 32341  32534  34953U 35054
                                                 35785U 35986  37458U 37955U 38173  38888U 39016  39415U 40286U 41386U
                                                 41402
 UNETACCT      5 00000004 FFFFFFE3     C    7375  7376   7377
 UNETAFLG1
               1 00000163 FFFFFFE3     R    7620  7624   7629   7634
 UNETAFLG2
               1 00000164 FFFFFFE3     R    7640  7644   7649   7654   7659   7664   7669   7674   7679
 UNETAFLG3
               1 00000165 FFFFFFE3     R    7685  7689   7694   7699
 UNETEMSG     64 0000002E FFFFFFE3     C    7455 39586  39591  39619M 39619  40514  40519  40547M 40547
 UNETFASCII8
              32 0000002D FFFFFFE3         7446 34216M
 UNETFBSISDEL
              16 0000002D FFFFFFE3         7451 30948M 31015M 33831M 33898M
 UNETFIAC    128 00000163 FFFFFFE3         7624 30815M 30882M 32205M 33422M 33445M 33698M 33765M
 UNETFIXL      4 00000254 FFFFFFE3     F    7805 31858M 31919M
 UNETFKEEPTABS
              32 00000165 FFFFFFE3         7699 34282M
 UNETFLG1      1 0000002C FFFFFFE3     R    7392  7396   7401   7406   7411   7416   7421   7426
 UNETFLG2      1 0000002D FFFFFFE3     R    7432  7436   7441   7446   7451
 UNETFNOWAIT
              64 0000002C FFFFFFE3         7401 28816M 29373M 30658M 30724M 30748M 32193M 32993M 33059M 33083M 34961M
                                                 35481M 35547M 35571M 35793M 36601M 36667M 36691M 37466M 37963M 38896M
                                                 39423M 39918M 39984M 40008M 40294M 40962M 41028M 41052M
 UNETFNOXL
              64 00000104 FFFFFFE3         7482 39576M 40075M
 UNETFOUTABORT
              32 00000164 FFFFFFE3         7654 28944  28944
 UNETFOUTEOF
              64 00000164 FFFFFFE3         7649 28944  28944  28945
 UNETFPRIV
               2 0000002C FFFFFFE3         7426 34146M
 UNETINFCRLF
               0 00000166 FFFFFFE3         7714 34369M
 UNETINFLF
               1 00000166 FFFFFFE3         7724 34405M
 UNETINMODE
               1 00000166 FFFFFFE3     R    7705  7714   7724
 UNETMKPF      2 00000242 FFFFFFE3     H    7797 31475M
 UNETMRKL      4 00000260 FFFFFFE3     F    7808 31670  31733M
 UNETNXPF      2 00000240 FFFFFFE3     H    7796 31408M
 UNETOUTFCRLF
               0 00000167 FFFFFFE3         7739 34517M
 UNETOUTFLF
               1 00000167 FFFFFFE3         7749 34553M 41477
 UNETOUTMODE
               1 00000167 FFFFFFE3     R    7730  7739   7749
 UNETOUTSG
1PROC     (PROC2193) (12:51) (15MAR04) Ordinary Symbol and Literal Cross Reference                                          Page  316
              60 0000010C FFFFFFE3     X    7586 39541  39565  40501  41444  41510  41527
 UNETOUTSGCOD
               1 0000010C FFFFFFE3     R    7503  7512   7522   7532   7542   7552   7562   7572
 UNETPNO       4 0000000C FFFFFFE3     F    7380 32358
 UNETPRPF      2 0000023E FFFFFFE3     H    7795 31341M
 UNETRNAME
              80 0000017C FFFFFFE3     C    7762 33205M 33252M 34694
 UNETRPORT
               4 000001D0 FFFFFFE3     F    7764 32199M 33337M 33398M
 UNETSGFLG
               1 00000104 FFFFFFE3     R    7473  7477   7482   7487   7492   7495   7495
 UNETSNPF      2 00000246 FFFFFFE3     H    7799 31542M
 UNETTALK      1 00000162 FFFFFFE3     X    7613 33510M 33571M 33632M
 UNETTALKCHAR
               1 00000001 FFFFFFE3 A   U    7614 33510
 UNETTALKLINE
               1 00000002 FFFFFFE3 A   U    7615 33571
 UNETTALKVTAM
               1 00000003 FFFFFFE3 A   U    7616 33632
 UNETTERM     32 000001DC FFFFFFE3     C    7769 31111M 31158M 31242  31247  31258M 31258  32042  33988M 34035M 34696
 UNETTOPL      4 0000024C FFFFFFE3     F    7803 31794
 UNETVFLG1
               1 0000021C FFFFFFE3     R    7778  7782
 UNETWAIT      4 00000070 FFFFFFE3     F    7457 28821M 28821  29378M 29378  30749M 32198M 32198  33084M 34966M 34966
                                                 35572M 35798M 35798  36692M 37471M 37471  37968M 37968  38901M 38901
                                                 39428M 39428  40009M 40299M 40299  41053M
 UNETXXPF      2 00000244 FFFFFFE3     H    7798 31609M
 UNPRST        1 00000001 FFFFFFEC A   U    6399 25724  41599  50964
 UPAT          4 00000074 FFFFFFE4     F    7286  7345
 UPATBUF       4 00000090 FFFFFFE4     R    7307 45348M
 UPATDLEN      4 00000030 FFFFFFE4     A    7274 48518M 48518
 UPATFCLS      1 00000080 FFFFFFE4 A   U    7311 48491
 UPATFHDR      8 00000018 FFFFFFE4         7259 45571M 45638M 49081
 UPATFINT     16 00000018 FFFFFFE4         7254 44037M 44104M 45704M 45771M
 UPATFLG1      1 00000018 FFFFFFE4     R    7235  7239   7244   7249   7254   7259   7264
 UPATFNOWAIT
              64 00000018 FFFFFFE4         7244 44170M 44236M 44260M 45414M 45480M 45504M 46679M 46745M 46769M 47775M
                                                 47841M 47865M 49478M 49544M 49568M 50447M 50513M 50537M
 UPATFOPENING
              32 00000018 FFFFFFE4         7249 48468
 UPATH       176 00000000 FFFFFFE4     J    7356 41883U 41897  42023  42442U 42445  44484U 44623  44799  46155U 46244
                                                 46982U 47115  48352U 48447  48927U 49779U
 UPATMFL       1 0000008C FFFFFFE4     R    7296 45221M
 UPATMNAM      1 00000020 FFFFFFE4 A   U    7300 45219
 UPATMY        8 0000007C FFFFFFE4     C    7292 45144M
 UPATPACT      8 00000046 FFFFFFE4     X    7281 43546  43551  43562M 43562
 UPATPASC      4 00000038 FFFFFFE4     F    7278 43956
 UPATPASS      4 00000098 FFFFFFE4     C    7319 45287M
 UPATPJOB      8 0000003E FFFFFFE4     X    7280 43774  43779  43790M 43790
 UPATPLNO      2 0000003C FFFFFFE4     H    7279 43880
 UPATPNAM     20 0000004E FFFFFFE4     X    7282 43660  43665  43676M 43676
 UPATPNO       4 00000004 FFFFFFE4     F    7226 44640
 UPATPTAG     16 00000062 FFFFFFE4     X    7283 43432  43437  43448M 43448
 UPATRCMP      4 00000020 FFFFFFE4     A    7269 49175  50039
 UPATSFLG      1 000000AC FFFFFFE4     X    7347  7309  48493
 UPATWAIT      4 00000028 FFFFFFE4     F    7271 44261M 45505M 46770M 47866M 49569M 50538M
 UPATYOU       8 00000084 FFFFFFE4     X    7294 45222M
 UPPTBL        1 00000000 00000000 A   T    2414  2414
 VIEWXCMD      1 00000000 0000005C     T   62511 62511
1PROC     (PROC2193) (12:51) (15MAR04) Ordinary Symbol and Literal Cross Reference                                          Page  317
 VNADATA      48 00000020 FFFFFFE1     X    7950  8127   8127
 VNADIM1       2 00000032 FFFFFFE1     H    8123 18647
 VNAFLAGS      1 00000011 FFFFFFE1     R    7931  7935
 VNAREA        1 00000024 FFFFFFE1     U    8068  8070   8074   8080   8129   8135   8140   8146
 VNARRAY       4 00000020 FFFFFFE1         7994  8311   8311  17426  19446
 VNASTR        1 00000030 FFFFFFE1         8096 17441  19461
 VNASUB1       2 00000012 FFFFFFE1     H    7938 17248M 18703M 18851M
 VNATYPE       1 00000030 FFFFFFE1     R    8087  8096   8106   8116
 VNBOOL        3 00000020 FFFFFFE1         7984  8307   8307  59456M
 VNDATA       16 00000020 FFFFFFE1     X    7946  7947   7949   7951   8133   8133   8138   8138   8144   8144   8149
                                                  8149
 VNDEBUG       1 00000021 FFFFFFE1     R    8029  8033   8038   8043   8048
 VNDESC       32 00000000 FFFFFFE1     X    7872  7873   7941   7941   8236   8297   8297
 VNENTRY      80 00000000 FFFFFFE1     J    8162  8181   8228   8236   8297   8302   8305   8307   8309   8311   8314
                                                  8316   8318   8866U  9498U  9510M  9510   9522   9546U  9558M  9558
                                                  9570   9594U  9606M  9606   9618   9642U  9654M  9654   9931U 10219U
                                                 10231M 10231  10448U 10460M 10460  10792U 10804M 10804  11309U 11514U
                                                 11974U 11986M 11986  11998  12022U 12034M 12034  12046  12276U 12318U
                                                 12330M 12330  12394U 12543U 12555M 12555  12619U 12654U 12666M 12666
                                                 12730U 12834U 12994U 13040U 13052M 13052  13116U 13555U 13567M 13567
                                                 13631U 13855U 13883U 13895M 13895  13959U 14004U 14016M 14016  14043U
                                                 14090U 14102M 14102  14166U 14564U 14576M 14576  14640U 14684U 14696M
                                                 14696  14723U 14787U 14799M 14799  14863U 15080U 15126U 15138M 15138
                                                 15202U 15862U 15874M 15874  15938U 16177U 16189M 16189  16474U 16520U
                                                 16532M 16532  16596U 16915U 16927M 16927  16991U 17188U 17412U 17536U
                                                 17548M 17548  17575U 17620U 17632M 17632  17659U 17706U 17718M 17718
                                                 17782U 18184U 18196M 18196  18223U 18269U 18281M 18281  18308U 18365U
                                                 18377M 18377  18441U 18642U 18697U 18749U 18845U 18899U 19151U 19197U
                                                 19209M 19209  19273U 19945U 19957M 19957  20021U 20208U 20311U 20323M
                                                 20323  20529U 20650U 20662M 20662  20735U 20747M 20747  20759  20801U
                                                 20813M 20813  20899U 20911M 20911  20923  20955U 20967M 20967  21058U
                                                 21070M 21070  21255U 21376U 21388M 21388  21461U 21473M 21473  21485
                                                 21527U 21539M 21539  21625U 21637M 21637  21649  21681U 21693M 21693
                                                 21784U 21796M 21796  21983U 22104U 22116M 22116  22189U 22201M 22201
                                                 22213  22255U 22267M 22267  22353U 22365M 22365  22377  22409U 22421M
                                                 22421  22512U 22524M 22524  22711U 22832U 22844M 22844  22917U 22929M
                                                 22929  22941  22983U 22995M 22995  23081U 23093M 23093  23105  23137U
                                                 23149M 23149  23240U 23252M 23252  23439U 23560U 23572M 23572  23645U
                                                 23657M 23657  23669  23711U 23723M 23723  23809U 23821M 23821  23833
                                                 23865U 23877M 23877  23968U 23980M 23980  24152U 24260U 24272M 24272
                                                 24513U 25039U 25876U 26358U 26459U 26471M 26471  26812U 27583U 27595M
                                                 27595  27659U 27854U 28363U 28375M 28375  28387  28411U 28423M 28423
                                                 28435  28789U 29019U 29031M 29031  29095U 29346U 29678U 29690M 29690
                                                 29716U 29779U 29791M 29791  29802  29817U 29880U 29892M 29892  29956U
                                                 30023U 30035M 30035  30099U 32155U 32411U 32423M 32423  32487U 32563U
                                                 32575M 32575  32602U 34807U 34851U 34863M 34863  34927U 35085U 35097M
                                                 35097  35161U 35250U 35262M 35262  35326U 35764U 36235U 36247M 36247
                                                 36311U 36362U 36374M 36374  36401U 37437U 37609U 37621M 37621  37685U
                                                 37935U 38232U 38244M 38244  38308U 38868U 39069U 39081M 39081  39145U
                                                 39395U 39681U 39693M 39693  39757U 40264U 40611U 40623M 40623  40687U
                                                 40738U 40750M 40750  40777U 41864U 42097U 42109M 42109  42173U 42423U
                                                 42701U 42713M 42713  42739U 42806U 42818M 42818  42882U 42949U 42961M
                                                 42961  43025U 44459U 44693U 44705M 44705  44769U 44828U 44840M 44840
                                                 44867U 46009U 46053U 46065M 46065  46129U 46308U 46320M 46320  46384U
                                                 46448U 46460M 46460  46524U 46961U 47408U 47420M 47420  47484U 47535U
                                                 47547M 47547  47574U 48331U 48582U 48594M 48594  48658U 48907U 49247U
                                                 49259M 49259  49323U 49759U 50111U 50123M 50123  50187U 50238U 50250M
                                                 50250  50277U 51094U 51406U 51416M 51416  51732U 52977U 53135U 53147M
                                                 53147  53222U 53234M 53234  53327U 53339M 53339  53564U 53722U 53734M
1PROC     (PROC2193) (12:51) (15MAR04) Ordinary Symbol and Literal Cross Reference                                          Page  318
                                                 53734  53809U 53821M 53821  53914U 53926M 53926  54297  54298  54299
                                                 54687U 54699M 54699  54711  54763U 54775M 54775  59311U 59323M 59323
                                                 59390U 59402M 59402  59438U 59450M 59450  59628U 59640M 59640  59834U
                                                 59898U 59910M 59910  59974U 60105U 60148U 60160M 60160  60224U 60353U
                                                 60419U 60431M 60431  60495U 60626U 60669U 60681M 60681  60745U 60874U
                                                 60940U 60952M 60952  61016U 61277U 61684U 61985U 61997M 61997  62024U
                                                 62661U 62819U 62831M 62831  62906U 62918M 62918  63011U 63023M 63023
 VNFLAGS1      1 00000022 FFFFFFE1     R    8053  8057
 VNNAME       16 00000000 FFFFFFE1     C    7874  8126   8302   8302   8364   8365
 VNNUMB        2 00000020 FFFFFFE1         7974  8305   8305   9516M  9564M  9612M  9660M 11992M 12040M 14022M 14702M
                                                 17554M 17638M 18202M 18287M 20753M 20917M 21479M 21643M 22207M 22371M
                                                 22935M 23099M 23663M 23827M 28381M 28429M 29696M 29797M 32581M 36380M
                                                 40756M 42719M 44846M 47553M 50256M 54705M 59408M 62003M
 VNPREFIX      1 00000010 FFFFFFE1     R    7877  7886   7896   7906   7916   7926
 VNSDATA       6 00000020 FFFFFFE1     X    7948  8078   8078
 VNSTRING      1 00000020 FFFFFFE1         7964  8309   8309  10237M 10466M 10810M 12336M 12561M 12672M 13058M 13573M
                                                 13901M 14108M 14582M 14805M 15144M 15880M 16195M 16538M 16933M 17724M
                                                 18383M 19215M 19963M 20329M 20668M 20819M 20973M 21076M 21394M 21545M
                                                 21699M 21802M 22122M 22273M 22427M 22530M 22850M 23001M 23155M 23258M
                                                 23578M 23729M 23883M 23986M 24278M 26477M 27601M 29037M 29898M 30041M
                                                 32429M 34869M 35103M 35268M 36253M 37627M 38250M 39087M 39699M 40629M
                                                 42115M 42824M 42967M 44711M 46071M 46326M 46466M 47426M 48600M 49265M
                                                 50129M 51422M 53153M 53240M 53345M 53740M 53827M 53932M 54781M 59329M
                                                 59646M 59916M 60166M 60437M 60687M 60958M 62837M 62924M 63029M
 VNSTRLEN      2 00000024 FFFFFFE1     H    8076  8318   8318   8869   8884M  8891   8906M  8913   8958M  9938   9943
                                                  9947  10249M 10478M 10821M 12347M 12422  12439  12456  12473  12572M
                                                 12683M 13069M 13146  13248  13584M 13912M 14119M 14196  14298  14593M
                                                 14816M 15155M 15232  15334  15455  15891M 16206M 16549M 16651  16944M
                                                 17735M 17837  18394M 18762  18771  18917  19226M 19328  19974M 20255
                                                 20334M 20679M 20824M 20984M 21081M 21405M 21550M 21710M 21807M 22133M
                                                 22278M 22438M 22535M 22861M 23006M 23166M 23263M 23589M 23734M 23894M
                                                 23991M 24203  24283M 25893  26375  26488M 27612M 28859  29048M 29396
                                                 29909M 30052M 32225  32440M 34880M 34986  35114M 35279M 35846  36264M
                                                 37489  37638M 38006  38261M 38939  39098M 39448  39533  39710M 40341
                                                 40640M 41951  42126M 42467  42835M 42978M 44505  44722M 46082M 46176
                                                 46337M 46477M 47031  47437M 48371  48611M 48948  49125  49130  49162
                                                 49276M 49822  50140M 51433M 52982  53004  53030  53166M 53253M 53358M
                                                 53569  53591  53617  53753M 53840M 53945M 54298  54792M 59334M 59651M
                                                 59840  59927M 60177M 60361  60448M 60698M 60882  60969M 61283  61444
                                                 61725  61882  62666  62688  62714  62850M 62937M 63042M
 VNSTRLOC      1 00000026 FFFFFFE1     C    8077  8316   8316   8868   8890   8912   9937   9942  10273M 10502M 10845M
                                                 12371M 12418  12435  12452  12469  12596M 12707M 13093M 13142  13244
                                                 13608M 13936M 14143M 14192  14294  14617M 14840M 15179M 15228  15330
                                                 15451  15915M 16230M 16573M 16647  16968M 17759M 17833  18418M 18913
                                                 19250M 19324  19998M 20251  20358M 20703M 20848M 21008M 21105M 21429M
                                                 21574M 21734M 21831M 22157M 22302M 22462M 22559M 22885M 23030M 23190M
                                                 23287M 23613M 23758M 23918M 24015M 24199  24307M 25889  26371  26512M
                                                 27636M 28855  29072M 29392  29933M 30076M 32221  32464M 34904M 34982
                                                 35138M 35303M 35842  36288M 37485  37662M 38002  38285M 38935  39122M
                                                 39444  39529  39734M 40337  40664M 41947  42150M 42463  42859M 43002M
                                                 44501  44746M 46106M 46172  46361M 46501M 47027  47461M 48367  48635M
                                                 48944  49158  49300M 49818  50164M 51461M 52980  53002  53028  53190M
                                                 53277M 53382M 53567  53589  53615  53777M 53864M 53969M 54299  54816M
                                                 59358M 59675M 59839  59951M 60201M 60360  60472M 60722M 60881  60993M
                                                 61282  61440  61721  61878  62664  62686  62712  62874M 62961M 63066M
 VNTYPE        1 00000020 FFFFFFE1     R    7955  7964   7974   7984   7994   8004   8014   8024
 VNVALUE      12 00000024 FFFFFFE1     X    8072  8153   8314   8314   9521M  9569M  9617M  9665M 11317  11320  11323
                                                 11517  11520  11609  11644  11997M 12045M 12842  14027M 14707M 15414
                                                 17559M 17643M 18207M 18292M 19406  20235  20532  20552  20758M 20922M
1PROC     (PROC2193) (12:51) (15MAR04) Ordinary Symbol and Literal Cross Reference                                          Page  319
                                                 21258  21278  21484M 21648M 21986  22006  22212M 22376M 22714  22734
                                                 22940M 23104M 23442  23462  23668M 23832M 24157  24183  24516  25042
                                                 26817  27857  27860  27949  27984  28386M 28434M 28794  29351  29700M
                                                 29801M 32586M 34939  35771  36385M 37443  37941  38122  38874  39013
                                                 39401  40270  40761M 41869  42428  42723M 44851M 46141  46968  47558M
                                                 48337  48913  49765  50261M 51099  51738  51741  54297  54710M 59413M
                                                 59457M 60109  60358  60630  60879  62008M
 VPARM       336 00000000 FFFFFFE0     J    8189  8230   8320   8321   9369   9370   9371   9372   9373   9374   9375
                                                  9376   9378   9391  17117  18572  54060  61430
 VSTRING       1 00000000 0000001B     T   17318 17318
 WAR           8 00000008 00000001 A   #    1257  8537M  8596   8640M  8755   8766   8833M  8981   9440M  9694   9864M
                                                 10971  11056M 11122  11147M 11213  11253M 11348  11460M 12100  12209M
                                                 12759  12790M 12867  12923M 13674  13718M 13754  13794M 14906  14950M
                                                 14986  15019M 15981  16025M 16061  16098M 16274  16403M 17034  17143M
                                                 17280  17301  17348M 18484  18598M 19016  19032  19080M 20064  20154M
                                                 20402  20462M 21154  21188M 21880  21916M 22608  22644M 23336  23372M
                                                 24064  24098M 24351  24453M 24706  24745M 24816  24961M 25194  25263M
                                                 25422  25467M 25626  25655  25681  25799M 26557  26741M 27691  27800M
                                                 28488  28717M 29138  29190M 29226  29273M 30142  30494M 30536  30561M
                                                 30603  30628M 30669  30694M 30760  30785M 30826  30851M 30893  30918M
                                                 30959  30984M 31026  31051M 31184  31209M 31285  31310M 31352  31377M
                                                 31419  31444M 31486  31511M 31553  31578M 31620  31645M 31683  31708M
                                                 31744  31769M 31807  31832M 31869  31894M 31930  31955M 31991  32083M
                                                 32641  32963M 33004  33029M 33095  33142M 33283  33308M 33348  33373M
                                                 33460  33485M 33521  33546M 33582  33607M 33643  33668M 33709  33734M
                                                 33776  33801M 33842  33867M 33909  33934M 34061  34086M 34161  34186M
                                                 34227  34252M 34293  34318M 34441  34466M 34589  34614M 34650  34735M
                                                 35369  35451M 35492  35517M 35583  35608M 35644  35691M 36444  36571M
                                                 36612  36637M 36703  36728M 36764  36789M 36825  36850M 36938  36963M
                                                 36999  37089M 37332  37365M 37728  37780M 37816  37863M 38351  38448M
                                                 38490  38515M 38556  38581M 38687  38712M 38748  38796M 39188  39240M
                                                 39276  39323M 39800  39888M 39929  39954M 40020  40045M 40086  40111M
                                                 40147  40192M 40820  40932M 40973  40998M 41064  41089M 41134  41159M
                                                 41200  41225M 41261  41308M 41559  41793M 42216  42268M 42304  42351M
                                                 43068  43331M 43374  43399M 43488  43513M 43602  43627M 43716  43741M
                                                 43830  43855M 43906  43931M 43982  44007M 44048  44073M 44115  44140M
                                                 44181  44206M 44272  44297M 44329  44341  44388M 44906  45109M 45155
                                                 45180M 45233  45258M 45298  45323M 45359  45384M 45425  45450M 45516
                                                 45541M 45582  45607M 45649  45674M 45715  45740M 45782  45807M 45843
                                                 45938M 46567  46649M 46690  46715M 46781  46806M 46842  46889M 47617
                                                 47745M 47786  47811M 47877  47902M 47938  47963M 47999  48024M 48112
                                                 48137M 48173  48260M 48701  48753M 48789  48836M 49366  49448M 49489
                                                 49514M 49580  49605M 49641  49688M 50320  50417M 50458  50483M 50549
                                                 50574M 50623  50648M 50684  50752M 50925  51035M 51275  51313M 51529
                                                 51675M 52417  52452M 52815  52882M 53432  53469M 54019  54238M 54852
                                                 54892M 55002  55039M 55916  55946M 56156  56188M 56387  56417M 56588
                                                 56621M 56710  56801M 57286  57320M 57677  57688  57719M 57764  57836M
                                                 58068  58096M 58138  58170M 58277  58308M 58368  58397M 58670  58702M
                                                 58835  58921M 58962  58987M 59028  59053M 59094  59119M 59173  59257M
                                                 59481  59512M 59718  59770M 60010  60043M 60256  60289M 60531  60564M
                                                 60777  60810M 61052  61200M 61525  61600M 62072  62169M 62210  62235M
                                                 62276  62301M 62342  62367M 62403  62443M 62485  62566M 63116  63224M
                                                 63526  63542  63644M 64012  64028  64069M 64253  64293M 64389  64400
                                                 64496M 64786  64802
 WGSBKHDR     16 00000000 00000001 A   U   24402 24585  25061  25104  25719
 WGSBKLEN      1 00001000 00000001 A   U   24403 25717
 WGSLNHDR     12 00000000 00000001 A   U   24397 25715
 WGSLNLEN      4 00000000 00000001 A   U   24398 24612  24800  25356M 25368  25369
 WGSLNLNO      8 00000004 00000001 A   U   24399 24771  24772  25359
1PROC     (PROC2193) (12:51) (15MAR04) Ordinary Symbol and Literal Cross Reference                                          Page  320
 WGSLNTXT      1 0000000C 00000001 A   U   24400 24799  25313
 WINDGET       1 00000000 0000005F     T   62517 62517
 WINDPUT       1 00000000 00000060     T   62518 62518
 WLGSG        60 00000004 FFFFFFC5     X   61171 61388  61403  61452  61488
 WLGSGBUF   1000 00000050 FFFFFFC5     X   61173 61375  61380
 WLGSGCOD      1 00000004 FFFFFFC5     R   61088 61097  61107  61117  61127  61137  61147  61157
 WLGSGID      16 00000040 FFFFFFC5     C   61172 61319M 61346M 61408  62519
 WLGSGUSR      4 0000003C FFFFFFC5     A   61170 61409M
 WLGWTNUM      4 00000000 FFFFFFC5     F   61082 61245M 61360  61362M 61413
 WLGWTWA    1080 00000000 FFFFFFC5     J   61180 61201  61230U 61240M 61240  61241M 61241  61242M 61242  61243M 61243
                                                 61244M 61244  61529  61531  61532
 WRTLINE       2 0000316A 00000001     H   24735 25713
 WTOACTN       2 0000AE38 00000001     H   62159 62108
 WTOARGP       4 00000004 FFFFFFC4     A   61572 61664M 61710  61869
 WTOBAD        2 0000AEBC 00000001     H   62357 62153
 WTOERR        2 0000AD52 00000001     H   61943 61766B
 WTOEXIT       4 0000AD7A 00000001     I   62043 61673B
 WTOFACTION
             128 00000000 FFFFFFC4        61558 61796  62199M
 WTOFLAG       1 00000000 FFFFFFC4     R   61554 61558  61563  61568
 WTOFTAPE     32 00000000 FFFFFFC4        61568 61848  62331M
 WTOFWTL      64 00000000 FFFFFFC4        61563 61822  62265M
 WTONARGS      4 00000008 FFFFFFC4     F   61573 61663M 61703  61960
 WTOPRT        4 0000AD98 00000001     F   62096 62526
 WTORET        2 0000AD54 00000001     H   61949 61937B
 WTORTAPE      2 0000AE90 00000001     H   62291 62138
 WTOSG         1 00000000 00000000 A   T    2311  2311
 WTOWA        12 00000000 FFFFFFC4     J   61580 61601  61630U 61634  61644U 61654M 61654  62076  62078  62079  62092U
 WTOWTL        2 0000AE64 00000001     H   62225 62123
 WYLPROC       1 00000000 00000001     J    1221  1223   1239   1252   1265   1277   1290   1303   1316   1329   1342
                                                  1355   2595   2679   6419   6531   6811   7021   7064   7096   7202
                                                  7206   7209   7357   7819   7850   8163   8190   8329   8355
 XDELSET       1 00000000 00000033     T   26578 26578
 XGETFRST      1 00000000 00000034     T   26579 26579
 XGETLAST      1 00000000 00000037     T   26585 26585
 XGETNEXT      1 00000000 00000035     T   26580 26580
 XPUT          1 00000000 0000003A     T   26589 26589
 XSCANSTR      1 00000000 00000062     T   63138 63138
 XSENTRY      80 00000000 FFFFFFDF     J    8328  8302   8305   8307   8309   8314   8316   8318
 XSETSET       1 00000000 00000032     T   26577 26577
 XSLENTRY    336 00000000 FFFFFFDF     U    8230  8320   8321
 XSTYPE        1 00000000 FFFFFFDF     R    8239  8248   8258   8268   8278   8288
 XTB           1 00000000 0000004C     T   41589 41589
 XXSSTART      8 00000000 FFFFFFDF     D    8227  8230   8236   8297
 =A((DESRTRN+LOCATRTN+UNPRST))
               4 00006BC8 00000001     A   41599 40461
 =A((DESRTRN+LOCATRTN+UNPRST))
               4 00008CFC 00000001     A   50964 49994
 =A((LOCATRTN+UNPRST+DESRTRN))
               4 00003438 00000001     A   25724 25142
 =A(-1)        4 00001A44 00000001     A   16312 13461  14485  15690
 =A(-1)        4 00001D64 00000001     A   17068 16829
 =A(-1)        4 0000217C 00000001     A   18517 18024
 =A(-1)        4 00002654 00000001     A   20105 19781
 =A(-2)        4 00001A40 00000001     A   16311 13436  14460  15665
 =A(-2)        4 00001D60 00000001     A   17067 16804
 =A(-2)        4 00002178 00000001     A   18516 17999
 =A(-2)        4 00002650 00000001     A   20104 19756
 =A(-3)        4 00001A3C 00000001     A   16310 13411  14435  15640
1PROC     (PROC2193) (12:51) (15MAR04) Ordinary Symbol and Literal Cross Reference                                          Page  321
 =A(-3)        4 00001D40 00000001     A   17065 16779
 =A(-3)        4 00002158 00000001     A   18514 17974
 =A(-3)        4 00002630 00000001     A   20102 19731
 =A(CLBUFSZ)
               4 00000F28 00000001     A   12129 11839  11861
 =A(COLLAPSE)
               4 00002618 00000001     A   20096 19542
 =A(COMPRBUF)
               4 00000F40 00000001     A   12135 11947
 =A(DRSEG)
               4 000094F4 00000001     A   54046 51786
 =A(L'KLGKEY)
               4 00001D38 00000001     A   17063 16667
 =A(L'KLGKEY)
               4 00002148 00000001     A   18510 17853
 =A(L'KLGKEY)
               4 0000260C 00000001     A   20093 19344
 =A(L'KRBREC+KRBMXDL#)
               4 00002184 00000001     A   18519 18082
 =A(L'KRBREC)
               4 0000218C 00000001     A   18521 18116
 =A(L'KWAKEY)
               4 00001A34 00000001     A   16308 13264  14314  15350
 =A(L'MINFARG1)
               4 000036D4 00000001     A   26576 25926
 =A(L'NWAEOF)
               4 00005C48 00000001     A   37049 36906  36918
 =A(L'PWAEOF)
               4 00008384 00000001     A   48220 48080  48092
 =A(L'UIDUDATA)
               4 00001A6C 00000001     A   16322 15477  15489
 =A(L'UNETRNAME)
               4 00005450 00000001     A   34694 33209  33221
 =A(L'UNETTERM)
               4 00004A64 00000001     A   32042 31115  31127
 =A(L'UNETTERM)
               4 00005458 00000001     A   34696 33992  34004
 =A(L'WLGSGID)
               4 0000AF74 00000001     A   62519 61295
 =A(LTOCRTN)
               4 0000343C 00000001     A   25725 25143
 =A(LTSEG)
               4 0000342C 00000001     A   25721 25088
 =A(MATCHBUF)
               4 00003DA0 00000001     A   28520 28198  28222  28246  28310
 =A(MATCHCHK)
               4 0000B638 00000001     A   64821 63930
 =A(MATCHLNO)
               4 0000B63C 00000001     A   64822 63949
 =A(MAXSTRLN)
               4 00008360 00000001     A   48211 46253  46265  47126  47138
 =A(MAXSTRLN)
               4 000094E8 00000001     A   54043 51355  51367
 =A(MKLOGLST)
               4 00002190 00000001     A   18522 18129
 =A(MLBUFSZ)
               4 00003D90 00000001     A   28516 28154  28173  28266  28285
 =A(NCLSPRT)
               4 00004A2C 00000001     A   32028 28889
1PROC     (PROC2193) (12:51) (15MAR04) Ordinary Symbol and Literal Cross Reference                                          Page  322
 =A(NCTLPRT)
               4 00004A40 00000001     A   32033 29434
 =A(NOPNPRT)
               4 0000542C 00000001     A   34685 32256
 =A(NRDPRT)
               4 00005C0C 00000001     A   37034 35016
 =A(NRFPRT)
               4 00005C28 00000001     A   37041 35893
 =A(NRFSEG)
               4 00005C30 00000001     A   37043 35962
 =A(NSTPRT)
               4 00006B7C 00000001     A   41580 37519
 =A(NTKPRT)
               4 00006B8C 00000001     A   41584 38036
 =A(NVWPRT)
               4 00006BA8 00000001     A   41591 38969
 =A(NWFPRT)
               4 00006BC0 00000001     A   41597 40396
 =A(NWFRTN)
               4 00006BCC 00000001     A   41600 40462
 =A(NWRPRT)
               4 00006BB0 00000001     A   41593 39478
 =A(PCLSPRT)
               4 00007B58 00000001     A   45879 41981
 =A(PCOLXPRT)
               4 00000BE4 00000001     A   11369 10000
 =A(PCOLYPRT)
               4 00000BF0 00000001     A   11372 10063
 =A(PCTLINV)
               4 00007B6C 00000001     A   45884 42476
 =A(PCTLPRT)
               4 00007B70 00000001     A   45885 42505
 =A(PCTLPRTB)
               4 00007B90 00000001     A   45893 43467  43581  43695  43809  43885  43961
 =A(PKDPRT)
               4 00001A28 00000001     A   16305 13172
 =A(PKGPRT)
               4 00001A5C 00000001     A   16318 14222
 =A(PKPPRT)
               4 00001A64 00000001     A   16320 15258
 =A(POPNPRT)
               4 00007B98 00000001     A   45895 44535
 =A(PRDPRT)
               4 00008354 00000001     A   48208 46206
 =A(PRFPRT)
               4 00008370 00000001     A   48215 47077
 =A(PSTERR)
               4 00008CA8 00000001     A   50945 48380
 =A(PSTPRT)
               4 00008CAC 00000001     A   50946 48409
 =A(PWFERR)
               4 00008CF0 00000001     A   50961 49847
 =A(PWFPRT)
               4 00008CF4 00000001     A   50962 49885
 =A(PWFRTN)
               4 00008D00 00000001     A   50965 49995
 =A(PWRERR)
               4 00008CC8 00000001     A   50951 48957
 =A(PWRPRT)
1PROC     (PROC2193) (12:51) (15MAR04) Ordinary Symbol and Literal Cross Reference                                          Page  323
               4 00008CCC 00000001     A   50952 48986
 =A(QFETSAVE)
               4 000094E4 00000001     A   54042 51145  51205  51235
 =A(READBUF)
               4 00000F30 00000001     A   12131 11849  11871
 =A(READBUF)
               4 00003D98 00000001     A   28518 28164  28183  28276  28295
 =A(RFC#DLIM)
               4 0000A6CC 00000001     A   59199 56925
 =A(RFCADDR)
               4 00009D18 00000001     A   56740 54985  56515
 =A(RFCADDRS)
               4 00009D20 00000001     A   56742 55166  56144
 =A(RFCADDTK)
               4 00009D30 00000001     A   56746 55273  55999  56036  56044  56244  56342
 =A(RFCALIST)
               4 00009D08 00000001     A   56736 54512  54579
 =A(RFCERROR)
               4 00009CFC 00000001     A   56733 54350  54413  54940  55413  55558  55679  56025  56090  56124  56232
                                                 56331  56473
 =A(RFCERROR)
               4 0000A6F8 00000001     A   59210 57490  58218
 =A(RFCGETLN)
               4 00009CF8 00000001     A   56732 54329  54642
 =A(RFCGETLN)
               4 0000A6F0 00000001     A   59208 57175  57471
 =A(RFCGROUP)
               4 00009D38 00000001     A   56748 55497
 =A(RFCMAXLN)
               4 0000A704 00000001     A   59213 58210
 =A(RFCOPERR)
               4 0000A72C 00000001     A   59219 58819
 =A(RFCOPPRT)
               4 0000A724 00000001     A   59217 58787
 =A(RFCPUTLN)
               4 00009D3C 00000001     A   56749 55753  55781  55899  56698
 =A(RFCPUTS)
               4 00009D2C 00000001     A   56745 55251  55446  55457  56305
 =A(RFCPUTS)
               4 0000A6FC 00000001     A   59211 57750  58126
 =A(RFCRTADD)
               4 00009D1C 00000001     A   56741 55109  55536
 =A(RFCSCAN)
               4 00009D00 00000001     A   56734 54376  54919  54958  55377  55462  55532  55591  56003  56040  56068
                                                 56135  56257  56309  56485  56555  56576
 =A(RFCSCNOP)
               4 00009CF4 00000001     A   56731 54302
 =A(RFCSCNQS)
               4 0000A6D0 00000001     A   59200 56937  57227
 =A(RFCSCSEG)
               4 0000A6E0 00000001     A   59204 57010  57467  57674
 =A(RFCSUBJ)
               4 00009D10 00000001     A   56738 54612
 =A(SYSEND)
               4 00000634 00000001     A    9335  8574
 =A(SYSPROCS)
               4 00000638 00000001     A    9336  8576   8672
 =A(WRTLINE)
               4 0000340C 00000001     A   25713 24610
1PROC     (PROC2193) (12:51) (15MAR04) Ordinary Symbol and Literal Cross Reference                                          Page  324
 =A(WTOPRT)
               4 0000AF90 00000001     A   62526 61751
 =A(X'7FFF')
               4 00001A78 00000001     A   16325 15558
 =A(X'7FFF')
               4 00002624 00000001     A   20099 19653
 =A(1)         4 00000BF4 00000001     A   11373 10143  10146  10149  10189  10192  10371  10374  10415  10418  10421
                                                 11106  11197
 =A(1)         4 00001A48 00000001     A   16313 13487  14511  15716
 =A(1)         4 00001D68 00000001     A   17069 16855
 =A(1)         4 00002180 00000001     A   18518 18050
 =A(1)         4 00002658 00000001     A   20106 19807
 =A(1)         4 000036F0 00000001     A   26583 26170  26315
 =A(1)         4 00009D24 00000001     A   56743 55207  55405  56649
 =A(1)         4 0000A6DC 00000001     A   59203 57001  57396  57566  57599  57661  57670
 =A(1)         4 0000AF4C 00000001     A   62509 59610
 =A(1)         4 0000B640 00000001     A   64823 63975  63987
 =A(10)        4 000039E0 00000001     A   27713 26880
 =A(12)        4 00004A4C 00000001     A   32036 29521
 =A(12)        4 00007B7C 00000001     A   45888 42592
 =A(120)       4 0000AF9C 00000001     A   62529 61889  61901
 =A(128)       4 00006BA4 00000001     A   41590 38646
 =A(140)       4 00003A00 00000001     A   27721 27547  27559
 =A(16)        4 00007B80 00000001     A   45889 42612
 =A(19)        4 00009D4C 00000001     A   56753 56694
 =A(2)         4 00001A80 00000001     A   16327 15742
 =A(2)         4 0000265C 00000001     A   20107 19833
 =A(2)         4 00002FD4 00000001     A   24372 20294
 =A(2)         4 0000950C 00000001     A   54052 52576
 =A(2)         4 00009D28 00000001     A   56744 55238  55354
 =A(20)        4 000039EC 00000001     A   27716 27242  27254
 =A(23)        4 00005454 00000001     A   34695 33410
 =A(255)       4 0000A6EC 00000001     A   59207 57150
 =A(3)         4 00000F04 00000001     A   12120 11549
 =A(3)         4 00001A84 00000001     A   16328 15768
 =A(3)         4 00002660 00000001     A   20108 19859
 =A(3)         4 00002FCC 00000001     A   24370 20228  24243
 =A(3)         4 00003D6C 00000001     A   28507 27889
 =A(3)         4 00009D34 00000001     A   56747 55340
 =A(4)         4 00000F10 00000001     A   12123 11602
 =A(4)         4 00001A88 00000001     A   16329 15794
 =A(4)         4 00002664 00000001     A   20109 19885
 =A(4)         4 00002FD8 00000001     A   24373 20545  21271  21999  22727  23455  24176
 =A(4)         4 00003D78 00000001     A   28510 27942
 =A(4)         4 00004A44 00000001     A   32034 29481
 =A(4)         4 00005434 00000001     A   34687 32302
 =A(4)         4 00005C18 00000001     A   37037 35187
 =A(4)         4 00007B74 00000001     A   45886 42552
 =A(4)         4 00009514 00000001     A   54054 52995  53582
 =A(4)         4 0000B19C 00000001     A   63135 62679
 =A(400)       4 0000B648 00000001     A   64825 64118
 =A(5)         4 00009518 00000001     A   54055 53021  53608
 =A(5)         4 0000B1A0 00000001     A   63136 62705
 =A(8)         4 00004A48 00000001     A   32035 29501
 =A(8)         4 00005438 00000001     A   34688 32322
 =A(8)         4 00006B90 00000001     A   41585 38065
 =A(8)         4 00007B78 00000001     A   45887 42572
 =A(80)        4 0000B64C 00000001     A   64826 64141
 =AL2(L'VPARM)
1PROC     (PROC2193) (12:51) (15MAR04) Ordinary Symbol and Literal Cross Reference                                          Page  325
               2 0000952C 00000001     R   54060 51395
 =AL4(CLBUFSZ)
               4 00000F1C 00000001     R   12126 11779  11793  12065  12073
 =AL4(CLLBUFSZ)
               4 00000F24 00000001     R   12128 11786  11800  12069  12077
 =AL4(L'WGSBKHDR)
               4 00003424 00000001     R   25719 25062  25595  25596
 =AL4(L'WGSLNHDR)
               4 00003414 00000001     R   25715 24801  25355
 =AL4(MLBUFSZ)
               4 00003D84 00000001     R   28513 28119  28133  28454  28462
 =AL4(MLLBUFSZ)
               4 00003D8C 00000001     R   28515 28126  28140  28458  28466
 =AL4(WGSBKLEN)
               4 0000341C 00000001     R   25717 25054
 =AL4(140)
               4 000039F8 00000001     R   27719 27356
 =AL4(2)       4 00000BF8 00000001     R   11374 10308
 =AL4(2)       4 00001D30 00000001     R   17061 16495  16890
 =AL4(2)       4 000036F4 00000001     R   26584 26234
 =AL4(2)       4 00004A28 00000001     R   32027 28837
 =AL4(2)       4 00005C24 00000001     R   37040 35826
 =AL4(2)       4 00006B88 00000001     R   41583 37984  38917  40321
 =AL4(2)       4 00007B54 00000001     R   45878 41929
 =AL4(2)       4 0000836C 00000001     R   48214 47011
 =AL4(2)       4 00008CEC 00000001     R   50960 49802
 =AL4(2)       4 0000AF58 00000001     R   62512 59873  61703
 =AL4(235+4+32)
               4 0000B650 00000001     R   64827 64547
 =AL4(3)       4 00000BFC 00000001     R   11375 10545
 =AL4(3)       4 00001A24 00000001     R   16304 13015  13530  16160
 =AL4(3)       4 00002FE8 00000001     R   24377 20784  21041  21510  21767  22238  22495  22966  23223  23694  23951
 =AL4(3)       4 0000370C 00000001     R   26590 26442
 =AL4(3)       4 00004A3C 00000001     R   32032 28994  29653  29754  29851
 =AL4(3)       4 00005440 00000001     R   34690 32386
 =AL4(3)       4 00005C04 00000001     R   37032 34826  36337
 =AL4(3)       4 00006B84 00000001     R   41582 37584  38114  40713
 =AL4(3)       4 00007B64 00000001     R   45882 42072  42676  42777  44668
 =AL4(3)       4 0000834C 00000001     R   48206 46028  46283  47510
 =AL4(3)       4 00008CC4 00000001     R   50950 48557  50213
 =AL4(3)       4 00009524 00000001     R   54058 53310  53897
 =AL4(3)       4 0000AF68 00000001     R   62516 60394  60915  61960
 =AL4(3)       4 0000B1AC 00000001     R   63139 62994
 =AL4(4)       4 00001A4C 00000001     R   16314 13979  14659
 =AL4(4)       4 00002138 00000001     R   18506 17595  18243  18340
 =AL4(4)       4 00002604 00000001     R   20091 19172  19920
 =AL4(4)       4 00004A5C 00000001     R   32040 29986
 =AL4(4)       4 00005C1C 00000001     R   37038 35225  36210
 =AL4(4)       4 00006B9C 00000001     R   41588 38207  39044  39656  40586
 =AL4(4)       4 00007B8C 00000001     R   45892 42912
 =AL4(4)       4 00008364 00000001     R   48212 46423  47383
 =AL4(4)       4 00008CE8 00000001     R   50959 49222  50086
 =AL4(5)       4 00001A58 00000001     R   16317 14062  14762  15101  15837
 =AL4(5)       4 00002140 00000001     R   18508 17678
 =AL4(6)       4 00001A1C 00000001     R   16302 12293
 =C'  Current token is: '
              20 0000A710 00000001     C   59216 58585
 =C' ,'        2 00009538 00000001     C   54064 53066  53653
 =C' ,'        2 0000B1B0 00000001     C   63140 62750
1PROC     (PROC2193) (12:51) (15MAR04) Ordinary Symbol and Literal Cross Reference                                          Page  326
 =C' ,=;'      4 0000951C 00000001     C   54056 53094  53681
 =C' ,=;'      4 0000B1A4 00000001     C   63137 62778
 =C'....'      4 00006B94 00000001     C   41586 38128  39015
 =C'<<'        2 00003A0A 00000001     C   27725 27340
 =C'**'        2 00003A0C 00000001     C   27726 27445
 =C','         1 00000C25 00000001     C   11385 10632  10678  10724
 =C': '        2 00009D62 00000001     C   56757 54932  55489  56115
 =C'::'        2 0000A730 00000001     C   59220 56903
 =C':END'      4 00001A68 00000001     C   16321 15473
 =C'@'         1 00009D8E 00000001     C   56766 55246  56300
 =C'":'        2 00003A06 00000001     C   27723 27172
 =C'at '       3 00009D8B 00000001     C   56765 55224  56289
 =C'bcc '      4 00009D0C 00000001     C   56737 54565
 =C'cc '       3 00009D83 00000001     C   56763 54552
 =C'eof '      4 0000A6C8 00000001     C   59198 56841
 =C'err '      4 0000A6F4 00000001     C   59209 57274
 =C'errors-to '
              10 00009D56 00000001     C   56755 54472
 =C'from '
               5 00009D72 00000001     C   56760 54485
 =C'pointers'
               8 00009CE8 00000001     C   56729 55806
 =C'reply-to '
               9 00009D77 00000001     C   56761 54498
 =C'resent-'
               7 00009D64 00000001     C   56758 54435
 =C'sender '
               7 00009D6B 00000001     C   56759 54459
 =C'spec'      4 0000A6D8 00000001     C   59202 56998
 =C'subject '
               8 00009CE0 00000001     C   56728 54604
 =C'to '       3 00009D80 00000001     C   56762 54539
 =C'with ";" or "\".'
              16 000094C8 00000001     C   54038 52283
 =C'word'      4 00009D04 00000001     C   56735 54391  55140  55196  56016  56224  56322
 =C'word'      4 0000A6D4 00000001     C   59201 56965
 =C'AUTH'      4 00007B9C 00000001     C   45896 44618
 =C'Both (if any) active file numbers must be used.'
              47 00000F60 00000001     C   12139 11559
 =C'Both (if any) active file numbers must be used.'
              47 00003DC4 00000001     C   28525 27899
 =C'BAD HEX DIGITS FOR ATTNCHAR'
              27 00006C40 00000001     C   41620 38188
 =C'BAD UPDATE COUNT'
              16 00001A08 00000001     C   16300 15429
 =C'BAD UPDATE COUNT'
              16 000025E0 00000001     C   20088 19421
 =C'COUNT EXHAUSTED'
              15 00006C27 00000001     C   41617 37268
 =C'COUNT EXHAUSTED'
              15 000083C3 00000001     C   48231 47345
 =C'CRLF '
               5 0000548E 00000001     C   34704 34357  34505
 =C'DATA WAITING'
              12 00008CB8 00000001     C   50949 48527
 =C'DWA'       3 00001AC6 00000001     C   16337 12251
 =C'EOF'       3 00004AA0 00000001     C   32054 28951
 =C'EOF'       3 00005C78 00000001     C   37059 36128
 =C'EOF'       3 000083AD 00000001     C   48229 47252
1PROC     (PROC2193) (12:51) (15MAR04) Ordinary Symbol and Literal Cross Reference                                          Page  327
 =C'ERROR ACCESSING ARRAY'
              21 00002691 00000001     C   20116 19560
 =C'ERROR CONVERTING LIST TO ARRAY'
              30 0000219E 00000001     C   18524 18150
 =C'ERROR'
               5 00001AE1 00000001     C   16342 13399  14423  15628
 =C'ERROR'
               5 00001D8E 00000001     C   17075 16767
 =C'ERROR'
               5 000021DB 00000001     C   18530 17962
 =C'ERROR'
               5 000026B4 00000001     C   20119 19719
 =C'ERROR'
               5 00009D86 00000001     C   56764 54746
 =C'FILE_EOF:       '
              16 000033C8 00000001     C   25707 24669
 =C'FILE_WRITE:     '
              16 000033B8 00000001     C   25706 24575
 =C'Header scan error - Scan pointer is at column '
              46 0000A742 00000001     C   59223 58505
 =C'I/O ERROR'
               9 00001AF9 00000001     C   16344 13470  14494  15699
 =C'I/O ERROR'
               9 00001DA6 00000001     C   17077 16838
 =C'I/O ERROR'
               9 000021F3 00000001     C   18532 18033
 =C'I/O ERROR'
               9 000026CC 00000001     C   20121 19790
 =C'Internal logic error in COMPARE_LINES.  Oh no !'
              47 0000B65C 00000001     C   64830 63513
 =C'Invalid SCAN_MAILHDR option'
              27 0000A781 00000001     C   59226 59148
 =C'INIT '
               5 00003733 00000001     C   26595 25970
 =C'INVALID ARGUMENT'
              16 000036C0 00000001     C   26574 26420
 =C'INVALID INDATA OPTION'
              21 00005496 00000001     C   34706 34424
 =C'INVALID LINE-NUMBER'
              19 00006C14 00000001     C   41616 37194
 =C'INVALID LINE-NUMBER'
              19 000083B0 00000001     C   48230 47286
 =C'INVALID OPTION'
              14 00001AB4 00000001     C   16334 13511  14743  15818
 =C'INVALID OPTION'
              14 00004A72 00000001     C   32047 28975  29605
 =C'INVALID OPTION'
              14 00005460 00000001     C   34699 32367
 =C'INVALID OPTION'
              14 00005C58 00000001     C   37054 35206  36191
 =C'INVALID OPTION'
              14 00006BEE 00000001     C   41609 37565  38182  39025  39637  40567
 =C'INVALID OPTION'
              14 00007BAA 00000001     C   45901 42053  42633  44649
 =C'INVALID OPTION'
              14 00008394 00000001     C   48225 46404  47364
 =C'INVALID OPTION'
              14 00008D36 00000001     C   50975 48538  49203  50067
 =C'INVALID OUTDATA OPTION'
1PROC     (PROC2193) (12:51) (15MAR04) Ordinary Symbol and Literal Cross Reference                                          Page  328
              22 00005470 00000001     C   34701 34572
 =C'K'         1 00001D8D 00000001     C   17074 16729
 =C'K'         1 000021DA 00000001     C   18529 17944
 =C'K'         1 000026B3 00000001     C   20118 19631  19674
 =C'KEY IS TOO LONG'
              15 00001AD1 00000001     C   16340 13272  14322  15358
 =C'KEY IS WRONG LENGTH'
              19 00001D7A 00000001     C   17073 16675
 =C'KEY IS WRONG LENGTH'
              19 000021C7 00000001     C   18528 17861
 =C'KEY IS WRONG LENGTH'
              19 0000267E 00000001     C   20115 19352
 =C'KEYS FILE IS FULL'
              17 00001B33 00000001     C   16348 15803
 =C'KEYS FILE IS NOT AVAILABLE'
              26 00001A9A 00000001     C   16333 13420  14444  15649
 =C'KLOGIN FILE IS FULL'
              19 000026FF 00000001     C   20124 19894
 =C'KLOGIN FILE IS NOT AVAILABLE'
              28 00001D44 00000001     C   17066 16788
 =C'KLOGIN FILE IS NOT AVAILABLE'
              28 0000215C 00000001     C   18515 17983
 =C'KLOGIN FILE IS NOT AVAILABLE'
              28 00002634 00000001     C   20103 19740
 =C'KLOGIN RECORD TOO LARGE'
              23 000021FC 00000001     C   18533 18095
 =C'Line: '
               6 0000952E 00000001     C   54061 52338
 =C'LF '       3 00005493 00000001     C   34705 34393  34541
 =C'LIST '
               5 00003738 00000001     C   26596 26006
 =C'LIST IS EMPTY'
              13 000026A6 00000001     C   20117 19583
 =C'MISSING OPTION'
              14 00004A88 00000001     C   32050 29554
 =C'MISSING OPTION'
              14 00007BC0 00000001     C   45904 42627
 =C'MYTAG/YOURTAG OPTION REQUIRED'
              29 00007BDD 00000001     C   45909 44588
 =C'No lines in range.'
              18 00000F4E 00000001     C   12138 11714  11757
 =C'No lines in range.'
              18 00003DB2 00000001     C   28524 28054  28097
 =C'No mail header'
              14 0000A734 00000001     C   59222 58472
 =C'Not yet'
               7 0000AFC3 00000001     C   62538 62472
 =C'NO PARTNER'
              10 00008D1E 00000001     C   50973 48477
 =C'NOT FOUND'
               9 00003011 00000001     C   24387 21079  21805  22533  23261  23989
 =C'NOT YET'
               7 00006C39 00000001     C   41619 37559
 =C'NWA'       3 00004A98 00000001     C   32052 28759  29315
 =C'NWA'       3 00005486 00000001     C   34702 32125
 =C'NWA'       3 00005C6E 00000001     C   37057 34777  35733
 =C'NWA'       3 00006C36 00000001     C   41618 37407  37905  38838  39365  40234  41359
 =C'OK NONL'
               7 00005C71 00000001     C   37058 35196
1PROC     (PROC2193) (12:51) (15MAR04) Ordinary Symbol and Literal Cross Reference                                          Page  329
 =C'OK'        2 00001A8C 00000001     C   16330 12628  13380  14737  15610  16145
 =C'OK'        2 00001D76 00000001     C   17071 16748
 =C'OK'        2 000021BC 00000001     C   18525 18322
 =C'OK'        2 0000267A 00000001     C   20113 19701
 =C'OK'        2 00003004 00000001     C   24384 20332  20822  21548  22276  23004  23732  24281
 =C'OK'        2 0000372C 00000001     C   26593 26426
 =C'OK'        2 00004A70 00000001     C   32046 28969  29564  29628  29635  29736
 =C'OK'        2 00005C56 00000001     C   37053 35174
 =C'OK'        2 00006C10 00000001     C   41614 39628  40556
 =C'OK'        2 00007BA8 00000001     C   45900 42042  42658  42759
 =C'OK'        2 00008392 00000001     C   48224 46398
 =C'OK'        2 00008D4E 00000001     C   50979 49193  50057
 =C'OK'        2 00009D60 00000001     C   56756 54726
 =C'OK'        2 0000AFA0 00000001     C   62530 59649
 =C'PARTNER CLOSED'
              14 00008D28 00000001     C   50974 48502
 =C'PATH'      4 00007B50 00000001     C   45877 41897
 =C'PRIVILEGED'
              10 00001A90 00000001     C   16332 13224  14274  15310
 =C'PRIVILEGED'
              10 00001D6C 00000001     C   17070 16627
 =C'PRIVILEGED'
              10 00002194 00000001     C   18523 17813
 =C'PRIVILEGED'
              10 0000266E 00000001     C   20111 19304
 =C'PWA'       3 00007BD0 00000001     C   45906 41834  42392  44429
 =C'PWA'       3 000083AA 00000001     C   48228 45979  46930
 =C'PWA'       3 00008D56 00000001     C   50981 48301  48877  49729  50812
 =C'Record group empty'
              18 00003710 00000001     C   26591 26195
 =C'Remote procedure did not end response line '
              43 00009574 00000001     C   54069 52265
 =C'READY'
               5 00008D59 00000001     C   50982 48457
 =C'RECORD ALREADY EXISTS'
              21 00001B1E 00000001     C   16347 15777
 =C'RECORD ALREADY EXISTS'
              21 000026EA 00000001     C   20123 19868
 =C'RECORD FORMAT ERROR'
              19 00001AE6 00000001     C   16343 13445  14469  15674
 =C'RECORD FORMAT ERROR'
              19 00001D93 00000001     C   17076 16813
 =C'RECORD FORMAT ERROR'
              19 000021E0 00000001     C   18531 18008
 =C'RECORD FORMAT ERROR'
              19 000026B9 00000001     C   20120 19765
 =C'RECORD NOT FOUND'
              16 000019F8 00000001     C   16299 13496  14520  15725
 =C'RECORD NOT FOUND'
              16 00001D18 00000001     C   17058 16864
 =C'RECORD NOT FOUND'
              16 00002118 00000001     C   18501 18059
 =C'RECORD NOT FOUND'
              16 000025F0 00000001     C   20089 19816
 =C'\ '        2 00003A0E 00000001     C   27727 27498
 =C'\|'        2 00009536 00000001     C   54063 52589
 =C'Token scanned: '
              15 0000A772 00000001     C   59225 57038
 =C'THIS IS A STRING'
1PROC     (PROC2193) (12:51) (15MAR04) Ordinary Symbol and Literal Cross Reference                                          Page  330
              16 0000AF20 00000001     C   62503 59332
 =C'U'         1 00001AE0 00000001     C   16341 13361  14405  15537  15591
 =C'Unexpected null line (expecting ";" or "\")'
              43 00009549 00000001     C   54068 52030
 =C'UNET'      4 00006BDC 00000001     C   41604 41402
 =C'UPDATE COUNT MISMATCH'
              21 00001B09 00000001     C   16346 15751
 =C'UPDATE COUNT MISMATCH'
              21 000026D5 00000001     C   20122 19842
 =C'WINGS file format error.'
              24 000033D8 00000001     C   25708 24792
 =C'WINGS path error.  Unable to send file.'
              39 00003472 00000001     C   25735 25586  25616
 =C'WINGS protocol error.'
              21 0000345D 00000001     C   25734 24679
 =C'XPUT ERROR'
              10 00003722 00000001     C   26592 26406
 =C'000'       3 0000373D 00000001     C   26597 26338
 =C'0000'      4 000036FC 00000001     C   26586 26287
 =C'01S'       3 0000AFAB 00000001     C   62534 59540
 =C'1II'       3 0000345A 00000001     C   25733 24489  25015
 =C'11I'       3 00001AC9 00000001     C   16338 12817
 =C'12SS'      4 00001D28 00000001     C   17059 16457
 =C'12SS'      4 0000AF50 00000001     C   62510 59808
 =C'13ISS'
               5 00004A9B 00000001     C   32053 28772
 =C'13ISS'
               5 00007BD3 00000001     C   45907 41847
 =C'13SSI'
               5 0000300C 00000001     C   24386 20184
 =C'13SSI'
               5 0000AFBE 00000001     C   62537 61667
 =C'13SSS'
               5 00000C20 00000001     C   11384  9901
 =C'13SSS'
               5 00001ACC 00000001     C   16339 12977
 =C'13SSS'
               5 0000372E 00000001     C   26594 25845
 =C'14ISIS'
               6 00005C68 00000001     C   37056 35746
 =C'14ISIS'
               6 00006BFE 00000001     C   41611 37918  40247
 =C'14ISIS'
               6 000083A4 00000001     C   48227 46943
 =C'14ISIS'
               6 00008D50 00000001     C   50980 49742
 =C'152'       3 00009545 00000001     C   54066 51994  52229  52302
 =C'22IS'      4 0000AF5C 00000001     C   62513 60078  60599
 =C'22WS'      4 000039D0 00000001     C   27709 26786
 =C'22WW'      4 000094EC 00000001     C   54044 51713
 =C'23ISS'
               5 00005489 00000001     C   34703 32138
 =C'23ISS'
               5 00007BD8 00000001     C   45908 44442
 =C'23ISS'
               5 0000AFAE 00000001     C   62535 60327  60848
 =C'23ISSS'
               6 00006BE4 00000001     C   41606 37420
 =C'23ISSS'
1PROC     (PROC2193) (12:51) (15MAR04) Ordinary Symbol and Literal Cross Reference                                          Page  331
               6 00008D14 00000001     C   50970 48314
 =C'24ISSS'
               6 00004A82 00000001     C   32049 29328
 =C'24ISSS'
               6 00007BBA 00000001     C   45903 42405
 =C'24SXIS'
               6 00002668 00000001     C   20110 19134
 =C'24WSSI'
               6 00003006 00000001     C   24385 20503  21229  21957  22685  23413  24128
 =C'24WWII'
               6 00000F48 00000001     C   12137 11497
 =C'24WWII'
               6 00003DAC 00000001     C   28523 27837
 =C'25SSSIS'
               7 00001B02 00000001     C   16345 13838  15063
 =C'25SSSSS'
               7 0000959F 00000001     C   54070 52951  53538
 =C'25SSSSS'
               7 0000B1B2 00000001     C   63141 62635
 =C'28ISSSSSSSS'
              11 0000953A 00000001     C   54065 51077
 =C'29SSSSSSSSS'
              11 0000AFB3 00000001     C   62536 61250
 =C'33SNB'
               5 0000AFA6 00000001     C   62533 59283
 =C'34ISIS'
               6 00006C04 00000001     C   41612 38851
 =C'34ISSS'
               6 00005C4C 00000001     C   37050 34790
 =C'34ISSS'
               6 00006C0A 00000001     C   41613 39378
 =C'34ISSS'
               6 00008388 00000001     C   48221 45992
 =C'34ISSS'
               6 00008D46 00000001     C   50977 48890
 =C'35SXIIS'
               7 000021C0 00000001     C   18527 17392
 =C'44ISWS'
               6 00009D50 00000001     C   56754 54274
 =C'44WWWI'
               6 00000C18 00000001     C   11382  9468  11281
 =C'46SSSSSS'
               8 000019F0 00000001     C   16298 12259
 =CL16'FILE_READ:      '
              16 000033F0 00000001     C   25709 25104
 =CL19'name'
              19 00009D8F 00000001     C   56767 55774
 =CL8'ABORT'
               8 00004A18 00000001     C   32024 30592
 =CL8'EOF'
               8 00004A10 00000001     C   32023 30525
 =F'-1'        4 00001A50 00000001     F   16315 14026
 =F'-1'        4 0000213C 00000001     F   18507 17642
 =F'-1000'
               4 00000C10 00000001     F   11380 10895  11315
 =F'-1000'
               4 00000F3C 00000001     F   12134 11917  11918
 =F'-1000'
               4 00002FEC 00000001     F   24378 20921  21647  22375  23103  23831
1PROC     (PROC2193) (12:51) (15MAR04) Ordinary Symbol and Literal Cross Reference                                          Page  332
 =F'-1000'
               4 00003DA4 00000001     F   28521 28341  28342
 =F'-1000'
               4 00004A68 00000001     F   32043 31857
 =F'-1000'
               4 0000B644 00000001     F   64824 64005  64006  64645
 =F'-4'        4 00000F20 00000001     F   12127 11784  11791  11798  11805  12068  12072  12076  12080
 =F'-4'        4 00003D88 00000001     F   28514 28124  28131  28138  28145  28457  28461  28465  28469
 =F'-4'        4 00009510 00000001     F   54053 52603  52652
 =F'0'         4 00002130 00000001     F   18504 17558
 =F'1'         4 00000F34 00000001     F   12132 11853  11875
 =F'123'       4 0000AF34 00000001     F   62505 59412
 =F'2'         4 000094D8 00000001     F   54039 51072
 =F'23'        4 00005428 00000001     F   34684 32199
 =H'0'         2 00002340 00000001     H   19051 18762
 =H'1'         2 00001AC4 00000001     H   16336 15522
 =H'1'         2 00002678 00000001     H   20112 19628
 =H'2'         2 00003A08 00000001     H   27724 27221
 =V(BADARG)
               4 00000F0C 00000001     V   12122 11582  11634  11669
 =V(BADARG)
               4 0000212C 00000001     V   18503 17471  17504
 =V(BADARG)
               4 00002610 00000001     V   20094 19491  19524
 =V(BADARG)
               4 00002FDC 00000001     V   24374 20577  21303  22031  22759  23487
 =V(BADARG)
               4 00003D74 00000001     V   28509 27922  27974  28009
 =V(BADARG)
               4 0000AF78 00000001     V   62520 61310
 =V(BSEARCH)
               4 00000640 00000001     V    9338  8676
 =V(BSINIT)
               4 0000063C 00000001     V    9337  8583
 =V(BTD)       4 00003704 00000001     V   26588 26336
 =V(BTD)       4 00009D44 00000001     V   56751 55847  55892
 =V(BTD)       4 0000A70C 00000001     V   59215 58539
 =V(BTDZEROS)
               4 00003448 00000001     V   25728 25364
 =V(BTR)       4 00009D40 00000001     V   56750 55826  55871
 =V(CVEXNO)
               4 00000C04 00000001     V   11377 10604  10650  10696
 =V(DTB)       4 00003700 00000001     V   26587 26311
 =V(ENDLNO)
               4 00000C14 00000001     V   11381 10917
 =V(ENDLNO)
               4 00005C20 00000001     V   37039 35804
 =V(ENDLNO)
               4 00008368 00000001     V   48213 46989
 =V(GETARRAY)
               4 00002338 00000001     V   19049 18720  18868
 =V(GETCORE)
               4 00000630 00000001     V    9334  8567
 =V(GETHEAP)
               4 00002150 00000001     V   18512 17919
 =V(GETHEAP)
               4 0000233C 00000001     V   19050 18807
 =V(GETHEAP)
               4 00003420 00000001     V   25718 25057
1PROC     (PROC2193) (12:51) (15MAR04) Ordinary Symbol and Literal Cross Reference                                          Page  333
 =V(GETHEAP)
               4 00008CD0 00000001     V   50953 49030  49951
 =V(GETLINE)
               4 000039DC 00000001     V   27712 26864  27384
 =V(GETLINE)
               4 000094FC 00000001     V   54048 51852
 =V(GETUID)
               4 0000AF48 00000001     V   62508 59574
 =V(GTFRST)
               4 00000F14 00000001     V   12124 11697  11740
 =V(GTFRST)
               4 00002FE0 00000001     V   24375 20626
 =V(GTFRST)
               4 00003D7C 00000001     V   28511 28037  28080
 =V(GTFRST)
               4 0000B654 00000001     V   64828 64559
 =V(GTINTVAL)
               4 00003410 00000001     V   25714 24775
 =V(GTLAST)
               4 00002FF4 00000001     V   24380 22080
 =V(GTLINE)
               4 00002FF0 00000001     V   24379 21352
 =V(GTNEXT)
               4 00002FF8 00000001     V   24381 22808
 =V(GTNEXT)
               4 0000A700 00000001     V   59212 57876
 =V(GTNEXT)
               4 0000B658 00000001     V   64829 64718
 =V(GTPREV)
               4 00002FFC 00000001     V   24382 23536
 =V(KEYADD)
               4 00001A74 00000001     V   16324 15540
 =V(KEYADD)
               4 00002620 00000001     V   20098 19634
 =V(KEYDEL)
               4 00001A38 00000001     V   16309 13364
 =V(KEYDEL)
               4 00001D3C 00000001     V   17064 16732
 =V(KEYGET)
               4 00001A60 00000001     V   16319 14408
 =V(KEYGET)
               4 00002154 00000001     V   18513 17947
 =V(KEYPUT)
               4 00001A7C 00000001     V   16326 15594
 =V(KEYPUT)
               4 00002628 00000001     V   20100 19677
 =V(LOCALTOD)
               4 00001A70 00000001     V   16323 15502
 =V(LOCALTOD)
               4 0000261C 00000001     V   20097 19606
 =V(LRTRIM)
               4 00001A30 00000001     V   16307 13251  14301  15337
 =V(LRTRIM)
               4 00001D34 00000001     V   17062 16654
 =V(LRTRIM)
               4 00002144 00000001     V   18509 17840
 =V(LRTRIM)
               4 00002608 00000001     V   20092 19331
 =V(LRTRIM)
1PROC     (PROC2193) (12:51) (15MAR04) Ordinary Symbol and Literal Cross Reference                                          Page  334
               4 000039E8 00000001     V   27715 27125  27195  27308  27461
 =V(LRTRIM)
               4 00004A58 00000001     V   32039 29859
 =V(LRTRIM)
               4 00007B88 00000001     V   45891 42785
 =V(LRTRIM)
               4 00009D48 00000001     V   56752 56654
 =V(MAKEITOD)
               4 00000BE0 00000001     V   11368  9669
 =V(MAKEITOD)
               4 00001A54 00000001     V   16316 14031  14711
 =V(MAKEITOD)
               4 00002134 00000001     V   18505 17563  17647  18211  18296
 =V(MAKEITOD)
               4 00004A50 00000001     V   32037 29704
 =V(MAKEITOD)
               4 00005448 00000001     V   34692 32590
 =V(MAKEITOD)
               4 00005C40 00000001     V   37047 36389
 =V(MAKEITOD)
               4 00006BD8 00000001     V   41603 40765
 =V(MAKEITOD)
               4 00007B84 00000001     V   45890 42727  44855
 =V(MAKEITOD)
               4 0000837C 00000001     V   48218 47562
 =V(MAKEITOD)
               4 00008D0C 00000001     V   50968 50265
 =V(MAKEITOD)
               4 0000AF38 00000001     V   62506 59417  62012
 =V(MAKELTOD)
               4 00000BDC 00000001     V   11367  9525   9573   9621
 =V(MAKELTOD)
               4 00000F44 00000001     V   12136 12001  12049
 =V(MAKELTOD)
               4 00002FE4 00000001     V   24376 20762  20926  21488  21652  22216  22380  22944  23108  23672  23836
 =V(MAKELTOD)
               4 00003DA8 00000001     V   28522 28390  28438
 =V(MAKELTOD)
               4 00004A54 00000001     V   32038 29805
 =V(MAKELTOD)
               4 00009D14 00000001     V   56739 54714
 =V(MARKHEAP)
               4 0000214C 00000001     V   18511 17913
 =V(MARKHEAP)
               4 00002614 00000001     V   20095 19536
 =V(NDETRNG)
               4 00003434 00000001     V   25723 25131
 =V(NDETRNG)
               4 00006BC4 00000001     V   41598 40450  41122
 =V(NDETRNG)
               4 00008CF8 00000001     V   50963 49939  50607
 =V(NPATALLO)
               4 00005424 00000001     V   34683 32173
 =V(NPATCLS)
               4 00004A38 00000001     V   32031 28965
 =V(NPATCLS)
               4 00005444 00000001     V   34691 32537
 =V(NPATCTRL)
               4 00004A34 00000001     V   32030 28955  29587
1PROC     (PROC2193) (12:51) (15MAR04) Ordinary Symbol and Literal Cross Reference                                          Page  335
 =V(NPATGET)
               4 00004A24 00000001     V   32026 28797  29354
 =V(NPATGET)
               4 00005C08 00000001     V   37033 34942  35774
 =V(NPATGET)
               4 00006B78 00000001     V   41579 37446  37944  38877  39404  40273
 =V(NPATOPEN)
               4 0000543C 00000001     V   34689 32344
 =V(NPATREAD)
               4 00005C14 00000001     V   37036 35057  35989
 =V(NPATTALK)
               4 00006B98 00000001     V   41587 38176
 =V(NPATVIEW)
               4 00006BAC 00000001     V   41592 39019
 =V(NSCAN)
               4 00000BE8 00000001     V   11370 10004  10067
 =V(NSCAN)
               4 00001A2C 00000001     V   16306 13176  14226  15262
 =V(NSCAN)
               4 00004A30 00000001     V   32029 28893  29438
 =V(NSCAN)
               4 00005430 00000001     V   34686 32260
 =V(NSCAN)
               4 00005C10 00000001     V   37035 35020  35897
 =V(NSCAN)
               4 00006B80 00000001     V   41581 37523  38040  38973  39482  40400
 =V(NSCAN)
               4 00007B5C 00000001     V   45880 41985  42509  44539
 =V(NSCAN)
               4 00008358 00000001     V   48209 46210  47081
 =V(NSCAN)
               4 00008CB0 00000001     V   50947 48413  48990  49889
 =V(NSCAN)
               4 0000A728 00000001     V   59218 58791
 =V(NSCAN)
               4 0000AF94 00000001     V   62527 61755
 =V(NSCANSTR)
               4 00004A60 00000001     V   32041 31100
 =V(NSCANSTR)
               4 0000544C 00000001     V   34693 33194  33977
 =V(PATHALLO)
               4 00007B94 00000001     V   45894 44472
 =V(PATHCLS)
               4 00007B60 00000001     V   45881 42026  44802
 =V(PATHGET)
               4 00003404 00000001     V   25711 24523  25049
 =V(PATHGET)
               4 00007B4C 00000001     V   45876 41872  42431
 =V(PATHGET)
               4 00008350 00000001     V   48207 46144  46971
 =V(PATHGET)
               4 00008CA4 00000001     V   50944 48340  48916  49768
 =V(PATHINFO)
               4 00007B68 00000001     V   45883 42448
 =V(PATHOPEN)
               4 00007BA0 00000001     V   45897 44626
 =V(PATHRDCK)
               4 00008CB4 00000001     V   50948 48450
 =V(PATHREAD)
1PROC     (PROC2193) (12:51) (15MAR04) Ordinary Symbol and Literal Cross Reference                                          Page  336
               4 00003408 00000001     V   25712 24531  24622
 =V(PATHREAD)
               4 0000835C 00000001     V   48210 46247  47118
 =V(PATHSEG)
               4 00008CD8 00000001     V   50955 49057  49978
 =V(PATHWRIT)
               4 00003454 00000001     V   25731 25599
 =V(PTAPPEND)
               4 00002FD0 00000001     V   24371 20270
 =V(PTAPPEND)
               4 0000A708 00000001     V   59214 58353
 =V(PTLINE)
               4 00003000 00000001     V   24383 24219
 =V(PUTLINE)
               4 00003418 00000001     V   25716 24804
 =V(PUTLINE)
               4 00006B70 00000001     V   41577 37216
 =V(PUTLINE)
               4 00008378 00000001     V   48217 47296
 =V(QFETLINE)
               4 000094E0 00000001     V   54041 51102
 =V(QSERVSEG)
               4 0000AF80 00000001     V   62522 61395
 =V(RDRNG)
               4 00003440 00000001     V   25726 25146
 =V(RDRNG)
               4 00006BD0 00000001     V   41601 40465
 =V(RDRNG)
               4 00008D04 00000001     V   50966 49998
 =V(RELHEAP)
               4 00002188 00000001     V   18520 18091  18146  18161
 =V(RELHEAP)
               4 0000262C 00000001     V   20101 19695
 =V(ROWGET)
               4 0000AF60 00000001     V   62514 60127
 =V(ROWPUT)
               4 0000AF64 00000001     V   62515 60379
 =V(RTRIM)
               4 00006BBC 00000001     V   41596 39594  40522
 =V(RTRIM)
               4 00008374 00000001     V   48216 47145
 =V(RTRIM)
               4 0000AF98 00000001     V   62528 61885
 =V(SAMDIALG)
               4 00001A20 00000001     V   16303 12511
 =V(SAVEVAR)
               4 00001E54 00000001     V   17319 17255
 =V(SCANCHK)
               4 00000BEC 00000001     V   11371 10018  10081
 =V(SCANPARM)
               4 00009528 00000001     V   54059 53699
 =V(SCANSTR)
               4 00009520 00000001     V   54057 53112
 =V(SCDQUOTE)
               4 00005C44 00000001     V   37048 36902
 =V(SCDQUOTE)
               4 00008380 00000001     V   48219 48076
 =V(SEG)       4 00000C08 00000001     V   11378 10627  10644  10673  10690  10719  10736
 =V(SEG)       4 00000F18 00000001     V   12125 11726  11769
1PROC     (PROC2193) (12:51) (15MAR04) Ordinary Symbol and Literal Cross Reference                                          Page  337
 =V(SEG)       4 0000344C 00000001     V   25729 25391
 =V(SEG)       4 000039E4 00000001     V   27714 26953  26982  27280  27335  27523
 =V(SEG)       4 00003D80 00000001     V   28512 28066  28109
 =V(SEG)       4 00006BB4 00000001     V   41594 39544  41447  41513
 =V(SEG)       4 00008CE0 00000001     V   50957 49114  49141  50858  50883
 =V(SEG)       4 00009508 00000001     V   54051 52006  52024  52156  52241  52259  52277  52314  52332  52350  52731
 =V(SEG)       4 0000A6E4 00000001     V   59205 57050  58517  58563  58597  58625
 =V(SEG)       4 0000AF88 00000001     V   62524 61455
 =V(SEGCLR)
               4 00006BD4 00000001     V   41602 40479
 =V(SEGCLR)
               4 00008D08 00000001     V   50967 50012
 =V(SEGCOL)
               4 000039F0 00000001     V   27717 27303
 =V(SEGCR)
               4 00000F08 00000001     V   12121 11571
 =V(SEGCR)
               4 000036EC 00000001     V   26582 26165  26207
 =V(SEGCR)
               4 00003D70 00000001     V   28508 27911
 =V(SEGCR)
               4 00009504 00000001     V   54050 51984  52042  52223  52295  52378  52789
 =V(SEGCR)
               4 0000A6E8 00000001     V   59206 57078  58052  58484  58654  59160
 =V(SEGDC)
               4 00000C0C 00000001     V   11379 10758
 =V(SEGINIT)
               4 00000C00 00000001     V   11376 10598
 =V(SEGINIT)
               4 00003428 00000001     V   25720 25084
 =V(SEGINIT)
               4 000039D8 00000001     V   27711 26844
 =V(SEGINIT)
               4 00005C2C 00000001     V   37042 35958
 =V(SEGINIT)
               4 00008CD4 00000001     V   50954 49053  49974
 =V(SEGINIT)
               4 000094F0 00000001     V   54045 51782
 =V(SEGINIT)
               4 0000AF7C 00000001     V   62521 61391
 =V(SEGINITR)
               4 00003430 00000001     V   25722 25099
 =V(SEGINITR)
               4 00005C34 00000001     V   37044 35973
 =V(SEGINITR)
               4 00008CDC 00000001     V   50956 49068  49989
 =V(SEGINITR)
               4 000094F8 00000001     V   54047 51797
 =V(SEGINITR)
               4 0000AF84 00000001     V   62523 61406
 =V(SEGMARK)
               4 00003450 00000001     V   25730 25404
 =V(SEGMARK)
               4 00006BE0 00000001     V   41605 41530
 =V(SEGMARK)
               4 00008D10 00000001     V   50969 50896
 =V(SEGT)      4 000039FC 00000001     V   27720 27496
 =V(SEGT)      4 00005C38 00000001     V   37045 36017
 =V(SEGTB)
1PROC     (PROC2193) (12:51) (15MAR04) Ordinary Symbol and Literal Cross Reference                                          Page  338
               4 000036E8 00000001     V   26581 26137
 =V(SEGWR)
               4 00003444 00000001     V   25727 25172
 =V(SEGWR)
               4 00005C3C 00000001     V   37046 36164
 =V(SEGWR)
               4 00006BB8 00000001     V   41595 39568  40504
 =V(SEGWR)
               4 00008CE4 00000001     V   50958 49173  50037
 =V(SEGWR)
               4 00009500 00000001     V   54049 51926  52103  52198
 =V(SEGWR)
               4 0000AF8C 00000001     V   62525 61491  61927
 =V(SETARGS)
               4 00000BD8 00000001     V   11366  9472   9905  11285
 =V(SETARGS)
               4 00000F00 00000001     V   12119 11501
 =V(SETARGS)
               4 00001A18 00000001     V   16301 12263  12821  12981  13842  15067
 =V(SETARGS)
               4 00001D2C 00000001     V   17060 16461
 =V(SETARGS)
               4 00002128 00000001     V   18502 17396
 =V(SETARGS)
               4 00002600 00000001     V   20090 19138
 =V(SETARGS)
               4 00002FC8 00000001     V   24369 20188  20507  21233  21961  22689  23417  24132
 =V(SETARGS)
               4 00003400 00000001     V   25710 24493  25019
 =V(SETARGS)
               4 000036D0 00000001     V   26575 25849
 =V(SETARGS)
               4 000039D4 00000001     V   27710 26790
 =V(SETARGS)
               4 00003D68 00000001     V   28506 27841
 =V(SETARGS)
               4 00004A20 00000001     V   32025 28776  29332
 =V(SETARGS)
               4 00005420 00000001     V   34682 32142
 =V(SETARGS)
               4 00005C00 00000001     V   37031 34794  35750
 =V(SETARGS)
               4 00006B74 00000001     V   41578 37424  37922  38855  39382  40251
 =V(SETARGS)
               4 00007B48 00000001     V   45875 41851  42409  44446
 =V(SETARGS)
               4 00008348 00000001     V   48205 45996  46947
 =V(SETARGS)
               4 00008CA0 00000001     V   50943 48318  48894  49746
 =V(SETARGS)
               4 000094DC 00000001     V   54040 51081  51717  52955  53542
 =V(SETARGS)
               4 00009CF0 00000001     V   56730 54278
 =V(SETARGS)
               4 0000AF30 00000001     V   62504 59287  59544  59812  60082  60331  60603  60852  61254  61671
 =V(SETARGS)
               4 0000B198 00000001     V   63134 62639
 =V(SQSHRTN)
               4 000039F4 00000001     V   27718 27312  27465
1PROC     (PROC2193) (12:51) (15MAR04) Ordinary Symbol and Literal Cross Reference                                          Page  339
 =V(VIEWXCMD)
               4 0000AF54 00000001     V   62511 59858
 =V(VSTRING)
               4 00001E50 00000001     V   17318 17238
 =V(WINDGET)
               4 0000AF6C 00000001     V   62517 60648
 =V(WINDPUT)
               4 0000AF70 00000001     V   62518 60900
 =V(XDELSET)
               4 000036DC 00000001     V   26578 25985
 =V(XGETFRST)
               4 000036E0 00000001     V   26579 26068
 =V(XGETLAST)
               4 000036F8 00000001     V   26585 26270
 =V(XGETNEXT)
               4 000036E4 00000001     V   26580 26087
 =V(XPUT)      4 00003708 00000001     V   26589 26388
 =V(XSCANSTR)
               4 0000B1A8 00000001     V   63138 62796
 =V(XSETSET)
               4 000036D8 00000001     V   26577 25980  26026  26248  26345
 =V(XTB)       4 00006BA0 00000001     V   41589 38623
 =X'FD000000'
               4 00000F2C 00000001     X   12130 11846
 =X'FD000000'
               4 00003D94 00000001     X   28517 28161  28273
 =X'FE000000'
               4 00000F38 00000001     X   12133 11868
 =X'FE000000'
               4 00003D9C 00000001     X   28519 28180  28292
 =X'0D25'      2 00006C12 00000001     X   41615 41466
 =X'0000'      2 00008D4C 00000001     X   50978 49096
 =X'00000000000000000000000C'
              12 0000AF3C 00000001     X   62507 59457
 =X'05'        1 00009548 00000001     X   54067 52012  52247  52320
 =X'25'        1 00006C5B 00000001     X   41621 41486
 =X'40000000'
               4 00000644 00000001     X    9339  8892
 =Y((L'NSCNCB+3)/4*4)
               2 00001AC2 00000001     Y   16335 13652  14884  15959
 =Y((L'NSCNCB+3)/4*4)
               2 00001D78 00000001     Y   17072 17012
 =Y((L'NSCNCB+3)/4*4)
               2 000021BE 00000001     Y   18526 18462
 =Y((L'NSCNCB+3)/4*4)
               2 0000267C 00000001     Y   20114 20042
 =Y((L'NSCNCB+3)/4*4)
               2 00003458 00000001     Y   25732 25137
 =Y((L'NSCNCB+3)/4*4)
               2 00004A80 00000001     Y   32048 29116  30120
 =Y((L'NSCNCB+3)/4*4)
               2 0000546E 00000001     Y   34700 32619
 =Y((L'NSCNCB+3)/4*4)
               2 00005C66 00000001     Y   37055 35347  36422
 =Y((L'NSCNCB+3)/4*4)
               2 00006BFC 00000001     Y   41610 37706  38329  39166  39778  40798
 =Y((L'NSCNCB+3)/4*4)
               2 00007BB8 00000001     Y   45902 42194  43046  44884
 =Y((L'NSCNCB+3)/4*4)
1PROC     (PROC2193) (12:51) (15MAR04) Ordinary Symbol and Literal Cross Reference                                          Page  340
               2 000083A2 00000001     Y   48226 46545  47595
 =Y((L'NSCNCB+3)/4*4)
               2 00008D44 00000001     Y   50976 48679  49344  50298
 =Y((L'NSCNCB+3)/4*4)
               2 0000AFA4 00000001     Y   62532 62045
 =Y((R1+1-(R0)+16*((R0)/(R1+1))/((R0)/(R1+1)))*4)
               2 00003A04 00000001     Y   27722 27069  27217  27500
 =Y((R1+1-(R0)+16*((R0)/(R1+1))/((R0)/(R1+1)))*4)
               2 00009534 00000001     Y   54062 52353  52654
 =Y((R3+1-(R2)+16*((R2)/(R3+1))/((R2)/(R3+1)))*4)
               2 00004A96 00000001     Y   32051 29728  29829  29968
 =Y((R3+1-(R2)+16*((R2)/(R3+1))/((R2)/(R3+1)))*4)
               2 00007BCE 00000001     Y   45905 42751  42894
 =Y((12+3)/4*4)
               2 00000C1E 00000001     Y   11383 10010  10073
 =Y((12+3)/4*4)
               2 00001A8E 00000001     Y   16331 13182  14232  15268
 =Y((12+3)/4*4)
               2 00004A6C 00000001     Y   32044 28899  29444  31106
 =Y((12+3)/4*4)
               2 0000545C 00000001     Y   34697 32266  33200  33983
 =Y((12+3)/4*4)
               2 00005C52 00000001     Y   37051 35026  35903
 =Y((12+3)/4*4)
               2 00006BEA 00000001     Y   41607 37529  38046  38979  39488  40406
 =Y((12+3)/4*4)
               2 00007BA4 00000001     Y   45898 41991  42515  44545
 =Y((12+3)/4*4)
               2 0000838E 00000001     Y   48222 46216  47087
 =Y((12+3)/4*4)
               2 00008D1A 00000001     Y   50971 48419  48996  49895
 =Y((12+3)/4*4)
               2 0000A770 00000001     Y   59224 58797
 =Y((12+3)/4*4)
               2 0000AFA2 00000001     Y   62531 61761
 =Y(4)         2 00004A6E 00000001     Y   32045 28905  29450
 =Y(4)         2 0000545E 00000001     Y   34698 32272
 =Y(4)         2 00005C54 00000001     Y   37052 35032  35169  35909
 =Y(4)         2 00006BEC 00000001     Y   41608 37535  38052  38985  39494  40412
 =Y(4)         2 00007BA6 00000001     Y   45899 41997  42521  44551
 =Y(4)         2 00008390 00000001     Y   48223 46222  47093
 =Y(4)         2 00008D1C 00000001     Y   50972 48425  49002  49901
 =Y(4)         2 0000A732 00000001     Y   59221 58195

1PROC     (PROC2193) (12:51) (15MAR04) Macro and Copy Code Source Summary                                                   Page  341
- Con Source                                        Volume    Members                        HLASM R4.0  2004/03/15 12.51
0     PRIMARY INPUT                                           BADARG   CSECT    DROP     END      EX       LA$TABLE
                                                              LTORG    POP      PRETVAL  PRINT    PTRIM    PUSH
                                                              SAMEAS   SETARGS  START    SYSPROC  USING
   L1 WYL.GS.WYL.WYLBUR.MACLIB                      SYSB05    ABORT    AINFO    BASE     BSINFO   BTD      BTR
                                                              COLINFO  COMMENT  CONTROL  CP       CPLOCAL  CV
                                                              CVLOCAL  DEFRTNP  DTB      ERROR    FAIL     JCB
                                                              KAPUT    LOADRTNP RDRNG    RG       SCAN     SCANCB
                                                              SCANCHK  SCANSTR  SCCBADR  SCCLR    SCDQUOTE SCINIT   SCKW
                                                              SCPOP    SCPUSH   SCUPTOK  SEGINIT  SETSCKWS SYSRTN   TCCR
                                                              TCLEAR   TCR      TSEG     TTYPE    UNET     UPATH
                                                              VLTORG   VNENTRY  VPARM    XSA      XSENTRY  XTB
                                                              XTRACE   XWTO
   L2 WYL.GG.SYS.MACLIB                             SYSB05    $BC      $BFLKUP  $BV      $CCLKUP  $CRS     $CSS     $L
                                                              $LA      $LBLAD   $LEXP    $LOR     $REL     $RGLKUP
                                                              $USLKUP  ACALL    BEGIN    CEIL     CLEAR    CMPR
                                                              COMPROC  CSECT    DATA     DECR     DEFCC    DEX
                                                              DPROC    DROP     DTEX     ELSE     ELSEIF   END      EX
                                                              EXIT     FLAG     GEN      HIBAL    IDENT    IF       INCR
                                                              LABEL    LC       LOOP     LS       LT       LTORG    MOVE
                                                              MOVEL    PEND     POP      PRETURN  PRINT    PROC     PUSH
                                                              QLTORG   RECORD   REG      REGS     SET      SETMSG
                                                              START    USING    VCALL    WHILE    WITH     XPROC
   L3 SYS3.IS.MACLIB                                SYSB05    DEFINE   KRB      KWR      SEG      SEGCB    SEGCLR
                                                              SEGCOL   SEGCR    SEGDC    SEGDEF   SEGLD    SEGMARK  SEGT
                                                              SEGWR    SIB      SYSDEFN  UID      XPOP     XPUSH
   L4 SYS3.MACLIB                                   SYSB02    PATH
   L5 SYS1.MACLIB                                   MVSBR9    DOM

1PROC     (PROC2193) (12:51) (15MAR04) Dsect Cross Reference                                                                Page  342
-Dsect     Length      Id       Defn                                                         HLASM R4.0  2004/03/15 12.51
0$$$@R0   00000000  FFFFFFFE     705
 $$$@R1   00000000  FFFFFFFD     718
 $$$@R10  00000000  FFFFFFF4     835
 $$$@R11  00000000  FFFFFFF3     848
 $$$@R12  00000000  FFFFFFF2     861
 $$$@R13  00000000  FFFFFFF1     874
 $$$@R14  00000000  FFFFFFF0     887
 $$$@R15  00000000  FFFFFFEF     900
 $$$@R2   00000000  FFFFFFFC     731
 $$$@R3   00000000  FFFFFFFB     744
 $$$@R4   00000000  FFFFFFFA     757
 $$$@R5   00000000  FFFFFFF9     770
 $$$@R6   00000000  FFFFFFF8     783
 $$$@R7   00000000  FFFFFFF7     796
 $$$@R8   00000000  FFFFFFF6     809
 $$$@R9   00000000  FFFFFFF5     822
 $$$RBSINFO
          00000020  FFFFFFE2    7829
 $$$RCLPSWA
          0000015C  FFFFFFD6   18563
 $$$RCLWA 0000015C  FFFFFFDB   11402
 $$$RCP   00001000  FFFFFFEC    2684
 $$$RCPBWA
          00000040  FFFFFFC3   63183
 $$$RCV   00000FB0  FFFFFFEE    1409
 $$$RDEV  0000000C  FFFFFFEB    4898
 $$$RDRWA 00000130  FFFFFFC9   51551
 $$$RDWA  000001BC  FFFFFFDA   12155
 $$$RFNWA 00000178  FFFFFFDD    9383
 $$$RGTWA 000000FB  FFFFFFD5   20424
 $$$RJCB  000000D0  FFFFFFE9    6536
 $$$RKLOGINWA
          0000001E  FFFFFFD8   16357
 $$$RKRBREC
          00000012  FFFFFFE6    7075
 $$$RKWA  00000194  FFFFFFD9   12880
 $$$RKWR  000001F8  FFFFFFE8    6816
 $$$RLFWA 00000014  FFFFFFD4   24414
 $$$RLTOCWA
          000001D6  FFFFFFD2   25229
 $$$RLTWA 0000004C  FFFFFFD3   24836
 $$$RMBWA 0000005C  FFFFFFC2   63599
 $$$RMINFOWA
          00000120  FFFFFFD1   25762
 $$$RMKLOGWA
          00000164  FFFFFFD7   17106
 $$$RMLWA 00000154  FFFFFFCF   27744
 $$$RMSHDRWA
          0000022F  FFFFFFD0   26606
 $$$RNOPHOSWA
          00000200  FFFFFFCD   33108
 $$$RNSCNCB
          000000B0  FFFFFFED    2605
 $$$RNWA  000001EF  FFFFFFCE   28538
 $$$RPCOLWA
1PROC     (PROC2193) (12:51) (15MAR04) Dsect Cross Reference                                                                Page  343
          00000598  FFFFFFDC    9735
 $$$RPCSCANWA
          00000060  FFFFFFC8   52834
 $$$RPCVWA
          000000F3  FFFFFFC6   59731
 $$$RPWA  000000E8  FFFFFFCC   41630
 $$$RPWFXWA
          00000004  FFFFFFCB   50719
 $$$RQFWA 00000018  FFFFFFCA   50997
 $$$RRDBWA
          00000048  FFFFFFC1   64453
 $$$RRFCWA
          00000520  FFFFFFC7   54105
 $$$RRTNENTRY
          00000014  FFFFFFDE    8339
 $$$RSEGCB
          0000003C  FFFFFFE5    7101
 $$$RTTYPE
          0000010C  FFFFFFEA    6429
 $$$RUIDREC
          0000014C  FFFFFFE7    7032
 $$$RUNET 00000278  FFFFFFE3    7362
 $$$RUPATH
          000000B0  FFFFFFE4    7213
 $$$RVNENTRY
          00000050  FFFFFFE1    7863
 $$$RVPARM
          00000150  FFFFFFE0    8175
 $$$RWLGWTWA
          00000438  FFFFFFC5   61076
 $$$RWTOWA
          0000000C  FFFFFFC4   61546
 $$$RXSENTRY
          00000050  FFFFFFDF    8221
 HIBAL    00000000  FFFFFFFF     691

1PROC     (PROC2193) (12:51) (15MAR04) Using Map                                                                            Page  344
-                                                                                            HLASM R4.0  2004/03/15 12.51
   Stmt  -----Location----- Action ----------------Using----------------- Reg Max    Last  Label and Using Text
           Count      Id           Type          Value    Range     Id        Disp   Stmt
0   922  00000000  FFFFFFFF USING  ORDINARY    00000000 00001000 FFFFFFEF  15 000   58255  @R15,15
    926  00000000  FFFFFFFF USING  ORDINARY    00000000 00001000 FFFFFFF0  14 002   25117  @R14,14
    930  00000000  FFFFFFFF USING  ORDINARY    00000000 00001000 FFFFFFF1  13 000   62046  @R13,13
    934  00000000  FFFFFFFF USING  ORDINARY    00000000 00001000 FFFFFFF2  12 000          @R12,12
    938  00000000  FFFFFFFF USING  ORDINARY    00000000 00001000 FFFFFFF3  11 000          @R11,11
    942  00000000  FFFFFFFF USING  ORDINARY    00000000 00001000 FFFFFFF4  10 000          @R10,10
    946  00000000  FFFFFFFF USING  ORDINARY    00000000 00001000 FFFFFFF5   9 000          @R9,9
    950  00000000  FFFFFFFF USING  ORDINARY    00000000 00001000 FFFFFFF6   8 000          @R8,8
    954  00000000  FFFFFFFF USING  ORDINARY    00000000 00001000 FFFFFFF7   7 000          @R7,7
    958  00000000  FFFFFFFF USING  ORDINARY    00000000 00001000 FFFFFFF8   6 000          @R6,6
    962  00000000  FFFFFFFF USING  ORDINARY    00000000 00001000 FFFFFFF9   5 000          @R5,5
    966  00000000  FFFFFFFF USING  ORDINARY    00000000 00001000 FFFFFFFA   4 000    8720  @R4,4
    970  00000000  FFFFFFFF USING  ORDINARY    00000000 00001000 FFFFFFFB   3 001   15557  @R3,3
    974  00000000  FFFFFFFF USING  ORDINARY    00000000 00001000 FFFFFFFC   2 000          @R2,2
    978  00000000  FFFFFFFF USING  ORDINARY    00000000 00001000 FFFFFFFD   1 003   63066  @R1,1
    982  00000000  FFFFFFFF USING  ORDINARY    00000000 00001000 FFFFFFFE   0 000          @R0,0
    983  00000000  FFFFFFFF DROP                                            0              0
   1393  00000017  00000001 USING  ORDINARY    00000000 00001000 FFFFFFEC  11 D5A   62043  CP,CPR
   1402  00000017  00000001 USING  ORDINARY    00000000 00001000 FFFFFFEE  12 8AC   64500  CV,CVR
   8553  00000052  00000001 USING  ORDINARY    00000052 00001000 00000001   7 5EA    8583  $$$83B,7
   8592  0000007E  00000001 USING  ORDINARY    00000000 00001000 FFFFFFF7   7 000          @R7,7
   8656  000000A6  00000001 USING  ORDINARY    000000A6 00001000 00000001   7 59A    8738  $$$86B,7
   8702  000000C2  00000001 USING  ORDINARY    00000000 00001000 FFFFFFDE   6 010    8721  RTNENTRY,R6
   8727  000000D6  00000001 USING  ORDINARY    00000000 00001000 FFFFFFF8   6 000          @R6,6
   8762  000000E2  00000001 USING  ORDINARY    00000000 00001000 FFFFFFF7   7 000          @R7,7
   8849  0000010A  00000001 USING  ORDINARY    0000010A 00001000 00000001   7 53A    8959  $$$92B,7
   8866  0000010C  00000001 USING  ORDINARY    00000000 00001000 FFFFFFE1   6 026    8958  VNENTRY,R6
   8965  00000170  00000001 USING  ORDINARY    00000000 00001000 FFFFFFF8   6 000          @R6,6
   8977  00000172  00000001 USING  ORDINARY    00000000 00001000 FFFFFFF7   7 000          @R7,7
   9456  00000662  00000001 USING  ORDINARY    00000662 00001000 00000001   7 5B6    9669  $$$100B,7
   9498  00000670  00000001 USING  ORDINARY    00000000 00001000 FFFFFFE1   2 024    9522  VNENTRY,R2
   9533  00000690  00000001 USING  ORDINARY    00000000 00001000 FFFFFFFC   2 000          @R2,2
   9546  00000690  00000001 USING  ORDINARY    00000000 00001000 FFFFFFE1   2 024    9570  VNENTRY,R2
   9581  000006B0  00000001 USING  ORDINARY    00000000 00001000 FFFFFFFC   2 000          @R2,2
   9594  000006B0  00000001 USING  ORDINARY    00000000 00001000 FFFFFFE1   2 024    9618  VNENTRY,R2
   9629  000006D0  00000001 USING  ORDINARY    00000000 00001000 FFFFFFFC   2 000          @R2,2
   9642  000006D0  00000001 USING  ORDINARY    00000000 00001000 FFFFFFE1   2 024    9665  VNENTRY,R2
   9677  000006EC  00000001 USING  ORDINARY    00000000 00001000 FFFFFFFC   2 000   10169  @R2,2
   9690  000006EC  00000001 USING  ORDINARY    00000000 00001000 FFFFFFF7   7 000          @R7,7
   9880  00000714  00000001 USING  ORDINARY    00000714 00001000 00000001   7 51E   10925  $$$112B,7
   9894  00000714  00000001 USING  ORDINARY    FFFFFFD8 00001000 FFFFFFDC   8 590   10780  PCOLWA-(4+36),R8
   9931  0000072A  00000001 USING  ORDINARY    00000000 00001000 FFFFFFE1   5 026    9947  VNENTRY,R5
   9955  00000756  00000001 USING  ORDINARY    00000000 00001000 FFFFFFF9   5 000          @R5,5
  10219  00000896  00000001 USING  ORDINARY    00000000 00001000 FFFFFFE1   2 026   10273  VNENTRY,R2
  10292  000008B8  00000001 USING  ORDINARY    00000000 00001000 FFFFFFFC   2 000   10394  @R2,2
  10448  00000926  00000001 USING  ORDINARY    00000000 00001000 FFFFFFE1   2 026   10502  VNENTRY,R2
  10521  00000948  00000001 USING  ORDINARY    00000000 00001000 FFFFFFFC   2 000          @R2,2
  10792  000009FE  00000001 USING  ORDINARY    00000000 00001000 FFFFFFE1   2 026   10845  VNENTRY,R2
  10864  00000A1E  00000001 USING  ORDINARY    00000000 00001000 FFFFFFFC   2 000          @R2,2
  10962  00000A60  00000001 USING  ORDINARY    00000000 00001000 FFFFFFF6   8 000          @R8,8
  10967  00000A60  00000001 USING  ORDINARY    00000000 00001000 FFFFFFF7   7 000          @R7,7
  11040  00000AE8  00000001 USING  ORDINARY    00000000 00001000 FFFFFFDC   4 20C   11174  PCOLWA,R4
  11072  00000B02  00000001 USING  ORDINARY    00000B02 00001000 00000001   7 0F2   11110  $$$148B,7
1PROC     (PROC2193) (12:51) (15MAR04) Using Map                                                                            Page  345
  11118  00000B22  00000001 USING  ORDINARY    00000000 00001000 FFFFFFF7   7 000          @R7,7
  11163  00000B4A  00000001 USING  ORDINARY    00000B4A 00001000 00000001   7 0AA   11201  $$$153B,7
  11209  00000B6A  00000001 USING  ORDINARY    00000000 00001000 FFFFFFF7   7 000          @R7,7
  11228  00000B78  00000001 USING  ORDINARY    00000000 00001000 FFFFFFFA   4 000          @R4,4
  11269  00000B92  00000001 USING  ORDINARY    00000B92 00001000 00000001   7 086   11315  $$$158B,7
  11309  00000BA0  00000001 USING  ORDINARY    00000000 00001000 FFFFFFE1   5 024   11323  VNENTRY,R5
  11331  00000BCA  00000001 USING  ORDINARY    00000000 00001000 FFFFFFF9   5 000          @R5,5
  11344  00000BCA  00000001 USING  ORDINARY    00000000 00001000 FFFFFFF7   7 000          @R7,7
  11476  00000C52  00000001 USING  ORDINARY    00000C52 00001000 00000001   7 30E   12080  $$$162B,7
  11490  00000C52  00000001 USING  ORDINARY    FFFFFFD8 00001000 FFFFFFDB   8 180   12044  CLWA-(4+36),R8
  11514  00000C64  00000001 USING  ORDINARY    00000000 00001000 FFFFFFE1   5 024   11644  VNENTRY,R5
  11687  00000CF8  00000001 USING  ORDINARY    00000000 00001000 FFFFFFF9   5 000          @R5,5
  11974  00000E82  00000001 USING  ORDINARY    00000000 00001000 FFFFFFE1   2 024   11998  VNENTRY,R2
  12009  00000EA2  00000001 USING  ORDINARY    00000000 00001000 FFFFFFFC   2 000          @R2,2
  12022  00000EA2  00000001 USING  ORDINARY    00000000 00001000 FFFFFFE1   2 024   12046  VNENTRY,R2
  12057  00000EC2  00000001 USING  ORDINARY    00000000 00001000 FFFFFFFC   2 000          @R2,2
  12091  00000EEC  00000001 USING  ORDINARY    00000000 00001000 FFFFFFF6   8 000          @R8,8
  12096  00000EEC  00000001 USING  ORDINARY    00000000 00001000 FFFFFFF7   7 000          @R7,7
  12225  00000FAA  00000001 USING  ORDINARY    00000FAA 00001000 00000001   7 BA6   12700  $$$176B,7
  12239  00000FAA  00000001 USING  ORDINARY    FFFFFFD8 00001000 FFFFFFDA   8 128   12508  DWA-(4+36),R8
  12276  00000FDA  00000001 USING  ORDINARY    00000000 00001000 FFFFFFE1   5 000          VNENTRY,R5
  12315  00000FE4  00000001 USING  ORDINARY    00000000 00001000 FFFFFFF9   5 000          @R5,5
  12318  00000FE4  00000001 USING  ORDINARY    00000000 00001000 FFFFFFE1   2 026   12371  VNENTRY,R2
  12394  00001008  00000001 USING  ORDINARY    00000000 00001000 FFFFFFE1   5 026   12473  VNENTRY,5
  12399  00001008  00000001 USING  ORDINARY    00000000 00001000 FFFFFFFC   2 000          @R2,2
  12540  0000107E  00000001 USING  ORDINARY    00000000 00001000 FFFFFFF9   5 000          @R5,5
  12543  0000107E  00000001 USING  ORDINARY    00000000 00001000 FFFFFFE1   2 026   12596  VNENTRY,R2
  12619  0000109E  00000001 USING  ORDINARY    00000000 00001000 FFFFFFE1   5 000          VNENTRY,5
  12624  0000109E  00000001 USING  ORDINARY    00000000 00001000 FFFFFFFC   2 000          @R2,2
  12651  000010A6  00000001 USING  ORDINARY    00000000 00001000 FFFFFFF9   5 000          @R5,5
  12654  000010A6  00000001 USING  ORDINARY    00000000 00001000 FFFFFFE1   2 026   12707  VNENTRY,R2
  12730  000010C6  00000001 USING  ORDINARY    00000000 00001000 FFFFFFE1   5 000          VNENTRY,5
  12735  000010C6  00000001 USING  ORDINARY    00000000 00001000 FFFFFFFC   2 000          @R2,2
  12745  000010C6  00000001 USING  ORDINARY    00000000 00001000 FFFFFFF9   5 000          @R5,5
  12750  000010C6  00000001 USING  ORDINARY    00000000 00001000 FFFFFFF6   8 000          @R8,8
  12755  000010C6  00000001 USING  ORDINARY    00000000 00001000 FFFFFFF7   7 000          @R7,7
  12806  000010EE  00000001 USING  ORDINARY    000010EE 00001000 00000001   7 9DB   12823  $$$190B,7
  12834  000010FC  00000001 USING  ORDINARY    00000000 00001000 FFFFFFE1   5 024   12842  VNENTRY,R5
  12858  0000110C  00000001 USING  ORDINARY    00000000 00001000 FFFFFFF9   5 000          @R5,5
  12863  0000110C  00000001 USING  ORDINARY    00000000 00001000 FFFFFFF7   7 000          @R7,7
  12939  00001134  00000001 USING  ORDINARY    00001134 00001000 00000001   7 A2E   13652  $$$193B,7
  12953  00001134  00000001 USING  ORDINARY    FFFFFFD8 00001000 FFFFFFD9   8 028   12957  KWA-(4+36),R8
  12965  00001138  00000001 USING  ORDINARY    00000000 00001000 FFFFFFD9   4 048   13530  KWA,R4
  12994  0000115C  00000001 USING  ORDINARY    00000000 00001000 FFFFFFE1   5 000          VNENTRY,R5
  13037  0000116A  00000001 USING  ORDINARY    00000000 00001000 FFFFFFF9   5 000          @R5,5
  13040  0000116A  00000001 USING  ORDINARY    00000000 00001000 FFFFFFE1   2 026   13093  VNENTRY,R2
  13116  0000118E  00000001 USING  ORDINARY    00000000 00001000 FFFFFFE1   5 026   13248  VNENTRY,5
  13121  0000118E  00000001 USING  ORDINARY    00000000 00001000 FFFFFFFC   2 000          @R2,2
  13333  0000125A  00000001 USING  ORDINARY    00000000 00001000 FFFFFFE7   2 000   13338  UIDREC,R2
  13359  00001266  00000001 USING  ORDINARY    00000000 00001000 FFFFFFFC   2 000          @R2,2
  13552  000012E2  00000001 USING  ORDINARY    00000000 00001000 FFFFFFF9   5 000          @R5,5
  13555  000012E2  00000001 USING  ORDINARY    00000000 00001000 FFFFFFE1   2 026   13608  VNENTRY,R2
  13631  00001302  00000001 USING  ORDINARY    00000000 00001000 FFFFFFE1   5 000          VNENTRY,5
  13636  00001302  00000001 USING  ORDINARY    00000000 00001000 FFFFFFFC   2 000          @R2,2
  13660  00001312  00000001 USING  ORDINARY    00000000 00001000 FFFFFFF9   5 000          @R5,5
  13665  00001312  00000001 USING  ORDINARY    00000000 00001000 FFFFFFF6   8 000          @R8,8
  13670  00001312  00000001 USING  ORDINARY    00000000 00001000 FFFFFFF7   7 000          @R7,7
  13734  00001362  00000001 USING  ORDINARY    00001362 00001000 00000001   7 000          $$$216B,7
  13750  00001366  00000001 USING  ORDINARY    00000000 00001000 FFFFFFF7   7 000          @R7,7
1PROC     (PROC2193) (12:51) (15MAR04) Using Map                                                                            Page  346
  13769  00001374  00000001 USING  ORDINARY    00000000 00001000 FFFFFFFA   4 000          @R4,4
  13810  0000138E  00000001 USING  ORDINARY    0000138E 00001000 00000001   7 7F2   14884  $$$219B,7
  13824  0000138E  00000001 USING  ORDINARY    FFFFFFD8 00001000 FFFFFFD9   8 070   14762  KWA-(4+36),R8
  13855  000013B2  00000001 USING  ORDINARY    00000000 00001000 FFFFFFE1   5 000          VNENTRY,R5
  13880  000013B6  00000001 USING  ORDINARY    00000000 00001000 FFFFFFF9   5 000          @R5,5
  13883  000013B6  00000001 USING  ORDINARY    00000000 00001000 FFFFFFE1   2 026   13936  VNENTRY,R2
  13959  000013DA  00000001 USING  ORDINARY    00000000 00001000 FFFFFFE1   5 000          VNENTRY,5
  13964  000013DA  00000001 USING  ORDINARY    00000000 00001000 FFFFFFFC   2 000          @R2,2
  14001  000013E4  00000001 USING  ORDINARY    00000000 00001000 FFFFFFF9   5 000          @R5,5
  14004  000013E4  00000001 USING  ORDINARY    00000000 00001000 FFFFFFE1   2 024   14027  VNENTRY,R2
  14043  00001400  00000001 USING  ORDINARY    00000000 00001000 FFFFFFE1   5 000          VNENTRY,5
  14048  00001400  00000001 USING  ORDINARY    00000000 00001000 FFFFFFFC   2 000          @R2,2
  14087  0000140A  00000001 USING  ORDINARY    00000000 00001000 FFFFFFF9   5 000          @R5,5
  14090  0000140A  00000001 USING  ORDINARY    00000000 00001000 FFFFFFE1   2 026   14143  VNENTRY,R2
  14166  0000142E  00000001 USING  ORDINARY    00000000 00001000 FFFFFFE1   5 026   14298  VNENTRY,5
  14171  0000142E  00000001 USING  ORDINARY    00000000 00001000 FFFFFFFC   2 000          @R2,2
  14383  000014FA  00000001 USING  ORDINARY    00000000 00001000 FFFFFFE7   2 048   14535  UIDREC,R2
  14542  00001574  00000001 USING  ORDINARY    00000000 00001000 FFFFFFFC   2 000          @R2,2
  14561  00001574  00000001 USING  ORDINARY    00000000 00001000 FFFFFFF9   5 000          @R5,5
  14564  00001574  00000001 USING  ORDINARY    00000000 00001000 FFFFFFE1   2 026   14617  VNENTRY,R2
  14640  00001594  00000001 USING  ORDINARY    00000000 00001000 FFFFFFE1   5 000          VNENTRY,5
  14645  00001594  00000001 USING  ORDINARY    00000000 00001000 FFFFFFFC   2 000          @R2,2
  14681  0000159E  00000001 USING  ORDINARY    00000000 00001000 FFFFFFF9   5 000          @R5,5
  14684  0000159E  00000001 USING  ORDINARY    00000000 00001000 FFFFFFE1   2 024   14707  VNENTRY,R2
  14723  000015B8  00000001 USING  ORDINARY    00000000 00001000 FFFFFFE1   5 000          VNENTRY,5
  14728  000015B8  00000001 USING  ORDINARY    00000000 00001000 FFFFFFFC   2 000          @R2,2
  14784  000015DA  00000001 USING  ORDINARY    00000000 00001000 FFFFFFF9   5 000          @R5,5
  14787  000015DA  00000001 USING  ORDINARY    00000000 00001000 FFFFFFE1   2 026   14840  VNENTRY,R2
  14863  000015FA  00000001 USING  ORDINARY    00000000 00001000 FFFFFFE1   5 000          VNENTRY,5
  14868  000015FA  00000001 USING  ORDINARY    00000000 00001000 FFFFFFFC   2 000          @R2,2
  14892  0000160A  00000001 USING  ORDINARY    00000000 00001000 FFFFFFF9   5 000          @R5,5
  14897  0000160A  00000001 USING  ORDINARY    00000000 00001000 FFFFFFF6   8 000          @R8,8
  14902  0000160A  00000001 USING  ORDINARY    00000000 00001000 FFFFFFF7   7 000          @R7,7
  14966  0000165A  00000001 USING  ORDINARY    0000165A 00001000 00000001   7 000          $$$249B,7
  14982  0000165E  00000001 USING  ORDINARY    00000000 00001000 FFFFFFF7   7 000          @R7,7
  15035  00001686  00000001 USING  ORDINARY    00001686 00001000 00000001   7 50C   15959  $$$252B,7
  15049  00001686  00000001 USING  ORDINARY    FFFFFFD8 00001000 FFFFFFD9   8 070   15837  KWA-(4+36),R8
  15080  000016AA  00000001 USING  ORDINARY    00000000 00001000 FFFFFFE1   5 000          VNENTRY,R5
  15123  000016B8  00000001 USING  ORDINARY    00000000 00001000 FFFFFFF9   5 000          @R5,5
  15126  000016B8  00000001 USING  ORDINARY    00000000 00001000 FFFFFFE1   2 026   15179  VNENTRY,R2
  15202  000016DC  00000001 USING  ORDINARY    00000000 00001000 FFFFFFE1   5 026   15455  VNENTRY,5
  15207  000016DC  00000001 USING  ORDINARY    00000000 00001000 FFFFFFFC   2 000          @R2,2
  15464  000017DA  00000001 USING  ORDINARY    00000000 00001000 FFFFFFE7   2 148   15576  UIDREC,R2
  15605  00001858  00000001 USING  ORDINARY    00000000 00001000 FFFFFFFC   2 000          @R2,2
  15859  000018F8  00000001 USING  ORDINARY    00000000 00001000 FFFFFFF9   5 000          @R5,5
  15862  000018F8  00000001 USING  ORDINARY    00000000 00001000 FFFFFFE1   2 026   15915  VNENTRY,R2
  15938  00001918  00000001 USING  ORDINARY    00000000 00001000 FFFFFFE1   5 000          VNENTRY,5
  15943  00001918  00000001 USING  ORDINARY    00000000 00001000 FFFFFFFC   2 000          @R2,2
  15967  00001928  00000001 USING  ORDINARY    00000000 00001000 FFFFFFF9   5 000          @R5,5
  15972  00001928  00000001 USING  ORDINARY    00000000 00001000 FFFFFFF6   8 000          @R8,8
  15977  00001928  00000001 USING  ORDINARY    00000000 00001000 FFFFFFF7   7 000          @R7,7
  16041  0000197A  00000001 USING  ORDINARY    0000197A 00001000 00000001   7 000          $$$282B,7
  16057  0000197E  00000001 USING  ORDINARY    00000000 00001000 FFFFFFF7   7 000          @R7,7
  16114  000019A6  00000001 USING  ORDINARY    000019A6 00001000 00000001   7 1F2   16223  $$$285B,7
  16128  000019A6  00000001 USING  ORDINARY    FFFFFFD8 00001000 FFFFFFD9   8 028   16132  KWA-(4+36),R8
  16140  000019AA  00000001 USING  ORDINARY    00000000 00001000 FFFFFFD9   4 004   16160  KWA,R4
  16177  000019C0  00000001 USING  ORDINARY    00000000 00001000 FFFFFFE1   2 026   16230  VNENTRY,R2
  16249  000019E0  00000001 USING  ORDINARY    00000000 00001000 FFFFFFFC   2 000          @R2,2
  16265  000019E2  00000001 USING  ORDINARY    00000000 00001000 FFFFFFF6   8 000          @R8,8
1PROC     (PROC2193) (12:51) (15MAR04) Using Map                                                                            Page  347
  16270  000019E2  00000001 USING  ORDINARY    00000000 00001000 FFFFFFF7   7 000          @R7,7
  16289  000019F0  00000001 USING  ORDINARY    00000000 00001000 FFFFFFFA   4 000          @R4,4
  16419  00001BB8  00000001 USING  ORDINARY    00001BB8 00001000 00000001   7 204   17012  $$$292B,7
  16433  00001BB8  00000001 USING  ORDINARY    FFFFFFD8 00001000 FFFFFFD8   8 028   16437  KLOGINWA-(4+36),R8
  16445  00001BBC  00000001 USING  ORDINARY    00000000 00001000 FFFFFFD8   4 018   16890  KLOGINWA,R4
  16474  00001BE0  00000001 USING  ORDINARY    00000000 00001000 FFFFFFE1   5 000          VNENTRY,R5
  16517  00001BEE  00000001 USING  ORDINARY    00000000 00001000 FFFFFFF9   5 000          @R5,5
  16520  00001BEE  00000001 USING  ORDINARY    00000000 00001000 FFFFFFE1   2 026   16573  VNENTRY,R2
  16596  00001C12  00000001 USING  ORDINARY    00000000 00001000 FFFFFFE1   5 026   16651  VNENTRY,5
  16601  00001C12  00000001 USING  ORDINARY    00000000 00001000 FFFFFFFC   2 000          @R2,2
  16912  00001CD8  00000001 USING  ORDINARY    00000000 00001000 FFFFFFF9   5 000          @R5,5
  16915  00001CD8  00000001 USING  ORDINARY    00000000 00001000 FFFFFFE1   2 026   16968  VNENTRY,R2
  16991  00001CF8  00000001 USING  ORDINARY    00000000 00001000 FFFFFFE1   5 000          VNENTRY,5
  16996  00001CF8  00000001 USING  ORDINARY    00000000 00001000 FFFFFFFC   2 000          @R2,2
  17020  00001D08  00000001 USING  ORDINARY    00000000 00001000 FFFFFFF9   5 000          @R5,5
  17025  00001D08  00000001 USING  ORDINARY    00000000 00001000 FFFFFFF6   8 000          @R8,8
  17030  00001D08  00000001 USING  ORDINARY    00000000 00001000 FFFFFFF7   7 000          @R7,7
  17049  00001D16  00000001 USING  ORDINARY    00000000 00001000 FFFFFFFA   4 000   18955  @R4,4
  17159  00001DDC  00000001 USING  ORDINARY    00001DDC 00001000 00000001   7 078   17274  $$$314B,7
  17173  00001DDC  00000001 USING  ORDINARY    FFFFFFD8 00001000 FFFFFFD7   8 03C   17277  MKLOGWA-(4+36),R8
  17188  00001DE2  00000001 USING  ORDINARY    00000000 00001000 FFFFFFE1   5 012   17248  VNENTRY,R5
  17287  00001E40  00000001 USING  ORDINARY    00000000 00001000 FFFFFFF9   5 000          @R5,5
  17292  00001E40  00000001 USING  ORDINARY    00000000 00001000 FFFFFFF6   8 000          @R8,8
  17297  00001E40  00000001 USING  ORDINARY    00000000 00001000 FFFFFFF7   7 000          @R7,7
  17364  00001E72  00000001 USING  ORDINARY    00001E72 00001000 00000001   7 3AE   18462  $$$320B,7
  17378  00001E72  00000001 USING  ORDINARY    FFFFFFD8 00001000 FFFFFFD8   8 040   18340  KLOGINWA-(4+36),R8
  17412  00001E9E  00000001 USING  ORDINARY    00000000 00001000 FFFFFFE1   5 030   17441  VNENTRY,R5
  17533  00001ED2  00000001 USING  ORDINARY    00000000 00001000 FFFFFFF9   5 000          @R5,5
  17536  00001ED2  00000001 USING  ORDINARY    00000000 00001000 FFFFFFE1   2 024   17559  VNENTRY,R2
  17575  00001EEE  00000001 USING  ORDINARY    00000000 00001000 FFFFFFE1   5 000          VNENTRY,5
  17580  00001EEE  00000001 USING  ORDINARY    00000000 00001000 FFFFFFFC   2 000          @R2,2
  17617  00001EF8  00000001 USING  ORDINARY    00000000 00001000 FFFFFFF9   5 000          @R5,5
  17620  00001EF8  00000001 USING  ORDINARY    00000000 00001000 FFFFFFE1   2 024   17643  VNENTRY,R2
  17659  00001F14  00000001 USING  ORDINARY    00000000 00001000 FFFFFFE1   5 000          VNENTRY,5
  17664  00001F14  00000001 USING  ORDINARY    00000000 00001000 FFFFFFFC   2 000          @R2,2
  17703  00001F1E  00000001 USING  ORDINARY    00000000 00001000 FFFFFFF9   5 000          @R5,5
  17706  00001F1E  00000001 USING  ORDINARY    00000000 00001000 FFFFFFE1   2 026   17759  VNENTRY,R2
  17782  00001F42  00000001 USING  ORDINARY    00000000 00001000 FFFFFFE1   5 026   17837  VNENTRY,5
  17787  00001F42  00000001 USING  ORDINARY    00000000 00001000 FFFFFFFC   2 000          @R2,2
  17930  00001FA6  00000001 USING  ORDINARY    00000000 00001000 FFFFFFE6   3 004   17934  KRBREC,R3
  17940  00001FB4  00000001 USING  ORDINARY    00000000 00001000 FFFFFFFB   3 001   52696  @R3,3
  18111  00002034  00000001 USING  ORDINARY    00000000 00001000 FFFFFFE6   2 012   18117  KRBREC,R2
  18123  00002048  00000001 USING  ORDINARY    00000000 00001000 FFFFFFFC   2 000          @R2,2
  18181  00002082  00000001 USING  ORDINARY    00000000 00001000 FFFFFFF9   5 000          @R5,5
  18184  00002082  00000001 USING  ORDINARY    00000000 00001000 FFFFFFE1   2 024   18207  VNENTRY,R2
  18223  0000209C  00000001 USING  ORDINARY    00000000 00001000 FFFFFFE1   5 000          VNENTRY,5
  18228  0000209C  00000001 USING  ORDINARY    00000000 00001000 FFFFFFFC   2 000          @R2,2
  18266  000020AA  00000001 USING  ORDINARY    00000000 00001000 FFFFFFF9   5 000          @R5,5
  18269  000020AA  00000001 USING  ORDINARY    00000000 00001000 FFFFFFE1   2 024   18292  VNENTRY,R2
  18308  000020C4  00000001 USING  ORDINARY    00000000 00001000 FFFFFFE1   5 000          VNENTRY,5
  18313  000020C4  00000001 USING  ORDINARY    00000000 00001000 FFFFFFFC   2 000          @R2,2
  18362  000020D6  00000001 USING  ORDINARY    00000000 00001000 FFFFFFF9   5 000          @R5,5
  18365  000020D6  00000001 USING  ORDINARY    00000000 00001000 FFFFFFE1   2 026   18418  VNENTRY,R2
  18441  000020F6  00000001 USING  ORDINARY    00000000 00001000 FFFFFFE1   5 000          VNENTRY,5
  18446  000020F6  00000001 USING  ORDINARY    00000000 00001000 FFFFFFFC   2 000          @R2,2
  18470  00002106  00000001 USING  ORDINARY    00000000 00001000 FFFFFFF9   5 000          @R5,5
  18475  00002106  00000001 USING  ORDINARY    00000000 00001000 FFFFFFF6   8 000          @R8,8
  18480  00002106  00000001 USING  ORDINARY    00000000 00001000 FFFFFFF7   7 000          @R7,7
  18614  00002240  00000001 USING  ORDINARY    00002240 00001000 00000001   7 102   18983  $$$349B,7
1PROC     (PROC2193) (12:51) (15MAR04) Using Map                                                                            Page  348
  18628  00002240  00000001 USING  ORDINARY    FFFFFFD8 00001000 FFFFFFD6   8 034   19013  CLPSWA-(4+36),R8
  18642  00002242  00000001 USING  ORDINARY    00000000 00001000 FFFFFFE1   5 032   18647  VNENTRY,R5
  18655  0000224A  00000001 USING  ORDINARY    00000000 00001000 FFFFFFF9   5 000          @R5,5
  18697  0000225A  00000001 USING  ORDINARY    00000000 00001000 FFFFFFE1   5 012   18703  VNENTRY,R5
  18710  0000225E  00000001 USING  ORDINARY    00000000 00001000 FFFFFFF9   5 000          @R5,5
  18749  00002278  00000001 USING  ORDINARY    00000000 00001000 FFFFFFE1   2 024   18771  VNENTRY,R2
  18777  00002286  00000001 USING  ORDINARY    00000000 00001000 FFFFFFFC   2 000          @R2,2
  18845  000022C0  00000001 USING  ORDINARY    00000000 00001000 FFFFFFE1   5 012   18851  VNENTRY,R5
  18858  000022C4  00000001 USING  ORDINARY    00000000 00001000 FFFFFFF9   5 000          @R5,5
  18899  000022DE  00000001 USING  ORDINARY    00000000 00001000 FFFFFFE1   2 026   18917  VNENTRY,R2
  18924  000022E6  00000001 USING  ORDINARY    00000000 00001000 FFFFFFFC   2 000          @R2,2
  19023  00002324  00000001 USING  ORDINARY    00000000 00001000 FFFFFFF6   8 000          @R8,8
  19028  00002324  00000001 USING  ORDINARY    00000000 00001000 FFFFFFF7   7 000          @R7,7
  19096  00002362  00000001 USING  ORDINARY    00002362 00001000 00000001   7 3BC   20042  $$$364B,7
  19110  00002362  00000001 USING  ORDINARY    FFFFFFD8 00001000 FFFFFFD8   8 040   19920  KLOGINWA-(4+36),R8
  19122  00002366  00000001 USING  ORDINARY    00000000 00001000 FFFFFFD9   4 004   19172  KWA,R4
  19151  0000238A  00000001 USING  ORDINARY    00000000 00001000 FFFFFFE1   5 000          VNENTRY,R5
  19194  00002398  00000001 USING  ORDINARY    00000000 00001000 FFFFFFF9   5 000          @R5,5
  19197  00002398  00000001 USING  ORDINARY    00000000 00001000 FFFFFFE1   2 026   19250  VNENTRY,R2
  19273  000023BC  00000001 USING  ORDINARY    00000000 00001000 FFFFFFE1   5 030   19461  VNENTRY,5
  19278  000023BC  00000001 USING  ORDINARY    00000000 00001000 FFFFFFFC   2 000          @R2,2
  19600  000024A4  00000001 USING  ORDINARY    00000000 00001000 FFFFFFE6   2 010   19671  KRBREC,R2
  19688  00002500  00000001 USING  ORDINARY    00000000 00001000 FFFFFFFC   2 000          @R2,2
  19942  0000259E  00000001 USING  ORDINARY    00000000 00001000 FFFFFFF9   5 000          @R5,5
  19945  0000259E  00000001 USING  ORDINARY    00000000 00001000 FFFFFFE1   2 026   19998  VNENTRY,R2
  20021  000025BE  00000001 USING  ORDINARY    00000000 00001000 FFFFFFE1   5 000          VNENTRY,5
  20026  000025BE  00000001 USING  ORDINARY    00000000 00001000 FFFFFFFC   2 000          @R2,2
  20050  000025CE  00000001 USING  ORDINARY    00000000 00001000 FFFFFFF9   5 000          @R5,5
  20055  000025CE  00000001 USING  ORDINARY    00000000 00001000 FFFFFFF6   8 000          @R8,8
  20060  000025CE  00000001 USING  ORDINARY    00000000 00001000 FFFFFFF7   7 000          @R7,7
  20079  000025DC  00000001 USING  ORDINARY    00000000 00001000 FFFFFFFA   4 000          @R4,4
  20170  0000273E  00000001 USING  ORDINARY    0000273E 00001000 00000001   7 8DC   20351  $$$398B,7
  20208  0000274E  00000001 USING  ORDINARY    00000000 00001000 FFFFFFE1   5 026   20255  VNENTRY,R5
  20261  0000276C  00000001 USING  ORDINARY    00000000 00001000 FFFFFFF9   5 000          @R5,5
  20311  0000277E  00000001 USING  ORDINARY    00000000 00001000 FFFFFFE1   2 026   20358  VNENTRY,R2
  20377  000027A6  00000001 USING  ORDINARY    00000000 00001000 FFFFFFFC   2 000          @R2,2
  20398  000027A6  00000001 USING  ORDINARY    00000000 00001000 FFFFFFF7   7 000          @R7,7
  20478  000027CE  00000001 USING  ORDINARY    000027CE 00001000 00000001   7 864   21098  $$$408B,7
  20492  000027CE  00000001 USING  ORDINARY    FFFFFFD8 00001000 FFFFFFD5   8 038   21041  GTWA-(4+36),R8
  20529  000027E4  00000001 USING  ORDINARY    00000000 00001000 FFFFFFE1   5 024   20552  VNENTRY,R5
  20617  00002822  00000001 USING  ORDINARY    00000000 00001000 FFFFFFF9   5 000          @R5,5
  20650  00002838  00000001 USING  ORDINARY    00000000 00001000 FFFFFFE1   2 026   20703  VNENTRY,R2
  20722  00002858  00000001 USING  ORDINARY    00000000 00001000 FFFFFFFC   2 000          @R2,2
  20735  00002858  00000001 USING  ORDINARY    00000000 00001000 FFFFFFE1   2 024   20759  VNENTRY,R2
  20770  00002878  00000001 USING  ORDINARY    00000000 00001000 FFFFFFFC   2 000          @R2,2
  20801  00002882  00000001 USING  ORDINARY    00000000 00001000 FFFFFFE1   2 026   20848  VNENTRY,R2
  20867  000028AA  00000001 USING  ORDINARY    00000000 00001000 FFFFFFFC   2 000          @R2,2
  20899  000028AE  00000001 USING  ORDINARY    00000000 00001000 FFFFFFE1   2 024   20923  VNENTRY,R2
  20934  000028CE  00000001 USING  ORDINARY    00000000 00001000 FFFFFFFC   2 000          @R2,2
  20955  000028D2  00000001 USING  ORDINARY    00000000 00001000 FFFFFFE1   2 026   21008  VNENTRY,R2
  21027  000028F2  00000001 USING  ORDINARY    00000000 00001000 FFFFFFFC   2 000          @R2,2
  21058  000028FC  00000001 USING  ORDINARY    00000000 00001000 FFFFFFE1   2 026   21105  VNENTRY,R2
  21124  00002924  00000001 USING  ORDINARY    00000000 00001000 FFFFFFFC   2 000          @R2,2
  21145  00002924  00000001 USING  ORDINARY    00000000 00001000 FFFFFFF6   8 000          @R8,8
  21150  00002924  00000001 USING  ORDINARY    00000000 00001000 FFFFFFF7   7 000          @R7,7
  21204  0000294C  00000001 USING  ORDINARY    0000294C 00001000 00000001   7 6FE   21824  $$$431B,7
  21218  0000294C  00000001 USING  ORDINARY    FFFFFFD8 00001000 FFFFFFD5   8 038   21767  GTWA-(4+36),R8
  21255  00002962  00000001 USING  ORDINARY    00000000 00001000 FFFFFFE1   5 024   21278  VNENTRY,R5
  21343  000029A0  00000001 USING  ORDINARY    00000000 00001000 FFFFFFF9   5 000          @R5,5
1PROC     (PROC2193) (12:51) (15MAR04) Using Map                                                                            Page  349
  21376  000029B6  00000001 USING  ORDINARY    00000000 00001000 FFFFFFE1   2 026   21429  VNENTRY,R2
  21448  000029D6  00000001 USING  ORDINARY    00000000 00001000 FFFFFFFC   2 000          @R2,2
  21461  000029D6  00000001 USING  ORDINARY    00000000 00001000 FFFFFFE1   2 024   21485  VNENTRY,R2
  21496  000029F6  00000001 USING  ORDINARY    00000000 00001000 FFFFFFFC   2 000          @R2,2
  21527  00002A00  00000001 USING  ORDINARY    00000000 00001000 FFFFFFE1   2 026   21574  VNENTRY,R2
  21593  00002A28  00000001 USING  ORDINARY    00000000 00001000 FFFFFFFC   2 000          @R2,2
  21625  00002A2C  00000001 USING  ORDINARY    00000000 00001000 FFFFFFE1   2 024   21649  VNENTRY,R2
  21660  00002A4C  00000001 USING  ORDINARY    00000000 00001000 FFFFFFFC   2 000          @R2,2
  21681  00002A50  00000001 USING  ORDINARY    00000000 00001000 FFFFFFE1   2 026   21734  VNENTRY,R2
  21753  00002A70  00000001 USING  ORDINARY    00000000 00001000 FFFFFFFC   2 000          @R2,2
  21784  00002A7A  00000001 USING  ORDINARY    00000000 00001000 FFFFFFE1   2 026   21831  VNENTRY,R2
  21850  00002AA2  00000001 USING  ORDINARY    00000000 00001000 FFFFFFFC   2 000          @R2,2
  21871  00002AA2  00000001 USING  ORDINARY    00000000 00001000 FFFFFFF6   8 000          @R8,8
  21876  00002AA2  00000001 USING  ORDINARY    00000000 00001000 FFFFFFF7   7 000          @R7,7
  21932  00002ACA  00000001 USING  ORDINARY    00002ACA 00001000 00000001   7 598   22552  $$$454B,7
  21946  00002ACA  00000001 USING  ORDINARY    FFFFFFD8 00001000 FFFFFFD5   8 038   22495  GTWA-(4+36),R8
  21983  00002AE0  00000001 USING  ORDINARY    00000000 00001000 FFFFFFE1   5 024   22006  VNENTRY,R5
  22071  00002B1E  00000001 USING  ORDINARY    00000000 00001000 FFFFFFF9   5 000          @R5,5
  22104  00002B34  00000001 USING  ORDINARY    00000000 00001000 FFFFFFE1   2 026   22157  VNENTRY,R2
  22176  00002B54  00000001 USING  ORDINARY    00000000 00001000 FFFFFFFC   2 000          @R2,2
  22189  00002B54  00000001 USING  ORDINARY    00000000 00001000 FFFFFFE1   2 024   22213  VNENTRY,R2
  22224  00002B74  00000001 USING  ORDINARY    00000000 00001000 FFFFFFFC   2 000          @R2,2
  22255  00002B7E  00000001 USING  ORDINARY    00000000 00001000 FFFFFFE1   2 026   22302  VNENTRY,R2
  22321  00002BA6  00000001 USING  ORDINARY    00000000 00001000 FFFFFFFC   2 000          @R2,2
  22353  00002BAA  00000001 USING  ORDINARY    00000000 00001000 FFFFFFE1   2 024   22377  VNENTRY,R2
  22388  00002BCA  00000001 USING  ORDINARY    00000000 00001000 FFFFFFFC   2 000          @R2,2
  22409  00002BCE  00000001 USING  ORDINARY    00000000 00001000 FFFFFFE1   2 026   22462  VNENTRY,R2
  22481  00002BEE  00000001 USING  ORDINARY    00000000 00001000 FFFFFFFC   2 000          @R2,2
  22512  00002BF8  00000001 USING  ORDINARY    00000000 00001000 FFFFFFE1   2 026   22559  VNENTRY,R2
  22578  00002C20  00000001 USING  ORDINARY    00000000 00001000 FFFFFFFC   2 000          @R2,2
  22599  00002C20  00000001 USING  ORDINARY    00000000 00001000 FFFFFFF6   8 000          @R8,8
  22604  00002C20  00000001 USING  ORDINARY    00000000 00001000 FFFFFFF7   7 000          @R7,7
  22660  00002C48  00000001 USING  ORDINARY    00002C48 00001000 00000001   7 432   23280  $$$477B,7
  22674  00002C48  00000001 USING  ORDINARY    FFFFFFD8 00001000 FFFFFFD5   8 038   23223  GTWA-(4+36),R8
  22711  00002C5E  00000001 USING  ORDINARY    00000000 00001000 FFFFFFE1   5 024   22734  VNENTRY,R5
  22799  00002C9C  00000001 USING  ORDINARY    00000000 00001000 FFFFFFF9   5 000          @R5,5
  22832  00002CB2  00000001 USING  ORDINARY    00000000 00001000 FFFFFFE1   2 026   22885  VNENTRY,R2
  22904  00002CD2  00000001 USING  ORDINARY    00000000 00001000 FFFFFFFC   2 000          @R2,2
  22917  00002CD2  00000001 USING  ORDINARY    00000000 00001000 FFFFFFE1   2 024   22941  VNENTRY,R2
  22952  00002CF2  00000001 USING  ORDINARY    00000000 00001000 FFFFFFFC   2 000          @R2,2
  22983  00002CFC  00000001 USING  ORDINARY    00000000 00001000 FFFFFFE1   2 026   23030  VNENTRY,R2
  23049  00002D24  00000001 USING  ORDINARY    00000000 00001000 FFFFFFFC   2 000          @R2,2
  23081  00002D28  00000001 USING  ORDINARY    00000000 00001000 FFFFFFE1   2 024   23105  VNENTRY,R2
  23116  00002D48  00000001 USING  ORDINARY    00000000 00001000 FFFFFFFC   2 000          @R2,2
  23137  00002D4C  00000001 USING  ORDINARY    00000000 00001000 FFFFFFE1   2 026   23190  VNENTRY,R2
  23209  00002D6C  00000001 USING  ORDINARY    00000000 00001000 FFFFFFFC   2 000          @R2,2
  23240  00002D76  00000001 USING  ORDINARY    00000000 00001000 FFFFFFE1   2 026   23287  VNENTRY,R2
  23306  00002D9E  00000001 USING  ORDINARY    00000000 00001000 FFFFFFFC   2 000          @R2,2
  23327  00002D9E  00000001 USING  ORDINARY    00000000 00001000 FFFFFFF6   8 000          @R8,8
  23332  00002D9E  00000001 USING  ORDINARY    00000000 00001000 FFFFFFF7   7 000          @R7,7
  23388  00002DC6  00000001 USING  ORDINARY    00002DC6 00001000 00000001   7 2CC   24008  $$$500B,7
  23402  00002DC6  00000001 USING  ORDINARY    FFFFFFD8 00001000 FFFFFFD5   8 038   23951  GTWA-(4+36),R8
  23439  00002DDC  00000001 USING  ORDINARY    00000000 00001000 FFFFFFE1   5 024   23462  VNENTRY,R5
  23527  00002E1A  00000001 USING  ORDINARY    00000000 00001000 FFFFFFF9   5 000          @R5,5
  23560  00002E30  00000001 USING  ORDINARY    00000000 00001000 FFFFFFE1   2 026   23613  VNENTRY,R2
  23632  00002E50  00000001 USING  ORDINARY    00000000 00001000 FFFFFFFC   2 000          @R2,2
  23645  00002E50  00000001 USING  ORDINARY    00000000 00001000 FFFFFFE1   2 024   23669  VNENTRY,R2
  23680  00002E70  00000001 USING  ORDINARY    00000000 00001000 FFFFFFFC   2 000          @R2,2
  23711  00002E7A  00000001 USING  ORDINARY    00000000 00001000 FFFFFFE1   2 026   23758  VNENTRY,R2
1PROC     (PROC2193) (12:51) (15MAR04) Using Map                                                                            Page  350
  23777  00002EA2  00000001 USING  ORDINARY    00000000 00001000 FFFFFFFC   2 000          @R2,2
  23809  00002EA6  00000001 USING  ORDINARY    00000000 00001000 FFFFFFE1   2 024   23833  VNENTRY,R2
  23844  00002EC6  00000001 USING  ORDINARY    00000000 00001000 FFFFFFFC   2 000          @R2,2
  23865  00002ECA  00000001 USING  ORDINARY    00000000 00001000 FFFFFFE1   2 026   23918  VNENTRY,R2
  23937  00002EEA  00000001 USING  ORDINARY    00000000 00001000 FFFFFFFC   2 000          @R2,2
  23968  00002EF4  00000001 USING  ORDINARY    00000000 00001000 FFFFFFE1   2 026   24015  VNENTRY,R2
  24034  00002F1C  00000001 USING  ORDINARY    00000000 00001000 FFFFFFFC   2 000          @R2,2
  24055  00002F1C  00000001 USING  ORDINARY    00000000 00001000 FFFFFFF6   8 000          @R8,8
  24060  00002F1C  00000001 USING  ORDINARY    00000000 00001000 FFFFFFF7   7 000          @R7,7
  24114  00002F44  00000001 USING  ORDINARY    00002F44 00001000 00000001   7 154   24300  $$$523B,7
  24152  00002F54  00000001 USING  ORDINARY    00000000 00001000 FFFFFFE1   5 026   24203  VNENTRY,R5
  24209  00002F7A  00000001 USING  ORDINARY    00000000 00001000 FFFFFFF9   5 000          @R5,5
  24260  00002F8C  00000001 USING  ORDINARY    00000000 00001000 FFFFFFE1   2 026   24307  VNENTRY,R2
  24326  00002FB4  00000001 USING  ORDINARY    00000000 00001000 FFFFFFFC   2 000          @R2,2
  24347  00002FB4  00000001 USING  ORDINARY    00000000 00001000 FFFFFFF7   7 000          @R7,7
  24469  000030B8  00000001 USING  ORDINARY    000030B8 00001000 00000001   7 3A5   24679  $$$533B,7
  24483  000030B8  00000001 USING  ORDINARY    FFFFFFD8 00001000 FFFFFFD4   8 038   24619  LFWA-(4+36),R8
  24513  000030C6  00000001 USING  ORDINARY    00000000 00001000 FFFFFFE1   5 024   24516  VNENTRY,R5
  24697  0000315C  00000001 USING  ORDINARY    00000000 00001000 FFFFFFF6   8 000          @R8,8
  24702  0000315C  00000001 USING  ORDINARY    00000000 00001000 FFFFFFF7   7 000          @R7,7
  24721  0000316A  00000001 USING  ORDINARY    00000000 00001000 FFFFFFF9   5 000          @R5,5
  24761  00003184  00000001 USING  ORDINARY    00003184 00001000 00000001   7 294   24804  $$$544B,7
  24812  000031B6  00000001 USING  ORDINARY    00000000 00001000 FFFFFFF7   7 000          @R7,7
  24977  000031DE  00000001 USING  ORDINARY    000031DE 00001000 00000001   7 27C   25172  $$$556B,7
  24991  000031DE  00000001 USING  ORDINARY    FFFFFFD8 00001000 FFFFFFD3   8 028   24995  LTWA-(4+36),R8
  25003  000031E2  00000001 USING  ORDINARY    00000000 00001000 FFFFFFD3   6 010   25169  LTWA,R6
  25039  000031FA  00000001 USING  ORDINARY    00000000 00001000 FFFFFFE1   5 024   25042  VNENTRY,R5
  25185  0000329C  00000001 USING  ORDINARY    00000000 00001000 FFFFFFF6   8 000          @R8,8
  25190  0000329C  00000001 USING  ORDINARY    00000000 00001000 FFFFFFF7   7 000          @R7,7
  25209  000032AA  00000001 USING  ORDINARY    00000000 00001000 FFFFFFF9   5 000   25340  @R5,5
  25216  000032AA  00000001 USING  ORDINARY    00000000 00001000 FFFFFFF8   6 000          @R6,6
  25279  000032C4  00000001 USING  ORDINARY    000032C4 00001000 00000001   7 1D6   25404  $$$561B,7
  25293  000032C4  00000001 USING  ORDINARY    FFFFFFD8 00001000 FFFFFFD2   8 028   25309  LTOCWA-(4+36),R8
  25305  000032C8  00000001 USING  ORDINARY    00000000 00001000 FFFFFFD3   6 010   25401  LTWA,R6
  25413  00003316  00000001 USING  ORDINARY    00000000 00001000 FFFFFFF6   8 000          @R8,8
  25418  00003316  00000001 USING  ORDINARY    00000000 00001000 FFFFFFF7   7 000          @R7,7
  25437  00003324  00000001 USING  ORDINARY    00000000 00001000 FFFFFFF8   6 000          @R6,6
  25483  0000333E  00000001 USING  ORDINARY    0000333E 00001000 00000001   7 134   25644  $$$567B,7
  25501  00003342  00000001 USING  ORDINARY    00000000 00001000 FFFFFFD3   6 004   25567  LTWA,R6
  25514  00003344  00000001 USING  ORDINARY    00000000 00001000 FFFFFFE5   5 000   25643  SEGCB,R5
  25672  000033A4  00000001 USING  ORDINARY    00000000 00001000 FFFFFFF9   5 000          @R5,5
  25677  000033A4  00000001 USING  ORDINARY    00000000 00001000 FFFFFFF7   7 000          @R7,7
  25696  000033B2  00000001 USING  ORDINARY    00000000 00001000 FFFFFFF8   6 000          @R6,6
  25815  000034BA  00000001 USING  ORDINARY    000034BA 00001000 00000001   7 28C   26505  $$$576B,7
  25829  000034BA  00000001 USING  ORDINARY    FFFFFFD8 00001000 FFFFFFD1   8 128   26442  MINFOWA-(4+36),R8
  25876  000034E0  00000001 USING  ORDINARY    00000000 00001000 FFFFFFE1   5 026   25893  VNENTRY,R5
  25900  000034E8  00000001 USING  ORDINARY    00000000 00001000 FFFFFFF9   5 000          @R5,5
  26358  00003644  00000001 USING  ORDINARY    00000000 00001000 FFFFFFE1   5 026   26375  VNENTRY,R5
  26382  0000364C  00000001 USING  ORDINARY    00000000 00001000 FFFFFFF9   5 000          @R5,5
  26459  0000368E  00000001 USING  ORDINARY    00000000 00001000 FFFFFFE1   2 026   26512  VNENTRY,R2
  26531  000036AE  00000001 USING  ORDINARY    00000000 00001000 FFFFFFFC   2 000          @R2,2
  26548  000036B0  00000001 USING  ORDINARY    00000000 00001000 FFFFFFF6   8 000          @R8,8
  26553  000036B0  00000001 USING  ORDINARY    00000000 00001000 FFFFFFF7   7 000          @R7,7
  26757  00003766  00000001 USING  ORDINARY    00003766 00001000 00000001   7 2AA   27629  $$$606B,7
  26771  00003766  00000001 USING  ORDINARY    FFFFFFD8 00001000 FFFFFFD0   8 228   27544  MSHDRWA-(4+36),R8
  26812  00003786  00000001 USING  ORDINARY    00000000 00001000 FFFFFFE1   5 024   26817  VNENTRY,R5
  27580  000039A2  00000001 USING  ORDINARY    00000000 00001000 FFFFFFF9   5 000          @R5,5
  27583  000039A2  00000001 USING  ORDINARY    00000000 00001000 FFFFFFE1   2 026   27636  VNENTRY,R2
  27659  000039C2  00000001 USING  ORDINARY    00000000 00001000 FFFFFFE1   5 000          VNENTRY,5
1PROC     (PROC2193) (12:51) (15MAR04) Using Map                                                                            Page  351
  27664  000039C2  00000001 USING  ORDINARY    00000000 00001000 FFFFFFFC   2 000          @R2,2
  27671  000039C2  00000001 USING  ORDINARY    00000000 00001000 FFFFFFF9   5 000          @R5,5
  27682  000039C2  00000001 USING  ORDINARY    00000000 00001000 FFFFFFF6   8 000          @R8,8
  27687  000039C2  00000001 USING  ORDINARY    00000000 00001000 FFFFFFF7   7 000          @R7,7
  27816  00003A30  00000001 USING  ORDINARY    00003A30 00001000 00000001   7 394   28469  $$$636B,7
  27830  00003A30  00000001 USING  ORDINARY    FFFFFFD8 00001000 FFFFFFCF   8 178   28433  MLWA-(4+36),R8
  27854  00003A42  00000001 USING  ORDINARY    00000000 00001000 FFFFFFE1   5 024   27984  VNENTRY,R5
  28027  00003AD6  00000001 USING  ORDINARY    00000000 00001000 FFFFFFF9   5 000          @R5,5
  28363  00003CF0  00000001 USING  ORDINARY    00000000 00001000 FFFFFFE1   2 024   28387  VNENTRY,R2
  28398  00003D10  00000001 USING  ORDINARY    00000000 00001000 FFFFFFFC   2 000          @R2,2
  28411  00003D10  00000001 USING  ORDINARY    00000000 00001000 FFFFFFE1   2 024   28435  VNENTRY,R2
  28446  00003D30  00000001 USING  ORDINARY    00000000 00001000 FFFFFFFC   2 000          @R2,2
  28479  00003D5A  00000001 USING  ORDINARY    00000000 00001000 FFFFFFF6   8 000          @R8,8
  28484  00003D5A  00000001 USING  ORDINARY    00000000 00001000 FFFFFFF7   7 000          @R7,7
  28733  00003E0E  00000001 USING  ORDINARY    00003E0E 00001000 00000001   7 C96   29116  $$$657B,7
  28747  00003E0E  00000001 USING  ORDINARY    FFFFFFD8 00001000 FFFFFFCE   8 128   28994  NWA-(4+36),R8
  28789  00003E4C  00000001 USING  ORDINARY    00000000 00001000 FFFFFFE1   5 026   28859  VNENTRY,R5
  28808  00003E60  00000001 USING  ORDINARY    00000000 00001000 FFFFFFE3   4 164   28962  UNET,R4
  29016  00003F40  00000001 USING  ORDINARY    00000000 00001000 FFFFFFF9   5 000          @R5,5
  29019  00003F40  00000001 USING  ORDINARY    00000000 00001000 FFFFFFE1   2 026   29072  VNENTRY,R2
  29095  00003F60  00000001 USING  ORDINARY    00000000 00001000 FFFFFFE1   5 000          VNENTRY,5
  29100  00003F60  00000001 USING  ORDINARY    00000000 00001000 FFFFFFFC   2 000          @R2,2
  29124  00003F70  00000001 USING  ORDINARY    00000000 00001000 FFFFFFF9   5 000          @R5,5
  29129  00003F70  00000001 USING  ORDINARY    00000000 00001000 FFFFFFF6   8 000          @R8,8
  29134  00003F70  00000001 USING  ORDINARY    00000000 00001000 FFFFFFF7   7 000          @R7,7
  29158  00003F7E  00000001 USING  ORDINARY    00000000 00001000 FFFFFFCE   6 000          NWA,R6
  29206  00003FC2  00000001 USING  ORDINARY    00003FC2 00001000 00000001   7 000          $$$667B,7
  29222  00003FC6  00000001 USING  ORDINARY    00000000 00001000 FFFFFFF7   7 000          @R7,7
  29241  00003FD4  00000001 USING  ORDINARY    00000000 00001000 FFFFFFF8   6 000          @R6,6
  29248  00003FD4  00000001 USING  ORDINARY    00000000 00001000 FFFFFFFA   4 000          @R4,4
  29289  00003FEE  00000001 USING  ORDINARY    00003FEE 00001000 00000001   7 AC2   30120  $$$670B,7
  29303  00003FEE  00000001 USING  ORDINARY    FFFFFFD8 00001000 FFFFFFCE   8 128   29986  NWA-(4+36),R8
  29346  00004030  00000001 USING  ORDINARY    00000000 00001000 FFFFFFE1   5 026   29396  VNENTRY,R5
  29365  00004044  00000001 USING  ORDINARY    00000000 00001000 FFFFFFE3   4 260   31919  UNET,R4
  29675  00004172  00000001 USING  ORDINARY    00000000 00001000 FFFFFFF9   5 000          @R5,5
  29678  00004172  00000001 USING  ORDINARY    00000000 00001000 FFFFFFE1   2 024   29700  VNENTRY,R2
  29716  0000418A  00000001 USING  ORDINARY    00000000 00001000 FFFFFFE1   5 000          VNENTRY,5
  29721  0000418A  00000001 USING  ORDINARY    00000000 00001000 FFFFFFFC   2 000          @R2,2
  29776  000041B0  00000001 USING  ORDINARY    00000000 00001000 FFFFFFF9   5 000          @R5,5
  29779  000041B0  00000001 USING  ORDINARY    00000000 00001000 FFFFFFE1   2 024   29802  VNENTRY,R2
  29817  000041CC  00000001 USING  ORDINARY    00000000 00001000 FFFFFFE1   5 000          VNENTRY,5
  29822  000041CC  00000001 USING  ORDINARY    00000000 00001000 FFFFFFFC   2 000          @R2,2
  29877  000041F0  00000001 USING  ORDINARY    00000000 00001000 FFFFFFF9   5 000          @R5,5
  29880  000041F0  00000001 USING  ORDINARY    00000000 00001000 FFFFFFE1   2 026   29933  VNENTRY,R2
  29956  00004210  00000001 USING  ORDINARY    00000000 00001000 FFFFFFE1   5 000          VNENTRY,5
  29961  00004210  00000001 USING  ORDINARY    00000000 00001000 FFFFFFFC   2 000          @R2,2
  30020  00004226  00000001 USING  ORDINARY    00000000 00001000 FFFFFFF9   5 000          @R5,5
  30023  00004226  00000001 USING  ORDINARY    00000000 00001000 FFFFFFE1   2 026   30076  VNENTRY,R2
  30099  00004246  00000001 USING  ORDINARY    00000000 00001000 FFFFFFE1   5 000          VNENTRY,5
  30104  00004246  00000001 USING  ORDINARY    00000000 00001000 FFFFFFFC   2 000          @R2,2
  30128  00004256  00000001 USING  ORDINARY    00000000 00001000 FFFFFFF9   5 000          @R5,5
  30133  00004256  00000001 USING  ORDINARY    00000000 00001000 FFFFFFF6   8 000          @R8,8
  30138  00004256  00000001 USING  ORDINARY    00000000 00001000 FFFFFFF7   7 000          @R7,7
  30162  00004264  00000001 USING  ORDINARY    00000000 00001000 FFFFFFCE   6 024   31795  NWA,R6
  30510  000045C6  00000001 USING  ORDINARY    000045C6 00001000 00000001   7 44A   30525  $$$689B,7
  30532  000045D0  00000001 USING  ORDINARY    00000000 00001000 FFFFFFF7   7 000          @R7,7
  30577  000045F8  00000001 USING  ORDINARY    000045F8 00001000 00000001   7 420   30592  $$$692B,7
  30599  00004602  00000001 USING  ORDINARY    00000000 00001000 FFFFFFF7   7 000          @R7,7
  30644  0000462A  00000001 USING  ORDINARY    0000462A 00001000 00000001   7 000          $$$695B,7
1PROC     (PROC2193) (12:51) (15MAR04) Using Map                                                                            Page  352
  30665  0000462E  00000001 USING  ORDINARY    00000000 00001000 FFFFFFF7   7 000          @R7,7
  30710  00004656  00000001 USING  ORDINARY    00004656 00001000 00000001   7 012   30736  $$$698B,7
  30756  00004668  00000001 USING  ORDINARY    00000000 00001000 FFFFFFF7   7 000          @R7,7
  30801  00004690  00000001 USING  ORDINARY    00004690 00001000 00000001   7 000          $$$702B,7
  30822  00004694  00000001 USING  ORDINARY    00000000 00001000 FFFFFFF7   7 000          @R7,7
  30867  000046BC  00000001 USING  ORDINARY    000046BC 00001000 00000001   7 000          $$$705B,7
  30889  000046C0  00000001 USING  ORDINARY    00000000 00001000 FFFFFFF7   7 000          @R7,7
  30934  000046E8  00000001 USING  ORDINARY    000046E8 00001000 00000001   7 000          $$$708B,7
  30955  000046EC  00000001 USING  ORDINARY    00000000 00001000 FFFFFFF7   7 000          @R7,7
  31000  00004714  00000001 USING  ORDINARY    00004714 00001000 00000001   7 000          $$$711B,7
  31022  00004718  00000001 USING  ORDINARY    00000000 00001000 FFFFFFF7   7 000          @R7,7
  31067  00004740  00000001 USING  ORDINARY    00004740 00001000 00000001   7 376   31151  $$$714B,7
  31180  000047AC  00000001 USING  ORDINARY    00000000 00001000 FFFFFFF7   7 000          @R7,7
  31225  000047D4  00000001 USING  ORDINARY    000047D4 00001000 00000001   7 014   31259  $$$721B,7
  31281  000047F0  00000001 USING  ORDINARY    00000000 00001000 FFFFFFF7   7 000          @R7,7
  31326  00004818  00000001 USING  ORDINARY    00004818 00001000 00000001   7 000          $$$725B,7
  31348  00004820  00000001 USING  ORDINARY    00000000 00001000 FFFFFFF7   7 000          @R7,7
  31393  00004848  00000001 USING  ORDINARY    00004848 00001000 00000001   7 000          $$$728B,7
  31415  00004850  00000001 USING  ORDINARY    00000000 00001000 FFFFFFF7   7 000          @R7,7
  31460  00004878  00000001 USING  ORDINARY    00004878 00001000 00000001   7 000          $$$731B,7
  31482  00004880  00000001 USING  ORDINARY    00000000 00001000 FFFFFFF7   7 000          @R7,7
  31527  000048A8  00000001 USING  ORDINARY    000048A8 00001000 00000001   7 000          $$$734B,7
  31549  000048B0  00000001 USING  ORDINARY    00000000 00001000 FFFFFFF7   7 000          @R7,7
  31594  000048D8  00000001 USING  ORDINARY    000048D8 00001000 00000001   7 000          $$$737B,7
  31616  000048E0  00000001 USING  ORDINARY    00000000 00001000 FFFFFFF7   7 000          @R7,7
  31661  00004908  00000001 USING  ORDINARY    00004908 00001000 00000001   7 000          $$$740B,7
  31679  00004914  00000001 USING  ORDINARY    00000000 00001000 FFFFFFF7   7 000          @R7,7
  31724  0000493C  00000001 USING  ORDINARY    0000493C 00001000 00000001   7 000          $$$743B,7
  31740  00004940  00000001 USING  ORDINARY    00000000 00001000 FFFFFFF7   7 000          @R7,7
  31785  00004968  00000001 USING  ORDINARY    00004968 00001000 00000001   7 000          $$$746B,7
  31803  00004974  00000001 USING  ORDINARY    00000000 00001000 FFFFFFF7   7 000          @R7,7
  31848  0000499C  00000001 USING  ORDINARY    0000499C 00001000 00000001   7 0CC   31857  $$$749B,7
  31865  000049A4  00000001 USING  ORDINARY    00000000 00001000 FFFFFFF7   7 000          @R7,7
  31910  000049CC  00000001 USING  ORDINARY    000049CC 00001000 00000001   7 000          $$$752B,7
  31926  000049D0  00000001 USING  ORDINARY    00000000 00001000 FFFFFFF7   7 000          @R7,7
  31971  000049F8  00000001 USING  ORDINARY    000049F8 00001000 00000001   7 000          $$$755B,7
  31987  000049FC  00000001 USING  ORDINARY    00000000 00001000 FFFFFFF7   7 000          @R7,7
  32006  00004A0A  00000001 USING  ORDINARY    00000000 00001000 FFFFFFF8   6 000          @R6,6
  32013  00004A0A  00000001 USING  ORDINARY    00000000 00001000 FFFFFFFA   4 000          @R4,4
  32099  00004AD6  00000001 USING  ORDINARY    00004AD6 00001000 00000001   7 9D6   32619  $$$758B,7
  32113  00004AD6  00000001 USING  ORDINARY    FFFFFFD8 00001000 FFFFFFCE   8 128   32585  NWA-(4+36),R8
  32155  00004B14  00000001 USING  ORDINARY    00000000 00001000 FFFFFFE1   5 026   32225  VNENTRY,R5
  32185  00004B24  00000001 USING  ORDINARY    00000000 00001000 FFFFFFE3   4 1DC   34553  UNET,R4
  32408  00004C0C  00000001 USING  ORDINARY    00000000 00001000 FFFFFFF9   5 000          @R5,5
  32411  00004C0C  00000001 USING  ORDINARY    00000000 00001000 FFFFFFE1   2 026   32464  VNENTRY,R2
  32487  00004C2C  00000001 USING  ORDINARY    00000000 00001000 FFFFFFE1   5 000          VNENTRY,5
  32492  00004C2C  00000001 USING  ORDINARY    00000000 00001000 FFFFFFFC   2 000          @R2,2
  32560  00004C46  00000001 USING  ORDINARY    00000000 00001000 FFFFFFF9   5 000          @R5,5
  32563  00004C46  00000001 USING  ORDINARY    00000000 00001000 FFFFFFE1   2 024   32586  VNENTRY,R2
  32602  00004C62  00000001 USING  ORDINARY    00000000 00001000 FFFFFFE1   5 000          VNENTRY,5
  32607  00004C62  00000001 USING  ORDINARY    00000000 00001000 FFFFFFFC   2 000          @R2,2
  32627  00004C72  00000001 USING  ORDINARY    00000000 00001000 FFFFFFF9   5 000          @R5,5
  32632  00004C72  00000001 USING  ORDINARY    00000000 00001000 FFFFFFF6   8 000          @R8,8
  32637  00004C72  00000001 USING  ORDINARY    00000000 00001000 FFFFFFF7   7 000          @R7,7
  32661  00004C80  00000001 USING  ORDINARY    00000000 00001000 FFFFFFCE   6 000          NWA,R6
  32979  00004F92  00000001 USING  ORDINARY    00004F92 00001000 00000001   7 000          $$$771B,7
  33000  00004F96  00000001 USING  ORDINARY    00000000 00001000 FFFFFFF7   7 000          @R7,7
  33045  00004FBE  00000001 USING  ORDINARY    00004FBE 00001000 00000001   7 012   33071  $$$774B,7
  33091  00004FD0  00000001 USING  ORDINARY    00000000 00001000 FFFFFFF7   7 000          @R7,7
1PROC     (PROC2193) (12:51) (15MAR04) Using Map                                                                            Page  353
  33158  00004FF8  00000001 USING  ORDINARY    00004FF8 00001000 00000001   7 4BA   33245  $$$778B,7
  33172  00004FF8  00000001 USING  ORDINARY    FFFFFFD8 00001000 FFFFFFCD   8 000          NOPHOSWA-(4+36),R8
  33274  00005060  00000001 USING  ORDINARY    00000000 00001000 FFFFFFF6   8 000          @R8,8
  33279  00005060  00000001 USING  ORDINARY    00000000 00001000 FFFFFFF7   7 000          @R7,7
  33324  00005088  00000001 USING  ORDINARY    00005088 00001000 00000001   7 000          $$$785B,7
  33344  0000508E  00000001 USING  ORDINARY    00000000 00001000 FFFFFFF7   7 000          @R7,7
  33389  000050B6  00000001 USING  ORDINARY    000050B6 00001000 00000001   7 39E   33432  $$$788B,7
  33456  000050CE  00000001 USING  ORDINARY    00000000 00001000 FFFFFFF7   7 000          @R7,7
  33501  000050F6  00000001 USING  ORDINARY    000050F6 00001000 00000001   7 000          $$$793B,7
  33517  000050FA  00000001 USING  ORDINARY    00000000 00001000 FFFFFFF7   7 000          @R7,7
  33562  00005122  00000001 USING  ORDINARY    00005122 00001000 00000001   7 000          $$$796B,7
  33578  00005126  00000001 USING  ORDINARY    00000000 00001000 FFFFFFF7   7 000          @R7,7
  33623  0000514E  00000001 USING  ORDINARY    0000514E 00001000 00000001   7 000          $$$799B,7
  33639  00005152  00000001 USING  ORDINARY    00000000 00001000 FFFFFFF7   7 000          @R7,7
  33684  0000517A  00000001 USING  ORDINARY    0000517A 00001000 00000001   7 000          $$$802B,7
  33705  0000517E  00000001 USING  ORDINARY    00000000 00001000 FFFFFFF7   7 000          @R7,7
  33750  000051A6  00000001 USING  ORDINARY    000051A6 00001000 00000001   7 000          $$$805B,7
  33772  000051AA  00000001 USING  ORDINARY    00000000 00001000 FFFFFFF7   7 000          @R7,7
  33817  000051D2  00000001 USING  ORDINARY    000051D2 00001000 00000001   7 000          $$$808B,7
  33838  000051D6  00000001 USING  ORDINARY    00000000 00001000 FFFFFFF7   7 000          @R7,7
  33883  000051FE  00000001 USING  ORDINARY    000051FE 00001000 00000001   7 000          $$$811B,7
  33905  00005202  00000001 USING  ORDINARY    00000000 00001000 FFFFFFF7   7 000          @R7,7
  33950  0000522A  00000001 USING  ORDINARY    0000522A 00001000 00000001   7 28E   34028  $$$814B,7
  34057  00005292  00000001 USING  ORDINARY    00000000 00001000 FFFFFFF7   7 000          @R7,7
  34102  000052BA  00000001 USING  ORDINARY    000052BA 00001000 00000001   7 014   34135  $$$821B,7
  34157  000052CE  00000001 USING  ORDINARY    00000000 00001000 FFFFFFF7   7 000          @R7,7
  34202  000052F6  00000001 USING  ORDINARY    000052F6 00001000 00000001   7 000          $$$826B,7
  34223  000052FA  00000001 USING  ORDINARY    00000000 00001000 FFFFFFF7   7 000          @R7,7
  34268  00005322  00000001 USING  ORDINARY    00005322 00001000 00000001   7 000          $$$829B,7
  34289  00005326  00000001 USING  ORDINARY    00000000 00001000 FFFFFFF7   7 000          @R7,7
  34334  0000534E  00000001 USING  ORDINARY    0000534E 00001000 00000001   7 148   34424  $$$832B,7
  34437  00005386  00000001 USING  ORDINARY    00000000 00001000 FFFFFFF7   7 000          @R7,7
  34482  000053AE  00000001 USING  ORDINARY    000053AE 00001000 00000001   7 0E5   34572  $$$839B,7
  34585  000053E6  00000001 USING  ORDINARY    00000000 00001000 FFFFFFF7   7 000          @R7,7
  34630  0000540E  00000001 USING  ORDINARY    0000540E 00001000 00000001   7 000          $$$846B,7
  34646  00005412  00000001 USING  ORDINARY    00000000 00001000 FFFFFFF7   7 000          @R7,7
  34665  00005420  00000001 USING  ORDINARY    00000000 00001000 FFFFFFF8   6 000          @R6,6
  34672  00005420  00000001 USING  ORDINARY    00000000 00001000 FFFFFFFA   4 000          @R4,4
  34751  000054D8  00000001 USING  ORDINARY    000054D8 00001000 00000001   7 7B0   35347  $$$849B,7
  34765  000054D8  00000001 USING  ORDINARY    FFFFFFD8 00001000 FFFFFFCE   8 128   35225  NWA-(4+36),R8
  34807  00005516  00000001 USING  ORDINARY    00000000 00001000 FFFFFFE1   5 000          VNENTRY,R5
  34848  00005524  00000001 USING  ORDINARY    00000000 00001000 FFFFFFF9   5 000          @R5,5
  34851  00005524  00000001 USING  ORDINARY    00000000 00001000 FFFFFFE1   2 026   34904  VNENTRY,R2
  34927  00005548  00000001 USING  ORDINARY    00000000 00001000 FFFFFFE1   5 026   34986  VNENTRY,5
  34932  00005548  00000001 USING  ORDINARY    00000000 00001000 FFFFFFFC   2 000          @R2,2
  34953  00005558  00000001 USING  ORDINARY    00000000 00001000 FFFFFFE3   4 070   35572  UNET,R4
  35082  00005602  00000001 USING  ORDINARY    00000000 00001000 FFFFFFF9   5 000          @R5,5
  35085  00005602  00000001 USING  ORDINARY    00000000 00001000 FFFFFFE1   2 026   35138  VNENTRY,R2
  35161  00005622  00000001 USING  ORDINARY    00000000 00001000 FFFFFFE1   5 000          VNENTRY,5
  35166  00005622  00000001 USING  ORDINARY    00000000 00001000 FFFFFFFC   2 000          @R2,2
  35247  0000565C  00000001 USING  ORDINARY    00000000 00001000 FFFFFFF9   5 000          @R5,5
  35250  0000565C  00000001 USING  ORDINARY    00000000 00001000 FFFFFFE1   2 026   35303  VNENTRY,R2
  35326  0000567C  00000001 USING  ORDINARY    00000000 00001000 FFFFFFE1   5 000          VNENTRY,5
  35331  0000567C  00000001 USING  ORDINARY    00000000 00001000 FFFFFFFC   2 000          @R2,2
  35355  0000568C  00000001 USING  ORDINARY    00000000 00001000 FFFFFFF9   5 000          @R5,5
  35360  0000568C  00000001 USING  ORDINARY    00000000 00001000 FFFFFFF6   8 000          @R8,8
  35365  0000568C  00000001 USING  ORDINARY    00000000 00001000 FFFFFFF7   7 000          @R7,7
  35389  0000569A  00000001 USING  ORDINARY    00000000 00001000 FFFFFFCE   6 000          NWA,R6
  35467  0000572E  00000001 USING  ORDINARY    0000572E 00001000 00000001   7 000          $$$865B,7
1PROC     (PROC2193) (12:51) (15MAR04) Using Map                                                                            Page  354
  35488  00005732  00000001 USING  ORDINARY    00000000 00001000 FFFFFFF7   7 000          @R7,7
  35533  0000575A  00000001 USING  ORDINARY    0000575A 00001000 00000001   7 012   35559  $$$868B,7
  35579  0000576C  00000001 USING  ORDINARY    00000000 00001000 FFFFFFF7   7 000          @R7,7
  35624  00005794  00000001 USING  ORDINARY    00005794 00001000 00000001   7 000          $$$872B,7
  35640  00005798  00000001 USING  ORDINARY    00000000 00001000 FFFFFFF7   7 000          @R7,7
  35659  000057A6  00000001 USING  ORDINARY    00000000 00001000 FFFFFFF8   6 000          @R6,6
  35666  000057A6  00000001 USING  ORDINARY    00000000 00001000 FFFFFFFA   4 000          @R4,4
  35707  000057C0  00000001 USING  ORDINARY    000057C0 00001000 00000001   7 4D4   36422  $$$875B,7
  35721  000057C0  00000001 USING  ORDINARY    FFFFFFD8 00001000 FFFFFFCE   8 12C   36384  NWA-(4+36),R8
  35764  00005802  00000001 USING  ORDINARY    00000000 00001000 FFFFFFE1   5 026   35846  VNENTRY,R5
  35785  00005816  00000001 USING  ORDINARY    00000000 00001000 FFFFFFE3   4 070   36692  UNET,R4
  36232  0000596A  00000001 USING  ORDINARY    00000000 00001000 FFFFFFF9   5 000          @R5,5
  36235  0000596A  00000001 USING  ORDINARY    00000000 00001000 FFFFFFE1   2 026   36288  VNENTRY,R2
  36311  0000598A  00000001 USING  ORDINARY    00000000 00001000 FFFFFFE1   5 000          VNENTRY,5
  36316  0000598A  00000001 USING  ORDINARY    00000000 00001000 FFFFFFFC   2 000          @R2,2
  36359  00005994  00000001 USING  ORDINARY    00000000 00001000 FFFFFFF9   5 000          @R5,5
  36362  00005994  00000001 USING  ORDINARY    00000000 00001000 FFFFFFE1   2 024   36385  VNENTRY,R2
  36401  000059B0  00000001 USING  ORDINARY    00000000 00001000 FFFFFFE1   5 000          VNENTRY,5
  36406  000059B0  00000001 USING  ORDINARY    00000000 00001000 FFFFFFFC   2 000          @R2,2
  36430  000059C0  00000001 USING  ORDINARY    00000000 00001000 FFFFFFF9   5 000          @R5,5
  36435  000059C0  00000001 USING  ORDINARY    00000000 00001000 FFFFFFF6   8 000          @R8,8
  36440  000059C0  00000001 USING  ORDINARY    00000000 00001000 FFFFFFF7   7 000          @R7,7
  36464  000059CE  00000001 USING  ORDINARY    00000000 00001000 FFFFFFCE   6 03E   36923  NWA,R6
  36587  00005ADA  00000001 USING  ORDINARY    00005ADA 00001000 00000001   7 000          $$$894B,7
  36608  00005ADE  00000001 USING  ORDINARY    00000000 00001000 FFFFFFF7   7 000          @R7,7
  36653  00005B06  00000001 USING  ORDINARY    00005B06 00001000 00000001   7 012   36679  $$$897B,7
  36699  00005B18  00000001 USING  ORDINARY    00000000 00001000 FFFFFFF7   7 000          @R7,7
  36744  00005B40  00000001 USING  ORDINARY    00005B40 00001000 00000001   7 000          $$$901B,7
  36760  00005B44  00000001 USING  ORDINARY    00000000 00001000 FFFFFFF7   7 000          @R7,7
  36805  00005B6C  00000001 USING  ORDINARY    00005B6C 00001000 00000001   7 000          $$$904B,7
  36821  00005B70  00000001 USING  ORDINARY    00000000 00001000 FFFFFFF7   7 000          @R7,7
  36866  00005B98  00000001 USING  ORDINARY    00005B98 00001000 00000001   7 0B0   36918  $$$907B,7
  36934  00005BC0  00000001 USING  ORDINARY    00000000 00001000 FFFFFFF7   7 000          @R7,7
  36979  00005BE8  00000001 USING  ORDINARY    00005BE8 00001000 00000001   7 000          $$$911B,7
  36995  00005BEC  00000001 USING  ORDINARY    00000000 00001000 FFFFFFF7   7 000          @R7,7
  37014  00005BFA  00000001 USING  ORDINARY    00000000 00001000 FFFFFFF8   6 000          @R6,6
  37021  00005BFA  00000001 USING  ORDINARY    00000000 00001000 FFFFFFFA   4 000          @R4,4
  37105  00005CB4  00000001 USING  ORDINARY    00005CB4 00001000 00000001   7 F73   37286  $$$914B,7
  37124  00005CB6  00000001 USING  ORDINARY    00000000 00001000 FFFFFFE5   5 038   37168  SEGCB,R5
  37138  00005CBA  00000001 USING  ORDINARY    00000000 00001000 FFFFFFCE   6 0FC   37294  NWA,R6
  37318  00005D3A  00000001 USING  ORDINARY    00000000 00001000 FFFFFFF8   6 000          @R6,6
  37323  00005D3A  00000001 USING  ORDINARY    00000000 00001000 FFFFFFF9   5 000          @R5,5
  37328  00005D3A  00000001 USING  ORDINARY    00000000 00001000 FFFFFFF7   7 000          @R7,7
  37381  00005D62  00000001 USING  ORDINARY    00005D62 00001000 00000001   7 EFA   37706  $$$924B,7
  37395  00005D62  00000001 USING  ORDINARY    FFFFFFD8 00001000 FFFFFFCE   8 128   37584  NWA-(4+36),R8
  37437  00005DA0  00000001 USING  ORDINARY    00000000 00001000 FFFFFFE1   5 026   37489  VNENTRY,R5
  37458  00005DB4  00000001 USING  ORDINARY    00000000 00001000 FFFFFFE3   4 070   37471  UNET,R4
  37606  00005E6A  00000001 USING  ORDINARY    00000000 00001000 FFFFFFF9   5 000          @R5,5
  37609  00005E6A  00000001 USING  ORDINARY    00000000 00001000 FFFFFFE1   2 026   37662  VNENTRY,R2
  37685  00005E8A  00000001 USING  ORDINARY    00000000 00001000 FFFFFFE1   5 000          VNENTRY,5
  37690  00005E8A  00000001 USING  ORDINARY    00000000 00001000 FFFFFFFC   2 000          @R2,2
  37714  00005E9A  00000001 USING  ORDINARY    00000000 00001000 FFFFFFF9   5 000          @R5,5
  37719  00005E9A  00000001 USING  ORDINARY    00000000 00001000 FFFFFFF6   8 000          @R8,8
  37724  00005E9A  00000001 USING  ORDINARY    00000000 00001000 FFFFFFF7   7 000          @R7,7
  37748  00005EA8  00000001 USING  ORDINARY    00000000 00001000 FFFFFFCE   6 000          NWA,R6
  37796  00005EEA  00000001 USING  ORDINARY    00005EEA 00001000 00000001   7 000          $$$932B,7
  37812  00005EEE  00000001 USING  ORDINARY    00000000 00001000 FFFFFFF7   7 000          @R7,7
  37831  00005EFC  00000001 USING  ORDINARY    00000000 00001000 FFFFFFF8   6 000          @R6,6
  37838  00005EFC  00000001 USING  ORDINARY    00000000 00001000 FFFFFFFA   4 000          @R4,4
1PROC     (PROC2193) (12:51) (15MAR04) Using Map                                                                            Page  355
  37879  00005F16  00000001 USING  ORDINARY    00005F16 00001000 00000001   7 D4C   38329  $$$935B,7
  37893  00005F16  00000001 USING  ORDINARY    FFFFFFD8 00001000 FFFFFFCE   8 128   38207  NWA-(4+36),R8
  37935  00005F54  00000001 USING  ORDINARY    00000000 00001000 FFFFFFE1   5 026   38122  VNENTRY,R5
  37955  00005F68  00000001 USING  ORDINARY    00000000 00001000 FFFFFFE3   4 070   38173  UNET,R4
  38229  0000607A  00000001 USING  ORDINARY    00000000 00001000 FFFFFFF9   5 000          @R5,5
  38232  0000607A  00000001 USING  ORDINARY    00000000 00001000 FFFFFFE1   2 026   38285  VNENTRY,R2
  38308  0000609A  00000001 USING  ORDINARY    00000000 00001000 FFFFFFE1   5 000          VNENTRY,5
  38313  0000609A  00000001 USING  ORDINARY    00000000 00001000 FFFFFFFC   2 000          @R2,2
  38337  000060AA  00000001 USING  ORDINARY    00000000 00001000 FFFFFFF9   5 000          @R5,5
  38342  000060AA  00000001 USING  ORDINARY    00000000 00001000 FFFFFFF6   8 000          @R8,8
  38347  000060AA  00000001 USING  ORDINARY    00000000 00001000 FFFFFFF7   7 000          @R7,7
  38371  000060B8  00000001 USING  ORDINARY    00000000 00001000 FFFFFFCE   6 004   38668  NWA,R6
  38464  00006172  00000001 USING  ORDINARY    00006172 00001000 00000001   7 000          $$$948B,7
  38486  00006176  00000001 USING  ORDINARY    00000000 00001000 FFFFFFF7   7 000          @R7,7
  38531  0000619E  00000001 USING  ORDINARY    0000619E 00001000 00000001   7 000          $$$951B,7
  38552  000061A2  00000001 USING  ORDINARY    00000000 00001000 FFFFFFF7   7 000          @R7,7
  38597  000061CA  00000001 USING  ORDINARY    000061CA 00001000 00000001   7 9DA   38662  $$$954B,7
  38683  000061F2  00000001 USING  ORDINARY    00000000 00001000 FFFFFFF7   7 000          @R7,7
  38728  0000621A  00000001 USING  ORDINARY    0000621A 00001000 00000001   7 000          $$$960B,7
  38744  0000621E  00000001 USING  ORDINARY    00000000 00001000 FFFFFFF7   7 000          @R7,7
  38763  0000622C  00000001 USING  ORDINARY    00000000 00001000 FFFFFFF8   6 000          @R6,6
  38770  0000622C  00000001 USING  ORDINARY    00000000 00001000 FFFFFFFA   4 000          @R4,4
  38812  00006246  00000001 USING  ORDINARY    00006246 00001000 00000001   7 A22   39166  $$$963B,7
  38826  00006246  00000001 USING  ORDINARY    FFFFFFD8 00001000 FFFFFFCE   8 128   39044  NWA-(4+36),R8
  38868  00006284  00000001 USING  ORDINARY    00000000 00001000 FFFFFFE1   5 026   39013  VNENTRY,R5
  38888  00006298  00000001 USING  ORDINARY    00000000 00001000 FFFFFFE3   4 070   39016  UNET,R4
  39066  0000636A  00000001 USING  ORDINARY    00000000 00001000 FFFFFFF9   5 000          @R5,5
  39069  0000636A  00000001 USING  ORDINARY    00000000 00001000 FFFFFFE1   2 026   39122  VNENTRY,R2
  39145  0000638A  00000001 USING  ORDINARY    00000000 00001000 FFFFFFE1   5 000          VNENTRY,5
  39150  0000638A  00000001 USING  ORDINARY    00000000 00001000 FFFFFFFC   2 000          @R2,2
  39174  0000639A  00000001 USING  ORDINARY    00000000 00001000 FFFFFFF9   5 000          @R5,5
  39179  0000639A  00000001 USING  ORDINARY    00000000 00001000 FFFFFFF6   8 000          @R8,8
  39184  0000639A  00000001 USING  ORDINARY    00000000 00001000 FFFFFFF7   7 000          @R7,7
  39208  000063A8  00000001 USING  ORDINARY    00000000 00001000 FFFFFFCE   6 000          NWA,R6
  39256  000063EA  00000001 USING  ORDINARY    000063EA 00001000 00000001   7 000          $$$972B,7
  39272  000063EE  00000001 USING  ORDINARY    00000000 00001000 FFFFFFF7   7 000          @R7,7
  39291  000063FC  00000001 USING  ORDINARY    00000000 00001000 FFFFFFF8   6 000          @R6,6
  39298  000063FC  00000001 USING  ORDINARY    00000000 00001000 FFFFFFFA   4 000          @R4,4
  39339  00006416  00000001 USING  ORDINARY    00006416 00001000 00000001   7 858   39778  $$$975B,7
  39353  00006416  00000001 USING  ORDINARY    FFFFFFD8 00001000 FFFFFFCE   8 128   39656  NWA-(4+36),R8
  39395  00006454  00000001 USING  ORDINARY    00000000 00001000 FFFFFFE1   5 026   39533  VNENTRY,R5
  39415  00006468  00000001 USING  ORDINARY    00000000 00001000 FFFFFFE3   4 10C   40075  UNET,R4
  39678  00006566  00000001 USING  ORDINARY    00000000 00001000 FFFFFFF9   5 000          @R5,5
  39681  00006566  00000001 USING  ORDINARY    00000000 00001000 FFFFFFE1   2 026   39734  VNENTRY,R2
  39757  00006586  00000001 USING  ORDINARY    00000000 00001000 FFFFFFE1   5 000          VNENTRY,5
  39762  00006586  00000001 USING  ORDINARY    00000000 00001000 FFFFFFFC   2 000          @R2,2
  39786  00006596  00000001 USING  ORDINARY    00000000 00001000 FFFFFFF9   5 000          @R5,5
  39791  00006596  00000001 USING  ORDINARY    00000000 00001000 FFFFFFF6   8 000          @R8,8
  39796  00006596  00000001 USING  ORDINARY    00000000 00001000 FFFFFFF7   7 000          @R7,7
  39904  0000665E  00000001 USING  ORDINARY    0000665E 00001000 00000001   7 000          $$$985B,7
  39925  00006662  00000001 USING  ORDINARY    00000000 00001000 FFFFFFF7   7 000          @R7,7
  39970  0000668A  00000001 USING  ORDINARY    0000668A 00001000 00000001   7 012   39996  $$$988B,7
  40016  0000669C  00000001 USING  ORDINARY    00000000 00001000 FFFFFFF7   7 000          @R7,7
  40061  000066C4  00000001 USING  ORDINARY    000066C4 00001000 00000001   7 000          $$$992B,7
  40082  000066C8  00000001 USING  ORDINARY    00000000 00001000 FFFFFFF7   7 000          @R7,7
  40127  000066F0  00000001 USING  ORDINARY    000066F0 00001000 00000001   7 000          $$$995B,7
  40143  000066F4  00000001 USING  ORDINARY    00000000 00001000 FFFFFFF7   7 000          @R7,7
  40166  00006702  00000001 USING  ORDINARY    00000000 00001000 FFFFFFFA   4 000          @R4,4
  40208  0000671C  00000001 USING  ORDINARY    0000671C 00001000 00000001   7 558   40798  $$$998B,7
1PROC     (PROC2193) (12:51) (15MAR04) Using Map                                                                            Page  356
  40222  0000671C  00000001 USING  ORDINARY    FFFFFFD8 00001000 FFFFFFCE   8 128   40760  NWA-(4+36),R8
  40264  0000675A  00000001 USING  ORDINARY    00000000 00001000 FFFFFFE1   5 026   40341  VNENTRY,R5
  40286  00006772  00000001 USING  ORDINARY    00000000 00001000 FFFFFFE3   4 10C   41053  UNET,R4
  40608  0000688A  00000001 USING  ORDINARY    00000000 00001000 FFFFFFF9   5 000          @R5,5
  40611  0000688A  00000001 USING  ORDINARY    00000000 00001000 FFFFFFE1   2 026   40664  VNENTRY,R2
  40687  000068AA  00000001 USING  ORDINARY    00000000 00001000 FFFFFFE1   5 000          VNENTRY,5
  40692  000068AA  00000001 USING  ORDINARY    00000000 00001000 FFFFFFFC   2 000          @R2,2
  40735  000068B4  00000001 USING  ORDINARY    00000000 00001000 FFFFFFF9   5 000          @R5,5
  40738  000068B4  00000001 USING  ORDINARY    00000000 00001000 FFFFFFE1   2 024   40761  VNENTRY,R2
  40777  000068D0  00000001 USING  ORDINARY    00000000 00001000 FFFFFFE1   5 000          VNENTRY,5
  40782  000068D0  00000001 USING  ORDINARY    00000000 00001000 FFFFFFFC   2 000          @R2,2
  40806  000068E0  00000001 USING  ORDINARY    00000000 00001000 FFFFFFF9   5 000          @R5,5
  40811  000068E0  00000001 USING  ORDINARY    00000000 00001000 FFFFFFF6   8 000          @R8,8
  40816  000068E0  00000001 USING  ORDINARY    00000000 00001000 FFFFFFF7   7 000          @R7,7
  40840  000068EE  00000001 USING  ORDINARY    00000000 00001000 FFFFFFCE   6 003   41189  NWA,R6
  40948  000069D2  00000001 USING  ORDINARY    000069D2 00001000 00000001   7 000          $$$1012B,7
  40969  000069D6  00000001 USING  ORDINARY    00000000 00001000 FFFFFFF7   7 000          @R7,7
  41014  000069FE  00000001 USING  ORDINARY    000069FE 00001000 00000001   7 012   41040  $$$1015B,7
  41060  00006A10  00000001 USING  ORDINARY    00000000 00001000 FFFFFFF7   7 000          @R7,7
  41105  00006A38  00000001 USING  ORDINARY    00006A38 00001000 00000001   7 18C   41122  $$$1019B,7
  41130  00006A42  00000001 USING  ORDINARY    00000000 00001000 FFFFFFF7   7 000          @R7,7
  41175  00006A6A  00000001 USING  ORDINARY    00006A6A 00001000 00000001   7 000          $$$1022B,7
  41196  00006A6E  00000001 USING  ORDINARY    00000000 00001000 FFFFFFF7   7 000          @R7,7
  41241  00006A96  00000001 USING  ORDINARY    00006A96 00001000 00000001   7 000          $$$1025B,7
  41257  00006A9A  00000001 USING  ORDINARY    00000000 00001000 FFFFFFF7   7 000          @R7,7
  41276  00006AA8  00000001 USING  ORDINARY    00000000 00001000 FFFFFFF8   6 000          @R6,6
  41283  00006AA8  00000001 USING  ORDINARY    00000000 00001000 FFFFFFFA   4 000          @R4,4
  41324  00006AC2  00000001 USING  ORDINARY    00006AC2 00001000 00000001   7 199   41530  $$$1028B,7
  41343  00006AC6  00000001 USING  ORDINARY    00000000 00001000 FFFFFFCE   6 038   41538  NWA,R6
  41386  00006AEC  00000001 USING  ORDINARY    00000000 00001000 FFFFFFE3   5 167   41527  UNET,R5
  41545  00006B60  00000001 USING  ORDINARY    00000000 00001000 FFFFFFF9   5 000          @R5,5
  41550  00006B60  00000001 USING  ORDINARY    00000000 00001000 FFFFFFF8   6 000          @R6,6
  41555  00006B60  00000001 USING  ORDINARY    00000000 00001000 FFFFFFF7   7 000          @R7,7
  41809  00006C94  00000001 USING  ORDINARY    00006C94 00001000 00000001   7 F66   42194  $$$1043B,7
  41823  00006C94  00000001 USING  ORDINARY    FFFFFFD8 00001000 FFFFFFCC   8 030   42072  PWA-(4+36),R8
  41864  00006CCC  00000001 USING  ORDINARY    00000000 00001000 FFFFFFE1   5 026   41951  VNENTRY,R5
  41883  00006CE0  00000001 USING  ORDINARY    00000000 00001000 FFFFFFE4   4 000   42023  UPATH,R4
  42094  00006DC6  00000001 USING  ORDINARY    00000000 00001000 FFFFFFF9   5 000          @R5,5
  42097  00006DC6  00000001 USING  ORDINARY    00000000 00001000 FFFFFFE1   2 026   42150  VNENTRY,R2
  42173  00006DE6  00000001 USING  ORDINARY    00000000 00001000 FFFFFFE1   5 000          VNENTRY,5
  42178  00006DE6  00000001 USING  ORDINARY    00000000 00001000 FFFFFFFC   2 000          @R2,2
  42202  00006DF6  00000001 USING  ORDINARY    00000000 00001000 FFFFFFF9   5 000          @R5,5
  42207  00006DF6  00000001 USING  ORDINARY    00000000 00001000 FFFFFFF6   8 000          @R8,8
  42212  00006DF6  00000001 USING  ORDINARY    00000000 00001000 FFFFFFF7   7 000          @R7,7
  42236  00006E04  00000001 USING  ORDINARY    00000000 00001000 FFFFFFCC   6 000          PWA,R6
  42284  00006E46  00000001 USING  ORDINARY    00006E46 00001000 00000001   7 000          $$$1054B,7
  42300  00006E4A  00000001 USING  ORDINARY    00000000 00001000 FFFFFFF7   7 000          @R7,7
  42319  00006E58  00000001 USING  ORDINARY    00000000 00001000 FFFFFFF8   6 000          @R6,6
  42326  00006E58  00000001 USING  ORDINARY    00000000 00001000 FFFFFFFA   4 000          @R4,4
  42367  00006E72  00000001 USING  ORDINARY    00006E72 00001000 00000001   7 D94   43046  $$$1057B,7
  42381  00006E72  00000001 USING  ORDINARY    FFFFFFD8 00001000 FFFFFFCC   8 03C   42912  PWA-(4+36),R8
  42423  00006EAE  00000001 USING  ORDINARY    00000000 00001000 FFFFFFE1   5 026   42467  VNENTRY,R5
  42442  00006EC2  00000001 USING  ORDINARY    00000000 00001000 FFFFFFE4   4 062   44261  UPATH,R4
  42698  00006FC2  00000001 USING  ORDINARY    00000000 00001000 FFFFFFF9   5 000          @R5,5
  42701  00006FC2  00000001 USING  ORDINARY    00000000 00001000 FFFFFFE1   2 024   42723  VNENTRY,R2
  42739  00006FDA  00000001 USING  ORDINARY    00000000 00001000 FFFFFFE1   5 000          VNENTRY,5
  42744  00006FDA  00000001 USING  ORDINARY    00000000 00001000 FFFFFFFC   2 000          @R2,2
  42803  00007006  00000001 USING  ORDINARY    00000000 00001000 FFFFFFF9   5 000          @R5,5
  42806  00007006  00000001 USING  ORDINARY    00000000 00001000 FFFFFFE1   2 026   42859  VNENTRY,R2
1PROC     (PROC2193) (12:51) (15MAR04) Using Map                                                                            Page  357
  42882  00007026  00000001 USING  ORDINARY    00000000 00001000 FFFFFFE1   5 000          VNENTRY,5
  42887  00007026  00000001 USING  ORDINARY    00000000 00001000 FFFFFFFC   2 000          @R2,2
  42946  0000703C  00000001 USING  ORDINARY    00000000 00001000 FFFFFFF9   5 000          @R5,5
  42949  0000703C  00000001 USING  ORDINARY    00000000 00001000 FFFFFFE1   2 026   43002  VNENTRY,R2
  43025  0000705C  00000001 USING  ORDINARY    00000000 00001000 FFFFFFE1   5 000          VNENTRY,5
  43030  0000705C  00000001 USING  ORDINARY    00000000 00001000 FFFFFFFC   2 000          @R2,2
  43054  0000706C  00000001 USING  ORDINARY    00000000 00001000 FFFFFFF9   5 000          @R5,5
  43059  0000706C  00000001 USING  ORDINARY    00000000 00001000 FFFFFFF6   8 000          @R8,8
  43064  0000706C  00000001 USING  ORDINARY    00000000 00001000 FFFFFFF7   7 000          @R7,7
  43088  0000707A  00000001 USING  ORDINARY    00000000 00001000 FFFFFFCC   6 014   43970  PWA,R6
  43347  000072EE  00000001 USING  ORDINARY    000072EE 00001000 00000001   7 000          $$$1075B,7
  43370  000072FA  00000001 USING  ORDINARY    00000000 00001000 FFFFFFF7   7 000          @R7,7
  43415  00007322  00000001 USING  ORDINARY    00007322 00001000 00000001   7 86E   43467  $$$1078B,7
  43484  0000734C  00000001 USING  ORDINARY    00000000 00001000 FFFFFFF7   7 000          @R7,7
  43529  00007374  00000001 USING  ORDINARY    00007374 00001000 00000001   7 81C   43581  $$$1082B,7
  43598  0000739E  00000001 USING  ORDINARY    00000000 00001000 FFFFFFF7   7 000          @R7,7
  43643  000073C6  00000001 USING  ORDINARY    000073C6 00001000 00000001   7 7CA   43695  $$$1086B,7
  43712  000073F0  00000001 USING  ORDINARY    00000000 00001000 FFFFFFF7   7 000          @R7,7
  43757  00007418  00000001 USING  ORDINARY    00007418 00001000 00000001   7 778   43809  $$$1090B,7
  43826  00007442  00000001 USING  ORDINARY    00000000 00001000 FFFFFFF7   7 000          @R7,7
  43871  0000746A  00000001 USING  ORDINARY    0000746A 00001000 00000001   7 726   43885  $$$1094B,7
  43902  00007484  00000001 USING  ORDINARY    00000000 00001000 FFFFFFF7   7 000          @R7,7
  43947  000074AC  00000001 USING  ORDINARY    000074AC 00001000 00000001   7 6E4   43961  $$$1097B,7
  43978  000074C6  00000001 USING  ORDINARY    00000000 00001000 FFFFFFF7   7 000          @R7,7
  44023  000074EE  00000001 USING  ORDINARY    000074EE 00001000 00000001   7 000          $$$1100B,7
  44044  000074F2  00000001 USING  ORDINARY    00000000 00001000 FFFFFFF7   7 000          @R7,7
  44089  0000751A  00000001 USING  ORDINARY    0000751A 00001000 00000001   7 000          $$$1103B,7
  44111  0000751E  00000001 USING  ORDINARY    00000000 00001000 FFFFFFF7   7 000          @R7,7
  44156  00007546  00000001 USING  ORDINARY    00007546 00001000 00000001   7 000          $$$1106B,7
  44177  0000754A  00000001 USING  ORDINARY    00000000 00001000 FFFFFFF7   7 000          @R7,7
  44222  00007572  00000001 USING  ORDINARY    00007572 00001000 00000001   7 012   44248  $$$1109B,7
  44268  00007584  00000001 USING  ORDINARY    00000000 00001000 FFFFFFF7   7 000          @R7,7
  44313  000075AC  00000001 USING  ORDINARY    000075AC 00001000 00000001   7 000          $$$1113B,7
  44337  000075B8  00000001 USING  ORDINARY    00000000 00001000 FFFFFFF7   7 000          @R7,7
  44356  000075C6  00000001 USING  ORDINARY    00000000 00001000 FFFFFFF8   6 000          @R6,6
  44363  000075C6  00000001 USING  ORDINARY    00000000 00001000 FFFFFFFA   4 000          @R4,4
  44404  000075E0  00000001 USING  ORDINARY    000075E0 00001000 00000001   7 62C   44884  $$$1116B,7
  44418  000075E0  00000001 USING  ORDINARY    FFFFFFD8 00001000 FFFFFFCC   8 038   44850  PWA-(4+36),R8
  44459  00007618  00000001 USING  ORDINARY    00000000 00001000 FFFFFFE1   5 026   44505  VNENTRY,R5
  44484  00007626  00000001 USING  ORDINARY    00000000 00001000 FFFFFFE4   4 098   45771  UPATH,R4
  44690  00007700  00000001 USING  ORDINARY    00000000 00001000 FFFFFFF9   5 000          @R5,5
  44693  00007700  00000001 USING  ORDINARY    00000000 00001000 FFFFFFE1   2 026   44746  VNENTRY,R2
  44769  00007720  00000001 USING  ORDINARY    00000000 00001000 FFFFFFE1   5 000          VNENTRY,5
  44774  00007720  00000001 USING  ORDINARY    00000000 00001000 FFFFFFFC   2 000          @R2,2
  44825  00007734  00000001 USING  ORDINARY    00000000 00001000 FFFFFFF9   5 000          @R5,5
  44828  00007734  00000001 USING  ORDINARY    00000000 00001000 FFFFFFE1   2 024   44851  VNENTRY,R2
  44867  00007750  00000001 USING  ORDINARY    00000000 00001000 FFFFFFE1   5 000          VNENTRY,5
  44872  00007750  00000001 USING  ORDINARY    00000000 00001000 FFFFFFFC   2 000          @R2,2
  44892  00007760  00000001 USING  ORDINARY    00000000 00001000 FFFFFFF9   5 000          @R5,5
  44897  00007760  00000001 USING  ORDINARY    00000000 00001000 FFFFFFF6   8 000          @R8,8
  44902  00007760  00000001 USING  ORDINARY    00000000 00001000 FFFFFFF7   7 000          @R7,7
  44926  0000776E  00000001 USING  ORDINARY    00000000 00001000 FFFFFFCC   6 003   45214  PWA,R6
  45125  00007942  00000001 USING  ORDINARY    00007942 00001000 00000001   7 000          $$$1128B,7
  45151  00007954  00000001 USING  ORDINARY    00000000 00001000 FFFFFFF7   7 000          @R7,7
  45196  0000797C  00000001 USING  ORDINARY    0000797C 00001000 00000001   7 000          $$$1131B,7
  45229  00007992  00000001 USING  ORDINARY    00000000 00001000 FFFFFFF7   7 000          @R7,7
  45274  000079BA  00000001 USING  ORDINARY    000079BA 00001000 00000001   7 000          $$$1135B,7
  45294  000079C8  00000001 USING  ORDINARY    00000000 00001000 FFFFFFF7   7 000          @R7,7
  45339  000079F0  00000001 USING  ORDINARY    000079F0 00001000 00000001   7 000          $$$1138B,7
1PROC     (PROC2193) (12:51) (15MAR04) Using Map                                                                            Page  358
  45355  000079F4  00000001 USING  ORDINARY    00000000 00001000 FFFFFFF7   7 000          @R7,7
  45400  00007A1C  00000001 USING  ORDINARY    00007A1C 00001000 00000001   7 000          $$$1141B,7
  45421  00007A20  00000001 USING  ORDINARY    00000000 00001000 FFFFFFF7   7 000          @R7,7
  45466  00007A48  00000001 USING  ORDINARY    00007A48 00001000 00000001   7 012   45492  $$$1144B,7
  45512  00007A5A  00000001 USING  ORDINARY    00000000 00001000 FFFFFFF7   7 000          @R7,7
  45557  00007A82  00000001 USING  ORDINARY    00007A82 00001000 00000001   7 000          $$$1148B,7
  45578  00007A86  00000001 USING  ORDINARY    00000000 00001000 FFFFFFF7   7 000          @R7,7
  45623  00007AAE  00000001 USING  ORDINARY    00007AAE 00001000 00000001   7 000          $$$1151B,7
  45645  00007AB2  00000001 USING  ORDINARY    00000000 00001000 FFFFFFF7   7 000          @R7,7
  45690  00007ADA  00000001 USING  ORDINARY    00007ADA 00001000 00000001   7 000          $$$1154B,7
  45711  00007ADE  00000001 USING  ORDINARY    00000000 00001000 FFFFFFF7   7 000          @R7,7
  45756  00007B06  00000001 USING  ORDINARY    00007B06 00001000 00000001   7 000          $$$1157B,7
  45778  00007B0A  00000001 USING  ORDINARY    00000000 00001000 FFFFFFF7   7 000          @R7,7
  45823  00007B32  00000001 USING  ORDINARY    00007B32 00001000 00000001   7 000          $$$1160B,7
  45839  00007B36  00000001 USING  ORDINARY    00000000 00001000 FFFFFFF7   7 000          @R7,7
  45858  00007B44  00000001 USING  ORDINARY    00000000 00001000 FFFFFFF8   6 000          @R6,6
  45865  00007B44  00000001 USING  ORDINARY    00000000 00001000 FFFFFFFA   4 000          @R4,4
  45954  00007C2C  00000001 USING  ORDINARY    00007C2C 00001000 00000001   7 7B2   46545  $$$1163B,7
  45968  00007C2C  00000001 USING  ORDINARY    FFFFFFD8 00001000 FFFFFFCC   8 030   46423  PWA-(4+36),R8
  46009  00007C64  00000001 USING  ORDINARY    00000000 00001000 FFFFFFE1   5 000          VNENTRY,R5
  46050  00007C72  00000001 USING  ORDINARY    00000000 00001000 FFFFFFF9   5 000          @R5,5
  46053  00007C72  00000001 USING  ORDINARY    00000000 00001000 FFFFFFE1   2 026   46106  VNENTRY,R2
  46129  00007C96  00000001 USING  ORDINARY    00000000 00001000 FFFFFFE1   5 026   46176  VNENTRY,5
  46134  00007C96  00000001 USING  ORDINARY    00000000 00001000 FFFFFFFC   2 000          @R2,2
  46155  00007CA6  00000001 USING  ORDINARY    00000000 00001000 FFFFFFE4   4 028   46770  UPATH,R4
  46305  00007D54  00000001 USING  ORDINARY    00000000 00001000 FFFFFFF9   5 000          @R5,5
  46308  00007D54  00000001 USING  ORDINARY    00000000 00001000 FFFFFFE1   2 026   46361  VNENTRY,R2
  46384  00007D74  00000001 USING  ORDINARY    00000000 00001000 FFFFFFE1   5 000          VNENTRY,5
  46389  00007D74  00000001 USING  ORDINARY    00000000 00001000 FFFFFFFC   2 000          @R2,2
  46445  00007D96  00000001 USING  ORDINARY    00000000 00001000 FFFFFFF9   5 000          @R5,5
  46448  00007D96  00000001 USING  ORDINARY    00000000 00001000 FFFFFFE1   2 026   46501  VNENTRY,R2
  46524  00007DB6  00000001 USING  ORDINARY    00000000 00001000 FFFFFFE1   5 000          VNENTRY,5
  46529  00007DB6  00000001 USING  ORDINARY    00000000 00001000 FFFFFFFC   2 000          @R2,2
  46553  00007DC6  00000001 USING  ORDINARY    00000000 00001000 FFFFFFF9   5 000          @R5,5
  46558  00007DC6  00000001 USING  ORDINARY    00000000 00001000 FFFFFFF6   8 000          @R8,8
  46563  00007DC6  00000001 USING  ORDINARY    00000000 00001000 FFFFFFF7   7 000          @R7,7
  46587  00007DD4  00000001 USING  ORDINARY    00000000 00001000 FFFFFFCC   6 000          PWA,R6
  46665  00007E66  00000001 USING  ORDINARY    00007E66 00001000 00000001   7 000          $$$1180B,7
  46686  00007E6A  00000001 USING  ORDINARY    00000000 00001000 FFFFFFF7   7 000          @R7,7
  46731  00007E92  00000001 USING  ORDINARY    00007E92 00001000 00000001   7 012   46757  $$$1183B,7
  46777  00007EA4  00000001 USING  ORDINARY    00000000 00001000 FFFFFFF7   7 000          @R7,7
  46822  00007ECC  00000001 USING  ORDINARY    00007ECC 00001000 00000001   7 000          $$$1187B,7
  46838  00007ED0  00000001 USING  ORDINARY    00000000 00001000 FFFFFFF7   7 000          @R7,7
  46857  00007EDE  00000001 USING  ORDINARY    00000000 00001000 FFFFFFF8   6 000          @R6,6
  46864  00007EDE  00000001 USING  ORDINARY    00000000 00001000 FFFFFFFA   4 000          @R4,4
  46905  00007EF8  00000001 USING  ORDINARY    00007EF8 00001000 00000001   7 4F2   47595  $$$1190B,7
  46919  00007EF8  00000001 USING  ORDINARY    FFFFFFD8 00001000 FFFFFFCC   8 052   47557  PWA-(4+36),R8
  46961  00007F34  00000001 USING  ORDINARY    00000000 00001000 FFFFFFE1   5 026   47031  VNENTRY,R5
  46982  00007F48  00000001 USING  ORDINARY    00000000 00001000 FFFFFFE4   4 028   47866  UPATH,R4
  47405  000080B4  00000001 USING  ORDINARY    00000000 00001000 FFFFFFF9   5 000          @R5,5
  47408  000080B4  00000001 USING  ORDINARY    00000000 00001000 FFFFFFE1   2 026   47461  VNENTRY,R2
  47484  000080D4  00000001 USING  ORDINARY    00000000 00001000 FFFFFFE1   5 000          VNENTRY,5
  47489  000080D4  00000001 USING  ORDINARY    00000000 00001000 FFFFFFFC   2 000          @R2,2
  47532  000080DE  00000001 USING  ORDINARY    00000000 00001000 FFFFFFF9   5 000          @R5,5
  47535  000080DE  00000001 USING  ORDINARY    00000000 00001000 FFFFFFE1   2 024   47558  VNENTRY,R2
  47574  000080FA  00000001 USING  ORDINARY    00000000 00001000 FFFFFFE1   5 000          VNENTRY,5
  47579  000080FA  00000001 USING  ORDINARY    00000000 00001000 FFFFFFFC   2 000          @R2,2
  47603  0000810A  00000001 USING  ORDINARY    00000000 00001000 FFFFFFF9   5 000          @R5,5
  47608  0000810A  00000001 USING  ORDINARY    00000000 00001000 FFFFFFF6   8 000          @R8,8
1PROC     (PROC2193) (12:51) (15MAR04) Using Map                                                                            Page  359
  47613  0000810A  00000001 USING  ORDINARY    00000000 00001000 FFFFFFF7   7 000          @R7,7
  47637  00008118  00000001 USING  ORDINARY    00000000 00001000 FFFFFFCC   6 02A   48097  PWA,R6
  47761  00008222  00000001 USING  ORDINARY    00008222 00001000 00000001   7 000          $$$1211B,7
  47782  00008226  00000001 USING  ORDINARY    00000000 00001000 FFFFFFF7   7 000          @R7,7
  47827  0000824E  00000001 USING  ORDINARY    0000824E 00001000 00000001   7 012   47853  $$$1214B,7
  47873  00008260  00000001 USING  ORDINARY    00000000 00001000 FFFFFFF7   7 000          @R7,7
  47918  00008288  00000001 USING  ORDINARY    00008288 00001000 00000001   7 000          $$$1218B,7
  47934  0000828C  00000001 USING  ORDINARY    00000000 00001000 FFFFFFF7   7 000          @R7,7
  47979  000082B4  00000001 USING  ORDINARY    000082B4 00001000 00000001   7 000          $$$1221B,7
  47995  000082B8  00000001 USING  ORDINARY    00000000 00001000 FFFFFFF7   7 000          @R7,7
  48040  000082E0  00000001 USING  ORDINARY    000082E0 00001000 00000001   7 0A4   48092  $$$1224B,7
  48108  00008308  00000001 USING  ORDINARY    00000000 00001000 FFFFFFF7   7 000          @R7,7
  48153  00008330  00000001 USING  ORDINARY    00008330 00001000 00000001   7 000          $$$1228B,7
  48169  00008334  00000001 USING  ORDINARY    00000000 00001000 FFFFFFF7   7 000          @R7,7
  48188  00008342  00000001 USING  ORDINARY    00000000 00001000 FFFFFFF8   6 000          @R6,6
  48195  00008342  00000001 USING  ORDINARY    00000000 00001000 FFFFFFFA   4 000          @R4,4
  48276  0000840A  00000001 USING  ORDINARY    0000840A 00001000 00000001   7 954   48679  $$$1231B,7
  48290  0000840A  00000001 USING  ORDINARY    FFFFFFD8 00001000 FFFFFFCC   8 030   48557  PWA-(4+36),R8
  48331  00008442  00000001 USING  ORDINARY    00000000 00001000 FFFFFFE1   5 026   48371  VNENTRY,R5
  48352  00008456  00000001 USING  ORDINARY    00000000 00001000 FFFFFFE4   4 0AC   48518  UPATH,R4
  48579  00008548  00000001 USING  ORDINARY    00000000 00001000 FFFFFFF9   5 000          @R5,5
  48582  00008548  00000001 USING  ORDINARY    00000000 00001000 FFFFFFE1   2 026   48635  VNENTRY,R2
  48658  00008568  00000001 USING  ORDINARY    00000000 00001000 FFFFFFE1   5 000          VNENTRY,5
  48663  00008568  00000001 USING  ORDINARY    00000000 00001000 FFFFFFFC   2 000          @R2,2
  48687  00008578  00000001 USING  ORDINARY    00000000 00001000 FFFFFFF9   5 000          @R5,5
  48692  00008578  00000001 USING  ORDINARY    00000000 00001000 FFFFFFF6   8 000          @R8,8
  48697  00008578  00000001 USING  ORDINARY    00000000 00001000 FFFFFFF7   7 000          @R7,7
  48721  00008586  00000001 USING  ORDINARY    00000000 00001000 FFFFFFCC   6 000          PWA,R6
  48769  000085CA  00000001 USING  ORDINARY    000085CA 00001000 00000001   7 000          $$$1244B,7
  48785  000085CE  00000001 USING  ORDINARY    00000000 00001000 FFFFFFF7   7 000          @R7,7
  48804  000085DC  00000001 USING  ORDINARY    00000000 00001000 FFFFFFF8   6 000          @R6,6
  48811  000085DC  00000001 USING  ORDINARY    00000000 00001000 FFFFFFFA   4 000          @R4,4
  48852  000085F6  00000001 USING  ORDINARY    000085F6 00001000 00000001   7 76E   49344  $$$1247B,7
  48866  000085F6  00000001 USING  ORDINARY    FFFFFFD8 00001000 FFFFFFCC   8 10C   49222  PWA-(4+36),R8
  48907  0000862E  00000001 USING  ORDINARY    00000000 00001000 FFFFFFE1   5 026   49162  VNENTRY,R5
  48927  00008642  00000001 USING  ORDINARY    00000000 00001000 FFFFFFE4   4 028   49569  UPATH,R4
  49244  0000876E  00000001 USING  ORDINARY    00000000 00001000 FFFFFFF9   5 000          @R5,5
  49247  0000876E  00000001 USING  ORDINARY    00000000 00001000 FFFFFFE1   2 026   49300  VNENTRY,R2
  49323  0000878E  00000001 USING  ORDINARY    00000000 00001000 FFFFFFE1   5 000          VNENTRY,5
  49328  0000878E  00000001 USING  ORDINARY    00000000 00001000 FFFFFFFC   2 000          @R2,2
  49352  0000879E  00000001 USING  ORDINARY    00000000 00001000 FFFFFFF9   5 000          @R5,5
  49357  0000879E  00000001 USING  ORDINARY    00000000 00001000 FFFFFFF6   8 000          @R8,8
  49362  0000879E  00000001 USING  ORDINARY    00000000 00001000 FFFFFFF7   7 000          @R7,7
  49386  000087AC  00000001 USING  ORDINARY    00000000 00001000 FFFFFFCC   6 000          PWA,R6
  49464  0000883E  00000001 USING  ORDINARY    0000883E 00001000 00000001   7 000          $$$1258B,7
  49485  00008842  00000001 USING  ORDINARY    00000000 00001000 FFFFFFF7   7 000          @R7,7
  49530  0000886A  00000001 USING  ORDINARY    0000886A 00001000 00000001   7 012   49556  $$$1261B,7
  49576  0000887C  00000001 USING  ORDINARY    00000000 00001000 FFFFFFF7   7 000          @R7,7
  49621  000088A4  00000001 USING  ORDINARY    000088A4 00001000 00000001   7 000          $$$1265B,7
  49637  000088A8  00000001 USING  ORDINARY    00000000 00001000 FFFFFFF7   7 000          @R7,7
  49656  000088B6  00000001 USING  ORDINARY    00000000 00001000 FFFFFFF8   6 000          @R6,6
  49663  000088B6  00000001 USING  ORDINARY    00000000 00001000 FFFFFFFA   4 000          @R4,4
  49704  000088D0  00000001 USING  ORDINARY    000088D0 00001000 00000001   7 49A   50298  $$$1268B,7
  49718  000088D0  00000001 USING  ORDINARY    FFFFFFD8 00001000 FFFFFFCC   8 10C   50260  PWA-(4+36),R8
  49759  00008908  00000001 USING  ORDINARY    00000000 00001000 FFFFFFE1   5 026   49822  VNENTRY,R5
  49779  0000891C  00000001 USING  ORDINARY    00000000 00001000 FFFFFFE4   4 028   50538  UPATH,R4
  50108  00008A46  00000001 USING  ORDINARY    00000000 00001000 FFFFFFF9   5 000          @R5,5
  50111  00008A46  00000001 USING  ORDINARY    00000000 00001000 FFFFFFE1   2 026   50164  VNENTRY,R2
  50187  00008A66  00000001 USING  ORDINARY    00000000 00001000 FFFFFFE1   5 000          VNENTRY,5
1PROC     (PROC2193) (12:51) (15MAR04) Using Map                                                                            Page  360
  50192  00008A66  00000001 USING  ORDINARY    00000000 00001000 FFFFFFFC   2 000          @R2,2
  50235  00008A70  00000001 USING  ORDINARY    00000000 00001000 FFFFFFF9   5 000          @R5,5
  50238  00008A70  00000001 USING  ORDINARY    00000000 00001000 FFFFFFE1   2 024   50261  VNENTRY,R2
  50277  00008A8C  00000001 USING  ORDINARY    00000000 00001000 FFFFFFE1   5 000          VNENTRY,5
  50282  00008A8C  00000001 USING  ORDINARY    00000000 00001000 FFFFFFFC   2 000   52128  @R2,2
  50306  00008A9C  00000001 USING  ORDINARY    00000000 00001000 FFFFFFF9   5 000          @R5,5
  50311  00008A9C  00000001 USING  ORDINARY    00000000 00001000 FFFFFFF6   8 000          @R8,8
  50316  00008A9C  00000001 USING  ORDINARY    00000000 00001000 FFFFFFF7   7 000          @R7,7
  50340  00008AAA  00000001 USING  ORDINARY    00000000 00001000 FFFFFFCC   6 003   50604  PWA,R6
  50433  00008B66  00000001 USING  ORDINARY    00008B66 00001000 00000001   7 000          $$$1282B,7
  50454  00008B6A  00000001 USING  ORDINARY    00000000 00001000 FFFFFFF7   7 000          @R7,7
  50499  00008B92  00000001 USING  ORDINARY    00008B92 00001000 00000001   7 012   50525  $$$1285B,7
  50545  00008BA4  00000001 USING  ORDINARY    00000000 00001000 FFFFFFF7   7 000          @R7,7
  50590  00008BCC  00000001 USING  ORDINARY    00008BCC 00001000 00000001   7 12C   50607  $$$1289B,7
  50619  00008BD8  00000001 USING  ORDINARY    00000000 00001000 FFFFFFF7   7 000          @R7,7
  50664  00008C00  00000001 USING  ORDINARY    00008C00 00001000 00000001   7 000          $$$1292B,7
  50680  00008C04  00000001 USING  ORDINARY    00000000 00001000 FFFFFFF7   7 000          @R7,7
  50699  00008C12  00000001 USING  ORDINARY    00000000 00001000 FFFFFFF8   6 000          @R6,6
  50706  00008C12  00000001 USING  ORDINARY    00000000 00001000 FFFFFFFA   4 001   52647  @R4,4
  50768  00008C2C  00000001 USING  ORDINARY    00008C2C 00001000 00000001   7 12A   50896  $$$1295B,7
  50782  00008C2C  00000001 USING  ORDINARY    FFFFFFD8 00001000 FFFFFFCB   8 028   50842  PWFXWA-(4+36),R8
  50796  00008C30  00000001 USING  ORDINARY    00000000 00001000 FFFFFFCC   6 0AC   50904  PWA,R6
  50911  00008C90  00000001 USING  ORDINARY    00000000 00001000 FFFFFFF8   6 000          @R6,6
  50916  00008C90  00000001 USING  ORDINARY    00000000 00001000 FFFFFFF6   8 000          @R8,8
  50921  00008C90  00000001 USING  ORDINARY    00000000 00001000 FFFFFFF7   7 000          @R7,7
  51051  00008D8A  00000001 USING  ORDINARY    00008D8A 00001000 00000001   7 7B0   51246  $$$1299B,7
  51065  00008D8A  00000001 USING  ORDINARY    FFFFFFD8 00001000 FFFFFFCA   8 038   51208  QFWA-(4+36),R8
  51094  00008DB2  00000001 USING  ORDINARY    00000000 00001000 FFFFFFE1   5 024   51099  VNENTRY,R5
  51261  00008E2A  00000001 USING  ORDINARY    00000000 00001000 FFFFFFF9   5 000          @R5,5
  51266  00008E2A  00000001 USING  ORDINARY    00000000 00001000 FFFFFFF6   8 000          @R8,8
  51271  00008E2A  00000001 USING  ORDINARY    00000000 00001000 FFFFFFF7   7 000          @R7,7
  51329  00008E52  00000001 USING  ORDINARY    00008E52 00001000 00000001   7 754   51502  $$$1310B,7
  51348  00008E56  00000001 USING  ORDINARY    00000000 00001000 FFFFFFCA   6 00C   51479  QFWA,R6
  51406  00008E78  00000001 USING  ORDINARY    00000000 00001000 FFFFFFE1   5 026   51461  VNENTRY,R5
  51490  00008EA2  00000001 USING  ORDINARY    00000000 00001000 FFFFFFF9   5 000          @R5,5
  51520  00008EAA  00000001 USING  ORDINARY    00000000 00001000 FFFFFFF8   6 000          @R6,6
  51525  00008EAA  00000001 USING  ORDINARY    00000000 00001000 FFFFFFF7   7 000          @R7,7
  51691  00008ED2  00000001 USING  ORDINARY    00008ED2 00001000 00000001   7 6A2   52394  $$$1327B,7
  51705  00008ED2  00000001 USING  ORDINARY    FFFFFFD8 00001000 FFFFFFC9   8 11C   52195  DRWA-(4+36),R8
  51732  00008EE0  00000001 USING  ORDINARY    00000000 00001000 FFFFFFE1   5 024   51741  VNENTRY,R5
  51749  00008EF8  00000001 USING  ORDINARY    00000000 00001000 FFFFFFF9   5 000          @R5,5
  52408  000090AE  00000001 USING  ORDINARY    00000000 00001000 FFFFFFF6   8 000          @R8,8
  52413  000090AE  00000001 USING  ORDINARY    00000000 00001000 FFFFFFF7   7 000          @R7,7
  52468  000090D6  00000001 USING  ORDINARY    000090D6 00001000 00000001   7 460   52789  $$$1342B,7
  52487  000090D8  00000001 USING  ORDINARY    00000000 00001000 FFFFFFE5   5 000   52503  SEGCB,R5
  52806  0000918E  00000001 USING  ORDINARY    00000000 00001000 FFFFFFF9   5 000          @R5,5
  52811  0000918E  00000001 USING  ORDINARY    00000000 00001000 FFFFFFF7   7 000          @R7,7
  52898  000091B6  00000001 USING  ORDINARY    000091B6 00001000 00000001   7 402   53375  $$$1356B,7
  52912  000091B6  00000001 USING  ORDINARY    FFFFFFD8 00001000 FFFFFFC8   8 084   53357  PCSCANWA-(4+36),R8
  52977  000091E4  00000001 USING  ORDINARY    00000000 00001000 FFFFFFE1   5 026   53030  VNENTRY,R5
  53041  00009230  00000001 USING  ORDINARY    00000000 00001000 FFFFFFF9   5 000          @R5,5
  53135  0000929E  00000001 USING  ORDINARY    00000000 00001000 FFFFFFE1   2 026   53190  VNENTRY,R2
  53209  000092C6  00000001 USING  ORDINARY    00000000 00001000 FFFFFFFC   2 000          @R2,2
  53222  000092C6  00000001 USING  ORDINARY    00000000 00001000 FFFFFFE1   2 026   53277  VNENTRY,R2
  53296  000092EE  00000001 USING  ORDINARY    00000000 00001000 FFFFFFFC   2 000          @R2,2
  53327  000092F8  00000001 USING  ORDINARY    00000000 00001000 FFFFFFE1   2 026   53382  VNENTRY,R2
  53401  00009320  00000001 USING  ORDINARY    00000000 00001000 FFFFFFFC   2 000          @R2,2
  53423  00009322  00000001 USING  ORDINARY    00000000 00001000 FFFFFFF6   8 000          @R8,8
  53428  00009322  00000001 USING  ORDINARY    00000000 00001000 FFFFFFF7   7 000          @R7,7
1PROC     (PROC2193) (12:51) (15MAR04) Using Map                                                                            Page  361
  53485  0000934A  00000001 USING  ORDINARY    0000934A 00001000 00000001   7 280   53962  $$$1374B,7
  53499  0000934A  00000001 USING  ORDINARY    FFFFFFD8 00001000 FFFFFFC8   8 084   53944  PCSCANWA-(4+36),R8
  53564  00009378  00000001 USING  ORDINARY    00000000 00001000 FFFFFFE1   5 026   53617  VNENTRY,R5
  53628  000093C4  00000001 USING  ORDINARY    00000000 00001000 FFFFFFF9   5 000          @R5,5
  53722  00009432  00000001 USING  ORDINARY    00000000 00001000 FFFFFFE1   2 026   53777  VNENTRY,R2
  53796  0000945A  00000001 USING  ORDINARY    00000000 00001000 FFFFFFFC   2 000          @R2,2
  53809  0000945A  00000001 USING  ORDINARY    00000000 00001000 FFFFFFE1   2 026   53864  VNENTRY,R2
  53883  00009482  00000001 USING  ORDINARY    00000000 00001000 FFFFFFFC   2 000          @R2,2
  53914  0000948C  00000001 USING  ORDINARY    00000000 00001000 FFFFFFE1   2 026   53969  VNENTRY,R2
  53988  000094B4  00000001 USING  ORDINARY    00000000 00001000 FFFFFFFC   2 000   54604  @R2,2
  54010  000094B6  00000001 USING  ORDINARY    00000000 00001000 FFFFFFF6   8 000          @R8,8
  54015  000094B6  00000001 USING  ORDINARY    00000000 00001000 FFFFFFF7   7 000          @R7,7
  54254  000095EA  00000001 USING  ORDINARY    000095EA 00001000 00000001   7 7B8   54809  $$$1392B,7
  54268  000095EA  00000001 USING  ORDINARY    FFFFFFD8 00001000 FFFFFFC7   8 35C   54737  RFCWA-(4+36),R8
  54687  00009718  00000001 USING  ORDINARY    00000000 00001000 FFFFFFE1   2 024   54711  VNENTRY,R2
  54722  00009738  00000001 USING  ORDINARY    00000000 00001000 FFFFFFFC   2 000          @R2,2
  54763  00009750  00000001 USING  ORDINARY    00000000 00001000 FFFFFFE1   2 026   54816  VNENTRY,R2
  54835  00009770  00000001 USING  ORDINARY    00000000 00001000 FFFFFFFC   2 000          @R2,2
  54843  00009770  00000001 USING  ORDINARY    00000000 00001000 FFFFFFF6   8 000          @R8,8
  54848  00009770  00000001 USING  ORDINARY    00000000 00001000 FFFFFFF7   7 000          @R7,7
  54869  0000977E  00000001 USING  ORDINARY    00000000 00001000 FFFFFFC7   6 4A8   59083  RFCWA,R6
  54908  00009798  00000001 USING  ORDINARY    00009798 00001000 00000001   7 5CA   54990  $$$1419B,7
  54998  000097CA  00000001 USING  ORDINARY    00000000 00001000 FFFFFFF7   7 000          @R7,7
  55055  000097F2  00000001 USING  ORDINARY    000097F2 00001000 00000001   7 59D   55899  $$$1425B,7
  55912  00009A7C  00000001 USING  ORDINARY    00000000 00001000 FFFFFFF7   7 000          @R7,7
  55962  00009AA4  00000001 USING  ORDINARY    00009AA4 00001000 00000001   7 2BE   56144  $$$1458B,7
  56152  00009B2E  00000001 USING  ORDINARY    00000000 00001000 FFFFFFF7   7 000          @R7,7
  56204  00009B56  00000001 USING  ORDINARY    00009B56 00001000 00000001   7 238   56375  $$$1467B,7
  56383  00009BF4  00000001 USING  ORDINARY    00000000 00001000 FFFFFFF7   7 000          @R7,7
  56433  00009C1C  00000001 USING  ORDINARY    00009C1C 00001000 00000001   7 0FC   56576  $$$1476B,7
  56584  00009C72  00000001 USING  ORDINARY    00000000 00001000 FFFFFFF7   7 000          @R7,7
  56637  00009C9A  00000001 USING  ORDINARY    00009C9A 00001000 00000001   7 10E   56698  $$$1485B,7
  56706  00009CD0  00000001 USING  ORDINARY    00000000 00001000 FFFFFFF7   7 000          @R7,7
  56817  00009DC8  00000001 USING  ORDINARY    00009DC8 00001000 00000001   7 9D4   57274  $$$1491B,7
  57282  00009F2A  00000001 USING  ORDINARY    00000000 00001000 FFFFFFF7   7 000          @R7,7
  57336  00009F52  00000001 USING  ORDINARY    00009F52 00001000 00000001   7 850   57674  $$$1511B,7
  57684  0000A020  00000001 USING  ORDINARY    00000000 00001000 FFFFFFF7   7 000          @R7,7
  57735  0000A048  00000001 USING  ORDINARY    0000A048 00001000 00000001   7 6B4   57750  $$$1531B,7
  57760  0000A060  00000001 USING  ORDINARY    00000000 00001000 FFFFFFF7   7 000          @R7,7
  57852  0000A288  00000001 USING  ORDINARY    0000A288 00001000 00000001   7 478   58052  $$$1534B,7
  58064  0000A316  00000001 USING  ORDINARY    00000000 00001000 FFFFFFF7   7 000          @R7,7
  58112  0000A33E  00000001 USING  ORDINARY    0000A33E 00001000 00000001   7 3BE   58126  $$$1544B,7
  58134  0000A350  00000001 USING  ORDINARY    00000000 00001000 FFFFFFF7   7 000          @R7,7
  58186  0000A378  00000001 USING  ORDINARY    0000A378 00001000 00000001   7 430   58248  $$$1547B,7
  58273  0000A3AC  00000001 USING  ORDINARY    00000000 00001000 FFFFFFF7   7 000          @R7,7
  58324  0000A3D4  00000001 USING  ORDINARY    0000A3D4 00001000 00000001   7 334   58353  $$$1554B,7
  58364  0000A3E4  00000001 USING  ORDINARY    00000000 00001000 FFFFFFF7   7 000          @R7,7
  58413  0000A40C  00000001 USING  ORDINARY    0000A40C 00001000 00000001   7 336   58654  $$$1558B,7
  58666  0000A4A8  00000001 USING  ORDINARY    00000000 00001000 FFFFFFF7   7 000          @R7,7
  58718  0000A4D0  00000001 USING  ORDINARY    0000A4D0 00001000 00000001   7 2A0   58819  $$$1565B,7
  58831  0000A550  00000001 USING  ORDINARY    00000000 00001000 FFFFFFF7   7 000          @R7,7
  58937  0000A61A  00000001 USING  ORDINARY    0000A61A 00001000 00000001   7 000          $$$1570B,7
  58958  0000A61E  00000001 USING  ORDINARY    00000000 00001000 FFFFFFF7   7 000          @R7,7
  59003  0000A646  00000001 USING  ORDINARY    0000A646 00001000 00000001   7 000          $$$1573B,7
  59024  0000A64A  00000001 USING  ORDINARY    00000000 00001000 FFFFFFF7   7 000          @R7,7
  59069  0000A672  00000001 USING  ORDINARY    0000A672 00001000 00000001   7 000          $$$1576B,7
  59090  0000A676  00000001 USING  ORDINARY    00000000 00001000 FFFFFFF7   7 000          @R7,7
  59135  0000A69E  00000001 USING  ORDINARY    0000A69E 00001000 00000001   7 0E3   59160  $$$1579B,7
  59169  0000A6B4  00000001 USING  ORDINARY    00000000 00001000 FFFFFFF7   7 000          @R7,7
1PROC     (PROC2193) (12:51) (15MAR04) Using Map                                                                            Page  362
  59188  0000A6C2  00000001 USING  ORDINARY    00000000 00001000 FFFFFFF8   6 000          @R6,6
  59273  0000A7C8  00000001 USING  ORDINARY    0000A7C8 00001000 00000001   7 802   59457  $$$1582B,7
  59311  0000A7D6  00000001 USING  ORDINARY    00000000 00001000 FFFFFFE1   2 026   59358  VNENTRY,R2
  59377  0000A7FE  00000001 USING  ORDINARY    00000000 00001000 FFFFFFFC   2 000          @R2,2
  59390  0000A7FE  00000001 USING  ORDINARY    00000000 00001000 FFFFFFE1   2 024   59413  VNENTRY,R2
  59425  0000A81A  00000001 USING  ORDINARY    00000000 00001000 FFFFFFFC   2 000          @R2,2
  59438  0000A81A  00000001 USING  ORDINARY    00000000 00001000 FFFFFFE1   2 024   59457  VNENTRY,R2
  59465  0000A830  00000001 USING  ORDINARY    00000000 00001000 FFFFFFFC   2 000          @R2,2
  59477  0000A830  00000001 USING  ORDINARY    00000000 00001000 FFFFFFF7   7 000          @R7,7
  59528  0000A858  00000001 USING  ORDINARY    0000A858 00001000 00000001   7 778   59668  $$$1589B,7
  59628  0000A88C  00000001 USING  ORDINARY    00000000 00001000 FFFFFFE1   2 026   59675  VNENTRY,R2
  59694  0000A8B4  00000001 USING  ORDINARY    00000000 00001000 FFFFFFFC   2 000          @R2,2
  59714  0000A8B6  00000001 USING  ORDINARY    00000000 00001000 FFFFFFF7   7 000          @R7,7
  59786  0000A8DE  00000001 USING  ORDINARY    0000A8DE 00001000 00000001   7 6F8   59944  $$$1598B,7
  59800  0000A8DE  00000001 USING  ORDINARY    FFFFFFD8 00001000 FFFFFFC6   8 030   59873  PCVWA-(4+36),R8
  59834  0000A8F4  00000001 USING  ORDINARY    00000000 00001000 FFFFFFE1   5 026   59840  VNENTRY,R5
  59895  0000A918  00000001 USING  ORDINARY    00000000 00001000 FFFFFFF9   5 000          @R5,5
  59898  0000A918  00000001 USING  ORDINARY    00000000 00001000 FFFFFFE1   2 026   59951  VNENTRY,R2
  59974  0000A938  00000001 USING  ORDINARY    00000000 00001000 FFFFFFE1   5 000          VNENTRY,5
  59979  0000A938  00000001 USING  ORDINARY    00000000 00001000 FFFFFFFC   2 000          @R2,2
  59990  0000A938  00000001 USING  ORDINARY    00000000 00001000 FFFFFFF9   5 000          @R5,5
  60001  0000A938  00000001 USING  ORDINARY    00000000 00001000 FFFFFFF6   8 000          @R8,8
  60006  0000A938  00000001 USING  ORDINARY    00000000 00001000 FFFFFFF7   7 000          @R7,7
  60059  0000A960  00000001 USING  ORDINARY    0000A960 00001000 00000001   7 67C   60194  $$$1606B,7
  60073  0000A960  00000001 USING  ORDINARY    FFFFFFD8 00001000 FFFFFFC6   8 030   60119  PCVWA-(4+36),R8
  60105  0000A972  00000001 USING  ORDINARY    00000000 00001000 FFFFFFE1   5 024   60109  VNENTRY,R5
  60145  0000A984  00000001 USING  ORDINARY    00000000 00001000 FFFFFFF9   5 000          @R5,5
  60148  0000A984  00000001 USING  ORDINARY    00000000 00001000 FFFFFFE1   2 026   60201  VNENTRY,R2
  60224  0000A9A4  00000001 USING  ORDINARY    00000000 00001000 FFFFFFE1   5 000          VNENTRY,5
  60229  0000A9A4  00000001 USING  ORDINARY    00000000 00001000 FFFFFFFC   2 000          @R2,2
  60236  0000A9A4  00000001 USING  ORDINARY    00000000 00001000 FFFFFFF9   5 000          @R5,5
  60247  0000A9A4  00000001 USING  ORDINARY    00000000 00001000 FFFFFFF6   8 000          @R8,8
  60252  0000A9A4  00000001 USING  ORDINARY    00000000 00001000 FFFFFFF7   7 000          @R7,7
  60305  0000A9CC  00000001 USING  ORDINARY    0000A9CC 00001000 00000001   7 616   60465  $$$1613B,7
  60319  0000A9CC  00000001 USING  ORDINARY    FFFFFFD8 00001000 FFFFFFC6   8 030   60394  PCVWA-(4+36),R8
  60353  0000A9E2  00000001 USING  ORDINARY    00000000 00001000 FFFFFFE1   5 026   60361  VNENTRY,R5
  60416  0000AA0E  00000001 USING  ORDINARY    00000000 00001000 FFFFFFF9   5 000          @R5,5
  60419  0000AA0E  00000001 USING  ORDINARY    00000000 00001000 FFFFFFE1   2 026   60472  VNENTRY,R2
  60495  0000AA2E  00000001 USING  ORDINARY    00000000 00001000 FFFFFFE1   5 000          VNENTRY,5
  60500  0000AA2E  00000001 USING  ORDINARY    00000000 00001000 FFFFFFFC   2 000          @R2,2
  60511  0000AA2E  00000001 USING  ORDINARY    00000000 00001000 FFFFFFF9   5 000          @R5,5
  60522  0000AA2E  00000001 USING  ORDINARY    00000000 00001000 FFFFFFF6   8 000          @R8,8
  60527  0000AA2E  00000001 USING  ORDINARY    00000000 00001000 FFFFFFF7   7 000          @R7,7
  60580  0000AA56  00000001 USING  ORDINARY    0000AA56 00001000 00000001   7 592   60715  $$$1621B,7
  60594  0000AA56  00000001 USING  ORDINARY    FFFFFFD8 00001000 FFFFFFC6   8 030   60640  PCVWA-(4+36),R8
  60626  0000AA68  00000001 USING  ORDINARY    00000000 00001000 FFFFFFE1   5 024   60630  VNENTRY,R5
  60666  0000AA7A  00000001 USING  ORDINARY    00000000 00001000 FFFFFFF9   5 000          @R5,5
  60669  0000AA7A  00000001 USING  ORDINARY    00000000 00001000 FFFFFFE1   2 026   60722  VNENTRY,R2
  60745  0000AA9A  00000001 USING  ORDINARY    00000000 00001000 FFFFFFE1   5 000          VNENTRY,5
  60750  0000AA9A  00000001 USING  ORDINARY    00000000 00001000 FFFFFFFC   2 000          @R2,2
  60757  0000AA9A  00000001 USING  ORDINARY    00000000 00001000 FFFFFFF9   5 000          @R5,5
  60768  0000AA9A  00000001 USING  ORDINARY    00000000 00001000 FFFFFFF6   8 000          @R8,8
  60773  0000AA9A  00000001 USING  ORDINARY    00000000 00001000 FFFFFFF7   7 000          @R7,7
  60826  0000AAC2  00000001 USING  ORDINARY    0000AAC2 00001000 00000001   7 52C   60986  $$$1628B,7
  60840  0000AAC2  00000001 USING  ORDINARY    FFFFFFD8 00001000 FFFFFFC6   8 030   60915  PCVWA-(4+36),R8
  60874  0000AAD8  00000001 USING  ORDINARY    00000000 00001000 FFFFFFE1   5 026   60882  VNENTRY,R5
  60937  0000AB04  00000001 USING  ORDINARY    00000000 00001000 FFFFFFF9   5 000          @R5,5
  60940  0000AB04  00000001 USING  ORDINARY    00000000 00001000 FFFFFFE1   2 026   60993  VNENTRY,R2
  61016  0000AB24  00000001 USING  ORDINARY    00000000 00001000 FFFFFFE1   5 000          VNENTRY,5
1PROC     (PROC2193) (12:51) (15MAR04) Using Map                                                                            Page  363
  61021  0000AB24  00000001 USING  ORDINARY    00000000 00001000 FFFFFFFC   2 000   61346  @R2,2
  61032  0000AB24  00000001 USING  ORDINARY    00000000 00001000 FFFFFFF9   5 000          @R5,5
  61043  0000AB24  00000001 USING  ORDINARY    00000000 00001000 FFFFFFF6   8 000          @R8,8
  61048  0000AB24  00000001 USING  ORDINARY    00000000 00001000 FFFFFFF7   7 000          @R7,7
  61216  0000AB4C  00000001 USING  ORDINARY    0000AB4C 00001000 00000001   7 4A8   61491  $$$1644B,7
  61230  0000AB4C  00000001 USING  ORDINARY    FFFFFFD8 00001000 FFFFFFC5   8 428   61488  WLGWTWA-(4+36),R8
  61277  0000AB7C  00000001 USING  ORDINARY    00000000 00001000 FFFFFFE1   5 026   61444  VNENTRY,R5
  61505  0000AC1A  00000001 USING  ORDINARY    00000000 00001000 FFFFFFF9   5 000          @R5,5
  61516  0000AC1A  00000001 USING  ORDINARY    00000000 00001000 FFFFFFF6   8 000          @R8,8
  61521  0000AC1A  00000001 USING  ORDINARY    00000000 00001000 FFFFFFF7   7 000          @R7,7
  61616  0000AC42  00000001 USING  ORDINARY    0000AC42 00001000 00000001   7 37C   62045  $$$1654B,7
  61630  0000AC42  00000001 USING  ORDINARY    FFFFFFD8 00001000 FFFFFFC4   8 028   61634  WTOWA-(4+36),R8
  61644  0000AC46  00000001 USING  ORDINARY    00000000 00001000 FFFFFFC4   5 008   61960  WTOWA,R5
  61684  0000AC70  00000001 USING  ORDINARY    00000000 00001000 FFFFFFE1   4 026   61882  VNENTRY,R4
  61982  0000AD5E  00000001 USING  ORDINARY    00000000 00001000 FFFFFFFA   4 000          @R4,4
  61985  0000AD5E  00000001 USING  ORDINARY    00000000 00001000 FFFFFFE1   2 024   62008  VNENTRY,R2
  62024  0000AD78  00000001 USING  ORDINARY    00000000 00001000 FFFFFFE1   4 000          VNENTRY,4
  62029  0000AD78  00000001 USING  ORDINARY    00000000 00001000 FFFFFFFC   2 000          @R2,2
  62053  0000AD88  00000001 USING  ORDINARY    00000000 00001000 FFFFFFFA   4 000          @R4,4
  62058  0000AD88  00000001 USING  ORDINARY    00000000 00001000 FFFFFFF9   5 000          @R5,5
  62063  0000AD88  00000001 USING  ORDINARY    00000000 00001000 FFFFFFF6   8 000          @R8,8
  62068  0000AD88  00000001 USING  ORDINARY    00000000 00001000 FFFFFFF7   7 000          @R7,7
  62092  0000AD96  00000001 USING  ORDINARY    00000000 00001000 FFFFFFC4   5 000   62331  WTOWA,R5
  62185  0000AE52  00000001 USING  ORDINARY    0000AE52 00001000 00000001   7 000          $$$1663B,7
  62206  0000AE56  00000001 USING  ORDINARY    00000000 00001000 FFFFFFF7   7 000          @R7,7
  62251  0000AE7E  00000001 USING  ORDINARY    0000AE7E 00001000 00000001   7 000          $$$1666B,7
  62272  0000AE82  00000001 USING  ORDINARY    00000000 00001000 FFFFFFF7   7 000          @R7,7
  62317  0000AEAA  00000001 USING  ORDINARY    0000AEAA 00001000 00000001   7 000          $$$1669B,7
  62338  0000AEAE  00000001 USING  ORDINARY    00000000 00001000 FFFFFFF7   7 000          @R7,7
  62383  0000AED6  00000001 USING  ORDINARY    0000AED6 00001000 00000001   7 000          $$$1672B,7
  62399  0000AEDA  00000001 USING  ORDINARY    00000000 00001000 FFFFFFF7   7 000          @R7,7
  62420  0000AEE8  00000001 USING  ORDINARY    00000000 00001000 FFFFFFF9   5 000          @R5,5
  62459  0000AF02  00000001 USING  ORDINARY    0000AF02 00001000 00000001   7 0C1   62472  $$$1675B,7
  62481  0000AF0E  00000001 USING  ORDINARY    00000000 00001000 FFFFFFF7   7 000          @R7,7
  62582  0000B014  00000001 USING  ORDINARY    0000B014 00001000 00000001   7 1B2   63059  $$$1678B,7
  62596  0000B014  00000001 USING  ORDINARY    FFFFFFD8 00001000 FFFFFFC8   8 084   63041  PCSCANWA-(4+36),R8
  62661  0000B042  00000001 USING  ORDINARY    00000000 00001000 FFFFFFE1   5 026   62714  VNENTRY,R5
  62725  0000B08E  00000001 USING  ORDINARY    00000000 00001000 FFFFFFF9   5 000          @R5,5
  62819  0000B0FC  00000001 USING  ORDINARY    00000000 00001000 FFFFFFE1   2 026   62874  VNENTRY,R2
  62893  0000B124  00000001 USING  ORDINARY    00000000 00001000 FFFFFFFC   2 000          @R2,2
  62906  0000B124  00000001 USING  ORDINARY    00000000 00001000 FFFFFFE1   2 026   62961  VNENTRY,R2
  62980  0000B14C  00000001 USING  ORDINARY    00000000 00001000 FFFFFFFC   2 000          @R2,2
  63011  0000B156  00000001 USING  ORDINARY    00000000 00001000 FFFFFFE1   2 026   63066  VNENTRY,R2
  63085  0000B17E  00000001 USING  ORDINARY    00000000 00001000 FFFFFFFC   2 000   64597  @R2,2
  63107  0000B180  00000001 USING  ORDINARY    00000000 00001000 FFFFFFF6   8 000          @R8,8
  63112  0000B180  00000001 USING  ORDINARY    00000000 00001000 FFFFFFF7   7 000          @R7,7
  63240  0000B1E6  00000001 USING  ORDINARY    0000B1E6 00001000 00000001   7 476   63513  $$$1696B,7
  63254  0000B1E6  00000001 USING  ORDINARY    FFFFFFD8 00001000 FFFFFFC3   8 064   63411  CPBWA-(4+36),R8
  63533  0000B2C0  00000001 USING  ORDINARY    00000000 00001000 FFFFFFF6   8 000          @R8,8
  63538  0000B2C0  00000001 USING  ORDINARY    00000000 00001000 FFFFFFF7   7 000          @R7,7
  63660  0000B2E8  00000001 USING  ORDINARY    0000B2E8 00001000 00000001   7 35C   64006  $$$1712B,7
  63674  0000B2E8  00000001 USING  ORDINARY    FFFFFFD8 00001000 FFFFFFC2   8 050   63996  MBWA-(4+36),R8
  64019  0000B426  00000001 USING  ORDINARY    00000000 00001000 FFFFFFF6   8 000          @R8,8
  64024  0000B426  00000001 USING  ORDINARY    00000000 00001000 FFFFFFF7   7 000          @R7,7
  64085  0000B44E  00000001 USING  ORDINARY    0000B44E 00001000 00000001   7 1FE   64231  $$$1730B,7
  64101  0000B44E  00000001 USING  ORDINARY    00000000 00001000 FFFFFFC2   6 00C   64157  MBWA,R6
  64249  0000B4AC  00000001 USING  ORDINARY    00000000 00001000 FFFFFFF7   7 000          @R7,7
  64268  0000B4BA  00000001 USING  ORDINARY    00000000 00001000 FFFFFFF8   6 000          @R6,6
  64309  0000B4D4  00000001 USING  ORDINARY    0000B4D4 00001000 00000001   7 040   64384  $$$1739B,7
1PROC     (PROC2193) (12:51) (15MAR04) Using Map                                                                            Page  364
  64325  0000B4D4  00000001 USING  ORDINARY    00000000 00001000 FFFFFFC2   6 014   64360  MBWA,R6
  64396  0000B51C  00000001 USING  ORDINARY    00000000 00001000 FFFFFFF7   7 000          @R7,7
  64415  0000B52A  00000001 USING  ORDINARY    00000000 00001000 FFFFFFF8   6 000          @R6,6
  64512  0000B544  00000001 USING  ORDINARY    0000B544 00001000 00000001   7 114   64770  $$$1746B,7
  64526  0000B544  00000001 USING  ORDINARY    FFFFFFD8 00001000 FFFFFFC1   8 06C   64743  RDBWA-(4+36),R8
  64793  0000B624  00000001 USING  ORDINARY    00000000 00001000 FFFFFFF6   8 000          @R8,8
  64798  0000B624  00000001 USING  ORDINARY    00000000 00001000 FFFFFFF7   7 000          @R7,7

1         (PROC2193) (12:51) (15MAR04) General Purpose Register Cross Reference                                             Page  365
- Register  References (M=modified, B=branch, U=USING, D=DROP, N=index)                      HLASM R4.0  2004/03/15 12.51
0    0(0)      982U   983D  2329   2397M  2397   2398M  8536   8564M  8572M  8600M  8639   8666   8670M  8770M  8832
              8883M  8883   8884   8905M  8905   8906   8985M  9439   9698M  9862   9918   9974M  9978   9989M  9989
              9998   9999  10037M 10041  10052M 10052  10061  10062  10248M 10249  10250  10477M 10478  10479  10554M
             10554  10587M 10601M 10633M 10647M 10679M 10693M 10725M 10747M 10747  10774M 10821  10822  10930  10975M
             11055  11085M 11097  11126M 11146  11176M 11188  11217M 11252  11352M 11458  11549  11560M 11602  11715M
             11758M 11836M 11851  11858M 11873  11917M 11939M 11961  12104M 12207  12253  12346M 12346  12347  12348
             12422M 12423  12439M 12440  12456M 12457  12473M 12474  12489M 12490  12505M 12506  12572  12573  12629M
             12683  12684  12763M 12789  12844M 12871M 12921  12973  13068M 13068  13069  13070  13146M 13150  13161M
             13161  13170  13171  13225M 13248M 13264  13273M 13281  13352M 13381M 13400M 13421M 13446M 13471M 13497M
             13512M 13584  13585  13678M 13717  13758M 13792  13834  13911M 13911  13912  13913  14118M 14118  14119
             14120  14196M 14200  14211M 14211  14220  14221  14275M 14298M 14314  14323M 14331  14402M 14403  14424M
             14445M 14470M 14495M 14521M 14533M 14593  14594  14738M 14744M 14816  14817  14910M 14949  14990M 15017
             15059  15154M 15154  15155  15156  15232M 15236  15247M 15247  15256  15257  15311M 15334M 15350  15359M
             15367  15430M 15455M 15474  15496M 15498M 15504  15536M 15590M 15611M 15629M 15650M 15675M 15700M 15726M
             15752M 15778M 15804M 15819M 15891  15892  15985M 16024  16065M 16096  16142  16146M 16206  16207  16278M
             16401  16453  16548M 16548  16549  16550  16628M 16651M 16667  16676M 16683  16727M 16749M 16768M 16789M
             16814M 16839M 16865M 16944  16945  17038M 17141  17177  17228M 17228  17229M 17232  17234  17252M 17252
             17277M 17280  17305M 17346  17388  17734M 17734  17735  17736  17814M 17837M 17853  17862M 17869  17916M
             17921  17932M 17933  17942M 17943  17963M 17984M 18009M 18034M 18060M 18082  18096M 18115M 18116M 18131
             18151M 18323M 18394  18395  18488M 18596  18647M 18648  18717M 18717  18804M 18865M 18865  18917M 18926
             18928  18967  19012M 19016  19036M 19078  19130  19225M 19225  19226  19227  19305M 19328M 19344  19353M
             19360  19422M 19561M 19575M 19575  19584M 19592  19608  19630M 19673M 19702M 19720M 19741M 19766M 19791M
             19817M 19843M 19869M 19895M 19974  19975  20068M 20153  20180  20228  20255M 20333M 20334  20335  20406M
             20460  20498  20545  20679  20680  20823M 20824  20825  20943M 20943  20984  20985  21080M 21081  21082
             21158M 21186  21224  21271  21405  21406  21549M 21550  21551  21669M 21669  21710  21711  21806M 21807
             21808  21884M 21914  21952  21999  22133  22134  22277M 22278  22279  22397M 22397  22438  22439  22534M
             22535  22536  22612M 22642  22680  22727  22861  22862  23005M 23006  23007  23125M 23125  23166  23167
             23262M 23263  23264  23340M 23370  23408  23455  23589  23590  23733M 23734  23735  23853M 23853  23894
             23895  23990M 23991  23992  24068M 24097  24124  24176  24203M 24282M 24283  24284  24355M 24451  24520M
             24583M 24584  24680M 24710M 24744  24772M 24793M 24800M 24801M 24820M 24959  25046M 25054M 25059  25062M
             25088M 25142M 25161M 25161  25198M 25261  25312  25354  25360M 25369M 25426M 25466  25550  25587M 25596M
             25617M 25624M 25626  25652M 25652  25655  25685M 25797  25841  25893M 25912M 25912  25926  25935  25977M
             26023M 26042M 26110  26126M 26154M 26196M 26245M 26266M 26308M 26326M 26341M 26375M 26407M 26421M 26427M
             26488  26489  26561M 26739  26833M 26861M 26880  26942M 26971M 27002M 27015M 27015  27055M 27062  27064M
             27066M 27067  27070M 27082M 27082  27106M 27145M 27159M 27159  27181M 27188  27190M 27192M 27205M 27205
             27211  27218M 27221M 27235  27239M 27242  27254M 27292M 27305M 27381M 27454M 27468  27485M 27501M 27544M
             27547  27559M 27612  27613  27695M 27798  27889  27900M 27942  28055M 28098M 28151M 28166  28170M 28185
             28189M 28213M 28237M 28263M 28278  28282M 28297  28301M 28341M 28350  28492M 28715  28766  28794M 28859M
             28863  28878M 28878  28887  28888  28970M 28976M 29048  29049  29142M 29189  29230M 29271  29322  29336
             29351M 29396M 29400  29423M 29423  29432  29433  29452M 29555M 29565M 29606M 29618  29624M 29624  29909
             29910  30003M 30052  30053  30146M 30493  30540M 30560  30607M 30627  30673M 30693  30733M 30733  30749
             30764M 30784  30830M 30850  30897M 30917  30963M 30983  31030M 31050  31088M 31088  31097  31112  31188M
             31208  31247M 31268M 31268  31273  31289M 31309  31341  31356M 31376  31408  31423M 31443  31475  31490M
             31510  31542  31557M 31577  31609  31624M 31644  31671  31687M 31707  31733  31748M 31768  31795  31811M
             31831  31857M 31858  31873M 31893  31919  31934M 31954  31995M 32081  32132  32170M 32170  32225M 32229
             32245M 32245  32254  32255  32368M 32440  32441  32645M 32962  33008M 33028  33068M 33068  33084  33099M
             33140  33182M 33182  33191  33206  33287M 33307  33336M 33336  33337  33352M 33372  33398  33410  33464M
             33484  33525M 33545  33586M 33606  33647M 33667  33713M 33733  33780M 33800  33846M 33866  33913M 33933
             33965M 33965  33974  33989  34065M 34085  34165M 34185  34231M 34251  34297M 34317  34425M 34445M 34465
             34573M 34593M 34613  34654M 34733  34784  34879M 34879  34880  34881  34939M 34986M 34990  35005M 35005
             35014  35015  35114  35115  35175M 35197M 35207M 35279  35280  35373M 35450  35496M 35516  35556M 35556
             35572  35587M 35607  35648M 35689  35740  35754  35771M 35806  35811M 35811  35846M 35867  35882M 35882
             35891  35892  35947M 35962M 36129M 36153M 36153  36177M 36192M 36264  36265  36448M 36570  36616M 36636
             36676M 36676  36692  36707M 36727  36753  36768M 36788  36814  36829M 36849  36899M 36906  36918M 36923
             36942M 36962  37003M 37088  37195M 37196  37269M 37270  37336M 37363  37414  37443M 37489M 37493  37508M
1         (PROC2193) (12:51) (15MAR04) General Purpose Register Cross Reference                                             Page  366
             37508  37517  37518  37560M 37566M 37638  37639  37732M 37779  37820M 37861  37912  37941M 38006M 38010
             38025M 38025  38034  38035  38101M 38101  38122M 38183M 38189M 38261  38262  38355M 38447  38494M 38514
             38560M 38580  38691M 38711  38752M 38794  38845  38874M 38939M 38943  38958M 38958  38967  38968  39013M
             39026M 39098  39099  39192M 39239  39280M 39321  39372  39401M 39448M 39452  39467M 39467  39476  39477
             39533M 39557M 39557  39591M 39606M 39606  39629M 39638M 39710  39711  39804M 39887  39933M 39953  39993M
             39993  40009  40024M 40044  40090M 40110  40151M 40190  40241  40270M 40308M 40308  40341M 40361  40385M
             40385  40394  40395  40461M 40493M 40493  40519M 40534M 40534  40557M 40568M 40640  40641  40824M 40931
             40977M 40997  41037M 41037  41053  41068M 41088  41138M 41158  41204M 41224  41265M 41307  41368  41411
             41423  41436M 41467M 41487M 41563M 41791  41841  41869M 41906  41951M 41955  41970M 41970  41979  41980
             42043M 42054M 42126  42127  42220M 42267  42308M 42349  42399  42413  42428M 42467M 42471  42494M 42494
             42503  42504  42523M 42628M 42634M 42646  42652M 42652  42835  42836  42929M 42978  42979  43072M 43330
             43361M 43361  43362  43378M 43398  43437M 43458M 43458  43476  43492M 43512  43551M 43572M 43572  43590
             43606M 43626  43665M 43686M 43686  43704  43720M 43740  43779M 43800M 43800  43818  43834M 43854  43894
             43910M 43930  43970  43986M 44006  44052M 44072  44119M 44139  44185M 44205  44245M 44245  44261  44276M
             44296  44327M 44327  44329  44345M 44386  44436  44469M 44469  44505M 44509  44524M 44524  44533  44534
             44589M 44650M 44722  44723  44910M 45108  45159M 45179  45237M 45257  45302M 45322  45348  45363M 45383
             45429M 45449  45489M 45489  45505  45520M 45540  45586M 45606  45653M 45673  45719M 45739  45786M 45806
             45847M 45936  45986  46081M 46081  46082  46083  46141M 46176M 46180  46195M 46195  46204  46205  46253
             46265M 46337  46338  46399M 46405M 46477  46478  46571M 46648  46694M 46714  46754M 46754  46770  46785M
             46805  46846M 46887  46937  46951  46968M 46991  46996M 46996  47031M 47051  47066M 47066  47075  47076
             47126  47138M 47173  47253M 47287M 47346M 47365M 47437  47438  47621M 47744  47790M 47810  47850M 47850
             47866  47881M 47901  47927  47942M 47962  47988  48003M 48023  48073M 48080  48092M 48097  48116M 48136
             48177M 48258  48308  48337M 48371M 48375  48398M 48398  48407  48408  48458M 48478M 48503M 48528M 48539M
             48611  48612  48705M 48752  48793M 48834  48884  48913M 48948M 48952  48975M 48975  48984  48985  49027M
             49057M 49103M 49130M 49162M 49175M 49184M 49184  49194M 49204M 49276  49277  49370M 49447  49493M 49513
             49553M 49553  49569  49584M 49604  49645M 49686  49736  49765M 49789M 49789  49822M 49842  49874M 49874
             49883  49884  49948M 49978M 49994M 50026M 50026  50039M 50048M 50048  50058M 50068M 50140  50141  50324M
             50416  50462M 50482  50522M 50522  50538  50553M 50573  50627M 50647  50688M 50750  50821  50831  50832
             50847M 50872M 50929M 51033  51069  51104  51119M 51119  51170M 51170  51193M 51199  51200M 51201M 51208M
             51211M 51232M 51232  51279M 51312  51355  51367M 51433  51434  51533M 51673  51771M 51786M 51849M 51898M
             51898  51915M 51915  51973M 51973  51995M 52013M 52031M 52061M 52063  52174  52187M 52187  52212M 52212
             52230M 52248M 52266M 52284M 52303M 52321M 52339M 52354M 52355M 52421M 52451  52545  52597  52623M 52625M
             52647M 52649M 52655M 52657M 52778M 52778  52819M 52880  52918  52995  53021  53067M 53069  53095M 53097
             53104M 53115  53165M 53166  53167  53252M 53253  53254  53357M 53358  53359  53436M 53467  53505  53582
             53608  53654M 53656  53682M 53684  53691M 53702  53752M 53753  53754  53839M 53840  53841  53944M 53945
             53946  54023M 54236  54298M 54727M 54747M 54792  54793  54856M 54891  55006M 55038  55247M 55441M 55452M
             55748M 55749M 55776M 55777M 55819M 55828  55837M 55837  55849  55861M 55873  55882M 55882  55894M 55896M
             55920M 55945  56160M 56187  56301M 56391M 56416  56592M 56620  56650M 56651M 56664M 56664  56674  56694M
             56714M 56800  56874M 56875  57014M 57015  57039M 57067M 57290M 57319  57692M 57718  57745M 57746M 57768M
             57835  57864M 57865M 57866  57899M 57899  57908M 57908  57934M 57934  57946  57949  58041M 58072M 58095
             58121M 58142M 58169  58198  58229  58281M 58307  58372M 58396  58473M 58506M 58520M 58521  58529M 58529
             58586M 58614M 58643M 58643  58674M 58701  58735M 58735  58765  58776M 58776  58785  58786  58839M 58920
             58966M 58986  59032M 59052  59098M 59118  59149M 59177M 59256  59333M 59334  59335  59485M 59511  59537
             59571M 59650M 59651  59652  59722M 59768  59804  59855M 59927  59928  60014M 60041  60124M 60177  60178
             60260M 60287  60323  60376M 60448  60449  60535M 60562  60645M 60698  60699  60781M 60808  60844  60897M
             60969  60970  61056M 61198  61245  61380M 61395M 61444M 61480M 61480  61529M 61598  61663  61725M 61729
             61740M 61740  61749  61750  61882M 61889  61901M 62076M 62168  62214M 62234  62280M 62300  62346M 62366
             62407M 62442  62473M 62489M 62564  62602  62679  62705  62751M 62753  62779M 62781  62788M 62799  62849M
             62850  62851  62936M 62937  62938  63041M 63042  63043  63120M 63222  63260  63383M 63384M 63402M 63403M
             63429M 63456  63490M 63514M 63526  63546M 63642  63687  63697M 63698M 63714  63769M 63770M 63786  64005M
             64012  64032M 64068  64257M 64292  64356M 64389  64404M 64494  64532  64618  64620  64735M 64738  64740M
             64742M 64743M 64754M 64754  64786  64806M
     1(1)      978U  2329   2392M  2393M  2399M  8536   8569   8574M  8577M  8580   8600M  8639   8667   8672M  8694
              8721M  8755   8770M  8832   8985M  9439   9520M  9521   9568M  9569   9616M  9617   9664M  9665   9698M
              9862   9936N  9969M  9977   9985M  9998N  9999N 10001N 10032M 10040  10048M 10061N 10062N 10064N 10206M
             10207  10435M 10436  10556M 10556  10582M 10632M 10678M 10724M 10743M 10769M 10975M 11055  11082M 11084M
             11085  11097  11106M 11126M 11146  11173M 11175M 11176  11188  11197M 11217M 11252  11316N 11319N 11322N
             11352M 11458  11516N 11519N 11559M 11608N 11643N 11692M 11714M 11735M 11757M 11779M 11782  11786M 11789
             11793M 11796  11800M 11803  11837M 11852  11859M 11874  11918M 11940M 11962  11996M 11997  12044M 12045
1         (PROC2193) (12:51) (15MAR04) General Purpose Register Cross Reference                                             Page  367
             12065M 12067  12069M 12071  12073M 12075  12077M 12079  12104M 12207  12254  12342M 12342  12418M 12423
             12435M 12440  12452M 12457  12469M 12474  12484M 12490  12500M 12506  12508M 12628M 12763M 12789  12838N
             12842M 12871M 12921  12974  12999N 13064M 13064  13142M 13149  13157M 13170N 13171N 13173N 13224M 13244M
             13272M 13347M 13380M 13399M 13420M 13445M 13470M 13496M 13511M 13678M 13717  13758M 13792  13835  13860N
             13907M 13907  14026M 14027  14114M 14114  14192M 14199  14207M 14220N 14221N 14223N 14274M 14294M 14322M
             14397M 14404  14423M 14444M 14469M 14494M 14520M 14534M 14706M 14707  14737M 14743M 14910M 14949  14990M
             15017  15060  15085N 15150M 15150  15228M 15235  15243M 15256N 15257N 15259N 15310M 15330M 15358M 15429M
             15451M 15495  15497M 15498M 15531M 15557M 15558M 15571M 15576  15585M 15610M 15628M 15649M 15674M 15699M
             15725M 15751M 15777M 15803M 15818M 15985M 16024  16065M 16096  16145M 16278M 16401  16454  16479N 16544M
             16544  16627M 16647M 16675M 16728M 16748M 16767M 16788M 16813M 16838M 16864M 17038M 17141  17177  17204
             17231M 17240M 17305M 17346  17389  17558M 17559  17642M 17643  17730M 17730  17813M 17833M 17861M 17922
             17962M 17983M 18008M 18033M 18059M 18095M 18103  18117M 18150M 18206M 18207  18291M 18292  18322M 18488M
             18596  18632  18687M 18703  18712M 18809  18815  18835M 18851  18860M 18913M 19013M 19016  19036M 19078
             19131  19156N 19221M 19221  19304M 19324M 19352M 19421M 19539M 19560M 19583M 19591  19629M 19651M 19652M
             19653M 19666M 19671  19672M 19701M 19719M 19740M 19765M 19790M 19816M 19842M 19868M 19894M 20068M 20153
             20234N 20242N 20251M 20332M 20406M 20460  20531N 20551N 20621M 20757M 20758  20822M 20921M 20922  20939M
             20939  21079M 21158M 21186  21257N 21277N 21347M 21483M 21484  21548M 21647M 21648  21665M 21665  21805M
             21884M 21914  21985N 22005N 22075M 22211M 22212  22276M 22375M 22376  22393M 22393  22533M 22612M 22642
             22713N 22733N 22803M 22939M 22940  23004M 23103M 23104  23121M 23121  23261M 23340M 23370  23441N 23461N
             23531M 23667M 23668  23732M 23831M 23832  23849M 23849  23989M 24068M 24097  24156N 24182N 24190N 24199M
             24281M 24355M 24451  24515N 24525  24581  24582  24583  24585M 24585N 24586  24607M 24679M 24710M 24744
             24770  24771M 24792M 24799M 24820M 24959  25041N 25051  25060  25061M 25061N 25103M 25143M 25198M 25261
             25359M 25368M 25426M 25466  25586M 25595M 25616M 25685M 25797  25842  25866N 25889M 26037M 26121M 26149M
             26195M 26261M 26301M 26333M 26371M 26406M 26420M 26426M 26561M 26739  26816N 26828M 26856M 26935M 26964M
             26995M 27053M 27062  27064  27065M 27066  27067  27070M 27104M 27143M 27146  27179M 27188  27190  27191M
             27192  27211  27218M 27220M 27235  27239M 27305M 27376M 27452M 27468  27480M 27501M 27539M 27695M 27798
             27856N 27859N 27899M 27948N 27983N 28032M 28054M 28075M 28097M 28119M 28122  28126M 28129  28133M 28136
             28140M 28143  28152M 28167  28171M 28186  28190M 28214M 28238M 28264M 28279  28283M 28298  28302M 28342M
             28351  28385M 28386  28433M 28434  28454M 28456  28458M 28460  28462M 28464  28466M 28468  28492M 28715
             28767  28793N 28800  28855M 28862  28874M 28887N 28888N 28890N 28951M 28969M 28975M 29142M 29189  29230M
             29271  29323  29350N 29357  29392M 29399  29419M 29432N 29433N 29435N 29452M 29554M 29564M 29583M 29605M
             29613  29622M 29622  29700  29801  29998M 30146M 30493  30540M 30560  30607M 30627  30673M 30693  30764M
             30784  30830M 30850  30897M 30917  30963M 30983  31030M 31050  31084M 31097N 31188M 31208  31242M 31273
             31289M 31309  31356M 31376  31423M 31443  31490M 31510  31557M 31577  31624M 31644  31670M 31671  31687M
             31707  31748M 31768  31794M 31795  31811M 31831  31873M 31893  31934M 31954  31995M 32081  32133  32177
             32221M 32228  32241M 32254N 32255N 32257N 32367M 32585M 32586  32645M 32962  33008M 33028  33099M 33140
             33178M 33191N 33287M 33307  33352M 33372  33464M 33484  33525M 33545  33586M 33606  33647M 33667  33713M
             33733  33780M 33800  33846M 33866  33913M 33933  33961M 33974N 34065M 34085  34165M 34185  34231M 34251
             34297M 34317  34345M 34346M 34346N 34424M 34445M 34465  34493M 34494M 34494N 34572M 34593M 34613  34654M
             34733  34785  34812N 34875M 34875  34945  34982M 34989  35001M 35014N 35015N 35017N 35174M 35196M 35206M
             35373M 35450  35496M 35516  35587M 35607  35648M 35689  35741  35769N 35777  35813M 35813  35842M 35866
             35878M 35891N 35892N 35894N 35942M 36128M 36177M 36191M 36384M 36385  36448M 36570  36616M 36636  36707M
             36727  36768M 36788  36829M 36849  36892M 36942M 36962  37003M 37088  37194M 37196  37268M 37270  37336M
             37363  37415  37442N 37450  37485M 37492  37504M 37517N 37518N 37520N 37559M 37565M 37732M 37779  37820M
             37861  37913  37940N 37947  38002M 38009  38021M 38034N 38035N 38037N 38172M 38182M 38188M 38355M 38447
             38494M 38514  38560M 38580  38608M 38609M 38609N 38691M 38711  38752M 38794  38846  38873N 38880  38935M
             38942  38954M 38967N 38968N 38970N 39015M 39025M 39192M 39239  39280M 39321  39373  39400N 39407  39444M
             39451  39463M 39476N 39477N 39479N 39529M 39586M 39628M 39637M 39804M 39887  39933M 39953  40024M 40044
             40090M 40110  40151M 40190  40242  40269N 40276  40306M 40306  40337M 40360  40381M 40394N 40395N 40397N
             40462M 40514M 40556M 40567M 40760M 40761  40824M 40931  40977M 40997  41068M 41088  41138M 41158  41204M
             41224  41265M 41307  41368  41411  41422  41431M 41466M 41486M 41563M 41791  41842  41868N 41875  41906
             41947M 41954  41966M 41979N 41980N 41982N 42042M 42053M 42220M 42267  42308M 42349  42400  42427N 42434
             42463M 42470  42490M 42503N 42504N 42506N 42523M 42627M 42633M 42641  42650M 42650  42723  42924M 43072M
             43330  43359M 43359  43362  43378M 43398  43432M 43476  43492M 43512  43546M 43590  43606M 43626  43660M
             43704  43720M 43740  43774M 43818  43834M 43854  43880M 43894  43910M 43930  43956M 43970  43986M 44006
             44052M 44072  44119M 44139  44185M 44205  44276M 44296  44325M 44325  44329  44345M 44386  44437  44476
             44501M 44508  44520M 44533N 44534N 44536N 44588M 44601M 44601  44618M 44649M 44850M 44851  44910M 45108
             45136M 45137M 45137N 45159M 45179  45207M 45208M 45208N 45237M 45257  45285M 45286M 45286N 45302M 45322
             45363M 45383  45429M 45449  45520M 45540  45586M 45606  45653M 45673  45719M 45739  45786M 45806  45847M
1         (PROC2193) (12:51) (15MAR04) General Purpose Register Cross Reference                                             Page  368
             45936  45987  46014N 46077M 46077  46147  46172M 46179  46191M 46204N 46205N 46207N 46398M 46404M 46571M
             46648  46694M 46714  46785M 46805  46846M 46887  46938  46966N 46974  46998M 46998  47027M 47050  47062M
             47075N 47076N 47078N 47252M 47286M 47345M 47364M 47557M 47558  47621M 47744  47790M 47810  47881M 47901
             47942M 47962  48003M 48023  48066M 48116M 48136  48177M 48258  48309  48336N 48344  48367M 48374  48394M
             48407N 48408N 48410N 48457M 48477M 48502M 48527M 48538M 48705M 48752  48793M 48834  48885  48912N 48919
             48944M 48951  48971M 48984N 48985N 48987N 49096M 49125M 49158M 49175M 49193M 49203M 49370M 49447  49493M
             49513  49584M 49604  49645M 49686  49737  49764N 49771  49787M 49787  49818M 49841  49870M 49883N 49884N
             49886N 49995M 50039M 50057M 50067M 50260M 50261  50324M 50416  50462M 50482  50553M 50573  50627M 50647
             50688M 50750  50821  50830  50842M 50867M 50929M 51033  51070  51098N 51104  51157  51191M 51199  51200
             51202M 51208M 51209M 51279M 51312  51533M 51673  51737N 51740N 51764M 51844M 51994M 52012M 52030M 52062
             52174  52229M 52247M 52265M 52283M 52302M 52320M 52338M 52354M 52421M 52451  52544  52597  52624M 52625M
             52648M 52649M 52655M 52819M 52880  52979N 53001N 53027N 53066M 53068  53094M 53096  53105M 53116  53160M
             53247M 53352M 53436M 53467  53566N 53588N 53614N 53653M 53655  53681M 53683  53692M 53703  53747M 53834M
             53939M 54023M 54236  54297  54298N 54299M 54299N 54709M 54710  54726M 54746M 54856M 54891  55006M 55038
             55246M 55442M 55453M 55750M 55778M 55807M 55828M 55844M 55849M 55868M 55873M 55889M 55894  55895M 55896
             55920M 55945  56160M 56187  56300M 56391M 56416  56592M 56620  56646M 56649M 56651  56695M 56714M 56800
             56873M 56875M 56876  56880M 56892M 56909M 56992  57001M 57013M 57015M 57016  57038M 57062M 57089M 57097
             57127M 57200M 57216  57257  57290M 57319  57396M 57410  57436M 57463M 57499M 57566M 57661M 57670M 57677
             57692M 57718  57744  57745  57747M 57752M 57753  57768M 57835  57868M 57947M 57948  57949M 57950  58036M
             58072M 58095  58122M 58142M 58169  58281M 58307  58372M 58396  58472M 58505M 58536M 58585M 58609M 58674M
             58701  58764  58772M 58785N 58786N 58788N 58839M 58920  58966M 58986  59032M 59052  59098M 59118  59148M
             59177M 59256  59332M 59412M 59413  59485M 59511  59566M 59649M 59722M 59768  59805  59838N 59850M 60014M
             60041  60095N 60119M 60260M 60287  60324  60357N 60359N 60371M 60535M 60562  60616N 60640M 60781M 60808
             60845  60878N 60880N 60892M 61056M 61198  61281N 61375M 61440M 61529M 61598  61664  61721M 61728  61736M
             61749N 61750N 61752N 61878M 62007M 62008  62076M 62168  62214M 62234  62280M 62300  62346M 62366  62407M
             62442  62472M 62489M 62564  62663N 62685N 62711N 62750M 62752  62778M 62780  62789M 62800  62844M 62931M
             63036M 63120M 63222  63261  63385M 63404M 63423  63430M 63462M 63462N 63463M 63463N 63475  63481M 63481N
             63482M 63482N 63491M 63513M 63526  63546M 63642  63688  63696M 63698  63714  63720M 63720N 63721M 63721N
             63768M 63770  63786  63792M 63792N 63793M 63793N 63841M 63899  63911  63912N 63982M 63982N 63983M 63983N
             64006M 64012  64032M 64068  64103N 64155  64202  64257M 64292  64342  64386M 64389  64404M 64494  64533
             64554M 64713M 64736M 64737M 64738M 64740M 64744M 64786  64806M
     2(2)      974U  2329   8536   8576M  8577   8578M  8600M  8639   8673M  8770M  8832   8858   8868M  8871M  8890M
              8893M  8912M  8914   8930   8957   8985M  9439   9468M  9498U  9503M  9522M  9533U  9546U  9551M  9570M
              9581U  9594U  9599M  9618M  9629U  9642U  9647M  9677U  9698M  9862   9901M  9937M  9941M  9942M  9946M
             10085M 10087  10102  10134  10143M 10181  10189M 10219U 10224M 10292U 10314M 10316  10331  10363  10371M
             10406  10415M 10448U 10453M 10521U 10792U 10797M 10864U 10975M 11055  11081M 11082  11083M 11084  11126M
             11146  11172M 11173  11174M 11175  11217M 11252  11281M 11317M 11318  11320M 11321  11323M 11324  11352M
             11458  11497M 11517M 11518  11520M 11521  11579M 11609M 11610  11619M 11619  11631M 11644M 11645  11654M
             11654  11666M 11693M 11736M 11781M 11785  11788M 11792  11795M 11799  11802M 11806  11838M 11853M 11855
             11860M 11875M 11877  11941M 11974U 11979M 11998M 12009U 12022U 12027M 12046M 12057U 12104M 12207  12255M
             12256  12259M 12318U 12323M 12399U 12543U 12548M 12624U 12654U 12659M 12735U 12763M 12789  12817M 12871M
             12921  12977M 13040U 13045M 13121U 13281M 13285M 13294M 13294  13301  13323M 13333U 13347  13359U 13361M
             13555U 13560M 13636U 13678M 13717  13758M 13792  13838M 13883U 13888M 13964U 14004U 14009M 14048U 14090U
             14095M 14171U 14331M 14335M 14344M 14344  14351  14373M 14383U 14397  14403M 14532M 14542U 14564U 14569M
             14645U 14684U 14689M 14728U 14787U 14792M 14868U 14910M 14949  14990M 15017  15063M 15126U 15131M 15207U
             15367M 15371M 15380M 15380  15387  15437M 15456M 15464U 15531  15537M 15585  15591M 15605U 15862U 15867M
             15943U 15985M 16024  16065M 16096  16177U 16182M 16249U 16278M 16401  16457M 16520U 16525M 16601U 16683M
             16687M 16696M 16696  16703  16725M 16726  16727  16729M 16915U 16920M 16996U 17038M 17141  17177  17178
             17235M 17241M 17305M 17346  17392M 17468M 17501M 17536U 17541M 17580U 17620U 17625M 17664U 17706U 17711M
             17787U 17869M 17873M 17882M 17882  17889  17921M 17943M 18103M 18111U 18123U 18125M 18126M 18184U 18189M
             18228U 18269U 18274M 18313U 18365U 18370M 18446U 18488M 18596  18713M 18741M 18749U 18777U 18861M 18889M
             18899U 18924U 18928M 18932M 18941M 18941  18948  19036M 19078  19134M 19197U 19202M 19278U 19360M 19364M
             19373M 19373  19380  19430M 19488M 19521M 19591M 19600U 19629  19631M 19672  19674M 19688U 19691M 19697
             19945U 19950M 20026U 20068M 20153  20184M 20311U 20316M 20377U 20406M 20460  20503M 20532M 20533  20552M
             20553  20562M 20562  20574M 20622M 20650U 20655M 20722U 20735U 20740M 20759M 20770U 20801U 20806M 20867U
             20899U 20904M 20923M 20934U 20955U 20960M 21027U 21058U 21063M 21124U 21158M 21186  21229M 21258M 21259
             21278M 21279  21288M 21288  21300M 21348M 21376U 21381M 21448U 21461U 21466M 21485M 21496U 21527U 21532M
             21593U 21625U 21630M 21649M 21660U 21681U 21686M 21753U 21784U 21789M 21850U 21884M 21914  21957M 21986M
             21987  22006M 22007  22016M 22016  22028M 22076M 22104U 22109M 22176U 22189U 22194M 22213M 22224U 22255U
1         (PROC2193) (12:51) (15MAR04) General Purpose Register Cross Reference                                             Page  369
             22260M 22321U 22353U 22358M 22377M 22388U 22409U 22414M 22481U 22512U 22517M 22578U 22612M 22642  22685M
             22714M 22715  22734M 22735  22744M 22744  22756M 22804M 22832U 22837M 22904U 22917U 22922M 22941M 22952U
             22983U 22988M 23049U 23081U 23086M 23105M 23116U 23137U 23142M 23209U 23240U 23245M 23306U 23340M 23370
             23413M 23442M 23443  23462M 23463  23472M 23472  23484M 23532M 23560U 23565M 23632U 23645U 23650M 23669M
             23680U 23711U 23716M 23777U 23809U 23814M 23833M 23844U 23865U 23870M 23937U 23968U 23973M 24034U 24068M
             24097  24128M 24157M 24260U 24265M 24326U 24355M 24451  24489M 24516M 24517  24710M 24744  24820M 24959
             25015M 25042M 25043  25198M 25261  25426M 25466  25550M 25624  25685M 25797  25845M 26043M 26110M 26154
             26252M 26384M 26459U 26464M 26531U 26561M 26739  26786M 27146M 27191  27583U 27588M 27664U 27695M 27798
             27837M 27857M 27858  27860M 27861  27919M 27949M 27950  27959M 27959  27971M 27984M 27985  27994M 27994
             28006M 28033M 28076M 28121M 28125  28128M 28132  28135M 28139  28142M 28146  28153M 28172M 28191M 28215M
             28239M 28265M 28284M 28303M 28363U 28368M 28387M 28398U 28411U 28416M 28435M 28446U 28492M 28715  28768M
             28769  28772M 29019U 29024M 29100U 29142M 29189  29230M 29271  29324M 29325  29328M 29597M 29597  29618M
             29629M 29636M 29639  29683M 29729M 29737M 29740  29784M 29802M 29830M 29837  29885M 29969M 30003  30028M
             30146M 30493  30540M 30560  30607M 30627  30673M 30693  30764M 30784  30830M 30850  30897M 30917  30963M
             30983  31030M 31050  31188M 31208  31289M 31309  31356M 31376  31423M 31443  31490M 31510  31557M 31577
             31624M 31644  31687M 31707  31748M 31768  31811M 31831  31873M 31893  31934M 31954  31995M 32081  32134M
             32135  32138M 32411U 32416M 32492U 32563U 32568M 32607U 32645M 32962  33008M 33028  33099M 33140  33287M
             33307  33352M 33372  33464M 33484  33525M 33545  33586M 33606  33647M 33667  33713M 33733  33780M 33800
             33846M 33866  33913M 33933  34065M 34085  34165M 34185  34231M 34251  34297M 34317  34445M 34465  34593M
             34613  34654M 34733  34786M 34787  34790M 34851U 34856M 34932U 35085U 35090M 35166U 35250U 35255M 35331U
             35373M 35450  35496M 35516  35587M 35607  35648M 35689  35742M 35743  35746M 36235U 36240M 36316U 36362U
             36367M 36406U 36448M 36570  36616M 36636  36707M 36727  36768M 36788  36829M 36849  36942M 36962  37003M
             37088  37336M 37363  37416M 37417  37420M 37609U 37614M 37690U 37732M 37779  37820M 37861  37914M 37915
             37918M 38232U 38237M 38313U 38355M 38447  38494M 38514  38560M 38580  38691M 38711  38752M 38794  38847M
             38848  38851M 39069U 39074M 39150U 39192M 39239  39280M 39321  39374M 39375  39378M 39681U 39686M 39762U
             39804M 39887  39933M 39953  40024M 40044  40090M 40110  40151M 40190  40243M 40244  40247M 40611U 40616M
             40692U 40738U 40743M 40782U 40824M 40931  40977M 40997  41068M 41088  41138M 41158  41204M 41224  41265M
             41307  41368  41411  41423M 41436  41563M 41791  41843M 41844  41847M 41906  42097U 42102M 42178U 42220M
             42267  42308M 42349  42401M 42402  42405M 42646M 42659M 42662  42706M 42752M 42760M 42763  42811M 42895M
             42929  42954M 43072M 43330  43378M 43398  43492M 43512  43606M 43626  43720M 43740  43834M 43854  43910M
             43930  43986M 44006  44052M 44072  44119M 44139  44185M 44205  44276M 44296  44345M 44386  44438M 44439
             44442M 44693U 44698M 44774U 44828U 44833M 44872U 44910M 45108  45159M 45179  45237M 45257  45302M 45322
             45363M 45383  45429M 45449  45520M 45540  45586M 45606  45653M 45673  45719M 45739  45786M 45806  45847M
             45936  45988M 45989  45992M 46053U 46058M 46134U 46308U 46313M 46389U 46448U 46453M 46529U 46571M 46648
             46694M 46714  46785M 46805  46846M 46887  46939M 46940  46943M 47408U 47413M 47489U 47535U 47540M 47579U
             47621M 47744  47790M 47810  47881M 47901  47942M 47962  48003M 48023  48116M 48136  48177M 48258  48310M
             48311  48314M 48582U 48587M 48663U 48705M 48752  48793M 48834  48886M 48887  48890M 49247U 49252M 49328U
             49370M 49447  49493M 49513  49584M 49604  49645M 49686  49738M 49739  49742M 50111U 50116M 50192U 50238U
             50243M 50282U 50324M 50416  50462M 50482  50553M 50573  50627M 50647  50688M 50750  50821  50831M 50872
             50929M 51033  51073M 51074  51077M 51157M 51201  51202  51279M 51312  51533M 51673  51713M 51738M 51739
             51741M 51742  51753M 51764  52062M 52063M 52421M 52451  52545M 52557M 52557  52576  52595  52616  52627M
             52640  52698M 52819M 52880  52951M 52980M 52981  52982M 52983  53002M 53003  53004M 53005  53028M 53029
             53030M 53031  53106M 53117  53135U 53140M 53209U 53222U 53227M 53296U 53327U 53332M 53401U 53436M 53467
             53538M 53567M 53568  53569M 53570  53589M 53590  53591M 53592  53615M 53616  53617M 53618  53693M 53704
             53722U 53727M 53796U 53809U 53814M 53883U 53914U 53919M 53988U 54023M 54236  54274M 54423M 54442M 54442N
             54687U 54692M 54711M 54722U 54763U 54768M 54835U 54856M 54891  55006M 55038  55177M 55177  55207M 55238
             55253  55340  55405  55920M 55945  56160M 56187  56391M 56416  56592M 56620  56714M 56800  56884M 56884
             56892M 56909M 56925  57101M 57101  57127M 57150  57167M 57167  57290M 57319  57408M 57408  57436M 57457M
             57457  57692M 57718  57744M 57752  57768M 57835  57869M 58072M 58095  58142M 58169  58196M 58197  58228N
             58281M 58307  58372M 58396  58674M 58701  58839M 58920  58966M 58986  59032M 59052  59098M 59118  59177M
             59256  59283M 59311U 59316M 59377U 59390U 59395M 59425U 59438U 59443M 59465U 59485M 59511  59540M 59628U
             59633M 59694U 59722M 59768  59808M 59840M 59898U 59903M 59979U 60014M 60041  60078M 60148U 60153M 60229U
             60260M 60287  60327M 60361M 60419U 60424M 60500U 60535M 60562  60599M 60669U 60674M 60750U 60781M 60808
             60848M 60882M 60940U 60945M 61021U 61056M 61198  61250M 61282M 61307M 61529M 61598  61667M 61985U 61990M
             62029U 62076M 62168  62214M 62234  62280M 62300  62346M 62366  62407M 62442  62489M 62564  62635M 62664M
             62665  62666M 62667  62686M 62687  62688M 62689  62712M 62713  62714M 62715  62790M 62801  62819U 62824M
             62893U 62906U 62911M 62980U 63011U 63016M 63085U 63120M 63222  63262  63268M 63310M 63405M 63423  63456
             63475  63546M 63642  63689  63842M 63899  63913  63970M 63970N 63971M 63971N 63989M 64032M 64068  64158
             64204  64257M 64292  64372  64404M 64494  64534  64542M 64543  64622N 64623M 64623N 64624N 64646N 64745M
1         (PROC2193) (12:51) (15MAR04) General Purpose Register Cross Reference                                             Page  370
             64745N 64786  64806M
     3(3)      970U  2329   8536   8579M  8600M  8639   8770M  8832   8869M  8871M  8891M  8893M  8913M  8914M  8915M
              8930   8950M  8956M  8956N  8957M  8958   8985M  9439   9698M  9862   9938M  9940   9941M  9943M  9945
              9946M  9947M  9948  10086M 10087M 10102  10134  10181  10315M 10316M 10331  10363  10406  10975M 11055
             11126M 11146  11217M 11252  11352M 11458  11694M 11737M 11839M 11861M 11942M 12104M 12207  12763M 12789
             12871M 12921  13678M 13717  13758M 13792  14404M 14535M 14706  14910M 14949  14990M 15017  15414M 15415M
             15415  15516M 15516  15985M 16024  16065M 16096  16278M 16401  17038M 17141  17203M 17203  17219  17232M
             17233M 17233  17305M 17346  17922M 17930U 17940U 18113M 18114  18164M 18206  18249M 18291  18488M 18596
             18667M 18667  18681  18687  18779M 18779  18800  18802  18814M 18814  18829  18835  18968M 18968  19036M
             19078  19406M 19407M 19407  19428  19592M 19602  19630  19673  20068M 20153  20216M 20216  20235M 20406M
             20460  20623M 21158M 21186  21349M 21884M 21914  22077M 22612M 22642  22805M 23340M 23370  23533M 24068M
             24097  24164M 24164  24183M 24355M 24451  24710M 24744  24820M 24959  25198M 25261  25312M 25317M 25326M
             25326  25333  25354M 25355M 25356  25426M 25466  25685M 25797  26561M 26739  27695M 27798  28034M 28077M
             28154M 28173M 28192M 28216M 28240M 28266M 28285M 28304M 28492M 28715  29142M 29189  29230M 29271  29599M
             29599  29613M 29628M 29635M 29639  29729M 29736M 29740  29830M 29837  29969M 29998  30146M 30493  30540M
             30560  30607M 30627  30673M 30693  30764M 30784  30830M 30850  30897M 30917  30963M 30983  31030M 31050
             31188M 31208  31289M 31309  31356M 31376  31423M 31443  31490M 31510  31557M 31577  31624M 31644  31687M
             31707  31748M 31768  31811M 31831  31873M 31893  31934M 31954  31995M 32081  32645M 32962  33008M 33028
             33099M 33140  33287M 33307  33352M 33372  33464M 33484  33525M 33545  33586M 33606  33647M 33667  33713M
             33733  33780M 33800  33846M 33866  33913M 33933  34065M 34085  34165M 34185  34231M 34251  34297M 34317
             34445M 34465  34593M 34613  34654M 34733  35373M 35450  35496M 35516  35587M 35607  35648M 35689  36448M
             36570  36616M 36636  36707M 36727  36768M 36788  36829M 36849  36942M 36962  37003M 37088  37336M 37363
             37732M 37779  37820M 37861  38355M 38447  38494M 38514  38560M 38580  38691M 38711  38752M 38794  39192M
             39239  39280M 39321  39804M 39887  39933M 39953  40024M 40044  40090M 40110  40151M 40190  40824M 40931
             40977M 40997  41068M 41088  41138M 41158  41204M 41224  41265M 41307  41368  41411  41422M 41431  41563M
             41791  41906  42220M 42267  42308M 42349  42641M 42658M 42662  42752M 42759M 42763  42895M 42924  43072M
             43330  43378M 43398  43492M 43512  43606M 43626  43720M 43740  43834M 43854  43910M 43930  43986M 44006
             44052M 44072  44119M 44139  44185M 44205  44276M 44296  44345M 44386  44910M 45108  45159M 45179  45237M
             45257  45302M 45322  45363M 45383  45429M 45449  45520M 45540  45586M 45606  45653M 45673  45719M 45739
             45786M 45806  45847M 45936  46571M 46648  46694M 46714  46785M 46805  46846M 46887  47621M 47744  47790M
             47810  47881M 47901  47942M 47962  48003M 48023  48116M 48136  48177M 48258  48705M 48752  48793M 48834
             49370M 49447  49493M 49513  49584M 49604  49645M 49686  50324M 50416  50462M 50482  50553M 50573  50627M
             50647  50688M 50750  50821  50830M 50867  50929M 51033  51279M 51312  51533M 51673  52421M 52451  52544M
             52623  52635  52696M 52819M 52880  53107M 53118  53436M 53467  53694M 53705  54023M 54236  54856M 54891
             55006M 55038  55181M 55181  55253M 55354  55920M 55945  56160M 56187  56391M 56416  56592M 56620  56714M
             56800  57290M 57319  57387M 57599M 57631M 57640M 57640  57692M 57718  57768M 57835  57873M 57873  58072M
             58095  58142M 58169  58197M 58198M 58210  58227  58281M 58307  58333M 58342M 58342  58372M 58396  58674M
             58701  58839M 58920  58966M 58986  59032M 59052  59098M 59118  59177M 59256  59485M 59511  59722M 59768
             59839M 60014M 60041  60260M 60287  60360M 60535M 60562  60781M 60808  60881M 61056M 61198  61283M 61295
             61323M 61332M 61332  61339  61529M 61598  61929M 61945M 61945  62007  62076M 62168  62214M 62234  62280M
             62300  62346M 62366  62407M 62442  62489M 62564  62791M 62802  63120M 63222  63263  63269M 63281  63288M
             63305  63310M 63546M 63642  63690  64032M 64068  64103M 64104  64105M 64106M 64118  64125M 64141  64148M
             64189  64196M 64203  64205  64257M 64292  64404M 64494  64535  64556M 64622M 64624  64645M 64646  64715M
             64806M
     4(4)      966U  2329   8536   8580M  8600M  8639   8666M  8770M  8832   8871M  8893M  8985M  9439   9698M  9862
             10088M 10140  10146M 10207M 10248  10317M 10412  10418M 10436M 10477  10975M 11040U 11055  11126M 11146
             11217M 11228U 11252  11352M 11458  11840M 11862M 11943M 12104M 12207  12763M 12789  12871M 12921  12957M
             12965U 13678M 13717  13758M 13769U 13792  14405M 14910M 14949  14990M 15017  15985M 16024  16065M 16096
             16132M 16140U 16278M 16289U 16401  16437M 16445U 17038M 17049U 17141  17204M 17230M 17230  17231  17234M
             17305M 17346  17944M 18488M 18596  18663M 18663  18771M 18794M 18794  18800M 18801M 18801  18803  18804
             18815M 18927M 18927  18967M 19036M 19078  19114M 19122U 20068M 20079U 20153  20180M 20294  20406M 20460
             21158M 21186  21884M 21914  22612M 22642  23340M 23370  24068M 24097  24124M 24243  24355M 24451  24587M
             24601  24607  24612M 24612N 24710M 24744  24770M 24771N 24799N 24800N 24820M 24959  25198M 25261  25309M
             25313N 25356N 25359N 25368N 25369N 25426M 25466  25685M 25797  26561M 26739  27695M 27798  28155M 28174M
             28193M 28217M 28241M 28267M 28286M 28305M 28492M 28715  28800M 28808U 29142M 29189  29230M 29248U 29271
             29357M 29365U 30146M 30493  30540M 30560  30607M 30627  30673M 30693  30764M 30784  30830M 30850  30897M
             30917  30963M 30983  31030M 31050  31188M 31208  31289M 31309  31356M 31376  31423M 31443  31490M 31510
             31557M 31577  31624M 31644  31687M 31707  31748M 31768  31811M 31831  31873M 31893  31934M 31954  31995M
             32013U 32081  32165M 32165  32177M 32185U 32509M 32509  32645M 32962  33008M 33028  33099M 33140  33287M
1         (PROC2193) (12:51) (15MAR04) General Purpose Register Cross Reference                                             Page  371
             33307  33352M 33372  33464M 33484  33525M 33545  33586M 33606  33647M 33667  33713M 33733  33780M 33800
             33846M 33866  33913M 33933  34065M 34085  34165M 34185  34231M 34251  34297M 34317  34445M 34465  34593M
             34613  34654M 34672U 34733  34945M 34953U 35373M 35450  35496M 35516  35587M 35607  35648M 35666U 35689
             35777M 35785U 36448M 36570  36616M 36636  36707M 36727  36768M 36788  36829M 36849  36942M 36962  37003M
             37021U 37088  37336M 37363  37450M 37458U 37732M 37779  37820M 37838U 37861  37947M 37955U 38355M 38447
             38494M 38514  38560M 38580  38691M 38711  38752M 38770U 38794  38880M 38888U 39192M 39239  39280M 39298U
             39321  39407M 39415U 39804M 39887  39933M 39953  40024M 40044  40090M 40110  40151M 40166U 40190  40276M
             40277  40286U 40824M 40931  40977M 40997  41068M 41088  41138M 41158  41204M 41224  41265M 41283U 41307
             41368  41411  41563M 41791  41875M 41883U 41906  42220M 42267  42308M 42326U 42349  42434M 42442U 43072M
             43330  43378M 43398  43492M 43512  43606M 43626  43720M 43740  43834M 43854  43910M 43930  43986M 44006
             44052M 44072  44119M 44139  44185M 44205  44276M 44296  44345M 44363U 44386  44476M 44484U 44910M 45108
             45159M 45179  45237M 45257  45302M 45322  45363M 45383  45429M 45449  45520M 45540  45586M 45606  45653M
             45673  45719M 45739  45786M 45806  45847M 45865U 45936  46147M 46155U 46571M 46648  46694M 46714  46785M
             46805  46846M 46864U 46887  46974M 46982U 47621M 47744  47790M 47810  47881M 47901  47942M 47962  48003M
             48023  48116M 48136  48177M 48195U 48258  48344M 48352U 48705M 48752  48793M 48811U 48834  48919M 48927U
             49070  49370M 49447  49493M 49513  49584M 49604  49645M 49663U 49686  49771M 49779U 49991  50324M 50416
             50462M 50482  50553M 50573  50627M 50647  50688M 50706U 50750  50821  50929M 51033  51279M 51312  51533M
             51673  51815M 51829  51835  52389M 52390M 52421M 52451  52600M 52611  52819M 52880  53108M 53119  53436M
             53467  53695M 53706  54023M 54236  54856M 54891  55006M 55038  55920M 55945  56160M 56187  56391M 56416
             56592M 56620  56714M 56800  57290M 57319  57692M 57718  57768M 57835  58072M 58095  58142M 58169  58281M
             58307  58372M 58396  58674M 58701  58839M 58920  58966M 58986  59032M 59052  59098M 59118  59177M 59256
             59485M 59511  59537M 59610  59722M 59768  60014M 60041  60260M 60287  60535M 60562  60781M 60808  61056M
             61198  61413M 61424M 61424  61459M 61529M 61598  61684U 61709M 61710M 61868M 61869M 61982U 62024U 62053U
             62076M 62168  62214M 62234  62280M 62300  62346M 62366  62407M 62442  62489M 62564  62792M 62803  63120M
             63222  63264  63270M 63310M 63405  63546M 63642  63691  63702M 63702  63722M 63722N 63739  63745  63774M
             63774  63794M 63794N 63811  63817  63913M 63915M 64032M 64068  64104M 64105  64106  64153M 64154M 64155M
             64168  64175M 64189  64196  64204M 64206M 64257M 64292  64329M 64342  64348M 64348N 64349M 64349N 64359M
             64372  64378M 64378N 64379M 64379N 64404M 64494  64536  64544M 64545  64554N 64618N 64620M 64621M 64621N
             64702  64713N 64735  64742  64806M
     5(5)      962U  2329   8536   8600M  8639   8667M  8673   8770M  8832   8870M  8870   8871M  8892M  8893M  8985M
              9439   9698M  9862   9931U  9936M  9955U 10089M 10140  10149M 10192M 10318M 10374M 10412  10421M 10975M
             11055  11126M 11146  11217M 11252  11309U 11316M 11319M 11322M 11331U 11352M 11458  11514U 11516M 11519M
             11608M 11643M 11687U 11844M 11844  11866M 11866  11944M 12104M 12207  12276U 12315U 12394U 12408M 12409M
             12425M 12426M 12442M 12443M 12459M 12460M 12540U 12619U 12651U 12730U 12745U 12763M 12789  12834U 12838M
             12858U 12871M 12921  12994U 12999M 13037U 13116U 13130M 13131M 13234M 13235M 13552U 13631U 13660U 13678M
             13717  13758M 13792  13855U 13860M 13880U 13959U 14001U 14043U 14087U 14166U 14180M 14181M 14284M 14285M
             14561U 14640U 14681U 14723U 14784U 14863U 14892U 14910M 14949  14990M 15017  15080U 15085M 15123U 15202U
             15216M 15217M 15320M 15321M 15410M 15411M 15441M 15442M 15859U 15938U 15967U 15985M 16024  16065M 16096
             16278M 16401  16474U 16479M 16517U 16596U 16637M 16638M 16912U 16991U 17020U 17038M 17141  17178M 17188U
             17241  17287U 17305M 17346  17400M 17401M 17412U 17533U 17575U 17617U 17659U 17703U 17782U 17823M 17824M
             18181U 18223U 18266U 18308U 18362U 18441U 18470U 18488M 18596  18632M 18642U 18655U 18697U 18710U 18713
             18845U 18858U 18861  19036M 19078  19151U 19156M 19194U 19273U 19314M 19315M 19402M 19403M 19434M 19435M
             19539  19942U 20021U 20050U 20068M 20153  20208U 20234M 20242M 20261U 20406M 20460  20529U 20531M 20551M
             20617U 21158M 21186  21255U 21257M 21277M 21343U 21884M 21914  21983U 21985M 22005M 22071U 22612M 22642
             22711U 22713M 22733M 22799U 23340M 23370  23439U 23441M 23461M 23527U 24068M 24097  24152U 24156M 24182M
             24190M 24209U 24355M 24451  24513U 24515M 24588M 24601  24710M 24721U 24744  24820M 24959  25039U 25041M
             25198M 25209U 25261  25313M 25426M 25466  25504M 25514U 25672U 25685M 25797  25866M 25876U 25900U 26015M
             26015  26053M 26053  26170M 26185M 26185  26347M 26348M 26348N 26358U 26382U 26561M 26739  26812U 26816M
             27580U 27659U 27671U 27695M 27798  27854U 27856M 27859M 27948M 27983M 28027U 28159M 28159  28178M 28178
             28194M 28218M 28242M 28271M 28271  28290M 28290  28306M 28492M 28715  28789U 28793M 28843M 28844M 29016U
             29095U 29124U 29142M 29189  29230M 29271  29346U 29350M 29380M 29381M 29675U 29716U 29776U 29817U 29877U
             29956U 30020U 30099U 30128U 30146M 30493  30540M 30560  30607M 30627  30673M 30693  30764M 30784  30830M
             30850  30897M 30917  30963M 30983  31030M 31050  31188M 31208  31289M 31309  31356M 31376  31423M 31443
             31490M 31510  31557M 31577  31624M 31644  31687M 31707  31748M 31768  31811M 31831  31873M 31893  31934M
             31954  31995M 32081  32155U 32209M 32210M 32408U 32487U 32560U 32602U 32627U 32645M 32962  33008M 33028
             33099M 33140  33287M 33307  33352M 33372  33464M 33484  33525M 33545  33586M 33606  33647M 33667  33713M
             33733  33780M 33800  33846M 33866  33913M 33933  34065M 34085  34165M 34185  34231M 34251  34297M 34317
             34445M 34465  34593M 34613  34654M 34733  34807U 34812M 34848U 34927U 34970M 34971M 35082U 35161U 35247U
             35326U 35355U 35373M 35450  35496M 35516  35587M 35607  35648M 35689  35764U 35769M 35832M 35833M 36232U
1         (PROC2193) (12:51) (15MAR04) General Purpose Register Cross Reference                                             Page  372
             36311U 36359U 36401U 36430U 36448M 36570  36616M 36636  36707M 36727  36768M 36788  36829M 36849  36942M
             36962  37003M 37088  37114M 37124U 37323U 37336M 37363  37437U 37442M 37473M 37474M 37606U 37685U 37714U
             37732M 37779  37820M 37861  37935U 37940M 37990M 37991M 38120M 38121M 38229U 38308U 38337U 38355M 38447
             38494M 38514  38560M 38580  38691M 38711  38752M 38794  38868U 38873M 38923M 38924M 39011M 39012M 39066U
             39145U 39174U 39192M 39239  39280M 39321  39395U 39400M 39432M 39433M 39516M 39517M 39678U 39757U 39786U
             39804M 39887  39933M 39953  40024M 40044  40090M 40110  40151M 40190  40264U 40269M 40327M 40328M 40608U
             40687U 40735U 40777U 40806U 40824M 40931  40977M 40997  41068M 41088  41138M 41158  41204M 41224  41265M
             41307  41368  41376M 41386U 41411  41545U 41563M 41791  41864U 41868M 41906  41935M 41936M 42094U 42173U
             42202U 42220M 42267  42308M 42349  42423U 42427M 42451M 42452M 42698U 42739U 42803U 42882U 42946U 43025U
             43054U 43072M 43330  43378M 43398  43492M 43512  43606M 43626  43720M 43740  43834M 43854  43910M 43930
             43986M 44006  44052M 44072  44119M 44139  44185M 44205  44276M 44296  44345M 44386  44459U 44489M 44490M
             44690U 44769U 44825U 44867U 44892U 44910M 45108  45159M 45179  45237M 45257  45302M 45322  45363M 45383
             45429M 45449  45520M 45540  45586M 45606  45653M 45673  45719M 45739  45786M 45806  45847M 45936  46009U
             46014M 46050U 46129U 46160M 46161M 46305U 46384U 46445U 46524U 46553U 46571M 46648  46694M 46714  46785M
             46805  46846M 46887  46961U 46966M 47017M 47018M 47405U 47484U 47532U 47574U 47603U 47621M 47744  47790M
             47810  47881M 47901  47942M 47962  48003M 48023  48116M 48136  48177M 48258  48331U 48336M 48355M 48356M
             48579U 48658U 48687U 48705M 48752  48793M 48834  48907U 48912M 48932M 48933M 49024M 49025M 49244U 49323U
             49352U 49370M 49447  49493M 49513  49584M 49604  49645M 49686  49759U 49764M 49808M 49809M 50108U 50187U
             50235U 50277U 50306U 50324M 50416  50462M 50482  50553M 50573  50627M 50647  50688M 50750  50821  50929M
             51033  51094U 51098M 51261U 51279M 51312  51375M 51387  51394M 51395M 51396M 51406U 51477M 51478M 51479
             51490U 51533M 51673  51732U 51737M 51740M 51749U 52421M 52451  52477M 52487U 52806U 52819M 52880  52977U
             52979M 53001M 53027M 53041U 53109M 53120  53436M 53467  53564U 53566M 53588M 53614M 53628U 53696M 53707
             54023M 54236  54856M 54891  55006M 55038  55920M 55945  56160M 56187  56391M 56416  56592M 56620  56714M
             56800  57290M 57319  57393M 57464  57671  57692M 57718  57768M 57835  58072M 58095  58142M 58169  58281M
             58307  58372M 58396  58674M 58701  58839M 58920  58966M 58986  59032M 59052  59098M 59118  59177M 59256
             59485M 59511  59722M 59768  59834U 59838M 59895U 59974U 59990U 60014M 60041  60095M 60105U 60145U 60224U
             60236U 60260M 60287  60353U 60357M 60359M 60416U 60495U 60511U 60535M 60562  60616M 60626U 60666U 60745U
             60757U 60781M 60808  60874U 60878M 60880M 60937U 61016U 61032U 61056M 61198  61277U 61281M 61430M 61430N
             61505U 61529M 61598  61634M 61644U 62058U 62076M 62092U 62168  62214M 62234  62280M 62300  62346M 62366
             62407M 62420U 62442  62489M 62564  62661U 62663M 62685M 62711M 62725U 62793M 62804  63120M 63222  63265
             63271M 63281  63288  63305M 63310M 63410M 63429N 63483M 63483N 63490N 63546M 63642  63692  63914M 63915M
             64032M 64068  64156M 64157M 64158M 64168  64175  64205M 64206M 64257M 64292  64330M 64350M 64350N 64356N
             64360M 64380M 64380N 64386N 64404M 64494  64537  64545M 64546M 64547M 64702  64806M
     6(6)      958U  2329   8536   8600M  8639   8694M  8702U  8727U  8770M  8832   8858M  8866U  8965U  8985M  9439
              9503N  9551N  9599N  9647N  9698M  9862   9919  10205M 10224N 10434M 10453N 10780M 10797N 10975M 11055
             11126M 11146  11217M 11252  11352M 11458  11504  11845M 11867M 11960M 11979N 12027N 12104M 12207  12323N
             12548N 12659N 12763M 12789  12871M 12921  13045N 13560N 13678M 13717  13758M 13792  13888N 14009N 14095N
             14569N 14689N 14792N 14910M 14949  14990M 15017  15131N 15867N 15985M 16024  16065M 16096  16182N 16278M
             16401  16525N 16920N 17038M 17141  17305M 17346  17541N 17625N 17711N 18189N 18274N 18370N 18488M 18596
             19036M 19078  19202N 19950N 20068M 20153  20316N 20406M 20460  20499  20655N 20740N 20806N 20904N 20960N
             21063N 21158M 21186  21225  21381N 21466N 21532N 21630N 21686N 21789N 21884M 21914  21953  22109N 22194N
             22260N 22358N 22414N 22517N 22612M 22642  22681  22837N 22922N 22988N 23086N 23142N 23245N 23340M 23370
             23409  23565N 23650N 23716N 23814N 23870N 23973N 24068M 24097  24265N 24355M 24451  24710M 24744  24820M
             24959  24995M 25003U 25012  25198M 25216U 25261  25297M 25305U 25426M 25437U 25466  25493M 25501U 25685M
             25696U 25797  26464N 26561M 26739  27588N 27695M 27798  27844  28160M 28179M 28195M 28219M 28243M 28272M
             28291M 28307M 28349M 28368N 28416N 28492M 28715  28869  28871M 28906M 29024N 29142M 29158U 29189  29230M
             29241U 29271  29414  29416M 29451M 29683N 29784N 29885N 30028N 30146M 30162U 30493  30540M 30560  30607M
             30627  30673M 30693  30764M 30784  30830M 30850  30897M 30917  30963M 30983  31030M 31050  31188M 31208
             31289M 31309  31356M 31376  31423M 31443  31490M 31510  31557M 31577  31624M 31644  31687M 31707  31748M
             31768  31811M 31831  31873M 31893  31934M 31954  31995M 32006U 32081  32236  32238M 32273M 32416N 32568N
             32645M 32661U 32962  33008M 33028  33099M 33140  33287M 33307  33352M 33372  33464M 33484  33525M 33545
             33586M 33606  33647M 33667  33713M 33733  33780M 33800  33846M 33866  33913M 33933  34065M 34085  34165M
             34185  34231M 34251  34297M 34317  34445M 34465  34593M 34613  34654M 34665U 34733  34856N 34996  34998M
             35033M 35090N 35255N 35373M 35389U 35450  35496M 35516  35587M 35607  35648M 35659U 35689  35873  35875M
             35910M 36240N 36367N 36448M 36464U 36570  36616M 36636  36707M 36727  36768M 36788  36829M 36849  36942M
             36962  37003M 37014U 37088  37128M 37138U 37318U 37336M 37363  37499  37501M 37536M 37614N 37732M 37748U
             37779  37820M 37831U 37861  38016  38018M 38053M 38237N 38355M 38371U 38447  38494M 38514  38560M 38580
             38691M 38711  38752M 38763U 38794  38949  38951M 38986M 39074N 39192M 39208U 39239  39280M 39291U 39321
             39458  39460M 39495M 39686N 39804M 39887  39933M 39953  40024M 40044  40090M 40110  40151M 40190  40376
1         (PROC2193) (12:51) (15MAR04) General Purpose Register Cross Reference                                             Page  373
             40378M 40413M 40616N 40743N 40824M 40840U 40931  40977M 40997  41068M 41088  41138M 41158  41204M 41224
             41265M 41276U 41307  41333M 41343U 41368  41411  41550U 41563M 41791  41906  41961  41963M 41998M 42102N
             42220M 42236U 42267  42308M 42319U 42349  42485  42487M 42522M 42706N 42811N 42954N 43072M 43088U 43330
             43378M 43398  43492M 43512  43606M 43626  43720M 43740  43834M 43854  43910M 43930  43986M 44006  44052M
             44072  44119M 44139  44185M 44205  44276M 44296  44345M 44356U 44386  44515  44517M 44552M 44698N 44833N
             44910M 44926U 45108  45159M 45179  45237M 45257  45302M 45322  45363M 45383  45429M 45449  45520M 45540
             45586M 45606  45653M 45673  45719M 45739  45786M 45806  45847M 45858U 45936  46058N 46186  46188M 46223M
             46313N 46453N 46571M 46587U 46648  46694M 46714  46785M 46805  46846M 46857U 46887  47057  47059M 47094M
             47413N 47540N 47621M 47637U 47744  47790M 47810  47881M 47901  47942M 47962  48003M 48023  48116M 48136
             48177M 48188U 48258  48389  48391M 48426M 48587N 48705M 48721U 48752  48793M 48804U 48834  48966  48968M
             49003M 49252N 49370M 49386U 49447  49493M 49513  49584M 49604  49645M 49656U 49686  49865  49867M 49902M
             50116N 50243N 50324M 50340U 50416  50462M 50482  50553M 50573  50627M 50647  50688M 50699U 50750  50786M
             50796U 50821  50911U 50929M 51033  51071  51279M 51312  51338M 51348U 51520U 51533M 51673  52421M 52451
             52595M 52601  52651  52819M 52880  52919  53123M 53140N 53227N 53332N 53436M 53467  53506  53710M 53727N
             53814N 53919N 54023M 54236  54295  54296M 54675M 54692N 54768N 54856M 54869U 54891  55006M 55038  55920M
             55945  56160M 56187  56391M 56416  56592M 56620  56714M 56800  57290M 57319  57692M 57718  57768M 57835
             58072M 58095  58142M 58169  58281M 58307  58372M 58396  58674M 58701  58839M 58920  58966M 58986  59032M
             59052  59098M 59118  59177M 59188U 59256  59316N 59395N 59443N 59485M 59511  59633N 59722M 59768  59903N
             60014M 60041  60153N 60260M 60287  60424N 60535M 60562  60674N 60781M 60808  60945N 61056M 61198  61529M
             61598  61990N 62076M 62168  62214M 62234  62280M 62300  62346M 62366  62407M 62442  62489M 62564  62603
             62807M 62824N 62911N 63016N 63120M 63222  63411M 63430N 63484M 63484N 63491N 63546M 63642  63693  63927M
             63946M 64032M 64068  64101U 64257M 64268U 64292  64325U 64404M 64415U 64494  64538  64551M 64551  64625M
             64625N 64684  64744  64806M
     7(7)      954U  2322M  2322   2323B  2329   2335B  8536   8541M  8553U  8592U  8600M  8639   8644M  8656U  8762U
              8770M  8832   8837M  8849U  8977U  8985M  9439   9444M  9456U  9690U  9698M  9862   9868M  9880U 10967U
             10975M 11055  11060M 11072U 11118U 11126M 11146  11151M 11163U 11209U 11217M 11252  11257M 11269U 11344U
             11352M 11458  11464M 11476U 12096U 12104M 12207  12213M 12225U 12755U 12763M 12789  12794M 12806U 12863U
             12871M 12921  12927M 12939U 13670U 13678M 13717  13722M 13734U 13750U 13758M 13792  13798M 13810U 14902U
             14910M 14949  14954M 14966U 14982U 14990M 15017  15023M 15035U 15977U 15985M 16024  16029M 16041U 16057U
             16065M 16096  16102M 16114U 16270U 16278M 16401  16407M 16419U 17030U 17038M 17141  17147M 17159U 17297U
             17305M 17346  17352M 17364U 18480U 18488M 18596  18602M 18614U 19028U 19036M 19078  19084M 19096U 20060U
             20068M 20153  20158M 20170U 20398U 20406M 20460  20466M 20478U 21150U 21158M 21186  21192M 21204U 21876U
             21884M 21914  21920M 21932U 22604U 22612M 22642  22648M 22660U 23332U 23340M 23370  23376M 23388U 24060U
             24068M 24097  24102M 24114U 24347U 24355M 24451  24457M 24469U 24702U 24710M 24744  24749M 24761U 24812U
             24820M 24959  24965M 24977U 25190U 25198M 25261  25267M 25279U 25418U 25426M 25466  25471M 25483U 25677U
             25685M 25797  25803M 25815U 26553U 26561M 26739  26745M 26757U 27687U 27695M 27798  27804M 27816U 28484U
             28492M 28715  28721M 28733U 29134U 29142M 29189  29194M 29206U 29222U 29230M 29271  29277M 29289U 30138U
             30146M 30493  30498M 30510U 30532U 30540M 30560  30565M 30577U 30599U 30607M 30627  30632M 30644U 30665U
             30673M 30693  30698M 30710U 30756U 30764M 30784  30789M 30801U 30822U 30830M 30850  30855M 30867U 30889U
             30897M 30917  30922M 30934U 30955U 30963M 30983  30988M 31000U 31022U 31030M 31050  31055M 31067U 31180U
             31188M 31208  31213M 31225U 31281U 31289M 31309  31314M 31326U 31348U 31356M 31376  31381M 31393U 31415U
             31423M 31443  31448M 31460U 31482U 31490M 31510  31515M 31527U 31549U 31557M 31577  31582M 31594U 31616U
             31624M 31644  31649M 31661U 31679U 31687M 31707  31712M 31724U 31740U 31748M 31768  31773M 31785U 31803U
             31811M 31831  31836M 31848U 31865U 31873M 31893  31898M 31910U 31926U 31934M 31954  31959M 31971U 31987U
             31995M 32081  32087M 32099U 32637U 32645M 32962  32967M 32979U 33000U 33008M 33028  33033M 33045U 33091U
             33099M 33140  33146M 33158U 33279U 33287M 33307  33312M 33324U 33344U 33352M 33372  33377M 33389U 33456U
             33464M 33484  33489M 33501U 33517U 33525M 33545  33550M 33562U 33578U 33586M 33606  33611M 33623U 33639U
             33647M 33667  33672M 33684U 33705U 33713M 33733  33738M 33750U 33772U 33780M 33800  33805M 33817U 33838U
             33846M 33866  33871M 33883U 33905U 33913M 33933  33938M 33950U 34057U 34065M 34085  34090M 34102U 34157U
             34165M 34185  34190M 34202U 34223U 34231M 34251  34256M 34268U 34289U 34297M 34317  34322M 34334U 34437U
             34445M 34465  34470M 34482U 34585U 34593M 34613  34618M 34630U 34646U 34654M 34733  34739M 34751U 35365U
             35373M 35450  35455M 35467U 35488U 35496M 35516  35521M 35533U 35579U 35587M 35607  35612M 35624U 35640U
             35648M 35689  35695M 35707U 36440U 36448M 36570  36575M 36587U 36608U 36616M 36636  36641M 36653U 36699U
             36707M 36727  36732M 36744U 36760U 36768M 36788  36793M 36805U 36821U 36829M 36849  36854M 36866U 36934U
             36942M 36962  36967M 36979U 36995U 37003M 37088  37093M 37105U 37328U 37336M 37363  37369M 37381U 37724U
             37732M 37779  37784M 37796U 37812U 37820M 37861  37867M 37879U 38347U 38355M 38447  38452M 38464U 38486U
             38494M 38514  38519M 38531U 38552U 38560M 38580  38585M 38597U 38683U 38691M 38711  38716M 38728U 38744U
             38752M 38794  38800M 38812U 39184U 39192M 39239  39244M 39256U 39272U 39280M 39321  39327M 39339U 39796U
             39804M 39887  39892M 39904U 39925U 39933M 39953  39958M 39970U 40016U 40024M 40044  40049M 40061U 40082U
1         (PROC2193) (12:51) (15MAR04) General Purpose Register Cross Reference                                             Page  374
             40090M 40110  40115M 40127U 40143U 40151M 40190  40196M 40208U 40816U 40824M 40931  40936M 40948U 40969U
             40977M 40997  41002M 41014U 41060U 41068M 41088  41093M 41105U 41130U 41138M 41158  41163M 41175U 41196U
             41204M 41224  41229M 41241U 41257U 41265M 41307  41312M 41324U 41368  41411  41555U 41563M 41791  41797M
             41809U 41906  42212U 42220M 42267  42272M 42284U 42300U 42308M 42349  42355M 42367U 43064U 43072M 43330
             43335M 43347U 43370U 43378M 43398  43403M 43415U 43484U 43492M 43512  43517M 43529U 43598U 43606M 43626
             43631M 43643U 43712U 43720M 43740  43745M 43757U 43826U 43834M 43854  43859M 43871U 43902U 43910M 43930
             43935M 43947U 43978U 43986M 44006  44011M 44023U 44044U 44052M 44072  44077M 44089U 44111U 44119M 44139
             44144M 44156U 44177U 44185M 44205  44210M 44222U 44268U 44276M 44296  44301M 44313U 44337U 44345M 44386
             44392M 44404U 44902U 44910M 45108  45113M 45125U 45151U 45159M 45179  45184M 45196U 45229U 45237M 45257
             45262M 45274U 45294U 45302M 45322  45327M 45339U 45355U 45363M 45383  45388M 45400U 45421U 45429M 45449
             45454M 45466U 45512U 45520M 45540  45545M 45557U 45578U 45586M 45606  45611M 45623U 45645U 45653M 45673
             45678M 45690U 45711U 45719M 45739  45744M 45756U 45778U 45786M 45806  45811M 45823U 45839U 45847M 45936
             45942M 45954U 46563U 46571M 46648  46653M 46665U 46686U 46694M 46714  46719M 46731U 46777U 46785M 46805
             46810M 46822U 46838U 46846M 46887  46893M 46905U 47613U 47621M 47744  47749M 47761U 47782U 47790M 47810
             47815M 47827U 47873U 47881M 47901  47906M 47918U 47934U 47942M 47962  47967M 47979U 47995U 48003M 48023
             48028M 48040U 48108U 48116M 48136  48141M 48153U 48169U 48177M 48258  48264M 48276U 48697U 48705M 48752
             48757M 48769U 48785U 48793M 48834  48840M 48852U 49362U 49370M 49447  49452M 49464U 49485U 49493M 49513
             49518M 49530U 49576U 49584M 49604  49609M 49621U 49637U 49645M 49686  49692M 49704U 50316U 50324M 50416
             50421M 50433U 50454U 50462M 50482  50487M 50499U 50545U 50553M 50573  50578M 50590U 50619U 50627M 50647
             50652M 50664U 50680U 50688M 50750  50756M 50768U 50821  50921U 50929M 51033  51039M 51051U 51271U 51279M
             51312  51317M 51329U 51525U 51533M 51673  51679M 51691U 52413U 52421M 52451  52456M 52468U 52811U 52819M
             52880  52886M 52898U 53428U 53436M 53467  53473M 53485U 54015U 54023M 54236  54242M 54254U 54848U 54856M
             54891  54896M 54908U 54998U 55006M 55038  55043M 55055U 55912U 55920M 55945  55950M 55962U 56152U 56160M
             56187  56192M 56204U 56383U 56391M 56416  56421M 56433U 56584U 56592M 56620  56625M 56637U 56706U 56714M
             56800  56805M 56817U 57282U 57290M 57319  57324M 57336U 57684U 57692M 57718  57723M 57735U 57760U 57768M
             57835  57840M 57852U 58064U 58072M 58095  58100M 58112U 58134U 58142M 58169  58174M 58186U 58273U 58281M
             58307  58312M 58324U 58364U 58372M 58396  58401M 58413U 58666U 58674M 58701  58706M 58718U 58831U 58839M
             58920  58925M 58937U 58958U 58966M 58986  58991M 59003U 59024U 59032M 59052  59057M 59069U 59090U 59098M
             59118  59123M 59135U 59169U 59177M 59256  59261M 59273U 59477U 59485M 59511  59516M 59528U 59714U 59722M
             59768  59774M 59786U 60006U 60014M 60041  60047M 60059U 60252U 60260M 60287  60293M 60305U 60527U 60535M
             60562  60568M 60580U 60773U 60781M 60808  60814M 60826U 61048U 61056M 61198  61204M 61216U 61521U 61529M
             61598  61604M 61616U 62068U 62076M 62168  62173M 62185U 62206U 62214M 62234  62239M 62251U 62272U 62280M
             62300  62305M 62317U 62338U 62346M 62366  62371M 62383U 62399U 62407M 62442  62447M 62459U 62481U 62489M
             62564  62570M 62582U 63112U 63120M 63222  63228M 63240U 63538U 63546M 63642  63648M 63660U 64024U 64032M
             64068  64073M 64085U 64249U 64257M 64292  64297M 64309U 64396U 64404M 64494  64500M 64512U 64798U 64806M
     8(8)      950U  2329   8536   8537M  8596   8600M  8639   8640M  8755N  8766   8770M  8832   8833M  8981   8985M
              9439   9440M  9694   9698M  9862   9864M  9894U 10962U 10971  10975M 11055  11056M 11122  11126M 11146
             11147M 11213  11217M 11252  11253M 11348  11352M 11458  11460M 11490U 12091U 12100  12104M 12207  12209M
             12239U 12750U 12759  12763M 12789  12790M 12867  12871M 12921  12923M 12953U 13665U 13674  13678M 13717
             13718M 13754  13758M 13792  13794M 13824U 14897U 14906  14910M 14949  14950M 14986  14990M 15017  15019M
             15049U 15972U 15981  15985M 16024  16025M 16061  16065M 16096  16098M 16128U 16265U 16274  16278M 16401
             16403M 16433U 17025U 17034  17038M 17141  17143M 17173U 17280N 17292U 17301  17305M 17346  17348M 17378U
             18475U 18484  18488M 18596  18598M 18628U 19016  19023U 19032  19036M 19078  19080M 19110U 20055U 20064
             20068M 20153  20154M 20402  20406M 20460  20462M 20492U 21145U 21154  21158M 21186  21188M 21218U 21871U
             21880  21884M 21914  21916M 21946U 22599U 22608  22612M 22642  22644M 22674U 23327U 23336  23340M 23370
             23372M 23402U 24055U 24064  24068M 24097  24098M 24351  24355M 24451  24453M 24483U 24697U 24706  24710M
             24744  24745M 24816  24820M 24959  24961M 24991U 25185U 25194  25198M 25261  25263M 25293U 25413U 25422
             25426M 25466  25467M 25626N 25655N 25681  25685M 25797  25799M 25829U 26548U 26557  26561M 26739  26741M
             26771U 27682U 27691  27695M 27798  27800M 27830U 28479U 28488  28492M 28715  28717M 28747U 29129U 29138
             29142M 29189  29190M 29226  29230M 29271  29273M 29303U 30133U 30142  30146M 30493  30494M 30536  30540M
             30560  30561M 30603  30607M 30627  30628M 30669  30673M 30693  30694M 30760  30764M 30784  30785M 30826
             30830M 30850  30851M 30893  30897M 30917  30918M 30959  30963M 30983  30984M 31026  31030M 31050  31051M
             31184  31188M 31208  31209M 31285  31289M 31309  31310M 31352  31356M 31376  31377M 31419  31423M 31443
             31444M 31486  31490M 31510  31511M 31553  31557M 31577  31578M 31620  31624M 31644  31645M 31683  31687M
             31707  31708M 31744  31748M 31768  31769M 31807  31811M 31831  31832M 31869  31873M 31893  31894M 31930
             31934M 31954  31955M 31991  31995M 32081  32083M 32113U 32632U 32641  32645M 32962  32963M 33004  33008M
             33028  33029M 33095  33099M 33140  33142M 33172U 33274U 33283  33287M 33307  33308M 33348  33352M 33372
             33373M 33460  33464M 33484  33485M 33521  33525M 33545  33546M 33582  33586M 33606  33607M 33643  33647M
             33667  33668M 33709  33713M 33733  33734M 33776  33780M 33800  33801M 33842  33846M 33866  33867M 33909
1         (PROC2193) (12:51) (15MAR04) General Purpose Register Cross Reference                                             Page  375
             33913M 33933  33934M 34061  34065M 34085  34086M 34161  34165M 34185  34186M 34227  34231M 34251  34252M
             34293  34297M 34317  34318M 34441  34445M 34465  34466M 34589  34593M 34613  34614M 34650  34654M 34733
             34735M 34765U 35360U 35369  35373M 35450  35451M 35492  35496M 35516  35517M 35583  35587M 35607  35608M
             35644  35648M 35689  35691M 35721U 36435U 36444  36448M 36570  36571M 36612  36616M 36636  36637M 36703
             36707M 36727  36728M 36764  36768M 36788  36789M 36825  36829M 36849  36850M 36938  36942M 36962  36963M
             36999  37003M 37088  37089M 37332  37336M 37363  37365M 37395U 37719U 37728  37732M 37779  37780M 37816
             37820M 37861  37863M 37893U 38342U 38351  38355M 38447  38448M 38490  38494M 38514  38515M 38556  38560M
             38580  38581M 38687  38691M 38711  38712M 38748  38752M 38794  38796M 38826U 39179U 39188  39192M 39239
             39240M 39276  39280M 39321  39323M 39353U 39791U 39800  39804M 39887  39888M 39929  39933M 39953  39954M
             40020  40024M 40044  40045M 40086  40090M 40110  40111M 40147  40151M 40190  40192M 40222U 40811U 40820
             40824M 40931  40932M 40973  40977M 40997  40998M 41064  41068M 41088  41089M 41134  41138M 41158  41159M
             41200  41204M 41224  41225M 41261  41265M 41307  41308M 41368  41411  41559  41563M 41791  41793M 41823U
             41906  42207U 42216  42220M 42267  42268M 42304  42308M 42349  42351M 42381U 43059U 43068  43072M 43330
             43331M 43374  43378M 43398  43399M 43488  43492M 43512  43513M 43602  43606M 43626  43627M 43716  43720M
             43740  43741M 43830  43834M 43854  43855M 43906  43910M 43930  43931M 43982  43986M 44006  44007M 44048
             44052M 44072  44073M 44115  44119M 44139  44140M 44181  44185M 44205  44206M 44272  44276M 44296  44297M
             44329  44341  44345M 44386  44388M 44418U 44897U 44906  44910M 45108  45109M 45155  45159M 45179  45180M
             45233  45237M 45257  45258M 45298  45302M 45322  45323M 45359  45363M 45383  45384M 45425  45429M 45449
             45450M 45516  45520M 45540  45541M 45582  45586M 45606  45607M 45649  45653M 45673  45674M 45715  45719M
             45739  45740M 45782  45786M 45806  45807M 45843  45847M 45936  45938M 45968U 46558U 46567  46571M 46648
             46649M 46690  46694M 46714  46715M 46781  46785M 46805  46806M 46842  46846M 46887  46889M 46919U 47608U
             47617  47621M 47744  47745M 47786  47790M 47810  47811M 47877  47881M 47901  47902M 47938  47942M 47962
             47963M 47999  48003M 48023  48024M 48112  48116M 48136  48137M 48173  48177M 48258  48260M 48290U 48692U
             48701  48705M 48752  48753M 48789  48793M 48834  48836M 48866U 49357U 49366  49370M 49447  49448M 49489
             49493M 49513  49514M 49580  49584M 49604  49605M 49641  49645M 49686  49688M 49718U 50311U 50320  50324M
             50416  50417M 50458  50462M 50482  50483M 50549  50553M 50573  50574M 50623  50627M 50647  50648M 50684
             50688M 50750  50752M 50782U 50821  50916U 50925  50929M 51033  51035M 51065U 51266U 51275  51279M 51312
             51313M 51529  51533M 51673  51675M 51705U 52408U 52417  52421M 52451  52452M 52815  52819M 52880  52882M
             52912U 53423U 53432  53436M 53467  53469M 53499U 54010U 54019  54023M 54236  54238M 54268U 54843U 54852
             54856M 54891  54892M 55002  55006M 55038  55039M 55916  55920M 55945  55946M 56156  56160M 56187  56188M
             56387  56391M 56416  56417M 56588  56592M 56620  56621M 56710  56714M 56800  56801M 57286  57290M 57319
             57320M 57677N 57688  57692M 57718  57719M 57764  57768M 57835  57836M 58068  58072M 58095  58096M 58138
             58142M 58169  58170M 58277  58281M 58307  58308M 58368  58372M 58396  58397M 58670  58674M 58701  58702M
             58835  58839M 58920  58921M 58962  58966M 58986  58987M 59028  59032M 59052  59053M 59094  59098M 59118
             59119M 59173  59177M 59256  59257M 59481  59485M 59511  59512M 59718  59722M 59768  59770M 59800U 60001U
             60010  60014M 60041  60043M 60073U 60247U 60256  60260M 60287  60289M 60319U 60522U 60531  60535M 60562
             60564M 60594U 60768U 60777  60781M 60808  60810M 60840U 61043U 61052  61056M 61198  61200M 61230U 61516U
             61525  61529M 61598  61600M 61630U 62063U 62072  62076M 62168  62169M 62210  62214M 62234  62235M 62276
             62280M 62300  62301M 62342  62346M 62366  62367M 62403  62407M 62442  62443M 62485  62489M 62564  62566M
             62596U 63107U 63116  63120M 63222  63224M 63254U 63526  63533U 63542  63546M 63642  63644M 63674U 64012
             64019U 64028  64032M 64068  64069M 64253  64257M 64292  64293M 64389  64400  64404M 64494  64496M 64526U
             64786  64793U 64802  64806M
     9(9)      946U  2329  41368  41411  41906  50821
    10(A)      942U  2329  41368  41411  41906  50821
    11(B)      938U  1393U  2329  41368  41411  41906  50821
    12(C)      934U  1402U  2329  41368  41411  41906  50821
    13(D)      930U  2329   8533   8536   8537   8538M  8538   8596M  8600   8602   8636   8639   8640   8641M  8641
              8766M  8770   8772   8829   8832   8833   8834M  8834   8981M  8985   8987   9436   9439   9440   9441M
              9441   9694M  9698   9700   9859   9862   9864   9865M  9865   9993   9994   9995   9997M  9997  10010M
             10011  10012  10013  10056  10057  10058  10060M 10060  10073M 10074  10075  10076  10971M 10975  10977
             11052  11055  11056  11057M 11057  11122M 11126  11128  11143  11146  11147  11148M 11148  11213M 11217
             11219  11249  11252  11253  11254M 11254  11348M 11352  11354  11455  11458  11460  11461M 11461  11781
             11782M 11783M 11783  11784M 11788  11789M 11790M 11790  11791M 11795  11796M 11797M 11797  11798M 11802
             11803M 11804M 11804  11805M 12067M 12068M 12071M 12072M 12075M 12076M 12079M 12080M 12100M 12104  12106
             12204  12207  12209  12210M 12210  12759M 12763  12765  12786  12789  12790  12791M 12791  12867M 12871
             12873  12918  12921  12923  12924M 12924  12970  12972M 12972  13165  13166  13167  13169M 13169  13182M
             13183  13184  13185  13652M 13674M 13678  13680  13714  13717  13718  13719M 13719  13754M 13758  13760
             13789  13792  13794  13795M 13795  13831  13833M 13833  14215  14216  14217  14219M 14219  14232M 14233
             14234  14235  14884M 14906M 14910  14912  14946  14949  14950  14951M 14951  14986M 14990  14992  15014
1         (PROC2193) (12:51) (15MAR04) General Purpose Register Cross Reference                                             Page  376
             15017  15019  15020M 15020  15056  15058M 15058  15251  15252  15253  15255M 15255  15268M 15269  15270
             15271  15959M 15981M 15985  15987  16021  16024  16025  16026M 16026  16061M 16065  16067  16093  16096
             16098  16099M 16099  16274M 16278  16280  16398  16401  16403  16404M 16404  16450  16452M 16452  17012M
             17034M 17038  17040  17138  17141  17143  17144M 17144  17301M 17305  17307  17343  17346  17348  17349M
             17349  17385  17387M 17387  18462M 18484M 18488  18490  18593  18596  18598  18599M 18599  19032M 19036
             19038  19075  19078  19080  19081M 19081  19127  19129M 19129  20042M 20064M 20068  20070  20150  20153
             20154  20155M 20155  20402M 20406  20408  20457  20460  20462  20463M 20463  21154M 21158  21160  21183
             21186  21188  21189M 21189  21880M 21884  21886  21911  21914  21916  21917M 21917  22608M 22612  22614
             22639  22642  22644  22645M 22645  23336M 23340  23342  23367  23370  23372  23373M 23373  24064M 24068
             24070  24094  24097  24098  24099M 24099  24351M 24355  24357  24448  24451  24453  24454M 24454  24706M
             24710  24712  24741  24744  24745  24746M 24746  24816M 24820  24822  24956  24959  24961  24962M 24962
             25110  25112M 25112  25137M 25194M 25198  25200  25258  25261  25263  25264M 25264  25422M 25426  25428
             25463  25466  25467  25468M 25468  25681M 25685  25687  25794  25797  25799  25800M 25800  26557M 26561
             26563  26736  26739  26741  26742M 26742  27062  27063M 27063  27069M 27070  27188  27189M 27189  27217M
             27218  27468  27469M 27469  27500M 27501  27691M 27695  27697  27795  27798  27800  27801M 27801  28121
             28122M 28123M 28123  28124M 28128  28129M 28130M 28130  28131M 28135  28136M 28137M 28137  28138M 28142
             28143M 28144M 28144  28145M 28456M 28457M 28460M 28461M 28464M 28465M 28468M 28469M 28488M 28492  28494
             28712  28715  28717  28718M 28718  28763  28765M 28765  28869  28870M 28870  28882  28883  28884  28886M
             28886  28899M 28900  28901  28902  28905M 28906  29116M 29138M 29142  29144  29186  29189  29190  29191M
             29191  29226M 29230  29232  29268  29271  29273  29274M 29274  29319  29321M 29321  29414  29415M 29415
             29427  29428  29429  29431M 29431  29444M 29445  29446  29447  29450M 29451  29639  29640M 29640  29728M
             29729  29740  29741M 29741  29829M 29830  29837  29838M 29838  29968M 29969  30120M 30142M 30146  30148
             30490  30493  30494  30495M 30495  30536M 30540  30542  30557  30560  30561  30562M 30562  30603M 30607
             30609  30624  30627  30628  30629M 30629  30669M 30673  30675  30690  30693  30694  30695M 30695  30760M
             30764  30766  30781  30784  30785  30786M 30786  30826M 30830  30832  30847  30850  30851  30852M 30852
             30893M 30897  30899  30914  30917  30918  30919M 30919  30959M 30963  30965  30980  30983  30984  30985M
             30985  31026M 31030  31032  31047  31050  31051  31052M 31052  31092  31093  31094  31096M 31096  31106M
             31107  31108  31109  31184M 31188  31190  31205  31208  31209  31210M 31210  31285M 31289  31291  31306
             31309  31310  31311M 31311  31352M 31356  31358  31373  31376  31377  31378M 31378  31419M 31423  31425
             31440  31443  31444  31445M 31445  31486M 31490  31492  31507  31510  31511  31512M 31512  31553M 31557
             31559  31574  31577  31578  31579M 31579  31620M 31624  31626  31641  31644  31645  31646M 31646  31683M
             31687  31689  31704  31707  31708  31709M 31709  31744M 31748  31750  31765  31768  31769  31770M 31770
             31807M 31811  31813  31828  31831  31832  31833M 31833  31869M 31873  31875  31890  31893  31894  31895M
             31895  31930M 31934  31936  31951  31954  31955  31956M 31956  31991M 31995  31997  32078  32081  32083
             32084M 32084  32129  32131M 32131  32236  32237M 32237  32249  32250  32251  32253M 32253  32266M 32267
             32268  32269  32272M 32273  32619M 32641M 32645  32647  32959  32962  32963  32964M 32964  33004M 33008
             33010  33025  33028  33029  33030M 33030  33095M 33099  33101  33137  33140  33142  33143M 33143  33186
             33187  33188  33190M 33190  33200M 33201  33202  33203  33283M 33287  33289  33304  33307  33308  33309M
             33309  33348M 33352  33354  33369  33372  33373  33374M 33374  33460M 33464  33466  33481  33484  33485
             33486M 33486  33521M 33525  33527  33542  33545  33546  33547M 33547  33582M 33586  33588  33603  33606
             33607  33608M 33608  33643M 33647  33649  33664  33667  33668  33669M 33669  33709M 33713  33715  33730
             33733  33734  33735M 33735  33776M 33780  33782  33797  33800  33801  33802M 33802  33842M 33846  33848
             33863  33866  33867  33868M 33868  33909M 33913  33915  33930  33933  33934  33935M 33935  33969  33970
             33971  33973M 33973  33983M 33984  33985  33986  34061M 34065  34067  34082  34085  34086  34087M 34087
             34161M 34165  34167  34182  34185  34186  34187M 34187  34227M 34231  34233  34248  34251  34252  34253M
             34253  34293M 34297  34299  34314  34317  34318  34319M 34319  34441M 34445  34447  34462  34465  34466
             34467M 34467  34589M 34593  34595  34610  34613  34614  34615M 34615  34650M 34654  34656  34730  34733
             34735  34736M 34736  34781  34783M 34783  34996  34997M 34997  35009  35010  35011  35013M 35013  35026M
             35027  35028  35029  35032M 35033  35064  35065M 35065  35169M 35170  35347M 35369M 35373  35375  35447
             35450  35451  35452M 35452  35492M 35496  35498  35513  35516  35517  35518M 35518  35583M 35587  35589
             35604  35607  35608  35609M 35609  35644M 35648  35650  35686  35689  35691  35692M 35692  35737  35739M
             35739  35873  35874M 35874  35886  35887  35888  35890M 35890  35903M 35904  35905  35906  35909M 35910
             36422M 36444M 36448  36450  36567  36570  36571  36572M 36572  36612M 36616  36618  36633  36636  36637
             36638M 36638  36703M 36707  36709  36724  36727  36728  36729M 36729  36764M 36768  36770  36785  36788
             36789  36790M 36790  36825M 36829  36831  36846  36849  36850  36851M 36851  36938M 36942  36944  36959
             36962  36963  36964M 36964  36999M 37003  37005  37085  37088  37089  37090M 37090  37332M 37336  37338
             37360  37363  37365  37366M 37366  37411  37413M 37413  37499  37500M 37500  37512  37513  37514  37516M
             37516  37529M 37530  37531  37532  37535M 37536  37706M 37728M 37732  37734  37776  37779  37780  37781M
             37781  37816M 37820  37822  37858  37861  37863  37864M 37864  37909  37911M 37911  38016  38017M 38017
1         (PROC2193) (12:51) (15MAR04) General Purpose Register Cross Reference                                             Page  377
             38029  38030  38031  38033M 38033  38046M 38047  38048  38049  38052M 38053  38329M 38351M 38355  38357
             38444  38447  38448  38449M 38449  38490M 38494  38496  38511  38514  38515  38516M 38516  38556M 38560
             38562  38577  38580  38581  38582M 38582  38687M 38691  38693  38708  38711  38712  38713M 38713  38748M
             38752  38754  38791  38794  38796  38797M 38797  38842  38844M 38844  38949  38950M 38950  38962  38963
             38964  38966M 38966  38979M 38980  38981  38982  38985M 38986  39166M 39188M 39192  39194  39236  39239
             39240  39241M 39241  39276M 39280  39282  39318  39321  39323  39324M 39324  39369  39371M 39371  39458
             39459M 39459  39471  39472  39473  39475M 39475  39488M 39489  39490  39491  39494M 39495  39778M 39800M
             39804  39806  39884  39887  39888  39889M 39889  39929M 39933  39935  39950  39953  39954  39955M 39955
             40020M 40024  40026  40041  40044  40045  40046M 40046  40086M 40090  40092  40107  40110  40111  40112M
             40112  40147M 40151  40153  40187  40190  40192  40193M 40193  40238  40240M 40240  40376  40377M 40377
             40389  40390  40391  40393M 40393  40406M 40407  40408  40409  40412M 40413  40798M 40820M 40824  40826
             40928  40931  40932  40933M 40933  40973M 40977  40979  40994  40997  40998  40999M 40999  41064M 41068
             41070  41085  41088  41089  41090M 41090  41134M 41138  41140  41155  41158  41159  41160M 41160  41200M
             41204  41206  41221  41224  41225  41226M 41226  41261M 41265  41267  41304  41307  41308  41309M 41309
             41368  41411  41559M 41563  41565  41788  41791  41793  41794M 41794  41838  41840M 41840  41906  41961
             41962M 41962  41974  41975  41976  41978M 41978  41991M 41992  41993  41994  41997M 41998  42194M 42216M
             42220  42222  42264  42267  42268  42269M 42269  42304M 42308  42310  42346  42349  42351  42352M 42352
             42396  42398M 42398  42485  42486M 42486  42498  42499  42500  42502M 42502  42515M 42516  42517  42518
             42521M 42522  42662  42663M 42663  42751M 42752  42763  42764M 42764  42894M 42895  43046M 43068M 43072
             43074  43327  43330  43331  43332M 43332  43374M 43378  43380  43395  43398  43399  43400M 43400  43488M
             43492  43494  43509  43512  43513  43514M 43514  43602M 43606  43608  43623  43626  43627  43628M 43628
             43716M 43720  43722  43737  43740  43741  43742M 43742  43830M 43834  43836  43851  43854  43855  43856M
             43856  43906M 43910  43912  43927  43930  43931  43932M 43932  43982M 43986  43988  44003  44006  44007
             44008M 44008  44048M 44052  44054  44069  44072  44073  44074M 44074  44115M 44119  44121  44136  44139
             44140  44141M 44141  44181M 44185  44187  44202  44205  44206  44207M 44207  44272M 44276  44278  44293
             44296  44297  44298M 44298  44341M 44345  44347  44383  44386  44388  44389M 44389  44433  44435M 44435
             44515  44516M 44516  44528  44529  44530  44532M 44532  44545M 44546  44547  44548  44551M 44552  44884M
             44906M 44910  44912  45105  45108  45109  45110M 45110  45155M 45159  45161  45176  45179  45180  45181M
             45181  45233M 45237  45239  45254  45257  45258  45259M 45259  45298M 45302  45304  45319  45322  45323
             45324M 45324  45359M 45363  45365  45380  45383  45384  45385M 45385  45425M 45429  45431  45446  45449
             45450  45451M 45451  45516M 45520  45522  45537  45540  45541  45542M 45542  45582M 45586  45588  45603
             45606  45607  45608M 45608  45649M 45653  45655  45670  45673  45674  45675M 45675  45715M 45719  45721
             45736  45739  45740  45741M 45741  45782M 45786  45788  45803  45806  45807  45808M 45808  45843M 45847
             45849  45933  45936  45938  45939M 45939  45983  45985M 45985  46186  46187M 46187  46199  46200  46201
             46203M 46203  46216M 46217  46218  46219  46222M 46223  46545M 46567M 46571  46573  46645  46648  46649
             46650M 46650  46690M 46694  46696  46711  46714  46715  46716M 46716  46781M 46785  46787  46802  46805
             46806  46807M 46807  46842M 46846  46848  46884  46887  46889  46890M 46890  46934  46936M 46936  47057
             47058M 47058  47070  47071  47072  47074M 47074  47087M 47088  47089  47090  47093M 47094  47595M 47617M
             47621  47623  47741  47744  47745  47746M 47746  47786M 47790  47792  47807  47810  47811  47812M 47812
             47877M 47881  47883  47898  47901  47902  47903M 47903  47938M 47942  47944  47959  47962  47963  47964M
             47964  47999M 48003  48005  48020  48023  48024  48025M 48025  48112M 48116  48118  48133  48136  48137
             48138M 48138  48173M 48177  48179  48255  48258  48260  48261M 48261  48305  48307M 48307  48389  48390M
             48390  48402  48403  48404  48406M 48406  48419M 48420  48421  48422  48425M 48426  48679M 48701M 48705
             48707  48749  48752  48753  48754M 48754  48789M 48793  48795  48831  48834  48836  48837M 48837  48881
             48883M 48883  48966  48967M 48967  48979  48980  48981  48983M 48983  48996M 48997  48998  48999  49002M
             49003  49344M 49366M 49370  49372  49444  49447  49448  49449M 49449  49489M 49493  49495  49510  49513
             49514  49515M 49515  49580M 49584  49586  49601  49604  49605  49606M 49606  49641M 49645  49647  49683
             49686  49688  49689M 49689  49733  49735M 49735  49865  49866M 49866  49878  49879  49880  49882M 49882
             49895M 49896  49897  49898  49901M 49902  50298M 50320M 50324  50326  50413  50416  50417  50418M 50418
             50458M 50462  50464  50479  50482  50483  50484M 50484  50549M 50553  50555  50570  50573  50574  50575M
             50575  50623M 50627  50629  50644  50647  50648  50649M 50649  50684M 50688  50690  50747  50750  50752
             50753M 50753  50821  50925M 50929  50931  51030  51033  51035  51036M 51036  51275M 51279  51281  51309
             51312  51313  51314M 51314  51529M 51533  51535  51670  51673  51675  51676M 51676  51753  51754M 51754
             52174  52175M 52175  52353M 52354  52417M 52421  52423  52448  52451  52452  52453M 52453  52597  52598M
             52598  52600  52601M 52602M 52602  52603M 52651M 52652M 52654M 52655  52815M 52819  52821  52877  52880
             52882  52883M 52883  53432M 53436  53438  53464  53467  53469  53470M 53470  54019M 54023  54025  54233
             54236  54238  54239M 54239  54852M 54856  54858  54888  54891  54892  54893M 54893  55002M 55006  55008
             55035  55038  55039  55040M 55040  55916M 55920  55922  55942  55945  55946  55947M 55947  56156M 56160
             56162  56184  56187  56188  56189M 56189  56387M 56391  56393  56413  56416  56417  56418M 56418  56588M
1         (PROC2193) (12:51) (15MAR04) General Purpose Register Cross Reference                                             Page  378
             56592  56594  56617  56620  56621  56622M 56622  56710M 56714  56716  56797  56800  56801  56802M 56802
             57286M 57290  57292  57316  57319  57320  57321M 57321  57688M 57692  57694  57715  57718  57719  57720M
             57720  57764M 57768  57770  57832  57835  57836  57837M 57837  58068M 58072  58074  58092  58095  58096
             58097M 58097  58138M 58142  58144  58166  58169  58170  58171M 58171  58277M 58281  58283  58304  58307
             58308  58309M 58309  58368M 58372  58374  58393  58396  58397  58398M 58398  58670M 58674  58676  58698
             58701  58702  58703M 58703  58747  58749M 58749  58780  58781  58782  58784M 58784  58797M 58798  58799
             58800  58835M 58839  58841  58917  58920  58921  58922M 58922  58962M 58966  58968  58983  58986  58987
             58988M 58988  59028M 59032  59034  59049  59052  59053  59054M 59054  59094M 59098  59100  59115  59118
             59119  59120M 59120  59173M 59177  59179  59253  59256  59257  59258M 59258  59481M 59485  59487  59508
             59511  59512  59513M 59513  59718M 59722  59724  59765  59768  59770  59771M 59771  60010M 60014  60016
             60038  60041  60043  60044M 60044  60256M 60260  60262  60284  60287  60289  60290M 60290  60531M 60535
             60537  60559  60562  60564  60565M 60565  60777M 60781  60783  60805  60808  60810  60811M 60811  61052M
             61056  61058  61195  61198  61200  61201M 61201  61525M 61529  61531  61595  61598  61600  61601M 61601
             61659  61661M 61661  61744  61745  61746  61748M 61748  61761M 61762  61763  61764  62045M 62072M 62076
             62078  62165  62168  62169  62170M 62170  62210M 62214  62216  62231  62234  62235  62236M 62236  62276M
             62280  62282  62297  62300  62301  62302M 62302  62342M 62346  62348  62363  62366  62367  62368M 62368
             62403M 62407  62409  62439  62442  62443  62444M 62444  62485M 62489  62491  62561  62564  62566  62567M
             62567  63116M 63120  63122  63219  63222  63224  63225M 63225  63542M 63546  63548  63639  63642  63644
             63645M 63645  64028M 64032  64034  64065  64068  64069  64070M 64070  64253M 64257  64259  64289  64292
             64293  64294M 64294  64400M 64404  64406  64491  64494  64496  64497M 64497  64802M 64806  64808
    14(E)      926U  2329   2330M  2344   2345M  2346B  2348M  2349B  2369M  2370B  2374M  2375B  2377M  2378B  2380M
              2381B  2383M  2384B  2386M  2387M  2387B  2393   8533   8567M  8568M  8568B  8583M  8584M  8584B  8602M
              8605B  8636   8676M  8677M  8677B  8772M  8775B  8829   8987M  8990B  9436   9472M  9473M  9473B  9525M
              9526M  9526B  9573M  9574M  9574B  9621M  9622M  9622B  9669M  9670M  9670B  9700M  9703B  9859   9905M
              9906M  9906B  9939M  9941M  9944M  9946M  9976M  9977N  9978N  9982M  9982   9992M  9993   9994   9995
             10000M 10001  10004M 10005M 10005B 10008M 10011  10012  10013  10018M 10019M 10019B 10039M 10040N 10041N
             10045M 10045  10055M 10056  10057  10058  10063M 10064  10067M 10068M 10068B 10071M 10074  10075  10076
             10081M 10082M 10082B 10598M 10599M 10599B 10604M 10605M 10605B 10627M 10628M 10628B 10644M 10645M 10645B
             10650M 10651M 10651B 10673M 10674M 10674B 10690M 10691M 10691B 10696M 10697M 10697B 10719M 10720M 10720B
             10736M 10737M 10737B 10758M 10759M 10759B 10917M 10918M 10918B 10977M 10980B 11052  11128M 11131B 11143
             11219M 11222B 11249  11285M 11286M 11286B 11354M 11357B 11455  11501M 11502M 11502B 11571M 11572M 11572B
             11582M 11583M 11583B 11634M 11635M 11635B 11669M 11670M 11670B 11697M 11698M 11698B 11726M 11727M 11727B
             11740M 11741M 11741B 11769M 11770M 11770B 11849M 11850M 11850B 11871M 11872M 11872B 11947M 11948M 11948B
             12001M 12002M 12002B 12049M 12050M 12050B 12106M 12109B 12204  12263M 12264M 12264B 12511M 12512M 12512B
             12765M 12768B 12786  12821M 12822M 12822B 12873M 12876B 12918  12969M 12970  12981M 12982M 12982B 13148M
             13149N 13150N 13154M 13154  13164M 13165  13166  13167  13172M 13173  13176M 13177M 13177B 13180M 13183
             13184  13185  13251M 13252M 13252B 13364M 13365M 13365B 13650M 13653  13680M 13683B 13714  13760M 13763B
             13789  13830M 13831  13842M 13843M 13843B 14031M 14032M 14032B 14198M 14199N 14200N 14204M 14204  14214M
             14215  14216  14217  14222M 14223  14226M 14227M 14227B 14230M 14233  14234  14235  14301M 14302M 14302B
             14408M 14409M 14409B 14711M 14712M 14712B 14882M 14885  14912M 14915B 14946  14992M 14995B 15014  15055M
             15056  15067M 15068M 15068B 15234M 15235N 15236N 15240M 15240  15250M 15251  15252  15253  15258M 15259
             15262M 15263M 15263B 15266M 15269  15270  15271  15337M 15338M 15338B 15495M 15498M 15502M 15503M 15503B
             15540M 15541M 15541B 15594M 15595M 15595B 15957M 15960  15987M 15990B 16021  16067M 16070B 16093  16280M
             16283B 16398  16449M 16450  16461M 16462M 16462B 16654M 16655M 16655B 16732M 16733M 16733B 17010M 17013
             17040M 17043B 17138  17238M 17239M 17239B 17255M 17256M 17256B 17307M 17310B 17343  17384M 17385  17396M
             17397M 17397B 17471M 17472M 17472B 17504M 17505M 17505B 17563M 17564M 17564B 17647M 17648M 17648B 17840M
             17841M 17841B 17913M 17914M 17914B 17919M 17920M 17920B 17947M 17948M 17948B 18091M 18092M 18092B 18129M
             18130M 18130B 18146M 18147M 18147B 18161M 18162M 18162B 18211M 18212M 18212B 18296M 18297M 18297B 18460M
             18463  18490M 18493B 18593  18720M 18721M 18721B 18807M 18808M 18808B 18868M 18869M 18869B 19038M 19041B
             19075  19126M 19127  19138M 19139M 19139B 19331M 19332M 19332B 19491M 19492M 19492B 19524M 19525M 19525B
             19536M 19537M 19537B 19542M 19543M 19543B 19606M 19607M 19607B 19634M 19635M 19635B 19677M 19678M 19678B
             19695M 19696M 19696B 20040M 20043  20070M 20073B 20150  20188M 20189M 20189B 20270M 20271M 20271B 20408M
             20411B 20457  20507M 20508M 20508B 20577M 20578M 20578B 20626M 20627M 20627B 20762M 20763M 20763B 20926M
             20927M 20927B 21160M 21163B 21183  21233M 21234M 21234B 21303M 21304M 21304B 21352M 21353M 21353B 21488M
             21489M 21489B 21652M 21653M 21653B 21886M 21889B 21911  21961M 21962M 21962B 22031M 22032M 22032B 22080M
             22081M 22081B 22216M 22217M 22217B 22380M 22381M 22381B 22614M 22617B 22639  22689M 22690M 22690B 22759M
             22760M 22760B 22808M 22809M 22809B 22944M 22945M 22945B 23108M 23109M 23109B 23342M 23345B 23367  23417M
             23418M 23418B 23487M 23488M 23488B 23536M 23537M 23537B 23672M 23673M 23673B 23836M 23837M 23837B 24070M
             24073B 24094  24132M 24133M 24133B 24219M 24220M 24220B 24357M 24360B 24448  24493M 24494M 24494B 24523M
1         (PROC2193) (12:51) (15MAR04) General Purpose Register Cross Reference                                             Page  379
             24524M 24524B 24531M 24532M 24532B 24610M 24611M 24611B 24622M 24623M 24623B 24712M 24715B 24741  24775M
             24776M 24776B 24804M 24805M 24805B 24822M 24825B 24956  25019M 25020M 25020B 25049M 25050M 25050B 25057M
             25058M 25058B 25084M 25085M 25085B 25099M 25100M 25100B 25109M 25110  25116M 25121M 25121  25131M 25132M
             25132B 25135M 25138  25146M 25147M 25147B 25172M 25173M 25173B 25200M 25203B 25258  25364M 25365M 25365B
             25391M 25392M 25392B 25404M 25405M 25405B 25428M 25431B 25463  25599M 25600M 25600B 25687M 25690B 25794
             25849M 25850M 25850B 25980M 25981M 25981B 25985M 25986M 25986B 26026M 26027M 26027B 26068M 26069M 26069B
             26087M 26088M 26088B 26137M 26138M 26138B 26165M 26166M 26166B 26207M 26208M 26208B 26248M 26249M 26249B
             26270M 26271M 26271B 26311M 26312M 26312B 26336M 26337M 26337B 26345M 26346M 26346B 26388M 26389M 26389B
             26563M 26566B 26736  26790M 26791M 26791B 26844M 26845M 26845B 26864M 26865M 26865B 26953M 26954M 26954B
             26982M 26983M 26983B 27125M 27126M 27126B 27195M 27196M 27196B 27280M 27281M 27281B 27303M 27304M 27304B
             27308M 27309M 27309B 27312M 27313M 27313B 27335M 27336M 27336B 27384M 27385M 27385B 27461M 27462M 27462B
             27465M 27466M 27466B 27496M 27497M 27497B 27523M 27524M 27524B 27697M 27700B 27795  27841M 27842M 27842B
             27911M 27912M 27912B 27922M 27923M 27923B 27974M 27975M 27975B 28009M 28010M 28010B 28037M 28038M 28038B
             28066M 28067M 28067B 28080M 28081M 28081B 28109M 28110M 28110B 28164M 28165M 28165B 28183M 28184M 28184B
             28198M 28199M 28199B 28222M 28223M 28223B 28246M 28247M 28247B 28276M 28277M 28277B 28295M 28296M 28296B
             28310M 28311M 28311B 28390M 28391M 28391B 28438M 28439M 28439B 28494M 28497B 28712  28762M 28763  28776M
             28777M 28777B 28797M 28798M 28798B 28861M 28862N 28863N 28867M 28867  28881M 28882  28883  28884  28889M
             28890  28893M 28894M 28894B 28897M 28900  28901  28902  28955M 28956M 28956B 28965M 28966M 28966B 29114M
             29117  29144M 29147B 29186  29232M 29235B 29268  29318M 29319  29332M 29333M 29333B 29354M 29355M 29355B
             29398M 29399N 29400N 29404M 29404  29426M 29427  29428  29429  29434M 29435  29438M 29439M 29439B 29442M
             29445  29446  29447  29587M 29588M 29588B 29704M 29705M 29705B 29805M 29806M 29806B 29859M 29860M 29860B
             30118M 30121  30148M 30151B 30490  30542M 30545B 30557  30609M 30612B 30624  30675M 30678B 30690  30766M
             30769B 30781  30832M 30835B 30847  30899M 30902B 30914  30965M 30968B 30980  31032M 31035B 31047  31091M
             31092  31093  31094  31100M 31101M 31101B 31104M 31107  31108  31109  31190M 31193B 31205  31291M 31294B
             31306  31358M 31361B 31373  31425M 31428B 31440  31492M 31495B 31507  31559M 31562B 31574  31626M 31629B
             31641  31689M 31692B 31704  31750M 31753B 31765  31813M 31816B 31828  31875M 31878B 31890  31936M 31939B
             31951  31997M 32000B 32078  32128M 32129  32142M 32143M 32143B 32173M 32174M 32174B 32227M 32228N 32229N
             32233M 32233  32248M 32249  32250  32251  32256M 32257  32260M 32261M 32261B 32264M 32267  32268  32269
             32344M 32345M 32345B 32537M 32538M 32538B 32590M 32591M 32591B 32617M 32620  32647M 32650B 32959  33010M
             33013B 33025  33101M 33104B 33137  33185M 33186  33187  33188  33194M 33195M 33195B 33198M 33201  33202
             33203  33289M 33292B 33304  33354M 33357B 33369  33466M 33469B 33481  33527M 33530B 33542  33588M 33591B
             33603  33649M 33652B 33664  33715M 33718B 33730  33782M 33785B 33797  33848M 33851B 33863  33915M 33918B
             33930  33968M 33969  33970  33971  33977M 33978M 33978B 33981M 33984  33985  33986  34067M 34070B 34082
             34167M 34170B 34182  34233M 34236B 34248  34299M 34302B 34314  34447M 34450B 34462  34595M 34598B 34610
             34656M 34659B 34730  34780M 34781  34794M 34795M 34795B 34942M 34943M 34943B 34988M 34989N 34990N 34994M
             34994  35008M 35009  35010  35011  35016M 35017  35020M 35021M 35021B 35024M 35027  35028  35029  35057M
             35058M 35058B 35345M 35348  35375M 35378B 35447  35498M 35501B 35513  35589M 35592B 35604  35650M 35653B
             35686  35736M 35737  35750M 35751M 35751B 35774M 35775M 35775B 35804M 35805M 35805B 35865M 35866N 35867N
             35871M 35871  35885M 35886  35887  35888  35893M 35894  35897M 35898M 35898B 35901M 35904  35905  35906
             35958M 35959M 35959B 35973M 35974M 35974B 35989M 35990M 35990B 36017M 36018M 36018B 36164M 36165M 36165B
             36389M 36390M 36390B 36420M 36423  36450M 36453B 36567  36618M 36621B 36633  36709M 36712B 36724  36770M
             36773B 36785  36831M 36834B 36846  36902M 36903M 36903B 36944M 36947B 36959  37005M 37008B 37085  37216M
             37217M 37217B 37338M 37341B 37360  37410M 37411  37424M 37425M 37425B 37446M 37447M 37447B 37491M 37492N
             37493N 37497M 37497  37511M 37512  37513  37514  37519M 37520  37523M 37524M 37524B 37527M 37530  37531
             37532  37704M 37707  37734M 37737B 37776  37822M 37825B 37858  37908M 37909  37922M 37923M 37923B 37944M
             37945M 37945B 38008M 38009N 38010N 38014M 38014  38028M 38029  38030  38031  38036M 38037  38040M 38041M
             38041B 38044M 38047  38048  38049  38176M 38177M 38177B 38327M 38330  38357M 38360B 38444  38496M 38499B
             38511  38562M 38565B 38577  38623M 38624M 38624B 38693M 38696B 38708  38754M 38757B 38791  38841M 38842
             38855M 38856M 38856B 38877M 38878M 38878B 38941M 38942N 38943N 38947M 38947  38961M 38962  38963  38964
             38969M 38970  38973M 38974M 38974B 38977M 38980  38981  38982  39019M 39020M 39020B 39164M 39167  39194M
             39197B 39236  39282M 39285B 39318  39368M 39369  39382M 39383M 39383B 39404M 39405M 39405B 39450M 39451N
             39452N 39456M 39456  39470M 39471  39472  39473  39478M 39479  39482M 39483M 39483B 39486M 39489  39490
             39491  39544M 39545M 39545B 39568M 39569M 39569B 39594M 39595M 39595B 39776M 39779  39806M 39809B 39884
             39935M 39938B 39950  40026M 40029B 40041  40092M 40095B 40107  40153M 40156B 40187  40237M 40238  40251M
             40252M 40252B 40273M 40274M 40274B 40359M 40360N 40361N 40365M 40365  40388M 40389  40390  40391  40396M
             40397  40400M 40401M 40401B 40404M 40407  40408  40409  40450M 40451M 40451B 40465M 40466M 40466B 40479M
             40480M 40480B 40504M 40505M 40505B 40522M 40523M 40523B 40765M 40766M 40766B 40796M 40799  40826M 40829B
             40928  40979M 40982B 40994  41070M 41073B 41085  41122M 41123M 41123B 41140M 41143B 41155  41206M 41209B
             41221  41267M 41270B 41304  41368  41369M 41411  41412M 41447M 41448M 41448B 41513M 41514M 41514B 41530M
1         (PROC2193) (12:51) (15MAR04) General Purpose Register Cross Reference                                             Page  380
             41531M 41531B 41565M 41568B 41788  41837M 41838  41851M 41852M 41852B 41872M 41873M 41873B 41906  41907M
             41953M 41954N 41955N 41959M 41959  41973M 41974  41975  41976  41981M 41982  41985M 41986M 41986B 41989M
             41992  41993  41994  42026M 42027M 42027B 42192M 42195  42222M 42225B 42264  42310M 42313B 42346  42395M
             42396  42409M 42410M 42410B 42431M 42432M 42432B 42448M 42449M 42449B 42469M 42470N 42471N 42475M 42475
             42497M 42498  42499  42500  42505M 42506  42509M 42510M 42510B 42513M 42516  42517  42518  42727M 42728M
             42728B 42785M 42786M 42786B 43044M 43047  43074M 43077B 43327  43380M 43383B 43395  43466M 43467  43471M
             43471  43494M 43497B 43509  43580M 43581  43585M 43585  43608M 43611B 43623  43694M 43695  43699M 43699
             43722M 43725B 43737  43808M 43809  43813M 43813  43836M 43839B 43851  43884M 43885  43889M 43889  43912M
             43915B 43927  43960M 43961  43965M 43965  43988M 43991B 44003  44054M 44057B 44069  44121M 44124B 44136
             44187M 44190B 44202  44278M 44281B 44293  44347M 44350B 44383  44432M 44433  44446M 44447M 44447B 44472M
             44473M 44473B 44507M 44508N 44509N 44513M 44513  44527M 44528  44529  44530  44535M 44536  44539M 44540M
             44540B 44543M 44546  44547  44548  44626M 44627M 44627B 44802M 44803M 44803B 44855M 44856M 44856B 44882M
             44885  44912M 44915B 45105  45161M 45164B 45176  45239M 45242B 45254  45304M 45307B 45319  45365M 45368B
             45380  45431M 45434B 45446  45522M 45525B 45537  45588M 45591B 45603  45655M 45658B 45670  45721M 45724B
             45736  45788M 45791B 45803  45849M 45852B 45933  45982M 45983  45996M 45997M 45997B 46144M 46145M 46145B
             46178M 46179N 46180N 46184M 46184  46198M 46199  46200  46201  46206M 46207  46210M 46211M 46211B 46214M
             46217  46218  46219  46247M 46248M 46248B 46543M 46546  46573M 46576B 46645  46696M 46699B 46711  46787M
             46790B 46802  46848M 46851B 46884  46933M 46934  46947M 46948M 46948B 46971M 46972M 46972B 46989M 46990M
             46990B 47049M 47050N 47051N 47055M 47055  47069M 47070  47071  47072  47077M 47078  47081M 47082M 47082B
             47085M 47088  47089  47090  47118M 47119M 47119B 47145M 47146M 47146B 47296M 47297M 47297B 47562M 47563M
             47563B 47593M 47596  47623M 47626B 47741  47792M 47795B 47807  47883M 47886B 47898  47944M 47947B 47959
             48005M 48008B 48020  48076M 48077M 48077B 48118M 48121B 48133  48179M 48182B 48255  48304M 48305  48318M
             48319M 48319B 48340M 48341M 48341B 48373M 48374N 48375N 48379M 48379  48401M 48402  48403  48404  48409M
             48410  48413M 48414M 48414B 48417M 48420  48421  48422  48450M 48451M 48451B 48677M 48680  48707M 48710B
             48749  48795M 48798B 48831  48880M 48881  48894M 48895M 48895B 48916M 48917M 48917B 48950M 48951N 48952N
             48956M 48956  48978M 48979  48980  48981  48986M 48987  48990M 48991M 48991B 48994M 48997  48998  48999
             49030M 49031M 49031B 49053M 49054M 49054B 49068M 49069M 49069B 49114M 49115M 49115B 49141M 49142M 49142B
             49173M 49174M 49174B 49342M 49345  49372M 49375B 49444  49495M 49498B 49510  49586M 49589B 49601  49647M
             49650B 49683  49732M 49733  49746M 49747M 49747B 49768M 49769M 49769B 49840M 49841N 49842N 49846M 49846
             49877M 49878  49879  49880  49885M 49886  49889M 49890M 49890B 49893M 49896  49897  49898  49939M 49940M
             49940B 49951M 49952M 49952B 49974M 49975M 49975B 49989M 49990M 49990B 49998M 49999M 49999B 50012M 50013M
             50013B 50037M 50038M 50038B 50265M 50266M 50266B 50296M 50299  50326M 50329B 50413  50464M 50467B 50479
             50555M 50558B 50570  50607M 50608M 50608B 50629M 50632B 50644  50690M 50693B 50747  50821  50822M 50858M
             50859M 50859B 50883M 50884M 50884B 50896M 50897M 50897B 50931M 50934B 51030  51081M 51082M 51082B 51102M
             51103M 51103B 51145M 51146M 51146B 51205M 51206M 51206B 51235M 51236M 51236B 51281M 51284B 51309  51535M
             51538B 51670  51717M 51718M 51718B 51782M 51783M 51783B 51797M 51798M 51798B 51852M 51853M 51853B 51926M
             51927M 51927B 51984M 51985M 51985B 52006M 52007M 52007B 52024M 52025M 52025B 52042M 52043M 52043B 52103M
             52104M 52104B 52156M 52157M 52157B 52198M 52199M 52199B 52223M 52224M 52224B 52241M 52242M 52242B 52259M
             52260M 52260B 52277M 52278M 52278B 52295M 52296M 52296B 52314M 52315M 52315B 52332M 52333M 52333B 52350M
             52351M 52351B 52378M 52379M 52379B 52423M 52426B 52448  52611M 52625M 52635M 52649M 52731M 52732M 52732B
             52789M 52790M 52790B 52821M 52824B 52877  52955M 52956M 52956B 53112M 53113M 53113B 53438M 53441B 53464
             53542M 53543M 53543B 53699M 53700M 53700B 54025M 54028B 54233  54278M 54279M 54279B 54302M 54303M 54303B
             54329M 54330M 54330B 54350M 54351M 54351B 54376M 54377M 54377B 54413M 54414M 54414B 54512M 54513M 54513B
             54579M 54580M 54580B 54612M 54613M 54613B 54642M 54643M 54643B 54714M 54715M 54715B 54858M 54861B 54888
             54919M 54920M 54920B 54940M 54941M 54941B 54958M 54959M 54959B 54985M 54986M 54986B 55008M 55011B 55035
             55109M 55110M 55110B 55166M 55167M 55167B 55251M 55252M 55252B 55273M 55274M 55274B 55377M 55378M 55378B
             55413M 55414M 55414B 55446M 55447M 55447B 55457M 55458M 55458B 55462M 55463M 55463B 55497M 55498M 55498B
             55532M 55533M 55533B 55536M 55537M 55537B 55558M 55559M 55559B 55591M 55592M 55592B 55679M 55680M 55680B
             55753M 55754M 55754B 55781M 55782M 55782B 55826M 55827M 55827B 55847M 55848M 55848B 55871M 55872M 55872B
             55892M 55893M 55893B 55899M 55900M 55900B 55922M 55925B 55942  55999M 56000M 56000B 56003M 56004M 56004B
             56025M 56026M 56026B 56036M 56037M 56037B 56040M 56041M 56041B 56044M 56045M 56045B 56068M 56069M 56069B
             56090M 56091M 56091B 56124M 56125M 56125B 56135M 56136M 56136B 56144M 56145M 56145B 56162M 56165B 56184
             56232M 56233M 56233B 56244M 56245M 56245B 56257M 56258M 56258B 56305M 56306M 56306B 56309M 56310M 56310B
             56331M 56332M 56332B 56342M 56343M 56343B 56393M 56396B 56413  56473M 56474M 56474B 56485M 56486M 56486B
             56515M 56516M 56516B 56555M 56556M 56556B 56576M 56577M 56577B 56594M 56597B 56617  56654M 56655M 56655B
             56698M 56699M 56699B 56716M 56719B 56797  56937M 56938M 56938B 57010M 57011M 57011B 57050M 57051M 57051B
             57078M 57079M 57079B 57175M 57176M 57176B 57227M 57228M 57228B 57292M 57295B 57316  57467M 57468M 57468B
             57471M 57472M 57472B 57490M 57491M 57491B 57674M 57675M 57675B 57694M 57697B 57715  57750M 57751M 57751B
             57770M 57773B 57832  57876M 57877M 57877B 58052M 58053M 58053B 58074M 58077B 58092  58126M 58127M 58127B
1         (PROC2193) (12:51) (15MAR04) General Purpose Register Cross Reference                                             Page  381
             58144M 58147B 58166  58218M 58219M 58219B 58229M 58232M 58241M 58241  58248  58283M 58286B 58304  58353M
             58354M 58354B 58374M 58377B 58393  58484M 58485M 58485B 58517M 58518M 58518B 58539M 58540M 58540B 58563M
             58564M 58564B 58597M 58598M 58598B 58625M 58626M 58626B 58654M 58655M 58655B 58676M 58679B 58698  58746M
             58747  58763M 58764N 58765N 58769M 58769  58779M 58780  58781  58782  58787M 58788  58791M 58792M 58792B
             58795M 58798  58799  58800  58819M 58820M 58820B 58841M 58844B 58917  58968M 58971B 58983  59034M 59037B
             59049  59100M 59103B 59115  59160M 59161M 59161B 59179M 59182B 59253  59287M 59288M 59288B 59417M 59418M
             59418B 59487M 59490B 59508  59544M 59545M 59545B 59574M 59575M 59575B 59724M 59727B 59765  59812M 59813M
             59813B 59858M 59859M 59859B 60016M 60019B 60038  60082M 60083M 60083B 60127M 60128M 60128B 60262M 60265B
             60284  60331M 60332M 60332B 60379M 60380M 60380B 60537M 60540B 60559  60603M 60604M 60604B 60648M 60649M
             60649B 60783M 60786B 60805  60852M 60853M 60853B 60900M 60901M 60901B 61058M 61061B 61195  61254M 61255M
             61255B 61310M 61311M 61311B 61391M 61392M 61392B 61406M 61407M 61407B 61455M 61456M 61456B 61491M 61492M
             61492B 61531M 61534B 61595  61658M 61659  61671M 61672M 61672B 61727M 61728N 61729N 61733M 61733  61743M
             61744  61745  61746  61751M 61752  61755M 61756M 61756B 61759M 61762  61763  61764  61885M 61886M 61886B
             61927M 61928M 61928B 62012M 62013M 62013B 62043M 62046  62078M 62081B 62165  62216M 62219B 62231  62282M
             62285B 62297  62348M 62351B 62363  62409M 62412B 62439  62491M 62494B 62561  62639M 62640M 62640B 62796M
             62797M 62797B 63122M 63125B 63219  63548M 63551B 63639  63911M 63915M 63930M 63931M 63931B 63949M 63950M
             63950B 63972M 63975M 63976  63984M 63987M 63988  64034M 64037B 64065  64202M 64206M 64259M 64262B 64289
             64406M 64409B 64491  64559M 64560M 64560B 64718M 64719M 64719B 64740M 64808M 64811B
    15(F)      922U  2329   8604M  8604   8688M  8688   8744M  8774M  8774   8970M  8970   8989M  8989   9702M  9702
              9940M  9941M  9945M  9946M 10014M 10014  10077M 10077  10250M 10264M 10266  10285M 10285  10479M 10493M
             10495  10514M 10514  10595M 10624M 10641M 10670M 10687M 10716M 10733M 10755M 10822M 10836M 10838  10857M
             10857  10949M 10949  10979M 10979  11130M 11130  11221M 11221  11356M 11356  11568M 11723M 11728M 11766M
             11771M 11817M 11817  11828M 11828  11846M 11868M 11919M 12062M 12062  12108M 12108  12348M 12362M 12364
             12383M 12383  12573M 12587M 12589  12608M 12608  12684M 12698M 12700  12719M 12719  12767M 12767  12850M
             12850  12875M 12875  13070M 13084M 13086  13105M 13105  13186M 13186  13195M 13195  13411  13436  13461
             13487  13585M 13599M 13601  13620M 13620  13646M 13646  13682M 13682  13743M 13762M 13762  13913M 13927M
             13929  13948M 13948  14120M 14134M 14136  14155M 14155  14236M 14236  14245M 14245  14435  14460  14485
             14511  14594M 14608M 14610  14629M 14629  14817M 14831M 14833  14852M 14852  14878M 14878  14914M 14914
             14975M 14994M 14994  15156M 15170M 15172  15191M 15191  15272M 15272  15281M 15281  15474M 15477  15489M
             15494  15498M 15620M 15620  15640  15665  15690  15716  15742  15768  15794  15892M 15906M 15908  15927M
             15927  15953M 15953  15989M 15989  16050M 16069M 16069  16207M 16221M 16223  16242M 16242  16258M 16258
             16282M 16282  16550M 16564M 16566  16585M 16585  16779  16804  16829  16855  16945M 16959M 16961  16980M
             16980  17006M 17006  17042M 17042  17245M 17246M 17247  17248  17309M 17309  17736M 17750M 17752  17771M
             17771  17915  17974  17999  18024  18050  18088M 18143M 18158M 18395M 18409M 18411  18430M 18430  18456M
             18456  18492M 18492  19011M 19011  19040M 19040  19227M 19241M 19243  19262M 19262  19538  19552M 19552
             19691  19692M 19697M 19711M 19711  19731  19756  19781  19807  19833  19859  19885  19975M 19989M 19991
             20010M 20010  20036M 20036  20072M 20072  20335M 20349M 20351  20370M 20370  20410M 20410  20680M 20694M
             20696  20715M 20715  20825M 20839M 20841  20860M 20860  20985M 20999M 21001  21020M 21020  21082M 21096M
             21098  21117M 21117  21162M 21162  21406M 21420M 21422  21441M 21441  21551M 21565M 21567  21586M 21586
             21711M 21725M 21727  21746M 21746  21808M 21822M 21824  21843M 21843  21888M 21888  22134M 22148M 22150
             22169M 22169  22279M 22293M 22295  22314M 22314  22439M 22453M 22455  22474M 22474  22536M 22550M 22552
             22571M 22571  22616M 22616  22862M 22876M 22878  22897M 22897  23007M 23021M 23023  23042M 23042  23167M
             23181M 23183  23202M 23202  23264M 23278M 23280  23299M 23299  23344M 23344  23590M 23604M 23606  23625M
             23625  23735M 23749M 23751  23770M 23770  23895M 23909M 23911  23930M 23930  23992M 24006M 24008  24027M
             24027  24072M 24072  24284M 24298M 24300  24319M 24319  24359M 24359  24528M 24619M 24714M 24714  24824M
             24824  25081M 25096M 25169M 25202M 25202  25361M 25388M 25401M 25430M 25430  25504  25567M 25576M 25576
             25665M 25665  25689M 25689  25935M 25938M 25940  25976M 25982M 26022M 26044M 26101M 26101  26134M 26162M
             26204M 26244M 26267M 26280M 26280  26315M 26342M 26385M 26398M 26398  26489M 26503M 26505  26524M 26524
             26541M 26541  26565M 26565  26841M 26847M 26950M 26979M 27277M 27300M 27332M 27365M 27366M 27367  27493M
             27520M 27613M 27627M 27629  27648M 27648  27699M 27699  27908M 28063M 28068M 28106M 28111M 28161M 28180M
             28273M 28292M 28335M 28335  28451M 28451  28496M 28496  28903M 28903  28915M 28915  28952M 28962M 29049M
             29063M 29065  29084M 29084  29110M 29110  29146M 29146  29215M 29234M 29234  29448M 29448  29461M 29461
             29481  29501  29521  29533M 29533  29584M 29910M 29924M 29926  29945M 29945  30053M 30067M 30069  30088M
             30088  30114M 30114  30150M 30150  30544M 30544  30611M 30611  30677M 30677  30768M 30768  30834M 30834
             30901M 30901  30967M 30967  31034M 31034  31110M 31110  31112M 31115  31127M 31135M 31144M 31144  31151
             31173M 31173  31192M 31192  31274M 31293M 31293  31360M 31360  31427M 31427  31494M 31494  31561M 31561
             31628M 31628  31672M 31691M 31691  31752M 31752  31796M 31815M 31815  31877M 31877  31938M 31938  31980M
             31999M 31999  32270M 32270  32282M 32282  32302  32322  32337M 32338M 32339  32341M 32441M 32455M 32457
             32476M 32476  32534M 32613M 32613  32649M 32649  33012M 33012  33103M 33103  33204M 33204  33206M 33209
1         (PROC2193) (12:51) (15MAR04) General Purpose Register Cross Reference                                             Page  382
             33221M 33229M 33238M 33238  33245  33267M 33267  33291M 33291  33356M 33356  33468M 33468  33529M 33529
             33590M 33590  33651M 33651  33717M 33717  33784M 33784  33850M 33850  33917M 33917  33987M 33987  33989M
             33992  34004M 34012M 34021M 34021  34028  34050M 34050  34069M 34069  34169M 34169  34235M 34235  34301M
             34301  34426M 34449M 34449  34574M 34597M 34597  34639M 34658M 34658  34881M 34895M 34897  34916M 34916
             35030M 35030  35042M 35042  35054M 35064  35115M 35129M 35131  35150M 35150  35170M 35187  35280M 35294M
             35296  35315M 35315  35341M 35341  35377M 35377  35500M 35500  35591M 35591  35633M 35652M 35652  35907M
             35907  35919M 35919  35955M 35970M 35975M 35976  35986M 36014M 36037M 36049  36067M 36067  36080M 36089M
             36089  36096  36161M 36265M 36279M 36281  36300M 36300  36416M 36416  36452M 36452  36620M 36620  36711M
             36711  36772M 36772  36833M 36833  36883M 36927M 36927  36946M 36946  36988M 37007M 37007  37114  37174M
             37186  37197M 37221M 37222M 37223  37227M 37227  37249M 37250M 37251  37260M 37260  37271M 37292M 37293M
             37294  37298M 37298  37340M 37340  37533M 37533  37545M 37545  37639M 37653M 37655  37674M 37674  37700M
             37700  37736M 37736  37805M 37824M 37824  38050M 38050  38065  38082M 38082  38173M 38262M 38276M 38278
             38297M 38297  38323M 38323  38359M 38359  38498M 38498  38564M 38564  38646  38652M 38668  38672M 38672
             38695M 38695  38737M 38756M 38756  38983M 38983  38995M 38995  39016M 39099M 39113M 39115  39134M 39134
             39160M 39160  39196M 39196  39265M 39284M 39284  39492M 39492  39504M 39504  39541M 39565M 39711M 39725M
             39727  39746M 39746  39772M 39772  39808M 39808  39937M 39937  40028M 40028  40094M 40094  40136M 40155M
             40155  40410M 40410  40422M 40422  40476M 40501M 40641M 40655M 40657  40676M 40676  40792M 40792  40828M
             40828  40981M 40981  41072M 41072  41142M 41142  41208M 41208  41250M 41269M 41269  41368  41411  41444M
             41510M 41527M 41536M 41537M 41538  41567M 41567  41906  41995M 41995  42007M 42007  42023M 42127M 42141M
             42143  42162M 42162  42188M 42188  42224M 42224  42293M 42312M 42312  42445M 42519M 42519  42532M 42532
             42552  42572  42592  42612  42836M 42850M 42852  42871M 42871  42979M 42993M 42995  43014M 43014  43040M
             43040  43076M 43076  43363M 43382M 43382  43475M 43475  43477M 43496M 43496  43589M 43589  43591M 43610M
             43610  43703M 43703  43705M 43724M 43724  43817M 43817  43819M 43838M 43838  43893M 43893  43895M 43914M
             43914  43969M 43969  43971M 43990M 43990  44056M 44056  44123M 44123  44189M 44189  44280M 44280  44330M
             44349M 44349  44549M 44549  44561M 44561  44623M 44723M 44737M 44739  44758M 44758  44799M 44878M 44878
             44914M 44914  45163M 45163  45241M 45241  45306M 45306  45367M 45367  45433M 45433  45524M 45524  45590M
             45590  45657M 45657  45723M 45723  45790M 45790  45832M 45851M 45851  46083M 46097M 46099  46118M 46118
             46220M 46220  46232M 46232  46244M 46338M 46352M 46354  46373M 46373  46478M 46492M 46494  46513M 46513
             46539M 46539  46575M 46575  46698M 46698  46789M 46789  46831M 46850M 46850  47091M 47091  47103M 47103
             47115M 47163M 47173  47191M 47191  47204M 47213M 47213  47220  47266M 47278  47301M 47302M 47303  47325M
             47326M 47327  47336M 47336  47357M 47358M 47359  47438M 47452M 47454  47473M 47473  47589M 47589  47625M
             47625  47794M 47794  47885M 47885  47946M 47946  48007M 48007  48057M 48101M 48101  48120M 48120  48162M
             48181M 48181  48423M 48423  48435M 48435  48447M 48612M 48626M 48628  48647M 48647  48673M 48673  48709M
             48709  48778M 48797M 48797  49000M 49000  49012M 49012  49050M 49065M 49111M 49138M 49170M 49277M 49291M
             49293  49312M 49312  49338M 49338  49374M 49374  49497M 49497  49588M 49588  49630M 49649M 49649  49899M
             49899  49911M 49911  49971M 49986M 50009M 50034M 50141M 50155M 50157  50176M 50176  50292M 50292  50328M
             50328  50466M 50466  50557M 50557  50612M 50612  50631M 50631  50673M 50692M 50692  50821  50855M 50880M
             50893M 50902M 50903M 50904  50933M 50933  51099M 51150M 51150  51252M 51252  51283M 51283  51434M 51438M
             51447M 51447  51454  51484M 51484  51508M 51537M 51537  51779M 51794M 51835M 51923M 51981M 52003M 52021M
             52039M 52100M 52153M 52195M 52220M 52238M 52256M 52274M 52292M 52311M 52329M 52347M 52375M 52400M 52400
             52425M 52425  52477  52616M 52624  52625M 52640M 52648  52649M 52728M 52786M 52823M 52823  53167M 53181M
             53183  53202M 53202  53254M 53268M 53270  53289M 53289  53359M 53373M 53375  53394M 53394  53411M 53411
             53440M 53440  53754M 53768M 53770  53789M 53789  53841M 53855M 53857  53876M 53876  53946M 53960M 53962
             53981M 53981  53998M 53998  54027M 54027  54312M 54312  54421M 54793M 54807M 54809  54828M 54828  54860M
             54860  55010M 55010  55209M 55248M 55443M 55454M 55812M 55833M 55854M 55878M 55924M 55924  56164M 56164
             56260M 56302M 56395M 56395  56596M 56596  56674M 56677M 56679  56718M 56718  56934M 57007M 57047M 57075M
             57096M 57097M 57104M 57113M 57113  57120  57224M 57294M 57294  57393  57409M 57410M 57413M 57422M 57422
             57429  57464M 57671M 57696M 57696  57772M 57772  57888M 57888  58049M 58076M 58076  58123M 58146M 58146
             58195M 58228M 58228  58285M 58285  58376M 58376  58481M 58514M 58519M 58521M 58560M 58594M 58622M 58651M
             58678M 58678  58801M 58801  58810M 58810  58843M 58843  58970M 58970  59036M 59036  59102M 59102  59157M
             59162M 59181M 59181  59335M 59349M 59351  59370M 59370  59458M 59458  59489M 59489  59557M 59652M 59666M
             59668  59687M 59687  59703M 59703  59726M 59726  59928M 59942M 59944  59963M 59963  60018M 60018  60109M
             60178M 60192M 60194  60213M 60213  60264M 60264  60358M 60449M 60463M 60465  60484M 60484  60539M 60539
             60630M 60699M 60713M 60715  60734M 60734  60785M 60785  60879M 60970M 60984M 60986  61005M 61005  61060M
             61060  61360M 61361M 61362  61388M 61403M 61408M 61409  61452M 61488M 61499M 61499  61533M 61533  61765M
             61765  61924M 62039M 62039  62080M 62080  62218M 62218  62284M 62284  62350M 62350  62392M 62411M 62411
             62493M 62493  62851M 62865M 62867  62886M 62886  62938M 62952M 62954  62973M 62973  63043M 63057M 63059
             63078M 63078  63095M 63095  63124M 63124  63344M 63344  63431M 63492M 63550M 63550  63912M 63914  63915M
             63940M 63940  63956M 63956  64007M 64036M 64036  64203M 64206M 64221M 64221  64237M 64261M 64261  64408M
1         (PROC2193) (12:51) (15MAR04) General Purpose Register Cross Reference                                             Page  383
             64408  64539  64581M 64581  64664M 64664  64739M 64740M 64760M 64779M 64779  64810M 64810

1PROC     (PROC2193) (12:51) (15MAR04) Diagnostic Cross Reference and Assembler Summary                                     Page  384
-                                                                                            HLASM R4.0  2004/03/15 12.51
0     No Statements Flagged in this Assembly
 HIGH LEVEL ASSEMBLER, 5696-234, RELEASE 4.0, PTF P72483
0SYSTEM: OS/390 02.10.00            JOBNAME: WYL#PROC    STEPNAME: ASM        PROCSTEP: (NOPROC)
0Datasets Allocated for this Assembly
  Con DDname   Dataset Name                                 Volume  Member
   P1 SYSIN    WYL.GS.WYL.WYLBUR.SOURCE                     SYSB05  PROC
   L1 SYSLIB   WYL.GS.WYL.WYLBUR.MACLIB                     SYSB05
   L2          WYL.GG.SYS.MACLIB                            SYSB05
   L3          SYS3.IS.MACLIB                               SYSB05
   L4          SYS3.MACLIB                                  SYSB02
   L5          SYS1.MACLIB                                  MVSBR9
   L6          SYS1.MODGEN                                  MVSBR9
      SYSPRINT SYS04075.T125133.RA000.WYL#PROC.PRINT.H01    SCR101
      SYSTERM  GG$SLP.WYL#PROC.JOB03555.D0000101.?

    3668K allocated to Buffer Pool,         7649K would be required for this to be an In-Storage Assembly
    8094 Primary Input Records Read         9161 Library Records Read                954 Work File Reads
       0 ASMAOPT Records Read              36961 Primary Print Records Written      1004 Work File Writes
       0 Punch Records Written                 0 ADATA Records Written
0Assembly Start Time: 12.51.35 Stop Time: 12.52.13 Processor Time: 00.00.14.3553
 Return Code 000
