1                        J E S 2  J O B  L O G  --  S Y S T E M  S Y S B  --  N O D E  R L G
0
 12.47.22 JOB03536 ---- MONDAY,    15 MAR 2004 ----
 12.47.22 JOB03536  ICH70001I GG$SLP   LAST ACCESS AT 12:47:09 ON MONDAY, MARCH 15, 2004
 12.47.22 JOB03536  $HASP373 WYL#KEYS STARTED - INIT 9    - CLASS B - SYS SYSB
 12.47.22 JOB03536  ***  HCMD      STEP $$QUIET
 12.47.22 JOB03536  PUR * Q OUT MUL
 12.47.22 JOB03536  JOB 5398 WYL#KEYS WILL BE PURGED
 12.47.23 JOB03536  WYL#KEYS.$$QUIET .         RC=Zero TapeIO=0000 DiskIO=0000 CPU=  .01s Elapsed=42.11s
 12.47.31 JOB03536  WYL#KEYS.ASM     .         RC=Zero TapeIO=0000 DiskIO=0525 CPU= 2.26s Elapsed=43.15s
 12.47.31 JOB03536  WYL#KEYS.EDIT    .         RC=Zero TapeIO=0000 DiskIO=0086 CPU=  .28s Elapsed=51.10s
 12.47.31 JOB03536  WYL#KEYS Ended.  Name=Assemble KEYS                  Total CPU= 2.55s Elapsed=42.11s
 12.47.31 JOB03536
 12.47.31 JOB03536  Execution charges   Priority=Standard   Block=Day
 12.47.31 JOB03536
 12.47.31 JOB03536  CPU Usage          46.68          $28.94   Standard Processing Unit Equivalent
 12.47.31 JOB03536                                   =======
 12.47.31 JOB03536                                    $28.94   Total Job execution charge
 12.47.31 JOB03536
 12.47.31 JOB03536  See back separator page for print charges
 12.47.31 JOB03536
 12.47.32 JOB03536  $HASP395 WYL#KEYS ENDED  ASM=0, EDIT=0
1        1 //WYL#KEYS JOB SLP$GG,'Assemble KEYS',TIME=4,REGION=4M                  JOB03536
           //*
           /*JOBPARM LINES=99,COPIES=1
           /*JOBPARM FORMS=3HOL,PFORMAT=LAND,CHARS=BD13,DUPLEX=YES,FLASH=BAR4
           //*
           /*JOBPARM NOTIFY=GG.SLP,HOLD=OUTPUT                                     WYLGEN
         2 //$$QUIET EXEC PGM=HCMDX,PARM='PUR * Q OUT MUL'
           //*
         3 //ASM    EXEC PGM=ASMA90,REGION=8M,
           //            PARM=('NORENT,TERM,FLAG(NOCONT),US(MAP,WARN(10)),NODECK',
           //            'LC(32767),XREF(SHORT),ESD,DXREF,NOOBJECT')
         4 //STEPLIB DD DSN=SYS3.IS.TESTASM,DISP=SHR
         5 //SYSLIB   DD  DSN=WYL.GS.WYL.WYLBUR.MACLIB,DISP=SHR
         6 //         DD  DSN=WYL.GG.SYS.MACLIB,DISP=SHR
         7 //         DD  DSN=SYS3.IS.MACLIB,DISP=SHR
         8 //         DD  DSN=SYS3.MACLIB,DISP=SHR
         9 //         DD  DSN=SYS1.MACLIB,DISP=SHR
        10 //         DD  DSN=SYS1.MODGEN,DISP=SHR
        11 //SYSUT1   DD DSN=&&SYSUT1,UNIT=VIO,DISP=(,DELETE),
           //            SPACE=(4088,(500,250),,CONTIG,ROUND)
        12 //SYSTERM  DD SYSOUT=T
        13 //SYSPRINT DD DSN=&&PRINT,UNIT=SYSDA,DISP=(,PASS),
           //            SPACE=(6650,(250,250),RLSE),
           //            DCB=(BLKSIZE=6650,LRECL=133,RECFM=FB)
        14 //SYSUDUMP DD SYSOUT=A
        15 //SYSIN    DD  DSN=WYL.GS.WYL.WYLBUR.SOURCE(KEYS),DISP=SHR
           //*
        16 //EDIT    EXEC PGM=ASMEDIT,TIME=2,REGION=4000K,
           //             PARM='STMT'
        17 //STEPLIB  DD  DSN=WYL.GG.SYS.LINKLIB,DISP=SHR
        18 //ASMOUT   DD  DSN=&PRINT,DISP=(OLD,DELETE)
        19 //SYSPRINT DD  SYSOUT=A
1 STMT NO. MESSAGE
 -
        11 IGD01010I STORCLAS= TEMP STORGROUP =
        11 IGD01010I STORGRP=VIO ASSIGNED.
        13 IGD01010I STORCLAS= TEMP STORGROUP =
        13 IGD01010I STORGRP=VIO ASSIGNED.
 ICH70001I GG$SLP   LAST ACCESS AT 12:47:09 ON MONDAY, MARCH 15, 2004
 IEF142I WYL#KEYS $$QUIET - STEP WAS EXECUTED - COND CODE 0000
 *********************************************************************************
 *   WYL#KEYS/$$QUIET /                    Return Code      Zero                 *
 *   Region used      260K (16K user + 244K system)                              *
 *   Extended region  9464K (4K user + 9460K system)                             *
 *                                                                               *
 *   Paging              In      Out                                             *
 *   Private <-> Aux      0        0       CPU time (TCB)   00:00:00.01          *
 *   Private <-> Exp      0        0       CPU time (SRB)   00:00:00.00          *
 *   VIO                  0        0       Elapsed time    917:40:30.85          *
 *   Common               0      ---                                             *
 *                                                                               *
 *                                                                               *
 *   CPU Usage          0.18         $0.11  Standard Processing Unit Equivalent  *
 *                                   $0.11  Total Step execution charge          *
 *                                                                               *
 *    I/O count  DDname   Type Addr           I/O count  DDname   Type Addr      *
 *                         *** No I/O for this step ***                          *
 *********************************************************************************
 IEF373I STEP/$$QUIET /START 2004075.1247
 IEF374I STEP/$$QUIET /STOP  2004075.1247 CPU    0MIN 00.01SEC SRB    0MIN 00.00SEC VIRT    16K SYS   244K EXT       4K SYS    9460K
 IEF236I ALLOC. FOR WYL#KEYS ASM
 IEF237I 04DC ALLOCATED TO STEPLIB
 IEF237I 04DC ALLOCATED TO SYSLIB
 IEF237I 04DC ALLOCATED TO
 IEF237I 04DC ALLOCATED TO
 IEF237I 0402 ALLOCATED TO
 IEF237I 04A0 ALLOCATED TO
 IEF237I 04A0 ALLOCATED TO
 IGD101I SMS ALLOCATED TO DDNAME (SYSUT1  )
         DSN (SYS04075.T124722.RA000.WYL#KEYS.SYSUT1.H01  )
         STORCLAS (TEMP) MGMTCLAS (        ) DATACLAS (        )
         VOL SER NOS= VIO
 IEF237I JES2 ALLOCATED TO SYSTERM
 IGD101I SMS ALLOCATED TO DDNAME (SYSPRINT)
         DSN (SYS04075.T124722.RA000.WYL#KEYS.PRINT.H01   )
         STORCLAS (TEMP) MGMTCLAS (        ) DATACLAS (        )
         VOL SER NOS= SCR101
 IEF237I JES2 ALLOCATED TO SYSUDUMP
 IEF237I 04DC ALLOCATED TO SYSIN
 IEF142I WYL#KEYS ASM - STEP WAS EXECUTED - COND CODE 0000
 IEF285I   SYS3.IS.TESTASM                              KEPT
 IEF285I   VOL SER NOS= SYSB05.
 IEF285I   WYL.GS.WYL.WYLBUR.MACLIB                     KEPT
 IEF285I   VOL SER NOS= SYSB05.
 IEF285I   WYL.GG.SYS.MACLIB                            KEPT
 IEF285I   VOL SER NOS= SYSB05.
 IEF285I   SYS3.IS.MACLIB                               KEPT
 IEF285I   VOL SER NOS= SYSB05.
 IEF285I   SYS3.MACLIB                                  KEPT
 IEF285I   VOL SER NOS= SYSB02.
 IEF285I   SYS1.MACLIB                                  KEPT
 IEF285I   VOL SER NOS= MVSBR9.
 IEF285I   SYS1.MODGEN                                  KEPT
 IEF285I   VOL SER NOS= MVSBR9.
 IGD105I SYS04075.T124722.RA000.WYL#KEYS.SYSUT1.H01   DELETED,   DDNAME=SYSUT1
 IEF285I   GG$SLP.WYL#KEYS.JOB03536.D0000101.?          SYSOUT
 IGD106I SYS04075.T124722.RA000.WYL#KEYS.PRINT.H01    PASSED,    DDNAME=SYSPRINT
 IEF285I   GG$SLP.WYL#KEYS.JOB03536.D0000102.?          SYSOUT
 IEF285I   WYL.GS.WYL.WYLBUR.SOURCE                     KEPT
 IEF285I   VOL SER NOS= SYSB05.
 *********************************************************************************
 *   WYL#KEYS/ASM     /                    Return Code      Zero                 *
 *   Region used      4376K (4096K user + 280K system)                           *
 *   Extended region  10064K (412K user + 9652K system)                          *
 *                                                                               *
 *   Paging              In      Out                                             *
 *   Private <-> Aux      0        0       CPU time (TCB)   00:00:02.21          *
 *   Private <-> Exp      0        0       CPU time (SRB)   00:00:00.05          *
 *   VIO                  0        0       Elapsed time    917:40:29.81          *
 *   Common               0      ---                                             *
 *                                                                               *
 *                                                                               *
 *   CPU Usage         41.43        $25.68  Standard Processing Unit Equivalent  *
 *                                  $25.68  Total Step execution charge          *
 *                                                                               *
 *    I/O count  DDname   Type Addr           I/O count  DDname   Type Addr      *
 *           84  STEPLIB  Disk 04DC                 298  SYSLIB   Disk 04DC      *
 *            0  SYSLIB   Disk 04DC                   0  SYSLIB   Disk 04DC      *
 *            0  SYSLIB   Disk 0402                  56  SYSLIB   Disk 04A0      *
 *            0  SYSLIB   Disk 04A0                   0  SYSUT1   VIO  ----      *
 *            0  SYSTERM       ----                  83  SYSPRINT Disk 04E3      *
 *            0  SYSUDUMP      ----                   4  SYSIN    Disk 04DC      *
 *********************************************************************************
 IEF373I STEP/ASM     /START 2004075.1247
 IEF374I STEP/ASM     /STOP  2004075.1247 CPU    0MIN 02.21SEC SRB    0MIN 00.05SEC VIRT  4096K SYS   280K EXT     412K SYS    9652K
 IEF236I ALLOC. FOR WYL#KEYS EDIT
 IEF237I 0402 ALLOCATED TO STEPLIB
 IGD103I SMS ALLOCATED TO DDNAME ASMOUT
 IEF237I JES2 ALLOCATED TO SYSPRINT
 IEF142I WYL#KEYS EDIT - STEP WAS EXECUTED - COND CODE 0000
 IEF285I   WYL.GG.SYS.LINKLIB                           KEPT
 IEF285I   VOL SER NOS= SYSB02.
 IGD105I SYS04075.T124722.RA000.WYL#KEYS.PRINT.H01    DELETED,   DDNAME=ASMOUT
 IEF285I   GG$SLP.WYL#KEYS.JOB03536.D0000103.?          SYSOUT
 *********************************************************************************
 *   WYL#KEYS/EDIT    /                    Return Code      Zero                 *
 *   Region used      380K (116K user + 264K system)                             *
 *   Extended region  9588K (4K user + 9584K system)                             *
 *                                                                               *
 *   Paging              In      Out                                             *
 *   Private <-> Aux      0        0       CPU time (TCB)   00:00:00.27          *
 *   Private <-> Exp      0        0       CPU time (SRB)   00:00:00.01          *
 *   VIO                  0        0       Elapsed time    917:40:21.86          *
 *   Common               0      ---                                             *
 *                                                                               *
 *                                                                               *
 *   CPU Usage          5.06         $3.13  Standard Processing Unit Equivalent  *
 *                                   $3.13  Total Step execution charge          *
 *                                                                               *
 *    I/O count  DDname   Type Addr           I/O count  DDname   Type Addr      *
 *            2  STEPLIB  Disk 0402                  84  ASMOUT   Disk 04E3      *
 *            0  SYSPRINT      ----                                              *
 *********************************************************************************
 IEF373I STEP/EDIT    /START 2004075.1247
 IEF374I STEP/EDIT    /STOP  2004075.1247 CPU    0MIN 00.27SEC SRB    0MIN 00.01SEC VIRT   116K SYS   264K EXT       4K SYS    9584K
 *********************************************************************************
 *                                                                               *
 *                      S t a n f o r d   U n i v e r s i t y                    *
 *                                                                               *
 *                              *** Job Summary ***                              *
 *                                                                               *
 *   System Id      SYSB                   Input time     12:39:20  Mar 15, 2004 *
 *                                                                               *
 *   System Release SP6.1.0                Start time     12:47:22  Mar 15, 2004 *
 *                                                                               *
 *   Job name       WYL#KEYS               Stop  time     00:00:00  Mar 15, 2004 *
 *                                                                               *
 *   Account        SLP$GG                 Elapsed time  917:40:30.85            *
 *                                                                               *
 *   User Name      Assemble KEYS          CPU time       00:00:02.49            *
 *                                                                               *
 *   Job class      B                      SRB Time       00:00:00.06            *
 *                                                                               *
 *********************************************************************************
 IEF375I  JOB/WYL#KEYS/START 2004075.1247
 IEF376I  JOB/WYL#KEYS/STOP  2004075.1247 CPU    0MIN 02.49SEC SRB    0MIN 00.06SEC
1Assembler Done KEYS No Statements Flagged
1         High Level Assembler Option Summary                   (PTF P72483 )                                               Page    1
-                                                                                            HLASM R4.0  2004/03/15 12.47
0  No Overriding ASMAOPT Parameters
   Overriding Parameters-  NORENT,TERM,FLAG(NOCONT),US(MAP,WARN(10)),NODECK,LC(32767),XREF(SHORT),ESD,DXREF,NOOBJECT
   No Process Statements


   Options for this Assembly
0  NOADATA
     ALIGN
   NOASA
     BATCH
     CODEPAGE(047C)
   NOCOMPAT
   NODBCS
 3 NODECK
 3   DXREF
 3   ESD
   NOEXIT
 3   FLAG(0,ALIGN,NOCONT,NOIMPLEN,NOPAGE0,PUSH,RECORD,NOSUBSTR,USING0)
   NOFOLD
   NOGOFF
   NOINFO
     LANGUAGE(EN)
   NOLIBMAC
 3   LINECOUNT(32767)
     LIST(121)
     MXREF(SOURCE)
 3 NOOBJECT
     OPTABLE(UNI,NOLIST)
   NOPCONTROL
   NOPESTOP
   NOPROFILE
   NORA2
 3 NORENT
     RLD
     RXREF
     SIZE(MAX)
     SYSPARM()
 3   TERM(WIDE)
   NOTEST
     THREAD
   NOTRANSLATE
 3   USING(NOLIMIT,MAP,WARN(10))
 3   XREF(SHORT)

   No Overriding DD Names

1KEYS     External Symbol Dictionary                                                                                        Page    2
-Symbol   Type   Id     Address  Length     LD ID  Flags Alias-of                            HLASM R4.0  2004/03/15 12.47
0WYLKEYS   SD 00000001 00000000 00001349             00
 KEYS2010  LD          00000000           00000001
 KEYGET    LD          000003DA           00000001
 KEYPUT    LD          000004CC           00000001
 KEYADD    LD          0000058A           00000001
 KEYDEL    LD          00000648           00000001
 SHOWKINF  LD          00000702           00000001
 KRSCFREE  LD          00000984           00000001
 GETCORE   ER 00000002
 BTX       ER 00000003
 COLLOPTS  ER 00000004
 SEGCR     ER 00000005
 SEGCOL    ER 00000006
 SEGDC     ER 00000007
 SEG       ER 00000008
 GETRSC    ER 00000009
 FREERSC   ER 0000000A
 WAITECB   ER 0000000B
 SETCHR    LD          00000C3C           00000001
 MNULL     ER 0000000C
 MPARM     ER 0000000D
 MPINT     ER 0000000E
 MALL      ER 0000000F
 NOTVALID  ER 00000010
 SETCHRU   LD          00000F02           00000001
 SHOWCHR   LD          000010C0           00000001
 NSCAN     ER 00000011
 SCANCHK   ER 00000012

1KEYS     WYLBUR's Keyed File Routines                                                                                      Page    3
0D-Loc  Object Code    Addr1 Addr2  Stmt Lv Lineno    Source Statement                    (Asmedit 3.3)  HLASM R4.0  2004/03/15 12.47
+_____  ______ ____    _____ _____  ____ __ ______    ______ _________
0                                      2              *******************************************************************
                                       3              *                                                                 *
                                       4              *     WYLBUR/370 - Release VI - Class I - Stanford Proprietary    *
                                       5              *                                                                 *
                                       6              *******************************************************************
                                       7                       HIBAL
                                     988              ¿þþþþþþþþþþþþþþþþþþþþþþþþþþþþþþþþþþþþþþþþþþþþþþþþþþþþþþþþþþþþþþþþþþþþþÜ
                                     989              Ÿ                                                                     Ÿ
                                     990              Ÿ  Module history:                                                    Ÿ
                                     991              Ÿ     6/89  Niz    Original version (based on KWWR).                  Ÿ
                                     992              Ÿ    03/92  SCH    Charlie worked on KEYS, changes unknown            Ÿ
                                     993              Ÿ    11/93  PJG    Add Christa VSAM interface for user-id             Ÿ
                                     994              Ÿ     1/95  SLP    Modify Christa interface for second try at         Ÿ
                                     995              Ÿ                  installation                                       Ÿ
                                     996              Ÿ     9/98  MPD    Remove BDAM interface                              Ÿ
                                     997              Ÿ                                                                     Ÿ
                                                      ¾þþþþþþþþþþþþþþþþþþþþþþþþþþþþþþþþþþþþþþþþþþþþþþþþþþþþþþþþþþþþþþþþþþþþþ»
0                                    998                       SYSDEFN
                                     999
 000000                00000 01349  1000              WYLKEYS  CSECT
                                    1004
                                    1005              KEYS     IDENT 2010                10:26:04 01/10/02  (SLP)
                                    1008             +
                                    1009    01-IDENT +         ENTRY KEYS2010
                                    1010             +
 000000 16D2C5E8E2F2F0F1            1011    01-IDENT +KEYS2010 DC    AL1(22),C'KEYS2010,15MAR04,12:47'
                                    1012             +*
                                    1014                       REGS  FSR,,,,,,,BR,(WAR,LSR),PAR,PBR,CPR,CVR,SPR,RAR
                                    1150
                                    1151                       PUSH  DSECTS
 USING  CP,R11                      1163             =         USING (CP),(CV)
 USING  CV,R12
 000017                00000 01349  1182             =         POP   PRINT
1KEYS     (KEYS2010) (12:47) (15MAR04) Common Control Blocks                                                                Page    4
0Current Usings:  (CP,R11) (CV,R12)
0Loc    Object Code    Addr1 Addr2  Stmt Lv Lineno    Source Statement           (Hibal 5, Asmedit 3.3)  HLASM R4.0  2004/03/15 12.47
+___    ______ ____    _____ _____  ____ __ ______    ______ _________
0                                   6596                       COPY  UID                 Copy User-ID record layout
                                    6597=            =¿þþþþþþþþþþþþþþþþþþþþþþþþþþþþþþþþþþþþþþþþþþþþþþþþþþþþþþþþþþþþþþþþþþþþþÜ
                                    6598=            =Ÿ                                                                     Ÿ
                                    6599=            =Ÿ  User-ID Record Layout                                              Ÿ
                                    6600=            =Ÿ                                                                     Ÿ
                                                      ¾þþþþþþþþþþþþþþþþþþþþþþþþþþþþþþþþþþþþþþþþþþþþþþþþþþþþþþþþþþþþþþþþþþþþþ»
0000000                00000 0014C  6602             =UIDREC   RECORD BEGIN              User-ID record
                                    6610  1          =UIDKL#     EQU   64,,C'N'            User-ID key length
                                    6611  1          =UIDDL#     EQU   8+256+4,,C'N'       User-ID data length
                                    6612  1          =*
                                    6613  1          =* The above formula (for the data field size) accounts
                                    6614  1          =* for the clock, update count and length fields (the
                                    6615  1          =* '8'), the maximum length of a WYLBUR string variable
                                    6616  1          =* (the '256') and the size of the constant ':END' at
                                    6617  1          =* the end of the data field.
                                    6618  1          =*
 000000                             6619  1          =UIDKEY     DS    CL(UIDKL#)          User-ID record key
 000040                             6620  1          =UIDDATA    DS    CL(UIDDL#)          User-ID record data
                                    6621  1          =
 00014C                0014C 00040  6622  1          =           ORG   UIDDATA
 000040                             6623  1          =UIDCLOCK   DS    F                   High word of STCK
 000044                             6624  1          =UIDUC      DS    H                   Record update count
 000046                             6625  1          =UIDULEN    DS    H                   Length of user data
 000048                             6626  1          =UIDUDATA   DS    XL(UIDDL#-12)       User data
 000148                             6627  1          =UIDEND     DS    CL4':END'           Trailing id
 00014C                0014C 0014C  6628  1          =           ORG
 00014C                0014C 0014C  6629             =         END   ,
1KEYS     (KEYS2010) (12:47) (15MAR04) Common Control Blocks                                                                Page    5
0Current Usings:  (CP,R11) (CV,R12)
0Loc    Object Code    Addr1 Addr2  Stmt Lv Lineno    Source Statement           (Hibal 5, Asmedit 3.3)  HLASM R4.0  2004/03/15 12.47
+___    ______ ____    _____ _____  ____ __ ______    ______ _________
0000017                00000 01349  6639              WYLKEYS  CSECT
                                    6641                       ¿þþþþþþþþþþþþþþþþþþþþþþþþþþþþþþþþþþþþþþþþþþþþþþþþþþþþþþþþþþþÜ
                                    6642                       Ÿ  KEYS Global Information                                  Ÿ
                                    6643                       Ÿ                                                           Ÿ
                                    6644                       Ÿ  These fields are DC at the beginning of the KEYS module  Ÿ
                                    6645                       Ÿ  immediately following the IDENT eyecatcher.              Ÿ
                                    6646                       ¾þþþþþþþþþþþþþþþþþþþþþþþþþþþþþþþþþþþþþþþþþþþþþþþþþþþþþþþþþþþ»
                                    6647              KEYSTMXL EQU   16*1024             Maximum user transaction length
                                    6648              KEYSBUFL EQU   KEYSTMXL+L'USRHDR
 000018                             6649              KEYSTBL  DS    0D
 000018 D2C5E8E2E3C2D37A            6650                       DC    CL8'KEYSTBL:'
 000020 00000000                    6651              KEYCNIO  DC    F'0'                Total number of I/O's
 000024 00000000                    6652              KEYCNRD  DC    F'0'                Number of read requests
 000028 00000000                    6653              KEYCNWR  DC    F'0'                Number of write requests
 00002C 00000000                    6654              KEYCNADD DC    F'0'                Number of add requests
 000030 00000000                    6655              KEYCNDEL DC    F'0'                Number of delete requests
 000034                             6656              KEYSECB  DS    F
0000038 00000000                    6658              KEYSCHRC DC    A(0)                Return code from Christa path
 00003C 00000000                    6659              KEYSTCDE DC    A(0)                Last Christa VSAM return code
 000040 00000000                    6660              KEYSLCDE DC    A(0)                Last Christa SEND return code
 000044 00000000                    6661              KEYSCHAD DC    A(0)                Addr of Christa interface module
0000048                             6663              CHRPLIST DS    0A                  Christa interface parameter list
 000048 00000054                    6664              CHRPFUNC DC    A(KEYUFUNC)         Addr of Christa function requested
 00004C 00000058                    6665              CHRPWORK DC    A(KEYUWORK)         Addr of Christa work cell
 000050 00000000                    6666              CHRPTRAN DC    A(0)                Addr of Christa transaction
-000054 00000000                    6668              KEYUFUNC DC    A(0)                Christa request function code
 000058 FFFFFFFF                    6669              KEYUWORK DC    A(-1)               Addr of Christa work area
                                    6670              *                                  (returned by Christa -- we don't
                                    6671              *                                  touch)
                                    6672              *
 00005C 00000000                    6673              KEYDOMID DC    A(0)                MSG id to be DOMed after INIT ok
                                    6674
 000060 00                          6675              KEYSFLAG FLAG  ,                   Global flags
 KEYSFLAG.KEYCFINI 80 ONES          6679                       FLAG  KEYCFINIT           - Christa interface initialized
 KEYSFLAG.KEYCFOPE 40 ONES          6684                       FLAG  KEYCFOPEN           - Christa interface is opened
 KEYSFLAG.KEYCFBUS 20 ONES          6689                       FLAG  KEYCFBUSY           - Christa transaction in progress
 KEYSFLAG.KEYCFNA  10 ONES          6694                       FLAG  KEYCFNA             - Christa is not available
                                    6699
 000061 00                          6700              KEYFWORK FLAG  ,                   Work space for SET command flags
 KEYFWORK.KEYFUCPR 80 ONES          6704                       FLAG  KEYFUCPR            UserID Access: Christa primary
                                    6709
 000062                             6710              KEYFILE  DS    CL1                 Last file accessed
1KEYS     (KEYS2010) (12:47) (15MAR04) Common Control Blocks                                                                Page    6
0Current Usings:  (CP,R11) (CV,R12)
0Loc    Object Code    Addr1 Addr2  Stmt Lv Lineno    Source Statement           (Hibal 5, Asmedit 3.3)  HLASM R4.0  2004/03/15 12.47
+___    ______ ____    _____ _____  ____ __ ______    ______ _________
0                                   6712                       COPY  CHRIOREQ            Copy Christa interface block
                                    6713=            =¿þþþþþþþþþþþþþþþþþþþþþþþþþþþþþþþþþþþþþþþþþþþþþþþþþþþþþþþþþþþþþþþþþþþþþÜ
                                    6714=            =Ÿ                                                                     Ÿ
                                    6715=            =Ÿ  User-ID/Password/Kerb                                              Ÿ
                                    6716=            =Ÿ        Function request block for data transmission                 Ÿ
                                    6717=            =Ÿ                                                                     Ÿ
                                                      ¾þþþþþþþþþþþþþþþþþþþþþþþþþþþþþþþþþþþþþþþþþþþþþþþþþþþþþþþþþþþþþþþþþþþþþ»
-                                   6719             =CHRFINIT EQU   00,4,C'C'           Christa initialize function
                                    6720             =CHRFSEND EQU   04,4,C'C'           Christa send/receive transaction
                                    6721             =CHRFCLOS EQU   08,4,C'C'           Christa terminate processing
                                    6722             =CHRFRSRV EQU   12,4,C'C'           Christa ---reserved---
                                    6723             =CHRFPPRO EQU   16,4,C'C'           Christa post-processing
0000000                00000 00230  6725             =USRREQ   RECORD BEGIN              User-id request block
 000000 E4E2C9D6                    6733  1          =REQID      DC    CL4'USIO'           Request block identifier
 000004 00000000                    6734  1          =REQLEN     DC    A(0)                Total length of transaction
 000008 00000000                    6735  1          =REQTYPE    DC    A(0)                Request function
                                    6736  1          =RQTREAD          EQU    0              - Request read
                                    6737  1          =RQTADD           EQU    4              - Request add
                                    6738  1          =RQTUPD           EQU    8              - Request update
                                    6739  1          =RQTDEL           EQU   12              - Request delete record
                                    6740  1          =RQTSTAT          EQU   16              - Request statistics
                                    6741  1          =RQTDUMP          EQU   20              - Request file dump
                                    6742  1          =RQTCDEL          EQU   24              - Request cache record delete
000000C 00                          6744  1          =REQFLAGS   FLAG  ,                   Option flags (0)
 REQFLAGS.REQFID   80 ONES          6748  1          =           FLAG  REQFID                - Request is for User-ID
 REQFLAGS.REQFKWR  40 ONES          6753  1          =           FLAG  REQFKWR               - Request is for KWR record
 REQFLAGS.REQFIMRE 20 ONES          6758  1          =           FLAG  REQFIMRET             - Request immediate return
 REQFLAGS.REQFWRTC 10 ONES          6763  1          =           FLAG  REQFWRTCH             - Okay to write-cache record
 REQFLAGS.REQFLUPD 08 ONES          6768  1          =           FLAG  REQFLUPD              - Read for update
 REQFLAGS.REQFRNEX 04 ONES          6773  1          =           FLAG  REQFRNEXT             - Read "next" record
 REQFLAGS.REQFLENR 02 ONES          6778  1          =           FLAG  REQFLENRQ             - Release exclusive control
 REQFLAGS.REQFKerb 01 ONES          6783  1          =           FLAG  REQFKerb              - Request is for Kerb ID
 00000D 00                          6788  1          =REQFLAG1   FLAG  ,                   Option flags (1)
 REQFLAG1.REQFICAC 80 ONES          6792  1          =           FLAG  REQFICACHL            - Inhibit cache loading
 00000E 0000                        6797  1          =           DC    AL2(0)              Reserved space (two bytes)
0000010 00000000                    6799  1          =REQR15     DC    A(0)                R15 return from VSAM request
 000014 00000000                    6800  1          =REQREAS    DC    A(0)                VSAM reason code
 000018 00000000                    6801  1          =REQRETRN   DC    A(0)                General return code
                                    6802  1          =REQRSUC          EQU   0               - Successful operation
                                    6803  1          =REQRRNF          EQU   4               - Record not found
                                    6804  1          =REQRDUP          EQU   8               - Duplicate key
                                    6805  1          =REQRBSY          EQU  12               - Record busy
                                    6806  1          =REQRFUL          EQU  16               - File full
                                    6807  1          =REQRUNK          EQU  20               - Unknown error condition
                                    6808  1          =REQRIOE          EQU  24               - I/O error (Physical)
                                    6809  1          =REQRNA           EQU  28               - Insufficient authority
                                    6810  1          =REQROUTW         EQU  32               - Outstanding request
                                    6811  1          =REQRSERR         EQU  36               - SCOM processing error
                                    6812  1          =REQREOF          EQU  40               - End of file, (key high)
1KEYS     (KEYS2010) (12:47) (15MAR04) Common Control Blocks                                                                Page    7
0Current Usings:  (CP,R11) (CV,R12)
0Loc    Object Code    Addr1 Addr2  Stmt Lv Lineno    Source Statement           (Hibal 5, Asmedit 3.3)  HLASM R4.0  2004/03/15 12.47
+___    ______ ____    _____ _____  ____ __ ______    ______ _________
0                                   6813  1          =REQRBADP         EQU  44               - Invalid USIO control block
                                    6814  1          =REQRERRS   EQU   REQR15,12,C'X'      Define error return area
000001C 00000000                    6816  1          =REQTIMEO   DC    A(0)                Time-out value (.01 seconds)
 000020 00000000                    6817  1          =REQELAP    DC    A(0)                Elapsed time for request
 000024 00000000                    6818  1          =REQECBPT   DC    A(0)                Address of completion ECB
 000028 00000000                    6819  1          =           DC    A(0)
 00002C 00000000                    6820  1          =           DC    1A(0)               Reserved
                                    6821  1          =USRHDR     EQU   USRREQ,*-REQID,C'C' Length of transaction header
 000030 0000000000000000            6822  1          =REQDATA    DC    512X'00'            Record key+data block
0                                   6824  1          =USRREQL    EQU   *-USRREQ            Define length of request block
 000230                00230 00230  6825             =         END   ,
-                                   6835                       COPY  USINPRMS            Copy Christa init parm layout
                                    6836=            =¿þþþþþþþþþþþþþþþþþþþþþþþþþþþþþþþþþþþþþþþþþþþþþþþþþþþþþþþþþþþþþþþþþþþþþÜ
                                    6837=            =Ÿ                                                                     Ÿ
                                    6838=            =Ÿ  Christa initialization parameters                                  Ÿ
                                    6839=            =Ÿ                                                                     Ÿ
                                                      ¾þþþþþþþþþþþþþþþþþþþþþþþþþþþþþþþþþþþþþþþþþþþþþþþþþþþþþþþþþþþþþþþþþþþþþ»
0000000                00000 00010  6840             =USINPRMS RECORD BEGIN
 000000 E4E2C9D5                    6848  1          =USINID     DC    CL4'USIN'           BLOCK IDENTIFIER
 000004 C3C8D9C9E2E3C140            6849  1          =USINPATH   DC    CL8'CHRISTA'        MAJOR PATHNAME FOR CONNECTION
 00000C 00000000                    6850  1          =USINTOUT   DC    A(0)                CONNECTION TIMEOUT (.01 SECS)
 000010                00010 00010  6851             =         END   ,
-                                   6861                       COPY  CHRPARMS            Copy Christa global parms layout
                                    6862=            =¿þþþþþþþþþþþþþþþþþþþþþþþþþþþþþþþþþþþþþþþþþþþþþþþþþþþþþþþþþþþþþþþþþþþþþÜ
                                    6863=            =Ÿ                                                                     Ÿ
                                    6864=            =Ÿ  WYLBUR global Christa data areas                                   Ÿ
                                    6865=            =Ÿ                                                                     Ÿ
                                                      ¾þþþþþþþþþþþþþþþþþþþþþþþþþþþþþþþþþþþþþþþþþþþþþþþþþþþþþþþþþþþþþþþþþþþþþ»
0000000                00000 0001C  6867             =CHRPARMS RECORD BEGIN              Global data areas passed to Christa
 000000 C3C8D9D7                    6875  1          =CHRPRMID   DC    CL4'CHRP'           Christa parm eye-catcher
                                    6876  1          =
 000004 4040404040404040            6877  1          =CHRKPATH   DC    CL8' '              Christa path name
 00000C 00000000                    6878  1          =CHRKTIME   DC    A(0)                Christa path timeout in .01 secs
                                    6879  1          =
 000010 4040404040404040            6880  1          =CHRUPATH   DC    CL8' '              Christa path name
 000018 00000000                    6881  1          =CHRUTIME   DC    A(0)                Christa path timeout in .01 secs
                                    6882  1          =
                                    6883  1          =CHRPLEN    EQU   *-CHRPARMS          Length of global Christa parms
 00001C                0001C 0001C  6884             =         END   ,
1KEYS     (KEYS2010) (12:47) (15MAR04) KEYOPEN -- Open the keyed file                                                       Page    8
0Current Usings:  (CP,R11) (CV,R12)
0Loc    Object Code    Addr1 Addr2  Stmt Lv Lineno    Source Statement           (Hibal 5, Asmedit 3.3)  HLASM R4.0  2004/03/15 12.47
+___    ______ ____    _____ _____  ____ __ ______    ______ _________
0                                   6895              ¿þþþþþþþþþþþþþþþþþþþþþþþþþþþþþþþþþþþþþþþþþþþþþþþþþþþþþþþþþþþþþþþþþþþþþÜ
                                    6896              Ÿ                                                                     Ÿ
                                    6897              Ÿ  KEYOPEN -- Routine to open the Christa Userid file.                Ÿ
                                    6898              Ÿ                                                                     Ÿ
                                    6899              Ÿ    This routine establishes the connection to the CHRISTA           Ÿ
                                    6900              Ÿ    job.                                                             Ÿ
                                    6901              Ÿ                                                                     Ÿ
                                                      ¾þþþþþþþþþþþþþþþþþþþþþþþþþþþþþþþþþþþþþþþþþþþþþþþþþþþþþþþþþþþþþþþþþþþþþ»
0000064 50E0 D000/9008_      00000  6902              KEYOPEN  PROC  (R0,LSR)
 USING  *,R7
 00007E 5860 7A9A            00B18  6941                       L     R6,=A(KEYSTBL)      Estab base for KEYS global info
 USING  KEYSTBL,R6                  6942                       WITH  (KEYSTBL,R6)
                                    6955              *
                                    6956              * LOAD the Christa I/O interface module, and obtain a buffer
                                    6957              * large enough for all transactions to the various files
                                    6958              * (USERID, Kerberos, and eventually, PASSWORD).
                                    6959              *
                                    6960              * This initialization is one-time.
                                    6961              *
 000082 9180 6048/4710_00060        6962                       IF    ~KEYCFINIT,BEGIN
 00008A 5800 7A9E            00B1C  6977  1                      L     R0,=A(KEYSBUFL)
000008E 58E0 7AA2/0DEE       00B20  6979  1                      VCALL GETCORE             We must get this
 000094 5010 6038            00050  6983  1                      ST    R1,CHRPTRAN
 000098 9680 6038      00050        6984  1                      OI    CHRPTRAN,X'80'
 00009C 9680 6048      00060        6985  1                      SET   KEYCFINIT
 0000A0 D703 6044 6044 0005C 0005C  6991  1                      CLEAR KEYDOMID
 0000A6                             6998                       END
                                    7002
 0000A6 9140 6048/4710_00060        7003                       IF    ~KEYCFOPEN,BEGIN
                                    7018  1           *
                                    7019  1           * Note: We load the Christa I/O module each time in case the code
                                    7020  1           *       changed. This is admittedly a very rare occurrence, but
                                    7021  1           *       it's easier to deal with updates by just shutting down
                                    7022  1           *       and restarting the Christa interface instead of taking
                                    7023  1           *       WYLBUR down.
                                    7024  1           *
 0000AE 0700/5810 703E_             7025  1                      LOAD  EP=CHRISIO,ERRET=CHLDERR  Obtain Christa entry point
 0000D0 5000 602C            00044  7035  1                      ST    R0,KEYSCHAD         Save address of Christa interface
                                    7036  1
 0000D4 5810 6038            00050  7037  1                      L     R1,CHRPTRAN         Point at area to build transaction
 USING  USINPRMS,R1                 7038  1                      USING USINPRMS,R1
 0000D8 5820 C25C            0025C  7047  1                      L     R2,CVCHRIS          Point at global Christa parms
 USING  CHRPARMS,R2                 7048  1                      USING CHRPARMS,R2
 0000DC D203 1000 7AA6 00000 00B24  7057  1                      MVC   USINID,=C'USIN'     Transaction type is INIT
 0000E2 D207 1004 2010 00004 00010  7058  1                      MVC   USINPATH,CHRUPATH   Copy path name and time-out
 0000E8 D203 100C 2018 0000C 00018  7059  1                      MVC   USINTOUT,CHRUTIME    into init transaction
                                    7060  1           *
                                    7061  1           *  Set up the parameter list for the call
                                    7062  1           *
 0000EE 4100 0000            00000  7063  1                      LA    R0,CHRFINIT
 0000F2 5000 603C            00054  7064  1                      ST    R0,KEYUFUNC
                                    7065  1
1KEYS     (KEYS2010) (12:47) (15MAR04) KEYOPEN -- Open the keyed file                                                       Page    9
0Current Usings:  (USINPRMS,R1) (CHRPARMS,R2) (KEYSTBL,R6) (*,R7) (CP,R11) (CV,R12)
0Loc    Object Code    Addr1 Addr2  Stmt Lv Lineno    Source Statement           (Hibal 5, Asmedit 3.3)  HLASM R4.0  2004/03/15 12.47
+___    ______ ____    _____ _____  ____ __ ______    ______ _________
00000F6 4110 6030            00048  7066  1                      LA    R1,CHRPLIST         Point at the parm list
 0000FA 58F0 602C            00044  7067  1                      L     R15,KEYSCHAD        Address of Christa interface
 0000FE 0CEF                        7068  1                      BASSM R14,R15             Call the initialization routine
 000100 50F0 6028            00040  7069  1                      ST    R15,KEYSLCDE        Save initialization return code
                                    7070  1
 000104 12FF/4770 70AA              7071  1                      IF    (R15,Z),BEGIN       If initialization was successful,
 00010A 9640 6048      00060        7085  2                        SET   KEYCFOPEN             flag user-id file as now open
 00010E D603 6044 6044_0005C 0005C  7091  2                        IF    (KEYDOMID,NZ),BEGIN Delete prior action message
 000118 5810 6044/4100_      0005C  7107  3                          DOM   MSG=KEYDOMID
 000122 D703 6044 6044 0005C 0005C  7111  3                          CLEAR KEYDOMID
 000128                             7118  2                        END
 000128                             7122  1                      END
 000128 70AE/47F0 7168 00128 00108  7126  1                      ELSE  BEGIN               Else, report error
 00012C D603 6044 6044_0005C 0005C  7137  2                        IF    (KEYDOMID,Z),BEGIN    but only once
 000136 4100 0008/4110_      00008  7153  3                          BTX   CPDOUB,8,(R15)
 000144 D207 727E BC88 002FC 00C88  7175  3                          MVC   MSG1RC(8),CPDOUB
 00014A 0700/4510 7142_             7176  3                          WTO   TEXT=MSG1DESC,MCSFLAG=BUSYEXIT,DESC=2
 0001D4 12FF/4770 7160              7214  3                          IF    (R15,Z),BEGIN
 0001DA 5010 6044            0005C  7228  4                            ST    R1,KEYDOMID         Delete this when successful
 0001DE                             7229  3                          END
 0001DE                             7233  2                        END
 0001DE 94DF C4C9      004C9        7237  2                        CLEAR CVFCHRUCPR          Turn off Christa path
 0001E2 58F0 7AAE            00B2C  7244  2                        L     R15,=F'-3'          Indicate open not successful
 0001E6                             7245  1                      END
                                    7249  1
 0001E6                             7250                       END
                                    7254
 0001E6 716C/47F0 716E 001E6 000AC  7255                       ELSE  BEGIN
 0001EA 1BFF                        7266  1                      CLEAR R15                 Christa already open
 0001EC                             7270                       END
                                    7274
 0001EC 50F0 6020            00038  7275                       ST    R15,KEYSCHRC        Save the Christa return code
 0001F0 47F0 724C            002CA  7276                       EXIT  KEYOPEN
                                    7279                  ¿þþþþþþþþþþþþþþþþþþþþþþþþþþþþþþþþþþþþþþþþþþþþþþþþþþþþþþþþþþþþÜ
                                    7280                  Ÿ  An error has occurred while LOADing the interface module  Ÿ
                                    7281                  Ÿ  and the LOAD macro will transfer here.                    Ÿ
                                    7282                  ¾þþþþþþþþþþþþþþþþþþþþþþþþþþþþþþþþþþþþþþþþþþþþþþþþþþþþþþþþþþþþ»
 0001F4                             7283              CHLDERR  DS    0H
 0001F4 D603 6044 6044_0005C 0005C  7284                       IF    (KEYDOMID,Z),BEGIN  Only WTO once
 0001FE 1821                        7300  1                      LR    R2,R1               Get ABEND code
 000200 4100 0008/4110_      00008  7301  1                      BTX   CPDOUB,8,(R15)
 00020E D207 72C7 BC88 00345 00C88  7323  1                      MVC   MSG2SYSC(8),CPDOUB
 000214 18F2                        7324  1                      LR    R15,R2              Get reason code
 000216 4100 0008/4110_      00008  7325  1                      BTX   CPDOUB,8,(R15)
 000224 D207 72DD BC88 0035B 00C88  7347  1                      MVC   MSG2RC(8),CPDOUB
 00022A 0700/4510 7222_             7348  1                      WTO   TEXT=MSG2DESC,MCSFLAG=BUSYEXIT,DESC=2
 0002B4 12FF/4770 7240              7386  1                      IF    (R15,Z),BEGIN
 0002BA 5010 6044            0005C  7400  2                        ST    R1,KEYDOMID         Delete this when successful
 0002BE                             7401  1                      END
 0002BE                             7405                       END
 0002BE 94DF C4C9      004C9        7409                       CLEAR CVFCHRUCPR          Turn off Christa path
 0002C2 58F0 7AAE            00B2C  7416                       L     R15,=F'-3'          Set error return
 0002C6 50F0 6020            00038  7417                       ST    R15,KEYSCHRC        Save the Christa return code
                                    7418
1KEYS     (KEYS2010) (12:47) (15MAR04) KEYOPEN -- Open the keyed file                                                       Page   10
0Current Usings:  (USINPRMS,R1) (CHRPARMS,R2) (CP,R11) (CV,R12)
0Loc    Object Code    Addr1 Addr2  Stmt Lv Lineno    Source Statement           (Hibal 5, Asmedit 3.3)  HLASM R4.0  2004/03/15 12.47
+___    ______ ____    _____ _____  ____ __ ______    ______ _________
00002CA 18D8/9808 D004_             7419                       PEND
 DROP   KEYSTBL,R6
 DROP   *,R7
 0002D8 003F                        7444              MSG1DESC DC    AL2(MSG1END-MSG1)
 0002DA E4A2859940898440            7445              MSG1     DC    C'User id interface init failed (RC='
 0002FC F0F0F0F0F0F0F0F0            7446              MSG1RC   DC    C'00000000).'
 000306 40C38885839240C3            7447                       DC    C' Check CHRISTA job.'
                                    7448              MSG1END  EQU   *
                                    7449
 000319 005D                        7450              MSG2DESC DC    AL2(MSG2END-MSG2)
 00031B E4A2859940898440            7451              MSG2     DC    C'User id interface LOAD failed '
 000339 4DC1C2C5D5C44083            7452                       DC    C'(ABEND code '
 000345 F0F0F0F0F0F0F0F0            7453              MSG2SYSC DC    C'00000000, reason code '
 00035B F0F0F0F0F0F0F0F0            7454              MSG2RC   DC    C'00000000).'
 000365 40C38885839240C3            7455                       DC    C' Check CHRISTA job.'
                                    7456              MSG2END  EQU   *
1KEYS     (KEYS2010) (12:47) (15MAR04) KEYCLOSE -- Close the Christa UserID file                                            Page   11
0Current Usings:  (USINPRMS,R1) (CHRPARMS,R2) (CP,R11) (CV,R12)
0Loc    Object Code    Addr1 Addr2  Stmt Lv Lineno    Source Statement           (Hibal 5, Asmedit 3.3)  HLASM R4.0  2004/03/15 12.47
+___    ______ ____    _____ _____  ____ __ ______    ______ _________
0                                   7459              ¿þþþþþþþþþþþþþþþþþþþþþþþþþþþþþþþþþþþþþþþþþþþþþþþþþþþþþþþþþþþþþþþþþþþþþÜ
                                    7460              Ÿ                                                                     Ÿ
                                    7461              Ÿ  KEYCLOSE -- Routine to close the master keyed file.                Ÿ
                                    7462              Ÿ                                                                     Ÿ
                                    7463              Ÿ    This routine is called by termination.                           Ÿ
                                    7464              Ÿ                                                                     Ÿ
                                    7465              Ÿ    (Well, actually it isn't yet.  The above comment was copied      Ÿ
                                    7466              Ÿ    from the existing close code, which also was never called        Ÿ
                                    7467              Ÿ    during termination.  But it is called when the Christa           Ÿ
                                    7468              Ÿ    UserID path is turned off (SET CHRISUID CHRISTA OFF),            Ÿ
                                    7469              Ÿ    and a call to it during termination should be added.)            Ÿ
                                    7470              Ÿ                                                                     Ÿ
                                                      ¾þþþþþþþþþþþþþþþþþþþþþþþþþþþþþþþþþþþþþþþþþþþþþþþþþþþþþþþþþþþþþþþþþþþþþ»
0000378 50E0 D000/9008_      00000  7471              KEYCLOSE PROC  ,
 USING  *,R7
 000392 5860 7786            00B18  7510                       L     R6,=A(KEYSTBL)      Estab base for KEYS global info
 USING  KEYSTBL,R6                  7511                       WITH  (KEYSTBL,R6)
-                                   7525                  ¿þþþþþþþþþþþþþþþþþþþþþþþþþþþþþþþþþþþþþþþþþþþþþþþþþþþþþþþþþþþþþÜ
                                    7526                  Ÿ  Terminate user-id processing using the Christa interface.  Ÿ
                                    7527                  ¾þþþþþþþþþþþþþþþþþþþþþþþþþþþþþþþþþþþþþþþþþþþþþþþþþþþþþþþþþþþþþ»
 000396 94DF C4C9      004C9        7528                       CLEAR CVFCHRUCPR          Turn off Christa path
 00039A 9140 6048/47E0_00060        7535                       IF    ~KEYCFOPEN,EXIT     Close only if currently open
 0003A2 94BF 6048      00060        7553                       CLEAR KEYCFOPEN           Clear Christa flags
                                    7560
 0003A6 4100 0008            00008  7561                       LA    R0,CHRFCLOS
 0003AA 5000 603C            00054  7562                       ST    R0,KEYUFUNC
                                    7563
 0003AE 4110 6030            00048  7564                       LA    R1,CHRPLIST         Point at the parm list
 0003B2 58F0 602C            00044  7565                       L     R15,KEYSCHAD        Get address of interface routine
 0003B6 0CEF                        7566                       BASSM R14,R15             Go do the termination
                                    7567
 0003B8 4500 7032/C3C8_      003C4  7568                       DELETE EP=CHRISIO         Delete Christa load module
 0003C6 D703 602C 602C 00044 00044  7572                       CLEAR KEYSCHAD             and the address
                                    7579
 0003CC 18D8/9808 D004_             7580                       PEND
 DROP   KEYSTBL,R6
 DROP   *,R7
1KEYS     (KEYS2010) (12:47) (15MAR04) KEYGET -- Get a keyed record                                                         Page   12
0Current Usings:  (USINPRMS,R1) (CHRPARMS,R2) (CP,R11) (CV,R12)
0Loc    Object Code    Addr1 Addr2  Stmt Lv Lineno    Source Statement           (Hibal 5, Asmedit 3.3)  HLASM R4.0  2004/03/15 12.47
+___    ______ ____    _____ _____  ____ __ ______    ______ _________
0                                   7606              ¿þþþþþþþþþþþþþþþþþþþþþþþþþþþþþþþþþþþþþþþþþþþþþþþþþþþþþþþþþþþþþþþþþþþþþÜ
                                    7607              Ÿ                                                                     Ÿ
                                    7608              Ÿ  KEYGET -- Routine to get a record's data given the key.            Ÿ
                                    7609              Ÿ                                                                     Ÿ
                                    7610              Ÿ    On entry:                                                        Ÿ
                                    7611              Ÿ      R1,R0 - Point to transaction data to be sent to                Ÿ
                                    7612              Ÿ              Christa                                                Ÿ
                                    7613              Ÿ      R2,R3 - Point to transaction data return area                  Ÿ
                                    7614              Ÿ      R4    - Indicates which file:                                  Ÿ
                                    7615              Ÿ              'U' = USERID file                                      Ÿ
                                    7616              Ÿ              'K' = KLOGIN file                                      Ÿ
                                    7617              Ÿ                                                                     Ÿ
                                    7618              Ÿ    On exit, R15 (and cc):                                           Ÿ
                                    7619              Ÿ       -3 - keys file not available                                  Ÿ
                                    7620              Ÿ       -2 - record error (invalid data in keys file)                 Ÿ
                                    7621              Ÿ       -1 - I/O error                                                Ÿ
                                    7622              Ÿ        0 - record found:                                            Ÿ
                                    7623              Ÿ               R0 = actual data length (which might not              Ÿ
                                    7624              Ÿ                    be the same size as the return area              Ÿ
                                    7625              Ÿ                    if larger, than data was truncated).             Ÿ
                                    7626              Ÿ               R1 = return area address                              Ÿ
                                    7627              Ÿ        1 - record not found                                         Ÿ
                                    7628              Ÿ                                                                     Ÿ
                                                      ¾þþþþþþþþþþþþþþþþþþþþþþþþþþþþþþþþþþþþþþþþþþþþþþþþþþþþþþþþþþþþþþþþþþþþþ»
00003DA 50E0 D000/9008_      00000  7629              KEYGET   XPROC
 USING  *,R7
 0003F4 5860 7724            00B18  7669                       L     R6,=A(KEYSTBL)      Estab base for KEYS global info
 USING  KEYSTBL,R6                  7670                       WITH  (KEYSTBL,R6)
                                    7683
 0003F8 9180 6049/47E0_00061        7684                       IF    (KEYFUCPR,AND,~KEYCFOPEN),BEGIN  Try to get it open
 000408 58E0 773C/0DEE       00B30  7713  1                      ACALL KEYOPEN
 00040E                             7717                       END
                                    7721
 00040E 9140 6048/47E0_00060        7722                       IF    KEYCFOPEN,BEGIN
 000416 9108 B8AA/4710_008AA        7737  1                      IF    ~CPRFKEYS,'ACALL KRSCGET' Get excl cntrl of interface
                                    7761  1
 000424 4240 604A            00062  7762  1                      STC   R4,KEYFILE          Save file code
 000428 1843                        7763  1                      LR    R4,R3               Save return data ptr
 00042A 1852                        7764  1                      LR    R5,R2               ...and length
                                    7765  1
 00042C 41F0 0001/5EF0_      00001  7766  1                      INCR  R15,KEYCNIO         Incr total interface call count
 000438 41F0 0001/5EF0_      00001  7772  1                      INCR  R15,KEYCNRD         Incr GET call count
                                    7778  1
 000444 58E0 6038            00050  7779  1                      L     R14,CHRPTRAN        Move the caller's transaction
 USING  USRREQ,R14                  7780  1                      USING USRREQ,R14
 000448 41E0 E030            00030  7789  1                      LA    R14,REQDATA
 00044C 1821                        7790  1                      LR    R2,R1
 00044E 5900 7744/47D0_      00B38  7791  1                      CEIL  R0,KEYSTMXL
 00045A 1830                        7810  1                      LR    R3,R0
 00045C 18F0                        7811  1                      LR    R15,R0
 00045E 0EE2                        7812  1                      MVCL  R14,R2
 000460 4120 0000            00000  7813  1                      LA    R2,RQTREAD          It's a read request
 000464 58E0 7748/0DEE       00B3C  7814  1                      ACALL CHRISIO             Send request to subsystem
1KEYS     (KEYS2010) (12:47) (15MAR04) KEYGET -- Get a keyed record                                                         Page   13
0Current Usings:  (USINPRMS,R1) (CHRPARMS,R2) (KEYSTBL,R6) (*,R7) (CP,R11) (CV,R12) (USRREQ,R14)
0Loc    Object Code    Addr1 Addr2  Stmt Lv Lineno    Source Statement           (Hibal 5, Asmedit 3.3)  HLASM R4.0  2004/03/15 12.47
+___    ______ ____    _____ _____  ____ __ ______    ______ _________
0                                   7818  1
 00046A 12FF/4770 70A2              7819  1                      IF    (R15,Z),BEGIN       Move data to caller's area
 000470 58E0 6038            00050  7833  2                        L     R14,CHRPTRAN        Point at return transaction
 000474 58F0 E004            00004  7834  2                        L     R15,REQLEN          Get return length
 000478 5BF0 774C            00B40  7835  2                        S     R15,=A(L'USRHDR)      minus the header
 00047C 183F                        7836  2                        LR    R3,R15              Save actual length for later
 00047E 19F5/47D0 7092_             7837  2                        CEIL  R15,R5
 000486 1804                        7843  2                        LR    R0,R4
 000488 41E0 E030            00030  7844  2                        LA    R14,REQDATA
 00048C 181F                        7845  2                        LR    R1,R15
 00048E 0E0E                        7846  2                        MVCL  R0,R14
 000490 1BFF                        7847  2                        SR    R15,R15             Restore zero return code
 000492 1803                        7848  2                        LR    R0,R3               Get actual length
 000494 1814                        7849  2                        LR    R1,R4                and return buffer address
 000496                             7850  1                      END
                                    7854  1
 000496                             7855                       END
 000496 70A6/47F0 70AE 00496 00414  7859                       ELSE  BEGIN
 00049A 58F0 7738            00B2C  7870  1                      L     R15,=F'-3'          Indicate Christa not available
 00049E 1B00                        7871  1                      CLEAR R0
 0004A0 1814                        7875  1                      LR    R1,R4
 0004A2                             7876                       END
                                    7880
 0004A2 50F0 6020            00038  7881                       ST    R15,KEYSCHRC        Save Christa rc for debugging
 0004A6 9001 8004            00004  7882                       PRETURN (R0,R1)
 DROP   USRREQ,R14                  7884                       DROP  R14
 0004AA 9108 B8AA/47E0_008AA        7891                       IF    CPRFKEYS,'ACALL KRSCFREE'
 0004B8 58F0 6020/12FF       00038  7915                       LT    R15,KEYSCHRC
 0004BE 18D8/9808 D004_             7919                       PEND
 DROP   KEYSTBL,R6
 DROP   *,R7
1KEYS     (KEYS2010) (12:47) (15MAR04) KEYPUT -- Routine to replace a keyed record                                          Page   14
0Current Usings:  (USINPRMS,R1) (CHRPARMS,R2) (CP,R11) (CV,R12)
0Loc    Object Code    Addr1 Addr2  Stmt Lv Lineno    Source Statement           (Hibal 5, Asmedit 3.3)  HLASM R4.0  2004/03/15 12.47
+___    ______ ____    _____ _____  ____ __ ______    ______ _________
0                                   7945              ¿þþþþþþþþþþþþþþþþþþþþþþþþþþþþþþþþþþþþþþþþþþþþþþþþþþþþþþþþþþþþþþþþþþþþþÜ
                                    7946              Ÿ                                                                     Ÿ
                                    7947              Ÿ  KEYPUT -- Routine to replace an existing record given              Ÿ
                                    7948              Ÿ    the key.                                                         Ÿ
                                    7949              Ÿ                                                                     Ÿ
                                    7950              Ÿ    On entry:                                                        Ÿ
                                    7951              Ÿ      R1,R0 - Point to transaction data to be sent to                Ÿ
                                    7952              Ÿ              Christa                                                Ÿ
                                    7953              Ÿ      R2    - Indicates which file:                                  Ÿ
                                    7954              Ÿ              'U' = USERID file                                      Ÿ
                                    7955              Ÿ              'K' = KLOGIN file                                      Ÿ
                                    7956              Ÿ                                                                     Ÿ
                                    7957              Ÿ    On exit, R15 (and cc):                                           Ÿ
                                    7958              Ÿ      -3 - keys file not available                                   Ÿ
                                    7959              Ÿ      -2 - record error (invalid data in keys file)                  Ÿ
                                    7960              Ÿ      -1 - I/O error                                                 Ÿ
                                    7961              Ÿ       0 - record updated                                            Ÿ
                                    7962              Ÿ       1 - record not found                                          Ÿ
                                    7963              Ÿ       2 - record not updated; try again (update count mismatch)     Ÿ
                                    7964              Ÿ                                                                     Ÿ
                                                      ¾þþþþþþþþþþþþþþþþþþþþþþþþþþþþþþþþþþþþþþþþþþþþþþþþþþþþþþþþþþþþþþþþþþþþþ»
00004CC 50E0 D000/9008_      00000  7965              KEYPUT   XPROC
 USING  *,R7
 0004E6 5860 7632            00B18  8005                       L     R6,=A(KEYSTBL)      Estab base for KEYS global info
 USING  KEYSTBL,R6                  8006                       WITH  (KEYSTBL,R6)
                                    8019
 0004EA 1841                        8020                       LR    R4,R1               Save input data ptr
 0004EC 1850                        8021                       LR    R5,R0               ...and length
                                    8022
 0004EE 9180 6049/47E0_00061        8023                       IF    (KEYFUCPR,AND,~KEYCFOPEN),BEGIN  Try to get it open
 0004FE 58E0 764A/0DEE       00B30  8052  1                      ACALL KEYOPEN
 000504                             8056                       END
                                    8060
 000504 9140 6048/47E0_00060        8061                       IF    KEYCFOPEN,BEGIN
 00050C 9108 B8AA/4710_008AA        8076  1                      IF    ~CPRFKEYS,'ACALL KRSCGET'  Get exclusive control
                                    8100  1
 00051A 4220 604A            00062  8101  1                      STC   R2,KEYFILE          Save file indicator
                                    8102  1
 00051E 41F0 0001/5EF0_      00001  8103  1                      INCR  R15,KEYCNIO         Kick I/O count
 00052A 41F0 0001/5EF0_      00001  8109  1                      INCR  R15,KEYCNWR         Number of writes
                                    8115  1
 000536 58E0 6038            00050  8116  1                      L     R14,CHRPTRAN        Move the caller's transaction
 USING  USRREQ,R14                  8117  1                      USING USRREQ,R14
 00053A 41E0 E030            00030  8126  1                      LA    R14,REQDATA
 00053E 1821                        8127  1                      LR    R2,R1
 000540 5900 7652/47D0_      00B38  8128  1                      CEIL  R0,KEYSTMXL
 00054C 1830                        8147  1                      LR    R3,R0
 00054E 18F0                        8148  1                      LR    R15,R0
 000550 0EE2                        8149  1                      MVCL  R14,R2
 000552 4120 0008            00008  8150  1                      LA    R2,RQTUPD
 000556 58E0 7656/0DEE       00B3C  8151  1                      ACALL CHRISIO             Send request to subsystem
 00055C                             8155                       END
 00055C 707A/47F0 707E 0055C 0050A  8159                       ELSE  BEGIN
1KEYS     (KEYS2010) (12:47) (15MAR04) KEYPUT -- Routine to replace a keyed record                                          Page   15
0Current Usings:  (USINPRMS,R1) (CHRPARMS,R2) (KEYSTBL,R6) (*,R7) (CP,R11) (CV,R12) (USRREQ,R14)
0Loc    Object Code    Addr1 Addr2  Stmt Lv Lineno    Source Statement           (Hibal 5, Asmedit 3.3)  HLASM R4.0  2004/03/15 12.47
+___    ______ ____    _____ _____  ____ __ ______    ______ _________
0000560 58F0 7646            00B2C  8170  1                      L     R15,=F'-3'          Christa not available
 000564                             8171                       END
                                    8175
 000564 50F0 6020            00038  8176                       ST    R15,KEYSCHRC        Save Christa rc for debugging
 000568 9108 B8AA/47E0_008AA        8177                       IF    CPRFKEYS,'ACALL KRSCFREE'  Free exclusive control
 000576 58F0 6020/12FF       00038  8201                       LT    R15,KEYSCHRC        Set rc based on R15 (caller looks)
 00057C 18D8/9808 D004_             8205                       PEND
 DROP   KEYSTBL,R6
 DROP   *,R7
1KEYS     (KEYS2010) (12:47) (15MAR04) KEYADD -- Add a new keyed record                                                     Page   16
0Current Usings:  (USINPRMS,R1) (CHRPARMS,R2) (CP,R11) (CV,R12) (USRREQ,R14)
0Loc    Object Code    Addr1 Addr2  Stmt Lv Lineno    Source Statement           (Hibal 5, Asmedit 3.3)  HLASM R4.0  2004/03/15 12.47
+___    ______ ____    _____ _____  ____ __ ______    ______ _________
0                                   8231              ¿þþþþþþþþþþþþþþþþþþþþþþþþþþþþþþþþþþþþþþþþþþþþþþþþþþþþþþþþþþþþþþþþþþþþþÜ
                                    8232              Ÿ                                                                     Ÿ
                                    8233              Ÿ  KEYADD -- Routine to add a new keyed record.                       Ÿ
                                    8234              Ÿ                                                                     Ÿ
                                    8235              Ÿ    On entry:                                                        Ÿ
                                    8236              Ÿ      R1,R0 - Point to transaction data to be sent to                Ÿ
                                    8237              Ÿ              Christa                                                Ÿ
                                    8238              Ÿ      R2    - Indicates which file:                                  Ÿ
                                    8239              Ÿ              'U' = USERID file                                      Ÿ
                                    8240              Ÿ              'K' = KLOGIN file                                      Ÿ
                                    8241              Ÿ                                                                     Ÿ
                                    8242              Ÿ    On exit, R15 (and cc):                                           Ÿ
                                    8243              Ÿ      -3 - keys file not available                                   Ÿ
                                    8244              Ÿ      -2 - record error (invalid data in keys file)                  Ÿ
                                    8245              Ÿ      -1 - I/O error                                                 Ÿ
                                    8246              Ÿ       0 - record added                                              Ÿ
                                    8247              Ÿ       3 - record already exists                                     Ÿ
                                    8248              Ÿ       4 - no more room in master file                               Ÿ
                                    8249              Ÿ                                                                     Ÿ
                                                      ¾þþþþþþþþþþþþþþþþþþþþþþþþþþþþþþþþþþþþþþþþþþþþþþþþþþþþþþþþþþþþþþþþþþþþþ»
000058A 50E0 D000/9008_      00000  8250              KEYADD   XPROC
 USING  *,R7
 0005A4 5860 7574            00B18  8290                       L     R6,=A(KEYSTBL)      Estab base for KEYS global info
 USING  KEYSTBL,R6                  8291                       WITH  (KEYSTBL,R6)
                                    8304
 0005A8 1841                        8305                       LR    R4,R1               Save new data ptr
 0005AA 1850                        8306                       LR    R5,R0               ...and length
                                    8307
 0005AC 9180 6049/47E0_00061        8308                       IF    (KEYFUCPR,AND,~KEYCFOPEN),BEGIN  Try to get it open
 0005BC 58E0 758C/0DEE       00B30  8337  1                      ACALL KEYOPEN
 0005C2                             8341                       END
                                    8345
 0005C2 9140 6048/47E0_00060        8346                       IF    KEYCFOPEN,BEGIN
 0005CA 9108 B8AA/4710_008AA        8361  1                      IF    ~CPRFKEYS,'ACALL KRSCGET' Get excl cntrl of interface
                                    8385  1
 0005D8 4220 604A            00062  8386  1                      STC   R2,KEYFILE          Save file indicator
                                    8387  1
 0005DC 41F0 0001/5EF0_      00001  8388  1                      INCR  R15,KEYCNIO         Incr total interface call count
 0005E8 41F0 0001/5EF0_      00001  8394  1                      INCR  R15,KEYCNADD        Incr ADD call count
                                    8400  1
 0005F4 58E0 6038            00050  8401  1                      L     R14,CHRPTRAN        Move the caller's transaction
                                    8402  1                      USING USRREQ,R14
 0005F8 41E0 E030            00030  8404  1                      LA    R14,REQDATA
 0005FC 1821                        8405  1                      LR    R2,R1
 0005FE 5900 7594/47D0_      00B38  8406  1                      CEIL  R0,KEYSTMXL
 00060A 1830                        8425  1                      LR    R3,R0
 00060C 18F0                        8426  1                      LR    R15,R0
 00060E 0EE2                        8427  1                      MVCL  R14,R2
 000610 4120 0004            00004  8428  1                      LA    R2,RQTADD
 000614 58E0 7598/0DEE       00B3C  8429  1                      ACALL CHRISIO             Send request to subsystem
 00061A                             8433                       END
 00061A 707A/47F0 707E 0061A 005C8  8437                       ELSE  BEGIN
 00061E 58F0 7588            00B2C  8448  1                      L     R15,=F'-3'          Christa not available
1KEYS     (KEYS2010) (12:47) (15MAR04) KEYADD -- Add a new keyed record                                                     Page   17
0Current Usings:  (USINPRMS,R1) (CHRPARMS,R2) (KEYSTBL,R6) (*,R7) (CP,R11) (CV,R12) (USRREQ,R14)
0Loc    Object Code    Addr1 Addr2  Stmt Lv Lineno    Source Statement           (Hibal 5, Asmedit 3.3)  HLASM R4.0  2004/03/15 12.47
+___    ______ ____    _____ _____  ____ __ ______    ______ _________
0000622                             8449                       END
                                    8453
 000622 50F0 6020            00038  8454                       ST    R15,KEYSCHRC        Save Christa rc for debugging
 000626 9108 B8AA/47E0_008AA        8455                       IF    CPRFKEYS,'ACALL KRSCFREE'
 000634 58F0 6020/12FF       00038  8479                       LT    R15,KEYSCHRC        Set RC based on R15 (caller looks)
 00063A 18D8/9808 D004_             8483                       PEND
 DROP   KEYSTBL,R6
 DROP   *,R7
1KEYS     (KEYS2010) (12:47) (15MAR04) KEYDEL -- Delete a keyed record                                                      Page   18
0Current Usings:  (USINPRMS,R1) (CHRPARMS,R2) (CP,R11) (CV,R12) (USRREQ,R14)
0Loc    Object Code    Addr1 Addr2  Stmt Lv Lineno    Source Statement           (Hibal 5, Asmedit 3.3)  HLASM R4.0  2004/03/15 12.47
+___    ______ ____    _____ _____  ____ __ ______    ______ _________
0                                   8509              ¿þþþþþþþþþþþþþþþþþþþþþþþþþþþþþþþþþþþþþþþþþþþþþþþþþþþþþþþþþþþþþþþþþþþþþÜ
                                    8510              Ÿ                                                                     Ÿ
                                    8511              Ÿ  KEYDEL -- Routine to delete a keyed record.                        Ÿ
                                    8512              Ÿ                                                                     Ÿ
                                    8513              Ÿ    On entry:                                                        Ÿ
                                    8514              Ÿ      R1,R0 - Point to transaction data to be sent to                Ÿ
                                    8515              Ÿ              Christa                                                Ÿ
                                    8516              Ÿ      R2    - Indicates which file:                                  Ÿ
                                    8517              Ÿ              'U' = USERID file                                      Ÿ
                                    8518              Ÿ              'K' = KLOGIN file                                      Ÿ
                                    8519              Ÿ                                                                     Ÿ
                                    8520              Ÿ    On exit, R15 (and cc):                                           Ÿ
                                    8521              Ÿ      -3 - keys file not available                                   Ÿ
                                    8522              Ÿ      -2 - record error (invalid data in keys file)                  Ÿ
                                    8523              Ÿ      -1 - I/O error                                                 Ÿ
                                    8524              Ÿ       0 - record deleted                                            Ÿ
                                    8525              Ÿ       1 - record not found                                          Ÿ
                                    8526              Ÿ                                                                     Ÿ
                                                      ¾þþþþþþþþþþþþþþþþþþþþþþþþþþþþþþþþþþþþþþþþþþþþþþþþþþþþþþþþþþþþþþþþþþþþþ»
0000648 50E0 D000/9008_      00000  8527              KEYDEL   XPROC
 USING  *,R7
 000662 5860 74B6            00B18  8567                       L     R6,=A(KEYSTBL)      Estab base for KEYS global info
 USING  KEYSTBL,R6                  8568                       WITH  (KEYSTBL,R6)
                                    8581
 000666 9180 6049/47E0_00061        8582                       IF    (KEYFUCPR,AND,~KEYCFOPEN),BEGIN  Try to get it open
 000676 58E0 74CE/0DEE       00B30  8611  1                      ACALL KEYOPEN
 00067C                             8615                       END
                                    8619
 00067C 9140 6048/47E0_00060        8620                       IF    KEYCFOPEN,BEGIN
 000684 9108 B8AA/4710_008AA        8635  1                      IF    ~CPRFKEYS,'ACALL KRSCGET' Get excl cntrl of interface
                                    8659  1
 000692 4220 604A            00062  8660  1                      STC   R2,KEYFILE          Save file indicator
                                    8661  1
 000696 41F0 0001/5EF0_      00001  8662  1                      INCR  R15,KEYCNIO         Incr total interface call count
 0006A2 41F0 0001/5EF0_      00001  8668  1                      INCR  R15,KEYCNDEL        Incr DEL call count
                                    8674  1
 0006AE 58E0 6038            00050  8675  1                      L     R14,CHRPTRAN        Move the caller's transaction
                                    8676  1                      USING USRREQ,R14
 0006B2 41E0 E030            00030  8678  1                      LA    R14,REQDATA
 DROP   USRREQ,R14                  8679  1                      DROP  R14
 0006B6 1821                        8686  1                      LR    R2,R1
 0006B8 5900 74D6/47D0_      00B38  8687  1                      CEIL  R0,KEYSTMXL
 0006C4 1830                        8706  1                      LR    R3,R0
 0006C6 18F0                        8707  1                      LR    R15,R0
 0006C8 0EE2                        8708  1                      MVCL  R14,R2
                                    8709  1
 0006CA 4120 000C            0000C  8710  1                      LA    R2,RQTDEL
 0006CE 58E0 74DA/0DEE       00B3C  8711  1                      ACALL CHRISIO             Send request to subsystem
 0006D4                             8715                       END
 0006D4 7076/47F0 707A 006D4 00682  8719                       ELSE  BEGIN
 0006D8 58F0 74CA            00B2C  8730  1                      L     R15,=F'-3'          Christa not available
 0006DC                             8731                       END
                                    8735
1KEYS     (KEYS2010) (12:47) (15MAR04) KEYDEL -- Delete a keyed record                                                      Page   19
0Current Usings:  (USINPRMS,R1) (CHRPARMS,R2) (KEYSTBL,R6) (*,R7) (CP,R11) (CV,R12)
0Loc    Object Code    Addr1 Addr2  Stmt Lv Lineno    Source Statement           (Hibal 5, Asmedit 3.3)  HLASM R4.0  2004/03/15 12.47
+___    ______ ____    _____ _____  ____ __ ______    ______ _________
00006DC 50F0 6020            00038  8736                       ST    R15,KEYSCHRC        Save Christa rc for debugging
 0006E0 9108 B8AA/47E0_008AA        8737                       IF    CPRFKEYS,'ACALL KRSCFREE'
 0006EE 58F0 6020/12FF       00038  8761                       LT    R15,KEYSCHRC        Set rc based on R15 (caller looks)
 0006F4 18D8/9808 D004_             8765                       PEND
 DROP   KEYSTBL,R6
 DROP   *,R7
1KEYS     (KEYS2010) (12:47) (15MAR04) KEYINFO -- Display KEYS counters                                                     Page   20
0Current Usings:  (USINPRMS,R1) (CHRPARMS,R2) (CP,R11) (CV,R12)
0Loc    Object Code    Addr1 Addr2  Stmt Lv Lineno    Source Statement           (Hibal 5, Asmedit 3.3)  HLASM R4.0  2004/03/15 12.47
+___    ______ ____    _____ _____  ____ __ ______    ______ _________
0                                   8791              ¿þþþþþþþþþþþþþþþþþþþþþþþþþþþþþþþþþþþþþþþþþþþþþþþþþþþþþþþþþþþþþþþþþþþþþÜ
                                    8792              Ÿ                                                                     Ÿ
                                    8793              Ÿ  SHOWKINF -- SHOW KINFO Command.                                    Ÿ
                                    8794              Ÿ                                                                     Ÿ
                                                      ¾þþþþþþþþþþþþþþþþþþþþþþþþþþþþþþþþþþþþþþþþþþþþþþþþþþþþþþþþþþþþþþþþþþþþþ»
0000702 50E0 D000/9008_      00000  8795              SHOWKINF XPROC
 USING  *,R7
 00071C 58E0 742C/0DEE       00B48  8835                       VCALL COLLOPTS
                                    8839
 000722 5860 73FC            00B18  8840                       L     R6,=A(KEYSTBL)      Estab base for KEYS global info
 USING  KEYSTBL,R6                  8841                       WITH  (KEYSTBL,R6)
                                    8854                       ¿þþþþþþþþþþþþþþþþþþþþþþþþþþþþþÜ
                                    8855                       Ÿ  General keys information.  Ÿ
                                    8856                       ¾þþþþþþþþþþþþþþþþþþþþþþþþþþþþþ»
 000726 4110 748A/4100_      00BA6  8857                       TSEG  'Keys information:',,CR
 000738 1B00/41F0 B050_             8875                       TCR
                                    8900
 000744 4100 0002/41F0_      00002  8901                       TCOL  2
 000752 5810 6008/1B00_      00020  8922                       TNUM  L:KEYCNIO
 000762 4110 73EC/4100_      00B08  8944                       TSEG  '  Total requests',,CR
                                    8962
 000774 4100 0002/41F0_      00002  8963                       TCOL  2
 000782 5810 600C/1B00_      00024  8984                       TNUM  L:KEYCNRD
 000792 4110 7478/4100_      00B94  9006                       TSEG  '  GETs',,CR
                                    9024
 0007A4 4100 0002/41F0_      00002  9025                       TCOL  2
 0007B2 5810 6010/1B00_      00028  9046                       TNUM  L:KEYCNWR
 0007C2 4110 747E/4100_      00B9A  9068                       TSEG  '  PUTs',,CR
                                    9086
 0007D4 4100 0002/41F0_      00002  9087                       TCOL  2
 0007E2 5810 6014/1B00_      0002C  9108                       TNUM  L:KEYCNADD
 0007F2 4110 7484/4100_      00BA0  9130                       TSEG  '  ADDs',,CR
                                    9148
 000804 4100 0002/41F0_      00002  9149                       TCOL  2
 000812 5810 6018/1B00_      00030  9170                       TNUM  L:KEYCNDEL
 000822 4110 749B/4100_      00BB7  9192                       TSEG  '  DELETEs',,CR
 000834 1B00/41F0 B050_             9210                       TCR
                                    9235
 000840 4110 74A4/4100_      00BC0  9236                       TSEG  ' Last SEND return code was '
 000852 5810 6028/1B00_      00040  9254                       TNUM  L:KEYSLCDE
 000862 1B00/41F0 B050_             9276                       TCR
                                    9301
 00086E 4110 74BF/4100_      00BDB  9302                       TSEG  ' Last VSAM return code was '
 000880 5810 6024/1B00_      0003C  9320                       TNUM  L:KEYSTCDE
 000890 1B00/41F0 B050_             9342                       TCR
                                    9367
 00089C 4110 74DA/4100_      00BF6  9368                       TSEG  ' Last function return code was '
 0008AE 5810 6020/1B00_      00038  9386                       TNUM  L:KEYSCHRC
 0008BE 4110 74F9/4100_      00C15  9408                       TSEG  ' for function code '
 0008D0 5810 603C/1B00_      00054  9426                       TNUM  L:KEYUFUNC
 0008E0 1B00/41F0 B050_             9448                       TCR
 0008EC 1B00/41F0 B050_             9473                       TCR
 0008F8 47F0 C7DE            007DE  9498                       B     CVNEXT
1KEYS     (KEYS2010) (12:47) (15MAR04) KEYINFO -- Display KEYS counters                                                     Page   21
0Current Usings:  (USINPRMS,R1) (CHRPARMS,R2) (CP,R11) (CV,R12)
0Loc    Object Code    Addr1 Addr2  Stmt Lv Lineno    Source Statement           (Hibal 5, Asmedit 3.3)  HLASM R4.0  2004/03/15 12.47
+___    ______ ____    _____ _____  ____ __ ______    ______ _________
00008FC 18D8/9808 D004_             9499                       PEND
 DROP   KEYSTBL,R6
 DROP   *,R7
1KEYS     (KEYS2010) (12:47) (15MAR04) Subroutines                                                                          Page   22
0Current Usings:  (USINPRMS,R1) (CHRPARMS,R2) (CP,R11) (CV,R12)
0Loc    Object Code    Addr1 Addr2  Stmt Lv Lineno    Source Statement           (Hibal 5, Asmedit 3.3)  HLASM R4.0  2004/03/15 12.47
+___    ______ ____    _____ _____  ____ __ ______    ______ _________
0                                   9525              ¿þþþþþþþþþþþþþþþþþþþþþþþþþþþþþþþþþþþþþþþþþþþþþþþþþþþþþþþþþþþþþþþþþþþþþÜ
                                    9526              Ÿ                                                                     Ÿ
                                    9527              Ÿ  KRSCGET -- Routine to get exclusive control of the keys resource.  Ÿ
                                    9528              Ÿ    If another user already has it, this user will wait.             Ÿ
                                    9529              Ÿ                                                                     Ÿ
                                    9530              Ÿ    Entry/exit:                                                      Ÿ
                                    9531              Ÿ      R15,R0,R1 -- unchanged                                         Ÿ
                                    9532              Ÿ                                                                     Ÿ
                                    9533              Ÿ  Note:  The caller must call KRSCFREE to free the exclusive         Ÿ
                                    9534              Ÿ         control.                                                    Ÿ
                                    9535              Ÿ                                                                     Ÿ
                                                      ¾þþþþþþþþþþþþþþþþþþþþþþþþþþþþþþþþþþþþþþþþþþþþþþþþþþþþþþþþþþþþþþþþþþþþþ»
000090A 50E0 D000/90F8_      00000  9536              KRSCGET  PROC  (R15,LSR)
 USING  *,R7
 000924 9108 B8AA/47E0_008AA        9575                       FAIL  CPRFKEYS,KEYSERR1,'Keys resource error.'
                                    9602
 000944 9608 B8AA      008AA        9603                       SET   CPRFKEYS            Keys resource in use
 000948 4110 0008/1B00_      00008  9609                       GETRSC KEY,ATTN=NO        Get exclusive control
 00095A 4780 7052/900F_      00976  9627                       FAIL  NZ,KEYSERR2,'Keys resource error.'
 000976 18D8/98F8 D004_             9650                       PEND
 DROP   *,R7
-                                   9671              ¿þþþþþþþþþþþþþþþþþþþþþþþþþþþþþþþþþþþþþþþþþþþþþþþþþþþþþþþþþþþþþþþþþþþþþÜ
                                    9672              Ÿ                                                                     Ÿ
                                    9673              Ÿ  KRSCFREE -- Routine to free exclusive control of the keys          Ÿ
                                    9674              Ÿ    resource.  (Can be called from the command processor if a        Ÿ
                                    9675              Ÿ    routine should fail to release the resource at the end of the    Ÿ
                                    9676              Ÿ    command.)                                                        Ÿ
                                    9677              Ÿ                                                                     Ÿ
                                    9678              Ÿ    Entry/exit:                                                      Ÿ
                                    9679              Ÿ      R15,R0,R1 -- unchanged                                         Ÿ
                                    9680              Ÿ                                                                     Ÿ
                                                      ¾þþþþþþþþþþþþþþþþþþþþþþþþþþþþþþþþþþþþþþþþþþþþþþþþþþþþþþþþþþþþþþþþþþþþþ»
0000984 50E0 D000/90F8_      00000  9681              KRSCFREE XPROC (R15,LSR)
 USING  *,R7
 00099E 4110 0008/1B00_      00008  9721                       FREERSC KEY,CHECK=NO      Free if held
 0009AA 94F7 B8AA      008AA        9737                       CLEAR CPRFKEYS            Keys no longer exclusively owned
 0009AE 18D8/98F8 D004_             9744                       PEND
 DROP   *,R7
1KEYS     (KEYS2010) (12:47) (15MAR04) CHRISIO - Send CHRISTA I/O transaction                                               Page   23
0Current Usings:  (USINPRMS,R1) (CHRPARMS,R2) (CP,R11) (CV,R12)
0Loc    Object Code    Addr1 Addr2  Stmt Lv Lineno    Source Statement           (Hibal 5, Asmedit 3.3)  HLASM R4.0  2004/03/15 12.47
+___    ______ ____    _____ _____  ____ __ ______    ______ _________
0                                   9766              ¿þþþþþþþþþþþþþþþþþþþþþþþþþþþþþþþþþþþþþþþþþþþþþþþþþþþþþþþþþþþþþþþþþþþþþÜ
                                    9767              Ÿ                                                                     Ÿ
                                    9768              Ÿ  CHRISIO - Send CHRISTA I/O transaction                             Ÿ
                                    9769              Ÿ                                                                     Ÿ
                                    9770              Ÿ  On entry:                                                          Ÿ
                                    9771              Ÿ              R0 - Transaction length                                Ÿ
                                    9772              Ÿ              R2 - Christa function code                             Ÿ
                                    9773              Ÿ              R6 - Addr of KEYS work area                            Ÿ
                                    9774              Ÿ                                                                     Ÿ
                                    9775              Ÿ    Return:   R15 - Christa return code                              Ÿ
                                    9776              Ÿ                                                                     Ÿ
                                                      ¾þþþþþþþþþþþþþþþþþþþþþþþþþþþþþþþþþþþþþþþþþþþþþþþþþþþþþþþþþþþþþþþþþþþþþ»
00009BC 50E0 D000/9008_      00000  9777              CHRISIO  PROC  ,
 USING  *,R7
 USING  KEYSTBL,R6                  9816                       USING KEYSTBL,R6
 0009D6 5810 6038            00050  9825                       L     R1,CHRPTRAN
 DROP   USINPRMS,R1                 9826                       WITH  (USRREQ,R1)         Addressability to transaction
 USING  USRREQ,R1
 0009DA D72F 1000 1000 00000 00000  9842                       CLEAR USRHDR              Clear transaction header
 0009E0 D203 1000 718E 00000 00B64  9849                       MVC   REQID,=C'USIO'      Set transaction id
 0009E6 5020 1008            00008  9850                       ST    R2,REQTYPE          Set requested function
 0009EA 5A00 716A            00B40  9851                       A     R0,=A(L'USRHDR)
 0009EE 5000 1004            00004  9852                       ST    R0,REQLEN           Set total transaction length
 0009F2 95D2 604A/4770_00062        9853                       IF    (KEYFILE,EQ,'K'),BEGIN
 0009FA 9601 100C      0000C        9870  1                      SET   REQFKERB            Set Kerberos I/O request
 0009FE                             9876                       END
 0009FE 702C/47F0 7030 009FE 009F8  9880                       ELSE  BEGIN
 000A02 9680 100C      0000C        9891  1                      SET   REQFID              Set user-id I/O request
 000A06                             9897                       END
 000A06 9620 100C      0000C        9901                       SET   REQFIMRET           Set immediate return requested
 000A0A D703 601C 601C 00034 00034  9907                       CLEAR KEYSECB             Clear wait/ecb
 000A10 4100 601C            00034  9914                       LA    R0,KEYSECB          Address of wait/ecb
 000A14 5000 1024            00024  9915                       ST    R0,REQECBPT         Save in christa request block
                                    9916
 000A18 4100 0004            00004  9917                       LA    R0,CHRFSEND
 000A1C 5000 603C            00054  9918                       ST    R0,KEYUFUNC
                                    9919
 000A20 4110 6030            00048  9920                       LA    R1,CHRPLIST         Get parameter list address
 000A24 58F0 602C            00044  9921                       L     R15,KEYSCHAD        Address of user-id routine
 000A28 0CEF                        9922                       BASSM R14,R15             Call christa front-end
 000A2A 12FF/4780 7064              9923                       IF    (R15,NZ),BEGIN
 000A30 58E0 7192/0DEE       00B68  9937  1                      ACALL CHRISCDS            Process return codes
 000A36 47F0 708E            00A64  9941  1                      EXIT  CHRISIO
 000A3A                             9944                       END   ,
 000A3A 1B00                        9948                       CLEAR R0                  Must wait until posted
 000A3C 4110 601C            00034  9952                       LA    R1,KEYSECB          Address of wait ecb
 000A40 58E0 7196/0DEE       00B6C  9953                       VCALL WAITECB             Wait for completion
                                    9957              *
                                    9958              *  Now get the results from the I/O call (causes the Christa
                                    9959              *  interface module to transfer the data to our transaction
                                    9960              *  buffer).
                                    9961              *
 000A46 4100 0010            00010  9962                       LA    R0,CHRFPPRO         Set post processing transaction code
1KEYS     (KEYS2010) (12:47) (15MAR04) CHRISIO - Send CHRISTA I/O transaction                                               Page   24
0Current Usings:  (USRREQ,R1) (CHRPARMS,R2) (KEYSTBL,R6) (*,R7) (CP,R11) (CV,R12)
0Loc    Object Code    Addr1 Addr2  Stmt Lv Lineno    Source Statement           (Hibal 5, Asmedit 3.3)  HLASM R4.0  2004/03/15 12.47
+___    ______ ____    _____ _____  ____ __ ______    ______ _________
0000A4A 5000 603C            00054  9963                       ST    R0,KEYUFUNC
                                    9964
 000A4E 4110 6030            00048  9965                       LA    R1,CHRPLIST
 000A52 58F0 602C            00044  9966                       L     R15,KEYSCHAD        Address of user-id routine
 000A56 0CEF                        9967                       BASSM R14,R15             Call CHRISTA front-end
 000A58 12FF/4780 708E              9968                       IF    (R15,NZ),BEGIN
 000A5E 58E0 7192/0DEE       00B68  9982  1                      ACALL CHRISCDS            Process return codes
 000A64                             9986                       END   ,
 000A64 18D8/9808 D004_             9990                       PEND  ,
 DROP   USRREQ,R1
 USING  USINPRMS,R1
 DROP   *,R7
1KEYS     (KEYS2010) (12:47) (15MAR04) CHRISCDS - Translate CHRISTA return code                                             Page   25
0Current Usings:  (USINPRMS,R1) (CHRPARMS,R2) (KEYSTBL,R6) (CP,R11) (CV,R12)
0Loc    Object Code    Addr1 Addr2  Stmt Lv Lineno    Source Statement           (Hibal 5, Asmedit 3.3)  HLASM R4.0  2004/03/15 12.47
+___    ______ ____    _____ _____  ____ __ ______    ______ _________
0                                  10023              ¿þþþþþþþþþþþþþþþþþþþþþþþþþþþþþþþþþþþþþþþþþþþþþþþþþþþþþþþþþþþþþþþþþþþþþÜ
                                   10024              Ÿ                                                                     Ÿ
                                   10025              Ÿ  CHRISCDS - Convert Christa return codes                            Ÿ
                                   10026              Ÿ                                                                     Ÿ
                                   10027              Ÿ    Entry:    R6 - Addr of KEYS work area                            Ÿ
                                   10028              Ÿ              R15 - Return code from CHRISTA transaction call.       Ÿ
                                   10029              Ÿ                    Received transaction is in KEYUREQ.              Ÿ
                                   10030              Ÿ                                                                     Ÿ
                                   10031              Ÿ    Returns:  R15   -3 Keys file is not available                    Ÿ
                                   10032              Ÿ                    -2 Record data error                             Ÿ
                                   10033              Ÿ                    -1 I/O error                                     Ÿ
                                   10034              Ÿ                     0 Operation successful                          Ÿ
                                   10035              Ÿ                     1 Record not found/Not deleted                  Ÿ
                                   10036              Ÿ                     2 Record not updated; (update count mismatch)   Ÿ
                                   10037              Ÿ                     3 Record already exists                         Ÿ
                                   10038              Ÿ                     4 No more room in master file                   Ÿ
                                   10039              Ÿ                                                                     Ÿ
                                   10040              Ÿ                     The CHRISTA interface is disabled for any       Ÿ
                                   10041              Ÿ                     interface return code greater than 4.           Ÿ
                                   10042              Ÿ                                                                     Ÿ
                                                      ¾þþþþþþþþþþþþþþþþþþþþþþþþþþþþþþþþþþþþþþþþþþþþþþþþþþþþþþþþþþþþþþþþþþþþþ»
0000A72 50E0 D000/9008_      00000 10044              CHRISCDS PROC  ,
 USING  *,R7
                                   10083                       USING KEYSTBL,R6
 000A8C 12FF/4780 706A             10085                       IF    (R15,NZ),BEGIN
 000A92 50F0 6028            00040 10099  1                      ST    R15,KEYSLCDE        Save last send return code
 000A96 D703 6024 6024 0003C 0003C 10100  1                      CLEAR KEYSTCDE            Clear return code area
 000A9C 183F                       10107  1                      LR    R3,R15              Save christa return code
 000A9E 5930 70E4/47D0_      00B70 10108  1                      IF    (R3,GT,4),BEGIN     Interface problem or CHRISTA down
 000AA6 58E0 70E8/0DEE       00B74 10125  2                        ACALL KEYCLOSE            Termination call to CHRISTA
 000AAC 9610 6048      00060       10129  2                        SET   KEYCFNA             Terminate any further calls
 000AB0 58F0 70A0            00B2C 10135  2                        L     R15,=F'-3'          Presume that CHRISTA is not there
 000AB4                            10136  1                      END
 000AB4 702C/47F0 706A 00AB4 00AA4 10140  1                      ELSE  BEGIN   (4)         Check transaction return calls
 000AB8 5820 6038            00050 10151  2                        L     R2,CHRPTRAN         Address of transaction buffer
 DROP   CHRPARMS,R2                10152  2                        WITH  (USRREQ,R2)         Addressability to transaction
 USING  USRREQ,R2
 000ABC D203 6024 2010 0003C 00010 10168  2                        MVC   KEYSTCDE,REQR15     Set last transaction codes
 000AC2 5830 2018            00018 10169  2                        L     R3,REQRETRN         Load transaction return
 000AC6 5930 70EC/4770_      00B78 10170  2                        IF    (R3,EQ,REQRRNF),'L R15,=A(1)'     Not/Found
 000AD2 5930 70F4/4770_      00B80 10193  2                        IF    (R3,EQ,REQRDUP),'L R15,=A(3)'     Exists
 000ADE 5930 70FC/4770_      00B88 10216  2                        IF    (R3,EQ,REQRFUL),'L R15,=A(4)'     No room
 000AEA 5930 7100/4770_      00B8C 10239  2                        IF    (R3,EQ,REQRIOE),'L R15,=A(-1)'    I/O error
 DROP   USRREQ,R2                  10262  1                      END
 USING  CHRPARMS,R2
 000AF6                            10278                       END
 000AF6 18D8/9808 D004_            10282                       PEND  ,
 DROP   *,R7
 000B08                            10302                       LTORG
 000B08 4040E396A3819340           10304                             =C'  Total requests'
 000B18 00000018                   10305                             =A(KEYSTBL)
 000B1C 00004030                   10306                             =A(KEYSBUFL)
 000B20 00000000                   10307                             =V(GETCORE)
1KEYS     (KEYS2010) (12:47) (15MAR04) CHRISCDS - Translate CHRISTA return code                                             Page   26
0Current Usings:  (USINPRMS,R1) (CHRPARMS,R2) (KEYSTBL,R6) (CP,R11) (CV,R12)
0Loc    Object Code    Addr1 Addr2  Stmt Lv Lineno    Source Statement           (Hibal 5, Asmedit 3.3)  HLASM R4.0  2004/03/15 12.47
+___    ______ ____    _____ _____  ____ __ ______    ______ _________
0000B24 E4E2C9D5                   10308                             =C'USIN'
 000B28 00000000                   10309                             =V(BTX)
 000B2C FFFFFFFD                   10310                             =F'-3'
 000B30 00000064                   10311                             =A(KEYOPEN)
 000B34 0000090A                   10312                             =A(KRSCGET)
 000B38 00004000                   10313                             =A(KEYSTMXL)
 000B3C 000009BC                   10314                             =A(CHRISIO)
 000B40 00000030                   10315                             =A(L'USRHDR)
 000B44 00000984                   10316                             =A(KRSCFREE)
 000B48 00000000                   10317                             =V(COLLOPTS)
 000B4C 00000000                   10318                             =V(SEGCR)
 000B50 00000000                   10319                             =V(SEGCOL)
 000B54 00000000                   10320                             =V(SEGDC)
 000B58 00000000                   10321                             =V(SEG)
 000B5C 00000000                   10322                             =V(GETRSC)
 000B60 00000000                   10323                             =V(FREERSC)
 000B64 E4E2C9D6                   10324                             =C'USIO'
 000B68 00000A72                   10325                             =A(CHRISCDS)
 000B6C 00000000                   10326                             =V(WAITECB)
 000B70 00000004                   10327                             =A(4)
 000B74 00000378                   10328                             =A(KEYCLOSE)
 000B78 00000004                   10329                             =A(REQRRNF)
 000B7C 00000001                   10330                             =A(1)
 000B80 00000008                   10331                             =A(REQRDUP)
 000B84 00000003                   10332                             =A(3)
 000B88 00000010                   10333                             =A(REQRFUL)
 000B8C 00000018                   10334                             =A(REQRIOE)
 000B90 FFFFFFFF                   10335                             =A(-1)
 000B94 4040C7C5E3A2               10336                             =C'  GETs'
 000B9A 4040D7E4E3A2               10337                             =C'  PUTs'
 000BA0 4040C1C4C4A2               10338                             =C'  ADDs'
 000BA6 D285A8A240899586           10339                             =C'Keys information:'
 000BB7 4040C4C5D3C5E3C5           10340                             =C'  DELETEs'
 000BC0 40D381A2A340E2C5           10341                             =C' Last SEND return code was '
 000BDB 40D381A2A340E5E2           10342                             =C' Last VSAM return code was '
 000BF6 40D381A2A34086A4           10343                             =C' Last function return code was '
 000C15 408696994086A495           10344                             =C' for function code '
                                   10348                       VLTORG
1KEYS     (KEYS2010) (12:47) (15MAR04) CHRISCDS - Translate CHRISTA return code                                             Page   27
0Current Usings:  (USINPRMS,R1) (CHRPARMS,R2) (KEYSTBL,R6) (CP,R11) (CV,R12)
0Loc    Object Code    Addr1 Addr2  Stmt Lv Lineno    Source Statement           (Hibal 5, Asmedit 3.3)  HLASM R4.0  2004/03/15 12.47
+___    ______ ____    _____ _____  ____ __ ______    ______ _________
0                                  10358              ¿þþþþþþþþþþþþþþþþþþþþþþþþþþþþþþþþþþþþþþþþþþþþþþþþþþþþþþþþþþþþþþþþþþþþþÜ
                                   10359              Ÿ                                                                     Ÿ
                                   10360              Ÿ  SET CHRISTA {KPATH=pathname} | {KTIME=nnn} |                       Ÿ
                                   10361              Ÿ              {UPATH=pathname} | {UTIME=nnn} | DEBUG                 Ÿ
                                   10362              Ÿ                                                                     Ÿ
                                   10363              Ÿ                                                                     Ÿ
                                                      ¾þþþþþþþþþþþþþþþþþþþþþþþþþþþþþþþþþþþþþþþþþþþþþþþþþþþþþþþþþþþþþþþþþþþþþ»
0000C3C 50E0 D000/9008_      00000 10364              SETCHR   XPROC
 USING  *,R7
 000C56 5860 75FA            01250 10404                       L     R6,=A(KEYSTBL)      Estab base for KEYS global info
                                   10405                       WITH  (KEYSTBL,R6)
 000C5A 9120 B3BE/4710_003BE       10409                       IF    ~CPSFSPR,'VCALL NOTVALID'  Not priv'd, sorry
 000C68 5810 B08C/1B00_      0008C 10433                       SCAN  STCHROPT
 000CBA 47F0 C7DE            007DE 10465                       B     CVNEXT
 000CBE 18D8/9808 D004_            10466                       PEND
 DROP   *,R7
                                   10486
 000CCC 4040404040404040_          10487              STCHROPT SCKW  ,STCHRNUL,NULL
 000CF4 D2D7C1E3C8404040_          10502                       SCKW  KPATH,STCHKPAT,(A,P)
 000D1C D2E3C9D4C5404040_          10517                       SCKW  KTIME,STCHKTIM,(A,P,PI),99999
 000D44 E4D7C1E3C8404040_          10532                       SCKW  UPATH,STCHUPAT,(A,P)
 000D6C E4E3C9D4C5404040_          10547                       SCKW  UTIME,STCHUTIM,(A,P,PI),99999
 000D94 4040404040404040_          10562                       SCKW  ,V(NOTVALID)
                                   10577
 000DBC 50E0 D000/9008_      00000 10578              STCHRNUL PROC
 USING  *,R7
 000DD6 4110 74A8/4100_      0127E 10617                       TSEG  'Missing Christa option; specify KPATH, UPATH, '
 000DE8 4110 74D6/4100_      012AC 10635                       SETMSG 'KTIME, or UTIME value.'
 000DF0 47F0 C7CC            007CC 10639                       B     CVABTMSG
 000DF4 18D8/9808 D004_            10640                       PEND
 DROP   *,R7
                                   10660
 000E02 50E0 D000/9008_      00000 10661              STCHKPAT PROC
 USING  *,R7
 000E1C 957D 1000/4780_00000       10700                       IF    ((0(R1),EQ,''''),OR,(0(R1),EQ,'"')),'VCALL NOTVALID'
 000E32 5810 B08C/4111_      0008C 10740                       SCUPTOK R1
 000E3A 5850 C25C            0025C 10744                       L     R5,CVCHRIS          Point at Christa global parms
 USING  CHRPARMS,R5                10745                       WITH  (CHRPARMS,R5)
 000E3E D207 5004 1000 00004 00000 10758                       MVC   CHRKPATH,0(R1)      Update path name
 000E44 18D8/9808 D004_            10759                       PEND
 DROP   CHRPARMS,R5
 DROP   *,R7
                                   10784
 000E52 50E0 D000/9008_      00000 10785              STCHKTIM PROC
 USING  *,R7
 000E6C 5850 C25C            0025C 10824                       L     R5,CVCHRIS          Point at Christa global parms
 USING  CHRPARMS,R5                10825                       WITH  (CHRPARMS,R5)
 000E70 5000 500C            0000C 10838                       ST    R0,CHRKTIME         Update timeout value
 000E74 18D8/9808 D004_            10839                       PEND
 DROP   CHRPARMS,R5
 DROP   *,R7
                                   10864
 000E82 50E0 D000/9008_      00000 10865              STCHUPAT PROC
1KEYS     (KEYS2010) (12:47) (15MAR04) CHRISCDS - Translate CHRISTA return code                                             Page   28
0Current Usings:  (USINPRMS,R1) (CHRPARMS,R2) (KEYSTBL,R6) (*,R7) (CP,R11) (CV,R12)
0Loc    Object Code    Addr1 Addr2  Stmt Lv Lineno    Source Statement           (Hibal 5, Asmedit 3.3)  HLASM R4.0  2004/03/15 12.47
+___    ______ ____    _____ _____  ____ __ ______    ______ _________
0USING  *,R7
 000E9C 957D 1000/4780_00000       10904                       IF    ((0(R1),EQ,''''),OR,(0(R1),EQ,'"')),'VCALL NOTVALID'
 000EB2 5810 B08C/4111_      0008C 10944                       SCUPTOK R1
 000EBA 5850 C25C            0025C 10948                       L     R5,CVCHRIS          Point at Christa global parms
 USING  CHRPARMS,R5                10949                       WITH  (CHRPARMS,R5)
 000EBE D207 5010 1000 00010 00000 10962                       MVC   CHRUPATH,0(R1)      Update path name
 000EC4 18D8/9808 D004_            10963                       PEND
 DROP   CHRPARMS,R5
 DROP   *,R7
                                   10988
 000ED2 50E0 D000/9008_      00000 10989              STCHUTIM PROC
 USING  *,R7
 000EEC 5850 C25C            0025C 11028                       L     R5,CVCHRIS          Point at Christa global parms
 USING  CHRPARMS,R5                11029                       WITH  (CHRPARMS,R5)
 000EF0 5000 5018            00018 11042                       ST    R0,CHRUTIME         Update timeout value
 000EF4 18D8/9808 D004_            11043                       PEND
 DROP   CHRPARMS,R5
 DROP   *,R7
1KEYS     (KEYS2010) (12:47) (15MAR04) CHRISCDS - Translate CHRISTA return code                                             Page   29
0Current Usings:  (USINPRMS,R1) (CHRPARMS,R2) (KEYSTBL,R6) (CP,R11) (CV,R12)
0Loc    Object Code    Addr1 Addr2  Stmt Lv Lineno    Source Statement           (Hibal 5, Asmedit 3.3)  HLASM R4.0  2004/03/15 12.47
+___    ______ ____    _____ _____  ____ __ ______    ______ _________
0                                  11069              ¿þþþþþþþþþþþþþþþþþþþþþþþþþþþþþþþþþþþþþþþþþþþþþþþþþþþþþþþþþþþþþþþþþþþþþÜ
                                   11070              Ÿ                                                                     Ÿ
                                   11071              Ÿ  SET CHRISUID CHRISTA={PRIMARY|SECONDARY|OFF}                       Ÿ
                                   11072              Ÿ                                                                     Ÿ
                                   11073              Ÿ                                                                     Ÿ
                                                      ¾þþþþþþþþþþþþþþþþþþþþþþþþþþþþþþþþþþþþþþþþþþþþþþþþþþþþþþþþþþþþþþþþþþþþþ»
0000F02 50E0 D000/9008_      00000 11074              SETCHRU  XPROC
 USING  *,R7
 000F1C 9120 B3BE/4710_003BE       11114                       IF    ~CPSFSPR,'VCALL NOTVALID'  Not priv'd, sorry
 000F2A 5860 7334            01250 11138                       L     R6,=A(KEYSTBL)      Estab base for KEYS global info
                                   11139                       WITH  (KEYSTBL,R6)
 000F2E D200 6049 C4C9 00061 004C9 11143                       MVC   KEYFWORK,CVFL6      Copy global Christa flag to
                                   11144              *                                  temporary work area
 000F34 5810 B08C/1B00_      0008C 11145                       SCAN  STCHUPR
 000F86 58E0 734C/0DEE       01268 11177                       SCANCHK
0000F8C 9180 6049/4710_00061       11183                       IF    (~KEYFUCPR),'ACALL KEYCLOSE'
 000F9A 9180 6049/47E0_00061       11207                       IF    (KEYFUCPR,AND,~KEYCFOPEN),'ACALL KEYOPEN'
 000FB0 D200 C4C9 6049 004C9 00061 11245                       MVC   CVFL6,KEYFWORK      Set resulting config 'for real'
 000FB6 47F0 C7DE            007DE 11246                       B     CVNEXT              Go get next command
 000FBA 18D8/9808 D004_            11247                       PEND
 DROP   *,R7
                                   11267
 000FC8 4040404040404040_          11268              STCHUPR  SCKW  ,STCHUNUL,NULL
 000FF0 C3C8D9C9E2E3C140_          11283                       SCKW  CHRISTA,STCHUCHR,(A,P)
 001018 4040404040404040_          11298                       SCKW  ,V(NOTVALID)
                                   11313
 001040 50E0 D000/9008_      00000 11314              STCHUNUL PROC
 USING  *,R7
 00105A 4110 7268/4100_      012C2 11353                       SETMSG 'Missing UserID access method; specify CHRISTA='
 001062 47F0 C7CC            007CC 11357                       B     CVABTMSG
 001066 18D8/9808 D004_            11358                       PEND
 DROP   *,R7
                                   11378
 001074 50E0 D000/9008_      00000 11379              STCHUCHR PROC
 USING  *,R7
 00108E 5810 B08C/4111_      0008C 11418                       SCUPTOK R1                Pick off the next token
 001096 D506 7262 1000 012F0 00000 11422                       CLC   =C'PRIMARY',0(R1)   If user wants CHRISTA=PRIMARY
 00109C 4770 7016            010A4 11423                       IF    EQ,BEGIN
 0010A0 9680 6049      00061       11434  1                      SET   KEYFUCPR            Set Christa primary
 0010A4                            11440                       END   ,
 0010A4 D502 7269 1000 012F7 00000 11444                       CLC   =C'OFF',0(R1)       If user wants CHRISTA=OFF
 0010AA 4770 7024/947F_      010B2 11445                       IF    EQ,'CLEAR KEYFUCPR'  Turn off Christa access
 0010B2 18D8/9808 D004_            11468                       PEND
 DROP   *,R7
1KEYS     (KEYS2010) (12:47) (15MAR04) CHRISCDS - Translate CHRISTA return code                                             Page   30
0Current Usings:  (USINPRMS,R1) (CHRPARMS,R2) (KEYSTBL,R6) (CP,R11) (CV,R12)
0Loc    Object Code    Addr1 Addr2  Stmt Lv Lineno    Source Statement           (Hibal 5, Asmedit 3.3)  HLASM R4.0  2004/03/15 12.47
+___    ______ ____    _____ _____  ____ __ ______    ______ _________
0                                  11489              ¿þþþþþþþþþþþþþþþþþþþþþþþþþþþþþþþþþþþþþþþþþþþþþþþþþþþþþþþþþþþþþþþþþþþþþÜ
                                   11490              Ÿ                                                                     Ÿ
                                   11491              Ÿ  SHOW CHRISTA                                                       Ÿ
                                   11492              Ÿ                                                                     Ÿ
                                                      ¾þþþþþþþþþþþþþþþþþþþþþþþþþþþþþþþþþþþþþþþþþþþþþþþþþþþþþþþþþþþþþþþþþþþþþ»
00010C0 50E0 D000/9008_      00000 11493              SHOWCHR  XPROC
 USING  *,R7
 0010DA 5860 7176            01250 11533                       L     R6,=A(KEYSTBL)      Estab base for KEYS global info
                                   11534                       WITH  (KEYSTBL,R6)
 0010DE 5820 C25C            0025C 11538                       L     R2,CVCHRIS
                                   11539                       USING CHRPARMS,R2
                                   11541
 0010E2 4110 712E/4100_      01208 11542                       TSEG  'Christa Keyword path is '
 0010F4 4110 2004/4100_      00004 11560                       TSEG  CHRKPATH
 001106 1B00/41F0 B050_            11588                       TCR
                                   11613
 001112 4110 7146/4100_      01220 11614                       TSEG  'Christa Keyword timeout value = '
 001124 5810 200C/1B00_      0000C 11632                       TNUM  L:CHRKTIME          Christa timeout value
 001134 4110 7220/4100_      012FA 11654                       TSEG  ' (hundredths of a second)'
 001146 1B00/41F0 B050_            11672                       TCR
                                   11697
 001152 4110 7239/4100_      01313 11698                       TSEG  'Christa UserID path is '
 001164 4110 2010/4100_      00010 11716                       TSEG  CHRUPATH
 001176 1B00/41F0 B050_            11744                       TCR
                                   11769
 001182 4110 7250/4100_      0132A 11770                       TSEG  'Christa UserID timeout value = '
 001194 5810 2018/1B00_      00018 11788                       TNUM  L:CHRUTIME          Christa timeout value
 0011A4 4110 7220/4100_      012FA 11810                       TSEG  ' (hundredths of a second)'
 0011B6 1B00/41F0 B050_            11828                       TCR
 0011C2 1B00/41F0 B050_            11853                       TCR
 DROP   CHRPARMS,R2                11878                       DROP  R2
                                   11885
 0011CE 9140 6048/4710_00060       11886                       IF    ~KEYCFOPEN,BEGIN
 0011D6 4110 7166/4100_      01240 11901  1                      TSEG  'Christa not open'
 0011E8                            11919                       END   ,
 0011E8 1B00/41F0 B050_            11923                       TCR
 0011F4 47F0 C7DE            007DE 11948                       B     CVNEXT
 0011F8 18D8/9808 D004_            11949                       PEND
 DROP   *,R7
                                   11969
 001208                            11970                       END   .
 001208 C3889989A2A38140           11973                             =C'Christa Keyword path is '
 001220 C3889989A2A38140           11974                             =C'Christa Keyword timeout value = '
 001240 C3889989A2A38140           11975                             =C'Christa not open'
 001250 00000018                   11976                             =A(KEYSTBL)
 001254 00000000                   11977                             =V(NOTVALID)
 001258 00000CCC                   11978                             =A(STCHROPT)
 00125C 00000000                   11979                             =V(NSCAN)
 001260 00000000                   11980                             =V(SEG)
 001264 00000FC8                   11981                             =A(STCHUPR)
 001268 00000000                   11982                             =V(SCANCHK)
 00126C 00000378                   11983                             =A(KEYCLOSE)
 001270 00000064                   11984                             =A(KEYOPEN)
1KEYS     (KEYS2010) (12:47) (15MAR04) CHRISCDS - Translate CHRISTA return code                                             Page   31
0Current Usings:  (USINPRMS,R1) (KEYSTBL,R6) (CP,R11) (CV,R12)
0Loc    Object Code    Addr1 Addr2  Stmt Lv Lineno    Source Statement           (Hibal 5, Asmedit 3.3)  HLASM R4.0  2004/03/15 12.47
+___    ______ ____    _____ _____  ____ __ ______    ______ _________
0001274 00000000                   11985                             =V(SEGCR)
 001278 00000000                   11986                             =V(SEGDC)
 00127C 000C                       11987                             =Y((12+3)/4*4)
 00127E D489A2A289958740           11988                             =C'Missing Christa option; specify KPATH, UPATH, '
 0012AC D2E3C9D4C56B4096           11989                             =C'KTIME, or UTIME value.'
 0012C2 D489A2A289958740           11990                             =C'Missing UserID access method; specify CHRISTA='
 0012F0 D7D9C9D4C1D9E8             11991                             =C'PRIMARY'
 0012F7 D6C6C6                     11992                             =C'OFF'
 0012FA 404D88A495849985           11993                             =C' (hundredths of a second)'
 001313 C3889989A2A38140           11994                             =C'Christa UserID path is '
 00132A C3889989A2A38140           11995                             =C'Christa UserID timeout value = '

1KEYS     (KEYS2010) (12:47) (15MAR04) Relocation Dictionary                                                                Page   32
-   Pos.Id   Rel.Id   Flags    Address                                                       HLASM R4.0  2004/03/15 12.47
0  00000001 00000001    0C    00000048
   00000001 00000001    0C    0000004C
   00000001 00000001    08    00000941
   00000001 00000001    08    00000973
   00000001 00000001    0C    00000B18
   00000001 00000001    0C    00000B30
   00000001 00000001    0C    00000B34
   00000001 00000001    0C    00000B3C
   00000001 00000001    0C    00000B44
   00000001 00000001    0C    00000B68
   00000001 00000001    0C    00000B74
   00000001 00000001    0C    00000CF0
   00000001 00000001    0C    00000D18
   00000001 00000001    0C    00000D40
   00000001 00000001    0C    00000D68
   00000001 00000001    0C    00000D90
   00000001 00000001    0C    00000FEC
   00000001 00000001    0C    00001014
   00000001 00000001    0C    00001250
   00000001 00000001    0C    00001258
   00000001 00000001    0C    00001264
   00000001 00000001    0C    0000126C
   00000001 00000001    0C    00001270
   00000001 00000002    1C    00000B20
   00000001 00000003    1C    00000B28
   00000001 00000004    1C    00000B48
   00000001 00000005    1C    00000B4C
   00000001 00000005    1C    00001274
   00000001 00000006    1C    00000B50
   00000001 00000007    1C    00000B54
   00000001 00000007    1C    00001278
   00000001 00000008    1C    00000B58
   00000001 00000008    1C    00001260
   00000001 00000009    1C    00000B5C
   00000001 0000000A    1C    00000B60
   00000001 0000000B    1C    00000B6C
   00000001 0000000C    1C    00000CEC
   00000001 0000000C    1C    00000FE8
   00000001 0000000D    1C    00000D14
   00000001 0000000D    1C    00000D64
   00000001 0000000D    1C    00001010
   00000001 0000000E    1C    00000D3C
   00000001 0000000E    1C    00000D8C
   00000001 0000000F    1C    00000DB4
   00000001 0000000F    1C    00001038
   00000001 00000010    1C    00000DB8
   00000001 00000010    1C    0000103C
   00000001 00000010    1C    00001254
   00000001 00000011    1C    0000125C
   00000001 00000012    1C    00001268

1KEYS     (KEYS2010) (12:47) (15MAR04) Ordinary Symbol and Literal Cross Reference                                          Page   33
-Symbol   Length   Value     Id    R Type   Defn References                                  HLASM R4.0  2004/03/15 12.47
0$$$@R0        1 00000000 FFFFFFFE     J     705  1027
 $$$@R10       1 00000000 FFFFFFF4     J     835  1091
 $$$@R11       1 00000000 FFFFFFF3     J     848  1104
 $$$@R12       1 00000000 FFFFFFF2     J     861  1117
 $$$@R13       1 00000000 FFFFFFF1     J     874  1130
 $$$@R14       1 00000000 FFFFFFF0     J     887  1143
 $$$@R7        1 00000000 FFFFFFF7     J     796  1040
 $$$@R8        1 00000000 FFFFFFF6     J     809  1053   1065
 $$$@R9        1 00000000 FFFFFFF5     J     822  1078
 $$$C1WYLKEYS
               1 00000C28 00000001     J   10345 10347
 $$$C2WYLKEYS
               1 00001349 00000001     J   11996 11998
 $$$RCHRPARMS
               1 00000000 FFFFFFE5     J    6869  6890   6890
 $$$RCP        1 00000000 FFFFFFEC     J    2462  4722   6196   6196
 $$$RCV        1 00000000 FFFFFFEE     J    1187  2372   2372
 $$$RDEV       1 00000000 FFFFFFEB     J    4676  4721   4721
 $$$RJCB       1 00000000 FFFFFFE9     J    6314  6588   6588
 $$$RNSCNCB
               1 00000000 FFFFFFED     J    2383  2456   2456
 $$$RTTYPE
               1 00000000 FFFFFFEA     J    6207  6308   6308
 $$$RUIDREC
               1 00000000 FFFFFFE8     J    6604  6635   6635
 $$$RUSINPRMS
               1 00000000 FFFFFFE6     J    6842  6857   6857
 $$$RUSRREQ
               1 00000000 FFFFFFE7     J    6727  6831   6831
 $$$SEGCB0
               4 00000050 FFFFFFEC     F    2493  2579   2579
 $$$V01       20 00000C28 00000001     C   10354  9597   9645
 $$$101B       1 0000071C 00000001     X    8819  8826U
 $$$102        1 00000050 00000001 A   U    9521  9518   9520
 $$$104B       1 00000924 00000001     X    9559  9566U
 $$$105F       2 00000944 00000001     H    9601  9586B
 $$$106F       2 00000976 00000001     H    9649  9634B
 $$$107        1 00000058 00000001 A   U    9667  9664   9666
 $$$109B       1 0000099E 00000001     X    9705  9712U
 $$$110        1 00000058 00000001 A   U    9761  9758   9760
 $$$111F       2 00000A64 00000001     H   10010  9943B
 $$$112B       1 000009D6 00000001     X    9800  9807U
 $$$113B       4 000009F6 00000001     I    9865  9882
 $$$113F       2 000009FE 00000001     H    9879  9865B  9881
 $$$114E       2 00000A02 00000001     H    9889  9883
 $$$114F       2 00000A06 00000001     H    9900  9885B
 $$$115F       2 00000A3A 00000001     H    9947  9932B
 $$$116F       2 00000A64 00000001     H    9989  9977B
 $$$117        1 00000050 00000001 A   U   10019 10016  10018
 $$$119B       1 00000A8C 00000001     X   10067 10074U
 $$$120F       2 00000AF6 00000001     H   10281 10094B
 $$$121B       4 00000AA2 00000001     I   10120 10142
 $$$121F       2 00000AB4 00000001     H   10139 10120B 10141
 $$$122E       2 00000AB8 00000001     H   10149 10143
 $$$122F       2 00000AF6 00000001     H   10277 10145B
1KEYS     (KEYS2010) (12:47) (15MAR04) Ordinary Symbol and Literal Cross Reference                                          Page   34
 $$$123F       2 00000AD2 00000001     H   10192 10182B
 $$$124F       2 00000ADE 00000001     H   10215 10205B
 $$$125F       2 00000AEA 00000001     H   10238 10228B
 $$$126F       2 00000AF6 00000001     H   10261 10251B
 $$$127        1 00000050 00000001 A   U   10299 10296  10298
 $$$129B       1 00000C56 00000001     X   10388 10395U
 $$$130F       2 00000C68 00000001     H   10432 10419B
 $$$131        1 00000050 00000001 A   U   10483 10480  10482
 $$$133B       1 00000DD6 00000001     X   10601 10608U
 $$$134        1 00000050 00000001 A   U   10657 10654  10656
 $$$136B       1 00000E1C 00000001     X   10684 10691U
 $$$137F       2 00000E32 00000001     H   10739 10726B
 $$$137T       2 00000E2C 00000001     H   10729 10715B
 $$$139        1 00000050 00000001 A   U   10781 10778  10780
 $$$141B       1 00000E6C 00000001     X   10808 10815U
 $$$142        1 00000050 00000001 A   U   10861 10858  10860
 $$$144B       1 00000E9C 00000001     X   10888 10895U
 $$$145F       2 00000EB2 00000001     H   10943 10930B
 $$$145T       2 00000EAC 00000001     H   10933 10919B
 $$$147        1 00000050 00000001 A   U   10985 10982  10984
 $$$149B       1 00000EEC 00000001     X   11012 11019U
 $$$150        1 00000050 00000001 A   U   11065 11062  11064
 $$$152B       1 00000F1C 00000001     X   11098 11105U
 $$$153F       2 00000F2A 00000001     H   11137 11124B
 $$$154F       2 00000F9A 00000001     H   11206 11193B
 $$$155F       2 00000FB0 00000001     H   11244 11219B 11231B
 $$$157        1 00000050 00000001 A   U   11264 11261  11263
 $$$159B       1 0000105A 00000001     X   11337 11344U
 $$$160        1 00000050 00000001 A   U   11375 11372  11374
 $$$162B       1 0000108E 00000001     X   11402 11409U
 $$$163F       2 000010A4 00000001     H   11443 11429B
 $$$164F       2 000010B2 00000001     H   11467 11451B
 $$$165        1 00000050 00000001 A   U   11485 11482  11484
 $$$167B       1 000010DA 00000001     X   11517 11524U
 $$$168F       2 000011E8 00000001     H   11922 11896B
 $$$169        1 00000050 00000001 A   U   11966 11963  11965
 $$$42F        2 000002CA 00000001     H    7432  7278B
 $$$43B        1 0000007E 00000001     X    6925  6932U
 $$$44F        2 000000A6 00000001     H    7001  6972B
 $$$45B        4 000000AA 00000001     I    7013  7257
 $$$45F        2 000001E6 00000001     H    7253  7013B  7256
 $$$46B        4 00000106 00000001     I    7080  7128
 $$$46F        2 00000128 00000001     H    7125  7080B  7127
 $$$47F        2 00000128 00000001     H    7121  7102B
 $$$48E        2 0000012C 00000001     H    7135  7129
 $$$48F        2 000001E6 00000001     H    7248  7131B
 $$$49F        2 000001DE 00000001     H    7236  7148B
 $$$50F        2 000001DE 00000001     H    7232  7223B
 $$$51E        2 000001EA 00000001     H    7264  7258
 $$$51F        2 000001EC 00000001     H    7273  7260B
 $$$52F        2 000002BE 00000001     H    7408  7295B
 $$$53F        2 000002BE 00000001     H    7404  7395B
 $$$54         1 00000050 00000001 A   U    7441  7438   7440
 $$$55F        2 000003CC 00000001     H    7593  7547B
 $$$56B        1 00000392 00000001     X    7494  7501U
 $$$58         1 00000050 00000001 A   U    7602  7599   7601
 $$$60B        1 000003F4 00000001     X    7653  7660U
 $$$61F        2 0000040E 00000001     H    7720  7696B  7708B
 $$$63B        4 00000412 00000001     I    7732  7861
1KEYS     (KEYS2010) (12:47) (15MAR04) Ordinary Symbol and Literal Cross Reference                                          Page   35
 $$$63F        2 00000496 00000001     H    7858  7732B  7860
 $$$64F        2 00000424 00000001     H    7760  7747B
 $$$65F        2 0000045A 00000001     H    7809  7800B
 $$$66F        2 00000496 00000001     H    7853  7828B
 $$$67E        2 0000049A 00000001     H    7868  7862
 $$$67F        2 000004A2 00000001     H    7879  7864B
 $$$68F        2 000004B8 00000001     H    7914  7901B
 $$$69         1 00000050 00000001 A   U    7941  7938   7940
 $$$71B        1 000004E6 00000001     X    7989  7996U
 $$$72F        2 00000504 00000001     H    8059  8035B  8047B
 $$$74B        4 00000508 00000001     I    8071  8161
 $$$74F        2 0000055C 00000001     H    8158  8071B  8160
 $$$75F        2 0000051A 00000001     H    8099  8086B
 $$$76F        2 0000054C 00000001     H    8146  8137B
 $$$77E        2 00000560 00000001     H    8168  8162
 $$$77F        2 00000564 00000001     H    8174  8164B
 $$$78F        2 00000576 00000001     H    8200  8187B
 $$$79         1 00000050 00000001 A   U    8227  8224   8226
 $$$81B        1 000005A4 00000001     X    8274  8281U
 $$$82F        2 000005C2 00000001     H    8344  8320B  8332B
 $$$84B        4 000005C6 00000001     I    8356  8439
 $$$84F        2 0000061A 00000001     H    8436  8356B  8438
 $$$85F        2 000005D8 00000001     H    8384  8371B
 $$$86F        2 0000060A 00000001     H    8424  8415B
 $$$87E        2 0000061E 00000001     H    8446  8440
 $$$87F        2 00000622 00000001     H    8452  8442B
 $$$88F        2 00000634 00000001     H    8478  8465B
 $$$89         1 00000050 00000001 A   U    8505  8502   8504
 $$$91B        1 00000662 00000001     X    8551  8558U
 $$$92F        2 0000067C 00000001     H    8618  8594B  8606B
 $$$94B        4 00000680 00000001     I    8630  8721
 $$$94F        2 000006D4 00000001     H    8718  8630B  8720
 $$$95F        2 00000692 00000001     H    8658  8645B
 $$$96F        2 000006C4 00000001     H    8705  8696B
 $$$97E        2 000006D8 00000001     H    8728  8722
 $$$97F        2 000006DC 00000001     H    8734  8724B
 $$$98F        2 000006EE 00000001     H    8760  8747B
 $$$99         1 00000050 00000001 A   U    8787  8784   8786
 @RAR          0 00000000 FFFFFFF0     @    1144  2170   2178B
 @R0           0 00000000 FFFFFFFE     @     706   982U
 @R1           0 00000000 FFFFFFFD     @     719   978U  2176   2177   9835U 10000U
 @R10          0 00000000 FFFFFFF4     @     836   942U
 @R11          0 00000000 FFFFFFF3     @     849   938U
 @R12          0 00000000 FFFFFFF2     @     862   934U
 @R13          0 00000000 FFFFFFF1     @     875   930U
 @R14          0 00000000 FFFFFFF0     @     888   926U  7889U  8684U
 @R15          0 00000000 FFFFFFEF     @     901   922U
 @R2           0 00000000 FFFFFFFC     @     732   974U 10161U 10271U 11883U
 @R3           0 00000000 FFFFFFFB     @     745   970U
 @R4           0 00000000 FFFFFFFA     @     758   966U
 @R5           0 00000000 FFFFFFF9     @     771   962U 10765U 10845U 10969U 11049U
 @R6           0 00000000 FFFFFFF8     @     784   958U  7425U  7586U  7925U  8211U  8489U  8771U  9505U
 @R7           0 00000000 FFFFFFF7     @     797   954U  7430U  7591U  7930U  8216U  8494U  8776U  9510U  9656U  9750U
                                                 10008U 10288U 10472U 10646U 10770U 10850U 10974U 11054U 11253U 11364U
                                                 11474U 11955U
 @R8           0 00000000 FFFFFFF6     @     810   950U
 @R9           0 00000000 FFFFFFF5     @     823   946U
 ABSCENT       1 00000000 00000000 A   T    2186  2186
 ASCTBL        1 00000000 00000000 A   T    2194  2194
1KEYS     (KEYS2010) (12:47) (15MAR04) Ordinary Symbol and Literal Cross Reference                                          Page   36
 BLTBL         1 00000000 00000000 A   T    2196  2196
 BR            7 00000007 00000001 A   #    1034  6920M  7489M  7648M  7984M  8269M  8546M  8814M  9554M  9700M  9795M
                                                 10062M 10383M 10596M 10679M 10803M 10883M 11007M 11093M 11332M 11397M
                                                 11512M
 BTX           1 00000000 00000003     T   10309 10309
 CHECKIOB      1 00000000 00000000 A   T    2242  2242
 CHLDERR       2 000001F4 00000001     H    7283  7034B
 CHRFCLOS      4 00000008 00000001 A   C    6721  7561
 CHRFINIT      4 00000000 00000001 A   C    6719  7063
 CHRFPPRO      4 00000010 00000001 A   C    6723  9962
 CHRFSEND      4 00000004 00000001 A   C    6720  9917
 CHRISCDS      2 00000A72 00000001     H   10048 10325
 CHRISIO       2 000009BC 00000001     H    9781 10314
 CHRKPATH      8 00000004 FFFFFFE5     C    6877 10758M 11570  11575
 CHRKTIME      4 0000000C FFFFFFE5     A    6878 10838M 11637
 CHRPARMS     28 00000000 FFFFFFE5     J    6890  6883   7055U 10274U 10754U 10834U 10958U 11038U
 CHRPLIST      4 00000048 00000001     A    6663  7066   7564   9920   9965
 CHRPTRAN      4 00000050 00000001     A    6666  6983M  6984M  7037   7779   7833   8116   8401   8675   9825  10151
 CHRUPATH      8 00000010 FFFFFFE5     C    6880  7058  10962M 11726  11731
 CHRUTIME      4 00000018 FFFFFFE5     A    6881  7059  11042M 11793
 COLLOPTS      1 00000000 00000004     T   10317 10317
 COMMAND       1 00000000 00000000 A   T    2182  2182
 COMMSEG       1 00000000 00000000 A   T    2183  2183
 CP         4096 00000000 FFFFFFEC     J    6196  1171U
 CP#XSTK       1 00000010 FFFFFFEC A   U    3928  3929
 CPACFLG       1 000005D5 FFFFFFEC     R    4031  4035   4040   4045   4050   4055
 CPACFLN       4 000005C4 FFFFFFEC     F    4023  4058   4058
 CPAFLAG       1 000005C3 FFFFFFEC     R    3995  3999   4004   4009   4014
 CPANAME       8 00000588 FFFFFFEC     C    3977  4073   4073
 CPAUTFLG      1 000008A9 FFFFFFEC     R    4341  4345   4350   4355   4360
 CPCHFLAG      1 00000B68 FFFFFFEC     R    4968  4972
 CPDFLG        1 0000084C FFFFFFEC     R    4228  4232   4237   4242   4247   4252
 CPDFLG2       1 0000084D FFFFFFEC     R    4257  4261   4266   4271   4276   4281   4286
 CPDOUB        8 00000C88 FFFFFFEC     D    5214  7170   7175   7318   7323   7342   7347
 CPEXFLG       1 00000758 FFFFFFEC     R    4097  4101
 CPEXFLG2      1 00000759 FFFFFFEC     R    4107  4116   4126
 CPEXFLG3      1 0000075A FFFFFFEC     R    4133  4137   4142
 CPEXTFLG      1 00000E28 FFFFFFEC     R    5779  5783   5788   5793   5798   5803   5808
 CPFABORT    128 00000D5A FFFFFFEC         5545  2146M  2146   2151M  2151
 CPFERROR     64 00000D5A FFFFFFEC         5550  2145M  2145   2150M  2150
 CPFNTEX       1 00000040 FFFFFFEC A   U    5397  5398
 CPFRDRNG      1 00000D88 FFFFFFEC     R    5665  5669   5674   5679   5684   5689   5694   5699
 CPFRDSRC      1 00000D89 FFFFFFEC     R    5704  5713   5723   5733
 CPFUNUM       1 00000080 FFFFFFEC A   U    5396  5398
 CPFXDFLG      1 000007E4 FFFFFFEC     R    4175  4179   4184
 CPGFLG1       1 00000474 FFFFFFEC     R    3538  3542   3547   3552   3557   3562   3892   3892
 CPGFLG10      1 0000047D FFFFFFEC     R    3775  3779   3784   3789   3794   3799   3804
 CPGFLG11      1 0000047E FFFFFFEC     R    3810  3814   3819
 CPGFLG12      1 0000047F FFFFFFEC     R    3825  3829   3834   3839
 CPGFLG13      1 00000480 FFFFFFEC     R    3845  3849
 CPGFLG14      1 00000481 FFFFFFEC     R    3855  3859   3864   3869   3874   3879
 CPGFLG4       1 00000477 FFFFFFEC     R    3591  3602   3611   3620   3629   3638
 CPGFLG5       1 00000478 FFFFFFEC     R    3644  3648   3653   3658   3663   3668   3673   3678   3683
 CPGFLG6       1 00000479 FFFFFFEC     R    3689  3693   3698   3703
 CPGFLG7       1 0000047A FFFFFFEC     R    3709  3713   3718   3723   3728
 CPGFLG8       1 0000047B FFFFFFEC     R    3734  3738   3743   3748   3753
 CPGFLG9       1 0000047C FFFFFFEC     R    3759  3763   3769
 CPINIT        1 00000174 FFFFFFEC     U    2708  6165
 CPJESFLG      1 000009E1 FFFFFFEC     R    4440  4444   4449   4454   4459   4464   4469   4474   4479
1KEYS     (KEYS2010) (12:47) (15MAR04) Ordinary Symbol and Literal Cross Reference                                          Page   37
 CPJESFLY      1 000009FD FFFFFFEC     R    4490  4494   4499   4504
 CPJESHFL      1 000009E0 FFFFFFEC     R    4425  4429   4434   4513   4513
 CPLFLG10      1 00000D59 FFFFFFEC     R    5531  5535
 CPLFLG11      1 00000D5A FFFFFFEC     R    5541  5545   5550   5555   5560
 CPLFLG12      1 00000D5B FFFFFFEC     R    5566  5570
 CPLFLG14      1 00000D5C FFFFFFEC     R    5576  5580   5585   5590   5595   5600
 CPLFLG6       1 00000D55 FFFFFFEC     R    5406  5410   5415   5420   5425   5430   5435
 CPLFLG7       1 00000D56 FFFFFFEC     R    5441  5445   5450   5455   5460   5465
 CPLFLG8       1 00000D57 FFFFFFEC     R    5471  5475   5480   5485   5490
 CPLFLG9       1 00000D58 FFFFFFEC     R    5496  5500   5505   5510   5515   5520   5525
 CPLOCALZ      1 00000C48 FFFFFFEC     U    4998  6159   6159
 CPMFLG        1 0000084F FFFFFFEC     R    4295  4299
 CPMODFLG      1 00000C78 FFFFFFEC     R    5026  5030   5035   5040   5045   5050
 CPNAMELN      1 00000010 FFFFFFEC A   U    3921  4168
 CPNEDPFX     10 00000E29 FFFFFFEC     X    5812  5813   5814
 CPNSCANP      4 0000008C FFFFFFEC     A    2581 10435  10442  10458  10742  10946  11147  11154  11170  11420
 CPNUMFLG      1 00000C79 FFFFFFEC     R    5056  5068
 CPORVCMD      1 00000140 FFFFFFEC     R    2590  2594   2599   2604   2609   2614   2619   2624   2629   2634   2634
                                                  2685   2685
 CPORVFLG      1 00000149 FFFFFFEC     R    2641  2645   2650   2655   2660   2665   2670   2675   2680
 CPORVWF       1 00000150 FFFFFFEC     R    2693  2697
 CPOSCANX      4 00000CA8 FFFFFFEC     F    5225  5292   5292
 CPR          11 0000000B 00000001 A   #    1098  1171U
 CPRACBAD     16 000001FC FFFFFFEC         2759  2793   2793   2794   2794
 CPRACF1       1 000001FC FFFFFFEC     R    2740  2744   2749   2754   2759   2764   2769   2774   2779   2795
 CPRACPSW     32 000001FC FFFFFFEC         2754  2792   2792   2794   2794
 CPRACUND     64 000001FC FFFFFFEC         2749  2792   2792   2793   2793
 CPRCVCUR      4 00000730 FFFFFFEC     A    4076  4078   4078
 CPRFKEYS      8 000008AA FFFFFFEC         4390  7746   7900   8085   8186   8370   8464   8644   8746   9585   9608M
                                                  9743M
 CPRFLG        1 000008AA FFFFFFEC     R    4366  4370   4375   4380   4385   4390   4395
 CPS         254 00000344 FFFFFFEC     X    3510  3513   3514   3516   3516
 CPSACCT       5 000003B4 FFFFFFEC     C    3109  3272   3272
 CPSAMCOD      1 00000A22 FFFFFFEC     R    4562  4570   4580   4590   4599   4608   4617   4627   4636   4645
 CPSAMFLG      1 00000A21 FFFFFFEC     R    4522  4526   4531   4536   4541   4546   4551   4556   4667   4667
 CPSCNFLG      1 00000CD0 FFFFFFEC     R    5238  5249   5258   5269
 CPSCNF2       1 00000CD1 FFFFFFEC     R    5274  5278
 CPSCNMAX      1 00000014 FFFFFFEC A   U    5290  5291
 CPSCRI        2 00000434 FFFFFFEC     H    3499  3504   3504
 CPSEG        60 00000050 FFFFFFEC     X    2579  8870   8895   8917   8939   8957   8979   9001   9019   9041   9063
                                                  9081   9103   9125   9143   9165   9187   9205   9230   9249   9271
                                                  9296   9315   9337   9362   9381   9403   9421   9443   9468   9493
                                                 10630  11555  11583  11608  11627  11649  11667  11692  11711  11739
                                                 11764  11783  11805  11823  11848  11873  11914  11943
 CPSEGCOD      1 00000050 FFFFFFEC     R    2496  2505   2515   2525   2535   2545   2555   2565
 CPSFL         1 00000384 FFFFFFEC     R    2847  2851   2856   2861   2866   2871
 CPSFLG        1 000003F8 FFFFFFEC     R    3387  3391   3396   3401   3406   3411   3416   3421   3426
 CPSFLG2       1 000003F9 FFFFFFEC     R    3432  3436   3441   3446
 CPSFL2        1 00000385 FFFFFFEC     R    2877  2881   2886   2891   2896
 CPSFL3        1 00000386 FFFFFFEC     R    2902  2906   2911   2916
 CPSFL4        1 00000387 FFFFFFEC     R    2922  2926   2931   2936
 CPSFL5        1 00000388 FFFFFFEC     R    2942  2946   2951   2956
 CPSFSPR      32 000003BE FFFFFFEC         3212 10418  11123
 CPSKAFL       1 000003BF FFFFFFEC     R    3243  3247   3252   3257   3262   3267
 CPSKIFL       1 000003BE FFFFFFEC     R    3198  3202   3207   3212   3217   3222   3227   3232   3237
 CPSOF         1 000001F8 FFFFFFEC     X    2730  2732   2732
 CPSOFLAG      1 00000416 FFFFFFEC     R    3457  3461   3466   3471   3476   3481
 CPSOPST       4 000003C4 FFFFFFEC     F    3277  3506   3506
 CPSPORT       8 00000354 FFFFFFEC     C    2841  2961   2961
1KEYS     (KEYS2010) (12:47) (15MAR04) Ordinary Symbol and Literal Cross Reference                                          Page   38
 CPSQFLG       1 000003EC FFFFFFEC     R    3306  3310
 CPSSFLG       1 000003BB FFFFFFEC     R    3116  3120   3125   3130   3135   3140   3145
 CPSSTART      4 00000344 FFFFFFEC     F    2833  2837   2837   3273   3273   3378   3378   3510   3510
 CPSSTAT       1 0000038F FFFFFFEC     R    3053  3057   3062   3067   3072   3077   3082   3087
 CPSTACF       1 000003BC FFFFFFEC     R    3151  3155   3160   3165   3170   3175   3180   3185   3190
 CPSTART       4 00000000 FFFFFFEC     C    2469  6163   6167
 CPSTFLAG      1 000003EA FFFFFFEC     R    3284  3288   3293   3298
 CPSTYPE       1 0000038C FFFFFFEC     R    2966  2975   2985   2995   3005   3015   3025   3035   3045
 CPSUFLG       1 000003EE FFFFFFEC     R    3321  3325   3330   3335   3340   3345   3350   3355   3360
 CPSUFLG2      1 000003EF FFFFFFEC     R    3366  3370   3375
 CPSVPGM       8 0000039C FFFFFFEC     C    3099  3105   3105
 CPS1ST        4 0000038C FFFFFFEC     F    2963  3508   3508
 CPTEMPP#      1 0000005F FFFFFFEC A   U    4416  4418
 CPTRMFL1      1 00000C7A FFFFFFEC     R    5074  5078   5083   5088   5212   5212
 CPTRMFL2      1 00000C7B FFFFFFEC     R    5094  5098   5103   5108   5113   5118   5123
 CPTRMFL3      1 00000C7C FFFFFFEC     R    5129  5133   5138   5143   5148   5153   5158   5163
 CPTRMFL4      1 00000C7D FFFFFFEC     R    5169  5173   5178   5183   5188   5193   5198   5203
 CPUSED        1 00000FBC FFFFFFEC A   U    6163  6164
 CPVACURS      8 00000AF0 FFFFFFEC     D    4941  4942   4943
 CPVCURS       8 00000AE0 FFFFFFEC     D    4935  4936   4937
 CPVFLAG       1 00000AC8 FFFFFFEC     R    4736  4740   4745   4750   4755   4760
 CPVFLAG2      1 00000AC9 FFFFFFEC     R    4766  4770   4775   4780   4785   4790   4795
 CPVFLAG3      1 00000ACA FFFFFFEC     R    4801  4805   4810   4815   4820   4825   4830
 CPVFLAG4      1 00000ACB FFFFFFEC     R    4836  4840   4845   4850
 CPVLFLAG      1 00000ACE FFFFFFEC     R    4905  4909   4914   4919
 CPVMODE       1 00000ACC FFFFFFEC     R    4858  4862   4867   4872   4877   4882   4887   4892   4897
 CPVTWID       2 00000AD0 FFFFFFEC     H    4925  4928   4928
 CPWK1         4 00000D60 FFFFFFEC     F    5609  5624   5647
 CPWK2         4 00000D64 FFFFFFEC     F    5610  5625   5639
 CPWK3         4 00000D68 FFFFFFEC     F    5611  5626   5640
 CPWK4         4 00000D6C FFFFFFEC     F    5612  5627   5641
 CPWK5         4 00000D70 FFFFFFEC     F    5613  5629   5634   5642
 CPWK6         4 00000D74 FFFFFFEC     F    5614  5630   5635   5643   5650   5652
 CPWK7         4 00000D78 FFFFFFEC     F    5615  5628   5644
 CPXFLAG       1 000007FD FFFFFFEC     R    4203  4207
 CPXSTATE      4 000007F8 FFFFFFEC     F    4197  4210   4210
 CV         4016 00000000 FFFFFFEE     J    2372  1180U
 CVABSRTN      4 0000088C FFFFFFEE     V    2186  2161
 CVABTMSG      4 000007CC FFFFFFEE     I    2146 10639B 11357B
 CVBRMSK       1 00000751 FFFFFFEE     X    2102  2103   2104
 CVCFLAG       1 00000A00 FFFFFFEE     R    2267  2271   2276   2281   2286   2291
 CVCHKST       8 000009F0 FFFFFFEE     D    2257  2347   2347
 CVCHKST2      8 00000E28 FFFFFFEE     D    2350  2353   2353
 CVCHRIS       4 0000025C FFFFFFEE     A    1513  7047  10744  10824  10948  11028  11538
 CVCOMRTN      4 0000087C FFFFFFEE     V    2182  2152
 CVDBGFLG      1 000004CC FFFFFFEE     R    1956  1960
 CVENT         4 0000074C FFFFFFEE     I    2100  6920B  7489B  7648B  7984B  8269B  8546B  8814B  9554B  9700B  9795B
                                                 10062B 10383B 10596B 10679B 10803B 10883B 11007B 11093B 11332B 11397B
                                                 11512B
 CVENTBR       2 00000750 FFFFFFEE     I    2101  2102
 CVERROR       4 000007D6 FFFFFFEE     I    2150  2166B
 CVEXIRTN      4 0000077C FFFFFFEE     V    2130  2126
 CVFCHRKBPR
               8 000004C9 FFFFFFEE         1871  1887   1887
 CVFCHRKBSE
               4 000004C9 FFFFFFEE         1876  1887   1887
 CVFCHRKCPR
               2 000004C9 FFFFFFEE         1893  1909   1909
 CVFCHRKCSE
1KEYS     (KEYS2010) (12:47) (15MAR04) Ordinary Symbol and Literal Cross Reference                                          Page   39
               1 000004C9 FFFFFFEE         1898  1909   1909
 CVFCHRUBPR
             128 000004C9 FFFFFFEE         1827  1843   1843
 CVFCHRUBSE
              64 000004C9 FFFFFFEE         1832  1843   1843
 CVFCHRUCPR
              32 000004C9 FFFFFFEE         1849  1865   1865   7243M  7415M  7534M
 CVFCHRUCSE
              16 000004C9 FFFFFFEE         1854  1865   1865
 CVFL          1 000004C4 FFFFFFEE     R    1623  1627   1632   1637   1642   1647   1652   1657   1662
 CVFL2         1 000004C5 FFFFFFEE     R    1668  1672   1677   1682   1687   1692   1697   1702   1707
 CVFL3         1 000004C6 FFFFFFEE     R    1713  1717   1722   1727   1732   1737   1742   1747   1752
 CVFL4         1 000004C7 FFFFFFEE     R    1758  1762   1767   1772   1777   1782   1787   1792
 CVFL5         1 000004C8 FFFFFFEE     R    1798  1802   1807   1812   1817
 CVFL6         1 000004C9 FFFFFFEE     R    1823  1827   1832   1844   1849   1854   1866   1871   1876   1888   1893
                                                  1898   1910  11143  11245M
 CVHEAP#       1 00000200 FFFFFFEE A   U    1529  1530
 CVINVRTN      4 00000888 FFFFFFEE     V    2185  2155
 CVJESFLG      1 000004CA FFFFFFEE     R    1916  1920
 CVLNKRGS      4 00000780 FFFFFFEE     F    2132  2107M  2133   9594M  9642M
 CVLNKRTN      4 000007B0 FFFFFFEE     U    2133  2122M
 CVLOCK1       1 00000088 FFFFFFEE     R    1274  1278   1283
 CVLOCK2       1 00000089 FFFFFFEE     R    1288  1292
 CVLOCK3       1 0000008A FFFFFFEE     R    1297  1301
 CVLOCK4       1 0000008B FFFFFFEE     R    1306  1310
 CVLOGMOD      1 00000068 FFFFFFEE     R    1261  1265
 CVMACH        1 00000067 FFFFFFEE     R    1221  1225   1230   1235   1240   1245   1250   1255
 CVMILRTN      4 00000884 FFFFFFEE     V    2184  2164
 CVNEXT        4 000007DE FFFFFFEE     I    2152  9498B 10465B 11246B 11948B
 CVNOARTN      4 00000890 FFFFFFEE     V    2187  2158
 CVNWDATE      4 00000608 FFFFFFEE     F    1989  1993   1993
 CVNWMPG#      1 00000008 FFFFFFEE A   U    1991  1992
 CVPFXRTN      1 00000000 00000000 A   T    2130  2130
 CVPGFLAG      1 00000A01 FFFFFFEE     R    2297  2301   2306   2311
 CVPIOSZ       1 00004F80 FFFFFFEE A   U    1360  1362
 CVPPDBQH      4 0000009C FFFFFFEE     A    1318  1319
 CVPSFNO       1 000003E9 FFFFFFEE A   N    1482  1484
 CVPSLNO       1 000007CF FFFFFFEE A   N    1483  1484
 CVPXSZ        1 00000008 FFFFFFEE A   U    1361  1362
 CVR          12 0000000C 00000001 A   #    1111  1180U
 CVRKEY        1 00000008 FFFFFFEE A   U    2055  2056   9616   9728
 CVSEGRTN      4 00000880 FFFFFFEE     V    2183  2147
 CVSTACK#      1 00000080 FFFFFFEE A   U    1521  1522
 CVSTART       4 00000000 FFFFFFEE     C    1194  2365
 CVTRC         4 00000768 FFFFFFEE     I    2122  2108B  9595B  9643B
 CVTRCRTN      4 00000778 FFFFFFEE     V    2129  2123
 CVUSFNO       1 00000001 FFFFFFEE A   N    1489  1491
 CVUSLNO       1 000003E7 FFFFFFEE A   N    1490  1491
 CVVOL#        1 00000005 FFFFFFEE A   U    2340  2341
 CVWTOFLG      1 000004CB FFFFFFEE     R    1926  1930   1935   1940   1945   1950
 DEBUGSG       1 00000000 00000000 A   T    2083  2083
 DEV          12 00000000 FFFFFFEB     J    4721  4729
 DEVMAX#       1 00000002 FFFFFFEC A   U    4672  4729
 DEVTYPE       1 00000001 FFFFFFEB     R    4689  4698   4708
 DOTTBL        1 00000000 00000000 A   T    2199  2199
 DRENCFLG      1 00000F9F FFFFFFEC     R    6127  6131   6136   6141   6146   6151
 DRENPROT      1 00000F9E FFFFFFEC     R    6114  6122
 DSNON        40 00000E90 FFFFFFEC     C    5847  5848
 DSNWADSN     44 00000E5C FFFFFFEC     C    5834  5835   5836   5837   5846   5854   6085   6091   6093   6099   6102
1KEYS     (KEYS2010) (12:47) (15MAR04) Ordinary Symbol and Literal Cross Reference                                          Page   40
                                                  6104   6107   6156
 DSNWAF4       1 00000F37 FFFFFFEC     R    5902  5906   5911   5916   5921   5926   5931   5936   5941
 DSNWAF5       1 00000F38 FFFFFFEC     R    5947  5951   5956   5961   5966   5971   5976   5981   5986
 DSNWAF6       1 00000F39 FFFFFFEC     R    5992  5996   6001   6006   6011   6016   6021   6026   6031
 DSNWAF7       1 00000F3A FFFFFFEC     R    6037  6041   6046   6051   6056
 DSNXG         1 00000004 FFFFFFEC A   U    5839  5841
 DSNXGL        1 00000003 FFFFFFEC A   U    5840  5841
 DSNXU         1 00000007 FFFFFFEC A   U    5841  5843
 DSNXUL        1 00000004 FFFFFFEC A   U    5842  5843
 DSSIZ         1 00000108 FFFFFFEC A   U    6085  6093   6102   6107
 EBCTBL        1 00000000 00000000 A   T    2195  2195
 EBCTBL7       1 00000000 00000000 A   T    2198  2198
 ECBLIST       1 00000000 00000000 A   T    2058  2058
 EPARTBL       1 00000000 00000000 A   T    2190  2190
 FREERSC       1 00000000 0000000A     T   10323 10323
 FSR           0 00000000 00000001 A   #    1021  7484   7599M  7643   7883M  7938M  7979   8224M  8264   8502M  8541
                                                  8784M  8809   9518M  9790  10016M 10057  10296M 10378  10480M 10591
                                                 10654M 10674  10778M 10798  10858M 10878  10982M 11002  11062M 11088
                                                 11261M 11327  11372M 11392  11482M 11507  11963M
 GETCORE       1 00000000 00000002     T   10307 10307
 GETRSC        1 00000000 00000009     T   10322 10322
 HIBAL         1 00000000 FFFFFFFF     J     691   707    720    733    746    759    772    785    798    811    824
                                                   837    850    863    876    889    902
 IHB1324A      2 000001C0 00000001     H    7206  7178B
 IHB1405A      2 000002A0 00000001     H    7378  7350B
 INVALID       1 00000000 00000000 A   T    2185  2185
 JCBAFL        1 00000062 FFFFFFE9     R    6433  6437   6442   6447   6452   6457   6462   6467   6472
 JCBBFL        1 00000063 FFFFFFE9     R    6478  6482   6487   6492   6497   6502   6507   6512
 JCBBILLX      8 00000088 FFFFFFE9     D    6563  6571   6571
 JCBRSCF1      1 00000064 FFFFFFE9     R    6518  6522   6527   6532
 JCBSFLG1      1 00000065 FFFFFFE9     R    6538  6542   6547
 JCBWFL        1 00000060 FFFFFFE9     R    6362  6366   6371   6376   6381   6386   6391   6396   6401   6429
 JCBWWFL       1 00000061 FFFFFFE9     R    6407  6411   6416   6421   6426
 KEYADD        2 0000058A 00000001     H    8255  8251
 KEYCFINIT
             128 00000060 00000001         6681  6971   6990M
 KEYCFNA      16 00000060 00000001         6696 10134M
 KEYCFOPEN
              64 00000060 00000001         6686  7012   7090M  7544   7559M  7707   7731   8046   8070   8331   8355
                                                  8605   8629  11230  11895
 KEYCLOSE      2 00000378 00000001     H    7475 10328  11983
 KEYCNADD      4 0000002C 00000001     F    6654  8398   8399M  9113
 KEYCNDEL      4 00000030 00000001     F    6655  8672   8673M  9175
 KEYCNIO       4 00000020 00000001     F    6651  7770   7771M  8107   8108M  8392   8393M  8666   8667M  8927
 KEYCNRD       4 00000024 00000001     F    6652  7776   7777M  8989
 KEYCNWR       4 00000028 00000001     F    6653  8113   8114M  9051
 KEYDEL        2 00000648 00000001     H    8532  8528
 KEYDOMID      4 0000005C 00000001     A    6673  6997M  6997   7101M  7101   7108   7117M  7117   7147M  7147   7228M
                                                  7294M  7294   7400M
 KEYFILE       1 00000062 00000001     C    6710  7762M  8101M  8386M  8660M  9864
 KEYFUCPR    128 00000061 00000001         6706  7695   8034   8319   8593  11192  11218  11439M 11463M
 KEYFWORK      1 00000061 00000001     R    6702  6706  11143M 11245
 KEYGET        2 000003DA 00000001     H    7634  7630
 KEYOPEN       2 00000064 00000001     H    6906 10311  11984
 KEYPUT        2 000004CC 00000001     H    7970  7966
 KEYSBUFL      1 00004030 00000001 A   U    6648 10306
 KEYSCHAD      4 00000044 00000001     A    6661  7035M  7067   7565   7578M  7578   9921   9966
 KEYSCHRC      4 00000038 00000001     A    6658  7275M  7417M  7881M  7917   8176M  8203   8454M  8481   8736M  8763
                                                  9391
1KEYS     (KEYS2010) (12:47) (15MAR04) Ordinary Symbol and Literal Cross Reference                                          Page   41
 KEYSECB       4 00000034 00000001     F    6656  9913M  9913   9914   9952
 KEYSFLAG      1 00000060 00000001     R    6677  6681   6686   6691   6696
 KEYSLCDE      4 00000040 00000001     A    6660  7069M  9259  10099M
 KEYSTBL       8 00000018 00000001     D    6649  6951U  7520U  7679U  8015U  8300U  8577U  8850U  9823U 10305  11976
 KEYSTCDE      4 0000003C 00000001     A    6659  9325  10106M 10106  10168M
 KEYSTMXL      1 00004000 00000001 A   U    6647  6648  10313
 KEYS2010      1 00000000 00000001     R    1011  1009
 KEYUFUNC      4 00000054 00000001     A    6668  6664   7064M  7562M  9431   9918M  9963M
 KEYUWORK      4 00000058 00000001     A    6669  6665
 KRSCFREE      2 00000984 00000001     H    9686  9682  10316
 KRSCGET       2 0000090A 00000001     H    9540 10312
 LOWTBL        1 00000000 00000000 A   T    2193  2193
 LSR           8 00000008 00000001 A   #    1059  6915   7438M  7484   7599M  7643   7938M  7979   8224M  8264   8502M
                                                  8541   8784M  8809   9518M  9549   9664M  9695   9758M  9790  10016M
                                                 10057  10296M 10378  10480M 10591  10654M 10674  10778M 10798  10858M
                                                 10878  10982M 11002  11062M 11088  11261M 11327  11372M 11392  11482M
                                                 11507  11963M
 MALL          1 00000000 0000000F     T   10575 10575  11311
 MILERR        1 00000000 00000000 A   T    2184  2184
 MNULL         1 00000000 0000000C     T   10500 10500  11281
 MPARM         1 00000000 0000000D     T   10515 10515  10545  11296
 MPINT         1 00000000 0000000E     T   10530 10530  10560
 MSG1         34 000002DA 00000001     C    7445  7444
 MSG1DESC      2 000002D8 00000001     R    7444  7211
 MSG1END       1 00000319 00000001     U    7448  7444
 MSG1RC       10 000002FC 00000001     C    7446  7175M
 MSG2         30 0000031B 00000001     C    7451  7450
 MSG2DESC      2 00000319 00000001     R    7450  7383
 MSG2END       1 00000378 00000001     U    7456  7450
 MSG2RC       10 0000035B 00000001     C    7454  7347M
 MSG2SYSC     22 00000345 00000001     C    7453  7323M
 NBLTBL        1 00000000 00000000 A   T    2197  2197
 NOACTION      1 00000000 00000000 A   T    2187  2187
 NOTVALID      1 00000000 00000010     T   11977 10576  11312  11977
 NPARTBL       1 00000000 00000000 A   T    2191  2191
 NSCAN         1 00000000 00000011     T   11979 11979
 NSCNCB      176 00000000 FFFFFFED     J    2456  2582  10443  10444  10445  10448M 10449M 10451M 10461M 10462M 10463M
                                                 10743  10947  11155  11156  11157  11160M 11161M 11163M 11173M 11174M
                                                 11175M 11421
 NSCNFLGS      1 00000008 FFFFFFED     R    2393  2397   2402
 NSCNKWS       4 00000028 FFFFFFED     A    2442 10443  10451M 10461M 11155  11163M 11173M
 NSCNSKIP      4 00000024 FFFFFFED     A    2441 10444  10448M 10462M 11156  11160M 11174M
 NSCNSTOP      4 00000020 FFFFFFED     A    2440 10445  10449M 10463M 11157  11161M 11175M
 NSCNTOK      16 00000030 FFFFFFED     C    2444 10743  10947  11421
 NSCNTYPE      1 00000018 FFFFFFED     R    2411  2415   2420   2425   2430   2435
 RAR          14 0000000E 00000001 A   #    1137  2122   2123M  2124B  2126M  2127B  2147M  2148B  2152M  2153B  2155M
                                                  2156B  2158M  2159B  2161M  2162B  2164M  2165M  2165B  2171   6912
                                                  6981M  6982M  6982B  7173M  7174M  7174B  7321M  7322M  7322B  7345M
                                                  7346M  7346B  7440M  7443B  7481   7601M  7604B  7640   7715M  7716M
                                                  7716B  7755M  7756M  7756B  7816M  7817M  7817B  7909M  7910M  7910B
                                                  7940M  7943B  7976   8054M  8055M  8055B  8094M  8095M  8095B  8153M
                                                  8154M  8154B  8195M  8196M  8196B  8226M  8229B  8261   8339M  8340M
                                                  8340B  8379M  8380M  8380B  8431M  8432M  8432B  8473M  8474M  8474B
                                                  8504M  8507B  8538   8613M  8614M  8614B  8653M  8654M  8654B  8713M
                                                  8714M  8714B  8755M  8756M  8756B  8786M  8789B  8806   8837M  8838M
                                                  8838B  8873M  8874M  8874B  8898M  8899M  8899B  8920M  8921M  8921B
                                                  8942M  8943M  8943B  8960M  8961M  8961B  8982M  8983M  8983B  9004M
                                                  9005M  9005B  9022M  9023M  9023B  9044M  9045M  9045B  9066M  9067M
                                                  9067B  9084M  9085M  9085B  9106M  9107M  9107B  9128M  9129M  9129B
1KEYS     (KEYS2010) (12:47) (15MAR04) Ordinary Symbol and Literal Cross Reference                                          Page   42
                                                  9146M  9147M  9147B  9168M  9169M  9169B  9190M  9191M  9191B  9208M
                                                  9209M  9209B  9233M  9234M  9234B  9252M  9253M  9253B  9274M  9275M
                                                  9275B  9299M  9300M  9300B  9318M  9319M  9319B  9340M  9341M  9341B
                                                  9365M  9366M  9366B  9384M  9385M  9385B  9406M  9407M  9407B  9424M
                                                  9425M  9425B  9446M  9447M  9447B  9471M  9472M  9472B  9496M  9497M
                                                  9497B  9520M  9523B  9546   9625M  9626M  9626B  9666M  9669B  9692
                                                  9735M  9736M  9736B  9760M  9763B  9787   9939M  9940M  9940B  9955M
                                                  9956M  9956B  9984M  9985M  9985B 10018M 10021B 10054  10127M 10128M
                                                 10128B 10298M 10301B 10375  10427M 10428M 10428B 10454M 10455M 10455B
                                                 10482M 10485B 10588  10633M 10634M 10634B 10656M 10659B 10671  10734M
                                                 10735M 10735B 10780M 10783B 10795  10860M 10863B 10875  10938M 10939M
                                                 10939B 10984M 10987B 10999  11064M 11067B 11085  11132M 11133M 11133B
                                                 11166M 11167M 11167B 11180M 11181M 11181B 11201M 11202M 11202B 11239M
                                                 11240M 11240B 11263M 11266B 11324  11374M 11377B 11389  11484M 11487B
                                                 11504  11558M 11559M 11559B 11586M 11587M 11587B 11611M 11612M 11612B
                                                 11630M 11631M 11631B 11652M 11653M 11653B 11670M 11671M 11671B 11695M
                                                 11696M 11696B 11714M 11715M 11715B 11742M 11743M 11743B 11767M 11768M
                                                 11768B 11786M 11787M 11787B 11808M 11809M 11809B 11826M 11827M 11827B
                                                 11851M 11852M 11852B 11876M 11877M 11877B 11917M 11918M 11918B 11946M
                                                 11947M 11947B 11965M 11968B
 REQDATA       1 00000030 FFFFFFE7     X    6822  7789   7844   8126   8404   8678
 REQECBPT      4 00000024 FFFFFFE7     A    6818  9915M
 REQFID      128 0000000C FFFFFFE7         6750  9896M
 REQFIMRET
              32 0000000C FFFFFFE7         6760  9906M
 REQFKerb      1 0000000C FFFFFFE7         6785  9875M
 REQFLAGS      1 0000000C FFFFFFE7     R    6746  6750   6755   6760   6765   6770   6775   6780   6785
 REQFLAG1      1 0000000D FFFFFFE7     R    6790  6794
 REQID         4 00000000 FFFFFFE7     C    6733  6821   9849M
 REQLEN        4 00000004 FFFFFFE7     A    6734  7834   9852M
 REQRDUP       1 00000008 FFFFFFE7 A   U    6804 10331
 REQRETRN      4 00000018 FFFFFFE7     A    6801 10169
 REQRFUL       1 00000010 FFFFFFE7 A   U    6806 10333
 REQRIOE       1 00000018 FFFFFFE7 A   U    6808 10334
 REQRRNF       1 00000004 FFFFFFE7 A   U    6803 10329
 REQR15        4 00000010 FFFFFFE7     A    6799  6814  10168
 REQTYPE       4 00000008 FFFFFFE7     A    6735  9850M
 RQTADD        1 00000004 FFFFFFE7 A   U    6737  8428
 RQTDEL        1 0000000C FFFFFFE7 A   U    6739  8710
 RQTREAD       1 00000000 FFFFFFE7 A   U    6736  7813
 RQTUPD        1 00000008 FFFFFFE7 A   U    6738  8150
 R0            0 00000000 FFFFFFFF A   #     699  2107   2176M  6915   6977M  7035   7063M  7064   7163M  7311M  7335M
                                                  7438M  7561M  7562   7793   7805M  7810   7811   7843M  7846M  7848M
                                                  7874M  7874   7883   7883M  8021   8130   8142M  8147   8148   8306
                                                  8408   8420M  8425   8426   8689   8701M  8706   8707   8862M  8887M
                                                  8887   8909M  8931M  8931   8949M  8971M  8993M  8993   9011M  9033M
                                                  9055M  9055   9073M  9095M  9117M  9117   9135M  9157M  9179M  9179
                                                  9197M  9222M  9222   9241M  9263M  9263   9288M  9288   9307M  9329M
                                                  9329   9354M  9354   9373M  9395M  9395   9413M  9435M  9435   9460M
                                                  9460   9485M  9485   9594   9620M  9620   9642   9732M  9732   9851M
                                                  9852   9914M  9915   9917M  9918   9951M  9951   9962M  9963  10439M
                                                 10439  10448  10449  10622M 10638M 10838  11042  11151M 11151  11160
                                                 11161  11356M 11547M 11575M 11600M 11600  11619M 11641M 11641  11659M
                                                 11684M 11684  11703M 11731M 11756M 11756  11775M 11797M 11797  11815M
                                                 11840M 11840  11865M 11865  11906M 11935M 11935
 R1            1 00000001 FFFFFFFF A   #     712  2170M  2171M  2177M  6983   7037M  7045U  7066M  7170M  7228   7300
                                                  7318M  7342M  7400   7564M  7790   7845M  7849M  7875M  7883   8020
                                                  8127   8305   8405   8686   8861M  8927M  8948M  8989M  9010M  9051M
                                                  9072M  9113M  9134M  9175M  9196M  9240M  9259M  9306M  9325M  9372M
1KEYS     (KEYS2010) (12:47) (15MAR04) Ordinary Symbol and Literal Cross Reference                                          Page   43
                                                  9391M  9412M  9431M  9616M  9728M  9825M  9838U  9920M  9952M  9965M
                                                 10435M 10448  10449  10451  10621M 10637M 10712  10725  10742M 10743M
                                                 10743  10758  10916  10929  10946M 10947M 10947  10962  11147M 11160
                                                 11161  11163  11355M 11420M 11421M 11421  11422  11444  11546M 11570M
                                                 11618M 11637M 11658M 11702M 11726M 11774M 11793M 11814M 11905M
 R12          12 0000000C FFFFFFFF A   #     855  2133
 R13          13 0000000D FFFFFFFF A   #     868 10443  10444  10445  10461  10462  10463  11155  11156  11157  11173
                                                 11174  11175
 R14          14 0000000E FFFFFFFF A   #     881  2108M  7068M  7566M  7779M  7787U  7789M  7812M  7833M  7844M  7846M
                                                  8116M  8124U  8126M  8149M  8401M  8404M  8427M  8675M  8678M  8708M
                                                  9595M  9643M  9922M  9967M 10442M 10443  10444  10445  10450M 10451
                                                 10458M 10461  10462  10463  11154M 11155  11156  11157  11162M 11163
                                                 11170M 11173  11174  11175
 R15          15 0000000F FFFFFFFF A   #     894  2107   7067M  7068B  7069   7079M  7079   7222M  7222   7244M  7269M
                                                  7269   7275   7324M  7394M  7394   7416M  7417   7442M  7442   7565M
                                                  7566B  7603M  7603   7769M  7770M  7771   7775M  7776M  7777   7811M
                                                  7827M  7827   7834M  7835M  7836   7840   7842M  7845   7847M  7847
                                                  7870M  7881   7917M  7918M  7918   7942M  7942   8106M  8107M  8108
                                                  8112M  8113M  8114   8148M  8170M  8176   8203M  8204M  8204   8228M
                                                  8228   8391M  8392M  8393   8397M  8398M  8399   8426M  8448M  8454
                                                  8481M  8482M  8482   8506M  8506   8665M  8666M  8667   8671M  8672M
                                                  8673   8707M  8730M  8736   8763M  8764M  8764   8788M  8788   8870M
                                                  8895M  8917M  8939M  8957M  8979M  9001M  9019M  9041M  9063M  9081M
                                                  9103M  9125M  9143M  9165M  9187M  9205M  9230M  9249M  9271M  9296M
                                                  9315M  9337M  9362M  9381M  9403M  9421M  9443M  9468M  9493M  9522M
                                                  9522   9549   9594   9621M  9622M  9622   9642   9664M  9668M  9668
                                                  9695   9758M  9762M  9762   9921M  9922B  9931M  9931   9966M  9967B
                                                  9976M  9976  10020M 10020  10093M 10093  10099  10107  10135M 10188M
                                                 10211M 10234M 10257M 10300M 10300  10464M 10464  10484M 10484  10630M
                                                 10658M 10658  10782M 10782  10862M 10862  10986M 10986  11066M 11066
                                                 11176M 11176  11265M 11265  11376M 11376  11486M 11486  11555M 11583M
                                                 11608M 11627M 11649M 11667M 11692M 11711M 11739M 11764M 11783M 11805M
                                                 11823M 11848M 11873M 11914M 11943M 11967M 11967
 R2            2 00000002 FFFFFFFF A   #     725  7047M  7055U  7300M  7324   7764   7790M  7812M  7813M  8101   8127M
                                                  8149M  8150M  8386   8405M  8427M  8428M  8660   8686M  8708M  8710M
                                                  9850  10151M 10164U 11538M
 R3            3 00000003 FFFFFFFF A   #     738  7763   7810M  7836M  7848   8147M  8425M  8706M 10107M 10119  10169M
                                                 10181  10204  10227  10250
 R4            4 00000004 FFFFFFFF A   #     751  7762   7763M  7843   7849   7875   8020M  8305M
 R5            5 00000005 FFFFFFFF A   #     764  7764M  7840   7842   8021M  8306M 10744M 10754U 10824M 10834U 10948M
                                                 10958U 11028M 11038U
 R6            6 00000006 FFFFFFFF A   #     777  6941M  6951U  7510M  7520U  7669M  7679U  8005M  8015U  8290M  8300U
                                                  8567M  8577U  8840M  8850U  9823U 10404M 11138M 11533M
 R7            7 00000007 FFFFFFFF A   #     790  2100M  2100   2101B  2113B
 SCANCHK       1 00000000 00000012     T   11982 11982
 SDSNQSZ       1 0000002C FFFFFFEC A   U    6088  6089   6090
 SEG           1 00000000 00000008     T   10321 10321  11980
 SEGCOL        1 00000000 00000006     T   10319 10319
 SEGCR         1 00000000 00000005     T   10318 10318  11985
 SEGDC         1 00000000 00000007     T   10320 10320  11986
 SETCHR        2 00000C3C 00000001     H   10369 10365
 SETCHRU       2 00000F02 00000001     H   11079 11075
 SHOWCHR       2 000010C0 00000001     H   11498 11494
 SHOWKINF      2 00000702 00000001     H    8800  8796
 SPR          13 0000000D 00000001 A   #    1124  6912   6915   6916   6917M  6917   7434M  7438   7440   7481   7484
                                                  7485   7486M  7486   7595M  7599   7601   7640   7643   7644   7645M
                                                  7645   7934M  7938   7940   7976   7979   7980   7981M  7981   8220M
                                                  8224   8226   8261   8264   8265   8266M  8266   8498M  8502   8504
                                                  8538   8541   8542   8543M  8543   8780M  8784   8786   8806   8809
1KEYS     (KEYS2010) (12:47) (15MAR04) Ordinary Symbol and Literal Cross Reference                                          Page   44
                                                  8810   8811M  8811   9514M  9518   9520   9546   9549   9550   9551M
                                                  9551   9660M  9664   9666   9692   9695   9696   9697M  9697   9754M
                                                  9758   9760   9787   9790   9791   9792M  9792  10012M 10016  10018
                                                 10054  10057  10058  10059M 10059  10292M 10296  10298  10375  10378
                                                 10379  10380M 10380  10476M 10480  10482  10588  10591  10592  10593M
                                                 10593  10650M 10654  10656  10671  10674  10675  10676M 10676  10774M
                                                 10778  10780  10795  10798  10799  10800M 10800  10854M 10858  10860
                                                 10875  10878  10879  10880M 10880  10978M 10982  10984  10999  11002
                                                 11003  11004M 11004  11058M 11062  11064  11085  11088  11089  11090M
                                                 11090  11257M 11261  11263  11324  11327  11328  11329M 11329  11368M
                                                 11372  11374  11389  11392  11393  11394M 11394  11478M 11482  11484
                                                 11504  11507  11508  11509M 11509  11959M 11963  11965
 STCHKPAT      2 00000E02 00000001     H   10665 10516
 STCHKTIM      2 00000E52 00000001     H   10789 10531
 STCHRNUL      2 00000DBC 00000001     H   10582 10501
 STCHROPT      4 00000CCC 00000001     F   10489 11978
 STCHUCHR      2 00001074 00000001     H   11383 11297
 STCHUNUL      2 00001040 00000001     H   11318 11282
 STCHUPAT      2 00000E82 00000001     H   10869 10546
 STCHUPR       4 00000FC8 00000001     F   11270 11981
 STCHUTIM      2 00000ED2 00000001     H   10993 10561
 TRC           1 00000000 00000000 A   T    2129  2129
 TTYFLAG       1 00000004 FFFFFFEA     R    6217  6221
 TTYMAX#       1 00000006 FFFFFFEA A   U    6273  6274
 TTYTFLAG      1 00000005 FFFFFFEA     R    6227  6231   6236   6241   6246   6251   6256   6261
 UIDDATA     268 00000040 FFFFFFE8     C    6620  6622
 UIDDL#        1 0000010C FFFFFFE8 A   N    6611  6620   6626
 UIDKL#        1 00000040 FFFFFFE8 A   N    6610  6619
 UPPTBL        1 00000000 00000000 A   T    2192  2192
 USINID        4 00000000 FFFFFFE6     C    6848  7057M
 USINPATH      8 00000004 FFFFFFE6     C    6849  7058M
 USINPRMS     16 00000000 FFFFFFE6     J    6857  7045U 10003U
 USINTOUT      4 0000000C FFFFFFE6     A    6850  7059M
 USRHDR       48 00000000 FFFFFFE7 C   C    6821  6648   9848M  9848  10315
 USRREQ      560 00000000 FFFFFFE7     J    6831  6821   6824   7787U  8124U  9838U 10164U
 WAITECB       1 00000000 0000000B     T   10326 10326
 WAR           8 00000008 00000001 A   #    1047  6916M  7434   7485M  7595   7644M  7883   7934   7980M  8220   8265M
                                                  8498   8542M  8780   8810M  9514   9550M  9660   9696M  9754   9791M
                                                 10012  10058M 10292  10379M 10476  10592M 10650  10675M 10774  10799M
                                                 10854  10879M 10978  11003M 11058  11089M 11257  11328M 11368  11393M
                                                 11478  11508M 11959
 WTOSG         1 00000000 00000000 A   T    2089  2089
 WYLKEYS       1 00000000 00000001     J    1001  1003   1029   1042   1055   1067   1080   1093   1106   1119   1132
                                                  1145   2373   2457   6197   6309   6589   6593   6636   6640   6832
                                                  6858   6891
 =A(-1)        4 00000B90 00000001     A   10335 10257
 =A(CHRISCDS)
               4 00000B68 00000001     A   10325  9939   9984
 =A(CHRISIO)
               4 00000B3C 00000001     A   10314  7816   8153   8431   8713
 =A(KEYCLOSE)
               4 00000B74 00000001     A   10328 10127
 =A(KEYCLOSE)
               4 0000126C 00000001     A   11983 11201
 =A(KEYOPEN)
               4 00000B30 00000001     A   10311  7715   8054   8339   8613
 =A(KEYOPEN)
               4 00001270 00000001     A   11984 11239
 =A(KEYSBUFL)
1KEYS     (KEYS2010) (12:47) (15MAR04) Ordinary Symbol and Literal Cross Reference                                          Page   45
               4 00000B1C 00000001     A   10306  6977
 =A(KEYSTBL)
               4 00000B18 00000001     A   10305  6941   7510   7669   8005   8290   8567   8840
 =A(KEYSTBL)
               4 00001250 00000001     A   11976 10404  11138  11533
 =A(KEYSTMXL)
               4 00000B38 00000001     A   10313  7793   7805   8130   8142   8408   8420   8689   8701
 =A(KRSCFREE)
               4 00000B44 00000001     A   10316  7909   8195   8473   8755
 =A(KRSCGET)
               4 00000B34 00000001     A   10312  7755   8094   8379   8653
 =A(L'USRHDR)
               4 00000B40 00000001     A   10315  7835   9851
 =A(REQRDUP)
               4 00000B80 00000001     A   10331 10204
 =A(REQRFUL)
               4 00000B88 00000001     A   10333 10227
 =A(REQRIOE)
               4 00000B8C 00000001     A   10334 10250
 =A(REQRRNF)
               4 00000B78 00000001     A   10329 10181
 =A(STCHROPT)
               4 00001258 00000001     A   11978 10450
 =A(STCHUPR)
               4 00001264 00000001     A   11981 11162
 =A(1)         4 00000B7C 00000001     A   10330 10188
 =A(3)         4 00000B84 00000001     A   10332 10211
 =A(4)         4 00000B70 00000001     A   10327 10119  10234
 =C'  ADDs'
               6 00000BA0 00000001     C   10338  9134
 =C'  DELETEs'
               9 00000BB7 00000001     C   10340  9196
 =C'  GETs'
               6 00000B94 00000001     C   10336  9010
 =C'  PUTs'
               6 00000B9A 00000001     C   10337  9072
 =C'  Total requests'
              16 00000B08 00000001     C   10304  8948
 =C' (hundredths of a second)'
              25 000012FA 00000001     C   11993 11658  11814
 =C' for function code '
              19 00000C15 00000001     C   10344  9412
 =C' Last function return code was '
              31 00000BF6 00000001     C   10343  9372
 =C' Last SEND return code was '
              27 00000BC0 00000001     C   10341  9240
 =C' Last VSAM return code was '
              27 00000BDB 00000001     C   10342  9306
 =C'Christa not open'
              16 00001240 00000001     C   11975 11905
 =C'Christa Keyword path is '
              24 00001208 00000001     C   11973 11546
 =C'Christa Keyword timeout value = '
              32 00001220 00000001     C   11974 11618
 =C'Christa UserID path is '
              23 00001313 00000001     C   11994 11702
 =C'Christa UserID timeout value = '
              31 0000132A 00000001     C   11995 11774
 =C'Keys information:'
1KEYS     (KEYS2010) (12:47) (15MAR04) Ordinary Symbol and Literal Cross Reference                                          Page   46
              17 00000BA6 00000001     C   10339  8861
 =C'KTIME, or UTIME value.'
              22 000012AC 00000001     C   11989 10637
 =C'Missing Christa option; specify KPATH, UPATH, '
              46 0000127E 00000001     C   11988 10621
 =C'Missing UserID access method; specify CHRISTA='
              46 000012C2 00000001     C   11990 11355
 =C'OFF'       3 000012F7 00000001     C   11992 11444
 =C'PRIMARY'
               7 000012F0 00000001     C   11991 11422
 =C'USIN'      4 00000B24 00000001     C   10308  7057
 =C'USIO'      4 00000B64 00000001     C   10324  9849
 =F'-3'        4 00000B2C 00000001     F   10310  7244   7416   7870   8170   8448   8730  10135
 =V(BTX)       4 00000B28 00000001     V   10309  7173   7321   7345
 =V(COLLOPTS)
               4 00000B48 00000001     V   10317  8837
 =V(FREERSC)
               4 00000B60 00000001     V   10323  9735
 =V(GETCORE)
               4 00000B20 00000001     V   10307  6981
 =V(GETRSC)
               4 00000B5C 00000001     V   10322  9625
 =V(NOTVALID)
               4 00001254 00000001     V   11977 10427  10734  10938  11132
 =V(NSCAN)
               4 0000125C 00000001     V   11979 10454  11166
 =V(SCANCHK)
               4 00001268 00000001     V   11982 11180
 =V(SEG)       4 00000B58 00000001     V   10321  9252   9318   9384   9424
 =V(SEG)       4 00001260 00000001     V   11980 10633  11558  11586  11630  11670  11714  11742  11786  11826  11917
 =V(SEGCOL)
               4 00000B50 00000001     V   10319  8920   8982   9044   9106   9168
 =V(SEGCR)
               4 00000B4C 00000001     V   10318  8873   8898   8960   9022   9084   9146   9208   9233   9299   9365
                                                  9471   9496
 =V(SEGCR)
               4 00001274 00000001     V   11985 11611  11695  11767  11851  11876  11946
 =V(SEGDC)
               4 00000B54 00000001     V   10320  8942   9004   9066   9128   9190   9274   9340   9406   9446
 =V(SEGDC)
               4 00001278 00000001     V   11986 11652  11808
 =V(WAITECB)
               4 00000B6C 00000001     V   10326  9955
 =Y((12+3)/4*4)
               2 0000127C 00000001     Y   11987 10460  11172

1KEYS     (KEYS2010) (12:47) (15MAR04) Macro and Copy Code Source Summary                                                   Page   47
- Con Source                                        Volume    Members                        HLASM R4.0  2004/03/15 12.47
0     PRIMARY INPUT                                           CSECT    DROP     END      EX       LTORG    POP
                                                              PRINT    PUSH     START    USING
   L1 WYL.GS.WYL.WYLBUR.MACLIB                      SYSB05    AINFO    BASE     BTX      CHRPARMS COLINFO  CONTROL  CP
                                                              CPLOCAL  CV       CVLOCAL  FAIL     FREERSC  GETRSC   JCB
                                                              KAPUT    RG       SCAN     SCANCB   SCANCHK  SCCBADR  SCKW
                                                              SCPOP    SCPUSH   SCUPTOK  TCOL     TCR      TNUM     TSEG
                                                              TTYPE    USINPRMS VLTORG   XTRACE
   L2 WYL.GG.SYS.MACLIB                             SYSB05    $BC      $BFLKUP  $BV      $CCLKUP  $CRS     $CSS     $L
                                                              $LA      $LBLAD   $LEXP    $LOR     $REL     $RGLKUP
                                                              $USLKUP  ACALL    BEGIN    CEIL     CLEAR    COMPROC
                                                              CSECT    DEFCC    DROP     ELSE     END      EX       EXIT
                                                              FLAG     GEN      HIBAL    IDENT    IF       INCR
                                                              LABEL    LC       LS       LT       LTORG    PEND     POP
                                                              PRETURN  PRINT    PROC     PUSH     RECORD   REG      REGS
                                                              SET      SETMSG   START    USING    VCALL    WITH
                                                              XPROC
   L3 SYS3.IS.MACLIB                                SYSB05    CHRIOREQ SEG      SEGCB    SEGCOL   SEGCR    SEGDC
                                                              SEGLD    SIB      SYSDEFN  UID      XPOP     XPUSH
   L5 SYS1.MACLIB                                   MVSBR9    DELETE   DOM      LOAD     WTO

1KEYS     (KEYS2010) (12:47) (15MAR04) Dsect Cross Reference                                                                Page   48
-Dsect     Length      Id       Defn                                                         HLASM R4.0  2004/03/15 12.47
0$$$@R0   00000000  FFFFFFFE     705
 $$$@R1   00000000  FFFFFFFD     718
 $$$@R10  00000000  FFFFFFF4     835
 $$$@R11  00000000  FFFFFFF3     848
 $$$@R12  00000000  FFFFFFF2     861
 $$$@R13  00000000  FFFFFFF1     874
 $$$@R14  00000000  FFFFFFF0     887
 $$$@R15  00000000  FFFFFFEF     900
 $$$@R2   00000000  FFFFFFFC     731
 $$$@R3   00000000  FFFFFFFB     744
 $$$@R4   00000000  FFFFFFFA     757
 $$$@R5   00000000  FFFFFFF9     770
 $$$@R6   00000000  FFFFFFF8     783
 $$$@R7   00000000  FFFFFFF7     796
 $$$@R8   00000000  FFFFFFF6     809
 $$$@R9   00000000  FFFFFFF5     822
 $$$RCHRPARMS
          0000001C  FFFFFFE5    6869
 $$$RCP   00001000  FFFFFFEC    2462
 $$$RCV   00000FB0  FFFFFFEE    1187
 $$$RDEV  0000000C  FFFFFFEB    4676
 $$$RJCB  000000D0  FFFFFFE9    6314
 $$$RNSCNCB
          000000B0  FFFFFFED    2383
 $$$RTTYPE
          0000010C  FFFFFFEA    6207
 $$$RUIDREC
          0000014C  FFFFFFE8    6604
 $$$RUSINPRMS
          00000010  FFFFFFE6    6842
 $$$RUSRREQ
          00000230  FFFFFFE7    6727
 HIBAL    00000000  FFFFFFFF     691

1KEYS     (KEYS2010) (12:47) (15MAR04) Using Map                                                                            Page   49
-                                                                                            HLASM R4.0  2004/03/15 12.47
   Stmt  -----Location----- Action ----------------Using----------------- Reg Max    Last  Label and Using Text
           Count      Id           Type          Value    Range     Id        Disp   Stmt
0   922  00000000  FFFFFFFF USING  ORDINARY    00000000 00001000 FFFFFFEF  15 000          @R15,15
    926  00000000  FFFFFFFF USING  ORDINARY    00000000 00001000 FFFFFFF0  14 002    2178  @R14,14
    930  00000000  FFFFFFFF USING  ORDINARY    00000000 00001000 FFFFFFF1  13 000          @R13,13
    934  00000000  FFFFFFFF USING  ORDINARY    00000000 00001000 FFFFFFF2  12 000          @R12,12
    938  00000000  FFFFFFFF USING  ORDINARY    00000000 00001000 FFFFFFF3  11 000          @R11,11
    942  00000000  FFFFFFFF USING  ORDINARY    00000000 00001000 FFFFFFF4  10 000          @R10,10
    946  00000000  FFFFFFFF USING  ORDINARY    00000000 00001000 FFFFFFF5   9 000          @R9,9
    950  00000000  FFFFFFFF USING  ORDINARY    00000000 00001000 FFFFFFF6   8 000          @R8,8
    954  00000000  FFFFFFFF USING  ORDINARY    00000000 00001000 FFFFFFF7   7 000          @R7,7
    958  00000000  FFFFFFFF USING  ORDINARY    00000000 00001000 FFFFFFF8   6 000          @R6,6
    962  00000000  FFFFFFFF USING  ORDINARY    00000000 00001000 FFFFFFF9   5 000          @R5,5
    966  00000000  FFFFFFFF USING  ORDINARY    00000000 00001000 FFFFFFFA   4 000          @R4,4
    970  00000000  FFFFFFFF USING  ORDINARY    00000000 00001000 FFFFFFFB   3 000          @R3,3
    974  00000000  FFFFFFFF USING  ORDINARY    00000000 00001000 FFFFFFFC   2 000          @R2,2
    978  00000000  FFFFFFFF USING  ORDINARY    00000000 00001000 FFFFFFFD   1 001    2177  @R1,1
    982  00000000  FFFFFFFF USING  ORDINARY    00000000 00001000 FFFFFFFE   0 000          @R0,0
    983  00000000  FFFFFFFF DROP                                            0              0
   1171  00000017  00000001 USING  ORDINARY    00000000 00001000 FFFFFFEC  11 D5A   11943  CP,CPR
   1180  00000017  00000001 USING  ORDINARY    00000000 00001000 FFFFFFEE  12 890   11948  CV,CVR
   6932  0000007E  00000001 USING  ORDINARY    0000007E 00001000 00000001   7 AAE    7416  $$$43B,7
   6951  00000082  00000001 USING  ORDINARY    00000018 00001000 00000001   6 048    7417  KEYSTBL,R6
   7045  000000D8  00000001 USING  ORDINARY    00000000 00001000 FFFFFFE6   1 00C    7059  USINPRMS,R1
   7055  000000DC  00000001 USING  ORDINARY    00000000 00001000 FFFFFFE5   2 018    7059  CHRPARMS,R2
   7425  000002CA  00000001 USING  ORDINARY    00000000 00001000 FFFFFFF8   6 000          @R6,6
   7430  000002CA  00000001 USING  ORDINARY    00000000 00001000 FFFFFFF7   7 000          @R7,7
   7501  00000392  00000001 USING  ORDINARY    00000392 00001000 00000001   7 786    7569  $$$56B,7
   7520  00000396  00000001 USING  ORDINARY    00000018 00001000 00000001   6 048    7578  KEYSTBL,R6
   7586  000003CC  00000001 USING  ORDINARY    00000000 00001000 FFFFFFF8   6 000          @R6,6
   7591  000003CC  00000001 USING  ORDINARY    00000000 00001000 FFFFFFF7   7 000          @R7,7
   7660  000003F4  00000001 USING  ORDINARY    000003F4 00001000 00000001   7 750    7909  $$$60B,7
   7679  000003F8  00000001 USING  ORDINARY    00000018 00001000 00000001   6 04A    7917  KEYSTBL,R6
   7787  00000448  00000001 USING  ORDINARY    00000000 00001000 FFFFFFE7  14 030    7844  USRREQ,R14
   7889  000004AA  00000001 USING  ORDINARY    00000000 00001000 FFFFFFF0  14 000          @R14,14
   7925  000004BE  00000001 USING  ORDINARY    00000000 00001000 FFFFFFF8   6 000          @R6,6
   7930  000004BE  00000001 USING  ORDINARY    00000000 00001000 FFFFFFF7   7 000          @R7,7
   7996  000004E6  00000001 USING  ORDINARY    000004E6 00001000 00000001   7 65E    8195  $$$71B,7
   8015  000004EA  00000001 USING  ORDINARY    00000018 00001000 00000001   6 04A    8203  KEYSTBL,R6
   8124  0000053A  00000001 USING  ORDINARY    00000000 00001000 FFFFFFE7  14 030    8678  USRREQ,R14
   8211  0000057C  00000001 USING  ORDINARY    00000000 00001000 FFFFFFF8   6 000          @R6,6
   8216  0000057C  00000001 USING  ORDINARY    00000000 00001000 FFFFFFF7   7 000          @R7,7
   8281  000005A4  00000001 USING  ORDINARY    000005A4 00001000 00000001   7 5A0    8473  $$$81B,7
   8300  000005A8  00000001 USING  ORDINARY    00000018 00001000 00000001   6 04A    8481  KEYSTBL,R6
   8489  0000063A  00000001 USING  ORDINARY    00000000 00001000 FFFFFFF8   6 000          @R6,6
   8494  0000063A  00000001 USING  ORDINARY    00000000 00001000 FFFFFFF7   7 000          @R7,7
   8558  00000662  00000001 USING  ORDINARY    00000662 00001000 00000001   7 4E2    8755  $$$91B,7
   8577  00000666  00000001 USING  ORDINARY    00000018 00001000 00000001   6 04A    8763  KEYSTBL,R6
   8684  000006B6  00000001 USING  ORDINARY    00000000 00001000 FFFFFFF0  14 000          @R14,14
   8771  000006F4  00000001 USING  ORDINARY    00000000 00001000 FFFFFFF8   6 000          @R6,6
   8776  000006F4  00000001 USING  ORDINARY    00000000 00001000 FFFFFFF7   7 000          @R7,7
   8826  0000071C  00000001 USING  ORDINARY    0000071C 00001000 00000001   7 4F9    9496  $$$101B,7
   8850  00000726  00000001 USING  ORDINARY    00000018 00001000 00000001   6 03C    9431  KEYSTBL,R6
   9505  000008FC  00000001 USING  ORDINARY    00000000 00001000 FFFFFFF8   6 000          @R6,6
   9510  000008FC  00000001 USING  ORDINARY    00000000 00001000 FFFFFFF7   7 000          @R7,7
1KEYS     (KEYS2010) (12:47) (15MAR04) Using Map                                                                            Page   50
   9566  00000924  00000001 USING  ORDINARY    00000924 00001000 00000001   7 238    9634  $$$104B,7
   9656  00000976  00000001 USING  ORDINARY    00000000 00001000 FFFFFFF7   7 000          @R7,7
   9712  0000099E  00000001 USING  ORDINARY    0000099E 00001000 00000001   7 1C2    9735  $$$109B,7
   9750  000009AE  00000001 USING  ORDINARY    00000000 00001000 FFFFFFF7   7 000          @R7,7
   9807  000009D6  00000001 USING  ORDINARY    000009D6 00001000 00000001   7 196    9984  $$$112B,7
   9823  000009D6  00000001 USING  ORDINARY    00000018 00001000 00000001   6 04A   11895  KEYSTBL,R6
   9835  000009DA  00000001 USING  ORDINARY    00000000 00001000 FFFFFFFD   1 000          @R1,1
   9838  000009DA  00000001 USING  ORDINARY    00000000 00001000 FFFFFFE7   1 024    9915  USRREQ,R1
  10000  00000A64  00000001 USING  ORDINARY    00000000 00001000 FFFFFFFD   1 000          @R1,1
  10003  00000A64  00000001 USING  ORDINARY    00000000 00001000 FFFFFFE6   1 000          USINPRMS,1
  10008  00000A64  00000001 USING  ORDINARY    00000000 00001000 FFFFFFF7   7 000          @R7,7
  10074  00000A8C  00000001 USING  ORDINARY    00000A8C 00001000 00000001   7 104   10257  $$$119B,7
  10161  00000ABC  00000001 USING  ORDINARY    00000000 00001000 FFFFFFFC   2 000          @R2,2
  10164  00000ABC  00000001 USING  ORDINARY    00000000 00001000 FFFFFFE7   2 018   10169  USRREQ,R2
  10271  00000AF6  00000001 USING  ORDINARY    00000000 00001000 FFFFFFFC   2 000          @R2,2
  10274  00000AF6  00000001 USING  ORDINARY    00000000 00001000 FFFFFFE5   2 018   11793  CHRPARMS,2
  10288  00000AF6  00000001 USING  ORDINARY    00000000 00001000 FFFFFFF7   7 000          @R7,7
  10395  00000C56  00000001 USING  ORDINARY    00000C56 00001000 00000001   7 626   10460  $$$129B,7
  10472  00000CBE  00000001 USING  ORDINARY    00000000 00001000 FFFFFFF7   7 000          @R7,7
  10608  00000DD6  00000001 USING  ORDINARY    00000DD6 00001000 00000001   7 4D6   10637  $$$133B,7
  10646  00000DF4  00000001 USING  ORDINARY    00000000 00001000 FFFFFFF7   7 000          @R7,7
  10691  00000E1C  00000001 USING  ORDINARY    00000E1C 00001000 00000001   7 438   10734  $$$136B,7
  10754  00000E3E  00000001 USING  ORDINARY    00000000 00001000 FFFFFFE5   5 004   10758  CHRPARMS,R5
  10765  00000E44  00000001 USING  ORDINARY    00000000 00001000 FFFFFFF9   5 000          @R5,5
  10770  00000E44  00000001 USING  ORDINARY    00000000 00001000 FFFFFFF7   7 000          @R7,7
  10815  00000E6C  00000001 USING  ORDINARY    00000E6C 00001000 00000001   7 000          $$$141B,7
  10834  00000E70  00000001 USING  ORDINARY    00000000 00001000 FFFFFFE5   5 00C   10838  CHRPARMS,R5
  10845  00000E74  00000001 USING  ORDINARY    00000000 00001000 FFFFFFF9   5 000          @R5,5
  10850  00000E74  00000001 USING  ORDINARY    00000000 00001000 FFFFFFF7   7 000          @R7,7
  10895  00000E9C  00000001 USING  ORDINARY    00000E9C 00001000 00000001   7 3B8   10938  $$$144B,7
  10958  00000EBE  00000001 USING  ORDINARY    00000000 00001000 FFFFFFE5   5 010   10962  CHRPARMS,R5
  10969  00000EC4  00000001 USING  ORDINARY    00000000 00001000 FFFFFFF9   5 000          @R5,5
  10974  00000EC4  00000001 USING  ORDINARY    00000000 00001000 FFFFFFF7   7 000          @R7,7
  11019  00000EEC  00000001 USING  ORDINARY    00000EEC 00001000 00000001   7 000          $$$149B,7
  11038  00000EF0  00000001 USING  ORDINARY    00000000 00001000 FFFFFFE5   5 018   11042  CHRPARMS,R5
  11049  00000EF4  00000001 USING  ORDINARY    00000000 00001000 FFFFFFF9   5 000          @R5,5
  11054  00000EF4  00000001 USING  ORDINARY    00000000 00001000 FFFFFFF7   7 000          @R7,7
  11105  00000F1C  00000001 USING  ORDINARY    00000F1C 00001000 00000001   7 360   11239  $$$152B,7
  11253  00000FBA  00000001 USING  ORDINARY    00000000 00001000 FFFFFFF7   7 000          @R7,7
  11344  0000105A  00000001 USING  ORDINARY    0000105A 00001000 00000001   7 268   11355  $$$159B,7
  11364  00001066  00000001 USING  ORDINARY    00000000 00001000 FFFFFFF7   7 000          @R7,7
  11409  0000108E  00000001 USING  ORDINARY    0000108E 00001000 00000001   7 269   11451  $$$162B,7
  11474  000010B2  00000001 USING  ORDINARY    00000000 00001000 FFFFFFF7   7 000          @R7,7
  11524  000010DA  00000001 USING  ORDINARY    000010DA 00001000 00000001   7 250   11946  $$$167B,7
  11883  000011CE  00000001 USING  ORDINARY    00000000 00001000 FFFFFFFC   2 000          @R2,2
  11955  000011F8  00000001 USING  ORDINARY    00000000 00001000 FFFFFFF7   7 000          @R7,7

1         (KEYS2010) (12:47) (15MAR04) General Purpose Register Cross Reference                                             Page   51
- Register  References (M=modified, B=branch, U=USING, D=DROP, N=index)                      HLASM R4.0  2004/03/15 12.47
0    0(0)      982U   983D  2107   2175M  2175   2176M  6915   6977M  7028M  7035   7063M  7064   7109M  7163M  7311M
              7335M  7438M  7484   7561M  7562   7569M  7599M  7643   7793   7805M  7810   7811   7843M  7846M  7848M
              7874M  7874   7883   7938M  7979   8021   8130   8142M  8147   8148   8224M  8264   8306   8408   8420M
              8425   8426   8502M  8541   8689   8701M  8706   8707   8784M  8809   8862M  8887M  8887   8909M  8931M
              8931   8949M  8971M  8993M  8993   9011M  9033M  9055M  9055   9073M  9095M  9117M  9117   9135M  9157M
              9179M  9179   9197M  9222M  9222   9241M  9263M  9263   9288M  9288   9307M  9329M  9329   9354M  9354
              9373M  9395M  9395   9413M  9435M  9435   9460M  9460   9485M  9485   9518M  9549   9594   9620M  9620
              9642   9664M  9695   9732M  9732   9758M  9790   9851M  9852   9914M  9915   9917M  9918   9951M  9951
              9962M  9963  10016M 10057  10296M 10378  10439M 10439  10448  10449  10480M 10591  10622M 10638M 10654M
             10674  10778M 10798  10838  10858M 10878  10982M 11002  11042  11062M 11088  11151M 11151  11160  11161
             11261M 11327  11356M 11372M 11392  11482M 11507  11547M 11575M 11600M 11600  11619M 11641M 11641  11659M
             11684M 11684  11703M 11731M 11756M 11756  11775M 11797M 11797  11815M 11840M 11840  11865M 11865  11906M
             11935M 11935  11963M
     1(1)      978U  2107   2170M  2171M  2177M  6915   6983   7027M  7037M  7045U  7066M  7108M  7170M  7178M  7207
              7209N  7212   7228   7300   7318M  7342M  7350M  7379   7381N  7384   7400   7438M  7484   7564M  7599M
              7643   7790   7845M  7846M  7849M  7875M  7883   7938M  7979   8020   8127   8224M  8264   8305   8405
              8502M  8541   8686   8784M  8809   8861M  8927M  8948M  8989M  9010M  9051M  9072M  9113M  9134M  9175M
              9196M  9240M  9259M  9306M  9325M  9372M  9391M  9412M  9431M  9518M  9549   9594   9616M  9642   9664M
              9695   9728M  9758M  9790   9825M  9835U  9838U  9920M  9952M  9965M 10000U 10003U 10016M 10057  10296M
             10378  10435M 10448N 10449N 10451N 10480M 10591  10621M 10637M 10654M 10674  10712  10725  10742M 10743M
             10743N 10758  10778M 10798  10858M 10878  10916  10929  10946M 10947M 10947N 10962  10982M 11002  11062M
             11088  11147M 11160N 11161N 11163N 11261M 11327  11355M 11372M 11392  11420M 11421M 11421N 11422  11444
             11482M 11507  11546M 11570M 11618M 11637M 11658M 11702M 11726M 11774M 11793M 11814M 11905M 11963M
     2(2)      974U  2107   6915   7047M  7055U  7300M  7324   7438M  7484   7599M  7643   7764   7790M  7812M  7813M
              7938M  7979   8101   8127M  8149M  8150M  8224M  8264   8386   8405M  8427M  8428M  8502M  8541   8660
              8686M  8708M  8710M  8784M  8809   9518M  9549   9594   9642   9664M  9695   9758M  9790   9850  10016M
             10057  10151M 10161U 10164U 10271U 10274U 10296M 10378  10480M 10591  10654M 10674  10778M 10798  10858M
             10878  10982M 11002  11062M 11088  11261M 11327  11372M 11392  11482M 11507  11538M 11883U 11963M
     3(3)      970U  2107   6915   7438M  7484   7599M  7643   7763   7810M  7812M  7836M  7848   7938M  7979   8147M
              8149M  8224M  8264   8425M  8427M  8502M  8541   8706M  8708M  8784M  8809   9518M  9549   9594   9642
              9664M  9695   9758M  9790  10016M 10057  10107M 10119  10169M 10181  10204  10227  10250  10296M 10378
             10480M 10591  10654M 10674  10778M 10798  10858M 10878  10982M 11002  11062M 11088  11261M 11327  11372M
             11392  11482M 11507  11963M
     4(4)      966U  2107   6915   7438M  7484   7599M  7643   7762   7763M  7843   7849   7875   7938M  7979   8020M
              8224M  8264   8305M  8502M  8541   8784M  8809   9518M  9549   9594   9642   9664M  9695   9758M  9790
             10016M 10057  10296M 10378  10480M 10591  10654M 10674  10778M 10798  10858M 10878  10982M 11002  11062M
             11088  11261M 11327  11372M 11392  11482M 11507  11963M
     5(5)      962U  2107   6915   7438M  7484   7599M  7643   7764M  7840   7842   7938M  7979   8021M  8224M  8264
              8306M  8502M  8541   8784M  8809   9518M  9549   9594   9642   9664M  9695   9758M  9790  10016M 10057
             10296M 10378  10480M 10591  10654M 10674  10744M 10754U 10765U 10778M 10798  10824M 10834U 10845U 10858M
             10878  10948M 10958U 10969U 10982M 11002  11028M 11038U 11049U 11062M 11088  11261M 11327  11372M 11392
             11482M 11507  11963M
     6(6)      958U  2107   6915   6941M  6951U  7425U  7438M  7484   7510M  7520U  7586U  7599M  7643   7669M  7679U
              7925U  7938M  7979   8005M  8015U  8211U  8224M  8264   8290M  8300U  8489U  8502M  8541   8567M  8577U
              8771U  8784M  8809   8840M  8850U  9505U  9518M  9549   9594   9642   9664M  9695   9758M  9790   9823U
             10016M 10057  10296M 10378  10404M 10480M 10591  10654M 10674  10778M 10798  10858M 10878  10982M 11002
             11062M 11088  11138M 11261M 11327  11372M 11392  11482M 11507  11533M 11963M
     7(7)      954U  2100M  2100   2101B  2107   2113B  6915   6920M  6932U  7430U  7438M  7484   7489M  7501U  7591U
              7599M  7643   7648M  7660U  7930U  7938M  7979   7984M  7996U  8216U  8224M  8264   8269M  8281U  8494U
              8502M  8541   8546M  8558U  8776U  8784M  8809   8814M  8826U  9510U  9518M  9549   9554M  9566U  9594
              9642   9656U  9664M  9695   9700M  9712U  9750U  9758M  9790   9795M  9807U 10008U 10016M 10057  10062M
             10074U 10288U 10296M 10378  10383M 10395U 10472U 10480M 10591  10596M 10608U 10646U 10654M 10674  10679M
             10691U 10770U 10778M 10798  10803M 10815U 10850U 10858M 10878  10883M 10895U 10974U 10982M 11002  11007M
             11019U 11054U 11062M 11088  11093M 11105U 11253U 11261M 11327  11332M 11344U 11364U 11372M 11392  11397M
             11409U 11474U 11482M 11507  11512M 11524U 11955U 11963M
1         (KEYS2010) (12:47) (15MAR04) General Purpose Register Cross Reference                                             Page   52
     8(8)      950U  2107   6915   6916M  7434   7438M  7484   7485M  7595   7599M  7643   7644M  7883   7934   7938M
              7979   7980M  8220   8224M  8264   8265M  8498   8502M  8541   8542M  8780   8784M  8809   8810M  9514
              9518M  9549   9550M  9594   9642   9660   9664M  9695   9696M  9754   9758M  9790   9791M 10012  10016M
             10057  10058M 10292  10296M 10378  10379M 10476  10480M 10591  10592M 10650  10654M 10674  10675M 10774
             10778M 10798  10799M 10854  10858M 10878  10879M 10978  10982M 11002  11003M 11058  11062M 11088  11089M
             11257  11261M 11327  11328M 11368  11372M 11392  11393M 11478  11482M 11507  11508M 11959  11963M
     9(9)      946U  2107   9594   9642
    10(A)      942U  2107   9594   9642
    11(B)      938U  1171U  2107   9594   9642
    12(C)      934U  1180U  2107   9594   9642
    13(D)      930U  2107   6912   6915   6916   6917M  6917   7434M  7438   7440   7481   7484   7485   7486M  7486
              7595M  7599   7601   7640   7643   7644   7645M  7645   7934M  7938   7940   7976   7979   7980   7981M
              7981   8220M  8224   8226   8261   8264   8265   8266M  8266   8498M  8502   8504   8538   8541   8542
              8543M  8543   8780M  8784   8786   8806   8809   8810   8811M  8811   9514M  9518   9520   9546   9549
              9550   9551M  9551   9594   9642   9660M  9664   9666   9692   9695   9696   9697M  9697   9754M  9758
              9760   9787   9790   9791   9792M  9792  10012M 10016  10018  10054  10057  10058  10059M 10059  10292M
             10296  10298  10375  10378  10379  10380M 10380  10443  10444  10445  10447M 10447  10460M 10461  10462
             10463  10476M 10480  10482  10588  10591  10592  10593M 10593  10650M 10654  10656  10671  10674  10675
             10676M 10676  10774M 10778  10780  10795  10798  10799  10800M 10800  10854M 10858  10860  10875  10878
             10879  10880M 10880  10978M 10982  10984  10999  11002  11003  11004M 11004  11058M 11062  11064  11085
             11088  11089  11090M 11090  11155  11156  11157  11159M 11159  11172M 11173  11174  11175  11257M 11261
             11263  11324  11327  11328  11329M 11329  11368M 11372  11374  11389  11392  11393  11394M 11394  11478M
             11482  11484  11504  11507  11508  11509M 11509  11959M 11963  11965
    14(E)      926U  2107   2108M  2122   2123M  2124B  2126M  2127B  2147M  2148B  2152M  2153B  2155M  2156B  2158M
              2159B  2161M  2162B  2164M  2165M  2165B  2171   6912   6981M  6982M  6982B  7068M  7173M  7174M  7174B
              7207M  7210M  7321M  7322M  7322B  7345M  7346M  7346B  7379M  7382M  7440M  7443B  7481   7566M  7601M
              7604B  7640   7715M  7716M  7716B  7755M  7756M  7756B  7779M  7787U  7789M  7812M  7816M  7817M  7817B
              7833M  7844M  7846M  7889U  7909M  7910M  7910B  7940M  7943B  7976   8054M  8055M  8055B  8094M  8095M
              8095B  8116M  8124U  8126M  8149M  8153M  8154M  8154B  8195M  8196M  8196B  8226M  8229B  8261   8339M
              8340M  8340B  8379M  8380M  8380B  8401M  8404M  8427M  8431M  8432M  8432B  8473M  8474M  8474B  8504M
              8507B  8538   8613M  8614M  8614B  8653M  8654M  8654B  8675M  8678M  8684U  8708M  8713M  8714M  8714B
              8755M  8756M  8756B  8786M  8789B  8806   8837M  8838M  8838B  8873M  8874M  8874B  8898M  8899M  8899B
              8920M  8921M  8921B  8942M  8943M  8943B  8960M  8961M  8961B  8982M  8983M  8983B  9004M  9005M  9005B
              9022M  9023M  9023B  9044M  9045M  9045B  9066M  9067M  9067B  9084M  9085M  9085B  9106M  9107M  9107B
              9128M  9129M  9129B  9146M  9147M  9147B  9168M  9169M  9169B  9190M  9191M  9191B  9208M  9209M  9209B
              9233M  9234M  9234B  9252M  9253M  9253B  9274M  9275M  9275B  9299M  9300M  9300B  9318M  9319M  9319B
              9340M  9341M  9341B  9365M  9366M  9366B  9384M  9385M  9385B  9406M  9407M  9407B  9424M  9425M  9425B
              9446M  9447M  9447B  9471M  9472M  9472B  9496M  9497M  9497B  9520M  9523B  9546   9594   9595M  9625M
              9626M  9626B  9642   9643M  9666M  9669B  9692   9735M  9736M  9736B  9760M  9763B  9787   9922M  9939M
              9940M  9940B  9955M  9956M  9956B  9967M  9984M  9985M  9985B 10018M 10021B 10054  10127M 10128M 10128B
             10298M 10301B 10375  10427M 10428M 10428B 10442M 10443  10444  10445  10450M 10451  10454M 10455M 10455B
             10458M 10461  10462  10463  10482M 10485B 10588  10633M 10634M 10634B 10656M 10659B 10671  10734M 10735M
             10735B 10780M 10783B 10795  10860M 10863B 10875  10938M 10939M 10939B 10984M 10987B 10999  11064M 11067B
             11085  11132M 11133M 11133B 11154M 11155  11156  11157  11162M 11163  11166M 11167M 11167B 11170M 11173
             11174  11175  11180M 11181M 11181B 11201M 11202M 11202B 11239M 11240M 11240B 11263M 11266B 11324  11374M
             11377B 11389  11484M 11487B 11504  11558M 11559M 11559B 11586M 11587M 11587B 11611M 11612M 11612B 11630M
             11631M 11631B 11652M 11653M 11653B 11670M 11671M 11671B 11695M 11696M 11696B 11714M 11715M 11715B 11742M
             11743M 11743B 11767M 11768M 11768B 11786M 11787M 11787B 11808M 11809M 11809B 11826M 11827M 11827B 11851M
             11852M 11852B 11876M 11877M 11877B 11917M 11918M 11918B 11946M 11947M 11947B 11965M 11968B
    15(F)      922U  2107   7033M  7033   7067M  7068B  7069   7079M  7079   7208M  7208   7209M  7210   7211M  7212
              7222M  7222   7244M  7269M  7269   7275   7324M  7380M  7380   7381M  7382   7383M  7384   7394M  7394
              7416M  7417   7442M  7442   7565M  7566B  7603M  7603   7769M  7770M  7771   7775M  7776M  7777   7811M
              7812M  7827M  7827   7834M  7835M  7836   7840   7842M  7845   7846M  7847M  7847   7870M  7881   7917M
              7918M  7918   7942M  7942   8106M  8107M  8108   8112M  8113M  8114   8148M  8149M  8170M  8176   8203M
              8204M  8204   8228M  8228   8391M  8392M  8393   8397M  8398M  8399   8426M  8427M  8448M  8454   8481M
              8482M  8482   8506M  8506   8665M  8666M  8667   8671M  8672M  8673   8707M  8708M  8730M  8736   8763M
              8764M  8764   8788M  8788   8870M  8895M  8917M  8939M  8957M  8979M  9001M  9019M  9041M  9063M  9081M
              9103M  9125M  9143M  9165M  9187M  9205M  9230M  9249M  9271M  9296M  9315M  9337M  9362M  9381M  9403M
              9421M  9443M  9468M  9493M  9522M  9522   9549   9594   9621M  9622M  9622   9642   9664M  9668M  9668
1         (KEYS2010) (12:47) (15MAR04) General Purpose Register Cross Reference                                             Page   53
              9695   9758M  9762M  9762   9921M  9922B  9931M  9931   9966M  9967B  9976M  9976  10020M 10020  10093M
             10093  10099  10107  10135M 10188M 10211M 10234M 10257M 10300M 10300  10464M 10464  10484M 10484  10630M
             10658M 10658  10782M 10782  10862M 10862  10986M 10986  11066M 11066  11176M 11176  11265M 11265  11376M
             11376  11486M 11486  11555M 11583M 11608M 11627M 11649M 11667M 11692M 11711M 11739M 11764M 11783M 11805M
             11823M 11848M 11873M 11914M 11943M 11967M 11967

1KEYS     (KEYS2010) (12:47) (15MAR04) Diagnostic Cross Reference and Assembler Summary                                     Page   54
-                                                                                            HLASM R4.0  2004/03/15 12.47
0     No Statements Flagged in this Assembly
 HIGH LEVEL ASSEMBLER, 5696-234, RELEASE 4.0, PTF P72483
0SYSTEM: OS/390 02.10.00            JOBNAME: WYL#KEYS    STEPNAME: ASM        PROCSTEP: (NOPROC)
0Datasets Allocated for this Assembly
  Con DDname   Dataset Name                                 Volume  Member
   P1 SYSIN    WYL.GS.WYL.WYLBUR.SOURCE                     SYSB05  KEYS
   L1 SYSLIB   WYL.GS.WYL.WYLBUR.MACLIB                     SYSB05
   L2          WYL.GG.SYS.MACLIB                            SYSB05
   L3          SYS3.IS.MACLIB                               SYSB05
   L4          SYS3.MACLIB                                  SYSB02
   L5          SYS1.MACLIB                                  MVSBR9
   L6          SYS1.MODGEN                                  MVSBR9
      SYSPRINT SYS04075.T124722.RA000.WYL#KEYS.PRINT.H01    SCR101
      SYSTERM  GG$SLP.WYL#KEYS.JOB03536.D0000101.?

    3668K allocated to Buffer Pool,         1985K would be required for this to be an In-Storage Assembly
     825 Primary Input Records Read        10876 Library Records Read                  0 Work File Reads
       0 ASMAOPT Records Read               4128 Primary Print Records Written         0 Work File Writes
       0 Punch Records Written                 0 ADATA Records Written
0Assembly Start Time: 12.47.23 Stop Time: 12.47.30 Processor Time: 00.00.02.1135
 Return Code 000
