1                        J E S 2  J O B  L O G  --  S Y S T E M  S Y S B  --  N O D E  R L G
0
 12.48.22 JOB03540 ---- MONDAY,    15 MAR 2004 ----
 12.48.22 JOB03540  ICH70001I GG$SLP   LAST ACCESS AT 12:48:14 ON MONDAY, MARCH 15, 2004
 12.48.22 JOB03540  $HASP373 WYL#MAIL STARTED - INIT 9    - CLASS B - SYS SYSB
 12.48.22 JOB03540  ***  HCMD      STEP $$QUIET
 12.48.22 JOB03540  PUR * Q OUT MUL
 12.48.22 JOB03540  JOB 5403 WYL#MAIL WILL BE PURGED
 12.48.23 JOB03540  WYL#MAIL.$$QUIET .         RC=Zero TapeIO=0000 DiskIO=0000 CPU=  .01s Elapsed=02.15s
 12.48.48 JOB03540  WYL#MAIL.ASM     .         RC=Zero TapeIO=0000 DiskIO=0994 CPU= 8.42s Elapsed=03.19s
 12.48.50 JOB03540  WYL#MAIL.EDIT    .         RC=Zero TapeIO=0000 DiskIO=0431 CPU= 1.30s Elapsed=28.30s
 12.48.50 JOB03540  WYL#MAIL Ended.  Name=Assemble MAIL                  Total CPU= 9.73s Elapsed=02.15s
 12.48.50 JOB03540
 12.48.50 JOB03540  Execution charges   Priority=Standard   Block=Day
 12.48.50 JOB03540
 12.48.50 JOB03540  CPU Usage         180.37         $111.82   Standard Processing Unit Equivalent
 12.48.50 JOB03540                                   =======
 12.48.50 JOB03540                                   $111.82   Total Job execution charge
 12.48.50 JOB03540
 12.48.50 JOB03540  See back separator page for print charges
 12.48.50 JOB03540
 12.48.50 JOB03540  $HASP395 WYL#MAIL ENDED  ASM=0, EDIT=0
1        1 //WYL#MAIL JOB SLP$GG,'Assemble MAIL',TIME=4,REGION=4M                  JOB03540
           //*
           /*JOBPARM LINES=99,COPIES=1
           /*JOBPARM FORMS=3HOL,PFORMAT=LAND,CHARS=BD13,DUPLEX=YES,FLASH=BAR4
           //*
           /*JOBPARM NOTIFY=GG.SLP,HOLD=OUTPUT                                     WYLGEN
         2 //$$QUIET EXEC PGM=HCMDX,PARM='PUR * Q OUT MUL'
           //*
         3 //ASM    EXEC PGM=ASMA90,REGION=8M,
           //            PARM=('NORENT,TERM,FLAG(NOCONT),US(MAP,WARN(10)),NODECK',
           //            'LC(32767),XREF(SHORT),ESD,DXREF,NOOBJECT')
         4 //STEPLIB DD DSN=SYS3.IS.TESTASM,DISP=SHR
         5 //SYSLIB   DD  DSN=WYL.GS.WYL.WYLBUR.MACLIB,DISP=SHR
         6 //         DD  DSN=WYL.GG.SYS.MACLIB,DISP=SHR
         7 //         DD  DSN=SYS3.IS.MACLIB,DISP=SHR
         8 //         DD  DSN=SYS3.MACLIB,DISP=SHR
         9 //         DD  DSN=SYS1.MACLIB,DISP=SHR
        10 //         DD  DSN=SYS1.MODGEN,DISP=SHR
        11 //SYSUT1   DD DSN=&&SYSUT1,UNIT=VIO,DISP=(,DELETE),
           //            SPACE=(4088,(500,250),,CONTIG,ROUND)
        12 //SYSTERM  DD SYSOUT=T
        13 //SYSPRINT DD DSN=&&PRINT,UNIT=SYSDA,DISP=(,PASS),
           //            SPACE=(6650,(250,250),RLSE),
           //            DCB=(BLKSIZE=6650,LRECL=133,RECFM=FB)
        14 //SYSUDUMP DD SYSOUT=A
        15 //SYSIN    DD  DSN=WYL.GS.WYL.WYLBUR.SOURCE(MAIL),DISP=SHR
           //*
        16 //EDIT    EXEC PGM=ASMEDIT,TIME=2,REGION=4000K,
           //             PARM='STMT'
        17 //STEPLIB  DD  DSN=WYL.GG.SYS.LINKLIB,DISP=SHR
        18 //ASMOUT   DD  DSN=&PRINT,DISP=(OLD,DELETE)
        19 //SYSPRINT DD  SYSOUT=A
1 STMT NO. MESSAGE
 -
        11 IGD01010I STORCLAS= TEMP STORGROUP =
        11 IGD01010I STORGRP=VIO ASSIGNED.
        13 IGD01010I STORCLAS= TEMP STORGROUP =
        13 IGD01010I STORGRP=VIO ASSIGNED.
 ICH70001I GG$SLP   LAST ACCESS AT 12:48:14 ON MONDAY, MARCH 15, 2004
 IEF142I WYL#MAIL $$QUIET - STEP WAS EXECUTED - COND CODE 0000
 *********************************************************************************
 *   WYL#MAIL/$$QUIET /                    Return Code      Zero                 *
 *   Region used      260K (16K user + 244K system)                              *
 *   Extended region  9464K (4K user + 9460K system)                             *
 *                                                                               *
 *   Paging              In      Out                                             *
 *   Private <-> Aux      0        0       CPU time (TCB)   00:00:00.01          *
 *   Private <-> Exp      0        0       CPU time (SRB)   00:00:00.00          *
 *   VIO                  0        0       Elapsed time    917:39:30.81          *
 *   Common               0      ---                                             *
 *                                                                               *
 *                                                                               *
 *   CPU Usage          0.18         $0.11  Standard Processing Unit Equivalent  *
 *                                   $0.11  Total Step execution charge          *
 *                                                                               *
 *    I/O count  DDname   Type Addr           I/O count  DDname   Type Addr      *
 *                         *** No I/O for this step ***                          *
 *********************************************************************************
 IEF373I STEP/$$QUIET /START 2004075.1248
 IEF374I STEP/$$QUIET /STOP  2004075.1248 CPU    0MIN 00.01SEC SRB    0MIN 00.00SEC VIRT    16K SYS   244K EXT       4K SYS    9460K
 IEF236I ALLOC. FOR WYL#MAIL ASM
 IEF237I 04DC ALLOCATED TO STEPLIB
 IEF237I 04DC ALLOCATED TO SYSLIB
 IEF237I 04DC ALLOCATED TO
 IEF237I 04DC ALLOCATED TO
 IEF237I 0402 ALLOCATED TO
 IEF237I 04A0 ALLOCATED TO
 IEF237I 04A0 ALLOCATED TO
 IGD101I SMS ALLOCATED TO DDNAME (SYSUT1  )
         DSN (SYS04075.T124822.RA000.WYL#MAIL.SYSUT1.H01  )
         STORCLAS (TEMP) MGMTCLAS (        ) DATACLAS (        )
         VOL SER NOS= VIO
 IEF237I JES2 ALLOCATED TO SYSTERM
 IGD101I SMS ALLOCATED TO DDNAME (SYSPRINT)
         DSN (SYS04075.T124822.RA000.WYL#MAIL.PRINT.H01   )
         STORCLAS (TEMP) MGMTCLAS (        ) DATACLAS (        )
         VOL SER NOS= SCR101
 IEF237I JES2 ALLOCATED TO SYSUDUMP
 IEF237I 04DC ALLOCATED TO SYSIN
 IEF142I WYL#MAIL ASM - STEP WAS EXECUTED - COND CODE 0000
 IEF285I   SYS3.IS.TESTASM                              KEPT
 IEF285I   VOL SER NOS= SYSB05.
 IEF285I   WYL.GS.WYL.WYLBUR.MACLIB                     KEPT
 IEF285I   VOL SER NOS= SYSB05.
 IEF285I   WYL.GG.SYS.MACLIB                            KEPT
 IEF285I   VOL SER NOS= SYSB05.
 IEF285I   SYS3.IS.MACLIB                               KEPT
 IEF285I   VOL SER NOS= SYSB05.
 IEF285I   SYS3.MACLIB                                  KEPT
 IEF285I   VOL SER NOS= SYSB02.
 IEF285I   SYS1.MACLIB                                  KEPT
 IEF285I   VOL SER NOS= MVSBR9.
 IEF285I   SYS1.MODGEN                                  KEPT
 IEF285I   VOL SER NOS= MVSBR9.
 IGD105I SYS04075.T124822.RA000.WYL#MAIL.SYSUT1.H01   DELETED,   DDNAME=SYSUT1
 IEF285I   GG$SLP.WYL#MAIL.JOB03540.D0000101.?          SYSOUT
 IGD106I SYS04075.T124822.RA000.WYL#MAIL.PRINT.H01    PASSED,    DDNAME=SYSPRINT
 IEF285I   GG$SLP.WYL#MAIL.JOB03540.D0000102.?          SYSOUT
 IEF285I   WYL.GS.WYL.WYLBUR.SOURCE                     KEPT
 IEF285I   VOL SER NOS= SYSB05.
 *********************************************************************************
 *   WYL#MAIL/ASM     /                    Return Code      Zero                 *
 *   Region used      4376K (4096K user + 280K system)                           *
 *   Extended region  10080K (412K user + 9668K system)                          *
 *                                                                               *
 *   Paging              In      Out                                             *
 *   Private <-> Aux      0        0       CPU time (TCB)   00:00:08.35          *
 *   Private <-> Exp      0        0       CPU time (SRB)   00:00:00.07          *
 *   VIO                  0        0       Elapsed time    917:39:29.77          *
 *   Common               0      ---                                             *
 *                                                                               *
 *                                                                               *
 *   CPU Usage        156.56        $97.06  Standard Processing Unit Equivalent  *
 *                                  $97.06  Total Step execution charge          *
 *                                                                               *
 *    I/O count  DDname   Type Addr           I/O count  DDname   Type Addr      *
 *           83  STEPLIB  Disk 04DC                 397  SYSLIB   Disk 04DC      *
 *            0  SYSLIB   Disk 04DC                   0  SYSLIB   Disk 04DC      *
 *            2  SYSLIB   Disk 0402                  68  SYSLIB   Disk 04A0      *
 *            0  SYSLIB   Disk 04A0                 796  SYSUT1   VIO  ----      *
 *            0  SYSTERM       ----                 428  SYSPRINT Disk 04E3      *
 *            0  SYSUDUMP      ----                  16  SYSIN    Disk 04DC      *
 *********************************************************************************
 IEF373I STEP/ASM     /START 2004075.1248
 IEF374I STEP/ASM     /STOP  2004075.1248 CPU    0MIN 08.35SEC SRB    0MIN 00.07SEC VIRT  4096K SYS   280K EXT     412K SYS    9668K
 IEF236I ALLOC. FOR WYL#MAIL EDIT
 IEF237I 0402 ALLOCATED TO STEPLIB
 IGD103I SMS ALLOCATED TO DDNAME ASMOUT
 IEF237I JES2 ALLOCATED TO SYSPRINT
 IEF142I WYL#MAIL EDIT - STEP WAS EXECUTED - COND CODE 0000
 IEF285I   WYL.GG.SYS.LINKLIB                           KEPT
 IEF285I   VOL SER NOS= SYSB02.
 IGD105I SYS04075.T124822.RA000.WYL#MAIL.PRINT.H01    DELETED,   DDNAME=ASMOUT
 IEF285I   GG$SLP.WYL#MAIL.JOB03540.D0000103.?          SYSOUT
 *********************************************************************************
 *   WYL#MAIL/EDIT    /                    Return Code      Zero                 *
 *   Region used      380K (116K user + 264K system)                             *
 *   Extended region  9588K (4K user + 9584K system)                             *
 *                                                                               *
 *   Paging              In      Out                                             *
 *   Private <-> Aux      0        0       CPU time (TCB)   00:00:01.26          *
 *   Private <-> Exp      0        0       CPU time (SRB)   00:00:00.04          *
 *   VIO                  0        0       Elapsed time    917:39:04.66          *
 *   Common               0      ---                                             *
 *                                                                               *
 *                                                                               *
 *   CPU Usage         23.62        $14.64  Standard Processing Unit Equivalent  *
 *                                  $14.64  Total Step execution charge          *
 *                                                                               *
 *    I/O count  DDname   Type Addr           I/O count  DDname   Type Addr      *
 *            2  STEPLIB  Disk 0402                 429  ASMOUT   Disk 04E3      *
 *            0  SYSPRINT      ----                                              *
 *********************************************************************************
 IEF373I STEP/EDIT    /START 2004075.1248
 IEF374I STEP/EDIT    /STOP  2004075.1248 CPU    0MIN 01.26SEC SRB    0MIN 00.04SEC VIRT   116K SYS   264K EXT       4K SYS    9584K
 *********************************************************************************
 *                                                                               *
 *                      S t a n f o r d   U n i v e r s i t y                    *
 *                                                                               *
 *                              *** Job Summary ***                              *
 *                                                                               *
 *   System Id      SYSB                   Input time     12:39:21  Mar 15, 2004 *
 *                                                                               *
 *   System Release SP6.1.0                Start time     12:48:22  Mar 15, 2004 *
 *                                                                               *
 *   Job name       WYL#MAIL               Stop  time     00:00:00  Mar 15, 2004 *
 *                                                                               *
 *   Account        SLP$GG                 Elapsed time  917:39:30.81            *
 *                                                                               *
 *   User Name      Assemble MAIL          CPU time       00:00:09.62            *
 *                                                                               *
 *   Job class      B                      SRB Time       00:00:00.11            *
 *                                                                               *
 *********************************************************************************
 IEF375I  JOB/WYL#MAIL/START 2004075.1248
 IEF376I  JOB/WYL#MAIL/STOP  2004075.1248 CPU    0MIN 09.62SEC SRB    0MIN 00.11SEC
1Assembler Done MAIL No Statements Flagged
1         High Level Assembler Option Summary                   (PTF P72483 )                                               Page    1
-                                                                                            HLASM R4.0  2004/03/15 12.48
0  No Overriding ASMAOPT Parameters
   Overriding Parameters-  NORENT,TERM,FLAG(NOCONT),US(MAP,WARN(10)),NODECK,LC(32767),XREF(SHORT),ESD,DXREF,NOOBJECT
   No Process Statements


   Options for this Assembly
0  NOADATA
     ALIGN
   NOASA
     BATCH
     CODEPAGE(047C)
   NOCOMPAT
   NODBCS
 3 NODECK
 3   DXREF
 3   ESD
   NOEXIT
 3   FLAG(0,ALIGN,NOCONT,NOIMPLEN,NOPAGE0,PUSH,RECORD,NOSUBSTR,USING0)
   NOFOLD
   NOGOFF
   NOINFO
     LANGUAGE(EN)
   NOLIBMAC
 3   LINECOUNT(32767)
     LIST(121)
     MXREF(SOURCE)
 3 NOOBJECT
     OPTABLE(UNI,NOLIST)
   NOPCONTROL
   NOPESTOP
   NOPROFILE
   NORA2
 3 NORENT
     RLD
     RXREF
     SIZE(MAX)
     SYSPARM()
 3   TERM(WIDE)
   NOTEST
     THREAD
   NOTRANSLATE
 3   USING(NOLIMIT,MAP,WARN(10))
 3   XREF(SHORT)

   No Overriding DD Names

1MAIL     External Symbol Dictionary                                                                                        Page    2
-Symbol   Type   Id     Address  Length     LD ID  Flags Alias-of                            HLASM R4.0  2004/03/15 12.48
0WYLMAIL   SD 00000001 00000000 00007218             00
 MAIL4072  LD          00000000           00000001
 SETWHOST  LD          00000018           00000001
 INITCMD   ER 00000002
 EXIT0     ER 00000003
 SCINIT    ER 00000004
 ZODSNM    ER 00000005
 DSNPRT    ER 00000006
 SCAN      ER 00000007
 ZSNFIN    ER 00000008
 ZDETRNG   ER 00000009
 EXTOPEN   ER 0000000A
 DESPOT    ER 0000000B
 EXTCLOSE  ER 0000000C
 SEGCR     ER 0000000D
 DEQUOTE   ER 0000000E
 LRTRIM    ER 0000000F
 MAIL      LD          00000672           00000001
 COLLPRT   ER 00000010
 QUIETPRT  ER 00000011
 INVALID   ER 00000012
 BILLCHK   ER 00000013
 GBLCMD    ER 00000014
 LOCALTOD  ER 00000015
 FMTCLCK   ER 00000016
 FMTDAY    ER 00000017
 BTD       ER 00000018
 RTRIM     ER 00000019
 ORVCMD    ER 0000001A
 SCTELL    ER 0000001B
 SCSET     ER 0000001C
 SCNEX     ER 0000001D
 SEGINIT   ER 0000001E
 SEG       ER 0000001F
 SEGB      ER 00000020
 SEGT      ER 00000021
 PRESS     ER 00000022
 SEGCLR    ER 00000023
 XSETSET   ER 00000024
 XGETFRST  ER 00000025
 XGETNEXT  ER 00000026
 SCANSTR   ER 00000027
 SLICECHK  ER 00000028
 GETHEAP   ER 00000029
 EVALSTR   ER 0000002A
 KWIO      ER 0000002B
 GETACCT   ER 0000002C
 SEGWR     ER 0000002D
 GETUID    ER 0000002E
 CHKACCT   ER 0000002F
 SEGTB     ER 00000030
 DENQ      ER 00000031
 WAITER    ER 00000032
 SEGDC     ER 00000033
 DOPEN     ER 00000034
1MAIL     External Symbol Dictionary                                                                                        Page    3
 DDEQ      ER 00000035
 SENDMSG   ER 00000036
 PFREEA    ER 00000037
 PFREEB    ER 00000038
 PUNTEMP   ER 00000039
 PJUNK     ER 0000003A
 RUNMSG    ER 0000003B
 PGETA     ER 0000003C
 UNPRESS   ER 0000003D
 PRINTMSG  ER 0000003E
 FMTXDATE  ER 0000003F
 SEGCOL    ER 00000040
 SAVEDIR   LD          00004396           00000001
 EXTWRITE  ER 00000041
 CVEXNO    ER 00000042
 SHOWMAIL  LD          00004B60           00000001
 MTOKEN    ER 00000043
 MPARM     ER 00000044
 ACCTPSHC  ER 00000045
 MATUID    ER 00000046
 SCNNOOP   ER 00000047
 VERPSH    ER 00000048
 COLLPSH   ER 00000049
 MALL      ER 0000004A
 NOTVALID  ER 0000004B
 NSCAN     ER 0000004C
 SCANCHK   ER 0000004D
 EDTCOM    ER 0000004E
 GETKWR    ER 0000004F
 MAILDISP  LD          000054B0           00000001
 MBOXDISP  ER 00000050
 GETMACH   ER 00000051
 PGETNEW   ER 00000052
 NOMORPG   ER 00000053
 PTEMP     ER 00000054
 PMARKB    ER 00000055
 PGETB     ER 00000056
 PNUMB     ER 00000057
 PNUMA     ER 00000058
 LASTLINE  ER 00000059
 TREADQ    ER 0000005A
 PMARKA    ER 0000005B
 MIXFMT    ER 0000005C
 MAILCHK   LD          00006F8C           00000001
 LOGCMD    ER 0000005D
 LOGEVENT  ER 0000005E

1MAIL     WYLBUR's Mail Facility                                                                                            Page    4
0Loc    Object Code    Addr1 Addr2  Stmt Lv Lineno    Source Statement                    (Asmedit 3.3)  HLASM R4.0  2004/03/15 12.48
+___    ______ ____    _____ _____  ____ __ ______    ______ _________
0                                      2              *******************************************************************
                                       3              *                                                                 *
                                       4              *     WYLBUR/370 - Release VI - Class I - Stanford Proprietary    *
                                       5              *                                                                 *
                                       6              *******************************************************************
                                       7              *
                                       8              *  Modification history:
                                       9              *
                                      10              *     13-April-1995  M. Durket
                                      11              *
                                      12              *     Changed the message: '<userid> is not accepting mail, mail not
                                      13              *     sent', to 'Mail not sent because mail is not being accepted
                                      14              *     by <userid>'. The reason is that in such messages, the
                                      15              *     <userid> portion is concatenated with the SET MAIL 'message'
                                      16              *     field (via an ACALL SEGMID), resulting in some weird looking
                                      17              *     messages like: 'Prism general access <HQ.PRM> -- Please
                                      18              *     respond to originator is not accepting mail, mail not sent.'
                                      19              *
                                      20                       HIBAL
                                    1001
 000000                00000 07218  1002              WYLMAIL  CSECT
                                    1006              MAIL     IDENT 4072                10:30:07 03/12/04  (SLP)
                                    1009             +
                                    1010    01-IDENT +         ENTRY MAIL4072
                                    1011             +
 000000 16D4C1C9D3F4F0F7            1012    01-IDENT +MAIL4072 DC    AL1(22),C'MAIL4072,15MAR04,12:48'
                                    1013             +*
                                    1015                       REGS  FSR,,,,,,,BR,(WAR,LSR),PAR,PBR,CPR,CVR,SPR,RAR
                                    1151
                                    1152                       SYSDEFN ,                 Define installation params
                                    1153
                                    1154                       GBLA  &NAMESZ,&HOSTSZ,&USERSZ
                                    1155              &NAMESZ  SETA  80                  Maximum length of a personal name
                                    1156              &HOSTSZ  SETA  80                  Maximum length of a host name
                                    1157              &USERSZ  SETA  80                  Maximum length of a userid
-                                   1159                       PUSH  DSECTS
 USING  CP,R11                      1171             =         USING (CP),(CV)
 USING  CV,R12
 000017                00000 07218  1190             =         POP   PRINT
1MAIL     (MAIL4072) (12:48) (15MAR04) SET WHOSTS Command                                                                   Page    5
0Current Usings:  (CP,R11) (CV,R12)
0Loc    Object Code    Addr1 Addr2  Stmt Lv Lineno    Source Statement           (Hibal 5, Asmedit 3.3)  HLASM R4.0  2004/03/15 12.48
+___    ______ ____    _____ _____  ____ __ ______    ______ _________
0                                   7070              ¿þþþþþþþþþþþþþþþþþþþþþþþþþþþþþþþþþþþþþþþþþþþþþþþþþþþþþþþþþþþþþþþþþþþþþÜ
                                    7071              Ÿ                                                                     Ÿ
                                    7072              Ÿ  Host Name Alias Information                                        Ÿ
                                    7073              Ÿ                                                                     Ÿ
                                                      ¾þþþþþþþþþþþþþþþþþþþþþþþþþþþþþþþþþþþþþþþþþþþþþþþþþþþþþþþþþþþþþþþþþþþþþ»
0000000                00000 00005  7074              HAIL     RECORD BEGIN
 000000                             7082  1           HAILLINK   DS    A                   Next HAIL ptr
 000004                             7083  1           HAILOLEN   DS    X                   Old name length byte
 000005                             7084  1           HAILOLD    DS    0C                  Old name
 000005                             7085  1           HAILNLEN   DS    0X                  New name length byte
 000005                             7086  1           HAILNEW    DS    0C                  New name
 000005                00005 00005  7087                       END
-                                   7097              ¿þþþþþþþþþþþþþþþþþþþþþþþþþþþþþþþþþþþþþþþþþþþþþþþþþþþþþþþþþþþþþþþþþþþþþÜ
                                    7098              Ÿ                                                                     Ÿ
                                    7099              Ÿ  Host Information                                                   Ÿ
                                    7100              Ÿ                                                                     Ÿ
                                                      ¾þþþþþþþþþþþþþþþþþþþþþþþþþþþþþþþþþþþþþþþþþþþþþþþþþþþþþþþþþþþþþþþþþþþþþ»
0000000                00000 000F1  7101              HOST     RECORD BEGIN
 000000                             7109  1           HOSTLINK   DS    A                   Next HOST ptr
                                    7110  1
 000004 00                          7111  1           HOSTFLAG   FLAG
 HOSTFLAG.HOSTFBAT 80 ONES          7115  1                      FLAG  HOSTFBAT            - Batch job mail
 HOSTFLAG.HOSTFBIT 40 ONES          7120  1                      FLAG  HOSTFBIT            - Bitnet mail
 HOSTFLAG.HOSTFGTE 20 ONES          7125  1                      FLAG  HOSTFGTE            - Gateway mail
 HOSTFLAG.HOSTFBSM 10 ONES          7130  1                      FLAG  HOSTFBSMTP          - BSMTP header required
 HOSTFLAG.HOSTFSUN 08 ONES          7135  1                      FLAG  HOSTFSUNMAIL        - SUNMAIL varient of BSMTP
 HOSTFLAG.HOSTFTST 04 ONES          7140  1                      FLAG  HOSTFTST            - Test address, hold mail
 HOSTFLAG.HOSTFERR 02 ONES          7145  1                      FLAG  HOSTFERR            - Error text is present
                                    7150  1
 000005 00                          7151  1           HOSTFLG2   FLAG
 HOSTFLG2.HOSTFNDM 80 ONES          7155  1                      FLAG  HOSTFNDM            Don't use major domain name
                                    7160  1
                                    7161  1           HOSTNAME   DS    CL(&HOSTSZ)         Host name
 000006                                   1          +HOSTNAME   DS    CL(80)              Host name
                                    7162  1
 000056                             7163  1           HOSTGATE   DS    CL35                Address of gateway for host
 000079                             7164  1           HOSTRELY   DS    CL35                Address of relay node
 00009C                             7165  1           HOSTACCT   DS    CL5                 Mailbox account (UUUGG)
                                    7166  1
 0000A1                             7167  1           HOSTTEXT   DS    CL80                Error/warning text (when needed)
 0000F1                000F1 000F1  7168                       END
1MAIL     (MAIL4072) (12:48) (15MAR04) SET WHOSTS Command                                                                   Page    6
0Current Usings:  (CP,R11) (CV,R12)
0Loc    Object Code    Addr1 Addr2  Stmt Lv Lineno    Source Statement           (Hibal 5, Asmedit 3.3)  HLASM R4.0  2004/03/15 12.48
+___    ______ ____    _____ _____  ____ __ ______    ______ _________
0000000                00000 00200  7178              SHOSTWA  RECORD BEGIN
 000000 00                          7186  1           SHOSTFLG   FLAG
                                    7190  1
 000004                             7191  1           SHAILQH    DS    A                   New HAIL queue head ptr
 000008                             7192  1           SHAILQT    DS    A                   New HAIL queue tail ptr
                                    7193  1
 00000C                             7194  1           SHOSTQH    DS    A                   New HOST queue head ptr
 000010                             7195  1           SHOSTQT    DS    A                   New HOST queue tail ptr
                                    7196  1
 000014                             7197  1           SHAILOLD   DS    2A                  Old alias name text len, loc
 00001C                             7198  1           SHAILNEW   DS    2A                  New alias name text len, loc
                                    7199  1
 000024                             7200  1           SHOST      DS    XL(L'HOST)          Working HOST entry
                                    7201  1
                                    7202  1           SHOSTLN    DS    CL(&LINESZ)         Working line buffer
 000115                                   1          +SHOSTLN    DS    CL(235)             Working line buffer
 000200                00200 00200  7203                       END
-                                   7213              ¿þþþþþþþþþþþþþþþþþþþþþþþþþþþþþþþþþþþþþþþþþþþþþþþþþþþþþþþþþþþþþþþþþþþþþÜ
                                    7214              Ÿ                                                                     Ÿ
                                    7215              Ÿ  SETWHOST -- SET WHOSTS Command.  (Priv'd.)                         Ÿ
                                    7216              Ÿ                                                                     Ÿ
                                    7217              Ÿ    Note:  This routine is also called after a successful save       Ÿ
                                    7218              Ÿ           of "HOSTS ACCOUNT GS.WYL".                                Ÿ
                                    7219              Ÿ                                                                     Ÿ
                                                      ¾þþþþþþþþþþþþþþþþþþþþþþþþþþþþþþþþþþþþþþþþþþþþþþþþþþþþþþþþþþþþþþþþþþþþþ»
0000018 188D/4570 C74C_             7220              SETWHOST GENTER
 USING  *,R7
 000026 95E6 BD24/4780_00D24        7237                       IF    (CPCMNM,NE,'W'),BEGIN  Entered after SAVE...
 00002E 58E0 7592/0DEE       005B8  7254  1                      VCALL INITCMD             Initialize
 000034                             7258                       END
                                    7262
 000034 7012/47F0 701A 00034 0002C  7263                       ELSE  BEGIN               Command entry...
 000038 9120 B3BE/47E0_003BE        7274  1                      IF    ~CPSFSPR,CVNVALID   Sorry pal
 000040                             7292                       END
                                    7296
 000040 186D/41D0 D200              7297                       XPUSH ,,L'SHOSTWA,PTR=R6
 USING  SHOSTWA,R6                  7300                       USING SHOSTWA,R6
 000046 5060 BCA4            00CA4  7309                       ST    R6,CPCWA
                                    7310
 00004A D7FF 6000 6000_00000 00000  7311                       CLEAR SHOSTWA
 000056 41F0 600C            0000C  7319                       LA    R15,SHOSTQH-(HOSTLINK-HOST)
 00005A 50F0 6010            00010  7320                       ST    R15,SHOSTQT         Dummy queue tail
 00005E 41F0 6004            00004  7321                       LA    R15,SHAILQH-(HAILLINK-HAIL)
 000062 50F0 6008            00008  7322                       ST    R15,SHAILQT         Dummy queue tail
                                    7323
 000066 4100 000A            0000A  7324                       LA    R0,SDSNHOSA         Want the SYSA hosts dsn
 00006A 9110 C4C4/47E0_004C4        7325                       IF    CVFRLG,'LA R0,SDSNHOSR'  RLG hosts dsn
 000076 D504 75F0 C00C_00616 0000C  7346                       IF    (CVMACHID,EQ,'SYSC '),'LA R0,SDSNHOSC'  SYSC hosts
 000084 D504 75F5 C00C_0061B 0000C  7369                       IF    (CVMACHID,EQ,'SYSD '),'LA R0,SDSNHOSD'  SYSD hosts
 000092 D504 75FA C00C_00620 0000C  7392                       IF    (CVMACHID,EQ,'SYSH '),'LA R0,SDSNHOSH'  SYSH hosts
 0000A0 58E0 7596/0DEE       005BC  7415                       VCALL EXIT0               LOCAL exit - format system dsname
1MAIL     (MAIL4072) (12:48) (15MAR04) SET WHOSTS Command                                                                   Page    7
0Current Usings:  (SHOSTWA,R6) (*,R7) (CP,R11) (CV,R12)
0Loc    Object Code    Addr1 Addr2  Stmt Lv Lineno    Source Statement           (Hibal 5, Asmedit 3.3)  HLASM R4.0  2004/03/15 12.48
+___    ______ ____    _____ _____  ____ __ ______    ______ _________
00000A6 58E0 759A/0DEE       005C0  7419                       OSCINIT (R1),(R0)
 0000AC 58E0 759E/0DEE       005C4  7435                       VCALL ZODSNM
 0000B2 5810 75A2/58E0_      005C8  7439                       OSCAN L:=V(DSNPRT)
 0000BC 58E0 75AA/0DEE       005D0  7450                       VCALL ZSNFIN              Set up DSNWA
                                    7454
 0000C2 9610 BD50      00D50        7455                       SET   CPLFLG1.CPFALL
 0000C6 9203 BD89      00D89        7462                       SET   CPFRDEXT
 0000CA 58E0 75AE/0DEE       005D4  7468                       VCALL ZDETRNG
                                    7472
 0000D0 58E0 75B2/0DEE       005D8  7473                       VCALL EXTOPEN             Open the file
 0000D6 12FF/4770 C7DE              7477                       IF    (R15,NZ),CVNEXT
                                    7494
 0000DC 58F0 7176            0019C  7495                       L     R15,SHOSTWRK
 0000E0 58E0 75B6/0DEE       005DC  7496                       VCALL DESPOT              (Co-routine is SHOSTRTN)
                                    7500
 0000E6 58E0 75BA/0DEE       005E0  7501                       VCALL EXTCLOSE            All done
                                    7505                       ¿þþþþþþþþþþþþþþþþþþþþþþþþþþþÜ
                                    7506                       Ÿ  Now do post-processing.  Ÿ
                                    7507                       ¾þþþþþþþþþþþþþþþþþþþþþþþþþþþ»
 0000EC D603 600C 600C_0000C 0000C  7508                       IF    (SHOSTQH,Z),BEGIN   Nothing there...
 0000F6 9108 C4C5/4710_004C5        7524  1                      IF    CVFINIT,EXIT
 0000FE D603 B05C B05C_0005C 0005C  7542  1                      TCCR
 00011E 4110 75FF/4100_      00625  7604  1                      TSEG  'No hosts defined.',,CR
 000130                             7622                       END
                                    7626                       ¿þþþþþþþþþþþþþþþþþþþþþþþþþþþþþþþþþþþþþþþþþþþÜ
                                    7627                       Ÿ  Make new host table the system default.  Ÿ
                                    7628                       ¾þþþþþþþþþþþþþþþþþþþþþþþþþþþþþþþþþþþþþþþþþþþ»
 000130 5850 C28C            0028C  7629                       L     R5,CVHOSTQH         Save old table ptr
 000134 D203 C28C 600C 0028C 0000C  7630                       MVC   CVHOSTQH,SHOSTQH    Make new version available
                                    7631                       ¿þþþþþþþþþþþþþþþþþþþþþþþþþþþþþþþÜ
                                    7632                       Ÿ  Release the old host table.  Ÿ
                                    7633                       ¾þþþþþþþþþþþþþþþþþþþþþþþþþþþþþþþ»
 00013A 1255/4780 713E              7634                       WHILE (R5,NZ),BEGIN       Freemain each entry...
 USING  HOST,R5                     7650  1                      WITH  (HOST,R5)
 000140 5840 5000            00000  7663  1                      L     R4,HOSTLINK
                                    7664  1
 000144 D7F0 5000 5000 00000 00000  7665  1                      CLEAR HOST                (Neatness)
 00014A 0700/47F0 712E_             7672  1                      FREEMAIN R,A=(R5),LV=L'HOST  Release host table entry
                                    7680  1
 00015E 1854                        7681  1                      LR    R5,R4
 000160 47F0 7114            0013A  7682                       END
 DROP   HOST,R5
                                    7692                       ¿þþþþþþþþþþþþþþþþþþþþþþþþþþþþþþþþþþþþþþþþþþþþþþþþþÜ
                                    7693                       Ÿ  Make new host alias table the system default.  Ÿ
                                    7694                       ¾þþþþþþþþþþþþþþþþþþþþþþþþþþþþþþþþþþþþþþþþþþþþþþþþþ»
 000164 5850 C290            00290  7695                       L     R5,CVHAILQH         Save old table ptr
 000168 D203 C290 6004 00290 00004  7696                       MVC   CVHAILQH,SHAILQH    Make new version available
                                    7697                       ¿þþþþþþþþþþþþþþþþþþþþþþþþþþþþþþþþþþþþþÜ
                                    7698                       Ÿ  Release the old host alias table.  Ÿ
                                    7699                       ¾þþþþþþþþþþþþþþþþþþþþþþþþþþþþþþþþþþþþþ»
 00016E 1255/4780 7172              7700                       WHILE (R5,NZ),BEGIN       Freemain each entry...
 USING  HAIL,R5                     7716  1                      WITH  (HAIL,R5)
 000174 5840 5000            00000  7729  1                      L     R4,HAILLINK
                                    7730  1
1MAIL     (MAIL4072) (12:48) (15MAR04) SET WHOSTS Command                                                                   Page    8
0Current Usings:  (HAIL,R5) (SHOSTWA,R6) (*,R7) (CP,R11) (CV,R12)
0Loc    Object Code    Addr1 Addr2  Stmt Lv Lineno    Source Statement           (Hibal 5, Asmedit 3.3)  HLASM R4.0  2004/03/15 12.48
+___    ______ ____    _____ _____  ____ __ ______    ______ _________
0000178 D704 5000 5000 00000 00000  7731  1                      CLEAR HAIL                (Neatness)
 00017E 0700/47F0 7162_             7738  1                      FREEMAIN R,A=(R5),LV=L'HAIL  Release host alias table entry
                                    7746  1
 000192 1854                        7747  1                      LR    R5,R4
 000194 47F0 7148            0016E  7748                       END
 DROP   HAIL,R5
                                    7758
 000198 47F0 C7DE            007DE  7759                       B     CVNEXT
 DROP   SHOSTWA,R6                  7760                       DROP  SHOSTWA,BR
 DROP   *,R7
                                    7774
 00019C                             7775                       DS    0F
 00019C E10001A0                    7776              SHOSTWRK DC    AL1(DESRTRN+LXCATRTN+UNPRST),AL3(SHOSTRTN)
1MAIL     (MAIL4072) (12:48) (15MAR04) SET WHOSTS Command                                                                   Page    9
0Current Usings:  (CP,R11) (CV,R12)
0Loc    Object Code    Addr1 Addr2  Stmt Lv Lineno    Source Statement           (Hibal 5, Asmedit 3.3)  HLASM R4.0  2004/03/15 12.48
+___    ______ ____    _____ _____  ____ __ ______    ______ _________
0                                   7778              ¿þþþþþþþþþþþþþþþþþþþþþþþþþþþþþþþþþþþþþþþþþþþþþþþþþþþþþþþþþþþþþþþþþþþþþÜ
                                    7779              Ÿ                                                                     Ÿ
                                    7780              Ÿ  SHOSTRTN -- Co-routine to process lines from the HOSTS file.       Ÿ
                                    7781              Ÿ                                                                     Ÿ
                                    7782              Ÿ    On entry:                                                        Ÿ
                                    7783              Ÿ      R1,R0 - line loc, len                                          Ÿ
                                    7784              Ÿ                                                                     Ÿ
                                                      ¾þþþþþþþþþþþþþþþþþþþþþþþþþþþþþþþþþþþþþþþþþþþþþþþþþþþþþþþþþþþþþþþþþþþþþ»
00001A0 50E0 D000/9028_      00000  7785              SHOSTRTN XENTER R2,R8,,LOCAL
 USING  *,R7
 0001BA 5860 BCA4            00CA4  7803                       L     R6,CPCWA
 USING  SHOSTWA,R6                  7804                       USING SHOSTWA,R6
                                    7813
 0001BE 4150 6024            00024  7814                       LA    R5,SHOST
 USING  HOST,R5                     7815                       USING HOST,R5
                                    7824
 0001C2 9640 BCD0      00CD0        7825                       SET   CPSCNFLG.CPFRTNER
 0001C6 D203 BCC8 742E 00CC8 005E8  7832                       MVC   CPSCNERT,=A(SHOSTXIT)  Go here if a scan error
                                    7833
 0001CC 5900 7432/47D0_      005EC  7834                       CEIL  R0,L'SHOSTLN
 0001D8 18F0                        7853                       LR    R15,R0
 0001DA 06F0/12FF/4740_             7854                       MOVE  R15,SHOSTLN,@R1
 0001E6 4110 6115/58E0_      00115  7892                       OSCINIT SHOSTLN,(R0)      Input line
 0001F0 9610 BCD0      00CD0        7911                       SET   CPFSNSEP            Set scan flag to allow "-"s
                                    7917
 0001F4 4110 7218/58E0_      003D2  7918              SHOSTSCN OSCAN SHOSTPRT            Look for options
 0001FE 47F0 7208            003C2  7932                       B     SHOSTXIT
                                    7933              *
                                    7934              *
 000202 58E0 7436/0DEE       005F0  7935              SAILNM   VCALL DEQUOTE             Dequote string if quoted
 000208 9001 6014            00014  7939                       STM   R0,R1,SHAILOLD      Save old name len, loc
 00020C 5900 743A/47D0_      005F4  7940                       CEIL  R0,&HOSTSZ          Not too long
 000218 1820                        7959                       LR    R2,R0
 00021A 1B11/58E0 7412_             7960                       OSCAN
 000222 58E0 7436/0DEE       005F0  7970                       VCALL DEQUOTE             Dequote string if quoted
 000228 5900 743A/47D0_      005F4  7974                       CEIL  R0,&HOSTSZ          Not too long
 000234 9001 601C            0001C  7993                       STM   R0,R1,SHAILNEW      Save new name len, loc
 000238 1A20                        7994                       AR    R2,R0
 00023A 4120 2006            00006  7995                       LA    R2,@R2+4+1+1        Length of HAIL entry
 00023E 1802/4510 708A_             7996                       GETMAIN R,LV=(R2)         Get a new HAIL entry
 000246 1831                        8001                       LR    R3,R1
 USING  HAIL,R3                     8002                       WITH  (HAIL,R3),BEGIN
 000248 D704 3000 3000 00000 00000  8016  1                      CLEAR HAIL
                                    8023  1
 00024E 58F0 6008            00008  8024  1                      L     R15,SHAILQT
 000252 5030 F000            00000  8025  1                      WITH  (HAIL,R15),'ST R3,HAILLINK'  Link up new entry
 USING  HAIL,R15
 DROP   HAIL,R15
                                    8049  1
 000256 5030 6008            00008  8050  1                      ST    R3,SHAILQT          Save new queue tail
                                    8051  1
 00025A 9812 6014            00014  8052  1                      LM    R1,R2,SHAILOLD
 00025E 5910 743E/47D0_      005F8  8053  1                      CEIL  R1,255              Not too long
1MAIL     (MAIL4072) (12:48) (15MAR04) SET WHOSTS Command                                                                   Page   10
0Current Usings:  (HAIL,R3) (HOST,R5) (SHOSTWA,R6) (*,R7) (CP,R11) (CV,R12)
0Loc    Object Code    Addr1 Addr2  Stmt Lv Lineno    Source Statement           (Hibal 5, Asmedit 3.3)  HLASM R4.0  2004/03/15 12.48
+___    ______ ____    _____ _____  ____ __ ______    ______ _________
000026A 4210 3004            00004  8072  1                      STC   R1,HAILOLEN         Save old host name length
 00026E 0610/1211/4740_             8073  1                      MOVE  R1,HAILOLD,@R2      Save old host name text
                                    8111  1
 00027A 41F0 3005            00005  8112  1                      LA    R15,HAILOLD
 00027E 5AF0 6014            00014  8113  1                      A     R15,SHAILOLD        New host name text starts here
 000282 9812 601C            0001C  8114  1                      LM    R1,R2,SHAILNEW
 000286 5910 743E/47D0_      005F8  8115  1                      CEIL  R1,255
 000292 4210 F000            00000  8134  1                      STC   R1,@R15             Save new host name length
 000296 0610/1211/4740_             8135  1                      MOVE  R1,@R15+1,@R2       Save new host name text
 DROP   HAIL,R3                     8173                       END
 0002A2 47F0 703A            001F4  8181                       B     SHOSTSCN
                                    8182              *
                                    8183              *
 0002A6 D7F0 5000 5000 00000 00000  8184              SHOSTNM  CLEAR HOST
 0002AC D24F 5006 C4D8 00006 004D8  8192                       MVC   HOSTNAME,CVBLANKS
 0002B2 18F0                        8193                       LR    R15,R0
 0002B4 59F0 7442/47D0_      005FC  8194                       CEIL  R15,L'HOSTNAME
 0002C0 06F0/12FF/4740_             8213                       MOVE  R15,HOSTNAME,@R1    Save host name
 0002CC 07FE                        8251                       BR    RAR
                                    8252
 0002CE 9620 5004      00004        8253              SHOSTGTE SET   HOSTFGTE            Gateway defined
 0002D2 D222 5056 C4D8 00056 004D8  8260                       MVC   HOSTGATE,CVBLANKS
 0002D8 18F0                        8261                       LR    R15,R0
 0002DA 59F0 7446/47D0_      00600  8262                       CEIL  R15,L'HOSTGATE
 0002E6 06F0/12FF/4740_             8281                       MOVE  R15,HOSTGATE,@R1    Save gateway address
 0002F2 07FE                        8319                       BR    RAR
                                    8320
 0002F4                             8321              SHOSTRLY LABEL ,
 0002F4 D222 5079 C4D8 00079 004D8  8323                       MVC   HOSTRELY,CVBLANKS   Clear relay address
 0002FA 18F0                        8324                       LR    R15,R0
 0002FC 59F0 744A/47D0_      00604  8325                       CEIL  R15,L'HOSTRELY
 000308 06F0/12FF/4740_             8344                       MOVE  R15,HOSTRELY,@R1    Save relay address
 000314 07FE                        8382                       BR    RAR
                                    8383              *
                                    8384              *
 000316 5900 744E/4770_      00608  8385              SHOSTACC IF    ((R0,EQ,6),AND,(@R1+2,EQ,'.')),BEGIN  Valid acct...
 000326 D202 509C F003 0009C 00003  8418  1                      MVC   HOSTACCT(3),@R15+3  uuu
 00032C D201 509F F000 0009F 00000  8419  1                      MVC   HOSTACCT+3(2),@R15  gg
 000332                             8420                       END
 000332 07FE                        8424                       BR    RAR
                                    8425
 000334 9680 5004      00004        8426              SHOSTBAT SET   HOSTFBAT            Batch job mail
 000338 07FE                        8433                       BR    RAR
                                    8434
 00033A 9640 5004      00004        8435              SHOSTBIT SET   HOSTFBIT            Bitnet mail
 00033E 07FE                        8442                       BR    RAR
                                    8443
 000340 9610 5004      00004        8444              SHOSTBSM SET   HOSTFBSMTP          BSMTP header required
 000344 07FE                        8451                       BR    RAR
                                    8452
 000346 9618 5004      00004        8453              SHOSTNFL SET   HOSTFBSMTP+HOSTFSUNMAIL  BSMTP and SUNMAIL
 00034A 07FE                        8463                       BR    RAR
                                    8464
 00034C 9604 5004      00004        8465              SHOSTTST SET   HOSTFTST            Test address
1MAIL     (MAIL4072) (12:48) (15MAR04) SET WHOSTS Command                                                                   Page   11
0Current Usings:  (HOST,R5) (SHOSTWA,R6) (*,R7) (CP,R11) (CV,R12)
0Loc    Object Code    Addr1 Addr2  Stmt Lv Lineno    Source Statement           (Hibal 5, Asmedit 3.3)  HLASM R4.0  2004/03/15 12.48
+___    ______ ____    _____ _____  ____ __ ______    ______ _________
0000350 07FE                        8472                       BR    RAR
                                    8473
 000352 9680 5005      00005        8474              SHOSTNDM SET   HOSTFNDM            Strip major domain name from addr
 000356 07FE                        8481                       BR    RAR
                                    8482
 000358 50E0 D000/41D0_      00000  8483              SHOSTERR LENTER
 000360 9602 5004      00004        8487                       SET   HOSTFERR            This is an error
 000364 58E0 7436/0DEE       005F0  8493                       VCALL DEQUOTE             Dequote string
 00036A D24F 50A1 C4D8 000A1 004D8  8497                       MVC   HOSTTEXT,CVBLANKS   Initialize command area
 000370 18F0                        8498                       LR    R15,R0
 000372 59F0 7452/47D0_      0060C  8499                       CEIL  R15,L'HOSTTEXT
 00037E 06F0/12FF/4740_             8518                       MOVE  R15,HOSTTEXT,@R1    Save command text
 00038A 4BD0 745A/58E0_      00614  8556                       LEXIT
                                    8562
 000394 4510 71E2/0000_      0039C  8563              SHOSTEND GETMAIN R,LV=L'HOST
 0003A2 1821                        8570                       LR    R2,R1               Newly getmained HOST entry ptr
 0003A4 18E2/41F0 00F1_             8571                       MOVEL @R2,SHOST,L'HOST    Save new HOST entry
 0003B2 58F0 6010            00010  8595                       L     R15,SHOSTQT
 0003B6 5020 F000            00000  8596                       WITH  (HOST,R15),'ST R2,HOSTLINK'  Link us to last entry
 USING  HOST,R15
 DROP   HOST,R15
 0003BA 5020 6010            00010  8620                       ST    R2,SHOSTQT
 0003BE 47F0 703A            001F4  8621                       B     SHOSTSCN
                                    8622
 0003C2 94BF BCD0      00CD0        8623              SHOSTXIT CLEAR CPSCNFLG.CPFRTNER
 0003C6 18D8/58E0 D000_             8632                       XEXIT
 DROP   HOST,R5                     8637                       DROP  HOST,SHOSTWA,BR
 DROP   SHOSTWA,R6
 DROP   *,R7
-0003D2 8C000202C1D3C9C1            8659              SHOSTPRT OSCKW ALIAS,SAILNM,(A,P)
 0003DB 8B0002A6C8D6E2E3            8661                       OSCKW HOST,SHOSTNM,(A,P)
 0003E3 0E000334C2C1E3D4            8663                       OSCKW BATMAIL,SHOSTBAT,A
 0003EE 0E00033AC2C9E3D4            8665                       OSCKW BITMAIL,SHOSTBIT,A
 0003F9 8F0002CEC7C1E3C5            8667                       OSCKW GATEMAIL,SHOSTGTE,(A,P)
 000405 8C0002F4D9C5D3C1            8669                       OSCKW RELAY,SHOSTRLY,(A,P)
 00040E 04000340C2E2D4E3            8671                       OSCKW BSMTP,SHOSTBSM
 000417 06000346E2E4D5D4            8673                       OSCKW SUNMAIL,SHOSTNFL
 000422 0300034CE3C5E2E3            8675                       OSCKW TEST,SHOSTTST
 00042A 07000352D5D6C4D6            8677                       OSCKW NODOMAIN,SHOSTNDM
 000436 8E000316C1C3C3D6            8679                       OSCKW ACCOUNT,SHOSTACC,(A,P)
 000441 8C000358C5D9D9D6            8681                       OSCKW ERROR,SHOSTERR,(A,P)
 00044A 02000394C5D5C4              8683                       OSCKW END,SHOSTEND
 000451 FF000000                    8685                       OSCKW
1MAIL     (MAIL4072) (12:48) (15MAR04) SET WHOSTS Command                                                                   Page   12
0Current Usings:  (CP,R11) (CV,R12)
0Loc    Object Code    Addr1 Addr2  Stmt Lv Lineno    Source Statement           (Hibal 5, Asmedit 3.3)  HLASM R4.0  2004/03/15 12.48
+___    ______ ____    _____ _____  ____ __ ______    ______ _________
0                                   8688              ¿þþþþþþþþþþþþþþþþþþþþþþþþþþþþþþþþþþþþþþþþþþþþþþþþþþþþþþþþþþþþþþþþþþþþþÜ
                                    8689              Ÿ                                                                     Ÿ
                                    8690              Ÿ  ALIASCHK -- Routine to convert an alias for a host to the actual   Ÿ
                                    8691              Ÿ    host name.                                                       Ÿ
                                    8692              Ÿ                                                                     Ÿ
                                    8693              Ÿ    On entry:                                                        Ÿ
                                    8694              Ÿ      R15 - host name ptr (&HOSTSZ bytes long)                       Ÿ
                                    8695              Ÿ                                                                     Ÿ
                                    8696              Ÿ    On exit, R15 (and cc):                                           Ÿ
                                    8697              Ÿ      0 - no match (not an alias)                                    Ÿ
                                    8698              Ÿ      4 - it was an alias; the host name passed on entry is updated  Ÿ
                                    8699              Ÿ            with the alias name.                                     Ÿ
                                    8700              Ÿ                                                                     Ÿ
                                                      ¾þþþþþþþþþþþþþþþþþþþþþþþþþþþþþþþþþþþþþþþþþþþþþþþþþþþþþþþþþþþþþþþþþþþþþ»
0000000                00000 00050  8701              ALIASWA  RECORD BEGIN
                                    8709  1           ALIASNM    DS    CL(&HOSTSZ)         Working host name
 000000                                   1          +ALIASNM    DS    CL(80)              Working host name
 000050                00050 00050  8710                       END
                                    8719              þþþþ
 000456 50E0 D000/9008_      00000  8720              ALIASCHK PROC  ALIASWA
 USING  *,R7
 USING  ALIASWA-(4+36),R8
 000470 185F                        8770                       LR    R5,R15              Host name ptr
                                    8771                       ¿þþþþþþþþþþþþþþþþþþþþþþþþþþþþþþþþþþþþþþþþþþþþþþþþþþþþþþþþþþÜ
                                    8772                       Ÿ  Change host name if it is an alias for something else.  Ÿ
                                    8773                       ¾þþþþþþþþþþþþþþþþþþþþþþþþþþþþþþþþþþþþþþþþþþþþþþþþþþþþþþþþþþ»
 000472 4160 C290            00290  8774                       LA    R6,CVHAILQH-(HAILLINK-HAIL)
                                    8775
 000476                             8776                       LOOP  BEGIN
 USING  HAIL,R6                     8782  1                      WITH  (HAIL,R6)
 000476 5860 6000/1266_      00000  8795  1                      WHILE ('LT R6,HAILLINK',NZ)  Go through host alias list...
 000480 1FFF/43F0 6004              8812  1                      LC    R15,HAILOLEN
 000486 D24F 8028 C4D8 00000 004D8  8819  1                      MVC   ALIASNM,CVBLANKS
 00048C 06F0/12FF/4740_             8820  1                      MOVE  R15,ALIASNM,HAILOLD  Old host name
                                    8858  1
 000498 D54F 8028 5000_00000 00000  8859  1                      IF    (@R5,EQ,ALIASNM),BEGIN  Matched...
 0004A2 411F 6006            00006  8876  2                        LA    R1,HAILOLD+1(R15)   New host name starts here
 0004A6 D24F 5000 C4D8 00000 004D8  8877  2                        MVC   @R5(L'ALIASNM),CVBLANKS
 0004AC 1FFF/43F0 1000              8878  2                        LC    R15,@R1             New host name length
 0004B2 06F0/12FF/4740_             8885  2                        MOVE  R15,@R5,@R1+1       Replace with new host name
 0004BE 41F0 0004            00004  8923  2                        LA    R15,4               Host name was an alias rc
 0004C2 47F0 705C            004CC  8924  2                        B     ALIASCEX
 0004C6                             8925  1                      END
 0004C6 47F0 7006            00476  8929                       END
 DROP   HAIL,R6
                                    8939
 0004CA 1BFF                        8940                       CLEAR R15                 No match rc
                                    8944
 0004CC 18D8/9808 D004_             8945              ALIASCEX PEND
 DROP   ALIASWA-(4+36),R8
 DROP   *,R7
1MAIL     (MAIL4072) (12:48) (15MAR04) SET WHOSTS Command                                                                   Page   13
0Current Usings:  (CP,R11) (CV,R12)
0Loc    Object Code    Addr1 Addr2  Stmt Lv Lineno    Source Statement           (Hibal 5, Asmedit 3.3)  HLASM R4.0  2004/03/15 12.48
+___    ______ ____    _____ _____  ____ __ ______    ______ _________
0000000                00000 00060  8972              HOSTCWA  RECORD BEGIN
 000000                             8980  1           HOSTCVLN   DS    A                   Number of chars matched
 000004                             8981  1           HOSTCVP    DS    A                   HOST entry ptr for closest match
                                    8982  1
 000008                             8983  1           HOSTCNSP   DS    A                   Ptr to HOSTCNM
 00000C                             8984  1           HOSTCNEP   DS    A                   Ptr to last char+1 of HOSTCNM
                                    8985  1
                                    8986  1           HOSTCNM    DS    CL(&HOSTSZ)         Working host name
 000010                                   1          +HOSTCNM    DS    CL(80)              Working host name
 000060                00060 00060  8987                       END
-                                   8997              ¿þþþþþþþþþþþþþþþþþþþþþþþþþþþþþþþþþþþþþþþþþþþþþþþþþþþþþþþþþþþþþþþþþþþþþÜ
                                    8998              Ÿ                                                                     Ÿ
                                    8999              Ÿ  HOSTCHK -- Routine to check the host name to see if it's one we    Ÿ
                                    9000              Ÿ    know about.                                                      Ÿ
                                    9001              Ÿ                                                                     Ÿ
                                    9002              Ÿ    On entry:                                                        Ÿ
                                    9003              Ÿ      R15 - host name ptr (&HOSTSZ bytes long)                       Ÿ
                                    9004              Ÿ                                                                     Ÿ
                                    9005              Ÿ    On exit, R15 (and cc):                                           Ÿ
                                    9006              Ÿ      0 - unknown host name                                          Ÿ
                                    9007              Ÿ      nz- host name is known (R15=HOST entry loc)                    Ÿ
                                    9008              Ÿ                                                                     Ÿ
                                                      ¾þþþþþþþþþþþþþþþþþþþþþþþþþþþþþþþþþþþþþþþþþþþþþþþþþþþþþþþþþþþþþþþþþþþþþ»
00004DA 50E0 D000/9008_      00000  9009              HOSTCHK  PROC  HOSTCWA
 USING  *,R7
 USING  HOSTCWA-(4+36),R8
 0004F4 D75F 8028 8028 00000 00000  9059                       CLEAR HOSTCWA
                                    9066
 0004FA D24F 8038 F000 00010 00000  9067                       MVC   HOSTCNM,@R15        Save host name
 000500 58F0 C8A8            008A8  9068                       L     R15,CVUPPTBL
 000504 DC4F 8038 F000 00010 00000  9069                       TR    HOSTCNM,@R15        Convert host name to caps
                                    9070
 00050A 4110 8038/4100_      00010  9071                       SETMSG HOSTCNM
 000512 58E0 711C/0DEE       00610  9085                       VCALL LRTRIM
 000518 5010 8030            00008  9089                       ST    R1,HOSTCNSP         Start of working host name
 00051C 1A10                        9090                       AR    R1,R0
 00051E 5010 8034            0000C  9091                       ST    R1,HOSTCNEP         End of working host name
                                    9092                       ¿þþþþþþþþþþþþþþþþþþþþþþþþþþþþþþÜ
                                    9093                       Ÿ  Lookup name in host table.  Ÿ
                                    9094                       ¾þþþþþþþþþþþþþþþþþþþþþþþþþþþþþþ»
 000522 4160 C28C            0028C  9095                       LA    R6,CVHOSTQH-(HOSTLINK-HOST)
                                    9096
 000526                             9097                       LOOP  BEGIN
 USING  HOST,R6                     9103  1                      WITH  (HOST,R6)
 000526 5860 6000/1266_      00000  9116  1                      WHILE ('LT R6,HOSTLINK',NZ)  Go through host list...
                                    9133  1
 000530 955C 6006/4770_00006        9134  1                      IF    (HOSTNAME,EQ,'*'),BEGIN  Match ending chars...
 000538 4110 6007/4100_      00007  9151  2                        SETMSG HOSTNAME+1,L'HOSTNAME-1  Host name (without *)
 000540 58E0 711C/0DEE       00610  9167  2                        VCALL LRTRIM
 000546 5820 8034            0000C  9171  2                        L     R2,HOSTCNEP         End of working host name
 00054A 1B20                        9172  2                        SR    R2,R0
1MAIL     (MAIL4072) (12:48) (15MAR04) SET WHOSTS Command                                                                   Page   14
0Current Usings:  (HOST,R6) (*,R7) (HOSTCWA-(4+36),R8) (CP,R11) (CV,R12)
0Loc    Object Code    Addr1 Addr2  Stmt Lv Lineno    Source Statement           (Hibal 5, Asmedit 3.3)  HLASM R4.0  2004/03/15 12.48
+___    ______ ____    _____ _____  ____ __ ______    ______ _________
000054C 5920 8030/4740_      00008  9173  2                        IF    (R2,LT,HOSTCNSP),EXIT  Stem is larger than name, scram
                                    9193  2
 000554 12F0                        9194  2                        LTR   R15,R0              Just "*"?
 000556 4720 7074            00568  9195  2                        IF    NP,BEGIN            Yes, matches everything...
 00055A D603 8028 8028_00000 00000  9206  3                          IF    (HOSTCVLN,Z),'ST R6,HOSTCVP'  Save HOST entry ptr
 000568                             9228  2                        END
                                    9232  2
 000568 7078/47F0 7098 00568 00558  9233  2                        ELSE  BEGIN               Match ending suffix...
 00056C 06F0/12FF/4740_             9244  3                          CMPR  R15,@R2,@R1         Does the suffix match?
 000578 4770 7098            0058C  9282  3                          IF    EQ,BEGIN            Matched...
 00057C 5900 8028/47D0_      00000  9293  4                            IF    (R0,GT,HOSTCVLN),BEGIN  Closest match so far...
 000584 5000 8028            00000  9310  5                              ST    R0,HOSTCVLN         Save number of chars matched
 000588 5060 802C            00004  9311  5                              ST    R6,HOSTCVP          Save HOST entry ptr
 00058C                             9312  4                            END
 00058C                             9316  3                          END
 00058C                             9320  2                        END
 00058C                             9324  1                      END
                                    9328  1
 00058C 709C/47F0 70AC 0058C 00536  9329  1                      ELSE  BEGIN               Match entire host name...
 000590 D54F 8038 6006_00010 00006  9340  2                        IF    (HOSTCNM,EQ,HOSTNAME),BEGIN  Matched...
 00059A 18F6                        9358  3                          LR    R15,R6
 00059C 47F0 70B4            005A8  9359  3                          B     HOSTCXIT
 0005A0                             9360  2                        END
 0005A0                             9364  1                      END
 0005A0 47F0 7032            00526  9368                       END
 DROP   HOST,R6
                                    9378
 0005A4 58F0 802C            00004  9379                       L     R15,HOSTCVP         Closest match HOST ptr (or zero)
                                    9380
 0005A8 18D8/9808 D004_             9381              HOSTCXIT PEND
 DROP   HOSTCWA-(4+36),R8
 DROP   *,R7
                                    9407                       QLTORG
1MAIL     (MAIL4072) (12:48) (15MAR04) MAIL and SEND Commands                                                               Page   15
0Current Usings:  (CP,R11) (CV,R12)
0Loc    Object Code    Addr1 Addr2  Stmt Lv Lineno    Source Statement           (Hibal 5, Asmedit 3.3)  HLASM R4.0  2004/03/15 12.48
+___    ______ ____    _____ _____  ____ __ ______    ______ _________
0000000                00000 00231  9448              MID      RECORD BEGIN
 000000                             9456  1           MIDLINK    DS    A                   Next MID ptr (or zero)
                                    9457  1
 000004 00                          9458  1           MIDXFLAG   FLAG
 MIDXFLAG.MIDXFBAT 80 ONES          9462  1                      FLAG  MIDXFBAT            - Send this item as a batch job
 MIDXFLAG.MIDXFBIT 40 ONES          9467  1                      FLAG  MIDXFBIT            - Send this item via Bitnet
 MIDXFLAG.MIDXFGTE 20 ONES          9472  1                      FLAG  MIDXFGTE            - Send this item via gateway
 MIDXFLAG.MIDXFBSM 10 ONES          9477  1                      FLAG  MIDXFBSMTP          - Include BSMTP header for item
 MIDXFLAG.MIDXFSUN 08 ONES          9482  1                      FLAG  MIDXFSUNMAIL        - SUNMAIL varient of BSMTP
 MIDXFLAG.MIDXFTST 04 ONES          9487  1                      FLAG  MIDXFTST            - Test address, hold outgoing items
 MIDXFLAG.MIDXFSKP 02 ONES          9492  1                      FLAG  MIDXFSKP            - Don't process this item
                                    9497  1
 000005 00                          9498  1           MIDXFLG2   FLAG
 MIDXFLG2.MIDXFCC  80 ONES          9502  1                      FLAG  MIDXFCC             - 'cc:' address
 MIDXFLG2.MIDXFHDR 40 ONES          9507  1                      FLAG  MIDXFHDR            - Put address in mail header
 MIDXFLG2.MIDXFSNT 20 ONES          9512  1                      FLAG  MIDXFSNT            - BSMTP mail sent flag
                                    9517  1
                                    9518  1           MIDXNAME   DS    CL(&NAMESZ)         Personal name
 000006                                   1          +MIDXNAME   DS    CL(80)              Personal name
                                    9519  1
                                    9520  1           MIDXUSNC   DS    CL(&USERSZ)         Some nets are case sensitive
 000056                                   1          +MIDXUSNC   DS    CL(80)              Some nets are case sensitive
                                    9521  1           MIDXHONC   DS    CL(&HOSTSZ)         ...case sensitive again
 0000A6                                   1          +MIDXHONC   DS    CL(80)              ...case sensitive again
                                    9522  1
                                    9523  1           MIDXUSER   DS    CL(&USERSZ)         Mail userid name
 0000F6                                   1          +MIDXUSER   DS    CL(80)              Mail userid name
                                    9524  1           MIDXHOST   DS    CL(&HOSTSZ)         Mail host name
 000146                                   1          +MIDXHOST   DS    CL(80)              Mail host name
                                    9525  1           MIDXKEY    EQU   MIDXUSER,*-MIDXUSER,C'X'
                                    9526  1
 000196                             9527  1           MIDXGATE   DS    CL(L'HOSTGATE)      Gateway address
 0001B9                             9528  1           MIDXRELY   DS    CL(L'HOSTRELY)      Relay node address
                                    9529  1
 0001DC                             9530  1           MIDXMTXT   DS    CL(L'KWRMTXT)       Mail information text
                                    9531  1
 00022C                             9532  1           MIDXACCT   DS    CL5                 Send mail to this account (uuugg)
                                    9533  1           MIDX       EQU   MIDXFLAG,*-MIDXFLAG,C'X'
                                    9534  1
 000231                00231 00231  9535                       END
1MAIL     (MAIL4072) (12:48) (15MAR04) MAIL and SEND Commands                                                               Page   16
0Current Usings:  (CP,R11) (CV,R12)
0Loc    Object Code    Addr1 Addr2  Stmt Lv Lineno    Source Statement           (Hibal 5, Asmedit 3.3)  HLASM R4.0  2004/03/15 12.48
+___    ______ ____    _____ _____  ____ __ ______    ______ _________
0000000                00000 0069E  9545              MAILWA   RECORD BEGIN
 000000 00                          9553  1           MWAFLAG    FLAG
 MWAFLAG.MWAFSOME  80 ONES          9557  1                      FLAG  MWAFSOME            - We have a least one address
 MWAFLAG.MWAFCC    40 ONES          9562  1                      FLAG  MWAFCC              - Processing 'cc'
                                    9567  1
 000001 00                          9568  1           MWAFLAG2   FLAG
 MWAFLAG2.MWAFNTFY 80 ONES          9572  1                      FLAG  MWAFNTFY            - Notify
 MWAFLAG2.MWAFSIL  40 ONES          9577  1                      FLAG  MWAFSIL             - Silent
 MWAFLAG2.MWAFEMS  20 ONES          9582  1                      FLAG  MWAFEMS             - EMS is doing this command
 MWAFLAG2.MWAFNHDR 10 ONES          9587  1                      FLAG  MWAFNHDR            - NOHDR option
 MWAFLAG2.MWAFUHDR 08 ONES          9592  1                      FLAG  MWAFUHDR            - UHEADER option
 MWAFLAG2.MWAFMHDR 04 ONES          9597  1                      FLAG  MWAFMHDR            - MHEADER option
 MWAFLAG2.MWAFDRYR 02 ONES          9602  1                      FLAG  MWAFDRYRUN          - DRYRUN option
 MWAFLAG2.MWAFMINF 01 ONES          9607  1                      FLAG  MWAFMINF            - MAILINFO option
                                    9612  1
 000002 00                          9613  1           MWAFLAG3   FLAG
 MWAFLAG3.MWAFFWD  80 ONES          9617  1                      FLAG  MWAFFWD             - We're forwarding a message
                                    9622  1
                                    9623  1           MWALMAX#   EQU   1000,,C'N'          Maximum allowed number of Add's
 000004                             9624  1           MWALCNT    DS    F                   ADDITEM loop counter
 000008                             9625  1           MWANEST    DS    F                   ADDLIST nesting level
 00000C                             9626  1           MWARCPTN   DS    F                   Header recipient address count
                                    9627  1
 000010                             9628  1           MWAMIDQH   DS    A                   First MID ptr (or zero if none)
 000014                             9629  1           MWAMIDQT   DS    A                   MID queue tail
                                    9630  1
 000018                             9631  1           MWATIME    DS    CL18                hh:mm day mm/dd/yy
 00002A                             9632  1           MWADATE    DS    CL17                hh:mm:ss mm/dd/yy
 00003B                             9633  1           MWAMSGID   DS    CL22                Message ID
 000051                             9634  1           MWAFROM    DS    CL200               Sender's userid
 000119                             9635  1           MWAFROMH   DS    CL200               Sender's userid with host name
 0001E1                             9636  1           MWARET     DS    CL200               Return mail address
                                    9637  1           MWANAME    DS    CL(&NAMESZ)         Sender's personal name
 0002A9                                   1          +MWANAME    DS    CL(80)              Sender's personal name
 0002F9                             9638  1           MWATITLE   DS    CL200               Title
                                    9639  1
                                    9640  1           MWARNAME   DS    CL(&NAMESZ)         Recipient's name (network)
 0003C1                                   1          +MWARNAME   DS    CL(80)              Recipient's name (network)
                                    9641  1
                                    9642  1           MWALINE    DS    XL(&PRESSZ)         Line work area
 000411                                   1          +MWALINE    DS    XL(256)             Line work area
                                    9643  1
 000511                             9644  1           MWAMKEY    DS    CL16                MAIL_INFO record group key
                                    9645  1
 000524                             9646  1           MWANLINS   DS    F                   No. of lines for new mail
 000528                             9647  1           MWANCNT    DS    F                   No. of bytes for new mail
                                    9648  1
 00052C                             9649  1           MWALINES   DS    F                   Total no. of lines for mail
 000530                             9650  1           MWACOUNT   DS    F                   Total no. of bytes for mail
                                    9651  1
 000534                             9652  1           MWAREGS    DS    9A                  Saved regs for DESPOT abort
 000558                             9653  1           MWASCAN    DS    XL(L'CPOSCAN)       Saved scanner info
                                    9654  1
 0005D4                             9655  1           MWAWMIDP   DS    A                   Working MID ptr
1MAIL     (MAIL4072) (12:48) (15MAR04) MAIL and SEND Commands                                                               Page   17
0Current Usings:  (CP,R11) (CV,R12)
0Loc    Object Code    Addr1 Addr2  Stmt Lv Lineno    Source Statement           (Hibal 5, Asmedit 3.3)  HLASM R4.0  2004/03/15 12.48
+___    ______ ____    _____ _____  ____ __ ______    ______ _________
00005D8                             9656  1           MWAWLNO    DS    F                   Working line-number
                                    9657  1
 0005DC                             9658  1           MWAWDIR    DS    H                   Working dir offset
 0005DE                             9659  1           MWAWOFFS   DS    H                   Working page offset
 0005E0                             9660  1           MWAWHCNT   DS    H                   Working header line count
                                    9661  1
                                    9662  1           MWANEW#    EQU   30                  Max no of new mail pages
 0005E2                             9663  1           MWAMNEW    DS    H           [Order] Maximum offset allowed
 0005E4                             9664  1           MWANNEW    DS    H           [Order] Current offset from MWANEW
 0005E6                             9665  1           MWANEW     DS    (MWANEW#)H  [Order] New mail directory
                                    9666  1
                                    9667  1           MWADIR#    EQU   60                  Max no of old mail pages
 000622                             9668  1           MWAMDIR    DS    H           [Order] Maximum offset allowed
 000624                             9669  1           MWANDIR    DS    H           [Order] Current offset from MWADIR
 000626                             9670  1           MWADIR     DS    (MWADIR#)H  [Order] Old mail directory
 00069E                0069E 0069E  9671                       END
1MAIL     (MAIL4072) (12:48) (15MAR04) MAIL and SEND Commands                                                               Page   18
0Current Usings:  (CP,R11) (CV,R12)
0Loc    Object Code    Addr1 Addr2  Stmt Lv Lineno    Source Statement           (Hibal 5, Asmedit 3.3)  HLASM R4.0  2004/03/15 12.48
+___    ______ ____    _____ _____  ____ __ ______    ______ _________
0                                   9681              ¿þþþþþþþþþþþþþþþþþþþþþþþþþþþþþþþþþþþþþþþþþþþþþþþþþþþþþþþþþþþþþþþþþþþþþÜ
                                    9682              Ÿ                                                                     Ÿ
                                    9683              Ÿ  MAIL -- MAIL and SEND commands.                                    Ÿ
                                    9684              Ÿ                                                                     Ÿ
                                                      ¾þþþþþþþþþþþþþþþþþþþþþþþþþþþþþþþþþþþþþþþþþþþþþþþþþþþþþþþþþþþþþþþþþþþþþ»
0000672 188D/41D0 D6A0_             9685              MAIL     GENTER L'MAILWA
 USING  *,R7
 000684 1868                        9704                       LR    R6,WAR
 USING  MAILWA,R6                   9705                       USING MAILWA,R6
 000686 5060 BCA4            00CA4  9714                       ST    R6,CPCWA
 00068A D7FF 6000 6000_00000 00000  9715                       CLEAR MAILWA              Init work area
                                    9728                       ¿þþþþþþþþþþþþþþþþþþþþþþþþþþþþþþþþþþþþþþþþþþþþþþþþþþÜ
                                    9729                       Ÿ  Account for Wylbur mail processing separately.  Ÿ
                                    9730                       ¾þþþþþþþþþþþþþþþþþþþþþþþþþþþþþþþþþþþþþþþþþþþþþþþþþþ»
 0006B4 D506 7B6E B448_011F2 00448  9731                       IF    (CPWCHAR,EQ,'GENERAL'),BEGIN
 0006BE D207 BC56 797C 00C56 01000  9748  1                      MVC   CPLWCHAR(8),=C'WYLMAIL_'  Prefix
 0006C4 D207 BC5E B448 00C5E 00448  9749  1                      MVC   CPLWCHAR+8(8),CPWCHAR  Set suffix
 0006CA 58E0 7A1C/0DEE       010A0  9750  1                      VCALL BILLCHK             Switch charging components
 0006D0                             9754                       END
                                    9758                       ¿þþþþþþþþþþþþþþþþþþþþþþþþþþþþþþþþþþþþþþþþþþþþþÜ
                                    9759                       Ÿ  Check to see if MAIL/SEND GBL is defined.  Ÿ
                                    9760                       ¾þþþþþþþþþþþþþþþþþþþþþþþþþþþþþþþþþþþþþþþþþþþþþ»
 0006D0 4110 7B75/4100_      011F9  9761                       SETMSG 'SES.MAIL_MAIL'     MAIL command
 0006D8 D502 7B82 BD24_01206 00D24  9765                       IF    (CPCMNM,EQ,'SEN'),'SETMSG "SES.MAIL_SEND"'  SEND cmd
 0006EA 58E0 7A20/0DEE       010A4  9791                       VCALL GBLCMD              Execute GBL command instead
                                    9795                       ¿þþþþþþþþþþþþþþþþþþþþþþþþþþþþþþþþþþþþþþþþþþþþþþþþþþþþþþþþþÜ
                                    9796                       Ÿ  Temporary limitation because we use halfword pagenos.  Ÿ
                                    9797                       ¾þþþþþþþþþþþþþþþþþþþþþþþþþþþþþþþþþþþþþþþþþþþþþþþþþþþþþþþþþ»
 0006F0 9140 C4C8/47E0_004C8        9798                       IF    CVFMEMPAGE,BEGIN    Trouble...
 0006F8 4110 7984/4100_      01008  9813  1                      ABORT 'MAIL/SEND commands not available in this Wylbur.'
 000704                             9820                       END
                                    9824                       ¿þþþþþþþþþþþþþþþþþþþþþþþþþþþþþþÜ
                                    9825                       Ÿ  Regular MAIL/SEND command.  Ÿ
                                    9826                       ¾þþþþþþþþþþþþþþþþþþþþþþþþþþþþþþ»
 000704 41F0 6010            00010  9827                       LA    R15,MWAMIDQH-(MIDLINK-MID)  Dummy first link
 000708 50F0 6014            00014  9828                       ST    R15,MWAMIDQT        Make tail
                                    9829
 00070C 9680 6001      00001        9830                       SET   MWAFNTFY            Notify is the default
                                    9836
                                    9837                       COMMENT                   Make MWADATE hh:mm:ss mm/dd/yy
 000710 58E0 7A24/0DEE       010A8  9838                       VCALL LOCALTOD            Current time/date
 000716 18FD/41D0 D020              9842                       XPUSH ,,32,PTR=R15
 00071C 58E0 7A28/0DEE       010AC  9845                       VCALL FMTCLCK
 000722 D20E 602A 1000 0002A 00000  9849                       MVC   MWADATE(15),@R1     Save current time/date
 000728 D201 6039 1011 00039 00011  9850                       MVC   MWADATE+15(2),17(R1)  but ignore century part for now
 00072E 4BD0 7B0C            01190  9851                       XPOP  ,,32
                                    9853
                                    9854                       COMMENT                   Make MWATIME hh:mm day mm/dd/yy
 000732 D211 6018 C4D8 00018 004D8  9855                       MVC   MWATIME,CVBLANKS
 000738 D204 6018 602A 00018 0002A  9856                       MVC   MWATIME(5),MWADATE  Move hh:mm
 00073E D207 6022 6033 00022 00033  9857                       MVC   MWATIME+10(8),MWADATE+9  Move  mm/dd/yy
 000744 58E0 7A24/0DEE       010A8  9858                       VCALL LOCALTOD
 00074A 58E0 7A2C/0DEE       010B0  9862                       VCALL FMTDAY
1MAIL     (MAIL4072) (12:48) (15MAR04) MAIL and SEND Commands                                                               Page   19
0Current Usings:  (MAILWA,R6) (*,R7) (CP,R11) (CV,R12)
0Loc    Object Code    Addr1 Addr2  Stmt Lv Lineno    Source Statement           (Hibal 5, Asmedit 3.3)  HLASM R4.0  2004/03/15 12.48
+___    ______ ____    _____ _____  ____ __ ______    ______ _________
0000750 D202 601E 1000 0001E 00000  9866                       MVC   MWATIME+6(3),@R1    Move day
                                    9867                       ¿þþþþþþþþþþþþþþþþþþþþþþþþþþþþþÜ
                                    9868                       Ÿ  Make a unique message id.  Ÿ
                                    9869                       ¾þþþþþþþþþþþþþþþþþþþþþþþþþþþþþ»
 000756 D215 603B 7B0E 0003B 01192  9870                       MVC   MWAMSGID,=C'A0000-0000-00000:00000'
                                    9871
 00075C 5830 C1C8            001C8  9872                       L     R3,CVCURJCB
 USING  JCB,R3                      9873                       WITH  (JCB,R3),BEGIN
 000760 5820 3038            00038  9887  1                      L     R2,JCBSINP
 USING  SIN,R2                      9888  1                      WITH  (SIN,R2),BEGIN
 000764 D502 7B92 2000_01216 00000  9902  2                        IF    (SIN,EQ,'SIN'),BEGIN
 00076E D20F 603B 2052 0003B 00052  9919  3                          MVC   MWAMSGID(16),SINSTAG
 000774 927A 604B      0004B        9920  3                          MVI   MWAMSGID+16,C':'
 000778 41F0 0001/5EF0_      00001  9921  3                          INCR  R15,CPNMAIL         Count number of mail commands
 000784 5EF0 7A30            010B4  9927  3                          AL    R15,=A(100000)      Force leading zeros
 000788 4100 0005/4110_      00005  9928  3                          BTD   MWAMSGID+17,5,(R15)  Add message count
 000796                             9950  2                        END
 DROP   SIN,R2                      9954  1                      END
 DROP   JCB,R3                      9962                       END
                                    9970                       ¿þþþþþþþþþþþþþþþþþþþþþþþþþþþþþþþþþþþþþþþþþþþþþþþþþþþþþþþþþþþÜ
                                    9971                       Ÿ  Build sender's userid.  MWAFROM is just the userid; and  Ÿ
                                    9972                       Ÿ    MWAFROMH is the userid with our host name included.    Ÿ
                                    9973                       ¾þþþþþþþþþþþþþþþþþþþþþþþþþþþþþþþþþþþþþþþþþþþþþþþþþþþþþþþþþþþ»
 000796 D2C7 6051 C4D8 00051 004D8  9974                       MVC   MWAFROM,CVBLANKS
 00079C D61F B198 B198_00198 00198  9975                       IF    (CPUID,NZ),BEGIN    Use primary userid...
 0007A6 D21F 6051 B198 00051 00198  9991  1                      MVC   MWAFROM(L'CPUID),CPUID
 0007AC                             9992                       END
 0007AC 712C/47F0 713C 007AC 007A4  9996                       ELSE  BEGIN               If no ID, then use GG.UUU...
 0007B0 D201 6051 B3B7 00051 003B7 10007  1                      MVC   MWAFROM(2),CPSGRP
 0007B6 924B 6053      00053       10008  1                      MVI   MWAFROM+2,C'.'
 0007BA D202 6054 B3B4 00054 003B4 10009  1                      MVC   MWAFROM+3(3),CPSUSER
 0007C0                            10010                       END
                                   10014
 0007C0 D2C7 6119 6051 00119 00051 10015                       MVC   MWAFROMH,MWAFROM
 0007C6 4110 6119/4100_      00119 10016                       SETMSG MWAFROMH
 0007CE 58E0 7A38/0DEE       010BC 10030                       VCALL RTRIM
 0007D4 1A10                       10034                       AR    R1,R0
 0007D6 927C 1000      00000       10035                       MVI   @R1,C'@'
 0007DA D207 1001 C004 00001 00004 10036                       MVC   @R1+1(L'CVINSTAL),CVINSTAL
 0007E0 D507 79B4 C004_01038 00004 10037                       IF    (CVINSTAL,EQ,'STANFORD'),BEGIN
 0007EA 9110 C4C4/47E0_004C4       10054  1                      IF    CVFRLG,BEGIN  Stanford/RLG...
 0007F2 D218 1001 7B95 00001 01219 10069  2                        MVC   @R1+1(25),=CL25'RLG.ORG'
 0007F8                            10070  1                      END
 0007F8 7178/47F0 717E 007F8 007F0 10074  1                      ELSE  BEGIN               Stanford/Forsythe...
 0007FC D218 1001 7BAE 00001 01232 10085  2                        MVC   @R1+1(25),=CL25'Forsythe.Stanford.EDU'
 000802                            10086  1                      END
 000802                            10090                       END
                                   10094
 000802 D24F 62A9 C4D8 002A9 004D8 10095                       MVC   MWANAME,CVBLANKS
 000808 D213 62A9 B174 002A9 00174 10096                       MVC   MWANAME(L'CPNAME),CPNAME  User name
 00080E D613 B174 B174_00174 00174 10097                       IF    (CPNAME,Z),'CLEAR MWANAME'
                                   10125
 00081E D201 6622 7B24 00622 011A8 10126                       MVC   MWAMDIR,=AL2(MWADIR#*2)
 000824 D201 65E2 7B26 005E2 011AA 10127                       MVC   MWAMNEW,=AL2(MWANEW#*2)
1MAIL     (MAIL4072) (12:48) (15MAR04) MAIL and SEND Commands                                                               Page   20
0Current Usings:  (MAILWA,R6) (*,R7) (CP,R11) (CV,R12)
0Loc    Object Code    Addr1 Addr2  Stmt Lv Lineno    Source Statement           (Hibal 5, Asmedit 3.3)  HLASM R4.0  2004/03/15 12.48
+___    ______ ____    _____ _____  ____ __ ______    ______ _________
0                                  10128                       ¿þþþþþþþþþþþþþþþþþþþþþþÜ
                                   10129                       Ÿ  Scan SEND command.  Ÿ
                                   10130                       ¾þþþþþþþþþþþþþþþþþþþþþþ»
 00082A D502 7B82 BD24_01206 00D24 10131                       IF    (CPCMNM,EQ,'SEN'),BEGIN  SEND command...
 000834 58E0 7A3C/0DEE       010C0 10148  1           SENDSCAN   ACALL MTOKEN              Get next token
 00083A 4780 71CC/D207_      00850 10152  1                      IF    NZ,'ERROR "Missing account(s) for SEND.",,NOSNDACC'
                                   10176  1         C            IF    ((R0,EQ,2),AND,((@R1,EQ,'TO'),OR,
 000850 5900 7A5C/4770_      010E0        1                            (@R1,EQ,'to'))),BEGIN
 00086C 4110 7BC7/4100_      0124B 10223  2                        TSEG  'TO ignored.',,CR
 00087E 47F0 71B0            00834 10241  2                        B     SENDSCAN
 000882                            10242  1                      END
                                   10246  1
 000882 9140 B149/47E0_00149       10247  1                      IF    CPOFNPAS,BEGIN      For SPIRES...
                                   10262  2         C              IF    ((@R1,EQ,'MAI '),OR,(@R1,EQ,'MAIL '),OR,
                                          2         C                    (@R1,EQ,'SPI '),OR,(@R1,EQ,'SPIR'),OR,
                                          2         C                    (@R1,EQ,'mai '),OR,(@R1,EQ,'mail '),OR,
 00088A D503 7A64 1000_010E8 00000        2                              (@R1,EQ,'spi '),OR,(@R1,EQ,'spir')),'VCALL ORVCMD'
 0008E0                            10380  1                      END
                                   10384  1
 0008E0 58E0 7A80/0DEE       01104 10385  1                      ACALL ADDLIST
                                   10389  1
 0008E6 58E0 7A84/0DEE       01108 10390  1                      OSCTELL ,                 Remaining text
 0008EC 58E0 7A88/0DEE       0110C 10395  1                      VCALL LRTRIM
 0008F2 1200/4720 7286_            10399  1                      IF  (R0,NP),'ERROR "Missing message after account.",,NOSNDMSG'
 00090A D2C7 62F9 C4D8 002F9 004D8 10426  1                      MVC   MWATITLE,CVBLANKS
 000910 5900 7A8C/47D0_      01110 10427  1                      CEIL  R0,L'MWATITLE
 00091C 18F0                       10446  1                      LR    R15,R0
 00091E 06F0/12FF/4740_            10447  1                      MOVE  R15,MWATITLE,@R1    Move in title
 00092A                            10485                       END
                                   10489                       ¿þþþþþþþþþþþþþþþþþþþþþþÜ
                                   10490                       Ÿ  Scan MAIL command.  Ÿ
                                   10491                       ¾þþþþþþþþþþþþþþþþþþþþþþ»
 00092A 72AA/47F0 735C 0092A 00832 10492                       ELSE  BEGIN               Mail command...
                                   10503  1                      ¿þþþþþþþþþþþþþþþþþþþþþþþþþþþþþþþþþþþþþþþþþþþþþþþþþþþþþþþþþþþþÜ
                                   10504  1                      Ÿ  We need to pre-scan the command for range information.    Ÿ
                                   10505  1                      Ÿ    The following piece of uglyness copies the text we are  Ÿ
                                   10506  1                      Ÿ    about to scan to a temporary buffer and scans it from   Ÿ
                                   10507  1                      Ÿ    there; this is to avoid converting the text to upper    Ÿ
                                   10508  1                      Ÿ    case.                                                   Ÿ
                                   10509  1                      ¾þþþþþþþþþþþþþþþþþþþþþþþþþþþþþþþþþþþþþþþþþþþþþþþþþþþþþþþþþþþþ»
 00092E D27B 6558 BCA8 00558 00CA8 10510  1                      MVC   MWASCAN,CPOSCAN      Save scanner info
                                   10511  1
 000934 58E0 7A84/0DEE       01108 10512  1                      OSCTELL
 00093A 5900 7A90/47D0_      01114 10517  1                      CEIL  R0,L'MWALINE        Not too much
 000946 18F0                       10536  1                      LR    R15,R0
 000948 06F0/12FF/4740_            10537  1                      MOVE  R15,MWALINE,@R1
 000954 4110 6411/58E0_      00411 10575  1                      OSCSET MWALINE,(R0)       Scan alternate copy
                                   10594  1
 00095E 9610 BD50      00D50       10595  1                      SET   CPLFLG1.CPFALL      Default range is ALL
 000962 58E0 7A98/0DEE       0111C 10602  1                      VCALL SCNEX               Allow from exec
 000968 58E0 7A9C/0DEE       01120 10606  1                      VCALL ZDETRNG             Scan range (if any)
                                   10610  1
 00096E 5810 BCA8            00CA8 10611  1                      L     R1,CPSCNLOC
 000972 41F0 6411            00411 10612  1                      LA    R15,MWALINE
1MAIL     (MAIL4072) (12:48) (15MAR04) MAIL and SEND Commands                                                               Page   21
0Current Usings:  (MAILWA,R6) (*,R7) (CP,R11) (CV,R12)
0Loc    Object Code    Addr1 Addr2  Stmt Lv Lineno    Source Statement           (Hibal 5, Asmedit 3.3)  HLASM R4.0  2004/03/15 12.48
+___    ______ ____    _____ _____  ____ __ ______    ______ _________
0000976 1B1F                       10613  1                      SR    R1,R15              Offset in to text
 000978 4800 BCAC            00CAC 10614  1                      LH    R0,CPSCNLEN         Remaining length
 00097C D27B BCA8 6558 00CA8 00558 10615  1                      MVC   CPOSCAN,MWASCAN      Restore scanner info
 000982 5E10 BCA8            00CA8 10616  1                      AL    R1,CPSCNLOC
 000986 58E0 7A94/0DEE       01118 10617  1                      OSCSET (R1),(R0)          Adjust scan ptrs
                                   10633  1                      ¿þþþþþþþþþþþþþþþþþþþþþþþþþþþþþþþþþþþþþþÜ
                                   10634  1                      Ÿ  Now scan for MAIL command options.  Ÿ
                                   10635  1                      ¾þþþþþþþþþþþþþþþþþþþþþþþþþþþþþþþþþþþþþþ»
 00098C 4110 762C/58E0_      00CB0 10636  1           MAILSCAN   OSCAN MAILPRT             Mail command options
                                   10650  1
 000996 9101 6001/47E0_00001       10651  1                      IF    MWAFMINF,BEGIN      If MAILINFO option,
 00099E 9180 6000/47E0_00000       10666  2                        IF    MWAFSOME,BEGIN      Err if already have recipients,
 0009A6 4110 7B4A/4100_      011CE 10681  3                          ERROR 'MAILINFO invalid with TO or CC'
 0009B2                            10688  2                        END
 0009B2 58E0 7AA4/0DEE       01128 10692  2                        ACALL MGETMINF            Go read MAIL_INFO record group
 0009B8                            10696  1                      END
                                   10700  1
 0009B8 9180 6000/4710_00000       10701  1                      IF    ~MWAFSOME,BEGIN
 0009C0 4110 7BDC/4100_      01260 10716  2                        SETMSG 'SES.MAIL_MAILDFLT'
 0009C8 58E0 7A20/0DEE       010A4 10720  2                        VCALL GBLCMD
 0009CE D207 B886 79CC_00886 01050 10724  2                        ERROR 'Missing "TO account" on MAIL command.',,NOMAIACC
 0009E0                            10732  1                      END
 0009E0                            10736                       END
                                   10740                       ¿þþþþþþþþþþþþþþþþþþþþþþþþþþþþþþþþþþþþþÜ
                                   10741                       Ÿ  Process the SEND or MAIL command.  Ÿ
                                   10742                       ¾þþþþþþþþþþþþþþþþþþþþþþþþþþþþþþþþþþþþþ»
 0009E0 185D/41D0 D03C             10743                       XPUSH ,,L'SEGCB,PTR=R5
 USING  SEGCB,R5                   10746                       WITH  (SEGCB,R5),BEGIN
 0009E6 4110 6411/4100_      00411 10760  1                      SEGINIT MWALINE,&LINESZ,SEGCB
                                   10789  1
                                   10790  1                      COMMENT                   DO OLD MAIL FIRST LINE
 0009F6 9110 C4C4/47E0_004C4       10791  1                      IF    CVFRLG,BEGIN        RLG uses OLD MAIL hdr (grrr)...
 0009FE 4110 7B68/4100_      011EC 10806  2                        SEG   '*N'                Header line starts with "*n"
 000A0E 4110 79D4/4100_      01058 10823  2                        SEGB  '????????'          No subject yet
 000A1E 4110 602A/4100_      0002A 10841  2                        SEGB  MWADATE             "hh:mm:ss mm/dd/yy"
 000A2E 4110 7AB4/4100_      01138 10869  2                        SEGB  'FROM'
                                   10887  2                        ¿þþþþþþþþþþþþþþþþþþþþþþþþþþþþþþþþþþþþþþþþþþþþþþþþþþþþþþþþþþþþþþÜ
                                   10888  2                        Ÿ  Temporarily use the "gg.uuu" instead of our userid so that  Ÿ
                                   10889  2                        Ÿ    EMS will correctly process the mail header.               Ÿ
                                   10890  2                        ¾þþþþþþþþþþþþþþþþþþþþþþþþþþþþþþþþþþþþþþþþþþþþþþþþþþþþþþþþþþþþþþ»
 000A3E D51F B198 6051_00198 00051 10891  2                        IF    (CPUID,EQ,MWAFROM),BEGIN  It's our userid...
 000A48 4110 B3B7/4100_      003B7 10909  3                          SEG   CPSGRP
 000A58 4110 7C12/4100_      01296 10936  3                          SEG   '.'
 000A68 4110 B3B4/4100_      003B4 10953  3                          SEG   CPSUSER
 000A78                            10980  2                        END
                                   10984  2
 000A78 73F8/47F0 7408 00A78 00A46 10985  2                        ELSE  BEGIN               Otherwise, use what is given...
 000A7C 4110 6051/4100_      00051 10996  3                          SEGT  MWAFROM
 000A8C                            11024  2                        END
                                   11028  2
 000A8C D64F 62A9 62A9_002A9 002A9 11029  2                        IF    (MWANAME,NZ),BEGIN
 000A96 4110 7B6A/4100_      011EE 11045  3                          SEG   ' "'
 000AA6 4110 62A9/4100_      002A9 11062  3                          SEGT  MWANAME
 000AB6 4110 7C13/4100_      01297 11090  3                          SEG   '"'
1MAIL     (MAIL4072) (12:48) (15MAR04) MAIL and SEND Commands                                                               Page   22
0Current Usings:  (SEGCB,R5) (MAILWA,R6) (*,R7) (CP,R11) (CV,R12)
0Loc    Object Code    Addr1 Addr2  Stmt Lv Lineno    Source Statement           (Hibal 5, Asmedit 3.3)  HLASM R4.0  2004/03/15 12.48
+___    ______ ____    _____ _____  ____ __ ______    ______ _________
0000AC6                            11107  2                        END
 000AC6 4110 7C14/4100_      01298 11111  2                        SEGB  ':'
 000AD6                            11129  1                      END
                                   11133  1
                                   11134  1                      COMMENT                   DO NEW MAIL FIRST LINE
 000AD6 7456/47F0 7500 00AD6 009FC 11135  1                      ELSE  BEGIN
 000ADA 4110 7B68/4100_      011EC 11146  2                        SEG   '*N'                Header line starts with "*n"
 000AEA 4110 79D4/4100_      01058 11163  2                        SEGB  '????????'          No subject yet
 000AFA 4110 6018/4100_      00018 11181  2                        SEGB  MWATIME             "hh:mm:ss mm/dd/yy"
 000B0A 4110 7ABC/4100_      01140 11209  2                        SEGB  'From'
 000B1A D64F 62A9 62A9_002A9 002A9 11227  2                        IF    (MWANAME,NZ),BEGIN
 000B24 4110 62A9/4100_      002A9 11243  3                          SEGT  MWANAME
 000B34 4110 7C15/4100_      01299 11271  3                          SEG   ' '
 000B44                            11288  2                        END
 000B44 4110 7C16/4100_      0129A 11292  2                        SEG   '<'
 000B54 4110 6051/4100_      00051 11309  2                        SEGT  MWAFROM
 000B64 4110 7C17/4100_      0129B 11337  2                        SEG   '>'
 000B74 4110 7C14/4100_      01298 11354  2                        SEGB  ':'
 000B84                            11372  1                      END
                                   11376  1
 000B84 D6C7 62F9 62F9_002F9 002F9 11377  1                      IF    (MWATITLE,NZ),'SEGT MWATITLE'  Title (if any)
                                   11426  1
 000B9E 1BFF                       11427  1                      CLEAR R15                 Dummy lineno (ignored later)
 000BA0 4110 6411/5800_      00411 11431  1                      SETMSG MWALINE,L:SEGCBLENF
 DROP   SEGCB,R5                   11445                       END
                                   11453
 000BA8 4BD0 7B6C            011F0 11454                       XPOP  ,,L'SEGCB
 000BAC 58E0 7AC0/0DEE       01144 11456                       VCALL PRESS               Convert to pressed format
 000BB2 18F1                       11460                       LR    R15,R1              Pressed line ptr
 000BB4 4110 0001/5E10_      00001 11461                       INCR  R1,MWANLINS         Kick line count
 000BC0 5810 6528            00528 11467                       L     R1,MWANCNT          Byte count
 000BC4 4110 1005            00005 11468                       LA    R1,@R1+5            Plus lineno & len byte
 000BC8 1A10                       11469                       AR    R1,R0               Plus pressed text
 000BCA 5010 6528            00528 11470                       ST    R1,MWANCNT
                                   11471
 000BCE 4110 65E2            005E2 11472                       LA    R1,MWAMNEW          Point to dir area for BUFRLINE
 000BD2 58E0 7AC4/0DEE       01148 11473                       ACALL BUFRLINE            Buffer line
 000BD8 47D0 756C/900F_      00BF0 11477                       FAIL  POS,MAILERRX
                                   11499
 000BF0 D502 7C18 BD24_0129C 00D24 11500                       IF    (CPCMNM,EQ,'MAI'),BEGIN  Add range to mail item...
 000BFA 58F0 7628            00CAC 11517  1                      L     R15,MAILWRK
 000BFE 9502 BD89/4770_00D89       11518  1                      IF    CPFRDEXE,'O R15,=AL1(LEXATRTN,0,0,0)'  Exec
 000C0A 58E0 7ACC/0DEE       01150 11539  1                      VCALL DESPOT              (Co-routine is MAILRTN)
 000C10 4780 759E/41F0_      00C22 11543  1                      IF    NZ,'TCLEAR; B CVNOACTN'
 000C22 9102 BD88/47E0_00D88       11574  1                      IF    ~CPFSOME,CVNEXT     Nothing
 000C2A                            11592                       END
                                   11596                       ¿þþþþþþþþþþþþþþþþþþþþþþþþþþÜ
                                   11597                       Ÿ  Delete duplicate id's.  Ÿ
                                   11598                       ¾þþþþþþþþþþþþþþþþþþþþþþþþþþ»
 000C2A 5850 6010            00010 11599                       L     R5,MWAMIDQH
 000C2E 1255/4780 75E6             11600                       WHILE (R5,NZ),BEGIN       Go through all items...
 USING  MID,R5                     11616  1                      WITH  (MID,R5)
1MAIL     (MAIL4072) (12:48) (15MAR04) MAIL and SEND Commands                                                               Page   23
0Current Usings:  (MID,R5) (MAILWA,R6) (*,R7) (CP,R11) (CV,R12)
0Loc    Object Code    Addr1 Addr2  Stmt Lv Lineno    Source Statement           (Hibal 5, Asmedit 3.3)  HLASM R4.0  2004/03/15 12.48
+___    ______ ____    _____ _____  ____ __ ______    ______ _________
0                                  11629  1                      ¿þþþþþþþþþþþþþþþþþþþþþþþþþþþþþþþþþþþþþþþþþþþþþþþþþþþþþþþþþþþþÜ
                                   11630  1                      Ÿ  Search through the entire item list for each item in the  Ÿ
                                   11631  1                      Ÿ    list.  This is an "n by m" search which might start to  Ÿ
                                   11632  1                      Ÿ    get expensive if there are many items.                  Ÿ
                                   11633  1                      ¾þþþþþþþþþþþþþþþþþþþþþþþþþþþþþþþþþþþþþþþþþþþþþþþþþþþþþþþþþþþþ»
 000C34 9102 5004/4710_00004       11634  1                      IF    ~MIDXFSKP,BEGIN
 000C3C 58F0 6010            00010 11649  2                        L     R15,MWAMIDQH
 000C40 12FF/4780 75DE             11650  2                        WHILE (R15,NZ),BEGIN
 USING  MID,R15                    11666  3                          WITH  (MID,R15)
 000C46 D59F F0F6 50F6 000F6 000F6 11679  3                          CLC   MIDXKEY,MIDXKEY-MID(R5)
 000C4C 4770 75D6            00C5A 11680  3                          IF    EQ,BEGIN            Same id as current...
 000C50 19F5/4780 75D6             11691  4                            IF    (R15,EQ,R5),EXIT    It is the current, scram
 000C56 9602 F004      00004       11709  4                            SET   MIDXFSKP            Skip the duplicate id
 000C5A                            11715  3                          END
                                   11719  3
 000C5A 58F0 F000            00000 11720  3                          L     R15,MIDLINK         Next mail item
 000C5E 47F0 75BC            00C40 11721  2                        END
 DROP   MID,R15
 000C62                            11731  1                      END
                                   11735  1
 000C62 5850 5000            00000 11736  1                      L     R5,MIDLINK          Next mail item
 000C66 47F0 75AA            00C2E 11737                       END
 DROP   MID,R5
                                   11747                       ¿þþþþþþþþþþþþþþþþþþÜ
                                   11748                       Ÿ  Send the mail.  Ÿ
                                   11749                       ¾þþþþþþþþþþþþþþþþþþ»
 000C6A 5850 6010            00010 11750                       L     R5,MWAMIDQH
 000C6E 1255/4780 760A             11751                       WHILE (R5,NZ),BEGIN       Send all items...
 USING  MID,R5                     11767  1                      WITH  (MID,R5)
                                   11780  1
 000C74 9102 5004/4710_00004       11781  1                      IF    ~MIDXFSKP,BEGIN     Process this item...
 000C7C 41F0 5000            00000 11796  2                        LA    R15,MID
 000C80 58E0 7AD4/0DEE       01158 11797  2                        ACALL SENDMAIL            Send this mail item
 000C86                            11801  1                      END
                                   11805  1
 000C86 5850 5000            00000 11806  1                      L     R5,MIDLINK          Next mail item
 000C8A 47F0 75EA            00C6E 11807                       END
 DROP   MID,R5
                                   11817                       ¿þþþþþþþþþþþþþþþþþþþþþþÜ
                                   11818                       Ÿ  Finish up command.  Ÿ
                                   11819                       ¾þþþþþþþþþþþþþþþþþþþþþþ»
 000C8E D502 7C18 BD24_0129C 00D24 11820                       IF    (CPCMNM,EQ,'MAI'),BEGIN
 000C98 91C0 BD5A/4770_00D5A       11837  1                      IF    (CPFABORT+CPFERROR,Z),'CLEAR CPACHCT'
 000CA6                            11869                       END
                                   11873
 000CA6 47F0 C7DE            007DE 11874                       B     CVNEXT
                                   11875
 000CAC                            11876                       DS    0F
 000CAC 84                         11877              MAILWRK  DC    AL1(DESRTRN+LOCATRTN+PREST+DESABORT)
 000CAD 004846                     11878                       DC    AL3(MAILRTN)
1MAIL     (MAIL4072) (12:48) (15MAR04) MAIL and SEND Commands                                                               Page   24
0Current Usings:  (MAILWA,R6) (*,R7) (CP,R11) (CV,R12)
0Loc    Object Code    Addr1 Addr2  Stmt Lv Lineno    Source Statement           (Hibal 5, Asmedit 3.3)  HLASM R4.0  2004/03/15 12.48
+___    ______ ____    _____ _____  ____ __ ______    ______ _________
0                                  11880              ***
                                   11881              ***  MAIL command options.
                                   11882              ***
 000CB0 01000DBEE3D6               11883              MAILPRT  OSCKW TO,MTO
 000CB6 01000DB6C3C3               11885                       OSCKW CC,MCC
 000CBC 07000F0AD4C1C9D3           11887                       OSCKW MAILINFO,MMINFO
 000CC8 8D000E18E2C5D5C4           11889                       OSCKW SENDER,MSENDER,(A,P)
 000CD2 0F000ED0D5D6D9C5           11891                       OSCKW NORETURN,MNORET,A
 000CDE 8D000EDAD9C5E3E4           11893                       OSCKW RETURN,MRETURN,(A,P)
 000CE8 0C000F04D5D6C8C4           11895                       OSCKW NOHDR,MNOHDR,A
 000CF1 0F000F04D5D6C8C5           11897                       OSCKW NOHEADER,MNOHDR,A
 000CFD 8B000DE6C4C1E3C5           11899                       OSCKW DATE,MDATE,(A,P)
 000D05 8B000F10D5C1D4C5           11901                       OSCKW NAME,MNAME,(A,P)
 000D0D 8C000F8CE3C9E3D3           11903                       OSCKW TITLE,MTITLE,(A,P)
 000D16 8E000F8CE2E4C2D1           11905                       OSCKW SUBJECT,MTITLE,(A,P)
 000D21 8F000F4ED9C5C3C9           11907                       OSCKW RECIPIENT,MRECIP,(A,P)
 000D2D 0D000FCAD5D6E3C9           11909                       OSCKW NOTIFY,MNOTIFY,A
 000D37 0F000FD0D5D6D5D6           11911                       OSCKW NONOTIFY,MNONOTFY,A
 000D43 0D000FD6E2C9D3C5           11913                       OSCKW SILENT,MSILENT,A
 000D4D 0F000FDCD5D6E2C9           11915                       OSCKW NOSILENT,MNOSIL,A
 000D59 0E000FE8D4C8C5C1           11917                       OSCKW MHEADER,MMHDR,A
 000D64 03000FE8D4C8C4D9           11919                       OSCKW MHDR,MMHDR
 000D6C 0E000FEEE4C8C5C1           11921                       OSCKW UHEADER,MUHDR,A
 000D77 03000FEEE4C8C4D9           11923                       OSCKW UHDR,MUHDR
 000D7F 0D000FE2C4D9E8D9           11925                       OSCKW DRYRUN,MDRYRUN,A
 000D89 06000FF4C5D4E2C6           11927                       OSCKW EMSFLAG,MEMSFLAG
 000D94 06000FFAC6D6D9E6           11929                       OSCKW FORWARD,MFWDFLAG
 000D9F 0E000000C5E7C5C3           11931                       OSCKW EXECUTE,,A          (Handled elsewhere)
 000DAA F8000000                   11933                       OSCKW ,V(COLLPRT),PUSH
 000DAE F8000000                   11935                       OSCKW ,V(QUIETPRT),PUSH
 000DB2 FF000000                   11937                       OSCKW ,V(INVALID)
                                   11939
 000DB6 9640 6000      00000       11940              MCC      SET   MWAFCC              Flag as 'cc'
 000DBA 47F0 773E            00DC2 11947                       B     MTO2
                                   11948
 000DBE 9680 6000      00000       11949              MTO      SET   MWAFSOME
 000DC2 58E0 7A3C/0DEE       010C0 11956              MTO2     ACALL MTOKEN              Get mail id (or list)
 000DC8 4780 7754/4110_      00DD8 11960                       IF    NZ,'ERROR "Missing mail-id(s) after TO."'
 000DD8 58E0 7A80/0DEE       01104 11983                       ACALL ADDLIST
 000DDE 94BF 6000      00000       11987                       CLEAR MWAFCC              Reset 'cc' flag
 000DE2 47F0 7308            0098C 11994                       B     MAILSCAN
                                   11995
 000DE6 9120 B3BE/47E0_003BE       11996              MDATE    IF    ~CPSFSPR,CVNVALID   Restricted
 000DEE 58E0 7AF4/0DEE       01178 12015                       VCALL DEQUOTE
 000DF4 5900 7AF8/47D0_      0117C 12019                       CEIL  R0,L'MWADATE
 000E00 D210 602A C4D8 0002A 004D8 12038                       MVC   MWADATE,CVBLANKS
 000E06 18F0                       12039                       LR    R15,R0
 000E08 06F0/12FF/4740_            12040                       MOVE  R15,MWADATE,@R1
 000E14 47F0 7308            0098C 12078                       B     MAILSCAN
                                   12079
 000E18 9120 B3BE/47E0_003BE       12080              MSENDER  IF    ~CPSFSPR,CVNVALID   Restricted
 000E20 58E0 7AF4/0DEE       01178 12099                       VCALL DEQUOTE
 000E26 58E0 7A38/0DEE       010BC 12103                       VCALL RTRIM
 000E2C 1200/47D0 7308             12107                       IF    (R0,NP),MAILSCAN
1MAIL     (MAIL4072) (12:48) (15MAR04) MAIL and SEND Commands                                                               Page   25
0Current Usings:  (MAILWA,R6) (*,R7) (CP,R11) (CV,R12)
0Loc    Object Code    Addr1 Addr2  Stmt Lv Lineno    Source Statement           (Hibal 5, Asmedit 3.3)  HLASM R4.0  2004/03/15 12.48
+___    ______ ____    _____ _____  ____ __ ______    ______ _________
0000E32 5900 7AFC/47D0_      01180 12124                       CEIL  R0,L'MWAFROM
 000E3E D2C7 6051 C4D8 00051 004D8 12143                       MVC   MWAFROM,CVBLANKS
 000E44 18F0                       12144                       LR    R15,R0
 000E46 06F0/12FF/4740_            12145                       MOVE  R15,MWAFROM,@R1     Save from address
                                   12183
 000E52 D2C7 6119 6051 00119 00051 12184                       MVC   MWAFROMH,MWAFROM    Save "from with hostname" addr
                                   12185
 000E58 1BFF                       12186                       CLEAR R15                 Flag: no @ found
 000E5A 1B11                       12190                       CLEAR R1                  Addr of first non-blank char
 000E5C 4120 6119            00119 12194                       LA    R2,MWAFROMH         Start of from name
 000E60 4130 61BF            001BF 12195                       LA    R3,MWAFROMH+L'MWAFROMH-32-2  End of from name
                                   12196
 000E64 1932/4750 7808             12197                       WHILE (R3,GE,R2),BEGIN    Back scan name...
 000E6A 957C 3000/4770_00000       12214  1                      IF    (@R3,EQ,'@'),'LA R15,1'  Flag: @ found
 000E76 1211/4770 7802_            12236  1                      IF    ((R1,Z),AND,(@R3,NE,' ')),'LR R1,R3'  Save last pos
 000E86 0630                       12271  1                      DECR  R3                  Back up a position
 000E88 47F0 77E0            00E64 12273                       END
                                   12278
 000E8C 1211/4770 7816_            12279                       IF    (R1,Z),'MVI MWAFROMH,C"?"; LA R1,MWAFROMH'
                                   12300
 000E9A 12FF/4770 7848             12301                       IF    (R15,Z),BEGIN       Add the "@stanford" suffix...
 000EA0 927C 1001      00001       12315  1                      MVI   @R1+1,C'@'
 000EA4 D207 1002 C004 00002 00004 12316  1                      MVC   @R1+2(L'CVINSTAL),CVINSTAL
                                   12317  1
 000EAA D507 79B4 C004_01038 00004 12318  1                      IF    (CVINSTAL,EQ,'STANFORD'),BEGIN
 000EB4 9110 C4C4/47E0_004C4       12335  2                        IF    CVFRLG,BEGIN  Stanford/RLG...
 000EBC D21F 1002 79DC 00002 01060 12350  3                          MVC   @R1+2(32),=CL32'RLG.ORG'
 000EC2                            12351  2                        END
 000EC2 7842/47F0 7848 00EC2 00EBA 12355  2                        ELSE  BEGIN               Stanford/Forsythe...
 000EC6 D21F 1002 79FC 00002 01080 12366  3                          MVC   @R1+2(32),=CL32'Forsythe.Stanford.EDU'
 000ECC                            12367  2                        END
 000ECC                            12371  1                      END
 000ECC                            12375                       END
                                   12379
 000ECC 47F0 7308            0098C 12380                       B     MAILSCAN
                                   12381
 000ED0 D2C7 61E1 C4D8 001E1 004D8 12382              MNORET   MVC   MWARET,CVBLANKS
 000ED6 47F0 7308            0098C 12383                       B     MAILSCAN
                                   12384
 000EDA 58E0 7AF4/0DEE       01178 12385              MRETURN  VCALL DEQUOTE
 000EE0 5900 7B00/47D0_      01184 12389                       CEIL  R0,L'MWARET
 000EEC D2C7 61E1 C4D8 001E1 004D8 12408                       MVC   MWARET,CVBLANKS
 000EF2 18F0                       12409                       LR    R15,R0
 000EF4 06F0/12FF/4740_            12410                       MOVE  R15,MWARET,@R1
 000F00 47F0 7308            0098C 12448                       B     MAILSCAN
                                   12449
 000F04 9610 6001      00001       12450              MNOHDR   SET   MWAFNHDR
 000F08 07FE                       12457                       BR    RAR
                                   12458
 000F0A 9601 6001      00001       12459              MMINFO   SET   MWAFMINF
 000F0E 07FE                       12466                       BR    RAR
                                   12467
 000F10 58E0 7AF4/0DEE       01178 12468              MNAME    VCALL DEQUOTE
 000F16 4740 C7E4            007E4 12472                       BM    CVNVALID
1MAIL     (MAIL4072) (12:48) (15MAR04) MAIL and SEND Commands                                                               Page   26
0Current Usings:  (MAILWA,R6) (*,R7) (CP,R11) (CV,R12)
0Loc    Object Code    Addr1 Addr2  Stmt Lv Lineno    Source Statement           (Hibal 5, Asmedit 3.3)  HLASM R4.0  2004/03/15 12.48
+___    ______ ____    _____ _____  ____ __ ______    ______ _________
0000F1A D24F 62A9 C4D8 002A9 004D8 12473                       MVC   MWANAME,CVBLANKS
 000F20 5900 7B04/47D0_      01188 12474                       CEIL  R0,L'MWANAME
 000F2C 18F0                       12493                       LR    R15,R0
 000F2E 06F0/12FF/4740_            12494                       MOVE  R15,MWANAME,@R1
 000F3A D54F 62A9 C4D8_002A9 004D8 12532                       IF    (MWANAME,EQ,CVBLANKS),'CLEAR MWANAME'
 000F4A 47F0 7308            0098C 12562                       B     MAILSCAN
                                   12563
 000F4E 58E0 7AF4/0DEE       01178 12564              MRECIP   VCALL DEQUOTE
 000F54 4740 C7E4            007E4 12568                       BM    CVNVALID
 000F58 D24F 63C1 C4D8 003C1 004D8 12569                       MVC   MWARNAME,CVBLANKS
 000F5E 5900 7B08/47D0_      0118C 12570                       CEIL  R0,L'MWARNAME
 000F6A 18F0                       12589                       LR    R15,R0
 000F6C 06F0/12FF/4740_            12590                       MOVE  R15,MWARNAME,@R1
 000F78 D54F 63C1 C4D8_003C1 004D8 12628                       IF    (MWARNAME,EQ,CVBLANKS),'CLEAR MWARNAME'
 000F88 47F0 7308            0098C 12658                       B     MAILSCAN
                                   12659
 000F8C 58E0 7AF4/0DEE       01178 12660              MTITLE   VCALL DEQUOTE
 000F92 4740 C7E4            007E4 12664                       BM    CVNVALID
 000F96 D2C7 62F9 C4D8 002F9 004D8 12665                       MVC   MWATITLE,CVBLANKS
 000F9C 5900 7A8C/47D0_      01110 12666                       CEIL  R0,L'MWATITLE
 000FA8 18F0                       12685                       LR    R15,R0
 000FAA 06F0/12FF/4740_            12686                       MOVE  R15,MWATITLE,@R1
 000FB6 D5C7 62F9 C4D8_002F9 004D8 12724                       IF    (MWATITLE,EQ,CVBLANKS),'CLEAR MWATITLE'
 000FC6 47F0 7308            0098C 12754                       B     MAILSCAN
                                   12755
 000FCA 9680 6001      00001       12756              MNOTIFY  SET   MWAFNTFY
 000FCE 07FE                       12763                       BR    RAR
                                   12764
 000FD0 947F 6001      00001       12765              MNONOTFY CLEAR MWAFNTFY
 000FD4 07FE                       12773                       BR    RAR
                                   12774
 000FD6 9640 6001      00001       12775              MSILENT  SET   MWAFSIL
 000FDA 07FE                       12782                       BR    RAR
                                   12783
 000FDC 94BF 6001      00001       12784              MNOSIL   CLEAR MWAFSIL
 000FE0 07FE                       12792                       BR    RAR
                                   12793
 000FE2 9602 6001      00001       12794              MDRYRUN  SET   MWAFDRYRUN
 000FE6 07FE                       12801                       BR    RAR
                                   12802
 000FE8 9604 6001      00001       12803              MMHDR    SET   MWAFMHDR
 000FEC 07FE                       12810                       BR    RAR
                                   12811
 000FEE 9608 6001      00001       12812              MUHDR    SET   MWAFUHDR
 000FF2 07FE                       12819                       BR    RAR
                                   12820
 000FF4 9620 6001      00001       12821              MEMSFLAG SET   MWAFEMS             Being done from EMS
 000FF8 07FE                       12828                       BR    RAR
 000FFA 9680 6002      00002       12829              MFWDFLAG SET   MWAFFWD             This is a forwarded message
 000FFE 07FE                       12836                       BR    RAR
                                   12837
 DROP   *,R7                       12838                       DROP  BR
                                   12845
                                   12846                       QLTORG
1MAIL     (MAIL4072) (12:48) (15MAR04) MAIL and SEND Commands                                                               Page   27
0Current Usings:  (MAILWA,R6) (CP,R11) (CV,R12)
0Loc    Object Code    Addr1 Addr2  Stmt Lv Lineno    Source Statement           (Hibal 5, Asmedit 3.3)  HLASM R4.0  2004/03/15 12.48
+___    ______ ____    _____ _____  ____ __ ______    ______ _________
0                                  12946              ¿þþþþþþþþþþþþþþþþþþþþþþþþþþþþþþþþþþþþþþþþþþþþþþþþþþþþþþþþþþþþþþþþþþþþþÜ
                                   12947              Ÿ                                                                     Ÿ
                                   12948              Ÿ  MGETMINF -- Get mail recipient list from record                    Ÿ
                                   12949              Ÿ    group created by SYSCALL MAIL_INFO.                              Ÿ
                                   12950              Ÿ                                                                     Ÿ
                                                      ¾þþþþþþþþþþþþþþþþþþþþþþþþþþþþþþþþþþþþþþþþþþþþþþþþþþþþþþþþþþþþþþþþþþþþþ»
00012D0 50E0 D000/9028_      00000 12951              MGETMINF PROC  (R2,LSR)
 USING  *,R7
 0012EA 1B44                       12990                       CLEAR R4                  Init loop counter
 0012EC                            12994                       LOOP  BEGIN
 0012EC 41F0 B524            00524 13000  1                      LA    R15,CPRG16
 0012F0 4100 0014            00014 13001  1                      LA    R0,CP#MAIL          Our RG number
 0012F4 58E0 755E/0DEE       01848 13002  1                      VCALL XSETSET
                                   13006  1
 0012FA 4110 6411/4100_      00411 13007  1                      SETMSG MWALINE             Area for data
 001302 4120 6511            00511 13021  1                      LA    R2,MWAMKEY          Key area
 001306 41F0 B524            00524 13022  1                      LA    R15,CPRG16
 00130A 1244/4770 7032             13023  1                      IF    (R4,Z),BEGIN        If first iteration,
 001310 D70F 6511 6511 00511 00511 13037  2                        CLEAR MWAMKEY             Clear key field
 001316 58E0 7562/0DEE       0184C 13044  2                        VCALL XGETFRST            Call for first record
 00131C                            13048  1                      END
 00131C 7036/47F0 703C 0131C 0130E 13052  1                      ELSE  BEGIN               Else not first iteration
 001320 58E0 7566/0DEE       01850 13063  2                        VCALL XGETNEXT            Get next record
 001326                            13067  1                      END
 001326 12FF/4770 705E             13071  1                      IF    (R15,NZ),EXIT       Exit if no more
                                   13088  1
 00132C D503 756A 6511_01854 00511 13089  1                      IF    (MWAMKEY,EQ,'RCPT'),BEGIN  If recipient entry,
 001336 58E0 756E/0DEE       01858 13106  2                        ACALL ADDLIST             Add to recipient list
 00133C 9680 6000      00000       13110  2                        SET   MWAFSOME            Show have recipient
 001340                            13116  1                      END
                                   13120  1
 001340 5E40 7572            0185C 13121  1                      INCR  R4                  Incr loop count
 001344 47F0 7002            012EC 13124                       END
                                   13129
 001348 18D8/9828 D004_            13130                       PEND
 DROP   *,R7
1MAIL     (MAIL4072) (12:48) (15MAR04) MAIL and SEND Commands                                                               Page   28
0Current Usings:  (MAILWA,R6) (CP,R11) (CV,R12)
0Loc    Object Code    Addr1 Addr2  Stmt Lv Lineno    Source Statement           (Hibal 5, Asmedit 3.3)  HLASM R4.0  2004/03/15 12.48
+___    ______ ____    _____ _____  ____ __ ______    ______ _________
0                                  13151              ¿þþþþþþþþþþþþþþþþþþþþþþþþþþþþþþþþþþþþþþþþþþþþþþþþþþþþþþþþþþþþþþþþþþþþþÜ
                                   13152              Ÿ                                                                     Ÿ
                                   13153              Ÿ  MTOKEN -- Routine to scan a mail id or a parenthesized list.       Ÿ
                                   13154              Ÿ    This is a little awkward because we don't use the "regular"      Ÿ
                                   13155              Ÿ    scanner here.  Instead we use the new scanner, which can         Ÿ
                                   13156              Ÿ    handle tokens with special characters in them.                   Ÿ
                                   13157              Ÿ                                                                     Ÿ
                                   13158              Ÿ    On entry:                                                        Ÿ
                                   13159              Ÿ       CPOSCAN - pointing to the text to scan                        Ÿ
                                   13160              Ÿ                                                                     Ÿ
                                   13161              Ÿ    On exit:                                                         Ÿ
                                   13162              Ÿ       CPOSCAN - scan ptrs updated                                   Ÿ
                                   13163              Ÿ       R1,R0 - token loc, len (if nothing, R0=0)                     Ÿ
                                   13164              Ÿ       R15 (and cc) - 0 = ok                                         Ÿ
                                   13165              Ÿ                      4 = no more tokens                             Ÿ
                                   13166              Ÿ                                                                     Ÿ
                                                      ¾þþþþþþþþþþþþþþþþþþþþþþþþþþþþþþþþþþþþþþþþþþþþþþþþþþþþþþþþþþþþþþþþþþþþþ»
0001356 50E0 D000/9028_      00000 13167              MTOKEN   PROC  (R2,LSR)
 USING  *,R7
 001370 58E0 74F0/0DEE       01860 13206                       OSCTELL
                                   13211                       ¿þþþþþþþþþþþþþþþþþþþþþþþþþþþþþþþþþþþþþþÜ
                                   13212                       Ÿ  Trim leading blanks and/or commas.  Ÿ
                                   13213                       ¾þþþþþþþþþþþþþþþþþþþþþþþþþþþþþþþþþþþþþþ»
 001376 1200/47D0 7026_            13214                       WHILE ((R0,POS),AND,((@R1,EQ,' '),OR,(@R1,EQ,','))),BEGIN
 00138C 4110 1001            00001 13260  1                      LA    R1,@R1+1
 001390 0600                       13261  1                      DECR  R0
 001392 47F0 7006            01376 13263                       END
                                   13268
 001396 1200/47D0 7070             13269                       IF    (R0,POS),BEGIN      We have something...
                                   13283  1                      ¿þþþþþþþþþþþþþþþþþþþþþþþþþþþþþþþþþþþþþþþþþþþþþþþþþþþþþþþþÜ
                                   13284  1                      Ÿ  Use the old scanner to isolate a parenthesized list.  Ÿ
                                   13285  1                      ¾þþþþþþþþþþþþþþþþþþþþþþþþþþþþþþþþþþþþþþþþþþþþþþþþþþþþþþþþ»
 00139C 954D 1000/4770_00000       13286  1                      IF    (@R1,EQ,'('),BEGIN  Parenthesized list...
 0013A4 1B11/58E0 74F4_            13302  2                        OSCAN
 0013AC 47F0 7070            013E0 13312  2                        B     MTOKFIN
 0013B0                            13313  1                      END
                                   13317  1                      ¿þþþþþþþþþþþþþþþþþþþþþþþþþþþþþþþþþþþþþþþþþþþþþþþþþþÜ
                                   13318  1                      Ÿ  Use the new scanner to isolate a single token.  Ÿ
                                   13319  1                      ¾þþþþþþþþþþþþþþþþþþþþþþþþþþþþþþþþþþþþþþþþþþþþþþþþþþ»
 0013B0 4120 7574/4130_      018E4 13320  1                      LS    R2,R3,' ,'          Scan skip string
 0013B8 4140 759C/4150_      0190C 13323  1                      LS    R4,R5,' ,;'         Scan stop string
 0013C0 58E0 74F8/0DEE       01868 13326  1                      VCALL SCANSTR             Isolate mail id
                                   13330  1
 0013C6 9001 D000/41D0_      00000 13331  1                      XPUSH R0,R1
 0013CE 1812/1803/58E0_            13334  1                      OSCSET (R2),(R3)          Update scan ptrs
 0013D8 4BD0 7576/9801_      018E6 13352  1                      XPOP  R0,R1
 0013E0                            13355                       END
                                   13359
 0013E0 1BFF                       13360              MTOKFIN  CLEAR R15                 Assume ok
 0013E2 1200/4720 707C_            13365                       IF    (R0,NP),'LA R15,4'  Nothing found
 0013EC 18D8/9828 D004_            13385                       PEND
 DROP   *,R7
1MAIL     (MAIL4072) (12:48) (15MAR04) MAIL and SEND Commands                                                               Page   29
0Current Usings:  (MAILWA,R6) (CP,R11) (CV,R12)
0Loc    Object Code    Addr1 Addr2  Stmt Lv Lineno    Source Statement           (Hibal 5, Asmedit 3.3)  HLASM R4.0  2004/03/15 12.48
+___    ______ ____    _____ _____  ____ __ ______    ______ _________
0                                  13406              ¿þþþþþþþþþþþþþþþþþþþþþþþþþþþþþþþþþþþþþþþþþþþþþþþþþþþþþþþþþþþþþþþþþþþþþÜ
                                   13407              Ÿ                                                                     Ÿ
                                   13408              Ÿ  ADDLIST -- Routine to add mail id(s) to the mailing list.          Ÿ
                                   13409              Ÿ                                                                     Ÿ
                                   13410              Ÿ    On entry:                                                        Ÿ
                                   13411              Ÿ      R1,R0 - id loc, len                                            Ÿ
                                   13412              Ÿ                                                                     Ÿ
                                                      ¾þþþþþþþþþþþþþþþþþþþþþþþþþþþþþþþþþþþþþþþþþþþþþþþþþþþþþþþþþþþþþþþþþþþþþ»
00013FA 50E0 D000/9008_      00000 13413              ADDLIST  PROC
 USING  *,R7
 001414 4120 0001/5E20_      00001 13452                       INCR  R2,MWANEST          Incr nesting level
                                   13458                       ¿þþþþþþþþþþþþþþþþþþþþþþþþþÜ
                                   13459                       Ÿ  Add a single mail id.  Ÿ
                                   13460                       ¾þþþþþþþþþþþþþþþþþþþþþþþþþ»
 001420 954D 1000/4780_00000       13461                       IF    (@R1,NE,'('),BEGIN
 001428 58E0 745C/0DEE       01870 13477  1                      ACALL ADDITEM             Only one mail id
 00142E 47F0 7054            01468 13481  1                      B     ADDLEXIT            All done
 001432                            13482                       END
                                   13486                       ¿þþþþþþþþþþþþþþþþþþþþþþþþþþþþþþþþþþþþþþþþþþþþþþþþþþþþþþþþþþþþþþþÜ
                                   13487                       Ÿ  Add a parenthesized list of mail ids separated by blanks or  Ÿ
                                   13488                       Ÿ    commas (e.g., (aaa,bbb,ccc)).                              Ÿ
                                   13489                       ¾þþþþþþþþþþþþþþþþþþþþþþþþþþþþþþþþþþþþþþþþþþþþþþþþþþþþþþþþþþþþþþþ»
 001432 4110 1001            00001 13490                       LA    R1,@R1+1            Skip past "("
 001436 4B00 74D4            018E8 13491                       SH    R0,=H'2'            Deduct len of "(" and ")"
 00143A 47D0 7054            01468 13492                       BNP   ADDLEXIT            Nothing here, forget it
                                   13493                     ¿þþþþþþþþþþþþþþþþþþþþþþþþþþþþþþþþþþþþþþþþþþþþþþþþþþþþþþþþþþþþþþþþþÜ
                                   13494                     Ÿ  Use "SCANSTR" instead of the original scanner because we want  Ÿ
                                   13495                     Ÿ      to allow special characters and we only want to stop on    Ÿ
                                   13496                     Ÿ      blanks and commas.                                         Ÿ
                                   13497                     ¾þþþþþþþþþþþþþþþþþþþþþþþþþþþþþþþþþþþþþþþþþþþþþþþþþþþþþþþþþþþþþþþþþ»
 00143E                            13498                       LOOP  BEGIN
 00143E 4120 74D0/4130_      018E4 13504  1                      LS    R2,R3,' ,'          Scan skip string
 001446 4140 74D0/4150_      018E4 13507  1                      LS    R4,R5,' ,'          Scan stop string
 00144E 58E0 7454/0DEE       01868 13510  1                      VCALL SCANSTR             Isolate mail id
 001454 1200/4780 7054             13514  1                      IF    (R0,Z),ADDLEXIT     All done, scram
                                   13531  1
 00145A 58E0 745C/0DEE       01870 13532  1                      ACALL ADDITEM             Add this mail id
                                   13536  1
 001460 1812                       13537  1                      LR    R1,R2               Set new loc from remaining loc
 001462 1803                       13538  1                      LR    R0,R3               Ditto for length
 001464 47F0 702A            0143E 13539                       END
                                   13544
 001468 5820 6008/0620_      00008 13545              ADDLEXIT DECR  R2,MWANEST          Decr nesting level
 001472 18D8/9808 D004_            13550                       PEND
 DROP   *,R7
1MAIL     (MAIL4072) (12:48) (15MAR04) MAIL and SEND Commands                                                               Page   30
0Current Usings:  (MAILWA,R6) (CP,R11) (CV,R12)
0Loc    Object Code    Addr1 Addr2  Stmt Lv Lineno    Source Statement           (Hibal 5, Asmedit 3.3)  HLASM R4.0  2004/03/15 12.48
+___    ______ ____    _____ _____  ____ __ ______    ______ _________
0000000                00000 0000C 13571              ADDIWA   RECORD BEGIN
 000000                            13579  1           ADDIPTRS   DS    2A                  Id loc, len ptrs
 000008                            13580  1           ADDIOLDM   DS    A                   Saved "working MID" ptr
 00000C                0000C 0000C 13581                       END
-                                  13591              ¿þþþþþþþþþþþþþþþþþþþþþþþþþþþþþþþþþþþþþþþþþþþþþþþþþþþþþþþþþþþþþþþþþþþþþÜ
                                   13592              Ÿ                                                                     Ÿ
                                   13593              Ÿ  ADDITEM -- Local routine to add a single mail id to the mailing    Ÿ
                                   13594              Ÿ    list.                                                            Ÿ
                                   13595              Ÿ                                                                     Ÿ
                                   13596              Ÿ    On entry:                                                        Ÿ
                                   13597              Ÿ      R1,R0 - id loc, len                                            Ÿ
                                   13598              Ÿ                                                                     Ÿ
                                                      ¾þþþþþþþþþþþþþþþþþþþþþþþþþþþþþþþþþþþþþþþþþþþþþþþþþþþþþþþþþþþþþþþþþþþþþ»
0001480 50E0 D000/9008_      00000 13599              ADDITEM  PROC  ADDIWA
 USING  *,R7
 USING  ADDIWA-(4+36),R8
 00149A 58E0 73DA/0DEE       01874 13649                       VCALL DEQUOTE             Dequote, if quoted
 0014A0 9001 8028            00000 13653                       STM   R0,R1,ADDIPTRS      Save id loc, len
 0014A4 D203 8030 65D4 00008 005D4 13654                       MVC   ADDIOLDM,MWAWMIDP   Save working MID ptr
                                   13655                       ¿þþþþþþþþþþþþþþþþþþþþþþþþþþþþþþþþþþþþþþþþþþþþþþþþþþþþþþþþþþþÜ
                                   13656                       Ÿ  Check for too many (probably recursive) id definitions.  Ÿ
                                   13657                       ¾þþþþþþþþþþþþþþþþþþþþþþþþþþþþþþþþþþþþþþþþþþþþþþþþþþþþþþþþþþþ»
 0014AA 58E0 73DE/0DEE       01878 13658                       VCALL SLICECHK            Keep others happy
                                   13662
 0014B0 41F0 0001/5EF0_      00001 13663                       INCR  R15,MWALCNT         Count number of Add's
 0014BC 59F0 73E2/47D0_      0187C 13669                       IF    (R15,GT,MWALMAX#),BEGIN  Something's wrong...
 0014C4 9001 D000/41D0_      00000 13686  1                      XPUSH R0,R1
 0014CC 4110 7475/4100_      0190F 13689  1                      TSEG  'Mail not sent to '
 0014DE 4BD0 744C/9801_      018E6 13707  1                      XPOP  R0,R1
 0014E6 41F0 B050/58E0_      00050 13710  1                      TSEG  (R1),(R0)
 0014F0 4110 7450/4100_      018EA 13734  1                      ERROR ' -- Can''t resolve mail address'
 0014FC                            13741                       END
                                   13745                       ¿þþþþþþþþþþþþþþþþþþþþþþþþþþþþþþþþþþþþþþþþþþþþþþþþþþþþþþþþþþþþþþþÜ
                                   13746                       Ÿ  Allocate MID entry on the heap for the mail id information.  Ÿ
                                   13747                       ¾þþþþþþþþþþþþþþþþþþþþþþþþþþþþþþþþþþþþþþþþþþþþþþþþþþþþþþþþþþþþþþþ»
 0014FC 4100 0231            00231 13748                       LA    R0,L'MID
 001500 58E0 73EA/0DEE       01884 13749                       VCALL GETHEAP             Get a MID entry for this mail id
 001506 1851                       13753                       LR    R5,R1
 USING  MID,R5                     13754                       WITH  (MID,R5)
 001508 D7FF 5000 5000_00000 00000 13767                       CLEAR MID
 00151A 5050 65D4            005D4 13776                       ST    R5,MWAWMIDP         Save working MID ptr
                                   13777
 00151E 9140 6000/47E0_00000       13778                       IF    MWAFCC,'SET MIDXFCC'  Flag if this is a 'cc' addr
                                   13804
 00152A D503 73EE 6008_01888 00008 13805                       IF    (MWANEST,EQ,1),BEGIN  If command line address,
 001534 9640 5005      00005       13823  1                      SET   MIDXFHDR            Flag as address for header
 001538 4100 0001/5E00_      00001 13829  1                      INCR  R0,MWARCPTN         Incr header address count
 001544                            13835                       END
1MAIL     (MAIL4072) (12:48) (15MAR04) MAIL and SEND Commands                                                               Page   31
0Current Usings:  (MID,R5) (MAILWA,R6) (*,R7) (ADDIWA-(4+36),R8) (CP,R11) (CV,R12)
0Loc    Object Code    Addr1 Addr2  Stmt Lv Lineno    Source Statement           (Hibal 5, Asmedit 3.3)  HLASM R4.0  2004/03/15 12.48
+___    ______ ____    _____ _____  ____ __ ______    ______ _________
0                                  13839                       ¿þþþþþþþþþþþþþþþþþþþþþþþþþþþþþþþþþþþþÜ
                                   13840                       Ÿ  Process electronic mail address.  Ÿ
                                   13841                       ¾þþþþþþþþþþþþþþþþþþþþþþþþþþþþþþþþþþþþ»
 001544 9801 8028            00000 13842                       LM    R0,R1,ADDIPTRS      Id loc, len
                                   13843
 001548 41F0 5000            00000 13844                       LA    R15,MID
 00154C 58E0 73F2/0DEE       0188C 13845                       ACALL SCANITEM            Parse the mail id
                                   13849
 001552 41F0 5000            00000 13850                       LA    R15,MID
 001556 58E0 73F6/0DEE       01890 13851                       ACALL NETEMA              Process network mail address
 00155C 4770 70F0            0158A 13855                       IF    NZ,ADDIEXIT         Skip mailing if error
                                   13869
 001560 41F0 5000            00000 13870                       LA    R15,MID
 001564 58E0 73FA/0DEE       01894 13871                       ACALL LOCALEMA            Process local mail address
 00156A 59F0 73FE/4780_      01898 13875                       IF    (R15,EQ,4),ADDIEXIT    Skip mailing if error
 001572 59F0 7402/4770_      0189C 13895                       IF    (R15,EQ,8),BEGIN    If forwarding address found,
 00157A 9602 5004      00004       13912  1                      SET   MIDXFSKP            Skip this entry when mailing
 00157E                            13918                       END
                                   13922                       ¿þþþþþþþþþþþþþþþþþþþþþþþþþþþþþþþþþþþþþþþþþþþþþþþÜ
                                   13923                       Ÿ  Link up MID entry on the queue of mail ids.  Ÿ
                                   13924                       ¾þþþþþþþþþþþþþþþþþþþþþþþþþþþþþþþþþþþþþþþþþþþþþþþ»
 00157E 58F0 6014            00014 13925                       L     R15,MWAMIDQT        Last MID entry
 001582 5050 F000            00000 13926                       WITH  (MID,R15),'ST R5,MIDLINK'  Link up the new MID entry
 USING  MID,R15
 DROP   MID,R15
 001586 5050 6014            00014 13950                       ST    R5,MWAMIDQT
                                   13951
 00158A D203 65D4 8030 005D4 00008 13952              ADDIEXIT MVC   MWAWMIDP,ADDIOLDM   Restore working MID ptr
 001590 18D8/9808 D004_            13953                       PEND
 DROP   MID,R5
 DROP   ADDIWA-(4+36),R8
 DROP   *,R7
1MAIL     (MAIL4072) (12:48) (15MAR04) MAIL and SEND Commands                                                               Page   32
0Current Usings:  (MAILWA,R6) (CP,R11) (CV,R12)
0Loc    Object Code    Addr1 Addr2  Stmt Lv Lineno    Source Statement           (Hibal 5, Asmedit 3.3)  HLASM R4.0  2004/03/15 12.48
+___    ______ ____    _____ _____  ____ __ ______    ______ _________
0000000                00000 00244 13984              DISTWA   RECORD BEGIN
 000000                            13992  1           DISTRG01   DS    2A                  Working registers
                                   13993  1           DISTCB     SEGCB
 000008 00                         13994  1 01-SEGCB +$$$SEGCB271   DS 0F
 DISTCBCOD.DISTCBS 01 EQ
 DISTCBCOD.DISTCBW 02 EQ
 DISTCBCOD.DISTCBC 03 EQ
 DISTCBCOD.DISTCBS 04 EQ
 DISTCBCOD.DISTCBO 05 EQ
 DISTCBCOD.DISTCBC 06 EQ
 DISTCBCOD.DISTCBM 07 EQ
 000009 00                         14069  1 01-SEGCB +           DC    X'00'               Reserved
 00000A 0000                              1          +
 00000C 00000000                   14070  1 01-SEGCB +DISTCBMAXF   DC  A(0)                Maximum buffer length
 000010 00000000                   14071  1 01-SEGCB +DISTCBMRKF   DC  A(0)                Length at last mark
 000014 00000000                   14072  1 01-SEGCB +DISTCBLENF   DC  A(0)                Current length
 000018 00000000                   14073  1 01-SEGCB +DISTCBINDF   DC  A(0)                Overflow/indent count
 00001C 00000000                   14074  1 01-SEGCB +DISTCBERR   DC   A(0)                Address of error recovery routine
 000020 0000000000000000           14075  1 01-SEGCB +           DC    2F'0'               Reserved
 000028 00000000                   14076  1 01-SEGCB +DISTCBLOC   DC   A(0)                Location of buffer
 00002C 00000000                   14077  1 01-SEGCB +DISTCBRTN   DC   A(0)                Processing routine
 000030 0000000000000000           14078  1 01-SEGCB +           DC    4F'0'               Reserved
 000040 00000000                   14079  1 01-SEGCB +DISTCBUSR   DC   A(0)                USER field
                                   14080  1 01-SEGCB +DISTCB     EQU   $$$SEGCB271,*-$$$SEGCB271,C'X'
 000044                            14081  1           DISTBUF    DS    CL256               Working seg buffer
                                   14082  1
 000144                            14083  1           DISTRES    DS    CL256               Distribution list goes here
 000244                00244 00244 14084                       END
1MAIL     (MAIL4072) (12:48) (15MAR04) MAIL and SEND Commands                                                               Page   33
0Current Usings:  (MAILWA,R6) (CP,R11) (CV,R12)
0Loc    Object Code    Addr1 Addr2  Stmt Lv Lineno    Source Statement           (Hibal 5, Asmedit 3.3)  HLASM R4.0  2004/03/15 12.48
+___    ______ ____    _____ _____  ____ __ ______    ______ _________
0                                  14094              ¿þþþþþþþþþþþþþþþþþþþþþþþþþþþþþþþþþþþþþþþþþþþþþþþþþþþþþþþþþþþþþþþþþþþþþÜ
                                   14095              Ÿ                                                                     Ÿ
                                   14096              Ÿ  DISTITEM -- Local routine to process a distribution list.          Ÿ
                                   14097              Ÿ                                                                     Ÿ
                                   14098              Ÿ    On entry:                                                        Ÿ
                                   14099              Ÿ      R1,R0 - id loc, len                                            Ÿ
                                   14100              Ÿ                                                                     Ÿ
                                   14101              Ÿ    On exit, R15 (and cc):                                           Ÿ
                                   14102              Ÿ      0 - we processed the distribution list                         Ÿ
                                   14103              Ÿ      4 - not a distribution list; no action taken                   Ÿ
                                   14104              Ÿ                                                                     Ÿ
                                                      ¾þþþþþþþþþþþþþþþþþþþþþþþþþþþþþþþþþþþþþþþþþþþþþþþþþþþþþþþþþþþþþþþþþþþþþ»
000159E 50E0 D000/9008_      00000 14105              DISTITEM PROC  DISTWA
 USING  *,R7
 USING  DISTWA-(4+36),R8
                                   14155                  ¿þþþþþþþþþþþþþþþþþþþþþþþþþþþþþþþþþþþþþþþþþþþþþþþþþþþþþþþþþþþþþþþþþþþþÜ
                                   14156                  Ÿ  Build an expression whose result is the text of the distribution  Ÿ
                                   14157                  Ÿ         list (if it IS a distribution list).                       Ÿ
                                   14158                  Ÿ                                                                    Ÿ
                                   14159                  Ÿ       Editorial:                                                   Ÿ
                                   14160                  Ÿ       This is a deliberate departure from previous implementation  Ÿ
                                   14161                  Ÿ          techniques used in WYLBUR.  The idea is that execs will   Ÿ
                                   14162                  Ÿ     maintain and manipulate the distribution lists; WYLBUR simply  Ÿ
                                   14163                  Ÿ          references them.  This provides power and simplicity and  Ÿ
                                   14164                  Ÿ        exploits the extended exec enviornment.               7/86  Ÿ
                                   14165                  ¾þþþþþþþþþþþþþþþþþþþþþþþþþþþþþþþþþþþþþþþþþþþþþþþþþþþþþþþþþþþþþþþþþþþþ»
 0015B8 9001 8028            00000 14166                       STM   R0,R1,DISTRG01
 0015BC 4110 806C/4100_      00044 14167                       SEGINIT DISTBUF,,DISTCB
                                   14194                       ¿þþþþþþþþþþþþþþþþþþþþþþþþþþþþþþþþþþþþþþþþþþþþþþþþþþþþþþþþþþþþþþÜ
                                   14195                       Ÿ  First check for a public distribution list with this name.  Ÿ
                                   14196                       ¾þþþþþþþþþþþþþþþþþþþþþþþþþþþþþþþþþþþþþþþþþþþþþþþþþþþþþþþþþþþþþþ»
 0015CE 4110 7368/4100_      01920 14197                       SEG   'REC_GET(PUB.MAIL_DISTNO,UPPER("'
 0015E0 9801 8028            00000 14214                       LM    R0,R1,DISTRG01      Restore item loc, len
 0015E4 41F0 8030/58E0_      00008 14215                       SEG   (R1),(R0)
 0015EE 4110 7387/4100_      0193F 14238                       SEG   '"))'
                                   14255
 001600 18ED/41D0 D43C_            14256                       TPUSH
                                   14294
 001634 4120 816C            00144 14295                       LA    R2,DISTRES          Put result here
 001638 4130 0100            00100 14296                       LA    R3,L'DISTRES
 00163C 5810 8050/5800_      00028 14297                       SETMSG L:DISTCBLOC,L:DISTCBLENF
 001644 58E0 72EC/0DEE       018A4 14309                       VCALL EVALSTR             Is the "id" a dist list?
                                   14313
 00164A 184F                       14314                       LR    R4,R15
 00164C 4BD0 7352/D23B_      0190A 14315                       TPOP  JUNK
 001656 12F4                       14320                       LTR   R15,R4
                                   14321
 001658 4720 70C0            01678 14322                       IF    NP,BEGIN            Yep...
 00165C 1812/1803                  14333  1                      SETMSG (R2),(R3)
 001660 58E0 72F0/0DEE       018A8 14345  1                      VCALL LRTRIM
 001666 1200/47D0 70C0             14349  1                      IF    (R0,POS),BEGIN      There is some text...
 00166C 58E0 72A0/0DEE       01858 14363  2                        ACALL ADDLIST             Add dist list id's (recursive)
 001672 1BFF                       14367  2                        CLEAR R15                 We processed the dist list
1MAIL     (MAIL4072) (12:48) (15MAR04) MAIL and SEND Commands                                                               Page   34
0Current Usings:  (MAILWA,R6) (*,R7) (DISTWA-(4+36),R8) (CP,R11) (CV,R12)
0Loc    Object Code    Addr1 Addr2  Stmt Lv Lineno    Source Statement           (Hibal 5, Asmedit 3.3)  HLASM R4.0  2004/03/15 12.48
+___    ______ ____    _____ _____  ____ __ ______    ______ _________
0001674 47F0 7178            01730 14371  2                        B     DISTEXIT            Scram
 001678                            14372  1                      END
 001678                            14376                       END
                                   14380                 ¿þþþþþþþþþþþþþþþþþþþþþþþþþþþþþþþþþþþþþþþþþþþþþþþþþþþþþþþþþþþþþþþþþþþþþÜ
                                   14381                 Ÿ  Not a public distribution list, now check for a user distribution  Ÿ
                                   14382                 Ÿ          list with this name.                                       Ÿ
                                   14383                 ¾þþþþþþþþþþþþþþþþþþþþþþþþþþþþþþþþþþþþþþþþþþþþþþþþþþþþþþþþþþþþþþþþþþþþþ»
 001678 41F0 8030/58E0_      00008 14384                       SEGCLR
 001682 4110 738A/4100_      01942 14397                       SEG   'REC_GET(SES.MAIL_DISTNO,UPPER("'
 001694 9801 8028            00000 14414                       LM    R0,R1,DISTRG01      Restore item loc, len
 001698 41F0 8030/58E0_      00008 14415                       SEG   (R1),(R0)
 0016A2 4110 7387/4100_      0193F 14438                       SEG   '"))'
                                   14455
 0016B4 18ED/41D0 D43C_            14456                       TPUSH
                                   14494
 0016E8 4120 816C            00144 14495                       LA    R2,DISTRES          Put result here
 0016EC 4130 0100            00100 14496                       LA    R3,L'DISTRES
 0016F0 5810 8050/5800_      00028 14497                       SETMSG L:DISTCBLOC,L:DISTCBLENF
 0016F8 58E0 72EC/0DEE       018A4 14509                       VCALL EVALSTR             Is the "id" a dist list?
                                   14513
 0016FE 184F                       14514                       LR    R4,R15
 001700 4BD0 7352/D23B_      0190A 14515                       TPOP  JUNK
 00170A 12F4                       14520                       LTR   R15,R4
                                   14521
 00170C 4720 7174            0172C 14522                       IF    NP,BEGIN            Yep...
 001710 1812/1803                  14533  1                      SETMSG (R2),(R3)
 001714 58E0 72F0/0DEE       018A8 14545  1                      VCALL LRTRIM
 00171A 1200/47D0 7174             14549  1                      IF    (R0,POS),BEGIN      There is some text...
 001720 58E0 72A0/0DEE       01858 14563  2                        ACALL ADDLIST             Add dist list id's (recursive)
 001726 1BFF                       14567  2                        CLEAR R15                 We processed the dist list
 001728 47F0 7178            01730 14571  2                        B     DISTEXIT            Scram
 00172C                            14572  1                      END
 00172C                            14576                       END
                                   14580
 00172C 41F0 0004            00004 14581                       LA    R15,4               Id is not ours
 001730 18D8/9808 D004_            14582              DISTEXIT PEND
 DROP   DISTWA-(4+36),R8
 DROP   *,R7
1MAIL     (MAIL4072) (12:48) (15MAR04) MAIL and SEND Commands                                                               Page   35
0Current Usings:  (MAILWA,R6) (CP,R11) (CV,R12)
0Loc    Object Code    Addr1 Addr2  Stmt Lv Lineno    Source Statement           (Hibal 5, Asmedit 3.3)  HLASM R4.0  2004/03/15 12.48
+___    ______ ____    _____ _____  ____ __ ______    ______ _________
0                                  14609              ¿þþþþþþþþþþþþþþþþþþþþþþþþþþþþþþþþþþþþþþþþþþþþþþþþþþþþþþþþþþþþþþþþþþþþþÜ
                                   14610              Ÿ                                                                     Ÿ
                                   14611              Ÿ  SCANITEM -- Local routine to break a mail id into user and host    Ÿ
                                   14612              Ÿ    components.                                                      Ÿ
                                   14613              Ÿ                                                                     Ÿ
                                   14614              Ÿ    On entry:                                                        Ÿ
                                   14615              Ÿ      R15 - MID entry ptr                                            Ÿ
                                   14616              Ÿ      R1,R0 - id loc, len                                            Ÿ
                                   14617              Ÿ                                                                     Ÿ
                                   14618              Ÿ    On exit:                                                         Ÿ
                                   14619              Ÿ      MID - filled in with user and host                             Ÿ
                                   14620              Ÿ                                                                     Ÿ
                                                      ¾þþþþþþþþþþþþþþþþþþþþþþþþþþþþþþþþþþþþþþþþþþþþþþþþþþþþþþþþþþþþþþþþþþþþþ»
000173E 50E0 D000/9008_      00000 14621              SCANITEM PROC
 USING  *,R7
 001758 185F                       14660                       LR    R5,R15
 USING  MID,R5                     14661                       WITH  (MID,R5)
                                   14674              ******** CLEAR MIDX                Initialize working information
                                   14675                       ¿þþþþþþþþþþþþþþþþþþþþþþþþþþþþþþþþþþþþÜ
                                   14676                       Ÿ  Allow mail id in angle brackets.  Ÿ
                                   14677                       ¾þþþþþþþþþþþþþþþþþþþþþþþþþþþþþþþþþþþþ»
 00175A 1200/47D0 7026             14678                       IF    (R0,POS),BEGIN      Check for <text>...
 001760 954C 1000/4770_00000       14692  1                      IF    (@R1,NE,'<'),EXIT
 001768 18F1                       14711  1                      LR    R15,R1
 00176A 1AF0                       14712  1                      AR    R15,R0
 00176C 06F0                       14713  1                      DECR  R15
 00176E 956E F000/4770_00000       14715  1                      IF    (@R15,NE,'>'),EXIT
                                   14734  1
 001776 4110 1001            00001 14735  1                      LA    R1,@R1+1            Strip angle brackets
 00177A 4B00 7190            018E8 14736  1                      SH    R0,=H'2'
 00177E                            14737                       END
                                   14741
 00177E 1841                       14742                       LR    R4,R1               Save id ptr
 001780 1830                       14743                       LR    R3,R0
                                   14744                       ¿þþþþþþþþþþþþþþþþþþþþþþþþþþþþþþþþþþþÜ
                                   14745                       Ÿ  Check for "user@host" notation.  Ÿ
                                   14746                       ¾þþþþþþþþþþþþþþþþþþþþþþþþþþþþþþþþþþþ»
 001782 1814                       14747                       LR    R1,R4
 001784 1A13                       14748                       AR    R1,R3
 001786 0610                       14749                       DECR  R1                  Last char of mail id
 001788 1BFF                       14751                       CLEAR R15
 00178A 19F3/47B0 7082             14755                       WHILE (R15,LT,R3),BEGIN   Backscan id for "@"...
 001790 957C 1000/4770_00000       14772  1                      IF    (@R1,EQ,'@'),BEGIN  User@host...
 001798 1B3F                       14788  2                        SR    R3,R15
 00179A 0630                       14789  2                        DECR  R3                  Adjust len for just "user"
                                   14791  2
 00179C 59F0 7158/47D0_      018B0 14792  2                        IF    (R15,GT,L'MIDXHOST),BEGIN  Host name is too long...
 0017A4 41F0 B050/58E0_      00050 14809  3                          TSEG  (R1),(R0)
 0017AE 4110 715C/4100_      018B4 14833  3                          ERROR ' is too long for a host name, mail not sent.'
 0017BA                            14840  2                        END
 0017BA D24F 50A6 C4D8 000A6 004D8 14844  2                        MVC   MIDXHONC,CVBLANKS
 0017C0 06F0/12FF/4740_            14845  2                        MOVE  R15,MIDXHONC,@R1+1  Save host name
 0017CC 47F0 7082            017DA 14883  2                        B     SCNXUSER
1MAIL     (MAIL4072) (12:48) (15MAR04) MAIL and SEND Commands                                                               Page   36
0Current Usings:  (MID,R5) (MAILWA,R6) (*,R7) (CP,R11) (CV,R12)
0Loc    Object Code    Addr1 Addr2  Stmt Lv Lineno    Source Statement           (Hibal 5, Asmedit 3.3)  HLASM R4.0  2004/03/15 12.48
+___    ______ ____    _____ _____  ____ __ ______    ______ _________
00017D0                            14884  1                      END
                                   14888  1
 0017D0 0610                       14889  1                      DECR  R1                  Backup another character
 0017D2 41F0 F001            00001 14891  1                      LA    R15,@R15+1
 0017D6 47F0 7032            0178A 14892                       END
                                   14897
 0017DA 5930 7188/47D0_      018E0 14898              SCNXUSER IF    (R3,GT,L'MIDXUSER),BEGIN  Userid is too long...
 0017E2 41F0 B050/58E0_      00050 14916  1                      TSEG  (R1),(R0)
 0017EC 4110 7209/4100_      01961 14940  1                      ERROR ' is too long for a mail address, mail not sent.'
 0017F8                            14947                       END
                                   14951
 0017F8 1233/4720 70B2             14952                       IF    (R3,NP),BEGIN       No user id supplied?
 0017FE 4110 7238/4100_      01990 14966  1                      ERROR 'Mail not sent, no user id in address.'
 00180A                            14973                       END
                                   14977
 00180A D24F 5056 C4D8 00056 004D8 14978                       MVC   MIDXUSNC,CVBLANKS
 001810 0630/1233/4740_            14979                       MOVE  R3,MIDXUSNC,@R4     Save userid
 00181C D24F 50F6 5056 000F6 00056 15017                       MVC   MIDXUSER,MIDXUSNC   Save upper case copy
 001822 D24F 5146 50A6 00146 000A6 15018                       MVC   MIDXHOST,MIDXHONC   Ditto
 001828 58F0 C8A8            008A8 15019                       L     R15,CVUPPTBL
 00182C DC4F 5146 F000 00146 00000 15020                       TR    MIDXHOST,@R15       Make upper case
 001832 DC4F 50F6 F000 000F6 00000 15021                       TR    MIDXUSER,@R15       Ditto
                                   15022
 001838 1BFF                       15023                       CLEAR R15                 (Neatness)
 00183A 18D8/9808 D004_            15027                       PEND
 DROP   MID,R5
 DROP   *,R7
                                   15052                       QLTORG
1MAIL     (MAIL4072) (12:48) (15MAR04) MAIL and SEND Commands                                                               Page   37
0Current Usings:  (MAILWA,R6) (CP,R11) (CV,R12)
0Loc    Object Code    Addr1 Addr2  Stmt Lv Lineno    Source Statement           (Hibal 5, Asmedit 3.3)  HLASM R4.0  2004/03/15 12.48
+___    ______ ____    _____ _____  ____ __ ______    ______ _________
0                                  15107              ¿þþþþþþþþþþþþþþþþþþþþþþþþþþþþþþþþþþþþþþþþþþþþþþþþþþþþþþþþþþþþþþþþþþþþþÜ
                                   15108              Ÿ                                                                     Ÿ
                                   15109              Ÿ  LOCALEMA -- Local routine to process a local mail address.         Ÿ
                                   15110              Ÿ                                                                     Ÿ
                                   15111              Ÿ    On entry:                                                        Ÿ
                                   15112              Ÿ      R15 - MID ptr                                                  Ÿ
                                   15113              Ÿ                                                                     Ÿ
                                   15114              Ÿ    On exit, R15 (and cc):                                           Ÿ
                                   15115              Ÿ      0 - id is OK (or not ours)                                     Ÿ
                                   15116              Ÿ      4 - error (a message has aleady been written)                  Ÿ
                                   15117              Ÿ                                                                     Ÿ
                                                      ¾þþþþþþþþþþþþþþþþþþþþþþþþþþþþþþþþþþþþþþþþþþþþþþþþþþþþþþþþþþþþþþþþþþþþþ»
0000000                00000 00008 15118              LOCEMWA  RECORD BEGIN
 000000                            15126  1           LOCEMPTR   DS    2F
 000008                00008 00008 15127                       END
                                   15136
 0019C2 50E0 D000/9008_      00000 15137              LOCALEMA PROC  LOCEMWA
 USING  *,R7
 USING  LOCEMWA-(4+36),R8
 0019DC 185F                       15187                       LR    R5,R15
 USING  MID,R5                     15188                       WITH  (MID,R5)
                                   15201
 0019DE 1BFF                       15202                       CLEAR R15                 Return code--assume OK
 0019E0 D64F 5146 5146_00146 00146 15206                       IF    (MIDXHOST,NZ),LOCEEXIT  Not a local address, scram
                                   15225
 0019EA 4110 50F6/4100_      000F6 15226                       SETMSG MIDXUSER            User name (account)
 0019F2 58E0 781C/0DEE       021F8 15240                       VCALL LRTRIM
 0019F8 9001 8028            00000 15244                       STM   R0,R1,LOCEMPTR      Save len and addr
                                   15245                       ¿þþþþþþþþþþþþþþþþþþþþþþþþþþþþþþþÜ
                                   15246                       Ÿ  Check for distribution list  Ÿ
                                   15247                       ¾þþþþþþþþþþþþþþþþþþþþþþþþþþþþþþþ»
 0019FC 58E0 7820/0DEE       021FC 15248                       ACALL CHKITEM             Check for userid/dist conflict
 001A02 4780 7032            01A0E 15252                       IF    NZ,BEGIN            If error (msg written),
 001A06 41F0 0004            00004 15263  1                      LA    R15,4               Set RC=4
 001A0A 47F0 72D0            01CAC 15264  1                      B     LOCEEXIT            Return
 001A0E                            15265                       END
                                   15269
 001A0E 9801 8028            00000 15270                       LM    R0,R1,LOCEMPTR      Refresh len and addr
 001A12 58E0 7824/0DEE       02200 15271                       ACALL DISTITEM            Check for dist list
 001A18 4770 7048            01A24 15275                       IF    Z,BEGIN             If entry was dist list,
 001A1C 9602 5004      00004       15286  1                      SET   MIDXFSKP            Skip entry when mailing
 001A20 47F0 72D0            01CAC 15292  1                      B     LOCEEXIT            Return with RC=0
 001A24                            15293                       END
                                   15297
 001A24 184D/41D0 D1F8             15298                       XPUSH ,,L'KWR,PTR=R4
 USING  KWR,R4                     15301                       WITH  (KWR,R4)
 001A2A D7FF 4000 4000_00000 00000 15314                       CLEAR KWR
1MAIL     (MAIL4072) (12:48) (15MAR04) MAIL and SEND Commands                                                               Page   38
0Current Usings:  (KWR,R4) (MID,R5) (MAILWA,R6) (*,R7) (LOCEMWA-(4+36),R8) (CP,R11) (CV,R12)
0Loc    Object Code    Addr1 Addr2  Stmt Lv Lineno    Source Statement           (Hibal 5, Asmedit 3.3)  HLASM R4.0  2004/03/15 12.48
+___    ______ ____    _____ _____  ____ __ ______    ______ _________
0                                  15322                       ¿þþþþþþþþþþþþþþþþþþþþþþþþþþþþþþþþþþþþþþþþþþþþþþþþþþþþþþþþþþþþÜ
                                   15323                       Ÿ  Just "uuu" is a special case.  We have to first check to  Ÿ
                                   15324                       Ÿ    see if "GG.uuu" exists, and if it does then use that.   Ÿ
                                   15325                       Ÿ    If not, we want to fall through and do the user-id      Ÿ
                                   15326                       Ÿ    lookup.                                                 Ÿ
                                   15327                       ¾þþþþþþþþþþþþþþþþþþþþþþþþþþþþþþþþþþþþþþþþþþþþþþþþþþþþþþþþþþþþ»
 001A36 9801 8028            00000 15328                       LM    R0,R1,LOCEMPTR      Refresh len and addr
 001A3A 5900 7828/4770_      02204 15329                       IF    (R0,EQ,3),BEGIN     Possibly "uuu" of "GG.uuu"...
 001A42 D201 4003 B3B7 00003 003B7 15346  1                      MVC   KWRGRP,CPSGRP       Logged on group code
 001A48 D202 4000 1000 00000 00000 15347  1                      MVC   KWRUSER,@R1         "uuu"
 001A4E 1814/4100 0040_            15348  1                      KREAD KWR
 001A5A 9180 400E/47E0_0000E       15361  1                      IF    ~KWRIFL.KWRIFVAL,EXIT  No such GG.uuu, scram
 001A62 D204 522C 4000 0022C 00000 15380  1                      MVC   MIDXACCT,KWRACCT    Save "uuugg" account
 001A68 D201 50F6 522F 000F6 0022F 15381  1                      MVC   MIDXUSER(2),MIDXACCT+3
 001A6E 924B 50F8      000F8       15382  1                      MVI   MIDXUSER+2,C'.'
 001A72 D202 50F9 522C 000F9 0022C 15383  1                      MVC   MIDXUSER+3(3),MIDXACCT
 001A78 47F0 719A            01B76 15384  1                      B     LOCEVAL
 001A7C                            15385                       END
                                   15389                       ¿þþþþþþþþþþþþþþþþþþþþþþþþþþþþþþþþþþþþþþþþþþþÜ
                                   15390                       Ÿ  Look up the userid and get the account.  Ÿ
                                   15391                       ¾þþþþþþþþþþþþþþþþþþþþþþþþþþþþþþþþþþþþþþþþþþþ»
 001A7C 9801 8028            00000 15392                       LM    R0,R1,LOCEMPTR      Refresh len and addr
 001A80 41F0 522C            0022C 15393                       LA    R15,MIDXACCT        Put "uuugg" account here
 001A84 58E0 7830/0DEE       0220C 15394                       VCALL GETACCT             Get account from userid
 001A8A 4780 70F2            01ACE 15398                       IF    NZ,BEGIN            Local userid doesn't exist...
 001A8E 1B22                       15409  1                      CLEAR R2
 001A90 9140 BD55/47E0_00D55       15413  1                      IF    CPFQUIET,'LA R2,1; CLEAR CPFQUIET'
 001AA0 41F0 5000            00000 15441  1                      LA    R15,MID
 001AA4 58E0 7834/0DEE       02210 15442  1                      ACALL SEGMID
 001AAA 4110 7838/4100_      02214 15446  1                      TSEG  ' is an unknown local address, mail not sent.',,WR
 001ABC 1222/4780 70EA_            15464  1                      IF    (R2,NZ),'SET CPFQUIET'
 001AC6 41F0 0004            00004 15489  1                      LA    R15,4               Set error return code
 001ACA 47F0 72D0            01CAC 15490  1                      B     LOCEEXIT            Scram
 001ACE                            15491                       END
                                   15495                       ¿þþþþþþþþþþþþþþþþþþþþþþþþþþþþþþþþþþþþþþþÜ
                                   15496                       Ÿ  Make sure the local account exists.  Ÿ
                                   15497                       ¾þþþþþþþþþþþþþþþþþþþþþþþþþþþþþþþþþþþþþþþ»
 001ACE D7FF 4000 4000_00000 00000 15498                       CLEAR KWR
 001ADA D204 4000 522C 00000 0022C 15506                       MVC   KWRACCT,MIDXACCT
 001AE0 1814/4100 0040_            15507                       KREAD KWR
 001AEC 9180 400E/4710_0000E       15520                       IF    ~KWRIFL.KWRIFVAL,BEGIN
 001AF4 1B22                       15536  1                      CLEAR R2
 001AF6 9140 BD55/47E0_00D55       15540  1                      IF    CPFQUIET,'LA R2,1; CLEAR CPFQUIET'
 001B06 4110 7814/4100_      021F0 15568  1                      TSEG  'Account '
 001B18 4110 4003/4100_      00003 15586  1                      TSEG  KWRGRP
 001B2A 4110 78E4/4100_      022C0 15614  1                      TSEG  '.'
 001B3C 4110 4000/4100_      00000 15632  1                      TSEG  KWRUSER
 001B4E 4110 78E5/4100_      022C1 15660  1                      TSEG  ' does not exist, mail not sent.',,WR
 001B60 4770 C7DA            007DA 15678  1                      BNZ   CVABORT
 001B64 1222/4780 7192_            15679  1                      IF    (R2,NZ),'SET CPFQUIET'
 001B6E 41F0 0004            00004 15704  1                      LA    R15,4               Set error return code
 001B72 47F0 72D0            01CAC 15705  1                      B     LOCEEXIT            Skip this user
 001B76                            15706                       END
1MAIL     (MAIL4072) (12:48) (15MAR04) MAIL and SEND Commands                                                               Page   39
0Current Usings:  (KWR,R4) (MID,R5) (MAILWA,R6) (*,R7) (LOCEMWA-(4+36),R8) (CP,R11) (CV,R12)
0Loc    Object Code    Addr1 Addr2  Stmt Lv Lineno    Source Statement           (Hibal 5, Asmedit 3.3)  HLASM R4.0  2004/03/15 12.48
+___    ______ ____    _____ _____  ____ __ ______    ______ _________
0                                  15710                       ¿þþþþþþþþþþþþþþþþþþþþþþþþþþþþþþþþþþþþþþþþþþþþþþþþþþþþþþþÜ
                                   15711                       Ÿ  We now have a valid account, so now get the primary  Ÿ
                                   15712                       Ÿ    userid and fill that in.                           Ÿ
                                   15713                       ¾þþþþþþþþþþþþþþþþþþþþþþþþþþþþþþþþþþþþþþþþþþþþþþþþþþþþþþþ»
 001B76 41F0 522C            0022C 15714              LOCEVAL  LA    R15,MIDXACCT
 001B7A 4110 50F6/4100_      000F6 15715                       SETMSG MIDXUSER
 001B82 58E0 786C/0DEE       02248 15729                       VCALL GETUID              Get primary userid
                                   15733
 001B88 D613 4078 4078_00078 00078 15734                       IF    (KWRNAME,NZ),BEGIN  User name is available...
 001B92 D24F 5006 C4D8 00006 004D8 15750  1                      MVC   MIDXNAME,CVBLANKS
 001B98 D213 5006 4078 00006 00078 15751  1                      MVC   MIDXNAME(L'KWRNAME),KWRNAME  Save the user's name
 001B9E                            15752                       END
                                   15756
 001B9E D64F 4102 4102_00102 00102 15757                       IF    (KWRMTXT,NZ),BEGIN
 001BA8 D24F 51DC C4D8 001DC 004D8 15773  1                      MVC   MIDXMTXT,CVBLANKS
 001BAE D24F 51DC 4102 001DC 00102 15774  1                      MVC   MIDXMTXT(L'KWRMTXT),KWRMTXT  Save the user's mail text
 001BB4                            15775                       END
                                   15779
 001BB4 9140 4057/4710_00057       15780                       IF    ~KWROFL.KWRFMAIL,BEGIN
 001BBC 1B22                       15796  1                      CLEAR R2
 001BBE 9140 BD55/47E0_00D55       15800  1                      IF    CPFQUIET,'LA R2,1; CLEAR CPFQUIET'
 001BCE 4110 78A4/4100_      02280 15828  1                      TSEG  'Mail not sent '
 001BE0 4110 78B2/4100_      0228E 15846  1                      TSEG  'because mail is not being accepted by '
 001BF2 41F0 5000            00000 15864  1                      LA    R15,MID
 001BF6 58E0 7834/0DEE       02210 15865  1                      ACALL SEGMID
 001BFC 4110 78E4/4100_      022C0 15869  1                      TSEG  '.',,WR
                                   15887  1           *        TSEG  ' is not accepting mail, mail not sent.',,WR
 001C0E 4770 C7DA            007DA 15888  1                      BNZ   CVABORT
 001C12 1222/4780 7240_            15889  1                      IF    (R2,NZ),'SET CPFQUIET'
 001C1C 41F0 0004            00004 15914  1                      LA    R15,4               Set error return code
 001C20 47F0 72D0            01CAC 15915  1                      B     LOCEEXIT            Skip this user
 001C24                            15916                       END
                                   15920                       ¿þþþþþþþþþþþþþþþþþþþþþþþþþþþÜ
                                   15921                       Ÿ  Handle mail forwarding.  Ÿ
                                   15922                       ¾þþþþþþþþþþþþþþþþþþþþþþþþþþþ»
 001C24 D63F 40C2 40C2_000C2 000C2 15923                       IF    (KWRMFOR,NZ),BEGIN  Forwarding account...
 001C2E 4110 40C2/4100_      000C2 15939  1                      SETMSG KWRMFOR             Forwarding mail-id
 001C36 58E0 781C/0DEE       021F8 15953  1                      VCALL LRTRIM
 001C3C 58E0 7870/0DEE       0224C 15957  1                      ACALL ADDLIST             Add forwarding address
 001C42 41F0 0008            00008 15961  1                      LA    R15,8               We handled the orig mail-id
 001C46 47F0 72D0            01CAC 15962  1                      B     LOCEEXIT
 001C4A                            15963                       END
                                   15967                       ¿þþþþþþþþþþþþþþþþþþþþþþþþþþþþþþþþþþþþþþþþþþþþþþþþþþþþþþþþþþþþÜ
                                   15968                       Ÿ  Handle automatically BATMAILing mail if appropriate.      Ÿ
                                   15969                       Ÿ    For example, if XX.YYY's primary machine is SYSC, then  Ÿ
                                   15970                       Ÿ    treat USERID as USERID@SYSC.                            Ÿ
                                   15971                       ¾þþþþþþþþþþþþþþþþþþþþþþþþþþþþþþþþþþþþþþþþþþþþþþþþþþþþþþþþþþþþ»
 001C4A 1F22/4320 C067             15972                       LC    R2,CVMACH           Our machine flag bit
 001C50 4420 79DC/00/9_      023B8 15979                       EX    R2,'TM KWRMPRIM,0'  Recipient on this machine?
 001C54 4770 72BE            01C9A 15995                       IF    Z,BEGIN             No, BATMAIL it...
                                   16006  1           *!!!!!!!!!! needs work (can't assume "GG.UUU" anymore) !!!!!!!!
                                   16007  1           * for now we just check if account is gg.uuu form, if not we do
                                   16008  1           * not send it to primary machine.  but hey what does a userid on
                                   16009  1           * sysc or sysb mean to us.
1MAIL     (MAIL4072) (12:48) (15MAR04) MAIL and SEND Commands                                                               Page   40
0Current Usings:  (KWR,R4) (MID,R5) (MAILWA,R6) (*,R7) (LOCEMWA-(4+36),R8) (CP,R11) (CV,R12)
0Loc    Object Code    Addr1 Addr2  Stmt Lv Lineno    Source Statement           (Hibal 5, Asmedit 3.3)  HLASM R4.0  2004/03/15 12.48
+___    ______ ____    _____ _____  ____ __ ______    ______ _________
0001C58 9540 50FC/4770_000FC       16010  1                      IF    (MIDXUSER+6,EQ,' '),BEGIN
 001C60 9180 40AE/47E0_000AE       16027  2                        IF    KWRMPRIM.KWRFSYSA,'MVC MIDXUSER+6(5),=C"@SYSA"'
 001C6E 9140 40AE/47E0_000AE       16049  2                        IF    KWRMPRIM.KWRFSYSB,'MVC MIDXUSER+6(5),=C"@SYSB"'
                                   16071  2           ******** IF    KWRMPRIM.KWRFSYSC,'MVC MIDXUSER+6(5),=C"@SYSC"'
                                   16072  2           *
 001C7C 9540 50FC/4780_000FC       16073  2                        IF    (MIDXUSER+6,NE,' '),BEGIN
 001C84 4110 50F6/4100_      000F6 16090  3                          SETMSG MIDXUSER,11         "gg.uuu@SYSx"
 001C8C 58E0 7870/0DEE       0224C 16106  3                          ACALL ADDLIST             Add this mail-id
 001C92 41F0 0004            00004 16110  3                          LA    R15,4               We handled the orig mail-id
 001C96 47F0 72D0            01CAC 16111  3                          B     LOCEEXIT
 001C9A                            16112  2                        END
 001C9A                            16116  1                      END
 001C9A                            16120                       END
                                   16124              *
                                   16125              *
 001C9A D7FF 4000 4000_00000 00000 16126                       CLEAR KWR
 001CA6 4BD0 78D8            022B4 16134                       XPOP  ,,L'KWR
                                   16136
 001CAA 1BFF                       16137                       CLEAR R15                 Set good rc
                                   16141
 001CAC 18D8/9808 D004_            16142              LOCEEXIT PEND
 DROP   KWR,R4
 DROP   MID,R5
 DROP   LOCEMWA-(4+36),R8
 DROP   *,R7
1MAIL     (MAIL4072) (12:48) (15MAR04) MAIL and SEND Commands                                                               Page   41
0Current Usings:  (MAILWA,R6) (CP,R11) (CV,R12)
0Loc    Object Code    Addr1 Addr2  Stmt Lv Lineno    Source Statement           (Hibal 5, Asmedit 3.3)  HLASM R4.0  2004/03/15 12.48
+___    ______ ____    _____ _____  ____ __ ______    ______ _________
0                                  16179              ¿þþþþþþþþþþþþþþþþþþþþþþþþþþþþþþþþþþþþþþþþþþþþþþþþþþþþþþþþþþþþþþþþþþþþþÜ
                                   16180              Ÿ                                                                     Ÿ
                                   16181              Ÿ  NETEMA -- Local routine to process a network mail address.         Ÿ
                                   16182              Ÿ                                                                     Ÿ
                                   16183              Ÿ    On entry:                                                        Ÿ
                                   16184              Ÿ      R15 - MID ptr                                                  Ÿ
                                   16185              Ÿ                                                                     Ÿ
                                   16186              Ÿ    On exit, R15 (and cc):                                           Ÿ
                                   16187              Ÿ      0 - address is OK                                              Ÿ
                                   16188              Ÿ      4 - error (a message has aleady been written)                  Ÿ
                                   16189              Ÿ                                                                     Ÿ
                                                      ¾þþþþþþþþþþþþþþþþþþþþþþþþþþþþþþþþþþþþþþþþþþþþþþþþþþþþþþþþþþþþþþþþþþþþþ»
0001CBA 50E0 D000/9008_      00000 16190              NETEMA   PROC
 USING  *,R7
 001CD4 185F                       16229                       LR    R5,R15
 USING  MID,R5                     16230                       WITH  (MID,R5)
                                   16243
 001CD6 D64F 5146 5146_00146 00146 16244                       IF    (MIDXHOST,NZ),BEGIN  Network mail address...
 001CE0 41F0 5146            00146 16260  1                      LA    R15,MIDXHOST        Host part of address
 001CE4 58E0 757C/0DEE       02250 16261  1                      ACALL ALIASCHK            Get real host name
 001CEA 4780 7020            01CF4 16265  1                      IF    NZ,BEGIN            Host name has changed...
 001CEE D24F 50A6 5146 000A6 00146 16276  2                        MVC   MIDXHONC,MIDXHOST   Move in new host name
 001CF4                            16277  1                      END
                                   16281  1                 ¿þþþþþþþþþþþþþþþþþþþþþþþþþþþþþþþþþþþþþþþþþþþþþþþþþþþþþþþþþþþþþþÜ
                                   16282  1                 Ÿ  This hack can be deleted once this version of MAIL is       Ÿ
                                   16283  1                 Ÿ  running in all copies of Wylbur, and SYSC is aliases to ''  Ÿ
                                   16284  1                 Ÿ  in the host table.                                          Ÿ
                                   16285  1                 ¾þþþþþþþþþþþþþþþþþþþþþþþþþþþþþþþþþþþþþþþþþþþþþþþþþþþþþþþþþþþþþþ»
 001CF4 D504 7616 5146_022EA 00146 16286  1                      IF    (MIDXHOST,EQ,'SYSC '),BEGIN
 001CFE D24F 5146 C4D8 00146 004D8 16303  2                        MVC   MIDXHOST,CVBLANKS
 001D04                            16304  1                      END
                                   16308  1
 001D04 D54F 5146 C4D8_00146 004D8 16309  1                      IF    (MIDXHOST,EQ,CVBLANKS),BEGIN  If local host alias,
 001D0E D74F 5146 5146 00146 00146 16327  2                        CLEAR MIDXHOST                      Clear host names
 001D14 D74F 50A6 50A6 000A6 000A6 16334  2                        CLEAR MIDXHONC
 001D1A                            16341  1                      END
                                   16345  1
 001D1A D64F 5146 5146_00146 00146 16346  1                      IF    (MIDXHOST,Z),'CLEAR R15; B NETAEXIT'  Scram
                                   16372  1
 001D2A 41F0 5146            00146 16373  1                      LA    R15,MIDXHOST        Host name
 001D2E 58E0 7580/0DEE       02254 16374  1                      ACALL HOSTCHK             Do we know about this host?
 001D34 4770 7090            01D64 16378  1                      IF    Z,BEGIN             Nope...
 001D38 4110 5146/4100_      00146 16389  2                        TSEG  MIDXHOST,,T
 001D4A 4110 761B/4100_      022EF 16417  2                        TSEG  ' is an unknown host address, mail not sent.',,CR
 001D5C 41F0 0004            00004 16435  2                        LA    R15,4
 001D60 47F0 717E            01E52 16436  2                        B     NETAEXIT
 001D64                            16437  1                      END
                                   16441  1
 001D64 184F                       16442  1                      LR    R4,R15
 USING  HOST,R4                    16443  1                      WITH  (HOST,R4)
 001D66 9102 4004/47E0_00004       16456  1                      IF    HOSTFERR,BEGIN
 001D6E 4110 7646/4100_      0231A 16471  2                        TSEG  'Mail not sent to '
 001D80 41F0 5000            00000 16489  2                        LA    R15,MID
1MAIL     (MAIL4072) (12:48) (15MAR04) MAIL and SEND Commands                                                               Page   42
0Current Usings:  (HOST,R4) (MID,R5) (MAILWA,R6) (*,R7) (CP,R11) (CV,R12)
0Loc    Object Code    Addr1 Addr2  Stmt Lv Lineno    Source Statement           (Hibal 5, Asmedit 3.3)  HLASM R4.0  2004/03/15 12.48
+___    ______ ____    _____ _____  ____ __ ______    ______ _________
0001D84 58E0 753C/0DEE       02210 16490  2                        ACALL SEGMID
 001D8A 4110 75E2/4100_      022B6 16494  2                        TSEG  ', '
 001D9C D64F 40A1 40A1_000A1 000A1 16512  2                        IF    (HOSTTEXT,NZ),'TSEG HOSTTEXT,,T'  Error text
 001DB8 41F0 0004            00004 16561  2                        LA    R15,4
 001DBC 47F0 717E            01E52 16562  2                        B     NETAEXIT
 001DC0                            16563  1                      END
                                   16567  1
 001DC0 9140 4004/47E0_00004       16568  1                      IF    HOSTFBIT,BEGIN      Bitnet mail...
 001DC8 9640 5004      00004       16583  2                        SET   MIDXFBIT            This is a Bitmail address
 001DCC                            16589  1                      END
                                   16593  1
 001DCC 9120 4004/47E0_00004       16594  1                      IF    HOSTFGTE,BEGIN      Gateway mail...
 001DD4 9620 5004      00004       16609  2                        SET   MIDXFGTE            This message goes to a gateway
 001DD8                            16615  1                      END
                                   16619  1
 001DD8 9104 4004/47E0_00004       16620  1                      IF    HOSTFTST,'SET MIDXFTST'  Test host address
 001DE4 9110 4004/47E0_00004       16646  1                      IF    HOSTFBSMTP,'SET MIDXFBSMTP'  BSMTP header
 001DF0 9108 4004/47E0_00004       16672  1                      IF    HOSTFSUNMAIL,'SET MIDXFSUNMAIL'  SUNMAIL option
 001DFC 9180 4004/47E0_00004       16698  1                      IF    HOSTFBAT,'SET MIDXFBAT'  BATMAIL
                                   16724  1
 001E08 D204 522C 409C 0022C 0009C 16725  1                      MVC   MIDXACCT,HOSTACCT   Save account
 001E0E D222 5196 4056 00196 00056 16726  1                      MVC   MIDXGATE,HOSTGATE   Gateway address
 001E14 D222 51B9 4079 001B9 00079 16727  1                      MVC   MIDXRELY,HOSTRELY   Relay node address
                                   16728  1                      ¿þþþþþþþþþþþþþþþþþþþþþþþþþþþþþþþþþþþþþþþþþþþþþþþþþþþþþþþþþþþþþþþÜ
                                   16729  1                      Ÿ  If target host cannot handle major domains, strip them off.  Ÿ
                                   16730  1                      ¾þþþþþþþþþþþþþþþþþþþþþþþþþþþþþþþþþþþþþþþþþþþþþþþþþþþþþþþþþþþþþþþ»
 001E1A 9180 4005/47E0_00005       16731  1                      IF    HOSTFNDM,BEGIN      Domain suppression
 001E22 4110 50A6/4100_      000A6 16746  2                        SETMSG MIDXHONC
 001E2A 1A10                       16760  2                        AR    R1,R0
 001E2C 0610                       16761  2                        DECR  R1                  Point to last char in node name
 001E2E 1BFF                       16763  2                        CLEAR R15
 001E30 19F0/4730 717C             16767  2           DELDMN       WHILE (R15,LE,R0),BEGIN
 001E36 954B 1000/4770_00000       16785  3                          IF    (@R1,EQ,'.'),BEGIN  Found domain?
 001E3E 44F0 76E8/D200_      023BC 16801  4                            EX    R15,'MVC @R1(0),CVBLANKS'  Kill major domain
 001E42 47F0 717C            01E50 16817  4                            EXIT  DELDMN
 001E46                            16820  3                          END
 001E46 41F0 F001            00001 16824  3                          LA    R15,@R15+1
 001E4A 0610                       16825  3                          DECR  R1
 001E4C 47F0 715C            01E30 16827  2                        END
 001E50                            16832  1                      END
                                   16836  1
 DROP   HOST,R4                    16837                       END
 001E50 1BFF                       16846                       CLEAR R15                 Set good rc
                                   16850
 001E52 18D8/9808 D004_            16851              NETAEXIT PEND
 DROP   MID,R5
 DROP   *,R7
1MAIL     (MAIL4072) (12:48) (15MAR04) MAIL and SEND Commands                                                               Page   43
0Current Usings:  (MAILWA,R6) (CP,R11) (CV,R12)
0Loc    Object Code    Addr1 Addr2  Stmt Lv Lineno    Source Statement           (Hibal 5, Asmedit 3.3)  HLASM R4.0  2004/03/15 12.48
+___    ______ ____    _____ _____  ____ __ ______    ______ _________
0                                  16878              *
                                   16879              *
                                   16880              *  CHKITEM - Check for UserID/Distribution List Conflict
                                   16881              *
                                   16882              *
                                   16883              *  On Entry
                                   16884              *    R1,R0 - id/account/list loc, len
                                   16885              *
                                   16886              *  On Exit
                                   16887              *    R15 - zero all ok
                                   16888              *    R15 - non-zero, conflict, message given
                                   16889              *
                                   16890              *
                                   16891              *
 001E60 50E0 D000/9008_      00000 16892              CHKITEM  PROC
 USING  *,R7
                                   16931
                                   16932                       COMMENT                   CHECK FOR DISTRIBUTION LIST
 001E7A 58E0 73E6/0DEE       02260 16933                       ACALL CHKDLIST
 001E80 4780 700E            01E88 16937                       IF    NZ,BEGIN            NOT FOUND, ALL OK
 001E84 47F0 7094            01F0E 16948  1                      B     CHKIOK
 001E88                            16949                       END
                                   16953
                                   16954                       COMMENT                   CHECK FOR ACCOUNT/USERID
 001E88 58E0 73EA/0DEE       02264 16955                       ACALL CHKACCID
 001E8E 4780 701C            01E96 16959                       IF    NZ,BEGIN            NOT FOUND, ALL OK
 001E92 47F0 7094            01F0E 16970  1                      B     CHKIOK
 001E96                            16971                       END
 001E96 7020/47F0 7094 01E96 01E90 16975                       ELSE  BEGIN               BOTH ACCT/USRID AND LIST
 001E9A 9001 D000/41D0_      00000 16986  1                      XPUSH R0,R1
 001EA2 41F0 B050/58E0_      00050 16989  1                      TSEG  (R1),(R0)
 001EAC 4110 74B1/4100_      0232B 17013  1                      TSEG  ': invalid mail address, mail not sent. '
 001EBE 4110 74D8/4100_      02352 17031  1                      TSEG  'UserID/Distribution list conflict. ',,WR
 001ED0 4110 74A0/4100_      0231A 17049  1                      TSEG  'Mail not sent to '
 001EE2 4BD0 743E/9801_      022B8 17067  1                      XPOP  R0,R1
 001EEA 41F0 B050/58E0_      00050 17070  1                      TSEG  (R1),(R0)
 001EF4 4110 7446/4100_      022C0 17094  1                      TSEG  '.',,WR
 001F06 41F0 0004            00004 17112  1                      LA    R15,4
 001F0A 47F0 7096            01F10 17113  1                      B     CHKIDONE
 001F0E                            17114                       END
                                   17118
 001F0E                            17119              CHKIOK   LABEL ,
 001F0E 1BFF                       17121                       CLEAR R15
                                   17125
 001F10                            17126              CHKIDONE LABEL ,
 001F10 18D8/9808 D004_            17128                       PEND
 DROP   *,R7
1MAIL     (MAIL4072) (12:48) (15MAR04) MAIL and SEND Commands                                                               Page   44
0Current Usings:  (MAILWA,R6) (CP,R11) (CV,R12)
0Loc    Object Code    Addr1 Addr2  Stmt Lv Lineno    Source Statement           (Hibal 5, Asmedit 3.3)  HLASM R4.0  2004/03/15 12.48
+___    ______ ____    _____ _____  ____ __ ______    ______ _________
0                                  17149              *
                                   17150              *
                                   17151              *  CHKDLIST - Check for Distribution List
                                   17152              *
                                   17153              *
                                   17154              *  On Entry
                                   17155              *    R1,R0 - id/account/list loc, len
                                   17156              *
                                   17157              *  On Exit
                                   17158              *    R15 - zero if found
                                   17159              *    R15 - non-zero if not found
                                   17160              *
                                   17161              *
                                   17162              *  Note:
                                   17163              *  This code is all from DISTITEM routine. See more
                                   17164              *  detailed comments there.
                                   17165              *
 001F1E 50E0 D000/9008_      00000 17166              CHKDLIST PROC  DISTWA
 USING  *,R7
 USING  DISTWA-(4+36),R8
                                   17216
                                   17217                       COMMENT                   IS IT DISTRIBUTION LIST
                                   17218                       COMMENT                   CHECK IT OUT
 001F38 9001 8028            00000 17219                       STM   R0,R1,DISTRG01
 001F3C 4110 806C/4100_      00044 17220                       SEGINIT DISTBUF,,DISTCB
                                   17247                       ¿þþþþþþþþþþþþþþþþþþþþþþþþþþþþþþþþþþþþþþþþþþþþþþþþþþþþþþþþþþþþþþÜ
                                   17248                       Ÿ  First check for a public distribution list with this name.  Ÿ
                                   17249                       ¾þþþþþþþþþþþþþþþþþþþþþþþþþþþþþþþþþþþþþþþþþþþþþþþþþþþþþþþþþþþþþþ»
 001F4E 4110 743D/4100_      02375 17250                       SEG   'REC_GET(PUB.MAIL_DISTNO,UPPER("'
 001F60 9801 8028            00000 17267                       LM    R0,R1,DISTRG01      Restore item loc, len
 001F64 41F0 8030/58E0_      00008 17268                       SEG   (R1),(R0)
 001F6E 4110 745C/4100_      02394 17291                       SEG   '"))'
                                   17308
 001F80 18ED/41D0 D43C_            17309                       TPUSH
                                   17347
 001FB4 4120 816C            00144 17348                       LA    R2,DISTRES          Put result here
 001FB8 4130 0100            00100 17349                       LA    R3,L'DISTRES
 001FBC 5810 8050/5800_      00028 17350                       SETMSG L:DISTCBLOC,L:DISTCBLENF
 001FC4 58E0 7334/0DEE       0226C 17362                       VCALL EVALSTR             Is the "id" a dist list?
                                   17366
 001FCA 184F                       17367                       LR    R4,R15
 001FCC 4BD0 7384/D23B_      022BC 17368                       TPOP  JUNK
 001FD6 12F4                       17373                       LTR   R15,R4
                                   17374
 001FD8 4720 70B8            01FF0 17375                       IF    NP,BEGIN            Yep...
 001FDC 1812/1803                  17386  1                      SETMSG (R2),(R3)
 001FE0 58E0 72C0/0DEE       021F8 17398  1                      VCALL LRTRIM
 001FE6 1200/47D0 70B8             17402  1                      IF    (R0,POS),BEGIN      There is some text...
 001FEC 47F0 716C            020A4 17416  2                        B     GOTLIST
 001FF0                            17417  1                      END
 001FF0                            17421                       END
1MAIL     (MAIL4072) (12:48) (15MAR04) MAIL and SEND Commands                                                               Page   45
0Current Usings:  (MAILWA,R6) (*,R7) (DISTWA-(4+36),R8) (CP,R11) (CV,R12)
0Loc    Object Code    Addr1 Addr2  Stmt Lv Lineno    Source Statement           (Hibal 5, Asmedit 3.3)  HLASM R4.0  2004/03/15 12.48
+___    ______ ____    _____ _____  ____ __ ______    ______ _________
0                                  17425                 ¿þþþþþþþþþþþþþþþþþþþþþþþþþþþþþþþþþþþþþþþþþþþþþþþþþþþþþþþþþþþþþþþþþþþþþÜ
                                   17426                 Ÿ  Not a public distribution list, now check for a user distribution  Ÿ
                                   17427                 Ÿ          list with this name.                                       Ÿ
                                   17428                 ¾þþþþþþþþþþþþþþþþþþþþþþþþþþþþþþþþþþþþþþþþþþþþþþþþþþþþþþþþþþþþþþþþþþþþþ»
 001FF0 41F0 8030/58E0_      00008 17429                       SEGCLR
 001FFA 4110 745F/4100_      02397 17442                       SEG   'REC_GET(SES.MAIL_DISTNO,UPPER("'
 00200C 9801 8028            00000 17459                       LM    R0,R1,DISTRG01      Restore item loc, len
 002010 41F0 8030/58E0_      00008 17460                       SEG   (R1),(R0)
 00201A 4110 745C/4100_      02394 17483                       SEG   '"))'
                                   17500
 00202C 18ED/41D0 D43C_            17501                       TPUSH
                                   17539
 002060 4120 816C            00144 17540                       LA    R2,DISTRES          Put result here
 002064 4130 0100            00100 17541                       LA    R3,L'DISTRES
 002068 5810 8050/5800_      00028 17542                       SETMSG L:DISTCBLOC,L:DISTCBLENF
 002070 58E0 7334/0DEE       0226C 17554                       VCALL EVALSTR             Is the "id" a dist list?
                                   17558
 002076 184F                       17559                       LR    R4,R15
 002078 4BD0 7384/D23B_      022BC 17560                       TPOP  JUNK
 002082 12F4                       17565                       LTR   R15,R4
                                   17566
 002084 4720 7164            0209C 17567                       IF    NP,BEGIN            Yep...
 002088 1812/1803                  17578  1                      SETMSG (R2),(R3)
 00208C 58E0 72C0/0DEE       021F8 17590  1                      VCALL LRTRIM
 002092 1200/47D0 7164             17594  1                      IF    (R0,POS),BEGIN      There is some text...
 002098 47F0 716C            020A4 17608  2                        B     GOTLIST
 00209C                            17609  1                      END
 00209C                            17613                       END
                                   17617
                                   17618                       COMMENT                   WE DID NOT FIND LIST
 00209C 41F0 0004            00004 17619                       LA    R15,4
 0020A0 47F0 7172            020AA 17620                       B     CHKDDONE
                                   17621
 0020A4                            17622              GOTLIST  LABEL ,
 0020A4 1BFF                       17624                       CLEAR R15
 0020A6 47F0 7172            020AA 17628                       B     CHKDDONE
                                   17629
 0020AA                            17630              CHKDDONE LABEL ,
 0020AA 18D8/9808 D004_            17632                       PEND
 DROP   DISTWA-(4+36),R8
 DROP   *,R7
1MAIL     (MAIL4072) (12:48) (15MAR04) MAIL and SEND Commands                                                               Page   46
0Current Usings:  (MAILWA,R6) (CP,R11) (CV,R12)
0Loc    Object Code    Addr1 Addr2  Stmt Lv Lineno    Source Statement           (Hibal 5, Asmedit 3.3)  HLASM R4.0  2004/03/15 12.48
+___    ______ ____    _____ _____  ____ __ ______    ______ _________
0                                  17658              *
                                   17659              *
                                   17660              *  CHKACCID - Check for ACCOUNT/ID list
                                   17661              *
                                   17662              *
                                   17663              *  On Entry
                                   17664              *    R1,R0 - id/account/list loc, len
                                   17665              *
                                   17666              *  On Exit
                                   17667              *    R15 - zero if found
                                   17668              *    R15 - non-zero if not found/account does not exist
                                   17669              *
                                   17670              *
                                   17671              *
 000000                00000 00080 17672              CHKAIWA  RECORD BEGIN
 000000                            17680  1           CHKAACCT   DS    XL128
 000080                00080 00080 17681                       END
                                   17690
 0020B8 50E0 D000/9008_      00000 17691              CHKACCID PROC  CHKAIWA
 USING  *,R7
 USING  CHKAIWA-(4+36),R8
                                   17741
                                   17742                       COMMENT                   DO IT TO IT
 0020D2 41F0 8028            00000 17743                       LA    R15,CHKAACCT        Put account in "uuugg" form here
 0020D6 58E0 71A2/0DEE       02274 17744                       VCALL CHKACCT             Get/check account
                                   17748                       COMMENT                   Returns R15 set appropriately
                                   17749
 0020DC 18D8/9808 D004_            17750                       PEND
 DROP   CHKAIWA-(4+36),R8
 DROP   *,R7
1MAIL     (MAIL4072) (12:48) (15MAR04) MAIL and SEND Commands                                                               Page   47
0Current Usings:  (MAILWA,R6) (CP,R11) (CV,R12)
0Loc    Object Code    Addr1 Addr2  Stmt Lv Lineno    Source Statement           (Hibal 5, Asmedit 3.3)  HLASM R4.0  2004/03/15 12.48
+___    ______ ____    _____ _____  ____ __ ______    ______ _________
0                                  17776              ¿þþþþþþþþþþþþþþþþþþþþþþþþþþþþþþþþþþþþþþþþþþþþþþþþþþþþþþþþþþþþþþþþþþþþþÜ
                                   17777              Ÿ                                                                     Ÿ
                                   17778              Ÿ  SEGMID -- Local routine to seg the current mail id.                Ÿ
                                   17779              Ÿ                                                                     Ÿ
                                   17780              Ÿ    On entry:                                                        Ÿ
                                   17781              Ÿ      R15 - MID ptr                                                  Ÿ
                                   17782              Ÿ                                                                     Ÿ
                                                      ¾þþþþþþþþþþþþþþþþþþþþþþþþþþþþþþþþþþþþþþþþþþþþþþþþþþþþþþþþþþþþþþþþþþþþþ»
00020EA 50E0 D000/9008_      00000 17783              SEGMID   PROC
 USING  *,R7
 002104 185F                       17822                       LR    R5,R15
 USING  MID,R5                     17823                       WITH  (MID,R5)
                                   17836
 002106 4120 C4D8            004D8 17837                       LA    R2,CVBLANKS
 00210A 4110 5006/4100_      00006 17838                       SETMSG MIDXNAME            Recipient name -- non-gateway
 002112 9160 5004/4780_00004       17852                       IF    MIDXFGTE+MIDXFBIT,'SETMSG MWARNAME'  Rec. nme. gate/bit
 002122 9500 1000/4780_00000       17889                       IF    (@R1,NE,0),'TSEG (R1),(R0),TB; LA R2,=C"<>"'
                                   17936
 002138 1812/4100 0001_            17937                       TSEG  @R2,1,T             <
 002148 4110 5056/4100_      00056 17967                       SETMSG MIDXUSNC
 002150 D64F 50A6 50A6_000A6 000A6 17981                       IF    (MIDXHONC,Z),'SETMSG MIDXUSER'  Caps vers if local addr
 002162 41F0 B050/58E0_      00050 18016                       TSEG  (R1),(R0),T         Userid
 00216C 4110 5146/4100_      00146 18040                       SETMSG MIDXHOST            Host name
 002174 1830                       18054                       LR    R3,R0               Save
 002176 1841                       18055                       LR    R4,R1
 002178 9500 1000/4780_00000       18056                       IF    (@R1,NE,0),'TSEG "@"; TSEG (R4),(R3),T'
 0021A0 4110 2001/4100_      00001 18122                       TSEG  @R2+1,1,T           >
                                   18152
 0021B2 D64F 51DC 51DC_001DC 001DC 18153                       IF    (MIDXMTXT,NZ),BEGIN  Show mail message, if any...
 0021BC 4110 7178/4100_      0227C 18169  1                      TSEG  ' -- '
 0021CE 4110 51DC/4100_      001DC 18187  1                      TSEG  MIDXMTXT,,T
 0021E0                            18215                       END
 0021E0 18D8/9808 D004_            18219                       PEND
 DROP   MID,R5
 DROP   *,R7
                                   18244
                                   18245                       QLTORG
1MAIL     (MAIL4072) (12:48) (15MAR04) MAIL and SEND Commands                                                               Page   48
0Current Usings:  (MAILWA,R6) (CP,R11) (CV,R12)
0Loc    Object Code    Addr1 Addr2  Stmt Lv Lineno    Source Statement           (Hibal 5, Asmedit 3.3)  HLASM R4.0  2004/03/15 12.48
+___    ______ ____    _____ _____  ____ __ ______    ______ _________
0                                  18304              SENWSEC# EQU   5                   Number of seconds to wait if busy
                                   18305              SENWMAX# EQU   5                   Maximum number of MAILDEFQ files
                                   18306
 000000                00000 00008 18307              SENDWA   RECORD BEGIN
 000000 00                         18315  1           SENDFLAG   FLAG
 SENDFLAG.SENFWAIT 80 ONES         18319  1                      FLAG  SENFWAIT            - We've tried waiting a few secs
                                   18324  1
 000002                            18325  1           SENDQCNT   DS    H                   Number of the MAILDEFQ data sets
                                   18326  1
 000004                            18327  1           SENDSMID   DS    A                   Saved working MID ptr
 000008                00008 00008 18328                       END
-                                  18338              ¿þþþþþþþþþþþþþþþþþþþþþþþþþþþþþþþþþþþþþþþþþþþþþþþþþþþþþþþþþþþþþþþþþþþþþÜ
                                   18339              Ÿ                                                                     Ÿ
                                   18340              Ÿ  SENDMAIL -- Local routine to send a mail item.                     Ÿ
                                   18341              Ÿ                                                                     Ÿ
                                   18342              Ÿ    On entry:                                                        Ÿ
                                   18343              Ÿ      R15 - MID ptr                                                  Ÿ
                                   18344              Ÿ                                                                     Ÿ
                                                      ¾þþþþþþþþþþþþþþþþþþþþþþþþþþþþþþþþþþþþþþþþþþþþþþþþþþþþþþþþþþþþþþþþþþþþþ»
00023C2 50E0 D000/9008_      00000 18345              SENDMAIL PROC  SENDWA
 USING  *,R7
 USING  SENDWA-(4+36),R8
 0023DC D707 8028 8028 00000 00000 18395                       CLEAR SENDWA
                                   18402
 0023E2 185F                       18403                       LR    R5,R15
 USING  MID,R5                     18404                       WITH  (MID,R5)
                                   18417
 0023E4 D203 802C 65D4 00004 005D4 18418                       MVC   SENDSMID,MWAWMIDP
 0023EA 5050 65D4            005D4 18419                       ST    R5,MWAWMIDP         Set current MID ptr
                                   18420
 0023EE D701 6624 6624_00624 00624 18421                       CLEAR MWANDIR,MWADIR
 0023FA D203 652C 6524 0052C 00524 18433                       MVC   MWALINES,MWANLINS   Line count
 002400 D203 6530 6528 00530 00528 18434                       MVC   MWACOUNT,MWANCNT    Byte count
                                   18435                       ¿þþþþþþþþþþþþþþþþþþþþþþþþþþþþÜ
                                   18436                       Ÿ  Gather a few statistics.  Ÿ
                                   18437                       ¾þþþþþþþþþþþþþþþþþþþþþþþþþþþþ»
 002406 41F0 0001/5EF0_      00001 18438                       INCR  R15,CVMSENT         Total number of messages sent
 002412 9120 6001/47E0_00001       18444                       IF    MWAFEMS,'INCR R15,CVMEMS'  Number of EMS messages
 002426 D502 79EA BD24_02DC6 00D24 18470                       IF    (CPCMNM,EQ,'SEN'),'INCR R15,CVMSEND'  No. SENDs
 00243C 9140 5004/47E0_00004       18498                       IF    MIDXFBIT,'INCR R15,CVMBIT'  No. of Bitnet mails
                                   18524                       ¿þþþþþþþþþþþþþþþþþþþÜ
                                   18525                       Ÿ  Dryrun version.  Ÿ
                                   18526                       ¾þþþþþþþþþþþþþþþþþþþ»
 002450 9102 6001/47E0_00001       18527                       IF    MWAFDRYRUN,BEGIN    DRYRUN...
 002458 4110 79ED/4100_      02DC9 18542  1                      TSEG  'Mail would have been sent to '
 00246A 41F0 5000            00000 18560  1                      LA    R15,MID
 00246E 58E0 7850/0DEE       02C2C 18561  1                      ACALL SEGMID              Userid
 002474 1B00/41F0 B050_            18565  1                      TWRITE
 002480 47F0 775E            02B3A 18590  1                      B     SENDDONE
 002484                            18591                       END
1MAIL     (MAIL4072) (12:48) (15MAR04) MAIL and SEND Commands                                                               Page   49
0Current Usings:  (MID,R5) (MAILWA,R6) (*,R7) (SENDWA-(4+36),R8) (CP,R11) (CV,R12)
0Loc    Object Code    Addr1 Addr2  Stmt Lv Lineno    Source Statement           (Hibal 5, Asmedit 3.3)  HLASM R4.0  2004/03/15 12.48
+___    ______ ____    _____ _____  ____ __ ______    ______ _________
0                                  18595                       ¿þþþþþþþþþþþþþþþþþþþþþÜ
                                   18596                       Ÿ  Send Bitnet mail.  Ÿ
                                   18597                       ¾þþþþþþþþþþþþþþþþþþþþþ»
 002484 9140 5004/47E0_00004       18598                       IF    MIDXFBIT,BEGIN      Bitnet mail...
 00248C 58E0 7858/0DEE       02C34 18613  1                      ACALL TRANNAME            Get rid of chars forbidden
 002492 41F0 5000            00000 18617  1                      LA    R15,MID
 002496 58E0 785C/0DEE       02C38 18618  1                      ACALL SENDBIT             Send Bitnet mail item
 00249C 47F0 775E            02B3A 18622  1                      B     SENDDONE
 0024A0                            18623                       END
                                   18627                       ¿þþþþþþþþþþþþþþþþþþþþþþþþþÜ
                                   18628                       Ÿ  Send mail to gateway.  Ÿ
                                   18629                       ¾þþþþþþþþþþþþþþþþþþþþþþþþþ»
 0024A0 9120 5004/47E0_00004       18630                       IF    MIDXFGTE,BEGIN      Gateway processing...
 0024A8 58E0 7858/0DEE       02C34 18645  1                      ACALL TRANNAME            Get rid of chars forbidden
 0024AE 41F0 5000            00000 18649  1                      LA    R15,MID
 0024B2 58E0 7860/0DEE       02C3C 18650  1                      ACALL SENDGTE             Send item to gateway
 0024B8 47F0 775E            02B3A 18654  1                      B     SENDDONE
 0024BC                            18655                       END
                                   18659                       ¿þþþþþþþþþþþþþþþþþþþþÜ
                                   18660                       Ÿ  Send batch mail.  Ÿ
                                   18661                       ¾þþþþþþþþþþþþþþþþþþþþ»
 0024BC 9180 5004/47E0_00004       18662                       IF    MIDXFBAT,BEGIN      Batch job mail...
 0024C4 41F0 5000            00000 18677  1                      LA    R15,MID
 0024C8 58E0 7864/0DEE       02C40 18678  1                      ACALL SENDBAT             Send batch job mail item
 0024CE 47F0 775E            02B3A 18682  1                      B     SENDDONE
 0024D2                            18683                       END
                                   18687                       ¿þþþþþþþþþþþþþþþþþþþþÜ
                                   18688                       Ÿ  Send local mail.  Ÿ
                                   18689                       ¾þþþþþþþþþþþþþþþþþþþþ»
 0024D2 D7FF BE5C BE5C_00E5C 00E5C 18690              MAILBS   CLEAR (CPDSNWA,DSAVSIZ)   Init DSNWA
 0024DE D203 BDA0 7868 00DA0 02C44 18699                       MVC   CPSEQFLD(4),=H'-1,8'  Init seqflds
 0024E4 9280 BD9C      00D9C       18700                       MVI   CPLRCL,X'80'        Init file type
 0024E8 9601 BF3B      00F3B       18701                       SET   DSNDTYPE.DSNDDISK   It's a disk
 0024EC 96C0 BF34      00F34       18708                       SET   DSNWAF1.DSNFSTD+DSNFMYDS
 0024F0 D22B BE5C 786C 00E5C 02C48 18718                       MVC   DSNWADSN,=CL44'WYL.gg.uuu.MAIL'
 0024F6 D201 BE60 522F 00E60 0022F 18719                       MVC   DSNWADSN+4(2),MIDXACCT+3  Group
 0024FC D202 BE63 522C 00E63 0022C 18720                       MVC   DSNWADSN+7(3),MIDXACCT  User
 002502 D201 BF06 7940 00F06 02D1C 18721                       MVC   DSNWANL,=H'15'      L'WYL.gg.uuu.MAIL
                                   18722
 002508 9680 BF37      00F37       18723              MAILBSLP SET   DSNFMAIL            Mail command (checked in DISK)
 00250C D727 BE90 BE90 00E90 00E90 18730                       CLEAR DSNON               No special volume
 002512 94DF BD56      00D56       18737                       CLEAR CPFNOCAT            Use the catalog
                                   18744                       ¿þþþþþþþþþþþþþþþþþþþþþþþþþþþþþþþþþþþþþþþþþþþþþþþþþþþþþþþþþþþþþÜ
                                   18745                       Ÿ  If the user's MAIL data set is in use, then switch to the  Ÿ
                                   18746                       Ÿ    alternate MAILDEFQ data sets and try again.              Ÿ
                                   18747                       ¾þþþþþþþþþþþþþþþþþþþþþþþþþþþþþþþþþþþþþþþþþþþþþþþþþþþþþþþþþþþþþ»
 002516 41F0 0001            00001 18748                       LA    R15,1               Temporary enq
 00251A 58E0 7898/0DEE       02C74 18749                       VCALL DENQ                Enqueue on MAIL data set
 002520 4780 7218            025F4 18753                       IF    NZ,BEGIN            Data set in use...
 002524 D22B BE5C 789C 00E5C 02C78 18764  1                      MVC   DSNWADSN,=CL44'WYL.gg.uuu.MAIL.DEFQnnnn'
 00252A D201 BE60 522F 00E60 0022F 18765  1                      MVC   DSNWADSN+4(2),MIDXACCT+3  Group
 002530 D202 BE63 522C 00E63 0022C 18766  1                      MVC   DSNWADSN+7(3),MIDXACCT  User
 002536 41F0 0001/4AF0_      00001 18767  1                      INCR  R15,SENDQCNT        Kick MAILDEFQ file counter
 002542 5AF0 78C8            02CA4 18773  1                      A     R15,=A(100000)      Force leading zeros for BTD
1MAIL     (MAIL4072) (12:48) (15MAR04) MAIL and SEND Commands                                                               Page   50
0Current Usings:  (MID,R5) (MAILWA,R6) (*,R7) (SENDWA-(4+36),R8) (CP,R11) (CV,R12)
0Loc    Object Code    Addr1 Addr2  Stmt Lv Lineno    Source Statement           (Hibal 5, Asmedit 3.3)  HLASM R4.0  2004/03/15 12.48
+___    ______ ____    _____ _____  ____ __ ______    ______ _________
0002546 4100 0004/4110_      00004 18774  1                      BTD   DSNWADSN+20,4,(R15)  Add queue number
 002554 D201 BF06 7942 00F06 02D1E 18796  1                      MVC   DSNWANL,=H'24'      L'WYL.gg.uuu.MAIL.DEFQnnnn
                                   18797  1                ¿þþþþþþþþþþþþþþþþþþþþþþþþþþþþþþþþþþþþþþþþþþþþþþþþþþþþþþþþþþþþþþþþþþþþþÜ
                                   18798  1                Ÿ  After we have tried and failed to ENQ on many MAILDEFQ data sets;  Ÿ
                                   18799  1                Ÿ        try waiting a few seconds and then start over again.  If we  Ÿ
                                   18800  1                Ÿ          still can't ENQ on a MAILDEFQ after that then give up.     Ÿ
                                   18801  1                ¾þþþþþþþþþþþþþþþþþþþþþþþþþþþþþþþþþþþþþþþþþþþþþþþþþþþþþþþþþþþþþþþþþþþþþ»
 00255A D501 7944 802A_02D20 00002 18802  1                      IF    (SENDQCNT,GT,SENWMAX#),BEGIN  Too many MAILDEFQs...
 002564 9180 8028/4710_00000       18820  2                        IF    ~SENFWAIT,BEGIN     Try waiting a few secs...
 00256C 41F0 01F4            001F4 18835  3                          LA    R15,SENWSEC#*100
 002570 58E0 78D0/0DEE       02CAC 18836  3                          VCALL WAITER              Wait a bit
 002576 4770 C7DA            007DA 18840  3                          BNZ   CVABORT
 00257A 9680 8028      00000       18841  3                          SET   SENFWAIT
 00257E D701 802A 802A 00002 00002 18847  3                          CLEAR SENDQCNT            Reset DEFQ counter
 002584 47F0 70F6            024D2 18854  3                          B     MAILBS              Try it again
 002588                            18855  2                        END
                                   18859  2
 002588 4110 7A0A/4100_      02DE6 18860  2                        TSEG  'Mail not sent to '
 00259A 41F0 5000            00000 18878  2                        LA    R15,MID
 00259E 58E0 7850/0DEE       02C2C 18879  2                        ACALL SEGMID
 0025A4 4110 7946/4100_      02D22 18883  2                        TSEG  '.  Mailbox is unavailable.'
 0025B6 D207 B886 77DC 00886 02BB8 18901  2                        MVC   CPERRID,=C'MLNOTSNT'
 0025BC 1B22                       18902  2                        CLEAR R2
 0025BE 9140 BD55/47E0_00D55       18906  2                        IF    CPFQUIET,'LA R2,1; CLEAR CPFQUIET'
 0025CE 1B00/41F0 B050_            18934  2                        TWRITE
 0025DA 4770 C7DA            007DA 18959  2                        BNZ   CVABORT
 0025DE 1222/4780 720C_            18960  2                        IF    (R2,NZ),'SET CPFQUIET'
 0025E8 9640 BD5A      00D5A       18985  2                        SET   CPFERROR
 0025EC 47F0 775E            02B3A 18991  2                        B     SENDDONE            Try next account (if any)
 0025F0                            18992  1                      END
                                   18996  1
 0025F0 47F0 712C            02508 18997  1                      B     MAILBSLP            Try adding mail to this file
 0025F4                            18998                       END
                                   19002                       ¿þþþþþþþþþþþþþþþþþþþþþþþþþþþþþþþþÜ
                                   19003                       Ÿ  Open MAIL/MAILDEFQ data set.  Ÿ
                                   19004                       ¾þþþþþþþþþþþþþþþþþþþþþþþþþþþþþþþþ»
 0025F4 58E0 78D4/0DEE       02CB0 19005                       VCALL EXTOPEN             Open data set, etc.
 0025FA 182F                       19009                       LR    R2,R15
                                   19010
 0025FC 1222/4780 72F4             19011                       IF    (R2,NZ),BEGIN       Error...
 002602 5920 78D8/47D0_      02CB4 19025  1                      IF    (R2,GT,4),BEGIN     Worse than just not found...
 00260A 4110 7A0A/4100_      02DE6 19042  2                        TSEG  'Mail not sent to '
 00261C 41F0 5000            00000 19060  2                        LA    R15,MID
 002620 58E0 7850/0DEE       02C2C 19061  2                        ACALL SEGMID
 002626 58E0 78DC/0DEE       02CB8 19065  2                        ACALL MLOGERR             Log the error
 00262C 1B00                       19069  2                        CLEAR R0
 00262E 5920 78E0/4770_      02CBC 19073  2                        IF   (R2,EQ,RTNNOACS),'SETMSG ".  Access not permitted."'
 00263E 5920 78E4/4770_      02CC0 19099  2                        IF (R2,EQ,RTNVOLNA),'SETMSG ". Mailbox volume not available."'
 00264E 5920 78E8/4770_      02CC4 19125  2                        IF   (R2,EQ,RTNBDVOL),'SETMSG ".  Invalid volume."'
 00265E 1200/4770 72B0             19151  2                        IF   (R0,Z),BEGIN         Display error code...
 002664 4110 7972/4100_      02D4E 19165  3                          TSEG  '.  Error code '
 002676 1812/1B00/41F0_            19183  3                          TNUM  (R2)
 002684 4110 7A3A/4100_      02E16 19205  3                          SETMSG '.'
 00268C                            19209  2                        END
1MAIL     (MAIL4072) (12:48) (15MAR04) MAIL and SEND Commands                                                               Page   51
0Current Usings:  (MID,R5) (MAILWA,R6) (*,R7) (SENDWA-(4+36),R8) (CP,R11) (CV,R12)
0Loc    Object Code    Addr1 Addr2  Stmt Lv Lineno    Source Statement           (Hibal 5, Asmedit 3.3)  HLASM R4.0  2004/03/15 12.48
+___    ______ ____    _____ _____  ____ __ ______    ______ _________
0                                  19213  2
 00268C 1B22                       19214  2                        CLEAR R2
 00268E 9140 BD55/47E0_00D55       19218  2                        IF    CPFQUIET,'LA R2,1; CLEAR CPFQUIET'
 00269E 41F0 B050/58E0_      00050 19246  2                        TSEG  (R1),(R0)
 0026A8 D207 B886 77FC 00886 02BD8 19270  2                        MVC   CPERRID,=CL8'MLNOTSNT'
 0026AE 1B00/41F0 B050_            19271  2                        TWRITE
 0026BA 4770 C7DA            007DA 19296  2                        BNZ   CVABORT
 0026BE 1222/4780 72EC_            19297  2                        IF    (R2,NZ),'SET CPFQUIET'
 0026C8 9640 BD5A      00D5A       19322  2                        SET   CPFERROR
 0026CC 47F0 775E            02B3A 19328  2                        B     SENDDONE            Try next account (if any)
 0026D0                            19329  1                      END
 0026D0                            19333                       END
 0026D0 72F8/47F0 733A 026D0 02600 19337                       ELSE  BEGIN               Process old data...
 0026D4 180D                       19348  1                      LR    R0,R13
 0026D6 4110 775E            02B3A 19349  1                      LA    R1,SENDDONE
 0026DA 9008 6534            00534 19350  1                      STM   R0,R8,MWAREGS       Save regs in case of abort
 0026DE 9200 BD88      00D88       19351  1                      CLEAR CPFRDRNG
 0026E2 9680 BD88      00D88       19358  1                      SET   CPFEXPRG            Set explicit range
 0026E6 9602 BD88      00D88       19364  1                      SET   CPFSOME             (Avoids "No lines" message)
 0026EA D703 BD90 BD90 00D90 00D90 19370  1                      CLEAR CPFSLN              Set range
 0026F0 D203 BD94 C15C 00D94 0015C 19377  1                      MVC   CPLSLN,CVMAXLNO     ... to ALL
 0026F6 58F0 77D4            02BB0 19378  1                      L     R15,MAILWRKX
 0026FA 58E0 78F0/0DEE       02CCC 19379  1                      VCALL DESPOT              (Co-routine is MAILWRKX)
 002700 4780 7336/41F0_      02712 19383  1                      IF    NZ,'TCLEAR; B CVNOACTN'
 002712 9620 BD56      00D56       19414  1                      SET   CPFNOCAT            Don't look in the catalog again
 002716                            19420                       END
 002716 9180 B8AA/47E0_008AA       19424                       IF    CPRFEXT,'VCALL EXTCLOSE'  (Enq will remain)
                                   19448
 002724 9640 BD51      00D51       19449              MAILREWR SET   CPLFLG2.CPFSCRTC    Ok to replace
 002728 D703 BD9C BD9C 00D9C 00D9C 19457                       CLEAR CPLRCL              Edit format
 00272E 1B00/58F0 78FC_            19464                       DOPEN 0,=A(MAILSIZE),SAVE  Now open for output
 00273E 4780 7492            0286E 19477                       IF    NZ,BEGIN
 002742 182F                       19488  1                      LR    R2,R15              Save return code
                                   19489  1                      ¿þþþþþþþþþþþþþþþþþþþþþþþþþþþþþþþþþþþþþþþþþþþþþÜ
                                   19490  1                      Ÿ  Disk is out of space, move the mail file.  Ÿ
                                   19491  1                      ¾þþþþþþþþþþþþþþþþþþþþþþþþþþþþþþþþþþþþþþþþþþþþþ»
 002744 5920 7904/4770_      02CE0 19492  1                      IF    (R2,EQ,RTNNOSPC),BEGIN  No space...
 00274C D605 BEBE BEBE_00EBE 00EBE 19509  2                        IF    (DSNBADV,Z),'MVC DSNBADV,DSNON6'  Save bad disk name
 00275C 41F0 0001/4AF0_      00001 19531  2                        INCR  R15,DSNVOLCT        Count the number of attempts
 002768 59F0 7908/4720_      02CE4 19537  2                        IF    (R15,GT,5),EXIT     Too many retries, forget it
 002770 D727 BE90 BE90 00E90 00E90 19557  2                        CLEAR DSNON               Try again
 002776 94DF BD56      00D56       19564  2                        CLEAR CPFNOCAT            We must use catalog
 00277A 9608 BD56      00D56       19571  2                        SET   CPFRECAT            Recatalog
 00277E 47F0 7348            02724 19577  2                        B     MAILREWR
 002782                            19578  1                      END
                                   19582  1                      ¿þþþþþþþþþþþþþþþþþþþþþþþþþþþþþþþþþþþþþþþþþþþþÜ
                                   19583  1                      Ÿ  Write out "Mail not sent" error message.  Ÿ
                                   19584  1                      ¾þþþþþþþþþþþþþþþþþþþþþþþþþþþþþþþþþþþþþþþþþþþþ»
 002782 41F0 B050/58E0_      00050 19585  1                      TCLEAR
 00278C 4110 7A0A/4100_      02DE6 19599  1                      TSEG  'Mail not sent to '
 00279E 41F0 5000            00000 19617  1                      LA    R15,MID
 0027A2 58E0 7850/0DEE       02C2C 19618  1                      ACALL SEGMID
 0027A8 58E0 78DC/0DEE       02CB8 19622  1                      ACALL MLOGERR             Log the error
 0027AE 1B00                       19626  1                      CLEAR R0
1MAIL     (MAIL4072) (12:48) (15MAR04) MAIL and SEND Commands                                                               Page   52
0Current Usings:  (MID,R5) (MAILWA,R6) (*,R7) (SENDWA-(4+36),R8) (CP,R11) (CV,R12)
0Loc    Object Code    Addr1 Addr2  Stmt Lv Lineno    Source Statement           (Hibal 5, Asmedit 3.3)  HLASM R4.0  2004/03/15 12.48
+___    ______ ____    _____ _____  ____ __ ______    ______ _________
00027B0 1222/47B0 73E2_            19630  1                      IF    (R2,NEG),'SETMSG ".  Mail not edit format."'
 0027BE 5920 790C/4770_      02CE8 19653  1                      IF  (R2,EQ,RTNOVSP),'SETMSG ".  User''s disk space exceeded."'
 0027CE 5920 78E0/4770_      02CBC 19679  1                      IF    (R2,EQ,RTNNOACS),'SETMSG ".  Access not permitted."'
 0027DE 5920 78E4/4770_      02CC0 19705  1                      IF (R2,EQ,RTNVOLNA),'SETMSG ". Mailbox volume not available."'
 0027EE 5920 7904/4770_      02CE0 19731  1                      IF    (R2,EQ,RTNNOSPC),'SETMSG ".  No space after scratch."'
 0027FE 5920 78E8/4770_      02CC4 19757  1                      IF    (R2,EQ,RTNBDVOL),'SETMSG ".  Invalid volume."'
 00280E 1200/4770 7460             19783  1                      IF   (R0,Z),BEGIN         Display error code...
 002814 4110 7972/4100_      02D4E 19797  2                        TSEG  '.  Error code '
 002826 1812/1B00/41F0_            19815  2                        TNUM  (R2)
 002834 4110 7A3A/4100_      02E16 19837  2                        SETMSG '.'
 00283C                            19841  1                      END
 00283C 1B22                       19845  1                      CLEAR R2
 00283E 9140 BD55/47E0_00D55       19849  1                      IF    CPFQUIET,'LA R2,1; CLEAR CPFQUIET'
 00284E 41F0 B050/58E0_      00050 19877  1                      TSEG  (R1),(R0),CR
 002858 4770 C7DA            007DA 19901  1                      BNZ   CVABORT
 00285C 1222/4780 748A_            19902  1                      IF    (R2,NZ),'SET CPFQUIET'
 002866 9640 BD5A      00D5A       19927  1                      SET   CPFERROR
 00286A 47F0 775E            02B3A 19933  1                      B     SENDDONE            Try next account (if any)
 00286E                            19934                       END
                                   19938
 00286E 4120 0002            00002 19939                       LA    R2,2                Assume edit save
 002872 5830 BD9C            00D9C 19940                       L     R3,CPLRCL           Get lrecl
 002876 1233                       19941                       LTR   R3,R3               Is it edit or fixed
 002878 4780 74A8            02884 19942                       BZ    ROPENN2             Br if edit
 00287C 0630                       19943                       DECR  R3                  Set lrecl for ex moves
 00287E 5030 BD64            00D64 19945                       ST    R3,CPNREC           Put in nrec
 002882 1B22                       19946                       CLEAR R2                  Set displacement for fixed
 002884 5010 BDD8            00DD8 19950              ROPENN2  ST    R1,CPDRED           Save external I/O buff addr
 002888 5000 BD68            00D68 19951                       ST    R0,CPRCSZ           Save output record size
 00288C 1A12                       19952                       AR    R1,R2               Point to addr for first text byte
 00288E 5010 BD6C            00D6C 19953                       ST    R1,CPNXAD           Save
 002892 5020 BD70            00D70 19954                       ST    R2,CPNWCT           Into current count
                                   19955
 002896 D703 65D8 65D8 005D8 005D8 19956                       CLEAR MWAWLNO             Init lineno
                                   19963
 00289C 4110 6622            00622 19964                       LA    R1,MWAMDIR          Old mail dir
 0028A0 1BFF                       19965                       CLEAR R15
 0028A2 58E0 7914/0DEE       02CF0 19969                       ACALL SAVEDIR
                                   19973
 0028A8 4110 65E2            005E2 19974                       LA    R1,MWAMNEW          New mail dir
 0028AC 41F0 0080            00080 19975                       LA    R15,L'SDIRFADD
 0028B0 58E0 7914/0DEE       02CF0 19976                       ACALL SAVEDIR
                                   19980              *
                                   19981              *                                  FINAL WRITE REMOVED BY CH, 05/91
                                   19982              *        CLEAR R15                 Do final write
                                   19983              *        VCALL EXTWRITE
                                   19984              *
 0028B6 58E0 78F8/0DEE       02CD4 19985                       VCALL EXTCLOSE
 0028BC 12FF/4780 752E             19989                       IF    (R15,NZ),BEGIN      Error doing close...
 0028C2 1B22                       20003  1                      CLEAR R2
 0028C4 9140 BD55/47E0_00D55       20007  1                      IF    CPFQUIET,'LA R2,1; CLEAR CPFQUIET'
 0028D4 4110 781C/4100_      02BF8 20035  1                      TSEG  'Mail not sent, error mailing to '
 0028E6 41F0 5000            00000 20053  1                      LA    R15,MID
 0028EA 58E0 7850/0DEE       02C2C 20054  1                      ACALL SEGMID
1MAIL     (MAIL4072) (12:48) (15MAR04) MAIL and SEND Commands                                                               Page   53
0Current Usings:  (MID,R5) (MAILWA,R6) (*,R7) (SENDWA-(4+36),R8) (CP,R11) (CV,R12)
0Loc    Object Code    Addr1 Addr2  Stmt Lv Lineno    Source Statement           (Hibal 5, Asmedit 3.3)  HLASM R4.0  2004/03/15 12.48
+___    ______ ____    _____ _____  ____ __ ______    ______ _________
00028F0 1B00/41F0 B050_            20058  1                      TWRITE
 0028FC 1222/4780 752A_            20083  1                      IF    (R2,NZ),'SET CPFQUIET'
 002906 47F0 775E            02B3A 20108  1                      B     SENDDONE            Try next account (if any)
 00290A                            20109                       END
 00290A 58E0 7918/0DEE       02CF4 20113                       VCALL DDEQ
                                   20117
 002910 184D/41D0 D1F8             20118                       XPUSH ,,L'KWR,PTR=R4
 USING  KWR,R4                     20121                       USING KWR,R4
 002916 D7FF 4000 4000_00000 00000 20130                       CLEAR KWR
 002922 D201 4003 522F 00003 0022F 20138                       MVC   KWRGRP,MIDXACCT+3   gg
 002928 D202 4000 522C 00000 0022C 20139                       MVC   KWRUSER,MIDXACCT    uuu
 00292E 1814/4100 0040_            20140                       KREAD KWR
 00293A 4130 000A            0000A 20153                       LA    R3,10               Max KWRITE retry loop count
 00293E 1233/47D0 75AE_            20154                       WHILE ((R3,POS),AND,KWRIFL.KWRIFVAL),BEGIN
                                   20185  1           *  Quick check to see if proper status bits are already set...
 00294C 9140 4036/47E0_00036       20186  1                      IF    (KWRSFL.KWRSFMAI,AND,(SENDQCNT,Z)),EXIT
                                   20220  1
 00295E 9640 4036      00036       20221  1                      SET   KWRSFL.KWRSFMAI     New mail waiting
 002962 D601 802A 802A_00002 00002 20228  1                      IF    (SENDQCNT,NZ),'SET KWRSFL.KWRSFMLQ'  Mail in Q-file
 002970 1814/4100 0080_            20256  1                      KWRITE KWR
 00297C 9140 41F4/4710_001F4       20269  1                      IF    KWRHFL.KWRHFUOK,EXIT
 002984 0630                       20288  1                      DECR  R3
 002986 47F0 7562            0293E 20290                       END
 00298A D7FF 4000 4000_00000 00000 20295                       CLEAR KWR
 002996 4BD0 79B8            02D94 20303                       XPOP  ,,L'KWR
 DROP   KWR,R4                     20305                       DROP  KWR
                                   20313
 00299A 4130 0064            00064 20314                       LA    R3,100              Dummy MILSERV rc -- nonotify
 00299E 9180 6001/47E0_00001       20315                       IF    MWAFNTFY,BEGIN      Notify...
                                   20330  1         C            IF    ((CPSGRP,EQ,MIDXACCT+3),AND,
 0029A6 D501 B3B7 522F_003B7 0022F        1                            (CPSUSER,EQ,MIDXACCT)),EXIT  It's us, nonotify
 0029BA 41F0 B050/58E0_      00050 20368  1                      TCLEAR
 0029C4 4110 7A3B/4100_      02E17 20382  1                      TSEG  'Mail received from '
                                   20400  1           *OLD-
                                   20401  1           *OLD-    Temporarily use the "gg.uuu" instead of our userid to
                                   20402  1           *OLD-      avoid confusion.
                                   20403  1           *OLD-
                                   20404  1           *OLD     IF    (CPUID,EQ,MWAFROM),BEGIN  It's our userid...
                                   20405  1           *OLD     IF    (MWANAME,NZ),'TSEG MWANAME,,TB; TSEG "<"'
                                   20406  1           *OLD     TSEG  CPSGRP
                                   20407  1           *OLD     TSEG  '.'
                                   20408  1           *OLD     TSEG  CPSUSER
                                   20409  1           *OLD     IF    (MWANAME,NZ),'TSEG ">"'
                                   20410  1           *OLD     END
                                   20411  1           *OLD
                                   20412  1           *OLD     ELSE  BEGIN               Otherwise, use what is given...
 0029D6 4110 6051/4100_      00051 20413  1                      SETMSG MWAFROM             userid
 0029DE 58E0 7920/0DEE       02CFC 20427  1                      VCALL LRTRIM
 0029E4 D64F 62A9 62A9_002A9 002A9 20431  1                      IF    (MWANAME,NZ),BEGIN
 0029EE 9001 D000/41D0_      00000 20447  2                        XPUSH R0,R1
 0029F6 4110 62A9/4100_      002A9 20450  2                        TSEG  MWANAME,,TB
 002A08 4110 7A4E/4100_      02E2A 20478  2                        TSEG  '<'
 002A1A 4BD0 79BA/9801_      02D96 20496  2                        XPOP  R0,R1
 002A22 41F0 B050/58E0_      00050 20499  2                        TSEG  (R1),(R0)
1MAIL     (MAIL4072) (12:48) (15MAR04) MAIL and SEND Commands                                                               Page   54
0Current Usings:  (MID,R5) (MAILWA,R6) (*,R7) (SENDWA-(4+36),R8) (CP,R11) (CV,R12)
0Loc    Object Code    Addr1 Addr2  Stmt Lv Lineno    Source Statement           (Hibal 5, Asmedit 3.3)  HLASM R4.0  2004/03/15 12.48
+___    ______ ____    _____ _____  ____ __ ______    ______ _________
0002A2C 4110 7A4F/4100_      02E2B 20523  2                        SETMSG '>'
 002A34                            20527  1                      END
 002A34 41F0 B050/58E0_      00050 20531  1                      TSEG  (R1),(R0)
                                   20555  1           *OLD     END
                                   20556  1           *
 002A3E D6C7 62F9 62F9_002F9 002F9 20557  1                      IF    (MWATITLE,NZ),BEGIN  Subject...
 002A48 4110 79BC/4100_      02D98 20573  2                        TSEG  ': '
 002A5A 4110 62F9/4100_      002F9 20591  2                        TSEG  MWATITLE,,T
 002A6C                            20619  1                      END
 002A6C 5820 6524            00524 20623  1                      L     R2,MWANLINS
 002A70 0620                       20624  1                      DECR  R2
 002A72 1222/47D0 76CE             20626  1                      IF    (R2,POS),BEGIN
 002A78 4110 79BE/4100_      02D9A 20640  2                        TSEG  '; '
 002A8A 1812/1B00/41F0_            20658  2                        TNUM  (R2)
 002A98 4110 79C0/4100_      02D9C 20680  2                        TSEG  ' lines'
 002AAA                            20698  1                      END
                                   20702  1
 002AAA 58F0 B05C            0005C 20703  1                      L     R15,CPSEGLENF
 002AAE 180F                       20704  1                      LR    R0,R15
 002AB0 58E0 B070            00070 20705  1                      L     R14,CPSEGLOC
 002AB4 06F0/12FF/4740_            20706  1                      MOVE  R15,MWALINE,@R14
 002AC0 5000 D000/41D0_      00000 20744  1                      XPUSH R0
 002AC8 41F0 B050/58E0_      00050 20747  1                      TCLEAR
                                   20761  1
 002AD2 4BD0 79C6/5800_      02DA2 20762  1                      XPOP  R0
 002ADA 4110 6411            00411 20765  1                      SETMSG MWALINE,(R0)
 002ADE 41F0 522C            0022C 20778  1                      LA    R15,MIDXACCT
 002AE2 58E0 792C/0DEE       02D08 20779  1                      VCALL SENDMSG             Send TO messages
 002AE8 183F                       20783  1                      LR    R3,R15
 002AEA                            20784                       END
                                   20788
 002AEA D502 7A50 BD24_02E2C 00D24 20789                       IF    (CPCMNM,EQ,'MAI'),BEGIN
 002AF4 4110 7A53/4100_      02E2F 20806  1                      TSEG  'Mail sent to '
 002B06 41F0 5000            00000 20824  1                      LA    R15,MID
 002B0A 58E0 7850/0DEE       02C2C 20825  1                      ACALL SEGMID
 002B10 1B00                       20829  1                      CLEAR R0
 002B12 1233/4770 7744_            20833  1                      IF    (R3,Z),'SETMSG " (User notified)"'
 002B20 5930 78D8/4770_      02CB4 20856  1                      IF    (R3,EQ,4),'SETMSG " (User logged on but not notified)"'
 002B30 41F0 B050/58E0_      00050 20882  1                      TSEG  (R1),(R0)
 002B3A                            20906                       END
                                   20910
 002B3A 1B00/41F0 B050_            20911              SENDDONE TWRITE
 002B46 58E0 7930/0DEE       02D0C 20937                       PFREE PAR
 002B4C 58E0 7934/0DEE       02D10 20943                       PFREE PBR
                                   20949
 002B52 9180 B8AA/47E0_008AA       20950                       IF    CPRFEXT,BEGIN
 002B5A 58E0 78F8/0DEE       02CD4 20965  1                      VCALL EXTCLOSE
 002B60 58E0 7918/0DEE       02CF4 20969  1                      VCALL DDEQ
 002B66                            20973                       END
                                   20977
 002B66 1B22                       20978                       CLEAR R2
 002B68 4920 6624/47B0_      00624 20982                       WHILE (R2,LT,MWANDIR),BEGIN
 002B70 41F2 6626            00626 21001  1                      LA    R15,MWADIR(R2)
 002B74 1F00/BF03 F000_            21002  1                      PJUNK L2:@R15,TEMP
1MAIL     (MAIL4072) (12:48) (15MAR04) MAIL and SEND Commands                                                               Page   55
0Current Usings:  (MID,R5) (MAILWA,R6) (*,R7) (SENDWA-(4+36),R8) (CP,R11) (CV,R12)
0Loc    Object Code    Addr1 Addr2  Stmt Lv Lineno    Source Statement           (Hibal 5, Asmedit 3.3)  HLASM R4.0  2004/03/15 12.48
+___    ______ ____    _____ _____  ____ __ ______    ______ _________
0002B86 4120 2002            00002 21019  1                      LA    R2,@R2+2
 002B8A 47F0 778C            02B68 21020                       END
 002B8E D701 6624 6624_00624 00624 21025                       CLEAR MWANDIR,MWADIR
 002B9A D203 65D4 802C 005D4 00004 21037                       MVC   MWAWMIDP,SENDSMID
 002BA0 18D8/9808 D004_            21038                       PEND
 DROP   MID,R5
 DROP   SENDWA-(4+36),R8
 DROP   *,R7
                                   21068
 002BB0                            21069                       DS    0F
 002BB0 E4                         21070              MAILWRKX DC    AL1(DESRTRN+LXCATRTN+PREST+DESABORT)
 002BB1 00495C                     21071                       DC    AL3(MAILRTNX)
                                   21072
                                   21073                       QLTORG
1MAIL     (MAIL4072) (12:48) (15MAR04) MAIL and SEND Commands                                                               Page   56
0Current Usings:  (MAILWA,R6) (CP,R11) (CV,R12)
0Loc    Object Code    Addr1 Addr2  Stmt Lv Lineno    Source Statement           (Hibal 5, Asmedit 3.3)  HLASM R4.0  2004/03/15 12.48
+___    ______ ____    _____ _____  ____ __ ______    ______ _________
0                                  21158              ¿þþþþþþþþþþþþþþþþþþþþþþþþþþþþþþþþþþþþþþþþþþþþþþþþþþþþþþþþþþþþþþþþþþþþþÜ
                                   21159              Ÿ                                                                     Ÿ
                                   21160              Ÿ  SENDBAT -- Routine to mail the current item as a batch job.        Ÿ
                                   21161              Ÿ    (This is how intercpu mail is handled.)                          Ÿ
                                   21162              Ÿ                                                                     Ÿ
                                   21163              Ÿ    On entry:                                                        Ÿ
                                   21164              Ÿ      R15 - MID ptr                                                  Ÿ
                                   21165              Ÿ                                                                     Ÿ
                                                      ¾þþþþþþþþþþþþþþþþþþþþþþþþþþþþþþþþþþþþþþþþþþþþþþþþþþþþþþþþþþþþþþþþþþþþþ»
0000000                00000 00140 21166              SBATWA   RECORD BEGIN
 000000 00                         21174  1           SBATFLAG   FLAG
 SBATFLAG.SBATFQ   80 ONES         21178  1                      FLAG  SBATFQ              - QUIET originally specified
                                   21183  1
                                   21184  1           SBATCB     SEGCB
 000004 00                         21185  1 01-SEGCB +$$$SEGCB457   DS 0F
 SBATCBCOD.SBATCBS 01 EQ
 SBATCBCOD.SBATCBW 02 EQ
 SBATCBCOD.SBATCBC 03 EQ
 SBATCBCOD.SBATCBS 04 EQ
 SBATCBCOD.SBATCBO 05 EQ
 SBATCBCOD.SBATCBC 06 EQ
 SBATCBCOD.SBATCBM 07 EQ
 000005 00                         21260  1 01-SEGCB +           DC    X'00'               Reserved
 000006 0000                              1          +
 000008 00000000                   21261  1 01-SEGCB +SBATCBMAXF   DC  A(0)                Maximum buffer length
 00000C 00000000                   21262  1 01-SEGCB +SBATCBMRKF   DC  A(0)                Length at last mark
 000010 00000000                   21263  1 01-SEGCB +SBATCBLENF   DC  A(0)                Current length
 000014 00000000                   21264  1 01-SEGCB +SBATCBINDF   DC  A(0)                Overflow/indent count
 000018 00000000                   21265  1 01-SEGCB +SBATCBERR   DC   A(0)                Address of error recovery routine
 00001C 0000000000000000           21266  1 01-SEGCB +           DC    2F'0'               Reserved
 000024 00000000                   21267  1 01-SEGCB +SBATCBLOC   DC   A(0)                Location of buffer
 000028 00000000                   21268  1 01-SEGCB +SBATCBRTN   DC   A(0)                Processing routine
 00002C 0000000000000000           21269  1 01-SEGCB +           DC    4F'0'               Reserved
 00003C 00000000                   21270  1 01-SEGCB +SBATCBUSR   DC   A(0)                USER field
                                   21271  1 01-SEGCB +SBATCB     EQU   $$$SEGCB457,*-$$$SEGCB457,C'X'
                                   21272  1
 000040                            21273  1           SBATBUF    DS    XL256               Local SEG buffer
 000140                00140 00140 21274                       END
                                   21283              þþþþ
 002E42 50E0 D000/9008_      00000 21284              SENDBAT  PROC  SBATWA
 USING  *,R7
 USING  SBATWA-(4+36),R8
 002E5C 5860 BCA4            00CA4 21334                       L     R6,CPCWA
                                   21335                       WITH  (MAILWA,R6)
 002E60 185F                       21339                       LR    R5,R15
 USING  MID,R5                     21340                       WITH  (MID,R5)
                                   21353
 002E62 9200 8028      00000       21354                       CLEAR SBATFLAG
                                   21361
 002E66 9140 BD55/47E0_00D55       21362                       IF    CPFQUIET,'SET SBATFQ'  Remember QUIET
 002E72 9640 BD55      00D55       21388                       SET   CPFQUIET
                                   21394
 002E76 4110 8068/4100_      00040 21395                       SEGINIT SBATBUF,,SBATCB
1MAIL     (MAIL4072) (12:48) (15MAR04) MAIL and SEND Commands                                                               Page   57
0Current Usings:  (MID,R5) (MAILWA,R6) (*,R7) (SBATWA-(4+36),R8) (CP,R11) (CV,R12)
0Loc    Object Code    Addr1 Addr2  Stmt Lv Lineno    Source Statement           (Hibal 5, Asmedit 3.3)  HLASM R4.0  2004/03/15 12.48
+___    ______ ____    _____ _____  ____ __ ______    ______ _________
0002E88 4110 7820/4100_      0367C 21422                       SEG   'HOLD NONOTIFY '
                                   21439
 002E9A 4110 7858/4100_      036B4 21440                       SEG   'SYSAFF '
 002EAC 4110 51B9/4100_      001B9 21457                       SEGT  MIDXRELY            Send to relay host
                                   21485
 002EBE D701 65DC 65DC_005DC 005DC 21486                       CLEAR MWAWDIR,MWAWOFFS,MWAWHCNT  Init working dir ptrs
                                   21503
 002ED0 5810 804C/5800_      00024 21504                       OSCINIT L:SBATCBLOC,L:SBATCBLENF  RUN options
 002EDE 4110 70D0            02F2C 21522                       LA    R1,SBATHDR          (RUNMSG header subroutine)
 002EE2 41F0 7244            030A0 21523                       LA    R15,SBATRTN         (RUNMSG co-routine)
 002EE6 58E0 77B4/0DEE       03610 21524                       VCALL RUNMSG              Send message to JES
                                   21528
 002EEC 9180 8028/4710_00000       21529                       IF    ~SBATFQ,'CLEAR CPFQUIET'  Restore non-QUIET
                                   21556
 002EF8 D502 785F BD24_036BB 00D24 21557                       IF    (CPCMNM,EQ,'MAI'),BEGIN
 002F02 4110 7862/4100_      036BE 21574  1                      TSEG  'Mail sent to '
 002F14 41F0 5000            00000 21592  1                      LA    R15,MID
 002F18 58E0 77B8/0DEE       03614 21593  1                      ACALL SEGMID              Userid@Host
 002F1E                            21597                       END
 002F1E 18D8/9808 D004_            21601                       PEND
 DROP   MID,R5
 DROP   SBATWA-(4+36),R8
 DROP   *,R7
1MAIL     (MAIL4072) (12:48) (15MAR04) MAIL and SEND Commands                                                               Page   58
0Current Usings:  (MAILWA,R6) (CP,R11) (CV,R12)
0Loc    Object Code    Addr1 Addr2  Stmt Lv Lineno    Source Statement           (Hibal 5, Asmedit 3.3)  HLASM R4.0  2004/03/15 12.48
+___    ______ ____    _____ _____  ____ __ ______    ______ _________
0                                  21632              ¿þþþþþþþþþþþþþþþþþþþþþþþþþþþþþþþþþþþþþþþþþþþþþþþþþþþþþþþþþþþþþþþþþþþþþÜ
                                   21633              Ÿ                                                                     Ÿ
                                   21634              Ÿ  SBATHDR -- Local routine to seg Batmail header lines.              Ÿ
                                   21635              Ÿ                                                                     Ÿ
                                   21636              Ÿ  On entry:                                                          Ÿ
                                   21637              Ÿ    R15 - SEGCB ptr                                                  Ÿ
                                   21638              Ÿ                                                                     Ÿ
                                                      ¾þþþþþþþþþþþþþþþþþþþþþþþþþþþþþþþþþþþþþþþþþþþþþþþþþþþþþþþþþþþþþþþþþþþþþ»
0002F2C 50E0 D000/9008_      00000 21639              SBATHDR  PROC
 USING  *,R7
 002F46 5860 BCA4            00CA4 21678                       L     R6,CPCWA
                                   21679                       WITH  (MAILWA,R6)
                                   21683
 002F4A 5850 65D4            005D4 21684                       L     R5,MWAWMIDP
 USING  MID,R5                     21685                       WITH  (MID,R5)
                                   21698
 002F4E 184F                       21699                       LR    R4,R15              SEGCB ptr
                                   21700                       SEGDEF (R4)
                                   21701                       ¿þþþþþþþþþþþþþþþþþþþþþþþÜ
                                   21702                       Ÿ  Sender information.  Ÿ
                                   21703                       ¾þþþþþþþþþþþþþþþþþþþþþþþ»
 002F50 D6C7 6119 6119_00119 00119 21704                       IF    (MWAFROMH,NZ),BEGIN
 002F5A 4110 76A2/4100_      035E8 21720  1                      SEG   ';SENDER:'
 002F6A 4110 6119/4100_      00119 21735  1                      SEGT  MWAFROMH
 002F7A 1B00/18F4/58E0_            21761  1                      SEGWR
 002F84                            21783                       END
                                   21787                       ¿þþþþþþþþþþþþþþþþþþÜ
                                   21788                       Ÿ  Sender's name.  Ÿ
                                   21789                       ¾þþþþþþþþþþþþþþþþþþ»
 002F84 D64F 62A9 62A9_002A9 002A9 21790                       IF    (MWANAME,NZ),BEGIN
 002F8E 4110 7744/4100_      0368A 21806  1                      SEG   ';NAME:'
 002F9E 4110 62A9/4100_      002A9 21821  1                      SEGT  MWANAME
 002FAE 1B00/18F4/58E0_            21847  1                      SEGWR
 002FB8                            21869                       END
                                   21873                       ¿þþþþþþþþþþþþþþþþþþþþþþþÜ
                                   21874                       Ÿ  Notify information.  Ÿ
                                   21875                       ¾þþþþþþþþþþþþþþþþþþþþþþþ»
 002FB8 9140 6001/4710_00001       21876                       IF    ~MWAFSIL,BEGIN      Not silent...
 002FC0 4110 76AA/4100_      035F0 21891  1                      SEG   ';NOTIFY:'
 002FD0 4110 6051/4100_      00051 21906  1                      SEGT  MWAFROM             Our userid
 002FE0 4110 7785/4100_      036CB 21932  1                      SEG   '@'
 002FF0 4110 C00C/4100_      0000C 21947  1                      SEGT  CVMACHID            Machine name
 003000 1B00/18F4/58E0_            21973  1                      SEGWR
 00300A                            21995                       END
                                   21999                       ¿þþþþþþþþþþþþþþþþþþþþþþþþþÜ
                                   22000                       Ÿ  Mail title (subject).  Ÿ
                                   22001                       ¾þþþþþþþþþþþþþþþþþþþþþþþþþ»
 00300A D6C7 62F9 62F9_002F9 002F9 22002                       IF    (MWATITLE,NZ),BEGIN  Title...
 003014 4110 7786/4100_      036CC 22018  1                      SEG   ';TITLE:'
 003024 4110 62F9/4100_      002F9 22033  1                      SEGT  MWATITLE
 003034 1B00/18F4/58E0_            22059  1                      SEGWR
 00303E                            22081                       END
1MAIL     (MAIL4072) (12:48) (15MAR04) MAIL and SEND Commands                                                               Page   59
0Current Usings:  (MID,R5) (MAILWA,R6) (*,R7) (CP,R11) (CV,R12)
0Loc    Object Code    Addr1 Addr2  Stmt Lv Lineno    Source Statement           (Hibal 5, Asmedit 3.3)  HLASM R4.0  2004/03/15 12.48
+___    ______ ____    _____ _____  ____ __ ______    ______ _________
0                                  22085                       ¿þþþþþþþþþþþþþþþþþþþÜ
                                   22086                       Ÿ  Mail recipient.  Ÿ
                                   22087                       ¾þþþþþþþþþþþþþþþþþþþ»
 00303E 4110 76D6/4100_      0361C 22088                       SEG   ';TO:'
 00304E 4110 5056/4100_      00056 22103                       SEGT  MIDXUSNC            Userid
 00305E D64F 50A6 50A6_000A6 000A6 22129                       IF    (MIDXHONC,NZ),'SEG "@"; SEGT MIDXHONC'  @Host
 003088 1B00/18F4/58E0_            22191                       SEGWR
                                   22213
 003092 18D8/9808 D004_            22214                       PEND
 DROP   MID,R5
 DROP   *,R7
1MAIL     (MAIL4072) (12:48) (15MAR04) MAIL and SEND Commands                                                               Page   60
0Current Usings:  (MAILWA,R6) (CP,R11) (CV,R12)
0Loc    Object Code    Addr1 Addr2  Stmt Lv Lineno    Source Statement           (Hibal 5, Asmedit 3.3)  HLASM R4.0  2004/03/15 12.48
+___    ______ ____    _____ _____  ____ __ ______    ______ _________
0                                  22240              ¿þþþþþþþþþþþþþþþþþþþþþþþþþþþþþþþþþþþþþþþþþþþþþþþþþþþþþþþþþþþþþþþþþþþþþÜ
                                   22241              Ÿ                                                                     Ÿ
                                   22242              Ÿ  SBATRTN -- This routine gets the next line in the new mail         Ÿ
                                   22243              Ÿ    directory and returns it (unpressed).  R1 is zero if there       Ÿ
                                   22244              Ÿ    aren't any more lines.                                           Ÿ
                                   22245              Ÿ                                                                     Ÿ
                                   22246              Ÿ    This is a RUNMSG co-routine.                                     Ÿ
                                   22247              Ÿ                                                                     Ÿ
                                                      ¾þþþþþþþþþþþþþþþþþþþþþþþþþþþþþþþþþþþþþþþþþþþþþþþþþþþþþþþþþþþþþþþþþþþþþ»
00030A0 50E0 D000/9008_      00000 22248              SBATRTN  PROC
 USING  *,R7
 0030BA 5860 BCA4            00CA4 22287                       L     R6,CPCWA
                                   22288                       WITH  (MAILWA,R6)
                                   22292
 0030BE 4840 65DC            005DC 22293                       LH    R4,MWAWDIR          Working dir offset
 0030C2 4940 65E4/4750_      005E4 22294              SBATLP   IF    (R4,GE,MWANNEW),BEGIN  All done...
 0030CA 1B11                       22312  1                      CLEAR R1                  End of file
 0030CC                            22316                       END
                                   22320
 0030CC 7016/47F0 7080 030CC 030C8 22321                       ELSE  BEGIN               Get next line...
 0030D0 41F4 65E6            005E6 22332  1                      LA    R15,MWANEW(R4)
 0030D4 1F00/BF03 F000_            22333  1                      PGET  PAR,L2:@R15         Get page
                                   22346  1
 0030E0 4830 65DE            005DE 22347  1                      LH    R3,MWAWOFFS         Working page offset
 0030E4 48F0 9000            00000 22348  1                      LH    R15,@PAR
 0030E8 193F/4750 7046             22349  1                      IF    (R3,GE,R15),BEGIN   Next page...
 0030EE 4140 4002            00002 22364  2                        LA    R4,@R4+2
 0030F2 4040 65DC            005DC 22365  2                        STH   R4,MWAWDIR
 0030F6 D701 65DE 65DE 005DE 005DE 22366  2                        CLEAR MWAWOFFS            Reset page offset
 0030FC 47F0 7008            030C2 22373  2                        B     SBATLP
 003100                            22374  1                      END
                                   22378  1
 003100 41F3 9002            00002 22379  1                      LA    R15,@PAR+2(R3)      Pressed line ptr
 003104 4BF0 75D6            03690 22380  1                      SH    R15,=H'4'           Backup for fake lineno
                                   22381  1
 003108 1F22/4323 9002             22382  1                      LC    R2,@PAR+2(R3)       Pressed line length
 00310E 4133 2001            00001 22389  1                      LA    R3,@R2+1(R3)        Offset for the next line
 003112 4030 65DE            005DE 22390  1                      STH   R3,MWAWOFFS         Save new page offset
                                   22391  1
 003116 4110 6411            00411 22392  1                      LA    R1,MWALINE          Put unpressed line here
 00311A 58E0 756A/0DEE       03624 22393  1                      VCALL UNPRESS
 003120 D501 75D8 1000_03692 00000 22397  1                      IF    (@R1,EQ,'*N'),SBATLP  Skip mail header
 00312A D501 75DA 1000_03694 00000 22416  1                      IF    (@R1,EQ,'**'),'LA R1,@R1+1; DECR R0'
 00313A                            22440                       END
                                   22444
 00313A 9001 8004            00004 22445                       PRETURN (R0,R1)
 00313E 18F1                       22447                       LR    R15,R1              Set CC for caller
 003140 18D8/9808 D004_            22448                       PEND
 DROP   *,R7
1MAIL     (MAIL4072) (12:48) (15MAR04) MAIL and SEND Commands                                                               Page   61
0Current Usings:  (MAILWA,R6) (CP,R11) (CV,R12)
0Loc    Object Code    Addr1 Addr2  Stmt Lv Lineno    Source Statement           (Hibal 5, Asmedit 3.3)  HLASM R4.0  2004/03/15 12.48
+___    ______ ____    _____ _____  ____ __ ______    ______ _________
0                                  22469              ¿þþþþþþþþþþþþþþþþþþþþþþþþþþþþþþþþþþþþþþþþþþþþþþþþþþþþþþþþþþþþþþþþþþþþþÜ
                                   22470              Ÿ                                                                     Ÿ
                                   22471              Ÿ  SENDBIT -- Routine to mail the current item as a PRINT job for     Ÿ
                                   22472              Ÿ    JES.  This is how Bitnet mail is handled.                        Ÿ
                                   22473              Ÿ                                                                     Ÿ
                                   22474              Ÿ    On entry:                                                        Ÿ
                                   22475              Ÿ      R15 - MID ptr                                                  Ÿ
                                   22476              Ÿ                                                                     Ÿ
                                                      ¾þþþþþþþþþþþþþþþþþþþþþþþþþþþþþþþþþþþþþþþþþþþþþþþþþþþþþþþþþþþþþþþþþþþþþ»
0000000                00000 00140 22477              SBITWA   RECORD BEGIN
 000000 00                         22485  1           SBITFLAG   FLAG
 SBITFLAG.SBITFQ   80 ONES         22489  1                      FLAG  SBITFQ              - QUIET originally specified
                                   22494  1
                                   22495  1           SBITCB     SEGCB
 000004 00                         22496  1 01-SEGCB +$$$SEGCB487   DS 0F
 SBITCBCOD.SBITCBS 01 EQ
 SBITCBCOD.SBITCBW 02 EQ
 SBITCBCOD.SBITCBC 03 EQ
 SBITCBCOD.SBITCBS 04 EQ
 SBITCBCOD.SBITCBO 05 EQ
 SBITCBCOD.SBITCBC 06 EQ
 SBITCBCOD.SBITCBM 07 EQ
 000005 00                         22571  1 01-SEGCB +           DC    X'00'               Reserved
 000006 0000                              1          +
 000008 00000000                   22572  1 01-SEGCB +SBITCBMAXF   DC  A(0)                Maximum buffer length
 00000C 00000000                   22573  1 01-SEGCB +SBITCBMRKF   DC  A(0)                Length at last mark
 000010 00000000                   22574  1 01-SEGCB +SBITCBLENF   DC  A(0)                Current length
 000014 00000000                   22575  1 01-SEGCB +SBITCBINDF   DC  A(0)                Overflow/indent count
 000018 00000000                   22576  1 01-SEGCB +SBITCBERR   DC   A(0)                Address of error recovery routine
 00001C 0000000000000000           22577  1 01-SEGCB +           DC    2F'0'               Reserved
 000024 00000000                   22578  1 01-SEGCB +SBITCBLOC   DC   A(0)                Location of buffer
 000028 00000000                   22579  1 01-SEGCB +SBITCBRTN   DC   A(0)                Processing routine
 00002C 0000000000000000           22580  1 01-SEGCB +           DC    4F'0'               Reserved
 00003C 00000000                   22581  1 01-SEGCB +SBITCBUSR   DC   A(0)                USER field
                                   22582  1 01-SEGCB +SBITCB     EQU   $$$SEGCB487,*-$$$SEGCB487,C'X'
                                   22583  1
 000040                            22584  1           SBITBUF    DS    XL256               Local SEG buffer
 000140                00140 00140 22585                       END
                                   22594              þþþþ
 00314E 50E0 D000/9008_      00000 22595              SENDBIT  PROC  SBITWA
 USING  *,R7
 USING  SBITWA-(4+36),R8
 003168 5860 BCA4            00CA4 22645                       L     R6,CPCWA
                                   22646                       WITH  (MAILWA,R6)
 00316C 185F                       22650                       LR    R5,R15
 USING  MID,R5                     22651                       WITH  (MID,R5)
                                   22664
 00316E 9200 8028      00000       22665                       CLEAR SBITFLAG
                                   22672
 003172 9140 BD55/47E0_00D55       22673                       IF    CPFQUIET,'SET SBITFQ'  Remember QUIET
 00317E 9640 BD55      00D55       22699                       SET   CPFQUIET
                                   22705
 003182 4110 8068/4100_      00040 22706                       SEGINIT SBITBUF,,SBITCB
1MAIL     (MAIL4072) (12:48) (15MAR04) MAIL and SEND Commands                                                               Page   62
0Current Usings:  (MID,R5) (MAILWA,R6) (*,R7) (SBITWA-(4+36),R8) (CP,R11) (CV,R12)
0Loc    Object Code    Addr1 Addr2  Stmt Lv Lineno    Source Statement           (Hibal 5, Asmedit 3.3)  HLASM R4.0  2004/03/15 12.48
+___    ______ ____    _____ _____  ____ __ ______    ______ _________
0003194 9140 6001/47E0_00001       22733                       IF    MWAFSIL,'SEG "FORMS=QUIET "'
 0031AE 4110 756B/4100_      036D3 22770                       SEG   'WRAP=80 SYSOUT=E TO "'
 0031C0 4110 50F6/4100_      000F6 22787                       SEGT  MIDXUSER            Userid
 0031D2 4110 7563/4100_      036CB 22815                       SEG   '@'                 @
 0031E4 4110 5146/4100_      00146 22832                       SETMSG MIDXHOST            Host
 0031EC 58E0 74CC/0DEE       03634 22846                       VCALL LRTRIM
 0031F2 5900 74D0/4750_      03638 22850                       IF    (R0,GE,8),BEGIN     Check for ".BITNET#" suffix...
 0031FA 18F1                       22867  1                      LR    R15,R1
 0031FC 1AF0                       22868  1                      AR    R15,R0
 0031FE 4BF0 752E            03696 22869  1                      SH    R15,=H'8'           Last 8 chars
 003202 D507 7490 F000_035F8 00000 22870  1                      IF    (@R15,EQ,'.BITNET#'),'DECR R0'  Just use ".BITNET"
 00320E                            22893                       END
 00320E 41F0 802C/58E0_      00004 22897                       SEG   (R1),(R0)
 003218 4110 7530/4100_      03698 22920                       SEG   '" SENDER "'
                                   22937                       ¿þþþþþþþþþþþþþþþþþþþþþþþþþþþþÜ
                                   22938                       Ÿ  Quote the sender string.  Ÿ
                                   22939                       ¾þþþþþþþþþþþþþþþþþþþþþþþþþþþþ»
 00322A 4110 6119/4100_      00119 22940                       SETMSG MWAFROMH            Sender
 003232 58E0 74D4/0DEE       0363C 22954                       VCALL RTRIM
 003238 1831                       22958                       LR    R3,R1
 00323A 1820                       22959                       LR    R2,R0
                                   22960
 00323C 1222/47D0 710C             22961                       WHILE (R2,POS),BEGIN
 003242 1813/4100 0001_            22977  1                      SEG   @R3,1
 003252 957F 3000/4770_00000       23006  1                      IF    (@R3,EQ,'"'),'SEG @R3,1'  Double the quote
 00326A 4130 3001            00001 23056  1                      LA    R3,@R3+1
 00326E 0620                       23057  1                      DECR  R2
 003270 47F0 70D4            0323C 23059                       END
                                   23064
 003274 4110 7580/4100_      036E8 23065                       SEG   '"'
                                   23082
 003286 D701 65DC 65DC_005DC 005DC 23083                       CLEAR MWAWDIR,MWAWOFFS,MWAWHCNT  Init working dir ptrs
                                   23100
 003298 5810 804C/5800_      00024 23101                       OSCINIT L:SBITCBLOC,L:SBITCBLENF  PRINT command options
 0032A6 1B00                       23119                       CLEAR R0                  (Options)
 0032A8 4110 7198            03300 23123                       LA    R1,SBITHDR          (Header subroutine)
 0032AC 41F0 73D0            03538 23124                       LA    R15,SBITRTN         (Co-routine)
 0032B0 58E0 74D8/0DEE       03640 23125                       VCALL PRINTMSG            Send message to JES
                                   23129
 0032B6 9180 8028/4710_00000       23130                       IF    ~SBITFQ,'CLEAR CPFQUIET'  Restore non-QUIET
                                   23157
 0032C2 4110 7556/4100_      036BE 23158                       SETMSG 'Mail sent to '
 0032CA 9120 BD5C/47E0_00D5C       23162                       IF    CPFBDEST,'SETMSG "Mail not sent to "; CLEAR CPFBDEST'
 0032DE 41F0 B050/58E0_      00050 23193                       TSEG  (R1),(R0)
 0032E8 41F0 5000            00000 23217                       LA    R15,MID
 0032EC 58E0 74AC/0DEE       03614 23218                       ACALL SEGMID              Userid@Host
 0032F2 18D8/9808 D004_            23222                       PEND
 DROP   MID,R5
 DROP   SBITWA-(4+36),R8
 DROP   *,R7
1MAIL     (MAIL4072) (12:48) (15MAR04) MAIL and SEND Commands                                                               Page   63
0Current Usings:  (MAILWA,R6) (CP,R11) (CV,R12)
0Loc    Object Code    Addr1 Addr2  Stmt Lv Lineno    Source Statement           (Hibal 5, Asmedit 3.3)  HLASM R4.0  2004/03/15 12.48
+___    ______ ____    _____ _____  ____ __ ______    ______ _________
0                                  23253              ¿þþþþþþþþþþþþþþþþþþþþþþþþþþþþþþþþþþþþþþþþþþþþþþþþþþþþþþþþþþþþþþþþþþþþþÜ
                                   23254              Ÿ                                                                     Ÿ
                                   23255              Ÿ  SBITHDR -- Local routine to seg Bitnet mail header lines.          Ÿ
                                   23256              Ÿ                                                                     Ÿ
                                   23257              Ÿ    On entry:                                                        Ÿ
                                   23258              Ÿ      R15 - SEGCB ptr                                                Ÿ
                                   23259              Ÿ                                                                     Ÿ
                                                      ¾þþþþþþþþþþþþþþþþþþþþþþþþþþþþþþþþþþþþþþþþþþþþþþþþþþþþþþþþþþþþþþþþþþþþþ»
0003300 50E0 D000/9008_      00000 23260              SBITHDR  PROC
 USING  *,R7
 00331A 5860 BCA4            00CA4 23299                       L     R6,CPCWA
                                   23300                       WITH  (MAILWA,R6)
                                   23304
 00331E 5850 65D4            005D4 23305                       L     R5,MWAWMIDP
 USING  MID,R5                     23306                       WITH  (MID,R5)
                                   23319
 003322 184F                       23320                       LR    R4,R15
                                   23321                       SEGDEF (R4)
                                   23322
 003324 9110 6001/4710_00001       23323                       IF    MWAFNHDR,SBHEXIT    Don't send our mail header
                                   23341                       ¿þþþþþþþþþþþþþþÜ
                                   23342                       Ÿ  DATE line.  Ÿ
                                   23343                       ¾þþþþþþþþþþþþþþ»
 00332C 4110 732A/4100_      03644 23344                       SEG   '1Date:      '
 00333C 18FD/41D0 D020             23359                       XPUSH ,,32,PTR=R15
 003342 58E0 7336/0DEE       03650 23362                       VCALL LOCALTOD            Current date
 003348 58E0 733A/0DEE       03654 23366                       VCALL FMTXDATE
 00334E 18F4/58E0 72EA_            23370                       SEG   (R1),(R0)           Formatted date
 003356 4BD0 7388            036A2 23391                       XPOP  ,,32
 00335A 1B00/18F4/58E0_            23393                       SEGWR
                                   23415                       ¿þþþþþþþþþþþþÜ
                                   23416                       Ÿ  TO line.  Ÿ
                                   23417                       ¾þþþþþþþþþþþþ»
 003364 4110 733E/4100_      03658 23418                       SEG   ' To:        '
                                   23433
 003374 1B33                       23434                       CLEAR R3                  Flag: no name
 003376 D64F 63C1 63C1_003C1 003C1 23438                       IF    (MWARNAME,NZ),BEGIN
 003380 4110 73CE/4100_      036E8 23454  1                      SEG   '"'
 003390 4110 63C1/4100_      003C1 23469  1                      SEGT  MWARNAME            Recipient's name
 0033A0 4110 73E0/4100_      036FA 23495  1                      SEG   '" <'
 0033B0 4130 0001            00001 23510  1                      LA    R3,1                Flag: name
 0033B4                            23511                       END
                                   23515
 0033B4 4110 50F6/4100_      000F6 23516                       SEGT  MIDXUSER            Userid
 0033C4 4110 73B1/4100_      036CB 23542                       SEG   '@'                 @
 0033D4 4110 5146/4100_      00146 23557                       SETMSG MIDXHOST
 0033DC 58E0 731A/0DEE       03634 23571                       VCALL LRTRIM
 0033E2 4B00 738A            036A4 23575                       SH    R0,=H'7'            Get rid of ".BITNET"
 0033E6 18F4/58E0 72EA_            23576                       SEG   (R1),(R0)           Host
 0033EE 1233/4780 70EA_            23597                       IF    (R3,NZ),'SEG ">"'   Ending bracket
 003404 1B00/18F4/58E0_            23631                       SEGWR
1MAIL     (MAIL4072) (12:48) (15MAR04) MAIL and SEND Commands                                                               Page   64
0Current Usings:  (MID,R5) (MAILWA,R6) (*,R7) (CP,R11) (CV,R12)
0Loc    Object Code    Addr1 Addr2  Stmt Lv Lineno    Source Statement           (Hibal 5, Asmedit 3.3)  HLASM R4.0  2004/03/15 12.48
+___    ______ ____    _____ _____  ____ __ ______    ______ _________
0                                  23653                       ¿þþþþþþþþþþþþþþÜ
                                   23654                       Ÿ  FROM line.  Ÿ
                                   23655                       ¾þþþþþþþþþþþþþþ»
 00340E 4110 734A/4100_      03664 23656                       SEG   ' From:      '
                                   23671
 00341E 1B33                       23672                       CLEAR R3                  Flag: no name
 003420 D64F 62A9 62A9_002A9 002A9 23676                       IF    (MWANAME,NZ),BEGIN
 00342A 4110 73CE/4100_      036E8 23692  1                      SEG   '"'
 00343A 4110 62A9/4100_      002A9 23707  1                      SEGT  MWANAME             Sender's name
 00344A 4110 73E0/4100_      036FA 23733  1                      SEG   '" <'
 00345A 4130 0001            00001 23748  1                      LA    R3,1                Flag: name
 00345E                            23749                       END
                                   23753                       ¿þþþþþþþþþþþþþþþþþþþþþþþþþþþþþþþþþþþþþþþþþþþþþþþþþþþþþþþþþþþþÜ
                                   23754                       Ÿ  The following code converts "user@forsythe.stanford.edu"  Ÿ
                                   23755                       Ÿ    back to "user@STANFORD.BITNET".                         Ÿ
                                   23756                       ¾þþþþþþþþþþþþþþþþþþþþþþþþþþþþþþþþþþþþþþþþþþþþþþþþþþþþþþþþþþþþ»
 00345E 182D/41D0 D0C8             23757                       XPUSH ,,L'MWAFROMH,PTR=R2
 003464 D2C7 2000 6119 00000 00119 23760                       MVC   @R2(L'MWAFROMH),MWAFROMH
 00346A 1812/4100 00C8             23761                       SETMSG (R2),L'MWAFROMH
 003470 58E0 731A/0DEE       03634 23775                       VCALL LRTRIM
 003476 58E0 7356/0DEE       03670 23779                       ACALL BITFIX
 00347C 18F4/58E0 72EE_            23783                       SEGT  (R1),(R0)           User@host
 003484 4BD0 738C            036A6 23805                       XPOP  ,,L'MWAFROMH
                                   23807
 003488 1233/4780 7184_            23808                       IF    (R3,NZ),'SEG ">"'
 00349E 1B00/18F4/58E0_            23842                       SEGWR
                                   23864                       ¿þþþþþþþþþþþþþþþþþþþþþþþþþþþþþþþþþþþþþþþþþþþþþþþþþþþþþþþþþþþÜ
                                   23865                       Ÿ  SUBJECT line.                                            Ÿ
                                   23866                       Ÿ     (Wrap text so that no lines are over 80 characters.)  Ÿ
                                   23867                       ¾þþþþþþþþþþþþþþþþþþþþþþþþþþþþþþþþþþþþþþþþþþþþþþþþþþþþþþþþþþþ»
 0034A8 D6C7 62F9 62F9_002F9 002F9 23868                       IF    (MWATITLE,NZ),BEGIN  We have a title...
 0034B2 4120 63C0            003C0 23884  1                      LA    R2,MWATITLE+L'MWATITLE-1   Text end address
 0034B6 4130 62F9            002F9 23885  1                      LA    R3,MWATITLE                Text start address
 0034BA 1923/47D0 71B4_            23886  1                      WHILE ((R2,GT,R3),AND,(@R2,EQ,' ')),'DECR R2'  Trim
 0034CE 1B23                       23926  1                      SR    R2,R3               Get trimmed
 0034D0 5E20 735A            03674 23927  1                      INCR  R2                    text length
 0034D4 4110 738E/4100_      036A8 23930  1                      SEG   ' Subject: '        Start header line
 0034E4 1222/47D0 7200             23945  1                      WHILE (R2,P),BEGIN
 0034EA 4110 7398/4100_      036B2 23961  2                        SEG   '  '                Leading blanks
 0034FA 1802                       23976  2                        LR    R0,R2               Copy text length
 0034FC 1813                       23977  2                        LR    R1,R3               Copy text address
 0034FE 5900 735E/47D0_      03678 23978  2                        CEIL  R0,69               Truncate length
 00350A 1B20                       23997  2                        SR    R2,R0               Decr remaining text length
 00350C 1A30                       23998  2                        AR    R3,R0               Incr remaining text pointer
 00350E 18F4/58E0 72FE_            23999  2                        SEGWR (R1),(R0)           Write line
 003516 47F0 71CA            034E4 24021  1                      END
 00351A                            24026                       END
                                   24030
 00351A 4110 73E4/4100_      036FE 24031                       SEGWR ' '
                                   24047
 00352A 18D8/9808 D004_            24048              SBHEXIT  PEND
 DROP   MID,R5
 DROP   *,R7
1MAIL     (MAIL4072) (12:48) (15MAR04) MAIL and SEND Commands                                                               Page   65
0Current Usings:  (MAILWA,R6) (CP,R11) (CV,R12)
0Loc    Object Code    Addr1 Addr2  Stmt Lv Lineno    Source Statement           (Hibal 5, Asmedit 3.3)  HLASM R4.0  2004/03/15 12.48
+___    ______ ____    _____ _____  ____ __ ______    ______ _________
0                                  24075              ¿þþþþþþþþþþþþþþþþþþþþþþþþþþþþþþþþþþþþþþþþþþþþþþþþþþþþþþþþþþþþþþþþþþþþþÜ
                                   24076              Ÿ                                                                     Ÿ
                                   24077              Ÿ  SBITRTN -- This routine gets the next line in the new mail         Ÿ
                                   24078              Ÿ    directory and returns it (unpressed).  R1 is zero if there       Ÿ
                                   24079              Ÿ    aren't any more lines.                                           Ÿ
                                   24080              Ÿ                                                                     Ÿ
                                   24081              Ÿ    This is a PRINTMSG co-routine.                                   Ÿ
                                   24082              Ÿ                                                                     Ÿ
                                                      ¾þþþþþþþþþþþþþþþþþþþþþþþþþþþþþþþþþþþþþþþþþþþþþþþþþþþþþþþþþþþþþþþþþþþþþ»
0003538 50E0 D000/9008_      00000 24083              SBITRTN  PROC
 USING  *,R7
 003552 5860 BCA4            00CA4 24122                       L     R6,CPCWA
                                   24123                       WITH  (MAILWA,R6)
                                   24127
 003556 4840 65DC            005DC 24128                       LH    R4,MWAWDIR          Working dir offset
 00355A 4940 65E4/4750_      005E4 24129              SBITLP   IF    (R4,GE,MWANNEW),BEGIN  All done...
 003562 1B11                       24147  1                      CLEAR R1                  End of file
 003564                            24151                       END
                                   24155
 003564 7016/47F0 7080 03564 03560 24156                       ELSE  BEGIN               Get next line...
 003568 41F4 65E6            005E6 24167  1                      LA    R15,MWANEW(R4)
 00356C 1F00/BF03 F000_            24168  1                      PGET  PAR,L2:@R15         Get page
                                   24181  1
 003578 4830 65DE            005DE 24182  1                      LH    R3,MWAWOFFS         Working page offset
 00357C 48F0 9000            00000 24183  1                      LH    R15,@PAR
 003580 193F/4750 7046             24184  1                      IF    (R3,GE,R15),BEGIN   Next page...
 003586 4140 4002            00002 24199  2                        LA    R4,@R4+2
 00358A 4040 65DC            005DC 24200  2                        STH   R4,MWAWDIR
 00358E D701 65DE 65DE 005DE 005DE 24201  2                        CLEAR MWAWOFFS            Reset page offset
 003594 47F0 7008            0355A 24208  2                        B     SBITLP
 003598                            24209  1                      END
                                   24213  1
 003598 41F3 9002            00002 24214  1                      LA    R15,@PAR+2(R3)      Pressed line ptr
 00359C 4BF0 713E            03690 24215  1                      SH    R15,=H'4'           Backup for fake lineno
                                   24216  1
 0035A0 1F22/4323 9002             24217  1                      LC    R2,@PAR+2(R3)       Pressed line length
 0035A6 4133 2001            00001 24224  1                      LA    R3,@R2+1(R3)        Offset for the next line
 0035AA 4030 65DE            005DE 24225  1                      STH   R3,MWAWOFFS         Save new page offset
                                   24226  1
 0035AE 4110 6411            00411 24227  1                      LA    R1,MWALINE          Put unpressed line here
 0035B2 58E0 70D2/0DEE       03624 24228  1                      VCALL UNPRESS
 0035B8 D501 7140 1000_03692 00000 24232  1                      IF    (@R1,EQ,'*N'),SBITLP  Skip mail header
 0035C2 D501 7142 1000_03694 00000 24251  1                      IF    (@R1,EQ,'**'),'LA R1,@R1+1; DECR R0'
 0035D2                            24275                       END
                                   24279
 0035D2 9001 8004            00004 24280                       PRETURN (R0,R1)
 0035D6 18F1                       24282                       LR    R15,R1              Set CC for caller
 0035D8 18D8/9808 D004_            24283                       PEND
 DROP   *,R7
                                   24303
                                   24304                       QLTORG
1MAIL     (MAIL4072) (12:48) (15MAR04) MAIL and SEND Commands                                                               Page   66
0Current Usings:  (MAILWA,R6) (CP,R11) (CV,R12)
0Loc    Object Code    Addr1 Addr2  Stmt Lv Lineno    Source Statement           (Hibal 5, Asmedit 3.3)  HLASM R4.0  2004/03/15 12.48
+___    ______ ____    _____ _____  ____ __ ______    ______ _________
0                                  24366              ¿þþþþþþþþþþþþþþþþþþþþþþþþþþþþþþþþþþþþþþþþþþþþþþþþþþþþþþþþþþþþþþþþþþþþþÜ
                                   24367              Ÿ                                                                     Ÿ
                                   24368              Ÿ  SENDGTE -- Routine to mail the current item as a PUNCH job for     Ÿ
                                   24369              Ÿ    JES.  This is how mail routed through gateways is handled.       Ÿ
                                   24370              Ÿ                                                                     Ÿ
                                   24371              Ÿ    On entry:                                                        Ÿ
                                   24372              Ÿ      R15 - MID ptr                                                  Ÿ
                                   24373              Ÿ                                                                     Ÿ
                                                      ¾þþþþþþþþþþþþþþþþþþþþþþþþþþþþþþþþþþþþþþþþþþþþþþþþþþþþþþþþþþþþþþþþþþþþþ»
0000000                00000 00080 24374              SGTEWA   RECORD BEGIN
 000000 00                         24382  1           SGTEFLAG   FLAG
 SGTEFLAG.SGTEFQ   80 ONES         24386  1                      FLAG  SGTEFQ              - QUIET originally specified
                                   24391  1
                                   24392  1           SGTECB     SEGCB
 000004 00                         24393  1 01-SEGCB +$$$SEGCB530   DS 0F
 SGTECBCOD.SGTECBS 01 EQ
 SGTECBCOD.SGTECBW 02 EQ
 SGTECBCOD.SGTECBC 03 EQ
 SGTECBCOD.SGTECBS 04 EQ
 SGTECBCOD.SGTECBO 05 EQ
 SGTECBCOD.SGTECBC 06 EQ
 SGTECBCOD.SGTECBM 07 EQ
 000005 00                         24468  1 01-SEGCB +           DC    X'00'               Reserved
 000006 0000                              1          +
 000008 00000000                   24469  1 01-SEGCB +SGTECBMAXF   DC  A(0)                Maximum buffer length
 00000C 00000000                   24470  1 01-SEGCB +SGTECBMRKF   DC  A(0)                Length at last mark
 000010 00000000                   24471  1 01-SEGCB +SGTECBLENF   DC  A(0)                Current length
 000014 00000000                   24472  1 01-SEGCB +SGTECBINDF   DC  A(0)                Overflow/indent count
 000018 00000000                   24473  1 01-SEGCB +SGTECBERR   DC   A(0)                Address of error recovery routine
 00001C 0000000000000000           24474  1 01-SEGCB +           DC    2F'0'               Reserved
 000024 00000000                   24475  1 01-SEGCB +SGTECBLOC   DC   A(0)                Location of buffer
 000028 00000000                   24476  1 01-SEGCB +SGTECBRTN   DC   A(0)                Processing routine
 00002C 0000000000000000           24477  1 01-SEGCB +           DC    4F'0'               Reserved
 00003C 00000000                   24478  1 01-SEGCB +SGTECBUSR   DC   A(0)                USER field
                                   24479  1 01-SEGCB +SGTECB     EQU   $$$SEGCB530,*-$$$SEGCB530,C'X'
                                   24480  1
 000040                            24481  1           SGTEBUF    DS    XL64                Local SEG buffer
 000080                00080 00080 24482                       END
                                   24491              þþþþ
 003700 50E0 D000/9008_      00000 24492              SENDGTE  PROC  SGTEWA
 USING  *,R7
 USING  SGTEWA-(4+36),R8
 00371A 5860 BCA4            00CA4 24542                       L     R6,CPCWA
                                   24543                       WITH  (MAILWA,R6)
 00371E 185F                       24547                       LR    R5,R15
 USING  MID,R5                     24548                       WITH  (MID,R5)
                                   24561
 003720 9200 8028      00000       24562                       CLEAR SGTEFLAG
                                   24569
 003724 9140 BD55/47E0_00D55       24570                       IF    CPFQUIET,'SET SGTEFQ'  Remember QUIET
 003730 9640 BD55      00D55       24596                       SET   CPFQUIET
                                   24602
 003734 4110 8068/4100_      00040 24603                       SEGINIT SGTEBUF,,SGTECB
1MAIL     (MAIL4072) (12:48) (15MAR04) MAIL and SEND Commands                                                               Page   67
0Current Usings:  (MID,R5) (MAILWA,R6) (*,R7) (SGTEWA-(4+36),R8) (CP,R11) (CV,R12)
0Loc    Object Code    Addr1 Addr2  Stmt Lv Lineno    Source Statement           (Hibal 5, Asmedit 3.3)  HLASM R4.0  2004/03/15 12.48
+___    ______ ____    _____ _____  ____ __ ______    ______ _________
0                                  24630                       ¿þþþþþþþþþþþþþþþþþþþþþþþþþþþþþþþþþþþþþþþþþþþþþÜ
                                   24631                       Ÿ  If test is set, make outgoing stuff held.  Ÿ
                                   24632                       ¾þþþþþþþþþþþþþþþþþþþþþþþþþþþþþþþþþþþþþþþþþþþþþ»
 003746 9104 5004/47E0_00004       24633                       IF    MIDXFTST,'SEG "HOLD "'
                                   24670
 003760 9140 6001/47E0_00001       24671                       IF    MWAFSIL,'SEG "FORMS=QUIET "'
 00377A 4110 7B6A/4100_      04284 24708                       SEG   'SYSOUT=E TO '
 00378C 4110 5196/4100_      00196 24725                       SEGT  MIDXGATE            Gateway address
                                   24753
 00379E D701 65DC 65DC_005DC 005DC 24754                       CLEAR MWAWDIR,MWAWOFFS,MWAWHCNT  Init working dir ptrs
                                   24771
 0037B0 5810 804C/5800_      00024 24772                       OSCINIT L:SGTECBLOC,L:SGTECBLENF  PUNCH command options
 0037BE 4100 0002            00002 24790                       LA    R0,2                Option is PUNCH
 0037C2 9110 5004/47E0_00004       24791                       IF    MIDXFBSMTP,'LA R0,3'  Option=3 if BSMTP
 0037CE 9108 5004/47E0_00004       24812                       IF    MIDXFSUNMAIL,'LA R0,4'  Option=4 if SUNMAIL
 0037DA 4110 715A            03874 24833                       LA    R1,SGTEHDR          (Header subroutine)
 0037DE 41F0 78EC            04006 24834                       LA    R15,SGTERTN         (Co-routine)
 0037E2 58E0 7B7E/0DEE       04298 24835                       VCALL PRINTMSG            Send message to JES
                                   24839
 0037E8 9180 8028/4710_00000       24840                       IF    ~SGTEFQ,'CLEAR CPFQUIET'  Restore non-QUIET
                                   24867
 0037F4 4110 7C01/4100_      0431B 24868                       TSEG  'Mail sent to '
 003806 41F0 5000            00000 24886                       LA    R15,MID
 00380A 58E0 7B82/0DEE       0429C 24887                       ACALL SEGMID              Userid@Host
 003810 1B00/41F0 B050_            24891                       TWRITE ,
                                   24916                       ¿þþþþþþþþþþþþþþþþþþþþþþþþþþþþþþþþþþþþþþþþþþþþþþþþþþþþþþþþþþþþþþÜ
                                   24917                       Ÿ  If BSMTP/SUNMAIL there may have been multiple recipients    Ÿ
                                   24918                       Ÿ  processed with mail item.  Look thru MID queue for flagged  Ÿ
                                   24919                       Ÿ  entries and write messages for them.                        Ÿ
                                   24920                       ¾þþþþþþþþþþþþþþþþþþþþþþþþþþþþþþþþþþþþþþþþþþþþþþþþþþþþþþþþþþþþþþ»
 00381C 9110 5004/47E0_00004       24921                       IF    MIDXFBSMTP,BEGIN    If BSMTP/SUNMAIL
 003824 5850 5000/1255_      00000 24936  1                      WHILE ('LT R5,MIDLINK',NZ),BEGIN
 00382E 9120 5005/47E0_00005       24954  2                        IF    MIDXFSNT,BEGIN      If sent with ths mail,
 003836 94DF 5005      00005       24969  3                          CLEAR MIDXFSNT            Reset flag
 00383A 4110 7C01/4100_      0431B 24976  3                          TSEG  'Mail sent to '
 00384C 41F0 5000            00000 24994  3                          LA    R15,MID
 003850 58E0 7B82/0DEE       0429C 24995  3                          ACALL SEGMID
 003856 1B00/41F0 B050_            24999  3                          TWRITE ,
 003862                            25024  2                        END
 003862 47F0 710A            03824 25028  1                      END
 003866                            25033                       END
                                   25037
 003866 18D8/9808 D004_            25038                       PEND
 DROP   MID,R5
 DROP   SGTEWA-(4+36),R8
 DROP   *,R7
1MAIL     (MAIL4072) (12:48) (15MAR04) MAIL and SEND Commands                                                               Page   68
0Current Usings:  (MAILWA,R6) (CP,R11) (CV,R12)
0Loc    Object Code    Addr1 Addr2  Stmt Lv Lineno    Source Statement           (Hibal 5, Asmedit 3.3)  HLASM R4.0  2004/03/15 12.48
+___    ______ ____    _____ _____  ____ __ ______    ______ _________
0                                  25069              ¿þþþþþþþþþþþþþþþþþþþþþþþþþþþþþþþþþþþþþþþþþþþþþþþþþþþþþþþþþþþþþþþþþþþþþÜ
                                   25070              Ÿ                                                                     Ÿ
                                   25071              Ÿ  SGTEHDR -- Local routine to seg BSMTP and ARPA header lines for    Ÿ
                                   25072              Ÿ    gateway mail transmission.                                       Ÿ
                                   25073              Ÿ                                                                     Ÿ
                                   25074              Ÿ    On entry:                                                        Ÿ
                                   25075              Ÿ      R15 - SEGCB ptr                                                Ÿ
                                   25076              Ÿ                                                                     Ÿ
                                                      ¾þþþþþþþþþþþþþþþþþþþþþþþþþþþþþþþþþþþþþþþþþþþþþþþþþþþþþþþþþþþþþþþþþþþþþ»
0000000                00000 00023 25077              SGTEHWA  RECORD BEGIN
 000000                            25085  1                      DS    F                   Reserved
 000004                            25086  1           SGTERCPT   DS    F                   Recipient counter
 000008 00                         25087  1           SGTEHWAF   FLAG
 SGTEHWAF.SGTEHFLN 80 ONES         25091  1                      FLAG  SGTEHFLN            'To' and 'cc' temp flag
 000009                            25096  1           SGTEHWTO   DS    CL2                 'To' or 'cc' text
 00000B                            25097  1           SGTEHWAH   DS    CL24                Local host name
 000023                00023 00023 25098                       END
                                   25107              þþþþ
 003874 50E0 D000/9008_      00000 25108              SGTEHDR  PROC  SGTEHWA
 USING  *,R7
 USING  SGTEHWA-(4+36),R8
 00388E 5860 BCA4            00CA4 25158                       L     R6,CPCWA
                                   25159                       WITH  (MAILWA,R6)
 003892 5850 65D4            005D4 25163                       L     R5,MWAWMIDP
 USING  MID,R5                     25164                       WITH  (MID,R5)
                                   25177
 003896 184F                       25178                       LR    R4,R15
                                   25179                       SEGDEF (R4)
                                   25180                       ¿þþþþþþþþþþþþþþþþþþþþþþþþþþþþþþþþþþþþþþþþþþþþþþþþÜ
                                   25181                       Ÿ  Set up local host name in appropriate format  Ÿ
                                   25182                       ¾þþþþþþþþþþþþþþþþþþþþþþþþþþþþþþþþþþþþþþþþþþþþþþþþ»
 003898 D217 8033 798A 0000B 04218 25183                       MVC   SGTEHWAH,=CL(L'SGTEHWAH)'Forsythe.Stanford.EDU'
 00389E 9110 C4C4/47E0_004C4       25184                       IF    CVFRLG,BEGIN
 0038A6 D217 8033 79A2 0000B 04230 25199  1                      MVC   SGTEHWAH,=CL(L'SGTEHWAH)'RLG.ORG'
 0038AC                            25200                       END
                                   25204
 0038AC 9110 5004/47E0_00004       25205                       IF    MIDXFBSMTP,BEGIN    BSMTP headers...
                                   25220  1                      ¿þþþþþþþþþþþþþþþþþþÜ
                                   25221  1                      Ÿ  Envelope lines  Ÿ
                                   25222  1                      ¾þþþþþþþþþþþþþþþþþþ»
 0038B4 4110 7A56/4100_      042E4 25223  1                      SEG   ' HELO '
 0038C4 4110 8033/4100_      0000B 25238  1                      SEGWR SGTEHWAH
                                   25264  1
 0038D4 4110 7A16/4100_      042A4 25265  1                      SEG   ' MAIL FROM:<'
                                   25280  1                      ¿þþþþþþþþþþþþþþþþþþþþþþþþþþþþþþþþþþþþþþþþþþþþþþþþþþþþþÜ
                                   25281  1                      Ÿ  Use specific return address if one was specified.  Ÿ
                                   25282  1                      ¾þþþþþþþþþþþþþþþþþþþþþþþþþþþþþþþþþþþþþþþþþþþþþþþþþþþþþ»
 0038E4 D6C7 61E1 61E1_001E1 001E1 25283  1                      IF    (MWARET,NZ),BEGIN   Use specific return address...
 0038EE 4110 61E1/4100_      001E1 25299  2                        SETMSG MWARET              Return address
 0038F6 58E0 7A22/0DEE       042B0 25313  2                        VCALL LRTRIM
 0038FC 5900 7A26/47D0_      042B4 25317  2                        IF    (R0,GT,64),BEGIN    It's too long...
 003904 9108 5004/4710_00004       25334  3                          IF    MIDXFSUNMAIL,EXIT   SUNet can handle long addresses
 00390C 1B00                       25352  3                          CLEAR R0                  Too long, use null addr
1MAIL     (MAIL4072) (12:48) (15MAR04) MAIL and SEND Commands                                                               Page   69
0Current Usings:  (MID,R5) (MAILWA,R6) (*,R7) (SGTEHWA-(4+36),R8) (CP,R11) (CV,R12)
0Loc    Object Code    Addr1 Addr2  Stmt Lv Lineno    Source Statement           (Hibal 5, Asmedit 3.3)  HLASM R4.0  2004/03/15 12.48
+___    ______ ____    _____ _____  ____ __ ______    ______ _________
000390E                            25356  2                        END
                                   25360  2
 00390E 18F4/58E0 79E6_            25361  2                        SEG   (R1),(R0)
 003916                            25382  1                      END
                                   25386  1                      ¿þþþþþþþþþþþþþþþþþþþþþþþþþþþþþþþþþþþþþþþþþþþþþþþþþþþþþþþþþþþþþþÜ
                                   25387  1                      Ÿ  Use our from address, being careful to change               Ÿ
                                   25388  1                      Ÿ    "Forsythe.Stanford.EDU" to "STANFORD.BITNET" so we don't  Ÿ
                                   25389  1                      Ÿ    confuse other Bitnet mailers.  This host name change is   Ÿ
                                   25390  1                      Ÿ    not done for our local 'sunmail' style of BSMTP.          Ÿ
                                   25391  1                      ¾þþþþþþþþþþþþþþþþþþþþþþþþþþþþþþþþþþþþþþþþþþþþþþþþþþþþþþþþþþþþþþ»
 003916 708C/47F0 70C8_03916 038EC 25392  1                      ELSEIF ~MIDXFSUNMAIL,BEGIN  BSMTP only...
 003922 182D/41D0 D0C8             25416  2                        XPUSH ,,L'MWAFROMH,PTR=R2
 003928 D2C7 2000 6119 00000 00119 25419  2                        MVC   @R2(L'MWAFROMH),MWAFROMH
 00392E 1812/4100 00C8             25420  2                        SETMSG (R2),L'MWAFROMH
 003934 58E0 7A22/0DEE       042B0 25434  2                        VCALL LRTRIM
 00393A 5900 7A26/47D0_      042B4 25438  2                        IF    (R0,GT,64),'CLEAR R0'  It's too long, use null addr
                                   25464  2
 003944 58E0 7A2A/0DEE       042B8 25465  2                        ACALL BITFIX
 00394A 18F4/58E0 7A02_            25469  2                        SEGT  (R1),(R0)           User@host
 003952 4BD0 7A5C            042EA 25491  2                        XPOP  ,,L'MWAFROMH
 003956                            25493  1                      END
                                   25497  1                      ¿þþþþþþþþþþþþþþþþþþþþþþþþþþþþþþþþþþþþþþþþþþþÜ
                                   25498  1                      Ÿ  For Sunmail, just use our from address.  Ÿ
                                   25499  1                      ¾þþþþþþþþþþþþþþþþþþþþþþþþþþþþþþþþþþþþþþþþþþþ»
 003956 70CC/47F0 70DC 03956 03920 25500  1                      ELSE  BEGIN               Sunmail...
 00395A 4110 6119/4100_      00119 25511  2                        SEGT  MWAFROMH            User@host
 00396A                            25537  1                      END
                                   25541  1
 00396A 4110 7A9A/4100_      04328 25542  1                      SEGWR '>'
                                   25558  1                      ¿þþþþþþþþþþþþþþþþþþþþþþþþþþþþþþþþþþþþþþþþþþþþþþþþþþþþþþþþþþþþþþþþþþÜ
                                   25559  1                      Ÿ  Generate 'RCPT TO' lines for each recipient with the same host  Ÿ
                                   25560  1                      ¾þþþþþþþþþþþþþþþþþþþþþþþþþþþþþþþþþþþþþþþþþþþþþþþþþþþþþþþþþþþþþþþþþþ»
 00397A 1835                       25561  1                      LR    R3,R5               Save current MID pointer
 00397C D703 802C 802C 00004 00004 25562  1                      CLEAR SGTERCPT            Clear recipient count
 003982 1255/4780 71CE             25569  1                      WHILE (R5,NZ),BEGIN       Loop through rest of MID queue
                                   25585  2         C              IF    (~MIDXFSKP,AND,                     If not skip,
 003988 9102 5004/4710_00004              2                              (MIDXHONC,EQ,MIDXHONC-MID(R3))),BEGIN  and host match,
 00399A 4100 0001/5E00_      00001 25617  3                          INCR  R0,SGTERCPT         Incr recipient counter
 0039A6 4110 7A5E/4100_      042EC 25623  3                          SEG   ' RCPT TO:<'        Internet address
 0039B6 4110 5056/4100_      00056 25638  3                          SEGT  MIDXUSNC
 0039C6 4110 7A9B/4100_      04329 25664  3                          SETMSG '%'
 0039CE D622 51B9 51B9_001B9 001B9 25668  3                          IF    (MIDXRELY,Z),'SETMSG "@"'  If not through relay...
 0039E0 18F4/58E0 79E6_            25693  3                          SEG   (R1),(R0)
 0039E8 4110 50A6/4100_      000A6 25714  3                          SEGT  MIDXHONC
 0039F8 D622 51B9 51B9_001B9 001B9 25740  3                          IF    (MIDXRELY,NZ),BEGIN   Need to add on relay node?
 003A02 4110 7A9C/4100_      0432A 25756  4                            SEG   '@'
 003A12 4110 51B9/4100_      001B9 25771  4                            SEGT  MIDXRELY            Set relay name
 003A22                            25797  3                          END
 003A22 4110 7A9A/4100_      04328 25801  3                          SEGWR '>'
 003A32 9602 5004      00004       25817  3                          SET   MIDXFSKP            Flag as already processed
 003A36 9620 5005      00005       25823  3                          SET   MIDXFSNT            FLag 'mail sent' msg needed
 003A3A                            25829  2                        END
 003A3A 9120 6001/47E0_00001       25833  2                        IF    (MWAFEMS,AND,~MWAFMINF),EXIT  ** Only 1 addr if EMS
 003A4A D503 7A2E 802C_042BC 00004 25865  2                        IF    (SGTERCPT,EQ,100),EXIT   ** LIMIT TO 100 RECIPIENTS **
1MAIL     (MAIL4072) (12:48) (15MAR04) MAIL and SEND Commands                                                               Page   70
0Current Usings:  (MID,R5) (MAILWA,R6) (*,R7) (SGTEHWA-(4+36),R8) (CP,R11) (CV,R12)
0Loc    Object Code    Addr1 Addr2  Stmt Lv Lineno    Source Statement           (Hibal 5, Asmedit 3.3)  HLASM R4.0  2004/03/15 12.48
+___    ______ ____    _____ _____  ____ __ ______    ______ _________
0003A54 5850 5000            00000 25886  2                        L     R5,MIDLINK          Chain to next id
 003A58 47F0 70F4            03982 25887  1                      END
                                   25892  1
 003A5C 4110 7A9D/4100_      0432B 25893  1                      SEGWR ' DATA'
 003A6C                            25909                       END
                                   25913                       ¿þþþþþþþþþþþþþþþþþþþþþþþþþþþþþþþþþþþþþþþþþþþþþÜ
                                   25914                       Ÿ  Now produce ARPA standard message header.  Ÿ
                                   25915                       ¾þþþþþþþþþþþþþþþþþþþþþþþþþþþþþþþþþþþþþþþþþþþþþ»
 003A6C 9110 6001/4710_00001       25916                       IF    MWAFNHDR,SGHEXIT    Don't send our mail header
                                   25934
 003A74 4110 7AA2/4100_      04330 25935                       SEG   ' Date:     '
 003A84 18FD/41D0 D020             25950                       XPUSH ,,32,PTR=R15
 003A8A 58E0 7A32/0DEE       042C0 25953                       VCALL LOCALTOD            Current date
 003A90 58E0 7A36/0DEE       042C4 25957                       VCALL FMTXDATE
 003A96 47F0 7216            03AA4 25961                       B     SKIPSQZ             For patching
 003A9A D20E 100C 100E 0000C 0000E 25962                       MVC   12(15,R1),14(R1)    Squeeze out century
 003AA0 5B00 7A3A            042C8 25963                       S     R0,=F'2'
 003AA4                            25964              SKIPSQZ  LABEL ,
 003AA4 18F4/58E0 79E6_            25966                       SEG   (R1),(R0)           Formatted date
 003AAC 4BD0 7A68            042F6 25987                       XPOP  ,,32
 003AB0 1B00/18F4/58E0_            25989                       SEGWR
                                   26011                       ¿þþþþþþþþþþþþþþþþÜ
                                   26012                       Ÿ  'From:' line  Ÿ
                                   26013                       ¾þþþþþþþþþþþþþþþþ»
 003ABA 5850 65D4            005D4 26014                       L     R5,MWAWMIDP         Get MID address
 003ABE 9108 5004/47E0_00004       26015                       IF    MIDXFSUNMAIL,BEGIN  SUNMAIL style...
 003AC6 4110 7AAD/4100_      0433B 26030  1                      SEG   ' From:     '
 003AD6 1B33                       26045  1                      CLEAR R3                  Flag: no name
 003AD8 D64F 62A9 62A9_002A9 002A9 26049  1                      IF    (MWANAME,NZ),BEGIN
 003AE2 4110 7AB8/4100_      04346 26065  2                        SEG   '"'
 003AF2 4110 62A9/4100_      002A9 26080  2                        SEGT  MWANAME             Sender's name
 003B02 4110 7AB8/4100_      04346 26106  2                        SEG   '"'
 003B12 4100 001E/18F4_      0001E 26121  2                        SEGCOL 30
 003B1E 4110 7AB9/4100_      04347 26139  2                        SEG   '<'
 003B2E 4130 0001            00001 26154  2                        LA    R3,1                Flag: name
 003B32                            26155  1                      END
                                   26159  1
 003B32 4110 6119/4100_      00119 26160  1                      SEGT  MWAFROMH            User@host
 003B42 1233/4780 72CA_            26186  1                      IF    (R3,NZ),'SEG ">"'
 003B58 1B00/18F4/58E0_            26220  1                      SEGWR
 003B62                            26242                       END
 003B62 72D8/47F0 7376 03B62 03AC4 26246                       ELSE  BEGIN               Batch style...
 003B66 4110 7AAD/4100_      0433B 26257  1                      SEG   ' From:     '
 003B76 D64F 62A9 62A9_002A9 002A9 26272  1                      IF    (MWANAME,NZ),BEGIN
 003B80 4110 7AB8/4100_      04346 26288  2                        SEG   '"'
 003B90 4110 62A9/4100_      002A9 26303  2                        SEGT  MWANAME             Sender's name
 003BA0 4110 7ABA/4100_      04348 26329  2                        SEG   '"  '
 003BB0                            26344  1                      END
 003BB0 4110 7AB9/4100_      04347 26348  1                      SEG   '<'
1MAIL     (MAIL4072) (12:48) (15MAR04) MAIL and SEND Commands                                                               Page   71
0Current Usings:  (MID,R5) (MAILWA,R6) (*,R7) (SGTEHWA-(4+36),R8) (CP,R11) (CV,R12)
0Loc    Object Code    Addr1 Addr2  Stmt Lv Lineno    Source Statement           (Hibal 5, Asmedit 3.3)  HLASM R4.0  2004/03/15 12.48
+___    ______ ____    _____ _____  ____ __ ______    ______ _________
0                                  26363  1                      ¿þþþþþþþþþþþþþþþþþþþþþþþþþþþþþþþþþþþþþþþþþþþþþþþþþþþþþþþþþÜ
                                   26364  1                      Ÿ  Copy host name and convert to Bitnet format if needed  Ÿ
                                   26365  1                      ¾þþþþþþþþþþþþþþþþþþþþþþþþþþþþþþþþþþþþþþþþþþþþþþþþþþþþþþþþþ»
 003BC0 182D/41D0 D0C8             26366  1                      XPUSH ,,L'MWAFROMH,PTR=R2
 003BC6 D2C7 2000 6119 00000 00119 26369  1                      MVC   @R2(L'MWAFROMH),MWAFROMH
 003BCC 1812/4100 00C8             26370  1                      SETMSG (R2),L'MWAFROMH
 003BD2 58E0 7A22/0DEE       042B0 26384  1                      VCALL LRTRIM
 003BD8 58E0 7A2A/0DEE       042B8 26388  1                      ACALL BITFIX
 003BDE 18F4/58E0 7A02_            26392  1                      SEGT  (R1),(R0)           User@host
 003BE6 4BD0 7A5C            042EA 26414  1                      XPOP  ,,L'MWAFROMH
                                   26416  1
 003BEA 4110 7A9A/4100_      04328 26417  1                      SEG   '>'
 003BFA 1B00/18F4/58E0_            26432  1                      SEGWR
 003C04                            26454                       END
                                   26458                       ¿þþþþþþþþþþþþþþþþþþþþþþþþþþþþþþÜ
                                   26459                       Ÿ  Build 'To: and 'cc:' lines  Ÿ
                                   26460                       ¾þþþþþþþþþþþþþþþþþþþþþþþþþþþþþþ»
 003C04 D201 8031 7A6A 00009 042F8 26461                       MVC   SGTEHWTO,=C'To'     Init header text
                                   26462
 003C0A                            26463              SGTEHRCP LOOP  BEGIN
                                   26470  1
 003C0A 947F 8030      00008       26471  1                      CLEAR SGTEHFLN            Clear first line sent flg
 003C0E 5850 6010            00010 26478  1                      L     R5,MWAMIDQH         Get MID queue head
                                   26479  1                      ¿þþþþþþþþþþþþþþþþþþþþþþþþþþþþþþþþþþþþþþþþþþþþþþþþþþþþþþþþþþþþÜ
                                   26480  1                      Ÿ  Special ugly EMS hacks (hopefully temporary).             Ÿ
                                   26481  1                      Ÿ                                                            Ÿ
                                   26482  1                      Ÿ  If EMS mail with MAILINFO option, and there are           Ÿ
                                   26483  1                      Ÿ  more than 50 recipients just build a 'To' line of         Ÿ
                                   26484  1                      Ÿ                                                            Ÿ
                                   26485  1                      Ÿ     To:   "Distribution list":;                            Ÿ
                                   26486  1                      Ÿ                                                            Ÿ
                                   26487  1                      Ÿ  to avoid a long recipient list.                           Ÿ
                                   26488  1                      Ÿ                                                            Ÿ
                                   26489  1                      Ÿ  If EMS mail without MAILINFO, we are sending the mail     Ÿ
                                   26490  1                      Ÿ  one recipient at a time.  Just put this recipient in the  Ÿ
                                   26491  1                      Ÿ  mail header.                                              Ÿ
                                   26492  1                      ¾þþþþþþþþþþþþþþþþþþþþþþþþþþþþþþþþþþþþþþþþþþþþþþþþþþþþþþþþþþþþ»
 003C12 9120 6001/47E0_00001       26493  1                      IF    MWAFEMS,BEGIN       If EMS,
                                   26508  2         C              IF    (MWAFMINF,AND,      If MAILINFO option used,
 003C1A 9101 6001/47E0_00001              2                              (MWARCPTN,GT,50)),BEGIN   and over 50 recipients,
 003C2C 4110 79BA/4100_      04248 26540  3                          SEGWR ' To:       "Distribution list":;'
 003C3C 47F0 768A            03F18 26556  3                          EXIT  SGTEHRCP
 003C40                            26559  2                        END
                                   26563  2
 003C40 9101 6001/4710_00001       26564  2                        IF    ~MWAFMINF,BEGIN     If MAILINFO not used,
 003C48 5850 65D4            005D4 26579  3                          L     R5,MWAWMIDP         Only do current entry
 003C4C 9640 5005      00005       26580  3                          SET   MIDXFHDR            Force header display
 003C50                            26586  2                        END
 003C50                            26590  1                      END
                                   26594  1
 003C50 1255/4780 765C             26595  1                      WHILE (R5,NZ),BEGIN
                                   26611  2         C              IF    (MIDXFHDR,AND,
                                          2         C                    (((SGTEHWTO,EQ,'To'),AND,~MIDXFCC),OR,
 003C56 9140 5005/47E0_00005              2                              ((SGTEHWTO,EQ,'cc'),AND,MIDXFCC))),BEGIN
1MAIL     (MAIL4072) (12:48) (15MAR04) MAIL and SEND Commands                                                               Page   72
0Current Usings:  (MID,R5) (MAILWA,R6) (*,R7) (SGTEHWA-(4+36),R8) (CP,R11) (CV,R12)
0Loc    Object Code    Addr1 Addr2  Stmt Lv Lineno    Source Statement           (Hibal 5, Asmedit 3.3)  HLASM R4.0  2004/03/15 12.48
+___    ______ ____    _____ _____  ____ __ ______    ______ _________
0003C82 9180 8030/4710_00008       26686  3                          IF    ~SGTEHFLN,BEGIN     If first line not done,
 003C8A 9680 8030      00008       26701  4                            SET   SGTEHFLN            Flag first line done
 003C8E 4110 7ABD/4100_      0434B 26707  4                            SEG   ' '
 003C9E 4110 8031/4100_      00009 26722  4                            SEG   SGTEHWTO            Header type ('To' or 'cc')
 003CAE 4110 79DA/4100_      04268 26747  4                            SEG   ':       '
 003CBE                            26762  3                          END
 003CBE 7434/47F0 745E 03CBE 03C88 26766  3                          ELSE  BEGIN               Else continuation line,
 003CC2 4110 7ABE/4100_      0434C 26777  4                            SEG   ','                 Add ',' to current line
 003CD2 1B00/18F4/58E0_            26792  4                            SEGWR ,                     and write it
 003CDC 4110 7ABF/4100_      0434D 26814  4                            SEG   '           '       Spacer for new line
 003CEC                            26829  3                          END
                                   26833  3
 003CEC 1B33                       26834  3                          CLEAR R3                  Flag: no name
 003CEE D64F 63C1 63C1_003C1 003C1 26838  3                          IF    (MWARNAME,NZ),BEGIN
 003CF8 4110 7AB8/4100_      04346 26854  4                            SEG   '"'
 003D08 4110 63C1/4100_      003C1 26869  4                            SEGT  MWARNAME            Recipient's name
 003D18 4110 7AB8/4100_      04346 26895  4                            SEG   '"'
 003D28 4100 001E/18F4_      0001E 26910  4                            SEGCOL 30
 003D34 4110 7AB9/4100_      04347 26928  4                            SEG   '<'
 003D44 4130 0001            00001 26943  4                            LA    R3,1                Flag: name
 003D48                            26944  3                          END
 003D48 74BE/47F0 751E_03D48 03CF6 26948  3                          ELSEIF (MIDXHONC,LE,' '),BEGIN   Else if local userid,
 003D54 9540 5006/47D0_00006       26974  4                            IF    (MIDXNAME,GT,' '),BEGIN    If have user name,
 003D5C 4110 7AB8/4100_      04346 26991  5                              SEG   '"'
 003D6C 4110 5006/4100_      00006 27006  5                              SEGT  MIDXNAME
 003D7C 4110 7AB8/4100_      04346 27032  5                              SEG   '"'
 003D8C 4100 001E/18F4_      0001E 27047  5                              SEGCOL 30
 003D98 4110 7AB9/4100_      04347 27065  5                              SEG   '<'
 003DA8 4130 0001            00001 27080  5                              LA    R3,1                Flag: name
 003DAC                            27081  4                            END
 003DAC                            27085  3                          END
                                   27089  3
                                   27090  3         C                IF    ((MIDXUSER,GE,' '),AND,
 003DAC 9540 50F6/4750_000F6              3                                (MIDXHONC,LE,' ')),BEGIN  If have local userid,
 003DBC 4110 50F6/4100_      000F6 27123  4                            SEGT  MIDXUSER                 Use it,
 003DCC                            27149  3                          END
 003DCC 7542/7542/47F0_03DCC 03DB2 27153  3                          ELSE  BEGIN                    Else use command line uid
 003DD0 4110 5056/4100_      00056 27166  4                            SEGT  MIDXUSNC                 Userid
 003DE0                            27192  3                          END
                                   27196  3
 003DE0 4110 7A9C/4100_      0432A 27197  3                          SETMSG '@'
                                   27201  3
 003DE8 9110 5004/4710_00004       27202  3                          IF    (~MIDXFBSMTP,AND,(MIDXRELY,NZ)),'SETMSG "%"'
 003E02 18F4/58E0 79E6_            27241  3                          SEG   (R1),(R0)           Seg separator
 003E0A 9540 50A6/4730_000A6       27262  3                          IF    (MIDXHONC,LE,' '),BEGIN   If local mail,
 003E12 4110 8033/4100_      0000B 27279  4                            SEGT  SGTEHWAH                  Add local host id
 003E22                            27305  3                          END
 003E22 7598/47F0 75A8 03E22 03E10 27309  3                          ELSE  BEGIN
 003E26 4110 50A6/4100_      000A6 27320  4                            SEGT  MIDXHONC
 003E36                            27346  3                          END
                                   27350  3
 003E36 9110 5004/4710_00004       27351  3                          IF    (~MIDXFBSMTP,AND,(MIDXRELY,NZ)),BEGIN
 003E48 4110 7A9C/4100_      0432A 27381  4                            SEG   '@'
 003E58 4110 51B9/4100_      001B9 27396  4                            SEGT  MIDXRELY            Finish up with relay host
1MAIL     (MAIL4072) (12:48) (15MAR04) MAIL and SEND Commands                                                               Page   73
0Current Usings:  (MID,R5) (MAILWA,R6) (*,R7) (SGTEHWA-(4+36),R8) (CP,R11) (CV,R12)
0Loc    Object Code    Addr1 Addr2  Stmt Lv Lineno    Source Statement           (Hibal 5, Asmedit 3.3)  HLASM R4.0  2004/03/15 12.48
+___    ______ ____    _____ _____  ____ __ ______    ______ _________
0003E68                            27422  3                          END
                                   27426  3                          ¿þþþþþþþþþþþþþþþþþþþþþþþþþþþþþþþþþþÜ
                                   27427  3                          Ÿ  Make host name fully qualified  Ÿ
                                   27428  3                          ¾þþþþþþþþþþþþþþþþþþþþþþþþþþþþþþþþþþ»
 003E68 4110 50A6/4100_      000A6 27429  3                          SETMSG MIDXHONC
 003E70 9540 51B9/47D0_001B9       27443  3                          IF    (MIDXRELY,GT,' '),'SETMSG MIDXRELY'
 003E80 9540 1000/47D0_00000       27479  3                          IF    (@R1,GT,' '),BEGIN
 003E88 58E0 7A22/0DEE       042B0 27495  4                            VCALL LRTRIM
 003E8E 1200/47D0 7618             27499  4                            WHILE (R0,P),BEGIN
 003E94 954B 1000/4780_00000       27515  5                              IF    (@R1,EQ,'.'),EXIT
 003E9C 5E10 7A46            042D4 27534  5                              INCR  R1
 003EA0 0600                       27537  5                              DECR  R0
 003EA2 47F0 7600            03E8E 27539  4                            END
 003EA6 1200/4720 762E             27544  4                            IF    (R0,NP),BEGIN
                                   27558  5           *        IF    CVFRLG,BEGIN  RLG...
                                   27559  5           *        SEG   '.RLG.ORG'
                                   27560  5           *        END
                                   27561  5           *        ELSE  BEGIN
 003EAC 4110 7ACA/4100_      04358 27562  5                              SEG   '.Stanford.EDU'
                                   27577  5           *        END
 003EBC                            27578  4                            END
 003EBC                            27582  3                          END
                                   27586  3
 003EBC 1233/4780 7644_            27587  3                          IF    (R3,NZ),'SEG ">"'
 003ED2                            27621  2                        END
                                   27625  2                        ¿þþþþþþþþþþþþþþþþþþþþþþþþþþþþþþþþþþþþþþþþþþþþþþþþþþþþÜ
                                   27626  2                        Ÿ  Rest of EMS hack...if old-style EMS mail without  Ÿ
                                   27627  2                        Ÿ  MAILINFO, exit loop after adding one recipient    Ÿ
                                   27628  2                        ¾þþþþþþþþþþþþþþþþþþþþþþþþþþþþþþþþþþþþþþþþþþþþþþþþþþþþ»
 003ED2 9120 6001/47E0_00001       27629  2                        IF    (MWAFEMS,AND,~MWAFMINF),EXIT
                                   27661  2
 003EE2 5850 5000            00000 27662  2                        L     R5,MIDLINK          Chain to next entry
 003EE6 47F0 73C2            03C50 27663  1                      END
                                   27668  1
 003EEA 9180 8030/47E0_00008       27669  1                      IF    SGTEHFLN,BEGIN      If generated a line,
 003EF2 1B00/18F4/58E0_            27684  2                        SEGWR ,                   Write final line
 003EFC                            27706  1                      END
                                   27710  1                      ¿þþþþþþþþþþþþþþþþþþþþþþþþþþþþþþþþþþþþþþþþþþþþþþþþþþÜ
                                   27711  1                      Ÿ  Another EMS hack...don't need to do 'cc' check  Ÿ
                                   27712  1                      ¾þþþþþþþþþþþþþþþþþþþþþþþþþþþþþþþþþþþþþþþþþþþþþþþþþþ»
 003EFC 9120 6001/4710_00001       27713  1                      IF    MWAFEMS,EXIT
                                   27731  1
 003F04 D501 7A6C 8031_042FA 00009 27732  1                      IF    (SGTEHWTO,EQ,'cc'),EXIT  Done if this is cc
 003F0E D201 8031 7A6C 00009 042FA 27752  1                      MVC   SGTEHWTO,=C'cc'     Set up for 'cc' entries
 003F14 47F0 737C            03C0A 27753                       END
                                   27758                       ¿þþþþþþþþþþþþþþþþþþþþþþþþþþþþþþþþþþþþþþþþþþþþþþþþþÜ
                                   27759                       Ÿ  SUBJECT line...wrap long lines if Bitnet mail  Ÿ
                                   27760                       ¾þþþþþþþþþþþþþþþþþþþþþþþþþþþþþþþþþþþþþþþþþþþþþþþþþ»
 003F18 D6C7 62F9 62F9_002F9 002F9 27761                       IF    (MWATITLE,NZ),BEGIN  We have a subject...
 003F22 9108 5004/47E0_00004       27777  1                      IF    MIDXFSUNMAIL,BEGIN   If Internet mail,
 003F2A 4110 7AD7/4100_      04365 27792  2                        SEG   ' Subject:  '        Just write out subject line
 003F3A 4110 62F9/4100_      002F9 27807  2                        SEGT  MWATITLE
 003F4A 1B00/18F4/58E0_            27833  2                        SEGWR
 003F54                            27855  1                      END
1MAIL     (MAIL4072) (12:48) (15MAR04) MAIL and SEND Commands                                                               Page   74
0Current Usings:  (MID,R5) (MAILWA,R6) (*,R7) (SGTEHWA-(4+36),R8) (CP,R11) (CV,R12)
0Loc    Object Code    Addr1 Addr2  Stmt Lv Lineno    Source Statement           (Hibal 5, Asmedit 3.3)  HLASM R4.0  2004/03/15 12.48
+___    ______ ____    _____ _____  ____ __ ______    ______ _________
0003F54 76CA/47F0 7732 03F54 03F28 27859  1                      ELSE  BEGIN                Else Bitnet mail,
 003F58 4120 63C0            003C0 27870  2                        LA    R2,MWATITLE+L'MWATITLE-1   Text end address
 003F5C 4130 62F9            002F9 27871  2                        LA    R3,MWATITLE                Text start address
 003F60 1923/47D0 76E6_            27872  2                        WHILE ((R2,GT,R3),AND,(@R2,EQ,' ')),'DECR R2'  Trim
 003F74 1B23                       27912  2                        SR    R2,R3               Get trimmed
 003F76 5E20 7A46            042D4 27913  2                        INCR  R2                    text length
 003F7A 4110 7AE2/4100_      04370 27916  2                        SEG   ' Subject:'         Start header line
 003F8A 1222/47D0 7732             27931  2                        WHILE (R2,P),BEGIN
 003F90 4110 7A6E/4100_      042FC 27947  3                          SEG   '  '                Leading blanks
 003FA0 1802                       27962  3                          LR    R0,R2               Copy text length
 003FA2 1813                       27963  3                          LR    R1,R3               Copy text address
 003FA4 5900 7A4A/47D0_      042D8 27964  3                          CEIL  R0,69               Truncate length
 003FB0 1B20                       27983  3                          SR    R2,R0               Decr remaining text length
 003FB2 1A30                       27984  3                          AR    R3,R0               Incr remaining text pointer
 003FB4 18F4/58E0 7A12_            27985  3                          SEGWR (R1),(R0)           Write line
 003FBC 47F0 76FC            03F8A 28007  2                        END
 003FC0                            28012  1                      END
 003FC0                            28016                       END
                                   28020              *
                                   28021              * If this is a forwarded mail message, add MIME information
                                   28022              *
                                   28023              * Forwarding has problems because of the way EMS deals with
                                   28024              * message replies. Until we can come up with a better solution
                                   28025              * we must ignore the FORWARD keyword from EMS.
                                   28026              *
                                   28027              * Additional change for SLP. If EMS is not set, allow forward,
                                   28028              * so that Eudora mail sent to Forsythe can be forwarded
                                   28029              * correctly with attachments intact.
                                   28030              *
                                   28031              * (We came up with a better solution, so removed block.)
                                   28032              *
 003FC0 9180 6002/47E0_00002       28033                       IF    (MWAFFWD),BEGIN
 003FC8 4110 7A70/4100_      042FE 28048  1                      SEGWR ' Mime-Version: 1.0'
 003FD8 4110 7AEB/4100_      04379 28064  1                      SEGWR ' Content-Type: message/rfc822'
 003FE8                            28080                       END
                                   28084
 003FE8 4110 7ABD/4100_      0434B 28085                       SEGWR ' '                 Blank line after header
                                   28101
 003FF8 18D8/9808 D004_            28102              SGHEXIT  PEND
 DROP   MID,R5
 DROP   SGTEHWA-(4+36),R8
 DROP   *,R7
1MAIL     (MAIL4072) (12:48) (15MAR04) MAIL and SEND Commands                                                               Page   75
0Current Usings:  (MAILWA,R6) (CP,R11) (CV,R12)
0Loc    Object Code    Addr1 Addr2  Stmt Lv Lineno    Source Statement           (Hibal 5, Asmedit 3.3)  HLASM R4.0  2004/03/15 12.48
+___    ______ ____    _____ _____  ____ __ ______    ______ _________
0                                  28134              ¿þþþþþþþþþþþþþþþþþþþþþþþþþþþþþþþþþþþþþþþþþþþþþþþþþþþþþþþþþþþþþþþþþþþþþÜ
                                   28135              Ÿ                                                                     Ÿ
                                   28136              Ÿ  SGTERTN -- This routine gets the next line in the new mail         Ÿ
                                   28137              Ÿ    directory and returns it (unpressed).  After user's message      Ÿ
                                   28138              Ÿ    lines are exhausted, this routine returns the final lines        Ÿ
                                   28139              Ÿ    for the SMTP envelope.  It then returns a zero in R1 to          Ÿ
                                   28140              Ÿ    indicate no more lines.                                          Ÿ
                                   28141              Ÿ                                                                     Ÿ
                                   28142              Ÿ    This is a PRINTMSG co-routine.                                   Ÿ
                                   28143              Ÿ                                                                     Ÿ
                                                      ¾þþþþþþþþþþþþþþþþþþþþþþþþþþþþþþþþþþþþþþþþþþþþþþþþþþþþþþþþþþþþþþþþþþþþþ»
0004006 50E0 D000/9008_      00000 28144              SGTERTN  PROC
 USING  *,R7
 004020 5860 BCA4            00CA4 28183                       L     R6,CPCWA
                                   28184                       WITH  (MAILWA,R6)
 004024 5850 65D4            005D4 28188                       L     R5,MWAWMIDP
 USING  MID,R5                     28189                       WITH  (MID,R5)
                                   28202
 004028 4840 65DC            005DC 28203                       LH    R4,MWAWDIR          Working dir offset
                                   28204
 00402C 1B11                       28205              SGTELP   CLEAR R1
 00402E 4940 65E4/47B0_      005E4 28210                       IF    (R4,LT,MWANNEW),BEGIN  If not done...
 004036 41F4 65E6            005E6 28227  1                      LA    R15,MWANEW(R4)
 00403A 1F00/BF03 F000_            28228  1                      PGET  PAR,L2:@R15         Get page
 004046 4830 65DE            005DE 28241  1                      LH    R3,MWAWOFFS         Working page offset
 00404A 48F0 9000            00000 28242  1                      LH    R15,@PAR
 00404E 193F/4750 7046             28243  1                      IF    (R3,GE,R15),BEGIN   Next page...
 004054 4140 4002            00002 28258  2                        LA    R4,@R4+2
 004058 4040 65DC            005DC 28259  2                        STH   R4,MWAWDIR
 00405C D701 65DE 65DE 005DE 005DE 28260  2                        CLEAR MWAWOFFS            Reset page offset
 004062 47F0 700C            0402C 28267  2                        B     SGTELP
 004066                            28268  1                      END
                                   28272  1
 004066 41F3 9002            00002 28273  1                      LA    R15,@PAR+2(R3)      Pressed line ptr
 00406A 4BF0 72F0            04310 28274  1                      SH    R15,=H'4'           Backup for fake lineno
                                   28275  1
 00406E 1F22/4323 9002             28276  1                      LC    R2,@PAR+2(R3)       Pressed line length
 004074 4133 2001            00001 28283  1                      LA    R3,@R2+1(R3)        Offset for the next line
 004078 4030 65DE            005DE 28284  1                      STH   R3,MWAWOFFS         Save new page offset
                                   28285  1
 00407C 4110 6411            00411 28286  1                      LA    R1,MWALINE          Put unpressed line here
 004080 58E0 72C0/0DEE       042E0 28287  1                      VCALL UNPRESS
 004086 D501 72F2 1000_04312 00000 28291  1                      IF    (@R1,EQ,'*N'),SGTELP  Skip mail header
 004090 D501 72F4 1000_04314 00000 28310  1                      IF    (@R1,EQ,'**'),'LA R1,@R1+1; DECR R0'
 0040A0                            28334                       END
                                   28338
 0040A0 9001 8004            00004 28339                       PRETURN (R0,R1)
 0040A4 18F1                       28341                       LR    R15,R1              Set CC for caller
 0040A6 18D8/9808 D004_            28342                       PEND
 DROP   MID,R5
 DROP   *,R7
 DROP   MAILWA,R6                  28367                       DROP  MAILWA,BR
1MAIL     (MAIL4072) (12:48) (15MAR04) MAIL and SEND Commands                                                               Page   76
0Current Usings:  (CP,R11) (CV,R12)
0Loc    Object Code    Addr1 Addr2  Stmt Lv Lineno    Source Statement           (Hibal 5, Asmedit 3.3)  HLASM R4.0  2004/03/15 12.48
+___    ______ ____    _____ _____  ____ __ ______    ______ _________
0                                  28379              ¿þþþþþþþþþþþþþþþþþþþþþþþþþþþþþþþþþþþþþþþþþþþþþþþþþþþþþþþþþþþþþþþþþþþþþÜ
                                   28380              Ÿ                                                                     Ÿ
                                   28381              Ÿ  TRANNAME -- This routine eliminates the characters quote ("),      Ÿ
                                   28382              Ÿ    back slash (\), and carriage return from the name strings used   Ÿ
                                   28383              Ÿ    for BITNET and gateway mail.  The name strings are included as   Ÿ
                                   28384              Ÿ    quoted-strings in the ARPA headers and the above characters are  Ÿ
                                   28385              Ÿ    forbidden by the syntax (RFC-822) without a lot of mucking       Ÿ
                                   28386              Ÿ    around.                                                          Ÿ
                                   28387              Ÿ                                                                     Ÿ
                                                      ¾þþþþþþþþþþþþþþþþþþþþþþþþþþþþþþþþþþþþþþþþþþþþþþþþþþþþþþþþþþþþþþþþþþþþþ»
00040B4 50E0 D000/9008_      00000 28388              TRANNAME PROC
 USING  *,R7
 0040CE 5860 BCA4            00CA4 28427                       L     R6,CPCWA            Establish mail work area
 USING  MAILWA,R6                  28428                       WITH  (MAILWA,R6),BEGIN
 0040D2 DC4F 62A9 701E 002A9 040EC 28442  1                      TR    MWANAME,SPECIAL
 0040D8 DC4F 63C1 701E 003C1 040EC 28443  1                      TR    MWARNAME,SPECIAL
 DROP   MAILWA,R6                  28444                       END
 0040DE 18D8/9808 D004_            28452                       PEND
 DROP   *,R7
                                   28472
 0040EC 0001020304050607           28473              SPECIAL  DC    256AL1(*-SPECIAL)   Translate table
 0041EC                041EC 0416B 28474                       ORG   SPECIAL+C'"'
 00416B 7D                         28475                       DC    C''''               Replace " with '
 00416C                0416C 041CC 28476                       ORG   SPECIAL+C'\'
 0041CC 40                         28477                       DC    C' '                Replace \ with blank
 0041CD                041CD 040F9 28478                       ORG   SPECIAL+X'0D'
 0040F9 40                         28479                       DC    C' '                Replace <CR> with blank
 0040FA                040FA 041EC 28480                       ORG
-                                  28482              ¿þþþþþþþþþþþþþþþþþþþþþþþþþþþþþþþþþþþþþþþþþþþþþþþþþþþþþþþþþþþþþþþþþþþþþÜ
                                   28483              Ÿ                                                                     Ÿ
                                   28484              Ÿ  BITFIX - Fix up from address for Bitnet mail                       Ÿ
                                   28485              Ÿ                                                                     Ÿ
                                   28486              Ÿ  On entry:                                                          Ÿ
                                   28487              Ÿ    R0,R1 - address text len and addr                                Ÿ
                                   28488              Ÿ                                                                     Ÿ
                                   28489              Ÿ  On exit:                                                           Ÿ
                                   28490              Ÿ    R0,R1 - len and addr of updated string                           Ÿ
                                   28491              Ÿ                                                                     Ÿ
                                                      ¾þþþþþþþþþþþþþþþþþþþþþþþþþþþþþþþþþþþþþþþþþþþþþþþþþþþþþþþþþþþþþþþþþþþþþ»
00041EC 50E0 D000/9008_      00000 28492              BITFIX   PROC
 USING  *,R7
                                   28531              ****     IF    (R0,GE,22),BEGIN
                                   28532              ****     LR    R15,R0
                                   28533              ****     AR    R15,R1
                                   28534              ****     SH    R15,=Y(22)
                                   28535              ****     IF    (@R15,EQ,'@Forsythe.Stanford.EDU'),BEGIN
                                   28536              ****     MVC   @R15(22),=CL22'@STANFORD.BITNET'
                                   28537              ****     SH    R0,=Y(6)
                                   28538              ****     PRETURN (R0)
                                   28539              ****     B     BITFIXR
1MAIL     (MAIL4072) (12:48) (15MAR04) MAIL and SEND Commands                                                               Page   77
0Current Usings:  (*,R7) (CP,R11) (CV,R12)
0Loc    Object Code    Addr1 Addr2  Stmt Lv Lineno    Source Statement           (Hibal 5, Asmedit 3.3)  HLASM R4.0  2004/03/15 12.48
+___    ______ ____    _____ _____  ____ __ ______    ______ _________
0                                  28540              ****     END
                                   28541              ****     END
                                   28542              ****
                                   28543              ****     IF    (R0,GE,17),BEGIN
                                   28544              ****     LR    R15,R0
                                   28545              ****     AR    R15,R1
                                   28546              ****     SH    R15,=Y(17)
                                   28547              ****     IF    (@R15,EQ,'@RLG.Stanford.EDU'),BEGIN
                                   28548              ****     MVC   @R15(17),=CL17'@RLG.BITNET'
                                   28549              ****     SH    R0,=Y(6)
                                   28550              ****     PRETURN (R0)
                                   28551              ****     END
                                   28552              ****     END
                                   28553              *
 004206 18D8/9808 D004_            28554              BITFIXR  PEND
 DROP   *,R7
                                   28575
                                   28576                       QLTORG
1MAIL     (MAIL4072) (12:48) (15MAR04) MAIL and SEND Commands                                                               Page   78
0Current Usings:  (CP,R11) (CV,R12)
0Loc    Object Code    Addr1 Addr2  Stmt Lv Lineno    Source Statement           (Hibal 5, Asmedit 3.3)  HLASM R4.0  2004/03/15 12.48
+___    ______ ____    _____ _____  ____ __ ______    ______ _________
0000000                00000 0020C 28645              SDIRWA   RECORD BEGIN
                                   28653  1                      XSA   R2,R8
 000000 0000000000000000           28654  1 01-XSA   +           DC    (R8+2-(R2))A(0)
                                   28655  1
 000020 00                         28656  1           SDIRFLAG   FLAG
 SDIRFLAG.SDIRFADD 80 ONES         28660  1                      FLAG  SDIRFADD            - Add ROUTE info to item
                                   28665  1           SDIRLINE   DS    XL(&LINESZ+256)
 000021                                   1          +SDIRLINE   DS    XL(235+256)
 00020C                0020C 0020C 28666                       END
-                                  28676              ¿þþþþþþþþþþþþþþþþþþþþþþþþþþþþþþþþþþþþþþþþþþþþþþþþþþþþþþþþþþþþþþþþþþþþþÜ
                                   28677              Ÿ                                                                     Ÿ
                                   28678              Ÿ  SAVEDIR -- Routine to save pages from directory.                   Ÿ
                                   28679              Ÿ                                                                     Ÿ
                                   28680              Ÿ    On entry:                                                        Ÿ
                                   28681              Ÿ      R1 - page dir ptr                                              Ÿ
                                   28682              Ÿ      R15- option flags (see SDIRFLAG)                               Ÿ
                                   28683              Ÿ                                                                     Ÿ
                                                      ¾þþþþþþþþþþþþþþþþþþþþþþþþþþþþþþþþþþþþþþþþþþþþþþþþþþþþþþþþþþþþþþþþþþþþþ»
0004396 50E0 D000/9028_      00000 28684              SAVEDIR  XENTER R2,R8,L'SDIRWA
 USING  *,R7
 USING  SDIRWA,R8                  28703                       USING SDIRWA,WAR
 0043B0 42F0 8020            00020 28712                       STC   R15,SDIRFLAG        Save flag byte
                                   28713
 USING  MAILWA,R6                  28714                       USING MAILWA,R6           (Entry assumption)
 0043B4 1851                       28723                       LR    R5,R1
 USING  BUFRDIR,R5                 28724                       USING BUFRDIR,R5
 0043B6 1B44                       28733                       CLEAR R4                  Init offset in dir
 0043B8 4940 5002/47B0_      00002 28737                       WHILE (R4,LT,BUFRCUR),BEGIN  Write out old mail...
 0043C0 41F4 5004            00004 28756  1                      LA    R15,BUFRPG(R4)
 0043C4 1F00/BF03 F000_            28757  1                      PGET  PAR,L2:@R15
 0043D0 4830 9000            00000 28770  1                      LH    R3,@PAR             Text length
 0043D4 1B22                       28771  1                      CLEAR R2
 0043D6 1923/47B0 73D2             28775  1                      WHILE (R2,LT,R3),BEGIN    Go thru lines in page...
 0043DC 41F0 03E8            003E8 28792  2                        LA    R15,1000            Incr for linenos is 1.000
 0043E0 5AF0 65D8            005D8 28793  2                        A     R15,MWAWLNO
 0043E4 50F0 65D8            005D8 28794  2                        ST    R15,MWAWLNO
                                   28795  2
 0043E8 4112 9002            00002 28796  2                        LA    R1,@PAR+2(R2)
 0043EC D203 6411 65D8 00411 005D8 28797  2                        MVC   MWALINE(4),MWAWLNO  Lineno
 0043F2 1FFF/43F0 1000             28798  2                        LC    R15,@R1             Size of pressed line
 0043F8 41F0 F001            00001 28805  2                        LA    R15,@R15+1          Including the length byte
 0043FC 06F0/12FF/4740_            28806  2                        MOVE  R15,MWALINE+4,@R1   Copy pressed line
 004408 41F0 6411            00411 28844  2                        LA    R15,MWALINE
 00440C 5020 D000/41D0_      00000 28845  2                        XPUSH R2
 004414 4110 8021            00021 28848  2                        LA    R1,SDIRLINE
 004418 58E0 76E4/0DEE       04A94 28849  2                        VCALL UNPRESS             EXTWRITE wants unpress, CH 5/91
 00441E 182F                       28853  2                        LR    R2,R15
 004420 58E0 76E8/0DEE       04A98 28854  2                        VCALL EXTWRITE            Buffer/write this line
 004426 4BD0 772C/5820_      04ADC 28858  2                        XPOP  R2
 00442E 1FFF/43F2 9002             28861  2                        LC    R15,@PAR+2(R2)
 004434 4122 F001            00001 28868  2                        LA    R2,@R15+1(R2)
1MAIL     (MAIL4072) (12:48) (15MAR04) MAIL and SEND Commands                                                               Page   79
0Current Usings:  (BUFRDIR,R5) (MAILWA,R6) (*,R7) (SDIRWA,R8) (CP,R11) (CV,R12)
0Loc    Object Code    Addr1 Addr2  Stmt Lv Lineno    Source Statement           (Hibal 5, Asmedit 3.3)  HLASM R4.0  2004/03/15 12.48
+___    ______ ____    _____ _____  ____ __ ______    ______ _________
0                                  28869  2
 004438 9180 8020/47E0_00020       28870  2                        IF    SDIRFADD,BEGIN      Add ROUTE info...
 004440 947F 8020      00020       28885  3                          CLEAR SDIRFADD            (Only the first time)
 004444 58F0 65D4            005D4 28892  3                          L     R15,MWAWMIDP        Working current MID entry
 004448 12FF/4770 70B2_            28893  3                          FAIL  (R15,Z),MAILERR
 004462 9003 D000/41D0_      00000 28918  3                          XPUSH R0,R3
 00446A 5830 65D4            005D4 28921  3                          L     R3,MWAWMIDP
 USING  MID,R3                     28922  3                          WITH  (MID,R3)
 00446E 41F0 B050/58E0_      00050 28935  3                          TCLEAR
                                   28949  3           *
                                   28950  3           ***OLD   IF    ~CVFRLG,BEGIN       RLG can't hack new headers...
                                   28951  3                          ¿þþþþþþþþþþþþþþþþþþþþÜ
                                   28952  3                          Ÿ  MESSAGE-ID line.  Ÿ
                                   28953  3                          ¾þþþþþþþþþþþþþþþþþþþþ»
 004478 4110 7680/4100_      04A30 28954  3                          TSEG  '*::Message-ID: <'
 00448A 4110 603B/4100_      0003B 28972  3                          TSEG  MWAMSGID,,T
 00449C 4110 774A/4100_      04AFA 29000  3                          TSEG  '>'
 0044AE 58E0 76F8/0DEE       04AA8 29018  3                          ACALL ADDLINE             Buffer/write header line
                                   29022  3                          ¿þþþþþþþþþþþþþþþþþþþþþþþþþþþþþþþþþþþþþþþþþþþþþþþþþþþþþþþÜ
                                   29023  3                          Ÿ  Add the following lines if the user hasn't provided  Ÿ
                                   29024  3                          Ÿ    his own headers.                                   Ÿ
                                   29025  3                          ¾þþþþþþþþþþþþþþþþþþþþþþþþþþþþþþþþþþþþþþþþþþþþþþþþþþþþþþþ»
 0044B4 9104 6001/4710_00001       29026  3                          IF    ~MWAFMHDR,BEGIN     No mail headers in file...
                                   29041  4                            ¿þþþþþþþþþþþþþþÜ
                                   29042  4                            Ÿ  DATE line.  Ÿ
                                   29043  4                            ¾þþþþþþþþþþþþþþ»
 0044BC 4110 774B/4100_      04AFB 29044  4                            TSEG  '*::Date: '
 0044CE 18FD/41D0 D020             29062  4                            XPUSH ,,32,PTR=R15
 0044D4 58E0 76FC/0DEE       04AAC 29065  4                            VCALL LOCALTOD            Current date
 0044DA 58E0 7700/0DEE       04AB0 29069  4                            VCALL FMTXDATE
 0044E0 D20E 100C 100E 0000C 0000E 29073  4                            MVC   12(15,R1),14(R1)    Squeeze out century
 0044E6 5B00 7704            04AB4 29074  4                            S     R0,=F'2'
 0044EA 41F0 B050/58E0_      00050 29075  4                            TSEG  (R1),(R0)           Formatted date
 0044F4 4BD0 772E            04ADE 29099  4                            XPOP  ,,32
                                   29101  4
 0044F8 58E0 76F8/0DEE       04AA8 29102  4                            ACALL ADDLINE             Buffer/write header line
                                   29106  4                            ¿þþþþþþþþþþþþÜ
                                   29107  4                            Ÿ  TO line.  Ÿ
                                   29108  4                            ¾þþþþþþþþþþþþ»
 0044FE 4110 7754/4100_      04B04 29109  4                            TSEG  '*::To:   '
                                   29127  4
 004510 1B22                       29128  4                            CLEAR R2                  Flag: no name
 004512 D64F 3006 3006_00006 00006 29132  4                            IF    (MIDXNAME,NZ),BEGIN
 00451C 4110 775D/4100_      04B0D 29148  5                              TSEG  '"'
 00452E 4110 3006/4100_      00006 29166  5                              TSEG  MIDXNAME,,T         Recipient's name
 004540 4110 775E/4100_      04B0E 29194  5                              TSEG  '" <'
 004552 4120 0001            00001 29212  5                              LA    R2,1                Flag: name
 004556                            29213  4                            END
                                   29217  4
 004556 4110 30F6/4100_      000F6 29218  4                            TSEG  MIDXUSER,,T         Userid
 004568 D64F 3146 3146_00146 00146 29246  4                            IF    (MIDXHOST,NZ),BEGIN
 004572 4110 7761/4100_      04B11 29262  5                              SETMSG '@'
 00457A 9110 3004/4710_00004       29266  5                              IF    (~MIDXFBSMTP,AND,(MIDXRELY,NZ)),'SETMSG "%"'
 004594 41F0 B050/58E0_      00050 29305  5                              TSEG  (R1),(R0)           Seg separator
1MAIL     (MAIL4072) (12:48) (15MAR04) MAIL and SEND Commands                                                               Page   80
0Current Usings:  (MID,R3) (BUFRDIR,R5) (MAILWA,R6) (*,R7) (SDIRWA,R8) (CP,R11) (CV,R12)
0Loc    Object Code    Addr1 Addr2  Stmt Lv Lineno    Source Statement           (Hibal 5, Asmedit 3.3)  HLASM R4.0  2004/03/15 12.48
+___    ______ ____    _____ _____  ____ __ ______    ______ _________
000459E 4110 30A6/4100_      000A6 29329  5                              TSEG  MIDXHONC,,T
 0045B0 9110 3004/4710_00004       29357  5                              IF    (~MIDXFBSMTP,AND,(MIDXRELY,NZ)),BEGIN
 0045C2 4110 7761/4100_      04B11 29387  6                                TSEG  '@'
 0045D4 4110 31B9/4100_      001B9 29405  6                                TSEG  MIDXRELY,,T         Finish up with relay host
 0045E6                            29433  5                              END
 0045E6                            29437  4                            END
 0045E6 1222/4780 724E_            29441  4                            IF    (R2,NZ),'TSEG ">"'
                                   29478  4
 0045FE 58E0 76F8/0DEE       04AA8 29479  4                            ACALL ADDLINE             Buffer/write header line
                                   29483  4                            ¿þþþþþþþþþþþþþþÜ
                                   29484  4                            Ÿ  FROM line.  Ÿ
                                   29485  4                            ¾þþþþþþþþþþþþþþ»
 004604 4110 7763/4100_      04B13 29486  4                            TSEG  '*::From: '
                                   29504  4
 004616 1B22                       29505  4                            CLEAR R2                  Flag: no name
 004618 D64F 62A9 62A9_002A9 002A9 29509  4                            IF    (MWANAME,NZ),BEGIN
 004622 4110 775D/4100_      04B0D 29525  5                              TSEG  '"'
 004634 4110 62A9/4100_      002A9 29543  5                              TSEG  MWANAME,,T          Sender's name
 004646 4110 775E/4100_      04B0E 29571  5                              TSEG  '" <'
 004658 4120 0001            00001 29589  5                              LA    R2,1                Flag: name
 00465C                            29590  4                            END
                                   29594  4
 00465C 4110 6051/4100_      00051 29595  4                            TSEG  MWAFROM,,T          Userid
 00466E 1222/4780 72D6_            29623  4                            IF    (R2,NZ),'TSEG ">"'
 004686 58E0 76F8/0DEE       04AA8 29660  4                            ACALL ADDLINE             Buffer/write header line
                                   29664  4                            ¿þþþþþþþþþþþþþþþþþþþþþÜ
                                   29665  4                            Ÿ  X-FROM-NAME line.  Ÿ
                                   29666  4                            ¾þþþþþþþþþþþþþþþþþþþþþ»
 00468C D64F 62A9 62A9_002A9 002A9 29667  4                            IF    (MWANAME,NZ),BEGIN  We have a name...
 004696 4110 7690/4100_      04A40 29683  5                              TSEG  '*::X-From-Name: '
 0046A8 4110 62A9/4100_      002A9 29701  5                              TSEG  MWANAME,,T
 0046BA 58E0 76F8/0DEE       04AA8 29729  5                              ACALL ADDLINE             Buffer/write header line
 0046C0                            29733  4                            END
                                   29737  4                            ¿þþþþþþþþþþþþþþþþþþþþþþþÜ
                                   29738  4                            Ÿ  X-FROM-USERID line.  Ÿ
                                   29739  4                            ¾þþþþþþþþþþþþþþþþþþþþþþþ»
 0046C0 4110 7730/4100_      04AE0 29740  4                            TSEG  '*::X-From-Userid: '
 0046D2 4110 6051/4100_      00051 29758  4                            TSEG  MWAFROM,,T          Userid
 0046E4 58E0 76F8/0DEE       04AA8 29786  4                            ACALL ADDLINE             Buffer/write header line
                                   29790  4                            ¿þþþþþþþþþþþþþþþþþþþþþþþþÜ
                                   29791  4                            Ÿ  X-FROM-ACCOUNT line.  Ÿ
                                   29792  4                            ¾þþþþþþþþþþþþþþþþþþþþþþþþ»
 0046EA D51F B198 6051_00198 00051 29793  4                            IF    (CPUID,EQ,MWAFROM),BEGIN  It's our userid...
 0046F4 4110 776C/4100_      04B1C 29811  5                              TSEG  '*::X-From-Account: '
 004706 4110 B3B7/4100_      003B7 29829  5                              TSEG  CPSGRP
 004718 4110 777F/4100_      04B2F 29857  5                              TSEG  '.'
 00472A 4110 B3B4/4100_      003B4 29875  5                              TSEG  CPSUSER
                                   29903  5
 00473C 58E0 76F8/0DEE       04AA8 29904  5                              ACALL ADDLINE             Buffer/write header line
 004742                            29908  4                            END
1MAIL     (MAIL4072) (12:48) (15MAR04) MAIL and SEND Commands                                                               Page   81
0Current Usings:  (MID,R3) (BUFRDIR,R5) (MAILWA,R6) (*,R7) (SDIRWA,R8) (CP,R11) (CV,R12)
0Loc    Object Code    Addr1 Addr2  Stmt Lv Lineno    Source Statement           (Hibal 5, Asmedit 3.3)  HLASM R4.0  2004/03/15 12.48
+___    ______ ____    _____ _____  ____ __ ______    ______ _________
0                                  29912  4                            ¿þþþþþþþþþþþþþþþþþÜ
                                   29913  4                            Ÿ  SUBJECT line.  Ÿ
                                   29914  4                            ¾þþþþþþþþþþþþþþþþþ»
 004742 D6C7 62F9 62F9_002F9 002F9 29915  4                            IF    (MWATITLE,NZ),BEGIN  We have a subject...
 00474C 4110 7708/4100_      04AB8 29931  5                              TSEG  '*::Subject: '
 00475E 4110 62F9/4100_      002F9 29949  5                              TSEG  MWATITLE
                                   29977  5
 004770 58E0 76F8/0DEE       04AA8 29978  5                              ACALL ADDLINE             Buffer/write header line
 004776                            29982  4                            END
 004776                            29986  3                          END
                                   29990  3           ***OLD   END
                                   29991  3           *
 004776 4BD0 7742/9803_      04AF2 29992  3                          XPOP  R0,R3
 DROP   MID,R3                     29995  2                        END
 00477E 47F0 7026            043D6 30004  1                      END
                                   30009  1
 004782 4140 4002            00002 30010  1                      LA    R4,@R4+2
 004786 47F0 7008            043B8 30011                       END
 00478A 58E0 7714/0DEE       04AC4 30016                       PFREE PAR
 004790 18D8/58E0 D000_            30022                       XEXIT
1MAIL     (MAIL4072) (12:48) (15MAR04) MAIL and SEND Commands                                                               Page   82
0Current Usings:  (BUFRDIR,R5) (MAILWA,R6) (*,R7) (SDIRWA,R8) (CP,R11) (CV,R12)
0Loc    Object Code    Addr1 Addr2  Stmt Lv Lineno    Source Statement           (Hibal 5, Asmedit 3.3)  HLASM R4.0  2004/03/15 12.48
+___    ______ ____    _____ _____  ____ __ ______    ______ _________
0                                  30028              ¿þþþþþþþþþþþþþþþþþþþþþþþþþþþþþþþþþþþþþþþþþþþþþþþþþþþþþþþþþþþþþþþþþþþþþÜ
                                   30029              Ÿ                                                                     Ÿ
                                   30030              Ÿ  ADDLINE -- Local routine to add the TSEG buffer to the MAIL        Ÿ
                                   30031              Ÿ    data set.                                                        Ÿ
                                   30032              Ÿ                                                                     Ÿ
                                                      ¾þþþþþþþþþþþþþþþþþþþþþþþþþþþþþþþþþþþþþþþþþþþþþþþþþþþþþþþþþþþþþþþþþþþþþ»
000479C 50E0 D000/41D0_      00000 30033              ADDLINE  LENTER
 0047A4 58F0 B05C            0005C 30037                       L     R15,CPSEGLENF
 0047A8 180F                       30038                       LR    R0,R15
 0047AA 58E0 B070            00070 30039                       L     R14,CPSEGLOC
 0047AE 06F0/12FF/4740_            30040                       MOVE  R15,MWALINE,@R14
 0047BA 5000 D000/41D0_      00000 30078                       XPUSH R0
 0047C2 41F0 B050/58E0_      00050 30081                       TCLEAR
 0047CC 4BD0 772C/5800_      04ADC 30095                       XPOP  R0
 0047D4 4110 6411            00411 30098                       SETMSG MWALINE,(R0)
 0047D8 41F0 03E8            003E8 30111                       LA    R15,1000
 0047DC 5AF0 65D8            005D8 30112                       A     R15,MWAWLNO
 0047E0 50F0 65D8            005D8 30113                       ST    R15,MWAWLNO
 0047E4 182F                       30114                       LR    R2,R15              R1,R0-text loc,len, R2-line no
 0047E6 58E0 76E8/0DEE       04A98 30115                       VCALL EXTWRITE            Save special line
 0047EC 4BD0 772C/58E0_      04ADC 30119                       LEXIT
                                   30125
 DROP   BUFRDIR,R5                 30126                       DROP  BUFRDIR,MAILWA,SDIRWA,BR
 DROP   MAILWA,R6
 DROP   SDIRWA,R8
 DROP   *,R7
1MAIL     (MAIL4072) (12:48) (15MAR04) MAIL and SEND Commands                                                               Page   83
0Current Usings:  (CP,R11) (CV,R12)
0Loc    Object Code    Addr1 Addr2  Stmt Lv Lineno    Source Statement           (Hibal 5, Asmedit 3.3)  HLASM R4.0  2004/03/15 12.48
+___    ______ ____    _____ _____  ____ __ ______    ______ _________
0                                  30155              ¿þþþþþþþþþþþþþþþþþþþþþþþþþþþþþþþþþþþþþþþþþþþþþþþþþþþþþþþþþþþþþþþþþþþþþÜ
                                   30156              Ÿ                                                                     Ÿ
                                   30157              Ÿ  MAILSIZE -- Routine called by DOPEN to determine the size of the   Ÿ
                                   30158              Ÿ    data.                                                            Ÿ
                                   30159              Ÿ                                                                     Ÿ
                                   30160              Ÿ    On entry:                                                        Ÿ
                                   30161              Ÿ      R15 - blocksize for save                                       Ÿ
                                   30162              Ÿ                                                                     Ÿ
                                                      ¾þþþþþþþþþþþþþþþþþþþþþþþþþþþþþþþþþþþþþþþþþþþþþþþþþþþþþþþþþþþþþþþþþþþþþ»
00047F6 50E0 D000/9028_      00000 30163              MAILSIZE XENTER R2,R8,,LOCAL
 USING  *,R7
 004810 5860 BCA4            00CA4 30181                       L     R6,CPCWA            Mailwa ptr
 USING  MAILWA,R6                  30182                       USING MAILWA,R6
 004814 50F0 BD70            00D70 30191                       ST    R15,CPNWCT          Save blocksize
 004818 D201 BF94 652E 00F94 0052E 30192                       MVC   DSAVCNT,MWALINES+2  No. of lines
 00481E 5830 6530            00530 30193                       L     R3,MWACOUNT
 004822 4A30 72E4            04AF4 30194                       AH    R3,=H'1024'         Slop, for "*:" lines
 004826 4030 BF90            00F90 30195                       STH   R3,DSAVSPA          Pressed byte count
 00482A 1B22                       30196                       CLEAR R2
 00482C 4BF0 72E6            04AF6 30200                       SH    R15,=AL2(2+&PRESSZ-1)  Smallest buffer
 004830 1A3F                       30201                       AR    R3,R15
 004832 1D2F                       30202                       DR    R2,R15              No. of blocks needed (worst case)
 004834 4030 BF96            00F96 30203                       STH   R3,DSAVBLK          Save block count
 004838 1277                       30204                       LTR   BR,BR               Set nz cc for caller
 00483A 18D8/58E0 D000_            30205                       XEXIT
 DROP   MAILWA,R6                  30210                       DROP  MAILWA,BR
 DROP   *,R7
1MAIL     (MAIL4072) (12:48) (15MAR04) MAIL and SEND Commands                                                               Page   84
0Current Usings:  (CP,R11) (CV,R12)
0Loc    Object Code    Addr1 Addr2  Stmt Lv Lineno    Source Statement           (Hibal 5, Asmedit 3.3)  HLASM R4.0  2004/03/15 12.48
+___    ______ ____    _____ _____  ____ __ ______    ______ _________
0                                  30225              ¿þþþþþþþþþþþþþþþþþþþþþþþþþþþþþþþþþþþþþþþþþþþþþþþþþþþþþþþþþþþþþþþþþþþþþÜ
                                   30226              Ÿ                                                                     Ÿ
                                   30227              Ÿ  MAILRTN -- Routine to save the active file range in a temporary    Ÿ
                                   30228              Ÿ    text page (MWAPG).  It is entered from the range processor       Ÿ
                                   30229              Ÿ    with the pressed line loc in R15.                                Ÿ
                                   30230              Ÿ                                                                     Ÿ
                                   30231              Ÿ  PREST option removed 5/91 by CH.  We press line on entry for       Ÿ
                                   30232              Ÿ  backwards compatibility.                                           Ÿ
                                   30233              Ÿ                                                                     Ÿ
                                   30234              Ÿ                                                                     Ÿ
                                                      ¾þþþþþþþþþþþþþþþþþþþþþþþþþþþþþþþþþþþþþþþþþþþþþþþþþþþþþþþþþþþþþþþþþþþþþ»
0004846 50E0 D000/9008_      00000 30235              MAILRTN  PROC
 USING  *,R7
                                   30274
                                   30275                       COMMENT                   BE BACKWARDS COMPAT, PRESS LINE
 004860 58F0 B73C            0073C 30276                       L     R15,CPLCNO
 004864 58E0 7268/0DEE       04AC8 30277                       VCALL PRESS
 00486A 18F1                       30281                       LR    R15,R1
                                   30282
 00486C 5860 BCA4            00CA4 30283                       L     R6,CPCWA            Mailwa ptr
 USING  MAILWA,R6                  30284                       WITH  (MAILWA,R6)
 004870 185F                       30297                       LR    R5,R15
                                   30298                       ¿þþþþþþþþþþþþþþþþþþþþþþþþþþþþþþþþþþþþþþþþþþþþþþþþþþþþþþþþþÜ
                                   30299                       Ÿ  The following checks for lines beginning with "*" and  Ÿ
                                   30300                       Ÿ    changes it to "**".                                  Ÿ
                                   30301                       ¾þþþþþþþþþþþþþþþþþþþþþþþþþþþþþþþþþþþþþþþþþþþþþþþþþþþþþþþþþ»
 004872 9502 5004/4750_00004       30302                       IF    (@R5+4,GE,X'02'),BEGIN  Non-null line...
 00487A 1FFF/43F0 5005             30318  1                      LC    R15,@R5+5           Get first control byte
 004880 88F0 0004            00004 30325  1                      SRL   R15,4               Blank count
 004884 12FF/4770 7088             30326  1                      IF    (R15,NZ),EXIT       Leading blanks, scram
 00488A 955C 5006/4770_00006       30343  1                      IF    (@R5+6,NE,'*'),EXIT  Not "*", scram
 004892 D501 7298 5007_04AF8 00007 30362  1                      IF    ((@R5+7,EQ,'::'),AND,MWAFMHDR),EXIT  Mail hdr, scram
 0048A4 957A 5007/4770_00007       30395  1                      IF    ((@R5+7,EQ,':'),AND,(@R5+8,NE,':'),AND,MWAFUHDR),EXIT
 0048BC 18F5                       30441  1                      LR    R15,R5
 0048BE 925C 6411      00411       30442  1                      MVI   MWALINE,C'*'
 0048C2 4110 6412            00412 30443  1                      LA    R1,MWALINE+1
 0048C6 58E0 7234/0DEE       04A94 30444  1                      VCALL UNPRESS
 0048CC 4110 6411            00411 30448  1                      LA    R1,MWALINE
 0048D0 5A00 C4D0            004D0 30449  1                      A     R0,CVONE
 0048D4 5900 726C/47D0_      04ACC 30450  1                      CEIL  R0,&LINESZ
 0048E0 58E0 7268/0DEE       04AC8 30469  1                      VCALL PRESS
 0048E6 1851                       30473  1                      LR    R5,R1
 0048E8                            30474                       END
 0048E8 41F0 0001/5EF0_      00001 30478                       INCR  R15,MWANLINS        Kick line count
 0048F4 58F0 6528            00528 30484                       L     R15,MWANCNT         Old byte count
 0048F8 1F11/4310 5004             30485                       LC    R1,@R5+4
 0048FE 41FF 1005            00005 30492                       LA    R15,@R1+5(R15)
 004902 50F0 6528            00528 30493                       ST    R15,MWANCNT         Total byte count
                                   30494
 004906 18F5                       30495                       LR    R15,R5              Pressed line ptr
 004908 4110 65E2            005E2 30496                       LA    R1,MWAMNEW          New dir ptr
 00490C 58E0 7270/0DEE       04AD0 30497                       ACALL BUFRLINE
 004912 47D0 70EE            0494E 30501                       IF    POS,BEGIN           Won't fit...
1MAIL     (MAIL4072) (12:48) (15MAR04) MAIL and SEND Commands                                                               Page   85
0Current Usings:  (MAILWA,R6) (*,R7) (CP,R11) (CV,R12)
0Loc    Object Code    Addr1 Addr2  Stmt Lv Lineno    Source Statement           (Hibal 5, Asmedit 3.3)  HLASM R4.0  2004/03/15 12.48
+___    ______ ____    _____ _____  ____ __ ______    ______ _________
0004916 4110 71F0/4100_      04A50 30512  1                      TSEG  'Mail not sent.  '
 004928 4110 7200/4100_      04A60 30530  1                      TSEG  'Too much mail, starting at line '
 00493A 5800 B73C            0073C 30548  1                      L     R0,CPLCNO
 00493E 58E0 7274/0DEE       04AD4 30549  1                      VCALL CVEXNO
 004944 D207 B886 7220_00886 04A80 30553  1                      ERROR (R1),(R0),MUCHMAIL
 00494E                            30567                       END
 00494E 18D8/9808 D004_            30571                       PEND
 DROP   MAILWA,R6
 DROP   *,R7
1MAIL     (MAIL4072) (12:48) (15MAR04) MAIL and SEND Commands                                                               Page   86
0Current Usings:  (CP,R11) (CV,R12)
0Loc    Object Code    Addr1 Addr2  Stmt Lv Lineno    Source Statement           (Hibal 5, Asmedit 3.3)  HLASM R4.0  2004/03/15 12.48
+___    ______ ____    _____ _____  ____ __ ______    ______ _________
0                                  30597              ¿þþþþþþþþþþþþþþþþþþþþþþþþþþþþþþþþþþþþþþþþþþþþþþþþþþþþþþþþþþþþþþþþþþþþþÜ
                                   30598              Ÿ                                                                     Ÿ
                                   30599              Ÿ  MAILRTNX -- Routine to save the old mail data set in temporary     Ÿ
                                   30600              Ÿ    text pages (MWADIR).  It is entered from the range processor     Ÿ
                                   30601              Ÿ    with the pressed line loc in R15.                                Ÿ
                                   30602              Ÿ                                                                     Ÿ
                                   30603              Ÿ  PREST option removed 5/91 by CH.  We press line on entry for       Ÿ
                                   30604              Ÿ  backwards compatibility.                                           Ÿ
                                   30605              Ÿ                                                                     Ÿ
                                   30606              Ÿ                                                                     Ÿ
                                                      ¾þþþþþþþþþþþþþþþþþþþþþþþþþþþþþþþþþþþþþþþþþþþþþþþþþþþþþþþþþþþþþþþþþþþþþ»
000495C 50E0 D000/9008_      00000 30607              MAILRTNX PROC
 USING  *,R7
                                   30646
                                   30647                       COMMENT                   BE BACKWARDS COMPAT, PRESS LINE
 004976 58F0 B73C            0073C 30648                       L     R15,CPLCNO
 00497A 58E0 7152/0DEE       04AC8 30649                       VCALL PRESS
 004980 18F1                       30653                       LR    R15,R1
                                   30654
 004982 5860 BCA4            00CA4 30655                       L     R6,CPCWA            Mailwa ptr
 USING  MAILWA,R6                  30656                       USING MAILWA,R6
 004986 185F                       30665                       LR    R5,R15
 004988 41F0 0001/5EF0_      00001 30666                       INCR  R15,MWALINES        Kick line count
 004994 58F0 6530            00530 30672                       L     R15,MWACOUNT
 004998 1F11/4310 5004             30673                       LC    R1,@R5+4
 00499E 41FF 1005            00005 30680                       LA    R15,@R1+5(R15)
 0049A2 50F0 6530            00530 30681                       ST    R15,MWACOUNT        Total byte count
                                   30682
 0049A6 18F5                       30683                       LR    R15,R5              Pressed line ptr
 0049A8 4110 6622            00622 30684                       LA    R1,MWAMDIR          Mail dir
 0049AC 58E0 715A/0DEE       04AD0 30685                       ACALL BUFRLINE
 0049B2 47D0 70A8            04A1E 30689                       IF    POS,BEGIN           Won't fit...
 0049B6 1B22                       30700  1                      CLEAR R2
 0049B8 9140 BD55/47E0_00D55       30704  1                      IF    CPFQUIET,'LA R2,1; CLEAR CPFQUIET'
 0049C8 4110 71BA/4100_      04B30 30732  1                      TSEG  'Mail not sent to '
 0049DA 5830 65D4            005D4 30750  1                      L     R3,MWAWMIDP
 USING  MID,R3                     30751  1                      WITH  (MID,R3),BEGIN
 0049DE 4110 30F6/4100_      000F6 30765  2                        TSEG  MIDXUSER,,T
 DROP   MID,R3                     30793  1                      END
 0049F0 4110 71CB/4100_      04B41 30801  1                      TSEG  '.  Mailbox is full.',,WR
 004A02 1222/4780 7096_            30819  1                      IF    (R2,NZ),'SET CPFQUIET'
 004A0C D207 B886 7112 00886 04A88 30844  1                      MVC   CPERRID,=C'MAILFULL'
 004A12 9640 BD5A      00D5A       30845  1                      SET   CPFERROR
 004A16 9808 6534            00534 30851  1                      LM    R0,R8,MWAREGS
 004A1A 18D0                       30852  1                      LR    R13,R0
 004A1C 07F1                       30853  1                      BR    R1                  (Returns to SENDDONE)
 004A1E                            30854                       END
 004A1E 18D8/9808 D004_            30858                       PEND  ,
 DROP   *,R7
 DROP   MAILWA,R6                  30878                       DROP  MAILWA
                                   30886
                                   30887                       QLTORG
1MAIL     (MAIL4072) (12:48) (15MAR04) SHOW MAIL Command                                                                    Page   87
0Current Usings:  (CP,R11) (CV,R12)
0Loc    Object Code    Addr1 Addr2  Stmt Lv Lineno    Source Statement           (Hibal 5, Asmedit 3.3)  HLASM R4.0  2004/03/15 12.48
+___    ______ ____    _____ _____  ____ __ ______    ______ _________
0                                  30942              ¿þþþþþþþþþþþþþþþþþþþþþþþþþþþþþþþþþþþþþþþþþþþþþþþþþþþþþþþþþþþþþþþþþþþþþÜ
                                   30943              Ÿ                                                                     Ÿ
                                   30944              Ÿ  SHOWMAIL -- SHOW MAIL command.                                     Ÿ
                                   30945              Ÿ                                                                     Ÿ
                                                      ¾þþþþþþþþþþþþþþþþþþþþþþþþþþþþþþþþþþþþþþþþþþþþþþþþþþþþþþþþþþþþþþþþþþþþþ»
0004B60 50E0 D000/9008_      00000 30946              SHOWMAIL XPROC KWR
 USING  *,R7
 USING  KWR-(4+36),R8
 004B7A D7FF 8028 8028_00000 00000 30997                       CLEAR KWR
 004B86 D204 BC48 B3B4 00C48 003B4 31005                       MVC   CPCACCT,CPSACCT     Default is logged on user's acct
 004B8C 9620 BD58      00D58       31006                       SET   CPFVER              Verify assumed
                                   31012                       ¿þþþþþþþþþþþþþþþþþþþþþþþþþþþþþþþþþþþþþþþþþþþþþþþþþþÜ
                                   31013                       Ÿ  Account for Wylbur mail processing separately.  Ÿ
                                   31014                       ¾þþþþþþþþþþþþþþþþþþþþþþþþþþþþþþþþþþþþþþþþþþþþþþþþþþ»
 004B90 D506 78E8 B448_05462 00448 31015                       IF    (CPWCHAR,EQ,'GENERAL'),BEGIN
 004B9A D207 BC56 7846 00C56 053C0 31032  1                      MVC   CPLWCHAR(8),=C'WYLMAIL_'  Prefix
 004BA0 D207 BC5E B448 00C5E 00448 31033  1                      MVC   CPLWCHAR+8(8),CPWCHAR  Set suffix
 004BA6 58E0 787E/0DEE       053F8 31034  1                      VCALL BILLCHK             Switch charging components
 004BAC                            31038                       END
                                   31042                       ¿þþþþþþþþþþþþþþþþþþþþþþþþþþþþþþþÜ
                                   31043                       Ÿ  Scan for SHOW MAIL options.  Ÿ
                                   31044                       ¾þþþþþþþþþþþþþþþþþþþþþþþþþþþþþþþ»
 004BAC 1B33/1B44                  31045                       CLEAR R3,R4               Subject ptr, option flags
 004BB0 5810 B08C/1B00_      0008C 31051                       SCAN  SHMPRT
 004C02 58E0 788A/0DEE       05404 31083                       SCANCHK
 004C08 1853                       31088                       LR    R5,R3               R5 options
 004C0A 1864                       31089                       LR    R6,R4               R6 subject ptr
                                   31090
 004C0C 9180 BD55/47E0_00D55       31091                       IF    CPFDUMP,'CLEAR CPFVER'
                                   31118
 004C18 9120 BD58/47E0_00D58       31119                       IF    CPFVER,BEGIN        Verify...
 004C20 5050 BC88            00C88 31134  1                      ST    R5,CPDOUB           Flag byte
 004C24 9110 BC8B      00C8B       31135  1                      TM    CPDOUB+3,L'SHMFDEL
 004C28 4780 70CC            04C46 31136  1                      IF    Z,EXIT
 004C2C 5450 788E            05408 31150  1                      N     R5,=A(-1-L'SHMFDEL)
 004C30 4110 784E/4100_      053C8 31151  1                      TSEG  'DELETE ignored, NOVERIFY must also be specified.',,CR
 004C42 4770 C7DA            007DA 31169  1                      BNZ   CVABORT
 004C46                            31170                       END
                                   31174
 004C46 41F0 0001/5EF0_      00001 31175                       INCR  R15,CVMSHML         Count the SHOW MAIL
 004C52 9180 BD55/47E0_00D55       31181                       IF    CPFDUMP,'INCR R15,CVMSHMLD'  Count DUMP MAIL
                                   31207                       ¿þþþþþþþþþþþþþþþþþþþþþþþþþþþþþþþþþþþþþþþþþþþþþþþþþþþþþþþþþÜ
                                   31208                       Ÿ  Temporary limitation because we use halfword pagenos.  Ÿ
                                   31209                       ¾þþþþþþþþþþþþþþþþþþþþþþþþþþþþþþþþþþþþþþþþþþþþþþþþþþþþþþþþþ»
 004C66 9140 C4C8/47E0_004C8       31210                       IF    CVFMEMPAGE,BEGIN    Trouble...
 004C6E 4110 78EF/4100_      05469 31225  1                      ABORT 'SHOW MAIL command not available in this Wylbur.'
 004C7A                            31232                       END
                                   31236                       ¿þþþþþþþþþþþþþþþþþþþþþþþþþþþþþþþþþþþþþþþþþþþþþþþþþþþþþþþÜ
                                   31237                       Ÿ  Niz's famous SHOW MAIL experiment, started 6/27/86.  Ÿ
                                   31238                       ¾þþþþþþþþþþþþþþþþþþþþþþþþþþþþþþþþþþþþþþþþþþþþþþþþþþþþþþþ»
 004C7A 18ED/41D0 D43C_            31239                       TPUSH
 004CAE 184D/41D0 D03C             31277                       XPUSH ,,L'SEGCB,PTR=R4
 004CB4 4110 B242/4100_      00242 31280                       SEGINIT CPCMD,,(R4)
1MAIL     (MAIL4072) (12:48) (15MAR04) SHOW MAIL Command                                                                    Page   88
0Current Usings:  (*,R7) (KWR-(4+36),R8) (CP,R11) (CV,R12)
0Loc    Object Code    Addr1 Addr2  Stmt Lv Lineno    Source Statement           (Hibal 5, Asmedit 3.3)  HLASM R4.0  2004/03/15 12.48
+___    ______ ____    _____ _____  ____ __ ______    ______ _________
0004CC4 182D/41D0 D0EC             31305                       XPUSH ,,L'CPCMD,PTR=R2
 004CCA 5050 BD78            00D78 31308                       ST    R5,CPWK7            Option flags
                                   31309
 004CCE 4130 00EB            000EB 31310                       LA    R3,L'CPCMD
 004CD2 4110 791E/4100_      05498 31311                       SETMSG 'SES.MAIL_SHOWMAIL'  Var containing SHOW MAIL cmd
 004CDA 58E0 789A/0DEE       05414 31315                       VCALL EVALSTR             Get contents of var
 004CE0 4720 7258            04DD2 31319                       IF    NP,BEGIN            Variable is defined...
 004CE4 1233/47D0 7258             31330  1                      IF    (R3,NP),EXIT        Null string means don't do it
 004CEA 1812/1803/18F4_            31347  1                      SEG   (R2),(R3)           Command text
 004CF6 4110 792F/4100_      054A9 31370  1                      SEG   '/'                 Parms
 004D06 D504 B3B4 BC48_003B4 00C48 31385  1                      IF    (CPSACCT,NE,CPCACCT),BEGIN  Different account...
 004D10 4110 C4D8/4100_      004D8 31403  2                        SEG   CVBLANKS,1
 004D20 4110 BC4B/4100_      00C4B 31430  2                        SEG   CPCGRP
 004D30 4110 7930/4100_      054AA 31455  2                        SEG   '.'
 004D40 4110 BC48/4100_      00C48 31470  2                        SEG   CPCUSER
 004D50                            31495  1                      END
 004D50 9180 BD7B      00D7B       31499  1                      TM    CPWK7+3,L'SHMFALL
 004D54 4780 71EE/4110_      04D68 31500  1                      IF    NZ,'SEG " ALL"'
 004D68 9140 BD7B      00D7B       31531  1                      TM    CPWK7+3,L'SHMFKEPT
 004D6C 4780 7206/4110_      04D80 31532  1                      IF    NZ,'SEG " KEPT"'
 004D80 9120 BD7B      00D7B       31563  1                      TM    CPWK7+3,L'SHMFCHR
 004D84 4780 721E/4110_      04D98 31564  1                      IF    NZ,'SEG " CHRON"'
                                   31595  1
 004D98 9180 BD55/4710_00D55       31596  1                      IF    CPFDUMP,EXIT        Can't handle this
 004DA0 9110 BD58/4710_00D58       31614  1                      IF    CPFINT,EXIT
 004DA8 9108 BD7B      00D7B       31632  1                      TM    CPWK7+3,L'SHMFSUM
 004DAC 4770 7258            04DD2 31633  1                      IF    NZ,EXIT             Can't handle SHOW MAIL SUMMARY
 004DB0 9104 BD7B      00D7B       31647  1                      TM    CPWK7+3,L'SHMFSTAT
 004DB4 4770 7258            04DD2 31648  1                      IF    NZ,EXIT             Can't handle SHOW MAIL STATUS
                                   31662  1
 004DB8 D201 B240 400E 00240 0000E 31663  1                      WITH  (SEGCB,R4),'MVC CPCMDLEN,SEGCBLENF+2'  Set cmd len
 USING  SEGCB,R4
 DROP   SEGCB,R4
 004DBE 94EF B477      00477       31687  1                      CLEAR CPFTYPED            Don't log the command
 004DC2 4110 B242/4800_      00242 31694  1                      SETMSG CPCMD,LH:CPCMDLEN   Command text
 004DCA 58E0 78A6/0DEE       05420 31707  1                      VCALL EDTCOM              Go execute command
 004DD0 0000                       31711  1                      DC    H'0'                (No return)
 004DD2                            31712                       END
                                   31716
 004DD2 4BD0 78E0            0545A 31717                       XPOP  ,,L'CPCMD
 004DD6 4BD0 78E2            0545C 31719                       XPOP  ,,L'SEGCB
 004DDA 4BD0 78E4/D23B_      0545E 31721                       TPOP  JUNK
                                   31726                       ¿þþþþþþþþþþþþþþþþþþþþþþÜ
                                   31727                       Ÿ  Regular SHOW MAIL.  Ÿ
                                   31728                       ¾þþþþþþþþþþþþþþþþþþþþþþ»
 004DE4 D204 8028 BC48 00000 00C48 31729                       MVC   KWRUSER(5),CPCACCT
 004DEA 4800 78E6            05460 31730                       LH    R0,=H'-2'           Even priv'd must supply password
 004DEE 4110 8028            00000 31731                       LA    R1,KWR
 004DF2 58E0 78AA/0DEE       05424 31732                       VCALL GETKWR              Read kwr, prompt for kw, etc.
                                   31736
 004DF8 41F0 8028            00000 31737                       LA    R15,KWR             Kwr ptr
 004DFC 1805                       31738                       LR    R0,R5               Option flags
 004DFE 1816                       31739                       LR    R1,R6               Subject ptr (or zero)
 004E00 58E0 78AE/0DEE       05428 31740                       ACALL MAILDISP
1MAIL     (MAIL4072) (12:48) (15MAR04) SHOW MAIL Command                                                                    Page   89
0Current Usings:  (*,R7) (KWR-(4+36),R8) (CP,R11) (CV,R12)
0Loc    Object Code    Addr1 Addr2  Stmt Lv Lineno    Source Statement           (Hibal 5, Asmedit 3.3)  HLASM R4.0  2004/03/15 12.48
+___    ______ ____    _____ _____  ____ __ ______    ______ _________
0004E06 4740 C7EA            007EA 31744                       BM    CVNOACTN            Mail aborted by attn
 004E0A D7FF 8028 8028_00000 00000 31745                       CLEAR KWR
 004E16 47F0 C7DE            007DE 31753                       B     CVNEXT
 004E1A 18D8/9808 D004_            31754                       PEND
 DROP   KWR-(4+36),R8
 DROP   *,R7
1MAIL     (MAIL4072) (12:48) (15MAR04) SHOW MAIL Command                                                                    Page   90
0Current Usings:  (CP,R11) (CV,R12)
0Loc    Object Code    Addr1 Addr2  Stmt Lv Lineno    Source Statement           (Hibal 5, Asmedit 3.3)  HLASM R4.0  2004/03/15 12.48
+___    ______ ____    _____ _____  ____ __ ______    ______ _________
0004E28 C1D3D34040404040_          31780              SHMPRT   SCKW  ALL,SHMLALL
 004E50 D2C5D7E340404040_          31795                       SCKW  KEPT,SHMLKEPT,A
 004E78 E2E4C2D1C5C3E340_          31810                       SCKW  SUBJECT,SHMLSUB,(A,P)
 004EA0 E2E4D4D4C1D9E840_          31825                       SCKW  SUMMARY,SHMLSUM,A
 004EC8 C9D5E3C5D9D5C1D3_          31840                       SCKW  INTERNAL,SHMLINT,A
 004EF0 C3C8D9D6D5D6D3D6_          31855                       SCKW  CHRONOLOGICAL,SHMLCHR,A
 004F18 D5D6C3C8D9D6D5D6_          31870                       SCKW  NOCHRONOLOGICAL,SHMLNCHR,A
 004F40 C4C5D3C5E3C54040_          31885                       SCKW  DELETE,SHMLDEL,A
 004F68 D5D6C4C5D3C5E3C5_          31900                       SCKW  NODELETE,SHMLNDEL,A
 004F90 D4C8C5C1C4C5D940_          31915                       SCKW  MHEADER,SHMLMHDR,A
 004FB8 D4C8C4D940404040_          31930                       SCKW  MHDR,SHMLMHDR
 004FE0 E4C8C5C1C4C5D940_          31945                       SCKW  UHEADER,SHMLUHDR,A
 005008 E4C8C4D940404040_          31960                       SCKW  UHDR,SHMLUHDR
 005030 E2E3C1E3E4E24040_          31975                       SCKW  STATUS,SHMLSTAT,A
 005058 C5D4E2C6D3C1C740_          31990                       SCKW  EMSFLAG,SHMLEMS
 005080 4040404040404040_          32005                       SCKW  ,V(ACCTPSHC),PUSH
 0050A8 4040404040404040_          32020                       SCKW  ,V(SCNNOOP),V(MATUID)  ALLOW USERID TOO
 0050D0 4040404040404040_          32035                       SCKW  ,V(VERPSH),PUSH
 0050F8 4040404040404040_          32050                       SCKW  ,V(COLLPSH),PUSH
 005120 4040404040404040_          32065                       SCKW  ,V(NOTVALID)
0005148 50E0 D000/9008_      00000 32081              SHMLSUB  PROC
 USING  *,R7
 005162 5810 B08C/4111_      0008C 32120                       SCUPTOK R1
 00516A D207 BD7C 1000 00D7C 00000 32124                       MVC   CPWK8(8),@R1
 005170 4140 BD7C            00D7C 32125                       LA    R4,CPWK8
 005174 5630 72CA            0542C 32126                       O     R3,=A(L'SHMFKEPT)
 005178 9034 8010            00010 32127                       PRETURN (R3,R4)
 00517C 1BFF                       32129                       CLEAR R15
 00517E 18D8/9808 D004_            32133                       PEND
 DROP   *,R7
                                   32153
 00518C 50E0 D000/9008_      00000 32154              SHMLALL  PROC
 USING  *,R7
 0051A6 5630 728A            05430 32193                       O     R3,=A(L'SHMFALL)
 0051AA 5038 0010            00010 32194                       PRETURN (R3)
 0051AE 18D8/9808 D004_            32196                       PEND
 DROP   *,R7
                                   32216
 0051BC 50E0 D000/9008_      00000 32217              SHMLKEPT PROC
 USING  *,R7
 0051D6 5630 7256            0542C 32256                       O     R3,=A(L'SHMFKEPT)
 0051DA 5038 0010            00010 32257                       PRETURN (R3)
 0051DE 18D8/9808 D004_            32259                       PEND
 DROP   *,R7
                                   32279
 0051EC 50E0 D000/9008_      00000 32280              SHMLSUM  PROC
 USING  *,R7
 005206 5630 722E            05434 32319                       O     R3,=A(L'SHMFSUM)
 00520A 5038 0010            00010 32320                       PRETURN (R3)
 00520E 18D8/9808 D004_            32322                       PEND
 DROP   *,R7
                                   32342
 00521C 50E0 D000/9008_      00000 32343              SHMLCHR  PROC
1MAIL     (MAIL4072) (12:48) (15MAR04) SHOW MAIL Command                                                                    Page   91
0Current Usings:  (*,R7) (CP,R11) (CV,R12)
0Loc    Object Code    Addr1 Addr2  Stmt Lv Lineno    Source Statement           (Hibal 5, Asmedit 3.3)  HLASM R4.0  2004/03/15 12.48
+___    ______ ____    _____ _____  ____ __ ______    ______ _________
0USING  *,R7
 005236 5630 7202            05438 32382                       O     R3,=A(L'SHMFCHR)
 00523A 5038 0010            00010 32383                       PRETURN (R3)
 00523E 18D8/9808 D004_            32385                       PEND
 DROP   *,R7
                                   32405
 00524C 50E0 D000/9008_      00000 32406              SHMLNCHR PROC
 USING  *,R7
 005266 5430 71D6            0543C 32445                       N     R3,=A(-1-L'SHMFCHR)
 00526A 5038 0010            00010 32446                       PRETURN (R3)
 00526E 18D8/9808 D004_            32448                       PEND
 DROP   *,R7
                                   32468
 00527C 50E0 D000/9008_      00000 32469              SHMLDEL  PROC
 USING  *,R7
 005296 5630 71AA            05440 32508                       O     R3,=A(L'SHMFDEL)
 00529A 5038 0010            00010 32509                       PRETURN (R3)
 00529E 18D8/9808 D004_            32511                       PEND
 DROP   *,R7
                                   32531
 0052AC 50E0 D000/9008_      00000 32532              SHMLNDEL PROC
 USING  *,R7
 0052C6 5430 7142            05408 32571                       N     R3,=A(-1-L'SHMFDEL)
 0052CA 5038 0010            00010 32572                       PRETURN (R3)
 0052CE 18D8/9808 D004_            32574                       PEND
 DROP   *,R7
                                   32594
 0052DC 50E0 D000/9008_      00000 32595              SHMLMHDR PROC
 USING  *,R7
 0052F6 5630 714E            05444 32634                       O     R3,=A(L'SHMFMHDR)
 0052FA 5038 0010            00010 32635                       PRETURN (R3)
 0052FE 18D8/9808 D004_            32637                       PEND
 DROP   *,R7
                                   32657
 00530C 50E0 D000/9008_      00000 32658              SHMLUHDR PROC
 USING  *,R7
 005326 5630 7122            05448 32697                       O     R3,=A(L'SHMFUHDR)
 00532A 5038 0010            00010 32698                       PRETURN (R3)
 00532E 18D8/9808 D004_            32700                       PEND
 DROP   *,R7
                                   32720
 00533C 50E0 D000/9008_      00000 32721              SHMLSTAT PROC
 USING  *,R7
 005356 5630 70F6            0544C 32760                       O     R3,=A(L'SHMFSTAT)
 00535A 5038 0010            00010 32761                       PRETURN (R3)
 00535E 18D8/9808 D004_            32763                       PEND
 DROP   *,R7
                                   32783
 00536C 50E0 D000/9008_      00000 32784              SHMLEMS  PROC  ,              (Nothing for now)
 USING  *,R7
 005386 18D8/9808 D004_            32823                       PEND
 DROP   *,R7
                                   32843
 005394 50E0 D000/9008_      00000 32844              SHMLINT  PROC  ,
1MAIL     (MAIL4072) (12:48) (15MAR04) SHOW MAIL Command                                                                    Page   92
0Current Usings:  (*,R7) (CP,R11) (CV,R12)
0Loc    Object Code    Addr1 Addr2  Stmt Lv Lineno    Source Statement           (Hibal 5, Asmedit 3.3)  HLASM R4.0  2004/03/15 12.48
+___    ______ ____    _____ _____  ____ __ ______    ______ _________
0USING  *,R7
 0053AE 9610 BD58      00D58       32883                       SET   CPFINT
 0053B2 18D8/9808 D004_            32889                       PEND
 DROP   *,R7
                                   32909
                                   32910                       QLTORG
1MAIL     (MAIL4072) (12:48) (15MAR04) SHOW MAIL Command                                                                    Page   93
0Current Usings:  (CP,R11) (CV,R12)
0Loc    Object Code    Addr1 Addr2  Stmt Lv Lineno    Source Statement           (Hibal 5, Asmedit 3.3)  HLASM R4.0  2004/03/15 12.48
+___    ______ ____    _____ _____  ____ __ ______    ______ _________
0                                  32960              SHMWSEC# EQU   5,,C'N'             Number of seconds to wait
                                   32961              SHMDMAX# EQU   SENWMAX#,,C'N'      Maximum no. of MAILDEFQ files
-000000                00000 00471 32963              SHMWA    RECORD BEGIN
 000000 00                         32971  1           SHMFLAG    FLAG
 SHMFLAG.SHMFKEEP  80 ONES         32975  1                      FLAG  SHMFKEEP            - Don't scratch mail ds
 SHMFLAG.SHMFCHNG  40 ONES         32980  1                      FLAG  SHMFCHNG            - At least one change made
 SHMFLAG.SHMFSKIP  20 ONES         32985  1                      FLAG  SHMFSKIP            - Skip entire item
 SHMFLAG.SHMFMLQ   10 ONES         32990  1                      FLAG  SHMFMLQ             - Mail queue files exist
 SHMFLAG.SHMFWAIT  08 ONES         32995  1                      FLAG  SHMFWAIT            - We've tried waiting a few secs
                                   33000  1
 000001 00                         33001  1           SHMFOPT    FLAG
 SHMFOPT.SHMFALL   80 ONES         33005  1                      FLAG  SHMFALL             - Display all mail
 SHMFOPT.SHMFKEPT  40 ONES         33010  1                      FLAG  SHMFKEPT            - Display "kept" mail
 SHMFOPT.SHMFCHR   20 ONES         33015  1                      FLAG  SHMFCHR             - Display in chronological order
 SHMFOPT.SHMFDEL   10 ONES         33020  1                      FLAG  SHMFDEL             - Delete displayed mail
 SHMFOPT.SHMFSUM   08 ONES         33025  1                      FLAG  SHMFSUM             - Summary
 SHMFOPT.SHMFSTAT  04 ONES         33030  1                      FLAG  SHMFSTAT            - Display mailbox status
 SHMFOPT.SHMFMHDR  02 ONES         33035  1                      FLAG  SHMFMHDR            - Display mail headers
 SHMFOPT.SHMFUHDR  01 ONES         33040  1                      FLAG  SHMFUHDR            - Display user headers
                                   33045  1
 000002                            33046  1           SHMQCNT    DS    H                   Number of MAIL data sets found
                                   33047  1
 000004                            33048  1           SHMSUBJ    DS    CL8                 Subject
                                   33049  1                    ¿þþþþþþþþþþþþþþþþþþþþþþþþþþþþþþþþþþþþþþþþþþþþþþþþþþþþþþþþþþþþþþþþþÜ
                                   33050  1                    Ÿ    SHMBOXES is an array of the mailboxes we are using.  If the  Ÿ
                                   33051  1                    Ÿ  byte is non-zero then we are using that mailbox.  BOXES[0] is  Ÿ
                                   33052  1                    Ÿ    the MAIL data set, BOXES[1] is MAIL.DEFQ0001, etc.           Ÿ
                                   33053  1                    ¾þþþþþþþþþþþþþþþþþþþþþþþþþþþþþþþþþþþþþþþþþþþþþþþþþþþþþþþþþþþþþþþþþ»
 00000C                            33054  1           SHMBOXES   DS    XL(1+SHMDMAX#)      One byte per possible mailbox
                                   33055  1
 000012                            33056  1           SHMNCNT    DS    H                   No. of new items
 000014                            33057  1           SHMKCNT    DS    H                   No. of kept items
                                   33058  1
 000018                            33059  1           SHMLINES   DS    F                   Total no. of mail lines
 00001C                            33060  1           SHMCOUNT   DS    F                   Total no. of mail bytes
                                   33061  1
 000020                            33062  1           SHMKWRP    DS    A                   KWR pointer
                                   33063  1
 000024                            33064  1           SHMLNO     DS    F                   Work line-number
                                   33065  1
 000028                            33066  1           SHMMAST    DS    H                   Master directory page
                                   33067  1
                                   33068  1           SHMDIR#    EQU   MWADIR#+MWANEW#     Max no of pages
 00002A                            33069  1           SHMMDIR    DS    H           [Order] Max offset allowed
 00002C                            33070  1           SHMNDIR    DS    H           [Order] Current offset from SHMDIR
 00002E                            33071  1           SHMDIR     DS    (SHMDIR#)H  [Order] Mail directory
                                   33072  1
 0000E2 00                         33073  1           SHMIFLAG   FLAG
 SHMIFLAG.SHMFATTN 80 ONES         33077  1                      FLAG  SHMFATTN            - Skip remainder of item (attn)
 SHMIFLAG.SHMFRETY 40 ONES         33082  1                      FLAG  SHMFRETY            - Item being retyped
                                   33087  1
 0000E3                            33088  1           SHMISTAT   DS    C                   Status char
1MAIL     (MAIL4072) (12:48) (15MAR04) SHOW MAIL Command                                                                    Page   94
0Current Usings:  (CP,R11) (CV,R12)
0Loc    Object Code    Addr1 Addr2  Stmt Lv Lineno    Source Statement           (Hibal 5, Asmedit 3.3)  HLASM R4.0  2004/03/15 12.48
+___    ______ ____    _____ _____  ____ __ ______    ______ _________
00000E4                            33089  1           SHMISUBJ   DS    CL8                 Subject
 0000EC                            33090  1           SHMPTRS    DS    3F                  Current dir ptrs
 0000F8                            33091  1           SHMIPTRS   DS    3F                  Item start dir ptrs
 000104                            33092  1           SHMCPTRS   DS    3F                  Init cont. dir ptrs
 000110                            33093  1           SHMPPTRS   DS    3F                  Print dir ptrs
 00011C                            33094  1           SHMLCNT    DS    H                   Item line count
 00011E                            33095  1           SHMBCNT    DS    H                   Item byte count
 000120                            33096  1           SHMSCNT    DS    H                   Item skip count
                                   33097  1           SHMITEM    EQU   SHMIFLAG,*-SHMIFLAG,C'X'
                                   33098  1
                                   33099  1           SHMLINE    DS    CL(&PRESSZ)
 000122                                   1          +SHMLINE    DS    CL(256)
 000222                            33100  1                      DS    CL(100)             Slop space (in case bad UNPRESS)
                                   33101  1           SHMLINE2   DS    CL(&LINESZ)
 000286                                   1          +SHMLINE2   DS    CL(235)
 000371                            33102  1                      DS    CL(256)             Slop
 000471                00471 00471 33103                       END
1MAIL     (MAIL4072) (12:48) (15MAR04) SHOW MAIL Command                                                                    Page   95
0Current Usings:  (CP,R11) (CV,R12)
0Loc    Object Code    Addr1 Addr2  Stmt Lv Lineno    Source Statement           (Hibal 5, Asmedit 3.3)  HLASM R4.0  2004/03/15 12.48
+___    ______ ____    _____ _____  ____ __ ______    ______ _________
0                                  33113              ¿þþþþþþþþþþþþþþþþþþþþþþþþþþþþþþþþþþþþþþþþþþþþþþþþþþþþþþþþþþþþþþþþþþþþþÜ
                                   33114              Ÿ                                                                     Ÿ
                                   33115              Ÿ  MAILDISP -- Routine to display mail.  This routine is either       Ÿ
                                   33116              Ÿ    called at logon (if auto mail is in effect) or by the            Ÿ
                                   33117              Ÿ    SHOW MAIL command.                                               Ÿ
                                   33118              Ÿ                                                                     Ÿ
                                   33119              Ÿ      On entry:                                                      Ÿ
                                   33120              Ÿ        R15- KWR ptr                                                 Ÿ
                                   33121              Ÿ        R0 - flag byte (see "SHMFOPT")                               Ÿ
                                   33122              Ÿ        R1 - address of 8 char subject (or zeros)                    Ÿ
                                   33123              Ÿ                                                                     Ÿ
                                   33124              Ÿ      On exit, R15 (and CC):                                         Ÿ
                                   33125              Ÿ        -4 - attn hit, mail not displayed                            Ÿ
                                   33126              Ÿ         0 - ok                                                      Ÿ
                                   33127              Ÿ         4 - some sort of error occured                              Ÿ
                                   33128              Ÿ                                                                     Ÿ
                                                      ¾þþþþþþþþþþþþþþþþþþþþþþþþþþþþþþþþþþþþþþþþþþþþþþþþþþþþþþþþþþþþþþþþþþþþþ»
-0054B0 50E0 D000/9028_      00000 33130              MAILDISP XENTER
 USING  *,R7
 0054CA 186D/41D0 D474             33149                       XPUSH ,,L'SHMWA,PTR=R6
 0054D0 5060 BCA4            00CA4 33152                       ST    R6,CPCWA            Save shmwa ptr
 USING  SHMWA,R6                   33153                       USING SHMWA,R6
 0054D4 D7FF 6000 6000_00000 00000 33162                       CLEAR SHMWA               Init work area
 0054F2 D201 602A 7AE2 0002A 05FAC 33173                       MVC   SHMMDIR,=AL2(SHMDIR#*2)
 0054F8 4200 6001            00001 33174                       STC   R0,SHMFOPT          Save option flags
 0054FC 1211/4780 703E_            33175                       IF    (R1,NZ),'MVC SHMSUBJ,@R1'  Save subject
                                   33195
 005508 185F                       33196                       LR    R5,R15              Kwr ptr
 USING  KWR,R5                     33197                       WITH  (KWR,R5),BEGIN
 00550A 5050 6020            00020 33211  1                      ST    R5,SHMKWRP          Save ptr to kwr
                                   33212  1
 00550E 9104 6001/47E0_00001       33213  1                      IF    SHMFSTAT,BEGIN      Give mailbox status (only)...
 005516 D504 BC48 B3B4_00C48 003B4 33228  2                        IF    (CPCACCT,NE,CPSACCT),BEGIN
 005520 4110 BC4B/4100_      00C4B 33246  3                          TSEG  CPCGRP
 005532 4110 7B30/4100_      05FFA 33274  3                          TSEG  '.'
 005544 4110 BC48/4100_      00C48 33292  3                          TSEG  CPCUSER
 005556 4110 7B31/4100_      05FFB 33320  3                          TSEG  ' - '
 005568                            33338  2                        END
 005568 4110 5000            00000 33342  2                        LA    R1,KWR
 00556C 58E0 79D2/0DEE       05E9C 33343  2                        VCALL MBOXDISP            (Give mailbox status, in ACCT)
 005572 47F0 C7DE            007DE 33347  2                        B     CVNEXT
 005576                            33348  1                      END
                                   33352  1
 005576 41F0 5000            00000 33353  1                      LA    R15,KWR
 00557A 58E0 79D6/0DEE       05EA0 33354  1                      ACALL MAILCHK             Give user mailbox info
                                   33358  1
 005580 91C0 5036/4770_00036       33359  1                      IF    (KWRSFL.KWRSFMAI+KWRSFKEP,Z),BEGIN
 005588 4110 7916/4100_      05DE0 33380  2                        SETMSG 'No mail.'
 005590 D207 B886 791E 00886 05DE8 33384  2                        MVC   CPERRID,=CL8'NOMAIL'
 005596 47F0 7110            055DA 33385  2                        B     SHMLKMSG
 00559A                            33386  1                      END
 00559A 9180 6001/4710_00001       33390  1                      IF    ~SHMFALL,BEGIN
1MAIL     (MAIL4072) (12:48) (15MAR04) SHOW MAIL Command                                                                    Page   96
0Current Usings:  (KWR,R5) (SHMWA,R6) (*,R7) (CP,R11) (CV,R12)
0Loc    Object Code    Addr1 Addr2  Stmt Lv Lineno    Source Statement           (Hibal 5, Asmedit 3.3)  HLASM R4.0  2004/03/15 12.48
+___    ______ ____    _____ _____  ____ __ ______    ______ _________
00055A2 9140 6001/4710_00001       33405  2                        IF    ~SHMFKEPT,BEGIN
 0055AA 9140 5036/4710_00036       33420  3                          IF    KWRSFL.KWRSFMAI,SHMLMACX
 0055B2 4110 79DA/4100_      05EA4 33439  3                          SETMSG 'No new mail.'
 0055BA D207 B886 7926 00886 05DF0 33443  3                          MVC   CPERRID,=CL8'NONEWML'
 0055C0 47F0 7110            055DA 33444  3                          B     SHMLKMSG
 0055C4                            33445  2                        END
 0055C4 9180 5036/4710_00036       33449  2                        IF    KWRSFL.KWRSFKEP,SHMLMACX
 0055CC 4110 7B34/4100_      05FFE 33468  2                        SETMSG 'No kept mail.'
 0055D4 D207 B886 792E 00886 05DF8 33472  2                        MVC   CPERRID,=CL8'NOKEPTML'
 0055DA 9110 BD58/4710_00D58       33473  2           SHMLKMSG     IF    ~CPFINT,'TSEG (R1),(R0),CR'
 0055EC 1BFF                       33518  2                        CLEAR R15
 0055EE 47F0 780A            05CD4 33522  2                        B     SHMLEXIT
 0055F2                            33523  1                      END
                                   33527  1                      ¿þþþþþþþþþþþþþþþþþþþþþþþþþþþþþþþþþþþþþþþþþþþþþþþþþþþþþþþþÜ
                                   33528  1                      Ÿ  Check to see if we can display mail on this machine.  Ÿ
                                   33529  1                      ¾þþþþþþþþþþþþþþþþþþþþþþþþþþþþþþþþþþþþþþþþþþþþþþþþþþþþþþþþ»
 0055F2 1FFF/43F0 C067             33530  1           SHMLMACX   LC    R15,CVMACH
 0055F8 44F0 7C24/9100_      060EE 33537  1                      EX    R15,'TM KWRMPRIM,0'  Only SHOW MAIL on primary...
 0055FC 4770 71F2            056BC 33553  1                      IF    Z,BEGIN             Not primary machine...
 005600 4110 7B41/4100_      0600B 33564  2                        TSEG  'Mail for '
 005612 4110 BC4B/4100_      00C4B 33582  2                        TSEG  CPCGRP
 005624 4110 7B30/4100_      05FFA 33610  2                        TSEG  '.'
 005636 4110 BC48/4100_      00C48 33628  2                        TSEG  CPCUSER
 005648 4110 7936/4100_      05E00 33656  2                        TSEG  ' cannot be displayed on '
 00565A 4110 C00C/4100_      0000C 33674  2                        TSEG  CVMACHID,,T
 00566C 4110 7AE4/4100_      05FAE 33702  2                        TSEG  ', try '
 00567E 181D/41D0 D040             33720  2                        XPUSH ,,64,PTR=R1
                                   33723  2                        SETMSG (R1),(R0)           Work area
 005684 1FFF/43F0 50AE             33733  2                        LC    R15,KWRMPRIM
 00568A 58E0 79EE/0DEE       05EB8 33740  2                        VCALL GETMACH
 005690 41F0 B050/58E0_      00050 33744  2                        TSEG  (R1),(R0)
 00569A 4BD0 7AEA            05FB4 33768  2                        XPOP  ,,64
 00569E 4110 7B4A/4100_      06014 33770  2                        TSEG  ' instead.'
 0056B0 D207 B886 794E 00886 05E18 33788  2                        MVC   CPERRID,=CL8'NOMLMACH'
 0056B6 1BFF                       33789  2                        CLEAR R15
 0056B8 47F0 780A            05CD4 33793  2                        B     SHMLEXIT
 0056BC                            33794  1                      END
                                   33798  1                      ¿þþþþþþþþþþþþþþþþþþþþþþþþþÜ
                                   33799  1                      Ÿ  MAILDEFQ files exist.  Ÿ
                                   33800  1                      ¾þþþþþþþþþþþþþþþþþþþþþþþþþ»
 0056BC 9120 5036/47E0_00036       33801  1                      IF    KWRSFL.KWRSFMLQ,BEGIN  MailQ files exist...
 0056C4 4130 000A            0000A 33817  2                        LA    R3,10               Max KWR retry count
 0056C8 1233/47D0 722A_            33818  2                        WHILE ((R3,POS),AND,KWRIFL.KWRIFVAL),BEGIN
 0056D6 94DF 5036      00036       33849  3                          CLEAR KWRSFL.KWRSFMLQ     Must reset before checking files
 0056DA 1815/4100 0080_            33857  3                          KWRITE KWR
 0056E6 9140 51F4/4710_001F4       33870  3                          IF    KWRHFL.KWRHFUOK,EXIT
 0056EE 0630                       33889  3                          DECR  R3
 0056F0 47F0 71FE            056C8 33891  2                        END
                                   33896  2
 0056F4 9610 6000      00000       33897  2                        SET   SHMFMLQ             Mail defq files may exist
 0056F8 9640 6000      00000       33903  2                        SET   SHMFCHNG            Mailbox must be rewritten
 0056FC                            33909  1                      END
 DROP   KWR,R5                     33913                       END
1MAIL     (MAIL4072) (12:48) (15MAR04) SHOW MAIL Command                                                                    Page   97
0Current Usings:  (SHMWA,R6) (*,R7) (CP,R11) (CV,R12)
0Loc    Object Code    Addr1 Addr2  Stmt Lv Lineno    Source Statement           (Hibal 5, Asmedit 3.3)  HLASM R4.0  2004/03/15 12.48
+___    ______ ____    _____ _____  ____ __ ______    ______ _________
0                                  33921                       ¿þþþþþþþþþþþþþþþþþþþþþþþþþþþþþþþþþþþÜ
                                   33922                       Ÿ  Main SHOW MAIL item processing.  Ÿ
                                   33923                       ¾þþþþþþþþþþþþþþþþþþþþþþþþþþþþþþþþþþþ»
 0056FC 50F0 D000/58F0_      00000 33924                       PFLIP ,
 USING  JCB,R15
 DROP   JCB,R15
 005720 58E0 79F6/0DEE       05EC0 33965                       VCALL PGETNEW             Get new page in PAR
 005726 4780 7266/58E0_      05730 33969                       IF    NZ,'VCALL NOMORPG'
 005730 58E0 79FE/0DEE       05EC8 33989                       VCALL PTEMP               Make it a temporary page
 005736 50F0 D000/58F0_      00000 33993                       PFLIP ,                   New into PBR
 USING  JCB,R15
 DROP   JCB,R15
 00575A 4000 6028            00028 34034                       STH   R0,SHMMAST          Save pageno
 00575E D701 A000 A000 00000 00000 34035                       CLEAR (@PBR,2)
 005764 58E0 7A02/0DEE       05ECC 34042                       PMARK PBR
                                   34047                   ¿þþþþþþþþþþþþþþþþþþþþþþþþþþþþþþþþþþþþþþþþþþþþþþþþþþþþþþþþþþþþþþþþþþþÜ
                                   34048                   Ÿ  Read in all the MAIL items.  This means reading the contents of  Ÿ
                                   34049                   Ÿ        the MAIL and MAILDEFQ files.                               Ÿ
                                   34050                   ¾þþþþþþþþþþþþþþþþþþþþþþþþþþþþþþþþþþþþþþþþþþþþþþþþþþþþþþþþþþþþþþþþþþþ»
 00576A D7FF BE5C BE5C_00E5C 00E5C 34051              SHMLRDLP CLEAR (CPDSNWA,DSAVSIZ)   Init dsnwa
 005776 D203 BDA0 7A06 00DA0 05ED0 34060                       MVC   CPSEQFLD(4),=H'-1,8'  Init seqflds
 00577C 9280 BD9C      00D9C       34061                       MVI   CPLRCL,X'80'        Init file type
 005780 9601 BF3B      00F3B       34062                       SET   DSNDTYPE.DSNDDISK   It's a disk
 005784 96C0 BF34      00F34       34069                       SET   DSNWAF1.DSNFSTD+DSNFMYDS
 005788 D727 BE90 BE90 00E90 00E90 34079                       CLEAR DSNON               No special volume
 00578E 94DF BD56      00D56       34086                       CLEAR CPFNOCAT            Use the catalog
                                   34093
 005792 4120 000F            0000F 34094                       LA    R2,15               L'WYL.gg.uuu.MAIL
 005796 D22B BE5C 7A0A 00E5C 05ED4 34095                       MVC   DSNWADSN,=CL44'WYL.gg.uuu.MAIL'
 00579C D201 BE60 BC4B 00E60 00C4B 34096                       MVC   DSNWADSN+4(2),CPCGRP  Group
 0057A2 D202 BE63 BC48 00E63 00C48 34097                       MVC   DSNWADSN+7(3),CPCUSER  User
                                   34098
 0057A8 48F0 6002/12FF       00002 34099                       LTH   R15,SHMQCNT
 0057AE 12FF/4780 7306             34103                       IF    (R15,NZ),BEGIN      Build ".DEFQnnnn" suffix...
 0057B4 D208 BE6B 7B53 00E6B 0601D 34117  1                      MVC   DSNWADSN+15(9),=C'.DEFQnnnn'
 0057BA 5AF0 7A36            05F00 34118  1                      A     R15,=A(100000)      High order zeros
 0057BE 4100 0004/4110_      00004 34119  1                      BTD   DSNWADSN+20,4,(R15)
 0057CC 4120 0018            00018 34141  1                      LA    R2,24               L'WYL.gg.uuu.MAIL.DEFQnnnn
 0057D0                            34142                       END
 0057D0 4020 BF06            00F06 34146                       STH   R2,DSNWANL          Save data set name length
                                   34147
 0057D4 9640 BF37      00F37       34148                       SET   DSNFSML             Show mail (checked in DISK)
                                   34154                    ¿þþþþþþþþþþþþþþþþþþþþþþþþþþþþþþþþþþþþþþþþþþþþþþþþþþþþþþþþþþþþþþþþþþÜ
                                   34155                    Ÿ  ENQ on MAIL data set name.  If the data set is busy, then wait  Ÿ
                                   34156                    Ÿ       a few seconds and then try it again.                       Ÿ
                                   34157                    ¾þþþþþþþþþþþþþþþþþþþþþþþþþþþþþþþþþþþþþþþþþþþþþþþþþþþþþþþþþþþþþþþþþþ»
 0057D8 41F0 0001            00001 34158              SHMLENQ  LA    R15,1               Temporary enq
 0057DC 58E0 7A3E/0DEE       05F08 34159                       VCALL DENQ                Enq on data set
 0057E2 4780 7374            0583E 34163                       IF    NZ,BEGIN            Can't enqueue...
 0057E6 9108 6000/47E0_00000       34174  1                      IF    SHMFWAIT,BEGIN      We've already tried waiting...
 0057EE 4110 7AEC/4100_      05FB6 34189  2                        TSEG  'Unable to SHOW MAIL.  '
 005800 4110 7B5C/4100_      06026 34207  2                        TSEG  'Your mailbox is currently in use.',,CR
 005812 D207 B886 7956 00886 05E20 34225  2                        MVC   CPERRID,=CL8'MLINUSE'
 005818 9640 BD5A      00D5A       34226  2                        SET   CPFERROR
1MAIL     (MAIL4072) (12:48) (15MAR04) SHOW MAIL Command                                                                    Page   98
0Current Usings:  (SHMWA,R6) (*,R7) (CP,R11) (CV,R12)
0Loc    Object Code    Addr1 Addr2  Stmt Lv Lineno    Source Statement           (Hibal 5, Asmedit 3.3)  HLASM R4.0  2004/03/15 12.48
+___    ______ ____    _____ _____  ____ __ ______    ______ _________
000581C 48F0 7B02            05FCC 34232  2                        LH    R15,=H'-4'
 005820 47F0 7770            05C3A 34233  2                        B     SHMLFREE
 005824                            34234  1                      END
                                   34238  1
 005824 9608 6000      00000       34239  1                      SET   SHMFWAIT            Only do this once
 005828 41F0 01F4            001F4 34245  1                      LA    R15,SHMWSEC#*100    Number of seconds to wait
 00582C 58E0 7A42/0DEE       05F0C 34246  1                      VCALL WAITER              Wait a few seconds
 005832 4780 730E            057D8 34250  1                      BZ    SHMLENQ             Try it again
                                   34251  1
 005836 48F0 7B02            05FCC 34252  1                      LH    R15,=H'-4'
 00583A 47F0 7770            05C3A 34253  1                      B     SHMLFREE            Break, forget it
 00583E                            34254                       END
                                   34258
 00583E 94F7 6000      00000       34259                       CLEAR SHMFWAIT            Reset wait flag
                                   34266                       ¿þþþþþþþþþþþþþþþþþþþþþþþþþþþþþþþþþþþþþþþþþþþþþþÜ
                                   34267                       Ÿ  Open the MAIL file and read it's contents.  Ÿ
                                   34268                       ¾þþþþþþþþþþþþþþþþþþþþþþþþþþþþþþþþþþþþþþþþþþþþþþ»
 005842 58E0 7A46/0DEE       05F10 34269                       VCALL EXTOPEN             Open data set, etc.
 005848 122F                       34273                       LTR   R2,R15              Return code
 00584A 4780 73EA            058B4 34274                       IF    NZ,BEGIN            Error...
 00584E 5920 7A4A/4770_      05F14 34285  1                      IF    (R2,EQ,4),BEGIN     File not found...
 005856 9180 B8AA/47E0_008AA       34302  2                        IF    CPRFEXT,'VCALL EXTCLOSE'  Tidy up
 005864 D601 6002 6002_00002 00002 34326  2                        IF    (SHMQCNT,NZ),'VCALL DDEQ'  Dequeue on DEFQ DSNAME
 005874 47F0 7470            0593A 34351  2                        B     SHMLNBOX            Go check next
 005878                            34352  1                      END
                                   34356  1
 005878 947F BD55      00D55       34357  1                      CLEAR CPFDUMP
 00587C 5920 7A56/4770_      05F20 34364  1                      IF   (R2,EQ,RTNVOLNA),'TSEG "Mailbox volume not available. "'
 005896 4110 7B7D/4100_      06047 34404  1                      TSEG  'Unable to display mail.',,CR
 0058A8 9680 BD5A      00D5A       34422  1                      SET   CPFABORT
 0058AC 48F0 7B02            05FCC 34428  1                      LH    R15,=H'-4'
 0058B0 47F0 7770            05C3A 34429  1                      B     SHMLFREE
 0058B4                            34430                       END
                                   34434
 0058B4 48F0 6002            00002 34435                       LH    R15,SHMQCNT
 0058B8 411F 600C            0000C 34436                       LA    R1,SHMBOXES(R15)    MAIL data set list
 0058BC 92FF 1000      00000       34437                       MVI   @R1,X'FF'           We are using this MAIL data set
                                   34438                       ¿þþþþþþþþþþþþþþþþþþþþþþþþþþþþþþþþþþþþþþþþþþþþÜ
                                   34439                       Ÿ  Process all the lines in this mail file.  Ÿ
                                   34440                       ¾þþþþþþþþþþþþþþþþþþþþþþþþþþþþþþþþþþþþþþþþþþþþ»
 0058C0 9200 BD88      00D88       34441                       CLEAR CPFRDRNG
 0058C4 9680 BD88      00D88       34448                       SET   CPFEXPRG            Set explicit range
 0058C8 D703 BD90 BD90 00D90 00D90 34454                       CLEAR CPFSLN              Range (all)
 0058CE D203 BD94 C15C 00D94 0015C 34461                       MVC   CPLSLN,CVMAXLNO
 0058D4 58F0 784A            05D14 34462                       L     R15,SHMLWRK
 0058D8 58E0 7A5A/0DEE       05F24 34463                       VCALL DESPOT              (Co-routine is SHMLRTN)
 0058DE 4780 742A/41F0_      058F4 34467                       IF    NZ,'TCLEAR; LH R15,=H"-4"; B SHMLFREE'
 0058F4 9180 B8AA/47E0_008AA       34499                       IF    CPRFEXT,'VCALL EXTCLOSE'  (Enq will remain)
 005902 48F0 7B22            05FEC 34523                       LH    R15,=AL2(MWADIR#*2)  Offset for full mailbox
 005906 49F0 602C/47B0_      0002C 34524                       IF    ((R15,LT,SHMNDIR),AND,~CPFINT),BEGIN
 005916 4110 795E/4100_      05E28 34555  1                      TSEG  'WARNING -- This mailbox is FULL.',,CR
                                   34573  1         C            TSEG  'No additional mail can be received until "NEW" or "KEPT
 005928 4110 797E/4100_      05E48        1                            " mail is deleted by you.',,WR
 00593A                            34591                       END
1MAIL     (MAIL4072) (12:48) (15MAR04) SHOW MAIL Command                                                                    Page   99
0Current Usings:  (SHMWA,R6) (*,R7) (CP,R11) (CV,R12)
0Loc    Object Code    Addr1 Addr2  Stmt Lv Lineno    Source Statement           (Hibal 5, Asmedit 3.3)  HLASM R4.0  2004/03/15 12.48
+___    ______ ____    _____ _____  ____ __ ______    ______ _________
0                                  34595                       ¿þþþþþþþþþþþþþþþþþþþþþþþþþþþþþþþþþþþþþþþþþþþþþþþþþþþþþþÜ
                                   34596                       Ÿ  Go back and read more MAILDEFQ files if necessary.  Ÿ
                                   34597                       ¾þþþþþþþþþþþþþþþþþþþþþþþþþþþþþþþþþþþþþþþþþþþþþþþþþþþþþþ»
 00593A 9110 6000/47E0_00000       34598              SHMLNBOX IF    ~SHMFMLQ,SHMLSHOW   Don't look for MailQ files
 005942 D501 7B24 6002_05FEE 00002 34617                       IF    (SHMQCNT,GE,SHMDMAX#),SHMLSHOW  No more MailQ files
 00594C 41F0 0001/4AF0_      00001 34638                       INCR  R15,SHMQCNT         Set up for next MailQ file
 005958 47F0 72A0            0576A 34644                       B     SHMLRDLP            Go look for more mail files
1MAIL     (MAIL4072) (12:48) (15MAR04) SHOW MAIL Command                                                                    Page  100
0Current Usings:  (SHMWA,R6) (*,R7) (CP,R11) (CV,R12)
0Loc    Object Code    Addr1 Addr2  Stmt Lv Lineno    Source Statement           (Hibal 5, Asmedit 3.3)  HLASM R4.0  2004/03/15 12.48
+___    ______ ____    _____ _____  ____ __ ______    ______ _________
0                                  34646              ***
                                   34647              ***  We have now read in all the items from the MAIL/MAILDEFQ files.
                                   34648              ***  Now process them item by item.
                                   34649              ***
 00595C 1F00/BF03 6028_            34650              SHMLSHOW PGET  PBR,L2:SHMMAST
                                   34663
 005968 9120 6001/47E0_00001       34664                       IF    SHMFCHR,BEGIN       Chron style...
 005970 4850 A000            00000 34679  1                      LH    R5,@PBR
 005974 1B44                       34680  1                      CLEAR R4
 005976 1945/47B0 74CC             34684  1                      WHILE (R4,LT,R5),BEGIN    Go thru items...
 00597C 480A 4002            00002 34701  2                        LH    R0,@R4+2(PBR)       Offset in dir
 005980 481A 4004            00004 34702  2                        LH    R1,@R4+4(PBR)       Offset in page
 005984 58E0 7A6A/0DEE       05F34 34703  2                        ACALL SMITEM
 00598A 4770 74F6            059C0 34707  2                        BNZ   SHMLFIN
 00598E 4140 4004            00004 34708  2                        LA    R4,@R4+4            Next item
 005992 47F0 74AC            05976 34709  1                      END
 005996                            34714                       END
                                   34718
 005996 74D0/47F0 74F6 05996 0596E 34719                       ELSE  BEGIN               Latest item first...
 00599A 4850 A000            00000 34730  1                      LH    R5,@PBR
 00599E 1845                       34731  1                      LR    R4,R5
 0059A0 1244/47D0 74F6             34732  1                      WHILE (R4,POS),BEGIN      Go thru items...
 0059A6 4B40 7B26            05FF0 34748  2                        SH    R4,=H'4'            Back up
 0059AA 480A 4002            00002 34749  2                        LH    R0,@R4+2(PBR)       Offset in dir
 0059AE 481A 4004            00004 34750  2                        LH    R1,@R4+4(PBR)       Offset in page
 0059B2 58E0 7A6A/0DEE       05F34 34751  2                        ACALL SMITEM
 0059B8 4770 74F6            059C0 34755  2                        BNZ   SHMLFIN
 0059BC 47F0 74D6            059A0 34756  1                      END
 0059C0                            34761                       END
                                   34765
 0059C0 9140 6000/4710_00000       34766              SHMLFIN  IF    ~SHMFCHNG,BEGIN     Nothing changed...
 0059C8 9140 BD58/4710_00D58       34782  1                      IF    ~CPFFIRST,BEGIN     Nothing...
 0059D0 9110 BD58/4710_00D58       34797  2                        IF    CPFINT,SHMLFREE
 0059D8 4110 7B94/4100_      0605E 34815  2                        TSEG  'No '
 0059EA 9180 6001/4710_00001       34833  2                        IF    ~SHMFALL,BEGIN
 0059F2 9140 6001/47E0_00001       34848  3                          IF    SHMFKEPT,'TSEG "Kept "'
 005A0C D607 6004 6004_00004 00004 34886  3                          IF    (SHMSUBJ,NZ),BEGIN
 005A16 4110 7B9C/4100_      06066 34902  4                            TSEG  '"'
 005A28 4110 6004/4100_      00004 34920  4                            SETMSG SHMSUBJ
 005A30 58E0 7A6E/0DEE       05F38 34934  4                            VCALL LRTRIM
 005A36 41F0 B050/58E0_      00050 34938  4                            TSEG  (R1),(R0)
 005A40 4110 7B28/4100_      05FF2 34962  4                            TSEG  '" '
 005A52                            34980  3                          END
 005A52                            34984  2                        END
 005A52 4110 7A72/4100_      05F3C 34988  2                        TSEG  'mail exists.',,CR
 005A64                            35006  1                      END
 005A64 1BFF                       35010  1                      CLEAR R15
 005A66 47F0 7770            05C3A 35014  1                      B     SHMLFREE
 005A6A                            35015                       END
1MAIL     (MAIL4072) (12:48) (15MAR04) SHOW MAIL Command                                                                    Page  101
0Current Usings:  (SHMWA,R6) (*,R7) (CP,R11) (CV,R12)
0Loc    Object Code    Addr1 Addr2  Stmt Lv Lineno    Source Statement           (Hibal 5, Asmedit 3.3)  HLASM R4.0  2004/03/15 12.48
+___    ______ ____    _____ _____  ____ __ ______    ______ _________
0                                  35019                       ¿þþþþþþþþþþþþþþþþþþþþþþþþþþþþþþþþþþþþþþþþþþþþþþþþþþÜ
                                   35020                       Ÿ  Make sure we update the primary MAIL data set.  Ÿ
                                   35021                       ¾þþþþþþþþþþþþþþþþþþþþþþþþþþþþþþþþþþþþþþþþþþþþþþþþþþ»
 005A6A 94DF BD56      00D56       35022                       CLEAR CPFNOCAT            Use the catalog
 005A6E D727 BE90 BE90 00E90 00E90 35029                       CLEAR DSNON               (We don't know the volume)
 005A74 D22B BE5C 7A0A 00E5C 05ED4 35036                       MVC   DSNWADSN,=CL44'WYL.gg.uuu.MAIL'
 005A7A D201 BE60 BC4B 00E60 00C4B 35037                       MVC   DSNWADSN+4(2),CPCGRP  Group
 005A80 D202 BE63 BC48 00E63 00C48 35038                       MVC   DSNWADSN+7(3),CPCUSER  User
 005A86 D201 BF06 7B2A 00F06 05FF4 35039                       MVC   DSNWANL,=H'15'      L'WYL.gg.uuu.MAIL
                                   35040              *
                                   35041              *  This code used to scratch the MAIL data set if all the mail
                                   35042              *  has been read.  In order to reduce the number of times mailboxes
                                   35043              *  are scratched and re-allocated, the code is never executed and
                                   35044              *  WYLBUR just keeps a null (allocated) mail data set.
                                   35045              *
                                   35046              *PERF    IF    ((SHMNCNT,Z),AND,(SHMKCNT,Z)),BEGIN  Scratch...
                                   35047              *PERF    IF    SHMFKEEP,EXIT       Don't scratch it after all
                                   35048              *PERF    DSCRATCH
                                   35049              *PERF    IF    ('LTR R2,R15',NZ),BEGIN  Scratch didn't work...
                                   35050              *PERF    TSEG  'Mail not updated.  Scratch failed.',,CR
                                   35051              *PERF    SET   CPFABORT
                                   35052              *PERF    LH    R15,=H'-4'
                                   35053              *PERF    B     SHMLFREE
                                   35054              *PERF    END
                                   35055              *PERF    CLEAR R15                 All mail has been read
                                   35056              *PERF    B     SHMLFREE
                                   35057              *PERF    END
                                   35058              *
                                   35059              *  Must re-write mail data set because some items have been read.
                                   35060              *
 005A8C 9640 BD51      00D51       35061                       SET   CPLFLG2.CPFSCRTC    Ok to replace
 005A90 9604 BF36      00F36       35068                       SET   DSNWAF3.DSNFCHT     Ok to change type to edit
 005A94 D703 BD9C BD9C 00D9C 00D9C 35075                       CLEAR CPLRCL              Edit format
 005A9A 1B00/58F0 7A7E_            35082                       DOPEN 0,=A(SHMLSIZE),SAVE  Open for output
 005AAA 4780 763C            05B06 35095                       IF    NZ,BEGIN
 005AAE 182F                       35106  1                      LR    R2,R15              Save return code
 005AB0 4110 7B9D/4100_      06067 35107  1                      TSEG  'Mail not updated.  '
 005AC2 1B00                       35125  1                      CLEAR R0
 005AC4 5920 7A86/4770_      05F50 35129  1                      IF    (R2,EQ,RTNNOSPC),'SETMSG "No space after scratch."'
 005AD4 5920 7A8A/4770_      05F54 35155  1                      IF    (R2,EQ,RTNNOACS),'SETMSG "Access not permitted."'
 005AE4 5920 7A56/4770_      05F20 35181  1                      IF   (R2,EQ,RTNVOLNA),'SETMSG "Mailbox volume not available."'
 005AF4 41F0 B050/58E0_      00050 35207  1                      TSEG  (R1),(R0),CR
 005AFE 48F0 7B02            05FCC 35231  1                      LH    R15,=H'-4'
 005B02 47F0 7770            05C3A 35232  1                      B     SHMLFREE
 005B06                            35233                       END
                                   35237
 005B06 4120 0002            00002 35238                       LA    R2,2                Assume edit save
 005B0A 5830 BD9C            00D9C 35239                       L     R3,CPLRCL           Get lrecl
 005B0E 1233                       35240                       LTR   R3,R3               Is it edit or fixed
 005B10 4780 7652            05B1C 35241                       BZ    SHMLED              Br if edit
 005B14 0630                       35242                       DECR  R3                  Set lrecl for ex moves
 005B16 5030 BD64            00D64 35244                       ST    R3,CPNREC           Put in nrec
 005B1A 1B22                       35245                       SR    R2,R2               Set displacement for fixed
 005B1C 5010 BDD8            00DD8 35246              SHMLED   ST    R1,CPDRED           Save external I/O buff addr
1MAIL     (MAIL4072) (12:48) (15MAR04) SHOW MAIL Command                                                                    Page  102
0Current Usings:  (SHMWA,R6) (*,R7) (CP,R11) (CV,R12)
0Loc    Object Code    Addr1 Addr2  Stmt Lv Lineno    Source Statement           (Hibal 5, Asmedit 3.3)  HLASM R4.0  2004/03/15 12.48
+___    ______ ____    _____ _____  ____ __ ______    ______ _________
0005B20 5000 BD68            00D68 35247                       ST    R0,CPRCSZ           Save output record size
 005B24 1A12                       35248                       AR    R1,R2               Point to addr for first text byte
 005B26 5010 BD6C            00D6C 35249                       ST    R1,CPNXAD           Save
 005B2A 5020 BD70            00D70 35250                       ST    R2,CPNWCT           Into current count
                                   35251
 005B2E D703 6024 6024 00024 00024 35252                       CLEAR SHMLNO              Init lineno
 005B34 94DF 6000      00000       35259                       CLEAR SHMFSKIP
                                   35266
 005B38 1B44                       35267                       CLEAR R4                  Init offset in dir
 005B3A 4940 602C/47B0_      0002C 35271                       WHILE (R4,LT,SHMNDIR),BEGIN
 005B42 41F4 602E            0002E 35290  1                      LA    R15,SHMDIR(R4)
 005B46 1F00/BF03 F000_            35291  1                      PGET  PAR,L2:@R15
 005B52 4830 9000            00000 35304  1                      LH    R3,@PAR
 005B56 1B22                       35305  1                      CLEAR R2
 005B58 1923/47B0 7744             35309  1                      WHILE (R2,LT,R3),BEGIN    Go thru lines in page...
 005B5E 4112 9002            00002 35326  2                        LA    R1,@PAR+2(R2)
 005B62 9500 1000/4780_00000       35327  2                        IF    (@R1,NE,X'00'),BEGIN  Non-null...
 005B6A 91F0 1001/4770_00001       35343  3                          IF    (@R1+1.X'F0',NZ),EXIT  leading blanks, scram
 005B72 43F0 1001            00001 35364  3                          IC    R15,@R1+1
 005B76 54F0 7A92            05F5C 35365  3                          N     R15,=A(X'F')        Char count
 005B7A 59F0 7A96/4740_      05F60 35366  3                          IF    (R15,LT,2),EXIT     Scram
 005B82 955C 1002/4770_00002       35386  3                          IF    (@R1+2,EQ,'*'),BEGIN  Special line...
 005B8A 955C 1003/4780_00003       35402  4                            IF    (@R1+3,EQ,'*'),EXIT
 005B92 957A 1003/4780_00003       35421  4                            IF    (@R1+3,EQ,':'),EXIT
 005B9A 94DF 6000      00000       35440  4                            CLEAR SHMFSKIP
 005B9E 95C4 1003/4770_00003       35447  4                            IF    (@R1+3,EQ,'D'),'SET SHMFSKIP'
 005BAA                            35474  3                          END
 005BAA                            35478  2                        END
 005BAA 9120 6000/4710_00000       35482  2                        IF    ~SHMFSKIP,BEGIN
 005BB2 41F0 03E8            003E8 35497  3                          LA    R15,1000            Lineno increment
 005BB6 5AF0 6024            00024 35498  3                          A     R15,SHMLNO
 005BBA 50F0 6024            00024 35499  3                          ST    R15,SHMLNO          Save incremented lineno
                                   35500  3
 005BBE D203 6122 6024 00122 00024 35501  3                          MVC   SHMLINE(4),SHMLNO   Move in lineno
 005BC4 1FFF/43F0 1000             35502  3                          LC    R15,@R1             Size of pressed line
 005BCA 41F0 F001            00001 35509  3                          LA    R15,@R15+1          Including the length byte
 005BCE 06F0/12FF/4740_            35510  3                          MOVE  R15,SHMLINE+4,@R1   Copy pressed line
 005BDA 41F0 6122            00122 35548  3                          LA    R15,SHMLINE
 005BDE 5020 D000/41D0_      00000 35549  3                          XPUSH R2
 005BE6 4110 6286            00286 35552  3                          LA    R1,SHMLINE2
 005BEA 58E0 7A9A/0DEE       05F64 35553  3                          VCALL UNPRESS             EXTWRITE wants unpress.  CH 5/91
 005BF0 182F                       35557  3                          LR    R2,R15              R1,R0-text loc,len R2-line no
 005BF2 58E0 7A9E/0DEE       05F68 35558  3                          VCALL EXTWRITE            Buffer/write this line
 005BF8 4BD0 7B2C/5820_      05FF6 35562  3                          XPOP  R2
 005C00                            35565  2                        END
 005C00 1FFF/43F2 9002             35569  2                        LC    R15,@PAR+2(R2)
 005C06 4122 F001            00001 35576  2                        LA    R2,@R15+1(R2)
 005C0A 47F0 768E            05B58 35577  1                      END
 005C0E 58E0 7AA2/0DEE       05F6C 35582  1                      PFREE PAR
 005C14 41F4 602E            0002E 35588  1                      LA    R15,SHMDIR(R4)
 005C18 1F00/BF03 F000_            35589  1                      PJUNK L2:@R15,TEMP
 005C2A 4140 4002            00002 35606  1                      LA    R4,@R4+2            Next dir entry
 005C2E 47F0 7670            05B3A 35607                       END
                                   35612              *
1MAIL     (MAIL4072) (12:48) (15MAR04) SHOW MAIL Command                                                                    Page  103
0Current Usings:  (SHMWA,R6) (*,R7) (CP,R11) (CV,R12)
0Loc    Object Code    Addr1 Addr2  Stmt Lv Lineno    Source Statement           (Hibal 5, Asmedit 3.3)  HLASM R4.0  2004/03/15 12.48
+___    ______ ____    _____ _____  ____ __ ______    ______ _________
0                                  35613              *        COMMENT                   FINAL WRITE REMOVED BY CH 05/91
                                   35614              *        CLEAR R15
                                   35615              *        VCALL EXTWRITE            Do final write
                                   35616              *
 005C32 94EF 6000      00000       35617                       CLEAR SHMFMLQ             We've processed our DEFQ files
                                   35624
 005C36 41F0 0004            00004 35625              SHMLERR  LA    R15,4               Some sort of error
 005C3A 182F                       35626              SHMLFREE LR    R2,R15
 005C3C 9180 B8AA/47E0_008AA       35627                       IF    CPRFEXT,BEGIN       Close and DEQ dsn...
 005C44 58E0 7A4E/0DEE       05F18 35642  1                      VCALL EXTCLOSE            Close
 005C4A 58E0 7A52/0DEE       05F1C 35646  1                      VCALL DDEQ                Dequeue
 005C50                            35650                       END
                                   35654
 005C50 1222/4740 779A_            35655                       IF    ((R2,~NEG),AND,SHMFCHNG),BEGIN  Scr MAILQ files...
 005C5E 58E0 7AAE/0DEE       05F78 35683  1                      ACALL SCRMAILQ            Scratch any MAILDEFQ files
 005C64                            35687                       END
                                   35691
 005C64 5850 6020            00020 35692                       L     R5,SHMKWRP
 USING  KWR,R5                     35693                       WITH  (KWR,R5),BEGIN
 005C68 4130 000A            0000A 35707  1                      LA    R3,10               Max kwrite retry count
 005C6C 1233/47D0 7808_            35708  1                      WHILE ((R3,POS),AND,KWRIFL.KWRIFVAL),BEGIN
                                   35739  2
 005C7A 1222/4740 77D6             35740  2                        IF    (R2,~NEG),BEGIN
 005C80 943F 5036      00036       35754  3                          CLEAR KWRSFL.KWRSFMAI+KWRSFKEP
 005C84 D601 6012 6012_00012 00012 35765  3                          IF    (SHMNCNT,NZ),'SET KWRSFL.KWRSFMAI'
 005C92 D601 6014 6014_00014 00014 35793  3                          IF    (SHMKCNT,NZ),'SET KWRSFL.KWRSFKEP'
 005CA0                            35821  2                        END
                                   35825  2
 005CA0 9110 6000/47E0_00000       35826  2                        IF    SHMFMLQ,'SET KWRSFL.KWRSFMLQ'
 005CAC 9120 5036/47E0_00036       35853  2                        IF    KWRSFL.KWRSFMLQ,'SET KWRSFL.KWRSFMAI'  (Important!)
 005CB8 1815/4100 0080_            35881  2                        KWRITE KWR
 005CC4 9140 51F4/4710_001F4       35894  2                        IF    KWRHFL.KWRHFUOK,EXIT
 005CCC 0630                       35913  2                        DECR  R3
 005CCE 47F0 77A2            05C6C 35915  1                      END
 DROP   KWR,R5                     35920                       END
 005CD2 18F2                       35928                       LR    R15,R2              Set rc
                                   35929
 005CD4 182F                       35930              SHMLEXIT LR    R2,R15              Save rc
 005CD6 9180 B8AA/47E0_008AA       35931                       IF    CPRFEXT,'VCALL EXTCLOSE'  Tidy up
 005CE4 94DF BD56      00D56       35955                       CLEAR CPFNOCAT            Tidy up
 005CE8 D7FF BE5C BE5C_00E5C 00E5C 35962                       CLEAR (CPDSNWA,DSAVSIZ)   Tidy up also
 005CF4 18F2                       35970                       LR    R15,R2              Restore rc
                                   35971
 005CF6 18D8/58E0 D000_            35972                       XEXIT ,,LTR
                                   35978
 005D04 41F0 B050/58E0_      00050 35979              SHMLEMSG TSEG  (R1),(R0),CR
 005D0E 47F0 776C            05C36 36004                       B     SHMLERR
-005D14                            36006                       DS    0F
 005D14 E4                         36007              SHMLWRK  DC    AL1(DESRTRN+LXCATRTN+PREST+DESABORT)
 005D15 006C3E                     36008                       DC    AL3(SHMLRTN)
1MAIL     (MAIL4072) (12:48) (15MAR04) SHOW MAIL Command                                                                    Page  104
0Current Usings:  (SHMWA,R6) (*,R7) (CP,R11) (CV,R12)
0Loc    Object Code    Addr1 Addr2  Stmt Lv Lineno    Source Statement           (Hibal 5, Asmedit 3.3)  HLASM R4.0  2004/03/15 12.48
+___    ______ ____    _____ _____  ____ __ ______    ______ _________
0                                  36010              ¿þþþþþþþþþþþþþþþþþþþþþþþþþþþþþþþþþþþþþþþþþþþþþþþþþþþþþþþþþþþþþþþþþþþþþÜ
                                   36011              Ÿ                                                                     Ÿ
                                   36012              Ÿ  SCRMAILQ -- Local routine to scratch all the MAILDEFQ files        Ÿ
                                   36013              Ÿ    processed.                                                       Ÿ
                                   36014              Ÿ                                                                     Ÿ
                                   36015              Ÿ    On entry:                                                        Ÿ
                                   36016              Ÿ      R6 - SHMWA ptr (assumed)                                       Ÿ
                                   36017              Ÿ                                                                     Ÿ
                                                      ¾þþþþþþþþþþþþþþþþþþþþþþþþþþþþþþþþþþþþþþþþþþþþþþþþþþþþþþþþþþþþþþþþþþþþþ»
0005D18 50E0 D000/9008_      00000 36018              SCRMAILQ PROC
 DROP   *,R7
 USING  *,R7
 005D32 4120 0001            00001 36060                       LA    R2,1
 005D36 5920 724A/4730_      05F7C 36061                       WHILE (R2,LE,SHMDMAX#),BEGIN  We need to scratch...
 005D3E 41F2 600C            0000C 36080  1                      LA    R15,SHMBOXES(R2)
 005D42 1F00/4300 F000             36081  1                      LC    R0,@R15
 005D48 1200/4780 7098             36086  1                      IF    (R0,NZ),BEGIN       We are using this MAILDEF file...
 005D4E 94DF BD56      00D56       36100  2                        CLEAR CPFNOCAT
 005D52 D727 BE90 BE90 00E90 00E90 36107  2                        CLEAR DSNON
 005D58 D22B BE5C 724E 00E5C 05F80 36114  2                        MVC   DSNWADSN,=CL44'WYL.gg.uuu.MAIL.DEFQnnnn'
 005D5E D201 BE60 BC4B 00E60 00C4B 36115  2                        MVC   DSNWADSN+4(2),CPCGRP  Group
 005D64 D202 BE63 BC48 00E63 00C48 36116  2                        MVC   DSNWADSN+7(3),CPCUSER  User
 005D6A 18F2                       36117  2                        LR    R15,R2
 005D6C 5AF0 71CE            05F00 36118  2                        A     R15,=A(100000)      Force leading zeros for BTD
 005D70 4100 0004/4110_      00004 36119  2                        BTD   DSNWADSN+20,4,(R15)
 005D7E D201 BF06 72C6 00F06 05FF8 36141  2                        MVC   DSNWANL,=H'24'      L'WYL.gg.uuu.MAIL.DEFQnnnn
 005D84 92C0 BF35/58E0_00F35       36142  2                        DSCRATCH
 005D8E 12FF/4780 7092             36153  2                        IF    (R15,NZ),BEGIN
 005D94 4110 7391/4100_      060C3 36167  3                          TSEG  'Minor mailbox problem -- unable to scratch '
 005DA6 4110 BE5C/4800_      00E5C 36185  3                          TSEG  DSNWADSN,LH:DSNWANL
 005DB8 1B00/41F0 B050_            36212  3                          TCR
 005DC4                            36237  2                        END
 005DC4 58E0 71EA/0DEE       05F1C 36241  2                        VCALL DDEQ                Dequeue dsname
 005DCA                            36245  1                      END
                                   36249  1
 005DCA 4120 2001            00001 36250  1                      LA    R2,@R2+1            Next MAILDEFQ file
 005DCE 47F0 7004            05D36 36251                       END
 005DD2 18D8/9808 D004_            36256                       PEND
 DROP   *,R7
 USING  *,R7
                                   36283
                                   36284                       QLTORG
1MAIL     (MAIL4072) (12:48) (15MAR04) SHOW MAIL Command                                                                    Page  105
0Current Usings:  (SHMWA,R6) (*,R7) (CP,R11) (CV,R12)
0Loc    Object Code    Addr1 Addr2  Stmt Lv Lineno    Source Statement           (Hibal 5, Asmedit 3.3)  HLASM R4.0  2004/03/15 12.48
+___    ______ ____    _____ _____  ____ __ ______    ______ _________
0000000                00000 0002C 36380              SMIWA    RECORD BEGIN
                                   36388  1                      XSA   R2,R8
 000000 0000000000000000           36389  1 01-XSA   +           DC    (R8+2-(R2))A(0)
                                   36390  1
 000020                            36391  1           SMIPBRNO   DS    F                   PBR pageno (on entry)
 000024                            36392  1           SMIPARNO   DS    F                   PAR pageno (PARSAVE/PARREST)
                                   36393  1
 000028                            36394  1           SMPRXPAR   DS    F                   PAR pageno on entry to SMPROMPT
 00002C                0002C 0002C 36395                       END
-                                  36405              ¿þþþþþþþþþþþþþþþþþþþþþþþþþþþþþþþþþþþþþþþþþþþþþþþþþþþþþþþþþþþþþþþþþþþþþÜ
                                   36406              Ÿ                                                                     Ÿ
                                   36407              Ÿ  SMITEM -- Routine to display mail item.                            Ÿ
                                   36408              Ÿ                                                                     Ÿ
                                   36409              Ÿ    On entry:                                                        Ÿ
                                   36410              Ÿ      R0 - offset in dir                                             Ÿ
                                   36411              Ÿ      R1 - offset in page                                            Ÿ
                                   36412              Ÿ                                                                     Ÿ
                                   36413              Ÿ    On exit, R15 (and CC):                                           Ÿ
                                   36414              Ÿ      0 - ok                                                         Ÿ
                                   36415              Ÿ      4 - attn                                                       Ÿ
                                   36416              Ÿ                                                                     Ÿ
                                                      ¾þþþþþþþþþþþþþþþþþþþþþþþþþþþþþþþþþþþþþþþþþþþþþþþþþþþþþþþþþþþþþþþþþþþþþ»
00060F8 50E0 D000/9028_      00000 36417              SMITEM   XENTER R2,R8,L'SMIWA,LOCAL
 DROP   *,R7
 USING  *,R7
 USING  SMIWA,R8                   36438                       USING SMIWA,WAR
                                   36447
 006112 9640 BC7D      00C7D       36448                       SET   CPFNPT              Don't allow p/p text
 006116 1850                       36454                       LR    R5,R0               Dir offset
 006118 1831                       36455                       LR    R3,R1               Page offset
                                   36456
 00611A 1B00                       36457                       CLEAR R0
 00611C 12AA/4780 7016_            36461                       IF    (PBR,NZ),'PNUM PBR'
 006128 5000 8020            00020 36485                       ST    R0,SMIPBRNO         Save PBR pageno
 00612C 58E0 7812/0DEE       06924 36486                       PFREE PBR
                                   36492
 006132 41F5 602E            0002E 36493                       LA    R15,SHMDIR(R5)
 006136 1F00/BF03 F000_            36494                       PGET  PAR,L2:@R15
 006142 4840 9000            00000 36507                       LH    R4,@PAR             Page len
                                   36508
 006146 D73F 60E2 60E2 000E2 000E2 36509                       CLEAR SHMITEM             Reset item info
 00614C 9035 60F8            000F8 36516                       STM   R3,R5,SHMIPTRS      Save pos in dir
                                   36517
 006150 41F9 3002            00002 36518              SMILOOP  LA    R15,@R3+2(PAR)
 006154 4BF0 7872            06984 36519                       SH    R15,=H'4'           Back up for mythical lineno
 006158 4110 6122            00122 36520                       LA    R1,SHMLINE
 00615C 58E0 781A/0DEE       0692C 36521                       VCALL UNPRESS
                                   36525
 006162 955C 1000/4770_00000       36526                       IF    (@R1,EQ,'*'),BEGIN  Control line...
 00616A 955C 1001/4780_00001       36542  1                      IF    (@R1+1,EQ,'*'),EXIT
 006172 957A 1001/4780_00001       36561  1                      IF    (@R1+1,EQ,':'),EXIT
1MAIL     (MAIL4072) (12:48) (15MAR04) SHOW MAIL Command                                                                    Page  106
0Current Usings:  (SHMWA,R6) (*,R7) (SMIWA,R8) (CP,R11) (CV,R12)
0Loc    Object Code    Addr1 Addr2  Stmt Lv Lineno    Source Statement           (Hibal 5, Asmedit 3.3)  HLASM R4.0  2004/03/15 12.48
+___    ______ ____    _____ _____  ____ __ ______    ______ _________
000617A 47F0 70AC            061BE 36580  1                      B     SMIHDR
 00617E                            36581                       END
                                   36585
 00617E 9140 60E2/4710_000E2       36586                       IF    SHMFRETY,SHMITX     It's ok, if retyping item
 006186 58E0 781E/0DEE       06930 36604                       ACALL SHMTSEG             TSEG MIXED
 00618C 58E0 7822/0DEE       06934 36608                       ACALL PARSAVE             ((((((((
 006192 1B00/41F0 B050_            36612                       TCR
 00619E 4110 78BC/4100_      069CE 36637                       TSEG  'Mail logic problem.',,CR
 0061B0 58E0 782A/0DEE       0693C 36655                       ACALL PARREST             ))))))))
 0061B6 41F0 0004            00004 36659                       LA    R15,4
 0061BA 47F0 7344            06456 36660                       B     SMIEXIT
                                   36661
 0061BE D208 60E3 1001 000E3 00001 36662              SMIHDR   MVC   SHMISTAT(9),@R1+1   Save stat char & subj
 0061C4 1BFF                       36663                       CLEAR R15                 Preset rc
 0061C6 9180 6001/4710_00001       36667                       IF    ~SHMFALL,BEGIN
 0061CE 95D2 60E3/4770_000E3       36682  1                      IF    ((SHMISTAT,EQ,'K'),AND,~SHMFKEPT),SMIEXIT
 0061DE 95D2 60E3/4780_000E3       36716  1                      IF    ((SHMISTAT,NE,'K'),AND,SHMFKEPT),SMIEXIT
 0061EE                            36750                       END
                                   36754
 0061EE D607 6004 6004_00004 00004 36755                       IF    ((SHMSUBJ,NZ),AND,(SHMSUBJ,NE,SHMISUBJ)),SMIEXIT
                                   36791
 006202 9640 BD58      00D58       36792                       SET   CPFFIRST            At least one item found
                                   36798
 006206 9001 D000/41D0_      00000 36799                       XPUSH R0,R1
 00620E 9110 BD58/47E0_00D58       36802                       IF    CPFINT,BEGIN        Internal format...
 006216 D507 77EE 1002_06900 00002 36817  1                      IF    (@R1+2,EQ,'????????'),'MVC @R1+2(8),CVBLANKS'
 006226 58E0 7822/0DEE       06934 36839  1                      ACALL PARSAVE             ((((((((
 00622C 4100 000B/41F0_      0000B 36843  1                      TSEG  (R1),11
 00623A 58E0 782A/0DEE       0693C 36870  1                      ACALL PARREST             ))))))))
 006240                            36874                       END
                                   36878
 006240 7132/47F0 718A 06240 06214 36879                       ELSE  BEGIN
 006244 D607 6004 6004_00004 00004 36890  1                      IF    ((SHMSUBJ,NZ),OR,(@R1+2,EQ,'????????')),EXIT
 006258 1821                       36924  1                      LR    R2,R1
 00625A 58E0 7822/0DEE       06934 36925  1                      ACALL PARSAVE             ((((((((
 006260 4110 78CF/4100_      069E1 36929  1                      TSEG  '('
 006272 4110 2002/4100_      00002 36947  1                      TSEG  @R2+2,8,T
 006284 4110 7874/4100_      06986 36977  1                      TSEG  ') '
 006296 58E0 782A/0DEE       0693C 36995  1                      ACALL PARREST             ))))))))
 00629C                            36999                       END
 00629C 4BD0 7876/9801_      06988 37003                       XPOP  R0,R1
                                   37006
 0062A4 4110 100B            0000B 37007                       LA    R1,@R1+11
 0062A8 4B00 7878            0698A 37008                       SH    R0,=H'11'
 0062AC 47B0 71A0/1B00       062B2 37009                       IF    NEG,'CLEAR R0'
                                   37029
 0062B2 9108 6001/47E0_00001       37030                       IF    SHMFSUM,BEGIN       Summary...
 0062BA 18F1                       37045  1                      LR    R15,R1
 0062BC 1AF0                       37046  1                      AR    R15,R0
 0062BE 06F0                       37047  1                      DECR  R15
 0062C0 957A F000/4770_00000       37049  1                      IF    (@R15,EQ,':'),'DECR R0'
 0062CA 58E0 781E/0DEE       06930 37072  1                      ACALL SHMTSEG
 0062D0                            37076                       END
                                   37080
1MAIL     (MAIL4072) (12:48) (15MAR04) SHOW MAIL Command                                                                    Page  107
0Current Usings:  (SHMWA,R6) (*,R7) (SMIWA,R8) (CP,R11) (CV,R12)
0Loc    Object Code    Addr1 Addr2  Stmt Lv Lineno    Source Statement           (Hibal 5, Asmedit 3.3)  HLASM R4.0  2004/03/15 12.48
+___    ______ ____    _____ _____  ____ __ ______    ______ _________
00062D0 71C2/47F0 71EC 062D0 062B8 37081                       ELSE  BEGIN
 0062D4 58E0 781E/0DEE       06930 37092  1                      ACALL SHMTSEG
 0062DA 58E0 7822/0DEE       06934 37096  1                      ACALL PARSAVE             ((((((((
 0062E0 1B00/41F0 B050_            37100  1                      TCR
 0062EC 58E0 782A/0DEE       0693C 37125  1                      ACALL PARREST             ))))))))
 0062F2 4780 71EC/9035_      062FE 37129  1                      IF    NZ,'STM R3,R5,SHMCPTRS; SET SHMFATTN'
 0062FE                            37152                       END
                                   37156              *
                                   37157              *
 0062FE 1F00/4309 3002             37158                       LC    R0,@R3+2(PAR)
 006304 9140 60E2/4710_000E2       37163                       IF    ~SHMFRETY,BEGIN     Keep counts accurate...
 00630C 18F0                       37178  1                      LR    R15,R0
 00630E 41F0 F005            00005 37179  1                      LA    R15,@R15+5          True pressed len
 006312 4AF0 611E            0011E 37180  1                      AH    R15,SHMBCNT
 006316 40F0 611E            0011E 37181  1                      STH   R15,SHMBCNT
 00631A                            37182                       END
 00631A 1A30                       37186                       AR    R3,R0
 00631C 4130 3001            00001 37187                       LA    R3,@R3+1            Next line on page
 006320 1934/4750 721A_            37188                       IF    (R3,GE,R4),'LA R5,@R5+2; CLEAR R3'
                                   37213                       ¿þþþþþþþþþþþþþþþþþþþþþþþþþþÜ
                                   37214                       Ÿ  Now type text of item.  Ÿ
                                   37215                       ¾þþþþþþþþþþþþþþþþþþþþþþþþþþ»
 00632C 4950 602C/47B0_      0002C 37216              SHMITX   WHILE (R5,LT,SHMNDIR),BEGIN  Go through dir...
 006334 41F5 602E            0002E 37236  1                      LA    R15,SHMDIR(R5)
 006338 1F00/BF03 F000_            37237  1                      PGET  PAR,L2:@R15
 006344 4840 9000            00000 37250  1                      LH    R4,@PAR             Page len
 006348 1934/47B0 7322             37251  1                      WHILE (R3,LT,R4),BEGIN    Go thru lines in page...
 00634E 41F9 3002            00002 37268  2                        LA    R15,@R3+2(PAR)
 006352 4BF0 7872            06984 37269  2                        SH    R15,=H'4'           Backup for mythical lineno
 006356 4110 6122            00122 37270  2                        LA    R1,SHMLINE
 00635A 58E0 781A/0DEE       0692C 37271  2                        VCALL UNPRESS
                                   37275  2
 006360 955C 1000/4770_00000       37276  2                        IF    (@R1,EQ,'*'),BEGIN  Header...
 006368 D501 787A 1001_0698C 00001 37292  3                          IF    (@R1+1,EQ,'::'),BEGIN  Mail header...
 006372 9102 6001/47E0_00001       37308  4                            IF    ~SHMFMHDR,SMINEXT   Skip it
 00637A                            37326  3                          END
                                   37330  3
 00637A 726C/47F0 7284_0637A 06370 37331  3                          ELSEIF ((@R1+1,EQ,':'),AND,(@R1+2,NE,':')),BEGIN
 00638E 9101 6001/47E0_00001       37371  4                            IF    ~SHMFUHDR,SMINEXT   Skip it
 006396                            37389  3                          END
                                   37393  3
 006396 7288/7288/47F0_06396 06384 37394  3                          ELSE  BEGIN               Not a header...
 00639A 955C 1001/4770_00001       37407  4                            IF    (@R1+1,NE,'*'),SMIPR  End of item
 0063A2 9110 BD58/4710_00D58       37426  4                            IF    ~CPFINT,'LA R1,@R1+1; DECR R0'
 0063B0                            37449  3                          END
 0063B0                            37453  2                        END
                                   37457  2
 0063B0 41F0 0001/4AF0_      00001 37458  2                        INCR  R15,SHMLCNT         Kick item line count
 0063BC 9120 6000/4710_00000       37464  2                        IF    SHMFSKIP,SMIEXIT    Skip item entirely
 0063C4 9180 60E2/47E0_000E2       37482  2                        IF    SHMFATTN,'INCR R15,SHMSCNT; B SMINEXT'
 0063DC 9108 6001/4710_00001       37509  2                        IF    SHMFSUM,SMINEXT
                                   37527  2
 0063E4 58E0 781E/0DEE       06930 37528  2                        ACALL SHMTSEG
 0063EA 58E0 7822/0DEE       06934 37532  2                        ACALL PARSAVE             ((((((((
1MAIL     (MAIL4072) (12:48) (15MAR04) SHOW MAIL Command                                                                    Page  108
0Current Usings:  (SHMWA,R6) (*,R7) (SMIWA,R8) (CP,R11) (CV,R12)
0Loc    Object Code    Addr1 Addr2  Stmt Lv Lineno    Source Statement           (Hibal 5, Asmedit 3.3)  HLASM R4.0  2004/03/15 12.48
+___    ______ ____    _____ _____  ____ __ ______    ______ _________
00063F0 1B00/41F0 B050_            37536  2                        TCR
 0063FC 58E0 782A/0DEE       0693C 37561  2                        ACALL PARREST             ))))))))
 006402 4780 72FC/9035_      0640E 37565  2                        IF    NZ,'STM R3,R5,SHMCPTRS; SET SHMFATTN'
                                   37588  2
 00640E 1F00/4309 3002             37589  2           SMINEXT      LC    R0,@R3+2(PAR)
 006414 9140 60E2/4710_000E2       37594  2                        IF    ~SHMFRETY,BEGIN     Keep counts accurate...
 00641C 18F0                       37609  3                          LR    R15,R0
 00641E 41F0 F005            00005 37610  3                          LA    R15,@R15+5          True pressed len
 006422 4AF0 611E            0011E 37611  3                          AH    R15,SHMBCNT
 006426 40F0 611E            0011E 37612  3                          STH   R15,SHMBCNT
 00642A                            37613  2                        END
 00642A 1A30                       37617  2                        AR    R3,R0
 00642C 4130 3001            00001 37618  2                        LA    R3,@R3+1            Next line on page
 006430 47F0 7236            06348 37619  1                      END
                                   37624  1
 006434 41F0 5002            00002 37625  1                      LA    R15,@R5+2
 006438 49F0 602C/47A0_      0002C 37626  1                      IF    (R15,GE,SHMNDIR),SMIPR  last item, don't kick ptrs
 006440 1B33/1B44                  37646  1                      CLEAR R3,R4
 006444 4150 5002            00002 37652  1                      LA    R5,@R5+2            Next page in dir
 006448 47F0 721A            0632C 37653                       END
                                   37658
 00644C 58E0 7836/0DEE       06948 37659              SMIPR    ACALL SMPROMPT            Prompt for action
 006452 4740 703E            06150 37663                       BM    SMILOOP             Retype item
                                   37664
 006456 94BF BC7D      00C7D       37665              SMIEXIT  CLEAR CPFNPT              Reset
 00645A 50F0 D000/41D0_      00000 37673                       XPUSH R15
 006462 58E0 783A/0DEE       0694C 37676                       PFREE PAR
 006468 58E0 7812/0DEE       06924 37682                       PFREE PBR
 00646E 5800 8020/1200_      00020 37688                       IF    ('LT R0,SMIPBRNO',NZ),'PGET PBR,(R0)'
 00647E 4BD0 787C/58F0_      0698E 37717                       XPOP  R15
 006486 18D8/58E0 D000_            37720                       XEXIT ,,LTR
1MAIL     (MAIL4072) (12:48) (15MAR04) SHOW MAIL Command                                                                    Page  109
0Current Usings:  (SHMWA,R6) (*,R7) (SMIWA,R8) (CP,R11) (CV,R12)
0Loc    Object Code    Addr1 Addr2  Stmt Lv Lineno    Source Statement           (Hibal 5, Asmedit 3.3)  HLASM R4.0  2004/03/15 12.48
+___    ______ ____    _____ _____  ____ __ ______    ______ _________
0                                  37727              ¿þþþþþþþþþþþþþþþþþþþþþþþþþþþþþþþþþþþþþþþþþþþþþþþþþþþþþþþþþþþþþþþþþþþþþÜ
                                   37728              Ÿ                                                                     Ÿ
                                   37729              Ÿ  SMPROMPT -- Local routine to ask user what to do about item just   Ÿ
                                   37730              Ÿ    read.                                                            Ÿ
                                   37731              Ÿ                                                                     Ÿ
                                   37732              Ÿ    On entry:                                                        Ÿ
                                   37733              Ÿ      R3,R4,R5 - current mail dir ptrs                               Ÿ
                                   37734              Ÿ                                                                     Ÿ
                                   37735              Ÿ    On exit, R15 (and CC):                                           Ÿ
                                   37736              Ÿ      -4 - ptrs set for new item                                     Ÿ
                                   37737              Ÿ       0 - prompt done                                               Ÿ
                                   37738              Ÿ       4 - attn response to prompt                                   Ÿ
                                   37739              Ÿ                                                                     Ÿ
                                                      ¾þþþþþþþþþþþþþþþþþþþþþþþþþþþþþþþþþþþþþþþþþþþþþþþþþþþþþþþþþþþþþþþþþþþþþ»
0006494 50E0 D000/41D0_      00000 37740              SMPROMPT LENTER R0,R2
 0064A4 58E0 7842/0DEE       06954 37747                       PNUM  PAR
 0064AA 5000 8028            00028 37752                       ST    R0,SMPRXPAR         Save PAR pageno on entry
                                   37753
                                   37754                       COMMENT                   Nothing to scan yet
 0064AE 1B00                       37755                       CLEAR R0
 0064B0 1B11                       37759                       CLEAR R1
 0064B2 58E0 7846/0DEE       06958 37763                       OSCINIT (R1),(R0)
                                   37779
 0064B8 9120 6000/4710_00000       37780                       IF    SHMFSKIP,SMPOK
                                   37798
 0064C0 9035 60EC            000EC 37799                       STM   R3,R5,SHMPTRS       Save current ptrs
                                   37800
 0064C4 9108 6001/47E0_00001       37801                       IF    SHMFSUM,BEGIN       Summary...
 0064CC D601 611C 611C_0011C 0011C 37816  1                      IF    (SHMLCNT,NZ),BEGIN
 0064D6 58E0 7822/0DEE       06934 37832  2                        ACALL PARSAVE             ((((((((
 0064DC 4110 787E/4100_      06990 37836  2                        TSEG  '; '
 0064EE 4810 611C/1B00_      0011C 37854  2                        TNUM  LH:SHMLCNT
 0064FE 4110 7880/4100_      06992 37875  2                        TSEG  ' lines'
 006510 58E0 782A/0DEE       0693C 37893  2                        ACALL PARREST             ))))))))
 006516                            37897  1                      END
                                   37901  1
 006516 58E0 7822/0DEE       06934 37902  1                      ACALL PARSAVE             ((((((((
 00651C 1B00/41F0 B050_            37906  1                      TCR
 006528 58E0 782A/0DEE       0693C 37931  1                      ACALL PARREST             ))))))))
 00652E 4780 7428/41F0_      0653A 37935  1                      IF    NZ,'LA R15,4; B SMEXIT'  Attn
 00653A                            37953                       END
 00653A 742C/47F0 7546 0653A 064CA 37957                       ELSE  BEGIN
 00653E D601 6120 6120_00120 00120 37968  1                      IF    (SHMSCNT,NZ),BEGIN
 006548 947F BD55      00D55       37984  2                        CLEAR CPFDUMP
 00654C 9120 BD58/4710_00D58       37991  2                        IF    ~CPFVER,BEGIN
 006554 58E0 7822/0DEE       06934 38006  3                          ACALL PARSAVE             ((((((((
 00655A 4110 78D0/4100_      069E2 38010  3                          TSEG  'Mail not updated.',,CR
 00656C 58E0 782A/0DEE       0693C 38028  3                          ACALL PARREST             ))))))))
 006572 94BF 6000      00000       38032  3                          CLEAR SHMFCHNG
 006576 47F0 76AA            067BC 38039  3                          B     SMATTN
 00657A                            38040  2                        END
 00657A                            38044  1                      END
                                   38048  1
1MAIL     (MAIL4072) (12:48) (15MAR04) SHOW MAIL Command                                                                    Page  110
0Current Usings:  (SHMWA,R6) (*,R7) (SMIWA,R8) (CP,R11) (CV,R12)
0Loc    Object Code    Addr1 Addr2  Stmt Lv Lineno    Source Statement           (Hibal 5, Asmedit 3.3)  HLASM R4.0  2004/03/15 12.48
+___    ______ ____    _____ _____  ____ __ ______    ______ _________
000657A 9120 BD58/4710_00D58       38049  1                      IF    ~CPFVER,BEGIN
 006582 9110 6001/4710_00001       38064  2                        IF    SHMFDEL,SMDEL
 00658A 47F0 7686            06798 38082  2                        B     SMPOK
 00658E                            38083  1                      END
                                   38087  1           *
                                   38088  1           *
 00658E 1B00/41F0 B050_            38089  1           SMREAD     TWRITE
                                   38115  1
 00659A 9180 BD58/47E0_00D58       38116  1                      IF    CPLSTOWD,BEGIN      Lines have been stowed...
 0065A2 947F BD58/947F_00D58       38131  2                        CLEAR CPLSTOWD,CPFDUMP
                                   38143  2
 0065AA 9220 BD54      00D54       38144  2                        SET   (CPLFLG5.CPFNLST,EQ)
 0065AE 94FE BD50      00D50       38152  2                        CLEAR CPLFLG1.CPFTODFT    Assume TO not defaulted
 0065B2 9180 BD57/4710_00D57       38160  2                        IF    ~CPLCOLXP,'SET CPLFLG1.CPFTODFT'
 0065BE 58F0 BC68            00C68 38187  2                        L     R15,CPDMPLST        Next line
 0065C2 5FF0 BC6C            00C6C 38188  2                        SL    R15,CPDMPDLT        Minus delta for last
 0065C6 58E0 7852/0DEE       06964 38189  2                        VCALL LASTLINE            Do last line msg
 0065CC                            38193  1                      END
                                   38197  1
 0065CC 58F0 C1C8            001C8 38198  1           SMLOOP     L     R15,CVCURJCB
 0065D0 94FD F062      00062       38199  1                      WITH  (JCB,R15),'CLEAR JCBFATTN'
 USING  JCB,R15
 DROP   JCB,R15
 0065D4 4110 7886/4100_      06998 38229  1                      TREAD 'Delete',,Q
 0065E4 4740 76AA            067BC 38243  1                      BM    SMATTN
 0065E8 47D0 7508            0661A 38244  1                      IF    POS,BEGIN
 0065EC 58F0 C1C8            001C8 38255  2                        L     R15,CVCURJCB
 0065F0 94FD F062      00062       38256  2                        WITH  (JCB,R15),'CLEAR JCBFATTN'  No exec break
 USING  JCB,R15
 DROP   JCB,R15
 0065F4 58F0 6020            00020 38286  2                        L     R15,SHMKWRP
 USING  KWR,R15                    38287  2                        WITH  (KWR,R15),BEGIN
 0065F8 9108 F064/47E0_00064       38301  3                          IF    KWRTFL2.KWRTFMNOATTN,BEGIN
 006600 4110 78E1/4100_      069F3 38317  4                            TSEG  'Type Q to quit the SHOW MAIL command.',,CR
 006612 47F0 74BA            065CC 38335  4                            B     SMLOOP
 006616                            38336  3                          END
 DROP   KWR,R15                    38340  2                        END
 006616 47F0 76AA            067BC 38348  2                        B     SMATTN
 00661A                            38349  1                      END
 00661A 94DF BD54      00D54       38353  1                      CLEAR CPLFLG5.CPFNLST     Make sure NOLIST is reset
 00661E 58E0 7846/0DEE       06958 38361  1                      OSCINIT (R1),(R0)
                                   38377  1
 006624 41F5 602E            0002E 38378  1                      LA    R15,SHMDIR(R5)
 006628 1F00/BF03 F000             38379  1                      L2    R0,@R15             Pageno
 00662E 1200/4780 7528_            38385  1                      IF    (R0,NZ),'PGET PAR,(R0)'  Get current page
 00663A 752C/47F0 7532_0663A 06632 38412  1                      ELSE  'PFREE PAR'
                                   38434  1
 006644 9640 BCD0      00CD0       38435  1                      SET   CPSCNFLG.CPFRTNER
 006648 D203 BCC8 785A 00CC8 0696C 38442  1                      MVC   CPSCNERT,=A(SMINVRTN)
 00664E 4110 76D0/58E0_      067E2 38443  1                      OSCAN SMPRT
 006658                            38456                       END
 006658 47F0 7686            06798 38460                       B     SMPOK
                                   38461
 00665C 4100 0001            00001 38462              SMLPRINT LA    R0,1                LPRINT wanted
1MAIL     (MAIL4072) (12:48) (15MAR04) SHOW MAIL Command                                                                    Page  111
0Current Usings:  (SHMWA,R6) (*,R7) (SMIWA,R8) (CP,R11) (CV,R12)
0Loc    Object Code    Addr1 Addr2  Stmt Lv Lineno    Source Statement           (Hibal 5, Asmedit 3.3)  HLASM R4.0  2004/03/15 12.48
+___    ______ ____    _____ _____  ____ __ ______    ______ _________
0006660 47F0 7554            06666 38463                       B     SMPRX
                                   38464
 006664 1B00                       38465              SMPRINT  CLEAR R0                  No special print options
 006666 D20B 6110 60F8 00110 000F8 38470              SMPRX    MVC   SHMPPTRS(3*4),SHMIPTRS  Save pos in dir
 00666C 1B11                       38471                       CLEAR R1                  (No header subroutine)
 00666E 41F0 79E6            06AF8 38475                       LA    R15,PRINTRTN
 006672 58E0 7862/0DEE       06974 38476                       VCALL PRINTMSG
 006678 47F0 747C            0658E 38480                       B     SMREAD
                                   38481
 00667C D205 BCA8 BCC0 00CA8 00CC0 38482              SMDUMP   OSCBACK
 006682 5810 7866/58E0_      06978 38484                       OSCAN L:=V(COLLPRT)       Allow collect options
                                   38495
 00668C 9835 60F8            000F8 38496              SMLIST   LM    R3,R5,SHMIPTRS
 006690 41F5 602E            0002E 38497                       LA    R15,SHMDIR(R5)
 006694 1F00/BF03 F000             38498                       L2    R0,@R15
 00669A 5000 8028            00028 38504                       ST    R0,SMPRXPAR         Set new PAR register on exit
 00669E D73F 60E2 60E2 000E2 000E2 38505                       CLEAR SHMITEM
 0066A4 9035 60F8            000F8 38512                       STM   R3,R5,SHMIPTRS
 0066A8 48F0 788C            0699E 38513                       LH    R15,=H'-4'
 0066AC 47F0 7688            0679A 38514                       B     SMEXIT
                                   38515
 0066B0 1B11/58E0 785E_            38516              SMKEEP   OSCAN
 0066B8 182F                       38527                       LR    R2,R15              Subject name
 0066BA 4770 75AE/1B22       066C0 38528                       IF    Z,'CLEAR R2'        No subject
 0066C0 47F0 75E2            066F4 38548                       B     SMDK
                                   38549
 0066C4 1B11/58E0 785E_            38550              SMDEL    OSCAN
 0066CC 4780 75DE            066F0 38561                       IF    NZ,BEGIN
 0066D0 41F0 B050/58E0_      00050 38572  1                      TSEG  (R1),(R0)
 0066DA 4110 77F6/4100_      06908 38596  1                      TSEG  ': invalid DELETE option.',,CR
 0066EC 47F0 74BA            065CC 38614  1                      B     SMLOOP
 0066F0                            38615                       END
                                   38619
 0066F0 4820 788E            069A0 38620                       LH    R2,=H'-1'
 0066F4 58F0 6100            00100 38621              SMDK     L     R15,SHMIPTRS+8      Dir offset
 0066F8 41FF 602E            0002E 38622                       LA    R15,SHMDIR(R15)
 0066FC 1F00/BF03 F000_            38623                       PGET  PAR,L2:@R15
 006708 58F0 60F8            000F8 38636                       L     R15,SHMIPTRS        Page offset
 00670C 41FF 9002            00002 38637                       LA    R15,@PAR+2(R15)
 006710 1222/47B0 7642             38638                       IF    (R2,M),BEGIN        Delete...
 006716 5810 6018            00018 38652  1                      L     R1,SHMLINES
 00671A 0610                       38653  1                      DECR  R1
 00671C 4B10 611C            0011C 38655  1                      SH    R1,SHMLCNT
 006720 5010 6018            00018 38656  1                      ST    R1,SHMLINES         Adjust line count
                                   38657  1
 006724 5810 601C            0001C 38658  1                      L     R1,SHMCOUNT
 006728 4B10 611E            0011E 38659  1                      SH    R1,SHMBCNT
 00672C 5010 601C            0001C 38660  1                      ST    R1,SHMCOUNT         Adjust byte count
                                   38661  1
 006730 95D2 F003/4770_00003       38662  1                      IF    (@R15+3,EQ,'K'),'DECR R1,SHMKCNT'  decr kept item count
 006742 7634/47F0 763E_06742 06736 38688  1                      ELSE  'DECR R1,SHMNCNT'   Decr new item count
 006750 92C4 F003      00003       38709  1                      MVI   @R15+3,C'D'         Flag as deleted
 006754                            38710                       END
                                   38714
1MAIL     (MAIL4072) (12:48) (15MAR04) SHOW MAIL Command                                                                    Page  112
0Current Usings:  (SHMWA,R6) (*,R7) (SMIWA,R8) (CP,R11) (CV,R12)
0Loc    Object Code    Addr1 Addr2  Stmt Lv Lineno    Source Statement           (Hibal 5, Asmedit 3.3)  HLASM R4.0  2004/03/15 12.48
+___    ______ ____    _____ _____  ____ __ ______    ______ _________
0006754 7646/47F0 767C 06754 06714 38715                       ELSE  BEGIN               Keep...
 006758 95D2 F003/4780_00003       38726  1                      IF    (@R15+3,NE,'K'),'DECR R1,SHMNCNT; INCR R1,SHMKCNT'
 006776 92D2 F003      00003       38758  1                      MVI   @R15+3,C'K'         Flag as kept
 00677A 1222/4780 767C_            38759  1                      IF    ((R2,NZ),AND,(@R15+1,EQ,X'0A')),'MVC @R15+4(8),@R2'
 00678E                            38794                       END
 00678E 58E0 786A/0DEE       0697C 38798                       PMARK PAR
 006794 9640 6000      00000       38803                       SET   SHMFCHNG            Re-write needed
 006798 1BFF                       38809              SMPOK    CLEAR R15
                                   38814
 00679A 182F                       38815              SMEXIT   LR    R2,R15
 00679C 5800 8028/58E0_      00028 38816                       PGET  PAR,L:SMPRXPAR      Restore PAR
 0067A6 18F2                       38825                       LR    R15,R2
                                   38826
 0067A8 4BD0 7890/9802_      069A2 38827                       LEXIT R0,R2,LTR
                                   38837
 0067BC 41F0 0004            00004 38838              SMATTN   LA    R15,4
 0067C0 47F0 7688            0679A 38839                       B     SMEXIT
                                   38840
 0067C4 4110 7892/4100_      069A4 38841              SMCANCEL TSEG  'All actions cancelled '
 0067D6 4110 78A8/4100_      069BA 38859                       ABORT '(except printing).'
-0067E2 000066C4C4                 38867              SMPRT    OSCKW D,SMDEL
 0067E7 0D0066C4C4C5D3C5           38869                       OSCKW DELETE,SMDEL,A
                                   38871              ******** OSCKW DUMP,SMDUMP,A
 0067F1 000066B0D2                 38872                       OSCKW K,SMKEEP
 0067F6 0B0066B0D2C5C5D7           38874                       OSCKW KEEP,SMKEEP,A
 0067FE 0000668CD3                 38876                       OSCKW L,SMLIST
 006803 0B00668CD3C9E2E3           38878                       OSCKW LIST,SMLIST,A
 00680B 0E00667CC3D6D3D3           38880                       OSCKW COLLECT,SMDUMP,A
 006816 0C006664D7D9C9D5           38882                       OSCKW PRINT,SMPRINT,A
 00681F 0D00665CD3D7D9C9           38884                       OSCKW LPRINT,SMLPRINT,A
 006829 000066C4E8                 38886                       OSCKW Y,SMDEL
 00682E 020066C4E8C5E2             38888                       OSCKW YES,SMDEL
 006835 010066C4D6D2               38890                       OSCKW OK,SMDEL
 00683B 00006798D5                 38892                       OSCKW N,SMPOK
 006840 01006798D5D6               38894                       OSCKW NO,SMPOK
 006846 0B0067BCD8E4C9E3           38896                       OSCKW QUIT,SMATTN,A
 00684E 000067BCD8                 38898                       OSCKW Q,SMATTN
 006853 0D0067C4C3C1D5C3           38900                       OSCKW CANCEL,SMCANCEL,A
 00685D 0000688A6F                 38902                       OSCKW ?,SMQUEST
 006862 FF00686E                   38904                       OSCKW ,SMINV
                                   38906              *
                                   38907              * This routine is entered whenever there's a bad scan of the
                                   38908              * reply to the Delete? prompt on SHOW MAIL. This fixes a bug
                                   38909              * whereby a response of a single apostrophe to the Delete?
                                   38910              * prompt, while in WYLBUR READ EDIT mode from a SPIRES processor
                                   38911              * causes WYLBUR to send the SHOW MAIL command to SPIRES instead
                                   38912              * of the apostrophe. This is because the old scanner (which we've
                                   38913              * really got to get rid of) sends all scan errors to CVNVALID.
                                   38914              *
 006866 9801 BC9C            00C9C 38915              SMINVRTN LM    R0,R1,CPSAVE
 00686A 94BF BCD0      00CD0       38916                       CLEAR CPSCNFLG.CPFRTNER
                                   38924
1MAIL     (MAIL4072) (12:48) (15MAR04) SHOW MAIL Command                                                                    Page  113
0Current Usings:  (SHMWA,R6) (*,R7) (SMIWA,R8) (CP,R11) (CV,R12)
0Loc    Object Code    Addr1 Addr2  Stmt Lv Lineno    Source Statement           (Hibal 5, Asmedit 3.3)  HLASM R4.0  2004/03/15 12.48
+___    ______ ____    _____ _____  ____ __ ______    ______ _________
000686E 41F0 B050/58E0_      00050 38925              SMINV    TSEG  (R1),(R0)
 006878 4110 7906/4100_      06A18 38950                       TSEG  ' is unrecognized.',,CR
 00688A 4110 7917/4100_      06A29 38968              SMQUEST  TSEG  'Expecting YES, NO, DELETE, KEEP, '
 00689C 4110 7938/4100_      06A4A 38986                       TSEG  'LIST, COLLECT, LPRINT, PRINT, CANCEL or QUIT.',,CR
 0068AE 47F0 747C            0658E 39004                       B     SMREAD
1MAIL     (MAIL4072) (12:48) (15MAR04) SHOW MAIL Command                                                                    Page  114
0Current Usings:  (SHMWA,R6) (*,R7) (SMIWA,R8) (CP,R11) (CV,R12)
0Loc    Object Code    Addr1 Addr2  Stmt Lv Lineno    Source Statement           (Hibal 5, Asmedit 3.3)  HLASM R4.0  2004/03/15 12.48
+___    ______ ____    _____ _____  ____ __ ______    ______ _________
0                                  39006              ¿þþþþþþþþþþþþþþþþþþþþþþþþþþþþþþþþþþþþþþþþþþþþþþþþþþþþþþþþþþþþþþþþþþþþþÜ
                                   39007              Ÿ                                                                     Ÿ
                                   39008              Ÿ  SHMTSEG -- Local routine to do a TSEG for mail item text.          Ÿ
                                   39009              Ÿ    Note this will write "LIST MIXED" form output if the responses   Ÿ
                                   39010              Ÿ    are going to the terminal.                                       Ÿ
                                   39011              Ÿ                                                                     Ÿ
                                   39012              Ÿ    On entry:                                                        Ÿ
                                   39013              Ÿ      R1,R0 - text loc, length                                       Ÿ
                                   39014              Ÿ                                                                     Ÿ
                                                      ¾þþþþþþþþþþþþþþþþþþþþþþþþþþþþþþþþþþþþþþþþþþþþþþþþþþþþþþþþþþþþþþþþþþþþþ»
00068B2 50E0 D000/41D0_      00000 39015              SHMTSEG  LENTER R15,R2
 0068C2 58E0 7822/0DEE       06934 39022                       ACALL PARSAVE             ((((((((
 0068C8 9180 BD55/47E0_00D55       39026                       IF    CPFDUMP,'TSEG (R1),(R0)'  Regular format
 0068DA 77CC/47F0 77D2_068DA 068CE 39070                       ELSE  'VCALL MIXFMT'      Mixed format
 0068E4 58E0 782A/0DEE       0693C 39090                       ACALL PARREST             ))))))))
 0068EA 4BD0 78BA/98F2_      069CC 39094                       LEXIT R15,R2,LTR
-                                  39105                       QLTORG
                                   39166              ¿þþþþþþþþþþþþþþþþþþþþþþþþþþþþþþþþþþþþþþþþþþþþþþþþþþþþþþþþþþþþþþþþþþþþþÜ
                                   39167              Ÿ                                                                     Ÿ
                                   39168              Ÿ  PARSAVE -- Local routine to save PAR page-number.                  Ÿ
                                   39169              Ÿ                                                                     Ÿ
                                                      ¾þþþþþþþþþþþþþþþþþþþþþþþþþþþþþþþþþþþþþþþþþþþþþþþþþþþþþþþþþþþþþþþþþþþþþ»
0006A77 00/50E0 D000/41D_          39170              PARSAVE  LENTER R15,R2
 006A88 58E0 79D6/0DEE       06AE8 39177                       PNUM  PAR
 006A8E 5000 8024            00024 39182                       ST    R0,SMIPARNO         Save PAR pageno
 006A92 4BD0 79E2/98F2_      06AF4 39183                       LEXIT R15,R2,LTR
-                                  39194              ¿þþþþþþþþþþþþþþþþþþþþþþþþþþþþþþþþþþþþþþþþþþþþþþþþþþþþþþþþþþþþþþþþþþþþþÜ
                                   39195              Ÿ                                                                     Ÿ
                                   39196              Ÿ  PARREST -- Local routine to restore PAR page-number.               Ÿ
                                   39197              Ÿ                                                                     Ÿ
                                                      ¾þþþþþþþþþþþþþþþþþþþþþþþþþþþþþþþþþþþþþþþþþþþþþþþþþþþþþþþþþþþþþþþþþþþþþ»
0006AA6 50E0 D000/41D0_      00000 39198              PARREST  LENTER R15,R2
 006AB6 D603 8024 8024_00024 00024 39205                       IF    (SMIPARNO,Z),'PFREE PAR'
 006AC6 79B8/47F0 79C2_06AC6 06ABE 39232                       ELSE  'PGET PAR,L:SMIPARNO'
 006AD4 4BD0 79E2/98F2_      06AF4 39257                       LEXIT R15,R2,LTR
                                   39267
 DROP   SHMWA,R6                   39268                       DROP  SHMWA,SMIWA,BR
 DROP   SMIWA,R8
 DROP   *,R7
                                   39289                       QLTORG
1MAIL     (MAIL4072) (12:48) (15MAR04) SHOW MAIL Command                                                                    Page  115
0Current Usings:  (CP,R11) (CV,R12)
0Loc    Object Code    Addr1 Addr2  Stmt Lv Lineno    Source Statement           (Hibal 5, Asmedit 3.3)  HLASM R4.0  2004/03/15 12.48
+___    ______ ____    _____ _____  ____ __ ______    ______ _________
0                                  39307              ¿þþþþþþþþþþþþþþþþþþþþþþþþþþþþþþþþþþþþþþþþþþþþþþþþþþþþþþþþþþþþþþþþþþþþþÜ
                                   39308              Ÿ                                                                     Ÿ
                                   39309              Ÿ  PRINTRTN -- PRINTMSG co-routine.  This routine gets the next       Ÿ
                                   39310              Ÿ    line in the mail dir and returns it (unpressed).  R1 is zero     Ÿ
                                   39311              Ÿ    if there aren't any more lines.                                  Ÿ
                                   39312              Ÿ                                                                     Ÿ
                                                      ¾þþþþþþþþþþþþþþþþþþþþþþþþþþþþþþþþþþþþþþþþþþþþþþþþþþþþþþþþþþþþþþþþþþþþþ»
0000000                00000 00001 39313              PRTNWA   RECORD BEGIN
 000000 00                         39321  1           PRTNFLAG   FLAG
 PRTNFLAG.PRTNFSKI 80 ONES         39325  1                      FLAG  PRTNFSKIP           - Don't display this line
 000001                00001 00001 39330                       END
                                   39339              þþþþ
 006AF8 50E0 D000/9028_      00000 39340              PRINTRTN PROC  (R2,LSR),PRTNWA
 USING  *,R7
 USING  PRTNWA-(4+28),R8
 006B12 9200 8020      00000       39389                       CLEAR PRTNWA
                                   39396
 006B16 5860 BCA4            00CA4 39397                       L     R6,CPCWA            Shmwa ptr
 USING  SHMWA,R6                   39398                       WITH  (SHMWA,R6)
                                   39411
 006B1A 9835 6110            00110 39412              PRTNLOOP LM    R3,R5,SHMPPTRS      Print dir ptrs
 006B1E 1B11                       39413                       CLEAR R1
 006B20 5950 60F4/4720_      000F4 39417                       IF    (R5,GT,SHMPTRS+8),PREXIT
 006B28 5950 60F4/4770_      000F4 39437                       IF    ((R5,EQ,SHMPTRS+8),AND,(R3,EQ,SHMPTRS)),PREXIT
 006B38 41F5 602E            0002E 39473                       LA    R15,SHMDIR(R5)
 006B3C 1F00/BF03 F000_            39474                       PGET  PAR,L2:@R15
 006B48 4840 9000            00000 39487                       LH    R4,@PAR
 006B4C 41F9 3002            00002 39488                       LA    R15,@R3+2(PAR)
 006B50 4BF0 7682            07194 39489                       SH    R15,=H'4'
 006B54 4110 6122            00122 39490                       LA    R1,SHMLINE
 006B58 58E0 75FA/0DEE       0710C 39491                       VCALL UNPRESS
 006B5E 955C 1000/4770_00000       39495                       IF    (@R1,EQ,'*'),BEGIN  Special line...
 006B66 4120 000B            0000B 39511  1                      LA    R2,11
 006B6A 955C 1001/4770_00001       39512  1                      IF    (@R1+1,EQ,'*'),'LA R2,1'
                                   39534  1
 006B76 D501 7684 1001_07196 00001 39535  1                      IF    (@R1+1,EQ,'::'),BEGIN
 006B80 9102 6001/4710_00001       39551  2                        IF    ~SHMFMHDR,'SET PRTNFSKIP'  Don't display this line
 006B8C 1B22                       39577  2                        CLEAR R2
 006B8E                            39581  1                      END
                                   39585  1
 006B8E 957A 1001/4770_00001       39586  1                      IF    ((@R1+1,EQ,':'),AND,(@R1+2,NE,':')),BEGIN
 006B9E 9101 6001/4710_00001       39617  2                        IF    ~SHMFUHDR,'SET PRTNFSKIP'  Don't display this line
 006BAA 1B22                       39643  2                        CLEAR R2
 006BAC                            39647  1                      END
                                   39651  1
 006BAC 1A12                       39652  1                      AR    R1,R2
 006BAE 1B02                       39653  1                      SR    R0,R2
 006BB0 47B0 70A4/1B00       06BB6 39654  1                      IF    NEG,'CLEAR R0'
 006BB6                            39674                       END
                                   39678
 006BB6 1F22/4329 3002             39679                       LC    R2,@R3+2(PAR)
 006BBC 4133 2001            00001 39686                       LA    R3,@R2+1(R3)
 006BC0 1934/4750 70BC             39687                       IF    (R3,GE,R4),BEGIN
1MAIL     (MAIL4072) (12:48) (15MAR04) SHOW MAIL Command                                                                    Page  116
0Current Usings:  (SHMWA,R6) (*,R7) (PRTNWA-(4+28),R8) (CP,R11) (CV,R12)
0Loc    Object Code    Addr1 Addr2  Stmt Lv Lineno    Source Statement           (Hibal 5, Asmedit 3.3)  HLASM R4.0  2004/03/15 12.48
+___    ______ ____    _____ _____  ____ __ ______    ______ _________
0006BC6 1B33/1B44                  39702  1                      CLEAR R3,R4
 006BCA 4150 5002            00002 39708  1                      LA    R5,@R5+2
 006BCE                            39709                       END
 006BCE 9035 6110            00110 39713                       STM   R3,R5,SHMPPTRS
 006BD2 9180 8020/47E0_00000       39714                       IF    PRTNFSKIP,'CLEAR PRTNFSKIP; B PRTNLOOP'  Loop back
 006BE2 18F1                       39742              PREXIT   LR    R15,R1              Set cc by R1
 006BE4 18D8/9828 D004_            39743                       PEND
 DROP   SHMWA,R6
 DROP   PRTNWA-(4+28),R8
 DROP   *,R7
1MAIL     (MAIL4072) (12:48) (15MAR04) SHOW MAIL Command                                                                    Page  117
0Current Usings:  (CP,R11) (CV,R12)
0Loc    Object Code    Addr1 Addr2  Stmt Lv Lineno    Source Statement           (Hibal 5, Asmedit 3.3)  HLASM R4.0  2004/03/15 12.48
+___    ______ ____    _____ _____  ____ __ ______    ______ _________
0                                  39774              ¿þþþþþþþþþþþþþþþþþþþþþþþþþþþþþþþþþþþþþþþþþþþþþþþþþþþþþþþþþþþþþþþþþþþþþÜ
                                   39775              Ÿ                                                                     Ÿ
                                   39776              Ÿ  SHMLSIZE -- Routine called by DOPEN to determine the size of the   Ÿ
                                   39777              Ÿ    data.  On entry: R15 - blocksize for save                        Ÿ
                                   39778              Ÿ                                                                     Ÿ
                                                      ¾þþþþþþþþþþþþþþþþþþþþþþþþþþþþþþþþþþþþþþþþþþþþþþþþþþþþþþþþþþþþþþþþþþþþþ»
0006BF2 50E0 D000/9028_      00000 39779              SHMLSIZE XENTER R2,R8,,LOCAL
 USING  *,R7
 006C0C 5860 BCA4            00CA4 39797                       L     R6,CPCWA            Shmwa ptr
 USING  SHMWA,R6                   39798                       USING SHMWA,R6
 006C10 50F0 BD70            00D70 39807                       ST    R15,CPNWCT          Save blocksize
 006C14 D201 BF94 601A 00F94 0001A 39808                       MVC   DSAVCNT,SHMLINES+2  No. of lines
 006C1A 5830 601C            0001C 39809                       L     R3,SHMCOUNT
 006C1E 4030 BF90            00F90 39810                       STH   R3,DSAVSPA          Pressed byte count
 006C22 1B22                       39811                       CLEAR R2
 006C24 4BF0 758C            07198 39815                       SH    R15,=AL2(2+&PRESSZ-1)  Smallest buffer
 006C28 1A3F                       39816                       AR    R3,R15
 006C2A 1D2F                       39817                       DR    R2,R15              No. of blocks needed (worst case)
 006C2C 4030 BF96            00F96 39818                       STH   R3,DSAVBLK          Save block count
 006C30 1277                       39819                       LTR   BR,BR               Set nz cc for caller
 006C32 18D8/58E0 D000_            39820                       XEXIT
 DROP   SHMWA,R6                   39825                       DROP  SHMWA,BR
 DROP   *,R7
1MAIL     (MAIL4072) (12:48) (15MAR04) SHOW MAIL Command                                                                    Page  118
0Current Usings:  (CP,R11) (CV,R12)
0Loc    Object Code    Addr1 Addr2  Stmt Lv Lineno    Source Statement           (Hibal 5, Asmedit 3.3)  HLASM R4.0  2004/03/15 12.48
+___    ______ ____    _____ _____  ____ __ ______    ______ _________
0                                  39840              ¿þþþþþþþþþþþþþþþþþþþþþþþþþþþþþþþþþþþþþþþþþþþþþþþþþþþþþþþþþþþþþþþþþþþþþÜ
                                   39841              Ÿ                                                                     Ÿ
                                   39842              Ÿ  SHMLRTN -- Routine to save the mail data set in temporary          Ÿ
                                   39843              Ÿ    text pages (SHMDIR).  It is entered from the range processor     Ÿ
                                   39844              Ÿ    with the pressed line loc in R15.                                Ÿ
                                   39845              Ÿ                                                                     Ÿ
                                   39846              Ÿ  PREST option removed 5/91 by CH.  We press line on entry for       Ÿ
                                   39847              Ÿ  backwards compatibility.                                           Ÿ
                                   39848              Ÿ                                                                     Ÿ
                                   39849              Ÿ                                                                     Ÿ
                                                      ¾þþþþþþþþþþþþþþþþþþþþþþþþþþþþþþþþþþþþþþþþþþþþþþþþþþþþþþþþþþþþþþþþþþþþþ»
0006C3E 50E0 D000/9008_      00000 39850              SHMLRTN  PROC
 USING  *,R7
                                   39889
                                   39890                       COMMENT                   BE BACKWARDS COMPAT, PRESS LINE
 006C58 58F0 B73C            0073C 39891                       L     R15,CPLCNO
 006C5C 58E0 74B8/0DEE       07110 39892                       VCALL PRESS
 006C62 18F1                       39896                       LR    R15,R1
                                   39897
 006C64 5860 BCA4            00CA4 39898                       L     R6,CPCWA            Shmwa ptr
 USING  SHMWA,R6                   39899                       WITH  (SHMWA,R6)
 006C68 185F                       39912                       LR    R5,R15
 006C6A 41F0 0001/5EF0_      00001 39913                       INCR  R15,SHMLINES        Kick line count
 006C76 58F0 601C            0001C 39919                       L     R15,SHMCOUNT
 006C7A 1F11/4310 5004             39920                       LC    R1,@R5+4
 006C80 41FF 1005            00005 39927                       LA    R15,@R1+5(R15)
 006C84 50F0 601C            0001C 39928                       ST    R15,SHMCOUNT        Total byte count
                                   39929
 006C88 9502 5004/4750_00004       39930                       IF    (@R5+4,GE,X'02'),BEGIN  Non-null line...
 006C90 91F0 5005/4770_00005       39946  1                      IF    (@R5+5.X'F0',NZ),EXIT  Leading blanks, scram
 006C98 1FFF/43F0 5005             39967  1                      LC    R15,@R5+5           First len byte
 006C9E 59F0 74BC/4740_      07114 39974  1                      IF    ((R15,LT,2),OR,(@R5+6,NE,'*')),EXIT
 006CAE 955C 5007/4780_00007       40009  1                      IF    (@R5+7,EQ,'*'),EXIT
 006CB6 957A 5007/4780_00007       40028  1                      IF    (@R5+7,EQ,':'),EXIT
 006CBE 95D2 5007/4770_00007       40047  1                      IF    (@R5+7,EQ,'K'),'INCR R15,SHMKCNT'
 006CD2 707E/47F0 708E_06CD2 06CC4 40074  1                      ELSE  'MVI @R5+7,C"N"; INCR R15,SHMNCNT'
                                   40097  1
 006CE6 1F00/BF03 6028_            40098  1                      PGET  PBR,L2:SHMMAST
 006CF2 4840 A000            00000 40111  1                      LH    R4,@PBR             Len
 006CF6 5540 74C4/47D0_      0711C 40112  1                      IF    (R4,LGT,CVPSZ-4-2),BEGIN  Overflow...
 006CFE 4110 7480/4100_      070D8 40129  2                        TSEG  'Account '
 006D10 4110 BE60/4100_      00E60 40147  2                        TSEG  DSNWADSN+4,6        gg.uuu
 006D22 4110 7544/4100_      0719C 40177  2                        ABORT ' mailbox is full -- too many items.'
 006D2E                            40184  1                      END
 006D2E 18F5                       40188  1                      LR    R15,R5              Pressed line ptr
 006D30 4110 602A            0002A 40189  1                      LA    R1,SHMMDIR          Mail dir
 006D34 58E0 74CC/0DEE       07124 40190  1                      ACALL BUFRLINE
 006D3A 4770 7110            06D68 40194  1                      BNZ   SHMLNR              No room
 006D3E 400A 4002            00002 40195  1                      STH   R0,@R4+2(PBR)       Offset in dir
 006D42 401A 4004            00004 40196  1                      STH   R1,@R4+4(PBR)       Offset in page
 006D46 4140 4004            00004 40197  1                      LA    R4,@R4+4
 006D4A 4040 A000            00000 40198  1                      STH   R4,@PBR
 006D4E 58E0 74D0/0DEE       07128 40199  1                      PMARK PBR
1MAIL     (MAIL4072) (12:48) (15MAR04) SHOW MAIL Command                                                                    Page  119
0Current Usings:  (SHMWA,R6) (*,R7) (CP,R11) (CV,R12)
0Loc    Object Code    Addr1 Addr2  Stmt Lv Lineno    Source Statement           (Hibal 5, Asmedit 3.3)  HLASM R4.0  2004/03/15 12.48
+___    ______ ____    _____ _____  ____ __ ______    ______ _________
0006D54 47F0 7140            06D98 40204  1                      B     SHMREXIT
 006D58                            40205                       END
                                   40209
 006D58 18F5                       40210                       LR    R15,R5              Pressed line ptr
 006D5A 4110 602A            0002A 40211                       LA    R1,SHMMDIR          Mail dir
 006D5E 58E0 74CC/0DEE       07124 40212                       ACALL BUFRLINE
 006D64 47D0 7140            06D98 40216                       IF    POS,BEGIN           Won't fit...
 006D68 4110 7480/4100_      070D8 40227  1           SHMLNR     TSEG  'Account '
 006D7A 4110 BE60/4100_      00E60 40245  1                      TSEG  DSNWADSN+4,6        gg.uuu
 006D8C 4110 7567/4100_      071BF 40275  1                      ABORT ' mailbox is full.'
 006D98                            40282                       END
                                   40286
 006D98 18D8/9808 D004_            40287              SHMREXIT PEND
 DROP   SHMWA,R6
 DROP   *,R7
1MAIL     (MAIL4072) (12:48) (15MAR04) SHOW MAIL Command                                                                    Page  120
0Current Usings:  (CP,R11) (CV,R12)
0Loc    Object Code    Addr1 Addr2  Stmt Lv Lineno    Source Statement           (Hibal 5, Asmedit 3.3)  HLASM R4.0  2004/03/15 12.48
+___    ______ ____    _____ _____  ____ __ ______    ______ _________
0                                  40314              ¿þþþþþþþþþþþþþþþþþþþþþþþþþþþþþþþþþþþþþþþþþþþþþþþþþþþþþþþþþþþþþþþþþþþþþÜ
                                   40315              Ÿ                                                                     Ÿ
                                   40316              Ÿ  BUFRLINE -- Routine to put pressed line (w/o lineno) in text       Ÿ
                                   40317              Ÿ    page.                                                            Ÿ
                                   40318              Ÿ                                                                     Ÿ
                                   40319              Ÿ      On entry:                                                      Ÿ
                                   40320              Ÿ        R1 - page dir ptr                                            Ÿ
                                   40321              Ÿ        R15- pressed line ptr                                        Ÿ
                                   40322              Ÿ                                                                     Ÿ
                                   40323              Ÿ      On exit, R15 (and CC):                                         Ÿ
                                   40324              Ÿ        0 - ok (R0 - offset in dir, R1 - offset in page)             Ÿ
                                   40325              Ÿ        4 - new line won't fit                                       Ÿ
                                   40326              Ÿ                                                                     Ÿ
                                                      ¾þþþþþþþþþþþþþþþþþþþþþþþþþþþþþþþþþþþþþþþþþþþþþþþþþþþþþþþþþþþþþþþþþþþþþ»
0000000                00000 00004 40328              BUFRDIR  RECORD BEGIN
 000000                            40336  1           BUFRMAX    DS    H                   Max dir offset
 000002                            40337  1           BUFRCUR    DS    H                   Current dir offset
 000004                            40338  1           BUFRPG     DS    0H                  Pagenos
 000004                00004 00004 40339                       END
-000000                00000 00120 40349              BUFXWA   RECORD BEGIN
                                   40357  1                      XSA   R2,R8
 000000 0000000000000000           40358  1 01-XSA   +           DC    (R8+2-(R2))A(0)
                                   40359  1           BUFXLINE   DS    XL(&PRESSZ)         Pressed line area
 000020                                   1          +BUFXLINE   DS    XL(256)             Pressed line area
 000120                00120 00120 40360                       END
-006DA6 50E0 D000/9028_      00000 40370              BUFRLINE XENTER R2,R8,L'BUFXWA,LOCAL
 USING  *,R7
 USING  BUFXWA,R8                  40388                       USING BUFXWA,WAR
 006DC0 1F22/4320 F004             40397                       LC    R2,@R15+4           Pressed line length
 006DC6 4120 2005            00005 40404                       LA    R2,@R2+5            Include dummy lineno and len byte
 006DCA 0620/1222/4740_            40405                       MOVE  R2,BUFXLINE,@R15    Save line text
 006DD6 4160 8020            00020 40443                       LA    R6,BUFXLINE         Pressed line ptr
                                   40444
 006DDA 1851                       40445                       LR    R5,R1               Dir ptr
 USING  BUFRDIR,R5                 40446                       USING BUFRDIR,R5
 006DDC 4840 5002/1244       00002 40455                       LTH   R4,BUFRCUR          Current dir offset
 006DE2 4770 7054            06E14 40459                       IF    Z,BEGIN             First page...
 006DE6 58E0 736C/0DEE       0712C 40470  1                      VCALL PGETNEW
 006DEC 4780 7036/58E0_      06DF6 40474  1                      IF    NZ,'VCALL NOMORPG'
 006DF6 58E0 7374/0DEE       07134 40494  1                      VCALL PTEMP
 006DFC 4000 5004            00004 40498  1                      STH   R0,BUFRPG           Save first pageno
 006E00 4140 0002            00002 40499  1                      LA    R4,2
 006E04 4040 5002            00002 40500  1                      STH   R4,BUFRCUR          Save current dir offset
 006E08 D701 9000 9000 00000 00000 40501  1                      CLEAR (@PAR,2)
 006E0E 58E0 7378/0DEE       07138 40508  1                      PMARK PAR
 006E14                            40513                       END
 006E14 7058/47F0 7084 06E14 06DE4 40517                       ELSE  BEGIN               Old page...
 006E18 41F4 5002            00002 40528  1                      LA    R15,BUFRPG-2(R4)
 006E1C 1F33/BF33 F000             40529  1                      L2    R3,@R15             Pageno
1MAIL     (MAIL4072) (12:48) (15MAR04) SHOW MAIL Command                                                                    Page  121
0Current Usings:  (BUFRDIR,R5) (*,R7) (BUFXWA,R8) (CP,R11) (CV,R12)
0Loc    Object Code    Addr1 Addr2  Stmt Lv Lineno    Source Statement           (Hibal 5, Asmedit 3.3)  HLASM R4.0  2004/03/15 12.48
+___    ______ ____    _____ _____  ____ __ ______    ______ _________
0006E22 1233/4770 707C_            40537  1                      FAIL  (R3,Z),MAILERRB
 006E3C 1803/58E0 7348_            40562  1                      PGET  PAR,(R3)
 006E44                            40571                       END
                                   40575
 006E44 4830 9000            00000 40576              BUFRRTRY LH    R3,@PAR
 006E48 1823                       40577                       LR    R2,R3
 006E4A 1FFF/43F0 6004             40578                       LC    R15,@R6+4           Len byte for pressed line
 006E50 41F0 F001            00001 40585                       LA    R15,@R15+1
 006E54 1A2F                       40586                       AR    R2,R15              New buffer len
 006E56 5920 737C/47D0_      0713C 40587                       IF    (R2,GT,CVPSZ-2),BEGIN  Overflow...
 006E5E 4940 5000/4750_      00000 40604  1                      IF    (R4,GE,BUFRMAX),'LA R15,4; B BUFREXIT'  Dir full
 006E6E 58E0 736C/0DEE       0712C 40628  1                      VCALL PGETNEW
 006E74 4780 70BE/58E0_      06E7E 40632  1                      IF    NZ,'VCALL NOMORPG'
 006E7E 58E0 7374/0DEE       07134 40652  1                      VCALL PTEMP
 006E84 4004 5004            00004 40656  1                      STH   R0,BUFRPG(R4)       Save pageno
 006E88 4140 4002            00002 40657  1                      LA    R4,@R4+2            Kick dir offset
 006E8C 4040 5002            00002 40658  1                      STH   R4,BUFRCUR
 006E90 D701 9000 9000 00000 00000 40659  1                      CLEAR (@PAR,2)
 006E96 58E0 7378/0DEE       07138 40666  1                      PMARK PAR
 006E9C 47F0 7084            06E44 40671  1                      B     BUFRRTRY
 006EA0                            40672                       END
 006EA0 4020 9000            00000 40676                       STH   R2,@PAR             Save new page len
                                   40677
 006EA4 4119 3002            00002 40678                       LA    R1,@R3+2(PAR)
 006EA8 06F0/12FF/4740_            40679                       MOVE  R15,@R1,@R6+4
 006EB4 58E0 7378/0DEE       07138 40717                       PMARK PAR
                                   40722
 006EBA 1804                       40723                       LR    R0,R4
 006EBC 4B00 73DA            0719A 40724                       SH    R0,=H'2'            Offset in dir
 006EC0 1813                       40725                       LR    R1,R3               Offset in page
 006EC2 1BFF                       40726                       CLEAR R15                 Rc
 006EC4 18D8/58E0 D000_            40730              BUFREXIT XEXIT ,,LTR
 DROP   BUFRDIR,R5                 40736                       DROP  BUFRDIR,BUFXWA,BR
 DROP   BUFXWA,R8
 DROP   *,R7
1MAIL     (MAIL4072) (12:48) (15MAR04) SHOW MAIL Command                                                                    Page  122
0Current Usings:  (CP,R11) (CV,R12)
0Loc    Object Code    Addr1 Addr2  Stmt Lv Lineno    Source Statement           (Hibal 5, Asmedit 3.3)  HLASM R4.0  2004/03/15 12.48
+___    ______ ____    _____ _____  ____ __ ______    ______ _________
0                                  40758              ¿þþþþþþþþþþþþþþþþþþþþþþþþþþþþþþþþþþþþþþþþþþþþþþþþþþþþþþþþþþþþþþþþþþþþþÜ
                                   40759              Ÿ                                                                     Ÿ
                                   40760              Ÿ  MLOGERR  -- Log mail I/O error                                     Ÿ
                                   40761              Ÿ                                                                     Ÿ
                                   40762              Ÿ      On entry:                                                      Ÿ
                                   40763              Ÿ        R2 - Return code from DISK module                            Ÿ
                                   40764              Ÿ                                                                     Ÿ
                                   40765              Ÿ                                                                     Ÿ
                                                      ¾þþþþþþþþþþþþþþþþþþþþþþþþþþþþþþþþþþþþþþþþþþþþþþþþþþþþþþþþþþþþþþþþþþþþþ»
0000000                00000 0013C 40767              MLOGWA   RECORD BEGIN
                                   40775  1           MLOGCB     SEGCB
 000000 00                         40776  1 01-SEGCB +$$$SEGCB982   DS 0F
 MLOGCBCOD.MLOGCBS 01 EQ
 MLOGCBCOD.MLOGCBW 02 EQ
 MLOGCBCOD.MLOGCBC 03 EQ
 MLOGCBCOD.MLOGCBS 04 EQ
 MLOGCBCOD.MLOGCBO 05 EQ
 MLOGCBCOD.MLOGCBC 06 EQ
 MLOGCBCOD.MLOGCBM 07 EQ
 000001 00                         40851  1 01-SEGCB +           DC    X'00'               Reserved
 000002 0000                              1          +
 000004 00000000                   40852  1 01-SEGCB +MLOGCBMAXF   DC  A(0)                Maximum buffer length
 000008 00000000                   40853  1 01-SEGCB +MLOGCBMRKF   DC  A(0)                Length at last mark
 00000C 00000000                   40854  1 01-SEGCB +MLOGCBLENF   DC  A(0)                Current length
 000010 00000000                   40855  1 01-SEGCB +MLOGCBINDF   DC  A(0)                Overflow/indent count
 000014 00000000                   40856  1 01-SEGCB +MLOGCBERR   DC   A(0)                Address of error recovery routine
 000018 0000000000000000           40857  1 01-SEGCB +           DC    2F'0'               Reserved
 000020 00000000                   40858  1 01-SEGCB +MLOGCBLOC   DC   A(0)                Location of buffer
 000024 00000000                   40859  1 01-SEGCB +MLOGCBRTN   DC   A(0)                Processing routine
 000028 0000000000000000           40860  1 01-SEGCB +           DC    4F'0'               Reserved
 000038 00000000                   40861  1 01-SEGCB +MLOGCBUSR   DC   A(0)                USER field
                                   40862  1 01-SEGCB +MLOGCB     EQU   $$$SEGCB982,*-$$$SEGCB982,C'X'
 00003C                            40863  1           MLOGBUF    DS    CL256               Working seg buffer
 00013C                0013C 0013C 40864                       END
-006ED2 50E0 D000/9008_      00000 40874              MLOGERR  PROC  MLOGWA
 USING  *,R7
 USING  MLOGWA-(4+36),R8
 006EEC 4110 8064/4100_      0003C 40924                       SEGINIT MLOGBUF,,MLOGCB
 006EFE 58E0 7258/0DEE       07144 40951                       VCALL LOGCMD
 006F04 4110 725C/4100_      07148 40955                       SEG   'Return code '
 006F16 1812/1B00/41F0_            40972                       SEGDC (R2)
 006F24 4110 72E4/4100_      071D0 40993                       SEG   ' for '
 006F36 4110 BE5C/4800_      00E5C 41010                       SEG   DSNWADSN,LH:DSNWANL
 006F48 4110 726C/4100_      07158 41036                       SEG   ' on '
 006F5A 4110 BE90/4100_      00E90 41053                       SEG   DSNON6,L'DSNON6
 006F6C 5810 8048/5800_      00020 41082                       SETMSG L:MLOGCBLOC,L:MLOGCBLENF
 006F74 41F0 71F4            070E0 41094                       LA    R15,=CL8'MAILERR'
 006F78 58E0 7270/0DEE       0715C 41095                       VCALL LOGEVENT
 006F7E 18D8/9808 D004_            41099                       PEND
 DROP   MLOGWA-(4+36),R8
 DROP   *,R7
1MAIL     (MAIL4072) (12:48) (15MAR04) SHOW MAIL Command                                                                    Page  123
0Current Usings:  (CP,R11) (CV,R12)
0Loc    Object Code    Addr1 Addr2  Stmt Lv Lineno    Source Statement           (Hibal 5, Asmedit 3.3)  HLASM R4.0  2004/03/15 12.48
+___    ______ ____    _____ _____  ____ __ ______    ______ _________
0                                  41125              ¿þþþþþþþþþþþþþþþþþþþþþþþþþþþþþþþþþþþþþþþþþþþþþþþþþþþþþþþþþþþþþþþþþþþþþÜ
                                   41126              Ÿ                                                                     Ÿ
                                   41127              Ÿ  MAILCHK -- Routine to check if the logged on user is allowing      Ÿ
                                   41128              Ÿ    mail.  This routine is called by MAIL/SEND (to issue a           Ÿ
                                   41129              Ÿ    warning to the user if he isn't going to accept mail) and        Ÿ
                                   41130              Ÿ    by the SHOW MAIL command.                                        Ÿ
                                   41131              Ÿ                                                                     Ÿ
                                   41132              Ÿ      On entry:                                                      Ÿ
                                   41133              Ÿ        R15 - KWR ptr                                                Ÿ
                                   41134              Ÿ                                                                     Ÿ
                                                      ¾þþþþþþþþþþþþþþþþþþþþþþþþþþþþþþþþþþþþþþþþþþþþþþþþþþþþþþþþþþþþþþþþþþþþþ»
0006F8C 50E0 D000/9028_      00000 41135              MAILCHK  XENTER
 USING  *,R7
 006FA6 9110 BD58/4710_00D58       41154                       IF    CPFINT,MCHKEXIT     Don't mess with INTERNAL format
                                   41172
 006FAE 185F                       41173                       LR    R5,R15
 USING  KWR,R5                     41174                       WITH  (KWR,R5),BEGIN
 006FB0 9180 500E/47E0_0000E       41188  1                      IF    KWRIFL.KWRIFVAL,BEGIN  Valid account...
 006FB8 9140 5057/4710_00057       41204  2                        IF    ~KWROFL.KWRFMAIL,BEGIN  Nomail...
 006FC0 D502 722F BD24_071D5 00D24 41220  3                          IF    (CPCMNM,NE,'SHO'),'TSEG "Note:",,B'
 006FDC 4110 7237/4100_      071DD 41260  3                          SETMSG 'Your account is not receiving new mail.'
 006FE4 47F0 70C6            0706C 41264  3                          B     MCHKMSG
 006FE8                            41265  2                        END
                                   41269  2
 006FE8 D63F 50C2 50C2_000C2 000C2 41270  2                        IF    (KWRMFOR,NZ),BEGIN  Mail being forwarded...
 006FF2 D502 722F BD24_071D5 00D24 41286  3                          IF    (CPCMNM,NE,'SHO'),'TSEG "Note:",,B'
 00700E 4110 71BE/4100_      07164 41326  3                          TSEG  'Your new mail is being forwarded to '
 007020 4110 50C2/4100_      000C2 41344  3                          SETMSG KWRMFOR
 007028 47F0 70C6            0706C 41358  3                          B     MCHKMSG
 00702C                            41359  2                        END
                                   41363  2
 00702C D64F 5102 5102_00102 00102 41364  2                        IF    (KWRMTXT,NZ),BEGIN
 007036 D502 722F BD24_071D5 00D24 41380  3                          IF    (CPCMNM,EQ,'SHO'),EXIT
 007040 4110 7142/4100_      070E8 41400  3                          TSEG  'Your account''s mail message is: '
 007052 4110 5102/4100_      00102 41418  3                          TSEG  KWRMTXT,,T
 007064 47F0 70FE            070A4 41446  3                          B     MCHKFIN
 007068                            41447  2                        END
 007068 47F0 7126            070CC 41451  2                        EXIT
                                   41454  2
 00706C 41F0 B050/58E0_      00050 41455  2           MCHKMSG      TSEG  (R1),(R0),TB
 007076 D64F 5102 5102_00102 00102 41480  2                        IF    (KWRMTXT,NZ),BEGIN
 007080 4110 725E/4100_      07204 41496  3                          TSEG  '-- '
 007092 4110 5102/4100_      00102 41514  3                          TSEG  KWRMTXT,,T
 0070A4                            41542  2                        END
 0070A4 D502 7261 BD24_07207 00D24 41546  2           MCHKFIN      IF    (CPCMNM,NE,'SEN'),'TSEG X"15"'
 0070C0 1B00/41F0 B050_            41587  2                        TWRITE
 0070CC                            41612  1                      END
 DROP   KWR,R5                     41616                       END
 0070CC 18D8/58E0 D000_            41624              MCHKEXIT XEXIT
 DROP   *,R7                       41629                       DROP  BR
                                   41636
                                   41637                       QLTORG
                                   41690                       VLTORG
1MAIL     (MAIL4072) (12:48) (15MAR04) SHOW MAIL Command                                                                    Page  124
0Current Usings:  (CP,R11) (CV,R12)
0Loc    Object Code    Addr1 Addr2  Stmt Lv Lineno    Source Statement           (Hibal 5, Asmedit 3.3)  HLASM R4.0  2004/03/15 12.48
+___    ______ ____    _____ _____  ____ __ ______    ______ _________
0007218                07218 07218 41698                       END   .

1MAIL     (MAIL4072) (12:48) (15MAR04) Relocation Dictionary                                                                Page  125
-   Pos.Id   Rel.Id   Flags    Address                                                       HLASM R4.0  2004/03/15 12.48
0  00000001 00000001    08    0000019D
   00000001 00000001    08    000003D3
   00000001 00000001    08    000003DC
   00000001 00000001    08    000003E4
   00000001 00000001    08    000003EF
   00000001 00000001    08    000003FA
   00000001 00000001    08    00000406
   00000001 00000001    08    0000040F
   00000001 00000001    08    00000418
   00000001 00000001    08    00000423
   00000001 00000001    08    0000042B
   00000001 00000001    08    00000437
   00000001 00000001    08    00000442
   00000001 00000001    08    0000044B
   00000001 00000001    0C    000005E8
   00000001 00000001    08    00000CAD
   00000001 00000001    08    00000CB1
   00000001 00000001    08    00000CB7
   00000001 00000001    08    00000CBD
   00000001 00000001    08    00000CC9
   00000001 00000001    08    00000CD3
   00000001 00000001    08    00000CDF
   00000001 00000001    08    00000CE9
   00000001 00000001    08    00000CF2
   00000001 00000001    08    00000CFE
   00000001 00000001    08    00000D06
   00000001 00000001    08    00000D0E
   00000001 00000001    08    00000D17
   00000001 00000001    08    00000D22
   00000001 00000001    08    00000D2E
   00000001 00000001    08    00000D38
   00000001 00000001    08    00000D44
   00000001 00000001    08    00000D4E
   00000001 00000001    08    00000D5A
   00000001 00000001    08    00000D65
   00000001 00000001    08    00000D6D
   00000001 00000001    08    00000D78
   00000001 00000001    08    00000D80
   00000001 00000001    08    00000D8A
   00000001 00000001    08    00000D95
   00000001 00000001    0C    000010C0
   00000001 00000001    0C    00001104
   00000001 00000001    0C    00001128
   00000001 00000001    0C    00001148
   00000001 00000001    0C    00001158
   00000001 00000001    0C    00001858
   00000001 00000001    0C    00001870
   00000001 00000001    0C    0000188C
   00000001 00000001    0C    00001890
   00000001 00000001    0C    00001894
   00000001 00000001    0C    000021FC
   00000001 00000001    0C    00002200
   00000001 00000001    0C    00002210
   00000001 00000001    0C    0000224C
   00000001 00000001    0C    00002250
1MAIL     (MAIL4072) (12:48) (15MAR04) Relocation Dictionary                                                                Page  126
   00000001 00000001    0C    00002254
   00000001 00000001    0C    00002260
   00000001 00000001    0C    00002264
   00000001 00000001    08    00002BB1
   00000001 00000001    0C    00002C2C
   00000001 00000001    0C    00002C34
   00000001 00000001    0C    00002C38
   00000001 00000001    0C    00002C3C
   00000001 00000001    0C    00002C40
   00000001 00000001    0C    00002CB8
   00000001 00000001    0C    00002CD8
   00000001 00000001    0C    00002CF0
   00000001 00000001    0C    00003614
   00000001 00000001    0C    00003670
   00000001 00000001    0C    0000429C
   00000001 00000001    0C    000042B8
   00000001 00000001    0C    00004AA8
   00000001 00000001    0C    00004AD0
   00000001 00000001    0C    00004E4C
   00000001 00000001    0C    00004E74
   00000001 00000001    0C    00004E9C
   00000001 00000001    0C    00004EC4
   00000001 00000001    0C    00004EEC
   00000001 00000001    0C    00004F14
   00000001 00000001    0C    00004F3C
   00000001 00000001    0C    00004F64
   00000001 00000001    0C    00004F8C
   00000001 00000001    0C    00004FB4
   00000001 00000001    0C    00004FDC
   00000001 00000001    0C    00005004
   00000001 00000001    0C    0000502C
   00000001 00000001    0C    00005054
   00000001 00000001    0C    0000507C
   00000001 00000001    0C    000053FC
   00000001 00000001    0C    00005428
   00000001 00000001    08    00005D15
   00000001 00000001    0C    00005EA0
   00000001 00000001    0C    00005F34
   00000001 00000001    0C    00005F48
   00000001 00000001    0C    00005F78
   00000001 00000001    08    000067E3
   00000001 00000001    08    000067E8
   00000001 00000001    08    000067F2
   00000001 00000001    08    000067F7
   00000001 00000001    08    000067FF
   00000001 00000001    08    00006804
   00000001 00000001    08    0000680C
   00000001 00000001    08    00006817
   00000001 00000001    08    00006820
   00000001 00000001    08    0000682A
   00000001 00000001    08    0000682F
   00000001 00000001    08    00006836
   00000001 00000001    08    0000683C
   00000001 00000001    08    00006841
   00000001 00000001    08    00006847
   00000001 00000001    08    0000684F
   00000001 00000001    08    00006854
   00000001 00000001    08    0000685E
   00000001 00000001    08    00006863
1MAIL     (MAIL4072) (12:48) (15MAR04) Relocation Dictionary                                                                Page  127
   00000001 00000001    0C    00006930
   00000001 00000001    0C    00006934
   00000001 00000001    0C    0000693C
   00000001 00000001    0C    00006948
   00000001 00000001    0C    0000696C
   00000001 00000001    0C    00007124
   00000001 00000002    1C    000005B8
   00000001 00000003    1C    000005BC
   00000001 00000004    1C    000005C0
   00000001 00000004    1C    0000360C
   00000001 00000004    1C    00004294
   00000001 00000004    1C    00006958
   00000001 00000005    1C    000005C4
   00000001 00000006    1C    000005C8
   00000001 00000007    1C    000005CC
   00000001 00000007    1C    00001124
   00000001 00000007    1C    00001864
   00000001 00000007    1C    00006970
   00000001 00000008    1C    000005D0
   00000001 00000009    1C    000005D4
   00000001 00000009    1C    00001120
   00000001 0000000A    1C    000005D8
   00000001 0000000A    1C    00002CB0
   00000001 0000000A    1C    00005F10
   00000001 0000000B    1C    000005DC
   00000001 0000000B    1C    00001150
   00000001 0000000B    1C    00002CCC
   00000001 0000000B    1C    00005F24
   00000001 0000000C    1C    000005E0
   00000001 0000000C    1C    00002CD4
   00000001 0000000C    1C    00005F18
   00000001 0000000D    1C    000005E4
   00000001 0000000D    1C    000010E4
   00000001 0000000D    1C    0000225C
   00000001 0000000D    1C    00002CEC
   00000001 0000000D    1C    0000540C
   00000001 0000000D    1C    00005EB0
   00000001 0000000D    1C    00006938
   00000001 0000000E    1C    000005F0
   00000001 0000000E    1C    00001178
   00000001 0000000E    1C    00001874
   00000001 0000000F    1C    00000610
   00000001 0000000F    1C    0000110C
   00000001 0000000F    1C    000018A8
   00000001 0000000F    1C    000021F8
   00000001 0000000F    1C    00002CFC
   00000001 0000000F    1C    00003634
   00000001 0000000F    1C    000042B0
   00000001 0000000F    1C    00005F38
   00000001 00000010    18    00000DAB
   00000001 00000010    1C    00006978
   00000001 00000011    18    00000DAF
   00000001 00000012    18    00000DB3
   00000001 00000013    1C    000010A0
   00000001 00000013    1C    000053F8
   00000001 00000014    1C    000010A4
   00000001 00000015    1C    000010A8
   00000001 00000015    1C    00003650
   00000001 00000015    1C    000042C0
1MAIL     (MAIL4072) (12:48) (15MAR04) Relocation Dictionary                                                                Page  128
   00000001 00000015    1C    00004AAC
   00000001 00000016    1C    000010AC
   00000001 00000017    1C    000010B0
   00000001 00000018    1C    000010B8
   00000001 00000018    1C    00002CA8
   00000001 00000018    1C    00005F04
   00000001 00000019    1C    000010BC
   00000001 00000019    1C    0000363C
   00000001 0000001A    1C    00001100
   00000001 0000001B    1C    00001108
   00000001 0000001B    1C    00001860
   00000001 0000001C    1C    00001118
   00000001 0000001C    1C    0000186C
   00000001 0000001D    1C    0000111C
   00000001 0000001E    1C    0000112C
   00000001 0000001E    1C    000018A0
   00000001 0000001E    1C    00002268
   00000001 0000001E    1C    00003600
   00000001 0000001E    1C    00004270
   00000001 0000001E    1C    00005410
   00000001 0000001E    1C    00007140
   00000001 0000001F    1C    00001130
   00000001 0000001F    1C    00001880
   00000001 0000001F    1C    00002244
   00000001 0000001F    1C    00002C28
   00000001 0000001F    1C    00003604
   00000001 0000001F    1C    00004274
   00000001 0000001F    1C    00004AA0
   00000001 0000001F    1C    00005418
   00000001 0000001F    1C    00005E98
   00000001 0000001F    1C    00006940
   00000001 0000001F    1C    00007120
   00000001 00000020    1C    00001134
   00000001 00000020    1C    00007160
   00000001 00000021    1C    0000113C
   00000001 00000021    1C    00002258
   00000001 00000021    1C    00002D04
   00000001 00000021    1C    00003608
   00000001 00000021    1C    00004290
   00000001 00000021    1C    00004AA4
   00000001 00000021    1C    00005EB4
   00000001 00000021    1C    00006944
   00000001 00000021    1C    00007188
   00000001 00000022    1C    00001144
   00000001 00000022    1C    00004AC8
   00000001 00000022    1C    00007110
   00000001 00000023    1C    00001154
   00000001 00000023    1C    000018AC
   00000001 00000023    1C    00002270
   00000001 00000023    1C    00002CD0
   00000001 00000023    1C    00004A9C
   00000001 00000023    1C    00005F28
   00000001 00000024    1C    00001848
   00000001 00000025    1C    0000184C
   00000001 00000026    1C    00001850
   00000001 00000027    1C    00001868
   00000001 00000028    1C    00001878
   00000001 00000029    1C    00001884
   00000001 0000002A    1C    000018A4
1MAIL     (MAIL4072) (12:48) (15MAR04) Relocation Dictionary                                                                Page  129
   00000001 0000002A    1C    0000226C
   00000001 0000002A    1C    00005414
   00000001 0000002B    1C    00002208
   00000001 0000002B    1C    00002CF8
   00000001 0000002B    1C    00005EBC
   00000001 0000002C    1C    0000220C
   00000001 0000002D    1C    00002240
   00000001 0000002D    1C    00002C30
   00000001 0000002D    1C    00003618
   00000001 0000002D    1C    000042A0
   00000001 0000002D    1C    00004AD8
   00000001 0000002D    1C    00005F2C
   00000001 0000002D    1C    00006960
   00000001 0000002D    1C    00007190
   00000001 0000002E    1C    00002248
   00000001 0000002F    1C    00002274
   00000001 00000030    1C    00002278
   00000001 00000030    1C    00002D00
   00000001 00000030    1C    0000718C
   00000001 00000031    1C    00002C74
   00000001 00000031    1C    00005F08
   00000001 00000032    1C    00002CAC
   00000001 00000032    1C    00005F0C
   00000001 00000033    1C    00002CC8
   00000001 00000033    1C    0000695C
   00000001 00000033    1C    00007154
   00000001 00000034    1C    00002CDC
   00000001 00000034    1C    00005F4C
   00000001 00000035    1C    00002CF4
   00000001 00000035    1C    00005F1C
   00000001 00000036    1C    00002D08
   00000001 00000037    1C    00002D0C
   00000001 00000037    1C    00004AC4
   00000001 00000037    1C    00005F6C
   00000001 00000037    1C    0000694C
   00000001 00000037    1C    00006AEC
   00000001 00000038    1C    00002D10
   00000001 00000038    1C    00006924
   00000001 00000039    1C    00002D14
   00000001 00000039    1C    00005F70
   00000001 0000003A    1C    00002D18
   00000001 0000003A    1C    00005F74
   00000001 0000003B    1C    00003610
   00000001 0000003C    1C    00003620
   00000001 0000003C    1C    000042DC
   00000001 0000003C    1C    00004A90
   00000001 0000003C    1C    00005F58
   00000001 0000003C    1C    00006928
   00000001 0000003C    1C    00006AF0
   00000001 0000003C    1C    00007108
   00000001 0000003D    1C    00003624
   00000001 0000003D    1C    000042E0
   00000001 0000003D    1C    00004A94
   00000001 0000003D    1C    00005F64
   00000001 0000003D    1C    0000692C
   00000001 0000003D    1C    0000710C
   00000001 0000003E    1C    00003640
   00000001 0000003E    1C    00004298
   00000001 0000003E    1C    00006974
1MAIL     (MAIL4072) (12:48) (15MAR04) Relocation Dictionary                                                                Page  130
   00000001 0000003F    1C    00003654
   00000001 0000003F    1C    000042C4
   00000001 0000003F    1C    00004AB0
   00000001 00000040    1C    000042CC
   00000001 00000041    1C    00004A98
   00000001 00000041    1C    00005F68
   00000001 00000042    1C    00004AD4
   00000001 00000043    1C    00004E48
   00000001 00000043    1C    00004E70
   00000001 00000043    1C    00004EC0
   00000001 00000043    1C    00004EE8
   00000001 00000043    1C    00004F10
   00000001 00000043    1C    00004F38
   00000001 00000043    1C    00004F60
   00000001 00000043    1C    00004F88
   00000001 00000043    1C    00004FB0
   00000001 00000043    1C    00004FD8
   00000001 00000043    1C    00005000
   00000001 00000043    1C    00005028
   00000001 00000043    1C    00005050
   00000001 00000043    1C    00005078
   00000001 00000044    1C    00004E98
   00000001 00000045    1C    000050A4
   00000001 00000046    1C    000050C8
   00000001 00000047    1C    000050CC
   00000001 00000048    1C    000050F4
   00000001 00000049    1C    0000511C
   00000001 0000004A    1C    00005140
   00000001 0000004B    1C    00005144
   00000001 0000004C    1C    00005400
   00000001 0000004D    1C    00005404
   00000001 0000004E    1C    00005420
   00000001 0000004F    1C    00005424
   00000001 00000050    1C    00005E9C
   00000001 00000051    1C    00005EB8
   00000001 00000052    1C    00005EC0
   00000001 00000052    1C    0000712C
   00000001 00000053    1C    00005EC4
   00000001 00000053    1C    00007130
   00000001 00000054    1C    00005EC8
   00000001 00000054    1C    00007134
   00000001 00000055    1C    00005ECC
   00000001 00000055    1C    00007128
   00000001 00000056    1C    00005F30
   00000001 00000056    1C    00006950
   00000001 00000056    1C    00007118
   00000001 00000057    1C    00006920
   00000001 00000058    1C    00006954
   00000001 00000058    1C    00006AE8
   00000001 00000059    1C    00006964
   00000001 0000005A    1C    00006968
   00000001 0000005B    1C    0000697C
   00000001 0000005B    1C    00007138
   00000001 0000005C    1C    00006980
   00000001 0000005D    1C    00007144
   00000001 0000005E    1C    0000715C

1MAIL     (MAIL4072) (12:48) (15MAR04) Ordinary Symbol and Literal Cross Reference                                          Page  131
-Symbol   Length   Value     Id    R Type   Defn References                                  HLASM R4.0  2004/03/15 12.48
0$$$@R0        1 00000000 FFFFFFFE     J     718  1028
 $$$@R10       1 00000000 FFFFFFF4     J     848  1092
 $$$@R11       1 00000000 FFFFFFF3     J     861  1105
 $$$@R12       1 00000000 FFFFFFF2     J     874  1118
 $$$@R13       1 00000000 FFFFFFF1     J     887  1131
 $$$@R14       1 00000000 FFFFFFF0     J     900  1144
 $$$@R7        1 00000000 FFFFFFF7     J     809  1041
 $$$@R8        1 00000000 FFFFFFF6     J     822  1054   1066
 $$$@R9        1 00000000 FFFFFFF5     J     835  1079
 $$$C1WYLMAIL
               1 00000672 00000001     J    9442  9444   9542   9678  10479  10569  12072  12177  12442  12526  12622
                                                 12718
 $$$C10WYLMAIL
               1 000060F8 00000001     J   36374 36376  36402
 $$$C11WYLMAIL
               1 00006A77 00000001     J   39161 39163
 $$$C12WYLMAIL
               1 00006AF8 00000001     J   39301 39303  39337  40346  40367  40437  40711  40871
 $$$C13WYLMAIL
               1 00007218 00000001     J   41685 41687
 $$$C14WYLMAIL
               1 00007218 00000001     J   41701 41703
 $$$C2WYLMAIL
               1 000012D0 00000001     J   12940 12942  13588  14091  14877  15011
 $$$C3WYLMAIL
               1 000019C2 00000001     J   15101 15103  15134  15993  16815  17688
 $$$C4WYLMAIL
               1 000023C2 00000001     J   18298 18300  18335  20738
 $$$C5WYLMAIL
               1 00002E42 00000001     J   21152 21154  21281  22592
 $$$C6WYLMAIL
               1 000036FF 00000001     J   24360 24362  24489  25105
 $$$C7WYLMAIL
               1 00004396 00000001     J   28639 28641  28673  28838  30072
 $$$C8WYLMAIL
               1 00004B60 00000001     J   30936 30938
 $$$C9WYLMAIL
               1 000054B0 00000001     J   32954 32956  33110  33551  35542
 $$$D0WYLMAIL
               1 00000636 00000001     J    1004  7875   8094   8156   8234   8302   8365   8539   8841   8906   9265
 $$$D1WYLMAIL
               1 0000129F 00000001     J    9443 10468  10558  12061  12166  12431  12515  12611  12707
 $$$D12WYLMAIL
               1 0000720B 00000001     J   39302 40426  40700
 $$$D2WYLMAIL
               1 000019B5 00000001     J   12941 14866  15000
 $$$D3WYLMAIL
               1 000023B7 00000001     J   15102 15982  16804
 $$$D4WYLMAIL
               1 00002E3C 00000001     J   18299 20727
 $$$D7WYLMAIL
               1 00004B54 00000001     J   28640 28827  30061
 $$$D9WYLMAIL
               1 000060EE 00000001     J   32955 33540  35531
 $$$RADDIWA
1MAIL     (MAIL4072) (12:48) (15MAR04) Ordinary Symbol and Literal Cross Reference                                          Page  132
               1 00000000 FFFFFFDE     J   13573 13587  13587
 $$$RALIASWA
               1 00000000 FFFFFFE2     J    8703  8716   8716
 $$$RBUFRDIR
               1 00000000 FFFFFFD1     J   40330 40345  40345
 $$$RBUFXWA
               1 00000000 FFFFFFD0     J   40351 40366  40366
 $$$RCHKAIWA
               1 00000000 FFFFFFDB     J   17674 17687  17687
 $$$RCP        1 00000000 FFFFFFEC     J    2470  4730   6204   6204
 $$$RCV        1 00000000 FFFFFFEE     J    1195  2380   2380
 $$$RDEV       1 00000000 FFFFFFEB     J    4684  4729   4729
 $$$RDISTWA
               1 00000000 FFFFFFDD     J   13986 14090  14090
 $$$RHAIL      1 00000000 FFFFFFE5     J    7076  7093   7093
 $$$RHOST      1 00000000 FFFFFFE4     J    7103  7174   7174
 $$$RHOSTCWA
               1 00000000 FFFFFFE1     J    8974  8993   8993
 $$$RJCB       1 00000000 FFFFFFE7     J    6681  6955   6955
 $$$RKWR       1 00000000 FFFFFFE9     J    6393  6598   6598
 $$$RLOCEMWA
               1 00000000 FFFFFFDC     J   15120 15133  15133
 $$$RMAILWA
               1 00000000 FFFFFFDF     J    9547  9677   9677
 $$$RMID       1 00000000 FFFFFFE0     J    9450  9541   9541
 $$$RMLOGWA
               1 00000000 FFFFFFCF     J   40769 40870  40870
 $$$RNSCNCB
               1 00000000 FFFFFFED     J    2391  2464   2464
 $$$RPRTNWA
               1 00000000 FFFFFFD2     J   39315 39336  39336
 $$$RSBATWA
               1 00000000 FFFFFFD9     J   21168 21280  21280
 $$$RSBITWA
               1 00000000 FFFFFFD8     J   22479 22591  22591
 $$$RSDIRWA
               1 00000000 FFFFFFD5     J   28647 28672  28672
 $$$RSEGCB
               1 00000000 FFFFFFE6     J    6961  7061   7061
 $$$RSENDWA
               1 00000000 FFFFFFDA     J   18309 18334  18334
 $$$RSGTEHWA
               1 00000000 FFFFFFD6     J   25079 25104  25104
 $$$RSGTEWA
               1 00000000 FFFFFFD7     J   24376 24488  24488
 $$$RSHMWA
               1 00000000 FFFFFFD4     J   32965 33109  33109
 $$$RSHOSTWA
               1 00000000 FFFFFFE3     J    7180  7209   7209
 $$$RSIN       1 00000000 FFFFFFE8     J    6604  6675   6675
 $$$RSMIWA
               1 00000000 FFFFFFD3     J   36382 36401  36401
 $$$RTTYPE
               1 00000000 FFFFFFEA     J    6215  6316   6316
 $$$SEGCB0
               4 00000050 FFFFFFEC     F    2501  2587   2587
 $$$SEGCB271
               4 00000008 FFFFFFDD     F   13994 14080  14080
 $$$SEGCB457
1MAIL     (MAIL4072) (12:48) (15MAR04) Ordinary Symbol and Literal Cross Reference                                          Page  133
               4 00000004 FFFFFFD9     F   21185 21271  21271
 $$$SEGCB487
               4 00000004 FFFFFFD8     F   22496 22582  22582
 $$$SEGCB530
               4 00000004 FFFFFFD7     F   24393 24479  24479
 $$$SEGCB982
               4 00000000 FFFFFFCF     F   40776 40862  40862
 $$$100        6 0000065A 00000001     I    8545  8537X
 $$$1000F      2 0000702C 00000001     H   41362 41281B
 $$$1001F      2 0000700E 00000001     H   41325 41298B
 $$$1002F      2 00007068 00000001     H   41450 41375B 41394B
 $$$1004F      2 000070A4 00000001     H   41545 41491B
 $$$1005F      2 000070C0 00000001     H   41586 41559B
 $$$101        6 0000065A 00000001     I    8544  8545   8545
 $$$104B       1 00000470 00000001     X    8745  8752U
 $$$105F       2 000004CA 00000001     H    8938  8807B
 $$$105S       2 00000476 00000001     H    8780  8937B
 $$$108F       2 00000498 00000001     H    8857  8833B
 $$$109        6 00000660 00000001     I    8847  8839X
 $$$110        6 00000660 00000001     I    8846  8847   8847
 $$$111F       2 000004C6 00000001     H    8928  8871B
 $$$112F       2 000004BE 00000001     H    8922  8898B
 $$$113        6 00000666 00000001     I    8912  8904X
 $$$114        6 00000666 00000001     I    8911  8912   8912
 $$$115        1 000000A0 00000001 A   U    8968  8965   8967
 $$$117B       1 000004F4 00000001     X    9034  9041U
 $$$118F       2 000005A4 00000001     H    9377  9128B
 $$$118S       2 00000526 00000001     H    9101  9376B
 $$$121B       4 00000534 00000001     I    9146  9331
 $$$121F       2 0000058C 00000001     H    9327  9146B  9187B  9330
 $$$123B       4 00000556 00000001     I    9201  9235
 $$$123F       2 00000568 00000001     H    9231  9201B  9234
 $$$124F       2 00000568 00000001     H    9227  9217B
 $$$125E       2 0000056C 00000001     H    9242  9236
 $$$125F       2 0000058C 00000001     H    9323  9238B
 $$$126F       2 00000578 00000001     H    9281  9257B
 $$$127        6 0000066C 00000001     I    9271  9263X
 $$$128        6 0000066C 00000001     I    9270  9271   9271
 $$$129F       2 0000058C 00000001     H    9319  9288B
 $$$130F       2 0000058C 00000001     H    9315  9305B
 $$$131E       2 00000590 00000001     H    9338  9332
 $$$131F       2 000005A0 00000001     H    9367  9334B
 $$$132F       2 000005A0 00000001     H    9363  9353B
 $$$133        1 000000B0 00000001 A   U    9404  9401   9403
 $$$134B       1 00000684 00000001     X    9695  9702U
 $$$135F       2 000006D0 00000001     H    9757  9743B
 $$$136F       2 000006EA 00000001     H    9790  9777B
 $$$137F       2 00000704 00000001     H    9823  9808B
 $$$138F       2 00000796 00000001     H    9953  9914B
 $$$139B       4 000007A2 00000001     I    9986  9998
 $$$139F       2 000007AC 00000001     H    9995  9986B  9997
 $$$140E       2 000007B0 00000001     H   10005  9999
 $$$140F       2 000007C0 00000001     H   10013 10001B
 $$$141F       2 00000802 00000001     H   10093 10049B
 $$$142B       4 000007EE 00000001     I   10064 10076
 $$$142F       2 000007F8 00000001     H   10073 10064B 10075
 $$$143E       2 000007FC 00000001     H   10083 10077
 $$$143F       2 00000802 00000001     H   10089 10079B
 $$$144F       2 0000081E 00000001     H   10124 10108B
1MAIL     (MAIL4072) (12:48) (15MAR04) Ordinary Symbol and Literal Cross Reference                                          Page  134
 $$$145B       4 00000830 00000001     I   10143 10494
 $$$145F       2 0000092A 00000001     H   10488 10143B 10493
 $$$146F       2 00000850 00000001     H   10175 10158B
 $$$147F       2 00000882 00000001     H   10245 10190B 10218B
 $$$147T       2 0000086C 00000001     H   10221 10207B
 $$$150F       2 000008E0 00000001     H   10383 10257B
 $$$151F       2 000008E0 00000001     H   10379 10366B
 $$$151T       2 000008DA 00000001     H   10369 10277B 10290B 10303B 10316B 10329B 10342B 10355B
 $$$159F       2 0000090A 00000001     H   10425 10408B
 $$$160F       2 0000091C 00000001     H   10445 10436B
 $$$161F       2 0000092A 00000001     H   10484 10460B
 $$$162        6 000012A0 00000001     I   10474 10466X
 $$$163        6 000012A0 00000001     I   10473 10474  10474
 $$$164E       2 0000092E 00000001     H   10501 10495
 $$$164F       2 000009E0 00000001     H   10739 10497B
 $$$165F       2 00000946 00000001     H   10535 10526B
 $$$166F       2 00000954 00000001     H   10574 10550B
 $$$167        6 000012A6 00000001     I   10564 10556X
 $$$168        6 000012A6 00000001     I   10563 10564  10564
 $$$170F       2 000009B8 00000001     H   10699 10661B
 $$$171F       2 000009B2 00000001     H   10691 10676B
 $$$172F       2 000009E0 00000001     H   10735 10711B
 $$$173B       4 000009FA 00000001     I   10801 11137
 $$$173F       2 00000AD6 00000001     H   11132 10801B 11136
 $$$174B       4 00000A44 00000001     I   10904 10987
 $$$174F       2 00000A78 00000001     H   10983 10904B 10986
 $$$175E       2 00000A7C 00000001     H   10994 10988
 $$$175F       2 00000A8C 00000001     H   11027 10990B
 $$$176F       2 00000AC6 00000001     H   11110 11040B
 $$$177E       2 00000ADA 00000001     H   11144 11138
 $$$177F       2 00000B84 00000001     H   11375 11140B
 $$$178F       2 00000B44 00000001     H   11291 11238B
 $$$179F       2 00000B9E 00000001     H   11425 11388B
 $$$180F       2 00000BF0 00000001     H   11498 11484B
 $$$181F       2 00000C2A 00000001     H   11595 11512B
 $$$182F       2 00000C0A 00000001     H   11538 11528B
 $$$183F       2 00000C22 00000001     H   11573 11549B
 $$$185F       2 00000C6A 00000001     H   11746 11611B
 $$$185S       2 00000C2E 00000001     H   11605 11745B
 $$$187F       2 00000C62 00000001     H   11734 11644B
 $$$188F       2 00000C62 00000001     H   11730 11661B
 $$$188S       2 00000C40 00000001     H   11655 11729B
 $$$190F       2 00000C5A 00000001     H   11718 11686B 11703B
 $$$192F       2 00000C8E 00000001     H   11816 11762B
 $$$192S       2 00000C6E 00000001     H   11756 11815B
 $$$194F       2 00000C86 00000001     H   11804 11791B
 $$$195F       2 00000CA6 00000001     H   11872 11832B
 $$$196F       2 00000CA6 00000001     H   11868 11852B
 $$$197F       2 00000DD8 00000001     H   11982 11966B
 $$$199F       2 00000E00 00000001     H   12037 12028B
 $$$200F       2 00000E14 00000001     H   12077 12053B
 $$$201        6 000012AC 00000001     I   12067 12059X
 $$$202        6 000012AC 00000001     I   12066 12067  12067
 $$$205F       2 00000E3E 00000001     H   12142 12133B
 $$$206F       2 00000E52 00000001     H   12182 12158B
 $$$207        6 000012B2 00000001     I   12172 12164X
 $$$208        6 000012B2 00000001     I   12171 12172  12172
 $$$209F       2 00000E8C 00000001     H   12277 12209B
 $$$209S       2 00000E64 00000001     H   12202 12276B
1MAIL     (MAIL4072) (12:48) (15MAR04) Ordinary Symbol and Literal Cross Reference                                          Page  135
 $$$211F       2 00000E76 00000001     H   12235 12225B
 $$$212F       2 00000E86 00000001     H   12270 12247B 12260B
 $$$214F       2 00000E9A 00000001     H   12299 12288B
 $$$215F       2 00000ECC 00000001     H   12378 12310B
 $$$216F       2 00000ECC 00000001     H   12374 12330B
 $$$217B       4 00000EB8 00000001     I   12345 12357
 $$$217F       2 00000EC2 00000001     H   12354 12345B 12356
 $$$218E       2 00000EC6 00000001     H   12364 12358
 $$$218F       2 00000ECC 00000001     H   12370 12360B
 $$$219F       2 00000EEC 00000001     H   12407 12398B
 $$$220F       2 00000F00 00000001     H   12447 12423B
 $$$221        6 000012B8 00000001     I   12437 12429X
 $$$222        6 000012B8 00000001     I   12436 12437  12437
 $$$223F       2 00000F2C 00000001     H   12492 12483B
 $$$224F       2 00000F3A 00000001     H   12531 12507B
 $$$225        6 000012BE 00000001     I   12521 12513X
 $$$226        6 000012BE 00000001     I   12520 12521  12521
 $$$227F       2 00000F4A 00000001     H   12561 12545B
 $$$228F       2 00000F6A 00000001     H   12588 12579B
 $$$229F       2 00000F78 00000001     H   12627 12603B
 $$$230        6 000012C4 00000001     I   12617 12609X
 $$$231        6 000012C4 00000001     I   12616 12617  12617
 $$$232F       2 00000F88 00000001     H   12657 12641B
 $$$233F       2 00000FA8 00000001     H   12684 12675B
 $$$234F       2 00000FB6 00000001     H   12723 12699B
 $$$235        6 000012CA 00000001     I   12713 12705X
 $$$236        6 000012CA 00000001     I   12712 12713  12713
 $$$237F       2 00000FC6 00000001     H   12753 12737B
 $$$239B       1 000012EA 00000001     X   12974 12981U
 $$$240F       2 00001348 00000001     H   13128 13082B
 $$$240S       2 000012EC 00000001     H   12998 13127B
 $$$241B       4 0000130C 00000001     I   13032 13054
 $$$241F       2 0000131C 00000001     H   13051 13032B 13053
 $$$242E       2 00001320 00000001     H   13061 13055
 $$$242F       2 00001326 00000001     H   13070 13057B
 $$$244F       2 00001340 00000001     H   13119 13101B
 $$$245        1 00000040 00000001 A   U   13147 13144  13146
 $$$247B       1 00001370 00000001     X   13190 13197U
 $$$248F       2 00001396 00000001     H   13267 13227B 13255B
 $$$248S       2 00001376 00000001     H   13219 13266B
 $$$248T       2 0000138C 00000001     H   13258 13244B
 $$$252F       2 000013E0 00000001     H   13358 13278B
 $$$253F       2 000013B0 00000001     H   13316 13297B
 $$$254F       2 000013EC 00000001     H   13384 13374B
 $$$255        1 00000040 00000001 A   U   13402 13399  13401
 $$$257B       1 00001414 00000001     X   13436 13443U
 $$$258F       2 00001432 00000001     H   13485 13472B
 $$$259S       2 0000143E 00000001     H   13502 13542B
 $$$261        1 00000050 00000001 A   U   13567 13564  13566
 $$$263B       1 0000149A 00000001     X   13624 13631U
 $$$264F       2 000014FC 00000001     H   13744 13681B
 $$$265F       2 0000152A 00000001     H   13803 13788B
 $$$266F       2 00001544 00000001     H   13838 13818B
 $$$269F       2 0000157E 00000001     H   13921 13907B
 $$$270        1 0000005C 00000001 A   U   13980 13977  13979
 $$$280B       1 000015B8 00000001     X   14130 14137U
 $$$281F       2 00001678 00000001     H   14379 14328B
 $$$282F       2 00001678 00000001     H   14375 14358B
 $$$283F       2 0000172C 00000001     H   14579 14528B
1MAIL     (MAIL4072) (12:48) (15MAR04) Ordinary Symbol and Literal Cross Reference                                          Page  136
 $$$284F       2 0000172C 00000001     H   14575 14558B
 $$$285        1 00000294 00000001 A   U   14605 14602  14604
 $$$287B       1 00001758 00000001     X   14644 14651U
 $$$288F       2 0000177E 00000001     H   14740 14687B 14705B 14728B
 $$$291F       2 000017DA 00000001     H   14896 14767B
 $$$291S       2 0000178A 00000001     H   14760 14895B
 $$$293F       2 000017D0 00000001     H   14887 14783B
 $$$294F       2 000017BA 00000001     H   14843 14804B
 $$$295F       2 000017CC 00000001     H   14882 14858B
 $$$296        6 000019B6 00000001     I   14872 14864X
 $$$297        6 000019B6 00000001     I   14871 14872  14872
 $$$298F       2 000017F8 00000001     H   14950 14911B
 $$$299F       2 0000180A 00000001     H   14976 14961B
 $$$300F       2 0000181C 00000001     H   15016 14992B
 $$$301        6 000019BC 00000001     I   15006 14998X
 $$$302        6 000019BC 00000001     I   15005 15006  15006
 $$$303        1 00000050 00000001 A   U   15049 15046  15048
 $$$305B       1 000019DC 00000001     X   15162 15169U
 $$$307F       2 00001A0E 00000001     H   15268 15258B
 $$$308F       2 00001A24 00000001     H   15296 15281B
 $$$309F       2 00001A7C 00000001     H   15388 15341B 15374B
 $$$312F       2 00001ACE 00000001     H   15494 15404B
 $$$313F       2 00001AA0 00000001     H   15440 15423B
 $$$314F       2 00001AC6 00000001     H   15488 15473B
 $$$315F       2 00001B76 00000001     H   15709 15531B
 $$$317F       2 00001B06 00000001     H   15567 15550B
 $$$318F       2 00001B6E 00000001     H   15703 15688B
 $$$319F       2 00001B9E 00000001     H   15755 15745B
 $$$320F       2 00001BB4 00000001     H   15778 15768B
 $$$321F       2 00001C24 00000001     H   15919 15791B
 $$$323F       2 00001BCE 00000001     H   15827 15810B
 $$$324F       2 00001C1C 00000001     H   15913 15898B
 $$$325F       2 00001C4A 00000001     H   15966 15934B
 $$$326        4 000023B8 00000001     I   15988 15980X
 $$$327        4 000023B8 00000001     I   15987 15988  15988
 $$$328F       2 00001C9A 00000001     H   16123 16001B
 $$$329F       2 00001C9A 00000001     H   16119 16022B
 $$$330F       2 00001C6E 00000001     H   16048 16038B
 $$$332F       2 00001C7C 00000001     H   16070 16060B
 $$$334F       2 00001C9A 00000001     H   16115 16085B
 $$$335        1 00000058 00000001 A   U   16175 16172  16174
 $$$337B       1 00001CD4 00000001     X   16213 16220U
 $$$338F       2 00001E50 00000001     H   16845 16255B
 $$$339F       2 00001CF4 00000001     H   16280 16271B
 $$$340F       2 00001D04 00000001     H   16307 16298B
 $$$341F       2 00001D1A 00000001     H   16344 16322B
 $$$342F       2 00001D2A 00000001     H   16371 16357B
 $$$343F       2 00001D64 00000001     H   16440 16384B
 $$$344F       2 00001DC0 00000001     H   16566 16466B
 $$$345F       2 00001DB8 00000001     H   16560 16523B
 $$$346F       2 00001DCC 00000001     H   16592 16578B
 $$$347F       2 00001DD8 00000001     H   16618 16604B
 $$$348F       2 00001DE4 00000001     H   16645 16630B
 $$$349F       2 00001DF0 00000001     H   16671 16656B
 $$$350F       2 00001DFC 00000001     H   16697 16682B
 $$$351F       2 00001E08 00000001     H   16723 16708B
 $$$352F       2 00001E50 00000001     H   16835 16741B
 $$$353F       2 00001E50 00000001     H   16831 16780B 16819B
 $$$353S       2 00001E30 00000001     H   16773 16830B
1MAIL     (MAIL4072) (12:48) (15MAR04) Ordinary Symbol and Literal Cross Reference                                          Page  137
 $$$355F       2 00001E46 00000001     H   16823 16796B
 $$$356        6 000023BC 00000001     I   16810 16802X
 $$$357        6 000023BC 00000001     I   16809 16810  16810
 $$$358        1 00000050 00000001 A   U   16874 16871  16873
 $$$360B       1 00001E7A 00000001     X   16915 16922U
 $$$361F       2 00001E88 00000001     H   16952 16943B
 $$$362B       4 00001E8E 00000001     I   16965 16977
 $$$362F       2 00001E96 00000001     H   16974 16965B 16976
 $$$363E       2 00001E9A 00000001     H   16984 16978
 $$$363F       2 00001F0E 00000001     H   17117 16980B
 $$$364        1 00000050 00000001 A   U   17145 17142  17144
 $$$366B       1 00001F38 00000001     X   17191 17198U
 $$$367F       2 00001FF0 00000001     H   17424 17381B
 $$$368F       2 00001FF0 00000001     H   17420 17411B
 $$$369F       2 0000209C 00000001     H   17616 17573B
 $$$370F       2 0000209C 00000001     H   17612 17603B
 $$$371        1 00000294 00000001 A   U   17654 17651  17653
 $$$373B       1 000020D2 00000001     X   17716 17723U
 $$$374        1 000000D0 00000001 A   U   17772 17769  17771
 $$$376B       1 00002104 00000001     X   17806 17813U
 $$$377F       2 00002122 00000001     H   17888 17865B
 $$$378F       2 00002138 00000001     H   17935 17901B
 $$$379F       2 00002162 00000001     H   18015 17992B
 $$$380F       2 000021A0 00000001     H   18121 18068B
 $$$381F       2 000021E0 00000001     H   18218 18164B
 $$$382        1 00000050 00000001 A   U   18241 18238  18240
 $$$384B       1 000023DC 00000001     X   18370 18377U
 $$$385F       2 00002426 00000001     H   18469 18454B
 $$$386F       2 0000243C 00000001     H   18497 18482B
 $$$387F       2 00002450 00000001     H   18523 18508B
 $$$388F       2 00002484 00000001     H   18594 18537B
 $$$389F       2 000024A0 00000001     H   18626 18608B
 $$$390F       2 000024BC 00000001     H   18658 18640B
 $$$391F       2 000024D2 00000001     H   18686 18672B
 $$$396F       2 000025F4 00000001     H   19001 18759B
 $$$397F       2 000025F0 00000001     H   18995 18815B
 $$$398F       2 00002588 00000001     H   18858 18830B
 $$$399F       2 000025CE 00000001     H   18933 18916B
 $$$400F       2 000025E8 00000001     H   18984 18969B
 $$$401B       4 000025FE 00000001     I   19020 19339
 $$$401F       2 000026D0 00000001     H   19336 19020B 19338
 $$$402F       2 000026D0 00000001     H   19332 19037B
 $$$403F       2 0000263E 00000001     H   19098 19085B
 $$$404F       2 0000264E 00000001     H   19124 19111B
 $$$405F       2 0000265E 00000001     H   19150 19137B
 $$$406F       2 0000268C 00000001     H   19212 19160B
 $$$407F       2 0000269E 00000001     H   19245 19228B
 $$$408F       2 000026C8 00000001     H   19321 19306B
 $$$409E       2 000026D4 00000001     H   19346 19340
 $$$409F       2 00002716 00000001     H   19423 19342B
 $$$410F       2 00002712 00000001     H   19413 19389B
 $$$411F       2 00002724 00000001     H   19447 19434B
 $$$413F       2 0000286E 00000001     H   19937 19483B
 $$$414F       2 00002782 00000001     H   19581 19504B 19551B
 $$$415F       2 0000275C 00000001     H   19530 19520B
 $$$417F       2 000027BE 00000001     H   19652 19639B
 $$$418F       2 000027CE 00000001     H   19678 19665B
 $$$419F       2 000027DE 00000001     H   19704 19691B
 $$$420F       2 000027EE 00000001     H   19730 19717B
1MAIL     (MAIL4072) (12:48) (15MAR04) Ordinary Symbol and Literal Cross Reference                                          Page  138
 $$$421F       2 000027FE 00000001     H   19756 19743B
 $$$422F       2 0000280E 00000001     H   19782 19769B
 $$$423F       2 0000283C 00000001     H   19844 19792B
 $$$424F       2 0000284E 00000001     H   19876 19859B
 $$$425F       2 00002866 00000001     H   19926 19911B
 $$$426F       2 0000290A 00000001     H   20112 19998B
 $$$427F       2 000028D4 00000001     H   20034 20017B
 $$$428F       2 00002906 00000001     H   20107 20092B
 $$$429F       2 0000298A 00000001     H   20294 20167B 20180B 20214B 20282B
 $$$429S       2 0000293E 00000001     H   20159 20293B
 $$$433F       2 0000295E 00000001     H   20217 20199B
 $$$437F       2 00002970 00000001     H   20255 20239B
 $$$441F       2 00002AEA 00000001     H   20787 20325B 20362B
 $$$442F       2 000029BA 00000001     H   20365 20345B
 $$$444F       2 00002A34 00000001     H   20530 20442B
 $$$445F       2 00002A6C 00000001     H   20622 20568B
 $$$446F       2 00002AAA 00000001     H   20701 20635B
 $$$447F       2 00002AC0 00000001     H   20743 20719B
 $$$448        6 00002E3C 00000001     I   20733 20725X
 $$$449        6 00002E3C 00000001     I   20732 20733  20733
 $$$450F       2 00002B3A 00000001     H   20909 20801B
 $$$451F       2 00002B20 00000001     H   20855 20842B
 $$$452F       2 00002B30 00000001     H   20881 20868B
 $$$453F       2 00002B66 00000001     H   20976 20960B
 $$$454F       2 00002B8E 00000001     H   21024 20996B
 $$$454S       2 00002B68 00000001     H   20987 21023B
 $$$456        1 00000058 00000001 A   U   21065 21062  21064
 $$$466B       1 00002E5C 00000001     X   21309 21316U
 $$$467F       2 00002E72 00000001     H   21387 21372B
 $$$468F       2 00002EF8 00000001     H   21555 21539B
 $$$469F       2 00002F1E 00000001     H   21600 21569B
 $$$470        1 00000190 00000001 A   U   21628 21625  21627
 $$$472B       1 00002F46 00000001     X   21662 21669U
 $$$473F       2 00002F84 00000001     H   21786 21715B
 $$$474F       2 00002FB8 00000001     H   21872 21801B
 $$$475F       2 0000300A 00000001     H   21998 21886B
 $$$476F       2 0000303E 00000001     H   22084 22013B
 $$$477F       2 00003088 00000001     H   22190 22140B
 $$$478        1 00000050 00000001 A   U   22236 22233  22235
 $$$480B       1 000030BA 00000001     X   22271 22278U
 $$$481B       4 000030C6 00000001     I   22307 22323
 $$$481F       2 000030CC 00000001     H   22319 22307B 22322
 $$$482E       2 000030D0 00000001     H   22330 22324
 $$$482F       2 0000313A 00000001     H   22443 22326B
 $$$483F       2 00003100 00000001     H   22377 22359B
 $$$485F       2 0000313A 00000001     H   22439 22427B
 $$$486        1 00000050 00000001 A   U   22465 22462  22464
 $$$496B       1 00003168 00000001     X   22620 22627U
 $$$497F       2 0000317E 00000001     H   22698 22683B
 $$$498F       2 000031AE 00000001     H   22769 22743B
 $$$499F       2 0000320E 00000001     H   22896 22862B
 $$$50B        1 00000026 00000001     X    7228  7235U
 $$$500F       2 0000320E 00000001     H   22892 22881B
 $$$501F       2 00003274 00000001     H   23063 22972B
 $$$501S       2 0000323C 00000001     H   22966 23062B
 $$$503F       2 0000326A 00000001     H   23055 23017B
 $$$504F       2 000032C2 00000001     H   23156 23140B
 $$$505F       2 000032DE 00000001     H   23192 23172B
 $$$506        1 00000190 00000001 A   U   23249 23246  23248
1MAIL     (MAIL4072) (12:48) (15MAR04) Ordinary Symbol and Literal Cross Reference                                          Page  139
 $$$508B       1 0000331A 00000001     X   23283 23290U
 $$$51B        4 0000002A 00000001     I    7249  7265
 $$$51F        2 00000034 00000001     H    7261  7249B  7264
 $$$510F       2 000033B4 00000001     H   23514 23449B
 $$$511F       2 00003404 00000001     H   23630 23606B
 $$$512F       2 0000345E 00000001     H   23752 23687B
 $$$513F       2 0000349E 00000001     H   23841 23817B
 $$$514F       2 0000351A 00000001     H   24029 23879B
 $$$515F       2 000034CE 00000001     H   23925 23900B 23913B
 $$$515S       2 000034BA 00000001     H   23891 23924B
 $$$518F       2 0000351A 00000001     H   24025 23956B
 $$$518S       2 000034E4 00000001     H   23950 24024B
 $$$52E        2 00000038 00000001     H    7272  7266
 $$$52F        2 00000040 00000001     H    7295  7268B
 $$$520F       2 0000350A 00000001     H   23996 23987B
 $$$521        1 00000050 00000001 A   U   24071 24068  24070
 $$$523B       1 00003552 00000001     X   24106 24113U
 $$$524B       4 0000355E 00000001     I   24142 24158
 $$$524F       2 00003564 00000001     H   24154 24142B 24157
 $$$525E       2 00003568 00000001     H   24165 24159
 $$$525F       2 000035D2 00000001     H   24278 24161B
 $$$526F       2 00003598 00000001     H   24212 24194B
 $$$528F       2 000035D2 00000001     H   24274 24262B
 $$$529        1 00000050 00000001 A   U   24300 24297  24299
 $$$539B       1 0000371A 00000001     X   24517 24524U
 $$$54F        2 00000076 00000001     H    7345  7335B
 $$$540F       2 00003730 00000001     H   24595 24580B
 $$$541F       2 00003760 00000001     H   24669 24643B
 $$$542F       2 0000377A 00000001     H   24707 24681B
 $$$543F       2 000037CE 00000001     H   24811 24801B
 $$$544F       2 000037DA 00000001     H   24832 24822B
 $$$545F       2 000037F4 00000001     H   24866 24850B
 $$$546F       2 00003866 00000001     H   25036 24931B
 $$$547F       2 00003866 00000001     H   25032 24949B
 $$$547S       2 00003824 00000001     H   24941 25031B
 $$$549F       2 00003862 00000001     H   25027 24964B
 $$$55F        2 00000084 00000001     H    7368  7358B
 $$$550        1 000000D0 00000001 A   U   25065 25062  25064
 $$$552B       1 0000388E 00000001     X   25133 25140U
 $$$553F       2 000038AC 00000001     H   25203 25194B
 $$$554F       2 00003A6C 00000001     H   25912 25215B
 $$$555B       4 000038EA 00000001     I   25294 25395
 $$$555F       2 00003916 00000001     H   25385 25294B 25394
 $$$556F       2 0000390E 00000001     H   25359 25329B 25346B
 $$$558B       4 0000391E 00000001     I   25411 25502
 $$$558E       2 0000391A 00000001     H   25402 25396
 $$$558F       2 00003956 00000001     H   25496 25398B 25411B 25501
 $$$56F        2 00000092 00000001     H    7391  7381B
 $$$560F       2 00003944 00000001     H   25463 25450B
 $$$561E       2 0000395A 00000001     H   25509 25503
 $$$561F       2 0000396A 00000001     H   25540 25505B
 $$$562F       2 00003A5C 00000001     H   25891 25580B 25859B 25880B
 $$$562S       2 00003982 00000001     H   25574 25890B
 $$$564F       2 00003A3A 00000001     H   25832 25597B 25612B
 $$$566F       2 000039E0 00000001     H   25692 25679B
 $$$567F       2 00003A22 00000001     H   25800 25751B
 $$$568F       2 00003A4A 00000001     H   25862 25845B
 $$$57F        2 000000A0 00000001     H    7414  7404B
 $$$572B       4 00003AC2 00000001     I   26025 26248
1MAIL     (MAIL4072) (12:48) (15MAR04) Ordinary Symbol and Literal Cross Reference                                          Page  140
 $$$572F       2 00003B62 00000001     H   26245 26025B 26247
 $$$573F       2 00003B32 00000001     H   26158 26060B
 $$$574F       2 00003B58 00000001     H   26219 26195B
 $$$575E       2 00003B66 00000001     H   26255 26249
 $$$575F       2 00003C04 00000001     H   26457 26251B
 $$$576F       2 00003BB0 00000001     H   26347 26283B
 $$$577F       2 00003F18 00000001     H   27757 26558B 27725B 27746B
 $$$577S       2 00003C0A 00000001     H   26468 27756B
 $$$578F       2 00003C50 00000001     H   26593 26503B
 $$$579F       2 00003C40 00000001     H   26562 26520B 26535B
 $$$581F       2 00003C50 00000001     H   26589 26574B
 $$$582F       2 00003EEA 00000001     H   27667 26606B 27655B
 $$$582S       2 00003C50 00000001     H   26600 27666B
 $$$584F       2 00003ED2 00000001     H   27624 26623B 26669B 26681B
 $$$584T       2 00003C82 00000001     H   26684 26655B
 $$$586F       2 00003C70 00000001     H   26658 26641B
 $$$589B       4 00003C86 00000001     I   26696 26768
 $$$589F       2 00003CBE 00000001     H   26765 26696B 26767
 $$$590E       2 00003CC2 00000001     H   26775 26769
 $$$590F       2 00003CEC 00000001     H   26832 26771B
 $$$591B       4 00003CF4 00000001     I   26849 26951
 $$$591F       2 00003D48 00000001     H   26947 26849B 26950
 $$$592E       2 00003D4C 00000001     H   26958 26952
 $$$592F       2 00003DAC 00000001     H   27088 26954B 26969B
 $$$594F       2 00003DAC 00000001     H   27084 26986B
 $$$595B       4 00003DB8 00000001     I   27118 27157
 $$$595F       2 00003DCC 00000001     H   27152 27104B 27118B 27154
 $$$596B       4 00003DB0 00000001     I   27104 27155
 $$$597E       2 00003DD0 00000001     H   27164 27156  27158
 $$$597F       2 00003DE0 00000001     H   27195 27160B
 $$$598F       2 00003E02 00000001     H   27240 27214B 27227B
 $$$60F        2 00000130 00000001     H    7625  7519B  7536B
 $$$600B       4 00003E0E 00000001     I   27274 27311
 $$$600F       2 00003E22 00000001     H   27308 27274B 27310
 $$$601E       2 00003E26 00000001     H   27318 27312
 $$$601F       2 00003E36 00000001     H   27349 27314B
 $$$602F       2 00003E68 00000001     H   27425 27363B 27376B
 $$$604F       2 00003E80 00000001     H   27478 27455B
 $$$605F       2 00003EBC 00000001     H   27585 27490B
 $$$606F       2 00003EA6 00000001     H   27543 27510B 27528B
 $$$606S       2 00003E8E 00000001     H   27504 27542B
 $$$609F       2 00003EBC 00000001     H   27581 27553B
 $$$610F       2 00003ED2 00000001     H   27620 27596B
 $$$611F       2 00003EE2 00000001     H   27658 27641B
 $$$613F       2 00003EFC 00000001     H   27709 27679B
 $$$616F       2 00003FC0 00000001     H   28019 27772B
 $$$617B       4 00003F26 00000001     I   27787 27861
 $$$617F       2 00003F54 00000001     H   27858 27787B 27860
 $$$618E       2 00003F58 00000001     H   27868 27862
 $$$618F       2 00003FC0 00000001     H   28015 27864B
 $$$619F       2 00003F74 00000001     H   27911 27886B 27899B
 $$$619S       2 00003F60 00000001     H   27877 27910B
 $$$62F        2 0000011E 00000001     H    7603  7556B  7571B
 $$$622F       2 00003FC0 00000001     H   28011 27942B
 $$$622S       2 00003F8A 00000001     H   27936 28010B
 $$$624F       2 00003FB0 00000001     H   27982 27973B
 $$$625F       2 00003FE8 00000001     H   28083 28043B
 $$$626        1 00000074 00000001 A   U   28130 28127  28129
 $$$628B       1 00004020 00000001     X   28167 28174U
1MAIL     (MAIL4072) (12:48) (15MAR04) Ordinary Symbol and Literal Cross Reference                                          Page  141
 $$$629F       2 000040A0 00000001     H   28337 28222B
 $$$630F       2 00004066 00000001     H   28271 28253B
 $$$632F       2 000040A0 00000001     H   28333 28321B
 $$$633        1 00000050 00000001 A   U   28364 28361  28363
 $$$635B       1 000040CE 00000001     X   28411 28418U
 $$$636        1 00000050 00000001 A   U   28469 28466  28468
 $$$638B       1 00004206 00000001     X   28515 28522U
 $$$639        1 00000050 00000001 A   U   28572 28569  28571
 $$$64F        2 00000164 00000001     H    7691  7645B
 $$$64S        2 0000013A 00000001     H    7639  7690B
 $$$640B       1 000043B0 00000001     X   28694 28701U
 $$$641F       2 0000478A 00000001     H   30015 28751B
 $$$641S       2 000043B8 00000001     H   28742 30014B
 $$$643F       2 00004782 00000001     H   30008 28787B
 $$$643S       2 000043D6 00000001     H   28780 30007B
 $$$645F       2 00004408 00000001     H   28843 28819B
 $$$646        6 00004B54 00000001     I   28833 28825X
 $$$647        6 00004B54 00000001     I   28832 28833  28833
 $$$648F       2 0000477E 00000001     H   30003 28880B
 $$$649F       2 00004462 00000001     H   28917 28903B
 $$$650F       2 00004776 00000001     H   29989 29036B
 $$$651F       2 00004556 00000001     H   29216 29143B
 $$$652F       2 000045E6 00000001     H   29440 29257B
 $$$653F       2 00004594 00000001     H   29304 29278B 29291B
 $$$655F       2 000045E6 00000001     H   29436 29369B 29382B
 $$$657F       2 000045FE 00000001     H   29477 29450B
 $$$658F       2 0000465C 00000001     H   29593 29520B
 $$$659F       2 00004686 00000001     H   29659 29632B
 $$$66F        2 00000198 00000001     H    7757  7711B
 $$$66S        2 0000016E 00000001     H    7705  7756B
 $$$660F       2 000046C0 00000001     H   29736 29678B
 $$$661F       2 00004742 00000001     H   29911 29806B
 $$$662F       2 00004776 00000001     H   29985 29926B
 $$$663F       2 000047BA 00000001     H   30077 30053B
 $$$664        6 00004B5A 00000001     I   30067 30059X
 $$$665        6 00004B5A 00000001     I   30066 30067  30067
 $$$666B       1 00004810 00000001     X   30172 30179U
 $$$668B       1 00004860 00000001     X   30258 30265U
 $$$669F       2 000048E8 00000001     H   30477 30313B 30337B 30356B 30389B 30435B
 $$$672F       2 000048A4 00000001     H   30392 30375B
 $$$674F       2 000048BC 00000001     H   30438 30408B 30421B
 $$$677F       2 000048E0 00000001     H   30468 30459B
 $$$678F       2 0000494E 00000001     H   30570 30507B
 $$$679        1 00000050 00000001 A   U   30593 30590  30592
 $$$68B        1 000001BA 00000001     X    7794  7801U
 $$$681B       1 00004976 00000001     X   30630 30637U
 $$$682F       2 00004A1E 00000001     H   30857 30695B
 $$$683F       2 000049C8 00000001     H   30731 30714B
 $$$684F       2 00004A0C 00000001     H   30843 30828B
 $$$685        1 00000050 00000001 A   U   30875 30872  30874
 $$$687B       1 00004B7A 00000001     X   30972 30979U
 $$$688F       2 00004BAC 00000001     H   31041 31027B
 $$$689F       2 00004C18 00000001     H   31117 31101B
 $$$690F       2 00004C46 00000001     H   31173 31129B 31144B
 $$$692F       2 00004C66 00000001     H   31206 31191B
 $$$693F       2 00004C7A 00000001     H   31235 31220B
 $$$694F       2 00004DD2 00000001     H   31715 31325B 31341B 31608B 31626B 31641B 31656B
 $$$696F       2 00004D50 00000001     H   31498 31398B
 $$$697F       2 00004D68 00000001     H   31530 31506B
1MAIL     (MAIL4072) (12:48) (15MAR04) Ordinary Symbol and Literal Cross Reference                                          Page  142
 $$$698F       2 00004D80 00000001     H   31562 31538B
 $$$699F       2 00004D98 00000001     H   31594 31570B
 $$$70F        2 000001D8 00000001     H    7852  7843B
 $$$704        1 00000248 00000001 A   U   31776 31773  31775
 $$$706B       1 00005162 00000001     X   32104 32111U
 $$$707        1 00000050 00000001 A   U   32150 32147  32149
 $$$709B       1 000051A6 00000001     X   32177 32184U
 $$$71F        2 000001E6 00000001     H    7891  7867B
 $$$710        1 00000050 00000001 A   U   32213 32210  32212
 $$$712B       1 000051D6 00000001     X   32240 32247U
 $$$713        1 00000050 00000001 A   U   32276 32273  32275
 $$$715B       1 00005206 00000001     X   32303 32310U
 $$$716        1 00000050 00000001 A   U   32339 32336  32338
 $$$718B       1 00005236 00000001     X   32366 32373U
 $$$719        1 00000050 00000001 A   U   32402 32399  32401
 $$$72         6 00000636 00000001     I    7881  7873X
 $$$721B       1 00005266 00000001     X   32429 32436U
 $$$722        1 00000050 00000001 A   U   32465 32462  32464
 $$$724B       1 00005296 00000001     X   32492 32499U
 $$$725        1 00000050 00000001 A   U   32528 32525  32527
 $$$727B       1 000052C6 00000001     X   32555 32562U
 $$$728        1 00000050 00000001 A   U   32591 32588  32590
 $$$73         6 00000636 00000001     I    7880  7881   7881
 $$$730B       1 000052F6 00000001     X   32618 32625U
 $$$731        1 00000050 00000001 A   U   32654 32651  32653
 $$$733B       1 00005326 00000001     X   32681 32688U
 $$$734        1 00000050 00000001 A   U   32717 32714  32716
 $$$736B       1 00005356 00000001     X   32744 32751U
 $$$737        1 00000050 00000001 A   U   32780 32777  32779
 $$$739B       1 00005386 00000001     X   32807 32814U
 $$$74F        2 00000218 00000001     H    7958  7949B
 $$$740        1 00000050 00000001 A   U   32840 32837  32839
 $$$742B       1 000053AE 00000001     X   32867 32874U
 $$$743        1 00000050 00000001 A   U   32906 32903  32905
 $$$744B       1 000054CA 00000001     X   33140 33147U 36269U
 $$$745F       2 00005508 00000001     H   33194 33184B
 $$$746F       2 00005576 00000001     H   33351 33223B
 $$$747F       2 00005568 00000001     H   33341 33241B
 $$$748F       2 0000559A 00000001     H   33389 33375B
 $$$75F        2 00000234 00000001     H    7992  7983B
 $$$751F       2 000055F2 00000001     H   33526 33400B
 $$$752F       2 000055C4 00000001     H   33448 33415B
 $$$757F       2 000055EC 00000001     H   33517 33484B
 $$$758        4 000060EE 00000001     I   33546 33538X
 $$$759        4 000060EE 00000001     I   33545 33546  33546
 $$$76F        2 0000026A 00000001     H    8071  8062B
 $$$760F       2 000056BC 00000001     H   33797 33559B
 $$$761F       2 000056FC 00000001     H   33912 33812B
 $$$763F       2 000056F4 00000001     H   33895 33831B 33844B 33883B
 $$$763S       2 000056C8 00000001     H   33823 33894B
 $$$77F        2 0000027A 00000001     H    8110  8086B
 $$$770F       2 00005730 00000001     H   33988 33975B
 $$$776F       2 000057D0 00000001     H   34145 34112B
 $$$777F       2 0000583E 00000001     H   34257 34169B
 $$$778F       2 00005824 00000001     H   34237 34184B
 $$$779F       2 000058B4 00000001     H   34433 34280B
 $$$78         6 0000063C 00000001     I    8100  8092X
 $$$780F       2 00005878 00000001     H   34355 34297B
 $$$781F       2 00005864 00000001     H   34325 34312B
1MAIL     (MAIL4072) (12:48) (15MAR04) Ordinary Symbol and Literal Cross Reference                                          Page  143
 $$$782F       2 00005874 00000001     H   34350 34337B
 $$$783F       2 00005896 00000001     H   34403 34376B
 $$$784F       2 000058F4 00000001     H   34498 34473B
 $$$785F       2 00005902 00000001     H   34522 34509B
 $$$786F       2 0000593A 00000001     H   34594 34538B 34550B
 $$$79         6 0000063C 00000001     I    8099  8100   8100
 $$$790B       4 0000596C 00000001     I   34674 34721
 $$$790F       2 00005996 00000001     H   34717 34674B 34720
 $$$791F       2 00005996 00000001     H   34713 34696B
 $$$791S       2 00005976 00000001     H   34689 34712B
 $$$793E       2 0000599A 00000001     H   34728 34722
 $$$793F       2 000059C0 00000001     H   34764 34724B
 $$$794F       2 000059C0 00000001     H   34760 34743B
 $$$794S       2 000059A0 00000001     H   34737 34759B
 $$$796F       2 00005A6A 00000001     H   35018 34777B
 $$$797F       2 00005A64 00000001     H   35009 34792B
 $$$799F       2 00005A52 00000001     H   34987 34843B
 $$$80F        2 00000292 00000001     H    8133  8124B
 $$$800F       2 00005A0C 00000001     H   34885 34858B
 $$$801F       2 00005A52 00000001     H   34983 34897B
 $$$804F       2 00005B06 00000001     H   35236 35101B
 $$$805F       2 00005AD4 00000001     H   35154 35141B
 $$$806F       2 00005AE4 00000001     H   35180 35167B
 $$$807F       2 00005AF4 00000001     H   35206 35193B
 $$$808F       2 00005C32 00000001     H   35611 35285B
 $$$808S       2 00005B3A 00000001     H   35276 35610B
 $$$81F        2 000002A2 00000001     H    8172  8148B
 $$$810F       2 00005C0E 00000001     H   35581 35321B
 $$$810S       2 00005B58 00000001     H   35314 35580B
 $$$812F       2 00005BAA 00000001     H   35481 35338B 35358B 35380B
 $$$816F       2 00005BAA 00000001     H   35477 35397B 35415B 35434B
 $$$819F       2 00005BAA 00000001     H   35473 35458B
 $$$82         6 00000642 00000001     I    8162  8154X
 $$$820F       2 00005C00 00000001     H   35568 35492B
 $$$821F       2 00005BDA 00000001     H   35547 35523B
 $$$822        6 000060F2 00000001     I   35537 35529X
 $$$823        6 000060F2 00000001     I   35536 35537  35537
 $$$824F       2 00005C50 00000001     H   35653 35637B
 $$$825F       2 00005C64 00000001     H   35690 35666B 35678B
 $$$827F       2 00005CD2 00000001     H   35919 35721B 35734B 35907B
 $$$827S       2 00005C6C 00000001     H   35713 35918B
 $$$83         6 00000642 00000001     I    8161  8162   8162
 $$$831F       2 00005CA0 00000001     H   35824 35749B
 $$$834F       2 00005C92 00000001     H   35792 35776B
 $$$836F       2 00005CA0 00000001     H   35820 35804B
 $$$838F       2 00005CAC 00000001     H   35852 35836B
 $$$84F        2 000002C0 00000001     H    8212  8203B
 $$$840F       2 00005CB8 00000001     H   35880 35864B
 $$$845F       2 00005CE4 00000001     H   35954 35941B
 $$$848B       1 00005D32 00000001     X   36041 36051U
 $$$849F       2 00005DD2 00000001     H   36255 36075B
 $$$849S       2 00005D36 00000001     H   36066 36254B
 $$$85F        2 000002CC 00000001     H    8250  8226B
 $$$851F       2 00005DCA 00000001     H   36248 36095B
 $$$852F       2 00005DC4 00000001     H   36240 36162B
 $$$853        1 00000050 00000001 A   U   36280 36277  36279
 $$$854B       1 00006112 00000001     X   36426 36436U
 $$$855F       2 00006128 00000001     H   36484 36470B
 $$$856F       2 0000617E 00000001     H   36584 36537B 36555B 36574B
1MAIL     (MAIL4072) (12:48) (15MAR04) Ordinary Symbol and Literal Cross Reference                                          Page  144
 $$$86         6 00000648 00000001     I    8240  8232X
 $$$860F       2 000061EE 00000001     H   36753 36677B
 $$$861F       2 000061DE 00000001     H   36713 36696B
 $$$863F       2 000061EE 00000001     H   36747 36730B
 $$$865F       2 00006202 00000001     H   36788 36768B
 $$$867B       4 00006212 00000001     I   36812 36881
 $$$867F       2 00006240 00000001     H   36877 36812B 36880
 $$$868F       2 00006226 00000001     H   36838 36828B
 $$$869E       2 00006244 00000001     H   36888 36882
 $$$869F       2 0000629C 00000001     H   37002 36884B 36905B 36918B
 $$$87         6 00000648 00000001     I    8239  8240   8240
 $$$872F       2 000062B2 00000001     H   37028 37015B
 $$$873B       4 000062B6 00000001     I   37040 37083
 $$$873F       2 000062D0 00000001     H   37079 37040B 37082
 $$$874F       2 000062CA 00000001     H   37071 37060B
 $$$875E       2 000062D4 00000001     H   37090 37084
 $$$875F       2 000062FE 00000001     H   37155 37086B
 $$$876F       2 000062FE 00000001     H   37151 37135B
 $$$877F       2 0000631A 00000001     H   37185 37173B
 $$$878F       2 0000632C 00000001     H   37212 37198B
 $$$879F       2 0000644C 00000001     H   37657 37231B
 $$$879S       2 0000632C 00000001     H   37222 37656B
 $$$88F        2 000002E6 00000001     H    8280  8271B
 $$$881F       2 00006434 00000001     H   37623 37263B
 $$$881S       2 00006348 00000001     H   37256 37622B
 $$$883F       2 000063B0 00000001     H   37456 37287B
 $$$884B       4 0000636E 00000001     I   37303 37334
 $$$884F       2 0000637A 00000001     H   37329 37303B 37333
 $$$886B       4 0000638A 00000001     I   37366 37398
 $$$886E       2 0000637E 00000001     H   37341 37335
 $$$886F       2 00006396 00000001     H   37392 37337B 37353B 37366B 37395
 $$$888B       4 00006382 00000001     I   37353 37396
 $$$89F        2 000002F2 00000001     H    8318  8294B
 $$$890E       2 0000639A 00000001     H   37405 37397  37399
 $$$890F       2 000063B0 00000001     H   37452 37401B
 $$$892F       2 000063B0 00000001     H   37448 37436B
 $$$894F       2 000063DC 00000001     H   37508 37492B
 $$$896F       2 0000640E 00000001     H   37587 37571B
 $$$897F       2 0000642A 00000001     H   37616 37604B
 $$$899F       2 0000647E 00000001     H   37716 37699B
 $$$90         6 0000064E 00000001     I    8308  8300X
 $$$901B       4 000064C8 00000001     I   37811 37959
 $$$901F       2 0000653A 00000001     H   37956 37811B 37958
 $$$902F       2 00006516 00000001     H   37900 37827B
 $$$903F       2 0000653A 00000001     H   37952 37941B
 $$$904E       2 0000653E 00000001     H   37966 37960
 $$$904F       2 00006658 00000001     H   38459 37962B
 $$$905F       2 0000657A 00000001     H   38047 37979B
 $$$906F       2 0000657A 00000001     H   38043 38001B
 $$$907F       2 0000658E 00000001     H   38086 38059B
 $$$909F       2 000065CC 00000001     H   38196 38126B
 $$$91         6 0000064E 00000001     I    8307  8308   8308
 $$$912F       2 000065BE 00000001     H   38186 38170B
 $$$914F       2 0000661A 00000001     H   38352 38250B
 $$$915F       2 00006616 00000001     H   38339 38312B
 $$$918B       4 00006630 00000001     I   38394 38414
 $$$918F       2 0000663A 00000001     H   38411 38394B 38413
 $$$919E       2 0000663E 00000001     H   38421 38415
 $$$919F       2 00006644 00000001     H   38433 38417B
1MAIL     (MAIL4072) (12:48) (15MAR04) Ordinary Symbol and Literal Cross Reference                                          Page  145
 $$$92F        2 00000308 00000001     H    8343  8334B
 $$$921F       2 000066C0 00000001     H   38547 38534B
 $$$922F       2 000066F0 00000001     H   38618 38567B
 $$$923B       4 00006712 00000001     I   38647 38717
 $$$923F       2 00006754 00000001     H   38713 38647B 38716
 $$$924B       4 00006734 00000001     I   38673 38690
 $$$924F       2 00006742 00000001     H   38687 38673B 38689
 $$$925E       2 00006746 00000001     H   38697 38691
 $$$925F       2 00006750 00000001     H   38708 38693B
 $$$926E       2 00006758 00000001     H   38724 38718
 $$$926F       2 0000678E 00000001     H   38797 38720B
 $$$927F       2 00006776 00000001     H   38757 38737B
 $$$928F       2 0000678E 00000001     H   38793 38770B 38783B
 $$$93F        2 00000314 00000001     H    8381  8357B
 $$$931B       4 000068CC 00000001     I   39036 39072
 $$$931F       2 000068DA 00000001     H   39069 39036B 39071
 $$$932E       2 000068DE 00000001     H   39079 39073
 $$$932F       2 000068E4 00000001     H   39089 39075B
 $$$933B       4 00006ABC 00000001     I   39216 39234
 $$$933F       2 00006AC6 00000001     H   39231 39216B 39233
 $$$934E       2 00006ACA 00000001     H   39241 39235
 $$$934F       2 00006AD4 00000001     H   39256 39237B
 $$$936B       1 00006B12 00000001     X   39364 39371U
 $$$938F       2 00006B38 00000001     H   39470 39451B
 $$$94         6 00000654 00000001     I    8371  8363X
 $$$940F       2 00006BB6 00000001     H   39677 39506B
 $$$941F       2 00006B76 00000001     H   39533 39523B
 $$$942F       2 00006B8E 00000001     H   39584 39546B
 $$$943F       2 00006B8C 00000001     H   39576 39561B
 $$$944F       2 00006BAC 00000001     H   39650 39599B 39612B
 $$$946F       2 00006BAA 00000001     H   39642 39627B
 $$$947F       2 00006BB6 00000001     H   39673 39660B
 $$$948F       2 00006BCE 00000001     H   39712 39697B
 $$$949F       2 00006BE2 00000001     H   39741 39724B
 $$$95         6 00000654 00000001     I    8370  8371   8371
 $$$950        1 00000044 00000001 A   U   39770 39767  39769
 $$$951B       1 00006C0C 00000001     X   39788 39795U
 $$$953B       1 00006C58 00000001     X   39873 39880U
 $$$954F       2 00006D58 00000001     H   40208 39941B 39961B 39990B 40003B 40022B 40041B
 $$$96F        2 00000332 00000001     H    8423  8400B  8413B
 $$$961B       4 00006CC2 00000001     I   40058 40076
 $$$961F       2 00006CD2 00000001     H   40073 40058B 40075
 $$$962E       2 00006CD6 00000001     H   40083 40077
 $$$962F       2 00006CE6 00000001     H   40096 40079B
 $$$963F       2 00006D2E 00000001     H   40187 40124B
 $$$964F       2 00006D98 00000001     H   40285 40222B
 $$$965        1 00000050 00000001 A   U   40310 40307  40309
 $$$966B       1 00006DC0 00000001     X   40379 40386U
 $$$967F       2 00006DD6 00000001     H   40442 40418B
 $$$968        6 0000720C 00000001     I   40432 40424X
 $$$969        6 0000720C 00000001     I   40431 40432  40432
 $$$970B       4 00006DE2 00000001     I   40465 40519
 $$$970F       2 00006E14 00000001     H   40516 40465B 40518
 $$$971F       2 00006DF6 00000001     H   40493 40480B
 $$$973E       2 00006E18 00000001     H   40526 40520
 $$$973F       2 00006E44 00000001     H   40574 40522B
 $$$974F       2 00006E3C 00000001     H   40561 40547B
 $$$975F       2 00006EA0 00000001     H   40675 40599B
 $$$976F       2 00006E6E 00000001     H   40627 40616B
1MAIL     (MAIL4072) (12:48) (15MAR04) Ordinary Symbol and Literal Cross Reference                                          Page  146
 $$$977F       2 00006E7E 00000001     H   40651 40638B
 $$$979F       2 00006EB4 00000001     H   40716 40692B
 $$$98F        2 0000037E 00000001     H    8517  8508B
 $$$980        6 00007212 00000001     I   40706 40698X
 $$$981        6 00007212 00000001     I   40705 40706  40706
 $$$99F        2 0000038A 00000001     H    8555  8531B
 $$$991B       1 00006EEC 00000001     X   40899 40906U
 $$$992        1 0000018C 00000001 A   U   41121 41118  41120
 $$$993B       1 00006FA6 00000001     X   41145 41152U
 $$$995F       2 000070CC 00000001     H   41615 41199B 41453B
 $$$997F       2 00006FE8 00000001     H   41268 41215B
 $$$999F       2 00006FDC 00000001     H   41259 41232B
 $USINTMS      1 00000004 00000001 A   U    6346  6357
 $USINTSY      1 00000008 00000001 A   U    6348  6357
 $USINTUS      1 00000002 00000001 A   U    6344  6357
 $USSTC        1 00000020 00000001 A   U    6352  6357
 @PAR          0 00000000 FFFFFFF5     @    1080 22348  22379  22387  24183  24214  24222  28242  28273  28281  28770
                                                 28796  28866  35304  35326  35574  36507  37250  38637  39487  40507M
                                                 40507  40576  40665M 40665  40676M
 @PBR          0 00000000 FFFFFFF4     @    1093 34041M 34041  34679  34730  40111  40198M
 @RAR          0 00000000 FFFFFFF0     @    1145  2178   2186B
 @R0           0 00000000 FFFFFFFE     @     719   995U
 @R1           0 00000000 FFFFFFFD     @     732   991U  2184   2185   7880   8239   8307   8370   8412   8544   8883
                                                  8911   9270   9849   9866  10035M 10036M 10069M 10085M 10204  10217
                                                 10274  10287  10300  10313  10326  10339  10352  10365  10473  10563
                                                 11468  12066  12171  12315M 12316M 12350M 12366M 12436  12520  12616
                                                 12712  13241  13254  13260  13296  13471  13490  14702  14735  14782
                                                 14871  15347  16795  16809M 17900  18067  22407  22426  22433  24242
                                                 24261  24268  27489  27525  28301  28320  28327  28803  28832  30491U
                                                 30492  30679U 30680  32124  33190  34437M 35337  35355  35364  35396
                                                 35412  35431  35457  35507  35536  36536  36552  36571  36662  36827
                                                 36834M 36915  37007  37286  37302  37352  37365  37417  37442  39505
                                                 39522  39545  39598  39611  39926U 39927  40705M
 @R10          0 00000000 FFFFFFF4     @     849   955U
 @R11          0 00000000 FFFFFFF3     @     862   951U
 @R12          0 00000000 FFFFFFF2     @     875   947U
 @R13          0 00000000 FFFFFFF1     @     888   943U  7786M 14319  14519  17372  17564  28686M 30164M 31725  33132M
                                                 33925M 33964  33994M 34033  36418M 39780M 40371M 41137M
 @R14          0 00000000 FFFFFFF0     @     901   939U 14261M 14293  14461M 14493  17314M 17346  17506M 17538  20732
                                                 30066  31244M 31276
 @R15          0 00000000 FFFFFFEF     @     914   935U  8047U  8134M  8161M  8418   8419   8618U  8818U  8884U  9067
                                                  9069  11726U 13948U 14725  14891  15020  15021  16824  21010  22341
                                                 22880  24176  28236  28765  28804U 28805  28867U 28868  30324U 33536U
                                                 33739U 33962U 34031U 35299  35508U 35509  35575U 35576  35597  36085
                                                 36502  37059  37179  37245  37610  38227U 38284U 38346U 38384  38503
                                                 38631  38672  38709M 38736  38758M 38782  38789M 39482  39973U 40402
                                                 40431  40535  40584U 40585
 @R2           0 00000000 FFFFFFFC     @     745   987U  7995   8099   8161   9270   9960U 15978U 18132  21019  22388U
                                                 22389  23760M 23912  24223U 24224  25419M 26369M 27898  28282U 28283
                                                 36250  36957  38789  39685U 39686  40403U 40404
 @R3           0 00000000 FFFFFFFB     @     758   983U  8179U  9968U 12224  12259  23016  23056  30000U 30799U 36518
                                                 37162  37187  37268  37593  37618  39488  39684  40536U 40678
 @R4           0 00000000 FFFFFFFA     @     771   979U 15005  16149U 16842U 20311U 22364  24199  28258  30010  31685U
                                                 34701  34702  34708  34749  34750  35606  40195M 40196M 40197  40657
 @R5           0 00000000 FFFFFFF9     @     784   975U  7687U  7753U  8643U  8870   8877M  8911M 11451U 11742U 11812U
                                                 13959U 15033U 16154U 16858U 18225U 21044U 21607U 22220U 23228U 24055U
                                                 25044U 28109U 28348U 30132U 30312  30323  30353  30374  30407  30420
                                                 30490  30678  33919U 35926U 37204  37625  37652  39708  39925  39940
                                                 39958  39972  40000  40019  40038  40057  40086M 40742U 41622U
1MAIL     (MAIL4072) (12:48) (15MAR04) Ordinary Symbol and Literal Cross Reference                                          Page  147
 @R6           0 00000000 FFFFFFF8     @     797   971U  7766U  8650U  8934U  9373U 28373U 28450U 30139U 30216U 30577U
                                                 30884U 39274U 39749U 39831U 40294U 40583  40705
 @R7           0 00000000 FFFFFFF7     @     810   967U  7772U  8656U  8957U  9393U 12843U 13136U 13391U 13556U 13969U
                                                 14594U 15038U 16164U 16863U 17134U 17643U 17761U 18230U 21054U 21617U
                                                 22225U 22454U 23238U 24060U 24289U 25054U 28119U 28353U 28458U 28561U
                                                 30152U 30222U 30582U 30864U 31765U 32139U 32202U 32265U 32328U 32391U
                                                 32454U 32517U 32580U 32643U 32706U 32769U 32829U 32895U 36048U 36266U
                                                 36433U 39287U 39759U 39837U 40299U 40755U 41110U 41634U
 @R8           0 00000000 FFFFFFF6     @     823   963U  8952U  9388U 13964U 14589U 16159U 17638U 17756U 21049U 21612U
                                                 23233U 25049U 28114U 30146U 31760U 39281U 39754U 40749U 41105U
 @R9           0 00000000 FFFFFFF5     @     836   959U
 ABSCENT       1 00000000 00000000 A   T    2194  2194
 ACCTPSHC      1 00000000 00000045     T   32019 32019
 ADDIEXIT      6 0000158A 00000001     I   13952 13863B 13889B
 ADDIOLDM      4 00000008 FFFFFFDE     A   13580 13654M 13952
 ADDIPTRS      4 00000000 FFFFFFDE     A   13579 13653M 13842
 ADDITEM       2 00001480 00000001     H   13603 15069
 ADDIWA       12 00000000 FFFFFFDE     J   13587 13616  13645U 13977  13979  13980
 ADDLEXIT      4 00001468 00000001     I   13547 13481B 13492B 13525B
 ADDLINE       4 0000479C 00000001     I   30035 30906
 ADDLIST       2 000013FA 00000001     H   13417 12881  15063  18264
 ALIASCEX      2 000004CC 00000001     H    8948  8924B
 ALIASCHK      2 00000456 00000001     H    8724 18265
 ALIASNM      80 00000000 FFFFFFE2     C    8709  8819M  8846M  8870   8877
 ALIASWA      80 00000000 FFFFFFE2     J    8716  8737   8766U  8965   8967   8968
 ASCTBL        1 00000000 00000000 A   T    2202  2202
 BILLCHK       1 00000000 00000013     T   12862 12862  32919
 BITFIX        2 000041EC 00000001     H   28496 24334  28599
 BLTBL         1 00000000 00000000 A   T    2204  2204
 BR            7 00000007 00000001 A   #    1035  7791M  7801U  8740M  9029M 12969M 13185M 13431M 13619M 14125M 14639M
                                                 15157M 16208M 16910M 17186M 17711M 17801M 18365M 21304M 21657M 22266M
                                                 22615M 23278M 24101M 24512M 25128M 28162M 28406M 28510M 28691M 28701U
                                                 30169M 30179U 30204M 30204  30253M 30625M 30967M 32099M 32172M 32235M
                                                 32298M 32361M 32424M 32487M 32550M 32613M 32676M 32739M 32802M 32862M
                                                 33137M 33147U 36036M 36423M 36436U 39359M 39785M 39795U 39819M 39819
                                                 39868M 40376M 40386U 40894M 41142M 41152U
 BTD           1 00000000 00000018     T   12868 12868  21098  36315
 BUFRCUR       2 00000002 FFFFFFD1     H   40337 28750  40457  40500M 40658M
 BUFRDIR       4 00000000 FFFFFFD1     J   40345 28731U 40453U
 BUFREXIT      2 00006EC4 00000001     I   40731 40623B
 BUFRLINE      4 00006DA6 00000001     I   40371 12898  30914  41654
 BUFRMAX       2 00000000 FFFFFFD1     H   40336 40615
 BUFRPG        2 00000004 FFFFFFD1     H   40338 28756  40498M 40528  40656M
 BUFRRTRY      4 00006E44 00000001     I   40576 40671B
 BUFXLINE    256 00000020 FFFFFFD0     X   40359 40431M 40443
 BUFXWA      288 00000000 FFFFFFD0     J   40366 40375  40395U
 CHECKIOB      1 00000000 00000000 A   T    2250  2250
 CHKAACCT    128 00000000 FFFFFFDB     X   17680 17743
 CHKACCID      2 000020B8 00000001     H   17695 18270
 CHKACCT       1 00000000 0000002F     T   18274 18274
 CHKAIWA     128 00000000 FFFFFFDB     J   17687 17708  17737U 17769  17771  17772
 CHKDDONE      2 000020AA 00000001     H   17631 17620B 17628B
 CHKDLIST      2 00001F1E 00000001     H   17170 18269
 CHKIDONE      2 00001F10 00000001     H   17127 17113B
 CHKIOK        2 00001F0E 00000001     H   17120 16948B 16970B
 CHKITEM       2 00001E60 00000001     H   16896 18254
 COLLPRT       1 00000000 00000010     T   11934 11934  39136
 COLLPSH       1 00000000 00000049     T   32064 32064
 COMMAND       1 00000000 00000000 A   T    2190  2190
1MAIL     (MAIL4072) (12:48) (15MAR04) Ordinary Symbol and Literal Cross Reference                                          Page  148
 COMMSEG       1 00000000 00000000 A   T    2191  2191
 CP         4096 00000000 FFFFFFEC     J    6204  1179U
 CP#MAIL       1 00000014 FFFFFFEC A   U    3959 13001
 CP#XSTK       1 00000010 FFFFFFEC A   U    3936  3937
 CPACFLG       1 000005D5 FFFFFFEC     R    4039  4043   4048   4053   4058   4063
 CPACFLN       4 000005C4 FFFFFFEC     F    4031  4066   4066
 CPACHCT       4 000005B4 FFFFFFEC     F    3996 11864M 11864
 CPAFLAG       1 000005C3 FFFFFFEC     R    4003  4007   4012   4017   4022
 CPANAME       8 00000588 FFFFFFEC     C    3985  4081   4081
 CPAUTFLG      1 000008A9 FFFFFFEC     R    4349  4353   4358   4363   4368
 CPCACCT       5 00000C48 FFFFFFEC     C    5014 31005M 31397  31729  33240
 CPCGRP        2 00000C4B FFFFFFEC     C    5016 31439  31444  33256  33261  33592  33597  34096  35037  36115
 CPCHFLAG      1 00000B68 FFFFFFEC     R    4976  4980
 CPCMD       235 00000242 FFFFFFEC     C    2829 31289  31294  31307  31310  31702  32944
 CPCMDLEN      2 00000240 FFFFFFEC     H    2828 31678M 31706
 CPCMNM        3 00000D24 FFFFFFEC     C    5302  7248   9776  10142  11511  11831  18481  20800  21568  41231  41297
                                                 41391  41558
 CPCUSER       3 00000C48 FFFFFFEC     C    5015 31479  31484  33302  33307  33638  33643  34097  35038  36116
 CPCWA         4 00000CA4 FFFFFFEC     F    5228  7309M  7803   9714M 21334  21678  22287  22645  23299  24122  24542
                                                 25158  28183  28427  30181  30283  30655  33152M 39397  39797  39898
 CPDFLG        1 0000084C FFFFFFEC     R    4236  4240   4245   4250   4255   4260
 CPDFLG2       1 0000084D FFFFFFEC     R    4265  4269   4274   4279   4284   4289   4294
 CPDMPDLT      4 00000C6C FFFFFFEC     F    5027 38188
 CPDMPLST      4 00000C68 FFFFFFEC     F    5026 38187
 CPDOUB        8 00000C88 FFFFFFEC     D    5222 31134M 31135
 CPDRED        4 00000DD8 FFFFFFEC     F    5761 19950M 35246M
 CPDSNWA       4 00000E5C FFFFFFEC     F    5841 18697M 18697  18698M 18698  34058M 34058  34059M 34059  35968M 35968
                                                 35969M 35969
 CPERRID       8 00000886 FFFFFFEC     C    4335 10166M 10416M 10726M 18901M 19270M 30555M 30844M 33384M 33443M 33472M
                                                 33788M 34225M
 CPEXFLG       1 00000758 FFFFFFEC     R    4105  4109
 CPEXFLG2      1 00000759 FFFFFFEC     R    4115  4124   4134
 CPEXFLG3      1 0000075A FFFFFFEC     R    4141  4145   4150
 CPEXTFLG      1 00000E28 FFFFFFEC     R    5787  5791   5796   5801   5806   5811   5816
 CPFABORT    128 00000D5A FFFFFFEC         5553  2154M  2154   2159M  2159  11850  11850  11851  34427M
 CPFALL        1 00000010 FFFFFFEC A   U    5319  7459  10599
 CPFBDEST     32 00000D5C FFFFFFEC         5598 23171  23188M
 CPFDUMP     128 00000D55 FFFFFFEC         5418 31100  31190  31605  34363M 37990M 38142M 39035
 CPFERROR     64 00000D5A FFFFFFEC         5558  2153M  2153   2158M  2158  11850  11850  18990M 19327M 19932M 30850M
                                                 34231M
 CPFEXPRG    128 00000D88 FFFFFFEC         5677 19363M 34453M
 CPFFIRST     64 00000D58 FFFFFFEC         5513 34791  36797M
 CPFINT       16 00000D58 FFFFFFEC         5523 31623  32888M 33483  34549  34806  36811  37435  41163
 CPFNLST       1 00000020 FFFFFFEC A   U    5407 38149  38358
 CPFNOCAT     32 00000D56 FFFFFFEC         5463 18743M 19419M 19570M 34092M 35028M 35961M 36106M
 CPFNPT       64 00000C7D FFFFFFEC         5186 36453M 37672M
 CPFNTEX       1 00000040 FFFFFFEC A   U    5405  5406
 CPFQUIET     64 00000D55 FFFFFFEC         5423 15422  15436M 15484M 15549  15563M 15699M 15809  15823M 15909M 18915
                                                 18929M 18980M 19227  19241M 19317M 19858  19872M 19922M 20016  20030M
                                                 20103M 21371  21393M 21551M 22682  22704M 23152M 24579  24601M 24862M
                                                 30713  30727M 30839M
 CPFRDEXE      2 00000D89 FFFFFFEC         5731 11527
 CPFRDEXT      3 00000D89 FFFFFFEC         5741  7467M
 CPFRDRNG      1 00000D88 FFFFFFEC     R    5673  5677   5682   5687   5692   5697   5702   5707  19357M 34447M
 CPFRDSRC      1 00000D89 FFFFFFEC     R    5712  5721   5731   5741
 CPFRECAT      8 00000D56 FFFFFFEC         5473 19576M
 CPFRTNER      1 00000040 FFFFFFEC A   U    5249  7829   8629  38439  38921
 CPFSCRTC      1 00000040 FFFFFFEC A   U    5328 19454  35065
 CPFSLN        4 00000D90 FFFFFFEC     F    5745 19376M 19376  34460M 34460
1MAIL     (MAIL4072) (12:48) (15MAR04) Ordinary Symbol and Literal Cross Reference                                          Page  149
 CPFSNSEP     16 00000CD0 FFFFFFEC         5257  7916M
 CPFSOME       2 00000D88 FFFFFFEC         5707 11583  19369M
 CPFTODFT      1 00000001 FFFFFFEC A   U    5322 38157  38180
 CPFTYPED     16 00000477 FFFFFFEC         3610 31693M
 CPFUNUM       1 00000080 FFFFFFEC A   U    5404  5406
 CPFVER       32 00000D58 FFFFFFEC         5518 31011M 31113M 31128  38000  38058
 CPFXDFLG      1 000007E4 FFFFFFEC     R    4183  4187   4192
 CPGFLG1       1 00000474 FFFFFFEC     R    3546  3550   3555   3560   3565   3570   3900   3900
 CPGFLG10      1 0000047D FFFFFFEC     R    3783  3787   3792   3797   3802   3807   3812
 CPGFLG11      1 0000047E FFFFFFEC     R    3818  3822   3827
 CPGFLG12      1 0000047F FFFFFFEC     R    3833  3837   3842   3847
 CPGFLG13      1 00000480 FFFFFFEC     R    3853  3857
 CPGFLG14      1 00000481 FFFFFFEC     R    3863  3867   3872   3877   3882   3887
 CPGFLG4       1 00000477 FFFFFFEC     R    3599  3610   3619   3628   3637   3646
 CPGFLG5       1 00000478 FFFFFFEC     R    3652  3656   3661   3666   3671   3676   3681   3686   3691
 CPGFLG6       1 00000479 FFFFFFEC     R    3697  3701   3706   3711
 CPGFLG7       1 0000047A FFFFFFEC     R    3717  3721   3726   3731   3736
 CPGFLG8       1 0000047B FFFFFFEC     R    3742  3746   3751   3756   3761
 CPGFLG9       1 0000047C FFFFFFEC     R    3767  3771   3777
 CPINIT        1 00000174 FFFFFFEC     U    2716  6173
 CPJESFLG      1 000009E1 FFFFFFEC     R    4448  4452   4457   4462   4467   4472   4477   4482   4487
 CPJESFLY      1 000009FD FFFFFFEC     R    4498  4502   4507   4512
 CPJESHFL      1 000009E0 FFFFFFEC     R    4433  4437   4442   4521   4521
 CPLCNO        4 0000073C FFFFFFEC     F    4090 30276  30548  30648  39891
 CPLCOLXP    128 00000D57 FFFFFFEC         5483 38169
 CPLFLG1       1 00000D50 FFFFFFEC     R    5316  7461M 10601M 38159M 38182M
 CPLFLG10      1 00000D59 FFFFFFEC     R    5539  5543
 CPLFLG11      1 00000D5A FFFFFFEC     R    5549  5553   5558   5563   5568
 CPLFLG12      1 00000D5B FFFFFFEC     R    5574  5578
 CPLFLG14      1 00000D5C FFFFFFEC     R    5584  5588   5593   5598   5603   5608
 CPLFLG2       1 00000D51 FFFFFFEC     R    5326 19456M 35067M
 CPLFLG5       1 00000D54 FFFFFFEC     R    5401 38151M 38360M
 CPLFLG6       1 00000D55 FFFFFFEC     R    5414  5418   5423   5428   5433   5438   5443
 CPLFLG7       1 00000D56 FFFFFFEC     R    5449  5453   5458   5463   5468   5473
 CPLFLG8       1 00000D57 FFFFFFEC     R    5479  5483   5488   5493   5498
 CPLFLG9       1 00000D58 FFFFFFEC     R    5504  5508   5513   5518   5523   5528   5533
 CPLOCALZ      1 00000C48 FFFFFFEC     U    5006  6167   6167
 CPLRCL        4 00000D9C FFFFFFEC     F    5748 18700M 19463M 19463  19940  34061M 35081M 35081  35239
 CPLSLN        4 00000D94 FFFFFFEC     F    5746 19377M 34461M
 CPLSTOWD    128 00000D58 FFFFFFEC         5508 38125  38137M
 CPLWCHAR     16 00000C56 FFFFFFEC     C    5024  9748M  9749M 31032M 31033M
 CPMFLG        1 0000084F FFFFFFEC     R    4303  4307
 CPMODFLG      1 00000C78 FFFFFFEC     R    5034  5038   5043   5048   5053   5058
 CPNAME       20 00000174 FFFFFFEC     C    2717 10096  10096  10107M 10107
 CPNAMELN      1 00000010 FFFFFFEC A   U    3929  4176
 CPNEDPFX     10 00000E29 FFFFFFEC     X    5820  5821   5822
 CPNMAIL       4 000001EC FFFFFFEC     F    2733  9925   9926M
 CPNREC        4 00000D64 FFFFFFEC     F    5647 19945M 35244M
 CPNSCANP      4 0000008C FFFFFFEC     A    2589 31053  31060  31076  32122
 CPNUMFLG      1 00000C79 FFFFFFEC     R    5064  5076
 CPNWCT        4 00000D70 FFFFFFEC     U    5650 19954M 30191M 35250M 39807M
 CPNXAD        4 00000D6C FFFFFFEC     U    5649 19953M 35249M
 CPOFNPAS     64 00000149 FFFFFFEC         2658 10256
 CPORVCMD      1 00000140 FFFFFFEC     R    2598  2602   2607   2612   2617   2622   2627   2632   2637   2642   2642
                                                  2693   2693
 CPORVFLG      1 00000149 FFFFFFEC     R    2649  2653   2658   2663   2668   2673   2678   2683   2688
 CPORVWF       1 00000150 FFFFFFEC     R    2701  2705
 CPOSCAN     124 00000CA8 FFFFFFEC     X    5300  9653  10510  10615M 38483M
 CPOSCANX      4 00000CA8 FFFFFFEC     F    5233  5300   5300
1MAIL     (MAIL4072) (12:48) (15MAR04) Ordinary Symbol and Literal Cross Reference                                          Page  150
 CPR          11 0000000B 00000001 A   #    1099  1179U
 CPRACBAD     16 000001FC FFFFFFEC         2767  2801   2801   2802   2802
 CPRACF1       1 000001FC FFFFFFEC     R    2748  2752   2757   2762   2767   2772   2777   2782   2787   2803
 CPRACPSW     32 000001FC FFFFFFEC         2762  2800   2800   2802   2802
 CPRACUND     64 000001FC FFFFFFEC         2757  2800   2800   2801   2801
 CPRCSZ        4 00000D68 FFFFFFEC     U    5648 19951M 35247M
 CPRCVCUR      4 00000730 FFFFFFEC     A    4084  4086   4086
 CPRFEXT     128 000008AA FFFFFFEC         4378 19433  20959  34311  34508  35636  35940
 CPRFLG        1 000008AA FFFFFFEC     R    4374  4378   4383   4388   4393   4398   4403
 CPRG16       32 00000524 FFFFFFEC     X    3923 13000  13022
 CPS         254 00000344 FFFFFFEC     X    3518  3521   3522   3524   3524
 CPSACCT       5 000003B4 FFFFFFEC     C    3117  3280   3280  31005  31397  33240
 CPSAMCOD      1 00000A22 FFFFFFEC     R    4570  4578   4588   4598   4607   4616   4625   4635   4644   4653
 CPSAMFLG      1 00000A21 FFFFFFEC     R    4530  4534   4539   4544   4549   4554   4559   4564   4675   4675
 CPSAVE        4 00000C9C FFFFFFEC     A    5227 38915
 CPSCANBK      6 00000CC0 FFFFFFEC     X    5240 38483
 CPSCNERT      4 00000CC8 FFFFFFEC     A    5241  7832M 38442M
 CPSCNFLG      1 00000CD0 FFFFFFEC     R    5246  5257   5266   5277   7831M  8631M 38441M 38923M
 CPSCNF2       1 00000CD1 FFFFFFEC     R    5282  5286
 CPSCNLEN      2 00000CAC FFFFFFEC     H    5235 10614
 CPSCNLOC      4 00000CA8 FFFFFFEC     F    5234 10611  10616
 CPSCNMAX      1 00000014 FFFFFFEC A   U    5298  5299
 CPSCRI        2 00000434 FFFFFFEC     H    3507  3512   3512
 CPSEG        60 00000050 FFFFFFEC     X    2587  7595   7617  10236  11564  13702  13729  14260  14261  14261  14265
                                                 14285  14293  14319M 14460  14461  14461  14465  14485  14493  14519M
                                                 14828  14935  15093  15459  15581  15609  15627  15655  15673  15841
                                                 15859  15882  16412  16430  16484  16507  16552  17008  17026  17044
                                                 17062  17089  17107  17313  17314  17314  17318  17338  17346  17372M
                                                 17505  17506  17506  17510  17530  17538  17564M 17926  17962  18035
                                                 18087  18113  18147  18182  18210  18283  18555  18585  18873  18896
                                                 18954  19055  19178  19200  19265  19291  19404  19594  19612  19810
                                                 19832  19896  20048  20078  20377  20395  20473  20491  20518  20550
                                                 20586  20614  20653  20675  20693  20756  20819  20901  20932  21587
                                                 23212  24881  24911  24989  25019  28944  28967  28995  29013  29057
                                                 29094  29122  29161  29189  29207  29241  29324  29352  29400  29428
                                                 29469  29499  29538  29566  29584  29618  29651  29696  29724  29753
                                                 29781  29824  29852  29870  29898  29944  29972  30090  30525  30543
                                                 30745  30788  30814  31164  31243  31244  31244  31248  31268  31276
                                                 31725M 32946  33269  33287  33315  33333  33509  33577  33605  33623
                                                 33651  33669  33697  33715  33763  33783  34202  34220  34395  34417
                                                 34488  34568  34586  34828  34877  34915  34957  34975  35001  35120
                                                 35226  35999  36180  36207  36232  36632  36650  36865  36942  36972
                                                 36990  37120  37556  37849  37870  37888  37926  38023  38110  38330
                                                 38591  38609  38854  38945  38963  38981  38999  39061  40142  40172
                                                 40240  40270  41251  41317  41339  41413  41441  41475  41509  41537
                                                 41578  41607
 CPSEGCOD      1 00000050 FFFFFFEC     R    2504  2513   2523   2533   2543   2553   2563   2573
 CPSEGLENF
               4 0000005C FFFFFFEC     A    2579  7555M  7555   7570  20703  30037
 CPSEGLOC      4 00000070 FFFFFFEC     A    2583 20705  30039
 CPSEGMRKF
               4 00000058 FFFFFFEC     A    2578  7570
 CPSEGRTN      4 00000074 FFFFFFEC     A    2584 14293M 14293  14493M 14493  17346M 17346  17538M 17538  31276M 31276
 CPSEQFLD      2 00000DA0 FFFFFFEC     H    5749 18699M 34060M
 CPSFL         1 00000384 FFFFFFEC     R    2855  2859   2864   2869   2874   2879
 CPSFLG        1 000003F8 FFFFFFEC     R    3395  3399   3404   3409   3414   3419   3424   3429   3434
 CPSFLG2       1 000003F9 FFFFFFEC     R    3440  3444   3449   3454
 CPSFL2        1 00000385 FFFFFFEC     R    2885  2889   2894   2899   2904
 CPSFL3        1 00000386 FFFFFFEC     R    2910  2914   2919   2924
1MAIL     (MAIL4072) (12:48) (15MAR04) Ordinary Symbol and Literal Cross Reference                                          Page  151
 CPSFL4        1 00000387 FFFFFFEC     R    2930  2934   2939   2944
 CPSFL5        1 00000388 FFFFFFEC     R    2950  2954   2959   2964
 CPSFSPR      32 000003BE FFFFFFEC         3220  7283  12006  12090
 CPSGRP        2 000003B7 FFFFFFEC     C    3119 10007  10918  10923  15346  20344  29839  29844
 CPSKAFL       1 000003BF FFFFFFEC     R    3251  3255   3260   3265   3270   3275
 CPSKIFL       1 000003BE FFFFFFEC     R    3206  3210   3215   3220   3225   3230   3235   3240   3245
 CPSOF         1 000001F8 FFFFFFEC     X    2738  2740   2740
 CPSOFLAG      1 00000416 FFFFFFEC     R    3465  3469   3474   3479   3484   3489
 CPSOPST       4 000003C4 FFFFFFEC     F    3285  3514   3514
 CPSPORT       8 00000354 FFFFFFEC     C    2849  2969   2969
 CPSQFLG       1 000003EC FFFFFFEC     R    3314  3318
 CPSSFLG       1 000003BB FFFFFFEC     R    3124  3128   3133   3138   3143   3148   3153
 CPSSTART      4 00000344 FFFFFFEC     F    2841  2845   2845   3281   3281   3386   3386   3518   3518
 CPSSTAT       1 0000038F FFFFFFEC     R    3061  3065   3070   3075   3080   3085   3090   3095
 CPSTACF       1 000003BC FFFFFFEC     R    3159  3163   3168   3173   3178   3183   3188   3193   3198
 CPSTART       4 00000000 FFFFFFEC     C    2477  6171   6175
 CPSTFLAG      1 000003EA FFFFFFEC     R    3292  3296   3301   3306
 CPSTYPE       1 0000038C FFFFFFEC     R    2974  2983   2993   3003   3013   3023   3033   3043   3053
 CPSUFLG       1 000003EE FFFFFFEC     R    3329  3333   3338   3343   3348   3353   3358   3363   3368
 CPSUFLG2      1 000003EF FFFFFFEC     R    3374  3378   3383
 CPSUSER       3 000003B4 FFFFFFEC     C    3118 10009  10962  10967  20359  29885  29890
 CPSVPGM       8 0000039C FFFFFFEC     C    3107  3113   3113
 CPS1ST        4 0000038C FFFFFFEC     F    2971  3516   3516
 CPTEMPP#      1 0000005F FFFFFFEC A   U    4424  4426
 CPTRMFL1      1 00000C7A FFFFFFEC     R    5082  5086   5091   5096   5220   5220
 CPTRMFL2      1 00000C7B FFFFFFEC     R    5102  5106   5111   5116   5121   5126   5131
 CPTRMFL3      1 00000C7C FFFFFFEC     R    5137  5141   5146   5151   5156   5161   5166   5171
 CPTRMFL4      1 00000C7D FFFFFFEC     R    5177  5181   5186   5191   5196   5201   5206   5211
 CPUID        32 00000198 FFFFFFEC     C    2720  9985M  9985   9991   9991  10903  29805
 CPUSED        1 00000FBC FFFFFFEC A   U    6171  6172
 CPVACURS      8 00000AF0 FFFFFFEC     D    4949  4950   4951
 CPVCURS       8 00000AE0 FFFFFFEC     D    4943  4944   4945
 CPVFLAG       1 00000AC8 FFFFFFEC     R    4744  4748   4753   4758   4763   4768
 CPVFLAG2      1 00000AC9 FFFFFFEC     R    4774  4778   4783   4788   4793   4798   4803
 CPVFLAG3      1 00000ACA FFFFFFEC     R    4809  4813   4818   4823   4828   4833   4838
 CPVFLAG4      1 00000ACB FFFFFFEC     R    4844  4848   4853   4858
 CPVLFLAG      1 00000ACE FFFFFFEC     R    4913  4917   4922   4927
 CPVMODE       1 00000ACC FFFFFFEC     R    4866  4870   4875   4880   4885   4890   4895   4900   4905
 CPVTWID       2 00000AD0 FFFFFFEC     H    4933  4936   4936
 CPWCHAR      16 00000448 FFFFFFEC     C    3529  9742   9749  31026  31033
 CPWK1         4 00000D60 FFFFFFEC     F    5617  5632   5655
 CPWK2         4 00000D64 FFFFFFEC     F    5618  5633   5647
 CPWK3         4 00000D68 FFFFFFEC     F    5619  5634   5648
 CPWK4         4 00000D6C FFFFFFEC     F    5620  5635   5649
 CPWK5         4 00000D70 FFFFFFEC     F    5621  5637   5642   5650
 CPWK6         4 00000D74 FFFFFFEC     F    5622  5638   5643   5651   5658   5660
 CPWK7         4 00000D78 FFFFFFEC     F    5623  5636   5652  31308M 31499  31531  31563  31632  31647
 CPWK8         4 00000D7C FFFFFFEC     F    5624 32124M 32125
 CPXFLAG       1 000007FD FFFFFFEC     R    4211  4215
 CPXSTATE      4 000007F8 FFFFFFEC     F    4205  4218   4218
 CV         4016 00000000 FFFFFFEE     J    2380  1188U
 CVABORT       4 000007DA FFFFFFEE     I    2159 15678B 15888B 18840B 18959B 19296B 19901B 31169B
 CVABSRTN      4 0000088C FFFFFFEE     V    2194  2169
 CVABTMSG      4 000007CC FFFFFFEE     I    2154  9819B 31231B 38865B 40183B 40281B
 CVBLANKS    235 000004D8 FFFFFFEE     C    1974  8192   8260   8323   8497   8819   8877   9855   9974  10095  10426
                                                 12038  12143  12382  12408  12473  12544  12569  12640  12665  12736
                                                 14844  14978  15750  15773  16303  16321  16809  17837  31412  36834
 CVBRMSK       1 00000751 FFFFFFEE     X    2110  2111   2112
 CVCFLAG       1 00000A00 FFFFFFEE     R    2275  2279   2284   2289   2294   2299
1MAIL     (MAIL4072) (12:48) (15MAR04) Ordinary Symbol and Literal Cross Reference                                          Page  152
 CVCHKST       8 000009F0 FFFFFFEE     D    2265  2355   2355
 CVCHKST2      8 00000E28 FFFFFFEE     D    2358  2361   2361
 CVCOMRTN      4 0000087C FFFFFFEE     V    2190  2160
 CVCURJCB      4 000001C8 FFFFFFEE     A    1459  9872  33926  33995  38198  38255
 CVDBGFLG      1 000004CC FFFFFFEE     R    1964  1968
 CVENT         4 0000074C FFFFFFEE     I    2108  7225B  7791B  8740B  9029B  9692B 12969B 13185B 13431B 13619B 14125B
                                                 14639B 15157B 16208B 16910B 17186B 17711B 17801B 18365B 21304B 21657B
                                                 22266B 22615B 23278B 24101B 24512B 25128B 28162B 28406B 28510B 28691B
                                                 30169B 30253B 30625B 30967B 32099B 32172B 32235B 32298B 32361B 32424B
                                                 32487B 32550B 32613B 32676B 32739B 32802B 32862B 33137B 36036B 36423B
                                                 39359B 39785B 39868B 40376B 40894B 41142B
 CVENTBR       2 00000750 FFFFFFEE     I    2109  2110
 CVERRMSG      4 000007C8 FFFFFFEE     I    2153 10171B 10421B 10687B 10731B 11978B 13740B 14839B 14946B 14972B 30566B
 CVERROR       4 000007D6 FFFFFFEE     I    2158  2174B
 CVEXIRTN      4 0000077C FFFFFFEE     V    2138  2134
 CVEXNO        1 00000000 00000042     T   30915 30915
 CVFCHRKBPR
               8 000004C9 FFFFFFEE         1879  1895   1895
 CVFCHRKBSE
               4 000004C9 FFFFFFEE         1884  1895   1895
 CVFCHRKCPR
               2 000004C9 FFFFFFEE         1901  1917   1917
 CVFCHRKCSE
               1 000004C9 FFFFFFEE         1906  1917   1917
 CVFCHRUBPR
             128 000004C9 FFFFFFEE         1835  1851   1851
 CVFCHRUBSE
              64 000004C9 FFFFFFEE         1840  1851   1851
 CVFCHRUCPR
              32 000004C9 FFFFFFEE         1857  1873   1873
 CVFCHRUCSE
              16 000004C9 FFFFFFEE         1862  1873   1873
 CVFINIT       8 000004C5 FFFFFFEE         1700  7533
 CVFL          1 000004C4 FFFFFFEE     R    1631  1635   1640   1645   1650   1655   1660   1665   1670
 CVFL2         1 000004C5 FFFFFFEE     R    1676  1680   1685   1690   1695   1700   1705   1710   1715
 CVFL3         1 000004C6 FFFFFFEE     R    1721  1725   1730   1735   1740   1745   1750   1755   1760
 CVFL4         1 000004C7 FFFFFFEE     R    1766  1770   1775   1780   1785   1790   1795   1800
 CVFL5         1 000004C8 FFFFFFEE     R    1806  1810   1815   1820   1825
 CVFL6         1 000004C9 FFFFFFEE     R    1831  1835   1840   1852   1857   1862   1874   1879   1884   1896   1901
                                                  1906   1918
 CVFMEMPAGE
              64 000004C8 FFFFFFEE         1815  9807  31219
 CVFRLG       16 000004C4 FFFFFFEE         1650  7334  10063  10800  12344  25193
 CVHAILQH      4 00000290 FFFFFFEE     A    1545  7695   7696M  8774
 CVHEAP#       1 00000200 FFFFFFEE A   U    1537  1538
 CVHOSTQH      4 0000028C FFFFFFEE     A    1544  7629   7630M  9095
 CVINSTAL      8 00000004 FFFFFFEE     C    1208 10036  10036  10048  12316  12316  12329
 CVINVRTN      4 00000888 FFFFFFEE     V    2193  2163
 CVJESFLG      1 000004CA FFFFFFEE     R    1924  1928
 CVLNKRGS      4 00000780 FFFFFFEE     F    2140  2115M  2141  11492M 28911M 40555M
 CVLNKRTN      4 000007B0 FFFFFFEE     U    2141  2130M
 CVLOCK1       1 00000088 FFFFFFEE     R    1282  1286   1291
 CVLOCK2       1 00000089 FFFFFFEE     R    1296  1300
 CVLOCK3       1 0000008A FFFFFFEE     R    1305  1309
 CVLOCK4       1 0000008B FFFFFFEE     R    1314  1318
 CVLOGMOD      1 00000068 FFFFFFEE     R    1269  1273
 CVMACH        1 00000067 FFFFFFEE     R    1229  1233   1238   1243   1248   1253   1258   1263  15977  33535
 CVMACHID      8 0000000C FFFFFFEE     C    1209  7357   7380   7403  21957  21962  33684  33689
 CVMAXLNO      4 0000015C FFFFFFEE     A    1423 19377  34461
1MAIL     (MAIL4072) (12:48) (15MAR04) Ordinary Symbol and Literal Cross Reference                                          Page  153
 CVMBIT        4 0000018C FFFFFFEE     F    1442 18518  18519M
 CVMEMS        4 0000019C FFFFFFEE     F    1446 18464  18465M
 CVMILRTN      4 00000884 FFFFFFEE     V    2192  2172
 CVMSEND       4 00000188 FFFFFFEE     F    1441 18492  18493M
 CVMSENT       4 00000184 FFFFFFEE     F    1440 18442  18443M
 CVMSHML       4 00000190 FFFFFFEE     F    1443 31179  31180M
 CVMSHMLD      4 00000194 FFFFFFEE     F    1444 31201  31202M
 CVNEXT        4 000007DE FFFFFFEE     I    2160  7488B  7759B 11586B 11874B 31753B 33347B
 CVNOACTN      4 000007EA FFFFFFEE     I    2166 11569B 19409B 31744B
 CVNOARTN      4 00000890 FFFFFFEE     V    2195  2166
 CVNVALID      4 000007E4 FFFFFFEE     I    2163  7286B 12009B 12093B 12472B 12568B 12664B
 CVNWDATE      4 00000608 FFFFFFEE     F    1997  2001   2001
 CVNWMPG#      1 00000008 FFFFFFEE A   U    1999  2000
 CVONE         4 000004D0 FFFFFFEE     F    1972 30449
 CVPFXRTN      1 00000000 00000000 A   T    2138  2138
 CVPGFLAG      1 00000A01 FFFFFFEE     R    2305  2309   2314   2319
 CVPIOSZ       1 00004F80 FFFFFFEE A   U    1368  1370
 CVPPDBQH      4 0000009C FFFFFFEE     A    1326  1327
 CVPSFNO       1 000003E9 FFFFFFEE A   N    1490  1492
 CVPSLNO       1 000007CF FFFFFFEE A   N    1491  1492
 CVPSZ         1 00004F78 FFFFFFEE A   U    1370 41652  41660
 CVPXSZ        1 00000008 FFFFFFEE A   U    1369  1370
 CVR          12 0000000C 00000001 A   #    1112  1188U
 CVRKEY        1 00000008 FFFFFFEE A   U    2063  2064
 CVSEGRTN      4 00000880 FFFFFFEE     V    2191  2155
 CVSTACK#      1 00000080 FFFFFFEE A   U    1529  1530
 CVSTART       4 00000000 FFFFFFEE     C    1202  2373
 CVTRC         4 00000768 FFFFFFEE     I    2130  2116B 11493B 28912B 40556B
 CVTRCRTN      4 00000778 FFFFFFEE     V    2137  2131
 CVUPPTBL      4 000008A8 FFFFFFEE     V    2200  9068  15019
 CVUSFNO       1 00000001 FFFFFFEE A   N    1497  1499
 CVUSLNO       1 000003E7 FFFFFFEE A   N    1498  1499
 CVVOL#        1 00000005 FFFFFFEE A   U    2348  2349
 CVWTOFLG      1 000004CB FFFFFFEE     R    1934  1938   1943   1948   1953   1958
 DDEQ          1 00000000 00000035     T   21117 21117  36321
 DEBUGSG       1 00000000 00000000 A   T    2091  2091
 DENQ          1 00000000 00000031     T   21095 21095  36316
 DEQUOTE       1 00000000 0000000E     T    9428  9428  12904  15070
 DESABORT      1 00000004 FFFFFFEC A   U    6187 11877  21070  36007
 DESPOT        1 00000000 0000000B     T    9423  9423  12900  21107  36323
 DESRTRN       1 00000080 FFFFFFEC A   U    6180  7776  11877  21070  36007
 DEV          12 00000000 FFFFFFEB     J    4729  4737
 DEVMAX#       1 00000002 FFFFFFEC A   U    4680  4737
 DEVTYPE       1 00000001 FFFFFFEB     R    4697  4706   4716
 DISTBUF     256 00000044 FFFFFFDD     C   14081 14176  14181  17229  17234
 DISTCB       60 00000008 FFFFFFDD     X   14080 14189  14209  14233  14250  14392  14409  14433  14450  17242  17262
                                                 17286  17303  17437  17454  17478  17495
 DISTCBCOD
               1 00000008 FFFFFFDD     R   13997 14006  14016  14026  14036  14046  14056  14066
 DISTCBLENF
               4 00000014 FFFFFFDD     A   14072 14308  14508  17361  17553
 DISTCBLOC
               4 00000028 FFFFFFDD     A   14076 14303  14503  17356  17548
 DISTEXIT      2 00001730 00000001     H   14585 14371B 14571B
 DISTITEM      2 0000159E 00000001     H   14109 18255
 DISTRES     256 00000144 FFFFFFDD     C   14083 14295  14296  14495  14496  17348  17349  17540  17541
 DISTRG01      4 00000000 FFFFFFDD     A   13992 14166M 14214  14414  17219M 17267  17459
 DISTWA      580 00000000 FFFFFFDD     J   14090 14122  14151U 14602  14604  14605  17183  17212U 17651  17653  17654
 DOPEN         1 00000000 00000034     T   21111 21111  36331
1MAIL     (MAIL4072) (12:48) (15MAR04) Ordinary Symbol and Literal Cross Reference                                          Page  154
 DOTTBL        1 00000000 00000000 A   T    2207  2207
 DRENCFLG      1 00000F9F FFFFFFEC     R    6135  6139   6144   6149   6154   6159
 DRENPROT      1 00000F9E FFFFFFEC     R    6122  6130
 DSAVBLK       2 00000F96 FFFFFFEC     H    6106 30203M 39818M
 DSAVCNT       2 00000F94 FFFFFFEC     H    6105 30192M 39808M
 DSAVSIZ       1 0000013C FFFFFFEC A   U    6107 18696  34057  35967
 DSAVSPA       4 00000F90 FFFFFFEC     F    6104 30195M 39810M
 DSNBADV       6 00000EBE FFFFFFEC     C    5858 19519M 19519  19526M
 DSNDDISK      1 00000001 FFFFFFEC A   U    6069 18705  34066
 DSNDTYPE      1 00000F3B FFFFFFEC     X    6068 18707M 34068M
 DSNFCHT       1 00000004 FFFFFFEC A   U    5904 35072
 DSNFMAIL    128 00000F37 FFFFFFEC         5914 18729M
 DSNFMYDS      1 00000040 FFFFFFEC A   U    5872 18715  34076
 DSNFSCR       1 00000040 FFFFFFEC A   U    5886 36148
 DSNFSML      64 00000F37 FFFFFFEC         5919 34153M
 DSNFSTD       1 00000080 FFFFFFEC A   U    5871 18712  34073
 DSNFWRT       1 00000080 FFFFFFEC A   U    5885 19472  35090  36148
 DSNON        40 00000E90 FFFFFFEC     C    5855  5856  18736M 18736  19563M 19563  34085M 34085  35035M 35035  36113M
                                                 36113
 DSNON6        6 00000E90 FFFFFFEC     X    5856 19526  41062  41069
 DSNPRT        1 00000000 00000006     T    9418  9418
 DSNVOLCT      2 00000F44 FFFFFFEC     H    6080 19535  19536M
 DSNWADSN     44 00000E5C FFFFFFEC     C    5842  5843   5844   5845   5854   5862   6093   6099   6101   6107   6110
                                                  6112   6115   6164  18718M 18719M 18720M 18764M 18765M 18766M 18791
                                                 34095M 34096M 34097M 34117M 34136  35036M 35037M 35038M 36114M 36115M
                                                 36116M 36136  36195  40157  40255  41019
 DSNWAF1       1 00000F34 FFFFFFEC     R    5869 18717M 34078M
 DSNWAF2       1 00000F35 FFFFFFEC     R    5882 19472M 35090M 36148M
 DSNWAF3       1 00000F36 FFFFFFEC     R    5896 35074M
 DSNWAF4       1 00000F37 FFFFFFEC     R    5910  5914   5919   5924   5929   5934   5939   5944   5949
 DSNWAF5       1 00000F38 FFFFFFEC     R    5955  5959   5964   5969   5974   5979   5984   5989   5994
 DSNWAF6       1 00000F39 FFFFFFEC     R    6000  6004   6009   6014   6019   6024   6029   6034   6039
 DSNWAF7       1 00000F3A FFFFFFEC     R    6045  6049   6054   6059   6064
 DSNWANL       2 00000F06 FFFFFFEC     H    5863 18721M 18796M 34146M 35039M 36141M 36199  41023
 DSNXG         1 00000004 FFFFFFEC A   U    5847  5849
 DSNXGL        1 00000003 FFFFFFEC A   U    5848  5849
 DSNXU         1 00000007 FFFFFFEC A   U    5849  5851
 DSNXUL        1 00000004 FFFFFFEC A   U    5850  5851
 DSSIZ         1 00000108 FFFFFFEC A   U    6093  6101   6110   6115
 EBCTBL        1 00000000 00000000 A   T    2203  2203
 EBCTBL7       1 00000000 00000000 A   T    2206  2206
 ECBLIST       1 00000000 00000000 A   T    2066  2066
 EDTCOM        1 00000000 0000004E     T   32929 32929
 EPARTBL       1 00000000 00000000 A   T    2198  2198
 EVALSTR       1 00000000 0000002A     T   15082 15082  18272  32926
 EXIT0         1 00000000 00000003     T    9415  9415
 EXTCLOSE      1 00000000 0000000C     T    9424  9424  21109  36320
 EXTOPEN       1 00000000 0000000A     T    9422  9422  21100  36318
 EXTWRITE      1 00000000 00000041     T   30902 30902  36338
 FMTCLCK       1 00000000 00000016     T   12865 12865
 FMTDAY        1 00000000 00000017     T   12866 12866
 FMTXDATE      1 00000000 0000003F     T   24331 24331  28602  30908
 FSR           0 00000000 00000001 A   #    1022  8734   8965M  9023   9401M 13426  13564M 13613  13977M 14119  14602M
                                                 14634  15046M 15151  16172M 16203  16871M 16905  17142M 17180  17651M
                                                 17705  17769M 17796  18238M 18359  21062M 21298  21625M 21652  22233M
                                                 22261  22446M 22462M 22609  23246M 23273  24068M 24096  24281M 24297M
                                                 24506  25062M 25122  28127M 28157  28340M 28361M 28401  28466M 28505
                                                 28569M 30248  30590M 30620  30872M 30961  31773M 32094  32128M 32147M
                                                 32167  32195M 32210M 32230  32258M 32273M 32293  32321M 32336M 32356
1MAIL     (MAIL4072) (12:48) (15MAR04) Ordinary Symbol and Literal Cross Reference                                          Page  155
                                                 32384M 32399M 32419  32447M 32462M 32482  32510M 32525M 32545  32573M
                                                 32588M 32608  32636M 32651M 32671  32699M 32714M 32734  32762M 32777M
                                                 32797  32837M 32857  32903M 36031  36277M 39863  40307M 40888  41118M
 GBLCMD        1 00000000 00000014     T   12863 12863
 GETACCT       1 00000000 0000002C     T   18258 18258
 GETHEAP       1 00000000 00000029     T   15074 15074
 GETKWR        1 00000000 0000004F     T   32930 32930
 GETMACH       1 00000000 00000051     T   36306 36306
 GETUID        1 00000000 0000002E     T   18263 18263
 GOTLIST       2 000020A4 00000001     H   17623 17416B 17608B
 HAIL          5 00000000 FFFFFFE5     J    7093  7321   7725U  7737M  7737   7742   8011U  8022M  8022   8034U  8774
                                                  8791U
 HAILLINK      4 00000000 FFFFFFE5     A    7082  7321   7729   8040M  8774   8805
 HAILOLD       1 00000005 FFFFFFE5     C    7084  8099M  8112   8846   8876
 HAILOLEN      1 00000004 FFFFFFE5     X    7083  8072M  8817
 HIBAL         1 00000000 FFFFFFFF     J     704   720    733    746    759    772    785    798    811    824    837
                                                   850    863    876    889    902    915
 HOST        241 00000000 FFFFFFE4     J    7174  7200   7319   7659U  7671M  7671   7676   7822U  8191M  8191   8567
                                                  8585   8605U  9095   9112U 16452U
 HOSTACCT      5 0000009C FFFFFFE4     C    7165  8418M  8419M 16725
 HOSTCHK       2 000004DA 00000001     H    9013 18266
 HOSTCNEP      4 0000000C FFFFFFE1     A    8984  9091M  9171
 HOSTCNM      80 00000010 FFFFFFE1     C    8986  9067M  9069M  9079   9084   9352
 HOSTCNSP      4 00000008 FFFFFFE1     A    8983  9089M  9184
 HOSTCVLN      4 00000000 FFFFFFE1     A    8980  9216M  9216   9304   9310M
 HOSTCVP       4 00000004 FFFFFFE1     A    8981  9223M  9311M  9379
 HOSTCWA      96 00000000 FFFFFFE1     J    8993  9026   9055U  9065M  9065   9401   9403   9404
 HOSTCXIT      2 000005A8 00000001     H    9384  9359B
 HOSTFBAT    128 00000004 FFFFFFE4         7117  8432M 16707
 HOSTFBIT     64 00000004 FFFFFFE4         7122  8441M 16577
 HOSTFBSMTP
              16 00000004 FFFFFFE4         7132  8450M  8461   8461   8462M 16655
 HOSTFERR      2 00000004 FFFFFFE4         7147  8492M 16465
 HOSTFGTE     32 00000004 FFFFFFE4         7127  8259M 16603
 HOSTFLAG      1 00000004 FFFFFFE4     R    7113  7117   7122   7127   7132   7137   7142   7147
 HOSTFLG2      1 00000005 FFFFFFE4     R    7153  7157
 HOSTFNDM    128 00000005 FFFFFFE4         7157  8480M 16740
 HOSTFSUNMAIL
               8 00000004 FFFFFFE4         7137  8461   8461  16681
 HOSTFTST      4 00000004 FFFFFFE4         7142  8471M 16629
 HOSTGATE     35 00000056 FFFFFFE4     C    7163  8260M  8307M  9432   9527  16726
 HOSTLINK      4 00000000 FFFFFFE4     A    7109  7319   7663   8611M  9095   9126
 HOSTNAME     80 00000006 FFFFFFE4     C    7161  8192M  8239M  9145   9159   9166   9352   9431
 HOSTRELY     35 00000079 FFFFFFE4     C    7164  8323M  8370M  9433   9528  16727
 HOSTTEXT     80 000000A1 FFFFFFE4     C    7167  8497M  8544M  9435  16522M 16522  16539  16544
 INITCMD       1 00000000 00000002     T    9414  9414
 INVALID       1 00000000 00000012     T    2193  2193  11938
 JCB         208 00000000 FFFFFFE7     J    6955  9882U 33936U 34005U 38208U 38265U
 JCBAFL        1 00000062 FFFFFFE7     R    6800  6804   6809   6814   6819   6824   6829   6834   6839
 JCBBFL        1 00000063 FFFFFFE7     R    6845  6849   6854   6859   6864   6869   6874   6879
 JCBBILLX      8 00000088 FFFFFFE7     D    6930  6938   6938
 JCBFATTN      2 00000062 FFFFFFE7         6834 38220M 38277M
 JCBPTA        4 00000040 FFFFFFE7     A    6713 33945  33945M 33946  33946  33947  33947M 34014  34014M 34015  34015
                                                 34016  34016M
 JCBPTB        4 00000044 FFFFFFE7     A    6714 33945  33946M 33947  34014  34015M 34016
 JCBRSCF1      1 00000064 FFFFFFE7     R    6885  6889   6894   6899
 JCBSFLG1      1 00000065 FFFFFFE7     R    6905  6909   6914
 JCBSINP       4 00000038 FFFFFFE7     A    6710  9887
 JCBWFL        1 00000060 FFFFFFE7     R    6729  6733   6738   6743   6748   6753   6758   6763   6768   6796
1MAIL     (MAIL4072) (12:48) (15MAR04) Ordinary Symbol and Literal Cross Reference                                          Page  156
 JCBWWFL       1 00000061 FFFFFFE7     R    6774  6778   6783   6788   6793
 KWIO          1 00000000 0000002B     T   18257 18257  21118  36307
 KWR         504 00000000 FFFFFFE9     J    6598 15300  15310U 15320M 15320  15321M 15321  15504M 15504  15505M 15505
                                                 16132M 16132  16133M 16133  18279  20120  20128U 20136M 20136  20137M
                                                 20137  20301M 20301  20302M 20302  21135  30964  30993U 31003M 31003
                                                 31004M 31004  31731  31737  31751M 31751  31752M 31752  31773  31775
                                                 31776  33206U 33342  33353  35702U 38296U 41183U
 KWRACCT       5 00000000 FFFFFFE9     X    6407 15380  15506M
 KWRCRD        1 00000040 FFFFFFE9 A   U    6590 15356  15515  20148
 KWRCWR        1 00000080 FFFFFFE9 A   U    6589 20264  33865  35889
 KWRDSTRT      1 00000005 FFFFFFE9     U    6409  6571   6571
 KWRFMAIL      1 00000040 FFFFFFE9 A   U    6506 15788  41212
 KWRFSYSA      1 00000080 FFFFFFE9 A   U    6452 16035
 KWRFSYSB      1 00000040 FFFFFFE9 A   U    6453 16057
 KWRGRP        2 00000003 FFFFFFE9     C    6406 15346M 15596  15601  20138M
 KWRHFL        1 000001F4 FFFFFFE9     X    6575 20279  33880  35904
 KWRHFUOK      1 00000040 FFFFFFE9 A   U    6577 20277  33878  35902
 KWRIFL        1 0000000E FFFFFFE9     X    6415 15371  15530  20179  33843  35733  41198
 KWRIFVAL      1 00000080 FFFFFFE9 A   U    6416 15369  15528  20177  33841  35731  41196
 KWRMFOR      64 000000C2 FFFFFFE9     X    6557 15933M 15933  15947  15952  41280M 41280  41352  41357
 KWRMPRIM      1 000000AE FFFFFFE9     X    6545 15987  16037  16059  33545  33738
 KWRMTXT      80 00000102 FFFFFFE9     X    6558  9530  15767M 15767  15774  15774  41374M 41374  41428  41433  41490M
                                                 41490  41524  41529
 KWRNAME      20 00000078 FFFFFFE9     X    6540 15744M 15744  15751  15751
 KWROFL        1 00000057 FFFFFFE9     X    6504 15790  41214
 KWRSFKEP      1 00000080 FFFFFFE9 A   U    6461 33372  33457  35762  35814
 KWRSFL        1 00000036 FFFFFFE9     X    6460 20198  20227M 20251M 33374  33430  33459  33811  33856M 35764M 35788M
                                                 35816M 35848M 35863  35876M
 KWRSFMAI      1 00000040 FFFFFFE9 A   U    6462 20196  20225  33369  33428  35759  35786  35874
 KWRSFMLQ      1 00000020 FFFFFFE9 A   U    6463 20249  33809  33854  35846  35861
 KWRSTART      4 00000000 FFFFFFE9     F    6404  6585
 KWRTFL2       1 00000064 FFFFFFE9     X    6525 38311
 KWRTFMNOATTN
               1 00000008 FFFFFFE9 A   U    6529 38309
 KWRUSER       3 00000000 FFFFFFE9     C    6405  6407   6407  15347M 15642  15647  20139M 31729M
 LASTLINE      1 00000000 00000059     T   39131 39131
 LEXATRTN      1 00000040 FFFFFFEC A   U    6182 12899
 LOCALEMA      2 000019C2 00000001     H   15141 15078
 LOCALTOD      1 00000000 00000015     T   12864 12864  24330  28601  30907
 LOCATRTN      1 00000000 FFFFFFEC A   U    6184 11877
 LOCEEXIT      2 00001CAC 00000001     H   16145 15219B 15264B 15292B 15490B 15705B 15915B 15962B 16111B
 LOCEMPTR      4 00000000 FFFFFFDC     F   15126 15244M 15270  15328  15392
 LOCEMWA       8 00000000 FFFFFFDC     J   15133 15154  15183U 16172  16174  16175
 LOCEVAL       4 00001B76 00000001     I   15714 15384B
 LOGCMD        1 00000000 0000005D     T   41662 41662
 LOGEVENT      1 00000000 0000005E     T   41666 41666
 LOWTBL        1 00000000 00000000 A   T    2201  2201
 LRTRIM        1 00000000 0000000F     T    9436  9436  12883  15083  18253  21119  24325  28597  36328
 LSR           8 00000008 00000001 A   #    1060  8734   8965M  9023   9401M 12964  13144M 13180  13399M 13426  13564M
                                                 13613  13977M 14119  14602M 14634  15046M 15151  16172M 16203  16871M
                                                 16905  17142M 17180  17651M 17705  17769M 17796  18238M 18359  21062M
                                                 21298  21625M 21652  22233M 22261  22462M 22609  23246M 23273  24068M
                                                 24096  24297M 24506  25062M 25122  28127M 28157  28361M 28401  28466M
                                                 28505  28569M 30248  30590M 30620  30872M 30961  31773M 32094  32147M
                                                 32167  32210M 32230  32273M 32293  32336M 32356  32399M 32419  32462M
                                                 32482  32525M 32545  32588M 32608  32651M 32671  32714M 32734  32777M
                                                 32797  32837M 32857  32903M 36031  36277M 39353  39767M 39863  40307M
                                                 40888  41118M
 LXCATRTN      1 00000060 FFFFFFEC A   U    6183  7776  21070  36007
1MAIL     (MAIL4072) (12:48) (15MAR04) Ordinary Symbol and Literal Cross Reference                                          Page  157
 MAIL          2 00000672 00000001     H    9688  9686
 MAILBS        2 000024D2 00000001     H   18692 18854B
 MAILBSLP      2 00002508 00000001     H   18725 18997B
 MAILCHK       4 00006F8C 00000001     I   41137 36302  41136
 MAILDISP      4 000054B0 00000001     I   33132 32931  33131
 MAILPRT       1 00000CB0 00000001     R   11884 10645
 MAILREWR      2 00002724 00000001     H   19451 19577B
 MAILRTN       2 00004846 00000001     H   30239 11878
 MAILRTNX      2 0000495C 00000001     H   30611 21071
 MAILSCAN      2 0000098C 00000001     H   10638 11994B 12078B 12118B 12380B 12383B 12448B 12562B 12658B 12754B
 MAILSIZE      4 000047F6 00000001     I   30164 21110
 MAILWA     1694 00000000 FFFFFFDF     J    9677  9691   9712U  9721M  9721   9722M  9722   9723M  9723   9724M  9724
                                                  9725M  9725   9726M  9726   9727M  9727  28437U 28721U 30189U 30293U
                                                 30663U
 MAILWRK       1 00000CAC 00000001     R   11877 11517
 MAILWRKX      1 00002BB0 00000001     R   21070 19378
 MAIL4072      1 00000000 00000001     R    1012  1010
 MALL          1 00000000 0000004A     T   32078 32078
 MATUID        1 00000000 00000046     T   32033 32033
 MBOXDISP      1 00000000 00000050     T   36301 36301
 MCC           2 00000DB6 00000001     H   11942 11886
 MCHKEXIT      2 000070CC 00000001     I   41625 41166B
 MCHKFIN       2 000070A4 00000001     H   41548 41446B
 MCHKMSG       2 0000706C 00000001     H   41463 41264B 41358B
 MDATE         2 00000DE6 00000001     H   11998 11900
 MDRYRUN       2 00000FE2 00000001     H   12796 11926
 MEMSFLAG      2 00000FF4 00000001     H   12823 11928
 MFWDFLAG      2 00000FFA 00000001     H   12831 11930
 MGETMINF      2 000012D0 00000001     H   12955 12890
 MID         561 00000000 FFFFFFE0     J    9541  9827  11625U 11675U 11679  11776U 11796  13748  13763U 13773M 13773
                                                 13774M 13774  13775M 13775  13844  13850  13870  13935U 14670U 15197U
                                                 15441  15864  16239U 16489  17832U 18413U 18560  18617  18649  18677
                                                 18878  19060  19617  20053  20824  21349U 21592  21694U 22660U 23217
                                                 23315U 24557U 24886  24994  25173U 25611  28198U 28931U 30760U
 MIDLINK       4 00000000 FFFFFFE0     A    9456  9827  11720  11736  11806  13941M 24947  25886  27662
 MIDXACCT      5 0000022C FFFFFFE0     C    9532 15380M 15381  15383  15393  15506  15714  16725M 18719  18720  18765
                                                 18766  20138  20139  20344  20359  20778
 MIDXFBAT    128 00000004 FFFFFFE0         9464 16719M 18671
 MIDXFBIT     64 00000004 FFFFFFE0         9469 16588M 17863  17863  18507  18607
 MIDXFBSMTP
              16 00000004 FFFFFFE0         9479 16667M 24800  24930  25214  27213  27362  29277  29368
 MIDXFCC     128 00000005 FFFFFFE0         9504 13799M 26652  26680
 MIDXFGTE     32 00000004 FFFFFFE0         9474 16614M 17863  17863  17864  18639
 MIDXFHDR     64 00000005 FFFFFFE0         9509 13828M 26585M 26622
 MIDXFLAG      1 00000004 FFFFFFE0     R    9460  9464   9469   9474   9479   9484   9489   9494   9533   9533
 MIDXFLG2      1 00000005 FFFFFFE0     R    9500  9504   9509   9514
 MIDXFSKP      2 00000004 FFFFFFE0         9494 11643  11714M 11790  13917M 15291M 25596  25822M
 MIDXFSNT     32 00000005 FFFFFFE0         9514 24963  24975M 25828M
 MIDXFSUNMAIL
               8 00000004 FFFFFFE0         9484 16693M 24821  25343  25410  26024  27786
 MIDXFTST      4 00000004 FFFFFFE0         9489 16641M 24642
 MIDXGATE     35 00000196 FFFFFFE0     C    9527 16726M 24735  24740
 MIDXHONC     80 000000A6 FFFFFFE0     C    9521 14844M 14871M 15018  16276M 16340M 16340  16754  16759  17991M 17991
                                                 22139M 22139  22171  22176  25611  25611  25724  25729  26968  27117
                                                 27273  27330  27335  27437  27442  29339  29344
 MIDXHOST     80 00000146 FFFFFFE0     C    9524 15018M 15020M 15085  15216M 15216  16254M 16254  16260  16276  16297
                                                 16303M 16321  16333M 16333  16356M 16356  16373  16399  16404  18048
                                                 18053  22840  22845  23565  23570  29256M 29256
 MIDXKEY     160 000000F6 FFFFFFE0     X    9525 11679  11679
1MAIL     (MAIL4072) (12:48) (15MAR04) Ordinary Symbol and Literal Cross Reference                                          Page  158
 MIDXMTXT     80 000001DC FFFFFFE0     C    9530 15773M 15774M 18163M 18163  18197  18202
 MIDXNAME     80 00000006 FFFFFFE0     C    9518 15750M 15751M 17846  17851  26985  27016  27021  29142M 29142  29176
                                                 29181
 MIDXRELY     35 000001B9 FFFFFFE0     C    9528 16727M 21467  21472  25678M 25678  25750M 25750  25781  25786  27226M
                                                 27226  27375M 27375  27406  27411  27454  27469  27474  29290M 29290
                                                 29381M 29381  29415  29420
 MIDXUSER     80 000000F6 FFFFFFE0     C    9523  9525   9525  15017M 15021M 15087  15234  15239  15381M 15382M 15383M
                                                 15723  15728  16021  16044M 16066M 16084  16098  18006  18011  22797
                                                 22802  23526  23531  27103  27133  27138  29228  29233  30775  30780
 MIDXUSNC     80 00000056 FFFFFFE0     C    9520 14978M 15005M 15017  17975  17980  22113  22118  25648  25653  27176
                                                 27181
 MILERR        1 00000000 00000000 A   T    2192  2192
 MIXFMT        1 00000000 0000005C     T   39138 39138
 MLOGBUF     256 0000003C FFFFFFCF     C   40863 40933  40938
 MLOGCB       60 00000000 FFFFFFCF     X   40862 40946  40967  40988  41005  41031  41048  41077
 MLOGCBCOD
               1 00000000 FFFFFFCF     R   40779 40788  40798  40808  40818  40828  40838  40848
 MLOGCBLENF
               4 0000000C FFFFFFCF     A   40854 41093
 MLOGCBLOC
               4 00000020 FFFFFFCF     A   40858 41088
 MLOGERR       2 00006ED2 00000001     H   40878 21102
 MLOGWA      316 00000000 FFFFFFCF     J   40870 40891  40920U 41118  41120  41121
 MMHDR         2 00000FE8 00000001     H   12805 11918  11920
 MMINFO        2 00000F0A 00000001     H   12461 11888
 MNAME         4 00000F10 00000001     I   12470 11902
 MNOHDR        2 00000F04 00000001     H   12452 11896  11898
 MNONOTFY      2 00000FD0 00000001     H   12767 11912
 MNORET        6 00000ED0 00000001     I   12382 11892
 MNOSIL        2 00000FDC 00000001     H   12786 11916
 MNOTIFY       2 00000FCA 00000001     H   12758 11910
 MPARM         1 00000000 00000044     T   31823 31823
 MRECIP        4 00000F4E 00000001     I   12566 11908
 MRETURN       4 00000EDA 00000001     I   12387 11894
 MSENDER       2 00000E18 00000001     H   12082 11890
 MSILENT       2 00000FD6 00000001     H   12777 11914
 MTITLE        4 00000F8C 00000001     I   12662 11904  11906
 MTO           2 00000DBE 00000001     H   11951 11884
 MTOKEN        2 00001356 00000001     H   13171 12870
 MTOKEN        1 00000000 00000043     T   31793 31793  31808  31838  31853  31868  31883  31898  31913  31928  31943
                                                 31958  31973  31988  32003
 MTOKFIN       2 000013E0 00000001     H   13362 13312B
 MTO2          4 00000DC2 00000001     I   11958 11947B
 MUHDR         2 00000FEE 00000001     H   12814 11922  11924
 MWACOUNT      4 00000530 FFFFFFDF     F    9650 18434M 30193  30672  30681M
 MWADATE      17 0000002A FFFFFFDF     C    9632  9849M  9850M  9856   9857  10851  10856  12038M 12066M 12905
 MWADIR        2 00000626 FFFFFFDF     H    9670 18432M 18432  21001  21036M 21036
 MWADIR#       1 0000003C FFFFFFDF A   U    9667  9670  12912  33068  36351
 MWAFCC       64 00000000 FFFFFFDF         9564 11946M 11993M 13787
 MWAFDRYRUN
               2 00000001 FFFFFFDF         9604 12800M 18536
 MWAFEMS      32 00000001 FFFFFFDF         9584 12827M 18453  25844  26502  27640  27722
 MWAFFWD     128 00000002 FFFFFFDF         9619 12835M 28042
 MWAFLAG       1 00000000 FFFFFFDF     R    9555  9559   9564
 MWAFLAG2      1 00000001 FFFFFFDF     R    9570  9574   9579   9584   9589   9594   9599   9604   9609
 MWAFLAG3      1 00000002 FFFFFFDF     R    9615  9619
 MWAFMHDR      4 00000001 FFFFFFDF         9599 12809M 29035  30386
 MWAFMINF      1 00000001 FFFFFFDF         9609 10660  12465M 25856  26519  26573  27652
 MWAFNHDR     16 00000001 FFFFFFDF         9589 12456M 23332  25925
1MAIL     (MAIL4072) (12:48) (15MAR04) Ordinary Symbol and Literal Cross Reference                                          Page  159
 MWAFNTFY    128 00000001 FFFFFFDF         9574  9835M 12762M 12772M 20324
 MWAFROM     200 00000051 FFFFFFDF     C    9634  9974M  9991M 10007M 10008M 10009M 10015  10903  11006  11011  11319
                                                 11324  12143M 12171M 12184  12906  20421  20426  21916  21921  29605
                                                 29610  29768  29773  29805
 MWAFROMH    200 00000119 FFFFFFDF     C    9635 10015M 10024  10029  12184M 12194  12195  12195  12294M 12295  21714M
                                                 21714  21745  21750  22948  22953  23759  23760  23760  23774  24346
                                                 25418  25419  25419  25433  25521  25526  26170  26175  26368  26369
                                                 26369  26383  28611
 MWAFSIL      64 00000001 FFFFFFDF         9579 12781M 12791M 21885  22742  24680
 MWAFSOME    128 00000000 FFFFFFDF         9559 10675  10710  11955M 13115M
 MWAFUHDR      8 00000001 FFFFFFDF         9594 12818M 30432
 MWALCNT       4 00000004 FFFFFFDF     F    9624 13667  13668M
 MWALINE     256 00000411 FFFFFFDF     X    9642 10563M 10585  10612  10769  11439  12885  13015  13020  20732M 20773
                                                 22392  24227  28286  28797M 28832M 28844  30066M 30106  30442M 30443
                                                 30448
 MWALINES      4 0000052C FFFFFFDF     F    9649 18433M 30192  30670  30671M
 MWALMAX#      1 000003E8 FFFFFFDF A   N    9623 15072
 MWAMDIR       2 00000622 FFFFFFDF     H    9668 10126M 19964  30684
 MWAMIDQH      4 00000010 FFFFFFDF     A    9628  9827  11599  11649  11750  26478
 MWAMIDQT      4 00000014 FFFFFFDF     A    9629  9828M 13925  13950M
 MWAMKEY      16 00000511 FFFFFFDF     C    9644 13021  13043M 13043  13100
 MWAMNEW       2 000005E2 FFFFFFDF     H    9663 10127M 11472  19974  30496
 MWAMSGID     22 0000003B FFFFFFDF     C    9633  9870M  9919M  9920M  9945  28982  28987
 MWANAME      80 000002A9 FFFFFFDF     C    9637 10095M 10096M 10120M 10120  11039M 11039  11072  11077  11237M 11237
                                                 11253  11258  12473M 12520M 12544  12557M 12557  12908  20441M 20441
                                                 20460  20465  21800M 21800  21831  21836  23686M 23686  23717  23722
                                                 26059M 26059  26090  26095  26282M 26282  26313  26318  28442M 29519M
                                                 29519  29553  29558  29677M 29677  29711  29716
 MWANCNT       4 00000528 FFFFFFDF     F    9647 11467  11470M 18434  30484  30493M
 MWANDIR       2 00000624 FFFFFFDF     H    9669 18427M 18427  20995  21031M 21031
 MWANEST       4 00000008 FFFFFFDF     F    9625 13456  13457M 13547  13549M 13817
 MWANEW        2 000005E6 FFFFFFDF     H    9665 22332  24167  28227
 MWANEW#       1 0000001E FFFFFFDF A   U    9662  9665  12913  33068
 MWANLINS      4 00000524 FFFFFFDF     F    9646 11465  11466M 18433  20623  30482  30483M
 MWANNEW       2 000005E4 FFFFFFDF     H    9664 22306  24141  28221
 MWARCPTN      4 0000000C FFFFFFDF     F    9626 13833  13834M 26534
 MWAREGS       4 00000534 FFFFFFDF     A    9652 19350M 30851
 MWARET      200 000001E1 FFFFFFDF     C    9636 12382M 12408M 12436M 12907  25293M 25293  25307  25312
 MWARNAME     80 000003C1 FFFFFFDF     C    9640 12569M 12616M 12640  12653M 12653  12909  17879  17884  23448M 23448
                                                 23479  23484  26848M 26848  26879  26884  28443M
 MWASCAN     124 00000558 FFFFFFDF     X    9653 10510M 10615
 MWATIME      18 00000018 FFFFFFDF     C    9631  9855M  9856M  9857M  9866M 11191  11196
 MWATITLE    200 000002F9 FFFFFFDF     C    9638 10426M 10473M 11387M 11387  11404  11409  12665M 12712M 12736  12749M
                                                 12749  12884  20567M 20567  20601  20606  22012M 22012  22043  22048
                                                 23878M 23878  23884  23884  23885  27771M 27771  27817  27822  27870
                                                 27870  27871  29925M 29925  29959  29964
 MWAWDIR       2 000005DC FFFFFFDF     H    9658 21492M 21492  22293  22365M 23089M 23089  24128  24200M 24760M 24760
                                                 28203  28259M
 MWAWHCNT      2 000005E0 FFFFFFDF     H    9660 21502M 21502  23099M 23099  24770M 24770
 MWAWLNO       4 000005D8 FFFFFFDF     F    9656 19962M 19962  28793  28794M 28797  30112  30113M
 MWAWMIDP      4 000005D4 FFFFFFDF     A    9655 13654  13776M 13952M 18418  18419M 21037M 21684  23305  25163  26014
                                                 26579  28188  28892  28921  30750
 MWAWOFFS      2 000005DE FFFFFFDF     H    9659 21497M 21497  22347  22372M 22372  22390M 23094M 23094  24182  24207M
                                                 24207  24225M 24765M 24765  28241  28266M 28266  28284M
 NBLTBL        1 00000000 00000000 A   T    2205  2205
 NETAEXIT      2 00001E52 00000001     H   16854 16367B 16436B 16562B
 NETEMA        2 00001CBA 00000001     H   16194 15077
 NOACTION      1 00000000 00000000 A   T    2195  2195
 NOMORPG       1 00000000 00000053     T   36309 36309  41657
1MAIL     (MAIL4072) (12:48) (15MAR04) Ordinary Symbol and Literal Cross Reference                                          Page  160
 NOTVALID      1 00000000 0000004B     T   32079 32079
 NPARTBL       1 00000000 00000000 A   T    2199  2199
 NSCAN         1 00000000 0000004C     T   32921 32921
 NSCNCB      176 00000000 FFFFFFED     J    2464  2590  31061  31062  31063  31066M 31067M 31069M 31079M 31080M 31081M
                                                 32123
 NSCNFLGS      1 00000008 FFFFFFED     R    2401  2405   2410
 NSCNKWS       4 00000028 FFFFFFED     A    2450 31061  31069M 31079M
 NSCNSKIP      4 00000024 FFFFFFED     A    2449 31062  31066M 31080M
 NSCNSTOP      4 00000020 FFFFFFED     A    2448 31063  31067M 31081M
 NSCNTOK      16 00000030 FFFFFFED     C    2452 32123
 NSCNTYPE      1 00000018 FFFFFFED     R    2419  2423   2428   2433   2438   2443
 ORVCMD        1 00000000 0000001A     T   12880 12880
 PAR           9 00000009 00000001 A   #    1073 33953M 33954  33955M 34022M 34023  34024M 36518  37162  37268  37593
                                                 39488  39684  40678
 PARREST       4 00006AA6 00000001     I   39200 39121
 PARSAVE       4 00006A78 00000001     I   39172 39119
 PBR          10 0000000A 00000001 A   #    1086 33953  33954M 33955  34022  34023M 34024  34701  34702  34749  34750
                                                 36469M 36469  40195  40196
 PFREEA        1 00000000 00000037     T   21123 21123  30911  36339  39125  39297
 PFREEB        1 00000000 00000038     T   21124 21124  39115
 PGETA         1 00000000 0000003C     T   24322 24322  28608  30900  36334  39116  39298  41647
 PGETB         1 00000000 00000056     T   36326 36326  39126  41651
 PGETNEW       1 00000000 00000052     T   36308 36308  41656
 PJUNK         1 00000000 0000003A     T   21126 21126  36341
 PMARKA        1 00000000 0000005B     T   39137 39137  41659
 PMARKB        1 00000000 00000055     T   36311 36311  41655
 PNUMA         1 00000000 00000058     T   39127 39127  39296
 PNUMB         1 00000000 00000057     T   39114 39114
 PRESS         1 00000000 00000022     T   12897 12897  30912  41649
 PREST         1 00000000 FFFFFFEC A   U    6186 11877  21070  36007
 PREXIT        2 00006BE2 00000001     I   39742 39431B 39467B
 PRINTMSG      1 00000000 0000003E     T   24328 24328  28593  39135
 PRINTRTN      2 00006AF8 00000001     H   39344 38475
 PRTNFLAG      1 00000000 FFFFFFD2     R   39323 39327
 PRTNFSKIP
             128 00000000 FFFFFFD2        39327 39572M 39638M 39723  39736M
 PRTNLOOP      4 00006B1A 00000001     I   39412 39737B
 PRTNWA        1 00000000 FFFFFFD2     J   39336 39356  39385U 39395M 39767  39769  39770
 PTEMP         1 00000000 00000054     T   36310 36310  41658
 PUNTEMP       1 00000000 00000039     T   21125 21125  36340
 QUIETPRT      1 00000000 00000011     T   11936 11936
 RAR          14 0000000E 00000001 A   #    1138  2130   2131M  2132B  2134M  2135B  2155M  2156B  2160M  2161B  2163M
                                                  2164B  2166M  2167B  2169M  2170B  2172M  2173M  2173B  2179   7256M
                                                  7257M  7257B  7417M  7418M  7418B  7433M  7434M  7434B  7437M  7438M
                                                  7438B  7448M  7449M  7449B  7452M  7453M  7453B  7470M  7471M  7471B
                                                  7475M  7476M  7476B  7498M  7499M  7499B  7503M  7504M  7504B  7598M
                                                  7599M  7599B  7620M  7621M  7621B  7909M  7910M  7910B  7930M  7931M
                                                  7931B  7937M  7938M  7938B  7968M  7969M  7969B  7972M  7973M  7973B
                                                  8251B  8319B  8382B  8424B  8433B  8442B  8451B  8463B  8472B  8481B
                                                  8485   8495M  8496M  8496B  8560M  8561B  8731   8967M  8970B  9020
                                                  9087M  9088M  9088B  9169M  9170M  9170B  9403M  9406B  9752M  9753M
                                                  9753B  9793M  9794M  9794B  9840M  9841M  9841B  9847M  9848M  9848B
                                                  9860M  9861M  9861B  9864M  9865M  9865B  9948M  9949M  9949B 10032M
                                                 10033M 10033B 10150M 10151M 10151B 10239M 10240M 10240B 10374M 10375M
                                                 10375B 10387M 10388M 10388B 10393M 10394M 10394B 10397M 10398M 10398B
                                                 10515M 10516M 10516B 10592M 10593M 10593B 10604M 10605M 10605B 10608M
                                                 10609M 10609B 10631M 10632M 10632B 10648M 10649M 10649B 10694M 10695M
                                                 10695B 10722M 10723M 10723B 10787M 10788M 10788B 10821M 10822M 10822B
                                                 10839M 10840M 10840B 10867M 10868M 10868B 10885M 10886M 10886B 10934M
1MAIL     (MAIL4072) (12:48) (15MAR04) Ordinary Symbol and Literal Cross Reference                                          Page  161
                                                 10935M 10935B 10951M 10952M 10952B 10978M 10979M 10979B 11022M 11023M
                                                 11023B 11060M 11061M 11061B 11088M 11089M 11089B 11105M 11106M 11106B
                                                 11127M 11128M 11128B 11161M 11162M 11162B 11179M 11180M 11180B 11207M
                                                 11208M 11208B 11225M 11226M 11226B 11269M 11270M 11270B 11286M 11287M
                                                 11287B 11307M 11308M 11308B 11335M 11336M 11336B 11352M 11353M 11353B
                                                 11370M 11371M 11371B 11420M 11421M 11421B 11458M 11459M 11459B 11475M
                                                 11476M 11476B 11541M 11542M 11542B 11567M 11568M 11568B 11799M 11800M
                                                 11800B 11958M 11959M 11959B 11985M 11986M 11986B 12017M 12018M 12018B
                                                 12101M 12102M 12102B 12105M 12106M 12106B 12387M 12388M 12388B 12457B
                                                 12466B 12470M 12471M 12471B 12566M 12567M 12567B 12662M 12663M 12663B
                                                 12763B 12773B 12782B 12792B 12801B 12810B 12819B 12828B 12836B 12961
                                                 13004M 13005M 13005B 13046M 13047M 13047B 13065M 13066M 13066B 13108M
                                                 13109M 13109B 13146M 13149B 13177  13209M 13210M 13210B 13310M 13311M
                                                 13311B 13328M 13329M 13329B 13350M 13351M 13351B 13401M 13404B 13423
                                                 13479M 13480M 13480B 13512M 13513M 13513B 13534M 13535M 13535B 13566M
                                                 13569B 13610  13651M 13652M 13652B 13660M 13661M 13661B 13705M 13706M
                                                 13706B 13732M 13733M 13733B 13751M 13752M 13752B 13847M 13848M 13848B
                                                 13853M 13854M 13854B 13873M 13874M 13874B 13979M 13982B 14116  14192M
                                                 14193M 14193B 14212M 14213M 14213B 14236M 14237M 14237B 14253M 14254M
                                                 14254B 14288M 14289M 14289B 14311M 14312M 14312B 14347M 14348M 14348B
                                                 14365M 14366M 14366B 14395M 14396M 14396B 14412M 14413M 14413B 14436M
                                                 14437M 14437B 14453M 14454M 14454B 14488M 14489M 14489B 14511M 14512M
                                                 14512B 14547M 14548M 14548B 14565M 14566M 14566B 14604M 14607B 14631
                                                 14831M 14832M 14832B 14938M 14939M 14939B 15048M 15051B 15148  15242M
                                                 15243M 15243B 15250M 15251M 15251B 15273M 15274M 15274B 15359M 15360M
                                                 15360B 15396M 15397M 15397B 15444M 15445M 15445B 15462M 15463M 15463B
                                                 15518M 15519M 15519B 15584M 15585M 15585B 15612M 15613M 15613B 15630M
                                                 15631M 15631B 15658M 15659M 15659B 15676M 15677M 15677B 15731M 15732M
                                                 15732B 15844M 15845M 15845B 15862M 15863M 15863B 15867M 15868M 15868B
                                                 15885M 15886M 15886B 15955M 15956M 15956B 15959M 15960M 15960B 16108M
                                                 16109M 16109B 16174M 16177B 16200  16263M 16264M 16264B 16376M 16377M
                                                 16377B 16415M 16416M 16416B 16433M 16434M 16434B 16487M 16488M 16488B
                                                 16492M 16493M 16493B 16510M 16511M 16511B 16555M 16556M 16556B 16873M
                                                 16876B 16902  16935M 16936M 16936B 16957M 16958M 16958B 17011M 17012M
                                                 17012B 17029M 17030M 17030B 17047M 17048M 17048B 17065M 17066M 17066B
                                                 17092M 17093M 17093B 17110M 17111M 17111B 17144M 17147B 17177  17245M
                                                 17246M 17246B 17265M 17266M 17266B 17289M 17290M 17290B 17306M 17307M
                                                 17307B 17341M 17342M 17342B 17364M 17365M 17365B 17400M 17401M 17401B
                                                 17440M 17441M 17441B 17457M 17458M 17458B 17481M 17482M 17482B 17498M
                                                 17499M 17499B 17533M 17534M 17534B 17556M 17557M 17557B 17592M 17593M
                                                 17593B 17653M 17656B 17702  17746M 17747M 17747B 17771M 17774B 17793
                                                 17929M 17930M 17930B 17965M 17966M 17966B 18038M 18039M 18039B 18090M
                                                 18091M 18091B 18116M 18117M 18117B 18150M 18151M 18151B 18185M 18186M
                                                 18186B 18213M 18214M 18214B 18240M 18243B 18356  18558M 18559M 18559B
                                                 18563M 18564M 18564B 18588M 18589M 18589B 18615M 18616M 18616B 18620M
                                                 18621M 18621B 18647M 18648M 18648B 18652M 18653M 18653B 18680M 18681M
                                                 18681B 18751M 18752M 18752B 18794M 18795M 18795B 18838M 18839M 18839B
                                                 18876M 18877M 18877B 18881M 18882M 18882B 18899M 18900M 18900B 18957M
                                                 18958M 18958B 19007M 19008M 19008B 19058M 19059M 19059B 19063M 19064M
                                                 19064B 19067M 19068M 19068B 19181M 19182M 19182B 19203M 19204M 19204B
                                                 19268M 19269M 19269B 19294M 19295M 19295B 19381M 19382M 19382B 19407M
                                                 19408M 19408B 19442M 19443M 19443B 19475M 19476M 19476B 19597M 19598M
                                                 19598B 19615M 19616M 19616B 19620M 19621M 19621B 19624M 19625M 19625B
                                                 19813M 19814M 19814B 19835M 19836M 19836B 19899M 19900M 19900B 19971M
                                                 19972M 19972B 19978M 19979M 19979B 19987M 19988M 19988B 20051M 20052M
                                                 20052B 20056M 20057M 20057B 20081M 20082M 20082B 20115M 20116M 20116B
                                                 20151M 20152M 20152B 20267M 20268M 20268B 20380M 20381M 20381B 20398M
                                                 20399M 20399B 20429M 20430M 20430B 20476M 20477M 20477B 20494M 20495M
                                                 20495B 20521M 20522M 20522B 20553M 20554M 20554B 20589M 20590M 20590B
1MAIL     (MAIL4072) (12:48) (15MAR04) Ordinary Symbol and Literal Cross Reference                                          Page  162
                                                 20617M 20618M 20618B 20656M 20657M 20657B 20678M 20679M 20679B 20696M
                                                 20697M 20697B 20759M 20760M 20760B 20781M 20782M 20782B 20822M 20823M
                                                 20823B 20827M 20828M 20828B 20904M 20905M 20905B 20935M 20936M 20936B
                                                 20941M 20942M 20942B 20947M 20948M 20948B 20967M 20968M 20968B 20971M
                                                 20972M 20972B 21013M 21014M 21014B 21017M 21018M 21018B 21064M 21067B
                                                 21295  21420M 21421M 21421B 21437M 21438M 21438B 21455M 21456M 21456B
                                                 21483M 21484M 21484B 21520M 21521M 21521B 21526M 21527M 21527B 21590M
                                                 21591M 21591B 21595M 21596M 21596B 21627M 21630B 21649  21733M 21734M
                                                 21734B 21759M 21760M 21760B 21781M 21782M 21782B 21819M 21820M 21820B
                                                 21845M 21846M 21846B 21867M 21868M 21868B 21904M 21905M 21905B 21930M
                                                 21931M 21931B 21945M 21946M 21946B 21971M 21972M 21972B 21993M 21994M
                                                 21994B 22031M 22032M 22032B 22057M 22058M 22058B 22079M 22080M 22080B
                                                 22101M 22102M 22102B 22127M 22128M 22128B 22159M 22160M 22160B 22185M
                                                 22186M 22186B 22211M 22212M 22212B 22235M 22238B 22258  22344M 22345M
                                                 22345B 22395M 22396M 22396B 22464M 22467B 22606  22731M 22732M 22732B
                                                 22764M 22765M 22765B 22785M 22786M 22786B 22813M 22814M 22814B 22830M
                                                 22831M 22831B 22848M 22849M 22849B 22918M 22919M 22919B 22935M 22936M
                                                 22936B 22956M 22957M 22957B 23004M 23005M 23005B 23050M 23051M 23051B
                                                 23080M 23081M 23081B 23117M 23118M 23118B 23127M 23128M 23128B 23215M
                                                 23216M 23216B 23220M 23221M 23221B 23248M 23251B 23270  23357M 23358M
                                                 23358B 23364M 23365M 23365B 23368M 23369M 23369B 23389M 23390M 23390B
                                                 23413M 23414M 23414B 23431M 23432M 23432B 23467M 23468M 23468B 23493M
                                                 23494M 23494B 23508M 23509M 23509B 23540M 23541M 23541B 23555M 23556M
                                                 23556B 23573M 23574M 23574B 23595M 23596M 23596B 23625M 23626M 23626B
                                                 23651M 23652M 23652B 23669M 23670M 23670B 23705M 23706M 23706B 23731M
                                                 23732M 23732B 23746M 23747M 23747B 23777M 23778M 23778B 23781M 23782M
                                                 23782B 23803M 23804M 23804B 23836M 23837M 23837B 23862M 23863M 23863B
                                                 23943M 23944M 23944B 23974M 23975M 23975B 24019M 24020M 24020B 24045M
                                                 24046M 24046B 24070M 24073B 24093  24179M 24180M 24180B 24230M 24231M
                                                 24231B 24299M 24302B 24503  24628M 24629M 24629B 24664M 24665M 24665B
                                                 24702M 24703M 24703B 24723M 24724M 24724B 24751M 24752M 24752B 24788M
                                                 24789M 24789B 24837M 24838M 24838B 24884M 24885M 24885B 24889M 24890M
                                                 24890B 24914M 24915M 24915B 24992M 24993M 24993B 24997M 24998M 24998B
                                                 25022M 25023M 25023B 25064M 25067B 25119  25236M 25237M 25237B 25262M
                                                 25263M 25263B 25278M 25279M 25279B 25315M 25316M 25316B 25380M 25381M
                                                 25381B 25436M 25437M 25437B 25467M 25468M 25468B 25489M 25490M 25490B
                                                 25535M 25536M 25536B 25556M 25557M 25557B 25636M 25637M 25637B 25662M
                                                 25663M 25663B 25712M 25713M 25713B 25738M 25739M 25739B 25769M 25770M
                                                 25770B 25795M 25796M 25796B 25815M 25816M 25816B 25907M 25908M 25908B
                                                 25948M 25949M 25949B 25955M 25956M 25956B 25959M 25960M 25960B 25985M
                                                 25986M 25986B 26009M 26010M 26010B 26043M 26044M 26044B 26078M 26079M
                                                 26079B 26104M 26105M 26105B 26119M 26120M 26120B 26137M 26138M 26138B
                                                 26152M 26153M 26153B 26184M 26185M 26185B 26214M 26215M 26215B 26240M
                                                 26241M 26241B 26270M 26271M 26271B 26301M 26302M 26302B 26327M 26328M
                                                 26328B 26342M 26343M 26343B 26361M 26362M 26362B 26386M 26387M 26387B
                                                 26390M 26391M 26391B 26412M 26413M 26413B 26430M 26431M 26431B 26452M
                                                 26453M 26453B 26554M 26555M 26555B 26720M 26721M 26721B 26745M 26746M
                                                 26746B 26760M 26761M 26761B 26790M 26791M 26791B 26812M 26813M 26813B
                                                 26827M 26828M 26828B 26867M 26868M 26868B 26893M 26894M 26894B 26908M
                                                 26909M 26909B 26926M 26927M 26927B 26941M 26942M 26942B 27004M 27005M
                                                 27005B 27030M 27031M 27031B 27045M 27046M 27046B 27063M 27064M 27064B
                                                 27078M 27079M 27079B 27147M 27148M 27148B 27190M 27191M 27191B 27260M
                                                 27261M 27261B 27303M 27304M 27304B 27344M 27345M 27345B 27394M 27395M
                                                 27395B 27420M 27421M 27421B 27497M 27498M 27498B 27575M 27576M 27576B
                                                 27615M 27616M 27616B 27704M 27705M 27705B 27805M 27806M 27806B 27831M
                                                 27832M 27832B 27853M 27854M 27854B 27929M 27930M 27930B 27960M 27961M
                                                 27961B 28005M 28006M 28006B 28062M 28063M 28063B 28078M 28079M 28079B
                                                 28099M 28100M 28100B 28129M 28132B 28154  28239M 28240M 28240B 28289M
                                                 28290M 28290B 28363M 28366B 28398  28468M 28471B 28502  28571M 28574B
1MAIL     (MAIL4072) (12:48) (15MAR04) Ordinary Symbol and Literal Cross Reference                                          Page  163
                                                 28768M 28769M 28769B 28851M 28852M 28852B 28856M 28857M 28857B 28947M
                                                 28948M 28948B 28970M 28971M 28971B 28998M 28999M 28999B 29016M 29017M
                                                 29017B 29020M 29021M 29021B 29060M 29061M 29061B 29067M 29068M 29068B
                                                 29071M 29072M 29072B 29097M 29098M 29098B 29104M 29105M 29105B 29125M
                                                 29126M 29126B 29164M 29165M 29165B 29192M 29193M 29193B 29210M 29211M
                                                 29211B 29244M 29245M 29245B 29327M 29328M 29328B 29355M 29356M 29356B
                                                 29403M 29404M 29404B 29431M 29432M 29432B 29472M 29473M 29473B 29481M
                                                 29482M 29482B 29502M 29503M 29503B 29541M 29542M 29542B 29569M 29570M
                                                 29570B 29587M 29588M 29588B 29621M 29622M 29622B 29654M 29655M 29655B
                                                 29662M 29663M 29663B 29699M 29700M 29700B 29727M 29728M 29728B 29731M
                                                 29732M 29732B 29756M 29757M 29757B 29784M 29785M 29785B 29788M 29789M
                                                 29789B 29827M 29828M 29828B 29855M 29856M 29856B 29873M 29874M 29874B
                                                 29901M 29902M 29902B 29906M 29907M 29907B 29947M 29948M 29948B 29975M
                                                 29976M 29976B 29980M 29981M 29981B 30020M 30021M 30021B 30035  30093M
                                                 30094M 30094B 30117M 30118M 30118B 30123M 30124B 30245  30279M 30280M
                                                 30280B 30446M 30447M 30447B 30471M 30472M 30472B 30499M 30500M 30500B
                                                 30528M 30529M 30529B 30546M 30547M 30547B 30551M 30552M 30552B 30592M
                                                 30595B 30617  30651M 30652M 30652B 30687M 30688M 30688B 30748M 30749M
                                                 30749B 30791M 30792M 30792B 30817M 30818M 30818B 30874M 30877B 30958
                                                 31036M 31037M 31037B 31072M 31073M 31073B 31086M 31087M 31087B 31167M
                                                 31168M 31168B 31271M 31272M 31272B 31303M 31304M 31304B 31317M 31318M
                                                 31318B 31368M 31369M 31369B 31383M 31384M 31384B 31428M 31429M 31429B
                                                 31453M 31454M 31454B 31468M 31469M 31469B 31493M 31494M 31494B 31525M
                                                 31526M 31526B 31557M 31558M 31558B 31589M 31590M 31590B 31709M 31710M
                                                 31710B 31734M 31735M 31735B 31742M 31743M 31743B 31775M 31778B 32091
                                                 32149M 32152B 32164  32212M 32215B 32227  32275M 32278B 32290  32338M
                                                 32341B 32353  32401M 32404B 32416  32464M 32467B 32479  32527M 32530B
                                                 32542  32590M 32593B 32605  32653M 32656B 32668  32716M 32719B 32731
                                                 32779M 32782B 32794  32839M 32842B 32854  32905M 32908B 33272M 33273M
                                                 33273B 33290M 33291M 33291B 33318M 33319M 33319B 33336M 33337M 33337B
                                                 33345M 33346M 33346B 33356M 33357M 33357B 33512M 33513M 33513B 33580M
                                                 33581M 33581B 33608M 33609M 33609B 33626M 33627M 33627B 33654M 33655M
                                                 33655B 33672M 33673M 33673B 33700M 33701M 33701B 33718M 33719M 33719B
                                                 33742M 33743M 33743B 33766M 33767M 33767B 33786M 33787M 33787B 33868M
                                                 33869M 33869B 33967M 33968M 33968B 33983M 33984M 33984B 33991M 33992M
                                                 33992B 34045M 34046M 34046B 34139M 34140M 34140B 34161M 34162M 34162B
                                                 34205M 34206M 34206B 34223M 34224M 34224B 34248M 34249M 34249B 34271M
                                                 34272M 34272B 34320M 34321M 34321B 34345M 34346M 34346B 34398M 34399M
                                                 34399B 34420M 34421M 34421B 34465M 34466M 34466B 34491M 34492M 34492B
                                                 34517M 34518M 34518B 34571M 34572M 34572B 34589M 34590M 34590B 34661M
                                                 34662M 34662B 34705M 34706M 34706B 34753M 34754M 34754B 34831M 34832M
                                                 34832B 34880M 34881M 34881B 34918M 34919M 34919B 34936M 34937M 34937B
                                                 34960M 34961M 34961B 34978M 34979M 34979B 35004M 35005M 35005B 35093M
                                                 35094M 35094B 35123M 35124M 35124B 35229M 35230M 35230B 35302M 35303M
                                                 35303B 35555M 35556M 35556B 35560M 35561M 35561B 35586M 35587M 35587B
                                                 35600M 35601M 35601B 35604M 35605M 35605B 35644M 35645M 35645B 35648M
                                                 35649M 35649B 35685M 35686M 35686B 35892M 35893M 35893B 35949M 35950M
                                                 35950B 36002M 36003M 36003B 36028  36139M 36140M 36140B 36151M 36152M
                                                 36152B 36183M 36184M 36184B 36210M 36211M 36211B 36235M 36236M 36236B
                                                 36243M 36244M 36244B 36279M 36282B 36479M 36480M 36480B 36490M 36491M
                                                 36491B 36505M 36506M 36506B 36523M 36524M 36524B 36606M 36607M 36607B
                                                 36610M 36611M 36611B 36635M 36636M 36636B 36653M 36654M 36654B 36657M
                                                 36658M 36658B 36841M 36842M 36842B 36868M 36869M 36869B 36872M 36873M
                                                 36873B 36927M 36928M 36928B 36945M 36946M 36946B 36975M 36976M 36976B
                                                 36993M 36994M 36994B 36997M 36998M 36998B 37074M 37075M 37075B 37094M
                                                 37095M 37095B 37098M 37099M 37099B 37123M 37124M 37124B 37127M 37128M
                                                 37128B 37248M 37249M 37249B 37273M 37274M 37274B 37530M 37531M 37531B
                                                 37534M 37535M 37535B 37559M 37560M 37560B 37563M 37564M 37564B 37661M
                                                 37662M 37662B 37680M 37681M 37681B 37686M 37687M 37687B 37711M 37712M
1MAIL     (MAIL4072) (12:48) (15MAR04) Ordinary Symbol and Literal Cross Reference                                          Page  164
                                                 37712B 37742  37750M 37751M 37751B 37777M 37778M 37778B 37834M 37835M
                                                 37835B 37852M 37853M 37853B 37873M 37874M 37874B 37891M 37892M 37892B
                                                 37895M 37896M 37896B 37904M 37905M 37905B 37929M 37930M 37930B 37933M
                                                 37934M 37934B 38008M 38009M 38009B 38026M 38027M 38027B 38030M 38031M
                                                 38031B 38113M 38114M 38114B 38191M 38192M 38192B 38241M 38242M 38242B
                                                 38333M 38334M 38334B 38375M 38376M 38376B 38406M 38407M 38407B 38428M
                                                 38429M 38429B 38454M 38455M 38455B 38478M 38479M 38479B 38493M 38494M
                                                 38494B 38525M 38526M 38526B 38559M 38560M 38560B 38594M 38595M 38595B
                                                 38612M 38613M 38613B 38634M 38635M 38635B 38801M 38802M 38802B 38823M
                                                 38824M 38824B 38834M 38836B 38857M 38858M 38858B 38948M 38949M 38949B
                                                 38966M 38967M 38967B 38984M 38985M 38985B 39002M 39003M 39003B 39017
                                                 39024M 39025M 39025B 39064M 39065M 39065B 39084M 39085M 39085B 39092M
                                                 39093M 39093B 39101M 39103B 39172  39180M 39181M 39181B 39190M 39192B
                                                 39200  39226M 39227M 39227B 39251M 39252M 39252B 39264M 39266B 39350
                                                 39485M 39486M 39486B 39493M 39494M 39494B 39769M 39772B 39860  39894M
                                                 39895M 39895B 40109M 40110M 40110B 40145M 40146M 40146B 40175M 40176M
                                                 40176B 40192M 40193M 40193B 40202M 40203M 40203B 40214M 40215M 40215B
                                                 40243M 40244M 40244B 40273M 40274M 40274B 40309M 40312B 40472M 40473M
                                                 40473B 40488M 40489M 40489B 40496M 40497M 40497B 40511M 40512M 40512B
                                                 40569M 40570M 40570B 40630M 40631M 40631B 40646M 40647M 40647B 40654M
                                                 40655M 40655B 40669M 40670M 40670B 40720M 40721M 40721B 40885  40949M
                                                 40950M 40950B 40953M 40954M 40954B 40970M 40971M 40971B 40991M 40992M
                                                 40992B 41008M 41009M 41009B 41034M 41035M 41035B 41051M 41052M 41052B
                                                 41080M 41081M 41081B 41097M 41098M 41098B 41120M 41123B 41254M 41255M
                                                 41255B 41320M 41321M 41321B 41342M 41343M 41343B 41416M 41417M 41417B
                                                 41444M 41445M 41445B 41478M 41479M 41479B 41512M 41513M 41513B 41540M
                                                 41541M 41541B 41581M 41582M 41582B 41610M 41611M 41611B
 ROPENN2       4 00002884 00000001     I   19950 19942B
 RTNBDVOL      1 00000028 00000001 A   U    6372 21105
 RTNNOACS      1 00000048 00000001 A   U    6380 21103  36333
 RTNNOSPC      1 0000000C 00000001 A   U    6365 21112  36332
 RTNOVSP       1 00000038 00000001 A   U    6376 21114
 RTNVOLNA      1 0000005C 00000001 A   U    6385 21104  36322
 RTRIM         1 00000000 00000019     T   12869 12869  24327
 RUNMSG        1 00000000 0000003B     T   24318 24318
 R0            0 00000000 FFFFFFFF A   #     712  2115   2184M  7324M  7341M  7364M  7387M  7410M  7587M  7587   7609M
                                                  7836   7848M  7853   7939   7942   7954M  7959   7976   7988M  7993
                                                  7994   8193   8261   8324   8399   8498   8592M  8593M  8594M  9084M
                                                  9090   9166M  9172   9194   9304   9310   9764M  9786M  9818M  9938M
                                                 10029M 10034  10170M 10189  10228M 10407M 10407  10420M 10429  10441M
                                                 10446  10519  10531M 10536  10614M 10686M 10719M 10730M 10776M 10810M
                                                 10828M 10856M 10874M 10923M 10940M 10967M 11011M 11049M 11077M 11094M
                                                 11116M 11150M 11168M 11196M 11214M 11258M 11275M 11296M 11324M 11341M
                                                 11359M 11409M 11444M 11469  11492  11977M 12021  12033M 12039  12115M
                                                 12115  12126  12138M 12144  12391  12403M 12409  12476  12488M 12493
                                                 12572  12584M 12589  12668  12680M 12685  13001M 13020M 13226M 13226
                                                 13262M 13277M 13277  13332  13333  13333  13333  13347M 13354M 13373M
                                                 13373  13491M 13522M 13522  13538M 13653  13687  13688  13688  13688
                                                 13694M 13709M 13739M 13748M 13832M 13833M 13834  13842M 14166  14181M
                                                 14201M 14214M 14242M 14266M 14308M 14344M 14357M 14357  14401M 14414M
                                                 14442M 14466M 14508M 14544M 14557M 14557  14686M 14686  14712  14736M
                                                 14743  14838M 14945M 14971M 15089  15089  15089  15239M 15244  15270M
                                                 15328M 15340  15392M 15451M 15573M 15601M 15619M 15647M 15665M 15728M
                                                 15833M 15851M 15874M 15952M 16105M 16404M 16422M 16476M 16499M 16544M
                                                 16759M 16760  16779  16987  16988  16988  16988  17018M 17036M 17054M
                                                 17069M 17099M 17219  17234M 17254M 17267M 17295M 17319M 17361M 17397M
                                                 17410M 17410  17446M 17459M 17487M 17511M 17553M 17589M 17602M 17602
                                                 17851M 17884M 17954M 17980M 18011M 18053M 18054  18079M 18105M 18139M
                                                 18174M 18202M 18281  18281  18281  18547M 18577M 18577  18784M 18865M
1MAIL     (MAIL4072) (12:48) (15MAR04) Ordinary Symbol and Literal Cross Reference                                          Page  165
                                                 18888M 18946M 18946  19047M 19072M 19072  19094M 19120M 19146M 19159M
                                                 19159  19170M 19192M 19192  19208M 19283M 19283  19348M 19350  19467M
                                                 19467  19604M 19629M 19629  19648M 19674M 19700M 19726M 19752M 19778M
                                                 19791M 19791  19802M 19824M 19824  19840M 19951  20040M 20070M 20070
                                                 20387M 20426M 20448  20449  20449  20449  20465M 20483M 20498M 20526M
                                                 20578M 20606M 20645M 20667M 20667  20685M 20704M 20745  20764M 20811M
                                                 20832M 20832  20851M 20877M 20924M 20924  21010M 21136  21136  21136
                                                 21409M 21426M 21444M 21472M 21517M 21579M 21724M 21750M 21772M 21772
                                                 21810M 21836M 21858M 21858  21895M 21921M 21936M 21962M 21984M 21984
                                                 22022M 22048M 22070M 22070  22092M 22118M 22150M 22176M 22202M 22202
                                                 22341M 22435M 22446  22446M 22720M 22753M 22774M 22802M 22819M 22845M
                                                 22861  22868  22888M 22924M 22953M 22959  22993M 23039M 23069M 23114M
                                                 23122M 23122  23161M 23181M 23348M 23404M 23404  23422M 23458M 23484M
                                                 23499M 23531M 23546M 23570M 23575M 23616M 23642M 23642  23660M 23696M
                                                 23722M 23737M 23774M 23827M 23853M 23853  23934M 23965M 23976M 23980
                                                 23992M 23997  23998  24036M 24176M 24270M 24281  24281M 24617M 24653M
                                                 24691M 24712M 24740M 24785M 24790M 24807M 24828M 24873M 24903M 24903
                                                 24981M 25011M 25011  25227M 25253M 25269M 25312M 25328  25355M 25355
                                                 25433M 25449  25459M 25459  25526M 25547M 25620M 25621M 25622  25627M
                                                 25653M 25667M 25688M 25729M 25760M 25786M 25806M 25898M 25939M 25963M
                                                 26000M 26000  26034M 26069M 26095M 26110M 26128M 26143M 26175M 26205M
                                                 26231M 26231  26261M 26292M 26318M 26333M 26352M 26383M 26421M 26443M
                                                 26443  26545M 26711M 26736M 26751M 26781M 26803M 26803  26818M 26858M
                                                 26884M 26899M 26917M 26932M 26995M 27021M 27036M 27054M 27069M 27138M
                                                 27181M 27200M 27236M 27294M 27335M 27385M 27411M 27442M 27474M 27509M
                                                 27509  27538M 27552M 27552  27566M 27606M 27695M 27695  27796M 27822M
                                                 27844M 27844  27920M 27951M 27962M 27966  27978M 27983  27984  28053M
                                                 28069M 28090M 28236M 28329M 28340  28340M 28765M 28911  28919  28920
                                                 28920  28920  28959M 28987M 29005M 29049M 29074M 29114M 29153M 29181M
                                                 29199M 29233M 29265M 29300M 29344M 29392M 29420M 29461M 29491M 29530M
                                                 29558M 29576M 29610M 29643M 29688M 29716M 29745M 29773M 29816M 29844M
                                                 29862M 29890M 29936M 29964M 29994M 30038M 30079  30097M 30449M 30452
                                                 30464M 30517M 30535M 30548M 30737M 30780M 30806M 30851M 30852  30920
                                                 30920  30920  31057M 31057  31066  31067  31156M 31230M 31249M 31294M
                                                 31314M 31359M 31374M 31419M 31444M 31459M 31484M 31516M 31548M 31580M
                                                 31706M 31730M 31738M 33174  33261M 33279M 33307M 33325M 33383M 33442M
                                                 33471M 33569M 33597M 33615M 33643M 33661M 33689M 33707M 33775M 34034
                                                 34129M 34194M 34212M 34387M 34409M 34560M 34578M 34658M 34701M 34749M
                                                 34820M 34869M 34907M 34933M 34967M 34993M 35085M 35085  35112M 35128M
                                                 35128  35150M 35176M 35202M 35247  35299M 35597M 36085M 36094M 36094
                                                 36129M 36172M 36199M 36224M 36224  36454  36460M 36460  36485  36502M
                                                 36624M 36624  36642M 36800  36801  36801  36801  36857M 36934M 36964M
                                                 36982M 37005M 37008M 37024M 37024  37046  37067M 37112M 37112  37162M
                                                 37178  37186  37245M 37444M 37548M 37548  37593M 37609  37617  37697M
                                                 37698M 37698  37745  37746  37746  37746  37752  37758M 37758  37841M
                                                 37862M 37862  37880M 37918M 37918  38015M 38102M 38102  38234M 38322M
                                                 38384M 38393M 38393  38462M 38469M 38469  38503M 38504  38601M 38631M
                                                 38820M 38831M 38846M 38864M 38915M 38955M 38973M 38991M 39141  39141
                                                 39141  39150  39150  39150  39182  39248M 39482M 39653M 39669M 39669
                                                 40106M 40134M 40164M 40182M 40195  40232M 40262M 40280M 40498  40555
                                                 40566M 40656  40723M 40724M 40938M 40959M 40980M 40980  40997M 41023M
                                                 41040M 41069M 41093M 41243M 41263M 41309M 41331M 41357M 41405M 41433M
                                                 41501M 41529M 41570M 41599M 41599
 R1            1 00000001 FFFFFFFF A   #     725  2178M  2179M  2185M  7445M  7608M  7902M  7927M  7939   7965M  7965
                                                  7993   8001   8052M  8055   8067M  8072   8076M  8085M  8085   8092
                                                  8114M  8117   8129M  8134   8138M  8147M  8147   8154   8570   8876M
                                                  9079M  9089   9090M  9091   9159M  9763M  9785M  9817M  9850   9945M
                                                 10024M 10034M 10169M 10227M 10419M 10585M 10611M 10613M 10616M 10645M
                                                 10685M 10718M 10729M 10769M 10809M 10827M 10851M 10873M 10918M 10939M
1MAIL     (MAIL4072) (12:48) (15MAR04) Ordinary Symbol and Literal Cross Reference                                          Page  166
                                                 10962M 11006M 11048M 11072M 11093M 11115M 11149M 11167M 11191M 11213M
                                                 11253M 11274M 11295M 11319M 11340M 11358M 11404M 11439M 11460  11464M
                                                 11465M 11466  11467M 11468M 11469M 11470  11472M 11976M 12193M 12193
                                                 12246M 12246  12266M 12287M 12287  12295M 13015M 13260M 13307M 13307
                                                 13332  13333  13333  13333  13342M 13354M 13490M 13537M 13653  13687
                                                 13688  13688  13688  13693M 13709M 13738M 13753  13842M 14166  14176M
                                                 14200M 14214M 14241M 14263  14264  14264  14264  14265M 14292M 14303M
                                                 14339M 14400M 14414M 14441M 14463  14464  14464  14464  14465M 14492M
                                                 14503M 14539M 14711  14735M 14742  14747M 14748M 14750M 14837M 14890M
                                                 14944M 14970M 15089  15089  15089  15092  15092  15092  15234M 15244
                                                 15270M 15328M 15355M 15392M 15450M 15514M 15572M 15596M 15618M 15642M
                                                 15664M 15723M 15832M 15850M 15873M 15947M 16098M 16399M 16421M 16475M
                                                 16498M 16539M 16754M 16760M 16762M 16826M 16987  16988  16988  16988
                                                 17017M 17035M 17053M 17069M 17098M 17219  17229M 17253M 17267M 17294M
                                                 17316  17317  17317  17317  17318M 17345M 17356M 17392M 17445M 17459M
                                                 17486M 17508  17509  17509  17509  17510M 17537M 17548M 17584M 17846M
                                                 17879M 17947M 17975M 18006M 18048M 18055  18078M 18100M 18132M 18173M
                                                 18197M 18281  18281  18281  18282  18282  18282  18546M 18791M 18864M
                                                 18887M 19046M 19093M 19119M 19145M 19169M 19188M 19207M 19349M 19603M
                                                 19647M 19673M 19699M 19725M 19751M 19777M 19801M 19820M 19839M 19950
                                                 19952M 19953  19964M 19974M 20039M 20147M 20263M 20386M 20421M 20448
                                                 20449  20449  20449  20460M 20482M 20498M 20525M 20577M 20601M 20644M
                                                 20663M 20684M 20773M 20810M 20850M 20876M 21136  21136  21136  21404M
                                                 21425M 21443M 21467M 21512M 21522M 21578M 21723M 21745M 21809M 21831M
                                                 21894M 21916M 21935M 21957M 22021M 22043M 22091M 22113M 22149M 22171M
                                                 22315M 22315  22392M 22433M 22446  22447  22715M 22752M 22773M 22797M
                                                 22818M 22840M 22867  22923M 22948M 22958  22986M 23032M 23068M 23109M
                                                 23123M 23160M 23180M 23347M 23421M 23457M 23479M 23498M 23526M 23545M
                                                 23565M 23615M 23659M 23695M 23717M 23736M 23767M 23826M 23933M 23964M
                                                 23977M 24035M 24150M 24150  24227M 24268M 24281  24282  24612M 24652M
                                                 24690M 24711M 24735M 24780M 24833M 24872M 24980M 25226M 25248M 25268M
                                                 25307M 25426M 25521M 25546M 25626M 25648M 25666M 25687M 25724M 25759M
                                                 25781M 25805M 25897M 25938M 25962  25962  26033M 26068M 26090M 26109M
                                                 26142M 26170M 26204M 26260M 26291M 26313M 26332M 26351M 26376M 26420M
                                                 26544M 26710M 26731M 26750M 26780M 26817M 26857M 26879M 26898M 26931M
                                                 26994M 27016M 27035M 27068M 27133M 27176M 27199M 27235M 27289M 27330M
                                                 27384M 27406M 27437M 27469M 27536M 27565M 27605M 27795M 27817M 27919M
                                                 27950M 27963M 28052M 28068M 28089M 28209M 28209  28286M 28327M 28340
                                                 28341  28723  28796M 28848M 28958M 28982M 29004M 29048M 29073  29073
                                                 29113M 29152M 29176M 29198M 29228M 29264M 29299M 29339M 29391M 29415M
                                                 29460M 29490M 29529M 29553M 29575M 29605M 29642M 29687M 29711M 29744M
                                                 29768M 29815M 29839M 29861M 29885M 29935M 29959M 30106M 30281  30443M
                                                 30448M 30473  30490M 30496M 30516M 30534M 30653  30678M 30684M 30736M
                                                 30775M 30805M 30853B 31053M 31066  31067  31069  31155M 31229M 31246
                                                 31247  31247  31247  31248M 31275M 31289M 31313M 31354M 31373M 31412M
                                                 31439M 31458M 31479M 31515M 31547M 31579M 31702M 31731M 31739M 32122M
                                                 32123M 32123  32942  32942  32942  33183M 33183  33256M 33278M 33302M
                                                 33324M 33342M 33382M 33441M 33470M 33568M 33592M 33614M 33638M 33660M
                                                 33684M 33706M 33721M 33774M 33864M 34136M 34193M 34211M 34386M 34408M
                                                 34436M 34559M 34577M 34702M 34750M 34819M 34868M 34906M 34928M 34966M
                                                 34992M 35111M 35149M 35175M 35201M 35246  35248M 35249  35326M 35552M
                                                 35888M 36136M 36171M 36195M 36455  36520M 36641M 36800  36801  36801
                                                 36801  36924  36933M 36957M 36981M 37005M 37007M 37045  37270M 37442M
                                                 37762M 37762  37840M 37858M 37879M 38014M 38233M 38321M 38451M 38474M
                                                 38474  38490M 38522M 38522  38556M 38556  38600M 38652M 38654M 38655M
                                                 38656  38658M 38659M 38660  38681M 38682M 38683  38702M 38703M 38704
                                                 38745M 38746M 38747  38751M 38752M 38753  38845M 38863M 38915M 38954M
                                                 38972M 38990M 39141  39141  39141  39416M 39416  39490M 39652M 39742
                                                 39896  39925M 40133M 40157M 40181M 40189M 40196  40211M 40231M 40255M
1MAIL     (MAIL4072) (12:48) (15MAR04) Ordinary Symbol and Literal Cross Reference                                          Page  167
                                                 40279M 40445  40678M 40725M 40933M 40958M 40976M 40996M 41019M 41039M
                                                 41062M 41088M 41242M 41262M 41308M 41330M 41352M 41404M 41428M 41500M
                                                 41524M 41569M
 R12          12 0000000C FFFFFFFF A   #     868  2141
 R13          13 0000000D FFFFFFFF A   #     881  7224   9689  19348  30852M 31061  31062  31063  31079  31080  31081
 R14          14 0000000E FFFFFFFF A   #     894  2116M  7786   8578M  8585M  8593   8594M 11493M 14259M 14263  14264
                                                 14264  14264  14265  14292M 14459M 14463  14464  14464  14464  14465
                                                 14492M 15092  15092  15092  17312M 17316  17317  17317  17317  17318
                                                 17345M 17504M 17508  17509  17509  17509  17510  17537M 18282  18282
                                                 18282  20705M 28686  28912M 30039M 30164  31060M 31061  31062  31063
                                                 31068M 31069  31076M 31079  31080  31081  31242M 31246  31247  31247
                                                 31247  31248  31275M 32942  32942  32942  33132  36418  39780  40371
                                                 40556M 41137
 R15          15 0000000F FFFFFFFF A   #     907  2115   7319M  7320   7321M  7322   7485M  7485   7495M  7595M  7617M
                                                  7853M  7857M  7866M  7866   7873   8024M  8034U  8112M  8113M  8193M
                                                  8196   8208M  8216M  8225M  8225   8232   8261M  8264   8276M  8284M
                                                  8293M  8293   8300   8324M  8327   8339M  8347M  8356M  8356   8363
                                                  8498M  8501   8513M  8521M  8530M  8530   8537   8595M  8605U  8770
                                                  8817M  8823M  8832M  8832   8839   8876   8883M  8888M  8897M  8897
                                                  8904   8923M  8943M  8943   8969M  8969   9068M  9194M  9247M  9256M
                                                  9256   9263   9358M  9379M  9405M  9405   9827M  9828   9843M  9924M
                                                  9925M  9926   9927M 10236M 10446M 10450M 10459M 10459  10466  10536M
                                                 10540M 10549M 10549  10556  10612M 10613  10784M 10818M 10836M 10864M
                                                 10882M 10931M 10948M 10975M 11019M 11057M 11085M 11102M 11124M 11158M
                                                 11176M 11204M 11222M 11266M 11283M 11304M 11332M 11349M 11367M 11417M
                                                 11430M 11430  11460M 11492  11517M 11534M 11564M 11649M 11660M 11660
                                                 11675U 11700  11720M 11796M 12039M 12043M 12052M 12052  12059  12144M
                                                 12148M 12157M 12157  12164  12189M 12189  12231M 12309M 12309  12409M
                                                 12413M 12422M 12422  12429  12493M 12497M 12506M 12506  12513  12589M
                                                 12593M 12602M 12602  12609  12685M 12689M 12698M 12698  12705  13000M
                                                 13022M 13079M 13079  13148M 13148  13364M 13364  13380M 13403M 13403
                                                 13568M 13568  13666M 13667M 13668  13680  13702M 13729M 13844M 13850M
                                                 13870M 13886  13906  13925M 13935U 13981M 13981  14189M 14209M 14233M
                                                 14250M 14285M 14314  14320M 14370M 14370  14392M 14409M 14433M 14450M
                                                 14485M 14514  14520M 14570M 14570  14581M 14606M 14606  14660  14711M
                                                 14712M 14714M 14754M 14754  14766  14788  14803  14828M 14848M 14857M
                                                 14857  14864  14891M 14935M 15019M 15026M 15026  15050M 15050  15187
                                                 15205M 15205  15263M 15393M 15441M 15459M 15489M 15581M 15609M 15627M
                                                 15655M 15673M 15704M 15714M 15841M 15859M 15864M 15882M 15914M 15961M
                                                 16110M 16140M 16140  16176M 16176  16229  16260M 16366M 16366  16373M
                                                 16412M 16430M 16435M 16442  16484M 16489M 16507M 16552M 16561M 16766M
                                                 16766  16779  16802  16824M 16849M 16849  16875M 16875  17008M 17026M
                                                 17044M 17062M 17089M 17107M 17112M 17124M 17124  17146M 17146  17242M
                                                 17262M 17286M 17303M 17338M 17367  17373M 17437M 17454M 17478M 17495M
                                                 17530M 17559  17565M 17619M 17627M 17627  17655M 17655  17743M 17773M
                                                 17773  17822  17926M 17962M 18035M 18087M 18113M 18147M 18182M 18210M
                                                 18242M 18242  18403  18441M 18442M 18443  18463M 18464M 18465  18491M
                                                 18492M 18493  18517M 18518M 18519  18555M 18560M 18585M 18617M 18649M
                                                 18677M 18748M 18770M 18771M 18772  18773M 18835M 18873M 18878M 18896M
                                                 18954M 19009  19055M 19060M 19178M 19200M 19265M 19291M 19378M 19404M
                                                 19471M 19488  19534M 19535M 19536  19548  19594M 19612M 19617M 19810M
                                                 19832M 19896M 19968M 19968  19975M 19997M 19997  20048M 20053M 20078M
                                                 20377M 20395M 20473M 20491M 20518M 20550M 20586M 20614M 20653M 20675M
                                                 20693M 20703M 20704  20709M 20718M 20718  20725  20756M 20778M 20783
                                                 20819M 20824M 20901M 20932M 21001M 21066M 21066  21339  21417M 21434M
                                                 21452M 21480M 21523M 21587M 21592M 21629M 21629  21699  21730M 21756M
                                                 21778M 21816M 21842M 21864M 21901M 21927M 21942M 21968M 21990M 22028M
                                                 22054M 22076M 22098M 22124M 22156M 22182M 22208M 22237M 22237  22332M
                                                 22348M 22358  22379M 22380M 22447M 22466M 22466  22650  22728M 22761M
1MAIL     (MAIL4072) (12:48) (15MAR04) Ordinary Symbol and Literal Cross Reference                                          Page  168
                                                 22782M 22810M 22827M 22867M 22868M 22869M 22915M 22932M 23001M 23047M
                                                 23077M 23124M 23212M 23217M 23250M 23250  23320  23354M 23360M 23386M
                                                 23410M 23428M 23464M 23490M 23505M 23537M 23552M 23592M 23622M 23648M
                                                 23666M 23702M 23728M 23743M 23800M 23833M 23859M 23940M 23971M 24016M
                                                 24042M 24072M 24072  24167M 24183M 24193  24214M 24215M 24282M 24301M
                                                 24301  24547  24625M 24661M 24699M 24720M 24748M 24834M 24881M 24886M
                                                 24911M 24989M 24994M 25019M 25066M 25066  25178  25233M 25259M 25275M
                                                 25377M 25486M 25532M 25553M 25633M 25659M 25709M 25735M 25766M 25792M
                                                 25812M 25904M 25945M 25951M 25982M 26006M 26040M 26075M 26101M 26116M
                                                 26134M 26149M 26181M 26211M 26237M 26267M 26298M 26324M 26339M 26358M
                                                 26409M 26427M 26449M 26551M 26717M 26742M 26757M 26787M 26809M 26824M
                                                 26864M 26890M 26905M 26923M 26938M 27001M 27027M 27042M 27060M 27075M
                                                 27144M 27187M 27257M 27300M 27341M 27391M 27417M 27572M 27612M 27701M
                                                 27802M 27828M 27850M 27926M 27957M 28002M 28059M 28075M 28096M 28131M
                                                 28131  28227M 28242M 28252  28273M 28274M 28341M 28365M 28365  28470M
                                                 28470  28573M 28573  28712  28756M 28792M 28793M 28794  28803M 28805M
                                                 28809M 28818M 28818  28825  28844M 28853  28866M 28892M 28902M 28902
                                                 28911  28944M 28967M 28995M 29013M 29057M 29063M 29094M 29122M 29161M
                                                 29189M 29207M 29241M 29324M 29352M 29400M 29428M 29469M 29499M 29538M
                                                 29566M 29584M 29618M 29651M 29696M 29724M 29753M 29781M 29824M 29852M
                                                 29870M 29898M 29944M 29972M 30037M 30038  30043M 30052M 30052  30059
                                                 30090M 30111M 30112M 30113  30114  30191  30200M 30201  30202  30276M
                                                 30281M 30297  30323M 30325M 30334M 30334  30441M 30481M 30482M 30483
                                                 30484M 30492M 30492  30493  30495M 30525M 30543M 30594M 30594  30648M
                                                 30653M 30665  30669M 30670M 30671  30672M 30680M 30680  30681  30683M
                                                 30745M 30788M 30814M 30876M 30876  31082M 31082  31164M 31178M 31179M
                                                 31180  31200M 31201M 31202  31268M 31300M 31365M 31380M 31425M 31450M
                                                 31465M 31490M 31522M 31554M 31586M 31737M 31777M 31777  32132M 32132
                                                 32151M 32151  32214M 32214  32277M 32277  32340M 32340  32403M 32403
                                                 32466M 32466  32529M 32529  32592M 32592  32655M 32655  32718M 32718
                                                 32781M 32781  32841M 32841  32907M 32907  33196  33269M 33287M 33315M
                                                 33333M 33353M 33509M 33521M 33521  33535M 33538  33577M 33605M 33623M
                                                 33651M 33669M 33697M 33715M 33738M 33763M 33783M 33792M 33792  33925
                                                 33926M 33936U 33964M 33994  33995M 34005U 34033M 34101M 34102M 34102
                                                 34111M 34111  34118M 34158M 34202M 34220M 34232M 34245M 34252M 34273
                                                 34395M 34417M 34428M 34435M 34436  34462M 34488M 34493M 34523M 34537
                                                 34568M 34586M 34641M 34642M 34643  34828M 34877M 34915M 34957M 34975M
                                                 35001M 35013M 35013  35089M 35106  35120M 35226M 35231M 35290M 35364M
                                                 35365M 35377  35497M 35498M 35499  35507M 35509M 35513M 35522M 35522
                                                 35529  35548M 35557  35574M 35588M 35625M 35626  35928M 35930  35970M
                                                 35999M 36080M 36117M 36118M 36161M 36161  36180M 36207M 36232M 36281M
                                                 36281  36493M 36518M 36519M 36632M 36650M 36659M 36666M 36666  36865M
                                                 36942M 36972M 36990M 37045M 37046M 37048M 37120M 37178M 37179M 37180M
                                                 37181  37236M 37268M 37269M 37461M 37462M 37463  37501M 37502M 37503
                                                 37556M 37609M 37610M 37611M 37612  37625M 37637  37674  37719M 37849M
                                                 37870M 37888M 37926M 37947M 38023M 38110M 38187M 38188M 38198M 38208U
                                                 38238M 38238  38255M 38265U 38286M 38296U 38330M 38378M 38475M 38497M
                                                 38513M 38527  38591M 38609M 38621M 38622M 38622  38636M 38637M 38637
                                                 38813M 38813  38815  38825M 38835M 38835  38838M 38854M 38945M 38963M
                                                 38981M 38999M 39020  39021  39021  39021  39061M 39098M 39102M 39102
                                                 39153  39153  39153  39175  39176  39176  39176  39187M 39191M 39191
                                                 39203  39204  39204  39204  39261M 39265M 39265  39299  39299  39299
                                                 39473M 39488M 39489M 39742M 39771M 39771  39807  39815M 39816  39817
                                                 39891M 39896M 39912  39916M 39917M 39918  39919M 39927M 39927  39928
                                                 39972M 39987  40067M 40068M 40069  40090M 40091M 40092  40142M 40172M
                                                 40188M 40210M 40240M 40270M 40311M 40311  40528M 40555  40583M 40585M
                                                 40586  40622M 40682M 40691M 40691  40698  40729M 40729  40946M 40967M
                                                 40988M 41005M 41031M 41048M 41077M 41094M 41122M 41122  41173  41251M
                                                 41317M 41339M 41413M 41441M 41475M 41509M 41537M 41578M 41607M
1MAIL     (MAIL4072) (12:48) (15MAR04) Ordinary Symbol and Literal Cross Reference                                          Page  169
 R2            2 00000002 FFFFFFFF A   #     738  7788   7790   7790   7790   7959M  7994M  7995M  7998   8052M  8114M
                                                  8570M  8611   8620   9171M  9172M  9184   9887M  9897U 12194M 12208
                                                 12964  13021M 13144M 13180  13321M 13342  13399M 13455M 13456M 13457
                                                 13505M 13537  13547M 13548M 13549  14295M 14339  14495M 14539  15412M
                                                 15412  15429M 15472M 15472  15539M 15539  15556M 15687M 15687  15799M
                                                 15799  15816M 15897M 15897  15977M 15980  17348M 17392  17540M 17584
                                                 17837M 17931M 18905M 18905  18922M 18968M 18968  19009M 19019M 19019
                                                 19036  19084  19110  19136  19188  19217M 19217  19234M 19305M 19305
                                                 19488M 19503  19638M 19638  19664  19690  19716  19742  19768  19820
                                                 19848M 19848  19865M 19910M 19910  19939M 19949M 19949  19952  19954
                                                 20006M 20006  20023M 20091M 20091  20623M 20625M 20634M 20634  20663
                                                 20981M 20981  20995  21001  21019M 22387M 22959M 22971M 22971  23058M
                                                 23758M 23767  23884M 23899  23920M 23926M 23929M 23955M 23955  23976
                                                 23997M 24222M 25417M 25426  26367M 26376  27870M 27885  27906M 27912M
                                                 27915M 27941M 27941  27962  27983M 28281M 28654  28688  28774M 28774
                                                 28786  28796  28846  28853M 28860M 28866  28868M 28868  29131M 29131
                                                 29212M 29449M 29449  29508M 29508  29589M 29631M 29631  30114M 30166
                                                 30168  30168  30168  30199M 30199  30202M 30703M 30703  30720M 30827M
                                                 30827  31306M 31354  33134  33136  33136  33136  34094M 34141M 34146
                                                 34273M 34296  34375  35106M 35140  35166  35192  35238M 35245M 35245
                                                 35248  35250  35308M 35308  35320  35326  35550  35557M 35564M 35574
                                                 35576M 35576  35626M 35665M 35665  35748M 35748  35928  35930M 35970
                                                 36060M 36074  36080  36117  36250M 36389  36420  36924M 37745  37746
                                                 37746  37746  38527M 38543M 38543  38620M 38646M 38646  38769M 38769
                                                 38815M 38825  38831M 39020  39021  39021  39021  39098M 39150  39150
                                                 39150  39153  39153  39153  39175  39176  39176  39176  39187M 39203
                                                 39204  39204  39204  39261M 39299  39299  39299  39353  39511M 39529M
                                                 39580M 39580  39646M 39646  39652  39653  39684M 39767M 39782  39784
                                                 39784  39784  39814M 39814  39817M 40358  40373  40402M 40404M 40408M
                                                 40417M 40417  40424  40577M 40586M 40598  40676  40976  41139  41141
                                                 41141  41141
 R3            3 00000003 FFFFFFFF A   #     751  8001M  8011U  8040   8050   9872M  9882U 12195M 12208  12266  12272M
                                                 13322M 13347  13506M 13538  14296M 14344  14496M 14544  14743M 14748
                                                 14766  14788M 14790M 14910  14960M 14960  14982M 14991M 14991  14998
                                                 17349M 17397  17541M 17589  18054M 18105  19940M 19941M 19941  19944M
                                                 19945  20153M 20166M 20166  20289M 20314M 20783M 20841M 20841  20867
                                                 22347M 22358  22379  22387  22389M 22389  22390  22958M 23056M 23437M
                                                 23437  23510M 23605M 23605  23675M 23675  23748M 23816M 23816  23885M
                                                 23899  23926  23977  23998M 24182M 24193  24214  24222  24224M 24224
                                                 24225  25561M 25611  26048M 26048  26154M 26194M 26194  26837M 26837
                                                 26943M 27080M 27595M 27595  27871M 27885  27912  27963  27984M 28241M
                                                 28252  28273  28281  28283M 28283  28284  28770M 28786  28919  28920
                                                 28920  28920  28921M 28931U 29994M 30193M 30194M 30195  30201M 30203
                                                 30750M 30760U 30920  30920  30920  31048M 31048  31088  31310M 31338M
                                                 31338  31359  32126M 32128  32128M 32193M 32195  32195M 32256M 32258
                                                 32258M 32319M 32321  32321M 32382M 32384  32384M 32445M 32447  32447M
                                                 32508M 32510  32510M 32571M 32573  32573M 32634M 32636  32636M 32697M
                                                 32699  32699M 32760M 32762  32762M 33817M 33830M 33830  33890M 35239M
                                                 35240M 35240  35243M 35244  35304M 35320  35707M 35720M 35720  35914M
                                                 36455M 36516  37141  37186M 37187M 37197  37208M 37208  37262  37577
                                                 37617M 37618M 37649M 37649  37799  38496M 38512  39412M 39464  39686M
                                                 39686  39696  39705M 39705  39713  39809M 39810  39816M 39818  40535M
                                                 40546M 40546  40566  40576M 40577  40725
 R4            4 00000004 FFFFFFFF A   #     764  7663M  7681   7729M  7747  12993M 12993  13031M 13031  13123M 13324M
                                                 13508M 14314M 14320  14514M 14520  14742M 14747  15299M 15310U 16442M
                                                 16452U 17367M 17373  17559M 17565  18055M 18100  20119M 20128U 21699M
                                                 21730  21756  21778  21816  21842  21864  21901  21927  21942  21968
                                                 21990  22028  22054  22076  22098  22124  22156  22182  22208  22293M
                                                 22306  22332  22364M 22365  23320M 23354  23386  23410  23428  23464
1MAIL     (MAIL4072) (12:48) (15MAR04) Ordinary Symbol and Literal Cross Reference                                          Page  170
                                                 23490  23505  23537  23552  23592  23622  23648  23666  23702  23728
                                                 23743  23800  23833  23859  23940  23971  24016  24042  24128M 24141
                                                 24167  24199M 24200  25178M 25233  25259  25275  25377  25486  25532
                                                 25553  25633  25659  25709  25735  25766  25792  25812  25904  25945
                                                 25982  26006  26040  26075  26101  26116  26134  26149  26181  26211
                                                 26237  26267  26298  26324  26339  26358  26409  26427  26449  26551
                                                 26717  26742  26757  26787  26809  26824  26864  26890  26905  26923
                                                 26938  27001  27027  27042  27060  27075  27144  27187  27257  27300
                                                 27341  27391  27417  27572  27612  27701  27802  27828  27850  27926
                                                 27957  28002  28059  28075  28096  28203M 28221  28227  28258M 28259
                                                 28736M 28736  28750  28756  30010M 31050M 31050  31089  31278M 31300
                                                 31365  31380  31425  31450  31465  31490  31522  31554  31586  31672U
                                                 32125M 32128  34683M 34683  34695  34708M 34731M 34742M 34742  34748M
                                                 35270M 35270  35284  35290  35588  35606M 36507M 37197  37250M 37262
                                                 37651M 37651  39487M 39696  39707M 39707  40111M 40123  40197M 40198
                                                 40457M 40458M 40458  40499M 40500  40528  40615  40656  40657M 40658
                                                 40723
 R5            5 00000005 FFFFFFFF A   #     777  7629M  7644M  7644   7659U  7678   7681M  7695M  7710M  7710   7725U
                                                  7744   7747M  7814M  7822U  8770M 10744M 10755U 11599M 11610M 11610
                                                 11625U 11679  11700  11736M 11750M 11761M 11761  11776U 11806M 13325M
                                                 13509M 13753M 13763U 13776  13941  13950  14660M 14670U 15187M 15197U
                                                 16229M 16239U 17822M 17832U 18403M 18413U 18419  21339M 21349U 21684M
                                                 21694U 22650M 22660U 23305M 23315U 24547M 24557U 24947M 24948M 24948
                                                 25163M 25173U 25561  25579M 25579  25886M 26014M 26478M 26579M 26605M
                                                 26605  27662M 28188M 28198U 28723M 28731U 30297M 30441  30473M 30495
                                                 30665M 30683  31088M 31134  31150M 31308  31738  33196M 33206U 33211
                                                 34679M 34695  34730M 34731  35692M 35702U 36454M 36493  36516  37141
                                                 37204M 37230  37236  37577  37652M 37799  38378  38496M 38497  38512
                                                 39412M 39428  39450  39473  39708M 39713  39912M 40188  40210  40445M
                                                 40453U 41173M 41183U
 R6            6 00000006 FFFFFFFF A   #     790  7298M  7307U  7309   7803M  7811U  8774M  8791U  8805M  8806M  8806
                                                  9095M  9112U  9126M  9127M  9127   9223   9311   9358   9704M  9712U
                                                  9714  21334M 21678M 22287M 22645M 23299M 24122M 24542M 25158M 28183M
                                                 28427M 28437U 28721U 30181M 30189U 30283M 30293U 30655M 30663U 31089M
                                                 31739  33150M 33152  33160U 39397M 39407U 39797M 39805U 39898M 39908U
                                                 40443M
 R7            7 00000007 FFFFFFFF A   #     803  2108M  2108   2109B  2121B  7225M  7235U  9692M  9702U
 R8            8 00000008 FFFFFFFF A   #     816  7224M  7788   7789M  7790   7790   7790   8766U  9055U  9689M 13645U
                                                 14151U 15183U 17212U 17737U 18391U 19350  21330U 22641U 24538U 25154U
                                                 28654  28688  28689M 30166  30167M 30168  30168  30168  30851M 30993U
                                                 33134  33135M 33136  33136  33136  36389  36420  36421M 39385U 39782
                                                 39783M 39784  39784  39784  40358  40373  40374M 40920U 41139  41140M
                                                 41141  41141  41141
 SAILNM        4 00000202 00000001     I    7937  8660
 SAVEDIR       4 00004396 00000001     I   28686 21116  28685
 SBATBUF     256 00000040 FFFFFFD9     X   21273 21404  21409
 SBATCB       60 00000004 FFFFFFD9     X   21271 21417  21434  21452  21480
 SBATCBCOD
               1 00000004 FFFFFFD9     R   21188 21197  21207  21217  21227  21237  21247  21257
 SBATCBLENF
               4 00000010 FFFFFFD9     A   21263 21517
 SBATCBLOC
               4 00000024 FFFFFFD9     A   21267 21512
 SBATFLAG      1 00000000 FFFFFFD9     R   21176 21180  21360M
 SBATFQ      128 00000000 FFFFFFD9        21180 21383M 21538
 SBATHDR       2 00002F2C 00000001     H   21643 21522
 SBATLP        2 000030C2 00000001     H   22296 22373B 22410B
 SBATRTN       2 000030A0 00000001     H   22252 21523
 SBATWA      320 00000000 FFFFFFD9     J   21280 21301  21330U 21625  21627  21628
1MAIL     (MAIL4072) (12:48) (15MAR04) Ordinary Symbol and Literal Cross Reference                                          Page  171
 SBHEXIT       2 0000352A 00000001     H   24051 23335B
 SBITBUF     256 00000040 FFFFFFD8     X   22584 22715  22720
 SBITCB       60 00000004 FFFFFFD8     X   22582 22728  22761  22782  22810  22827  22915  22932  23001  23047  23077
 SBITCBCOD
               1 00000004 FFFFFFD8     R   22499 22508  22518  22528  22538  22548  22558  22568
 SBITCBLENF
               4 00000010 FFFFFFD8     A   22574 23114
 SBITCBLOC
               4 00000024 FFFFFFD8     A   22578 23109
 SBITFLAG      1 00000000 FFFFFFD8     R   22487 22491  22671M
 SBITFQ      128 00000000 FFFFFFD8        22491 22694M 23139
 SBITHDR       2 00003300 00000001     H   23264 23123
 SBITLP        2 0000355A 00000001     H   24131 24208B 24245B
 SBITRTN       2 00003538 00000001     H   24087 23124
 SBITWA      320 00000000 FFFFFFD8     J   22591 22612  22641U 23246  23248  23249
 SCAN          1 00000000 00000007     T    9419  9419  12889  15066  39134
 SCANCHK       1 00000000 0000004D     T   32922 32922
 SCANITEM      2 0000173E 00000001     H   14625 15076
 SCANSTR       1 00000000 00000027     T   15067 15067
 SCINIT        1 00000000 00000004     T    9416  9416  24317  28592  39128
 SCNEX         1 00000000 0000001D     T   12887 12887
 SCNNOOP       1 00000000 00000047     T   32034 32034
 SCNXUSER      2 000017DA 00000001     H   14900 14883B
 SCRMAILQ      2 00005D18 00000001     H   36022 36342
 SCSET         1 00000000 0000001C     T   12886 12886  15068
 SCTELL        1 00000000 0000001B     T   12882 12882  15065
 SDIRFADD    128 00000020 FFFFFFD5        28662 19975  28879  28891M
 SDIRFLAG      1 00000020 FFFFFFD5     R   28658 28662  28712M
 SDIRLINE    491 00000021 FFFFFFD5     X   28665 28848
 SDIRWA      524 00000000 FFFFFFD5     J   28672 28690  28710U
 SDSNHOSA      1 0000000A 00000001 A   U    6331  7324
 SDSNHOSC      1 0000000C 00000001 A   U    6333  7364
 SDSNHOSD      1 0000000D 00000001 A   U    6334  7387
 SDSNHOSH      1 00000008 00000001 A   U    6329  7410
 SDSNHOSR      1 0000000B 00000001 A   U    6332  7341
 SDSNQSZ       1 0000002C FFFFFFEC A   U    6096  6097   6098
 SEG           1 00000000 0000001F     T   12892 12892  15073  18262  21086  24315  28588  30904  32927  36300  39122
                                                 41653
 SEGB          1 00000000 00000020     T   12893 12893  41667
 SEGCB        60 00000000 FFFFFFE6     J    7061 10745  10755U 12920  31279  31672U 32945
 SEGCBCOD      1 00000000 FFFFFFE6     R    6972  6981   6991   7001   7011   7021   7031   7041
 SEGCBLENF
               4 0000000C FFFFFFE6     A    7047 11444  31678
 SEGCLR        1 00000000 00000023     T   12901 12901  15084  18273  21108  30903  36324
 SEGCOL        1 00000000 00000040     T   28604 28604
 SEGCR         1 00000000 0000000D     T    9425  9425  12873  18268  21115  32924  36304  39120
 SEGDC         1 00000000 00000033     T   21106 21106  39129  41664
 SEGINIT       1 00000000 0000001E     T   12891 12891  15081  18271  24314  28587  32925  41661
 SEGMID        2 000020EA 00000001     H   17787 18259  21087  24319  28594
 SEGT          1 00000000 00000021     T   12895 12895  18267  21121  24316  28591  30905  36305  39123  41669
 SEGTB         1 00000000 00000030     T   18275 18275  21120  41670
 SEGWR         1 00000000 0000002D     T   18261 18261  21088  24320  28595  30916  36325  39130  41671
 SENDBAT       2 00002E42 00000001     H   21288 21092
 SENDBIT       2 0000314E 00000001     H   22599 21090
 SENDDONE      2 00002B3A 00000001     H   20920 18590B 18622B 18654B 18682B 18991B 19328B 19349  19933B 20108B
 SENDFLAG      1 00000000 FFFFFFDA     R   18317 18321
 SENDGTE       2 00003700 00000001     H   24496 21091
 SENDMAIL      2 000023C2 00000001     H   18349 12902
 SENDMSG       1 00000000 00000036     T   21122 21122
1MAIL     (MAIL4072) (12:48) (15MAR04) Ordinary Symbol and Literal Cross Reference                                          Page  172
 SENDQCNT      2 00000002 FFFFFFDA     H   18325 18771  18772M 18814  18853M 18853  20211M 20211  20238M 20238
 SENDSCAN      4 00000834 00000001     I   10150 10241B
 SENDSMID      4 00000004 FFFFFFDA     A   18327 18418M 21037
 SENDWA        8 00000000 FFFFFFDA     J   18334 18362  18391U 18401M 18401  21062  21064  21065
 SENFWAIT    128 00000000 FFFFFFDA        18321 18829  18846M
 SENWMAX#      1 00000005 00000001 A   U   18305 21129  32961
 SENWSEC#      1 00000005 00000001 A   U   18304 18835
 SETWHOST      2 00000018 00000001     H    7223  7221
 SGHEXIT       2 00003FF8 00000001     H   28105 25928B
 SGTEBUF      64 00000040 FFFFFFD7     X   24481 24612  24617
 SGTECB       60 00000004 FFFFFFD7     X   24479 24625  24661  24699  24720  24748
 SGTECBCOD
               1 00000004 FFFFFFD7     R   24396 24405  24415  24425  24435  24445  24455  24465
 SGTECBLENF
               4 00000010 FFFFFFD7     A   24471 24785
 SGTECBLOC
               4 00000024 FFFFFFD7     A   24475 24780
 SGTEFLAG      1 00000000 FFFFFFD7     R   24384 24388  24568M
 SGTEFQ      128 00000000 FFFFFFD7        24388 24591M 24849
 SGTEHDR       2 00003874 00000001     H   25112 24833
 SGTEHFLN    128 00000008 FFFFFFD6        25093 26477M 26695  26706M 27678
 SGTEHWA      35 00000000 FFFFFFD6     J   25104 25125  25154U 28127  28129  28130
 SGTEHWAF      1 00000008 FFFFFFD6     R   25089 25093
 SGTEHWAH     24 0000000B FFFFFFD6     C   25097 25183M 25199M 25248  25253  27289  27294  28583  28584
 SGTEHWTO      2 00000009 FFFFFFD6     C   25096 26461M 26640  26668  26731  26736  27743  27752M
 SGTELP        2 0000402C 00000001     H   28207 28267B 28304B
 SGTERCPT      4 00000004 FFFFFFD6     F   25086 25568M 25568  25621  25622M 25877
 SGTERTN       2 00004006 00000001     H   28148 24834
 SGTEWA      128 00000000 FFFFFFD7     J   24488 24509  24538U 25062  25064  25065
 SHAILNEW      4 0000001C FFFFFFE3     A    7198  7993M  8114
 SHAILOLD      4 00000014 FFFFFFE3     A    7197  7939M  8052   8113
 SHAILQH       4 00000004 FFFFFFE3     A    7191  7321   7696
 SHAILQT       4 00000008 FFFFFFE3     A    7192  7322M  8024   8050M
 SHMBCNT       2 0000011E FFFFFFD4     H   33095 37180  37181M 37611  37612M 38659
 SHMBOXES      6 0000000C FFFFFFD4     X   33054 34436  36080
 SHMCOUNT      4 0000001C FFFFFFD4     F   33060 38658  38660M 39809  39919  39928M
 SHMCPTRS      4 00000104 FFFFFFD4     F   33092 37141M 37577M
 SHMDIR        2 0000002E FFFFFFD4     H   33071 35290  35588  36493  37236  38378  38497  38622  39473
 SHMDIR#       1 0000005A FFFFFFD4 A   U   33068 33071  36345
 SHMDMAX#      1 00000005 00000001 A   N   32961 33054  36343  36352
 SHMFALL     128 00000001 FFFFFFD4        33007 31499  32933  33399  34842  36676
 SHMFATTN    128 000000E2 FFFFFFD4        33079 37147M 37491  37583M
 SHMFCHNG     64 00000000 FFFFFFD4        32982 33908M 34776  35677  38038M 38808M
 SHMFCHR      32 00000001 FFFFFFD4        33017 31563  32935  32936  34673
 SHMFDEL      16 00000001 FFFFFFD4        33022 31135  32923  32937  38073
 SHMFKEPT     64 00000001 FFFFFFD4        33012 31531  32932  33414  34857  36707  36741
 SHMFLAG       1 00000000 FFFFFFD4     R   32973 32977  32982  32987  32992  32997
 SHMFMHDR      2 00000001 FFFFFFD4        33037 32938  37317  39560
 SHMFMLQ      16 00000000 FFFFFFD4        32992 33902M 34608  35623M 35835
 SHMFOPT       1 00000001 FFFFFFD4     R   33003 33007  33012  33017  33022  33027  33032  33037  33042  33174M
 SHMFRETY     64 000000E2 FFFFFFD4        33084 36595  37172  37603
 SHMFSKIP     32 00000000 FFFFFFD4        32987 35265M 35446M 35469M 35491  37473  37789
 SHMFSTAT      4 00000001 FFFFFFD4        33032 31647  32940  33222
 SHMFSUM       8 00000001 FFFFFFD4        33027 31632  32934  37039  37518  37810
 SHMFUHDR      1 00000001 FFFFFFD4        33042 32939  37380  39626
 SHMFWAIT      8 00000000 FFFFFFD4        32997 34183  34244M 34265M
 SHMIFLAG      1 000000E2 FFFFFFD4     R   33075 33079  33084  33097  33097
 SHMIPTRS      4 000000F8 FFFFFFD4     F   33091 36516M 38470  38496  38512M 38621  38636
 SHMISTAT      1 000000E3 FFFFFFD4     C   33088 36662M 36695  36729
1MAIL     (MAIL4072) (12:48) (15MAR04) Ordinary Symbol and Literal Cross Reference                                          Page  173
 SHMISUBJ      8 000000E4 FFFFFFD4     C   33089 36782
 SHMITEM      64 000000E2 FFFFFFD4     X   33097 36515M 36515  38511M 38511
 SHMITX        2 0000632C 00000001     H   37219 36598B
 SHMKCNT       2 00000014 FFFFFFD4     H   33057 35803M 35803  38681  38683M 38752  38753M 40068  40069M
 SHMKWRP       4 00000020 FFFFFFD4     A   33062 33211M 35692  38286
 SHMLALL       2 0000518C 00000001     H   32158 31794
 SHMLCHR       2 0000521C 00000001     H   32347 31869
 SHMLCNT       2 0000011C FFFFFFD4     H   33094 37462  37463M 37826M 37826  37858  38655
 SHMLDEL       2 0000527C 00000001     H   32473 31899
 SHMLED        4 00005B1C 00000001     I   35246 35241B
 SHMLEMS       2 0000536C 00000001     H   32788 32004
 SHMLENQ       4 000057D8 00000001     I   34158 34250B
 SHMLERR       4 00005C36 00000001     I   35625 36004B
 SHMLEXIT      2 00005CD4 00000001     I   35930 33522B 33793B
 SHMLFIN       2 000059C0 00000001     H   34768 34707B 34755B
 SHMLFREE      2 00005C3A 00000001     I   35626 34233B 34253B 34429B 34494B 34809B 35014B 35232B
 SHMLINE     256 00000122 FFFFFFD4     C   33099 35501M 35536M 35548  36520  37270  39490
 SHMLINES      4 00000018 FFFFFFD4     F   33059 38652  38656M 39808  39917  39918M
 SHMLINE2    235 00000286 FFFFFFD4     C   33101 35552
 SHMLINT       2 00005394 00000001     H   32848 31854
 SHMLKEPT      2 000051BC 00000001     H   32221 31809
 SHMLKMSG      2 000055DA 00000001     H   33475 33385B 33444B
 SHMLMACX      2 000055F2 00000001     I   33534 33433B 33462B
 SHMLMHDR      2 000052DC 00000001     H   32599 31929  31944
 SHMLNBOX      2 0000593A 00000001     H   34600 34351B
 SHMLNCHR      2 0000524C 00000001     H   32410 31884
 SHMLNDEL      2 000052AC 00000001     H   32536 31914
 SHMLNO        4 00000024 FFFFFFD4     F   33064 35258M 35258  35498  35499M 35501
 SHMLNR        4 00006D68 00000001     I   40231 40194B
 SHMLRDLP      2 0000576A 00000001     H   34053 34644B
 SHMLRTN       2 00006C3E 00000001     H   39854 36008
 SHMLSHOW      2 0000595C 00000001     I   34657 34611B 34632B
 SHMLSIZE      4 00006BF2 00000001     I   39780 36330
 SHMLSTAT      2 0000533C 00000001     H   32725 31989
 SHMLSUB       2 00005148 00000001     H   32085 31824
 SHMLSUM       2 000051EC 00000001     H   32284 31839
 SHMLUHDR      2 0000530C 00000001     H   32662 31959  31974
 SHMLWRK       1 00005D14 00000001     R   36007 34462
 SHMMAST       2 00000028 FFFFFFD4     H   33066 34034M 34658  40106
 SHMMDIR       2 0000002A FFFFFFD4     H   33069 33173M 40189  40211
 SHMNCNT       2 00000012 FFFFFFD4     H   33056 35775M 35775  38702  38704M 38745  38747M 40091  40092M
 SHMNDIR       2 0000002C FFFFFFD4     H   33070 34537  35284  37230  37637
 SHMPPTRS      4 00000110 FFFFFFD4     F   33093 38470M 39412  39713M
 SHMPRT        4 00004E28 00000001     F   31782 32920
 SHMPTRS       4 000000EC FFFFFFD4     F   33090 37799M 39428  39450  39464
 SHMQCNT       2 00000002 FFFFFFD4     H   33046 34101  34336M 34336  34435  34629  34642  34643M
 SHMREXIT      2 00006D98 00000001     H   40290 40204B
 SHMSCNT       2 00000120 FFFFFFD4     H   33096 37502  37503M 37978M 37978
 SHMSUBJ       8 00000004 FFFFFFD4     C   33048 33190M 34896M 34896  34928  34933  36767M 36767  36782  36902M 36902
 SHMTSEG       4 000068B2 00000001     I   39017 39118
 SHMWA      1137 00000000 FFFFFFD4     J   33109 33151  33160U 33168M 33168  33169M 33169  33170M 33170  33171M 33171
                                                 33172M 33172  39407U 39805U 39908U
 SHMWSEC#      1 00000005 00000001 A   N   32960 34245
 SHOST       241 00000024 FFFFFFE3     X    7200  7814   8592
 SHOSTACC      2 00000316 00000001     H    8387  8680
 SHOSTBAT      2 00000334 00000001     H    8428  8664
 SHOSTBIT      2 0000033A 00000001     H    8437  8666
 SHOSTBSM      2 00000340 00000001     H    8446  8672
 SHOSTEND      4 00000394 00000001     I    8566  8684
1MAIL     (MAIL4072) (12:48) (15MAR04) Ordinary Symbol and Literal Cross Reference                                          Page  174
 SHOSTERR      4 00000358 00000001     I    8485  8682
 SHOSTGTE      2 000002CE 00000001     H    8255  8668
 SHOSTLN     235 00000115 FFFFFFE3     C    7202  7880M  7902   9427
 SHOSTNDM      2 00000352 00000001     H    8476  8678
 SHOSTNFL      2 00000346 00000001     H    8455  8674
 SHOSTNM       2 000002A6 00000001     H    8186  8662
 SHOSTPRT      1 000003D2 00000001     R    8660  7927
 SHOSTQH       4 0000000C FFFFFFE3     A    7194  7319   7518M  7518   7630
 SHOSTQT       4 00000010 FFFFFFE3     A    7195  7320M  8595   8620M
 SHOSTRLY      2 000002F4 00000001     H    8322  8670
 SHOSTRTN      4 000001A0 00000001     I    7786  7776
 SHOSTSCN      2 000001F4 00000001     H    7920  8181B  8621B
 SHOSTTST      2 0000034C 00000001     H    8467  8676
 SHOSTWA     512 00000000 FFFFFFE3     J    7209  7299   7307U  7317M  7317   7318M  7318   7811U
 SHOSTWRK      1 0000019C 00000001     R    7776  7495
 SHOSTXIT      2 000003C2 00000001     H    8625  7932B  9426
 SHOWMAIL      2 00004B60 00000001     H   30951 30947
 SIN         224 00000000 FFFFFFE8     J    6675  9897U  9913
 SINSTAG      16 00000052 FFFFFFE8     C    6633  9919
 SINVPGM       8 00000098 FFFFFFE8     C    6643  6649   6649
 SKIPSQZ       2 00003AA4 00000001     H   25965 25961B
 SLICECHK      1 00000000 00000028     T   15071 15071
 SMATTN        4 000067BC 00000001     I   38838 38039B 38243B 38348B 38897  38899
 SMCANCEL      4 000067C4 00000001     I   38845 38901
 SMDEL         2 000066C4 00000001     H   38552 38076B 38868  38870  38887  38889  38891
 SMDK          4 000066F4 00000001     I   38621 38548B
 SMDUMP        6 0000667C 00000001     I   38483 38881
 SMEXIT        2 0000679A 00000001     I   38815 37948B 38514B 38839B
 SMIEXIT       2 00006456 00000001     H   37667 36660B 36710B 36744B 36785B 37476B
 SMIHDR        6 000061BE 00000001     I   36662 36580B
 SMILOOP       4 00006150 00000001     I   36518 37663B
 SMINEXT       2 0000640E 00000001     I   37592 37320B 37383B 37504B 37521B
 SMINV         2 0000686E 00000001     H   38933 38905
 SMINVRTN      4 00006866 00000001     I   38915 39133
 SMIPARNO      4 00000024 FFFFFFD3     F   36392 39182M 39215M 39215  39248
 SMIPBRNO      4 00000020 FFFFFFD3     F   36391 36485M 37697
 SMIPR         4 0000644C 00000001     I   37661 37420B 37640B
 SMITEM        4 000060F8 00000001     I   36418 36327
 SMIWA        44 00000000 FFFFFFD3     J   36401 36422  36445U
 SMKEEP        2 000066B0 00000001     H   38518 38873  38875
 SMLIST        4 0000668C 00000001     I   38496 38877  38879
 SMLOOP        4 000065CC 00000001     I   38198 38335B 38614B
 SMLPRINT      4 0000665C 00000001     I   38462 38885
 SMPOK         2 00006798 00000001     H   38811 37792B 38082B 38460B 38893  38895
 SMPRINT       2 00006664 00000001     H   38467 38883
 SMPROMPT      4 00006494 00000001     I   37742 39124
 SMPRT         1 000067E2 00000001     R   38868 38451
 SMPRX         6 00006666 00000001     I   38470 38463B
 SMPRXPAR      4 00000028 FFFFFFD3     F   36394 37752M 38504M 38820
 SMQUEST       4 0000688A 00000001     I   38972 38903
 SMREAD        2 0000658E 00000001     H   38098 38480B 39004B
 SPECIAL       1 000040EC 00000001     R   28473 28442  28443  28473  28474  28476  28478
 SPR          13 0000000D 00000001 A   #    1125  8731   8734   8736   8737M  8737   8961M  8965   8967   9020   9023
                                                  9025   9026M  9026   9397M  9401   9403  12961  12964  12965  12966M
                                                 12966  13140M 13144  13146  13177  13180  13181  13182M 13182  13395M
                                                 13399  13401  13423  13426  13427  13428M 13428  13560M 13564  13566
                                                 13610  13613  13615  13616M 13616  13973M 13977  13979  14116  14119
                                                 14121  14122M 14122  14598M 14602  14604  14631  14634  14635  14636M
                                                 14636  15042M 15046  15048  15148  15151  15153  15154M 15154  16168M
1MAIL     (MAIL4072) (12:48) (15MAR04) Ordinary Symbol and Literal Cross Reference                                          Page  175
                                                 16172  16174  16200  16203  16204  16205M 16205  16867M 16871  16873
                                                 16902  16905  16906  16907M 16907  17138M 17142  17144  17177  17180
                                                 17182  17183M 17183  17647M 17651  17653  17702  17705  17707  17708M
                                                 17708  17765M 17769  17771  17793  17796  17797  17798M 17798  18234M
                                                 18238  18240  18356  18359  18361  18362M 18362  21058M 21062  21064
                                                 21295  21298  21300  21301M 21301  21621M 21625  21627  21649  21652
                                                 21653  21654M 21654  22229M 22233  22235  22258  22261  22262  22263M
                                                 22263  22458M 22462  22464  22606  22609  22611  22612M 22612  23242M
                                                 23246  23248  23270  23273  23274  23275M 23275  24064M 24068  24070
                                                 24093  24096  24097  24098M 24098  24293M 24297  24299  24503  24506
                                                 24508  24509M 24509  25058M 25062  25064  25119  25122  25124  25125M
                                                 25125  28123M 28127  28129  28154  28157  28158  28159M 28159  28357M
                                                 28361  28363  28398  28401  28402  28403M 28403  28462M 28466  28468
                                                 28502  28505  28506  28507M 28507  28565M 28569  28571  30245  30248
                                                 30249  30250M 30250  30586M 30590  30592  30617  30620  30621  30622M
                                                 30622  30868M 30872  30874  30958  30961  30963  30964M 30964  31769M
                                                 31773  31775  32091  32094  32095  32096M 32096  32143M 32147  32149
                                                 32164  32167  32168  32169M 32169  32206M 32210  32212  32227  32230
                                                 32231  32232M 32232  32269M 32273  32275  32290  32293  32294  32295M
                                                 32295  32332M 32336  32338  32353  32356  32357  32358M 32358  32395M
                                                 32399  32401  32416  32419  32420  32421M 32421  32458M 32462  32464
                                                 32479  32482  32483  32484M 32484  32521M 32525  32527  32542  32545
                                                 32546  32547M 32547  32584M 32588  32590  32605  32608  32609  32610M
                                                 32610  32647M 32651  32653  32668  32671  32672  32673M 32673  32710M
                                                 32714  32716  32731  32734  32735  32736M 32736  32773M 32777  32779
                                                 32794  32797  32798  32799M 32799  32833M 32837  32839  32854  32857
                                                 32858  32859M 32859  32899M 32903  32905  36028  36031  36032  36033M
                                                 36033  36273M 36277  36279  39350  39353  39355  39356M 39356  39763M
                                                 39767  39769  39860  39863  39864  39865M 39865  40303M 40307  40309
                                                 40885  40888  40890  40891M 40891  41114M 41118  41120
 TRANNAME      2 000040B4 00000001     H   28392 21089
 TRC           1 00000000 00000000 A   T    2137  2137
 TREADQ        1 00000000 0000005A     T   39132 39132
 TTYFLAG       1 00000004 FFFFFFEA     R    6225  6229
 TTYMAX#       1 00000006 FFFFFFEA A   U    6281  6282
 TTYTFLAG      1 00000005 FFFFFFEA     R    6235  6239   6244   6249   6254   6259   6264   6269
 UNPRESS       1 00000000 0000003D     T   24323 24323  28609  30901  36337  39117  41648
 UNPRST        1 00000001 FFFFFFEC A   U    6185  7776
 UPPTBL        1 00000000 00000000 A   T    2200  2200
 VERPSH        1 00000000 00000048     T   32049 32049
 WAITER        1 00000000 00000032     T   21099 21099  36317
 WAR           8 00000008 00000001 A   #    1048  8736M  8961   9025M  9397   9704  12965M 13140  13181M 13395  13427M
                                                 13560  13615M 13973  14121M 14598  14635M 15042  15153M 16168  16204M
                                                 16867  16906M 17138  17182M 17647  17707M 17765  17797M 18234  18361M
                                                 21058  21300M 21621  21653M 22229  22262M 22446  22458  22611M 23242
                                                 23274M 24064  24097M 24281  24293  24508M 25058  25124M 28123  28158M
                                                 28340  28357  28402M 28462  28506M 28565  28710U 30249M 30586  30621M
                                                 30868  30963M 31769  32095M 32128  32143  32168M 32195  32206  32231M
                                                 32258  32269  32294M 32321  32332  32357M 32384  32395  32420M 32447
                                                 32458  32483M 32510  32521  32546M 32573  32584  32609M 32636  32647
                                                 32672M 32699  32710  32735M 32762  32773  32798M 32833  32858M 32899
                                                 36032M 36273  36445U 39355M 39763  39864M 40303  40395U 40890M 41114
 WTOSG         1 00000000 00000000 A   T    2097  2097
 WYLMAIL       1 00000000 00000001     J    1003  1005   1030   1043   1056   1068   1081   1094   1107   1120   1133
                                                  1146   2381   2465   6205   6317   6599   6676   6956   7062   7067
                                                  7094   7175   7210   7886   8105   8167   8245   8313   8376   8550
                                                  8717   8852   8917   8994   9276
 XGETFRST      1 00000000 00000025     T   15060 15060
 XGETNEXT      1 00000000 00000026     T   15061 15061
1MAIL     (MAIL4072) (12:48) (15MAR04) Ordinary Symbol and Literal Cross Reference                                          Page  176
 XSETSET       1 00000000 00000024     T   15059 15059
 ZDETRNG       1 00000000 00000009     T    9421  9421  12888
 ZODSNM        1 00000000 00000005     T    9417  9417
 ZSNFIN        1 00000000 00000008     T    9420  9420
 =A(-1-L'SHMFCHR)
               4 0000543C 00000001     A   32936 32445
 =A(-1-L'SHMFDEL)
               4 00005408 00000001     A   32923 31150  32571
 =A(ADDITEM)
               4 00001870 00000001     A   15069 13479  13534
 =A(ADDLINE)
               4 00004AA8 00000001     A   30906 29020  29104  29481  29662  29731  29788  29906  29980
 =A(ADDLIST)
               4 00001104 00000001     A   12881 10387  11985
 =A(ADDLIST)
               4 00001858 00000001     A   15063 13108  14365  14565
 =A(ADDLIST)
               4 0000224C 00000001     A   18264 15959  16108
 =A(ALIASCHK)
               4 00002250 00000001     A   18265 16263
 =A(BITFIX)
               4 00003670 00000001     A   24334 23781
 =A(BITFIX)
               4 000042B8 00000001     A   28599 25467  26390
 =A(BUFRLINE)
               4 00001148 00000001     A   12898 11475
 =A(BUFRLINE)
               4 00004AD0 00000001     A   30914 30499  30687
 =A(BUFRLINE)
               4 00007124 00000001     A   41654 40192  40214
 =A(CHKACCID)
               4 00002264 00000001     A   18270 16957
 =A(CHKDLIST)
               4 00002260 00000001     A   18269 16935
 =A(CHKITEM)
               4 000021FC 00000001     A   18254 15250
 =A(CVPSZ-2)
               4 0000713C 00000001     A   41660 40598
 =A(CVPSZ-4-2)
               4 0000711C 00000001     A   41652 40123
 =A(DISTITEM)
               4 00002200 00000001     A   18255 15273
 =A(HOSTCHK)
               4 00002254 00000001     A   18266 16376
 =A(L'HOSTGATE)
               4 00000600 00000001     A    9432  8264   8276
 =A(L'HOSTNAME)
               4 000005FC 00000001     A    9431  8196   8208
 =A(L'HOSTRELY)
               4 00000604 00000001     A    9433  8327   8339
 =A(L'HOSTTEXT)
               4 0000060C 00000001     A    9435  8501   8513
 =A(L'MIDXHOST)
               4 000018B0 00000001     A   15085 14803
 =A(L'MIDXUSER)
               4 000018E0 00000001     A   15087 14910
 =A(L'MWADATE)
               4 0000117C 00000001     A   12905 12021  12033
 =A(L'MWAFROM)
1MAIL     (MAIL4072) (12:48) (15MAR04) Ordinary Symbol and Literal Cross Reference                                          Page  177
               4 00001180 00000001     A   12906 12126  12138
 =A(L'MWALINE)
               4 00001114 00000001     A   12885 10519  10531
 =A(L'MWANAME)
               4 00001188 00000001     A   12908 12476  12488
 =A(L'MWARET)
               4 00001184 00000001     A   12907 12391  12403
 =A(L'MWARNAME)
               4 0000118C 00000001     A   12909 12572  12584
 =A(L'MWATITLE)
               4 00001110 00000001     A   12884 10429  10441  12668  12680
 =A(L'SHMFALL)
               4 00005430 00000001     A   32933 32193
 =A(L'SHMFCHR)
               4 00005438 00000001     A   32935 32382
 =A(L'SHMFDEL)
               4 00005440 00000001     A   32937 32508
 =A(L'SHMFKEPT)
               4 0000542C 00000001     A   32932 32126  32256
 =A(L'SHMFMHDR)
               4 00005444 00000001     A   32938 32634
 =A(L'SHMFSTAT)
               4 0000544C 00000001     A   32940 32760
 =A(L'SHMFSUM)
               4 00005434 00000001     A   32934 32319
 =A(L'SHMFUHDR)
               4 00005448 00000001     A   32939 32697
 =A(L'SHOSTLN)
               4 000005EC 00000001     A    9427  7836   7848
 =A(LOCALEMA)
               4 00001894 00000001     A   15078 13873
 =A(MAILCHK)
               4 00005EA0 00000001     A   36302 33356
 =A(MAILDISP)
               4 00005428 00000001     A   32931 31742
 =A(MAILSIZE)
               4 00002CD8 00000001     A   21110 19471
 =A(MGETMINF)
               4 00001128 00000001     A   12890 10694
 =A(MLOGERR)
               4 00002CB8 00000001     A   21102 19067  19624
 =A(MTOKEN)
               4 000010C0 00000001     A   12870 10150  11958
 =A(MWALMAX#)
               4 0000187C 00000001     A   15072 13680
 =A(NETEMA)
               4 00001890 00000001     A   15077 13853
 =A(PARREST)
               4 0000693C 00000001     A   39121 36657  36872  36997  37127  37563  37895  37933  38030  39092
 =A(PARSAVE)
               4 00006934 00000001     A   39119 36610  36841  36927  37098  37534  37834  37904  38008  39024
 =A(RTNBDVOL)
               4 00002CC4 00000001     A   21105 19136  19768
 =A(RTNNOACS)
               4 00002CBC 00000001     A   21103 19084  19690
 =A(RTNNOACS)
               4 00005F54 00000001     A   36333 35166
 =A(RTNNOSPC)
               4 00002CE0 00000001     A   21112 19503  19742
1MAIL     (MAIL4072) (12:48) (15MAR04) Ordinary Symbol and Literal Cross Reference                                          Page  178
 =A(RTNNOSPC)
               4 00005F50 00000001     A   36332 35140
 =A(RTNOVSP)
               4 00002CE8 00000001     A   21114 19664
 =A(RTNVOLNA)
               4 00002CC0 00000001     A   21104 19110  19716
 =A(RTNVOLNA)
               4 00005F20 00000001     A   36322 34375  35192
 =A(SAVEDIR)
               4 00002CF0 00000001     A   21116 19971  19978
 =A(SCANITEM)
               4 0000188C 00000001     A   15076 13847
 =A(SCRMAILQ)
               4 00005F78 00000001     A   36342 35685
 =A(SEGMID)
               4 00002210 00000001     A   18259 15444  15867  16492
 =A(SEGMID)
               4 00002C2C 00000001     A   21087 18563  18881  19063  19620  20056  20827
 =A(SEGMID)
               4 00003614 00000001     A   24319 21595  23220
 =A(SEGMID)
               4 0000429C 00000001     A   28594 24889  24997
 =A(SENDBAT)
               4 00002C40 00000001     A   21092 18680
 =A(SENDBIT)
               4 00002C38 00000001     A   21090 18620
 =A(SENDGTE)
               4 00002C3C 00000001     A   21091 18652
 =A(SENDMAIL)
               4 00001158 00000001     A   12902 11799
 =A(SHMDMAX#)
               4 00005F7C 00000001     A   36343 36074
 =A(SHMLSIZE)
               4 00005F48 00000001     A   36330 35089
 =A(SHMPRT)
               4 000053FC 00000001     A   32920 31068
 =A(SHMTSEG)
               4 00006930 00000001     A   39118 36606  37074  37094  37530
 =A(SHOSTXIT)
               4 000005E8 00000001     A    9426  7832
 =A(SMINVRTN)
               4 0000696C 00000001     A   39133 38442
 =A(SMITEM)
               4 00005F34 00000001     A   36327 34705  34753
 =A(SMPROMPT)
               4 00006948 00000001     A   39124 37661
 =A(TRANNAME)
               4 00002C34 00000001     A   21089 18615  18647
 =A(X'F')      4 00005F5C 00000001     A   36335 35365
 =A(1)         4 0000185C 00000001     A   15064 13123
 =A(1)         4 00003674 00000001     A   24335 23929
 =A(1)         4 000042D4 00000001     A   28606 27536  27915
 =A(100000)
               4 000010B4 00000001     A   12867  9927
 =A(100000)
               4 00002CA4 00000001     A   21097 18773
 =A(100000)
               4 00005F00 00000001     A   36314 34118  36118
 =A(2)         4 000010E0 00000001     A   12872 10189
1MAIL     (MAIL4072) (12:48) (15MAR04) Ordinary Symbol and Literal Cross Reference                                          Page  179
 =A(2)         4 00005F60 00000001     A   36336 35377
 =A(2)         4 00007114 00000001     A   41650 39987
 =A(235)       4 00004ACC 00000001     A   30913 30452  30464
 =A(255)       4 000005F8 00000001     A    9430  8055   8067   8117   8129
 =A(3)         4 00002204 00000001     A   18256 15340
 =A(4)         4 00001898 00000001     A   15079 13886
 =A(4)         4 00002CB4 00000001     A   21101 19036  20867
 =A(4)         4 00005F14 00000001     A   36319 34296
 =A(5)         4 00002CE4 00000001     A   21113 19548
 =A(6)         4 00000608 00000001     A    9434  8399
 =A(64)        4 000042B4 00000001     A   28598 25328  25449
 =A(69)        4 00003678 00000001     A   24336 23980  23992
 =A(69)        4 000042D8 00000001     A   28607 27966  27978
 =A(8)         4 0000189C 00000001     A   15080 13906
 =A(8)         4 00003638 00000001     A   24326 22861
 =A(80)        4 000005F4 00000001     A    9429  7942   7954   7976   7988
 =AL1(LEXATRTN,0,0,0)
               1 0000114C 00000001     R   12899 11534
 =AL2(MWADIR#*2)
               2 000011A8 00000001     R   12912 10126
 =AL2(MWADIR#*2)
               2 00005FEC 00000001     R   36351 34523
 =AL2(MWANEW#*2)
               2 000011AA 00000001     R   12913 10127
 =AL2(SENWMAX#)
               2 00002D20 00000001     R   21129 18814
 =AL2(SHMDIR#*2)
               2 00005FAC 00000001     R   36345 33173
 =AL2(SHMDMAX#)
               2 00005FEE 00000001     R   36352 34629
 =AL2(2+256-1)
               2 00004AF6 00000001     R   30922 30200
 =AL2(2+256-1)
               2 00007198 00000001     R   41674 39815
 =AL4(1)       4 00001888 00000001     R   15075 13817
 =AL4(100)
               4 000042BC 00000001     R   28600 25877
 =AL4(50)      4 000042D0 00000001     R   28605 26534
 =C'           '
              11 0000434D 00000001     C   28634 26817
 =C'  '        2 000036B2 00000001     C   24348 23964
 =C'  '        2 000042FC 00000001     C   28616 27950
 =C' (User logged on but not notified)'
              34 00002DA4 00000001     C   21141 20876
 =C' (User notified)'
              16 00002C18 00000001     C   21085 20850
 =C' - '       3 00005FFB 00000001     C   36359 33324
 =C' -- '      4 0000227C 00000001     C   18276 18173
 =C' -- Can''t resolve mail address'
              30 000018EA 00000001     C   15091 13738
 =C' ,;'       3 0000190C 00000001     C   15094 13324
 =C' ,'        2 000018E4 00000001     C   15088 13321  13505  13508
 =C' '         1 00001299 00000001     C   12936 11274
 =C' '         1 000036FE 00000001     C   24359 24035
 =C' '         1 0000434B 00000001     C   28632 26710  28089
 =C' "'        2 000011EE 00000001     C   12919 11048
 =C' cannot be displayed on '
              24 00005E00 00000001     C   36295 33660
 =C' does not exist, mail not sent.'
1MAIL     (MAIL4072) (12:48) (15MAR04) Ordinary Symbol and Literal Cross Reference                                          Page  180
              31 000022C1 00000001     C   18286 15664
 =C' for '
               5 000071D0 00000001     C   41678 40996
 =C' instead.'
               9 00006014 00000001     C   36362 33774
 =C' is an unknown host address, mail not sent.'
              43 000022EF 00000001     C   18290 16421
 =C' is an unknown local address, mail not sent.'
              44 00002214 00000001     C   18260 15450
 =C' is too long for a host name, mail not sent.'
              44 000018B4 00000001     C   15086 14837
 =C' is too long for a mail address, mail not sent.'
              47 00001961 00000001     C   15099 14944
 =C' is unrecognized.'
              17 00006A18 00000001     C   39158 38954
 =C' lines'
               6 00002D9C 00000001     C   21139 20684
 =C' lines'
               6 00006992 00000001     C   39146 37879
 =C' mailbox is full -- too many items.'
              35 0000719C 00000001     C   41676 40181
 =C' mailbox is full.'
              17 000071BF 00000001     C   41677 40279
 =C' on '      4 00007158 00000001     C   41665 41039
 =C' ALL'      4 0000541C 00000001     C   32928 31515
 =C' Content-Type: message/rfc822'
              29 00004379 00000001     C   28638 28068
 =C' CHRON'
               6 00005454 00000001     C   32943 31579
 =C' Date:     '
              11 00004330 00000001     C   28627 25938
 =C' DATA'
               5 0000432B 00000001     C   28626 25897
 =C' From:      '
              12 00003664 00000001     C   24333 23659
 =C' From:     '
              11 0000433B 00000001     C   28628 26033  26260
 =C' HELO '
               6 000042E4 00000001     C   28610 25226
 =C' KEPT'
               5 000054AB 00000001     C   32953 31547
 =C' Mime-Version: 1.0'
              18 000042FE 00000001     C   28617 28052
 =C' MAIL FROM:<'
              12 000042A4 00000001     C   28596 25268
 =C' RCPT TO:<'
              10 000042EC 00000001     C   28612 25626
 =C' Subject:  '
              11 00004365 00000001     C   28636 27795
 =C' Subject: '
              10 000036A8 00000001     C   24347 23933
 =C' Subject:'
               9 00004370 00000001     C   28637 27919
 =C' To:        '
              12 00003658 00000001     C   24332 23421
 =C' To:       "Distribution list":;'
              32 00004248 00000001     C   28585 26544
 =C'.  Access not permitted.'
              24 00002BC0 00000001     C   21081 19093  19699
1MAIL     (MAIL4072) (12:48) (15MAR04) Ordinary Symbol and Literal Cross Reference                                          Page  181
 =C'.  Error code '
              14 00002D4E 00000001     C   21132 19169  19801
 =C'.  Invalid volume.'
              18 00002D3C 00000001     C   21131 19145  19777
 =C'.  Mail not edit format.'
              24 00002BE0 00000001     C   21083 19647
 =C'.  Mailbox is full.'
              19 00004B41 00000001     C   30935 30805
 =C'.  Mailbox is unavailable.'
              26 00002D22 00000001     C   21130 18887
 =C'.  No space after scratch.'
              26 00002D7A 00000001     C   21134 19751
 =C'.  User''s disk space exceeded.'
              30 00002D5C 00000001     C   21133 19673
 =C'. Mailbox volume not available.'
              31 00002DF7 00000001     C   21145 19119  19725
 =C'.'         1 00001296 00000001     C   12933 10939
 =C'.'         1 000022C0 00000001     C   18285 15618  15873  17098
 =C'.'         1 00002E16 00000001     C   21146 19207  19839
 =C'.'         1 00004B2F 00000001     C   30933 29861
 =C'.'         1 000054AA 00000001     C   32952 31458
 =C'.'         1 00005FFA 00000001     C   36358 33278  33614
 =C'.BITNET#'
               8 000035F8 00000001     C   24313 22880
 =C'.DEFQnnnn'
               9 0000601D 00000001     C   36363 34117
 =C'.Stanford.EDU'
              13 00004358 00000001     C   28635 27565
 =C'<>'        2 000022BE 00000001     C   18284 17931
 =C'<'         1 0000129A 00000001     C   12937 11295
 =C'<'         1 00002E2A 00000001     C   21148 20482
 =C'<'         1 00004347 00000001     C   28630 26142  26351  26931  27068
 =C'('         1 000069E1 00000001     C   39155 36933
 =C'(except printing).'
              18 000069BA 00000001     C   39152 38863
 =C'**'        2 00003694 00000001     C   24341 22426  24261
 =C'**'        2 00004314 00000001     C   28620 28320
 =C'*::Date: '
               9 00004AFB 00000001     C   30925 29048
 =C'*::From: '
               9 00004B13 00000001     C   30931 29490
 =C'*::Message-ID: <'
              16 00004A30 00000001     C   30894 28958
 =C'*::Subject: '
              12 00004AB8 00000001     C   30910 29935
 =C'*::To:   '
               9 00004B04 00000001     C   30926 29113
 =C'*::X-From-Account: '
              19 00004B1C 00000001     C   30932 29815
 =C'*::X-From-Name: '
              16 00004A40 00000001     C   30895 29687
 =C'*::X-From-Userid: '
              18 00004AE0 00000001     C   30919 29744
 =C'*N'        2 000011EC 00000001     C   12918 10809  11149
 =C'*N'        2 00003692 00000001     C   24340 22407  24242
 =C'*N'        2 00004312 00000001     C   28619 28301
 =C') '        2 00006986 00000001     C   39140 36981
 =C'; '        2 00002D9A 00000001     C   21138 20644
 =C'; '        2 00006990 00000001     C   39145 37840
1MAIL     (MAIL4072) (12:48) (15MAR04) Ordinary Symbol and Literal Cross Reference                                          Page  182
 =C';NAME:'
               6 0000368A 00000001     C   24338 21809
 =C';NOTIFY:'
               8 000035F0 00000001     C   24312 21894
 =C';SENDER:'
               8 000035E8 00000001     C   24311 21723
 =C';TITLE:'
               7 000036CC 00000001     C   24353 22021
 =C';TO:'      4 0000361C 00000001     C   24321 22091
 =C'-- '       3 00007204 00000001     C   41682 41500
 =C'/'         1 000054A9 00000001     C   32951 31373
 =C', '        2 000022B6 00000001     C   18280 16498
 =C', try '
               6 00005FAE 00000001     C   36346 33706
 =C','         1 0000434C 00000001     C   28633 26780
 =C'%'         1 00004329 00000001     C   28624 25666  27235
 =C'%'         1 00004B12 00000001     C   30930 29299
 =C'>'         1 0000129B 00000001     C   12938 11340
 =C'>'         1 00002E2B 00000001     C   21149 20525
 =C'>'         1 000036FD 00000001     C   24358 23615  23826
 =C'>'         1 00004328 00000001     C   28623 25546  25805  26204  26420  27605
 =C'>'         1 00004AFA 00000001     C   30924 29004  29460  29642
 =C'????????'
               8 00001058 00000001     C   12859 10827  11167
 =C'????????'
               8 00006900 00000001     C   39112 36827  36915
 =C':       '
               8 00004268 00000001     C   28586 26750
 =C': '        2 00002D98 00000001     C   21137 20577
 =C': invalid mail address, mail not sent. '
              39 0000232B 00000001     C   18292 17017
 =C': invalid DELETE option.'
              24 00006908 00000001     C   39113 38600
 =C'::'        2 00004AF8 00000001     C   30923 30374
 =C'::'        2 0000698C 00000001     C   39143 37302
 =C'::'        2 00007196 00000001     C   41673 39545
 =C':'         1 00001298 00000001     C   12935 11115  11358
 =C'@'         1 000023B6 00000001     C   18297 18078
 =C'@'         1 000036CB 00000001     C   24352 21935  22149  22818  23545
 =C'@'         1 0000432A 00000001     C   28625 25687  25759  27199  27384
 =C'@'         1 00004B11 00000001     C   30929 29264  29391
 =C'@SYSA'
               5 000022E0 00000001     C   18287 16044
 =C'@SYSB'
               5 000022E5 00000001     C   18288 16066
 =C'"  '       3 00004348 00000001     C   28631 26332
 =C'" <'       3 000036FA 00000001     C   24357 23498  23736
 =C'" <'       3 00004B0E 00000001     C   30928 29198  29575
 =C'" '        2 00005FF2 00000001     C   36354 34966
 =C'" SENDER "'
              10 00003698 00000001     C   24343 22923
 =C'"))'       3 0000193F 00000001     C   15097 14241  14441
 =C'"))'       3 00002394 00000001     C   18295 17294  17486
 =C'"'         1 00001297 00000001     C   12934 11093
 =C'"'         1 000036E8 00000001     C   24355 23068  23457  23695
 =C'"'         1 00004346 00000001     C   28629 26068  26109  26291  26857  26898  26994  27035
 =C'"'         1 00004B0D 00000001     C   30927 29152  29529
 =C'"'         1 00006066 00000001     C   36368 34906
 =C'because mail is not being accepted by '
1MAIL     (MAIL4072) (12:48) (15MAR04) Ordinary Symbol and Literal Cross Reference                                          Page  183
              38 0000228E 00000001     C   18278 15850
 =C'cc'        2 000042FA 00000001     C   28615 26668  27743  27752
 =C'mai '      4 000010F4 00000001     C   12877 10326
 =C'mail '
               5 0000125B 00000001     C   12930 10339
 =C'mail exists.'
              12 00005F3C 00000001     C   36329 34992
 =C'spi '      4 000010F8 00000001     C   12878 10352
 =C'spir'      4 000010FC 00000001     C   12879 10365
 =C'to'        2 000011AE 00000001     C   12915 10217
 =C'Access not permitted.'
              21 00006091 00000001     C   36371 35175
 =C'Account '
               8 000021F0 00000001     C   18252 15572
 =C'Account '
               8 000070D8 00000001     C   41644 40133  40231
 =C'All actions cancelled '
              22 000069A4 00000001     C   39151 38845
 =C'A0000-0000-00000:00000'
              22 00001192 00000001     C   12911  9870
 =C'Delete'
               6 00006998 00000001     C   39147 38233
 =C'DELETE ignored, NOVERIFY must also be specified.'
              48 000053C8 00000001     C   32918 31155
 =C'Expecting YES, NO, DELETE, KEEP, '
              33 00006A29 00000001     C   39159 38972
 =C'From'      4 00001140 00000001     C   12896 11213
 =C'FORMS=QUIET '
              12 00003628 00000001     C   24324 22752
 =C'FORMS=QUIET '
              12 00004278 00000001     C   28589 24690
 =C'FROM'      4 00001138 00000001     C   12894 10873
 =C'GENERAL'
               7 000011F2 00000001     C   12921  9742
 =C'GENERAL'
               7 00005462 00000001     C   32948 31026
 =C'HOLD '
               5 00004316 00000001     C   28621 24652
 =C'HOLD NONOTIFY '
              14 0000367C 00000001     C   24337 21425
 =C'Kept '
               5 00006061 00000001     C   36367 34868
 =C'LIST, COLLECT, LPRINT, PRINT, CANCEL or QUIT.'
              45 00006A4A 00000001     C   39160 38990
 =C'Mail for '
               9 0000600B 00000001     C   36361 33568
 =C'Mail logic problem.'
              19 000069CE 00000001     C   39154 36641
 =C'Mail not sent '
              14 00002280 00000001     C   18277 15832
 =C'Mail not sent to '
              17 0000190F 00000001     C   15095 13693
 =C'Mail not sent to '
              17 0000231A 00000001     C   18291 16475  17053
 =C'Mail not sent to '
              17 00002DE6 00000001     C   21144 18864  19046  19603
 =C'Mail not sent to '
              17 000036E9 00000001     C   24356 23180
 =C'Mail not sent to '
1MAIL     (MAIL4072) (12:48) (15MAR04) Ordinary Symbol and Literal Cross Reference                                          Page  184
              17 00004B30 00000001     C   30934 30736
 =C'Mail not sent.  '
              16 00004A50 00000001     C   30896 30516
 =C'Mail not sent, error mailing to '
              32 00002BF8 00000001     C   21084 20039
 =C'Mail not sent, no user id in address.'
              37 00001990 00000001     C   15100 14970
 =C'Mail not updated.  '
              19 00006067 00000001     C   36369 35111
 =C'Mail not updated.'
              17 000069E2 00000001     C   39156 38014
 =C'Mail received from '
              19 00002E17 00000001     C   21147 20386
 =C'Mail sent to '
              13 00002E2F 00000001     C   21151 20810
 =C'Mail sent to '
              13 000036BE 00000001     C   24351 21578  23160
 =C'Mail sent to '
              13 0000431B 00000001     C   28622 24872  24980
 =C'Mail would have been sent to '
              29 00002DC9 00000001     C   21143 18546
 =C'Mailbox volume not available. '
              30 00005FCE 00000001     C   36350 34386
 =C'Mailbox volume not available.'
              29 000060A6 00000001     C   36372 35201
 =C'Minor mailbox problem -- unable to scratch '
              43 000060C3 00000001     C   36373 36171
 =C'Missing "TO account" on MAIL command.'
              37 00001271 00000001     C   12932 10729
 =C'Missing account(s) for SEND.'
              28 000010C4 00000001     C   12871 10169
 =C'Missing mail-id(s) after TO.'
              28 0000115C 00000001     C   12903 11976
 =C'Missing message after account.'
              30 000011B0 00000001     C   12916 10419
 =C'MAI '      4 000010E8 00000001     C   12874 10274
 =C'MAI'       3 0000129C 00000001     C   12939 11511  11831
 =C'MAI'       3 00002E2C 00000001     C   21150 20800
 =C'MAI'       3 000036BB 00000001     C   24350 21568
 =C'MAIL '
               5 00001256 00000001     C   12929 10287
 =C'MAIL/SEND commands not available in this Wylbur.'
              48 00001008 00000001     C   12854  9817
 =C'MAILFULL'
               8 00004A88 00000001     C   30899 30844
 =C'MAILINFO invalid with TO or CC'
              30 000011CE 00000001     C   12917 10685
 =C'MLNOTSNT'
               8 00002BB8 00000001     C   21080 18901
 =C'No '       3 0000605E 00000001     C   36366 34819
 =C'No additional mail can be received until "NEW" or "KEPT" mail is deleted by you.'
              80 00005E48 00000001     C   36299 34577
 =C'No hosts defined.'
              17 00000625 00000001     C    9441  7608
 =C'No kept mail.'
              13 00005FFE 00000001     C   36360 33470
 =C'No mail.'
               8 00005DE0 00000001     C   36291 33382
 =C'No new mail.'
1MAIL     (MAIL4072) (12:48) (15MAR04) Ordinary Symbol and Literal Cross Reference                                          Page  185
              12 00005EA4 00000001     C   36303 33441
 =C'No space after scratch.'
              23 0000607A 00000001     C   36370 35149
 =C'Note:'
               5 000071D8 00000001     C   41680 41242  41308
 =C'Return code '
              12 00007148 00000001     C   41663 40958
 =C'RCPT'      4 00001854 00000001     C   15062 13100
 =C'REC_GET(PUB.MAIL_DISTNO,UPPER("'
              31 00001920 00000001     C   15096 14200
 =C'REC_GET(PUB.MAIL_DISTNO,UPPER("'
              31 00002375 00000001     C   18294 17253
 =C'REC_GET(SES.MAIL_DISTNO,UPPER("'
              31 00001942 00000001     C   15098 14400
 =C'REC_GET(SES.MAIL_DISTNO,UPPER("'
              31 00002397 00000001     C   18296 17445
 =C'SEN'       3 00001206 00000001     C   12923  9776  10142
 =C'SEN'       3 00002DC6 00000001     C   21142 18481
 =C'SEN'       3 00007207 00000001     C   41683 41558
 =C'SES.MAIL_MAIL'
              13 000011F9 00000001     C   12922  9763
 =C'SES.MAIL_MAILDFLT'
              17 00001260 00000001     C   12931 10718
 =C'SES.MAIL_SEND'
              13 00001209 00000001     C   12924  9785
 =C'SES.MAIL_SHOWMAIL'
              17 00005498 00000001     C   32950 31313
 =C'SHO'       3 000071D5 00000001     C   41679 41231  41297  41391
 =C'SHOW MAIL command not available in this Wylbur.'
              47 00005469 00000001     C   32949 31229
 =C'SIN'       3 00001216 00000001     C   12925  9913
 =C'SPI '      4 000010EC 00000001     C   12875 10300
 =C'SPIR'      4 000010F0 00000001     C   12876 10313
 =C'STANFORD'
               8 00001038 00000001     C   12855 10048  12329
 =C'SYSAFF '
               7 000036B4 00000001     C   24349 21443
 =C'SYSC '
               5 00000616 00000001     C    9438  7357
 =C'SYSC '
               5 000022EA 00000001     C   18289 16297
 =C'SYSD '
               5 0000061B 00000001     C    9439  7380
 =C'SYSH '
               5 00000620 00000001     C    9440  7403
 =C'SYSOUT=E TO '
              12 00004284 00000001     C   28590 24711
 =C'To'        2 000042F8 00000001     C   28614 26461  26640
 =C'Too much mail, starting at line '
              32 00004A60 00000001     C   30897 30534
 =C'Type Q to quit the SHOW MAIL command.'
              37 000069F3 00000001     C   39157 38321
 =C'TO ignored.'
              11 0000124B 00000001     C   12928 10227
 =C'TO'        2 000011AC 00000001     C   12914 10204
 =C'Unable to display mail.'
              23 00006047 00000001     C   36365 34408
 =C'Unable to SHOW MAIL.  '
              22 00005FB6 00000001     C   36348 34193
1MAIL     (MAIL4072) (12:48) (15MAR04) Ordinary Symbol and Literal Cross Reference                                          Page  186
 =C'UserID/Distribution list conflict. '
              35 00002352 00000001     C   18293 17035
 =C'WARNING -- This mailbox is FULL.'
              32 00005E28 00000001     C   36298 34559
 =C'WRAP=80 SYSOUT=E TO "'
              21 000036D3 00000001     C   24354 22773
 =C'WYLMAIL_'
               8 00001000 00000001     C   12853  9748
 =C'WYLMAIL_'
               8 000053C0 00000001     C   32917 31032
 =C'Your account is not receiving new mail.'
              39 000071DD 00000001     C   41681 41262
 =C'Your account''s mail message is: '
              32 000070E8 00000001     C   41646 41404
 =C'Your mailbox is currently in use.'
              33 00006026 00000001     C   36364 34211
 =C'Your new mail is being forwarded to '
              36 00007164 00000001     C   41668 41330
 =C'1Date:      '
              12 00003644 00000001     C   24329 23347
 =CL(L'SGTEHWAH)'Forsythe.Stanford.EDU'
              24 00004218 00000001     C   28583 25183
 =CL(L'SGTEHWAH)'RLG.ORG'
              24 00004230 00000001     C   28584 25199
 =CL25'Forsythe.Stanford.EDU'
              25 00001232 00000001     C   12927 10085
 =CL25'RLG.ORG'
              25 00001219 00000001     C   12926 10069
 =CL32'Forsythe.Stanford.EDU'
              32 00001080 00000001     C   12861 12366
 =CL32'RLG.ORG'
              32 00001060 00000001     C   12860 12350
 =CL44'WYL.gg.uuu.MAIL.DEFQnnnn'
              44 00002C78 00000001     C   21096 18764
 =CL44'WYL.gg.uuu.MAIL.DEFQnnnn'
              44 00005F80 00000001     C   36344 36114
 =CL44'WYL.gg.uuu.MAIL'
              44 00002C48 00000001     C   21094 18718
 =CL44'WYL.gg.uuu.MAIL'
              44 00005ED4 00000001     C   36313 34095  35036
 =CL8'MAILERR'
               8 000070E0 00000001     C   41645 41094
 =CL8'MLINUSE'
               8 00005E20 00000001     C   36297 34225
 =CL8'MLNOTSNT'
               8 00002BD8 00000001     C   21082 19270
 =CL8'MUCHMAIL'
               8 00004A80 00000001     C   30898 30555
 =CL8'NOKEPTML'
               8 00005DF8 00000001     C   36294 33472
 =CL8'NOMAIACC'
               8 00001050 00000001     C   12858 10726
 =CL8'NOMAIL'
               8 00005DE8 00000001     C   36292 33384
 =CL8'NOMLMACH'
               8 00005E18 00000001     C   36296 33788
 =CL8'NONEWML'
               8 00005DF0 00000001     C   36293 33443
 =CL8'NOSNDACC'
1MAIL     (MAIL4072) (12:48) (15MAR04) Ordinary Symbol and Literal Cross Reference                                          Page  187
               8 00001040 00000001     C   12856 10166
 =CL8'NOSNDMSG'
               8 00001048 00000001     C   12857 10416
 =F'2'         4 000042C8 00000001     F   28603 25963
 =F'2'         4 00004AB4 00000001     F   30909 29074
 =H'-1,8'      2 00002C44 00000001     H   21093 18699
 =H'-1,8'      2 00005ED0 00000001     H   36312 34060
 =H'-1'        2 000069A0 00000001     H   39149 38620
 =H'-2'        2 00005460 00000001     H   32947 31730
 =H'-4'        2 00005FCC 00000001     H   36349 34232  34252  34428  34493  35231
 =H'-4'        2 0000699E 00000001     H   39148 38513
 =H'1024'      2 00004AF4 00000001     H   30921 30194
 =H'11'        2 0000698A 00000001     H   39142 37008
 =H'15'        2 00002D1C 00000001     H   21127 18721
 =H'15'        2 00005FF4 00000001     H   36355 35039
 =H'2'         2 000018E8 00000001     H   15090 13491  14736
 =H'2'         2 0000719A 00000001     H   41675 40724
 =H'24'        2 00002D1E 00000001     H   21128 18796
 =H'24'        2 00005FF8 00000001     H   36357 36141
 =H'4'         2 00003690 00000001     H   24339 22380  24215
 =H'4'         2 00004310 00000001     H   28618 28274
 =H'4'         2 00005FF0 00000001     H   36353 34748
 =H'4'         2 00006984 00000001     H   39139 36519  37269
 =H'4'         2 00007194 00000001     H   41672 39489
 =H'7'         2 000036A4 00000001     H   24345 23575
 =H'8'         2 00003696 00000001     H   24342 22869
 =V(BILLCHK)
               4 000010A0 00000001     V   12862  9752
 =V(BILLCHK)
               4 000053F8 00000001     V   32919 31036
 =V(BTD)       4 000010B8 00000001     V   12868  9948
 =V(BTD)       4 00002CA8 00000001     V   21098 18794
 =V(BTD)       4 00005F04 00000001     V   36315 34139  36139
 =V(CHKACCT)
               4 00002274 00000001     V   18274 17746
 =V(COLLPRT)
               4 00006978 00000001     V   39136 38490
 =V(CVEXNO)
               4 00004AD4 00000001     V   30915 30551
 =V(DDEQ)      4 00002CF4 00000001     V   21117 20115  20971
 =V(DDEQ)      4 00005F1C 00000001     V   36321 34345  35648  36243
 =V(DENQ)      4 00002C74 00000001     V   21095 18751
 =V(DENQ)      4 00005F08 00000001     V   36316 34161
 =V(DEQUOTE)
               4 000005F0 00000001     V    9428  7937   7972   8495
 =V(DEQUOTE)
               4 00001178 00000001     V   12904 12017  12101  12387  12470  12566  12662
 =V(DEQUOTE)
               4 00001874 00000001     V   15070 13651
 =V(DESPOT)
               4 000005DC 00000001     V    9423  7498
 =V(DESPOT)
               4 00001150 00000001     V   12900 11541
 =V(DESPOT)
               4 00002CCC 00000001     V   21107 19381
 =V(DESPOT)
               4 00005F24 00000001     V   36323 34465
 =V(DOPEN)
               4 00002CDC 00000001     V   21111 19475
1MAIL     (MAIL4072) (12:48) (15MAR04) Ordinary Symbol and Literal Cross Reference                                          Page  188
 =V(DOPEN)
               4 00005F4C 00000001     V   36331 35093  36151
 =V(DSNPRT)
               4 000005C8 00000001     V    9418  7445
 =V(EDTCOM)
               4 00005420 00000001     V   32929 31709
 =V(EVALSTR)
               4 000018A4 00000001     V   15082 14311  14511
 =V(EVALSTR)
               4 0000226C 00000001     V   18272 17364  17556
 =V(EVALSTR)
               4 00005414 00000001     V   32926 31317
 =V(EXIT0)
               4 000005BC 00000001     V    9415  7417
 =V(EXTCLOSE)
               4 000005E0 00000001     V    9424  7503
 =V(EXTCLOSE)
               4 00002CD4 00000001     V   21109 19442  19987  20967
 =V(EXTCLOSE)
               4 00005F18 00000001     V   36320 34320  34517  35644  35949
 =V(EXTOPEN)
               4 000005D8 00000001     V    9422  7475
 =V(EXTOPEN)
               4 00002CB0 00000001     V   21100 19007
 =V(EXTOPEN)
               4 00005F10 00000001     V   36318 34271
 =V(EXTWRITE)
               4 00004A98 00000001     V   30902 28856  30117
 =V(EXTWRITE)
               4 00005F68 00000001     V   36338 35560
 =V(FMTCLCK)
               4 000010AC 00000001     V   12865  9847
 =V(FMTDAY)
               4 000010B0 00000001     V   12866  9864
 =V(FMTXDATE)
               4 00003654 00000001     V   24331 23368
 =V(FMTXDATE)
               4 000042C4 00000001     V   28602 25959
 =V(FMTXDATE)
               4 00004AB0 00000001     V   30908 29071
 =V(GBLCMD)
               4 000010A4 00000001     V   12863  9793  10722
 =V(GETACCT)
               4 0000220C 00000001     V   18258 15396
 =V(GETHEAP)
               4 00001884 00000001     V   15074 13751
 =V(GETKWR)
               4 00005424 00000001     V   32930 31734
 =V(GETMACH)
               4 00005EB8 00000001     V   36306 33742
 =V(GETUID)
               4 00002248 00000001     V   18263 15731
 =V(INITCMD)
               4 000005B8 00000001     V    9414  7256
 =V(KWIO)      4 00002208 00000001     V   18257 15359  15518
 =V(KWIO)      4 00002CF8 00000001     V   21118 20151  20267
 =V(KWIO)      4 00005EBC 00000001     V   36307 33868  35892
 =V(LASTLINE)
               4 00006964 00000001     V   39131 38191
1MAIL     (MAIL4072) (12:48) (15MAR04) Ordinary Symbol and Literal Cross Reference                                          Page  189
 =V(LOCALTOD)
               4 000010A8 00000001     V   12864  9840   9860
 =V(LOCALTOD)
               4 00003650 00000001     V   24330 23364
 =V(LOCALTOD)
               4 000042C0 00000001     V   28601 25955
 =V(LOCALTOD)
               4 00004AAC 00000001     V   30907 29067
 =V(LOGCMD)
               4 00007144 00000001     V   41662 40953
 =V(LOGEVENT)
               4 0000715C 00000001     V   41666 41097
 =V(LRTRIM)
               4 00000610 00000001     V    9436  9087   9169
 =V(LRTRIM)
               4 0000110C 00000001     V   12883 10397
 =V(LRTRIM)
               4 000018A8 00000001     V   15083 14347  14547
 =V(LRTRIM)
               4 000021F8 00000001     V   18253 15242  15955  17400  17592
 =V(LRTRIM)
               4 00002CFC 00000001     V   21119 20429
 =V(LRTRIM)
               4 00003634 00000001     V   24325 22848  23573  23777
 =V(LRTRIM)
               4 000042B0 00000001     V   28597 25315  25436  26386  27497
 =V(LRTRIM)
               4 00005F38 00000001     V   36328 34936
 =V(MBOXDISP)
               4 00005E9C 00000001     V   36301 33345
 =V(MIXFMT)
               4 00006980 00000001     V   39138 39084
 =V(NOMORPG)
               4 00005EC4 00000001     V   36309 33983
 =V(NOMORPG)
               4 00007130 00000001     V   41657 40488  40646
 =V(NSCAN)
               4 00005400 00000001     V   32921 31072
 =V(ORVCMD)
               4 00001100 00000001     V   12880 10374
 =V(PFREEA)
               4 00002D0C 00000001     V   21123 20941
 =V(PFREEA)
               4 00004AC4 00000001     V   30911 30020
 =V(PFREEA)
               4 00005F6C 00000001     V   36339 35586
 =V(PFREEA)
               4 0000694C 00000001     V   39125 37680  38428
 =V(PFREEA)
               4 00006AEC 00000001     V   39297 39226
 =V(PFREEB)
               4 00002D10 00000001     V   21124 20947
 =V(PFREEB)
               4 00006924 00000001     V   39115 36490  37686
 =V(PGETA)
               4 00003620 00000001     V   24322 22344  24179
 =V(PGETA)
               4 000042DC 00000001     V   28608 28239
 =V(PGETA)
1MAIL     (MAIL4072) (12:48) (15MAR04) Ordinary Symbol and Literal Cross Reference                                          Page  190
               4 00004A90 00000001     V   30900 28768
 =V(PGETA)
               4 00005F58 00000001     V   36334 35302
 =V(PGETA)
               4 00006928 00000001     V   39116 36505  37248  38406  38634  38823
 =V(PGETA)
               4 00006AF0 00000001     V   39298 39251
 =V(PGETA)
               4 00007108 00000001     V   41647 39485  40569
 =V(PGETB)
               4 00005F30 00000001     V   36326 34661
 =V(PGETB)
               4 00006950 00000001     V   39126 37711
 =V(PGETB)
               4 00007118 00000001     V   41651 40109
 =V(PGETNEW)
               4 00005EC0 00000001     V   36308 33967
 =V(PGETNEW)
               4 0000712C 00000001     V   41656 40472  40630
 =V(PJUNK)
               4 00002D18 00000001     V   21126 21017
 =V(PJUNK)
               4 00005F74 00000001     V   36341 35604
 =V(PMARKA)
               4 0000697C 00000001     V   39137 38801
 =V(PMARKA)
               4 00007138 00000001     V   41659 40511  40669  40720
 =V(PMARKB)
               4 00005ECC 00000001     V   36311 34045
 =V(PMARKB)
               4 00007128 00000001     V   41655 40202
 =V(PNUMA)
               4 00006954 00000001     V   39127 37750
 =V(PNUMA)
               4 00006AE8 00000001     V   39296 39180
 =V(PNUMB)
               4 00006920 00000001     V   39114 36479
 =V(PRESS)
               4 00001144 00000001     V   12897 11458
 =V(PRESS)
               4 00004AC8 00000001     V   30912 30279  30471  30651
 =V(PRESS)
               4 00007110 00000001     V   41649 39894
 =V(PRINTMSG)
               4 00003640 00000001     V   24328 23127
 =V(PRINTMSG)
               4 00004298 00000001     V   28593 24837
 =V(PRINTMSG)
               4 00006974 00000001     V   39135 38478
 =V(PTEMP)
               4 00005EC8 00000001     V   36310 33991
 =V(PTEMP)
               4 00007134 00000001     V   41658 40496  40654
 =V(PUNTEMP)
               4 00002D14 00000001     V   21125 21013
 =V(PUNTEMP)
               4 00005F70 00000001     V   36340 35600
 =V(RTRIM)
               4 000010BC 00000001     V   12869 10032  12105
1MAIL     (MAIL4072) (12:48) (15MAR04) Ordinary Symbol and Literal Cross Reference                                          Page  191
 =V(RTRIM)
               4 0000363C 00000001     V   24327 22956
 =V(RUNMSG)
               4 00003610 00000001     V   24318 21526
 =V(SCAN)      4 000005CC 00000001     V    9419  7448   7930   7968
 =V(SCAN)      4 00001124 00000001     V   12889 10648
 =V(SCAN)      4 00001864 00000001     V   15066 13310
 =V(SCAN)      4 00006970 00000001     V   39134 38454  38493  38525  38559
 =V(SCANCHK)
               4 00005404 00000001     V   32922 31086
 =V(SCANSTR)
               4 00001868 00000001     V   15067 13328  13512
 =V(SCINIT)
               4 000005C0 00000001     V    9416  7433   7909
 =V(SCINIT)
               4 0000360C 00000001     V   24317 21520  23117
 =V(SCINIT)
               4 00004294 00000001     V   28592 24788
 =V(SCINIT)
               4 00006958 00000001     V   39128 37777  38375
 =V(SCNEX)
               4 0000111C 00000001     V   12887 10604
 =V(SCSET)
               4 00001118 00000001     V   12886 10592  10631
 =V(SCSET)
               4 0000186C 00000001     V   15068 13350
 =V(SCTELL)
               4 00001108 00000001     V   12882 10393  10515
 =V(SCTELL)
               4 00001860 00000001     V   15065 13209
 =V(SEG)       4 00001130 00000001     V   12892 10821  10934  10951  10978  11060  11105  11161  11286  11307  11352
 =V(SEG)       4 00001880 00000001     V   15073 13705  13732  14212  14236  14253  14412  14436  14453  14831  14938
 =V(SEG)       4 00002244 00000001     V   18262 15584  15612  15630  15658  15844  15862  16487  16510  17011  17029
                                                 17065  17092  17265  17289  17306  17457  17481  17498  18090  18185
 =V(SEG)       4 00002C28 00000001     V   21086 18558  18876  18899  19058  19181  19268  19615  19813  20051  20398
                                                 20494  20521  20553  20589  20656  20696  20822  20904
 =V(SEG)       4 00003604 00000001     V   24315 21437  21455  21590  21733  21819  21904  21945  22031  22101  22159
                                                 22764  22785  22830  22918  22935  23004  23050  23080  23215  23357
                                                 23389  23431  23467  23508  23555  23595  23625  23669  23705  23746
                                                 23836  23943  23974
 =V(SEG)       4 00004274 00000001     V   28588 24664  24702  24723  24884  24992  25236  25278  25380  25636  25712
                                                 25769  25948  25985  26043  26078  26119  26152  26214  26270  26301
                                                 26342  26361  26430  26720  26745  26760  26790  26827  26867  26908
                                                 26941  27004  27045  27078  27260  27394  27575  27615  27805  27929
                                                 27960
 =V(SEG)       4 00004AA0 00000001     V   30904 28970  29016  29060  29097  29125  29164  29210  29327  29403  29472
                                                 29502  29541  29587  29654  29699  29756  29827  29855  29873  29901
                                                 29947  29975  30528  30546  30748
 =V(SEG)       4 00005418 00000001     V   32927 31368  31383  31428  31453  31468  31493  31525  31557  31589
 =V(SEG)       4 00005E98 00000001     V   36300 33272  33290  33318  33336  33580  33608  33626  33654  33672  33718
                                                 33766  33786  34205  34398  34831  34880  34918  34960  34978  35123
                                                 36183  36210
 =V(SEG)       4 00006940 00000001     V   39122 36868  36945  36993  37852  37891  38594  38857  38948  38984  39064
 =V(SEG)       4 00007120 00000001     V   41653 40145  40175  40243  40273  40970  41008  41034  41051  41080  41342
                                                 41416  41512  41581
 =V(SEGB)      4 00001134 00000001     V   12893 10839  10867  10885  11127  11179  11207  11225  11370
 =V(SEGB)      4 00007160 00000001     V   41667 41254  41320
 =V(SEGCLR)
               4 00001154 00000001     V   12901 11567
1MAIL     (MAIL4072) (12:48) (15MAR04) Ordinary Symbol and Literal Cross Reference                                          Page  192
 =V(SEGCLR)
               4 000018AC 00000001     V   15084 14395
 =V(SEGCLR)
               4 00002270 00000001     V   18273 17440
 =V(SEGCLR)
               4 00002CD0 00000001     V   21108 19407  19597  20380  20759
 =V(SEGCLR)
               4 00004A9C 00000001     V   30903 28947  30093
 =V(SEGCLR)
               4 00005F28 00000001     V   36324 34491
 =V(SEGCOL)
               4 000042CC 00000001     V   28604 26137  26926  27063
 =V(SEGCR)
               4 000005E4 00000001     V    9425  7598   7620
 =V(SEGCR)
               4 000010E4 00000001     V   12873 10239
 =V(SEGCR)
               4 0000225C 00000001     V   18268 16433
 =V(SEGCR)
               4 00002CEC 00000001     V   21115 19899
 =V(SEGCR)
               4 0000540C 00000001     V   32924 31167
 =V(SEGCR)
               4 00005EB0 00000001     V   36304 33512  34223  34420  34571  35004  35229  36002  36235
 =V(SEGCR)
               4 00006938 00000001     V   39120 36635  36653  37123  37559  37929  38026  38333  38612  38966  39002
 =V(SEGDC)
               4 00002CC8 00000001     V   21106 19203  19835  20678
 =V(SEGDC)
               4 0000695C 00000001     V   39129 37873
 =V(SEGDC)
               4 00007154 00000001     V   41664 40991
 =V(SEGINIT)
               4 0000112C 00000001     V   12891 10787
 =V(SEGINIT)
               4 000018A0 00000001     V   15081 14192  14288  14488
 =V(SEGINIT)
               4 00002268 00000001     V   18271 17245  17341  17533
 =V(SEGINIT)
               4 00003600 00000001     V   24314 21420  22731
 =V(SEGINIT)
               4 00004270 00000001     V   28587 24628
 =V(SEGINIT)
               4 00005410 00000001     V   32925 31271  31303
 =V(SEGINIT)
               4 00007140 00000001     V   41661 40949
 =V(SEGT)      4 0000113C 00000001     V   12895 11022  11088  11269  11335  11420
 =V(SEGT)      4 00002258 00000001     V   18267 16415  16555  17965  18038  18116  18150  18213
 =V(SEGT)      4 00002D04 00000001     V   21121 20617
 =V(SEGT)      4 00003608 00000001     V   24316 21483  21759  21845  21930  21971  22057  22127  22185  22813  23493
                                                 23540  23731  23803
 =V(SEGT)      4 00004290 00000001     V   28591 24751  25489  25535  25662  25738  25795  26104  26184  26327  26412
                                                 26893  27030  27147  27190  27303  27344  27420  27831
 =V(SEGT)      4 00004AA4 00000001     V   30905 28998  29192  29244  29355  29431  29569  29621  29727  29784  30791
 =V(SEGT)      4 00005EB4 00000001     V   36305 33700
 =V(SEGT)      4 00006944 00000001     V   39123 36975
 =V(SEGT)      4 00007188 00000001     V   41669 41444  41540
 =V(SEGTB)
               4 00002278 00000001     V   18275 17929
1MAIL     (MAIL4072) (12:48) (15MAR04) Ordinary Symbol and Literal Cross Reference                                          Page  193
 =V(SEGTB)
               4 00002D00 00000001     V   21120 20476
 =V(SEGTB)
               4 0000718C 00000001     V   41670 41478
 =V(SEGWR)
               4 00002240 00000001     V   18261 15462  15676  15885  17047  17110
 =V(SEGWR)
               4 00002C30 00000001     V   21088 18588  18957  19294  20081  20935
 =V(SEGWR)
               4 00003618 00000001     V   24320 21781  21867  21993  22079  22211  23413  23651  23862  24019  24045
 =V(SEGWR)
               4 000042A0 00000001     V   28595 24914  25022  25262  25556  25815  25907  26009  26240  26452  26554
                                                 26812  27704  27853  28005  28062  28078  28099
 =V(SEGWR)
               4 00004AD8 00000001     V   30916 30817
 =V(SEGWR)
               4 00005F2C 00000001     V   36325 34589
 =V(SEGWR)
               4 00006960 00000001     V   39130 38113
 =V(SEGWR)
               4 00007190 00000001     V   41671 41610
 =V(SENDMSG)
               4 00002D08 00000001     V   21122 20781
 =V(SLICECHK)
               4 00001878 00000001     V   15071 13660
 =V(TREADQ)
               4 00006968 00000001     V   39132 38241
 =V(UNPRESS)
               4 00003624 00000001     V   24323 22395  24230
 =V(UNPRESS)
               4 000042E0 00000001     V   28609 28289
 =V(UNPRESS)
               4 00004A94 00000001     V   30901 28851  30446
 =V(UNPRESS)
               4 00005F64 00000001     V   36337 35555
 =V(UNPRESS)
               4 0000692C 00000001     V   39117 36523  37273
 =V(UNPRESS)
               4 0000710C 00000001     V   41648 39493
 =V(WAITER)
               4 00002CAC 00000001     V   21099 18838
 =V(WAITER)
               4 00005F0C 00000001     V   36317 34248
 =V(XGETFRST)
               4 0000184C 00000001     V   15060 13046
 =V(XGETNEXT)
               4 00001850 00000001     V   15061 13065
 =V(XSETSET)
               4 00001848 00000001     V   15059 13004
 =V(ZDETRNG)
               4 000005D4 00000001     V    9421  7470
 =V(ZDETRNG)
               4 00001120 00000001     V   12888 10608
 =V(ZODSNM)
               4 000005C4 00000001     V    9417  7437
 =V(ZSNFIN)
               4 000005D0 00000001     V    9420  7452
 =X'15'        1 0000720A 00000001     X   41684 41569
 =Y((L'CPCMD+3)/4*4)
1MAIL     (MAIL4072) (12:48) (15MAR04) Ordinary Symbol and Literal Cross Reference                                          Page  194
               2 0000545A 00000001     Y   32944 31718
 =Y((L'CPSEG+1024+3)/4*4)
               2 0000190A 00000001     Y   15093 14318  14518
 =Y((L'CPSEG+1024+3)/4*4)
               2 000022BC 00000001     Y   18283 17371  17563
 =Y((L'CPSEG+1024+3)/4*4)
               2 0000545E 00000001     Y   32946 31724
 =Y((L'KWR+3)/4*4)
               2 000022B4 00000001     Y   18279 16135
 =Y((L'KWR+3)/4*4)
               2 00002D94 00000001     Y   21135 20304
 =Y((L'MWAFROMH+3)/4*4)
               2 000036A6 00000001     Y   24346 23806
 =Y((L'MWAFROMH+3)/4*4)
               2 000042EA 00000001     Y   28611 25492  26415
 =Y((L'SEGCB+3)/4*4)
               2 000011F0 00000001     Y   12920 11455
 =Y((L'SEGCB+3)/4*4)
               2 0000545C 00000001     Y   32945 31720
 =Y((R1+1-(R0)+16*((R0)/(R1+1))/((R0)/(R1+1)))*4)
               2 000018E6 00000001     Y   15089 13353  13708
 =Y((R1+1-(R0)+16*((R0)/(R1+1))/((R0)/(R1+1)))*4)
               2 000022B8 00000001     Y   18281 17068
 =Y((R1+1-(R0)+16*((R0)/(R1+1))/((R0)/(R1+1)))*4)
               2 00002D96 00000001     Y   21136 20497
 =Y((R1+1-(R0)+16*((R0)/(R1+1))/((R0)/(R1+1)))*4)
               2 00006988 00000001     Y   39141 37004
 =Y((R1+1-(R14)+16*((R14)/(R1+1))/((R14)/(R1+1)))*4)
               2 00001908 00000001     Y   15092 14291  14491
 =Y((R1+1-(R14)+16*((R14)/(R1+1))/((R14)/(R1+1)))*4)
               2 000022BA 00000001     Y   18282 17344  17536
 =Y((R1+1-(R14)+16*((R14)/(R1+1))/((R14)/(R1+1)))*4)
               2 00005452 00000001     Y   32942 31274
 =Y((R2+1-(R0)+16*((R0)/(R2+1))/((R0)/(R2+1)))*4)
               2 000069A2 00000001     Y   39150 38830
 =Y((R2+1-(R15)+16*((R15)/(R2+1))/((R15)/(R2+1)))*4)
               2 000069CC 00000001     Y   39153 39097
 =Y((R2+1-(R15)+16*((R15)/(R2+1))/((R15)/(R2+1)))*4)
               2 00006AF4 00000001     Y   39299 39186  39260
 =Y((R3+1-(R0)+16*((R0)/(R3+1))/((R0)/(R3+1)))*4)
               2 00004AF2 00000001     Y   30920 29993
 =Y((12+3)/4*4)
               2 00005450 00000001     Y   32941 31078
 =Y((32+3)/4*4)
               2 00001190 00000001     Y   12910  9852
 =Y((32+3)/4*4)
               2 000036A2 00000001     Y   24344 23392
 =Y((32+3)/4*4)
               2 000042F6 00000001     Y   28613 25988
 =Y((32+3)/4*4)
               2 00004ADE 00000001     Y   30918 29100
 =Y((64+3)/4*4)
               2 00005FB4 00000001     Y   36347 33769
 =Y(4)         2 00000614 00000001     Y    9437  8559
 =Y(4)         2 00002DA2 00000001     Y   21140 20763
 =Y(4)         2 00004ADC 00000001     Y   30917 28859  30096  30122
 =Y(4)         2 00005FF6 00000001     Y   36356 35563
 =Y(4)         2 0000698E 00000001     Y   39144 37718  38833  39100
 =Y(4)         2 00006AF6 00000001     Y   39300 39189  39263
1MAIL     (MAIL4072) (12:48) (15MAR04) Ordinary Symbol and Literal Cross Reference                                          Page  195

1MAIL     (MAIL4072) (12:48) (15MAR04) Macro and Copy Code Source Summary                                                   Page  196
- Con Source                                        Volume    Members                        HLASM R4.0  2004/03/15 12.48
0     PRIMARY INPUT                                           CSECT    DROP     END      EX       LTORG    POP
                                                              PRINT    PUSH     START    USING
   L1 WYL.GS.WYL.WYLBUR.MACLIB                      SYSB05    ABORT    AINFO    BASE     BTD      COLINFO  COMMENT
                                                              CONTROL  CP       CPLOCAL  CV       CVLOCAL  DOPEN
                                                              DSCRATCH ERROR    FAIL     GENTER   JCB      KAPUT
                                                              KREAD    KWRITE   LENTER   LEXIT    OSCAN    OSCBACK
                                                              OSCINIT  OSCKW    OSCSET   OSCTELL  PFLIP    PFREE    PGET
                                                              PJUNK    PMARK    PNUM     RG       RTNCODES SCAN
                                                              SCANCB   SCANCHK  SCCBADR  SCKW     SCPOP    SCPUSH
                                                              SCUPTOK  SEGINIT  SYSDSNS  TCCR     TCLEAR   TCR      TNUM
                                                              TPOP     TPUSH    TREAD    TSEG     TTYPE    TWRITE
                                                              VLTORG   XENTER   XEXIT    XSA      XTRACE
   L2 WYL.GG.SYS.MACLIB                             SYSB05    $BC      $BFLKUP  $BV      $CCLKUP  $CRS     $CSS     $L
                                                              $LA      $LBLAD   $LEXP    $LOR     $REL     $RGLKUP
                                                              $USLKUP  ACALL    BEGIN    CEIL     CLEAR    CMPR
                                                              COMPROC  CSECT    DATA     DECR     DEFCC    DROP     DTEX
                                                              ELSE     ELSEIF   END      EX       EXIT     FLAG     FLIP
                                                              GEN      HIBAL    IDENT    IF       INCR     LABEL    LC
                                                              LCM      LOOP     LS       LT       LTH      LTORG    L2
                                                              MOVE     MOVEL    PEND     POP      PRETURN  PRINT    PROC
                                                              PUSH     QLTORG   RECORD   REG      REGS     SET
                                                              SETMSG   START    USING    VCALL    WHILE    WITH
                                                              XPROC
   L3 SYS3.IS.MACLIB                                SYSB05    KWR      SEG      SEGB     SEGCB    SEGCLR   SEGCOL
                                                              SEGCR    SEGDC    SEGDEF   SEGLD    SEGT     SEGWR    SIB
                                                              SIN      SYSDEFN  XPOP     XPUSH
   L4 SYS3.MACLIB                                   SYSB02    UTYPDEFN
   L5 SYS1.MACLIB                                   MVSBR9    FREEMAIN GETMAIN  SYSSTATE

1MAIL     (MAIL4072) (12:48) (15MAR04) Dsect Cross Reference                                                                Page  197
-Dsect     Length      Id       Defn                                                         HLASM R4.0  2004/03/15 12.48
0$$$@R0   00000000  FFFFFFFE     718
 $$$@R1   00000000  FFFFFFFD     731
 $$$@R10  00000000  FFFFFFF4     848
 $$$@R11  00000000  FFFFFFF3     861
 $$$@R12  00000000  FFFFFFF2     874
 $$$@R13  00000000  FFFFFFF1     887
 $$$@R14  00000000  FFFFFFF0     900
 $$$@R15  00000000  FFFFFFEF     913
 $$$@R2   00000000  FFFFFFFC     744
 $$$@R3   00000000  FFFFFFFB     757
 $$$@R4   00000000  FFFFFFFA     770
 $$$@R5   00000000  FFFFFFF9     783
 $$$@R6   00000000  FFFFFFF8     796
 $$$@R7   00000000  FFFFFFF7     809
 $$$@R8   00000000  FFFFFFF6     822
 $$$@R9   00000000  FFFFFFF5     835
 $$$RADDIWA
          0000000C  FFFFFFDE   13573
 $$$RALIASWA
          00000050  FFFFFFE2    8703
 $$$RBUFRDIR
          00000004  FFFFFFD1   40330
 $$$RBUFXWA
          00000120  FFFFFFD0   40351
 $$$RCHKAIWA
          00000080  FFFFFFDB   17674
 $$$RCP   00001000  FFFFFFEC    2470
 $$$RCV   00000FB0  FFFFFFEE    1195
 $$$RDEV  0000000C  FFFFFFEB    4684
 $$$RDISTWA
          00000244  FFFFFFDD   13986
 $$$RHAIL 00000005  FFFFFFE5    7076
 $$$RHOST 000000F1  FFFFFFE4    7103
 $$$RHOSTCWA
          00000060  FFFFFFE1    8974
 $$$RJCB  000000D0  FFFFFFE7    6681
 $$$RKWR  000001F8  FFFFFFE9    6393
 $$$RLOCEMWA
          00000008  FFFFFFDC   15120
 $$$RMAILWA
          0000069E  FFFFFFDF    9547
 $$$RMID  00000231  FFFFFFE0    9450
 $$$RMLOGWA
          0000013C  FFFFFFCF   40769
 $$$RNSCNCB
          000000B0  FFFFFFED    2391
 $$$RPRTNWA
          00000001  FFFFFFD2   39315
 $$$RSBATWA
          00000140  FFFFFFD9   21168
 $$$RSBITWA
          00000140  FFFFFFD8   22479
 $$$RSDIRWA
          0000020C  FFFFFFD5   28647
 $$$RSEGCB
1MAIL     (MAIL4072) (12:48) (15MAR04) Dsect Cross Reference                                                                Page  198
          0000003C  FFFFFFE6    6961
 $$$RSENDWA
          00000008  FFFFFFDA   18309
 $$$RSGTEHWA
          00000023  FFFFFFD6   25079
 $$$RSGTEWA
          00000080  FFFFFFD7   24376
 $$$RSHMWA
          00000471  FFFFFFD4   32965
 $$$RSHOSTWA
          00000200  FFFFFFE3    7180
 $$$RSIN  000000E0  FFFFFFE8    6604
 $$$RSMIWA
          0000002C  FFFFFFD3   36382
 $$$RTTYPE
          0000010C  FFFFFFEA    6215
 HIBAL    00000000  FFFFFFFF     704

1MAIL     (MAIL4072) (12:48) (15MAR04) Using Map                                                                            Page  199
-                                                                                            HLASM R4.0  2004/03/15 12.48
   Stmt  -----Location----- Action ----------------Using----------------- Reg Max    Last  Label and Using Text
           Count      Id           Type          Value    Range     Id        Disp   Stmt
0   935  00000000  FFFFFFFF USING  ORDINARY    00000000 00001000 FFFFFFEF  15 000          @R15,15
    939  00000000  FFFFFFFF USING  ORDINARY    00000000 00001000 FFFFFFF0  14 024   31276  @R14,14
    943  00000000  FFFFFFFF USING  ORDINARY    00000000 00001000 FFFFFFF1  13 000   41137  @R13,13
    947  00000000  FFFFFFFF USING  ORDINARY    00000000 00001000 FFFFFFF2  12 000          @R12,12
    951  00000000  FFFFFFFF USING  ORDINARY    00000000 00001000 FFFFFFF3  11 000          @R11,11
    955  00000000  FFFFFFFF USING  ORDINARY    00000000 00001000 FFFFFFF4  10 000   40198  @R10,10
    959  00000000  FFFFFFFF USING  ORDINARY    00000000 00001000 FFFFFFF5   9 002   40676  @R9,9
    963  00000000  FFFFFFFF USING  ORDINARY    00000000 00001000 FFFFFFF6   8 000          @R8,8
    967  00000000  FFFFFFFF USING  ORDINARY    00000000 00001000 FFFFFFF7   7 000          @R7,7
    971  00000000  FFFFFFFF USING  ORDINARY    00000000 00001000 FFFFFFF8   6 000          @R6,6
    975  00000000  FFFFFFFF USING  ORDINARY    00000000 00001000 FFFFFFF9   5 000          @R5,5
    979  00000000  FFFFFFFF USING  ORDINARY    00000000 00001000 FFFFFFFA   4 000   15005  @R4,4
    983  00000000  FFFFFFFF USING  ORDINARY    00000000 00001000 FFFFFFFB   3 000          @R3,3
    987  00000000  FFFFFFFF USING  ORDINARY    00000000 00001000 FFFFFFFC   2 006    9270  @R2,2
    991  00000000  FFFFFFFF USING  ORDINARY    00000000 00001000 FFFFFFFD   1 005   28832  @R1,1
    995  00000000  FFFFFFFF USING  ORDINARY    00000000 00001000 FFFFFFFE   0 000          @R0,0
    996  00000000  FFFFFFFF DROP                                            0              0
   1179  00000017  00000001 USING  ORDINARY    00000000 00001000 FFFFFFEC  11 F96   41607  CP,CPR
   1188  00000017  00000001 USING  ORDINARY    00000000 00001000 FFFFFFEE  12 8A8   41142  CV,CVR
   7235  00000026  00000001 USING  ORDINARY    00000026 00001000 00000001   7 5FF    7756  $$$50B,R7
   7307  00000046  00000001 USING  ORDINARY    00000000 00001000 FFFFFFE3   6 100    7696  SHOSTWA,R6
   7659  00000140  00000001 USING  ORDINARY    00000000 00001000 FFFFFFE4   5 000    7671  HOST,R5
   7687  00000160  00000001 USING  ORDINARY    00000000 00001000 FFFFFFF9   5 000          @R5,5
   7725  00000174  00000001 USING  ORDINARY    00000000 00001000 FFFFFFE5   5 000    7737  HAIL,R5
   7753  00000194  00000001 USING  ORDINARY    00000000 00001000 FFFFFFF9   5 000          @R5,5
   7766  0000019C  00000001 USING  ORDINARY    00000000 00001000 FFFFFFF8   6 000          @R6,6
   7772  0000019C  00000001 USING  ORDINARY    00000000 00001000 FFFFFFF7   7 000          @R7,7
   7801  000001BA  00000001 USING  ORDINARY    000001BA 00001000 00000001   7 4A0    8621  $$$68B,BR
   7811  000001BE  00000001 USING  ORDINARY    00000000 00001000 FFFFFFE3   6 115    8620  SHOSTWA,R6
   7822  000001C2  00000001 USING  ORDINARY    00000000 00001000 FFFFFFE4   5 0A1    8544  HOST,R5
   8011  00000248  00000001 USING  ORDINARY    00000000 00001000 FFFFFFE5   3 005    8112  HAIL,R3
   8034  00000252  00000001 USING  ORDINARY    00000000 00001000 FFFFFFE5  15 000    8040  HAIL,R15
   8047  00000256  00000001 USING  ORDINARY    00000000 00001000 FFFFFFEF  15 003    8419  @R15,15
   8179  000002A2  00000001 USING  ORDINARY    00000000 00001000 FFFFFFFB   3 000          @R3,3
   8605  000003B6  00000001 USING  ORDINARY    00000000 00001000 FFFFFFE4  15 000    8611  HOST,R15
   8618  000003BA  00000001 USING  ORDINARY    00000000 00001000 FFFFFFEF  15 000          @R15,15
   8643  000003D2  00000001 USING  ORDINARY    00000000 00001000 FFFFFFF9   5 000    8911  @R5,5
   8650  000003D2  00000001 USING  ORDINARY    00000000 00001000 FFFFFFF8   6 000          @R6,6
   8656  000003D2  00000001 USING  ORDINARY    00000000 00001000 FFFFFFF7   7 000          @R7,7
   8752  00000470  00000001 USING  ORDINARY    00000470 00001000 00000001   7 1F6    8937  $$$104B,7
   8766  00000470  00000001 USING  ORDINARY    FFFFFFD8 00001000 FFFFFFE2   8 028    8870  ALIASWA-(4+36),R8
   8791  00000476  00000001 USING  ORDINARY    00000000 00001000 FFFFFFE5   6 006    8876  HAIL,R6
   8814  00000480  00000001 DROP                                           15              15
   8818  00000486  00000001 USING  ORDINARY    00000000 00001000 FFFFFFEF  15 000          @R15,15
   8880  000004AC  00000001 DROP                                           15              15
   8884  000004B2  00000001 USING  ORDINARY    00000000 00001000 FFFFFFEF  15 000    9069  @R15,15
   8934  000004C6  00000001 USING  ORDINARY    00000000 00001000 FFFFFFF8   6 000          @R6,6
   8952  000004CC  00000001 USING  ORDINARY    00000000 00001000 FFFFFFF6   8 000          @R8,8
   8957  000004CC  00000001 USING  ORDINARY    00000000 00001000 FFFFFFF7   7 000          @R7,7
   9041  000004F4  00000001 USING  ORDINARY    000004F4 00001000 00000001   7 178    9376  $$$117B,7
   9055  000004F4  00000001 USING  ORDINARY    FFFFFFD8 00001000 FFFFFFE1   8 038    9379  HOSTCWA-(4+36),R8
   9112  00000526  00000001 USING  ORDINARY    00000000 00001000 FFFFFFE4   6 007    9352  HOST,R6
   9373  000005A0  00000001 USING  ORDINARY    00000000 00001000 FFFFFFF8   6 000          @R6,6
1MAIL     (MAIL4072) (12:48) (15MAR04) Using Map                                                                            Page  200
   9388  000005A8  00000001 USING  ORDINARY    00000000 00001000 FFFFFFF6   8 000          @R8,8
   9393  000005A8  00000001 USING  ORDINARY    00000000 00001000 FFFFFFF7   7 000          @R7,7
   9702  00000684  00000001 USING  ORDINARY    00000684 00001000 00000001   7 C46   12754  $$$134B,R7
   9712  00000686  00000001 USING  ORDINARY    00000000 00001000 FFFFFFDF   6 626   28286  MAILWA,R6
   9882  00000760  00000001 USING  ORDINARY    00000000 00001000 FFFFFFE7   3 038    9887  JCB,R3
   9897  00000764  00000001 USING  ORDINARY    00000000 00001000 FFFFFFE8   2 052    9919  SIN,R2
   9960  00000796  00000001 USING  ORDINARY    00000000 00001000 FFFFFFFC   2 000          @R2,2
   9968  00000796  00000001 USING  ORDINARY    00000000 00001000 FFFFFFFB   3 001   23056  @R3,3
  10755  000009E6  00000001 USING  ORDINARY    00000000 00001000 FFFFFFE6   5 00C   11444  SEGCB,R5
  11451  00000BA8  00000001 USING  ORDINARY    00000000 00001000 FFFFFFF9   5 000          @R5,5
  11625  00000C34  00000001 USING  ORDINARY    00000000 00001000 FFFFFFE0   5 004   11736  MID,R5
  11675  00000C46  00000001 USING  ORDINARY    00000000 00001000 FFFFFFE0  15 0F6   11720  MID,R15
  11726  00000C5E  00000001 USING  ORDINARY    00000000 00001000 FFFFFFEF  15 000          @R15,15
  11742  00000C66  00000001 USING  ORDINARY    00000000 00001000 FFFFFFF9   5 000          @R5,5
  11776  00000C74  00000001 USING  ORDINARY    00000000 00001000 FFFFFFE0   5 004   11806  MID,R5
  11812  00000C8A  00000001 USING  ORDINARY    00000000 00001000 FFFFFFF9   5 000          @R5,5
  12843  00001000  00000001 USING  ORDINARY    00000000 00001000 FFFFFFF7   7 000          @R7,7
  12981  000012EA  00000001 USING  ORDINARY    000012EA 00001000 00000001   7 572   13127  $$$239B,7
  13136  00001348  00000001 USING  ORDINARY    00000000 00001000 FFFFFFF7   7 000          @R7,7
  13197  00001370  00000001 USING  ORDINARY    00001370 00001000 00000001   7 59C   13374  $$$247B,7
  13391  000013EC  00000001 USING  ORDINARY    00000000 00001000 FFFFFFF7   7 000          @R7,7
  13443  00001414  00000001 USING  ORDINARY    00001414 00001000 00000001   7 4D4   13542  $$$257B,7
  13556  00001472  00000001 USING  ORDINARY    00000000 00001000 FFFFFFF7   7 000          @R7,7
  13631  0000149A  00000001 USING  ORDINARY    0000149A 00001000 00000001   7 475   13907  $$$263B,7
  13645  0000149A  00000001 USING  ORDINARY    FFFFFFD8 00001000 FFFFFFDE   8 030   13952  ADDIWA-(4+36),R8
  13763  00001508  00000001 USING  ORDINARY    00000000 00001000 FFFFFFE0   5 200   13917  MID,R5
  13935  00001582  00000001 USING  ORDINARY    00000000 00001000 FFFFFFE0  15 000   13941  MID,R15
  13948  00001586  00000001 USING  ORDINARY    00000000 00001000 FFFFFFEF  15 001   28765  @R15,15
  13959  00001590  00000001 USING  ORDINARY    00000000 00001000 FFFFFFF9   5 000          @R5,5
  13964  00001590  00000001 USING  ORDINARY    00000000 00001000 FFFFFFF6   8 000          @R8,8
  13969  00001590  00000001 USING  ORDINARY    00000000 00001000 FFFFFFF7   7 000          @R7,7
  14137  000015B8  00000001 USING  ORDINARY    000015B8 00001000 00000001   7 38A   14571  $$$280B,7
  14151  000015B8  00000001 USING  ORDINARY    FFFFFFD8 00001000 FFFFFFDD   8 16C   14508  DISTWA-(4+36),R8
  14589  00001730  00000001 USING  ORDINARY    00000000 00001000 FFFFFFF6   8 000          @R8,8
  14594  00001730  00000001 USING  ORDINARY    00000000 00001000 FFFFFFF7   7 000          @R7,7
  14651  00001758  00000001 USING  ORDINARY    00001758 00001000 00000001   7 264   14998  $$$287B,7
  14670  0000175A  00000001 USING  ORDINARY    00000000 00001000 FFFFFFE0   5 146   15021  MID,R5
  15033  0000183A  00000001 USING  ORDINARY    00000000 00001000 FFFFFFF9   5 000          @R5,5
  15038  0000183A  00000001 USING  ORDINARY    00000000 00001000 FFFFFFF7   7 000          @R7,7
  15169  000019DC  00000001 USING  ORDINARY    000019DC 00001000 00000001   7 9DC   16135  $$$305B,7
  15183  000019DC  00000001 USING  ORDINARY    FFFFFFD8 00001000 FFFFFFDC   8 028   15392  LOCEMWA-(4+36),R8
  15197  000019DE  00000001 USING  ORDINARY    00000000 00001000 FFFFFFE0   5 22F   16098  MID,R5
  15310  00001A2A  00000001 USING  ORDINARY    00000000 00001000 FFFFFFE9   4 102   16133  KWR,R4
  15974  00001C4A  00000001 DROP                                            2              2
  15978  00001C50  00000001 USING  ORDINARY    00000000 00001000 FFFFFFFC   2 002   21019  @R2,2
  16149  00001CAC  00000001 USING  ORDINARY    00000000 00001000 FFFFFFFA   4 000          @R4,4
  16154  00001CAC  00000001 USING  ORDINARY    00000000 00001000 FFFFFFF9   5 000          @R5,5
  16159  00001CAC  00000001 USING  ORDINARY    00000000 00001000 FFFFFFF6   8 000          @R8,8
  16164  00001CAC  00000001 USING  ORDINARY    00000000 00001000 FFFFFFF7   7 000          @R7,7
  16220  00001CD4  00000001 USING  ORDINARY    00001CD4 00001000 00000001   7 6E8   16830  $$$337B,7
  16239  00001CD6  00000001 USING  ORDINARY    00000000 00001000 FFFFFFE0   5 22C   16754  MID,R5
  16452  00001D66  00000001 USING  ORDINARY    00000000 00001000 FFFFFFE4   4 0A1   16740  HOST,R4
  16842  00001E50  00000001 USING  ORDINARY    00000000 00001000 FFFFFFFA   4 000          @R4,4
  16858  00001E52  00000001 USING  ORDINARY    00000000 00001000 FFFFFFF9   5 000          @R5,5
  16863  00001E52  00000001 USING  ORDINARY    00000000 00001000 FFFFFFF7   7 000          @R7,7
  16922  00001E7A  00000001 USING  ORDINARY    00001E7A 00001000 00000001   7 4D8   17113  $$$360B,7
  17134  00001F10  00000001 USING  ORDINARY    00000000 00001000 FFFFFFF7   7 000          @R7,7
  17198  00001F38  00000001 USING  ORDINARY    00001F38 00001000 00000001   7 45F   17628  $$$366B,7
  17212  00001F38  00000001 USING  ORDINARY    FFFFFFD8 00001000 FFFFFFDD   8 16C   17553  DISTWA-(4+36),R8
1MAIL     (MAIL4072) (12:48) (15MAR04) Using Map                                                                            Page  201
  17638  000020AA  00000001 USING  ORDINARY    00000000 00001000 FFFFFFF6   8 000          @R8,8
  17643  000020AA  00000001 USING  ORDINARY    00000000 00001000 FFFFFFF7   7 000          @R7,7
  17723  000020D2  00000001 USING  ORDINARY    000020D2 00001000 00000001   7 1A2   17746  $$$373B,7
  17737  000020D2  00000001 USING  ORDINARY    FFFFFFD8 00001000 FFFFFFDB   8 028   17743  CHKAIWA-(4+36),R8
  17756  000020DC  00000001 USING  ORDINARY    00000000 00001000 FFFFFFF6   8 000          @R8,8
  17761  000020DC  00000001 USING  ORDINARY    00000000 00001000 FFFFFFF7   7 000          @R7,7
  17813  00002104  00000001 USING  ORDINARY    00002104 00001000 00000001   7 2B2   18213  $$$376B,7
  17832  00002106  00000001 USING  ORDINARY    00000000 00001000 FFFFFFE0   5 1DC   18197  MID,R5
  18225  000021E0  00000001 USING  ORDINARY    00000000 00001000 FFFFFFF9   5 000          @R5,5
  18230  000021E0  00000001 USING  ORDINARY    00000000 00001000 FFFFFFF7   7 000          @R7,7
  18377  000023DC  00000001 USING  ORDINARY    000023DC 00001000 00000001   7 A60   21023  $$$384B,7
  18391  000023DC  00000001 USING  ORDINARY    FFFFFFD8 00001000 FFFFFFDA   8 02C   21037  SENDWA-(4+36),R8
  18413  000023E4  00000001 USING  ORDINARY    00000000 00001000 FFFFFFE0   5 22F   20824  MID,R5
  20128  00002916  00000001 USING  ORDINARY    00000000 00001000 FFFFFFE9   4 1F4   20302  KWR,R4
  20311  0000299A  00000001 USING  ORDINARY    00000000 00001000 FFFFFFFA   4 002   30010  @R4,4
  21044  00002BA0  00000001 USING  ORDINARY    00000000 00001000 FFFFFFF9   5 000          @R5,5
  21049  00002BA0  00000001 USING  ORDINARY    00000000 00001000 FFFFFFF6   8 000          @R8,8
  21054  00002BA0  00000001 USING  ORDINARY    00000000 00001000 FFFFFFF7   7 000          @R7,7
  21316  00002E5C  00000001 USING  ORDINARY    00002E5C 00001000 00000001   7 862   21595  $$$466B,7
  21330  00002E5C  00000001 USING  ORDINARY    FFFFFFD8 00001000 FFFFFFD9   8 068   21538  SBATWA-(4+36),R8
  21349  00002E62  00000001 USING  ORDINARY    00000000 00001000 FFFFFFE0   5 1B9   21592  MID,R5
  21607  00002F1E  00000001 USING  ORDINARY    00000000 00001000 FFFFFFF9   5 000          @R5,5
  21612  00002F1E  00000001 USING  ORDINARY    00000000 00001000 FFFFFFF6   8 000          @R8,8
  21617  00002F1E  00000001 USING  ORDINARY    00000000 00001000 FFFFFFF7   7 000          @R7,7
  21669  00002F46  00000001 USING  ORDINARY    00002F46 00001000 00000001   7 786   22211  $$$472B,7
  21694  00002F4E  00000001 USING  ORDINARY    00000000 00001000 FFFFFFE0   5 0A6   22171  MID,R5
  22220  00003092  00000001 USING  ORDINARY    00000000 00001000 FFFFFFF9   5 000          @R5,5
  22225  00003092  00000001 USING  ORDINARY    00000000 00001000 FFFFFFF7   7 000          @R7,7
  22278  000030BA  00000001 USING  ORDINARY    000030BA 00001000 00000001   7 5DA   22427  $$$480B,7
  22384  00003108  00000001 DROP                                            2              2
  22388  0000310E  00000001 USING  ORDINARY    00000000 00001000 FFFFFFFC   2 001   23912  @R2,2
  22454  00003140  00000001 USING  ORDINARY    00000000 00001000 FFFFFFF7   7 000          @R7,7
  22627  00003168  00000001 USING  ORDINARY    00003168 00001000 00000001   7 581   23220  $$$496B,7
  22641  00003168  00000001 USING  ORDINARY    FFFFFFD8 00001000 FFFFFFD8   8 068   23139  SBITWA-(4+36),R8
  22660  0000316E  00000001 USING  ORDINARY    00000000 00001000 FFFFFFE0   5 146   23217  MID,R5
  23228  000032F2  00000001 USING  ORDINARY    00000000 00001000 FFFFFFF9   5 000          @R5,5
  23233  000032F2  00000001 USING  ORDINARY    00000000 00001000 FFFFFFF6   8 000          @R8,8
  23238  000032F2  00000001 USING  ORDINARY    00000000 00001000 FFFFFFF7   7 000          @R7,7
  23290  0000331A  00000001 USING  ORDINARY    0000331A 00001000 00000001   7 3E4   24045  $$$508B,7
  23315  00003322  00000001 USING  ORDINARY    00000000 00001000 FFFFFFE0   5 146   23565  MID,R5
  24055  0000352A  00000001 USING  ORDINARY    00000000 00001000 FFFFFFF9   5 000          @R5,5
  24060  0000352A  00000001 USING  ORDINARY    00000000 00001000 FFFFFFF7   7 000          @R7,7
  24113  00003552  00000001 USING  ORDINARY    00003552 00001000 00000001   7 142   24262  $$$523B,7
  24219  000035A0  00000001 DROP                                            2              2
  24223  000035A6  00000001 USING  ORDINARY    00000000 00001000 FFFFFFFC   2 001   27898  @R2,2
  24289  000035D8  00000001 USING  ORDINARY    00000000 00001000 FFFFFFF7   7 000          @R7,7
  24524  0000371A  00000001 USING  ORDINARY    0000371A 00001000 00000001   7 C01   25031  $$$539B,7
  24538  0000371A  00000001 USING  ORDINARY    FFFFFFD8 00001000 FFFFFFD7   8 068   24849  SGTEWA-(4+36),R8
  24557  00003720  00000001 USING  ORDINARY    00000000 00001000 FFFFFFE0   5 196   24994  MID,R5
  25044  00003866  00000001 USING  ORDINARY    00000000 00001000 FFFFFFF9   5 000          @R5,5
  25049  00003866  00000001 USING  ORDINARY    00000000 00001000 FFFFFFF6   8 000          @R8,8
  25054  00003866  00000001 USING  ORDINARY    00000000 00001000 FFFFFFF7   7 000          @R7,7
  25140  0000388E  00000001 USING  ORDINARY    0000388E 00001000 00000001   7 AEB   28099  $$$552B,7
  25154  0000388E  00000001 USING  ORDINARY    FFFFFFD8 00001000 FFFFFFD6   8 033   27752  SGTEHWA-(4+36),R8
  25173  00003896  00000001 USING  ORDINARY    00000000 00001000 FFFFFFE0   5 1B9   27786  MID,R5
  28109  00003FF8  00000001 USING  ORDINARY    00000000 00001000 FFFFFFF9   5 000          @R5,5
  28114  00003FF8  00000001 USING  ORDINARY    00000000 00001000 FFFFFFF6   8 000          @R8,8
  28119  00003FF8  00000001 USING  ORDINARY    00000000 00001000 FFFFFFF7   7 000          @R7,7
  28174  00004020  00000001 USING  ORDINARY    00004020 00001000 00000001   7 2F4   28321  $$$628B,7
1MAIL     (MAIL4072) (12:48) (15MAR04) Using Map                                                                            Page  202
  28198  00004028  00000001 USING  ORDINARY    00000000 00001000 FFFFFFE0   5 000          MID,R5
  28278  0000406E  00000001 DROP                                            2              2
  28282  00004074  00000001 USING  ORDINARY    00000000 00001000 FFFFFFFC   2 002   38789  @R2,2
  28348  000040A6  00000001 USING  ORDINARY    00000000 00001000 FFFFFFF9   5 000          @R5,5
  28353  000040A6  00000001 USING  ORDINARY    00000000 00001000 FFFFFFF7   7 000          @R7,7
  28373  000040B4  00000001 USING  ORDINARY    00000000 00001000 FFFFFFF8   6 000          @R6,6
  28418  000040CE  00000001 USING  ORDINARY    000040CE 00001000 00000001   7 01E   28443  $$$635B,7
  28437  000040D2  00000001 USING  ORDINARY    00000000 00001000 FFFFFFDF   6 3C1   28443  MAILWA,R6
  28450  000040DE  00000001 USING  ORDINARY    00000000 00001000 FFFFFFF8   6 000          @R6,6
  28458  000040DE  00000001 USING  ORDINARY    00000000 00001000 FFFFFFF7   7 000          @R7,7
  28522  00004206  00000001 USING  ORDINARY    00004206 00001000 00000001   7 000          $$$638B,7
  28561  00004206  00000001 USING  ORDINARY    00000000 00001000 FFFFFFF7   7 000          @R7,7
  28701  000043B0  00000001 USING  ORDINARY    000043B0 00001000 00000001   7 7AA   30122  $$$640B,BR
  28710  000043B0  00000001 USING  ORDINARY    00000000 00001000 FFFFFFD5   8 021   28891  SDIRWA,WAR
  28721  000043B4  00000001 USING  ORDINARY    00000000 00001000 FFFFFFDF   6 5D8   30113  MAILWA,R6
  28731  000043B6  00000001 USING  ORDINARY    00000000 00001000 FFFFFFD1   5 004   28756  BUFRDIR,R5
  28800  000043F2  00000001 DROP                                           15              15
  28804  000043F8  00000001 USING  ORDINARY    00000000 00001000 FFFFFFEF  15 001   28805  @R15,15
  28863  0000442E  00000001 DROP                                           15              15
  28867  00004434  00000001 USING  ORDINARY    00000000 00001000 FFFFFFEF  15 001   28868  @R15,15
  28931  0000446E  00000001 USING  ORDINARY    00000000 00001000 FFFFFFE0   3 1B9   29415  MID,R3
  30000  0000477E  00000001 USING  ORDINARY    00000000 00001000 FFFFFFFB   3 000          @R3,3
  30132  000047F6  00000001 USING  ORDINARY    00000000 00001000 FFFFFFF9   5 008   30678  @R5,5
  30139  000047F6  00000001 USING  ORDINARY    00000000 00001000 FFFFFFF8   6 000          @R6,6
  30146  000047F6  00000001 USING  ORDINARY    00000000 00001000 FFFFFFF6   8 000          @R8,8
  30152  000047F6  00000001 USING  ORDINARY    00000000 00001000 FFFFFFF7   7 000          @R7,7
  30179  00004810  00000001 USING  ORDINARY    00004810 00001000 00000001   7 2E6   30200  $$$666B,BR
  30189  00004814  00000001 USING  ORDINARY    00000000 00001000 FFFFFFDF   6 530   30193  MAILWA,R6
  30216  00004846  00000001 USING  ORDINARY    00000000 00001000 FFFFFFF8   6 000          @R6,6
  30222  00004846  00000001 USING  ORDINARY    00000000 00001000 FFFFFFF7   7 000          @R7,7
  30265  00004860  00000001 USING  ORDINARY    00004860 00001000 00000001   7 298   30555  $$$668B,7
  30293  00004870  00000001 USING  ORDINARY    00000000 00001000 FFFFFFDF   6 5E2   30496  MAILWA,R6
  30320  0000487A  00000001 DROP                                           15              15
  30324  00004880  00000001 USING  ORDINARY    00000000 00001000 FFFFFFEF  15 000          @R15,15
  30487  000048F8  00000001 DROP                                            1              1
  30491  000048FE  00000001 USING  ORDINARY    00000000 00001000 FFFFFFFD   1 005   30492  @R1,1
  30577  0000494E  00000001 USING  ORDINARY    00000000 00001000 FFFFFFF8   6 000          @R6,6
  30582  0000494E  00000001 USING  ORDINARY    00000000 00001000 FFFFFFF7   7 000          @R7,7
  30637  00004976  00000001 USING  ORDINARY    00004976 00001000 00000001   7 1CB   30844  $$$681B,7
  30663  00004986  00000001 USING  ORDINARY    00000000 00001000 FFFFFFDF   6 622   30851  MAILWA,R6
  30675  00004998  00000001 DROP                                            1              1
  30679  0000499E  00000001 USING  ORDINARY    00000000 00001000 FFFFFFFD   1 00B   39611  @R1,1
  30760  000049DE  00000001 USING  ORDINARY    00000000 00001000 FFFFFFE0   3 0F6   30775  MID,R3
  30799  000049F0  00000001 USING  ORDINARY    00000000 00001000 FFFFFFFB   3 002   39684  @R3,3
  30864  00004A1E  00000001 USING  ORDINARY    00000000 00001000 FFFFFFF7   7 000          @R7,7
  30884  00004A2C  00000001 USING  ORDINARY    00000000 00001000 FFFFFFF8   6 000          @R6,6
  30979  00004B7A  00000001 USING  ORDINARY    00004B7A 00001000 00000001   7 931   31742  $$$687B,7
  30993  00004B7A  00000001 USING  ORDINARY    FFFFFFD8 00001000 FFFFFFE9   8 128   31752  KWR-(4+36),R8
  31672  00004DB8  00000001 USING  ORDINARY    00000000 00001000 FFFFFFE6   4 00E   31678  SEGCB,R4
  31685  00004DBE  00000001 USING  ORDINARY    00000000 00001000 FFFFFFFA   4 004   40657  @R4,4
  31760  00004E1A  00000001 USING  ORDINARY    00000000 00001000 FFFFFFF6   8 000          @R8,8
  31765  00004E1A  00000001 USING  ORDINARY    00000000 00001000 FFFFFFF7   7 000          @R7,7
  32111  00005162  00000001 USING  ORDINARY    00005162 00001000 00000001   7 2CA   32126  $$$706B,7
  32139  0000517E  00000001 USING  ORDINARY    00000000 00001000 FFFFFFF7   7 000          @R7,7
  32184  000051A6  00000001 USING  ORDINARY    000051A6 00001000 00000001   7 28A   32193  $$$709B,7
  32202  000051AE  00000001 USING  ORDINARY    00000000 00001000 FFFFFFF7   7 000          @R7,7
  32247  000051D6  00000001 USING  ORDINARY    000051D6 00001000 00000001   7 256   32256  $$$712B,7
  32265  000051DE  00000001 USING  ORDINARY    00000000 00001000 FFFFFFF7   7 000          @R7,7
  32310  00005206  00000001 USING  ORDINARY    00005206 00001000 00000001   7 22E   32319  $$$715B,7
1MAIL     (MAIL4072) (12:48) (15MAR04) Using Map                                                                            Page  203
  32328  0000520E  00000001 USING  ORDINARY    00000000 00001000 FFFFFFF7   7 000          @R7,7
  32373  00005236  00000001 USING  ORDINARY    00005236 00001000 00000001   7 202   32382  $$$718B,7
  32391  0000523E  00000001 USING  ORDINARY    00000000 00001000 FFFFFFF7   7 000          @R7,7
  32436  00005266  00000001 USING  ORDINARY    00005266 00001000 00000001   7 1D6   32445  $$$721B,7
  32454  0000526E  00000001 USING  ORDINARY    00000000 00001000 FFFFFFF7   7 000          @R7,7
  32499  00005296  00000001 USING  ORDINARY    00005296 00001000 00000001   7 1AA   32508  $$$724B,7
  32517  0000529E  00000001 USING  ORDINARY    00000000 00001000 FFFFFFF7   7 000          @R7,7
  32562  000052C6  00000001 USING  ORDINARY    000052C6 00001000 00000001   7 142   32571  $$$727B,7
  32580  000052CE  00000001 USING  ORDINARY    00000000 00001000 FFFFFFF7   7 000          @R7,7
  32625  000052F6  00000001 USING  ORDINARY    000052F6 00001000 00000001   7 14E   32634  $$$730B,7
  32643  000052FE  00000001 USING  ORDINARY    00000000 00001000 FFFFFFF7   7 000          @R7,7
  32688  00005326  00000001 USING  ORDINARY    00005326 00001000 00000001   7 122   32697  $$$733B,7
  32706  0000532E  00000001 USING  ORDINARY    00000000 00001000 FFFFFFF7   7 000          @R7,7
  32751  00005356  00000001 USING  ORDINARY    00005356 00001000 00000001   7 0F6   32760  $$$736B,7
  32769  0000535E  00000001 USING  ORDINARY    00000000 00001000 FFFFFFF7   7 000          @R7,7
  32814  00005386  00000001 USING  ORDINARY    00005386 00001000 00000001   7 000          $$$739B,7
  32829  00005386  00000001 USING  ORDINARY    00000000 00001000 FFFFFFF7   7 000          @R7,7
  32874  000053AE  00000001 USING  ORDINARY    000053AE 00001000 00000001   7 000          $$$742B,7
  32895  000053B2  00000001 USING  ORDINARY    00000000 00001000 FFFFFFF7   7 000          @R7,7
  33147  000054CA  00000001 USING  ORDINARY    000054CA 00001000 00000001   7 C28   36004  $$$744B,BR
  33160  000054D4  00000001 USING  ORDINARY    00000000 00001000 FFFFFFD4   6 400   38808  SHMWA,R6
  33206  0000550A  00000001 USING  ORDINARY    00000000 00001000 FFFFFFE9   5 1F4   33880  KWR,R5
  33532  000055F2  00000001 DROP                                           15              15
  33536  000055F8  00000001 USING  ORDINARY    00000000 00001000 FFFFFFEF  15 000          @R15,15
  33735  00005684  00000001 DROP                                           15              15
  33739  0000568A  00000001 USING  ORDINARY    00000000 00001000 FFFFFFEF  15 000          @R15,15
  33919  000056FC  00000001 USING  ORDINARY    00000000 00001000 FFFFFFF9   5 000          @R5,5
  33936  00005704  00000001 USING  ORDINARY    00000000 00001000 FFFFFFE7  15 044   33947  JCB,R15
  33962  0000571C  00000001 USING  ORDINARY    00000000 00001000 FFFFFFEF  15 000          @R15,15
  34005  0000573E  00000001 USING  ORDINARY    00000000 00001000 FFFFFFE7  15 044   34016  JCB,R15
  34031  00005756  00000001 USING  ORDINARY    00000000 00001000 FFFFFFEF  15 000   35299  @R15,15
  35504  00005BC4  00000001 DROP                                           15              15
  35508  00005BCA  00000001 USING  ORDINARY    00000000 00001000 FFFFFFEF  15 001   35509  @R15,15
  35571  00005C00  00000001 DROP                                           15              15
  35575  00005C06  00000001 USING  ORDINARY    00000000 00001000 FFFFFFEF  15 005   37610  @R15,15
  35702  00005C68  00000001 USING  ORDINARY    00000000 00001000 FFFFFFE9   5 1F4   35904  KWR,R5
  35926  00005CD2  00000001 USING  ORDINARY    00000000 00001000 FFFFFFF9   5 007   40086  @R5,5
  36048  00005D32  00000001 USING  ORDINARY    00000000 00001000 FFFFFFF7   7 000          @R7,7
  36051  00005D32  00000001 USING  ORDINARY    00005D32 00001000 00000001   7 391   36254  $$$848B,7
  36266  00005DD2  00000001 USING  ORDINARY    00000000 00001000 FFFFFFF7   7 000          @R7,7
  36269  00005DD2  00000001 USING  ORDINARY    000054CA 00001000 00000001   7 000          $$$744B,7
  36433  00006112  00000001 USING  ORDINARY    00000000 00001000 FFFFFFF7   7 000          @R7,7
  36436  00006112  00000001 USING  ORDINARY    00006112 00001000 00000001   7 9E6   39263  $$$854B,BR
  36445  00006112  00000001 USING  ORDINARY    00000000 00001000 FFFFFFD3   8 028   39248  SMIWA,WAR
  38208  000065D0  00000001 USING  ORDINARY    00000000 00001000 FFFFFFE7  15 062   38220  JCB,R15
  38227  000065D4  00000001 USING  ORDINARY    00000000 00001000 FFFFFFEF  15 000          @R15,15
  38265  000065F0  00000001 USING  ORDINARY    00000000 00001000 FFFFFFE7  15 062   38277  JCB,R15
  38284  000065F4  00000001 USING  ORDINARY    00000000 00001000 FFFFFFEF  15 000          @R15,15
  38296  000065F8  00000001 USING  ORDINARY    00000000 00001000 FFFFFFE9  15 064   38311  KWR,R15
  38346  00006616  00000001 USING  ORDINARY    00000000 00001000 FFFFFFEF  15 004   39482  @R15,15
  39274  00006AE8  00000001 USING  ORDINARY    00000000 00001000 FFFFFFF8   6 000          @R6,6
  39281  00006AE8  00000001 USING  ORDINARY    00000000 00001000 FFFFFFF6   8 000          @R8,8
  39287  00006AE8  00000001 USING  ORDINARY    00000000 00001000 FFFFFFF7   7 000          @R7,7
  39371  00006B12  00000001 USING  ORDINARY    00006B12 00001000 00000001   7 684   39737  $$$936B,7
  39385  00006B12  00000001 USING  ORDINARY    FFFFFFE0 00001000 FFFFFFD2   8 020   39736  PRTNWA-(4+28),R8
  39407  00006B1A  00000001 USING  ORDINARY    00000000 00001000 FFFFFFD4   6 122   39713  SHMWA,R6
  39681  00006BB6  00000001 DROP                                            2              2
  39685  00006BBC  00000001 USING  ORDINARY    00000000 00001000 FFFFFFFC   2 001   39686  @R2,2
  39749  00006BE4  00000001 USING  ORDINARY    00000000 00001000 FFFFFFF8   6 000          @R6,6
1MAIL     (MAIL4072) (12:48) (15MAR04) Using Map                                                                            Page  204
  39754  00006BE4  00000001 USING  ORDINARY    00000000 00001000 FFFFFFF6   8 000          @R8,8
  39759  00006BE4  00000001 USING  ORDINARY    00000000 00001000 FFFFFFF7   7 000          @R7,7
  39795  00006C0C  00000001 USING  ORDINARY    00006C0C 00001000 00000001   7 58C   39815  $$$951B,BR
  39805  00006C10  00000001 USING  ORDINARY    00000000 00001000 FFFFFFD4   6 01C   39809  SHMWA,R6
  39831  00006C3E  00000001 USING  ORDINARY    00000000 00001000 FFFFFFF8   6 000          @R6,6
  39837  00006C3E  00000001 USING  ORDINARY    00000000 00001000 FFFFFFF7   7 000          @R7,7
  39880  00006C58  00000001 USING  ORDINARY    00006C58 00001000 00000001   7 567   40279  $$$953B,7
  39908  00006C68  00000001 USING  ORDINARY    00000000 00001000 FFFFFFD4   6 02A   40211  SHMWA,R6
  39922  00006C7A  00000001 DROP                                            1              1
  39926  00006C80  00000001 USING  ORDINARY    00000000 00001000 FFFFFFFD   1 005   40705  @R1,1
  39969  00006C98  00000001 DROP                                           15              15
  39973  00006C9E  00000001 USING  ORDINARY    00000000 00001000 FFFFFFEF  15 004   40535  @R15,15
  40294  00006D98  00000001 USING  ORDINARY    00000000 00001000 FFFFFFF8   6 004   40705  @R6,6
  40299  00006D98  00000001 USING  ORDINARY    00000000 00001000 FFFFFFF7   7 000          @R7,7
  40386  00006DC0  00000001 USING  ORDINARY    00006DC0 00001000 00000001   7 452   40724  $$$966B,BR
  40395  00006DC0  00000001 USING  ORDINARY    00000000 00001000 FFFFFFD0   8 020   40443  BUFXWA,WAR
  40399  00006DC0  00000001 DROP                                            2              2
  40403  00006DC6  00000001 USING  ORDINARY    00000000 00001000 FFFFFFFC   2 005   40404  @R2,2
  40453  00006DDC  00000001 USING  ORDINARY    00000000 00001000 FFFFFFD1   5 004   40658  BUFRDIR,R5
  40532  00006E1C  00000001 DROP                                            3              3
  40536  00006E22  00000001 USING  ORDINARY    00000000 00001000 FFFFFFFB   3 002   40678  @R3,3
  40580  00006E4A  00000001 DROP                                           15              15
  40584  00006E50  00000001 USING  ORDINARY    00000000 00001000 FFFFFFEF  15 001   40585  @R15,15
  40742  00006ED2  00000001 USING  ORDINARY    00000000 00001000 FFFFFFF9   5 000          @R5,5
  40749  00006ED2  00000001 USING  ORDINARY    00000000 00001000 FFFFFFF6   8 000          @R8,8
  40755  00006ED2  00000001 USING  ORDINARY    00000000 00001000 FFFFFFF7   7 000          @R7,7
  40906  00006EEC  00000001 USING  ORDINARY    00006EEC 00001000 00000001   7 2E4   41097  $$$991B,7
  40920  00006EEC  00000001 USING  ORDINARY    FFFFFFD8 00001000 FFFFFFCF   8 064   41093  MLOGWA-(4+36),R8
  41105  00006F7E  00000001 USING  ORDINARY    00000000 00001000 FFFFFFF6   8 000          @R8,8
  41110  00006F7E  00000001 USING  ORDINARY    00000000 00001000 FFFFFFF7   7 000          @R7,7
  41152  00006FA6  00000001 USING  ORDINARY    00006FA6 00001000 00000001   7 264   41610  $$$993B,BR
  41183  00006FB0  00000001 USING  ORDINARY    00000000 00001000 FFFFFFE9   5 102   41524  KWR,R5
  41622  000070CC  00000001 USING  ORDINARY    00000000 00001000 FFFFFFF9   5 000          @R5,5
  41634  000070D8  00000001 USING  ORDINARY    00000000 00001000 FFFFFFF7   7 000          @R7,7

1         (MAIL4072) (12:48) (15MAR04) General Purpose Register Cross Reference                                             Page  205
- Register  References (M=modified, B=branch, U=USING, D=DROP, N=index)                      HLASM R4.0  2004/03/15 12.48
0    0(0)      995U   996D  2115   2183M  2183   2184M  7324M  7341M  7364M  7387M  7410M  7587M  7587   7609M  7677M
              7743M  7836   7848M  7853   7939   7942   7954M  7959   7976   7988M  7993   7994   7998M  8193   8261
              8324   8399   8498   8568M  8592M  8594M  8734   8965M  9023   9084M  9090   9166M  9172   9194   9304
              9310   9401M  9764M  9786M  9818M  9938M 10029M 10034  10170M 10189  10228M 10407M 10407  10420M 10429
             10441M 10446  10519  10531M 10536  10614M 10686M 10719M 10730M 10776M 10810M 10828M 10856M 10874M 10923M
             10940M 10967M 11011M 11049M 11077M 11094M 11116M 11150M 11168M 11196M 11214M 11258M 11275M 11296M 11324M
             11341M 11359M 11409M 11444M 11469  11492  11977M 12021  12033M 12039  12115M 12115  12126  12138M 12144
             12391  12403M 12409  12476  12488M 12493  12572  12584M 12589  12668  12680M 12685  13001M 13020M 13226M
             13226  13262M 13277M 13277  13332  13347M 13354M 13373M 13373  13426  13491M 13522M 13522  13538M 13564M
             13613  13653  13687  13694M 13709M 13739M 13748M 13832M 13833M 13834  13842M 13977M 14119  14166  14181M
             14201M 14214M 14242M 14263  14266M 14292M 14308M 14344M 14357M 14357  14401M 14414M 14442M 14463  14466M
             14492M 14508M 14544M 14557M 14557  14602M 14634  14686M 14686  14712  14736M 14743  14838M 14945M 14971M
             15046M 15151  15239M 15244  15270M 15328M 15340  15356M 15392M 15451M 15515M 15573M 15601M 15619M 15647M
             15665M 15728M 15833M 15851M 15874M 15952M 16105M 16172M 16203  16404M 16422M 16476M 16499M 16544M 16759M
             16760  16779  16871M 16905  16987  17018M 17036M 17054M 17069M 17099M 17142M 17180  17219  17234M 17254M
             17267M 17295M 17316  17319M 17345M 17361M 17397M 17410M 17410  17446M 17459M 17487M 17508  17511M 17537M
             17553M 17589M 17602M 17602  17651M 17705  17769M 17796  17851M 17884M 17954M 17980M 18011M 18053M 18054
             18079M 18105M 18139M 18174M 18202M 18238M 18359  18547M 18577M 18577  18784M 18865M 18888M 18946M 18946
             19047M 19072M 19072  19094M 19120M 19146M 19159M 19159  19170M 19192M 19192  19208M 19283M 19283  19348M
             19350  19467M 19467  19604M 19629M 19629  19648M 19674M 19700M 19726M 19752M 19778M 19791M 19791  19802M
             19824M 19824  19840M 19951  20040M 20070M 20070  20148M 20264M 20387M 20426M 20448  20465M 20483M 20498M
             20526M 20578M 20606M 20645M 20667M 20667  20685M 20704M 20745  20764M 20811M 20832M 20832  20851M 20877M
             20924M 20924  21009M 21009  21010M 21062M 21298  21409M 21426M 21444M 21472M 21517M 21579M 21625M 21652
             21724M 21750M 21772M 21772  21810M 21836M 21858M 21858  21895M 21921M 21936M 21962M 21984M 21984  22022M
             22048M 22070M 22070  22092M 22118M 22150M 22176M 22202M 22202  22233M 22261  22340M 22340  22341M 22435M
             22446  22462M 22609  22720M 22753M 22774M 22802M 22819M 22845M 22861  22868  22888M 22924M 22953M 22959
             22993M 23039M 23069M 23114M 23122M 23122  23161M 23181M 23246M 23273  23348M 23404M 23404  23422M 23458M
             23484M 23499M 23531M 23546M 23570M 23575M 23616M 23642M 23642  23660M 23696M 23722M 23737M 23774M 23827M
             23853M 23853  23934M 23965M 23976M 23980  23992M 23997  23998  24036M 24068M 24096  24175M 24175  24176M
             24270M 24281  24297M 24506  24617M 24653M 24691M 24712M 24740M 24785M 24790M 24807M 24828M 24873M 24903M
             24903  24981M 25011M 25011  25062M 25122  25227M 25253M 25269M 25312M 25328  25355M 25355  25433M 25449
             25459M 25459  25526M 25547M 25620M 25621M 25622  25627M 25653M 25667M 25688M 25729M 25760M 25786M 25806M
             25898M 25939M 25963M 26000M 26000  26034M 26069M 26095M 26110M 26128M 26143M 26175M 26205M 26231M 26231
             26261M 26292M 26318M 26333M 26352M 26383M 26421M 26443M 26443  26545M 26711M 26736M 26751M 26781M 26803M
             26803  26818M 26858M 26884M 26899M 26917M 26932M 26995M 27021M 27036M 27054M 27069M 27138M 27181M 27200M
             27236M 27294M 27335M 27385M 27411M 27442M 27474M 27509M 27509  27538M 27552M 27552  27566M 27606M 27695M
             27695  27796M 27822M 27844M 27844  27920M 27951M 27962M 27966  27978M 27983  27984  28053M 28069M 28090M
             28127M 28157  28235M 28235  28236M 28329M 28340  28361M 28401  28466M 28505  28569M 28764M 28764  28765M
             28911  28919  28959M 28987M 29005M 29049M 29074M 29114M 29153M 29181M 29199M 29233M 29265M 29300M 29344M
             29392M 29420M 29461M 29491M 29530M 29558M 29576M 29610M 29643M 29688M 29716M 29745M 29773M 29816M 29844M
             29862M 29890M 29936M 29964M 29994M 30038M 30079  30097M 30248  30449M 30452  30464M 30517M 30535M 30548M
             30590M 30620  30737M 30780M 30806M 30851M 30852  30872M 30961  31057M 31057  31066  31067  31156M 31230M
             31246  31249M 31275M 31294M 31314M 31359M 31374M 31419M 31444M 31459M 31484M 31516M 31548M 31580M 31706M
             31730M 31738M 31773M 32094  32147M 32167  32210M 32230  32273M 32293  32336M 32356  32399M 32419  32462M
             32482  32525M 32545  32588M 32608  32651M 32671  32714M 32734  32777M 32797  32837M 32857  32903M 33174
             33261M 33279M 33307M 33325M 33383M 33442M 33471M 33569M 33597M 33615M 33643M 33661M 33689M 33707M 33775M
             33865M 34034  34129M 34194M 34212M 34387M 34409M 34560M 34578M 34657M 34657  34658M 34701M 34749M 34820M
             34869M 34907M 34933M 34967M 34993M 35085M 35085  35112M 35128M 35128  35150M 35176M 35202M 35247  35298M
             35298  35299M 35596M 35596  35597M 35889M 36031  36084M 36084  36085M 36094M 36094  36129M 36172M 36199M
             36224M 36224  36277M 36454  36460M 36460  36485  36501M 36501  36502M 36624M 36624  36642M 36800  36857M
             36934M 36964M 36982M 37005M 37008M 37024M 37024  37046  37067M 37112M 37112  37161M 37161  37162M 37178
             37186  37244M 37244  37245M 37444M 37548M 37548  37592M 37592  37593M 37609  37617  37697M 37698M 37698
             37745  37752  37758M 37758  37841M 37862M 37862  37880M 37918M 37918  38015M 38102M 38102  38234M 38322M
             38383M 38383  38384M 38393M 38393  38462M 38469M 38469  38502M 38502  38503M 38504  38601M 38630M 38630
             38631M 38820M 38831M 38846M 38864M 38915M 38955M 38973M 38991M 39020  39098M 39175  39182  39187M 39203
1         (MAIL4072) (12:48) (15MAR04) General Purpose Register Cross Reference                                             Page  206
             39248M 39261M 39481M 39481  39482M 39653M 39669M 39669  39863  40105M 40105  40106M 40134M 40164M 40182M
             40195  40232M 40262M 40280M 40307M 40498  40555  40566M 40656  40723M 40724M 40888  40938M 40959M 40980M
             40980  40997M 41023M 41040M 41069M 41093M 41118M 41243M 41263M 41309M 41331M 41357M 41405M 41433M 41501M
             41529M 41570M 41599M 41599
     1(1)      991U  2115   2178M  2179M  2185M  7445M  7608M  7678M  7744M  7902M  7927M  7939   7965M  7965   7993
              7999M  8001   8052M  8055   8067M  8072   8076M  8085M  8085   8092   8114M  8117   8129M  8134   8138M
              8147M  8147   8154   8566M  8568   8570   8593M  8594M  8734   8876M  8965M  9023   9079M  9089   9090M
              9091   9159M  9401M  9763M  9785M  9817M  9850   9945M 10024M 10034M 10169M 10227M 10419M 10585M 10611M
             10613M 10616M 10645M 10685M 10718M 10729M 10769M 10809M 10827M 10851M 10873M 10918M 10939M 10962M 11006M
             11048M 11072M 11093M 11115M 11149M 11167M 11191M 11213M 11253M 11274M 11295M 11319M 11340M 11358M 11404M
             11439M 11460  11464M 11465M 11466  11467M 11468M 11469M 11470  11472M 11492  11976M 12193M 12193  12246M
             12246  12266M 12287M 12287  12295M 13015M 13260M 13307M 13307  13332  13342M 13354M 13426  13490M 13537M
             13564M 13613  13653  13687  13693M 13709M 13738M 13753  13842M 13977M 14119  14166  14176M 14200M 14214M
             14241M 14263  14265M 14292M 14303M 14339M 14400M 14414M 14441M 14463  14465M 14492M 14503M 14539M 14602M
             14634  14711  14735M 14742  14747M 14748M 14750M 14837M 14890M 14944M 14970M 15046M 15151  15234M 15244
             15270M 15328M 15355M 15392M 15450M 15514M 15572M 15596M 15618M 15642M 15664M 15723M 15832M 15850M 15873M
             15947M 16098M 16172M 16203  16399M 16421M 16475M 16498M 16539M 16754M 16760M 16762M 16826M 16871M 16905
             16987  17017M 17035M 17053M 17069M 17098M 17142M 17180  17219  17229M 17253M 17267M 17294M 17316  17318M
             17345M 17356M 17392M 17445M 17459M 17486M 17508  17510M 17537M 17548M 17584M 17651M 17705  17769M 17796
             17846M 17879M 17947M 17975M 18006M 18048M 18055  18078M 18100M 18132M 18173M 18197M 18238M 18359  18546M
             18791M 18864M 18887M 19046M 19093M 19119M 19145M 19169M 19188M 19207M 19349M 19350  19603M 19647M 19673M
             19699M 19725M 19751M 19777M 19801M 19820M 19839M 19950  19952M 19953  19964M 19974M 20039M 20147M 20263M
             20386M 20421M 20448  20460M 20482M 20498M 20525M 20577M 20601M 20644M 20663M 20684M 20773M 20810M 20850M
             20876M 21062M 21298  21404M 21425M 21443M 21467M 21512M 21522M 21578M 21625M 21652  21723M 21745M 21809M
             21831M 21894M 21916M 21935M 21957M 22021M 22043M 22091M 22113M 22149M 22171M 22233M 22261  22315M 22315
             22392M 22433M 22446  22447  22462M 22609  22715M 22752M 22773M 22797M 22818M 22840M 22867  22923M 22948M
             22958  22986M 23032M 23068M 23109M 23123M 23160M 23180M 23246M 23273  23347M 23421M 23457M 23479M 23498M
             23526M 23545M 23565M 23615M 23659M 23695M 23717M 23736M 23767M 23826M 23933M 23964M 23977M 24035M 24068M
             24096  24150M 24150  24227M 24268M 24281  24282  24297M 24506  24612M 24652M 24690M 24711M 24735M 24780M
             24833M 24872M 24980M 25062M 25122  25226M 25248M 25268M 25307M 25426M 25521M 25546M 25626M 25648M 25666M
             25687M 25724M 25759M 25781M 25805M 25897M 25938M 25962  25962  26033M 26068M 26090M 26109M 26142M 26170M
             26204M 26260M 26291M 26313M 26332M 26351M 26376M 26420M 26544M 26710M 26731M 26750M 26780M 26817M 26857M
             26879M 26898M 26931M 26994M 27016M 27035M 27068M 27133M 27176M 27199M 27235M 27289M 27330M 27384M 27406M
             27437M 27469M 27536M 27565M 27605M 27795M 27817M 27919M 27950M 27963M 28052M 28068M 28089M 28127M 28157
             28209M 28209  28286M 28327M 28340  28341  28361M 28401  28466M 28505  28569M 28723  28796M 28848M 28911
             28919  28958M 28982M 29004M 29048M 29073  29073  29113M 29152M 29176M 29198M 29228M 29264M 29299M 29339M
             29391M 29415M 29460M 29490M 29529M 29553M 29575M 29605M 29642M 29687M 29711M 29744M 29768M 29815M 29839M
             29861M 29885M 29935M 29959M 29994M 30106M 30248  30281  30443M 30448M 30473  30487D 30489M 30489  30490M
             30491U 30496M 30516M 30534M 30590M 30620  30653  30675D 30677M 30677  30678M 30679U 30684M 30736M 30775M
             30805M 30851M 30853B 30872M 30961  31053M 31066N 31067N 31069N 31155M 31229M 31246  31248M 31275M 31289M
             31313M 31354M 31373M 31412M 31439M 31458M 31479M 31515M 31547M 31579M 31702M 31731M 31739M 31773M 32094
             32122M 32123M 32123N 32147M 32167  32210M 32230  32273M 32293  32336M 32356  32399M 32419  32462M 32482
             32525M 32545  32588M 32608  32651M 32671  32714M 32734  32777M 32797  32837M 32857  32903M 33183M 33183
             33256M 33278M 33302M 33324M 33342M 33382M 33441M 33470M 33568M 33592M 33614M 33638M 33660M 33684M 33706M
             33721M 33774M 33864M 34136M 34193M 34211M 34386M 34408M 34436M 34559M 34577M 34702M 34750M 34819M 34868M
             34906M 34928M 34966M 34992M 35111M 35149M 35175M 35201M 35246  35248M 35249  35326M 35552M 35888M 36031
             36136M 36171M 36195M 36277M 36455  36520M 36641M 36800  36924  36933M 36957M 36981M 37005M 37007M 37045
             37270M 37442M 37745  37762M 37762  37840M 37858M 37879M 38014M 38233M 38321M 38451M 38474M 38474  38490M
             38522M 38522  38556M 38556  38600M 38652M 38654M 38655M 38656  38658M 38659M 38660  38681M 38682M 38683
             38702M 38703M 38704  38745M 38746M 38747  38751M 38752M 38753  38831M 38845M 38863M 38915M 38954M 38972M
             38990M 39020  39098M 39175  39187M 39203  39261M 39416M 39416  39490M 39652M 39742  39863  39896  39922D
             39924M 39924  39925M 39926U 40133M 40157M 40181M 40189M 40196  40211M 40231M 40255M 40279M 40307M 40445
             40555  40678M 40725M 40888  40933M 40958M 40976M 40996M 41019M 41039M 41062M 41088M 41118M 41242M 41262M
             41308M 41330M 41352M 41404M 41428M 41500M 41524M 41569M
     2(2)      987U  2115   7788   7959M  7994M  7995M  7998   8052M  8114M  8570M  8578   8611   8620   8635M  8734
              8965M  9023   9171M  9172M  9184   9401M  9887M  9897U  9960U 11492  12194M 12208  12964  13021M 13144M
             13180  13321M 13342  13399M 13426  13455M 13456M 13457  13505M 13537  13547M 13548M 13549  13564M 13613
             13977M 14119  14295M 14339  14495M 14539  14602M 14634  15046M 15151  15412M 15412  15429M 15472M 15472
             15539M 15539  15556M 15687M 15687  15799M 15799  15816M 15897M 15897  15974D 15976M 15976  15977M 15978U
1         (MAIL4072) (12:48) (15MAR04) General Purpose Register Cross Reference                                             Page  207
             15980  16172M 16203  16871M 16905  17142M 17180  17348M 17392  17540M 17584  17651M 17705  17769M 17796
             17837M 17931M 17947  18238M 18359  18905M 18905  18922M 18968M 18968  19009M 19019M 19019  19036  19084
             19110  19136  19188  19217M 19217  19234M 19305M 19305  19350  19488M 19503  19638M 19638  19664  19690
             19716  19742  19768  19820  19848M 19848  19865M 19910M 19910  19939M 19949M 19949  19952  19954  20006M
             20006  20023M 20091M 20091  20623M 20625M 20634M 20634  20663  20981M 20981  20995  21001N 21019M 21062M
             21298  21625M 21652  22233M 22261  22384D 22386M 22386  22387M 22388U 22462M 22609  22959M 22971M 22971
             23058M 23246M 23273  23758M 23767  23884M 23899  23920M 23926M 23929M 23955M 23955  23976  23997M 24068M
             24096  24219D 24221M 24221  24222M 24223U 24297M 24506  25062M 25122  25417M 25426  26367M 26376  27870M
             27885  27906M 27912M 27915M 27941M 27941  27962  27983M 28127M 28157  28278D 28280M 28280  28281M 28282U
             28361M 28401  28466M 28505  28569M 28688  28774M 28774  28786  28796N 28846  28853M 28860M 28866N 28868M
             28868N 28911  28919  29131M 29131  29212M 29449M 29449  29508M 29508  29589M 29631M 29631  29994M 30025M
             30114M 30166  30199M 30199  30202M 30208M 30248  30590M 30620  30703M 30703  30720M 30827M 30827  30851M
             30872M 30961  31306M 31354  31773M 32094  32147M 32167  32210M 32230  32273M 32293  32336M 32356  32399M
             32419  32462M 32482  32525M 32545  32588M 32608  32651M 32671  32714M 32734  32777M 32797  32837M 32857
             32903M 33134  34094M 34141M 34146  34273M 34296  34375  35106M 35140  35166  35192  35238M 35245M 35245
             35248  35250  35308M 35308  35320  35326N 35550  35557M 35564M 35574N 35576M 35576N 35626M 35665M 35665
             35748M 35748  35928  35930M 35970  35975M 36031  36060M 36074  36080N 36117  36250M 36277M 36420  36924M
             37723M 37745  38527M 38543M 38543  38620M 38646M 38646  38769M 38769  38815M 38825  38831M 39020  39098M
             39175  39187M 39203  39261M 39353  39511M 39529M 39580M 39580  39646M 39646  39652  39653  39681D 39683M
             39683  39684M 39685U 39767M 39782  39814M 39814  39817M 39823M 39863  40307M 40373  40399D 40401M 40401
             40402M 40404M 40408M 40417M 40417  40424  40555  40577M 40586M 40598  40676  40733M 40888  40976  41118M
             41139  41627M
     3(3)      983U  2115   7788   8001M  8011U  8040   8050   8179U  8635M  8734   8965M  9023   9401M  9872M  9882U
              9968U 11492  12195M 12208  12266  12272M 12964  13144M 13180  13322M 13347  13399M 13426  13506M 13538
             13564M 13613  13977M 14119  14296M 14344  14496M 14544  14602M 14634  14743M 14748  14766  14788M 14790M
             14910  14960M 14960  14982M 14991M 14991  14998  15046M 15151  16172M 16203  16871M 16905  17142M 17180
             17349M 17397  17541M 17589  17651M 17705  17769M 17796  18054M 18105  18238M 18359  19350  19940M 19941M
             19941  19944M 19945  20153M 20166M 20166  20289M 20314M 20783M 20841M 20841  20867  21062M 21298  21625M
             21652  22233M 22261  22347M 22358  22379N 22387N 22389M 22389N 22390  22462M 22609  22958M 22986  23032
             23056M 23246M 23273  23437M 23437  23510M 23605M 23605  23675M 23675  23748M 23816M 23816  23885M 23899
             23926  23977  23998M 24068M 24096  24182M 24193  24214N 24222N 24224M 24224N 24225  24297M 24506  25062M
             25122  25561M 25611  26048M 26048  26154M 26194M 26194  26837M 26837  26943M 27080M 27595M 27595  27871M
             27885  27912  27963  27984M 28127M 28157  28241M 28252  28273N 28281N 28283M 28283N 28284  28361M 28401
             28466M 28505  28569M 28688  28770M 28786  28911  28919  28921M 28931U 29994M 30000U 30025M 30166  30193M
             30194M 30195  30201M 30202M 30203  30208M 30248  30590M 30620  30750M 30760U 30799U 30851M 30872M 30961
             31048M 31048  31088  31310M 31338M 31338  31359  31773M 32094  32126M 32128  32147M 32167  32193M 32195
             32210M 32230  32256M 32258  32273M 32293  32319M 32321  32336M 32356  32382M 32384  32399M 32419  32445M
             32447  32462M 32482  32508M 32510  32525M 32545  32571M 32573  32588M 32608  32634M 32636  32651M 32671
             32697M 32699  32714M 32734  32760M 32762  32777M 32797  32837M 32857  32903M 33134  33817M 33830M 33830
             33890M 35239M 35240M 35240  35243M 35244  35304M 35320  35707M 35720M 35720  35914M 35975M 36031  36277M
             36420  36455M 36516  37141  37186M 37187M 37197  37208M 37208  37262  37577  37617M 37618M 37649M 37649
             37723M 37799  38496M 38512  39353  39412M 39464  39686M 39686N 39696  39705M 39705  39713  39767M 39782
             39809M 39810  39816M 39817M 39818  39823M 39863  40307M 40373  40532D 40534M 40534  40535M 40536U 40546M
             40546  40555  40566  40576M 40577  40725  40733M 40888  41118M 41139  41627M
     4(4)      979U  2115   7663M  7681   7729M  7747   7788   8635M  8734   8965M  9023   9401M 11492  12964  12993M
             12993  13031M 13031  13123M 13144M 13180  13324M 13399M 13426  13508M 13564M 13613  13977M 14119  14314M
             14320  14514M 14520  14602M 14634  14742M 14747  15046M 15151  15299M 15310U 15355  15514  16149U 16172M
             16203  16442M 16452U 16842U 16871M 16905  17142M 17180  17367M 17373  17559M 17565  17651M 17705  17769M
             17796  18055M 18100  18238M 18359  19350  20119M 20128U 20147  20263  20311U 21062M 21298  21625M 21652
             21699M 21730  21756  21778  21816  21842  21864  21901  21927  21942  21968  21990  22028  22054  22076
             22098  22124  22156  22182  22208  22233M 22261  22293M 22306  22332N 22364M 22365  22462M 22609  23246M
             23273  23320M 23354  23386  23410  23428  23464  23490  23505  23537  23552  23592  23622  23648  23666
             23702  23728  23743  23800  23833  23859  23940  23971  24016  24042  24068M 24096  24128M 24141  24167N
             24199M 24200  24297M 24506  25062M 25122  25178M 25233  25259  25275  25377  25486  25532  25553  25633
             25659  25709  25735  25766  25792  25812  25904  25945  25982  26006  26040  26075  26101  26116  26134
             26149  26181  26211  26237  26267  26298  26324  26339  26358  26409  26427  26449  26551  26717  26742
             26757  26787  26809  26824  26864  26890  26905  26923  26938  27001  27027  27042  27060  27075  27144
             27187  27257  27300  27341  27391  27417  27572  27612  27701  27802  27828  27850  27926  27957  28002
             28059  28075  28096  28127M 28157  28203M 28221  28227N 28258M 28259  28361M 28401  28466M 28505  28569M
1         (MAIL4072) (12:48) (15MAR04) General Purpose Register Cross Reference                                             Page  208
             28688  28736M 28736  28750  28756N 28911  30010M 30025M 30166  30208M 30248  30590M 30620  30851M 30872M
             30961  31050M 31050  31089  31278M 31300  31365  31380  31425  31450  31465  31490  31522  31554  31586
             31672U 31685U 31773M 32094  32125M 32128  32147M 32167  32210M 32230  32273M 32293  32336M 32356  32399M
             32419  32462M 32482  32525M 32545  32588M 32608  32651M 32671  32714M 32734  32777M 32797  32837M 32857
             32903M 33134  34683M 34683  34695  34708M 34731M 34742M 34742  34748M 35270M 35270  35284  35290N 35588N
             35606M 35975M 36031  36277M 36420  36507M 36516  37141  37197  37250M 37262  37577  37651M 37651  37723M
             37799  38496M 38512  39353  39412M 39487M 39696  39707M 39707  39713  39767M 39782  39823M 39863  40111M
             40123  40197M 40198  40307M 40373  40457M 40458M 40458  40499M 40500  40528N 40555  40615  40656N 40657M
             40658  40723  40733M 40888  41118M 41139  41627M
     5(5)      975U  2115   7629M  7644M  7644   7659U  7678   7681M  7687U  7695M  7710M  7710   7725U  7744   7747M
              7753U  7788   7814M  7822U  8635M  8643U  8734   8770M  8965M  9023   9401M 10744M 10755U 10784  10818
             10836  10864  10882  10931  10948  10975  11019  11057  11085  11102  11124  11158  11176  11204  11222
             11266  11283  11304  11332  11349  11367  11417  11451U 11492  11599M 11610M 11610  11625U 11679  11700
             11736M 11742U 11750M 11761M 11761  11776U 11806M 11812U 12964  13144M 13180  13325M 13399M 13426  13509M
             13564M 13613  13753M 13763U 13776  13941  13950  13959U 13977M 14119  14602M 14634  14660M 14670U 15033U
             15046M 15151  15187M 15197U 16154U 16172M 16203  16229M 16239U 16858U 16871M 16905  17142M 17180  17651M
             17705  17769M 17796  17822M 17832U 18225U 18238M 18359  18403M 18413U 18419  19350  21044U 21062M 21298
             21339M 21349U 21607U 21625M 21652  21684M 21694U 22220U 22233M 22261  22462M 22609  22650M 22660U 23228U
             23246M 23273  23305M 23315U 24055U 24068M 24096  24297M 24506  24547M 24557U 24947M 24948M 24948  25044U
             25062M 25122  25163M 25173U 25561  25579M 25579  25886M 26014M 26478M 26579M 26605M 26605  27662M 28109U
             28127M 28157  28188M 28198U 28348U 28361M 28401  28466M 28505  28569M 28688  28723M 28731U 28911  30025M
             30132U 30166  30208M 30248  30297M 30441  30473M 30495  30590M 30620  30665M 30683  30851M 30872M 30961
             31088M 31134  31150M 31308  31738  31773M 32094  32147M 32167  32210M 32230  32273M 32293  32336M 32356
             32399M 32419  32462M 32482  32525M 32545  32588M 32608  32651M 32671  32714M 32734  32777M 32797  32837M
             32857  32903M 33134  33196M 33206U 33211  33864  33919U 34679M 34695  34730M 34731  35692M 35702U 35888
             35926U 35975M 36031  36277M 36420  36454M 36493N 36516  37141  37204M 37230  37236N 37577  37652M 37723M
             37799  38378N 38496M 38497N 38512  39353  39412M 39428  39450  39473N 39708M 39713  39767M 39782  39823M
             39863  39912M 40188  40210  40307M 40373  40445M 40453U 40555  40733M 40742U 40888  41118M 41139  41173M
             41183U 41622U 41627M
     6(6)      971U  2115   7298M  7307U  7309   7766U  7788   7803M  7811U  8635M  8650U  8734   8774M  8791U  8805M
              8806M  8806   8934U  8965M  9023   9095M  9112U  9126M  9127M  9127   9223   9311   9358   9373U  9401M
              9704M  9712U  9714  11492  12964  13144M 13180  13399M 13426  13564M 13613  13977M 14119  14602M 14634
             15046M 15151  16172M 16203  16871M 16905  17142M 17180  17651M 17705  17769M 17796  18238M 18359  19350
             21062M 21298  21334M 21625M 21652  21678M 22233M 22261  22287M 22462M 22609  22645M 23246M 23273  23299M
             24068M 24096  24122M 24297M 24506  24542M 25062M 25122  25158M 28127M 28157  28183M 28361M 28373U 28401
             28427M 28437U 28450U 28466M 28505  28569M 28688  28721U 28911  30025M 30139U 30166  30181M 30189U 30208M
             30216U 30248  30283M 30293U 30577U 30590M 30620  30655M 30663U 30851M 30872M 30884U 30961  31089M 31739
             31773M 32094  32147M 32167  32210M 32230  32273M 32293  32336M 32356  32399M 32419  32462M 32482  32525M
             32545  32588M 32608  32651M 32671  32714M 32734  32777M 32797  32837M 32857  32903M 33134  33150M 33152
             33160U 35975M 36031  36277M 36420  37723M 39274U 39353  39397M 39407U 39749U 39767M 39782  39797M 39805U
             39823M 39831U 39863  39898M 39908U 40294U 40307M 40373  40443M 40555  40733M 40888  41118M 41139  41627M
     7(7)      967U  2108M  2108   2109B  2115   2121B  7225M  7235U  7772U  7788   7791M  7801U  8635M  8656U  8734
              8740M  8752U  8957U  8965M  9023   9029M  9041U  9393U  9401M  9692M  9702U 11492  12843U 12964  12969M
             12981U 13136U 13144M 13180  13185M 13197U 13391U 13399M 13426  13431M 13443U 13556U 13564M 13613  13619M
             13631U 13969U 13977M 14119  14125M 14137U 14594U 14602M 14634  14639M 14651U 15038U 15046M 15151  15157M
             15169U 16164U 16172M 16203  16208M 16220U 16863U 16871M 16905  16910M 16922U 17134U 17142M 17180  17186M
             17198U 17643U 17651M 17705  17711M 17723U 17761U 17769M 17796  17801M 17813U 18230U 18238M 18359  18365M
             18377U 19350  21054U 21062M 21298  21304M 21316U 21617U 21625M 21652  21657M 21669U 22225U 22233M 22261
             22266M 22278U 22454U 22462M 22609  22615M 22627U 23238U 23246M 23273  23278M 23290U 24060U 24068M 24096
             24101M 24113U 24289U 24297M 24506  24512M 24524U 25054U 25062M 25122  25128M 25140U 28119U 28127M 28157
             28162M 28174U 28353U 28361M 28401  28406M 28418U 28458U 28466M 28505  28510M 28522U 28561U 28569M 28688
             28691M 28701U 28911  30025M 30152U 30166  30169M 30179U 30204M 30204  30208M 30222U 30248  30253M 30265U
             30582U 30590M 30620  30625M 30637U 30851M 30864U 30872M 30961  30967M 30979U 31765U 31773M 32094  32099M
             32111U 32139U 32147M 32167  32172M 32184U 32202U 32210M 32230  32235M 32247U 32265U 32273M 32293  32298M
             32310U 32328U 32336M 32356  32361M 32373U 32391U 32399M 32419  32424M 32436U 32454U 32462M 32482  32487M
             32499U 32517U 32525M 32545  32550M 32562U 32580U 32588M 32608  32613M 32625U 32643U 32651M 32671  32676M
             32688U 32706U 32714M 32734  32739M 32751U 32769U 32777M 32797  32802M 32814U 32829U 32837M 32857  32862M
             32874U 32895U 32903M 33134  33137M 33147U 35975M 36031  36036M 36048U 36051U 36266U 36269U 36277M 36420
             36423M 36433U 36436U 37723M 39287U 39353  39359M 39371U 39759U 39767M 39782  39785M 39795U 39819M 39819
1         (MAIL4072) (12:48) (15MAR04) General Purpose Register Cross Reference                                             Page  209
             39823M 39837U 39863  39868M 39880U 40299U 40307M 40373  40376M 40386U 40555  40733M 40755U 40888  40894M
             40906U 41110U 41118M 41139  41142M 41152U 41627M 41634U
     8(8)      963U  2115   7224M  7788   7789M  8633   8635M  8734   8736M  8766U  8952U  8961   8965M  9023   9025M
              9055U  9388U  9397   9401M  9689M  9704  11492  12964  12965M 13140  13144M 13180  13181M 13395  13399M
             13426  13427M 13560  13564M 13613  13615M 13645U 13964U 13973  13977M 14119  14121M 14151U 14589U 14598
             14602M 14634  14635M 15042  15046M 15151  15153M 15183U 16159U 16168  16172M 16203  16204M 16867  16871M
             16905  16906M 17138  17142M 17180  17182M 17212U 17638U 17647  17651M 17705  17707M 17737U 17756U 17765
             17769M 17796  17797M 18234  18238M 18359  18361M 18391U 19350  21049U 21058  21062M 21298  21300M 21330U
             21612U 21621  21625M 21652  21653M 22229  22233M 22261  22262M 22446  22458  22462M 22609  22611M 22641U
             23233U 23242  23246M 23273  23274M 24064  24068M 24096  24097M 24281  24293  24297M 24506  24508M 24538U
             25049U 25058  25062M 25122  25124M 25154U 28114U 28123  28127M 28157  28158M 28340  28357  28361M 28401
             28402M 28462  28466M 28505  28506M 28565  28569M 28688  28689M 28710U 28911  30023  30025M 30146U 30166
             30167M 30206  30208M 30248  30249M 30586  30590M 30620  30621M 30851M 30868  30872M 30961  30963M 30993U
             31760U 31769  31773M 32094  32095M 32128  32143  32147M 32167  32168M 32195N 32206  32210M 32230  32231M
             32258N 32269  32273M 32293  32294M 32321N 32332  32336M 32356  32357M 32384N 32395  32399M 32419  32420M
             32447N 32458  32462M 32482  32483M 32510N 32521  32525M 32545  32546M 32573N 32584  32588M 32608  32609M
             32636N 32647  32651M 32671  32672M 32699N 32710  32714M 32734  32735M 32762N 32773  32777M 32797  32798M
             32833  32837M 32857  32858M 32899  32903M 33134  33135M 35973  35975M 36031  36032M 36273  36277M 36420
             36421M 36445U 37721  37723M 39281U 39353  39355M 39385U 39754U 39763  39767M 39782  39783M 39821  39823M
             39863  39864M 40303  40307M 40373  40374M 40395U 40555  40731  40733M 40749U 40888  40890M 40920U 41105U
             41114  41118M 41139  41140M 41625  41627M
     9(9)      959U  2115  11492  28911  33953M 33954  33955M 34022M 34023  34024M 36518N 37162N 37268N 37593N 39488N
             39684N 40555  40678N
    10(A)      955U  2115  11492  28911  33953  33954M 33955  34022  34023M 34024  34701N 34702N 34749N 34750N 36469M
             36469  40195N 40196N 40555
    11(B)      951U  1179U  2115  11492  28911  40555
    12(C)      947U  1188U  2115  11492  28911  40555
    13(D)      943U  2115   7224   7298   7299M  7299   7788   7789   7790M  7790   8485   8486M  8486   8559M  8560
              8633M  8634   8635   8731   8734   8736   8737M  8737   8961M  8965   8967   9020   9023   9025   9026M
              9026   9397M  9401   9403   9689   9691M  9691   9843   9844M  9844   9852M 10744  10745M 10745  11455M
             11492  12961  12964  12965  12966M 12966  13140M 13144  13146  13177  13180  13181  13182M 13182  13332
             13333M 13333  13353M 13354  13395M 13399  13401  13423  13426  13427  13428M 13428  13560M 13564  13566
             13610  13613  13615  13616M 13616  13687  13688M 13688  13708M 13709  13973M 13977  13979  14116  14119
             14121  14122M 14122  14259  14260M 14260  14263  14264M 14264  14291M 14292  14318M 14459  14460M 14460
             14463  14464M 14464  14491M 14492  14518M 14598M 14602  14604  14631  14634  14635  14636M 14636  15042M
             15046  15048  15148  15151  15153  15154M 15154  15299  15300M 15300  16135M 16168M 16172  16174  16200
             16203  16204  16205M 16205  16867M 16871  16873  16902  16905  16906  16907M 16907  16987  16988M 16988
             17068M 17069  17138M 17142  17144  17177  17180  17182  17183M 17183  17312  17313M 17313  17316  17317M
             17317  17344M 17345  17371M 17504  17505M 17505  17508  17509M 17509  17536M 17537  17563M 17647M 17651
             17653  17702  17705  17707  17708M 17708  17765M 17769  17771  17793  17796  17797  17798M 17798  18234M
             18238  18240  18356  18359  18361  18362M 18362  19348  20119  20120M 20120  20304M 20448  20449M 20449
             20497M 20498  20745  20746M 20746  20763M 20764  21058M 21062  21064  21295  21298  21300  21301M 21301
             21621M 21625  21627  21649  21652  21653  21654M 21654  22229M 22233  22235  22258  22261  22262  22263M
             22263  22458M 22462  22464  22606  22609  22611  22612M 22612  23242M 23246  23248  23270  23273  23274
             23275M 23275  23360  23361M 23361  23392M 23758  23759M 23759  23806M 24064M 24068  24070  24093  24096
             24097  24098M 24098  24293M 24297  24299  24503  24506  24508  24509M 24509  25058M 25062  25064  25119
             25122  25124  25125M 25125  25417  25418M 25418  25492M 25951  25952M 25952  25988M 26367  26368M 26368
             26415M 28123M 28127  28129  28154  28157  28158  28159M 28159  28357M 28361  28363  28398  28401  28402
             28403M 28403  28462M 28466  28468  28502  28505  28506  28507M 28507  28565M 28569  28571  28688  28689
             28690M 28690  28846  28847M 28847  28859M 28860  28911  28919  28920M 28920  29063  29064M 29064  29100M
             29993M 29994  30023M 30024  30025  30035  30036M 30036  30079  30080M 30080  30096M 30097  30122M 30123
             30166  30167  30168M 30168  30206M 30207  30208  30245  30248  30249  30250M 30250  30586M 30590  30592
             30617  30620  30621  30622M 30622  30852M 30868M 30872  30874  30958  30961  30963  30964M 30964  31061
             31062  31063  31065M 31065  31078M 31079  31080  31081  31242  31243M 31243  31246  31247M 31247  31274M
             31275  31278  31279M 31279  31306  31307M 31307  31718M 31720M 31724M 31769M 31773  31775  32091  32094
             32095  32096M 32096  32143M 32147  32149  32164  32167  32168  32169M 32169  32206M 32210  32212  32227
             32230  32231  32232M 32232  32269M 32273  32275  32290  32293  32294  32295M 32295  32332M 32336  32338
             32353  32356  32357  32358M 32358  32395M 32399  32401  32416  32419  32420  32421M 32421  32458M 32462
             32464  32479  32482  32483  32484M 32484  32521M 32525  32527  32542  32545  32546  32547M 32547  32584M
1         (MAIL4072) (12:48) (15MAR04) General Purpose Register Cross Reference                                             Page  210
             32588  32590  32605  32608  32609  32610M 32610  32647M 32651  32653  32668  32671  32672  32673M 32673
             32710M 32714  32716  32731  32734  32735  32736M 32736  32773M 32777  32779  32794  32797  32798  32799M
             32799  32833M 32837  32839  32854  32857  32858  32859M 32859  32899M 32903  32905  33134  33135  33136M
             33136  33150  33151M 33151  33721  33722M 33722  33769M 35550  35551M 35551  35563M 35564  35973M 35974
             35975  36028  36031  36032  36033M 36033  36273M 36277  36279  36420  36421  36422M 36422  36800  36801M
             36801  37004M 37005  37674  37675M 37675  37718M 37719  37721M 37722  37723  37742  37743M 37743  37745
             37746M 37746  38830M 38831  38833M 38834  39017  39018M 39018  39020  39021M 39021  39097M 39098  39100M
             39101  39172  39173M 39173  39175  39176M 39176  39186M 39187  39189M 39190  39200  39201M 39201  39203
             39204M 39204  39260M 39261  39263M 39264  39350  39353  39355  39356M 39356  39763M 39767  39769  39782
             39783  39784M 39784  39821M 39822  39823  39860  39863  39864  39865M 39865  40303M 40307  40309  40373
             40374  40375M 40375  40555  40731M 40732  40733  40885  40888  40890  40891M 40891  41114M 41118  41120
             41139  41140  41141M 41141  41625M 41626  41627
    14(E)      939U  2115   2116M  2130   2131M  2132B  2134M  2135B  2155M  2156B  2160M  2161B  2163M  2164B  2166M
              2167B  2169M  2170B  2172M  2173M  2173B  2179   7256M  7257M  7257B  7417M  7418M  7418B  7433M  7434M
              7434B  7437M  7438M  7438B  7448M  7449M  7449B  7452M  7453M  7453B  7470M  7471M  7471B  7475M  7476M
              7476B  7498M  7499M  7499B  7503M  7504M  7504B  7598M  7599M  7599B  7620M  7621M  7621B  7786   7909M
              7910M  7910B  7930M  7931M  7931B  7937M  7938M  7938B  7968M  7969M  7969B  7972M  7973M  7973B  8251B
              8319B  8382B  8424B  8433B  8442B  8451B  8463B  8472B  8481B  8485   8495M  8496M  8496B  8560M  8561B
              8578M  8594M  8634M  8636B  8731   8967M  8970B  9020   9087M  9088M  9088B  9169M  9170M  9170B  9403M
              9406B  9752M  9753M  9753B  9793M  9794M  9794B  9840M  9841M  9841B  9847M  9848M  9848B  9860M  9861M
              9861B  9864M  9865M  9865B  9948M  9949M  9949B 10032M 10033M 10033B 10150M 10151M 10151B 10239M 10240M
             10240B 10374M 10375M 10375B 10387M 10388M 10388B 10393M 10394M 10394B 10397M 10398M 10398B 10515M 10516M
             10516B 10592M 10593M 10593B 10604M 10605M 10605B 10608M 10609M 10609B 10631M 10632M 10632B 10648M 10649M
             10649B 10694M 10695M 10695B 10722M 10723M 10723B 10787M 10788M 10788B 10821M 10822M 10822B 10839M 10840M
             10840B 10867M 10868M 10868B 10885M 10886M 10886B 10934M 10935M 10935B 10951M 10952M 10952B 10978M 10979M
             10979B 11022M 11023M 11023B 11060M 11061M 11061B 11088M 11089M 11089B 11105M 11106M 11106B 11127M 11128M
             11128B 11161M 11162M 11162B 11179M 11180M 11180B 11207M 11208M 11208B 11225M 11226M 11226B 11269M 11270M
             11270B 11286M 11287M 11287B 11307M 11308M 11308B 11335M 11336M 11336B 11352M 11353M 11353B 11370M 11371M
             11371B 11420M 11421M 11421B 11458M 11459M 11459B 11475M 11476M 11476B 11492  11493M 11541M 11542M 11542B
             11567M 11568M 11568B 11799M 11800M 11800B 11958M 11959M 11959B 11985M 11986M 11986B 12017M 12018M 12018B
             12101M 12102M 12102B 12105M 12106M 12106B 12387M 12388M 12388B 12457B 12466B 12470M 12471M 12471B 12566M
             12567M 12567B 12662M 12663M 12663B 12763B 12773B 12782B 12792B 12801B 12810B 12819B 12828B 12836B 12961
             13004M 13005M 13005B 13046M 13047M 13047B 13065M 13066M 13066B 13108M 13109M 13109B 13146M 13149B 13177
             13209M 13210M 13210B 13310M 13311M 13311B 13328M 13329M 13329B 13350M 13351M 13351B 13401M 13404B 13423
             13479M 13480M 13480B 13512M 13513M 13513B 13534M 13535M 13535B 13566M 13569B 13610  13651M 13652M 13652B
             13660M 13661M 13661B 13705M 13706M 13706B 13732M 13733M 13733B 13751M 13752M 13752B 13847M 13848M 13848B
             13853M 13854M 13854B 13873M 13874M 13874B 13979M 13982B 14116  14192M 14193M 14193B 14212M 14213M 14213B
             14236M 14237M 14237B 14253M 14254M 14254B 14259M 14263  14265N 14288M 14289M 14289B 14292M 14311M 14312M
             14312B 14347M 14348M 14348B 14365M 14366M 14366B 14395M 14396M 14396B 14412M 14413M 14413B 14436M 14437M
             14437B 14453M 14454M 14454B 14459M 14463  14465N 14488M 14489M 14489B 14492M 14511M 14512M 14512B 14547M
             14548M 14548B 14565M 14566M 14566B 14604M 14607B 14631  14831M 14832M 14832B 14938M 14939M 14939B 15048M
             15051B 15148  15242M 15243M 15243B 15250M 15251M 15251B 15273M 15274M 15274B 15359M 15360M 15360B 15396M
             15397M 15397B 15444M 15445M 15445B 15462M 15463M 15463B 15518M 15519M 15519B 15584M 15585M 15585B 15612M
             15613M 15613B 15630M 15631M 15631B 15658M 15659M 15659B 15676M 15677M 15677B 15731M 15732M 15732B 15844M
             15845M 15845B 15862M 15863M 15863B 15867M 15868M 15868B 15885M 15886M 15886B 15955M 15956M 15956B 15959M
             15960M 15960B 16108M 16109M 16109B 16174M 16177B 16200  16263M 16264M 16264B 16376M 16377M 16377B 16415M
             16416M 16416B 16433M 16434M 16434B 16487M 16488M 16488B 16492M 16493M 16493B 16510M 16511M 16511B 16555M
             16556M 16556B 16873M 16876B 16902  16935M 16936M 16936B 16957M 16958M 16958B 17011M 17012M 17012B 17029M
             17030M 17030B 17047M 17048M 17048B 17065M 17066M 17066B 17092M 17093M 17093B 17110M 17111M 17111B 17144M
             17147B 17177  17245M 17246M 17246B 17265M 17266M 17266B 17289M 17290M 17290B 17306M 17307M 17307B 17312M
             17316  17318N 17341M 17342M 17342B 17345M 17364M 17365M 17365B 17400M 17401M 17401B 17440M 17441M 17441B
             17457M 17458M 17458B 17481M 17482M 17482B 17498M 17499M 17499B 17504M 17508  17510N 17533M 17534M 17534B
             17537M 17556M 17557M 17557B 17592M 17593M 17593B 17653M 17656B 17702  17746M 17747M 17747B 17771M 17774B
             17793  17929M 17930M 17930B 17965M 17966M 17966B 18038M 18039M 18039B 18090M 18091M 18091B 18116M 18117M
             18117B 18150M 18151M 18151B 18185M 18186M 18186B 18213M 18214M 18214B 18240M 18243B 18356  18558M 18559M
             18559B 18563M 18564M 18564B 18588M 18589M 18589B 18615M 18616M 18616B 18620M 18621M 18621B 18647M 18648M
             18648B 18652M 18653M 18653B 18680M 18681M 18681B 18751M 18752M 18752B 18794M 18795M 18795B 18838M 18839M
             18839B 18876M 18877M 18877B 18881M 18882M 18882B 18899M 18900M 18900B 18957M 18958M 18958B 19007M 19008M
             19008B 19058M 19059M 19059B 19063M 19064M 19064B 19067M 19068M 19068B 19181M 19182M 19182B 19203M 19204M
1         (MAIL4072) (12:48) (15MAR04) General Purpose Register Cross Reference                                             Page  211
             19204B 19268M 19269M 19269B 19294M 19295M 19295B 19381M 19382M 19382B 19407M 19408M 19408B 19442M 19443M
             19443B 19475M 19476M 19476B 19597M 19598M 19598B 19615M 19616M 19616B 19620M 19621M 19621B 19624M 19625M
             19625B 19813M 19814M 19814B 19835M 19836M 19836B 19899M 19900M 19900B 19971M 19972M 19972B 19978M 19979M
             19979B 19987M 19988M 19988B 20051M 20052M 20052B 20056M 20057M 20057B 20081M 20082M 20082B 20115M 20116M
             20116B 20151M 20152M 20152B 20267M 20268M 20268B 20380M 20381M 20381B 20398M 20399M 20399B 20429M 20430M
             20430B 20476M 20477M 20477B 20494M 20495M 20495B 20521M 20522M 20522B 20553M 20554M 20554B 20589M 20590M
             20590B 20617M 20618M 20618B 20656M 20657M 20657B 20678M 20679M 20679B 20696M 20697M 20697B 20705M 20759M
             20760M 20760B 20781M 20782M 20782B 20822M 20823M 20823B 20827M 20828M 20828B 20904M 20905M 20905B 20935M
             20936M 20936B 20941M 20942M 20942B 20947M 20948M 20948B 20967M 20968M 20968B 20971M 20972M 20972B 21013M
             21014M 21014B 21017M 21018M 21018B 21064M 21067B 21295  21420M 21421M 21421B 21437M 21438M 21438B 21455M
             21456M 21456B 21483M 21484M 21484B 21520M 21521M 21521B 21526M 21527M 21527B 21590M 21591M 21591B 21595M
             21596M 21596B 21627M 21630B 21649  21733M 21734M 21734B 21759M 21760M 21760B 21781M 21782M 21782B 21819M
             21820M 21820B 21845M 21846M 21846B 21867M 21868M 21868B 21904M 21905M 21905B 21930M 21931M 21931B 21945M
             21946M 21946B 21971M 21972M 21972B 21993M 21994M 21994B 22031M 22032M 22032B 22057M 22058M 22058B 22079M
             22080M 22080B 22101M 22102M 22102B 22127M 22128M 22128B 22159M 22160M 22160B 22185M 22186M 22186B 22211M
             22212M 22212B 22235M 22238B 22258  22344M 22345M 22345B 22395M 22396M 22396B 22464M 22467B 22606  22731M
             22732M 22732B 22764M 22765M 22765B 22785M 22786M 22786B 22813M 22814M 22814B 22830M 22831M 22831B 22848M
             22849M 22849B 22918M 22919M 22919B 22935M 22936M 22936B 22956M 22957M 22957B 23004M 23005M 23005B 23050M
             23051M 23051B 23080M 23081M 23081B 23117M 23118M 23118B 23127M 23128M 23128B 23215M 23216M 23216B 23220M
             23221M 23221B 23248M 23251B 23270  23357M 23358M 23358B 23364M 23365M 23365B 23368M 23369M 23369B 23389M
             23390M 23390B 23413M 23414M 23414B 23431M 23432M 23432B 23467M 23468M 23468B 23493M 23494M 23494B 23508M
             23509M 23509B 23540M 23541M 23541B 23555M 23556M 23556B 23573M 23574M 23574B 23595M 23596M 23596B 23625M
             23626M 23626B 23651M 23652M 23652B 23669M 23670M 23670B 23705M 23706M 23706B 23731M 23732M 23732B 23746M
             23747M 23747B 23777M 23778M 23778B 23781M 23782M 23782B 23803M 23804M 23804B 23836M 23837M 23837B 23862M
             23863M 23863B 23943M 23944M 23944B 23974M 23975M 23975B 24019M 24020M 24020B 24045M 24046M 24046B 24070M
             24073B 24093  24179M 24180M 24180B 24230M 24231M 24231B 24299M 24302B 24503  24628M 24629M 24629B 24664M
             24665M 24665B 24702M 24703M 24703B 24723M 24724M 24724B 24751M 24752M 24752B 24788M 24789M 24789B 24837M
             24838M 24838B 24884M 24885M 24885B 24889M 24890M 24890B 24914M 24915M 24915B 24992M 24993M 24993B 24997M
             24998M 24998B 25022M 25023M 25023B 25064M 25067B 25119  25236M 25237M 25237B 25262M 25263M 25263B 25278M
             25279M 25279B 25315M 25316M 25316B 25380M 25381M 25381B 25436M 25437M 25437B 25467M 25468M 25468B 25489M
             25490M 25490B 25535M 25536M 25536B 25556M 25557M 25557B 25636M 25637M 25637B 25662M 25663M 25663B 25712M
             25713M 25713B 25738M 25739M 25739B 25769M 25770M 25770B 25795M 25796M 25796B 25815M 25816M 25816B 25907M
             25908M 25908B 25948M 25949M 25949B 25955M 25956M 25956B 25959M 25960M 25960B 25985M 25986M 25986B 26009M
             26010M 26010B 26043M 26044M 26044B 26078M 26079M 26079B 26104M 26105M 26105B 26119M 26120M 26120B 26137M
             26138M 26138B 26152M 26153M 26153B 26184M 26185M 26185B 26214M 26215M 26215B 26240M 26241M 26241B 26270M
             26271M 26271B 26301M 26302M 26302B 26327M 26328M 26328B 26342M 26343M 26343B 26361M 26362M 26362B 26386M
             26387M 26387B 26390M 26391M 26391B 26412M 26413M 26413B 26430M 26431M 26431B 26452M 26453M 26453B 26554M
             26555M 26555B 26720M 26721M 26721B 26745M 26746M 26746B 26760M 26761M 26761B 26790M 26791M 26791B 26812M
             26813M 26813B 26827M 26828M 26828B 26867M 26868M 26868B 26893M 26894M 26894B 26908M 26909M 26909B 26926M
             26927M 26927B 26941M 26942M 26942B 27004M 27005M 27005B 27030M 27031M 27031B 27045M 27046M 27046B 27063M
             27064M 27064B 27078M 27079M 27079B 27147M 27148M 27148B 27190M 27191M 27191B 27260M 27261M 27261B 27303M
             27304M 27304B 27344M 27345M 27345B 27394M 27395M 27395B 27420M 27421M 27421B 27497M 27498M 27498B 27575M
             27576M 27576B 27615M 27616M 27616B 27704M 27705M 27705B 27805M 27806M 27806B 27831M 27832M 27832B 27853M
             27854M 27854B 27929M 27930M 27930B 27960M 27961M 27961B 28005M 28006M 28006B 28062M 28063M 28063B 28078M
             28079M 28079B 28099M 28100M 28100B 28129M 28132B 28154  28239M 28240M 28240B 28289M 28290M 28290B 28363M
             28366B 28398  28468M 28471B 28502  28571M 28574B 28686  28768M 28769M 28769B 28851M 28852M 28852B 28856M
             28857M 28857B 28911  28912M 28947M 28948M 28948B 28970M 28971M 28971B 28998M 28999M 28999B 29016M 29017M
             29017B 29020M 29021M 29021B 29060M 29061M 29061B 29067M 29068M 29068B 29071M 29072M 29072B 29097M 29098M
             29098B 29104M 29105M 29105B 29125M 29126M 29126B 29164M 29165M 29165B 29192M 29193M 29193B 29210M 29211M
             29211B 29244M 29245M 29245B 29327M 29328M 29328B 29355M 29356M 29356B 29403M 29404M 29404B 29431M 29432M
             29432B 29472M 29473M 29473B 29481M 29482M 29482B 29502M 29503M 29503B 29541M 29542M 29542B 29569M 29570M
             29570B 29587M 29588M 29588B 29621M 29622M 29622B 29654M 29655M 29655B 29662M 29663M 29663B 29699M 29700M
             29700B 29727M 29728M 29728B 29731M 29732M 29732B 29756M 29757M 29757B 29784M 29785M 29785B 29788M 29789M
             29789B 29827M 29828M 29828B 29855M 29856M 29856B 29873M 29874M 29874B 29901M 29902M 29902B 29906M 29907M
             29907B 29947M 29948M 29948B 29975M 29976M 29976B 29980M 29981M 29981B 30020M 30021M 30021B 30024M 30026B
             30035  30039M 30093M 30094M 30094B 30117M 30118M 30118B 30123M 30124B 30164  30207M 30209B 30245  30279M
             30280M 30280B 30446M 30447M 30447B 30471M 30472M 30472B 30499M 30500M 30500B 30528M 30529M 30529B 30546M
             30547M 30547B 30551M 30552M 30552B 30592M 30595B 30617  30651M 30652M 30652B 30687M 30688M 30688B 30748M
             30749M 30749B 30791M 30792M 30792B 30817M 30818M 30818B 30874M 30877B 30958  31036M 31037M 31037B 31060M
1         (MAIL4072) (12:48) (15MAR04) General Purpose Register Cross Reference                                             Page  212
             31061  31062  31063  31068M 31069  31072M 31073M 31073B 31076M 31079  31080  31081  31086M 31087M 31087B
             31167M 31168M 31168B 31242M 31246  31248N 31271M 31272M 31272B 31275M 31303M 31304M 31304B 31317M 31318M
             31318B 31368M 31369M 31369B 31383M 31384M 31384B 31428M 31429M 31429B 31453M 31454M 31454B 31468M 31469M
             31469B 31493M 31494M 31494B 31525M 31526M 31526B 31557M 31558M 31558B 31589M 31590M 31590B 31709M 31710M
             31710B 31734M 31735M 31735B 31742M 31743M 31743B 31775M 31778B 32091  32149M 32152B 32164  32212M 32215B
             32227  32275M 32278B 32290  32338M 32341B 32353  32401M 32404B 32416  32464M 32467B 32479  32527M 32530B
             32542  32590M 32593B 32605  32653M 32656B 32668  32716M 32719B 32731  32779M 32782B 32794  32839M 32842B
             32854  32905M 32908B 33132  33272M 33273M 33273B 33290M 33291M 33291B 33318M 33319M 33319B 33336M 33337M
             33337B 33345M 33346M 33346B 33356M 33357M 33357B 33512M 33513M 33513B 33580M 33581M 33581B 33608M 33609M
             33609B 33626M 33627M 33627B 33654M 33655M 33655B 33672M 33673M 33673B 33700M 33701M 33701B 33718M 33719M
             33719B 33742M 33743M 33743B 33766M 33767M 33767B 33786M 33787M 33787B 33868M 33869M 33869B 33967M 33968M
             33968B 33983M 33984M 33984B 33991M 33992M 33992B 34045M 34046M 34046B 34139M 34140M 34140B 34161M 34162M
             34162B 34205M 34206M 34206B 34223M 34224M 34224B 34248M 34249M 34249B 34271M 34272M 34272B 34320M 34321M
             34321B 34345M 34346M 34346B 34398M 34399M 34399B 34420M 34421M 34421B 34465M 34466M 34466B 34491M 34492M
             34492B 34517M 34518M 34518B 34571M 34572M 34572B 34589M 34590M 34590B 34661M 34662M 34662B 34705M 34706M
             34706B 34753M 34754M 34754B 34831M 34832M 34832B 34880M 34881M 34881B 34918M 34919M 34919B 34936M 34937M
             34937B 34960M 34961M 34961B 34978M 34979M 34979B 35004M 35005M 35005B 35093M 35094M 35094B 35123M 35124M
             35124B 35229M 35230M 35230B 35302M 35303M 35303B 35555M 35556M 35556B 35560M 35561M 35561B 35586M 35587M
             35587B 35600M 35601M 35601B 35604M 35605M 35605B 35644M 35645M 35645B 35648M 35649M 35649B 35685M 35686M
             35686B 35892M 35893M 35893B 35949M 35950M 35950B 35974M 35977B 36002M 36003M 36003B 36028  36139M 36140M
             36140B 36151M 36152M 36152B 36183M 36184M 36184B 36210M 36211M 36211B 36235M 36236M 36236B 36243M 36244M
             36244B 36279M 36282B 36418  36479M 36480M 36480B 36490M 36491M 36491B 36505M 36506M 36506B 36523M 36524M
             36524B 36606M 36607M 36607B 36610M 36611M 36611B 36635M 36636M 36636B 36653M 36654M 36654B 36657M 36658M
             36658B 36841M 36842M 36842B 36868M 36869M 36869B 36872M 36873M 36873B 36927M 36928M 36928B 36945M 36946M
             36946B 36975M 36976M 36976B 36993M 36994M 36994B 36997M 36998M 36998B 37074M 37075M 37075B 37094M 37095M
             37095B 37098M 37099M 37099B 37123M 37124M 37124B 37127M 37128M 37128B 37248M 37249M 37249B 37273M 37274M
             37274B 37530M 37531M 37531B 37534M 37535M 37535B 37559M 37560M 37560B 37563M 37564M 37564B 37661M 37662M
             37662B 37680M 37681M 37681B 37686M 37687M 37687B 37711M 37712M 37712B 37722M 37725B 37742  37750M 37751M
             37751B 37777M 37778M 37778B 37834M 37835M 37835B 37852M 37853M 37853B 37873M 37874M 37874B 37891M 37892M
             37892B 37895M 37896M 37896B 37904M 37905M 37905B 37929M 37930M 37930B 37933M 37934M 37934B 38008M 38009M
             38009B 38026M 38027M 38027B 38030M 38031M 38031B 38113M 38114M 38114B 38191M 38192M 38192B 38241M 38242M
             38242B 38333M 38334M 38334B 38375M 38376M 38376B 38406M 38407M 38407B 38428M 38429M 38429B 38454M 38455M
             38455B 38478M 38479M 38479B 38493M 38494M 38494B 38525M 38526M 38526B 38559M 38560M 38560B 38594M 38595M
             38595B 38612M 38613M 38613B 38634M 38635M 38635B 38801M 38802M 38802B 38823M 38824M 38824B 38834M 38836B
             38857M 38858M 38858B 38948M 38949M 38949B 38966M 38967M 38967B 38984M 38985M 38985B 39002M 39003M 39003B
             39017  39024M 39025M 39025B 39064M 39065M 39065B 39084M 39085M 39085B 39092M 39093M 39093B 39101M 39103B
             39172  39180M 39181M 39181B 39190M 39192B 39200  39226M 39227M 39227B 39251M 39252M 39252B 39264M 39266B
             39350  39485M 39486M 39486B 39493M 39494M 39494B 39769M 39772B 39780  39822M 39824B 39860  39894M 39895M
             39895B 40109M 40110M 40110B 40145M 40146M 40146B 40175M 40176M 40176B 40192M 40193M 40193B 40202M 40203M
             40203B 40214M 40215M 40215B 40243M 40244M 40244B 40273M 40274M 40274B 40309M 40312B 40371  40472M 40473M
             40473B 40488M 40489M 40489B 40496M 40497M 40497B 40511M 40512M 40512B 40555  40556M 40569M 40570M 40570B
             40630M 40631M 40631B 40646M 40647M 40647B 40654M 40655M 40655B 40669M 40670M 40670B 40720M 40721M 40721B
             40732M 40735B 40885  40949M 40950M 40950B 40953M 40954M 40954B 40970M 40971M 40971B 40991M 40992M 40992B
             41008M 41009M 41009B 41034M 41035M 41035B 41051M 41052M 41052B 41080M 41081M 41081B 41097M 41098M 41098B
             41120M 41123B 41137  41254M 41255M 41255B 41320M 41321M 41321B 41342M 41343M 41343B 41416M 41417M 41417B
             41444M 41445M 41445B 41478M 41479M 41479B 41512M 41513M 41513B 41540M 41541M 41541B 41581M 41582M 41582B
             41610M 41611M 41611B 41626M 41628B
    15(F)      935U  2115   7319M  7320   7321M  7322   7485M  7485   7495M  7595M  7617M  7853M  7857M  7866M  7866
              7873   8024M  8034U  8047U  8112M  8113M  8193M  8196   8208M  8216M  8225M  8225   8232   8261M  8264
              8276M  8284M  8293M  8293   8300   8324M  8327   8339M  8347M  8356M  8356   8363   8498M  8501   8513M
              8521M  8530M  8530   8537   8585M  8593   8594M  8595M  8605U  8618U  8770   8814D  8816M  8816   8817M
              8818U  8823M  8832M  8832   8839   8876N  8880D  8882M  8882   8883M  8884U  8888M  8897M  8897   8904
              8923M  8943M  8943   8969M  8969   9068M  9194M  9247M  9256M  9256   9263   9358M  9379M  9405M  9405
              9827M  9828   9843M  9924M  9925M  9926   9927M 10236M 10446M 10450M 10459M 10459  10466  10536M 10540M
             10549M 10549  10556  10612M 10613  10784M 10818M 10836M 10864M 10882M 10931M 10948M 10975M 11019M 11057M
             11085M 11102M 11124M 11158M 11176M 11204M 11222M 11266M 11283M 11304M 11332M 11349M 11367M 11417M 11430M
             11430  11460M 11492  11517M 11534M 11564M 11649M 11660M 11660  11675U 11700  11720M 11726U 11796M 12039M
             12043M 12052M 12052  12059  12144M 12148M 12157M 12157  12164  12189M 12189  12231M 12309M 12309  12409M
             12413M 12422M 12422  12429  12493M 12497M 12506M 12506  12513  12589M 12593M 12602M 12602  12609  12685M
1         (MAIL4072) (12:48) (15MAR04) General Purpose Register Cross Reference                                             Page  213
             12689M 12698M 12698  12705  13000M 13022M 13079M 13079  13148M 13148  13364M 13364  13380M 13403M 13403
             13568M 13568  13666M 13667M 13668  13680  13702M 13729M 13844M 13850M 13870M 13886  13906  13925M 13935U
             13948U 13981M 13981  14189M 14209M 14233M 14250M 14263  14285M 14292M 14314  14320M 14370M 14370  14392M
             14409M 14433M 14450M 14463  14485M 14492M 14514  14520M 14570M 14570  14581M 14606M 14606  14660  14711M
             14712M 14714M 14754M 14754  14766  14788  14803  14828M 14848M 14857M 14857  14864  14891M 14935M 15019M
             15026M 15026  15050M 15050  15187  15205M 15205  15263M 15393M 15441M 15459M 15489M 15581M 15609M 15627M
             15655M 15673M 15704M 15714M 15841M 15859M 15864M 15882M 15914M 15961M 16110M 16140M 16140  16176M 16176
             16229  16260M 16366M 16366  16373M 16412M 16430M 16435M 16442  16484M 16489M 16507M 16552M 16561M 16766M
             16766  16779  16802  16824M 16849M 16849  16875M 16875  17008M 17026M 17044M 17062M 17089M 17107M 17112M
             17124M 17124  17146M 17146  17242M 17262M 17286M 17303M 17316  17338M 17345M 17367  17373M 17437M 17454M
             17478M 17495M 17508  17530M 17537M 17559  17565M 17619M 17627M 17627  17655M 17655  17743M 17773M 17773
             17822  17926M 17962M 18035M 18087M 18113M 18147M 18182M 18210M 18242M 18242  18403  18441M 18442M 18443
             18463M 18464M 18465  18491M 18492M 18493  18517M 18518M 18519  18555M 18560M 18585M 18617M 18649M 18677M
             18748M 18770M 18771M 18772  18773M 18835M 18873M 18878M 18896M 18954M 19009  19055M 19060M 19178M 19200M
             19265M 19291M 19378M 19404M 19471M 19488  19534M 19535M 19536  19548  19594M 19612M 19617M 19810M 19832M
             19896M 19968M 19968  19975M 19997M 19997  20048M 20053M 20078M 20377M 20395M 20473M 20491M 20518M 20550M
             20586M 20614M 20653M 20675M 20693M 20703M 20704  20709M 20718M 20718  20725  20756M 20778M 20783  20819M
             20824M 20901M 20932M 21001M 21066M 21066  21339  21417M 21434M 21452M 21480M 21523M 21587M 21592M 21629M
             21629  21699  21730M 21756M 21778M 21816M 21842M 21864M 21901M 21927M 21942M 21968M 21990M 22028M 22054M
             22076M 22098M 22124M 22156M 22182M 22208M 22237M 22237  22332M 22348M 22358  22379M 22380M 22447M 22466M
             22466  22650  22728M 22761M 22782M 22810M 22827M 22867M 22868M 22869M 22915M 22932M 23001M 23047M 23077M
             23124M 23212M 23217M 23250M 23250  23320  23354M 23360M 23386M 23410M 23428M 23464M 23490M 23505M 23537M
             23552M 23592M 23622M 23648M 23666M 23702M 23728M 23743M 23800M 23833M 23859M 23940M 23971M 24016M 24042M
             24072M 24072  24167M 24183M 24193  24214M 24215M 24282M 24301M 24301  24547  24625M 24661M 24699M 24720M
             24748M 24834M 24881M 24886M 24911M 24989M 24994M 25019M 25066M 25066  25178  25233M 25259M 25275M 25377M
             25486M 25532M 25553M 25633M 25659M 25709M 25735M 25766M 25792M 25812M 25904M 25945M 25951M 25982M 26006M
             26040M 26075M 26101M 26116M 26134M 26149M 26181M 26211M 26237M 26267M 26298M 26324M 26339M 26358M 26409M
             26427M 26449M 26551M 26717M 26742M 26757M 26787M 26809M 26824M 26864M 26890M 26905M 26923M 26938M 27001M
             27027M 27042M 27060M 27075M 27144M 27187M 27257M 27300M 27341M 27391M 27417M 27572M 27612M 27701M 27802M
             27828M 27850M 27926M 27957M 28002M 28059M 28075M 28096M 28131M 28131  28227M 28242M 28252  28273M 28274M
             28341M 28365M 28365  28470M 28470  28573M 28573  28712  28756M 28792M 28793M 28794  28800D 28802M 28802
             28803M 28804U 28805M 28809M 28818M 28818  28825  28844M 28853  28863D 28865M 28865  28866M 28867U 28892M
             28902M 28902  28911  28944M 28967M 28995M 29013M 29057M 29063M 29094M 29122M 29161M 29189M 29207M 29241M
             29324M 29352M 29400M 29428M 29469M 29499M 29538M 29566M 29584M 29618M 29651M 29696M 29724M 29753M 29781M
             29824M 29852M 29870M 29898M 29944M 29972M 30037M 30038  30043M 30052M 30052  30059  30090M 30111M 30112M
             30113  30114  30191  30200M 30201  30202  30276M 30281M 30297  30320D 30322M 30322  30323M 30324U 30325M
             30334M 30334  30441M 30481M 30482M 30483  30484M 30492M 30492N 30493  30495M 30525M 30543M 30594M 30594
             30648M 30653M 30665  30669M 30670M 30671  30672M 30680M 30680N 30681  30683M 30745M 30788M 30814M 30876M
             30876  31082M 31082  31164M 31178M 31179M 31180  31200M 31201M 31202  31246  31268M 31275M 31300M 31365M
             31380M 31425M 31450M 31465M 31490M 31522M 31554M 31586M 31737M 31777M 31777  32132M 32132  32151M 32151
             32214M 32214  32277M 32277  32340M 32340  32403M 32403  32466M 32466  32529M 32529  32592M 32592  32655M
             32655  32718M 32718  32781M 32781  32841M 32841  32907M 32907  33196  33269M 33287M 33315M 33333M 33353M
             33509M 33521M 33521  33532D 33534M 33534  33535M 33536U 33538  33577M 33605M 33623M 33651M 33669M 33697M
             33715M 33735D 33737M 33737  33738M 33739U 33763M 33783M 33792M 33792  33925  33926M 33936U 33962U 33964M
             33994  33995M 34005U 34031U 34033M 34101M 34102M 34102  34111M 34111  34118M 34158M 34202M 34220M 34232M
             34245M 34252M 34273  34395M 34417M 34428M 34435M 34436N 34462M 34488M 34493M 34523M 34537  34568M 34586M
             34641M 34642M 34643  34828M 34877M 34915M 34957M 34975M 35001M 35013M 35013  35089M 35106  35120M 35226M
             35231M 35290M 35364M 35365M 35377  35497M 35498M 35499  35504D 35506M 35506  35507M 35508U 35509M 35513M
             35522M 35522  35529  35548M 35557  35571D 35573M 35573  35574M 35575U 35588M 35625M 35626  35928M 35930
             35970M 35976M 35976  35999M 36080M 36117M 36118M 36161M 36161  36180M 36207M 36232M 36281M 36281  36493M
             36518M 36519M 36632M 36650M 36659M 36666M 36666  36865M 36942M 36972M 36990M 37045M 37046M 37048M 37120M
             37178M 37179M 37180M 37181  37236M 37268M 37269M 37461M 37462M 37463  37501M 37502M 37503  37556M 37609M
             37610M 37611M 37612  37625M 37637  37674  37719M 37724M 37724  37849M 37870M 37888M 37926M 37947M 38023M
             38110M 38187M 38188M 38198M 38208U 38227U 38238M 38238  38255M 38265U 38284U 38286M 38296U 38330M 38346U
             38378M 38475M 38497M 38513M 38527  38591M 38609M 38621M 38622M 38622N 38636M 38637M 38637N 38813M 38813
             38815  38825M 38835M 38835  38838M 38854M 38945M 38963M 38981M 38999M 39020  39061M 39098M 39102M 39102
             39175  39187M 39191M 39191  39203  39261M 39265M 39265  39473M 39488M 39489M 39742M 39771M 39771  39807
             39815M 39816  39817  39891M 39896M 39912  39916M 39917M 39918  39919M 39927M 39927N 39928  39969D 39971M
             39971  39972M 39973U 39987  40067M 40068M 40069  40090M 40091M 40092  40142M 40172M 40188M 40210M 40240M
1         (MAIL4072) (12:48) (15MAR04) General Purpose Register Cross Reference                                             Page  214
             40270M 40311M 40311  40528M 40555  40580D 40582M 40582  40583M 40584U 40585M 40586  40622M 40682M 40691M
             40691  40698  40729M 40729  40734M 40734  40946M 40967M 40988M 41005M 41031M 41048M 41077M 41094M 41122M
             41122  41173  41251M 41317M 41339M 41413M 41441M 41475M 41509M 41537M 41578M 41607M

1MAIL     (MAIL4072) (12:48) (15MAR04) Diagnostic Cross Reference and Assembler Summary                                     Page  215
-                                                                                            HLASM R4.0  2004/03/15 12.48
0     No Statements Flagged in this Assembly
 HIGH LEVEL ASSEMBLER, 5696-234, RELEASE 4.0, PTF P72483
0SYSTEM: OS/390 02.10.00            JOBNAME: WYL#MAIL    STEPNAME: ASM        PROCSTEP: (NOPROC)
0Datasets Allocated for this Assembly
  Con DDname   Dataset Name                                 Volume  Member
   P1 SYSIN    WYL.GS.WYL.WYLBUR.SOURCE                     SYSB05  MAIL
   L1 SYSLIB   WYL.GS.WYL.WYLBUR.MACLIB                     SYSB05
   L2          WYL.GG.SYS.MACLIB                            SYSB05
   L3          SYS3.IS.MACLIB                               SYSB05
   L4          SYS3.MACLIB                                  SYSB02
   L5          SYS1.MACLIB                                  MVSBR9
   L6          SYS1.MODGEN                                  MVSBR9
      SYSPRINT SYS04075.T124822.RA000.WYL#MAIL.PRINT.H01    SCR101
      SYSTERM  GG$SLP.WYL#MAIL.JOB03540.D0000101.?

    3668K allocated to Buffer Pool,         5345K would be required for this to be an In-Storage Assembly
    5012 Primary Input Records Read        12887 Library Records Read                372 Work File Reads
       0 ASMAOPT Records Read              21378 Primary Print Records Written       424 Work File Writes
       0 Punch Records Written                 0 ADATA Records Written
0Assembly Start Time: 12.48.23 Stop Time: 12.48.48 Processor Time: 00.00.08.2417
 Return Code 000
